{
  "hash": "00000000f2b2004137476fabc5e3b494f82ed655094e32cb45f79cbdd573657b",
  "confirmations": 46410,
  "height": 6688,
  "version": 1,
  "versionHex": "00000001",
  "merkleroot": "79e4a9b66f2cc6ea889d2be45ef7755b1d04958b9234c970080d5021f53c54f1",
  "time": 1236473952,
  "mediantime": 1236469692,
  "nonce": 3207575839,
  "bits": "1d00ffff",
  "difficulty": 1,
  "chainwork": "00000000000000000000000000000000000000000000000000001a211a211a21",
  "nTx": 1,
  "previousblockhash": "00000000eea3e5ed45d24b009087a5870586c0182805fe519a370fc4372a88a3",
  "nextblockhash": "00000000c25163f1d9e92bcf1e311c5c246e75e97469fc10fc0429462bbf59b1",
  "strippedsize": 216,
  "size": 216,
  "weight": 864,
  "tx": [
    {
      "txid": "79e4a9b66f2cc6ea889d2be45ef7755b1d04958b9234c970080d5021f53c54f1",
      "hash": "79e4a9b66f2cc6ea889d2be45ef7755b1d04958b9234c970080d5021f53c54f1",
      "version": 1,
      "size": 135,
      "vsize": 135,
      "weight": 540,
      "locktime": 0,
      "vin": [
        {
          "coinbase": "04ffff001d02c606",
          "sequence": 4294967295
        }
      ],
      "vout": [
        {
          "value": 50.0,
          "n": 0,
          "scriptPubKey": {
            "asm": "04e5cdc7e70d45887b13ecd330d621918ca8e89035ff7c680242ca3d807ef22487a870b8c7ffc0f8a019a3f8f95e0b52a6d79837db1fc8dcb4e75eaf2e5b15dea5 OP_CHECKSIG",
            "desc": "pk(04e5cdc7e70d45887b13ecd330d621918ca8e89035ff7c680242ca3d807ef22487a870b8c7ffc0f8a019a3f8f95e0b52a6d79837db1fc8dcb4e75eaf2e5b15dea5)#6ztdaa8c",
            "hex": "4104e5cdc7e70d45887b13ecd330d621918ca8e89035ff7c680242ca3d807ef22487a870b8c7ffc0f8a019a3f8f95e0b52a6d79837db1fc8dcb4e75eaf2e5b15dea5ac",
            "type": "pubkey"
          }
        }
      ],
      "hex": "01000000010000000000000000000000000000000000000000000000000000000000000000ffffffff0804ffff001d02c606ffffffff0100f2052a01000000434104e5cdc7e70d45887b13ecd330d621918ca8e89035ff7c680242ca3d807ef22487a870b8c7ffc0f8a019a3f8f95e0b52a6d79837db1fc8dcb4e75eaf2e5b15dea5ac00000000"
    }
  ]
}