{
  "hash": "0000000055b1370e339fb0017ecdf886190dfe419e2b9f0a372d7b7fa54df08f",
  "confirmations": 43153,
  "height": 9945,
  "version": 1,
  "versionHex": "00000001",
  "merkleroot": "7db1cc56d9406d5a77f106fe716abb14f99adb94fd18686804f6f87788b35a38",
  "time": 1238951292,
  "mediantime": 1238947978,
  "nonce": 4219149612,
  "bits": "1d00ffff",
  "difficulty": 1,
  "chainwork": "000000000000000000000000000000000000000000000000000026da26da26da",
  "nTx": 1,
  "previousblockhash": "00000000cdddc307896ba07503cfe36bc6c1e5eaa2bed269039a8b90f8a10ca4",
  "nextblockhash": "00000000203d3170c0b22743b45778259d0ebbf9811f76afff256f7cbb0d1ece",
  "strippedsize": 216,
  "size": 216,
  "weight": 864,
  "tx": [
    {
      "txid": "7db1cc56d9406d5a77f106fe716abb14f99adb94fd18686804f6f87788b35a38",
      "hash": "7db1cc56d9406d5a77f106fe716abb14f99adb94fd18686804f6f87788b35a38",
      "version": 1,
      "size": 135,
      "vsize": 135,
      "weight": 540,
      "locktime": 0,
      "vin": [
        {
          "coinbase": "04ffff001d02a102",
          "sequence": 4294967295
        }
      ],
      "vout": [
        {
          "value": 50.0,
          "n": 0,
          "scriptPubKey": {
            "asm": "04d4ff9c9ba37e3fc86a92b228da087963a9319c6d8066cfa5ff37324f74626772466e9e5bbf8e8d4849400972e1b345e578d9edfd0154bf3ffce16e79433e04e4 OP_CHECKSIG",
            "desc": "pk(04d4ff9c9ba37e3fc86a92b228da087963a9319c6d8066cfa5ff37324f74626772466e9e5bbf8e8d4849400972e1b345e578d9edfd0154bf3ffce16e79433e04e4)#hnv5v44y",
            "hex": "4104d4ff9c9ba37e3fc86a92b228da087963a9319c6d8066cfa5ff37324f74626772466e9e5bbf8e8d4849400972e1b345e578d9edfd0154bf3ffce16e79433e04e4ac",
            "type": "pubkey"
          }
        }
      ],
      "hex": "01000000010000000000000000000000000000000000000000000000000000000000000000ffffffff0804ffff001d02a102ffffffff0100f2052a01000000434104d4ff9c9ba37e3fc86a92b228da087963a9319c6d8066cfa5ff37324f74626772466e9e5bbf8e8d4849400972e1b345e578d9edfd0154bf3ffce16e79433e04e4ac00000000"
    }
  ]
}