{
  "hash": "0000000034919ca31173f4f19fd71f9d9b46d9f0d3a2231bc6ce83aa569b1390",
  "confirmations": 45870,
  "height": 7228,
  "version": 1,
  "versionHex": "00000001",
  "merkleroot": "1518504209379026bbe3064046c616c667ac79ae3f933de415c4591957bc12f4",
  "time": 1236891607,
  "mediantime": 1236888516,
  "nonce": 3031179550,
  "bits": "1d00ffff",
  "difficulty": 1,
  "chainwork": "00000000000000000000000000000000000000000000000000001c3d1c3d1c3d",
  "nTx": 1,
  "previousblockhash": "000000006f571a21a59130d0f6f22a5d6d49f145a84b09677812e364410bae0b",
  "nextblockhash": "000000006d0f8fea03ffbc8a045e8df4d35f571d8e7297503a6a64269344c152",
  "strippedsize": 216,
  "size": 216,
  "weight": 864,
  "tx": [
    {
      "txid": "1518504209379026bbe3064046c616c667ac79ae3f933de415c4591957bc12f4",
      "hash": "1518504209379026bbe3064046c616c667ac79ae3f933de415c4591957bc12f4",
      "version": 1,
      "size": 135,
      "vsize": 135,
      "weight": 540,
      "locktime": 0,
      "vin": [
        {
          "coinbase": "04ffff001d021c06",
          "sequence": 4294967295
        }
      ],
      "vout": [
        {
          "value": 50.0,
          "n": 0,
          "scriptPubKey": {
            "asm": "045368c1d3511baed1e35aabc8259b2f00d9529fbc9df02319930a8ece5fbcce7176ae360e46ae83a8995d1b78ebab17156e63ae72ed5870aada94c4090006060c OP_CHECKSIG",
            "desc": "pk(045368c1d3511baed1e35aabc8259b2f00d9529fbc9df02319930a8ece5fbcce7176ae360e46ae83a8995d1b78ebab17156e63ae72ed5870aada94c4090006060c)#gavgl9r0",
            "hex": "41045368c1d3511baed1e35aabc8259b2f00d9529fbc9df02319930a8ece5fbcce7176ae360e46ae83a8995d1b78ebab17156e63ae72ed5870aada94c4090006060cac",
            "type": "pubkey"
          }
        }
      ],
      "hex": "01000000010000000000000000000000000000000000000000000000000000000000000000ffffffff0804ffff001d021c06ffffffff0100f2052a010000004341045368c1d3511baed1e35aabc8259b2f00d9529fbc9df02319930a8ece5fbcce7176ae360e46ae83a8995d1b78ebab17156e63ae72ed5870aada94c4090006060cac00000000"
    }
  ]
}