{
  "hash": "00000000e79bd48bbc4416ad172e69b505694be0dd7566aac1063751dc37ce3f",
  "confirmations": 51799,
  "height": 1299,
  "version": 1,
  "versionHex": "00000001",
  "merkleroot": "af8bb49c5e31c5533b512fb47655ab9fd31ec979829b98fbec729b924561fb79",
  "time": 1232592232,
  "mediantime": 1232570736,
  "nonce": 87595697,
  "bits": "1d00ffff",
  "difficulty": 1,
  "chainwork": "0000000000000000000000000000000000000000000000000000051405140514",
  "nTx": 1,
  "previousblockhash": "0000000098d3bdbb973ec3db8f5c017ae018110a2f95df5b8d621fedbe27d23d",
  "nextblockhash": "0000000047a712b762d9c91aa1cc2e33fb48ea64276a7086c3c10aa252a934ab",
  "strippedsize": 215,
  "size": 215,
  "weight": 860,
  "tx": [
    {
      "txid": "af8bb49c5e31c5533b512fb47655ab9fd31ec979829b98fbec729b924561fb79",
      "hash": "af8bb49c5e31c5533b512fb47655ab9fd31ec979829b98fbec729b924561fb79",
      "version": 1,
      "size": 134,
      "vsize": 134,
      "weight": 536,
      "locktime": 0,
      "vin": [
        {
          "coinbase": "04ffff001d017a",
          "sequence": 4294967295
        }
      ],
      "vout": [
        {
          "value": 50.0,
          "n": 0,
          "scriptPubKey": {
            "asm": "042f54053d9287ac5907157accb4d0bf4568296185f96a63656892feed3c7499f1feee7f7a4116990406a9d0e65a3635b7d167285744d7f1cde96d8cadb3e366f0 OP_CHECKSIG",
            "desc": "pk(042f54053d9287ac5907157accb4d0bf4568296185f96a63656892feed3c7499f1feee7f7a4116990406a9d0e65a3635b7d167285744d7f1cde96d8cadb3e366f0)#mnsetz9v",
            "hex": "41042f54053d9287ac5907157accb4d0bf4568296185f96a63656892feed3c7499f1feee7f7a4116990406a9d0e65a3635b7d167285744d7f1cde96d8cadb3e366f0ac",
            "type": "pubkey"
          }
        }
      ],
      "hex": "01000000010000000000000000000000000000000000000000000000000000000000000000ffffffff0704ffff001d017affffffff0100f2052a010000004341042f54053d9287ac5907157accb4d0bf4568296185f96a63656892feed3c7499f1feee7f7a4116990406a9d0e65a3635b7d167285744d7f1cde96d8cadb3e366f0ac00000000"
    }
  ]
}