{
  "hash": "00000000d2fb950a997c3a5f555ae3485293dc972bb2baa396283006fe3230dd",
  "confirmations": 52084,
  "height": 1014,
  "version": 1,
  "versionHex": "00000001",
  "merkleroot": "cb6e55b274a3fd0e1495740f1f185e207ae5602b1899b806bba9856ef9bce37d",
  "time": 1232359280,
  "mediantime": 1232355137,
  "nonce": 161802052,
  "bits": "1d00ffff",
  "difficulty": 1,
  "chainwork": "000000000000000000000000000000000000000000000000000003f703f703f7",
  "nTx": 1,
  "previousblockhash": "00000000f9c20fdda7029f3d5eda156b6b7d4d2b3b8b850b9dea839483e145b6",
  "nextblockhash": "0000000071ee64ac3fc9735b74d39618b38c1225723a98bdbdbe83c010069632",
  "strippedsize": 216,
  "size": 216,
  "weight": 864,
  "tx": [
    {
      "txid": "cb6e55b274a3fd0e1495740f1f185e207ae5602b1899b806bba9856ef9bce37d",
      "hash": "cb6e55b274a3fd0e1495740f1f185e207ae5602b1899b806bba9856ef9bce37d",
      "version": 1,
      "size": 135,
      "vsize": 135,
      "weight": 540,
      "locktime": 0,
      "vin": [
        {
          "coinbase": "04ffff001d02de00",
          "sequence": 4294967295
        }
      ],
      "vout": [
        {
          "value": 50.0,
          "n": 0,
          "scriptPubKey": {
            "asm": "04db42f4c00002137e4f7c02eb75e2202272c450b58647ddc2e9ea151bd06dde0fe845964040adaf123f91c302bbe98cc930c8af30730000162890d6d33f513c19 OP_CHECKSIG",
            "desc": "pk(04db42f4c00002137e4f7c02eb75e2202272c450b58647ddc2e9ea151bd06dde0fe845964040adaf123f91c302bbe98cc930c8af30730000162890d6d33f513c19)#qeq8tvsr",
            "hex": "4104db42f4c00002137e4f7c02eb75e2202272c450b58647ddc2e9ea151bd06dde0fe845964040adaf123f91c302bbe98cc930c8af30730000162890d6d33f513c19ac",
            "type": "pubkey"
          }
        }
      ],
      "hex": "01000000010000000000000000000000000000000000000000000000000000000000000000ffffffff0804ffff001d02de00ffffffff0100f2052a01000000434104db42f4c00002137e4f7c02eb75e2202272c450b58647ddc2e9ea151bd06dde0fe845964040adaf123f91c302bbe98cc930c8af30730000162890d6d33f513c19ac00000000"
    }
  ]
}