{
  "hash": "00000000cff43a64ec00bea11866875c471289b38103f18ab4ee8d0f8f4f8ac7",
  "confirmations": 52185,
  "height": 444,
  "version": 1,
  "versionHex": "00000001",
  "merkleroot": "ba4a9246d9f4471c59cf51fe4cb597cf1c63a3ddd17c0d8bfde3a6a0610e5699",
  "time": 1231931549,
  "mediantime": 1231928740,
  "nonce": 1771525916,
  "bits": "1d00ffff",
  "difficulty": 1,
  "chainwork": "000000000000000000000000000000000000000000000000000001bd01bd01bd",
  "nTx": 1,
  "previousblockhash": "00000000945c9ee0ee1dd8c1e59b44de30354039ad301de90782c14164517e48",
  "nextblockhash": "00000000cc07f5ed1508f93332c84f983e429e53ce2391792d114578500df442",
  "strippedsize": 216,
  "size": 216,
  "weight": 864,
  "tx": [
    {
      "txid": "ba4a9246d9f4471c59cf51fe4cb597cf1c63a3ddd17c0d8bfde3a6a0610e5699",
      "hash": "ba4a9246d9f4471c59cf51fe4cb597cf1c63a3ddd17c0d8bfde3a6a0610e5699",
      "version": 1,
      "size": 135,
      "vsize": 135,
      "weight": 540,
      "locktime": 0,
      "vin": [
        {
          "coinbase": "04ffff001d028203",
          "sequence": 4294967295
        }
      ],
      "vout": [
        {
          "value": 50.0,
          "n": 0,
          "scriptPubKey": {
            "asm": "04941f054ab55c345828b6daee875ac8f8c088ea6e0bfc9e38a76aef32da5afb9651241adc001f274cbd9bd7497fb4b437145a5e69b8cc37a40b22ff417f79cd78 OP_CHECKSIG",
            "desc": "pk(04941f054ab55c345828b6daee875ac8f8c088ea6e0bfc9e38a76aef32da5afb9651241adc001f274cbd9bd7497fb4b437145a5e69b8cc37a40b22ff417f79cd78)#9fw5w8mp",
            "hex": "4104941f054ab55c345828b6daee875ac8f8c088ea6e0bfc9e38a76aef32da5afb9651241adc001f274cbd9bd7497fb4b437145a5e69b8cc37a40b22ff417f79cd78ac",
            "type": "pubkey"
          }
        }
      ],
      "hex": "01000000010000000000000000000000000000000000000000000000000000000000000000ffffffff0804ffff001d028203ffffffff0100f2052a01000000434104941f054ab55c345828b6daee875ac8f8c088ea6e0bfc9e38a76aef32da5afb9651241adc001f274cbd9bd7497fb4b437145a5e69b8cc37a40b22ff417f79cd78ac00000000"
    }
  ]
}