{
  "hash": "00000000708e3b444d261f2563f04f1c4e7ea53f7b4315386f25b73c06e6f104",
  "confirmations": 44058,
  "height": 9040,
  "version": 1,
  "versionHex": "00000001",
  "merkleroot": "5475f3ba4edc8b83492d50a1a3b4c844cd3bfa1bf34d51cf84ea78426c640ecc",
  "time": 1238282396,
  "mediantime": 1238277771,
  "nonce": 921083393,
  "bits": "1d00ffff",
  "difficulty": 1,
  "chainwork": "0000000000000000000000000000000000000000000000000000235123512351",
  "nTx": 1,
  "previousblockhash": "00000000944a6986d12e34ccdcdf52d97c2a01eb6e53264c162d23c562984778",
  "nextblockhash": "00000000543f619afa8d04536090c732999ae11913c11d7192208177faec7321",
  "strippedsize": 216,
  "size": 216,
  "weight": 864,
  "tx": [
    {
      "txid": "5475f3ba4edc8b83492d50a1a3b4c844cd3bfa1bf34d51cf84ea78426c640ecc",
      "hash": "5475f3ba4edc8b83492d50a1a3b4c844cd3bfa1bf34d51cf84ea78426c640ecc",
      "version": 1,
      "size": 135,
      "vsize": 135,
      "weight": 540,
      "locktime": 0,
      "vin": [
        {
          "coinbase": "04ffff001d021307",
          "sequence": 4294967295
        }
      ],
      "vout": [
        {
          "value": 50.0,
          "n": 0,
          "scriptPubKey": {
            "asm": "047c697cc3876391ee20bccc236376e3e7323235abe6edddb7dc506426673b7f565529bbe5b3eed3c93186d616bced7ec9ff1d1d46db616909437cbf7c41c6eb4f OP_CHECKSIG",
            "desc": "pk(047c697cc3876391ee20bccc236376e3e7323235abe6edddb7dc506426673b7f565529bbe5b3eed3c93186d616bced7ec9ff1d1d46db616909437cbf7c41c6eb4f)#clf6uxpa",
            "hex": "41047c697cc3876391ee20bccc236376e3e7323235abe6edddb7dc506426673b7f565529bbe5b3eed3c93186d616bced7ec9ff1d1d46db616909437cbf7c41c6eb4fac",
            "type": "pubkey"
          }
        }
      ],
      "hex": "01000000010000000000000000000000000000000000000000000000000000000000000000ffffffff0804ffff001d021307ffffffff0100f2052a010000004341047c697cc3876391ee20bccc236376e3e7323235abe6edddb7dc506426673b7f565529bbe5b3eed3c93186d616bced7ec9ff1d1d46db616909437cbf7c41c6eb4fac00000000"
    }
  ]
}