{
  "hash": "000000009ffcdd117fab7d41eb9194af5d4dd82a024f889e340c922672f34562",
  "confirmations": 50078,
  "height": 3020,
  "version": 1,
  "versionHex": "00000001",
  "merkleroot": "bfcf5d90a1ac1adce0f1fe6d8a38839d9a2649074209ccb40d9b3f164bf24287",
  "time": 1233776683,
  "mediantime": 1233772986,
  "nonce": 284593094,
  "bits": "1d00ffff",
  "difficulty": 1,
  "chainwork": "00000000000000000000000000000000000000000000000000000bcd0bcd0bcd",
  "nTx": 1,
  "previousblockhash": "00000000af213faaf56c36784a0a11050d7089c5e06a15940d6a856d108a6b1b",
  "nextblockhash": "00000000d9a05c3e4f3fa38316f615e1c3bfbe32b773ac237ebc5e2597a5eed3",
  "strippedsize": 215,
  "size": 215,
  "weight": 860,
  "tx": [
    {
      "txid": "bfcf5d90a1ac1adce0f1fe6d8a38839d9a2649074209ccb40d9b3f164bf24287",
      "hash": "bfcf5d90a1ac1adce0f1fe6d8a38839d9a2649074209ccb40d9b3f164bf24287",
      "version": 1,
      "size": 134,
      "vsize": 134,
      "weight": 536,
      "locktime": 0,
      "vin": [
        {
          "coinbase": "04ffff001d0130",
          "sequence": 4294967295
        }
      ],
      "vout": [
        {
          "value": 50.0,
          "n": 0,
          "scriptPubKey": {
            "asm": "041e1709f88ab5a69a642c7add65b3a1e011ddf64a155c07338cfeb7824430aa124a16e2fd8af6c08f8537e0bc1966c267b4bedfea93d020b83f0ff4ba5eb26ccb OP_CHECKSIG",
            "desc": "pk(041e1709f88ab5a69a642c7add65b3a1e011ddf64a155c07338cfeb7824430aa124a16e2fd8af6c08f8537e0bc1966c267b4bedfea93d020b83f0ff4ba5eb26ccb)#h729f6rl",
            "hex": "41041e1709f88ab5a69a642c7add65b3a1e011ddf64a155c07338cfeb7824430aa124a16e2fd8af6c08f8537e0bc1966c267b4bedfea93d020b83f0ff4ba5eb26ccbac",
            "type": "pubkey"
          }
        }
      ],
      "hex": "01000000010000000000000000000000000000000000000000000000000000000000000000ffffffff0704ffff001d0130ffffffff0100f2052a010000004341041e1709f88ab5a69a642c7add65b3a1e011ddf64a155c07338cfeb7824430aa124a16e2fd8af6c08f8537e0bc1966c267b4bedfea93d020b83f0ff4ba5eb26ccbac00000000"
    }
  ]
}