{
  "hash": "000000009f8db5a817713a51f12b02760ebdff49fb5fdfe6721ac4fbe984d419",
  "confirmations": 43972,
  "height": 9126,
  "version": 1,
  "versionHex": "00000001",
  "merkleroot": "291f57c02d0980053f80dae848e2b86325d055d5d600763bf66b6d7a607c99ee",
  "time": 1238347397,
  "mediantime": 1238345035,
  "nonce": 2080929307,
  "bits": "1d00ffff",
  "difficulty": 1,
  "chainwork": "000000000000000000000000000000000000000000000000000023a723a723a7",
  "nTx": 1,
  "previousblockhash": "000000003be9486e499a818564557040a44ef27bc8ac71b9af93c75262ab0b94",
  "nextblockhash": "0000000039f74ad11fb3d70e8c72ed9c1e8aad180447b7c25a266f89f0d90cda",
  "strippedsize": 216,
  "size": 216,
  "weight": 864,
  "tx": [
    {
      "txid": "291f57c02d0980053f80dae848e2b86325d055d5d600763bf66b6d7a607c99ee",
      "hash": "291f57c02d0980053f80dae848e2b86325d055d5d600763bf66b6d7a607c99ee",
      "version": 1,
      "size": 135,
      "vsize": 135,
      "weight": 540,
      "locktime": 0,
      "vin": [
        {
          "coinbase": "04ffff001d02d508",
          "sequence": 4294967295
        }
      ],
      "vout": [
        {
          "value": 50.0,
          "n": 0,
          "scriptPubKey": {
            "asm": "048eec5a4c35b4ad3828d4921ece054728828baa1899917a7dfae972399b0c0a70723caccb538d01339c4836ec160cf19c89a0ce3b5d008f962bb348471cd59829 OP_CHECKSIG",
            "desc": "pk(048eec5a4c35b4ad3828d4921ece054728828baa1899917a7dfae972399b0c0a70723caccb538d01339c4836ec160cf19c89a0ce3b5d008f962bb348471cd59829)#vguk856w",
            "hex": "41048eec5a4c35b4ad3828d4921ece054728828baa1899917a7dfae972399b0c0a70723caccb538d01339c4836ec160cf19c89a0ce3b5d008f962bb348471cd59829ac",
            "type": "pubkey"
          }
        }
      ],
      "hex": "01000000010000000000000000000000000000000000000000000000000000000000000000ffffffff0804ffff001d02d508ffffffff0100f2052a010000004341048eec5a4c35b4ad3828d4921ece054728828baa1899917a7dfae972399b0c0a70723caccb538d01339c4836ec160cf19c89a0ce3b5d008f962bb348471cd59829ac00000000"
    }
  ]
}