{
  "hash": "00000000945c9ee0ee1dd8c1e59b44de30354039ad301de90782c14164517e48",
  "confirmations": 52186,
  "height": 443,
  "version": 1,
  "versionHex": "00000001",
  "merkleroot": "296590fecb1e02811be6c620e6539c57b57bf7184c090ccad4acb42974aca60e",
  "time": 1231930862,
  "mediantime": 1231927782,
  "nonce": 317782073,
  "bits": "1d00ffff",
  "difficulty": 1,
  "chainwork": "000000000000000000000000000000000000000000000000000001bc01bc01bc",
  "nTx": 1,
  "previousblockhash": "00000000c55c595b18eff1e1d3f52b5759b9f56dac235af896e9c478cc77cbeb",
  "nextblockhash": "00000000cff43a64ec00bea11866875c471289b38103f18ab4ee8d0f8f4f8ac7",
  "strippedsize": 216,
  "size": 216,
  "weight": 864,
  "tx": [
    {
      "txid": "296590fecb1e02811be6c620e6539c57b57bf7184c090ccad4acb42974aca60e",
      "hash": "296590fecb1e02811be6c620e6539c57b57bf7184c090ccad4acb42974aca60e",
      "version": 1,
      "size": 135,
      "vsize": 135,
      "weight": 540,
      "locktime": 0,
      "vin": [
        {
          "coinbase": "04ffff001d027a03",
          "sequence": 4294967295
        }
      ],
      "vout": [
        {
          "value": 50.0,
          "n": 0,
          "scriptPubKey": {
            "asm": "04fc4f7e3459080761f3639a7708c9827aa05ac4c35b8a8aa67caafe85f03b75f202357bb9e0baff9ca6ceea6ac7e143138c0b8f99027344b7b7338fd7440b989b OP_CHECKSIG",
            "desc": "pk(04fc4f7e3459080761f3639a7708c9827aa05ac4c35b8a8aa67caafe85f03b75f202357bb9e0baff9ca6ceea6ac7e143138c0b8f99027344b7b7338fd7440b989b)#4gpg29dh",
            "hex": "4104fc4f7e3459080761f3639a7708c9827aa05ac4c35b8a8aa67caafe85f03b75f202357bb9e0baff9ca6ceea6ac7e143138c0b8f99027344b7b7338fd7440b989bac",
            "type": "pubkey"
          }
        }
      ],
      "hex": "01000000010000000000000000000000000000000000000000000000000000000000000000ffffffff0804ffff001d027a03ffffffff0100f2052a01000000434104fc4f7e3459080761f3639a7708c9827aa05ac4c35b8a8aa67caafe85f03b75f202357bb9e0baff9ca6ceea6ac7e143138c0b8f99027344b7b7338fd7440b989bac00000000"
    }
  ]
}