{
  "hash": "00000000fba87969be71e6f44277e1ae6547b90a2cdd76ea4b5fdf5096c243ef",
  "confirmations": 47310,
  "height": 5788,
  "version": 1,
  "versionHex": "00000001",
  "merkleroot": "5be2e8375895b8ea38195d544d7bcec75a9bba04aaa07396a015cbde6881a95d",
  "time": 1235751169,
  "mediantime": 1235747745,
  "nonce": 423251,
  "bits": "1d00ffff",
  "difficulty": 1,
  "chainwork": "0000000000000000000000000000000000000000000000000000169d169d169d",
  "nTx": 1,
  "previousblockhash": "0000000081fb4ba2876b73465c44cbd8b2645354aa9acfab02c7a02bdeb6b65c",
  "nextblockhash": "000000005bf0467f52dbded6b81ae713b4f06d7e99bb0546adcdb6b569b9c5bf",
  "strippedsize": 216,
  "size": 216,
  "weight": 864,
  "tx": [
    {
      "txid": "5be2e8375895b8ea38195d544d7bcec75a9bba04aaa07396a015cbde6881a95d",
      "hash": "5be2e8375895b8ea38195d544d7bcec75a9bba04aaa07396a015cbde6881a95d",
      "version": 1,
      "size": 135,
      "vsize": 135,
      "weight": 540,
      "locktime": 0,
      "vin": [
        {
          "coinbase": "04ffff001d02be00",
          "sequence": 4294967295
        }
      ],
      "vout": [
        {
          "value": 50.0,
          "n": 0,
          "scriptPubKey": {
            "asm": "041298bdc7f221f34a171f191ec5b3b86af4ec9fa7fdfd3366e26573d114e4fa50ec3b28adf033529b33e098366d3ece9043194524e3c2ad0511ea0cd051f61941 OP_CHECKSIG",
            "desc": "pk(041298bdc7f221f34a171f191ec5b3b86af4ec9fa7fdfd3366e26573d114e4fa50ec3b28adf033529b33e098366d3ece9043194524e3c2ad0511ea0cd051f61941)#jwgae9ly",
            "hex": "41041298bdc7f221f34a171f191ec5b3b86af4ec9fa7fdfd3366e26573d114e4fa50ec3b28adf033529b33e098366d3ece9043194524e3c2ad0511ea0cd051f61941ac",
            "type": "pubkey"
          }
        }
      ],
      "hex": "01000000010000000000000000000000000000000000000000000000000000000000000000ffffffff0804ffff001d02be00ffffffff0100f2052a010000004341041298bdc7f221f34a171f191ec5b3b86af4ec9fa7fdfd3366e26573d114e4fa50ec3b28adf033529b33e098366d3ece9043194524e3c2ad0511ea0cd051f61941ac00000000"
    }
  ]
}