{
  "hash": "00000000bb44fa127892a49a66ea94554a3866b26e88dcd973e866bd06095a24",
  "confirmations": 48760,
  "height": 4338,
  "version": 1,
  "versionHex": "00000001",
  "merkleroot": "4507c1a6354b97395560a6293bb4ae51d1f33a8d38a275e5992c4609a4752f2b",
  "time": 1234670528,
  "mediantime": 1234667444,
  "nonce": 5792833,
  "bits": "1d00ffff",
  "difficulty": 1,
  "chainwork": "000000000000000000000000000000000000000000000000000010f310f310f3",
  "nTx": 1,
  "previousblockhash": "00000000290fe3ac7299a13172bf7fe8260f01f1191e1a8fd004e6e05d6fbc9b",
  "nextblockhash": "000000008d44ebed58ca2e2400c84d758e7876f7064751aa09903455b8809422",
  "strippedsize": 216,
  "size": 216,
  "weight": 864,
  "tx": [
    {
      "txid": "4507c1a6354b97395560a6293bb4ae51d1f33a8d38a275e5992c4609a4752f2b",
      "hash": "4507c1a6354b97395560a6293bb4ae51d1f33a8d38a275e5992c4609a4752f2b",
      "version": 1,
      "size": 135,
      "vsize": 135,
      "weight": 540,
      "locktime": 0,
      "vin": [
        {
          "coinbase": "04ffff001d02b600",
          "sequence": 4294967295
        }
      ],
      "vout": [
        {
          "value": 50.0,
          "n": 0,
          "scriptPubKey": {
            "asm": "040f04b20073caae2bf7d14d0d3909c45f44fc0ccf978e7b760d259f4cb0db6fa5e8b5dd6f44c2dde92c15fd3d63c0287eeae0d4d214a1fd7e5f7c1c69c45f4dbb OP_CHECKSIG",
            "desc": "pk(040f04b20073caae2bf7d14d0d3909c45f44fc0ccf978e7b760d259f4cb0db6fa5e8b5dd6f44c2dde92c15fd3d63c0287eeae0d4d214a1fd7e5f7c1c69c45f4dbb)#fxjzck9r",
            "hex": "41040f04b20073caae2bf7d14d0d3909c45f44fc0ccf978e7b760d259f4cb0db6fa5e8b5dd6f44c2dde92c15fd3d63c0287eeae0d4d214a1fd7e5f7c1c69c45f4dbbac",
            "type": "pubkey"
          }
        }
      ],
      "hex": "01000000010000000000000000000000000000000000000000000000000000000000000000ffffffff0804ffff001d02b600ffffffff0100f2052a010000004341040f04b20073caae2bf7d14d0d3909c45f44fc0ccf978e7b760d259f4cb0db6fa5e8b5dd6f44c2dde92c15fd3d63c0287eeae0d4d214a1fd7e5f7c1c69c45f4dbbac00000000"
    }
  ]
}