{
  "hash": "00000000871ec3ebba39cc9e961d288c45838c9ab4f96f982c71d97a837e5071",
  "confirmations": 52396,
  "height": 702,
  "version": 1,
  "versionHex": "00000001",
  "merkleroot": "65b9a796af92c30f995011ff07cb8de737f1322e943bdce336a4e70317d5da19",
  "time": 1232110073,
  "mediantime": 1232107288,
  "nonce": 32255490,
  "bits": "1d00ffff",
  "difficulty": 1,
  "chainwork": "000000000000000000000000000000000000000000000000000002bf02bf02bf",
  "nTx": 1,
  "previousblockhash": "000000009185a6d894df317ab79ff4ea68bcd9b7bd972888de20a9e4ba9c06d5",
  "nextblockhash": "000000004b68c320b5596786d8aec8606695b9a7af378ce587854ac7b6dc4493",
  "strippedsize": 215,
  "size": 215,
  "weight": 860,
  "tx": [
    {
      "txid": "65b9a796af92c30f995011ff07cb8de737f1322e943bdce336a4e70317d5da19",
      "hash": "65b9a796af92c30f995011ff07cb8de737f1322e943bdce336a4e70317d5da19",
      "version": 1,
      "size": 134,
      "vsize": 134,
      "weight": 536,
      "locktime": 0,
      "vin": [
        {
          "coinbase": "04ffff001d011f",
          "sequence": 4294967295
        }
      ],
      "vout": [
        {
          "value": 50.0,
          "n": 0,
          "scriptPubKey": {
            "asm": "048c466fe3a036e384e9841b15b5fe4a7f3eb3055456f66bedc01a13cf49a94b1f273c56f5351988b939eaf1b9cb6919545b382b45097b25a8038579d46675a0e9 OP_CHECKSIG",
            "desc": "pk(048c466fe3a036e384e9841b15b5fe4a7f3eb3055456f66bedc01a13cf49a94b1f273c56f5351988b939eaf1b9cb6919545b382b45097b25a8038579d46675a0e9)#xmf7qrg2",
            "hex": "41048c466fe3a036e384e9841b15b5fe4a7f3eb3055456f66bedc01a13cf49a94b1f273c56f5351988b939eaf1b9cb6919545b382b45097b25a8038579d46675a0e9ac",
            "type": "pubkey"
          }
        }
      ],
      "hex": "01000000010000000000000000000000000000000000000000000000000000000000000000ffffffff0704ffff001d011fffffffff0100f2052a010000004341048c466fe3a036e384e9841b15b5fe4a7f3eb3055456f66bedc01a13cf49a94b1f273c56f5351988b939eaf1b9cb6919545b382b45097b25a8038579d46675a0e9ac00000000"
    }
  ]
}