{
  "hash": "00000000be6587bddd577a01e3f9da872a694c9fec10bb7a03dea69242e0cb0a",
  "confirmations": 43403,
  "height": 9695,
  "version": 1,
  "versionHex": "00000001",
  "merkleroot": "ad9e82b5e211f87da7108d5583c3c537261b831df4d018ef7361212016841180",
  "time": 1238773811,
  "mediantime": 1238770977,
  "nonce": 252333415,
  "bits": "1d00ffff",
  "difficulty": 1,
  "chainwork": "000000000000000000000000000000000000000000000000000025e025e025e0",
  "nTx": 1,
  "previousblockhash": "00000000266b7953f54a420faa1394c378a721ad11a825ac5aaa0c025006baed",
  "nextblockhash": "000000002315c8f1c413dbbe1ff7b8125885809255a42980e14307e7b625d327",
  "strippedsize": 216,
  "size": 216,
  "weight": 864,
  "tx": [
    {
      "txid": "ad9e82b5e211f87da7108d5583c3c537261b831df4d018ef7361212016841180",
      "hash": "ad9e82b5e211f87da7108d5583c3c537261b831df4d018ef7361212016841180",
      "version": 1,
      "size": 135,
      "vsize": 135,
      "weight": 540,
      "locktime": 0,
      "vin": [
        {
          "coinbase": "04ffff001d02b400",
          "sequence": 4294967295
        }
      ],
      "vout": [
        {
          "value": 50.0,
          "n": 0,
          "scriptPubKey": {
            "asm": "04038a94b6f115a82fbf5643c8660693d3d390aeab949e2c39fdf06015edea794113227b821537bc5305185ec653b878d9eae2cf2826d399733befd224e5c6f644 OP_CHECKSIG",
            "desc": "pk(04038a94b6f115a82fbf5643c8660693d3d390aeab949e2c39fdf06015edea794113227b821537bc5305185ec653b878d9eae2cf2826d399733befd224e5c6f644)#vtqfz8q8",
            "hex": "4104038a94b6f115a82fbf5643c8660693d3d390aeab949e2c39fdf06015edea794113227b821537bc5305185ec653b878d9eae2cf2826d399733befd224e5c6f644ac",
            "type": "pubkey"
          }
        }
      ],
      "hex": "01000000010000000000000000000000000000000000000000000000000000000000000000ffffffff0804ffff001d02b400ffffffff0100f2052a01000000434104038a94b6f115a82fbf5643c8660693d3d390aeab949e2c39fdf06015edea794113227b821537bc5305185ec653b878d9eae2cf2826d399733befd224e5c6f644ac00000000"
    }
  ]
}