{
  "hash": "0000000020e4376cc294263acf158802c26e5eae71ba2ea0e5a5e125a8fe6301",
  "confirmations": 49332,
  "height": 3766,
  "version": 1,
  "versionHex": "00000001",
  "merkleroot": "d7c2b63f410a5dcb7514970d06ad784992aed5ffe8191b2aa1e1f365c0c1c268",
  "time": 1234282813,
  "mediantime": 1234278873,
  "nonce": 237817851,
  "bits": "1d00ffff",
  "difficulty": 1,
  "chainwork": "00000000000000000000000000000000000000000000000000000eb70eb70eb7",
  "nTx": 1,
  "previousblockhash": "00000000d72c87c2e36a2a477747baeb2c851c270b802f7269a46d21087a833a",
  "nextblockhash": "00000000fbb4e4f58b06df63571a363f334661adbd26f9e2efbbbc96e79f2ab9",
  "strippedsize": 216,
  "size": 216,
  "weight": 864,
  "tx": [
    {
      "txid": "d7c2b63f410a5dcb7514970d06ad784992aed5ffe8191b2aa1e1f365c0c1c268",
      "hash": "d7c2b63f410a5dcb7514970d06ad784992aed5ffe8191b2aa1e1f365c0c1c268",
      "version": 1,
      "size": 135,
      "vsize": 135,
      "weight": 540,
      "locktime": 0,
      "vin": [
        {
          "coinbase": "04ffff001d024807",
          "sequence": 4294967295
        }
      ],
      "vout": [
        {
          "value": 50.0,
          "n": 0,
          "scriptPubKey": {
            "asm": "04ac6df1d75a5a4babc2d08792ef1fbb35d334fb7cd4800cf4e6d95d7a904099d7fae43ca87ff75945e1ab690c276e6e2c44ff3c5b9b4c367ffecd43d9fd240ca3 OP_CHECKSIG",
            "desc": "pk(04ac6df1d75a5a4babc2d08792ef1fbb35d334fb7cd4800cf4e6d95d7a904099d7fae43ca87ff75945e1ab690c276e6e2c44ff3c5b9b4c367ffecd43d9fd240ca3)#ex8lvuqa",
            "hex": "4104ac6df1d75a5a4babc2d08792ef1fbb35d334fb7cd4800cf4e6d95d7a904099d7fae43ca87ff75945e1ab690c276e6e2c44ff3c5b9b4c367ffecd43d9fd240ca3ac",
            "type": "pubkey"
          }
        }
      ],
      "hex": "01000000010000000000000000000000000000000000000000000000000000000000000000ffffffff0804ffff001d024807ffffffff0100f2052a01000000434104ac6df1d75a5a4babc2d08792ef1fbb35d334fb7cd4800cf4e6d95d7a904099d7fae43ca87ff75945e1ab690c276e6e2c44ff3c5b9b4c367ffecd43d9fd240ca3ac00000000"
    }
  ]
}