{
  "hash": "0000000057211ff1df8c40aa2d06511a4269b6ad2d435c253194548ae7167827",
  "confirmations": 48512,
  "height": 4586,
  "version": 1,
  "versionHex": "00000001",
  "merkleroot": "9f1d3e6ba479ef7cb49d1a66a711a4d7435d4a6b76d4766a4a377af632177cad",
  "time": 1234845832,
  "mediantime": 1234841941,
  "nonce": 212976407,
  "bits": "1d00ffff",
  "difficulty": 1,
  "chainwork": "000000000000000000000000000000000000000000000000000011eb11eb11eb",
  "nTx": 1,
  "previousblockhash": "000000006e74e8941f04a90638127208a729f3dcd77e1f0eb658df9998101b51",
  "nextblockhash": "00000000b087de26aec482f9bdf5910d81fda1ecd21946da96fec77078b690dc",
  "strippedsize": 216,
  "size": 216,
  "weight": 864,
  "tx": [
    {
      "txid": "9f1d3e6ba479ef7cb49d1a66a711a4d7435d4a6b76d4766a4a377af632177cad",
      "hash": "9f1d3e6ba479ef7cb49d1a66a711a4d7435d4a6b76d4766a4a377af632177cad",
      "version": 1,
      "size": 135,
      "vsize": 135,
      "weight": 540,
      "locktime": 0,
      "vin": [
        {
          "coinbase": "04ffff001d02bf00",
          "sequence": 4294967295
        }
      ],
      "vout": [
        {
          "value": 50.0,
          "n": 0,
          "scriptPubKey": {
            "asm": "04e589546c81cac59fc64807b7dbd699ed41a6a3fb69de7d1d9b562e279e27470062f3ebb0d841dbbefd4b99e970518d8ca6943a905382484e56f33e0ad2ab8b58 OP_CHECKSIG",
            "desc": "pk(04e589546c81cac59fc64807b7dbd699ed41a6a3fb69de7d1d9b562e279e27470062f3ebb0d841dbbefd4b99e970518d8ca6943a905382484e56f33e0ad2ab8b58)#2e4mdk4c",
            "hex": "4104e589546c81cac59fc64807b7dbd699ed41a6a3fb69de7d1d9b562e279e27470062f3ebb0d841dbbefd4b99e970518d8ca6943a905382484e56f33e0ad2ab8b58ac",
            "type": "pubkey"
          }
        }
      ],
      "hex": "01000000010000000000000000000000000000000000000000000000000000000000000000ffffffff0804ffff001d02bf00ffffffff0100f2052a01000000434104e589546c81cac59fc64807b7dbd699ed41a6a3fb69de7d1d9b562e279e27470062f3ebb0d841dbbefd4b99e970518d8ca6943a905382484e56f33e0ad2ab8b58ac00000000"
    }
  ]
}