{
  "hash": "000000009b8de49958011387b343860457061ec4175a07cd0c094216f3074ed6",
  "confirmations": 50979,
  "height": 2119,
  "version": 1,
  "versionHex": "00000001",
  "merkleroot": "647425ba999001ff810aee18b34f3c3302da17c24e5c8afb5e023df992c6698b",
  "time": 1233150956,
  "mediantime": 1233148853,
  "nonce": 146848310,
  "bits": "1d00ffff",
  "difficulty": 1,
  "chainwork": "0000000000000000000000000000000000000000000000000000084808480848",
  "nTx": 1,
  "previousblockhash": "000000008f42f665cab52fd5972974ab3c0d1b43b97ac20105295f0a224af886",
  "nextblockhash": "000000009a284bd92fd73540f30123be054f16438532e83b7a5c94ec048a7ab9",
  "strippedsize": 215,
  "size": 215,
  "weight": 860,
  "tx": [
    {
      "txid": "647425ba999001ff810aee18b34f3c3302da17c24e5c8afb5e023df992c6698b",
      "hash": "647425ba999001ff810aee18b34f3c3302da17c24e5c8afb5e023df992c6698b",
      "version": 1,
      "size": 134,
      "vsize": 134,
      "weight": 536,
      "locktime": 0,
      "vin": [
        {
          "coinbase": "04ffff001d010d",
          "sequence": 4294967295
        }
      ],
      "vout": [
        {
          "value": 50.0,
          "n": 0,
          "scriptPubKey": {
            "asm": "04503a36cc95261c55da4472046146479298dbeb89916e72bc70ea8ecb72966d083e06f06a678544e5f5c4a4c09459723df6fdefabf56bea78689bef74f6aa13c6 OP_CHECKSIG",
            "desc": "pk(04503a36cc95261c55da4472046146479298dbeb89916e72bc70ea8ecb72966d083e06f06a678544e5f5c4a4c09459723df6fdefabf56bea78689bef74f6aa13c6)#wxt7mtkr",
            "hex": "4104503a36cc95261c55da4472046146479298dbeb89916e72bc70ea8ecb72966d083e06f06a678544e5f5c4a4c09459723df6fdefabf56bea78689bef74f6aa13c6ac",
            "type": "pubkey"
          }
        }
      ],
      "hex": "01000000010000000000000000000000000000000000000000000000000000000000000000ffffffff0704ffff001d010dffffffff0100f2052a01000000434104503a36cc95261c55da4472046146479298dbeb89916e72bc70ea8ecb72966d083e06f06a678544e5f5c4a4c09459723df6fdefabf56bea78689bef74f6aa13c6ac00000000"
    }
  ]
}