{
  "hash": "00000000310584baf587dfd0c615c3301d8a065a81bb1097d14e65098a985760",
  "confirmations": 44440,
  "height": 8658,
  "version": 1,
  "versionHex": "00000001",
  "merkleroot": "1d1b18f0674fc02d9f6cc86884e2bfd17ac438ccddb6bcad3c2eca8031460da0",
  "time": 1237991226,
  "mediantime": 1237988293,
  "nonce": 88416054,
  "bits": "1d00ffff",
  "difficulty": 1,
  "chainwork": "000000000000000000000000000000000000000000000000000021d321d321d3",
  "nTx": 1,
  "previousblockhash": "00000000b3d0e74a3b0ae2884470820910ee4109601cdb372c80a635958ee883",
  "nextblockhash": "00000000f027fe41b775800b11935115fe4889a786e83c19654e459e6b8446d1",
  "strippedsize": 215,
  "size": 215,
  "weight": 860,
  "tx": [
    {
      "txid": "1d1b18f0674fc02d9f6cc86884e2bfd17ac438ccddb6bcad3c2eca8031460da0",
      "hash": "1d1b18f0674fc02d9f6cc86884e2bfd17ac438ccddb6bcad3c2eca8031460da0",
      "version": 1,
      "size": 134,
      "vsize": 134,
      "weight": 536,
      "locktime": 0,
      "vin": [
        {
          "coinbase": "04ffff001d0129",
          "sequence": 4294967295
        }
      ],
      "vout": [
        {
          "value": 50.0,
          "n": 0,
          "scriptPubKey": {
            "asm": "04f986fc97e026d9a4423342bb935dcbe05e8ceedacddc19c21771936e7e1f48bc1558e70976a8ab524f3bbb0cfca5f70e0dcd84cf8fcd4a4e482632340813ba7d OP_CHECKSIG",
            "desc": "pk(04f986fc97e026d9a4423342bb935dcbe05e8ceedacddc19c21771936e7e1f48bc1558e70976a8ab524f3bbb0cfca5f70e0dcd84cf8fcd4a4e482632340813ba7d)#s4jk5dnz",
            "hex": "4104f986fc97e026d9a4423342bb935dcbe05e8ceedacddc19c21771936e7e1f48bc1558e70976a8ab524f3bbb0cfca5f70e0dcd84cf8fcd4a4e482632340813ba7dac",
            "type": "pubkey"
          }
        }
      ],
      "hex": "01000000010000000000000000000000000000000000000000000000000000000000000000ffffffff0704ffff001d0129ffffffff0100f2052a01000000434104f986fc97e026d9a4423342bb935dcbe05e8ceedacddc19c21771936e7e1f48bc1558e70976a8ab524f3bbb0cfca5f70e0dcd84cf8fcd4a4e482632340813ba7dac00000000"
    }
  ]
}