{
  "hash": "00000000b03cda0b68d1da2dadf83e41ab3bd27c63dbc06d9f0fdb3636472f76",
  "confirmations": 52258,
  "height": 840,
  "version": 1,
  "versionHex": "00000001",
  "merkleroot": "d40fc3ca7e3a920ee9db61ab9ddcf00cc52e96a6e41065db2bd93f61ffa12a6a",
  "time": 1232222636,
  "mediantime": 1232218747,
  "nonce": 1779594277,
  "bits": "1d00ffff",
  "difficulty": 1,
  "chainwork": "0000000000000000000000000000000000000000000000000000034903490349",
  "nTx": 1,
  "previousblockhash": "00000000c01e9863cca2d4240bab413192cd5644036cfa613f0d9504d8c8de97",
  "nextblockhash": "00000000051d92a464c9ea82e450d8ca44a0d04065e2f66aab01aa227ecfb3a4",
  "strippedsize": 216,
  "size": 216,
  "weight": 864,
  "tx": [
    {
      "txid": "d40fc3ca7e3a920ee9db61ab9ddcf00cc52e96a6e41065db2bd93f61ffa12a6a",
      "hash": "d40fc3ca7e3a920ee9db61ab9ddcf00cc52e96a6e41065db2bd93f61ffa12a6a",
      "version": 1,
      "size": 135,
      "vsize": 135,
      "weight": 540,
      "locktime": 0,
      "vin": [
        {
          "coinbase": "04ffff001d023b02",
          "sequence": 4294967295
        }
      ],
      "vout": [
        {
          "value": 50.0,
          "n": 0,
          "scriptPubKey": {
            "asm": "048c3ca5f64494e93f9f9b84a7a2baf786cd047b4a7d2a61f23094b791bde206f8627aead54dce83951dae6616415fc3c8f63d8a95c7e4ac8e164e35e681eaea76 OP_CHECKSIG",
            "desc": "pk(048c3ca5f64494e93f9f9b84a7a2baf786cd047b4a7d2a61f23094b791bde206f8627aead54dce83951dae6616415fc3c8f63d8a95c7e4ac8e164e35e681eaea76)#ywz5mcx0",
            "hex": "41048c3ca5f64494e93f9f9b84a7a2baf786cd047b4a7d2a61f23094b791bde206f8627aead54dce83951dae6616415fc3c8f63d8a95c7e4ac8e164e35e681eaea76ac",
            "type": "pubkey"
          }
        }
      ],
      "hex": "01000000010000000000000000000000000000000000000000000000000000000000000000ffffffff0804ffff001d023b02ffffffff0100f2052a010000004341048c3ca5f64494e93f9f9b84a7a2baf786cd047b4a7d2a61f23094b791bde206f8627aead54dce83951dae6616415fc3c8f63d8a95c7e4ac8e164e35e681eaea76ac00000000"
    }
  ]
}