{
  "hash": "00000000d66d589aa63025b450d32cc7679e3969d62b240b348332acc16eb582",
  "confirmations": 49699,
  "height": 3399,
  "version": 1,
  "versionHex": "00000001",
  "merkleroot": "4ccca6a84e21f66d13c5fceb8f26ac991da7545469eba01d7e9604c71576577d",
  "time": 1234036786,
  "mediantime": 1234033726,
  "nonce": 11893498,
  "bits": "1d00ffff",
  "difficulty": 1,
  "chainwork": "00000000000000000000000000000000000000000000000000000d480d480d48",
  "nTx": 1,
  "previousblockhash": "00000000b7837cb6ac84b33fed0fd50b3b49a76baf3d80981960d8c4003bf19c",
  "nextblockhash": "00000000b6641cc18693437c5208bf362730c533fd3ea4cca364793603bba957",
  "strippedsize": 215,
  "size": 215,
  "weight": 860,
  "tx": [
    {
      "txid": "4ccca6a84e21f66d13c5fceb8f26ac991da7545469eba01d7e9604c71576577d",
      "hash": "4ccca6a84e21f66d13c5fceb8f26ac991da7545469eba01d7e9604c71576577d",
      "version": 1,
      "size": 134,
      "vsize": 134,
      "weight": 536,
      "locktime": 0,
      "vin": [
        {
          "coinbase": "04ffff001d015b",
          "sequence": 4294967295
        }
      ],
      "vout": [
        {
          "value": 50.0,
          "n": 0,
          "scriptPubKey": {
            "asm": "04b47de4ec88213a6222ed0d3be32f3df59323ab152414ad142ff0e39b29b2aff889fd2c2c3a54cb1df86cc1df63c9b3395f640f318ae9759274c77c73e9d6be12 OP_CHECKSIG",
            "desc": "pk(04b47de4ec88213a6222ed0d3be32f3df59323ab152414ad142ff0e39b29b2aff889fd2c2c3a54cb1df86cc1df63c9b3395f640f318ae9759274c77c73e9d6be12)#9vy9l78f",
            "hex": "4104b47de4ec88213a6222ed0d3be32f3df59323ab152414ad142ff0e39b29b2aff889fd2c2c3a54cb1df86cc1df63c9b3395f640f318ae9759274c77c73e9d6be12ac",
            "type": "pubkey"
          }
        }
      ],
      "hex": "01000000010000000000000000000000000000000000000000000000000000000000000000ffffffff0704ffff001d015bffffffff0100f2052a01000000434104b47de4ec88213a6222ed0d3be32f3df59323ab152414ad142ff0e39b29b2aff889fd2c2c3a54cb1df86cc1df63c9b3395f640f318ae9759274c77c73e9d6be12ac00000000"
    }
  ]
}