{
  "hash": "0000000094c61c16308c0e2c2e482835fd30c30a04ac2f833bc2b529ce6ee38c",
  "confirmations": 43883,
  "height": 9215,
  "version": 1,
  "versionHex": "00000001",
  "merkleroot": "7473dba6769b123db9c95e10492bbe11b421f7ff80d86af9d3bc56f4ce7a266e",
  "time": 1238412093,
  "mediantime": 1238409894,
  "nonce": 1210426664,
  "bits": "1d00ffff",
  "difficulty": 1,
  "chainwork": "0000000000000000000000000000000000000000000000000000240024002400",
  "nTx": 1,
  "previousblockhash": "000000002ce859c01fadb6cfdc296ba3aa15dad5b86f1f0693c50b89decc92e1",
  "nextblockhash": "000000006e6f24c028e57ed885e5925993a21e8521fda852c8e8941298e517dd",
  "strippedsize": 215,
  "size": 215,
  "weight": 860,
  "tx": [
    {
      "txid": "7473dba6769b123db9c95e10492bbe11b421f7ff80d86af9d3bc56f4ce7a266e",
      "hash": "7473dba6769b123db9c95e10492bbe11b421f7ff80d86af9d3bc56f4ce7a266e",
      "version": 1,
      "size": 134,
      "vsize": 134,
      "weight": 536,
      "locktime": 0,
      "vin": [
        {
          "coinbase": "04ffff001d012a",
          "sequence": 4294967295
        }
      ],
      "vout": [
        {
          "value": 50.0,
          "n": 0,
          "scriptPubKey": {
            "asm": "04d8e013b1ecc440d59e09aea92af28e4543139dc7864a93f1b02b8848b55fdd80163c12cfcac6fecdc7f7b51eb4bec2e02af925dacc3753653708581b184b1509 OP_CHECKSIG",
            "desc": "pk(04d8e013b1ecc440d59e09aea92af28e4543139dc7864a93f1b02b8848b55fdd80163c12cfcac6fecdc7f7b51eb4bec2e02af925dacc3753653708581b184b1509)#jzxsr28f",
            "hex": "4104d8e013b1ecc440d59e09aea92af28e4543139dc7864a93f1b02b8848b55fdd80163c12cfcac6fecdc7f7b51eb4bec2e02af925dacc3753653708581b184b1509ac",
            "type": "pubkey"
          }
        }
      ],
      "hex": "01000000010000000000000000000000000000000000000000000000000000000000000000ffffffff0704ffff001d012affffffff0100f2052a01000000434104d8e013b1ecc440d59e09aea92af28e4543139dc7864a93f1b02b8848b55fdd80163c12cfcac6fecdc7f7b51eb4bec2e02af925dacc3753653708581b184b1509ac00000000"
    }
  ]
}