{
  "hash": "0000000063ab29ae280403e55e2212679209d8167d8e698ace56c775ca97a5e8",
  "confirmations": 43249,
  "height": 9849,
  "version": 1,
  "versionHex": "00000001",
  "merkleroot": "f120e9610654040bbdeb2d005258379724926b456763dfc65cf5367d1f2f7434",
  "time": 1238891127,
  "mediantime": 1238887456,
  "nonce": 581860399,
  "bits": "1d00ffff",
  "difficulty": 1,
  "chainwork": "0000000000000000000000000000000000000000000000000000267a267a267a",
  "nTx": 1,
  "previousblockhash": "0000000049e4e63584aaa79329d2c5dced7f0fa952a324a9af99e66841f9a10f",
  "nextblockhash": "00000000529faae2ff8a381b4818d213e2a44385e665a2d31215a5afba777e30",
  "strippedsize": 216,
  "size": 216,
  "weight": 864,
  "tx": [
    {
      "txid": "f120e9610654040bbdeb2d005258379724926b456763dfc65cf5367d1f2f7434",
      "hash": "f120e9610654040bbdeb2d005258379724926b456763dfc65cf5367d1f2f7434",
      "version": 1,
      "size": 135,
      "vsize": 135,
      "weight": 540,
      "locktime": 0,
      "vin": [
        {
          "coinbase": "04ffff001d023b01",
          "sequence": 4294967295
        }
      ],
      "vout": [
        {
          "value": 50.0,
          "n": 0,
          "scriptPubKey": {
            "asm": "04751c6f77c60ea7d4fbafb3ff585932c02f68a2cf888c96f95be38c3624ca000d643dff6d1a850a4bd6d89a3d238c5a468e40c651c583a1744cbaf10999549d10 OP_CHECKSIG",
            "desc": "pk(04751c6f77c60ea7d4fbafb3ff585932c02f68a2cf888c96f95be38c3624ca000d643dff6d1a850a4bd6d89a3d238c5a468e40c651c583a1744cbaf10999549d10)#z5hx3cx6",
            "hex": "4104751c6f77c60ea7d4fbafb3ff585932c02f68a2cf888c96f95be38c3624ca000d643dff6d1a850a4bd6d89a3d238c5a468e40c651c583a1744cbaf10999549d10ac",
            "type": "pubkey"
          }
        }
      ],
      "hex": "01000000010000000000000000000000000000000000000000000000000000000000000000ffffffff0804ffff001d023b01ffffffff0100f2052a01000000434104751c6f77c60ea7d4fbafb3ff585932c02f68a2cf888c96f95be38c3624ca000d643dff6d1a850a4bd6d89a3d238c5a468e40c651c583a1744cbaf10999549d10ac00000000"
    }
  ]
}