{
  "hash": "0000000023e8ab4c828f2d50fa18ab8e859bbd701a98ce4707f0de56a51ffc7d",
  "confirmations": 48054,
  "height": 5044,
  "version": 1,
  "versionHex": "00000001",
  "merkleroot": "5e6f3f067cabbbbd9efdd99213ad6f1ec1b9985f014722cd2f0a09b385a8a081",
  "time": 1235170733,
  "mediantime": 1235166744,
  "nonce": 984372255,
  "bits": "1d00ffff",
  "difficulty": 1,
  "chainwork": "000000000000000000000000000000000000000000000000000013b513b513b5",
  "nTx": 1,
  "previousblockhash": "00000000a7083ac59b43735681230174ba46d90500a87687ca4b06c323118dd8",
  "nextblockhash": "0000000052005eff5d4cd698f9f898ad1908395bbb9221f053ea24a4431eb284",
  "strippedsize": 216,
  "size": 216,
  "weight": 864,
  "tx": [
    {
      "txid": "5e6f3f067cabbbbd9efdd99213ad6f1ec1b9985f014722cd2f0a09b385a8a081",
      "hash": "5e6f3f067cabbbbd9efdd99213ad6f1ec1b9985f014722cd2f0a09b385a8a081",
      "version": 1,
      "size": 135,
      "vsize": 135,
      "weight": 540,
      "locktime": 0,
      "vin": [
        {
          "coinbase": "04ffff001d02be07",
          "sequence": 4294967295
        }
      ],
      "vout": [
        {
          "value": 50.0,
          "n": 0,
          "scriptPubKey": {
            "asm": "045802f0b297723f5dbae48c9338de825ea9b865821f394ea21867443a284381f051a74af24936a9face253e39d6bb81cb7f64937c6d07e57598a555b18055fcb1 OP_CHECKSIG",
            "desc": "pk(045802f0b297723f5dbae48c9338de825ea9b865821f394ea21867443a284381f051a74af24936a9face253e39d6bb81cb7f64937c6d07e57598a555b18055fcb1)#hh7hg8x8",
            "hex": "41045802f0b297723f5dbae48c9338de825ea9b865821f394ea21867443a284381f051a74af24936a9face253e39d6bb81cb7f64937c6d07e57598a555b18055fcb1ac",
            "type": "pubkey"
          }
        }
      ],
      "hex": "01000000010000000000000000000000000000000000000000000000000000000000000000ffffffff0804ffff001d02be07ffffffff0100f2052a010000004341045802f0b297723f5dbae48c9338de825ea9b865821f394ea21867443a284381f051a74af24936a9face253e39d6bb81cb7f64937c6d07e57598a555b18055fcb1ac00000000"
    }
  ]
}