{
  "hash": "00000000fa04ef686ff46ea3a1f2b76687539395fb9ca7ce2dd013e9193aa4b4",
  "confirmations": 52249,
  "height": 849,
  "version": 1,
  "versionHex": "00000001",
  "merkleroot": "ad4e97a2eec8596d1a14ca2ff6b8c7ebba2fc60705601671cc65f30d390f26ee",
  "time": 1232228695,
  "mediantime": 1232224537,
  "nonce": 131354140,
  "bits": "1d00ffff",
  "difficulty": 1,
  "chainwork": "0000000000000000000000000000000000000000000000000000035203520352",
  "nTx": 1,
  "previousblockhash": "00000000249882bd5f1b31768397d8da9be83b1f6d85433adaa3f7dba16df466",
  "nextblockhash": "00000000923a992877f070d2c8fa5ae67e66f6edcd828b321caa75885136386b",
  "strippedsize": 216,
  "size": 216,
  "weight": 864,
  "tx": [
    {
      "txid": "ad4e97a2eec8596d1a14ca2ff6b8c7ebba2fc60705601671cc65f30d390f26ee",
      "hash": "ad4e97a2eec8596d1a14ca2ff6b8c7ebba2fc60705601671cc65f30d390f26ee",
      "version": 1,
      "size": 135,
      "vsize": 135,
      "weight": 540,
      "locktime": 0,
      "vin": [
        {
          "coinbase": "04ffff001d027102",
          "sequence": 4294967295
        }
      ],
      "vout": [
        {
          "value": 50.0,
          "n": 0,
          "scriptPubKey": {
            "asm": "040cd3f2d90db53dcb3e1687c585aec3754a87cf6f7fa1ba40398e99372c190cfcaa3ed36e6a6fec493a770260b071f0a9ea9dccdf680c3bffa27167c6122e9253 OP_CHECKSIG",
            "desc": "pk(040cd3f2d90db53dcb3e1687c585aec3754a87cf6f7fa1ba40398e99372c190cfcaa3ed36e6a6fec493a770260b071f0a9ea9dccdf680c3bffa27167c6122e9253)#4csdfppx",
            "hex": "41040cd3f2d90db53dcb3e1687c585aec3754a87cf6f7fa1ba40398e99372c190cfcaa3ed36e6a6fec493a770260b071f0a9ea9dccdf680c3bffa27167c6122e9253ac",
            "type": "pubkey"
          }
        }
      ],
      "hex": "01000000010000000000000000000000000000000000000000000000000000000000000000ffffffff0804ffff001d027102ffffffff0100f2052a010000004341040cd3f2d90db53dcb3e1687c585aec3754a87cf6f7fa1ba40398e99372c190cfcaa3ed36e6a6fec493a770260b071f0a9ea9dccdf680c3bffa27167c6122e9253ac00000000"
    }
  ]
}