{
  "hash": "000000005d8c1f827319a4dc019cc2474346e90ef6335f17e99c0ef9b50f3572",
  "confirmations": 51908,
  "height": 1190,
  "version": 1,
  "versionHex": "00000001",
  "merkleroot": "078d64a60e25e69be88b016a7594a0e36a25ad0e8ab5d0e8d86a6aa0fa9c9a7d",
  "time": 1232493570,
  "mediantime": 1232489051,
  "nonce": 3658802693,
  "bits": "1d00ffff",
  "difficulty": 1,
  "chainwork": "000000000000000000000000000000000000000000000000000004a704a704a7",
  "nTx": 1,
  "previousblockhash": "00000000d094ac53d917dc62f798c7569485ed6f5be43cab46d3b953143303de",
  "nextblockhash": "00000000ddc3e3ea9e3a0274eb985a05dc5551a80d322713533ae6b692d642fe",
  "strippedsize": 216,
  "size": 216,
  "weight": 864,
  "tx": [
    {
      "txid": "078d64a60e25e69be88b016a7594a0e36a25ad0e8ab5d0e8d86a6aa0fa9c9a7d",
      "hash": "078d64a60e25e69be88b016a7594a0e36a25ad0e8ab5d0e8d86a6aa0fa9c9a7d",
      "version": 1,
      "size": 135,
      "vsize": 135,
      "weight": 540,
      "locktime": 0,
      "vin": [
        {
          "coinbase": "04ffff001d028c08",
          "sequence": 4294967295
        }
      ],
      "vout": [
        {
          "value": 50.0,
          "n": 0,
          "scriptPubKey": {
            "asm": "041fe30e2536154809fdbd6f371fcca2c6f5a234c496aa38d10a0ed5f8d8fc6d405e5b65f9f664bc05a801fbc80f8917133065da047b67c2d04cb83d70d6f414af OP_CHECKSIG",
            "desc": "pk(041fe30e2536154809fdbd6f371fcca2c6f5a234c496aa38d10a0ed5f8d8fc6d405e5b65f9f664bc05a801fbc80f8917133065da047b67c2d04cb83d70d6f414af)#rru5h5ef",
            "hex": "41041fe30e2536154809fdbd6f371fcca2c6f5a234c496aa38d10a0ed5f8d8fc6d405e5b65f9f664bc05a801fbc80f8917133065da047b67c2d04cb83d70d6f414afac",
            "type": "pubkey"
          }
        }
      ],
      "hex": "01000000010000000000000000000000000000000000000000000000000000000000000000ffffffff0804ffff001d028c08ffffffff0100f2052a010000004341041fe30e2536154809fdbd6f371fcca2c6f5a234c496aa38d10a0ed5f8d8fc6d405e5b65f9f664bc05a801fbc80f8917133065da047b67c2d04cb83d70d6f414afac00000000"
    }
  ]
}