{
  "hash": "000000008a953cf3f66ff03264ffeaf748ded859fbea8ffe3892e8195c5b53cc",
  "confirmations": 46272,
  "height": 6826,
  "version": 1,
  "versionHex": "00000001",
  "merkleroot": "f5aeeb5255e88d9f6a98c80567c1727c024272e732caf63108805f91d997f4eb",
  "time": 1236577521,
  "mediantime": 1236572155,
  "nonce": 2613046530,
  "bits": "1d00ffff",
  "difficulty": 1,
  "chainwork": "00000000000000000000000000000000000000000000000000001aab1aab1aab",
  "nTx": 1,
  "previousblockhash": "000000004298278bd4280f82e6118fa21d419c00de75578973f85a18ca0abbb7",
  "nextblockhash": "0000000069dec34efdc135dcc1f9423f988cc98274fe5be00bae76e2443d5337",
  "strippedsize": 216,
  "size": 216,
  "weight": 864,
  "tx": [
    {
      "txid": "f5aeeb5255e88d9f6a98c80567c1727c024272e732caf63108805f91d997f4eb",
      "hash": "f5aeeb5255e88d9f6a98c80567c1727c024272e732caf63108805f91d997f4eb",
      "version": 1,
      "size": 135,
      "vsize": 135,
      "weight": 540,
      "locktime": 0,
      "vin": [
        {
          "coinbase": "04ffff001d026009",
          "sequence": 4294967295
        }
      ],
      "vout": [
        {
          "value": 50.0,
          "n": 0,
          "scriptPubKey": {
            "asm": "04beaf968015072140fdc5bf2e7806990a7f4a4ec9ee63055fed64c1a3c55b8180073549b81b7963e82c516088f65faaa65ab16d52b20bee0952a79fdc6b119325 OP_CHECKSIG",
            "desc": "pk(04beaf968015072140fdc5bf2e7806990a7f4a4ec9ee63055fed64c1a3c55b8180073549b81b7963e82c516088f65faaa65ab16d52b20bee0952a79fdc6b119325)#4n79fvdj",
            "hex": "4104beaf968015072140fdc5bf2e7806990a7f4a4ec9ee63055fed64c1a3c55b8180073549b81b7963e82c516088f65faaa65ab16d52b20bee0952a79fdc6b119325ac",
            "type": "pubkey"
          }
        }
      ],
      "hex": "01000000010000000000000000000000000000000000000000000000000000000000000000ffffffff0804ffff001d026009ffffffff0100f2052a01000000434104beaf968015072140fdc5bf2e7806990a7f4a4ec9ee63055fed64c1a3c55b8180073549b81b7963e82c516088f65faaa65ab16d52b20bee0952a79fdc6b119325ac00000000"
    }
  ]
}