{
  "hash": "0000000004e54c1587b553953ca4bba61a9ba2847a330579c550a87d76e5b1bf",
  "confirmations": 43142,
  "height": 9956,
  "version": 1,
  "versionHex": "00000001",
  "merkleroot": "8d36c49bd0f8bcbd037c960b32463f1fe25a68b331c912b2cc727175ff5e235f",
  "time": 1238960196,
  "mediantime": 1238956706,
  "nonce": 1965214984,
  "bits": "1d00ffff",
  "difficulty": 1,
  "chainwork": "000000000000000000000000000000000000000000000000000026e526e526e5",
  "nTx": 1,
  "previousblockhash": "0000000037b21af94934e3eb53ab6c47baecfc384ffc478e277d624cc5381b8e",
  "nextblockhash": "000000005ad11062a2000363a8ee3dd3b4068262f8db9175d710f4f52e4366da",
  "strippedsize": 216,
  "size": 216,
  "weight": 864,
  "tx": [
    {
      "txid": "8d36c49bd0f8bcbd037c960b32463f1fe25a68b331c912b2cc727175ff5e235f",
      "hash": "8d36c49bd0f8bcbd037c960b32463f1fe25a68b331c912b2cc727175ff5e235f",
      "version": 1,
      "size": 135,
      "vsize": 135,
      "weight": 540,
      "locktime": 0,
      "vin": [
        {
          "coinbase": "04ffff001d02c002",
          "sequence": 4294967295
        }
      ],
      "vout": [
        {
          "value": 50.0,
          "n": 0,
          "scriptPubKey": {
            "asm": "04aec52935040776593264a0c2c7ef5ebdc565e48d6156e25580463705178ed464274fc18d43c5d3b7a449bb51b831ba28904d845ab18d4e872a9199b3865e8452 OP_CHECKSIG",
            "desc": "pk(04aec52935040776593264a0c2c7ef5ebdc565e48d6156e25580463705178ed464274fc18d43c5d3b7a449bb51b831ba28904d845ab18d4e872a9199b3865e8452)#h5lngz9t",
            "hex": "4104aec52935040776593264a0c2c7ef5ebdc565e48d6156e25580463705178ed464274fc18d43c5d3b7a449bb51b831ba28904d845ab18d4e872a9199b3865e8452ac",
            "type": "pubkey"
          }
        }
      ],
      "hex": "01000000010000000000000000000000000000000000000000000000000000000000000000ffffffff0804ffff001d02c002ffffffff0100f2052a01000000434104aec52935040776593264a0c2c7ef5ebdc565e48d6156e25580463705178ed464274fc18d43c5d3b7a449bb51b831ba28904d845ab18d4e872a9199b3865e8452ac00000000"
    }
  ]
}