{
  "hash": "000000000069d1e345d08377d2b7ac27b9cfb87176e5ba2f106bec1c38474e1b",
  "confirmations": 43433,
  "height": 9665,
  "version": 1,
  "versionHex": "00000001",
  "merkleroot": "91f590692de1216a8df272f4261329585a005fc3cb78b16dee187ad1b8acfaf1",
  "time": 1238751058,
  "mediantime": 1238746376,
  "nonce": 1963371812,
  "bits": "1d00ffff",
  "difficulty": 1,
  "chainwork": "000000000000000000000000000000000000000000000000000025c225c225c2",
  "nTx": 1,
  "previousblockhash": "000000004ba52092e9b6386979dee087cdb8101d3e63878f2f79b399c616812a",
  "nextblockhash": "000000006e895e5f34b824521e4f712f3f3b5a035ea7c6467f110d427ca3e957",
  "strippedsize": 216,
  "size": 216,
  "weight": 864,
  "tx": [
    {
      "txid": "91f590692de1216a8df272f4261329585a005fc3cb78b16dee187ad1b8acfaf1",
      "hash": "91f590692de1216a8df272f4261329585a005fc3cb78b16dee187ad1b8acfaf1",
      "version": 1,
      "size": 135,
      "vsize": 135,
      "weight": 540,
      "locktime": 0,
      "vin": [
        {
          "coinbase": "04ffff001d02db07",
          "sequence": 4294967295
        }
      ],
      "vout": [
        {
          "value": 50.0,
          "n": 0,
          "scriptPubKey": {
            "asm": "0473a362f4dd1f1d2ff1e91bdbe785201ea2e96ba422b9a41b695cb1d9fa82056a02a69a3609bb68a84dbf009de72632858e3324e0d8f9e426292af7403a8a20dc OP_CHECKSIG",
            "desc": "pk(0473a362f4dd1f1d2ff1e91bdbe785201ea2e96ba422b9a41b695cb1d9fa82056a02a69a3609bb68a84dbf009de72632858e3324e0d8f9e426292af7403a8a20dc)#zvtszuew",
            "hex": "410473a362f4dd1f1d2ff1e91bdbe785201ea2e96ba422b9a41b695cb1d9fa82056a02a69a3609bb68a84dbf009de72632858e3324e0d8f9e426292af7403a8a20dcac",
            "type": "pubkey"
          }
        }
      ],
      "hex": "01000000010000000000000000000000000000000000000000000000000000000000000000ffffffff0804ffff001d02db07ffffffff0100f2052a0100000043410473a362f4dd1f1d2ff1e91bdbe785201ea2e96ba422b9a41b695cb1d9fa82056a02a69a3609bb68a84dbf009de72632858e3324e0d8f9e426292af7403a8a20dcac00000000"
    }
  ]
}