{
  "hash": "00000000fd84431032ea2cd8f68c16103a881eb8e31d51fab2652b07008b49b6",
  "confirmations": 49616,
  "height": 3482,
  "version": 1,
  "versionHex": "00000001",
  "merkleroot": "b1a98668a6dcd2239fe873390d248d4311ee46f49efb6f54f0197edd2f6d1eb2",
  "time": 1234089591,
  "mediantime": 1234087395,
  "nonce": 820526601,
  "bits": "1d00ffff",
  "difficulty": 1,
  "chainwork": "00000000000000000000000000000000000000000000000000000d9b0d9b0d9b",
  "nTx": 1,
  "previousblockhash": "0000000078f33ce8fe84be281a618b43e3cd97c2481f313f21d8bb772fb9f427",
  "nextblockhash": "00000000d870b190d2aefe3f246e42c4708ebfba91e4303c7b6b7f5d85651072",
  "strippedsize": 216,
  "size": 216,
  "weight": 864,
  "tx": [
    {
      "txid": "b1a98668a6dcd2239fe873390d248d4311ee46f49efb6f54f0197edd2f6d1eb2",
      "hash": "b1a98668a6dcd2239fe873390d248d4311ee46f49efb6f54f0197edd2f6d1eb2",
      "version": 1,
      "size": 135,
      "vsize": 135,
      "weight": 540,
      "locktime": 0,
      "vin": [
        {
          "coinbase": "04ffff001d02bc06",
          "sequence": 4294967295
        }
      ],
      "vout": [
        {
          "value": 50.0,
          "n": 0,
          "scriptPubKey": {
            "asm": "044d5eac77613cd37e0e28723cf6ea286680bd6280e26bb4c08dbd1cdf7089d210f7c5eca85db021ffa2efd17db6178d94006cf52b4682e12618736b42d0f33715 OP_CHECKSIG",
            "desc": "pk(044d5eac77613cd37e0e28723cf6ea286680bd6280e26bb4c08dbd1cdf7089d210f7c5eca85db021ffa2efd17db6178d94006cf52b4682e12618736b42d0f33715)#y9l56t6l",
            "hex": "41044d5eac77613cd37e0e28723cf6ea286680bd6280e26bb4c08dbd1cdf7089d210f7c5eca85db021ffa2efd17db6178d94006cf52b4682e12618736b42d0f33715ac",
            "type": "pubkey"
          }
        }
      ],
      "hex": "01000000010000000000000000000000000000000000000000000000000000000000000000ffffffff0804ffff001d02bc06ffffffff0100f2052a010000004341044d5eac77613cd37e0e28723cf6ea286680bd6280e26bb4c08dbd1cdf7089d210f7c5eca85db021ffa2efd17db6178d94006cf52b4682e12618736b42d0f33715ac00000000"
    }
  ]
}