{
  "hash": "0000000011109693f5d0bf6869c42df4efd15c9fb52530018236628b88d3d24d",
  "confirmations": 49711,
  "height": 3387,
  "version": 1,
  "versionHex": "00000001",
  "merkleroot": "0c6f29aaa69006b83e41bbc6f0de77df6a210c1536fa0ccb3f0e7741178a3785",
  "time": 1234028771,
  "mediantime": 1234025243,
  "nonce": 27498382,
  "bits": "1d00ffff",
  "difficulty": 1,
  "chainwork": "00000000000000000000000000000000000000000000000000000d3c0d3c0d3c",
  "nTx": 1,
  "previousblockhash": "0000000045cadc125b19fe38a76994fa407281949a4a88b4745de306e92dee4f",
  "nextblockhash": "000000003280d3f41bd2075838bc67a90e019e9a8d060e09f7d413d6c9639147",
  "strippedsize": 216,
  "size": 216,
  "weight": 864,
  "tx": [
    {
      "txid": "0c6f29aaa69006b83e41bbc6f0de77df6a210c1536fa0ccb3f0e7741178a3785",
      "hash": "0c6f29aaa69006b83e41bbc6f0de77df6a210c1536fa0ccb3f0e7741178a3785",
      "version": 1,
      "size": 135,
      "vsize": 135,
      "weight": 540,
      "locktime": 0,
      "vin": [
        {
          "coinbase": "04ffff001d02b208",
          "sequence": 4294967295
        }
      ],
      "vout": [
        {
          "value": 50.0,
          "n": 0,
          "scriptPubKey": {
            "asm": "04ac84b31291db02b29af0932b9cd8a2fc7db8e5cd9c1ba41fb549501709830138f0c6579292973ff61450dc0e5a44b911970fa13d4c4fce47135bdb2f8a5ff911 OP_CHECKSIG",
            "desc": "pk(04ac84b31291db02b29af0932b9cd8a2fc7db8e5cd9c1ba41fb549501709830138f0c6579292973ff61450dc0e5a44b911970fa13d4c4fce47135bdb2f8a5ff911)#pacek267",
            "hex": "4104ac84b31291db02b29af0932b9cd8a2fc7db8e5cd9c1ba41fb549501709830138f0c6579292973ff61450dc0e5a44b911970fa13d4c4fce47135bdb2f8a5ff911ac",
            "type": "pubkey"
          }
        }
      ],
      "hex": "01000000010000000000000000000000000000000000000000000000000000000000000000ffffffff0804ffff001d02b208ffffffff0100f2052a01000000434104ac84b31291db02b29af0932b9cd8a2fc7db8e5cd9c1ba41fb549501709830138f0c6579292973ff61450dc0e5a44b911970fa13d4c4fce47135bdb2f8a5ff911ac00000000"
    }
  ]
}