{
  "hash": "0000000086c0fc142e9b6714c7db710b24ecf8055704e9adc2624c5cc2f9e4c6",
  "confirmations": 49588,
  "height": 3510,
  "version": 1,
  "versionHex": "00000001",
  "merkleroot": "e08f2c9b1eff6bdd0f2f71e3782b898913be7c6537bc51dd6cce9d4cdf5b8e60",
  "time": 1234108300,
  "mediantime": 1234105211,
  "nonce": 1475395609,
  "bits": "1d00ffff",
  "difficulty": 1,
  "chainwork": "00000000000000000000000000000000000000000000000000000db70db70db7",
  "nTx": 2,
  "previousblockhash": "00000000fbb7174cd1ee4bf683cb581ec582fabd233cac0447a807cacdca0796",
  "nextblockhash": "00000000731c945178ae9f7fc84908c9d3d9256b7f44b15aa5ea21e3605c8559",
  "strippedsize": 440,
  "size": 440,
  "weight": 1760,
  "tx": [
    {
      "txid": "73d37b2c3ad499980602624ef7dbb50c586153fca9651697644fd7ed7bc44bd8",
      "hash": "73d37b2c3ad499980602624ef7dbb50c586153fca9651697644fd7ed7bc44bd8",
      "version": 1,
      "size": 135,
      "vsize": 135,
      "weight": 540,
      "locktime": 0,
      "vin": [
        {
          "coinbase": "04ffff001d023f07",
          "sequence": 4294967295
        }
      ],
      "vout": [
        {
          "value": 50.0,
          "n": 0,
          "scriptPubKey": {
            "asm": "0422348b67c1ac0ce471be241bdb684b9348111b6ff77dc7ebcf7b74f3c174c40b32bea282b560e6de87281d9398de161991b3ea956dfa63268834f366fcc7782e OP_CHECKSIG",
            "desc": "pk(0422348b67c1ac0ce471be241bdb684b9348111b6ff77dc7ebcf7b74f3c174c40b32bea282b560e6de87281d9398de161991b3ea956dfa63268834f366fcc7782e)#esv4p5g9",
            "hex": "410422348b67c1ac0ce471be241bdb684b9348111b6ff77dc7ebcf7b74f3c174c40b32bea282b560e6de87281d9398de161991b3ea956dfa63268834f366fcc7782eac",
            "type": "pubkey"
          }
        }
      ],
      "hex": "01000000010000000000000000000000000000000000000000000000000000000000000000ffffffff0804ffff001d023f07ffffffff0100f2052a0100000043410422348b67c1ac0ce471be241bdb684b9348111b6ff77dc7ebcf7b74f3c174c40b32bea282b560e6de87281d9398de161991b3ea956dfa63268834f366fcc7782eac00000000"
    },
    {
      "txid": "92f55c2c0b8317eafad83c73487fbeceb8279d0eb57e398763298e6cc983b356",
      "hash": "92f55c2c0b8317eafad83c73487fbeceb8279d0eb57e398763298e6cc983b356",
      "version": 1,
      "size": 224,
      "vsize": 224,
      "weight": 896,
      "locktime": 0,
      "vin": [
        {
          "txid": "2ccc3f59d28c709770a8bc478b112e10feda4bf55197c2e48deaa0eb6bca0311",
          "vout": 0,
          "scriptSig": {
            "asm": "3045022100cb4e7d11343b0aa97f20422fa6a88ba29151ba135d01931aff8db749cdbbee3102200f39c9f0076507c6939d1b79ce0909ec41629b3a447261f1473115d24d8aac1a[ALL] 0428ae82b094ace0e2753b55ade744f65580effe4be3940601cd5a6c51d5af7c5a3747741abcfebf48085010fc7983107da4fbc3dff8b72401779fcfbaa05bd5d3",
            "hex": "483045022100cb4e7d11343b0aa97f20422fa6a88ba29151ba135d01931aff8db749cdbbee3102200f39c9f0076507c6939d1b79ce0909ec41629b3a447261f1473115d24d8aac1a01410428ae82b094ace0e2753b55ade744f65580effe4be3940601cd5a6c51d5af7c5a3747741abcfebf48085010fc7983107da4fbc3dff8b72401779fcfbaa05bd5d3"
          },
          "sequence": 4294967295
        }
      ],
      "vout": [
        {
          "value": 1000.0,
          "n": 0,
          "scriptPubKey": {
            "asm": "OP_DUP OP_HASH160 f78d935c8772c9fc927b65d0df794260bfb3b0bb OP_EQUALVERIFY OP_CHECKSIG",
            "desc": "addr(1PZwWEJe5YGx9bzJbEpgXiWLuWnyD2rjLA)#92ky6h0e",
            "hex": "76a914f78d935c8772c9fc927b65d0df794260bfb3b0bb88ac",
            "address": "1PZwWEJe5YGx9bzJbEpgXiWLuWnyD2rjLA",
            "type": "pubkeyhash"
          }
        }
      ],
      "fee": 0.0,
      "hex": "01000000011103ca6beba0ea8de4c29751f54bdafe102e118b47bca87097708cd2593fcc2c000000008b483045022100cb4e7d11343b0aa97f20422fa6a88ba29151ba135d01931aff8db749cdbbee3102200f39c9f0076507c6939d1b79ce0909ec41629b3a447261f1473115d24d8aac1a01410428ae82b094ace0e2753b55ade744f65580effe4be3940601cd5a6c51d5af7c5a3747741abcfebf48085010fc7983107da4fbc3dff8b72401779fcfbaa05bd5d3ffffffff0100e87648170000001976a914f78d935c8772c9fc927b65d0df794260bfb3b0bb88ac00000000"
    }
  ]
}