{
  "hash": "0000000012c0d2d7bdb9f16c2fef39bec4b7fc84e117e21d7a8aed23e444fc9e",
  "confirmations": 49764,
  "height": 3334,
  "version": 1,
  "versionHex": "00000001",
  "merkleroot": "571791c9f5bf0b9a70d5a08b72568108e1b5ba17d4486dd1b2bca79b2b21cfe8",
  "time": 1233988858,
  "mediantime": 1233986407,
  "nonce": 3097597,
  "bits": "1d00ffff",
  "difficulty": 1,
  "chainwork": "00000000000000000000000000000000000000000000000000000d070d070d07",
  "nTx": 1,
  "previousblockhash": "00000000c792e56146dbddad10fd6291486bd905b14992e54319f08196d88da3",
  "nextblockhash": "000000003cc13c075db46335d860d9e7eb559157d0a7696675799979363c7c39",
  "strippedsize": 216,
  "size": 216,
  "weight": 864,
  "tx": [
    {
      "txid": "571791c9f5bf0b9a70d5a08b72568108e1b5ba17d4486dd1b2bca79b2b21cfe8",
      "hash": "571791c9f5bf0b9a70d5a08b72568108e1b5ba17d4486dd1b2bca79b2b21cfe8",
      "version": 1,
      "size": 135,
      "vsize": 135,
      "weight": 540,
      "locktime": 0,
      "vin": [
        {
          "coinbase": "04ffff001d02d100",
          "sequence": 4294967295
        }
      ],
      "vout": [
        {
          "value": 50.0,
          "n": 0,
          "scriptPubKey": {
            "asm": "0412a5c769726cdf2e5b5dc76ce1791322e9e40b056cff75624ede741a154c37dd3b934e109b26accdb1c4ffc3cc0e7a30670f6c4bcf8e08ff3bb93c59e4ddc92e OP_CHECKSIG",
            "desc": "pk(0412a5c769726cdf2e5b5dc76ce1791322e9e40b056cff75624ede741a154c37dd3b934e109b26accdb1c4ffc3cc0e7a30670f6c4bcf8e08ff3bb93c59e4ddc92e)#mc5yfrsn",
            "hex": "410412a5c769726cdf2e5b5dc76ce1791322e9e40b056cff75624ede741a154c37dd3b934e109b26accdb1c4ffc3cc0e7a30670f6c4bcf8e08ff3bb93c59e4ddc92eac",
            "type": "pubkey"
          }
        }
      ],
      "hex": "01000000010000000000000000000000000000000000000000000000000000000000000000ffffffff0804ffff001d02d100ffffffff0100f2052a0100000043410412a5c769726cdf2e5b5dc76ce1791322e9e40b056cff75624ede741a154c37dd3b934e109b26accdb1c4ffc3cc0e7a30670f6c4bcf8e08ff3bb93c59e4ddc92eac00000000"
    }
  ]
}