{
  "hash": "000000007cf65564396af4a75ba96d5a07123d9f430faaf49758abc4e50cf2ea",
  "confirmations": 51589,
  "height": 1509,
  "version": 1,
  "versionHex": "00000001",
  "merkleroot": "026f532acbe1438d928030ad705e2250d5ac9b1861f53cc8c9480632896673b6",
  "time": 1232771864,
  "mediantime": 1232770617,
  "nonce": 2537900342,
  "bits": "1d00ffff",
  "difficulty": 1,
  "chainwork": "000000000000000000000000000000000000000000000000000005e605e605e6",
  "nTx": 1,
  "previousblockhash": "00000000bdfb91e2ff603c06a2487f6b046e23999312a7e68beb164cf5524b6c",
  "nextblockhash": "0000000035c87619e4408443c2791f30d3d27c7252739b3af85e910ab2c50306",
  "strippedsize": 216,
  "size": 216,
  "weight": 864,
  "tx": [
    {
      "txid": "026f532acbe1438d928030ad705e2250d5ac9b1861f53cc8c9480632896673b6",
      "hash": "026f532acbe1438d928030ad705e2250d5ac9b1861f53cc8c9480632896673b6",
      "version": 1,
      "size": 135,
      "vsize": 135,
      "weight": 540,
      "locktime": 0,
      "vin": [
        {
          "coinbase": "04ffff001d023b01",
          "sequence": 4294967295
        }
      ],
      "vout": [
        {
          "value": 50.0,
          "n": 0,
          "scriptPubKey": {
            "asm": "041fa7571a8467e3acfae764e4ba1892b6bcdc37eab26c87efb4d9d3e6fc64620b5b63f773d616734526c09d91d481814b9222c4e83f03e534fb6827104dfed88c OP_CHECKSIG",
            "desc": "pk(041fa7571a8467e3acfae764e4ba1892b6bcdc37eab26c87efb4d9d3e6fc64620b5b63f773d616734526c09d91d481814b9222c4e83f03e534fb6827104dfed88c)#zhuk9rrp",
            "hex": "41041fa7571a8467e3acfae764e4ba1892b6bcdc37eab26c87efb4d9d3e6fc64620b5b63f773d616734526c09d91d481814b9222c4e83f03e534fb6827104dfed88cac",
            "type": "pubkey"
          }
        }
      ],
      "hex": "01000000010000000000000000000000000000000000000000000000000000000000000000ffffffff0804ffff001d023b01ffffffff0100f2052a010000004341041fa7571a8467e3acfae764e4ba1892b6bcdc37eab26c87efb4d9d3e6fc64620b5b63f773d616734526c09d91d481814b9222c4e83f03e534fb6827104dfed88cac00000000"
    }
  ]
}