{
  "hash": "000000008da22f7f812db925f5ed6229d5815ae89a87d71ca612eecb8bedbe6a",
  "confirmations": 50399,
  "height": 2699,
  "version": 1,
  "versionHex": "00000001",
  "merkleroot": "e609cafbb29cef348c6cc1800ba1711a411b31c1f2790ecf03ca20c735a2d237",
  "time": 1233559326,
  "mediantime": 1233557017,
  "nonce": 2536281642,
  "bits": "1d00ffff",
  "difficulty": 1,
  "chainwork": "00000000000000000000000000000000000000000000000000000a8c0a8c0a8c",
  "nTx": 1,
  "previousblockhash": "00000000cf6630870383558dcf82aa7b9925c75cac1f1dd39496b55be7d485f9",
  "nextblockhash": "000000001731f7bb532ebd8ff11c253f128a9e3108eaf038d8155fedeba5bc0c",
  "strippedsize": 216,
  "size": 216,
  "weight": 864,
  "tx": [
    {
      "txid": "e609cafbb29cef348c6cc1800ba1711a411b31c1f2790ecf03ca20c735a2d237",
      "hash": "e609cafbb29cef348c6cc1800ba1711a411b31c1f2790ecf03ca20c735a2d237",
      "version": 1,
      "size": 135,
      "vsize": 135,
      "weight": 540,
      "locktime": 0,
      "vin": [
        {
          "coinbase": "04ffff001d02b904",
          "sequence": 4294967295
        }
      ],
      "vout": [
        {
          "value": 50.0,
          "n": 0,
          "scriptPubKey": {
            "asm": "042789e372d15af477c695035dc2629edb7778b3ef0f7122f4f0e2dec96e6172ca1086159182fcfb16bd0510a2a66e00e923b13c3df47dc1c8569edcbb53f1e307 OP_CHECKSIG",
            "desc": "pk(042789e372d15af477c695035dc2629edb7778b3ef0f7122f4f0e2dec96e6172ca1086159182fcfb16bd0510a2a66e00e923b13c3df47dc1c8569edcbb53f1e307)#38e5ec7w",
            "hex": "41042789e372d15af477c695035dc2629edb7778b3ef0f7122f4f0e2dec96e6172ca1086159182fcfb16bd0510a2a66e00e923b13c3df47dc1c8569edcbb53f1e307ac",
            "type": "pubkey"
          }
        }
      ],
      "hex": "01000000010000000000000000000000000000000000000000000000000000000000000000ffffffff0804ffff001d02b904ffffffff0100f2052a010000004341042789e372d15af477c695035dc2629edb7778b3ef0f7122f4f0e2dec96e6172ca1086159182fcfb16bd0510a2a66e00e923b13c3df47dc1c8569edcbb53f1e307ac00000000"
    }
  ]
}