{
  "hash": "0000000065c6b8e8013a87f447703a98e5857a264fd6b4c3216d12e74c69cd07",
  "confirmations": 44306,
  "height": 8792,
  "version": 1,
  "versionHex": "00000001",
  "merkleroot": "b9692154c3ef8ba3f9b6a937dd5f7f47e85e7997384b2631af733ecbe29b35e8",
  "time": 1238095955,
  "mediantime": 1238090637,
  "nonce": 2357108233,
  "bits": "1d00ffff",
  "difficulty": 1,
  "chainwork": "0000000000000000000000000000000000000000000000000000225922592259",
  "nTx": 1,
  "previousblockhash": "00000000fce66f517da7e77003f45e5844e4cb00ded20e165b168a8c8aa59fa1",
  "nextblockhash": "00000000b51d2b9f5faa149787d633d4c257c2c4af5903e07fcd7734683ebf34",
  "strippedsize": 216,
  "size": 216,
  "weight": 864,
  "tx": [
    {
      "txid": "b9692154c3ef8ba3f9b6a937dd5f7f47e85e7997384b2631af733ecbe29b35e8",
      "hash": "b9692154c3ef8ba3f9b6a937dd5f7f47e85e7997384b2631af733ecbe29b35e8",
      "version": 1,
      "size": 135,
      "vsize": 135,
      "weight": 540,
      "locktime": 0,
      "vin": [
        {
          "coinbase": "04ffff001d029e02",
          "sequence": 4294967295
        }
      ],
      "vout": [
        {
          "value": 50.0,
          "n": 0,
          "scriptPubKey": {
            "asm": "04bae6fb4a51b333774ac0cf21097792ac3cded71ea7b101a97dbdc4817185c10d510e6dde7fa63ba05ac5f5e97d6d9f10f27bdb404d89e590cca1145e14b925ae OP_CHECKSIG",
            "desc": "pk(04bae6fb4a51b333774ac0cf21097792ac3cded71ea7b101a97dbdc4817185c10d510e6dde7fa63ba05ac5f5e97d6d9f10f27bdb404d89e590cca1145e14b925ae)#4zdaxevk",
            "hex": "4104bae6fb4a51b333774ac0cf21097792ac3cded71ea7b101a97dbdc4817185c10d510e6dde7fa63ba05ac5f5e97d6d9f10f27bdb404d89e590cca1145e14b925aeac",
            "type": "pubkey"
          }
        }
      ],
      "hex": "01000000010000000000000000000000000000000000000000000000000000000000000000ffffffff0804ffff001d029e02ffffffff0100f2052a01000000434104bae6fb4a51b333774ac0cf21097792ac3cded71ea7b101a97dbdc4817185c10d510e6dde7fa63ba05ac5f5e97d6d9f10f27bdb404d89e590cca1145e14b925aeac00000000"
    }
  ]
}