{
  "hash": "0000000087b97399a2d8c2de62e64d61814a3b4bd488522fc9618083b125738e",
  "confirmations": 51749,
  "height": 1349,
  "version": 1,
  "versionHex": "00000001",
  "merkleroot": "81146729b7393de972447f19bcca5507856fdd2f5aa031f56738c2e753ba0b72",
  "time": 1232641365,
  "mediantime": 1232635880,
  "nonce": 4116261896,
  "bits": "1d00ffff",
  "difficulty": 1,
  "chainwork": "0000000000000000000000000000000000000000000000000000054605460546",
  "nTx": 1,
  "previousblockhash": "00000000b0383ad53d30fa9896168074f7f51a6a3366b1aaa2b263c7cd72b6a4",
  "nextblockhash": "000000005f3b33fbff842d0b7cf1de11fc4de376356b0d634a859eb77c840556",
  "strippedsize": 216,
  "size": 216,
  "weight": 864,
  "tx": [
    {
      "txid": "81146729b7393de972447f19bcca5507856fdd2f5aa031f56738c2e753ba0b72",
      "hash": "81146729b7393de972447f19bcca5507856fdd2f5aa031f56738c2e753ba0b72",
      "version": 1,
      "size": 135,
      "vsize": 135,
      "weight": 540,
      "locktime": 0,
      "vin": [
        {
          "coinbase": "04ffff001d022301",
          "sequence": 4294967295
        }
      ],
      "vout": [
        {
          "value": 50.0,
          "n": 0,
          "scriptPubKey": {
            "asm": "04a6f9a957b4ea8ab86a17f2d9f04bd7d089b66312792938096778b55d5b3c6d27b80d2a246a48c2e7b01b3e7a01d4faa7e2f909106b582cf77bfc9f08a5887178 OP_CHECKSIG",
            "desc": "pk(04a6f9a957b4ea8ab86a17f2d9f04bd7d089b66312792938096778b55d5b3c6d27b80d2a246a48c2e7b01b3e7a01d4faa7e2f909106b582cf77bfc9f08a5887178)#76e8cw8p",
            "hex": "4104a6f9a957b4ea8ab86a17f2d9f04bd7d089b66312792938096778b55d5b3c6d27b80d2a246a48c2e7b01b3e7a01d4faa7e2f909106b582cf77bfc9f08a5887178ac",
            "type": "pubkey"
          }
        }
      ],
      "hex": "01000000010000000000000000000000000000000000000000000000000000000000000000ffffffff0804ffff001d022301ffffffff0100f2052a01000000434104a6f9a957b4ea8ab86a17f2d9f04bd7d089b66312792938096778b55d5b3c6d27b80d2a246a48c2e7b01b3e7a01d4faa7e2f909106b582cf77bfc9f08a5887178ac00000000"
    }
  ]
}