{
  "hash": "00000000c00a1d667be37a43eb5e5f2a409cc0a72d9f3fa89a42d41409cd5ba4",
  "confirmations": 50796,
  "height": 2302,
  "version": 1,
  "versionHex": "00000001",
  "merkleroot": "02584733bb4fd17a6e637fdbb37903a7f1f03d9139d6048d817eb7185c7062af",
  "time": 1233280383,
  "mediantime": 1233277937,
  "nonce": 1740294705,
  "bits": "1d00ffff",
  "difficulty": 1,
  "chainwork": "000000000000000000000000000000000000000000000000000008ff08ff08ff",
  "nTx": 1,
  "previousblockhash": "0000000005293c54b44c3ae0230ebe9efab661dd7b3068fa44ad33e872282363",
  "nextblockhash": "0000000034513c8f15e871647ead42a924d597b5c9303e6aea529cf06ad302aa",
  "strippedsize": 216,
  "size": 216,
  "weight": 864,
  "tx": [
    {
      "txid": "02584733bb4fd17a6e637fdbb37903a7f1f03d9139d6048d817eb7185c7062af",
      "hash": "02584733bb4fd17a6e637fdbb37903a7f1f03d9139d6048d817eb7185c7062af",
      "version": 1,
      "size": 135,
      "vsize": 135,
      "weight": 540,
      "locktime": 0,
      "vin": [
        {
          "coinbase": "04ffff001d02b101",
          "sequence": 4294967295
        }
      ],
      "vout": [
        {
          "value": 50.0,
          "n": 0,
          "scriptPubKey": {
            "asm": "0456bde321d3e03e74cf0be2c391637e2090dd3e90ca524117d714e21d05785b229302f5a89cba7935529ed0f82609363b34d46f0573e7ea569146b628d4a20f32 OP_CHECKSIG",
            "desc": "pk(0456bde321d3e03e74cf0be2c391637e2090dd3e90ca524117d714e21d05785b229302f5a89cba7935529ed0f82609363b34d46f0573e7ea569146b628d4a20f32)#9uapwnmr",
            "hex": "410456bde321d3e03e74cf0be2c391637e2090dd3e90ca524117d714e21d05785b229302f5a89cba7935529ed0f82609363b34d46f0573e7ea569146b628d4a20f32ac",
            "type": "pubkey"
          }
        }
      ],
      "hex": "01000000010000000000000000000000000000000000000000000000000000000000000000ffffffff0804ffff001d02b101ffffffff0100f2052a0100000043410456bde321d3e03e74cf0be2c391637e2090dd3e90ca524117d714e21d05785b229302f5a89cba7935529ed0f82609363b34d46f0573e7ea569146b628d4a20f32ac00000000"
    }
  ]
}