{
  "hash": "0000000096a904fbe562c936302421be05856fce88a4722a9333734996b6938b",
  "confirmations": 50519,
  "height": 2579,
  "version": 1,
  "versionHex": "00000001",
  "merkleroot": "45408fc81d8ea3c7944d7ebfdcce86a889596bd96a2f14318c11ff1b1804c7d6",
  "time": 1233477316,
  "mediantime": 1233473263,
  "nonce": 596056627,
  "bits": "1d00ffff",
  "difficulty": 1,
  "chainwork": "00000000000000000000000000000000000000000000000000000a140a140a14",
  "nTx": 1,
  "previousblockhash": "000000009a5cca2eb53d84dbdb33fbd5fc584e6cb3017bbf3a9a01c96e1fc69e",
  "nextblockhash": "0000000028e5e4ccf9c8fb193d58f0468bd6403acd23cddff590149bd55c4880",
  "strippedsize": 216,
  "size": 216,
  "weight": 864,
  "tx": [
    {
      "txid": "45408fc81d8ea3c7944d7ebfdcce86a889596bd96a2f14318c11ff1b1804c7d6",
      "hash": "45408fc81d8ea3c7944d7ebfdcce86a889596bd96a2f14318c11ff1b1804c7d6",
      "version": 1,
      "size": 135,
      "vsize": 135,
      "weight": 540,
      "locktime": 0,
      "vin": [
        {
          "coinbase": "04ffff001d029a02",
          "sequence": 4294967295
        }
      ],
      "vout": [
        {
          "value": 50.0,
          "n": 0,
          "scriptPubKey": {
            "asm": "0430713aeec528806eacfeb49da2f5207bf3d5e1986d1277e450dc8492860270305322ad4456d6fe6880a8fb41c5eed591b50cc5b10b583bf46225b4038ce53fb9 OP_CHECKSIG",
            "desc": "pk(0430713aeec528806eacfeb49da2f5207bf3d5e1986d1277e450dc8492860270305322ad4456d6fe6880a8fb41c5eed591b50cc5b10b583bf46225b4038ce53fb9)#44aku4pp",
            "hex": "410430713aeec528806eacfeb49da2f5207bf3d5e1986d1277e450dc8492860270305322ad4456d6fe6880a8fb41c5eed591b50cc5b10b583bf46225b4038ce53fb9ac",
            "type": "pubkey"
          }
        }
      ],
      "hex": "01000000010000000000000000000000000000000000000000000000000000000000000000ffffffff0804ffff001d029a02ffffffff0100f2052a0100000043410430713aeec528806eacfeb49da2f5207bf3d5e1986d1277e450dc8492860270305322ad4456d6fe6880a8fb41c5eed591b50cc5b10b583bf46225b4038ce53fb9ac00000000"
    }
  ]
}