{
  "hash": "00000000dac774c3cb8558b37d6b7879c0cbcacb6a455ca4e780ce85dd70a791",
  "confirmations": 52273,
  "height": 825,
  "version": 1,
  "versionHex": "00000001",
  "merkleroot": "c94c78e59390e73db5ac863eaf50cb80053fb464fb3f3a8c0dcbc7a67b95ff0e",
  "time": 1232211036,
  "mediantime": 1232207788,
  "nonce": 3455098117,
  "bits": "1d00ffff",
  "difficulty": 1,
  "chainwork": "0000000000000000000000000000000000000000000000000000033a033a033a",
  "nTx": 1,
  "previousblockhash": "00000000eafb128705bb96f7d0409b89f9c783b6b88b7d386ac7109721b02968",
  "nextblockhash": "0000000085778072ebee2f72ee90c7b6b0aeffe60c2e225848adbc6311fca93a",
  "strippedsize": 216,
  "size": 216,
  "weight": 864,
  "tx": [
    {
      "txid": "c94c78e59390e73db5ac863eaf50cb80053fb464fb3f3a8c0dcbc7a67b95ff0e",
      "hash": "c94c78e59390e73db5ac863eaf50cb80053fb464fb3f3a8c0dcbc7a67b95ff0e",
      "version": 1,
      "size": 135,
      "vsize": 135,
      "weight": 540,
      "locktime": 0,
      "vin": [
        {
          "coinbase": "04ffff001d02e401",
          "sequence": 4294967295
        }
      ],
      "vout": [
        {
          "value": 50.0,
          "n": 0,
          "scriptPubKey": {
            "asm": "042636c1b37e8b81945d814f44fa2c85598859b88b463af4931152eb2a4fe3b9ba3b2d2a0a12e9a2bc97baf33f0dfbb1df03ba91390336862369b3a094708c90ee OP_CHECKSIG",
            "desc": "pk(042636c1b37e8b81945d814f44fa2c85598859b88b463af4931152eb2a4fe3b9ba3b2d2a0a12e9a2bc97baf33f0dfbb1df03ba91390336862369b3a094708c90ee)#ysnpyun4",
            "hex": "41042636c1b37e8b81945d814f44fa2c85598859b88b463af4931152eb2a4fe3b9ba3b2d2a0a12e9a2bc97baf33f0dfbb1df03ba91390336862369b3a094708c90eeac",
            "type": "pubkey"
          }
        }
      ],
      "hex": "01000000010000000000000000000000000000000000000000000000000000000000000000ffffffff0804ffff001d02e401ffffffff0100f2052a010000004341042636c1b37e8b81945d814f44fa2c85598859b88b463af4931152eb2a4fe3b9ba3b2d2a0a12e9a2bc97baf33f0dfbb1df03ba91390336862369b3a094708c90eeac00000000"
    }
  ]
}