{
  "hash": "00000000c590a1a09c8f579c04a50acef9a81a8a1bf1f026779be4d26a48d6ab",
  "confirmations": 50678,
  "height": 2420,
  "version": 1,
  "versionHex": "00000001",
  "merkleroot": "11876567682804db50432dcb34046d0cba81342427e2e862942c4c0ef3381348",
  "time": 1233370144,
  "mediantime": 1233367250,
  "nonce": 2580251672,
  "bits": "1d00ffff",
  "difficulty": 1,
  "chainwork": "0000000000000000000000000000000000000000000000000000097509750975",
  "nTx": 1,
  "previousblockhash": "00000000f650c21563c0dba2bad638a0a0723d33638a7114414d18fa05fe2335",
  "nextblockhash": "00000000ef8079dcdbf8f6dfbc28de67b6de24f161c7f54075e45c11bfc37be9",
  "strippedsize": 215,
  "size": 215,
  "weight": 860,
  "tx": [
    {
      "txid": "11876567682804db50432dcb34046d0cba81342427e2e862942c4c0ef3381348",
      "hash": "11876567682804db50432dcb34046d0cba81342427e2e862942c4c0ef3381348",
      "version": 1,
      "size": 134,
      "vsize": 134,
      "weight": 536,
      "locktime": 0,
      "vin": [
        {
          "coinbase": "04ffff001d0111",
          "sequence": 4294967295
        }
      ],
      "vout": [
        {
          "value": 50.0,
          "n": 0,
          "scriptPubKey": {
            "asm": "04c5434c8714d6e70a0d983fb2334a38d57dd9a60170e372d74f167d03bb53366de51c74de84095df88d4ec1aef66b1b2684ba6ee69f5d35ab0e65d80a8db34b66 OP_CHECKSIG",
            "desc": "pk(04c5434c8714d6e70a0d983fb2334a38d57dd9a60170e372d74f167d03bb53366de51c74de84095df88d4ec1aef66b1b2684ba6ee69f5d35ab0e65d80a8db34b66)#z372rvym",
            "hex": "4104c5434c8714d6e70a0d983fb2334a38d57dd9a60170e372d74f167d03bb53366de51c74de84095df88d4ec1aef66b1b2684ba6ee69f5d35ab0e65d80a8db34b66ac",
            "type": "pubkey"
          }
        }
      ],
      "hex": "01000000010000000000000000000000000000000000000000000000000000000000000000ffffffff0704ffff001d0111ffffffff0100f2052a01000000434104c5434c8714d6e70a0d983fb2334a38d57dd9a60170e372d74f167d03bb53366de51c74de84095df88d4ec1aef66b1b2684ba6ee69f5d35ab0e65d80a8db34b66ac00000000"
    }
  ]
}