{
  "hash": "00000000e8ca9ad4f38bb3bafc5834fc4dfd8b91488c17d8cb8524224141b309",
  "confirmations": 47473,
  "height": 5625,
  "version": 1,
  "versionHex": "00000001",
  "merkleroot": "c95a8146bbb6ffda6d448fbc851a92a326b9e20dd3413f8fc10ac721c2e03357",
  "time": 1235625865,
  "mediantime": 1235621425,
  "nonce": 2950105656,
  "bits": "1d00ffff",
  "difficulty": 1,
  "chainwork": "000000000000000000000000000000000000000000000000000015fa15fa15fa",
  "nTx": 1,
  "previousblockhash": "00000000dd333867e9e05c70d22116d836fe301669eab69e3928e6b52ca5d672",
  "nextblockhash": "0000000098f28df657d414aa9d31da4350cad4b3c8046837c0129478be169d41",
  "strippedsize": 216,
  "size": 216,
  "weight": 864,
  "tx": [
    {
      "txid": "c95a8146bbb6ffda6d448fbc851a92a326b9e20dd3413f8fc10ac721c2e03357",
      "hash": "c95a8146bbb6ffda6d448fbc851a92a326b9e20dd3413f8fc10ac721c2e03357",
      "version": 1,
      "size": 135,
      "vsize": 135,
      "weight": 540,
      "locktime": 0,
      "vin": [
        {
          "coinbase": "04ffff001d022a08",
          "sequence": 4294967295
        }
      ],
      "vout": [
        {
          "value": 50.0,
          "n": 0,
          "scriptPubKey": {
            "asm": "04c284454ab23e6b3ee56fca854aafe7508a0b8393d6949ffeacd79b294a2b725fc18940efbfe6f4a93a20d5521fc9e185b7134f5dd4c3691be0feb8785b69d895 OP_CHECKSIG",
            "desc": "pk(04c284454ab23e6b3ee56fca854aafe7508a0b8393d6949ffeacd79b294a2b725fc18940efbfe6f4a93a20d5521fc9e185b7134f5dd4c3691be0feb8785b69d895)#dkwcvh9d",
            "hex": "4104c284454ab23e6b3ee56fca854aafe7508a0b8393d6949ffeacd79b294a2b725fc18940efbfe6f4a93a20d5521fc9e185b7134f5dd4c3691be0feb8785b69d895ac",
            "type": "pubkey"
          }
        }
      ],
      "hex": "01000000010000000000000000000000000000000000000000000000000000000000000000ffffffff0804ffff001d022a08ffffffff0100f2052a01000000434104c284454ab23e6b3ee56fca854aafe7508a0b8393d6949ffeacd79b294a2b725fc18940efbfe6f4a93a20d5521fc9e185b7134f5dd4c3691be0feb8785b69d895ac00000000"
    }
  ]
}