{
  "hash": "00000000f3f83c8c386fbd89c5e00739aa1b7f1d5367c92fd2f6804275dd1c7b",
  "confirmations": 50489,
  "height": 2609,
  "version": 1,
  "versionHex": "00000001",
  "merkleroot": "4dc47c2c14504feb312c5a2dbbfd6576cf7341e29793bbb845d17441b658f49e",
  "time": 1233500653,
  "mediantime": 1233497528,
  "nonce": 2592598071,
  "bits": "1d00ffff",
  "difficulty": 1,
  "chainwork": "00000000000000000000000000000000000000000000000000000a320a320a32",
  "nTx": 1,
  "previousblockhash": "000000006304081c10fb81029e85f8930ce1f4d656bffd35d049078db4de767d",
  "nextblockhash": "00000000279241dc111765893cab93b90d93fc75d307fa4894c70b90a4aaab54",
  "strippedsize": 216,
  "size": 216,
  "weight": 864,
  "tx": [
    {
      "txid": "4dc47c2c14504feb312c5a2dbbfd6576cf7341e29793bbb845d17441b658f49e",
      "hash": "4dc47c2c14504feb312c5a2dbbfd6576cf7341e29793bbb845d17441b658f49e",
      "version": 1,
      "size": 135,
      "vsize": 135,
      "weight": 540,
      "locktime": 0,
      "vin": [
        {
          "coinbase": "04ffff001d022c03",
          "sequence": 4294967295
        }
      ],
      "vout": [
        {
          "value": 50.0,
          "n": 0,
          "scriptPubKey": {
            "asm": "04b14b9a5b68da08ec2c824f4aa2540db291938c1c3698bfc0223dbec3221602956a407c90b574f21656ea7663f2793d06997cc28f7a497b45150fafe8daf0a117 OP_CHECKSIG",
            "desc": "pk(04b14b9a5b68da08ec2c824f4aa2540db291938c1c3698bfc0223dbec3221602956a407c90b574f21656ea7663f2793d06997cc28f7a497b45150fafe8daf0a117)#xpqchpmq",
            "hex": "4104b14b9a5b68da08ec2c824f4aa2540db291938c1c3698bfc0223dbec3221602956a407c90b574f21656ea7663f2793d06997cc28f7a497b45150fafe8daf0a117ac",
            "type": "pubkey"
          }
        }
      ],
      "hex": "01000000010000000000000000000000000000000000000000000000000000000000000000ffffffff0804ffff001d022c03ffffffff0100f2052a01000000434104b14b9a5b68da08ec2c824f4aa2540db291938c1c3698bfc0223dbec3221602956a407c90b574f21656ea7663f2793d06997cc28f7a497b45150fafe8daf0a117ac00000000"
    }
  ]
}