{
  "hash": "0000000045c48b53f19d5a3e73ef6d22930737080b6bdea398303e2ae2ba27e2",
  "confirmations": 52128,
  "height": 376,
  "version": 1,
  "versionHex": "00000001",
  "merkleroot": "54fd10b70a3a512cc22918142a46efd046e406d965d363495ea78a418e0e44c9",
  "time": 1231883994,
  "mediantime": 1231880431,
  "nonce": 604858913,
  "bits": "1d00ffff",
  "difficulty": 1,
  "chainwork": "0000000000000000000000000000000000000000000000000000017901790179",
  "nTx": 1,
  "previousblockhash": "00000000a075a8baeda1ecd9043458877c9cb9abc68ccd035fcbf450b91fd3b5",
  "nextblockhash": "000000006d7b30cc5c8ccdfdd56417846e3485f42106fbee53e483e571f41c32",
  "strippedsize": 216,
  "size": 216,
  "weight": 864,
  "tx": [
    {
      "txid": "54fd10b70a3a512cc22918142a46efd046e406d965d363495ea78a418e0e44c9",
      "hash": "54fd10b70a3a512cc22918142a46efd046e406d965d363495ea78a418e0e44c9",
      "version": 1,
      "size": 135,
      "vsize": 135,
      "weight": 540,
      "locktime": 0,
      "vin": [
        {
          "coinbase": "04ffff001d02fd01",
          "sequence": 4294967295
        }
      ],
      "vout": [
        {
          "value": 50.0,
          "n": 0,
          "scriptPubKey": {
            "asm": "04d27d29408b48d985a277e1451a0db28ba1a6bb057b01d3b941dcfce99f3d6607301ffc53b240cccaabb061e2ff55d155366e4685db4e034efdef780d190941bb OP_CHECKSIG",
            "desc": "pk(04d27d29408b48d985a277e1451a0db28ba1a6bb057b01d3b941dcfce99f3d6607301ffc53b240cccaabb061e2ff55d155366e4685db4e034efdef780d190941bb)#6wfj8y4l",
            "hex": "4104d27d29408b48d985a277e1451a0db28ba1a6bb057b01d3b941dcfce99f3d6607301ffc53b240cccaabb061e2ff55d155366e4685db4e034efdef780d190941bbac",
            "type": "pubkey"
          }
        }
      ],
      "hex": "01000000010000000000000000000000000000000000000000000000000000000000000000ffffffff0804ffff001d02fd01ffffffff0100f2052a01000000434104d27d29408b48d985a277e1451a0db28ba1a6bb057b01d3b941dcfce99f3d6607301ffc53b240cccaabb061e2ff55d155366e4685db4e034efdef780d190941bbac00000000"
    }
  ]
}