{
  "hash": "000000000e959d454587fb93067942e3a18275ca884a6f761475415e9e0048d6",
  "confirmations": 52171,
  "height": 927,
  "version": 1,
  "versionHex": "00000001",
  "merkleroot": "92e60c428d05c6ab98cee9373f4aafe18538d5d3c8f3319a85feb2575f314923",
  "time": 1232296937,
  "mediantime": 1232293348,
  "nonce": 18964486,
  "bits": "1d00ffff",
  "difficulty": 1,
  "chainwork": "000000000000000000000000000000000000000000000000000003a003a003a0",
  "nTx": 1,
  "previousblockhash": "000000007da822264487e89357fb3be68ceac179430d9cbda4c24358b681c175",
  "nextblockhash": "00000000058404b3cd08c57cb15574861bf686353ef7e100abe6ca9994133eed",
  "strippedsize": 215,
  "size": 215,
  "weight": 860,
  "tx": [
    {
      "txid": "92e60c428d05c6ab98cee9373f4aafe18538d5d3c8f3319a85feb2575f314923",
      "hash": "92e60c428d05c6ab98cee9373f4aafe18538d5d3c8f3319a85feb2575f314923",
      "version": 1,
      "size": 134,
      "vsize": 134,
      "weight": 536,
      "locktime": 0,
      "vin": [
        {
          "coinbase": "04ffff001d0174",
          "sequence": 4294967295
        }
      ],
      "vout": [
        {
          "value": 50.0,
          "n": 0,
          "scriptPubKey": {
            "asm": "04b680c3a878b22c39682fb2995dae46a1cc51b5f49032fb29a51b293ceffb5b5dfefb441116fa0d65cdae44b8fa82fa634a6e5b9d56e03112c8b54410f57f0003 OP_CHECKSIG",
            "desc": "pk(04b680c3a878b22c39682fb2995dae46a1cc51b5f49032fb29a51b293ceffb5b5dfefb441116fa0d65cdae44b8fa82fa634a6e5b9d56e03112c8b54410f57f0003)#ljyx06hx",
            "hex": "4104b680c3a878b22c39682fb2995dae46a1cc51b5f49032fb29a51b293ceffb5b5dfefb441116fa0d65cdae44b8fa82fa634a6e5b9d56e03112c8b54410f57f0003ac",
            "type": "pubkey"
          }
        }
      ],
      "hex": "01000000010000000000000000000000000000000000000000000000000000000000000000ffffffff0704ffff001d0174ffffffff0100f2052a01000000434104b680c3a878b22c39682fb2995dae46a1cc51b5f49032fb29a51b293ceffb5b5dfefb441116fa0d65cdae44b8fa82fa634a6e5b9d56e03112c8b54410f57f0003ac00000000"
    }
  ]
}