{
  "hash": "00000000257209405eb293496e10080c0dc8192b533940fdcdf2cadf9f2a2444",
  "confirmations": 51023,
  "height": 2075,
  "version": 1,
  "versionHex": "00000001",
  "merkleroot": "3ffb137b10d0fea456cb7fd0691c94348c67c1605ebbd891608a68d69b931072",
  "time": 1233118992,
  "mediantime": 1233114740,
  "nonce": 3458754860,
  "bits": "1d00ffff",
  "difficulty": 1,
  "chainwork": "0000000000000000000000000000000000000000000000000000081c081c081c",
  "nTx": 1,
  "previousblockhash": "000000006fb214a441e0beccf10a78c946eddeeacf0bb8f658fa895a498f20a0",
  "nextblockhash": "000000006b5d6191bd2f345fa1b1c168bd2591ac56aaa392ee4da2efa9ece829",
  "strippedsize": 216,
  "size": 216,
  "weight": 864,
  "tx": [
    {
      "txid": "3ffb137b10d0fea456cb7fd0691c94348c67c1605ebbd891608a68d69b931072",
      "hash": "3ffb137b10d0fea456cb7fd0691c94348c67c1605ebbd891608a68d69b931072",
      "version": 1,
      "size": 135,
      "vsize": 135,
      "weight": 540,
      "locktime": 0,
      "vin": [
        {
          "coinbase": "04ffff001d024f03",
          "sequence": 4294967295
        }
      ],
      "vout": [
        {
          "value": 50.0,
          "n": 0,
          "scriptPubKey": {
            "asm": "04ad2bade97ef0df20d9a37d0bd61f5340e65ad965e17de4da5b64544ffbeb1c510ebe949b7c53ace0edc619ad44ed3ca48fa489b83365f0a3e58d8d8d0c4f65f7 OP_CHECKSIG",
            "desc": "pk(04ad2bade97ef0df20d9a37d0bd61f5340e65ad965e17de4da5b64544ffbeb1c510ebe949b7c53ace0edc619ad44ed3ca48fa489b83365f0a3e58d8d8d0c4f65f7)#dvuarlsc",
            "hex": "4104ad2bade97ef0df20d9a37d0bd61f5340e65ad965e17de4da5b64544ffbeb1c510ebe949b7c53ace0edc619ad44ed3ca48fa489b83365f0a3e58d8d8d0c4f65f7ac",
            "type": "pubkey"
          }
        }
      ],
      "hex": "01000000010000000000000000000000000000000000000000000000000000000000000000ffffffff0804ffff001d024f03ffffffff0100f2052a01000000434104ad2bade97ef0df20d9a37d0bd61f5340e65ad965e17de4da5b64544ffbeb1c510ebe949b7c53ace0edc619ad44ed3ca48fa489b83365f0a3e58d8d8d0c4f65f7ac00000000"
    }
  ]
}