{
  "hash": "00000000b6ee1bc8ef48268ca7fbd243cf2d4c4792620ebfc5933cf08c487bdb",
  "confirmations": 52062,
  "height": 231,
  "version": 1,
  "versionHex": "00000001",
  "merkleroot": "6229511483becd964893b5994aa7a2876d7435bc0c70cab7bfdb1c6eb3703d8c",
  "time": 1231777403,
  "mediantime": 1231773794,
  "nonce": 1430124568,
  "bits": "1d00ffff",
  "difficulty": 1,
  "chainwork": "000000000000000000000000000000000000000000000000000000e800e800e8",
  "nTx": 1,
  "previousblockhash": "00000000a7494fded2b0cc826dd1c58f1c383714f2de0449a3a3643ead5452c2",
  "nextblockhash": "0000000098e453043107b29a58db813021640b3def7c1e659742ddf56420d6ca",
  "strippedsize": 216,
  "size": 216,
  "weight": 864,
  "tx": [
    {
      "txid": "6229511483becd964893b5994aa7a2876d7435bc0c70cab7bfdb1c6eb3703d8c",
      "hash": "6229511483becd964893b5994aa7a2876d7435bc0c70cab7bfdb1c6eb3703d8c",
      "version": 1,
      "size": 135,
      "vsize": 135,
      "weight": 540,
      "locktime": 0,
      "vin": [
        {
          "coinbase": "04ffff001d02d400",
          "sequence": 4294967295
        }
      ],
      "vout": [
        {
          "value": 50.0,
          "n": 0,
          "scriptPubKey": {
            "asm": "0461dd47c89a0e383fa63ffce43db26c72ec568c6c98ee89334bc37655d70490392fdb16ef848b3f1865230a86e9c6780625e3075a328a750da6e170c78a70aae4 OP_CHECKSIG",
            "desc": "pk(0461dd47c89a0e383fa63ffce43db26c72ec568c6c98ee89334bc37655d70490392fdb16ef848b3f1865230a86e9c6780625e3075a328a750da6e170c78a70aae4)#4gsttrcd",
            "hex": "410461dd47c89a0e383fa63ffce43db26c72ec568c6c98ee89334bc37655d70490392fdb16ef848b3f1865230a86e9c6780625e3075a328a750da6e170c78a70aae4ac",
            "type": "pubkey"
          }
        }
      ],
      "hex": "01000000010000000000000000000000000000000000000000000000000000000000000000ffffffff0804ffff001d02d400ffffffff0100f2052a0100000043410461dd47c89a0e383fa63ffce43db26c72ec568c6c98ee89334bc37655d70490392fdb16ef848b3f1865230a86e9c6780625e3075a328a750da6e170c78a70aae4ac00000000"
    }
  ]
}