{
  "hash": "000000000962984c4d1cc6d4508fd134269542924a0c3c92fe904af741627297",
  "confirmations": 45380,
  "height": 7718,
  "version": 1,
  "versionHex": "00000001",
  "merkleroot": "83fbca45770b3b3d656007241d810a4282b88fdc436ae611286361cdede60410",
  "time": 1237253163,
  "mediantime": 1237248648,
  "nonce": 46086148,
  "bits": "1d00ffff",
  "difficulty": 1,
  "chainwork": "00000000000000000000000000000000000000000000000000001e271e271e27",
  "nTx": 1,
  "previousblockhash": "000000000c3c5fb33ea4106d8b52a7dee184111ec53d23c4c76eeb0ab7a9ec82",
  "nextblockhash": "0000000024aa969ed9f1406a2b4b49f17b47a73e5fa573773ffcb7ceae9f6adf",
  "strippedsize": 216,
  "size": 216,
  "weight": 864,
  "tx": [
    {
      "txid": "83fbca45770b3b3d656007241d810a4282b88fdc436ae611286361cdede60410",
      "hash": "83fbca45770b3b3d656007241d810a4282b88fdc436ae611286361cdede60410",
      "version": 1,
      "size": 135,
      "vsize": 135,
      "weight": 540,
      "locktime": 0,
      "vin": [
        {
          "coinbase": "04ffff001d028204",
          "sequence": 4294967295
        }
      ],
      "vout": [
        {
          "value": 50.0,
          "n": 0,
          "scriptPubKey": {
            "asm": "042a7d7004c100321d8e34cb05894d4b3a3367ef5d76863b1e8c3fe4a0ab1199649e3f08f1f33b1b4b658c5fdb43cf05f8a2baa83207d85509d6ebac3c3c5f6aef OP_CHECKSIG",
            "desc": "pk(042a7d7004c100321d8e34cb05894d4b3a3367ef5d76863b1e8c3fe4a0ab1199649e3f08f1f33b1b4b658c5fdb43cf05f8a2baa83207d85509d6ebac3c3c5f6aef)#zhe5gpv4",
            "hex": "41042a7d7004c100321d8e34cb05894d4b3a3367ef5d76863b1e8c3fe4a0ab1199649e3f08f1f33b1b4b658c5fdb43cf05f8a2baa83207d85509d6ebac3c3c5f6aefac",
            "type": "pubkey"
          }
        }
      ],
      "hex": "01000000010000000000000000000000000000000000000000000000000000000000000000ffffffff0804ffff001d028204ffffffff0100f2052a010000004341042a7d7004c100321d8e34cb05894d4b3a3367ef5d76863b1e8c3fe4a0ab1199649e3f08f1f33b1b4b658c5fdb43cf05f8a2baa83207d85509d6ebac3c3c5f6aefac00000000"
    }
  ]
}