{
  "hash": "000000003e1aba3c139fd1e7399a92d0de0aa3290b34943ebfd38903cf59cb0c",
  "confirmations": 47284,
  "height": 5814,
  "version": 1,
  "versionHex": "00000001",
  "merkleroot": "88100a7880a65cf953cbfa688166fe58e431598ef22a24d5956b050708061daf",
  "time": 1235770665,
  "mediantime": 1235765624,
  "nonce": 421172024,
  "bits": "1d00ffff",
  "difficulty": 1,
  "chainwork": "000000000000000000000000000000000000000000000000000016b716b716b7",
  "nTx": 1,
  "previousblockhash": "000000004e0e1cc55b7f35f5d2d4bcd8a4524eee3e8907246a51e412025605bb",
  "nextblockhash": "00000000ad49fc0520ee9c422e862738cd91e06dc582758b3ff3d48b3d0cfa99",
  "strippedsize": 216,
  "size": 216,
  "weight": 864,
  "tx": [
    {
      "txid": "88100a7880a65cf953cbfa688166fe58e431598ef22a24d5956b050708061daf",
      "hash": "88100a7880a65cf953cbfa688166fe58e431598ef22a24d5956b050708061daf",
      "version": 1,
      "size": 135,
      "vsize": 135,
      "weight": 540,
      "locktime": 0,
      "vin": [
        {
          "coinbase": "04ffff001d02f500",
          "sequence": 4294967295
        }
      ],
      "vout": [
        {
          "value": 50.0,
          "n": 0,
          "scriptPubKey": {
            "asm": "04b29c141488896b813df7242c5fe97c5bf332bfc3e34639a1274edac9ef771d3fd98bfcac3feca4a41834aa291eb62730961bdd03dbe851c6d72ea0c020a7de53 OP_CHECKSIG",
            "desc": "pk(04b29c141488896b813df7242c5fe97c5bf332bfc3e34639a1274edac9ef771d3fd98bfcac3feca4a41834aa291eb62730961bdd03dbe851c6d72ea0c020a7de53)#p4fywpte",
            "hex": "4104b29c141488896b813df7242c5fe97c5bf332bfc3e34639a1274edac9ef771d3fd98bfcac3feca4a41834aa291eb62730961bdd03dbe851c6d72ea0c020a7de53ac",
            "type": "pubkey"
          }
        }
      ],
      "hex": "01000000010000000000000000000000000000000000000000000000000000000000000000ffffffff0804ffff001d02f500ffffffff0100f2052a01000000434104b29c141488896b813df7242c5fe97c5bf332bfc3e34639a1274edac9ef771d3fd98bfcac3feca4a41834aa291eb62730961bdd03dbe851c6d72ea0c020a7de53ac00000000"
    }
  ]
}