{
  "hash": "000000000e478132f5d6451cdb061aa1b639b7a375d566a68702984124ae6b03",
  "confirmations": 52023,
  "height": 209,
  "version": 1,
  "versionHex": "00000001",
  "merkleroot": "15ca7e3d03d9866a335400244e71dfc405c551c2854fc8d8edfa82729438357d",
  "time": 1231759316,
  "mediantime": 1231756638,
  "nonce": 3263482903,
  "bits": "1d00ffff",
  "difficulty": 1,
  "chainwork": "000000000000000000000000000000000000000000000000000000d200d200d2",
  "nTx": 1,
  "previousblockhash": "00000000fe5020fa736e81aa601b61c4c8007c171a92fdc802649970b81f82ff",
  "nextblockhash": "00000000101932342af01908230784689a23deff717dcfe16552d673ff30f16b",
  "strippedsize": 215,
  "size": 215,
  "weight": 860,
  "tx": [
    {
      "txid": "15ca7e3d03d9866a335400244e71dfc405c551c2854fc8d8edfa82729438357d",
      "hash": "15ca7e3d03d9866a335400244e71dfc405c551c2854fc8d8edfa82729438357d",
      "version": 1,
      "size": 134,
      "vsize": 134,
      "weight": 536,
      "locktime": 0,
      "vin": [
        {
          "coinbase": "04ffff001d015a",
          "sequence": 4294967295
        }
      ],
      "vout": [
        {
          "value": 50.0,
          "n": 0,
          "scriptPubKey": {
            "asm": "0455e9025039b22972e660e10558ec81449ae4ff659a7f09c82ce5595bc804f72bf2b9015e7ea80b560c7226b9d88912626b044e046bd54e01ccc90b530ba684c9 OP_CHECKSIG",
            "desc": "pk(0455e9025039b22972e660e10558ec81449ae4ff659a7f09c82ce5595bc804f72bf2b9015e7ea80b560c7226b9d88912626b044e046bd54e01ccc90b530ba684c9)#syfgts4r",
            "hex": "410455e9025039b22972e660e10558ec81449ae4ff659a7f09c82ce5595bc804f72bf2b9015e7ea80b560c7226b9d88912626b044e046bd54e01ccc90b530ba684c9ac",
            "type": "pubkey"
          }
        }
      ],
      "hex": "01000000010000000000000000000000000000000000000000000000000000000000000000ffffffff0704ffff001d015affffffff0100f2052a0100000043410455e9025039b22972e660e10558ec81449ae4ff659a7f09c82ce5595bc804f72bf2b9015e7ea80b560c7226b9d88912626b044e046bd54e01ccc90b530ba684c9ac00000000"
    }
  ]
}