{
  "hash": "00000000ce6a645a076668ffee89c52a85834cb8b30dff55c76418230601d42a",
  "confirmations": 52019,
  "height": 214,
  "version": 1,
  "versionHex": "00000001",
  "merkleroot": "e483dbbeff3ed483b5cf783fb858dc517b389578d5d7dd64ae760abcd7a0f7c9",
  "time": 1231762662,
  "mediantime": 1231759316,
  "nonce": 3485831977,
  "bits": "1d00ffff",
  "difficulty": 1,
  "chainwork": "000000000000000000000000000000000000000000000000000000d700d700d7",
  "nTx": 1,
  "previousblockhash": "00000000fd69a5ef7d33e19d8eeab6e88f9345fdf3faddb650a988deb876e827",
  "nextblockhash": "000000008be0adfe9b6bd5925ead94276b68a15467c4547e0ba532f5994ca574",
  "strippedsize": 215,
  "size": 215,
  "weight": 860,
  "tx": [
    {
      "txid": "e483dbbeff3ed483b5cf783fb858dc517b389578d5d7dd64ae760abcd7a0f7c9",
      "hash": "e483dbbeff3ed483b5cf783fb858dc517b389578d5d7dd64ae760abcd7a0f7c9",
      "version": 1,
      "size": 134,
      "vsize": 134,
      "weight": 536,
      "locktime": 0,
      "vin": [
        {
          "coinbase": "04ffff001d016d",
          "sequence": 4294967295
        }
      ],
      "vout": [
        {
          "value": 50.0,
          "n": 0,
          "scriptPubKey": {
            "asm": "04e1c1abb151eb6528017ca34a58bd4e4e4dec2124c8723e4d033bdc64fa63f721805ed89053daa03855f3e409c0afb1f802807040691085da303766bd6c009d07 OP_CHECKSIG",
            "desc": "pk(04e1c1abb151eb6528017ca34a58bd4e4e4dec2124c8723e4d033bdc64fa63f721805ed89053daa03855f3e409c0afb1f802807040691085da303766bd6c009d07)#pwg223ll",
            "hex": "4104e1c1abb151eb6528017ca34a58bd4e4e4dec2124c8723e4d033bdc64fa63f721805ed89053daa03855f3e409c0afb1f802807040691085da303766bd6c009d07ac",
            "type": "pubkey"
          }
        }
      ],
      "hex": "01000000010000000000000000000000000000000000000000000000000000000000000000ffffffff0704ffff001d016dffffffff0100f2052a01000000434104e1c1abb151eb6528017ca34a58bd4e4e4dec2124c8723e4d033bdc64fa63f721805ed89053daa03855f3e409c0afb1f802807040691085da303766bd6c009d07ac00000000"
    }
  ]
}