{
  "hash": "0000000043bff1faa49efadb95802ce0c1c4c197efceb59c5b40d4ae05fa5c22",
  "confirmations": 43861,
  "height": 9237,
  "version": 1,
  "versionHex": "00000001",
  "merkleroot": "f9295be9a3fd7bd6e5fc25d8c07f24da89f69003271ae6692684fe418168a175",
  "time": 1238424405,
  "mediantime": 1238421953,
  "nonce": 4042551333,
  "bits": "1d00ffff",
  "difficulty": 1,
  "chainwork": "0000000000000000000000000000000000000000000000000000241624162416",
  "nTx": 1,
  "previousblockhash": "000000004a2f243aa49778369cd9c6d1027d9c4609b9b75f1b2fe54c3e19974d",
  "nextblockhash": "000000008efc878599e75f55b28f1d377887e9a342426f4d84a24ef46d10f968",
  "strippedsize": 216,
  "size": 216,
  "weight": 864,
  "tx": [
    {
      "txid": "f9295be9a3fd7bd6e5fc25d8c07f24da89f69003271ae6692684fe418168a175",
      "hash": "f9295be9a3fd7bd6e5fc25d8c07f24da89f69003271ae6692684fe418168a175",
      "version": 1,
      "size": 135,
      "vsize": 135,
      "weight": 540,
      "locktime": 0,
      "vin": [
        {
          "coinbase": "04ffff001d02a600",
          "sequence": 4294967295
        }
      ],
      "vout": [
        {
          "value": 50.0,
          "n": 0,
          "scriptPubKey": {
            "asm": "042b2ee885adc725e3ad5bdeb700fb482738249bc3ecdcee7bf88288af06decb77d3342c2a854047880331732a10573042de4f088f6bc52276b4412f80e419688d OP_CHECKSIG",
            "desc": "pk(042b2ee885adc725e3ad5bdeb700fb482738249bc3ecdcee7bf88288af06decb77d3342c2a854047880331732a10573042de4f088f6bc52276b4412f80e419688d)#rz78vaue",
            "hex": "41042b2ee885adc725e3ad5bdeb700fb482738249bc3ecdcee7bf88288af06decb77d3342c2a854047880331732a10573042de4f088f6bc52276b4412f80e419688dac",
            "type": "pubkey"
          }
        }
      ],
      "hex": "01000000010000000000000000000000000000000000000000000000000000000000000000ffffffff0804ffff001d02a600ffffffff0100f2052a010000004341042b2ee885adc725e3ad5bdeb700fb482738249bc3ecdcee7bf88288af06decb77d3342c2a854047880331732a10573042de4f088f6bc52276b4412f80e419688dac00000000"
    }
  ]
}