{
  "hash": "000000000a2c58c01e09387a9627a789f9ec05fb926724dfdd80b4b27a3a8a6b",
  "confirmations": 52338,
  "height": 760,
  "version": 1,
  "versionHex": "00000001",
  "merkleroot": "b0fd9f6c36a23fb37a0cd82f23767d02e675a5ce5899c21b2c8fa6a81da4b6a8",
  "time": 1232158840,
  "mediantime": 1232155719,
  "nonce": 184806211,
  "bits": "1d00ffff",
  "difficulty": 1,
  "chainwork": "000000000000000000000000000000000000000000000000000002f902f902f9",
  "nTx": 1,
  "previousblockhash": "00000000eaf0da6bac4f877a43261dd151550d4103b4d57f6ece36c143e48a17",
  "nextblockhash": "00000000ad622ab6c0e4c9860075f52949a10f023179e6280bbbf999848f6564",
  "strippedsize": 216,
  "size": 216,
  "weight": 864,
  "tx": [
    {
      "txid": "b0fd9f6c36a23fb37a0cd82f23767d02e675a5ce5899c21b2c8fa6a81da4b6a8",
      "hash": "b0fd9f6c36a23fb37a0cd82f23767d02e675a5ce5899c21b2c8fa6a81da4b6a8",
      "version": 1,
      "size": 135,
      "vsize": 135,
      "weight": 540,
      "locktime": 0,
      "vin": [
        {
          "coinbase": "04ffff001d029700",
          "sequence": 4294967295
        }
      ],
      "vout": [
        {
          "value": 50.0,
          "n": 0,
          "scriptPubKey": {
            "asm": "046cb02c626b589e2657f8d3b54ca9307f2092cfda79cf79fa0a14d838fd6e6aa32ed57b1754e470444da38d67c78d7272554501fccbbb9e247b113dad78317ada OP_CHECKSIG",
            "desc": "pk(046cb02c626b589e2657f8d3b54ca9307f2092cfda79cf79fa0a14d838fd6e6aa32ed57b1754e470444da38d67c78d7272554501fccbbb9e247b113dad78317ada)#mvqvvzky",
            "hex": "41046cb02c626b589e2657f8d3b54ca9307f2092cfda79cf79fa0a14d838fd6e6aa32ed57b1754e470444da38d67c78d7272554501fccbbb9e247b113dad78317adaac",
            "type": "pubkey"
          }
        }
      ],
      "hex": "01000000010000000000000000000000000000000000000000000000000000000000000000ffffffff0804ffff001d029700ffffffff0100f2052a010000004341046cb02c626b589e2657f8d3b54ca9307f2092cfda79cf79fa0a14d838fd6e6aa32ed57b1754e470444da38d67c78d7272554501fccbbb9e247b113dad78317adaac00000000"
    }
  ]
}