{
  "hash": "0000000065af049a9fa93cea542046013d314e698055304d998bf89318f05c10",
  "confirmations": 44317,
  "height": 8781,
  "version": 1,
  "versionHex": "00000001",
  "merkleroot": "14856292cda74d16ff90ff127901c779c6947c3c132fcb237e93c297870e16c5",
  "time": 1238086250,
  "mediantime": 1238082267,
  "nonce": 1105262633,
  "bits": "1d00ffff",
  "difficulty": 1,
  "chainwork": "0000000000000000000000000000000000000000000000000000224e224e224e",
  "nTx": 1,
  "previousblockhash": "0000000040fe84dbc9264b107e16edea8538b4ce2066932823d3388d30983ca0",
  "nextblockhash": "00000000dcf1089633847a7371f5b84f20ddee3587884f0f0a96319d965d997e",
  "strippedsize": 216,
  "size": 216,
  "weight": 864,
  "tx": [
    {
      "txid": "14856292cda74d16ff90ff127901c779c6947c3c132fcb237e93c297870e16c5",
      "hash": "14856292cda74d16ff90ff127901c779c6947c3c132fcb237e93c297870e16c5",
      "version": 1,
      "size": 135,
      "vsize": 135,
      "weight": 540,
      "locktime": 0,
      "vin": [
        {
          "coinbase": "04ffff001d023f02",
          "sequence": 4294967295
        }
      ],
      "vout": [
        {
          "value": 50.0,
          "n": 0,
          "scriptPubKey": {
            "asm": "0408b9bcb373ed4e40bd39eee9e958a048c625d6291f58282882f2943f85873613b0990fdcf5fcbd8ee23a4c54554852a7dae84244a84d75371a2c8d5bf425e818 OP_CHECKSIG",
            "desc": "pk(0408b9bcb373ed4e40bd39eee9e958a048c625d6291f58282882f2943f85873613b0990fdcf5fcbd8ee23a4c54554852a7dae84244a84d75371a2c8d5bf425e818)#k3759a90",
            "hex": "410408b9bcb373ed4e40bd39eee9e958a048c625d6291f58282882f2943f85873613b0990fdcf5fcbd8ee23a4c54554852a7dae84244a84d75371a2c8d5bf425e818ac",
            "type": "pubkey"
          }
        }
      ],
      "hex": "01000000010000000000000000000000000000000000000000000000000000000000000000ffffffff0804ffff001d023f02ffffffff0100f2052a0100000043410408b9bcb373ed4e40bd39eee9e958a048c625d6291f58282882f2943f85873613b0990fdcf5fcbd8ee23a4c54554852a7dae84244a84d75371a2c8d5bf425e818ac00000000"
    }
  ]
}