{
  "hash": "00000000706dac7112e7cabbba1e37f5c5d03999ea1de530e9a9dd2c87abefc6",
  "confirmations": 50710,
  "height": 2388,
  "version": 1,
  "versionHex": "00000001",
  "merkleroot": "3d9ee342bd0c0a1239385731f280e36961ccd29e70bbbfbb4c4028c077cc0635",
  "time": 1233344703,
  "mediantime": 1233340696,
  "nonce": 1875817272,
  "bits": "1d00ffff",
  "difficulty": 1,
  "chainwork": "0000000000000000000000000000000000000000000000000000095509550955",
  "nTx": 1,
  "previousblockhash": "00000000785145f0ad2fe66882aabdfb6f2f38259394c32167bc40576c96aa6c",
  "nextblockhash": "000000004ae594ed6a8e3d5bb333720d81107e41bc72cdf515d451565d084af3",
  "strippedsize": 216,
  "size": 216,
  "weight": 864,
  "tx": [
    {
      "txid": "3d9ee342bd0c0a1239385731f280e36961ccd29e70bbbfbb4c4028c077cc0635",
      "hash": "3d9ee342bd0c0a1239385731f280e36961ccd29e70bbbfbb4c4028c077cc0635",
      "version": 1,
      "size": 135,
      "vsize": 135,
      "weight": 540,
      "locktime": 0,
      "vin": [
        {
          "coinbase": "04ffff001d026c03",
          "sequence": 4294967295
        }
      ],
      "vout": [
        {
          "value": 50.0,
          "n": 0,
          "scriptPubKey": {
            "asm": "045276408590f3b728900c784010f7612c58189d92a872440788c0eff71c9147bcea71429014396d29146ceffdb652458bead969bca23ac90d636fec8c61cb7fc7 OP_CHECKSIG",
            "desc": "pk(045276408590f3b728900c784010f7612c58189d92a872440788c0eff71c9147bcea71429014396d29146ceffdb652458bead969bca23ac90d636fec8c61cb7fc7)#94la7597",
            "hex": "41045276408590f3b728900c784010f7612c58189d92a872440788c0eff71c9147bcea71429014396d29146ceffdb652458bead969bca23ac90d636fec8c61cb7fc7ac",
            "type": "pubkey"
          }
        }
      ],
      "hex": "01000000010000000000000000000000000000000000000000000000000000000000000000ffffffff0804ffff001d026c03ffffffff0100f2052a010000004341045276408590f3b728900c784010f7612c58189d92a872440788c0eff71c9147bcea71429014396d29146ceffdb652458bead969bca23ac90d636fec8c61cb7fc7ac00000000"
    }
  ]
}