{
  "hash": "00000000ccedf7fbd87f8fe96dd1dcd7f200c071622d08c0ffebbb8cdf96f40a",
  "confirmations": 49853,
  "height": 3245,
  "version": 1,
  "versionHex": "00000001",
  "merkleroot": "113cb8b56a8c6efac46ee609bbdfa4d3ab9cd16ae79e373806546efbb7e69f8b",
  "time": 1233933150,
  "mediantime": 1233928888,
  "nonce": 533431305,
  "bits": "1d00ffff",
  "difficulty": 1,
  "chainwork": "00000000000000000000000000000000000000000000000000000cae0cae0cae",
  "nTx": 1,
  "previousblockhash": "00000000fecfe7fb2e4ca57b164a0017907ba3d7de895bf9c3ba179ed4412924",
  "nextblockhash": "00000000017d85a68d3c4340d396c0e91c8c691c49e7b0563232f23a39dca6f2",
  "strippedsize": 216,
  "size": 216,
  "weight": 864,
  "tx": [
    {
      "txid": "113cb8b56a8c6efac46ee609bbdfa4d3ab9cd16ae79e373806546efbb7e69f8b",
      "hash": "113cb8b56a8c6efac46ee609bbdfa4d3ab9cd16ae79e373806546efbb7e69f8b",
      "version": 1,
      "size": 135,
      "vsize": 135,
      "weight": 540,
      "locktime": 0,
      "vin": [
        {
          "coinbase": "04ffff001d025003",
          "sequence": 4294967295
        }
      ],
      "vout": [
        {
          "value": 50.0,
          "n": 0,
          "scriptPubKey": {
            "asm": "048cf18521213acb8ca0aa0e363f8fdcaffb99e1436cf01266dc63435b726f26e42931e1dfb9a2b0d79270e92e6dce9553615af49e6ed6da0696e2258168e801fb OP_CHECKSIG",
            "desc": "pk(048cf18521213acb8ca0aa0e363f8fdcaffb99e1436cf01266dc63435b726f26e42931e1dfb9a2b0d79270e92e6dce9553615af49e6ed6da0696e2258168e801fb)#7t5umg8z",
            "hex": "41048cf18521213acb8ca0aa0e363f8fdcaffb99e1436cf01266dc63435b726f26e42931e1dfb9a2b0d79270e92e6dce9553615af49e6ed6da0696e2258168e801fbac",
            "type": "pubkey"
          }
        }
      ],
      "hex": "01000000010000000000000000000000000000000000000000000000000000000000000000ffffffff0804ffff001d025003ffffffff0100f2052a010000004341048cf18521213acb8ca0aa0e363f8fdcaffb99e1436cf01266dc63435b726f26e42931e1dfb9a2b0d79270e92e6dce9553615af49e6ed6da0696e2258168e801fbac00000000"
    }
  ]
}