{
  "hash": "000000008ba08cce0c4845673a55800603a6e24be4c9977bc977fbb359db0078",
  "confirmations": 52508,
  "height": 590,
  "version": 1,
  "versionHex": "00000001",
  "merkleroot": "3716669040f2e8f77eb46581d6e4c03db432e9ad9f8a6db0da4b304cdf7cd022",
  "time": 1232032931,
  "mediantime": 1232028405,
  "nonce": 4205831466,
  "bits": "1d00ffff",
  "difficulty": 1,
  "chainwork": "0000000000000000000000000000000000000000000000000000024f024f024f",
  "nTx": 1,
  "previousblockhash": "00000000b96305605f1eb5ab800024ff3fa260deedf6005e1e3987daa11d3935",
  "nextblockhash": "00000000198281de1916c2918c0dcc9dc38cc2f0cc2a3f6b2347dcd3403e7a8a",
  "strippedsize": 216,
  "size": 216,
  "weight": 864,
  "tx": [
    {
      "txid": "3716669040f2e8f77eb46581d6e4c03db432e9ad9f8a6db0da4b304cdf7cd022",
      "hash": "3716669040f2e8f77eb46581d6e4c03db432e9ad9f8a6db0da4b304cdf7cd022",
      "version": 1,
      "size": 135,
      "vsize": 135,
      "weight": 540,
      "locktime": 0,
      "vin": [
        {
          "coinbase": "04ffff001d028806",
          "sequence": 4294967295
        }
      ],
      "vout": [
        {
          "value": 50.0,
          "n": 0,
          "scriptPubKey": {
            "asm": "04c842ffc1849af9553f27f166a65848f48af665623762abab9f37d49ae791d1b31a2a07585665af4643af9006d808df9d6606ec55f58ece156afde525b6081ccf OP_CHECKSIG",
            "desc": "pk(04c842ffc1849af9553f27f166a65848f48af665623762abab9f37d49ae791d1b31a2a07585665af4643af9006d808df9d6606ec55f58ece156afde525b6081ccf)#63n9rhh0",
            "hex": "4104c842ffc1849af9553f27f166a65848f48af665623762abab9f37d49ae791d1b31a2a07585665af4643af9006d808df9d6606ec55f58ece156afde525b6081ccfac",
            "type": "pubkey"
          }
        }
      ],
      "hex": "01000000010000000000000000000000000000000000000000000000000000000000000000ffffffff0804ffff001d028806ffffffff0100f2052a01000000434104c842ffc1849af9553f27f166a65848f48af665623762abab9f37d49ae791d1b31a2a07585665af4643af9006d808df9d6606ec55f58ece156afde525b6081ccfac00000000"
    }
  ]
}