{
  "hash": "00000000fa7bd3c9977df6a024fcf8df0367f5c953e1bc63b5d34d6db9e2f874",
  "confirmations": 52213,
  "height": 885,
  "version": 1,
  "versionHex": "00000001",
  "merkleroot": "25fa27b01c23b788a67a6f7044076992397b11181ed4577c46d1bf3f91989259",
  "time": 1232262359,
  "mediantime": 1232258441,
  "nonce": 11104432,
  "bits": "1d00ffff",
  "difficulty": 1,
  "chainwork": "0000000000000000000000000000000000000000000000000000037603760376",
  "nTx": 1,
  "previousblockhash": "000000006879ca957a25003148ef00058597c1f09d0099ac51a8ed3b268e72ef",
  "nextblockhash": "000000008f6234fcdefbce28a3b12e5083df353fbdce4bf479ba7e6ba0d1bdee",
  "strippedsize": 216,
  "size": 216,
  "weight": 864,
  "tx": [
    {
      "txid": "25fa27b01c23b788a67a6f7044076992397b11181ed4577c46d1bf3f91989259",
      "hash": "25fa27b01c23b788a67a6f7044076992397b11181ed4577c46d1bf3f91989259",
      "version": 1,
      "size": 135,
      "vsize": 135,
      "weight": 540,
      "locktime": 0,
      "vin": [
        {
          "coinbase": "04ffff001d02b100",
          "sequence": 4294967295
        }
      ],
      "vout": [
        {
          "value": 50.0,
          "n": 0,
          "scriptPubKey": {
            "asm": "040b7c6b566156b908958dbff9341b044d578acd697d934bc4698f772b382306fe15dfd4330366dda91e1d54f5ff9ccc0b53ef76bbb98718ab7823fddf1328b607 OP_CHECKSIG",
            "desc": "pk(040b7c6b566156b908958dbff9341b044d578acd697d934bc4698f772b382306fe15dfd4330366dda91e1d54f5ff9ccc0b53ef76bbb98718ab7823fddf1328b607)#fcfhvw8z",
            "hex": "41040b7c6b566156b908958dbff9341b044d578acd697d934bc4698f772b382306fe15dfd4330366dda91e1d54f5ff9ccc0b53ef76bbb98718ab7823fddf1328b607ac",
            "type": "pubkey"
          }
        }
      ],
      "hex": "01000000010000000000000000000000000000000000000000000000000000000000000000ffffffff0804ffff001d02b100ffffffff0100f2052a010000004341040b7c6b566156b908958dbff9341b044d578acd697d934bc4698f772b382306fe15dfd4330366dda91e1d54f5ff9ccc0b53ef76bbb98718ab7823fddf1328b607ac00000000"
    }
  ]
}