{
  "hash": "000000000b9cb276a6d303d7104c9fb7c92b2c79193196c9e2200ac2c34adf02",
  "confirmations": 47885,
  "height": 5213,
  "version": 1,
  "versionHex": "00000001",
  "merkleroot": "6a7b352ba0e491772d22e0597cfbf8e92d141ead0d0e7b801192ae83125a5d67",
  "time": 1235293602,
  "mediantime": 1235291645,
  "nonce": 37766163,
  "bits": "1d00ffff",
  "difficulty": 1,
  "chainwork": "0000000000000000000000000000000000000000000000000000145e145e145e",
  "nTx": 1,
  "previousblockhash": "00000000db30aefe9e1dd65c55d9bf2d28655f5ba8e557fa19fab50731304b7a",
  "nextblockhash": "00000000fc0835127379eaa4c4592084e5b99b50eef43c96a140a2930fdee654",
  "strippedsize": 216,
  "size": 216,
  "weight": 864,
  "tx": [
    {
      "txid": "6a7b352ba0e491772d22e0597cfbf8e92d141ead0d0e7b801192ae83125a5d67",
      "hash": "6a7b352ba0e491772d22e0597cfbf8e92d141ead0d0e7b801192ae83125a5d67",
      "version": 1,
      "size": 135,
      "vsize": 135,
      "weight": 540,
      "locktime": 0,
      "vin": [
        {
          "coinbase": "04ffff001d021c06",
          "sequence": 4294967295
        }
      ],
      "vout": [
        {
          "value": 50.0,
          "n": 0,
          "scriptPubKey": {
            "asm": "0483600a59a922172fcb4975ef13a6194479ecd3d4c55ffc1278afc2ab2c717c38fb6ad4e06b717a11c55c83880abe839f0c7eeef4081e730bfe8cbd97d06d1776 OP_CHECKSIG",
            "desc": "pk(0483600a59a922172fcb4975ef13a6194479ecd3d4c55ffc1278afc2ab2c717c38fb6ad4e06b717a11c55c83880abe839f0c7eeef4081e730bfe8cbd97d06d1776)#d3t8qzkl",
            "hex": "410483600a59a922172fcb4975ef13a6194479ecd3d4c55ffc1278afc2ab2c717c38fb6ad4e06b717a11c55c83880abe839f0c7eeef4081e730bfe8cbd97d06d1776ac",
            "type": "pubkey"
          }
        }
      ],
      "hex": "01000000010000000000000000000000000000000000000000000000000000000000000000ffffffff0804ffff001d021c06ffffffff0100f2052a0100000043410483600a59a922172fcb4975ef13a6194479ecd3d4c55ffc1278afc2ab2c717c38fb6ad4e06b717a11c55c83880abe839f0c7eeef4081e730bfe8cbd97d06d1776ac00000000"
    }
  ]
}