{
  "hash": "00000000fff0728c5da1548b4f15576aa272f0f4952031ae56a5be355310ba0a",
  "confirmations": 51794,
  "height": 1304,
  "version": 1,
  "versionHex": "00000001",
  "merkleroot": "1e5429372cd8858498239ee8ab20fe753256040ae0e4c7713058cb508fa07db2",
  "time": 1232597716,
  "mediantime": 1232592232,
  "nonce": 1463587117,
  "bits": "1d00ffff",
  "difficulty": 1,
  "chainwork": "0000000000000000000000000000000000000000000000000000051905190519",
  "nTx": 1,
  "previousblockhash": "0000000005e9519fba6e06d401e872c45d1f79e621e6f2a18a4923da1d3be42d",
  "nextblockhash": "00000000e6671c8e142a9782009c7962049a5fda8cc46c39156541fc8157b78e",
  "strippedsize": 215,
  "size": 215,
  "weight": 860,
  "tx": [
    {
      "txid": "1e5429372cd8858498239ee8ab20fe753256040ae0e4c7713058cb508fa07db2",
      "hash": "1e5429372cd8858498239ee8ab20fe753256040ae0e4c7713058cb508fa07db2",
      "version": 1,
      "size": 134,
      "vsize": 134,
      "weight": 536,
      "locktime": 0,
      "vin": [
        {
          "coinbase": "04ffff001d012f",
          "sequence": 4294967295
        }
      ],
      "vout": [
        {
          "value": 50.0,
          "n": 0,
          "scriptPubKey": {
            "asm": "04ec83fac61bfd7b3562e7d9b2be209e9f09ba9d2c106e98f152c48d4bf94510c69a63e70cd0fef7c1198dc1a4916dca4e0994ff1f133aacbb7d45f14928169b76 OP_CHECKSIG",
            "desc": "pk(04ec83fac61bfd7b3562e7d9b2be209e9f09ba9d2c106e98f152c48d4bf94510c69a63e70cd0fef7c1198dc1a4916dca4e0994ff1f133aacbb7d45f14928169b76)#t96m6ayf",
            "hex": "4104ec83fac61bfd7b3562e7d9b2be209e9f09ba9d2c106e98f152c48d4bf94510c69a63e70cd0fef7c1198dc1a4916dca4e0994ff1f133aacbb7d45f14928169b76ac",
            "type": "pubkey"
          }
        }
      ],
      "hex": "01000000010000000000000000000000000000000000000000000000000000000000000000ffffffff0704ffff001d012fffffffff0100f2052a01000000434104ec83fac61bfd7b3562e7d9b2be209e9f09ba9d2c106e98f152c48d4bf94510c69a63e70cd0fef7c1198dc1a4916dca4e0994ff1f133aacbb7d45f14928169b76ac00000000"
    }
  ]
}