{
  "hash": "00000000f8aead2bc4e12845ef4ca3467f49d01a1a8cdbb01302c9462feeef63",
  "confirmations": 46400,
  "height": 6698,
  "version": 1,
  "versionHex": "00000001",
  "merkleroot": "c08c6555bef506322986d95b5956a2d2a68888e4548e406a5f4ccde9e56a7362",
  "time": 1236481752,
  "mediantime": 1236478524,
  "nonce": 2002343480,
  "bits": "1d00ffff",
  "difficulty": 1,
  "chainwork": "00000000000000000000000000000000000000000000000000001a2b1a2b1a2b",
  "nTx": 1,
  "previousblockhash": "000000006b7195baee156676bbdd2ac7df813bae4a3a73e7e1583a9526ba6762",
  "nextblockhash": "000000007685a480254e11edaa377568317f4d8af0b1cd91f27d04d4f0cbfce8",
  "strippedsize": 216,
  "size": 216,
  "weight": 864,
  "tx": [
    {
      "txid": "c08c6555bef506322986d95b5956a2d2a68888e4548e406a5f4ccde9e56a7362",
      "hash": "c08c6555bef506322986d95b5956a2d2a68888e4548e406a5f4ccde9e56a7362",
      "version": 1,
      "size": 135,
      "vsize": 135,
      "weight": 540,
      "locktime": 0,
      "vin": [
        {
          "coinbase": "04ffff001d02e406",
          "sequence": 4294967295
        }
      ],
      "vout": [
        {
          "value": 50.0,
          "n": 0,
          "scriptPubKey": {
            "asm": "04f5c2ba39500aaeb8b6ef2b68c6f7de04e36e7856416e454062da030788f04a9805b5195a9ef860f61526751e87cc041a1a69b65e2c8abc5189bbbd271cb2cadb OP_CHECKSIG",
            "desc": "pk(04f5c2ba39500aaeb8b6ef2b68c6f7de04e36e7856416e454062da030788f04a9805b5195a9ef860f61526751e87cc041a1a69b65e2c8abc5189bbbd271cb2cadb)#n8pqz0fm",
            "hex": "4104f5c2ba39500aaeb8b6ef2b68c6f7de04e36e7856416e454062da030788f04a9805b5195a9ef860f61526751e87cc041a1a69b65e2c8abc5189bbbd271cb2cadbac",
            "type": "pubkey"
          }
        }
      ],
      "hex": "01000000010000000000000000000000000000000000000000000000000000000000000000ffffffff0804ffff001d02e406ffffffff0100f2052a01000000434104f5c2ba39500aaeb8b6ef2b68c6f7de04e36e7856416e454062da030788f04a9805b5195a9ef860f61526751e87cc041a1a69b65e2c8abc5189bbbd271cb2cadbac00000000"
    }
  ]
}