{
  "hash": "000000004ae42a08f18ecfb1ce1092cf3c6834be290c0ea1096be8a1625c9187",
  "confirmations": 45764,
  "height": 7334,
  "version": 1,
  "versionHex": "00000001",
  "merkleroot": "eeb2d9975e6fb526e33bac83789d9dea03d2694db54f02149ce11fa3fb8a90a0",
  "time": 1236973719,
  "mediantime": 1236969536,
  "nonce": 25693512,
  "bits": "1d00ffff",
  "difficulty": 1,
  "chainwork": "00000000000000000000000000000000000000000000000000001ca71ca71ca7",
  "nTx": 1,
  "previousblockhash": "000000008a487ac5d4af04a5452e7b5f68143eaa0ce93b8cc3984a8cf619e702",
  "nextblockhash": "0000000013c6c49df5be068f2cdb65de63bde211c7ad02e5407ce045843b0ad6",
  "strippedsize": 216,
  "size": 216,
  "weight": 864,
  "tx": [
    {
      "txid": "eeb2d9975e6fb526e33bac83789d9dea03d2694db54f02149ce11fa3fb8a90a0",
      "hash": "eeb2d9975e6fb526e33bac83789d9dea03d2694db54f02149ce11fa3fb8a90a0",
      "version": 1,
      "size": 135,
      "vsize": 135,
      "weight": 540,
      "locktime": 0,
      "vin": [
        {
          "coinbase": "04ffff001d029e00",
          "sequence": 4294967295
        }
      ],
      "vout": [
        {
          "value": 50.0,
          "n": 0,
          "scriptPubKey": {
            "asm": "04038dceda1ecfa5c7942d5116b361e68063f0c421b979273c7b6be4514e4870a82e496bc645d18a89ae112f9feecc89b319e06ff606849a18603ab4cee1acc38d OP_CHECKSIG",
            "desc": "pk(04038dceda1ecfa5c7942d5116b361e68063f0c421b979273c7b6be4514e4870a82e496bc645d18a89ae112f9feecc89b319e06ff606849a18603ab4cee1acc38d)#ksc4hgwa",
            "hex": "4104038dceda1ecfa5c7942d5116b361e68063f0c421b979273c7b6be4514e4870a82e496bc645d18a89ae112f9feecc89b319e06ff606849a18603ab4cee1acc38dac",
            "type": "pubkey"
          }
        }
      ],
      "hex": "01000000010000000000000000000000000000000000000000000000000000000000000000ffffffff0804ffff001d029e00ffffffff0100f2052a01000000434104038dceda1ecfa5c7942d5116b361e68063f0c421b979273c7b6be4514e4870a82e496bc645d18a89ae112f9feecc89b319e06ff606849a18603ab4cee1acc38dac00000000"
    }
  ]
}