{
  "hash": "000000004e1942f8720de40b68b5f52510060a9fed6c3018dd7af62cf78144be",
  "confirmations": 47550,
  "height": 5548,
  "version": 1,
  "versionHex": "00000001",
  "merkleroot": "e92afaa4475ab8cce6c0f4f2e753809f6f9e5cec0f0b198364c41f7f01274638",
  "time": 1235560270,
  "mediantime": 1235556090,
  "nonce": 130804299,
  "bits": "1d00ffff",
  "difficulty": 1,
  "chainwork": "000000000000000000000000000000000000000000000000000015ad15ad15ad",
  "nTx": 1,
  "previousblockhash": "00000000e89fa57610a2194b859ae2ff1d6129399b7f92fcf1e6dd81d0c07c57",
  "nextblockhash": "000000007cd9ac98889d980cff5d6ff741ae977b594ff17bd1795e79ce916ef5",
  "strippedsize": 216,
  "size": 216,
  "weight": 864,
  "tx": [
    {
      "txid": "e92afaa4475ab8cce6c0f4f2e753809f6f9e5cec0f0b198364c41f7f01274638",
      "hash": "e92afaa4475ab8cce6c0f4f2e753809f6f9e5cec0f0b198364c41f7f01274638",
      "version": 1,
      "size": 135,
      "vsize": 135,
      "weight": 540,
      "locktime": 0,
      "vin": [
        {
          "coinbase": "04ffff001d026f07",
          "sequence": 4294967295
        }
      ],
      "vout": [
        {
          "value": 50.0,
          "n": 0,
          "scriptPubKey": {
            "asm": "04979cb017ae51c2157bb1715637ecf57a2cce5f9df91f97ba5d64980cc7c5ba35abf747eb32cde9de7eb3f4f34c5754847c90e08958e2e36eb83b3881528e9130 OP_CHECKSIG",
            "desc": "pk(04979cb017ae51c2157bb1715637ecf57a2cce5f9df91f97ba5d64980cc7c5ba35abf747eb32cde9de7eb3f4f34c5754847c90e08958e2e36eb83b3881528e9130)#wnqrpcuj",
            "hex": "4104979cb017ae51c2157bb1715637ecf57a2cce5f9df91f97ba5d64980cc7c5ba35abf747eb32cde9de7eb3f4f34c5754847c90e08958e2e36eb83b3881528e9130ac",
            "type": "pubkey"
          }
        }
      ],
      "hex": "01000000010000000000000000000000000000000000000000000000000000000000000000ffffffff0804ffff001d026f07ffffffff0100f2052a01000000434104979cb017ae51c2157bb1715637ecf57a2cce5f9df91f97ba5d64980cc7c5ba35abf747eb32cde9de7eb3f4f34c5754847c90e08958e2e36eb83b3881528e9130ac00000000"
    }
  ]
}