{
  "hash": "000000006d923baf1f3bcdd7d9fa3e71b81535bd1ce036477fc3ec4a9ebe0387",
  "confirmations": 43488,
  "height": 9610,
  "version": 1,
  "versionHex": "00000001",
  "merkleroot": "3418a8ec9614fc5d50969afc4e1171bb198bb1045c7da6c6d199721372c2f67a",
  "time": 1238708124,
  "mediantime": 1238705173,
  "nonce": 4046841137,
  "bits": "1d00ffff",
  "difficulty": 1,
  "chainwork": "0000000000000000000000000000000000000000000000000000258b258b258b",
  "nTx": 1,
  "previousblockhash": "00000000fc7ab2ee2900e9053f4ab643b11a7dff589858f6a7c9b8e7bcfb81d2",
  "nextblockhash": "00000000f7d48cdd73194d30ccda0b832133684b1db41353450c295fe7ae7112",
  "strippedsize": 216,
  "size": 216,
  "weight": 864,
  "tx": [
    {
      "txid": "3418a8ec9614fc5d50969afc4e1171bb198bb1045c7da6c6d199721372c2f67a",
      "hash": "3418a8ec9614fc5d50969afc4e1171bb198bb1045c7da6c6d199721372c2f67a",
      "version": 1,
      "size": 135,
      "vsize": 135,
      "weight": 540,
      "locktime": 0,
      "vin": [
        {
          "coinbase": "04ffff001d024a07",
          "sequence": 4294967295
        }
      ],
      "vout": [
        {
          "value": 50.0,
          "n": 0,
          "scriptPubKey": {
            "asm": "04c86cff3e113aaca13d3e3986e74f36213394b0f5da9619689c2d18fdd4efefb1e9611e63ffe596971c7b9e6b8362ab17aa9b6f3323bf82af96098291c9bc7b41 OP_CHECKSIG",
            "desc": "pk(04c86cff3e113aaca13d3e3986e74f36213394b0f5da9619689c2d18fdd4efefb1e9611e63ffe596971c7b9e6b8362ab17aa9b6f3323bf82af96098291c9bc7b41)#skmaclta",
            "hex": "4104c86cff3e113aaca13d3e3986e74f36213394b0f5da9619689c2d18fdd4efefb1e9611e63ffe596971c7b9e6b8362ab17aa9b6f3323bf82af96098291c9bc7b41ac",
            "type": "pubkey"
          }
        }
      ],
      "hex": "01000000010000000000000000000000000000000000000000000000000000000000000000ffffffff0804ffff001d024a07ffffffff0100f2052a01000000434104c86cff3e113aaca13d3e3986e74f36213394b0f5da9619689c2d18fdd4efefb1e9611e63ffe596971c7b9e6b8362ab17aa9b6f3323bf82af96098291c9bc7b41ac00000000"
    }
  ]
}