{
  "hash": "00000000be64a3fbf13da1507fbaf05763df31306d5a5650c2e841272d077774",
  "confirmations": 47494,
  "height": 5604,
  "version": 1,
  "versionHex": "00000001",
  "merkleroot": "aeb7c84163af7a28e3094d08972fab10ab646f641afd51fbe4f68f898261ab72",
  "time": 1235607906,
  "mediantime": 1235601917,
  "nonce": 3330501915,
  "bits": "1d00ffff",
  "difficulty": 1,
  "chainwork": "000000000000000000000000000000000000000000000000000015e515e515e5",
  "nTx": 1,
  "previousblockhash": "00000000e385882d51277d4d761613f0442b29c8725ab8a77b5306cc34fb5419",
  "nextblockhash": "0000000060817ef9a8e80134b432ebfd7ae68b0e02f426e828ff2ecefadca7c7",
  "strippedsize": 216,
  "size": 216,
  "weight": 864,
  "tx": [
    {
      "txid": "aeb7c84163af7a28e3094d08972fab10ab646f641afd51fbe4f68f898261ab72",
      "hash": "aeb7c84163af7a28e3094d08972fab10ab646f641afd51fbe4f68f898261ab72",
      "version": 1,
      "size": 135,
      "vsize": 135,
      "weight": 540,
      "locktime": 0,
      "vin": [
        {
          "coinbase": "04ffff001d02b707",
          "sequence": 4294967295
        }
      ],
      "vout": [
        {
          "value": 50.0,
          "n": 0,
          "scriptPubKey": {
            "asm": "0432493f96606b7ec689a64e1b23783c7838e0ddf09b6d66c710286b5aaaa1c2b8c66ad416b1749c1fc2fd3ecdb3fcf8339a5cef4d509732a3d85924b3ef498ca2 OP_CHECKSIG",
            "desc": "pk(0432493f96606b7ec689a64e1b23783c7838e0ddf09b6d66c710286b5aaaa1c2b8c66ad416b1749c1fc2fd3ecdb3fcf8339a5cef4d509732a3d85924b3ef498ca2)#ha5cy8e8",
            "hex": "410432493f96606b7ec689a64e1b23783c7838e0ddf09b6d66c710286b5aaaa1c2b8c66ad416b1749c1fc2fd3ecdb3fcf8339a5cef4d509732a3d85924b3ef498ca2ac",
            "type": "pubkey"
          }
        }
      ],
      "hex": "01000000010000000000000000000000000000000000000000000000000000000000000000ffffffff0804ffff001d02b707ffffffff0100f2052a0100000043410432493f96606b7ec689a64e1b23783c7838e0ddf09b6d66c710286b5aaaa1c2b8c66ad416b1749c1fc2fd3ecdb3fcf8339a5cef4d509732a3d85924b3ef498ca2ac00000000"
    }
  ]
}