{
  "hash": "0000000076fefd20ace103c5c6d9335c61a563d0ed5ee08b3ccdeaf0bcd6aba0",
  "confirmations": 49988,
  "height": 3110,
  "version": 1,
  "versionHex": "00000001",
  "merkleroot": "dd25c0e5c0464ee0ccfcb8e6188bc94cab7280dda8e122774b710ba587586afc",
  "time": 1233842808,
  "mediantime": 1233839042,
  "nonce": 227730433,
  "bits": "1d00ffff",
  "difficulty": 1,
  "chainwork": "00000000000000000000000000000000000000000000000000000c270c270c27",
  "nTx": 1,
  "previousblockhash": "000000001e146282060620f817e7665d9a815b2ea955d1de5e0cc7061592ee2b",
  "nextblockhash": "000000003f8cb6e7f27e15898b7b60bb3a7f315ac224ed918ba5f40273b59581",
  "strippedsize": 216,
  "size": 216,
  "weight": 864,
  "tx": [
    {
      "txid": "dd25c0e5c0464ee0ccfcb8e6188bc94cab7280dda8e122774b710ba587586afc",
      "hash": "dd25c0e5c0464ee0ccfcb8e6188bc94cab7280dda8e122774b710ba587586afc",
      "version": 1,
      "size": 135,
      "vsize": 135,
      "weight": 540,
      "locktime": 0,
      "vin": [
        {
          "coinbase": "04ffff001d025e01",
          "sequence": 4294967295
        }
      ],
      "vout": [
        {
          "value": 50.0,
          "n": 0,
          "scriptPubKey": {
            "asm": "048fb5bd91f0941ad620b220ab2dcd40a94a193cbd9833abde72c7afa7efd544182710ddc3cc5720a02c64437102e56198d567bcb83de185c1fb5065298cf3771d OP_CHECKSIG",
            "desc": "pk(048fb5bd91f0941ad620b220ab2dcd40a94a193cbd9833abde72c7afa7efd544182710ddc3cc5720a02c64437102e56198d567bcb83de185c1fb5065298cf3771d)#7djac3n2",
            "hex": "41048fb5bd91f0941ad620b220ab2dcd40a94a193cbd9833abde72c7afa7efd544182710ddc3cc5720a02c64437102e56198d567bcb83de185c1fb5065298cf3771dac",
            "type": "pubkey"
          }
        }
      ],
      "hex": "01000000010000000000000000000000000000000000000000000000000000000000000000ffffffff0804ffff001d025e01ffffffff0100f2052a010000004341048fb5bd91f0941ad620b220ab2dcd40a94a193cbd9833abde72c7afa7efd544182710ddc3cc5720a02c64437102e56198d567bcb83de185c1fb5065298cf3771dac00000000"
    }
  ]
}