{
  "hash": "00000000476eb44a1d215dc310bce95ab5e889d77201cf2160ff2ba0482eaddf",
  "confirmations": 44175,
  "height": 8923,
  "version": 1,
  "versionHex": "00000001",
  "merkleroot": "57018cf372d8624720d0adca6a5b2c92520666e4c4b5b30eafe68fbe135680f7",
  "time": 1238196643,
  "mediantime": 1238194620,
  "nonce": 1080998448,
  "bits": "1d00ffff",
  "difficulty": 1,
  "chainwork": "000000000000000000000000000000000000000000000000000022dc22dc22dc",
  "nTx": 1,
  "previousblockhash": "00000000c321b9e5f79ab15effb6aaeb533a14de0ad16d0bd946bb5f57d694ec",
  "nextblockhash": "000000009bc048e19006c823c0e3df7d78f107b6a4724168af82cedc17128c01",
  "strippedsize": 216,
  "size": 216,
  "weight": 864,
  "tx": [
    {
      "txid": "57018cf372d8624720d0adca6a5b2c92520666e4c4b5b30eafe68fbe135680f7",
      "hash": "57018cf372d8624720d0adca6a5b2c92520666e4c4b5b30eafe68fbe135680f7",
      "version": 1,
      "size": 135,
      "vsize": 135,
      "weight": 540,
      "locktime": 0,
      "vin": [
        {
          "coinbase": "04ffff001d020805",
          "sequence": 4294967295
        }
      ],
      "vout": [
        {
          "value": 50.0,
          "n": 0,
          "scriptPubKey": {
            "asm": "047f6de021a2c3b6ec1c5478b93236bdc4a2124928b5cffa2402e67d5873a917a9e9faccea290054aa96620fce5419adae4026a8b5ec745d46f78991b20d40de34 OP_CHECKSIG",
            "desc": "pk(047f6de021a2c3b6ec1c5478b93236bdc4a2124928b5cffa2402e67d5873a917a9e9faccea290054aa96620fce5419adae4026a8b5ec745d46f78991b20d40de34)#3tkehykj",
            "hex": "41047f6de021a2c3b6ec1c5478b93236bdc4a2124928b5cffa2402e67d5873a917a9e9faccea290054aa96620fce5419adae4026a8b5ec745d46f78991b20d40de34ac",
            "type": "pubkey"
          }
        }
      ],
      "hex": "01000000010000000000000000000000000000000000000000000000000000000000000000ffffffff0804ffff001d020805ffffffff0100f2052a010000004341047f6de021a2c3b6ec1c5478b93236bdc4a2124928b5cffa2402e67d5873a917a9e9faccea290054aa96620fce5419adae4026a8b5ec745d46f78991b20d40de34ac00000000"
    }
  ]
}