{
  "hash": "0000000055de2bdd1f0559d1bf14e732bb1fee341367d096d410d70daf792e55",
  "confirmations": 44825,
  "height": 8273,
  "version": 1,
  "versionHex": "00000001",
  "merkleroot": "c802fae0b59e974e3b155f08bef5ac229111e84400be381323d44d7d3085a1b6",
  "time": 1237714854,
  "mediantime": 1237711624,
  "nonce": 1841176326,
  "bits": "1d00ffff",
  "difficulty": 1,
  "chainwork": "0000000000000000000000000000000000000000000000000000205220522052",
  "nTx": 1,
  "previousblockhash": "000000001ff450da45e13d764bf5073e00349bd2741cc4241300dcb1eca94037",
  "nextblockhash": "00000000522cb4cd482ce40f8014cb519990ddb89a47f5cd4b58e9cee1f4c586",
  "strippedsize": 216,
  "size": 216,
  "weight": 864,
  "tx": [
    {
      "txid": "c802fae0b59e974e3b155f08bef5ac229111e84400be381323d44d7d3085a1b6",
      "hash": "c802fae0b59e974e3b155f08bef5ac229111e84400be381323d44d7d3085a1b6",
      "version": 1,
      "size": 135,
      "vsize": 135,
      "weight": 540,
      "locktime": 0,
      "vin": [
        {
          "coinbase": "04ffff001d02da03",
          "sequence": 4294967295
        }
      ],
      "vout": [
        {
          "value": 50.0,
          "n": 0,
          "scriptPubKey": {
            "asm": "049cbe369a392262cb9ec1d6403a7c84f3bbb790bc41f9aca82c616fa094ec5a4160d6fd28007afd161b5270e8ed0d95c3f09d8339c569661c0b91ad41e1fa4c33 OP_CHECKSIG",
            "desc": "pk(049cbe369a392262cb9ec1d6403a7c84f3bbb790bc41f9aca82c616fa094ec5a4160d6fd28007afd161b5270e8ed0d95c3f09d8339c569661c0b91ad41e1fa4c33)#fy7lclur",
            "hex": "41049cbe369a392262cb9ec1d6403a7c84f3bbb790bc41f9aca82c616fa094ec5a4160d6fd28007afd161b5270e8ed0d95c3f09d8339c569661c0b91ad41e1fa4c33ac",
            "type": "pubkey"
          }
        }
      ],
      "hex": "01000000010000000000000000000000000000000000000000000000000000000000000000ffffffff0804ffff001d02da03ffffffff0100f2052a010000004341049cbe369a392262cb9ec1d6403a7c84f3bbb790bc41f9aca82c616fa094ec5a4160d6fd28007afd161b5270e8ed0d95c3f09d8339c569661c0b91ad41e1fa4c33ac00000000"
    }
  ]
}