{
  "hash": "000000001fa8db1f15a9abd900cce0df7823a8397f2728b1d275e8fe0c0d2df0",
  "confirmations": 51958,
  "height": 94,
  "version": 1,
  "versionHex": "00000001",
  "merkleroot": "3226a75aaf23565ab1f4b4d3cf7f945e188b1ef35d14bba50bd3ee05df985490",
  "time": 1231655581,
  "mediantime": 1231653209,
  "nonce": 1923907113,
  "bits": "1d00ffff",
  "difficulty": 1,
  "chainwork": "0000000000000000000000000000000000000000000000000000005f005f005f",
  "nTx": 1,
  "previousblockhash": "0000000069babcb34cc43c80e1c43d423a70821c740193a8265d3edc204ce4f0",
  "nextblockhash": "0000000021a406d58deeb398942e3c6cf956295fc11b192935c453c7d80be1ca",
  "strippedsize": 215,
  "size": 215,
  "weight": 860,
  "tx": [
    {
      "txid": "3226a75aaf23565ab1f4b4d3cf7f945e188b1ef35d14bba50bd3ee05df985490",
      "hash": "3226a75aaf23565ab1f4b4d3cf7f945e188b1ef35d14bba50bd3ee05df985490",
      "version": 1,
      "size": 134,
      "vsize": 134,
      "weight": 536,
      "locktime": 0,
      "vin": [
        {
          "coinbase": "04ffff001d0132",
          "sequence": 4294967295
        }
      ],
      "vout": [
        {
          "value": 50.0,
          "n": 0,
          "scriptPubKey": {
            "asm": "04c50039dc8f8f4878f3d56d88befef5d7a1a1baebac823518dbbd06d36accfa7f28486ea8f6af26a18b3ab415273e1000ea213c53a82f78767347f1a72e69fd66 OP_CHECKSIG",
            "desc": "pk(04c50039dc8f8f4878f3d56d88befef5d7a1a1baebac823518dbbd06d36accfa7f28486ea8f6af26a18b3ab415273e1000ea213c53a82f78767347f1a72e69fd66)#96h55k5r",
            "hex": "4104c50039dc8f8f4878f3d56d88befef5d7a1a1baebac823518dbbd06d36accfa7f28486ea8f6af26a18b3ab415273e1000ea213c53a82f78767347f1a72e69fd66ac",
            "type": "pubkey"
          }
        }
      ],
      "hex": "01000000010000000000000000000000000000000000000000000000000000000000000000ffffffff0704ffff001d0132ffffffff0100f2052a01000000434104c50039dc8f8f4878f3d56d88befef5d7a1a1baebac823518dbbd06d36accfa7f28486ea8f6af26a18b3ab415273e1000ea213c53a82f78767347f1a72e69fd66ac00000000"
    }
  ]
}