{
  "hash": "0000000018d2323a1ecf127e68846085fb9036f85cbe9117ca4a69f1a9312490",
  "confirmations": 47672,
  "height": 5426,
  "version": 1,
  "versionHex": "00000001",
  "merkleroot": "d12e51bd7d1e71a77c8d2b7b456c8e6ba0788fa33a9555f4a692bb62cbb181ae",
  "time": 1235461712,
  "mediantime": 1235456544,
  "nonce": 2332684336,
  "bits": "1d00ffff",
  "difficulty": 1,
  "chainwork": "0000000000000000000000000000000000000000000000000000153315331533",
  "nTx": 1,
  "previousblockhash": "00000000b1864af6e54979ec7a500cda079fec0f7c8837b610ca7fc4bd8f75f8",
  "nextblockhash": "00000000288877a515fa6e40b3f257a4821773d47f235ea6f5c2105140ace81d",
  "strippedsize": 216,
  "size": 216,
  "weight": 864,
  "tx": [
    {
      "txid": "d12e51bd7d1e71a77c8d2b7b456c8e6ba0788fa33a9555f4a692bb62cbb181ae",
      "hash": "d12e51bd7d1e71a77c8d2b7b456c8e6ba0788fa33a9555f4a692bb62cbb181ae",
      "version": 1,
      "size": 135,
      "vsize": 135,
      "weight": 540,
      "locktime": 0,
      "vin": [
        {
          "coinbase": "04ffff001d020e04",
          "sequence": 4294967295
        }
      ],
      "vout": [
        {
          "value": 50.0,
          "n": 0,
          "scriptPubKey": {
            "asm": "04eb8fc595d5e353b40b092065ae2134b760170fe90c1d4a1dd2bc213be77e459937721b2bd0150ceb3161216435b48023bdae6473e9f59a1a3c60b261f0b458e9 OP_CHECKSIG",
            "desc": "pk(04eb8fc595d5e353b40b092065ae2134b760170fe90c1d4a1dd2bc213be77e459937721b2bd0150ceb3161216435b48023bdae6473e9f59a1a3c60b261f0b458e9)#7h67vr76",
            "hex": "4104eb8fc595d5e353b40b092065ae2134b760170fe90c1d4a1dd2bc213be77e459937721b2bd0150ceb3161216435b48023bdae6473e9f59a1a3c60b261f0b458e9ac",
            "type": "pubkey"
          }
        }
      ],
      "hex": "01000000010000000000000000000000000000000000000000000000000000000000000000ffffffff0804ffff001d020e04ffffffff0100f2052a01000000434104eb8fc595d5e353b40b092065ae2134b760170fe90c1d4a1dd2bc213be77e459937721b2bd0150ceb3161216435b48023bdae6473e9f59a1a3c60b261f0b458e9ac00000000"
    }
  ]
}