{
  "hash": "000000001ba3e0220bbdd8e7e5ad80e28db57c2ccd798346aac2a0114c8207cb",
  "confirmations": 44239,
  "height": 8859,
  "version": 1,
  "versionHex": "00000001",
  "merkleroot": "6aec38831f911849c138b170d9dff86912141888d37a4d7a864c5286ceb7fd73",
  "time": 1238143136,
  "mediantime": 1238140259,
  "nonce": 2889237799,
  "bits": "1d00ffff",
  "difficulty": 1,
  "chainwork": "0000000000000000000000000000000000000000000000000000229c229c229c",
  "nTx": 1,
  "previousblockhash": "00000000cd66bd84669273514028f8c9eb023995cab7459de85f3e252fa45332",
  "nextblockhash": "0000000057a7e9fdd3568d83a3055f74d3f38934c5da5acb7924a495223915ad",
  "strippedsize": 216,
  "size": 216,
  "weight": 864,
  "tx": [
    {
      "txid": "6aec38831f911849c138b170d9dff86912141888d37a4d7a864c5286ceb7fd73",
      "hash": "6aec38831f911849c138b170d9dff86912141888d37a4d7a864c5286ceb7fd73",
      "version": 1,
      "size": 135,
      "vsize": 135,
      "weight": 540,
      "locktime": 0,
      "vin": [
        {
          "coinbase": "04ffff001d02a603",
          "sequence": 4294967295
        }
      ],
      "vout": [
        {
          "value": 50.0,
          "n": 0,
          "scriptPubKey": {
            "asm": "0424c0e7763b4a94173ccaae6d98bb924fa059fabe3add4d8fd6a0c78bf238307722e01420d6a41536cc28bed99ee6ad478ba28d9ec77748dc97d2dacc8d547108 OP_CHECKSIG",
            "desc": "pk(0424c0e7763b4a94173ccaae6d98bb924fa059fabe3add4d8fd6a0c78bf238307722e01420d6a41536cc28bed99ee6ad478ba28d9ec77748dc97d2dacc8d547108)#y7aaw4wy",
            "hex": "410424c0e7763b4a94173ccaae6d98bb924fa059fabe3add4d8fd6a0c78bf238307722e01420d6a41536cc28bed99ee6ad478ba28d9ec77748dc97d2dacc8d547108ac",
            "type": "pubkey"
          }
        }
      ],
      "hex": "01000000010000000000000000000000000000000000000000000000000000000000000000ffffffff0804ffff001d02a603ffffffff0100f2052a0100000043410424c0e7763b4a94173ccaae6d98bb924fa059fabe3add4d8fd6a0c78bf238307722e01420d6a41536cc28bed99ee6ad478ba28d9ec77748dc97d2dacc8d547108ac00000000"
    }
  ]
}