{
  "hash": "00000000f63adf93c21fde4b58eeb6e1b605e763b542641209563c6f53f18db2",
  "confirmations": 50763,
  "height": 2335,
  "version": 1,
  "versionHex": "00000001",
  "merkleroot": "27bc0c98ec4bc442d9f29b8a1c3bb1f85756f05d4bc590b624e76ce4719e5206",
  "time": 1233304941,
  "mediantime": 1233301391,
  "nonce": 3366022714,
  "bits": "1d00ffff",
  "difficulty": 1,
  "chainwork": "0000000000000000000000000000000000000000000000000000092009200920",
  "nTx": 1,
  "previousblockhash": "00000000005c71ed36bf631dd20841b2745cccb29d620b75f929738dba5d3e96",
  "nextblockhash": "00000000fce4189472e39f5ddb9d08d00b9f4004e2d1e962b93e0e4bdc4e3d7b",
  "strippedsize": 216,
  "size": 216,
  "weight": 864,
  "tx": [
    {
      "txid": "27bc0c98ec4bc442d9f29b8a1c3bb1f85756f05d4bc590b624e76ce4719e5206",
      "hash": "27bc0c98ec4bc442d9f29b8a1c3bb1f85756f05d4bc590b624e76ce4719e5206",
      "version": 1,
      "size": 135,
      "vsize": 135,
      "weight": 540,
      "locktime": 0,
      "vin": [
        {
          "coinbase": "04ffff001d025d02",
          "sequence": 4294967295
        }
      ],
      "vout": [
        {
          "value": 50.0,
          "n": 0,
          "scriptPubKey": {
            "asm": "04b3d083d6d33bacc60b4199e4fe90f645b43e2147cef4c9b1706b429f83bbca1abd3deb7296f5b4dc550d2d5bb410d94d343f6fde092a2171c911315f46400cdb OP_CHECKSIG",
            "desc": "pk(04b3d083d6d33bacc60b4199e4fe90f645b43e2147cef4c9b1706b429f83bbca1abd3deb7296f5b4dc550d2d5bb410d94d343f6fde092a2171c911315f46400cdb)#rcacjcum",
            "hex": "4104b3d083d6d33bacc60b4199e4fe90f645b43e2147cef4c9b1706b429f83bbca1abd3deb7296f5b4dc550d2d5bb410d94d343f6fde092a2171c911315f46400cdbac",
            "type": "pubkey"
          }
        }
      ],
      "hex": "01000000010000000000000000000000000000000000000000000000000000000000000000ffffffff0804ffff001d025d02ffffffff0100f2052a01000000434104b3d083d6d33bacc60b4199e4fe90f645b43e2147cef4c9b1706b429f83bbca1abd3deb7296f5b4dc550d2d5bb410d94d343f6fde092a2171c911315f46400cdbac00000000"
    }
  ]
}