{
  "hash": "00000000723dc61eff2d9e4fa6f20fc298a012c52f8ab76a139a796e2c7a52fa",
  "confirmations": 44056,
  "height": 9042,
  "version": 1,
  "versionHex": "00000001",
  "merkleroot": "b95441ccdc7a3408d3078a79d789ec9d7bd25cafd9b6190deaeca16957c0a474",
  "time": 1238283736,
  "mediantime": 1238279159,
  "nonce": 47950772,
  "bits": "1d00ffff",
  "difficulty": 1,
  "chainwork": "0000000000000000000000000000000000000000000000000000235323532353",
  "nTx": 1,
  "previousblockhash": "00000000543f619afa8d04536090c732999ae11913c11d7192208177faec7321",
  "nextblockhash": "000000000cf3061f468f2160750c6b45f0de38d76fbfe132c735ae851c9996e8",
  "strippedsize": 216,
  "size": 216,
  "weight": 864,
  "tx": [
    {
      "txid": "b95441ccdc7a3408d3078a79d789ec9d7bd25cafd9b6190deaeca16957c0a474",
      "hash": "b95441ccdc7a3408d3078a79d789ec9d7bd25cafd9b6190deaeca16957c0a474",
      "version": 1,
      "size": 135,
      "vsize": 135,
      "weight": 540,
      "locktime": 0,
      "vin": [
        {
          "coinbase": "04ffff001d024b08",
          "sequence": 4294967295
        }
      ],
      "vout": [
        {
          "value": 50.0,
          "n": 0,
          "scriptPubKey": {
            "asm": "043164f9a560f5891991927373f6d79758b34b66f37fadb48620e2a3c14ded021510f7489f958fa50ce6304c8a37da279479899f90df0ec291cd4b615139adfbc5 OP_CHECKSIG",
            "desc": "pk(043164f9a560f5891991927373f6d79758b34b66f37fadb48620e2a3c14ded021510f7489f958fa50ce6304c8a37da279479899f90df0ec291cd4b615139adfbc5)#25z6ph2s",
            "hex": "41043164f9a560f5891991927373f6d79758b34b66f37fadb48620e2a3c14ded021510f7489f958fa50ce6304c8a37da279479899f90df0ec291cd4b615139adfbc5ac",
            "type": "pubkey"
          }
        }
      ],
      "hex": "01000000010000000000000000000000000000000000000000000000000000000000000000ffffffff0804ffff001d024b08ffffffff0100f2052a010000004341043164f9a560f5891991927373f6d79758b34b66f37fadb48620e2a3c14ded021510f7489f958fa50ce6304c8a37da279479899f90df0ec291cd4b615139adfbc5ac00000000"
    }
  ]
}