{
  "hash": "000000008fa51c71fd3a792199bce2fc2f44a479feb77dd4e7d17b23cb6bf9c5",
  "confirmations": 44991,
  "height": 8107,
  "version": 1,
  "versionHex": "00000001",
  "merkleroot": "08bfe2a3f03528052b3d9e5744ba4ada4c44c11621d86f0edd952705cba23a3e",
  "time": 1237537344,
  "mediantime": 1237533786,
  "nonce": 377480494,
  "bits": "1d00ffff",
  "difficulty": 1,
  "chainwork": "00000000000000000000000000000000000000000000000000001fac1fac1fac",
  "nTx": 1,
  "previousblockhash": "000000001294f7b72e127eca32547dbee91cd78a4ba73be0a4285b2739ffdbdc",
  "nextblockhash": "00000000ca67ee88220fe355b5e4e3d970c00dd5242b280c4511d7cca2bc8d59",
  "strippedsize": 216,
  "size": 216,
  "weight": 864,
  "tx": [
    {
      "txid": "08bfe2a3f03528052b3d9e5744ba4ada4c44c11621d86f0edd952705cba23a3e",
      "hash": "08bfe2a3f03528052b3d9e5744ba4ada4c44c11621d86f0edd952705cba23a3e",
      "version": 1,
      "size": 135,
      "vsize": 135,
      "weight": 540,
      "locktime": 0,
      "vin": [
        {
          "coinbase": "04ffff001d023f01",
          "sequence": 4294967295
        }
      ],
      "vout": [
        {
          "value": 50.0,
          "n": 0,
          "scriptPubKey": {
            "asm": "04a550384e46b7ba392d75e810c60a6eefaf69287138222b27496e8854e09822d016de6575cc50505615aa49967d387c13e4c5ebae1a3b219e0701f5b119fd7620 OP_CHECKSIG",
            "desc": "pk(04a550384e46b7ba392d75e810c60a6eefaf69287138222b27496e8854e09822d016de6575cc50505615aa49967d387c13e4c5ebae1a3b219e0701f5b119fd7620)#fydmy32v",
            "hex": "4104a550384e46b7ba392d75e810c60a6eefaf69287138222b27496e8854e09822d016de6575cc50505615aa49967d387c13e4c5ebae1a3b219e0701f5b119fd7620ac",
            "type": "pubkey"
          }
        }
      ],
      "hex": "01000000010000000000000000000000000000000000000000000000000000000000000000ffffffff0804ffff001d023f01ffffffff0100f2052a01000000434104a550384e46b7ba392d75e810c60a6eefaf69287138222b27496e8854e09822d016de6575cc50505615aa49967d387c13e4c5ebae1a3b219e0701f5b119fd7620ac00000000"
    }
  ]
}