{
  "hash": "00000000c11cd998d8a5b461a50c0a9f64c537374082ae0c2427dd48724a5623",
  "confirmations": 48196,
  "height": 4902,
  "version": 1,
  "versionHex": "00000001",
  "merkleroot": "1c1682bccbbbb77605934632a1473763997f48843488113d69f8bf82f3dcda5b",
  "time": 1235071321,
  "mediantime": 1235068741,
  "nonce": 1991948080,
  "bits": "1d00ffff",
  "difficulty": 1,
  "chainwork": "0000000000000000000000000000000000000000000000000000132713271327",
  "nTx": 1,
  "previousblockhash": "00000000c6303c4a85f581fc12d76a945055d2134c18f7613493d94c972d5133",
  "nextblockhash": "00000000be82eeae362817e100b553d5ceee2437ea28621b1e32aa570898aea0",
  "strippedsize": 216,
  "size": 216,
  "weight": 864,
  "tx": [
    {
      "txid": "1c1682bccbbbb77605934632a1473763997f48843488113d69f8bf82f3dcda5b",
      "hash": "1c1682bccbbbb77605934632a1473763997f48843488113d69f8bf82f3dcda5b",
      "version": 1,
      "size": 135,
      "vsize": 135,
      "weight": 540,
      "locktime": 0,
      "vin": [
        {
          "coinbase": "04ffff001d02a705",
          "sequence": 4294967295
        }
      ],
      "vout": [
        {
          "value": 50.0,
          "n": 0,
          "scriptPubKey": {
            "asm": "04acfbede51902b12f0b1735d2cf000b4520e8994df150fc3b250136f7b658d88b54d433692f7f02f950c85f9da14155aa32c7b996afdfe74442915bd7bc7257eb OP_CHECKSIG",
            "desc": "pk(04acfbede51902b12f0b1735d2cf000b4520e8994df150fc3b250136f7b658d88b54d433692f7f02f950c85f9da14155aa32c7b996afdfe74442915bd7bc7257eb)#f4yd2533",
            "hex": "4104acfbede51902b12f0b1735d2cf000b4520e8994df150fc3b250136f7b658d88b54d433692f7f02f950c85f9da14155aa32c7b996afdfe74442915bd7bc7257ebac",
            "type": "pubkey"
          }
        }
      ],
      "hex": "01000000010000000000000000000000000000000000000000000000000000000000000000ffffffff0804ffff001d02a705ffffffff0100f2052a01000000434104acfbede51902b12f0b1735d2cf000b4520e8994df150fc3b250136f7b658d88b54d433692f7f02f950c85f9da14155aa32c7b996afdfe74442915bd7bc7257ebac00000000"
    }
  ]
}