{
  "hash": "0000000000f2a226a43a012b50da8cad09c1cec43834d14681efa9974e623b85",
  "confirmations": 50011,
  "height": 3087,
  "version": 1,
  "versionHex": "00000001",
  "merkleroot": "33120303497d540be1a0824583ea3d5d442603df5d6ff48b56906c58ae96cfcc",
  "time": 1233823926,
  "mediantime": 1233819556,
  "nonce": 4206810655,
  "bits": "1d00ffff",
  "difficulty": 1,
  "chainwork": "00000000000000000000000000000000000000000000000000000c100c100c10",
  "nTx": 1,
  "previousblockhash": "00000000cbef185e083d66765bd78e563c3b50bd112ca078d500c2292ab7f776",
  "nextblockhash": "000000001c66cf28e4186b2240492bee3c63a2e71ad2deef034b76366f6143de",
  "strippedsize": 216,
  "size": 216,
  "weight": 864,
  "tx": [
    {
      "txid": "33120303497d540be1a0824583ea3d5d442603df5d6ff48b56906c58ae96cfcc",
      "hash": "33120303497d540be1a0824583ea3d5d442603df5d6ff48b56906c58ae96cfcc",
      "version": 1,
      "size": 135,
      "vsize": 135,
      "weight": 540,
      "locktime": 0,
      "vin": [
        {
          "coinbase": "04ffff001d02f700",
          "sequence": 4294967295
        }
      ],
      "vout": [
        {
          "value": 50.0,
          "n": 0,
          "scriptPubKey": {
            "asm": "04a63db176c17d7deb904bcb2903d1d09659d1ab05329b921f8dc5a75e2a214beb8d1f6ea3080e5ab622682bcae022e81237caeafa7b28ff9027cecb6db0803811 OP_CHECKSIG",
            "desc": "pk(04a63db176c17d7deb904bcb2903d1d09659d1ab05329b921f8dc5a75e2a214beb8d1f6ea3080e5ab622682bcae022e81237caeafa7b28ff9027cecb6db0803811)#js729wwh",
            "hex": "4104a63db176c17d7deb904bcb2903d1d09659d1ab05329b921f8dc5a75e2a214beb8d1f6ea3080e5ab622682bcae022e81237caeafa7b28ff9027cecb6db0803811ac",
            "type": "pubkey"
          }
        }
      ],
      "hex": "01000000010000000000000000000000000000000000000000000000000000000000000000ffffffff0804ffff001d02f700ffffffff0100f2052a01000000434104a63db176c17d7deb904bcb2903d1d09659d1ab05329b921f8dc5a75e2a214beb8d1f6ea3080e5ab622682bcae022e81237caeafa7b28ff9027cecb6db0803811ac00000000"
    }
  ]
}