{
  "hash": "00000000dfe0e38f6081da0a6de538fe8643cd25cb7c350e7cf1ce42dda179fe",
  "confirmations": 44088,
  "height": 9010,
  "version": 1,
  "versionHex": "00000001",
  "merkleroot": "7ec13ff52ef8aa651c77be0863c433821cbb6341f3de46c80dffaed4b310323d",
  "time": 1238258613,
  "mediantime": 1238255644,
  "nonce": 103408950,
  "bits": "1d00ffff",
  "difficulty": 1,
  "chainwork": "0000000000000000000000000000000000000000000000000000233323332333",
  "nTx": 1,
  "previousblockhash": "00000000b428c06480f909c7424c17c292c2068b5b52584010aeda8294ca89d3",
  "nextblockhash": "000000003093404f242deed7393adda6cef961644debc2cf14d2a2bf8759bd1d",
  "strippedsize": 216,
  "size": 216,
  "weight": 864,
  "tx": [
    {
      "txid": "7ec13ff52ef8aa651c77be0863c433821cbb6341f3de46c80dffaed4b310323d",
      "hash": "7ec13ff52ef8aa651c77be0863c433821cbb6341f3de46c80dffaed4b310323d",
      "version": 1,
      "size": 135,
      "vsize": 135,
      "weight": 540,
      "locktime": 0,
      "vin": [
        {
          "coinbase": "04ffff001d02f803",
          "sequence": 4294967295
        }
      ],
      "vout": [
        {
          "value": 50.0,
          "n": 0,
          "scriptPubKey": {
            "asm": "04214f6ca3530871bcd6d2ed21462cd46b60bcfd6e9c874d9eada17f2c3210f707153f114dad8d1e12937938bba784647104facd778154b34fedb3001255391f25 OP_CHECKSIG",
            "desc": "pk(04214f6ca3530871bcd6d2ed21462cd46b60bcfd6e9c874d9eada17f2c3210f707153f114dad8d1e12937938bba784647104facd778154b34fedb3001255391f25)#fhfnk4qq",
            "hex": "4104214f6ca3530871bcd6d2ed21462cd46b60bcfd6e9c874d9eada17f2c3210f707153f114dad8d1e12937938bba784647104facd778154b34fedb3001255391f25ac",
            "type": "pubkey"
          }
        }
      ],
      "hex": "01000000010000000000000000000000000000000000000000000000000000000000000000ffffffff0804ffff001d02f803ffffffff0100f2052a01000000434104214f6ca3530871bcd6d2ed21462cd46b60bcfd6e9c874d9eada17f2c3210f707153f114dad8d1e12937938bba784647104facd778154b34fedb3001255391f25ac00000000"
    }
  ]
}