{
  "hash": "00000000901629857911af89940f25968fed60168ecefe3f843ea98ed604032d",
  "confirmations": 52033,
  "height": 1065,
  "version": 1,
  "versionHex": "00000001",
  "merkleroot": "7502aad84a16cf8c468489cf56ff23b71f6b81dd30f8a25ec537ee1e81fc344b",
  "time": 1232398150,
  "mediantime": 1232395715,
  "nonce": 142372379,
  "bits": "1d00ffff",
  "difficulty": 1,
  "chainwork": "0000000000000000000000000000000000000000000000000000042a042a042a",
  "nTx": 1,
  "previousblockhash": "000000005e122b0170381a09ecb22a7bb188a4a20fed31eb7ae5f498872a7d28",
  "nextblockhash": "00000000fecd0d39a38004fd68f750df914176ce5f7096f10d40f92451692b3b",
  "strippedsize": 216,
  "size": 216,
  "weight": 864,
  "tx": [
    {
      "txid": "7502aad84a16cf8c468489cf56ff23b71f6b81dd30f8a25ec537ee1e81fc344b",
      "hash": "7502aad84a16cf8c468489cf56ff23b71f6b81dd30f8a25ec537ee1e81fc344b",
      "version": 1,
      "size": 135,
      "vsize": 135,
      "weight": 540,
      "locktime": 0,
      "vin": [
        {
          "coinbase": "04ffff001d02a301",
          "sequence": 4294967295
        }
      ],
      "vout": [
        {
          "value": 50.0,
          "n": 0,
          "scriptPubKey": {
            "asm": "049258309bdabe14986075e7a7eccdea0e3e5695a5578b56a8eb33dbb92c32f51ae60ce63a161aac236ca3a411e5012e2d5e4674cb056690bc20782194731d0552 OP_CHECKSIG",
            "desc": "pk(049258309bdabe14986075e7a7eccdea0e3e5695a5578b56a8eb33dbb92c32f51ae60ce63a161aac236ca3a411e5012e2d5e4674cb056690bc20782194731d0552)#d8qwg9ks",
            "hex": "41049258309bdabe14986075e7a7eccdea0e3e5695a5578b56a8eb33dbb92c32f51ae60ce63a161aac236ca3a411e5012e2d5e4674cb056690bc20782194731d0552ac",
            "type": "pubkey"
          }
        }
      ],
      "hex": "01000000010000000000000000000000000000000000000000000000000000000000000000ffffffff0804ffff001d02a301ffffffff0100f2052a010000004341049258309bdabe14986075e7a7eccdea0e3e5695a5578b56a8eb33dbb92c32f51ae60ce63a161aac236ca3a411e5012e2d5e4674cb056690bc20782194731d0552ac00000000"
    }
  ]
}