{
  "hash": "000000002dfc22975439a6a353d80a5bd5ae2052f9c6c647640f3b102e2a2eb3",
  "confirmations": 52314,
  "height": 784,
  "version": 1,
  "versionHex": "00000001",
  "merkleroot": "470d7a126a332290d7530fa5ae9c6615b5ad0ea2a2d52c0a80ef536c91632fa7",
  "time": 1232179003,
  "mediantime": 1232173741,
  "nonce": 617441838,
  "bits": "1d00ffff",
  "difficulty": 1,
  "chainwork": "0000000000000000000000000000000000000000000000000000031103110311",
  "nTx": 1,
  "previousblockhash": "000000005ceec93f3dfbdfa1eab28ceac7ad24b73064b3812b73fe6c6be96a55",
  "nextblockhash": "00000000e5fec80c2f953b79ce5b60fbe7473d0fe4fa3dd0895560c9465554b7",
  "strippedsize": 216,
  "size": 216,
  "weight": 864,
  "tx": [
    {
      "txid": "470d7a126a332290d7530fa5ae9c6615b5ad0ea2a2d52c0a80ef536c91632fa7",
      "hash": "470d7a126a332290d7530fa5ae9c6615b5ad0ea2a2d52c0a80ef536c91632fa7",
      "version": 1,
      "size": 135,
      "vsize": 135,
      "weight": 540,
      "locktime": 0,
      "vin": [
        {
          "coinbase": "04ffff001d023d01",
          "sequence": 4294967295
        }
      ],
      "vout": [
        {
          "value": 50.0,
          "n": 0,
          "scriptPubKey": {
            "asm": "04fec416e45177326da9329c0a945bc99324a32cf238adb582118f98ee3e86fe7da1f6d83d00627aac630668ddfaa7ea082594d237c4cfd03ac386e30900fa392d OP_CHECKSIG",
            "desc": "pk(04fec416e45177326da9329c0a945bc99324a32cf238adb582118f98ee3e86fe7da1f6d83d00627aac630668ddfaa7ea082594d237c4cfd03ac386e30900fa392d)#z832rfyd",
            "hex": "4104fec416e45177326da9329c0a945bc99324a32cf238adb582118f98ee3e86fe7da1f6d83d00627aac630668ddfaa7ea082594d237c4cfd03ac386e30900fa392dac",
            "type": "pubkey"
          }
        }
      ],
      "hex": "01000000010000000000000000000000000000000000000000000000000000000000000000ffffffff0804ffff001d023d01ffffffff0100f2052a01000000434104fec416e45177326da9329c0a945bc99324a32cf238adb582118f98ee3e86fe7da1f6d83d00627aac630668ddfaa7ea082594d237c4cfd03ac386e30900fa392dac00000000"
    }
  ]
}