{
  "hash": "00000000776099d8664f85b33208f9af14d271e2552ce812a4b83e0164c9366c",
  "confirmations": 47704,
  "height": 5394,
  "version": 1,
  "versionHex": "00000001",
  "merkleroot": "a6c90d43e737a45c21d2e1ed1d455cafdd43ee705b58b1a3632f3716579d3afa",
  "time": 1235436335,
  "mediantime": 1235431719,
  "nonce": 3958047489,
  "bits": "1d00ffff",
  "difficulty": 1,
  "chainwork": "0000000000000000000000000000000000000000000000000000151315131513",
  "nTx": 1,
  "previousblockhash": "0000000060375e12a4181dadca9dbd5058a632885dfbb74478e8f549c0ecefd3",
  "nextblockhash": "00000000f4e134a52dbead82682207886fe7e02f48370952e4cbed7b7386ac46",
  "strippedsize": 216,
  "size": 216,
  "weight": 864,
  "tx": [
    {
      "txid": "a6c90d43e737a45c21d2e1ed1d455cafdd43ee705b58b1a3632f3716579d3afa",
      "hash": "a6c90d43e737a45c21d2e1ed1d455cafdd43ee705b58b1a3632f3716579d3afa",
      "version": 1,
      "size": 135,
      "vsize": 135,
      "weight": 540,
      "locktime": 0,
      "vin": [
        {
          "coinbase": "04ffff001d029203",
          "sequence": 4294967295
        }
      ],
      "vout": [
        {
          "value": 50.0,
          "n": 0,
          "scriptPubKey": {
            "asm": "04c9aeb3b1aaa63c6e7867235f6998757762a95d517a1a26a61d2067c08d27378596c63778ff91740fd655779068b63894ab979abb2ac7c565f99c462ebcd61b3e OP_CHECKSIG",
            "desc": "pk(04c9aeb3b1aaa63c6e7867235f6998757762a95d517a1a26a61d2067c08d27378596c63778ff91740fd655779068b63894ab979abb2ac7c565f99c462ebcd61b3e)#hdsp7qcd",
            "hex": "4104c9aeb3b1aaa63c6e7867235f6998757762a95d517a1a26a61d2067c08d27378596c63778ff91740fd655779068b63894ab979abb2ac7c565f99c462ebcd61b3eac",
            "type": "pubkey"
          }
        }
      ],
      "hex": "01000000010000000000000000000000000000000000000000000000000000000000000000ffffffff0804ffff001d029203ffffffff0100f2052a01000000434104c9aeb3b1aaa63c6e7867235f6998757762a95d517a1a26a61d2067c08d27378596c63778ff91740fd655779068b63894ab979abb2ac7c565f99c462ebcd61b3eac00000000"
    }
  ]
}