{
  "hash": "0000000070f317aab8c838bc27c8d1e3f825941e793d754746e068f3b9c888b5",
  "confirmations": 51154,
  "height": 1944,
  "version": 1,
  "versionHex": "00000001",
  "merkleroot": "016b39c5aa510fe716eb949999dcbc9dbe7e548e3f17b269116a6db02a66db41",
  "time": 1233002751,
  "mediantime": 1232998139,
  "nonce": 2186396211,
  "bits": "1d00ffff",
  "difficulty": 1,
  "chainwork": "0000000000000000000000000000000000000000000000000000079907990799",
  "nTx": 1,
  "previousblockhash": "0000000073a7feda4907ae58611d677540b946a4e4ca19ec732809d26a064253",
  "nextblockhash": "0000000059ca1017ff6862865f8e3faaa75d57e64b7dd23d223e964bca250cc1",
  "strippedsize": 215,
  "size": 215,
  "weight": 860,
  "tx": [
    {
      "txid": "016b39c5aa510fe716eb949999dcbc9dbe7e548e3f17b269116a6db02a66db41",
      "hash": "016b39c5aa510fe716eb949999dcbc9dbe7e548e3f17b269116a6db02a66db41",
      "version": 1,
      "size": 134,
      "vsize": 134,
      "weight": 536,
      "locktime": 0,
      "vin": [
        {
          "coinbase": "04ffff001d017f",
          "sequence": 4294967295
        }
      ],
      "vout": [
        {
          "value": 50.0,
          "n": 0,
          "scriptPubKey": {
            "asm": "0402af4c259ba3acf279b66906b2daeb901dc19fd27221c38431f4ab010d59741aa5dcd8e8a6dc060c16da12b610be4e3165de0465043f73620fd3d4c831d2fe1b OP_CHECKSIG",
            "desc": "pk(0402af4c259ba3acf279b66906b2daeb901dc19fd27221c38431f4ab010d59741aa5dcd8e8a6dc060c16da12b610be4e3165de0465043f73620fd3d4c831d2fe1b)#qrzda4lr",
            "hex": "410402af4c259ba3acf279b66906b2daeb901dc19fd27221c38431f4ab010d59741aa5dcd8e8a6dc060c16da12b610be4e3165de0465043f73620fd3d4c831d2fe1bac",
            "type": "pubkey"
          }
        }
      ],
      "hex": "01000000010000000000000000000000000000000000000000000000000000000000000000ffffffff0704ffff001d017fffffffff0100f2052a0100000043410402af4c259ba3acf279b66906b2daeb901dc19fd27221c38431f4ab010d59741aa5dcd8e8a6dc060c16da12b610be4e3165de0465043f73620fd3d4c831d2fe1bac00000000"
    }
  ]
}