{
  "hash": "00000000b8e71af6d32ec5db11ecab6c9a2f24c282ab0fd7adee94d8c9d38566",
  "confirmations": 46290,
  "height": 6808,
  "version": 1,
  "versionHex": "00000001",
  "merkleroot": "119e18869fd5d9aba5e935642df1e1911a9fe3871ac05d434ba9df54a5df477d",
  "time": 1236562946,
  "mediantime": 1236560074,
  "nonce": 2339580983,
  "bits": "1d00ffff",
  "difficulty": 1,
  "chainwork": "00000000000000000000000000000000000000000000000000001a991a991a99",
  "nTx": 1,
  "previousblockhash": "00000000e413576d022ccb3c655160b2e201b71791b1f2c7db684ecf9386b3e2",
  "nextblockhash": "000000003c9c8d0185102c53eb1811fd8dd975706e9d748d5660cf9006e65374",
  "strippedsize": 216,
  "size": 216,
  "weight": 864,
  "tx": [
    {
      "txid": "119e18869fd5d9aba5e935642df1e1911a9fe3871ac05d434ba9df54a5df477d",
      "hash": "119e18869fd5d9aba5e935642df1e1911a9fe3871ac05d434ba9df54a5df477d",
      "version": 1,
      "size": 135,
      "vsize": 135,
      "weight": 540,
      "locktime": 0,
      "vin": [
        {
          "coinbase": "04ffff001d022609",
          "sequence": 4294967295
        }
      ],
      "vout": [
        {
          "value": 50.0,
          "n": 0,
          "scriptPubKey": {
            "asm": "04bdc3840ae2aac5b4c57018471c36d0e5685012d0145b3b2b19e7571cf7142569d35fed7f846b78b86def34dbfe10c09988cd69baebf1517da470090a6bd2a32f OP_CHECKSIG",
            "desc": "pk(04bdc3840ae2aac5b4c57018471c36d0e5685012d0145b3b2b19e7571cf7142569d35fed7f846b78b86def34dbfe10c09988cd69baebf1517da470090a6bd2a32f)#zj70q59c",
            "hex": "4104bdc3840ae2aac5b4c57018471c36d0e5685012d0145b3b2b19e7571cf7142569d35fed7f846b78b86def34dbfe10c09988cd69baebf1517da470090a6bd2a32fac",
            "type": "pubkey"
          }
        }
      ],
      "hex": "01000000010000000000000000000000000000000000000000000000000000000000000000ffffffff0804ffff001d022609ffffffff0100f2052a01000000434104bdc3840ae2aac5b4c57018471c36d0e5685012d0145b3b2b19e7571cf7142569d35fed7f846b78b86def34dbfe10c09988cd69baebf1517da470090a6bd2a32fac00000000"
    }
  ]
}