{
  "hash": "00000000d0f016b5d0f7a74996da46b26b60bcb44b51f351674c5bd1db05f3e1",
  "confirmations": 45328,
  "height": 7770,
  "version": 1,
  "versionHex": "00000001",
  "merkleroot": "08794145bc207e4f870e796c8a57bff6ec10b70a82424f0015e9a80787c62ef4",
  "time": 1237292993,
  "mediantime": 1237289041,
  "nonce": 855402270,
  "bits": "1d00ffff",
  "difficulty": 1,
  "chainwork": "00000000000000000000000000000000000000000000000000001e5b1e5b1e5b",
  "nTx": 1,
  "previousblockhash": "00000000fc27aac347a23ba321aef720fd9854643cc11c69c0b9dff716f7b718",
  "nextblockhash": "00000000f7e3f660f4169fc14fc53f9b848d8c091cc7a573cbfd8dec6dd04ee3",
  "strippedsize": 216,
  "size": 216,
  "weight": 864,
  "tx": [
    {
      "txid": "08794145bc207e4f870e796c8a57bff6ec10b70a82424f0015e9a80787c62ef4",
      "hash": "08794145bc207e4f870e796c8a57bff6ec10b70a82424f0015e9a80787c62ef4",
      "version": 1,
      "size": 135,
      "vsize": 135,
      "weight": 540,
      "locktime": 0,
      "vin": [
        {
          "coinbase": "04ffff001d025705",
          "sequence": 4294967295
        }
      ],
      "vout": [
        {
          "value": 50.0,
          "n": 0,
          "scriptPubKey": {
            "asm": "046effdcda6b0fe13e83cb243d1db53c30e75c31e4be0e1bd68e0ff993e3f5a9f085f8e828bcc9b5e6918c7a0fd47b717d46b41b12a43c4a485c05029c0af4b2fc OP_CHECKSIG",
            "desc": "pk(046effdcda6b0fe13e83cb243d1db53c30e75c31e4be0e1bd68e0ff993e3f5a9f085f8e828bcc9b5e6918c7a0fd47b717d46b41b12a43c4a485c05029c0af4b2fc)#fw6m723f",
            "hex": "41046effdcda6b0fe13e83cb243d1db53c30e75c31e4be0e1bd68e0ff993e3f5a9f085f8e828bcc9b5e6918c7a0fd47b717d46b41b12a43c4a485c05029c0af4b2fcac",
            "type": "pubkey"
          }
        }
      ],
      "hex": "01000000010000000000000000000000000000000000000000000000000000000000000000ffffffff0804ffff001d025705ffffffff0100f2052a010000004341046effdcda6b0fe13e83cb243d1db53c30e75c31e4be0e1bd68e0ff993e3f5a9f085f8e828bcc9b5e6918c7a0fd47b717d46b41b12a43c4a485c05029c0af4b2fcac00000000"
    }
  ]
}