{
  "hash": "000000000452ee8a3bea263fc991f365968043fc5cdcbf581c88516f573355ee",
  "confirmations": 52375,
  "height": 723,
  "version": 1,
  "versionHex": "00000001",
  "merkleroot": "a036fe7e74319bf123d1bf23164353aefca95cba47efe1565694e91bb0dab4e8",
  "time": 1232128717,
  "mediantime": 1232124164,
  "nonce": 626741528,
  "bits": "1d00ffff",
  "difficulty": 1,
  "chainwork": "000000000000000000000000000000000000000000000000000002d402d402d4",
  "nTx": 1,
  "previousblockhash": "000000000033b4ee1cc40f05145b1a3987cca2473589e7e23082996e2fe7c899",
  "nextblockhash": "0000000053fe3cb3bea4439a1b901b16a68ad0a790b82c3cb0bae6be33e9d14a",
  "strippedsize": 215,
  "size": 215,
  "weight": 860,
  "tx": [
    {
      "txid": "a036fe7e74319bf123d1bf23164353aefca95cba47efe1565694e91bb0dab4e8",
      "hash": "a036fe7e74319bf123d1bf23164353aefca95cba47efe1565694e91bb0dab4e8",
      "version": 1,
      "size": 134,
      "vsize": 134,
      "weight": 536,
      "locktime": 0,
      "vin": [
        {
          "coinbase": "04ffff001d012f",
          "sequence": 4294967295
        }
      ],
      "vout": [
        {
          "value": 50.0,
          "n": 0,
          "scriptPubKey": {
            "asm": "04bd7741988aaf3838a9576fc3b15561a56a20e4c16a47b751603fc578c1e33bdf4b3a66eefe05ae49dc3aeef523269f99356563b2abcc1de7656e0080c9f9420a OP_CHECKSIG",
            "desc": "pk(04bd7741988aaf3838a9576fc3b15561a56a20e4c16a47b751603fc578c1e33bdf4b3a66eefe05ae49dc3aeef523269f99356563b2abcc1de7656e0080c9f9420a)#npeyl8c5",
            "hex": "4104bd7741988aaf3838a9576fc3b15561a56a20e4c16a47b751603fc578c1e33bdf4b3a66eefe05ae49dc3aeef523269f99356563b2abcc1de7656e0080c9f9420aac",
            "type": "pubkey"
          }
        }
      ],
      "hex": "01000000010000000000000000000000000000000000000000000000000000000000000000ffffffff0704ffff001d012fffffffff0100f2052a01000000434104bd7741988aaf3838a9576fc3b15561a56a20e4c16a47b751603fc578c1e33bdf4b3a66eefe05ae49dc3aeef523269f99356563b2abcc1de7656e0080c9f9420aac00000000"
    }
  ]
}