{
  "hash": "000000002bb02e73ed4eef388e4c4f738b688cc02da3265fe0a57fb8c951feab",
  "confirmations": 46197,
  "height": 6901,
  "version": 1,
  "versionHex": "00000001",
  "merkleroot": "8bea86762a85f2c7f22d2d49caedd64b75930b150af5108c212db2a188c9edcc",
  "time": 1236637658,
  "mediantime": 1236634007,
  "nonce": 713228337,
  "bits": "1d00ffff",
  "difficulty": 1,
  "chainwork": "00000000000000000000000000000000000000000000000000001af61af61af6",
  "nTx": 1,
  "previousblockhash": "000000002855bc26b205524b86a8c5440a1fb7f05b136d840310308716c3a3cf",
  "nextblockhash": "00000000a1976737c59dd2f6b1b466df65fdb4b9c52c2cd00d8925864e9cd996",
  "strippedsize": 215,
  "size": 215,
  "weight": 860,
  "tx": [
    {
      "txid": "8bea86762a85f2c7f22d2d49caedd64b75930b150af5108c212db2a188c9edcc",
      "hash": "8bea86762a85f2c7f22d2d49caedd64b75930b150af5108c212db2a188c9edcc",
      "version": 1,
      "size": 134,
      "vsize": 134,
      "weight": 536,
      "locktime": 0,
      "vin": [
        {
          "coinbase": "04ffff001d0176",
          "sequence": 4294967295
        }
      ],
      "vout": [
        {
          "value": 50.0,
          "n": 0,
          "scriptPubKey": {
            "asm": "04c57ff7f68bfda8e3d21d78336cabe6f86fd286fa883a8c10c5927230436139acec3040edcea83e3e2100a81085207172d260ba3f9a8bcf485d730fa28c373986 OP_CHECKSIG",
            "desc": "pk(04c57ff7f68bfda8e3d21d78336cabe6f86fd286fa883a8c10c5927230436139acec3040edcea83e3e2100a81085207172d260ba3f9a8bcf485d730fa28c373986)#m96ruq2s",
            "hex": "4104c57ff7f68bfda8e3d21d78336cabe6f86fd286fa883a8c10c5927230436139acec3040edcea83e3e2100a81085207172d260ba3f9a8bcf485d730fa28c373986ac",
            "type": "pubkey"
          }
        }
      ],
      "hex": "01000000010000000000000000000000000000000000000000000000000000000000000000ffffffff0704ffff001d0176ffffffff0100f2052a01000000434104c57ff7f68bfda8e3d21d78336cabe6f86fd286fa883a8c10c5927230436139acec3040edcea83e3e2100a81085207172d260ba3f9a8bcf485d730fa28c373986ac00000000"
    }
  ]
}