{
  "hash": "0000000026e4bbcf491b1bbf1778ca07bcf144c5836642b42bcd2c5db563f3b1",
  "confirmations": 45222,
  "height": 7876,
  "version": 1,
  "versionHex": "00000001",
  "merkleroot": "271a75ea5ee51c5262d04e178a9a4ee8ca28118e19d0dc57e621a1e5246e8805",
  "time": 1237374743,
  "mediantime": 1237368366,
  "nonce": 3482801704,
  "bits": "1d00ffff",
  "difficulty": 1,
  "chainwork": "00000000000000000000000000000000000000000000000000001ec51ec51ec5",
  "nTx": 1,
  "previousblockhash": "00000000903d49e3de149aa8aca76b7d74cdb9370c2c1781fa9bdb76aed4b13b",
  "nextblockhash": "00000000a45e19b32d9e615ee47c821ccf3bb0b9fa9a8a6a82a9620603390ce5",
  "strippedsize": 216,
  "size": 216,
  "weight": 864,
  "tx": [
    {
      "txid": "271a75ea5ee51c5262d04e178a9a4ee8ca28118e19d0dc57e621a1e5246e8805",
      "hash": "271a75ea5ee51c5262d04e178a9a4ee8ca28118e19d0dc57e621a1e5246e8805",
      "version": 1,
      "size": 135,
      "vsize": 135,
      "weight": 540,
      "locktime": 0,
      "vin": [
        {
          "coinbase": "04ffff001d021b07",
          "sequence": 4294967295
        }
      ],
      "vout": [
        {
          "value": 50.0,
          "n": 0,
          "scriptPubKey": {
            "asm": "04a0072004c6d659f5b04b9bd13e2f6fbc292a6b74c342f9edd04280fe50409ca5327077c22fb451457cda5fc1db532e747dbe6eb0b2dc32f608e5754754aecc96 OP_CHECKSIG",
            "desc": "pk(04a0072004c6d659f5b04b9bd13e2f6fbc292a6b74c342f9edd04280fe50409ca5327077c22fb451457cda5fc1db532e747dbe6eb0b2dc32f608e5754754aecc96)#6vnspzg3",
            "hex": "4104a0072004c6d659f5b04b9bd13e2f6fbc292a6b74c342f9edd04280fe50409ca5327077c22fb451457cda5fc1db532e747dbe6eb0b2dc32f608e5754754aecc96ac",
            "type": "pubkey"
          }
        }
      ],
      "hex": "01000000010000000000000000000000000000000000000000000000000000000000000000ffffffff0804ffff001d021b07ffffffff0100f2052a01000000434104a0072004c6d659f5b04b9bd13e2f6fbc292a6b74c342f9edd04280fe50409ca5327077c22fb451457cda5fc1db532e747dbe6eb0b2dc32f608e5754754aecc96ac00000000"
    }
  ]
}