{
  "hash": "0000000055f9514359114a754ab74471f39a5fe6034ca6d05ec14e2d03dbd626",
  "confirmations": 52450,
  "height": 648,
  "version": 1,
  "versionHex": "00000001",
  "merkleroot": "e2ce11cfe4162d88347262841e9cb5f1fa2fa6abd8f9a26d4d91d85e9ef4726f",
  "time": 1232067816,
  "mediantime": 1232064985,
  "nonce": 4194961416,
  "bits": "1d00ffff",
  "difficulty": 1,
  "chainwork": "0000000000000000000000000000000000000000000000000000028902890289",
  "nTx": 1,
  "previousblockhash": "00000000292b0f6a658cfab5e4d69a7d5753a6fef74ced4ef82e7026042a97de",
  "nextblockhash": "00000000a99927e355bb8699c583c2214cc796c42aa28b82337979b60ef3af1d",
  "strippedsize": 216,
  "size": 216,
  "weight": 864,
  "tx": [
    {
      "txid": "e2ce11cfe4162d88347262841e9cb5f1fa2fa6abd8f9a26d4d91d85e9ef4726f",
      "hash": "e2ce11cfe4162d88347262841e9cb5f1fa2fa6abd8f9a26d4d91d85e9ef4726f",
      "version": 1,
      "size": 135,
      "vsize": 135,
      "weight": 540,
      "locktime": 0,
      "vin": [
        {
          "coinbase": "04ffff001d026e07",
          "sequence": 4294967295
        }
      ],
      "vout": [
        {
          "value": 50.0,
          "n": 0,
          "scriptPubKey": {
            "asm": "043341e52283d0db91016ee45228cfc8b88929c8026fe30b856fbfce0d8ea06765b4fba445352432f57d1eab1d81674b100ded326e2b8365f143ca8835fde4665e OP_CHECKSIG",
            "desc": "pk(043341e52283d0db91016ee45228cfc8b88929c8026fe30b856fbfce0d8ea06765b4fba445352432f57d1eab1d81674b100ded326e2b8365f143ca8835fde4665e)#anzek395",
            "hex": "41043341e52283d0db91016ee45228cfc8b88929c8026fe30b856fbfce0d8ea06765b4fba445352432f57d1eab1d81674b100ded326e2b8365f143ca8835fde4665eac",
            "type": "pubkey"
          }
        }
      ],
      "hex": "01000000010000000000000000000000000000000000000000000000000000000000000000ffffffff0804ffff001d026e07ffffffff0100f2052a010000004341043341e52283d0db91016ee45228cfc8b88929c8026fe30b856fbfce0d8ea06765b4fba445352432f57d1eab1d81674b100ded326e2b8365f143ca8835fde4665eac00000000"
    }
  ]
}