{
  "hash": "00000000fa413253e1d30ff687f239b528330c810e3de86e42a538175682599d",
  "confirmations": 48107,
  "height": 4991,
  "version": 1,
  "versionHex": "00000001",
  "merkleroot": "d9d0ca00077e82590dcea565d04cd75d48075cbfe164ee73b258e78eefef1ff6",
  "time": 1235132300,
  "mediantime": 1235130482,
  "nonce": 19900704,
  "bits": "1d00ffff",
  "difficulty": 1,
  "chainwork": "0000000000000000000000000000000000000000000000000000138013801380",
  "nTx": 1,
  "previousblockhash": "0000000040ad5982384733ca14e235a6804d310646e0f53e1f9fa9919101eb40",
  "nextblockhash": "000000006ddad2381c933febd2845af7fdd415ef7b9a8de7a54cd7ee976ca4a0",
  "strippedsize": 215,
  "size": 215,
  "weight": 860,
  "tx": [
    {
      "txid": "d9d0ca00077e82590dcea565d04cd75d48075cbfe164ee73b258e78eefef1ff6",
      "hash": "d9d0ca00077e82590dcea565d04cd75d48075cbfe164ee73b258e78eefef1ff6",
      "version": 1,
      "size": 134,
      "vsize": 134,
      "weight": 536,
      "locktime": 0,
      "vin": [
        {
          "coinbase": "04ffff001d013a",
          "sequence": 4294967295
        }
      ],
      "vout": [
        {
          "value": 50.0,
          "n": 0,
          "scriptPubKey": {
            "asm": "04debec4c8f781d5223a90aa90416ee51abf15d37086cc2d9be67873534fb06ae68c8a4e0ed0a7eedff9c97fe23f03e652d7f44501286dc1f75148bfaa9e386300 OP_CHECKSIG",
            "desc": "pk(04debec4c8f781d5223a90aa90416ee51abf15d37086cc2d9be67873534fb06ae68c8a4e0ed0a7eedff9c97fe23f03e652d7f44501286dc1f75148bfaa9e386300)#hstxlj8n",
            "hex": "4104debec4c8f781d5223a90aa90416ee51abf15d37086cc2d9be67873534fb06ae68c8a4e0ed0a7eedff9c97fe23f03e652d7f44501286dc1f75148bfaa9e386300ac",
            "type": "pubkey"
          }
        }
      ],
      "hex": "01000000010000000000000000000000000000000000000000000000000000000000000000ffffffff0704ffff001d013affffffff0100f2052a01000000434104debec4c8f781d5223a90aa90416ee51abf15d37086cc2d9be67873534fb06ae68c8a4e0ed0a7eedff9c97fe23f03e652d7f44501286dc1f75148bfaa9e386300ac00000000"
    }
  ]
}