{
  "hash": "000000003a307b43839268cda17218fa04b2c2c98fc7fc916ffe2165d0b3a136",
  "confirmations": 46287,
  "height": 6811,
  "version": 1,
  "versionHex": "00000001",
  "merkleroot": "ec32bbc17cdcd82991f4cb2b93075dbe82f7a8449fc5336d16936585787a17ae",
  "time": 1236564674,
  "mediantime": 1236562052,
  "nonce": 9819513,
  "bits": "1d00ffff",
  "difficulty": 1,
  "chainwork": "00000000000000000000000000000000000000000000000000001a9c1a9c1a9c",
  "nTx": 1,
  "previousblockhash": "0000000094b37d49514f3cb37c56dc0f54dbbae4b50172a8bc0b1265ef74701a",
  "nextblockhash": "000000006871c85a9b37ed343d5d22f60fe188d69831e61e8123264507a577bb",
  "strippedsize": 215,
  "size": 215,
  "weight": 860,
  "tx": [
    {
      "txid": "ec32bbc17cdcd82991f4cb2b93075dbe82f7a8449fc5336d16936585787a17ae",
      "hash": "ec32bbc17cdcd82991f4cb2b93075dbe82f7a8449fc5336d16936585787a17ae",
      "version": 1,
      "size": 134,
      "vsize": 134,
      "weight": 536,
      "locktime": 0,
      "vin": [
        {
          "coinbase": "04ffff001d0131",
          "sequence": 4294967295
        }
      ],
      "vout": [
        {
          "value": 50.0,
          "n": 0,
          "scriptPubKey": {
            "asm": "04540a8d146a12cf6d0e866b8baea35845e12c217d6b5bb802622fe36d99ca6e569443e60c4cd3ba644d1771a017d318ed48d76a121d14a2356319e2244968018b OP_CHECKSIG",
            "desc": "pk(04540a8d146a12cf6d0e866b8baea35845e12c217d6b5bb802622fe36d99ca6e569443e60c4cd3ba644d1771a017d318ed48d76a121d14a2356319e2244968018b)#ejhqwagw",
            "hex": "4104540a8d146a12cf6d0e866b8baea35845e12c217d6b5bb802622fe36d99ca6e569443e60c4cd3ba644d1771a017d318ed48d76a121d14a2356319e2244968018bac",
            "type": "pubkey"
          }
        }
      ],
      "hex": "01000000010000000000000000000000000000000000000000000000000000000000000000ffffffff0704ffff001d0131ffffffff0100f2052a01000000434104540a8d146a12cf6d0e866b8baea35845e12c217d6b5bb802622fe36d99ca6e569443e60c4cd3ba644d1771a017d318ed48d76a121d14a2356319e2244968018bac00000000"
    }
  ]
}