{
  "hash": "00000000bd52e0af9167059079552edc131a6f1cd3e258517a50771eec15ae41",
  "confirmations": 46486,
  "height": 6612,
  "version": 1,
  "versionHex": "00000001",
  "merkleroot": "7aefb95f2a56c380f6545d7a66e1b71aae9f62f192b9a86d46d211a73682c31c",
  "time": 1236412845,
  "mediantime": 1236410399,
  "nonce": 7283302,
  "bits": "1d00ffff",
  "difficulty": 1,
  "chainwork": "000000000000000000000000000000000000000000000000000019d519d519d5",
  "nTx": 1,
  "previousblockhash": "00000000b02741de5b68e95239d6a183befe737cc32b271b1aca9d11d931b6af",
  "nextblockhash": "000000001e1073c002b345c5294a18b269bc4959c1f1cdf27053617474b0b253",
  "strippedsize": 216,
  "size": 216,
  "weight": 864,
  "tx": [
    {
      "txid": "7aefb95f2a56c380f6545d7a66e1b71aae9f62f192b9a86d46d211a73682c31c",
      "hash": "7aefb95f2a56c380f6545d7a66e1b71aae9f62f192b9a86d46d211a73682c31c",
      "version": 1,
      "size": 135,
      "vsize": 135,
      "weight": 540,
      "locktime": 0,
      "vin": [
        {
          "coinbase": "04ffff001d028504",
          "sequence": 4294967295
        }
      ],
      "vout": [
        {
          "value": 50.0,
          "n": 0,
          "scriptPubKey": {
            "asm": "049800781c0f14f0cbb17bab6fa3a5ed20cd6b37748348b7a6b3ef5ec52c4605cda0c3abd7a80bf66b7f1f42898c932a20d14ca8763328e0f00084500ae987cf1e OP_CHECKSIG",
            "desc": "pk(049800781c0f14f0cbb17bab6fa3a5ed20cd6b37748348b7a6b3ef5ec52c4605cda0c3abd7a80bf66b7f1f42898c932a20d14ca8763328e0f00084500ae987cf1e)#4eq57t42",
            "hex": "41049800781c0f14f0cbb17bab6fa3a5ed20cd6b37748348b7a6b3ef5ec52c4605cda0c3abd7a80bf66b7f1f42898c932a20d14ca8763328e0f00084500ae987cf1eac",
            "type": "pubkey"
          }
        }
      ],
      "hex": "01000000010000000000000000000000000000000000000000000000000000000000000000ffffffff0804ffff001d028504ffffffff0100f2052a010000004341049800781c0f14f0cbb17bab6fa3a5ed20cd6b37748348b7a6b3ef5ec52c4605cda0c3abd7a80bf66b7f1f42898c932a20d14ca8763328e0f00084500ae987cf1eac00000000"
    }
  ]
}