{
  "hash": "000000002378d870a489ae9b1460f3a170fdcf7ee1121c767a40cc3c5baec2ea",
  "confirmations": 50749,
  "height": 2349,
  "version": 1,
  "versionHex": "00000001",
  "merkleroot": "883365ab3c6ec8e6e5b36dd869794ec33ab998a4395f3871dff79b3e065ca1e3",
  "time": 1233316553,
  "mediantime": 1233312251,
  "nonce": 1426074120,
  "bits": "1d00ffff",
  "difficulty": 1,
  "chainwork": "0000000000000000000000000000000000000000000000000000092e092e092e",
  "nTx": 1,
  "previousblockhash": "0000000006ef66fce69f45de495904c485b083b654b445eab66d5b4293b78258",
  "nextblockhash": "00000000b15cc18f1326b12b66218aa68f3f038e45c6ff15ffd47a8bcf144c31",
  "strippedsize": 216,
  "size": 216,
  "weight": 864,
  "tx": [
    {
      "txid": "883365ab3c6ec8e6e5b36dd869794ec33ab998a4395f3871dff79b3e065ca1e3",
      "hash": "883365ab3c6ec8e6e5b36dd869794ec33ab998a4395f3871dff79b3e065ca1e3",
      "version": 1,
      "size": 135,
      "vsize": 135,
      "weight": 540,
      "locktime": 0,
      "vin": [
        {
          "coinbase": "04ffff001d02bd02",
          "sequence": 4294967295
        }
      ],
      "vout": [
        {
          "value": 50.0,
          "n": 0,
          "scriptPubKey": {
            "asm": "042c89ba0e099cf73a5b481c96a536eb3e1611c9f7d9e17af98402118541686382071797505bc9c6dc4166e9fab60b5cd1605b14a96c648dc3a6b20e5396e85e61 OP_CHECKSIG",
            "desc": "pk(042c89ba0e099cf73a5b481c96a536eb3e1611c9f7d9e17af98402118541686382071797505bc9c6dc4166e9fab60b5cd1605b14a96c648dc3a6b20e5396e85e61)#z3guc0qc",
            "hex": "41042c89ba0e099cf73a5b481c96a536eb3e1611c9f7d9e17af98402118541686382071797505bc9c6dc4166e9fab60b5cd1605b14a96c648dc3a6b20e5396e85e61ac",
            "type": "pubkey"
          }
        }
      ],
      "hex": "01000000010000000000000000000000000000000000000000000000000000000000000000ffffffff0804ffff001d02bd02ffffffff0100f2052a010000004341042c89ba0e099cf73a5b481c96a536eb3e1611c9f7d9e17af98402118541686382071797505bc9c6dc4166e9fab60b5cd1605b14a96c648dc3a6b20e5396e85e61ac00000000"
    }
  ]
}