{
  "hash": "00000000da2e83e3f29aebb8b37d98d4aae9a41b053cb7fc4f4ae2137fe6484a",
  "confirmations": 50257,
  "height": 2841,
  "version": 1,
  "versionHex": "00000001",
  "merkleroot": "cf9d1ba5e0d99eb2661fd2244ea47179c345b9eeae3d28530c13416edd05f8a3",
  "time": 1233653970,
  "mediantime": 1233648778,
  "nonce": 289126185,
  "bits": "1d00ffff",
  "difficulty": 1,
  "chainwork": "00000000000000000000000000000000000000000000000000000b1a0b1a0b1a",
  "nTx": 1,
  "previousblockhash": "00000000516574a4455c89908277184e2250529b6f80971a5793b337e5f345fb",
  "nextblockhash": "0000000050090fca680ffc54858e98ef72dd21fd1159089dc22e2b1ca10024cf",
  "strippedsize": 216,
  "size": 216,
  "weight": 864,
  "tx": [
    {
      "txid": "cf9d1ba5e0d99eb2661fd2244ea47179c345b9eeae3d28530c13416edd05f8a3",
      "hash": "cf9d1ba5e0d99eb2661fd2244ea47179c345b9eeae3d28530c13416edd05f8a3",
      "version": 1,
      "size": 135,
      "vsize": 135,
      "weight": 540,
      "locktime": 0,
      "vin": [
        {
          "coinbase": "04ffff001d02bc06",
          "sequence": 4294967295
        }
      ],
      "vout": [
        {
          "value": 50.0,
          "n": 0,
          "scriptPubKey": {
            "asm": "04cb972e223ad01467b288ebab60f11252441773685f4f574dd4361e7bc4ae910d5f8bbb737bdcea914e5c623f4bf0fb3be25aa3acc1e768434687780c24e6fc98 OP_CHECKSIG",
            "desc": "pk(04cb972e223ad01467b288ebab60f11252441773685f4f574dd4361e7bc4ae910d5f8bbb737bdcea914e5c623f4bf0fb3be25aa3acc1e768434687780c24e6fc98)#d9yj7q9f",
            "hex": "4104cb972e223ad01467b288ebab60f11252441773685f4f574dd4361e7bc4ae910d5f8bbb737bdcea914e5c623f4bf0fb3be25aa3acc1e768434687780c24e6fc98ac",
            "type": "pubkey"
          }
        }
      ],
      "hex": "01000000010000000000000000000000000000000000000000000000000000000000000000ffffffff0804ffff001d02bc06ffffffff0100f2052a01000000434104cb972e223ad01467b288ebab60f11252441773685f4f574dd4361e7bc4ae910d5f8bbb737bdcea914e5c623f4bf0fb3be25aa3acc1e768434687780c24e6fc98ac00000000"
    }
  ]
}