{
  "hash": "0000000030f5e3d36e4e5e63c7eb5372511e468483907b13e91eb9b8b8f55833",
  "confirmations": 48247,
  "height": 4851,
  "version": 1,
  "versionHex": "00000001",
  "merkleroot": "28f3747d2e11252a9ab0d4c6c4c348d9b150fd064bc1a61771160d2db3f22058",
  "time": 1235038672,
  "mediantime": 1235035278,
  "nonce": 260603000,
  "bits": "1d00ffff",
  "difficulty": 1,
  "chainwork": "000000000000000000000000000000000000000000000000000012f412f412f4",
  "nTx": 1,
  "previousblockhash": "00000000830d8355ed59793ef81a824c2f613847b6cd03478920c5efe42ef837",
  "nextblockhash": "0000000052cc05409e3d653f1d8ec284e7c5b4283851310cbdfc604e313f9cdb",
  "strippedsize": 216,
  "size": 216,
  "weight": 864,
  "tx": [
    {
      "txid": "28f3747d2e11252a9ab0d4c6c4c348d9b150fd064bc1a61771160d2db3f22058",
      "hash": "28f3747d2e11252a9ab0d4c6c4c348d9b150fd064bc1a61771160d2db3f22058",
      "version": 1,
      "size": 135,
      "vsize": 135,
      "weight": 540,
      "locktime": 0,
      "vin": [
        {
          "coinbase": "04ffff001d02b500",
          "sequence": 4294967295
        }
      ],
      "vout": [
        {
          "value": 50.0,
          "n": 0,
          "scriptPubKey": {
            "asm": "040ec9a66d33f78b76111ade93e4415a46c4ea4a18cc95cd2c992d5c6d4435ead42239c9bacc617f4c7305d735fa3fa205f7cfc0eb4e312f3de5c3eddcf986794c OP_CHECKSIG",
            "desc": "pk(040ec9a66d33f78b76111ade93e4415a46c4ea4a18cc95cd2c992d5c6d4435ead42239c9bacc617f4c7305d735fa3fa205f7cfc0eb4e312f3de5c3eddcf986794c)#pykzmk4q",
            "hex": "41040ec9a66d33f78b76111ade93e4415a46c4ea4a18cc95cd2c992d5c6d4435ead42239c9bacc617f4c7305d735fa3fa205f7cfc0eb4e312f3de5c3eddcf986794cac",
            "type": "pubkey"
          }
        }
      ],
      "hex": "01000000010000000000000000000000000000000000000000000000000000000000000000ffffffff0804ffff001d02b500ffffffff0100f2052a010000004341040ec9a66d33f78b76111ade93e4415a46c4ea4a18cc95cd2c992d5c6d4435ead42239c9bacc617f4c7305d735fa3fa205f7cfc0eb4e312f3de5c3eddcf986794cac00000000"
    }
  ]
}