{
  "hash": "00000000eaf6d5a6b74911becc470a77b9312e0fd7531adcb06980936d0116e2",
  "confirmations": 50667,
  "height": 2431,
  "version": 1,
  "versionHex": "00000001",
  "merkleroot": "a66e2c0da568d187cf7d039acbc0c423ae1f9333f9f168ff36706c964dbab31a",
  "time": 1233378164,
  "mediantime": 1233373489,
  "nonce": 3200639764,
  "bits": "1d00ffff",
  "difficulty": 1,
  "chainwork": "0000000000000000000000000000000000000000000000000000098009800980",
  "nTx": 1,
  "previousblockhash": "00000000d0c78f4f45bd0cab892f82dabeb5b6b40a73111dd29b050e32e7c1ad",
  "nextblockhash": "000000004919b23c81fa5ffec029f005fa9bfd25851a9605b1fcc280e830c74c",
  "strippedsize": 215,
  "size": 215,
  "weight": 860,
  "tx": [
    {
      "txid": "a66e2c0da568d187cf7d039acbc0c423ae1f9333f9f168ff36706c964dbab31a",
      "hash": "a66e2c0da568d187cf7d039acbc0c423ae1f9333f9f168ff36706c964dbab31a",
      "version": 1,
      "size": 134,
      "vsize": 134,
      "weight": 536,
      "locktime": 0,
      "vin": [
        {
          "coinbase": "04ffff001d0140",
          "sequence": 4294967295
        }
      ],
      "vout": [
        {
          "value": 50.0,
          "n": 0,
          "scriptPubKey": {
            "asm": "046fad0fd843598d2a2ec4fe9fcc1d3f365f7c3e9b795cf622e38a80f5a4023c72fdf8a8e6ac0e5d1b1a6e69fe5d5beac4cae562aae01a5e5defbb7715ce35fe7c OP_CHECKSIG",
            "desc": "pk(046fad0fd843598d2a2ec4fe9fcc1d3f365f7c3e9b795cf622e38a80f5a4023c72fdf8a8e6ac0e5d1b1a6e69fe5d5beac4cae562aae01a5e5defbb7715ce35fe7c)#dpm7w8rj",
            "hex": "41046fad0fd843598d2a2ec4fe9fcc1d3f365f7c3e9b795cf622e38a80f5a4023c72fdf8a8e6ac0e5d1b1a6e69fe5d5beac4cae562aae01a5e5defbb7715ce35fe7cac",
            "type": "pubkey"
          }
        }
      ],
      "hex": "01000000010000000000000000000000000000000000000000000000000000000000000000ffffffff0704ffff001d0140ffffffff0100f2052a010000004341046fad0fd843598d2a2ec4fe9fcc1d3f365f7c3e9b795cf622e38a80f5a4023c72fdf8a8e6ac0e5d1b1a6e69fe5d5beac4cae562aae01a5e5defbb7715ce35fe7cac00000000"
    }
  ]
}