{
  "hash": "00000000675479bfbe00ac5dfc6dbb24dc7680e7ae0cc741063f36216419dbbe",
  "confirmations": 45311,
  "height": 7787,
  "version": 1,
  "versionHex": "00000001",
  "merkleroot": "8fb77dcb7824fedb74bd02d9a9e4767438a1c5163f603454c8503df8b6376537",
  "time": 1237302684,
  "mediantime": 1237299491,
  "nonce": 118731494,
  "bits": "1d00ffff",
  "difficulty": 1,
  "chainwork": "00000000000000000000000000000000000000000000000000001e6c1e6c1e6c",
  "nTx": 1,
  "previousblockhash": "000000007cac5313246636b3d09a9327ad265e7fed0ceced58c41d2faf487f3e",
  "nextblockhash": "000000001e84c18f8ca6f08264e7099bc123d41b52e0442a893bb3f008b177c1",
  "strippedsize": 215,
  "size": 215,
  "weight": 860,
  "tx": [
    {
      "txid": "8fb77dcb7824fedb74bd02d9a9e4767438a1c5163f603454c8503df8b6376537",
      "hash": "8fb77dcb7824fedb74bd02d9a9e4767438a1c5163f603454c8503df8b6376537",
      "version": 1,
      "size": 134,
      "vsize": 134,
      "weight": 536,
      "locktime": 0,
      "vin": [
        {
          "coinbase": "04ffff001d017a",
          "sequence": 4294967295
        }
      ],
      "vout": [
        {
          "value": 50.0,
          "n": 0,
          "scriptPubKey": {
            "asm": "045f298c7891b8ac30ce4604c7f4bc52b2345a4212d3134f55f28fa008ddeff312e7653239663b3ed2a9ae4d9e1b1c00fcfb429051230000137cf88e5133d124a8 OP_CHECKSIG",
            "desc": "pk(045f298c7891b8ac30ce4604c7f4bc52b2345a4212d3134f55f28fa008ddeff312e7653239663b3ed2a9ae4d9e1b1c00fcfb429051230000137cf88e5133d124a8)#476dlxc5",
            "hex": "41045f298c7891b8ac30ce4604c7f4bc52b2345a4212d3134f55f28fa008ddeff312e7653239663b3ed2a9ae4d9e1b1c00fcfb429051230000137cf88e5133d124a8ac",
            "type": "pubkey"
          }
        }
      ],
      "hex": "01000000010000000000000000000000000000000000000000000000000000000000000000ffffffff0704ffff001d017affffffff0100f2052a010000004341045f298c7891b8ac30ce4604c7f4bc52b2345a4212d3134f55f28fa008ddeff312e7653239663b3ed2a9ae4d9e1b1c00fcfb429051230000137cf88e5133d124a8ac00000000"
    }
  ]
}