{
  "hash": "00000000bf933846fc1909e40b854b7e045ca77ebfba2c1b38b291d63dcbe195",
  "confirmations": 46713,
  "height": 6385,
  "version": 1,
  "versionHex": "00000001",
  "merkleroot": "505e986bfa54c00811d769d2da43917b63ac32d96dd53febc1805c3de41438fd",
  "time": 1236245173,
  "mediantime": 1236242433,
  "nonce": 48654801,
  "bits": "1d00ffff",
  "difficulty": 1,
  "chainwork": "000000000000000000000000000000000000000000000000000018f218f218f2",
  "nTx": 1,
  "previousblockhash": "000000001e7812cf1ad8e830c33154147e3bfcf4bc3b94c87493ca3cf524719e",
  "nextblockhash": "000000006b1567112c76099a3cb73da141ce0e8e237078ef59132102517b846d",
  "strippedsize": 216,
  "size": 216,
  "weight": 864,
  "tx": [
    {
      "txid": "505e986bfa54c00811d769d2da43917b63ac32d96dd53febc1805c3de41438fd",
      "hash": "505e986bfa54c00811d769d2da43917b63ac32d96dd53febc1805c3de41438fd",
      "version": 1,
      "size": 135,
      "vsize": 135,
      "weight": 540,
      "locktime": 0,
      "vin": [
        {
          "coinbase": "04ffff001d02a203",
          "sequence": 4294967295
        }
      ],
      "vout": [
        {
          "value": 50.0,
          "n": 0,
          "scriptPubKey": {
            "asm": "04df05cc21995efa29db7d713d0ff53b87da4d409fb865dfa4c13e1822fef5bf11873a11c89d49574e090728238d5920333c9a5b96b0c5fb777e74bf04e319be82 OP_CHECKSIG",
            "desc": "pk(04df05cc21995efa29db7d713d0ff53b87da4d409fb865dfa4c13e1822fef5bf11873a11c89d49574e090728238d5920333c9a5b96b0c5fb777e74bf04e319be82)#eddvmp7k",
            "hex": "4104df05cc21995efa29db7d713d0ff53b87da4d409fb865dfa4c13e1822fef5bf11873a11c89d49574e090728238d5920333c9a5b96b0c5fb777e74bf04e319be82ac",
            "type": "pubkey"
          }
        }
      ],
      "hex": "01000000010000000000000000000000000000000000000000000000000000000000000000ffffffff0804ffff001d02a203ffffffff0100f2052a01000000434104df05cc21995efa29db7d713d0ff53b87da4d409fb865dfa4c13e1822fef5bf11873a11c89d49574e090728238d5920333c9a5b96b0c5fb777e74bf04e319be82ac00000000"
    }
  ]
}