{
  "hash": "000000009c6ede99417e884dcebfe5a15dfae6bfabb8d8a2a25b3e38e242ef25",
  "confirmations": 44722,
  "height": 8376,
  "version": 1,
  "versionHex": "00000001",
  "merkleroot": "8cc31c959df2ed12e62c7c3f266b0913570c6b0b2569385e0fa5d2b124f70631",
  "time": 1237783082,
  "mediantime": 1237780095,
  "nonce": 929187633,
  "bits": "1d00ffff",
  "difficulty": 1,
  "chainwork": "000000000000000000000000000000000000000000000000000020b920b920b9",
  "nTx": 1,
  "previousblockhash": "00000000218f06574d0365ce488b661121df6b3777e1cd42213e6ed5a13136d2",
  "nextblockhash": "00000000e531b9fdf75dcba6ef7104c4e1659e8820ac46b3d6a530273b1535ee",
  "strippedsize": 216,
  "size": 216,
  "weight": 864,
  "tx": [
    {
      "txid": "8cc31c959df2ed12e62c7c3f266b0913570c6b0b2569385e0fa5d2b124f70631",
      "hash": "8cc31c959df2ed12e62c7c3f266b0913570c6b0b2569385e0fa5d2b124f70631",
      "version": 1,
      "size": 135,
      "vsize": 135,
      "weight": 540,
      "locktime": 0,
      "vin": [
        {
          "coinbase": "04ffff001d027405",
          "sequence": 4294967295
        }
      ],
      "vout": [
        {
          "value": 50.0,
          "n": 0,
          "scriptPubKey": {
            "asm": "045fe36db8992fdbc98802b9b7171c70a510c4eeb59dec7325f0db774c19b1623e2d90d96f91a3401904efa8b35410673c1fe61d361117a53432eacbf256ce24d2 OP_CHECKSIG",
            "desc": "pk(045fe36db8992fdbc98802b9b7171c70a510c4eeb59dec7325f0db774c19b1623e2d90d96f91a3401904efa8b35410673c1fe61d361117a53432eacbf256ce24d2)#9zt6gs8k",
            "hex": "41045fe36db8992fdbc98802b9b7171c70a510c4eeb59dec7325f0db774c19b1623e2d90d96f91a3401904efa8b35410673c1fe61d361117a53432eacbf256ce24d2ac",
            "type": "pubkey"
          }
        }
      ],
      "hex": "01000000010000000000000000000000000000000000000000000000000000000000000000ffffffff0804ffff001d027405ffffffff0100f2052a010000004341045fe36db8992fdbc98802b9b7171c70a510c4eeb59dec7325f0db774c19b1623e2d90d96f91a3401904efa8b35410673c1fe61d361117a53432eacbf256ce24d2ac00000000"
    }
  ]
}