{
  "hash": "000000003adfb72fcea0d3fd535ada443f3ea13f1df23c2c4557a428d09b5707",
  "confirmations": 50032,
  "height": 3066,
  "version": 1,
  "versionHex": "00000001",
  "merkleroot": "5c78d0df8500322fccf1f304f6a165235ca2931f76e2f4fb302f36827083d066",
  "time": 1233806009,
  "mediantime": 1233802394,
  "nonce": 1359655700,
  "bits": "1d00ffff",
  "difficulty": 1,
  "chainwork": "00000000000000000000000000000000000000000000000000000bfb0bfb0bfb",
  "nTx": 1,
  "previousblockhash": "0000000037c50c38f580c653a41626326789b519c57248b2d8d2315222d6084b",
  "nextblockhash": "000000007b308f42e27972faa8cfbdf1c9162f470095346450ca0246ba19e185",
  "strippedsize": 215,
  "size": 215,
  "weight": 860,
  "tx": [
    {
      "txid": "5c78d0df8500322fccf1f304f6a165235ca2931f76e2f4fb302f36827083d066",
      "hash": "5c78d0df8500322fccf1f304f6a165235ca2931f76e2f4fb302f36827083d066",
      "version": 1,
      "size": 134,
      "vsize": 134,
      "weight": 536,
      "locktime": 0,
      "vin": [
        {
          "coinbase": "04ffff001d0177",
          "sequence": 4294967295
        }
      ],
      "vout": [
        {
          "value": 50.0,
          "n": 0,
          "scriptPubKey": {
            "asm": "04df85502c7f31bc1d66454a38ca9731da661bf1b2ddbc8715fde95477285dab181ba9609f74f4345f0d196f34931a25a8daeaaae07204cd0c8fd8c6a6588438f7 OP_CHECKSIG",
            "desc": "pk(04df85502c7f31bc1d66454a38ca9731da661bf1b2ddbc8715fde95477285dab181ba9609f74f4345f0d196f34931a25a8daeaaae07204cd0c8fd8c6a6588438f7)#upckwcwv",
            "hex": "4104df85502c7f31bc1d66454a38ca9731da661bf1b2ddbc8715fde95477285dab181ba9609f74f4345f0d196f34931a25a8daeaaae07204cd0c8fd8c6a6588438f7ac",
            "type": "pubkey"
          }
        }
      ],
      "hex": "01000000010000000000000000000000000000000000000000000000000000000000000000ffffffff0704ffff001d0177ffffffff0100f2052a01000000434104df85502c7f31bc1d66454a38ca9731da661bf1b2ddbc8715fde95477285dab181ba9609f74f4345f0d196f34931a25a8daeaaae07204cd0c8fd8c6a6588438f7ac00000000"
    }
  ]
}