{
  "hash": "00000000918b98be59042f38e4eeb3ca4ac74be0d67b54f04fc815c2518185b2",
  "confirmations": 43841,
  "height": 9257,
  "version": 1,
  "versionHex": "00000001",
  "merkleroot": "bd43873e7a7a9b5eee8578e9275eec783bd63981034aff5be631a78b50e54d0c",
  "time": 1238439140,
  "mediantime": 1238435760,
  "nonce": 1577130550,
  "bits": "1d00ffff",
  "difficulty": 1,
  "chainwork": "0000000000000000000000000000000000000000000000000000242a242a242a",
  "nTx": 1,
  "previousblockhash": "0000000034803d928ec3edb5f3681079b4c532b8ef947ffa8ec32c2012dbffe7",
  "nextblockhash": "00000000c04946d09e9072226bd5c8ee8708473540d055ce9119a75a614b260c",
  "strippedsize": 216,
  "size": 216,
  "weight": 864,
  "tx": [
    {
      "txid": "bd43873e7a7a9b5eee8578e9275eec783bd63981034aff5be631a78b50e54d0c",
      "hash": "bd43873e7a7a9b5eee8578e9275eec783bd63981034aff5be631a78b50e54d0c",
      "version": 1,
      "size": 135,
      "vsize": 135,
      "weight": 540,
      "locktime": 0,
      "vin": [
        {
          "coinbase": "04ffff001d020901",
          "sequence": 4294967295
        }
      ],
      "vout": [
        {
          "value": 50.0,
          "n": 0,
          "scriptPubKey": {
            "asm": "04a6e9e7b3238038fb27ffd2e4839930538bf653553eba712edefe9c2433f88aedcc27c8d7f88c3cf135108bced9acffe75196f4275a12253c1f5664dc0ace636b OP_CHECKSIG",
            "desc": "pk(04a6e9e7b3238038fb27ffd2e4839930538bf653553eba712edefe9c2433f88aedcc27c8d7f88c3cf135108bced9acffe75196f4275a12253c1f5664dc0ace636b)#tmfyt7tl",
            "hex": "4104a6e9e7b3238038fb27ffd2e4839930538bf653553eba712edefe9c2433f88aedcc27c8d7f88c3cf135108bced9acffe75196f4275a12253c1f5664dc0ace636bac",
            "type": "pubkey"
          }
        }
      ],
      "hex": "01000000010000000000000000000000000000000000000000000000000000000000000000ffffffff0804ffff001d020901ffffffff0100f2052a01000000434104a6e9e7b3238038fb27ffd2e4839930538bf653553eba712edefe9c2433f88aedcc27c8d7f88c3cf135108bced9acffe75196f4275a12253c1f5664dc0ace636bac00000000"
    }
  ]
}