{
  "hash": "0000000087d980ceff702ede31f080889d76fea4c6a4d98cab6bebbd8a5a28b8",
  "confirmations": 45204,
  "height": 7894,
  "version": 1,
  "versionHex": "00000001",
  "merkleroot": "fefb3ed755ce4909d989c0a4282e03ef23da46e99f97da47d0ccc8460d049d37",
  "time": 1237387303,
  "mediantime": 1237382831,
  "nonce": 22925336,
  "bits": "1d00ffff",
  "difficulty": 1,
  "chainwork": "00000000000000000000000000000000000000000000000000001ed71ed71ed7",
  "nTx": 1,
  "previousblockhash": "00000000207b5cdca1ad044414be49db9536b607628e8a2bcd05f6645fd688ff",
  "nextblockhash": "00000000a90c31d13d61094610003a0b344903d36edb41645edde01cb89c8278",
  "strippedsize": 216,
  "size": 216,
  "weight": 864,
  "tx": [
    {
      "txid": "fefb3ed755ce4909d989c0a4282e03ef23da46e99f97da47d0ccc8460d049d37",
      "hash": "fefb3ed755ce4909d989c0a4282e03ef23da46e99f97da47d0ccc8460d049d37",
      "version": 1,
      "size": 135,
      "vsize": 135,
      "weight": 540,
      "locktime": 0,
      "vin": [
        {
          "coinbase": "04ffff001d025e07",
          "sequence": 4294967295
        }
      ],
      "vout": [
        {
          "value": 50.0,
          "n": 0,
          "scriptPubKey": {
            "asm": "04e1d52ebfbd6b197e7c6cd64c1fcae70c0875101c96dfd7dcb196108c67298a2ee77a594241aac1d2a5555b7a7e670a3cdfce263a291e17c92f02bf23849243ce OP_CHECKSIG",
            "desc": "pk(04e1d52ebfbd6b197e7c6cd64c1fcae70c0875101c96dfd7dcb196108c67298a2ee77a594241aac1d2a5555b7a7e670a3cdfce263a291e17c92f02bf23849243ce)#jg2sucmr",
            "hex": "4104e1d52ebfbd6b197e7c6cd64c1fcae70c0875101c96dfd7dcb196108c67298a2ee77a594241aac1d2a5555b7a7e670a3cdfce263a291e17c92f02bf23849243ceac",
            "type": "pubkey"
          }
        }
      ],
      "hex": "01000000010000000000000000000000000000000000000000000000000000000000000000ffffffff0804ffff001d025e07ffffffff0100f2052a01000000434104e1d52ebfbd6b197e7c6cd64c1fcae70c0875101c96dfd7dcb196108c67298a2ee77a594241aac1d2a5555b7a7e670a3cdfce263a291e17c92f02bf23849243ceac00000000"
    }
  ]
}