{
  "hash": "000000008d218d6349b08dd2bc22537db48c63304a5d22f72a2f4d89c8f144e3",
  "confirmations": 44223,
  "height": 8875,
  "version": 1,
  "versionHex": "00000001",
  "merkleroot": "ea54eeb59c435e3996a863d75a7a3383ab53dd58c3eb978bf89f07db28801892",
  "time": 1238156748,
  "mediantime": 1238151233,
  "nonce": 2048975635,
  "bits": "1d00ffff",
  "difficulty": 1,
  "chainwork": "000000000000000000000000000000000000000000000000000022ac22ac22ac",
  "nTx": 1,
  "previousblockhash": "000000007ec4b55d56bbcc0b794953348c3d30f43a712450fece691b3515662c",
  "nextblockhash": "00000000e7d3201ca7440a9b084f5c0074a0a3264202d87e1bc796cfda265188",
  "strippedsize": 216,
  "size": 216,
  "weight": 864,
  "tx": [
    {
      "txid": "ea54eeb59c435e3996a863d75a7a3383ab53dd58c3eb978bf89f07db28801892",
      "hash": "ea54eeb59c435e3996a863d75a7a3383ab53dd58c3eb978bf89f07db28801892",
      "version": 1,
      "size": 135,
      "vsize": 135,
      "weight": 540,
      "locktime": 0,
      "vin": [
        {
          "coinbase": "04ffff001d02fc03",
          "sequence": 4294967295
        }
      ],
      "vout": [
        {
          "value": 50.0,
          "n": 0,
          "scriptPubKey": {
            "asm": "04cd6c9b188e70929e1d6d42a885c7a291a1da3af66be7bc232069dd0575fb3a7e1ab4ec3eee2b78506574d082eca55575e758b33462ed5b206a5df3fd7d027fb0 OP_CHECKSIG",
            "desc": "pk(04cd6c9b188e70929e1d6d42a885c7a291a1da3af66be7bc232069dd0575fb3a7e1ab4ec3eee2b78506574d082eca55575e758b33462ed5b206a5df3fd7d027fb0)#zwke5zap",
            "hex": "4104cd6c9b188e70929e1d6d42a885c7a291a1da3af66be7bc232069dd0575fb3a7e1ab4ec3eee2b78506574d082eca55575e758b33462ed5b206a5df3fd7d027fb0ac",
            "type": "pubkey"
          }
        }
      ],
      "hex": "01000000010000000000000000000000000000000000000000000000000000000000000000ffffffff0804ffff001d02fc03ffffffff0100f2052a01000000434104cd6c9b188e70929e1d6d42a885c7a291a1da3af66be7bc232069dd0575fb3a7e1ab4ec3eee2b78506574d082eca55575e758b33462ed5b206a5df3fd7d027fb0ac00000000"
    }
  ]
}