{
  "hash": "000000009acc756a47a300705afab95771cf2b66d76988eddf464016fe3ca89b",
  "confirmations": 46646,
  "height": 6452,
  "version": 1,
  "versionHex": "00000001",
  "merkleroot": "6441c43af0c931a24ca129acb5079d064714b6ef88493b826fb831d885605af2",
  "time": 1236295064,
  "mediantime": 1236291260,
  "nonce": 400870144,
  "bits": "1d00ffff",
  "difficulty": 1,
  "chainwork": "0000000000000000000000000000000000000000000000000000193519351935",
  "nTx": 1,
  "previousblockhash": "000000004c48da009c0e4bde41c3232f593fed898295ebaa2ff27834f0d98572",
  "nextblockhash": "00000000ea45133dfb3c76ffc0e75c4c0c5dcc21fa14ba9998cc8e77d4600d98",
  "strippedsize": 216,
  "size": 216,
  "weight": 864,
  "tx": [
    {
      "txid": "6441c43af0c931a24ca129acb5079d064714b6ef88493b826fb831d885605af2",
      "hash": "6441c43af0c931a24ca129acb5079d064714b6ef88493b826fb831d885605af2",
      "version": 1,
      "size": 135,
      "vsize": 135,
      "weight": 540,
      "locktime": 0,
      "vin": [
        {
          "coinbase": "04ffff001d02a002",
          "sequence": 4294967295
        }
      ],
      "vout": [
        {
          "value": 50.0,
          "n": 0,
          "scriptPubKey": {
            "asm": "04e7913a776b917ff79669f157ec89e7ceb0701724e6b11e62b4774280de6bdcef2d72f5ff4951483bbc433d2194f0a53fe06462646c35ef33f42cebbeb6b336a9 OP_CHECKSIG",
            "desc": "pk(04e7913a776b917ff79669f157ec89e7ceb0701724e6b11e62b4774280de6bdcef2d72f5ff4951483bbc433d2194f0a53fe06462646c35ef33f42cebbeb6b336a9)#33z2hghr",
            "hex": "4104e7913a776b917ff79669f157ec89e7ceb0701724e6b11e62b4774280de6bdcef2d72f5ff4951483bbc433d2194f0a53fe06462646c35ef33f42cebbeb6b336a9ac",
            "type": "pubkey"
          }
        }
      ],
      "hex": "01000000010000000000000000000000000000000000000000000000000000000000000000ffffffff0804ffff001d02a002ffffffff0100f2052a01000000434104e7913a776b917ff79669f157ec89e7ceb0701724e6b11e62b4774280de6bdcef2d72f5ff4951483bbc433d2194f0a53fe06462646c35ef33f42cebbeb6b336a9ac00000000"
    }
  ]
}