{
  "hash": "00000000c535e0f28e371322849ab28abb37ddd9dbe3c2e100302375ecf63fbb",
  "confirmations": 48087,
  "height": 5011,
  "version": 1,
  "versionHex": "00000001",
  "merkleroot": "2c836a80f18492d63299419e64218c15a951ce65891aac64641905e4df71599c",
  "time": 1235143026,
  "mediantime": 1235141226,
  "nonce": 131134520,
  "bits": "1d00ffff",
  "difficulty": 1,
  "chainwork": "0000000000000000000000000000000000000000000000000000139413941394",
  "nTx": 1,
  "previousblockhash": "00000000708927f1d6d2b36335dc00fd53de68fa1f78972a34ed830ba1e42c90",
  "nextblockhash": "00000000cc686b75642b77dc7239109ffab8d22f697f6b4425ab4edc8e0c2250",
  "strippedsize": 216,
  "size": 216,
  "weight": 864,
  "tx": [
    {
      "txid": "2c836a80f18492d63299419e64218c15a951ce65891aac64641905e4df71599c",
      "hash": "2c836a80f18492d63299419e64218c15a951ce65891aac64641905e4df71599c",
      "version": 1,
      "size": 135,
      "vsize": 135,
      "weight": 540,
      "locktime": 0,
      "vin": [
        {
          "coinbase": "04ffff001d022a07",
          "sequence": 4294967295
        }
      ],
      "vout": [
        {
          "value": 50.0,
          "n": 0,
          "scriptPubKey": {
            "asm": "040d9655330288137b02be1064b55d96969a313776051da11fc67f62dddd41d13c90478a08cc95a6199642f27beaa14069f15cd6545bc3994042dbbc10b330a216 OP_CHECKSIG",
            "desc": "pk(040d9655330288137b02be1064b55d96969a313776051da11fc67f62dddd41d13c90478a08cc95a6199642f27beaa14069f15cd6545bc3994042dbbc10b330a216)#fqx5tcpm",
            "hex": "41040d9655330288137b02be1064b55d96969a313776051da11fc67f62dddd41d13c90478a08cc95a6199642f27beaa14069f15cd6545bc3994042dbbc10b330a216ac",
            "type": "pubkey"
          }
        }
      ],
      "hex": "01000000010000000000000000000000000000000000000000000000000000000000000000ffffffff0804ffff001d022a07ffffffff0100f2052a010000004341040d9655330288137b02be1064b55d96969a313776051da11fc67f62dddd41d13c90478a08cc95a6199642f27beaa14069f15cd6545bc3994042dbbc10b330a216ac00000000"
    }
  ]
}