{
  "hash": "00000000986aeca27988ca4a2f456d53fc8ff3a6976cdefb97a7bc172dfb8c12",
  "confirmations": 51896,
  "height": 1202,
  "version": 1,
  "versionHex": "00000001",
  "merkleroot": "aba311a776b374dd53341cf93998c0e18fa0efcbd010f465820248826409d368",
  "time": 1232502483,
  "mediantime": 1232497626,
  "nonce": 1647494948,
  "bits": "1d00ffff",
  "difficulty": 1,
  "chainwork": "000000000000000000000000000000000000000000000000000004b304b304b3",
  "nTx": 1,
  "previousblockhash": "00000000e6fbf1fd197e80e1e738ecd5890cb6e038b6ba32484adfad3c335921",
  "nextblockhash": "00000000eeafc92caf8a697abafaaf35474f557392aab520d1867569801251ed",
  "strippedsize": 216,
  "size": 216,
  "weight": 864,
  "tx": [
    {
      "txid": "aba311a776b374dd53341cf93998c0e18fa0efcbd010f465820248826409d368",
      "hash": "aba311a776b374dd53341cf93998c0e18fa0efcbd010f465820248826409d368",
      "version": 1,
      "size": 135,
      "vsize": 135,
      "weight": 540,
      "locktime": 0,
      "vin": [
        {
          "coinbase": "04ffff001d02b308",
          "sequence": 4294967295
        }
      ],
      "vout": [
        {
          "value": 50.0,
          "n": 0,
          "scriptPubKey": {
            "asm": "0411801cdda51c8d1e0aa2ac1e1ffc1084ec5a7bff2c628172c35176b779e7c2a8191382b88e9425df6868247b740f47297d49893530334ca1dd5913d0fe0a5196 OP_CHECKSIG",
            "desc": "pk(0411801cdda51c8d1e0aa2ac1e1ffc1084ec5a7bff2c628172c35176b779e7c2a8191382b88e9425df6868247b740f47297d49893530334ca1dd5913d0fe0a5196)#cqgseh8a",
            "hex": "410411801cdda51c8d1e0aa2ac1e1ffc1084ec5a7bff2c628172c35176b779e7c2a8191382b88e9425df6868247b740f47297d49893530334ca1dd5913d0fe0a5196ac",
            "type": "pubkey"
          }
        }
      ],
      "hex": "01000000010000000000000000000000000000000000000000000000000000000000000000ffffffff0804ffff001d02b308ffffffff0100f2052a0100000043410411801cdda51c8d1e0aa2ac1e1ffc1084ec5a7bff2c628172c35176b779e7c2a8191382b88e9425df6868247b740f47297d49893530334ca1dd5913d0fe0a5196ac00000000"
    }
  ]
}