{
  "hash": "000000008ed1ebb5f9eeaec3ec58d49ffb4a50e32abbfa93a931dd9e52eca983",
  "confirmations": 45864,
  "height": 7234,
  "version": 1,
  "versionHex": "00000001",
  "merkleroot": "f83c62bc4974dd6650b48542fa84d50300b03c95b57e071462c903a7de34af99",
  "time": 1236894784,
  "mediantime": 1236891954,
  "nonce": 2154383666,
  "bits": "1d00ffff",
  "difficulty": 1,
  "chainwork": "00000000000000000000000000000000000000000000000000001c431c431c43",
  "nTx": 1,
  "previousblockhash": "00000000d33ba642f396bb1372dfd23a7936e490799ed3d90c7fbb07d868a65e",
  "nextblockhash": "00000000e0b065f06b321953224a714423492fbff921bb732076528d4df7ff70",
  "strippedsize": 216,
  "size": 216,
  "weight": 864,
  "tx": [
    {
      "txid": "f83c62bc4974dd6650b48542fa84d50300b03c95b57e071462c903a7de34af99",
      "hash": "f83c62bc4974dd6650b48542fa84d50300b03c95b57e071462c903a7de34af99",
      "version": 1,
      "size": 135,
      "vsize": 135,
      "weight": 540,
      "locktime": 0,
      "vin": [
        {
          "coinbase": "04ffff001d022f06",
          "sequence": 4294967295
        }
      ],
      "vout": [
        {
          "value": 50.0,
          "n": 0,
          "scriptPubKey": {
            "asm": "046de85791f3e681fb47938a63f6b56e03b4374fc7094c8752fa611be01ab09e9e1f295715c710b521a4a82901dda58e0b0c3963665c1add8107ebc3d1cc550145 OP_CHECKSIG",
            "desc": "pk(046de85791f3e681fb47938a63f6b56e03b4374fc7094c8752fa611be01ab09e9e1f295715c710b521a4a82901dda58e0b0c3963665c1add8107ebc3d1cc550145)#30tzvuma",
            "hex": "41046de85791f3e681fb47938a63f6b56e03b4374fc7094c8752fa611be01ab09e9e1f295715c710b521a4a82901dda58e0b0c3963665c1add8107ebc3d1cc550145ac",
            "type": "pubkey"
          }
        }
      ],
      "hex": "01000000010000000000000000000000000000000000000000000000000000000000000000ffffffff0804ffff001d022f06ffffffff0100f2052a010000004341046de85791f3e681fb47938a63f6b56e03b4374fc7094c8752fa611be01ab09e9e1f295715c710b521a4a82901dda58e0b0c3963665c1add8107ebc3d1cc550145ac00000000"
    }
  ]
}