{
  "hash": "00000000464dd5c231f204d38a9f785e3c3b45981cd49d546ca8724b41d4f513",
  "confirmations": 45074,
  "height": 8024,
  "version": 1,
  "versionHex": "00000001",
  "merkleroot": "e01a397218387c57742c5ec1d4360e945b9484465ac26ed33981afaeaf1daf34",
  "time": 1237480546,
  "mediantime": 1237475917,
  "nonce": 2257010711,
  "bits": "1d00ffff",
  "difficulty": 1,
  "chainwork": "00000000000000000000000000000000000000000000000000001f591f591f59",
  "nTx": 1,
  "previousblockhash": "0000000052033fc64a330d6083e0d78bf47b0cc286e061179800b569d78b7085",
  "nextblockhash": "00000000c349693d1a5810e458f67e2d688bbd8cbd81ce50b8628794d94d8b12",
  "strippedsize": 216,
  "size": 216,
  "weight": 864,
  "tx": [
    {
      "txid": "e01a397218387c57742c5ec1d4360e945b9484465ac26ed33981afaeaf1daf34",
      "hash": "e01a397218387c57742c5ec1d4360e945b9484465ac26ed33981afaeaf1daf34",
      "version": 1,
      "size": 135,
      "vsize": 135,
      "weight": 540,
      "locktime": 0,
      "vin": [
        {
          "coinbase": "04ffff001d02ea09",
          "sequence": 4294967295
        }
      ],
      "vout": [
        {
          "value": 50.0,
          "n": 0,
          "scriptPubKey": {
            "asm": "048397690235964c85198b8aadccbd88442ce24ec3cd02e6c4167ef8b5218546b90f95a6402b823f471229f8977f8311191084b950aa9025fe63ebc989074c4382 OP_CHECKSIG",
            "desc": "pk(048397690235964c85198b8aadccbd88442ce24ec3cd02e6c4167ef8b5218546b90f95a6402b823f471229f8977f8311191084b950aa9025fe63ebc989074c4382)#yqq89c5a",
            "hex": "41048397690235964c85198b8aadccbd88442ce24ec3cd02e6c4167ef8b5218546b90f95a6402b823f471229f8977f8311191084b950aa9025fe63ebc989074c4382ac",
            "type": "pubkey"
          }
        }
      ],
      "hex": "01000000010000000000000000000000000000000000000000000000000000000000000000ffffffff0804ffff001d02ea09ffffffff0100f2052a010000004341048397690235964c85198b8aadccbd88442ce24ec3cd02e6c4167ef8b5218546b90f95a6402b823f471229f8977f8311191084b950aa9025fe63ebc989074c4382ac00000000"
    }
  ]
}