{
  "hash": "0000000008e647742775a230787d66fdf92c46a48c896bfbc85cdc8acc67e87d",
  "confirmations": 52099,
  "height": 999,
  "version": 1,
  "versionHex": "00000001",
  "merkleroot": "03879c45c753febae19949a033fe18d6ac998994e8fe012fc381e2558c5891cb",
  "time": 1232346443,
  "mediantime": 1232344489,
  "nonce": 113625074,
  "bits": "1d00ffff",
  "difficulty": 1,
  "chainwork": "000000000000000000000000000000000000000000000000000003e803e803e8",
  "nTx": 1,
  "previousblockhash": "000000003b2cfccabec62b1f874ee8e8e3c481a7e78d5188d7777fbbb948f1a0",
  "nextblockhash": "00000000c937983704a73af28acdec37b049d214adbda81d7e2a3dd146f6ed09",
  "strippedsize": 216,
  "size": 216,
  "weight": 864,
  "tx": [
    {
      "txid": "03879c45c753febae19949a033fe18d6ac998994e8fe012fc381e2558c5891cb",
      "hash": "03879c45c753febae19949a033fe18d6ac998994e8fe012fc381e2558c5891cb",
      "version": 1,
      "size": 135,
      "vsize": 135,
      "weight": 540,
      "locktime": 0,
      "vin": [
        {
          "coinbase": "04ffff001d021e01",
          "sequence": 4294967295
        }
      ],
      "vout": [
        {
          "value": 50.0,
          "n": 0,
          "scriptPubKey": {
            "asm": "046c734ee6851fe4929b312386b5a772991e50bafac7837abec5d2c19444c8afbec3828688152b9adc12e785cf21ee30bb3f8fc222315a3f70b78f179d7f2db572 OP_CHECKSIG",
            "desc": "pk(046c734ee6851fe4929b312386b5a772991e50bafac7837abec5d2c19444c8afbec3828688152b9adc12e785cf21ee30bb3f8fc222315a3f70b78f179d7f2db572)#vyq2efrv",
            "hex": "41046c734ee6851fe4929b312386b5a772991e50bafac7837abec5d2c19444c8afbec3828688152b9adc12e785cf21ee30bb3f8fc222315a3f70b78f179d7f2db572ac",
            "type": "pubkey"
          }
        }
      ],
      "hex": "01000000010000000000000000000000000000000000000000000000000000000000000000ffffffff0804ffff001d021e01ffffffff0100f2052a010000004341046c734ee6851fe4929b312386b5a772991e50bafac7837abec5d2c19444c8afbec3828688152b9adc12e785cf21ee30bb3f8fc222315a3f70b78f179d7f2db572ac00000000"
    }
  ]
}