{
  "hash": "00000000a6657c121ed645db8a0e48cec4fde2f4a020d7322dc62071d8f8bc2e",
  "confirmations": 52378,
  "height": 720,
  "version": 1,
  "versionHex": "00000001",
  "merkleroot": "2a5726687859bb1ec8a8cfeac78db8fa16b5b1c31e85be9c9812dfed68df43ea",
  "time": 1232125633,
  "mediantime": 1232120951,
  "nonce": 33298207,
  "bits": "1d00ffff",
  "difficulty": 1,
  "chainwork": "000000000000000000000000000000000000000000000000000002d102d102d1",
  "nTx": 1,
  "previousblockhash": "0000000090fd8059294d0cf84fd0278e8c618ca0ad09f712c0ec6c22fc216df0",
  "nextblockhash": "000000005443178dfe42ea11ff3588d9b404c2584e886d3c0d798d4e9a67ae5a",
  "strippedsize": 215,
  "size": 215,
  "weight": 860,
  "tx": [
    {
      "txid": "2a5726687859bb1ec8a8cfeac78db8fa16b5b1c31e85be9c9812dfed68df43ea",
      "hash": "2a5726687859bb1ec8a8cfeac78db8fa16b5b1c31e85be9c9812dfed68df43ea",
      "version": 1,
      "size": 134,
      "vsize": 134,
      "weight": 536,
      "locktime": 0,
      "vin": [
        {
          "coinbase": "04ffff001d015b",
          "sequence": 4294967295
        }
      ],
      "vout": [
        {
          "value": 50.0,
          "n": 0,
          "scriptPubKey": {
            "asm": "0415ca91c387efac4ea86f0196b2a1d831f75a488f115055636f0022c51df508197ad4fc31f553d48052b05b0a3b6030a84a0441adae97734129bb8ea0ddfd4004 OP_CHECKSIG",
            "desc": "pk(0415ca91c387efac4ea86f0196b2a1d831f75a488f115055636f0022c51df508197ad4fc31f553d48052b05b0a3b6030a84a0441adae97734129bb8ea0ddfd4004)#wphmt6xg",
            "hex": "410415ca91c387efac4ea86f0196b2a1d831f75a488f115055636f0022c51df508197ad4fc31f553d48052b05b0a3b6030a84a0441adae97734129bb8ea0ddfd4004ac",
            "type": "pubkey"
          }
        }
      ],
      "hex": "01000000010000000000000000000000000000000000000000000000000000000000000000ffffffff0704ffff001d015bffffffff0100f2052a0100000043410415ca91c387efac4ea86f0196b2a1d831f75a488f115055636f0022c51df508197ad4fc31f553d48052b05b0a3b6030a84a0441adae97734129bb8ea0ddfd4004ac00000000"
    }
  ]
}