{
  "hash": "00000000812a68cab38022bad2a966e01cce1704ab870bfaa3bcd68df2a86daf",
  "confirmations": 45020,
  "height": 8078,
  "version": 1,
  "versionHex": "00000001",
  "merkleroot": "348d5eacd885afbb7ea989aa068c6ab7e2ccb266ca8084f5cfa2ed75f4dcbb06",
  "time": 1237515828,
  "mediantime": 1237514086,
  "nonce": 4104246841,
  "bits": "1d00ffff",
  "difficulty": 1,
  "chainwork": "00000000000000000000000000000000000000000000000000001f8f1f8f1f8f",
  "nTx": 1,
  "previousblockhash": "00000000c4b151af424176b62bbea5fceb2220916d04c29736c8219b8cc7c0c4",
  "nextblockhash": "000000004cd838ab97d7529e8e03a17fdee9dcc197c225093dec1c5250325105",
  "strippedsize": 216,
  "size": 216,
  "weight": 864,
  "tx": [
    {
      "txid": "348d5eacd885afbb7ea989aa068c6ab7e2ccb266ca8084f5cfa2ed75f4dcbb06",
      "hash": "348d5eacd885afbb7ea989aa068c6ab7e2ccb266ca8084f5cfa2ed75f4dcbb06",
      "version": 1,
      "size": 135,
      "vsize": 135,
      "weight": 540,
      "locktime": 0,
      "vin": [
        {
          "coinbase": "04ffff001d02c500",
          "sequence": 4294967295
        }
      ],
      "vout": [
        {
          "value": 50.0,
          "n": 0,
          "scriptPubKey": {
            "asm": "04042785a66ab3f45b5b9af36ac3af06a95fc98044c4c6d49da51b6bfac6dd975abe6cade550773f59e61ca8e271152519a651aae0db698b30b66ebbfb803fd567 OP_CHECKSIG",
            "desc": "pk(04042785a66ab3f45b5b9af36ac3af06a95fc98044c4c6d49da51b6bfac6dd975abe6cade550773f59e61ca8e271152519a651aae0db698b30b66ebbfb803fd567)#sm9e6l0t",
            "hex": "4104042785a66ab3f45b5b9af36ac3af06a95fc98044c4c6d49da51b6bfac6dd975abe6cade550773f59e61ca8e271152519a651aae0db698b30b66ebbfb803fd567ac",
            "type": "pubkey"
          }
        }
      ],
      "hex": "01000000010000000000000000000000000000000000000000000000000000000000000000ffffffff0804ffff001d02c500ffffffff0100f2052a01000000434104042785a66ab3f45b5b9af36ac3af06a95fc98044c4c6d49da51b6bfac6dd975abe6cade550773f59e61ca8e271152519a651aae0db698b30b66ebbfb803fd567ac00000000"
    }
  ]
}