{
  "hash": "000000007f6a6d00793ede59bcc8956df1667a82f3ea95811d2e07e449d75710",
  "confirmations": 43158,
  "height": 9940,
  "version": 1,
  "versionHex": "00000001",
  "merkleroot": "fc510d1b9f1f7a2ceda1a88fa229a946941df806327af6bd81f9b04ac5e4d22b",
  "time": 1238947978,
  "mediantime": 1238945435,
  "nonce": 1851584033,
  "bits": "1d00ffff",
  "difficulty": 1,
  "chainwork": "000000000000000000000000000000000000000000000000000026d526d526d5",
  "nTx": 1,
  "previousblockhash": "00000000220d3c67d4cf9a9aff38eeda2170b0fa30ffd922e3ed7ff58a59a2ed",
  "nextblockhash": "00000000a5b941282b2f31dc3bc772244eb8715b5a139113b8bc7315a1d0fb92",
  "strippedsize": 216,
  "size": 216,
  "weight": 864,
  "tx": [
    {
      "txid": "fc510d1b9f1f7a2ceda1a88fa229a946941df806327af6bd81f9b04ac5e4d22b",
      "hash": "fc510d1b9f1f7a2ceda1a88fa229a946941df806327af6bd81f9b04ac5e4d22b",
      "version": 1,
      "size": 135,
      "vsize": 135,
      "weight": 540,
      "locktime": 0,
      "vin": [
        {
          "coinbase": "04ffff001d029502",
          "sequence": 4294967295
        }
      ],
      "vout": [
        {
          "value": 50.0,
          "n": 0,
          "scriptPubKey": {
            "asm": "0416732cd4910111760e13715ff03153aae1295b372a78ca939c40a9038730b47e57b94db8e1c51fe260bf12ca27964374386d19c87cb271390bd00482b5af6420 OP_CHECKSIG",
            "desc": "pk(0416732cd4910111760e13715ff03153aae1295b372a78ca939c40a9038730b47e57b94db8e1c51fe260bf12ca27964374386d19c87cb271390bd00482b5af6420)#fu735n90",
            "hex": "410416732cd4910111760e13715ff03153aae1295b372a78ca939c40a9038730b47e57b94db8e1c51fe260bf12ca27964374386d19c87cb271390bd00482b5af6420ac",
            "type": "pubkey"
          }
        }
      ],
      "hex": "01000000010000000000000000000000000000000000000000000000000000000000000000ffffffff0804ffff001d029502ffffffff0100f2052a0100000043410416732cd4910111760e13715ff03153aae1295b372a78ca939c40a9038730b47e57b94db8e1c51fe260bf12ca27964374386d19c87cb271390bd00482b5af6420ac00000000"
    }
  ]
}