{
  "hash": "000000003131fa71fe82b976a976c05559e98978d57f87649c730bd935e0bb60",
  "confirmations": 48207,
  "height": 4891,
  "version": 1,
  "versionHex": "00000001",
  "merkleroot": "51a10624d276cb6d96693393c1dfdacae626821043565d3e7373164e92e56564",
  "time": 1235064423,
  "mediantime": 1235061283,
  "nonce": 2402340655,
  "bits": "1d00ffff",
  "difficulty": 1,
  "chainwork": "0000000000000000000000000000000000000000000000000000131c131c131c",
  "nTx": 1,
  "previousblockhash": "000000000d850008d6b22db13e0d5d2c167f7d416a460a1e569b16ac216e1658",
  "nextblockhash": "0000000011904919835ba1c5568b33b59ccb2016e494e4e43a46dbfadce59796",
  "strippedsize": 216,
  "size": 216,
  "weight": 864,
  "tx": [
    {
      "txid": "51a10624d276cb6d96693393c1dfdacae626821043565d3e7373164e92e56564",
      "hash": "51a10624d276cb6d96693393c1dfdacae626821043565d3e7373164e92e56564",
      "version": 1,
      "size": 135,
      "vsize": 135,
      "weight": 540,
      "locktime": 0,
      "vin": [
        {
          "coinbase": "04ffff001d029105",
          "sequence": 4294967295
        }
      ],
      "vout": [
        {
          "value": 50.0,
          "n": 0,
          "scriptPubKey": {
            "asm": "04d6e06a78467583e001557a415e6167ea72ee5375671bf101a4ce0ffebe1ad70000b0a2faba12aba8f2370d3d38219fa5e453ab3982930e76dfd1e4b12d20f036 OP_CHECKSIG",
            "desc": "pk(04d6e06a78467583e001557a415e6167ea72ee5375671bf101a4ce0ffebe1ad70000b0a2faba12aba8f2370d3d38219fa5e453ab3982930e76dfd1e4b12d20f036)#qcwtsxsk",
            "hex": "4104d6e06a78467583e001557a415e6167ea72ee5375671bf101a4ce0ffebe1ad70000b0a2faba12aba8f2370d3d38219fa5e453ab3982930e76dfd1e4b12d20f036ac",
            "type": "pubkey"
          }
        }
      ],
      "hex": "01000000010000000000000000000000000000000000000000000000000000000000000000ffffffff0804ffff001d029105ffffffff0100f2052a01000000434104d6e06a78467583e001557a415e6167ea72ee5375671bf101a4ce0ffebe1ad70000b0a2faba12aba8f2370d3d38219fa5e453ab3982930e76dfd1e4b12d20f036ac00000000"
    }
  ]
}