{
  "hash": "000000002fa17e8f97fb9326f280738df4769e7e125b8262d0e07ce1bd43df3a",
  "confirmations": 45152,
  "height": 7946,
  "version": 1,
  "versionHex": "00000001",
  "merkleroot": "454e7d2b049b1769de5d6ff5c6803360f17b95c55b1384242deb73321a87ea8a",
  "time": 1237423952,
  "mediantime": 1237421298,
  "nonce": 30088500,
  "bits": "1d00ffff",
  "difficulty": 1,
  "chainwork": "00000000000000000000000000000000000000000000000000001f0b1f0b1f0b",
  "nTx": 1,
  "previousblockhash": "0000000021d65a95f991084f2da13678dccb6f9ad438812ee0f67571fdb58e7f",
  "nextblockhash": "00000000887a8d2a257aaf81dddc1c8293b269fd7d80ce10579d78d1e5c8c982",
  "strippedsize": 215,
  "size": 215,
  "weight": 860,
  "tx": [
    {
      "txid": "454e7d2b049b1769de5d6ff5c6803360f17b95c55b1384242deb73321a87ea8a",
      "hash": "454e7d2b049b1769de5d6ff5c6803360f17b95c55b1384242deb73321a87ea8a",
      "version": 1,
      "size": 134,
      "vsize": 134,
      "weight": 536,
      "locktime": 0,
      "vin": [
        {
          "coinbase": "04ffff001d0108",
          "sequence": 4294967295
        }
      ],
      "vout": [
        {
          "value": 50.0,
          "n": 0,
          "scriptPubKey": {
            "asm": "043150eaa510a8cb7de0f9f8700cde96b4d0909d46dbc29391bf6a825993771d4b467b449bc37e7aca31d1c2e18c66ca037b7cf1ce17419cef7a164192b4fd8758 OP_CHECKSIG",
            "desc": "pk(043150eaa510a8cb7de0f9f8700cde96b4d0909d46dbc29391bf6a825993771d4b467b449bc37e7aca31d1c2e18c66ca037b7cf1ce17419cef7a164192b4fd8758)#s4tdg88f",
            "hex": "41043150eaa510a8cb7de0f9f8700cde96b4d0909d46dbc29391bf6a825993771d4b467b449bc37e7aca31d1c2e18c66ca037b7cf1ce17419cef7a164192b4fd8758ac",
            "type": "pubkey"
          }
        }
      ],
      "hex": "01000000010000000000000000000000000000000000000000000000000000000000000000ffffffff0704ffff001d0108ffffffff0100f2052a010000004341043150eaa510a8cb7de0f9f8700cde96b4d0909d46dbc29391bf6a825993771d4b467b449bc37e7aca31d1c2e18c66ca037b7cf1ce17419cef7a164192b4fd8758ac00000000"
    }
  ]
}