{
  "hash": "00000000b07fea10b769fe1ae372fd23705f11142c4a7b3627ff04041afc80c5",
  "confirmations": 49821,
  "height": 3277,
  "version": 1,
  "versionHex": "00000001",
  "merkleroot": "3aafc7e1223c98f4759b50dfd9587e3738ea05b1bb4b11e0195ef2c63ba972a0",
  "time": 1233953938,
  "mediantime": 1233951365,
  "nonce": 3525920057,
  "bits": "1d00ffff",
  "difficulty": 1,
  "chainwork": "00000000000000000000000000000000000000000000000000000cce0cce0cce",
  "nTx": 1,
  "previousblockhash": "000000005e76a77d1df74039b6a9df2cfb89fd0a6f1886fb0414ece69e002b73",
  "nextblockhash": "000000007c6f35c2f9c077f5c1ecf761ce8e8c69223d9d2c6c5eae3e0bc6a699",
  "strippedsize": 216,
  "size": 216,
  "weight": 864,
  "tx": [
    {
      "txid": "3aafc7e1223c98f4759b50dfd9587e3738ea05b1bb4b11e0195ef2c63ba972a0",
      "hash": "3aafc7e1223c98f4759b50dfd9587e3738ea05b1bb4b11e0195ef2c63ba972a0",
      "version": 1,
      "size": 135,
      "vsize": 135,
      "weight": 540,
      "locktime": 0,
      "vin": [
        {
          "coinbase": "04ffff001d02eb03",
          "sequence": 4294967295
        }
      ],
      "vout": [
        {
          "value": 50.0,
          "n": 0,
          "scriptPubKey": {
            "asm": "0411ca1f41c48e171f0886fbcdf99aff436a679b22aa7d7afeee3f283df40fde5c522275b30de4bf486a0d3984543d2792d9e6610a7f27d659815eee916d1685ee OP_CHECKSIG",
            "desc": "pk(0411ca1f41c48e171f0886fbcdf99aff436a679b22aa7d7afeee3f283df40fde5c522275b30de4bf486a0d3984543d2792d9e6610a7f27d659815eee916d1685ee)#u7vkhuku",
            "hex": "410411ca1f41c48e171f0886fbcdf99aff436a679b22aa7d7afeee3f283df40fde5c522275b30de4bf486a0d3984543d2792d9e6610a7f27d659815eee916d1685eeac",
            "type": "pubkey"
          }
        }
      ],
      "hex": "01000000010000000000000000000000000000000000000000000000000000000000000000ffffffff0804ffff001d02eb03ffffffff0100f2052a0100000043410411ca1f41c48e171f0886fbcdf99aff436a679b22aa7d7afeee3f283df40fde5c522275b30de4bf486a0d3984543d2792d9e6610a7f27d659815eee916d1685eeac00000000"
    }
  ]
}