{
  "hash": "00000000a7f86096839afd4f8a636e702b3312adcb7ea6206e249e3f59f3d93a",
  "confirmations": 50275,
  "height": 2823,
  "version": 1,
  "versionHex": "00000001",
  "merkleroot": "adb073099c1648c59a2581726c30b2eac1c31f2bc0dfb576b6d4860dbdcda1da",
  "time": 1233641557,
  "mediantime": 1233638709,
  "nonce": 1835319864,
  "bits": "1d00ffff",
  "difficulty": 1,
  "chainwork": "00000000000000000000000000000000000000000000000000000b080b080b08",
  "nTx": 1,
  "previousblockhash": "00000000e606b121c9dcb76525a6f3c00f551dd7183fc23c63635597cbe3b783",
  "nextblockhash": "00000000f0394a8c6ccdc1fec741c8e3292bd0d60034fcb58cc74597151c59a7",
  "strippedsize": 216,
  "size": 216,
  "weight": 864,
  "tx": [
    {
      "txid": "adb073099c1648c59a2581726c30b2eac1c31f2bc0dfb576b6d4860dbdcda1da",
      "hash": "adb073099c1648c59a2581726c30b2eac1c31f2bc0dfb576b6d4860dbdcda1da",
      "version": 1,
      "size": 135,
      "vsize": 135,
      "weight": 540,
      "locktime": 0,
      "vin": [
        {
          "coinbase": "04ffff001d025806",
          "sequence": 4294967295
        }
      ],
      "vout": [
        {
          "value": 50.0,
          "n": 0,
          "scriptPubKey": {
            "asm": "0418a5766bfd1f15847112bdcc4511724b9e50df982a672837134fe4801d0fb3b5592da334e872ad2b48c415549d4d976102d7a29b90eacdf70cb8f8daa492700b OP_CHECKSIG",
            "desc": "pk(0418a5766bfd1f15847112bdcc4511724b9e50df982a672837134fe4801d0fb3b5592da334e872ad2b48c415549d4d976102d7a29b90eacdf70cb8f8daa492700b)#vcpv7v9a",
            "hex": "410418a5766bfd1f15847112bdcc4511724b9e50df982a672837134fe4801d0fb3b5592da334e872ad2b48c415549d4d976102d7a29b90eacdf70cb8f8daa492700bac",
            "type": "pubkey"
          }
        }
      ],
      "hex": "01000000010000000000000000000000000000000000000000000000000000000000000000ffffffff0804ffff001d025806ffffffff0100f2052a0100000043410418a5766bfd1f15847112bdcc4511724b9e50df982a672837134fe4801d0fb3b5592da334e872ad2b48c415549d4d976102d7a29b90eacdf70cb8f8daa492700bac00000000"
    }
  ]
}