{
  "hash": "000000004648220d30d699f150e358923678b878a6800b5bfbe72119f9969447",
  "confirmations": 50111,
  "height": 2987,
  "version": 1,
  "versionHex": "00000001",
  "merkleroot": "f1003eb9a282ad3d761b995eea4682c369b1772fa1545469b7726036fc385049",
  "time": 1233752545,
  "mediantime": 1233749788,
  "nonce": 2318417928,
  "bits": "1d00ffff",
  "difficulty": 1,
  "chainwork": "00000000000000000000000000000000000000000000000000000bac0bac0bac",
  "nTx": 1,
  "previousblockhash": "000000000521be186b407165b90a3bc653d30c4ec89c317d23921a940bdb05db",
  "nextblockhash": "0000000036bb59b475092498b2acaffb89d4da42940bea65419638e25a37ff07",
  "strippedsize": 216,
  "size": 216,
  "weight": 864,
  "tx": [
    {
      "txid": "f1003eb9a282ad3d761b995eea4682c369b1772fa1545469b7726036fc385049",
      "hash": "f1003eb9a282ad3d761b995eea4682c369b1772fa1545469b7726036fc385049",
      "version": 1,
      "size": 135,
      "vsize": 135,
      "weight": 540,
      "locktime": 0,
      "vin": [
        {
          "coinbase": "04ffff001d023801",
          "sequence": 4294967295
        }
      ],
      "vout": [
        {
          "value": 50.0,
          "n": 0,
          "scriptPubKey": {
            "asm": "04049456608cd68bd1f7b7971a14157140c1af9e8b746e45808b7fbed6125c4d918e2eae98dc4a7da31c1d3c366e3b8e1223433cd226b684d4ac2a6a66f048df26 OP_CHECKSIG",
            "desc": "pk(04049456608cd68bd1f7b7971a14157140c1af9e8b746e45808b7fbed6125c4d918e2eae98dc4a7da31c1d3c366e3b8e1223433cd226b684d4ac2a6a66f048df26)#mhynpdw0",
            "hex": "4104049456608cd68bd1f7b7971a14157140c1af9e8b746e45808b7fbed6125c4d918e2eae98dc4a7da31c1d3c366e3b8e1223433cd226b684d4ac2a6a66f048df26ac",
            "type": "pubkey"
          }
        }
      ],
      "hex": "01000000010000000000000000000000000000000000000000000000000000000000000000ffffffff0804ffff001d023801ffffffff0100f2052a01000000434104049456608cd68bd1f7b7971a14157140c1af9e8b746e45808b7fbed6125c4d918e2eae98dc4a7da31c1d3c366e3b8e1223433cd226b684d4ac2a6a66f048df26ac00000000"
    }
  ]
}