{
  "hash": "000000001344959fad0372d099b7c038d2a68369d72f8d589905d67282db47e8",
  "confirmations": 51246,
  "height": 1852,
  "version": 1,
  "versionHex": "00000001",
  "merkleroot": "f9675610aa8f3ba3cbf30e9d387bfc5717c933713a1abe0734d806ca93518cb7",
  "time": 1232923424,
  "mediantime": 1232920737,
  "nonce": 611629826,
  "bits": "1d00ffff",
  "difficulty": 1,
  "chainwork": "0000000000000000000000000000000000000000000000000000073d073d073d",
  "nTx": 1,
  "previousblockhash": "0000000047643027ae09b94967a01b33960a45fbda04f06afbfa158974dff321",
  "nextblockhash": "00000000a40a9d672c54ab44bcf8d4826087253203a88f2f7ee51d59a3c97bb8",
  "strippedsize": 216,
  "size": 216,
  "weight": 864,
  "tx": [
    {
      "txid": "f9675610aa8f3ba3cbf30e9d387bfc5717c933713a1abe0734d806ca93518cb7",
      "hash": "f9675610aa8f3ba3cbf30e9d387bfc5717c933713a1abe0734d806ca93518cb7",
      "version": 1,
      "size": 135,
      "vsize": 135,
      "weight": 540,
      "locktime": 0,
      "vin": [
        {
          "coinbase": "04ffff001d029a04",
          "sequence": 4294967295
        }
      ],
      "vout": [
        {
          "value": 50.0,
          "n": 0,
          "scriptPubKey": {
            "asm": "0451cdf131cdf236726b6b3905931778ad436e1010135ac8caeec63129d5e067ff8369955fb3fc234b61e6c065d52e092ea567e4db868429c78e38d4ec2a0352d3 OP_CHECKSIG",
            "desc": "pk(0451cdf131cdf236726b6b3905931778ad436e1010135ac8caeec63129d5e067ff8369955fb3fc234b61e6c065d52e092ea567e4db868429c78e38d4ec2a0352d3)#plnl9dfm",
            "hex": "410451cdf131cdf236726b6b3905931778ad436e1010135ac8caeec63129d5e067ff8369955fb3fc234b61e6c065d52e092ea567e4db868429c78e38d4ec2a0352d3ac",
            "type": "pubkey"
          }
        }
      ],
      "hex": "01000000010000000000000000000000000000000000000000000000000000000000000000ffffffff0804ffff001d029a04ffffffff0100f2052a0100000043410451cdf131cdf236726b6b3905931778ad436e1010135ac8caeec63129d5e067ff8369955fb3fc234b61e6c065d52e092ea567e4db868429c78e38d4ec2a0352d3ac00000000"
    }
  ]
}