{
  "hash": "000000008d9b5010b996bbab558e88e9fe8a8b42751dfcaa79217f9a66642e65",
  "confirmations": 52232,
  "height": 492,
  "version": 1,
  "versionHex": "00000001",
  "merkleroot": "fd65bf41342e136824478ff793ec6af047e30300b25e3a5b5e8ba662a9ecf29f",
  "time": 1231963006,
  "mediantime": 1231959983,
  "nonce": 1179073569,
  "bits": "1d00ffff",
  "difficulty": 1,
  "chainwork": "000000000000000000000000000000000000000000000000000001ed01ed01ed",
  "nTx": 1,
  "previousblockhash": "00000000244c1b0da1196b989d7557168c5e1b4253f253f2aa8bffd05c7f67b4",
  "nextblockhash": "0000000008884067dbe80128da09a16315bb208a69e9894287a3c9e0fb671f8b",
  "strippedsize": 216,
  "size": 216,
  "weight": 864,
  "tx": [
    {
      "txid": "fd65bf41342e136824478ff793ec6af047e30300b25e3a5b5e8ba662a9ecf29f",
      "hash": "fd65bf41342e136824478ff793ec6af047e30300b25e3a5b5e8ba662a9ecf29f",
      "version": 1,
      "size": 135,
      "vsize": 135,
      "weight": 540,
      "locktime": 0,
      "vin": [
        {
          "coinbase": "04ffff001d025f04",
          "sequence": 4294967295
        }
      ],
      "vout": [
        {
          "value": 50.0,
          "n": 0,
          "scriptPubKey": {
            "asm": "04404d142edc57a45df4e5622cc3d3d2ada0bd748298d92092d86f8114f7bf73119225789046ac3ef2a69080b0bf50e329e474cbbf50fad7b2b9540698ec763087 OP_CHECKSIG",
            "desc": "pk(04404d142edc57a45df4e5622cc3d3d2ada0bd748298d92092d86f8114f7bf73119225789046ac3ef2a69080b0bf50e329e474cbbf50fad7b2b9540698ec763087)#vl9zguhp",
            "hex": "4104404d142edc57a45df4e5622cc3d3d2ada0bd748298d92092d86f8114f7bf73119225789046ac3ef2a69080b0bf50e329e474cbbf50fad7b2b9540698ec763087ac",
            "type": "pubkey"
          }
        }
      ],
      "hex": "01000000010000000000000000000000000000000000000000000000000000000000000000ffffffff0804ffff001d025f04ffffffff0100f2052a01000000434104404d142edc57a45df4e5622cc3d3d2ada0bd748298d92092d86f8114f7bf73119225789046ac3ef2a69080b0bf50e329e474cbbf50fad7b2b9540698ec763087ac00000000"
    }
  ]
}