{
  "hash": "0000000002b3c97bd8b0c73b03b9dcdf25353fcd9114c7ad99b249fda0025f99",
  "confirmations": 46767,
  "height": 6331,
  "version": 1,
  "versionHex": "00000001",
  "merkleroot": "0488bd7e36fd7c9391956e571608a4890f64bb6204856abd3d6b6c18bc214281",
  "time": 1236198047,
  "mediantime": 1236194386,
  "nonce": 55284039,
  "bits": "1d00ffff",
  "difficulty": 1,
  "chainwork": "000000000000000000000000000000000000000000000000000018bc18bc18bc",
  "nTx": 1,
  "previousblockhash": "000000006fc3e77516953428d1a272253b9cce64995145e6fee03cccc794a75a",
  "nextblockhash": "000000005e440ced458ed300e09b98f94a913a7b4ef196df009a8055f267d22b",
  "strippedsize": 216,
  "size": 216,
  "weight": 864,
  "tx": [
    {
      "txid": "0488bd7e36fd7c9391956e571608a4890f64bb6204856abd3d6b6c18bc214281",
      "hash": "0488bd7e36fd7c9391956e571608a4890f64bb6204856abd3d6b6c18bc214281",
      "version": 1,
      "size": 135,
      "vsize": 135,
      "weight": 540,
      "locktime": 0,
      "vin": [
        {
          "coinbase": "04ffff001d02af00",
          "sequence": 4294967295
        }
      ],
      "vout": [
        {
          "value": 50.0,
          "n": 0,
          "scriptPubKey": {
            "asm": "04e855a6bda439f9b5df878e237cce3e12492b5ec4e7a169e9e69bb5948e9bbfabbc028d116e197033eee0f48b6ba64932ff253384a9976381d6d483dc8f81d5c2 OP_CHECKSIG",
            "desc": "pk(04e855a6bda439f9b5df878e237cce3e12492b5ec4e7a169e9e69bb5948e9bbfabbc028d116e197033eee0f48b6ba64932ff253384a9976381d6d483dc8f81d5c2)#tvlj200k",
            "hex": "4104e855a6bda439f9b5df878e237cce3e12492b5ec4e7a169e9e69bb5948e9bbfabbc028d116e197033eee0f48b6ba64932ff253384a9976381d6d483dc8f81d5c2ac",
            "type": "pubkey"
          }
        }
      ],
      "hex": "01000000010000000000000000000000000000000000000000000000000000000000000000ffffffff0804ffff001d02af00ffffffff0100f2052a01000000434104e855a6bda439f9b5df878e237cce3e12492b5ec4e7a169e9e69bb5948e9bbfabbc028d116e197033eee0f48b6ba64932ff253384a9976381d6d483dc8f81d5c2ac00000000"
    }
  ]
}