{
  "hash": "00000000a1c399b788ce10f273b62831ba6ba63b799a3079aa2c886414f4bbb4",
  "confirmations": 44628,
  "height": 8470,
  "version": 1,
  "versionHex": "00000001",
  "merkleroot": "70832e953873e334a1296ecc71a87e551e0006a201f297899947fb3e9aa8fe46",
  "time": 1237846073,
  "mediantime": 1237841771,
  "nonce": 3295243292,
  "bits": "1d00ffff",
  "difficulty": 1,
  "chainwork": "0000000000000000000000000000000000000000000000000000211721172117",
  "nTx": 1,
  "previousblockhash": "00000000851624ac180d0f9a3a177284acef027c12821b0905c8b5c2e50e4e34",
  "nextblockhash": "000000005ad203e8aa4c00fe3ccc9097b33c893d04b46e1f35f210aea77b2ba7",
  "strippedsize": 216,
  "size": 216,
  "weight": 864,
  "tx": [
    {
      "txid": "70832e953873e334a1296ecc71a87e551e0006a201f297899947fb3e9aa8fe46",
      "hash": "70832e953873e334a1296ecc71a87e551e0006a201f297899947fb3e9aa8fe46",
      "version": 1,
      "size": 135,
      "vsize": 135,
      "weight": 540,
      "locktime": 0,
      "vin": [
        {
          "coinbase": "04ffff001d022507",
          "sequence": 4294967295
        }
      ],
      "vout": [
        {
          "value": 50.0,
          "n": 0,
          "scriptPubKey": {
            "asm": "043a2524063060f1f9f9e33214bfe06c5d695c86b9c383b3e030a79c35b54f789bf7e7b2c1b25c95f76a3f0694ce449c591ed430fc38a0ac52733c9afb58e12fff OP_CHECKSIG",
            "desc": "pk(043a2524063060f1f9f9e33214bfe06c5d695c86b9c383b3e030a79c35b54f789bf7e7b2c1b25c95f76a3f0694ce449c591ed430fc38a0ac52733c9afb58e12fff)#947k7fzq",
            "hex": "41043a2524063060f1f9f9e33214bfe06c5d695c86b9c383b3e030a79c35b54f789bf7e7b2c1b25c95f76a3f0694ce449c591ed430fc38a0ac52733c9afb58e12fffac",
            "type": "pubkey"
          }
        }
      ],
      "hex": "01000000010000000000000000000000000000000000000000000000000000000000000000ffffffff0804ffff001d022507ffffffff0100f2052a010000004341043a2524063060f1f9f9e33214bfe06c5d695c86b9c383b3e030a79c35b54f789bf7e7b2c1b25c95f76a3f0694ce449c591ed430fc38a0ac52733c9afb58e12fffac00000000"
    }
  ]
}