{
  "hash": "000000006815fb54c6c4871d67a80a3f4af24ae4032198b66753170d75cec02c",
  "confirmations": 52403,
  "height": 695,
  "version": 1,
  "versionHex": "00000001",
  "merkleroot": "a29ae012c453df9daee68740a884b11acde03b0c0ea3f3248887e3beb6695b5b",
  "time": 1232104729,
  "mediantime": 1232100266,
  "nonce": 578632248,
  "bits": "1d00ffff",
  "difficulty": 1,
  "chainwork": "000000000000000000000000000000000000000000000000000002b802b802b8",
  "nTx": 1,
  "previousblockhash": "00000000dd5f6e368fdc0d79b77c69b5629995363667d711a02643d7a46e4e23",
  "nextblockhash": "00000000438ef100a73793939192b5d3b2b6efb59ee0e60bed3a3f599027ada6",
  "strippedsize": 216,
  "size": 216,
  "weight": 864,
  "tx": [
    {
      "txid": "a29ae012c453df9daee68740a884b11acde03b0c0ea3f3248887e3beb6695b5b",
      "hash": "a29ae012c453df9daee68740a884b11acde03b0c0ea3f3248887e3beb6695b5b",
      "version": 1,
      "size": 135,
      "vsize": 135,
      "weight": 540,
      "locktime": 0,
      "vin": [
        {
          "coinbase": "04ffff001d02e900",
          "sequence": 4294967295
        }
      ],
      "vout": [
        {
          "value": 50.0,
          "n": 0,
          "scriptPubKey": {
            "asm": "0417aa0dc01a51b471b6f8c2bc19368883cc997d6183adb278877c1b17c560f4b5b6c702bf986fa189c63dc81f00195bb6bdfc8b49fb9123212fbb32e3b7cd52f3 OP_CHECKSIG",
            "desc": "pk(0417aa0dc01a51b471b6f8c2bc19368883cc997d6183adb278877c1b17c560f4b5b6c702bf986fa189c63dc81f00195bb6bdfc8b49fb9123212fbb32e3b7cd52f3)#eyshzqqu",
            "hex": "410417aa0dc01a51b471b6f8c2bc19368883cc997d6183adb278877c1b17c560f4b5b6c702bf986fa189c63dc81f00195bb6bdfc8b49fb9123212fbb32e3b7cd52f3ac",
            "type": "pubkey"
          }
        }
      ],
      "hex": "01000000010000000000000000000000000000000000000000000000000000000000000000ffffffff0804ffff001d02e900ffffffff0100f2052a0100000043410417aa0dc01a51b471b6f8c2bc19368883cc997d6183adb278877c1b17c560f4b5b6c702bf986fa189c63dc81f00195bb6bdfc8b49fb9123212fbb32e3b7cd52f3ac00000000"
    }
  ]
}