{
  "hash": "00000000b60efe1822717bdb70ea1bf8e3a33c3d5cb0cf6ff42a96e93368b9fa",
  "confirmations": 52384,
  "height": 714,
  "version": 1,
  "versionHex": "00000001",
  "merkleroot": "cb362ddd8816c5f280e9aabe33a485641075e556ac96816e1d631206a1641ff4",
  "time": 1232119917,
  "mediantime": 1232115216,
  "nonce": 2580056600,
  "bits": "1d00ffff",
  "difficulty": 1,
  "chainwork": "000000000000000000000000000000000000000000000000000002cb02cb02cb",
  "nTx": 1,
  "previousblockhash": "000000001b210aa3f5277e13754df8de4ba97804bab0f0fe370c34f18559bc50",
  "nextblockhash": "00000000c99ff7745c9a2d493a4cb10be61ca52f86ef6a0e805664cdbd68c7d6",
  "strippedsize": 215,
  "size": 215,
  "weight": 860,
  "tx": [
    {
      "txid": "cb362ddd8816c5f280e9aabe33a485641075e556ac96816e1d631206a1641ff4",
      "hash": "cb362ddd8816c5f280e9aabe33a485641075e556ac96816e1d631206a1641ff4",
      "version": 1,
      "size": 134,
      "vsize": 134,
      "weight": 536,
      "locktime": 0,
      "vin": [
        {
          "coinbase": "04ffff001d0109",
          "sequence": 4294967295
        }
      ],
      "vout": [
        {
          "value": 50.0,
          "n": 0,
          "scriptPubKey": {
            "asm": "042dd7d7e75b898db6b0b5871cce89d35f820f444ed5f1dc3600c4509d0b7a9d0a0fe769a09a6d7fc70b0b7c69cb8e373335c6ffdd16f131f063a32ae789b6f799 OP_CHECKSIG",
            "desc": "pk(042dd7d7e75b898db6b0b5871cce89d35f820f444ed5f1dc3600c4509d0b7a9d0a0fe769a09a6d7fc70b0b7c69cb8e373335c6ffdd16f131f063a32ae789b6f799)#8a2n7tmg",
            "hex": "41042dd7d7e75b898db6b0b5871cce89d35f820f444ed5f1dc3600c4509d0b7a9d0a0fe769a09a6d7fc70b0b7c69cb8e373335c6ffdd16f131f063a32ae789b6f799ac",
            "type": "pubkey"
          }
        }
      ],
      "hex": "01000000010000000000000000000000000000000000000000000000000000000000000000ffffffff0704ffff001d0109ffffffff0100f2052a010000004341042dd7d7e75b898db6b0b5871cce89d35f820f444ed5f1dc3600c4509d0b7a9d0a0fe769a09a6d7fc70b0b7c69cb8e373335c6ffdd16f131f063a32ae789b6f799ac00000000"
    }
  ]
}