{
  "hash": "00000000ad574610042954c95b3a5434af0dc728385180d44998a97b224825df",
  "confirmations": 46937,
  "height": 6161,
  "version": 1,
  "versionHex": "00000001",
  "merkleroot": "3e67df1b77e91370d54bb6b249ec1e8cd6340c320661db65c6bafdd36e1e4630",
  "time": 1236060185,
  "mediantime": 1236054265,
  "nonce": 2200461592,
  "bits": "1d00ffff",
  "difficulty": 1,
  "chainwork": "0000000000000000000000000000000000000000000000000000181218121812",
  "nTx": 1,
  "previousblockhash": "0000000068975438bbac81a6b529250759fcb7a5be799b6e90058590b45422b4",
  "nextblockhash": "000000007acfe286492f476652d33298f4989d7f52b01c8cdd5c5c5585f15167",
  "strippedsize": 216,
  "size": 216,
  "weight": 864,
  "tx": [
    {
      "txid": "3e67df1b77e91370d54bb6b249ec1e8cd6340c320661db65c6bafdd36e1e4630",
      "hash": "3e67df1b77e91370d54bb6b249ec1e8cd6340c320661db65c6bafdd36e1e4630",
      "version": 1,
      "size": 135,
      "vsize": 135,
      "weight": 540,
      "locktime": 0,
      "vin": [
        {
          "coinbase": "04ffff001d02ca07",
          "sequence": 4294967295
        }
      ],
      "vout": [
        {
          "value": 50.0,
          "n": 0,
          "scriptPubKey": {
            "asm": "04498f387096dc0fd26a8750cb01b5555f29503566d8fa3b9b7204f79aa78b2735d76a698ea32df298e66851812389bb8ada65293efe6a0075c97843b529269e61 OP_CHECKSIG",
            "desc": "pk(04498f387096dc0fd26a8750cb01b5555f29503566d8fa3b9b7204f79aa78b2735d76a698ea32df298e66851812389bb8ada65293efe6a0075c97843b529269e61)#l36vmf0e",
            "hex": "4104498f387096dc0fd26a8750cb01b5555f29503566d8fa3b9b7204f79aa78b2735d76a698ea32df298e66851812389bb8ada65293efe6a0075c97843b529269e61ac",
            "type": "pubkey"
          }
        }
      ],
      "hex": "01000000010000000000000000000000000000000000000000000000000000000000000000ffffffff0804ffff001d02ca07ffffffff0100f2052a01000000434104498f387096dc0fd26a8750cb01b5555f29503566d8fa3b9b7204f79aa78b2735d76a698ea32df298e66851812389bb8ada65293efe6a0075c97843b529269e61ac00000000"
    }
  ]
}