{
  "hash": "00000000c87f394fb307f295503695bb39c2e3025a910a1e7e84b13126165264",
  "confirmations": 51028,
  "height": 2070,
  "version": 1,
  "versionHex": "00000001",
  "merkleroot": "e856c3050b18bf37c029a89a6081469c64bae4c318cba47b3c9a60bc0a4aaf5c",
  "time": 1233114740,
  "mediantime": 1233109856,
  "nonce": 30234739,
  "bits": "1d00ffff",
  "difficulty": 1,
  "chainwork": "0000000000000000000000000000000000000000000000000000081708170817",
  "nTx": 1,
  "previousblockhash": "00000000ea79bc139ea90db3446daa3cbdcd1a4bac1fdc191743dbae3633368d",
  "nextblockhash": "000000002234ec90ec5f93aed5b57ca339bce76e57690367f713e53be014ccc6",
  "strippedsize": 215,
  "size": 215,
  "weight": 860,
  "tx": [
    {
      "txid": "e856c3050b18bf37c029a89a6081469c64bae4c318cba47b3c9a60bc0a4aaf5c",
      "hash": "e856c3050b18bf37c029a89a6081469c64bae4c318cba47b3c9a60bc0a4aaf5c",
      "version": 1,
      "size": 134,
      "vsize": 134,
      "weight": 536,
      "locktime": 0,
      "vin": [
        {
          "coinbase": "04ffff001d0131",
          "sequence": 4294967295
        }
      ],
      "vout": [
        {
          "value": 50.0,
          "n": 0,
          "scriptPubKey": {
            "asm": "04569669d334c8d0920054f57ab68b463f7141dfb3785d1e32a25d88116ab09598c8014769c298dc7daa55d1246ffe39ad4b7025631cfc958a10a524c4eea34bcd OP_CHECKSIG",
            "desc": "pk(04569669d334c8d0920054f57ab68b463f7141dfb3785d1e32a25d88116ab09598c8014769c298dc7daa55d1246ffe39ad4b7025631cfc958a10a524c4eea34bcd)#apkp5097",
            "hex": "4104569669d334c8d0920054f57ab68b463f7141dfb3785d1e32a25d88116ab09598c8014769c298dc7daa55d1246ffe39ad4b7025631cfc958a10a524c4eea34bcdac",
            "type": "pubkey"
          }
        }
      ],
      "hex": "01000000010000000000000000000000000000000000000000000000000000000000000000ffffffff0704ffff001d0131ffffffff0100f2052a01000000434104569669d334c8d0920054f57ab68b463f7141dfb3785d1e32a25d88116ab09598c8014769c298dc7daa55d1246ffe39ad4b7025631cfc958a10a524c4eea34bcdac00000000"
    }
  ]
}