{
  "hash": "00000000ab7e34e40570e019b8f9f8d3cca13b293244f38b6dd40992ebcdd61f",
  "confirmations": 47308,
  "height": 5790,
  "version": 1,
  "versionHex": "00000001",
  "merkleroot": "1817dd27e325e673221c8e5357f4fbffefbfd272fe0096a650af6bc457635f68",
  "time": 1235752691,
  "mediantime": 1235749426,
  "nonce": 2499593222,
  "bits": "1d00ffff",
  "difficulty": 1,
  "chainwork": "0000000000000000000000000000000000000000000000000000169f169f169f",
  "nTx": 1,
  "previousblockhash": "000000005bf0467f52dbded6b81ae713b4f06d7e99bb0546adcdb6b569b9c5bf",
  "nextblockhash": "00000000afd0652cec563478e46e120efa8166379256370e53466c47ce879859",
  "strippedsize": 216,
  "size": 216,
  "weight": 864,
  "tx": [
    {
      "txid": "1817dd27e325e673221c8e5357f4fbffefbfd272fe0096a650af6bc457635f68",
      "hash": "1817dd27e325e673221c8e5357f4fbffefbfd272fe0096a650af6bc457635f68",
      "version": 1,
      "size": 135,
      "vsize": 135,
      "weight": 540,
      "locktime": 0,
      "vin": [
        {
          "coinbase": "04ffff001d028f00",
          "sequence": 4294967295
        }
      ],
      "vout": [
        {
          "value": 50.0,
          "n": 0,
          "scriptPubKey": {
            "asm": "047b8a40f2b60c23dc01e26819a4459b79b4f4646c8ae47eaeb1b5507ea65e79051b83d14c78d6e0e76b45997f684ad4db3ff8fd1a9d344129b4b52c8b0ee0d88c OP_CHECKSIG",
            "desc": "pk(047b8a40f2b60c23dc01e26819a4459b79b4f4646c8ae47eaeb1b5507ea65e79051b83d14c78d6e0e76b45997f684ad4db3ff8fd1a9d344129b4b52c8b0ee0d88c)#9qkvlnex",
            "hex": "41047b8a40f2b60c23dc01e26819a4459b79b4f4646c8ae47eaeb1b5507ea65e79051b83d14c78d6e0e76b45997f684ad4db3ff8fd1a9d344129b4b52c8b0ee0d88cac",
            "type": "pubkey"
          }
        }
      ],
      "hex": "01000000010000000000000000000000000000000000000000000000000000000000000000ffffffff0804ffff001d028f00ffffffff0100f2052a010000004341047b8a40f2b60c23dc01e26819a4459b79b4f4646c8ae47eaeb1b5507ea65e79051b83d14c78d6e0e76b45997f684ad4db3ff8fd1a9d344129b4b52c8b0ee0d88cac00000000"
    }
  ]
}