{
  "hash": "00000000e3e144a9089a12f84aed842d4cad995e212cc4e8662d1766f8aa3de3",
  "confirmations": 51882,
  "height": 1216,
  "version": 1,
  "versionHex": "00000001",
  "merkleroot": "bef1d7c9dd6adc53dfb445588406d5203fe8ea7b0e4e373eb09dfabcb6191781",
  "time": 1232512290,
  "mediantime": 1232509364,
  "nonce": 9929613,
  "bits": "1d00ffff",
  "difficulty": 1,
  "chainwork": "000000000000000000000000000000000000000000000000000004c104c104c1",
  "nTx": 1,
  "previousblockhash": "0000000032eb03ced956310a68a58e267e343d827adf8baf7c5c7fddce70b848",
  "nextblockhash": "000000003a5b63b85bdf11159dce1ca095e0c5168ef718d2f9e36654992eefc7",
  "strippedsize": 216,
  "size": 216,
  "weight": 864,
  "tx": [
    {
      "txid": "bef1d7c9dd6adc53dfb445588406d5203fe8ea7b0e4e373eb09dfabcb6191781",
      "hash": "bef1d7c9dd6adc53dfb445588406d5203fe8ea7b0e4e373eb09dfabcb6191781",
      "version": 1,
      "size": 135,
      "vsize": 135,
      "weight": 540,
      "locktime": 0,
      "vin": [
        {
          "coinbase": "04ffff001d020c02",
          "sequence": 4294967295
        }
      ],
      "vout": [
        {
          "value": 50.0,
          "n": 0,
          "scriptPubKey": {
            "asm": "04879ebd34da15ee96af9cda3055727cc5d09a0d5f0e9b5c5e8788f4534d23d87daa86bab9469a7dab279c732fcd3c1b12266b3a62134162128c4d6a26f326bbe8 OP_CHECKSIG",
            "desc": "pk(04879ebd34da15ee96af9cda3055727cc5d09a0d5f0e9b5c5e8788f4534d23d87daa86bab9469a7dab279c732fcd3c1b12266b3a62134162128c4d6a26f326bbe8)#zhvjg8y6",
            "hex": "4104879ebd34da15ee96af9cda3055727cc5d09a0d5f0e9b5c5e8788f4534d23d87daa86bab9469a7dab279c732fcd3c1b12266b3a62134162128c4d6a26f326bbe8ac",
            "type": "pubkey"
          }
        }
      ],
      "hex": "01000000010000000000000000000000000000000000000000000000000000000000000000ffffffff0804ffff001d020c02ffffffff0100f2052a01000000434104879ebd34da15ee96af9cda3055727cc5d09a0d5f0e9b5c5e8788f4534d23d87daa86bab9469a7dab279c732fcd3c1b12266b3a62134162128c4d6a26f326bbe8ac00000000"
    }
  ]
}