{
  "hash": "0000000044dd5254c03c119184b8fa2aa777a0afe325ff152ef4dc877277a26a",
  "confirmations": 47536,
  "height": 5562,
  "version": 1,
  "versionHex": "00000001",
  "merkleroot": "4279ee30af4c298761b17186900578c2385b5590c9f9af3dbf03a47bce631d64",
  "time": 1235572287,
  "mediantime": 1235569580,
  "nonce": 66665509,
  "bits": "1d00ffff",
  "difficulty": 1,
  "chainwork": "000000000000000000000000000000000000000000000000000015bb15bb15bb",
  "nTx": 1,
  "previousblockhash": "00000000a84e2c5f5ffe8aeadbe796134a1882e69caf9c2d3ca8eaae4ae5a042",
  "nextblockhash": "00000000f18bd9fbccbdbf97c94b0452572243cf8355ce03204d490ccd19c90f",
  "strippedsize": 215,
  "size": 215,
  "weight": 860,
  "tx": [
    {
      "txid": "4279ee30af4c298761b17186900578c2385b5590c9f9af3dbf03a47bce631d64",
      "hash": "4279ee30af4c298761b17186900578c2385b5590c9f9af3dbf03a47bce631d64",
      "version": 1,
      "size": 134,
      "vsize": 134,
      "weight": 536,
      "locktime": 0,
      "vin": [
        {
          "coinbase": "04ffff001d016f",
          "sequence": 4294967295
        }
      ],
      "vout": [
        {
          "value": 50.0,
          "n": 0,
          "scriptPubKey": {
            "asm": "0443c3bac65d7aef6b1e8fa1a5fee246edf00059bc73c7da236de00462bbb87e6a6db50103311d4bd132d82286d3d117cd9500d4a44990d023413b68fddbec869d OP_CHECKSIG",
            "desc": "pk(0443c3bac65d7aef6b1e8fa1a5fee246edf00059bc73c7da236de00462bbb87e6a6db50103311d4bd132d82286d3d117cd9500d4a44990d023413b68fddbec869d)#64jzyars",
            "hex": "410443c3bac65d7aef6b1e8fa1a5fee246edf00059bc73c7da236de00462bbb87e6a6db50103311d4bd132d82286d3d117cd9500d4a44990d023413b68fddbec869dac",
            "type": "pubkey"
          }
        }
      ],
      "hex": "01000000010000000000000000000000000000000000000000000000000000000000000000ffffffff0704ffff001d016fffffffff0100f2052a0100000043410443c3bac65d7aef6b1e8fa1a5fee246edf00059bc73c7da236de00462bbb87e6a6db50103311d4bd132d82286d3d117cd9500d4a44990d023413b68fddbec869dac00000000"
    }
  ]
}