{
  "hash": "00000000976317d31e8d80cb68f4ce62f32f5e808bc169aceeedcfc65cd4610a",
  "confirmations": 51924,
  "height": 1174,
  "version": 1,
  "versionHex": "00000001",
  "merkleroot": "8386a5861b89bbeb29a7b554078de20aa33a53851ef66811a2c1f9752cfd06d2",
  "time": 1232480358,
  "mediantime": 1232476054,
  "nonce": 4172892203,
  "bits": "1d00ffff",
  "difficulty": 1,
  "chainwork": "0000000000000000000000000000000000000000000000000000049704970497",
  "nTx": 1,
  "previousblockhash": "0000000054ad9ef57703ad41d194197f44048b09cd472badf53a5246a3713222",
  "nextblockhash": "000000008ac1737e8278283841daf67b89b0c23b2bbd2337e22144597e9d17ca",
  "strippedsize": 216,
  "size": 216,
  "weight": 864,
  "tx": [
    {
      "txid": "8386a5861b89bbeb29a7b554078de20aa33a53851ef66811a2c1f9752cfd06d2",
      "hash": "8386a5861b89bbeb29a7b554078de20aa33a53851ef66811a2c1f9752cfd06d2",
      "version": 1,
      "size": 135,
      "vsize": 135,
      "weight": 540,
      "locktime": 0,
      "vin": [
        {
          "coinbase": "04ffff001d022f08",
          "sequence": 4294967295
        }
      ],
      "vout": [
        {
          "value": 50.0,
          "n": 0,
          "scriptPubKey": {
            "asm": "04cd3ffb0293887478e046eada8b4839f4a6fdd25071c5ded6c4a77f3a9c272fb6d8ade46fd176296e2ece8e464abc07d4fbf44c716e621f0fb46ebc0c66f28dc7 OP_CHECKSIG",
            "desc": "pk(04cd3ffb0293887478e046eada8b4839f4a6fdd25071c5ded6c4a77f3a9c272fb6d8ade46fd176296e2ece8e464abc07d4fbf44c716e621f0fb46ebc0c66f28dc7)#5l4gqdk8",
            "hex": "4104cd3ffb0293887478e046eada8b4839f4a6fdd25071c5ded6c4a77f3a9c272fb6d8ade46fd176296e2ece8e464abc07d4fbf44c716e621f0fb46ebc0c66f28dc7ac",
            "type": "pubkey"
          }
        }
      ],
      "hex": "01000000010000000000000000000000000000000000000000000000000000000000000000ffffffff0804ffff001d022f08ffffffff0100f2052a01000000434104cd3ffb0293887478e046eada8b4839f4a6fdd25071c5ded6c4a77f3a9c272fb6d8ade46fd176296e2ece8e464abc07d4fbf44c716e621f0fb46ebc0c66f28dc7ac00000000"
    }
  ]
}