{
  "hash": "000000007acf21ebcc9a0770ed02d59591aae15c763f6127433eb949bc33f945",
  "confirmations": 43607,
  "height": 9491,
  "version": 1,
  "versionHex": "00000001",
  "merkleroot": "f55fafae17e433ef002b818df28260c54571a6a978cff755d87cf2a01d1c0d44",
  "time": 1238622163,
  "mediantime": 1238619857,
  "nonce": 2213994779,
  "bits": "1d00ffff",
  "difficulty": 1,
  "chainwork": "0000000000000000000000000000000000000000000000000000251425142514",
  "nTx": 1,
  "previousblockhash": "000000006e8846211277fb3fb90194fe295e856c6d5a8a8a6d4862ea45d4ce45",
  "nextblockhash": "00000000aed0c1fc5c31ed59240dbe97b4fcb8e38595216a2e7070b15393da51",
  "strippedsize": 216,
  "size": 216,
  "weight": 864,
  "tx": [
    {
      "txid": "f55fafae17e433ef002b818df28260c54571a6a978cff755d87cf2a01d1c0d44",
      "hash": "f55fafae17e433ef002b818df28260c54571a6a978cff755d87cf2a01d1c0d44",
      "version": 1,
      "size": 135,
      "vsize": 135,
      "weight": 540,
      "locktime": 0,
      "vin": [
        {
          "coinbase": "04ffff001d025105",
          "sequence": 4294967295
        }
      ],
      "vout": [
        {
          "value": 50.0,
          "n": 0,
          "scriptPubKey": {
            "asm": "04e8c7fbe1133948b801ab025eb0fab3226f391dc6773521b100e39f0c63823860f0602bc9152915efe571c38a7b602dfa15ccfdce49e665d75e0034ecc4c39621 OP_CHECKSIG",
            "desc": "pk(04e8c7fbe1133948b801ab025eb0fab3226f391dc6773521b100e39f0c63823860f0602bc9152915efe571c38a7b602dfa15ccfdce49e665d75e0034ecc4c39621)#e9ph0m0j",
            "hex": "4104e8c7fbe1133948b801ab025eb0fab3226f391dc6773521b100e39f0c63823860f0602bc9152915efe571c38a7b602dfa15ccfdce49e665d75e0034ecc4c39621ac",
            "type": "pubkey"
          }
        }
      ],
      "hex": "01000000010000000000000000000000000000000000000000000000000000000000000000ffffffff0804ffff001d025105ffffffff0100f2052a01000000434104e8c7fbe1133948b801ab025eb0fab3226f391dc6773521b100e39f0c63823860f0602bc9152915efe571c38a7b602dfa15ccfdce49e665d75e0034ecc4c39621ac00000000"
    }
  ]
}