{
  "hash": "00000000197cdc6baad2f16e42020aeabff0a4fecb9da955e9fc5d05b92e014e",
  "confirmations": 46891,
  "height": 6207,
  "version": 1,
  "versionHex": "00000001",
  "merkleroot": "749d7eddfc600eac5f4ee1367f21ef30a370a256c0e1c518d5a90804a7e35887",
  "time": 1236097127,
  "mediantime": 1236093101,
  "nonce": 71344222,
  "bits": "1d00ffff",
  "difficulty": 1,
  "chainwork": "0000000000000000000000000000000000000000000000000000184018401840",
  "nTx": 1,
  "previousblockhash": "000000009e0f57bcddbafced11db614e839dba4a9070da7afb69ccdeb50b2cb0",
  "nextblockhash": "00000000e8c79d2856b69431bdef722ba62ac6fd5eb31bd3dd4485d020c0b5a2",
  "strippedsize": 215,
  "size": 215,
  "weight": 860,
  "tx": [
    {
      "txid": "749d7eddfc600eac5f4ee1367f21ef30a370a256c0e1c518d5a90804a7e35887",
      "hash": "749d7eddfc600eac5f4ee1367f21ef30a370a256c0e1c518d5a90804a7e35887",
      "version": 1,
      "size": 134,
      "vsize": 134,
      "weight": 536,
      "locktime": 0,
      "vin": [
        {
          "coinbase": "04ffff001d0133",
          "sequence": 4294967295
        }
      ],
      "vout": [
        {
          "value": 50.0,
          "n": 0,
          "scriptPubKey": {
            "asm": "043d4fb73438c39d153544d28887e4fb1b32f84e615b563f6b495e7a82c354abb6ca5b9a3d2a6f3b09a5e5e06fae230ca79dec08c603748743942c83b2ccf6e906 OP_CHECKSIG",
            "desc": "pk(043d4fb73438c39d153544d28887e4fb1b32f84e615b563f6b495e7a82c354abb6ca5b9a3d2a6f3b09a5e5e06fae230ca79dec08c603748743942c83b2ccf6e906)#k36slfp3",
            "hex": "41043d4fb73438c39d153544d28887e4fb1b32f84e615b563f6b495e7a82c354abb6ca5b9a3d2a6f3b09a5e5e06fae230ca79dec08c603748743942c83b2ccf6e906ac",
            "type": "pubkey"
          }
        }
      ],
      "hex": "01000000010000000000000000000000000000000000000000000000000000000000000000ffffffff0704ffff001d0133ffffffff0100f2052a010000004341043d4fb73438c39d153544d28887e4fb1b32f84e615b563f6b495e7a82c354abb6ca5b9a3d2a6f3b09a5e5e06fae230ca79dec08c603748743942c83b2ccf6e906ac00000000"
    }
  ]
}