{
  "hash": "00000000d03abcf627e67ad05fe2893f010e95f668e99fbb55476e4dae07210b",
  "confirmations": 50825,
  "height": 2273,
  "version": 1,
  "versionHex": "00000001",
  "merkleroot": "e38bf933a78865df8cbb609a51004dbc2d136617fa1e21dc4d078870ced8e99f",
  "time": 1233261848,
  "mediantime": 1233258943,
  "nonce": 1338175513,
  "bits": "1d00ffff",
  "difficulty": 1,
  "chainwork": "000000000000000000000000000000000000000000000000000008e208e208e2",
  "nTx": 1,
  "previousblockhash": "00000000bbbf0ae8a56c09877cbc96ff7d3398664a475f10f08d183d7489851e",
  "nextblockhash": "0000000063355349fe8807f7f006b1bbfe4f317ceea33d383c8b18a5ac5fb132",
  "strippedsize": 216,
  "size": 216,
  "weight": 864,
  "tx": [
    {
      "txid": "e38bf933a78865df8cbb609a51004dbc2d136617fa1e21dc4d078870ced8e99f",
      "hash": "e38bf933a78865df8cbb609a51004dbc2d136617fa1e21dc4d078870ced8e99f",
      "version": 1,
      "size": 135,
      "vsize": 135,
      "weight": 540,
      "locktime": 0,
      "vin": [
        {
          "coinbase": "04ffff001d024001",
          "sequence": 4294967295
        }
      ],
      "vout": [
        {
          "value": 50.0,
          "n": 0,
          "scriptPubKey": {
            "asm": "04983eb6d0fe149e30dae83239f5719c7dde5364765e64c6372a23ca37bbc4789e1f3b1c794e7c7fa10ce0d137ce778748b547b763bc6ebfd3758a7121fc4edc0a OP_CHECKSIG",
            "desc": "pk(04983eb6d0fe149e30dae83239f5719c7dde5364765e64c6372a23ca37bbc4789e1f3b1c794e7c7fa10ce0d137ce778748b547b763bc6ebfd3758a7121fc4edc0a)#tfea4fyr",
            "hex": "4104983eb6d0fe149e30dae83239f5719c7dde5364765e64c6372a23ca37bbc4789e1f3b1c794e7c7fa10ce0d137ce778748b547b763bc6ebfd3758a7121fc4edc0aac",
            "type": "pubkey"
          }
        }
      ],
      "hex": "01000000010000000000000000000000000000000000000000000000000000000000000000ffffffff0804ffff001d024001ffffffff0100f2052a01000000434104983eb6d0fe149e30dae83239f5719c7dde5364765e64c6372a23ca37bbc4789e1f3b1c794e7c7fa10ce0d137ce778748b547b763bc6ebfd3758a7121fc4edc0aac00000000"
    }
  ]
}