{
  "hash": "00000000b4e2799499c9e64dfbe13fc772be5e9c1eb284eac1b501710fb48ccb",
  "confirmations": 52013,
  "height": 325,
  "version": 1,
  "versionHex": "00000001",
  "merkleroot": "5f24c920f03072d0e021d1130b6714ecaa3c2c82ac220bfd96db68922675a82f",
  "time": 1231849987,
  "mediantime": 1231846218,
  "nonce": 591732780,
  "bits": "1d00ffff",
  "difficulty": 1,
  "chainwork": "0000000000000000000000000000000000000000000000000000014601460146",
  "nTx": 1,
  "previousblockhash": "000000008c503c6c56dfee6a4ce1091875c8d7d9defe2c72f9eb5db0454f00c7",
  "nextblockhash": "00000000197fab9874dc712a61ca3a9544c9919e299d030851c978bab2dcb4e3",
  "strippedsize": 216,
  "size": 216,
  "weight": 864,
  "tx": [
    {
      "txid": "5f24c920f03072d0e021d1130b6714ecaa3c2c82ac220bfd96db68922675a82f",
      "hash": "5f24c920f03072d0e021d1130b6714ecaa3c2c82ac220bfd96db68922675a82f",
      "version": 1,
      "size": 135,
      "vsize": 135,
      "weight": 540,
      "locktime": 0,
      "vin": [
        {
          "coinbase": "04ffff001d02f300",
          "sequence": 4294967295
        }
      ],
      "vout": [
        {
          "value": 50.0,
          "n": 0,
          "scriptPubKey": {
            "asm": "04fea8a907e86941b48b19f0fcfa33d824d0caaf6beb5fead26e37434190900c93a4bda01eb9cf9b2e1cbd3eb6be12f562dc9b584f4189aef424ba4c250108a1c0 OP_CHECKSIG",
            "desc": "pk(04fea8a907e86941b48b19f0fcfa33d824d0caaf6beb5fead26e37434190900c93a4bda01eb9cf9b2e1cbd3eb6be12f562dc9b584f4189aef424ba4c250108a1c0)#em68lta4",
            "hex": "4104fea8a907e86941b48b19f0fcfa33d824d0caaf6beb5fead26e37434190900c93a4bda01eb9cf9b2e1cbd3eb6be12f562dc9b584f4189aef424ba4c250108a1c0ac",
            "type": "pubkey"
          }
        }
      ],
      "hex": "01000000010000000000000000000000000000000000000000000000000000000000000000ffffffff0804ffff001d02f300ffffffff0100f2052a01000000434104fea8a907e86941b48b19f0fcfa33d824d0caaf6beb5fead26e37434190900c93a4bda01eb9cf9b2e1cbd3eb6be12f562dc9b584f4189aef424ba4c250108a1c0ac00000000"
    }
  ]
}