{
  "hash": "00000000e24b8df3f63b67e6f803950a6bbfee804e21072f891b4257319273ef",
  "confirmations": 52043,
  "height": 185,
  "version": 1,
  "versionHex": "00000001",
  "merkleroot": "31df41cb92e000cfa5f0403bdbe41e5a693b01821b0ee9b9583afeffaf47dcee",
  "time": 1231743578,
  "mediantime": 1231739452,
  "nonce": 2153544987,
  "bits": "1d00ffff",
  "difficulty": 1,
  "chainwork": "000000000000000000000000000000000000000000000000000000ba00ba00ba",
  "nTx": 1,
  "previousblockhash": "00000000ff862f4e3c760fee9666defe2ac0ff026171953558b14421840a2446",
  "nextblockhash": "000000008b3ff2aaf3427f2a624cb9978e687d9fbba5000dc2f52bb4cc82d4be",
  "strippedsize": 215,
  "size": 215,
  "weight": 860,
  "tx": [
    {
      "txid": "31df41cb92e000cfa5f0403bdbe41e5a693b01821b0ee9b9583afeffaf47dcee",
      "hash": "31df41cb92e000cfa5f0403bdbe41e5a693b01821b0ee9b9583afeffaf47dcee",
      "version": 1,
      "size": 134,
      "vsize": 134,
      "weight": 536,
      "locktime": 0,
      "vin": [
        {
          "coinbase": "04ffff001d0111",
          "sequence": 4294967295
        }
      ],
      "vout": [
        {
          "value": 50.0,
          "n": 0,
          "scriptPubKey": {
            "asm": "04002170255782f1405cc0fd2253d15e8561930efcc0aaa6481487f2e799be7b3cca68f50628c10ae963e044c4eb66c1055a84b303fa9fb068700e2af070cfe07e OP_CHECKSIG",
            "desc": "pk(04002170255782f1405cc0fd2253d15e8561930efcc0aaa6481487f2e799be7b3cca68f50628c10ae963e044c4eb66c1055a84b303fa9fb068700e2af070cfe07e)#d93xx7jq",
            "hex": "4104002170255782f1405cc0fd2253d15e8561930efcc0aaa6481487f2e799be7b3cca68f50628c10ae963e044c4eb66c1055a84b303fa9fb068700e2af070cfe07eac",
            "type": "pubkey"
          }
        }
      ],
      "hex": "01000000010000000000000000000000000000000000000000000000000000000000000000ffffffff0704ffff001d0111ffffffff0100f2052a01000000434104002170255782f1405cc0fd2253d15e8561930efcc0aaa6481487f2e799be7b3cca68f50628c10ae963e044c4eb66c1055a84b303fa9fb068700e2af070cfe07eac00000000"
    }
  ]
}