{
  "hash": "00000000060b5a18ae89add85fe374150f8ffbf9d2022080505aefb5d4feadd2",
  "confirmations": 44729,
  "height": 8369,
  "version": 1,
  "versionHex": "00000001",
  "merkleroot": "fea9bc8a99c6f3869404f5eae51916901faa2aceb8337630dfdac72fe4193f48",
  "time": 1237779545,
  "mediantime": 1237776427,
  "nonce": 3034117427,
  "bits": "1d00ffff",
  "difficulty": 1,
  "chainwork": "000000000000000000000000000000000000000000000000000020b220b220b2",
  "nTx": 1,
  "previousblockhash": "00000000748edc031f6bb63cb9c800551f818367604347e1c20c2da1128ac6fb",
  "nextblockhash": "00000000a23eb534ee04e5bc3ad1ad9118e83a50668830b5bd9f278e65a5898e",
  "strippedsize": 216,
  "size": 216,
  "weight": 864,
  "tx": [
    {
      "txid": "fea9bc8a99c6f3869404f5eae51916901faa2aceb8337630dfdac72fe4193f48",
      "hash": "fea9bc8a99c6f3869404f5eae51916901faa2aceb8337630dfdac72fe4193f48",
      "version": 1,
      "size": 135,
      "vsize": 135,
      "weight": 540,
      "locktime": 0,
      "vin": [
        {
          "coinbase": "04ffff001d025f05",
          "sequence": 4294967295
        }
      ],
      "vout": [
        {
          "value": 50.0,
          "n": 0,
          "scriptPubKey": {
            "asm": "048a32e200e844a4a13cca7eeb2001400580f917310ecb7bcbb9cf7a5837941db6fc64f58de90f4a26b6adb9252bd1232dc53816be824f50aee76b985684ea726d OP_CHECKSIG",
            "desc": "pk(048a32e200e844a4a13cca7eeb2001400580f917310ecb7bcbb9cf7a5837941db6fc64f58de90f4a26b6adb9252bd1232dc53816be824f50aee76b985684ea726d)#ns8wzq4l",
            "hex": "41048a32e200e844a4a13cca7eeb2001400580f917310ecb7bcbb9cf7a5837941db6fc64f58de90f4a26b6adb9252bd1232dc53816be824f50aee76b985684ea726dac",
            "type": "pubkey"
          }
        }
      ],
      "hex": "01000000010000000000000000000000000000000000000000000000000000000000000000ffffffff0804ffff001d025f05ffffffff0100f2052a010000004341048a32e200e844a4a13cca7eeb2001400580f917310ecb7bcbb9cf7a5837941db6fc64f58de90f4a26b6adb9252bd1232dc53816be824f50aee76b985684ea726dac00000000"
    }
  ]
}