{
  "hash": "00000000c7d607d0e612e4c1328d8912055b561a448a580d83afa9ca01ad5239",
  "confirmations": 49965,
  "height": 3133,
  "version": 1,
  "versionHex": "00000001",
  "merkleroot": "7560230d30c6e30d4894d79f36fa01abec5bbae44272848df7660f6651f44d58",
  "time": 1233856991,
  "mediantime": 1233852470,
  "nonce": 1321812780,
  "bits": "1d00ffff",
  "difficulty": 1,
  "chainwork": "00000000000000000000000000000000000000000000000000000c3e0c3e0c3e",
  "nTx": 1,
  "previousblockhash": "00000000db88fbddddbdef6505773dda759254a24c0666f126c5c7c1afdc072e",
  "nextblockhash": "000000001ee955645635bf9569c048ca034efef0bb5877f24767c310ea33fd23",
  "strippedsize": 216,
  "size": 216,
  "weight": 864,
  "tx": [
    {
      "txid": "7560230d30c6e30d4894d79f36fa01abec5bbae44272848df7660f6651f44d58",
      "hash": "7560230d30c6e30d4894d79f36fa01abec5bbae44272848df7660f6651f44d58",
      "version": 1,
      "size": 135,
      "vsize": 135,
      "weight": 540,
      "locktime": 0,
      "vin": [
        {
          "coinbase": "04ffff001d02b201",
          "sequence": 4294967295
        }
      ],
      "vout": [
        {
          "value": 50.0,
          "n": 0,
          "scriptPubKey": {
            "asm": "04a55e00ab5e68db28c32f623109848be8281c9f10f21a8a9716811853e5d08df62c10e117fc0e4123a41680503bbcb5eb5433fb39d955fe0a5d2a35ed4003b65b OP_CHECKSIG",
            "desc": "pk(04a55e00ab5e68db28c32f623109848be8281c9f10f21a8a9716811853e5d08df62c10e117fc0e4123a41680503bbcb5eb5433fb39d955fe0a5d2a35ed4003b65b)#sr8grtak",
            "hex": "4104a55e00ab5e68db28c32f623109848be8281c9f10f21a8a9716811853e5d08df62c10e117fc0e4123a41680503bbcb5eb5433fb39d955fe0a5d2a35ed4003b65bac",
            "type": "pubkey"
          }
        }
      ],
      "hex": "01000000010000000000000000000000000000000000000000000000000000000000000000ffffffff0804ffff001d02b201ffffffff0100f2052a01000000434104a55e00ab5e68db28c32f623109848be8281c9f10f21a8a9716811853e5d08df62c10e117fc0e4123a41680503bbcb5eb5433fb39d955fe0a5d2a35ed4003b65bac00000000"
    }
  ]
}