{
  "hash": "00000000a5dc6a24f52c2f0cde936fa10efe1b31240a04704ca2fbc7dfbf21ee",
  "confirmations": 51184,
  "height": 1914,
  "version": 1,
  "versionHex": "00000001",
  "merkleroot": "92acd1c4d6e87cd4a5ba3520d3fc79c4fb7158603fdfed092063b9e62bf2e7ac",
  "time": 1232950822,
  "mediantime": 1232948973,
  "nonce": 399769090,
  "bits": "1d00ffff",
  "difficulty": 1,
  "chainwork": "0000000000000000000000000000000000000000000000000000077b077b077b",
  "nTx": 1,
  "previousblockhash": "000000006ddf1cbfb47499088b01454401df2dfe50e759a0ea30b5cbbc99acdb",
  "nextblockhash": "00000000739c5e05d27949d20a623f246760e1006c9e6f29ca39c3ceba5a416f",
  "strippedsize": 216,
  "size": 216,
  "weight": 864,
  "tx": [
    {
      "txid": "92acd1c4d6e87cd4a5ba3520d3fc79c4fb7158603fdfed092063b9e62bf2e7ac",
      "hash": "92acd1c4d6e87cd4a5ba3520d3fc79c4fb7158603fdfed092063b9e62bf2e7ac",
      "version": 1,
      "size": 135,
      "vsize": 135,
      "weight": 540,
      "locktime": 0,
      "vin": [
        {
          "coinbase": "04ffff001d028205",
          "sequence": 4294967295
        }
      ],
      "vout": [
        {
          "value": 50.0,
          "n": 0,
          "scriptPubKey": {
            "asm": "044b7c94ac227cd77b037f739eeb1a6d87fcc8c478d1c67c89ef2062b782d49cfb3fa715929018f8bccbd46dfec525c882df99377a9d1998bb3f136465ba8229bd OP_CHECKSIG",
            "desc": "pk(044b7c94ac227cd77b037f739eeb1a6d87fcc8c478d1c67c89ef2062b782d49cfb3fa715929018f8bccbd46dfec525c882df99377a9d1998bb3f136465ba8229bd)#zx3q6lxk",
            "hex": "41044b7c94ac227cd77b037f739eeb1a6d87fcc8c478d1c67c89ef2062b782d49cfb3fa715929018f8bccbd46dfec525c882df99377a9d1998bb3f136465ba8229bdac",
            "type": "pubkey"
          }
        }
      ],
      "hex": "01000000010000000000000000000000000000000000000000000000000000000000000000ffffffff0804ffff001d028205ffffffff0100f2052a010000004341044b7c94ac227cd77b037f739eeb1a6d87fcc8c478d1c67c89ef2062b782d49cfb3fa715929018f8bccbd46dfec525c882df99377a9d1998bb3f136465ba8229bdac00000000"
    }
  ]
}