{
  "hash": "000000008418d133a657d1d7fd0a032e4af19c6dd55e7a2ee465087deeaed510",
  "confirmations": 48483,
  "height": 4615,
  "version": 1,
  "versionHex": "00000001",
  "merkleroot": "aab88ae7bb6a491ce4b423c1ee2f9aa26eef87a3dbd158ed849974e99446aede",
  "time": 1234865196,
  "mediantime": 1234860038,
  "nonce": 2679817236,
  "bits": "1d00ffff",
  "difficulty": 1,
  "chainwork": "0000000000000000000000000000000000000000000000000000120812081208",
  "nTx": 1,
  "previousblockhash": "00000000fa9e98110f5356fa909da218530d180296c354821792cb7f4e8afbd9",
  "nextblockhash": "00000000ef0938336d572b8404382fb7bb0b3ad46b5b665c8c08546c43c77bf6",
  "strippedsize": 216,
  "size": 216,
  "weight": 864,
  "tx": [
    {
      "txid": "aab88ae7bb6a491ce4b423c1ee2f9aa26eef87a3dbd158ed849974e99446aede",
      "hash": "aab88ae7bb6a491ce4b423c1ee2f9aa26eef87a3dbd158ed849974e99446aede",
      "version": 1,
      "size": 135,
      "vsize": 135,
      "weight": 540,
      "locktime": 0,
      "vin": [
        {
          "coinbase": "04ffff001d020b01",
          "sequence": 4294967295
        }
      ],
      "vout": [
        {
          "value": 50.0,
          "n": 0,
          "scriptPubKey": {
            "asm": "04f98d1d38352ff23771b8346d51a80e6ad880058db45a729153a1e9f0c3f416c576b5db53d8a1d0399feeb994b6fddd3958836af4876efe16638d68b97cbdebd1 OP_CHECKSIG",
            "desc": "pk(04f98d1d38352ff23771b8346d51a80e6ad880058db45a729153a1e9f0c3f416c576b5db53d8a1d0399feeb994b6fddd3958836af4876efe16638d68b97cbdebd1)#q8mvvxs5",
            "hex": "4104f98d1d38352ff23771b8346d51a80e6ad880058db45a729153a1e9f0c3f416c576b5db53d8a1d0399feeb994b6fddd3958836af4876efe16638d68b97cbdebd1ac",
            "type": "pubkey"
          }
        }
      ],
      "hex": "01000000010000000000000000000000000000000000000000000000000000000000000000ffffffff0804ffff001d020b01ffffffff0100f2052a01000000434104f98d1d38352ff23771b8346d51a80e6ad880058db45a729153a1e9f0c3f416c576b5db53d8a1d0399feeb994b6fddd3958836af4876efe16638d68b97cbdebd1ac00000000"
    }
  ]
}