{
  "hash": "00000000e0d5e49b24209bc907e32af9a2c60417b815055bae0b9c7f836e39ba",
  "confirmations": 47543,
  "height": 5555,
  "version": 1,
  "versionHex": "00000001",
  "merkleroot": "183567f1b1b931558000a875690621e7d4c979145655208cd283c456b0cc0959",
  "time": 1235567207,
  "mediantime": 1235562181,
  "nonce": 209740267,
  "bits": "1d00ffff",
  "difficulty": 1,
  "chainwork": "000000000000000000000000000000000000000000000000000015b415b415b4",
  "nTx": 1,
  "previousblockhash": "000000001ef10065ed17286819f135fcdab3c63dfd6be5857465ef89304fadf7",
  "nextblockhash": "00000000a36835282578e947e538e92d454f6993e0a74821ad0b23e93deb58fc",
  "strippedsize": 215,
  "size": 215,
  "weight": 860,
  "tx": [
    {
      "txid": "183567f1b1b931558000a875690621e7d4c979145655208cd283c456b0cc0959",
      "hash": "183567f1b1b931558000a875690621e7d4c979145655208cd283c456b0cc0959",
      "version": 1,
      "size": 134,
      "vsize": 134,
      "weight": 536,
      "locktime": 0,
      "vin": [
        {
          "coinbase": "04ffff001d0162",
          "sequence": 4294967295
        }
      ],
      "vout": [
        {
          "value": 50.0,
          "n": 0,
          "scriptPubKey": {
            "asm": "0415dd27d6242a5b2b519ac82d976f43861cfe18c92860ac5a8bbda20745d18a660691c041e2da8c510e5a426593e026069837b9f68f9e60ad3b4ea7ed06dacc56 OP_CHECKSIG",
            "desc": "pk(0415dd27d6242a5b2b519ac82d976f43861cfe18c92860ac5a8bbda20745d18a660691c041e2da8c510e5a426593e026069837b9f68f9e60ad3b4ea7ed06dacc56)#6532rqgg",
            "hex": "410415dd27d6242a5b2b519ac82d976f43861cfe18c92860ac5a8bbda20745d18a660691c041e2da8c510e5a426593e026069837b9f68f9e60ad3b4ea7ed06dacc56ac",
            "type": "pubkey"
          }
        }
      ],
      "hex": "01000000010000000000000000000000000000000000000000000000000000000000000000ffffffff0704ffff001d0162ffffffff0100f2052a0100000043410415dd27d6242a5b2b519ac82d976f43861cfe18c92860ac5a8bbda20745d18a660691c041e2da8c510e5a426593e026069837b9f68f9e60ad3b4ea7ed06dacc56ac00000000"
    }
  ]
}