{
  "hash": "000000006e55c92b2a940de67b1314e150f0c72d0468c625f4f267fa30b8c1b1",
  "confirmations": 51949,
  "height": 91,
  "version": 1,
  "versionHex": "00000001",
  "merkleroot": "c184c93d7494f4096e9e9cb420f7d74c79c4ffd2806d68ff03bb7633bbf21d67",
  "time": 1231654229,
  "mediantime": 1231650986,
  "nonce": 2047308033,
  "bits": "1d00ffff",
  "difficulty": 1,
  "chainwork": "0000000000000000000000000000000000000000000000000000005c005c005c",
  "nTx": 1,
  "previousblockhash": "00000000f365aa200968bb9808c3566d7d2465b4b3c93aa8a3cb9079f32cbb2f",
  "nextblockhash": "0000000009d40c0a46d368c2780dfcb0375b0fee9f0d8ad87b325ec8e451e1d2",
  "strippedsize": 215,
  "size": 215,
  "weight": 860,
  "tx": [
    {
      "txid": "c184c93d7494f4096e9e9cb420f7d74c79c4ffd2806d68ff03bb7633bbf21d67",
      "hash": "c184c93d7494f4096e9e9cb420f7d74c79c4ffd2806d68ff03bb7633bbf21d67",
      "version": 1,
      "size": 134,
      "vsize": 134,
      "weight": 536,
      "locktime": 0,
      "vin": [
        {
          "coinbase": "04ffff001d012a",
          "sequence": 4294967295
        }
      ],
      "vout": [
        {
          "value": 50.0,
          "n": 0,
          "scriptPubKey": {
            "asm": "04a48c81c934bd903ab347c7fb03d624c75305cf1e78e66c09f334e1617b52484ea130bceaae53ffd13804b5d188d4f590a469d1e878ad151e1f4fa6e07aeac505 OP_CHECKSIG",
            "desc": "pk(04a48c81c934bd903ab347c7fb03d624c75305cf1e78e66c09f334e1617b52484ea130bceaae53ffd13804b5d188d4f590a469d1e878ad151e1f4fa6e07aeac505)#3lyxgk78",
            "hex": "4104a48c81c934bd903ab347c7fb03d624c75305cf1e78e66c09f334e1617b52484ea130bceaae53ffd13804b5d188d4f590a469d1e878ad151e1f4fa6e07aeac505ac",
            "type": "pubkey"
          }
        }
      ],
      "hex": "01000000010000000000000000000000000000000000000000000000000000000000000000ffffffff0704ffff001d012affffffff0100f2052a01000000434104a48c81c934bd903ab347c7fb03d624c75305cf1e78e66c09f334e1617b52484ea130bceaae53ffd13804b5d188d4f590a469d1e878ad151e1f4fa6e07aeac505ac00000000"
    }
  ]
}