{
  "hash": "00000000d4960de3fcb6a1afc2808f83d47ee1e9435dbb3c7b79d45af0130625",
  "confirmations": 45418,
  "height": 7680,
  "version": 1,
  "versionHex": "00000001",
  "merkleroot": "e0f3747c2bec5ca986823cd60a2b982a67e427a5355b9ae4e0f55ea9cffca1c7",
  "time": 1237224103,
  "mediantime": 1237220808,
  "nonce": 2666303493,
  "bits": "1d00ffff",
  "difficulty": 1,
  "chainwork": "00000000000000000000000000000000000000000000000000001e011e011e01",
  "nTx": 1,
  "previousblockhash": "000000007b229871f2754cc07dfd2c43c4a365ade1ffdfd8e6e4df91cacd548f",
  "nextblockhash": "00000000dba122187e4b66b0ef56e08dfa8b10de1b11f7024d94a83fbd03cb12",
  "strippedsize": 216,
  "size": 216,
  "weight": 864,
  "tx": [
    {
      "txid": "e0f3747c2bec5ca986823cd60a2b982a67e427a5355b9ae4e0f55ea9cffca1c7",
      "hash": "e0f3747c2bec5ca986823cd60a2b982a67e427a5355b9ae4e0f55ea9cffca1c7",
      "version": 1,
      "size": 135,
      "vsize": 135,
      "weight": 540,
      "locktime": 0,
      "vin": [
        {
          "coinbase": "04ffff001d02c503",
          "sequence": 4294967295
        }
      ],
      "vout": [
        {
          "value": 50.0,
          "n": 0,
          "scriptPubKey": {
            "asm": "04678047f615126d3d435ce1ca698919ed7b731effdf8a350f58266f3d56658a120108a80415ab8e9cd03c9856fb761c20745ead6b0d6343d7410e24ed78cdc730 OP_CHECKSIG",
            "desc": "pk(04678047f615126d3d435ce1ca698919ed7b731effdf8a350f58266f3d56658a120108a80415ab8e9cd03c9856fb761c20745ead6b0d6343d7410e24ed78cdc730)#f7hxd480",
            "hex": "4104678047f615126d3d435ce1ca698919ed7b731effdf8a350f58266f3d56658a120108a80415ab8e9cd03c9856fb761c20745ead6b0d6343d7410e24ed78cdc730ac",
            "type": "pubkey"
          }
        }
      ],
      "hex": "01000000010000000000000000000000000000000000000000000000000000000000000000ffffffff0804ffff001d02c503ffffffff0100f2052a01000000434104678047f615126d3d435ce1ca698919ed7b731effdf8a350f58266f3d56658a120108a80415ab8e9cd03c9856fb761c20745ead6b0d6343d7410e24ed78cdc730ac00000000"
    }
  ]
}