{
  "hash": "000000004dec691ab72b197449efed660210c7bd2d17ffe3db263c3fea2da653",
  "confirmations": 51117,
  "height": 1981,
  "version": 1,
  "versionHex": "00000001",
  "merkleroot": "c6de1abcc57bef58ea153d4bd24cfadf6659df1f1728c8ba6df5cfefc80a71e6",
  "time": 1233030521,
  "mediantime": 1233027974,
  "nonce": 180714808,
  "bits": "1d00ffff",
  "difficulty": 1,
  "chainwork": "000000000000000000000000000000000000000000000000000007be07be07be",
  "nTx": 1,
  "previousblockhash": "000000001655468039ac54eb2f17e14c58f751ad6e044d1e80e1624847d2b6ac",
  "nextblockhash": "00000000714040eab6eca36be421e51514f98b8759cd30a60b9565f875ca1b82",
  "strippedsize": 216,
  "size": 216,
  "weight": 864,
  "tx": [
    {
      "txid": "c6de1abcc57bef58ea153d4bd24cfadf6659df1f1728c8ba6df5cfefc80a71e6",
      "hash": "c6de1abcc57bef58ea153d4bd24cfadf6659df1f1728c8ba6df5cfefc80a71e6",
      "version": 1,
      "size": 135,
      "vsize": 135,
      "weight": 540,
      "locktime": 0,
      "vin": [
        {
          "coinbase": "04ffff001d022b01",
          "sequence": 4294967295
        }
      ],
      "vout": [
        {
          "value": 50.0,
          "n": 0,
          "scriptPubKey": {
            "asm": "04538a40710f9accde9a921f6ac6381d13954298afce38c3cc78a58cbdf8819aa3e0ce27606f6922642958ad078ad23694f28a1452ddef1be768064d8c6d911373 OP_CHECKSIG",
            "desc": "pk(04538a40710f9accde9a921f6ac6381d13954298afce38c3cc78a58cbdf8819aa3e0ce27606f6922642958ad078ad23694f28a1452ddef1be768064d8c6d911373)#vy6fmn0e",
            "hex": "4104538a40710f9accde9a921f6ac6381d13954298afce38c3cc78a58cbdf8819aa3e0ce27606f6922642958ad078ad23694f28a1452ddef1be768064d8c6d911373ac",
            "type": "pubkey"
          }
        }
      ],
      "hex": "01000000010000000000000000000000000000000000000000000000000000000000000000ffffffff0804ffff001d022b01ffffffff0100f2052a01000000434104538a40710f9accde9a921f6ac6381d13954298afce38c3cc78a58cbdf8819aa3e0ce27606f6922642958ad078ad23694f28a1452ddef1be768064d8c6d911373ac00000000"
    }
  ]
}