{
  "hash": "000000005d388d74f4b9da705c4a977b5aa53f88746f6286988f9f139dba2a99",
  "confirmations": 51492,
  "height": 1606,
  "version": 1,
  "versionHex": "00000001",
  "merkleroot": "744193479b55674c02dec4ed73581eafbd7e2db03442360c9c34f9394031ee8f",
  "time": 1232813902,
  "mediantime": 1232811837,
  "nonce": 3519609387,
  "bits": "1d00ffff",
  "difficulty": 1,
  "chainwork": "0000000000000000000000000000000000000000000000000000064706470647",
  "nTx": 1,
  "previousblockhash": "00000000ba96f7cee624d66be83099df295a1daac50dd99e4315328aa7d43e77",
  "nextblockhash": "00000000fc33b76de0621880e0cad2f6bd24e48250c461258dc8c6a6a3253c7a",
  "strippedsize": 216,
  "size": 216,
  "weight": 864,
  "tx": [
    {
      "txid": "744193479b55674c02dec4ed73581eafbd7e2db03442360c9c34f9394031ee8f",
      "hash": "744193479b55674c02dec4ed73581eafbd7e2db03442360c9c34f9394031ee8f",
      "version": 1,
      "size": 135,
      "vsize": 135,
      "weight": 540,
      "locktime": 0,
      "vin": [
        {
          "coinbase": "04ffff001d022302",
          "sequence": 4294967295
        }
      ],
      "vout": [
        {
          "value": 50.0,
          "n": 0,
          "scriptPubKey": {
            "asm": "040b4e1850835e8959213bf8997df42972450743fe32d38f66507ddb0a755281730d12608f67611756b83d6221a5d6fa55300021c9eea6e8c870afec1f729eac3a OP_CHECKSIG",
            "desc": "pk(040b4e1850835e8959213bf8997df42972450743fe32d38f66507ddb0a755281730d12608f67611756b83d6221a5d6fa55300021c9eea6e8c870afec1f729eac3a)#pnwpc72x",
            "hex": "41040b4e1850835e8959213bf8997df42972450743fe32d38f66507ddb0a755281730d12608f67611756b83d6221a5d6fa55300021c9eea6e8c870afec1f729eac3aac",
            "type": "pubkey"
          }
        }
      ],
      "hex": "01000000010000000000000000000000000000000000000000000000000000000000000000ffffffff0804ffff001d022302ffffffff0100f2052a010000004341040b4e1850835e8959213bf8997df42972450743fe32d38f66507ddb0a755281730d12608f67611756b83d6221a5d6fa55300021c9eea6e8c870afec1f729eac3aac00000000"
    }
  ]
}