{
  "hash": "000000003225a6ebe93e25a8365f2b14baf53ae369f34ddbe9d97f8b1130f616",
  "confirmations": 50042,
  "height": 3056,
  "version": 1,
  "versionHex": "00000001",
  "merkleroot": "e179fa6243b1a9b92bae733dee9d3777cde21e6f6c5f7c3ba88704d00ba3be21",
  "time": 1233800403,
  "mediantime": 1233797191,
  "nonce": 163972049,
  "bits": "1d00ffff",
  "difficulty": 1,
  "chainwork": "00000000000000000000000000000000000000000000000000000bf10bf10bf1",
  "nTx": 1,
  "previousblockhash": "000000002f8b3005318ae24ee3908f2967ec7333ddbeb855f1886a104be94d91",
  "nextblockhash": "00000000221479d3c5d717c545f388cc3ee08abc7fac0bffffbdf3c049cb244d",
  "strippedsize": 216,
  "size": 216,
  "weight": 864,
  "tx": [
    {
      "txid": "e179fa6243b1a9b92bae733dee9d3777cde21e6f6c5f7c3ba88704d00ba3be21",
      "hash": "e179fa6243b1a9b92bae733dee9d3777cde21e6f6c5f7c3ba88704d00ba3be21",
      "version": 1,
      "size": 135,
      "vsize": 135,
      "weight": 540,
      "locktime": 0,
      "vin": [
        {
          "coinbase": "04ffff001d027c04",
          "sequence": 4294967295
        }
      ],
      "vout": [
        {
          "value": 50.0,
          "n": 0,
          "scriptPubKey": {
            "asm": "04b251df739b15ddbb7be237137d122c50d14755655c12404ce1102234d4c9fe0a50f4f5fb4076d6073a079bf34c92afb9a1ea962533195e1f0b9409a2a16e04b7 OP_CHECKSIG",
            "desc": "pk(04b251df739b15ddbb7be237137d122c50d14755655c12404ce1102234d4c9fe0a50f4f5fb4076d6073a079bf34c92afb9a1ea962533195e1f0b9409a2a16e04b7)#nxmzjkxg",
            "hex": "4104b251df739b15ddbb7be237137d122c50d14755655c12404ce1102234d4c9fe0a50f4f5fb4076d6073a079bf34c92afb9a1ea962533195e1f0b9409a2a16e04b7ac",
            "type": "pubkey"
          }
        }
      ],
      "hex": "01000000010000000000000000000000000000000000000000000000000000000000000000ffffffff0804ffff001d027c04ffffffff0100f2052a01000000434104b251df739b15ddbb7be237137d122c50d14755655c12404ce1102234d4c9fe0a50f4f5fb4076d6073a079bf34c92afb9a1ea962533195e1f0b9409a2a16e04b7ac00000000"
    }
  ]
}