{
  "hash": "00000000df67a210f1360326b96370b21e2a7cab85d21c006ed78e8b8f8be6f6",
  "confirmations": 51391,
  "height": 1707,
  "version": 1,
  "versionHex": "00000001",
  "merkleroot": "aadd223fc3b0684209aa909cb4ad85c9750730aad3ffc6211b42480cafc63701",
  "time": 1232856560,
  "mediantime": 1232854048,
  "nonce": 1734698293,
  "bits": "1d00ffff",
  "difficulty": 1,
  "chainwork": "000000000000000000000000000000000000000000000000000006ac06ac06ac",
  "nTx": 1,
  "previousblockhash": "00000000e666a9f293a5c6b2431d05e104efbde6136e803fe565b70b47a34b78",
  "nextblockhash": "00000000aa73dd78c5969494dec670aa8ec157824d76020561677e9aeb7f5c09",
  "strippedsize": 216,
  "size": 216,
  "weight": 864,
  "tx": [
    {
      "txid": "aadd223fc3b0684209aa909cb4ad85c9750730aad3ffc6211b42480cafc63701",
      "hash": "aadd223fc3b0684209aa909cb4ad85c9750730aad3ffc6211b42480cafc63701",
      "version": 1,
      "size": 135,
      "vsize": 135,
      "weight": 540,
      "locktime": 0,
      "vin": [
        {
          "coinbase": "04ffff001d023803",
          "sequence": 4294967295
        }
      ],
      "vout": [
        {
          "value": 50.0,
          "n": 0,
          "scriptPubKey": {
            "asm": "0407c1ada667990a33fc4411fccb5c15a05f769b7d11392247374717c0440587aa21b93fed63be106aa8bf8168e3b3195ae6a705055729218939a1b64f9bd7d29e OP_CHECKSIG",
            "desc": "pk(0407c1ada667990a33fc4411fccb5c15a05f769b7d11392247374717c0440587aa21b93fed63be106aa8bf8168e3b3195ae6a705055729218939a1b64f9bd7d29e)#uk4kfzdp",
            "hex": "410407c1ada667990a33fc4411fccb5c15a05f769b7d11392247374717c0440587aa21b93fed63be106aa8bf8168e3b3195ae6a705055729218939a1b64f9bd7d29eac",
            "type": "pubkey"
          }
        }
      ],
      "hex": "01000000010000000000000000000000000000000000000000000000000000000000000000ffffffff0804ffff001d023803ffffffff0100f2052a0100000043410407c1ada667990a33fc4411fccb5c15a05f769b7d11392247374717c0440587aa21b93fed63be106aa8bf8168e3b3195ae6a705055729218939a1b64f9bd7d29eac00000000"
    }
  ]
}