{
  "hash": "0000000007d690176bca8d3638d5907c4806f04fc88bbc2f28db8162fa10e995",
  "confirmations": 49759,
  "height": 3339,
  "version": 1,
  "versionHex": "00000001",
  "merkleroot": "980d8be47f8501b4303631da32ec6fe1be7d49c3b5fcafa1ca112c41e3917893",
  "time": 1233993319,
  "mediantime": 1233988858,
  "nonce": 3242539810,
  "bits": "1d00ffff",
  "difficulty": 1,
  "chainwork": "00000000000000000000000000000000000000000000000000000d0c0d0c0d0c",
  "nTx": 1,
  "previousblockhash": "000000008c6c7842f13d2ab7712a437e6755787feaf61b1baafcfce8ced1e28d",
  "nextblockhash": "00000000ffd27d3cd7323dfb9cfda5fb363cbfe283e7fb248a5bdab693055a60",
  "strippedsize": 216,
  "size": 216,
  "weight": 864,
  "tx": [
    {
      "txid": "980d8be47f8501b4303631da32ec6fe1be7d49c3b5fcafa1ca112c41e3917893",
      "hash": "980d8be47f8501b4303631da32ec6fe1be7d49c3b5fcafa1ca112c41e3917893",
      "version": 1,
      "size": 135,
      "vsize": 135,
      "weight": 540,
      "locktime": 0,
      "vin": [
        {
          "coinbase": "04ffff001d02ea04",
          "sequence": 4294967295
        }
      ],
      "vout": [
        {
          "value": 50.0,
          "n": 0,
          "scriptPubKey": {
            "asm": "04ca30c0ba8a67d7f2d774cdabea73e69d660c87f2f16a81dd94cbcaeff1fc93a8991c8f6f19bee05af57e24c4ff56ae0419d733e6b3a37928531ca17e03118edf OP_CHECKSIG",
            "desc": "pk(04ca30c0ba8a67d7f2d774cdabea73e69d660c87f2f16a81dd94cbcaeff1fc93a8991c8f6f19bee05af57e24c4ff56ae0419d733e6b3a37928531ca17e03118edf)#jfj7hrtv",
            "hex": "4104ca30c0ba8a67d7f2d774cdabea73e69d660c87f2f16a81dd94cbcaeff1fc93a8991c8f6f19bee05af57e24c4ff56ae0419d733e6b3a37928531ca17e03118edfac",
            "type": "pubkey"
          }
        }
      ],
      "hex": "01000000010000000000000000000000000000000000000000000000000000000000000000ffffffff0804ffff001d02ea04ffffffff0100f2052a01000000434104ca30c0ba8a67d7f2d774cdabea73e69d660c87f2f16a81dd94cbcaeff1fc93a8991c8f6f19bee05af57e24c4ff56ae0419d733e6b3a37928531ca17e03118edfac00000000"
    }
  ]
}