{
  "hash": "000000000d15d5f0d9971ab61c06e59f2e63e4a9cfbbb79d8f2b9d32243ee540",
  "confirmations": 52189,
  "height": 474,
  "version": 1,
  "versionHex": "00000001",
  "merkleroot": "aa8628f83ff173c29006a75e344dc0b1bbad9a3cd02f33343d9a3581ae52f268",
  "time": 1231950841,
  "mediantime": 1231948092,
  "nonce": 3357564166,
  "bits": "1d00ffff",
  "difficulty": 1,
  "chainwork": "000000000000000000000000000000000000000000000000000001db01db01db",
  "nTx": 1,
  "previousblockhash": "00000000c9bc7c652131a084b2bd201dc3d4592d2251fac7b2e6ed1b674aebcf",
  "nextblockhash": "00000000db64cbf7545cc66bc9a9eeb6f5ab53f843144be6f1932ac36fd72c04",
  "strippedsize": 216,
  "size": 216,
  "weight": 864,
  "tx": [
    {
      "txid": "aa8628f83ff173c29006a75e344dc0b1bbad9a3cd02f33343d9a3581ae52f268",
      "hash": "aa8628f83ff173c29006a75e344dc0b1bbad9a3cd02f33343d9a3581ae52f268",
      "version": 1,
      "size": 135,
      "vsize": 135,
      "weight": 540,
      "locktime": 0,
      "vin": [
        {
          "coinbase": "04ffff001d020204",
          "sequence": 4294967295
        }
      ],
      "vout": [
        {
          "value": 50.0,
          "n": 0,
          "scriptPubKey": {
            "asm": "04e590d7adbfbfa8b320ef2d412c8cb5967af9f7e3058fdebe454b0c2f743009021265beb10c635a31d7cd803c249d0c6a582cad05b3f41148a30a99fc21bf42d8 OP_CHECKSIG",
            "desc": "pk(04e590d7adbfbfa8b320ef2d412c8cb5967af9f7e3058fdebe454b0c2f743009021265beb10c635a31d7cd803c249d0c6a582cad05b3f41148a30a99fc21bf42d8)#h3ky6024",
            "hex": "4104e590d7adbfbfa8b320ef2d412c8cb5967af9f7e3058fdebe454b0c2f743009021265beb10c635a31d7cd803c249d0c6a582cad05b3f41148a30a99fc21bf42d8ac",
            "type": "pubkey"
          }
        }
      ],
      "hex": "01000000010000000000000000000000000000000000000000000000000000000000000000ffffffff0804ffff001d020204ffffffff0100f2052a01000000434104e590d7adbfbfa8b320ef2d412c8cb5967af9f7e3058fdebe454b0c2f743009021265beb10c635a31d7cd803c249d0c6a582cad05b3f41148a30a99fc21bf42d8ac00000000"
    }
  ]
}