{
  "hash": "000000006831bf2f16797771e6995ca5c317f4166bcf9ec53d41303058348e6c",
  "confirmations": 48255,
  "height": 4843,
  "version": 1,
  "versionHex": "00000001",
  "merkleroot": "3d97eaaa5f2b67640164d9ad353401b5650f6dfa77aa40cf823a4d047995fd9c",
  "time": 1235032179,
  "mediantime": 1235028025,
  "nonce": 57931359,
  "bits": "1d00ffff",
  "difficulty": 1,
  "chainwork": "000000000000000000000000000000000000000000000000000012ec12ec12ec",
  "nTx": 1,
  "previousblockhash": "0000000022b000f871e89d81b4fbdcbbf0a4a6ec14d6ead7df53695b9710766e",
  "nextblockhash": "000000004da91b6da0a6d96cb00662eca6f0dafd9bd1e8a6f0a24fca8cd317e3",
  "strippedsize": 216,
  "size": 216,
  "weight": 864,
  "tx": [
    {
      "txid": "3d97eaaa5f2b67640164d9ad353401b5650f6dfa77aa40cf823a4d047995fd9c",
      "hash": "3d97eaaa5f2b67640164d9ad353401b5650f6dfa77aa40cf823a4d047995fd9c",
      "version": 1,
      "size": 135,
      "vsize": 135,
      "weight": 540,
      "locktime": 0,
      "vin": [
        {
          "coinbase": "04ffff001d026603",
          "sequence": 4294967295
        }
      ],
      "vout": [
        {
          "value": 50.0,
          "n": 0,
          "scriptPubKey": {
            "asm": "04559aec885f8c0a09adfc7d689466497757ed42b30c5b0312ab33df166582a92831113311dafebf52e77025eb4759b746891e87ebd654abce11c31fcb81b8c579 OP_CHECKSIG",
            "desc": "pk(04559aec885f8c0a09adfc7d689466497757ed42b30c5b0312ab33df166582a92831113311dafebf52e77025eb4759b746891e87ebd654abce11c31fcb81b8c579)#3tgpm247",
            "hex": "4104559aec885f8c0a09adfc7d689466497757ed42b30c5b0312ab33df166582a92831113311dafebf52e77025eb4759b746891e87ebd654abce11c31fcb81b8c579ac",
            "type": "pubkey"
          }
        }
      ],
      "hex": "01000000010000000000000000000000000000000000000000000000000000000000000000ffffffff0804ffff001d026603ffffffff0100f2052a01000000434104559aec885f8c0a09adfc7d689466497757ed42b30c5b0312ab33df166582a92831113311dafebf52e77025eb4759b746891e87ebd654abce11c31fcb81b8c579ac00000000"
    }
  ]
}