{
  "hash": "00000000993d6ee47240bfee4ce320a54fef8b7091334e92ef713bb3e7590034",
  "confirmations": 45239,
  "height": 7859,
  "version": 1,
  "versionHex": "00000001",
  "merkleroot": "de1616ca7dba112689fb8a570555e9516b939aebd168bf7f240212c61d689989",
  "time": 1237357455,
  "mediantime": 1237353473,
  "nonce": 3159579673,
  "bits": "1d00ffff",
  "difficulty": 1,
  "chainwork": "00000000000000000000000000000000000000000000000000001eb41eb41eb4",
  "nTx": 1,
  "previousblockhash": "00000000ff43e4905adad05611d886de6192920903d8de58a3958a474297536c",
  "nextblockhash": "00000000ab8331a09dd577856abffbfad3b65d66652d1ad6a1a8802f1346d5aa",
  "strippedsize": 216,
  "size": 216,
  "weight": 864,
  "tx": [
    {
      "txid": "de1616ca7dba112689fb8a570555e9516b939aebd168bf7f240212c61d689989",
      "hash": "de1616ca7dba112689fb8a570555e9516b939aebd168bf7f240212c61d689989",
      "version": 1,
      "size": 135,
      "vsize": 135,
      "weight": 540,
      "locktime": 0,
      "vin": [
        {
          "coinbase": "04ffff001d02e606",
          "sequence": 4294967295
        }
      ],
      "vout": [
        {
          "value": 50.0,
          "n": 0,
          "scriptPubKey": {
            "asm": "04119fb47de9719f3bc4495246834fd48741de1110c83d9818fddba4fd2169feaede39e585d85ac780d35b4ecef1c861d6f7335c0d6eccd819af332ead66c682a5 OP_CHECKSIG",
            "desc": "pk(04119fb47de9719f3bc4495246834fd48741de1110c83d9818fddba4fd2169feaede39e585d85ac780d35b4ecef1c861d6f7335c0d6eccd819af332ead66c682a5)#fgd6yqkj",
            "hex": "4104119fb47de9719f3bc4495246834fd48741de1110c83d9818fddba4fd2169feaede39e585d85ac780d35b4ecef1c861d6f7335c0d6eccd819af332ead66c682a5ac",
            "type": "pubkey"
          }
        }
      ],
      "hex": "01000000010000000000000000000000000000000000000000000000000000000000000000ffffffff0804ffff001d02e606ffffffff0100f2052a01000000434104119fb47de9719f3bc4495246834fd48741de1110c83d9818fddba4fd2169feaede39e585d85ac780d35b4ecef1c861d6f7335c0d6eccd819af332ead66c682a5ac00000000"
    }
  ]
}