{
  "hash": "00000000d8551eb071406db8b7100687a0f135607a7557817ef2347e4f1235d2",
  "confirmations": 44301,
  "height": 8797,
  "version": 1,
  "versionHex": "00000001",
  "merkleroot": "04f6c64b401e0b1ee36a288738676452008336fdf87452cf1795dc9af2507e7d",
  "time": 1238098510,
  "mediantime": 1238095955,
  "nonce": 3917637641,
  "bits": "1d00ffff",
  "difficulty": 1,
  "chainwork": "0000000000000000000000000000000000000000000000000000225e225e225e",
  "nTx": 1,
  "previousblockhash": "000000008b5d5ae3e29c1c7f40ee90672eed5f6f27f85d5bbfcaea9d333f791a",
  "nextblockhash": "000000006383601d061c77b3ee729a09265b19963040c487d3ec9cf61a483a16",
  "strippedsize": 216,
  "size": 216,
  "weight": 864,
  "tx": [
    {
      "txid": "04f6c64b401e0b1ee36a288738676452008336fdf87452cf1795dc9af2507e7d",
      "hash": "04f6c64b401e0b1ee36a288738676452008336fdf87452cf1795dc9af2507e7d",
      "version": 1,
      "size": 135,
      "vsize": 135,
      "weight": 540,
      "locktime": 0,
      "vin": [
        {
          "coinbase": "04ffff001d02b402",
          "sequence": 4294967295
        }
      ],
      "vout": [
        {
          "value": 50.0,
          "n": 0,
          "scriptPubKey": {
            "asm": "043b548d470078a29f19e723cdea51902b9a666eda4117432aa7d87e9c1e24b5f4e5070f7bcbf3328e22ebd45f20b4a81617f592b0580c5d04941a3f90e4ad9725 OP_CHECKSIG",
            "desc": "pk(043b548d470078a29f19e723cdea51902b9a666eda4117432aa7d87e9c1e24b5f4e5070f7bcbf3328e22ebd45f20b4a81617f592b0580c5d04941a3f90e4ad9725)#mv75c3ff",
            "hex": "41043b548d470078a29f19e723cdea51902b9a666eda4117432aa7d87e9c1e24b5f4e5070f7bcbf3328e22ebd45f20b4a81617f592b0580c5d04941a3f90e4ad9725ac",
            "type": "pubkey"
          }
        }
      ],
      "hex": "01000000010000000000000000000000000000000000000000000000000000000000000000ffffffff0804ffff001d02b402ffffffff0100f2052a010000004341043b548d470078a29f19e723cdea51902b9a666eda4117432aa7d87e9c1e24b5f4e5070f7bcbf3328e22ebd45f20b4a81617f592b0580c5d04941a3f90e4ad9725ac00000000"
    }
  ]
}