{
  "hash": "00000000da5872a125e5b13d8213b090cd8316b81ad89b4d59fc0b48cf508b33",
  "confirmations": 45383,
  "height": 7715,
  "version": 1,
  "versionHex": "00000001",
  "merkleroot": "2bb85ac703063eaa77714335e8600a77728209d6559e1c10c8d7db53579f5a80",
  "time": 1237250834,
  "mediantime": 1237244515,
  "nonce": 2507906087,
  "bits": "1d00ffff",
  "difficulty": 1,
  "chainwork": "00000000000000000000000000000000000000000000000000001e241e241e24",
  "nTx": 1,
  "previousblockhash": "0000000040c06516cc9424ea574731fd6fd8804e31dabbafb7113b637969b08a",
  "nextblockhash": "00000000bd9728e591043a3328bc8d0b84e37c57caca6e37f7d02cab56dbbf3b",
  "strippedsize": 216,
  "size": 216,
  "weight": 864,
  "tx": [
    {
      "txid": "2bb85ac703063eaa77714335e8600a77728209d6559e1c10c8d7db53579f5a80",
      "hash": "2bb85ac703063eaa77714335e8600a77728209d6559e1c10c8d7db53579f5a80",
      "version": 1,
      "size": 135,
      "vsize": 135,
      "weight": 540,
      "locktime": 0,
      "vin": [
        {
          "coinbase": "04ffff001d027904",
          "sequence": 4294967295
        }
      ],
      "vout": [
        {
          "value": 50.0,
          "n": 0,
          "scriptPubKey": {
            "asm": "049ef1ee007ce5ba2f7635019578f264d22d0e6f11ed05ea8a46ba28650665022f591a8e3c8679f51335879cc45223e1f0628f1f8aad7887ee1a424d5930707bea OP_CHECKSIG",
            "desc": "pk(049ef1ee007ce5ba2f7635019578f264d22d0e6f11ed05ea8a46ba28650665022f591a8e3c8679f51335879cc45223e1f0628f1f8aad7887ee1a424d5930707bea)#4euhnffv",
            "hex": "41049ef1ee007ce5ba2f7635019578f264d22d0e6f11ed05ea8a46ba28650665022f591a8e3c8679f51335879cc45223e1f0628f1f8aad7887ee1a424d5930707beaac",
            "type": "pubkey"
          }
        }
      ],
      "hex": "01000000010000000000000000000000000000000000000000000000000000000000000000ffffffff0804ffff001d027904ffffffff0100f2052a010000004341049ef1ee007ce5ba2f7635019578f264d22d0e6f11ed05ea8a46ba28650665022f591a8e3c8679f51335879cc45223e1f0628f1f8aad7887ee1a424d5930707beaac00000000"
    }
  ]
}