{
  "hash": "0000000011c6402717798fd7fd4ac1c92d615e301ed313ceb37b57543b53bf5e",
  "confirmations": 47756,
  "height": 5342,
  "version": 1,
  "versionHex": "00000001",
  "merkleroot": "30d926c6a2c7ec7fc09169ebed202e25924f8da174b8aac929451a36ca2677bd",
  "time": 1235396879,
  "mediantime": 1235394187,
  "nonce": 4162170645,
  "bits": "1d00ffff",
  "difficulty": 1,
  "chainwork": "000000000000000000000000000000000000000000000000000014df14df14df",
  "nTx": 1,
  "previousblockhash": "000000000f2b003e482894378076f61d678811cd9206333f80da3482884c66c1",
  "nextblockhash": "00000000da94ecaa210171c19b4b6c4e98c81d1578795986acd00dbd9007a44b",
  "strippedsize": 216,
  "size": 216,
  "weight": 864,
  "tx": [
    {
      "txid": "30d926c6a2c7ec7fc09169ebed202e25924f8da174b8aac929451a36ca2677bd",
      "hash": "30d926c6a2c7ec7fc09169ebed202e25924f8da174b8aac929451a36ca2677bd",
      "version": 1,
      "size": 135,
      "vsize": 135,
      "weight": 540,
      "locktime": 0,
      "vin": [
        {
          "coinbase": "04ffff001d02ac02",
          "sequence": 4294967295
        }
      ],
      "vout": [
        {
          "value": 50.0,
          "n": 0,
          "scriptPubKey": {
            "asm": "0455ea32069975f9007da50439fe73f7d619aea0a791dff295141a1aec7c557b63269f449cc0a1c30da0a57bcf0c921fd0c2dc9a9d20f1ba43b86425fb6a548d00 OP_CHECKSIG",
            "desc": "pk(0455ea32069975f9007da50439fe73f7d619aea0a791dff295141a1aec7c557b63269f449cc0a1c30da0a57bcf0c921fd0c2dc9a9d20f1ba43b86425fb6a548d00)#yny4eh8y",
            "hex": "410455ea32069975f9007da50439fe73f7d619aea0a791dff295141a1aec7c557b63269f449cc0a1c30da0a57bcf0c921fd0c2dc9a9d20f1ba43b86425fb6a548d00ac",
            "type": "pubkey"
          }
        }
      ],
      "hex": "01000000010000000000000000000000000000000000000000000000000000000000000000ffffffff0804ffff001d02ac02ffffffff0100f2052a0100000043410455ea32069975f9007da50439fe73f7d619aea0a791dff295141a1aec7c557b63269f449cc0a1c30da0a57bcf0c921fd0c2dc9a9d20f1ba43b86425fb6a548d00ac00000000"
    }
  ]
}