{
  "hash": "000000003819e45f96d069bb41dfa72e94c0ee0c9c97a1b127b62e8613b71374",
  "confirmations": 47698,
  "height": 5400,
  "version": 1,
  "versionHex": "00000001",
  "merkleroot": "742354ef1dd7a1c5d652149e59e0021d8cb33114625208045464e185ad78c476",
  "time": 1235441214,
  "mediantime": 1235436886,
  "nonce": 797134880,
  "bits": "1d00ffff",
  "difficulty": 1,
  "chainwork": "0000000000000000000000000000000000000000000000000000151915191519",
  "nTx": 1,
  "previousblockhash": "00000000df64862b7d3eaad2e4edc0f206b655fd409b69714361d11cb61740fc",
  "nextblockhash": "00000000fd4411e3f13508716399cf84b669649cc9e358588af36400f71e9cc9",
  "strippedsize": 216,
  "size": 216,
  "weight": 864,
  "tx": [
    {
      "txid": "742354ef1dd7a1c5d652149e59e0021d8cb33114625208045464e185ad78c476",
      "hash": "742354ef1dd7a1c5d652149e59e0021d8cb33114625208045464e185ad78c476",
      "version": 1,
      "size": 135,
      "vsize": 135,
      "weight": 540,
      "locktime": 0,
      "vin": [
        {
          "coinbase": "04ffff001d02a503",
          "sequence": 4294967295
        }
      ],
      "vout": [
        {
          "value": 50.0,
          "n": 0,
          "scriptPubKey": {
            "asm": "041dfbfcd5a9c81c817caa1565584be91ba63dfc65e2a08a30cb5b3a07342c942fd638a27cd87adf6dc952a6ba0616c859176a9f1491ba4055e5f337ab6190534f OP_CHECKSIG",
            "desc": "pk(041dfbfcd5a9c81c817caa1565584be91ba63dfc65e2a08a30cb5b3a07342c942fd638a27cd87adf6dc952a6ba0616c859176a9f1491ba4055e5f337ab6190534f)#cae9mhea",
            "hex": "41041dfbfcd5a9c81c817caa1565584be91ba63dfc65e2a08a30cb5b3a07342c942fd638a27cd87adf6dc952a6ba0616c859176a9f1491ba4055e5f337ab6190534fac",
            "type": "pubkey"
          }
        }
      ],
      "hex": "01000000010000000000000000000000000000000000000000000000000000000000000000ffffffff0804ffff001d02a503ffffffff0100f2052a010000004341041dfbfcd5a9c81c817caa1565584be91ba63dfc65e2a08a30cb5b3a07342c942fd638a27cd87adf6dc952a6ba0616c859176a9f1491ba4055e5f337ab6190534fac00000000"
    }
  ]
}