{
  "hash": "00000000112d24a5aa42bc6695b9c7797ac8c874ba5d927793369706ef5db1fe",
  "confirmations": 50758,
  "height": 2340,
  "version": 1,
  "versionHex": "00000001",
  "merkleroot": "dd70d16f4edb39d5834596da77e718cf76f2f7f77af3c274190ec0cb3a5905ed",
  "time": 1233308894,
  "mediantime": 1233304941,
  "nonce": 1010286849,
  "bits": "1d00ffff",
  "difficulty": 1,
  "chainwork": "0000000000000000000000000000000000000000000000000000092509250925",
  "nTx": 1,
  "previousblockhash": "000000003b2a9ac3f0efab472b9ceae68fa38e2d629e9a41defcf9969f60920d",
  "nextblockhash": "0000000011c0a69f3063cf4fb95ac340e2557e57463f71817e7c2b6cf8c356b4",
  "strippedsize": 216,
  "size": 216,
  "weight": 864,
  "tx": [
    {
      "txid": "dd70d16f4edb39d5834596da77e718cf76f2f7f77af3c274190ec0cb3a5905ed",
      "hash": "dd70d16f4edb39d5834596da77e718cf76f2f7f77af3c274190ec0cb3a5905ed",
      "version": 1,
      "size": 135,
      "vsize": 135,
      "weight": 540,
      "locktime": 0,
      "vin": [
        {
          "coinbase": "04ffff001d027402",
          "sequence": 4294967295
        }
      ],
      "vout": [
        {
          "value": 50.0,
          "n": 0,
          "scriptPubKey": {
            "asm": "04612386bcaf11fbc5e36595d40c990f72edf17705d9f3bf0731afc42e04fbeb0503a9291e1cbbf7a3dae5f936a457703677ca523e90e583c53937c3b3fecf4932 OP_CHECKSIG",
            "desc": "pk(04612386bcaf11fbc5e36595d40c990f72edf17705d9f3bf0731afc42e04fbeb0503a9291e1cbbf7a3dae5f936a457703677ca523e90e583c53937c3b3fecf4932)#f27c2avk",
            "hex": "4104612386bcaf11fbc5e36595d40c990f72edf17705d9f3bf0731afc42e04fbeb0503a9291e1cbbf7a3dae5f936a457703677ca523e90e583c53937c3b3fecf4932ac",
            "type": "pubkey"
          }
        }
      ],
      "hex": "01000000010000000000000000000000000000000000000000000000000000000000000000ffffffff0804ffff001d027402ffffffff0100f2052a01000000434104612386bcaf11fbc5e36595d40c990f72edf17705d9f3bf0731afc42e04fbeb0503a9291e1cbbf7a3dae5f936a457703677ca523e90e583c53937c3b3fecf4932ac00000000"
    }
  ]
}