{
  "hash": "00000000b0a235f2c0d786b99d2419dfd4461838842dddb1b7c9025592983fea",
  "confirmations": 52301,
  "height": 797,
  "version": 1,
  "versionHex": "00000001",
  "merkleroot": "adac28d09489b5327e2539c1b45dea7cba4a1b346e7bab42444222b1cafe92a4",
  "time": 1232190699,
  "mediantime": 1232184950,
  "nonce": 1127930934,
  "bits": "1d00ffff",
  "difficulty": 1,
  "chainwork": "0000000000000000000000000000000000000000000000000000031e031e031e",
  "nTx": 1,
  "previousblockhash": "00000000b5c41fc778883bb00fe535d3510d8c01209e1201151d819795740b0e",
  "nextblockhash": "000000005475f9938641f78a7c167f7a9f792a78e98c79b16e516dee149aa024",
  "strippedsize": 216,
  "size": 216,
  "weight": 864,
  "tx": [
    {
      "txid": "adac28d09489b5327e2539c1b45dea7cba4a1b346e7bab42444222b1cafe92a4",
      "hash": "adac28d09489b5327e2539c1b45dea7cba4a1b346e7bab42444222b1cafe92a4",
      "version": 1,
      "size": 135,
      "vsize": 135,
      "weight": 540,
      "locktime": 0,
      "vin": [
        {
          "coinbase": "04ffff001d027401",
          "sequence": 4294967295
        }
      ],
      "vout": [
        {
          "value": 50.0,
          "n": 0,
          "scriptPubKey": {
            "asm": "04d2a719b1e44664f08c9568b6767e511db912446d78d6fa99e1e8c286c173aef4e663d106a8a2ff6cb53676499fa6922465e384c7328a846396cc6205589b2ba1 OP_CHECKSIG",
            "desc": "pk(04d2a719b1e44664f08c9568b6767e511db912446d78d6fa99e1e8c286c173aef4e663d106a8a2ff6cb53676499fa6922465e384c7328a846396cc6205589b2ba1)#nlfmcalf",
            "hex": "4104d2a719b1e44664f08c9568b6767e511db912446d78d6fa99e1e8c286c173aef4e663d106a8a2ff6cb53676499fa6922465e384c7328a846396cc6205589b2ba1ac",
            "type": "pubkey"
          }
        }
      ],
      "hex": "01000000010000000000000000000000000000000000000000000000000000000000000000ffffffff0804ffff001d027401ffffffff0100f2052a01000000434104d2a719b1e44664f08c9568b6767e511db912446d78d6fa99e1e8c286c173aef4e663d106a8a2ff6cb53676499fa6922465e384c7328a846396cc6205589b2ba1ac00000000"
    }
  ]
}