{
  "hash": "00000000098e472a1401580c6c70b59a709dc64f248cff7c427e543f8c504f95",
  "confirmations": 45280,
  "height": 7818,
  "version": 1,
  "versionHex": "00000001",
  "merkleroot": "165d95f05cc09765836d661035cc157ef256175ec5f9b1295d3a187d4e53c794",
  "time": 1237327880,
  "mediantime": 1237323185,
  "nonce": 1834131504,
  "bits": "1d00ffff",
  "difficulty": 1,
  "chainwork": "00000000000000000000000000000000000000000000000000001e8b1e8b1e8b",
  "nTx": 1,
  "previousblockhash": "000000007bdbb5218bae7d92b6501db8d01f13fa60f615b820596c4ff598da78",
  "nextblockhash": "00000000b0e6c4137cb9871d6475750ebf022740b9d2aec4f773ab4994b2d04f",
  "strippedsize": 216,
  "size": 216,
  "weight": 864,
  "tx": [
    {
      "txid": "165d95f05cc09765836d661035cc157ef256175ec5f9b1295d3a187d4e53c794",
      "hash": "165d95f05cc09765836d661035cc157ef256175ec5f9b1295d3a187d4e53c794",
      "version": 1,
      "size": 135,
      "vsize": 135,
      "weight": 540,
      "locktime": 0,
      "vin": [
        {
          "coinbase": "04ffff001d023e06",
          "sequence": 4294967295
        }
      ],
      "vout": [
        {
          "value": 50.0,
          "n": 0,
          "scriptPubKey": {
            "asm": "04abca89916533de460cbf3325e0861def945ae8508bc4d86ec023dc91a2d066b0c3ad9d1a3c6dcd7be0c8dedf3e39dc4b24dad4cdf8a234f7d865a48bbf39c62b OP_CHECKSIG",
            "desc": "pk(04abca89916533de460cbf3325e0861def945ae8508bc4d86ec023dc91a2d066b0c3ad9d1a3c6dcd7be0c8dedf3e39dc4b24dad4cdf8a234f7d865a48bbf39c62b)#ta263m6w",
            "hex": "4104abca89916533de460cbf3325e0861def945ae8508bc4d86ec023dc91a2d066b0c3ad9d1a3c6dcd7be0c8dedf3e39dc4b24dad4cdf8a234f7d865a48bbf39c62bac",
            "type": "pubkey"
          }
        }
      ],
      "hex": "01000000010000000000000000000000000000000000000000000000000000000000000000ffffffff0804ffff001d023e06ffffffff0100f2052a01000000434104abca89916533de460cbf3325e0861def945ae8508bc4d86ec023dc91a2d066b0c3ad9d1a3c6dcd7be0c8dedf3e39dc4b24dad4cdf8a234f7d865a48bbf39c62bac00000000"
    }
  ]
}