{
  "hash": "000000009a8465e149a54f6157f1ccfe8cc00a30adbb4ce071b8527d24e4bd9a",
  "confirmations": 44514,
  "height": 8584,
  "version": 1,
  "versionHex": "00000001",
  "merkleroot": "ce6f2a3388d355c9c05a18041b3261dd55239ea0148103a7db110127771d8b60",
  "time": 1237938731,
  "mediantime": 1237934100,
  "nonce": 81569342,
  "bits": "1d00ffff",
  "difficulty": 1,
  "chainwork": "0000000000000000000000000000000000000000000000000000218921892189",
  "nTx": 1,
  "previousblockhash": "000000000bfbae4d9002a93fe457ba2308c4dd2c79966d0e6abe0969dee6f9ac",
  "nextblockhash": "000000005f5b22b1c1b20e29574119e78688a9df93a9bd6c6a0b245beedec829",
  "strippedsize": 216,
  "size": 216,
  "weight": 864,
  "tx": [
    {
      "txid": "ce6f2a3388d355c9c05a18041b3261dd55239ea0148103a7db110127771d8b60",
      "hash": "ce6f2a3388d355c9c05a18041b3261dd55239ea0148103a7db110127771d8b60",
      "version": 1,
      "size": 135,
      "vsize": 135,
      "weight": 540,
      "locktime": 0,
      "vin": [
        {
          "coinbase": "04ffff001d024e02",
          "sequence": 4294967295
        }
      ],
      "vout": [
        {
          "value": 50.0,
          "n": 0,
          "scriptPubKey": {
            "asm": "04b80286b9f6d386815b84c605106f74aa22883f045242cabe5c3453a66bd43026dc2eac74f993340150236808b44c093eb8a2ee897a83f57a16f9e232d3724a65 OP_CHECKSIG",
            "desc": "pk(04b80286b9f6d386815b84c605106f74aa22883f045242cabe5c3453a66bd43026dc2eac74f993340150236808b44c093eb8a2ee897a83f57a16f9e232d3724a65)#sjmzkelh",
            "hex": "4104b80286b9f6d386815b84c605106f74aa22883f045242cabe5c3453a66bd43026dc2eac74f993340150236808b44c093eb8a2ee897a83f57a16f9e232d3724a65ac",
            "type": "pubkey"
          }
        }
      ],
      "hex": "01000000010000000000000000000000000000000000000000000000000000000000000000ffffffff0804ffff001d024e02ffffffff0100f2052a01000000434104b80286b9f6d386815b84c605106f74aa22883f045242cabe5c3453a66bd43026dc2eac74f993340150236808b44c093eb8a2ee897a83f57a16f9e232d3724a65ac00000000"
    }
  ]
}