{
  "hash": "000000007499730f719cfc25ef66f08bee28bbe22e91ba9467f72aa5d209b760",
  "confirmations": 43698,
  "height": 9400,
  "version": 1,
  "versionHex": "00000001",
  "merkleroot": "2ae0183e6fc865254acc89346fc3cafd6e2ae60bfd14d7ff7dfb70fb50a7dfd7",
  "time": 1238552393,
  "mediantime": 1238548023,
  "nonce": 1226331929,
  "bits": "1d00ffff",
  "difficulty": 1,
  "chainwork": "000000000000000000000000000000000000000000000000000024b924b924b9",
  "nTx": 1,
  "previousblockhash": "000000008caef6187e243f557cc8341bb168e83974342891eed3f991a4a4139c",
  "nextblockhash": "000000002c60ded12f2b34694c99c395c323d57b8d30ff752459bdd1c6ad7535",
  "strippedsize": 216,
  "size": 216,
  "weight": 864,
  "tx": [
    {
      "txid": "2ae0183e6fc865254acc89346fc3cafd6e2ae60bfd14d7ff7dfb70fb50a7dfd7",
      "hash": "2ae0183e6fc865254acc89346fc3cafd6e2ae60bfd14d7ff7dfb70fb50a7dfd7",
      "version": 1,
      "size": 135,
      "vsize": 135,
      "weight": 540,
      "locktime": 0,
      "vin": [
        {
          "coinbase": "04ffff001d02a803",
          "sequence": 4294967295
        }
      ],
      "vout": [
        {
          "value": 50.0,
          "n": 0,
          "scriptPubKey": {
            "asm": "04c37ce078318888fa997342019d709fe15000c6dbe7d16faf76a0d2e448e7ef4175bd5d8583ebd4ac10818103fdfd2ccf1e7b63a069b8166856a6baa50a7b1b58 OP_CHECKSIG",
            "desc": "pk(04c37ce078318888fa997342019d709fe15000c6dbe7d16faf76a0d2e448e7ef4175bd5d8583ebd4ac10818103fdfd2ccf1e7b63a069b8166856a6baa50a7b1b58)#y4rfnc2q",
            "hex": "4104c37ce078318888fa997342019d709fe15000c6dbe7d16faf76a0d2e448e7ef4175bd5d8583ebd4ac10818103fdfd2ccf1e7b63a069b8166856a6baa50a7b1b58ac",
            "type": "pubkey"
          }
        }
      ],
      "hex": "01000000010000000000000000000000000000000000000000000000000000000000000000ffffffff0804ffff001d02a803ffffffff0100f2052a01000000434104c37ce078318888fa997342019d709fe15000c6dbe7d16faf76a0d2e448e7ef4175bd5d8583ebd4ac10818103fdfd2ccf1e7b63a069b8166856a6baa50a7b1b58ac00000000"
    }
  ]
}