{
  "hash": "0000000011caa6252cffb17440512eac9fd127351cfeb0b5c73cc9919ba854ae",
  "confirmations": 43826,
  "height": 9272,
  "version": 1,
  "versionHex": "00000001",
  "merkleroot": "9ff53f48f5175ec8dd8d15e3c8a8d0c2c8239d4224b58a57c3cd67a93c15f73d",
  "time": 1238451798,
  "mediantime": 1238448374,
  "nonce": 28295972,
  "bits": "1d00ffff",
  "difficulty": 1,
  "chainwork": "0000000000000000000000000000000000000000000000000000243924392439",
  "nTx": 1,
  "previousblockhash": "00000000e6aa546c5c2d133d0a70924c5c903a1763848d515eaae55db60b71a2",
  "nextblockhash": "000000000bad0ecb8a67a44f11b5ae8c01ba027998cc9dc8138f680ce22a8cf6",
  "strippedsize": 216,
  "size": 216,
  "weight": 864,
  "tx": [
    {
      "txid": "9ff53f48f5175ec8dd8d15e3c8a8d0c2c8239d4224b58a57c3cd67a93c15f73d",
      "hash": "9ff53f48f5175ec8dd8d15e3c8a8d0c2c8239d4224b58a57c3cd67a93c15f73d",
      "version": 1,
      "size": 135,
      "vsize": 135,
      "weight": 540,
      "locktime": 0,
      "vin": [
        {
          "coinbase": "04ffff001d022306",
          "sequence": 4294967295
        }
      ],
      "vout": [
        {
          "value": 50.0,
          "n": 0,
          "scriptPubKey": {
            "asm": "042bca086d3305dc7c698557f2e12ba5d9bf804e601b294584be705b06394077ad3738336ee2634b471f3eb0bc534a3c7f992d5cb6f60750d978bc0a7f318b153b OP_CHECKSIG",
            "desc": "pk(042bca086d3305dc7c698557f2e12ba5d9bf804e601b294584be705b06394077ad3738336ee2634b471f3eb0bc534a3c7f992d5cb6f60750d978bc0a7f318b153b)#69p35pj9",
            "hex": "41042bca086d3305dc7c698557f2e12ba5d9bf804e601b294584be705b06394077ad3738336ee2634b471f3eb0bc534a3c7f992d5cb6f60750d978bc0a7f318b153bac",
            "type": "pubkey"
          }
        }
      ],
      "hex": "01000000010000000000000000000000000000000000000000000000000000000000000000ffffffff0804ffff001d022306ffffffff0100f2052a010000004341042bca086d3305dc7c698557f2e12ba5d9bf804e601b294584be705b06394077ad3738336ee2634b471f3eb0bc534a3c7f992d5cb6f60750d978bc0a7f318b153bac00000000"
    }
  ]
}