{
  "hash": "00000000bd6d764b38bc485d7fba1aeadbf2448958671e2580a44d45c731d023",
  "confirmations": 47645,
  "height": 5453,
  "version": 1,
  "versionHex": "00000001",
  "merkleroot": "1558f48b2d826be9c74dae016a1f4894cabbca5f54aeee6294a9f863900a2cfd",
  "time": 1235485816,
  "mediantime": 1235481916,
  "nonce": 2290323988,
  "bits": "1d00ffff",
  "difficulty": 1,
  "chainwork": "0000000000000000000000000000000000000000000000000000154e154e154e",
  "nTx": 1,
  "previousblockhash": "000000009c8ecb0f1e1cadf36f26d60d2d5399cd5cba41146e0b5cd2a5ab9730",
  "nextblockhash": "000000002e4f27548475b3bd6dc3542ac929d369f453181bcdf0035b11cae813",
  "strippedsize": 216,
  "size": 216,
  "weight": 864,
  "tx": [
    {
      "txid": "1558f48b2d826be9c74dae016a1f4894cabbca5f54aeee6294a9f863900a2cfd",
      "hash": "1558f48b2d826be9c74dae016a1f4894cabbca5f54aeee6294a9f863900a2cfd",
      "version": 1,
      "size": 135,
      "vsize": 135,
      "weight": 540,
      "locktime": 0,
      "vin": [
        {
          "coinbase": "04ffff001d02c404",
          "sequence": 4294967295
        }
      ],
      "vout": [
        {
          "value": 50.0,
          "n": 0,
          "scriptPubKey": {
            "asm": "04546674a939b6bccb8ccb32bbf37d0ffbf4679ab97111bc6272fd7ef4fd24a4ca4813fab4d385809298ffa196da4d41a9bc501f056f4ada57d4affa39260c66c3 OP_CHECKSIG",
            "desc": "pk(04546674a939b6bccb8ccb32bbf37d0ffbf4679ab97111bc6272fd7ef4fd24a4ca4813fab4d385809298ffa196da4d41a9bc501f056f4ada57d4affa39260c66c3)#rhpa68zl",
            "hex": "4104546674a939b6bccb8ccb32bbf37d0ffbf4679ab97111bc6272fd7ef4fd24a4ca4813fab4d385809298ffa196da4d41a9bc501f056f4ada57d4affa39260c66c3ac",
            "type": "pubkey"
          }
        }
      ],
      "hex": "01000000010000000000000000000000000000000000000000000000000000000000000000ffffffff0804ffff001d02c404ffffffff0100f2052a01000000434104546674a939b6bccb8ccb32bbf37d0ffbf4679ab97111bc6272fd7ef4fd24a4ca4813fab4d385809298ffa196da4d41a9bc501f056f4ada57d4affa39260c66c3ac00000000"
    }
  ]
}