{
  "hash": "00000000af1adaea263e20b9130da2e4095f90a2cdaff58b6e894a1cf2972189",
  "confirmations": 43833,
  "height": 9265,
  "version": 1,
  "versionHex": "00000001",
  "merkleroot": "178b229a269605861a612e7d3536c535aeb56b348c737601fbe31d0d1aa14c85",
  "time": 1238446092,
  "mediantime": 1238441658,
  "nonce": 2960504631,
  "bits": "1d00ffff",
  "difficulty": 1,
  "chainwork": "0000000000000000000000000000000000000000000000000000243224322432",
  "nTx": 1,
  "previousblockhash": "00000000c4dbe2ba337fbe3ca768cca95e58c18f770042552dd8a41ee89204aa",
  "nextblockhash": "00000000a6912110208e26a9d50329dea8d04501346c60c20ce3012ff2713a8e",
  "strippedsize": 216,
  "size": 216,
  "weight": 864,
  "tx": [
    {
      "txid": "178b229a269605861a612e7d3536c535aeb56b348c737601fbe31d0d1aa14c85",
      "hash": "178b229a269605861a612e7d3536c535aeb56b348c737601fbe31d0d1aa14c85",
      "version": 1,
      "size": 135,
      "vsize": 135,
      "weight": 540,
      "locktime": 0,
      "vin": [
        {
          "coinbase": "04ffff001d021f01",
          "sequence": 4294967295
        }
      ],
      "vout": [
        {
          "value": 50.0,
          "n": 0,
          "scriptPubKey": {
            "asm": "04a719c3f47907c279e269a88be6cff546083dc8fee971d1bd87b6464f1adcdba86caff7ba8fd423ad90c8f003470449dd8f10193eaa997e1b44e19a0475d7a0de OP_CHECKSIG",
            "desc": "pk(04a719c3f47907c279e269a88be6cff546083dc8fee971d1bd87b6464f1adcdba86caff7ba8fd423ad90c8f003470449dd8f10193eaa997e1b44e19a0475d7a0de)#trdrrrs7",
            "hex": "4104a719c3f47907c279e269a88be6cff546083dc8fee971d1bd87b6464f1adcdba86caff7ba8fd423ad90c8f003470449dd8f10193eaa997e1b44e19a0475d7a0deac",
            "type": "pubkey"
          }
        }
      ],
      "hex": "01000000010000000000000000000000000000000000000000000000000000000000000000ffffffff0804ffff001d021f01ffffffff0100f2052a01000000434104a719c3f47907c279e269a88be6cff546083dc8fee971d1bd87b6464f1adcdba86caff7ba8fd423ad90c8f003470449dd8f10193eaa997e1b44e19a0475d7a0deac00000000"
    }
  ]
}