{
  "hash": "00000000d0770388d9f8e34235e8a46f6acf92777b489b45a8bbb088e881310d",
  "confirmations": 51231,
  "height": 1867,
  "version": 1,
  "versionHex": "00000001",
  "merkleroot": "54c870afae1be9970bada02d5906e029158cc24d67322e6e18bd0d8c163f5f6b",
  "time": 1232929492,
  "mediantime": 1232927475,
  "nonce": 886710568,
  "bits": "1d00ffff",
  "difficulty": 1,
  "chainwork": "0000000000000000000000000000000000000000000000000000074c074c074c",
  "nTx": 1,
  "previousblockhash": "00000000f918fbed0d800462cd4f37c25109185019daaac1789134feea9c641e",
  "nextblockhash": "0000000062ad09e4891dfc8ef3c454c92ae68ba033a8762eda270227ff3dcdc5",
  "strippedsize": 216,
  "size": 216,
  "weight": 864,
  "tx": [
    {
      "txid": "54c870afae1be9970bada02d5906e029158cc24d67322e6e18bd0d8c163f5f6b",
      "hash": "54c870afae1be9970bada02d5906e029158cc24d67322e6e18bd0d8c163f5f6b",
      "version": 1,
      "size": 135,
      "vsize": 135,
      "weight": 540,
      "locktime": 0,
      "vin": [
        {
          "coinbase": "04ffff001d02d604",
          "sequence": 4294967295
        }
      ],
      "vout": [
        {
          "value": 50.0,
          "n": 0,
          "scriptPubKey": {
            "asm": "0425bf73672fd4c35105ded6afb13739f2307f8ac70e216e6600ab881f70638e7064fff940d453869f72f3452a1e86ed79a9cf8d4d01e408e8d57776dd0ac3a333 OP_CHECKSIG",
            "desc": "pk(0425bf73672fd4c35105ded6afb13739f2307f8ac70e216e6600ab881f70638e7064fff940d453869f72f3452a1e86ed79a9cf8d4d01e408e8d57776dd0ac3a333)#0ayfly8l",
            "hex": "410425bf73672fd4c35105ded6afb13739f2307f8ac70e216e6600ab881f70638e7064fff940d453869f72f3452a1e86ed79a9cf8d4d01e408e8d57776dd0ac3a333ac",
            "type": "pubkey"
          }
        }
      ],
      "hex": "01000000010000000000000000000000000000000000000000000000000000000000000000ffffffff0804ffff001d02d604ffffffff0100f2052a0100000043410425bf73672fd4c35105ded6afb13739f2307f8ac70e216e6600ab881f70638e7064fff940d453869f72f3452a1e86ed79a9cf8d4d01e408e8d57776dd0ac3a333ac00000000"
    }
  ]
}