{
  "hash": "00000000d688cf4de5240c8cfcb389f37e55f66a130d4096f5053778f139f43f",
  "confirmations": 44576,
  "height": 8522,
  "version": 1,
  "versionHex": "00000001",
  "merkleroot": "0a05e30d30ffc090c81b67398f94743b7ec877f8227f81ee0f981299821c7cdc",
  "time": 1237890311,
  "mediantime": 1237884617,
  "nonce": 4129358601,
  "bits": "1d00ffff",
  "difficulty": 1,
  "chainwork": "0000000000000000000000000000000000000000000000000000214b214b214b",
  "nTx": 1,
  "previousblockhash": "0000000069c8fc1d836a77857fd766dcc6cf913fa2843135931db13cfaf36612",
  "nextblockhash": "00000000b40394f3a6c8c4fef12d5cca6f66ce35eb190c69c8b03ccdfb1fed34",
  "strippedsize": 216,
  "size": 216,
  "weight": 864,
  "tx": [
    {
      "txid": "0a05e30d30ffc090c81b67398f94743b7ec877f8227f81ee0f981299821c7cdc",
      "hash": "0a05e30d30ffc090c81b67398f94743b7ec877f8227f81ee0f981299821c7cdc",
      "version": 1,
      "size": 135,
      "vsize": 135,
      "weight": 540,
      "locktime": 0,
      "vin": [
        {
          "coinbase": "04ffff001d021a08",
          "sequence": 4294967295
        }
      ],
      "vout": [
        {
          "value": 50.0,
          "n": 0,
          "scriptPubKey": {
            "asm": "04be8a3fff6465f66f1b7e72cc81e64c2f6e2597a80cca556fc88df8aa2106f362d0e813c933ad5b9681bcc3c9822d5f861cb535edebaef56b6674cbd61d72e3c6 OP_CHECKSIG",
            "desc": "pk(04be8a3fff6465f66f1b7e72cc81e64c2f6e2597a80cca556fc88df8aa2106f362d0e813c933ad5b9681bcc3c9822d5f861cb535edebaef56b6674cbd61d72e3c6)#aauy5q54",
            "hex": "4104be8a3fff6465f66f1b7e72cc81e64c2f6e2597a80cca556fc88df8aa2106f362d0e813c933ad5b9681bcc3c9822d5f861cb535edebaef56b6674cbd61d72e3c6ac",
            "type": "pubkey"
          }
        }
      ],
      "hex": "01000000010000000000000000000000000000000000000000000000000000000000000000ffffffff0804ffff001d021a08ffffffff0100f2052a01000000434104be8a3fff6465f66f1b7e72cc81e64c2f6e2597a80cca556fc88df8aa2106f362d0e813c933ad5b9681bcc3c9822d5f861cb535edebaef56b6674cbd61d72e3c6ac00000000"
    }
  ]
}