{
  "hash": "000000003d244449bbd0f01087271506e9e19b8f7df9dceb121df70f6ba4b141",
  "confirmations": 51768,
  "height": 1330,
  "version": 1,
  "versionHex": "00000001",
  "merkleroot": "28f3f5971132b8d1622431135550fef63eda8a7add638db2d9a259b73ff9596d",
  "time": 1232623267,
  "mediantime": 1232618740,
  "nonce": 3238952751,
  "bits": "1d00ffff",
  "difficulty": 1,
  "chainwork": "0000000000000000000000000000000000000000000000000000053305330533",
  "nTx": 1,
  "previousblockhash": "000000006850420a1b636ebaf72c9c722521704fd1a67dee1c81ccfd252dbaee",
  "nextblockhash": "00000000f179266e5fcbb409fbcffc0a1b7b2e684574da2269bc82a7eff03ee1",
  "strippedsize": 216,
  "size": 216,
  "weight": 864,
  "tx": [
    {
      "txid": "28f3f5971132b8d1622431135550fef63eda8a7add638db2d9a259b73ff9596d",
      "hash": "28f3f5971132b8d1622431135550fef63eda8a7add638db2d9a259b73ff9596d",
      "version": 1,
      "size": 135,
      "vsize": 135,
      "weight": 540,
      "locktime": 0,
      "vin": [
        {
          "coinbase": "04ffff001d02c000",
          "sequence": 4294967295
        }
      ],
      "vout": [
        {
          "value": 50.0,
          "n": 0,
          "scriptPubKey": {
            "asm": "04728c6f5a002822f1ca37699e86ff160f906bd89f757d816ef02538c32f5072bc5760b92866f401115dbe07ca94a00be257fcbea4086471278ec347675872339e OP_CHECKSIG",
            "desc": "pk(04728c6f5a002822f1ca37699e86ff160f906bd89f757d816ef02538c32f5072bc5760b92866f401115dbe07ca94a00be257fcbea4086471278ec347675872339e)#vzjcg9p6",
            "hex": "4104728c6f5a002822f1ca37699e86ff160f906bd89f757d816ef02538c32f5072bc5760b92866f401115dbe07ca94a00be257fcbea4086471278ec347675872339eac",
            "type": "pubkey"
          }
        }
      ],
      "hex": "01000000010000000000000000000000000000000000000000000000000000000000000000ffffffff0804ffff001d02c000ffffffff0100f2052a01000000434104728c6f5a002822f1ca37699e86ff160f906bd89f757d816ef02538c32f5072bc5760b92866f401115dbe07ca94a00be257fcbea4086471278ec347675872339eac00000000"
    }
  ]
}