{
  "hash": "0000000033eec992f7774e9c2ab683a08df795bcd06d8f9e913936d7900dd6a8",
  "confirmations": 44495,
  "height": 8603,
  "version": 1,
  "versionHex": "00000001",
  "merkleroot": "1b04a6322bf25a025adcb2cfae33e6a20415c1968887b47e93b782e6a9e339a3",
  "time": 1237952941,
  "mediantime": 1237948877,
  "nonce": 1200344366,
  "bits": "1d00ffff",
  "difficulty": 1,
  "chainwork": "0000000000000000000000000000000000000000000000000000219c219c219c",
  "nTx": 1,
  "previousblockhash": "00000000372f1107dde648bf80c4bc629b4fbba581e07686a6f89539e114c0b9",
  "nextblockhash": "00000000bf18ebdf567923d3ff3575c676de07ca7715e10f3504b0f59f0335f3",
  "strippedsize": 216,
  "size": 216,
  "weight": 864,
  "tx": [
    {
      "txid": "1b04a6322bf25a025adcb2cfae33e6a20415c1968887b47e93b782e6a9e339a3",
      "hash": "1b04a6322bf25a025adcb2cfae33e6a20415c1968887b47e93b782e6a9e339a3",
      "version": 1,
      "size": 135,
      "vsize": 135,
      "weight": 540,
      "locktime": 0,
      "vin": [
        {
          "coinbase": "04ffff001d028709",
          "sequence": 4294967295
        }
      ],
      "vout": [
        {
          "value": 50.0,
          "n": 0,
          "scriptPubKey": {
            "asm": "04da6268c45042c448be71a0a08821a6b7cee88472d176bbabd71fb31a5ee51fb7cb5fccf72f79f58d2b66a6b7933795c08833606b6821cc701405619f1e75b8c1 OP_CHECKSIG",
            "desc": "pk(04da6268c45042c448be71a0a08821a6b7cee88472d176bbabd71fb31a5ee51fb7cb5fccf72f79f58d2b66a6b7933795c08833606b6821cc701405619f1e75b8c1)#9mazvpt5",
            "hex": "4104da6268c45042c448be71a0a08821a6b7cee88472d176bbabd71fb31a5ee51fb7cb5fccf72f79f58d2b66a6b7933795c08833606b6821cc701405619f1e75b8c1ac",
            "type": "pubkey"
          }
        }
      ],
      "hex": "01000000010000000000000000000000000000000000000000000000000000000000000000ffffffff0804ffff001d028709ffffffff0100f2052a01000000434104da6268c45042c448be71a0a08821a6b7cee88472d176bbabd71fb31a5ee51fb7cb5fccf72f79f58d2b66a6b7933795c08833606b6821cc701405619f1e75b8c1ac00000000"
    }
  ]
}