{
  "hash": "0000000037ba3b25d293d04601644c4dc8dc504762a161f3cac43ba7347524dd",
  "confirmations": 50539,
  "height": 2559,
  "version": 1,
  "versionHex": "00000001",
  "merkleroot": "ba905e52c67ce3428156e3ea078327014882020ea749d68b15322aafdf3dcd5e",
  "time": 1233460511,
  "mediantime": 1233458169,
  "nonce": 2429344260,
  "bits": "1d00ffff",
  "difficulty": 1,
  "chainwork": "00000000000000000000000000000000000000000000000000000a000a000a00",
  "nTx": 1,
  "previousblockhash": "00000000e5c5fc186ddd5283f3de91ec2637a567307faa231e775066fa570959",
  "nextblockhash": "0000000015192eb76ed385c70f4a81b99016d6118f02ab736c2d75cd1c87b4dd",
  "strippedsize": 216,
  "size": 216,
  "weight": 864,
  "tx": [
    {
      "txid": "ba905e52c67ce3428156e3ea078327014882020ea749d68b15322aafdf3dcd5e",
      "hash": "ba905e52c67ce3428156e3ea078327014882020ea749d68b15322aafdf3dcd5e",
      "version": 1,
      "size": 135,
      "vsize": 135,
      "weight": 540,
      "locktime": 0,
      "vin": [
        {
          "coinbase": "04ffff001d021c02",
          "sequence": 4294967295
        }
      ],
      "vout": [
        {
          "value": 50.0,
          "n": 0,
          "scriptPubKey": {
            "asm": "04cf3bcbc263c598ef74268e90892fb27de436e5a7ea229be5b3d74cafd849bf7a649774f8c253eadebdb1a372b5f4b3a4aed3fd36877653d3d86627de1837d31e OP_CHECKSIG",
            "desc": "pk(04cf3bcbc263c598ef74268e90892fb27de436e5a7ea229be5b3d74cafd849bf7a649774f8c253eadebdb1a372b5f4b3a4aed3fd36877653d3d86627de1837d31e)#6tj70d0t",
            "hex": "4104cf3bcbc263c598ef74268e90892fb27de436e5a7ea229be5b3d74cafd849bf7a649774f8c253eadebdb1a372b5f4b3a4aed3fd36877653d3d86627de1837d31eac",
            "type": "pubkey"
          }
        }
      ],
      "hex": "01000000010000000000000000000000000000000000000000000000000000000000000000ffffffff0804ffff001d021c02ffffffff0100f2052a01000000434104cf3bcbc263c598ef74268e90892fb27de436e5a7ea229be5b3d74cafd849bf7a649774f8c253eadebdb1a372b5f4b3a4aed3fd36877653d3d86627de1837d31eac00000000"
    }
  ]
}