{
  "hash": "0000000039558e5b2dbc2357daeb5589fa90f4809654631ae776b2e0c0537f3b",
  "confirmations": 45687,
  "height": 7411,
  "version": 1,
  "versionHex": "00000001",
  "merkleroot": "0237f7179ee22231b8ca427939c4ed66a208cafc0f0a56eeab04abd03ba671da",
  "time": 1237031738,
  "mediantime": 1237028437,
  "nonce": 3750106376,
  "bits": "1d00ffff",
  "difficulty": 1,
  "chainwork": "00000000000000000000000000000000000000000000000000001cf41cf41cf4",
  "nTx": 1,
  "previousblockhash": "00000000f98177cda4c7ca8b0bcb3f7b7b65ab17ae0a47f726b318a589bcb01d",
  "nextblockhash": "000000007ffb4d401f726962314e5163331eb09abfd7b2acbbd9cf2e63477769",
  "strippedsize": 216,
  "size": 216,
  "weight": 864,
  "tx": [
    {
      "txid": "0237f7179ee22231b8ca427939c4ed66a208cafc0f0a56eeab04abd03ba671da",
      "hash": "0237f7179ee22231b8ca427939c4ed66a208cafc0f0a56eeab04abd03ba671da",
      "version": 1,
      "size": 135,
      "vsize": 135,
      "weight": 540,
      "locktime": 0,
      "vin": [
        {
          "coinbase": "04ffff001d02a009",
          "sequence": 4294967295
        }
      ],
      "vout": [
        {
          "value": 50.0,
          "n": 0,
          "scriptPubKey": {
            "asm": "040673f771ab60689ea312d1c4d37a80a6733d2135e50701b63d798d5b491d7b9c962e6083c94847c077fae519be174439e35e3241c5140aca30ff86c5a3d93222 OP_CHECKSIG",
            "desc": "pk(040673f771ab60689ea312d1c4d37a80a6733d2135e50701b63d798d5b491d7b9c962e6083c94847c077fae519be174439e35e3241c5140aca30ff86c5a3d93222)#8nyclj2a",
            "hex": "41040673f771ab60689ea312d1c4d37a80a6733d2135e50701b63d798d5b491d7b9c962e6083c94847c077fae519be174439e35e3241c5140aca30ff86c5a3d93222ac",
            "type": "pubkey"
          }
        }
      ],
      "hex": "01000000010000000000000000000000000000000000000000000000000000000000000000ffffffff0804ffff001d02a009ffffffff0100f2052a010000004341040673f771ab60689ea312d1c4d37a80a6733d2135e50701b63d798d5b491d7b9c962e6083c94847c077fae519be174439e35e3241c5140aca30ff86c5a3d93222ac00000000"
    }
  ]
}