{
  "hash": "00000000609cb03b69502dc7b47a517a22819934f0f3f7e9e05d8ecbf6c7d3ad",
  "confirmations": 47736,
  "height": 5362,
  "version": 1,
  "versionHex": "00000001",
  "merkleroot": "2b6e527c01dac8c33501d0421cceff6d6def6161a253818bceb41f07b379a4fd",
  "time": 1235413196,
  "mediantime": 1235408742,
  "nonce": 2479421994,
  "bits": "1d00ffff",
  "difficulty": 1,
  "chainwork": "000000000000000000000000000000000000000000000000000014f314f314f3",
  "nTx": 1,
  "previousblockhash": "000000001324b900fa5d71ae666b9a0fbfcd4cee9be901c27341c8c86765916c",
  "nextblockhash": "00000000c3922a5f12e7c3230c641a36f5d3de183c4a3d92e40ec5757eeb7704",
  "strippedsize": 216,
  "size": 216,
  "weight": 864,
  "tx": [
    {
      "txid": "2b6e527c01dac8c33501d0421cceff6d6def6161a253818bceb41f07b379a4fd",
      "hash": "2b6e527c01dac8c33501d0421cceff6d6def6161a253818bceb41f07b379a4fd",
      "version": 1,
      "size": 135,
      "vsize": 135,
      "weight": 540,
      "locktime": 0,
      "vin": [
        {
          "coinbase": "04ffff001d021603",
          "sequence": 4294967295
        }
      ],
      "vout": [
        {
          "value": 50.0,
          "n": 0,
          "scriptPubKey": {
            "asm": "0469e10bb5e87e0dfd641f150d474c40d85a6c405236fe46f2e6592e61b760e5a30a4a5881858bfac7dae44226399efc4b1839a513e5650dba3e8e33eb65c51d8d OP_CHECKSIG",
            "desc": "pk(0469e10bb5e87e0dfd641f150d474c40d85a6c405236fe46f2e6592e61b760e5a30a4a5881858bfac7dae44226399efc4b1839a513e5650dba3e8e33eb65c51d8d)#urevr092",
            "hex": "410469e10bb5e87e0dfd641f150d474c40d85a6c405236fe46f2e6592e61b760e5a30a4a5881858bfac7dae44226399efc4b1839a513e5650dba3e8e33eb65c51d8dac",
            "type": "pubkey"
          }
        }
      ],
      "hex": "01000000010000000000000000000000000000000000000000000000000000000000000000ffffffff0804ffff001d021603ffffffff0100f2052a0100000043410469e10bb5e87e0dfd641f150d474c40d85a6c405236fe46f2e6592e61b760e5a30a4a5881858bfac7dae44226399efc4b1839a513e5650dba3e8e33eb65c51d8dac00000000"
    }
  ]
}