{
  "hash": "0000000005330057f103f6952ccbf26832f348c8151ed4e0bf6de798c2514a55",
  "confirmations": 44359,
  "height": 8739,
  "version": 1,
  "versionHex": "00000001",
  "merkleroot": "65b57a6f33070a885390513326277eb5b1328069d39c46b8046481b7b07b6929",
  "time": 1238051153,
  "mediantime": 1238046556,
  "nonce": 2573658663,
  "bits": "1d00ffff",
  "difficulty": 1,
  "chainwork": "0000000000000000000000000000000000000000000000000000222422242224",
  "nTx": 1,
  "previousblockhash": "0000000026dc445d6b8d98b2ec9cd9e79cb3458a75d2b3d4aae55d0650234770",
  "nextblockhash": "000000004418af7fdcb9d1b8adc5332ac5361efb36601344087de0d6f964fa84",
  "strippedsize": 216,
  "size": 216,
  "weight": 864,
  "tx": [
    {
      "txid": "65b57a6f33070a885390513326277eb5b1328069d39c46b8046481b7b07b6929",
      "hash": "65b57a6f33070a885390513326277eb5b1328069d39c46b8046481b7b07b6929",
      "version": 1,
      "size": 135,
      "vsize": 135,
      "weight": 540,
      "locktime": 0,
      "vin": [
        {
          "coinbase": "04ffff001d029801",
          "sequence": 4294967295
        }
      ],
      "vout": [
        {
          "value": 50.0,
          "n": 0,
          "scriptPubKey": {
            "asm": "0434f73ef32a6449d082e4d4c2cded488890e3d653ad6aeb6fb82c9da1d1baef7ae6d03331813b2427ecf470ff48dd177a3ac383f7fae0ac547f14907cf0684fb9 OP_CHECKSIG",
            "desc": "pk(0434f73ef32a6449d082e4d4c2cded488890e3d653ad6aeb6fb82c9da1d1baef7ae6d03331813b2427ecf470ff48dd177a3ac383f7fae0ac547f14907cf0684fb9)#annm449e",
            "hex": "410434f73ef32a6449d082e4d4c2cded488890e3d653ad6aeb6fb82c9da1d1baef7ae6d03331813b2427ecf470ff48dd177a3ac383f7fae0ac547f14907cf0684fb9ac",
            "type": "pubkey"
          }
        }
      ],
      "hex": "01000000010000000000000000000000000000000000000000000000000000000000000000ffffffff0804ffff001d029801ffffffff0100f2052a0100000043410434f73ef32a6449d082e4d4c2cded488890e3d653ad6aeb6fb82c9da1d1baef7ae6d03331813b2427ecf470ff48dd177a3ac383f7fae0ac547f14907cf0684fb9ac00000000"
    }
  ]
}