{
  "hash": "00000000b1599e775c6d83549a0a7148dd49ad4a24b1827b24dff23352a41c7c",
  "confirmations": 47204,
  "height": 5894,
  "version": 1,
  "versionHex": "00000001",
  "merkleroot": "58114e9ad50752c7297f284a59ba7649b4c5e37bec9e82226ea0b58c9aad864c",
  "time": 1235838969,
  "mediantime": 1235834321,
  "nonce": 883492354,
  "bits": "1d00ffff",
  "difficulty": 1,
  "chainwork": "0000000000000000000000000000000000000000000000000000170717071707",
  "nTx": 1,
  "previousblockhash": "00000000425e16548b84b87ec3c813ebc013eae6172b3e89f01fd78e34490b21",
  "nextblockhash": "0000000057df3706e5e346cd5476480a2e03461837e38b3b9d275ff95865c3ee",
  "strippedsize": 216,
  "size": 216,
  "weight": 864,
  "tx": [
    {
      "txid": "58114e9ad50752c7297f284a59ba7649b4c5e37bec9e82226ea0b58c9aad864c",
      "hash": "58114e9ad50752c7297f284a59ba7649b4c5e37bec9e82226ea0b58c9aad864c",
      "version": 1,
      "size": 135,
      "vsize": 135,
      "weight": 540,
      "locktime": 0,
      "vin": [
        {
          "coinbase": "04ffff001d02ec02",
          "sequence": 4294967295
        }
      ],
      "vout": [
        {
          "value": 50.0,
          "n": 0,
          "scriptPubKey": {
            "asm": "0426fcd55529cde2ddf97b8b384559d9376dde6dc9f62200e9a9af2bfbdabc56060d4c5e97a55a8cd35d186d26b6f9789a68ee00e8a765ed72e56dc9fe3a4b27c3 OP_CHECKSIG",
            "desc": "pk(0426fcd55529cde2ddf97b8b384559d9376dde6dc9f62200e9a9af2bfbdabc56060d4c5e97a55a8cd35d186d26b6f9789a68ee00e8a765ed72e56dc9fe3a4b27c3)#95klhqnh",
            "hex": "410426fcd55529cde2ddf97b8b384559d9376dde6dc9f62200e9a9af2bfbdabc56060d4c5e97a55a8cd35d186d26b6f9789a68ee00e8a765ed72e56dc9fe3a4b27c3ac",
            "type": "pubkey"
          }
        }
      ],
      "hex": "01000000010000000000000000000000000000000000000000000000000000000000000000ffffffff0804ffff001d02ec02ffffffff0100f2052a0100000043410426fcd55529cde2ddf97b8b384559d9376dde6dc9f62200e9a9af2bfbdabc56060d4c5e97a55a8cd35d186d26b6f9789a68ee00e8a765ed72e56dc9fe3a4b27c3ac00000000"
    }
  ]
}