{
  "hash": "0000000057686e655de56e38070ea362aa012d71541f349ff9b4eb8acfa8d611",
  "confirmations": 52136,
  "height": 962,
  "version": 1,
  "versionHex": "00000001",
  "merkleroot": "c721675b37e5769f21f689de4681b35e923edb96408b0644b94a89337c204247",
  "time": 1232321408,
  "mediantime": 1232317580,
  "nonce": 714023208,
  "bits": "1d00ffff",
  "difficulty": 1,
  "chainwork": "000000000000000000000000000000000000000000000000000003c303c303c3",
  "nTx": 1,
  "previousblockhash": "0000000057e2da87ccf7f2ca9538096a67ca77fad5ae414417c51d61199dead0",
  "nextblockhash": "00000000b054267b1e38c6c6b9c85890c414d552037105116cdc4a5659c55362",
  "strippedsize": 216,
  "size": 216,
  "weight": 864,
  "tx": [
    {
      "txid": "c721675b37e5769f21f689de4681b35e923edb96408b0644b94a89337c204247",
      "hash": "c721675b37e5769f21f689de4681b35e923edb96408b0644b94a89337c204247",
      "version": 1,
      "size": 135,
      "vsize": 135,
      "weight": 540,
      "locktime": 0,
      "vin": [
        {
          "coinbase": "04ffff001d028504",
          "sequence": 4294967295
        }
      ],
      "vout": [
        {
          "value": 50.0,
          "n": 0,
          "scriptPubKey": {
            "asm": "04306daeda64ec6340d2ca26975c505c8846405b6980f43a110b916c32ebd4e4c9f817d0708820da8db10808ff7709a4c5f91fc2a6a3a5e51fe2e8d01b42ae1375 OP_CHECKSIG",
            "desc": "pk(04306daeda64ec6340d2ca26975c505c8846405b6980f43a110b916c32ebd4e4c9f817d0708820da8db10808ff7709a4c5f91fc2a6a3a5e51fe2e8d01b42ae1375)#9urckd2g",
            "hex": "4104306daeda64ec6340d2ca26975c505c8846405b6980f43a110b916c32ebd4e4c9f817d0708820da8db10808ff7709a4c5f91fc2a6a3a5e51fe2e8d01b42ae1375ac",
            "type": "pubkey"
          }
        }
      ],
      "hex": "01000000010000000000000000000000000000000000000000000000000000000000000000ffffffff0804ffff001d028504ffffffff0100f2052a01000000434104306daeda64ec6340d2ca26975c505c8846405b6980f43a110b916c32ebd4e4c9f817d0708820da8db10808ff7709a4c5f91fc2a6a3a5e51fe2e8d01b42ae1375ac00000000"
    }
  ]
}