{
  "hash": "0000000002d7292bf3f95b1396e5ccf025e6b43c2287db8bbf3b5b2b366974b6",
  "confirmations": 46058,
  "height": 7040,
  "version": 1,
  "versionHex": "00000001",
  "merkleroot": "22f2b44faa5fb9b8d2ab7ff7648ac5e181ed1357f92f5f1b9d7d140b946a557c",
  "time": 1236747700,
  "mediantime": 1236744705,
  "nonce": 3621260545,
  "bits": "1d00ffff",
  "difficulty": 1,
  "chainwork": "00000000000000000000000000000000000000000000000000001b811b811b81",
  "nTx": 1,
  "previousblockhash": "0000000095611515a473f2c6c11b291a07846def79300a2e7dca2c487651beda",
  "nextblockhash": "000000000a7730e01cb8697d6ccf1ad93e235ba42e86eb467dc22a7d581e5137",
  "strippedsize": 216,
  "size": 216,
  "weight": 864,
  "tx": [
    {
      "txid": "22f2b44faa5fb9b8d2ab7ff7648ac5e181ed1357f92f5f1b9d7d140b946a557c",
      "hash": "22f2b44faa5fb9b8d2ab7ff7648ac5e181ed1357f92f5f1b9d7d140b946a557c",
      "version": 1,
      "size": 135,
      "vsize": 135,
      "weight": 540,
      "locktime": 0,
      "vin": [
        {
          "coinbase": "04ffff001d02fa02",
          "sequence": 4294967295
        }
      ],
      "vout": [
        {
          "value": 50.0,
          "n": 0,
          "scriptPubKey": {
            "asm": "04f880b7b630a4c573abcd3330fe32ee65b4d8ccd1298ef381e5cc21f340efa836ba3858d5353bd227cf5c6a48c5ac22aa84a46855d8dad54c7e50ba548cb4efe5 OP_CHECKSIG",
            "desc": "pk(04f880b7b630a4c573abcd3330fe32ee65b4d8ccd1298ef381e5cc21f340efa836ba3858d5353bd227cf5c6a48c5ac22aa84a46855d8dad54c7e50ba548cb4efe5)#6f620wmj",
            "hex": "4104f880b7b630a4c573abcd3330fe32ee65b4d8ccd1298ef381e5cc21f340efa836ba3858d5353bd227cf5c6a48c5ac22aa84a46855d8dad54c7e50ba548cb4efe5ac",
            "type": "pubkey"
          }
        }
      ],
      "hex": "01000000010000000000000000000000000000000000000000000000000000000000000000ffffffff0804ffff001d02fa02ffffffff0100f2052a01000000434104f880b7b630a4c573abcd3330fe32ee65b4d8ccd1298ef381e5cc21f340efa836ba3858d5353bd227cf5c6a48c5ac22aa84a46855d8dad54c7e50ba548cb4efe5ac00000000"
    }
  ]
}