{
  "hash": "000000009d9315e82b2936d2a1a2909cd396ada2e25559e9b849963a6caadf4d",
  "confirmations": 47348,
  "height": 5750,
  "version": 1,
  "versionHex": "00000001",
  "merkleroot": "6d0224009c75bff33a89e49d7fcdb1dbdbde0d345050715a6d86581ddc8b9bd5",
  "time": 1235724273,
  "mediantime": 1235717698,
  "nonce": 3844423195,
  "bits": "1d00ffff",
  "difficulty": 1,
  "chainwork": "0000000000000000000000000000000000000000000000000000167716771677",
  "nTx": 1,
  "previousblockhash": "000000003da58e69eb89e6454a6cb044a8a968fd5f5298b81ecc8ac6614273cf",
  "nextblockhash": "000000008d87a2d254e6bf436b66d379e1d4fe6753c0e85b9088921343140fe0",
  "strippedsize": 215,
  "size": 215,
  "weight": 860,
  "tx": [
    {
      "txid": "6d0224009c75bff33a89e49d7fcdb1dbdbde0d345050715a6d86581ddc8b9bd5",
      "hash": "6d0224009c75bff33a89e49d7fcdb1dbdbde0d345050715a6d86581ddc8b9bd5",
      "version": 1,
      "size": 134,
      "vsize": 134,
      "weight": 536,
      "locktime": 0,
      "vin": [
        {
          "coinbase": "04ffff001d010b",
          "sequence": 4294967295
        }
      ],
      "vout": [
        {
          "value": 50.0,
          "n": 0,
          "scriptPubKey": {
            "asm": "04288af15565442d75c10fe7e1a228c52f37421e09523aad85d61dc2fc86465b6992600bb03f6219095dbe599dcc9591d4146a8a68d39ac35cae85679d2af96a5b OP_CHECKSIG",
            "desc": "pk(04288af15565442d75c10fe7e1a228c52f37421e09523aad85d61dc2fc86465b6992600bb03f6219095dbe599dcc9591d4146a8a68d39ac35cae85679d2af96a5b)#haqwdw08",
            "hex": "4104288af15565442d75c10fe7e1a228c52f37421e09523aad85d61dc2fc86465b6992600bb03f6219095dbe599dcc9591d4146a8a68d39ac35cae85679d2af96a5bac",
            "type": "pubkey"
          }
        }
      ],
      "hex": "01000000010000000000000000000000000000000000000000000000000000000000000000ffffffff0704ffff001d010bffffffff0100f2052a01000000434104288af15565442d75c10fe7e1a228c52f37421e09523aad85d61dc2fc86465b6992600bb03f6219095dbe599dcc9591d4146a8a68d39ac35cae85679d2af96a5bac00000000"
    }
  ]
}