{
  "hash": "0000000048a3ff4c4fe37c2425e88272e19c720796a6a8b3fe451f46709c83ed",
  "confirmations": 50900,
  "height": 2198,
  "version": 1,
  "versionHex": "00000001",
  "merkleroot": "8fb1ba95252925b6e129959e46f408b9a758cc5857728312a89fe2d9d3f2bcb3",
  "time": 1233213742,
  "mediantime": 1233209561,
  "nonce": 2645774849,
  "bits": "1d00ffff",
  "difficulty": 1,
  "chainwork": "0000000000000000000000000000000000000000000000000000089708970897",
  "nTx": 1,
  "previousblockhash": "0000000086941c5a4e7fb7ad5940948cfbbfc23743999293254606eb26bc2a10",
  "nextblockhash": "0000000033b798200d01296bf7d274eb4a8d6937d93adf740c4f311a4ed3cd82",
  "strippedsize": 215,
  "size": 215,
  "weight": 860,
  "tx": [
    {
      "txid": "8fb1ba95252925b6e129959e46f408b9a758cc5857728312a89fe2d9d3f2bcb3",
      "hash": "8fb1ba95252925b6e129959e46f408b9a758cc5857728312a89fe2d9d3f2bcb3",
      "version": 1,
      "size": 134,
      "vsize": 134,
      "weight": 536,
      "locktime": 0,
      "vin": [
        {
          "coinbase": "04ffff001d0154",
          "sequence": 4294967295
        }
      ],
      "vout": [
        {
          "value": 50.0,
          "n": 0,
          "scriptPubKey": {
            "asm": "04b88670db96fc3418cc6bc931933f4cb400199632fc5965b95d759504f830c84ac221b9ab670663b1a7913492026d9814e87fb8b39cfe7a95f008a771b4063639 OP_CHECKSIG",
            "desc": "pk(04b88670db96fc3418cc6bc931933f4cb400199632fc5965b95d759504f830c84ac221b9ab670663b1a7913492026d9814e87fb8b39cfe7a95f008a771b4063639)#vh8gmwu5",
            "hex": "4104b88670db96fc3418cc6bc931933f4cb400199632fc5965b95d759504f830c84ac221b9ab670663b1a7913492026d9814e87fb8b39cfe7a95f008a771b4063639ac",
            "type": "pubkey"
          }
        }
      ],
      "hex": "01000000010000000000000000000000000000000000000000000000000000000000000000ffffffff0704ffff001d0154ffffffff0100f2052a01000000434104b88670db96fc3418cc6bc931933f4cb400199632fc5965b95d759504f830c84ac221b9ab670663b1a7913492026d9814e87fb8b39cfe7a95f008a771b4063639ac00000000"
    }
  ]
}