{
  "hash": "00000000b0ff4b60d318d8f104f7221a206059befcffef865826913240bbf25d",
  "confirmations": 49790,
  "height": 3308,
  "version": 1,
  "versionHex": "00000001",
  "merkleroot": "7b507f68b6a4b8fceb2221b5436793f56dd0e62aed1f560221e7ab87e7f53020",
  "time": 1233973980,
  "mediantime": 1233970781,
  "nonce": 907984683,
  "bits": "1d00ffff",
  "difficulty": 1,
  "chainwork": "00000000000000000000000000000000000000000000000000000ced0ced0ced",
  "nTx": 1,
  "previousblockhash": "00000000c544f8738cb24447ecbffd016836f0be6bb9aac17a986099df95ca8a",
  "nextblockhash": "000000001d1f37e999d5718f097b0b8fe7e3deab7f4fe4f6c555a5f6eb853686",
  "strippedsize": 216,
  "size": 216,
  "weight": 864,
  "tx": [
    {
      "txid": "7b507f68b6a4b8fceb2221b5436793f56dd0e62aed1f560221e7ab87e7f53020",
      "hash": "7b507f68b6a4b8fceb2221b5436793f56dd0e62aed1f560221e7ab87e7f53020",
      "version": 1,
      "size": 135,
      "vsize": 135,
      "weight": 540,
      "locktime": 0,
      "vin": [
        {
          "coinbase": "04ffff001d026904",
          "sequence": 4294967295
        }
      ],
      "vout": [
        {
          "value": 50.0,
          "n": 0,
          "scriptPubKey": {
            "asm": "04cdec1a3a6f6f5c6e7b9c8b233bf2470f853ede5cd788da343e5d8321993d4919afb87d553b47b614272ecf27c4497c1d3898ebd8184179adddc6f8a95ec7182e OP_CHECKSIG",
            "desc": "pk(04cdec1a3a6f6f5c6e7b9c8b233bf2470f853ede5cd788da343e5d8321993d4919afb87d553b47b614272ecf27c4497c1d3898ebd8184179adddc6f8a95ec7182e)#pqfvyfqt",
            "hex": "4104cdec1a3a6f6f5c6e7b9c8b233bf2470f853ede5cd788da343e5d8321993d4919afb87d553b47b614272ecf27c4497c1d3898ebd8184179adddc6f8a95ec7182eac",
            "type": "pubkey"
          }
        }
      ],
      "hex": "01000000010000000000000000000000000000000000000000000000000000000000000000ffffffff0804ffff001d026904ffffffff0100f2052a01000000434104cdec1a3a6f6f5c6e7b9c8b233bf2470f853ede5cd788da343e5d8321993d4919afb87d553b47b614272ecf27c4497c1d3898ebd8184179adddc6f8a95ec7182eac00000000"
    }
  ]
}