{
  "hash": "00000000b1732619993cb5373a8228cc0fa6c66987eb6f77f53ef9a37d526802",
  "confirmations": 46107,
  "height": 6991,
  "version": 1,
  "versionHex": "00000001",
  "merkleroot": "0f1fc78ef0dee1a0cd4a0bc30773b1f10c442059384487a2d9e4c49573a313d5",
  "time": 1236711301,
  "mediantime": 1236707243,
  "nonce": 15724755,
  "bits": "1d00ffff",
  "difficulty": 1,
  "chainwork": "00000000000000000000000000000000000000000000000000001b501b501b50",
  "nTx": 1,
  "previousblockhash": "00000000af7c66a4cd6362cfef8f2da17d976773dccb31c36b64dc4448e91590",
  "nextblockhash": "00000000f77aeaddcf83c8c3d9a5aa98008db87438bd47b1a7b04898c70eb7a6",
  "strippedsize": 216,
  "size": 216,
  "weight": 864,
  "tx": [
    {
      "txid": "0f1fc78ef0dee1a0cd4a0bc30773b1f10c442059384487a2d9e4c49573a313d5",
      "hash": "0f1fc78ef0dee1a0cd4a0bc30773b1f10c442059384487a2d9e4c49573a313d5",
      "version": 1,
      "size": 135,
      "vsize": 135,
      "weight": 540,
      "locktime": 0,
      "vin": [
        {
          "coinbase": "04ffff001d02f700",
          "sequence": 4294967295
        }
      ],
      "vout": [
        {
          "value": 50.0,
          "n": 0,
          "scriptPubKey": {
            "asm": "041e57a669b80a20f54a4dc6d5ba519e24e6c4053e3a53b02e3de312d9a1c5786a1dd95462c801a7fff71e89824f2f74e8f0b9e70553feee3cef5a05cabdce966a OP_CHECKSIG",
            "desc": "pk(041e57a669b80a20f54a4dc6d5ba519e24e6c4053e3a53b02e3de312d9a1c5786a1dd95462c801a7fff71e89824f2f74e8f0b9e70553feee3cef5a05cabdce966a)#788weqy0",
            "hex": "41041e57a669b80a20f54a4dc6d5ba519e24e6c4053e3a53b02e3de312d9a1c5786a1dd95462c801a7fff71e89824f2f74e8f0b9e70553feee3cef5a05cabdce966aac",
            "type": "pubkey"
          }
        }
      ],
      "hex": "01000000010000000000000000000000000000000000000000000000000000000000000000ffffffff0804ffff001d02f700ffffffff0100f2052a010000004341041e57a669b80a20f54a4dc6d5ba519e24e6c4053e3a53b02e3de312d9a1c5786a1dd95462c801a7fff71e89824f2f74e8f0b9e70553feee3cef5a05cabdce966aac00000000"
    }
  ]
}