{
  "hash": "000000000f760314179c351107625b24288d28d5e0e364b8abb4bea2923820b4",
  "confirmations": 45936,
  "height": 7162,
  "version": 1,
  "versionHex": "00000001",
  "merkleroot": "16dc893589feef3123e1e8ad07af7e81a6091ec9660797113574b3d710c1422a",
  "time": 1236842481,
  "mediantime": 1236839544,
  "nonce": 3158956334,
  "bits": "1d00ffff",
  "difficulty": 1,
  "chainwork": "00000000000000000000000000000000000000000000000000001bfb1bfb1bfb",
  "nTx": 1,
  "previousblockhash": "00000000e2257ecd0bc0f88328f98442e6ef7bf9424e7bf503f7aeb77727f5a5",
  "nextblockhash": "000000003d7d63c884916b1b849d0b7338a654bfc3eaef53bdafd65c25a1fc36",
  "strippedsize": 216,
  "size": 216,
  "weight": 864,
  "tx": [
    {
      "txid": "16dc893589feef3123e1e8ad07af7e81a6091ec9660797113574b3d710c1422a",
      "hash": "16dc893589feef3123e1e8ad07af7e81a6091ec9660797113574b3d710c1422a",
      "version": 1,
      "size": 135,
      "vsize": 135,
      "weight": 540,
      "locktime": 0,
      "vin": [
        {
          "coinbase": "04ffff001d021105",
          "sequence": 4294967295
        }
      ],
      "vout": [
        {
          "value": 50.0,
          "n": 0,
          "scriptPubKey": {
            "asm": "04cb50f47e7e54fdb977365d34f9e39653b480dee9464b3e21714b4954f5bf18b39a04f315c557da7c5512dc0518b5ac7d5e1c7387f5bf7654f621ed687f0a5fdc OP_CHECKSIG",
            "desc": "pk(04cb50f47e7e54fdb977365d34f9e39653b480dee9464b3e21714b4954f5bf18b39a04f315c557da7c5512dc0518b5ac7d5e1c7387f5bf7654f621ed687f0a5fdc)#jveltezt",
            "hex": "4104cb50f47e7e54fdb977365d34f9e39653b480dee9464b3e21714b4954f5bf18b39a04f315c557da7c5512dc0518b5ac7d5e1c7387f5bf7654f621ed687f0a5fdcac",
            "type": "pubkey"
          }
        }
      ],
      "hex": "01000000010000000000000000000000000000000000000000000000000000000000000000ffffffff0804ffff001d021105ffffffff0100f2052a01000000434104cb50f47e7e54fdb977365d34f9e39653b480dee9464b3e21714b4954f5bf18b39a04f315c557da7c5512dc0518b5ac7d5e1c7387f5bf7654f621ed687f0a5fdcac00000000"
    }
  ]
}