{
  "hash": "00000000dee2dd1ce1241d4b839cf62c51baa75e4e004ac839e8e20b6f22c535",
  "confirmations": 51586,
  "height": 1512,
  "version": 1,
  "versionHex": "00000001",
  "merkleroot": "962184529424b3d0fa2601907c8cc2d836c880e7457c3a849a874435101afe76",
  "time": 1232773213,
  "mediantime": 1232771304,
  "nonce": 571597574,
  "bits": "1d00ffff",
  "difficulty": 1,
  "chainwork": "000000000000000000000000000000000000000000000000000005e905e905e9",
  "nTx": 1,
  "previousblockhash": "00000000a4a82c938d12c1a4fa65d98e40183ad33805c40b3654775082f19273",
  "nextblockhash": "00000000fa66ffdee813787760787259bae445dac9939fbbfece689af56a31fa",
  "strippedsize": 216,
  "size": 216,
  "weight": 864,
  "tx": [
    {
      "txid": "962184529424b3d0fa2601907c8cc2d836c880e7457c3a849a874435101afe76",
      "hash": "962184529424b3d0fa2601907c8cc2d836c880e7457c3a849a874435101afe76",
      "version": 1,
      "size": 135,
      "vsize": 135,
      "weight": 540,
      "locktime": 0,
      "vin": [
        {
          "coinbase": "04ffff001d023d01",
          "sequence": 4294967295
        }
      ],
      "vout": [
        {
          "value": 50.0,
          "n": 0,
          "scriptPubKey": {
            "asm": "0411e2290893154a10b1093144b21bcbe8a3f64f17f2ec89f7e9c56d2126bf4991490585c99694e7047428a7edf71eede89884aa4f34f07bacdd1b690b49985a82 OP_CHECKSIG",
            "desc": "pk(0411e2290893154a10b1093144b21bcbe8a3f64f17f2ec89f7e9c56d2126bf4991490585c99694e7047428a7edf71eede89884aa4f34f07bacdd1b690b49985a82)#rm2rvsv4",
            "hex": "410411e2290893154a10b1093144b21bcbe8a3f64f17f2ec89f7e9c56d2126bf4991490585c99694e7047428a7edf71eede89884aa4f34f07bacdd1b690b49985a82ac",
            "type": "pubkey"
          }
        }
      ],
      "hex": "01000000010000000000000000000000000000000000000000000000000000000000000000ffffffff0804ffff001d023d01ffffffff0100f2052a0100000043410411e2290893154a10b1093144b21bcbe8a3f64f17f2ec89f7e9c56d2126bf4991490585c99694e7047428a7edf71eede89884aa4f34f07bacdd1b690b49985a82ac00000000"
    }
  ]
}