{
  "hash": "000000008c8cca37b7e89e304e16581689df87c9a6440f132dacfb08086036b3",
  "confirmations": 45084,
  "height": 8014,
  "version": 1,
  "versionHex": "00000001",
  "merkleroot": "b5c7073b4aeeae32784878f837d3d4e0612a42c0dad9d8345f41cc392d7236b0",
  "time": 1237472319,
  "mediantime": 1237466596,
  "nonce": 3520788769,
  "bits": "1d00ffff",
  "difficulty": 1,
  "chainwork": "00000000000000000000000000000000000000000000000000001f4f1f4f1f4f",
  "nTx": 1,
  "previousblockhash": "00000000132fdc7b2f097e38cb7dda2f09009c29c07589bff06552234008e2ae",
  "nextblockhash": "000000008c4c38b7f1a04cc980b2a4abbc4b2f1ac0f7d03514d779836706bad5",
  "strippedsize": 216,
  "size": 216,
  "weight": 864,
  "tx": [
    {
      "txid": "b5c7073b4aeeae32784878f837d3d4e0612a42c0dad9d8345f41cc392d7236b0",
      "hash": "b5c7073b4aeeae32784878f837d3d4e0612a42c0dad9d8345f41cc392d7236b0",
      "version": 1,
      "size": 135,
      "vsize": 135,
      "weight": 540,
      "locktime": 0,
      "vin": [
        {
          "coinbase": "04ffff001d02c109",
          "sequence": 4294967295
        }
      ],
      "vout": [
        {
          "value": 50.0,
          "n": 0,
          "scriptPubKey": {
            "asm": "04166555ae3b64a76c911dd0343507c3e646c4a60b1c47db422d5d8b699fffa82988258e48c9ea8876e63d2856e2ed0c97113e33fd32244c52d722ff5ffdc0de8b OP_CHECKSIG",
            "desc": "pk(04166555ae3b64a76c911dd0343507c3e646c4a60b1c47db422d5d8b699fffa82988258e48c9ea8876e63d2856e2ed0c97113e33fd32244c52d722ff5ffdc0de8b)#9q46ywk2",
            "hex": "4104166555ae3b64a76c911dd0343507c3e646c4a60b1c47db422d5d8b699fffa82988258e48c9ea8876e63d2856e2ed0c97113e33fd32244c52d722ff5ffdc0de8bac",
            "type": "pubkey"
          }
        }
      ],
      "hex": "01000000010000000000000000000000000000000000000000000000000000000000000000ffffffff0804ffff001d02c109ffffffff0100f2052a01000000434104166555ae3b64a76c911dd0343507c3e646c4a60b1c47db422d5d8b699fffa82988258e48c9ea8876e63d2856e2ed0c97113e33fd32244c52d722ff5ffdc0de8bac00000000"
    }
  ]
}