{
  "hash": "00000000e962aff490ab5a8814a48eba9b205430e970ee091d8a6eaf329374fd",
  "confirmations": 47280,
  "height": 5818,
  "version": 1,
  "versionHex": "00000001",
  "merkleroot": "178f7357d8fc828d457a0a1e1bd71856e21c2fee455ded81d2af3b65d26c58b1",
  "time": 1235773844,
  "mediantime": 1235769199,
  "nonce": 995174950,
  "bits": "1d00ffff",
  "difficulty": 1,
  "chainwork": "000000000000000000000000000000000000000000000000000016bb16bb16bb",
  "nTx": 1,
  "previousblockhash": "0000000053d168279fa9783832e47483c20d6077c98f85e29621ffad2119a6c1",
  "nextblockhash": "0000000069c08c4b577d689ed9266757b1f4786f0b9083f092d7c469ec33c0c0",
  "strippedsize": 216,
  "size": 216,
  "weight": 864,
  "tx": [
    {
      "txid": "178f7357d8fc828d457a0a1e1bd71856e21c2fee455ded81d2af3b65d26c58b1",
      "hash": "178f7357d8fc828d457a0a1e1bd71856e21c2fee455ded81d2af3b65d26c58b1",
      "version": 1,
      "size": 135,
      "vsize": 135,
      "weight": 540,
      "locktime": 0,
      "vin": [
        {
          "coinbase": "04ffff001d021701",
          "sequence": 4294967295
        }
      ],
      "vout": [
        {
          "value": 50.0,
          "n": 0,
          "scriptPubKey": {
            "asm": "0471153a368f9ff4e1a017ea3b1ea0990615bc6fe1dc6f67b0087738e5cd0d7519be1b3807624584437753bd74b37439ee9b979aa83baf80facb0eb4c40a4c58ae OP_CHECKSIG",
            "desc": "pk(0471153a368f9ff4e1a017ea3b1ea0990615bc6fe1dc6f67b0087738e5cd0d7519be1b3807624584437753bd74b37439ee9b979aa83baf80facb0eb4c40a4c58ae)#jvtmufm7",
            "hex": "410471153a368f9ff4e1a017ea3b1ea0990615bc6fe1dc6f67b0087738e5cd0d7519be1b3807624584437753bd74b37439ee9b979aa83baf80facb0eb4c40a4c58aeac",
            "type": "pubkey"
          }
        }
      ],
      "hex": "01000000010000000000000000000000000000000000000000000000000000000000000000ffffffff0804ffff001d021701ffffffff0100f2052a0100000043410471153a368f9ff4e1a017ea3b1ea0990615bc6fe1dc6f67b0087738e5cd0d7519be1b3807624584437753bd74b37439ee9b979aa83baf80facb0eb4c40a4c58aeac00000000"
    }
  ]
}