{
  "hash": "000000003bbc16f32eea23690b57b647ea71582048c7033729868ee78b57e82d",
  "confirmations": 46085,
  "height": 7013,
  "version": 1,
  "versionHex": "00000001",
  "merkleroot": "b2f3f1d98f17157df9f1db9f47d8fd897c4565d5956c42bfa00506fc32878ed2",
  "time": 1236728669,
  "mediantime": 1236724665,
  "nonce": 3533463074,
  "bits": "1d00ffff",
  "difficulty": 1,
  "chainwork": "00000000000000000000000000000000000000000000000000001b661b661b66",
  "nTx": 1,
  "previousblockhash": "000000005e01dc927c8446c518f741f3f3776234e18a44b8db2979bc8b1ecff8",
  "nextblockhash": "00000000c02cea79e7a14c92a7ebdc0a3ce377088df5bab6ce84d4ef871be01f",
  "strippedsize": 216,
  "size": 216,
  "weight": 864,
  "tx": [
    {
      "txid": "b2f3f1d98f17157df9f1db9f47d8fd897c4565d5956c42bfa00506fc32878ed2",
      "hash": "b2f3f1d98f17157df9f1db9f47d8fd897c4565d5956c42bfa00506fc32878ed2",
      "version": 1,
      "size": 135,
      "vsize": 135,
      "weight": 540,
      "locktime": 0,
      "vin": [
        {
          "coinbase": "04ffff001d029202",
          "sequence": 4294967295
        }
      ],
      "vout": [
        {
          "value": 50.0,
          "n": 0,
          "scriptPubKey": {
            "asm": "049d1266ba744499a0b6a9523086797f2dd81e566bf6a65732d05641ddd5ad1b026d437c9217fdd321563a1ef4b8fab1180df0d47c6fb64a73479af8af7870cfa0 OP_CHECKSIG",
            "desc": "pk(049d1266ba744499a0b6a9523086797f2dd81e566bf6a65732d05641ddd5ad1b026d437c9217fdd321563a1ef4b8fab1180df0d47c6fb64a73479af8af7870cfa0)#rgj9vu4w",
            "hex": "41049d1266ba744499a0b6a9523086797f2dd81e566bf6a65732d05641ddd5ad1b026d437c9217fdd321563a1ef4b8fab1180df0d47c6fb64a73479af8af7870cfa0ac",
            "type": "pubkey"
          }
        }
      ],
      "hex": "01000000010000000000000000000000000000000000000000000000000000000000000000ffffffff0804ffff001d029202ffffffff0100f2052a010000004341049d1266ba744499a0b6a9523086797f2dd81e566bf6a65732d05641ddd5ad1b026d437c9217fdd321563a1ef4b8fab1180df0d47c6fb64a73479af8af7870cfa0ac00000000"
    }
  ]
}