{
  "hash": "00000000a0f8a98533b772c7a34d02d258d074d5e087a3d21efd37bec9557ee1",
  "confirmations": 46263,
  "height": 6835,
  "version": 1,
  "versionHex": "00000001",
  "merkleroot": "a9eff4d97084f3e7e53be0a913a35fc743d407dbaddb36213d2f4ea57157c490",
  "time": 1236582369,
  "mediantime": 1236579930,
  "nonce": 1907580436,
  "bits": "1d00ffff",
  "difficulty": 1,
  "chainwork": "00000000000000000000000000000000000000000000000000001ab41ab41ab4",
  "nTx": 1,
  "previousblockhash": "0000000063d1ae6f16a6f3dafa8caf8d0c7d101d3ba7f886b22c5c99869fc3a0",
  "nextblockhash": "00000000b5c761aeb6fbf1f16628aa37688a7c326e4c97c09130192370a94b5d",
  "strippedsize": 216,
  "size": 216,
  "weight": 864,
  "tx": [
    {
      "txid": "a9eff4d97084f3e7e53be0a913a35fc743d407dbaddb36213d2f4ea57157c490",
      "hash": "a9eff4d97084f3e7e53be0a913a35fc743d407dbaddb36213d2f4ea57157c490",
      "version": 1,
      "size": 135,
      "vsize": 135,
      "weight": 540,
      "locktime": 0,
      "vin": [
        {
          "coinbase": "04ffff001d027809",
          "sequence": 4294967295
        }
      ],
      "vout": [
        {
          "value": 50.0,
          "n": 0,
          "scriptPubKey": {
            "asm": "04cd5d33dc2d43bc53735497c0318ec0512bb6f052eb2c2507a03e758efb24fbcc657ba93a894126be21ff55f0ec090bff95f85a388134f60e99e2a0c24234f046 OP_CHECKSIG",
            "desc": "pk(04cd5d33dc2d43bc53735497c0318ec0512bb6f052eb2c2507a03e758efb24fbcc657ba93a894126be21ff55f0ec090bff95f85a388134f60e99e2a0c24234f046)#lm30ft03",
            "hex": "4104cd5d33dc2d43bc53735497c0318ec0512bb6f052eb2c2507a03e758efb24fbcc657ba93a894126be21ff55f0ec090bff95f85a388134f60e99e2a0c24234f046ac",
            "type": "pubkey"
          }
        }
      ],
      "hex": "01000000010000000000000000000000000000000000000000000000000000000000000000ffffffff0804ffff001d027809ffffffff0100f2052a01000000434104cd5d33dc2d43bc53735497c0318ec0512bb6f052eb2c2507a03e758efb24fbcc657ba93a894126be21ff55f0ec090bff95f85a388134f60e99e2a0c24234f046ac00000000"
    }
  ]
}