{
  "hash": "00000000cab8ba72a5d415dd48bcb03ce10497ed82e16d628e5101c1dc0c0994",
  "confirmations": 45392,
  "height": 7706,
  "version": 1,
  "versionHex": "00000001",
  "merkleroot": "9ce25010735a5a0b55dbf4028e9aca3cd755ed8acaeb83015323c2d4c03b42de",
  "time": 1237243158,
  "mediantime": 1237240500,
  "nonce": 100742443,
  "bits": "1d00ffff",
  "difficulty": 1,
  "chainwork": "00000000000000000000000000000000000000000000000000001e1b1e1b1e1b",
  "nTx": 1,
  "previousblockhash": "00000000a3ff9826452b48a73aade6e5a4f0e64ae3fc0f923cbae50991df70f8",
  "nextblockhash": "000000000ae28c49008f79314d623311e6838cc8e3c43cb40f121de5be64709f",
  "strippedsize": 216,
  "size": 216,
  "weight": 864,
  "tx": [
    {
      "txid": "9ce25010735a5a0b55dbf4028e9aca3cd755ed8acaeb83015323c2d4c03b42de",
      "hash": "9ce25010735a5a0b55dbf4028e9aca3cd755ed8acaeb83015323c2d4c03b42de",
      "version": 1,
      "size": 135,
      "vsize": 135,
      "weight": 540,
      "locktime": 0,
      "vin": [
        {
          "coinbase": "04ffff001d026301",
          "sequence": 4294967295
        }
      ],
      "vout": [
        {
          "value": 50.0,
          "n": 0,
          "scriptPubKey": {
            "asm": "040e5c277e126d98cec2cb6ac9e0424fe9b11941cf607e4e7be93e63dfc06b6ec6c37ecf5b58438384cfeaab1a745c20356d7a4474b8be834cca470aaca3447c6b OP_CHECKSIG",
            "desc": "pk(040e5c277e126d98cec2cb6ac9e0424fe9b11941cf607e4e7be93e63dfc06b6ec6c37ecf5b58438384cfeaab1a745c20356d7a4474b8be834cca470aaca3447c6b)#nxt53kc3",
            "hex": "41040e5c277e126d98cec2cb6ac9e0424fe9b11941cf607e4e7be93e63dfc06b6ec6c37ecf5b58438384cfeaab1a745c20356d7a4474b8be834cca470aaca3447c6bac",
            "type": "pubkey"
          }
        }
      ],
      "hex": "01000000010000000000000000000000000000000000000000000000000000000000000000ffffffff0804ffff001d026301ffffffff0100f2052a010000004341040e5c277e126d98cec2cb6ac9e0424fe9b11941cf607e4e7be93e63dfc06b6ec6c37ecf5b58438384cfeaab1a745c20356d7a4474b8be834cca470aaca3447c6bac00000000"
    }
  ]
}