{
  "hash": "00000000dc3c50f11736dae2b2a81a2879eab4045af9cec59d359ac1a84927d9",
  "confirmations": 52120,
  "height": 978,
  "version": 1,
  "versionHex": "00000001",
  "merkleroot": "fa6068d270e66d5da29c5feefee60d89c71498e39e65b29b18aaae9e66d64447",
  "time": 1232333325,
  "mediantime": 1232329010,
  "nonce": 1534224175,
  "bits": "1d00ffff",
  "difficulty": 1,
  "chainwork": "000000000000000000000000000000000000000000000000000003d303d303d3",
  "nTx": 1,
  "previousblockhash": "0000000070cf8785d9d0366ae6c926a53ed9be82701455f8c96fbd5a4ea149d5",
  "nextblockhash": "000000002b870b7d6259bc5444aa77e781c9fc776533936419b4b6548fed6162",
  "strippedsize": 216,
  "size": 216,
  "weight": 864,
  "tx": [
    {
      "txid": "fa6068d270e66d5da29c5feefee60d89c71498e39e65b29b18aaae9e66d64447",
      "hash": "fa6068d270e66d5da29c5feefee60d89c71498e39e65b29b18aaae9e66d64447",
      "version": 1,
      "size": 135,
      "vsize": 135,
      "weight": 540,
      "locktime": 0,
      "vin": [
        {
          "coinbase": "04ffff001d02ce04",
          "sequence": 4294967295
        }
      ],
      "vout": [
        {
          "value": 50.0,
          "n": 0,
          "scriptPubKey": {
            "asm": "047565e47c95d1e3f4c444880342bd71e26ecf82f1cf1f30e669999c5dbc9458bbe6173017ab2b8a50b1bbfddcc82937653af1b83b96e1ac1db4c474a26677b102 OP_CHECKSIG",
            "desc": "pk(047565e47c95d1e3f4c444880342bd71e26ecf82f1cf1f30e669999c5dbc9458bbe6173017ab2b8a50b1bbfddcc82937653af1b83b96e1ac1db4c474a26677b102)#v0s3zfwn",
            "hex": "41047565e47c95d1e3f4c444880342bd71e26ecf82f1cf1f30e669999c5dbc9458bbe6173017ab2b8a50b1bbfddcc82937653af1b83b96e1ac1db4c474a26677b102ac",
            "type": "pubkey"
          }
        }
      ],
      "hex": "01000000010000000000000000000000000000000000000000000000000000000000000000ffffffff0804ffff001d02ce04ffffffff0100f2052a010000004341047565e47c95d1e3f4c444880342bd71e26ecf82f1cf1f30e669999c5dbc9458bbe6173017ab2b8a50b1bbfddcc82937653af1b83b96e1ac1db4c474a26677b102ac00000000"
    }
  ]
}