{
  "hash": "00000000038d5c6837cc130a0e36af97fa212aa86cbf5d629e7289d6c67a263f",
  "confirmations": 50706,
  "height": 2392,
  "version": 1,
  "versionHex": "00000001",
  "merkleroot": "cbf2578e6040d9fb5c1fa0902d5ac1f259811ccd2f46c15e5bc39a5d905ae3be",
  "time": 1233347828,
  "mediantime": 1233344206,
  "nonce": 3815905329,
  "bits": "1d00ffff",
  "difficulty": 1,
  "chainwork": "0000000000000000000000000000000000000000000000000000095909590959",
  "nTx": 1,
  "previousblockhash": "00000000224f87652440834f6721b3c552a5f6e4173c73c433d62b7514daa960",
  "nextblockhash": "000000005ae417501a41f95d138182e6b6922f1defb43c822ae25a04106fbbac",
  "strippedsize": 216,
  "size": 216,
  "weight": 864,
  "tx": [
    {
      "txid": "cbf2578e6040d9fb5c1fa0902d5ac1f259811ccd2f46c15e5bc39a5d905ae3be",
      "hash": "cbf2578e6040d9fb5c1fa0902d5ac1f259811ccd2f46c15e5bc39a5d905ae3be",
      "version": 1,
      "size": 135,
      "vsize": 135,
      "weight": 540,
      "locktime": 0,
      "vin": [
        {
          "coinbase": "04ffff001d029803",
          "sequence": 4294967295
        }
      ],
      "vout": [
        {
          "value": 50.0,
          "n": 0,
          "scriptPubKey": {
            "asm": "04ebcb6ef9d98f128280aa4f3e6579794f17b9f93ade1f0cd2873388d9001135af6084ee2249002f85fff513953bc5b3236d6413a73e18abf71d03fab985f7533d OP_CHECKSIG",
            "desc": "pk(04ebcb6ef9d98f128280aa4f3e6579794f17b9f93ade1f0cd2873388d9001135af6084ee2249002f85fff513953bc5b3236d6413a73e18abf71d03fab985f7533d)#q72qdlt9",
            "hex": "4104ebcb6ef9d98f128280aa4f3e6579794f17b9f93ade1f0cd2873388d9001135af6084ee2249002f85fff513953bc5b3236d6413a73e18abf71d03fab985f7533dac",
            "type": "pubkey"
          }
        }
      ],
      "hex": "01000000010000000000000000000000000000000000000000000000000000000000000000ffffffff0804ffff001d029803ffffffff0100f2052a01000000434104ebcb6ef9d98f128280aa4f3e6579794f17b9f93ade1f0cd2873388d9001135af6084ee2249002f85fff513953bc5b3236d6413a73e18abf71d03fab985f7533dac00000000"
    }
  ]
}