{
  "hash": "000000006156794ec9c81f2795d1150d504ca910c8cde5b06933bc2c9d335fb6",
  "confirmations": 50364,
  "height": 2734,
  "version": 1,
  "versionHex": "00000001",
  "merkleroot": "1fa30bb5611620b7b31f3ebc8383bb3349d4b20790465d2093bfcbbd9af402e0",
  "time": 1233586931,
  "mediantime": 1233583314,
  "nonce": 2786446850,
  "bits": "1d00ffff",
  "difficulty": 1,
  "chainwork": "00000000000000000000000000000000000000000000000000000aaf0aaf0aaf",
  "nTx": 1,
  "previousblockhash": "000000003f9bd4136dcac864ed9b2c442fb5f30e6710fe309a650983739a4706",
  "nextblockhash": "00000000ab16efa67f626c7d1153fe05edfe163d5dc3f47ed8b3e9913f2a401c",
  "strippedsize": 216,
  "size": 216,
  "weight": 864,
  "tx": [
    {
      "txid": "1fa30bb5611620b7b31f3ebc8383bb3349d4b20790465d2093bfcbbd9af402e0",
      "hash": "1fa30bb5611620b7b31f3ebc8383bb3349d4b20790465d2093bfcbbd9af402e0",
      "version": 1,
      "size": 135,
      "vsize": 135,
      "weight": 540,
      "locktime": 0,
      "vin": [
        {
          "coinbase": "04ffff001d024105",
          "sequence": 4294967295
        }
      ],
      "vout": [
        {
          "value": 50.0,
          "n": 0,
          "scriptPubKey": {
            "asm": "0489a7e7af6d9b3955399d17f842a8b535f76fda6d7af1e8eb9396aec8d545d35ef969b8c010b1203140674883e6fac4cef5424bdda8d0de5a94056c25bed5d9e3 OP_CHECKSIG",
            "desc": "pk(0489a7e7af6d9b3955399d17f842a8b535f76fda6d7af1e8eb9396aec8d545d35ef969b8c010b1203140674883e6fac4cef5424bdda8d0de5a94056c25bed5d9e3)#a9zs9lkt",
            "hex": "410489a7e7af6d9b3955399d17f842a8b535f76fda6d7af1e8eb9396aec8d545d35ef969b8c010b1203140674883e6fac4cef5424bdda8d0de5a94056c25bed5d9e3ac",
            "type": "pubkey"
          }
        }
      ],
      "hex": "01000000010000000000000000000000000000000000000000000000000000000000000000ffffffff0804ffff001d024105ffffffff0100f2052a0100000043410489a7e7af6d9b3955399d17f842a8b535f76fda6d7af1e8eb9396aec8d545d35ef969b8c010b1203140674883e6fac4cef5424bdda8d0de5a94056c25bed5d9e3ac00000000"
    }
  ]
}