{
  "hash": "00000000bf7540f41ae96e804929b75fb307c16ab46f071765ff35184231f066",
  "confirmations": 51070,
  "height": 2028,
  "version": 1,
  "versionHex": "00000001",
  "merkleroot": "2c35e4ce0fca576931807fd8ac6f93566a14dbb184a21e33d32cced09f6dd34c",
  "time": 1233074381,
  "mediantime": 1233071124,
  "nonce": 471370792,
  "bits": "1d00ffff",
  "difficulty": 1,
  "chainwork": "000000000000000000000000000000000000000000000000000007ed07ed07ed",
  "nTx": 1,
  "previousblockhash": "00000000e2fe00b652b77364ced8b96402bf35d3064c4bd253140ef907adf1d6",
  "nextblockhash": "0000000056db511c4a2801cab2704dda95dfd97ac1ddf7c107fdbc089b4a19f2",
  "strippedsize": 216,
  "size": 216,
  "weight": 864,
  "tx": [
    {
      "txid": "2c35e4ce0fca576931807fd8ac6f93566a14dbb184a21e33d32cced09f6dd34c",
      "hash": "2c35e4ce0fca576931807fd8ac6f93566a14dbb184a21e33d32cced09f6dd34c",
      "version": 1,
      "size": 135,
      "vsize": 135,
      "weight": 540,
      "locktime": 0,
      "vin": [
        {
          "coinbase": "04ffff001d024202",
          "sequence": 4294967295
        }
      ],
      "vout": [
        {
          "value": 50.0,
          "n": 0,
          "scriptPubKey": {
            "asm": "049de51f8b02ba22571d628ec6ed458c8c0ca449e2a1cfb180b36e37473d2f95d7a6bf4fdb9e460dceadaf9ba2eef55bf5bd49d093be5b75b8e24f2d3828841f9d OP_CHECKSIG",
            "desc": "pk(049de51f8b02ba22571d628ec6ed458c8c0ca449e2a1cfb180b36e37473d2f95d7a6bf4fdb9e460dceadaf9ba2eef55bf5bd49d093be5b75b8e24f2d3828841f9d)#cvuxzynd",
            "hex": "41049de51f8b02ba22571d628ec6ed458c8c0ca449e2a1cfb180b36e37473d2f95d7a6bf4fdb9e460dceadaf9ba2eef55bf5bd49d093be5b75b8e24f2d3828841f9dac",
            "type": "pubkey"
          }
        }
      ],
      "hex": "01000000010000000000000000000000000000000000000000000000000000000000000000ffffffff0804ffff001d024202ffffffff0100f2052a010000004341049de51f8b02ba22571d628ec6ed458c8c0ca449e2a1cfb180b36e37473d2f95d7a6bf4fdb9e460dceadaf9ba2eef55bf5bd49d093be5b75b8e24f2d3828841f9dac00000000"
    }
  ]
}