{
  "hash": "00000000051d92a464c9ea82e450d8ca44a0d04065e2f66aab01aa227ecfb3a4",
  "confirmations": 52257,
  "height": 841,
  "version": 1,
  "versionHex": "00000001",
  "merkleroot": "8c4dd475e2c4604e83b52334270d6b3738463c814cf8d1965982977abc75a8f0",
  "time": 1232223492,
  "mediantime": 1232219534,
  "nonce": 258391047,
  "bits": "1d00ffff",
  "difficulty": 1,
  "chainwork": "0000000000000000000000000000000000000000000000000000034a034a034a",
  "nTx": 1,
  "previousblockhash": "00000000b03cda0b68d1da2dadf83e41ab3bd27c63dbc06d9f0fdb3636472f76",
  "nextblockhash": "00000000161207e01bb1fd2dcf487e7b16bf32149569b93d683eec4e23eb8919",
  "strippedsize": 216,
  "size": 216,
  "weight": 864,
  "tx": [
    {
      "txid": "8c4dd475e2c4604e83b52334270d6b3738463c814cf8d1965982977abc75a8f0",
      "hash": "8c4dd475e2c4604e83b52334270d6b3738463c814cf8d1965982977abc75a8f0",
      "version": 1,
      "size": 135,
      "vsize": 135,
      "weight": 540,
      "locktime": 0,
      "vin": [
        {
          "coinbase": "04ffff001d023d02",
          "sequence": 4294967295
        }
      ],
      "vout": [
        {
          "value": 50.0,
          "n": 0,
          "scriptPubKey": {
            "asm": "0465f1ce369a3e7c9feab1003445ea6e047cb35e711dd2fb643ead4388a3de6f5e80ab9e7529992584ab6b7f8fcac6206d09c8c48ab54413fa3359274a20006a28 OP_CHECKSIG",
            "desc": "pk(0465f1ce369a3e7c9feab1003445ea6e047cb35e711dd2fb643ead4388a3de6f5e80ab9e7529992584ab6b7f8fcac6206d09c8c48ab54413fa3359274a20006a28)#6jjv80xq",
            "hex": "410465f1ce369a3e7c9feab1003445ea6e047cb35e711dd2fb643ead4388a3de6f5e80ab9e7529992584ab6b7f8fcac6206d09c8c48ab54413fa3359274a20006a28ac",
            "type": "pubkey"
          }
        }
      ],
      "hex": "01000000010000000000000000000000000000000000000000000000000000000000000000ffffffff0804ffff001d023d02ffffffff0100f2052a0100000043410465f1ce369a3e7c9feab1003445ea6e047cb35e711dd2fb643ead4388a3de6f5e80ab9e7529992584ab6b7f8fcac6206d09c8c48ab54413fa3359274a20006a28ac00000000"
    }
  ]
}