{
  "hash": "0000000039ed3376af265235bfa4e3fef3258f4c717da457623c5ec345bb52f8",
  "confirmations": 47436,
  "height": 5662,
  "version": 1,
  "versionHex": "00000001",
  "merkleroot": "44162a7e408f4ad1094c4b7ea20fc04edaac171a461e5f4464940505909c867c",
  "time": 1235660454,
  "mediantime": 1235654910,
  "nonce": 1662264614,
  "bits": "1d00ffff",
  "difficulty": 1,
  "chainwork": "0000000000000000000000000000000000000000000000000000161f161f161f",
  "nTx": 1,
  "previousblockhash": "00000000acf2fb91966651ef64da2807f589a0f93c124a04ee8cba86e3220473",
  "nextblockhash": "00000000063d0655258aab395c258913b77bfbe8cb4a4f9d2187ccaa5e35bbdf",
  "strippedsize": 216,
  "size": 216,
  "weight": 864,
  "tx": [
    {
      "txid": "44162a7e408f4ad1094c4b7ea20fc04edaac171a461e5f4464940505909c867c",
      "hash": "44162a7e408f4ad1094c4b7ea20fc04edaac171a461e5f4464940505909c867c",
      "version": 1,
      "size": 135,
      "vsize": 135,
      "weight": 540,
      "locktime": 0,
      "vin": [
        {
          "coinbase": "04ffff001d02e308",
          "sequence": 4294967295
        }
      ],
      "vout": [
        {
          "value": 50.0,
          "n": 0,
          "scriptPubKey": {
            "asm": "04644b36cd898db3368bd2fdc6e521929f1bb46fb3b9fa54715afdb45db7f239e1010712b0a74bdc600193f4f855a3d463012060027cc02576407ab0988e279b94 OP_CHECKSIG",
            "desc": "pk(04644b36cd898db3368bd2fdc6e521929f1bb46fb3b9fa54715afdb45db7f239e1010712b0a74bdc600193f4f855a3d463012060027cc02576407ab0988e279b94)#sdq2defe",
            "hex": "4104644b36cd898db3368bd2fdc6e521929f1bb46fb3b9fa54715afdb45db7f239e1010712b0a74bdc600193f4f855a3d463012060027cc02576407ab0988e279b94ac",
            "type": "pubkey"
          }
        }
      ],
      "hex": "01000000010000000000000000000000000000000000000000000000000000000000000000ffffffff0804ffff001d02e308ffffffff0100f2052a01000000434104644b36cd898db3368bd2fdc6e521929f1bb46fb3b9fa54715afdb45db7f239e1010712b0a74bdc600193f4f855a3d463012060027cc02576407ab0988e279b94ac00000000"
    }
  ]
}