{
  "hash": "00000000a8b2e10ddb8996b9abf88a6f421a1c5eb961396e7b79a08ab648078c",
  "confirmations": 46941,
  "height": 6157,
  "version": 1,
  "versionHex": "00000001",
  "merkleroot": "44de5b97cf5166ce1c722cd1198c924aeb99c71d215014add0f4248089b67ad1",
  "time": 1236055509,
  "mediantime": 1236050028,
  "nonce": 2634561318,
  "bits": "1d00ffff",
  "difficulty": 1,
  "chainwork": "0000000000000000000000000000000000000000000000000000180e180e180e",
  "nTx": 1,
  "previousblockhash": "000000003f6478724271336ead5e709616b066e0190f1d04ec944c899b880ebc",
  "nextblockhash": "00000000429a5c03424de0a0d38c1137d5375022192d3d005c8d177d34b19aa7",
  "strippedsize": 216,
  "size": 216,
  "weight": 864,
  "tx": [
    {
      "txid": "44de5b97cf5166ce1c722cd1198c924aeb99c71d215014add0f4248089b67ad1",
      "hash": "44de5b97cf5166ce1c722cd1198c924aeb99c71d215014add0f4248089b67ad1",
      "version": 1,
      "size": 135,
      "vsize": 135,
      "weight": 540,
      "locktime": 0,
      "vin": [
        {
          "coinbase": "04ffff001d02c207",
          "sequence": 4294967295
        }
      ],
      "vout": [
        {
          "value": 50.0,
          "n": 0,
          "scriptPubKey": {
            "asm": "04d9c983e6c93f1eaf31d9499e84a9938b04a286f57b233f943f77aa060708995ad36700df5ee5c1e40e98ef28e87b49190c1f67aaa5f0923dba148180f5388165 OP_CHECKSIG",
            "desc": "pk(04d9c983e6c93f1eaf31d9499e84a9938b04a286f57b233f943f77aa060708995ad36700df5ee5c1e40e98ef28e87b49190c1f67aaa5f0923dba148180f5388165)#3suh2d78",
            "hex": "4104d9c983e6c93f1eaf31d9499e84a9938b04a286f57b233f943f77aa060708995ad36700df5ee5c1e40e98ef28e87b49190c1f67aaa5f0923dba148180f5388165ac",
            "type": "pubkey"
          }
        }
      ],
      "hex": "01000000010000000000000000000000000000000000000000000000000000000000000000ffffffff0804ffff001d02c207ffffffff0100f2052a01000000434104d9c983e6c93f1eaf31d9499e84a9938b04a286f57b233f943f77aa060708995ad36700df5ee5c1e40e98ef28e87b49190c1f67aaa5f0923dba148180f5388165ac00000000"
    }
  ]
}