{
  "hash": "00000000ad08e021f57d3190553f0096bd42527a7770a303d220dc942a2851c9",
  "confirmations": 48660,
  "height": 4438,
  "version": 1,
  "versionHex": "00000001",
  "merkleroot": "38b8454c342d7ac328ae223ac943d1bea0c9a9e9e6f187539f8e76bd9d60a695",
  "time": 1234739229,
  "mediantime": 1234737605,
  "nonce": 46459443,
  "bits": "1d00ffff",
  "difficulty": 1,
  "chainwork": "0000000000000000000000000000000000000000000000000000115711571157",
  "nTx": 1,
  "previousblockhash": "00000000d6ee7e4c92259a9e84108cef8c6820fc744072781a61f5fa86fe549c",
  "nextblockhash": "0000000048120e90de2bb671d3d24e1e8c9525985214eff0b0ba2b0483a5dcb3",
  "strippedsize": 215,
  "size": 215,
  "weight": 860,
  "tx": [
    {
      "txid": "38b8454c342d7ac328ae223ac943d1bea0c9a9e9e6f187539f8e76bd9d60a695",
      "hash": "38b8454c342d7ac328ae223ac943d1bea0c9a9e9e6f187539f8e76bd9d60a695",
      "version": 1,
      "size": 134,
      "vsize": 134,
      "weight": 536,
      "locktime": 0,
      "vin": [
        {
          "coinbase": "04ffff001d0123",
          "sequence": 4294967295
        }
      ],
      "vout": [
        {
          "value": 50.0,
          "n": 0,
          "scriptPubKey": {
            "asm": "0440aafdfbfdbf895e5be0e93f2853c71ce5d903170e2ab821d59cd306a00614f06098083f50143f1c1becdfbfea8114c1c82c0b03d593ef8c80c2d8ed1e573e51 OP_CHECKSIG",
            "desc": "pk(0440aafdfbfdbf895e5be0e93f2853c71ce5d903170e2ab821d59cd306a00614f06098083f50143f1c1becdfbfea8114c1c82c0b03d593ef8c80c2d8ed1e573e51)#9a2h8rv9",
            "hex": "410440aafdfbfdbf895e5be0e93f2853c71ce5d903170e2ab821d59cd306a00614f06098083f50143f1c1becdfbfea8114c1c82c0b03d593ef8c80c2d8ed1e573e51ac",
            "type": "pubkey"
          }
        }
      ],
      "hex": "01000000010000000000000000000000000000000000000000000000000000000000000000ffffffff0704ffff001d0123ffffffff0100f2052a0100000043410440aafdfbfdbf895e5be0e93f2853c71ce5d903170e2ab821d59cd306a00614f06098083f50143f1c1becdfbfea8114c1c82c0b03d593ef8c80c2d8ed1e573e51ac00000000"
    }
  ]
}