{
  "hash": "000000000bbccfffd24cead315d5975f5c6d1fefebe9b76219f0bd429d841567",
  "confirmations": 49878,
  "height": 3220,
  "version": 1,
  "versionHex": "00000001",
  "merkleroot": "b9f849c9861e0f6adb2ca961abd8f38d8bb22ec1ff32e903c65d854c7ca8fc9c",
  "time": 1233915473,
  "mediantime": 1233912192,
  "nonce": 27895768,
  "bits": "1d00ffff",
  "difficulty": 1,
  "chainwork": "00000000000000000000000000000000000000000000000000000c950c950c95",
  "nTx": 1,
  "previousblockhash": "000000001e2d9fb69a7674c9e99cea651f9a9889f6bee7d49a55001913720da7",
  "nextblockhash": "00000000fec4d1033bc750395d89a151b6c28615218aa1b6d7e519062bcf50b5",
  "strippedsize": 216,
  "size": 216,
  "weight": 864,
  "tx": [
    {
      "txid": "b9f849c9861e0f6adb2ca961abd8f38d8bb22ec1ff32e903c65d854c7ca8fc9c",
      "hash": "b9f849c9861e0f6adb2ca961abd8f38d8bb22ec1ff32e903c65d854c7ca8fc9c",
      "version": 1,
      "size": 135,
      "vsize": 135,
      "weight": 540,
      "locktime": 0,
      "vin": [
        {
          "coinbase": "04ffff001d022a02",
          "sequence": 4294967295
        }
      ],
      "vout": [
        {
          "value": 50.0,
          "n": 0,
          "scriptPubKey": {
            "asm": "04c1c61d4450938235a254001dd08865a7133a7a09a464b333feedc15607d7b5593658463a4c51695da9baf75e61b647a1ae794a46f1cd4889176a790197bde67b OP_CHECKSIG",
            "desc": "pk(04c1c61d4450938235a254001dd08865a7133a7a09a464b333feedc15607d7b5593658463a4c51695da9baf75e61b647a1ae794a46f1cd4889176a790197bde67b)#w3hy8m5y",
            "hex": "4104c1c61d4450938235a254001dd08865a7133a7a09a464b333feedc15607d7b5593658463a4c51695da9baf75e61b647a1ae794a46f1cd4889176a790197bde67bac",
            "type": "pubkey"
          }
        }
      ],
      "hex": "01000000010000000000000000000000000000000000000000000000000000000000000000ffffffff0804ffff001d022a02ffffffff0100f2052a01000000434104c1c61d4450938235a254001dd08865a7133a7a09a464b333feedc15607d7b5593658463a4c51695da9baf75e61b647a1ae794a46f1cd4889176a790197bde67bac00000000"
    }
  ]
}