{
  "hash": "0000000059be1d660bd064ff357d3bea51bd0fdcc18edd52a6d16dbd8524c6e3",
  "confirmations": 46907,
  "height": 6191,
  "version": 1,
  "versionHex": "00000001",
  "merkleroot": "4cdf01225e7e84a269eabae65df5088ac1eae5d3e8f4548393728615e6c9371e",
  "time": 1236084224,
  "mediantime": 1236080990,
  "nonce": 2498755585,
  "bits": "1d00ffff",
  "difficulty": 1,
  "chainwork": "0000000000000000000000000000000000000000000000000000183018301830",
  "nTx": 1,
  "previousblockhash": "00000000dcb2953968350328c7e0198d4f1ccbf21df2896e6c131a207abcd2bb",
  "nextblockhash": "000000000c0a5629d40dbcc118b268360d783c0794464efac2001c2c52a12781",
  "strippedsize": 216,
  "size": 216,
  "weight": 864,
  "tx": [
    {
      "txid": "4cdf01225e7e84a269eabae65df5088ac1eae5d3e8f4548393728615e6c9371e",
      "hash": "4cdf01225e7e84a269eabae65df5088ac1eae5d3e8f4548393728615e6c9371e",
      "version": 1,
      "size": 135,
      "vsize": 135,
      "weight": 540,
      "locktime": 0,
      "vin": [
        {
          "coinbase": "04ffff001d025308",
          "sequence": 4294967295
        }
      ],
      "vout": [
        {
          "value": 50.0,
          "n": 0,
          "scriptPubKey": {
            "asm": "04a9c4b0416387ecfc1324271989de85d11f4fa6caf86b6a661d25cba7aa6cb3bfe042d2b34daa635aa4370fd37c73469d70d42f15d02f127b881e2b6807b8fed2 OP_CHECKSIG",
            "desc": "pk(04a9c4b0416387ecfc1324271989de85d11f4fa6caf86b6a661d25cba7aa6cb3bfe042d2b34daa635aa4370fd37c73469d70d42f15d02f127b881e2b6807b8fed2)#3p60xgxr",
            "hex": "4104a9c4b0416387ecfc1324271989de85d11f4fa6caf86b6a661d25cba7aa6cb3bfe042d2b34daa635aa4370fd37c73469d70d42f15d02f127b881e2b6807b8fed2ac",
            "type": "pubkey"
          }
        }
      ],
      "hex": "01000000010000000000000000000000000000000000000000000000000000000000000000ffffffff0804ffff001d025308ffffffff0100f2052a01000000434104a9c4b0416387ecfc1324271989de85d11f4fa6caf86b6a661d25cba7aa6cb3bfe042d2b34daa635aa4370fd37c73469d70d42f15d02f127b881e2b6807b8fed2ac00000000"
    }
  ]
}