{
  "hash": "000000004789b808af690cd3e3bef36ca5c40252193b22eebb758bb094df9cb4",
  "confirmations": 46624,
  "height": 6474,
  "version": 1,
  "versionHex": "00000001",
  "merkleroot": "6dd37eb67b2b23e2c0369f85864211a59f3afef663ea216500e093fe424ead40",
  "time": 1236310302,
  "mediantime": 1236306517,
  "nonce": 2134313505,
  "bits": "1d00ffff",
  "difficulty": 1,
  "chainwork": "0000000000000000000000000000000000000000000000000000194b194b194b",
  "nTx": 1,
  "previousblockhash": "0000000009dd14542530e896c9990ad2ba3d1027ef5f0bcde0efacda41704b92",
  "nextblockhash": "00000000375803a731edbfabd87ae9ec8500645ffb9a8b3a64fe4d3c6c1635bd",
  "strippedsize": 216,
  "size": 216,
  "weight": 864,
  "tx": [
    {
      "txid": "6dd37eb67b2b23e2c0369f85864211a59f3afef663ea216500e093fe424ead40",
      "hash": "6dd37eb67b2b23e2c0369f85864211a59f3afef663ea216500e093fe424ead40",
      "version": 1,
      "size": 135,
      "vsize": 135,
      "weight": 540,
      "locktime": 0,
      "vin": [
        {
          "coinbase": "04ffff001d02e002",
          "sequence": 4294967295
        }
      ],
      "vout": [
        {
          "value": 50.0,
          "n": 0,
          "scriptPubKey": {
            "asm": "04948b9c0bb27e790460e586eed0d922f68d50873a6156e46a26717561992677fd3c12a4ca02051803c0df26352ed106d2c57b70d5c7d6a95ebbd526b6fa849f9b OP_CHECKSIG",
            "desc": "pk(04948b9c0bb27e790460e586eed0d922f68d50873a6156e46a26717561992677fd3c12a4ca02051803c0df26352ed106d2c57b70d5c7d6a95ebbd526b6fa849f9b)#5mgg39e5",
            "hex": "4104948b9c0bb27e790460e586eed0d922f68d50873a6156e46a26717561992677fd3c12a4ca02051803c0df26352ed106d2c57b70d5c7d6a95ebbd526b6fa849f9bac",
            "type": "pubkey"
          }
        }
      ],
      "hex": "01000000010000000000000000000000000000000000000000000000000000000000000000ffffffff0804ffff001d02e002ffffffff0100f2052a01000000434104948b9c0bb27e790460e586eed0d922f68d50873a6156e46a26717561992677fd3c12a4ca02051803c0df26352ed106d2c57b70d5c7d6a95ebbd526b6fa849f9bac00000000"
    }
  ]
}