{
  "hash": "00000000802f81d32148baaef7c7bc786853cde82bef5321d1f1bded819f2991",
  "confirmations": 44906,
  "height": 8192,
  "version": 1,
  "versionHex": "00000001",
  "merkleroot": "d9d761e902a3278220f53516182fbfb7d9da11224cc24abadb41934e34a49370",
  "time": 1237600863,
  "mediantime": 1237597185,
  "nonce": 373847624,
  "bits": "1d00ffff",
  "difficulty": 1,
  "chainwork": "0000000000000000000000000000000000000000000000000000200120012001",
  "nTx": 1,
  "previousblockhash": "000000007b8668d5592a7121834c43237d7cfd28104f6276eebedab94901ff66",
  "nextblockhash": "000000001b06f211d4ed453686832efff5facf0c91d8216347213435c31d7766",
  "strippedsize": 216,
  "size": 216,
  "weight": 864,
  "tx": [
    {
      "txid": "d9d761e902a3278220f53516182fbfb7d9da11224cc24abadb41934e34a49370",
      "hash": "d9d761e902a3278220f53516182fbfb7d9da11224cc24abadb41934e34a49370",
      "version": 1,
      "size": 135,
      "vsize": 135,
      "weight": 540,
      "locktime": 0,
      "vin": [
        {
          "coinbase": "04ffff001d02c900",
          "sequence": 4294967295
        }
      ],
      "vout": [
        {
          "value": 50.0,
          "n": 0,
          "scriptPubKey": {
            "asm": "04a59859dd29141d99cd3b3e2d55709c3ff78ce7b81c64cf8a7976afdc78d5e2bb07b3c6d8f67a3aa17e39916b6865d622e3321cd88ae93a4a81d385d6f6dff9b3 OP_CHECKSIG",
            "desc": "pk(04a59859dd29141d99cd3b3e2d55709c3ff78ce7b81c64cf8a7976afdc78d5e2bb07b3c6d8f67a3aa17e39916b6865d622e3321cd88ae93a4a81d385d6f6dff9b3)#d9j0ws6c",
            "hex": "4104a59859dd29141d99cd3b3e2d55709c3ff78ce7b81c64cf8a7976afdc78d5e2bb07b3c6d8f67a3aa17e39916b6865d622e3321cd88ae93a4a81d385d6f6dff9b3ac",
            "type": "pubkey"
          }
        }
      ],
      "hex": "01000000010000000000000000000000000000000000000000000000000000000000000000ffffffff0804ffff001d02c900ffffffff0100f2052a01000000434104a59859dd29141d99cd3b3e2d55709c3ff78ce7b81c64cf8a7976afdc78d5e2bb07b3c6d8f67a3aa17e39916b6865d622e3321cd88ae93a4a81d385d6f6dff9b3ac00000000"
    }
  ]
}