{
  "hash": "0000000052f267644d3dc38d7f066b8aec0823062211ab1e2e22ea61849adace",
  "confirmations": 44944,
  "height": 8154,
  "version": 1,
  "versionHex": "00000001",
  "merkleroot": "cd124cef8815d919b0870b6ae91deafdc4226d3897e7d387a572b75295a1668b",
  "time": 1237575723,
  "mediantime": 1237572805,
  "nonce": 1251693090,
  "bits": "1d00ffff",
  "difficulty": 1,
  "chainwork": "00000000000000000000000000000000000000000000000000001fdb1fdb1fdb",
  "nTx": 1,
  "previousblockhash": "0000000061c197c566170b6a3672d18224c5f2a5579ddb00ca67631947c4b8a2",
  "nextblockhash": "00000000b611152167c88d65f482667580c64041ef92b8224811260f70f42fb1",
  "strippedsize": 216,
  "size": 216,
  "weight": 864,
  "tx": [
    {
      "txid": "cd124cef8815d919b0870b6ae91deafdc4226d3897e7d387a572b75295a1668b",
      "hash": "cd124cef8815d919b0870b6ae91deafdc4226d3897e7d387a572b75295a1668b",
      "version": 1,
      "size": 135,
      "vsize": 135,
      "weight": 540,
      "locktime": 0,
      "vin": [
        {
          "coinbase": "04ffff001d020802",
          "sequence": 4294967295
        }
      ],
      "vout": [
        {
          "value": 50.0,
          "n": 0,
          "scriptPubKey": {
            "asm": "045c575092a14cd1bba1de89318d53ebb3cf59fc155b6638052537959d2786b96c29f90a887ddbaaf510d4ae6b31a3612183374b65ba30d98eb2043e90acd7b00b OP_CHECKSIG",
            "desc": "pk(045c575092a14cd1bba1de89318d53ebb3cf59fc155b6638052537959d2786b96c29f90a887ddbaaf510d4ae6b31a3612183374b65ba30d98eb2043e90acd7b00b)#gfxx789r",
            "hex": "41045c575092a14cd1bba1de89318d53ebb3cf59fc155b6638052537959d2786b96c29f90a887ddbaaf510d4ae6b31a3612183374b65ba30d98eb2043e90acd7b00bac",
            "type": "pubkey"
          }
        }
      ],
      "hex": "01000000010000000000000000000000000000000000000000000000000000000000000000ffffffff0804ffff001d020802ffffffff0100f2052a010000004341045c575092a14cd1bba1de89318d53ebb3cf59fc155b6638052537959d2786b96c29f90a887ddbaaf510d4ae6b31a3612183374b65ba30d98eb2043e90acd7b00bac00000000"
    }
  ]
}