{
  "hash": "00000000ad220a413041f6c50c396ff9522f4e5dcc6c955e4e99ae7bbda2f575",
  "confirmations": 50203,
  "height": 2895,
  "version": 1,
  "versionHex": "00000001",
  "merkleroot": "0ca0363cd5265a900f85fe44c4a9b0d58f68a7660835339599fab6357b575598",
  "time": 1233689051,
  "mediantime": 1233685532,
  "nonce": 412378089,
  "bits": "1d00ffff",
  "difficulty": 1,
  "chainwork": "00000000000000000000000000000000000000000000000000000b500b500b50",
  "nTx": 1,
  "previousblockhash": "00000000b619e0d2de2553e632d75814cba8b95af7132d173c23ca8a0dbda690",
  "nextblockhash": "00000000739051ee3f517aa433062cf021d50b81b6e637c2d8113307c09b900b",
  "strippedsize": 216,
  "size": 216,
  "weight": 864,
  "tx": [
    {
      "txid": "0ca0363cd5265a900f85fe44c4a9b0d58f68a7660835339599fab6357b575598",
      "hash": "0ca0363cd5265a900f85fe44c4a9b0d58f68a7660835339599fab6357b575598",
      "version": 1,
      "size": 135,
      "vsize": 135,
      "weight": 540,
      "locktime": 0,
      "vin": [
        {
          "coinbase": "04ffff001d02d803",
          "sequence": 4294967295
        }
      ],
      "vout": [
        {
          "value": 50.0,
          "n": 0,
          "scriptPubKey": {
            "asm": "043f806acb293cbb32eb50d00acbcfbcabe4d37bb61c8d2f985161736093f06fe88499f3fab957b99f79c55be0a7037017322a4e30f85426aee29a529faaf45f3e OP_CHECKSIG",
            "desc": "pk(043f806acb293cbb32eb50d00acbcfbcabe4d37bb61c8d2f985161736093f06fe88499f3fab957b99f79c55be0a7037017322a4e30f85426aee29a529faaf45f3e)#xdnyww9f",
            "hex": "41043f806acb293cbb32eb50d00acbcfbcabe4d37bb61c8d2f985161736093f06fe88499f3fab957b99f79c55be0a7037017322a4e30f85426aee29a529faaf45f3eac",
            "type": "pubkey"
          }
        }
      ],
      "hex": "01000000010000000000000000000000000000000000000000000000000000000000000000ffffffff0804ffff001d02d803ffffffff0100f2052a010000004341043f806acb293cbb32eb50d00acbcfbcabe4d37bb61c8d2f985161736093f06fe88499f3fab957b99f79c55be0a7037017322a4e30f85426aee29a529faaf45f3eac00000000"
    }
  ]
}