{
  "hash": "00000000ad7b0e88e010c0a004734cc40a7e1ef5d42c45d236d7b1adfde66a61",
  "confirmations": 44403,
  "height": 8695,
  "version": 1,
  "versionHex": "00000001",
  "merkleroot": "f937c1b2a18905117c315b5df63bff0b5e23d3ca8cb17db68e277ed2c2647843",
  "time": 1238021032,
  "mediantime": 1238017636,
  "nonce": 1214164250,
  "bits": "1d00ffff",
  "difficulty": 1,
  "chainwork": "000000000000000000000000000000000000000000000000000021f821f821f8",
  "nTx": 1,
  "previousblockhash": "0000000048a9e61a5c47c60d9cda6594ca9798f040b4a6a7e73ad28b7f227cee",
  "nextblockhash": "00000000b754236eb995c2c9dc249c024249d4ca518336ce5755133f3e526063",
  "strippedsize": 216,
  "size": 216,
  "weight": 864,
  "tx": [
    {
      "txid": "f937c1b2a18905117c315b5df63bff0b5e23d3ca8cb17db68e277ed2c2647843",
      "hash": "f937c1b2a18905117c315b5df63bff0b5e23d3ca8cb17db68e277ed2c2647843",
      "version": 1,
      "size": 135,
      "vsize": 135,
      "weight": 540,
      "locktime": 0,
      "vin": [
        {
          "coinbase": "04ffff001d02d500",
          "sequence": 4294967295
        }
      ],
      "vout": [
        {
          "value": 50.0,
          "n": 0,
          "scriptPubKey": {
            "asm": "04a1e0257d510e0563d82ed5134c9b20f958b2295175c912e6c787c4dcb1f28d282d63ffd4b4c041cd12c94d315119130fe23e5d310d0cf9a8fc378644877a26ac OP_CHECKSIG",
            "desc": "pk(04a1e0257d510e0563d82ed5134c9b20f958b2295175c912e6c787c4dcb1f28d282d63ffd4b4c041cd12c94d315119130fe23e5d310d0cf9a8fc378644877a26ac)#u0l7udt2",
            "hex": "4104a1e0257d510e0563d82ed5134c9b20f958b2295175c912e6c787c4dcb1f28d282d63ffd4b4c041cd12c94d315119130fe23e5d310d0cf9a8fc378644877a26acac",
            "type": "pubkey"
          }
        }
      ],
      "hex": "01000000010000000000000000000000000000000000000000000000000000000000000000ffffffff0804ffff001d02d500ffffffff0100f2052a01000000434104a1e0257d510e0563d82ed5134c9b20f958b2295175c912e6c787c4dcb1f28d282d63ffd4b4c041cd12c94d315119130fe23e5d310d0cf9a8fc378644877a26acac00000000"
    }
  ]
}