{
  "hash": "00000000060bf8df0264f34e0c5a797e76ee7d7747ad601b2740cdb2444ddbd2",
  "confirmations": 44950,
  "height": 8148,
  "version": 1,
  "versionHex": "00000001",
  "merkleroot": "78b0cc493326a4c4dd2cae0967d9f35dc28ac76868e906ab64ad28a24488166e",
  "time": 1237572248,
  "mediantime": 1237567953,
  "nonce": 436036387,
  "bits": "1d00ffff",
  "difficulty": 1,
  "chainwork": "00000000000000000000000000000000000000000000000000001fd51fd51fd5",
  "nTx": 1,
  "previousblockhash": "000000006d612c22097029b0d89928102b10241e5bb588efef20e6476bdc9ee7",
  "nextblockhash": "00000000fad7d9b3db7773b6263b902c8d6dabfc5ec36d6941188627393394e6",
  "strippedsize": 216,
  "size": 216,
  "weight": 864,
  "tx": [
    {
      "txid": "78b0cc493326a4c4dd2cae0967d9f35dc28ac76868e906ab64ad28a24488166e",
      "hash": "78b0cc493326a4c4dd2cae0967d9f35dc28ac76868e906ab64ad28a24488166e",
      "version": 1,
      "size": 135,
      "vsize": 135,
      "weight": 540,
      "locktime": 0,
      "vin": [
        {
          "coinbase": "04ffff001d02f801",
          "sequence": 4294967295
        }
      ],
      "vout": [
        {
          "value": 50.0,
          "n": 0,
          "scriptPubKey": {
            "asm": "04d5c1204411eaca207dc4470298d78528d6dd9ccc109b2a2254758f40ac841a56d227bdc177f11b07ba04bf713df2cee20a2c56dd0325c6d64f001973e5cf7e24 OP_CHECKSIG",
            "desc": "pk(04d5c1204411eaca207dc4470298d78528d6dd9ccc109b2a2254758f40ac841a56d227bdc177f11b07ba04bf713df2cee20a2c56dd0325c6d64f001973e5cf7e24)#qrhdyhhc",
            "hex": "4104d5c1204411eaca207dc4470298d78528d6dd9ccc109b2a2254758f40ac841a56d227bdc177f11b07ba04bf713df2cee20a2c56dd0325c6d64f001973e5cf7e24ac",
            "type": "pubkey"
          }
        }
      ],
      "hex": "01000000010000000000000000000000000000000000000000000000000000000000000000ffffffff0804ffff001d02f801ffffffff0100f2052a01000000434104d5c1204411eaca207dc4470298d78528d6dd9ccc109b2a2254758f40ac841a56d227bdc177f11b07ba04bf713df2cee20a2c56dd0325c6d64f001973e5cf7e24ac00000000"
    }
  ]
}