{
  "hash": "00000000bc10a25818aeab20a63d0250da3e30b6a6bac9606c0061d3cfcc8bc8",
  "confirmations": 49502,
  "height": 3596,
  "version": 1,
  "versionHex": "00000001",
  "merkleroot": "eb7675a7565d2cd232b066640233dd5093be3f69340a2b1c9dbb76c163b32a36",
  "time": 1234169928,
  "mediantime": 1234166192,
  "nonce": 2609940,
  "bits": "1d00ffff",
  "difficulty": 1,
  "chainwork": "00000000000000000000000000000000000000000000000000000e0d0e0d0e0d",
  "nTx": 1,
  "previousblockhash": "000000002d65894ac42111196a3cc544594144192ee3bef5faf291fcdb05f0fe",
  "nextblockhash": "00000000be340f46e12a790b274fde7ecab2b8586baec86219b209d827a4f5e4",
  "strippedsize": 216,
  "size": 216,
  "weight": 864,
  "tx": [
    {
      "txid": "eb7675a7565d2cd232b066640233dd5093be3f69340a2b1c9dbb76c163b32a36",
      "hash": "eb7675a7565d2cd232b066640233dd5093be3f69340a2b1c9dbb76c163b32a36",
      "version": 1,
      "size": 135,
      "vsize": 135,
      "weight": 540,
      "locktime": 0,
      "vin": [
        {
          "coinbase": "04ffff001d022401",
          "sequence": 4294967295
        }
      ],
      "vout": [
        {
          "value": 50.0,
          "n": 0,
          "scriptPubKey": {
            "asm": "044c5c5a5e88ed597a4256bd73e21d574403952572a65fc3c39493bf7775591771261880a9c64f33112c653539c4c64652587a99421b266edf16155ffcef09e871 OP_CHECKSIG",
            "desc": "pk(044c5c5a5e88ed597a4256bd73e21d574403952572a65fc3c39493bf7775591771261880a9c64f33112c653539c4c64652587a99421b266edf16155ffcef09e871)#ua64h92t",
            "hex": "41044c5c5a5e88ed597a4256bd73e21d574403952572a65fc3c39493bf7775591771261880a9c64f33112c653539c4c64652587a99421b266edf16155ffcef09e871ac",
            "type": "pubkey"
          }
        }
      ],
      "hex": "01000000010000000000000000000000000000000000000000000000000000000000000000ffffffff0804ffff001d022401ffffffff0100f2052a010000004341044c5c5a5e88ed597a4256bd73e21d574403952572a65fc3c39493bf7775591771261880a9c64f33112c653539c4c64652587a99421b266edf16155ffcef09e871ac00000000"
    }
  ]
}