{
  "hash": "000000003abc5f04a0388406a3f268716e293394f6824f8e05b8808fcba633c0",
  "confirmations": 43218,
  "height": 9880,
  "version": 1,
  "versionHex": "00000001",
  "merkleroot": "4125598928dde565f60d37c2fe9f89f38a93cc3a6119673bf06655bb1e50a70b",
  "time": 1238912017,
  "mediantime": 1238909871,
  "nonce": 2930522412,
  "bits": "1d00ffff",
  "difficulty": 1,
  "chainwork": "0000000000000000000000000000000000000000000000000000269926992699",
  "nTx": 1,
  "previousblockhash": "000000003d6d7481a0c36a44a14d64d1ffecf63416394195ddf3dfe8e2d02103",
  "nextblockhash": "00000000305fd11c9d5e286ab19b452848a784abc927905d8d91e57928114f85",
  "strippedsize": 216,
  "size": 216,
  "weight": 864,
  "tx": [
    {
      "txid": "4125598928dde565f60d37c2fe9f89f38a93cc3a6119673bf06655bb1e50a70b",
      "hash": "4125598928dde565f60d37c2fe9f89f38a93cc3a6119673bf06655bb1e50a70b",
      "version": 1,
      "size": 135,
      "vsize": 135,
      "weight": 540,
      "locktime": 0,
      "vin": [
        {
          "coinbase": "04ffff001d02be01",
          "sequence": 4294967295
        }
      ],
      "vout": [
        {
          "value": 50.0,
          "n": 0,
          "scriptPubKey": {
            "asm": "0421fa04758c64e13673d72c8def816f0c0861d662d863bd17f387020f4bd6781cdc902226be0cf103f42b4bcb09f47073d7ead91752259873f2a90df5bc580052 OP_CHECKSIG",
            "desc": "pk(0421fa04758c64e13673d72c8def816f0c0861d662d863bd17f387020f4bd6781cdc902226be0cf103f42b4bcb09f47073d7ead91752259873f2a90df5bc580052)#6zxr0ufa",
            "hex": "410421fa04758c64e13673d72c8def816f0c0861d662d863bd17f387020f4bd6781cdc902226be0cf103f42b4bcb09f47073d7ead91752259873f2a90df5bc580052ac",
            "type": "pubkey"
          }
        }
      ],
      "hex": "01000000010000000000000000000000000000000000000000000000000000000000000000ffffffff0804ffff001d02be01ffffffff0100f2052a0100000043410421fa04758c64e13673d72c8def816f0c0861d662d863bd17f387020f4bd6781cdc902226be0cf103f42b4bcb09f47073d7ead91752259873f2a90df5bc580052ac00000000"
    }
  ]
}