{
  "hash": "00000000d8c7462406aecd109949b6acdebe5a60c1c63f97783e5281f331c296",
  "confirmations": 43893,
  "height": 9205,
  "version": 1,
  "versionHex": "00000001",
  "merkleroot": "71bd89a74eb7a5b6f3eadf26757de1953da03ca4f5cb9d59267e3f67dce41686",
  "time": 1238402431,
  "mediantime": 1238398315,
  "nonce": 1920105525,
  "bits": "1d00ffff",
  "difficulty": 1,
  "chainwork": "000000000000000000000000000000000000000000000000000023f623f623f6",
  "nTx": 1,
  "previousblockhash": "00000000624e884ddacab5333c63d7dd76e39e90ea5eee9000166ead7a8e481d",
  "nextblockhash": "00000000577588f4ff0a77c1a5deced4ba97e4cf753c9a80b4213dac6438f7a7",
  "strippedsize": 216,
  "size": 216,
  "weight": 864,
  "tx": [
    {
      "txid": "71bd89a74eb7a5b6f3eadf26757de1953da03ca4f5cb9d59267e3f67dce41686",
      "hash": "71bd89a74eb7a5b6f3eadf26757de1953da03ca4f5cb9d59267e3f67dce41686",
      "version": 1,
      "size": 135,
      "vsize": 135,
      "weight": 540,
      "locktime": 0,
      "vin": [
        {
          "coinbase": "04ffff001d02340a",
          "sequence": 4294967295
        }
      ],
      "vout": [
        {
          "value": 50.0,
          "n": 0,
          "scriptPubKey": {
            "asm": "049caa913a620b9ec692cf9e23749450f9e92d890416636ed1e1fd804dbdeb69d0ddf69bd1f5d853632e8322c6ca65b54d2c530d74810d1ae2f4c00a7dd232dd66 OP_CHECKSIG",
            "desc": "pk(049caa913a620b9ec692cf9e23749450f9e92d890416636ed1e1fd804dbdeb69d0ddf69bd1f5d853632e8322c6ca65b54d2c530d74810d1ae2f4c00a7dd232dd66)#nw2uhsz9",
            "hex": "41049caa913a620b9ec692cf9e23749450f9e92d890416636ed1e1fd804dbdeb69d0ddf69bd1f5d853632e8322c6ca65b54d2c530d74810d1ae2f4c00a7dd232dd66ac",
            "type": "pubkey"
          }
        }
      ],
      "hex": "01000000010000000000000000000000000000000000000000000000000000000000000000ffffffff0804ffff001d02340affffffff0100f2052a010000004341049caa913a620b9ec692cf9e23749450f9e92d890416636ed1e1fd804dbdeb69d0ddf69bd1f5d853632e8322c6ca65b54d2c530d74810d1ae2f4c00a7dd232dd66ac00000000"
    }
  ]
}