{
  "hash": "000000006931328b8306e5c4c643ffbd537920e106866a0f37ffdbaa41b865a3",
  "confirmations": 50273,
  "height": 2825,
  "version": 1,
  "versionHex": "00000001",
  "merkleroot": "e3e07bd3bb9c295e898c6f679f3b75c844b759d292b3191a5260cc08ce50d1b5",
  "time": 1233642828,
  "mediantime": 1233639192,
  "nonce": 394770,
  "bits": "1d00ffff",
  "difficulty": 1,
  "chainwork": "00000000000000000000000000000000000000000000000000000b0a0b0a0b0a",
  "nTx": 1,
  "previousblockhash": "00000000f0394a8c6ccdc1fec741c8e3292bd0d60034fcb58cc74597151c59a7",
  "nextblockhash": "0000000089cff00788f5b5d1aa19b37b0e4e5f3d0da75c1ed0f27de07fc07417",
  "strippedsize": 216,
  "size": 216,
  "weight": 864,
  "tx": [
    {
      "txid": "e3e07bd3bb9c295e898c6f679f3b75c844b759d292b3191a5260cc08ce50d1b5",
      "hash": "e3e07bd3bb9c295e898c6f679f3b75c844b759d292b3191a5260cc08ce50d1b5",
      "version": 1,
      "size": 135,
      "vsize": 135,
      "weight": 540,
      "locktime": 0,
      "vin": [
        {
          "coinbase": "04ffff001d028606",
          "sequence": 4294967295
        }
      ],
      "vout": [
        {
          "value": 50.0,
          "n": 0,
          "scriptPubKey": {
            "asm": "047b731435467bb101d1625eac99ee0533169b44bd0dd4d7c7a0d3d96273ef15bfce2f2c00751a15f994b72e2bd17b2f5503aaa1e10b0f89a1e5345ee5e9662608 OP_CHECKSIG",
            "desc": "pk(047b731435467bb101d1625eac99ee0533169b44bd0dd4d7c7a0d3d96273ef15bfce2f2c00751a15f994b72e2bd17b2f5503aaa1e10b0f89a1e5345ee5e9662608)#dcuppnyz",
            "hex": "41047b731435467bb101d1625eac99ee0533169b44bd0dd4d7c7a0d3d96273ef15bfce2f2c00751a15f994b72e2bd17b2f5503aaa1e10b0f89a1e5345ee5e9662608ac",
            "type": "pubkey"
          }
        }
      ],
      "hex": "01000000010000000000000000000000000000000000000000000000000000000000000000ffffffff0804ffff001d028606ffffffff0100f2052a010000004341047b731435467bb101d1625eac99ee0533169b44bd0dd4d7c7a0d3d96273ef15bfce2f2c00751a15f994b72e2bd17b2f5503aaa1e10b0f89a1e5345ee5e9662608ac00000000"
    }
  ]
}