{
  "hash": "000000001e6107da5e086b101e8af5e8f68cb0f5d267c15d66358c6b9ad27af6",
  "confirmations": 46754,
  "height": 6344,
  "version": 1,
  "versionHex": "00000001",
  "merkleroot": "415c72b5b36bf5c3229747bd353695b21410ee9f90f06079d655bc175a0b0557",
  "time": 1236210099,
  "mediantime": 1236204307,
  "nonce": 1622693155,
  "bits": "1d00ffff",
  "difficulty": 1,
  "chainwork": "000000000000000000000000000000000000000000000000000018c918c918c9",
  "nTx": 1,
  "previousblockhash": "000000001c53155b3f5a9e3d7a9abdd9f73a6d7a244ef5891fba5ca0953fb03e",
  "nextblockhash": "00000000999f159b0f6ae26078f331d5d20aa65b17ab58b8b41422885eaf4b25",
  "strippedsize": 216,
  "size": 216,
  "weight": 864,
  "tx": [
    {
      "txid": "415c72b5b36bf5c3229747bd353695b21410ee9f90f06079d655bc175a0b0557",
      "hash": "415c72b5b36bf5c3229747bd353695b21410ee9f90f06079d655bc175a0b0557",
      "version": 1,
      "size": 135,
      "vsize": 135,
      "weight": 540,
      "locktime": 0,
      "vin": [
        {
          "coinbase": "04ffff001d02bf00",
          "sequence": 4294967295
        }
      ],
      "vout": [
        {
          "value": 50.0,
          "n": 0,
          "scriptPubKey": {
            "asm": "048bef31c3d79f0e80ffd7a74bc3b535f9560458264bac0f429c5dea6585874e6d319f4baa9fc9be572606b92f920a562228246dc1c8f1fb855a60d3cce84ea7fa OP_CHECKSIG",
            "desc": "pk(048bef31c3d79f0e80ffd7a74bc3b535f9560458264bac0f429c5dea6585874e6d319f4baa9fc9be572606b92f920a562228246dc1c8f1fb855a60d3cce84ea7fa)#tztywy4c",
            "hex": "41048bef31c3d79f0e80ffd7a74bc3b535f9560458264bac0f429c5dea6585874e6d319f4baa9fc9be572606b92f920a562228246dc1c8f1fb855a60d3cce84ea7faac",
            "type": "pubkey"
          }
        }
      ],
      "hex": "01000000010000000000000000000000000000000000000000000000000000000000000000ffffffff0804ffff001d02bf00ffffffff0100f2052a010000004341048bef31c3d79f0e80ffd7a74bc3b535f9560458264bac0f429c5dea6585874e6d319f4baa9fc9be572606b92f920a562228246dc1c8f1fb855a60d3cce84ea7faac00000000"
    }
  ]
}