{
  "hash": "00000000e10bbc74e8d27d553d1d2c9b27a024ec3c358401a2e1b2ba8b0ea5bc",
  "confirmations": 45665,
  "height": 7433,
  "version": 1,
  "versionHex": "00000001",
  "merkleroot": "c98bbf6c144c1f42a8884ead651df0e553408678d0e92f432bb63e41c87714b5",
  "time": 1237048279,
  "mediantime": 1237044433,
  "nonce": 2163480100,
  "bits": "1d00ffff",
  "difficulty": 1,
  "chainwork": "00000000000000000000000000000000000000000000000000001d0a1d0a1d0a",
  "nTx": 1,
  "previousblockhash": "00000000f1a971b62c9a02a0fa58bf46d84275a9a529c5803f14bc4067385430",
  "nextblockhash": "00000000cb08aaaa6c03526aa0d8bda289575622284b66aa5a9aec7cfa97073b",
  "strippedsize": 216,
  "size": 216,
  "weight": 864,
  "tx": [
    {
      "txid": "c98bbf6c144c1f42a8884ead651df0e553408678d0e92f432bb63e41c87714b5",
      "hash": "c98bbf6c144c1f42a8884ead651df0e553408678d0e92f432bb63e41c87714b5",
      "version": 1,
      "size": 135,
      "vsize": 135,
      "weight": 540,
      "locktime": 0,
      "vin": [
        {
          "coinbase": "04ffff001d02100a",
          "sequence": 4294967295
        }
      ],
      "vout": [
        {
          "value": 50.0,
          "n": 0,
          "scriptPubKey": {
            "asm": "04213933432f364e99a25594f19ccae4adc3b5620efa91926e55d6e60d26d039616d6c06a27ae81eccb3ff82c64ed6fc40f48ebf46d88a05a541a6a67d5ce1482c OP_CHECKSIG",
            "desc": "pk(04213933432f364e99a25594f19ccae4adc3b5620efa91926e55d6e60d26d039616d6c06a27ae81eccb3ff82c64ed6fc40f48ebf46d88a05a541a6a67d5ce1482c)#85ry60ke",
            "hex": "4104213933432f364e99a25594f19ccae4adc3b5620efa91926e55d6e60d26d039616d6c06a27ae81eccb3ff82c64ed6fc40f48ebf46d88a05a541a6a67d5ce1482cac",
            "type": "pubkey"
          }
        }
      ],
      "hex": "01000000010000000000000000000000000000000000000000000000000000000000000000ffffffff0804ffff001d02100affffffff0100f2052a01000000434104213933432f364e99a25594f19ccae4adc3b5620efa91926e55d6e60d26d039616d6c06a27ae81eccb3ff82c64ed6fc40f48ebf46d88a05a541a6a67d5ce1482cac00000000"
    }
  ]
}