{
  "hash": "0000000097a79e2bfcac5d28cdce5f3deb20afbd8bdb74f2b36a12cc83d144b3",
  "confirmations": 49829,
  "height": 3269,
  "version": 1,
  "versionHex": "00000001",
  "merkleroot": "f35810d4d4ae1d381777dbcbb6e7a3e807c552cd1791888fe2f78c550705593d",
  "time": 1233947985,
  "mediantime": 1233944994,
  "nonce": 1618653738,
  "bits": "1d00ffff",
  "difficulty": 1,
  "chainwork": "00000000000000000000000000000000000000000000000000000cc60cc60cc6",
  "nTx": 1,
  "previousblockhash": "00000000adc949d7070c080d5bad0cf7effa0fa8b7b3acb8fdf7a99290066466",
  "nextblockhash": "000000003a1fa07baf049c20679908fce24dd8b06bfce964687b893090fa2b22",
  "strippedsize": 216,
  "size": 216,
  "weight": 864,
  "tx": [
    {
      "txid": "f35810d4d4ae1d381777dbcbb6e7a3e807c552cd1791888fe2f78c550705593d",
      "hash": "f35810d4d4ae1d381777dbcbb6e7a3e807c552cd1791888fe2f78c550705593d",
      "version": 1,
      "size": 135,
      "vsize": 135,
      "weight": 540,
      "locktime": 0,
      "vin": [
        {
          "coinbase": "04ffff001d02c603",
          "sequence": 4294967295
        }
      ],
      "vout": [
        {
          "value": 50.0,
          "n": 0,
          "scriptPubKey": {
            "asm": "04ffb9858b6b6f19210cc3319cb44d79a95fdd85fc57fd3865f637e7aaea5f1d0f2e7d2befbdc0e76bc61f9c750326a26cd96ce563ed146aa9e08e177ea5bc6b90 OP_CHECKSIG",
            "desc": "pk(04ffb9858b6b6f19210cc3319cb44d79a95fdd85fc57fd3865f637e7aaea5f1d0f2e7d2befbdc0e76bc61f9c750326a26cd96ce563ed146aa9e08e177ea5bc6b90)#w7u0lzhy",
            "hex": "4104ffb9858b6b6f19210cc3319cb44d79a95fdd85fc57fd3865f637e7aaea5f1d0f2e7d2befbdc0e76bc61f9c750326a26cd96ce563ed146aa9e08e177ea5bc6b90ac",
            "type": "pubkey"
          }
        }
      ],
      "hex": "01000000010000000000000000000000000000000000000000000000000000000000000000ffffffff0804ffff001d02c603ffffffff0100f2052a01000000434104ffb9858b6b6f19210cc3319cb44d79a95fdd85fc57fd3865f637e7aaea5f1d0f2e7d2befbdc0e76bc61f9c750326a26cd96ce563ed146aa9e08e177ea5bc6b90ac00000000"
    }
  ]
}