{
  "hash": "0000000093cafa55c15b13f9eef325ce6cfc24efe2c98d00e0f326e56d623e2d",
  "confirmations": 44815,
  "height": 8283,
  "version": 1,
  "versionHex": "00000001",
  "merkleroot": "4c250dba2c07ffe5fd3e028ed86cf1ff3f027b72adfd2a82e71544be28d5249b",
  "time": 1237720678,
  "mediantime": 1237718215,
  "nonce": 351996933,
  "bits": "1d00ffff",
  "difficulty": 1,
  "chainwork": "0000000000000000000000000000000000000000000000000000205c205c205c",
  "nTx": 1,
  "previousblockhash": "00000000336143357bbf9e497b7023108acff80a1a08b070789fabe856a4bb94",
  "nextblockhash": "00000000a5275ba694daa25c191959e7694df68fd4a10865f24cfc0283d99a24",
  "strippedsize": 216,
  "size": 216,
  "weight": 864,
  "tx": [
    {
      "txid": "4c250dba2c07ffe5fd3e028ed86cf1ff3f027b72adfd2a82e71544be28d5249b",
      "hash": "4c250dba2c07ffe5fd3e028ed86cf1ff3f027b72adfd2a82e71544be28d5249b",
      "version": 1,
      "size": 135,
      "vsize": 135,
      "weight": 540,
      "locktime": 0,
      "vin": [
        {
          "coinbase": "04ffff001d02f803",
          "sequence": 4294967295
        }
      ],
      "vout": [
        {
          "value": 50.0,
          "n": 0,
          "scriptPubKey": {
            "asm": "04a71c12d555a16f75f000292b4e53137104956f9a78cae5c0781d38adee03f505b3771ccbec64f69b7a28241306203dbd08c1a03ac56c6295432dd2e7306b803f OP_CHECKSIG",
            "desc": "pk(04a71c12d555a16f75f000292b4e53137104956f9a78cae5c0781d38adee03f505b3771ccbec64f69b7a28241306203dbd08c1a03ac56c6295432dd2e7306b803f)#7f25ke26",
            "hex": "4104a71c12d555a16f75f000292b4e53137104956f9a78cae5c0781d38adee03f505b3771ccbec64f69b7a28241306203dbd08c1a03ac56c6295432dd2e7306b803fac",
            "type": "pubkey"
          }
        }
      ],
      "hex": "01000000010000000000000000000000000000000000000000000000000000000000000000ffffffff0804ffff001d02f803ffffffff0100f2052a01000000434104a71c12d555a16f75f000292b4e53137104956f9a78cae5c0781d38adee03f505b3771ccbec64f69b7a28241306203dbd08c1a03ac56c6295432dd2e7306b803fac00000000"
    }
  ]
}