{
  "hash": "00000000707220ec2ff26b85c4df6f5bbcddd176616e45db52b5c46411037830",
  "confirmations": 52010,
  "height": 1088,
  "version": 1,
  "versionHex": "00000001",
  "merkleroot": "f57229e992f566bfd00c9ac2ca6b6c243d5b07cd58f3b4f0891497fdd2d4e96d",
  "time": 1232415023,
  "mediantime": 1232411392,
  "nonce": 11019707,
  "bits": "1d00ffff",
  "difficulty": 1,
  "chainwork": "0000000000000000000000000000000000000000000000000000044104410441",
  "nTx": 1,
  "previousblockhash": "0000000098d20ec1ed1fce48c5e055835c0fd2d259dac022254ae8d43e0ac5b5",
  "nextblockhash": "0000000018aab814ca07531c38fca05955c6338611dde29fe610471d441499a3",
  "strippedsize": 216,
  "size": 216,
  "weight": 864,
  "tx": [
    {
      "txid": "f57229e992f566bfd00c9ac2ca6b6c243d5b07cd58f3b4f0891497fdd2d4e96d",
      "hash": "f57229e992f566bfd00c9ac2ca6b6c243d5b07cd58f3b4f0891497fdd2d4e96d",
      "version": 1,
      "size": 135,
      "vsize": 135,
      "weight": 540,
      "locktime": 0,
      "vin": [
        {
          "coinbase": "04ffff001d021701",
          "sequence": 4294967295
        }
      ],
      "vout": [
        {
          "value": 50.0,
          "n": 0,
          "scriptPubKey": {
            "asm": "04e73aac1cae736653ddf48f6713a06d316f09e115f12c78fd6982d991d72a9c280ffad6f64ad437b713e9fd1bf99fdca1c347205a4f5a185bdfcff77d1310a422 OP_CHECKSIG",
            "desc": "pk(04e73aac1cae736653ddf48f6713a06d316f09e115f12c78fd6982d991d72a9c280ffad6f64ad437b713e9fd1bf99fdca1c347205a4f5a185bdfcff77d1310a422)#n66cwjss",
            "hex": "4104e73aac1cae736653ddf48f6713a06d316f09e115f12c78fd6982d991d72a9c280ffad6f64ad437b713e9fd1bf99fdca1c347205a4f5a185bdfcff77d1310a422ac",
            "type": "pubkey"
          }
        }
      ],
      "hex": "01000000010000000000000000000000000000000000000000000000000000000000000000ffffffff0804ffff001d021701ffffffff0100f2052a01000000434104e73aac1cae736653ddf48f6713a06d316f09e115f12c78fd6982d991d72a9c280ffad6f64ad437b713e9fd1bf99fdca1c347205a4f5a185bdfcff77d1310a422ac00000000"
    }
  ]
}