{
  "hash": "0000000061768ee56b647e973cbab21891fcd0d17948f1601e906bdf4211de04",
  "confirmations": 48056,
  "height": 5042,
  "version": 1,
  "versionHex": "00000001",
  "merkleroot": "0b4fa56132353b16c0105ab7e7f32e64c8d04c061ce404c5df9ffbca7ae33412",
  "time": 1235168994,
  "mediantime": 1235164276,
  "nonce": 2604985630,
  "bits": "1d00ffff",
  "difficulty": 1,
  "chainwork": "000000000000000000000000000000000000000000000000000013b313b313b3",
  "nTx": 1,
  "previousblockhash": "0000000070870354b303c863a9b1382b3efbad38ad63256a282dde05fd43d0e0",
  "nextblockhash": "00000000a7083ac59b43735681230174ba46d90500a87687ca4b06c323118dd8",
  "strippedsize": 216,
  "size": 216,
  "weight": 864,
  "tx": [
    {
      "txid": "0b4fa56132353b16c0105ab7e7f32e64c8d04c061ce404c5df9ffbca7ae33412",
      "hash": "0b4fa56132353b16c0105ab7e7f32e64c8d04c061ce404c5df9ffbca7ae33412",
      "version": 1,
      "size": 135,
      "vsize": 135,
      "weight": 540,
      "locktime": 0,
      "vin": [
        {
          "coinbase": "04ffff001d02b907",
          "sequence": 4294967295
        }
      ],
      "vout": [
        {
          "value": 50.0,
          "n": 0,
          "scriptPubKey": {
            "asm": "0432d3971c4c58ccc5d088b351f3173c9e5c1f91be3efdddad9f0232bf813560f62dddf5a0d5ff08fb82db2fe050d315466f2bd5ac254b3632ef20e2f8152c419c OP_CHECKSIG",
            "desc": "pk(0432d3971c4c58ccc5d088b351f3173c9e5c1f91be3efdddad9f0232bf813560f62dddf5a0d5ff08fb82db2fe050d315466f2bd5ac254b3632ef20e2f8152c419c)#p0vw45vg",
            "hex": "410432d3971c4c58ccc5d088b351f3173c9e5c1f91be3efdddad9f0232bf813560f62dddf5a0d5ff08fb82db2fe050d315466f2bd5ac254b3632ef20e2f8152c419cac",
            "type": "pubkey"
          }
        }
      ],
      "hex": "01000000010000000000000000000000000000000000000000000000000000000000000000ffffffff0804ffff001d02b907ffffffff0100f2052a0100000043410432d3971c4c58ccc5d088b351f3173c9e5c1f91be3efdddad9f0232bf813560f62dddf5a0d5ff08fb82db2fe050d315466f2bd5ac254b3632ef20e2f8152c419cac00000000"
    }
  ]
}