{
  "hash": "00000000eba4f5990ca6e790a8611124e774acc8f5a662056d2b960e0a02c806",
  "confirmations": 44642,
  "height": 8456,
  "version": 1,
  "versionHex": "00000001",
  "merkleroot": "5f842519baf77de9017c29778947e43f5d3ed20531e5f846cd9c3533d379e7c1",
  "time": 1237834073,
  "mediantime": 1237829680,
  "nonce": 1146467373,
  "bits": "1d00ffff",
  "difficulty": 1,
  "chainwork": "0000000000000000000000000000000000000000000000000000210921092109",
  "nTx": 1,
  "previousblockhash": "00000000c858ffba5731087a945836fcb2e778ce6446ff3e8a40b77a44ef6945",
  "nextblockhash": "000000006ef058072941c3af8ff373e2a8fd59fe1caf0c6795b2cc54d1fa2d71",
  "strippedsize": 216,
  "size": 216,
  "weight": 864,
  "tx": [
    {
      "txid": "5f842519baf77de9017c29778947e43f5d3ed20531e5f846cd9c3533d379e7c1",
      "hash": "5f842519baf77de9017c29778947e43f5d3ed20531e5f846cd9c3533d379e7c1",
      "version": 1,
      "size": 135,
      "vsize": 135,
      "weight": 540,
      "locktime": 0,
      "vin": [
        {
          "coinbase": "04ffff001d02dd06",
          "sequence": 4294967295
        }
      ],
      "vout": [
        {
          "value": 50.0,
          "n": 0,
          "scriptPubKey": {
            "asm": "0498b69c819881fa3ba33d6c439d4a5a9fb1d8e97e05c127dbbe1eb2971d23d3681ec1fc86f3f473ab26c382de7321c56ee91324b1464a9347a7fb4f54894ce75e OP_CHECKSIG",
            "desc": "pk(0498b69c819881fa3ba33d6c439d4a5a9fb1d8e97e05c127dbbe1eb2971d23d3681ec1fc86f3f473ab26c382de7321c56ee91324b1464a9347a7fb4f54894ce75e)#vafd9c97",
            "hex": "410498b69c819881fa3ba33d6c439d4a5a9fb1d8e97e05c127dbbe1eb2971d23d3681ec1fc86f3f473ab26c382de7321c56ee91324b1464a9347a7fb4f54894ce75eac",
            "type": "pubkey"
          }
        }
      ],
      "hex": "01000000010000000000000000000000000000000000000000000000000000000000000000ffffffff0804ffff001d02dd06ffffffff0100f2052a0100000043410498b69c819881fa3ba33d6c439d4a5a9fb1d8e97e05c127dbbe1eb2971d23d3681ec1fc86f3f473ab26c382de7321c56ee91324b1464a9347a7fb4f54894ce75eac00000000"
    }
  ]
}