{
  "hash": "00000000f897c771fda24599609f93c1bbb306a4eba685b718e3445b0acf6dfa",
  "confirmations": 51582,
  "height": 1516,
  "version": 1,
  "versionHex": "00000001",
  "merkleroot": "7322b2b990bf83356eae53e43d9cd5ecff6fb7ad89b624d1810bf1b18b7e1b25",
  "time": 1232774370,
  "mediantime": 1232772878,
  "nonce": 2724687621,
  "bits": "1d00ffff",
  "difficulty": 1,
  "chainwork": "000000000000000000000000000000000000000000000000000005ed05ed05ed",
  "nTx": 1,
  "previousblockhash": "00000000acf5a1133f273d2ba5639cf33f5a502a124725c2d7e221044f850208",
  "nextblockhash": "00000000f27b6762dfa9cad49822ad3a7bbf628efb833eb357f1902010434e19",
  "strippedsize": 216,
  "size": 216,
  "weight": 864,
  "tx": [
    {
      "txid": "7322b2b990bf83356eae53e43d9cd5ecff6fb7ad89b624d1810bf1b18b7e1b25",
      "hash": "7322b2b990bf83356eae53e43d9cd5ecff6fb7ad89b624d1810bf1b18b7e1b25",
      "version": 1,
      "size": 135,
      "vsize": 135,
      "weight": 540,
      "locktime": 0,
      "vin": [
        {
          "coinbase": "04ffff001d024f01",
          "sequence": 4294967295
        }
      ],
      "vout": [
        {
          "value": 50.0,
          "n": 0,
          "scriptPubKey": {
            "asm": "0404ce9402d3bffcc1cdaacf51eba815612e7c9dcb1766e26e21666d7c4fe81baf155fd4c3e5cae843d74c7849b48c39511af81e14bf1ca4df2feac098059e0596 OP_CHECKSIG",
            "desc": "pk(0404ce9402d3bffcc1cdaacf51eba815612e7c9dcb1766e26e21666d7c4fe81baf155fd4c3e5cae843d74c7849b48c39511af81e14bf1ca4df2feac098059e0596)#ajeetxe9",
            "hex": "410404ce9402d3bffcc1cdaacf51eba815612e7c9dcb1766e26e21666d7c4fe81baf155fd4c3e5cae843d74c7849b48c39511af81e14bf1ca4df2feac098059e0596ac",
            "type": "pubkey"
          }
        }
      ],
      "hex": "01000000010000000000000000000000000000000000000000000000000000000000000000ffffffff0804ffff001d024f01ffffffff0100f2052a0100000043410404ce9402d3bffcc1cdaacf51eba815612e7c9dcb1766e26e21666d7c4fe81baf155fd4c3e5cae843d74c7849b48c39511af81e14bf1ca4df2feac098059e0596ac00000000"
    }
  ]
}