{
  "hash": "00000000a10f36c23f35b9a7ce96787accb3e25b1c90c0af84e89a3a605dd872",
  "confirmations": 44274,
  "height": 8824,
  "version": 1,
  "versionHex": "00000001",
  "merkleroot": "e0bb0bd3eed563ba6d2e03fa83d8e8b00663ed41ad1f27b82d39af2392197009",
  "time": 1238116344,
  "mediantime": 1238113135,
  "nonce": 2230124588,
  "bits": "1d00ffff",
  "difficulty": 1,
  "chainwork": "0000000000000000000000000000000000000000000000000000227922792279",
  "nTx": 1,
  "previousblockhash": "0000000030a73842f21d8145d16b320db09e115ac21db40afbac167c383c15bc",
  "nextblockhash": "000000006a66ec9eda53cbf62a75b7f5e68fd1c653cba0ba8d22145ccb7e76f8",
  "strippedsize": 216,
  "size": 216,
  "weight": 864,
  "tx": [
    {
      "txid": "e0bb0bd3eed563ba6d2e03fa83d8e8b00663ed41ad1f27b82d39af2392197009",
      "hash": "e0bb0bd3eed563ba6d2e03fa83d8e8b00663ed41ad1f27b82d39af2392197009",
      "version": 1,
      "size": 135,
      "vsize": 135,
      "weight": 540,
      "locktime": 0,
      "vin": [
        {
          "coinbase": "04ffff001d023303",
          "sequence": 4294967295
        }
      ],
      "vout": [
        {
          "value": 50.0,
          "n": 0,
          "scriptPubKey": {
            "asm": "044be19b1c77ccc09faa55c2f2059bd3bdb5e4f999056fe1f72f0674e14cb68cb0c413091637416aabfad26486105b469928cbfac2d2805bbbf3f31be7576d1146 OP_CHECKSIG",
            "desc": "pk(044be19b1c77ccc09faa55c2f2059bd3bdb5e4f999056fe1f72f0674e14cb68cb0c413091637416aabfad26486105b469928cbfac2d2805bbbf3f31be7576d1146)#qr9vnyr0",
            "hex": "41044be19b1c77ccc09faa55c2f2059bd3bdb5e4f999056fe1f72f0674e14cb68cb0c413091637416aabfad26486105b469928cbfac2d2805bbbf3f31be7576d1146ac",
            "type": "pubkey"
          }
        }
      ],
      "hex": "01000000010000000000000000000000000000000000000000000000000000000000000000ffffffff0804ffff001d023303ffffffff0100f2052a010000004341044be19b1c77ccc09faa55c2f2059bd3bdb5e4f999056fe1f72f0674e14cb68cb0c413091637416aabfad26486105b469928cbfac2d2805bbbf3f31be7576d1146ac00000000"
    }
  ]
}