{
  "hash": "00000000e73b55fcda1037814a85e0779ac13b0936c1f22926c9fa0ef766acef",
  "confirmations": 43983,
  "height": 9115,
  "version": 1,
  "versionHex": "00000001",
  "merkleroot": "877b7a0e56c92cef2027079b5e034f71db6b23efbdfd8446ac080d91e9fa74a3",
  "time": 1238340199,
  "mediantime": 1238338127,
  "nonce": 3077471517,
  "bits": "1d00ffff",
  "difficulty": 1,
  "chainwork": "0000000000000000000000000000000000000000000000000000239c239c239c",
  "nTx": 1,
  "previousblockhash": "00000000b22ba847638a63488558753ffeb6d32bd4f373443544c73afa54a1f2",
  "nextblockhash": "00000000e5bd16bca68d5226199208569c78fd941e836e72280809d5e9aeef57",
  "strippedsize": 216,
  "size": 216,
  "weight": 864,
  "tx": [
    {
      "txid": "877b7a0e56c92cef2027079b5e034f71db6b23efbdfd8446ac080d91e9fa74a3",
      "hash": "877b7a0e56c92cef2027079b5e034f71db6b23efbdfd8446ac080d91e9fa74a3",
      "version": 1,
      "size": 135,
      "vsize": 135,
      "weight": 540,
      "locktime": 0,
      "vin": [
        {
          "coinbase": "04ffff001d029608",
          "sequence": 4294967295
        }
      ],
      "vout": [
        {
          "value": 50.0,
          "n": 0,
          "scriptPubKey": {
            "asm": "04aa13ebab01e7a4fe02b9be5aab579943332c00798c204c2df3b0e9a62f2846d5a7e51810a4706d4e5c85bde784b13d9489688a2c4ffff2e92f98ccfb6c357faf OP_CHECKSIG",
            "desc": "pk(04aa13ebab01e7a4fe02b9be5aab579943332c00798c204c2df3b0e9a62f2846d5a7e51810a4706d4e5c85bde784b13d9489688a2c4ffff2e92f98ccfb6c357faf)#xxw56rek",
            "hex": "4104aa13ebab01e7a4fe02b9be5aab579943332c00798c204c2df3b0e9a62f2846d5a7e51810a4706d4e5c85bde784b13d9489688a2c4ffff2e92f98ccfb6c357fafac",
            "type": "pubkey"
          }
        }
      ],
      "hex": "01000000010000000000000000000000000000000000000000000000000000000000000000ffffffff0804ffff001d029608ffffffff0100f2052a01000000434104aa13ebab01e7a4fe02b9be5aab579943332c00798c204c2df3b0e9a62f2846d5a7e51810a4706d4e5c85bde784b13d9489688a2c4ffff2e92f98ccfb6c357fafac00000000"
    }
  ]
}