{
  "hash": "000000001a1bfbfab9b684c23501319175661d4a403e0b76dedf5b051a6713e9",
  "confirmations": 44246,
  "height": 8852,
  "version": 1,
  "versionHex": "00000001",
  "merkleroot": "d28abe416ce559c709e7650819c48ddd3a637cda1aaa17a260b1d7305a0b03dd",
  "time": 1238139476,
  "mediantime": 1238136261,
  "nonce": 3872148766,
  "bits": "1d00ffff",
  "difficulty": 1,
  "chainwork": "0000000000000000000000000000000000000000000000000000229522952295",
  "nTx": 1,
  "previousblockhash": "00000000f8e67ddf74edec45187d3fe67ba61a0d825ab61495d6a6b5533819f7",
  "nextblockhash": "00000000c6d6af57f7f6934b27f90bb8d1211e66b78e7c6dd7b572afed7dbc40",
  "strippedsize": 216,
  "size": 216,
  "weight": 864,
  "tx": [
    {
      "txid": "d28abe416ce559c709e7650819c48ddd3a637cda1aaa17a260b1d7305a0b03dd",
      "hash": "d28abe416ce559c709e7650819c48ddd3a637cda1aaa17a260b1d7305a0b03dd",
      "version": 1,
      "size": 135,
      "vsize": 135,
      "weight": 540,
      "locktime": 0,
      "vin": [
        {
          "coinbase": "04ffff001d029903",
          "sequence": 4294967295
        }
      ],
      "vout": [
        {
          "value": 50.0,
          "n": 0,
          "scriptPubKey": {
            "asm": "0476d0b50dce302a2c36a3399d081efae711f25ec0283cd3b3570d180ea2751ae5c7bc29718220d1dc64a81b776c7dfe66d0c03ff0e686acf5ddff90b5524dff92 OP_CHECKSIG",
            "desc": "pk(0476d0b50dce302a2c36a3399d081efae711f25ec0283cd3b3570d180ea2751ae5c7bc29718220d1dc64a81b776c7dfe66d0c03ff0e686acf5ddff90b5524dff92)#x4kqzq3p",
            "hex": "410476d0b50dce302a2c36a3399d081efae711f25ec0283cd3b3570d180ea2751ae5c7bc29718220d1dc64a81b776c7dfe66d0c03ff0e686acf5ddff90b5524dff92ac",
            "type": "pubkey"
          }
        }
      ],
      "hex": "01000000010000000000000000000000000000000000000000000000000000000000000000ffffffff0804ffff001d029903ffffffff0100f2052a0100000043410476d0b50dce302a2c36a3399d081efae711f25ec0283cd3b3570d180ea2751ae5c7bc29718220d1dc64a81b776c7dfe66d0c03ff0e686acf5ddff90b5524dff92ac00000000"
    }
  ]
}