{
  "hash": "00000000075ef619e95ee0ce9f508d0ba39fcf57b644f444d5699d9560c8995d",
  "confirmations": 46760,
  "height": 6338,
  "version": 1,
  "versionHex": "00000001",
  "merkleroot": "de5282eecc9ba810dcc380ed28fb32b8793644b81b0480f490a3ab48f7fc3e3d",
  "time": 1236203924,
  "mediantime": 1236199715,
  "nonce": 128491538,
  "bits": "1d00ffff",
  "difficulty": 1,
  "chainwork": "000000000000000000000000000000000000000000000000000018c318c318c3",
  "nTx": 1,
  "previousblockhash": "00000000b36d9aac5de8cc1be1e7cd7e7b2e610e2cece81251d4f52a03b5c1a6",
  "nextblockhash": "00000000a9c7b58df891736322b516799232e8c7006fab25255a871e00808561",
  "strippedsize": 216,
  "size": 216,
  "weight": 864,
  "tx": [
    {
      "txid": "de5282eecc9ba810dcc380ed28fb32b8793644b81b0480f490a3ab48f7fc3e3d",
      "hash": "de5282eecc9ba810dcc380ed28fb32b8793644b81b0480f490a3ab48f7fc3e3d",
      "version": 1,
      "size": 135,
      "vsize": 135,
      "weight": 540,
      "locktime": 0,
      "vin": [
        {
          "coinbase": "04ffff001d028a0a",
          "sequence": 4294967295
        }
      ],
      "vout": [
        {
          "value": 50.0,
          "n": 0,
          "scriptPubKey": {
            "asm": "041b741eb4f74fd79542a57ceb32d710a99e6ab0c1724e42240098bce469a1bfc57e4d46a107ed5edea2ca31b8b953249667d1d483053e9d7e9f844a5f0c97ca78 OP_CHECKSIG",
            "desc": "pk(041b741eb4f74fd79542a57ceb32d710a99e6ab0c1724e42240098bce469a1bfc57e4d46a107ed5edea2ca31b8b953249667d1d483053e9d7e9f844a5f0c97ca78)#92ld6sft",
            "hex": "41041b741eb4f74fd79542a57ceb32d710a99e6ab0c1724e42240098bce469a1bfc57e4d46a107ed5edea2ca31b8b953249667d1d483053e9d7e9f844a5f0c97ca78ac",
            "type": "pubkey"
          }
        }
      ],
      "hex": "01000000010000000000000000000000000000000000000000000000000000000000000000ffffffff0804ffff001d028a0affffffff0100f2052a010000004341041b741eb4f74fd79542a57ceb32d710a99e6ab0c1724e42240098bce469a1bfc57e4d46a107ed5edea2ca31b8b953249667d1d483053e9d7e9f844a5f0c97ca78ac00000000"
    }
  ]
}