{
  "hash": "0000000039a115c36715d1cda9bf7b9b20ae14c53e1b577881b8e290ee9fbc51",
  "confirmations": 48058,
  "height": 5040,
  "version": 1,
  "versionHex": "00000001",
  "merkleroot": "f60482252bd7f248c52a2e3ee1bbd20a44fb303529d370aa618d1859980d73de",
  "time": 1235167107,
  "mediantime": 1235163233,
  "nonce": 1851483440,
  "bits": "1d00ffff",
  "difficulty": 1,
  "chainwork": "000000000000000000000000000000000000000000000000000013b113b113b1",
  "nTx": 1,
  "previousblockhash": "00000000b0dc00a3e472579f765d08538f330943d7c9f34fc1a3aa2dd8849006",
  "nextblockhash": "0000000070870354b303c863a9b1382b3efbad38ad63256a282dde05fd43d0e0",
  "strippedsize": 216,
  "size": 216,
  "weight": 864,
  "tx": [
    {
      "txid": "f60482252bd7f248c52a2e3ee1bbd20a44fb303529d370aa618d1859980d73de",
      "hash": "f60482252bd7f248c52a2e3ee1bbd20a44fb303529d370aa618d1859980d73de",
      "version": 1,
      "size": 135,
      "vsize": 135,
      "weight": 540,
      "locktime": 0,
      "vin": [
        {
          "coinbase": "04ffff001d02b307",
          "sequence": 4294967295
        }
      ],
      "vout": [
        {
          "value": 50.0,
          "n": 0,
          "scriptPubKey": {
            "asm": "04b13ef68665a8f0df68c693b00da9d9aa159ea326e83b5f88561251abf2deaaadfe64702fd52d1104f7e03758bfd7971fc2eb0006104822f84d21f847f017cb42 OP_CHECKSIG",
            "desc": "pk(04b13ef68665a8f0df68c693b00da9d9aa159ea326e83b5f88561251abf2deaaadfe64702fd52d1104f7e03758bfd7971fc2eb0006104822f84d21f847f017cb42)#9zld7ckj",
            "hex": "4104b13ef68665a8f0df68c693b00da9d9aa159ea326e83b5f88561251abf2deaaadfe64702fd52d1104f7e03758bfd7971fc2eb0006104822f84d21f847f017cb42ac",
            "type": "pubkey"
          }
        }
      ],
      "hex": "01000000010000000000000000000000000000000000000000000000000000000000000000ffffffff0804ffff001d02b307ffffffff0100f2052a01000000434104b13ef68665a8f0df68c693b00da9d9aa159ea326e83b5f88561251abf2deaaadfe64702fd52d1104f7e03758bfd7971fc2eb0006104822f84d21f847f017cb42ac00000000"
    }
  ]
}