{
  "hash": "00000000962c5b87802949e0f58499ac2852a3219726b711e2edd95446912777",
  "confirmations": 44432,
  "height": 8666,
  "version": 1,
  "versionHex": "00000001",
  "merkleroot": "a2cb93d2c6d7072328a4ad9e50dfd13e61192d740b03f66508e62c5dc0cc6a4c",
  "time": 1237997770,
  "mediantime": 1237993880,
  "nonce": 304901569,
  "bits": "1d00ffff",
  "difficulty": 1,
  "chainwork": "000000000000000000000000000000000000000000000000000021db21db21db",
  "nTx": 1,
  "previousblockhash": "00000000cca15d08b3c6714964885e39e6620b8cc0c844ad6d2f3735c5a75921",
  "nextblockhash": "000000009852a769270625f40529a344c7f54c1c1ad866deee611b8810a7bef1",
  "strippedsize": 216,
  "size": 216,
  "weight": 864,
  "tx": [
    {
      "txid": "a2cb93d2c6d7072328a4ad9e50dfd13e61192d740b03f66508e62c5dc0cc6a4c",
      "hash": "a2cb93d2c6d7072328a4ad9e50dfd13e61192d740b03f66508e62c5dc0cc6a4c",
      "version": 1,
      "size": 135,
      "vsize": 135,
      "weight": 540,
      "locktime": 0,
      "vin": [
        {
          "coinbase": "04ffff001d029e02",
          "sequence": 4294967295
        }
      ],
      "vout": [
        {
          "value": 50.0,
          "n": 0,
          "scriptPubKey": {
            "asm": "04c774f78a724cbb4d6c079ccd0a727c2b2988f1b1d7d3e18044fef2cfcae081ff840b72c6c909c195a87003a10f5d1dee0861d15b9447d3a8c4b73143b834f667 OP_CHECKSIG",
            "desc": "pk(04c774f78a724cbb4d6c079ccd0a727c2b2988f1b1d7d3e18044fef2cfcae081ff840b72c6c909c195a87003a10f5d1dee0861d15b9447d3a8c4b73143b834f667)#65pxh30e",
            "hex": "4104c774f78a724cbb4d6c079ccd0a727c2b2988f1b1d7d3e18044fef2cfcae081ff840b72c6c909c195a87003a10f5d1dee0861d15b9447d3a8c4b73143b834f667ac",
            "type": "pubkey"
          }
        }
      ],
      "hex": "01000000010000000000000000000000000000000000000000000000000000000000000000ffffffff0804ffff001d029e02ffffffff0100f2052a01000000434104c774f78a724cbb4d6c079ccd0a727c2b2988f1b1d7d3e18044fef2cfcae081ff840b72c6c909c195a87003a10f5d1dee0861d15b9447d3a8c4b73143b834f667ac00000000"
    }
  ]
}