{
  "hash": "00000000081038eb250216ebb27f94d8896d2984dc962020c53e6a2852b92967",
  "confirmations": 50698,
  "height": 2400,
  "version": 1,
  "versionHex": "00000001",
  "merkleroot": "d1e102607f0305757b0bb086ec925a008df992af453d07950d8e685fbcec0fc0",
  "time": 1233355850,
  "mediantime": 1233350210,
  "nonce": 9140222,
  "bits": "1d00ffff",
  "difficulty": 1,
  "chainwork": "0000000000000000000000000000000000000000000000000000096109610961",
  "nTx": 1,
  "previousblockhash": "00000000887dcf0f1d752603688a0458e5c43eaaea7d0486a6cce2f85b47b468",
  "nextblockhash": "00000000b127bfefe6afc98908e6071840b979cbd26a54f8b545908176ca4022",
  "strippedsize": 216,
  "size": 216,
  "weight": 864,
  "tx": [
    {
      "txid": "d1e102607f0305757b0bb086ec925a008df992af453d07950d8e685fbcec0fc0",
      "hash": "d1e102607f0305757b0bb086ec925a008df992af453d07950d8e685fbcec0fc0",
      "version": 1,
      "size": 135,
      "vsize": 135,
      "weight": 540,
      "locktime": 0,
      "vin": [
        {
          "coinbase": "04ffff001d02f800",
          "sequence": 4294967295
        }
      ],
      "vout": [
        {
          "value": 50.0,
          "n": 0,
          "scriptPubKey": {
            "asm": "041db81c906c9df11a2f1f754826398c89b580384254271a292b7b30a7f155ca852948e6528f5add8d26c50e89cd1e770ad65e581af09d8ad843a94886f02e9ab9 OP_CHECKSIG",
            "desc": "pk(041db81c906c9df11a2f1f754826398c89b580384254271a292b7b30a7f155ca852948e6528f5add8d26c50e89cd1e770ad65e581af09d8ad843a94886f02e9ab9)#67nvtaex",
            "hex": "41041db81c906c9df11a2f1f754826398c89b580384254271a292b7b30a7f155ca852948e6528f5add8d26c50e89cd1e770ad65e581af09d8ad843a94886f02e9ab9ac",
            "type": "pubkey"
          }
        }
      ],
      "hex": "01000000010000000000000000000000000000000000000000000000000000000000000000ffffffff0804ffff001d02f800ffffffff0100f2052a010000004341041db81c906c9df11a2f1f754826398c89b580384254271a292b7b30a7f155ca852948e6528f5add8d26c50e89cd1e770ad65e581af09d8ad843a94886f02e9ab9ac00000000"
    }
  ]
}