{
  "hash": "00000000374a6102801382307c41f9ddb11e089d9a3362a96a84fd849cd51ada",
  "confirmations": 50905,
  "height": 2193,
  "version": 1,
  "versionHex": "00000001",
  "merkleroot": "8e756882796b4bdbae3a36ac69ad51d6068fe8dcbb27f4084f95e1ca3c0ef177",
  "time": 1233209561,
  "mediantime": 1233206473,
  "nonce": 1739730713,
  "bits": "1d00ffff",
  "difficulty": 1,
  "chainwork": "0000000000000000000000000000000000000000000000000000089208920892",
  "nTx": 1,
  "previousblockhash": "0000000031fd90c9cb5be9db548a1767c9d3ceddebf9563f4791b858165d318e",
  "nextblockhash": "000000007eb604956e2f591f9959baf9eaaf6d4eac8f273f5c6cb7c0555444ab",
  "strippedsize": 215,
  "size": 215,
  "weight": 860,
  "tx": [
    {
      "txid": "8e756882796b4bdbae3a36ac69ad51d6068fe8dcbb27f4084f95e1ca3c0ef177",
      "hash": "8e756882796b4bdbae3a36ac69ad51d6068fe8dcbb27f4084f95e1ca3c0ef177",
      "version": 1,
      "size": 134,
      "vsize": 134,
      "weight": 536,
      "locktime": 0,
      "vin": [
        {
          "coinbase": "04ffff001d0132",
          "sequence": 4294967295
        }
      ],
      "vout": [
        {
          "value": 50.0,
          "n": 0,
          "scriptPubKey": {
            "asm": "04b02af81b08923efa5c7c5b39e550713eb5bcfe13fba8c3f9d00b63236f7349dd99b7fffd1720e58f26dab9ad584d02aa326e01dea5ee3a0a1b2ea42c52dc6b3a OP_CHECKSIG",
            "desc": "pk(04b02af81b08923efa5c7c5b39e550713eb5bcfe13fba8c3f9d00b63236f7349dd99b7fffd1720e58f26dab9ad584d02aa326e01dea5ee3a0a1b2ea42c52dc6b3a)#tf6jzdwh",
            "hex": "4104b02af81b08923efa5c7c5b39e550713eb5bcfe13fba8c3f9d00b63236f7349dd99b7fffd1720e58f26dab9ad584d02aa326e01dea5ee3a0a1b2ea42c52dc6b3aac",
            "type": "pubkey"
          }
        }
      ],
      "hex": "01000000010000000000000000000000000000000000000000000000000000000000000000ffffffff0704ffff001d0132ffffffff0100f2052a01000000434104b02af81b08923efa5c7c5b39e550713eb5bcfe13fba8c3f9d00b63236f7349dd99b7fffd1720e58f26dab9ad584d02aa326e01dea5ee3a0a1b2ea42c52dc6b3aac00000000"
    }
  ]
}