{
  "hash": "000000003bab065abe88cba66391db2a818b1c7f4808164cc02e263ce8fd567d",
  "confirmations": 45639,
  "height": 7459,
  "version": 1,
  "versionHex": "00000001",
  "merkleroot": "a0f8234190221939e21bb1ed0ebd473c3046020082c95764d0d08d3901b7015e",
  "time": 1237069334,
  "mediantime": 1237066703,
  "nonce": 2132046357,
  "bits": "1d00ffff",
  "difficulty": 1,
  "chainwork": "00000000000000000000000000000000000000000000000000001d241d241d24",
  "nTx": 1,
  "previousblockhash": "0000000006243ffb30638fb3f9a190776275ce9372a49854d22cb1a0d707cbbf",
  "nextblockhash": "000000004315e82e4e1f33dc994dfab627aa7ead7524504159b9e9fcc0551c9d",
  "strippedsize": 215,
  "size": 215,
  "weight": 860,
  "tx": [
    {
      "txid": "a0f8234190221939e21bb1ed0ebd473c3046020082c95764d0d08d3901b7015e",
      "hash": "a0f8234190221939e21bb1ed0ebd473c3046020082c95764d0d08d3901b7015e",
      "version": 1,
      "size": 134,
      "vsize": 134,
      "weight": 536,
      "locktime": 0,
      "vin": [
        {
          "coinbase": "04ffff001d0147",
          "sequence": 4294967295
        }
      ],
      "vout": [
        {
          "value": 50.0,
          "n": 0,
          "scriptPubKey": {
            "asm": "04d71315d777eadaf2921d23338e943b0a2cdf12adfcd135ae49c7fc223e320145e830e39eeb2d62b9a7d19aed1b37ba0264a2510c24150993994169f8c203bfa7 OP_CHECKSIG",
            "desc": "pk(04d71315d777eadaf2921d23338e943b0a2cdf12adfcd135ae49c7fc223e320145e830e39eeb2d62b9a7d19aed1b37ba0264a2510c24150993994169f8c203bfa7)#ly3gn7au",
            "hex": "4104d71315d777eadaf2921d23338e943b0a2cdf12adfcd135ae49c7fc223e320145e830e39eeb2d62b9a7d19aed1b37ba0264a2510c24150993994169f8c203bfa7ac",
            "type": "pubkey"
          }
        }
      ],
      "hex": "01000000010000000000000000000000000000000000000000000000000000000000000000ffffffff0704ffff001d0147ffffffff0100f2052a01000000434104d71315d777eadaf2921d23338e943b0a2cdf12adfcd135ae49c7fc223e320145e830e39eeb2d62b9a7d19aed1b37ba0264a2510c24150993994169f8c203bfa7ac00000000"
    }
  ]
}