{
  "hash": "00000000dc33f1794f744e76099e89015bb9de186004867bf8f09d4bbac0930b",
  "confirmations": 52456,
  "height": 642,
  "version": 1,
  "versionHex": "00000001",
  "merkleroot": "b10711e0f39d6f8a3638a099d28fb70ec1c59a318b026e341ef91260982f2dcd",
  "time": 1232064487,
  "mediantime": 1232060865,
  "nonce": 3857922865,
  "bits": "1d00ffff",
  "difficulty": 1,
  "chainwork": "0000000000000000000000000000000000000000000000000000028302830283",
  "nTx": 1,
  "previousblockhash": "00000000f139dfd20ba64eb915d36c026616a01e36cde0a6383583e40bf7f5d8",
  "nextblockhash": "000000006ded0e621cfacfcbab228781c8fb768d632a41503f8ed3a26ff58d8b",
  "strippedsize": 216,
  "size": 216,
  "weight": 864,
  "tx": [
    {
      "txid": "b10711e0f39d6f8a3638a099d28fb70ec1c59a318b026e341ef91260982f2dcd",
      "hash": "b10711e0f39d6f8a3638a099d28fb70ec1c59a318b026e341ef91260982f2dcd",
      "version": 1,
      "size": 135,
      "vsize": 135,
      "weight": 540,
      "locktime": 0,
      "vin": [
        {
          "coinbase": "04ffff001d024a07",
          "sequence": 4294967295
        }
      ],
      "vout": [
        {
          "value": 50.0,
          "n": 0,
          "scriptPubKey": {
            "asm": "04c66f569d1ea1ab6b3281ab1e3ae0c6e9530cae338931ab61654d3879dbc397b146c682e51451ba5c37905a0acae1babc0791c442ed9b26ccd9ff82968521d4ff OP_CHECKSIG",
            "desc": "pk(04c66f569d1ea1ab6b3281ab1e3ae0c6e9530cae338931ab61654d3879dbc397b146c682e51451ba5c37905a0acae1babc0791c442ed9b26ccd9ff82968521d4ff)#gxpuu35x",
            "hex": "4104c66f569d1ea1ab6b3281ab1e3ae0c6e9530cae338931ab61654d3879dbc397b146c682e51451ba5c37905a0acae1babc0791c442ed9b26ccd9ff82968521d4ffac",
            "type": "pubkey"
          }
        }
      ],
      "hex": "01000000010000000000000000000000000000000000000000000000000000000000000000ffffffff0804ffff001d024a07ffffffff0100f2052a01000000434104c66f569d1ea1ab6b3281ab1e3ae0c6e9530cae338931ab61654d3879dbc397b146c682e51451ba5c37905a0acae1babc0791c442ed9b26ccd9ff82968521d4ffac00000000"
    }
  ]
}