{
  "hash": "00000000af7c66a4cd6362cfef8f2da17d976773dccb31c36b64dc4448e91590",
  "confirmations": 46108,
  "height": 6990,
  "version": 1,
  "versionHex": "00000001",
  "merkleroot": "a700862230c8b551185292ef15466528d3903f7caec10663dc0c2037e7a3b574",
  "time": 1236711228,
  "mediantime": 1236705889,
  "nonce": 1269992986,
  "bits": "1d00ffff",
  "difficulty": 1,
  "chainwork": "00000000000000000000000000000000000000000000000000001b4f1b4f1b4f",
  "nTx": 1,
  "previousblockhash": "000000006f6700ecc8de8fec25bff8a5811ce3c382a3083ac2f069a6db48a460",
  "nextblockhash": "00000000b1732619993cb5373a8228cc0fa6c66987eb6f77f53ef9a37d526802",
  "strippedsize": 216,
  "size": 216,
  "weight": 864,
  "tx": [
    {
      "txid": "a700862230c8b551185292ef15466528d3903f7caec10663dc0c2037e7a3b574",
      "hash": "a700862230c8b551185292ef15466528d3903f7caec10663dc0c2037e7a3b574",
      "version": 1,
      "size": 135,
      "vsize": 135,
      "weight": 540,
      "locktime": 0,
      "vin": [
        {
          "coinbase": "04ffff001d021902",
          "sequence": 4294967295
        }
      ],
      "vout": [
        {
          "value": 50.0,
          "n": 0,
          "scriptPubKey": {
            "asm": "04081a2049f7b22463e8dc3f52f2dc84702c8e589a6dcd680675aa171cbbf8212876c7fc727418405e47cfd3793d7e53765e46d76f39b773f1beacd54cfdc47d44 OP_CHECKSIG",
            "desc": "pk(04081a2049f7b22463e8dc3f52f2dc84702c8e589a6dcd680675aa171cbbf8212876c7fc727418405e47cfd3793d7e53765e46d76f39b773f1beacd54cfdc47d44)#9kakh8fn",
            "hex": "4104081a2049f7b22463e8dc3f52f2dc84702c8e589a6dcd680675aa171cbbf8212876c7fc727418405e47cfd3793d7e53765e46d76f39b773f1beacd54cfdc47d44ac",
            "type": "pubkey"
          }
        }
      ],
      "hex": "01000000010000000000000000000000000000000000000000000000000000000000000000ffffffff0804ffff001d021902ffffffff0100f2052a01000000434104081a2049f7b22463e8dc3f52f2dc84702c8e589a6dcd680675aa171cbbf8212876c7fc727418405e47cfd3793d7e53765e46d76f39b773f1beacd54cfdc47d44ac00000000"
    }
  ]
}