{
  "hash": "000000007a2f55c8785431caf8b373ee9908ad7d3adb6ef50d903e74f39a20e1",
  "confirmations": 51549,
  "height": 1549,
  "version": 1,
  "versionHex": "00000001",
  "merkleroot": "45e8b5d95fafdd48c8f5919edb33e0f4cf4c7b66a13eddc64dee0044c3223338",
  "time": 1232788103,
  "mediantime": 1232786182,
  "nonce": 1592029223,
  "bits": "1d00ffff",
  "difficulty": 1,
  "chainwork": "0000000000000000000000000000000000000000000000000000060e060e060e",
  "nTx": 1,
  "previousblockhash": "0000000029e8f1ddafc3291295536c58679b7047585b51926f3a6d05a29efe15",
  "nextblockhash": "0000000083fb9db6cdd95705a71c717243a504835899ca35a1807dab4764de47",
  "strippedsize": 216,
  "size": 216,
  "weight": 864,
  "tx": [
    {
      "txid": "45e8b5d95fafdd48c8f5919edb33e0f4cf4c7b66a13eddc64dee0044c3223338",
      "hash": "45e8b5d95fafdd48c8f5919edb33e0f4cf4c7b66a13eddc64dee0044c3223338",
      "version": 1,
      "size": 135,
      "vsize": 135,
      "weight": 540,
      "locktime": 0,
      "vin": [
        {
          "coinbase": "04ffff001d02a001",
          "sequence": 4294967295
        }
      ],
      "vout": [
        {
          "value": 50.0,
          "n": 0,
          "scriptPubKey": {
            "asm": "0425febbfe8d84f68a5ff1b93e237b97b13aef6b8ac4ed7749564fcc9f19a660124882643344b65155ec7a6e37a5ba42b627519b6644d22bbf2952544b2329e551 OP_CHECKSIG",
            "desc": "pk(0425febbfe8d84f68a5ff1b93e237b97b13aef6b8ac4ed7749564fcc9f19a660124882643344b65155ec7a6e37a5ba42b627519b6644d22bbf2952544b2329e551)#7qgzqsd4",
            "hex": "410425febbfe8d84f68a5ff1b93e237b97b13aef6b8ac4ed7749564fcc9f19a660124882643344b65155ec7a6e37a5ba42b627519b6644d22bbf2952544b2329e551ac",
            "type": "pubkey"
          }
        }
      ],
      "hex": "01000000010000000000000000000000000000000000000000000000000000000000000000ffffffff0804ffff001d02a001ffffffff0100f2052a0100000043410425febbfe8d84f68a5ff1b93e237b97b13aef6b8ac4ed7749564fcc9f19a660124882643344b65155ec7a6e37a5ba42b627519b6644d22bbf2952544b2329e551ac00000000"
    }
  ]
}