{
  "hash": "00000000bd2f9e06fe89f7ac4edb2c664b069935c7e983cd51d40ea368910a49",
  "confirmations": 52528,
  "height": 570,
  "version": 1,
  "versionHex": "00000001",
  "merkleroot": "d4ff7ec48c3490818b87ce80ad0c72a9ca8f43412190725dffae9016967a4d02",
  "time": 1232016648,
  "mediantime": 1232013560,
  "nonce": 2076052266,
  "bits": "1d00ffff",
  "difficulty": 1,
  "chainwork": "0000000000000000000000000000000000000000000000000000023b023b023b",
  "nTx": 1,
  "previousblockhash": "00000000e0f7dd0286f1bae123c899d3ff207afddc14a103d2e4ddf995bb9deb",
  "nextblockhash": "00000000bf86d3a09a14d502d171947a7408c3779e83b78c100e5ed57fca3be0",
  "strippedsize": 216,
  "size": 216,
  "weight": 864,
  "tx": [
    {
      "txid": "d4ff7ec48c3490818b87ce80ad0c72a9ca8f43412190725dffae9016967a4d02",
      "hash": "d4ff7ec48c3490818b87ce80ad0c72a9ca8f43412190725dffae9016967a4d02",
      "version": 1,
      "size": 135,
      "vsize": 135,
      "weight": 540,
      "locktime": 0,
      "vin": [
        {
          "coinbase": "04ffff001d020606",
          "sequence": 4294967295
        }
      ],
      "vout": [
        {
          "value": 50.0,
          "n": 0,
          "scriptPubKey": {
            "asm": "049b518d71bb1da2d79b99f7c66579a4afb210780d0f3f2d708117c660bb1e5283e39a78b5d701b06e6fe49ba196acf50fbf4155e776b3a96f475384348f96a713 OP_CHECKSIG",
            "desc": "pk(049b518d71bb1da2d79b99f7c66579a4afb210780d0f3f2d708117c660bb1e5283e39a78b5d701b06e6fe49ba196acf50fbf4155e776b3a96f475384348f96a713)#y6wgz9mn",
            "hex": "41049b518d71bb1da2d79b99f7c66579a4afb210780d0f3f2d708117c660bb1e5283e39a78b5d701b06e6fe49ba196acf50fbf4155e776b3a96f475384348f96a713ac",
            "type": "pubkey"
          }
        }
      ],
      "hex": "01000000010000000000000000000000000000000000000000000000000000000000000000ffffffff0804ffff001d020606ffffffff0100f2052a010000004341049b518d71bb1da2d79b99f7c66579a4afb210780d0f3f2d708117c660bb1e5283e39a78b5d701b06e6fe49ba196acf50fbf4155e776b3a96f475384348f96a713ac00000000"
    }
  ]
}