{
  "hash": "0000000065a46d4f94bbba8c61d547a5370ffa17f8192b90019e11e2bbbbd7ae",
  "confirmations": 45649,
  "height": 7449,
  "version": 1,
  "versionHex": "00000001",
  "merkleroot": "fef1fd3d3dcbbb537362d4ac2992dd05e1bd8ebc066759ae615f80cc2ae391ba",
  "time": 1237061647,
  "mediantime": 1237057527,
  "nonce": 3506487841,
  "bits": "1d00ffff",
  "difficulty": 1,
  "chainwork": "00000000000000000000000000000000000000000000000000001d1a1d1a1d1a",
  "nTx": 1,
  "previousblockhash": "000000007988ac387213a9fa83d7c8fbeeca5b4f3be5dfe1180dac4eef8c30da",
  "nextblockhash": "00000000aa22811e91b2f456264959fcefa1b49ffbc93d110c21c36fb7d004c4",
  "strippedsize": 215,
  "size": 215,
  "weight": 860,
  "tx": [
    {
      "txid": "fef1fd3d3dcbbb537362d4ac2992dd05e1bd8ebc066759ae615f80cc2ae391ba",
      "hash": "fef1fd3d3dcbbb537362d4ac2992dd05e1bd8ebc066759ae615f80cc2ae391ba",
      "version": 1,
      "size": 134,
      "vsize": 134,
      "weight": 536,
      "locktime": 0,
      "vin": [
        {
          "coinbase": "04ffff001d0123",
          "sequence": 4294967295
        }
      ],
      "vout": [
        {
          "value": 50.0,
          "n": 0,
          "scriptPubKey": {
            "asm": "04eb275b546844b7465dc215d6ae87170cc89af4d1d060d606050b3fe408f949e408ada381e489cd7d8efad5f4c81952f89b422ab3239a2cfb39a8970b0926c8d2 OP_CHECKSIG",
            "desc": "pk(04eb275b546844b7465dc215d6ae87170cc89af4d1d060d606050b3fe408f949e408ada381e489cd7d8efad5f4c81952f89b422ab3239a2cfb39a8970b0926c8d2)#vea36uv0",
            "hex": "4104eb275b546844b7465dc215d6ae87170cc89af4d1d060d606050b3fe408f949e408ada381e489cd7d8efad5f4c81952f89b422ab3239a2cfb39a8970b0926c8d2ac",
            "type": "pubkey"
          }
        }
      ],
      "hex": "01000000010000000000000000000000000000000000000000000000000000000000000000ffffffff0704ffff001d0123ffffffff0100f2052a01000000434104eb275b546844b7465dc215d6ae87170cc89af4d1d060d606050b3fe408f949e408ada381e489cd7d8efad5f4c81952f89b422ab3239a2cfb39a8970b0926c8d2ac00000000"
    }
  ]
}