{
  "hash": "000000008fd0be1624982e121c7225459b3ef5387c52b2a8c514c73a9f478578",
  "confirmations": 45607,
  "height": 7491,
  "version": 1,
  "versionHex": "00000001",
  "merkleroot": "3f7a6adbaab094b4d59db63adda2556beb45eabc5fa8f81a352f94b54a1bda05",
  "time": 1237090741,
  "mediantime": 1237086244,
  "nonce": 4224822803,
  "bits": "1d00ffff",
  "difficulty": 1,
  "chainwork": "00000000000000000000000000000000000000000000000000001d441d441d44",
  "nTx": 1,
  "previousblockhash": "00000000277a2149b545f58fa183be708b780a5d14bdd7255184fc24845daf6c",
  "nextblockhash": "00000000aca10cf2fecc97eba47ecf710a0b45be92fdadb8f492fde9844bfbf5",
  "strippedsize": 216,
  "size": 216,
  "weight": 864,
  "tx": [
    {
      "txid": "3f7a6adbaab094b4d59db63adda2556beb45eabc5fa8f81a352f94b54a1bda05",
      "hash": "3f7a6adbaab094b4d59db63adda2556beb45eabc5fa8f81a352f94b54a1bda05",
      "version": 1,
      "size": 135,
      "vsize": 135,
      "weight": 540,
      "locktime": 0,
      "vin": [
        {
          "coinbase": "04ffff001d02cd00",
          "sequence": 4294967295
        }
      ],
      "vout": [
        {
          "value": 50.0,
          "n": 0,
          "scriptPubKey": {
            "asm": "04e6050a7bf045e7210a13234c25574b845d121ffa4652f6f9b9aa29508399a09909b5ec8db6da9247b41fb212f5784db9a37835da0edf070f6fc678914d3db3e4 OP_CHECKSIG",
            "desc": "pk(04e6050a7bf045e7210a13234c25574b845d121ffa4652f6f9b9aa29508399a09909b5ec8db6da9247b41fb212f5784db9a37835da0edf070f6fc678914d3db3e4)#j3ruy0tw",
            "hex": "4104e6050a7bf045e7210a13234c25574b845d121ffa4652f6f9b9aa29508399a09909b5ec8db6da9247b41fb212f5784db9a37835da0edf070f6fc678914d3db3e4ac",
            "type": "pubkey"
          }
        }
      ],
      "hex": "01000000010000000000000000000000000000000000000000000000000000000000000000ffffffff0804ffff001d02cd00ffffffff0100f2052a01000000434104e6050a7bf045e7210a13234c25574b845d121ffa4652f6f9b9aa29508399a09909b5ec8db6da9247b41fb212f5784db9a37835da0edf070f6fc678914d3db3e4ac00000000"
    }
  ]
}