{
  "hash": "0000000095f66f5c23feee3647daae12ddf08df9acccac906cfeb34fc9e9e813",
  "confirmations": 45251,
  "height": 7847,
  "version": 1,
  "versionHex": "00000001",
  "merkleroot": "3db5ca665a66e13e63557ced6ce89108f71491ce98cfff546c5e1d4aa79ef938",
  "time": 1237349054,
  "mediantime": 1237346771,
  "nonce": 2463239223,
  "bits": "1d00ffff",
  "difficulty": 1,
  "chainwork": "00000000000000000000000000000000000000000000000000001ea81ea81ea8",
  "nTx": 1,
  "previousblockhash": "00000000f50ecd7a0b35076021c957d6df5b1f045ad24cfeb271c278bafe030c",
  "nextblockhash": "0000000093cd17e2342eed322d209f94ca67eab09b2670ad50715a306662e83f",
  "strippedsize": 216,
  "size": 216,
  "weight": 864,
  "tx": [
    {
      "txid": "3db5ca665a66e13e63557ced6ce89108f71491ce98cfff546c5e1d4aa79ef938",
      "hash": "3db5ca665a66e13e63557ced6ce89108f71491ce98cfff546c5e1d4aa79ef938",
      "version": 1,
      "size": 135,
      "vsize": 135,
      "weight": 540,
      "locktime": 0,
      "vin": [
        {
          "coinbase": "04ffff001d02b406",
          "sequence": 4294967295
        }
      ],
      "vout": [
        {
          "value": 50.0,
          "n": 0,
          "scriptPubKey": {
            "asm": "042b0e81f0e6a6737809b3a9cec5fddf72bfa59fe55ed31a83868e5353ada2b4634b86705042041504914195d39301116df3cd8f4f7058b6c3b1dc8d3d08883f71 OP_CHECKSIG",
            "desc": "pk(042b0e81f0e6a6737809b3a9cec5fddf72bfa59fe55ed31a83868e5353ada2b4634b86705042041504914195d39301116df3cd8f4f7058b6c3b1dc8d3d08883f71)#xrr89ft0",
            "hex": "41042b0e81f0e6a6737809b3a9cec5fddf72bfa59fe55ed31a83868e5353ada2b4634b86705042041504914195d39301116df3cd8f4f7058b6c3b1dc8d3d08883f71ac",
            "type": "pubkey"
          }
        }
      ],
      "hex": "01000000010000000000000000000000000000000000000000000000000000000000000000ffffffff0804ffff001d02b406ffffffff0100f2052a010000004341042b0e81f0e6a6737809b3a9cec5fddf72bfa59fe55ed31a83868e5353ada2b4634b86705042041504914195d39301116df3cd8f4f7058b6c3b1dc8d3d08883f71ac00000000"
    }
  ]
}