{
  "hash": "0000000098ad8bb8446cf0314ac1999c8e9df878128d8f29b16c554134085915",
  "confirmations": 52163,
  "height": 935,
  "version": 1,
  "versionHex": "00000001",
  "merkleroot": "c03d073cd1e05cba67973d9e959245e2e4a4306263e6a3334928868ce3ed55d1",
  "time": 1232303210,
  "mediantime": 1232299798,
  "nonce": 18531441,
  "bits": "1d00ffff",
  "difficulty": 1,
  "chainwork": "000000000000000000000000000000000000000000000000000003a803a803a8",
  "nTx": 1,
  "previousblockhash": "000000005120278f36b55314b0a71920b959c23e6cf06fd82a829188885fa236",
  "nextblockhash": "00000000f2e21ad000b8ab779c729d84691415c6197230b82fb7b6e9e3f8faa2",
  "strippedsize": 216,
  "size": 216,
  "weight": 864,
  "tx": [
    {
      "txid": "c03d073cd1e05cba67973d9e959245e2e4a4306263e6a3334928868ce3ed55d1",
      "hash": "c03d073cd1e05cba67973d9e959245e2e4a4306263e6a3334928868ce3ed55d1",
      "version": 1,
      "size": 135,
      "vsize": 135,
      "weight": 540,
      "locktime": 0,
      "vin": [
        {
          "coinbase": "04ffff001d02dd00",
          "sequence": 4294967295
        }
      ],
      "vout": [
        {
          "value": 50.0,
          "n": 0,
          "scriptPubKey": {
            "asm": "04c46563f570ca039bb0b2327bd4522c612fa10bcd14462db5c945137c241dd96f159b1697c2583ce02804ad4f946751de3ae77187c8f6038e063ee58ab8312dfd OP_CHECKSIG",
            "desc": "pk(04c46563f570ca039bb0b2327bd4522c612fa10bcd14462db5c945137c241dd96f159b1697c2583ce02804ad4f946751de3ae77187c8f6038e063ee58ab8312dfd)#5ghfx0t8",
            "hex": "4104c46563f570ca039bb0b2327bd4522c612fa10bcd14462db5c945137c241dd96f159b1697c2583ce02804ad4f946751de3ae77187c8f6038e063ee58ab8312dfdac",
            "type": "pubkey"
          }
        }
      ],
      "hex": "01000000010000000000000000000000000000000000000000000000000000000000000000ffffffff0804ffff001d02dd00ffffffff0100f2052a01000000434104c46563f570ca039bb0b2327bd4522c612fa10bcd14462db5c945137c241dd96f159b1697c2583ce02804ad4f946751de3ae77187c8f6038e063ee58ab8312dfdac00000000"
    }
  ]
}