{
  "hash": "00000000dcf1089633847a7371f5b84f20ddee3587884f0f0a96319d965d997e",
  "confirmations": 44316,
  "height": 8782,
  "version": 1,
  "versionHex": "00000001",
  "merkleroot": "b9d2af379ea672c3181ee1e1b3d7923c88f5240f428fc0d994e65423eb1b2e1b",
  "time": 1238086859,
  "mediantime": 1238082679,
  "nonce": 70468895,
  "bits": "1d00ffff",
  "difficulty": 1,
  "chainwork": "0000000000000000000000000000000000000000000000000000224f224f224f",
  "nTx": 1,
  "previousblockhash": "0000000065af049a9fa93cea542046013d314e698055304d998bf89318f05c10",
  "nextblockhash": "000000002173b0e503a7566754711596b57d5319a9069c8fb4c55089acac0502",
  "strippedsize": 215,
  "size": 215,
  "weight": 860,
  "tx": [
    {
      "txid": "b9d2af379ea672c3181ee1e1b3d7923c88f5240f428fc0d994e65423eb1b2e1b",
      "hash": "b9d2af379ea672c3181ee1e1b3d7923c88f5240f428fc0d994e65423eb1b2e1b",
      "version": 1,
      "size": 134,
      "vsize": 134,
      "weight": 536,
      "locktime": 0,
      "vin": [
        {
          "coinbase": "04ffff001d0166",
          "sequence": 4294967295
        }
      ],
      "vout": [
        {
          "value": 50.0,
          "n": 0,
          "scriptPubKey": {
            "asm": "043a29103edea683413a9ac7ab312364f991cb0b87e511df932f70eac180eccfa6aac766b5b78003ccc38cb1ad8cc0b871b884a439d9e6a959259578df96a579ca OP_CHECKSIG",
            "desc": "pk(043a29103edea683413a9ac7ab312364f991cb0b87e511df932f70eac180eccfa6aac766b5b78003ccc38cb1ad8cc0b871b884a439d9e6a959259578df96a579ca)#m6wa6w0q",
            "hex": "41043a29103edea683413a9ac7ab312364f991cb0b87e511df932f70eac180eccfa6aac766b5b78003ccc38cb1ad8cc0b871b884a439d9e6a959259578df96a579caac",
            "type": "pubkey"
          }
        }
      ],
      "hex": "01000000010000000000000000000000000000000000000000000000000000000000000000ffffffff0704ffff001d0166ffffffff0100f2052a010000004341043a29103edea683413a9ac7ab312364f991cb0b87e511df932f70eac180eccfa6aac766b5b78003ccc38cb1ad8cc0b871b884a439d9e6a959259578df96a579caac00000000"
    }
  ]
}