{
  "hash": "000000007b3c95711d2117296d758059a8eca0de7ebdc4c0ac001a8e24925116",
  "confirmations": 51503,
  "height": 1595,
  "version": 1,
  "versionHex": "00000001",
  "merkleroot": "a10d3045730f4d5b7964fb227a6036ec296bfc1db8bda77707a705878c4c58bf",
  "time": 1232809391,
  "mediantime": 1232807280,
  "nonce": 1421701377,
  "bits": "1d00ffff",
  "difficulty": 1,
  "chainwork": "0000000000000000000000000000000000000000000000000000063c063c063c",
  "nTx": 1,
  "previousblockhash": "00000000b6424577a0a7e0a76e4714167a68c9083b3058d40ce5bad463fb13cf",
  "nextblockhash": "000000008674fc83c749fa228fdfb5ab407da28f2467228fdc6411c1c76ca955",
  "strippedsize": 216,
  "size": 216,
  "weight": 864,
  "tx": [
    {
      "txid": "a10d3045730f4d5b7964fb227a6036ec296bfc1db8bda77707a705878c4c58bf",
      "hash": "a10d3045730f4d5b7964fb227a6036ec296bfc1db8bda77707a705878c4c58bf",
      "version": 1,
      "size": 135,
      "vsize": 135,
      "weight": 540,
      "locktime": 0,
      "vin": [
        {
          "coinbase": "04ffff001d020c02",
          "sequence": 4294967295
        }
      ],
      "vout": [
        {
          "value": 50.0,
          "n": 0,
          "scriptPubKey": {
            "asm": "04ba2e1a3a637dbdffe02ab5aafad97dc7273711e3812296be7c2158af6ae655f49adab38bff35d90662eb837ae46bf0bc799b5b511de0f5662fedefe1402e9dbf OP_CHECKSIG",
            "desc": "pk(04ba2e1a3a637dbdffe02ab5aafad97dc7273711e3812296be7c2158af6ae655f49adab38bff35d90662eb837ae46bf0bc799b5b511de0f5662fedefe1402e9dbf)#v4kqqken",
            "hex": "4104ba2e1a3a637dbdffe02ab5aafad97dc7273711e3812296be7c2158af6ae655f49adab38bff35d90662eb837ae46bf0bc799b5b511de0f5662fedefe1402e9dbfac",
            "type": "pubkey"
          }
        }
      ],
      "hex": "01000000010000000000000000000000000000000000000000000000000000000000000000ffffffff0804ffff001d020c02ffffffff0100f2052a01000000434104ba2e1a3a637dbdffe02ab5aafad97dc7273711e3812296be7c2158af6ae655f49adab38bff35d90662eb837ae46bf0bc799b5b511de0f5662fedefe1402e9dbfac00000000"
    }
  ]
}