{
  "hash": "000000002648680a92d9329bc70021fce9e9f02f20ddfc792fcf61482c41d7d7",
  "confirmations": 50608,
  "height": 2490,
  "version": 1,
  "versionHex": "00000001",
  "merkleroot": "dc7996dd5e0f16f46e863df4cb9954b91d408e864772a2a8643ae880b658067b",
  "time": 1233415848,
  "mediantime": 1233413501,
  "nonce": 4071708417,
  "bits": "1d00ffff",
  "difficulty": 1,
  "chainwork": "000000000000000000000000000000000000000000000000000009bb09bb09bb",
  "nTx": 1,
  "previousblockhash": "0000000035276fa0d290d11aa5e1fccf6854496c1e9da22e9ff7e9704e7451a2",
  "nextblockhash": "000000003d33a4977de89989a8c707ec1e23be86445f394be0ce3f6d0a370292",
  "strippedsize": 216,
  "size": 216,
  "weight": 864,
  "tx": [
    {
      "txid": "dc7996dd5e0f16f46e863df4cb9954b91d408e864772a2a8643ae880b658067b",
      "hash": "dc7996dd5e0f16f46e863df4cb9954b91d408e864772a2a8643ae880b658067b",
      "version": 1,
      "size": 135,
      "vsize": 135,
      "weight": 540,
      "locktime": 0,
      "vin": [
        {
          "coinbase": "04ffff001d02f100",
          "sequence": 4294967295
        }
      ],
      "vout": [
        {
          "value": 50.0,
          "n": 0,
          "scriptPubKey": {
            "asm": "044e69be1e6808e4ff26297166e668f043374d6ff3aea273795211d39c3c78e7f441b0abcb3f16d72b5db171f846577759cc86c6878c46fdf3baa3a599993b4e58 OP_CHECKSIG",
            "desc": "pk(044e69be1e6808e4ff26297166e668f043374d6ff3aea273795211d39c3c78e7f441b0abcb3f16d72b5db171f846577759cc86c6878c46fdf3baa3a599993b4e58)#egxxkfxs",
            "hex": "41044e69be1e6808e4ff26297166e668f043374d6ff3aea273795211d39c3c78e7f441b0abcb3f16d72b5db171f846577759cc86c6878c46fdf3baa3a599993b4e58ac",
            "type": "pubkey"
          }
        }
      ],
      "hex": "01000000010000000000000000000000000000000000000000000000000000000000000000ffffffff0804ffff001d02f100ffffffff0100f2052a010000004341044e69be1e6808e4ff26297166e668f043374d6ff3aea273795211d39c3c78e7f441b0abcb3f16d72b5db171f846577759cc86c6878c46fdf3baa3a599993b4e58ac00000000"
    }
  ]
}