{
  "hash": "00000000be752294d937ba5fe0ee228b01bf5b11e26691e44a6a3cfb50fe1018",
  "confirmations": 51462,
  "height": 1636,
  "version": 1,
  "versionHex": "00000001",
  "merkleroot": "b4a4620a79c4683ebdd7b05880d2abda075a71a9a5123c8b0e203e4390917f83",
  "time": 1232826987,
  "mediantime": 1232824557,
  "nonce": 2231953666,
  "bits": "1d00ffff",
  "difficulty": 1,
  "chainwork": "0000000000000000000000000000000000000000000000000000066506650665",
  "nTx": 1,
  "previousblockhash": "0000000094f739836057b24bcdec3a532bba8b5f7b903a530d3a29bc422c45eb",
  "nextblockhash": "0000000072af7bcb74e7756770bc1f526a9c82500fadecd0261a25babe8583f4",
  "strippedsize": 216,
  "size": 216,
  "weight": 864,
  "tx": [
    {
      "txid": "b4a4620a79c4683ebdd7b05880d2abda075a71a9a5123c8b0e203e4390917f83",
      "hash": "b4a4620a79c4683ebdd7b05880d2abda075a71a9a5123c8b0e203e4390917f83",
      "version": 1,
      "size": 135,
      "vsize": 135,
      "weight": 540,
      "locktime": 0,
      "vin": [
        {
          "coinbase": "04ffff001d025b02",
          "sequence": 4294967295
        }
      ],
      "vout": [
        {
          "value": 50.0,
          "n": 0,
          "scriptPubKey": {
            "asm": "04adb3c3a77bfb1573494319b7f45ac7655d44d1f4d89ec098690253e0910ae07d2780d1bc9ade34caff15d745b2a9eead9693d3e8d850005d25690fb056e9baaa OP_CHECKSIG",
            "desc": "pk(04adb3c3a77bfb1573494319b7f45ac7655d44d1f4d89ec098690253e0910ae07d2780d1bc9ade34caff15d745b2a9eead9693d3e8d850005d25690fb056e9baaa)#jgvj98vl",
            "hex": "4104adb3c3a77bfb1573494319b7f45ac7655d44d1f4d89ec098690253e0910ae07d2780d1bc9ade34caff15d745b2a9eead9693d3e8d850005d25690fb056e9baaaac",
            "type": "pubkey"
          }
        }
      ],
      "hex": "01000000010000000000000000000000000000000000000000000000000000000000000000ffffffff0804ffff001d025b02ffffffff0100f2052a01000000434104adb3c3a77bfb1573494319b7f45ac7655d44d1f4d89ec098690253e0910ae07d2780d1bc9ade34caff15d745b2a9eead9693d3e8d850005d25690fb056e9baaaac00000000"
    }
  ]
}