{
  "hash": "000000009f7479465e462edc3ef7e174e916e6d60d51270f180f68e2157aa4ae",
  "confirmations": 52536,
  "height": 562,
  "version": 1,
  "versionHex": "00000001",
  "merkleroot": "b88c1cae5976c7f3f88b0e8ca0b23d6f8e44112dd7074d7f3fe01579710ae3be",
  "time": 1232012146,
  "mediantime": 1232008622,
  "nonce": 39900228,
  "bits": "1d00ffff",
  "difficulty": 1,
  "chainwork": "0000000000000000000000000000000000000000000000000000023302330233",
  "nTx": 1,
  "previousblockhash": "0000000058b9d64ce6728168716bcd837c2b628cf5f26d2aa28cfce8543d2bd6",
  "nextblockhash": "00000000c5c2bb37ed9bf00bc9bd114e4763a40559ba2649bbaf4f4efad00db7",
  "strippedsize": 216,
  "size": 216,
  "weight": 864,
  "tx": [
    {
      "txid": "b88c1cae5976c7f3f88b0e8ca0b23d6f8e44112dd7074d7f3fe01579710ae3be",
      "hash": "b88c1cae5976c7f3f88b0e8ca0b23d6f8e44112dd7074d7f3fe01579710ae3be",
      "version": 1,
      "size": 135,
      "vsize": 135,
      "weight": 540,
      "locktime": 0,
      "vin": [
        {
          "coinbase": "04ffff001d02b700",
          "sequence": 4294967295
        }
      ],
      "vout": [
        {
          "value": 50.0,
          "n": 0,
          "scriptPubKey": {
            "asm": "04c3f849fb3dcc29a4c1b02a6003ae68f9536182ad3a027f18548754e1c4eac3a31d3fb4f7ce5eb129d78bbe04d05bfc52599ff756c858f50e3bfc0c11074842c2 OP_CHECKSIG",
            "desc": "pk(04c3f849fb3dcc29a4c1b02a6003ae68f9536182ad3a027f18548754e1c4eac3a31d3fb4f7ce5eb129d78bbe04d05bfc52599ff756c858f50e3bfc0c11074842c2)#tvvqd4la",
            "hex": "4104c3f849fb3dcc29a4c1b02a6003ae68f9536182ad3a027f18548754e1c4eac3a31d3fb4f7ce5eb129d78bbe04d05bfc52599ff756c858f50e3bfc0c11074842c2ac",
            "type": "pubkey"
          }
        }
      ],
      "hex": "01000000010000000000000000000000000000000000000000000000000000000000000000ffffffff0804ffff001d02b700ffffffff0100f2052a01000000434104c3f849fb3dcc29a4c1b02a6003ae68f9536182ad3a027f18548754e1c4eac3a31d3fb4f7ce5eb129d78bbe04d05bfc52599ff756c858f50e3bfc0c11074842c2ac00000000"
    }
  ]
}