{
  "hash": "0000000029b8f33ee6c012e0011773682777b93555aee7d41b7f4f51db6b5ddb",
  "confirmations": 50384,
  "height": 2714,
  "version": 1,
  "versionHex": "00000001",
  "merkleroot": "13737f562489190a623ce68ff2c7a7a1427cf788f705a940ba45eff3a131eb5c",
  "time": 1233574099,
  "mediantime": 1233568449,
  "nonce": 2960785158,
  "bits": "1d00ffff",
  "difficulty": 1,
  "chainwork": "00000000000000000000000000000000000000000000000000000a9b0a9b0a9b",
  "nTx": 1,
  "previousblockhash": "00000000ff96cede2dbfdf69a0a88c800f3ed9c1130201777090103de9afa7e6",
  "nextblockhash": "000000002507d02560207b4aeb0ac78bc42160d83965e6aab4160a078c6ffe65",
  "strippedsize": 216,
  "size": 216,
  "weight": 864,
  "tx": [
    {
      "txid": "13737f562489190a623ce68ff2c7a7a1427cf788f705a940ba45eff3a131eb5c",
      "hash": "13737f562489190a623ce68ff2c7a7a1427cf788f705a940ba45eff3a131eb5c",
      "version": 1,
      "size": 135,
      "vsize": 135,
      "weight": 540,
      "locktime": 0,
      "vin": [
        {
          "coinbase": "04ffff001d02ec04",
          "sequence": 4294967295
        }
      ],
      "vout": [
        {
          "value": 50.0,
          "n": 0,
          "scriptPubKey": {
            "asm": "04f7a75c5910037454f06102aab77c38feac4dc35630710ab63928a505ea5f34db9a8ec1efbdd84f73fa7fd3bf673aa067e8800bd148170b1631ed48055737f047 OP_CHECKSIG",
            "desc": "pk(04f7a75c5910037454f06102aab77c38feac4dc35630710ab63928a505ea5f34db9a8ec1efbdd84f73fa7fd3bf673aa067e8800bd148170b1631ed48055737f047)#7zvm2c0p",
            "hex": "4104f7a75c5910037454f06102aab77c38feac4dc35630710ab63928a505ea5f34db9a8ec1efbdd84f73fa7fd3bf673aa067e8800bd148170b1631ed48055737f047ac",
            "type": "pubkey"
          }
        }
      ],
      "hex": "01000000010000000000000000000000000000000000000000000000000000000000000000ffffffff0804ffff001d02ec04ffffffff0100f2052a01000000434104f7a75c5910037454f06102aab77c38feac4dc35630710ab63928a505ea5f34db9a8ec1efbdd84f73fa7fd3bf673aa067e8800bd148170b1631ed48055737f047ac00000000"
    }
  ]
}