{
  "hash": "000000000108391e7d064ad376d734d6080de67409adf46ca64b8f7d338ff7be",
  "confirmations": 46913,
  "height": 6185,
  "version": 1,
  "versionHex": "00000001",
  "merkleroot": "abcf6506eeff7e030b35a1199aef22732f66ebd58eae8b39c9aae00187612bf4",
  "time": 1236080034,
  "mediantime": 1236075010,
  "nonce": 1692960544,
  "bits": "1d00ffff",
  "difficulty": 1,
  "chainwork": "0000000000000000000000000000000000000000000000000000182a182a182a",
  "nTx": 1,
  "previousblockhash": "00000000d1b4e13188893c5a9ebe72c5b654d9ff0f3e8da665a014406852f574",
  "nextblockhash": "000000001420514c99839a2b4d8c7eb6686591dd0a18157deae56f1b9ff832c6",
  "strippedsize": 216,
  "size": 216,
  "weight": 864,
  "tx": [
    {
      "txid": "abcf6506eeff7e030b35a1199aef22732f66ebd58eae8b39c9aae00187612bf4",
      "hash": "abcf6506eeff7e030b35a1199aef22732f66ebd58eae8b39c9aae00187612bf4",
      "version": 1,
      "size": 135,
      "vsize": 135,
      "weight": 540,
      "locktime": 0,
      "vin": [
        {
          "coinbase": "04ffff001d024108",
          "sequence": 4294967295
        }
      ],
      "vout": [
        {
          "value": 50.0,
          "n": 0,
          "scriptPubKey": {
            "asm": "040745506d495f7a2c1f20464a8a0f51f4a79de3b28bc9a6862610fb721bc6f85b978403fd4b99dd76a2e04ed674da918c63cd66dd428340fd79ac522ae838527a OP_CHECKSIG",
            "desc": "pk(040745506d495f7a2c1f20464a8a0f51f4a79de3b28bc9a6862610fb721bc6f85b978403fd4b99dd76a2e04ed674da918c63cd66dd428340fd79ac522ae838527a)#urhp2u8l",
            "hex": "41040745506d495f7a2c1f20464a8a0f51f4a79de3b28bc9a6862610fb721bc6f85b978403fd4b99dd76a2e04ed674da918c63cd66dd428340fd79ac522ae838527aac",
            "type": "pubkey"
          }
        }
      ],
      "hex": "01000000010000000000000000000000000000000000000000000000000000000000000000ffffffff0804ffff001d024108ffffffff0100f2052a010000004341040745506d495f7a2c1f20464a8a0f51f4a79de3b28bc9a6862610fb721bc6f85b978403fd4b99dd76a2e04ed674da918c63cd66dd428340fd79ac522ae838527aac00000000"
    }
  ]
}