{
  "hash": "000000005bd5de0744ae93f48e99e41a00f18cfcdc85205c70e02e92defc9759",
  "confirmations": 45615,
  "height": 7483,
  "version": 1,
  "versionHex": "00000001",
  "merkleroot": "4d47649f1809d0d510f81317d0609ef70e85ea871a7a7dabab9124bda78f07de",
  "time": 1237084197,
  "mediantime": 1237080722,
  "nonce": 36923485,
  "bits": "1d00ffff",
  "difficulty": 1,
  "chainwork": "00000000000000000000000000000000000000000000000000001d3c1d3c1d3c",
  "nTx": 1,
  "previousblockhash": "00000000e2ee3a4cfb71d44b57407a78199f51ce2f6124d06549e291b032ef8e",
  "nextblockhash": "000000006c9bb0c118496752862d318f356af7d1f0a751c4bd85c5786ff44e95",
  "strippedsize": 216,
  "size": 216,
  "weight": 864,
  "tx": [
    {
      "txid": "4d47649f1809d0d510f81317d0609ef70e85ea871a7a7dabab9124bda78f07de",
      "hash": "4d47649f1809d0d510f81317d0609ef70e85ea871a7a7dabab9124bda78f07de",
      "version": 1,
      "size": 135,
      "vsize": 135,
      "weight": 540,
      "locktime": 0,
      "vin": [
        {
          "coinbase": "04ffff001d023301",
          "sequence": 4294967295
        }
      ],
      "vout": [
        {
          "value": 50.0,
          "n": 0,
          "scriptPubKey": {
            "asm": "04734a6ae12e537841be7e7670a2646a6436bef9d0cecd319987db795a665962571fc6c936155ea0eb8824ff07ad218c2638712cee23b33430442cc3aeb1d620ac OP_CHECKSIG",
            "desc": "pk(04734a6ae12e537841be7e7670a2646a6436bef9d0cecd319987db795a665962571fc6c936155ea0eb8824ff07ad218c2638712cee23b33430442cc3aeb1d620ac)#cjj0yedl",
            "hex": "4104734a6ae12e537841be7e7670a2646a6436bef9d0cecd319987db795a665962571fc6c936155ea0eb8824ff07ad218c2638712cee23b33430442cc3aeb1d620acac",
            "type": "pubkey"
          }
        }
      ],
      "hex": "01000000010000000000000000000000000000000000000000000000000000000000000000ffffffff0804ffff001d023301ffffffff0100f2052a01000000434104734a6ae12e537841be7e7670a2646a6436bef9d0cecd319987db795a665962571fc6c936155ea0eb8824ff07ad218c2638712cee23b33430442cc3aeb1d620acac00000000"
    }
  ]
}