{
  "hash": "000000002cf733ab92a73270c13472e9948737a0cb42a3d4d8364b92e2651560",
  "confirmations": 47061,
  "height": 6037,
  "version": 1,
  "versionHex": "00000001",
  "merkleroot": "bbb0deb18d0469c7e8a16177fa307cf0c7bbbc8149377dbf9b620d71a488d2c7",
  "time": 1235957883,
  "mediantime": 1235954735,
  "nonce": 995430699,
  "bits": "1d00ffff",
  "difficulty": 1,
  "chainwork": "0000000000000000000000000000000000000000000000000000179617961796",
  "nTx": 1,
  "previousblockhash": "00000000f8a3dc320d2d25b3af077a137df315e1144f08be3cd68460906b2c0b",
  "nextblockhash": "00000000c4775cf7d4ea3554c9649e672d682214921592780bf208287a53fae2",
  "strippedsize": 216,
  "size": 216,
  "weight": 864,
  "tx": [
    {
      "txid": "bbb0deb18d0469c7e8a16177fa307cf0c7bbbc8149377dbf9b620d71a488d2c7",
      "hash": "bbb0deb18d0469c7e8a16177fa307cf0c7bbbc8149377dbf9b620d71a488d2c7",
      "version": 1,
      "size": 135,
      "vsize": 135,
      "weight": 540,
      "locktime": 0,
      "vin": [
        {
          "coinbase": "04ffff001d029f05",
          "sequence": 4294967295
        }
      ],
      "vout": [
        {
          "value": 50.0,
          "n": 0,
          "scriptPubKey": {
            "asm": "04437e591babe8bac695aa5093fa81ad36bb966ed31ef930d570da6891efa65e0adabbfb93d2e7a514a46e506a72f3028726bd78efba7049e013d2c4a01abd9683 OP_CHECKSIG",
            "desc": "pk(04437e591babe8bac695aa5093fa81ad36bb966ed31ef930d570da6891efa65e0adabbfb93d2e7a514a46e506a72f3028726bd78efba7049e013d2c4a01abd9683)#d73tkk6z",
            "hex": "4104437e591babe8bac695aa5093fa81ad36bb966ed31ef930d570da6891efa65e0adabbfb93d2e7a514a46e506a72f3028726bd78efba7049e013d2c4a01abd9683ac",
            "type": "pubkey"
          }
        }
      ],
      "hex": "01000000010000000000000000000000000000000000000000000000000000000000000000ffffffff0804ffff001d029f05ffffffff0100f2052a01000000434104437e591babe8bac695aa5093fa81ad36bb966ed31ef930d570da6891efa65e0adabbfb93d2e7a514a46e506a72f3028726bd78efba7049e013d2c4a01abd9683ac00000000"
    }
  ]
}