{
  "hash": "0000000022ab27da26bf5857c4b9e744573a75f848a46eb91db3f006f3e08f25",
  "confirmations": 50672,
  "height": 2426,
  "version": 1,
  "versionHex": "00000001",
  "merkleroot": "724d0577b973cecec364b52463ef237fdbd6af634e91051d7f5b574451064e6f",
  "time": 1233373489,
  "mediantime": 1233370317,
  "nonce": 713781800,
  "bits": "1d00ffff",
  "difficulty": 1,
  "chainwork": "0000000000000000000000000000000000000000000000000000097b097b097b",
  "nTx": 1,
  "previousblockhash": "000000004b15656c6ea361efd97cb97c86f2cc8b0766784054d5251df835c736",
  "nextblockhash": "0000000074772e648f80fcdfebe2d0b3ffc367881b1343127d22506f69d37a5f",
  "strippedsize": 215,
  "size": 215,
  "weight": 860,
  "tx": [
    {
      "txid": "724d0577b973cecec364b52463ef237fdbd6af634e91051d7f5b574451064e6f",
      "hash": "724d0577b973cecec364b52463ef237fdbd6af634e91051d7f5b574451064e6f",
      "version": 1,
      "size": 134,
      "vsize": 134,
      "weight": 536,
      "locktime": 0,
      "vin": [
        {
          "coinbase": "04ffff001d0123",
          "sequence": 4294967295
        }
      ],
      "vout": [
        {
          "value": 50.0,
          "n": 0,
          "scriptPubKey": {
            "asm": "0421dfd98896244dfc76c3fc17fac3728ec29dfa23161a97c38b7eb64b005d852eb7eaf1c2c978a6be59ddc38638ac233b132fbeeb883a298e34b18ef5e2f6650c OP_CHECKSIG",
            "desc": "pk(0421dfd98896244dfc76c3fc17fac3728ec29dfa23161a97c38b7eb64b005d852eb7eaf1c2c978a6be59ddc38638ac233b132fbeeb883a298e34b18ef5e2f6650c)#zjf9cuqu",
            "hex": "410421dfd98896244dfc76c3fc17fac3728ec29dfa23161a97c38b7eb64b005d852eb7eaf1c2c978a6be59ddc38638ac233b132fbeeb883a298e34b18ef5e2f6650cac",
            "type": "pubkey"
          }
        }
      ],
      "hex": "01000000010000000000000000000000000000000000000000000000000000000000000000ffffffff0704ffff001d0123ffffffff0100f2052a0100000043410421dfd98896244dfc76c3fc17fac3728ec29dfa23161a97c38b7eb64b005d852eb7eaf1c2c978a6be59ddc38638ac233b132fbeeb883a298e34b18ef5e2f6650cac00000000"
    }
  ]
}