{
  "hash": "00000000e5fec80c2f953b79ce5b60fbe7473d0fe4fa3dd0895560c9465554b7",
  "confirmations": 52313,
  "height": 785,
  "version": 1,
  "versionHex": "00000001",
  "merkleroot": "af4b9e2291e1360d7ff1d9bbd49eb7f40e069d659c589e835e1bc8b33749ece0",
  "time": 1232180282,
  "mediantime": 1232174964,
  "nonce": 294844708,
  "bits": "1d00ffff",
  "difficulty": 1,
  "chainwork": "0000000000000000000000000000000000000000000000000000031203120312",
  "nTx": 1,
  "previousblockhash": "000000002dfc22975439a6a353d80a5bd5ae2052f9c6c647640f3b102e2a2eb3",
  "nextblockhash": "00000000f6df91f727f4554d0f020cf785d689302a2cc5f6542b1f88bfcaf110",
  "strippedsize": 216,
  "size": 216,
  "weight": 864,
  "tx": [
    {
      "txid": "af4b9e2291e1360d7ff1d9bbd49eb7f40e069d659c589e835e1bc8b33749ece0",
      "hash": "af4b9e2291e1360d7ff1d9bbd49eb7f40e069d659c589e835e1bc8b33749ece0",
      "version": 1,
      "size": 135,
      "vsize": 135,
      "weight": 540,
      "locktime": 0,
      "vin": [
        {
          "coinbase": "04ffff001d024101",
          "sequence": 4294967295
        }
      ],
      "vout": [
        {
          "value": 50.0,
          "n": 0,
          "scriptPubKey": {
            "asm": "048f7c89d3a1f37d38f7282128b03ffef56a4ad25af2b08c4a418c05d1d35530ac8d62a08c1a2606d912fdfbb960c5fd87c72f80c5c3899dea60bcf9d6ca789190 OP_CHECKSIG",
            "desc": "pk(048f7c89d3a1f37d38f7282128b03ffef56a4ad25af2b08c4a418c05d1d35530ac8d62a08c1a2606d912fdfbb960c5fd87c72f80c5c3899dea60bcf9d6ca789190)#mslu7dy6",
            "hex": "41048f7c89d3a1f37d38f7282128b03ffef56a4ad25af2b08c4a418c05d1d35530ac8d62a08c1a2606d912fdfbb960c5fd87c72f80c5c3899dea60bcf9d6ca789190ac",
            "type": "pubkey"
          }
        }
      ],
      "hex": "01000000010000000000000000000000000000000000000000000000000000000000000000ffffffff0804ffff001d024101ffffffff0100f2052a010000004341048f7c89d3a1f37d38f7282128b03ffef56a4ad25af2b08c4a418c05d1d35530ac8d62a08c1a2606d912fdfbb960c5fd87c72f80c5c3899dea60bcf9d6ca789190ac00000000"
    }
  ]
}