{
  "hash": "000000008a6ab5d76aabfda0a7d31df792b5fc68789895ecc5fa0dbd39143eeb",
  "confirmations": 46592,
  "height": 6506,
  "version": 1,
  "versionHex": "00000001",
  "merkleroot": "d356a3f0762e568b5a9da88f361c76d4f3e2b77a0287de8202b88df3d27b0ee4",
  "time": 1236335161,
  "mediantime": 1236331266,
  "nonce": 1984533504,
  "bits": "1d00ffff",
  "difficulty": 1,
  "chainwork": "0000000000000000000000000000000000000000000000000000196b196b196b",
  "nTx": 1,
  "previousblockhash": "00000000b05f46cf39a85dcb3743c437f17d920b286412a8d5339de8f5b82872",
  "nextblockhash": "00000000858a28641f7272f982aba474bf4ed9a2e9109b8d3889f7747c438fdc",
  "strippedsize": 216,
  "size": 216,
  "weight": 864,
  "tx": [
    {
      "txid": "d356a3f0762e568b5a9da88f361c76d4f3e2b77a0287de8202b88df3d27b0ee4",
      "hash": "d356a3f0762e568b5a9da88f361c76d4f3e2b77a0287de8202b88df3d27b0ee4",
      "version": 1,
      "size": 135,
      "vsize": 135,
      "weight": 540,
      "locktime": 0,
      "vin": [
        {
          "coinbase": "04ffff001d02d703",
          "sequence": 4294967295
        }
      ],
      "vout": [
        {
          "value": 50.0,
          "n": 0,
          "scriptPubKey": {
            "asm": "04d581c06982cc39ffcb92c4bb7722434abb8ee7762b30dddee565d736e2c4ce9301a88e56afe422ccde69a002d6c880e1034877f40c8f137724d68511e2413b19 OP_CHECKSIG",
            "desc": "pk(04d581c06982cc39ffcb92c4bb7722434abb8ee7762b30dddee565d736e2c4ce9301a88e56afe422ccde69a002d6c880e1034877f40c8f137724d68511e2413b19)#f66zuuzn",
            "hex": "4104d581c06982cc39ffcb92c4bb7722434abb8ee7762b30dddee565d736e2c4ce9301a88e56afe422ccde69a002d6c880e1034877f40c8f137724d68511e2413b19ac",
            "type": "pubkey"
          }
        }
      ],
      "hex": "01000000010000000000000000000000000000000000000000000000000000000000000000ffffffff0804ffff001d02d703ffffffff0100f2052a01000000434104d581c06982cc39ffcb92c4bb7722434abb8ee7762b30dddee565d736e2c4ce9301a88e56afe422ccde69a002d6c880e1034877f40c8f137724d68511e2413b19ac00000000"
    }
  ]
}