{
  "hash": "00000000022e51869e1996a3a5c61c92d9f2eaf27dead6ec727b5d85526e7de3",
  "confirmations": 44750,
  "height": 8348,
  "version": 1,
  "versionHex": "00000001",
  "merkleroot": "44158c3817bbfa0f37ee45e908e3a2b2fe696c7f8a6e9f4f50114f216e87f6ce",
  "time": 1237764203,
  "mediantime": 1237760405,
  "nonce": 3458486824,
  "bits": "1d00ffff",
  "difficulty": 1,
  "chainwork": "0000000000000000000000000000000000000000000000000000209d209d209d",
  "nTx": 1,
  "previousblockhash": "00000000b5e3fb33d84d17fb1656cd7f80c66020556c47e970333edf8f5cf0c5",
  "nextblockhash": "000000000ec8b5afc4d461dab3bb7f4885a27997cd29422e69886ab62289828f",
  "strippedsize": 216,
  "size": 216,
  "weight": 864,
  "tx": [
    {
      "txid": "44158c3817bbfa0f37ee45e908e3a2b2fe696c7f8a6e9f4f50114f216e87f6ce",
      "hash": "44158c3817bbfa0f37ee45e908e3a2b2fe696c7f8a6e9f4f50114f216e87f6ce",
      "version": 1,
      "size": 135,
      "vsize": 135,
      "weight": 540,
      "locktime": 0,
      "vin": [
        {
          "coinbase": "04ffff001d020005",
          "sequence": 4294967295
        }
      ],
      "vout": [
        {
          "value": 50.0,
          "n": 0,
          "scriptPubKey": {
            "asm": "0463fc9736451fc3b3db83ec480b1b27963818625f08fa4b53bfce99a12914238094f9923ab13b0f8b2951bdcfa06afd6bdd1d5a15c3e732a132d1ac31f529f026 OP_CHECKSIG",
            "desc": "pk(0463fc9736451fc3b3db83ec480b1b27963818625f08fa4b53bfce99a12914238094f9923ab13b0f8b2951bdcfa06afd6bdd1d5a15c3e732a132d1ac31f529f026)#qg25kmqc",
            "hex": "410463fc9736451fc3b3db83ec480b1b27963818625f08fa4b53bfce99a12914238094f9923ab13b0f8b2951bdcfa06afd6bdd1d5a15c3e732a132d1ac31f529f026ac",
            "type": "pubkey"
          }
        }
      ],
      "hex": "01000000010000000000000000000000000000000000000000000000000000000000000000ffffffff0804ffff001d020005ffffffff0100f2052a0100000043410463fc9736451fc3b3db83ec480b1b27963818625f08fa4b53bfce99a12914238094f9923ab13b0f8b2951bdcfa06afd6bdd1d5a15c3e732a132d1ac31f529f026ac00000000"
    }
  ]
}