{
  "hash": "000000001573ff4d06aaddcb702b33e379bf458d36585e11b38016249e148264",
  "confirmations": 48644,
  "height": 4454,
  "version": 1,
  "versionHex": "00000001",
  "merkleroot": "44d49787ecf07b8a63734750d99b83ee088974f5031a072b4edc730176680248",
  "time": 1234748653,
  "mediantime": 1234744649,
  "nonce": 1841708054,
  "bits": "1d00ffff",
  "difficulty": 1,
  "chainwork": "0000000000000000000000000000000000000000000000000000116711671167",
  "nTx": 1,
  "previousblockhash": "00000000dcc41d7e818f14ae157b73ee7e0daae9bf8563486cc0f55b628ae5a7",
  "nextblockhash": "00000000b6783577e64aa1e305d8f3e85d37213de45e6adbef7debba5d13b289",
  "strippedsize": 216,
  "size": 216,
  "weight": 864,
  "tx": [
    {
      "txid": "44d49787ecf07b8a63734750d99b83ee088974f5031a072b4edc730176680248",
      "hash": "44d49787ecf07b8a63734750d99b83ee088974f5031a072b4edc730176680248",
      "version": 1,
      "size": 135,
      "vsize": 135,
      "weight": 540,
      "locktime": 0,
      "vin": [
        {
          "coinbase": "04ffff001d021002",
          "sequence": 4294967295
        }
      ],
      "vout": [
        {
          "value": 50.0,
          "n": 0,
          "scriptPubKey": {
            "asm": "04608a39153d3ad43778894828fd70c814b2ab25974ec48c00f7395535aaa0e954d1b3f852dff52072c6801162082950177c3694f566109e2798d299b593e6181e OP_CHECKSIG",
            "desc": "pk(04608a39153d3ad43778894828fd70c814b2ab25974ec48c00f7395535aaa0e954d1b3f852dff52072c6801162082950177c3694f566109e2798d299b593e6181e)#yy9qzzsd",
            "hex": "4104608a39153d3ad43778894828fd70c814b2ab25974ec48c00f7395535aaa0e954d1b3f852dff52072c6801162082950177c3694f566109e2798d299b593e6181eac",
            "type": "pubkey"
          }
        }
      ],
      "hex": "01000000010000000000000000000000000000000000000000000000000000000000000000ffffffff0804ffff001d021002ffffffff0100f2052a01000000434104608a39153d3ad43778894828fd70c814b2ab25974ec48c00f7395535aaa0e954d1b3f852dff52072c6801162082950177c3694f566109e2798d299b593e6181eac00000000"
    }
  ]
}