{
  "hash": "00000000fbe6e633e1b037c92b50ee6b60a9ad810f05e0758f9d7271fa1d9612",
  "confirmations": 50139,
  "height": 2959,
  "version": 1,
  "versionHex": "00000001",
  "merkleroot": "19c1f92e429969e43a5de5db879e073a9ae29eb0c8c28b7cfa34823fddd68e7b",
  "time": 1233731884,
  "mediantime": 1233729155,
  "nonce": 36337700,
  "bits": "1d00ffff",
  "difficulty": 1,
  "chainwork": "00000000000000000000000000000000000000000000000000000b900b900b90",
  "nTx": 1,
  "previousblockhash": "000000006fe7385ab0a8ddee0a12ac021805dff05ebe376413f2989f56f1ee0d",
  "nextblockhash": "000000000fc4f99503403c52453159c7c6ac9c4a96b115490dada1e57e587de1",
  "strippedsize": 216,
  "size": 216,
  "weight": 864,
  "tx": [
    {
      "txid": "19c1f92e429969e43a5de5db879e073a9ae29eb0c8c28b7cfa34823fddd68e7b",
      "hash": "19c1f92e429969e43a5de5db879e073a9ae29eb0c8c28b7cfa34823fddd68e7b",
      "version": 1,
      "size": 135,
      "vsize": 135,
      "weight": 540,
      "locktime": 0,
      "vin": [
        {
          "coinbase": "04ffff001d02a501",
          "sequence": 4294967295
        }
      ],
      "vout": [
        {
          "value": 50.0,
          "n": 0,
          "scriptPubKey": {
            "asm": "04841cac355f1a6d33486285ff64b49ba93adb0b1a8db0308dbebcaa51e3a2dda571e378780b63a2b15c768ce835f8b1df83ea9283bc641686446aa4ee823a8b4d OP_CHECKSIG",
            "desc": "pk(04841cac355f1a6d33486285ff64b49ba93adb0b1a8db0308dbebcaa51e3a2dda571e378780b63a2b15c768ce835f8b1df83ea9283bc641686446aa4ee823a8b4d)#qvma457g",
            "hex": "4104841cac355f1a6d33486285ff64b49ba93adb0b1a8db0308dbebcaa51e3a2dda571e378780b63a2b15c768ce835f8b1df83ea9283bc641686446aa4ee823a8b4dac",
            "type": "pubkey"
          }
        }
      ],
      "hex": "01000000010000000000000000000000000000000000000000000000000000000000000000ffffffff0804ffff001d02a501ffffffff0100f2052a01000000434104841cac355f1a6d33486285ff64b49ba93adb0b1a8db0308dbebcaa51e3a2dda571e378780b63a2b15c768ce835f8b1df83ea9283bc641686446aa4ee823a8b4dac00000000"
    }
  ]
}