{
  "hash": "00000000d27bc35124bd508ccbf9be678378e5566ac8345a076210cea2c44216",
  "confirmations": 43482,
  "height": 9616,
  "version": 1,
  "versionHex": "00000001",
  "merkleroot": "a3809c2a8b61fe5f40701246ad82377ecd2f18b4e13fb7fc91a5886addf7c54e",
  "time": 1238714394,
  "mediantime": 1238709378,
  "nonce": 4044097820,
  "bits": "1d00ffff",
  "difficulty": 1,
  "chainwork": "0000000000000000000000000000000000000000000000000000259125912591",
  "nTx": 1,
  "previousblockhash": "0000000007d1cc6343cbba51c9234394438e6ef730e31cc1c1cc30ef9efdde86",
  "nextblockhash": "00000000c1b8eeb553c7a471dfb0c746af982028506650af6c8551027d95703a",
  "strippedsize": 216,
  "size": 216,
  "weight": 864,
  "tx": [
    {
      "txid": "a3809c2a8b61fe5f40701246ad82377ecd2f18b4e13fb7fc91a5886addf7c54e",
      "hash": "a3809c2a8b61fe5f40701246ad82377ecd2f18b4e13fb7fc91a5886addf7c54e",
      "version": 1,
      "size": 135,
      "vsize": 135,
      "weight": 540,
      "locktime": 0,
      "vin": [
        {
          "coinbase": "04ffff001d025d07",
          "sequence": 4294967295
        }
      ],
      "vout": [
        {
          "value": 50.0,
          "n": 0,
          "scriptPubKey": {
            "asm": "04463dea4aa692532a39e1fcfc578927a665998a43fd294046f14f6d74d929ebdaa303e421ffbfd62d986268bcd06d8f1bfa52bed8cea703fe8212b6ca00b198ef OP_CHECKSIG",
            "desc": "pk(04463dea4aa692532a39e1fcfc578927a665998a43fd294046f14f6d74d929ebdaa303e421ffbfd62d986268bcd06d8f1bfa52bed8cea703fe8212b6ca00b198ef)#c4caza5f",
            "hex": "4104463dea4aa692532a39e1fcfc578927a665998a43fd294046f14f6d74d929ebdaa303e421ffbfd62d986268bcd06d8f1bfa52bed8cea703fe8212b6ca00b198efac",
            "type": "pubkey"
          }
        }
      ],
      "hex": "01000000010000000000000000000000000000000000000000000000000000000000000000ffffffff0804ffff001d025d07ffffffff0100f2052a01000000434104463dea4aa692532a39e1fcfc578927a665998a43fd294046f14f6d74d929ebdaa303e421ffbfd62d986268bcd06d8f1bfa52bed8cea703fe8212b6ca00b198efac00000000"
    }
  ]
}