{
  "hash": "00000000bab04bff69b3da55677057033dc24032a154e3062ff626deeac5901d",
  "confirmations": 46904,
  "height": 6194,
  "version": 1,
  "versionHex": "00000001",
  "merkleroot": "4be41f092559cf5f5f1894332725d7a6c1a246169cb8ec00f0146f72bb97cef7",
  "time": 1236085253,
  "mediantime": 1236083460,
  "nonce": 86457552,
  "bits": "1d00ffff",
  "difficulty": 1,
  "chainwork": "0000000000000000000000000000000000000000000000000000183318331833",
  "nTx": 1,
  "previousblockhash": "0000000008abaf6438eae0774ddfa647c468be573bc29b15cc246e7dc0f98f71",
  "nextblockhash": "00000000ef0252b53d373088b548ac267b1e2c7c2332a0e058bd0158a06310cc",
  "strippedsize": 215,
  "size": 215,
  "weight": 860,
  "tx": [
    {
      "txid": "4be41f092559cf5f5f1894332725d7a6c1a246169cb8ec00f0146f72bb97cef7",
      "hash": "4be41f092559cf5f5f1894332725d7a6c1a246169cb8ec00f0146f72bb97cef7",
      "version": 1,
      "size": 134,
      "vsize": 134,
      "weight": 536,
      "locktime": 0,
      "vin": [
        {
          "coinbase": "04ffff001d0170",
          "sequence": 4294967295
        }
      ],
      "vout": [
        {
          "value": 50.0,
          "n": 0,
          "scriptPubKey": {
            "asm": "04e74cfdc38b6421ce7e7d551d5bed955d183ec167d2629bfb7cee2d9626f87118c7d3c6daf3e64162fc6dbe37015ef82cccc376a5a5264c4e95f6be06402aafbc OP_CHECKSIG",
            "desc": "pk(04e74cfdc38b6421ce7e7d551d5bed955d183ec167d2629bfb7cee2d9626f87118c7d3c6daf3e64162fc6dbe37015ef82cccc376a5a5264c4e95f6be06402aafbc)#c7ne7zd2",
            "hex": "4104e74cfdc38b6421ce7e7d551d5bed955d183ec167d2629bfb7cee2d9626f87118c7d3c6daf3e64162fc6dbe37015ef82cccc376a5a5264c4e95f6be06402aafbcac",
            "type": "pubkey"
          }
        }
      ],
      "hex": "01000000010000000000000000000000000000000000000000000000000000000000000000ffffffff0704ffff001d0170ffffffff0100f2052a01000000434104e74cfdc38b6421ce7e7d551d5bed955d183ec167d2629bfb7cee2d9626f87118c7d3c6daf3e64162fc6dbe37015ef82cccc376a5a5264c4e95f6be06402aafbcac00000000"
    }
  ]
}