{
  "hash": "0000000088ed35839dd1bacc958bf26f019a96fbebb0ce838793643632c7cafa",
  "confirmations": 45054,
  "height": 8044,
  "version": 1,
  "versionHex": "00000001",
  "merkleroot": "00ffb589c9bb762a4737c4cafef9157f514d91bbc334e82887f0c14a31b3fb93",
  "time": 1237492008,
  "mediantime": 1237490056,
  "nonce": 746100021,
  "bits": "1d00ffff",
  "difficulty": 1,
  "chainwork": "00000000000000000000000000000000000000000000000000001f6d1f6d1f6d",
  "nTx": 1,
  "previousblockhash": "00000000dd34882aa41218fc886e50e48a06081a1627f28e4da45c4d554dfce6",
  "nextblockhash": "0000000023311cd98613c2cbb881308d8aef4cb7db953ec576f77db3bab87562",
  "strippedsize": 216,
  "size": 216,
  "weight": 864,
  "tx": [
    {
      "txid": "00ffb589c9bb762a4737c4cafef9157f514d91bbc334e82887f0c14a31b3fb93",
      "hash": "00ffb589c9bb762a4737c4cafef9157f514d91bbc334e82887f0c14a31b3fb93",
      "version": 1,
      "size": 135,
      "vsize": 135,
      "weight": 540,
      "locktime": 0,
      "vin": [
        {
          "coinbase": "04ffff001d02360a",
          "sequence": 4294967295
        }
      ],
      "vout": [
        {
          "value": 50.0,
          "n": 0,
          "scriptPubKey": {
            "asm": "046b8d20aac4321b1b1b6c4090f1c0601e1e8822744962491b05e77d098017e7b2997de9f0d405e9684dfa181453947953d881c399c1f6fcb3296f3e3e6df6ab4c OP_CHECKSIG",
            "desc": "pk(046b8d20aac4321b1b1b6c4090f1c0601e1e8822744962491b05e77d098017e7b2997de9f0d405e9684dfa181453947953d881c399c1f6fcb3296f3e3e6df6ab4c)#kueca7ls",
            "hex": "41046b8d20aac4321b1b1b6c4090f1c0601e1e8822744962491b05e77d098017e7b2997de9f0d405e9684dfa181453947953d881c399c1f6fcb3296f3e3e6df6ab4cac",
            "type": "pubkey"
          }
        }
      ],
      "hex": "01000000010000000000000000000000000000000000000000000000000000000000000000ffffffff0804ffff001d02360affffffff0100f2052a010000004341046b8d20aac4321b1b1b6c4090f1c0601e1e8822744962491b05e77d098017e7b2997de9f0d405e9684dfa181453947953d881c399c1f6fcb3296f3e3e6df6ab4cac00000000"
    }
  ]
}