{
  "hash": "000000003090d3be5efc43312aec52b7bfedde1e8ddecbf63401acb1880b15a6",
  "confirmations": 44381,
  "height": 8717,
  "version": 1,
  "versionHex": "00000001",
  "merkleroot": "92e10c411c4420d6076273d9301c5d032ccfd29e778b45dc5047d1077630d039",
  "time": 1238034519,
  "mediantime": 1238031712,
  "nonce": 129404825,
  "bits": "1d00ffff",
  "difficulty": 1,
  "chainwork": "0000000000000000000000000000000000000000000000000000220e220e220e",
  "nTx": 1,
  "previousblockhash": "000000001a9ab00a7f9ad92dd5a55a6c1e63fcdf4f39f96cb2d119901bf3a1dd",
  "nextblockhash": "0000000051a2782b66fbe81a277caf2e8ce01f784a76d4971b25490464203371",
  "strippedsize": 216,
  "size": 216,
  "weight": 864,
  "tx": [
    {
      "txid": "92e10c411c4420d6076273d9301c5d032ccfd29e778b45dc5047d1077630d039",
      "hash": "92e10c411c4420d6076273d9301c5d032ccfd29e778b45dc5047d1077630d039",
      "version": 1,
      "size": 135,
      "vsize": 135,
      "weight": 540,
      "locktime": 0,
      "vin": [
        {
          "coinbase": "04ffff001d021104",
          "sequence": 4294967295
        }
      ],
      "vout": [
        {
          "value": 50.0,
          "n": 0,
          "scriptPubKey": {
            "asm": "04a9046e0a4336972c60665aa24c49c08788c1b75108a455e75839a8a320804fe6511668e7ecc854a4e43f3c91404613e3b544568486a194f236ec3394217418a9 OP_CHECKSIG",
            "desc": "pk(04a9046e0a4336972c60665aa24c49c08788c1b75108a455e75839a8a320804fe6511668e7ecc854a4e43f3c91404613e3b544568486a194f236ec3394217418a9)#07df6xz9",
            "hex": "4104a9046e0a4336972c60665aa24c49c08788c1b75108a455e75839a8a320804fe6511668e7ecc854a4e43f3c91404613e3b544568486a194f236ec3394217418a9ac",
            "type": "pubkey"
          }
        }
      ],
      "hex": "01000000010000000000000000000000000000000000000000000000000000000000000000ffffffff0804ffff001d021104ffffffff0100f2052a01000000434104a9046e0a4336972c60665aa24c49c08788c1b75108a455e75839a8a320804fe6511668e7ecc854a4e43f3c91404613e3b544568486a194f236ec3394217418a9ac00000000"
    }
  ]
}