{
  "hash": "00000000e7015c74b2924ff0c3db2f481da87a3c59eba10149b0361e2cd26c3b",
  "confirmations": 43794,
  "height": 9304,
  "version": 1,
  "versionHex": "00000001",
  "merkleroot": "9b9713be7b531b0867799cbcc907b0881834b747aa778dd5051079f6cfa7d4fb",
  "time": 1238477647,
  "mediantime": 1238474508,
  "nonce": 1624489273,
  "bits": "1d00ffff",
  "difficulty": 1,
  "chainwork": "0000000000000000000000000000000000000000000000000000245924592459",
  "nTx": 1,
  "previousblockhash": "00000000fddeabfbf4c7a0b26053c0a7829e71e84c1d3949e0f34ee5a60592aa",
  "nextblockhash": "00000000a477aa0599bd9d42573bf8e2f0d4c737d06b95e1ee05fd3cade510ff",
  "strippedsize": 216,
  "size": 216,
  "weight": 864,
  "tx": [
    {
      "txid": "9b9713be7b531b0867799cbcc907b0881834b747aa778dd5051079f6cfa7d4fb",
      "hash": "9b9713be7b531b0867799cbcc907b0881834b747aa778dd5051079f6cfa7d4fb",
      "version": 1,
      "size": 135,
      "vsize": 135,
      "weight": 540,
      "locktime": 0,
      "vin": [
        {
          "coinbase": "04ffff001d02ce01",
          "sequence": 4294967295
        }
      ],
      "vout": [
        {
          "value": 50.0,
          "n": 0,
          "scriptPubKey": {
            "asm": "04b1dc604af7cfa740777359f57012c1762694503c52d7e1cb6048168009888cf6c1d98c39d7318e9a4f051976105a2754e624af1868d77ffc12b38d41b9b8282e OP_CHECKSIG",
            "desc": "pk(04b1dc604af7cfa740777359f57012c1762694503c52d7e1cb6048168009888cf6c1d98c39d7318e9a4f051976105a2754e624af1868d77ffc12b38d41b9b8282e)#26tgt8cd",
            "hex": "4104b1dc604af7cfa740777359f57012c1762694503c52d7e1cb6048168009888cf6c1d98c39d7318e9a4f051976105a2754e624af1868d77ffc12b38d41b9b8282eac",
            "type": "pubkey"
          }
        }
      ],
      "hex": "01000000010000000000000000000000000000000000000000000000000000000000000000ffffffff0804ffff001d02ce01ffffffff0100f2052a01000000434104b1dc604af7cfa740777359f57012c1762694503c52d7e1cb6048168009888cf6c1d98c39d7318e9a4f051976105a2754e624af1868d77ffc12b38d41b9b8282eac00000000"
    }
  ]
}