{
  "hash": "00000000feda20cb72d180aca36f84ca83fe457cec92609f8b49e490854edf5b",
  "confirmations": 49465,
  "height": 3633,
  "version": 1,
  "versionHex": "00000001",
  "merkleroot": "d4bf04ac043830e32fc33fbad74077b07c541a7f2c7573b9f91abef559b7ac55",
  "time": 1234192747,
  "mediantime": 1234189903,
  "nonce": 123151344,
  "bits": "1d00ffff",
  "difficulty": 1,
  "chainwork": "00000000000000000000000000000000000000000000000000000e320e320e32",
  "nTx": 1,
  "previousblockhash": "00000000d59f27729332440c835726320bfef8d414e570c6172f8de528717a45",
  "nextblockhash": "00000000b492190b7fbb1cc199f58480d0ca057a2638820cd63bd4d4532e2ff6",
  "strippedsize": 215,
  "size": 215,
  "weight": 860,
  "tx": [
    {
      "txid": "d4bf04ac043830e32fc33fbad74077b07c541a7f2c7573b9f91abef559b7ac55",
      "hash": "d4bf04ac043830e32fc33fbad74077b07c541a7f2c7573b9f91abef559b7ac55",
      "version": 1,
      "size": 134,
      "vsize": 134,
      "weight": 536,
      "locktime": 0,
      "vin": [
        {
          "coinbase": "04ffff001d0113",
          "sequence": 4294967295
        }
      ],
      "vout": [
        {
          "value": 50.0,
          "n": 0,
          "scriptPubKey": {
            "asm": "048fe28403e20250d2611a9489563712acc1f9d0139bb2975ec2163f7a018b6d4648bf6d4afd97eb267823897313d3343c416be1a95a700e6bf4da97f0e2b100eb OP_CHECKSIG",
            "desc": "pk(048fe28403e20250d2611a9489563712acc1f9d0139bb2975ec2163f7a018b6d4648bf6d4afd97eb267823897313d3343c416be1a95a700e6bf4da97f0e2b100eb)#f6dxhwvs",
            "hex": "41048fe28403e20250d2611a9489563712acc1f9d0139bb2975ec2163f7a018b6d4648bf6d4afd97eb267823897313d3343c416be1a95a700e6bf4da97f0e2b100ebac",
            "type": "pubkey"
          }
        }
      ],
      "hex": "01000000010000000000000000000000000000000000000000000000000000000000000000ffffffff0704ffff001d0113ffffffff0100f2052a010000004341048fe28403e20250d2611a9489563712acc1f9d0139bb2975ec2163f7a018b6d4648bf6d4afd97eb267823897313d3343c416be1a95a700e6bf4da97f0e2b100ebac00000000"
    }
  ]
}