{
  "hash": "00000000074e3037bb19046e7afc5f88418e6d188477615dbce76877b2e639b8",
  "confirmations": 47117,
  "height": 5981,
  "version": 1,
  "versionHex": "00000001",
  "merkleroot": "afdb8cb12545e3c2e87ca82629c138e1aaa998548a32d4297e7e8998a9744c88",
  "time": 1235912536,
  "mediantime": 1235908681,
  "nonce": 1279841832,
  "bits": "1d00ffff",
  "difficulty": 1,
  "chainwork": "0000000000000000000000000000000000000000000000000000175e175e175e",
  "nTx": 1,
  "previousblockhash": "000000005795a59fb1b1ec304af65a747a73bcd66c6200286392e8c47375a924",
  "nextblockhash": "0000000030758b5a93041fdfcae3c10de124013f0a6133bf2efd61872eaf622b",
  "strippedsize": 216,
  "size": 216,
  "weight": 864,
  "tx": [
    {
      "txid": "afdb8cb12545e3c2e87ca82629c138e1aaa998548a32d4297e7e8998a9744c88",
      "hash": "afdb8cb12545e3c2e87ca82629c138e1aaa998548a32d4297e7e8998a9744c88",
      "version": 1,
      "size": 135,
      "vsize": 135,
      "weight": 540,
      "locktime": 0,
      "vin": [
        {
          "coinbase": "04ffff001d029604",
          "sequence": 4294967295
        }
      ],
      "vout": [
        {
          "value": 50.0,
          "n": 0,
          "scriptPubKey": {
            "asm": "0486b72ca57e312b80f56b8860c5051e9e3b1bcf035248434eab579f55ff38166e92dca23474456fea05d1e2fbdeb992c4d603bf501983ee3e514349ccb36a5a8e OP_CHECKSIG",
            "desc": "pk(0486b72ca57e312b80f56b8860c5051e9e3b1bcf035248434eab579f55ff38166e92dca23474456fea05d1e2fbdeb992c4d603bf501983ee3e514349ccb36a5a8e)#2g29r8n7",
            "hex": "410486b72ca57e312b80f56b8860c5051e9e3b1bcf035248434eab579f55ff38166e92dca23474456fea05d1e2fbdeb992c4d603bf501983ee3e514349ccb36a5a8eac",
            "type": "pubkey"
          }
        }
      ],
      "hex": "01000000010000000000000000000000000000000000000000000000000000000000000000ffffffff0804ffff001d029604ffffffff0100f2052a0100000043410486b72ca57e312b80f56b8860c5051e9e3b1bcf035248434eab579f55ff38166e92dca23474456fea05d1e2fbdeb992c4d603bf501983ee3e514349ccb36a5a8eac00000000"
    }
  ]
}