{
  "hash": "00000000d5092034c3a92473d42f28e3fd279f0652e2d5b0049c7d40fcbc990b",
  "confirmations": 50998,
  "height": 2100,
  "version": 1,
  "versionHex": "00000001",
  "merkleroot": "a643148bf1de45907e96ed3e754529ed1559f226bd38c5524b772ca47623acfd",
  "time": 1233136967,
  "mediantime": 1233133818,
  "nonce": 81260023,
  "bits": "1d00ffff",
  "difficulty": 1,
  "chainwork": "0000000000000000000000000000000000000000000000000000083508350835",
  "nTx": 1,
  "previousblockhash": "00000000a993926b3a5445a43a8cf541590a95295c62a59aaca09f3f1c802c72",
  "nextblockhash": "00000000d8982f243bdc42ea9b6dd9961f98d99db54decdc6affdfdfd7205eaf",
  "strippedsize": 215,
  "size": 215,
  "weight": 860,
  "tx": [
    {
      "txid": "a643148bf1de45907e96ed3e754529ed1559f226bd38c5524b772ca47623acfd",
      "hash": "a643148bf1de45907e96ed3e754529ed1559f226bd38c5524b772ca47623acfd",
      "version": 1,
      "size": 134,
      "vsize": 134,
      "weight": 536,
      "locktime": 0,
      "vin": [
        {
          "coinbase": "04ffff001d0116",
          "sequence": 4294967295
        }
      ],
      "vout": [
        {
          "value": 50.0,
          "n": 0,
          "scriptPubKey": {
            "asm": "04d54510d1dd3e2fbbbcf4081fbe5938778915e52df5a64b2feae202eac6e08ffd126b22e5e2b3faecce999f72615d49269123344f2f6e5f3823cfdd8b20846207 OP_CHECKSIG",
            "desc": "pk(04d54510d1dd3e2fbbbcf4081fbe5938778915e52df5a64b2feae202eac6e08ffd126b22e5e2b3faecce999f72615d49269123344f2f6e5f3823cfdd8b20846207)#2h0j58hw",
            "hex": "4104d54510d1dd3e2fbbbcf4081fbe5938778915e52df5a64b2feae202eac6e08ffd126b22e5e2b3faecce999f72615d49269123344f2f6e5f3823cfdd8b20846207ac",
            "type": "pubkey"
          }
        }
      ],
      "hex": "01000000010000000000000000000000000000000000000000000000000000000000000000ffffffff0704ffff001d0116ffffffff0100f2052a01000000434104d54510d1dd3e2fbbbcf4081fbe5938778915e52df5a64b2feae202eac6e08ffd126b22e5e2b3faecce999f72615d49269123344f2f6e5f3823cfdd8b20846207ac00000000"
    }
  ]
}