{
  "hash": "0000000084fca9b87cf6c0d8c1c4548cb0defc9a07816de6ec70dfb96a45cbb6",
  "confirmations": 45507,
  "height": 7591,
  "version": 1,
  "versionHex": "00000001",
  "merkleroot": "991a96316bd7e6f6f66f0fdb1f7bca198936db39b948c0466adafc54e4ee33c3",
  "time": 1237161358,
  "mediantime": 1237157579,
  "nonce": 1707897909,
  "bits": "1d00ffff",
  "difficulty": 1,
  "chainwork": "00000000000000000000000000000000000000000000000000001da81da81da8",
  "nTx": 1,
  "previousblockhash": "000000009ccaf48cf9c84d205cb320718a8b7f44a80e75fbf28d66d04283624b",
  "nextblockhash": "00000000fb4304df797fb08783b14a9d138f486ca9b69ea1917d7a4e70af833e",
  "strippedsize": 216,
  "size": 216,
  "weight": 864,
  "tx": [
    {
      "txid": "991a96316bd7e6f6f66f0fdb1f7bca198936db39b948c0466adafc54e4ee33c3",
      "hash": "991a96316bd7e6f6f66f0fdb1f7bca198936db39b948c0466adafc54e4ee33c3",
      "version": 1,
      "size": 135,
      "vsize": 135,
      "weight": 540,
      "locktime": 0,
      "vin": [
        {
          "coinbase": "04ffff001d027202",
          "sequence": 4294967295
        }
      ],
      "vout": [
        {
          "value": 50.0,
          "n": 0,
          "scriptPubKey": {
            "asm": "040ef514b4328e5c2dfe1541b802d1d4ca70c4cef64f1aab9577c1144a50af271fbde89e2688c1ddd713c4a26d9037f3339d58ae00b231fdc3f2583b9de7f14964 OP_CHECKSIG",
            "desc": "pk(040ef514b4328e5c2dfe1541b802d1d4ca70c4cef64f1aab9577c1144a50af271fbde89e2688c1ddd713c4a26d9037f3339d58ae00b231fdc3f2583b9de7f14964)#th2jcufm",
            "hex": "41040ef514b4328e5c2dfe1541b802d1d4ca70c4cef64f1aab9577c1144a50af271fbde89e2688c1ddd713c4a26d9037f3339d58ae00b231fdc3f2583b9de7f14964ac",
            "type": "pubkey"
          }
        }
      ],
      "hex": "01000000010000000000000000000000000000000000000000000000000000000000000000ffffffff0804ffff001d027202ffffffff0100f2052a010000004341040ef514b4328e5c2dfe1541b802d1d4ca70c4cef64f1aab9577c1144a50af271fbde89e2688c1ddd713c4a26d9037f3339d58ae00b231fdc3f2583b9de7f14964ac00000000"
    }
  ]
}