{
  "hash": "00000000e46010d660e4bd1b5f4696bf5ceb2763aad2809fd22169e582ff1bb2",
  "confirmations": 44582,
  "height": 8516,
  "version": 1,
  "versionHex": "00000001",
  "merkleroot": "446f44bc5fcb2ca9b04f209a3887fc293eafd93c3543a7a7c58b3d1cd3487f0f",
  "time": 1237883742,
  "mediantime": 1237880589,
  "nonce": 2382393622,
  "bits": "1d00ffff",
  "difficulty": 1,
  "chainwork": "0000000000000000000000000000000000000000000000000000214521452145",
  "nTx": 1,
  "previousblockhash": "00000000b604b1bc6231df6af11c3c278495cf1931ede42ba4b8c6e27672a58d",
  "nextblockhash": "0000000075a8cbe4025124942a0b1303bca931025fb733fa7f6203506afcd81f",
  "strippedsize": 216,
  "size": 216,
  "weight": 864,
  "tx": [
    {
      "txid": "446f44bc5fcb2ca9b04f209a3887fc293eafd93c3543a7a7c58b3d1cd3487f0f",
      "hash": "446f44bc5fcb2ca9b04f209a3887fc293eafd93c3543a7a7c58b3d1cd3487f0f",
      "version": 1,
      "size": 135,
      "vsize": 135,
      "weight": 540,
      "locktime": 0,
      "vin": [
        {
          "coinbase": "04ffff001d02fc07",
          "sequence": 4294967295
        }
      ],
      "vout": [
        {
          "value": 50.0,
          "n": 0,
          "scriptPubKey": {
            "asm": "041a6c6cdc55fd2cc4114c34b5f86699ee54ac2bcc84360866f34c819046a1a5be0480d3260c7ed649633c2793dff402342745835a25d18c44861aed1fd3ccad13 OP_CHECKSIG",
            "desc": "pk(041a6c6cdc55fd2cc4114c34b5f86699ee54ac2bcc84360866f34c819046a1a5be0480d3260c7ed649633c2793dff402342745835a25d18c44861aed1fd3ccad13)#f0lrp0ed",
            "hex": "41041a6c6cdc55fd2cc4114c34b5f86699ee54ac2bcc84360866f34c819046a1a5be0480d3260c7ed649633c2793dff402342745835a25d18c44861aed1fd3ccad13ac",
            "type": "pubkey"
          }
        }
      ],
      "hex": "01000000010000000000000000000000000000000000000000000000000000000000000000ffffffff0804ffff001d02fc07ffffffff0100f2052a010000004341041a6c6cdc55fd2cc4114c34b5f86699ee54ac2bcc84360866f34c819046a1a5be0480d3260c7ed649633c2793dff402342745835a25d18c44861aed1fd3ccad13ac00000000"
    }
  ]
}