{
  "hash": "0000000005ccdc54b0ef0e52a8062fe80420e936b9603d67f6ea6a2af7cd8be5",
  "confirmations": 48329,
  "height": 4769,
  "version": 1,
  "versionHex": "00000001",
  "merkleroot": "0a8fc0f2c28f86e301e792f32fe48fd1d98b1801f573da629f7f90741ef5fdcd",
  "time": 1234975412,
  "mediantime": 1234972599,
  "nonce": 1916242693,
  "bits": "1d00ffff",
  "difficulty": 1,
  "chainwork": "000000000000000000000000000000000000000000000000000012a212a212a2",
  "nTx": 1,
  "previousblockhash": "00000000cdd7fcabf8a63ede42c8b9f6787bfb7612984f08b89a61a1e9944e09",
  "nextblockhash": "00000000b05b5db5f71378da335bb345f8f96bdfb9ad85bd8b2509db8fd7fa80",
  "strippedsize": 216,
  "size": 216,
  "weight": 864,
  "tx": [
    {
      "txid": "0a8fc0f2c28f86e301e792f32fe48fd1d98b1801f573da629f7f90741ef5fdcd",
      "hash": "0a8fc0f2c28f86e301e792f32fe48fd1d98b1801f573da629f7f90741ef5fdcd",
      "version": 1,
      "size": 135,
      "vsize": 135,
      "weight": 540,
      "locktime": 0,
      "vin": [
        {
          "coinbase": "04ffff001d028803",
          "sequence": 4294967295
        }
      ],
      "vout": [
        {
          "value": 50.0,
          "n": 0,
          "scriptPubKey": {
            "asm": "0426d761876a407b62c8114b70f4e407c207631ccb32a3116c57760cbd26336b049bc3a7b330ec5be1e2b8de10430562961596b6d39c541e0c811a2c0e1b0b0c15 OP_CHECKSIG",
            "desc": "pk(0426d761876a407b62c8114b70f4e407c207631ccb32a3116c57760cbd26336b049bc3a7b330ec5be1e2b8de10430562961596b6d39c541e0c811a2c0e1b0b0c15)#vhjw77kd",
            "hex": "410426d761876a407b62c8114b70f4e407c207631ccb32a3116c57760cbd26336b049bc3a7b330ec5be1e2b8de10430562961596b6d39c541e0c811a2c0e1b0b0c15ac",
            "type": "pubkey"
          }
        }
      ],
      "hex": "01000000010000000000000000000000000000000000000000000000000000000000000000ffffffff0804ffff001d028803ffffffff0100f2052a0100000043410426d761876a407b62c8114b70f4e407c207631ccb32a3116c57760cbd26336b049bc3a7b330ec5be1e2b8de10430562961596b6d39c541e0c811a2c0e1b0b0c15ac00000000"
    }
  ]
}