{
  "hash": "00000000349816587f5e5a9095174256b53c5f457222e3ef5362db55ab026620",
  "confirmations": 52354,
  "height": 744,
  "version": 1,
  "versionHex": "00000001",
  "merkleroot": "47e3078794901a499c4416873ad37cd47acbbf7b36bfeb2a8b469ced0e2d40a9",
  "time": 1232146460,
  "mediantime": 1232141054,
  "nonce": 1030783801,
  "bits": "1d00ffff",
  "difficulty": 1,
  "chainwork": "000000000000000000000000000000000000000000000000000002e902e902e9",
  "nTx": 1,
  "previousblockhash": "00000000731219aec041addd2c99cea903071350b0944fc2988bbec86877abaa",
  "nextblockhash": "00000000bb31c71c439638b4a79f4bd26bc4b3b64dd96bd104494a5c165a3aff",
  "strippedsize": 216,
  "size": 216,
  "weight": 864,
  "tx": [
    {
      "txid": "47e3078794901a499c4416873ad37cd47acbbf7b36bfeb2a8b469ced0e2d40a9",
      "hash": "47e3078794901a499c4416873ad37cd47acbbf7b36bfeb2a8b469ced0e2d40a9",
      "version": 1,
      "size": 135,
      "vsize": 135,
      "weight": 540,
      "locktime": 0,
      "vin": [
        {
          "coinbase": "04ffff001d028c00",
          "sequence": 4294967295
        }
      ],
      "vout": [
        {
          "value": 50.0,
          "n": 0,
          "scriptPubKey": {
            "asm": "045060343293c7e34cd314160e596d584e9ac929ad92933036f4ba82a6d3abf8c1b1b8fb0e863d29aa3c6f50991a202d72a8ed0260ba5ce627dbb5044a218cc77c OP_CHECKSIG",
            "desc": "pk(045060343293c7e34cd314160e596d584e9ac929ad92933036f4ba82a6d3abf8c1b1b8fb0e863d29aa3c6f50991a202d72a8ed0260ba5ce627dbb5044a218cc77c)#7m205rgd",
            "hex": "41045060343293c7e34cd314160e596d584e9ac929ad92933036f4ba82a6d3abf8c1b1b8fb0e863d29aa3c6f50991a202d72a8ed0260ba5ce627dbb5044a218cc77cac",
            "type": "pubkey"
          }
        }
      ],
      "hex": "01000000010000000000000000000000000000000000000000000000000000000000000000ffffffff0804ffff001d028c00ffffffff0100f2052a010000004341045060343293c7e34cd314160e596d584e9ac929ad92933036f4ba82a6d3abf8c1b1b8fb0e863d29aa3c6f50991a202d72a8ed0260ba5ce627dbb5044a218cc77cac00000000"
    }
  ]
}