{
  "hash": "00000000946f4004e9a9604e72fdcf606f8d01cda4d73f0b51798cf2b454b243",
  "confirmations": 47071,
  "height": 6027,
  "version": 1,
  "versionHex": "00000001",
  "merkleroot": "c0bd6863556ab17fb0167cde6fe013b557b149f701c76666f99759aeba9e9867",
  "time": 1235950787,
  "mediantime": 1235945882,
  "nonce": 49510774,
  "bits": "1d00ffff",
  "difficulty": 1,
  "chainwork": "0000000000000000000000000000000000000000000000000000178c178c178c",
  "nTx": 1,
  "previousblockhash": "00000000d3dc73a054e18dcba96273a2a8017ffb6533d09cd0c1db1df8756d73",
  "nextblockhash": "000000009ff5f378dcb19ac91210dd90a80228d5446ba9fc66d56112694c28e0",
  "strippedsize": 215,
  "size": 215,
  "weight": 860,
  "tx": [
    {
      "txid": "c0bd6863556ab17fb0167cde6fe013b557b149f701c76666f99759aeba9e9867",
      "hash": "c0bd6863556ab17fb0167cde6fe013b557b149f701c76666f99759aeba9e9867",
      "version": 1,
      "size": 134,
      "vsize": 134,
      "weight": 536,
      "locktime": 0,
      "vin": [
        {
          "coinbase": "04ffff001d0141",
          "sequence": 4294967295
        }
      ],
      "vout": [
        {
          "value": 50.0,
          "n": 0,
          "scriptPubKey": {
            "asm": "042f603608b32b3e6a78e8c113402e5a19fa3e7c76a4cf6bc2a64e1a8b64ef044ac7e21515fb744b5a00a30e4c50d36997481225a812c10dae5a9b16d0ee9627b0 OP_CHECKSIG",
            "desc": "pk(042f603608b32b3e6a78e8c113402e5a19fa3e7c76a4cf6bc2a64e1a8b64ef044ac7e21515fb744b5a00a30e4c50d36997481225a812c10dae5a9b16d0ee9627b0)#7jhzgln0",
            "hex": "41042f603608b32b3e6a78e8c113402e5a19fa3e7c76a4cf6bc2a64e1a8b64ef044ac7e21515fb744b5a00a30e4c50d36997481225a812c10dae5a9b16d0ee9627b0ac",
            "type": "pubkey"
          }
        }
      ],
      "hex": "01000000010000000000000000000000000000000000000000000000000000000000000000ffffffff0704ffff001d0141ffffffff0100f2052a010000004341042f603608b32b3e6a78e8c113402e5a19fa3e7c76a4cf6bc2a64e1a8b64ef044ac7e21515fb744b5a00a30e4c50d36997481225a812c10dae5a9b16d0ee9627b0ac00000000"
    }
  ]
}