{
  "hash": "000000003c0189a438845b13551ce64dbf5840c9375495ef0fdad0503de4feac",
  "confirmations": 50095,
  "height": 3003,
  "version": 1,
  "versionHex": "00000001",
  "merkleroot": "ced72a764a4b55f2d9c59f971eb27b48e6e52b8d8b518f1fd754ec02759af562",
  "time": 1233764480,
  "mediantime": 1233759601,
  "nonce": 59976237,
  "bits": "1d00ffff",
  "difficulty": 1,
  "chainwork": "00000000000000000000000000000000000000000000000000000bbc0bbc0bbc",
  "nTx": 1,
  "previousblockhash": "00000000b81b771a8a7bb38f8ff734c947c687d8825c26a64141227cf11c7f6c",
  "nextblockhash": "00000000a057b385ed2d1d7c18715f4d7de083c5ba9f822e494712f0f3e95451",
  "strippedsize": 216,
  "size": 216,
  "weight": 864,
  "tx": [
    {
      "txid": "ced72a764a4b55f2d9c59f971eb27b48e6e52b8d8b518f1fd754ec02759af562",
      "hash": "ced72a764a4b55f2d9c59f971eb27b48e6e52b8d8b518f1fd754ec02759af562",
      "version": 1,
      "size": 135,
      "vsize": 135,
      "weight": 540,
      "locktime": 0,
      "vin": [
        {
          "coinbase": "04ffff001d027701",
          "sequence": 4294967295
        }
      ],
      "vout": [
        {
          "value": 50.0,
          "n": 0,
          "scriptPubKey": {
            "asm": "040c9810fd4e1cb849de612ab2352a7c8450faea9b5cd25df5b3477c5c7018f531f4209458b1bd4124c3359962ca0c4b8aa45664b54ec703993fd9f24669ff19c5 OP_CHECKSIG",
            "desc": "pk(040c9810fd4e1cb849de612ab2352a7c8450faea9b5cd25df5b3477c5c7018f531f4209458b1bd4124c3359962ca0c4b8aa45664b54ec703993fd9f24669ff19c5)#tzm984py",
            "hex": "41040c9810fd4e1cb849de612ab2352a7c8450faea9b5cd25df5b3477c5c7018f531f4209458b1bd4124c3359962ca0c4b8aa45664b54ec703993fd9f24669ff19c5ac",
            "type": "pubkey"
          }
        }
      ],
      "hex": "01000000010000000000000000000000000000000000000000000000000000000000000000ffffffff0804ffff001d027701ffffffff0100f2052a010000004341040c9810fd4e1cb849de612ab2352a7c8450faea9b5cd25df5b3477c5c7018f531f4209458b1bd4124c3359962ca0c4b8aa45664b54ec703993fd9f24669ff19c5ac00000000"
    }
  ]
}