{
  "hash": "000000000ad51181e1fa8dd01d00ef0f63a0df05fc9f2aa82ed30debeff3e4af",
  "confirmations": 51574,
  "height": 1524,
  "version": 1,
  "versionHex": "00000001",
  "merkleroot": "682a84730f650f760bd0be48187f70d65e9c89a371f83cc0b83d95d8c18beb75",
  "time": 1232777194,
  "mediantime": 1232775905,
  "nonce": 4072546343,
  "bits": "1d00ffff",
  "difficulty": 1,
  "chainwork": "000000000000000000000000000000000000000000000000000005f505f505f5",
  "nTx": 1,
  "previousblockhash": "0000000069101f877f3f3aa014a4b7fa0ce8c80abac7d029fbf34dfa461c66bd",
  "nextblockhash": "00000000726f1bbc7bc627d67432541f413121e3dcf7fd8faaeb55ba1e778fe9",
  "strippedsize": 216,
  "size": 216,
  "weight": 864,
  "tx": [
    {
      "txid": "682a84730f650f760bd0be48187f70d65e9c89a371f83cc0b83d95d8c18beb75",
      "hash": "682a84730f650f760bd0be48187f70d65e9c89a371f83cc0b83d95d8c18beb75",
      "version": 1,
      "size": 135,
      "vsize": 135,
      "weight": 540,
      "locktime": 0,
      "vin": [
        {
          "coinbase": "04ffff001d025201",
          "sequence": 4294967295
        }
      ],
      "vout": [
        {
          "value": 50.0,
          "n": 0,
          "scriptPubKey": {
            "asm": "04e4175a1ed8c9391ff3b137a98060507a0b8a3fc7f9260307ec8945eb257423b2e420aa4ed613fe71d17a4ae247477b4ab3e55cb41865fe5484e720fb39d739c8 OP_CHECKSIG",
            "desc": "pk(04e4175a1ed8c9391ff3b137a98060507a0b8a3fc7f9260307ec8945eb257423b2e420aa4ed613fe71d17a4ae247477b4ab3e55cb41865fe5484e720fb39d739c8)#vv37xdfk",
            "hex": "4104e4175a1ed8c9391ff3b137a98060507a0b8a3fc7f9260307ec8945eb257423b2e420aa4ed613fe71d17a4ae247477b4ab3e55cb41865fe5484e720fb39d739c8ac",
            "type": "pubkey"
          }
        }
      ],
      "hex": "01000000010000000000000000000000000000000000000000000000000000000000000000ffffffff0804ffff001d025201ffffffff0100f2052a01000000434104e4175a1ed8c9391ff3b137a98060507a0b8a3fc7f9260307ec8945eb257423b2e420aa4ed613fe71d17a4ae247477b4ab3e55cb41865fe5484e720fb39d739c8ac00000000"
    }
  ]
}