{
  "hash": "00000000436e6caeb22a9132729282c21b123311ee09b5f79f1f061325f1776c",
  "confirmations": 43598,
  "height": 9500,
  "version": 1,
  "versionHex": "00000001",
  "merkleroot": "b7f3c9a9537bbe76cf36d690aeb1867d46815ef37236292d6b1d85df7b45c5ec",
  "time": 1238628202,
  "mediantime": 1238624728,
  "nonce": 194414146,
  "bits": "1d00ffff",
  "difficulty": 1,
  "chainwork": "0000000000000000000000000000000000000000000000000000251d251d251d",
  "nTx": 1,
  "previousblockhash": "00000000a54d999e432694f2a5a94a2af153af7647dc830b913d1745a51184b5",
  "nextblockhash": "000000004383fe923306472b416c0c2432523b3f5fbc2ca25def2c7155f9b5bb",
  "strippedsize": 215,
  "size": 215,
  "weight": 860,
  "tx": [
    {
      "txid": "b7f3c9a9537bbe76cf36d690aeb1867d46815ef37236292d6b1d85df7b45c5ec",
      "hash": "b7f3c9a9537bbe76cf36d690aeb1867d46815ef37236292d6b1d85df7b45c5ec",
      "version": 1,
      "size": 134,
      "vsize": 134,
      "weight": 536,
      "locktime": 0,
      "vin": [
        {
          "coinbase": "04ffff001d010f",
          "sequence": 4294967295
        }
      ],
      "vout": [
        {
          "value": 50.0,
          "n": 0,
          "scriptPubKey": {
            "asm": "04a5f2d1c0b3eb7cbe06c27757ee51deafb5a6f9625ede8d263bc485f678e05ea50f74c4ce0540243f92e807f9e3bf911b344d2d0bcefc3f89123748dbb533fdd4 OP_CHECKSIG",
            "desc": "pk(04a5f2d1c0b3eb7cbe06c27757ee51deafb5a6f9625ede8d263bc485f678e05ea50f74c4ce0540243f92e807f9e3bf911b344d2d0bcefc3f89123748dbb533fdd4)#tp736226",
            "hex": "4104a5f2d1c0b3eb7cbe06c27757ee51deafb5a6f9625ede8d263bc485f678e05ea50f74c4ce0540243f92e807f9e3bf911b344d2d0bcefc3f89123748dbb533fdd4ac",
            "type": "pubkey"
          }
        }
      ],
      "hex": "01000000010000000000000000000000000000000000000000000000000000000000000000ffffffff0704ffff001d010fffffffff0100f2052a01000000434104a5f2d1c0b3eb7cbe06c27757ee51deafb5a6f9625ede8d263bc485f678e05ea50f74c4ce0540243f92e807f9e3bf911b344d2d0bcefc3f89123748dbb533fdd4ac00000000"
    }
  ]
}