{
  "hash": "0000000078034ed47d5a35b4614bcf6db923afba4faeca625b2b1adbedc4572a",
  "confirmations": 49974,
  "height": 3124,
  "version": 1,
  "versionHex": "00000001",
  "merkleroot": "316cd2af6d2c0bad93e0b5db224ebc031356f86d31b1ed2204fa65a0880e9180",
  "time": 1233851160,
  "mediantime": 1233848375,
  "nonce": 83125034,
  "bits": "1d00ffff",
  "difficulty": 1,
  "chainwork": "00000000000000000000000000000000000000000000000000000c350c350c35",
  "nTx": 1,
  "previousblockhash": "0000000029a1e642fb3e9952470057572f98bc4fee579fd78aef3e5c01cfce96",
  "nextblockhash": "000000008a127d1dfbab4358ceeb1c2b0a3e6b54b9cc3120b80463975a9a4f3c",
  "strippedsize": 216,
  "size": 216,
  "weight": 864,
  "tx": [
    {
      "txid": "316cd2af6d2c0bad93e0b5db224ebc031356f86d31b1ed2204fa65a0880e9180",
      "hash": "316cd2af6d2c0bad93e0b5db224ebc031356f86d31b1ed2204fa65a0880e9180",
      "version": 1,
      "size": 135,
      "vsize": 135,
      "weight": 540,
      "locktime": 0,
      "vin": [
        {
          "coinbase": "04ffff001d024a02",
          "sequence": 4294967295
        }
      ],
      "vout": [
        {
          "value": 50.0,
          "n": 0,
          "scriptPubKey": {
            "asm": "046751f2442d1f9703d2554ea33a5164f192059753fb5eace9af390929f50a07707b186718d5a5f26c46980517c0b4ad7d81caf4545e720968a2f78ce2ebaafef2 OP_CHECKSIG",
            "desc": "pk(046751f2442d1f9703d2554ea33a5164f192059753fb5eace9af390929f50a07707b186718d5a5f26c46980517c0b4ad7d81caf4545e720968a2f78ce2ebaafef2)#76gspxqe",
            "hex": "41046751f2442d1f9703d2554ea33a5164f192059753fb5eace9af390929f50a07707b186718d5a5f26c46980517c0b4ad7d81caf4545e720968a2f78ce2ebaafef2ac",
            "type": "pubkey"
          }
        }
      ],
      "hex": "01000000010000000000000000000000000000000000000000000000000000000000000000ffffffff0804ffff001d024a02ffffffff0100f2052a010000004341046751f2442d1f9703d2554ea33a5164f192059753fb5eace9af390929f50a07707b186718d5a5f26c46980517c0b4ad7d81caf4545e720968a2f78ce2ebaafef2ac00000000"
    }
  ]
}