{
  "hash": "000000005e75f01fd9f13cc5607476ca4b0caf1bb405cf47ffabf4b97a15680f",
  "confirmations": 46180,
  "height": 6918,
  "version": 1,
  "versionHex": "00000001",
  "merkleroot": "e36f903504daf60e8e8e19c85509788be3a9c07e22b92a4f567c00878506c4de",
  "time": 1236651452,
  "mediantime": 1236648375,
  "nonce": 4017563962,
  "bits": "1d00ffff",
  "difficulty": 1,
  "chainwork": "00000000000000000000000000000000000000000000000000001b071b071b07",
  "nTx": 1,
  "previousblockhash": "00000000de1f65836215d710c7ffb54c3631a2432dc87188191ca73ef7e7dd04",
  "nextblockhash": "000000000e27cea4bd8828046017ef610080cbbd8a570b36be4cfca2636c7437",
  "strippedsize": 216,
  "size": 216,
  "weight": 864,
  "tx": [
    {
      "txid": "e36f903504daf60e8e8e19c85509788be3a9c07e22b92a4f567c00878506c4de",
      "hash": "e36f903504daf60e8e8e19c85509788be3a9c07e22b92a4f567c00878506c4de",
      "version": 1,
      "size": 135,
      "vsize": 135,
      "weight": 540,
      "locktime": 0,
      "vin": [
        {
          "coinbase": "04ffff001d02b400",
          "sequence": 4294967295
        }
      ],
      "vout": [
        {
          "value": 50.0,
          "n": 0,
          "scriptPubKey": {
            "asm": "0479c2bc09f5cb472c7a5ec2a48bb68e2732182c84ae0fbc9ea447f8893ae166d0b6764d585ec210099b5b6b1032f60e6cbd6a7c5a458d5f1ddc1ef7006ebf04b4 OP_CHECKSIG",
            "desc": "pk(0479c2bc09f5cb472c7a5ec2a48bb68e2732182c84ae0fbc9ea447f8893ae166d0b6764d585ec210099b5b6b1032f60e6cbd6a7c5a458d5f1ddc1ef7006ebf04b4)#v5w865fw",
            "hex": "410479c2bc09f5cb472c7a5ec2a48bb68e2732182c84ae0fbc9ea447f8893ae166d0b6764d585ec210099b5b6b1032f60e6cbd6a7c5a458d5f1ddc1ef7006ebf04b4ac",
            "type": "pubkey"
          }
        }
      ],
      "hex": "01000000010000000000000000000000000000000000000000000000000000000000000000ffffffff0804ffff001d02b400ffffffff0100f2052a0100000043410479c2bc09f5cb472c7a5ec2a48bb68e2732182c84ae0fbc9ea447f8893ae166d0b6764d585ec210099b5b6b1032f60e6cbd6a7c5a458d5f1ddc1ef7006ebf04b4ac00000000"
    }
  ]
}