{
  "hash": "000000009b1a5822fee94f2f3dbf32b404169d88d9afb5e9b6735070a3a00d86",
  "confirmations": 52174,
  "height": 924,
  "version": 1,
  "versionHex": "00000001",
  "merkleroot": "62f9935f1317d33df5c864c6587f01d144466bc20c076eb8e4abf9c27387081c",
  "time": 1232294687,
  "mediantime": 1232290924,
  "nonce": 3345673262,
  "bits": "1d00ffff",
  "difficulty": 1,
  "chainwork": "0000000000000000000000000000000000000000000000000000039d039d039d",
  "nTx": 1,
  "previousblockhash": "000000002e8da323ef670b4a8414303080298e3139a8506cc02e3137a5523166",
  "nextblockhash": "000000006eb930c17bd898fa602fe8e76a3084456baffad70199c3997d32ca2e",
  "strippedsize": 216,
  "size": 216,
  "weight": 864,
  "tx": [
    {
      "txid": "62f9935f1317d33df5c864c6587f01d144466bc20c076eb8e4abf9c27387081c",
      "hash": "62f9935f1317d33df5c864c6587f01d144466bc20c076eb8e4abf9c27387081c",
      "version": 1,
      "size": 135,
      "vsize": 135,
      "weight": 540,
      "locktime": 0,
      "vin": [
        {
          "coinbase": "04ffff001d02fc03",
          "sequence": 4294967295
        }
      ],
      "vout": [
        {
          "value": 50.0,
          "n": 0,
          "scriptPubKey": {
            "asm": "049f315c82f7aebecfe8136cf0570c4d55aebaea7b54269292b2010633e16d17fcbf58d8a90561e5e35b636991aa612215e0b0e3c0ba5d77c9cd7fa7b4fbfa2902 OP_CHECKSIG",
            "desc": "pk(049f315c82f7aebecfe8136cf0570c4d55aebaea7b54269292b2010633e16d17fcbf58d8a90561e5e35b636991aa612215e0b0e3c0ba5d77c9cd7fa7b4fbfa2902)#28cnyvs9",
            "hex": "41049f315c82f7aebecfe8136cf0570c4d55aebaea7b54269292b2010633e16d17fcbf58d8a90561e5e35b636991aa612215e0b0e3c0ba5d77c9cd7fa7b4fbfa2902ac",
            "type": "pubkey"
          }
        }
      ],
      "hex": "01000000010000000000000000000000000000000000000000000000000000000000000000ffffffff0804ffff001d02fc03ffffffff0100f2052a010000004341049f315c82f7aebecfe8136cf0570c4d55aebaea7b54269292b2010633e16d17fcbf58d8a90561e5e35b636991aa612215e0b0e3c0ba5d77c9cd7fa7b4fbfa2902ac00000000"
    }
  ]
}