{
  "hash": "000000002da76fb5927a7e9dfe2ad20868164680ae45c8ac9d7a91456979b3da",
  "confirmations": 51281,
  "height": 1817,
  "version": 1,
  "versionHex": "00000001",
  "merkleroot": "aea3c4e3504be0dfed155b2d990f3c4384f64155dfcd0eaf4b363142f9949b4f",
  "time": 1232908333,
  "mediantime": 1232905381,
  "nonce": 3945242920,
  "bits": "1d00ffff",
  "difficulty": 1,
  "chainwork": "0000000000000000000000000000000000000000000000000000071a071a071a",
  "nTx": 1,
  "previousblockhash": "00000000feefa3cf0b442a9be3687761f4b231ea761e009f36650e7873301e78",
  "nextblockhash": "00000000c8d16cecdd439a975b05154b1714a25761c02694855f82c2526d43d9",
  "strippedsize": 216,
  "size": 216,
  "weight": 864,
  "tx": [
    {
      "txid": "aea3c4e3504be0dfed155b2d990f3c4384f64155dfcd0eaf4b363142f9949b4f",
      "hash": "aea3c4e3504be0dfed155b2d990f3c4384f64155dfcd0eaf4b363142f9949b4f",
      "version": 1,
      "size": 135,
      "vsize": 135,
      "weight": 540,
      "locktime": 0,
      "vin": [
        {
          "coinbase": "04ffff001d025804",
          "sequence": 4294967295
        }
      ],
      "vout": [
        {
          "value": 50.0,
          "n": 0,
          "scriptPubKey": {
            "asm": "0434c6ca9d398e3e08724fabbd3394dfeb2822a05cd1f3247ae0d6449632a4046cfdd652609e8caacd4aedaeca4537f40d0b60ff177f6c8be2a0ac5468ec071dd5 OP_CHECKSIG",
            "desc": "pk(0434c6ca9d398e3e08724fabbd3394dfeb2822a05cd1f3247ae0d6449632a4046cfdd652609e8caacd4aedaeca4537f40d0b60ff177f6c8be2a0ac5468ec071dd5)#shek3lcg",
            "hex": "410434c6ca9d398e3e08724fabbd3394dfeb2822a05cd1f3247ae0d6449632a4046cfdd652609e8caacd4aedaeca4537f40d0b60ff177f6c8be2a0ac5468ec071dd5ac",
            "type": "pubkey"
          }
        }
      ],
      "hex": "01000000010000000000000000000000000000000000000000000000000000000000000000ffffffff0804ffff001d025804ffffffff0100f2052a0100000043410434c6ca9d398e3e08724fabbd3394dfeb2822a05cd1f3247ae0d6449632a4046cfdd652609e8caacd4aedaeca4537f40d0b60ff177f6c8be2a0ac5468ec071dd5ac00000000"
    }
  ]
}