{
  "hash": "000000006d5e2deae03b412459e1bd0b5368008b711fb67a0bfc81fe2da4bbb5",
  "confirmations": 48810,
  "height": 4288,
  "version": 1,
  "versionHex": "00000001",
  "merkleroot": "43a8db6fbce5e942e57f8db4f89195ac17884358d60c5a85d88b50cf24adce6c",
  "time": 1234633485,
  "mediantime": 1234630328,
  "nonce": 2749929764,
  "bits": "1d00ffff",
  "difficulty": 1,
  "chainwork": "000000000000000000000000000000000000000000000000000010c110c110c1",
  "nTx": 1,
  "previousblockhash": "00000000525496f3bf5045cccf1a2e75f125ca75300448795b36eee643872aa7",
  "nextblockhash": "00000000ff7999d3c14fc0c601147af1ae5f07ee839f768e53c2277566ce4a43",
  "strippedsize": 216,
  "size": 216,
  "weight": 864,
  "tx": [
    {
      "txid": "43a8db6fbce5e942e57f8db4f89195ac17884358d60c5a85d88b50cf24adce6c",
      "hash": "43a8db6fbce5e942e57f8db4f89195ac17884358d60c5a85d88b50cf24adce6c",
      "version": 1,
      "size": 135,
      "vsize": 135,
      "weight": 540,
      "locktime": 0,
      "vin": [
        {
          "coinbase": "04ffff001d029008",
          "sequence": 4294967295
        }
      ],
      "vout": [
        {
          "value": 50.0,
          "n": 0,
          "scriptPubKey": {
            "asm": "04942579a0323b9a36e2e68b538bdb8b8f36ff8c91ede589d964d9c43b75fcf6e16d0b9cf4300c19df020e755b84faae241e54b15980bed4afd97d2d85908eb6e0 OP_CHECKSIG",
            "desc": "pk(04942579a0323b9a36e2e68b538bdb8b8f36ff8c91ede589d964d9c43b75fcf6e16d0b9cf4300c19df020e755b84faae241e54b15980bed4afd97d2d85908eb6e0)#7ypj84md",
            "hex": "4104942579a0323b9a36e2e68b538bdb8b8f36ff8c91ede589d964d9c43b75fcf6e16d0b9cf4300c19df020e755b84faae241e54b15980bed4afd97d2d85908eb6e0ac",
            "type": "pubkey"
          }
        }
      ],
      "hex": "01000000010000000000000000000000000000000000000000000000000000000000000000ffffffff0804ffff001d029008ffffffff0100f2052a01000000434104942579a0323b9a36e2e68b538bdb8b8f36ff8c91ede589d964d9c43b75fcf6e16d0b9cf4300c19df020e755b84faae241e54b15980bed4afd97d2d85908eb6e0ac00000000"
    }
  ]
}