{
  "hash": "00000000b5a884433639b614072bcf6eada0fc1a8049ae1e7b293f0a94efa72e",
  "confirmations": 48454,
  "height": 4644,
  "version": 1,
  "versionHex": "00000001",
  "merkleroot": "7945c499f21b5ef3d142ffb1f48f27ba567d6f8dde00ec06f26ee8186637a4e5",
  "time": 1234887068,
  "mediantime": 1234883155,
  "nonce": 783897389,
  "bits": "1d00ffff",
  "difficulty": 1,
  "chainwork": "0000000000000000000000000000000000000000000000000000122512251225",
  "nTx": 1,
  "previousblockhash": "0000000031e3947cac704a53a054921e492238be324d74272ac56aa1203535f5",
  "nextblockhash": "00000000420f32435818595072953be954315431b17128715872c66542474740",
  "strippedsize": 216,
  "size": 216,
  "weight": 864,
  "tx": [
    {
      "txid": "7945c499f21b5ef3d142ffb1f48f27ba567d6f8dde00ec06f26ee8186637a4e5",
      "hash": "7945c499f21b5ef3d142ffb1f48f27ba567d6f8dde00ec06f26ee8186637a4e5",
      "version": 1,
      "size": 135,
      "vsize": 135,
      "weight": 540,
      "locktime": 0,
      "vin": [
        {
          "coinbase": "04ffff001d029201",
          "sequence": 4294967295
        }
      ],
      "vout": [
        {
          "value": 50.0,
          "n": 0,
          "scriptPubKey": {
            "asm": "0495c47887748fd0c45f5728b151cb70a7360cf1246191ae15902838dbe54c9720f7de3239ad29a33be45269aa9a863fe9e4c03c11e0e319323a257c2847dc2a84 OP_CHECKSIG",
            "desc": "pk(0495c47887748fd0c45f5728b151cb70a7360cf1246191ae15902838dbe54c9720f7de3239ad29a33be45269aa9a863fe9e4c03c11e0e319323a257c2847dc2a84)#ezqsp743",
            "hex": "410495c47887748fd0c45f5728b151cb70a7360cf1246191ae15902838dbe54c9720f7de3239ad29a33be45269aa9a863fe9e4c03c11e0e319323a257c2847dc2a84ac",
            "type": "pubkey"
          }
        }
      ],
      "hex": "01000000010000000000000000000000000000000000000000000000000000000000000000ffffffff0804ffff001d029201ffffffff0100f2052a0100000043410495c47887748fd0c45f5728b151cb70a7360cf1246191ae15902838dbe54c9720f7de3239ad29a33be45269aa9a863fe9e4c03c11e0e319323a257c2847dc2a84ac00000000"
    }
  ]
}