{
  "hash": "0000000074e6f8830b061e9496206845ca583f640e6ebc57add54cda51b0d981",
  "confirmations": 50985,
  "height": 2113,
  "version": 1,
  "versionHex": "00000001",
  "merkleroot": "bde10228861b2bc8e42f2f35bb47610696e19d10f1e0fbad01b249af25985a2b",
  "time": 1233147840,
  "mediantime": 1233142955,
  "nonce": 2838139139,
  "bits": "1d00ffff",
  "difficulty": 1,
  "chainwork": "0000000000000000000000000000000000000000000000000000084208420842",
  "nTx": 1,
  "previousblockhash": "00000000e8bcdaa8ab9f8ef19c5ecf6d5e624b8b094fd62c10ddde907881a81e",
  "nextblockhash": "000000000c10387a9c25bf199de9619ec0169ca480bf5be2fb176d195390936b",
  "strippedsize": 216,
  "size": 216,
  "weight": 864,
  "tx": [
    {
      "txid": "bde10228861b2bc8e42f2f35bb47610696e19d10f1e0fbad01b249af25985a2b",
      "hash": "bde10228861b2bc8e42f2f35bb47610696e19d10f1e0fbad01b249af25985a2b",
      "version": 1,
      "size": 135,
      "vsize": 135,
      "weight": 540,
      "locktime": 0,
      "vin": [
        {
          "coinbase": "04ffff001d02d403",
          "sequence": 4294967295
        }
      ],
      "vout": [
        {
          "value": 50.0,
          "n": 0,
          "scriptPubKey": {
            "asm": "0493dad8b48e1fe4ed852ba0833c61be0707e4f448e90e6914e7e0d39a7ce5e44f2764f4e47f4f301e88c89183adfe558b55a2304bdc323cbc1b1895707dd4a6fe OP_CHECKSIG",
            "desc": "pk(0493dad8b48e1fe4ed852ba0833c61be0707e4f448e90e6914e7e0d39a7ce5e44f2764f4e47f4f301e88c89183adfe558b55a2304bdc323cbc1b1895707dd4a6fe)#df2kvguj",
            "hex": "410493dad8b48e1fe4ed852ba0833c61be0707e4f448e90e6914e7e0d39a7ce5e44f2764f4e47f4f301e88c89183adfe558b55a2304bdc323cbc1b1895707dd4a6feac",
            "type": "pubkey"
          }
        }
      ],
      "hex": "01000000010000000000000000000000000000000000000000000000000000000000000000ffffffff0804ffff001d02d403ffffffff0100f2052a0100000043410493dad8b48e1fe4ed852ba0833c61be0707e4f448e90e6914e7e0d39a7ce5e44f2764f4e47f4f301e88c89183adfe558b55a2304bdc323cbc1b1895707dd4a6feac00000000"
    }
  ]
}