{
  "hash": "000000006bf9a1754e0f7c6e1be94734a29d9b476250f910f2c46538ccdf5a42",
  "confirmations": 50491,
  "height": 2607,
  "version": 1,
  "versionHex": "00000001",
  "merkleroot": "1ec6700f458b7fca980ba3e2710c5d403dc20457bb3d795ac8c20216efca6c9d",
  "time": 1233499481,
  "mediantime": 1233496388,
  "nonce": 113940232,
  "bits": "1d00ffff",
  "difficulty": 1,
  "chainwork": "00000000000000000000000000000000000000000000000000000a300a300a30",
  "nTx": 1,
  "previousblockhash": "0000000009df023a09a3b21016a699f89925009e0b12cbf9a30146193c4d2cb7",
  "nextblockhash": "000000006304081c10fb81029e85f8930ce1f4d656bffd35d049078db4de767d",
  "strippedsize": 216,
  "size": 216,
  "weight": 864,
  "tx": [
    {
      "txid": "1ec6700f458b7fca980ba3e2710c5d403dc20457bb3d795ac8c20216efca6c9d",
      "hash": "1ec6700f458b7fca980ba3e2710c5d403dc20457bb3d795ac8c20216efca6c9d",
      "version": 1,
      "size": 135,
      "vsize": 135,
      "weight": 540,
      "locktime": 0,
      "vin": [
        {
          "coinbase": "04ffff001d02a902",
          "sequence": 4294967295
        }
      ],
      "vout": [
        {
          "value": 50.0,
          "n": 0,
          "scriptPubKey": {
            "asm": "04acd48de79de13999f604799c65d0bc6719d98d7eb3a20f48fb4e12fe6e46018c5842ba51514b49f433695a85ab871a943954eb08379a78f689c4fce236dadc0c OP_CHECKSIG",
            "desc": "pk(04acd48de79de13999f604799c65d0bc6719d98d7eb3a20f48fb4e12fe6e46018c5842ba51514b49f433695a85ab871a943954eb08379a78f689c4fce236dadc0c)#jsxhu0d3",
            "hex": "4104acd48de79de13999f604799c65d0bc6719d98d7eb3a20f48fb4e12fe6e46018c5842ba51514b49f433695a85ab871a943954eb08379a78f689c4fce236dadc0cac",
            "type": "pubkey"
          }
        }
      ],
      "hex": "01000000010000000000000000000000000000000000000000000000000000000000000000ffffffff0804ffff001d02a902ffffffff0100f2052a01000000434104acd48de79de13999f604799c65d0bc6719d98d7eb3a20f48fb4e12fe6e46018c5842ba51514b49f433695a85ab871a943954eb08379a78f689c4fce236dadc0cac00000000"
    }
  ]
}