{
  "hash": "00000000fdda310197211d8baa3283412f078b2a4194d59b0713f08861415076",
  "confirmations": 51061,
  "height": 2037,
  "version": 1,
  "versionHex": "00000001",
  "merkleroot": "7e11d118e9406c24d3e751311884caf4e08800b98800bed04317ffd81161cd4b",
  "time": 1233081411,
  "mediantime": 1233077647,
  "nonce": 1397630472,
  "bits": "1d00ffff",
  "difficulty": 1,
  "chainwork": "000000000000000000000000000000000000000000000000000007f607f607f6",
  "nTx": 1,
  "previousblockhash": "0000000011de33c7f0a5c814697d7844d1c6ea5894bb0a2fb348289632844018",
  "nextblockhash": "000000003ba309b2c952b348063e6238f6a867727baae6951a6fd87bf363a5a5",
  "strippedsize": 216,
  "size": 216,
  "weight": 864,
  "tx": [
    {
      "txid": "7e11d118e9406c24d3e751311884caf4e08800b98800bed04317ffd81161cd4b",
      "hash": "7e11d118e9406c24d3e751311884caf4e08800b98800bed04317ffd81161cd4b",
      "version": 1,
      "size": 135,
      "vsize": 135,
      "weight": 540,
      "locktime": 0,
      "vin": [
        {
          "coinbase": "04ffff001d027d02",
          "sequence": 4294967295
        }
      ],
      "vout": [
        {
          "value": 50.0,
          "n": 0,
          "scriptPubKey": {
            "asm": "0462bec24e626456d64edaa950915edce9f11f9ef300a167e88748551e5fae1d7fc5755c8a3bdce1bb952fa774303d6f58c3b0ed638e7d0e75e9cac7a1bb39dea3 OP_CHECKSIG",
            "desc": "pk(0462bec24e626456d64edaa950915edce9f11f9ef300a167e88748551e5fae1d7fc5755c8a3bdce1bb952fa774303d6f58c3b0ed638e7d0e75e9cac7a1bb39dea3)#4ugrj2ey",
            "hex": "410462bec24e626456d64edaa950915edce9f11f9ef300a167e88748551e5fae1d7fc5755c8a3bdce1bb952fa774303d6f58c3b0ed638e7d0e75e9cac7a1bb39dea3ac",
            "type": "pubkey"
          }
        }
      ],
      "hex": "01000000010000000000000000000000000000000000000000000000000000000000000000ffffffff0804ffff001d027d02ffffffff0100f2052a0100000043410462bec24e626456d64edaa950915edce9f11f9ef300a167e88748551e5fae1d7fc5755c8a3bdce1bb952fa774303d6f58c3b0ed638e7d0e75e9cac7a1bb39dea3ac00000000"
    }
  ]
}