{
  "hash": "000000008488ed3e83ffc1beda9048b09b3c4fb6a3009dcc48d2be74052e8455",
  "confirmations": 43959,
  "height": 9139,
  "version": 1,
  "versionHex": "00000001",
  "merkleroot": "29ea7102ec9368463886d95dadb5c445548ae494152962764d389e9c0cc6d600",
  "time": 1238360231,
  "mediantime": 1238355510,
  "nonce": 2858734392,
  "bits": "1d00ffff",
  "difficulty": 1,
  "chainwork": "000000000000000000000000000000000000000000000000000023b423b423b4",
  "nTx": 1,
  "previousblockhash": "000000004ab38b96a169dc4a8173c3c46249d0709ea860e9ab1d24a6c0c3ec45",
  "nextblockhash": "00000000553e2cdc44d98aa62334fda136ac28d852a4c0734de579bd038c627b",
  "strippedsize": 216,
  "size": 216,
  "weight": 864,
  "tx": [
    {
      "txid": "29ea7102ec9368463886d95dadb5c445548ae494152962764d389e9c0cc6d600",
      "hash": "29ea7102ec9368463886d95dadb5c445548ae494152962764d389e9c0cc6d600",
      "version": 1,
      "size": 135,
      "vsize": 135,
      "weight": 540,
      "locktime": 0,
      "vin": [
        {
          "coinbase": "04ffff001d021409",
          "sequence": 4294967295
        }
      ],
      "vout": [
        {
          "value": 50.0,
          "n": 0,
          "scriptPubKey": {
            "asm": "0495408360f54f7949e0c1c0b45438776082638a38c49957a1d92628e307e1fd8e5e4677f5454c6474d65c08095167bdd802160854852bb9f2dc63dd17551e0ac8 OP_CHECKSIG",
            "desc": "pk(0495408360f54f7949e0c1c0b45438776082638a38c49957a1d92628e307e1fd8e5e4677f5454c6474d65c08095167bdd802160854852bb9f2dc63dd17551e0ac8)#rexzlz65",
            "hex": "410495408360f54f7949e0c1c0b45438776082638a38c49957a1d92628e307e1fd8e5e4677f5454c6474d65c08095167bdd802160854852bb9f2dc63dd17551e0ac8ac",
            "type": "pubkey"
          }
        }
      ],
      "hex": "01000000010000000000000000000000000000000000000000000000000000000000000000ffffffff0804ffff001d021409ffffffff0100f2052a0100000043410495408360f54f7949e0c1c0b45438776082638a38c49957a1d92628e307e1fd8e5e4677f5454c6474d65c08095167bdd802160854852bb9f2dc63dd17551e0ac8ac00000000"
    }
  ]
}