{
  "hash": "00000000f526ef6d614f818127852c5a09f69942e9bbb04a7b15cb6f68af64e9",
  "confirmations": 43919,
  "height": 9179,
  "version": 1,
  "versionHex": "00000001",
  "merkleroot": "becc267a4b13f13b8132b995cada514c62af1439c50816bddc822dcea82768d4",
  "time": 1238385017,
  "mediantime": 1238382736,
  "nonce": 1173244424,
  "bits": "1d00ffff",
  "difficulty": 1,
  "chainwork": "000000000000000000000000000000000000000000000000000023dc23dc23dc",
  "nTx": 1,
  "previousblockhash": "000000007ac01c82eae9bf66761bb315bc29c72517d3b024033b5223d821ae2a",
  "nextblockhash": "000000006214c7719ee0a5e5805c6fd301df2f47f676156998a3ece913defc22",
  "strippedsize": 216,
  "size": 216,
  "weight": 864,
  "tx": [
    {
      "txid": "becc267a4b13f13b8132b995cada514c62af1439c50816bddc822dcea82768d4",
      "hash": "becc267a4b13f13b8132b995cada514c62af1439c50816bddc822dcea82768d4",
      "version": 1,
      "size": 135,
      "vsize": 135,
      "weight": 540,
      "locktime": 0,
      "vin": [
        {
          "coinbase": "04ffff001d02d809",
          "sequence": 4294967295
        }
      ],
      "vout": [
        {
          "value": 50.0,
          "n": 0,
          "scriptPubKey": {
            "asm": "04f3ac8daea643a150141b12845b4121c7dfda4dc9557df39d8dc8e92afb14a83781f1f2af2925ee01ac68ed07f02e1cd67a2a96ff0ea6a2f82ab19319a6210037 OP_CHECKSIG",
            "desc": "pk(04f3ac8daea643a150141b12845b4121c7dfda4dc9557df39d8dc8e92afb14a83781f1f2af2925ee01ac68ed07f02e1cd67a2a96ff0ea6a2f82ab19319a6210037)#vpsj2jj4",
            "hex": "4104f3ac8daea643a150141b12845b4121c7dfda4dc9557df39d8dc8e92afb14a83781f1f2af2925ee01ac68ed07f02e1cd67a2a96ff0ea6a2f82ab19319a6210037ac",
            "type": "pubkey"
          }
        }
      ],
      "hex": "01000000010000000000000000000000000000000000000000000000000000000000000000ffffffff0804ffff001d02d809ffffffff0100f2052a01000000434104f3ac8daea643a150141b12845b4121c7dfda4dc9557df39d8dc8e92afb14a83781f1f2af2925ee01ac68ed07f02e1cd67a2a96ff0ea6a2f82ab19319a6210037ac00000000"
    }
  ]
}