{
  "hash": "00000000645bb1a8754dff8a6eb838ad4fe55391315c2e22f741129f84d6072c",
  "confirmations": 45338,
  "height": 7760,
  "version": 1,
  "versionHex": "00000001",
  "merkleroot": "06c52d1c6e9ce77fff11886917bb2e10e0964b5eeee6fb46505881dcb15509e4",
  "time": 1237283848,
  "mediantime": 1237280173,
  "nonce": 781197620,
  "bits": "1d00ffff",
  "difficulty": 1,
  "chainwork": "00000000000000000000000000000000000000000000000000001e511e511e51",
  "nTx": 1,
  "previousblockhash": "0000000098946a0ed4f9a3339236301250973d3a63680c0d9d414101fae6c037",
  "nextblockhash": "00000000d77149f69074b1e70233b2ed29f9d5579229ba03f6daaa290d2fd227",
  "strippedsize": 216,
  "size": 216,
  "weight": 864,
  "tx": [
    {
      "txid": "06c52d1c6e9ce77fff11886917bb2e10e0964b5eeee6fb46505881dcb15509e4",
      "hash": "06c52d1c6e9ce77fff11886917bb2e10e0964b5eeee6fb46505881dcb15509e4",
      "version": 1,
      "size": 135,
      "vsize": 135,
      "weight": 540,
      "locktime": 0,
      "vin": [
        {
          "coinbase": "04ffff001d022605",
          "sequence": 4294967295
        }
      ],
      "vout": [
        {
          "value": 50.0,
          "n": 0,
          "scriptPubKey": {
            "asm": "0435ee2835e6348f54970fa68ba5dfafe557b2c6119e7277b273856f556a6018334fcbc6c3558116c0cbfeb697a146722f3203460e590b659af609b0c506999bf0 OP_CHECKSIG",
            "desc": "pk(0435ee2835e6348f54970fa68ba5dfafe557b2c6119e7277b273856f556a6018334fcbc6c3558116c0cbfeb697a146722f3203460e590b659af609b0c506999bf0)#j9seat0h",
            "hex": "410435ee2835e6348f54970fa68ba5dfafe557b2c6119e7277b273856f556a6018334fcbc6c3558116c0cbfeb697a146722f3203460e590b659af609b0c506999bf0ac",
            "type": "pubkey"
          }
        }
      ],
      "hex": "01000000010000000000000000000000000000000000000000000000000000000000000000ffffffff0804ffff001d022605ffffffff0100f2052a0100000043410435ee2835e6348f54970fa68ba5dfafe557b2c6119e7277b273856f556a6018334fcbc6c3558116c0cbfeb697a146722f3203460e590b659af609b0c506999bf0ac00000000"
    }
  ]
}