{
  "hash": "00000000ccf0a366e9a2bb095d95cccbadadead0472ef15e913c708bb3e021f5",
  "confirmations": 51619,
  "height": 1479,
  "version": 1,
  "versionHex": "00000001",
  "merkleroot": "69edab34a6a258348dd4c37d4f4b13e0d85aee06dc347ba249996db54824f95e",
  "time": 1232759135,
  "mediantime": 1232756930,
  "nonce": 91673148,
  "bits": "1d00ffff",
  "difficulty": 1,
  "chainwork": "000000000000000000000000000000000000000000000000000005c805c805c8",
  "nTx": 1,
  "previousblockhash": "00000000fccc14ebbe230e2bd9f5cfaa0130826c8aeed79aeb530df1c5f4320c",
  "nextblockhash": "000000009d0fa2b877d57be5825026b4c2a570fab8f8bccf9aa718f9090d5747",
  "strippedsize": 216,
  "size": 216,
  "weight": 864,
  "tx": [
    {
      "txid": "69edab34a6a258348dd4c37d4f4b13e0d85aee06dc347ba249996db54824f95e",
      "hash": "69edab34a6a258348dd4c37d4f4b13e0d85aee06dc347ba249996db54824f95e",
      "version": 1,
      "size": 135,
      "vsize": 135,
      "weight": 540,
      "locktime": 0,
      "vin": [
        {
          "coinbase": "04ffff001d024203",
          "sequence": 4294967295
        }
      ],
      "vout": [
        {
          "value": 50.0,
          "n": 0,
          "scriptPubKey": {
            "asm": "04786e0686f112aca9e46ffcb040537f3c16ada2a56596f6ef2c221f561ea87fa54286310ea53dd71d9701fcbab8c8ce33cab33cfbf294ddfcbb3c2005f97e4da2 OP_CHECKSIG",
            "desc": "pk(04786e0686f112aca9e46ffcb040537f3c16ada2a56596f6ef2c221f561ea87fa54286310ea53dd71d9701fcbab8c8ce33cab33cfbf294ddfcbb3c2005f97e4da2)#fy0lv3kx",
            "hex": "4104786e0686f112aca9e46ffcb040537f3c16ada2a56596f6ef2c221f561ea87fa54286310ea53dd71d9701fcbab8c8ce33cab33cfbf294ddfcbb3c2005f97e4da2ac",
            "type": "pubkey"
          }
        }
      ],
      "hex": "01000000010000000000000000000000000000000000000000000000000000000000000000ffffffff0804ffff001d024203ffffffff0100f2052a01000000434104786e0686f112aca9e46ffcb040537f3c16ada2a56596f6ef2c221f561ea87fa54286310ea53dd71d9701fcbab8c8ce33cab33cfbf294ddfcbb3c2005f97e4da2ac00000000"
    }
  ]
}