{
  "hash": "000000006bda10ea791cf151d394d1274126da7f0eace8c45f7d95b86373cdae",
  "confirmations": 48583,
  "height": 4515,
  "version": 1,
  "versionHex": "00000001",
  "merkleroot": "94b1459a58f2952486dccde99826364e099a7ac3d17e7f72c4309a847784f0e8",
  "time": 1234791327,
  "mediantime": 1234788123,
  "nonce": 889738774,
  "bits": "1d00ffff",
  "difficulty": 1,
  "chainwork": "000000000000000000000000000000000000000000000000000011a411a411a4",
  "nTx": 1,
  "previousblockhash": "000000000936904264b030a2bb864a0b8ac657779c5fdd319a0d683f9571f02a",
  "nextblockhash": "00000000e5973dd1555a24b4b225ee720329f59b594a118af4d2faf01343f0e5",
  "strippedsize": 216,
  "size": 216,
  "weight": 864,
  "tx": [
    {
      "txid": "94b1459a58f2952486dccde99826364e099a7ac3d17e7f72c4309a847784f0e8",
      "hash": "94b1459a58f2952486dccde99826364e099a7ac3d17e7f72c4309a847784f0e8",
      "version": 1,
      "size": 135,
      "vsize": 135,
      "weight": 540,
      "locktime": 0,
      "vin": [
        {
          "coinbase": "04ffff001d020603",
          "sequence": 4294967295
        }
      ],
      "vout": [
        {
          "value": 50.0,
          "n": 0,
          "scriptPubKey": {
            "asm": "04c729215f6b31763012b2baad2dee9889c966722a98f63b17cd1b932c6f3a2b40f5aada5f3fe58ea4a76a8bcb00b399ae03048721029eda5039a1de8245e7adfe OP_CHECKSIG",
            "desc": "pk(04c729215f6b31763012b2baad2dee9889c966722a98f63b17cd1b932c6f3a2b40f5aada5f3fe58ea4a76a8bcb00b399ae03048721029eda5039a1de8245e7adfe)#3mcze6rs",
            "hex": "4104c729215f6b31763012b2baad2dee9889c966722a98f63b17cd1b932c6f3a2b40f5aada5f3fe58ea4a76a8bcb00b399ae03048721029eda5039a1de8245e7adfeac",
            "type": "pubkey"
          }
        }
      ],
      "hex": "01000000010000000000000000000000000000000000000000000000000000000000000000ffffffff0804ffff001d020603ffffffff0100f2052a01000000434104c729215f6b31763012b2baad2dee9889c966722a98f63b17cd1b932c6f3a2b40f5aada5f3fe58ea4a76a8bcb00b399ae03048721029eda5039a1de8245e7adfeac00000000"
    }
  ]
}