{
  "hash": "00000000803cec62b96ccbb70affe0f05f351ada18d14a16960783aeafe0d8fc",
  "confirmations": 52072,
  "height": 263,
  "version": 1,
  "versionHex": "00000001",
  "merkleroot": "2b361348f1b00810ae521de7912a199d4e184a03b389892d3a89ad021eb9322c",
  "time": 1231805421,
  "mediantime": 1231800349,
  "nonce": 1088237061,
  "bits": "1d00ffff",
  "difficulty": 1,
  "chainwork": "0000000000000000000000000000000000000000000000000000010801080108",
  "nTx": 1,
  "previousblockhash": "0000000062e646293e5f21e2ef1e2099b048cfb58a81081d4e4035a4e19e47a8",
  "nextblockhash": "00000000641f9b99064bda263144a08761757b566357f49e95f516b0b5a4b778",
  "strippedsize": 216,
  "size": 216,
  "weight": 864,
  "tx": [
    {
      "txid": "2b361348f1b00810ae521de7912a199d4e184a03b389892d3a89ad021eb9322c",
      "hash": "2b361348f1b00810ae521de7912a199d4e184a03b389892d3a89ad021eb9322c",
      "version": 1,
      "size": 135,
      "vsize": 135,
      "weight": 540,
      "locktime": 0,
      "vin": [
        {
          "coinbase": "04ffff001d026201",
          "sequence": 4294967295
        }
      ],
      "vout": [
        {
          "value": 50.0,
          "n": 0,
          "scriptPubKey": {
            "asm": "04189edf6376f8cd15e250eee131264ccc2ffa7a7b17894dfd11d95b7ddb6582266e0b36451eafb5463542b34e1debd4222333e8306d0be536d6e1944b4ac7949e OP_CHECKSIG",
            "desc": "pk(04189edf6376f8cd15e250eee131264ccc2ffa7a7b17894dfd11d95b7ddb6582266e0b36451eafb5463542b34e1debd4222333e8306d0be536d6e1944b4ac7949e)#cxl5jy3x",
            "hex": "4104189edf6376f8cd15e250eee131264ccc2ffa7a7b17894dfd11d95b7ddb6582266e0b36451eafb5463542b34e1debd4222333e8306d0be536d6e1944b4ac7949eac",
            "type": "pubkey"
          }
        }
      ],
      "hex": "01000000010000000000000000000000000000000000000000000000000000000000000000ffffffff0804ffff001d026201ffffffff0100f2052a01000000434104189edf6376f8cd15e250eee131264ccc2ffa7a7b17894dfd11d95b7ddb6582266e0b36451eafb5463542b34e1debd4222333e8306d0be536d6e1944b4ac7949eac00000000"
    }
  ]
}