{
  "hash": "00000000248dab90b33164a7f22f5c1cfc93da5d8e43ea86d1b888f4707c6baf",
  "confirmations": 45161,
  "height": 7937,
  "version": 1,
  "versionHex": "00000001",
  "merkleroot": "d2e351d01d4ade7f4b13e01c2cc64bc57a95c00c536ee99f0bfb3447b9b8443d",
  "time": 1237418121,
  "mediantime": 1237414996,
  "nonce": 1599877381,
  "bits": "1d00ffff",
  "difficulty": 1,
  "chainwork": "00000000000000000000000000000000000000000000000000001f021f021f02",
  "nTx": 1,
  "previousblockhash": "000000007baf5b168d8911a7c0154b7d39bb6ccfb82adc90fc6491fd56d1df26",
  "nextblockhash": "0000000044e8daf74c605bfb540f89f8cdc142eaef160fdf66c1a02b797d326a",
  "strippedsize": 216,
  "size": 216,
  "weight": 864,
  "tx": [
    {
      "txid": "d2e351d01d4ade7f4b13e01c2cc64bc57a95c00c536ee99f0bfb3447b9b8443d",
      "hash": "d2e351d01d4ade7f4b13e01c2cc64bc57a95c00c536ee99f0bfb3447b9b8443d",
      "version": 1,
      "size": 135,
      "vsize": 135,
      "weight": 540,
      "locktime": 0,
      "vin": [
        {
          "coinbase": "04ffff001d024c08",
          "sequence": 4294967295
        }
      ],
      "vout": [
        {
          "value": 50.0,
          "n": 0,
          "scriptPubKey": {
            "asm": "04a024ad745a08794ae906870813b48c850247aa120a72658394e9c6433b3395a16dc8567a202ce45c4fc4e640a1bee39d77f9ac0dd625e0a3d1d4a4d5afceae00 OP_CHECKSIG",
            "desc": "pk(04a024ad745a08794ae906870813b48c850247aa120a72658394e9c6433b3395a16dc8567a202ce45c4fc4e640a1bee39d77f9ac0dd625e0a3d1d4a4d5afceae00)#r9tw8ggu",
            "hex": "4104a024ad745a08794ae906870813b48c850247aa120a72658394e9c6433b3395a16dc8567a202ce45c4fc4e640a1bee39d77f9ac0dd625e0a3d1d4a4d5afceae00ac",
            "type": "pubkey"
          }
        }
      ],
      "hex": "01000000010000000000000000000000000000000000000000000000000000000000000000ffffffff0804ffff001d024c08ffffffff0100f2052a01000000434104a024ad745a08794ae906870813b48c850247aa120a72658394e9c6433b3395a16dc8567a202ce45c4fc4e640a1bee39d77f9ac0dd625e0a3d1d4a4d5afceae00ac00000000"
    }
  ]
}