{
  "hash": "00000000ce8f753a6df03ffba3ed05db6cf79013e79b7d20c87e0e88b7672fbf",
  "confirmations": 52369,
  "height": 729,
  "version": 1,
  "versionHex": "00000001",
  "merkleroot": "57daec256099dbb55e9f2012358b0123c5c0530b8cb82c12cab48031f129c793",
  "time": 1232133558,
  "mediantime": 1232129602,
  "nonce": 2122733606,
  "bits": "1d00ffff",
  "difficulty": 1,
  "chainwork": "000000000000000000000000000000000000000000000000000002da02da02da",
  "nTx": 1,
  "previousblockhash": "00000000d14f2e97678951ad004d6699babd27e07ca722c46b30dc24c67eed7a",
  "nextblockhash": "00000000787381693ec698b7b6e84c8605f383cafb64071a03008938be6e52bd",
  "strippedsize": 215,
  "size": 215,
  "weight": 860,
  "tx": [
    {
      "txid": "57daec256099dbb55e9f2012358b0123c5c0530b8cb82c12cab48031f129c793",
      "hash": "57daec256099dbb55e9f2012358b0123c5c0530b8cb82c12cab48031f129c793",
      "version": 1,
      "size": 134,
      "vsize": 134,
      "weight": 536,
      "locktime": 0,
      "vin": [
        {
          "coinbase": "04ffff001d0139",
          "sequence": 4294967295
        }
      ],
      "vout": [
        {
          "value": 50.0,
          "n": 0,
          "scriptPubKey": {
            "asm": "04c47cfaca0c2538cb204851ea30e3526777de3cee6fc83b3d48b45d026ea4de5ec26cc20cba42d4e5d7bb160e78c62c3b7b895fdefa99b0b1a6585bead34249bc OP_CHECKSIG",
            "desc": "pk(04c47cfaca0c2538cb204851ea30e3526777de3cee6fc83b3d48b45d026ea4de5ec26cc20cba42d4e5d7bb160e78c62c3b7b895fdefa99b0b1a6585bead34249bc)#cr3f0zj0",
            "hex": "4104c47cfaca0c2538cb204851ea30e3526777de3cee6fc83b3d48b45d026ea4de5ec26cc20cba42d4e5d7bb160e78c62c3b7b895fdefa99b0b1a6585bead34249bcac",
            "type": "pubkey"
          }
        }
      ],
      "hex": "01000000010000000000000000000000000000000000000000000000000000000000000000ffffffff0704ffff001d0139ffffffff0100f2052a01000000434104c47cfaca0c2538cb204851ea30e3526777de3cee6fc83b3d48b45d026ea4de5ec26cc20cba42d4e5d7bb160e78c62c3b7b895fdefa99b0b1a6585bead34249bcac00000000"
    }
  ]
}