{
  "hash": "00000000e5b5336b44848b1fda341c5a925a3db43d3db5c9ed694990a705b462",
  "confirmations": 51705,
  "height": 1393,
  "version": 1,
  "versionHex": "00000001",
  "merkleroot": "9985f46f105c806e4cfbf290e5a6faf097dc4d6fa2dde2efbb7d25fad46b54b5",
  "time": 1232698876,
  "mediantime": 1232673973,
  "nonce": 303507274,
  "bits": "1d00ffff",
  "difficulty": 1,
  "chainwork": "0000000000000000000000000000000000000000000000000000057205720572",
  "nTx": 1,
  "previousblockhash": "000000002972f1bf450266f458e030b8a07c62f1a90bdf34b90ab02bfff975a5",
  "nextblockhash": "00000000deb704fba930460b98b866320eca8626fc6eae98242fe49e698b319e",
  "strippedsize": 215,
  "size": 215,
  "weight": 860,
  "tx": [
    {
      "txid": "9985f46f105c806e4cfbf290e5a6faf097dc4d6fa2dde2efbb7d25fad46b54b5",
      "hash": "9985f46f105c806e4cfbf290e5a6faf097dc4d6fa2dde2efbb7d25fad46b54b5",
      "version": 1,
      "size": 134,
      "vsize": 134,
      "weight": 536,
      "locktime": 0,
      "vin": [
        {
          "coinbase": "04ffff001d010d",
          "sequence": 4294967295
        }
      ],
      "vout": [
        {
          "value": 50.0,
          "n": 0,
          "scriptPubKey": {
            "asm": "044e140dc6b1c191d0933c5dc9d16c2f345975e99c84e50234d28b2db4d4af9d30645371eb97a254c49d5b4339ff3563c9b178cff33a3dd5415fe36627197a7dd9 OP_CHECKSIG",
            "desc": "pk(044e140dc6b1c191d0933c5dc9d16c2f345975e99c84e50234d28b2db4d4af9d30645371eb97a254c49d5b4339ff3563c9b178cff33a3dd5415fe36627197a7dd9)#vp56e63w",
            "hex": "41044e140dc6b1c191d0933c5dc9d16c2f345975e99c84e50234d28b2db4d4af9d30645371eb97a254c49d5b4339ff3563c9b178cff33a3dd5415fe36627197a7dd9ac",
            "type": "pubkey"
          }
        }
      ],
      "hex": "01000000010000000000000000000000000000000000000000000000000000000000000000ffffffff0704ffff001d010dffffffff0100f2052a010000004341044e140dc6b1c191d0933c5dc9d16c2f345975e99c84e50234d28b2db4d4af9d30645371eb97a254c49d5b4339ff3563c9b178cff33a3dd5415fe36627197a7dd9ac00000000"
    }
  ]
}