{
  "hash": "00000000d5cd9765da3f24520faf0bc019938e218fff554631a5fcb4eb3d5726",
  "confirmations": 52270,
  "height": 828,
  "version": 1,
  "versionHex": "00000001",
  "merkleroot": "ad0de1501b73c69e7ca5ea4d033abd4c7e1bb261d7bb28cee25861e9fe02a068",
  "time": 1232213029,
  "mediantime": 1232209980,
  "nonce": 121328777,
  "bits": "1d00ffff",
  "difficulty": 1,
  "chainwork": "0000000000000000000000000000000000000000000000000000033d033d033d",
  "nTx": 1,
  "previousblockhash": "00000000c50b4d0ca3f17f20f96190262dc7f7ce23241f0bf81976d5008ac110",
  "nextblockhash": "000000001a25cdaad9a9a306da9186c20179e85f5e8f27891733711cbd604717",
  "strippedsize": 215,
  "size": 215,
  "weight": 860,
  "tx": [
    {
      "txid": "ad0de1501b73c69e7ca5ea4d033abd4c7e1bb261d7bb28cee25861e9fe02a068",
      "hash": "ad0de1501b73c69e7ca5ea4d033abd4c7e1bb261d7bb28cee25861e9fe02a068",
      "version": 1,
      "size": 134,
      "vsize": 134,
      "weight": 536,
      "locktime": 0,
      "vin": [
        {
          "coinbase": "04ffff001d0172",
          "sequence": 4294967295
        }
      ],
      "vout": [
        {
          "value": 50.0,
          "n": 0,
          "scriptPubKey": {
            "asm": "045af7f44a5bb9938dbeb5130e8c6e42fbb3196f4fcec508bce8d5eae3404c1ae65a6d2522c53d9d67d4b6d315b15ae2a13c8be985afb3c3113c821723075c48d7 OP_CHECKSIG",
            "desc": "pk(045af7f44a5bb9938dbeb5130e8c6e42fbb3196f4fcec508bce8d5eae3404c1ae65a6d2522c53d9d67d4b6d315b15ae2a13c8be985afb3c3113c821723075c48d7)#02hxkjy3",
            "hex": "41045af7f44a5bb9938dbeb5130e8c6e42fbb3196f4fcec508bce8d5eae3404c1ae65a6d2522c53d9d67d4b6d315b15ae2a13c8be985afb3c3113c821723075c48d7ac",
            "type": "pubkey"
          }
        }
      ],
      "hex": "01000000010000000000000000000000000000000000000000000000000000000000000000ffffffff0704ffff001d0172ffffffff0100f2052a010000004341045af7f44a5bb9938dbeb5130e8c6e42fbb3196f4fcec508bce8d5eae3404c1ae65a6d2522c53d9d67d4b6d315b15ae2a13c8be985afb3c3113c821723075c48d7ac00000000"
    }
  ]
}