{
  "hash": "00000000fd28382e084f93747bad7fe68cc284dc40741762234024aa22c7847e",
  "confirmations": 50260,
  "height": 2838,
  "version": 1,
  "versionHex": "00000001",
  "merkleroot": "38d26ecb422bd5f6c5d823f093a01e77f92a11f1bebf3b22e1a409dba6ed5813",
  "time": 1233650820,
  "mediantime": 1233646712,
  "nonce": 145430304,
  "bits": "1d00ffff",
  "difficulty": 1,
  "chainwork": "00000000000000000000000000000000000000000000000000000b170b170b17",
  "nTx": 1,
  "previousblockhash": "000000007493f6865773ffcea485a510b96794b918d291dc005046f47def1c2d",
  "nextblockhash": "00000000b5194b18f6b81b445b7cf29dd0e96f6f2fb1402740256994cb8a8778",
  "strippedsize": 216,
  "size": 216,
  "weight": 864,
  "tx": [
    {
      "txid": "38d26ecb422bd5f6c5d823f093a01e77f92a11f1bebf3b22e1a409dba6ed5813",
      "hash": "38d26ecb422bd5f6c5d823f093a01e77f92a11f1bebf3b22e1a409dba6ed5813",
      "version": 1,
      "size": 135,
      "vsize": 135,
      "weight": 540,
      "locktime": 0,
      "vin": [
        {
          "coinbase": "04ffff001d02b106",
          "sequence": 4294967295
        }
      ],
      "vout": [
        {
          "value": 50.0,
          "n": 0,
          "scriptPubKey": {
            "asm": "040cf9ab50dfc70dcb34c281902264bb1e1cc131809b03aaa46709735e568d4652367d48b179f2edb13c0c375cfbbd2bbc509d650c1bfb17447fffd52159337294 OP_CHECKSIG",
            "desc": "pk(040cf9ab50dfc70dcb34c281902264bb1e1cc131809b03aaa46709735e568d4652367d48b179f2edb13c0c375cfbbd2bbc509d650c1bfb17447fffd52159337294)#p4j909pq",
            "hex": "41040cf9ab50dfc70dcb34c281902264bb1e1cc131809b03aaa46709735e568d4652367d48b179f2edb13c0c375cfbbd2bbc509d650c1bfb17447fffd52159337294ac",
            "type": "pubkey"
          }
        }
      ],
      "hex": "01000000010000000000000000000000000000000000000000000000000000000000000000ffffffff0804ffff001d02b106ffffffff0100f2052a010000004341040cf9ab50dfc70dcb34c281902264bb1e1cc131809b03aaa46709735e568d4652367d48b179f2edb13c0c375cfbbd2bbc509d650c1bfb17447fffd52159337294ac00000000"
    }
  ]
}