{
  "hash": "0000000085ed5798867e86376ea39cf26c1aab9cfa6c3c56c543bf81f7a9d0a6",
  "confirmations": 51912,
  "height": 1186,
  "version": 1,
  "versionHex": "00000001",
  "merkleroot": "9122adab59514e582d7d09c8ec0d596388caf91a4b06442ace71f61f6d38d9d0",
  "time": 1232489717,
  "mediantime": 1232485760,
  "nonce": 3476324630,
  "bits": "1d00ffff",
  "difficulty": 1,
  "chainwork": "000000000000000000000000000000000000000000000000000004a304a304a3",
  "nTx": 1,
  "previousblockhash": "00000000d6da0422931a51d5fb47379f6330d9e608b1c340942d404bcd56cfc8",
  "nextblockhash": "00000000106621b9a59c3aec765c8a5f1932881bc86e43b747e371ab6cdfdf5f",
  "strippedsize": 216,
  "size": 216,
  "weight": 864,
  "tx": [
    {
      "txid": "9122adab59514e582d7d09c8ec0d596388caf91a4b06442ace71f61f6d38d9d0",
      "hash": "9122adab59514e582d7d09c8ec0d596388caf91a4b06442ace71f61f6d38d9d0",
      "version": 1,
      "size": 135,
      "vsize": 135,
      "weight": 540,
      "locktime": 0,
      "vin": [
        {
          "coinbase": "04ffff001d027808",
          "sequence": 4294967295
        }
      ],
      "vout": [
        {
          "value": 50.0,
          "n": 0,
          "scriptPubKey": {
            "asm": "04edf5d4e74c16fbbc8cea74d38cc34bedabbff0d2ae21f13784f8a61c53e64b119875eea695d7cd964221509eb920175b81f2881585b6f3c18926889d5485b08c OP_CHECKSIG",
            "desc": "pk(04edf5d4e74c16fbbc8cea74d38cc34bedabbff0d2ae21f13784f8a61c53e64b119875eea695d7cd964221509eb920175b81f2881585b6f3c18926889d5485b08c)#vsav772q",
            "hex": "4104edf5d4e74c16fbbc8cea74d38cc34bedabbff0d2ae21f13784f8a61c53e64b119875eea695d7cd964221509eb920175b81f2881585b6f3c18926889d5485b08cac",
            "type": "pubkey"
          }
        }
      ],
      "hex": "01000000010000000000000000000000000000000000000000000000000000000000000000ffffffff0804ffff001d027808ffffffff0100f2052a01000000434104edf5d4e74c16fbbc8cea74d38cc34bedabbff0d2ae21f13784f8a61c53e64b119875eea695d7cd964221509eb920175b81f2881585b6f3c18926889d5485b08cac00000000"
    }
  ]
}