{
  "hash": "0000000029aa1d7049524001c25b11e188f1a4b873790b2cee7b87cce3f49b96",
  "confirmations": 46303,
  "height": 6795,
  "version": 1,
  "versionHex": "00000001",
  "merkleroot": "380d4201754f1f8d2608739e3f5843af42bd6429469ec5c3e79372270d85058f",
  "time": 1236554921,
  "mediantime": 1236551547,
  "nonce": 262631009,
  "bits": "1d00ffff",
  "difficulty": 1,
  "chainwork": "00000000000000000000000000000000000000000000000000001a8c1a8c1a8c",
  "nTx": 1,
  "previousblockhash": "000000003c2d4f7119bf1188afd841479cd9b512f8c9ffcd8bb78be0f893c726",
  "nextblockhash": "00000000fdfa6c237d959076bb37ff2826d176641395fee32b917c66bae09375",
  "strippedsize": 216,
  "size": 216,
  "weight": 864,
  "tx": [
    {
      "txid": "380d4201754f1f8d2608739e3f5843af42bd6429469ec5c3e79372270d85058f",
      "hash": "380d4201754f1f8d2608739e3f5843af42bd6429469ec5c3e79372270d85058f",
      "version": 1,
      "size": 135,
      "vsize": 135,
      "weight": 540,
      "locktime": 0,
      "vin": [
        {
          "coinbase": "04ffff001d02570c",
          "sequence": 4294967295
        }
      ],
      "vout": [
        {
          "value": 50.0,
          "n": 0,
          "scriptPubKey": {
            "asm": "0436cced4ad28d76b63df1d8e9e978368360c5517933083bbf9355f64eab8308bc818b34b1644cc31378ccd7a7572932886f3349c5ce524131c46cdcfc969b6183 OP_CHECKSIG",
            "desc": "pk(0436cced4ad28d76b63df1d8e9e978368360c5517933083bbf9355f64eab8308bc818b34b1644cc31378ccd7a7572932886f3349c5ce524131c46cdcfc969b6183)#uvnwkx4e",
            "hex": "410436cced4ad28d76b63df1d8e9e978368360c5517933083bbf9355f64eab8308bc818b34b1644cc31378ccd7a7572932886f3349c5ce524131c46cdcfc969b6183ac",
            "type": "pubkey"
          }
        }
      ],
      "hex": "01000000010000000000000000000000000000000000000000000000000000000000000000ffffffff0804ffff001d02570cffffffff0100f2052a0100000043410436cced4ad28d76b63df1d8e9e978368360c5517933083bbf9355f64eab8308bc818b34b1644cc31378ccd7a7572932886f3349c5ce524131c46cdcfc969b6183ac00000000"
    }
  ]
}