{
  "hash": "00000000c43d7b93b59627eabebb2650c42570f311767d3f720a617dcc0b0930",
  "confirmations": 45396,
  "height": 7702,
  "version": 1,
  "versionHex": "00000001",
  "merkleroot": "2ffe4239d3b3ba978f16c99f9dbca36be0036a7143622e83f94d502a9039f4b0",
  "time": 1237240784,
  "mediantime": 1237237569,
  "nonce": 2806294785,
  "bits": "1d00ffff",
  "difficulty": 1,
  "chainwork": "00000000000000000000000000000000000000000000000000001e171e171e17",
  "nTx": 1,
  "previousblockhash": "000000001b5b9e27fa2f90ab9ba101b4bc9efe9b80ba3b1f3e3a0c0f25a14f60",
  "nextblockhash": "00000000f3dcffd5da3042beb308cb56f9a2412a78b8e899bdbfd15bf50deff3",
  "strippedsize": 216,
  "size": 216,
  "weight": 864,
  "tx": [
    {
      "txid": "2ffe4239d3b3ba978f16c99f9dbca36be0036a7143622e83f94d502a9039f4b0",
      "hash": "2ffe4239d3b3ba978f16c99f9dbca36be0036a7143622e83f94d502a9039f4b0",
      "version": 1,
      "size": 135,
      "vsize": 135,
      "weight": 540,
      "locktime": 0,
      "vin": [
        {
          "coinbase": "04ffff001d022d04",
          "sequence": 4294967295
        }
      ],
      "vout": [
        {
          "value": 50.0,
          "n": 0,
          "scriptPubKey": {
            "asm": "0489d0f2f07b1929d50af2fd3bfcb2432ca35cf10d481f16f86472cba81f820ec197a3e53fe2ccb63f733226a1abc25626f29868e36bb0875538b950a1457a32b3 OP_CHECKSIG",
            "desc": "pk(0489d0f2f07b1929d50af2fd3bfcb2432ca35cf10d481f16f86472cba81f820ec197a3e53fe2ccb63f733226a1abc25626f29868e36bb0875538b950a1457a32b3)#520ul50e",
            "hex": "410489d0f2f07b1929d50af2fd3bfcb2432ca35cf10d481f16f86472cba81f820ec197a3e53fe2ccb63f733226a1abc25626f29868e36bb0875538b950a1457a32b3ac",
            "type": "pubkey"
          }
        }
      ],
      "hex": "01000000010000000000000000000000000000000000000000000000000000000000000000ffffffff0804ffff001d022d04ffffffff0100f2052a0100000043410489d0f2f07b1929d50af2fd3bfcb2432ca35cf10d481f16f86472cba81f820ec197a3e53fe2ccb63f733226a1abc25626f29868e36bb0875538b950a1457a32b3ac00000000"
    }
  ]
}