{
  "hash": "000000003457e576d0076d86f135eb895290bac9a48eb080ecee6c3c5b633fa7",
  "confirmations": 46784,
  "height": 6314,
  "version": 1,
  "versionHex": "00000001",
  "merkleroot": "38d463789bc2a195173f00ee34b3aff4fc154dd198d298bcb5a6a24b1b2d9c12",
  "time": 1236183052,
  "mediantime": 1236178764,
  "nonce": 2801369909,
  "bits": "1d00ffff",
  "difficulty": 1,
  "chainwork": "000000000000000000000000000000000000000000000000000018ab18ab18ab",
  "nTx": 1,
  "previousblockhash": "00000000d74c8248447e9303185424232883e10679a38547a417d1dde615baff",
  "nextblockhash": "00000000c19d343702bf8fa5b9f86be983dcc99f471267a4f84e5b22462c4269",
  "strippedsize": 215,
  "size": 215,
  "weight": 860,
  "tx": [
    {
      "txid": "38d463789bc2a195173f00ee34b3aff4fc154dd198d298bcb5a6a24b1b2d9c12",
      "hash": "38d463789bc2a195173f00ee34b3aff4fc154dd198d298bcb5a6a24b1b2d9c12",
      "version": 1,
      "size": 134,
      "vsize": 134,
      "weight": 536,
      "locktime": 0,
      "vin": [
        {
          "coinbase": "04ffff001d015b",
          "sequence": 4294967295
        }
      ],
      "vout": [
        {
          "value": 50.0,
          "n": 0,
          "scriptPubKey": {
            "asm": "047b04ef41f6cd016b44a7813d474fd2c7f9eb27e1c9f97545881402b53cea6742b53e66432ba4a379e402a3989336910b9295fe02e04debc968b2664175946a86 OP_CHECKSIG",
            "desc": "pk(047b04ef41f6cd016b44a7813d474fd2c7f9eb27e1c9f97545881402b53cea6742b53e66432ba4a379e402a3989336910b9295fe02e04debc968b2664175946a86)#mga9rcz5",
            "hex": "41047b04ef41f6cd016b44a7813d474fd2c7f9eb27e1c9f97545881402b53cea6742b53e66432ba4a379e402a3989336910b9295fe02e04debc968b2664175946a86ac",
            "type": "pubkey"
          }
        }
      ],
      "hex": "01000000010000000000000000000000000000000000000000000000000000000000000000ffffffff0704ffff001d015bffffffff0100f2052a010000004341047b04ef41f6cd016b44a7813d474fd2c7f9eb27e1c9f97545881402b53cea6742b53e66432ba4a379e402a3989336910b9295fe02e04debc968b2664175946a86ac00000000"
    }
  ]
}