{
  "hash": "000000008a37ae701edf7e30c135accecf834ded9347b7126519c27925fd80a9",
  "confirmations": 51959,
  "height": 1139,
  "version": 1,
  "versionHex": "00000001",
  "merkleroot": "7cc34aa0594d8610d198d79e9a8ed026a66ed0aeb309a5d338169c632b9f03e8",
  "time": 1232451465,
  "mediantime": 1232448076,
  "nonce": 194189937,
  "bits": "1d00ffff",
  "difficulty": 1,
  "chainwork": "0000000000000000000000000000000000000000000000000000047404740474",
  "nTx": 1,
  "previousblockhash": "00000000741be2ff27c475aef18342f43fb5e59eff3e23552328ca190a0ab195",
  "nextblockhash": "000000000b6a9423f7bf2221f209b72870a5b15d9bafcc5158e9a04678ed5062",
  "strippedsize": 216,
  "size": 216,
  "weight": 864,
  "tx": [
    {
      "txid": "7cc34aa0594d8610d198d79e9a8ed026a66ed0aeb309a5d338169c632b9f03e8",
      "hash": "7cc34aa0594d8610d198d79e9a8ed026a66ed0aeb309a5d338169c632b9f03e8",
      "version": 1,
      "size": 135,
      "vsize": 135,
      "weight": 540,
      "locktime": 0,
      "vin": [
        {
          "coinbase": "04ffff001d02ac01",
          "sequence": 4294967295
        }
      ],
      "vout": [
        {
          "value": 50.0,
          "n": 0,
          "scriptPubKey": {
            "asm": "0427d582784cd4bf85e28497b640728a7eb1b7e01c988010d55b67bbe32fe1dcb24cd2bb4804f3ed0aec1246f98ecef6074da6352b5119d5b6a3be8e0bbb23da74 OP_CHECKSIG",
            "desc": "pk(0427d582784cd4bf85e28497b640728a7eb1b7e01c988010d55b67bbe32fe1dcb24cd2bb4804f3ed0aec1246f98ecef6074da6352b5119d5b6a3be8e0bbb23da74)#uje48c5h",
            "hex": "410427d582784cd4bf85e28497b640728a7eb1b7e01c988010d55b67bbe32fe1dcb24cd2bb4804f3ed0aec1246f98ecef6074da6352b5119d5b6a3be8e0bbb23da74ac",
            "type": "pubkey"
          }
        }
      ],
      "hex": "01000000010000000000000000000000000000000000000000000000000000000000000000ffffffff0804ffff001d02ac01ffffffff0100f2052a0100000043410427d582784cd4bf85e28497b640728a7eb1b7e01c988010d55b67bbe32fe1dcb24cd2bb4804f3ed0aec1246f98ecef6074da6352b5119d5b6a3be8e0bbb23da74ac00000000"
    }
  ]
}