{
  "hash": "00000000fb5e0e40c617769e563e85ac142332b6a236f1f4acc0cdc45a446c55",
  "confirmations": 43809,
  "height": 9289,
  "version": 1,
  "versionHex": "00000001",
  "merkleroot": "52d03dfa579299395fb4aa53112fc302bdb0319d2a5d85080562cabf87b4728b",
  "time": 1238466235,
  "mediantime": 1238461507,
  "nonce": 641051676,
  "bits": "1d00ffff",
  "difficulty": 1,
  "chainwork": "0000000000000000000000000000000000000000000000000000244a244a244a",
  "nTx": 1,
  "previousblockhash": "0000000035e94598de6570831e3401cc581c0b2aba1a0bb8af47ddf0b7788c19",
  "nextblockhash": "000000002d4a48f6027b3fa3a00994dfb36be703ee13a743f13e80bdcfe78b15",
  "strippedsize": 216,
  "size": 216,
  "weight": 864,
  "tx": [
    {
      "txid": "52d03dfa579299395fb4aa53112fc302bdb0319d2a5d85080562cabf87b4728b",
      "hash": "52d03dfa579299395fb4aa53112fc302bdb0319d2a5d85080562cabf87b4728b",
      "version": 1,
      "size": 135,
      "vsize": 135,
      "weight": 540,
      "locktime": 0,
      "vin": [
        {
          "coinbase": "04ffff001d029501",
          "sequence": 4294967295
        }
      ],
      "vout": [
        {
          "value": 50.0,
          "n": 0,
          "scriptPubKey": {
            "asm": "043ac94d6efb53a6275195e11d5074cf14b152af33c8cca84fb40e20fc698221f60809da70e222066235b16edff670051903e3973a11d7b24a5f9b5c043b53962d OP_CHECKSIG",
            "desc": "pk(043ac94d6efb53a6275195e11d5074cf14b152af33c8cca84fb40e20fc698221f60809da70e222066235b16edff670051903e3973a11d7b24a5f9b5c043b53962d)#jg67hp48",
            "hex": "41043ac94d6efb53a6275195e11d5074cf14b152af33c8cca84fb40e20fc698221f60809da70e222066235b16edff670051903e3973a11d7b24a5f9b5c043b53962dac",
            "type": "pubkey"
          }
        }
      ],
      "hex": "01000000010000000000000000000000000000000000000000000000000000000000000000ffffffff0804ffff001d029501ffffffff0100f2052a010000004341043ac94d6efb53a6275195e11d5074cf14b152af33c8cca84fb40e20fc698221f60809da70e222066235b16edff670051903e3973a11d7b24a5f9b5c043b53962dac00000000"
    }
  ]
}