{
  "hash": "00000000fb64b966746c14a84f563b59adc1202b65134d22c49254a688becccc",
  "confirmations": 43916,
  "height": 9182,
  "version": 1,
  "versionHex": "00000001",
  "merkleroot": "8a200d8aa3744fb9ec95f4b65cb94850725bf2cea9f2d6d3fc04f44c56f57c52",
  "time": 1238387982,
  "mediantime": 1238384840,
  "nonce": 739163699,
  "bits": "1d00ffff",
  "difficulty": 1,
  "chainwork": "000000000000000000000000000000000000000000000000000023df23df23df",
  "nTx": 1,
  "previousblockhash": "00000000e5a590bf0cad56ef68b0f9a276c48d15f34c03892a0ad47aa918e8f9",
  "nextblockhash": "00000000969d282687ef375d72be4042b9ee819bad53632164d406f16f0cd4bc",
  "strippedsize": 216,
  "size": 216,
  "weight": 864,
  "tx": [
    {
      "txid": "8a200d8aa3744fb9ec95f4b65cb94850725bf2cea9f2d6d3fc04f44c56f57c52",
      "hash": "8a200d8aa3744fb9ec95f4b65cb94850725bf2cea9f2d6d3fc04f44c56f57c52",
      "version": 1,
      "size": 135,
      "vsize": 135,
      "weight": 540,
      "locktime": 0,
      "vin": [
        {
          "coinbase": "04ffff001d02ef09",
          "sequence": 4294967295
        }
      ],
      "vout": [
        {
          "value": 50.0,
          "n": 0,
          "scriptPubKey": {
            "asm": "04cea183dfca499da6dd4cdc853d5498384ce82ebd8af4ee12b0c428555e5dd00f39697a6ec1fb4d2b1c54fc51293e8bd37827264f3f86b79c9af2d716b9b8b57d OP_CHECKSIG",
            "desc": "pk(04cea183dfca499da6dd4cdc853d5498384ce82ebd8af4ee12b0c428555e5dd00f39697a6ec1fb4d2b1c54fc51293e8bd37827264f3f86b79c9af2d716b9b8b57d)#9tf8v9w6",
            "hex": "4104cea183dfca499da6dd4cdc853d5498384ce82ebd8af4ee12b0c428555e5dd00f39697a6ec1fb4d2b1c54fc51293e8bd37827264f3f86b79c9af2d716b9b8b57dac",
            "type": "pubkey"
          }
        }
      ],
      "hex": "01000000010000000000000000000000000000000000000000000000000000000000000000ffffffff0804ffff001d02ef09ffffffff0100f2052a01000000434104cea183dfca499da6dd4cdc853d5498384ce82ebd8af4ee12b0c428555e5dd00f39697a6ec1fb4d2b1c54fc51293e8bd37827264f3f86b79c9af2d716b9b8b57dac00000000"
    }
  ]
}