{
  "hash": "000000000b907129f8d5d8619f38d09318549494964ffc1f1a687340dbbbf866",
  "confirmations": 48004,
  "height": 5094,
  "version": 1,
  "versionHex": "00000001",
  "merkleroot": "1a6d3c8ab953ee9b5c802ea123a58e56adcfb801915d106e1933acd53ecb8d62",
  "time": 1235211658,
  "mediantime": 1235208575,
  "nonce": 3764766243,
  "bits": "1d00ffff",
  "difficulty": 1,
  "chainwork": "000000000000000000000000000000000000000000000000000013e713e713e7",
  "nTx": 1,
  "previousblockhash": "00000000823171d43b172810bd2ad643dd093f229251e2e64fe6c477ff556340",
  "nextblockhash": "00000000c53755573f641113a404aad6f3766d6f7925eef27ded88a22f52dae8",
  "strippedsize": 216,
  "size": 216,
  "weight": 864,
  "tx": [
    {
      "txid": "1a6d3c8ab953ee9b5c802ea123a58e56adcfb801915d106e1933acd53ecb8d62",
      "hash": "1a6d3c8ab953ee9b5c802ea123a58e56adcfb801915d106e1933acd53ecb8d62",
      "version": 1,
      "size": 135,
      "vsize": 135,
      "weight": 540,
      "locktime": 0,
      "vin": [
        {
          "coinbase": "04ffff001d02e608",
          "sequence": 4294967295
        }
      ],
      "vout": [
        {
          "value": 50.0,
          "n": 0,
          "scriptPubKey": {
            "asm": "048e3e1bc5bb9dcf0e46f868cf7beb0c64636e596f3d789f48bee7d5c00656368ff3e7824abc6a218bb1b571d460f54357dd870a78bbbc82082d5afdbbb1e8590c OP_CHECKSIG",
            "desc": "pk(048e3e1bc5bb9dcf0e46f868cf7beb0c64636e596f3d789f48bee7d5c00656368ff3e7824abc6a218bb1b571d460f54357dd870a78bbbc82082d5afdbbb1e8590c)#mxyqyug6",
            "hex": "41048e3e1bc5bb9dcf0e46f868cf7beb0c64636e596f3d789f48bee7d5c00656368ff3e7824abc6a218bb1b571d460f54357dd870a78bbbc82082d5afdbbb1e8590cac",
            "type": "pubkey"
          }
        }
      ],
      "hex": "01000000010000000000000000000000000000000000000000000000000000000000000000ffffffff0804ffff001d02e608ffffffff0100f2052a010000004341048e3e1bc5bb9dcf0e46f868cf7beb0c64636e596f3d789f48bee7d5c00656368ff3e7824abc6a218bb1b571d460f54357dd870a78bbbc82082d5afdbbb1e8590cac00000000"
    }
  ]
}