{
  "hash": "000000000bc1098aa151e3f9666914be2db86f9f1b6372f20a8013a2ef587934",
  "confirmations": 46985,
  "height": 6113,
  "version": 1,
  "versionHex": "00000001",
  "merkleroot": "5b5aff7b64b689eda5ad63880f1dca789fcf3a8360a80339c5a4daebff566fd7",
  "time": 1236018702,
  "mediantime": 1236014724,
  "nonce": 4058484740,
  "bits": "1d00ffff",
  "difficulty": 1,
  "chainwork": "000000000000000000000000000000000000000000000000000017e217e217e2",
  "nTx": 1,
  "previousblockhash": "0000000016d49814f2a12452f3d3d37b846be12702f9f3932c4eb9c4d3eb39ef",
  "nextblockhash": "00000000846e60060baaaf0d930c2738f287534f72d5b6cd4e9ef888da7652cf",
  "strippedsize": 216,
  "size": 216,
  "weight": 864,
  "tx": [
    {
      "txid": "5b5aff7b64b689eda5ad63880f1dca789fcf3a8360a80339c5a4daebff566fd7",
      "hash": "5b5aff7b64b689eda5ad63880f1dca789fcf3a8360a80339c5a4daebff566fd7",
      "version": 1,
      "size": 135,
      "vsize": 135,
      "weight": 540,
      "locktime": 0,
      "vin": [
        {
          "coinbase": "04ffff001d020207",
          "sequence": 4294967295
        }
      ],
      "vout": [
        {
          "value": 50.0,
          "n": 0,
          "scriptPubKey": {
            "asm": "04c16bb6bad5867ff2a9e44c3dfab9b1371585853db2d10c1b1808daab0b31e829986ec5206341e8e710e1eee687a9133e094c030d42d51d63b768094dbe65895f OP_CHECKSIG",
            "desc": "pk(04c16bb6bad5867ff2a9e44c3dfab9b1371585853db2d10c1b1808daab0b31e829986ec5206341e8e710e1eee687a9133e094c030d42d51d63b768094dbe65895f)#fwlpvcmz",
            "hex": "4104c16bb6bad5867ff2a9e44c3dfab9b1371585853db2d10c1b1808daab0b31e829986ec5206341e8e710e1eee687a9133e094c030d42d51d63b768094dbe65895fac",
            "type": "pubkey"
          }
        }
      ],
      "hex": "01000000010000000000000000000000000000000000000000000000000000000000000000ffffffff0804ffff001d020207ffffffff0100f2052a01000000434104c16bb6bad5867ff2a9e44c3dfab9b1371585853db2d10c1b1808daab0b31e829986ec5206341e8e710e1eee687a9133e094c030d42d51d63b768094dbe65895fac00000000"
    }
  ]
}