{
  "hash": "00000000f78bf2601acff984d735bb119ffa8018365b19005c5faffa48e91a98",
  "confirmations": 45210,
  "height": 7888,
  "version": 1,
  "versionHex": "00000001",
  "merkleroot": "413057437abb878727b43c24ff5a8ab8fe260d9e115d1a44607c9ad20dbf1d59",
  "time": 1237382190,
  "mediantime": 1237380526,
  "nonce": 79928170,
  "bits": "1d00ffff",
  "difficulty": 1,
  "chainwork": "00000000000000000000000000000000000000000000000000001ed11ed11ed1",
  "nTx": 1,
  "previousblockhash": "00000000f8006e255ca799402a87be613573d181a450a42ddd6fa2ad2d56afcc",
  "nextblockhash": "0000000005e0c213fa2cfdd581fd5a3a3e10ac72b602067f9abd93be6c5f4b45",
  "strippedsize": 215,
  "size": 215,
  "weight": 860,
  "tx": [
    {
      "txid": "413057437abb878727b43c24ff5a8ab8fe260d9e115d1a44607c9ad20dbf1d59",
      "hash": "413057437abb878727b43c24ff5a8ab8fe260d9e115d1a44607c9ad20dbf1d59",
      "version": 1,
      "size": 134,
      "vsize": 134,
      "weight": 536,
      "locktime": 0,
      "vin": [
        {
          "coinbase": "04ffff001d012f",
          "sequence": 4294967295
        }
      ],
      "vout": [
        {
          "value": 50.0,
          "n": 0,
          "scriptPubKey": {
            "asm": "04a29ba404bf938b4d718076df0a24ef4be96819d802f6a0467c6d9e1022775165e51182abe76d9c772b91b001e6869930d9603f6b33ab65a71487ab2bb1f136b9 OP_CHECKSIG",
            "desc": "pk(04a29ba404bf938b4d718076df0a24ef4be96819d802f6a0467c6d9e1022775165e51182abe76d9c772b91b001e6869930d9603f6b33ab65a71487ab2bb1f136b9)#nzajsh0l",
            "hex": "4104a29ba404bf938b4d718076df0a24ef4be96819d802f6a0467c6d9e1022775165e51182abe76d9c772b91b001e6869930d9603f6b33ab65a71487ab2bb1f136b9ac",
            "type": "pubkey"
          }
        }
      ],
      "hex": "01000000010000000000000000000000000000000000000000000000000000000000000000ffffffff0704ffff001d012fffffffff0100f2052a01000000434104a29ba404bf938b4d718076df0a24ef4be96819d802f6a0467c6d9e1022775165e51182abe76d9c772b91b001e6869930d9603f6b33ab65a71487ab2bb1f136b9ac00000000"
    }
  ]
}