{
  "hash": "00000000f68defbfbbf860c00270e04276060bed62344aa958806493cca61920",
  "confirmations": 45441,
  "height": 7657,
  "version": 1,
  "versionHex": "00000001",
  "merkleroot": "cd674aba6bf610bc1bafeee02abba6b3a09d6d8ec2a19d62e3526cc35ba2d9af",
  "time": 1237208041,
  "mediantime": 1237203381,
  "nonce": 3913075751,
  "bits": "1d00ffff",
  "difficulty": 1,
  "chainwork": "00000000000000000000000000000000000000000000000000001dea1dea1dea",
  "nTx": 1,
  "previousblockhash": "00000000a2a4f737e46722e45b28d84635999dfbf20e1a0d6b5a6cd31fa1fad3",
  "nextblockhash": "00000000d431d2d4c83af8e071ddca5a02074f7efb1d5b53c6a9b4c406ec3797",
  "strippedsize": 216,
  "size": 216,
  "weight": 864,
  "tx": [
    {
      "txid": "cd674aba6bf610bc1bafeee02abba6b3a09d6d8ec2a19d62e3526cc35ba2d9af",
      "hash": "cd674aba6bf610bc1bafeee02abba6b3a09d6d8ec2a19d62e3526cc35ba2d9af",
      "version": 1,
      "size": 135,
      "vsize": 135,
      "weight": 540,
      "locktime": 0,
      "vin": [
        {
          "coinbase": "04ffff001d026b03",
          "sequence": 4294967295
        }
      ],
      "vout": [
        {
          "value": 50.0,
          "n": 0,
          "scriptPubKey": {
            "asm": "04157ac5ecb41c9f22a8bd7821556b46cc757c8eb08dc812906039f5d4f141944cfa298bc799f36f15c9f23ac4dfb12338889d1d5c269c56d512968e2fe58176cb OP_CHECKSIG",
            "desc": "pk(04157ac5ecb41c9f22a8bd7821556b46cc757c8eb08dc812906039f5d4f141944cfa298bc799f36f15c9f23ac4dfb12338889d1d5c269c56d512968e2fe58176cb)#sllpw0vh",
            "hex": "4104157ac5ecb41c9f22a8bd7821556b46cc757c8eb08dc812906039f5d4f141944cfa298bc799f36f15c9f23ac4dfb12338889d1d5c269c56d512968e2fe58176cbac",
            "type": "pubkey"
          }
        }
      ],
      "hex": "01000000010000000000000000000000000000000000000000000000000000000000000000ffffffff0804ffff001d026b03ffffffff0100f2052a01000000434104157ac5ecb41c9f22a8bd7821556b46cc757c8eb08dc812906039f5d4f141944cfa298bc799f36f15c9f23ac4dfb12338889d1d5c269c56d512968e2fe58176cbac00000000"
    }
  ]
}