{
  "hash": "000000000fbdfa8545ab0296f7aaa0de0d94a1ea60426cfdccd7fe661baa5a07",
  "confirmations": 47586,
  "height": 5512,
  "version": 1,
  "versionHex": "00000001",
  "merkleroot": "346f64bc1aca76e1b13b440b912ecde7787e701cc07850825bb84e9985f88ad7",
  "time": 1235531059,
  "mediantime": 1235526867,
  "nonce": 1557958940,
  "bits": "1d00ffff",
  "difficulty": 1,
  "chainwork": "0000000000000000000000000000000000000000000000000000158915891589",
  "nTx": 1,
  "previousblockhash": "000000000c0cfb45eb088805bacb26e3258fb826384f7ac0c190cbdcc269de5d",
  "nextblockhash": "00000000074b4c7a212e7d65eadc4fbb88ee8f7de3d75abb1eadb5c580395252",
  "strippedsize": 216,
  "size": 216,
  "weight": 864,
  "tx": [
    {
      "txid": "346f64bc1aca76e1b13b440b912ecde7787e701cc07850825bb84e9985f88ad7",
      "hash": "346f64bc1aca76e1b13b440b912ecde7787e701cc07850825bb84e9985f88ad7",
      "version": 1,
      "size": 135,
      "vsize": 135,
      "weight": 540,
      "locktime": 0,
      "vin": [
        {
          "coinbase": "04ffff001d02de05",
          "sequence": 4294967295
        }
      ],
      "vout": [
        {
          "value": 50.0,
          "n": 0,
          "scriptPubKey": {
            "asm": "04a9736f281285ff62197dabe515202d62acf0519ee19e2d26efbeeca90cf9f77d29f25abe75a178d2c6d779d271e6e63922c711b5bf4fc0c10e84aadb23ed70d6 OP_CHECKSIG",
            "desc": "pk(04a9736f281285ff62197dabe515202d62acf0519ee19e2d26efbeeca90cf9f77d29f25abe75a178d2c6d779d271e6e63922c711b5bf4fc0c10e84aadb23ed70d6)#8uv3fcq3",
            "hex": "4104a9736f281285ff62197dabe515202d62acf0519ee19e2d26efbeeca90cf9f77d29f25abe75a178d2c6d779d271e6e63922c711b5bf4fc0c10e84aadb23ed70d6ac",
            "type": "pubkey"
          }
        }
      ],
      "hex": "01000000010000000000000000000000000000000000000000000000000000000000000000ffffffff0804ffff001d02de05ffffffff0100f2052a01000000434104a9736f281285ff62197dabe515202d62acf0519ee19e2d26efbeeca90cf9f77d29f25abe75a178d2c6d779d271e6e63922c711b5bf4fc0c10e84aadb23ed70d6ac00000000"
    }
  ]
}