{
  "hash": "000000004a76a6d39a78d55245ad658eae8c760a8a9b03f0969d58db72bc1411",
  "confirmations": 48585,
  "height": 4513,
  "version": 1,
  "versionHex": "00000001",
  "merkleroot": "6195906b1a628ab9d3fea793f236caaa8e4a61a8f57c2a68429c77d4631137d6",
  "time": 1234790578,
  "mediantime": 1234786333,
  "nonce": 208896620,
  "bits": "1d00ffff",
  "difficulty": 1,
  "chainwork": "000000000000000000000000000000000000000000000000000011a211a211a2",
  "nTx": 1,
  "previousblockhash": "000000000b7d91723ba148c84f41bdc68104ec0c6f0aa016c03af1d442933eee",
  "nextblockhash": "000000000936904264b030a2bb864a0b8ac657779c5fdd319a0d683f9571f02a",
  "strippedsize": 215,
  "size": 215,
  "weight": 860,
  "tx": [
    {
      "txid": "6195906b1a628ab9d3fea793f236caaa8e4a61a8f57c2a68429c77d4631137d6",
      "hash": "6195906b1a628ab9d3fea793f236caaa8e4a61a8f57c2a68429c77d4631137d6",
      "version": 1,
      "size": 134,
      "vsize": 134,
      "weight": 536,
      "locktime": 0,
      "vin": [
        {
          "coinbase": "04ffff001d0106",
          "sequence": 4294967295
        }
      ],
      "vout": [
        {
          "value": 50.0,
          "n": 0,
          "scriptPubKey": {
            "asm": "0470851191d1bb8180b389ac8d528c1f49452c2016ad07ba6715b89356a6dbd5b9b53905d55a7d3a802a750af65a78b37c47714efe5dde65c0024aaa80f512587e OP_CHECKSIG",
            "desc": "pk(0470851191d1bb8180b389ac8d528c1f49452c2016ad07ba6715b89356a6dbd5b9b53905d55a7d3a802a750af65a78b37c47714efe5dde65c0024aaa80f512587e)#dqw86f5x",
            "hex": "410470851191d1bb8180b389ac8d528c1f49452c2016ad07ba6715b89356a6dbd5b9b53905d55a7d3a802a750af65a78b37c47714efe5dde65c0024aaa80f512587eac",
            "type": "pubkey"
          }
        }
      ],
      "hex": "01000000010000000000000000000000000000000000000000000000000000000000000000ffffffff0704ffff001d0106ffffffff0100f2052a0100000043410470851191d1bb8180b389ac8d528c1f49452c2016ad07ba6715b89356a6dbd5b9b53905d55a7d3a802a750af65a78b37c47714efe5dde65c0024aaa80f512587eac00000000"
    }
  ]
}