{
  "hash": "00000000d0c78f4f45bd0cab892f82dabeb5b6b40a73111dd29b050e32e7c1ad",
  "confirmations": 50668,
  "height": 2430,
  "version": 1,
  "versionHex": "00000001",
  "merkleroot": "a8c264136d42e1babd8fd1c731a15add317645660add1e0e20532f55115762ec",
  "time": 1233377400,
  "mediantime": 1233373129,
  "nonce": 900640039,
  "bits": "1d00ffff",
  "difficulty": 1,
  "chainwork": "0000000000000000000000000000000000000000000000000000097f097f097f",
  "nTx": 1,
  "previousblockhash": "00000000080472b72cbbd0756553927e2260fa48c580ff4c011282974e74bf3d",
  "nextblockhash": "00000000eaf6d5a6b74911becc470a77b9312e0fd7531adcb06980936d0116e2",
  "strippedsize": 215,
  "size": 215,
  "weight": 860,
  "tx": [
    {
      "txid": "a8c264136d42e1babd8fd1c731a15add317645660add1e0e20532f55115762ec",
      "hash": "a8c264136d42e1babd8fd1c731a15add317645660add1e0e20532f55115762ec",
      "version": 1,
      "size": 134,
      "vsize": 134,
      "weight": 536,
      "locktime": 0,
      "vin": [
        {
          "coinbase": "04ffff001d0137",
          "sequence": 4294967295
        }
      ],
      "vout": [
        {
          "value": 50.0,
          "n": 0,
          "scriptPubKey": {
            "asm": "041ff7e0573fbb66c8e79209e75095d633607c28e052ea4277d6562b8b905456b53aa1d7224649102cf741819546842dff9e27ccadc18642e14c23a556a8d0d5e9 OP_CHECKSIG",
            "desc": "pk(041ff7e0573fbb66c8e79209e75095d633607c28e052ea4277d6562b8b905456b53aa1d7224649102cf741819546842dff9e27ccadc18642e14c23a556a8d0d5e9)#5dqugu9k",
            "hex": "41041ff7e0573fbb66c8e79209e75095d633607c28e052ea4277d6562b8b905456b53aa1d7224649102cf741819546842dff9e27ccadc18642e14c23a556a8d0d5e9ac",
            "type": "pubkey"
          }
        }
      ],
      "hex": "01000000010000000000000000000000000000000000000000000000000000000000000000ffffffff0704ffff001d0137ffffffff0100f2052a010000004341041ff7e0573fbb66c8e79209e75095d633607c28e052ea4277d6562b8b905456b53aa1d7224649102cf741819546842dff9e27ccadc18642e14c23a556a8d0d5e9ac00000000"
    }
  ]
}