{
  "hash": "000000009a6420e6e84a56b9e6c56b15aa3836d168f254bbfb05a0ce6599cc45",
  "confirmations": 46752,
  "height": 6346,
  "version": 1,
  "versionHex": "00000001",
  "merkleroot": "feb55c8dc03817139a65c4e553ee0b0b1cb3006844ce0d607a94a780a4e4b2c2",
  "time": 1236212297,
  "mediantime": 1236206583,
  "nonce": 684662046,
  "bits": "1d00ffff",
  "difficulty": 1,
  "chainwork": "000000000000000000000000000000000000000000000000000018cb18cb18cb",
  "nTx": 1,
  "previousblockhash": "00000000999f159b0f6ae26078f331d5d20aa65b17ab58b8b41422885eaf4b25",
  "nextblockhash": "000000000d01f01bdf97b4cb90133fc9f2e20a61e1cd62a43101f5fdfd88eb11",
  "strippedsize": 216,
  "size": 216,
  "weight": 864,
  "tx": [
    {
      "txid": "feb55c8dc03817139a65c4e553ee0b0b1cb3006844ce0d607a94a780a4e4b2c2",
      "hash": "feb55c8dc03817139a65c4e553ee0b0b1cb3006844ce0d607a94a780a4e4b2c2",
      "version": 1,
      "size": 135,
      "vsize": 135,
      "weight": 540,
      "locktime": 0,
      "vin": [
        {
          "coinbase": "04ffff001d02c600",
          "sequence": 4294967295
        }
      ],
      "vout": [
        {
          "value": 50.0,
          "n": 0,
          "scriptPubKey": {
            "asm": "0488484e278facd1febaee5ffd209ae1ffd78c49223677d54f67d89c98315bc3a817e25dfaf1a76ca5c22d4839cfe622d90886f6df1a103ab17a199cc6c95316a9 OP_CHECKSIG",
            "desc": "pk(0488484e278facd1febaee5ffd209ae1ffd78c49223677d54f67d89c98315bc3a817e25dfaf1a76ca5c22d4839cfe622d90886f6df1a103ab17a199cc6c95316a9)#kq0cs5fc",
            "hex": "410488484e278facd1febaee5ffd209ae1ffd78c49223677d54f67d89c98315bc3a817e25dfaf1a76ca5c22d4839cfe622d90886f6df1a103ab17a199cc6c95316a9ac",
            "type": "pubkey"
          }
        }
      ],
      "hex": "01000000010000000000000000000000000000000000000000000000000000000000000000ffffffff0804ffff001d02c600ffffffff0100f2052a0100000043410488484e278facd1febaee5ffd209ae1ffd78c49223677d54f67d89c98315bc3a817e25dfaf1a76ca5c22d4839cfe622d90886f6df1a103ab17a199cc6c95316a9ac00000000"
    }
  ]
}