{
  "hash": "00000000f9be3ef6b7c1dabb77ed79d195fe16865a64d331e9ccee6d3c05cd76",
  "confirmations": 45106,
  "height": 7992,
  "version": 1,
  "versionHex": "00000001",
  "merkleroot": "5447cc09da657e5131782c332b2ecda607389cc1f8d7ff9952b81a1e9229e486",
  "time": 1237457997,
  "mediantime": 1237453754,
  "nonce": 4082826549,
  "bits": "1d00ffff",
  "difficulty": 1,
  "chainwork": "00000000000000000000000000000000000000000000000000001f391f391f39",
  "nTx": 1,
  "previousblockhash": "00000000d8699db19ceba1be6407e2b79fb8620d631ede772e70c26a9cd059af",
  "nextblockhash": "000000005a4e3d0a0d7c4374759f6fd17e95f99bcd6d16d43d3c0358ddd04816",
  "strippedsize": 216,
  "size": 216,
  "weight": 864,
  "tx": [
    {
      "txid": "5447cc09da657e5131782c332b2ecda607389cc1f8d7ff9952b81a1e9229e486",
      "hash": "5447cc09da657e5131782c332b2ecda607389cc1f8d7ff9952b81a1e9229e486",
      "version": 1,
      "size": 135,
      "vsize": 135,
      "weight": 540,
      "locktime": 0,
      "vin": [
        {
          "coinbase": "04ffff001d025c09",
          "sequence": 4294967295
        }
      ],
      "vout": [
        {
          "value": 50.0,
          "n": 0,
          "scriptPubKey": {
            "asm": "0421b84e50973c710bfd73e381c999ce6c637bfe5c1143bdf7867f7cc811605a567e2eb8fcfc79a82b16568f0b63e35246def6dbcc2f5c81600535ac1d541b40b5 OP_CHECKSIG",
            "desc": "pk(0421b84e50973c710bfd73e381c999ce6c637bfe5c1143bdf7867f7cc811605a567e2eb8fcfc79a82b16568f0b63e35246def6dbcc2f5c81600535ac1d541b40b5)#q3qw4fxn",
            "hex": "410421b84e50973c710bfd73e381c999ce6c637bfe5c1143bdf7867f7cc811605a567e2eb8fcfc79a82b16568f0b63e35246def6dbcc2f5c81600535ac1d541b40b5ac",
            "type": "pubkey"
          }
        }
      ],
      "hex": "01000000010000000000000000000000000000000000000000000000000000000000000000ffffffff0804ffff001d025c09ffffffff0100f2052a0100000043410421b84e50973c710bfd73e381c999ce6c637bfe5c1143bdf7867f7cc811605a567e2eb8fcfc79a82b16568f0b63e35246def6dbcc2f5c81600535ac1d541b40b5ac00000000"
    }
  ]
}