{
  "hash": "000000003a1fa07baf049c20679908fce24dd8b06bfce964687b893090fa2b22",
  "confirmations": 49828,
  "height": 3270,
  "version": 1,
  "versionHex": "00000001",
  "merkleroot": "ddb5ee4c7afa876c9c99d33daec95c2c6c9ac7ec33550aebdf936c30c811f877",
  "time": 1233949215,
  "mediantime": 1233945737,
  "nonce": 1198617369,
  "bits": "1d00ffff",
  "difficulty": 1,
  "chainwork": "00000000000000000000000000000000000000000000000000000cc70cc70cc7",
  "nTx": 1,
  "previousblockhash": "0000000097a79e2bfcac5d28cdce5f3deb20afbd8bdb74f2b36a12cc83d144b3",
  "nextblockhash": "000000008aa571cc43317ac88bfc1a9a9debb8e227220f23c94450d0ca1384d3",
  "strippedsize": 216,
  "size": 216,
  "weight": 864,
  "tx": [
    {
      "txid": "ddb5ee4c7afa876c9c99d33daec95c2c6c9ac7ec33550aebdf936c30c811f877",
      "hash": "ddb5ee4c7afa876c9c99d33daec95c2c6c9ac7ec33550aebdf936c30c811f877",
      "version": 1,
      "size": 135,
      "vsize": 135,
      "weight": 540,
      "locktime": 0,
      "vin": [
        {
          "coinbase": "04ffff001d02c703",
          "sequence": 4294967295
        }
      ],
      "vout": [
        {
          "value": 50.0,
          "n": 0,
          "scriptPubKey": {
            "asm": "0454e330da71a690d7d020a620ee132f130dc66a0def1e4f4944c4f63a1109ecde6560bef7f4b371ee154108a8094947cba87598ce8b4df1e9720e7ca6916fdab4 OP_CHECKSIG",
            "desc": "pk(0454e330da71a690d7d020a620ee132f130dc66a0def1e4f4944c4f63a1109ecde6560bef7f4b371ee154108a8094947cba87598ce8b4df1e9720e7ca6916fdab4)#d4lhysr8",
            "hex": "410454e330da71a690d7d020a620ee132f130dc66a0def1e4f4944c4f63a1109ecde6560bef7f4b371ee154108a8094947cba87598ce8b4df1e9720e7ca6916fdab4ac",
            "type": "pubkey"
          }
        }
      ],
      "hex": "01000000010000000000000000000000000000000000000000000000000000000000000000ffffffff0804ffff001d02c703ffffffff0100f2052a0100000043410454e330da71a690d7d020a620ee132f130dc66a0def1e4f4944c4f63a1109ecde6560bef7f4b371ee154108a8094947cba87598ce8b4df1e9720e7ca6916fdab4ac00000000"
    }
  ]
}