{
  "hash": "00000000ba00b9d939c51b37016e6b3064a50a2f058e0a38a03c2fb52a86c484",
  "confirmations": 45109,
  "height": 7989,
  "version": 1,
  "versionHex": "00000001",
  "merkleroot": "3b32a9ee5440d32290ce5aaac8d672b5c2610b4768846352e1c22ab14591023a",
  "time": 1237454419,
  "mediantime": 1237450610,
  "nonce": 40930901,
  "bits": "1d00ffff",
  "difficulty": 1,
  "chainwork": "00000000000000000000000000000000000000000000000000001f361f361f36",
  "nTx": 1,
  "previousblockhash": "00000000621ce9b7d0cdc9a4d2fa76a86902a4ee137f7fa937c8391d2e4f9183",
  "nextblockhash": "00000000e34f0987c3e2f5b24fe991fd2d67acc73aad5736da87573284e72755",
  "strippedsize": 216,
  "size": 216,
  "weight": 864,
  "tx": [
    {
      "txid": "3b32a9ee5440d32290ce5aaac8d672b5c2610b4768846352e1c22ab14591023a",
      "hash": "3b32a9ee5440d32290ce5aaac8d672b5c2610b4768846352e1c22ab14591023a",
      "version": 1,
      "size": 135,
      "vsize": 135,
      "weight": 540,
      "locktime": 0,
      "vin": [
        {
          "coinbase": "04ffff001d028b00",
          "sequence": 4294967295
        }
      ],
      "vout": [
        {
          "value": 50.0,
          "n": 0,
          "scriptPubKey": {
            "asm": "04bc9fb4d28c52e8706c07603f4e643dce4fabddde5ffa2acd4be6c8443096f7d6d182ba58ff602c95ce299d96e1d0ce099f3dc4fa72576cda36eca1b321dc26da OP_CHECKSIG",
            "desc": "pk(04bc9fb4d28c52e8706c07603f4e643dce4fabddde5ffa2acd4be6c8443096f7d6d182ba58ff602c95ce299d96e1d0ce099f3dc4fa72576cda36eca1b321dc26da)#la67n2gr",
            "hex": "4104bc9fb4d28c52e8706c07603f4e643dce4fabddde5ffa2acd4be6c8443096f7d6d182ba58ff602c95ce299d96e1d0ce099f3dc4fa72576cda36eca1b321dc26daac",
            "type": "pubkey"
          }
        }
      ],
      "hex": "01000000010000000000000000000000000000000000000000000000000000000000000000ffffffff0804ffff001d028b00ffffffff0100f2052a01000000434104bc9fb4d28c52e8706c07603f4e643dce4fabddde5ffa2acd4be6c8443096f7d6d182ba58ff602c95ce299d96e1d0ce099f3dc4fa72576cda36eca1b321dc26daac00000000"
    }
  ]
}