{
  "hash": "0000000008c979dab95c9adc5c73737db9e418aa14f60cb3cebcfd8ddca323b1",
  "confirmations": 47201,
  "height": 5897,
  "version": 1,
  "versionHex": "00000001",
  "merkleroot": "6ceed9c71f508a8f43e0e116f9643f9c87db0b0ba061bb572b5c63b5ebc56682",
  "time": 1235841423,
  "mediantime": 1235836945,
  "nonce": 2092580146,
  "bits": "1d00ffff",
  "difficulty": 1,
  "chainwork": "0000000000000000000000000000000000000000000000000000170a170a170a",
  "nTx": 1,
  "previousblockhash": "000000000190d4e3cc233d97fe979599d044aa3e60b8b35caf63c87186d57312",
  "nextblockhash": "000000006c754600cb31121249d282e0ddcb11c80d1867b896e6d3fcd24d1fa5",
  "strippedsize": 216,
  "size": 216,
  "weight": 864,
  "tx": [
    {
      "txid": "6ceed9c71f508a8f43e0e116f9643f9c87db0b0ba061bb572b5c63b5ebc56682",
      "hash": "6ceed9c71f508a8f43e0e116f9643f9c87db0b0ba061bb572b5c63b5ebc56682",
      "version": 1,
      "size": 135,
      "vsize": 135,
      "weight": 540,
      "locktime": 0,
      "vin": [
        {
          "coinbase": "04ffff001d02f502",
          "sequence": 4294967295
        }
      ],
      "vout": [
        {
          "value": 50.0,
          "n": 0,
          "scriptPubKey": {
            "asm": "04e4ae58ad325858c926cb91abdfc4da78b7bba3340947c39456a113d14f091518a0d919fbed123c95f09f545c8ea2db48fd0286c81fb7651d77313b5c2040181a OP_CHECKSIG",
            "desc": "pk(04e4ae58ad325858c926cb91abdfc4da78b7bba3340947c39456a113d14f091518a0d919fbed123c95f09f545c8ea2db48fd0286c81fb7651d77313b5c2040181a)#qvdwq88c",
            "hex": "4104e4ae58ad325858c926cb91abdfc4da78b7bba3340947c39456a113d14f091518a0d919fbed123c95f09f545c8ea2db48fd0286c81fb7651d77313b5c2040181aac",
            "type": "pubkey"
          }
        }
      ],
      "hex": "01000000010000000000000000000000000000000000000000000000000000000000000000ffffffff0804ffff001d02f502ffffffff0100f2052a01000000434104e4ae58ad325858c926cb91abdfc4da78b7bba3340947c39456a113d14f091518a0d919fbed123c95f09f545c8ea2db48fd0286c81fb7651d77313b5c2040181aac00000000"
    }
  ]
}