{
  "hash": "00000000d9d81a18ab18a373998df7230e8248d077612a6ac6f947cc02900889",
  "confirmations": 52025,
  "height": 313,
  "version": 1,
  "versionHex": "00000001",
  "merkleroot": "abe00821cc74ba9c323cee4dba547eb101a7848130aa0646f4bdeae37d8b1cca",
  "time": 1231841699,
  "mediantime": 1231839461,
  "nonce": 2813346048,
  "bits": "1d00ffff",
  "difficulty": 1,
  "chainwork": "0000000000000000000000000000000000000000000000000000013a013a013a",
  "nTx": 1,
  "previousblockhash": "000000007dfc6054330e1b046f5f1aae82f5ed04097809faba5ca0aa9e91e35e",
  "nextblockhash": "00000000c1d6c5079f4f15ca5d70c4e2726a0cbadb7af5e846259dbda57fab70",
  "strippedsize": 216,
  "size": 216,
  "weight": 864,
  "tx": [
    {
      "txid": "abe00821cc74ba9c323cee4dba547eb101a7848130aa0646f4bdeae37d8b1cca",
      "hash": "abe00821cc74ba9c323cee4dba547eb101a7848130aa0646f4bdeae37d8b1cca",
      "version": 1,
      "size": 135,
      "vsize": 135,
      "weight": 540,
      "locktime": 0,
      "vin": [
        {
          "coinbase": "04ffff001d02b100",
          "sequence": 4294967295
        }
      ],
      "vout": [
        {
          "value": 50.0,
          "n": 0,
          "scriptPubKey": {
            "asm": "04237a2500f2263d686e7482030d549515899192f3627604d6bd1d2269dbf285e368fe502c84e110c6e31083c1f6f09d796ffcf99304303b3aed90d5c67ccbe56b OP_CHECKSIG",
            "desc": "pk(04237a2500f2263d686e7482030d549515899192f3627604d6bd1d2269dbf285e368fe502c84e110c6e31083c1f6f09d796ffcf99304303b3aed90d5c67ccbe56b)#gymy3hjp",
            "hex": "4104237a2500f2263d686e7482030d549515899192f3627604d6bd1d2269dbf285e368fe502c84e110c6e31083c1f6f09d796ffcf99304303b3aed90d5c67ccbe56bac",
            "type": "pubkey"
          }
        }
      ],
      "hex": "01000000010000000000000000000000000000000000000000000000000000000000000000ffffffff0804ffff001d02b100ffffffff0100f2052a01000000434104237a2500f2263d686e7482030d549515899192f3627604d6bd1d2269dbf285e368fe502c84e110c6e31083c1f6f09d796ffcf99304303b3aed90d5c67ccbe56bac00000000"
    }
  ]
}