{
  "hash": "000000001b6ba78b9f23da0a6154a006d63e13e81e5cae8dc3d43f2db64b74a6",
  "confirmations": 47758,
  "height": 5340,
  "version": 1,
  "versionHex": "00000001",
  "merkleroot": "292ce38188127d1c922ba737e9e6edfbd87896618b0ebc5ec971faf164594988",
  "time": 1235396199,
  "mediantime": 1235391604,
  "nonce": 235891461,
  "bits": "1d00ffff",
  "difficulty": 1,
  "chainwork": "000000000000000000000000000000000000000000000000000014dd14dd14dd",
  "nTx": 1,
  "previousblockhash": "00000000c1699a2d6d7ed42822b2a831bec0a3746fc842497562b1b59d7f6075",
  "nextblockhash": "000000000f2b003e482894378076f61d678811cd9206333f80da3482884c66c1",
  "strippedsize": 216,
  "size": 216,
  "weight": 864,
  "tx": [
    {
      "txid": "292ce38188127d1c922ba737e9e6edfbd87896618b0ebc5ec971faf164594988",
      "hash": "292ce38188127d1c922ba737e9e6edfbd87896618b0ebc5ec971faf164594988",
      "version": 1,
      "size": 135,
      "vsize": 135,
      "weight": 540,
      "locktime": 0,
      "vin": [
        {
          "coinbase": "04ffff001d02a802",
          "sequence": 4294967295
        }
      ],
      "vout": [
        {
          "value": 50.0,
          "n": 0,
          "scriptPubKey": {
            "asm": "0423843aa1f5acbe0e6b49d3bb4e2d7c0b3cb72572c4433172e2cc6e7134be2e5ed244861a71d46147095932a2abcd56a365379df8f3ec8b6f9a274c637377d9bb OP_CHECKSIG",
            "desc": "pk(0423843aa1f5acbe0e6b49d3bb4e2d7c0b3cb72572c4433172e2cc6e7134be2e5ed244861a71d46147095932a2abcd56a365379df8f3ec8b6f9a274c637377d9bb)#8cz8d07l",
            "hex": "410423843aa1f5acbe0e6b49d3bb4e2d7c0b3cb72572c4433172e2cc6e7134be2e5ed244861a71d46147095932a2abcd56a365379df8f3ec8b6f9a274c637377d9bbac",
            "type": "pubkey"
          }
        }
      ],
      "hex": "01000000010000000000000000000000000000000000000000000000000000000000000000ffffffff0804ffff001d02a802ffffffff0100f2052a0100000043410423843aa1f5acbe0e6b49d3bb4e2d7c0b3cb72572c4433172e2cc6e7134be2e5ed244861a71d46147095932a2abcd56a365379df8f3ec8b6f9a274c637377d9bbac00000000"
    }
  ]
}