{
  "hash": "000000004748a0c2d940ac930fd767ec9da39d6369014345b1c73e7621945a1f",
  "confirmations": 46981,
  "height": 6117,
  "version": 1,
  "versionHex": "00000001",
  "merkleroot": "a1a2d6948b9478cfa67a56e8bc1a372d05652c57931fac57a470a305603a1223",
  "time": 1236022618,
  "mediantime": 1236017896,
  "nonce": 1510075438,
  "bits": "1d00ffff",
  "difficulty": 1,
  "chainwork": "000000000000000000000000000000000000000000000000000017e617e617e6",
  "nTx": 1,
  "previousblockhash": "000000004ca4d556f7eb04a41e7896988f6da9ffa7f680e9cc5e998ea3ee9507",
  "nextblockhash": "00000000a3eb27a6abcc24d18af3cf28013c39643228ab02493463346dadf3c0",
  "strippedsize": 216,
  "size": 216,
  "weight": 864,
  "tx": [
    {
      "txid": "a1a2d6948b9478cfa67a56e8bc1a372d05652c57931fac57a470a305603a1223",
      "hash": "a1a2d6948b9478cfa67a56e8bc1a372d05652c57931fac57a470a305603a1223",
      "version": 1,
      "size": 135,
      "vsize": 135,
      "weight": 540,
      "locktime": 0,
      "vin": [
        {
          "coinbase": "04ffff001d020907",
          "sequence": 4294967295
        }
      ],
      "vout": [
        {
          "value": 50.0,
          "n": 0,
          "scriptPubKey": {
            "asm": "042d5326e3204440e4a68e75e58aee63b72bb2c00ebe47e90bef41e240c7a49fa40c8dff31f40d99e1eef93312e5e2e6ba228f016ade2f49c70a26ff91174959dc OP_CHECKSIG",
            "desc": "pk(042d5326e3204440e4a68e75e58aee63b72bb2c00ebe47e90bef41e240c7a49fa40c8dff31f40d99e1eef93312e5e2e6ba228f016ade2f49c70a26ff91174959dc)#cluwxn6u",
            "hex": "41042d5326e3204440e4a68e75e58aee63b72bb2c00ebe47e90bef41e240c7a49fa40c8dff31f40d99e1eef93312e5e2e6ba228f016ade2f49c70a26ff91174959dcac",
            "type": "pubkey"
          }
        }
      ],
      "hex": "01000000010000000000000000000000000000000000000000000000000000000000000000ffffffff0804ffff001d020907ffffffff0100f2052a010000004341042d5326e3204440e4a68e75e58aee63b72bb2c00ebe47e90bef41e240c7a49fa40c8dff31f40d99e1eef93312e5e2e6ba228f016ade2f49c70a26ff91174959dcac00000000"
    }
  ]
}