{
  "hash": "000000002c639cf314da2cd627f37349e7139841fc034eab6eeaa7c6732e3d53",
  "confirmations": 44011,
  "height": 9087,
  "version": 1,
  "versionHex": "00000001",
  "merkleroot": "70f45e5045efdeaebdb12a464ff0bde4e2f9b9a3c6fe7517028938a75d643455",
  "time": 1238322049,
  "mediantime": 1238318750,
  "nonce": 1903719726,
  "bits": "1d00ffff",
  "difficulty": 1,
  "chainwork": "0000000000000000000000000000000000000000000000000000238023802380",
  "nTx": 1,
  "previousblockhash": "000000006fc7695e3f72a7c86d5ff978c37737a57a4ad5d157eaa0a62b07905c",
  "nextblockhash": "00000000310390cfdbbc551e34176c9149fd1966ca6c6d15ebb9e15d26d01684",
  "strippedsize": 216,
  "size": 216,
  "weight": 864,
  "tx": [
    {
      "txid": "70f45e5045efdeaebdb12a464ff0bde4e2f9b9a3c6fe7517028938a75d643455",
      "hash": "70f45e5045efdeaebdb12a464ff0bde4e2f9b9a3c6fe7517028938a75d643455",
      "version": 1,
      "size": 135,
      "vsize": 135,
      "weight": 540,
      "locktime": 0,
      "vin": [
        {
          "coinbase": "04ffff001d021608",
          "sequence": 4294967295
        }
      ],
      "vout": [
        {
          "value": 50.0,
          "n": 0,
          "scriptPubKey": {
            "asm": "0420c5401f9e5df90ed31007a03892a2ad359b4d5f429d69fc435abafcbd518e083bbb5c161567ac23e2181b253cd0e5a245ceaba0ec16565828b5def71ae72639 OP_CHECKSIG",
            "desc": "pk(0420c5401f9e5df90ed31007a03892a2ad359b4d5f429d69fc435abafcbd518e083bbb5c161567ac23e2181b253cd0e5a245ceaba0ec16565828b5def71ae72639)#7fjuv55y",
            "hex": "410420c5401f9e5df90ed31007a03892a2ad359b4d5f429d69fc435abafcbd518e083bbb5c161567ac23e2181b253cd0e5a245ceaba0ec16565828b5def71ae72639ac",
            "type": "pubkey"
          }
        }
      ],
      "hex": "01000000010000000000000000000000000000000000000000000000000000000000000000ffffffff0804ffff001d021608ffffffff0100f2052a0100000043410420c5401f9e5df90ed31007a03892a2ad359b4d5f429d69fc435abafcbd518e083bbb5c161567ac23e2181b253cd0e5a245ceaba0ec16565828b5def71ae72639ac00000000"
    }
  ]
}