{
  "hash": "00000000ed14252d0ee67d7e8921d0d3d18abd34fc1ee0073aa5949bb2f57596",
  "confirmations": 47305,
  "height": 5793,
  "version": 1,
  "versionHex": "00000001",
  "merkleroot": "6a2be99e7f71ec898c8d4eed6f2dac0ff2c5d9f892410d781b4712ed7f31b478",
  "time": 1235754723,
  "mediantime": 1235751169,
  "nonce": 193516239,
  "bits": "1d00ffff",
  "difficulty": 1,
  "chainwork": "000000000000000000000000000000000000000000000000000016a216a216a2",
  "nTx": 1,
  "previousblockhash": "000000004a9b4f24d57657d817fc2e5bf505020b3017f3fd53a4e5443f5ecc9e",
  "nextblockhash": "000000009aedb4ff756036b52b369c4f0afb3df01a887e91887ac29a98edffaf",
  "strippedsize": 216,
  "size": 216,
  "weight": 864,
  "tx": [
    {
      "txid": "6a2be99e7f71ec898c8d4eed6f2dac0ff2c5d9f892410d781b4712ed7f31b478",
      "hash": "6a2be99e7f71ec898c8d4eed6f2dac0ff2c5d9f892410d781b4712ed7f31b478",
      "version": 1,
      "size": 135,
      "vsize": 135,
      "weight": 540,
      "locktime": 0,
      "vin": [
        {
          "coinbase": "04ffff001d022501",
          "sequence": 4294967295
        }
      ],
      "vout": [
        {
          "value": 50.0,
          "n": 0,
          "scriptPubKey": {
            "asm": "04f834a8ed0c388e6e8d166a6050da73b7c0a3c279f3fe06fee807ecbaecf1afa1339ff2c63a3fa62cd806f56851ab33684ae3516830d287e098ec77a0b4d2007e OP_CHECKSIG",
            "desc": "pk(04f834a8ed0c388e6e8d166a6050da73b7c0a3c279f3fe06fee807ecbaecf1afa1339ff2c63a3fa62cd806f56851ab33684ae3516830d287e098ec77a0b4d2007e)#p4s63h47",
            "hex": "4104f834a8ed0c388e6e8d166a6050da73b7c0a3c279f3fe06fee807ecbaecf1afa1339ff2c63a3fa62cd806f56851ab33684ae3516830d287e098ec77a0b4d2007eac",
            "type": "pubkey"
          }
        }
      ],
      "hex": "01000000010000000000000000000000000000000000000000000000000000000000000000ffffffff0804ffff001d022501ffffffff0100f2052a01000000434104f834a8ed0c388e6e8d166a6050da73b7c0a3c279f3fe06fee807ecbaecf1afa1339ff2c63a3fa62cd806f56851ab33684ae3516830d287e098ec77a0b4d2007eac00000000"
    }
  ]
}