{
  "hash": "000000007f423780d48a8f3d35d9a17a3469274c4bf51c0c05d3a56b8df85007",
  "confirmations": 51905,
  "height": 1193,
  "version": 1,
  "versionHex": "00000001",
  "merkleroot": "fbc494b7c789205c02e8e606f27d8e738d767e35688fcfaeb57091ac9238558d",
  "time": 1232495699,
  "mediantime": 1232490969,
  "nonce": 780673826,
  "bits": "1d00ffff",
  "difficulty": 1,
  "chainwork": "000000000000000000000000000000000000000000000000000004aa04aa04aa",
  "nTx": 1,
  "previousblockhash": "00000000e15bc6463fe96e4297e1635a2363820a3455813968fb1b88d2627b2e",
  "nextblockhash": "00000000ea612819da6626a99a8965ad489f302b777619d7e02b08a4fc8d4161",
  "strippedsize": 216,
  "size": 216,
  "weight": 864,
  "tx": [
    {
      "txid": "fbc494b7c789205c02e8e606f27d8e738d767e35688fcfaeb57091ac9238558d",
      "hash": "fbc494b7c789205c02e8e606f27d8e738d767e35688fcfaeb57091ac9238558d",
      "version": 1,
      "size": 135,
      "vsize": 135,
      "weight": 540,
      "locktime": 0,
      "vin": [
        {
          "coinbase": "04ffff001d029308",
          "sequence": 4294967295
        }
      ],
      "vout": [
        {
          "value": 50.0,
          "n": 0,
          "scriptPubKey": {
            "asm": "04de53a0a04d8d026aa4ab7833d7c60ba81a995cdc05298684faf933533bc77a0f63a988686eaf050d769b88af2d8cc0dfec44f08ce48ef9e608abee7605c5815d OP_CHECKSIG",
            "desc": "pk(04de53a0a04d8d026aa4ab7833d7c60ba81a995cdc05298684faf933533bc77a0f63a988686eaf050d769b88af2d8cc0dfec44f08ce48ef9e608abee7605c5815d)#xg6zvkge",
            "hex": "4104de53a0a04d8d026aa4ab7833d7c60ba81a995cdc05298684faf933533bc77a0f63a988686eaf050d769b88af2d8cc0dfec44f08ce48ef9e608abee7605c5815dac",
            "type": "pubkey"
          }
        }
      ],
      "hex": "01000000010000000000000000000000000000000000000000000000000000000000000000ffffffff0804ffff001d029308ffffffff0100f2052a01000000434104de53a0a04d8d026aa4ab7833d7c60ba81a995cdc05298684faf933533bc77a0f63a988686eaf050d769b88af2d8cc0dfec44f08ce48ef9e608abee7605c5815dac00000000"
    }
  ]
}