{
  "hash": "00000000636f4b6f9c7576fd3b5e325248fdc85741f0658e5d4f161f7e6d7996",
  "confirmations": 48392,
  "height": 4706,
  "version": 1,
  "versionHex": "00000001",
  "merkleroot": "566a0b77310f6e0be988636ebb670e3a123c926ea8dcb2fc95d0f24208381980",
  "time": 1234932735,
  "mediantime": 1234929755,
  "nonce": 66584438,
  "bits": "1d00ffff",
  "difficulty": 1,
  "chainwork": "0000000000000000000000000000000000000000000000000000126312631263",
  "nTx": 1,
  "previousblockhash": "000000004865ee4434a66a9bc8a803a64d696132b2b00e24b23f45d49ac10572",
  "nextblockhash": "00000000f097957affb589cbe6e4f3c79fcf466a9848f0d3da1ee3f8dfc61897",
  "strippedsize": 216,
  "size": 216,
  "weight": 864,
  "tx": [
    {
      "txid": "566a0b77310f6e0be988636ebb670e3a123c926ea8dcb2fc95d0f24208381980",
      "hash": "566a0b77310f6e0be988636ebb670e3a123c926ea8dcb2fc95d0f24208381980",
      "version": 1,
      "size": 135,
      "vsize": 135,
      "weight": 540,
      "locktime": 0,
      "vin": [
        {
          "coinbase": "04ffff001d02fa0a",
          "sequence": 4294967295
        }
      ],
      "vout": [
        {
          "value": 50.0,
          "n": 0,
          "scriptPubKey": {
            "asm": "0436ef038d4b267ddf5a3326f2112f7f56da001ab5f9a1a3c4a06cb1fdc82a563db6119bc6db47bc61c8fb09fe2c45245c5383a0f414910a42a02ef30e9b0e0715 OP_CHECKSIG",
            "desc": "pk(0436ef038d4b267ddf5a3326f2112f7f56da001ab5f9a1a3c4a06cb1fdc82a563db6119bc6db47bc61c8fb09fe2c45245c5383a0f414910a42a02ef30e9b0e0715)#zq3ccuym",
            "hex": "410436ef038d4b267ddf5a3326f2112f7f56da001ab5f9a1a3c4a06cb1fdc82a563db6119bc6db47bc61c8fb09fe2c45245c5383a0f414910a42a02ef30e9b0e0715ac",
            "type": "pubkey"
          }
        }
      ],
      "hex": "01000000010000000000000000000000000000000000000000000000000000000000000000ffffffff0804ffff001d02fa0affffffff0100f2052a0100000043410436ef038d4b267ddf5a3326f2112f7f56da001ab5f9a1a3c4a06cb1fdc82a563db6119bc6db47bc61c8fb09fe2c45245c5383a0f414910a42a02ef30e9b0e0715ac00000000"
    }
  ]
}