{
  "hash": "00000000697c9c23663f76d60e6d777ce26011ba3539b34963a34a320aedc58d",
  "confirmations": 45125,
  "height": 7973,
  "version": 1,
  "versionHex": "00000001",
  "merkleroot": "a97e1142e7de4bdf35da890ef3b0458bd2ae87b871f180793e63f076f8ef2fc5",
  "time": 1237443991,
  "mediantime": 1237440451,
  "nonce": 3054280224,
  "bits": "1d00ffff",
  "difficulty": 1,
  "chainwork": "00000000000000000000000000000000000000000000000000001f261f261f26",
  "nTx": 1,
  "previousblockhash": "00000000c098f9ff9bd14d9edb3c1ba38024a3a1a0c89a50570ba45c70128fa6",
  "nextblockhash": "00000000cf24dec9975c7bac7a1ca87a8fb5ebc0399c884b8586e71947f76a71",
  "strippedsize": 216,
  "size": 216,
  "weight": 864,
  "tx": [
    {
      "txid": "a97e1142e7de4bdf35da890ef3b0458bd2ae87b871f180793e63f076f8ef2fc5",
      "hash": "a97e1142e7de4bdf35da890ef3b0458bd2ae87b871f180793e63f076f8ef2fc5",
      "version": 1,
      "size": 135,
      "vsize": 135,
      "weight": 540,
      "locktime": 0,
      "vin": [
        {
          "coinbase": "04ffff001d02f108",
          "sequence": 4294967295
        }
      ],
      "vout": [
        {
          "value": 50.0,
          "n": 0,
          "scriptPubKey": {
            "asm": "04496de68a7fc310f36435cdd9a6d7b5f4b8f6f1540976ec198f2bc37b9166f3fdd307a6dd88ab729be33b0cc996c78a9cd4aed2c1b98c2fee01511a2a43d48571 OP_CHECKSIG",
            "desc": "pk(04496de68a7fc310f36435cdd9a6d7b5f4b8f6f1540976ec198f2bc37b9166f3fdd307a6dd88ab729be33b0cc996c78a9cd4aed2c1b98c2fee01511a2a43d48571)#kvg4h4kg",
            "hex": "4104496de68a7fc310f36435cdd9a6d7b5f4b8f6f1540976ec198f2bc37b9166f3fdd307a6dd88ab729be33b0cc996c78a9cd4aed2c1b98c2fee01511a2a43d48571ac",
            "type": "pubkey"
          }
        }
      ],
      "hex": "01000000010000000000000000000000000000000000000000000000000000000000000000ffffffff0804ffff001d02f108ffffffff0100f2052a01000000434104496de68a7fc310f36435cdd9a6d7b5f4b8f6f1540976ec198f2bc37b9166f3fdd307a6dd88ab729be33b0cc996c78a9cd4aed2c1b98c2fee01511a2a43d48571ac00000000"
    }
  ]
}