{
  "hash": "00000000d33ba642f396bb1372dfd23a7936e490799ed3d90c7fbb07d868a65e",
  "confirmations": 45865,
  "height": 7233,
  "version": 1,
  "versionHex": "00000001",
  "merkleroot": "0eb061ffc6211317aebe7be5edf1401bc792fde13c84b5d0181ee5d9c3448a22",
  "time": 1236893955,
  "mediantime": 1236891607,
  "nonce": 389071667,
  "bits": "1d00ffff",
  "difficulty": 1,
  "chainwork": "00000000000000000000000000000000000000000000000000001c421c421c42",
  "nTx": 1,
  "previousblockhash": "00000000fe181cddb6d521927a412a41374905fafa83f4d14b186ffda7ed2680",
  "nextblockhash": "000000008ed1ebb5f9eeaec3ec58d49ffb4a50e32abbfa93a931dd9e52eca983",
  "strippedsize": 216,
  "size": 216,
  "weight": 864,
  "tx": [
    {
      "txid": "0eb061ffc6211317aebe7be5edf1401bc792fde13c84b5d0181ee5d9c3448a22",
      "hash": "0eb061ffc6211317aebe7be5edf1401bc792fde13c84b5d0181ee5d9c3448a22",
      "version": 1,
      "size": 135,
      "vsize": 135,
      "weight": 540,
      "locktime": 0,
      "vin": [
        {
          "coinbase": "04ffff001d022e06",
          "sequence": 4294967295
        }
      ],
      "vout": [
        {
          "value": 50.0,
          "n": 0,
          "scriptPubKey": {
            "asm": "042890c465cb01ff63294a4483a242e999831ff3fd0ff78051ecb677327eefc96202e385e364589dbfe566a87600e7e8fbb9e328c4d06e660970c1633b7e52d4d2 OP_CHECKSIG",
            "desc": "pk(042890c465cb01ff63294a4483a242e999831ff3fd0ff78051ecb677327eefc96202e385e364589dbfe566a87600e7e8fbb9e328c4d06e660970c1633b7e52d4d2)#6fl7f0cj",
            "hex": "41042890c465cb01ff63294a4483a242e999831ff3fd0ff78051ecb677327eefc96202e385e364589dbfe566a87600e7e8fbb9e328c4d06e660970c1633b7e52d4d2ac",
            "type": "pubkey"
          }
        }
      ],
      "hex": "01000000010000000000000000000000000000000000000000000000000000000000000000ffffffff0804ffff001d022e06ffffffff0100f2052a010000004341042890c465cb01ff63294a4483a242e999831ff3fd0ff78051ecb677327eefc96202e385e364589dbfe566a87600e7e8fbb9e328c4d06e660970c1633b7e52d4d2ac00000000"
    }
  ]
}