{
  "hash": "00000000a97c5e59f98521c4c84e14ce030c67611feb28221c5a6f1276be5efb",
  "confirmations": 52107,
  "height": 991,
  "version": 1,
  "versionHex": "00000001",
  "merkleroot": "26fc51aa7e255e378551e051efd8fa1f64f1a62097a7c036d7ba11a7b8180d01",
  "time": 1232343383,
  "mediantime": 1232339501,
  "nonce": 2978383930,
  "bits": "1d00ffff",
  "difficulty": 1,
  "chainwork": "000000000000000000000000000000000000000000000000000003e003e003e0",
  "nTx": 1,
  "previousblockhash": "000000003fd0fa5f78eea07b6daf176bfab63fb28a56768e7bbce39f047a7c14",
  "nextblockhash": "000000005b113ff7a3a03d633e87a416a372f09b37da8891650c6f8812e7288e",
  "strippedsize": 216,
  "size": 216,
  "weight": 864,
  "tx": [
    {
      "txid": "26fc51aa7e255e378551e051efd8fa1f64f1a62097a7c036d7ba11a7b8180d01",
      "hash": "26fc51aa7e255e378551e051efd8fa1f64f1a62097a7c036d7ba11a7b8180d01",
      "version": 1,
      "size": 135,
      "vsize": 135,
      "weight": 540,
      "locktime": 0,
      "vin": [
        {
          "coinbase": "04ffff001d02f004",
          "sequence": 4294967295
        }
      ],
      "vout": [
        {
          "value": 50.0,
          "n": 0,
          "scriptPubKey": {
            "asm": "0481db8fe25ea8072f3acbb062f7522065b1e9208c74a5f37a90dd95c33643fc9c078c93626381fc9f18454a31d1cda7358a718774abd818c49b53a55c945f2e5f OP_CHECKSIG",
            "desc": "pk(0481db8fe25ea8072f3acbb062f7522065b1e9208c74a5f37a90dd95c33643fc9c078c93626381fc9f18454a31d1cda7358a718774abd818c49b53a55c945f2e5f)#6fg625ls",
            "hex": "410481db8fe25ea8072f3acbb062f7522065b1e9208c74a5f37a90dd95c33643fc9c078c93626381fc9f18454a31d1cda7358a718774abd818c49b53a55c945f2e5fac",
            "type": "pubkey"
          }
        }
      ],
      "hex": "01000000010000000000000000000000000000000000000000000000000000000000000000ffffffff0804ffff001d02f004ffffffff0100f2052a0100000043410481db8fe25ea8072f3acbb062f7522065b1e9208c74a5f37a90dd95c33643fc9c078c93626381fc9f18454a31d1cda7358a718774abd818c49b53a55c945f2e5fac00000000"
    }
  ]
}