{
  "hash": "00000000bbdc6e882a4f8711cdeab99dfcc5857f1cafe1c51ea32d443aaa6dd2",
  "confirmations": 48677,
  "height": 4421,
  "version": 1,
  "versionHex": "00000001",
  "merkleroot": "760553b82b920f54a73cdcd3cc4208cf5f0e0c64f094b4b4980f4b4364dc6491",
  "time": 1234727683,
  "mediantime": 1234724053,
  "nonce": 2258376731,
  "bits": "1d00ffff",
  "difficulty": 1,
  "chainwork": "0000000000000000000000000000000000000000000000000000114611461146",
  "nTx": 1,
  "previousblockhash": "00000000fc713cb2f96439f80c82d1c7d24f7c0ee6e29466a19acd3665fe0abd",
  "nextblockhash": "00000000e09b057566967008b4d9784667770b0b2d3776f5ce3d07fe57041016",
  "strippedsize": 216,
  "size": 216,
  "weight": 864,
  "tx": [
    {
      "txid": "760553b82b920f54a73cdcd3cc4208cf5f0e0c64f094b4b4980f4b4364dc6491",
      "hash": "760553b82b920f54a73cdcd3cc4208cf5f0e0c64f094b4b4980f4b4364dc6491",
      "version": 1,
      "size": 135,
      "vsize": 135,
      "weight": 540,
      "locktime": 0,
      "vin": [
        {
          "coinbase": "04ffff001d029a01",
          "sequence": 4294967295
        }
      ],
      "vout": [
        {
          "value": 50.0,
          "n": 0,
          "scriptPubKey": {
            "asm": "04e0c2537fb49f940a2ad8579f8d427aed38be08b484242a9b81b3f8b27068f21bc8de7bf0dc90d4bb648690bf1e7ec0388d9c011b7d52096c2c6586e788c21251 OP_CHECKSIG",
            "desc": "pk(04e0c2537fb49f940a2ad8579f8d427aed38be08b484242a9b81b3f8b27068f21bc8de7bf0dc90d4bb648690bf1e7ec0388d9c011b7d52096c2c6586e788c21251)#jtz3eqzx",
            "hex": "4104e0c2537fb49f940a2ad8579f8d427aed38be08b484242a9b81b3f8b27068f21bc8de7bf0dc90d4bb648690bf1e7ec0388d9c011b7d52096c2c6586e788c21251ac",
            "type": "pubkey"
          }
        }
      ],
      "hex": "01000000010000000000000000000000000000000000000000000000000000000000000000ffffffff0804ffff001d029a01ffffffff0100f2052a01000000434104e0c2537fb49f940a2ad8579f8d427aed38be08b484242a9b81b3f8b27068f21bc8de7bf0dc90d4bb648690bf1e7ec0388d9c011b7d52096c2c6586e788c21251ac00000000"
    }
  ]
}