{
  "hash": "000000003f100bcb2790fbf45f69b6825094d75adf5ae9dbf8f4072fe2ff2ea7",
  "confirmations": 52018,
  "height": 320,
  "version": 1,
  "versionHex": "00000001",
  "merkleroot": "6a71cea2c4e66ea163932b1ea199c1056f6728f3e1287946ed2a0892b918bf0e",
  "time": 1231846218,
  "mediantime": 1231843597,
  "nonce": 43154644,
  "bits": "1d00ffff",
  "difficulty": 1,
  "chainwork": "0000000000000000000000000000000000000000000000000000014101410141",
  "nTx": 1,
  "previousblockhash": "0000000062a9ed638b7297dcb39d7fafe4f5185f2777269f4f9cafa3560da318",
  "nextblockhash": "000000007ec3a2daeb2fda267d4c5520c5588aac135aae9e5f01eada28e15d6f",
  "strippedsize": 215,
  "size": 215,
  "weight": 860,
  "tx": [
    {
      "txid": "6a71cea2c4e66ea163932b1ea199c1056f6728f3e1287946ed2a0892b918bf0e",
      "hash": "6a71cea2c4e66ea163932b1ea199c1056f6728f3e1287946ed2a0892b918bf0e",
      "version": 1,
      "size": 134,
      "vsize": 134,
      "weight": 536,
      "locktime": 0,
      "vin": [
        {
          "coinbase": "04ffff001d0157",
          "sequence": 4294967295
        }
      ],
      "vout": [
        {
          "value": 50.0,
          "n": 0,
          "scriptPubKey": {
            "asm": "04bb22a7645f95e06934024492c2428419b2160bb8379f2fec41bb2966be07b463340d1f9178934672cad9d4fb31067627e8e28566c3793f064a16970d1da4bc9e OP_CHECKSIG",
            "desc": "pk(04bb22a7645f95e06934024492c2428419b2160bb8379f2fec41bb2966be07b463340d1f9178934672cad9d4fb31067627e8e28566c3793f064a16970d1da4bc9e)#qrqscuag",
            "hex": "4104bb22a7645f95e06934024492c2428419b2160bb8379f2fec41bb2966be07b463340d1f9178934672cad9d4fb31067627e8e28566c3793f064a16970d1da4bc9eac",
            "type": "pubkey"
          }
        }
      ],
      "hex": "01000000010000000000000000000000000000000000000000000000000000000000000000ffffffff0704ffff001d0157ffffffff0100f2052a01000000434104bb22a7645f95e06934024492c2428419b2160bb8379f2fec41bb2966be07b463340d1f9178934672cad9d4fb31067627e8e28566c3793f064a16970d1da4bc9eac00000000"
    }
  ]
}