{
  "hash": "00000000fe99c63735b72fbe1d3235c79dd765ab10d86e1048bb662d09fdb248",
  "confirmations": 49652,
  "height": 3446,
  "version": 1,
  "versionHex": "00000001",
  "merkleroot": "8cba856d5aa3e0aeaaa6a78ce2641773cba5208fc43fbb04bb398b01ce5e0174",
  "time": 1234069174,
  "mediantime": 1234066802,
  "nonce": 142275359,
  "bits": "1d00ffff",
  "difficulty": 1,
  "chainwork": "00000000000000000000000000000000000000000000000000000d770d770d77",
  "nTx": 1,
  "previousblockhash": "00000000ad18b419feecdcb6e635b4d4fdaeabb54eb461c4c2a581ae01645f3e",
  "nextblockhash": "000000006db4d94902cce6e19432ae97d7d06e06cce637ad83435d105e557775",
  "strippedsize": 216,
  "size": 216,
  "weight": 864,
  "tx": [
    {
      "txid": "8cba856d5aa3e0aeaaa6a78ce2641773cba5208fc43fbb04bb398b01ce5e0174",
      "hash": "8cba856d5aa3e0aeaaa6a78ce2641773cba5208fc43fbb04bb398b01ce5e0174",
      "version": 1,
      "size": 135,
      "vsize": 135,
      "weight": 540,
      "locktime": 0,
      "vin": [
        {
          "coinbase": "04ffff001d023906",
          "sequence": 4294967295
        }
      ],
      "vout": [
        {
          "value": 50.0,
          "n": 0,
          "scriptPubKey": {
            "asm": "0443389d65fcb4651b3eeb9be450296249b5d3f5466ced8bd3bd5cf274e103eb4dea8b7c2a3354092e1313bce65ce7351085f17f9970edd6e1d09eec91041cde4f OP_CHECKSIG",
            "desc": "pk(0443389d65fcb4651b3eeb9be450296249b5d3f5466ced8bd3bd5cf274e103eb4dea8b7c2a3354092e1313bce65ce7351085f17f9970edd6e1d09eec91041cde4f)#yewgn0fg",
            "hex": "410443389d65fcb4651b3eeb9be450296249b5d3f5466ced8bd3bd5cf274e103eb4dea8b7c2a3354092e1313bce65ce7351085f17f9970edd6e1d09eec91041cde4fac",
            "type": "pubkey"
          }
        }
      ],
      "hex": "01000000010000000000000000000000000000000000000000000000000000000000000000ffffffff0804ffff001d023906ffffffff0100f2052a0100000043410443389d65fcb4651b3eeb9be450296249b5d3f5466ced8bd3bd5cf274e103eb4dea8b7c2a3354092e1313bce65ce7351085f17f9970edd6e1d09eec91041cde4fac00000000"
    }
  ]
}