{
  "hash": "00000000111a049c708db300a8746bb8308d6e62dcbab2ca5665875040bf77a4",
  "confirmations": 44664,
  "height": 8434,
  "version": 1,
  "versionHex": "00000001",
  "merkleroot": "048125ee01a990e0db61faa1c63e9cee297bbadd6bfbe8b89d274c5ceefd4342",
  "time": 1237820246,
  "mediantime": 1237817001,
  "nonce": 2297833261,
  "bits": "1d00ffff",
  "difficulty": 1,
  "chainwork": "000000000000000000000000000000000000000000000000000020f320f320f3",
  "nTx": 1,
  "previousblockhash": "00000000ec229427b2dbcb712750a254cadb5a1b5da4df5c521fc3492985aa20",
  "nextblockhash": "00000000df940fe8b0e1e0b0f980df46a42edc0658750f118ea0fefc5170febd",
  "strippedsize": 216,
  "size": 216,
  "weight": 864,
  "tx": [
    {
      "txid": "048125ee01a990e0db61faa1c63e9cee297bbadd6bfbe8b89d274c5ceefd4342",
      "hash": "048125ee01a990e0db61faa1c63e9cee297bbadd6bfbe8b89d274c5ceefd4342",
      "version": 1,
      "size": 135,
      "vsize": 135,
      "weight": 540,
      "locktime": 0,
      "vin": [
        {
          "coinbase": "04ffff001d029f06",
          "sequence": 4294967295
        }
      ],
      "vout": [
        {
          "value": 50.0,
          "n": 0,
          "scriptPubKey": {
            "asm": "0425c36a3cf074ebedf75fbfc6837784a76661d26ad87ba24f65899d74cf93eade70bc5ccd66b446a757f38e426736a27c4c7f048c0e88c9b5b89fd67a797f1e58 OP_CHECKSIG",
            "desc": "pk(0425c36a3cf074ebedf75fbfc6837784a76661d26ad87ba24f65899d74cf93eade70bc5ccd66b446a757f38e426736a27c4c7f048c0e88c9b5b89fd67a797f1e58)#msr4fjxe",
            "hex": "410425c36a3cf074ebedf75fbfc6837784a76661d26ad87ba24f65899d74cf93eade70bc5ccd66b446a757f38e426736a27c4c7f048c0e88c9b5b89fd67a797f1e58ac",
            "type": "pubkey"
          }
        }
      ],
      "hex": "01000000010000000000000000000000000000000000000000000000000000000000000000ffffffff0804ffff001d029f06ffffffff0100f2052a0100000043410425c36a3cf074ebedf75fbfc6837784a76661d26ad87ba24f65899d74cf93eade70bc5ccd66b446a757f38e426736a27c4c7f048c0e88c9b5b89fd67a797f1e58ac00000000"
    }
  ]
}