{
  "hash": "000000008a8b89114c0603abf59b0853e0ab5d4d8762aed2dd49b87dd9cd3355",
  "confirmations": 45868,
  "height": 7230,
  "version": 1,
  "versionHex": "00000001",
  "merkleroot": "1b215ff015a2eaf1a183ff453d0ba9adf6394b5cdc19065e49626e0ea069250f",
  "time": 1236893217,
  "mediantime": 1236889116,
  "nonce": 349711308,
  "bits": "1d00ffff",
  "difficulty": 1,
  "chainwork": "00000000000000000000000000000000000000000000000000001c3f1c3f1c3f",
  "nTx": 1,
  "previousblockhash": "000000006d0f8fea03ffbc8a045e8df4d35f571d8e7297503a6a64269344c152",
  "nextblockhash": "0000000065642847653a57223a93a8f111e07a30ef7ab6ac0bec5f0a1d3c5bdf",
  "strippedsize": 216,
  "size": 216,
  "weight": 864,
  "tx": [
    {
      "txid": "1b215ff015a2eaf1a183ff453d0ba9adf6394b5cdc19065e49626e0ea069250f",
      "hash": "1b215ff015a2eaf1a183ff453d0ba9adf6394b5cdc19065e49626e0ea069250f",
      "version": 1,
      "size": 135,
      "vsize": 135,
      "weight": 540,
      "locktime": 0,
      "vin": [
        {
          "coinbase": "04ffff001d02db01",
          "sequence": 4294967295
        }
      ],
      "vout": [
        {
          "value": 50.0,
          "n": 0,
          "scriptPubKey": {
            "asm": "04cd51c61fa41cd22aab583af5b21e4041edaacfe02bc394e87358cd7007b130147554c3adc8603fe96bd57845ac213677976fe2c2a2827ad385e3090298601b64 OP_CHECKSIG",
            "desc": "pk(04cd51c61fa41cd22aab583af5b21e4041edaacfe02bc394e87358cd7007b130147554c3adc8603fe96bd57845ac213677976fe2c2a2827ad385e3090298601b64)#kpwnecu5",
            "hex": "4104cd51c61fa41cd22aab583af5b21e4041edaacfe02bc394e87358cd7007b130147554c3adc8603fe96bd57845ac213677976fe2c2a2827ad385e3090298601b64ac",
            "type": "pubkey"
          }
        }
      ],
      "hex": "01000000010000000000000000000000000000000000000000000000000000000000000000ffffffff0804ffff001d02db01ffffffff0100f2052a01000000434104cd51c61fa41cd22aab583af5b21e4041edaacfe02bc394e87358cd7007b130147554c3adc8603fe96bd57845ac213677976fe2c2a2827ad385e3090298601b64ac00000000"
    }
  ]
}