{
  "hash": "00000000cfe570ffe54c951eee22ad4061275e6bb7e8790339860535b0c341dd",
  "confirmations": 52414,
  "height": 684,
  "version": 1,
  "versionHex": "00000001",
  "merkleroot": "6847c6128254b7f10a1fe0168efbd232d1793e9fc17be729bb153f1b31fc9216",
  "time": 1232096885,
  "mediantime": 1232092225,
  "nonce": 2646993155,
  "bits": "1d00ffff",
  "difficulty": 1,
  "chainwork": "000000000000000000000000000000000000000000000000000002ad02ad02ad",
  "nTx": 1,
  "previousblockhash": "00000000cdecc1f6931a75229cdfe318c0501eb6b4fa3fa8633967d39f4a7430",
  "nextblockhash": "0000000073b026aae76ee20013acea08aa45bb75a37947d245e7b2ce3fe1f403",
  "strippedsize": 216,
  "size": 216,
  "weight": 864,
  "tx": [
    {
      "txid": "6847c6128254b7f10a1fe0168efbd232d1793e9fc17be729bb153f1b31fc9216",
      "hash": "6847c6128254b7f10a1fe0168efbd232d1793e9fc17be729bb153f1b31fc9216",
      "version": 1,
      "size": 135,
      "vsize": 135,
      "weight": 540,
      "locktime": 0,
      "vin": [
        {
          "coinbase": "04ffff001d028000",
          "sequence": 4294967295
        }
      ],
      "vout": [
        {
          "value": 50.0,
          "n": 0,
          "scriptPubKey": {
            "asm": "04162cbb255ee01124d1c40a5419f052313b8fa74f392d9a4fc09f8405dfbdd26c8fee8d2ace02b4b9af9d39c0227950f261f0bdc55bedf45f190343d2e644376e OP_CHECKSIG",
            "desc": "pk(04162cbb255ee01124d1c40a5419f052313b8fa74f392d9a4fc09f8405dfbdd26c8fee8d2ace02b4b9af9d39c0227950f261f0bdc55bedf45f190343d2e644376e)#4srk5dmx",
            "hex": "4104162cbb255ee01124d1c40a5419f052313b8fa74f392d9a4fc09f8405dfbdd26c8fee8d2ace02b4b9af9d39c0227950f261f0bdc55bedf45f190343d2e644376eac",
            "type": "pubkey"
          }
        }
      ],
      "hex": "01000000010000000000000000000000000000000000000000000000000000000000000000ffffffff0804ffff001d028000ffffffff0100f2052a01000000434104162cbb255ee01124d1c40a5419f052313b8fa74f392d9a4fc09f8405dfbdd26c8fee8d2ace02b4b9af9d39c0227950f261f0bdc55bedf45f190343d2e644376eac00000000"
    }
  ]
}