{
  "hash": "0000000098821d4ed9bf9ea134102e88a46b64179a0c9dcfe9d47f4734780e9a",
  "confirmations": 43353,
  "height": 9745,
  "version": 1,
  "versionHex": "00000001",
  "merkleroot": "5af0aec3a8f4a9b7ff6b693ea6befc842eb8bfedb0006f3ec25984df37976cef",
  "time": 1238810466,
  "mediantime": 1238806054,
  "nonce": 1891539509,
  "bits": "1d00ffff",
  "difficulty": 1,
  "chainwork": "0000000000000000000000000000000000000000000000000000261226122612",
  "nTx": 1,
  "previousblockhash": "00000000932e1c579fbada13c7168d6dc307e09c9e1499926731018a73abe236",
  "nextblockhash": "00000000fc2b4cff82824737f1d58bafc8c6f32cc04e59241af27fd9e3362ede",
  "strippedsize": 216,
  "size": 216,
  "weight": 864,
  "tx": [
    {
      "txid": "5af0aec3a8f4a9b7ff6b693ea6befc842eb8bfedb0006f3ec25984df37976cef",
      "hash": "5af0aec3a8f4a9b7ff6b693ea6befc842eb8bfedb0006f3ec25984df37976cef",
      "version": 1,
      "size": 135,
      "vsize": 135,
      "weight": 540,
      "locktime": 0,
      "vin": [
        {
          "coinbase": "04ffff001d027809",
          "sequence": 4294967295
        }
      ],
      "vout": [
        {
          "value": 50.0,
          "n": 0,
          "scriptPubKey": {
            "asm": "04923299688df88cffa7f6c5d53b1b89a3f2481cdcceac7d04f9c503fca42d995679dca38301c92f86a82644f88f555e17376bcf2a3ef329f029789a3702139411 OP_CHECKSIG",
            "desc": "pk(04923299688df88cffa7f6c5d53b1b89a3f2481cdcceac7d04f9c503fca42d995679dca38301c92f86a82644f88f555e17376bcf2a3ef329f029789a3702139411)#wzstg8nu",
            "hex": "4104923299688df88cffa7f6c5d53b1b89a3f2481cdcceac7d04f9c503fca42d995679dca38301c92f86a82644f88f555e17376bcf2a3ef329f029789a3702139411ac",
            "type": "pubkey"
          }
        }
      ],
      "hex": "01000000010000000000000000000000000000000000000000000000000000000000000000ffffffff0804ffff001d027809ffffffff0100f2052a01000000434104923299688df88cffa7f6c5d53b1b89a3f2481cdcceac7d04f9c503fca42d995679dca38301c92f86a82644f88f555e17376bcf2a3ef329f029789a3702139411ac00000000"
    }
  ]
}