{
  "hash": "0000000067329a9d48d204813cc35e8b89a8c476f292d92f58691b9535b8da63",
  "confirmations": 52437,
  "height": 661,
  "version": 1,
  "versionHex": "00000001",
  "merkleroot": "df64e385f1c0d40d81b54766478ccfb4256aa7b1773c69887e89bbe06844dfc3",
  "time": 1232075360,
  "mediantime": 1232072812,
  "nonce": 2471012663,
  "bits": "1d00ffff",
  "difficulty": 1,
  "chainwork": "0000000000000000000000000000000000000000000000000000029602960296",
  "nTx": 1,
  "previousblockhash": "00000000ef6644f79c0e3363c0359de10bc485d9d032af7c8097b325b54a2497",
  "nextblockhash": "00000000ae07b04e64e658c2dd85bfab0da646352a42037940dd0d18ea6ed8a4",
  "strippedsize": 215,
  "size": 215,
  "weight": 860,
  "tx": [
    {
      "txid": "df64e385f1c0d40d81b54766478ccfb4256aa7b1773c69887e89bbe06844dfc3",
      "hash": "df64e385f1c0d40d81b54766478ccfb4256aa7b1773c69887e89bbe06844dfc3",
      "version": 1,
      "size": 134,
      "vsize": 134,
      "weight": 536,
      "locktime": 0,
      "vin": [
        {
          "coinbase": "04ffff001d010d",
          "sequence": 4294967295
        }
      ],
      "vout": [
        {
          "value": 50.0,
          "n": 0,
          "scriptPubKey": {
            "asm": "045737f595f1a2eb0a4e2d342ab3d16effdba919845c939b59688ce24b7fb401497f599dfe56537cf06c2343539e9131fd36709f34d492f67a1b465d02a11de1cd OP_CHECKSIG",
            "desc": "pk(045737f595f1a2eb0a4e2d342ab3d16effdba919845c939b59688ce24b7fb401497f599dfe56537cf06c2343539e9131fd36709f34d492f67a1b465d02a11de1cd)#q7lxrkep",
            "hex": "41045737f595f1a2eb0a4e2d342ab3d16effdba919845c939b59688ce24b7fb401497f599dfe56537cf06c2343539e9131fd36709f34d492f67a1b465d02a11de1cdac",
            "type": "pubkey"
          }
        }
      ],
      "hex": "01000000010000000000000000000000000000000000000000000000000000000000000000ffffffff0704ffff001d010dffffffff0100f2052a010000004341045737f595f1a2eb0a4e2d342ab3d16effdba919845c939b59688ce24b7fb401497f599dfe56537cf06c2343539e9131fd36709f34d492f67a1b465d02a11de1cdac00000000"
    }
  ]
}