{
  "hash": "00000000722571752a29b6e318a450d1b09181b51ca3ff498ba52d8dfcb82f19",
  "confirmations": 52218,
  "height": 880,
  "version": 1,
  "versionHex": "00000001",
  "merkleroot": "beed13ca4198ca4512d62082a2e521288e6fb53f7c5effac5625047a5ca5fc6c",
  "time": 1232258441,
  "mediantime": 1232252663,
  "nonce": 3828475939,
  "bits": "1d00ffff",
  "difficulty": 1,
  "chainwork": "0000000000000000000000000000000000000000000000000000037103710371",
  "nTx": 1,
  "previousblockhash": "00000000703049cdf8677b655afc88c370a89788f39a5c76a0489af5d3b8477e",
  "nextblockhash": "00000000b715b0c5b5812ff95850038bf5af4e00112511d9d673d9043f26fbe2",
  "strippedsize": 216,
  "size": 216,
  "weight": 864,
  "tx": [
    {
      "txid": "beed13ca4198ca4512d62082a2e521288e6fb53f7c5effac5625047a5ca5fc6c",
      "hash": "beed13ca4198ca4512d62082a2e521288e6fb53f7c5effac5625047a5ca5fc6c",
      "version": 1,
      "size": 135,
      "vsize": 135,
      "weight": 540,
      "locktime": 0,
      "vin": [
        {
          "coinbase": "04ffff001d024403",
          "sequence": 4294967295
        }
      ],
      "vout": [
        {
          "value": 50.0,
          "n": 0,
          "scriptPubKey": {
            "asm": "0464682479cdbcbca179be6b93dbc4e9f9ed53512a17049aba17eebbde7c5d2361ce6208ec7d71983351b575e18d87a5247ff3c67c752f6f12eea2b13e56362be7 OP_CHECKSIG",
            "desc": "pk(0464682479cdbcbca179be6b93dbc4e9f9ed53512a17049aba17eebbde7c5d2361ce6208ec7d71983351b575e18d87a5247ff3c67c752f6f12eea2b13e56362be7)#uq4rhy59",
            "hex": "410464682479cdbcbca179be6b93dbc4e9f9ed53512a17049aba17eebbde7c5d2361ce6208ec7d71983351b575e18d87a5247ff3c67c752f6f12eea2b13e56362be7ac",
            "type": "pubkey"
          }
        }
      ],
      "hex": "01000000010000000000000000000000000000000000000000000000000000000000000000ffffffff0804ffff001d024403ffffffff0100f2052a0100000043410464682479cdbcbca179be6b93dbc4e9f9ed53512a17049aba17eebbde7c5d2361ce6208ec7d71983351b575e18d87a5247ff3c67c752f6f12eea2b13e56362be7ac00000000"
    }
  ]
}