{
  "hash": "00000000e3895990e541f0e1728fe4114db8a7ed0fdb461d190dd4308817abe6",
  "confirmations": 43739,
  "height": 9359,
  "version": 1,
  "versionHex": "00000001",
  "merkleroot": "f1cc68367fb12d2faf8f7a8a3e0fb0133af2eceac16a2fb810eaf787eba6cc0b",
  "time": 1238517908,
  "mediantime": 1238514389,
  "nonce": 375583631,
  "bits": "1d00ffff",
  "difficulty": 1,
  "chainwork": "0000000000000000000000000000000000000000000000000000249024902490",
  "nTx": 1,
  "previousblockhash": "00000000913fdbf224ecda1a0f1f8f3f77cf4decea5053f2511ef01091339475",
  "nextblockhash": "00000000ca9437f9df341b6299905c0e2bc1bfb4a55241e45a22cae02b6aed92",
  "strippedsize": 216,
  "size": 216,
  "weight": 864,
  "tx": [
    {
      "txid": "f1cc68367fb12d2faf8f7a8a3e0fb0133af2eceac16a2fb810eaf787eba6cc0b",
      "hash": "f1cc68367fb12d2faf8f7a8a3e0fb0133af2eceac16a2fb810eaf787eba6cc0b",
      "version": 1,
      "size": 135,
      "vsize": 135,
      "weight": 540,
      "locktime": 0,
      "vin": [
        {
          "coinbase": "04ffff001d023305",
          "sequence": 4294967295
        }
      ],
      "vout": [
        {
          "value": 50.0,
          "n": 0,
          "scriptPubKey": {
            "asm": "04cce300ff2b8d11c7383d56934850af1f7fa96ae5c011f84ac00316a6ae288cb58e624ca16ad6657a9a9f27fe2b44016b868674d7f65e0c509d99f965576f3ff7 OP_CHECKSIG",
            "desc": "pk(04cce300ff2b8d11c7383d56934850af1f7fa96ae5c011f84ac00316a6ae288cb58e624ca16ad6657a9a9f27fe2b44016b868674d7f65e0c509d99f965576f3ff7)#gpv4hgux",
            "hex": "4104cce300ff2b8d11c7383d56934850af1f7fa96ae5c011f84ac00316a6ae288cb58e624ca16ad6657a9a9f27fe2b44016b868674d7f65e0c509d99f965576f3ff7ac",
            "type": "pubkey"
          }
        }
      ],
      "hex": "01000000010000000000000000000000000000000000000000000000000000000000000000ffffffff0804ffff001d023305ffffffff0100f2052a01000000434104cce300ff2b8d11c7383d56934850af1f7fa96ae5c011f84ac00316a6ae288cb58e624ca16ad6657a9a9f27fe2b44016b868674d7f65e0c509d99f965576f3ff7ac00000000"
    }
  ]
}