{
  "hash": "0000000012f193e7e068070ffa7f2f8bc2262ca9db0c115a2bd210ad152e9f3f",
  "confirmations": 50025,
  "height": 3073,
  "version": 1,
  "versionHex": "00000001",
  "merkleroot": "3200448b26337815d5ad26e12585c9302323fe6f1a676bc267755544f3113b5f",
  "time": 1233812264,
  "mediantime": 1233808468,
  "nonce": 2122988808,
  "bits": "1d00ffff",
  "difficulty": 1,
  "chainwork": "00000000000000000000000000000000000000000000000000000c020c020c02",
  "nTx": 1,
  "previousblockhash": "000000002a871d6e5cd6d89b551dbc96d992637000bb02ba10140e41bf06ae19",
  "nextblockhash": "0000000046a4798ecce0245d7cadb0cf857639461582a7cebaffb064f7897012",
  "strippedsize": 216,
  "size": 216,
  "weight": 864,
  "tx": [
    {
      "txid": "3200448b26337815d5ad26e12585c9302323fe6f1a676bc267755544f3113b5f",
      "hash": "3200448b26337815d5ad26e12585c9302323fe6f1a676bc267755544f3113b5f",
      "version": 1,
      "size": 135,
      "vsize": 135,
      "weight": 540,
      "locktime": 0,
      "vin": [
        {
          "coinbase": "04ffff001d02ac00",
          "sequence": 4294967295
        }
      ],
      "vout": [
        {
          "value": 50.0,
          "n": 0,
          "scriptPubKey": {
            "asm": "04dde9643fe3869a921d8cb25c8d6d6aeccf53eb89a1c06eed2e675ded9ca938d238c457c127661063e3f15bd990bcf38ac75ef90d847bdf8205764c78239453e1 OP_CHECKSIG",
            "desc": "pk(04dde9643fe3869a921d8cb25c8d6d6aeccf53eb89a1c06eed2e675ded9ca938d238c457c127661063e3f15bd990bcf38ac75ef90d847bdf8205764c78239453e1)#xczxjz94",
            "hex": "4104dde9643fe3869a921d8cb25c8d6d6aeccf53eb89a1c06eed2e675ded9ca938d238c457c127661063e3f15bd990bcf38ac75ef90d847bdf8205764c78239453e1ac",
            "type": "pubkey"
          }
        }
      ],
      "hex": "01000000010000000000000000000000000000000000000000000000000000000000000000ffffffff0804ffff001d02ac00ffffffff0100f2052a01000000434104dde9643fe3869a921d8cb25c8d6d6aeccf53eb89a1c06eed2e675ded9ca938d238c457c127661063e3f15bd990bcf38ac75ef90d847bdf8205764c78239453e1ac00000000"
    }
  ]
}