{
  "hash": "000000009d0fa2b877d57be5825026b4c2a570fab8f8bccf9aa718f9090d5747",
  "confirmations": 51618,
  "height": 1480,
  "version": 1,
  "versionHex": "00000001",
  "merkleroot": "ae003c0933d6759d7d41131cdb29952a92f72a5a7e9ea666cc544a3c5fb07c59",
  "time": 1232759222,
  "mediantime": 1232757381,
  "nonce": 3919821077,
  "bits": "1d00ffff",
  "difficulty": 1,
  "chainwork": "000000000000000000000000000000000000000000000000000005c905c905c9",
  "nTx": 1,
  "previousblockhash": "00000000ccf0a366e9a2bb095d95cccbadadead0472ef15e913c708bb3e021f5",
  "nextblockhash": "0000000000a4d1bff90f29495e4c45d96609dcdc278264511d90e5f1602034d5",
  "strippedsize": 216,
  "size": 216,
  "weight": 864,
  "tx": [
    {
      "txid": "ae003c0933d6759d7d41131cdb29952a92f72a5a7e9ea666cc544a3c5fb07c59",
      "hash": "ae003c0933d6759d7d41131cdb29952a92f72a5a7e9ea666cc544a3c5fb07c59",
      "version": 1,
      "size": 135,
      "vsize": 135,
      "weight": 540,
      "locktime": 0,
      "vin": [
        {
          "coinbase": "04ffff001d02f600",
          "sequence": 4294967295
        }
      ],
      "vout": [
        {
          "value": 50.0,
          "n": 0,
          "scriptPubKey": {
            "asm": "04df5aeab016572f76d323d50752aa9ce893628496b0084092c42d75f4b9956f5ec3caf397324510a4f0b60dc37d5a0bf5704f5799c22b1cab3664df53e0a29032 OP_CHECKSIG",
            "desc": "pk(04df5aeab016572f76d323d50752aa9ce893628496b0084092c42d75f4b9956f5ec3caf397324510a4f0b60dc37d5a0bf5704f5799c22b1cab3664df53e0a29032)#jfv3tqpg",
            "hex": "4104df5aeab016572f76d323d50752aa9ce893628496b0084092c42d75f4b9956f5ec3caf397324510a4f0b60dc37d5a0bf5704f5799c22b1cab3664df53e0a29032ac",
            "type": "pubkey"
          }
        }
      ],
      "hex": "01000000010000000000000000000000000000000000000000000000000000000000000000ffffffff0804ffff001d02f600ffffffff0100f2052a01000000434104df5aeab016572f76d323d50752aa9ce893628496b0084092c42d75f4b9956f5ec3caf397324510a4f0b60dc37d5a0bf5704f5799c22b1cab3664df53e0a29032ac00000000"
    }
  ]
}