{
  "hash": "0000000076e05f8e9cadbb5c6b914fc7949285b5161ecb8b419eef7b4a8f4fac",
  "confirmations": 46156,
  "height": 6942,
  "version": 1,
  "versionHex": "00000001",
  "merkleroot": "d0b7f908e0838339303c13a5f05192375bf259e23a0524eef76489a888e56249",
  "time": 1236672035,
  "mediantime": 1236666999,
  "nonce": 2143034138,
  "bits": "1d00ffff",
  "difficulty": 1,
  "chainwork": "00000000000000000000000000000000000000000000000000001b1f1b1f1b1f",
  "nTx": 1,
  "previousblockhash": "00000000fcf2e4659eec34c869e25bf12bbabdc15313904c7f83b852886efcc8",
  "nextblockhash": "00000000e36f00c47aa3be81cb91ccc7626ee00182d7f712661a0068ea5d8020",
  "strippedsize": 216,
  "size": 216,
  "weight": 864,
  "tx": [
    {
      "txid": "d0b7f908e0838339303c13a5f05192375bf259e23a0524eef76489a888e56249",
      "hash": "d0b7f908e0838339303c13a5f05192375bf259e23a0524eef76489a888e56249",
      "version": 1,
      "size": 135,
      "vsize": 135,
      "weight": 540,
      "locktime": 0,
      "vin": [
        {
          "coinbase": "04ffff001d023701",
          "sequence": 4294967295
        }
      ],
      "vout": [
        {
          "value": 50.0,
          "n": 0,
          "scriptPubKey": {
            "asm": "04e3db153191af7f034a640f72a8487767112248759cf3de8e7745080ab861c055aa08b5556a5149638d5ba6cc9d6d48b36c49711122345911500c6aaa6cd2f9f1 OP_CHECKSIG",
            "desc": "pk(04e3db153191af7f034a640f72a8487767112248759cf3de8e7745080ab861c055aa08b5556a5149638d5ba6cc9d6d48b36c49711122345911500c6aaa6cd2f9f1)#dqsydt34",
            "hex": "4104e3db153191af7f034a640f72a8487767112248759cf3de8e7745080ab861c055aa08b5556a5149638d5ba6cc9d6d48b36c49711122345911500c6aaa6cd2f9f1ac",
            "type": "pubkey"
          }
        }
      ],
      "hex": "01000000010000000000000000000000000000000000000000000000000000000000000000ffffffff0804ffff001d023701ffffffff0100f2052a01000000434104e3db153191af7f034a640f72a8487767112248759cf3de8e7745080ab861c055aa08b5556a5149638d5ba6cc9d6d48b36c49711122345911500c6aaa6cd2f9f1ac00000000"
    }
  ]
}