{
  "hash": "0000000093d886b022912d12fa6e21555ae43d1c5c980083e44eff6195e1fef7",
  "confirmations": 50119,
  "height": 2979,
  "version": 1,
  "versionHex": "00000001",
  "merkleroot": "b8c268bdfd3b6dc7da3cb0bd42f364c51e86f92efcdf49f6c2aae4e4ec6c8621",
  "time": 1233747637,
  "mediantime": 1233744348,
  "nonce": 2590118201,
  "bits": "1d00ffff",
  "difficulty": 1,
  "chainwork": "00000000000000000000000000000000000000000000000000000ba40ba40ba4",
  "nTx": 1,
  "previousblockhash": "00000000949dca9b431c0e7ab2824ea53720fe54a897f3f70b7d1b910935f3b2",
  "nextblockhash": "00000000572d35219bf83f85f0d8a3e972df391ff75c000ffff80455ef526abf",
  "strippedsize": 216,
  "size": 216,
  "weight": 864,
  "tx": [
    {
      "txid": "b8c268bdfd3b6dc7da3cb0bd42f364c51e86f92efcdf49f6c2aae4e4ec6c8621",
      "hash": "b8c268bdfd3b6dc7da3cb0bd42f364c51e86f92efcdf49f6c2aae4e4ec6c8621",
      "version": 1,
      "size": 135,
      "vsize": 135,
      "weight": 540,
      "locktime": 0,
      "vin": [
        {
          "coinbase": "04ffff001d020c01",
          "sequence": 4294967295
        }
      ],
      "vout": [
        {
          "value": 50.0,
          "n": 0,
          "scriptPubKey": {
            "asm": "046928e474428012bd97fa72ad59316da1f4b41aed98bcac8d36a96bc20f2e62dbad5148e26f851707627d10b0bfbe9165894dd86f065c5fd6b55ebae90f3b75e9 OP_CHECKSIG",
            "desc": "pk(046928e474428012bd97fa72ad59316da1f4b41aed98bcac8d36a96bc20f2e62dbad5148e26f851707627d10b0bfbe9165894dd86f065c5fd6b55ebae90f3b75e9)#47fgapqq",
            "hex": "41046928e474428012bd97fa72ad59316da1f4b41aed98bcac8d36a96bc20f2e62dbad5148e26f851707627d10b0bfbe9165894dd86f065c5fd6b55ebae90f3b75e9ac",
            "type": "pubkey"
          }
        }
      ],
      "hex": "01000000010000000000000000000000000000000000000000000000000000000000000000ffffffff0804ffff001d020c01ffffffff0100f2052a010000004341046928e474428012bd97fa72ad59316da1f4b41aed98bcac8d36a96bc20f2e62dbad5148e26f851707627d10b0bfbe9165894dd86f065c5fd6b55ebae90f3b75e9ac00000000"
    }
  ]
}