{
  "hash": "000000004472faa5e8894259c36dd1b07032e2f5f91fc0567a73cfe7c5337909",
  "confirmations": 51693,
  "height": 1405,
  "version": 1,
  "versionHex": "00000001",
  "merkleroot": "eabbe5174a7369ae329c8b15e224609e61f8a3780c0b0106610b0258ef632cf2",
  "time": 1232728278,
  "mediantime": 1232726353,
  "nonce": 425499930,
  "bits": "1d00ffff",
  "difficulty": 1,
  "chainwork": "0000000000000000000000000000000000000000000000000000057e057e057e",
  "nTx": 1,
  "previousblockhash": "00000000875ff922a83550005c33aaf82b6b76c1ef4d40b0d4b6e021224fd2ab",
  "nextblockhash": "00000000aeb12f1156bd7d568d39a9db82f70e093aeec472cff510af553b7c7c",
  "strippedsize": 215,
  "size": 215,
  "weight": 860,
  "tx": [
    {
      "txid": "eabbe5174a7369ae329c8b15e224609e61f8a3780c0b0106610b0258ef632cf2",
      "hash": "eabbe5174a7369ae329c8b15e224609e61f8a3780c0b0106610b0258ef632cf2",
      "version": 1,
      "size": 134,
      "vsize": 134,
      "weight": 536,
      "locktime": 0,
      "vin": [
        {
          "coinbase": "04ffff001d0119",
          "sequence": 4294967295
        }
      ],
      "vout": [
        {
          "value": 50.0,
          "n": 0,
          "scriptPubKey": {
            "asm": "04f29ab72f2008ed3eaaaa09df79302019ed5acc5bd2225a8246905a6f3eb347bb8373df30bdefec0bf1ff244c81eabeb661058e306c4c1b1059fc94cd2e17dea1 OP_CHECKSIG",
            "desc": "pk(04f29ab72f2008ed3eaaaa09df79302019ed5acc5bd2225a8246905a6f3eb347bb8373df30bdefec0bf1ff244c81eabeb661058e306c4c1b1059fc94cd2e17dea1)#ljh7j3n6",
            "hex": "4104f29ab72f2008ed3eaaaa09df79302019ed5acc5bd2225a8246905a6f3eb347bb8373df30bdefec0bf1ff244c81eabeb661058e306c4c1b1059fc94cd2e17dea1ac",
            "type": "pubkey"
          }
        }
      ],
      "hex": "01000000010000000000000000000000000000000000000000000000000000000000000000ffffffff0704ffff001d0119ffffffff0100f2052a01000000434104f29ab72f2008ed3eaaaa09df79302019ed5acc5bd2225a8246905a6f3eb347bb8373df30bdefec0bf1ff244c81eabeb661058e306c4c1b1059fc94cd2e17dea1ac00000000"
    }
  ]
}