{
  "hash": "000000008fb7a87bdd34eeec27ac4c2e9f92b7ed47ac512c8958eba1cc15aa99",
  "confirmations": 46046,
  "height": 7052,
  "version": 1,
  "versionHex": "00000001",
  "merkleroot": "1d0301d1edce0529bf5207beb50a6ab5531d5b24145330bf67de5f81b30cbfd1",
  "time": 1236760221,
  "mediantime": 1236755775,
  "nonce": 2462551849,
  "bits": "1d00ffff",
  "difficulty": 1,
  "chainwork": "00000000000000000000000000000000000000000000000000001b8d1b8d1b8d",
  "nTx": 1,
  "previousblockhash": "000000001abb7927ca26b78f91c85a2e4b4f76cb12ce54de7f4609c5bbc4e678",
  "nextblockhash": "00000000c193474e9bc3bc3c7a38deadec58c5fc45aa3fb605769b942dba0cb4",
  "strippedsize": 216,
  "size": 216,
  "weight": 864,
  "tx": [
    {
      "txid": "1d0301d1edce0529bf5207beb50a6ab5531d5b24145330bf67de5f81b30cbfd1",
      "hash": "1d0301d1edce0529bf5207beb50a6ab5531d5b24145330bf67de5f81b30cbfd1",
      "version": 1,
      "size": 135,
      "vsize": 135,
      "weight": 540,
      "locktime": 0,
      "vin": [
        {
          "coinbase": "04ffff001d022b03",
          "sequence": 4294967295
        }
      ],
      "vout": [
        {
          "value": 50.0,
          "n": 0,
          "scriptPubKey": {
            "asm": "046aa859edc3bf082415aaa8982d249fd63ee4a336c3edf22b6040d1fa36fc4fb9795f621128a258f71045c2546f7529b842f4fe1d1b34d15bdf31e86a76ebce01 OP_CHECKSIG",
            "desc": "pk(046aa859edc3bf082415aaa8982d249fd63ee4a336c3edf22b6040d1fa36fc4fb9795f621128a258f71045c2546f7529b842f4fe1d1b34d15bdf31e86a76ebce01)#uly8up5q",
            "hex": "41046aa859edc3bf082415aaa8982d249fd63ee4a336c3edf22b6040d1fa36fc4fb9795f621128a258f71045c2546f7529b842f4fe1d1b34d15bdf31e86a76ebce01ac",
            "type": "pubkey"
          }
        }
      ],
      "hex": "01000000010000000000000000000000000000000000000000000000000000000000000000ffffffff0804ffff001d022b03ffffffff0100f2052a010000004341046aa859edc3bf082415aaa8982d249fd63ee4a336c3edf22b6040d1fa36fc4fb9795f621128a258f71045c2546f7529b842f4fe1d1b34d15bdf31e86a76ebce01ac00000000"
    }
  ]
}