{
  "hash": "000000004f896c12fb04bfc61e3d8ee6a39b74948fb7344dd7dd1b7017da5e50",
  "confirmations": 47422,
  "height": 5676,
  "version": 1,
  "versionHex": "00000001",
  "merkleroot": "3b91a687f6d2f4b86d33f77b5633ab59e8b8ed051a7202732a2d6e0c996dd9f2",
  "time": 1235672295,
  "mediantime": 1235666810,
  "nonce": 3134463745,
  "bits": "1d00ffff",
  "difficulty": 1,
  "chainwork": "0000000000000000000000000000000000000000000000000000162d162d162d",
  "nTx": 1,
  "previousblockhash": "000000001e2e1d2434b7a484ba71e34b5e76d665eeef0f2e7dbe77784b71e045",
  "nextblockhash": "000000003764448a75a66060889b3bc0a664af73a494ffcde1e15893c102902c",
  "strippedsize": 216,
  "size": 216,
  "weight": 864,
  "tx": [
    {
      "txid": "3b91a687f6d2f4b86d33f77b5633ab59e8b8ed051a7202732a2d6e0c996dd9f2",
      "hash": "3b91a687f6d2f4b86d33f77b5633ab59e8b8ed051a7202732a2d6e0c996dd9f2",
      "version": 1,
      "size": 135,
      "vsize": 135,
      "weight": 540,
      "locktime": 0,
      "vin": [
        {
          "coinbase": "04ffff001d021209",
          "sequence": 4294967295
        }
      ],
      "vout": [
        {
          "value": 50.0,
          "n": 0,
          "scriptPubKey": {
            "asm": "04df371e7cb37734a1e7711e49254659fdefb7bd0d308942c4c38013066f5030887fd383e695993afd65ea20e03883e8fa443e791a65f4ca66a867cf9640013122 OP_CHECKSIG",
            "desc": "pk(04df371e7cb37734a1e7711e49254659fdefb7bd0d308942c4c38013066f5030887fd383e695993afd65ea20e03883e8fa443e791a65f4ca66a867cf9640013122)#6jktc2jh",
            "hex": "4104df371e7cb37734a1e7711e49254659fdefb7bd0d308942c4c38013066f5030887fd383e695993afd65ea20e03883e8fa443e791a65f4ca66a867cf9640013122ac",
            "type": "pubkey"
          }
        }
      ],
      "hex": "01000000010000000000000000000000000000000000000000000000000000000000000000ffffffff0804ffff001d021209ffffffff0100f2052a01000000434104df371e7cb37734a1e7711e49254659fdefb7bd0d308942c4c38013066f5030887fd383e695993afd65ea20e03883e8fa443e791a65f4ca66a867cf9640013122ac00000000"
    }
  ]
}