{
  "hash": "000000004e2896658fbded0f1bbe87e79ae046d35e1710ef66eba237da456f41",
  "confirmations": 44744,
  "height": 8354,
  "version": 1,
  "versionHex": "00000001",
  "merkleroot": "1465fd08deb2ed4d3d4ff16320f1df376cd176bd9cac229e20e50a3808869bd7",
  "time": 1237771346,
  "mediantime": 1237765679,
  "nonce": 4178901506,
  "bits": "1d00ffff",
  "difficulty": 1,
  "chainwork": "000000000000000000000000000000000000000000000000000020a320a320a3",
  "nTx": 1,
  "previousblockhash": "0000000001412f797668fc9e713e629149e026594a74d1e7ecb85ea6ffda0813",
  "nextblockhash": "0000000079deffd6309fecdbbf5f7420d79a45af747df1ec71d316a02c0640a0",
  "strippedsize": 216,
  "size": 216,
  "weight": 864,
  "tx": [
    {
      "txid": "1465fd08deb2ed4d3d4ff16320f1df376cd176bd9cac229e20e50a3808869bd7",
      "hash": "1465fd08deb2ed4d3d4ff16320f1df376cd176bd9cac229e20e50a3808869bd7",
      "version": 1,
      "size": 135,
      "vsize": 135,
      "weight": 540,
      "locktime": 0,
      "vin": [
        {
          "coinbase": "04ffff001d021e05",
          "sequence": 4294967295
        }
      ],
      "vout": [
        {
          "value": 50.0,
          "n": 0,
          "scriptPubKey": {
            "asm": "040939eef6a19cbe636255345b2d9d06cc145518eadcf80e1779b647a9238ea86d7a0ae20d7a5c5b3abaa7910960ddd55aa255e74c3db6ee3b45602e9708c153c5 OP_CHECKSIG",
            "desc": "pk(040939eef6a19cbe636255345b2d9d06cc145518eadcf80e1779b647a9238ea86d7a0ae20d7a5c5b3abaa7910960ddd55aa255e74c3db6ee3b45602e9708c153c5)#0wedxjvx",
            "hex": "41040939eef6a19cbe636255345b2d9d06cc145518eadcf80e1779b647a9238ea86d7a0ae20d7a5c5b3abaa7910960ddd55aa255e74c3db6ee3b45602e9708c153c5ac",
            "type": "pubkey"
          }
        }
      ],
      "hex": "01000000010000000000000000000000000000000000000000000000000000000000000000ffffffff0804ffff001d021e05ffffffff0100f2052a010000004341040939eef6a19cbe636255345b2d9d06cc145518eadcf80e1779b647a9238ea86d7a0ae20d7a5c5b3abaa7910960ddd55aa255e74c3db6ee3b45602e9708c153c5ac00000000"
    }
  ]
}