{
  "hash": "00000000830b0031a58f8460a73f0dfabcced1bdc0460133bbfed1cc69b7d731",
  "confirmations": 46275,
  "height": 6823,
  "version": 1,
  "versionHex": "00000001",
  "merkleroot": "22012e885b41df990febeab7945c087657c4602659124835b4b48ceb0ed1a9cc",
  "time": 1236573753,
  "mediantime": 1236569466,
  "nonce": 4190229287,
  "bits": "1d00ffff",
  "difficulty": 1,
  "chainwork": "00000000000000000000000000000000000000000000000000001aa81aa81aa8",
  "nTx": 1,
  "previousblockhash": "000000009cde2ce5bc01b3866af3ac350324f222d3c3509435539a517a13227d",
  "nextblockhash": "00000000fe2e1eaa58d615582450869bc1b6dd5133a02d9323927dc925ce0a70",
  "strippedsize": 216,
  "size": 216,
  "weight": 864,
  "tx": [
    {
      "txid": "22012e885b41df990febeab7945c087657c4602659124835b4b48ceb0ed1a9cc",
      "hash": "22012e885b41df990febeab7945c087657c4602659124835b4b48ceb0ed1a9cc",
      "version": 1,
      "size": 135,
      "vsize": 135,
      "weight": 540,
      "locktime": 0,
      "vin": [
        {
          "coinbase": "04ffff001d025209",
          "sequence": 4294967295
        }
      ],
      "vout": [
        {
          "value": 50.0,
          "n": 0,
          "scriptPubKey": {
            "asm": "04246d0727bbb80662dcba4a786afac3202eadb8bd981247bcf8c71a8ee5bb17fd4b35447806c10064c5050b09f3482e3d20e86480d0354c6671d712a96b8e65a5 OP_CHECKSIG",
            "desc": "pk(04246d0727bbb80662dcba4a786afac3202eadb8bd981247bcf8c71a8ee5bb17fd4b35447806c10064c5050b09f3482e3d20e86480d0354c6671d712a96b8e65a5)#l9zdeva4",
            "hex": "4104246d0727bbb80662dcba4a786afac3202eadb8bd981247bcf8c71a8ee5bb17fd4b35447806c10064c5050b09f3482e3d20e86480d0354c6671d712a96b8e65a5ac",
            "type": "pubkey"
          }
        }
      ],
      "hex": "01000000010000000000000000000000000000000000000000000000000000000000000000ffffffff0804ffff001d025209ffffffff0100f2052a01000000434104246d0727bbb80662dcba4a786afac3202eadb8bd981247bcf8c71a8ee5bb17fd4b35447806c10064c5050b09f3482e3d20e86480d0354c6671d712a96b8e65a5ac00000000"
    }
  ]
}