{
  "hash": "00000000ae419a918322bba4bc0812ca1a810bde58abba3000f54cebc3dbe83b",
  "confirmations": 47282,
  "height": 5816,
  "version": 1,
  "versionHex": "00000001",
  "merkleroot": "e956cfe9a37c3aa6787dd3241c55772da082fb16106699e90711c08caf1eb86b",
  "time": 1235772546,
  "mediantime": 1235767819,
  "nonce": 147471717,
  "bits": "1d00ffff",
  "difficulty": 1,
  "chainwork": "000000000000000000000000000000000000000000000000000016b916b916b9",
  "nTx": 1,
  "previousblockhash": "00000000ad49fc0520ee9c422e862738cd91e06dc582758b3ff3d48b3d0cfa99",
  "nextblockhash": "0000000053d168279fa9783832e47483c20d6077c98f85e29621ffad2119a6c1",
  "strippedsize": 216,
  "size": 216,
  "weight": 864,
  "tx": [
    {
      "txid": "e956cfe9a37c3aa6787dd3241c55772da082fb16106699e90711c08caf1eb86b",
      "hash": "e956cfe9a37c3aa6787dd3241c55772da082fb16106699e90711c08caf1eb86b",
      "version": 1,
      "size": 135,
      "vsize": 135,
      "weight": 540,
      "locktime": 0,
      "vin": [
        {
          "coinbase": "04ffff001d02db00",
          "sequence": 4294967295
        }
      ],
      "vout": [
        {
          "value": 50.0,
          "n": 0,
          "scriptPubKey": {
            "asm": "046a74693c4e90389910fa007b88ccc026a0c67ff648d4d06d720dedb6af1a9f39e3f4ce2a7f5a6e7709f6c23b8503b7d0d5f36ff6919858b7e856204369e349b1 OP_CHECKSIG",
            "desc": "pk(046a74693c4e90389910fa007b88ccc026a0c67ff648d4d06d720dedb6af1a9f39e3f4ce2a7f5a6e7709f6c23b8503b7d0d5f36ff6919858b7e856204369e349b1)#n50fgkmx",
            "hex": "41046a74693c4e90389910fa007b88ccc026a0c67ff648d4d06d720dedb6af1a9f39e3f4ce2a7f5a6e7709f6c23b8503b7d0d5f36ff6919858b7e856204369e349b1ac",
            "type": "pubkey"
          }
        }
      ],
      "hex": "01000000010000000000000000000000000000000000000000000000000000000000000000ffffffff0804ffff001d02db00ffffffff0100f2052a010000004341046a74693c4e90389910fa007b88ccc026a0c67ff648d4d06d720dedb6af1a9f39e3f4ce2a7f5a6e7709f6c23b8503b7d0d5f36ff6919858b7e856204369e349b1ac00000000"
    }
  ]
}