{
  "hash": "00000000c735d3c3c9a02fba4f4807d696280c3fcb402abd7dce29d95a38f9fb",
  "confirmations": 44208,
  "height": 8890,
  "version": 1,
  "versionHex": "00000001",
  "merkleroot": "0c284357cc5bf9150206a1500e60d9f9e1b3d1b40389f84786fe0682f1eb3b06",
  "time": 1238170461,
  "mediantime": 1238165811,
  "nonce": 1541892358,
  "bits": "1d00ffff",
  "difficulty": 1,
  "chainwork": "000000000000000000000000000000000000000000000000000022bb22bb22bb",
  "nTx": 1,
  "previousblockhash": "00000000a0d1faff6c739a8fe94aa985bab7dd8690bb089ce0952829179bed9e",
  "nextblockhash": "000000008d533850b2f17cdcd43bff547a01f583f44f38bddfa2e10eab9eec01",
  "strippedsize": 216,
  "size": 216,
  "weight": 864,
  "tx": [
    {
      "txid": "0c284357cc5bf9150206a1500e60d9f9e1b3d1b40389f84786fe0682f1eb3b06",
      "hash": "0c284357cc5bf9150206a1500e60d9f9e1b3d1b40389f84786fe0682f1eb3b06",
      "version": 1,
      "size": 135,
      "vsize": 135,
      "weight": 540,
      "locktime": 0,
      "vin": [
        {
          "coinbase": "04ffff001d024304",
          "sequence": 4294967295
        }
      ],
      "vout": [
        {
          "value": 50.0,
          "n": 0,
          "scriptPubKey": {
            "asm": "04bc468192676178aa27e302094cdb10bb28534b7b32525dae9a73dc4a8a2c6d07dae76f3c55777539cc521ad055eb698f5b22a23a6447a2429024d4ad65628f5d OP_CHECKSIG",
            "desc": "pk(04bc468192676178aa27e302094cdb10bb28534b7b32525dae9a73dc4a8a2c6d07dae76f3c55777539cc521ad055eb698f5b22a23a6447a2429024d4ad65628f5d)#vt9njxdz",
            "hex": "4104bc468192676178aa27e302094cdb10bb28534b7b32525dae9a73dc4a8a2c6d07dae76f3c55777539cc521ad055eb698f5b22a23a6447a2429024d4ad65628f5dac",
            "type": "pubkey"
          }
        }
      ],
      "hex": "01000000010000000000000000000000000000000000000000000000000000000000000000ffffffff0804ffff001d024304ffffffff0100f2052a01000000434104bc468192676178aa27e302094cdb10bb28534b7b32525dae9a73dc4a8a2c6d07dae76f3c55777539cc521ad055eb698f5b22a23a6447a2429024d4ad65628f5dac00000000"
    }
  ]
}