{
  "hash": "00000000d2ad57633e3f5c1e01993fe32f8570d6f38c09d8b277130490642c27",
  "confirmations": 50664,
  "height": 2434,
  "version": 1,
  "versionHex": "00000001",
  "merkleroot": "a189c13fd947a77a94d33ce188f719577a14ecd05836e65904d807624cdbd825",
  "time": 1233380497,
  "mediantime": 1233376208,
  "nonce": 3034230559,
  "bits": "1d00ffff",
  "difficulty": 1,
  "chainwork": "0000000000000000000000000000000000000000000000000000098309830983",
  "nTx": 1,
  "previousblockhash": "0000000051047cd40e4eedaf77e20d928aacf6e00d5eff248f4bf76c0220e16f",
  "nextblockhash": "000000001761898ad018270ad1ac1359946a9977462bd7f5a46661e2ad1acf49",
  "strippedsize": 215,
  "size": 215,
  "weight": 860,
  "tx": [
    {
      "txid": "a189c13fd947a77a94d33ce188f719577a14ecd05836e65904d807624cdbd825",
      "hash": "a189c13fd947a77a94d33ce188f719577a14ecd05836e65904d807624cdbd825",
      "version": 1,
      "size": 134,
      "vsize": 134,
      "weight": 536,
      "locktime": 0,
      "vin": [
        {
          "coinbase": "04ffff001d0144",
          "sequence": 4294967295
        }
      ],
      "vout": [
        {
          "value": 50.0,
          "n": 0,
          "scriptPubKey": {
            "asm": "04123cbcc8067d83b8f5eb0dd31a931dc86f3fb37409302c6a85d150b5b02c3962fdd5a9bb31ad62e71ac80500b67cb9e49555139fdc2d9345e4fb79aa324afefe OP_CHECKSIG",
            "desc": "pk(04123cbcc8067d83b8f5eb0dd31a931dc86f3fb37409302c6a85d150b5b02c3962fdd5a9bb31ad62e71ac80500b67cb9e49555139fdc2d9345e4fb79aa324afefe)#r8d3ay4z",
            "hex": "4104123cbcc8067d83b8f5eb0dd31a931dc86f3fb37409302c6a85d150b5b02c3962fdd5a9bb31ad62e71ac80500b67cb9e49555139fdc2d9345e4fb79aa324afefeac",
            "type": "pubkey"
          }
        }
      ],
      "hex": "01000000010000000000000000000000000000000000000000000000000000000000000000ffffffff0704ffff001d0144ffffffff0100f2052a01000000434104123cbcc8067d83b8f5eb0dd31a931dc86f3fb37409302c6a85d150b5b02c3962fdd5a9bb31ad62e71ac80500b67cb9e49555139fdc2d9345e4fb79aa324afefeac00000000"
    }
  ]
}