{
  "hash": "00000000c0969c1775dc2efb67f9461039750c47d149665b5754d4ffe09c9df4",
  "confirmations": 50681,
  "height": 2417,
  "version": 1,
  "versionHex": "00000001",
  "merkleroot": "acedd5b2a607214718252998781e19e964f0dca3449c96068f30efe69ccfa117",
  "time": 1233368704,
  "mediantime": 1233363475,
  "nonce": 734233653,
  "bits": "1d00ffff",
  "difficulty": 1,
  "chainwork": "0000000000000000000000000000000000000000000000000000097209720972",
  "nTx": 1,
  "previousblockhash": "000000004216f1854ce6d125d77cc66556f4106323c5cd7b96f3da8d3425d616",
  "nextblockhash": "000000001c77c4cc9a7489390e942b5180a7a604309de003ad53d79813699dad",
  "strippedsize": 215,
  "size": 215,
  "weight": 860,
  "tx": [
    {
      "txid": "acedd5b2a607214718252998781e19e964f0dca3449c96068f30efe69ccfa117",
      "hash": "acedd5b2a607214718252998781e19e964f0dca3449c96068f30efe69ccfa117",
      "version": 1,
      "size": 134,
      "vsize": 134,
      "weight": 536,
      "locktime": 0,
      "vin": [
        {
          "coinbase": "04ffff001d010a",
          "sequence": 4294967295
        }
      ],
      "vout": [
        {
          "value": 50.0,
          "n": 0,
          "scriptPubKey": {
            "asm": "0445395c356dde2b932e61103f42a4128d2ff94bed29d538642d3b6389e734d014f9ba1dfbe32871ee41af7d12e44a006698d83f8dbfc02ebc96b6bf995bf27b51 OP_CHECKSIG",
            "desc": "pk(0445395c356dde2b932e61103f42a4128d2ff94bed29d538642d3b6389e734d014f9ba1dfbe32871ee41af7d12e44a006698d83f8dbfc02ebc96b6bf995bf27b51)#465zl0ws",
            "hex": "410445395c356dde2b932e61103f42a4128d2ff94bed29d538642d3b6389e734d014f9ba1dfbe32871ee41af7d12e44a006698d83f8dbfc02ebc96b6bf995bf27b51ac",
            "type": "pubkey"
          }
        }
      ],
      "hex": "01000000010000000000000000000000000000000000000000000000000000000000000000ffffffff0704ffff001d010affffffff0100f2052a0100000043410445395c356dde2b932e61103f42a4128d2ff94bed29d538642d3b6389e734d014f9ba1dfbe32871ee41af7d12e44a006698d83f8dbfc02ebc96b6bf995bf27b51ac00000000"
    }
  ]
}