{
  "hash": "000000005e7d5b3a44803b333b33ff2497edf213b1c7910277f49c6de67122c0",
  "confirmations": 46697,
  "height": 6401,
  "version": 1,
  "versionHex": "00000001",
  "merkleroot": "1ea41a16df0351ee72153e79e14ce5307cb2a85bab7d0da96dbf8925215b8e5b",
  "time": 1236256616,
  "mediantime": 1236252944,
  "nonce": 219758615,
  "bits": "1d00ffff",
  "difficulty": 1,
  "chainwork": "0000000000000000000000000000000000000000000000000000190219021902",
  "nTx": 1,
  "previousblockhash": "00000000584420c089821bdea32f64a73ad055ed814e90972f9108cc295517cf",
  "nextblockhash": "000000008967b63ef7bf00299f69687bfce031022dc2db60219bcdb85b96aafc",
  "strippedsize": 216,
  "size": 216,
  "weight": 864,
  "tx": [
    {
      "txid": "1ea41a16df0351ee72153e79e14ce5307cb2a85bab7d0da96dbf8925215b8e5b",
      "hash": "1ea41a16df0351ee72153e79e14ce5307cb2a85bab7d0da96dbf8925215b8e5b",
      "version": 1,
      "size": 135,
      "vsize": 135,
      "weight": 540,
      "locktime": 0,
      "vin": [
        {
          "coinbase": "04ffff001d02ca0a",
          "sequence": 4294967295
        }
      ],
      "vout": [
        {
          "value": 50.0,
          "n": 0,
          "scriptPubKey": {
            "asm": "04b061464fcc4b43e83fc11de2989218492715e640625ab6a1e2ac8e5b830eedd8733d9909f100f0db17d04ad66e7ce00ce345755f5b1f0eb65a40a3fab9b89471 OP_CHECKSIG",
            "desc": "pk(04b061464fcc4b43e83fc11de2989218492715e640625ab6a1e2ac8e5b830eedd8733d9909f100f0db17d04ad66e7ce00ce345755f5b1f0eb65a40a3fab9b89471)#f5zmw7vu",
            "hex": "4104b061464fcc4b43e83fc11de2989218492715e640625ab6a1e2ac8e5b830eedd8733d9909f100f0db17d04ad66e7ce00ce345755f5b1f0eb65a40a3fab9b89471ac",
            "type": "pubkey"
          }
        }
      ],
      "hex": "01000000010000000000000000000000000000000000000000000000000000000000000000ffffffff0804ffff001d02ca0affffffff0100f2052a01000000434104b061464fcc4b43e83fc11de2989218492715e640625ab6a1e2ac8e5b830eedd8733d9909f100f0db17d04ad66e7ce00ce345755f5b1f0eb65a40a3fab9b89471ac00000000"
    }
  ]
}