{
  "hash": "000000005b3f9f5a28b3a6269666a7cce802abd90fe1f6f4f3f678907b054c81",
  "confirmations": 46062,
  "height": 7036,
  "version": 1,
  "versionHex": "00000001",
  "merkleroot": "ae4df0df8b2f22927626ee363e057ace5dbb2bebed756fe7495080e0c83db14c",
  "time": 1236745551,
  "mediantime": 1236741010,
  "nonce": 1090993669,
  "bits": "1d00ffff",
  "difficulty": 1,
  "chainwork": "00000000000000000000000000000000000000000000000000001b7d1b7d1b7d",
  "nTx": 1,
  "previousblockhash": "00000000bbed92b5479c99db0db6180da4f5d985100ec7fa49542b50f55e63aa",
  "nextblockhash": "00000000ba7796b119b0230c5b5d9b2f55296930ce323ecaa3ab5e8ba0c26851",
  "strippedsize": 216,
  "size": 216,
  "weight": 864,
  "tx": [
    {
      "txid": "ae4df0df8b2f22927626ee363e057ace5dbb2bebed756fe7495080e0c83db14c",
      "hash": "ae4df0df8b2f22927626ee363e057ace5dbb2bebed756fe7495080e0c83db14c",
      "version": 1,
      "size": 135,
      "vsize": 135,
      "weight": 540,
      "locktime": 0,
      "vin": [
        {
          "coinbase": "04ffff001d02f302",
          "sequence": 4294967295
        }
      ],
      "vout": [
        {
          "value": 50.0,
          "n": 0,
          "scriptPubKey": {
            "asm": "04ee042f3d1d96d6b4d97c8704abac98c51e7e10bdac23fd4f7223980d3c73c1fbbfdde4d14d495025e0e69e6572f1ea8790cb8f75ade7e1f6287c6c62297d285c OP_CHECKSIG",
            "desc": "pk(04ee042f3d1d96d6b4d97c8704abac98c51e7e10bdac23fd4f7223980d3c73c1fbbfdde4d14d495025e0e69e6572f1ea8790cb8f75ade7e1f6287c6c62297d285c)#uws5du8x",
            "hex": "4104ee042f3d1d96d6b4d97c8704abac98c51e7e10bdac23fd4f7223980d3c73c1fbbfdde4d14d495025e0e69e6572f1ea8790cb8f75ade7e1f6287c6c62297d285cac",
            "type": "pubkey"
          }
        }
      ],
      "hex": "01000000010000000000000000000000000000000000000000000000000000000000000000ffffffff0804ffff001d02f302ffffffff0100f2052a01000000434104ee042f3d1d96d6b4d97c8704abac98c51e7e10bdac23fd4f7223980d3c73c1fbbfdde4d14d495025e0e69e6572f1ea8790cb8f75ade7e1f6287c6c62297d285cac00000000"
    }
  ]
}