{
  "hash": "00000000f4851af7a696729b89e37e09b6939e7cc99614963959a5a51e69de20",
  "confirmations": 44133,
  "height": 8965,
  "version": 1,
  "versionHex": "00000001",
  "merkleroot": "d1ce0414313ca767aef0fd6e09cf7e86caa1c7d9644dec6082848a0478fc9f86",
  "time": 1238229074,
  "mediantime": 1238224958,
  "nonce": 1863618866,
  "bits": "1d00ffff",
  "difficulty": 1,
  "chainwork": "0000000000000000000000000000000000000000000000000000230623062306",
  "nTx": 1,
  "previousblockhash": "00000000f579f67af5a7aa3b45ed58f556d763711b9861567f753a59a4dd1877",
  "nextblockhash": "0000000013232867033d0db619d6c288c41e7d32b2e70987d30c38e34c697f47",
  "strippedsize": 216,
  "size": 216,
  "weight": 864,
  "tx": [
    {
      "txid": "d1ce0414313ca767aef0fd6e09cf7e86caa1c7d9644dec6082848a0478fc9f86",
      "hash": "d1ce0414313ca767aef0fd6e09cf7e86caa1c7d9644dec6082848a0478fc9f86",
      "version": 1,
      "size": 135,
      "vsize": 135,
      "weight": 540,
      "locktime": 0,
      "vin": [
        {
          "coinbase": "04ffff001d02d405",
          "sequence": 4294967295
        }
      ],
      "vout": [
        {
          "value": 50.0,
          "n": 0,
          "scriptPubKey": {
            "asm": "04f2a5b3ae02b0e470fbcb92e75db370d310943e557abcd9d259e484139bd6d95c1e3233645c9807254258244a5e184523318a21519739d34346246f5ccfcef73f OP_CHECKSIG",
            "desc": "pk(04f2a5b3ae02b0e470fbcb92e75db370d310943e557abcd9d259e484139bd6d95c1e3233645c9807254258244a5e184523318a21519739d34346246f5ccfcef73f)#lx797da5",
            "hex": "4104f2a5b3ae02b0e470fbcb92e75db370d310943e557abcd9d259e484139bd6d95c1e3233645c9807254258244a5e184523318a21519739d34346246f5ccfcef73fac",
            "type": "pubkey"
          }
        }
      ],
      "hex": "01000000010000000000000000000000000000000000000000000000000000000000000000ffffffff0804ffff001d02d405ffffffff0100f2052a01000000434104f2a5b3ae02b0e470fbcb92e75db370d310943e557abcd9d259e484139bd6d95c1e3233645c9807254258244a5e184523318a21519739d34346246f5ccfcef73fac00000000"
    }
  ]
}