{
  "hash": "0000000051123fc90ab6e36edce52fe309924cdcd5160313d82d00536c868ef3",
  "confirmations": 45317,
  "height": 7781,
  "version": 1,
  "versionHex": "00000001",
  "merkleroot": "574c692db52744c998667ea4b5d568c637aeb7f3ccfee2b103a9cda68da70fa0",
  "time": 1237298756,
  "mediantime": 1237295601,
  "nonce": 36347904,
  "bits": "1d00ffff",
  "difficulty": 1,
  "chainwork": "00000000000000000000000000000000000000000000000000001e661e661e66",
  "nTx": 1,
  "previousblockhash": "00000000caacc22c3c30c5bfc48fe04cbc922d8240a2b766a19cedead68486fc",
  "nextblockhash": "000000002b2f5f9fad5dd5242e028305482b2afef1ab84f113e5f2e53717dc32",
  "strippedsize": 216,
  "size": 216,
  "weight": 864,
  "tx": [
    {
      "txid": "574c692db52744c998667ea4b5d568c637aeb7f3ccfee2b103a9cda68da70fa0",
      "hash": "574c692db52744c998667ea4b5d568c637aeb7f3ccfee2b103a9cda68da70fa0",
      "version": 1,
      "size": 135,
      "vsize": 135,
      "weight": 540,
      "locktime": 0,
      "vin": [
        {
          "coinbase": "04ffff001d027a05",
          "sequence": 4294967295
        }
      ],
      "vout": [
        {
          "value": 50.0,
          "n": 0,
          "scriptPubKey": {
            "asm": "040743a7b2b23ed99bdbae2334932992fada05e9ee8b5d3bd7905fda2d3b1bdf8e0c647538919035016bb21f53e22b9841d20d4373b062bce06e8b60a26b0a0803 OP_CHECKSIG",
            "desc": "pk(040743a7b2b23ed99bdbae2334932992fada05e9ee8b5d3bd7905fda2d3b1bdf8e0c647538919035016bb21f53e22b9841d20d4373b062bce06e8b60a26b0a0803)#9eskyrx4",
            "hex": "41040743a7b2b23ed99bdbae2334932992fada05e9ee8b5d3bd7905fda2d3b1bdf8e0c647538919035016bb21f53e22b9841d20d4373b062bce06e8b60a26b0a0803ac",
            "type": "pubkey"
          }
        }
      ],
      "hex": "01000000010000000000000000000000000000000000000000000000000000000000000000ffffffff0804ffff001d027a05ffffffff0100f2052a010000004341040743a7b2b23ed99bdbae2334932992fada05e9ee8b5d3bd7905fda2d3b1bdf8e0c647538919035016bb21f53e22b9841d20d4373b062bce06e8b60a26b0a0803ac00000000"
    }
  ]
}