{
  "hash": "00000000e684309e67fabdf765bea193cdf8532111079b7f53a0839746d19240",
  "confirmations": 52198,
  "height": 900,
  "version": 1,
  "versionHex": "00000001",
  "merkleroot": "aab671fe9073655be38428228b6d1561afa195a66d1fce363a7fc55918921370",
  "time": 1232275729,
  "mediantime": 1232271496,
  "nonce": 370611494,
  "bits": "1d00ffff",
  "difficulty": 1,
  "chainwork": "0000000000000000000000000000000000000000000000000000038503850385",
  "nTx": 1,
  "previousblockhash": "00000000679a9b4bd9ee14552dd3bcc8330c75aa76191dd2c112db1ceee4926d",
  "nextblockhash": "000000005d43dd65f5b334be51b6ca0910477a0344c5290a36f147c0d5c0730e",
  "strippedsize": 216,
  "size": 216,
  "weight": 864,
  "tx": [
    {
      "txid": "aab671fe9073655be38428228b6d1561afa195a66d1fce363a7fc55918921370",
      "hash": "aab671fe9073655be38428228b6d1561afa195a66d1fce363a7fc55918921370",
      "version": 1,
      "size": 135,
      "vsize": 135,
      "weight": 540,
      "locktime": 0,
      "vin": [
        {
          "coinbase": "04ffff001d02aa03",
          "sequence": 4294967295
        }
      ],
      "vout": [
        {
          "value": 50.0,
          "n": 0,
          "scriptPubKey": {
            "asm": "04d51c1bcd275c33db6f40d87ee0f795204121053bb9a70e8eaba867232afd896133f2cc8b4173822e826c9e7f297dedcf0e33a7ecc319ed9f7497ce4235a8c36e OP_CHECKSIG",
            "desc": "pk(04d51c1bcd275c33db6f40d87ee0f795204121053bb9a70e8eaba867232afd896133f2cc8b4173822e826c9e7f297dedcf0e33a7ecc319ed9f7497ce4235a8c36e)#8zanh3zh",
            "hex": "4104d51c1bcd275c33db6f40d87ee0f795204121053bb9a70e8eaba867232afd896133f2cc8b4173822e826c9e7f297dedcf0e33a7ecc319ed9f7497ce4235a8c36eac",
            "type": "pubkey"
          }
        }
      ],
      "hex": "01000000010000000000000000000000000000000000000000000000000000000000000000ffffffff0804ffff001d02aa03ffffffff0100f2052a01000000434104d51c1bcd275c33db6f40d87ee0f795204121053bb9a70e8eaba867232afd896133f2cc8b4173822e826c9e7f297dedcf0e33a7ecc319ed9f7497ce4235a8c36eac00000000"
    }
  ]
}