{
  "hash": "0000000033fc2a62a6745aed41c76a7ba981aa669a243bcc034d61ca7b3a1f61",
  "confirmations": 49707,
  "height": 3391,
  "version": 1,
  "versionHex": "00000001",
  "merkleroot": "94be8e769629cf4d11e124f671cb3130bb5b0a6e293bb9be63148ff422a78821",
  "time": 1234031925,
  "mediantime": 1234028640,
  "nonce": 72173587,
  "bits": "1d00ffff",
  "difficulty": 1,
  "chainwork": "00000000000000000000000000000000000000000000000000000d400d400d40",
  "nTx": 1,
  "previousblockhash": "00000000ddd910a8d5fc69284417f201774ade8b523ab7351a737fe5ad331466",
  "nextblockhash": "0000000053c8b84a15ab4253164f7ab63a5190e97b320fb58e0f2e8fd2897ef7",
  "strippedsize": 215,
  "size": 215,
  "weight": 860,
  "tx": [
    {
      "txid": "94be8e769629cf4d11e124f671cb3130bb5b0a6e293bb9be63148ff422a78821",
      "hash": "94be8e769629cf4d11e124f671cb3130bb5b0a6e293bb9be63148ff422a78821",
      "version": 1,
      "size": 134,
      "vsize": 134,
      "weight": 536,
      "locktime": 0,
      "vin": [
        {
          "coinbase": "04ffff001d012d",
          "sequence": 4294967295
        }
      ],
      "vout": [
        {
          "value": 50.0,
          "n": 0,
          "scriptPubKey": {
            "asm": "04588872131558c545fe2ad83768c3c826544ad2a1536b4df5e1990f9fa500690dad482a6701a647d438757bf85b45d517012338ab707982aec9b120094a112c3e OP_CHECKSIG",
            "desc": "pk(04588872131558c545fe2ad83768c3c826544ad2a1536b4df5e1990f9fa500690dad482a6701a647d438757bf85b45d517012338ab707982aec9b120094a112c3e)#fu0speyx",
            "hex": "4104588872131558c545fe2ad83768c3c826544ad2a1536b4df5e1990f9fa500690dad482a6701a647d438757bf85b45d517012338ab707982aec9b120094a112c3eac",
            "type": "pubkey"
          }
        }
      ],
      "hex": "01000000010000000000000000000000000000000000000000000000000000000000000000ffffffff0704ffff001d012dffffffff0100f2052a01000000434104588872131558c545fe2ad83768c3c826544ad2a1536b4df5e1990f9fa500690dad482a6701a647d438757bf85b45d517012338ab707982aec9b120094a112c3eac00000000"
    }
  ]
}