{
  "hash": "0000000065f35f8f590064aae9c964227a29b0e433abd4d85978c34225aa8fb8",
  "confirmations": 43911,
  "height": 9187,
  "version": 1,
  "versionHex": "00000001",
  "merkleroot": "681cd2e70db3a31f7e47fd9210661a60f50e8312cb9354554f19ea8f9e2639d6",
  "time": 1238391775,
  "mediantime": 1238387982,
  "nonce": 350004537,
  "bits": "1d00ffff",
  "difficulty": 1,
  "chainwork": "000000000000000000000000000000000000000000000000000023e423e423e4",
  "nTx": 1,
  "previousblockhash": "000000003865dd95666b8196090790c5952d7ee45e9dce3e7bc991212a3dc975",
  "nextblockhash": "00000000cdf03f5843f16bb40456cbf509280afa5093404a8eb2b76d4d7e694f",
  "strippedsize": 216,
  "size": 216,
  "weight": 864,
  "tx": [
    {
      "txid": "681cd2e70db3a31f7e47fd9210661a60f50e8312cb9354554f19ea8f9e2639d6",
      "hash": "681cd2e70db3a31f7e47fd9210661a60f50e8312cb9354554f19ea8f9e2639d6",
      "version": 1,
      "size": 135,
      "vsize": 135,
      "weight": 540,
      "locktime": 0,
      "vin": [
        {
          "coinbase": "04ffff001d020c0a",
          "sequence": 4294967295
        }
      ],
      "vout": [
        {
          "value": 50.0,
          "n": 0,
          "scriptPubKey": {
            "asm": "0454236cc9a066f623f60abb524433aba36be61b6c8b0ea8f93a771b7b110929596159b392954c50afd0895e0d115ce6fe01849ad8635056c612cfd3ec9a2cb482 OP_CHECKSIG",
            "desc": "pk(0454236cc9a066f623f60abb524433aba36be61b6c8b0ea8f93a771b7b110929596159b392954c50afd0895e0d115ce6fe01849ad8635056c612cfd3ec9a2cb482)#58xwleh7",
            "hex": "410454236cc9a066f623f60abb524433aba36be61b6c8b0ea8f93a771b7b110929596159b392954c50afd0895e0d115ce6fe01849ad8635056c612cfd3ec9a2cb482ac",
            "type": "pubkey"
          }
        }
      ],
      "hex": "01000000010000000000000000000000000000000000000000000000000000000000000000ffffffff0804ffff001d020c0affffffff0100f2052a0100000043410454236cc9a066f623f60abb524433aba36be61b6c8b0ea8f93a771b7b110929596159b392954c50afd0895e0d115ce6fe01849ad8635056c612cfd3ec9a2cb482ac00000000"
    }
  ]
}