{
  "hash": "000000003ea24331e6028681e1d342c0f21a45c3e205f24ccd5298a6497d1c58",
  "confirmations": 52422,
  "height": 676,
  "version": 1,
  "versionHex": "00000001",
  "merkleroot": "16b5a5cdf960a4dd822be1bab9c3cec43fb9524cca96006944347ca43d873cac",
  "time": 1232089660,
  "mediantime": 1232084566,
  "nonce": 2554391347,
  "bits": "1d00ffff",
  "difficulty": 1,
  "chainwork": "000000000000000000000000000000000000000000000000000002a502a502a5",
  "nTx": 1,
  "previousblockhash": "00000000c1c260c8e5913550e4321b0feffb74e19897c4256c57084ec81a2b92",
  "nextblockhash": "00000000ff1f5a558c320074a15d59eaa0f05e98f7258075f69ad3303eb9c759",
  "strippedsize": 215,
  "size": 215,
  "weight": 860,
  "tx": [
    {
      "txid": "16b5a5cdf960a4dd822be1bab9c3cec43fb9524cca96006944347ca43d873cac",
      "hash": "16b5a5cdf960a4dd822be1bab9c3cec43fb9524cca96006944347ca43d873cac",
      "version": 1,
      "size": 134,
      "vsize": 134,
      "weight": 536,
      "locktime": 0,
      "vin": [
        {
          "coinbase": "04ffff001d015a",
          "sequence": 4294967295
        }
      ],
      "vout": [
        {
          "value": 50.0,
          "n": 0,
          "scriptPubKey": {
            "asm": "047c5d28350cfe7739f26fc07a1c3d5e34c57383eb537f4bcb2e0e7f8753be940fab0486a0ef05dc1d33c547cbeb15c20025e585cd23391d6fa6bf1aa1b97de8dd OP_CHECKSIG",
            "desc": "pk(047c5d28350cfe7739f26fc07a1c3d5e34c57383eb537f4bcb2e0e7f8753be940fab0486a0ef05dc1d33c547cbeb15c20025e585cd23391d6fa6bf1aa1b97de8dd)#f9hmva5u",
            "hex": "41047c5d28350cfe7739f26fc07a1c3d5e34c57383eb537f4bcb2e0e7f8753be940fab0486a0ef05dc1d33c547cbeb15c20025e585cd23391d6fa6bf1aa1b97de8ddac",
            "type": "pubkey"
          }
        }
      ],
      "hex": "01000000010000000000000000000000000000000000000000000000000000000000000000ffffffff0704ffff001d015affffffff0100f2052a010000004341047c5d28350cfe7739f26fc07a1c3d5e34c57383eb537f4bcb2e0e7f8753be940fab0486a0ef05dc1d33c547cbeb15c20025e585cd23391d6fa6bf1aa1b97de8ddac00000000"
    }
  ]
}