{
  "hash": "000000007569ac9cf8db89a6903ed71218bcf25786370acefef1866e15e96216",
  "confirmations": 50815,
  "height": 2283,
  "version": 1,
  "versionHex": "00000001",
  "merkleroot": "754791069db6684e51c41ee79c00e470222f86d1083a6625e017ee63cf4e96d4",
  "time": 1233269700,
  "mediantime": 1233265782,
  "nonce": 2838693379,
  "bits": "1d00ffff",
  "difficulty": 1,
  "chainwork": "000000000000000000000000000000000000000000000000000008ec08ec08ec",
  "nTx": 1,
  "previousblockhash": "000000005743d5f574e5a96826445be944e59687cba22ede9783155a1074da9b",
  "nextblockhash": "000000007f4d5878b1965c46df374dc15b6f002a1f84a3d1aeaddf119b39fef6",
  "strippedsize": 216,
  "size": 216,
  "weight": 864,
  "tx": [
    {
      "txid": "754791069db6684e51c41ee79c00e470222f86d1083a6625e017ee63cf4e96d4",
      "hash": "754791069db6684e51c41ee79c00e470222f86d1083a6625e017ee63cf4e96d4",
      "version": 1,
      "size": 135,
      "vsize": 135,
      "weight": 540,
      "locktime": 0,
      "vin": [
        {
          "coinbase": "04ffff001d027401",
          "sequence": 4294967295
        }
      ],
      "vout": [
        {
          "value": 50.0,
          "n": 0,
          "scriptPubKey": {
            "asm": "0487111548569853ad3306ed960638adce3c29d32e559fedac9ad9c30dda427e5ef98680eed3822d83d45774af52c7593c7c39f663e2b731191e6ece7fd7301469 OP_CHECKSIG",
            "desc": "pk(0487111548569853ad3306ed960638adce3c29d32e559fedac9ad9c30dda427e5ef98680eed3822d83d45774af52c7593c7c39f663e2b731191e6ece7fd7301469)#vr5s775f",
            "hex": "410487111548569853ad3306ed960638adce3c29d32e559fedac9ad9c30dda427e5ef98680eed3822d83d45774af52c7593c7c39f663e2b731191e6ece7fd7301469ac",
            "type": "pubkey"
          }
        }
      ],
      "hex": "01000000010000000000000000000000000000000000000000000000000000000000000000ffffffff0804ffff001d027401ffffffff0100f2052a0100000043410487111548569853ad3306ed960638adce3c29d32e559fedac9ad9c30dda427e5ef98680eed3822d83d45774af52c7593c7c39f663e2b731191e6ece7fd7301469ac00000000"
    }
  ]
}