{
  "hash": "000000009e190568432a5fb158ee404cac8d0707be8a91de9b4ee7b5729b2080",
  "confirmations": 44981,
  "height": 8117,
  "version": 1,
  "versionHex": "00000001",
  "merkleroot": "30a713477c0cfd56a4297f72b842055c6dc39cd1e6f0d8a17b7b85a89e736933",
  "time": 1237543446,
  "mediantime": 1237539858,
  "nonce": 1173175349,
  "bits": "1d00ffff",
  "difficulty": 1,
  "chainwork": "00000000000000000000000000000000000000000000000000001fb61fb61fb6",
  "nTx": 1,
  "previousblockhash": "00000000dca775aa1c5ef1a109e885b77e7c4005771732c0ae40ea5a780e037c",
  "nextblockhash": "00000000da222afafe964ed08c55218bb95e07161c7ba7a73ba5e55a5f1e853f",
  "strippedsize": 216,
  "size": 216,
  "weight": 864,
  "tx": [
    {
      "txid": "30a713477c0cfd56a4297f72b842055c6dc39cd1e6f0d8a17b7b85a89e736933",
      "hash": "30a713477c0cfd56a4297f72b842055c6dc39cd1e6f0d8a17b7b85a89e736933",
      "version": 1,
      "size": 135,
      "vsize": 135,
      "weight": 540,
      "locktime": 0,
      "vin": [
        {
          "coinbase": "04ffff001d025701",
          "sequence": 4294967295
        }
      ],
      "vout": [
        {
          "value": 50.0,
          "n": 0,
          "scriptPubKey": {
            "asm": "043fbc628c6e410b99b628decb0f7447853de8d8d0ef24970eeaf49bfd52434f5f5dd8453dc06207a4a0e6c81d5957a45af763433cc8d28c0e3e0de153d0a97a10 OP_CHECKSIG",
            "desc": "pk(043fbc628c6e410b99b628decb0f7447853de8d8d0ef24970eeaf49bfd52434f5f5dd8453dc06207a4a0e6c81d5957a45af763433cc8d28c0e3e0de153d0a97a10)#4lzpsxsm",
            "hex": "41043fbc628c6e410b99b628decb0f7447853de8d8d0ef24970eeaf49bfd52434f5f5dd8453dc06207a4a0e6c81d5957a45af763433cc8d28c0e3e0de153d0a97a10ac",
            "type": "pubkey"
          }
        }
      ],
      "hex": "01000000010000000000000000000000000000000000000000000000000000000000000000ffffffff0804ffff001d025701ffffffff0100f2052a010000004341043fbc628c6e410b99b628decb0f7447853de8d8d0ef24970eeaf49bfd52434f5f5dd8453dc06207a4a0e6c81d5957a45af763433cc8d28c0e3e0de153d0a97a10ac00000000"
    }
  ]
}