{
  "hash": "0000000063eb0473d2a03542e142034847de1c47cdd0d6a4067142b33ade169d",
  "confirmations": 52231,
  "height": 867,
  "version": 1,
  "versionHex": "00000001",
  "merkleroot": "fdf47435abf08e414ac5398f8ecba4acad57ce0e3c85ebfc3485c7b1624ef9ab",
  "time": 1232244991,
  "mediantime": 1232241151,
  "nonce": 1802200346,
  "bits": "1d00ffff",
  "difficulty": 1,
  "chainwork": "0000000000000000000000000000000000000000000000000000036403640364",
  "nTx": 1,
  "previousblockhash": "00000000b349dae46e25152927e216a54825c0d7f889a4cfc65a37abc1562fed",
  "nextblockhash": "00000000129a2736ea37e637c00dee22006c096a56a61cdb7a7d810732697878",
  "strippedsize": 216,
  "size": 216,
  "weight": 864,
  "tx": [
    {
      "txid": "fdf47435abf08e414ac5398f8ecba4acad57ce0e3c85ebfc3485c7b1624ef9ab",
      "hash": "fdf47435abf08e414ac5398f8ecba4acad57ce0e3c85ebfc3485c7b1624ef9ab",
      "version": 1,
      "size": 135,
      "vsize": 135,
      "weight": 540,
      "locktime": 0,
      "vin": [
        {
          "coinbase": "04ffff001d02d202",
          "sequence": 4294967295
        }
      ],
      "vout": [
        {
          "value": 50.0,
          "n": 0,
          "scriptPubKey": {
            "asm": "040788d77f27959bc8cf4bcc0064f8cd10beff8a5c8daaf4b06c235eca00557eb5eb4285737ef0abbfef63e90e1e2f3c80e44414c2dcc2232d8badf47842fc014d OP_CHECKSIG",
            "desc": "pk(040788d77f27959bc8cf4bcc0064f8cd10beff8a5c8daaf4b06c235eca00557eb5eb4285737ef0abbfef63e90e1e2f3c80e44414c2dcc2232d8badf47842fc014d)#ct6gpw5l",
            "hex": "41040788d77f27959bc8cf4bcc0064f8cd10beff8a5c8daaf4b06c235eca00557eb5eb4285737ef0abbfef63e90e1e2f3c80e44414c2dcc2232d8badf47842fc014dac",
            "type": "pubkey"
          }
        }
      ],
      "hex": "01000000010000000000000000000000000000000000000000000000000000000000000000ffffffff0804ffff001d02d202ffffffff0100f2052a010000004341040788d77f27959bc8cf4bcc0064f8cd10beff8a5c8daaf4b06c235eca00557eb5eb4285737ef0abbfef63e90e1e2f3c80e44414c2dcc2232d8badf47842fc014dac00000000"
    }
  ]
}