{
  "hash": "00000000ce1821664f777cd39b9bb5ca4a56746740df26342344c052fec8ca6a",
  "confirmations": 47996,
  "height": 5102,
  "version": 1,
  "versionHex": "00000001",
  "merkleroot": "29c6f86c1a4c27399bcd805b208a704c5961ccbc0c6bae746783431c467cbd63",
  "time": 1235218285,
  "mediantime": 1235214086,
  "nonce": 4158603545,
  "bits": "1d00ffff",
  "difficulty": 1,
  "chainwork": "000000000000000000000000000000000000000000000000000013ef13ef13ef",
  "nTx": 1,
  "previousblockhash": "00000000aabde39b81be3d18ddb1e925e3990f6c0f011e6ee6bdccf52ba32531",
  "nextblockhash": "00000000d604ed18f352964ba0e60a4dd510f168b727feec6f52325a4f8ee31e",
  "strippedsize": 216,
  "size": 216,
  "weight": 864,
  "tx": [
    {
      "txid": "29c6f86c1a4c27399bcd805b208a704c5961ccbc0c6bae746783431c467cbd63",
      "hash": "29c6f86c1a4c27399bcd805b208a704c5961ccbc0c6bae746783431c467cbd63",
      "version": 1,
      "size": 135,
      "vsize": 135,
      "weight": 540,
      "locktime": 0,
      "vin": [
        {
          "coinbase": "04ffff001d020e09",
          "sequence": 4294967295
        }
      ],
      "vout": [
        {
          "value": 50.0,
          "n": 0,
          "scriptPubKey": {
            "asm": "042cb1fb0b3cdb20770d5bd1c3f78db0d2720694bd38b208b25137bbde0d49e4c7d7c36794af5f7952b458887a3edd5166756f994cfd45b6d91fd91df363a330a9 OP_CHECKSIG",
            "desc": "pk(042cb1fb0b3cdb20770d5bd1c3f78db0d2720694bd38b208b25137bbde0d49e4c7d7c36794af5f7952b458887a3edd5166756f994cfd45b6d91fd91df363a330a9)#0gka5jf9",
            "hex": "41042cb1fb0b3cdb20770d5bd1c3f78db0d2720694bd38b208b25137bbde0d49e4c7d7c36794af5f7952b458887a3edd5166756f994cfd45b6d91fd91df363a330a9ac",
            "type": "pubkey"
          }
        }
      ],
      "hex": "01000000010000000000000000000000000000000000000000000000000000000000000000ffffffff0804ffff001d020e09ffffffff0100f2052a010000004341042cb1fb0b3cdb20770d5bd1c3f78db0d2720694bd38b208b25137bbde0d49e4c7d7c36794af5f7952b458887a3edd5166756f994cfd45b6d91fd91df363a330a9ac00000000"
    }
  ]
}