{
  "hash": "0000000089ee8982ff631530434c1711a2df57503002552c77caafbed3fa9c0f",
  "confirmations": 45981,
  "height": 7117,
  "version": 1,
  "versionHex": "00000001",
  "merkleroot": "58fc93bccb2b1b5078c15e9e3f3dd5ea4156a26362f081f328903059786ee036",
  "time": 1236810203,
  "mediantime": 1236807549,
  "nonce": 187989096,
  "bits": "1d00ffff",
  "difficulty": 1,
  "chainwork": "00000000000000000000000000000000000000000000000000001bce1bce1bce",
  "nTx": 1,
  "previousblockhash": "00000000ba65dbfff54056ce5454b382dca6c64a15e435ffa8a6d1f119d25371",
  "nextblockhash": "00000000c415bb92bba299ddb277fcb51f371ecaaaa863e81586f3838b1e9bd9",
  "strippedsize": 216,
  "size": 216,
  "weight": 864,
  "tx": [
    {
      "txid": "58fc93bccb2b1b5078c15e9e3f3dd5ea4156a26362f081f328903059786ee036",
      "hash": "58fc93bccb2b1b5078c15e9e3f3dd5ea4156a26362f081f328903059786ee036",
      "version": 1,
      "size": 135,
      "vsize": 135,
      "weight": 540,
      "locktime": 0,
      "vin": [
        {
          "coinbase": "04ffff001d02940d",
          "sequence": 4294967295
        }
      ],
      "vout": [
        {
          "value": 50.0,
          "n": 0,
          "scriptPubKey": {
            "asm": "0496a0dea8495fb02a37e6f6e185a37999cf97a617496f5b508846db6b8c4220c8312bd4c8596f734b14eb1b26b4795bf63f0b0dcd293f291efa75b2928afa5ede OP_CHECKSIG",
            "desc": "pk(0496a0dea8495fb02a37e6f6e185a37999cf97a617496f5b508846db6b8c4220c8312bd4c8596f734b14eb1b26b4795bf63f0b0dcd293f291efa75b2928afa5ede)#92pmrxls",
            "hex": "410496a0dea8495fb02a37e6f6e185a37999cf97a617496f5b508846db6b8c4220c8312bd4c8596f734b14eb1b26b4795bf63f0b0dcd293f291efa75b2928afa5edeac",
            "type": "pubkey"
          }
        }
      ],
      "hex": "01000000010000000000000000000000000000000000000000000000000000000000000000ffffffff0804ffff001d02940dffffffff0100f2052a0100000043410496a0dea8495fb02a37e6f6e185a37999cf97a617496f5b508846db6b8c4220c8312bd4c8596f734b14eb1b26b4795bf63f0b0dcd293f291efa75b2928afa5edeac00000000"
    }
  ]
}