{
  "hash": "00000000575d08bc344342ed03b0efb608b4dbf8e172bf6bb60aed30954c1036",
  "confirmations": 51654,
  "height": 1444,
  "version": 1,
  "versionHex": "00000001",
  "merkleroot": "1e244b5844bab61468d3f2d6233bfccd450e8202c7ad709b9e9f3af5059eafa5",
  "time": 1232743750,
  "mediantime": 1232741710,
  "nonce": 1684739628,
  "bits": "1d00ffff",
  "difficulty": 1,
  "chainwork": "000000000000000000000000000000000000000000000000000005a505a505a5",
  "nTx": 1,
  "previousblockhash": "000000004504bbe882c8093ab41036ffd2ef264ad0b88ad96a2e56fa73aac44b",
  "nextblockhash": "000000003c8b441c72e5da4cf42a254cd0bd124aabdf0e3de31a9314d461104a",
  "strippedsize": 216,
  "size": 216,
  "weight": 864,
  "tx": [
    {
      "txid": "1e244b5844bab61468d3f2d6233bfccd450e8202c7ad709b9e9f3af5059eafa5",
      "hash": "1e244b5844bab61468d3f2d6233bfccd450e8202c7ad709b9e9f3af5059eafa5",
      "version": 1,
      "size": 135,
      "vsize": 135,
      "weight": 540,
      "locktime": 0,
      "vin": [
        {
          "coinbase": "04ffff001d028200",
          "sequence": 4294967295
        }
      ],
      "vout": [
        {
          "value": 50.0,
          "n": 0,
          "scriptPubKey": {
            "asm": "0411b33001431637bca21d54d5d73e83f7c47f69d44ffaa33296b65899d12a9f78e559766c6fd90c30358363bfbdb859bcda912e411b8f76e0123bd6b16b7a4ae7 OP_CHECKSIG",
            "desc": "pk(0411b33001431637bca21d54d5d73e83f7c47f69d44ffaa33296b65899d12a9f78e559766c6fd90c30358363bfbdb859bcda912e411b8f76e0123bd6b16b7a4ae7)#7cm93504",
            "hex": "410411b33001431637bca21d54d5d73e83f7c47f69d44ffaa33296b65899d12a9f78e559766c6fd90c30358363bfbdb859bcda912e411b8f76e0123bd6b16b7a4ae7ac",
            "type": "pubkey"
          }
        }
      ],
      "hex": "01000000010000000000000000000000000000000000000000000000000000000000000000ffffffff0804ffff001d028200ffffffff0100f2052a0100000043410411b33001431637bca21d54d5d73e83f7c47f69d44ffaa33296b65899d12a9f78e559766c6fd90c30358363bfbdb859bcda912e411b8f76e0123bd6b16b7a4ae7ac00000000"
    }
  ]
}