{
  "hash": "000000002414cdffabf5c98a9efc4108833154356594f9121835c702ddc337d2",
  "confirmations": 52290,
  "height": 808,
  "version": 1,
  "versionHex": "00000001",
  "merkleroot": "07fba96c6d8a2d8782ffce6cf528a00097986da2c32535b47a276b52a20adffa",
  "time": 1232199450,
  "mediantime": 1232196066,
  "nonce": 1386971137,
  "bits": "1d00ffff",
  "difficulty": 1,
  "chainwork": "0000000000000000000000000000000000000000000000000000032903290329",
  "nTx": 1,
  "previousblockhash": "00000000793b1b2b35c9d7565ea731452e87a835b79de58f65875879c6c195d8",
  "nextblockhash": "00000000610283d515367cc9de93f7115af17be043833f0a52e41d2827597e9e",
  "strippedsize": 216,
  "size": 216,
  "weight": 864,
  "tx": [
    {
      "txid": "07fba96c6d8a2d8782ffce6cf528a00097986da2c32535b47a276b52a20adffa",
      "hash": "07fba96c6d8a2d8782ffce6cf528a00097986da2c32535b47a276b52a20adffa",
      "version": 1,
      "size": 135,
      "vsize": 135,
      "weight": 540,
      "locktime": 0,
      "vin": [
        {
          "coinbase": "04ffff001d02a701",
          "sequence": 4294967295
        }
      ],
      "vout": [
        {
          "value": 50.0,
          "n": 0,
          "scriptPubKey": {
            "asm": "04098545f7cae20d033c0edbeed849ff3b9abc127aa785fa307779579531839d2a853b35672c6c23046bbc73945cef7241e3acb8687e2bf903f0b279c6e82ce1d4 OP_CHECKSIG",
            "desc": "pk(04098545f7cae20d033c0edbeed849ff3b9abc127aa785fa307779579531839d2a853b35672c6c23046bbc73945cef7241e3acb8687e2bf903f0b279c6e82ce1d4)#cggca7e6",
            "hex": "4104098545f7cae20d033c0edbeed849ff3b9abc127aa785fa307779579531839d2a853b35672c6c23046bbc73945cef7241e3acb8687e2bf903f0b279c6e82ce1d4ac",
            "type": "pubkey"
          }
        }
      ],
      "hex": "01000000010000000000000000000000000000000000000000000000000000000000000000ffffffff0804ffff001d02a701ffffffff0100f2052a01000000434104098545f7cae20d033c0edbeed849ff3b9abc127aa785fa307779579531839d2a853b35672c6c23046bbc73945cef7241e3acb8687e2bf903f0b279c6e82ce1d4ac00000000"
    }
  ]
}