{
  "hash": "000000002d6177898bde5832f2e6cad7d0f31511dd84a021b8b26ae1e546df1e",
  "confirmations": 44806,
  "height": 8292,
  "version": 1,
  "versionHex": "00000001",
  "merkleroot": "6b7baa9573b3ad0a7f2c6404cdadf4c80ebe994d3c884bb1b76df2cafe3d51b1",
  "time": 1237724839,
  "mediantime": 1237723000,
  "nonce": 25985784,
  "bits": "1d00ffff",
  "difficulty": 1,
  "chainwork": "0000000000000000000000000000000000000000000000000000206520652065",
  "nTx": 1,
  "previousblockhash": "0000000060b58697f3a10a67d94f7437b734cbc761c80c79516c314ceca2811d",
  "nextblockhash": "00000000229bebfd3876c8c63e98123e6246458414fe432ccbd2b8cda6e28674",
  "strippedsize": 216,
  "size": 216,
  "weight": 864,
  "tx": [
    {
      "txid": "6b7baa9573b3ad0a7f2c6404cdadf4c80ebe994d3c884bb1b76df2cafe3d51b1",
      "hash": "6b7baa9573b3ad0a7f2c6404cdadf4c80ebe994d3c884bb1b76df2cafe3d51b1",
      "version": 1,
      "size": 135,
      "vsize": 135,
      "weight": 540,
      "locktime": 0,
      "vin": [
        {
          "coinbase": "04ffff001d026301",
          "sequence": 4294967295
        }
      ],
      "vout": [
        {
          "value": 50.0,
          "n": 0,
          "scriptPubKey": {
            "asm": "0470315196b544eefbade9684146a677b9e136c8609e0047b908e1c9f84ae6c7ca611fae89d93749e367532f2314633cf0c40515227b6f33a0832a4d14b8172cdc OP_CHECKSIG",
            "desc": "pk(0470315196b544eefbade9684146a677b9e136c8609e0047b908e1c9f84ae6c7ca611fae89d93749e367532f2314633cf0c40515227b6f33a0832a4d14b8172cdc)#qgdj9sup",
            "hex": "410470315196b544eefbade9684146a677b9e136c8609e0047b908e1c9f84ae6c7ca611fae89d93749e367532f2314633cf0c40515227b6f33a0832a4d14b8172cdcac",
            "type": "pubkey"
          }
        }
      ],
      "hex": "01000000010000000000000000000000000000000000000000000000000000000000000000ffffffff0804ffff001d026301ffffffff0100f2052a0100000043410470315196b544eefbade9684146a677b9e136c8609e0047b908e1c9f84ae6c7ca611fae89d93749e367532f2314633cf0c40515227b6f33a0832a4d14b8172cdcac00000000"
    }
  ]
}