{
  "hash": "00000000906cef1ee0cca07b30a9db422d481536ca22cc61cbc31fd66da7d3f4",
  "confirmations": 50302,
  "height": 2796,
  "version": 1,
  "versionHex": "00000001",
  "merkleroot": "92f5d38f2f27791e161def5e9d78c64214cf9210ba3e48d52eca8613ac79fd7a",
  "time": 1233626445,
  "mediantime": 1233622925,
  "nonce": 3331379760,
  "bits": "1d00ffff",
  "difficulty": 1,
  "chainwork": "00000000000000000000000000000000000000000000000000000aed0aed0aed",
  "nTx": 1,
  "previousblockhash": "00000000e1a5b93a6243f30f23805eb66d14ac674e6fce9674329c6ac713b8c1",
  "nextblockhash": "00000000e19626b41200b870d34a1e565a694ee1f17b351a360356e0dda821b4",
  "strippedsize": 216,
  "size": 216,
  "weight": 864,
  "tx": [
    {
      "txid": "92f5d38f2f27791e161def5e9d78c64214cf9210ba3e48d52eca8613ac79fd7a",
      "hash": "92f5d38f2f27791e161def5e9d78c64214cf9210ba3e48d52eca8613ac79fd7a",
      "version": 1,
      "size": 135,
      "vsize": 135,
      "weight": 540,
      "locktime": 0,
      "vin": [
        {
          "coinbase": "04ffff001d021c06",
          "sequence": 4294967295
        }
      ],
      "vout": [
        {
          "value": 50.0,
          "n": 0,
          "scriptPubKey": {
            "asm": "0429540aa8963fd39020c5fb6599d38f3d6f9c5f20468772ea00a467d35e952801ecb16944e790b5901d37a7e43e758c99a2a162a22dd7a71ed04187dda6c24c64 OP_CHECKSIG",
            "desc": "pk(0429540aa8963fd39020c5fb6599d38f3d6f9c5f20468772ea00a467d35e952801ecb16944e790b5901d37a7e43e758c99a2a162a22dd7a71ed04187dda6c24c64)#e9zx7l5x",
            "hex": "410429540aa8963fd39020c5fb6599d38f3d6f9c5f20468772ea00a467d35e952801ecb16944e790b5901d37a7e43e758c99a2a162a22dd7a71ed04187dda6c24c64ac",
            "type": "pubkey"
          }
        }
      ],
      "hex": "01000000010000000000000000000000000000000000000000000000000000000000000000ffffffff0804ffff001d021c06ffffffff0100f2052a0100000043410429540aa8963fd39020c5fb6599d38f3d6f9c5f20468772ea00a467d35e952801ecb16944e790b5901d37a7e43e758c99a2a162a22dd7a71ed04187dda6c24c64ac00000000"
    }
  ]
}