{
  "hash": "00000000d3e87c5021f142864817c02b5fd52b8f271d26740f1fe629b13b5333",
  "confirmations": 52046,
  "height": 290,
  "version": 1,
  "versionHex": "00000001",
  "merkleroot": "a5d3474ea57191b1c00742684448a065d24acf79226b504592db8657dce18d3b",
  "time": 1231825046,
  "mediantime": 1231821417,
  "nonce": 575090998,
  "bits": "1d00ffff",
  "difficulty": 1,
  "chainwork": "0000000000000000000000000000000000000000000000000000012301230123",
  "nTx": 1,
  "previousblockhash": "0000000098efe4e81ec5fd517ba429722d776ae5fd04aceae90a2e43bc0572b7",
  "nextblockhash": "0000000004c43b1ba070fd83c0f34673d6b166c608b0ec733357b75b4c65fc1f",
  "strippedsize": 215,
  "size": 215,
  "weight": 860,
  "tx": [
    {
      "txid": "a5d3474ea57191b1c00742684448a065d24acf79226b504592db8657dce18d3b",
      "hash": "a5d3474ea57191b1c00742684448a065d24acf79226b504592db8657dce18d3b",
      "version": 1,
      "size": 134,
      "vsize": 134,
      "weight": 536,
      "locktime": 0,
      "vin": [
        {
          "coinbase": "04ffff001d0143",
          "sequence": 4294967295
        }
      ],
      "vout": [
        {
          "value": 50.0,
          "n": 0,
          "scriptPubKey": {
            "asm": "04c5e171972b0a8b6705d3c4bbede3d07ccf6842c0667ca1ea711e3be17bb47bdcf66bafd95cc2d88928e597e280d529537e18e1934f4b71e48e30515baae76387 OP_CHECKSIG",
            "desc": "pk(04c5e171972b0a8b6705d3c4bbede3d07ccf6842c0667ca1ea711e3be17bb47bdcf66bafd95cc2d88928e597e280d529537e18e1934f4b71e48e30515baae76387)#9yqh4wgn",
            "hex": "4104c5e171972b0a8b6705d3c4bbede3d07ccf6842c0667ca1ea711e3be17bb47bdcf66bafd95cc2d88928e597e280d529537e18e1934f4b71e48e30515baae76387ac",
            "type": "pubkey"
          }
        }
      ],
      "hex": "01000000010000000000000000000000000000000000000000000000000000000000000000ffffffff0704ffff001d0143ffffffff0100f2052a01000000434104c5e171972b0a8b6705d3c4bbede3d07ccf6842c0667ca1ea711e3be17bb47bdcf66bafd95cc2d88928e597e280d529537e18e1934f4b71e48e30515baae76387ac00000000"
    }
  ]
}