{
  "hash": "00000000f424634e5bcb45b63c4904805e98ead0de3db98412b058cb4c2c36fd",
  "confirmations": 46332,
  "height": 6766,
  "version": 1,
  "versionHex": "00000001",
  "merkleroot": "fd41c81f9c0398bb2bfb5a0235cd98cb3385ad2c7c437ce683c7f2df0382dbbd",
  "time": 1236534402,
  "mediantime": 1236530299,
  "nonce": 261701178,
  "bits": "1d00ffff",
  "difficulty": 1,
  "chainwork": "00000000000000000000000000000000000000000000000000001a6f1a6f1a6f",
  "nTx": 2,
  "previousblockhash": "00000000ffd6cf9652a947452972f4cccfc65eed439f498abac9d250eb844ebe",
  "nextblockhash": "000000009d163a49baacdc309025cd43507a259d29e6f58799a3c9ba7a6f1cfe",
  "strippedsize": 2428,
  "size": 2428,
  "weight": 9712,
  "tx": [
    {
      "txid": "33a35232292b3e774babea52c85cff37c491c4c9a733d4a759d4f72efe5b8d83",
      "hash": "33a35232292b3e774babea52c85cff37c491c4c9a733d4a759d4f72efe5b8d83",
      "version": 1,
      "size": 134,
      "vsize": 134,
      "weight": 536,
      "locktime": 0,
      "vin": [
        {
          "coinbase": "04ffff001d011c",
          "sequence": 4294967295
        }
      ],
      "vout": [
        {
          "value": 50.0,
          "n": 0,
          "scriptPubKey": {
            "asm": "04b30bca8ab64b47f76f9480bab136e3d1c5d6e1117abec256a35b28eedf01bf04f40482b18149706e85911839ab987dbc0508daba1f3c78a53c457dd2d61501e2 OP_CHECKSIG",
            "desc": "pk(04b30bca8ab64b47f76f9480bab136e3d1c5d6e1117abec256a35b28eedf01bf04f40482b18149706e85911839ab987dbc0508daba1f3c78a53c457dd2d61501e2)#fhgvcvc3",
            "hex": "4104b30bca8ab64b47f76f9480bab136e3d1c5d6e1117abec256a35b28eedf01bf04f40482b18149706e85911839ab987dbc0508daba1f3c78a53c457dd2d61501e2ac",
            "type": "pubkey"
          }
        }
      ],
      "hex": "01000000010000000000000000000000000000000000000000000000000000000000000000ffffffff0704ffff001d011cffffffff0100f2052a01000000434104b30bca8ab64b47f76f9480bab136e3d1c5d6e1117abec256a35b28eedf01bf04f40482b18149706e85911839ab987dbc0508daba1f3c78a53c457dd2d61501e2ac00000000"
    },
    {
      "txid": "21fdd809c34dd0162c28834f8357ec1f698b1df49744731c22f43aaec85ab64a",
      "hash": "21fdd809c34dd0162c28834f8357ec1f698b1df49744731c22f43aaec85ab64a",
      "version": 1,
      "size": 2213,
      "vsize": 2213,
      "weight": 8852,
      "locktime": 0,
      "vin": [
        {
          "txid": "d7374c9a35997bd4fffb7cc089e6e2b22c5ee9f6019dc0fc881cc8b02e45b10b",
          "vout": 0,
          "scriptSig": {
            "asm": "30450221008106b3ef362ad162a493665aa4bed8f00946c20f07318852c8593a64a74fd98b02201b3f45c88ad44eee1e45d8ba8921d3947a6cac15aaa2d674e9ccde015f11d05d[ALL]",
            "hex": "4830450221008106b3ef362ad162a493665aa4bed8f00946c20f07318852c8593a64a74fd98b02201b3f45c88ad44eee1e45d8ba8921d3947a6cac15aaa2d674e9ccde015f11d05d01"
          },
          "sequence": 4294967295
        },
        {
          "txid": "248849b0295a8b799d7605b2bbfa27118a3fe6355ae04041831d6481a6b16824",
          "vout": 0,
          "scriptSig": {
            "asm": "3046022100a881a0dc78592f77dd94d0cf2695ec6c49b919ee9fa6149da62118c6787b2c9a022100ba1c0183b5873b1075ef0af43a3f23b3e069dda6567abb6cbbaa7f057c4d30b3[ALL]",
            "hex": "493046022100a881a0dc78592f77dd94d0cf2695ec6c49b919ee9fa6149da62118c6787b2c9a022100ba1c0183b5873b1075ef0af43a3f23b3e069dda6567abb6cbbaa7f057c4d30b301"
          },
          "sequence": 4294967295
        },
        {
          "txid": "b03224d1d59ba72c339e718b77cb5e9428317d7c7d7b0e6abad3d3fc99d6a834",
          "vout": 0,
          "scriptSig": {
            "asm": "3046022100969ef38189d7b418d3dd96ac636b55d24533ef66e4ff603a794ea50c85daa082022100ce23b02aca215ad0a528218c1d05728cdb26cefcd26b1be4aaaa35beade4508b[ALL]",
            "hex": "493046022100969ef38189d7b418d3dd96ac636b55d24533ef66e4ff603a794ea50c85daa082022100ce23b02aca215ad0a528218c1d05728cdb26cefcd26b1be4aaaa35beade4508b01"
          },
          "sequence": 4294967295
        },
        {
          "txid": "dc9068da116f4f32d54a2f65cb707f5883498dc8b7871a08785ecfaf8f3c6336",
          "vout": 0,
          "scriptSig": {
            "asm": "3044022077935fce88600608a5df22df7ae077be721c509b4480a32c535364c3295193810220281c06d1d944708645f96416be952210bcaaadf2b45bc8a92e3a15bf6c9e89d4[ALL]",
            "hex": "473044022077935fce88600608a5df22df7ae077be721c509b4480a32c535364c3295193810220281c06d1d944708645f96416be952210bcaaadf2b45bc8a92e3a15bf6c9e89d401"
          },
          "sequence": 4294967295
        },
        {
          "txid": "6b919f9e56f83b771ef4d71d8aebfecdef00f4b31a3d82259e909a8ba796a637",
          "vout": 0,
          "scriptSig": {
            "asm": "3045022100bb59fa7e2714bfc5c4e42a52a25a69d636b869112e5d3cff19d751792cc361360220325d1c4c8ba2721d572d1fd557e68f99f6df446a02f8839b2c678b2acc3a15dd[ALL]",
            "hex": "483045022100bb59fa7e2714bfc5c4e42a52a25a69d636b869112e5d3cff19d751792cc361360220325d1c4c8ba2721d572d1fd557e68f99f6df446a02f8839b2c678b2acc3a15dd01"
          },
          "sequence": 4294967295
        },
        {
          "txid": "67fa1235ef44b0efddae218ca6eec3c7b72238b71c8fca1d0712343a90501c3f",
          "vout": 0,
          "scriptSig": {
            "asm": "3045022100ca92c91c685868259e0b41e2b56aab37a674b38eb7b7c23b1c95e54c18fe181502203c84a448d84db4766ad960020efb49c4b6600170fc689558a52f3570df59b6d7[ALL]",
            "hex": "483045022100ca92c91c685868259e0b41e2b56aab37a674b38eb7b7c23b1c95e54c18fe181502203c84a448d84db4766ad960020efb49c4b6600170fc689558a52f3570df59b6d701"
          },
          "sequence": 4294967295
        },
        {
          "txid": "accd1171781ff942b496cc67184bdfbdac6cbb4b0ebc4559f07830a89c2d7e5e",
          "vout": 0,
          "scriptSig": {
            "asm": "3044022020e21a0e11fdfd90cf23a2e9aa6c08b70f3a8322ada5ee64a8ee0c71cdd8b1f802203403e25437d5f0e4461de700c1614fa0f66d76f9812cf49b75e523a87b27e03f[ALL]",
            "hex": "473044022020e21a0e11fdfd90cf23a2e9aa6c08b70f3a8322ada5ee64a8ee0c71cdd8b1f802203403e25437d5f0e4461de700c1614fa0f66d76f9812cf49b75e523a87b27e03f01"
          },
          "sequence": 4294967295
        },
        {
          "txid": "5d39e68358ff64a8d8103aa514e49915d50ec01aca5a53f5cf19283057f7156e",
          "vout": 0,
          "scriptSig": {
            "asm": "3045022100af1d02e3cb3beda61df9c9e88e668b6d6f97e235f01120ce7228bdd9d8a19a390220422389264473639e26cfc52ff04ad6dc16420a3a5a01b31dfccfe98f9c139b88[ALL]",
            "hex": "483045022100af1d02e3cb3beda61df9c9e88e668b6d6f97e235f01120ce7228bdd9d8a19a390220422389264473639e26cfc52ff04ad6dc16420a3a5a01b31dfccfe98f9c139b8801"
          },
          "sequence": 4294967295
        },
        {
          "txid": "0488bd7e36fd7c9391956e571608a4890f64bb6204856abd3d6b6c18bc214281",
          "vout": 0,
          "scriptSig": {
            "asm": "30450220463c6793edbc0255a7dcba2d3c2c247f6e22df2e41895ebc462a2ae48eb4d832022100e1e3709dc079ed3445be4935e0df52e494285da4176a3a001b864bee218ced26[ALL]",
            "hex": "4830450220463c6793edbc0255a7dcba2d3c2c247f6e22df2e41895ebc462a2ae48eb4d832022100e1e3709dc079ed3445be4935e0df52e494285da4176a3a001b864bee218ced2601"
          },
          "sequence": 4294967295
        },
        {
          "txid": "749d7eddfc600eac5f4ee1367f21ef30a370a256c0e1c518d5a90804a7e35887",
          "vout": 0,
          "scriptSig": {
            "asm": "3045022069f3e688ad7ae1e26527dae41bb510b5390d8229fde7ca860d0a18d6448b2b69022100d3809d56713cd17c0c8ea7c86a56558b38bf97b7d7bee722c7d7e7dd74b38f55[ALL]",
            "hex": "483045022069f3e688ad7ae1e26527dae41bb510b5390d8229fde7ca860d0a18d6448b2b69022100d3809d56713cd17c0c8ea7c86a56558b38bf97b7d7bee722c7d7e7dd74b38f5501"
          },
          "sequence": 4294967295
        },
        {
          "txid": "5f06c8a75a5ae6b0e050b24162f8cf4158cb4375c25090007d16d2c3c9643788",
          "vout": 0,
          "scriptSig": {
            "asm": "30450221008b3455ffdd036a486d5b35d7068cf3219de30ba6174f45b81307bf14f3abe7d4022032c033dcb4082dcd893b66e620b86e4415cd3ac12b8657e039e3ce432ae2b4ea[ALL]",
            "hex": "4830450221008b3455ffdd036a486d5b35d7068cf3219de30ba6174f45b81307bf14f3abe7d4022032c033dcb4082dcd893b66e620b86e4415cd3ac12b8657e039e3ce432ae2b4ea01"
          },
          "sequence": 4294967295
        },
        {
          "txid": "b69c7eefc6f69b980d6009c09e9c92521012eae2ed09de99e301837d65f0cc8a",
          "vout": 0,
          "scriptSig": {
            "asm": "30460221008aeb712872aac07e4e7bb5a1472b316ed2d37f618707025ce3f6e8daa50a23c0022100ea3ee62d58ca779246a5cfc926d6180f63a5dee78e704691a8a1ae4abe3e877a[ALL]",
            "hex": "4930460221008aeb712872aac07e4e7bb5a1472b316ed2d37f618707025ce3f6e8daa50a23c0022100ea3ee62d58ca779246a5cfc926d6180f63a5dee78e704691a8a1ae4abe3e877a01"
          },
          "sequence": 4294967295
        },
        {
          "txid": "96aaf97dc0e6faa8004af67760ff3177a51e38659101dc35b384b3cb032647aa",
          "vout": 0,
          "scriptSig": {
            "asm": "304602210098d41f8cd7d4e8584a72adfb31d3ff38b40b84a57ed49f4ce53bbe3479a5c042022100fea958f24a156c9cb17a19803800fb836e693d375a6deb396961f2b7b8033279[ALL]",
            "hex": "49304602210098d41f8cd7d4e8584a72adfb31d3ff38b40b84a57ed49f4ce53bbe3479a5c042022100fea958f24a156c9cb17a19803800fb836e693d375a6deb396961f2b7b803327901"
          },
          "sequence": 4294967295
        },
        {
          "txid": "1bf51f177dec150824b512a240d7ef6719c5cec14cf8cf5611b2324ee0385faf",
          "vout": 0,
          "scriptSig": {
            "asm": "3045022100ce2792e1f47d84c251189eeabf19e0dc98c2a411709a04a0c7cc5249ec7cbb28022010549aa6c32ac6c4e3b4c38432b7662f30bb65e5e2fa93b18c9cdfc24b86606a[ALL]",
            "hex": "483045022100ce2792e1f47d84c251189eeabf19e0dc98c2a411709a04a0c7cc5249ec7cbb28022010549aa6c32ac6c4e3b4c38432b7662f30bb65e5e2fa93b18c9cdfc24b86606a01"
          },
          "sequence": 4294967295
        },
        {
          "txid": "3d1c6931f81a9b23e895324ab2bae48d348b7414bf69fc638b5bd970b94dd6bf",
          "vout": 0,
          "scriptSig": {
            "asm": "3046022100bcb512aa7fd2e67802ae2b981d140dcd5b4fb9f9242e8752951eee240ddc5de7022100ed6d9c5eb6ba7cb48a80477fc042d2e649925452c0f7cfc138bc631a168e921e[ALL]",
            "hex": "493046022100bcb512aa7fd2e67802ae2b981d140dcd5b4fb9f9242e8752951eee240ddc5de7022100ed6d9c5eb6ba7cb48a80477fc042d2e649925452c0f7cfc138bc631a168e921e01"
          },
          "sequence": 4294967295
        },
        {
          "txid": "c95c64bd6f1fcd82ec07efd355b069c0557e68058b28efc3aa752caf7a9db9c0",
          "vout": 0,
          "scriptSig": {
            "asm": "3045022021aa121c72203ce17206127fbd67f0731029bb7dfff7c01fa566263bcabdea45022100d45128696cdec7f54f8cd28a05252f1b4ee32b964f82682661a798f158bb3eb5[ALL]",
            "hex": "483045022021aa121c72203ce17206127fbd67f0731029bb7dfff7c01fa566263bcabdea45022100d45128696cdec7f54f8cd28a05252f1b4ee32b964f82682661a798f158bb3eb501"
          },
          "sequence": 4294967295
        },
        {
          "txid": "7316c2222e7dc26c5d756009833b843d5d8938eff923016b8211cdf3296d03e1",
          "vout": 0,
          "scriptSig": {
            "asm": "304602210094e80fa04cfb874169b865d58fc8710fdd960263b489f340e613caaa97333f3d022100927be0de75c25157203fb65a3e39af84dc8b200b41dbe526108096b31ce47c13[ALL]",
            "hex": "49304602210094e80fa04cfb874169b865d58fc8710fdd960263b489f340e613caaa97333f3d022100927be0de75c25157203fb65a3e39af84dc8b200b41dbe526108096b31ce47c1301"
          },
          "sequence": 4294967295
        },
        {
          "txid": "54c7808af92f84df79399da6c2e31166bb0cea06ed3bad25e9ff676409d859f1",
          "vout": 0,
          "scriptSig": {
            "asm": "3044022073b3bfcfe296be927a0f839cb2c63ff337d67bc9962a22b105bb974d29d1a25f02203f6ac75cf203690ebe6daef6ed291eee02995f4e19d8ae11f3428a2e53052d1e[ALL]",
            "hex": "473044022073b3bfcfe296be927a0f839cb2c63ff337d67bc9962a22b105bb974d29d1a25f02203f6ac75cf203690ebe6daef6ed291eee02995f4e19d8ae11f3428a2e53052d1e01"
          },
          "sequence": 4294967295
        },
        {
          "txid": "8315e15e1cee74bbecaf8fd01302e8aff4ac3574b834dec81e26ea0058c9b2fb",
          "vout": 0,
          "scriptSig": {
            "asm": "304502206f19705a2232c5a17d6673703d53a9fd5c9f84a50bfe63833561203e13652934022100a735f4d0787a52ffd288c829f9cdc0fc0648b4ef17303d8668b2a7f6111effa3[ALL]",
            "hex": "48304502206f19705a2232c5a17d6673703d53a9fd5c9f84a50bfe63833561203e13652934022100a735f4d0787a52ffd288c829f9cdc0fc0648b4ef17303d8668b2a7f6111effa301"
          },
          "sequence": 4294967295
        }
      ],
      "vout": [
        {
          "value": 1200.0,
          "n": 0,
          "scriptPubKey": {
            "asm": "OP_DUP OP_HASH160 592fc3990026334c8c6fb2b9da457179cdb5c688 OP_EQUALVERIFY OP_CHECKSIG",
            "desc": "addr(198aMn6ZYAczwrE5NvNTUMyJ5qkfy4g3Hi)#k9ndhvwd",
            "hex": "76a914592fc3990026334c8c6fb2b9da457179cdb5c68888ac",
            "address": "198aMn6ZYAczwrE5NvNTUMyJ5qkfy4g3Hi",
            "type": "pubkeyhash"
          }
        }
      ],
      "fee": 0.0,
      "hex": "01000000130bb1452eb0c81c88fcc09d01f6e95e2cb2e2e689c07cfbffd47b99359a4c37d700000000494830450221008106b3ef362ad162a493665aa4bed8f00946c20f07318852c8593a64a74fd98b02201b3f45c88ad44eee1e45d8ba8921d3947a6cac15aaa2d674e9ccde015f11d05d01ffffffff2468b1a681641d834140e05a35e63f8a1127fabbb205769d798b5a29b0498824000000004a493046022100a881a0dc78592f77dd94d0cf2695ec6c49b919ee9fa6149da62118c6787b2c9a022100ba1c0183b5873b1075ef0af43a3f23b3e069dda6567abb6cbbaa7f057c4d30b301ffffffff34a8d699fcd3d3ba6a0e7b7d7c7d3128945ecb778b719e332ca79bd5d12432b0000000004a493046022100969ef38189d7b418d3dd96ac636b55d24533ef66e4ff603a794ea50c85daa082022100ce23b02aca215ad0a528218c1d05728cdb26cefcd26b1be4aaaa35beade4508b01ffffffff36633c8fafcf5e78081a87b7c88d4983587f70cb652f4ad5324f6f11da6890dc0000000048473044022077935fce88600608a5df22df7ae077be721c509b4480a32c535364c3295193810220281c06d1d944708645f96416be952210bcaaadf2b45bc8a92e3a15bf6c9e89d401ffffffff37a696a78b9a909e25823d1ab3f400efcdfeeb8a1dd7f41e773bf8569e9f916b0000000049483045022100bb59fa7e2714bfc5c4e42a52a25a69d636b869112e5d3cff19d751792cc361360220325d1c4c8ba2721d572d1fd557e68f99f6df446a02f8839b2c678b2acc3a15dd01ffffffff3f1c50903a3412071dca8f1cb73822b7c7c3eea68c21aeddefb044ef3512fa670000000049483045022100ca92c91c685868259e0b41e2b56aab37a674b38eb7b7c23b1c95e54c18fe181502203c84a448d84db4766ad960020efb49c4b6600170fc689558a52f3570df59b6d701ffffffff5e7e2d9ca83078f05945bc0e4bbb6cacbddf4b1867cc96b442f91f787111cdac0000000048473044022020e21a0e11fdfd90cf23a2e9aa6c08b70f3a8322ada5ee64a8ee0c71cdd8b1f802203403e25437d5f0e4461de700c1614fa0f66d76f9812cf49b75e523a87b27e03f01ffffffff6e15f757302819cff5535aca1ac00ed51599e414a53a10d8a864ff5883e6395d0000000049483045022100af1d02e3cb3beda61df9c9e88e668b6d6f97e235f01120ce7228bdd9d8a19a390220422389264473639e26cfc52ff04ad6dc16420a3a5a01b31dfccfe98f9c139b8801ffffffff814221bc186c6b3dbd6a850462bb640f89a40816576e9591937cfd367ebd880400000000494830450220463c6793edbc0255a7dcba2d3c2c247f6e22df2e41895ebc462a2ae48eb4d832022100e1e3709dc079ed3445be4935e0df52e494285da4176a3a001b864bee218ced2601ffffffff8758e3a70408a9d518c5e1c056a270a330ef217f36e14e5fac0e60fcdd7e9d740000000049483045022069f3e688ad7ae1e26527dae41bb510b5390d8229fde7ca860d0a18d6448b2b69022100d3809d56713cd17c0c8ea7c86a56558b38bf97b7d7bee722c7d7e7dd74b38f5501ffffffff883764c9c3d2167d009050c27543cb5841cff86241b250e0b0e65a5aa7c8065f00000000494830450221008b3455ffdd036a486d5b35d7068cf3219de30ba6174f45b81307bf14f3abe7d4022032c033dcb4082dcd893b66e620b86e4415cd3ac12b8657e039e3ce432ae2b4ea01ffffffff8accf0657d8301e399de09ede2ea121052929c9ec009600d989bf6c6ef7e9cb6000000004a4930460221008aeb712872aac07e4e7bb5a1472b316ed2d37f618707025ce3f6e8daa50a23c0022100ea3ee62d58ca779246a5cfc926d6180f63a5dee78e704691a8a1ae4abe3e877a01ffffffffaa472603cbb384b335dc019165381ea57731ff6077f64a00a8fae6c07df9aa96000000004a49304602210098d41f8cd7d4e8584a72adfb31d3ff38b40b84a57ed49f4ce53bbe3479a5c042022100fea958f24a156c9cb17a19803800fb836e693d375a6deb396961f2b7b803327901ffffffffaf5f38e04e32b21156cff84cc1cec51967efd740a212b5240815ec7d171ff51b0000000049483045022100ce2792e1f47d84c251189eeabf19e0dc98c2a411709a04a0c7cc5249ec7cbb28022010549aa6c32ac6c4e3b4c38432b7662f30bb65e5e2fa93b18c9cdfc24b86606a01ffffffffbfd64db970d95b8b63fc69bf14748b348de4bab24a3295e8239b1af831691c3d000000004a493046022100bcb512aa7fd2e67802ae2b981d140dcd5b4fb9f9242e8752951eee240ddc5de7022100ed6d9c5eb6ba7cb48a80477fc042d2e649925452c0f7cfc138bc631a168e921e01ffffffffc0b99d7aaf2c75aac3ef288b05687e55c069b055d3ef07ec82cd1f6fbd645cc90000000049483045022021aa121c72203ce17206127fbd67f0731029bb7dfff7c01fa566263bcabdea45022100d45128696cdec7f54f8cd28a05252f1b4ee32b964f82682661a798f158bb3eb501ffffffffe1036d29f3cd11826b0123f9ef38895d3d843b830960755d6cc27d2e22c21673000000004a49304602210094e80fa04cfb874169b865d58fc8710fdd960263b489f340e613caaa97333f3d022100927be0de75c25157203fb65a3e39af84dc8b200b41dbe526108096b31ce47c1301fffffffff159d8096467ffe925ad3bed06ea0cbb6611e3c2a69d3979df842ff98a80c7540000000048473044022073b3bfcfe296be927a0f839cb2c63ff337d67bc9962a22b105bb974d29d1a25f02203f6ac75cf203690ebe6daef6ed291eee02995f4e19d8ae11f3428a2e53052d1e01fffffffffbb2c95800ea261ec8de34b87435acf4afe80213d08fafecbb74ee1c5ee11583000000004948304502206f19705a2232c5a17d6673703d53a9fd5c9f84a50bfe63833561203e13652934022100a735f4d0787a52ffd288c829f9cdc0fc0648b4ef17303d8668b2a7f6111effa301ffffffff0100b08ef01b0000001976a914592fc3990026334c8c6fb2b9da457179cdb5c68888ac00000000"
    }
  ]
}