{
  "hash": "0000000016ef0ca7d0a7ee227ded3f37027c1c25a19aaa625e01a351a297f629",
  "confirmations": 50571,
  "height": 2527,
  "version": 1,
  "versionHex": "00000001",
  "merkleroot": "d99a91452a59269b147895bf2475b72c046ed35fa20ab1eb91aabcb698b04a08",
  "time": 1233435034,
  "mediantime": 1233432030,
  "nonce": 2009029124,
  "bits": "1d00ffff",
  "difficulty": 1,
  "chainwork": "000000000000000000000000000000000000000000000000000009e009e009e0",
  "nTx": 1,
  "previousblockhash": "000000009b292446110215b7e9909c0ff7caa80b6d5a18ca5197d8ee5e083ead",
  "nextblockhash": "00000000d5fe6c3e1933e102f80a06050503d39177c4055f30efa6e68f53e632",
  "strippedsize": 216,
  "size": 216,
  "weight": 864,
  "tx": [
    {
      "txid": "d99a91452a59269b147895bf2475b72c046ed35fa20ab1eb91aabcb698b04a08",
      "hash": "d99a91452a59269b147895bf2475b72c046ed35fa20ab1eb91aabcb698b04a08",
      "version": 1,
      "size": 135,
      "vsize": 135,
      "weight": 540,
      "locktime": 0,
      "vin": [
        {
          "coinbase": "04ffff001d026201",
          "sequence": 4294967295
        }
      ],
      "vout": [
        {
          "value": 50.0,
          "n": 0,
          "scriptPubKey": {
            "asm": "0413ed84e0544b4dc6ca966459d9341d8f987958630eaf7266871818d0e4ccc96512bed6f204aa1abfee4b6854f1b32a16e27f88333b28a5db64a327739994c46a OP_CHECKSIG",
            "desc": "pk(0413ed84e0544b4dc6ca966459d9341d8f987958630eaf7266871818d0e4ccc96512bed6f204aa1abfee4b6854f1b32a16e27f88333b28a5db64a327739994c46a)#h6eejauk",
            "hex": "410413ed84e0544b4dc6ca966459d9341d8f987958630eaf7266871818d0e4ccc96512bed6f204aa1abfee4b6854f1b32a16e27f88333b28a5db64a327739994c46aac",
            "type": "pubkey"
          }
        }
      ],
      "hex": "01000000010000000000000000000000000000000000000000000000000000000000000000ffffffff0804ffff001d026201ffffffff0100f2052a0100000043410413ed84e0544b4dc6ca966459d9341d8f987958630eaf7266871818d0e4ccc96512bed6f204aa1abfee4b6854f1b32a16e27f88333b28a5db64a327739994c46aac00000000"
    }
  ]
}