{
  "hash": "000000007463719f5e0ecc07bd6d5c5c0d3fd567025b1af9f545943270ea4dae",
  "confirmations": 44041,
  "height": 9057,
  "version": 1,
  "versionHex": "00000001",
  "merkleroot": "cac0e2466602a911e6b1bc84e8b1ece51e26399ac0d8d94db8c8ae5779c75a1c",
  "time": 1238299391,
  "mediantime": 1238295845,
  "nonce": 932118548,
  "bits": "1d00ffff",
  "difficulty": 1,
  "chainwork": "0000000000000000000000000000000000000000000000000000236223622362",
  "nTx": 1,
  "previousblockhash": "000000008b782db48929338ef530f230f44c313fbbd39edfac1304bee1c2a6ad",
  "nextblockhash": "00000000970a3b8dd07707ab6707a616a6f70e23bc63a273533166468cd407b6",
  "strippedsize": 216,
  "size": 216,
  "weight": 864,
  "tx": [
    {
      "txid": "cac0e2466602a911e6b1bc84e8b1ece51e26399ac0d8d94db8c8ae5779c75a1c",
      "hash": "cac0e2466602a911e6b1bc84e8b1ece51e26399ac0d8d94db8c8ae5779c75a1c",
      "version": 1,
      "size": 135,
      "vsize": 135,
      "weight": 540,
      "locktime": 0,
      "vin": [
        {
          "coinbase": "04ffff001d026a07",
          "sequence": 4294967295
        }
      ],
      "vout": [
        {
          "value": 50.0,
          "n": 0,
          "scriptPubKey": {
            "asm": "04c6baaf6075a991a570f002ec275f0a8f54ba6f05af867ceea34329e37859e12a2b27fb279136abc7d7e4988bfe9949c5dc091b0b326b730d31dc65c017ace90c OP_CHECKSIG",
            "desc": "pk(04c6baaf6075a991a570f002ec275f0a8f54ba6f05af867ceea34329e37859e12a2b27fb279136abc7d7e4988bfe9949c5dc091b0b326b730d31dc65c017ace90c)#ne0pvthw",
            "hex": "4104c6baaf6075a991a570f002ec275f0a8f54ba6f05af867ceea34329e37859e12a2b27fb279136abc7d7e4988bfe9949c5dc091b0b326b730d31dc65c017ace90cac",
            "type": "pubkey"
          }
        }
      ],
      "hex": "01000000010000000000000000000000000000000000000000000000000000000000000000ffffffff0804ffff001d026a07ffffffff0100f2052a01000000434104c6baaf6075a991a570f002ec275f0a8f54ba6f05af867ceea34329e37859e12a2b27fb279136abc7d7e4988bfe9949c5dc091b0b326b730d31dc65c017ace90cac00000000"
    }
  ]
}