{
  "hash": "00000000a3839a56950197028f59ecc0d1826ffe71b269ad92c0e083edfc26af",
  "confirmations": 51386,
  "height": 1712,
  "version": 1,
  "versionHex": "00000001",
  "merkleroot": "b98d62f0de38a2ab61cf7452365d21520717c35efd1c1df8178bff81da5c7979",
  "time": 1232858168,
  "mediantime": 1232856560,
  "nonce": 386084375,
  "bits": "1d00ffff",
  "difficulty": 1,
  "chainwork": "000000000000000000000000000000000000000000000000000006b106b106b1",
  "nTx": 1,
  "previousblockhash": "0000000041107cb95f9978f2a7404d2a39f383058f3bab641e59a4952af51396",
  "nextblockhash": "00000000b8f093d02dbc1d0d1a85839cf6251cdd75e4f6717b6e6cf3c27fafb0",
  "strippedsize": 216,
  "size": 216,
  "weight": 864,
  "tx": [
    {
      "txid": "b98d62f0de38a2ab61cf7452365d21520717c35efd1c1df8178bff81da5c7979",
      "hash": "b98d62f0de38a2ab61cf7452365d21520717c35efd1c1df8178bff81da5c7979",
      "version": 1,
      "size": 135,
      "vsize": 135,
      "weight": 540,
      "locktime": 0,
      "vin": [
        {
          "coinbase": "04ffff001d022e03",
          "sequence": 4294967295
        }
      ],
      "vout": [
        {
          "value": 50.0,
          "n": 0,
          "scriptPubKey": {
            "asm": "04b1d76dac7015aa3656a2893cf7c1ced4b2eacab41300de6951efc4bf08a1fc11c80eed27cd9db14baf9aa064e247f2cdabc257ed41675c23b1b6a6eaa8571a96 OP_CHECKSIG",
            "desc": "pk(04b1d76dac7015aa3656a2893cf7c1ced4b2eacab41300de6951efc4bf08a1fc11c80eed27cd9db14baf9aa064e247f2cdabc257ed41675c23b1b6a6eaa8571a96)#tj3qnexh",
            "hex": "4104b1d76dac7015aa3656a2893cf7c1ced4b2eacab41300de6951efc4bf08a1fc11c80eed27cd9db14baf9aa064e247f2cdabc257ed41675c23b1b6a6eaa8571a96ac",
            "type": "pubkey"
          }
        }
      ],
      "hex": "01000000010000000000000000000000000000000000000000000000000000000000000000ffffffff0804ffff001d022e03ffffffff0100f2052a01000000434104b1d76dac7015aa3656a2893cf7c1ced4b2eacab41300de6951efc4bf08a1fc11c80eed27cd9db14baf9aa064e247f2cdabc257ed41675c23b1b6a6eaa8571a96ac00000000"
    }
  ]
}