{
  "hash": "000000000d20a20d5254527145a196dae320ba253bdded919e906852e52674be",
  "confirmations": 43274,
  "height": 9824,
  "version": 1,
  "versionHex": "00000001",
  "merkleroot": "693aa41299a3449290808685352e7bba5753f6eb347bb98c816e37ee6b7d6b7f",
  "time": 1238872718,
  "mediantime": 1238868208,
  "nonce": 4178360624,
  "bits": "1d00ffff",
  "difficulty": 1,
  "chainwork": "0000000000000000000000000000000000000000000000000000266126612661",
  "nTx": 1,
  "previousblockhash": "00000000b880ef8c65da454b4d662529580180619811f572fb7ff5e8947affab",
  "nextblockhash": "0000000002f84ce99315f07cc0693fef6caa5720e5f39f7b08199b3fe2fff795",
  "strippedsize": 216,
  "size": 216,
  "weight": 864,
  "tx": [
    {
      "txid": "693aa41299a3449290808685352e7bba5753f6eb347bb98c816e37ee6b7d6b7f",
      "hash": "693aa41299a3449290808685352e7bba5753f6eb347bb98c816e37ee6b7d6b7f",
      "version": 1,
      "size": 135,
      "vsize": 135,
      "weight": 540,
      "locktime": 0,
      "vin": [
        {
          "coinbase": "04ffff001d02ad00",
          "sequence": 4294967295
        }
      ],
      "vout": [
        {
          "value": 50.0,
          "n": 0,
          "scriptPubKey": {
            "asm": "0489ae750a5f57deb02a7a3ba84e7ea3aa450aecd015806cc8f8d16d12b73d0a1c8a2eae2a7368fedaba7f0c6a1893492a0ed7f290103cec5d160211fc20a3c6ac OP_CHECKSIG",
            "desc": "pk(0489ae750a5f57deb02a7a3ba84e7ea3aa450aecd015806cc8f8d16d12b73d0a1c8a2eae2a7368fedaba7f0c6a1893492a0ed7f290103cec5d160211fc20a3c6ac)#78u3aq53",
            "hex": "410489ae750a5f57deb02a7a3ba84e7ea3aa450aecd015806cc8f8d16d12b73d0a1c8a2eae2a7368fedaba7f0c6a1893492a0ed7f290103cec5d160211fc20a3c6acac",
            "type": "pubkey"
          }
        }
      ],
      "hex": "01000000010000000000000000000000000000000000000000000000000000000000000000ffffffff0804ffff001d02ad00ffffffff0100f2052a0100000043410489ae750a5f57deb02a7a3ba84e7ea3aa450aecd015806cc8f8d16d12b73d0a1c8a2eae2a7368fedaba7f0c6a1893492a0ed7f290103cec5d160211fc20a3c6acac00000000"
    }
  ]
}