{
  "hash": "00000000b92a1200bc14712de9da725f68ab198ebd0b4ddc3cf958bd748539b0",
  "confirmations": 44152,
  "height": 8946,
  "version": 1,
  "versionHex": "00000001",
  "merkleroot": "d32d60a3e8dcaa0e3c8801cdb06b46cae8da89647c0237336089c86b676b8d0e",
  "time": 1238214515,
  "mediantime": 1238209076,
  "nonce": 1745135875,
  "bits": "1d00ffff",
  "difficulty": 1,
  "chainwork": "000000000000000000000000000000000000000000000000000022f322f322f3",
  "nTx": 1,
  "previousblockhash": "0000000043eddc86a07d5dce3230fb925d3697f5f3d26d0b24ff8e77269b2e25",
  "nextblockhash": "000000003dc61a619c72b085ee44574686c1ce58a8ba136f7eb07b34d40922f1",
  "strippedsize": 216,
  "size": 216,
  "weight": 864,
  "tx": [
    {
      "txid": "d32d60a3e8dcaa0e3c8801cdb06b46cae8da89647c0237336089c86b676b8d0e",
      "hash": "d32d60a3e8dcaa0e3c8801cdb06b46cae8da89647c0237336089c86b676b8d0e",
      "version": 1,
      "size": 135,
      "vsize": 135,
      "weight": 540,
      "locktime": 0,
      "vin": [
        {
          "coinbase": "04ffff001d026a05",
          "sequence": 4294967295
        }
      ],
      "vout": [
        {
          "value": 50.0,
          "n": 0,
          "scriptPubKey": {
            "asm": "04f8dcf9855a84141d30a92c2d8072911651af306468f70d7fab2df0e9031187aea5c71173817bcd67e9f87ea2a3277da2b271ffd599e938dac2d63aeabc92c8dd OP_CHECKSIG",
            "desc": "pk(04f8dcf9855a84141d30a92c2d8072911651af306468f70d7fab2df0e9031187aea5c71173817bcd67e9f87ea2a3277da2b271ffd599e938dac2d63aeabc92c8dd)#ecsaclm8",
            "hex": "4104f8dcf9855a84141d30a92c2d8072911651af306468f70d7fab2df0e9031187aea5c71173817bcd67e9f87ea2a3277da2b271ffd599e938dac2d63aeabc92c8ddac",
            "type": "pubkey"
          }
        }
      ],
      "hex": "01000000010000000000000000000000000000000000000000000000000000000000000000ffffffff0804ffff001d026a05ffffffff0100f2052a01000000434104f8dcf9855a84141d30a92c2d8072911651af306468f70d7fab2df0e9031187aea5c71173817bcd67e9f87ea2a3277da2b271ffd599e938dac2d63aeabc92c8ddac00000000"
    }
  ]
}