{
  "hash": "000000005b7e67ecadd41625856cc7bd17d5d91be4a6aee32e02a633530fdbeb",
  "confirmations": 48668,
  "height": 4430,
  "version": 1,
  "versionHex": "00000001",
  "merkleroot": "58b590014e1736a58509dff277c48e63caa2571ef233f29c3c27b5fb085c90e8",
  "time": 1234734979,
  "mediantime": 1234731797,
  "nonce": 54443046,
  "bits": "1d00ffff",
  "difficulty": 1,
  "chainwork": "0000000000000000000000000000000000000000000000000000114f114f114f",
  "nTx": 1,
  "previousblockhash": "000000008ce5f7f18a07b732fd8a7f3a21eaadc36e2070e50c804b3c94947de5",
  "nextblockhash": "00000000da59b76c736e1bfd42c69cee23ce24aee8741ee986685d949c6a9b1a",
  "strippedsize": 216,
  "size": 216,
  "weight": 864,
  "tx": [
    {
      "txid": "58b590014e1736a58509dff277c48e63caa2571ef233f29c3c27b5fb085c90e8",
      "hash": "58b590014e1736a58509dff277c48e63caa2571ef233f29c3c27b5fb085c90e8",
      "version": 1,
      "size": 135,
      "vsize": 135,
      "weight": 540,
      "locktime": 0,
      "vin": [
        {
          "coinbase": "04ffff001d02b201",
          "sequence": 4294967295
        }
      ],
      "vout": [
        {
          "value": 50.0,
          "n": 0,
          "scriptPubKey": {
            "asm": "041c2a11ab23b4d8f8d5b59e6c77a502da04beda631056465c1863fd6f932975fe5326d16cebc042b0b4936294cfe2cc53b5fd47d14e8511fb89d2e0494e92f829 OP_CHECKSIG",
            "desc": "pk(041c2a11ab23b4d8f8d5b59e6c77a502da04beda631056465c1863fd6f932975fe5326d16cebc042b0b4936294cfe2cc53b5fd47d14e8511fb89d2e0494e92f829)#hk4jupx7",
            "hex": "41041c2a11ab23b4d8f8d5b59e6c77a502da04beda631056465c1863fd6f932975fe5326d16cebc042b0b4936294cfe2cc53b5fd47d14e8511fb89d2e0494e92f829ac",
            "type": "pubkey"
          }
        }
      ],
      "hex": "01000000010000000000000000000000000000000000000000000000000000000000000000ffffffff0804ffff001d02b201ffffffff0100f2052a010000004341041c2a11ab23b4d8f8d5b59e6c77a502da04beda631056465c1863fd6f932975fe5326d16cebc042b0b4936294cfe2cc53b5fd47d14e8511fb89d2e0494e92f829ac00000000"
    }
  ]
}