{
  "hash": "0000000090068d35377714ca3017ada56fcb8815fcb2e88b137ce2b87a1f2a89",
  "confirmations": 45631,
  "height": 7467,
  "version": 1,
  "versionHex": "00000001",
  "merkleroot": "667f8abace40e419d1c3dd028d0b18cac57d63128b4589cd6e038578c7c893ad",
  "time": 1237074191,
  "mediantime": 1237071542,
  "nonce": 2769206830,
  "bits": "1d00ffff",
  "difficulty": 1,
  "chainwork": "00000000000000000000000000000000000000000000000000001d2c1d2c1d2c",
  "nTx": 1,
  "previousblockhash": "000000009563ae9864265a9e26fdde16a3472feb911bcf3026248e0f94a79391",
  "nextblockhash": "000000004b1b5dc962fb6668d806c335677bd633b702274bc6c7fc3ccd70941d",
  "strippedsize": 215,
  "size": 215,
  "weight": 860,
  "tx": [
    {
      "txid": "667f8abace40e419d1c3dd028d0b18cac57d63128b4589cd6e038578c7c893ad",
      "hash": "667f8abace40e419d1c3dd028d0b18cac57d63128b4589cd6e038578c7c893ad",
      "version": 1,
      "size": 134,
      "vsize": 134,
      "weight": 536,
      "locktime": 0,
      "vin": [
        {
          "coinbase": "04ffff001d016a",
          "sequence": 4294967295
        }
      ],
      "vout": [
        {
          "value": 50.0,
          "n": 0,
          "scriptPubKey": {
            "asm": "04bbbdf12cf928de3212e9b2b3a95f4636fa4315c75c215b92ee9289c0383b0e618dc4adb4ce499e245f2fc7e2d419f6649270bae13401bac243eeff4b4f2ec3be OP_CHECKSIG",
            "desc": "pk(04bbbdf12cf928de3212e9b2b3a95f4636fa4315c75c215b92ee9289c0383b0e618dc4adb4ce499e245f2fc7e2d419f6649270bae13401bac243eeff4b4f2ec3be)#e04thd6j",
            "hex": "4104bbbdf12cf928de3212e9b2b3a95f4636fa4315c75c215b92ee9289c0383b0e618dc4adb4ce499e245f2fc7e2d419f6649270bae13401bac243eeff4b4f2ec3beac",
            "type": "pubkey"
          }
        }
      ],
      "hex": "01000000010000000000000000000000000000000000000000000000000000000000000000ffffffff0704ffff001d016affffffff0100f2052a01000000434104bbbdf12cf928de3212e9b2b3a95f4636fa4315c75c215b92ee9289c0383b0e618dc4adb4ce499e245f2fc7e2d419f6649270bae13401bac243eeff4b4f2ec3beac00000000"
    }
  ]
}