{
  "hash": "00000000f0f0cb40a296f5dc76d120bfafae53dd9b144ec29c11610b56e9ac63",
  "confirmations": 49134,
  "height": 3964,
  "version": 1,
  "versionHex": "00000001",
  "merkleroot": "19eba14b4d6920f70cd2e3087282d0d9012145c48f5ffa6176a5dbda628c5b68",
  "time": 1234416299,
  "mediantime": 1234412337,
  "nonce": 4224477752,
  "bits": "1d00ffff",
  "difficulty": 1,
  "chainwork": "00000000000000000000000000000000000000000000000000000f7d0f7d0f7d",
  "nTx": 1,
  "previousblockhash": "00000000f360afd09a2880d00c77b21868c17b1968e620eb374c4d1129470cdf",
  "nextblockhash": "00000000beeea0fa91985689e247354592fb853d51562a2a1d7eb3c252f623da",
  "strippedsize": 216,
  "size": 216,
  "weight": 864,
  "tx": [
    {
      "txid": "19eba14b4d6920f70cd2e3087282d0d9012145c48f5ffa6176a5dbda628c5b68",
      "hash": "19eba14b4d6920f70cd2e3087282d0d9012145c48f5ffa6176a5dbda628c5b68",
      "version": 1,
      "size": 135,
      "vsize": 135,
      "weight": 540,
      "locktime": 0,
      "vin": [
        {
          "coinbase": "04ffff001d02bf03",
          "sequence": 4294967295
        }
      ],
      "vout": [
        {
          "value": 50.0,
          "n": 0,
          "scriptPubKey": {
            "asm": "04f051a9b4652595cc5ecefd0f61a22433aa2e89e5ffca84490e33b30dd3155d171fe5eb8b0bce223f5a4c78b00cfa8a2fac9c55d5645a27fc5c598dc6bc4db2ee OP_CHECKSIG",
            "desc": "pk(04f051a9b4652595cc5ecefd0f61a22433aa2e89e5ffca84490e33b30dd3155d171fe5eb8b0bce223f5a4c78b00cfa8a2fac9c55d5645a27fc5c598dc6bc4db2ee)#mwru9ss4",
            "hex": "4104f051a9b4652595cc5ecefd0f61a22433aa2e89e5ffca84490e33b30dd3155d171fe5eb8b0bce223f5a4c78b00cfa8a2fac9c55d5645a27fc5c598dc6bc4db2eeac",
            "type": "pubkey"
          }
        }
      ],
      "hex": "01000000010000000000000000000000000000000000000000000000000000000000000000ffffffff0804ffff001d02bf03ffffffff0100f2052a01000000434104f051a9b4652595cc5ecefd0f61a22433aa2e89e5ffca84490e33b30dd3155d171fe5eb8b0bce223f5a4c78b00cfa8a2fac9c55d5645a27fc5c598dc6bc4db2eeac00000000"
    }
  ]
}