{
  "hash": "000000004d5ca107f6dbbad71dc433f132fbe8c935002dab3df03e910c1b7411",
  "confirmations": 45079,
  "height": 8019,
  "version": 1,
  "versionHex": "00000001",
  "merkleroot": "1a47fa1c7066e0c7c3d28fd077ca4c6fee828719e419a6709866b85e1fe00487",
  "time": 1237475917,
  "mediantime": 1237472319,
  "nonce": 71009739,
  "bits": "1d00ffff",
  "difficulty": 1,
  "chainwork": "00000000000000000000000000000000000000000000000000001f541f541f54",
  "nTx": 1,
  "previousblockhash": "00000000823f9efd22a02134efd1137c26e7be49be127ac1750e5ae3dc976a5c",
  "nextblockhash": "0000000040accb84a2356cb2cb1a730c27950c8a978b9951f28b1aec98db0524",
  "strippedsize": 216,
  "size": 216,
  "weight": 864,
  "tx": [
    {
      "txid": "1a47fa1c7066e0c7c3d28fd077ca4c6fee828719e419a6709866b85e1fe00487",
      "hash": "1a47fa1c7066e0c7c3d28fd077ca4c6fee828719e419a6709866b85e1fe00487",
      "version": 1,
      "size": 135,
      "vsize": 135,
      "weight": 540,
      "locktime": 0,
      "vin": [
        {
          "coinbase": "04ffff001d028400",
          "sequence": 4294967295
        }
      ],
      "vout": [
        {
          "value": 50.0,
          "n": 0,
          "scriptPubKey": {
            "asm": "04204da3493f607afa61e613fb9c61502991195b893c2c339f617a3545e99b19b0c14a937e90911b2db7336f9039eaa3f5cac1bf42b8985500d3b1da10e5fbd579 OP_CHECKSIG",
            "desc": "pk(04204da3493f607afa61e613fb9c61502991195b893c2c339f617a3545e99b19b0c14a937e90911b2db7336f9039eaa3f5cac1bf42b8985500d3b1da10e5fbd579)#dlgs8dan",
            "hex": "4104204da3493f607afa61e613fb9c61502991195b893c2c339f617a3545e99b19b0c14a937e90911b2db7336f9039eaa3f5cac1bf42b8985500d3b1da10e5fbd579ac",
            "type": "pubkey"
          }
        }
      ],
      "hex": "01000000010000000000000000000000000000000000000000000000000000000000000000ffffffff0804ffff001d028400ffffffff0100f2052a01000000434104204da3493f607afa61e613fb9c61502991195b893c2c339f617a3545e99b19b0c14a937e90911b2db7336f9039eaa3f5cac1bf42b8985500d3b1da10e5fbd579ac00000000"
    }
  ]
}