{
  "hash": "00000000a2e79f0e94d0b8fa757462c6d5924ac0ea9e506aec435c079412e770",
  "confirmations": 47082,
  "height": 6016,
  "version": 1,
  "versionHex": "00000001",
  "merkleroot": "0f17e04f88b672a8a54f8f0284b604bf544f65cc1928f44c678e69a22c2fef8f",
  "time": 1235939819,
  "mediantime": 1235934927,
  "nonce": 2302755847,
  "bits": "1d00ffff",
  "difficulty": 1,
  "chainwork": "0000000000000000000000000000000000000000000000000000178117811781",
  "nTx": 1,
  "previousblockhash": "00000000d21f73b2c345ef705b54644a685eb7cac9e4d0a5fdea8ce4fdb287cd",
  "nextblockhash": "00000000f47d854ffc9c5bf4f81f1486458be903143dc1472a98919efddd2de5",
  "strippedsize": 216,
  "size": 216,
  "weight": 864,
  "tx": [
    {
      "txid": "0f17e04f88b672a8a54f8f0284b604bf544f65cc1928f44c678e69a22c2fef8f",
      "hash": "0f17e04f88b672a8a54f8f0284b604bf544f65cc1928f44c678e69a22c2fef8f",
      "version": 1,
      "size": 135,
      "vsize": 135,
      "weight": 540,
      "locktime": 0,
      "vin": [
        {
          "coinbase": "04ffff001d023405",
          "sequence": 4294967295
        }
      ],
      "vout": [
        {
          "value": 50.0,
          "n": 0,
          "scriptPubKey": {
            "asm": "0466b01390c73c04c14385cfe9d2fd12a4eb817f0a21da19feb68774026c0712c17d9e19af959120be1cd87b7b3bb3303f61b1c851de2f0cc2df6ec1d41ca8e863 OP_CHECKSIG",
            "desc": "pk(0466b01390c73c04c14385cfe9d2fd12a4eb817f0a21da19feb68774026c0712c17d9e19af959120be1cd87b7b3bb3303f61b1c851de2f0cc2df6ec1d41ca8e863)#jpxqqaf7",
            "hex": "410466b01390c73c04c14385cfe9d2fd12a4eb817f0a21da19feb68774026c0712c17d9e19af959120be1cd87b7b3bb3303f61b1c851de2f0cc2df6ec1d41ca8e863ac",
            "type": "pubkey"
          }
        }
      ],
      "hex": "01000000010000000000000000000000000000000000000000000000000000000000000000ffffffff0804ffff001d023405ffffffff0100f2052a0100000043410466b01390c73c04c14385cfe9d2fd12a4eb817f0a21da19feb68774026c0712c17d9e19af959120be1cd87b7b3bb3303f61b1c851de2f0cc2df6ec1d41ca8e863ac00000000"
    }
  ]
}