{
  "hash": "000000005d2d3a1945055e423653faa725a430381f16dfa98e1d541721a67b35",
  "confirmations": 50512,
  "height": 2586,
  "version": 1,
  "versionHex": "00000001",
  "merkleroot": "256f5caa74e91cf39fff2dd9e743329a29105097d9279e08794a47b2e9b04e4d",
  "time": 1233483665,
  "mediantime": 1233478612,
  "nonce": 4235634692,
  "bits": "1d00ffff",
  "difficulty": 1,
  "chainwork": "00000000000000000000000000000000000000000000000000000a1b0a1b0a1b",
  "nTx": 1,
  "previousblockhash": "00000000741db1bbc2a0707960b309608c9da020ea96f1c15fa65e646cdfe80f",
  "nextblockhash": "00000000bdcba5a1acdd9363c35161e255a531a3e4974c76d0e43a88dac8bdc3",
  "strippedsize": 216,
  "size": 216,
  "weight": 864,
  "tx": [
    {
      "txid": "256f5caa74e91cf39fff2dd9e743329a29105097d9279e08794a47b2e9b04e4d",
      "hash": "256f5caa74e91cf39fff2dd9e743329a29105097d9279e08794a47b2e9b04e4d",
      "version": 1,
      "size": 135,
      "vsize": 135,
      "weight": 540,
      "locktime": 0,
      "vin": [
        {
          "coinbase": "04ffff001d02b702",
          "sequence": 4294967295
        }
      ],
      "vout": [
        {
          "value": 50.0,
          "n": 0,
          "scriptPubKey": {
            "asm": "04f663fc9f29070a1ed8a7a3c0d77674edc87e61be20366a14fd0cd24806e77539e81fde59d09bd23fd0ccd74eed9788f3303e6fc6e4e6c96d54635edd57aa8bce OP_CHECKSIG",
            "desc": "pk(04f663fc9f29070a1ed8a7a3c0d77674edc87e61be20366a14fd0cd24806e77539e81fde59d09bd23fd0ccd74eed9788f3303e6fc6e4e6c96d54635edd57aa8bce)#cexsyrja",
            "hex": "4104f663fc9f29070a1ed8a7a3c0d77674edc87e61be20366a14fd0cd24806e77539e81fde59d09bd23fd0ccd74eed9788f3303e6fc6e4e6c96d54635edd57aa8bceac",
            "type": "pubkey"
          }
        }
      ],
      "hex": "01000000010000000000000000000000000000000000000000000000000000000000000000ffffffff0804ffff001d02b702ffffffff0100f2052a01000000434104f663fc9f29070a1ed8a7a3c0d77674edc87e61be20366a14fd0cd24806e77539e81fde59d09bd23fd0ccd74eed9788f3303e6fc6e4e6c96d54635edd57aa8bceac00000000"
    }
  ]
}