{
  "hash": "00000000c21b72384593efd6850c5e1327c4f4cf1cebe56af3b870024c4e32a4",
  "confirmations": 43290,
  "height": 9808,
  "version": 1,
  "versionHex": "00000001",
  "merkleroot": "b4cb1d2afd0aa206bfd62c26b8448cf2f044f9009a78043325926a75faee7f09",
  "time": 1238860889,
  "mediantime": 1238859762,
  "nonce": 3965382422,
  "bits": "1d00ffff",
  "difficulty": 1,
  "chainwork": "0000000000000000000000000000000000000000000000000000265126512651",
  "nTx": 1,
  "previousblockhash": "000000006065e9803f2d73435e142a84a6864a737649bbda0b775d21ad256c4a",
  "nextblockhash": "00000000018003d284fc8a7fe5ee31f3c4b12b107714829b29ed57dccbdfbab7",
  "strippedsize": 215,
  "size": 215,
  "weight": 860,
  "tx": [
    {
      "txid": "b4cb1d2afd0aa206bfd62c26b8448cf2f044f9009a78043325926a75faee7f09",
      "hash": "b4cb1d2afd0aa206bfd62c26b8448cf2f044f9009a78043325926a75faee7f09",
      "version": 1,
      "size": 134,
      "vsize": 134,
      "weight": 536,
      "locktime": 0,
      "vin": [
        {
          "coinbase": "04ffff001d0170",
          "sequence": 4294967295
        }
      ],
      "vout": [
        {
          "value": 50.0,
          "n": 0,
          "scriptPubKey": {
            "asm": "041aa6a9fd24ebbb30352b045fa8788853ce51625e7abc78c546772a5eb0cef519654b94ec33149614b662aa800aa90e49bbd50896cabd135a90096bd15f2b32f6 OP_CHECKSIG",
            "desc": "pk(041aa6a9fd24ebbb30352b045fa8788853ce51625e7abc78c546772a5eb0cef519654b94ec33149614b662aa800aa90e49bbd50896cabd135a90096bd15f2b32f6)#nrysk4nc",
            "hex": "41041aa6a9fd24ebbb30352b045fa8788853ce51625e7abc78c546772a5eb0cef519654b94ec33149614b662aa800aa90e49bbd50896cabd135a90096bd15f2b32f6ac",
            "type": "pubkey"
          }
        }
      ],
      "hex": "01000000010000000000000000000000000000000000000000000000000000000000000000ffffffff0704ffff001d0170ffffffff0100f2052a010000004341041aa6a9fd24ebbb30352b045fa8788853ce51625e7abc78c546772a5eb0cef519654b94ec33149614b662aa800aa90e49bbd50896cabd135a90096bd15f2b32f6ac00000000"
    }
  ]
}