{
  "hash": "000000007d84f0fc9926b0e250051ac411d490459c7902a04f84feca33b90566",
  "confirmations": 50474,
  "height": 2624,
  "version": 1,
  "versionHex": "00000001",
  "merkleroot": "709e9b2278e233a743a4099c0ce70793075198f2ade2e969db58af44e55307bd",
  "time": 1233509865,
  "mediantime": 1233507653,
  "nonce": 1584835623,
  "bits": "1d00ffff",
  "difficulty": 1,
  "chainwork": "00000000000000000000000000000000000000000000000000000a410a410a41",
  "nTx": 1,
  "previousblockhash": "0000000059628f82831204c2af4dadb8427ef2c257e64639c6016beccbf3160d",
  "nextblockhash": "00000000508566ff28ea3a2def148eb05492f2f1383f85574a5205bb1be9d6f7",
  "strippedsize": 216,
  "size": 216,
  "weight": 864,
  "tx": [
    {
      "txid": "709e9b2278e233a743a4099c0ce70793075198f2ade2e969db58af44e55307bd",
      "hash": "709e9b2278e233a743a4099c0ce70793075198f2ade2e969db58af44e55307bd",
      "version": 1,
      "size": 135,
      "vsize": 135,
      "weight": 540,
      "locktime": 0,
      "vin": [
        {
          "coinbase": "04ffff001d026403",
          "sequence": 4294967295
        }
      ],
      "vout": [
        {
          "value": 50.0,
          "n": 0,
          "scriptPubKey": {
            "asm": "040925aeccbdd95e01b12fabbdb5bf5cb60b020b47ec1ee4036bd0f644f81d2e8f125ef8af084ddbd7341ff034ced5fe3357d56dcff71a67d7471c48afd8c33ec5 OP_CHECKSIG",
            "desc": "pk(040925aeccbdd95e01b12fabbdb5bf5cb60b020b47ec1ee4036bd0f644f81d2e8f125ef8af084ddbd7341ff034ced5fe3357d56dcff71a67d7471c48afd8c33ec5)#yqkdffeg",
            "hex": "41040925aeccbdd95e01b12fabbdb5bf5cb60b020b47ec1ee4036bd0f644f81d2e8f125ef8af084ddbd7341ff034ced5fe3357d56dcff71a67d7471c48afd8c33ec5ac",
            "type": "pubkey"
          }
        }
      ],
      "hex": "01000000010000000000000000000000000000000000000000000000000000000000000000ffffffff0804ffff001d026403ffffffff0100f2052a010000004341040925aeccbdd95e01b12fabbdb5bf5cb60b020b47ec1ee4036bd0f644f81d2e8f125ef8af084ddbd7341ff034ced5fe3357d56dcff71a67d7471c48afd8c33ec5ac00000000"
    }
  ]
}