{
  "hash": "000000002b13991d52f8f0e629c3cf8e313ec593f01bdf05ede184dc5ff23ff1",
  "confirmations": 51487,
  "height": 1611,
  "version": 1,
  "versionHex": "00000001",
  "merkleroot": "c63ca6d1680d3fae1ebd375304c775f09168a2c377ebcb708d6a71c9a7e9233e",
  "time": 1232816202,
  "mediantime": 1232813902,
  "nonce": 2057854513,
  "bits": "1d00ffff",
  "difficulty": 1,
  "chainwork": "0000000000000000000000000000000000000000000000000000064c064c064c",
  "nTx": 1,
  "previousblockhash": "00000000d97359bd7dd742427a81f88bd01a27ebe66c5e0ae010df031173ee7c",
  "nextblockhash": "00000000ec083259298a88779883c683fe245c7953788b3c0a7686f3a3928756",
  "strippedsize": 216,
  "size": 216,
  "weight": 864,
  "tx": [
    {
      "txid": "c63ca6d1680d3fae1ebd375304c775f09168a2c377ebcb708d6a71c9a7e9233e",
      "hash": "c63ca6d1680d3fae1ebd375304c775f09168a2c377ebcb708d6a71c9a7e9233e",
      "version": 1,
      "size": 135,
      "vsize": 135,
      "weight": 540,
      "locktime": 0,
      "vin": [
        {
          "coinbase": "04ffff001d022302",
          "sequence": 4294967295
        }
      ],
      "vout": [
        {
          "value": 50.0,
          "n": 0,
          "scriptPubKey": {
            "asm": "04285a4cca65e26cfd47d3307020225cded5b3438892b008a5a349e190485d75c7a9c681da8dc224498c90e97c1af7e275014d6bd8c71c17a7d6a43aa84f100e14 OP_CHECKSIG",
            "desc": "pk(04285a4cca65e26cfd47d3307020225cded5b3438892b008a5a349e190485d75c7a9c681da8dc224498c90e97c1af7e275014d6bd8c71c17a7d6a43aa84f100e14)#mfr2d3jx",
            "hex": "4104285a4cca65e26cfd47d3307020225cded5b3438892b008a5a349e190485d75c7a9c681da8dc224498c90e97c1af7e275014d6bd8c71c17a7d6a43aa84f100e14ac",
            "type": "pubkey"
          }
        }
      ],
      "hex": "01000000010000000000000000000000000000000000000000000000000000000000000000ffffffff0804ffff001d022302ffffffff0100f2052a01000000434104285a4cca65e26cfd47d3307020225cded5b3438892b008a5a349e190485d75c7a9c681da8dc224498c90e97c1af7e275014d6bd8c71c17a7d6a43aa84f100e14ac00000000"
    }
  ]
}