{
  "hash": "000000002d00ebefbac23a5958ed1a5a4d6b2528c6054cbb187f9040eac8128d",
  "confirmations": 43211,
  "height": 9887,
  "version": 1,
  "versionHex": "00000001",
  "merkleroot": "e2ca6e1af4ddc0710acad0fc01e5d92a1b3b358fecdc7fa9fd3e6c53325f1720",
  "time": 1238916731,
  "mediantime": 1238913299,
  "nonce": 256183996,
  "bits": "1d00ffff",
  "difficulty": 1,
  "chainwork": "000000000000000000000000000000000000000000000000000026a026a026a0",
  "nTx": 1,
  "previousblockhash": "000000009fb14d3650b8a6ac331ab55d2b7f64b58afac0dc5df5a4bc00622a74",
  "nextblockhash": "00000000c6ebe5f7a54fb279f5b9121d92f2c34e3215215d20a327d30ad5dca6",
  "strippedsize": 216,
  "size": 216,
  "weight": 864,
  "tx": [
    {
      "txid": "e2ca6e1af4ddc0710acad0fc01e5d92a1b3b358fecdc7fa9fd3e6c53325f1720",
      "hash": "e2ca6e1af4ddc0710acad0fc01e5d92a1b3b358fecdc7fa9fd3e6c53325f1720",
      "version": 1,
      "size": 135,
      "vsize": 135,
      "weight": 540,
      "locktime": 0,
      "vin": [
        {
          "coinbase": "04ffff001d02fc00",
          "sequence": 4294967295
        }
      ],
      "vout": [
        {
          "value": 50.0,
          "n": 0,
          "scriptPubKey": {
            "asm": "04ce002ae3cb5cf94ac2b8785bf5ccf9cf67ebdcf5d3c385d71cb38c37a8cd240439e150b0926c5a82b942b3adc51806df1ba4b689518cae0dad0e119b3e391445 OP_CHECKSIG",
            "desc": "pk(04ce002ae3cb5cf94ac2b8785bf5ccf9cf67ebdcf5d3c385d71cb38c37a8cd240439e150b0926c5a82b942b3adc51806df1ba4b689518cae0dad0e119b3e391445)#gq95q3ck",
            "hex": "4104ce002ae3cb5cf94ac2b8785bf5ccf9cf67ebdcf5d3c385d71cb38c37a8cd240439e150b0926c5a82b942b3adc51806df1ba4b689518cae0dad0e119b3e391445ac",
            "type": "pubkey"
          }
        }
      ],
      "hex": "01000000010000000000000000000000000000000000000000000000000000000000000000ffffffff0804ffff001d02fc00ffffffff0100f2052a01000000434104ce002ae3cb5cf94ac2b8785bf5ccf9cf67ebdcf5d3c385d71cb38c37a8cd240439e150b0926c5a82b942b3adc51806df1ba4b689518cae0dad0e119b3e391445ac00000000"
    }
  ]
}