{
  "hash": "00000000494442377d4e296cf505b688e7dd90f5c4fe6f903884b92ff997b659",
  "confirmations": 46636,
  "height": 6462,
  "version": 1,
  "versionHex": "00000001",
  "merkleroot": "be9929a6b184132be970033c479ed9b49077719010cc758ef8d7a025a91405e2",
  "time": 1236301882,
  "mediantime": 1236297407,
  "nonce": 336385127,
  "bits": "1d00ffff",
  "difficulty": 1,
  "chainwork": "0000000000000000000000000000000000000000000000000000193f193f193f",
  "nTx": 1,
  "previousblockhash": "00000000a7fcecefa39556dfa8d3793d56de48e260d4d549c392dad2d5e77236",
  "nextblockhash": "0000000007215fcf4eb06cf260013306b66fd92401f735861c4bb232d8352d17",
  "strippedsize": 215,
  "size": 215,
  "weight": 860,
  "tx": [
    {
      "txid": "be9929a6b184132be970033c479ed9b49077719010cc758ef8d7a025a91405e2",
      "hash": "be9929a6b184132be970033c479ed9b49077719010cc758ef8d7a025a91405e2",
      "version": 1,
      "size": 134,
      "vsize": 134,
      "weight": 536,
      "locktime": 0,
      "vin": [
        {
          "coinbase": "04ffff001d0110",
          "sequence": 4294967295
        }
      ],
      "vout": [
        {
          "value": 50.0,
          "n": 0,
          "scriptPubKey": {
            "asm": "04b71352e6c7e69f4d93f1988440f35952d5c791f0e57a97b4b1e89981e2cf0dd50fb1f9356b21b5084233d4e6dde80b8703f3acaa1a3a9ee73260b0ad0dede03d OP_CHECKSIG",
            "desc": "pk(04b71352e6c7e69f4d93f1988440f35952d5c791f0e57a97b4b1e89981e2cf0dd50fb1f9356b21b5084233d4e6dde80b8703f3acaa1a3a9ee73260b0ad0dede03d)#pey2k20x",
            "hex": "4104b71352e6c7e69f4d93f1988440f35952d5c791f0e57a97b4b1e89981e2cf0dd50fb1f9356b21b5084233d4e6dde80b8703f3acaa1a3a9ee73260b0ad0dede03dac",
            "type": "pubkey"
          }
        }
      ],
      "hex": "01000000010000000000000000000000000000000000000000000000000000000000000000ffffffff0704ffff001d0110ffffffff0100f2052a01000000434104b71352e6c7e69f4d93f1988440f35952d5c791f0e57a97b4b1e89981e2cf0dd50fb1f9356b21b5084233d4e6dde80b8703f3acaa1a3a9ee73260b0ad0dede03dac00000000"
    }
  ]
}