{
  "hash": "000000009170777e5c4bca070011b170128efb51a85367238c42dc78906d2323",
  "confirmations": 44241,
  "height": 8857,
  "version": 1,
  "versionHex": "00000001",
  "merkleroot": "af88afed59f85124d8f429411821e8d9649cf4312fccc06f00f2a0a2c2a5b74d",
  "time": 1238142125,
  "mediantime": 1238139476,
  "nonce": 4241606690,
  "bits": "1d00ffff",
  "difficulty": 1,
  "chainwork": "0000000000000000000000000000000000000000000000000000229a229a229a",
  "nTx": 1,
  "previousblockhash": "000000002a78858548881c706490263d3f4617df7dbdd39502c19b7c582a6597",
  "nextblockhash": "00000000cd66bd84669273514028f8c9eb023995cab7459de85f3e252fa45332",
  "strippedsize": 216,
  "size": 216,
  "weight": 864,
  "tx": [
    {
      "txid": "af88afed59f85124d8f429411821e8d9649cf4312fccc06f00f2a0a2c2a5b74d",
      "hash": "af88afed59f85124d8f429411821e8d9649cf4312fccc06f00f2a0a2c2a5b74d",
      "version": 1,
      "size": 135,
      "vsize": 135,
      "weight": 540,
      "locktime": 0,
      "vin": [
        {
          "coinbase": "04ffff001d02a203",
          "sequence": 4294967295
        }
      ],
      "vout": [
        {
          "value": 50.0,
          "n": 0,
          "scriptPubKey": {
            "asm": "0448a2894d15a8e0355cd7fbfff2dac5dc4845371cfaa3225146931255fe8d126f761db77843487196c0e12ee05ba3c7b635a524797b94f06caf5368949e5739a7 OP_CHECKSIG",
            "desc": "pk(0448a2894d15a8e0355cd7fbfff2dac5dc4845371cfaa3225146931255fe8d126f761db77843487196c0e12ee05ba3c7b635a524797b94f06caf5368949e5739a7)#y7hvz777",
            "hex": "410448a2894d15a8e0355cd7fbfff2dac5dc4845371cfaa3225146931255fe8d126f761db77843487196c0e12ee05ba3c7b635a524797b94f06caf5368949e5739a7ac",
            "type": "pubkey"
          }
        }
      ],
      "hex": "01000000010000000000000000000000000000000000000000000000000000000000000000ffffffff0804ffff001d02a203ffffffff0100f2052a0100000043410448a2894d15a8e0355cd7fbfff2dac5dc4845371cfaa3225146931255fe8d126f761db77843487196c0e12ee05ba3c7b635a524797b94f06caf5368949e5739a7ac00000000"
    }
  ]
}