{
  "hash": "0000000064fce990466181c0ea20c9b98a71a8a5b285a1b0ab8ca7bb185ee799",
  "confirmations": 44715,
  "height": 8383,
  "version": 1,
  "versionHex": "00000001",
  "merkleroot": "c07a656010d35c16de45d21239b5a9f40fe8ea9c42f33cc63647aeb8206f8d06",
  "time": 1237789101,
  "mediantime": 1237784824,
  "nonce": 41759361,
  "bits": "1d00ffff",
  "difficulty": 1,
  "chainwork": "000000000000000000000000000000000000000000000000000020c020c020c0",
  "nTx": 1,
  "previousblockhash": "00000000156ff65d1b35b88ad8539f0cc096fd4618750fa779142ecdbbcd2e15",
  "nextblockhash": "0000000055e1bfe86b760726149ede44d6e4e1557de44a5c3c01fa6a711834de",
  "strippedsize": 215,
  "size": 215,
  "weight": 860,
  "tx": [
    {
      "txid": "c07a656010d35c16de45d21239b5a9f40fe8ea9c42f33cc63647aeb8206f8d06",
      "hash": "c07a656010d35c16de45d21239b5a9f40fe8ea9c42f33cc63647aeb8206f8d06",
      "version": 1,
      "size": 134,
      "vsize": 134,
      "weight": 536,
      "locktime": 0,
      "vin": [
        {
          "coinbase": "04ffff001d010b",
          "sequence": 4294967295
        }
      ],
      "vout": [
        {
          "value": 50.0,
          "n": 0,
          "scriptPubKey": {
            "asm": "0432b505962c1866defe3f576ba243f29131f51365299e926b93c2c4376ef548f020f25e869ed8af2a0ecc7c2ee41554ebde6b2ab9dc917da57f79894f479af39f OP_CHECKSIG",
            "desc": "pk(0432b505962c1866defe3f576ba243f29131f51365299e926b93c2c4376ef548f020f25e869ed8af2a0ecc7c2ee41554ebde6b2ab9dc917da57f79894f479af39f)#07crc6a7",
            "hex": "410432b505962c1866defe3f576ba243f29131f51365299e926b93c2c4376ef548f020f25e869ed8af2a0ecc7c2ee41554ebde6b2ab9dc917da57f79894f479af39fac",
            "type": "pubkey"
          }
        }
      ],
      "hex": "01000000010000000000000000000000000000000000000000000000000000000000000000ffffffff0704ffff001d010bffffffff0100f2052a0100000043410432b505962c1866defe3f576ba243f29131f51365299e926b93c2c4376ef548f020f25e869ed8af2a0ecc7c2ee41554ebde6b2ab9dc917da57f79894f479af39fac00000000"
    }
  ]
}