{
  "hash": "0000000062505349e96b0ed8b508d01d8f44d27e28a29e25bc9e2cc2f8ced7be",
  "confirmations": 45007,
  "height": 8091,
  "version": 1,
  "versionHex": "00000001",
  "merkleroot": "19320174bbbcdd293a0274827fa0affb3a3d02467970aa934453f8640f60a504",
  "time": 1237524426,
  "mediantime": 1237520677,
  "nonce": 373389366,
  "bits": "1d00ffff",
  "difficulty": 1,
  "chainwork": "00000000000000000000000000000000000000000000000000001f9c1f9c1f9c",
  "nTx": 1,
  "previousblockhash": "0000000016e6fd964b02557fd74349e2089a0abcd94a042191e7ff2d0eedf7e1",
  "nextblockhash": "000000008496bd0f4a2f37930d65493f1f5b6c1d6db0ed3561da47ed142d6d2c",
  "strippedsize": 216,
  "size": 216,
  "weight": 864,
  "tx": [
    {
      "txid": "19320174bbbcdd293a0274827fa0affb3a3d02467970aa934453f8640f60a504",
      "hash": "19320174bbbcdd293a0274827fa0affb3a3d02467970aa934453f8640f60a504",
      "version": 1,
      "size": 135,
      "vsize": 135,
      "weight": 540,
      "locktime": 0,
      "vin": [
        {
          "coinbase": "04ffff001d02f500",
          "sequence": 4294967295
        }
      ],
      "vout": [
        {
          "value": 50.0,
          "n": 0,
          "scriptPubKey": {
            "asm": "04cf4d690eca454227991de95712183432122f95591bd6903ea6829f17e76220cb4f72a31f73b72f43515636fe89178704f5394215f827557d7821ecec7e818b62 OP_CHECKSIG",
            "desc": "pk(04cf4d690eca454227991de95712183432122f95591bd6903ea6829f17e76220cb4f72a31f73b72f43515636fe89178704f5394215f827557d7821ecec7e818b62)#ydmsed6x",
            "hex": "4104cf4d690eca454227991de95712183432122f95591bd6903ea6829f17e76220cb4f72a31f73b72f43515636fe89178704f5394215f827557d7821ecec7e818b62ac",
            "type": "pubkey"
          }
        }
      ],
      "hex": "01000000010000000000000000000000000000000000000000000000000000000000000000ffffffff0804ffff001d02f500ffffffff0100f2052a01000000434104cf4d690eca454227991de95712183432122f95591bd6903ea6829f17e76220cb4f72a31f73b72f43515636fe89178704f5394215f827557d7821ecec7e818b62ac00000000"
    }
  ]
}