{
  "hash": "000000002922e47fd435bbd6c36317332d561ae46094ce54523b89bbdaa746da",
  "confirmations": 46657,
  "height": 6441,
  "version": 1,
  "versionHex": "00000001",
  "merkleroot": "742c67f0879027f3ad6a0482cf6da5d51f73cdacdd364cdfe5538a64c1bfcd56",
  "time": 1236286141,
  "mediantime": 1236283097,
  "nonce": 297362225,
  "bits": "1d00ffff",
  "difficulty": 1,
  "chainwork": "0000000000000000000000000000000000000000000000000000192a192a192a",
  "nTx": 1,
  "previousblockhash": "00000000bd5b11b70c81f25faa5f68bd6cfe8995adbf24920c96239aa29e2842",
  "nextblockhash": "00000000603dde813d493121c680778128448022453a8bd2df9babef2b2fa2c0",
  "strippedsize": 216,
  "size": 216,
  "weight": 864,
  "tx": [
    {
      "txid": "742c67f0879027f3ad6a0482cf6da5d51f73cdacdd364cdfe5538a64c1bfcd56",
      "hash": "742c67f0879027f3ad6a0482cf6da5d51f73cdacdd364cdfe5538a64c1bfcd56",
      "version": 1,
      "size": 135,
      "vsize": 135,
      "weight": 540,
      "locktime": 0,
      "vin": [
        {
          "coinbase": "04ffff001d027302",
          "sequence": 4294967295
        }
      ],
      "vout": [
        {
          "value": 50.0,
          "n": 0,
          "scriptPubKey": {
            "asm": "04c2764349b3fa42fe716fb6e1dc5293fe681d964c67b3f66fc0c9228930314c5d7ac001f577bb4ab5f0c0f9b2be8a0676dd94acc0280a27c3d5b7be25f165fa9d OP_CHECKSIG",
            "desc": "pk(04c2764349b3fa42fe716fb6e1dc5293fe681d964c67b3f66fc0c9228930314c5d7ac001f577bb4ab5f0c0f9b2be8a0676dd94acc0280a27c3d5b7be25f165fa9d)#0z88eddl",
            "hex": "4104c2764349b3fa42fe716fb6e1dc5293fe681d964c67b3f66fc0c9228930314c5d7ac001f577bb4ab5f0c0f9b2be8a0676dd94acc0280a27c3d5b7be25f165fa9dac",
            "type": "pubkey"
          }
        }
      ],
      "hex": "01000000010000000000000000000000000000000000000000000000000000000000000000ffffffff0804ffff001d027302ffffffff0100f2052a01000000434104c2764349b3fa42fe716fb6e1dc5293fe681d964c67b3f66fc0c9228930314c5d7ac001f577bb4ab5f0c0f9b2be8a0676dd94acc0280a27c3d5b7be25f165fa9dac00000000"
    }
  ]
}