{
  "hash": "00000000a29fcd97d0214eccf8da39927b2aeb9b416cc4d7b95e01d8bfb07601",
  "confirmations": 46030,
  "height": 7068,
  "version": 1,
  "versionHex": "00000001",
  "merkleroot": "a3669d250eefb67cabbdf46d6e18cb666ba9648b41beb4bfd142d762fedf3a10",
  "time": 1236771799,
  "mediantime": 1236767770,
  "nonce": 2218541868,
  "bits": "1d00ffff",
  "difficulty": 1,
  "chainwork": "00000000000000000000000000000000000000000000000000001b9d1b9d1b9d",
  "nTx": 1,
  "previousblockhash": "00000000902b0863fcd5a38d99062a41dc18fe1403dab66eccf5a41acb331cbb",
  "nextblockhash": "00000000a87ca128a42507244953ad72320da7057c73141c125cb23881ca1aec",
  "strippedsize": 216,
  "size": 216,
  "weight": 864,
  "tx": [
    {
      "txid": "a3669d250eefb67cabbdf46d6e18cb666ba9648b41beb4bfd142d762fedf3a10",
      "hash": "a3669d250eefb67cabbdf46d6e18cb666ba9648b41beb4bfd142d762fedf3a10",
      "version": 1,
      "size": 135,
      "vsize": 135,
      "weight": 540,
      "locktime": 0,
      "vin": [
        {
          "coinbase": "04ffff001d025903",
          "sequence": 4294967295
        }
      ],
      "vout": [
        {
          "value": 50.0,
          "n": 0,
          "scriptPubKey": {
            "asm": "04b3262df4ea80fe5d60a6424cdf7126079ea0ad0cd29eafbd541494956719926e07055607cfde17711776e18625b8e9fdb5bcee490c428323270e67298a57c618 OP_CHECKSIG",
            "desc": "pk(04b3262df4ea80fe5d60a6424cdf7126079ea0ad0cd29eafbd541494956719926e07055607cfde17711776e18625b8e9fdb5bcee490c428323270e67298a57c618)#38s4c0qh",
            "hex": "4104b3262df4ea80fe5d60a6424cdf7126079ea0ad0cd29eafbd541494956719926e07055607cfde17711776e18625b8e9fdb5bcee490c428323270e67298a57c618ac",
            "type": "pubkey"
          }
        }
      ],
      "hex": "01000000010000000000000000000000000000000000000000000000000000000000000000ffffffff0804ffff001d025903ffffffff0100f2052a01000000434104b3262df4ea80fe5d60a6424cdf7126079ea0ad0cd29eafbd541494956719926e07055607cfde17711776e18625b8e9fdb5bcee490c428323270e67298a57c618ac00000000"
    }
  ]
}