{
  "hash": "000000000ef8725eb972f2426f7e63a0393abbcc3c9f9d0402adb77a14d6b5ba",
  "confirmations": 51930,
  "height": 1168,
  "version": 1,
  "versionHex": "00000001",
  "merkleroot": "1a9230d7fdc0c5ae0aec9b676c96c268afb7ca9b3b1bf5911d124914ddde89e8",
  "time": 1232474926,
  "mediantime": 1232469804,
  "nonce": 90800950,
  "bits": "1d00ffff",
  "difficulty": 1,
  "chainwork": "0000000000000000000000000000000000000000000000000000049104910491",
  "nTx": 1,
  "previousblockhash": "00000000f0767ad76279839d0fced591231529c8b53d6ee282c6fd50d7c89660",
  "nextblockhash": "00000000e387669a236a5a5aa809b33ec8f9dd4cd5d9bffe017ee5f20f004a46",
  "strippedsize": 216,
  "size": 216,
  "weight": 864,
  "tx": [
    {
      "txid": "1a9230d7fdc0c5ae0aec9b676c96c268afb7ca9b3b1bf5911d124914ddde89e8",
      "hash": "1a9230d7fdc0c5ae0aec9b676c96c268afb7ca9b3b1bf5911d124914ddde89e8",
      "version": 1,
      "size": 135,
      "vsize": 135,
      "weight": 540,
      "locktime": 0,
      "vin": [
        {
          "coinbase": "04ffff001d021308",
          "sequence": 4294967295
        }
      ],
      "vout": [
        {
          "value": 50.0,
          "n": 0,
          "scriptPubKey": {
            "asm": "04a04246d3a00fb21930e029cd1a68aa26ab41123e973f47e1d08a782e74a5fe92f68f68a3a6dd2900e2708e50a311608ef840612821af0e26ddf874ec6b8158ef OP_CHECKSIG",
            "desc": "pk(04a04246d3a00fb21930e029cd1a68aa26ab41123e973f47e1d08a782e74a5fe92f68f68a3a6dd2900e2708e50a311608ef840612821af0e26ddf874ec6b8158ef)#j7ddtj89",
            "hex": "4104a04246d3a00fb21930e029cd1a68aa26ab41123e973f47e1d08a782e74a5fe92f68f68a3a6dd2900e2708e50a311608ef840612821af0e26ddf874ec6b8158efac",
            "type": "pubkey"
          }
        }
      ],
      "hex": "01000000010000000000000000000000000000000000000000000000000000000000000000ffffffff0804ffff001d021308ffffffff0100f2052a01000000434104a04246d3a00fb21930e029cd1a68aa26ab41123e973f47e1d08a782e74a5fe92f68f68a3a6dd2900e2708e50a311608ef840612821af0e26ddf874ec6b8158efac00000000"
    }
  ]
}