{
  "hash": "00000000bcdc52e18ad52bf541ac25122cbab181feb8ddfba2b47674f5183e91",
  "confirmations": 49999,
  "height": 3099,
  "version": 1,
  "versionHex": "00000001",
  "merkleroot": "3a145042ab4c8ee0bb7d18d574e067a73846273aef42143ab80c960a21199ae3",
  "time": 1233833383,
  "mediantime": 1233830101,
  "nonce": 2252212524,
  "bits": "1d00ffff",
  "difficulty": 1,
  "chainwork": "00000000000000000000000000000000000000000000000000000c1c0c1c0c1c",
  "nTx": 1,
  "previousblockhash": "00000000f398018f34f76cdcdb48385ce7739c2d182d402207c01e394e42023e",
  "nextblockhash": "0000000054470b7eaf483188546c296cb32dbed05bed5dd711bd7c685f8c8907",
  "strippedsize": 216,
  "size": 216,
  "weight": 864,
  "tx": [
    {
      "txid": "3a145042ab4c8ee0bb7d18d574e067a73846273aef42143ab80c960a21199ae3",
      "hash": "3a145042ab4c8ee0bb7d18d574e067a73846273aef42143ab80c960a21199ae3",
      "version": 1,
      "size": 135,
      "vsize": 135,
      "weight": 540,
      "locktime": 0,
      "vin": [
        {
          "coinbase": "04ffff001d022801",
          "sequence": 4294967295
        }
      ],
      "vout": [
        {
          "value": 50.0,
          "n": 0,
          "scriptPubKey": {
            "asm": "04443c66164e535199bca187124ed8495194d034825bb743b40ca7f8c8ec06b7e110cba82caef8e109b4a2a77b33cc81029ffd2a812629ac960bde21eecb3c44ca OP_CHECKSIG",
            "desc": "pk(04443c66164e535199bca187124ed8495194d034825bb743b40ca7f8c8ec06b7e110cba82caef8e109b4a2a77b33cc81029ffd2a812629ac960bde21eecb3c44ca)#90plnyqr",
            "hex": "4104443c66164e535199bca187124ed8495194d034825bb743b40ca7f8c8ec06b7e110cba82caef8e109b4a2a77b33cc81029ffd2a812629ac960bde21eecb3c44caac",
            "type": "pubkey"
          }
        }
      ],
      "hex": "01000000010000000000000000000000000000000000000000000000000000000000000000ffffffff0804ffff001d022801ffffffff0100f2052a01000000434104443c66164e535199bca187124ed8495194d034825bb743b40ca7f8c8ec06b7e110cba82caef8e109b4a2a77b33cc81029ffd2a812629ac960bde21eecb3c44caac00000000"
    }
  ]
}