{
  "hash": "00000000171ac986401d1fa44eb0584fcff7f4eb7f62b4ecb14e052f634180a9",
  "confirmations": 49886,
  "height": 3212,
  "version": 1,
  "versionHex": "00000001",
  "merkleroot": "c2533e6dddacd193f9267eb995f833578d63fbdf9877a83a25dcb3816ae23abc",
  "time": 1233909676,
  "mediantime": 1233905546,
  "nonce": 1600983828,
  "bits": "1d00ffff",
  "difficulty": 1,
  "chainwork": "00000000000000000000000000000000000000000000000000000c8d0c8d0c8d",
  "nTx": 1,
  "previousblockhash": "00000000c66f9f464ef9a4af1be732398c36c28046f77bf727145c71722b85a4",
  "nextblockhash": "00000000310b0b5dedec0105d997d31402b7828b6417d1a2673b9a86596a694d",
  "strippedsize": 216,
  "size": 216,
  "weight": 864,
  "tx": [
    {
      "txid": "c2533e6dddacd193f9267eb995f833578d63fbdf9877a83a25dcb3816ae23abc",
      "hash": "c2533e6dddacd193f9267eb995f833578d63fbdf9877a83a25dcb3816ae23abc",
      "version": 1,
      "size": 135,
      "vsize": 135,
      "weight": 540,
      "locktime": 0,
      "vin": [
        {
          "coinbase": "04ffff001d02ed02",
          "sequence": 4294967295
        }
      ],
      "vout": [
        {
          "value": 50.0,
          "n": 0,
          "scriptPubKey": {
            "asm": "048924bed4546bb6b53f84aef6fb23ce07a45d847ee8f74e4436d111020e6bdeb81d50c5515d5c907817a19f61620afa044703dc46c0f638c8e06d136433042ccb OP_CHECKSIG",
            "desc": "pk(048924bed4546bb6b53f84aef6fb23ce07a45d847ee8f74e4436d111020e6bdeb81d50c5515d5c907817a19f61620afa044703dc46c0f638c8e06d136433042ccb)#7yc47x3e",
            "hex": "41048924bed4546bb6b53f84aef6fb23ce07a45d847ee8f74e4436d111020e6bdeb81d50c5515d5c907817a19f61620afa044703dc46c0f638c8e06d136433042ccbac",
            "type": "pubkey"
          }
        }
      ],
      "hex": "01000000010000000000000000000000000000000000000000000000000000000000000000ffffffff0804ffff001d02ed02ffffffff0100f2052a010000004341048924bed4546bb6b53f84aef6fb23ce07a45d847ee8f74e4436d111020e6bdeb81d50c5515d5c907817a19f61620afa044703dc46c0f638c8e06d136433042ccbac00000000"
    }
  ]
}