{
  "hash": "00000000f460589c3a045fa38573c8d3e0688db64b052bb238bd5854b1db1db6",
  "confirmations": 48420,
  "height": 4678,
  "version": 1,
  "versionHex": "00000001",
  "merkleroot": "db592dd90e53588cac5983b4aec0bd01b0e02b7bbdc2b8cc1f53670f0db83f6f",
  "time": 1234912099,
  "mediantime": 1234907370,
  "nonce": 36811404,
  "bits": "1d00ffff",
  "difficulty": 1,
  "chainwork": "0000000000000000000000000000000000000000000000000000124712471247",
  "nTx": 1,
  "previousblockhash": "0000000086bf44fe7972e38474f46e86b975220d08daa6e5d8d46b4a5d934553",
  "nextblockhash": "000000006f54dab82bfafdf8cf9c01cadb8191fa5c6c007a8cd8a9be18f5ee1b",
  "strippedsize": 215,
  "size": 215,
  "weight": 860,
  "tx": [
    {
      "txid": "db592dd90e53588cac5983b4aec0bd01b0e02b7bbdc2b8cc1f53670f0db83f6f",
      "hash": "db592dd90e53588cac5983b4aec0bd01b0e02b7bbdc2b8cc1f53670f0db83f6f",
      "version": 1,
      "size": 134,
      "vsize": 134,
      "weight": 536,
      "locktime": 0,
      "vin": [
        {
          "coinbase": "04ffff001d0108",
          "sequence": 4294967295
        }
      ],
      "vout": [
        {
          "value": 50.0,
          "n": 0,
          "scriptPubKey": {
            "asm": "04eea2a9aa5b2959b23fcd82bd46d550e489f95276fa5979f20e93dc21c3faa406319b0e267e9a1e82ee3c817f7bbae2631862ab093ddb90986a129ec08d2a0f82 OP_CHECKSIG",
            "desc": "pk(04eea2a9aa5b2959b23fcd82bd46d550e489f95276fa5979f20e93dc21c3faa406319b0e267e9a1e82ee3c817f7bbae2631862ab093ddb90986a129ec08d2a0f82)#jmz23hg3",
            "hex": "4104eea2a9aa5b2959b23fcd82bd46d550e489f95276fa5979f20e93dc21c3faa406319b0e267e9a1e82ee3c817f7bbae2631862ab093ddb90986a129ec08d2a0f82ac",
            "type": "pubkey"
          }
        }
      ],
      "hex": "01000000010000000000000000000000000000000000000000000000000000000000000000ffffffff0704ffff001d0108ffffffff0100f2052a01000000434104eea2a9aa5b2959b23fcd82bd46d550e489f95276fa5979f20e93dc21c3faa406319b0e267e9a1e82ee3c817f7bbae2631862ab093ddb90986a129ec08d2a0f82ac00000000"
    }
  ]
}