{
  "hash": "00000000ee8206099db24119708c137b7d7c54ef2d328e475b3550ca080649c4",
  "confirmations": 51837,
  "height": 1261,
  "version": 1,
  "versionHex": "00000001",
  "merkleroot": "0ae98e4e8c14f57d4b457ed516c3a5b158a48e9f52170172d6a9b0265d00f8f0",
  "time": 1232546133,
  "mediantime": 1232542744,
  "nonce": 3437857058,
  "bits": "1d00ffff",
  "difficulty": 1,
  "chainwork": "000000000000000000000000000000000000000000000000000004ee04ee04ee",
  "nTx": 1,
  "previousblockhash": "000000004d300ee9448a7a24cb5e5ac6baabbbe8f071a0992bca904b8ee4099f",
  "nextblockhash": "00000000be689023e049c968aee4fe38e95650d7a585d1e1480f05ce087fcd48",
  "strippedsize": 216,
  "size": 216,
  "weight": 864,
  "tx": [
    {
      "txid": "0ae98e4e8c14f57d4b457ed516c3a5b158a48e9f52170172d6a9b0265d00f8f0",
      "hash": "0ae98e4e8c14f57d4b457ed516c3a5b158a48e9f52170172d6a9b0265d00f8f0",
      "version": 1,
      "size": 135,
      "vsize": 135,
      "weight": 540,
      "locktime": 0,
      "vin": [
        {
          "coinbase": "04ffff001d02a809",
          "sequence": 4294967295
        }
      ],
      "vout": [
        {
          "value": 50.0,
          "n": 0,
          "scriptPubKey": {
            "asm": "046a84c088de0c52453b3a8a93a8674d541a84ebd21b72f86c587db13a59206fd032dfae6019580e421aa310a27c3ac6926169020f316bd040e77355f3adca0473 OP_CHECKSIG",
            "desc": "pk(046a84c088de0c52453b3a8a93a8674d541a84ebd21b72f86c587db13a59206fd032dfae6019580e421aa310a27c3ac6926169020f316bd040e77355f3adca0473)#xuy0nha3",
            "hex": "41046a84c088de0c52453b3a8a93a8674d541a84ebd21b72f86c587db13a59206fd032dfae6019580e421aa310a27c3ac6926169020f316bd040e77355f3adca0473ac",
            "type": "pubkey"
          }
        }
      ],
      "hex": "01000000010000000000000000000000000000000000000000000000000000000000000000ffffffff0804ffff001d02a809ffffffff0100f2052a010000004341046a84c088de0c52453b3a8a93a8674d541a84ebd21b72f86c587db13a59206fd032dfae6019580e421aa310a27c3ac6926169020f316bd040e77355f3adca0473ac00000000"
    }
  ]
}