{
  "hash": "00000000144cf235e3c011e236d261bf535720eebf6ead83ceb1e9fc1e5e4c16",
  "confirmations": 52419,
  "height": 679,
  "version": 1,
  "versionHex": "00000001",
  "merkleroot": "7fef48a33717c581dec108f76d53c6ed9f3d5c354ca83e02c64dbfa9b1a9026e",
  "time": 1232092225,
  "mediantime": 1232087115,
  "nonce": 2959456787,
  "bits": "1d00ffff",
  "difficulty": 1,
  "chainwork": "000000000000000000000000000000000000000000000000000002a802a802a8",
  "nTx": 1,
  "previousblockhash": "00000000038ba6aef61ecafa4361db063b2b86f24202b0ac857253f13461eb5a",
  "nextblockhash": "000000001943f7332d6eed79dd7c66f37c571c47f51faa9f34efd13e3f4e181c",
  "strippedsize": 215,
  "size": 215,
  "weight": 860,
  "tx": [
    {
      "txid": "7fef48a33717c581dec108f76d53c6ed9f3d5c354ca83e02c64dbfa9b1a9026e",
      "hash": "7fef48a33717c581dec108f76d53c6ed9f3d5c354ca83e02c64dbfa9b1a9026e",
      "version": 1,
      "size": 134,
      "vsize": 134,
      "weight": 536,
      "locktime": 0,
      "vin": [
        {
          "coinbase": "04ffff001d0167",
          "sequence": 4294967295
        }
      ],
      "vout": [
        {
          "value": 50.0,
          "n": 0,
          "scriptPubKey": {
            "asm": "04d54e92ef8225c53119e3b8887d2f331114128b2d719b05386c4bd44f5f44d0932cbe5888a517c1edcd7df6e2ce4898384c23d78a46c998d88b41bb8d0196dfc6 OP_CHECKSIG",
            "desc": "pk(04d54e92ef8225c53119e3b8887d2f331114128b2d719b05386c4bd44f5f44d0932cbe5888a517c1edcd7df6e2ce4898384c23d78a46c998d88b41bb8d0196dfc6)#pagp0a2u",
            "hex": "4104d54e92ef8225c53119e3b8887d2f331114128b2d719b05386c4bd44f5f44d0932cbe5888a517c1edcd7df6e2ce4898384c23d78a46c998d88b41bb8d0196dfc6ac",
            "type": "pubkey"
          }
        }
      ],
      "hex": "01000000010000000000000000000000000000000000000000000000000000000000000000ffffffff0704ffff001d0167ffffffff0100f2052a01000000434104d54e92ef8225c53119e3b8887d2f331114128b2d719b05386c4bd44f5f44d0932cbe5888a517c1edcd7df6e2ce4898384c23d78a46c998d88b41bb8d0196dfc6ac00000000"
    }
  ]
}