{
  "hash": "00000000bf1c8ee6cfc810011106196a128d0fff981d87ac343a129ef37c771d",
  "confirmations": 45742,
  "height": 7356,
  "version": 1,
  "versionHex": "00000001",
  "merkleroot": "6cc990ef159dfbae7408b1c6cdff00a1aae4f5047701cc43996401c3caa0f769",
  "time": 1236987099,
  "mediantime": 1236984156,
  "nonce": 67350903,
  "bits": "1d00ffff",
  "difficulty": 1,
  "chainwork": "00000000000000000000000000000000000000000000000000001cbd1cbd1cbd",
  "nTx": 1,
  "previousblockhash": "000000007a9b083588cd854095aa433fb010ddd0de02bd49c04d597b22729c05",
  "nextblockhash": "000000007f1d30edd6c0d64956a2f4af691dfb60bf71a32591153e4f9efa871f",
  "strippedsize": 215,
  "size": 215,
  "weight": 860,
  "tx": [
    {
      "txid": "6cc990ef159dfbae7408b1c6cdff00a1aae4f5047701cc43996401c3caa0f769",
      "hash": "6cc990ef159dfbae7408b1c6cdff00a1aae4f5047701cc43996401c3caa0f769",
      "version": 1,
      "size": 134,
      "vsize": 134,
      "weight": 536,
      "locktime": 0,
      "vin": [
        {
          "coinbase": "04ffff001d0159",
          "sequence": 4294967295
        }
      ],
      "vout": [
        {
          "value": 50.0,
          "n": 0,
          "scriptPubKey": {
            "asm": "04c112b9fec69cd0e138179b057625e6badf7c3262707e8e1d9b1311953a8fcc84163fd0012ea910fa9ee43bcea296caad2c2433d0500c3c57a4f80c620920e576 OP_CHECKSIG",
            "desc": "pk(04c112b9fec69cd0e138179b057625e6badf7c3262707e8e1d9b1311953a8fcc84163fd0012ea910fa9ee43bcea296caad2c2433d0500c3c57a4f80c620920e576)#0k820dlx",
            "hex": "4104c112b9fec69cd0e138179b057625e6badf7c3262707e8e1d9b1311953a8fcc84163fd0012ea910fa9ee43bcea296caad2c2433d0500c3c57a4f80c620920e576ac",
            "type": "pubkey"
          }
        }
      ],
      "hex": "01000000010000000000000000000000000000000000000000000000000000000000000000ffffffff0704ffff001d0159ffffffff0100f2052a01000000434104c112b9fec69cd0e138179b057625e6badf7c3262707e8e1d9b1311953a8fcc84163fd0012ea910fa9ee43bcea296caad2c2433d0500c3c57a4f80c620920e576ac00000000"
    }
  ]
}