{
  "hash": "000000008d590df3c8a35bc0f921c71b74f2e8a1ecd361fb892dd886d7c8b2ca",
  "confirmations": 46654,
  "height": 6444,
  "version": 1,
  "versionHex": "00000001",
  "merkleroot": "018dbedb996d507e4ff039cc4c15c1d4b2e2344ff2100e23e596e5f76457e63d",
  "time": 1236288526,
  "mediantime": 1236284815,
  "nonce": 1188743956,
  "bits": "1d00ffff",
  "difficulty": 1,
  "chainwork": "0000000000000000000000000000000000000000000000000000192d192d192d",
  "nTx": 1,
  "previousblockhash": "00000000056f2cc01f0b67503e2eb48eb9c5e466c43f03ba376a7c7f88ce631d",
  "nextblockhash": "000000007ec99d19c41c794e40bbd92acab40fe1ee019bf672ea01c566b78bb3",
  "strippedsize": 216,
  "size": 216,
  "weight": 864,
  "tx": [
    {
      "txid": "018dbedb996d507e4ff039cc4c15c1d4b2e2344ff2100e23e596e5f76457e63d",
      "hash": "018dbedb996d507e4ff039cc4c15c1d4b2e2344ff2100e23e596e5f76457e63d",
      "version": 1,
      "size": 135,
      "vsize": 135,
      "weight": 540,
      "locktime": 0,
      "vin": [
        {
          "coinbase": "04ffff001d027d02",
          "sequence": 4294967295
        }
      ],
      "vout": [
        {
          "value": 50.0,
          "n": 0,
          "scriptPubKey": {
            "asm": "0429ebb51a3a471a9717a79173a000e0d365144257d9699382356d1edecd8f311fc5b73609a5edddbf844e5e2094c6036b3dd5cd28c1e4958b7738c53b4e73d10a OP_CHECKSIG",
            "desc": "pk(0429ebb51a3a471a9717a79173a000e0d365144257d9699382356d1edecd8f311fc5b73609a5edddbf844e5e2094c6036b3dd5cd28c1e4958b7738c53b4e73d10a)#p8gzrrfk",
            "hex": "410429ebb51a3a471a9717a79173a000e0d365144257d9699382356d1edecd8f311fc5b73609a5edddbf844e5e2094c6036b3dd5cd28c1e4958b7738c53b4e73d10aac",
            "type": "pubkey"
          }
        }
      ],
      "hex": "01000000010000000000000000000000000000000000000000000000000000000000000000ffffffff0804ffff001d027d02ffffffff0100f2052a0100000043410429ebb51a3a471a9717a79173a000e0d365144257d9699382356d1edecd8f311fc5b73609a5edddbf844e5e2094c6036b3dd5cd28c1e4958b7738c53b4e73d10aac00000000"
    }
  ]
}