{
  "hash": "000000005743d5f574e5a96826445be944e59687cba22ede9783155a1074da9b",
  "confirmations": 50816,
  "height": 2282,
  "version": 1,
  "versionHex": "00000001",
  "merkleroot": "3b02184099df523d3ee027af7a7fd6825fc42788360473d0c89e7e7143a15f7f",
  "time": 1233268548,
  "mediantime": 1233264990,
  "nonce": 1101911350,
  "bits": "1d00ffff",
  "difficulty": 1,
  "chainwork": "000000000000000000000000000000000000000000000000000008eb08eb08eb",
  "nTx": 1,
  "previousblockhash": "000000006f9554b1b00ac6a3a52d9223f6083373f4aaff95effdbae09f359be6",
  "nextblockhash": "000000007569ac9cf8db89a6903ed71218bcf25786370acefef1866e15e96216",
  "strippedsize": 216,
  "size": 216,
  "weight": 864,
  "tx": [
    {
      "txid": "3b02184099df523d3ee027af7a7fd6825fc42788360473d0c89e7e7143a15f7f",
      "hash": "3b02184099df523d3ee027af7a7fd6825fc42788360473d0c89e7e7143a15f7f",
      "version": 1,
      "size": 135,
      "vsize": 135,
      "weight": 540,
      "locktime": 0,
      "vin": [
        {
          "coinbase": "04ffff001d026e01",
          "sequence": 4294967295
        }
      ],
      "vout": [
        {
          "value": 50.0,
          "n": 0,
          "scriptPubKey": {
            "asm": "04a028c6e3e677132a676b526a512ce4c4d681fb3050668bfefeba94ad06bbd59cb4246e3b559133b75f5936739840a2660f2e2f68bdbc312b253908c04f15b4f3 OP_CHECKSIG",
            "desc": "pk(04a028c6e3e677132a676b526a512ce4c4d681fb3050668bfefeba94ad06bbd59cb4246e3b559133b75f5936739840a2660f2e2f68bdbc312b253908c04f15b4f3)#0xwzaajw",
            "hex": "4104a028c6e3e677132a676b526a512ce4c4d681fb3050668bfefeba94ad06bbd59cb4246e3b559133b75f5936739840a2660f2e2f68bdbc312b253908c04f15b4f3ac",
            "type": "pubkey"
          }
        }
      ],
      "hex": "01000000010000000000000000000000000000000000000000000000000000000000000000ffffffff0804ffff001d026e01ffffffff0100f2052a01000000434104a028c6e3e677132a676b526a512ce4c4d681fb3050668bfefeba94ad06bbd59cb4246e3b559133b75f5936739840a2660f2e2f68bdbc312b253908c04f15b4f3ac00000000"
    }
  ]
}