{
  "hash": "00000000ac41d26f0e2f890a33895e1317f735f298b76f409103a4f4f0f93d72",
  "confirmations": 50556,
  "height": 2542,
  "version": 1,
  "versionHex": "00000001",
  "merkleroot": "9fc44025fec2912193515b0755f629467a64e88dfe1547935c5e515247f2f1d1",
  "time": 1233445540,
  "mediantime": 1233442096,
  "nonce": 336668419,
  "bits": "1d00ffff",
  "difficulty": 1,
  "chainwork": "000000000000000000000000000000000000000000000000000009ef09ef09ef",
  "nTx": 1,
  "previousblockhash": "0000000099531766ee9897533ea3fdecefa07109234dd0a52973b55f681b7c69",
  "nextblockhash": "00000000fc475c10ab951e3a3b01b45478de43741cba68a8bddcd28063fb686d",
  "strippedsize": 216,
  "size": 216,
  "weight": 864,
  "tx": [
    {
      "txid": "9fc44025fec2912193515b0755f629467a64e88dfe1547935c5e515247f2f1d1",
      "hash": "9fc44025fec2912193515b0755f629467a64e88dfe1547935c5e515247f2f1d1",
      "version": 1,
      "size": 135,
      "vsize": 135,
      "weight": 540,
      "locktime": 0,
      "vin": [
        {
          "coinbase": "04ffff001d029a01",
          "sequence": 4294967295
        }
      ],
      "vout": [
        {
          "value": 50.0,
          "n": 0,
          "scriptPubKey": {
            "asm": "04f353dd86deb43153a74b5b24f63c5b799a1d32426fcf2b9f6b972a7c18b6a7c96aaf9e6c26bd278eeaa3f6c3b3059c7d542ac23dad6bbce67df68f4d2c43706f OP_CHECKSIG",
            "desc": "pk(04f353dd86deb43153a74b5b24f63c5b799a1d32426fcf2b9f6b972a7c18b6a7c96aaf9e6c26bd278eeaa3f6c3b3059c7d542ac23dad6bbce67df68f4d2c43706f)#urhj5q4g",
            "hex": "4104f353dd86deb43153a74b5b24f63c5b799a1d32426fcf2b9f6b972a7c18b6a7c96aaf9e6c26bd278eeaa3f6c3b3059c7d542ac23dad6bbce67df68f4d2c43706fac",
            "type": "pubkey"
          }
        }
      ],
      "hex": "01000000010000000000000000000000000000000000000000000000000000000000000000ffffffff0804ffff001d029a01ffffffff0100f2052a01000000434104f353dd86deb43153a74b5b24f63c5b799a1d32426fcf2b9f6b972a7c18b6a7c96aaf9e6c26bd278eeaa3f6c3b3059c7d542ac23dad6bbce67df68f4d2c43706fac00000000"
    }
  ]
}