{
  "hash": "0000000012f320022d8d1fd89cee1f0f6ac019ce76632809d5ac93fddcfa06e9",
  "confirmations": 45505,
  "height": 7593,
  "version": 1,
  "versionHex": "00000001",
  "merkleroot": "bd28c454c624ec6c118e6ddf27b3975c4203395d003bdc0688beb5a83dd6426f",
  "time": 1237163116,
  "mediantime": 1237158260,
  "nonce": 376819969,
  "bits": "1d00ffff",
  "difficulty": 1,
  "chainwork": "00000000000000000000000000000000000000000000000000001daa1daa1daa",
  "nTx": 1,
  "previousblockhash": "00000000fb4304df797fb08783b14a9d138f486ca9b69ea1917d7a4e70af833e",
  "nextblockhash": "000000005cb0a513dc5a1d0176978fbc65d0bc8d1f69ad232f8cf13838286ecb",
  "strippedsize": 216,
  "size": 216,
  "weight": 864,
  "tx": [
    {
      "txid": "bd28c454c624ec6c118e6ddf27b3975c4203395d003bdc0688beb5a83dd6426f",
      "hash": "bd28c454c624ec6c118e6ddf27b3975c4203395d003bdc0688beb5a83dd6426f",
      "version": 1,
      "size": 135,
      "vsize": 135,
      "weight": 540,
      "locktime": 0,
      "vin": [
        {
          "coinbase": "04ffff001d027402",
          "sequence": 4294967295
        }
      ],
      "vout": [
        {
          "value": 50.0,
          "n": 0,
          "scriptPubKey": {
            "asm": "0476633b48a786c86de68ebb11300f6cf843131331acc3f7d867e483de6db04a2f9b7c77ebeab8b719e1aea374dcd460ab6e7fcb5083af73801a5bea902a94cdf9 OP_CHECKSIG",
            "desc": "pk(0476633b48a786c86de68ebb11300f6cf843131331acc3f7d867e483de6db04a2f9b7c77ebeab8b719e1aea374dcd460ab6e7fcb5083af73801a5bea902a94cdf9)#nqwsq2ph",
            "hex": "410476633b48a786c86de68ebb11300f6cf843131331acc3f7d867e483de6db04a2f9b7c77ebeab8b719e1aea374dcd460ab6e7fcb5083af73801a5bea902a94cdf9ac",
            "type": "pubkey"
          }
        }
      ],
      "hex": "01000000010000000000000000000000000000000000000000000000000000000000000000ffffffff0804ffff001d027402ffffffff0100f2052a0100000043410476633b48a786c86de68ebb11300f6cf843131331acc3f7d867e483de6db04a2f9b7c77ebeab8b719e1aea374dcd460ab6e7fcb5083af73801a5bea902a94cdf9ac00000000"
    }
  ]
}