{
  "hash": "00000000315878324d2ac843c44ff83f1b9846120e7cfee816eca240d191e981",
  "confirmations": 44128,
  "height": 8970,
  "version": 1,
  "versionHex": "00000001",
  "merkleroot": "03347cda6f5919c58101d6403aae8ac26f9f52edceeb93451b95bf45a1088c0a",
  "time": 1238231416,
  "mediantime": 1238229074,
  "nonce": 45380000,
  "bits": "1d00ffff",
  "difficulty": 1,
  "chainwork": "0000000000000000000000000000000000000000000000000000230b230b230b",
  "nTx": 1,
  "previousblockhash": "00000000a5d3de6541cfdf9b4ea6c7ba76655338714076338ebe078b68c1d780",
  "nextblockhash": "000000004135e9bcc2ce23326ca43eb91f92f6021699ca8e89088a2a097c4d48",
  "strippedsize": 216,
  "size": 216,
  "weight": 864,
  "tx": [
    {
      "txid": "03347cda6f5919c58101d6403aae8ac26f9f52edceeb93451b95bf45a1088c0a",
      "hash": "03347cda6f5919c58101d6403aae8ac26f9f52edceeb93451b95bf45a1088c0a",
      "version": 1,
      "size": 135,
      "vsize": 135,
      "weight": 540,
      "locktime": 0,
      "vin": [
        {
          "coinbase": "04ffff001d026e07",
          "sequence": 4294967295
        }
      ],
      "vout": [
        {
          "value": 50.0,
          "n": 0,
          "scriptPubKey": {
            "asm": "0429bf30b76051f98f2d045a86e6bddee411482624267114e3e5137c7ace2dab49955c6075c48d23de986c1f9135bbfe004d08db740e1b77f6fc2a08cce705aabf OP_CHECKSIG",
            "desc": "pk(0429bf30b76051f98f2d045a86e6bddee411482624267114e3e5137c7ace2dab49955c6075c48d23de986c1f9135bbfe004d08db740e1b77f6fc2a08cce705aabf)#k6udhla2",
            "hex": "410429bf30b76051f98f2d045a86e6bddee411482624267114e3e5137c7ace2dab49955c6075c48d23de986c1f9135bbfe004d08db740e1b77f6fc2a08cce705aabfac",
            "type": "pubkey"
          }
        }
      ],
      "hex": "01000000010000000000000000000000000000000000000000000000000000000000000000ffffffff0804ffff001d026e07ffffffff0100f2052a0100000043410429bf30b76051f98f2d045a86e6bddee411482624267114e3e5137c7ace2dab49955c6075c48d23de986c1f9135bbfe004d08db740e1b77f6fc2a08cce705aabfac00000000"
    }
  ]
}