{
  "hash": "000000006463e5ccebec857a449bff36431f4d02c56c38aadce6ec1a37c75014",
  "confirmations": 51295,
  "height": 1803,
  "version": 1,
  "versionHex": "00000001",
  "merkleroot": "775a72f75161cfa0d4902903d9ce4eb4f34387d4fa7368b413d2f0e9a6cd7ac6",
  "time": 1232900291,
  "mediantime": 1232897146,
  "nonce": 2063291161,
  "bits": "1d00ffff",
  "difficulty": 1,
  "chainwork": "0000000000000000000000000000000000000000000000000000070c070c070c",
  "nTx": 1,
  "previousblockhash": "00000000d238b9599d98265f4313d8d57662bb8f8c51a2c6dfe54fcb847194ea",
  "nextblockhash": "00000000cd9ad78b3ad79a03418becb9599d82e676b0baaf161eba3c32aeafae",
  "strippedsize": 216,
  "size": 216,
  "weight": 864,
  "tx": [
    {
      "txid": "775a72f75161cfa0d4902903d9ce4eb4f34387d4fa7368b413d2f0e9a6cd7ac6",
      "hash": "775a72f75161cfa0d4902903d9ce4eb4f34387d4fa7368b413d2f0e9a6cd7ac6",
      "version": 1,
      "size": 135,
      "vsize": 135,
      "weight": 540,
      "locktime": 0,
      "vin": [
        {
          "coinbase": "04ffff001d023304",
          "sequence": 4294967295
        }
      ],
      "vout": [
        {
          "value": 50.0,
          "n": 0,
          "scriptPubKey": {
            "asm": "04d8f85d907ffa9d8fd097ca234bd22a000d8ee85b211c0c27f8b57a23eac3f92f6b07cb6bd95ebcd712358636c822863bb23496f8672f10b05c654286de3868ea OP_CHECKSIG",
            "desc": "pk(04d8f85d907ffa9d8fd097ca234bd22a000d8ee85b211c0c27f8b57a23eac3f92f6b07cb6bd95ebcd712358636c822863bb23496f8672f10b05c654286de3868ea)#htgld7f8",
            "hex": "4104d8f85d907ffa9d8fd097ca234bd22a000d8ee85b211c0c27f8b57a23eac3f92f6b07cb6bd95ebcd712358636c822863bb23496f8672f10b05c654286de3868eaac",
            "type": "pubkey"
          }
        }
      ],
      "hex": "01000000010000000000000000000000000000000000000000000000000000000000000000ffffffff0804ffff001d023304ffffffff0100f2052a01000000434104d8f85d907ffa9d8fd097ca234bd22a000d8ee85b211c0c27f8b57a23eac3f92f6b07cb6bd95ebcd712358636c822863bb23496f8672f10b05c654286de3868eaac00000000"
    }
  ]
}