{
  "hash": "00000000937216a873edd99bf12eef27ed5c3ccbbd8b0f42f931887d314d8038",
  "confirmations": 51739,
  "height": 1359,
  "version": 1,
  "versionHex": "00000001",
  "merkleroot": "29b818c504cb1f6428b7668d5dbc8faa3d8594f83b72914d155c62516281727e",
  "time": 1232650273,
  "mediantime": 1232645196,
  "nonce": 3021950749,
  "bits": "1d00ffff",
  "difficulty": 1,
  "chainwork": "0000000000000000000000000000000000000000000000000000055005500550",
  "nTx": 1,
  "previousblockhash": "00000000cd59f48beee18995921d026a34e6e09941ae2f78f529a9ed6f698009",
  "nextblockhash": "00000000d0b483c7e7ba3ac75e979d6d42a173ce40f6dd0428903a400b032450",
  "strippedsize": 216,
  "size": 216,
  "weight": 864,
  "tx": [
    {
      "txid": "29b818c504cb1f6428b7668d5dbc8faa3d8594f83b72914d155c62516281727e",
      "hash": "29b818c504cb1f6428b7668d5dbc8faa3d8594f83b72914d155c62516281727e",
      "version": 1,
      "size": 135,
      "vsize": 135,
      "weight": 540,
      "locktime": 0,
      "vin": [
        {
          "coinbase": "04ffff001d025301",
          "sequence": 4294967295
        }
      ],
      "vout": [
        {
          "value": 50.0,
          "n": 0,
          "scriptPubKey": {
            "asm": "042acb65212f09d3c87fcadf10836294d40399ab419770ccb26f45f5163ff62d419d4e30a7ff191bc87f1433e48eb53076d318c567c7a5116229b342477cde561c OP_CHECKSIG",
            "desc": "pk(042acb65212f09d3c87fcadf10836294d40399ab419770ccb26f45f5163ff62d419d4e30a7ff191bc87f1433e48eb53076d318c567c7a5116229b342477cde561c)#549grsfq",
            "hex": "41042acb65212f09d3c87fcadf10836294d40399ab419770ccb26f45f5163ff62d419d4e30a7ff191bc87f1433e48eb53076d318c567c7a5116229b342477cde561cac",
            "type": "pubkey"
          }
        }
      ],
      "hex": "01000000010000000000000000000000000000000000000000000000000000000000000000ffffffff0804ffff001d025301ffffffff0100f2052a010000004341042acb65212f09d3c87fcadf10836294d40399ab419770ccb26f45f5163ff62d419d4e30a7ff191bc87f1433e48eb53076d318c567c7a5116229b342477cde561cac00000000"
    }
  ]
}