{
  "hash": "000000008432f21f1398605e436c569476f4c9bdde39b21d215c035a5ae9cb19",
  "confirmations": 45136,
  "height": 7962,
  "version": 1,
  "versionHex": "00000001",
  "merkleroot": "7ca4e6342ad85e1d676b6b322c35903a08d950a0fcd4ef1dc9885147c5ae2dc6",
  "time": 1237436715,
  "mediantime": 1237431932,
  "nonce": 2309348648,
  "bits": "1d00ffff",
  "difficulty": 1,
  "chainwork": "00000000000000000000000000000000000000000000000000001f1b1f1b1f1b",
  "nTx": 1,
  "previousblockhash": "0000000006872ad3e21335c558d58629ad64dec3c81e61b6076f03ad15e5b68e",
  "nextblockhash": "00000000fef95465d28938fbc6ef34029bc5e049a7b45344b5705c3790c645ff",
  "strippedsize": 216,
  "size": 216,
  "weight": 864,
  "tx": [
    {
      "txid": "7ca4e6342ad85e1d676b6b322c35903a08d950a0fcd4ef1dc9885147c5ae2dc6",
      "hash": "7ca4e6342ad85e1d676b6b322c35903a08d950a0fcd4ef1dc9885147c5ae2dc6",
      "version": 1,
      "size": 135,
      "vsize": 135,
      "weight": 540,
      "locktime": 0,
      "vin": [
        {
          "coinbase": "04ffff001d02ac08",
          "sequence": 4294967295
        }
      ],
      "vout": [
        {
          "value": 50.0,
          "n": 0,
          "scriptPubKey": {
            "asm": "0494d7b37bf48d00c7e3db0159239d488c798c1d65a082a70180d8f75be64a20a969eefff85dc539b59ea959f17c619b2434f9112d85e8266f8af1498241731907 OP_CHECKSIG",
            "desc": "pk(0494d7b37bf48d00c7e3db0159239d488c798c1d65a082a70180d8f75be64a20a969eefff85dc539b59ea959f17c619b2434f9112d85e8266f8af1498241731907)#x6fw2g8q",
            "hex": "410494d7b37bf48d00c7e3db0159239d488c798c1d65a082a70180d8f75be64a20a969eefff85dc539b59ea959f17c619b2434f9112d85e8266f8af1498241731907ac",
            "type": "pubkey"
          }
        }
      ],
      "hex": "01000000010000000000000000000000000000000000000000000000000000000000000000ffffffff0804ffff001d02ac08ffffffff0100f2052a0100000043410494d7b37bf48d00c7e3db0159239d488c798c1d65a082a70180d8f75be64a20a969eefff85dc539b59ea959f17c619b2434f9112d85e8266f8af1498241731907ac00000000"
    }
  ]
}