{
  "hash": "0000000063f2a8df3250c9ed3a88b3dd03c156a7de74219a3fca969d04dce318",
  "confirmations": 48184,
  "height": 4914,
  "version": 1,
  "versionHex": "00000001",
  "merkleroot": "da79e2043da6b91ec0910a20098a8367bb6ad4f20386a0605502144c5c998636",
  "time": 1235080489,
  "mediantime": 1235076794,
  "nonce": 3385337095,
  "bits": "1d00ffff",
  "difficulty": 1,
  "chainwork": "0000000000000000000000000000000000000000000000000000133313331333",
  "nTx": 1,
  "previousblockhash": "00000000eb2c876cc1125d31010538ed611330bfca9933912979976590d9fe8a",
  "nextblockhash": "0000000067c381ab839b6af5e3107e0b268fe07cd689ff6dc83214e5d310f714",
  "strippedsize": 216,
  "size": 216,
  "weight": 864,
  "tx": [
    {
      "txid": "da79e2043da6b91ec0910a20098a8367bb6ad4f20386a0605502144c5c998636",
      "hash": "da79e2043da6b91ec0910a20098a8367bb6ad4f20386a0605502144c5c998636",
      "version": 1,
      "size": 135,
      "vsize": 135,
      "weight": 540,
      "locktime": 0,
      "vin": [
        {
          "coinbase": "04ffff001d02d205",
          "sequence": 4294967295
        }
      ],
      "vout": [
        {
          "value": 50.0,
          "n": 0,
          "scriptPubKey": {
            "asm": "04718f95921eb9ef306ff5c59e39a2c285ec525eec8eb6ee3a495976d704b8f435c490f739e5edc3fa4f844cc32275fc28a1088aca2113e517e39369fa7d06badb OP_CHECKSIG",
            "desc": "pk(04718f95921eb9ef306ff5c59e39a2c285ec525eec8eb6ee3a495976d704b8f435c490f739e5edc3fa4f844cc32275fc28a1088aca2113e517e39369fa7d06badb)#pjnkc8c9",
            "hex": "4104718f95921eb9ef306ff5c59e39a2c285ec525eec8eb6ee3a495976d704b8f435c490f739e5edc3fa4f844cc32275fc28a1088aca2113e517e39369fa7d06badbac",
            "type": "pubkey"
          }
        }
      ],
      "hex": "01000000010000000000000000000000000000000000000000000000000000000000000000ffffffff0804ffff001d02d205ffffffff0100f2052a01000000434104718f95921eb9ef306ff5c59e39a2c285ec525eec8eb6ee3a495976d704b8f435c490f739e5edc3fa4f844cc32275fc28a1088aca2113e517e39369fa7d06badbac00000000"
    }
  ]
}