{
  "hash": "00000000d9f631023b59f4abca4fbe5802ec6100b04520687ae9b215c007e934",
  "confirmations": 52346,
  "height": 752,
  "version": 1,
  "versionHex": "00000001",
  "merkleroot": "52b9d1bd1bda273869d0442d41b3244d45ef7f0a386b313dd56debf9485cb1fa",
  "time": 1232153225,
  "mediantime": 1232150041,
  "nonce": 53645287,
  "bits": "1d00ffff",
  "difficulty": 1,
  "chainwork": "000000000000000000000000000000000000000000000000000002f102f102f1",
  "nTx": 1,
  "previousblockhash": "000000004670c45a768b79470e72978d3e265d632334e0a3e79ec13fa866b425",
  "nextblockhash": "0000000017a3a3cbc16f12113fe4d2c3f315967767edf9d3dfea7126b10a9589",
  "strippedsize": 215,
  "size": 215,
  "weight": 860,
  "tx": [
    {
      "txid": "52b9d1bd1bda273869d0442d41b3244d45ef7f0a386b313dd56debf9485cb1fa",
      "hash": "52b9d1bd1bda273869d0442d41b3244d45ef7f0a386b313dd56debf9485cb1fa",
      "version": 1,
      "size": 134,
      "vsize": 134,
      "weight": 536,
      "locktime": 0,
      "vin": [
        {
          "coinbase": "04ffff001d017c",
          "sequence": 4294967295
        }
      ],
      "vout": [
        {
          "value": 50.0,
          "n": 0,
          "scriptPubKey": {
            "asm": "0454ac15433cb450c1fda371704f6e79b93a1a4275aed433dce467ba1c2260f8a5016d3d10715a2dcb66aad603c7659a8a880c11a8dffed329c3fe9b3661644121 OP_CHECKSIG",
            "desc": "pk(0454ac15433cb450c1fda371704f6e79b93a1a4275aed433dce467ba1c2260f8a5016d3d10715a2dcb66aad603c7659a8a880c11a8dffed329c3fe9b3661644121)#4xg6625g",
            "hex": "410454ac15433cb450c1fda371704f6e79b93a1a4275aed433dce467ba1c2260f8a5016d3d10715a2dcb66aad603c7659a8a880c11a8dffed329c3fe9b3661644121ac",
            "type": "pubkey"
          }
        }
      ],
      "hex": "01000000010000000000000000000000000000000000000000000000000000000000000000ffffffff0704ffff001d017cffffffff0100f2052a0100000043410454ac15433cb450c1fda371704f6e79b93a1a4275aed433dce467ba1c2260f8a5016d3d10715a2dcb66aad603c7659a8a880c11a8dffed329c3fe9b3661644121ac00000000"
    }
  ]
}