{
  "hash": "000000006d9d200789fb91267030be9b46ba351f28090f1c0693fed96be15467",
  "confirmations": 52052,
  "height": 284,
  "version": 1,
  "versionHex": "00000001",
  "merkleroot": "1d282d062f4f90a2663d274c818ad6068d63ae7a13c98bfb79c93207424924e0",
  "time": 1231820141,
  "mediantime": 1231816169,
  "nonce": 3319176505,
  "bits": "1d00ffff",
  "difficulty": 1,
  "chainwork": "0000000000000000000000000000000000000000000000000000011d011d011d",
  "nTx": 1,
  "previousblockhash": "000000001a6017f168bfbe3ef01807bec73ce61a72216d90381871e56bbcb386",
  "nextblockhash": "00000000afa4394f2bb4ee92d55fa857f7ade86c79257a89c33dba8c4a04006b",
  "strippedsize": 215,
  "size": 215,
  "weight": 860,
  "tx": [
    {
      "txid": "1d282d062f4f90a2663d274c818ad6068d63ae7a13c98bfb79c93207424924e0",
      "hash": "1d282d062f4f90a2663d274c818ad6068d63ae7a13c98bfb79c93207424924e0",
      "version": 1,
      "size": 134,
      "vsize": 134,
      "weight": 536,
      "locktime": 0,
      "vin": [
        {
          "coinbase": "04ffff001d011c",
          "sequence": 4294967295
        }
      ],
      "vout": [
        {
          "value": 50.0,
          "n": 0,
          "scriptPubKey": {
            "asm": "04c6007c5f5a5c02100095ed312d23a3216a944ecff81a626b8189c355e1ce1b7d744eece3d0041610103662a750f4fac3b2c3427c8566d673d419d21990c3ddb3 OP_CHECKSIG",
            "desc": "pk(04c6007c5f5a5c02100095ed312d23a3216a944ecff81a626b8189c355e1ce1b7d744eece3d0041610103662a750f4fac3b2c3427c8566d673d419d21990c3ddb3)#p7zp839k",
            "hex": "4104c6007c5f5a5c02100095ed312d23a3216a944ecff81a626b8189c355e1ce1b7d744eece3d0041610103662a750f4fac3b2c3427c8566d673d419d21990c3ddb3ac",
            "type": "pubkey"
          }
        }
      ],
      "hex": "01000000010000000000000000000000000000000000000000000000000000000000000000ffffffff0704ffff001d011cffffffff0100f2052a01000000434104c6007c5f5a5c02100095ed312d23a3216a944ecff81a626b8189c355e1ce1b7d744eece3d0041610103662a750f4fac3b2c3427c8566d673d419d21990c3ddb3ac00000000"
    }
  ]
}