{
  "hash": "00000000559e947f8b14b23a3270fd3c222164b797d90269dfc2efe59e7d5183",
  "confirmations": 43582,
  "height": 9516,
  "version": 1,
  "versionHex": "00000001",
  "merkleroot": "d8a6a8fe9b457795666eaada84d6ff830e3970407ae4c28ab14c1616a6d7dbe4",
  "time": 1238638939,
  "mediantime": 1238636508,
  "nonce": 132537922,
  "bits": "1d00ffff",
  "difficulty": 1,
  "chainwork": "0000000000000000000000000000000000000000000000000000252d252d252d",
  "nTx": 1,
  "previousblockhash": "000000008c8d5c9265bc740fc8f539797332b9c2d19bab4e9b215a9a0a9d2e95",
  "nextblockhash": "000000003035b7da49f22c5a5356017cc50813dbb2b6c90f0a1544bebcbeb50a",
  "strippedsize": 215,
  "size": 215,
  "weight": 860,
  "tx": [
    {
      "txid": "d8a6a8fe9b457795666eaada84d6ff830e3970407ae4c28ab14c1616a6d7dbe4",
      "hash": "d8a6a8fe9b457795666eaada84d6ff830e3970407ae4c28ab14c1616a6d7dbe4",
      "version": 1,
      "size": 134,
      "vsize": 134,
      "weight": 536,
      "locktime": 0,
      "vin": [
        {
          "coinbase": "04ffff001d0128",
          "sequence": 4294967295
        }
      ],
      "vout": [
        {
          "value": 50.0,
          "n": 0,
          "scriptPubKey": {
            "asm": "04450d49d5f1322752ea2c71db33e0d04a716ef2fc85105bce8b5c8a4af9fe0190456e4d758633585bb7eafeddd700731d93d795178a7301500fe94734f3ad010c OP_CHECKSIG",
            "desc": "pk(04450d49d5f1322752ea2c71db33e0d04a716ef2fc85105bce8b5c8a4af9fe0190456e4d758633585bb7eafeddd700731d93d795178a7301500fe94734f3ad010c)#vcsxkpay",
            "hex": "4104450d49d5f1322752ea2c71db33e0d04a716ef2fc85105bce8b5c8a4af9fe0190456e4d758633585bb7eafeddd700731d93d795178a7301500fe94734f3ad010cac",
            "type": "pubkey"
          }
        }
      ],
      "hex": "01000000010000000000000000000000000000000000000000000000000000000000000000ffffffff0704ffff001d0128ffffffff0100f2052a01000000434104450d49d5f1322752ea2c71db33e0d04a716ef2fc85105bce8b5c8a4af9fe0190456e4d758633585bb7eafeddd700731d93d795178a7301500fe94734f3ad010cac00000000"
    }
  ]
}