{
  "hash": "00000000e5cdfab0cf62ba3edeab7dc0974ffcc6c61c18941cbe789d01af0f81",
  "confirmations": 43144,
  "height": 9954,
  "version": 1,
  "versionHex": "00000001",
  "merkleroot": "205038eafde6ac45d2b1eea9906b250cf476c1443443cecac3f47d7c625330ee",
  "time": 1238959215,
  "mediantime": 1238955328,
  "nonce": 84908894,
  "bits": "1d00ffff",
  "difficulty": 1,
  "chainwork": "000000000000000000000000000000000000000000000000000026e326e326e3",
  "nTx": 1,
  "previousblockhash": "00000000dd0a273c4e4bd3ce37ca77b0f1da36422d87d4df102f6e37be20ba29",
  "nextblockhash": "0000000037b21af94934e3eb53ab6c47baecfc384ffc478e277d624cc5381b8e",
  "strippedsize": 216,
  "size": 216,
  "weight": 864,
  "tx": [
    {
      "txid": "205038eafde6ac45d2b1eea9906b250cf476c1443443cecac3f47d7c625330ee",
      "hash": "205038eafde6ac45d2b1eea9906b250cf476c1443443cecac3f47d7c625330ee",
      "version": 1,
      "size": 135,
      "vsize": 135,
      "weight": 540,
      "locktime": 0,
      "vin": [
        {
          "coinbase": "04ffff001d023f01",
          "sequence": 4294967295
        }
      ],
      "vout": [
        {
          "value": 50.0,
          "n": 0,
          "scriptPubKey": {
            "asm": "04da973bea02d90c8090f6a8dc01ca248e71d2f4e72287d55533f7689d8ec87cf4d955c295635919fabf047157bef98df54e3adb8b9e55ae505d83649b9608563d OP_CHECKSIG",
            "desc": "pk(04da973bea02d90c8090f6a8dc01ca248e71d2f4e72287d55533f7689d8ec87cf4d955c295635919fabf047157bef98df54e3adb8b9e55ae505d83649b9608563d)#2q4lfvjr",
            "hex": "4104da973bea02d90c8090f6a8dc01ca248e71d2f4e72287d55533f7689d8ec87cf4d955c295635919fabf047157bef98df54e3adb8b9e55ae505d83649b9608563dac",
            "type": "pubkey"
          }
        }
      ],
      "hex": "01000000010000000000000000000000000000000000000000000000000000000000000000ffffffff0804ffff001d023f01ffffffff0100f2052a01000000434104da973bea02d90c8090f6a8dc01ca248e71d2f4e72287d55533f7689d8ec87cf4d955c295635919fabf047157bef98df54e3adb8b9e55ae505d83649b9608563dac00000000"
    }
  ]
}