{
  "hash": "00000000fd3de7aa3b66fde40c2261012c2a58d148485f7de5858e56cddfbad9",
  "confirmations": 46475,
  "height": 6623,
  "version": 1,
  "versionHex": "00000001",
  "merkleroot": "4632d9e7f22b0f78f7812266e26a0f83a9657c36c43f787b4d5549a3687c379e",
  "time": 1236420422,
  "mediantime": 1236417488,
  "nonce": 16659022,
  "bits": "1d00ffff",
  "difficulty": 1,
  "chainwork": "000000000000000000000000000000000000000000000000000019e019e019e0",
  "nTx": 1,
  "previousblockhash": "00000000ecfde649a703099b196b7701ba0bf15736cd00ed21cef9d9cc59a940",
  "nextblockhash": "00000000076faca5464a20cfcc56d95d5315e009f077b0671ed83d9481a71801",
  "strippedsize": 216,
  "size": 216,
  "weight": 864,
  "tx": [
    {
      "txid": "4632d9e7f22b0f78f7812266e26a0f83a9657c36c43f787b4d5549a3687c379e",
      "hash": "4632d9e7f22b0f78f7812266e26a0f83a9657c36c43f787b4d5549a3687c379e",
      "version": 1,
      "size": 135,
      "vsize": 135,
      "weight": 540,
      "locktime": 0,
      "vin": [
        {
          "coinbase": "04ffff001d02a300",
          "sequence": 4294967295
        }
      ],
      "vout": [
        {
          "value": 50.0,
          "n": 0,
          "scriptPubKey": {
            "asm": "044ef6ef1251f281b09d1ed3b47011ba25ffeaf9cc93f3aac4d28cfaa175e7b701aa20162f7ff12f2ba451c63eb5e3087a27521177b642f889b42f72c872468544 OP_CHECKSIG",
            "desc": "pk(044ef6ef1251f281b09d1ed3b47011ba25ffeaf9cc93f3aac4d28cfaa175e7b701aa20162f7ff12f2ba451c63eb5e3087a27521177b642f889b42f72c872468544)#u0mmukvy",
            "hex": "41044ef6ef1251f281b09d1ed3b47011ba25ffeaf9cc93f3aac4d28cfaa175e7b701aa20162f7ff12f2ba451c63eb5e3087a27521177b642f889b42f72c872468544ac",
            "type": "pubkey"
          }
        }
      ],
      "hex": "01000000010000000000000000000000000000000000000000000000000000000000000000ffffffff0804ffff001d02a300ffffffff0100f2052a010000004341044ef6ef1251f281b09d1ed3b47011ba25ffeaf9cc93f3aac4d28cfaa175e7b701aa20162f7ff12f2ba451c63eb5e3087a27521177b642f889b42f72c872468544ac00000000"
    }
  ]
}