{
  "hash": "00000000546ca3b52352d22a6934dcefdcaa38a9015614bd8fc30d5d4116d8ed",
  "confirmations": 45290,
  "height": 7808,
  "version": 1,
  "versionHex": "00000001",
  "merkleroot": "ce0e31af6274093623a64c53ea32686825b0397c9d9dde26d91f5f90b2474e3f",
  "time": 1237318927,
  "mediantime": 1237315696,
  "nonce": 898626097,
  "bits": "1d00ffff",
  "difficulty": 1,
  "chainwork": "00000000000000000000000000000000000000000000000000001e811e811e81",
  "nTx": 1,
  "previousblockhash": "00000000bc374f968c7c3ce479b9c4fa7badd7031f080c2b28ea2974678d254f",
  "nextblockhash": "000000000f665c18488be2c827809300097b0e457df4319d7b3b1f8e1e2a43d7",
  "strippedsize": 216,
  "size": 216,
  "weight": 864,
  "tx": [
    {
      "txid": "ce0e31af6274093623a64c53ea32686825b0397c9d9dde26d91f5f90b2474e3f",
      "hash": "ce0e31af6274093623a64c53ea32686825b0397c9d9dde26d91f5f90b2474e3f",
      "version": 1,
      "size": 135,
      "vsize": 135,
      "weight": 540,
      "locktime": 0,
      "vin": [
        {
          "coinbase": "04ffff001d020606",
          "sequence": 4294967295
        }
      ],
      "vout": [
        {
          "value": 50.0,
          "n": 0,
          "scriptPubKey": {
            "asm": "043fa9c681642f49edeea5dbb939f002d59f59e2c52de54eb6323222ba6758d9cc55007d4d2a54af8c2322a83ff9cd924a6ee6cff7000ce15f31e9cd85e38d6c68 OP_CHECKSIG",
            "desc": "pk(043fa9c681642f49edeea5dbb939f002d59f59e2c52de54eb6323222ba6758d9cc55007d4d2a54af8c2322a83ff9cd924a6ee6cff7000ce15f31e9cd85e38d6c68)#ar4g6td2",
            "hex": "41043fa9c681642f49edeea5dbb939f002d59f59e2c52de54eb6323222ba6758d9cc55007d4d2a54af8c2322a83ff9cd924a6ee6cff7000ce15f31e9cd85e38d6c68ac",
            "type": "pubkey"
          }
        }
      ],
      "hex": "01000000010000000000000000000000000000000000000000000000000000000000000000ffffffff0804ffff001d020606ffffffff0100f2052a010000004341043fa9c681642f49edeea5dbb939f002d59f59e2c52de54eb6323222ba6758d9cc55007d4d2a54af8c2322a83ff9cd924a6ee6cff7000ce15f31e9cd85e38d6c68ac00000000"
    }
  ]
}