{
  "hash": "00000000d88851f4dedcff7b938afedb0de4723f32ccb96b0222bdf4b8e057a9",
  "confirmations": 43397,
  "height": 9701,
  "version": 1,
  "versionHex": "00000001",
  "merkleroot": "bb051c1e9589a1d04523ae0a1eb1f69992b3fa265fb02b9e2860d2936442f42d",
  "time": 1238778097,
  "mediantime": 1238774221,
  "nonce": 56655828,
  "bits": "1d00ffff",
  "difficulty": 1,
  "chainwork": "000000000000000000000000000000000000000000000000000025e625e625e6",
  "nTx": 1,
  "previousblockhash": "00000000e9e87b0295fc0b953f70dd7a4cf96b2f44b02a92f5673065d92336d6",
  "nextblockhash": "000000005c11d302080373491238d82117b63ba1e2a5d5f2934b8d1b0c8ff89f",
  "strippedsize": 216,
  "size": 216,
  "weight": 864,
  "tx": [
    {
      "txid": "bb051c1e9589a1d04523ae0a1eb1f69992b3fa265fb02b9e2860d2936442f42d",
      "hash": "bb051c1e9589a1d04523ae0a1eb1f69992b3fa265fb02b9e2860d2936442f42d",
      "version": 1,
      "size": 135,
      "vsize": 135,
      "weight": 540,
      "locktime": 0,
      "vin": [
        {
          "coinbase": "04ffff001d02ba00",
          "sequence": 4294967295
        }
      ],
      "vout": [
        {
          "value": 50.0,
          "n": 0,
          "scriptPubKey": {
            "asm": "042e149c016f27f0988e942dc2e4fa02967294e32129acd1baba269d4a4ad4c9784d3f335f6269996c32dade5620c4532f1642a5e3bf94f52c07b69b99bb01803c OP_CHECKSIG",
            "desc": "pk(042e149c016f27f0988e942dc2e4fa02967294e32129acd1baba269d4a4ad4c9784d3f335f6269996c32dade5620c4532f1642a5e3bf94f52c07b69b99bb01803c)#6hnm2lsj",
            "hex": "41042e149c016f27f0988e942dc2e4fa02967294e32129acd1baba269d4a4ad4c9784d3f335f6269996c32dade5620c4532f1642a5e3bf94f52c07b69b99bb01803cac",
            "type": "pubkey"
          }
        }
      ],
      "hex": "01000000010000000000000000000000000000000000000000000000000000000000000000ffffffff0804ffff001d02ba00ffffffff0100f2052a010000004341042e149c016f27f0988e942dc2e4fa02967294e32129acd1baba269d4a4ad4c9784d3f335f6269996c32dade5620c4532f1642a5e3bf94f52c07b69b99bb01803cac00000000"
    }
  ]
}