{
  "hash": "00000000ca826763c172f28976c008fcf73f4f2cbac96335d49918162cf3b018",
  "confirmations": 52157,
  "height": 379,
  "version": 1,
  "versionHex": "00000001",
  "merkleroot": "f1b82a8d9b758c3434391b89dfe44b1606a755ec2744d1570beee37efc7fe509",
  "time": 1231886424,
  "mediantime": 1231881668,
  "nonce": 487092519,
  "bits": "1d00ffff",
  "difficulty": 1,
  "chainwork": "0000000000000000000000000000000000000000000000000000017c017c017c",
  "nTx": 1,
  "previousblockhash": "000000002ad17ed06d467923d29348ee3692c53f24858236818e68820de26ce6",
  "nextblockhash": "000000005c619c5a51f6bfeea9029520d1e05befb6129795e9cb122efd8f4dc8",
  "strippedsize": 216,
  "size": 216,
  "weight": 864,
  "tx": [
    {
      "txid": "f1b82a8d9b758c3434391b89dfe44b1606a755ec2744d1570beee37efc7fe509",
      "hash": "f1b82a8d9b758c3434391b89dfe44b1606a755ec2744d1570beee37efc7fe509",
      "version": 1,
      "size": 135,
      "vsize": 135,
      "weight": 540,
      "locktime": 0,
      "vin": [
        {
          "coinbase": "04ffff001d020c02",
          "sequence": 4294967295
        }
      ],
      "vout": [
        {
          "value": 50.0,
          "n": 0,
          "scriptPubKey": {
            "asm": "045aa2dd755bf1b0298911925bfb4bc08a179fa91962024d2572ea0e3d24de5f36e8c42cfff5b7665f83cfefffabd35ce5b40945ab9ced50e37e557b4a5aea7580 OP_CHECKSIG",
            "desc": "pk(045aa2dd755bf1b0298911925bfb4bc08a179fa91962024d2572ea0e3d24de5f36e8c42cfff5b7665f83cfefffabd35ce5b40945ab9ced50e37e557b4a5aea7580)#z86s9wem",
            "hex": "41045aa2dd755bf1b0298911925bfb4bc08a179fa91962024d2572ea0e3d24de5f36e8c42cfff5b7665f83cfefffabd35ce5b40945ab9ced50e37e557b4a5aea7580ac",
            "type": "pubkey"
          }
        }
      ],
      "hex": "01000000010000000000000000000000000000000000000000000000000000000000000000ffffffff0804ffff001d020c02ffffffff0100f2052a010000004341045aa2dd755bf1b0298911925bfb4bc08a179fa91962024d2572ea0e3d24de5f36e8c42cfff5b7665f83cfefffabd35ce5b40945ab9ced50e37e557b4a5aea7580ac00000000"
    }
  ]
}