{
  "hash": "00000000f9a7fb76941fc0b58cf4d6ad27e37e6e1dda460eabcec536df7bcaaa",
  "confirmations": 45516,
  "height": 7582,
  "version": 1,
  "versionHex": "00000001",
  "merkleroot": "775aa0b7594d1e67ab5c30d40033d87468b7d9b3d8245c4b0ca462b86dfff9c0",
  "time": 1237154724,
  "mediantime": 1237152012,
  "nonce": 55154921,
  "bits": "1d00ffff",
  "difficulty": 1,
  "chainwork": "00000000000000000000000000000000000000000000000000001d9f1d9f1d9f",
  "nTx": 1,
  "previousblockhash": "0000000035c2f89067fbf0e092d87b3dcc259898471b07056faaf69d2222e915",
  "nextblockhash": "00000000a3d6ab01bcc82ebef71d85bb9e56788f7ccbb6478ebbd76d477e1f6e",
  "strippedsize": 216,
  "size": 216,
  "weight": 864,
  "tx": [
    {
      "txid": "775aa0b7594d1e67ab5c30d40033d87468b7d9b3d8245c4b0ca462b86dfff9c0",
      "hash": "775aa0b7594d1e67ab5c30d40033d87468b7d9b3d8245c4b0ca462b86dfff9c0",
      "version": 1,
      "size": 135,
      "vsize": 135,
      "weight": 540,
      "locktime": 0,
      "vin": [
        {
          "coinbase": "04ffff001d021102",
          "sequence": 4294967295
        }
      ],
      "vout": [
        {
          "value": 50.0,
          "n": 0,
          "scriptPubKey": {
            "asm": "047a2068d962f91e6f39a697f9b83e415a5008acfc1d0ae180285f7e24040985be2e91842d1eed1575662511bfceb0c73b00e1ea319fe5ebf7366bfdc8254fd7ef OP_CHECKSIG",
            "desc": "pk(047a2068d962f91e6f39a697f9b83e415a5008acfc1d0ae180285f7e24040985be2e91842d1eed1575662511bfceb0c73b00e1ea319fe5ebf7366bfdc8254fd7ef)#hchc45fy",
            "hex": "41047a2068d962f91e6f39a697f9b83e415a5008acfc1d0ae180285f7e24040985be2e91842d1eed1575662511bfceb0c73b00e1ea319fe5ebf7366bfdc8254fd7efac",
            "type": "pubkey"
          }
        }
      ],
      "hex": "01000000010000000000000000000000000000000000000000000000000000000000000000ffffffff0804ffff001d021102ffffffff0100f2052a010000004341047a2068d962f91e6f39a697f9b83e415a5008acfc1d0ae180285f7e24040985be2e91842d1eed1575662511bfceb0c73b00e1ea319fe5ebf7366bfdc8254fd7efac00000000"
    }
  ]
}