{
  "hash": "00000000ed6073468988f71c78808ce5ad2a0f5f0c648681478e4dcec6032b29",
  "confirmations": 46065,
  "height": 7033,
  "version": 1,
  "versionHex": "00000001",
  "merkleroot": "da8c90c2ec04284cccb5e9a07e88ea9413a74d2961b8e8217883efb8ad5547cf",
  "time": 1236743605,
  "mediantime": 1236739187,
  "nonce": 1921418522,
  "bits": "1d00ffff",
  "difficulty": 1,
  "chainwork": "00000000000000000000000000000000000000000000000000001b7a1b7a1b7a",
  "nTx": 1,
  "previousblockhash": "00000000ea5c1e26bc1d5c062b837f3f639477515b23b093e7ab0de78a718572",
  "nextblockhash": "00000000f38abfe1610549168b2b686005cd1a388a2f06f6fc779813baaa27a1",
  "strippedsize": 216,
  "size": 216,
  "weight": 864,
  "tx": [
    {
      "txid": "da8c90c2ec04284cccb5e9a07e88ea9413a74d2961b8e8217883efb8ad5547cf",
      "hash": "da8c90c2ec04284cccb5e9a07e88ea9413a74d2961b8e8217883efb8ad5547cf",
      "version": 1,
      "size": 135,
      "vsize": 135,
      "weight": 540,
      "locktime": 0,
      "vin": [
        {
          "coinbase": "04ffff001d02e502",
          "sequence": 4294967295
        }
      ],
      "vout": [
        {
          "value": 50.0,
          "n": 0,
          "scriptPubKey": {
            "asm": "04332c46b0a8864890e1448bd4a0eb1a12c1b89b264b4bd25772eef957bf114ee6e5d52c43fa6fcb4ee6df65f2f7dd682ed3029cc91bcdffe40c94eda69c160ffb OP_CHECKSIG",
            "desc": "pk(04332c46b0a8864890e1448bd4a0eb1a12c1b89b264b4bd25772eef957bf114ee6e5d52c43fa6fcb4ee6df65f2f7dd682ed3029cc91bcdffe40c94eda69c160ffb)#85mu224q",
            "hex": "4104332c46b0a8864890e1448bd4a0eb1a12c1b89b264b4bd25772eef957bf114ee6e5d52c43fa6fcb4ee6df65f2f7dd682ed3029cc91bcdffe40c94eda69c160ffbac",
            "type": "pubkey"
          }
        }
      ],
      "hex": "01000000010000000000000000000000000000000000000000000000000000000000000000ffffffff0804ffff001d02e502ffffffff0100f2052a01000000434104332c46b0a8864890e1448bd4a0eb1a12c1b89b264b4bd25772eef957bf114ee6e5d52c43fa6fcb4ee6df65f2f7dd682ed3029cc91bcdffe40c94eda69c160ffbac00000000"
    }
  ]
}