{
  "hash": "000000007912070eb7a6078158e549c6815f588dc2ad174a5f099edea2ef30b0",
  "confirmations": 52180,
  "height": 918,
  "version": 1,
  "versionHex": "00000001",
  "merkleroot": "ecefd83baf5b7958440b32917e289d77cc0aa645a8e9e0b3a6fe7d95312c10c9",
  "time": 1232290270,
  "mediantime": 1232286892,
  "nonce": 2727370782,
  "bits": "1d00ffff",
  "difficulty": 1,
  "chainwork": "0000000000000000000000000000000000000000000000000000039703970397",
  "nTx": 1,
  "previousblockhash": "0000000079fe2d3adf72263777b6b47778870f959fc9b3a4ba10be2ce320c734",
  "nextblockhash": "00000000442ee800dbf46277ed4665e6565f3db02c26ef4a8b08ab177c32dff4",
  "strippedsize": 216,
  "size": 216,
  "weight": 864,
  "tx": [
    {
      "txid": "ecefd83baf5b7958440b32917e289d77cc0aa645a8e9e0b3a6fe7d95312c10c9",
      "hash": "ecefd83baf5b7958440b32917e289d77cc0aa645a8e9e0b3a6fe7d95312c10c9",
      "version": 1,
      "size": 135,
      "vsize": 135,
      "weight": 540,
      "locktime": 0,
      "vin": [
        {
          "coinbase": "04ffff001d02e303",
          "sequence": 4294967295
        }
      ],
      "vout": [
        {
          "value": 50.0,
          "n": 0,
          "scriptPubKey": {
            "asm": "04e82fe07b1437ca2c6dbc5a0ca77eb6f30e109211b0e26d83559cf64777021acde033d14b6307da7405415d7c15fec35352ef14740e61607fbca42498a5941d86 OP_CHECKSIG",
            "desc": "pk(04e82fe07b1437ca2c6dbc5a0ca77eb6f30e109211b0e26d83559cf64777021acde033d14b6307da7405415d7c15fec35352ef14740e61607fbca42498a5941d86)#g4q8a4jm",
            "hex": "4104e82fe07b1437ca2c6dbc5a0ca77eb6f30e109211b0e26d83559cf64777021acde033d14b6307da7405415d7c15fec35352ef14740e61607fbca42498a5941d86ac",
            "type": "pubkey"
          }
        }
      ],
      "hex": "01000000010000000000000000000000000000000000000000000000000000000000000000ffffffff0804ffff001d02e303ffffffff0100f2052a01000000434104e82fe07b1437ca2c6dbc5a0ca77eb6f30e109211b0e26d83559cf64777021acde033d14b6307da7405415d7c15fec35352ef14740e61607fbca42498a5941d86ac00000000"
    }
  ]
}