{
  "hash": "0000000036b2f63a6f2e070dafbb6e47259d3ae00d4d2d0c7df4ec6a2271a7bc",
  "confirmations": 52042,
  "height": 294,
  "version": 1,
  "versionHex": "00000001",
  "merkleroot": "5fd9ffe4c3092162852b3befd8bf1115fc8d5f707d51dacde01e32f586a7ad07",
  "time": 1231828541,
  "mediantime": 1231824272,
  "nonce": 3967345439,
  "bits": "1d00ffff",
  "difficulty": 1,
  "chainwork": "0000000000000000000000000000000000000000000000000000012701270127",
  "nTx": 1,
  "previousblockhash": "000000008f106f9bbd4d9d5dd412e4aeab83203d10a4125d03ec60bbad295c21",
  "nextblockhash": "0000000038b1083b5e97f9fe1d9b18f53bbebcd95dfe4025ae4ebced103a17ba",
  "strippedsize": 215,
  "size": 215,
  "weight": 860,
  "tx": [
    {
      "txid": "5fd9ffe4c3092162852b3befd8bf1115fc8d5f707d51dacde01e32f586a7ad07",
      "hash": "5fd9ffe4c3092162852b3befd8bf1115fc8d5f707d51dacde01e32f586a7ad07",
      "version": 1,
      "size": 134,
      "vsize": 134,
      "weight": 536,
      "locktime": 0,
      "vin": [
        {
          "coinbase": "04ffff001d015a",
          "sequence": 4294967295
        }
      ],
      "vout": [
        {
          "value": 50.0,
          "n": 0,
          "scriptPubKey": {
            "asm": "04076a602145c7223e8c3819a05b19d23bdb1e1fa405c3b344fd6669350955a8070593f084b872652db84c3553cbb4cdeee6e0eb48dcf44b37be02c1279e6149f5 OP_CHECKSIG",
            "desc": "pk(04076a602145c7223e8c3819a05b19d23bdb1e1fa405c3b344fd6669350955a8070593f084b872652db84c3553cbb4cdeee6e0eb48dcf44b37be02c1279e6149f5)#ge0cxfme",
            "hex": "4104076a602145c7223e8c3819a05b19d23bdb1e1fa405c3b344fd6669350955a8070593f084b872652db84c3553cbb4cdeee6e0eb48dcf44b37be02c1279e6149f5ac",
            "type": "pubkey"
          }
        }
      ],
      "hex": "01000000010000000000000000000000000000000000000000000000000000000000000000ffffffff0704ffff001d015affffffff0100f2052a01000000434104076a602145c7223e8c3819a05b19d23bdb1e1fa405c3b344fd6669350955a8070593f084b872652db84c3553cbb4cdeee6e0eb48dcf44b37be02c1279e6149f5ac00000000"
    }
  ]
}