{
  "hash": "00000000056f2cc01f0b67503e2eb48eb9c5e466c43f03ba376a7c7f88ce631d",
  "confirmations": 46655,
  "height": 6443,
  "version": 1,
  "versionHex": "00000001",
  "merkleroot": "57cc4a10655e997de2ee67678241162a69a9cb28c24a7a6a9126aeb8af6e595c",
  "time": 1236288323,
  "mediantime": 1236284217,
  "nonce": 53154911,
  "bits": "1d00ffff",
  "difficulty": 1,
  "chainwork": "0000000000000000000000000000000000000000000000000000192c192c192c",
  "nTx": 1,
  "previousblockhash": "00000000603dde813d493121c680778128448022453a8bd2df9babef2b2fa2c0",
  "nextblockhash": "000000008d590df3c8a35bc0f921c71b74f2e8a1ecd361fb892dd886d7c8b2ca",
  "strippedsize": 215,
  "size": 215,
  "weight": 860,
  "tx": [
    {
      "txid": "57cc4a10655e997de2ee67678241162a69a9cb28c24a7a6a9126aeb8af6e595c",
      "hash": "57cc4a10655e997de2ee67678241162a69a9cb28c24a7a6a9126aeb8af6e595c",
      "version": 1,
      "size": 134,
      "vsize": 134,
      "weight": 536,
      "locktime": 0,
      "vin": [
        {
          "coinbase": "04ffff001d0178",
          "sequence": 4294967295
        }
      ],
      "vout": [
        {
          "value": 50.0,
          "n": 0,
          "scriptPubKey": {
            "asm": "0446bbad6849fb16ef0dc79adacdc63dd2261fd85ee4ae31cd0fbde1a31c70ea23d9941b901386593d803917e22f62e5c686651d1cf7d3e3de3f521ae4f833813c OP_CHECKSIG",
            "desc": "pk(0446bbad6849fb16ef0dc79adacdc63dd2261fd85ee4ae31cd0fbde1a31c70ea23d9941b901386593d803917e22f62e5c686651d1cf7d3e3de3f521ae4f833813c)#50znv9as",
            "hex": "410446bbad6849fb16ef0dc79adacdc63dd2261fd85ee4ae31cd0fbde1a31c70ea23d9941b901386593d803917e22f62e5c686651d1cf7d3e3de3f521ae4f833813cac",
            "type": "pubkey"
          }
        }
      ],
      "hex": "01000000010000000000000000000000000000000000000000000000000000000000000000ffffffff0704ffff001d0178ffffffff0100f2052a0100000043410446bbad6849fb16ef0dc79adacdc63dd2261fd85ee4ae31cd0fbde1a31c70ea23d9941b901386593d803917e22f62e5c686651d1cf7d3e3de3f521ae4f833813cac00000000"
    }
  ]
}