{
  "hash": "000000001e3cfe8fa628a618ae5c2cc83ce0e4011b445a8464855e59fc8494b0",
  "confirmations": 44354,
  "height": 8744,
  "version": 1,
  "versionHex": "00000001",
  "merkleroot": "1502f8f12b22e61500d93bb432be55325bc71b665d7bf7ec11af93a5ba575b3e",
  "time": 1238055095,
  "mediantime": 1238051153,
  "nonce": 102567428,
  "bits": "1d00ffff",
  "difficulty": 1,
  "chainwork": "0000000000000000000000000000000000000000000000000000222922292229",
  "nTx": 1,
  "previousblockhash": "00000000dfe6854b409a89330f557a1ac28d7db8c789a1ebed5a3080219f9646",
  "nextblockhash": "0000000016e9346fefb7e09c9b7d7260e20341e1fb166a0d573f921e58d4c180",
  "strippedsize": 216,
  "size": 216,
  "weight": 864,
  "tx": [
    {
      "txid": "1502f8f12b22e61500d93bb432be55325bc71b665d7bf7ec11af93a5ba575b3e",
      "hash": "1502f8f12b22e61500d93bb432be55325bc71b665d7bf7ec11af93a5ba575b3e",
      "version": 1,
      "size": 135,
      "vsize": 135,
      "weight": 540,
      "locktime": 0,
      "vin": [
        {
          "coinbase": "04ffff001d02a501",
          "sequence": 4294967295
        }
      ],
      "vout": [
        {
          "value": 50.0,
          "n": 0,
          "scriptPubKey": {
            "asm": "041fb0b960ba0eb583092589073f94dbebeddb4bf8af20ff97e0626840986f0c6043eb0cb91510fb24d64761fce2e80cd1fced88df617d82832d6383533118cb7b OP_CHECKSIG",
            "desc": "pk(041fb0b960ba0eb583092589073f94dbebeddb4bf8af20ff97e0626840986f0c6043eb0cb91510fb24d64761fce2e80cd1fced88df617d82832d6383533118cb7b)#p0ay7zwx",
            "hex": "41041fb0b960ba0eb583092589073f94dbebeddb4bf8af20ff97e0626840986f0c6043eb0cb91510fb24d64761fce2e80cd1fced88df617d82832d6383533118cb7bac",
            "type": "pubkey"
          }
        }
      ],
      "hex": "01000000010000000000000000000000000000000000000000000000000000000000000000ffffffff0804ffff001d02a501ffffffff0100f2052a010000004341041fb0b960ba0eb583092589073f94dbebeddb4bf8af20ff97e0626840986f0c6043eb0cb91510fb24d64761fce2e80cd1fced88df617d82832d6383533118cb7bac00000000"
    }
  ]
}