{
  "hash": "00000000b4e043ef98354a46e30ee710758bd62af90a2b820548c752a23c212c",
  "confirmations": 43896,
  "height": 9202,
  "version": 1,
  "versionHex": "00000001",
  "merkleroot": "4facce58c14c387fc533f51015e8750873847df0491042d3b9a91bcc20f64545",
  "time": 1238400373,
  "mediantime": 1238396611,
  "nonce": 372439063,
  "bits": "1d00ffff",
  "difficulty": 1,
  "chainwork": "000000000000000000000000000000000000000000000000000023f323f323f3",
  "nTx": 1,
  "previousblockhash": "00000000365ea47381ee446a6a311955fec1dabfacb83a9ef57b8ff34b1ef6b0",
  "nextblockhash": "000000004b6ef9dddb39296ab3665db7d0c231addcc18e225d1bda2394375d9c",
  "strippedsize": 216,
  "size": 216,
  "weight": 864,
  "tx": [
    {
      "txid": "4facce58c14c387fc533f51015e8750873847df0491042d3b9a91bcc20f64545",
      "hash": "4facce58c14c387fc533f51015e8750873847df0491042d3b9a91bcc20f64545",
      "version": 1,
      "size": 135,
      "vsize": 135,
      "weight": 540,
      "locktime": 0,
      "vin": [
        {
          "coinbase": "04ffff001d022e0a",
          "sequence": 4294967295
        }
      ],
      "vout": [
        {
          "value": 50.0,
          "n": 0,
          "scriptPubKey": {
            "asm": "047fa585f65dcd2905255014e27df27e3dee7000efc1d688473670fd3598001cf76c62de53f7f2941defec20b3e94f635636052cdc66e8e2dbd0c3632c2b06484e OP_CHECKSIG",
            "desc": "pk(047fa585f65dcd2905255014e27df27e3dee7000efc1d688473670fd3598001cf76c62de53f7f2941defec20b3e94f635636052cdc66e8e2dbd0c3632c2b06484e)#zrtce2d4",
            "hex": "41047fa585f65dcd2905255014e27df27e3dee7000efc1d688473670fd3598001cf76c62de53f7f2941defec20b3e94f635636052cdc66e8e2dbd0c3632c2b06484eac",
            "type": "pubkey"
          }
        }
      ],
      "hex": "01000000010000000000000000000000000000000000000000000000000000000000000000ffffffff0804ffff001d022e0affffffff0100f2052a010000004341047fa585f65dcd2905255014e27df27e3dee7000efc1d688473670fd3598001cf76c62de53f7f2941defec20b3e94f635636052cdc66e8e2dbd0c3632c2b06484eac00000000"
    }
  ]
}