{
  "hash": "000000006171874a43a089008ad4dd754d2b9fe0d2340aadf5d2f6602453379f",
  "confirmations": 45998,
  "height": 7100,
  "version": 1,
  "versionHex": "00000001",
  "merkleroot": "3be0156dd59dcc4b52fd3f5ffe9ecee9e73063acb79c15f81d91c7f78c4c376a",
  "time": 1236797719,
  "mediantime": 1236795148,
  "nonce": 277505901,
  "bits": "1d00ffff",
  "difficulty": 1,
  "chainwork": "00000000000000000000000000000000000000000000000000001bbd1bbd1bbd",
  "nTx": 1,
  "previousblockhash": "00000000b6020287497023881010aaad4473c8d34f3287a813da392962a0ef44",
  "nextblockhash": "00000000875b49bf7241597cc91fce9cef41d74252f28d89caca66e6cb91c99c",
  "strippedsize": 216,
  "size": 216,
  "weight": 864,
  "tx": [
    {
      "txid": "3be0156dd59dcc4b52fd3f5ffe9ecee9e73063acb79c15f81d91c7f78c4c376a",
      "hash": "3be0156dd59dcc4b52fd3f5ffe9ecee9e73063acb79c15f81d91c7f78c4c376a",
      "version": 1,
      "size": 135,
      "vsize": 135,
      "weight": 540,
      "locktime": 0,
      "vin": [
        {
          "coinbase": "04ffff001d02830d",
          "sequence": 4294967295
        }
      ],
      "vout": [
        {
          "value": 50.0,
          "n": 0,
          "scriptPubKey": {
            "asm": "04a934ccc158a4b780f79122930317afaeedea5874eb2aacfcdcb6542f3c77db7a715c0d2f54abc0e296a0ed6be3a068935dfb3d655051ff47311ed33c3e5acb7a OP_CHECKSIG",
            "desc": "pk(04a934ccc158a4b780f79122930317afaeedea5874eb2aacfcdcb6542f3c77db7a715c0d2f54abc0e296a0ed6be3a068935dfb3d655051ff47311ed33c3e5acb7a)#dmp9lsgs",
            "hex": "4104a934ccc158a4b780f79122930317afaeedea5874eb2aacfcdcb6542f3c77db7a715c0d2f54abc0e296a0ed6be3a068935dfb3d655051ff47311ed33c3e5acb7aac",
            "type": "pubkey"
          }
        }
      ],
      "hex": "01000000010000000000000000000000000000000000000000000000000000000000000000ffffffff0804ffff001d02830dffffffff0100f2052a01000000434104a934ccc158a4b780f79122930317afaeedea5874eb2aacfcdcb6542f3c77db7a715c0d2f54abc0e296a0ed6be3a068935dfb3d655051ff47311ed33c3e5acb7aac00000000"
    }
  ]
}