{
  "hash": "00000000c4988f2fb9916040b2dfc5a1d4b348561f9e15f972fb4529041a91ed",
  "confirmations": 47947,
  "height": 5151,
  "version": 1,
  "versionHex": "00000001",
  "merkleroot": "224e5efdc7c71ecd21e8d6a304ecc6e9a14ad90728733e77c5b66782a19bd83b",
  "time": 1235254218,
  "mediantime": 1235249807,
  "nonce": 1488328725,
  "bits": "1d00ffff",
  "difficulty": 1,
  "chainwork": "0000000000000000000000000000000000000000000000000000142014201420",
  "nTx": 1,
  "previousblockhash": "00000000d359dd3280b18846242abe55db3ec6c60b04d70a0e6461592102bf41",
  "nextblockhash": "0000000071859718e3c473a5b8dce1feccaca2e18320ec34daa5dd8943c3cca3",
  "strippedsize": 216,
  "size": 216,
  "weight": 864,
  "tx": [
    {
      "txid": "224e5efdc7c71ecd21e8d6a304ecc6e9a14ad90728733e77c5b66782a19bd83b",
      "hash": "224e5efdc7c71ecd21e8d6a304ecc6e9a14ad90728733e77c5b66782a19bd83b",
      "version": 1,
      "size": 135,
      "vsize": 135,
      "weight": 540,
      "locktime": 0,
      "vin": [
        {
          "coinbase": "04ffff001d02e809",
          "sequence": 4294967295
        }
      ],
      "vout": [
        {
          "value": 50.0,
          "n": 0,
          "scriptPubKey": {
            "asm": "045920378a2ced6fd58ad2fe47925081b0ac2e10ce29dae4c270ee2c2b120291e11bb48d682e4de204eebf3e17d4615e17bfdca713206bc659eed368c1c2160822 OP_CHECKSIG",
            "desc": "pk(045920378a2ced6fd58ad2fe47925081b0ac2e10ce29dae4c270ee2c2b120291e11bb48d682e4de204eebf3e17d4615e17bfdca713206bc659eed368c1c2160822)#5q0uwvmx",
            "hex": "41045920378a2ced6fd58ad2fe47925081b0ac2e10ce29dae4c270ee2c2b120291e11bb48d682e4de204eebf3e17d4615e17bfdca713206bc659eed368c1c2160822ac",
            "type": "pubkey"
          }
        }
      ],
      "hex": "01000000010000000000000000000000000000000000000000000000000000000000000000ffffffff0804ffff001d02e809ffffffff0100f2052a010000004341045920378a2ced6fd58ad2fe47925081b0ac2e10ce29dae4c270ee2c2b120291e11bb48d682e4de204eebf3e17d4615e17bfdca713206bc659eed368c1c2160822ac00000000"
    }
  ]
}