{
  "hash": "00000000697c65060180ec39d4035e4a6740e78eded04c7f140e09832f91510a",
  "confirmations": 46269,
  "height": 6829,
  "version": 1,
  "versionHex": "00000001",
  "merkleroot": "63827242715e3b094c9d59a9cb24880da5ad1aff461ad561a0e440a269b2bbbe",
  "time": 1236578925,
  "mediantime": 1236575145,
  "nonce": 47577652,
  "bits": "1d00ffff",
  "difficulty": 1,
  "chainwork": "00000000000000000000000000000000000000000000000000001aae1aae1aae",
  "nTx": 1,
  "previousblockhash": "00000000398d96b2a00b99c6205f3f0e8c1a902405eac26ef11ba2436a8ceb65",
  "nextblockhash": "000000000fb6035db81d019f7ffbc2e6fdc308a2c9c428e62b8d90fd7d3ac2c3",
  "strippedsize": 216,
  "size": 216,
  "weight": 864,
  "tx": [
    {
      "txid": "63827242715e3b094c9d59a9cb24880da5ad1aff461ad561a0e440a269b2bbbe",
      "hash": "63827242715e3b094c9d59a9cb24880da5ad1aff461ad561a0e440a269b2bbbe",
      "version": 1,
      "size": 135,
      "vsize": 135,
      "weight": 540,
      "locktime": 0,
      "vin": [
        {
          "coinbase": "04ffff001d02790c",
          "sequence": 4294967295
        }
      ],
      "vout": [
        {
          "value": 50.0,
          "n": 0,
          "scriptPubKey": {
            "asm": "047c0ed2c10528d3a44704742a099cd3a157e74429fc9604db3bbaf0ae30a2cd262292372dd99df1a08f15735a20237be60de26405c5fdb9e49295980a2b006e56 OP_CHECKSIG",
            "desc": "pk(047c0ed2c10528d3a44704742a099cd3a157e74429fc9604db3bbaf0ae30a2cd262292372dd99df1a08f15735a20237be60de26405c5fdb9e49295980a2b006e56)#z8wu9tz5",
            "hex": "41047c0ed2c10528d3a44704742a099cd3a157e74429fc9604db3bbaf0ae30a2cd262292372dd99df1a08f15735a20237be60de26405c5fdb9e49295980a2b006e56ac",
            "type": "pubkey"
          }
        }
      ],
      "hex": "01000000010000000000000000000000000000000000000000000000000000000000000000ffffffff0804ffff001d02790cffffffff0100f2052a010000004341047c0ed2c10528d3a44704742a099cd3a157e74429fc9604db3bbaf0ae30a2cd262292372dd99df1a08f15735a20237be60de26405c5fdb9e49295980a2b006e56ac00000000"
    }
  ]
}