{
  "hash": "00000000305b43b45e877a84345d6ea17382b6087e1e5c3c7e3a280c2e24eb58",
  "confirmations": 44352,
  "height": 8746,
  "version": 1,
  "versionHex": "00000001",
  "merkleroot": "2d786739e88c40a799c270501d74058ba9329170a742054c5e18652dd9c72324",
  "time": 1238056755,
  "mediantime": 1238052356,
  "nonce": 2274578739,
  "bits": "1d00ffff",
  "difficulty": 1,
  "chainwork": "0000000000000000000000000000000000000000000000000000222b222b222b",
  "nTx": 1,
  "previousblockhash": "0000000016e9346fefb7e09c9b7d7260e20341e1fb166a0d573f921e58d4c180",
  "nextblockhash": "000000003c8c9523444786c2cace831aeacabb5d1302d20c68a5f6835b8aaf24",
  "strippedsize": 216,
  "size": 216,
  "weight": 864,
  "tx": [
    {
      "txid": "2d786739e88c40a799c270501d74058ba9329170a742054c5e18652dd9c72324",
      "hash": "2d786739e88c40a799c270501d74058ba9329170a742054c5e18652dd9c72324",
      "version": 1,
      "size": 135,
      "vsize": 135,
      "weight": 540,
      "locktime": 0,
      "vin": [
        {
          "coinbase": "04ffff001d02b401",
          "sequence": 4294967295
        }
      ],
      "vout": [
        {
          "value": 50.0,
          "n": 0,
          "scriptPubKey": {
            "asm": "047167d834e20437ecf3f288e69458fcd612ed0b5850066429bba7b82789efb6db6b14307e23e646e0184e478045b785c12fb420a02c9b2c5a35cc3a76f47233fb OP_CHECKSIG",
            "desc": "pk(047167d834e20437ecf3f288e69458fcd612ed0b5850066429bba7b82789efb6db6b14307e23e646e0184e478045b785c12fb420a02c9b2c5a35cc3a76f47233fb)#l4lxngj9",
            "hex": "41047167d834e20437ecf3f288e69458fcd612ed0b5850066429bba7b82789efb6db6b14307e23e646e0184e478045b785c12fb420a02c9b2c5a35cc3a76f47233fbac",
            "type": "pubkey"
          }
        }
      ],
      "hex": "01000000010000000000000000000000000000000000000000000000000000000000000000ffffffff0804ffff001d02b401ffffffff0100f2052a010000004341047167d834e20437ecf3f288e69458fcd612ed0b5850066429bba7b82789efb6db6b14307e23e646e0184e478045b785c12fb420a02c9b2c5a35cc3a76f47233fbac00000000"
    }
  ]
}