{
  "hash": "000000007f2da7d13ad58e8fcef5026c90b7c6cd9cdf31d74dfd296138e27eca",
  "confirmations": 46839,
  "height": 6259,
  "version": 1,
  "versionHex": "00000001",
  "merkleroot": "cbdba42fbfffd4d2d66032ab407d40dd90209339f89bc2d03e10ee1ba2bc0931",
  "time": 1236140341,
  "mediantime": 1236135322,
  "nonce": 4243686198,
  "bits": "1d00ffff",
  "difficulty": 1,
  "chainwork": "0000000000000000000000000000000000000000000000000000187418741874",
  "nTx": 1,
  "previousblockhash": "000000001978dacbef3f057db050b68d683ba1fb63bf8ee58556b136bc95d798",
  "nextblockhash": "0000000035d378f569eaac0e92e4a6133e4518dba47e4aaf3d86541a76c7c943",
  "strippedsize": 216,
  "size": 216,
  "weight": 864,
  "tx": [
    {
      "txid": "cbdba42fbfffd4d2d66032ab407d40dd90209339f89bc2d03e10ee1ba2bc0931",
      "hash": "cbdba42fbfffd4d2d66032ab407d40dd90209339f89bc2d03e10ee1ba2bc0931",
      "version": 1,
      "size": 135,
      "vsize": 135,
      "weight": 540,
      "locktime": 0,
      "vin": [
        {
          "coinbase": "04ffff001d02c109",
          "sequence": 4294967295
        }
      ],
      "vout": [
        {
          "value": 50.0,
          "n": 0,
          "scriptPubKey": {
            "asm": "040ef9267038f365e8de76db052f3aefce5a4f72b545a8aa8b6a4c95921b2560dfb5b0af75653a504ffca20adcafd7581e97266ada15f48ee066bbfbbbc295bc2d OP_CHECKSIG",
            "desc": "pk(040ef9267038f365e8de76db052f3aefce5a4f72b545a8aa8b6a4c95921b2560dfb5b0af75653a504ffca20adcafd7581e97266ada15f48ee066bbfbbbc295bc2d)#ya85pds8",
            "hex": "41040ef9267038f365e8de76db052f3aefce5a4f72b545a8aa8b6a4c95921b2560dfb5b0af75653a504ffca20adcafd7581e97266ada15f48ee066bbfbbbc295bc2dac",
            "type": "pubkey"
          }
        }
      ],
      "hex": "01000000010000000000000000000000000000000000000000000000000000000000000000ffffffff0804ffff001d02c109ffffffff0100f2052a010000004341040ef9267038f365e8de76db052f3aefce5a4f72b545a8aa8b6a4c95921b2560dfb5b0af75653a504ffca20adcafd7581e97266ada15f48ee066bbfbbbc295bc2dac00000000"
    }
  ]
}