{
  "hash": "00000000a62347cd09208a6683da1b735df581544384eecfdbcb4a0ba4f13488",
  "confirmations": 47934,
  "height": 5164,
  "version": 1,
  "versionHex": "00000001",
  "merkleroot": "b2b5a7caffc1195505ecf7cf22fdf915a4cc2164f50f03e582fa79dea212d33d",
  "time": 1235261651,
  "mediantime": 1235258951,
  "nonce": 2396069673,
  "bits": "1d00ffff",
  "difficulty": 1,
  "chainwork": "0000000000000000000000000000000000000000000000000000142d142d142d",
  "nTx": 1,
  "previousblockhash": "000000003dc1c00b7d364fbdaf620be15e6d6d9f2ef6129e9569075460902f10",
  "nextblockhash": "000000006758d578caf2ebb468e61e283078515e1a3814a230cfb9ac7c290b50",
  "strippedsize": 216,
  "size": 216,
  "weight": 864,
  "tx": [
    {
      "txid": "b2b5a7caffc1195505ecf7cf22fdf915a4cc2164f50f03e582fa79dea212d33d",
      "hash": "b2b5a7caffc1195505ecf7cf22fdf915a4cc2164f50f03e582fa79dea212d33d",
      "version": 1,
      "size": 135,
      "vsize": 135,
      "weight": 540,
      "locktime": 0,
      "vin": [
        {
          "coinbase": "04ffff001d022b0a",
          "sequence": 4294967295
        }
      ],
      "vout": [
        {
          "value": 50.0,
          "n": 0,
          "scriptPubKey": {
            "asm": "04e1bf63c1e1eb26559fea362e39b798e2bebf82e0d173b5a4a0e79de7118a514a5be2ed7d1c2ff404c13bf92ec6d562111534b3347cc3dad21ddc450511e38898 OP_CHECKSIG",
            "desc": "pk(04e1bf63c1e1eb26559fea362e39b798e2bebf82e0d173b5a4a0e79de7118a514a5be2ed7d1c2ff404c13bf92ec6d562111534b3347cc3dad21ddc450511e38898)#u7jkzt3s",
            "hex": "4104e1bf63c1e1eb26559fea362e39b798e2bebf82e0d173b5a4a0e79de7118a514a5be2ed7d1c2ff404c13bf92ec6d562111534b3347cc3dad21ddc450511e38898ac",
            "type": "pubkey"
          }
        }
      ],
      "hex": "01000000010000000000000000000000000000000000000000000000000000000000000000ffffffff0804ffff001d022b0affffffff0100f2052a01000000434104e1bf63c1e1eb26559fea362e39b798e2bebf82e0d173b5a4a0e79de7118a514a5be2ed7d1c2ff404c13bf92ec6d562111534b3347cc3dad21ddc450511e38898ac00000000"
    }
  ]
}