{
  "hash": "000000005bfebf4e532df90474212998115744a178075b3840a2e081f91a6a4b",
  "confirmations": 43185,
  "height": 9913,
  "version": 1,
  "versionHex": "00000001",
  "merkleroot": "fbf0a67d2f0a9b625e4190f8f6561cdfa8fc0a4d0f12fdc3f40b8b152b3c2439",
  "time": 1238930646,
  "mediantime": 1238927143,
  "nonce": 798915363,
  "bits": "1d00ffff",
  "difficulty": 1,
  "chainwork": "000000000000000000000000000000000000000000000000000026ba26ba26ba",
  "nTx": 1,
  "previousblockhash": "00000000004afd117272c0de5b1902b469d8375454cb52ec5b63fef4bf8ec20f",
  "nextblockhash": "000000001f193ff0460a64cd339f7c00e076dcfecffe434a55892540b3ab2b17",
  "strippedsize": 216,
  "size": 216,
  "weight": 864,
  "tx": [
    {
      "txid": "fbf0a67d2f0a9b625e4190f8f6561cdfa8fc0a4d0f12fdc3f40b8b152b3c2439",
      "hash": "fbf0a67d2f0a9b625e4190f8f6561cdfa8fc0a4d0f12fdc3f40b8b152b3c2439",
      "version": 1,
      "size": 135,
      "vsize": 135,
      "weight": 540,
      "locktime": 0,
      "vin": [
        {
          "coinbase": "04ffff001d024902",
          "sequence": 4294967295
        }
      ],
      "vout": [
        {
          "value": 50.0,
          "n": 0,
          "scriptPubKey": {
            "asm": "04e320496ca033c5b5bfb2adafb24e5c46a73c065b34e661562c8280d5205e3138be372a3ef490cad991a1e1f60796c5801ecc735a47a38733db65be13719e88a6 OP_CHECKSIG",
            "desc": "pk(04e320496ca033c5b5bfb2adafb24e5c46a73c065b34e661562c8280d5205e3138be372a3ef490cad991a1e1f60796c5801ecc735a47a38733db65be13719e88a6)#guxn0xa5",
            "hex": "4104e320496ca033c5b5bfb2adafb24e5c46a73c065b34e661562c8280d5205e3138be372a3ef490cad991a1e1f60796c5801ecc735a47a38733db65be13719e88a6ac",
            "type": "pubkey"
          }
        }
      ],
      "hex": "01000000010000000000000000000000000000000000000000000000000000000000000000ffffffff0804ffff001d024902ffffffff0100f2052a01000000434104e320496ca033c5b5bfb2adafb24e5c46a73c065b34e661562c8280d5205e3138be372a3ef490cad991a1e1f60796c5801ecc735a47a38733db65be13719e88a6ac00000000"
    }
  ]
}