{
  "hash": "00000000ad99090dce514a009fb4fe0dedb178027e7dc15eadf765d8f69dbe75",
  "confirmations": 51712,
  "height": 1386,
  "version": 1,
  "versionHex": "00000001",
  "merkleroot": "97003617682113fbebc5c9fd8676810f677068f95279d35bbd1ba373d12ce457",
  "time": 1232668740,
  "mediantime": 1232666501,
  "nonce": 2722780978,
  "bits": "1d00ffff",
  "difficulty": 1,
  "chainwork": "0000000000000000000000000000000000000000000000000000056b056b056b",
  "nTx": 1,
  "previousblockhash": "0000000020f954057fcc0743b5d1d09c5fc2d9a0bab4f26eba7444b809e4807a",
  "nextblockhash": "000000000f27ac42a928d933bd8686a8198d30c513e6bf37a8e40d623256c724",
  "strippedsize": 216,
  "size": 216,
  "weight": 864,
  "tx": [
    {
      "txid": "97003617682113fbebc5c9fd8676810f677068f95279d35bbd1ba373d12ce457",
      "hash": "97003617682113fbebc5c9fd8676810f677068f95279d35bbd1ba373d12ce457",
      "version": 1,
      "size": 135,
      "vsize": 135,
      "weight": 540,
      "locktime": 0,
      "vin": [
        {
          "coinbase": "04ffff001d02de01",
          "sequence": 4294967295
        }
      ],
      "vout": [
        {
          "value": 50.0,
          "n": 0,
          "scriptPubKey": {
            "asm": "04d3180d300c61df67dad07c27ab87c96c8e1ee61ad09db894a87c95e43a3a79eb60736665d7acb56cc67d269ab478bbc647641dabfb086620b29c7b6d4ee5f367 OP_CHECKSIG",
            "desc": "pk(04d3180d300c61df67dad07c27ab87c96c8e1ee61ad09db894a87c95e43a3a79eb60736665d7acb56cc67d269ab478bbc647641dabfb086620b29c7b6d4ee5f367)#cp0q456p",
            "hex": "4104d3180d300c61df67dad07c27ab87c96c8e1ee61ad09db894a87c95e43a3a79eb60736665d7acb56cc67d269ab478bbc647641dabfb086620b29c7b6d4ee5f367ac",
            "type": "pubkey"
          }
        }
      ],
      "hex": "01000000010000000000000000000000000000000000000000000000000000000000000000ffffffff0804ffff001d02de01ffffffff0100f2052a01000000434104d3180d300c61df67dad07c27ab87c96c8e1ee61ad09db894a87c95e43a3a79eb60736665d7acb56cc67d269ab478bbc647641dabfb086620b29c7b6d4ee5f367ac00000000"
    }
  ]
}