{
  "hash": "0000000084a35f342311098378bfa518f6d08533b855aea88a18fbbb8bf61033",
  "confirmations": 47687,
  "height": 5411,
  "version": 1,
  "versionHex": "00000001",
  "merkleroot": "827525c2e3152baca62dce0820722c3071b510781cea87db676947834e023c5b",
  "time": 1235447904,
  "mediantime": 1235444400,
  "nonce": 104391454,
  "bits": "1d00ffff",
  "difficulty": 1,
  "chainwork": "0000000000000000000000000000000000000000000000000000152415241524",
  "nTx": 1,
  "previousblockhash": "000000004e8bcc37893d2785c1929dd69cb7a03b2daded0ad0576385e1ce9705",
  "nextblockhash": "00000000853a0470dde4d2d61765f4a3925a8fa6df8d8651bd65484ad3c0b003",
  "strippedsize": 215,
  "size": 215,
  "weight": 860,
  "tx": [
    {
      "txid": "827525c2e3152baca62dce0820722c3071b510781cea87db676947834e023c5b",
      "hash": "827525c2e3152baca62dce0820722c3071b510781cea87db676947834e023c5b",
      "version": 1,
      "size": 134,
      "vsize": 134,
      "weight": 536,
      "locktime": 0,
      "vin": [
        {
          "coinbase": "04ffff001d0114",
          "sequence": 4294967295
        }
      ],
      "vout": [
        {
          "value": 50.0,
          "n": 0,
          "scriptPubKey": {
            "asm": "04642bc4956922c9da34d106274b9509524ceffd3ee73f53141cb2bf36a767fb7359bf8b6a7ef2dc2ecfaaf2ea34b81bb77afa5a6bf5c0e85596244d570e2a24f8 OP_CHECKSIG",
            "desc": "pk(04642bc4956922c9da34d106274b9509524ceffd3ee73f53141cb2bf36a767fb7359bf8b6a7ef2dc2ecfaaf2ea34b81bb77afa5a6bf5c0e85596244d570e2a24f8)#qhg4jt93",
            "hex": "4104642bc4956922c9da34d106274b9509524ceffd3ee73f53141cb2bf36a767fb7359bf8b6a7ef2dc2ecfaaf2ea34b81bb77afa5a6bf5c0e85596244d570e2a24f8ac",
            "type": "pubkey"
          }
        }
      ],
      "hex": "01000000010000000000000000000000000000000000000000000000000000000000000000ffffffff0704ffff001d0114ffffffff0100f2052a01000000434104642bc4956922c9da34d106274b9509524ceffd3ee73f53141cb2bf36a767fb7359bf8b6a7ef2dc2ecfaaf2ea34b81bb77afa5a6bf5c0e85596244d570e2a24f8ac00000000"
    }
  ]
}