{
  "hash": "000000004a501fe4d2ac58e840059bd0ff08ac0557b69ed226f031a806ec4294",
  "confirmations": 49685,
  "height": 3413,
  "version": 1,
  "versionHex": "00000001",
  "merkleroot": "28bf831c87ba35b4365cc1b07eb52562c11164daa0d01d5cb3b973eb88aed348",
  "time": 1234047166,
  "mediantime": 1234043250,
  "nonce": 95205195,
  "bits": "1d00ffff",
  "difficulty": 1,
  "chainwork": "00000000000000000000000000000000000000000000000000000d560d560d56",
  "nTx": 1,
  "previousblockhash": "00000000feb53bdf310e0094e05de83aba4c865da4578f7f059d1fe67cf7d20c",
  "nextblockhash": "000000001b2bd1ae61c12d0d015711ba3a7eab386f6ed8b539002140ed9c02d9",
  "strippedsize": 215,
  "size": 215,
  "weight": 860,
  "tx": [
    {
      "txid": "28bf831c87ba35b4365cc1b07eb52562c11164daa0d01d5cb3b973eb88aed348",
      "hash": "28bf831c87ba35b4365cc1b07eb52562c11164daa0d01d5cb3b973eb88aed348",
      "version": 1,
      "size": 134,
      "vsize": 134,
      "weight": 536,
      "locktime": 0,
      "vin": [
        {
          "coinbase": "04ffff001d016e",
          "sequence": 4294967295
        }
      ],
      "vout": [
        {
          "value": 50.0,
          "n": 0,
          "scriptPubKey": {
            "asm": "04fdcb183f8e112f99f07b01020935065888a247df729b23cc7350bbd9b75b94bcd9306e639db1891f345f388a6bd95dfb8a298a7e66fcc62a09121ba0044e75a4 OP_CHECKSIG",
            "desc": "pk(04fdcb183f8e112f99f07b01020935065888a247df729b23cc7350bbd9b75b94bcd9306e639db1891f345f388a6bd95dfb8a298a7e66fcc62a09121ba0044e75a4)#fk6cezen",
            "hex": "4104fdcb183f8e112f99f07b01020935065888a247df729b23cc7350bbd9b75b94bcd9306e639db1891f345f388a6bd95dfb8a298a7e66fcc62a09121ba0044e75a4ac",
            "type": "pubkey"
          }
        }
      ],
      "hex": "01000000010000000000000000000000000000000000000000000000000000000000000000ffffffff0704ffff001d016effffffff0100f2052a01000000434104fdcb183f8e112f99f07b01020935065888a247df729b23cc7350bbd9b75b94bcd9306e639db1891f345f388a6bd95dfb8a298a7e66fcc62a09121ba0044e75a4ac00000000"
    }
  ]
}