{
  "hash": "000000009846564229f87d0eb692916c97251d48b5d59b853fb5cad385992b3b",
  "confirmations": 50747,
  "height": 2351,
  "version": 1,
  "versionHex": "00000001",
  "merkleroot": "55f11eb504302ffc7a189571180a08b06e1e34684f91668cbc461d285f93d297",
  "time": 1233318079,
  "mediantime": 1233314376,
  "nonce": 258773170,
  "bits": "1d00ffff",
  "difficulty": 1,
  "chainwork": "0000000000000000000000000000000000000000000000000000093009300930",
  "nTx": 1,
  "previousblockhash": "00000000b15cc18f1326b12b66218aa68f3f038e45c6ff15ffd47a8bcf144c31",
  "nextblockhash": "00000000e2269a36ac1e516cdf914d689cf5c8a35876140a9a631f282fef384c",
  "strippedsize": 216,
  "size": 216,
  "weight": 864,
  "tx": [
    {
      "txid": "55f11eb504302ffc7a189571180a08b06e1e34684f91668cbc461d285f93d297",
      "hash": "55f11eb504302ffc7a189571180a08b06e1e34684f91668cbc461d285f93d297",
      "version": 1,
      "size": 135,
      "vsize": 135,
      "weight": 540,
      "locktime": 0,
      "vin": [
        {
          "coinbase": "04ffff001d02a801",
          "sequence": 4294967295
        }
      ],
      "vout": [
        {
          "value": 50.0,
          "n": 0,
          "scriptPubKey": {
            "asm": "041b19ce8307ab8b144dba640c50f532e2a61e687e8a6fd4acc9d2783977f8c2fe7600370302c96c9f47e1521fb8a647693fcfa7e5de3b8c76f321963af23041e4 OP_CHECKSIG",
            "desc": "pk(041b19ce8307ab8b144dba640c50f532e2a61e687e8a6fd4acc9d2783977f8c2fe7600370302c96c9f47e1521fb8a647693fcfa7e5de3b8c76f321963af23041e4)#2lz63cl0",
            "hex": "41041b19ce8307ab8b144dba640c50f532e2a61e687e8a6fd4acc9d2783977f8c2fe7600370302c96c9f47e1521fb8a647693fcfa7e5de3b8c76f321963af23041e4ac",
            "type": "pubkey"
          }
        }
      ],
      "hex": "01000000010000000000000000000000000000000000000000000000000000000000000000ffffffff0804ffff001d02a801ffffffff0100f2052a010000004341041b19ce8307ab8b144dba640c50f532e2a61e687e8a6fd4acc9d2783977f8c2fe7600370302c96c9f47e1521fb8a647693fcfa7e5de3b8c76f321963af23041e4ac00000000"
    }
  ]
}