{
  "hash": "00000000e6296700eb81d9da0c208dfa4bd797809dd0af29001442bc698e876e",
  "confirmations": 51735,
  "height": 1363,
  "version": 1,
  "versionHex": "00000001",
  "merkleroot": "1956ff201a2363ba08a3a9e6d1dc96f5921456e18d9791a43257150e46531052",
  "time": 1232653621,
  "mediantime": 1232649772,
  "nonce": 3991349280,
  "bits": "1d00ffff",
  "difficulty": 1,
  "chainwork": "0000000000000000000000000000000000000000000000000000055405540554",
  "nTx": 1,
  "previousblockhash": "000000009519f6eda3a12664c94d7577f34f880e8efc5f6908642a53c064fd73",
  "nextblockhash": "000000002fd527bf2256edac8d627faf66ee7a38592192040223b5d8dd1feb3d",
  "strippedsize": 216,
  "size": 216,
  "weight": 864,
  "tx": [
    {
      "txid": "1956ff201a2363ba08a3a9e6d1dc96f5921456e18d9791a43257150e46531052",
      "hash": "1956ff201a2363ba08a3a9e6d1dc96f5921456e18d9791a43257150e46531052",
      "version": 1,
      "size": 135,
      "vsize": 135,
      "weight": 540,
      "locktime": 0,
      "vin": [
        {
          "coinbase": "04ffff001d027501",
          "sequence": 4294967295
        }
      ],
      "vout": [
        {
          "value": 50.0,
          "n": 0,
          "scriptPubKey": {
            "asm": "04c86c456f01be4cab98340df4df0914cbe2aa691bc354b6f56826f8123c37f30e76401b317121b3595480bf057d0d6fabddd7edac890c7a74c45cd8f94f4155d2 OP_CHECKSIG",
            "desc": "pk(04c86c456f01be4cab98340df4df0914cbe2aa691bc354b6f56826f8123c37f30e76401b317121b3595480bf057d0d6fabddd7edac890c7a74c45cd8f94f4155d2)#y2qcle70",
            "hex": "4104c86c456f01be4cab98340df4df0914cbe2aa691bc354b6f56826f8123c37f30e76401b317121b3595480bf057d0d6fabddd7edac890c7a74c45cd8f94f4155d2ac",
            "type": "pubkey"
          }
        }
      ],
      "hex": "01000000010000000000000000000000000000000000000000000000000000000000000000ffffffff0804ffff001d027501ffffffff0100f2052a01000000434104c86c456f01be4cab98340df4df0914cbe2aa691bc354b6f56826f8123c37f30e76401b317121b3595480bf057d0d6fabddd7edac890c7a74c45cd8f94f4155d2ac00000000"
    }
  ]
}