{
  "hash": "00000000c6d6af57f7f6934b27f90bb8d1211e66b78e7c6dd7b572afed7dbc40",
  "confirmations": 44245,
  "height": 8853,
  "version": 1,
  "versionHex": "00000001",
  "merkleroot": "9a95fea4147624f5bac505a98c0b57e3b14c3e3322f2f920d807a3978efe70fe",
  "time": 1238140103,
  "mediantime": 1238136892,
  "nonce": 1578183941,
  "bits": "1d00ffff",
  "difficulty": 1,
  "chainwork": "0000000000000000000000000000000000000000000000000000229622962296",
  "nTx": 1,
  "previousblockhash": "000000001a1bfbfab9b684c23501319175661d4a403e0b76dedf5b051a6713e9",
  "nextblockhash": "00000000898a59183886bb5cf95be8216046c6e66579fb9acbbaa7c1918cc269",
  "strippedsize": 216,
  "size": 216,
  "weight": 864,
  "tx": [
    {
      "txid": "9a95fea4147624f5bac505a98c0b57e3b14c3e3322f2f920d807a3978efe70fe",
      "hash": "9a95fea4147624f5bac505a98c0b57e3b14c3e3322f2f920d807a3978efe70fe",
      "version": 1,
      "size": 135,
      "vsize": 135,
      "weight": 540,
      "locktime": 0,
      "vin": [
        {
          "coinbase": "04ffff001d029c03",
          "sequence": 4294967295
        }
      ],
      "vout": [
        {
          "value": 50.0,
          "n": 0,
          "scriptPubKey": {
            "asm": "04812cee0116ee864a1011a28bb0661716b5659e3da10bf3d34fbc549f96602d46119acdd9bf9d4376d3b27d7435446b3a4fe57b9127448889a49edae8a2209107 OP_CHECKSIG",
            "desc": "pk(04812cee0116ee864a1011a28bb0661716b5659e3da10bf3d34fbc549f96602d46119acdd9bf9d4376d3b27d7435446b3a4fe57b9127448889a49edae8a2209107)#9z05lyxs",
            "hex": "4104812cee0116ee864a1011a28bb0661716b5659e3da10bf3d34fbc549f96602d46119acdd9bf9d4376d3b27d7435446b3a4fe57b9127448889a49edae8a2209107ac",
            "type": "pubkey"
          }
        }
      ],
      "hex": "01000000010000000000000000000000000000000000000000000000000000000000000000ffffffff0804ffff001d029c03ffffffff0100f2052a01000000434104812cee0116ee864a1011a28bb0661716b5659e3da10bf3d34fbc549f96602d46119acdd9bf9d4376d3b27d7435446b3a4fe57b9127448889a49edae8a2209107ac00000000"
    }
  ]
}