{
  "hash": "00000000abbd74d8626c86838121367f2f358bf67d636e253d0ad4f5b1252fac",
  "confirmations": 44338,
  "height": 8760,
  "version": 1,
  "versionHex": "00000001",
  "merkleroot": "fa51d1a38ee396f6db2e6d8976ce5638f7d16011360a18bfc364f9a5e70e4d5e",
  "time": 1238070172,
  "mediantime": 1238064868,
  "nonce": 3154934784,
  "bits": "1d00ffff",
  "difficulty": 1,
  "chainwork": "0000000000000000000000000000000000000000000000000000223922392239",
  "nTx": 1,
  "previousblockhash": "0000000098c5f4a787c8253dfd2e20b476360c8c63ab7a2aec65c99a4f0334e2",
  "nextblockhash": "000000005797eb3df3db161fac7c403a6c45ba02866300cec4aefc587d68cd6d",
  "strippedsize": 216,
  "size": 216,
  "weight": 864,
  "tx": [
    {
      "txid": "fa51d1a38ee396f6db2e6d8976ce5638f7d16011360a18bfc364f9a5e70e4d5e",
      "hash": "fa51d1a38ee396f6db2e6d8976ce5638f7d16011360a18bfc364f9a5e70e4d5e",
      "version": 1,
      "size": 135,
      "vsize": 135,
      "weight": 540,
      "locktime": 0,
      "vin": [
        {
          "coinbase": "04ffff001d02e801",
          "sequence": 4294967295
        }
      ],
      "vout": [
        {
          "value": 50.0,
          "n": 0,
          "scriptPubKey": {
            "asm": "04384306baa967cb804d9df54b2f360aa542619a2ca73ab2c45e8a1b2e7ef8cd3179f240991a4874c725ecaf1da775944fed1d873359e489e6abe5bda3bc969ec3 OP_CHECKSIG",
            "desc": "pk(04384306baa967cb804d9df54b2f360aa542619a2ca73ab2c45e8a1b2e7ef8cd3179f240991a4874c725ecaf1da775944fed1d873359e489e6abe5bda3bc969ec3)#pkhtjr7t",
            "hex": "4104384306baa967cb804d9df54b2f360aa542619a2ca73ab2c45e8a1b2e7ef8cd3179f240991a4874c725ecaf1da775944fed1d873359e489e6abe5bda3bc969ec3ac",
            "type": "pubkey"
          }
        }
      ],
      "hex": "01000000010000000000000000000000000000000000000000000000000000000000000000ffffffff0804ffff001d02e801ffffffff0100f2052a01000000434104384306baa967cb804d9df54b2f360aa542619a2ca73ab2c45e8a1b2e7ef8cd3179f240991a4874c725ecaf1da775944fed1d873359e489e6abe5bda3bc969ec3ac00000000"
    }
  ]
}