{
  "hash": "00000000f11c8ead79f38a2561aa78ad1d15a3bc6187fc980cfb8db92365fa2c",
  "confirmations": 50440,
  "height": 2658,
  "version": 1,
  "versionHex": "00000001",
  "merkleroot": "46f8f10880bc0de961c5ee25d2f0e5d295556178c1729a981fd090dea7c6fbfa",
  "time": 1233533219,
  "mediantime": 1233530560,
  "nonce": 67141215,
  "bits": "1d00ffff",
  "difficulty": 1,
  "chainwork": "00000000000000000000000000000000000000000000000000000a630a630a63",
  "nTx": 1,
  "previousblockhash": "00000000ce172c65c3d534ea66f719fb4d4a0c9066220375e50c169a0b0c8ada",
  "nextblockhash": "000000005a580147f6b6d5e90d40e173977f0f08f78bef0aa545a97f0bd2ccb4",
  "strippedsize": 215,
  "size": 215,
  "weight": 860,
  "tx": [
    {
      "txid": "46f8f10880bc0de961c5ee25d2f0e5d295556178c1729a981fd090dea7c6fbfa",
      "hash": "46f8f10880bc0de961c5ee25d2f0e5d295556178c1729a981fd090dea7c6fbfa",
      "version": 1,
      "size": 134,
      "vsize": 134,
      "weight": 536,
      "locktime": 0,
      "vin": [
        {
          "coinbase": "04ffff001d0146",
          "sequence": 4294967295
        }
      ],
      "vout": [
        {
          "value": 50.0,
          "n": 0,
          "scriptPubKey": {
            "asm": "048238e46c34a6e3537e0f4ccaf1c962f2c65d78dc752554a4b4e345dc476533f9d3efc628f2b2ec52dbdadc683d5166ada459fb278d5c1c2c022230cdb38fcf45 OP_CHECKSIG",
            "desc": "pk(048238e46c34a6e3537e0f4ccaf1c962f2c65d78dc752554a4b4e345dc476533f9d3efc628f2b2ec52dbdadc683d5166ada459fb278d5c1c2c022230cdb38fcf45)#jg5mn06w",
            "hex": "41048238e46c34a6e3537e0f4ccaf1c962f2c65d78dc752554a4b4e345dc476533f9d3efc628f2b2ec52dbdadc683d5166ada459fb278d5c1c2c022230cdb38fcf45ac",
            "type": "pubkey"
          }
        }
      ],
      "hex": "01000000010000000000000000000000000000000000000000000000000000000000000000ffffffff0704ffff001d0146ffffffff0100f2052a010000004341048238e46c34a6e3537e0f4ccaf1c962f2c65d78dc752554a4b4e345dc476533f9d3efc628f2b2ec52dbdadc683d5166ada459fb278d5c1c2c022230cdb38fcf45ac00000000"
    }
  ]
}