{
  "hash": "00000000fddeabfbf4c7a0b26053c0a7829e71e84c1d3949e0f34ee5a60592aa",
  "confirmations": 43795,
  "height": 9303,
  "version": 1,
  "versionHex": "00000001",
  "merkleroot": "9de78f8741025282d1a42e4d4e80d97e9e9dd64e7cbc5618dc0a63d5f025b088",
  "time": 1238477271,
  "mediantime": 1238473296,
  "nonce": 1167354633,
  "bits": "1d00ffff",
  "difficulty": 1,
  "chainwork": "0000000000000000000000000000000000000000000000000000245824582458",
  "nTx": 1,
  "previousblockhash": "00000000454b5a70640b199dee28c6c1932b4d8fcd3f7fbf0c1499173222ef9e",
  "nextblockhash": "00000000e7015c74b2924ff0c3db2f481da87a3c59eba10149b0361e2cd26c3b",
  "strippedsize": 216,
  "size": 216,
  "weight": 864,
  "tx": [
    {
      "txid": "9de78f8741025282d1a42e4d4e80d97e9e9dd64e7cbc5618dc0a63d5f025b088",
      "hash": "9de78f8741025282d1a42e4d4e80d97e9e9dd64e7cbc5618dc0a63d5f025b088",
      "version": 1,
      "size": 135,
      "vsize": 135,
      "weight": 540,
      "locktime": 0,
      "vin": [
        {
          "coinbase": "04ffff001d02c801",
          "sequence": 4294967295
        }
      ],
      "vout": [
        {
          "value": 50.0,
          "n": 0,
          "scriptPubKey": {
            "asm": "0414c0df273c2650cb8988b1f600945fb6f1f67ebef726ba9a18152938375d09326ce4093c27f7c8956ec19b0729fdf11eb5be417097a677defbaf6dd1a2bf78a2 OP_CHECKSIG",
            "desc": "pk(0414c0df273c2650cb8988b1f600945fb6f1f67ebef726ba9a18152938375d09326ce4093c27f7c8956ec19b0729fdf11eb5be417097a677defbaf6dd1a2bf78a2)#5zml6v07",
            "hex": "410414c0df273c2650cb8988b1f600945fb6f1f67ebef726ba9a18152938375d09326ce4093c27f7c8956ec19b0729fdf11eb5be417097a677defbaf6dd1a2bf78a2ac",
            "type": "pubkey"
          }
        }
      ],
      "hex": "01000000010000000000000000000000000000000000000000000000000000000000000000ffffffff0804ffff001d02c801ffffffff0100f2052a0100000043410414c0df273c2650cb8988b1f600945fb6f1f67ebef726ba9a18152938375d09326ce4093c27f7c8956ec19b0729fdf11eb5be417097a677defbaf6dd1a2bf78a2ac00000000"
    }
  ]
}