{
  "hash": "00000000f5adb45354a558d362691fe835b2cbe6e1c9bc4a63141c4112f0dccf",
  "confirmations": 48532,
  "height": 4566,
  "version": 1,
  "versionHex": "00000001",
  "merkleroot": "4e3ecde293591974957bcfc4e3b64c16295eec8aa1054be1ce26a0281eb06ec4",
  "time": 1234828126,
  "mediantime": 1234825653,
  "nonce": 71139362,
  "bits": "1d00ffff",
  "difficulty": 1,
  "chainwork": "000000000000000000000000000000000000000000000000000011d711d711d7",
  "nTx": 1,
  "previousblockhash": "0000000090b8f2c0e70002905461d7fcaa05f40185b4b62b4ffe170bc555a068",
  "nextblockhash": "000000002a11eca002d9fcdee8dc749a7ff1b97948f5cef5f34d40f255e3ffa0",
  "strippedsize": 215,
  "size": 215,
  "weight": 860,
  "tx": [
    {
      "txid": "4e3ecde293591974957bcfc4e3b64c16295eec8aa1054be1ce26a0281eb06ec4",
      "hash": "4e3ecde293591974957bcfc4e3b64c16295eec8aa1054be1ce26a0281eb06ec4",
      "version": 1,
      "size": 134,
      "vsize": 134,
      "weight": 536,
      "locktime": 0,
      "vin": [
        {
          "coinbase": "04ffff001d016e",
          "sequence": 4294967295
        }
      ],
      "vout": [
        {
          "value": 50.0,
          "n": 0,
          "scriptPubKey": {
            "asm": "042b9029d6c5236ac3310e7947d9594bbf31f7208ae9fcc6f8034e661164576e8062760bc439a3e4e0fbc868f81e13875457888712ce13fdeee4915db98f9d56d8 OP_CHECKSIG",
            "desc": "pk(042b9029d6c5236ac3310e7947d9594bbf31f7208ae9fcc6f8034e661164576e8062760bc439a3e4e0fbc868f81e13875457888712ce13fdeee4915db98f9d56d8)#l6fv5v70",
            "hex": "41042b9029d6c5236ac3310e7947d9594bbf31f7208ae9fcc6f8034e661164576e8062760bc439a3e4e0fbc868f81e13875457888712ce13fdeee4915db98f9d56d8ac",
            "type": "pubkey"
          }
        }
      ],
      "hex": "01000000010000000000000000000000000000000000000000000000000000000000000000ffffffff0704ffff001d016effffffff0100f2052a010000004341042b9029d6c5236ac3310e7947d9594bbf31f7208ae9fcc6f8034e661164576e8062760bc439a3e4e0fbc868f81e13875457888712ce13fdeee4915db98f9d56d8ac00000000"
    }
  ]
}