{
  "hash": "0000000049c895affa3e39418d96ada14dd0852535efd9f2a49fa5c4a4067777",
  "confirmations": 45361,
  "height": 7737,
  "version": 1,
  "versionHex": "00000001",
  "merkleroot": "d5e752c4f4a7bc07960ea4fd0d099a95b3c2f4dadbf1277adde3a43925a35fc3",
  "time": 1237267445,
  "mediantime": 1237263537,
  "nonce": 4263955715,
  "bits": "1d00ffff",
  "difficulty": 1,
  "chainwork": "00000000000000000000000000000000000000000000000000001e3a1e3a1e3a",
  "nTx": 1,
  "previousblockhash": "000000003446fc0e980057b14fdf1e4861a1508338e797eabaeaa04f31f6237d",
  "nextblockhash": "000000003d5ee41ea292e548d8c5e60a3f181864d5b744c6de2e10a750a48f60",
  "strippedsize": 216,
  "size": 216,
  "weight": 864,
  "tx": [
    {
      "txid": "d5e752c4f4a7bc07960ea4fd0d099a95b3c2f4dadbf1277adde3a43925a35fc3",
      "hash": "d5e752c4f4a7bc07960ea4fd0d099a95b3c2f4dadbf1277adde3a43925a35fc3",
      "version": 1,
      "size": 135,
      "vsize": 135,
      "weight": 540,
      "locktime": 0,
      "vin": [
        {
          "coinbase": "04ffff001d02d104",
          "sequence": 4294967295
        }
      ],
      "vout": [
        {
          "value": 50.0,
          "n": 0,
          "scriptPubKey": {
            "asm": "0488b8128e8d81d3ada51fa5fb30f4313c220b7f5f2aa2c9a39182869a50ff8cf8f8f79ddb49aca5b918ed67d2a34a3d74e8b4555ccba681ccf9a577d4326b2f20 OP_CHECKSIG",
            "desc": "pk(0488b8128e8d81d3ada51fa5fb30f4313c220b7f5f2aa2c9a39182869a50ff8cf8f8f79ddb49aca5b918ed67d2a34a3d74e8b4555ccba681ccf9a577d4326b2f20)#v4ade6uj",
            "hex": "410488b8128e8d81d3ada51fa5fb30f4313c220b7f5f2aa2c9a39182869a50ff8cf8f8f79ddb49aca5b918ed67d2a34a3d74e8b4555ccba681ccf9a577d4326b2f20ac",
            "type": "pubkey"
          }
        }
      ],
      "hex": "01000000010000000000000000000000000000000000000000000000000000000000000000ffffffff0804ffff001d02d104ffffffff0100f2052a0100000043410488b8128e8d81d3ada51fa5fb30f4313c220b7f5f2aa2c9a39182869a50ff8cf8f8f79ddb49aca5b918ed67d2a34a3d74e8b4555ccba681ccf9a577d4326b2f20ac00000000"
    }
  ]
}