{
  "hash": "000000009c0f206254fa93fb756b3809c653fcd0a1ebb0caacc5b72e88e29a53",
  "confirmations": 52176,
  "height": 487,
  "version": 1,
  "versionHex": "00000001",
  "merkleroot": "491daa5e476f3994cf533fc98bc8235faf36237be41c242eca1568c86f9ec99a",
  "time": 1231959983,
  "mediantime": 1231957046,
  "nonce": 3704164608,
  "bits": "1d00ffff",
  "difficulty": 1,
  "chainwork": "000000000000000000000000000000000000000000000000000001e801e801e8",
  "nTx": 1,
  "previousblockhash": "00000000d33226beeea5253068d1252b713fec143b7336a25b75cbc35afe45da",
  "nextblockhash": "00000000ecd04ea471aee3d438940b44fc375b10a3b71cad70abec7ff6b22938",
  "strippedsize": 216,
  "size": 216,
  "weight": 864,
  "tx": [
    {
      "txid": "491daa5e476f3994cf533fc98bc8235faf36237be41c242eca1568c86f9ec99a",
      "hash": "491daa5e476f3994cf533fc98bc8235faf36237be41c242eca1568c86f9ec99a",
      "version": 1,
      "size": 135,
      "vsize": 135,
      "weight": 540,
      "locktime": 0,
      "vin": [
        {
          "coinbase": "04ffff001d024d04",
          "sequence": 4294967295
        }
      ],
      "vout": [
        {
          "value": 50.0,
          "n": 0,
          "scriptPubKey": {
            "asm": "0435a19a1837408c21711e3ea159cf7149290c6378636da10ce5a203cfcb25fe7d3175800b8a230948236e07261932a9181499bc1476d267531350554625e9b449 OP_CHECKSIG",
            "desc": "pk(0435a19a1837408c21711e3ea159cf7149290c6378636da10ce5a203cfcb25fe7d3175800b8a230948236e07261932a9181499bc1476d267531350554625e9b449)#7n4d0rj3",
            "hex": "410435a19a1837408c21711e3ea159cf7149290c6378636da10ce5a203cfcb25fe7d3175800b8a230948236e07261932a9181499bc1476d267531350554625e9b449ac",
            "type": "pubkey"
          }
        }
      ],
      "hex": "01000000010000000000000000000000000000000000000000000000000000000000000000ffffffff0804ffff001d024d04ffffffff0100f2052a0100000043410435a19a1837408c21711e3ea159cf7149290c6378636da10ce5a203cfcb25fe7d3175800b8a230948236e07261932a9181499bc1476d267531350554625e9b449ac00000000"
    }
  ]
}