{
  "hash": "0000000069101f877f3f3aa014a4b7fa0ce8c80abac7d029fbf34dfa461c66bd",
  "confirmations": 51575,
  "height": 1523,
  "version": 1,
  "versionHex": "00000001",
  "merkleroot": "481210a248fda7bf102762b87dc3ee33b51b73472629c680f1bf412a2de5c964",
  "time": 1232776660,
  "mediantime": 1232775734,
  "nonce": 3630296067,
  "bits": "1d00ffff",
  "difficulty": 1,
  "chainwork": "000000000000000000000000000000000000000000000000000005f405f405f4",
  "nTx": 1,
  "previousblockhash": "00000000b5a5c14a73568884ce80b485a41fc3830efb88f32cbee576b89f6d3f",
  "nextblockhash": "000000000ad51181e1fa8dd01d00ef0f63a0df05fc9f2aa82ed30debeff3e4af",
  "strippedsize": 216,
  "size": 216,
  "weight": 864,
  "tx": [
    {
      "txid": "481210a248fda7bf102762b87dc3ee33b51b73472629c680f1bf412a2de5c964",
      "hash": "481210a248fda7bf102762b87dc3ee33b51b73472629c680f1bf412a2de5c964",
      "version": 1,
      "size": 135,
      "vsize": 135,
      "weight": 540,
      "locktime": 0,
      "vin": [
        {
          "coinbase": "04ffff001d024601",
          "sequence": 4294967295
        }
      ],
      "vout": [
        {
          "value": 50.0,
          "n": 0,
          "scriptPubKey": {
            "asm": "046cbe62d834688079cf99b754b1e5b8d9969bdd59487be4b4484df65248fab75cd58656ddc04770816061a4c6e4275093a3f24f9c94ee48c02ef0f4b61e055560 OP_CHECKSIG",
            "desc": "pk(046cbe62d834688079cf99b754b1e5b8d9969bdd59487be4b4484df65248fab75cd58656ddc04770816061a4c6e4275093a3f24f9c94ee48c02ef0f4b61e055560)#anh06w42",
            "hex": "41046cbe62d834688079cf99b754b1e5b8d9969bdd59487be4b4484df65248fab75cd58656ddc04770816061a4c6e4275093a3f24f9c94ee48c02ef0f4b61e055560ac",
            "type": "pubkey"
          }
        }
      ],
      "hex": "01000000010000000000000000000000000000000000000000000000000000000000000000ffffffff0804ffff001d024601ffffffff0100f2052a010000004341046cbe62d834688079cf99b754b1e5b8d9969bdd59487be4b4484df65248fab75cd58656ddc04770816061a4c6e4275093a3f24f9c94ee48c02ef0f4b61e055560ac00000000"
    }
  ]
}