{
  "hash": "000000008caef6187e243f557cc8341bb168e83974342891eed3f991a4a4139c",
  "confirmations": 43699,
  "height": 9399,
  "version": 1,
  "versionHex": "00000001",
  "merkleroot": "acba75a4acc0f7b473715bdb835ef47ebe87649bc0b9032ffcb5a6718683f772",
  "time": 1238551076,
  "mediantime": 1238547380,
  "nonce": 473746972,
  "bits": "1d00ffff",
  "difficulty": 1,
  "chainwork": "000000000000000000000000000000000000000000000000000024b824b824b8",
  "nTx": 1,
  "previousblockhash": "000000007f8132ddad7e418164c88b64e88365d9ddd3cb161e2abed6a1a6c127",
  "nextblockhash": "000000007499730f719cfc25ef66f08bee28bbe22e91ba9467f72aa5d209b760",
  "strippedsize": 216,
  "size": 216,
  "weight": 864,
  "tx": [
    {
      "txid": "acba75a4acc0f7b473715bdb835ef47ebe87649bc0b9032ffcb5a6718683f772",
      "hash": "acba75a4acc0f7b473715bdb835ef47ebe87649bc0b9032ffcb5a6718683f772",
      "version": 1,
      "size": 135,
      "vsize": 135,
      "weight": 540,
      "locktime": 0,
      "vin": [
        {
          "coinbase": "04ffff001d02a703",
          "sequence": 4294967295
        }
      ],
      "vout": [
        {
          "value": 50.0,
          "n": 0,
          "scriptPubKey": {
            "asm": "04ccdb45b72d22f147649bf333b8eacc387b24f7b677849edee8770a5a658e2996a1336b7b45d41a80622c6f64979a0dbf7e13e19eec7c2536a1c34442f5b10163 OP_CHECKSIG",
            "desc": "pk(04ccdb45b72d22f147649bf333b8eacc387b24f7b677849edee8770a5a658e2996a1336b7b45d41a80622c6f64979a0dbf7e13e19eec7c2536a1c34442f5b10163)#gshr7wl9",
            "hex": "4104ccdb45b72d22f147649bf333b8eacc387b24f7b677849edee8770a5a658e2996a1336b7b45d41a80622c6f64979a0dbf7e13e19eec7c2536a1c34442f5b10163ac",
            "type": "pubkey"
          }
        }
      ],
      "hex": "01000000010000000000000000000000000000000000000000000000000000000000000000ffffffff0804ffff001d02a703ffffffff0100f2052a01000000434104ccdb45b72d22f147649bf333b8eacc387b24f7b677849edee8770a5a658e2996a1336b7b45d41a80622c6f64979a0dbf7e13e19eec7c2536a1c34442f5b10163ac00000000"
    }
  ]
}