{
  "hash": "00000000a977c83c38242462733a5180f0e30774cfd05bc2763a07505213c37a",
  "confirmations": 46402,
  "height": 6696,
  "version": 1,
  "versionHex": "00000001",
  "merkleroot": "1127e09199e1306f2f93a661830c61b7f56f7b9f5bb2fae7fe68a9046c7a01e3",
  "time": 1236479337,
  "mediantime": 1236477505,
  "nonce": 3959210754,
  "bits": "1d00ffff",
  "difficulty": 1,
  "chainwork": "00000000000000000000000000000000000000000000000000001a291a291a29",
  "nTx": 1,
  "previousblockhash": "000000002ac77db998bfea6d804aae7c3c75566561aec4d38a9162618064286e",
  "nextblockhash": "000000006b7195baee156676bbdd2ac7df813bae4a3a73e7e1583a9526ba6762",
  "strippedsize": 216,
  "size": 216,
  "weight": 864,
  "tx": [
    {
      "txid": "1127e09199e1306f2f93a661830c61b7f56f7b9f5bb2fae7fe68a9046c7a01e3",
      "hash": "1127e09199e1306f2f93a661830c61b7f56f7b9f5bb2fae7fe68a9046c7a01e3",
      "version": 1,
      "size": 135,
      "vsize": 135,
      "weight": 540,
      "locktime": 0,
      "vin": [
        {
          "coinbase": "04ffff001d02d206",
          "sequence": 4294967295
        }
      ],
      "vout": [
        {
          "value": 50.0,
          "n": 0,
          "scriptPubKey": {
            "asm": "048d09e9549ea03e2f29783b23c207be147e9b9a73b20abfbc5a064664f4899b36090779322eecc1c17c7c57f63febe1ea91040bba7355a4fc77ab634ac6990ebc OP_CHECKSIG",
            "desc": "pk(048d09e9549ea03e2f29783b23c207be147e9b9a73b20abfbc5a064664f4899b36090779322eecc1c17c7c57f63febe1ea91040bba7355a4fc77ab634ac6990ebc)#z499y00c",
            "hex": "41048d09e9549ea03e2f29783b23c207be147e9b9a73b20abfbc5a064664f4899b36090779322eecc1c17c7c57f63febe1ea91040bba7355a4fc77ab634ac6990ebcac",
            "type": "pubkey"
          }
        }
      ],
      "hex": "01000000010000000000000000000000000000000000000000000000000000000000000000ffffffff0804ffff001d02d206ffffffff0100f2052a010000004341048d09e9549ea03e2f29783b23c207be147e9b9a73b20abfbc5a064664f4899b36090779322eecc1c17c7c57f63febe1ea91040bba7355a4fc77ab634ac6990ebcac00000000"
    }
  ]
}