{
  "hash": "0000000084dee9803e97cda23967daabecbdb7b1499ede59facdffcb1c263c98",
  "confirmations": 47634,
  "height": 5464,
  "version": 1,
  "versionHex": "00000001",
  "merkleroot": "5701883e0828e45473df9b350a780914c6e531afc49159c526ab029eea846f8d",
  "time": 1235494185,
  "mediantime": 1235491375,
  "nonce": 121077784,
  "bits": "1d00ffff",
  "difficulty": 1,
  "chainwork": "0000000000000000000000000000000000000000000000000000155915591559",
  "nTx": 1,
  "previousblockhash": "000000008217fe661c8fa1fe90e78b6f578d274169e4ec2b1a38ab56d4341566",
  "nextblockhash": "00000000560ceccc52574155994fbafcc8373b21ea7c85206e0aa4929c4a8eb4",
  "strippedsize": 216,
  "size": 216,
  "weight": 864,
  "tx": [
    {
      "txid": "5701883e0828e45473df9b350a780914c6e531afc49159c526ab029eea846f8d",
      "hash": "5701883e0828e45473df9b350a780914c6e531afc49159c526ab029eea846f8d",
      "version": 1,
      "size": 135,
      "vsize": 135,
      "weight": 540,
      "locktime": 0,
      "vin": [
        {
          "coinbase": "04ffff001d020005",
          "sequence": 4294967295
        }
      ],
      "vout": [
        {
          "value": 50.0,
          "n": 0,
          "scriptPubKey": {
            "asm": "0452ce07121f1c20d5104162eacf5d7822a3de8e04d37aec0915b5e1aabc3e3dd22a0d8abfeb914a23a47ce2fafd56926f415d4798923571b4d6e7e12ee518779a OP_CHECKSIG",
            "desc": "pk(0452ce07121f1c20d5104162eacf5d7822a3de8e04d37aec0915b5e1aabc3e3dd22a0d8abfeb914a23a47ce2fafd56926f415d4798923571b4d6e7e12ee518779a)#zxfu6nqm",
            "hex": "410452ce07121f1c20d5104162eacf5d7822a3de8e04d37aec0915b5e1aabc3e3dd22a0d8abfeb914a23a47ce2fafd56926f415d4798923571b4d6e7e12ee518779aac",
            "type": "pubkey"
          }
        }
      ],
      "hex": "01000000010000000000000000000000000000000000000000000000000000000000000000ffffffff0804ffff001d020005ffffffff0100f2052a0100000043410452ce07121f1c20d5104162eacf5d7822a3de8e04d37aec0915b5e1aabc3e3dd22a0d8abfeb914a23a47ce2fafd56926f415d4798923571b4d6e7e12ee518779aac00000000"
    }
  ]
}