{
  "hash": "00000000edf94d4cccfad927d469eaabfc1e8c68a715203f85e2459f6885296d",
  "confirmations": 52275,
  "height": 823,
  "version": 1,
  "versionHex": "00000001",
  "merkleroot": "e3e932f77eeaf47a09c6c61675276e8f356e8fc6d6a4f404ae6a966ebf864b53",
  "time": 1232209980,
  "mediantime": 1232206467,
  "nonce": 2882865457,
  "bits": "1d00ffff",
  "difficulty": 1,
  "chainwork": "0000000000000000000000000000000000000000000000000000033803380338",
  "nTx": 1,
  "previousblockhash": "0000000073164bbac990536ee07ec634a5c847ddeb92f3bc415f6edef69c959d",
  "nextblockhash": "00000000eafb128705bb96f7d0409b89f9c783b6b88b7d386ac7109721b02968",
  "strippedsize": 216,
  "size": 216,
  "weight": 864,
  "tx": [
    {
      "txid": "e3e932f77eeaf47a09c6c61675276e8f356e8fc6d6a4f404ae6a966ebf864b53",
      "hash": "e3e932f77eeaf47a09c6c61675276e8f356e8fc6d6a4f404ae6a966ebf864b53",
      "version": 1,
      "size": 135,
      "vsize": 135,
      "weight": 540,
      "locktime": 0,
      "vin": [
        {
          "coinbase": "04ffff001d02e101",
          "sequence": 4294967295
        }
      ],
      "vout": [
        {
          "value": 50.0,
          "n": 0,
          "scriptPubKey": {
            "asm": "04d112082f6b13a98c183e2f2f8ff517cdb09f121910bce12c7913c3c976259d6e8cf8bb783286a42e476f1c5d7d1b7355a8f54f09066d8eff41b9d043526cfc2f OP_CHECKSIG",
            "desc": "pk(04d112082f6b13a98c183e2f2f8ff517cdb09f121910bce12c7913c3c976259d6e8cf8bb783286a42e476f1c5d7d1b7355a8f54f09066d8eff41b9d043526cfc2f)#8u6qa0hc",
            "hex": "4104d112082f6b13a98c183e2f2f8ff517cdb09f121910bce12c7913c3c976259d6e8cf8bb783286a42e476f1c5d7d1b7355a8f54f09066d8eff41b9d043526cfc2fac",
            "type": "pubkey"
          }
        }
      ],
      "hex": "01000000010000000000000000000000000000000000000000000000000000000000000000ffffffff0804ffff001d02e101ffffffff0100f2052a01000000434104d112082f6b13a98c183e2f2f8ff517cdb09f121910bce12c7913c3c976259d6e8cf8bb783286a42e476f1c5d7d1b7355a8f54f09066d8eff41b9d043526cfc2fac00000000"
    }
  ]
}