{
  "hash": "00000000a5275ba694daa25c191959e7694df68fd4a10865f24cfc0283d99a24",
  "confirmations": 44814,
  "height": 8284,
  "version": 1,
  "versionHex": "00000001",
  "merkleroot": "85507ce4ffcc901255ee2ed696373363b9cabeca1d18d1262588247aa637b8e3",
  "time": 1237721645,
  "mediantime": 1237718246,
  "nonce": 697843754,
  "bits": "1d00ffff",
  "difficulty": 1,
  "chainwork": "0000000000000000000000000000000000000000000000000000205d205d205d",
  "nTx": 1,
  "previousblockhash": "0000000093cafa55c15b13f9eef325ce6cfc24efe2c98d00e0f326e56d623e2d",
  "nextblockhash": "000000006b4b456cd16c91821653c4c252afd9d085f28c804ea7aa54daa90a8c",
  "strippedsize": 216,
  "size": 216,
  "weight": 864,
  "tx": [
    {
      "txid": "85507ce4ffcc901255ee2ed696373363b9cabeca1d18d1262588247aa637b8e3",
      "hash": "85507ce4ffcc901255ee2ed696373363b9cabeca1d18d1262588247aa637b8e3",
      "version": 1,
      "size": 135,
      "vsize": 135,
      "weight": 540,
      "locktime": 0,
      "vin": [
        {
          "coinbase": "04ffff001d02fb03",
          "sequence": 4294967295
        }
      ],
      "vout": [
        {
          "value": 50.0,
          "n": 0,
          "scriptPubKey": {
            "asm": "04e2de553eca5fe76d033888f2bfa37a7271a0e54d1d684f61531b139dd15026410900339a009ac3a08130fb588d9603d8caab791faebecd9e5f97da16fbab780d OP_CHECKSIG",
            "desc": "pk(04e2de553eca5fe76d033888f2bfa37a7271a0e54d1d684f61531b139dd15026410900339a009ac3a08130fb588d9603d8caab791faebecd9e5f97da16fbab780d)#ax86zp58",
            "hex": "4104e2de553eca5fe76d033888f2bfa37a7271a0e54d1d684f61531b139dd15026410900339a009ac3a08130fb588d9603d8caab791faebecd9e5f97da16fbab780dac",
            "type": "pubkey"
          }
        }
      ],
      "hex": "01000000010000000000000000000000000000000000000000000000000000000000000000ffffffff0804ffff001d02fb03ffffffff0100f2052a01000000434104e2de553eca5fe76d033888f2bfa37a7271a0e54d1d684f61531b139dd15026410900339a009ac3a08130fb588d9603d8caab791faebecd9e5f97da16fbab780dac00000000"
    }
  ]
}