{
  "hash": "000000001ac3b452b95d0da24f73bb9cb2451f32b5dd0bf4107c52e190126246",
  "confirmations": 48763,
  "height": 4335,
  "version": 1,
  "versionHex": "00000001",
  "merkleroot": "19758d27595d7f1b9ab066528ddd39473a785f75e32aacf0431fd6c5647d64b7",
  "time": 1234668258,
  "mediantime": 1234665293,
  "nonce": 81360925,
  "bits": "1d00ffff",
  "difficulty": 1,
  "chainwork": "000000000000000000000000000000000000000000000000000010f010f010f0",
  "nTx": 1,
  "previousblockhash": "000000009cdad3c55df9c9bc88265329254a6c8ca810fa7f0e953c947df86dc7",
  "nextblockhash": "0000000029d61178f864bbad5cb83a5fe9b004f7e2d73bfb923a30e6b7739d04",
  "strippedsize": 215,
  "size": 215,
  "weight": 860,
  "tx": [
    {
      "txid": "19758d27595d7f1b9ab066528ddd39473a785f75e32aacf0431fd6c5647d64b7",
      "hash": "19758d27595d7f1b9ab066528ddd39473a785f75e32aacf0431fd6c5647d64b7",
      "version": 1,
      "size": 134,
      "vsize": 134,
      "weight": 536,
      "locktime": 0,
      "vin": [
        {
          "coinbase": "04ffff001d0154",
          "sequence": 4294967295
        }
      ],
      "vout": [
        {
          "value": 50.0,
          "n": 0,
          "scriptPubKey": {
            "asm": "042443ad121206f58c2a3c2a8938f19ad792041c3b81711454117485e71ff61719d7aee4419fff9e867ea87a5ce17d6e9f89230f61e2676d6e8a6ea117b91565b7 OP_CHECKSIG",
            "desc": "pk(042443ad121206f58c2a3c2a8938f19ad792041c3b81711454117485e71ff61719d7aee4419fff9e867ea87a5ce17d6e9f89230f61e2676d6e8a6ea117b91565b7)#ltfwuhce",
            "hex": "41042443ad121206f58c2a3c2a8938f19ad792041c3b81711454117485e71ff61719d7aee4419fff9e867ea87a5ce17d6e9f89230f61e2676d6e8a6ea117b91565b7ac",
            "type": "pubkey"
          }
        }
      ],
      "hex": "01000000010000000000000000000000000000000000000000000000000000000000000000ffffffff0704ffff001d0154ffffffff0100f2052a010000004341042443ad121206f58c2a3c2a8938f19ad792041c3b81711454117485e71ff61719d7aee4419fff9e867ea87a5ce17d6e9f89230f61e2676d6e8a6ea117b91565b7ac00000000"
    }
  ]
}