{
  "hash": "000000005703c320776c4ccb4140781e0d14f504d73ea45b6327cfa2ca0ec008",
  "confirmations": 44032,
  "height": 9066,
  "version": 1,
  "versionHex": "00000001",
  "merkleroot": "7f6aa688cc7794fae6794ffe86eed41b1be16daa19e4cd86abd10c8e6b273bc0",
  "time": 1238307972,
  "mediantime": 1238302716,
  "nonce": 33109275,
  "bits": "1d00ffff",
  "difficulty": 1,
  "chainwork": "0000000000000000000000000000000000000000000000000000236b236b236b",
  "nTx": 1,
  "previousblockhash": "00000000af232d6445a1f73540ffc5294805b202819f341f3947b24335285e4a",
  "nextblockhash": "00000000e49bdcc21050b26aa589674b27b57c1b7d487af694c79997be574bdc",
  "strippedsize": 216,
  "size": 216,
  "weight": 864,
  "tx": [
    {
      "txid": "7f6aa688cc7794fae6794ffe86eed41b1be16daa19e4cd86abd10c8e6b273bc0",
      "hash": "7f6aa688cc7794fae6794ffe86eed41b1be16daa19e4cd86abd10c8e6b273bc0",
      "version": 1,
      "size": 135,
      "vsize": 135,
      "weight": 540,
      "locktime": 0,
      "vin": [
        {
          "coinbase": "04ffff001d029b07",
          "sequence": 4294967295
        }
      ],
      "vout": [
        {
          "value": 50.0,
          "n": 0,
          "scriptPubKey": {
            "asm": "04de59bbf4ed0fdcfab1868af8923b76f0ad7e3992f508f9e409fbf7b253faafd11f0201e4962d38de1acbb13c073bdd5b489e51af4f595dfd49cd8cd3346b1bd3 OP_CHECKSIG",
            "desc": "pk(04de59bbf4ed0fdcfab1868af8923b76f0ad7e3992f508f9e409fbf7b253faafd11f0201e4962d38de1acbb13c073bdd5b489e51af4f595dfd49cd8cd3346b1bd3)#fvsjfgk8",
            "hex": "4104de59bbf4ed0fdcfab1868af8923b76f0ad7e3992f508f9e409fbf7b253faafd11f0201e4962d38de1acbb13c073bdd5b489e51af4f595dfd49cd8cd3346b1bd3ac",
            "type": "pubkey"
          }
        }
      ],
      "hex": "01000000010000000000000000000000000000000000000000000000000000000000000000ffffffff0804ffff001d029b07ffffffff0100f2052a01000000434104de59bbf4ed0fdcfab1868af8923b76f0ad7e3992f508f9e409fbf7b253faafd11f0201e4962d38de1acbb13c073bdd5b489e51af4f595dfd49cd8cd3346b1bd3ac00000000"
    }
  ]
}