{
  "hash": "000000008bb30dccc10c56c339c8aaacbe0c71051dc51ee10cc84db945db2978",
  "confirmations": 52039,
  "height": 189,
  "version": 1,
  "versionHex": "00000001",
  "merkleroot": "5f6c6965593c19c55ea077d820dc1b49172e92e7179ac02491396c96292b6f5e",
  "time": 1231745189,
  "mediantime": 1231742949,
  "nonce": 1723050534,
  "bits": "1d00ffff",
  "difficulty": 1,
  "chainwork": "000000000000000000000000000000000000000000000000000000be00be00be",
  "nTx": 1,
  "previousblockhash": "000000009a940db389f3a7cbb8405f4ec14342bed36073b60ee63ed7e117f193",
  "nextblockhash": "000000007d31c3592c3fd6f4571c14870f06150028320dda7c847e1869881535",
  "strippedsize": 215,
  "size": 215,
  "weight": 860,
  "tx": [
    {
      "txid": "5f6c6965593c19c55ea077d820dc1b49172e92e7179ac02491396c96292b6f5e",
      "hash": "5f6c6965593c19c55ea077d820dc1b49172e92e7179ac02491396c96292b6f5e",
      "version": 1,
      "size": 134,
      "vsize": 134,
      "weight": 536,
      "locktime": 0,
      "vin": [
        {
          "coinbase": "04ffff001d010b",
          "sequence": 4294967295
        }
      ],
      "vout": [
        {
          "value": 50.0,
          "n": 0,
          "scriptPubKey": {
            "asm": "0468b02e8cc3c5905dff8f831cdcf8dc47a093f820163bb62efc12bd0dd6cdd63ec6dcc7c121e4fb7795f5ae241d00167390eeb0fed7d6154e2a21da50d8f977a8 OP_CHECKSIG",
            "desc": "pk(0468b02e8cc3c5905dff8f831cdcf8dc47a093f820163bb62efc12bd0dd6cdd63ec6dcc7c121e4fb7795f5ae241d00167390eeb0fed7d6154e2a21da50d8f977a8)#mlrq9fdj",
            "hex": "410468b02e8cc3c5905dff8f831cdcf8dc47a093f820163bb62efc12bd0dd6cdd63ec6dcc7c121e4fb7795f5ae241d00167390eeb0fed7d6154e2a21da50d8f977a8ac",
            "type": "pubkey"
          }
        }
      ],
      "hex": "01000000010000000000000000000000000000000000000000000000000000000000000000ffffffff0704ffff001d010bffffffff0100f2052a0100000043410468b02e8cc3c5905dff8f831cdcf8dc47a093f820163bb62efc12bd0dd6cdd63ec6dcc7c121e4fb7795f5ae241d00167390eeb0fed7d6154e2a21da50d8f977a8ac00000000"
    }
  ]
}