{
  "hash": "000000003e2a49424baaf8e3fcbc849e9dfa8db750ed7f400414573fe92830c8",
  "confirmations": 45394,
  "height": 7704,
  "version": 1,
  "versionHex": "00000001",
  "merkleroot": "4e8b0dc57112edc8da52b59f4fa3be03426b1600718baa1ffa8411990b5b7c69",
  "time": 1237241996,
  "mediantime": 1237238422,
  "nonce": 1849597497,
  "bits": "1d00ffff",
  "difficulty": 1,
  "chainwork": "00000000000000000000000000000000000000000000000000001e191e191e19",
  "nTx": 1,
  "previousblockhash": "00000000f3dcffd5da3042beb308cb56f9a2412a78b8e899bdbfd15bf50deff3",
  "nextblockhash": "00000000a3ff9826452b48a73aade6e5a4f0e64ae3fc0f923cbae50991df70f8",
  "strippedsize": 216,
  "size": 216,
  "weight": 864,
  "tx": [
    {
      "txid": "4e8b0dc57112edc8da52b59f4fa3be03426b1600718baa1ffa8411990b5b7c69",
      "hash": "4e8b0dc57112edc8da52b59f4fa3be03426b1600718baa1ffa8411990b5b7c69",
      "version": 1,
      "size": 135,
      "vsize": 135,
      "weight": 540,
      "locktime": 0,
      "vin": [
        {
          "coinbase": "04ffff001d022e04",
          "sequence": 4294967295
        }
      ],
      "vout": [
        {
          "value": 50.0,
          "n": 0,
          "scriptPubKey": {
            "asm": "04b8e1c8f3b0679cf5ab511c1a2c48f41613c520fff59c5e4b5502a0b8d17dffc6137490c77539ad94dbe33e6d057b17d24a325caf6b3299d60e256bcd2be30da9 OP_CHECKSIG",
            "desc": "pk(04b8e1c8f3b0679cf5ab511c1a2c48f41613c520fff59c5e4b5502a0b8d17dffc6137490c77539ad94dbe33e6d057b17d24a325caf6b3299d60e256bcd2be30da9)#ju4js9jq",
            "hex": "4104b8e1c8f3b0679cf5ab511c1a2c48f41613c520fff59c5e4b5502a0b8d17dffc6137490c77539ad94dbe33e6d057b17d24a325caf6b3299d60e256bcd2be30da9ac",
            "type": "pubkey"
          }
        }
      ],
      "hex": "01000000010000000000000000000000000000000000000000000000000000000000000000ffffffff0804ffff001d022e04ffffffff0100f2052a01000000434104b8e1c8f3b0679cf5ab511c1a2c48f41613c520fff59c5e4b5502a0b8d17dffc6137490c77539ad94dbe33e6d057b17d24a325caf6b3299d60e256bcd2be30da9ac00000000"
    }
  ]
}