{
  "hash": "000000001aa61392e330496cbc1a637e9254571f665ef6997ec35e8702a81e27",
  "confirmations": 46821,
  "height": 6277,
  "version": 1,
  "versionHex": "00000001",
  "merkleroot": "bb02059116ca20d20b7c38d982456098b7d9421f7ddd84bf716cf8ceaeef76f3",
  "time": 1236152408,
  "mediantime": 1236149786,
  "nonce": 4119315731,
  "bits": "1d00ffff",
  "difficulty": 1,
  "chainwork": "0000000000000000000000000000000000000000000000000000188618861886",
  "nTx": 1,
  "previousblockhash": "0000000090d2eeec877b8c4aace84e4a4cb6a0dd3757dca18baf40866d04e504",
  "nextblockhash": "000000003881d7b41d383c4aff6ba9ac7770c20035277ce2f6c041d65eaa1595",
  "strippedsize": 216,
  "size": 216,
  "weight": 864,
  "tx": [
    {
      "txid": "bb02059116ca20d20b7c38d982456098b7d9421f7ddd84bf716cf8ceaeef76f3",
      "hash": "bb02059116ca20d20b7c38d982456098b7d9421f7ddd84bf716cf8ceaeef76f3",
      "version": 1,
      "size": 135,
      "vsize": 135,
      "weight": 540,
      "locktime": 0,
      "vin": [
        {
          "coinbase": "04ffff001d02f709",
          "sequence": 4294967295
        }
      ],
      "vout": [
        {
          "value": 50.0,
          "n": 0,
          "scriptPubKey": {
            "asm": "043887a57bf3da1015856f8ce790b39b9d89d67a92bcf666ada242bf6c2bf55d9333b8466809463220456aaad98f2aa394a59228b384777bb2d675a7c70f9a8f3f OP_CHECKSIG",
            "desc": "pk(043887a57bf3da1015856f8ce790b39b9d89d67a92bcf666ada242bf6c2bf55d9333b8466809463220456aaad98f2aa394a59228b384777bb2d675a7c70f9a8f3f)#w933en3f",
            "hex": "41043887a57bf3da1015856f8ce790b39b9d89d67a92bcf666ada242bf6c2bf55d9333b8466809463220456aaad98f2aa394a59228b384777bb2d675a7c70f9a8f3fac",
            "type": "pubkey"
          }
        }
      ],
      "hex": "01000000010000000000000000000000000000000000000000000000000000000000000000ffffffff0804ffff001d02f709ffffffff0100f2052a010000004341043887a57bf3da1015856f8ce790b39b9d89d67a92bcf666ada242bf6c2bf55d9333b8466809463220456aaad98f2aa394a59228b384777bb2d675a7c70f9a8f3fac00000000"
    }
  ]
}