{
  "hash": "00000000c9f97bd791965adb77b201eaa24250c158c2feff90ee940d899f1a67",
  "confirmations": 44379,
  "height": 8719,
  "version": 1,
  "versionHex": "00000001",
  "merkleroot": "1c15b3c93340d03c3857b49050ef25af673420555daf72c016c2337628c8d4a6",
  "time": 1238035732,
  "mediantime": 1238032558,
  "nonce": 2716715814,
  "bits": "1d00ffff",
  "difficulty": 1,
  "chainwork": "0000000000000000000000000000000000000000000000000000221022102210",
  "nTx": 1,
  "previousblockhash": "0000000051a2782b66fbe81a277caf2e8ce01f784a76d4971b25490464203371",
  "nextblockhash": "0000000022e43352860ba926e8bec083b3a5813aa2765b41481120475eb5a972",
  "strippedsize": 216,
  "size": 216,
  "weight": 864,
  "tx": [
    {
      "txid": "1c15b3c93340d03c3857b49050ef25af673420555daf72c016c2337628c8d4a6",
      "hash": "1c15b3c93340d03c3857b49050ef25af673420555daf72c016c2337628c8d4a6",
      "version": 1,
      "size": 135,
      "vsize": 135,
      "weight": 540,
      "locktime": 0,
      "vin": [
        {
          "coinbase": "04ffff001d024601",
          "sequence": 4294967295
        }
      ],
      "vout": [
        {
          "value": 50.0,
          "n": 0,
          "scriptPubKey": {
            "asm": "0462fef5f44be685472806b411a3ebd148fc6767c3c89bbd62d0033f19f6fba0d1f195e339f2bfc1958ecb32806689b0b7721bab708993277e0a88d249c2e3bdac OP_CHECKSIG",
            "desc": "pk(0462fef5f44be685472806b411a3ebd148fc6767c3c89bbd62d0033f19f6fba0d1f195e339f2bfc1958ecb32806689b0b7721bab708993277e0a88d249c2e3bdac)#zqzyx64c",
            "hex": "410462fef5f44be685472806b411a3ebd148fc6767c3c89bbd62d0033f19f6fba0d1f195e339f2bfc1958ecb32806689b0b7721bab708993277e0a88d249c2e3bdacac",
            "type": "pubkey"
          }
        }
      ],
      "hex": "01000000010000000000000000000000000000000000000000000000000000000000000000ffffffff0804ffff001d024601ffffffff0100f2052a0100000043410462fef5f44be685472806b411a3ebd148fc6767c3c89bbd62d0033f19f6fba0d1f195e339f2bfc1958ecb32806689b0b7721bab708993277e0a88d249c2e3bdacac00000000"
    }
  ]
}