{
  "hash": "00000000bc61525dc9c80efe32f801de1b83082e2fd5bde14c6d7d376ed27e74",
  "confirmations": 50869,
  "height": 2229,
  "version": 1,
  "versionHex": "00000001",
  "merkleroot": "a45c90dd3f359fa4143d719af391d10523856b0d8f5eef72af0193df19d7261a",
  "time": 1233234173,
  "mediantime": 1233229987,
  "nonce": 894526494,
  "bits": "1d00ffff",
  "difficulty": 1,
  "chainwork": "000000000000000000000000000000000000000000000000000008b608b608b6",
  "nTx": 1,
  "previousblockhash": "00000000ec317a78d83bea685e0dda3c54a7961bf228619f7fcd98c7acaff834",
  "nextblockhash": "00000000835466b0506cbbb587999ef0db2ff3ae9cdb3f0a3142341742754afe",
  "strippedsize": 216,
  "size": 216,
  "weight": 864,
  "tx": [
    {
      "txid": "a45c90dd3f359fa4143d719af391d10523856b0d8f5eef72af0193df19d7261a",
      "hash": "a45c90dd3f359fa4143d719af391d10523856b0d8f5eef72af0193df19d7261a",
      "version": 1,
      "size": 135,
      "vsize": 135,
      "weight": 540,
      "locktime": 0,
      "vin": [
        {
          "coinbase": "04ffff001d02c100",
          "sequence": 4294967295
        }
      ],
      "vout": [
        {
          "value": 50.0,
          "n": 0,
          "scriptPubKey": {
            "asm": "042f8faf034bc2d8cafefeb1200d35f1a4c19233ced96cdae080ddf7bb255ab5e6e75569018f7e44447cb5e9ba58de1a5298ffb0c1d90c869c8728768e218c50ee OP_CHECKSIG",
            "desc": "pk(042f8faf034bc2d8cafefeb1200d35f1a4c19233ced96cdae080ddf7bb255ab5e6e75569018f7e44447cb5e9ba58de1a5298ffb0c1d90c869c8728768e218c50ee)#nu38g5se",
            "hex": "41042f8faf034bc2d8cafefeb1200d35f1a4c19233ced96cdae080ddf7bb255ab5e6e75569018f7e44447cb5e9ba58de1a5298ffb0c1d90c869c8728768e218c50eeac",
            "type": "pubkey"
          }
        }
      ],
      "hex": "01000000010000000000000000000000000000000000000000000000000000000000000000ffffffff0804ffff001d02c100ffffffff0100f2052a010000004341042f8faf034bc2d8cafefeb1200d35f1a4c19233ced96cdae080ddf7bb255ab5e6e75569018f7e44447cb5e9ba58de1a5298ffb0c1d90c869c8728768e218c50eeac00000000"
    }
  ]
}