{
  "hash": "00000000772003e7b81cac7d63a1195f55a321347eb0a6190140176906d64469",
  "confirmations": 51329,
  "height": 1769,
  "version": 1,
  "versionHex": "00000001",
  "merkleroot": "4d6cafd6c69341e73b63c09c1ec32b2fdded4e0b04d41b88af5afb7f18514ff1",
  "time": 1232883495,
  "mediantime": 1232880599,
  "nonce": 4242195734,
  "bits": "1d00ffff",
  "difficulty": 1,
  "chainwork": "000000000000000000000000000000000000000000000000000006ea06ea06ea",
  "nTx": 1,
  "previousblockhash": "000000002b55f8cb48deb8d6b7dc0817df9849a7e2080d9648979f0fe45d2853",
  "nextblockhash": "000000006947fb1ec7bda93f3bdb54372faaea393807409c6c7cfa236da44c8c",
  "strippedsize": 216,
  "size": 216,
  "weight": 864,
  "tx": [
    {
      "txid": "4d6cafd6c69341e73b63c09c1ec32b2fdded4e0b04d41b88af5afb7f18514ff1",
      "hash": "4d6cafd6c69341e73b63c09c1ec32b2fdded4e0b04d41b88af5afb7f18514ff1",
      "version": 1,
      "size": 135,
      "vsize": 135,
      "weight": 540,
      "locktime": 0,
      "vin": [
        {
          "coinbase": "04ffff001d029d03",
          "sequence": 4294967295
        }
      ],
      "vout": [
        {
          "value": 50.0,
          "n": 0,
          "scriptPubKey": {
            "asm": "04875d38c026e9cdf957494567d68f83aefc82798e961ff05b739ffe0c6829a9b1c2621784fc87d32ac60b4d1b5a5746ccfab5da5f2170d53883e245bc78543e7b OP_CHECKSIG",
            "desc": "pk(04875d38c026e9cdf957494567d68f83aefc82798e961ff05b739ffe0c6829a9b1c2621784fc87d32ac60b4d1b5a5746ccfab5da5f2170d53883e245bc78543e7b)#q42vxra3",
            "hex": "4104875d38c026e9cdf957494567d68f83aefc82798e961ff05b739ffe0c6829a9b1c2621784fc87d32ac60b4d1b5a5746ccfab5da5f2170d53883e245bc78543e7bac",
            "type": "pubkey"
          }
        }
      ],
      "hex": "01000000010000000000000000000000000000000000000000000000000000000000000000ffffffff0804ffff001d029d03ffffffff0100f2052a01000000434104875d38c026e9cdf957494567d68f83aefc82798e961ff05b739ffe0c6829a9b1c2621784fc87d32ac60b4d1b5a5746ccfab5da5f2170d53883e245bc78543e7bac00000000"
    }
  ]
}