{
  "hash": "00000000ebe174fde0a67963d85aca466125fadb4d993f0f23bddf5cad84f979",
  "confirmations": 44855,
  "height": 8243,
  "version": 1,
  "versionHex": "00000001",
  "merkleroot": "4f3e3e9a3327a4b030f733f2d01868a464a97a1f7c327d044a857de37fd5d1b8",
  "time": 1237691974,
  "mediantime": 1237689122,
  "nonce": 159854892,
  "bits": "1d00ffff",
  "difficulty": 1,
  "chainwork": "0000000000000000000000000000000000000000000000000000203420342034",
  "nTx": 1,
  "previousblockhash": "0000000078455a80c1a8348abff24732f7b2bfa51dc21562ca06c58a22eec69b",
  "nextblockhash": "000000008f827ad838ed6caeca6499e157f36c9983b9316bb129afe1b2fdf8f3",
  "strippedsize": 215,
  "size": 215,
  "weight": 860,
  "tx": [
    {
      "txid": "4f3e3e9a3327a4b030f733f2d01868a464a97a1f7c327d044a857de37fd5d1b8",
      "hash": "4f3e3e9a3327a4b030f733f2d01868a464a97a1f7c327d044a857de37fd5d1b8",
      "version": 1,
      "size": 134,
      "vsize": 134,
      "weight": 536,
      "locktime": 0,
      "vin": [
        {
          "coinbase": "04ffff001d0170",
          "sequence": 4294967295
        }
      ],
      "vout": [
        {
          "value": 50.0,
          "n": 0,
          "scriptPubKey": {
            "asm": "04f01e13b3fca1a5b79018ec69ee79d7e58f9b85b06fd039235f216015b0ad9928300f0db53dff166b07a60cf5eeede460bc573bf47b130027f48bfccb17f887a5 OP_CHECKSIG",
            "desc": "pk(04f01e13b3fca1a5b79018ec69ee79d7e58f9b85b06fd039235f216015b0ad9928300f0db53dff166b07a60cf5eeede460bc573bf47b130027f48bfccb17f887a5)#fg2w86vl",
            "hex": "4104f01e13b3fca1a5b79018ec69ee79d7e58f9b85b06fd039235f216015b0ad9928300f0db53dff166b07a60cf5eeede460bc573bf47b130027f48bfccb17f887a5ac",
            "type": "pubkey"
          }
        }
      ],
      "hex": "01000000010000000000000000000000000000000000000000000000000000000000000000ffffffff0704ffff001d0170ffffffff0100f2052a01000000434104f01e13b3fca1a5b79018ec69ee79d7e58f9b85b06fd039235f216015b0ad9928300f0db53dff166b07a60cf5eeede460bc573bf47b130027f48bfccb17f887a5ac00000000"
    }
  ]
}