{
  "hash": "00000000b78bd41246d3bef0b842a8880f7f5c9913fc0efe24fe9a1609cd0e17",
  "confirmations": 46889,
  "height": 6209,
  "version": 1,
  "versionHex": "00000001",
  "merkleroot": "9d0af8bbd607b506e2a397a34e1b3ec6b3c8f952b9c25bd83a9de2b35f6e92df",
  "time": 1236098797,
  "mediantime": 1236095499,
  "nonce": 284325408,
  "bits": "1d00ffff",
  "difficulty": 1,
  "chainwork": "0000000000000000000000000000000000000000000000000000184218421842",
  "nTx": 1,
  "previousblockhash": "00000000e8c79d2856b69431bdef722ba62ac6fd5eb31bd3dd4485d020c0b5a2",
  "nextblockhash": "00000000a6d82049de926fae94a37758bbb5c6ad8a301015b95b05cc096f0de4",
  "strippedsize": 216,
  "size": 216,
  "weight": 864,
  "tx": [
    {
      "txid": "9d0af8bbd607b506e2a397a34e1b3ec6b3c8f952b9c25bd83a9de2b35f6e92df",
      "hash": "9d0af8bbd607b506e2a397a34e1b3ec6b3c8f952b9c25bd83a9de2b35f6e92df",
      "version": 1,
      "size": 135,
      "vsize": 135,
      "weight": 540,
      "locktime": 0,
      "vin": [
        {
          "coinbase": "04ffff001d02a208",
          "sequence": 4294967295
        }
      ],
      "vout": [
        {
          "value": 50.0,
          "n": 0,
          "scriptPubKey": {
            "asm": "046f094b1940a9aff0dd421787610c59d78081b07ad61592d5122612e5742e6d1fc1f5e9dfb6ca4a8e6ee0e3792405c35535d391bbb0b5b4f84155e8acf172c2c2 OP_CHECKSIG",
            "desc": "pk(046f094b1940a9aff0dd421787610c59d78081b07ad61592d5122612e5742e6d1fc1f5e9dfb6ca4a8e6ee0e3792405c35535d391bbb0b5b4f84155e8acf172c2c2)#lt2v4z3e",
            "hex": "41046f094b1940a9aff0dd421787610c59d78081b07ad61592d5122612e5742e6d1fc1f5e9dfb6ca4a8e6ee0e3792405c35535d391bbb0b5b4f84155e8acf172c2c2ac",
            "type": "pubkey"
          }
        }
      ],
      "hex": "01000000010000000000000000000000000000000000000000000000000000000000000000ffffffff0804ffff001d02a208ffffffff0100f2052a010000004341046f094b1940a9aff0dd421787610c59d78081b07ad61592d5122612e5742e6d1fc1f5e9dfb6ca4a8e6ee0e3792405c35535d391bbb0b5b4f84155e8acf172c2c2ac00000000"
    }
  ]
}