{
  "hash": "00000000ed4de0a49bcbedda48fc5b1cc0f6a780cf94045c08b78f01a15da105",
  "confirmations": 44884,
  "height": 8214,
  "version": 1,
  "versionHex": "00000001",
  "merkleroot": "d605f8f22770974f3ba63dc430aa6f0e4f353f51d3f663191f65fe52e6b02217",
  "time": 1237627594,
  "mediantime": 1237611598,
  "nonce": 397950288,
  "bits": "1d00ffff",
  "difficulty": 1,
  "chainwork": "0000000000000000000000000000000000000000000000000000201720172017",
  "nTx": 1,
  "previousblockhash": "00000000209e6070638ae0e6b4e351e94ce998067af155718b18f05a59baae0c",
  "nextblockhash": "00000000da558961f9680bf78f615aae3adf53bbedaadd934d624d544c72b429",
  "strippedsize": 216,
  "size": 216,
  "weight": 864,
  "tx": [
    {
      "txid": "d605f8f22770974f3ba63dc430aa6f0e4f353f51d3f663191f65fe52e6b02217",
      "hash": "d605f8f22770974f3ba63dc430aa6f0e4f353f51d3f663191f65fe52e6b02217",
      "version": 1,
      "size": 135,
      "vsize": 135,
      "weight": 540,
      "locktime": 0,
      "vin": [
        {
          "coinbase": "04ffff001d02ca0a",
          "sequence": 4294967295
        }
      ],
      "vout": [
        {
          "value": 50.0,
          "n": 0,
          "scriptPubKey": {
            "asm": "04aa47f740de71b50bd2c335151bb6e8f447edba403fcb037823987f5f7754cda8cc05f60c75cc9975247ddbbf40e3df836ef154e3947fa92a494525aef2ae9f8a OP_CHECKSIG",
            "desc": "pk(04aa47f740de71b50bd2c335151bb6e8f447edba403fcb037823987f5f7754cda8cc05f60c75cc9975247ddbbf40e3df836ef154e3947fa92a494525aef2ae9f8a)#ju3kley7",
            "hex": "4104aa47f740de71b50bd2c335151bb6e8f447edba403fcb037823987f5f7754cda8cc05f60c75cc9975247ddbbf40e3df836ef154e3947fa92a494525aef2ae9f8aac",
            "type": "pubkey"
          }
        }
      ],
      "hex": "01000000010000000000000000000000000000000000000000000000000000000000000000ffffffff0804ffff001d02ca0affffffff0100f2052a01000000434104aa47f740de71b50bd2c335151bb6e8f447edba403fcb037823987f5f7754cda8cc05f60c75cc9975247ddbbf40e3df836ef154e3947fa92a494525aef2ae9f8aac00000000"
    }
  ]
}