{
  "hash": "000000004b803960d7ba557bea43d87d84616871bdc16449c862ac3e39b125fb",
  "confirmations": 44013,
  "height": 9085,
  "version": 1,
  "versionHex": "00000001",
  "merkleroot": "124f87d7f9b66ed1fad174a3f8c8dbd6a9b7d86761ac72d9bbcaa6228d77795f",
  "time": 1238321165,
  "mediantime": 1238317265,
  "nonce": 2686022677,
  "bits": "1d00ffff",
  "difficulty": 1,
  "chainwork": "0000000000000000000000000000000000000000000000000000237e237e237e",
  "nTx": 1,
  "previousblockhash": "000000005da08bbaf957e1435eb426248e1901db44c2a541992b560c9fd9246c",
  "nextblockhash": "000000006fc7695e3f72a7c86d5ff978c37737a57a4ad5d157eaa0a62b07905c",
  "strippedsize": 216,
  "size": 216,
  "weight": 864,
  "tx": [
    {
      "txid": "124f87d7f9b66ed1fad174a3f8c8dbd6a9b7d86761ac72d9bbcaa6228d77795f",
      "hash": "124f87d7f9b66ed1fad174a3f8c8dbd6a9b7d86761ac72d9bbcaa6228d77795f",
      "version": 1,
      "size": 135,
      "vsize": 135,
      "weight": 540,
      "locktime": 0,
      "vin": [
        {
          "coinbase": "04ffff001d021408",
          "sequence": 4294967295
        }
      ],
      "vout": [
        {
          "value": 50.0,
          "n": 0,
          "scriptPubKey": {
            "asm": "04e1dfb0293ee8dbea58bd1fa03eb08e93babf6945a24b603a45f981df5abdb63db2eecd760d88506c2e601d396a76c67b6b7fc1b29825299494c384a4e7ea2dd0 OP_CHECKSIG",
            "desc": "pk(04e1dfb0293ee8dbea58bd1fa03eb08e93babf6945a24b603a45f981df5abdb63db2eecd760d88506c2e601d396a76c67b6b7fc1b29825299494c384a4e7ea2dd0)#49hk58ea",
            "hex": "4104e1dfb0293ee8dbea58bd1fa03eb08e93babf6945a24b603a45f981df5abdb63db2eecd760d88506c2e601d396a76c67b6b7fc1b29825299494c384a4e7ea2dd0ac",
            "type": "pubkey"
          }
        }
      ],
      "hex": "01000000010000000000000000000000000000000000000000000000000000000000000000ffffffff0804ffff001d021408ffffffff0100f2052a01000000434104e1dfb0293ee8dbea58bd1fa03eb08e93babf6945a24b603a45f981df5abdb63db2eecd760d88506c2e601d396a76c67b6b7fc1b29825299494c384a4e7ea2dd0ac00000000"
    }
  ]
}