{
  "hash": "00000000230110ed88fa279e1010c73ab127db68f71c30c56ec948fa4285e38c",
  "confirmations": 46417,
  "height": 6681,
  "version": 1,
  "versionHex": "00000001",
  "merkleroot": "93f3b98d39fc8dc6c6d7126e49ecbffd16a947e9cc9b245056444e3b0db352d6",
  "time": 1236468790,
  "mediantime": 1236464875,
  "nonce": 1060950059,
  "bits": "1d00ffff",
  "difficulty": 1,
  "chainwork": "00000000000000000000000000000000000000000000000000001a1a1a1a1a1a",
  "nTx": 1,
  "previousblockhash": "00000000d43b85a4b11117fb10fb65640cbd2e9df0152547c6828157f03a663c",
  "nextblockhash": "00000000a9b419e308486b4c45db8b876ef895409d7881f37ca6223a0d3d54b0",
  "strippedsize": 216,
  "size": 216,
  "weight": 864,
  "tx": [
    {
      "txid": "93f3b98d39fc8dc6c6d7126e49ecbffd16a947e9cc9b245056444e3b0db352d6",
      "hash": "93f3b98d39fc8dc6c6d7126e49ecbffd16a947e9cc9b245056444e3b0db352d6",
      "version": 1,
      "size": 135,
      "vsize": 135,
      "weight": 540,
      "locktime": 0,
      "vin": [
        {
          "coinbase": "04ffff001d029d06",
          "sequence": 4294967295
        }
      ],
      "vout": [
        {
          "value": 50.0,
          "n": 0,
          "scriptPubKey": {
            "asm": "042865dc7b5e1a625b0ad356618cb916beae3e686b7611424c07a2ea885e97ca529ffdb592a5e715fe7958e7a300fff73db1a8f659aa55e72bf36a4d5be0aa6c22 OP_CHECKSIG",
            "desc": "pk(042865dc7b5e1a625b0ad356618cb916beae3e686b7611424c07a2ea885e97ca529ffdb592a5e715fe7958e7a300fff73db1a8f659aa55e72bf36a4d5be0aa6c22)#cx6q86u5",
            "hex": "41042865dc7b5e1a625b0ad356618cb916beae3e686b7611424c07a2ea885e97ca529ffdb592a5e715fe7958e7a300fff73db1a8f659aa55e72bf36a4d5be0aa6c22ac",
            "type": "pubkey"
          }
        }
      ],
      "hex": "01000000010000000000000000000000000000000000000000000000000000000000000000ffffffff0804ffff001d029d06ffffffff0100f2052a010000004341042865dc7b5e1a625b0ad356618cb916beae3e686b7611424c07a2ea885e97ca529ffdb592a5e715fe7958e7a300fff73db1a8f659aa55e72bf36a4d5be0aa6c22ac00000000"
    }
  ]
}