{
  "hash": "000000004d8ea04709f1a7900af251f3e92a3f897222ad59be3fea34977afb36",
  "confirmations": 52223,
  "height": 875,
  "version": 1,
  "versionHex": "00000001",
  "merkleroot": "4e0c7429b03410234e029ee0cb38f9fdd13f28cc854dc6a8b9d9dc9d75537c69",
  "time": 1232252663,
  "mediantime": 1232247477,
  "nonce": 595230233,
  "bits": "1d00ffff",
  "difficulty": 1,
  "chainwork": "0000000000000000000000000000000000000000000000000000036c036c036c",
  "nTx": 1,
  "previousblockhash": "000000008edcba2d1a4982ec30dabb6465f5f3922fe39fb14f8d285f02b49879",
  "nextblockhash": "00000000f8a387a6c5e6f093d97339ed517f2ee6592168556f761a758b82a983",
  "strippedsize": 216,
  "size": 216,
  "weight": 864,
  "tx": [
    {
      "txid": "4e0c7429b03410234e029ee0cb38f9fdd13f28cc854dc6a8b9d9dc9d75537c69",
      "hash": "4e0c7429b03410234e029ee0cb38f9fdd13f28cc854dc6a8b9d9dc9d75537c69",
      "version": 1,
      "size": 135,
      "vsize": 135,
      "weight": 540,
      "locktime": 0,
      "vin": [
        {
          "coinbase": "04ffff001d021503",
          "sequence": 4294967295
        }
      ],
      "vout": [
        {
          "value": 50.0,
          "n": 0,
          "scriptPubKey": {
            "asm": "047aa44a7dba588b1df1bc31130798e4ae0e2f906eb767e1d5c05ebee02bf3e886835d520c555f1c1775bb397519943b39de0f717d70f4b5def359c326db1699fa OP_CHECKSIG",
            "desc": "pk(047aa44a7dba588b1df1bc31130798e4ae0e2f906eb767e1d5c05ebee02bf3e886835d520c555f1c1775bb397519943b39de0f717d70f4b5def359c326db1699fa)#g8ce2hve",
            "hex": "41047aa44a7dba588b1df1bc31130798e4ae0e2f906eb767e1d5c05ebee02bf3e886835d520c555f1c1775bb397519943b39de0f717d70f4b5def359c326db1699faac",
            "type": "pubkey"
          }
        }
      ],
      "hex": "01000000010000000000000000000000000000000000000000000000000000000000000000ffffffff0804ffff001d021503ffffffff0100f2052a010000004341047aa44a7dba588b1df1bc31130798e4ae0e2f906eb767e1d5c05ebee02bf3e886835d520c555f1c1775bb397519943b39de0f717d70f4b5def359c326db1699faac00000000"
    }
  ]
}