{
  "hash": "0000000015f1e7ff92e9d45060742576ea20bd23f022425ad5866d18918a6257",
  "confirmations": 46201,
  "height": 6897,
  "version": 1,
  "versionHex": "00000001",
  "merkleroot": "5d1c5fbb15b3be89aaee8e69528d431ebc73f9095b1f49c30b0404af6156a54b",
  "time": 1236634488,
  "mediantime": 1236631249,
  "nonce": 4189217059,
  "bits": "1d00ffff",
  "difficulty": 1,
  "chainwork": "00000000000000000000000000000000000000000000000000001af21af21af2",
  "nTx": 1,
  "previousblockhash": "00000000f41cdea74d54ba0783469e09b6f34ceab6542260f6428c890059b57f",
  "nextblockhash": "00000000986c05c1a1eb41f01d51b3fdcf6b566fdd549fc32be58d4a1b792ff9",
  "strippedsize": 215,
  "size": 215,
  "weight": 860,
  "tx": [
    {
      "txid": "5d1c5fbb15b3be89aaee8e69528d431ebc73f9095b1f49c30b0404af6156a54b",
      "hash": "5d1c5fbb15b3be89aaee8e69528d431ebc73f9095b1f49c30b0404af6156a54b",
      "version": 1,
      "size": 134,
      "vsize": 134,
      "weight": 536,
      "locktime": 0,
      "vin": [
        {
          "coinbase": "04ffff001d014a",
          "sequence": 4294967295
        }
      ],
      "vout": [
        {
          "value": 50.0,
          "n": 0,
          "scriptPubKey": {
            "asm": "0465d2a7c3b233a90b87ac3e7842dd182b578cbf03eb672077ebed2c2c69951b8bf400487ea9c2aa292911ffd7ecb394e6a2b42f46202ca9e483dec917fabfbcb8 OP_CHECKSIG",
            "desc": "pk(0465d2a7c3b233a90b87ac3e7842dd182b578cbf03eb672077ebed2c2c69951b8bf400487ea9c2aa292911ffd7ecb394e6a2b42f46202ca9e483dec917fabfbcb8)#wlfkp85g",
            "hex": "410465d2a7c3b233a90b87ac3e7842dd182b578cbf03eb672077ebed2c2c69951b8bf400487ea9c2aa292911ffd7ecb394e6a2b42f46202ca9e483dec917fabfbcb8ac",
            "type": "pubkey"
          }
        }
      ],
      "hex": "01000000010000000000000000000000000000000000000000000000000000000000000000ffffffff0704ffff001d014affffffff0100f2052a0100000043410465d2a7c3b233a90b87ac3e7842dd182b578cbf03eb672077ebed2c2c69951b8bf400487ea9c2aa292911ffd7ecb394e6a2b42f46202ca9e483dec917fabfbcb8ac00000000"
    }
  ]
}