{
  "hash": "000000004eda6096f1224f4643bf7fd12bc7c058f863d378da470f15efc14b43",
  "confirmations": 47011,
  "height": 6087,
  "version": 1,
  "versionHex": "00000001",
  "merkleroot": "e9ab19dff68cf4a29890c03605cc9d66affc29f0ff8cc2190e0c92b721f462e9",
  "time": 1235998584,
  "mediantime": 1235994722,
  "nonce": 2777133103,
  "bits": "1d00ffff",
  "difficulty": 1,
  "chainwork": "000000000000000000000000000000000000000000000000000017c817c817c8",
  "nTx": 1,
  "previousblockhash": "00000000e758d6db2b6d4fbe5733d28740a97ef2a10d71cdcd12060a6b2cae66",
  "nextblockhash": "000000009da7847f369b41a097529cdb499668d28a6df3e85d0470fe405560ba",
  "strippedsize": 216,
  "size": 216,
  "weight": 864,
  "tx": [
    {
      "txid": "e9ab19dff68cf4a29890c03605cc9d66affc29f0ff8cc2190e0c92b721f462e9",
      "hash": "e9ab19dff68cf4a29890c03605cc9d66affc29f0ff8cc2190e0c92b721f462e9",
      "version": 1,
      "size": 135,
      "vsize": 135,
      "weight": 540,
      "locktime": 0,
      "vin": [
        {
          "coinbase": "04ffff001d028a06",
          "sequence": 4294967295
        }
      ],
      "vout": [
        {
          "value": 50.0,
          "n": 0,
          "scriptPubKey": {
            "asm": "04aa4a09d4d86fee334bd53eef7a07c8a30423906e6dddeade0e13740a2b6f13b34cff95e42927283a904d5e8676bd4c96ed0ff22b4aee0d38e49bdbca03f771f2 OP_CHECKSIG",
            "desc": "pk(04aa4a09d4d86fee334bd53eef7a07c8a30423906e6dddeade0e13740a2b6f13b34cff95e42927283a904d5e8676bd4c96ed0ff22b4aee0d38e49bdbca03f771f2)#vzy2n03j",
            "hex": "4104aa4a09d4d86fee334bd53eef7a07c8a30423906e6dddeade0e13740a2b6f13b34cff95e42927283a904d5e8676bd4c96ed0ff22b4aee0d38e49bdbca03f771f2ac",
            "type": "pubkey"
          }
        }
      ],
      "hex": "01000000010000000000000000000000000000000000000000000000000000000000000000ffffffff0804ffff001d028a06ffffffff0100f2052a01000000434104aa4a09d4d86fee334bd53eef7a07c8a30423906e6dddeade0e13740a2b6f13b34cff95e42927283a904d5e8676bd4c96ed0ff22b4aee0d38e49bdbca03f771f2ac00000000"
    }
  ]
}