{
  "hash": "000000003063fd14262be0e5966d703f25b6a28ea42af2f660be9b4cf254928e",
  "confirmations": 51902,
  "height": 1196,
  "version": 1,
  "versionHex": "00000001",
  "merkleroot": "f641ee08fb228a1391d20b4e328c4f51e1b13f0d25dac945893921976e76e140",
  "time": 1232497364,
  "mediantime": 1232494808,
  "nonce": 2774084652,
  "bits": "1d00ffff",
  "difficulty": 1,
  "chainwork": "000000000000000000000000000000000000000000000000000004ad04ad04ad",
  "nTx": 1,
  "previousblockhash": "00000000de5ea50cd028c0e08832cfdba57006eeff83d745aa8debdec130d760",
  "nextblockhash": "00000000de70372d549238784fce4946fc7d30cb7f8187588d937b76ba7e2fe1",
  "strippedsize": 216,
  "size": 216,
  "weight": 864,
  "tx": [
    {
      "txid": "f641ee08fb228a1391d20b4e328c4f51e1b13f0d25dac945893921976e76e140",
      "hash": "f641ee08fb228a1391d20b4e328c4f51e1b13f0d25dac945893921976e76e140",
      "version": 1,
      "size": 135,
      "vsize": 135,
      "weight": 540,
      "locktime": 0,
      "vin": [
        {
          "coinbase": "04ffff001d029908",
          "sequence": 4294967295
        }
      ],
      "vout": [
        {
          "value": 50.0,
          "n": 0,
          "scriptPubKey": {
            "asm": "0475511a7b74b29d54ae3acbd45c5bb0a043f7a40a85ff33706aa730e248ab8956bd73ca2a9d4de4af4069ef33764157f263118994f7ac68043d47ace995ab6cb8 OP_CHECKSIG",
            "desc": "pk(0475511a7b74b29d54ae3acbd45c5bb0a043f7a40a85ff33706aa730e248ab8956bd73ca2a9d4de4af4069ef33764157f263118994f7ac68043d47ace995ab6cb8)#htryjqmt",
            "hex": "410475511a7b74b29d54ae3acbd45c5bb0a043f7a40a85ff33706aa730e248ab8956bd73ca2a9d4de4af4069ef33764157f263118994f7ac68043d47ace995ab6cb8ac",
            "type": "pubkey"
          }
        }
      ],
      "hex": "01000000010000000000000000000000000000000000000000000000000000000000000000ffffffff0804ffff001d029908ffffffff0100f2052a0100000043410475511a7b74b29d54ae3acbd45c5bb0a043f7a40a85ff33706aa730e248ab8956bd73ca2a9d4de4af4069ef33764157f263118994f7ac68043d47ace995ab6cb8ac00000000"
    }
  ]
}