{
  "hash": "0000000096c22cc70e57f530e99fb47133767dae4d7708b0d740bb560c2ace70",
  "confirmations": 46493,
  "height": 6605,
  "version": 1,
  "versionHex": "00000001",
  "merkleroot": "d95e42c54793304c2062465c47d8078fc7da411eeb052ca7038d5909d20dabcf",
  "time": 1236409547,
  "mediantime": 1236406309,
  "nonce": 1429145138,
  "bits": "1d00ffff",
  "difficulty": 1,
  "chainwork": "000000000000000000000000000000000000000000000000000019ce19ce19ce",
  "nTx": 1,
  "previousblockhash": "0000000032c77420b3b96781f8e5fbbaa880741cb8394df821a4ec4660ad8436",
  "nextblockhash": "00000000bc0d16fc430f40453a9e9e111abce5d406ca190919975dcd07df4f10",
  "strippedsize": 216,
  "size": 216,
  "weight": 864,
  "tx": [
    {
      "txid": "d95e42c54793304c2062465c47d8078fc7da411eeb052ca7038d5909d20dabcf",
      "hash": "d95e42c54793304c2062465c47d8078fc7da411eeb052ca7038d5909d20dabcf",
      "version": 1,
      "size": 135,
      "vsize": 135,
      "weight": 540,
      "locktime": 0,
      "vin": [
        {
          "coinbase": "04ffff001d023305",
          "sequence": 4294967295
        }
      ],
      "vout": [
        {
          "value": 50.0,
          "n": 0,
          "scriptPubKey": {
            "asm": "0403150b6d99c7d1daa551b80cc25ee4be80ceac0ecad31a4626ea5820e43052260e524600a6193b9a9c168a10ddc178072117f62b670570368d97b770b5bc0b07 OP_CHECKSIG",
            "desc": "pk(0403150b6d99c7d1daa551b80cc25ee4be80ceac0ecad31a4626ea5820e43052260e524600a6193b9a9c168a10ddc178072117f62b670570368d97b770b5bc0b07)#x6p3kl4e",
            "hex": "410403150b6d99c7d1daa551b80cc25ee4be80ceac0ecad31a4626ea5820e43052260e524600a6193b9a9c168a10ddc178072117f62b670570368d97b770b5bc0b07ac",
            "type": "pubkey"
          }
        }
      ],
      "hex": "01000000010000000000000000000000000000000000000000000000000000000000000000ffffffff0804ffff001d023305ffffffff0100f2052a0100000043410403150b6d99c7d1daa551b80cc25ee4be80ceac0ecad31a4626ea5820e43052260e524600a6193b9a9c168a10ddc178072117f62b670570368d97b770b5bc0b07ac00000000"
    }
  ]
}