{
  "hash": "0000000005293c54b44c3ae0230ebe9efab661dd7b3068fa44ad33e872282363",
  "confirmations": 50797,
  "height": 2301,
  "version": 1,
  "versionHex": "00000001",
  "merkleroot": "99508053f3b0a75ec2846ca351003b6345298f5d02986fc78e8204b70a5aca98",
  "time": 1233280035,
  "mediantime": 1233277280,
  "nonce": 2359994914,
  "bits": "1d00ffff",
  "difficulty": 1,
  "chainwork": "000000000000000000000000000000000000000000000000000008fe08fe08fe",
  "nTx": 1,
  "previousblockhash": "0000000091a5fdf4b5f5fe07ed869bf82049b3d61a403f2771b5cbd1937dad09",
  "nextblockhash": "00000000c00a1d667be37a43eb5e5f2a409cc0a72d9f3fa89a42d41409cd5ba4",
  "strippedsize": 216,
  "size": 216,
  "weight": 864,
  "tx": [
    {
      "txid": "99508053f3b0a75ec2846ca351003b6345298f5d02986fc78e8204b70a5aca98",
      "hash": "99508053f3b0a75ec2846ca351003b6345298f5d02986fc78e8204b70a5aca98",
      "version": 1,
      "size": 135,
      "vsize": 135,
      "weight": 540,
      "locktime": 0,
      "vin": [
        {
          "coinbase": "04ffff001d02b001",
          "sequence": 4294967295
        }
      ],
      "vout": [
        {
          "value": 50.0,
          "n": 0,
          "scriptPubKey": {
            "asm": "044aa4e96d8cf8682cc97ada1b8ca1d55b9cdedd0d3f1142d0d8e9ab84cd94a572899f5f319fda55f2f5e7338751d65590d58ce1f5aa7c106993761dcc62890ab4 OP_CHECKSIG",
            "desc": "pk(044aa4e96d8cf8682cc97ada1b8ca1d55b9cdedd0d3f1142d0d8e9ab84cd94a572899f5f319fda55f2f5e7338751d65590d58ce1f5aa7c106993761dcc62890ab4)#zsfsm8fz",
            "hex": "41044aa4e96d8cf8682cc97ada1b8ca1d55b9cdedd0d3f1142d0d8e9ab84cd94a572899f5f319fda55f2f5e7338751d65590d58ce1f5aa7c106993761dcc62890ab4ac",
            "type": "pubkey"
          }
        }
      ],
      "hex": "01000000010000000000000000000000000000000000000000000000000000000000000000ffffffff0804ffff001d02b001ffffffff0100f2052a010000004341044aa4e96d8cf8682cc97ada1b8ca1d55b9cdedd0d3f1142d0d8e9ab84cd94a572899f5f319fda55f2f5e7338751d65590d58ce1f5aa7c106993761dcc62890ab4ac00000000"
    }
  ]
}