{
  "hash": "000000009bcc11b4dd61107e161624fd908a034fe873d665bbf995955d1e8aa5",
  "confirmations": 46318,
  "height": 6780,
  "version": 1,
  "versionHex": "00000001",
  "merkleroot": "54062c3ece6983b5ca6b0d54f173cfa6eb7ca13cbf54480f6a472a60ce1a391a",
  "time": 1236544197,
  "mediantime": 1236540821,
  "nonce": 491171883,
  "bits": "1d00ffff",
  "difficulty": 1,
  "chainwork": "00000000000000000000000000000000000000000000000000001a7d1a7d1a7d",
  "nTx": 1,
  "previousblockhash": "0000000039bd5d3dbbb145e86c87cbc510534dc0375f7e35874f2307feff05b5",
  "nextblockhash": "00000000336e4ea5c4aaf6ab1ca364716f61a80700d3daec209989d8611bf6f6",
  "strippedsize": 216,
  "size": 216,
  "weight": 864,
  "tx": [
    {
      "txid": "54062c3ece6983b5ca6b0d54f173cfa6eb7ca13cbf54480f6a472a60ce1a391a",
      "hash": "54062c3ece6983b5ca6b0d54f173cfa6eb7ca13cbf54480f6a472a60ce1a391a",
      "version": 1,
      "size": 135,
      "vsize": 135,
      "weight": 540,
      "locktime": 0,
      "vin": [
        {
          "coinbase": "04ffff001d028e08",
          "sequence": 4294967295
        }
      ],
      "vout": [
        {
          "value": 50.0,
          "n": 0,
          "scriptPubKey": {
            "asm": "0425a0b2a0f273bf8934f6c1e9107ed474776773ff7ca33863016be0ab18f5db8c35ad94484cf0f13c52580ab6c9ba1af7143d2166d4981651b049995e626da26c OP_CHECKSIG",
            "desc": "pk(0425a0b2a0f273bf8934f6c1e9107ed474776773ff7ca33863016be0ab18f5db8c35ad94484cf0f13c52580ab6c9ba1af7143d2166d4981651b049995e626da26c)#acdjprep",
            "hex": "410425a0b2a0f273bf8934f6c1e9107ed474776773ff7ca33863016be0ab18f5db8c35ad94484cf0f13c52580ab6c9ba1af7143d2166d4981651b049995e626da26cac",
            "type": "pubkey"
          }
        }
      ],
      "hex": "01000000010000000000000000000000000000000000000000000000000000000000000000ffffffff0804ffff001d028e08ffffffff0100f2052a0100000043410425a0b2a0f273bf8934f6c1e9107ed474776773ff7ca33863016be0ab18f5db8c35ad94484cf0f13c52580ab6c9ba1af7143d2166d4981651b049995e626da26cac00000000"
    }
  ]
}