{
  "hash": "000000000674ff0ad49b195652ef85d01eb574790cb4331e711f7c1b5191363d",
  "confirmations": 51535,
  "height": 1563,
  "version": 1,
  "versionHex": "00000001",
  "merkleroot": "815af3af1d3bf6f9c8fdb53abb7f184222a4bf1630d74dbb8cd4b80904955c39",
  "time": 1232796127,
  "mediantime": 1232793306,
  "nonce": 819373577,
  "bits": "1d00ffff",
  "difficulty": 1,
  "chainwork": "0000000000000000000000000000000000000000000000000000061c061c061c",
  "nTx": 1,
  "previousblockhash": "000000000690f09d47a1b20d08342d819daba7faea8abe7ea7110c045883cbd6",
  "nextblockhash": "00000000504c3d6d65cc9ca8f760598faec82b28df88551de71c653b3c89c95f",
  "strippedsize": 216,
  "size": 216,
  "weight": 864,
  "tx": [
    {
      "txid": "815af3af1d3bf6f9c8fdb53abb7f184222a4bf1630d74dbb8cd4b80904955c39",
      "hash": "815af3af1d3bf6f9c8fdb53abb7f184222a4bf1630d74dbb8cd4b80904955c39",
      "version": 1,
      "size": 135,
      "vsize": 135,
      "weight": 540,
      "locktime": 0,
      "vin": [
        {
          "coinbase": "04ffff001d02d901",
          "sequence": 4294967295
        }
      ],
      "vout": [
        {
          "value": 50.0,
          "n": 0,
          "scriptPubKey": {
            "asm": "04829d0016571c75187bbb1da7fb3bbaac49dab8ff4b5acf9dad3c4523031b4bfbf6e40345dba05d5dd9eb2b2a94eef6a429a08eab6797ade14e1cdc58589ea684 OP_CHECKSIG",
            "desc": "pk(04829d0016571c75187bbb1da7fb3bbaac49dab8ff4b5acf9dad3c4523031b4bfbf6e40345dba05d5dd9eb2b2a94eef6a429a08eab6797ade14e1cdc58589ea684)#0nxl9pq3",
            "hex": "4104829d0016571c75187bbb1da7fb3bbaac49dab8ff4b5acf9dad3c4523031b4bfbf6e40345dba05d5dd9eb2b2a94eef6a429a08eab6797ade14e1cdc58589ea684ac",
            "type": "pubkey"
          }
        }
      ],
      "hex": "01000000010000000000000000000000000000000000000000000000000000000000000000ffffffff0804ffff001d02d901ffffffff0100f2052a01000000434104829d0016571c75187bbb1da7fb3bbaac49dab8ff4b5acf9dad3c4523031b4bfbf6e40345dba05d5dd9eb2b2a94eef6a429a08eab6797ade14e1cdc58589ea684ac00000000"
    }
  ]
}