{
  "hash": "000000007db5065b2afe36a0551fa800050a5e11e5d3adf00c7be82af557199b",
  "confirmations": 51868,
  "height": 1230,
  "version": 1,
  "versionHex": "00000001",
  "merkleroot": "69ad6247a321f9e67c8c55503ff6effc595dbf529e2622c9e64f20118a61387f",
  "time": 1232523624,
  "mediantime": 1232520307,
  "nonce": 1824941623,
  "bits": "1d00ffff",
  "difficulty": 1,
  "chainwork": "000000000000000000000000000000000000000000000000000004cf04cf04cf",
  "nTx": 1,
  "previousblockhash": "00000000b4eb604337ef2a438539f7893bcb4e47d3eb97b4057da9f34a2b0c41",
  "nextblockhash": "00000000c27f99b034e535f4fb1052bbefce5886bd2f7bac945ea4a31a71f829",
  "strippedsize": 216,
  "size": 216,
  "weight": 864,
  "tx": [
    {
      "txid": "69ad6247a321f9e67c8c55503ff6effc595dbf529e2622c9e64f20118a61387f",
      "hash": "69ad6247a321f9e67c8c55503ff6effc595dbf529e2622c9e64f20118a61387f",
      "version": 1,
      "size": 135,
      "vsize": 135,
      "weight": 540,
      "locktime": 0,
      "vin": [
        {
          "coinbase": "04ffff001d021f09",
          "sequence": 4294967295
        }
      ],
      "vout": [
        {
          "value": 50.0,
          "n": 0,
          "scriptPubKey": {
            "asm": "04643cebf1d0181603dc88f74c8aa001dcbd9bb3e226d6900ce249749e8f8e080de23aaa47edfe9ed831eab797d5a952a0a11b2c00493cd9630687ed469750882a OP_CHECKSIG",
            "desc": "pk(04643cebf1d0181603dc88f74c8aa001dcbd9bb3e226d6900ce249749e8f8e080de23aaa47edfe9ed831eab797d5a952a0a11b2c00493cd9630687ed469750882a)#2uljawxf",
            "hex": "4104643cebf1d0181603dc88f74c8aa001dcbd9bb3e226d6900ce249749e8f8e080de23aaa47edfe9ed831eab797d5a952a0a11b2c00493cd9630687ed469750882aac",
            "type": "pubkey"
          }
        }
      ],
      "hex": "01000000010000000000000000000000000000000000000000000000000000000000000000ffffffff0804ffff001d021f09ffffffff0100f2052a01000000434104643cebf1d0181603dc88f74c8aa001dcbd9bb3e226d6900ce249749e8f8e080de23aaa47edfe9ed831eab797d5a952a0a11b2c00493cd9630687ed469750882aac00000000"
    }
  ]
}