{
  "hash": "00000000f42278032e65a8fc09a41fbbd1779421d166e59c205a37b6fdad1340",
  "confirmations": 51080,
  "height": 2018,
  "version": 1,
  "versionHex": "00000001",
  "merkleroot": "4f36847fe29c9a6d9f8bd4f6924a97f5aedc6fee19d5558392b11e3b6f2f1b98",
  "time": 1233065969,
  "mediantime": 1233060081,
  "nonce": 1474415380,
  "bits": "1d00ffff",
  "difficulty": 1,
  "chainwork": "000000000000000000000000000000000000000000000000000007e307e307e3",
  "nTx": 1,
  "previousblockhash": "00000000a30d73bbfe167ace49a48042099ea64bab675611e29545a7abe06dee",
  "nextblockhash": "00000000fa26cfce2cdce6a5df7491f71cdfc8e75c61b6e26ecdd361ff052763",
  "strippedsize": 216,
  "size": 216,
  "weight": 864,
  "tx": [
    {
      "txid": "4f36847fe29c9a6d9f8bd4f6924a97f5aedc6fee19d5558392b11e3b6f2f1b98",
      "hash": "4f36847fe29c9a6d9f8bd4f6924a97f5aedc6fee19d5558392b11e3b6f2f1b98",
      "version": 1,
      "size": 135,
      "vsize": 135,
      "weight": 540,
      "locktime": 0,
      "vin": [
        {
          "coinbase": "04ffff001d020a02",
          "sequence": 4294967295
        }
      ],
      "vout": [
        {
          "value": 50.0,
          "n": 0,
          "scriptPubKey": {
            "asm": "04717d69e78ff601ae55655504c1a1355d0841b410ef5a6022bbc97dc227041bbc2195fe12ffd9068c856c5efc8c522733ab17fad4e68500328d30008ba8ee8103 OP_CHECKSIG",
            "desc": "pk(04717d69e78ff601ae55655504c1a1355d0841b410ef5a6022bbc97dc227041bbc2195fe12ffd9068c856c5efc8c522733ab17fad4e68500328d30008ba8ee8103)#xf6asplw",
            "hex": "4104717d69e78ff601ae55655504c1a1355d0841b410ef5a6022bbc97dc227041bbc2195fe12ffd9068c856c5efc8c522733ab17fad4e68500328d30008ba8ee8103ac",
            "type": "pubkey"
          }
        }
      ],
      "hex": "01000000010000000000000000000000000000000000000000000000000000000000000000ffffffff0804ffff001d020a02ffffffff0100f2052a01000000434104717d69e78ff601ae55655504c1a1355d0841b410ef5a6022bbc97dc227041bbc2195fe12ffd9068c856c5efc8c522733ab17fad4e68500328d30008ba8ee8103ac00000000"
    }
  ]
}