{
  "hash": "000000007838923a6208aa50e3a758d28faeddd2d710d0c2056656eb02422345",
  "confirmations": 43368,
  "height": 9730,
  "version": 1,
  "versionHex": "00000001",
  "merkleroot": "82c284faebaad10a2c9458c3c43b30eb775c03e8cb17b71ba61183256d659451",
  "time": 1238800278,
  "mediantime": 1238797361,
  "nonce": 2854747170,
  "bits": "1d00ffff",
  "difficulty": 1,
  "chainwork": "0000000000000000000000000000000000000000000000000000260326032603",
  "nTx": 1,
  "previousblockhash": "0000000075d570602de5c172f1c16a5d6f7f3ffd063a6c413042863742ec3473",
  "nextblockhash": "00000000e7c9fde0d160a3672029ad6a96c3098b3b95aa906d0dad9265f5aeb6",
  "strippedsize": 216,
  "size": 216,
  "weight": 864,
  "tx": [
    {
      "txid": "82c284faebaad10a2c9458c3c43b30eb775c03e8cb17b71ba61183256d659451",
      "hash": "82c284faebaad10a2c9458c3c43b30eb775c03e8cb17b71ba61183256d659451",
      "version": 1,
      "size": 135,
      "vsize": 135,
      "weight": 540,
      "locktime": 0,
      "vin": [
        {
          "coinbase": "04ffff001d020f09",
          "sequence": 4294967295
        }
      ],
      "vout": [
        {
          "value": 50.0,
          "n": 0,
          "scriptPubKey": {
            "asm": "042ccb05f5f382fbde4cf448ddf71fbb8fc785e4e20262080c04b77290b54d5c39b15c84edd733c5c1b3f6c5d2fc3dd6739a362d51c7311205dd509930e3f293ec OP_CHECKSIG",
            "desc": "pk(042ccb05f5f382fbde4cf448ddf71fbb8fc785e4e20262080c04b77290b54d5c39b15c84edd733c5c1b3f6c5d2fc3dd6739a362d51c7311205dd509930e3f293ec)#ve526n04",
            "hex": "41042ccb05f5f382fbde4cf448ddf71fbb8fc785e4e20262080c04b77290b54d5c39b15c84edd733c5c1b3f6c5d2fc3dd6739a362d51c7311205dd509930e3f293ecac",
            "type": "pubkey"
          }
        }
      ],
      "hex": "01000000010000000000000000000000000000000000000000000000000000000000000000ffffffff0804ffff001d020f09ffffffff0100f2052a010000004341042ccb05f5f382fbde4cf448ddf71fbb8fc785e4e20262080c04b77290b54d5c39b15c84edd733c5c1b3f6c5d2fc3dd6739a362d51c7311205dd509930e3f293ecac00000000"
    }
  ]
}