{
  "hash": "00000000921ac50edf3fb0fa9e18cc12cd547df29fd5bf1ecd7332b63875a2d9",
  "confirmations": 49980,
  "height": 3118,
  "version": 1,
  "versionHex": "00000001",
  "merkleroot": "8a02b86f20789e3766792be837c3aac6ce2c055a14c3bb9c71eddbc69f03ac78",
  "time": 1233847305,
  "mediantime": 1233844702,
  "nonce": 2946065174,
  "bits": "1d00ffff",
  "difficulty": 1,
  "chainwork": "00000000000000000000000000000000000000000000000000000c2f0c2f0c2f",
  "nTx": 1,
  "previousblockhash": "0000000018603fc7460da87634d23439e7090b4d5f34a475363c480f9a2c6308",
  "nextblockhash": "000000005e2c51decc88e4d8e3147eb7573bd5e168648fe06c18e9f3e9a8f2cb",
  "strippedsize": 216,
  "size": 216,
  "weight": 864,
  "tx": [
    {
      "txid": "8a02b86f20789e3766792be837c3aac6ce2c055a14c3bb9c71eddbc69f03ac78",
      "hash": "8a02b86f20789e3766792be837c3aac6ce2c055a14c3bb9c71eddbc69f03ac78",
      "version": 1,
      "size": 135,
      "vsize": 135,
      "weight": 540,
      "locktime": 0,
      "vin": [
        {
          "coinbase": "04ffff001d027801",
          "sequence": 4294967295
        }
      ],
      "vout": [
        {
          "value": 50.0,
          "n": 0,
          "scriptPubKey": {
            "asm": "041c0e13340d19e125f131b1bd32445a88cda8b872757e2a574d3303ac738ed81b4d6c5731585f1d78ae9111637c70a8d1a9f74e6ab3dc762963304f9c7a54f45b OP_CHECKSIG",
            "desc": "pk(041c0e13340d19e125f131b1bd32445a88cda8b872757e2a574d3303ac738ed81b4d6c5731585f1d78ae9111637c70a8d1a9f74e6ab3dc762963304f9c7a54f45b)#09e64c24",
            "hex": "41041c0e13340d19e125f131b1bd32445a88cda8b872757e2a574d3303ac738ed81b4d6c5731585f1d78ae9111637c70a8d1a9f74e6ab3dc762963304f9c7a54f45bac",
            "type": "pubkey"
          }
        }
      ],
      "hex": "01000000010000000000000000000000000000000000000000000000000000000000000000ffffffff0804ffff001d027801ffffffff0100f2052a010000004341041c0e13340d19e125f131b1bd32445a88cda8b872757e2a574d3303ac738ed81b4d6c5731585f1d78ae9111637c70a8d1a9f74e6ab3dc762963304f9c7a54f45bac00000000"
    }
  ]
}