{
  "hash": "000000006c8b639825ca01a71f9c92834ba460a0e8cd9cc0d04dfd100607908a",
  "confirmations": 51179,
  "height": 1919,
  "version": 1,
  "versionHex": "00000001",
  "merkleroot": "88e1724d0f95abd9b67c986530a6277a9259aa84bd27055f14b21abd7475e8e8",
  "time": 1232976840,
  "mediantime": 1232950822,
  "nonce": 237303257,
  "bits": "1d00ffff",
  "difficulty": 1,
  "chainwork": "0000000000000000000000000000000000000000000000000000078007800780",
  "nTx": 1,
  "previousblockhash": "00000000b3b598d67bad9261385f78c2446d64edd8c1282a8ff5efadaffc2c30",
  "nextblockhash": "00000000dc9e979cbe08b1ab64eac7bbb51dd3201b68870c55ba13fefb2976cb",
  "strippedsize": 216,
  "size": 216,
  "weight": 864,
  "tx": [
    {
      "txid": "88e1724d0f95abd9b67c986530a6277a9259aa84bd27055f14b21abd7475e8e8",
      "hash": "88e1724d0f95abd9b67c986530a6277a9259aa84bd27055f14b21abd7475e8e8",
      "version": 1,
      "size": 135,
      "vsize": 135,
      "weight": 540,
      "locktime": 0,
      "vin": [
        {
          "coinbase": "04ffff001d024e01",
          "sequence": 4294967295
        }
      ],
      "vout": [
        {
          "value": 50.0,
          "n": 0,
          "scriptPubKey": {
            "asm": "04aa880119b36456802b730184e2ad04304396a689b7f802deb77d946afc41bc23f447e10daa0e8a07eb13dc84c9bb242d7dd4e45e9a69761f7888ddfcbdc9bddd OP_CHECKSIG",
            "desc": "pk(04aa880119b36456802b730184e2ad04304396a689b7f802deb77d946afc41bc23f447e10daa0e8a07eb13dc84c9bb242d7dd4e45e9a69761f7888ddfcbdc9bddd)#2f83v9nv",
            "hex": "4104aa880119b36456802b730184e2ad04304396a689b7f802deb77d946afc41bc23f447e10daa0e8a07eb13dc84c9bb242d7dd4e45e9a69761f7888ddfcbdc9bdddac",
            "type": "pubkey"
          }
        }
      ],
      "hex": "01000000010000000000000000000000000000000000000000000000000000000000000000ffffffff0804ffff001d024e01ffffffff0100f2052a01000000434104aa880119b36456802b730184e2ad04304396a689b7f802deb77d946afc41bc23f447e10daa0e8a07eb13dc84c9bb242d7dd4e45e9a69761f7888ddfcbdc9bdddac00000000"
    }
  ]
}