{
  "hash": "000000000a73e64735a2b75c97ea674950a9018da1420d01328a918c9ff9852c",
  "confirmations": 47461,
  "height": 5637,
  "version": 1,
  "versionHex": "00000001",
  "merkleroot": "a1fbcc98ba77d617a08f87122c34bf3e60b893c70fff081f86a12f951e9ee30a",
  "time": 1235635619,
  "mediantime": 1235631973,
  "nonce": 3154875648,
  "bits": "1d00ffff",
  "difficulty": 1,
  "chainwork": "0000000000000000000000000000000000000000000000000000160616061606",
  "nTx": 1,
  "previousblockhash": "000000006044d922fae8142a8dc33661b8ace68fc48a148214bf25b6f16c01a0",
  "nextblockhash": "00000000685c9967b0f497a1358d5116131cdaac75d859a91aaa39baded2772f",
  "strippedsize": 216,
  "size": 216,
  "weight": 864,
  "tx": [
    {
      "txid": "a1fbcc98ba77d617a08f87122c34bf3e60b893c70fff081f86a12f951e9ee30a",
      "hash": "a1fbcc98ba77d617a08f87122c34bf3e60b893c70fff081f86a12f951e9ee30a",
      "version": 1,
      "size": 135,
      "vsize": 135,
      "weight": 540,
      "locktime": 0,
      "vin": [
        {
          "coinbase": "04ffff001d026a08",
          "sequence": 4294967295
        }
      ],
      "vout": [
        {
          "value": 50.0,
          "n": 0,
          "scriptPubKey": {
            "asm": "046fe15bc2421e975b907058ea82db06c86e42e3f2deb6fec5ecd3e3eb63992f63fc60333b5d82dbfc513d93f167ded0f662543c64ca2e35ca6e9a06a8f13bd824 OP_CHECKSIG",
            "desc": "pk(046fe15bc2421e975b907058ea82db06c86e42e3f2deb6fec5ecd3e3eb63992f63fc60333b5d82dbfc513d93f167ded0f662543c64ca2e35ca6e9a06a8f13bd824)#eryt74jp",
            "hex": "41046fe15bc2421e975b907058ea82db06c86e42e3f2deb6fec5ecd3e3eb63992f63fc60333b5d82dbfc513d93f167ded0f662543c64ca2e35ca6e9a06a8f13bd824ac",
            "type": "pubkey"
          }
        }
      ],
      "hex": "01000000010000000000000000000000000000000000000000000000000000000000000000ffffffff0804ffff001d026a08ffffffff0100f2052a010000004341046fe15bc2421e975b907058ea82db06c86e42e3f2deb6fec5ecd3e3eb63992f63fc60333b5d82dbfc513d93f167ded0f662543c64ca2e35ca6e9a06a8f13bd824ac00000000"
    }
  ]
}