{
  "hash": "00000000505b5f1b5d8ee24a9359332e902207b1993cc8a4d1ed3057b65495b8",
  "confirmations": 45567,
  "height": 7531,
  "version": 1,
  "versionHex": "00000001",
  "merkleroot": "cc1b6fd96a0564fbc61f8399da56cd8e4f8690b25c11e804f2a8dbb789db5111",
  "time": 1237122907,
  "mediantime": 1237116554,
  "nonce": 982914080,
  "bits": "1d00ffff",
  "difficulty": 1,
  "chainwork": "00000000000000000000000000000000000000000000000000001d6c1d6c1d6c",
  "nTx": 1,
  "previousblockhash": "00000000745b41c6a19805aebdc478e72b0d7167ff9f5f4743169637c323b9f9",
  "nextblockhash": "00000000fbbf71a941e231a3f85b95ba4c06758f54fbcbd97c7ea37883d400d2",
  "strippedsize": 216,
  "size": 216,
  "weight": 864,
  "tx": [
    {
      "txid": "cc1b6fd96a0564fbc61f8399da56cd8e4f8690b25c11e804f2a8dbb789db5111",
      "hash": "cc1b6fd96a0564fbc61f8399da56cd8e4f8690b25c11e804f2a8dbb789db5111",
      "version": 1,
      "size": 135,
      "vsize": 135,
      "weight": 540,
      "locktime": 0,
      "vin": [
        {
          "coinbase": "04ffff001d029501",
          "sequence": 4294967295
        }
      ],
      "vout": [
        {
          "value": 50.0,
          "n": 0,
          "scriptPubKey": {
            "asm": "04e078042c0be11458d23793d93cb896a1f9ea714112a8faffffde426479d698bb2b29e4f4a656a8fc4b424209baea2a8d6d6b56202344d11a4d88794ca33f20ae OP_CHECKSIG",
            "desc": "pk(04e078042c0be11458d23793d93cb896a1f9ea714112a8faffffde426479d698bb2b29e4f4a656a8fc4b424209baea2a8d6d6b56202344d11a4d88794ca33f20ae)#h5zzjxlj",
            "hex": "4104e078042c0be11458d23793d93cb896a1f9ea714112a8faffffde426479d698bb2b29e4f4a656a8fc4b424209baea2a8d6d6b56202344d11a4d88794ca33f20aeac",
            "type": "pubkey"
          }
        }
      ],
      "hex": "01000000010000000000000000000000000000000000000000000000000000000000000000ffffffff0804ffff001d029501ffffffff0100f2052a01000000434104e078042c0be11458d23793d93cb896a1f9ea714112a8faffffde426479d698bb2b29e4f4a656a8fc4b424209baea2a8d6d6b56202344d11a4d88794ca33f20aeac00000000"
    }
  ]
}