{
  "hash": "00000000f0ed2c89adb53c4847b28ddf642ef2583849f287725ffdfabbca44a7",
  "confirmations": 45501,
  "height": 7597,
  "version": 1,
  "versionHex": "00000001",
  "merkleroot": "f4a9154164dc3a59dabf4193e35fddbdbdeb4dbdfe9c1eaf1eaa65cc462dc9ae",
  "time": 1237166903,
  "mediantime": 1237161891,
  "nonce": 2631306772,
  "bits": "1d00ffff",
  "difficulty": 1,
  "chainwork": "00000000000000000000000000000000000000000000000000001dae1dae1dae",
  "nTx": 1,
  "previousblockhash": "000000006831419ee74e33be8a396dff7580cc1e90b4c22b09cadb8d644d6c33",
  "nextblockhash": "00000000b9adca68bfd17771bf9a0b7f5c4c24ace62dbcce52b5a0df2c24ecbe",
  "strippedsize": 216,
  "size": 216,
  "weight": 864,
  "tx": [
    {
      "txid": "f4a9154164dc3a59dabf4193e35fddbdbdeb4dbdfe9c1eaf1eaa65cc462dc9ae",
      "hash": "f4a9154164dc3a59dabf4193e35fddbdbdeb4dbdfe9c1eaf1eaa65cc462dc9ae",
      "version": 1,
      "size": 135,
      "vsize": 135,
      "weight": 540,
      "locktime": 0,
      "vin": [
        {
          "coinbase": "04ffff001d029802",
          "sequence": 4294967295
        }
      ],
      "vout": [
        {
          "value": 50.0,
          "n": 0,
          "scriptPubKey": {
            "asm": "04b392676f8b4742837b8f53d20e2733cae6baa18955f4b17307d345eae4d840a1c587de58d3189d960eb18e5292d77a6a77acc9b9bbeea29694c8254b0acd9864 OP_CHECKSIG",
            "desc": "pk(04b392676f8b4742837b8f53d20e2733cae6baa18955f4b17307d345eae4d840a1c587de58d3189d960eb18e5292d77a6a77acc9b9bbeea29694c8254b0acd9864)#z9eemg54",
            "hex": "4104b392676f8b4742837b8f53d20e2733cae6baa18955f4b17307d345eae4d840a1c587de58d3189d960eb18e5292d77a6a77acc9b9bbeea29694c8254b0acd9864ac",
            "type": "pubkey"
          }
        }
      ],
      "hex": "01000000010000000000000000000000000000000000000000000000000000000000000000ffffffff0804ffff001d029802ffffffff0100f2052a01000000434104b392676f8b4742837b8f53d20e2733cae6baa18955f4b17307d345eae4d840a1c587de58d3189d960eb18e5292d77a6a77acc9b9bbeea29694c8254b0acd9864ac00000000"
    }
  ]
}