{
  "hash": "000000008fdb65e1b0cfd8099d65aa8b889f23c68f698ebadca6356f9c2003bc",
  "confirmations": 51546,
  "height": 1552,
  "version": 1,
  "versionHex": "00000001",
  "merkleroot": "271574aa76b14f3bb9a7166488f27e52d6e13a6b9fef031cf2259613222972b6",
  "time": 1232790057,
  "mediantime": 1232787575,
  "nonce": 1681765891,
  "bits": "1d00ffff",
  "difficulty": 1,
  "chainwork": "0000000000000000000000000000000000000000000000000000061106110611",
  "nTx": 1,
  "previousblockhash": "00000000932127d2c7c987b0b34ac15b2874c9a57d363d14276c447f9c4abe37",
  "nextblockhash": "0000000056478f3afe4bdf32da9b4a0f35e06e207f5822c98112fd765a4aec30",
  "strippedsize": 216,
  "size": 216,
  "weight": 864,
  "tx": [
    {
      "txid": "271574aa76b14f3bb9a7166488f27e52d6e13a6b9fef031cf2259613222972b6",
      "hash": "271574aa76b14f3bb9a7166488f27e52d6e13a6b9fef031cf2259613222972b6",
      "version": 1,
      "size": 135,
      "vsize": 135,
      "weight": 540,
      "locktime": 0,
      "vin": [
        {
          "coinbase": "04ffff001d02ac01",
          "sequence": 4294967295
        }
      ],
      "vout": [
        {
          "value": 50.0,
          "n": 0,
          "scriptPubKey": {
            "asm": "04632e4b8d55db6a9f85c9e42b2a80893305f3bb502352782886d8a652198031bf614ddbdb942c3fca4310c8ea1bcccc8a62c70afdcba81cec49b45232986cc689 OP_CHECKSIG",
            "desc": "pk(04632e4b8d55db6a9f85c9e42b2a80893305f3bb502352782886d8a652198031bf614ddbdb942c3fca4310c8ea1bcccc8a62c70afdcba81cec49b45232986cc689)#3s9peuyg",
            "hex": "4104632e4b8d55db6a9f85c9e42b2a80893305f3bb502352782886d8a652198031bf614ddbdb942c3fca4310c8ea1bcccc8a62c70afdcba81cec49b45232986cc689ac",
            "type": "pubkey"
          }
        }
      ],
      "hex": "01000000010000000000000000000000000000000000000000000000000000000000000000ffffffff0804ffff001d02ac01ffffffff0100f2052a01000000434104632e4b8d55db6a9f85c9e42b2a80893305f3bb502352782886d8a652198031bf614ddbdb942c3fca4310c8ea1bcccc8a62c70afdcba81cec49b45232986cc689ac00000000"
    }
  ]
}