{
  "hash": "000000000ed962e1b77fcd47c5deab249f1adb1069195cbcd6cd77f2679e791b",
  "confirmations": 52321,
  "height": 777,
  "version": 1,
  "versionHex": "00000001",
  "merkleroot": "6a78211e4a48023211a5b736b6096347f3a1f5d751659f91228d34b2ebd5664f",
  "time": 1232171948,
  "mediantime": 1232168636,
  "nonce": 10781859,
  "bits": "1d00ffff",
  "difficulty": 1,
  "chainwork": "0000000000000000000000000000000000000000000000000000030a030a030a",
  "nTx": 1,
  "previousblockhash": "00000000a03ddc295497366ea1fd8a80e890c7d9f430771236c83091ff6bbf6e",
  "nextblockhash": "000000000507b1b544c123048a54d131a6a5eb86884dca2ec2a6f5e29b3c7c51",
  "strippedsize": 216,
  "size": 216,
  "weight": 864,
  "tx": [
    {
      "txid": "6a78211e4a48023211a5b736b6096347f3a1f5d751659f91228d34b2ebd5664f",
      "hash": "6a78211e4a48023211a5b736b6096347f3a1f5d751659f91228d34b2ebd5664f",
      "version": 1,
      "size": 135,
      "vsize": 135,
      "weight": 540,
      "locktime": 0,
      "vin": [
        {
          "coinbase": "04ffff001d029500",
          "sequence": 4294967295
        }
      ],
      "vout": [
        {
          "value": 50.0,
          "n": 0,
          "scriptPubKey": {
            "asm": "049db227911cb515cd71373b8b36ad34e86c9b4fb4f57ee1e74493c37104f1902f139219392306d25069131852c15ecf0cb9aaf6be50dcdb8e759d0619b3072439 OP_CHECKSIG",
            "desc": "pk(049db227911cb515cd71373b8b36ad34e86c9b4fb4f57ee1e74493c37104f1902f139219392306d25069131852c15ecf0cb9aaf6be50dcdb8e759d0619b3072439)#ns8d87t7",
            "hex": "41049db227911cb515cd71373b8b36ad34e86c9b4fb4f57ee1e74493c37104f1902f139219392306d25069131852c15ecf0cb9aaf6be50dcdb8e759d0619b3072439ac",
            "type": "pubkey"
          }
        }
      ],
      "hex": "01000000010000000000000000000000000000000000000000000000000000000000000000ffffffff0804ffff001d029500ffffffff0100f2052a010000004341049db227911cb515cd71373b8b36ad34e86c9b4fb4f57ee1e74493c37104f1902f139219392306d25069131852c15ecf0cb9aaf6be50dcdb8e759d0619b3072439ac00000000"
    }
  ]
}