{
  "hash": "000000001f4f51ae1ff49aad126b6e1e2ad1630e68560638610f56818c253fda",
  "confirmations": 45797,
  "height": 7301,
  "version": 1,
  "versionHex": "00000001",
  "merkleroot": "4f96143f9b73202b2a7c193f0149c0a942afa81ab3462e8f23b1f0b0907cfd2c",
  "time": 1236949514,
  "mediantime": 1236946552,
  "nonce": 4251203621,
  "bits": "1d00ffff",
  "difficulty": 1,
  "chainwork": "00000000000000000000000000000000000000000000000000001c861c861c86",
  "nTx": 1,
  "previousblockhash": "0000000033ae4665f982447e4907d14478d018a37ad72ad9799cbde30a864410",
  "nextblockhash": "000000002f17510c8ea06279554ebffbd926deb4f4d57b8f5ed8c4b435f5bf4d",
  "strippedsize": 216,
  "size": 216,
  "weight": 864,
  "tx": [
    {
      "txid": "4f96143f9b73202b2a7c193f0149c0a942afa81ab3462e8f23b1f0b0907cfd2c",
      "hash": "4f96143f9b73202b2a7c193f0149c0a942afa81ab3462e8f23b1f0b0907cfd2c",
      "version": 1,
      "size": 135,
      "vsize": 135,
      "weight": 540,
      "locktime": 0,
      "vin": [
        {
          "coinbase": "04ffff001d029507",
          "sequence": 4294967295
        }
      ],
      "vout": [
        {
          "value": 50.0,
          "n": 0,
          "scriptPubKey": {
            "asm": "04a30bf2e59580b6368ca2b3824a8b505957ec674436a3c9021be1026e2068ff78ed66160c548d510b683569877d36680e79fa0ab73fc226c7e1e26c6d2348826c OP_CHECKSIG",
            "desc": "pk(04a30bf2e59580b6368ca2b3824a8b505957ec674436a3c9021be1026e2068ff78ed66160c548d510b683569877d36680e79fa0ab73fc226c7e1e26c6d2348826c)#pn2ejgln",
            "hex": "4104a30bf2e59580b6368ca2b3824a8b505957ec674436a3c9021be1026e2068ff78ed66160c548d510b683569877d36680e79fa0ab73fc226c7e1e26c6d2348826cac",
            "type": "pubkey"
          }
        }
      ],
      "hex": "01000000010000000000000000000000000000000000000000000000000000000000000000ffffffff0804ffff001d029507ffffffff0100f2052a01000000434104a30bf2e59580b6368ca2b3824a8b505957ec674436a3c9021be1026e2068ff78ed66160c548d510b683569877d36680e79fa0ab73fc226c7e1e26c6d2348826cac00000000"
    }
  ]
}