{
  "hash": "00000000dd86f3873dfdc4e2f5f18f40575d14b20696406511815f1b97e67eea",
  "confirmations": 52565,
  "height": 533,
  "version": 1,
  "versionHex": "00000001",
  "merkleroot": "30a915d2818deb5aabd7d6c337ee152f572043354979bacc1306e40cbdaa77e3",
  "time": 1231989852,
  "mediantime": 1231986958,
  "nonce": 2945559304,
  "bits": "1d00ffff",
  "difficulty": 1,
  "chainwork": "0000000000000000000000000000000000000000000000000000021602160216",
  "nTx": 1,
  "previousblockhash": "0000000054dfed74457e592658485bb93f60e7e608c815f093e1d59106ab74e4",
  "nextblockhash": "00000000827d29aff6dd1f65c772885502960a7416957e5a00dfcff8a4374bdc",
  "strippedsize": 216,
  "size": 216,
  "weight": 864,
  "tx": [
    {
      "txid": "30a915d2818deb5aabd7d6c337ee152f572043354979bacc1306e40cbdaa77e3",
      "hash": "30a915d2818deb5aabd7d6c337ee152f572043354979bacc1306e40cbdaa77e3",
      "version": 1,
      "size": 135,
      "vsize": 135,
      "weight": 540,
      "locktime": 0,
      "vin": [
        {
          "coinbase": "04ffff001d022c05",
          "sequence": 4294967295
        }
      ],
      "vout": [
        {
          "value": 50.0,
          "n": 0,
          "scriptPubKey": {
            "asm": "048fba6dc2d6e20f43dc0e682f0f9ac9711c02b3cd27906e92edccd522956a0f4bb50ad7993657956501e1230b9222425444e4a6456096e61f02689414f5c26c8b OP_CHECKSIG",
            "desc": "pk(048fba6dc2d6e20f43dc0e682f0f9ac9711c02b3cd27906e92edccd522956a0f4bb50ad7993657956501e1230b9222425444e4a6456096e61f02689414f5c26c8b)#usl0l0y2",
            "hex": "41048fba6dc2d6e20f43dc0e682f0f9ac9711c02b3cd27906e92edccd522956a0f4bb50ad7993657956501e1230b9222425444e4a6456096e61f02689414f5c26c8bac",
            "type": "pubkey"
          }
        }
      ],
      "hex": "01000000010000000000000000000000000000000000000000000000000000000000000000ffffffff0804ffff001d022c05ffffffff0100f2052a010000004341048fba6dc2d6e20f43dc0e682f0f9ac9711c02b3cd27906e92edccd522956a0f4bb50ad7993657956501e1230b9222425444e4a6456096e61f02689414f5c26c8bac00000000"
    }
  ]
}