{
  "hash": "00000000932127d2c7c987b0b34ac15b2874c9a57d363d14276c447f9c4abe37",
  "confirmations": 51547,
  "height": 1551,
  "version": 1,
  "versionHex": "00000001",
  "merkleroot": "36bb965965fdba56d724878191ec240f76362169dd99e5f8ba3666e9cf37767c",
  "time": 1232789366,
  "mediantime": 1232787191,
  "nonce": 3709222198,
  "bits": "1d00ffff",
  "difficulty": 1,
  "chainwork": "0000000000000000000000000000000000000000000000000000061006100610",
  "nTx": 1,
  "previousblockhash": "0000000083fb9db6cdd95705a71c717243a504835899ca35a1807dab4764de47",
  "nextblockhash": "000000008fdb65e1b0cfd8099d65aa8b889f23c68f698ebadca6356f9c2003bc",
  "strippedsize": 216,
  "size": 216,
  "weight": 864,
  "tx": [
    {
      "txid": "36bb965965fdba56d724878191ec240f76362169dd99e5f8ba3666e9cf37767c",
      "hash": "36bb965965fdba56d724878191ec240f76362169dd99e5f8ba3666e9cf37767c",
      "version": 1,
      "size": 135,
      "vsize": 135,
      "weight": 540,
      "locktime": 0,
      "vin": [
        {
          "coinbase": "04ffff001d02a301",
          "sequence": 4294967295
        }
      ],
      "vout": [
        {
          "value": 50.0,
          "n": 0,
          "scriptPubKey": {
            "asm": "0400f2a540c9143ee62254a306b15787c8ebb3a3ca1555b48c337f896260d3dc384c010b7a88deab4c975b0ac43d2c20e1ac7d51907dfce447066b4884518e6d6e OP_CHECKSIG",
            "desc": "pk(0400f2a540c9143ee62254a306b15787c8ebb3a3ca1555b48c337f896260d3dc384c010b7a88deab4c975b0ac43d2c20e1ac7d51907dfce447066b4884518e6d6e)#tegfy262",
            "hex": "410400f2a540c9143ee62254a306b15787c8ebb3a3ca1555b48c337f896260d3dc384c010b7a88deab4c975b0ac43d2c20e1ac7d51907dfce447066b4884518e6d6eac",
            "type": "pubkey"
          }
        }
      ],
      "hex": "01000000010000000000000000000000000000000000000000000000000000000000000000ffffffff0804ffff001d02a301ffffffff0100f2052a0100000043410400f2a540c9143ee62254a306b15787c8ebb3a3ca1555b48c337f896260d3dc384c010b7a88deab4c975b0ac43d2c20e1ac7d51907dfce447066b4884518e6d6eac00000000"
    }
  ]
}