{
  "hash": "00000000845a1a4a029bc2a33d5eb51ef53502e314e5ba19ebd835c4bd353b3a",
  "confirmations": 51250,
  "height": 1848,
  "version": 1,
  "versionHex": "00000001",
  "merkleroot": "a9fed67900c0afa57f9d50739945e9c7de8ef842319a4f7f1d5489e008c9a1c4",
  "time": 1232920843,
  "mediantime": 1232919013,
  "nonce": 2255263490,
  "bits": "1d00ffff",
  "difficulty": 1,
  "chainwork": "0000000000000000000000000000000000000000000000000000073907390739",
  "nTx": 1,
  "previousblockhash": "00000000ebcbd04dd834b0709bcd74a05dd7a8f1524bfa30a603e3db1d888053",
  "nextblockhash": "00000000df89927ab39d47256afa9a7de0a7c4a15b32f920456c057467eed7dc",
  "strippedsize": 216,
  "size": 216,
  "weight": 864,
  "tx": [
    {
      "txid": "a9fed67900c0afa57f9d50739945e9c7de8ef842319a4f7f1d5489e008c9a1c4",
      "hash": "a9fed67900c0afa57f9d50739945e9c7de8ef842319a4f7f1d5489e008c9a1c4",
      "version": 1,
      "size": 135,
      "vsize": 135,
      "weight": 540,
      "locktime": 0,
      "vin": [
        {
          "coinbase": "04ffff001d029404",
          "sequence": 4294967295
        }
      ],
      "vout": [
        {
          "value": 50.0,
          "n": 0,
          "scriptPubKey": {
            "asm": "04d0be20a2b6b1a7a15c3008413ab0e182b16d1a291595736ffe1e3fb04b93370d66d517dd4ce6a6d608ddbddc8de06d4bf1f55002ed12c409a6e7e10887008490 OP_CHECKSIG",
            "desc": "pk(04d0be20a2b6b1a7a15c3008413ab0e182b16d1a291595736ffe1e3fb04b93370d66d517dd4ce6a6d608ddbddc8de06d4bf1f55002ed12c409a6e7e10887008490)#z0seu53y",
            "hex": "4104d0be20a2b6b1a7a15c3008413ab0e182b16d1a291595736ffe1e3fb04b93370d66d517dd4ce6a6d608ddbddc8de06d4bf1f55002ed12c409a6e7e10887008490ac",
            "type": "pubkey"
          }
        }
      ],
      "hex": "01000000010000000000000000000000000000000000000000000000000000000000000000ffffffff0804ffff001d029404ffffffff0100f2052a01000000434104d0be20a2b6b1a7a15c3008413ab0e182b16d1a291595736ffe1e3fb04b93370d66d517dd4ce6a6d608ddbddc8de06d4bf1f55002ed12c409a6e7e10887008490ac00000000"
    }
  ]
}