{
  "hash": "00000000b1915dd2367819ab3b5fec9ca28eb03936dfe34900a7a57efc298980",
  "confirmations": 51010,
  "height": 2088,
  "version": 1,
  "versionHex": "00000001",
  "merkleroot": "542c45063aae78c0b9511c2fe4ace1921c81d40069ffcb7797fd2ae601a70fdb",
  "time": 1233128367,
  "mediantime": 1233126722,
  "nonce": 2068111404,
  "bits": "1d00ffff",
  "difficulty": 1,
  "chainwork": "0000000000000000000000000000000000000000000000000000082908290829",
  "nTx": 1,
  "previousblockhash": "0000000081ca9f4af00279e8f559f2cfa00488b1c0241420df48ab50a46f4abd",
  "nextblockhash": "000000006788b1fda2bd5cd87dd4bf65c3eaa7bc84c435b11a7f6dda4b8a591a",
  "strippedsize": 216,
  "size": 216,
  "weight": 864,
  "tx": [
    {
      "txid": "542c45063aae78c0b9511c2fe4ace1921c81d40069ffcb7797fd2ae601a70fdb",
      "hash": "542c45063aae78c0b9511c2fe4ace1921c81d40069ffcb7797fd2ae601a70fdb",
      "version": 1,
      "size": 135,
      "vsize": 135,
      "weight": 540,
      "locktime": 0,
      "vin": [
        {
          "coinbase": "04ffff001d028503",
          "sequence": 4294967295
        }
      ],
      "vout": [
        {
          "value": 50.0,
          "n": 0,
          "scriptPubKey": {
            "asm": "04a504fd08be1974f5fa0c0ef711d141e5fbe131323acf7902c0bb79c4f0dd414f3e5ab708caaaf26d303a35a08a8f99ffe79b0c7a4955d27f6af38a26c0e75937 OP_CHECKSIG",
            "desc": "pk(04a504fd08be1974f5fa0c0ef711d141e5fbe131323acf7902c0bb79c4f0dd414f3e5ab708caaaf26d303a35a08a8f99ffe79b0c7a4955d27f6af38a26c0e75937)#krgp4dcl",
            "hex": "4104a504fd08be1974f5fa0c0ef711d141e5fbe131323acf7902c0bb79c4f0dd414f3e5ab708caaaf26d303a35a08a8f99ffe79b0c7a4955d27f6af38a26c0e75937ac",
            "type": "pubkey"
          }
        }
      ],
      "hex": "01000000010000000000000000000000000000000000000000000000000000000000000000ffffffff0804ffff001d028503ffffffff0100f2052a01000000434104a504fd08be1974f5fa0c0ef711d141e5fbe131323acf7902c0bb79c4f0dd414f3e5ab708caaaf26d303a35a08a8f99ffe79b0c7a4955d27f6af38a26c0e75937ac00000000"
    }
  ]
}