{
  "hash": "00000000bc374f968c7c3ce479b9c4fa7badd7031f080c2b28ea2974678d254f",
  "confirmations": 45291,
  "height": 7807,
  "version": 1,
  "versionHex": "00000001",
  "merkleroot": "a83144f4384a13911382aaabd7c397e534a15f2f3e980791231fab921722a126",
  "time": 1237318558,
  "mediantime": 1237315289,
  "nonce": 235934057,
  "bits": "1d00ffff",
  "difficulty": 1,
  "chainwork": "00000000000000000000000000000000000000000000000000001e801e801e80",
  "nTx": 1,
  "previousblockhash": "00000000d7fefd2d5b9880c21848ee752dc407322a7d74752b670069575b52be",
  "nextblockhash": "00000000546ca3b52352d22a6934dcefdcaa38a9015614bd8fc30d5d4116d8ed",
  "strippedsize": 216,
  "size": 216,
  "weight": 864,
  "tx": [
    {
      "txid": "a83144f4384a13911382aaabd7c397e534a15f2f3e980791231fab921722a126",
      "hash": "a83144f4384a13911382aaabd7c397e534a15f2f3e980791231fab921722a126",
      "version": 1,
      "size": 135,
      "vsize": 135,
      "weight": 540,
      "locktime": 0,
      "vin": [
        {
          "coinbase": "04ffff001d028e00",
          "sequence": 4294967295
        }
      ],
      "vout": [
        {
          "value": 50.0,
          "n": 0,
          "scriptPubKey": {
            "asm": "04544a51fdad9276f232a151dfa8fd01a4bd9911612e196aa5507df8e7889c7d990717d86c5ef53d0434cd66186f2ce0245f5f2f4411197b15002e33b691e6a95c OP_CHECKSIG",
            "desc": "pk(04544a51fdad9276f232a151dfa8fd01a4bd9911612e196aa5507df8e7889c7d990717d86c5ef53d0434cd66186f2ce0245f5f2f4411197b15002e33b691e6a95c)#6ejscntc",
            "hex": "4104544a51fdad9276f232a151dfa8fd01a4bd9911612e196aa5507df8e7889c7d990717d86c5ef53d0434cd66186f2ce0245f5f2f4411197b15002e33b691e6a95cac",
            "type": "pubkey"
          }
        }
      ],
      "hex": "01000000010000000000000000000000000000000000000000000000000000000000000000ffffffff0804ffff001d028e00ffffffff0100f2052a01000000434104544a51fdad9276f232a151dfa8fd01a4bd9911612e196aa5507df8e7889c7d990717d86c5ef53d0434cd66186f2ce0245f5f2f4411197b15002e33b691e6a95cac00000000"
    }
  ]
}