{
  "hash": "00000000b3032886a7355c6c264a8de8d4a0699fe6a1ac1cb38365c7117e19f4",
  "confirmations": 44434,
  "height": 8664,
  "version": 1,
  "versionHex": "00000001",
  "merkleroot": "5de2c61b98b894c84329d1c1b5d3a097cd4e7b47746d3c4c3778492bb470ada2",
  "time": 1237996122,
  "mediantime": 1237992715,
  "nonce": 2945059126,
  "bits": "1d00ffff",
  "difficulty": 1,
  "chainwork": "000000000000000000000000000000000000000000000000000021d921d921d9",
  "nTx": 1,
  "previousblockhash": "000000009a735f0487773c10335e1f28b7b60fd8ce6b0787117713f2ba75b35c",
  "nextblockhash": "00000000cca15d08b3c6714964885e39e6620b8cc0c844ad6d2f3735c5a75921",
  "strippedsize": 215,
  "size": 215,
  "weight": 860,
  "tx": [
    {
      "txid": "5de2c61b98b894c84329d1c1b5d3a097cd4e7b47746d3c4c3778492bb470ada2",
      "hash": "5de2c61b98b894c84329d1c1b5d3a097cd4e7b47746d3c4c3778492bb470ada2",
      "version": 1,
      "size": 134,
      "vsize": 134,
      "weight": 536,
      "locktime": 0,
      "vin": [
        {
          "coinbase": "04ffff001d0146",
          "sequence": 4294967295
        }
      ],
      "vout": [
        {
          "value": 50.0,
          "n": 0,
          "scriptPubKey": {
            "asm": "04ae0a03664f669b97080406996c80d0c24f11d20c1da9dd60bfeb609c6fdcdda02a2f1c53961df8ee33ea91e9a57d3ae30d9711adea15eb7b8786dfe0cd09c35a OP_CHECKSIG",
            "desc": "pk(04ae0a03664f669b97080406996c80d0c24f11d20c1da9dd60bfeb609c6fdcdda02a2f1c53961df8ee33ea91e9a57d3ae30d9711adea15eb7b8786dfe0cd09c35a)#jgsqc9ru",
            "hex": "4104ae0a03664f669b97080406996c80d0c24f11d20c1da9dd60bfeb609c6fdcdda02a2f1c53961df8ee33ea91e9a57d3ae30d9711adea15eb7b8786dfe0cd09c35aac",
            "type": "pubkey"
          }
        }
      ],
      "hex": "01000000010000000000000000000000000000000000000000000000000000000000000000ffffffff0704ffff001d0146ffffffff0100f2052a01000000434104ae0a03664f669b97080406996c80d0c24f11d20c1da9dd60bfeb609c6fdcdda02a2f1c53961df8ee33ea91e9a57d3ae30d9711adea15eb7b8786dfe0cd09c35aac00000000"
    }
  ]
}