{
  "hash": "00000000efd2d97de7c773f03ccda887ffd5e86b1290be4ded356a25147a0a0f",
  "confirmations": 46758,
  "height": 6340,
  "version": 1,
  "versionHex": "00000001",
  "merkleroot": "a9e5c3993cfed128f8918bad5d1c963c0e03a1e1adac263cd2fa4fd0aec128e8",
  "time": 1236205669,
  "mediantime": 1236201884,
  "nonce": 1766812471,
  "bits": "1d00ffff",
  "difficulty": 1,
  "chainwork": "000000000000000000000000000000000000000000000000000018c518c518c5",
  "nTx": 1,
  "previousblockhash": "00000000a9c7b58df891736322b516799232e8c7006fab25255a871e00808561",
  "nextblockhash": "00000000f5989003c6281f982010302c086da7aeb7c5b7cb6c78d0a88b3af70a",
  "strippedsize": 216,
  "size": 216,
  "weight": 864,
  "tx": [
    {
      "txid": "a9e5c3993cfed128f8918bad5d1c963c0e03a1e1adac263cd2fa4fd0aec128e8",
      "hash": "a9e5c3993cfed128f8918bad5d1c963c0e03a1e1adac263cd2fa4fd0aec128e8",
      "version": 1,
      "size": 135,
      "vsize": 135,
      "weight": 540,
      "locktime": 0,
      "vin": [
        {
          "coinbase": "04ffff001d02aa00",
          "sequence": 4294967295
        }
      ],
      "vout": [
        {
          "value": 50.0,
          "n": 0,
          "scriptPubKey": {
            "asm": "049aa3efdfdfa7490d014c42554c37561b7345cc0490dbbece4732384634a4c5bdc804a4eefde238cc0c0e89e27b11459dc58117028821a96c4c2e708afa84aa9a OP_CHECKSIG",
            "desc": "pk(049aa3efdfdfa7490d014c42554c37561b7345cc0490dbbece4732384634a4c5bdc804a4eefde238cc0c0e89e27b11459dc58117028821a96c4c2e708afa84aa9a)#v8n3r33j",
            "hex": "41049aa3efdfdfa7490d014c42554c37561b7345cc0490dbbece4732384634a4c5bdc804a4eefde238cc0c0e89e27b11459dc58117028821a96c4c2e708afa84aa9aac",
            "type": "pubkey"
          }
        }
      ],
      "hex": "01000000010000000000000000000000000000000000000000000000000000000000000000ffffffff0804ffff001d02aa00ffffffff0100f2052a010000004341049aa3efdfdfa7490d014c42554c37561b7345cc0490dbbece4732384634a4c5bdc804a4eefde238cc0c0e89e27b11459dc58117028821a96c4c2e708afa84aa9aac00000000"
    }
  ]
}