{
  "hash": "000000003b5125dd502fec32b1950c633f5e80b19fb5815d1eb1b80ecb41893e",
  "confirmations": 49361,
  "height": 3737,
  "version": 1,
  "versionHex": "00000001",
  "merkleroot": "62eee204782bb18f399ced32bbd849c639c4304fa2af492f15e28b5d9c2f2466",
  "time": 1234259518,
  "mediantime": 1234256314,
  "nonce": 1857445163,
  "bits": "1d00ffff",
  "difficulty": 1,
  "chainwork": "00000000000000000000000000000000000000000000000000000e9a0e9a0e9a",
  "nTx": 1,
  "previousblockhash": "000000005914e2b3a6f75f7648494da32a465a2bd03d1648ad08a4d368df4849",
  "nextblockhash": "00000000f0cc68d52db8fa62495e2515bf8e7e372c65e3325dc4e3735a6645fd",
  "strippedsize": 215,
  "size": 215,
  "weight": 860,
  "tx": [
    {
      "txid": "62eee204782bb18f399ced32bbd849c639c4304fa2af492f15e28b5d9c2f2466",
      "hash": "62eee204782bb18f399ced32bbd849c639c4304fa2af492f15e28b5d9c2f2466",
      "version": 1,
      "size": 134,
      "vsize": 134,
      "weight": 536,
      "locktime": 0,
      "vin": [
        {
          "coinbase": "04ffff001d0164",
          "sequence": 4294967295
        }
      ],
      "vout": [
        {
          "value": 50.0,
          "n": 0,
          "scriptPubKey": {
            "asm": "0477cc94a5aea7e1c094d7580a8031663ff10117e49692be3f736b8b594240756449f53542f9fa38be3bfdb13fcc35517efa423c3cb932605c9b8bea70fd1f6982 OP_CHECKSIG",
            "desc": "pk(0477cc94a5aea7e1c094d7580a8031663ff10117e49692be3f736b8b594240756449f53542f9fa38be3bfdb13fcc35517efa423c3cb932605c9b8bea70fd1f6982)#930cgz34",
            "hex": "410477cc94a5aea7e1c094d7580a8031663ff10117e49692be3f736b8b594240756449f53542f9fa38be3bfdb13fcc35517efa423c3cb932605c9b8bea70fd1f6982ac",
            "type": "pubkey"
          }
        }
      ],
      "hex": "01000000010000000000000000000000000000000000000000000000000000000000000000ffffffff0704ffff001d0164ffffffff0100f2052a0100000043410477cc94a5aea7e1c094d7580a8031663ff10117e49692be3f736b8b594240756449f53542f9fa38be3bfdb13fcc35517efa423c3cb932605c9b8bea70fd1f6982ac00000000"
    }
  ]
}