{
  "hash": "00000000383f6a8a0d93575f1d6ea8a8a02a809b8122deb293402b705042d5fd",
  "confirmations": 44929,
  "height": 8169,
  "version": 1,
  "versionHex": "00000001",
  "merkleroot": "7f6d19cb277df695c0bad1020f8a88c7fc3c2e338d6bf1bc3bf2127f5120c578",
  "time": 1237585625,
  "mediantime": 1237581649,
  "nonce": 2890150409,
  "bits": "1d00ffff",
  "difficulty": 1,
  "chainwork": "00000000000000000000000000000000000000000000000000001fea1fea1fea",
  "nTx": 1,
  "previousblockhash": "00000000d2f7e13ffc5353bc62dcff9655ae55ac5dd2863a9f71a7bf2a3f70dd",
  "nextblockhash": "0000000099a10ad867d932cb4c83be9d3c1015a5651371c9036ae3a72435094c",
  "strippedsize": 216,
  "size": 216,
  "weight": 864,
  "tx": [
    {
      "txid": "7f6d19cb277df695c0bad1020f8a88c7fc3c2e338d6bf1bc3bf2127f5120c578",
      "hash": "7f6d19cb277df695c0bad1020f8a88c7fc3c2e338d6bf1bc3bf2127f5120c578",
      "version": 1,
      "size": 135,
      "vsize": 135,
      "weight": 540,
      "locktime": 0,
      "vin": [
        {
          "coinbase": "04ffff001d026202",
          "sequence": 4294967295
        }
      ],
      "vout": [
        {
          "value": 50.0,
          "n": 0,
          "scriptPubKey": {
            "asm": "04b342723954cac461180af2ca12e917b261e6452f9eac116452db2c928188171dc843ee46100e782b955d0ffb7c8e499f94a79e371a75ecc1d4925da4dba6da04 OP_CHECKSIG",
            "desc": "pk(04b342723954cac461180af2ca12e917b261e6452f9eac116452db2c928188171dc843ee46100e782b955d0ffb7c8e499f94a79e371a75ecc1d4925da4dba6da04)#d9pqldw3",
            "hex": "4104b342723954cac461180af2ca12e917b261e6452f9eac116452db2c928188171dc843ee46100e782b955d0ffb7c8e499f94a79e371a75ecc1d4925da4dba6da04ac",
            "type": "pubkey"
          }
        }
      ],
      "hex": "01000000010000000000000000000000000000000000000000000000000000000000000000ffffffff0804ffff001d026202ffffffff0100f2052a01000000434104b342723954cac461180af2ca12e917b261e6452f9eac116452db2c928188171dc843ee46100e782b955d0ffb7c8e499f94a79e371a75ecc1d4925da4dba6da04ac00000000"
    }
  ]
}