{
  "hash": "0000000026d2af72ee7b249d90df440d229c4687fb991e4df51b2817843ffab3",
  "confirmations": 43814,
  "height": 9284,
  "version": 1,
  "versionHex": "00000001",
  "merkleroot": "36fba755932b80f11669a7de47917f58df8baff34482c4f54c2f8ec636d8fc1f",
  "time": 1238461507,
  "mediantime": 1238456718,
  "nonce": 1152053016,
  "bits": "1d00ffff",
  "difficulty": 1,
  "chainwork": "0000000000000000000000000000000000000000000000000000244524452445",
  "nTx": 1,
  "previousblockhash": "00000000de2bda4269ff82cdbf40d434408cbaa8cd76c9fc593dd6fd41230c51",
  "nextblockhash": "00000000a77103e5602f83cea9b65a89cde0c19095cbba84e37bfbbac85f9f7b",
  "strippedsize": 216,
  "size": 216,
  "weight": 864,
  "tx": [
    {
      "txid": "36fba755932b80f11669a7de47917f58df8baff34482c4f54c2f8ec636d8fc1f",
      "hash": "36fba755932b80f11669a7de47917f58df8baff34482c4f54c2f8ec636d8fc1f",
      "version": 1,
      "size": 135,
      "vsize": 135,
      "weight": 540,
      "locktime": 0,
      "vin": [
        {
          "coinbase": "04ffff001d027e01",
          "sequence": 4294967295
        }
      ],
      "vout": [
        {
          "value": 50.0,
          "n": 0,
          "scriptPubKey": {
            "asm": "044da7eb5f4aade930495cbd4c13e41f9749964e0d0734be4e7fb38ae84d045296fee0399508903636e00082b88afbb8f649076a7fe16bc9e0c980727d12d7e480 OP_CHECKSIG",
            "desc": "pk(044da7eb5f4aade930495cbd4c13e41f9749964e0d0734be4e7fb38ae84d045296fee0399508903636e00082b88afbb8f649076a7fe16bc9e0c980727d12d7e480)#r2kr3u58",
            "hex": "41044da7eb5f4aade930495cbd4c13e41f9749964e0d0734be4e7fb38ae84d045296fee0399508903636e00082b88afbb8f649076a7fe16bc9e0c980727d12d7e480ac",
            "type": "pubkey"
          }
        }
      ],
      "hex": "01000000010000000000000000000000000000000000000000000000000000000000000000ffffffff0804ffff001d027e01ffffffff0100f2052a010000004341044da7eb5f4aade930495cbd4c13e41f9749964e0d0734be4e7fb38ae84d045296fee0399508903636e00082b88afbb8f649076a7fe16bc9e0c980727d12d7e480ac00000000"
    }
  ]
}