{
  "hash": "000000002fa9f963ce14897a499814b22027b4c18442f4b5075b505a36e61a51",
  "confirmations": 43766,
  "height": 9332,
  "version": 1,
  "versionHex": "00000001",
  "merkleroot": "f45bc20e74d4b1b2ec1347c63ab74fa08e5775f46f8c8ff6263be02deb91b0ca",
  "time": 1238498682,
  "mediantime": 1238494351,
  "nonce": 1385775916,
  "bits": "1d00ffff",
  "difficulty": 1,
  "chainwork": "0000000000000000000000000000000000000000000000000000247524752475",
  "nTx": 1,
  "previousblockhash": "00000000dad22f80e7a1cbb83690b4ac00de1a1a00125dc536eb084d71c550b4",
  "nextblockhash": "00000000164fc769f695423278b637e89dd8baa2889292dab6ebbb1ae8b2026f",
  "strippedsize": 216,
  "size": 216,
  "weight": 864,
  "tx": [
    {
      "txid": "f45bc20e74d4b1b2ec1347c63ab74fa08e5775f46f8c8ff6263be02deb91b0ca",
      "hash": "f45bc20e74d4b1b2ec1347c63ab74fa08e5775f46f8c8ff6263be02deb91b0ca",
      "version": 1,
      "size": 135,
      "vsize": 135,
      "weight": 540,
      "locktime": 0,
      "vin": [
        {
          "coinbase": "04ffff001d025f02",
          "sequence": 4294967295
        }
      ],
      "vout": [
        {
          "value": 50.0,
          "n": 0,
          "scriptPubKey": {
            "asm": "0430e1e97360e8bff58d2baeaa80552701a2a54d45ee2f76379bd9369089783eccd2c448af497183de33902078f468270d493c3757626e0864d71ce218575c4034 OP_CHECKSIG",
            "desc": "pk(0430e1e97360e8bff58d2baeaa80552701a2a54d45ee2f76379bd9369089783eccd2c448af497183de33902078f468270d493c3757626e0864d71ce218575c4034)#fsyxjwxx",
            "hex": "410430e1e97360e8bff58d2baeaa80552701a2a54d45ee2f76379bd9369089783eccd2c448af497183de33902078f468270d493c3757626e0864d71ce218575c4034ac",
            "type": "pubkey"
          }
        }
      ],
      "hex": "01000000010000000000000000000000000000000000000000000000000000000000000000ffffffff0804ffff001d025f02ffffffff0100f2052a0100000043410430e1e97360e8bff58d2baeaa80552701a2a54d45ee2f76379bd9369089783eccd2c448af497183de33902078f468270d493c3757626e0864d71ce218575c4034ac00000000"
    }
  ]
}