{
  "hash": "00000000b0e0b48f8503ce535d51691aad2366d7b0a77da0e7f5b6b9b3fa2091",
  "confirmations": 50909,
  "height": 2189,
  "version": 1,
  "versionHex": "00000001",
  "merkleroot": "b7f00e539ccc7ffd66fbb20c28bdc8e71650ec6acb8b51ab0abeda0b7fb59cb9",
  "time": 1233207532,
  "mediantime": 1233202869,
  "nonce": 76470389,
  "bits": "1d00ffff",
  "difficulty": 1,
  "chainwork": "0000000000000000000000000000000000000000000000000000088e088e088e",
  "nTx": 1,
  "previousblockhash": "000000006b74f30b5794a5317f3997d249ec49021f459807ba95f935836cef5b",
  "nextblockhash": "00000000990687d0eefcb17b6d04dd6a387ea75ff9233de72687f164e983f8e4",
  "strippedsize": 216,
  "size": 216,
  "weight": 864,
  "tx": [
    {
      "txid": "b7f00e539ccc7ffd66fbb20c28bdc8e71650ec6acb8b51ab0abeda0b7fb59cb9",
      "hash": "b7f00e539ccc7ffd66fbb20c28bdc8e71650ec6acb8b51ab0abeda0b7fb59cb9",
      "version": 1,
      "size": 135,
      "vsize": 135,
      "weight": 540,
      "locktime": 0,
      "vin": [
        {
          "coinbase": "04ffff001d02e000",
          "sequence": 4294967295
        }
      ],
      "vout": [
        {
          "value": 50.0,
          "n": 0,
          "scriptPubKey": {
            "asm": "04b28659b14ecf6cd90a68cbbed5d6217d712ae425a3bbef2b9dcdd069b85ac08a4f6d4738a28456f880d8c2e32cd760d9067c3fd0c04b281bfea000263b0473f1 OP_CHECKSIG",
            "desc": "pk(04b28659b14ecf6cd90a68cbbed5d6217d712ae425a3bbef2b9dcdd069b85ac08a4f6d4738a28456f880d8c2e32cd760d9067c3fd0c04b281bfea000263b0473f1)#e2hg9g2c",
            "hex": "4104b28659b14ecf6cd90a68cbbed5d6217d712ae425a3bbef2b9dcdd069b85ac08a4f6d4738a28456f880d8c2e32cd760d9067c3fd0c04b281bfea000263b0473f1ac",
            "type": "pubkey"
          }
        }
      ],
      "hex": "01000000010000000000000000000000000000000000000000000000000000000000000000ffffffff0804ffff001d02e000ffffffff0100f2052a01000000434104b28659b14ecf6cd90a68cbbed5d6217d712ae425a3bbef2b9dcdd069b85ac08a4f6d4738a28456f880d8c2e32cd760d9067c3fd0c04b281bfea000263b0473f1ac00000000"
    }
  ]
}