{
  "hash": "000000007c3f149cfcb9a9ef8a9c865c549e816b8b68ab2bbaa3b8700e658af7",
  "confirmations": 46328,
  "height": 6770,
  "version": 1,
  "versionHex": "00000001",
  "merkleroot": "c913cfcaac1e0892b60fd1f35babf21d41c4b66f2c6e4cc7ad789ca7d55d5209",
  "time": 1236536889,
  "mediantime": 1236533458,
  "nonce": 1544221231,
  "bits": "1d00ffff",
  "difficulty": 1,
  "chainwork": "00000000000000000000000000000000000000000000000000001a731a731a73",
  "nTx": 1,
  "previousblockhash": "00000000d9bde484ef76bdc5e92bcb4398d231abb357653d05fef0adb0d75123",
  "nextblockhash": "00000000b961f4f74b927560c40d888f30181aed323566e62f8e07b118de57fb",
  "strippedsize": 216,
  "size": 216,
  "weight": 864,
  "tx": [
    {
      "txid": "c913cfcaac1e0892b60fd1f35babf21d41c4b66f2c6e4cc7ad789ca7d55d5209",
      "hash": "c913cfcaac1e0892b60fd1f35babf21d41c4b66f2c6e4cc7ad789ca7d55d5209",
      "version": 1,
      "size": 135,
      "vsize": 135,
      "weight": 540,
      "locktime": 0,
      "vin": [
        {
          "coinbase": "04ffff001d025d08",
          "sequence": 4294967295
        }
      ],
      "vout": [
        {
          "value": 50.0,
          "n": 0,
          "scriptPubKey": {
            "asm": "04bc5782dc8dc141f3a8f1780c0002258fa474a3c2f7ef7b1707b3e6ca55e2287d278e12fd7d08d0fb0363b2b0823d27caa2d3edd4235e68902800c60d7684dab4 OP_CHECKSIG",
            "desc": "pk(04bc5782dc8dc141f3a8f1780c0002258fa474a3c2f7ef7b1707b3e6ca55e2287d278e12fd7d08d0fb0363b2b0823d27caa2d3edd4235e68902800c60d7684dab4)#h3hd6tz2",
            "hex": "4104bc5782dc8dc141f3a8f1780c0002258fa474a3c2f7ef7b1707b3e6ca55e2287d278e12fd7d08d0fb0363b2b0823d27caa2d3edd4235e68902800c60d7684dab4ac",
            "type": "pubkey"
          }
        }
      ],
      "hex": "01000000010000000000000000000000000000000000000000000000000000000000000000ffffffff0804ffff001d025d08ffffffff0100f2052a01000000434104bc5782dc8dc141f3a8f1780c0002258fa474a3c2f7ef7b1707b3e6ca55e2287d278e12fd7d08d0fb0363b2b0823d27caa2d3edd4235e68902800c60d7684dab4ac00000000"
    }
  ]
}