{
  "hash": "0000000077a46379120a2d081b212f4f69f9a5d4f153419f7b58bbd9c94f85f7",
  "confirmations": 47878,
  "height": 5220,
  "version": 1,
  "versionHex": "00000001",
  "merkleroot": "aa5e822dac4a5dd3fd21873a7c4f410c1a4bc748e59dd8aebf8adad8e332bec2",
  "time": 1235300472,
  "mediantime": 1235295357,
  "nonce": 2154369321,
  "bits": "1d00ffff",
  "difficulty": 1,
  "chainwork": "0000000000000000000000000000000000000000000000000000146514651465",
  "nTx": 1,
  "previousblockhash": "00000000f7dfe5f7fa8d482a0b9277dd51ca01b3113320ecfddb20eb3cffffdc",
  "nextblockhash": "000000001700f2e36768136bdfe7afc1e00eab22d262b0b5b658a0d78efa1f5b",
  "strippedsize": 216,
  "size": 216,
  "weight": 864,
  "tx": [
    {
      "txid": "aa5e822dac4a5dd3fd21873a7c4f410c1a4bc748e59dd8aebf8adad8e332bec2",
      "hash": "aa5e822dac4a5dd3fd21873a7c4f410c1a4bc748e59dd8aebf8adad8e332bec2",
      "version": 1,
      "size": 135,
      "vsize": 135,
      "weight": 540,
      "locktime": 0,
      "vin": [
        {
          "coinbase": "04ffff001d02cc00",
          "sequence": 4294967295
        }
      ],
      "vout": [
        {
          "value": 50.0,
          "n": 0,
          "scriptPubKey": {
            "asm": "0432afa8ff4411def66068330849968076961b364625ca35e1e46a929a2d9919b32d8c8e35163370d95a6b87949ab6e7303f6c01900cf920129b4786380ad370d4 OP_CHECKSIG",
            "desc": "pk(0432afa8ff4411def66068330849968076961b364625ca35e1e46a929a2d9919b32d8c8e35163370d95a6b87949ab6e7303f6c01900cf920129b4786380ad370d4)#ladkuq4y",
            "hex": "410432afa8ff4411def66068330849968076961b364625ca35e1e46a929a2d9919b32d8c8e35163370d95a6b87949ab6e7303f6c01900cf920129b4786380ad370d4ac",
            "type": "pubkey"
          }
        }
      ],
      "hex": "01000000010000000000000000000000000000000000000000000000000000000000000000ffffffff0804ffff001d02cc00ffffffff0100f2052a0100000043410432afa8ff4411def66068330849968076961b364625ca35e1e46a929a2d9919b32d8c8e35163370d95a6b87949ab6e7303f6c01900cf920129b4786380ad370d4ac00000000"
    }
  ]
}