{
  "hash": "000000006f84c39f60dbbd7c09a45a8f4c5da4a68202ef7097643de38134fb2b",
  "confirmations": 44270,
  "height": 8828,
  "version": 1,
  "versionHex": "00000001",
  "merkleroot": "4fb6a42ee208fda5302ea016277fb0c542bfd6a09c922158674d0feb93008382",
  "time": 1238117707,
  "mediantime": 1238115353,
  "nonce": 2706573317,
  "bits": "1d00ffff",
  "difficulty": 1,
  "chainwork": "0000000000000000000000000000000000000000000000000000227d227d227d",
  "nTx": 1,
  "previousblockhash": "00000000117fa16d56de2cf7c3ae8184b4b1bce4dcea74294f711afd539c1341",
  "nextblockhash": "00000000775e3fc84079c869924535ec2d706a86534377d14820d793c8f9e15e",
  "strippedsize": 216,
  "size": 216,
  "weight": 864,
  "tx": [
    {
      "txid": "4fb6a42ee208fda5302ea016277fb0c542bfd6a09c922158674d0feb93008382",
      "hash": "4fb6a42ee208fda5302ea016277fb0c542bfd6a09c922158674d0feb93008382",
      "version": 1,
      "size": 135,
      "vsize": 135,
      "weight": 540,
      "locktime": 0,
      "vin": [
        {
          "coinbase": "04ffff001d024103",
          "sequence": 4294967295
        }
      ],
      "vout": [
        {
          "value": 50.0,
          "n": 0,
          "scriptPubKey": {
            "asm": "04f6b885a0074aa72c5fa1918a0461abdf3e70f7676df0a8f2850d6969f74a41368327eaa5199c25367c521797e8bd118c31e00a5460c37ab63b6086eafa4acf7e OP_CHECKSIG",
            "desc": "pk(04f6b885a0074aa72c5fa1918a0461abdf3e70f7676df0a8f2850d6969f74a41368327eaa5199c25367c521797e8bd118c31e00a5460c37ab63b6086eafa4acf7e)#vpqyrr90",
            "hex": "4104f6b885a0074aa72c5fa1918a0461abdf3e70f7676df0a8f2850d6969f74a41368327eaa5199c25367c521797e8bd118c31e00a5460c37ab63b6086eafa4acf7eac",
            "type": "pubkey"
          }
        }
      ],
      "hex": "01000000010000000000000000000000000000000000000000000000000000000000000000ffffffff0804ffff001d024103ffffffff0100f2052a01000000434104f6b885a0074aa72c5fa1918a0461abdf3e70f7676df0a8f2850d6969f74a41368327eaa5199c25367c521797e8bd118c31e00a5460c37ab63b6086eafa4acf7eac00000000"
    }
  ]
}