{
  "hash": "00000000f73fe67c4b7c62068e1801cc53d8333f951c14107e70f8179bd51cf7",
  "confirmations": 44198,
  "height": 8900,
  "version": 1,
  "versionHex": "00000001",
  "merkleroot": "4ec1e09884208a820aa6c041663442e632905b8c6556d6a61fcf0b5b05d242b1",
  "time": 1238178692,
  "mediantime": 1238174584,
  "nonce": 1809486903,
  "bits": "1d00ffff",
  "difficulty": 1,
  "chainwork": "000000000000000000000000000000000000000000000000000022c522c522c5",
  "nTx": 1,
  "previousblockhash": "00000000c1ce5fe1a2634169b9ad82c5bff5056f4ccd515d79d91a5c46fb199a",
  "nextblockhash": "00000000d44e8ccd202074e7c892d68eb22dbb7e3a2201455cd7c7e428d3c2b6",
  "strippedsize": 216,
  "size": 216,
  "weight": 864,
  "tx": [
    {
      "txid": "4ec1e09884208a820aa6c041663442e632905b8c6556d6a61fcf0b5b05d242b1",
      "hash": "4ec1e09884208a820aa6c041663442e632905b8c6556d6a61fcf0b5b05d242b1",
      "version": 1,
      "size": 135,
      "vsize": 135,
      "weight": 540,
      "locktime": 0,
      "vin": [
        {
          "coinbase": "04ffff001d027004",
          "sequence": 4294967295
        }
      ],
      "vout": [
        {
          "value": 50.0,
          "n": 0,
          "scriptPubKey": {
            "asm": "046925cb6492726f64c5970a4834f75ee686891889c833525608a8e95159fab8a6a1042fd9564d1cc4a1687eb8c22c0226f504d78d3ad83ba8dd2fb7bff0c9898b OP_CHECKSIG",
            "desc": "pk(046925cb6492726f64c5970a4834f75ee686891889c833525608a8e95159fab8a6a1042fd9564d1cc4a1687eb8c22c0226f504d78d3ad83ba8dd2fb7bff0c9898b)#zcjzew3n",
            "hex": "41046925cb6492726f64c5970a4834f75ee686891889c833525608a8e95159fab8a6a1042fd9564d1cc4a1687eb8c22c0226f504d78d3ad83ba8dd2fb7bff0c9898bac",
            "type": "pubkey"
          }
        }
      ],
      "hex": "01000000010000000000000000000000000000000000000000000000000000000000000000ffffffff0804ffff001d027004ffffffff0100f2052a010000004341046925cb6492726f64c5970a4834f75ee686891889c833525608a8e95159fab8a6a1042fd9564d1cc4a1687eb8c22c0226f504d78d3ad83ba8dd2fb7bff0c9898bac00000000"
    }
  ]
}