{
  "hash": "000000001be95682d66918627de7fab580a6f07f286a72f9c9d365f0e8b325d3",
  "confirmations": 50896,
  "height": 2202,
  "version": 1,
  "versionHex": "00000001",
  "merkleroot": "9853b98ac320db0e35f2bb6bdba0b8347bb4c4139c6f47c5bfcc01da73e2a975",
  "time": 1233217662,
  "mediantime": 1233213283,
  "nonce": 3440844571,
  "bits": "1d00ffff",
  "difficulty": 1,
  "chainwork": "0000000000000000000000000000000000000000000000000000089b089b089b",
  "nTx": 1,
  "previousblockhash": "00000000bc04ac00ee40d71ceff705a5e56f27e7c09c60320fba0c1da77f6c82",
  "nextblockhash": "00000000aba483f70dda91842e94012c30598643be0ec53d19598781e85b5b4f",
  "strippedsize": 215,
  "size": 215,
  "weight": 860,
  "tx": [
    {
      "txid": "9853b98ac320db0e35f2bb6bdba0b8347bb4c4139c6f47c5bfcc01da73e2a975",
      "hash": "9853b98ac320db0e35f2bb6bdba0b8347bb4c4139c6f47c5bfcc01da73e2a975",
      "version": 1,
      "size": 134,
      "vsize": 134,
      "weight": 536,
      "locktime": 0,
      "vin": [
        {
          "coinbase": "04ffff001d016f",
          "sequence": 4294967295
        }
      ],
      "vout": [
        {
          "value": 50.0,
          "n": 0,
          "scriptPubKey": {
            "asm": "041e9bc767abd70f8a925109b19815e6347b381c7fe187fbe0d443160ba02fff35a48b988e005b68ec86a9eb0615b60410d5236a6b7a5aca4732b221d3afd8b9e8 OP_CHECKSIG",
            "desc": "pk(041e9bc767abd70f8a925109b19815e6347b381c7fe187fbe0d443160ba02fff35a48b988e005b68ec86a9eb0615b60410d5236a6b7a5aca4732b221d3afd8b9e8)#l6c080h9",
            "hex": "41041e9bc767abd70f8a925109b19815e6347b381c7fe187fbe0d443160ba02fff35a48b988e005b68ec86a9eb0615b60410d5236a6b7a5aca4732b221d3afd8b9e8ac",
            "type": "pubkey"
          }
        }
      ],
      "hex": "01000000010000000000000000000000000000000000000000000000000000000000000000ffffffff0704ffff001d016fffffffff0100f2052a010000004341041e9bc767abd70f8a925109b19815e6347b381c7fe187fbe0d443160ba02fff35a48b988e005b68ec86a9eb0615b60410d5236a6b7a5aca4732b221d3afd8b9e8ac00000000"
    }
  ]
}