{
  "hash": "0000000023b6a52f525d702667b86e43f2a3a7e73a841da8b7a61e0cc6502e22",
  "confirmations": 43378,
  "height": 9720,
  "version": 1,
  "versionHex": "00000001",
  "merkleroot": "039dc18c15b5a19d93d605c5fa7b8a6aabe3fcfc8cac968c90c9350b66c27225",
  "time": 1238793539,
  "mediantime": 1238789632,
  "nonce": 3157072133,
  "bits": "1d00ffff",
  "difficulty": 1,
  "chainwork": "000000000000000000000000000000000000000000000000000025f925f925f9",
  "nTx": 1,
  "previousblockhash": "00000000c609eea603a94e64c34c8a2e9bd808d2a13d8c05eadb1a84976d249e",
  "nextblockhash": "00000000163ed6f97b29b7c061245969d26a75f3e254a9ced19a1aa1cd0ed945",
  "strippedsize": 216,
  "size": 216,
  "weight": 864,
  "tx": [
    {
      "txid": "039dc18c15b5a19d93d605c5fa7b8a6aabe3fcfc8cac968c90c9350b66c27225",
      "hash": "039dc18c15b5a19d93d605c5fa7b8a6aabe3fcfc8cac968c90c9350b66c27225",
      "version": 1,
      "size": 135,
      "vsize": 135,
      "weight": 540,
      "locktime": 0,
      "vin": [
        {
          "coinbase": "04ffff001d02e208",
          "sequence": 4294967295
        }
      ],
      "vout": [
        {
          "value": 50.0,
          "n": 0,
          "scriptPubKey": {
            "asm": "041700ec6f564770d6c344c42c5627d02c7aba33abfbd64931c4c8299a2ad2c05b6af741d96a5df7610a5c919c549b953cc1eac51c850627ff87d401a6c2a53704 OP_CHECKSIG",
            "desc": "pk(041700ec6f564770d6c344c42c5627d02c7aba33abfbd64931c4c8299a2ad2c05b6af741d96a5df7610a5c919c549b953cc1eac51c850627ff87d401a6c2a53704)#nsj2shln",
            "hex": "41041700ec6f564770d6c344c42c5627d02c7aba33abfbd64931c4c8299a2ad2c05b6af741d96a5df7610a5c919c549b953cc1eac51c850627ff87d401a6c2a53704ac",
            "type": "pubkey"
          }
        }
      ],
      "hex": "01000000010000000000000000000000000000000000000000000000000000000000000000ffffffff0804ffff001d02e208ffffffff0100f2052a010000004341041700ec6f564770d6c344c42c5627d02c7aba33abfbd64931c4c8299a2ad2c05b6af741d96a5df7610a5c919c549b953cc1eac51c850627ff87d401a6c2a53704ac00000000"
    }
  ]
}