{
  "hash": "0000000004b7c0bdbf2d818f3e4d441d8db5fd2e8168d0150edda83dc59b7da6",
  "confirmations": 52002,
  "height": 338,
  "version": 1,
  "versionHex": "00000001",
  "merkleroot": "66b5989a35a9a50b63617b5d410a6376e2df36fcd6c8355a8b8a56c568c3113a",
  "time": 1231857528,
  "mediantime": 1231855081,
  "nonce": 299001910,
  "bits": "1d00ffff",
  "difficulty": 1,
  "chainwork": "0000000000000000000000000000000000000000000000000000015301530153",
  "nTx": 1,
  "previousblockhash": "000000005f8dbc254ba41890b98e5a9e218c220a3476455539db27f642db3673",
  "nextblockhash": "000000001122ea7605edc62081cefc267a41e3fe3fd7b86874b3ee6217de23fb",
  "strippedsize": 216,
  "size": 216,
  "weight": 864,
  "tx": [
    {
      "txid": "66b5989a35a9a50b63617b5d410a6376e2df36fcd6c8355a8b8a56c568c3113a",
      "hash": "66b5989a35a9a50b63617b5d410a6376e2df36fcd6c8355a8b8a56c568c3113a",
      "version": 1,
      "size": 135,
      "vsize": 135,
      "weight": 540,
      "locktime": 0,
      "vin": [
        {
          "coinbase": "04ffff001d024a01",
          "sequence": 4294967295
        }
      ],
      "vout": [
        {
          "value": 50.0,
          "n": 0,
          "scriptPubKey": {
            "asm": "04b6f2ce9b9809acada419246219291e5352a12eae00890da4b82a64dd762a31ffa7f4d738dacb44c032bf5481a94b6bd1323d8e10d19d77e31ac2e322a8c7c0ed OP_CHECKSIG",
            "desc": "pk(04b6f2ce9b9809acada419246219291e5352a12eae00890da4b82a64dd762a31ffa7f4d738dacb44c032bf5481a94b6bd1323d8e10d19d77e31ac2e322a8c7c0ed)#7x5g3emu",
            "hex": "4104b6f2ce9b9809acada419246219291e5352a12eae00890da4b82a64dd762a31ffa7f4d738dacb44c032bf5481a94b6bd1323d8e10d19d77e31ac2e322a8c7c0edac",
            "type": "pubkey"
          }
        }
      ],
      "hex": "01000000010000000000000000000000000000000000000000000000000000000000000000ffffffff0804ffff001d024a01ffffffff0100f2052a01000000434104b6f2ce9b9809acada419246219291e5352a12eae00890da4b82a64dd762a31ffa7f4d738dacb44c032bf5481a94b6bd1323d8e10d19d77e31ac2e322a8c7c0edac00000000"
    }
  ]
}