{
  "hash": "0000000009107c988aa6fe175777cae7b2e37b6719b580de63dccbcc9be710ce",
  "confirmations": 45359,
  "height": 7739,
  "version": 1,
  "versionHex": "00000001",
  "merkleroot": "9245c32b561606d90e8c29e9f549a3d12d79ce43457fa990a0ff2b01bdde0663",
  "time": 1237268995,
  "mediantime": 1237264800,
  "nonce": 2121065000,
  "bits": "1d00ffff",
  "difficulty": 1,
  "chainwork": "00000000000000000000000000000000000000000000000000001e3c1e3c1e3c",
  "nTx": 1,
  "previousblockhash": "000000003d5ee41ea292e548d8c5e60a3f181864d5b744c6de2e10a750a48f60",
  "nextblockhash": "000000001751153d790e15e80aade796bbc73257e897648d6d26eedc5166b0b7",
  "strippedsize": 216,
  "size": 216,
  "weight": 864,
  "tx": [
    {
      "txid": "9245c32b561606d90e8c29e9f549a3d12d79ce43457fa990a0ff2b01bdde0663",
      "hash": "9245c32b561606d90e8c29e9f549a3d12d79ce43457fa990a0ff2b01bdde0663",
      "version": 1,
      "size": 135,
      "vsize": 135,
      "weight": 540,
      "locktime": 0,
      "vin": [
        {
          "coinbase": "04ffff001d02d504",
          "sequence": 4294967295
        }
      ],
      "vout": [
        {
          "value": 50.0,
          "n": 0,
          "scriptPubKey": {
            "asm": "042e68bbb619d3028ff37420134592724cac8350b5bd2508827e83d123ac15e542bf3fdbfdec5f4094059549ce40d82d2ba0cc67f003c49e33ff048b70a5853c17 OP_CHECKSIG",
            "desc": "pk(042e68bbb619d3028ff37420134592724cac8350b5bd2508827e83d123ac15e542bf3fdbfdec5f4094059549ce40d82d2ba0cc67f003c49e33ff048b70a5853c17)#s764esq7",
            "hex": "41042e68bbb619d3028ff37420134592724cac8350b5bd2508827e83d123ac15e542bf3fdbfdec5f4094059549ce40d82d2ba0cc67f003c49e33ff048b70a5853c17ac",
            "type": "pubkey"
          }
        }
      ],
      "hex": "01000000010000000000000000000000000000000000000000000000000000000000000000ffffffff0804ffff001d02d504ffffffff0100f2052a010000004341042e68bbb619d3028ff37420134592724cac8350b5bd2508827e83d123ac15e542bf3fdbfdec5f4094059549ce40d82d2ba0cc67f003c49e33ff048b70a5853c17ac00000000"
    }
  ]
}