{
  "hash": "0000000087841ef9d34b4a9604314ee994457266282a9de66a673ed7787f4c24",
  "confirmations": 48981,
  "height": 4117,
  "version": 1,
  "versionHex": "00000001",
  "merkleroot": "4521349f6db6a2adacb53a93bce15f72bf435032ad6da6496eabff518125ecff",
  "time": 1234525337,
  "mediantime": 1234522355,
  "nonce": 137733247,
  "bits": "1d00ffff",
  "difficulty": 1,
  "chainwork": "0000000000000000000000000000000000000000000000000000101610161016",
  "nTx": 1,
  "previousblockhash": "00000000d6ce21eb90fbe6d913ca4446a20b68244fcb9ad60b6e488b30a3088d",
  "nextblockhash": "00000000a244a05a450e401e820bfe30e3cb4d149a3a468e83aef3790b9fc4ca",
  "strippedsize": 216,
  "size": 216,
  "weight": 864,
  "tx": [
    {
      "txid": "4521349f6db6a2adacb53a93bce15f72bf435032ad6da6496eabff518125ecff",
      "hash": "4521349f6db6a2adacb53a93bce15f72bf435032ad6da6496eabff518125ecff",
      "version": 1,
      "size": 135,
      "vsize": 135,
      "weight": 540,
      "locktime": 0,
      "vin": [
        {
          "coinbase": "04ffff001d028c00",
          "sequence": 4294967295
        }
      ],
      "vout": [
        {
          "value": 50.0,
          "n": 0,
          "scriptPubKey": {
            "asm": "0431ffcbc9bacc46ba6ce9e715e4fd5dae49faeec8f7decf3047567e502419ba433fafa0ecf388e2a973c2a0ec3402de771fad75a3817b307b85494c48c28d5baf OP_CHECKSIG",
            "desc": "pk(0431ffcbc9bacc46ba6ce9e715e4fd5dae49faeec8f7decf3047567e502419ba433fafa0ecf388e2a973c2a0ec3402de771fad75a3817b307b85494c48c28d5baf)#zqkxjfar",
            "hex": "410431ffcbc9bacc46ba6ce9e715e4fd5dae49faeec8f7decf3047567e502419ba433fafa0ecf388e2a973c2a0ec3402de771fad75a3817b307b85494c48c28d5bafac",
            "type": "pubkey"
          }
        }
      ],
      "hex": "01000000010000000000000000000000000000000000000000000000000000000000000000ffffffff0804ffff001d028c00ffffffff0100f2052a0100000043410431ffcbc9bacc46ba6ce9e715e4fd5dae49faeec8f7decf3047567e502419ba433fafa0ecf388e2a973c2a0ec3402de771fad75a3817b307b85494c48c28d5bafac00000000"
    }
  ]
}