{
  "hash": "000000007832443d72c1cda744b0f5cf1bf06f8aae84a82d1692cb63b7918cb6",
  "confirmations": 47385,
  "height": 5713,
  "version": 1,
  "versionHex": "00000001",
  "merkleroot": "9763805db2c0b5f7542fdd75bf3d25655c5bc90e4863efd2fe2332fca957cdae",
  "time": 1235695314,
  "mediantime": 1235692121,
  "nonce": 94601580,
  "bits": "1d00ffff",
  "difficulty": 1,
  "chainwork": "0000000000000000000000000000000000000000000000000000165216521652",
  "nTx": 1,
  "previousblockhash": "000000003b081994b01ed6693e8f33f6a4cc9a5fd94b9c037743ad9883489c72",
  "nextblockhash": "00000000670c002eabbf8a7f82dc78015e9fdc87c353e6aa2f8c3e27e4a066e6",
  "strippedsize": 215,
  "size": 215,
  "weight": 860,
  "tx": [
    {
      "txid": "9763805db2c0b5f7542fdd75bf3d25655c5bc90e4863efd2fe2332fca957cdae",
      "hash": "9763805db2c0b5f7542fdd75bf3d25655c5bc90e4863efd2fe2332fca957cdae",
      "version": 1,
      "size": 134,
      "vsize": 134,
      "weight": 536,
      "locktime": 0,
      "vin": [
        {
          "coinbase": "04ffff001d0157",
          "sequence": 4294967295
        }
      ],
      "vout": [
        {
          "value": 50.0,
          "n": 0,
          "scriptPubKey": {
            "asm": "042dcc104ff65b52c08279bff0fab7a9117ad4441864ebb1babe62798c9a93b893b9aeeda93eff5b8a69e971a062839afe24ae03a4deeef05c894a41ac40faf472 OP_CHECKSIG",
            "desc": "pk(042dcc104ff65b52c08279bff0fab7a9117ad4441864ebb1babe62798c9a93b893b9aeeda93eff5b8a69e971a062839afe24ae03a4deeef05c894a41ac40faf472)#xe5680kw",
            "hex": "41042dcc104ff65b52c08279bff0fab7a9117ad4441864ebb1babe62798c9a93b893b9aeeda93eff5b8a69e971a062839afe24ae03a4deeef05c894a41ac40faf472ac",
            "type": "pubkey"
          }
        }
      ],
      "hex": "01000000010000000000000000000000000000000000000000000000000000000000000000ffffffff0704ffff001d0157ffffffff0100f2052a010000004341042dcc104ff65b52c08279bff0fab7a9117ad4441864ebb1babe62798c9a93b893b9aeeda93eff5b8a69e971a062839afe24ae03a4deeef05c894a41ac40faf472ac00000000"
    }
  ]
}