{
  "hash": "0000000060d16cce0658fceae1b62a37cc62f9bf09be2e3e52937cb2c3d9524a",
  "confirmations": 51638,
  "height": 1460,
  "version": 1,
  "versionHex": "00000001",
  "merkleroot": "d580435367b7cc39a6beca4f026cccf4d3c5471d02a62399b95077874179fa32",
  "time": 1232751181,
  "mediantime": 1232749060,
  "nonce": 1252162816,
  "bits": "1d00ffff",
  "difficulty": 1,
  "chainwork": "000000000000000000000000000000000000000000000000000005b505b505b5",
  "nTx": 1,
  "previousblockhash": "00000000b4dc86bde4f53e35aa10b4657e214fe01e8841740a11f80b7f7bd9c3",
  "nextblockhash": "00000000cf6079dfd7ac746dba92447333a73ac03b31572a0d47e42181bd48d1",
  "strippedsize": 216,
  "size": 216,
  "weight": 864,
  "tx": [
    {
      "txid": "d580435367b7cc39a6beca4f026cccf4d3c5471d02a62399b95077874179fa32",
      "hash": "d580435367b7cc39a6beca4f026cccf4d3c5471d02a62399b95077874179fa32",
      "version": 1,
      "size": 135,
      "vsize": 135,
      "weight": 540,
      "locktime": 0,
      "vin": [
        {
          "coinbase": "04ffff001d02de00",
          "sequence": 4294967295
        }
      ],
      "vout": [
        {
          "value": 50.0,
          "n": 0,
          "scriptPubKey": {
            "asm": "048175420af33e6de556c647a597b634e6e6a87ab737a3327988749dbfd8698a7596084075e1282bccb262abd70060ef0f92b8739145b5ecf8a7fc2daf21ce4b90 OP_CHECKSIG",
            "desc": "pk(048175420af33e6de556c647a597b634e6e6a87ab737a3327988749dbfd8698a7596084075e1282bccb262abd70060ef0f92b8739145b5ecf8a7fc2daf21ce4b90)#rzcmqyvn",
            "hex": "41048175420af33e6de556c647a597b634e6e6a87ab737a3327988749dbfd8698a7596084075e1282bccb262abd70060ef0f92b8739145b5ecf8a7fc2daf21ce4b90ac",
            "type": "pubkey"
          }
        }
      ],
      "hex": "01000000010000000000000000000000000000000000000000000000000000000000000000ffffffff0804ffff001d02de00ffffffff0100f2052a010000004341048175420af33e6de556c647a597b634e6e6a87ab737a3327988749dbfd8698a7596084075e1282bccb262abd70060ef0f92b8739145b5ecf8a7fc2daf21ce4b90ac00000000"
    }
  ]
}