{
  "hash": "000000007b7657a7d2ad592b5103ca326d9eccb9fb4a4fa838522d80fec99b68",
  "confirmations": 51168,
  "height": 1930,
  "version": 1,
  "versionHex": "00000001",
  "merkleroot": "824c090d913bc3030316f16e909e610e132b465874e3389adb8b8939ad1708b6",
  "time": 1232990956,
  "mediantime": 1232986001,
  "nonce": 2540078364,
  "bits": "1d00ffff",
  "difficulty": 1,
  "chainwork": "0000000000000000000000000000000000000000000000000000078b078b078b",
  "nTx": 1,
  "previousblockhash": "00000000b47e11bcd166f6da173d0af55ba9164f5d9020fd98278830319793d7",
  "nextblockhash": "0000000022fcfe5272c4a161a8bab8a3a83916f4112f447d247a5a7a0d4ec493",
  "strippedsize": 215,
  "size": 215,
  "weight": 860,
  "tx": [
    {
      "txid": "824c090d913bc3030316f16e909e610e132b465874e3389adb8b8939ad1708b6",
      "hash": "824c090d913bc3030316f16e909e610e132b465874e3389adb8b8939ad1708b6",
      "version": 1,
      "size": 134,
      "vsize": 134,
      "weight": 536,
      "locktime": 0,
      "vin": [
        {
          "coinbase": "04ffff001d0137",
          "sequence": 4294967295
        }
      ],
      "vout": [
        {
          "value": 50.0,
          "n": 0,
          "scriptPubKey": {
            "asm": "04a896ea0511e9b892b0dae2d036610e55cd1c3b0a56bc494fb7ce31e8be9c78b5079856a622ac45c46fc44009cf9896369a54ef6df1685e9949e4f9b53f453c1f OP_CHECKSIG",
            "desc": "pk(04a896ea0511e9b892b0dae2d036610e55cd1c3b0a56bc494fb7ce31e8be9c78b5079856a622ac45c46fc44009cf9896369a54ef6df1685e9949e4f9b53f453c1f)#lszxgm7p",
            "hex": "4104a896ea0511e9b892b0dae2d036610e55cd1c3b0a56bc494fb7ce31e8be9c78b5079856a622ac45c46fc44009cf9896369a54ef6df1685e9949e4f9b53f453c1fac",
            "type": "pubkey"
          }
        }
      ],
      "hex": "01000000010000000000000000000000000000000000000000000000000000000000000000ffffffff0704ffff001d0137ffffffff0100f2052a01000000434104a896ea0511e9b892b0dae2d036610e55cd1c3b0a56bc494fb7ce31e8be9c78b5079856a622ac45c46fc44009cf9896369a54ef6df1685e9949e4f9b53f453c1fac00000000"
    }
  ]
}