{
  "hash": "00000000e5aafc1c3dbd73a2d90fb42b9cfbc18835c21a2e0881ddad91dda766",
  "confirmations": 46233,
  "height": 6865,
  "version": 1,
  "versionHex": "00000001",
  "merkleroot": "b5c2b7a558a07d1157996a52bd081dbd8ba0e0e6ea7de8cfcae314d55bd5ada9",
  "time": 1236605651,
  "mediantime": 1236603335,
  "nonce": 162887551,
  "bits": "1d00ffff",
  "difficulty": 1,
  "chainwork": "00000000000000000000000000000000000000000000000000001ad21ad21ad2",
  "nTx": 1,
  "previousblockhash": "000000007f61cfcf11ddde9a4d078da91b8c18831e3f75cd1263366292142786",
  "nextblockhash": "00000000fe588b9409e65b74d465f36b7d792e649d3cb3bdcacaae5d3d3297d7",
  "strippedsize": 216,
  "size": 216,
  "weight": 864,
  "tx": [
    {
      "txid": "b5c2b7a558a07d1157996a52bd081dbd8ba0e0e6ea7de8cfcae314d55bd5ada9",
      "hash": "b5c2b7a558a07d1157996a52bd081dbd8ba0e0e6ea7de8cfcae314d55bd5ada9",
      "version": 1,
      "size": 135,
      "vsize": 135,
      "weight": 540,
      "locktime": 0,
      "vin": [
        {
          "coinbase": "04ffff001d029d0c",
          "sequence": 4294967295
        }
      ],
      "vout": [
        {
          "value": 50.0,
          "n": 0,
          "scriptPubKey": {
            "asm": "041b7ea7140de29049ff886d3b23e23ae361f0d63006b0576f760f2d9cc32b6b51f5a4029118f032c39f825b9357587a4381b07537a2803ea99a3bf13a82115862 OP_CHECKSIG",
            "desc": "pk(041b7ea7140de29049ff886d3b23e23ae361f0d63006b0576f760f2d9cc32b6b51f5a4029118f032c39f825b9357587a4381b07537a2803ea99a3bf13a82115862)#0xy8jlqq",
            "hex": "41041b7ea7140de29049ff886d3b23e23ae361f0d63006b0576f760f2d9cc32b6b51f5a4029118f032c39f825b9357587a4381b07537a2803ea99a3bf13a82115862ac",
            "type": "pubkey"
          }
        }
      ],
      "hex": "01000000010000000000000000000000000000000000000000000000000000000000000000ffffffff0804ffff001d029d0cffffffff0100f2052a010000004341041b7ea7140de29049ff886d3b23e23ae361f0d63006b0576f760f2d9cc32b6b51f5a4029118f032c39f825b9357587a4381b07537a2803ea99a3bf13a82115862ac00000000"
    }
  ]
}