{
  "hash": "00000000f46b55a0ecc3fa92b34fa4b1b646710e51181ffdf93a8a630721cdf6",
  "confirmations": 43779,
  "height": 9319,
  "version": 1,
  "versionHex": "00000001",
  "merkleroot": "0643e12cea0a24f0d11f1c164bcb0d85210b97857e5dcd7b5e5cd8eb11532318",
  "time": 1238487917,
  "mediantime": 1238484934,
  "nonce": 204014592,
  "bits": "1d00ffff",
  "difficulty": 1,
  "chainwork": "0000000000000000000000000000000000000000000000000000246824682468",
  "nTx": 1,
  "previousblockhash": "000000009da588f7c54afef0760b5808b55472a1e8a9b919d2d47a7fa0c0e6c9",
  "nextblockhash": "00000000eaeeff813cc2ef15fd33a82d26c44830304a8667472d4d3dcd53d7dd",
  "strippedsize": 216,
  "size": 216,
  "weight": 864,
  "tx": [
    {
      "txid": "0643e12cea0a24f0d11f1c164bcb0d85210b97857e5dcd7b5e5cd8eb11532318",
      "hash": "0643e12cea0a24f0d11f1c164bcb0d85210b97857e5dcd7b5e5cd8eb11532318",
      "version": 1,
      "size": 135,
      "vsize": 135,
      "weight": 540,
      "locktime": 0,
      "vin": [
        {
          "coinbase": "04ffff001d021902",
          "sequence": 4294967295
        }
      ],
      "vout": [
        {
          "value": 50.0,
          "n": 0,
          "scriptPubKey": {
            "asm": "04f3ae2bee97beab3be3b4852fc1eb6b49a094c7c891a095701b0321102d147fbb1041775de459c8567d79036537874908fc2b3ac8fd0c145669691c2a2eef5272 OP_CHECKSIG",
            "desc": "pk(04f3ae2bee97beab3be3b4852fc1eb6b49a094c7c891a095701b0321102d147fbb1041775de459c8567d79036537874908fc2b3ac8fd0c145669691c2a2eef5272)#dluu2pla",
            "hex": "4104f3ae2bee97beab3be3b4852fc1eb6b49a094c7c891a095701b0321102d147fbb1041775de459c8567d79036537874908fc2b3ac8fd0c145669691c2a2eef5272ac",
            "type": "pubkey"
          }
        }
      ],
      "hex": "01000000010000000000000000000000000000000000000000000000000000000000000000ffffffff0804ffff001d021902ffffffff0100f2052a01000000434104f3ae2bee97beab3be3b4852fc1eb6b49a094c7c891a095701b0321102d147fbb1041775de459c8567d79036537874908fc2b3ac8fd0c145669691c2a2eef5272ac00000000"
    }
  ]
}