{
  "hash": "00000000a4ebc8522eb6edb64d11ab3f048b7f19567bd6222c69b4b420336910",
  "confirmations": 47985,
  "height": 5113,
  "version": 1,
  "versionHex": "00000001",
  "merkleroot": "42be10376ae39cbf1fe05014d147aaf6462d1de8f7c06024f7e7fbb4a9c922d6",
  "time": 1235226241,
  "mediantime": 1235223658,
  "nonce": 1157248054,
  "bits": "1d00ffff",
  "difficulty": 1,
  "chainwork": "000000000000000000000000000000000000000000000000000013fa13fa13fa",
  "nTx": 1,
  "previousblockhash": "00000000640502947f5709f8ef1fea4abf85a1708773bde51c70c0bb7342abdc",
  "nextblockhash": "00000000c4eeaa02cf94004eba86b724fe3c47634292a3ae0aa20339f17aae87",
  "strippedsize": 216,
  "size": 216,
  "weight": 864,
  "tx": [
    {
      "txid": "42be10376ae39cbf1fe05014d147aaf6462d1de8f7c06024f7e7fbb4a9c922d6",
      "hash": "42be10376ae39cbf1fe05014d147aaf6462d1de8f7c06024f7e7fbb4a9c922d6",
      "version": 1,
      "size": 135,
      "vsize": 135,
      "weight": 540,
      "locktime": 0,
      "vin": [
        {
          "coinbase": "04ffff001d023209",
          "sequence": 4294967295
        }
      ],
      "vout": [
        {
          "value": 50.0,
          "n": 0,
          "scriptPubKey": {
            "asm": "04f87802bfe993ba03b12f5774e45fda7698607556ba37d851999749235a7eeb7b2fcb3cd2b4dd1e5f97e8b9588deca7853fdfdac264fe323c790c9e3576d41c28 OP_CHECKSIG",
            "desc": "pk(04f87802bfe993ba03b12f5774e45fda7698607556ba37d851999749235a7eeb7b2fcb3cd2b4dd1e5f97e8b9588deca7853fdfdac264fe323c790c9e3576d41c28)#swzxjm79",
            "hex": "4104f87802bfe993ba03b12f5774e45fda7698607556ba37d851999749235a7eeb7b2fcb3cd2b4dd1e5f97e8b9588deca7853fdfdac264fe323c790c9e3576d41c28ac",
            "type": "pubkey"
          }
        }
      ],
      "hex": "01000000010000000000000000000000000000000000000000000000000000000000000000ffffffff0804ffff001d023209ffffffff0100f2052a01000000434104f87802bfe993ba03b12f5774e45fda7698607556ba37d851999749235a7eeb7b2fcb3cd2b4dd1e5f97e8b9588deca7853fdfdac264fe323c790c9e3576d41c28ac00000000"
    }
  ]
}