{
  "hash": "000000003031a0e73735690c5a1ff2a4be82553b2a12b776fbd3a215dc8f778d",
  "confirmations": 51770,
  "height": 6,
  "version": 1,
  "versionHex": "00000001",
  "merkleroot": "20251a76e64e920e58291a30d4b212939aae976baca40e70818ceaa596fb9d37",
  "time": 1231471789,
  "mediantime": 1231470173,
  "nonce": 2538380312,
  "bits": "1d00ffff",
  "difficulty": 1,
  "chainwork": "0000000000000000000000000000000000000000000000000000000700070007",
  "nTx": 1,
  "previousblockhash": "000000009b7262315dbf071787ad3656097b892abffd1f95a1a022f896f533fc",
  "nextblockhash": "0000000071966c2b1d065fd446b1e485b2c9d9594acd2007ccbd5441cfc89444",
  "strippedsize": 215,
  "size": 215,
  "weight": 860,
  "tx": [
    {
      "txid": "20251a76e64e920e58291a30d4b212939aae976baca40e70818ceaa596fb9d37",
      "hash": "20251a76e64e920e58291a30d4b212939aae976baca40e70818ceaa596fb9d37",
      "version": 1,
      "size": 134,
      "vsize": 134,
      "weight": 536,
      "locktime": 0,
      "vin": [
        {
          "coinbase": "04ffff001d0123",
          "sequence": 4294967295
        }
      ],
      "vout": [
        {
          "value": 50.0,
          "n": 0,
          "scriptPubKey": {
            "asm": "0408ce279174b34c077c7b2043e3f3d45a588b85ef4ca466740f848ead7fb498f0a795c982552fdfa41616a7c0333a269d62108588e260fd5a48ac8e4dbf49e2bc OP_CHECKSIG",
            "desc": "pk(0408ce279174b34c077c7b2043e3f3d45a588b85ef4ca466740f848ead7fb498f0a795c982552fdfa41616a7c0333a269d62108588e260fd5a48ac8e4dbf49e2bc)#qz9e8jm4",
            "hex": "410408ce279174b34c077c7b2043e3f3d45a588b85ef4ca466740f848ead7fb498f0a795c982552fdfa41616a7c0333a269d62108588e260fd5a48ac8e4dbf49e2bcac",
            "type": "pubkey"
          }
        }
      ],
      "hex": "01000000010000000000000000000000000000000000000000000000000000000000000000ffffffff0704ffff001d0123ffffffff0100f2052a0100000043410408ce279174b34c077c7b2043e3f3d45a588b85ef4ca466740f848ead7fb498f0a795c982552fdfa41616a7c0333a269d62108588e260fd5a48ac8e4dbf49e2bcac00000000"
    }
  ]
}