{
  "hash": "00000000d4cc36aa56bc86e401bb3748d974d3fbae22dd555e9ad1e77308e391",
  "confirmations": 47463,
  "height": 5635,
  "version": 1,
  "versionHex": "00000001",
  "merkleroot": "cf7261459776449210b0bf15b1aa0c2b235e962321c4c0b3868fe4cdf387a7fd",
  "time": 1235634594,
  "mediantime": 1235629708,
  "nonce": 4264422660,
  "bits": "1d00ffff",
  "difficulty": 1,
  "chainwork": "0000000000000000000000000000000000000000000000000000160416041604",
  "nTx": 1,
  "previousblockhash": "0000000024ec7df45bcbc4c633c369540304a7f6c27e47d3629b71b254bf6f06",
  "nextblockhash": "000000006044d922fae8142a8dc33661b8ace68fc48a148214bf25b6f16c01a0",
  "strippedsize": 216,
  "size": 216,
  "weight": 864,
  "tx": [
    {
      "txid": "cf7261459776449210b0bf15b1aa0c2b235e962321c4c0b3868fe4cdf387a7fd",
      "hash": "cf7261459776449210b0bf15b1aa0c2b235e962321c4c0b3868fe4cdf387a7fd",
      "version": 1,
      "size": 135,
      "vsize": 135,
      "weight": 540,
      "locktime": 0,
      "vin": [
        {
          "coinbase": "04ffff001d025f08",
          "sequence": 4294967295
        }
      ],
      "vout": [
        {
          "value": 50.0,
          "n": 0,
          "scriptPubKey": {
            "asm": "041d2634cd54061391505d067fb9c23d150b113be2447130c4e283651f4eecf586c2fa6062ff618abba40b907613e738c4ed8ce2bd5e379b962329039f3f822fdf OP_CHECKSIG",
            "desc": "pk(041d2634cd54061391505d067fb9c23d150b113be2447130c4e283651f4eecf586c2fa6062ff618abba40b907613e738c4ed8ce2bd5e379b962329039f3f822fdf)#qez3zyvz",
            "hex": "41041d2634cd54061391505d067fb9c23d150b113be2447130c4e283651f4eecf586c2fa6062ff618abba40b907613e738c4ed8ce2bd5e379b962329039f3f822fdfac",
            "type": "pubkey"
          }
        }
      ],
      "hex": "01000000010000000000000000000000000000000000000000000000000000000000000000ffffffff0804ffff001d025f08ffffffff0100f2052a010000004341041d2634cd54061391505d067fb9c23d150b113be2447130c4e283651f4eecf586c2fa6062ff618abba40b907613e738c4ed8ce2bd5e379b962329039f3f822fdfac00000000"
    }
  ]
}