{
  "hash": "000000006650fe70a9f6441e9b8a4411bda08b84b4baab240910a57e44d6fd14",
  "confirmations": 43526,
  "height": 9572,
  "version": 1,
  "versionHex": "00000001",
  "merkleroot": "e0b41a047f712f968fefd0cc814d94914501632a560216f9181eab820d699c16",
  "time": 1238679887,
  "mediantime": 1238676896,
  "nonce": 101115941,
  "bits": "1d00ffff",
  "difficulty": 1,
  "chainwork": "0000000000000000000000000000000000000000000000000000256525652565",
  "nTx": 1,
  "previousblockhash": "00000000373421d4b8411038e7494a5c6324d0dea938e629b84a8f7b02843f44",
  "nextblockhash": "0000000009e9fa775a2d3fbf04779dc784bff89b95870a684ca597d3bdbe800d",
  "strippedsize": 216,
  "size": 216,
  "weight": 864,
  "tx": [
    {
      "txid": "e0b41a047f712f968fefd0cc814d94914501632a560216f9181eab820d699c16",
      "hash": "e0b41a047f712f968fefd0cc814d94914501632a560216f9181eab820d699c16",
      "version": 1,
      "size": 135,
      "vsize": 135,
      "weight": 540,
      "locktime": 0,
      "vin": [
        {
          "coinbase": "04ffff001d029406",
          "sequence": 4294967295
        }
      ],
      "vout": [
        {
          "value": 50.0,
          "n": 0,
          "scriptPubKey": {
            "asm": "0463c64b94547d8997593f3c25a3242cd25caba99b0355df34a75f69d00f575ae915b43254ae980f6c292287d418e3db07b18a21a2fd0d965fc8806da2e8732f0d OP_CHECKSIG",
            "desc": "pk(0463c64b94547d8997593f3c25a3242cd25caba99b0355df34a75f69d00f575ae915b43254ae980f6c292287d418e3db07b18a21a2fd0d965fc8806da2e8732f0d)#nx7lze9d",
            "hex": "410463c64b94547d8997593f3c25a3242cd25caba99b0355df34a75f69d00f575ae915b43254ae980f6c292287d418e3db07b18a21a2fd0d965fc8806da2e8732f0dac",
            "type": "pubkey"
          }
        }
      ],
      "hex": "01000000010000000000000000000000000000000000000000000000000000000000000000ffffffff0804ffff001d029406ffffffff0100f2052a0100000043410463c64b94547d8997593f3c25a3242cd25caba99b0355df34a75f69d00f575ae915b43254ae980f6c292287d418e3db07b18a21a2fd0d965fc8806da2e8732f0dac00000000"
    }
  ]
}