{
  "hash": "00000000a03e9095f0f0785c6502f5d25ba50967bc77ee63ffbdd34cc7045bdd",
  "confirmations": 46808,
  "height": 6290,
  "version": 1,
  "versionHex": "00000001",
  "merkleroot": "c92d3acf6f66d9e436f6b0000f05228ba921f2dac08900c84254aef0749f5abd",
  "time": 1236162323,
  "mediantime": 1236158810,
  "nonce": 60346160,
  "bits": "1d00ffff",
  "difficulty": 1,
  "chainwork": "0000000000000000000000000000000000000000000000000000189318931893",
  "nTx": 1,
  "previousblockhash": "00000000b19e3b536ba8550b0be093ebe29d5e1f313cd50999951fe9974e76a8",
  "nextblockhash": "0000000019de4e5cbe32d0609b7f6499216d1b2b8243085bc0176c58b0db44eb",
  "strippedsize": 216,
  "size": 216,
  "weight": 864,
  "tx": [
    {
      "txid": "c92d3acf6f66d9e436f6b0000f05228ba921f2dac08900c84254aef0749f5abd",
      "hash": "c92d3acf6f66d9e436f6b0000f05228ba921f2dac08900c84254aef0749f5abd",
      "version": 1,
      "size": 135,
      "vsize": 135,
      "weight": 540,
      "locktime": 0,
      "vin": [
        {
          "coinbase": "04ffff001d022e0a",
          "sequence": 4294967295
        }
      ],
      "vout": [
        {
          "value": 50.0,
          "n": 0,
          "scriptPubKey": {
            "asm": "04a1b746de70511a2f21c53c3da93119ba25f243b87c3da85366c6fdd118a7c9f47dfac073d302eb325a9701dcd6fc0ff099873620e1cca865b4d4f89248cff441 OP_CHECKSIG",
            "desc": "pk(04a1b746de70511a2f21c53c3da93119ba25f243b87c3da85366c6fdd118a7c9f47dfac073d302eb325a9701dcd6fc0ff099873620e1cca865b4d4f89248cff441)#vu2un6z8",
            "hex": "4104a1b746de70511a2f21c53c3da93119ba25f243b87c3da85366c6fdd118a7c9f47dfac073d302eb325a9701dcd6fc0ff099873620e1cca865b4d4f89248cff441ac",
            "type": "pubkey"
          }
        }
      ],
      "hex": "01000000010000000000000000000000000000000000000000000000000000000000000000ffffffff0804ffff001d022e0affffffff0100f2052a01000000434104a1b746de70511a2f21c53c3da93119ba25f243b87c3da85366c6fdd118a7c9f47dfac073d302eb325a9701dcd6fc0ff099873620e1cca865b4d4f89248cff441ac00000000"
    }
  ]
}