{
  "hash": "000000006fea5455dec691428ba4be12a11345232cbee3d5a533bea00921298b",
  "confirmations": 43138,
  "height": 9960,
  "version": 1,
  "versionHex": "00000001",
  "merkleroot": "990648b5e7655c12e49d87601ed1bc3bc6fdca892a60ca64b3dfde5e0d6fa69f",
  "time": 1238962671,
  "mediantime": 1238959821,
  "nonce": 1016306453,
  "bits": "1d00ffff",
  "difficulty": 1,
  "chainwork": "000000000000000000000000000000000000000000000000000026e926e926e9",
  "nTx": 1,
  "previousblockhash": "00000000d086fbe7a127663c1a36495646d0c00732f09e97718b8d297a9f9c4e",
  "nextblockhash": "00000000d7f6d30acba819b86045a6b8ce5d9632f30525d162662bb43efacc18",
  "strippedsize": 216,
  "size": 216,
  "weight": 864,
  "tx": [
    {
      "txid": "990648b5e7655c12e49d87601ed1bc3bc6fdca892a60ca64b3dfde5e0d6fa69f",
      "hash": "990648b5e7655c12e49d87601ed1bc3bc6fdca892a60ca64b3dfde5e0d6fa69f",
      "version": 1,
      "size": 135,
      "vsize": 135,
      "weight": 540,
      "locktime": 0,
      "vin": [
        {
          "coinbase": "04ffff001d02d102",
          "sequence": 4294967295
        }
      ],
      "vout": [
        {
          "value": 50.0,
          "n": 0,
          "scriptPubKey": {
            "asm": "04f395d75097ed730e42f8e4160b03580f2ccc5d2443ed84217317ea7aed19bd9e30a26a6692b461f9ac2654a4ef1aef4eb801e7bc0c5d6a91c82af1807fe3bc06 OP_CHECKSIG",
            "desc": "pk(04f395d75097ed730e42f8e4160b03580f2ccc5d2443ed84217317ea7aed19bd9e30a26a6692b461f9ac2654a4ef1aef4eb801e7bc0c5d6a91c82af1807fe3bc06)#3gr3xw4x",
            "hex": "4104f395d75097ed730e42f8e4160b03580f2ccc5d2443ed84217317ea7aed19bd9e30a26a6692b461f9ac2654a4ef1aef4eb801e7bc0c5d6a91c82af1807fe3bc06ac",
            "type": "pubkey"
          }
        }
      ],
      "hex": "01000000010000000000000000000000000000000000000000000000000000000000000000ffffffff0804ffff001d02d102ffffffff0100f2052a01000000434104f395d75097ed730e42f8e4160b03580f2ccc5d2443ed84217317ea7aed19bd9e30a26a6692b461f9ac2654a4ef1aef4eb801e7bc0c5d6a91c82af1807fe3bc06ac00000000"
    }
  ]
}