{
  "hash": "000000000edc7289e1ea1e8a20b1a5acfec2d6000aaa9bb7b77f38fc332194a0",
  "confirmations": 47582,
  "height": 5516,
  "version": 1,
  "versionHex": "00000001",
  "merkleroot": "daeab113ef74d4b1cbd812f274fc19e8b974733d0c45d896ada7ccebc90654a3",
  "time": 1235534659,
  "mediantime": 1235530448,
  "nonce": 599575560,
  "bits": "1d00ffff",
  "difficulty": 1,
  "chainwork": "0000000000000000000000000000000000000000000000000000158d158d158d",
  "nTx": 1,
  "previousblockhash": "000000005f8fdb9defbc5bbfb36d8ef7ef911010757084f2f14d4eb6233adc03",
  "nextblockhash": "000000006fa261e29cc80504fac0e4da88f7c3ae63880659d0098aec3f0d3780",
  "strippedsize": 216,
  "size": 216,
  "weight": 864,
  "tx": [
    {
      "txid": "daeab113ef74d4b1cbd812f274fc19e8b974733d0c45d896ada7ccebc90654a3",
      "hash": "daeab113ef74d4b1cbd812f274fc19e8b974733d0c45d896ada7ccebc90654a3",
      "version": 1,
      "size": 135,
      "vsize": 135,
      "weight": 540,
      "locktime": 0,
      "vin": [
        {
          "coinbase": "04ffff001d020006",
          "sequence": 4294967295
        }
      ],
      "vout": [
        {
          "value": 50.0,
          "n": 0,
          "scriptPubKey": {
            "asm": "04f94c4019a1a793a9667263692d62c98a39edd40b957ae292fc15bffb04788258f2b05449ef38126bf667b92c5cec76f05a025fde4f455e841e2c4a2a05992218 OP_CHECKSIG",
            "desc": "pk(04f94c4019a1a793a9667263692d62c98a39edd40b957ae292fc15bffb04788258f2b05449ef38126bf667b92c5cec76f05a025fde4f455e841e2c4a2a05992218)#20xu96zl",
            "hex": "4104f94c4019a1a793a9667263692d62c98a39edd40b957ae292fc15bffb04788258f2b05449ef38126bf667b92c5cec76f05a025fde4f455e841e2c4a2a05992218ac",
            "type": "pubkey"
          }
        }
      ],
      "hex": "01000000010000000000000000000000000000000000000000000000000000000000000000ffffffff0804ffff001d020006ffffffff0100f2052a01000000434104f94c4019a1a793a9667263692d62c98a39edd40b957ae292fc15bffb04788258f2b05449ef38126bf667b92c5cec76f05a025fde4f455e841e2c4a2a05992218ac00000000"
    }
  ]
}