{
  "hash": "00000000bd5a635c4733f07f1635e51be0fc122de3cf0edd42679be0da78ccab",
  "confirmations": 51915,
  "height": 1183,
  "version": 1,
  "versionHex": "00000001",
  "merkleroot": "493caf814fff558359190f59412d17d50309aa9ca71f7999033579874c249ec7",
  "time": 1232487639,
  "mediantime": 1232483950,
  "nonce": 2539097631,
  "bits": "1d00ffff",
  "difficulty": 1,
  "chainwork": "000000000000000000000000000000000000000000000000000004a004a004a0",
  "nTx": 1,
  "previousblockhash": "000000000222d331c9cda8a89878ac1654b06660d10078ff7bf67793a6ca290b",
  "nextblockhash": "00000000f0816fe38cd51c7f9a5602b60233ac311fd8351b8353f35981133501",
  "strippedsize": 216,
  "size": 216,
  "weight": 864,
  "tx": [
    {
      "txid": "493caf814fff558359190f59412d17d50309aa9ca71f7999033579874c249ec7",
      "hash": "493caf814fff558359190f59412d17d50309aa9ca71f7999033579874c249ec7",
      "version": 1,
      "size": 135,
      "vsize": 135,
      "weight": 540,
      "locktime": 0,
      "vin": [
        {
          "coinbase": "04ffff001d025a08",
          "sequence": 4294967295
        }
      ],
      "vout": [
        {
          "value": 50.0,
          "n": 0,
          "scriptPubKey": {
            "asm": "04ec4ee71c0db081c6baa2fdadbd9e5e951998d60bfbf45b299cd4dfc73150335243c56f83a7cb66c11df7c520e83b3d564af24c0f171626b34eabf68a306fcc9e OP_CHECKSIG",
            "desc": "pk(04ec4ee71c0db081c6baa2fdadbd9e5e951998d60bfbf45b299cd4dfc73150335243c56f83a7cb66c11df7c520e83b3d564af24c0f171626b34eabf68a306fcc9e)#3zxm5dw8",
            "hex": "4104ec4ee71c0db081c6baa2fdadbd9e5e951998d60bfbf45b299cd4dfc73150335243c56f83a7cb66c11df7c520e83b3d564af24c0f171626b34eabf68a306fcc9eac",
            "type": "pubkey"
          }
        }
      ],
      "hex": "01000000010000000000000000000000000000000000000000000000000000000000000000ffffffff0804ffff001d025a08ffffffff0100f2052a01000000434104ec4ee71c0db081c6baa2fdadbd9e5e951998d60bfbf45b299cd4dfc73150335243c56f83a7cb66c11df7c520e83b3d564af24c0f171626b34eabf68a306fcc9eac00000000"
    }
  ]
}