{
  "hash": "00000000bb8169fc99b63b93cee142e681d97302587325bbc2884e00b408c4f7",
  "confirmations": 45884,
  "height": 7214,
  "version": 1,
  "versionHex": "00000001",
  "merkleroot": "1bf9f6a76e6ddea48757d6925fa0faf95a2cdd0fcef643c393eda17075fc5f23",
  "time": 1236881994,
  "mediantime": 1236878290,
  "nonce": 1130399772,
  "bits": "1d00ffff",
  "difficulty": 1,
  "chainwork": "00000000000000000000000000000000000000000000000000001c2f1c2f1c2f",
  "nTx": 1,
  "previousblockhash": "000000009ffa11c17eadc59fd47257fea07b3a11d81509fa79ed39cfb54c117f",
  "nextblockhash": "000000007711c5fea394d4f48ec6133916e6d62dbfab9afeac3d81409fe8ea82",
  "strippedsize": 216,
  "size": 216,
  "weight": 864,
  "tx": [
    {
      "txid": "1bf9f6a76e6ddea48757d6925fa0faf95a2cdd0fcef643c393eda17075fc5f23",
      "hash": "1bf9f6a76e6ddea48757d6925fa0faf95a2cdd0fcef643c393eda17075fc5f23",
      "version": 1,
      "size": 135,
      "vsize": 135,
      "weight": 540,
      "locktime": 0,
      "vin": [
        {
          "coinbase": "04ffff001d02e505",
          "sequence": 4294967295
        }
      ],
      "vout": [
        {
          "value": 50.0,
          "n": 0,
          "scriptPubKey": {
            "asm": "045610b22a0701b2d4f1f07bcd59ccf45ef0f60e9568a531b9f5ebe4ccea4235c53437c919482631e11993b0e7b053765968fb6ac8090b8b85cc389260ac41989c OP_CHECKSIG",
            "desc": "pk(045610b22a0701b2d4f1f07bcd59ccf45ef0f60e9568a531b9f5ebe4ccea4235c53437c919482631e11993b0e7b053765968fb6ac8090b8b85cc389260ac41989c)#kn30xsjn",
            "hex": "41045610b22a0701b2d4f1f07bcd59ccf45ef0f60e9568a531b9f5ebe4ccea4235c53437c919482631e11993b0e7b053765968fb6ac8090b8b85cc389260ac41989cac",
            "type": "pubkey"
          }
        }
      ],
      "hex": "01000000010000000000000000000000000000000000000000000000000000000000000000ffffffff0804ffff001d02e505ffffffff0100f2052a010000004341045610b22a0701b2d4f1f07bcd59ccf45ef0f60e9568a531b9f5ebe4ccea4235c53437c919482631e11993b0e7b053765968fb6ac8090b8b85cc389260ac41989cac00000000"
    }
  ]
}