{
  "hash": "000000007e982c1dfb6d928c0c185bba82f9bef5eed09f193454bec8a0bfb6ab",
  "confirmations": 44319,
  "height": 8779,
  "version": 1,
  "versionHex": "00000001",
  "merkleroot": "5054899b6db88eabeec5914eb880d56d335019c220afd165375eb5363dea9103",
  "time": 1238085165,
  "mediantime": 1238080223,
  "nonce": 1180731905,
  "bits": "1d00ffff",
  "difficulty": 1,
  "chainwork": "0000000000000000000000000000000000000000000000000000224c224c224c",
  "nTx": 1,
  "previousblockhash": "000000003e68eadecbbd5bd683cbf336ae96bbb650085595aaff3f2be0724ba1",
  "nextblockhash": "0000000040fe84dbc9264b107e16edea8538b4ce2066932823d3388d30983ca0",
  "strippedsize": 216,
  "size": 216,
  "weight": 864,
  "tx": [
    {
      "txid": "5054899b6db88eabeec5914eb880d56d335019c220afd165375eb5363dea9103",
      "hash": "5054899b6db88eabeec5914eb880d56d335019c220afd165375eb5363dea9103",
      "version": 1,
      "size": 135,
      "vsize": 135,
      "weight": 540,
      "locktime": 0,
      "vin": [
        {
          "coinbase": "04ffff001d023a02",
          "sequence": 4294967295
        }
      ],
      "vout": [
        {
          "value": 50.0,
          "n": 0,
          "scriptPubKey": {
            "asm": "047fb933c8a948e14220dbb720453f29b142b66557f7e94b7fc6f2a04bb4402313f730a158605012a34866facc5dbb589021abf5f9f99596f557356824a9748cb0 OP_CHECKSIG",
            "desc": "pk(047fb933c8a948e14220dbb720453f29b142b66557f7e94b7fc6f2a04bb4402313f730a158605012a34866facc5dbb589021abf5f9f99596f557356824a9748cb0)#39etpmhw",
            "hex": "41047fb933c8a948e14220dbb720453f29b142b66557f7e94b7fc6f2a04bb4402313f730a158605012a34866facc5dbb589021abf5f9f99596f557356824a9748cb0ac",
            "type": "pubkey"
          }
        }
      ],
      "hex": "01000000010000000000000000000000000000000000000000000000000000000000000000ffffffff0804ffff001d023a02ffffffff0100f2052a010000004341047fb933c8a948e14220dbb720453f29b142b66557f7e94b7fc6f2a04bb4402313f730a158605012a34866facc5dbb589021abf5f9f99596f557356824a9748cb0ac00000000"
    }
  ]
}