{
  "hash": "000000008327b56c85f82bdd3fbf9bbaf5bf50712d5b7b2789a186d98ba48ba7",
  "confirmations": 51540,
  "height": 1558,
  "version": 1,
  "versionHex": "00000001",
  "merkleroot": "e3da9f92dac8129e23864d0f55cdd0b9f3c434a3ef90a465e30f5eab2157fc4d",
  "time": 1232793306,
  "mediantime": 1232790640,
  "nonce": 2118824704,
  "bits": "1d00ffff",
  "difficulty": 1,
  "chainwork": "0000000000000000000000000000000000000000000000000000061706170617",
  "nTx": 1,
  "previousblockhash": "000000001554e4b19098bb2f36845e75ae1453ca4357a9597cfb82f4a48282f3",
  "nextblockhash": "00000000898b9cc3b3f49f236c195d2d8e90d0ad91ef4313b93e60333a0a8b5b",
  "strippedsize": 216,
  "size": 216,
  "weight": 864,
  "tx": [
    {
      "txid": "e3da9f92dac8129e23864d0f55cdd0b9f3c434a3ef90a465e30f5eab2157fc4d",
      "hash": "e3da9f92dac8129e23864d0f55cdd0b9f3c434a3ef90a465e30f5eab2157fc4d",
      "version": 1,
      "size": 135,
      "vsize": 135,
      "weight": 540,
      "locktime": 0,
      "vin": [
        {
          "coinbase": "04ffff001d02b401",
          "sequence": 4294967295
        }
      ],
      "vout": [
        {
          "value": 50.0,
          "n": 0,
          "scriptPubKey": {
            "asm": "049a5ac0781c7bbf0ea0ee33bfadb63330095b95b38452c1328ccd010ae5332cd26e3062284e7c821deac9085058618acc885ffe32ad9d3c0eb5b6285a5aec66a9 OP_CHECKSIG",
            "desc": "pk(049a5ac0781c7bbf0ea0ee33bfadb63330095b95b38452c1328ccd010ae5332cd26e3062284e7c821deac9085058618acc885ffe32ad9d3c0eb5b6285a5aec66a9)#09cywcgd",
            "hex": "41049a5ac0781c7bbf0ea0ee33bfadb63330095b95b38452c1328ccd010ae5332cd26e3062284e7c821deac9085058618acc885ffe32ad9d3c0eb5b6285a5aec66a9ac",
            "type": "pubkey"
          }
        }
      ],
      "hex": "01000000010000000000000000000000000000000000000000000000000000000000000000ffffffff0804ffff001d02b401ffffffff0100f2052a010000004341049a5ac0781c7bbf0ea0ee33bfadb63330095b95b38452c1328ccd010ae5332cd26e3062284e7c821deac9085058618acc885ffe32ad9d3c0eb5b6285a5aec66a9ac00000000"
    }
  ]
}