{
  "hash": "00000000129114ffebe6ee8fb3583802657e7c99f65dfc9666bf933ecb7a9e22",
  "confirmations": 43171,
  "height": 9927,
  "version": 1,
  "versionHex": "00000001",
  "merkleroot": "a18384f6d2c4080fd85b4720ee8a6ebbf05c6a96a66382a19896b14eefeb8e18",
  "time": 1238940017,
  "mediantime": 1238935674,
  "nonce": 3121899826,
  "bits": "1d00ffff",
  "difficulty": 1,
  "chainwork": "000000000000000000000000000000000000000000000000000026c826c826c8",
  "nTx": 1,
  "previousblockhash": "00000000f41633f43a827c3e6e1886ac59a7a890e92f8a36134f11b51a1650e3",
  "nextblockhash": "00000000ee4865665da87173e7dfab18e5b9221751d5366ac15a538961f615a6",
  "strippedsize": 216,
  "size": 216,
  "weight": 864,
  "tx": [
    {
      "txid": "a18384f6d2c4080fd85b4720ee8a6ebbf05c6a96a66382a19896b14eefeb8e18",
      "hash": "a18384f6d2c4080fd85b4720ee8a6ebbf05c6a96a66382a19896b14eefeb8e18",
      "version": 1,
      "size": 135,
      "vsize": 135,
      "weight": 540,
      "locktime": 0,
      "vin": [
        {
          "coinbase": "04ffff001d027802",
          "sequence": 4294967295
        }
      ],
      "vout": [
        {
          "value": 50.0,
          "n": 0,
          "scriptPubKey": {
            "asm": "0447753c3bb4213f8883aa558dbf2f1abb88c4436a35f792728cc1fbb7a21daf38002a08ea09f6259657bf196aa714ab0917ebfd2b414bde1213dcb6c423a226a6 OP_CHECKSIG",
            "desc": "pk(0447753c3bb4213f8883aa558dbf2f1abb88c4436a35f792728cc1fbb7a21daf38002a08ea09f6259657bf196aa714ab0917ebfd2b414bde1213dcb6c423a226a6)#gj4gpl7w",
            "hex": "410447753c3bb4213f8883aa558dbf2f1abb88c4436a35f792728cc1fbb7a21daf38002a08ea09f6259657bf196aa714ab0917ebfd2b414bde1213dcb6c423a226a6ac",
            "type": "pubkey"
          }
        }
      ],
      "hex": "01000000010000000000000000000000000000000000000000000000000000000000000000ffffffff0804ffff001d027802ffffffff0100f2052a0100000043410447753c3bb4213f8883aa558dbf2f1abb88c4436a35f792728cc1fbb7a21daf38002a08ea09f6259657bf196aa714ab0917ebfd2b414bde1213dcb6c423a226a6ac00000000"
    }
  ]
}