{
  "hash": "000000004abc190347ad0e28c2f888a4ae1c6b511d7295bbf12b80eded002475",
  "confirmations": 50131,
  "height": 2967,
  "version": 1,
  "versionHex": "00000001",
  "merkleroot": "876d199a6c4a30430e38880af455e03f80742e278ef4fe4390988ba83e177d2f",
  "time": 1233739076,
  "mediantime": 1233735073,
  "nonce": 108171619,
  "bits": "1d00ffff",
  "difficulty": 1,
  "chainwork": "00000000000000000000000000000000000000000000000000000b980b980b98",
  "nTx": 1,
  "previousblockhash": "0000000049cd7c0044964f6e9148e3a7c30beee4fbb1a7670881e941ecb1fb39",
  "nextblockhash": "000000006786272f2f84e16361158797a4193d0129d7aa13d644762249837e50",
  "strippedsize": 216,
  "size": 216,
  "weight": 864,
  "tx": [
    {
      "txid": "876d199a6c4a30430e38880af455e03f80742e278ef4fe4390988ba83e177d2f",
      "hash": "876d199a6c4a30430e38880af455e03f80742e278ef4fe4390988ba83e177d2f",
      "version": 1,
      "size": 135,
      "vsize": 135,
      "weight": 540,
      "locktime": 0,
      "vin": [
        {
          "coinbase": "04ffff001d021707",
          "sequence": 4294967295
        }
      ],
      "vout": [
        {
          "value": 50.0,
          "n": 0,
          "scriptPubKey": {
            "asm": "0441198be41294433171427667ae923aa8a266d957ec831185718d272306be9235e14fc8845b7fd3ab310a352092c8341b2c34cd2664e0a13ed6d699f89629830d OP_CHECKSIG",
            "desc": "pk(0441198be41294433171427667ae923aa8a266d957ec831185718d272306be9235e14fc8845b7fd3ab310a352092c8341b2c34cd2664e0a13ed6d699f89629830d)#xtynvnnw",
            "hex": "410441198be41294433171427667ae923aa8a266d957ec831185718d272306be9235e14fc8845b7fd3ab310a352092c8341b2c34cd2664e0a13ed6d699f89629830dac",
            "type": "pubkey"
          }
        }
      ],
      "hex": "01000000010000000000000000000000000000000000000000000000000000000000000000ffffffff0804ffff001d021707ffffffff0100f2052a0100000043410441198be41294433171427667ae923aa8a266d957ec831185718d272306be9235e14fc8845b7fd3ab310a352092c8341b2c34cd2664e0a13ed6d699f89629830dac00000000"
    }
  ]
}