{
  "hash": "00000000d34e247dbed14f0ffa448155b7a4c8ea80f867fa8eb8c2982dd431c6",
  "confirmations": 51046,
  "height": 2052,
  "version": 1,
  "versionHex": "00000001",
  "merkleroot": "7a24db7ee8f7513b34315d38b63d1dd2fa1f2f43563de6b1b4c78a193938b4f0",
  "time": 1233097264,
  "mediantime": 1233091616,
  "nonce": 11194676,
  "bits": "1d00ffff",
  "difficulty": 1,
  "chainwork": "0000000000000000000000000000000000000000000000000000080508050805",
  "nTx": 1,
  "previousblockhash": "00000000185a25b78d36a0b357d86f6fb148c5bf37a4db2a206923e9011821a1",
  "nextblockhash": "00000000565024cff14075df118e0b0e4ac28df91b4c3ec110dfd748c4b90056",
  "strippedsize": 216,
  "size": 216,
  "weight": 864,
  "tx": [
    {
      "txid": "7a24db7ee8f7513b34315d38b63d1dd2fa1f2f43563de6b1b4c78a193938b4f0",
      "hash": "7a24db7ee8f7513b34315d38b63d1dd2fa1f2f43563de6b1b4c78a193938b4f0",
      "version": 1,
      "size": 135,
      "vsize": 135,
      "weight": 540,
      "locktime": 0,
      "vin": [
        {
          "coinbase": "04ffff001d02cb02",
          "sequence": 4294967295
        }
      ],
      "vout": [
        {
          "value": 50.0,
          "n": 0,
          "scriptPubKey": {
            "asm": "042027f4a621a3a8b2212404c5a8926358d6c5eeb81d19112e1920f3e1f405a314c7a278b51cb6ef8d5ea91081bee87be4f886cdff12645039667a04508dd9f45b OP_CHECKSIG",
            "desc": "pk(042027f4a621a3a8b2212404c5a8926358d6c5eeb81d19112e1920f3e1f405a314c7a278b51cb6ef8d5ea91081bee87be4f886cdff12645039667a04508dd9f45b)#rlpaddum",
            "hex": "41042027f4a621a3a8b2212404c5a8926358d6c5eeb81d19112e1920f3e1f405a314c7a278b51cb6ef8d5ea91081bee87be4f886cdff12645039667a04508dd9f45bac",
            "type": "pubkey"
          }
        }
      ],
      "hex": "01000000010000000000000000000000000000000000000000000000000000000000000000ffffffff0804ffff001d02cb02ffffffff0100f2052a010000004341042027f4a621a3a8b2212404c5a8926358d6c5eeb81d19112e1920f3e1f405a314c7a278b51cb6ef8d5ea91081bee87be4f886cdff12645039667a04508dd9f45bac00000000"
    }
  ]
}