{
  "hash": "0000000055f0e2fdc9e4363c7d47a3126f955f45ff27548811c9a4aaaf8a6d59",
  "confirmations": 46775,
  "height": 6323,
  "version": 1,
  "versionHex": "00000001",
  "merkleroot": "270f3ab213d6a123ff73453fc9d54af892050dd178e5aa91fcdb3b5ea1637246",
  "time": 1236190969,
  "mediantime": 1236185990,
  "nonce": 2219317786,
  "bits": "1d00ffff",
  "difficulty": 1,
  "chainwork": "000000000000000000000000000000000000000000000000000018b418b418b4",
  "nTx": 1,
  "previousblockhash": "00000000328db608ed96a69e2d34f51fb39505eae2e7f6dcf298e00a20ba33ac",
  "nextblockhash": "00000000f15bd8304a0853a8012b92702536736cf655d1573ae37216a1502428",
  "strippedsize": 215,
  "size": 215,
  "weight": 860,
  "tx": [
    {
      "txid": "270f3ab213d6a123ff73453fc9d54af892050dd178e5aa91fcdb3b5ea1637246",
      "hash": "270f3ab213d6a123ff73453fc9d54af892050dd178e5aa91fcdb3b5ea1637246",
      "version": 1,
      "size": 134,
      "vsize": 134,
      "weight": 536,
      "locktime": 0,
      "vin": [
        {
          "coinbase": "04ffff001d017a",
          "sequence": 4294967295
        }
      ],
      "vout": [
        {
          "value": 50.0,
          "n": 0,
          "scriptPubKey": {
            "asm": "042245e57cf41a75034b2a178ccd98ec768c3e43ac7f0dc4f370e5304240010e9fbc28b048aaeab835487046046e124c4d95a8cee0262bba3385ae3dfc4fd7ed5c OP_CHECKSIG",
            "desc": "pk(042245e57cf41a75034b2a178ccd98ec768c3e43ac7f0dc4f370e5304240010e9fbc28b048aaeab835487046046e124c4d95a8cee0262bba3385ae3dfc4fd7ed5c)#m0zp970a",
            "hex": "41042245e57cf41a75034b2a178ccd98ec768c3e43ac7f0dc4f370e5304240010e9fbc28b048aaeab835487046046e124c4d95a8cee0262bba3385ae3dfc4fd7ed5cac",
            "type": "pubkey"
          }
        }
      ],
      "hex": "01000000010000000000000000000000000000000000000000000000000000000000000000ffffffff0704ffff001d017affffffff0100f2052a010000004341042245e57cf41a75034b2a178ccd98ec768c3e43ac7f0dc4f370e5304240010e9fbc28b048aaeab835487046046e124c4d95a8cee0262bba3385ae3dfc4fd7ed5cac00000000"
    }
  ]
}