{
  "hash": "000000005e5eaebb1f806e1f3d72a9f8c0d79a096346e6dd5a68c0de1fe0da8d",
  "confirmations": 45333,
  "height": 7765,
  "version": 1,
  "versionHex": "00000001",
  "merkleroot": "46e6cdba37dca0f6d458aee6491e2376c5de9c9ceba48a5bb6ad541ec1002bfb",
  "time": 1237289041,
  "mediantime": 1237283848,
  "nonce": 3147374619,
  "bits": "1d00ffff",
  "difficulty": 1,
  "chainwork": "00000000000000000000000000000000000000000000000000001e561e561e56",
  "nTx": 1,
  "previousblockhash": "0000000080b724743eca50899691555164e2568b421397d3ebde65689c03e5fc",
  "nextblockhash": "00000000b293631d7242437048e2cd5e2a731d32095bccc9dd59f3279b904dc6",
  "strippedsize": 216,
  "size": 216,
  "weight": 864,
  "tx": [
    {
      "txid": "46e6cdba37dca0f6d458aee6491e2376c5de9c9ceba48a5bb6ad541ec1002bfb",
      "hash": "46e6cdba37dca0f6d458aee6491e2376c5de9c9ceba48a5bb6ad541ec1002bfb",
      "version": 1,
      "size": 135,
      "vsize": 135,
      "weight": 540,
      "locktime": 0,
      "vin": [
        {
          "coinbase": "04ffff001d023005",
          "sequence": 4294967295
        }
      ],
      "vout": [
        {
          "value": 50.0,
          "n": 0,
          "scriptPubKey": {
            "asm": "04a68d9e806532fca158f858d2f322a576ab4f66c8b6d49f96cbcb2e8976010c7e15fe58403940bfc9a87a637868044c7e727372a2c588d3f0ff535b832e95cf36 OP_CHECKSIG",
            "desc": "pk(04a68d9e806532fca158f858d2f322a576ab4f66c8b6d49f96cbcb2e8976010c7e15fe58403940bfc9a87a637868044c7e727372a2c588d3f0ff535b832e95cf36)#2cpwvy27",
            "hex": "4104a68d9e806532fca158f858d2f322a576ab4f66c8b6d49f96cbcb2e8976010c7e15fe58403940bfc9a87a637868044c7e727372a2c588d3f0ff535b832e95cf36ac",
            "type": "pubkey"
          }
        }
      ],
      "hex": "01000000010000000000000000000000000000000000000000000000000000000000000000ffffffff0804ffff001d023005ffffffff0100f2052a01000000434104a68d9e806532fca158f858d2f322a576ab4f66c8b6d49f96cbcb2e8976010c7e15fe58403940bfc9a87a637868044c7e727372a2c588d3f0ff535b832e95cf36ac00000000"
    }
  ]
}