{
  "hash": "00000000b07280236b8b97753074465f2baf0db60530a44f3629da847083f086",
  "confirmations": 45197,
  "height": 7901,
  "version": 1,
  "versionHex": "00000001",
  "merkleroot": "90c760cd491eae28d1f28bc7276533cd0743c75fc1cfafb5aaa26a079f77f312",
  "time": 1237392124,
  "mediantime": 1237388643,
  "nonce": 338910249,
  "bits": "1d00ffff",
  "difficulty": 1,
  "chainwork": "00000000000000000000000000000000000000000000000000001ede1ede1ede",
  "nTx": 1,
  "previousblockhash": "00000000b5514e2e72cec7ee5d03cedd91dea5c31580673911d159711035e2f2",
  "nextblockhash": "00000000a243e44c2c24f7bf693a7dd85adf25051bee0308ae920199325b393d",
  "strippedsize": 216,
  "size": 216,
  "weight": 864,
  "tx": [
    {
      "txid": "90c760cd491eae28d1f28bc7276533cd0743c75fc1cfafb5aaa26a079f77f312",
      "hash": "90c760cd491eae28d1f28bc7276533cd0743c75fc1cfafb5aaa26a079f77f312",
      "version": 1,
      "size": 135,
      "vsize": 135,
      "weight": 540,
      "locktime": 0,
      "vin": [
        {
          "coinbase": "04ffff001d027807",
          "sequence": 4294967295
        }
      ],
      "vout": [
        {
          "value": 50.0,
          "n": 0,
          "scriptPubKey": {
            "asm": "04be7f729650c554fb7b22fea80d1bedba67c611ec73e77545a45cd39818169ec984bd62fd64a61d2f31472633be8bf4c7d43f329d5e2124e5b5c48454548a3200 OP_CHECKSIG",
            "desc": "pk(04be7f729650c554fb7b22fea80d1bedba67c611ec73e77545a45cd39818169ec984bd62fd64a61d2f31472633be8bf4c7d43f329d5e2124e5b5c48454548a3200)#q88hte4m",
            "hex": "4104be7f729650c554fb7b22fea80d1bedba67c611ec73e77545a45cd39818169ec984bd62fd64a61d2f31472633be8bf4c7d43f329d5e2124e5b5c48454548a3200ac",
            "type": "pubkey"
          }
        }
      ],
      "hex": "01000000010000000000000000000000000000000000000000000000000000000000000000ffffffff0804ffff001d027807ffffffff0100f2052a01000000434104be7f729650c554fb7b22fea80d1bedba67c611ec73e77545a45cd39818169ec984bd62fd64a61d2f31472633be8bf4c7d43f329d5e2124e5b5c48454548a3200ac00000000"
    }
  ]
}