{
  "hash": "00000000c9bc7c652131a084b2bd201dc3d4592d2251fac7b2e6ed1b674aebcf",
  "confirmations": 52190,
  "height": 473,
  "version": 1,
  "versionHex": "00000001",
  "merkleroot": "3e753e2eac1e76a9cee0196ca74d10ba9d2bf687e95bdd244333cddf259ac980",
  "time": 1231950272,
  "mediantime": 1231947213,
  "nonce": 7304370,
  "bits": "1d00ffff",
  "difficulty": 1,
  "chainwork": "000000000000000000000000000000000000000000000000000001da01da01da",
  "nTx": 1,
  "previousblockhash": "000000003cd7e9095cccffcb41462fb67407b66e0245717d06b322732fd2633e",
  "nextblockhash": "000000000d15d5f0d9971ab61c06e59f2e63e4a9cfbbb79d8f2b9d32243ee540",
  "strippedsize": 215,
  "size": 215,
  "weight": 860,
  "tx": [
    {
      "txid": "3e753e2eac1e76a9cee0196ca74d10ba9d2bf687e95bdd244333cddf259ac980",
      "hash": "3e753e2eac1e76a9cee0196ca74d10ba9d2bf687e95bdd244333cddf259ac980",
      "version": 1,
      "size": 134,
      "vsize": 134,
      "weight": 536,
      "locktime": 0,
      "vin": [
        {
          "coinbase": "04ffff001d0158",
          "sequence": 4294967295
        }
      ],
      "vout": [
        {
          "value": 50.0,
          "n": 0,
          "scriptPubKey": {
            "asm": "04da43d782c6506b926e9f5f7627ff62e8fc1e3c55ac5d22729a600743cfb98e0c2376ccd2d636ceb45a5a8630d31ff14253a60ffd2aabce6036b766ac73d4013b OP_CHECKSIG",
            "desc": "pk(04da43d782c6506b926e9f5f7627ff62e8fc1e3c55ac5d22729a600743cfb98e0c2376ccd2d636ceb45a5a8630d31ff14253a60ffd2aabce6036b766ac73d4013b)#t6hxdfya",
            "hex": "4104da43d782c6506b926e9f5f7627ff62e8fc1e3c55ac5d22729a600743cfb98e0c2376ccd2d636ceb45a5a8630d31ff14253a60ffd2aabce6036b766ac73d4013bac",
            "type": "pubkey"
          }
        }
      ],
      "hex": "01000000010000000000000000000000000000000000000000000000000000000000000000ffffffff0704ffff001d0158ffffffff0100f2052a01000000434104da43d782c6506b926e9f5f7627ff62e8fc1e3c55ac5d22729a600743cfb98e0c2376ccd2d636ceb45a5a8630d31ff14253a60ffd2aabce6036b766ac73d4013bac00000000"
    }
  ]
}