{
  "hash": "000000009af8de91bef6ae9429a7d89adfb9add1ec95ba6ec60cb68f892e9d27",
  "confirmations": 43988,
  "height": 9110,
  "version": 1,
  "versionHex": "00000001",
  "merkleroot": "4dd7408db86a7eb1b6fb372da227a82bc2aba81aac1fa727543881877da27e0d",
  "time": 1238338127,
  "mediantime": 1238334405,
  "nonce": 1190788648,
  "bits": "1d00ffff",
  "difficulty": 1,
  "chainwork": "0000000000000000000000000000000000000000000000000000239723972397",
  "nTx": 1,
  "previousblockhash": "00000000214185adcb87251b784a387d4fba403de35f6ef14a8d907f13de762f",
  "nextblockhash": "00000000acf14366ae6b071ad62a7bcaaab52b0ace43ef6d885a7f03810b81f3",
  "strippedsize": 216,
  "size": 216,
  "weight": 864,
  "tx": [
    {
      "txid": "4dd7408db86a7eb1b6fb372da227a82bc2aba81aac1fa727543881877da27e0d",
      "hash": "4dd7408db86a7eb1b6fb372da227a82bc2aba81aac1fa727543881877da27e0d",
      "version": 1,
      "size": 135,
      "vsize": 135,
      "weight": 540,
      "locktime": 0,
      "vin": [
        {
          "coinbase": "04ffff001d027f08",
          "sequence": 4294967295
        }
      ],
      "vout": [
        {
          "value": 50.0,
          "n": 0,
          "scriptPubKey": {
            "asm": "04cbb4c7b709bc55479c644a4fd13e5941e571fa4d66e590cc1fc9ffe55355c91bcaf84096edcee4114e11a877584d9f948f7da894be26019f14810653978729c2 OP_CHECKSIG",
            "desc": "pk(04cbb4c7b709bc55479c644a4fd13e5941e571fa4d66e590cc1fc9ffe55355c91bcaf84096edcee4114e11a877584d9f948f7da894be26019f14810653978729c2)#2j42esu6",
            "hex": "4104cbb4c7b709bc55479c644a4fd13e5941e571fa4d66e590cc1fc9ffe55355c91bcaf84096edcee4114e11a877584d9f948f7da894be26019f14810653978729c2ac",
            "type": "pubkey"
          }
        }
      ],
      "hex": "01000000010000000000000000000000000000000000000000000000000000000000000000ffffffff0804ffff001d027f08ffffffff0100f2052a01000000434104cbb4c7b709bc55479c644a4fd13e5941e571fa4d66e590cc1fc9ffe55355c91bcaf84096edcee4114e11a877584d9f948f7da894be26019f14810653978729c2ac00000000"
    }
  ]
}