{
  "hash": "00000000e9c874793faeed229d340019de32e49f31c74f96b609d7dd987a65e8",
  "confirmations": 51132,
  "height": 1966,
  "version": 1,
  "versionHex": "00000001",
  "merkleroot": "0688d8ba5277e3c826ed9b2d3138d765cdf9302ff1a8edcb4380b6764a1420c5",
  "time": 1233021443,
  "mediantime": 1233018069,
  "nonce": 2788880387,
  "bits": "1d00ffff",
  "difficulty": 1,
  "chainwork": "000000000000000000000000000000000000000000000000000007af07af07af",
  "nTx": 1,
  "previousblockhash": "0000000070934f580a18c251a4f3c6559c8b67a3903546c6705cad6cbfb9b6c1",
  "nextblockhash": "0000000086212d898444f6464d2ebfb9c6aacae1d54abdb22c484eefe276b008",
  "strippedsize": 216,
  "size": 216,
  "weight": 864,
  "tx": [
    {
      "txid": "0688d8ba5277e3c826ed9b2d3138d765cdf9302ff1a8edcb4380b6764a1420c5",
      "hash": "0688d8ba5277e3c826ed9b2d3138d765cdf9302ff1a8edcb4380b6764a1420c5",
      "version": 1,
      "size": 135,
      "vsize": 135,
      "weight": 540,
      "locktime": 0,
      "vin": [
        {
          "coinbase": "04ffff001d02f300",
          "sequence": 4294967295
        }
      ],
      "vout": [
        {
          "value": 50.0,
          "n": 0,
          "scriptPubKey": {
            "asm": "04fa239393228303a182c141664025567472fdd811ba55b0aaf5cd1a683d9cb6467a1dbba25a76b4144c8df6e40b0a42fbc7ce7bb839157efb06593528154a1d1b OP_CHECKSIG",
            "desc": "pk(04fa239393228303a182c141664025567472fdd811ba55b0aaf5cd1a683d9cb6467a1dbba25a76b4144c8df6e40b0a42fbc7ce7bb839157efb06593528154a1d1b)#jalhvke0",
            "hex": "4104fa239393228303a182c141664025567472fdd811ba55b0aaf5cd1a683d9cb6467a1dbba25a76b4144c8df6e40b0a42fbc7ce7bb839157efb06593528154a1d1bac",
            "type": "pubkey"
          }
        }
      ],
      "hex": "01000000010000000000000000000000000000000000000000000000000000000000000000ffffffff0804ffff001d02f300ffffffff0100f2052a01000000434104fa239393228303a182c141664025567472fdd811ba55b0aaf5cd1a683d9cb6467a1dbba25a76b4144c8df6e40b0a42fbc7ce7bb839157efb06593528154a1d1bac00000000"
    }
  ]
}