{
  "hash": "0000000087eb2754f103d00a024c6960cc4ce6fcc5301243a4e95b4b0402af8b",
  "confirmations": 44705,
  "height": 8393,
  "version": 1,
  "versionHex": "00000001",
  "merkleroot": "5dadf53f152c8ecb4460468d6cb74b4f7cdb9afeec38bef03c3d332bcc33d93f",
  "time": 1237796108,
  "mediantime": 1237793192,
  "nonce": 804060190,
  "bits": "1d00ffff",
  "difficulty": 1,
  "chainwork": "000000000000000000000000000000000000000000000000000020ca20ca20ca",
  "nTx": 1,
  "previousblockhash": "00000000cf82bf3a91a9f8a446c05ba9a2719a7b7e35236da093048e2fb02fa5",
  "nextblockhash": "000000009f8cbf3db9d1f6cd6e63f63e2263f076c627c85c6f0d20c2799e3ec7",
  "strippedsize": 216,
  "size": 216,
  "weight": 864,
  "tx": [
    {
      "txid": "5dadf53f152c8ecb4460468d6cb74b4f7cdb9afeec38bef03c3d332bcc33d93f",
      "hash": "5dadf53f152c8ecb4460468d6cb74b4f7cdb9afeec38bef03c3d332bcc33d93f",
      "version": 1,
      "size": 135,
      "vsize": 135,
      "weight": 540,
      "locktime": 0,
      "vin": [
        {
          "coinbase": "04ffff001d02da05",
          "sequence": 4294967295
        }
      ],
      "vout": [
        {
          "value": 50.0,
          "n": 0,
          "scriptPubKey": {
            "asm": "04332c7ead2fe03160408e6f1ad0305e2e8c85e185160000deee71d7923d1a1bc3bbe486f774aed97766aaa06a8bc1d6c3330158ced71017f2cb913aeae0f04711 OP_CHECKSIG",
            "desc": "pk(04332c7ead2fe03160408e6f1ad0305e2e8c85e185160000deee71d7923d1a1bc3bbe486f774aed97766aaa06a8bc1d6c3330158ced71017f2cb913aeae0f04711)#qn47h3ag",
            "hex": "4104332c7ead2fe03160408e6f1ad0305e2e8c85e185160000deee71d7923d1a1bc3bbe486f774aed97766aaa06a8bc1d6c3330158ced71017f2cb913aeae0f04711ac",
            "type": "pubkey"
          }
        }
      ],
      "hex": "01000000010000000000000000000000000000000000000000000000000000000000000000ffffffff0804ffff001d02da05ffffffff0100f2052a01000000434104332c7ead2fe03160408e6f1ad0305e2e8c85e185160000deee71d7923d1a1bc3bbe486f774aed97766aaa06a8bc1d6c3330158ced71017f2cb913aeae0f04711ac00000000"
    }
  ]
}