{
  "hash": "00000000cad69daaae19df9068b0d4bc8d6999c63bd4fb067958bc8881ab7e5c",
  "confirmations": 52125,
  "height": 370,
  "version": 1,
  "versionHex": "00000001",
  "merkleroot": "8fe8898cda7e9cc974804cc565a08ca62ab5df4fca8245f3474ec5a8ef5a71d1",
  "time": 1231879977,
  "mediantime": 1231875837,
  "nonce": 2548732199,
  "bits": "1d00ffff",
  "difficulty": 1,
  "chainwork": "0000000000000000000000000000000000000000000000000000017301730173",
  "nTx": 1,
  "previousblockhash": "0000000063a7ce9070407aaa02268a35a3eb652b2e083c26630e17c1a5a7a553",
  "nextblockhash": "00000000ba884fc8047c04bba7068f575e21d4cb953e1f52262a0454c98c5586",
  "strippedsize": 216,
  "size": 216,
  "weight": 864,
  "tx": [
    {
      "txid": "8fe8898cda7e9cc974804cc565a08ca62ab5df4fca8245f3474ec5a8ef5a71d1",
      "hash": "8fe8898cda7e9cc974804cc565a08ca62ab5df4fca8245f3474ec5a8ef5a71d1",
      "version": 1,
      "size": 135,
      "vsize": 135,
      "weight": 540,
      "locktime": 0,
      "vin": [
        {
          "coinbase": "04ffff001d02e001",
          "sequence": 4294967295
        }
      ],
      "vout": [
        {
          "value": 50.0,
          "n": 0,
          "scriptPubKey": {
            "asm": "0416153f938e0a5843c29fa1e9f40dc63a9a86f43138943454137a1faf579fb1f22ad407d87b17d1788acac0ad95bc46d19e6743dc4976a16c31c7414f1b3d97b0 OP_CHECKSIG",
            "desc": "pk(0416153f938e0a5843c29fa1e9f40dc63a9a86f43138943454137a1faf579fb1f22ad407d87b17d1788acac0ad95bc46d19e6743dc4976a16c31c7414f1b3d97b0)#dfd2x9ld",
            "hex": "410416153f938e0a5843c29fa1e9f40dc63a9a86f43138943454137a1faf579fb1f22ad407d87b17d1788acac0ad95bc46d19e6743dc4976a16c31c7414f1b3d97b0ac",
            "type": "pubkey"
          }
        }
      ],
      "hex": "01000000010000000000000000000000000000000000000000000000000000000000000000ffffffff0804ffff001d02e001ffffffff0100f2052a0100000043410416153f938e0a5843c29fa1e9f40dc63a9a86f43138943454137a1faf579fb1f22ad407d87b17d1788acac0ad95bc46d19e6743dc4976a16c31c7414f1b3d97b0ac00000000"
    }
  ]
}