{
  "hash": "00000000685b26841f98298b275f9b886db67f63c1e7c7aae8a22c8bb8dce8cb",
  "confirmations": 51519,
  "height": 1579,
  "version": 1,
  "versionHex": "00000001",
  "merkleroot": "6951b21476bf50a026a8e209be370402b2293765bad93a28b99fd071c954e7f5",
  "time": 1232801781,
  "mediantime": 1232799566,
  "nonce": 78986467,
  "bits": "1d00ffff",
  "difficulty": 1,
  "chainwork": "0000000000000000000000000000000000000000000000000000062c062c062c",
  "nTx": 1,
  "previousblockhash": "000000006d3f392120ab7ed4327901cfa4ad0ceef03760f3157c87bd3e06a51d",
  "nextblockhash": "000000005160a17e0c299c5646de80a210e6aac12bf4e2ad9796967d22b4e547",
  "strippedsize": 216,
  "size": 216,
  "weight": 864,
  "tx": [
    {
      "txid": "6951b21476bf50a026a8e209be370402b2293765bad93a28b99fd071c954e7f5",
      "hash": "6951b21476bf50a026a8e209be370402b2293765bad93a28b99fd071c954e7f5",
      "version": 1,
      "size": 135,
      "vsize": 135,
      "weight": 540,
      "locktime": 0,
      "vin": [
        {
          "coinbase": "04ffff001d029401",
          "sequence": 4294967295
        }
      ],
      "vout": [
        {
          "value": 50.0,
          "n": 0,
          "scriptPubKey": {
            "asm": "049fbbe439ad2213551e95fae6a741e0c71a7ce493a779a3e5c2db2593af6f8be98ee38f618176f25ad796df6ddd5559c3f6b9be1a2934bfdcdcf3dc12b6ecd3b8 OP_CHECKSIG",
            "desc": "pk(049fbbe439ad2213551e95fae6a741e0c71a7ce493a779a3e5c2db2593af6f8be98ee38f618176f25ad796df6ddd5559c3f6b9be1a2934bfdcdcf3dc12b6ecd3b8)#gh4eztgf",
            "hex": "41049fbbe439ad2213551e95fae6a741e0c71a7ce493a779a3e5c2db2593af6f8be98ee38f618176f25ad796df6ddd5559c3f6b9be1a2934bfdcdcf3dc12b6ecd3b8ac",
            "type": "pubkey"
          }
        }
      ],
      "hex": "01000000010000000000000000000000000000000000000000000000000000000000000000ffffffff0804ffff001d029401ffffffff0100f2052a010000004341049fbbe439ad2213551e95fae6a741e0c71a7ce493a779a3e5c2db2593af6f8be98ee38f618176f25ad796df6ddd5559c3f6b9be1a2934bfdcdcf3dc12b6ecd3b8ac00000000"
    }
  ]
}