{
  "hash": "000000009f1bf38b2b8a4a1550cead8c03d56bad56d5045d18f2a99d2e047456",
  "confirmations": 47032,
  "height": 6066,
  "version": 1,
  "versionHex": "00000001",
  "merkleroot": "8d8860cf357822d0e940f8fe8f9c71c29979df2708a0ae2a46447fc74735f2f3",
  "time": 1235980883,
  "mediantime": 1235977772,
  "nonce": 2273868547,
  "bits": "1d00ffff",
  "difficulty": 1,
  "chainwork": "000000000000000000000000000000000000000000000000000017b317b317b3",
  "nTx": 1,
  "previousblockhash": "00000000f137a47483f1c254de2d0c17736551b5159aac80b8accd39d632bfee",
  "nextblockhash": "000000002028dce804c5982153e420c51d9728fa3738f565ce077f9aab778909",
  "strippedsize": 216,
  "size": 216,
  "weight": 864,
  "tx": [
    {
      "txid": "8d8860cf357822d0e940f8fe8f9c71c29979df2708a0ae2a46447fc74735f2f3",
      "hash": "8d8860cf357822d0e940f8fe8f9c71c29979df2708a0ae2a46447fc74735f2f3",
      "version": 1,
      "size": 135,
      "vsize": 135,
      "weight": 540,
      "locktime": 0,
      "vin": [
        {
          "coinbase": "04ffff001d022606",
          "sequence": 4294967295
        }
      ],
      "vout": [
        {
          "value": 50.0,
          "n": 0,
          "scriptPubKey": {
            "asm": "0468e55c36696c42e27dfc73f10a47da6ff1088535a3d22b40d576e516610e83416c0c7976daa1a17417dc821ae2638c9a5973d25630970508d9cbe88e8b876374 OP_CHECKSIG",
            "desc": "pk(0468e55c36696c42e27dfc73f10a47da6ff1088535a3d22b40d576e516610e83416c0c7976daa1a17417dc821ae2638c9a5973d25630970508d9cbe88e8b876374)#4n05acxg",
            "hex": "410468e55c36696c42e27dfc73f10a47da6ff1088535a3d22b40d576e516610e83416c0c7976daa1a17417dc821ae2638c9a5973d25630970508d9cbe88e8b876374ac",
            "type": "pubkey"
          }
        }
      ],
      "hex": "01000000010000000000000000000000000000000000000000000000000000000000000000ffffffff0804ffff001d022606ffffffff0100f2052a0100000043410468e55c36696c42e27dfc73f10a47da6ff1088535a3d22b40d576e516610e83416c0c7976daa1a17417dc821ae2638c9a5973d25630970508d9cbe88e8b876374ac00000000"
    }
  ]
}