{
  "hash": "000000005f7e442c07d918a1f2cd4f594f5e1946c22b06ffd7dfe378f59f70e8",
  "confirmations": 52090,
  "height": 1008,
  "version": 1,
  "versionHex": "00000001",
  "merkleroot": "f0f707c95cfbeb287ba5e0a332bc4e453a5a15bf3a7640bc6b53dbd072e10342",
  "time": 1232354420,
  "mediantime": 1232349972,
  "nonce": 2626013474,
  "bits": "1d00ffff",
  "difficulty": 1,
  "chainwork": "000000000000000000000000000000000000000000000000000003f103f103f1",
  "nTx": 1,
  "previousblockhash": "0000000037b9be6143407617d34d7dd70a09aeb68e5da5a092bf5d19d7a06da6",
  "nextblockhash": "000000008bb80b928343bc65ea33b2c97b722d7b85f0470d32a7519d2b7e5550",
  "strippedsize": 216,
  "size": 216,
  "weight": 864,
  "tx": [
    {
      "txid": "f0f707c95cfbeb287ba5e0a332bc4e453a5a15bf3a7640bc6b53dbd072e10342",
      "hash": "f0f707c95cfbeb287ba5e0a332bc4e453a5a15bf3a7640bc6b53dbd072e10342",
      "version": 1,
      "size": 135,
      "vsize": 135,
      "weight": 540,
      "locktime": 0,
      "vin": [
        {
          "coinbase": "04ffff001d023505",
          "sequence": 4294967295
        }
      ],
      "vout": [
        {
          "value": 50.0,
          "n": 0,
          "scriptPubKey": {
            "asm": "044fe9cd3b148843ded4b14a74c58086c88de1b723fdf5ae4e5925a4f500c2d9b649df54127d99a84b0f08358a48c6a70157b677fbad61a67e760e8ba3b804ffb7 OP_CHECKSIG",
            "desc": "pk(044fe9cd3b148843ded4b14a74c58086c88de1b723fdf5ae4e5925a4f500c2d9b649df54127d99a84b0f08358a48c6a70157b677fbad61a67e760e8ba3b804ffb7)#epk9n6pg",
            "hex": "41044fe9cd3b148843ded4b14a74c58086c88de1b723fdf5ae4e5925a4f500c2d9b649df54127d99a84b0f08358a48c6a70157b677fbad61a67e760e8ba3b804ffb7ac",
            "type": "pubkey"
          }
        }
      ],
      "hex": "01000000010000000000000000000000000000000000000000000000000000000000000000ffffffff0804ffff001d023505ffffffff0100f2052a010000004341044fe9cd3b148843ded4b14a74c58086c88de1b723fdf5ae4e5925a4f500c2d9b649df54127d99a84b0f08358a48c6a70157b677fbad61a67e760e8ba3b804ffb7ac00000000"
    }
  ]
}