{
  "hash": "0000000055650460d2d0c657bfbc52cac36a01a95bc5296446b50b79269cde67",
  "confirmations": 52032,
  "height": 305,
  "version": 1,
  "versionHex": "00000001",
  "merkleroot": "ffe47b80afe6581bfb31bd0a184276a1c23906d324b56ec2d2a349e115910216",
  "time": 1231836755,
  "mediantime": 1231832435,
  "nonce": 3221452319,
  "bits": "1d00ffff",
  "difficulty": 1,
  "chainwork": "0000000000000000000000000000000000000000000000000000013201320132",
  "nTx": 1,
  "previousblockhash": "00000000375cc7513d56fdbba5c1e1adb0d69e662fd09dd14238bc627b66aadc",
  "nextblockhash": "00000000ef3b918293d5b533a43ef16d95742b39f9a0372996814a180543c3b8",
  "strippedsize": 216,
  "size": 216,
  "weight": 864,
  "tx": [
    {
      "txid": "ffe47b80afe6581bfb31bd0a184276a1c23906d324b56ec2d2a349e115910216",
      "hash": "ffe47b80afe6581bfb31bd0a184276a1c23906d324b56ec2d2a349e115910216",
      "version": 1,
      "size": 135,
      "vsize": 135,
      "weight": 540,
      "locktime": 0,
      "vin": [
        {
          "coinbase": "04ffff001d028800",
          "sequence": 4294967295
        }
      ],
      "vout": [
        {
          "value": 50.0,
          "n": 0,
          "scriptPubKey": {
            "asm": "04a5d40aa3a8a0553e226043dc0a8e00f74c83c5fadddf6050a7201a7a3ce725787f0c3fdb3f584581c1185eb7f920dbfed226e6e0382b0a73e30139a80fe0e2b7 OP_CHECKSIG",
            "desc": "pk(04a5d40aa3a8a0553e226043dc0a8e00f74c83c5fadddf6050a7201a7a3ce725787f0c3fdb3f584581c1185eb7f920dbfed226e6e0382b0a73e30139a80fe0e2b7)#dlxw2e69",
            "hex": "4104a5d40aa3a8a0553e226043dc0a8e00f74c83c5fadddf6050a7201a7a3ce725787f0c3fdb3f584581c1185eb7f920dbfed226e6e0382b0a73e30139a80fe0e2b7ac",
            "type": "pubkey"
          }
        }
      ],
      "hex": "01000000010000000000000000000000000000000000000000000000000000000000000000ffffffff0804ffff001d028800ffffffff0100f2052a01000000434104a5d40aa3a8a0553e226043dc0a8e00f74c83c5fadddf6050a7201a7a3ce725787f0c3fdb3f584581c1185eb7f920dbfed226e6e0382b0a73e30139a80fe0e2b7ac00000000"
    }
  ]
}