{
  "hash": "0000000091159b34a415d274e7a7f0c8ecc8a7f7f61ab7264082b1f22e58acd8",
  "confirmations": 44938,
  "height": 8160,
  "version": 1,
  "versionHex": "00000001",
  "merkleroot": "aee2908290b0cb8bfccd9f6f45da2416e2dcad43a5f7bb12e664d0fbf58b83df",
  "time": 1237578402,
  "mediantime": 1237576178,
  "nonce": 383108407,
  "bits": "1d00ffff",
  "difficulty": 1,
  "chainwork": "00000000000000000000000000000000000000000000000000001fe11fe11fe1",
  "nTx": 1,
  "previousblockhash": "000000003ce1598e88d1dfe2f6e4b9113dbb881df879d7455517a7260fec26a3",
  "nextblockhash": "00000000d072e1522f8c7d632eb3d560e4dee54ab2cc4ba7097f9ac1cc880b74",
  "strippedsize": 216,
  "size": 216,
  "weight": 864,
  "tx": [
    {
      "txid": "aee2908290b0cb8bfccd9f6f45da2416e2dcad43a5f7bb12e664d0fbf58b83df",
      "hash": "aee2908290b0cb8bfccd9f6f45da2416e2dcad43a5f7bb12e664d0fbf58b83df",
      "version": 1,
      "size": 135,
      "vsize": 135,
      "weight": 540,
      "locktime": 0,
      "vin": [
        {
          "coinbase": "04ffff001d022d02",
          "sequence": 4294967295
        }
      ],
      "vout": [
        {
          "value": 50.0,
          "n": 0,
          "scriptPubKey": {
            "asm": "04fc02756dd5b23ade5059fa3e3692aa8d8c1749247ea0ec423954f1f51ed5e1612338bd57c2f03de57337a89fca7483ad1c4e032ce92bce230594a4c0f19ecc84 OP_CHECKSIG",
            "desc": "pk(04fc02756dd5b23ade5059fa3e3692aa8d8c1749247ea0ec423954f1f51ed5e1612338bd57c2f03de57337a89fca7483ad1c4e032ce92bce230594a4c0f19ecc84)#wzxetjtf",
            "hex": "4104fc02756dd5b23ade5059fa3e3692aa8d8c1749247ea0ec423954f1f51ed5e1612338bd57c2f03de57337a89fca7483ad1c4e032ce92bce230594a4c0f19ecc84ac",
            "type": "pubkey"
          }
        }
      ],
      "hex": "01000000010000000000000000000000000000000000000000000000000000000000000000ffffffff0804ffff001d022d02ffffffff0100f2052a01000000434104fc02756dd5b23ade5059fa3e3692aa8d8c1749247ea0ec423954f1f51ed5e1612338bd57c2f03de57337a89fca7483ad1c4e032ce92bce230594a4c0f19ecc84ac00000000"
    }
  ]
}