{
  "hash": "00000000e34f0987c3e2f5b24fe991fd2d67acc73aad5736da87573284e72755",
  "confirmations": 45108,
  "height": 7990,
  "version": 1,
  "versionHex": "00000001",
  "merkleroot": "6e87a531cfac414a8cfb8f0e6c92c71fce9ee8ef3e37b7e092e1a9af54a9152d",
  "time": 1237455683,
  "mediantime": 1237451454,
  "nonce": 2334560570,
  "bits": "1d00ffff",
  "difficulty": 1,
  "chainwork": "00000000000000000000000000000000000000000000000000001f371f371f37",
  "nTx": 1,
  "previousblockhash": "00000000ba00b9d939c51b37016e6b3064a50a2f058e0a38a03c2fb52a86c484",
  "nextblockhash": "00000000d8699db19ceba1be6407e2b79fb8620d631ede772e70c26a9cd059af",
  "strippedsize": 216,
  "size": 216,
  "weight": 864,
  "tx": [
    {
      "txid": "6e87a531cfac414a8cfb8f0e6c92c71fce9ee8ef3e37b7e092e1a9af54a9152d",
      "hash": "6e87a531cfac414a8cfb8f0e6c92c71fce9ee8ef3e37b7e092e1a9af54a9152d",
      "version": 1,
      "size": 135,
      "vsize": 135,
      "weight": 540,
      "locktime": 0,
      "vin": [
        {
          "coinbase": "04ffff001d023909",
          "sequence": 4294967295
        }
      ],
      "vout": [
        {
          "value": 50.0,
          "n": 0,
          "scriptPubKey": {
            "asm": "04a0e07a617ce6bde37d61feef5b6373bcee26e1e69baf70d01141c776a08c4304fab4aa293240d4bcee74a48bcbde60e24ee274f3dd0d0182d8381efb345ed46f OP_CHECKSIG",
            "desc": "pk(04a0e07a617ce6bde37d61feef5b6373bcee26e1e69baf70d01141c776a08c4304fab4aa293240d4bcee74a48bcbde60e24ee274f3dd0d0182d8381efb345ed46f)#x3yx5r7l",
            "hex": "4104a0e07a617ce6bde37d61feef5b6373bcee26e1e69baf70d01141c776a08c4304fab4aa293240d4bcee74a48bcbde60e24ee274f3dd0d0182d8381efb345ed46fac",
            "type": "pubkey"
          }
        }
      ],
      "hex": "01000000010000000000000000000000000000000000000000000000000000000000000000ffffffff0804ffff001d023909ffffffff0100f2052a01000000434104a0e07a617ce6bde37d61feef5b6373bcee26e1e69baf70d01141c776a08c4304fab4aa293240d4bcee74a48bcbde60e24ee274f3dd0d0182d8381efb345ed46fac00000000"
    }
  ]
}