{
  "hash": "00000000e40fa013d2e89b45429011303ad6c3f85e44a6e3ddee314c78b00474",
  "confirmations": 46983,
  "height": 6115,
  "version": 1,
  "versionHex": "00000001",
  "merkleroot": "8b33c7f087cf08e4b1fc99ae826c1e07a646b2237a62c7dc0a10ca1a49a94884",
  "time": 1236021434,
  "mediantime": 1236016719,
  "nonce": 2745063197,
  "bits": "1d00ffff",
  "difficulty": 1,
  "chainwork": "000000000000000000000000000000000000000000000000000017e417e417e4",
  "nTx": 1,
  "previousblockhash": "00000000846e60060baaaf0d930c2738f287534f72d5b6cd4e9ef888da7652cf",
  "nextblockhash": "000000004ca4d556f7eb04a41e7896988f6da9ffa7f680e9cc5e998ea3ee9507",
  "strippedsize": 216,
  "size": 216,
  "weight": 864,
  "tx": [
    {
      "txid": "8b33c7f087cf08e4b1fc99ae826c1e07a646b2237a62c7dc0a10ca1a49a94884",
      "hash": "8b33c7f087cf08e4b1fc99ae826c1e07a646b2237a62c7dc0a10ca1a49a94884",
      "version": 1,
      "size": 135,
      "vsize": 135,
      "weight": 540,
      "locktime": 0,
      "vin": [
        {
          "coinbase": "04ffff001d020807",
          "sequence": 4294967295
        }
      ],
      "vout": [
        {
          "value": 50.0,
          "n": 0,
          "scriptPubKey": {
            "asm": "045782b766b9ef66a90b3c4dddf7b28f796f27927e9ae63fc6ce9065762647f9e787768b0fec8d57ce2122a90ae755b5f3e09e15c56c1fd13bf5e1a7f2cc2beb7b OP_CHECKSIG",
            "desc": "pk(045782b766b9ef66a90b3c4dddf7b28f796f27927e9ae63fc6ce9065762647f9e787768b0fec8d57ce2122a90ae755b5f3e09e15c56c1fd13bf5e1a7f2cc2beb7b)#u49tkyxd",
            "hex": "41045782b766b9ef66a90b3c4dddf7b28f796f27927e9ae63fc6ce9065762647f9e787768b0fec8d57ce2122a90ae755b5f3e09e15c56c1fd13bf5e1a7f2cc2beb7bac",
            "type": "pubkey"
          }
        }
      ],
      "hex": "01000000010000000000000000000000000000000000000000000000000000000000000000ffffffff0804ffff001d020807ffffffff0100f2052a010000004341045782b766b9ef66a90b3c4dddf7b28f796f27927e9ae63fc6ce9065762647f9e787768b0fec8d57ce2122a90ae755b5f3e09e15c56c1fd13bf5e1a7f2cc2beb7bac00000000"
    }
  ]
}