{
  "hash": "0000000056cb3abfa6d975ce08a6055365c432426a39ea7d8d984562dbbcea07",
  "confirmations": 51158,
  "height": 1940,
  "version": 1,
  "versionHex": "00000001",
  "merkleroot": "9f65324fd5bf91e6850fae132e6e6b0a25b15eaa57a6918fc6decd6c43bad95f",
  "time": 1232998843,
  "mediantime": 1232996097,
  "nonce": 4276462639,
  "bits": "1d00ffff",
  "difficulty": 1,
  "chainwork": "0000000000000000000000000000000000000000000000000000079507950795",
  "nTx": 1,
  "previousblockhash": "0000000062f250b9e1995a186da0136fc5589d86b85ad4d750f7490921cedec1",
  "nextblockhash": "000000001382080813aa522a4414d659e6e70df27999f3477096ed885b589a02",
  "strippedsize": 215,
  "size": 215,
  "weight": 860,
  "tx": [
    {
      "txid": "9f65324fd5bf91e6850fae132e6e6b0a25b15eaa57a6918fc6decd6c43bad95f",
      "hash": "9f65324fd5bf91e6850fae132e6e6b0a25b15eaa57a6918fc6decd6c43bad95f",
      "version": 1,
      "size": 134,
      "vsize": 134,
      "weight": 536,
      "locktime": 0,
      "vin": [
        {
          "coinbase": "04ffff001d0170",
          "sequence": 4294967295
        }
      ],
      "vout": [
        {
          "value": 50.0,
          "n": 0,
          "scriptPubKey": {
            "asm": "047aa88f695b7d14ee87fa437bb1d1717e4e2adf6dc7f4a69b406b17eb66d37128873e4f2ae594ef0d3ef19b17b1b1b7af751b54758d1d12de9801f2b84fc4a7ad OP_CHECKSIG",
            "desc": "pk(047aa88f695b7d14ee87fa437bb1d1717e4e2adf6dc7f4a69b406b17eb66d37128873e4f2ae594ef0d3ef19b17b1b1b7af751b54758d1d12de9801f2b84fc4a7ad)#2gx0tywf",
            "hex": "41047aa88f695b7d14ee87fa437bb1d1717e4e2adf6dc7f4a69b406b17eb66d37128873e4f2ae594ef0d3ef19b17b1b1b7af751b54758d1d12de9801f2b84fc4a7adac",
            "type": "pubkey"
          }
        }
      ],
      "hex": "01000000010000000000000000000000000000000000000000000000000000000000000000ffffffff0704ffff001d0170ffffffff0100f2052a010000004341047aa88f695b7d14ee87fa437bb1d1717e4e2adf6dc7f4a69b406b17eb66d37128873e4f2ae594ef0d3ef19b17b1b1b7af751b54758d1d12de9801f2b84fc4a7adac00000000"
    }
  ]
}