{
  "hash": "00000000671a2d3f5a7f097e90cde88fcd874bcc99f34b216e1c9e543823603d",
  "confirmations": 48754,
  "height": 4344,
  "version": 1,
  "versionHex": "00000001",
  "merkleroot": "e9d40c51f2aba39a13d85fe3e2638fbb8235153b77f986a8c849336bde35d819",
  "time": 1234673967,
  "mediantime": 1234670655,
  "nonce": 2109097732,
  "bits": "1d00ffff",
  "difficulty": 1,
  "chainwork": "000000000000000000000000000000000000000000000000000010f910f910f9",
  "nTx": 1,
  "previousblockhash": "000000000ed039a379b37c9ef322845925eeb290ed65d1776bfac008e406aca3",
  "nextblockhash": "00000000ffbdef4f2a349b6ce934e80ac0965cf7f841e7ffc9c03ea78404e11a",
  "strippedsize": 215,
  "size": 215,
  "weight": 860,
  "tx": [
    {
      "txid": "e9d40c51f2aba39a13d85fe3e2638fbb8235153b77f986a8c849336bde35d819",
      "hash": "e9d40c51f2aba39a13d85fe3e2638fbb8235153b77f986a8c849336bde35d819",
      "version": 1,
      "size": 134,
      "vsize": 134,
      "weight": 536,
      "locktime": 0,
      "vin": [
        {
          "coinbase": "04ffff001d016f",
          "sequence": 4294967295
        }
      ],
      "vout": [
        {
          "value": 50.0,
          "n": 0,
          "scriptPubKey": {
            "asm": "0460404f9dd782d10429e1b2ff79266634f9fcf833ff7b2eae8718f5b95930cb4dc9443fa1330fc5c96eab40fd82669f04299dc8132cfb69462e9b839f94930016 OP_CHECKSIG",
            "desc": "pk(0460404f9dd782d10429e1b2ff79266634f9fcf833ff7b2eae8718f5b95930cb4dc9443fa1330fc5c96eab40fd82669f04299dc8132cfb69462e9b839f94930016)#65m7et7q",
            "hex": "410460404f9dd782d10429e1b2ff79266634f9fcf833ff7b2eae8718f5b95930cb4dc9443fa1330fc5c96eab40fd82669f04299dc8132cfb69462e9b839f94930016ac",
            "type": "pubkey"
          }
        }
      ],
      "hex": "01000000010000000000000000000000000000000000000000000000000000000000000000ffffffff0704ffff001d016fffffffff0100f2052a0100000043410460404f9dd782d10429e1b2ff79266634f9fcf833ff7b2eae8718f5b95930cb4dc9443fa1330fc5c96eab40fd82669f04299dc8132cfb69462e9b839f94930016ac00000000"
    }
  ]
}