{
  "hash": "000000009579d1a62c9b365682641a0a6d73fc047b93fc5ab4ea046ccd9877ef",
  "confirmations": 52211,
  "height": 410,
  "version": 1,
  "versionHex": "00000001",
  "merkleroot": "80243f677ac731f4dd97e345832e41995cc11e90fc30b83806ecb470be1d6280",
  "time": 1231909577,
  "mediantime": 1231905679,
  "nonce": 4122836022,
  "bits": "1d00ffff",
  "difficulty": 1,
  "chainwork": "0000000000000000000000000000000000000000000000000000019b019b019b",
  "nTx": 1,
  "previousblockhash": "000000005ab5baa8ca1a5343bb7d84a5ef42e31b91a2e673137654d689881b27",
  "nextblockhash": "000000003ddeb377f8c85e3c7b1ac78715fbb90fe65a617d0c57c0a6f62baf94",
  "strippedsize": 216,
  "size": 216,
  "weight": 864,
  "tx": [
    {
      "txid": "80243f677ac731f4dd97e345832e41995cc11e90fc30b83806ecb470be1d6280",
      "hash": "80243f677ac731f4dd97e345832e41995cc11e90fc30b83806ecb470be1d6280",
      "version": 1,
      "size": 135,
      "vsize": 135,
      "weight": 540,
      "locktime": 0,
      "vin": [
        {
          "coinbase": "04ffff001d02c502",
          "sequence": 4294967295
        }
      ],
      "vout": [
        {
          "value": 50.0,
          "n": 0,
          "scriptPubKey": {
            "asm": "04546e5dc365e864099ca5dc342cf9ca121c99edd065993b7cae44ce2852ceb9fd250f7eed9056f1ca857abf357490ba78e4e01cf4bc9f490abf968e2939a3ee0e OP_CHECKSIG",
            "desc": "pk(04546e5dc365e864099ca5dc342cf9ca121c99edd065993b7cae44ce2852ceb9fd250f7eed9056f1ca857abf357490ba78e4e01cf4bc9f490abf968e2939a3ee0e)#xlvjptny",
            "hex": "4104546e5dc365e864099ca5dc342cf9ca121c99edd065993b7cae44ce2852ceb9fd250f7eed9056f1ca857abf357490ba78e4e01cf4bc9f490abf968e2939a3ee0eac",
            "type": "pubkey"
          }
        }
      ],
      "hex": "01000000010000000000000000000000000000000000000000000000000000000000000000ffffffff0804ffff001d02c502ffffffff0100f2052a01000000434104546e5dc365e864099ca5dc342cf9ca121c99edd065993b7cae44ce2852ceb9fd250f7eed9056f1ca857abf357490ba78e4e01cf4bc9f490abf968e2939a3ee0eac00000000"
    }
  ]
}