{
  "hash": "00000000bdb2a11dbc79d6f367e666448ac16aed9be8ad7c5a5712e23d0a4942",
  "confirmations": 52556,
  "height": 542,
  "version": 1,
  "versionHex": "00000001",
  "merkleroot": "5571d2f1532ce3e747f8843bfa92418ae3ebac6865769126814ca5ea36f12798",
  "time": 1231995860,
  "mediantime": 1231992912,
  "nonce": 1132265750,
  "bits": "1d00ffff",
  "difficulty": 1,
  "chainwork": "0000000000000000000000000000000000000000000000000000021f021f021f",
  "nTx": 1,
  "previousblockhash": "00000000aa3704d9c763fac9ae41842c55a2b3a1c5b404dff2ca82c9f9ebd64b",
  "nextblockhash": "0000000009b905f3db4990848b9b14fe39582147fcf6a6cb8d73bd227d75369e",
  "strippedsize": 216,
  "size": 216,
  "weight": 864,
  "tx": [
    {
      "txid": "5571d2f1532ce3e747f8843bfa92418ae3ebac6865769126814ca5ea36f12798",
      "hash": "5571d2f1532ce3e747f8843bfa92418ae3ebac6865769126814ca5ea36f12798",
      "version": 1,
      "size": 135,
      "vsize": 135,
      "weight": 540,
      "locktime": 0,
      "vin": [
        {
          "coinbase": "04ffff001d026905",
          "sequence": 4294967295
        }
      ],
      "vout": [
        {
          "value": 50.0,
          "n": 0,
          "scriptPubKey": {
            "asm": "04cb7bf358e2565b4fd57ea4dddc952dd24b6216060926adb997052685c9c8840fc03cf3d2c19bac89d1ab4c25950e375ffc33aaee5f63878229b2e37cbbfefdc4 OP_CHECKSIG",
            "desc": "pk(04cb7bf358e2565b4fd57ea4dddc952dd24b6216060926adb997052685c9c8840fc03cf3d2c19bac89d1ab4c25950e375ffc33aaee5f63878229b2e37cbbfefdc4)#rh7952es",
            "hex": "4104cb7bf358e2565b4fd57ea4dddc952dd24b6216060926adb997052685c9c8840fc03cf3d2c19bac89d1ab4c25950e375ffc33aaee5f63878229b2e37cbbfefdc4ac",
            "type": "pubkey"
          }
        }
      ],
      "hex": "01000000010000000000000000000000000000000000000000000000000000000000000000ffffffff0804ffff001d026905ffffffff0100f2052a01000000434104cb7bf358e2565b4fd57ea4dddc952dd24b6216060926adb997052685c9c8840fc03cf3d2c19bac89d1ab4c25950e375ffc33aaee5f63878229b2e37cbbfefdc4ac00000000"
    }
  ]
}