{
  "hash": "0000000064977bd776a9bf01a4bd7cfc0315888d072c4e7ad33ba2f6b2de5ec8",
  "confirmations": 44101,
  "height": 8997,
  "version": 1,
  "versionHex": "00000001",
  "merkleroot": "f55b5b02156563350f4971e3cd157a7079d3ab4e97b7a5c194f3b8d51615d1de",
  "time": 1238250056,
  "mediantime": 1238246876,
  "nonce": 2192326691,
  "bits": "1d00ffff",
  "difficulty": 1,
  "chainwork": "0000000000000000000000000000000000000000000000000000232623262326",
  "nTx": 1,
  "previousblockhash": "00000000c411dcc4a6b2bdaa4a8678eee208926f25824237e9470dab80073b1f",
  "nextblockhash": "000000003a72ab8ed0504528f0d8272445d2cb77af3367f2b3c274a52b7f9ee5",
  "strippedsize": 216,
  "size": 216,
  "weight": 864,
  "tx": [
    {
      "txid": "f55b5b02156563350f4971e3cd157a7079d3ab4e97b7a5c194f3b8d51615d1de",
      "hash": "f55b5b02156563350f4971e3cd157a7079d3ab4e97b7a5c194f3b8d51615d1de",
      "version": 1,
      "size": 135,
      "vsize": 135,
      "weight": 540,
      "locktime": 0,
      "vin": [
        {
          "coinbase": "04ffff001d025006",
          "sequence": 4294967295
        }
      ],
      "vout": [
        {
          "value": 50.0,
          "n": 0,
          "scriptPubKey": {
            "asm": "04027d246d3702be4ecd5e751948c854e7ea0fc11a80e39e54cfcafcef9d190deaac2f00e7e732a9454b2ee4a933a7d1ab73a5902cef06c4771857dfb16eb493d6 OP_CHECKSIG",
            "desc": "pk(04027d246d3702be4ecd5e751948c854e7ea0fc11a80e39e54cfcafcef9d190deaac2f00e7e732a9454b2ee4a933a7d1ab73a5902cef06c4771857dfb16eb493d6)#yal7zmv3",
            "hex": "4104027d246d3702be4ecd5e751948c854e7ea0fc11a80e39e54cfcafcef9d190deaac2f00e7e732a9454b2ee4a933a7d1ab73a5902cef06c4771857dfb16eb493d6ac",
            "type": "pubkey"
          }
        }
      ],
      "hex": "01000000010000000000000000000000000000000000000000000000000000000000000000ffffffff0804ffff001d025006ffffffff0100f2052a01000000434104027d246d3702be4ecd5e751948c854e7ea0fc11a80e39e54cfcafcef9d190deaac2f00e7e732a9454b2ee4a933a7d1ab73a5902cef06c4771857dfb16eb493d6ac00000000"
    }
  ]
}