{
  "hash": "00000000dca66fd8c83987a74bcfb3be14a6ad212e62953bd2595242b35d207a",
  "confirmations": 45873,
  "height": 7225,
  "version": 1,
  "versionHex": "00000001",
  "merkleroot": "a2f56b40a69af02c3b4e4ce22421e33b7d5b4ea09e4d005311fed1bd802f7922",
  "time": 1236889116,
  "mediantime": 1236886030,
  "nonce": 65850181,
  "bits": "1d00ffff",
  "difficulty": 1,
  "chainwork": "00000000000000000000000000000000000000000000000000001c3a1c3a1c3a",
  "nTx": 1,
  "previousblockhash": "00000000f2ffe6e9083ce65a57cd94131b3eaf0dfaf2d7921cf8fbe1a4b0494b",
  "nextblockhash": "0000000094bb5fbd86492b3259b328ed1e5d497c272159c3c84e2637b968e6bb",
  "strippedsize": 216,
  "size": 216,
  "weight": 864,
  "tx": [
    {
      "txid": "a2f56b40a69af02c3b4e4ce22421e33b7d5b4ea09e4d005311fed1bd802f7922",
      "hash": "a2f56b40a69af02c3b4e4ce22421e33b7d5b4ea09e4d005311fed1bd802f7922",
      "version": 1,
      "size": 135,
      "vsize": 135,
      "weight": 540,
      "locktime": 0,
      "vin": [
        {
          "coinbase": "04ffff001d02d601",
          "sequence": 4294967295
        }
      ],
      "vout": [
        {
          "value": 50.0,
          "n": 0,
          "scriptPubKey": {
            "asm": "04d90fead0670bb3524a4588b317cd2e8260fc8ef17bc25716938ddad4f72e01eb0584dcf07b572bf7ba3a91929cd235a108c2c6bb9eebea7fb15ac74a0d7b82e7 OP_CHECKSIG",
            "desc": "pk(04d90fead0670bb3524a4588b317cd2e8260fc8ef17bc25716938ddad4f72e01eb0584dcf07b572bf7ba3a91929cd235a108c2c6bb9eebea7fb15ac74a0d7b82e7)#p283fqhd",
            "hex": "4104d90fead0670bb3524a4588b317cd2e8260fc8ef17bc25716938ddad4f72e01eb0584dcf07b572bf7ba3a91929cd235a108c2c6bb9eebea7fb15ac74a0d7b82e7ac",
            "type": "pubkey"
          }
        }
      ],
      "hex": "01000000010000000000000000000000000000000000000000000000000000000000000000ffffffff0804ffff001d02d601ffffffff0100f2052a01000000434104d90fead0670bb3524a4588b317cd2e8260fc8ef17bc25716938ddad4f72e01eb0584dcf07b572bf7ba3a91929cd235a108c2c6bb9eebea7fb15ac74a0d7b82e7ac00000000"
    }
  ]
}