{
  "hash": "00000000c4136bf96ec4c9a93202cf2f6cf59758b4c0e7c004d2816b93b55510",
  "confirmations": 49438,
  "height": 3660,
  "version": 1,
  "versionHex": "00000001",
  "merkleroot": "b742d308ab943ab9e47a58b5e4fa564026fd3369d5770fdca6e99121b87ca6e6",
  "time": 1234207671,
  "mediantime": 1234205994,
  "nonce": 19706512,
  "bits": "1d00ffff",
  "difficulty": 1,
  "chainwork": "00000000000000000000000000000000000000000000000000000e4d0e4d0e4d",
  "nTx": 1,
  "previousblockhash": "00000000c8eb5603b6bcc934f66e1654bb0d8ca0c8f1768b6d1726fde28d91bf",
  "nextblockhash": "00000000a38ae6416d0bc993f260d5d67411ef5a1b53e0f083483355f75d78ed",
  "strippedsize": 215,
  "size": 215,
  "weight": 860,
  "tx": [
    {
      "txid": "b742d308ab943ab9e47a58b5e4fa564026fd3369d5770fdca6e99121b87ca6e6",
      "hash": "b742d308ab943ab9e47a58b5e4fa564026fd3369d5770fdca6e99121b87ca6e6",
      "version": 1,
      "size": 134,
      "vsize": 134,
      "weight": 536,
      "locktime": 0,
      "vin": [
        {
          "coinbase": "04ffff001d012f",
          "sequence": 4294967295
        }
      ],
      "vout": [
        {
          "value": 50.0,
          "n": 0,
          "scriptPubKey": {
            "asm": "04127bd65a3022fdb4f716b966b152a80a0ee655fe866773a57f059b9379e874ffea3fb9c4513e1436da99936981c99b862f2acb08402d37971a5c6b408b66ad2c OP_CHECKSIG",
            "desc": "pk(04127bd65a3022fdb4f716b966b152a80a0ee655fe866773a57f059b9379e874ffea3fb9c4513e1436da99936981c99b862f2acb08402d37971a5c6b408b66ad2c)#nenafhmz",
            "hex": "4104127bd65a3022fdb4f716b966b152a80a0ee655fe866773a57f059b9379e874ffea3fb9c4513e1436da99936981c99b862f2acb08402d37971a5c6b408b66ad2cac",
            "type": "pubkey"
          }
        }
      ],
      "hex": "01000000010000000000000000000000000000000000000000000000000000000000000000ffffffff0704ffff001d012fffffffff0100f2052a01000000434104127bd65a3022fdb4f716b966b152a80a0ee655fe866773a57f059b9379e874ffea3fb9c4513e1436da99936981c99b862f2acb08402d37971a5c6b408b66ad2cac00000000"
    }
  ]
}