{
  "hash": "00000000a20b846670fec9ef68b31b35fb757b3e6e1db5166241eefb686acd39",
  "confirmations": 43559,
  "height": 9539,
  "version": 1,
  "versionHex": "00000001",
  "merkleroot": "fe8ade562a9b7581e009799a9fc586b7458a106384acd065f572726161e2e235",
  "time": 1238652709,
  "mediantime": 1238648901,
  "nonce": 187117714,
  "bits": "1d00ffff",
  "difficulty": 1,
  "chainwork": "0000000000000000000000000000000000000000000000000000254425442544",
  "nTx": 1,
  "previousblockhash": "00000000fbbffc7331fb0ed43747916f69a0713e2cdd270ee8894f89ce6c4aa0",
  "nextblockhash": "000000008893a16f8cf72bcad0280c0afb27fe42e69747644f5337f28ca5e32d",
  "strippedsize": 215,
  "size": 215,
  "weight": 860,
  "tx": [
    {
      "txid": "fe8ade562a9b7581e009799a9fc586b7458a106384acd065f572726161e2e235",
      "hash": "fe8ade562a9b7581e009799a9fc586b7458a106384acd065f572726161e2e235",
      "version": 1,
      "size": 134,
      "vsize": 134,
      "weight": 536,
      "locktime": 0,
      "vin": [
        {
          "coinbase": "04ffff001d0179",
          "sequence": 4294967295
        }
      ],
      "vout": [
        {
          "value": 50.0,
          "n": 0,
          "scriptPubKey": {
            "asm": "04f96ec30d99233086196ecdd97566543b481dcaf5334bec45cd1276ce790e5168cdbb5cbd3e5569014e4a7fbcfde3edf9b8eceee6d0081687e84b2e268deae026 OP_CHECKSIG",
            "desc": "pk(04f96ec30d99233086196ecdd97566543b481dcaf5334bec45cd1276ce790e5168cdbb5cbd3e5569014e4a7fbcfde3edf9b8eceee6d0081687e84b2e268deae026)#0vj0sff3",
            "hex": "4104f96ec30d99233086196ecdd97566543b481dcaf5334bec45cd1276ce790e5168cdbb5cbd3e5569014e4a7fbcfde3edf9b8eceee6d0081687e84b2e268deae026ac",
            "type": "pubkey"
          }
        }
      ],
      "hex": "01000000010000000000000000000000000000000000000000000000000000000000000000ffffffff0704ffff001d0179ffffffff0100f2052a01000000434104f96ec30d99233086196ecdd97566543b481dcaf5334bec45cd1276ce790e5168cdbb5cbd3e5569014e4a7fbcfde3edf9b8eceee6d0081687e84b2e268deae026ac00000000"
    }
  ]
}