{
  "hash": "0000000054c0a09c2e117a91de7d8ef14622401ce819f8b3311356b3feddb373",
  "confirmations": 45420,
  "height": 7678,
  "version": 1,
  "versionHex": "00000001",
  "merkleroot": "4c5d917034b1d66869fb695b91366a791c25d01fb3dd7887f328697f0afa3fad",
  "time": 1237222503,
  "mediantime": 1237219829,
  "nonce": 2685220914,
  "bits": "1d00ffff",
  "difficulty": 1,
  "chainwork": "00000000000000000000000000000000000000000000000000001dff1dff1dff",
  "nTx": 1,
  "previousblockhash": "000000009dc6fb77901a725e54e43cd61a5b96b23c60a76ea62ad186daa83c0d",
  "nextblockhash": "000000007b229871f2754cc07dfd2c43c4a365ade1ffdfd8e6e4df91cacd548f",
  "strippedsize": 216,
  "size": 216,
  "weight": 864,
  "tx": [
    {
      "txid": "4c5d917034b1d66869fb695b91366a791c25d01fb3dd7887f328697f0afa3fad",
      "hash": "4c5d917034b1d66869fb695b91366a791c25d01fb3dd7887f328697f0afa3fad",
      "version": 1,
      "size": 135,
      "vsize": 135,
      "weight": 540,
      "locktime": 0,
      "vin": [
        {
          "coinbase": "04ffff001d02bf03",
          "sequence": 4294967295
        }
      ],
      "vout": [
        {
          "value": 50.0,
          "n": 0,
          "scriptPubKey": {
            "asm": "04171d7db9b457d0449404be6d5a7501a34371367a7749ae91b929c23a116e7c51e1ec816c77751ecf06ea897bad96184df9d5c9d6c39bb744caed25e9fd719c5f OP_CHECKSIG",
            "desc": "pk(04171d7db9b457d0449404be6d5a7501a34371367a7749ae91b929c23a116e7c51e1ec816c77751ecf06ea897bad96184df9d5c9d6c39bb744caed25e9fd719c5f)#vqa2f2eg",
            "hex": "4104171d7db9b457d0449404be6d5a7501a34371367a7749ae91b929c23a116e7c51e1ec816c77751ecf06ea897bad96184df9d5c9d6c39bb744caed25e9fd719c5fac",
            "type": "pubkey"
          }
        }
      ],
      "hex": "01000000010000000000000000000000000000000000000000000000000000000000000000ffffffff0804ffff001d02bf03ffffffff0100f2052a01000000434104171d7db9b457d0449404be6d5a7501a34371367a7749ae91b929c23a116e7c51e1ec816c77751ecf06ea897bad96184df9d5c9d6c39bb744caed25e9fd719c5fac00000000"
    }
  ]
}