{
  "hash": "000000008d81ea3ee542e4c42b6199e0ca16b1161e28ef784cf62a1a436151c0",
  "confirmations": 46525,
  "height": 6573,
  "version": 1,
  "versionHex": "00000001",
  "merkleroot": "4902dfdc12ef05ee201edfdf8ae3890c77e1981bb91a42fe7086910ed218e8ab",
  "time": 1236381721,
  "mediantime": 1236377419,
  "nonce": 1282529329,
  "bits": "1d00ffff",
  "difficulty": 1,
  "chainwork": "000000000000000000000000000000000000000000000000000019ae19ae19ae",
  "nTx": 1,
  "previousblockhash": "00000000004da06c86b8417e8ab7d29ca55ffb85cfe399e41dc0adfcf5f3d330",
  "nextblockhash": "000000000f473a759506cf47ee544fe35ef4f9bb4a1946b00aa278e079adfc47",
  "strippedsize": 216,
  "size": 216,
  "weight": 864,
  "tx": [
    {
      "txid": "4902dfdc12ef05ee201edfdf8ae3890c77e1981bb91a42fe7086910ed218e8ab",
      "hash": "4902dfdc12ef05ee201edfdf8ae3890c77e1981bb91a42fe7086910ed218e8ab",
      "version": 1,
      "size": 135,
      "vsize": 135,
      "weight": 540,
      "locktime": 0,
      "vin": [
        {
          "coinbase": "04ffff001d02b004",
          "sequence": 4294967295
        }
      ],
      "vout": [
        {
          "value": 50.0,
          "n": 0,
          "scriptPubKey": {
            "asm": "047820779eaf5a0f39dd076853a404cdb4a92e386426df1280cf56804105303881d3803bd27e591a5ba95a925d604a3768ca3df5ee77f0a319ece7bfb48025a1d5 OP_CHECKSIG",
            "desc": "pk(047820779eaf5a0f39dd076853a404cdb4a92e386426df1280cf56804105303881d3803bd27e591a5ba95a925d604a3768ca3df5ee77f0a319ece7bfb48025a1d5)#0sn6pzzh",
            "hex": "41047820779eaf5a0f39dd076853a404cdb4a92e386426df1280cf56804105303881d3803bd27e591a5ba95a925d604a3768ca3df5ee77f0a319ece7bfb48025a1d5ac",
            "type": "pubkey"
          }
        }
      ],
      "hex": "01000000010000000000000000000000000000000000000000000000000000000000000000ffffffff0804ffff001d02b004ffffffff0100f2052a010000004341047820779eaf5a0f39dd076853a404cdb4a92e386426df1280cf56804105303881d3803bd27e591a5ba95a925d604a3768ca3df5ee77f0a319ece7bfb48025a1d5ac00000000"
    }
  ]
}