{
  "hash": "000000005ba792c43083919a3352d96da39563de6553a660b929071f90eff728",
  "confirmations": 51342,
  "height": 1756,
  "version": 1,
  "versionHex": "00000001",
  "merkleroot": "3f7637079960f8a5d21d8748f5f7229f2a262fb372208a41cb7df9332a16f074",
  "time": 1232877332,
  "mediantime": 1232875103,
  "nonce": 1909944867,
  "bits": "1d00ffff",
  "difficulty": 1,
  "chainwork": "000000000000000000000000000000000000000000000000000006dd06dd06dd",
  "nTx": 1,
  "previousblockhash": "000000003a4e4b9193c3632d820ba93ec30f192c4bd0be902f6304edeeaca9a6",
  "nextblockhash": "00000000f512066d0e3b2d3599420092efd44976a82cbf4d335beb947031e891",
  "strippedsize": 216,
  "size": 216,
  "weight": 864,
  "tx": [
    {
      "txid": "3f7637079960f8a5d21d8748f5f7229f2a262fb372208a41cb7df9332a16f074",
      "hash": "3f7637079960f8a5d21d8748f5f7229f2a262fb372208a41cb7df9332a16f074",
      "version": 1,
      "size": 135,
      "vsize": 135,
      "weight": 540,
      "locktime": 0,
      "vin": [
        {
          "coinbase": "04ffff001d028203",
          "sequence": 4294967295
        }
      ],
      "vout": [
        {
          "value": 50.0,
          "n": 0,
          "scriptPubKey": {
            "asm": "04622699a143ac931ec758936e41764f433e49455c7ef18d19c63dbca62baf7693b280e75ad397e72422572d2ea8d9edf46c816bf86ae72a7e1dc8a0664ac604b8 OP_CHECKSIG",
            "desc": "pk(04622699a143ac931ec758936e41764f433e49455c7ef18d19c63dbca62baf7693b280e75ad397e72422572d2ea8d9edf46c816bf86ae72a7e1dc8a0664ac604b8)#m3z549s7",
            "hex": "4104622699a143ac931ec758936e41764f433e49455c7ef18d19c63dbca62baf7693b280e75ad397e72422572d2ea8d9edf46c816bf86ae72a7e1dc8a0664ac604b8ac",
            "type": "pubkey"
          }
        }
      ],
      "hex": "01000000010000000000000000000000000000000000000000000000000000000000000000ffffffff0804ffff001d028203ffffffff0100f2052a01000000434104622699a143ac931ec758936e41764f433e49455c7ef18d19c63dbca62baf7693b280e75ad397e72422572d2ea8d9edf46c816bf86ae72a7e1dc8a0664ac604b8ac00000000"
    }
  ]
}