{
  "hash": "000000001e12f35b5ad35f5d00d2ebe8cf317b9bf43bc36058c224b2e85d613a",
  "confirmations": 44170,
  "height": 8928,
  "version": 1,
  "versionHex": "00000001",
  "merkleroot": "0715d37954b2a9601d31768757edcc2c67d64e7414afb96a9a8588b0823996a0",
  "time": 1238200299,
  "mediantime": 1238196643,
  "nonce": 2350279,
  "bits": "1d00ffff",
  "difficulty": 1,
  "chainwork": "000000000000000000000000000000000000000000000000000022e122e122e1",
  "nTx": 1,
  "previousblockhash": "000000009632edab3bad8322e22a52709c05d9257f0ea0c3649cf3b725f090d3",
  "nextblockhash": "000000004c0d9d28f458d311db3de69f0fce041f04815b6d100ddcef2456cf9a",
  "strippedsize": 216,
  "size": 216,
  "weight": 864,
  "tx": [
    {
      "txid": "0715d37954b2a9601d31768757edcc2c67d64e7414afb96a9a8588b0823996a0",
      "hash": "0715d37954b2a9601d31768757edcc2c67d64e7414afb96a9a8588b0823996a0",
      "version": 1,
      "size": 135,
      "vsize": 135,
      "weight": 540,
      "locktime": 0,
      "vin": [
        {
          "coinbase": "04ffff001d02e504",
          "sequence": 4294967295
        }
      ],
      "vout": [
        {
          "value": 50.0,
          "n": 0,
          "scriptPubKey": {
            "asm": "04b3b23609cddb81a3e7efe943d835983c9521eb6e4c7c6b85a5047c871cd26a930c6f6f8a99f1553b749c98ed7203d924270103d61b9cc3e04af192a96d94a7d7 OP_CHECKSIG",
            "desc": "pk(04b3b23609cddb81a3e7efe943d835983c9521eb6e4c7c6b85a5047c871cd26a930c6f6f8a99f1553b749c98ed7203d924270103d61b9cc3e04af192a96d94a7d7)#05cw00rg",
            "hex": "4104b3b23609cddb81a3e7efe943d835983c9521eb6e4c7c6b85a5047c871cd26a930c6f6f8a99f1553b749c98ed7203d924270103d61b9cc3e04af192a96d94a7d7ac",
            "type": "pubkey"
          }
        }
      ],
      "hex": "01000000010000000000000000000000000000000000000000000000000000000000000000ffffffff0804ffff001d02e504ffffffff0100f2052a01000000434104b3b23609cddb81a3e7efe943d835983c9521eb6e4c7c6b85a5047c871cd26a930c6f6f8a99f1553b749c98ed7203d924270103d61b9cc3e04af192a96d94a7d7ac00000000"
    }
  ]
}