{
  "hash": "0000000042844571bc6bce8e1c0fbec99466971eaff89fef8c0d123582181d4d",
  "confirmations": 52499,
  "height": 599,
  "version": 1,
  "versionHex": "00000001",
  "merkleroot": "5155aef0cb328d97ba9ce4f9e8a184af57492f071707b8a525a98ded5504a691",
  "time": 1232038030,
  "mediantime": 1232035463,
  "nonce": 1042644233,
  "bits": "1d00ffff",
  "difficulty": 1,
  "chainwork": "0000000000000000000000000000000000000000000000000000025802580258",
  "nTx": 1,
  "previousblockhash": "0000000000d16752cf56ebae77a37a8fa1ac8e234336a41622c3b7924a07a644",
  "nextblockhash": "00000000c7f956a913bbef9c94f517c318805821b59ea6227175f3841792ea88",
  "strippedsize": 216,
  "size": 216,
  "weight": 864,
  "tx": [
    {
      "txid": "5155aef0cb328d97ba9ce4f9e8a184af57492f071707b8a525a98ded5504a691",
      "hash": "5155aef0cb328d97ba9ce4f9e8a184af57492f071707b8a525a98ded5504a691",
      "version": 1,
      "size": 135,
      "vsize": 135,
      "weight": 540,
      "locktime": 0,
      "vin": [
        {
          "coinbase": "04ffff001d02ad06",
          "sequence": 4294967295
        }
      ],
      "vout": [
        {
          "value": 50.0,
          "n": 0,
          "scriptPubKey": {
            "asm": "040ce67623d259d5e33c5d2b247513e4f27346f18f1b790699cc49a5fc895478a62ac1fc2257faaf190d5beecc8778028b7eef105eccefc16f1884ced2128c29ea OP_CHECKSIG",
            "desc": "pk(040ce67623d259d5e33c5d2b247513e4f27346f18f1b790699cc49a5fc895478a62ac1fc2257faaf190d5beecc8778028b7eef105eccefc16f1884ced2128c29ea)#emazan33",
            "hex": "41040ce67623d259d5e33c5d2b247513e4f27346f18f1b790699cc49a5fc895478a62ac1fc2257faaf190d5beecc8778028b7eef105eccefc16f1884ced2128c29eaac",
            "type": "pubkey"
          }
        }
      ],
      "hex": "01000000010000000000000000000000000000000000000000000000000000000000000000ffffffff0804ffff001d02ad06ffffffff0100f2052a010000004341040ce67623d259d5e33c5d2b247513e4f27346f18f1b790699cc49a5fc895478a62ac1fc2257faaf190d5beecc8778028b7eef105eccefc16f1884ced2128c29eaac00000000"
    }
  ]
}