{
  "hash": "00000000746f6bca4d7fb62aaca814a7847937b878b6f256f63d2c569fc96de1",
  "confirmations": 44601,
  "height": 8497,
  "version": 1,
  "versionHex": "00000001",
  "merkleroot": "1482da1724752b09a933f067749a5efd5a9c1a997eebee86030dae3406cf07ed",
  "time": 1237870514,
  "mediantime": 1237865187,
  "nonce": 1902986504,
  "bits": "1d00ffff",
  "difficulty": 1,
  "chainwork": "0000000000000000000000000000000000000000000000000000213221322132",
  "nTx": 1,
  "previousblockhash": "00000000705189678f41af8579233325e1df6112d8fc3d4e5e2667931b437e36",
  "nextblockhash": "0000000019db297501a3a2deb4c5d78238b677ab5fd5a15d6db94ff7861d4325",
  "strippedsize": 216,
  "size": 216,
  "weight": 864,
  "tx": [
    {
      "txid": "1482da1724752b09a933f067749a5efd5a9c1a997eebee86030dae3406cf07ed",
      "hash": "1482da1724752b09a933f067749a5efd5a9c1a997eebee86030dae3406cf07ed",
      "version": 1,
      "size": 135,
      "vsize": 135,
      "weight": 540,
      "locktime": 0,
      "vin": [
        {
          "coinbase": "04ffff001d02b407",
          "sequence": 4294967295
        }
      ],
      "vout": [
        {
          "value": 50.0,
          "n": 0,
          "scriptPubKey": {
            "asm": "04a3558ab4fdc2067c8cfea579eda53c3d7ac00d0a82076236f52fa3b76f858d0ffcbd2a3355ec985324f95c1529aa0dcdf53b2b0553ab613d8e2dfd3f91724e71 OP_CHECKSIG",
            "desc": "pk(04a3558ab4fdc2067c8cfea579eda53c3d7ac00d0a82076236f52fa3b76f858d0ffcbd2a3355ec985324f95c1529aa0dcdf53b2b0553ab613d8e2dfd3f91724e71)#mqjmpcs4",
            "hex": "4104a3558ab4fdc2067c8cfea579eda53c3d7ac00d0a82076236f52fa3b76f858d0ffcbd2a3355ec985324f95c1529aa0dcdf53b2b0553ab613d8e2dfd3f91724e71ac",
            "type": "pubkey"
          }
        }
      ],
      "hex": "01000000010000000000000000000000000000000000000000000000000000000000000000ffffffff0804ffff001d02b407ffffffff0100f2052a01000000434104a3558ab4fdc2067c8cfea579eda53c3d7ac00d0a82076236f52fa3b76f858d0ffcbd2a3355ec985324f95c1529aa0dcdf53b2b0553ab613d8e2dfd3f91724e71ac00000000"
    }
  ]
}