{
  "hash": "000000007c9a0b63a06defb999a89e020ec34c3b6374f042fdf6b3c3e51d13a0",
  "confirmations": 50235,
  "height": 2863,
  "version": 1,
  "versionHex": "00000001",
  "merkleroot": "b297ae7883a6b57ee813aeac555a560b7ffe421fa96ded1e18c7b3dd3f5af8e6",
  "time": 1233666967,
  "mediantime": 1233662516,
  "nonce": 1141537071,
  "bits": "1d00ffff",
  "difficulty": 1,
  "chainwork": "00000000000000000000000000000000000000000000000000000b300b300b30",
  "nTx": 1,
  "previousblockhash": "00000000b310aa0dbb70363ae1410d92575d8eaddc91a581391e357ed50b2e42",
  "nextblockhash": "00000000c8ef57c5b6e2186198e6a94bec3b6cd3d3b77b380611ef8c665f0429",
  "strippedsize": 216,
  "size": 216,
  "weight": 864,
  "tx": [
    {
      "txid": "b297ae7883a6b57ee813aeac555a560b7ffe421fa96ded1e18c7b3dd3f5af8e6",
      "hash": "b297ae7883a6b57ee813aeac555a560b7ffe421fa96ded1e18c7b3dd3f5af8e6",
      "version": 1,
      "size": 135,
      "vsize": 135,
      "weight": 540,
      "locktime": 0,
      "vin": [
        {
          "coinbase": "04ffff001d02f406",
          "sequence": 4294967295
        }
      ],
      "vout": [
        {
          "value": 50.0,
          "n": 0,
          "scriptPubKey": {
            "asm": "04c241682c6f5e698be57e417bafc93834220f263fd7bc0afd0699e042f10c21227be793c3b720c47bfec46dc8842dbb6d270e9b5e61a2b549f225c8f49ff080bf OP_CHECKSIG",
            "desc": "pk(04c241682c6f5e698be57e417bafc93834220f263fd7bc0afd0699e042f10c21227be793c3b720c47bfec46dc8842dbb6d270e9b5e61a2b549f225c8f49ff080bf)#3aj7c92j",
            "hex": "4104c241682c6f5e698be57e417bafc93834220f263fd7bc0afd0699e042f10c21227be793c3b720c47bfec46dc8842dbb6d270e9b5e61a2b549f225c8f49ff080bfac",
            "type": "pubkey"
          }
        }
      ],
      "hex": "01000000010000000000000000000000000000000000000000000000000000000000000000ffffffff0804ffff001d02f406ffffffff0100f2052a01000000434104c241682c6f5e698be57e417bafc93834220f263fd7bc0afd0699e042f10c21227be793c3b720c47bfec46dc8842dbb6d270e9b5e61a2b549f225c8f49ff080bfac00000000"
    }
  ]
}