{
  "hash": "00000000c22abfe5235fc0782a817fb6efc1c52d82fa42aa9ee60cb6de753282",
  "confirmations": 46252,
  "height": 6846,
  "version": 1,
  "versionHex": "00000001",
  "merkleroot": "c57b1f2bc2c7f75d52a01a60c37d85fb09155ea77473bef64383ec4a9ee8b6df",
  "time": 1236590744,
  "mediantime": 1236586529,
  "nonce": 4039026739,
  "bits": "1d00ffff",
  "difficulty": 1,
  "chainwork": "00000000000000000000000000000000000000000000000000001abf1abf1abf",
  "nTx": 1,
  "previousblockhash": "00000000b27dcb0f5e5463d7a6f8cf571032fc759ddde7fb92e901d31f071c8b",
  "nextblockhash": "000000004bca7349d50dfe2f3330ab18527bcc1ae4535b557032e70eebd50e8c",
  "strippedsize": 216,
  "size": 216,
  "weight": 864,
  "tx": [
    {
      "txid": "c57b1f2bc2c7f75d52a01a60c37d85fb09155ea77473bef64383ec4a9ee8b6df",
      "hash": "c57b1f2bc2c7f75d52a01a60c37d85fb09155ea77473bef64383ec4a9ee8b6df",
      "version": 1,
      "size": 135,
      "vsize": 135,
      "weight": 540,
      "locktime": 0,
      "vin": [
        {
          "coinbase": "04ffff001d029609",
          "sequence": 4294967295
        }
      ],
      "vout": [
        {
          "value": 50.0,
          "n": 0,
          "scriptPubKey": {
            "asm": "044143f027669c504c46ed9e6e2dd2b087361a93c5a23301a3f0ecede7d3966e54ca1025805cec2e4cc539572dc3e806b988d3ebdef07f1197ed12d3cb9efa09b7 OP_CHECKSIG",
            "desc": "pk(044143f027669c504c46ed9e6e2dd2b087361a93c5a23301a3f0ecede7d3966e54ca1025805cec2e4cc539572dc3e806b988d3ebdef07f1197ed12d3cb9efa09b7)#c7h23sx8",
            "hex": "41044143f027669c504c46ed9e6e2dd2b087361a93c5a23301a3f0ecede7d3966e54ca1025805cec2e4cc539572dc3e806b988d3ebdef07f1197ed12d3cb9efa09b7ac",
            "type": "pubkey"
          }
        }
      ],
      "hex": "01000000010000000000000000000000000000000000000000000000000000000000000000ffffffff0804ffff001d029609ffffffff0100f2052a010000004341044143f027669c504c46ed9e6e2dd2b087361a93c5a23301a3f0ecede7d3966e54ca1025805cec2e4cc539572dc3e806b988d3ebdef07f1197ed12d3cb9efa09b7ac00000000"
    }
  ]
}