{
  "hash": "00000000c2edc9f0ed8e33627247bbf78b89ee62b23ae48e6201debc28ff208e",
  "confirmations": 52093,
  "height": 234,
  "version": 1,
  "versionHex": "00000001",
  "merkleroot": "0f00a4718228d0e7338695a96dba43dcf371cbe37d315395c8d60e516f5e5235",
  "time": 1231780094,
  "mediantime": 1231775577,
  "nonce": 2140423963,
  "bits": "1d00ffff",
  "difficulty": 1,
  "chainwork": "000000000000000000000000000000000000000000000000000000eb00eb00eb",
  "nTx": 1,
  "previousblockhash": "0000000016c7dad613635ae08f697c10935476b49dc67fdb6ef08b1143d01a3e",
  "nextblockhash": "000000006006272b61243f806117f2b4d4482e1d3e83ee799b00015e551b81d2",
  "strippedsize": 216,
  "size": 216,
  "weight": 864,
  "tx": [
    {
      "txid": "0f00a4718228d0e7338695a96dba43dcf371cbe37d315395c8d60e516f5e5235",
      "hash": "0f00a4718228d0e7338695a96dba43dcf371cbe37d315395c8d60e516f5e5235",
      "version": 1,
      "size": 135,
      "vsize": 135,
      "weight": 540,
      "locktime": 0,
      "vin": [
        {
          "coinbase": "04ffff001d02dc00",
          "sequence": 4294967295
        }
      ],
      "vout": [
        {
          "value": 50.0,
          "n": 0,
          "scriptPubKey": {
            "asm": "04e130d7447b8e0ad391300eb62cf0725b32da98e8015806988e5a59beac8cb07bf00103b146796f60fe2e41fd603b8ea8a1ef24d161a9c7af9f3bd9d1e2fd361e OP_CHECKSIG",
            "desc": "pk(04e130d7447b8e0ad391300eb62cf0725b32da98e8015806988e5a59beac8cb07bf00103b146796f60fe2e41fd603b8ea8a1ef24d161a9c7af9f3bd9d1e2fd361e)#m7lfzxgw",
            "hex": "4104e130d7447b8e0ad391300eb62cf0725b32da98e8015806988e5a59beac8cb07bf00103b146796f60fe2e41fd603b8ea8a1ef24d161a9c7af9f3bd9d1e2fd361eac",
            "type": "pubkey"
          }
        }
      ],
      "hex": "01000000010000000000000000000000000000000000000000000000000000000000000000ffffffff0804ffff001d02dc00ffffffff0100f2052a01000000434104e130d7447b8e0ad391300eb62cf0725b32da98e8015806988e5a59beac8cb07bf00103b146796f60fe2e41fd603b8ea8a1ef24d161a9c7af9f3bd9d1e2fd361eac00000000"
    }
  ]
}