{
  "hash": "00000000dddb48473d55486c4d063039aaf7ebd6ce9cf1df04711f98ceb125c6",
  "confirmations": 45795,
  "height": 7303,
  "version": 1,
  "versionHex": "00000001",
  "merkleroot": "d7de5a72cb29a9d52f0edd7025ed1b45c48716e68d3342706d42a2e9fc08267f",
  "time": 1236950397,
  "mediantime": 1236948158,
  "nonce": 2960570649,
  "bits": "1d00ffff",
  "difficulty": 1,
  "chainwork": "00000000000000000000000000000000000000000000000000001c881c881c88",
  "nTx": 1,
  "previousblockhash": "000000002f17510c8ea06279554ebffbd926deb4f4d57b8f5ed8c4b435f5bf4d",
  "nextblockhash": "00000000e22730660ba64d3c3f561082a159ec44f44a8057a37e20214379a163",
  "strippedsize": 216,
  "size": 216,
  "weight": 864,
  "tx": [
    {
      "txid": "d7de5a72cb29a9d52f0edd7025ed1b45c48716e68d3342706d42a2e9fc08267f",
      "hash": "d7de5a72cb29a9d52f0edd7025ed1b45c48716e68d3342706d42a2e9fc08267f",
      "version": 1,
      "size": 135,
      "vsize": 135,
      "weight": 540,
      "locktime": 0,
      "vin": [
        {
          "coinbase": "04ffff001d029e07",
          "sequence": 4294967295
        }
      ],
      "vout": [
        {
          "value": 50.0,
          "n": 0,
          "scriptPubKey": {
            "asm": "0421bb72357a241b7852c7c17e4a4d3706f749d605c9c06bc90be133938112b2147c826f81f67c692c4b6117fb32b6073a5a2e25c88ff3b2661624464dda26391b OP_CHECKSIG",
            "desc": "pk(0421bb72357a241b7852c7c17e4a4d3706f749d605c9c06bc90be133938112b2147c826f81f67c692c4b6117fb32b6073a5a2e25c88ff3b2661624464dda26391b)#tckx5kmz",
            "hex": "410421bb72357a241b7852c7c17e4a4d3706f749d605c9c06bc90be133938112b2147c826f81f67c692c4b6117fb32b6073a5a2e25c88ff3b2661624464dda26391bac",
            "type": "pubkey"
          }
        }
      ],
      "hex": "01000000010000000000000000000000000000000000000000000000000000000000000000ffffffff0804ffff001d029e07ffffffff0100f2052a0100000043410421bb72357a241b7852c7c17e4a4d3706f749d605c9c06bc90be133938112b2147c826f81f67c692c4b6117fb32b6073a5a2e25c88ff3b2661624464dda26391bac00000000"
    }
  ]
}