{
  "hash": "00000000bced95e8d882530a8d2350390a8147c42e1bc6917b3dab4cc6363298",
  "confirmations": 46099,
  "height": 6999,
  "version": 1,
  "versionHex": "00000001",
  "merkleroot": "cd4e34b266037e03e4ebc5e8387fc27a522798bc6a0c65b8d7401926358a54f8",
  "time": 1236717394,
  "mediantime": 1236713210,
  "nonce": 2725154359,
  "bits": "1d00ffff",
  "difficulty": 1,
  "chainwork": "00000000000000000000000000000000000000000000000000001b581b581b58",
  "nTx": 1,
  "previousblockhash": "00000000944e3364a71446e8a21c45e9fac1d356b6671c2b76276ce091ee7eb6",
  "nextblockhash": "00000000febe750c27cd55f8bead2b0d4faf33ba961f9e3c0314791ab90ade55",
  "strippedsize": 216,
  "size": 216,
  "weight": 864,
  "tx": [
    {
      "txid": "cd4e34b266037e03e4ebc5e8387fc27a522798bc6a0c65b8d7401926358a54f8",
      "hash": "cd4e34b266037e03e4ebc5e8387fc27a522798bc6a0c65b8d7401926358a54f8",
      "version": 1,
      "size": 135,
      "vsize": 135,
      "weight": 540,
      "locktime": 0,
      "vin": [
        {
          "coinbase": "04ffff001d023f02",
          "sequence": 4294967295
        }
      ],
      "vout": [
        {
          "value": 50.0,
          "n": 0,
          "scriptPubKey": {
            "asm": "045ec4916c555cb594c787e0746b9897fbff2493da25fcf193c5baeb1d379dc79445206276938edd78bc606bbd6ece8cf55492fe39bafa1e96c1602cfaa3d1031b OP_CHECKSIG",
            "desc": "pk(045ec4916c555cb594c787e0746b9897fbff2493da25fcf193c5baeb1d379dc79445206276938edd78bc606bbd6ece8cf55492fe39bafa1e96c1602cfaa3d1031b)#hsg6mgys",
            "hex": "41045ec4916c555cb594c787e0746b9897fbff2493da25fcf193c5baeb1d379dc79445206276938edd78bc606bbd6ece8cf55492fe39bafa1e96c1602cfaa3d1031bac",
            "type": "pubkey"
          }
        }
      ],
      "hex": "01000000010000000000000000000000000000000000000000000000000000000000000000ffffffff0804ffff001d023f02ffffffff0100f2052a010000004341045ec4916c555cb594c787e0746b9897fbff2493da25fcf193c5baeb1d379dc79445206276938edd78bc606bbd6ece8cf55492fe39bafa1e96c1602cfaa3d1031bac00000000"
    }
  ]
}