{
  "hash": "00000000fb5b44edc7a1aa105075564a179d65506e2bd25f55f1629251d0f6b0",
  "confirmations": 52087,
  "height": 248,
  "version": 1,
  "versionHex": "00000001",
  "merkleroot": "ae64c2dea1d5ccd2a156dc0cb0c6ac66d9726d573d63962df61412145232c100",
  "time": 1231790660,
  "mediantime": 1231786898,
  "nonce": 3552595225,
  "bits": "1d00ffff",
  "difficulty": 1,
  "chainwork": "000000000000000000000000000000000000000000000000000000f900f900f9",
  "nTx": 2,
  "previousblockhash": "000000005fae7d3d06fc898ccdc1d9435b917dd2db63ecf0a0bc2b3f4210b831",
  "nextblockhash": "000000001a483a866ad69445e03a31db4ed5a9ea3f1cfec388fc18092f242155",
  "strippedsize": 492,
  "size": 492,
  "weight": 1968,
  "tx": [
    {
      "txid": "cf7bddc54f693c94a852a93e80ce971358d47b478929772b60cd84a41e0b3451",
      "hash": "cf7bddc54f693c94a852a93e80ce971358d47b478929772b60cd84a41e0b3451",
      "version": 1,
      "size": 135,
      "vsize": 135,
      "weight": 540,
      "locktime": 0,
      "vin": [
        {
          "coinbase": "04ffff001d020a01",
          "sequence": 4294967295
        }
      ],
      "vout": [
        {
          "value": 50.0,
          "n": 0,
          "scriptPubKey": {
            "asm": "04bd3265658992c717ffe9e3db0707ff7880821efead40454751e6be1a8c4d28829a99001d8b4b024e64d6f6b6da18a3c0ac74df4eae33ec8dc360ed320acba233 OP_CHECKSIG",
            "desc": "pk(04bd3265658992c717ffe9e3db0707ff7880821efead40454751e6be1a8c4d28829a99001d8b4b024e64d6f6b6da18a3c0ac74df4eae33ec8dc360ed320acba233)#35ws0r8u",
            "hex": "4104bd3265658992c717ffe9e3db0707ff7880821efead40454751e6be1a8c4d28829a99001d8b4b024e64d6f6b6da18a3c0ac74df4eae33ec8dc360ed320acba233ac",
            "type": "pubkey"
          }
        }
      ],
      "hex": "01000000010000000000000000000000000000000000000000000000000000000000000000ffffffff0804ffff001d020a01ffffffff0100f2052a01000000434104bd3265658992c717ffe9e3db0707ff7880821efead40454751e6be1a8c4d28829a99001d8b4b024e64d6f6b6da18a3c0ac74df4eae33ec8dc360ed320acba233ac00000000"
    },
    {
      "txid": "828ef3b079f9c23829c56fe86e85b4a69d9e06e5b54ea597eef5fb3ffef509fe",
      "hash": "828ef3b079f9c23829c56fe86e85b4a69d9e06e5b54ea597eef5fb3ffef509fe",
      "version": 1,
      "size": 276,
      "vsize": 276,
      "weight": 1104,
      "locktime": 0,
      "vin": [
        {
          "txid": "12b5633bad1f9c167d523ad1aa1947b2732a865bf5414eab2f9e5ae5d5c191ba",
          "vout": 1,
          "scriptSig": {
            "asm": "3045022100c12a7d54972f26d14cb311339b5122f8c187417dde1e8efb6841f55c34220ae0022066632c5cd4161efa3a2837764eee9eb84975dd54c2de2865e9752585c53e7cce[ALL]",
            "hex": "483045022100c12a7d54972f26d14cb311339b5122f8c187417dde1e8efb6841f55c34220ae0022066632c5cd4161efa3a2837764eee9eb84975dd54c2de2865e9752585c53e7cce01"
          },
          "sequence": 4294967295
        }
      ],
      "vout": [
        {
          "value": 10.0,
          "n": 0,
          "scriptPubKey": {
            "asm": "04bed827d37474beffb37efe533701ac1f7c600957a4487be8b371346f016826ee6f57ba30d88a472a0e4ecd2f07599a795f1f01de78d791b382e65ee1c58b4508 OP_CHECKSIG",
            "desc": "pk(04bed827d37474beffb37efe533701ac1f7c600957a4487be8b371346f016826ee6f57ba30d88a472a0e4ecd2f07599a795f1f01de78d791b382e65ee1c58b4508)#p4p6hzhc",
            "hex": "4104bed827d37474beffb37efe533701ac1f7c600957a4487be8b371346f016826ee6f57ba30d88a472a0e4ecd2f07599a795f1f01de78d791b382e65ee1c58b4508ac",
            "type": "pubkey"
          }
        },
        {
          "value": 18.0,
          "n": 1,
          "scriptPubKey": {
            "asm": "0411db93e1dcdb8a016b49840f8c53bc1eb68a382e97b1482ecad7b148a6909a5cb2e0eaddfb84ccf9744464f82e160bfa9b8b64f9d4c03f999b8643f656b412a3 OP_CHECKSIG",
            "desc": "pk(0411db93e1dcdb8a016b49840f8c53bc1eb68a382e97b1482ecad7b148a6909a5cb2e0eaddfb84ccf9744464f82e160bfa9b8b64f9d4c03f999b8643f656b412a3)#u7qfa49l",
            "hex": "410411db93e1dcdb8a016b49840f8c53bc1eb68a382e97b1482ecad7b148a6909a5cb2e0eaddfb84ccf9744464f82e160bfa9b8b64f9d4c03f999b8643f656b412a3ac",
            "type": "pubkey"
          }
        }
      ],
      "fee": 0.0,
      "hex": "0100000001ba91c1d5e55a9e2fab4e41f55b862a73b24719aad13a527d169c1fad3b63b5120100000049483045022100c12a7d54972f26d14cb311339b5122f8c187417dde1e8efb6841f55c34220ae0022066632c5cd4161efa3a2837764eee9eb84975dd54c2de2865e9752585c53e7cce01ffffffff0200ca9a3b00000000434104bed827d37474beffb37efe533701ac1f7c600957a4487be8b371346f016826ee6f57ba30d88a472a0e4ecd2f07599a795f1f01de78d791b382e65ee1c58b4508ac00d2496b0000000043410411db93e1dcdb8a016b49840f8c53bc1eb68a382e97b1482ecad7b148a6909a5cb2e0eaddfb84ccf9744464f82e160bfa9b8b64f9d4c03f999b8643f656b412a3ac00000000"
    }
  ]
}