{
  "hash": "00000000021df86d6a30dae7cde5561371426a030840af9c6fee2343be63a613",
  "confirmations": 46006,
  "height": 7092,
  "version": 1,
  "versionHex": "00000001",
  "merkleroot": "8799b298c7c0222407bb854315f1d1c842a4bbee42a4a176ff05b1b6ce90d43b",
  "time": 1236792275,
  "mediantime": 1236787338,
  "nonce": 3513308948,
  "bits": "1d00ffff",
  "difficulty": 1,
  "chainwork": "00000000000000000000000000000000000000000000000000001bb51bb51bb5",
  "nTx": 1,
  "previousblockhash": "00000000dee0460b86b56b79ec96ec6d2477c05bc61d669653c5a172683f7c94",
  "nextblockhash": "00000000e806b4a56f0ba877190842ef12289c57faae57a1b85eaa0ed87ff22d",
  "strippedsize": 216,
  "size": 216,
  "weight": 864,
  "tx": [
    {
      "txid": "8799b298c7c0222407bb854315f1d1c842a4bbee42a4a176ff05b1b6ce90d43b",
      "hash": "8799b298c7c0222407bb854315f1d1c842a4bbee42a4a176ff05b1b6ce90d43b",
      "version": 1,
      "size": 135,
      "vsize": 135,
      "weight": 540,
      "locktime": 0,
      "vin": [
        {
          "coinbase": "04ffff001d02e003",
          "sequence": 4294967295
        }
      ],
      "vout": [
        {
          "value": 50.0,
          "n": 0,
          "scriptPubKey": {
            "asm": "04a206f6e6a0ac2860b504575f29a70d7385aac34cd6320b30e25fc15edd696003b9c82fbe41897e43357015b75d75844e185a620371e4aa256db8463e77e44af4 OP_CHECKSIG",
            "desc": "pk(04a206f6e6a0ac2860b504575f29a70d7385aac34cd6320b30e25fc15edd696003b9c82fbe41897e43357015b75d75844e185a620371e4aa256db8463e77e44af4)#8e2uun9p",
            "hex": "4104a206f6e6a0ac2860b504575f29a70d7385aac34cd6320b30e25fc15edd696003b9c82fbe41897e43357015b75d75844e185a620371e4aa256db8463e77e44af4ac",
            "type": "pubkey"
          }
        }
      ],
      "hex": "01000000010000000000000000000000000000000000000000000000000000000000000000ffffffff0804ffff001d02e003ffffffff0100f2052a01000000434104a206f6e6a0ac2860b504575f29a70d7385aac34cd6320b30e25fc15edd696003b9c82fbe41897e43357015b75d75844e185a620371e4aa256db8463e77e44af4ac00000000"
    }
  ]
}