{
  "hash": "00000000fad20effda3e87cd77d15cad42364b58f66fca28dda4b34363c671a7",
  "confirmations": 44636,
  "height": 8462,
  "version": 1,
  "versionHex": "00000001",
  "merkleroot": "40123f4821e61235346c45dbbf129bffc8e0705dcd0797b2adc01e909d37fef1",
  "time": 1237839170,
  "mediantime": 1237835104,
  "nonce": 204501026,
  "bits": "1d00ffff",
  "difficulty": 1,
  "chainwork": "0000000000000000000000000000000000000000000000000000210f210f210f",
  "nTx": 1,
  "previousblockhash": "00000000f90147358404dfd986c23e2f9cac57537a7ceab02c350e2c38bb20ae",
  "nextblockhash": "00000000e017389c0490147e53ff28845b007ed51fcdc5e54f50fcaa3831d2da",
  "strippedsize": 216,
  "size": 216,
  "weight": 864,
  "tx": [
    {
      "txid": "40123f4821e61235346c45dbbf129bffc8e0705dcd0797b2adc01e909d37fef1",
      "hash": "40123f4821e61235346c45dbbf129bffc8e0705dcd0797b2adc01e909d37fef1",
      "version": 1,
      "size": 135,
      "vsize": 135,
      "weight": 540,
      "locktime": 0,
      "vin": [
        {
          "coinbase": "04ffff001d02f806",
          "sequence": 4294967295
        }
      ],
      "vout": [
        {
          "value": 50.0,
          "n": 0,
          "scriptPubKey": {
            "asm": "0445d8ca12f7608f9cb692962b06b4af6d31cc736a88ec7c5459ec90c5e9333cd911267c72c903ee1ad39eba35b72dc9d793903dbcabdf584c311e7b3b1b6214f0 OP_CHECKSIG",
            "desc": "pk(0445d8ca12f7608f9cb692962b06b4af6d31cc736a88ec7c5459ec90c5e9333cd911267c72c903ee1ad39eba35b72dc9d793903dbcabdf584c311e7b3b1b6214f0)#yzwjmf7q",
            "hex": "410445d8ca12f7608f9cb692962b06b4af6d31cc736a88ec7c5459ec90c5e9333cd911267c72c903ee1ad39eba35b72dc9d793903dbcabdf584c311e7b3b1b6214f0ac",
            "type": "pubkey"
          }
        }
      ],
      "hex": "01000000010000000000000000000000000000000000000000000000000000000000000000ffffffff0804ffff001d02f806ffffffff0100f2052a0100000043410445d8ca12f7608f9cb692962b06b4af6d31cc736a88ec7c5459ec90c5e9333cd911267c72c903ee1ad39eba35b72dc9d793903dbcabdf584c311e7b3b1b6214f0ac00000000"
    }
  ]
}