{
  "hash": "000000005443178dfe42ea11ff3588d9b404c2584e886d3c0d798d4e9a67ae5a",
  "confirmations": 52377,
  "height": 721,
  "version": 1,
  "versionHex": "00000001",
  "merkleroot": "3a4d6313e6f76ed7d51b5fc8565eefa50aec7fefeb56b5fa0498cf7c5f3ab306",
  "time": 1232126326,
  "mediantime": 1232122161,
  "nonce": 2752386350,
  "bits": "1d00ffff",
  "difficulty": 1,
  "chainwork": "000000000000000000000000000000000000000000000000000002d202d202d2",
  "nTx": 1,
  "previousblockhash": "00000000a6657c121ed645db8a0e48cec4fde2f4a020d7322dc62071d8f8bc2e",
  "nextblockhash": "000000000033b4ee1cc40f05145b1a3987cca2473589e7e23082996e2fe7c899",
  "strippedsize": 215,
  "size": 215,
  "weight": 860,
  "tx": [
    {
      "txid": "3a4d6313e6f76ed7d51b5fc8565eefa50aec7fefeb56b5fa0498cf7c5f3ab306",
      "hash": "3a4d6313e6f76ed7d51b5fc8565eefa50aec7fefeb56b5fa0498cf7c5f3ab306",
      "version": 1,
      "size": 134,
      "vsize": 134,
      "weight": 536,
      "locktime": 0,
      "vin": [
        {
          "coinbase": "04ffff001d0121",
          "sequence": 4294967295
        }
      ],
      "vout": [
        {
          "value": 50.0,
          "n": 0,
          "scriptPubKey": {
            "asm": "04d8a0a761755f22db14f481cd8f44f60718d52aabf36f2f39dcd41dee746607104893623733afb5333ecb5aea2f8e823b8cc7bdb6355a2b7b315692564da39017 OP_CHECKSIG",
            "desc": "pk(04d8a0a761755f22db14f481cd8f44f60718d52aabf36f2f39dcd41dee746607104893623733afb5333ecb5aea2f8e823b8cc7bdb6355a2b7b315692564da39017)#fl2yt7wl",
            "hex": "4104d8a0a761755f22db14f481cd8f44f60718d52aabf36f2f39dcd41dee746607104893623733afb5333ecb5aea2f8e823b8cc7bdb6355a2b7b315692564da39017ac",
            "type": "pubkey"
          }
        }
      ],
      "hex": "01000000010000000000000000000000000000000000000000000000000000000000000000ffffffff0704ffff001d0121ffffffff0100f2052a01000000434104d8a0a761755f22db14f481cd8f44f60718d52aabf36f2f39dcd41dee746607104893623733afb5333ecb5aea2f8e823b8cc7bdb6355a2b7b315692564da39017ac00000000"
    }
  ]
}