{
  "hash": "000000007eb7ae764c9ea9ddf8f11ea576616a2fcccd0720f48bcde18b4f9ecd",
  "confirmations": 50066,
  "height": 3032,
  "version": 1,
  "versionHex": "00000001",
  "merkleroot": "c5af7448419588041113e68ca4b935d3263252707a47f07dc5358505dbb8f094",
  "time": 1233783271,
  "mediantime": 1233780660,
  "nonce": 47762304,
  "bits": "1d00ffff",
  "difficulty": 1,
  "chainwork": "00000000000000000000000000000000000000000000000000000bd90bd90bd9",
  "nTx": 1,
  "previousblockhash": "00000000999dc4ea5312d6d9db4613f064706bf51ba542360a164de46fab9c0e",
  "nextblockhash": "000000003cfe3e2403cc46de7c6c3e20221786af4f4577da48225bbb539b5d5e",
  "strippedsize": 216,
  "size": 216,
  "weight": 864,
  "tx": [
    {
      "txid": "c5af7448419588041113e68ca4b935d3263252707a47f07dc5358505dbb8f094",
      "hash": "c5af7448419588041113e68ca4b935d3263252707a47f07dc5358505dbb8f094",
      "version": 1,
      "size": 135,
      "vsize": 135,
      "weight": 540,
      "locktime": 0,
      "vin": [
        {
          "coinbase": "04ffff001d026404",
          "sequence": 4294967295
        }
      ],
      "vout": [
        {
          "value": 50.0,
          "n": 0,
          "scriptPubKey": {
            "asm": "046b969088ce22ff2bcaab4c70f832f0c3ff05f19d19697ec9f8aedcc28fe6f81889c2d8204f5a87db1e7d7864d48402026ba1013b3ae1eb1eb363998b5fb5a3d8 OP_CHECKSIG",
            "desc": "pk(046b969088ce22ff2bcaab4c70f832f0c3ff05f19d19697ec9f8aedcc28fe6f81889c2d8204f5a87db1e7d7864d48402026ba1013b3ae1eb1eb363998b5fb5a3d8)#flzel99q",
            "hex": "41046b969088ce22ff2bcaab4c70f832f0c3ff05f19d19697ec9f8aedcc28fe6f81889c2d8204f5a87db1e7d7864d48402026ba1013b3ae1eb1eb363998b5fb5a3d8ac",
            "type": "pubkey"
          }
        }
      ],
      "hex": "01000000010000000000000000000000000000000000000000000000000000000000000000ffffffff0804ffff001d026404ffffffff0100f2052a010000004341046b969088ce22ff2bcaab4c70f832f0c3ff05f19d19697ec9f8aedcc28fe6f81889c2d8204f5a87db1e7d7864d48402026ba1013b3ae1eb1eb363998b5fb5a3d8ac00000000"
    }
  ]
}