{
  "hash": "00000000b65a3b5d37a6909b3b0a5606a3068ff9b23e3177c7986b2767d7af3f",
  "confirmations": 46919,
  "height": 6179,
  "version": 1,
  "versionHex": "00000001",
  "merkleroot": "968b9d50aa9815bcf194c8fdc4a37a3b4605a68ae9fa3258304a0a190dc15ed8",
  "time": 1236074846,
  "mediantime": 1236070420,
  "nonce": 574945800,
  "bits": "1d00ffff",
  "difficulty": 1,
  "chainwork": "0000000000000000000000000000000000000000000000000000182418241824",
  "nTx": 1,
  "previousblockhash": "00000000d1a7a18d5427da8d5c9c0f407954bb0d57caa046a62f770a155bea64",
  "nextblockhash": "00000000c90d2b130f106b815f0124d5dabd578c4cb411e7899f7f39b34900b1",
  "strippedsize": 216,
  "size": 216,
  "weight": 864,
  "tx": [
    {
      "txid": "968b9d50aa9815bcf194c8fdc4a37a3b4605a68ae9fa3258304a0a190dc15ed8",
      "hash": "968b9d50aa9815bcf194c8fdc4a37a3b4605a68ae9fa3258304a0a190dc15ed8",
      "version": 1,
      "size": 135,
      "vsize": 135,
      "weight": 540,
      "locktime": 0,
      "vin": [
        {
          "coinbase": "04ffff001d022708",
          "sequence": 4294967295
        }
      ],
      "vout": [
        {
          "value": 50.0,
          "n": 0,
          "scriptPubKey": {
            "asm": "04c2f32ed38fcbb278a83a204c4c3cbaedcdfbfe829138ff401fdd9ba04369dc58f6283b72bfe81cc7359eb0660fd39728fc86735376658d3f6fd45244f4bf0685 OP_CHECKSIG",
            "desc": "pk(04c2f32ed38fcbb278a83a204c4c3cbaedcdfbfe829138ff401fdd9ba04369dc58f6283b72bfe81cc7359eb0660fd39728fc86735376658d3f6fd45244f4bf0685)#dm5ndyka",
            "hex": "4104c2f32ed38fcbb278a83a204c4c3cbaedcdfbfe829138ff401fdd9ba04369dc58f6283b72bfe81cc7359eb0660fd39728fc86735376658d3f6fd45244f4bf0685ac",
            "type": "pubkey"
          }
        }
      ],
      "hex": "01000000010000000000000000000000000000000000000000000000000000000000000000ffffffff0804ffff001d022708ffffffff0100f2052a01000000434104c2f32ed38fcbb278a83a204c4c3cbaedcdfbfe829138ff401fdd9ba04369dc58f6283b72bfe81cc7359eb0660fd39728fc86735376658d3f6fd45244f4bf0685ac00000000"
    }
  ]
}