{
  "hash": "000000006ef15911fadda841e9962faa5d03d0167f2778bbc4b79e35b5e8635b",
  "confirmations": 51525,
  "height": 1573,
  "version": 1,
  "versionHex": "00000001",
  "merkleroot": "4c835e7d2f3796354e4884a99ff4a6d0e5d9204b95e33cef3c08f4970ab37b30",
  "time": 1232799318,
  "mediantime": 1232797567,
  "nonce": 3625268250,
  "bits": "1d00ffff",
  "difficulty": 1,
  "chainwork": "0000000000000000000000000000000000000000000000000000062606260626",
  "nTx": 1,
  "previousblockhash": "00000000a22dcf89f9172a1909d5735e7ae134bb58270722649db21a48f033a3",
  "nextblockhash": "0000000043626d97946d947a03e6c08c410f040cf7f5b1488a75a1f4778e933a",
  "strippedsize": 216,
  "size": 216,
  "weight": 864,
  "tx": [
    {
      "txid": "4c835e7d2f3796354e4884a99ff4a6d0e5d9204b95e33cef3c08f4970ab37b30",
      "hash": "4c835e7d2f3796354e4884a99ff4a6d0e5d9204b95e33cef3c08f4970ab37b30",
      "version": 1,
      "size": 135,
      "vsize": 135,
      "weight": 540,
      "locktime": 0,
      "vin": [
        {
          "coinbase": "04ffff001d02d701",
          "sequence": 4294967295
        }
      ],
      "vout": [
        {
          "value": 50.0,
          "n": 0,
          "scriptPubKey": {
            "asm": "04e68fca5dff73fb765693f14b3f66d30ec362aecb8487a31ae2d9da939092dd25dae4f2312d412592767b44e77505909f76720ed4cc25d55222c3dbc7e9bf04b1 OP_CHECKSIG",
            "desc": "pk(04e68fca5dff73fb765693f14b3f66d30ec362aecb8487a31ae2d9da939092dd25dae4f2312d412592767b44e77505909f76720ed4cc25d55222c3dbc7e9bf04b1)#9dhep4cn",
            "hex": "4104e68fca5dff73fb765693f14b3f66d30ec362aecb8487a31ae2d9da939092dd25dae4f2312d412592767b44e77505909f76720ed4cc25d55222c3dbc7e9bf04b1ac",
            "type": "pubkey"
          }
        }
      ],
      "hex": "01000000010000000000000000000000000000000000000000000000000000000000000000ffffffff0804ffff001d02d701ffffffff0100f2052a01000000434104e68fca5dff73fb765693f14b3f66d30ec362aecb8487a31ae2d9da939092dd25dae4f2312d412592767b44e77505909f76720ed4cc25d55222c3dbc7e9bf04b1ac00000000"
    }
  ]
}