{
  "hash": "00000000a8968a4b2b47660aa9ca625dbcab74bbb5f89af49bcb9148b502455b",
  "confirmations": 47447,
  "height": 5651,
  "version": 1,
  "versionHex": "00000001",
  "merkleroot": "c4f940b5721f56f6ba9250fa7dce7f86fd38f749495a4f03a7c7da1ee5d64e0d",
  "time": 1235648630,
  "mediantime": 1235643922,
  "nonce": 1151125524,
  "bits": "1d00ffff",
  "difficulty": 1,
  "chainwork": "0000000000000000000000000000000000000000000000000000161416141614",
  "nTx": 1,
  "previousblockhash": "00000000ff81be1e2f43b3e325790df946a36d8dde10f7d39cbd7ea2c4291939",
  "nextblockhash": "00000000b597abb6793895fe263735d2337b3eba34c78b6e8ccdc6efc8c078a8",
  "strippedsize": 216,
  "size": 216,
  "weight": 864,
  "tx": [
    {
      "txid": "c4f940b5721f56f6ba9250fa7dce7f86fd38f749495a4f03a7c7da1ee5d64e0d",
      "hash": "c4f940b5721f56f6ba9250fa7dce7f86fd38f749495a4f03a7c7da1ee5d64e0d",
      "version": 1,
      "size": 135,
      "vsize": 135,
      "weight": 540,
      "locktime": 0,
      "vin": [
        {
          "coinbase": "04ffff001d02b108",
          "sequence": 4294967295
        }
      ],
      "vout": [
        {
          "value": 50.0,
          "n": 0,
          "scriptPubKey": {
            "asm": "042ad0b085f106adc9e57c1f3435398cf43b851008958bb44e4d4a5f8931f7db114f31b17490a89051096e093f1a05691c92be4bd20f33aea88a7e717279d26216 OP_CHECKSIG",
            "desc": "pk(042ad0b085f106adc9e57c1f3435398cf43b851008958bb44e4d4a5f8931f7db114f31b17490a89051096e093f1a05691c92be4bd20f33aea88a7e717279d26216)#tvkmcqgy",
            "hex": "41042ad0b085f106adc9e57c1f3435398cf43b851008958bb44e4d4a5f8931f7db114f31b17490a89051096e093f1a05691c92be4bd20f33aea88a7e717279d26216ac",
            "type": "pubkey"
          }
        }
      ],
      "hex": "01000000010000000000000000000000000000000000000000000000000000000000000000ffffffff0804ffff001d02b108ffffffff0100f2052a010000004341042ad0b085f106adc9e57c1f3435398cf43b851008958bb44e4d4a5f8931f7db114f31b17490a89051096e093f1a05691c92be4bd20f33aea88a7e717279d26216ac00000000"
    }
  ]
}