{
  "hash": "00000000db89c622e0fd700f8849c5f68015ff4ae58b9be410a21da81edd1400",
  "confirmations": 52029,
  "height": 1069,
  "version": 1,
  "versionHex": "00000001",
  "merkleroot": "421b8d8a0e50d4e9ac040d6b116c46f744a777c30904528df0fe7501ffe3f64f",
  "time": 1232399994,
  "mediantime": 1232397730,
  "nonce": 3027684150,
  "bits": "1d00ffff",
  "difficulty": 1,
  "chainwork": "0000000000000000000000000000000000000000000000000000042e042e042e",
  "nTx": 1,
  "previousblockhash": "00000000205733cf2849ad94758525c1086e7f0908cd28329aab7c4d71030e79",
  "nextblockhash": "000000002eee7842ec8bd6950e8173bcc056509423a9154b504a5b37e0a1d657",
  "strippedsize": 216,
  "size": 216,
  "weight": 864,
  "tx": [
    {
      "txid": "421b8d8a0e50d4e9ac040d6b116c46f744a777c30904528df0fe7501ffe3f64f",
      "hash": "421b8d8a0e50d4e9ac040d6b116c46f744a777c30904528df0fe7501ffe3f64f",
      "version": 1,
      "size": 135,
      "vsize": 135,
      "weight": 540,
      "locktime": 0,
      "vin": [
        {
          "coinbase": "04ffff001d025406",
          "sequence": 4294967295
        }
      ],
      "vout": [
        {
          "value": 50.0,
          "n": 0,
          "scriptPubKey": {
            "asm": "048fa9c7abe4b8af109e4c1270581fb49a1e04b57c9b3b81820742ea1b6f56cae0c9290488e4b29cfca0f4840fd820a4691cef35fc84b854b368cdc2c531a12409 OP_CHECKSIG",
            "desc": "pk(048fa9c7abe4b8af109e4c1270581fb49a1e04b57c9b3b81820742ea1b6f56cae0c9290488e4b29cfca0f4840fd820a4691cef35fc84b854b368cdc2c531a12409)#wkhdf28p",
            "hex": "41048fa9c7abe4b8af109e4c1270581fb49a1e04b57c9b3b81820742ea1b6f56cae0c9290488e4b29cfca0f4840fd820a4691cef35fc84b854b368cdc2c531a12409ac",
            "type": "pubkey"
          }
        }
      ],
      "hex": "01000000010000000000000000000000000000000000000000000000000000000000000000ffffffff0804ffff001d025406ffffffff0100f2052a010000004341048fa9c7abe4b8af109e4c1270581fb49a1e04b57c9b3b81820742ea1b6f56cae0c9290488e4b29cfca0f4840fd820a4691cef35fc84b854b368cdc2c531a12409ac00000000"
    }
  ]
}