{
  "hash": "000000003c03dd141b4192065af0a504c78504c0fdf4998321c884982de35ac1",
  "confirmations": 50410,
  "height": 2688,
  "version": 1,
  "versionHex": "00000001",
  "merkleroot": "5e912030094851c0e49813724d06a292c7f81ab76145502af3c6c14cd3defd00",
  "time": 1233554263,
  "mediantime": 1233552172,
  "nonce": 278086399,
  "bits": "1d00ffff",
  "difficulty": 1,
  "chainwork": "00000000000000000000000000000000000000000000000000000a810a810a81",
  "nTx": 1,
  "previousblockhash": "000000000d8cf4669b79f98d128eba46ec24405e572b576dae32284b269dfaa7",
  "nextblockhash": "00000000d764cad472fd749956c02ee590068f3c97a40dc251f728e39459ea14",
  "strippedsize": 216,
  "size": 216,
  "weight": 864,
  "tx": [
    {
      "txid": "5e912030094851c0e49813724d06a292c7f81ab76145502af3c6c14cd3defd00",
      "hash": "5e912030094851c0e49813724d06a292c7f81ab76145502af3c6c14cd3defd00",
      "version": 1,
      "size": 135,
      "vsize": 135,
      "weight": 540,
      "locktime": 0,
      "vin": [
        {
          "coinbase": "04ffff001d02fb02",
          "sequence": 4294967295
        }
      ],
      "vout": [
        {
          "value": 50.0,
          "n": 0,
          "scriptPubKey": {
            "asm": "047a2292a4e5ae37b0562250569b45e9675acc56cbdcb2a76d84f751d097307d689d2e10a540ad81a8fe2cb7ea2b7a50deedf480017812ba5a7f208652efd4c574 OP_CHECKSIG",
            "desc": "pk(047a2292a4e5ae37b0562250569b45e9675acc56cbdcb2a76d84f751d097307d689d2e10a540ad81a8fe2cb7ea2b7a50deedf480017812ba5a7f208652efd4c574)#67n7ekq7",
            "hex": "41047a2292a4e5ae37b0562250569b45e9675acc56cbdcb2a76d84f751d097307d689d2e10a540ad81a8fe2cb7ea2b7a50deedf480017812ba5a7f208652efd4c574ac",
            "type": "pubkey"
          }
        }
      ],
      "hex": "01000000010000000000000000000000000000000000000000000000000000000000000000ffffffff0804ffff001d02fb02ffffffff0100f2052a010000004341047a2292a4e5ae37b0562250569b45e9675acc56cbdcb2a76d84f751d097307d689d2e10a540ad81a8fe2cb7ea2b7a50deedf480017812ba5a7f208652efd4c574ac00000000"
    }
  ]
}