{
  "hash": "00000000543f619afa8d04536090c732999ae11913c11d7192208177faec7321",
  "confirmations": 44057,
  "height": 9041,
  "version": 1,
  "versionHex": "00000001",
  "merkleroot": "1f4751bb44a2b68e17225bef1c455a504caba09e5c4df07890e575eab971bbeb",
  "time": 1238283120,
  "mediantime": 1238278245,
  "nonce": 2108035380,
  "bits": "1d00ffff",
  "difficulty": 1,
  "chainwork": "0000000000000000000000000000000000000000000000000000235223522352",
  "nTx": 1,
  "previousblockhash": "00000000708e3b444d261f2563f04f1c4e7ea53f7b4315386f25b73c06e6f104",
  "nextblockhash": "00000000723dc61eff2d9e4fa6f20fc298a012c52f8ab76a139a796e2c7a52fa",
  "strippedsize": 216,
  "size": 216,
  "weight": 864,
  "tx": [
    {
      "txid": "1f4751bb44a2b68e17225bef1c455a504caba09e5c4df07890e575eab971bbeb",
      "hash": "1f4751bb44a2b68e17225bef1c455a504caba09e5c4df07890e575eab971bbeb",
      "version": 1,
      "size": 135,
      "vsize": 135,
      "weight": 540,
      "locktime": 0,
      "vin": [
        {
          "coinbase": "04ffff001d022307",
          "sequence": 4294967295
        }
      ],
      "vout": [
        {
          "value": 50.0,
          "n": 0,
          "scriptPubKey": {
            "asm": "045c7cb198cde500ef63a8f634f708febee1e33af0055617d7d13062fc8d5aefa637c7391483d5f111100155e1e259ce88fd7753398cda199232b8ee2cced3f44a OP_CHECKSIG",
            "desc": "pk(045c7cb198cde500ef63a8f634f708febee1e33af0055617d7d13062fc8d5aefa637c7391483d5f111100155e1e259ce88fd7753398cda199232b8ee2cced3f44a)#zvhd0lzr",
            "hex": "41045c7cb198cde500ef63a8f634f708febee1e33af0055617d7d13062fc8d5aefa637c7391483d5f111100155e1e259ce88fd7753398cda199232b8ee2cced3f44aac",
            "type": "pubkey"
          }
        }
      ],
      "hex": "01000000010000000000000000000000000000000000000000000000000000000000000000ffffffff0804ffff001d022307ffffffff0100f2052a010000004341045c7cb198cde500ef63a8f634f708febee1e33af0055617d7d13062fc8d5aefa637c7391483d5f111100155e1e259ce88fd7753398cda199232b8ee2cced3f44aac00000000"
    }
  ]
}