{
  "hash": "0000000032a670c80014c92a1eeb8df33d40ce8f210637a77be6ba7420fba919",
  "confirmations": 45976,
  "height": 7122,
  "version": 1,
  "versionHex": "00000001",
  "merkleroot": "3aeef53456d4945602a7a4a6af71b3ba2c2bfb709a3321260e5b058fdf7e1837",
  "time": 1236812496,
  "mediantime": 1236810203,
  "nonce": 2060185607,
  "bits": "1d00ffff",
  "difficulty": 1,
  "chainwork": "00000000000000000000000000000000000000000000000000001bd31bd31bd3",
  "nTx": 1,
  "previousblockhash": "0000000035b519782a3ea1d45ff93ff00d5df251cbf9c6f424d76499c111f67d",
  "nextblockhash": "00000000405b229075e2387c98d634269db3a4bbd970069a9a8bde25c510760a",
  "strippedsize": 216,
  "size": 216,
  "weight": 864,
  "tx": [
    {
      "txid": "3aeef53456d4945602a7a4a6af71b3ba2c2bfb709a3321260e5b058fdf7e1837",
      "hash": "3aeef53456d4945602a7a4a6af71b3ba2c2bfb709a3321260e5b058fdf7e1837",
      "version": 1,
      "size": 135,
      "vsize": 135,
      "weight": 540,
      "locktime": 0,
      "vin": [
        {
          "coinbase": "04ffff001d024304",
          "sequence": 4294967295
        }
      ],
      "vout": [
        {
          "value": 50.0,
          "n": 0,
          "scriptPubKey": {
            "asm": "047f24259ee5daa4373cc4c10dfcbf60286f23a2c4ca1624fee281166402748102f1d2834d0ac913bf2827300c65f1b97af87eaa4db0a229c6387db72bbabce7f2 OP_CHECKSIG",
            "desc": "pk(047f24259ee5daa4373cc4c10dfcbf60286f23a2c4ca1624fee281166402748102f1d2834d0ac913bf2827300c65f1b97af87eaa4db0a229c6387db72bbabce7f2)#fhv64xwx",
            "hex": "41047f24259ee5daa4373cc4c10dfcbf60286f23a2c4ca1624fee281166402748102f1d2834d0ac913bf2827300c65f1b97af87eaa4db0a229c6387db72bbabce7f2ac",
            "type": "pubkey"
          }
        }
      ],
      "hex": "01000000010000000000000000000000000000000000000000000000000000000000000000ffffffff0804ffff001d024304ffffffff0100f2052a010000004341047f24259ee5daa4373cc4c10dfcbf60286f23a2c4ca1624fee281166402748102f1d2834d0ac913bf2827300c65f1b97af87eaa4db0a229c6387db72bbabce7f2ac00000000"
    }
  ]
}