{
  "hash": "000000006ec9015f567e367b1a1537e5313a6c78c9f59277fda0e9a3321589cb",
  "confirmations": 48114,
  "height": 4984,
  "version": 1,
  "versionHex": "00000001",
  "merkleroot": "93adecf14dfb59eb6844d59863638eeddb3ed4f45296167d97326b0f5014afd9",
  "time": 1235129952,
  "mediantime": 1235125987,
  "nonce": 157996340,
  "bits": "1d00ffff",
  "difficulty": 1,
  "chainwork": "0000000000000000000000000000000000000000000000000000137913791379",
  "nTx": 1,
  "previousblockhash": "000000002b61d0523ea9c80c7f522aa6fb117ed93f3d2c6aea011267a2c1d973",
  "nextblockhash": "00000000842f1233d4040d4b2001215b1a5c7f0ee5b64074b903c9b65464839a",
  "strippedsize": 216,
  "size": 216,
  "weight": 864,
  "tx": [
    {
      "txid": "93adecf14dfb59eb6844d59863638eeddb3ed4f45296167d97326b0f5014afd9",
      "hash": "93adecf14dfb59eb6844d59863638eeddb3ed4f45296167d97326b0f5014afd9",
      "version": 1,
      "size": 135,
      "vsize": 135,
      "weight": 540,
      "locktime": 0,
      "vin": [
        {
          "coinbase": "04ffff001d02110c",
          "sequence": 4294967295
        }
      ],
      "vout": [
        {
          "value": 50.0,
          "n": 0,
          "scriptPubKey": {
            "asm": "04fdbbc5c1a310cbfd38abea27ec5e4f24cc27bef53f8843bd66237e59caf032f426c75be91a479e79de068a45f6aee4605b2afe1330dcab0fa68b43daa94b4aa4 OP_CHECKSIG",
            "desc": "pk(04fdbbc5c1a310cbfd38abea27ec5e4f24cc27bef53f8843bd66237e59caf032f426c75be91a479e79de068a45f6aee4605b2afe1330dcab0fa68b43daa94b4aa4)#p7mmt85f",
            "hex": "4104fdbbc5c1a310cbfd38abea27ec5e4f24cc27bef53f8843bd66237e59caf032f426c75be91a479e79de068a45f6aee4605b2afe1330dcab0fa68b43daa94b4aa4ac",
            "type": "pubkey"
          }
        }
      ],
      "hex": "01000000010000000000000000000000000000000000000000000000000000000000000000ffffffff0804ffff001d02110cffffffff0100f2052a01000000434104fdbbc5c1a310cbfd38abea27ec5e4f24cc27bef53f8843bd66237e59caf032f426c75be91a479e79de068a45f6aee4605b2afe1330dcab0fa68b43daa94b4aa4ac00000000"
    }
  ]
}