{
  "hash": "00000000654662ec8d93db4fcfc8d006e71113de5a3275087bdb592984864c24",
  "confirmations": 45168,
  "height": 7930,
  "version": 1,
  "versionHex": "00000001",
  "merkleroot": "3c93370be2ba35373390cedd2a5b49da312d12de72582d231e1d467370e8e353",
  "time": 1237414506,
  "mediantime": 1237410756,
  "nonce": 4982672,
  "bits": "1d00ffff",
  "difficulty": 1,
  "chainwork": "00000000000000000000000000000000000000000000000000001efb1efb1efb",
  "nTx": 1,
  "previousblockhash": "000000000390cdbe7dd9d5a9d7370c89d554be94d987e18b361f80836081f1d4",
  "nextblockhash": "00000000c5f0a54f70b48b274672069a0732eb43d21b501e313b318ea8bafbf1",
  "strippedsize": 216,
  "size": 216,
  "weight": 864,
  "tx": [
    {
      "txid": "3c93370be2ba35373390cedd2a5b49da312d12de72582d231e1d467370e8e353",
      "hash": "3c93370be2ba35373390cedd2a5b49da312d12de72582d231e1d467370e8e353",
      "version": 1,
      "size": 135,
      "vsize": 135,
      "weight": 540,
      "locktime": 0,
      "vin": [
        {
          "coinbase": "04ffff001d020901",
          "sequence": 4294967295
        }
      ],
      "vout": [
        {
          "value": 50.0,
          "n": 0,
          "scriptPubKey": {
            "asm": "04dd897043daa0cff481b2078a3d56c607ea926147793495606de4abb99c8a12192d9540b4afc0376588de4b58ad8539ee36498ce64547a0af71ccfdd9a0143c50 OP_CHECKSIG",
            "desc": "pk(04dd897043daa0cff481b2078a3d56c607ea926147793495606de4abb99c8a12192d9540b4afc0376588de4b58ad8539ee36498ce64547a0af71ccfdd9a0143c50)#pg30cew5",
            "hex": "4104dd897043daa0cff481b2078a3d56c607ea926147793495606de4abb99c8a12192d9540b4afc0376588de4b58ad8539ee36498ce64547a0af71ccfdd9a0143c50ac",
            "type": "pubkey"
          }
        }
      ],
      "hex": "01000000010000000000000000000000000000000000000000000000000000000000000000ffffffff0804ffff001d020901ffffffff0100f2052a01000000434104dd897043daa0cff481b2078a3d56c607ea926147793495606de4abb99c8a12192d9540b4afc0376588de4b58ad8539ee36498ce64547a0af71ccfdd9a0143c50ac00000000"
    }
  ]
}