{
  "hash": "00000000abe4c28ece0280696df0b1800409d4d5e212c3d5a1f21f3549abf0b9",
  "confirmations": 47873,
  "height": 5225,
  "version": 1,
  "versionHex": "00000001",
  "merkleroot": "dfe5fa05f8e440850d6cf56a8a29a4356002da789cd88d9cf7aa4ec9d9dc9757",
  "time": 1235305236,
  "mediantime": 1235300472,
  "nonce": 1194048546,
  "bits": "1d00ffff",
  "difficulty": 1,
  "chainwork": "0000000000000000000000000000000000000000000000000000146a146a146a",
  "nTx": 1,
  "previousblockhash": "0000000096a80b51b920852ee9dfc4e721a46d10622c0fc41aebba16928e13e7",
  "nextblockhash": "00000000894026d9592927a8801cc0205481186c66c9b5798e0b052c3951940c",
  "strippedsize": 216,
  "size": 216,
  "weight": 864,
  "tx": [
    {
      "txid": "dfe5fa05f8e440850d6cf56a8a29a4356002da789cd88d9cf7aa4ec9d9dc9757",
      "hash": "dfe5fa05f8e440850d6cf56a8a29a4356002da789cd88d9cf7aa4ec9d9dc9757",
      "version": 1,
      "size": 135,
      "vsize": 135,
      "weight": 540,
      "locktime": 0,
      "vin": [
        {
          "coinbase": "04ffff001d02e200",
          "sequence": 4294967295
        }
      ],
      "vout": [
        {
          "value": 50.0,
          "n": 0,
          "scriptPubKey": {
            "asm": "0475e7331189de990d6fac1022f934fbcb4a5fee29dbfb7260212d55651587caed9210383096dda32d7d2bb9bdb1f440e2186f27347696995f097f5ec1c01eb03a OP_CHECKSIG",
            "desc": "pk(0475e7331189de990d6fac1022f934fbcb4a5fee29dbfb7260212d55651587caed9210383096dda32d7d2bb9bdb1f440e2186f27347696995f097f5ec1c01eb03a)#6kv8pywk",
            "hex": "410475e7331189de990d6fac1022f934fbcb4a5fee29dbfb7260212d55651587caed9210383096dda32d7d2bb9bdb1f440e2186f27347696995f097f5ec1c01eb03aac",
            "type": "pubkey"
          }
        }
      ],
      "hex": "01000000010000000000000000000000000000000000000000000000000000000000000000ffffffff0804ffff001d02e200ffffffff0100f2052a0100000043410475e7331189de990d6fac1022f934fbcb4a5fee29dbfb7260212d55651587caed9210383096dda32d7d2bb9bdb1f440e2186f27347696995f097f5ec1c01eb03aac00000000"
    }
  ]
}