{
  "hash": "00000000bb38c0320408e87cc0f84b8545273e48dd7e0c19aa50abe7c1818b81",
  "confirmations": 46364,
  "height": 6734,
  "version": 1,
  "versionHex": "00000001",
  "merkleroot": "16c25c3d2bb6076b4582ad279f74791c24dcdb8b7dab8e59103f54e3c8136c4d",
  "time": 1236507308,
  "mediantime": 1236502731,
  "nonce": 1387967288,
  "bits": "1d00ffff",
  "difficulty": 1,
  "chainwork": "00000000000000000000000000000000000000000000000000001a4f1a4f1a4f",
  "nTx": 1,
  "previousblockhash": "00000000d1c1ea2f48c97ee9c31d533e604a65e1d32b00167cde4bfe39a7b714",
  "nextblockhash": "00000000956edbf0b401da41c2bd35d0e45e50bb07658d35a77600829032cc9f",
  "strippedsize": 216,
  "size": 216,
  "weight": 864,
  "tx": [
    {
      "txid": "16c25c3d2bb6076b4582ad279f74791c24dcdb8b7dab8e59103f54e3c8136c4d",
      "hash": "16c25c3d2bb6076b4582ad279f74791c24dcdb8b7dab8e59103f54e3c8136c4d",
      "version": 1,
      "size": 135,
      "vsize": 135,
      "weight": 540,
      "locktime": 0,
      "vin": [
        {
          "coinbase": "04ffff001d02c207",
          "sequence": 4294967295
        }
      ],
      "vout": [
        {
          "value": 50.0,
          "n": 0,
          "scriptPubKey": {
            "asm": "04e4e1b2f3c950d56b3109bc53fa5ed27bec2eb5b7312f7296f85a07b59467a0274f245e687fc7d17fbecb9266cac4230130b70f7c80015c1e46fd6b92f46805d3 OP_CHECKSIG",
            "desc": "pk(04e4e1b2f3c950d56b3109bc53fa5ed27bec2eb5b7312f7296f85a07b59467a0274f245e687fc7d17fbecb9266cac4230130b70f7c80015c1e46fd6b92f46805d3)#7dwucgpa",
            "hex": "4104e4e1b2f3c950d56b3109bc53fa5ed27bec2eb5b7312f7296f85a07b59467a0274f245e687fc7d17fbecb9266cac4230130b70f7c80015c1e46fd6b92f46805d3ac",
            "type": "pubkey"
          }
        }
      ],
      "hex": "01000000010000000000000000000000000000000000000000000000000000000000000000ffffffff0804ffff001d02c207ffffffff0100f2052a01000000434104e4e1b2f3c950d56b3109bc53fa5ed27bec2eb5b7312f7296f85a07b59467a0274f245e687fc7d17fbecb9266cac4230130b70f7c80015c1e46fd6b92f46805d3ac00000000"
    }
  ]
}