{
  "hash": "0000000094fac7c1faa819b126571e587e533558930772bf31d86f69cfb744c2",
  "confirmations": 51615,
  "height": 1483,
  "version": 1,
  "versionHex": "00000001",
  "merkleroot": "bf30ceb0e7f96811f0ea452a5af952b079b09a812d02be6e5d09c63fa2a6d8a5",
  "time": 1232760541,
  "mediantime": 1232758586,
  "nonce": 2232507446,
  "bits": "1d00ffff",
  "difficulty": 1,
  "chainwork": "000000000000000000000000000000000000000000000000000005cc05cc05cc",
  "nTx": 1,
  "previousblockhash": "00000000fa1547e48cef5ec9988b7c847805dffe71d3c282392c72835e4f8300",
  "nextblockhash": "0000000068026e7e0c455f0f390b250a71ecf8b8911fe50c86b0e4a37cdcf13f",
  "strippedsize": 216,
  "size": 216,
  "weight": 864,
  "tx": [
    {
      "txid": "bf30ceb0e7f96811f0ea452a5af952b079b09a812d02be6e5d09c63fa2a6d8a5",
      "hash": "bf30ceb0e7f96811f0ea452a5af952b079b09a812d02be6e5d09c63fa2a6d8a5",
      "version": 1,
      "size": 135,
      "vsize": 135,
      "weight": 540,
      "locktime": 0,
      "vin": [
        {
          "coinbase": "04ffff001d020301",
          "sequence": 4294967295
        }
      ],
      "vout": [
        {
          "value": 50.0,
          "n": 0,
          "scriptPubKey": {
            "asm": "040ac0645499b6e7491d7b1eeaeab4858b687b7c651206f3c4356b5bc08de79e9838e64968dd7180c7a1ac5210d35e728f205de443a6ffe90c38e8b295f345de85 OP_CHECKSIG",
            "desc": "pk(040ac0645499b6e7491d7b1eeaeab4858b687b7c651206f3c4356b5bc08de79e9838e64968dd7180c7a1ac5210d35e728f205de443a6ffe90c38e8b295f345de85)#98g7jg6u",
            "hex": "41040ac0645499b6e7491d7b1eeaeab4858b687b7c651206f3c4356b5bc08de79e9838e64968dd7180c7a1ac5210d35e728f205de443a6ffe90c38e8b295f345de85ac",
            "type": "pubkey"
          }
        }
      ],
      "hex": "01000000010000000000000000000000000000000000000000000000000000000000000000ffffffff0804ffff001d020301ffffffff0100f2052a010000004341040ac0645499b6e7491d7b1eeaeab4858b687b7c651206f3c4356b5bc08de79e9838e64968dd7180c7a1ac5210d35e728f205de443a6ffe90c38e8b295f345de85ac00000000"
    }
  ]
}