{
  "hash": "000000004b43bb912032a4074a99e0b158d622198e140235950f9d0b732a37d6",
  "confirmations": 45112,
  "height": 7986,
  "version": 1,
  "versionHex": "00000001",
  "merkleroot": "2a02360ab735ef9408d7ab5777554b09444664d713e15414833de60cb438c6cc",
  "time": 1237452527,
  "mediantime": 1237448211,
  "nonce": 5446949,
  "bits": "1d00ffff",
  "difficulty": 1,
  "chainwork": "00000000000000000000000000000000000000000000000000001f331f331f33",
  "nTx": 1,
  "previousblockhash": "000000006720156f198eb201126c4647d59513bf77b49d069afe3c2964ecddf4",
  "nextblockhash": "00000000c6c7c842a63fa9d27b2553e894ef7471bc3f05778b3cd73b2d5d3bcb",
  "strippedsize": 216,
  "size": 216,
  "weight": 864,
  "tx": [
    {
      "txid": "2a02360ab735ef9408d7ab5777554b09444664d713e15414833de60cb438c6cc",
      "hash": "2a02360ab735ef9408d7ab5777554b09444664d713e15414833de60cb438c6cc",
      "version": 1,
      "size": 135,
      "vsize": 135,
      "weight": 540,
      "locktime": 0,
      "vin": [
        {
          "coinbase": "04ffff001d022b09",
          "sequence": 4294967295
        }
      ],
      "vout": [
        {
          "value": 50.0,
          "n": 0,
          "scriptPubKey": {
            "asm": "049b7e0817479f19a009d82ccd647ebc31bf1aeaa4761aa3c77429c163244ebff461390c83737e34a1741cb0c350d8dcd971c6281c3d65f915f9a95b0e148a37bd OP_CHECKSIG",
            "desc": "pk(049b7e0817479f19a009d82ccd647ebc31bf1aeaa4761aa3c77429c163244ebff461390c83737e34a1741cb0c350d8dcd971c6281c3d65f915f9a95b0e148a37bd)#pps6w9z6",
            "hex": "41049b7e0817479f19a009d82ccd647ebc31bf1aeaa4761aa3c77429c163244ebff461390c83737e34a1741cb0c350d8dcd971c6281c3d65f915f9a95b0e148a37bdac",
            "type": "pubkey"
          }
        }
      ],
      "hex": "01000000010000000000000000000000000000000000000000000000000000000000000000ffffffff0804ffff001d022b09ffffffff0100f2052a010000004341049b7e0817479f19a009d82ccd647ebc31bf1aeaa4761aa3c77429c163244ebff461390c83737e34a1741cb0c350d8dcd971c6281c3d65f915f9a95b0e148a37bdac00000000"
    }
  ]
}