{
  "hash": "00000000a2baef5673b156e0b40eef0240a785f4967afda70904d9e6f86db133",
  "confirmations": 48589,
  "height": 4509,
  "version": 1,
  "versionHex": "00000001",
  "merkleroot": "67acaad9c356e43d95c03d8ce9a8cf09adef75fc739fed5c177f5d8f37765892",
  "time": 1234787200,
  "mediantime": 1234783431,
  "nonce": 1185178425,
  "bits": "1d00ffff",
  "difficulty": 1,
  "chainwork": "0000000000000000000000000000000000000000000000000000119e119e119e",
  "nTx": 1,
  "previousblockhash": "00000000444560afc442ce62c314235ab271c0c35de2af1ed70e9a63d7e5700a",
  "nextblockhash": "00000000023347e389e1cb6ff259a372a9a225d16a4c9f1be38407b2df59f1a6",
  "strippedsize": 216,
  "size": 216,
  "weight": 864,
  "tx": [
    {
      "txid": "67acaad9c356e43d95c03d8ce9a8cf09adef75fc739fed5c177f5d8f37765892",
      "hash": "67acaad9c356e43d95c03d8ce9a8cf09adef75fc739fed5c177f5d8f37765892",
      "version": 1,
      "size": 135,
      "vsize": 135,
      "weight": 540,
      "locktime": 0,
      "vin": [
        {
          "coinbase": "04ffff001d02f102",
          "sequence": 4294967295
        }
      ],
      "vout": [
        {
          "value": 50.0,
          "n": 0,
          "scriptPubKey": {
            "asm": "04f8d1537654b40f96a2ae6e801a3351d1b838bbac35275aa2e8315d2b655ab10e365efb6f197b617fdb30c60f034a7db26f0afc027dfb9f6351b91716a51bf5d8 OP_CHECKSIG",
            "desc": "pk(04f8d1537654b40f96a2ae6e801a3351d1b838bbac35275aa2e8315d2b655ab10e365efb6f197b617fdb30c60f034a7db26f0afc027dfb9f6351b91716a51bf5d8)#kkcewfhl",
            "hex": "4104f8d1537654b40f96a2ae6e801a3351d1b838bbac35275aa2e8315d2b655ab10e365efb6f197b617fdb30c60f034a7db26f0afc027dfb9f6351b91716a51bf5d8ac",
            "type": "pubkey"
          }
        }
      ],
      "hex": "01000000010000000000000000000000000000000000000000000000000000000000000000ffffffff0804ffff001d02f102ffffffff0100f2052a01000000434104f8d1537654b40f96a2ae6e801a3351d1b838bbac35275aa2e8315d2b655ab10e365efb6f197b617fdb30c60f034a7db26f0afc027dfb9f6351b91716a51bf5d8ac00000000"
    }
  ]
}