{
  "hash": "0000000095680bb7be29ad8e6838ccb3eb3af464b813ccf31b4ea717fcc93ee7",
  "confirmations": 52035,
  "height": 194,
  "version": 1,
  "versionHex": "00000001",
  "merkleroot": "a7edd1f5436d5867b26cbf0bff7663329198b1d4ab41beb8a3b9b36836dd1429",
  "time": 1231747844,
  "mediantime": 1231745189,
  "nonce": 2193620277,
  "bits": "1d00ffff",
  "difficulty": 1,
  "chainwork": "000000000000000000000000000000000000000000000000000000c300c300c3",
  "nTx": 1,
  "previousblockhash": "00000000833cccbec543914a96b4994669205444c85d9e4f5268d808910b9696",
  "nextblockhash": "0000000068b997ae9d5c9c63ecf643bb4cff3c4e4cf765ec2479ecd8b1cfc8fe",
  "strippedsize": 215,
  "size": 215,
  "weight": 860,
  "tx": [
    {
      "txid": "a7edd1f5436d5867b26cbf0bff7663329198b1d4ab41beb8a3b9b36836dd1429",
      "hash": "a7edd1f5436d5867b26cbf0bff7663329198b1d4ab41beb8a3b9b36836dd1429",
      "version": 1,
      "size": 134,
      "vsize": 134,
      "weight": 536,
      "locktime": 0,
      "vin": [
        {
          "coinbase": "04ffff001d0111",
          "sequence": 4294967295
        }
      ],
      "vout": [
        {
          "value": 50.0,
          "n": 0,
          "scriptPubKey": {
            "asm": "0436a50bc64a0d10e2f7cbdac937aa2b5c01b4d275026b1cd95d71960a3fb95599155e43fb7e27ca3ac3b9c423be8e8a3aa1ab81873d15819e0d1fa8dbacde24c1 OP_CHECKSIG",
            "desc": "pk(0436a50bc64a0d10e2f7cbdac937aa2b5c01b4d275026b1cd95d71960a3fb95599155e43fb7e27ca3ac3b9c423be8e8a3aa1ab81873d15819e0d1fa8dbacde24c1)#x448v00r",
            "hex": "410436a50bc64a0d10e2f7cbdac937aa2b5c01b4d275026b1cd95d71960a3fb95599155e43fb7e27ca3ac3b9c423be8e8a3aa1ab81873d15819e0d1fa8dbacde24c1ac",
            "type": "pubkey"
          }
        }
      ],
      "hex": "01000000010000000000000000000000000000000000000000000000000000000000000000ffffffff0704ffff001d0111ffffffff0100f2052a0100000043410436a50bc64a0d10e2f7cbdac937aa2b5c01b4d275026b1cd95d71960a3fb95599155e43fb7e27ca3ac3b9c423be8e8a3aa1ab81873d15819e0d1fa8dbacde24c1ac00000000"
    }
  ]
}