{
  "hash": "0000000020f954057fcc0743b5d1d09c5fc2d9a0bab4f26eba7444b809e4807a",
  "confirmations": 51713,
  "height": 1385,
  "version": 1,
  "versionHex": "00000001",
  "merkleroot": "c390d571ea0f03c56c7dbc0ba1eabeadaed3102f12196b479f612e162489ef04",
  "time": 1232668039,
  "mediantime": 1232666052,
  "nonce": 5865955,
  "bits": "1d00ffff",
  "difficulty": 1,
  "chainwork": "0000000000000000000000000000000000000000000000000000056a056a056a",
  "nTx": 1,
  "previousblockhash": "00000000e82ac6f00d6a2e639b98e920162c994aa90814bf38627100d3e9ddf0",
  "nextblockhash": "00000000ad99090dce514a009fb4fe0dedb178027e7dc15eadf765d8f69dbe75",
  "strippedsize": 215,
  "size": 215,
  "weight": 860,
  "tx": [
    {
      "txid": "c390d571ea0f03c56c7dbc0ba1eabeadaed3102f12196b479f612e162489ef04",
      "hash": "c390d571ea0f03c56c7dbc0ba1eabeadaed3102f12196b479f612e162489ef04",
      "version": 1,
      "size": 134,
      "vsize": 134,
      "weight": 536,
      "locktime": 0,
      "vin": [
        {
          "coinbase": "04ffff001d0110",
          "sequence": 4294967295
        }
      ],
      "vout": [
        {
          "value": 50.0,
          "n": 0,
          "scriptPubKey": {
            "asm": "0497da7077fe4516299c7ef1d2b30f553c6fc40fe3ab10c66a00747334e19962aa98c436ecce0b334a37247995d65ca75e4548231f6c3864a67cba380ec747eb30 OP_CHECKSIG",
            "desc": "pk(0497da7077fe4516299c7ef1d2b30f553c6fc40fe3ab10c66a00747334e19962aa98c436ecce0b334a37247995d65ca75e4548231f6c3864a67cba380ec747eb30)#lwz9rwz3",
            "hex": "410497da7077fe4516299c7ef1d2b30f553c6fc40fe3ab10c66a00747334e19962aa98c436ecce0b334a37247995d65ca75e4548231f6c3864a67cba380ec747eb30ac",
            "type": "pubkey"
          }
        }
      ],
      "hex": "01000000010000000000000000000000000000000000000000000000000000000000000000ffffffff0704ffff001d0110ffffffff0100f2052a0100000043410497da7077fe4516299c7ef1d2b30f553c6fc40fe3ab10c66a00747334e19962aa98c436ecce0b334a37247995d65ca75e4548231f6c3864a67cba380ec747eb30ac00000000"
    }
  ]
}