{
  "hash": "000000003d891b202ff24d720a7c5d42b0a97adef664620f00a702213d3fc9de",
  "confirmations": 45892,
  "height": 7206,
  "version": 1,
  "versionHex": "00000001",
  "merkleroot": "087feb6925bd5268770ba8ff28f8ecb949d1137e1aa965178c84f90df936cbd8",
  "time": 1236874499,
  "mediantime": 1236871284,
  "nonce": 35310650,
  "bits": "1d00ffff",
  "difficulty": 1,
  "chainwork": "00000000000000000000000000000000000000000000000000001c271c271c27",
  "nTx": 1,
  "previousblockhash": "00000000b7f9d7ca3c044228c6f279f79f326ca0c8bab40a8051264a98e0357d",
  "nextblockhash": "000000001d6312ccb7e8ec10155832e2215e33c0fc8f2175fb3e1ca6e3467017",
  "strippedsize": 216,
  "size": 216,
  "weight": 864,
  "tx": [
    {
      "txid": "087feb6925bd5268770ba8ff28f8ecb949d1137e1aa965178c84f90df936cbd8",
      "hash": "087feb6925bd5268770ba8ff28f8ecb949d1137e1aa965178c84f90df936cbd8",
      "version": 1,
      "size": 135,
      "vsize": 135,
      "weight": 540,
      "locktime": 0,
      "vin": [
        {
          "coinbase": "04ffff001d028900",
          "sequence": 4294967295
        }
      ],
      "vout": [
        {
          "value": 50.0,
          "n": 0,
          "scriptPubKey": {
            "asm": "04a679cdf55b8f57fa24671ff1cd5c92d3d3419736809af24763c462f87646b0faeb7d527a87eb3c106c301a27c44a347315dc63bef79c70b66d22501c06d57eaf OP_CHECKSIG",
            "desc": "pk(04a679cdf55b8f57fa24671ff1cd5c92d3d3419736809af24763c462f87646b0faeb7d527a87eb3c106c301a27c44a347315dc63bef79c70b66d22501c06d57eaf)#lh70x748",
            "hex": "4104a679cdf55b8f57fa24671ff1cd5c92d3d3419736809af24763c462f87646b0faeb7d527a87eb3c106c301a27c44a347315dc63bef79c70b66d22501c06d57eafac",
            "type": "pubkey"
          }
        }
      ],
      "hex": "01000000010000000000000000000000000000000000000000000000000000000000000000ffffffff0804ffff001d028900ffffffff0100f2052a01000000434104a679cdf55b8f57fa24671ff1cd5c92d3d3419736809af24763c462f87646b0faeb7d527a87eb3c106c301a27c44a347315dc63bef79c70b66d22501c06d57eafac00000000"
    }
  ]
}