{
  "hash": "00000000e36bfca3bfca06cc29b3cbc3999c7f9a91eaa3513befa74e4f9e8725",
  "confirmations": 48223,
  "height": 4875,
  "version": 1,
  "versionHex": "00000001",
  "merkleroot": "c133e6adce49fded2794d5a9d6cd4aea7187d90a7bea4264bb449bb250c4337a",
  "time": 1235054917,
  "mediantime": 1235051097,
  "nonce": 2150418488,
  "bits": "1d00ffff",
  "difficulty": 1,
  "chainwork": "0000000000000000000000000000000000000000000000000000130c130c130c",
  "nTx": 1,
  "previousblockhash": "00000000c2654030ad4c1f6875560ce2d67e0692f39077027683b45a527c8c80",
  "nextblockhash": "00000000819994c054cc1edce2edef7a2fecc0142578699d2e7c20ec57062d0e",
  "strippedsize": 216,
  "size": 216,
  "weight": 864,
  "tx": [
    {
      "txid": "c133e6adce49fded2794d5a9d6cd4aea7187d90a7bea4264bb449bb250c4337a",
      "hash": "c133e6adce49fded2794d5a9d6cd4aea7187d90a7bea4264bb449bb250c4337a",
      "version": 1,
      "size": 135,
      "vsize": 135,
      "weight": 540,
      "locktime": 0,
      "vin": [
        {
          "coinbase": "04ffff001d026405",
          "sequence": 4294967295
        }
      ],
      "vout": [
        {
          "value": 50.0,
          "n": 0,
          "scriptPubKey": {
            "asm": "04b4fe98a6e196439d33c3e5e87d21991290e5b30d481048f2e2fa7b1d6652c18bef232b605c046cc33d8a35f3d4a346f31a24e380df65e6c5d465e3fba681366d OP_CHECKSIG",
            "desc": "pk(04b4fe98a6e196439d33c3e5e87d21991290e5b30d481048f2e2fa7b1d6652c18bef232b605c046cc33d8a35f3d4a346f31a24e380df65e6c5d465e3fba681366d)#55ltdzd6",
            "hex": "4104b4fe98a6e196439d33c3e5e87d21991290e5b30d481048f2e2fa7b1d6652c18bef232b605c046cc33d8a35f3d4a346f31a24e380df65e6c5d465e3fba681366dac",
            "type": "pubkey"
          }
        }
      ],
      "hex": "01000000010000000000000000000000000000000000000000000000000000000000000000ffffffff0804ffff001d026405ffffffff0100f2052a01000000434104b4fe98a6e196439d33c3e5e87d21991290e5b30d481048f2e2fa7b1d6652c18bef232b605c046cc33d8a35f3d4a346f31a24e380df65e6c5d465e3fba681366dac00000000"
    }
  ]
}