{
  "hash": "00000000f2a17654fc79013aaaa16119685509933ead0c4a986dcf5c4fbc885b",
  "confirmations": 43316,
  "height": 9782,
  "version": 1,
  "versionHex": "00000001",
  "merkleroot": "b9e4bb19cd2ec559bf0a564dbc72fb87019190d9beb66deb3dfe8a88c18dc037",
  "time": 1238845287,
  "mediantime": 1238838721,
  "nonce": 26225185,
  "bits": "1d00ffff",
  "difficulty": 1,
  "chainwork": "0000000000000000000000000000000000000000000000000000263726372637",
  "nTx": 1,
  "previousblockhash": "00000000aed372269b6a436579bf7263ca6f3dbdaeca167beb4d6e7bb5f8be48",
  "nextblockhash": "000000002a97e6e8121066414b7b000246aaa7d342285e1a02341e69aac4511f",
  "strippedsize": 215,
  "size": 215,
  "weight": 860,
  "tx": [
    {
      "txid": "b9e4bb19cd2ec559bf0a564dbc72fb87019190d9beb66deb3dfe8a88c18dc037",
      "hash": "b9e4bb19cd2ec559bf0a564dbc72fb87019190d9beb66deb3dfe8a88c18dc037",
      "version": 1,
      "size": 134,
      "vsize": 134,
      "weight": 536,
      "locktime": 0,
      "vin": [
        {
          "coinbase": "04ffff001d0113",
          "sequence": 4294967295
        }
      ],
      "vout": [
        {
          "value": 50.0,
          "n": 0,
          "scriptPubKey": {
            "asm": "04d35a1096f83a8a1d821862f16529e6693e1a1fadefc52594882f8d6e9e9cb50958de188ded129adf041c3c272202ffbe2fd7f2abd70a8fe2e642ff6cb9eb3fe7 OP_CHECKSIG",
            "desc": "pk(04d35a1096f83a8a1d821862f16529e6693e1a1fadefc52594882f8d6e9e9cb50958de188ded129adf041c3c272202ffbe2fd7f2abd70a8fe2e642ff6cb9eb3fe7)#6qwea8pw",
            "hex": "4104d35a1096f83a8a1d821862f16529e6693e1a1fadefc52594882f8d6e9e9cb50958de188ded129adf041c3c272202ffbe2fd7f2abd70a8fe2e642ff6cb9eb3fe7ac",
            "type": "pubkey"
          }
        }
      ],
      "hex": "01000000010000000000000000000000000000000000000000000000000000000000000000ffffffff0704ffff001d0113ffffffff0100f2052a01000000434104d35a1096f83a8a1d821862f16529e6693e1a1fadefc52594882f8d6e9e9cb50958de188ded129adf041c3c272202ffbe2fd7f2abd70a8fe2e642ff6cb9eb3fe7ac00000000"
    }
  ]
}