{
  "hash": "00000000fbb4e4f58b06df63571a363f334661adbd26f9e2efbbbc96e79f2ab9",
  "confirmations": 49331,
  "height": 3767,
  "version": 1,
  "versionHex": "00000001",
  "merkleroot": "46f1497efc15a2f7192488252013426794267a879786af638ae99ec60f803872",
  "time": 1234283550,
  "mediantime": 1234279306,
  "nonce": 2228217119,
  "bits": "1d00ffff",
  "difficulty": 1,
  "chainwork": "00000000000000000000000000000000000000000000000000000eb80eb80eb8",
  "nTx": 1,
  "previousblockhash": "0000000020e4376cc294263acf158802c26e5eae71ba2ea0e5a5e125a8fe6301",
  "nextblockhash": "000000000e9569691c291f73a2348033abe77175e83c3223ad5e8055d8cafee5",
  "strippedsize": 216,
  "size": 216,
  "weight": 864,
  "tx": [
    {
      "txid": "46f1497efc15a2f7192488252013426794267a879786af638ae99ec60f803872",
      "hash": "46f1497efc15a2f7192488252013426794267a879786af638ae99ec60f803872",
      "version": 1,
      "size": 135,
      "vsize": 135,
      "weight": 540,
      "locktime": 0,
      "vin": [
        {
          "coinbase": "04ffff001d02de00",
          "sequence": 4294967295
        }
      ],
      "vout": [
        {
          "value": 50.0,
          "n": 0,
          "scriptPubKey": {
            "asm": "04db5759fafd5785ac2ebb8c16ae3e2fb5171773dc1bc2253473b4dbda7bcf4dc0720cea35312ad900fa8b56456e9fca8edc33c14bd8d41d9fe020786c92fc4d47 OP_CHECKSIG",
            "desc": "pk(04db5759fafd5785ac2ebb8c16ae3e2fb5171773dc1bc2253473b4dbda7bcf4dc0720cea35312ad900fa8b56456e9fca8edc33c14bd8d41d9fe020786c92fc4d47)#ldejmd0r",
            "hex": "4104db5759fafd5785ac2ebb8c16ae3e2fb5171773dc1bc2253473b4dbda7bcf4dc0720cea35312ad900fa8b56456e9fca8edc33c14bd8d41d9fe020786c92fc4d47ac",
            "type": "pubkey"
          }
        }
      ],
      "hex": "01000000010000000000000000000000000000000000000000000000000000000000000000ffffffff0804ffff001d02de00ffffffff0100f2052a01000000434104db5759fafd5785ac2ebb8c16ae3e2fb5171773dc1bc2253473b4dbda7bcf4dc0720cea35312ad900fa8b56456e9fca8edc33c14bd8d41d9fe020786c92fc4d47ac00000000"
    }
  ]
}