{
  "hash": "0000000043626d97946d947a03e6c08c410f040cf7f5b1488a75a1f4778e933a",
  "confirmations": 51524,
  "height": 1574,
  "version": 1,
  "versionHex": "00000001",
  "merkleroot": "97eab9beb85b2f50a50da1441c1ad25498282436f987425b51fc20907d0f13d8",
  "time": 1232799566,
  "mediantime": 1232797851,
  "nonce": 4224566828,
  "bits": "1d00ffff",
  "difficulty": 1,
  "chainwork": "0000000000000000000000000000000000000000000000000000062706270627",
  "nTx": 1,
  "previousblockhash": "000000006ef15911fadda841e9962faa5d03d0167f2778bbc4b79e35b5e8635b",
  "nextblockhash": "00000000d3dab8bfaa150afaf76db64cf41a3d7f2a75f30cfb4880cd1267e9ca",
  "strippedsize": 216,
  "size": 216,
  "weight": 864,
  "tx": [
    {
      "txid": "97eab9beb85b2f50a50da1441c1ad25498282436f987425b51fc20907d0f13d8",
      "hash": "97eab9beb85b2f50a50da1441c1ad25498282436f987425b51fc20907d0f13d8",
      "version": 1,
      "size": 135,
      "vsize": 135,
      "weight": 540,
      "locktime": 0,
      "vin": [
        {
          "coinbase": "04ffff001d02ed01",
          "sequence": 4294967295
        }
      ],
      "vout": [
        {
          "value": 50.0,
          "n": 0,
          "scriptPubKey": {
            "asm": "04ac6d51b3b9ba68264f5391452c8890ee7247b65c15f519f3ce37d6029f1fd11a28e31fbb04649589d4e3e7e055f966d0e7ad695308b193fac7aa9da2cd006b37 OP_CHECKSIG",
            "desc": "pk(04ac6d51b3b9ba68264f5391452c8890ee7247b65c15f519f3ce37d6029f1fd11a28e31fbb04649589d4e3e7e055f966d0e7ad695308b193fac7aa9da2cd006b37)#s3lhmjtl",
            "hex": "4104ac6d51b3b9ba68264f5391452c8890ee7247b65c15f519f3ce37d6029f1fd11a28e31fbb04649589d4e3e7e055f966d0e7ad695308b193fac7aa9da2cd006b37ac",
            "type": "pubkey"
          }
        }
      ],
      "hex": "01000000010000000000000000000000000000000000000000000000000000000000000000ffffffff0804ffff001d02ed01ffffffff0100f2052a01000000434104ac6d51b3b9ba68264f5391452c8890ee7247b65c15f519f3ce37d6029f1fd11a28e31fbb04649589d4e3e7e055f966d0e7ad695308b193fac7aa9da2cd006b37ac00000000"
    }
  ]
}