{
  "hash": "000000004e5c0c526e86ed66dc93ebb866e3b7b9b1f40aa520ae251cd19dd399",
  "confirmations": 52268,
  "height": 830,
  "version": 1,
  "versionHex": "00000001",
  "merkleroot": "a5b6aad3ec7e4949973565960508eb1eb803d201dc73fd53e3f6079159a1bd41",
  "time": 1232213554,
  "mediantime": 1232211036,
  "nonce": 113991810,
  "bits": "1d00ffff",
  "difficulty": 1,
  "chainwork": "0000000000000000000000000000000000000000000000000000033f033f033f",
  "nTx": 1,
  "previousblockhash": "000000001a25cdaad9a9a306da9186c20179e85f5e8f27891733711cbd604717",
  "nextblockhash": "00000000f557e10424ce91bffe1d0ca46ff134dbd5fb2447690bfc9d3842cb3b",
  "strippedsize": 216,
  "size": 216,
  "weight": 864,
  "tx": [
    {
      "txid": "a5b6aad3ec7e4949973565960508eb1eb803d201dc73fd53e3f6079159a1bd41",
      "hash": "a5b6aad3ec7e4949973565960508eb1eb803d201dc73fd53e3f6079159a1bd41",
      "version": 1,
      "size": 135,
      "vsize": 135,
      "weight": 540,
      "locktime": 0,
      "vin": [
        {
          "coinbase": "04ffff001d02c700",
          "sequence": 4294967295
        }
      ],
      "vout": [
        {
          "value": 50.0,
          "n": 0,
          "scriptPubKey": {
            "asm": "04cd86a2373ef5e62de66fdff2defe6efeaf9634c56d7a699fcc5d68ddbb32e16858d928f60acce518e3924530480b7496c13ab85a2835cace94be5a295abc350b OP_CHECKSIG",
            "desc": "pk(04cd86a2373ef5e62de66fdff2defe6efeaf9634c56d7a699fcc5d68ddbb32e16858d928f60acce518e3924530480b7496c13ab85a2835cace94be5a295abc350b)#rh7r4wz8",
            "hex": "4104cd86a2373ef5e62de66fdff2defe6efeaf9634c56d7a699fcc5d68ddbb32e16858d928f60acce518e3924530480b7496c13ab85a2835cace94be5a295abc350bac",
            "type": "pubkey"
          }
        }
      ],
      "hex": "01000000010000000000000000000000000000000000000000000000000000000000000000ffffffff0804ffff001d02c700ffffffff0100f2052a01000000434104cd86a2373ef5e62de66fdff2defe6efeaf9634c56d7a699fcc5d68ddbb32e16858d928f60acce518e3924530480b7496c13ab85a2835cace94be5a295abc350bac00000000"
    }
  ]
}