{
  "hash": "00000000135d526c5e8aaf9925bc6f523195862e18de359c4db66e39f01fbed0",
  "confirmations": 50023,
  "height": 3075,
  "version": 1,
  "versionHex": "00000001",
  "merkleroot": "9e465bdca5f7e88170fd7b9285bbad81ef9c5b11705ce747a2d2bfbd3c6f0528",
  "time": 1233814545,
  "mediantime": 1233809130,
  "nonce": 1496537656,
  "bits": "1d00ffff",
  "difficulty": 1,
  "chainwork": "00000000000000000000000000000000000000000000000000000c040c040c04",
  "nTx": 1,
  "previousblockhash": "0000000046a4798ecce0245d7cadb0cf857639461582a7cebaffb064f7897012",
  "nextblockhash": "00000000f71567e68faebf55d2aff6d913af2e3a96007d29dd47c40478f3d9f6",
  "strippedsize": 216,
  "size": 216,
  "weight": 864,
  "tx": [
    {
      "txid": "9e465bdca5f7e88170fd7b9285bbad81ef9c5b11705ce747a2d2bfbd3c6f0528",
      "hash": "9e465bdca5f7e88170fd7b9285bbad81ef9c5b11705ce747a2d2bfbd3c6f0528",
      "version": 1,
      "size": 135,
      "vsize": 135,
      "weight": 540,
      "locktime": 0,
      "vin": [
        {
          "coinbase": "04ffff001d02c600",
          "sequence": 4294967295
        }
      ],
      "vout": [
        {
          "value": 50.0,
          "n": 0,
          "scriptPubKey": {
            "asm": "043a05474b03cd928e0793399d1bd2bbe504f845c72882b172d0f4b8c2a9fa3f32dd42745c5c240c8a4c0f2ef90868f978e6e9c4be6fc07941ed74689016e0a836 OP_CHECKSIG",
            "desc": "pk(043a05474b03cd928e0793399d1bd2bbe504f845c72882b172d0f4b8c2a9fa3f32dd42745c5c240c8a4c0f2ef90868f978e6e9c4be6fc07941ed74689016e0a836)#2nsy4dk4",
            "hex": "41043a05474b03cd928e0793399d1bd2bbe504f845c72882b172d0f4b8c2a9fa3f32dd42745c5c240c8a4c0f2ef90868f978e6e9c4be6fc07941ed74689016e0a836ac",
            "type": "pubkey"
          }
        }
      ],
      "hex": "01000000010000000000000000000000000000000000000000000000000000000000000000ffffffff0804ffff001d02c600ffffffff0100f2052a010000004341043a05474b03cd928e0793399d1bd2bbe504f845c72882b172d0f4b8c2a9fa3f32dd42745c5c240c8a4c0f2ef90868f978e6e9c4be6fc07941ed74689016e0a836ac00000000"
    }
  ]
}