{
  "hash": "000000008c600e846c66c9eac98969a1d435f569e099db10d19129f777527600",
  "confirmations": 46727,
  "height": 6371,
  "version": 1,
  "versionHex": "00000001",
  "merkleroot": "ee270d1dc2bb3012832d397b24335f53cd08e55e1b83d2423711ba2f2d2a25de",
  "time": 1236234087,
  "mediantime": 1236231122,
  "nonce": 2700085769,
  "bits": "1d00ffff",
  "difficulty": 1,
  "chainwork": "000000000000000000000000000000000000000000000000000018e418e418e4",
  "nTx": 1,
  "previousblockhash": "0000000002a4bee2cd31c6fa6784aa11fcf0cee7f0b29a9ef342e09b3b33e248",
  "nextblockhash": "000000004926cc20d8615223a1a330e7f6ebc30d3bd12e53a974cabcc88fe13c",
  "strippedsize": 216,
  "size": 216,
  "weight": 864,
  "tx": [
    {
      "txid": "ee270d1dc2bb3012832d397b24335f53cd08e55e1b83d2423711ba2f2d2a25de",
      "hash": "ee270d1dc2bb3012832d397b24335f53cd08e55e1b83d2423711ba2f2d2a25de",
      "version": 1,
      "size": 135,
      "vsize": 135,
      "weight": 540,
      "locktime": 0,
      "vin": [
        {
          "coinbase": "04ffff001d024701",
          "sequence": 4294967295
        }
      ],
      "vout": [
        {
          "value": 50.0,
          "n": 0,
          "scriptPubKey": {
            "asm": "04a46c994c1700454abb43861c440060bbff1a1cc443673c805438c9709babd9a50896fead5870d9e88f0e66966c174772f2e8614c0e4b39cde79f5a094a3bd1bd OP_CHECKSIG",
            "desc": "pk(04a46c994c1700454abb43861c440060bbff1a1cc443673c805438c9709babd9a50896fead5870d9e88f0e66966c174772f2e8614c0e4b39cde79f5a094a3bd1bd)#n3zss6g5",
            "hex": "4104a46c994c1700454abb43861c440060bbff1a1cc443673c805438c9709babd9a50896fead5870d9e88f0e66966c174772f2e8614c0e4b39cde79f5a094a3bd1bdac",
            "type": "pubkey"
          }
        }
      ],
      "hex": "01000000010000000000000000000000000000000000000000000000000000000000000000ffffffff0804ffff001d024701ffffffff0100f2052a01000000434104a46c994c1700454abb43861c440060bbff1a1cc443673c805438c9709babd9a50896fead5870d9e88f0e66966c174772f2e8614c0e4b39cde79f5a094a3bd1bdac00000000"
    }
  ]
}