{
  "hash": "00000000ad29c3caf774552a757b68a54b55cd0b9ff0bb2eda4c9d0409b26c0d",
  "confirmations": 52092,
  "height": 364,
  "version": 1,
  "versionHex": "00000001",
  "merkleroot": "306eb738d2d0cd1f287d919302c8edd5114f03d2ec63b129831b1676bc7f2b83",
  "time": 1231875152,
  "mediantime": 1231872516,
  "nonce": 3676055601,
  "bits": "1d00ffff",
  "difficulty": 1,
  "chainwork": "0000000000000000000000000000000000000000000000000000016d016d016d",
  "nTx": 1,
  "previousblockhash": "00000000128007ab3db907e5142718fe41ee551535e1f68e2931f15f80603f41",
  "nextblockhash": "00000000c256b2fa2ac9936f8f78dc8a0d88320a6bb0803ae30f82406af13955",
  "strippedsize": 216,
  "size": 216,
  "weight": 864,
  "tx": [
    {
      "txid": "306eb738d2d0cd1f287d919302c8edd5114f03d2ec63b129831b1676bc7f2b83",
      "hash": "306eb738d2d0cd1f287d919302c8edd5114f03d2ec63b129831b1676bc7f2b83",
      "version": 1,
      "size": 135,
      "vsize": 135,
      "weight": 540,
      "locktime": 0,
      "vin": [
        {
          "coinbase": "04ffff001d02c501",
          "sequence": 4294967295
        }
      ],
      "vout": [
        {
          "value": 50.0,
          "n": 0,
          "scriptPubKey": {
            "asm": "047ef0db5d7a56ca637728cfef66aa24c4feb14ad105cffd77cfe3db68ac9137a84d031cb555ecfaa6c9dad604863b27819347c0e77c760a12f27b82a1d2ba2141 OP_CHECKSIG",
            "desc": "pk(047ef0db5d7a56ca637728cfef66aa24c4feb14ad105cffd77cfe3db68ac9137a84d031cb555ecfaa6c9dad604863b27819347c0e77c760a12f27b82a1d2ba2141)#a65d78ac",
            "hex": "41047ef0db5d7a56ca637728cfef66aa24c4feb14ad105cffd77cfe3db68ac9137a84d031cb555ecfaa6c9dad604863b27819347c0e77c760a12f27b82a1d2ba2141ac",
            "type": "pubkey"
          }
        }
      ],
      "hex": "01000000010000000000000000000000000000000000000000000000000000000000000000ffffffff0804ffff001d02c501ffffffff0100f2052a010000004341047ef0db5d7a56ca637728cfef66aa24c4feb14ad105cffd77cfe3db68ac9137a84d031cb555ecfaa6c9dad604863b27819347c0e77c760a12f27b82a1d2ba2141ac00000000"
    }
  ]
}