{
  "hash": "00000000dd29353953496a5a1d58dd7ccf9357e835730e2c834fbb60e741c7e1",
  "confirmations": 51505,
  "height": 1593,
  "version": 1,
  "versionHex": "00000001",
  "merkleroot": "63dfced5202c417044abe4bb1d39c96c078ef339f513f16162132fa1dc1acb2b",
  "time": 1232808373,
  "mediantime": 1232806753,
  "nonce": 3566581545,
  "bits": "1d00ffff",
  "difficulty": 1,
  "chainwork": "0000000000000000000000000000000000000000000000000000063a063a063a",
  "nTx": 1,
  "previousblockhash": "0000000059144ee3a0c4f074da3ebad27603e2c204040d6cf8649472db46c66b",
  "nextblockhash": "00000000b6424577a0a7e0a76e4714167a68c9083b3058d40ce5bad463fb13cf",
  "strippedsize": 216,
  "size": 216,
  "weight": 864,
  "tx": [
    {
      "txid": "63dfced5202c417044abe4bb1d39c96c078ef339f513f16162132fa1dc1acb2b",
      "hash": "63dfced5202c417044abe4bb1d39c96c078ef339f513f16162132fa1dc1acb2b",
      "version": 1,
      "size": 135,
      "vsize": 135,
      "weight": 540,
      "locktime": 0,
      "vin": [
        {
          "coinbase": "04ffff001d020b02",
          "sequence": 4294967295
        }
      ],
      "vout": [
        {
          "value": 50.0,
          "n": 0,
          "scriptPubKey": {
            "asm": "047c580d0247edbf113577eef5dbb1938ac6123e081d4b40a0b2bebb6bfc239a239fa438ecdeb5adcb309eab16c2ce7d9cc1ea827ddb43e28188e7851f8344a7a3 OP_CHECKSIG",
            "desc": "pk(047c580d0247edbf113577eef5dbb1938ac6123e081d4b40a0b2bebb6bfc239a239fa438ecdeb5adcb309eab16c2ce7d9cc1ea827ddb43e28188e7851f8344a7a3)#wfpdqsdk",
            "hex": "41047c580d0247edbf113577eef5dbb1938ac6123e081d4b40a0b2bebb6bfc239a239fa438ecdeb5adcb309eab16c2ce7d9cc1ea827ddb43e28188e7851f8344a7a3ac",
            "type": "pubkey"
          }
        }
      ],
      "hex": "01000000010000000000000000000000000000000000000000000000000000000000000000ffffffff0804ffff001d020b02ffffffff0100f2052a010000004341047c580d0247edbf113577eef5dbb1938ac6123e081d4b40a0b2bebb6bfc239a239fa438ecdeb5adcb309eab16c2ce7d9cc1ea827ddb43e28188e7851f8344a7a3ac00000000"
    }
  ]
}