{
  "hash": "00000000eeafc92caf8a697abafaaf35474f557392aab520d1867569801251ed",
  "confirmations": 51895,
  "height": 1203,
  "version": 1,
  "versionHex": "00000001",
  "merkleroot": "979eeca051aa009f25fe505533a144eb353fe5d0d6cafd131d66d5be91dec159",
  "time": 1232503773,
  "mediantime": 1232498519,
  "nonce": 1443087408,
  "bits": "1d00ffff",
  "difficulty": 1,
  "chainwork": "000000000000000000000000000000000000000000000000000004b404b404b4",
  "nTx": 1,
  "previousblockhash": "00000000986aeca27988ca4a2f456d53fc8ff3a6976cdefb97a7bc172dfb8c12",
  "nextblockhash": "000000000316e604c093c233987a8df534ee40abe9618a189f512baab84d63f5",
  "strippedsize": 216,
  "size": 216,
  "weight": 864,
  "tx": [
    {
      "txid": "979eeca051aa009f25fe505533a144eb353fe5d0d6cafd131d66d5be91dec159",
      "hash": "979eeca051aa009f25fe505533a144eb353fe5d0d6cafd131d66d5be91dec159",
      "version": 1,
      "size": 135,
      "vsize": 135,
      "weight": 540,
      "locktime": 0,
      "vin": [
        {
          "coinbase": "04ffff001d02b808",
          "sequence": 4294967295
        }
      ],
      "vout": [
        {
          "value": 50.0,
          "n": 0,
          "scriptPubKey": {
            "asm": "047887d31c2e221b2df56025a0631b7f5146f635bcf9629a8876048c778e0eb6bddbc3c7d1616b71a2ed8285139a20bba8415dc7d90daa0eeab7c9889cae878fb3 OP_CHECKSIG",
            "desc": "pk(047887d31c2e221b2df56025a0631b7f5146f635bcf9629a8876048c778e0eb6bddbc3c7d1616b71a2ed8285139a20bba8415dc7d90daa0eeab7c9889cae878fb3)#zhrnmg60",
            "hex": "41047887d31c2e221b2df56025a0631b7f5146f635bcf9629a8876048c778e0eb6bddbc3c7d1616b71a2ed8285139a20bba8415dc7d90daa0eeab7c9889cae878fb3ac",
            "type": "pubkey"
          }
        }
      ],
      "hex": "01000000010000000000000000000000000000000000000000000000000000000000000000ffffffff0804ffff001d02b808ffffffff0100f2052a010000004341047887d31c2e221b2df56025a0631b7f5146f635bcf9629a8876048c778e0eb6bddbc3c7d1616b71a2ed8285139a20bba8415dc7d90daa0eeab7c9889cae878fb3ac00000000"
    }
  ]
}