{
  "hash": "00000000640502947f5709f8ef1fea4abf85a1708773bde51c70c0bb7342abdc",
  "confirmations": 47986,
  "height": 5112,
  "version": 1,
  "versionHex": "00000001",
  "merkleroot": "69901f89af4524d405e882ff25f64ccef061c3eae74e3a97f3e4e2cec299f0ab",
  "time": 1235225893,
  "mediantime": 1235223169,
  "nonce": 321297629,
  "bits": "1d00ffff",
  "difficulty": 1,
  "chainwork": "000000000000000000000000000000000000000000000000000013f913f913f9",
  "nTx": 1,
  "previousblockhash": "0000000015263e10c6ef50185bc1dc6f14138ec5eaefad6c92aa3216ff2d66c4",
  "nextblockhash": "00000000a4ebc8522eb6edb64d11ab3f048b7f19567bd6222c69b4b420336910",
  "strippedsize": 216,
  "size": 216,
  "weight": 864,
  "tx": [
    {
      "txid": "69901f89af4524d405e882ff25f64ccef061c3eae74e3a97f3e4e2cec299f0ab",
      "hash": "69901f89af4524d405e882ff25f64ccef061c3eae74e3a97f3e4e2cec299f0ab",
      "version": 1,
      "size": 135,
      "vsize": 135,
      "weight": 540,
      "locktime": 0,
      "vin": [
        {
          "coinbase": "04ffff001d02bf00",
          "sequence": 4294967295
        }
      ],
      "vout": [
        {
          "value": 50.0,
          "n": 0,
          "scriptPubKey": {
            "asm": "04b072786e7e42993d1845c0c4e431daea5e33b73a8d7fea53276e8cafe6e31f7ea8f80d0dfc49234e665538f45661cad96710dba661eff2794b261b646fcb2038 OP_CHECKSIG",
            "desc": "pk(04b072786e7e42993d1845c0c4e431daea5e33b73a8d7fea53276e8cafe6e31f7ea8f80d0dfc49234e665538f45661cad96710dba661eff2794b261b646fcb2038)#gx7kvyts",
            "hex": "4104b072786e7e42993d1845c0c4e431daea5e33b73a8d7fea53276e8cafe6e31f7ea8f80d0dfc49234e665538f45661cad96710dba661eff2794b261b646fcb2038ac",
            "type": "pubkey"
          }
        }
      ],
      "hex": "01000000010000000000000000000000000000000000000000000000000000000000000000ffffffff0804ffff001d02bf00ffffffff0100f2052a01000000434104b072786e7e42993d1845c0c4e431daea5e33b73a8d7fea53276e8cafe6e31f7ea8f80d0dfc49234e665538f45661cad96710dba661eff2794b261b646fcb2038ac00000000"
    }
  ]
}