{
  "hash": "000000000dd72e26537ed7e97d2fe5d0ced050b355cae9550cdb19ddd80dde4c",
  "confirmations": 51371,
  "height": 1727,
  "version": 1,
  "versionHex": "00000001",
  "merkleroot": "e660f902430a266ca3cea7ea8ed42c8468477c71b8ae1630e108b0e4effdb6ad",
  "time": 1232863386,
  "mediantime": 1232861276,
  "nonce": 332414728,
  "bits": "1d00ffff",
  "difficulty": 1,
  "chainwork": "000000000000000000000000000000000000000000000000000006c006c006c0",
  "nTx": 1,
  "previousblockhash": "000000003e26867afdd61814502ee0873383d89213f7aadd6ddefe8d5c991df4",
  "nextblockhash": "0000000008f9fdae1079df095d5306ad0b1923da74565ab613f207ee1617a287",
  "strippedsize": 216,
  "size": 216,
  "weight": 864,
  "tx": [
    {
      "txid": "e660f902430a266ca3cea7ea8ed42c8468477c71b8ae1630e108b0e4effdb6ad",
      "hash": "e660f902430a266ca3cea7ea8ed42c8468477c71b8ae1630e108b0e4effdb6ad",
      "version": 1,
      "size": 135,
      "vsize": 135,
      "weight": 540,
      "locktime": 0,
      "vin": [
        {
          "coinbase": "04ffff001d023b03",
          "sequence": 4294967295
        }
      ],
      "vout": [
        {
          "value": 50.0,
          "n": 0,
          "scriptPubKey": {
            "asm": "0442e4c30e80f74627ba970ac53789238a08bb3cb62aa52674d31b034ad0128a475385c912182fb8477d46c2d134857227f994bb9bcff010f1acd5c82899d4b5e1 OP_CHECKSIG",
            "desc": "pk(0442e4c30e80f74627ba970ac53789238a08bb3cb62aa52674d31b034ad0128a475385c912182fb8477d46c2d134857227f994bb9bcff010f1acd5c82899d4b5e1)#pm37y2n0",
            "hex": "410442e4c30e80f74627ba970ac53789238a08bb3cb62aa52674d31b034ad0128a475385c912182fb8477d46c2d134857227f994bb9bcff010f1acd5c82899d4b5e1ac",
            "type": "pubkey"
          }
        }
      ],
      "hex": "01000000010000000000000000000000000000000000000000000000000000000000000000ffffffff0804ffff001d023b03ffffffff0100f2052a0100000043410442e4c30e80f74627ba970ac53789238a08bb3cb62aa52674d31b034ad0128a475385c912182fb8477d46c2d134857227f994bb9bcff010f1acd5c82899d4b5e1ac00000000"
    }
  ]
}