{
  "hash": "00000000381d1288bd5db198a82fb1a2778f94992de2213c9bbe2cb942beebf9",
  "confirmations": 47594,
  "height": 5504,
  "version": 1,
  "versionHex": "00000001",
  "merkleroot": "69ffeb9747d4fe3ff403390afb2463e788a721967ed63afc5e5d929dfe78ca3e",
  "time": 1235525154,
  "mediantime": 1235521699,
  "nonce": 4036052273,
  "bits": "1d00ffff",
  "difficulty": 1,
  "chainwork": "0000000000000000000000000000000000000000000000000000158115811581",
  "nTx": 1,
  "previousblockhash": "0000000063f70a539796b75fbdd72df37fbcb28ddc50852e2a32923ceb2a6173",
  "nextblockhash": "000000004db659f79a3162b5cd0d7bbe3bc2ec890cc1f969582a3de443b044e2",
  "strippedsize": 216,
  "size": 216,
  "weight": 864,
  "tx": [
    {
      "txid": "69ffeb9747d4fe3ff403390afb2463e788a721967ed63afc5e5d929dfe78ca3e",
      "hash": "69ffeb9747d4fe3ff403390afb2463e788a721967ed63afc5e5d929dfe78ca3e",
      "version": 1,
      "size": 135,
      "vsize": 135,
      "weight": 540,
      "locktime": 0,
      "vin": [
        {
          "coinbase": "04ffff001d02ae05",
          "sequence": 4294967295
        }
      ],
      "vout": [
        {
          "value": 50.0,
          "n": 0,
          "scriptPubKey": {
            "asm": "0417122a95b0e1ae1792e0418aa70a4dfa7a75b276e4f9246aa62c9001bf2003965cc1bb3f09e83019c2ff0b48931833418b38a877bbd2bb9c60f409030ef10c28 OP_CHECKSIG",
            "desc": "pk(0417122a95b0e1ae1792e0418aa70a4dfa7a75b276e4f9246aa62c9001bf2003965cc1bb3f09e83019c2ff0b48931833418b38a877bbd2bb9c60f409030ef10c28)#zpxrhyep",
            "hex": "410417122a95b0e1ae1792e0418aa70a4dfa7a75b276e4f9246aa62c9001bf2003965cc1bb3f09e83019c2ff0b48931833418b38a877bbd2bb9c60f409030ef10c28ac",
            "type": "pubkey"
          }
        }
      ],
      "hex": "01000000010000000000000000000000000000000000000000000000000000000000000000ffffffff0804ffff001d02ae05ffffffff0100f2052a0100000043410417122a95b0e1ae1792e0418aa70a4dfa7a75b276e4f9246aa62c9001bf2003965cc1bb3f09e83019c2ff0b48931833418b38a877bbd2bb9c60f409030ef10c28ac00000000"
    }
  ]
}