{
  "hash": "000000007fa0dae8be3bc397597f379bb57dd91e7f3b29836ff5dcb419864da6",
  "confirmations": 43284,
  "height": 9814,
  "version": 1,
  "versionHex": "00000001",
  "merkleroot": "0f4194ea156df2ffc68193fa3bd9fec30e90e6831d9f1240724b89c5c6a8df1b",
  "time": 1238863814,
  "mediantime": 1238860923,
  "nonce": 3895295510,
  "bits": "1d00ffff",
  "difficulty": 1,
  "chainwork": "0000000000000000000000000000000000000000000000000000265726572657",
  "nTx": 1,
  "previousblockhash": "000000003029b2eee62efef83bc52762336a51b0242077b44d322b782093f973",
  "nextblockhash": "000000006d7551a9a291f139ee27688b182fa30a33fe62af9da5c589fca157e0",
  "strippedsize": 215,
  "size": 215,
  "weight": 860,
  "tx": [
    {
      "txid": "0f4194ea156df2ffc68193fa3bd9fec30e90e6831d9f1240724b89c5c6a8df1b",
      "hash": "0f4194ea156df2ffc68193fa3bd9fec30e90e6831d9f1240724b89c5c6a8df1b",
      "version": 1,
      "size": 134,
      "vsize": 134,
      "weight": 536,
      "locktime": 0,
      "vin": [
        {
          "coinbase": "04ffff001d017a",
          "sequence": 4294967295
        }
      ],
      "vout": [
        {
          "value": 50.0,
          "n": 0,
          "scriptPubKey": {
            "asm": "04c12ca3a096589f56e94e89c37797600859d25353a28578088f33cd7c715146f761dd6164d21fb0132a20c50559f6899e72f6ca4e0c8201ba3b025469ef5ca643 OP_CHECKSIG",
            "desc": "pk(04c12ca3a096589f56e94e89c37797600859d25353a28578088f33cd7c715146f761dd6164d21fb0132a20c50559f6899e72f6ca4e0c8201ba3b025469ef5ca643)#x5nafv0q",
            "hex": "4104c12ca3a096589f56e94e89c37797600859d25353a28578088f33cd7c715146f761dd6164d21fb0132a20c50559f6899e72f6ca4e0c8201ba3b025469ef5ca643ac",
            "type": "pubkey"
          }
        }
      ],
      "hex": "01000000010000000000000000000000000000000000000000000000000000000000000000ffffffff0704ffff001d017affffffff0100f2052a01000000434104c12ca3a096589f56e94e89c37797600859d25353a28578088f33cd7c715146f761dd6164d21fb0132a20c50559f6899e72f6ca4e0c8201ba3b025469ef5ca643ac00000000"
    }
  ]
}