{
  "hash": "000000001e3cc7209d0ad03234fc2359ee42bb214ec7f4f5c11dc0eba4cd9f2f",
  "confirmations": 46995,
  "height": 6103,
  "version": 1,
  "versionHex": "00000001",
  "merkleroot": "eecf641904279d854df103f7b61d86d950f1864e67224573c03b910861aee9b6",
  "time": 1236011708,
  "mediantime": 1236007332,
  "nonce": 146950862,
  "bits": "1d00ffff",
  "difficulty": 1,
  "chainwork": "000000000000000000000000000000000000000000000000000017d817d817d8",
  "nTx": 1,
  "previousblockhash": "00000000d9218daa2bb14eff01c9e4de11d119a645356fa26c0b0572414ae334",
  "nextblockhash": "000000004cc8ebd7a806c3acf1bf7c7d3063cbb3072aba4bd37a7c8895964c5f",
  "strippedsize": 215,
  "size": 215,
  "weight": 860,
  "tx": [
    {
      "txid": "eecf641904279d854df103f7b61d86d950f1864e67224573c03b910861aee9b6",
      "hash": "eecf641904279d854df103f7b61d86d950f1864e67224573c03b910861aee9b6",
      "version": 1,
      "size": 134,
      "vsize": 134,
      "weight": 536,
      "locktime": 0,
      "vin": [
        {
          "coinbase": "04ffff001d011c",
          "sequence": 4294967295
        }
      ],
      "vout": [
        {
          "value": 50.0,
          "n": 0,
          "scriptPubKey": {
            "asm": "0408e14e8e637a2107b159a3b998a9dcfcd419aa4ed1f7528f10454b053d5f1d307f8a6fba61ea80aaf9e86cf8d7b09aeb2d8b254a20e65d02a24b4421103aa90f OP_CHECKSIG",
            "desc": "pk(0408e14e8e637a2107b159a3b998a9dcfcd419aa4ed1f7528f10454b053d5f1d307f8a6fba61ea80aaf9e86cf8d7b09aeb2d8b254a20e65d02a24b4421103aa90f)#9q3r0zsg",
            "hex": "410408e14e8e637a2107b159a3b998a9dcfcd419aa4ed1f7528f10454b053d5f1d307f8a6fba61ea80aaf9e86cf8d7b09aeb2d8b254a20e65d02a24b4421103aa90fac",
            "type": "pubkey"
          }
        }
      ],
      "hex": "01000000010000000000000000000000000000000000000000000000000000000000000000ffffffff0704ffff001d011cffffffff0100f2052a0100000043410408e14e8e637a2107b159a3b998a9dcfcd419aa4ed1f7528f10454b053d5f1d307f8a6fba61ea80aaf9e86cf8d7b09aeb2d8b254a20e65d02a24b4421103aa90fac00000000"
    }
  ]
}