{
  "hash": "00000000e0ed409c6efb3391f4dc3ff3ae0251f7963f989bfb4bc31bc1baa82e",
  "confirmations": 46599,
  "height": 6499,
  "version": 1,
  "versionHex": "00000001",
  "merkleroot": "8e2428cc037545c0c904b7037b9d3e6c19b7ff24c4c775f9a8bb966cb2cf29f0",
  "time": 1236330388,
  "mediantime": 1236326225,
  "nonce": 58841877,
  "bits": "1d00ffff",
  "difficulty": 1,
  "chainwork": "0000000000000000000000000000000000000000000000000000196419641964",
  "nTx": 1,
  "previousblockhash": "00000000d4af32f13e211f10c7f1a3af0493b85a09980be76f46c43259e709de",
  "nextblockhash": "000000002dcb4a3fbf33a516ed4ae12d08f11c7bfc001271f9312a31eb6dbf52",
  "strippedsize": 216,
  "size": 216,
  "weight": 864,
  "tx": [
    {
      "txid": "8e2428cc037545c0c904b7037b9d3e6c19b7ff24c4c775f9a8bb966cb2cf29f0",
      "hash": "8e2428cc037545c0c904b7037b9d3e6c19b7ff24c4c775f9a8bb966cb2cf29f0",
      "version": 1,
      "size": 135,
      "vsize": 135,
      "weight": 540,
      "locktime": 0,
      "vin": [
        {
          "coinbase": "04ffff001d022d0b",
          "sequence": 4294967295
        }
      ],
      "vout": [
        {
          "value": 50.0,
          "n": 0,
          "scriptPubKey": {
            "asm": "04bf508962c6e5b8280b4922b95ae29a99b72adc0db467a29eea0739cbf1322256bb49b97550036ff4bcbcd2cb7d28f88889a5740642d5a02c81876b880b1a468f OP_CHECKSIG",
            "desc": "pk(04bf508962c6e5b8280b4922b95ae29a99b72adc0db467a29eea0739cbf1322256bb49b97550036ff4bcbcd2cb7d28f88889a5740642d5a02c81876b880b1a468f)#9yqnjzcs",
            "hex": "4104bf508962c6e5b8280b4922b95ae29a99b72adc0db467a29eea0739cbf1322256bb49b97550036ff4bcbcd2cb7d28f88889a5740642d5a02c81876b880b1a468fac",
            "type": "pubkey"
          }
        }
      ],
      "hex": "01000000010000000000000000000000000000000000000000000000000000000000000000ffffffff0804ffff001d022d0bffffffff0100f2052a01000000434104bf508962c6e5b8280b4922b95ae29a99b72adc0db467a29eea0739cbf1322256bb49b97550036ff4bcbcd2cb7d28f88889a5740642d5a02c81876b880b1a468fac00000000"
    }
  ]
}