{
  "hash": "00000000871439443e783e896fff08e44631cb894ca229b1d0b1e32ad1ea2266",
  "confirmations": 44074,
  "height": 9024,
  "version": 1,
  "versionHex": "00000001",
  "merkleroot": "c82838992b81f5a2f398e73040ec86dcb4035e2778423693099c0eed6713c0c6",
  "time": 1238270104,
  "mediantime": 1238265302,
  "nonce": 159280147,
  "bits": "1d00ffff",
  "difficulty": 1,
  "chainwork": "0000000000000000000000000000000000000000000000000000234123412341",
  "nTx": 1,
  "previousblockhash": "0000000084bf16c1bf01890349df52f25dc40c324ec27c08282a1135ebb78f0b",
  "nextblockhash": "000000008fdf75bf3564a69485c2e115e18c03dfb8f56c4966b739e41fa9af0e",
  "strippedsize": 216,
  "size": 216,
  "weight": 864,
  "tx": [
    {
      "txid": "c82838992b81f5a2f398e73040ec86dcb4035e2778423693099c0eed6713c0c6",
      "hash": "c82838992b81f5a2f398e73040ec86dcb4035e2778423693099c0eed6713c0c6",
      "version": 1,
      "size": 135,
      "vsize": 135,
      "weight": 540,
      "locktime": 0,
      "vin": [
        {
          "coinbase": "04ffff001d02a707",
          "sequence": 4294967295
        }
      ],
      "vout": [
        {
          "value": 50.0,
          "n": 0,
          "scriptPubKey": {
            "asm": "04baf7015e2bab99a1ccfcb5bbabe0cf26c267f6735075d54f5e2859b53e23aea232381467b31c3db18f1beeafd58eee271548531d4e2f2799e7b01136cf608328 OP_CHECKSIG",
            "desc": "pk(04baf7015e2bab99a1ccfcb5bbabe0cf26c267f6735075d54f5e2859b53e23aea232381467b31c3db18f1beeafd58eee271548531d4e2f2799e7b01136cf608328)#pme38k3a",
            "hex": "4104baf7015e2bab99a1ccfcb5bbabe0cf26c267f6735075d54f5e2859b53e23aea232381467b31c3db18f1beeafd58eee271548531d4e2f2799e7b01136cf608328ac",
            "type": "pubkey"
          }
        }
      ],
      "hex": "01000000010000000000000000000000000000000000000000000000000000000000000000ffffffff0804ffff001d02a707ffffffff0100f2052a01000000434104baf7015e2bab99a1ccfcb5bbabe0cf26c267f6735075d54f5e2859b53e23aea232381467b31c3db18f1beeafd58eee271548531d4e2f2799e7b01136cf608328ac00000000"
    }
  ]
}