{
  "hash": "000000006fe7385ab0a8ddee0a12ac021805dff05ebe376413f2989f56f1ee0d",
  "confirmations": 50140,
  "height": 2958,
  "version": 1,
  "versionHex": "00000001",
  "merkleroot": "a7e8a6fcd86a8978379a51c007b8f41f2d9ac8057dc5f2f2630afa7a36cffe21",
  "time": 1233731640,
  "mediantime": 1233728416,
  "nonce": 128099309,
  "bits": "1d00ffff",
  "difficulty": 1,
  "chainwork": "00000000000000000000000000000000000000000000000000000b8f0b8f0b8f",
  "nTx": 1,
  "previousblockhash": "00000000e1c6c4fec8e18026b3f96f8f7a7d289aeb8e8d99e16caef2a580281a",
  "nextblockhash": "00000000fbe6e633e1b037c92b50ee6b60a9ad810f05e0758f9d7271fa1d9612",
  "strippedsize": 216,
  "size": 216,
  "weight": 864,
  "tx": [
    {
      "txid": "a7e8a6fcd86a8978379a51c007b8f41f2d9ac8057dc5f2f2630afa7a36cffe21",
      "hash": "a7e8a6fcd86a8978379a51c007b8f41f2d9ac8057dc5f2f2630afa7a36cffe21",
      "version": 1,
      "size": 135,
      "vsize": 135,
      "weight": 540,
      "locktime": 0,
      "vin": [
        {
          "coinbase": "04ffff001d021a04",
          "sequence": 4294967295
        }
      ],
      "vout": [
        {
          "value": 50.0,
          "n": 0,
          "scriptPubKey": {
            "asm": "04b7cc941dbbc4c991a860bc7c9ec845045bc96c10ef9cb05852d0dd4ba5282a4b0e2178926ecc1de7bb4071f1dabe6ef869592bef0f57d1351a0d98bef72bd12f OP_CHECKSIG",
            "desc": "pk(04b7cc941dbbc4c991a860bc7c9ec845045bc96c10ef9cb05852d0dd4ba5282a4b0e2178926ecc1de7bb4071f1dabe6ef869592bef0f57d1351a0d98bef72bd12f)#69para28",
            "hex": "4104b7cc941dbbc4c991a860bc7c9ec845045bc96c10ef9cb05852d0dd4ba5282a4b0e2178926ecc1de7bb4071f1dabe6ef869592bef0f57d1351a0d98bef72bd12fac",
            "type": "pubkey"
          }
        }
      ],
      "hex": "01000000010000000000000000000000000000000000000000000000000000000000000000ffffffff0804ffff001d021a04ffffffff0100f2052a01000000434104b7cc941dbbc4c991a860bc7c9ec845045bc96c10ef9cb05852d0dd4ba5282a4b0e2178926ecc1de7bb4071f1dabe6ef869592bef0f57d1351a0d98bef72bd12fac00000000"
    }
  ]
}