{
  "hash": "000000005fa9181adbb3ede82c9a692974e06a3267429243c831b7031664a9e6",
  "confirmations": 47669,
  "height": 5429,
  "version": 1,
  "versionHex": "00000001",
  "merkleroot": "e3afeb6caf3181ab8db56d3553ae902e34a040bfe3724f126881ccd28f95ad39",
  "time": 1235463444,
  "mediantime": 1235459324,
  "nonce": 2469270549,
  "bits": "1d00ffff",
  "difficulty": 1,
  "chainwork": "0000000000000000000000000000000000000000000000000000153615361536",
  "nTx": 1,
  "previousblockhash": "0000000088980c92d1f8edadc54cd34d7fb187e74a22a99b3c0f4fbb5bd84d7b",
  "nextblockhash": "00000000febd91a57b25bc71ea677d2e3489f306550bb95e5d170c0d8f97a242",
  "strippedsize": 216,
  "size": 216,
  "weight": 864,
  "tx": [
    {
      "txid": "e3afeb6caf3181ab8db56d3553ae902e34a040bfe3724f126881ccd28f95ad39",
      "hash": "e3afeb6caf3181ab8db56d3553ae902e34a040bfe3724f126881ccd28f95ad39",
      "version": 1,
      "size": 135,
      "vsize": 135,
      "weight": 540,
      "locktime": 0,
      "vin": [
        {
          "coinbase": "04ffff001d021c04",
          "sequence": 4294967295
        }
      ],
      "vout": [
        {
          "value": 50.0,
          "n": 0,
          "scriptPubKey": {
            "asm": "04b5fe2a306e2b0fc3e02ee33379de6ce470d85419ed8316ad5ba4bc82dae7d0f57a1c9b9dbe129cbd10b6aeefcb974dde0c5c4185a8768ef250a02899e36bd741 OP_CHECKSIG",
            "desc": "pk(04b5fe2a306e2b0fc3e02ee33379de6ce470d85419ed8316ad5ba4bc82dae7d0f57a1c9b9dbe129cbd10b6aeefcb974dde0c5c4185a8768ef250a02899e36bd741)#6xemk8tz",
            "hex": "4104b5fe2a306e2b0fc3e02ee33379de6ce470d85419ed8316ad5ba4bc82dae7d0f57a1c9b9dbe129cbd10b6aeefcb974dde0c5c4185a8768ef250a02899e36bd741ac",
            "type": "pubkey"
          }
        }
      ],
      "hex": "01000000010000000000000000000000000000000000000000000000000000000000000000ffffffff0804ffff001d021c04ffffffff0100f2052a01000000434104b5fe2a306e2b0fc3e02ee33379de6ce470d85419ed8316ad5ba4bc82dae7d0f57a1c9b9dbe129cbd10b6aeefcb974dde0c5c4185a8768ef250a02899e36bd741ac00000000"
    }
  ]
}