{
  "hash": "00000000d4b71ccc6672d3e1f5a356c8370b69ae80b773b16feeb47516f525b3",
  "confirmations": 50723,
  "height": 2375,
  "version": 1,
  "versionHex": "00000001",
  "merkleroot": "b7ed6996aeb695917ad21c0a3b1817458b241cdff5647467fcbbb2c567a04e64",
  "time": 1233334939,
  "mediantime": 1233328994,
  "nonce": 1828409631,
  "bits": "1d00ffff",
  "difficulty": 1,
  "chainwork": "0000000000000000000000000000000000000000000000000000094809480948",
  "nTx": 1,
  "previousblockhash": "00000000c5266fd4d8f1e6fc28dd24aa0306477a2faa084cfe189ed9f3d312c1",
  "nextblockhash": "00000000b7ff527ae532e7fa4ff24ad476c5bb1efe3870e9d8794c8d1ff5cb43",
  "strippedsize": 216,
  "size": 216,
  "weight": 864,
  "tx": [
    {
      "txid": "b7ed6996aeb695917ad21c0a3b1817458b241cdff5647467fcbbb2c567a04e64",
      "hash": "b7ed6996aeb695917ad21c0a3b1817458b241cdff5647467fcbbb2c567a04e64",
      "version": 1,
      "size": 135,
      "vsize": 135,
      "weight": 540,
      "locktime": 0,
      "vin": [
        {
          "coinbase": "04ffff001d021303",
          "sequence": 4294967295
        }
      ],
      "vout": [
        {
          "value": 50.0,
          "n": 0,
          "scriptPubKey": {
            "asm": "0439ca91a2d05d7da526755a08e1672325629f5f3927e957e71ce303558bc115de04b209facd5c0ed820e6b7cfc2dcbae3deb773c0ed652bc122fb69ec4d443131 OP_CHECKSIG",
            "desc": "pk(0439ca91a2d05d7da526755a08e1672325629f5f3927e957e71ce303558bc115de04b209facd5c0ed820e6b7cfc2dcbae3deb773c0ed652bc122fb69ec4d443131)#vt80g3pv",
            "hex": "410439ca91a2d05d7da526755a08e1672325629f5f3927e957e71ce303558bc115de04b209facd5c0ed820e6b7cfc2dcbae3deb773c0ed652bc122fb69ec4d443131ac",
            "type": "pubkey"
          }
        }
      ],
      "hex": "01000000010000000000000000000000000000000000000000000000000000000000000000ffffffff0804ffff001d021303ffffffff0100f2052a0100000043410439ca91a2d05d7da526755a08e1672325629f5f3927e957e71ce303558bc115de04b209facd5c0ed820e6b7cfc2dcbae3deb773c0ed652bc122fb69ec4d443131ac00000000"
    }
  ]
}