{
  "hash": "0000000014294fe87ec41f84ceb3f2e84c7c1454d8f7512d99a614059d47c4c1",
  "confirmations": 45573,
  "height": 7525,
  "version": 1,
  "versionHex": "00000001",
  "merkleroot": "e5bf78a4ec02b24811205b9ecdb47567e7b4ee6c441e6c864f89b930ff7c9981",
  "time": 1237115970,
  "mediantime": 1237111542,
  "nonce": 880663558,
  "bits": "1d00ffff",
  "difficulty": 1,
  "chainwork": "00000000000000000000000000000000000000000000000000001d661d661d66",
  "nTx": 1,
  "previousblockhash": "0000000074c3a098f16c35b3084800a6a799bc59a46fbce5a27c9f4b47c8a9d7",
  "nextblockhash": "00000000605490ec02f48eb57c0e68403d75f2b16f0a49a2e1fa9f530d19171e",
  "strippedsize": 216,
  "size": 216,
  "weight": 864,
  "tx": [
    {
      "txid": "e5bf78a4ec02b24811205b9ecdb47567e7b4ee6c441e6c864f89b930ff7c9981",
      "hash": "e5bf78a4ec02b24811205b9ecdb47567e7b4ee6c441e6c864f89b930ff7c9981",
      "version": 1,
      "size": 135,
      "vsize": 135,
      "weight": 540,
      "locktime": 0,
      "vin": [
        {
          "coinbase": "04ffff001d026601",
          "sequence": 4294967295
        }
      ],
      "vout": [
        {
          "value": 50.0,
          "n": 0,
          "scriptPubKey": {
            "asm": "0434e26c69524c449de8860beccd0edf40490c5b15dc9a050c3a7f9cce58a8bdaa317b86a5b2a2f0c65049a08fdc594998eaa2b34726c8b666b700735de8dc2456 OP_CHECKSIG",
            "desc": "pk(0434e26c69524c449de8860beccd0edf40490c5b15dc9a050c3a7f9cce58a8bdaa317b86a5b2a2f0c65049a08fdc594998eaa2b34726c8b666b700735de8dc2456)#deq0ekfq",
            "hex": "410434e26c69524c449de8860beccd0edf40490c5b15dc9a050c3a7f9cce58a8bdaa317b86a5b2a2f0c65049a08fdc594998eaa2b34726c8b666b700735de8dc2456ac",
            "type": "pubkey"
          }
        }
      ],
      "hex": "01000000010000000000000000000000000000000000000000000000000000000000000000ffffffff0804ffff001d026601ffffffff0100f2052a0100000043410434e26c69524c449de8860beccd0edf40490c5b15dc9a050c3a7f9cce58a8bdaa317b86a5b2a2f0c65049a08fdc594998eaa2b34726c8b666b700735de8dc2456ac00000000"
    }
  ]
}