{
  "hash": "00000000cbf4c042e284afff2148447817937c71e378bd3aa2e13778ed4bc6de",
  "confirmations": 45704,
  "height": 7394,
  "version": 1,
  "versionHex": "00000001",
  "merkleroot": "2dc29380cad852f30152d2a0c495a95b6df28a69a1118f064466b6557aed2d38",
  "time": 1237017708,
  "mediantime": 1237012932,
  "nonce": 3782143492,
  "bits": "1d00ffff",
  "difficulty": 1,
  "chainwork": "00000000000000000000000000000000000000000000000000001ce31ce31ce3",
  "nTx": 1,
  "previousblockhash": "00000000757a306d33e554ced26a05c31c7c9e845dda17c4d316160e29a86fa3",
  "nextblockhash": "000000009eb616300c00990dfe813ab0f307e9a482d7d3fbc1c59463b2555a09",
  "strippedsize": 216,
  "size": 216,
  "weight": 864,
  "tx": [
    {
      "txid": "2dc29380cad852f30152d2a0c495a95b6df28a69a1118f064466b6557aed2d38",
      "hash": "2dc29380cad852f30152d2a0c495a95b6df28a69a1118f064466b6557aed2d38",
      "version": 1,
      "size": 135,
      "vsize": 135,
      "weight": 540,
      "locktime": 0,
      "vin": [
        {
          "coinbase": "04ffff001d023109",
          "sequence": 4294967295
        }
      ],
      "vout": [
        {
          "value": 50.0,
          "n": 0,
          "scriptPubKey": {
            "asm": "0435a2a4068a67ce0ab13675d6115e80f5a90008edd5417ec939f4c594b81f5963118ba7702a334dbdb5315b1ac13a00b8c52087aed122722f43bafc4d01e110b7 OP_CHECKSIG",
            "desc": "pk(0435a2a4068a67ce0ab13675d6115e80f5a90008edd5417ec939f4c594b81f5963118ba7702a334dbdb5315b1ac13a00b8c52087aed122722f43bafc4d01e110b7)#jfxfs6um",
            "hex": "410435a2a4068a67ce0ab13675d6115e80f5a90008edd5417ec939f4c594b81f5963118ba7702a334dbdb5315b1ac13a00b8c52087aed122722f43bafc4d01e110b7ac",
            "type": "pubkey"
          }
        }
      ],
      "hex": "01000000010000000000000000000000000000000000000000000000000000000000000000ffffffff0804ffff001d023109ffffffff0100f2052a0100000043410435a2a4068a67ce0ab13675d6115e80f5a90008edd5417ec939f4c594b81f5963118ba7702a334dbdb5315b1ac13a00b8c52087aed122722f43bafc4d01e110b7ac00000000"
    }
  ]
}