{
  "hash": "000000004a90da4d949e089ca717ac1b095cd183fbfc42a71d0e17a7cc11ba2c",
  "confirmations": 48133,
  "height": 4965,
  "version": 1,
  "versionHex": "00000001",
  "merkleroot": "856f0d9bb89724fa6853a8b5bcb4f9922ba1d037dde2375c5cd2507fbf534190",
  "time": 1235114948,
  "mediantime": 1235111834,
  "nonce": 1048842281,
  "bits": "1d00ffff",
  "difficulty": 1,
  "chainwork": "0000000000000000000000000000000000000000000000000000136613661366",
  "nTx": 1,
  "previousblockhash": "000000001867c90f9f9ec67b6001384a3630c7d7c7c3fccd4757cc4fcc4a686b",
  "nextblockhash": "000000004f6a440a95a5d2d6c89f3e6b46587cd43f76efbaa96ef5d37ea90961",
  "strippedsize": 216,
  "size": 216,
  "weight": 864,
  "tx": [
    {
      "txid": "856f0d9bb89724fa6853a8b5bcb4f9922ba1d037dde2375c5cd2507fbf534190",
      "hash": "856f0d9bb89724fa6853a8b5bcb4f9922ba1d037dde2375c5cd2507fbf534190",
      "version": 1,
      "size": 135,
      "vsize": 135,
      "weight": 540,
      "locktime": 0,
      "vin": [
        {
          "coinbase": "04ffff001d029806",
          "sequence": 4294967295
        }
      ],
      "vout": [
        {
          "value": 50.0,
          "n": 0,
          "scriptPubKey": {
            "asm": "046212df395b684bbe0f986ae513558fa7c4a3db711a063cdcbe94376a29efa4e92bb0d421a06e75bbe668341968d424ef744237f6d724ca693b16d17d584a1030 OP_CHECKSIG",
            "desc": "pk(046212df395b684bbe0f986ae513558fa7c4a3db711a063cdcbe94376a29efa4e92bb0d421a06e75bbe668341968d424ef744237f6d724ca693b16d17d584a1030)#u0mxtt37",
            "hex": "41046212df395b684bbe0f986ae513558fa7c4a3db711a063cdcbe94376a29efa4e92bb0d421a06e75bbe668341968d424ef744237f6d724ca693b16d17d584a1030ac",
            "type": "pubkey"
          }
        }
      ],
      "hex": "01000000010000000000000000000000000000000000000000000000000000000000000000ffffffff0804ffff001d029806ffffffff0100f2052a010000004341046212df395b684bbe0f986ae513558fa7c4a3db711a063cdcbe94376a29efa4e92bb0d421a06e75bbe668341968d424ef744237f6d724ca693b16d17d584a1030ac00000000"
    }
  ]
}