{
  "hash": "00000000750b79ebcb003361963255872f9c7e8934bd09f60e510fc2e25023cb",
  "confirmations": 43380,
  "height": 9718,
  "version": 1,
  "versionHex": "00000001",
  "merkleroot": "d5814ca2df8f43f09a4c9ea313be3e0b131e778e5278e2446934cecc3a484da9",
  "time": 1238792556,
  "mediantime": 1238788319,
  "nonce": 3261024553,
  "bits": "1d00ffff",
  "difficulty": 1,
  "chainwork": "000000000000000000000000000000000000000000000000000025f725f725f7",
  "nTx": 1,
  "previousblockhash": "000000000558b35935bd19d7b8c5969feda2b7e993f4d98ff519da470520dcf7",
  "nextblockhash": "00000000c609eea603a94e64c34c8a2e9bd808d2a13d8c05eadb1a84976d249e",
  "strippedsize": 216,
  "size": 216,
  "weight": 864,
  "tx": [
    {
      "txid": "d5814ca2df8f43f09a4c9ea313be3e0b131e778e5278e2446934cecc3a484da9",
      "hash": "d5814ca2df8f43f09a4c9ea313be3e0b131e778e5278e2446934cecc3a484da9",
      "version": 1,
      "size": 135,
      "vsize": 135,
      "weight": 540,
      "locktime": 0,
      "vin": [
        {
          "coinbase": "04ffff001d02de08",
          "sequence": 4294967295
        }
      ],
      "vout": [
        {
          "value": 50.0,
          "n": 0,
          "scriptPubKey": {
            "asm": "0432611c5bb3cd533254bd4245e7238d10d895cd3ba359a6604cec6976db3a600bb38f50f9165c8b1d49396267c7020e578c6f7278116cea0a4d339f019b3df2a6 OP_CHECKSIG",
            "desc": "pk(0432611c5bb3cd533254bd4245e7238d10d895cd3ba359a6604cec6976db3a600bb38f50f9165c8b1d49396267c7020e578c6f7278116cea0a4d339f019b3df2a6)#c3f7n8e0",
            "hex": "410432611c5bb3cd533254bd4245e7238d10d895cd3ba359a6604cec6976db3a600bb38f50f9165c8b1d49396267c7020e578c6f7278116cea0a4d339f019b3df2a6ac",
            "type": "pubkey"
          }
        }
      ],
      "hex": "01000000010000000000000000000000000000000000000000000000000000000000000000ffffffff0804ffff001d02de08ffffffff0100f2052a0100000043410432611c5bb3cd533254bd4245e7238d10d895cd3ba359a6604cec6976db3a600bb38f50f9165c8b1d49396267c7020e578c6f7278116cea0a4d339f019b3df2a6ac00000000"
    }
  ]
}