{
  "hash": "000000000802b224fd80eac82d10051af5ca94b62ca50afac06edfeeec27b738",
  "confirmations": 49427,
  "height": 3671,
  "version": 1,
  "versionHex": "00000001",
  "merkleroot": "666bedf095343237c1b000cb5236ad2518abfbaef7404d177de1168f821018ab",
  "time": 1234214646,
  "mediantime": 1234211328,
  "nonce": 1874265384,
  "bits": "1d00ffff",
  "difficulty": 1,
  "chainwork": "00000000000000000000000000000000000000000000000000000e580e580e58",
  "nTx": 1,
  "previousblockhash": "000000001d5c8482b041934be1f0c142d50cd40639511f43a63f35839727c84a",
  "nextblockhash": "0000000099a190c5e30c9607241446f3494fc8bfb9fa04fb12d4b14ad494ed80",
  "strippedsize": 216,
  "size": 216,
  "weight": 864,
  "tx": [
    {
      "txid": "666bedf095343237c1b000cb5236ad2518abfbaef7404d177de1168f821018ab",
      "hash": "666bedf095343237c1b000cb5236ad2518abfbaef7404d177de1168f821018ab",
      "version": 1,
      "size": 135,
      "vsize": 135,
      "weight": 540,
      "locktime": 0,
      "vin": [
        {
          "coinbase": "04ffff001d027f09",
          "sequence": 4294967295
        }
      ],
      "vout": [
        {
          "value": 50.0,
          "n": 0,
          "scriptPubKey": {
            "asm": "0468b13cec96b35f6388d21b76a4c89a753b7c9b5078d0eea3b32c0340ba97571ee8889661efa0b8325c783af66b8d454868ec378afd636c4969966bc17559003f OP_CHECKSIG",
            "desc": "pk(0468b13cec96b35f6388d21b76a4c89a753b7c9b5078d0eea3b32c0340ba97571ee8889661efa0b8325c783af66b8d454868ec378afd636c4969966bc17559003f)#lcqupat6",
            "hex": "410468b13cec96b35f6388d21b76a4c89a753b7c9b5078d0eea3b32c0340ba97571ee8889661efa0b8325c783af66b8d454868ec378afd636c4969966bc17559003fac",
            "type": "pubkey"
          }
        }
      ],
      "hex": "01000000010000000000000000000000000000000000000000000000000000000000000000ffffffff0804ffff001d027f09ffffffff0100f2052a0100000043410468b13cec96b35f6388d21b76a4c89a753b7c9b5078d0eea3b32c0340ba97571ee8889661efa0b8325c783af66b8d454868ec378afd636c4969966bc17559003fac00000000"
    }
  ]
}