{
  "hash": "00000000cf9274eb4bc9d220d00c348a3955b3f6ab76e423bca412c7bfd288f1",
  "confirmations": 52381,
  "height": 717,
  "version": 1,
  "versionHex": "00000001",
  "merkleroot": "978fab1e24891ebbe196acabc8b7d64be4d67a81de91268374e17134b915580e",
  "time": 1232122736,
  "mediantime": 1232119286,
  "nonce": 1744409121,
  "bits": "1d00ffff",
  "difficulty": 1,
  "chainwork": "000000000000000000000000000000000000000000000000000002ce02ce02ce",
  "nTx": 1,
  "previousblockhash": "0000000002486c11d719888893ada10ad32cd618056d7ca7db047d95fe7733de",
  "nextblockhash": "000000000992f083d79cdd428b664ce97105c57fdc63049371bfa98c28dbbc79",
  "strippedsize": 215,
  "size": 215,
  "weight": 860,
  "tx": [
    {
      "txid": "978fab1e24891ebbe196acabc8b7d64be4d67a81de91268374e17134b915580e",
      "hash": "978fab1e24891ebbe196acabc8b7d64be4d67a81de91268374e17134b915580e",
      "version": 1,
      "size": 134,
      "vsize": 134,
      "weight": 536,
      "locktime": 0,
      "vin": [
        {
          "coinbase": "04ffff001d010f",
          "sequence": 4294967295
        }
      ],
      "vout": [
        {
          "value": 50.0,
          "n": 0,
          "scriptPubKey": {
            "asm": "04cf6f3af09ab6aef07d968a969f6451fc7932a0c799c059d87a0c407429cae178516e7a4cff352aad5782a5020ab9977ece8a2a3695b2563b6dcfe9087815a250 OP_CHECKSIG",
            "desc": "pk(04cf6f3af09ab6aef07d968a969f6451fc7932a0c799c059d87a0c407429cae178516e7a4cff352aad5782a5020ab9977ece8a2a3695b2563b6dcfe9087815a250)#a7elylgu",
            "hex": "4104cf6f3af09ab6aef07d968a969f6451fc7932a0c799c059d87a0c407429cae178516e7a4cff352aad5782a5020ab9977ece8a2a3695b2563b6dcfe9087815a250ac",
            "type": "pubkey"
          }
        }
      ],
      "hex": "01000000010000000000000000000000000000000000000000000000000000000000000000ffffffff0704ffff001d010fffffffff0100f2052a01000000434104cf6f3af09ab6aef07d968a969f6451fc7932a0c799c059d87a0c407429cae178516e7a4cff352aad5782a5020ab9977ece8a2a3695b2563b6dcfe9087815a250ac00000000"
    }
  ]
}