{
  "hash": "000000002923000bfc24029d479d2d76e76c106e7b0e52c359f14f81ead6fb83",
  "confirmations": 46865,
  "height": 6233,
  "version": 1,
  "versionHex": "00000001",
  "merkleroot": "005177ef3bd2d5efcedb8fccb4b3a833650437c98590c5bab3fd57aac8899ac6",
  "time": 1236119307,
  "mediantime": 1236114374,
  "nonce": 3974269484,
  "bits": "1d00ffff",
  "difficulty": 1,
  "chainwork": "0000000000000000000000000000000000000000000000000000185a185a185a",
  "nTx": 1,
  "previousblockhash": "0000000032a84330f142107f584cc68e863e2a95c917229d322abe4c6a8b9656",
  "nextblockhash": "0000000029ff793789bb72d3d977d63ac24dcbc7e60512fae5430a35ec480049",
  "strippedsize": 216,
  "size": 216,
  "weight": 864,
  "tx": [
    {
      "txid": "005177ef3bd2d5efcedb8fccb4b3a833650437c98590c5bab3fd57aac8899ac6",
      "hash": "005177ef3bd2d5efcedb8fccb4b3a833650437c98590c5bab3fd57aac8899ac6",
      "version": 1,
      "size": 135,
      "vsize": 135,
      "weight": 540,
      "locktime": 0,
      "vin": [
        {
          "coinbase": "04ffff001d022e09",
          "sequence": 4294967295
        }
      ],
      "vout": [
        {
          "value": 50.0,
          "n": 0,
          "scriptPubKey": {
            "asm": "04b5cd377d219e039bde6f23345c329d59ca44e0e0a890e0c9501deecf2b746f43436b0e0ddb68d64bcd2d6ae3e06b487e0a09c09831d9d2f649f6929cbd5f99bb OP_CHECKSIG",
            "desc": "pk(04b5cd377d219e039bde6f23345c329d59ca44e0e0a890e0c9501deecf2b746f43436b0e0ddb68d64bcd2d6ae3e06b487e0a09c09831d9d2f649f6929cbd5f99bb)#gchuymx7",
            "hex": "4104b5cd377d219e039bde6f23345c329d59ca44e0e0a890e0c9501deecf2b746f43436b0e0ddb68d64bcd2d6ae3e06b487e0a09c09831d9d2f649f6929cbd5f99bbac",
            "type": "pubkey"
          }
        }
      ],
      "hex": "01000000010000000000000000000000000000000000000000000000000000000000000000ffffffff0804ffff001d022e09ffffffff0100f2052a01000000434104b5cd377d219e039bde6f23345c329d59ca44e0e0a890e0c9501deecf2b746f43436b0e0ddb68d64bcd2d6ae3e06b487e0a09c09831d9d2f649f6929cbd5f99bbac00000000"
    }
  ]
}