{
  "hash": "0000000010760b88f8a59cf04f2f4abe7c7421619fe2f5248ed24ca0001952e8",
  "confirmations": 47865,
  "height": 5233,
  "version": 1,
  "versionHex": "00000001",
  "merkleroot": "9463afa46e0b15d8a24344e1c100e19e9536e2eaab49d9e358c5fcba89d6c7fe",
  "time": 1235311556,
  "mediantime": 1235308130,
  "nonce": 1317135157,
  "bits": "1d00ffff",
  "difficulty": 1,
  "chainwork": "0000000000000000000000000000000000000000000000000000147214721472",
  "nTx": 1,
  "previousblockhash": "000000003d7f565bb3875bc5a3469891543bfed8d6d05e770bf63ea2e7ac8f1d",
  "nextblockhash": "00000000cf0967a75cf5c6c111b6379184e70665c4d5450370355423ca9da917",
  "strippedsize": 216,
  "size": 216,
  "weight": 864,
  "tx": [
    {
      "txid": "9463afa46e0b15d8a24344e1c100e19e9536e2eaab49d9e358c5fcba89d6c7fe",
      "hash": "9463afa46e0b15d8a24344e1c100e19e9536e2eaab49d9e358c5fcba89d6c7fe",
      "version": 1,
      "size": 135,
      "vsize": 135,
      "weight": 540,
      "locktime": 0,
      "vin": [
        {
          "coinbase": "04ffff001d020301",
          "sequence": 4294967295
        }
      ],
      "vout": [
        {
          "value": 50.0,
          "n": 0,
          "scriptPubKey": {
            "asm": "0439fb51576eda62e988c54c5a7a7148f330dba9fe03d919acc13bbd52c11fb3e37e6a92ebc311eec9ed4c1e96cc8142a238d63da0dbe2f77ae1d879fd67c916cb OP_CHECKSIG",
            "desc": "pk(0439fb51576eda62e988c54c5a7a7148f330dba9fe03d919acc13bbd52c11fb3e37e6a92ebc311eec9ed4c1e96cc8142a238d63da0dbe2f77ae1d879fd67c916cb)#rd6dr728",
            "hex": "410439fb51576eda62e988c54c5a7a7148f330dba9fe03d919acc13bbd52c11fb3e37e6a92ebc311eec9ed4c1e96cc8142a238d63da0dbe2f77ae1d879fd67c916cbac",
            "type": "pubkey"
          }
        }
      ],
      "hex": "01000000010000000000000000000000000000000000000000000000000000000000000000ffffffff0804ffff001d020301ffffffff0100f2052a0100000043410439fb51576eda62e988c54c5a7a7148f330dba9fe03d919acc13bbd52c11fb3e37e6a92ebc311eec9ed4c1e96cc8142a238d63da0dbe2f77ae1d879fd67c916cbac00000000"
    }
  ]
}