{
  "hash": "000000001e146282060620f817e7665d9a815b2ea955d1de5e0cc7061592ee2b",
  "confirmations": 49989,
  "height": 3109,
  "version": 1,
  "versionHex": "00000001",
  "merkleroot": "0fc0f3b9e8e89adf764a1755091d976da6b20bc014d0ef153132bfdd5651c3ad",
  "time": 1233841349,
  "mediantime": 1233837695,
  "nonce": 3012227364,
  "bits": "1d00ffff",
  "difficulty": 1,
  "chainwork": "00000000000000000000000000000000000000000000000000000c260c260c26",
  "nTx": 1,
  "previousblockhash": "00000000c6bf37659ded32d61de724202589c3450efce4a5c23e18f83efc4b31",
  "nextblockhash": "0000000076fefd20ace103c5c6d9335c61a563d0ed5ee08b3ccdeaf0bcd6aba0",
  "strippedsize": 216,
  "size": 216,
  "weight": 864,
  "tx": [
    {
      "txid": "0fc0f3b9e8e89adf764a1755091d976da6b20bc014d0ef153132bfdd5651c3ad",
      "hash": "0fc0f3b9e8e89adf764a1755091d976da6b20bc014d0ef153132bfdd5651c3ad",
      "version": 1,
      "size": 135,
      "vsize": 135,
      "weight": 540,
      "locktime": 0,
      "vin": [
        {
          "coinbase": "04ffff001d025501",
          "sequence": 4294967295
        }
      ],
      "vout": [
        {
          "value": 50.0,
          "n": 0,
          "scriptPubKey": {
            "asm": "04f66fd90af748d9df0a9f58ef63f3d66d30eb04bfd39d3ccc0e909a55035456ff6f03b16ee14da31bfdc35989c29bd42bc31c3e88a0d32a3ec146e17a296f9828 OP_CHECKSIG",
            "desc": "pk(04f66fd90af748d9df0a9f58ef63f3d66d30eb04bfd39d3ccc0e909a55035456ff6f03b16ee14da31bfdc35989c29bd42bc31c3e88a0d32a3ec146e17a296f9828)#fet8gy8l",
            "hex": "4104f66fd90af748d9df0a9f58ef63f3d66d30eb04bfd39d3ccc0e909a55035456ff6f03b16ee14da31bfdc35989c29bd42bc31c3e88a0d32a3ec146e17a296f9828ac",
            "type": "pubkey"
          }
        }
      ],
      "hex": "01000000010000000000000000000000000000000000000000000000000000000000000000ffffffff0804ffff001d025501ffffffff0100f2052a01000000434104f66fd90af748d9df0a9f58ef63f3d66d30eb04bfd39d3ccc0e909a55035456ff6f03b16ee14da31bfdc35989c29bd42bc31c3e88a0d32a3ec146e17a296f9828ac00000000"
    }
  ]
}