{
  "hash": "000000001c5e1c8d9368ad6d4d7101a6176525856fd6aa81ca6b8b6ce25782a8",
  "confirmations": 47331,
  "height": 5767,
  "version": 1,
  "versionHex": "00000001",
  "merkleroot": "6994fdb92c18baecfa2383f28d5f492132481de9a93a65604ff5633b1a615b03",
  "time": 1235735507,
  "mediantime": 1235732018,
  "nonce": 2346915628,
  "bits": "1d00ffff",
  "difficulty": 1,
  "chainwork": "0000000000000000000000000000000000000000000000000000168816881688",
  "nTx": 1,
  "previousblockhash": "0000000040073d53f6a78dd20709a045a2cc448a428f235740744e5b36bb8571",
  "nextblockhash": "00000000ed97861e301d7d21c0f626ee2bd6827dc2c4ef1c1a34d991ceb8a9a8",
  "strippedsize": 215,
  "size": 215,
  "weight": 860,
  "tx": [
    {
      "txid": "6994fdb92c18baecfa2383f28d5f492132481de9a93a65604ff5633b1a615b03",
      "hash": "6994fdb92c18baecfa2383f28d5f492132481de9a93a65604ff5633b1a615b03",
      "version": 1,
      "size": 134,
      "vsize": 134,
      "weight": 536,
      "locktime": 0,
      "vin": [
        {
          "coinbase": "04ffff001d013d",
          "sequence": 4294967295
        }
      ],
      "vout": [
        {
          "value": 50.0,
          "n": 0,
          "scriptPubKey": {
            "asm": "04b9cd879b1c61b4bf0a128418cbd2347d82d801c560167d78cbb984b1e3944e9d9c8d1b6887fb3d82b5d7a0bea5db8df4f29d231522c3316287234f210083122a OP_CHECKSIG",
            "desc": "pk(04b9cd879b1c61b4bf0a128418cbd2347d82d801c560167d78cbb984b1e3944e9d9c8d1b6887fb3d82b5d7a0bea5db8df4f29d231522c3316287234f210083122a)#sjanp8gk",
            "hex": "4104b9cd879b1c61b4bf0a128418cbd2347d82d801c560167d78cbb984b1e3944e9d9c8d1b6887fb3d82b5d7a0bea5db8df4f29d231522c3316287234f210083122aac",
            "type": "pubkey"
          }
        }
      ],
      "hex": "01000000010000000000000000000000000000000000000000000000000000000000000000ffffffff0704ffff001d013dffffffff0100f2052a01000000434104b9cd879b1c61b4bf0a128418cbd2347d82d801c560167d78cbb984b1e3944e9d9c8d1b6887fb3d82b5d7a0bea5db8df4f29d231522c3316287234f210083122aac00000000"
    }
  ]
}