{
  "hash": "00000000b428c06480f909c7424c17c292c2068b5b52584010aeda8294ca89d3",
  "confirmations": 44089,
  "height": 9009,
  "version": 1,
  "versionHex": "00000001",
  "merkleroot": "d46af82dd7a8bdf4d451bd53a5f8164d9808a9930598bbd384520dfe17b8eabd",
  "time": 1238258296,
  "mediantime": 1238254717,
  "nonce": 1367934245,
  "bits": "1d00ffff",
  "difficulty": 1,
  "chainwork": "0000000000000000000000000000000000000000000000000000233223322332",
  "nTx": 1,
  "previousblockhash": "000000007c4ac02d6a442170cc02dd26e1cb9e98d8e20c5d80b431d1fe2c9fc7",
  "nextblockhash": "00000000dfe0e38f6081da0a6de538fe8643cd25cb7c350e7cf1ce42dda179fe",
  "strippedsize": 216,
  "size": 216,
  "weight": 864,
  "tx": [
    {
      "txid": "d46af82dd7a8bdf4d451bd53a5f8164d9808a9930598bbd384520dfe17b8eabd",
      "hash": "d46af82dd7a8bdf4d451bd53a5f8164d9808a9930598bbd384520dfe17b8eabd",
      "version": 1,
      "size": 135,
      "vsize": 135,
      "weight": 540,
      "locktime": 0,
      "vin": [
        {
          "coinbase": "04ffff001d029206",
          "sequence": 4294967295
        }
      ],
      "vout": [
        {
          "value": 50.0,
          "n": 0,
          "scriptPubKey": {
            "asm": "04915b2d262f63fb190407f171c056c6b2ec6746ff3f5fe8784dc8bc5fb03434bbdffac950954a4492d01b80e0df235248d9a765d3ecc7a5e760aa0a7b61882c81 OP_CHECKSIG",
            "desc": "pk(04915b2d262f63fb190407f171c056c6b2ec6746ff3f5fe8784dc8bc5fb03434bbdffac950954a4492d01b80e0df235248d9a765d3ecc7a5e760aa0a7b61882c81)#znzn4a0c",
            "hex": "4104915b2d262f63fb190407f171c056c6b2ec6746ff3f5fe8784dc8bc5fb03434bbdffac950954a4492d01b80e0df235248d9a765d3ecc7a5e760aa0a7b61882c81ac",
            "type": "pubkey"
          }
        }
      ],
      "hex": "01000000010000000000000000000000000000000000000000000000000000000000000000ffffffff0804ffff001d029206ffffffff0100f2052a01000000434104915b2d262f63fb190407f171c056c6b2ec6746ff3f5fe8784dc8bc5fb03434bbdffac950954a4492d01b80e0df235248d9a765d3ecc7a5e760aa0a7b61882c81ac00000000"
    }
  ]
}