{
  "hash": "00000000650ad0f1f060426ec82b72ac3e8c58ccb7a37f3e52e1e06cff6d8c83",
  "confirmations": 45140,
  "height": 7958,
  "version": 1,
  "versionHex": "00000001",
  "merkleroot": "2522089b7cd81b0974e33dc1b2ba8c014252997b4425bd46e53c5f656723d28a",
  "time": 1237432294,
  "mediantime": 1237429268,
  "nonce": 630680616,
  "bits": "1d00ffff",
  "difficulty": 1,
  "chainwork": "00000000000000000000000000000000000000000000000000001f171f171f17",
  "nTx": 1,
  "previousblockhash": "000000008f9123170d2400afbf2210e38006f199cd2cce0771c55a06278b2082",
  "nextblockhash": "000000000e8b374bf0431c12e88277498439247081dba19d5ee183fd8e833f8a",
  "strippedsize": 216,
  "size": 216,
  "weight": 864,
  "tx": [
    {
      "txid": "2522089b7cd81b0974e33dc1b2ba8c014252997b4425bd46e53c5f656723d28a",
      "hash": "2522089b7cd81b0974e33dc1b2ba8c014252997b4425bd46e53c5f656723d28a",
      "version": 1,
      "size": 135,
      "vsize": 135,
      "weight": 540,
      "locktime": 0,
      "vin": [
        {
          "coinbase": "04ffff001d028d08",
          "sequence": 4294967295
        }
      ],
      "vout": [
        {
          "value": 50.0,
          "n": 0,
          "scriptPubKey": {
            "asm": "04a050f4f997bc6ef97035e3afa333ca5b6f4746501e9b34b1c0965804c793e16f6aca8ecb8348ebfd11cd6f63318b83f733590dfac7838e7b2a5dacac9608622a OP_CHECKSIG",
            "desc": "pk(04a050f4f997bc6ef97035e3afa333ca5b6f4746501e9b34b1c0965804c793e16f6aca8ecb8348ebfd11cd6f63318b83f733590dfac7838e7b2a5dacac9608622a)#6fmlnzzs",
            "hex": "4104a050f4f997bc6ef97035e3afa333ca5b6f4746501e9b34b1c0965804c793e16f6aca8ecb8348ebfd11cd6f63318b83f733590dfac7838e7b2a5dacac9608622aac",
            "type": "pubkey"
          }
        }
      ],
      "hex": "01000000010000000000000000000000000000000000000000000000000000000000000000ffffffff0804ffff001d028d08ffffffff0100f2052a01000000434104a050f4f997bc6ef97035e3afa333ca5b6f4746501e9b34b1c0965804c793e16f6aca8ecb8348ebfd11cd6f63318b83f733590dfac7838e7b2a5dacac9608622aac00000000"
    }
  ]
}