{
  "hash": "00000000d454b939589eb57f33777401abcf0b3c98dfe2bd382f3b8981081381",
  "confirmations": 51012,
  "height": 2086,
  "version": 1,
  "versionHex": "00000001",
  "merkleroot": "5c58aee707a1862a4c986aa0e4eddd0399d10fc7b19b31908c86b2c0b9eff0d3",
  "time": 1233127920,
  "mediantime": 1233124789,
  "nonce": 2971345690,
  "bits": "1d00ffff",
  "difficulty": 1,
  "chainwork": "0000000000000000000000000000000000000000000000000000082708270827",
  "nTx": 1,
  "previousblockhash": "00000000b574c7d2a83ac3ebe9fb668fad4fda4e79b03d4035281625f771d9d9",
  "nextblockhash": "0000000081ca9f4af00279e8f559f2cfa00488b1c0241420df48ab50a46f4abd",
  "strippedsize": 216,
  "size": 216,
  "weight": 864,
  "tx": [
    {
      "txid": "5c58aee707a1862a4c986aa0e4eddd0399d10fc7b19b31908c86b2c0b9eff0d3",
      "hash": "5c58aee707a1862a4c986aa0e4eddd0399d10fc7b19b31908c86b2c0b9eff0d3",
      "version": 1,
      "size": 135,
      "vsize": 135,
      "weight": 540,
      "locktime": 0,
      "vin": [
        {
          "coinbase": "04ffff001d027803",
          "sequence": 4294967295
        }
      ],
      "vout": [
        {
          "value": 50.0,
          "n": 0,
          "scriptPubKey": {
            "asm": "049f6f647a964197d7038f71ca87c225a4f1bc21d9215069c2347e82256d8baf1ecfcee9c92e162c62966d9b7556dad323d47e7af569d3f203c973d7e93a49a48c OP_CHECKSIG",
            "desc": "pk(049f6f647a964197d7038f71ca87c225a4f1bc21d9215069c2347e82256d8baf1ecfcee9c92e162c62966d9b7556dad323d47e7af569d3f203c973d7e93a49a48c)#ykgwwhee",
            "hex": "41049f6f647a964197d7038f71ca87c225a4f1bc21d9215069c2347e82256d8baf1ecfcee9c92e162c62966d9b7556dad323d47e7af569d3f203c973d7e93a49a48cac",
            "type": "pubkey"
          }
        }
      ],
      "hex": "01000000010000000000000000000000000000000000000000000000000000000000000000ffffffff0804ffff001d027803ffffffff0100f2052a010000004341049f6f647a964197d7038f71ca87c225a4f1bc21d9215069c2347e82256d8baf1ecfcee9c92e162c62966d9b7556dad323d47e7af569d3f203c973d7e93a49a48cac00000000"
    }
  ]
}