{
  "hash": "0000000026aab7cda3077736591040d50a80a40b6654ddd5f080b91a6f2b99a6",
  "confirmations": 51477,
  "height": 1621,
  "version": 1,
  "versionHex": "00000001",
  "merkleroot": "1ea7582f645a225fbb0b4ab429033ba9c50b27fadb734bf5572f72b81dae2391",
  "time": 1232820444,
  "mediantime": 1232818104,
  "nonce": 98161321,
  "bits": "1d00ffff",
  "difficulty": 1,
  "chainwork": "0000000000000000000000000000000000000000000000000000065606560656",
  "nTx": 1,
  "previousblockhash": "00000000896aa7735d5a1f1e4702f17425abaa2112e7736c67b8d3cc1ca90fea",
  "nextblockhash": "00000000ccdabc8da7cfade006e318da72afdd3fc48102b960722313d087382f",
  "strippedsize": 216,
  "size": 216,
  "weight": 864,
  "tx": [
    {
      "txid": "1ea7582f645a225fbb0b4ab429033ba9c50b27fadb734bf5572f72b81dae2391",
      "hash": "1ea7582f645a225fbb0b4ab429033ba9c50b27fadb734bf5572f72b81dae2391",
      "version": 1,
      "size": 135,
      "vsize": 135,
      "weight": 540,
      "locktime": 0,
      "vin": [
        {
          "coinbase": "04ffff001d02bf01",
          "sequence": 4294967295
        }
      ],
      "vout": [
        {
          "value": 50.0,
          "n": 0,
          "scriptPubKey": {
            "asm": "0422a1535937acad6a4aae90e8d860a3ce7921644fbd5efa9bfde5c51832dc7acc451d166f1adf58faf0103badb59384952fa08bb7e51ba4a2e539fc87da300d54 OP_CHECKSIG",
            "desc": "pk(0422a1535937acad6a4aae90e8d860a3ce7921644fbd5efa9bfde5c51832dc7acc451d166f1adf58faf0103badb59384952fa08bb7e51ba4a2e539fc87da300d54)#07y0pw29",
            "hex": "410422a1535937acad6a4aae90e8d860a3ce7921644fbd5efa9bfde5c51832dc7acc451d166f1adf58faf0103badb59384952fa08bb7e51ba4a2e539fc87da300d54ac",
            "type": "pubkey"
          }
        }
      ],
      "hex": "01000000010000000000000000000000000000000000000000000000000000000000000000ffffffff0804ffff001d02bf01ffffffff0100f2052a0100000043410422a1535937acad6a4aae90e8d860a3ce7921644fbd5efa9bfde5c51832dc7acc451d166f1adf58faf0103badb59384952fa08bb7e51ba4a2e539fc87da300d54ac00000000"
    }
  ]
}