{
  "hash": "0000000001128326262ef6ae9d1a332d7d2893287a6943d83c756afc06dd81d3",
  "confirmations": 43111,
  "height": 9987,
  "version": 1,
  "versionHex": "00000001",
  "merkleroot": "0cac9e61db0c24b840b1527cb06e65b76192d5970fd0fb601fbcdb620b6b1ca1",
  "time": 1238980029,
  "mediantime": 1238976882,
  "nonce": 3103150876,
  "bits": "1d00ffff",
  "difficulty": 1,
  "chainwork": "0000000000000000000000000000000000000000000000000000270427042704",
  "nTx": 1,
  "previousblockhash": "00000000d03697646ccb60f11e360d5bfb0416885db1fe89b42921af7557df49",
  "nextblockhash": "0000000060420f7b7e05878eec12daf34f5960ea4eb7e70fdc64ae3184593628",
  "strippedsize": 216,
  "size": 216,
  "weight": 864,
  "tx": [
    {
      "txid": "0cac9e61db0c24b840b1527cb06e65b76192d5970fd0fb601fbcdb620b6b1ca1",
      "hash": "0cac9e61db0c24b840b1527cb06e65b76192d5970fd0fb601fbcdb620b6b1ca1",
      "version": 1,
      "size": 135,
      "vsize": 135,
      "weight": 540,
      "locktime": 0,
      "vin": [
        {
          "coinbase": "04ffff001d022f03",
          "sequence": 4294967295
        }
      ],
      "vout": [
        {
          "value": 50.0,
          "n": 0,
          "scriptPubKey": {
            "asm": "047419084089d228400fda64a875f944c5aeeb16c764d7c61cbc6a5bc3253ac7258f22d28d08785ce5014169c3a8cb83b46d447161ec778fa4543f2f09c5a3bfe0 OP_CHECKSIG",
            "desc": "pk(047419084089d228400fda64a875f944c5aeeb16c764d7c61cbc6a5bc3253ac7258f22d28d08785ce5014169c3a8cb83b46d447161ec778fa4543f2f09c5a3bfe0)#s994h99d",
            "hex": "41047419084089d228400fda64a875f944c5aeeb16c764d7c61cbc6a5bc3253ac7258f22d28d08785ce5014169c3a8cb83b46d447161ec778fa4543f2f09c5a3bfe0ac",
            "type": "pubkey"
          }
        }
      ],
      "hex": "01000000010000000000000000000000000000000000000000000000000000000000000000ffffffff0804ffff001d022f03ffffffff0100f2052a010000004341047419084089d228400fda64a875f944c5aeeb16c764d7c61cbc6a5bc3253ac7258f22d28d08785ce5014169c3a8cb83b46d447161ec778fa4543f2f09c5a3bfe0ac00000000"
    }
  ]
}