{
  "hash": "00000000108e2d7ab83a34e3d4ab2eb807b9651370eec39ab33c3f52c897af4d",
  "confirmations": 47561,
  "height": 5537,
  "version": 1,
  "versionHex": "00000001",
  "merkleroot": "706b51249ee595a71c61c751e1c597657b5f486adc57bd4e3ff945cc5922e9b7",
  "time": 1235550657,
  "mediantime": 1235545779,
  "nonce": 4060426785,
  "bits": "1d00ffff",
  "difficulty": 1,
  "chainwork": "000000000000000000000000000000000000000000000000000015a215a215a2",
  "nTx": 1,
  "previousblockhash": "00000000baa5e5244596c280cc198968a08000ab1147156d9d12499857404542",
  "nextblockhash": "0000000093cad29af9f1a453c1788d661e1f03973b3de7a5d9895b5089b3560c",
  "strippedsize": 216,
  "size": 216,
  "weight": 864,
  "tx": [
    {
      "txid": "706b51249ee595a71c61c751e1c597657b5f486adc57bd4e3ff945cc5922e9b7",
      "hash": "706b51249ee595a71c61c751e1c597657b5f486adc57bd4e3ff945cc5922e9b7",
      "version": 1,
      "size": 135,
      "vsize": 135,
      "weight": 540,
      "locktime": 0,
      "vin": [
        {
          "coinbase": "04ffff001d025806",
          "sequence": 4294967295
        }
      ],
      "vout": [
        {
          "value": 50.0,
          "n": 0,
          "scriptPubKey": {
            "asm": "04a5c350273bfca943c62b6c37206db6d25abfe41bde6424b65ad6402d300b54615d621d9bff29b12a15f774d27813e77466fde16477d645f87502b8c36103217f OP_CHECKSIG",
            "desc": "pk(04a5c350273bfca943c62b6c37206db6d25abfe41bde6424b65ad6402d300b54615d621d9bff29b12a15f774d27813e77466fde16477d645f87502b8c36103217f)#d4y252q5",
            "hex": "4104a5c350273bfca943c62b6c37206db6d25abfe41bde6424b65ad6402d300b54615d621d9bff29b12a15f774d27813e77466fde16477d645f87502b8c36103217fac",
            "type": "pubkey"
          }
        }
      ],
      "hex": "01000000010000000000000000000000000000000000000000000000000000000000000000ffffffff0804ffff001d025806ffffffff0100f2052a01000000434104a5c350273bfca943c62b6c37206db6d25abfe41bde6424b65ad6402d300b54615d621d9bff29b12a15f774d27813e77466fde16477d645f87502b8c36103217fac00000000"
    }
  ]
}