{
  "hash": "000000009f8cbf3db9d1f6cd6e63f63e2263f076c627c85c6f0d20c2799e3ec7",
  "confirmations": 44704,
  "height": 8394,
  "version": 1,
  "versionHex": "00000001",
  "merkleroot": "e212781355f1bd897f107754f3ea28fca8fc318af60c274e30c8d6f237496a3e",
  "time": 1237796542,
  "mediantime": 1237794097,
  "nonce": 1839449138,
  "bits": "1d00ffff",
  "difficulty": 1,
  "chainwork": "000000000000000000000000000000000000000000000000000020cb20cb20cb",
  "nTx": 1,
  "previousblockhash": "0000000087eb2754f103d00a024c6960cc4ce6fcc5301243a4e95b4b0402af8b",
  "nextblockhash": "000000004ca7fba723ae087aa3f24661d8659eb8a76a650af846d13c6e9e4e9f",
  "strippedsize": 216,
  "size": 216,
  "weight": 864,
  "tx": [
    {
      "txid": "e212781355f1bd897f107754f3ea28fca8fc318af60c274e30c8d6f237496a3e",
      "hash": "e212781355f1bd897f107754f3ea28fca8fc318af60c274e30c8d6f237496a3e",
      "version": 1,
      "size": 135,
      "vsize": 135,
      "weight": 540,
      "locktime": 0,
      "vin": [
        {
          "coinbase": "04ffff001d02db05",
          "sequence": 4294967295
        }
      ],
      "vout": [
        {
          "value": 50.0,
          "n": 0,
          "scriptPubKey": {
            "asm": "040e13421a9d74bf6754c7ed1e79c2e6d0f676b65a484772e5a4695b1f2618dd09ee790c96fa8fe282bf755afb720d658c66d632f915301f30f4d04d9ad78ee0f9 OP_CHECKSIG",
            "desc": "pk(040e13421a9d74bf6754c7ed1e79c2e6d0f676b65a484772e5a4695b1f2618dd09ee790c96fa8fe282bf755afb720d658c66d632f915301f30f4d04d9ad78ee0f9)#dc7kp4mp",
            "hex": "41040e13421a9d74bf6754c7ed1e79c2e6d0f676b65a484772e5a4695b1f2618dd09ee790c96fa8fe282bf755afb720d658c66d632f915301f30f4d04d9ad78ee0f9ac",
            "type": "pubkey"
          }
        }
      ],
      "hex": "01000000010000000000000000000000000000000000000000000000000000000000000000ffffffff0804ffff001d02db05ffffffff0100f2052a010000004341040e13421a9d74bf6754c7ed1e79c2e6d0f676b65a484772e5a4695b1f2618dd09ee790c96fa8fe282bf755afb720d658c66d632f915301f30f4d04d9ad78ee0f9ac00000000"
    }
  ]
}