{
  "hash": "00000000f92ea7ff4bd3b5e38398f7b29418a8bdff2ce2c218a460267c2899df",
  "confirmations": 43239,
  "height": 9859,
  "version": 1,
  "versionHex": "00000001",
  "merkleroot": "1c53165b73a4dc46d2cefa34250c07de5c733b027069520102eb39434057659f",
  "time": 1238897780,
  "mediantime": 1238895059,
  "nonce": 91723783,
  "bits": "1d00ffff",
  "difficulty": 1,
  "chainwork": "0000000000000000000000000000000000000000000000000000268426842684",
  "nTx": 1,
  "previousblockhash": "00000000a812372e679bff99c76b9e3e7d7f0a41ba2686d000bc20d4f83e68b3",
  "nextblockhash": "000000007950f5084d1ca62f03e0d2d838d492ba502805ac316a888eb12ba5d8",
  "strippedsize": 216,
  "size": 216,
  "weight": 864,
  "tx": [
    {
      "txid": "1c53165b73a4dc46d2cefa34250c07de5c733b027069520102eb39434057659f",
      "hash": "1c53165b73a4dc46d2cefa34250c07de5c733b027069520102eb39434057659f",
      "version": 1,
      "size": 135,
      "vsize": 135,
      "weight": 540,
      "locktime": 0,
      "vin": [
        {
          "coinbase": "04ffff001d02e000",
          "sequence": 4294967295
        }
      ],
      "vout": [
        {
          "value": 50.0,
          "n": 0,
          "scriptPubKey": {
            "asm": "04eb415c2e6f284cd76f7e96cdbe52bf75db1953b26936313fbba32721416fd81fc898142275d2957a26b8a12b346dc173d01509e7ca705923852460c86601d55b OP_CHECKSIG",
            "desc": "pk(04eb415c2e6f284cd76f7e96cdbe52bf75db1953b26936313fbba32721416fd81fc898142275d2957a26b8a12b346dc173d01509e7ca705923852460c86601d55b)#3g9zp77r",
            "hex": "4104eb415c2e6f284cd76f7e96cdbe52bf75db1953b26936313fbba32721416fd81fc898142275d2957a26b8a12b346dc173d01509e7ca705923852460c86601d55bac",
            "type": "pubkey"
          }
        }
      ],
      "hex": "01000000010000000000000000000000000000000000000000000000000000000000000000ffffffff0804ffff001d02e000ffffffff0100f2052a01000000434104eb415c2e6f284cd76f7e96cdbe52bf75db1953b26936313fbba32721416fd81fc898142275d2957a26b8a12b346dc173d01509e7ca705923852460c86601d55bac00000000"
    }
  ]
}