{
  "hash": "000000004349a949fb70c61c113f3f04ffdefc652bdf61ac2fc968658404a47d",
  "confirmations": 45943,
  "height": 7155,
  "version": 1,
  "versionHex": "00000001",
  "merkleroot": "3aad3ebdea8e4d686dae2036a691cc690d4f898040efcd783ece7666a584f56f",
  "time": 1236838418,
  "mediantime": 1236836240,
  "nonce": 1130709553,
  "bits": "1d00ffff",
  "difficulty": 1,
  "chainwork": "00000000000000000000000000000000000000000000000000001bf41bf41bf4",
  "nTx": 1,
  "previousblockhash": "000000002aee7320ff8012e0097de4de3ee17bb8d7533054ab2e64f822cc02e7",
  "nextblockhash": "0000000029b9a0a930d3e3e15926ab346b188220d67a07bf45b9419c5da77893",
  "strippedsize": 216,
  "size": 216,
  "weight": 864,
  "tx": [
    {
      "txid": "3aad3ebdea8e4d686dae2036a691cc690d4f898040efcd783ece7666a584f56f",
      "hash": "3aad3ebdea8e4d686dae2036a691cc690d4f898040efcd783ece7666a584f56f",
      "version": 1,
      "size": 135,
      "vsize": 135,
      "weight": 540,
      "locktime": 0,
      "vin": [
        {
          "coinbase": "04ffff001d02f704",
          "sequence": 4294967295
        }
      ],
      "vout": [
        {
          "value": 50.0,
          "n": 0,
          "scriptPubKey": {
            "asm": "04cca40aeace0c2b5adc5d23e5c0e45762327fb6ad7a7d5300d8a056be0886dba84c12a3ce1c1623e7c8b838c9538b078afeeeb6fd59e8e6956fbdb07fd5af281c OP_CHECKSIG",
            "desc": "pk(04cca40aeace0c2b5adc5d23e5c0e45762327fb6ad7a7d5300d8a056be0886dba84c12a3ce1c1623e7c8b838c9538b078afeeeb6fd59e8e6956fbdb07fd5af281c)#7z6tkmm5",
            "hex": "4104cca40aeace0c2b5adc5d23e5c0e45762327fb6ad7a7d5300d8a056be0886dba84c12a3ce1c1623e7c8b838c9538b078afeeeb6fd59e8e6956fbdb07fd5af281cac",
            "type": "pubkey"
          }
        }
      ],
      "hex": "01000000010000000000000000000000000000000000000000000000000000000000000000ffffffff0804ffff001d02f704ffffffff0100f2052a01000000434104cca40aeace0c2b5adc5d23e5c0e45762327fb6ad7a7d5300d8a056be0886dba84c12a3ce1c1623e7c8b838c9538b078afeeeb6fd59e8e6956fbdb07fd5af281cac00000000"
    }
  ]
}