{
  "hash": "0000000042ec50926bc6e547e89a2bcc339fa4104a321437dbb79d58cbe19da8",
  "confirmations": 46552,
  "height": 6546,
  "version": 1,
  "versionHex": "00000001",
  "merkleroot": "730683983572ffd5bcfd8cca1f2be72b9c89fe77abc0e9c6c03ceacca31438e1",
  "time": 1236362304,
  "mediantime": 1236359451,
  "nonce": 3992769543,
  "bits": "1d00ffff",
  "difficulty": 1,
  "chainwork": "0000000000000000000000000000000000000000000000000000199319931993",
  "nTx": 1,
  "previousblockhash": "0000000067e2d396553dc6a1016e183f46562a5ce47da525dbca207736916829",
  "nextblockhash": "00000000e0d9aafea15349436e44e9d256531d1db3d99d78b7c15c8655085d19",
  "strippedsize": 216,
  "size": 216,
  "weight": 864,
  "tx": [
    {
      "txid": "730683983572ffd5bcfd8cca1f2be72b9c89fe77abc0e9c6c03ceacca31438e1",
      "hash": "730683983572ffd5bcfd8cca1f2be72b9c89fe77abc0e9c6c03ceacca31438e1",
      "version": 1,
      "size": 135,
      "vsize": 135,
      "weight": 540,
      "locktime": 0,
      "vin": [
        {
          "coinbase": "04ffff001d024a04",
          "sequence": 4294967295
        }
      ],
      "vout": [
        {
          "value": 50.0,
          "n": 0,
          "scriptPubKey": {
            "asm": "04bd37069889cbc836d75d403d0ab9779043ec6fed5c78099c1492586b797d55f3992b68186dc9ffa8d60bf06d4c7f8fb9a35092e12f854c9dbd14d45ed6d4327b OP_CHECKSIG",
            "desc": "pk(04bd37069889cbc836d75d403d0ab9779043ec6fed5c78099c1492586b797d55f3992b68186dc9ffa8d60bf06d4c7f8fb9a35092e12f854c9dbd14d45ed6d4327b)#hdkahnt8",
            "hex": "4104bd37069889cbc836d75d403d0ab9779043ec6fed5c78099c1492586b797d55f3992b68186dc9ffa8d60bf06d4c7f8fb9a35092e12f854c9dbd14d45ed6d4327bac",
            "type": "pubkey"
          }
        }
      ],
      "hex": "01000000010000000000000000000000000000000000000000000000000000000000000000ffffffff0804ffff001d024a04ffffffff0100f2052a01000000434104bd37069889cbc836d75d403d0ab9779043ec6fed5c78099c1492586b797d55f3992b68186dc9ffa8d60bf06d4c7f8fb9a35092e12f854c9dbd14d45ed6d4327bac00000000"
    }
  ]
}