{
  "hash": "000000007fda9f0206d4f5ebe5f948da07b65905b63788af377e9134b0b12a88",
  "confirmations": 46999,
  "height": 6099,
  "version": 1,
  "versionHex": "00000001",
  "merkleroot": "782366bb5850cd4edf33fb74ae69f9a2518ffd6623427df8dff862f9f3aeb651",
  "time": 1236008627,
  "mediantime": 1236003090,
  "nonce": 2038045493,
  "bits": "1d00ffff",
  "difficulty": 1,
  "chainwork": "000000000000000000000000000000000000000000000000000017d417d417d4",
  "nTx": 1,
  "previousblockhash": "000000001e17043848bdb3618e9b9d4e6cf3978c5d7fbef38051417cb2c519d5",
  "nextblockhash": "00000000707f5eba0caca3b6e725956e92c62f68c114a239f49ca9cf2b043801",
  "strippedsize": 216,
  "size": 216,
  "weight": 864,
  "tx": [
    {
      "txid": "782366bb5850cd4edf33fb74ae69f9a2518ffd6623427df8dff862f9f3aeb651",
      "hash": "782366bb5850cd4edf33fb74ae69f9a2518ffd6623427df8dff862f9f3aeb651",
      "version": 1,
      "size": 135,
      "vsize": 135,
      "weight": 540,
      "locktime": 0,
      "vin": [
        {
          "coinbase": "04ffff001d02bb06",
          "sequence": 4294967295
        }
      ],
      "vout": [
        {
          "value": 50.0,
          "n": 0,
          "scriptPubKey": {
            "asm": "042347c5e2651b35debe6c17269cbf20c626787a06f1ba25d55ff6aaa888f5110aaba3ccd8dafadd7964989dafeee8905648d655216d7255e2b0d7d366c3028594 OP_CHECKSIG",
            "desc": "pk(042347c5e2651b35debe6c17269cbf20c626787a06f1ba25d55ff6aaa888f5110aaba3ccd8dafadd7964989dafeee8905648d655216d7255e2b0d7d366c3028594)#c9lle5kr",
            "hex": "41042347c5e2651b35debe6c17269cbf20c626787a06f1ba25d55ff6aaa888f5110aaba3ccd8dafadd7964989dafeee8905648d655216d7255e2b0d7d366c3028594ac",
            "type": "pubkey"
          }
        }
      ],
      "hex": "01000000010000000000000000000000000000000000000000000000000000000000000000ffffffff0804ffff001d02bb06ffffffff0100f2052a010000004341042347c5e2651b35debe6c17269cbf20c626787a06f1ba25d55ff6aaa888f5110aaba3ccd8dafadd7964989dafeee8905648d655216d7255e2b0d7d366c3028594ac00000000"
    }
  ]
}