{
  "hash": "000000005cd735eccf4aefbc7427efee70ee4adc886be67cc68f6f925c9c7e41",
  "confirmations": 52524,
  "height": 574,
  "version": 1,
  "versionHex": "00000001",
  "merkleroot": "95e49ffefb73007f90cb96aeadcd0ed9ae456380223aa34445055314c1d60f55",
  "time": 1232019144,
  "mediantime": 1232015762,
  "nonce": 3490982400,
  "bits": "1d00ffff",
  "difficulty": 1,
  "chainwork": "0000000000000000000000000000000000000000000000000000023f023f023f",
  "nTx": 1,
  "previousblockhash": "000000004f2c63cf028a37e7fc793a47ace7c27d44aac2a82fd9d90dbfc1750d",
  "nextblockhash": "00000000ecc3ba4a80a6d61ea3abc22a8fddf11d1f8019b7fbbde92e2b4dd4a8",
  "strippedsize": 216,
  "size": 216,
  "weight": 864,
  "tx": [
    {
      "txid": "95e49ffefb73007f90cb96aeadcd0ed9ae456380223aa34445055314c1d60f55",
      "hash": "95e49ffefb73007f90cb96aeadcd0ed9ae456380223aa34445055314c1d60f55",
      "version": 1,
      "size": 135,
      "vsize": 135,
      "weight": 540,
      "locktime": 0,
      "vin": [
        {
          "coinbase": "04ffff001d021206",
          "sequence": 4294967295
        }
      ],
      "vout": [
        {
          "value": 50.0,
          "n": 0,
          "scriptPubKey": {
            "asm": "04ffc6fd1a193d82cfff614d3882e5d368bdc61a751200fb32741233681884c21a39cdd789cb15bcd35b203cea87311c71bf190829d56b8e89e8477c9c8e392591 OP_CHECKSIG",
            "desc": "pk(04ffc6fd1a193d82cfff614d3882e5d368bdc61a751200fb32741233681884c21a39cdd789cb15bcd35b203cea87311c71bf190829d56b8e89e8477c9c8e392591)#0tndsfrn",
            "hex": "4104ffc6fd1a193d82cfff614d3882e5d368bdc61a751200fb32741233681884c21a39cdd789cb15bcd35b203cea87311c71bf190829d56b8e89e8477c9c8e392591ac",
            "type": "pubkey"
          }
        }
      ],
      "hex": "01000000010000000000000000000000000000000000000000000000000000000000000000ffffffff0804ffff001d021206ffffffff0100f2052a01000000434104ffc6fd1a193d82cfff614d3882e5d368bdc61a751200fb32741233681884c21a39cdd789cb15bcd35b203cea87311c71bf190829d56b8e89e8477c9c8e392591ac00000000"
    }
  ]
}