{
  "hash": "0000000073164bbac990536ee07ec634a5c847ddeb92f3bc415f6edef69c959d",
  "confirmations": 52276,
  "height": 822,
  "version": 1,
  "versionHex": "00000001",
  "merkleroot": "82146875ef6e7710bc1365ca1f4c83b46cb44d232b33bb430b7119777e49a8e1",
  "time": 1232208484,
  "mediantime": 1232205957,
  "nonce": 1012417812,
  "bits": "1d00ffff",
  "difficulty": 1,
  "chainwork": "0000000000000000000000000000000000000000000000000000033703370337",
  "nTx": 1,
  "previousblockhash": "00000000e21e0a8b165db2ab777088ac1e8872870751f7e9f66bcac95e4d0bbc",
  "nextblockhash": "00000000edf94d4cccfad927d469eaabfc1e8c68a715203f85e2459f6885296d",
  "strippedsize": 216,
  "size": 216,
  "weight": 864,
  "tx": [
    {
      "txid": "82146875ef6e7710bc1365ca1f4c83b46cb44d232b33bb430b7119777e49a8e1",
      "hash": "82146875ef6e7710bc1365ca1f4c83b46cb44d232b33bb430b7119777e49a8e1",
      "version": 1,
      "size": 135,
      "vsize": 135,
      "weight": 540,
      "locktime": 0,
      "vin": [
        {
          "coinbase": "04ffff001d02db01",
          "sequence": 4294967295
        }
      ],
      "vout": [
        {
          "value": 50.0,
          "n": 0,
          "scriptPubKey": {
            "asm": "04dfabbff92eb7683f7718e637c5be8d175e71b16901801c73ea913973f60ca956e2a40bf2c8a27ce1ccfc8668f7751006b02a4eb7427eb46df6ad084dbf774d4c OP_CHECKSIG",
            "desc": "pk(04dfabbff92eb7683f7718e637c5be8d175e71b16901801c73ea913973f60ca956e2a40bf2c8a27ce1ccfc8668f7751006b02a4eb7427eb46df6ad084dbf774d4c)#tenp5qys",
            "hex": "4104dfabbff92eb7683f7718e637c5be8d175e71b16901801c73ea913973f60ca956e2a40bf2c8a27ce1ccfc8668f7751006b02a4eb7427eb46df6ad084dbf774d4cac",
            "type": "pubkey"
          }
        }
      ],
      "hex": "01000000010000000000000000000000000000000000000000000000000000000000000000ffffffff0804ffff001d02db01ffffffff0100f2052a01000000434104dfabbff92eb7683f7718e637c5be8d175e71b16901801c73ea913973f60ca956e2a40bf2c8a27ce1ccfc8668f7751006b02a4eb7427eb46df6ad084dbf774d4cac00000000"
    }
  ]
}