{
  "hash": "00000000dad0ecbdc542059731fcb46178186d954884a13109eeac05a9eea5cb",
  "confirmations": 49915,
  "height": 3183,
  "version": 1,
  "versionHex": "00000001",
  "merkleroot": "c1f1aa32f853fecd5d886faf00d6f296ad5c7e8000a104ab60c314a884b385c4",
  "time": 1233888302,
  "mediantime": 1233885494,
  "nonce": 235637011,
  "bits": "1d00ffff",
  "difficulty": 1,
  "chainwork": "00000000000000000000000000000000000000000000000000000c700c700c70",
  "nTx": 1,
  "previousblockhash": "00000000f8a0d381cb1e1774bc0521b94b1cdb8284cfa9cb046915def70be38f",
  "nextblockhash": "0000000044265b9727ada3e7621b975576a4c1ba6905aa92470b275b56afe48f",
  "strippedsize": 216,
  "size": 216,
  "weight": 864,
  "tx": [
    {
      "txid": "c1f1aa32f853fecd5d886faf00d6f296ad5c7e8000a104ab60c314a884b385c4",
      "hash": "c1f1aa32f853fecd5d886faf00d6f296ad5c7e8000a104ab60c314a884b385c4",
      "version": 1,
      "size": 135,
      "vsize": 135,
      "weight": 540,
      "locktime": 0,
      "vin": [
        {
          "coinbase": "04ffff001d026202",
          "sequence": 4294967295
        }
      ],
      "vout": [
        {
          "value": 50.0,
          "n": 0,
          "scriptPubKey": {
            "asm": "046760c07d28bdd0011cc36341bb546b3b9680589f8eef6040238a63504cb50b9335f537996a3e012662137d1cbc04e49fb5d0d4c958cfd092d5a51de5e8911a7d OP_CHECKSIG",
            "desc": "pk(046760c07d28bdd0011cc36341bb546b3b9680589f8eef6040238a63504cb50b9335f537996a3e012662137d1cbc04e49fb5d0d4c958cfd092d5a51de5e8911a7d)#d46z5pkm",
            "hex": "41046760c07d28bdd0011cc36341bb546b3b9680589f8eef6040238a63504cb50b9335f537996a3e012662137d1cbc04e49fb5d0d4c958cfd092d5a51de5e8911a7dac",
            "type": "pubkey"
          }
        }
      ],
      "hex": "01000000010000000000000000000000000000000000000000000000000000000000000000ffffffff0804ffff001d026202ffffffff0100f2052a010000004341046760c07d28bdd0011cc36341bb546b3b9680589f8eef6040238a63504cb50b9335f537996a3e012662137d1cbc04e49fb5d0d4c958cfd092d5a51de5e8911a7dac00000000"
    }
  ]
}