{
  "hash": "00000000f9f2eff4d24b4f63c6b86c04b54622e7727f820df1d3a8c0cb70344e",
  "confirmations": 44123,
  "height": 8975,
  "version": 1,
  "versionHex": "00000001",
  "merkleroot": "096b482e2fc084651e527917496b1cb866d1b7350aa25c2ced6b38a4bc325071",
  "time": 1238235496,
  "mediantime": 1238231416,
  "nonce": 2716186164,
  "bits": "1d00ffff",
  "difficulty": 1,
  "chainwork": "0000000000000000000000000000000000000000000000000000231023102310",
  "nTx": 1,
  "previousblockhash": "00000000770b9deaf4fbe2bc6f47a80373786a5b8ec6c699079f21ae0beb7ff1",
  "nextblockhash": "00000000455c3231e43bb558f8baeb192818c59ba84cdd3f8ee5f31460a5aa29",
  "strippedsize": 216,
  "size": 216,
  "weight": 864,
  "tx": [
    {
      "txid": "096b482e2fc084651e527917496b1cb866d1b7350aa25c2ced6b38a4bc325071",
      "hash": "096b482e2fc084651e527917496b1cb866d1b7350aa25c2ced6b38a4bc325071",
      "version": 1,
      "size": 135,
      "vsize": 135,
      "weight": 540,
      "locktime": 0,
      "vin": [
        {
          "coinbase": "04ffff001d020e06",
          "sequence": 4294967295
        }
      ],
      "vout": [
        {
          "value": 50.0,
          "n": 0,
          "scriptPubKey": {
            "asm": "049efb0da63da7ca162f498ba8a13f0e84a60b3e60ca4332905cf4c936f65c97ef50328c42aa3446bc403b10074bf71edf16f884a89a3948d38d98ce47b1173a44 OP_CHECKSIG",
            "desc": "pk(049efb0da63da7ca162f498ba8a13f0e84a60b3e60ca4332905cf4c936f65c97ef50328c42aa3446bc403b10074bf71edf16f884a89a3948d38d98ce47b1173a44)#thehxagv",
            "hex": "41049efb0da63da7ca162f498ba8a13f0e84a60b3e60ca4332905cf4c936f65c97ef50328c42aa3446bc403b10074bf71edf16f884a89a3948d38d98ce47b1173a44ac",
            "type": "pubkey"
          }
        }
      ],
      "hex": "01000000010000000000000000000000000000000000000000000000000000000000000000ffffffff0804ffff001d020e06ffffffff0100f2052a010000004341049efb0da63da7ca162f498ba8a13f0e84a60b3e60ca4332905cf4c936f65c97ef50328c42aa3446bc403b10074bf71edf16f884a89a3948d38d98ce47b1173a44ac00000000"
    }
  ]
}