{
  "hash": "0000000037a08f8c588abe7b15e7af8f57446d78c4c72f1332b34d645502ec42",
  "confirmations": 47823,
  "height": 5275,
  "version": 1,
  "versionHex": "00000001",
  "merkleroot": "d74c4419ee9147d7438db0472aa7964ea01bfae4084087737853389bb5e2dd4b",
  "time": 1235341904,
  "mediantime": 1235338410,
  "nonce": 2232870697,
  "bits": "1d00ffff",
  "difficulty": 1,
  "chainwork": "0000000000000000000000000000000000000000000000000000149c149c149c",
  "nTx": 1,
  "previousblockhash": "00000000f2eafaea8cd71855ad7ca21ada8c0e881cf16d9cd505fbd826655ace",
  "nextblockhash": "00000000d7e322dff76eb78f0b0a3683f6acdeda5e0b8d176bdea7a37ce7744b",
  "strippedsize": 216,
  "size": 216,
  "weight": 864,
  "tx": [
    {
      "txid": "d74c4419ee9147d7438db0472aa7964ea01bfae4084087737853389bb5e2dd4b",
      "hash": "d74c4419ee9147d7438db0472aa7964ea01bfae4084087737853389bb5e2dd4b",
      "version": 1,
      "size": 135,
      "vsize": 135,
      "weight": 540,
      "locktime": 0,
      "vin": [
        {
          "coinbase": "04ffff001d02ad01",
          "sequence": 4294967295
        }
      ],
      "vout": [
        {
          "value": 50.0,
          "n": 0,
          "scriptPubKey": {
            "asm": "0423b296d06b969372568fabea4f4784ad84a57138030af4f15142a0b791eb8291d9a6fd84979bc4a0501d91dfb1c42b71a3f17b94c2789fe9096381f650ad1694 OP_CHECKSIG",
            "desc": "pk(0423b296d06b969372568fabea4f4784ad84a57138030af4f15142a0b791eb8291d9a6fd84979bc4a0501d91dfb1c42b71a3f17b94c2789fe9096381f650ad1694)#adm4qrwm",
            "hex": "410423b296d06b969372568fabea4f4784ad84a57138030af4f15142a0b791eb8291d9a6fd84979bc4a0501d91dfb1c42b71a3f17b94c2789fe9096381f650ad1694ac",
            "type": "pubkey"
          }
        }
      ],
      "hex": "01000000010000000000000000000000000000000000000000000000000000000000000000ffffffff0804ffff001d02ad01ffffffff0100f2052a0100000043410423b296d06b969372568fabea4f4784ad84a57138030af4f15142a0b791eb8291d9a6fd84979bc4a0501d91dfb1c42b71a3f17b94c2789fe9096381f650ad1694ac00000000"
    }
  ]
}