{
  "hash": "00000000ffdacee18e2c714d840888e87796855b446f4883c2834c6ad1b9a1c7",
  "confirmations": 51497,
  "height": 1601,
  "version": 1,
  "versionHex": "00000001",
  "merkleroot": "3ccaba19e99ff7f9583c72bd3b2fb367c12aef273a761481ee84152a7062a65a",
  "time": 1232811837,
  "mediantime": 1232810343,
  "nonce": 2202738184,
  "bits": "1d00ffff",
  "difficulty": 1,
  "chainwork": "0000000000000000000000000000000000000000000000000000064206420642",
  "nTx": 1,
  "previousblockhash": "00000000f6b38fee667afb9cb2eedc5a9988d345e7b61ce220d34005d2d5b8bf",
  "nextblockhash": "000000000fed1bb31d534e542fffaf55ea28b146dcc46f4f21e897834189540f",
  "strippedsize": 216,
  "size": 216,
  "weight": 864,
  "tx": [
    {
      "txid": "3ccaba19e99ff7f9583c72bd3b2fb367c12aef273a761481ee84152a7062a65a",
      "hash": "3ccaba19e99ff7f9583c72bd3b2fb367c12aef273a761481ee84152a7062a65a",
      "version": 1,
      "size": 135,
      "vsize": 135,
      "weight": 540,
      "locktime": 0,
      "vin": [
        {
          "coinbase": "04ffff001d021e02",
          "sequence": 4294967295
        }
      ],
      "vout": [
        {
          "value": 50.0,
          "n": 0,
          "scriptPubKey": {
            "asm": "0469a9d1188bf0975480a31f7b732dfb03aa75553609b14589fdea1154380dc8a85f19aa686ac1268a3e50deaa2ddd69e15743ee587abb54a9fc3c29b981e77eee OP_CHECKSIG",
            "desc": "pk(0469a9d1188bf0975480a31f7b732dfb03aa75553609b14589fdea1154380dc8a85f19aa686ac1268a3e50deaa2ddd69e15743ee587abb54a9fc3c29b981e77eee)#ku3l8nh9",
            "hex": "410469a9d1188bf0975480a31f7b732dfb03aa75553609b14589fdea1154380dc8a85f19aa686ac1268a3e50deaa2ddd69e15743ee587abb54a9fc3c29b981e77eeeac",
            "type": "pubkey"
          }
        }
      ],
      "hex": "01000000010000000000000000000000000000000000000000000000000000000000000000ffffffff0804ffff001d021e02ffffffff0100f2052a0100000043410469a9d1188bf0975480a31f7b732dfb03aa75553609b14589fdea1154380dc8a85f19aa686ac1268a3e50deaa2ddd69e15743ee587abb54a9fc3c29b981e77eeeac00000000"
    }
  ]
}