{
  "hash": "000000001c1e1b7afcd8bccfe9285b4289b9bcbd2df1dc7e963605d60699f9d4",
  "confirmations": 44190,
  "height": 8908,
  "version": 1,
  "versionHex": "00000001",
  "merkleroot": "2068a30b531a40fd5a2815f557a77c1c0632df600d4b36085d212fbda0cf1ec7",
  "time": 1238185820,
  "mediantime": 1238182244,
  "nonce": 375070023,
  "bits": "1d00ffff",
  "difficulty": 1,
  "chainwork": "000000000000000000000000000000000000000000000000000022cd22cd22cd",
  "nTx": 1,
  "previousblockhash": "00000000e30c8d7e2facada850506fd88c092ab4c3f4355145ede7188676cbd5",
  "nextblockhash": "00000000232389c4fa4e69686e7a4c4d54a4d96149fbc496baf1dafc739ad2ce",
  "strippedsize": 216,
  "size": 216,
  "weight": 864,
  "tx": [
    {
      "txid": "2068a30b531a40fd5a2815f557a77c1c0632df600d4b36085d212fbda0cf1ec7",
      "hash": "2068a30b531a40fd5a2815f557a77c1c0632df600d4b36085d212fbda0cf1ec7",
      "version": 1,
      "size": 135,
      "vsize": 135,
      "weight": 540,
      "locktime": 0,
      "vin": [
        {
          "coinbase": "04ffff001d02d104",
          "sequence": 4294967295
        }
      ],
      "vout": [
        {
          "value": 50.0,
          "n": 0,
          "scriptPubKey": {
            "asm": "04cff8adb14de8b9a1a94754e549266614116df5460abebefce5b48c46c7a247c9b5b32eb60d16ee7af033754cfb84673a85136cc24d8e7fc2368b0899ca29721f OP_CHECKSIG",
            "desc": "pk(04cff8adb14de8b9a1a94754e549266614116df5460abebefce5b48c46c7a247c9b5b32eb60d16ee7af033754cfb84673a85136cc24d8e7fc2368b0899ca29721f)#fu6gt260",
            "hex": "4104cff8adb14de8b9a1a94754e549266614116df5460abebefce5b48c46c7a247c9b5b32eb60d16ee7af033754cfb84673a85136cc24d8e7fc2368b0899ca29721fac",
            "type": "pubkey"
          }
        }
      ],
      "hex": "01000000010000000000000000000000000000000000000000000000000000000000000000ffffffff0804ffff001d02d104ffffffff0100f2052a01000000434104cff8adb14de8b9a1a94754e549266614116df5460abebefce5b48c46c7a247c9b5b32eb60d16ee7af033754cfb84673a85136cc24d8e7fc2368b0899ca29721fac00000000"
    }
  ]
}