{
  "hash": "00000000e0bbdd572a72c9c8b5498e93354bba77e83ab0b345596845d706ea51",
  "confirmations": 45780,
  "height": 7318,
  "version": 1,
  "versionHex": "00000001",
  "merkleroot": "71d8290105deb97aaa98864232f12d23e0c7ddf7d92227408036ba9736f1f104",
  "time": 1236961236,
  "mediantime": 1236957167,
  "nonce": 2553831195,
  "bits": "1d00ffff",
  "difficulty": 1,
  "chainwork": "00000000000000000000000000000000000000000000000000001c971c971c97",
  "nTx": 1,
  "previousblockhash": "00000000e6a4ad5af7454931b946d1bf94ea90de5e9edc1ae8cea11688169598",
  "nextblockhash": "000000001326764b4bc72d992b3361606326b201ed99fc42609afec79c18ae28",
  "strippedsize": 216,
  "size": 216,
  "weight": 864,
  "tx": [
    {
      "txid": "71d8290105deb97aaa98864232f12d23e0c7ddf7d92227408036ba9736f1f104",
      "hash": "71d8290105deb97aaa98864232f12d23e0c7ddf7d92227408036ba9736f1f104",
      "version": 1,
      "size": 135,
      "vsize": 135,
      "weight": 540,
      "locktime": 0,
      "vin": [
        {
          "coinbase": "04ffff001d02da07",
          "sequence": 4294967295
        }
      ],
      "vout": [
        {
          "value": 50.0,
          "n": 0,
          "scriptPubKey": {
            "asm": "04e06e52203f022c864512fb6f78e8dfd5520626f79392849031f2b058d52bfc72edc7f46b86fef3f06c16ca6f71e42e313c3dcdfe376eb4c7272e5df921b647c3 OP_CHECKSIG",
            "desc": "pk(04e06e52203f022c864512fb6f78e8dfd5520626f79392849031f2b058d52bfc72edc7f46b86fef3f06c16ca6f71e42e313c3dcdfe376eb4c7272e5df921b647c3)#quc0hlak",
            "hex": "4104e06e52203f022c864512fb6f78e8dfd5520626f79392849031f2b058d52bfc72edc7f46b86fef3f06c16ca6f71e42e313c3dcdfe376eb4c7272e5df921b647c3ac",
            "type": "pubkey"
          }
        }
      ],
      "hex": "01000000010000000000000000000000000000000000000000000000000000000000000000ffffffff0804ffff001d02da07ffffffff0100f2052a01000000434104e06e52203f022c864512fb6f78e8dfd5520626f79392849031f2b058d52bfc72edc7f46b86fef3f06c16ca6f71e42e313c3dcdfe376eb4c7272e5df921b647c3ac00000000"
    }
  ]
}