{
  "hash": "00000000699b9398a3cb08543068258636ef8e730c0a77617391c49a3cf94d28",
  "confirmations": 43535,
  "height": 9563,
  "version": 1,
  "versionHex": "00000001",
  "merkleroot": "4e9c3e84cde80ac66f24604e1997d2e8437debdd1937f320337005f9043bd467",
  "time": 1238672244,
  "mediantime": 1238668311,
  "nonce": 2793971200,
  "bits": "1d00ffff",
  "difficulty": 1,
  "chainwork": "0000000000000000000000000000000000000000000000000000255c255c255c",
  "nTx": 1,
  "previousblockhash": "00000000c62e465146babdfbab8e1538e19999e47809aa8d455952beb5e993c1",
  "nextblockhash": "0000000054c6984b9f469f7404e6974d6dc48e53cca5a383bf5ce2611d84f3ce",
  "strippedsize": 216,
  "size": 216,
  "weight": 864,
  "tx": [
    {
      "txid": "4e9c3e84cde80ac66f24604e1997d2e8437debdd1937f320337005f9043bd467",
      "hash": "4e9c3e84cde80ac66f24604e1997d2e8437debdd1937f320337005f9043bd467",
      "version": 1,
      "size": 135,
      "vsize": 135,
      "weight": 540,
      "locktime": 0,
      "vin": [
        {
          "coinbase": "04ffff001d024b06",
          "sequence": 4294967295
        }
      ],
      "vout": [
        {
          "value": 50.0,
          "n": 0,
          "scriptPubKey": {
            "asm": "0444815dbcaed103e6183226355c52ebf87b782c06afe617846e550ccb0f1ee842835b2c318539b2b2da912e9f23def830b73d73195c5414bf0039c3d52c40e385 OP_CHECKSIG",
            "desc": "pk(0444815dbcaed103e6183226355c52ebf87b782c06afe617846e550ccb0f1ee842835b2c318539b2b2da912e9f23def830b73d73195c5414bf0039c3d52c40e385)#exm8s8p5",
            "hex": "410444815dbcaed103e6183226355c52ebf87b782c06afe617846e550ccb0f1ee842835b2c318539b2b2da912e9f23def830b73d73195c5414bf0039c3d52c40e385ac",
            "type": "pubkey"
          }
        }
      ],
      "hex": "01000000010000000000000000000000000000000000000000000000000000000000000000ffffffff0804ffff001d024b06ffffffff0100f2052a0100000043410444815dbcaed103e6183226355c52ebf87b782c06afe617846e550ccb0f1ee842835b2c318539b2b2da912e9f23def830b73d73195c5414bf0039c3d52c40e385ac00000000"
    }
  ]
}