{
  "hash": "000000003b081994b01ed6693e8f33f6a4cc9a5fd94b9c037743ad9883489c72",
  "confirmations": 47386,
  "height": 5712,
  "version": 1,
  "versionHex": "00000001",
  "merkleroot": "29546a3cc9c65cdffb344c405da2e5a9bffad961ae15c85e2935b394f81cd3e2",
  "time": 1235694919,
  "mediantime": 1235691651,
  "nonce": 758877460,
  "bits": "1d00ffff",
  "difficulty": 1,
  "chainwork": "0000000000000000000000000000000000000000000000000000165116511651",
  "nTx": 1,
  "previousblockhash": "0000000012ba043f594c5d02b5726ef408a4798c1bec7ee64a42860232037c3f",
  "nextblockhash": "000000007832443d72c1cda744b0f5cf1bf06f8aae84a82d1692cb63b7918cb6",
  "strippedsize": 216,
  "size": 216,
  "weight": 864,
  "tx": [
    {
      "txid": "29546a3cc9c65cdffb344c405da2e5a9bffad961ae15c85e2935b394f81cd3e2",
      "hash": "29546a3cc9c65cdffb344c405da2e5a9bffad961ae15c85e2935b394f81cd3e2",
      "version": 1,
      "size": 135,
      "vsize": 135,
      "weight": 540,
      "locktime": 0,
      "vin": [
        {
          "coinbase": "04ffff001d02a109",
          "sequence": 4294967295
        }
      ],
      "vout": [
        {
          "value": 50.0,
          "n": 0,
          "scriptPubKey": {
            "asm": "046f65f4fe004faf56ee2c1a09ba5e271cc24355dab78ba08eeef44df9d1e6d0236b9f72cfcafa3c919fafcba5aff1de38609f334f1209f5a3cc31a6e63907cdf2 OP_CHECKSIG",
            "desc": "pk(046f65f4fe004faf56ee2c1a09ba5e271cc24355dab78ba08eeef44df9d1e6d0236b9f72cfcafa3c919fafcba5aff1de38609f334f1209f5a3cc31a6e63907cdf2)#e38gf49c",
            "hex": "41046f65f4fe004faf56ee2c1a09ba5e271cc24355dab78ba08eeef44df9d1e6d0236b9f72cfcafa3c919fafcba5aff1de38609f334f1209f5a3cc31a6e63907cdf2ac",
            "type": "pubkey"
          }
        }
      ],
      "hex": "01000000010000000000000000000000000000000000000000000000000000000000000000ffffffff0804ffff001d02a109ffffffff0100f2052a010000004341046f65f4fe004faf56ee2c1a09ba5e271cc24355dab78ba08eeef44df9d1e6d0236b9f72cfcafa3c919fafcba5aff1de38609f334f1209f5a3cc31a6e63907cdf2ac00000000"
    }
  ]
}