{
  "hash": "00000000e4131f9946dcc23aea15fdfdd516f7d0c3c8340e50935a91b18dfe23",
  "confirmations": 44410,
  "height": 8688,
  "version": 1,
  "versionHex": "00000001",
  "merkleroot": "aae4052d974b679a30e90b5caec08131e782da8b70c05ac03f6af3f1501947de",
  "time": 1238016947,
  "mediantime": 1238014066,
  "nonce": 1205881863,
  "bits": "1d00ffff",
  "difficulty": 1,
  "chainwork": "000000000000000000000000000000000000000000000000000021f121f121f1",
  "nTx": 1,
  "previousblockhash": "00000000cf0eeecf3d814ea5ab7ed4293803ea6aeee0e3779ed9c2e77997f8e5",
  "nextblockhash": "000000000c0b89432bf3cd76134ef7b87ceda5cfb6064d77e69038cc72c410e8",
  "strippedsize": 216,
  "size": 216,
  "weight": 864,
  "tx": [
    {
      "txid": "aae4052d974b679a30e90b5caec08131e782da8b70c05ac03f6af3f1501947de",
      "hash": "aae4052d974b679a30e90b5caec08131e782da8b70c05ac03f6af3f1501947de",
      "version": 1,
      "size": 135,
      "vsize": 135,
      "weight": 540,
      "locktime": 0,
      "vin": [
        {
          "coinbase": "04ffff001d02b300",
          "sequence": 4294967295
        }
      ],
      "vout": [
        {
          "value": 50.0,
          "n": 0,
          "scriptPubKey": {
            "asm": "04f3ea6214c106db5c2d601608711cf41cfd701f1522e62c782b1e46575efd1cdd83378cbd4035a55ae25c870e02533add5a59d7c82c8308b26a996ff43c50efd3 OP_CHECKSIG",
            "desc": "pk(04f3ea6214c106db5c2d601608711cf41cfd701f1522e62c782b1e46575efd1cdd83378cbd4035a55ae25c870e02533add5a59d7c82c8308b26a996ff43c50efd3)#srv4lyj9",
            "hex": "4104f3ea6214c106db5c2d601608711cf41cfd701f1522e62c782b1e46575efd1cdd83378cbd4035a55ae25c870e02533add5a59d7c82c8308b26a996ff43c50efd3ac",
            "type": "pubkey"
          }
        }
      ],
      "hex": "01000000010000000000000000000000000000000000000000000000000000000000000000ffffffff0804ffff001d02b300ffffffff0100f2052a01000000434104f3ea6214c106db5c2d601608711cf41cfd701f1522e62c782b1e46575efd1cdd83378cbd4035a55ae25c870e02533add5a59d7c82c8308b26a996ff43c50efd3ac00000000"
    }
  ]
}