{
  "hash": "000000004d057f5e39e780853e80c3447f2827344674d417b5715ed201397c35",
  "confirmations": 44803,
  "height": 8295,
  "version": 1,
  "versionHex": "00000001",
  "merkleroot": "c5eb40ba7c6107147cc7ba370f1496f41a002bb0be26fe1acecec2e4a6b23d65",
  "time": 1237727257,
  "mediantime": 1237724240,
  "nonce": 280301661,
  "bits": "1d00ffff",
  "difficulty": 1,
  "chainwork": "0000000000000000000000000000000000000000000000000000206820682068",
  "nTx": 1,
  "previousblockhash": "00000000276544e3a758cda222e9291f01bd8d6fb6efe70779fd9bab600c7670",
  "nextblockhash": "00000000f4d669b83791d914f8d23fac895f1e248da856082078bcad41669b0e",
  "strippedsize": 215,
  "size": 215,
  "weight": 860,
  "tx": [
    {
      "txid": "c5eb40ba7c6107147cc7ba370f1496f41a002bb0be26fe1acecec2e4a6b23d65",
      "hash": "c5eb40ba7c6107147cc7ba370f1496f41a002bb0be26fe1acecec2e4a6b23d65",
      "version": 1,
      "size": 134,
      "vsize": 134,
      "weight": 536,
      "locktime": 0,
      "vin": [
        {
          "coinbase": "04ffff001d0106",
          "sequence": 4294967295
        }
      ],
      "vout": [
        {
          "value": 50.0,
          "n": 0,
          "scriptPubKey": {
            "asm": "042cf1e54e3e0e99c74395d6a6016d7e4e99aa36a8d264b7035a75a23ba4a396f58c003d8615b688ec0d153530486bec0d441fcda7d80b5ea50a03fdee283b2794 OP_CHECKSIG",
            "desc": "pk(042cf1e54e3e0e99c74395d6a6016d7e4e99aa36a8d264b7035a75a23ba4a396f58c003d8615b688ec0d153530486bec0d441fcda7d80b5ea50a03fdee283b2794)#gpahxple",
            "hex": "41042cf1e54e3e0e99c74395d6a6016d7e4e99aa36a8d264b7035a75a23ba4a396f58c003d8615b688ec0d153530486bec0d441fcda7d80b5ea50a03fdee283b2794ac",
            "type": "pubkey"
          }
        }
      ],
      "hex": "01000000010000000000000000000000000000000000000000000000000000000000000000ffffffff0704ffff001d0106ffffffff0100f2052a010000004341042cf1e54e3e0e99c74395d6a6016d7e4e99aa36a8d264b7035a75a23ba4a396f58c003d8615b688ec0d153530486bec0d441fcda7d80b5ea50a03fdee283b2794ac00000000"
    }
  ]
}