{
  "hash": "00000000b50162424132d6ddff8beb0f9631dbab8b09effa3aba51e34a8aff59",
  "confirmations": 51631,
  "height": 1467,
  "version": 1,
  "versionHex": "00000001",
  "merkleroot": "60fb2ec37dc7e36465f218feffcf59a7098f4c990f392ef963b1315cdd7506ba",
  "time": 1232753723,
  "mediantime": 1232752262,
  "nonce": 3270406954,
  "bits": "1d00ffff",
  "difficulty": 1,
  "chainwork": "000000000000000000000000000000000000000000000000000005bc05bc05bc",
  "nTx": 1,
  "previousblockhash": "000000002a3be77c2d13aaa76aa74f8c6a0395230c0664b932b3790305f2214f",
  "nextblockhash": "00000000389c21647e4c1444abfad4ef7d186694f5a0e080bf617bd99692611f",
  "strippedsize": 216,
  "size": 216,
  "weight": 864,
  "tx": [
    {
      "txid": "60fb2ec37dc7e36465f218feffcf59a7098f4c990f392ef963b1315cdd7506ba",
      "hash": "60fb2ec37dc7e36465f218feffcf59a7098f4c990f392ef963b1315cdd7506ba",
      "version": 1,
      "size": 135,
      "vsize": 135,
      "weight": 540,
      "locktime": 0,
      "vin": [
        {
          "coinbase": "04ffff001d02eb00",
          "sequence": 4294967295
        }
      ],
      "vout": [
        {
          "value": 50.0,
          "n": 0,
          "scriptPubKey": {
            "asm": "040b9bcd34f12d4a62008066c8b647e4f436facfe36d4c27e99e088d0dc9582489fd69e07a7f6a4dc9dcf7d6ab4fd27ef7e8f00989625a86bb13b66f05fb38ec65 OP_CHECKSIG",
            "desc": "pk(040b9bcd34f12d4a62008066c8b647e4f436facfe36d4c27e99e088d0dc9582489fd69e07a7f6a4dc9dcf7d6ab4fd27ef7e8f00989625a86bb13b66f05fb38ec65)#8v88f9n9",
            "hex": "41040b9bcd34f12d4a62008066c8b647e4f436facfe36d4c27e99e088d0dc9582489fd69e07a7f6a4dc9dcf7d6ab4fd27ef7e8f00989625a86bb13b66f05fb38ec65ac",
            "type": "pubkey"
          }
        }
      ],
      "hex": "01000000010000000000000000000000000000000000000000000000000000000000000000ffffffff0804ffff001d02eb00ffffffff0100f2052a010000004341040b9bcd34f12d4a62008066c8b647e4f436facfe36d4c27e99e088d0dc9582489fd69e07a7f6a4dc9dcf7d6ab4fd27ef7e8f00989625a86bb13b66f05fb38ec65ac00000000"
    }
  ]
}