{
  "hash": "00000000a7de40c4159e249184d3988905f735fc55fcc97b3a9e7cbecb53611c",
  "confirmations": 44345,
  "height": 8753,
  "version": 1,
  "versionHex": "00000001",
  "merkleroot": "5e58c5a756c33743fdf6742008c44c2835cabd2ee7b181f088a0aaa5d0890724",
  "time": 1238062108,
  "mediantime": 1238058573,
  "nonce": 1718470965,
  "bits": "1d00ffff",
  "difficulty": 1,
  "chainwork": "0000000000000000000000000000000000000000000000000000223222322232",
  "nTx": 1,
  "previousblockhash": "0000000005be062bfcbe94c974c8678e7b4248735c48e73c26340585d993726a",
  "nextblockhash": "000000003e44e5a6bea6457d62997d9d7d643dee0a119d8942c26dcda90b454e",
  "strippedsize": 216,
  "size": 216,
  "weight": 864,
  "tx": [
    {
      "txid": "5e58c5a756c33743fdf6742008c44c2835cabd2ee7b181f088a0aaa5d0890724",
      "hash": "5e58c5a756c33743fdf6742008c44c2835cabd2ee7b181f088a0aaa5d0890724",
      "version": 1,
      "size": 135,
      "vsize": 135,
      "weight": 540,
      "locktime": 0,
      "vin": [
        {
          "coinbase": "04ffff001d02c801",
          "sequence": 4294967295
        }
      ],
      "vout": [
        {
          "value": 50.0,
          "n": 0,
          "scriptPubKey": {
            "asm": "04e4a6b6266763048419c9d2924678b470dcbde2112f6adea57b42cc2b2597d77021646de33bf1ea450ee2f23fd566f0fb9bd9e4a2b253983ff37602d4701b271f OP_CHECKSIG",
            "desc": "pk(04e4a6b6266763048419c9d2924678b470dcbde2112f6adea57b42cc2b2597d77021646de33bf1ea450ee2f23fd566f0fb9bd9e4a2b253983ff37602d4701b271f)#0vcv93ja",
            "hex": "4104e4a6b6266763048419c9d2924678b470dcbde2112f6adea57b42cc2b2597d77021646de33bf1ea450ee2f23fd566f0fb9bd9e4a2b253983ff37602d4701b271fac",
            "type": "pubkey"
          }
        }
      ],
      "hex": "01000000010000000000000000000000000000000000000000000000000000000000000000ffffffff0804ffff001d02c801ffffffff0100f2052a01000000434104e4a6b6266763048419c9d2924678b470dcbde2112f6adea57b42cc2b2597d77021646de33bf1ea450ee2f23fd566f0fb9bd9e4a2b253983ff37602d4701b271fac00000000"
    }
  ]
}