{
  "hash": "0000000075d9598bb090706851a29fc74a3cecd6846ec87ac794d7350067babb",
  "confirmations": 44023,
  "height": 9075,
  "version": 1,
  "versionHex": "00000001",
  "merkleroot": "5cb3d1787507842269092e6b0bc5ed524e27a636ae64605f5fb75c9995c5963d",
  "time": 1238314347,
  "mediantime": 1238311490,
  "nonce": 2698295072,
  "bits": "1d00ffff",
  "difficulty": 1,
  "chainwork": "0000000000000000000000000000000000000000000000000000237423742374",
  "nTx": 1,
  "previousblockhash": "00000000667c4073f55cfff10a37cfeea4fa8fb1ead8ec573ddd5a140f3a4c94",
  "nextblockhash": "000000007fbc8d2f5ae7660d256bfa092baf4263696540cbb632fa098619bc9e",
  "strippedsize": 216,
  "size": 216,
  "weight": 864,
  "tx": [
    {
      "txid": "5cb3d1787507842269092e6b0bc5ed524e27a636ae64605f5fb75c9995c5963d",
      "hash": "5cb3d1787507842269092e6b0bc5ed524e27a636ae64605f5fb75c9995c5963d",
      "version": 1,
      "size": 135,
      "vsize": 135,
      "weight": 540,
      "locktime": 0,
      "vin": [
        {
          "coinbase": "04ffff001d02d107",
          "sequence": 4294967295
        }
      ],
      "vout": [
        {
          "value": 50.0,
          "n": 0,
          "scriptPubKey": {
            "asm": "04eff7a7c209219721a6ed72132a63568e38626ba37c8f449d4caad889bc2a75c9b996dc4df0e5d0cfc38e4e331a4af61d2b6d3e2ee951753f4c0fb3d9120f36fb OP_CHECKSIG",
            "desc": "pk(04eff7a7c209219721a6ed72132a63568e38626ba37c8f449d4caad889bc2a75c9b996dc4df0e5d0cfc38e4e331a4af61d2b6d3e2ee951753f4c0fb3d9120f36fb)#7fheghh8",
            "hex": "4104eff7a7c209219721a6ed72132a63568e38626ba37c8f449d4caad889bc2a75c9b996dc4df0e5d0cfc38e4e331a4af61d2b6d3e2ee951753f4c0fb3d9120f36fbac",
            "type": "pubkey"
          }
        }
      ],
      "hex": "01000000010000000000000000000000000000000000000000000000000000000000000000ffffffff0804ffff001d02d107ffffffff0100f2052a01000000434104eff7a7c209219721a6ed72132a63568e38626ba37c8f449d4caad889bc2a75c9b996dc4df0e5d0cfc38e4e331a4af61d2b6d3e2ee951753f4c0fb3d9120f36fbac00000000"
    }
  ]
}