{
  "hash": "000000007c85c85c1f2e9d277206d87343cf47703b8b01cd6efd56d1df85df18",
  "confirmations": 51414,
  "height": 1684,
  "version": 1,
  "versionHex": "00000001",
  "merkleroot": "916cbcbb64fbf797fe710db64dea71f37f44dba7d2e412c9e0aaac9adef03bd6",
  "time": 1232845992,
  "mediantime": 1232843673,
  "nonce": 2472298779,
  "bits": "1d00ffff",
  "difficulty": 1,
  "chainwork": "0000000000000000000000000000000000000000000000000000069506950695",
  "nTx": 1,
  "previousblockhash": "00000000d8213c90c9a0747a61a18ff7e334805adb5a03e1d295b3e104934a2b",
  "nextblockhash": "00000000c7862910c4b517ee31e53c4d7c387442a6403e281719c20bf667d607",
  "strippedsize": 216,
  "size": 216,
  "weight": 864,
  "tx": [
    {
      "txid": "916cbcbb64fbf797fe710db64dea71f37f44dba7d2e412c9e0aaac9adef03bd6",
      "hash": "916cbcbb64fbf797fe710db64dea71f37f44dba7d2e412c9e0aaac9adef03bd6",
      "version": 1,
      "size": 135,
      "vsize": 135,
      "weight": 540,
      "locktime": 0,
      "vin": [
        {
          "coinbase": "04ffff001d02e302",
          "sequence": 4294967295
        }
      ],
      "vout": [
        {
          "value": 50.0,
          "n": 0,
          "scriptPubKey": {
            "asm": "0483b0076768779ba409e336f4aa90114e4d3f430a9e367e56ee4186b714baf04edeeb1a9e433f9da540e415b8bd6dc014caab0b3db572421b6556002e952511a6 OP_CHECKSIG",
            "desc": "pk(0483b0076768779ba409e336f4aa90114e4d3f430a9e367e56ee4186b714baf04edeeb1a9e433f9da540e415b8bd6dc014caab0b3db572421b6556002e952511a6)#20wru2e9",
            "hex": "410483b0076768779ba409e336f4aa90114e4d3f430a9e367e56ee4186b714baf04edeeb1a9e433f9da540e415b8bd6dc014caab0b3db572421b6556002e952511a6ac",
            "type": "pubkey"
          }
        }
      ],
      "hex": "01000000010000000000000000000000000000000000000000000000000000000000000000ffffffff0804ffff001d02e302ffffffff0100f2052a0100000043410483b0076768779ba409e336f4aa90114e4d3f430a9e367e56ee4186b714baf04edeeb1a9e433f9da540e415b8bd6dc014caab0b3db572421b6556002e952511a6ac00000000"
    }
  ]
}