{
  "hash": "00000000e8d3821a71325c30f78bda5a83dc908155e4e0eb2e2be8daaf478c2c",
  "confirmations": 47972,
  "height": 5126,
  "version": 1,
  "versionHex": "00000001",
  "merkleroot": "5d778357970c191ad32806885927bffff8fb7175fa0c6adbc285df1ad46905c4",
  "time": 1235235259,
  "mediantime": 1235232338,
  "nonce": 2823124773,
  "bits": "1d00ffff",
  "difficulty": 1,
  "chainwork": "0000000000000000000000000000000000000000000000000000140714071407",
  "nTx": 1,
  "previousblockhash": "000000009043f3e65683b7eb3ceb3f51ae254cc8ddd2e014bdf244dfb9f65ba3",
  "nextblockhash": "00000000685417d017ea5f3e3ed69c34d6ba093e98477539989c60f7dcfa77a8",
  "strippedsize": 216,
  "size": 216,
  "weight": 864,
  "tx": [
    {
      "txid": "5d778357970c191ad32806885927bffff8fb7175fa0c6adbc285df1ad46905c4",
      "hash": "5d778357970c191ad32806885927bffff8fb7175fa0c6adbc285df1ad46905c4",
      "version": 1,
      "size": 135,
      "vsize": 135,
      "weight": 540,
      "locktime": 0,
      "vin": [
        {
          "coinbase": "04ffff001d027509",
          "sequence": 4294967295
        }
      ],
      "vout": [
        {
          "value": 50.0,
          "n": 0,
          "scriptPubKey": {
            "asm": "042f274136d03fb791432549a1a63072166233ec4824f71aa7ffc3b59aaf83639f081f66b6f3fe6af5793d9d435a5d0352c421f7b9437bfb358e8f94677098ac94 OP_CHECKSIG",
            "desc": "pk(042f274136d03fb791432549a1a63072166233ec4824f71aa7ffc3b59aaf83639f081f66b6f3fe6af5793d9d435a5d0352c421f7b9437bfb358e8f94677098ac94)#hj3pztwf",
            "hex": "41042f274136d03fb791432549a1a63072166233ec4824f71aa7ffc3b59aaf83639f081f66b6f3fe6af5793d9d435a5d0352c421f7b9437bfb358e8f94677098ac94ac",
            "type": "pubkey"
          }
        }
      ],
      "hex": "01000000010000000000000000000000000000000000000000000000000000000000000000ffffffff0804ffff001d027509ffffffff0100f2052a010000004341042f274136d03fb791432549a1a63072166233ec4824f71aa7ffc3b59aaf83639f081f66b6f3fe6af5793d9d435a5d0352c421f7b9437bfb358e8f94677098ac94ac00000000"
    }
  ]
}