{
  "hash": "00000000e9eac4f031a1594cd03d8c04d30e6efe46cf9befe52f41f0cf4c41df",
  "confirmations": 49889,
  "height": 3209,
  "version": 1,
  "versionHex": "00000001",
  "merkleroot": "6e40a4d2f66cf59a43910cd9db9592b0e58927e9a92acd2d7400e98333ddf1a4",
  "time": 1233906655,
  "mediantime": 1233903539,
  "nonce": 701486103,
  "bits": "1d00ffff",
  "difficulty": 1,
  "chainwork": "00000000000000000000000000000000000000000000000000000c8a0c8a0c8a",
  "nTx": 1,
  "previousblockhash": "000000008f8713e5adcfe70145e227b57e9354e457dcaf481a21e16bb7d9a1a2",
  "nextblockhash": "0000000041211665a9770f6d733f221b386238f4c097cd7c373b7f30bd1d625c",
  "strippedsize": 216,
  "size": 216,
  "weight": 864,
  "tx": [
    {
      "txid": "6e40a4d2f66cf59a43910cd9db9592b0e58927e9a92acd2d7400e98333ddf1a4",
      "hash": "6e40a4d2f66cf59a43910cd9db9592b0e58927e9a92acd2d7400e98333ddf1a4",
      "version": 1,
      "size": 135,
      "vsize": 135,
      "weight": 540,
      "locktime": 0,
      "vin": [
        {
          "coinbase": "04ffff001d02e402",
          "sequence": 4294967295
        }
      ],
      "vout": [
        {
          "value": 50.0,
          "n": 0,
          "scriptPubKey": {
            "asm": "04f2c006426cd86789dd623f220337f813e4e4f4b80716734dc95840812c06c3f0835ee21a0531571744e0cae98a24074858632d4cee716c806951e656448680aa OP_CHECKSIG",
            "desc": "pk(04f2c006426cd86789dd623f220337f813e4e4f4b80716734dc95840812c06c3f0835ee21a0531571744e0cae98a24074858632d4cee716c806951e656448680aa)#34ckrljp",
            "hex": "4104f2c006426cd86789dd623f220337f813e4e4f4b80716734dc95840812c06c3f0835ee21a0531571744e0cae98a24074858632d4cee716c806951e656448680aaac",
            "type": "pubkey"
          }
        }
      ],
      "hex": "01000000010000000000000000000000000000000000000000000000000000000000000000ffffffff0804ffff001d02e402ffffffff0100f2052a01000000434104f2c006426cd86789dd623f220337f813e4e4f4b80716734dc95840812c06c3f0835ee21a0531571744e0cae98a24074858632d4cee716c806951e656448680aaac00000000"
    }
  ]
}