{
  "hash": "00000000a58b2ee621036b20ea940018667ddfb03aa43f0075ffd194099f8f3c",
  "confirmations": 52060,
  "height": 1038,
  "version": 1,
  "versionHex": "00000001",
  "merkleroot": "4f9200f37b56a4638d0f52409c3907094eda2ee0c6389fa3cd31a012a3ada406",
  "time": 1232377504,
  "mediantime": 1232372928,
  "nonce": 3363576630,
  "bits": "1d00ffff",
  "difficulty": 1,
  "chainwork": "0000000000000000000000000000000000000000000000000000040f040f040f",
  "nTx": 1,
  "previousblockhash": "00000000182b06a9e48db4835b47500102d0363e37513f4d330295cc94aabf74",
  "nextblockhash": "00000000ec36a7861096841e14762ac7abd96cc5dd95968949f41b0b6d1cb732",
  "strippedsize": 216,
  "size": 216,
  "weight": 864,
  "tx": [
    {
      "txid": "4f9200f37b56a4638d0f52409c3907094eda2ee0c6389fa3cd31a012a3ada406",
      "hash": "4f9200f37b56a4638d0f52409c3907094eda2ee0c6389fa3cd31a012a3ada406",
      "version": 1,
      "size": 135,
      "vsize": 135,
      "weight": 540,
      "locktime": 0,
      "vin": [
        {
          "coinbase": "04ffff001d02be05",
          "sequence": 4294967295
        }
      ],
      "vout": [
        {
          "value": 50.0,
          "n": 0,
          "scriptPubKey": {
            "asm": "044c2bf079d035140d9dc987d599855faec52bbe656674dd137089b35118ee97232bb7a9ed9d4ec8018a7c54cd78e3e6bfa76f64575324096f77da9839af6a46b9 OP_CHECKSIG",
            "desc": "pk(044c2bf079d035140d9dc987d599855faec52bbe656674dd137089b35118ee97232bb7a9ed9d4ec8018a7c54cd78e3e6bfa76f64575324096f77da9839af6a46b9)#9twn9wxm",
            "hex": "41044c2bf079d035140d9dc987d599855faec52bbe656674dd137089b35118ee97232bb7a9ed9d4ec8018a7c54cd78e3e6bfa76f64575324096f77da9839af6a46b9ac",
            "type": "pubkey"
          }
        }
      ],
      "hex": "01000000010000000000000000000000000000000000000000000000000000000000000000ffffffff0804ffff001d02be05ffffffff0100f2052a010000004341044c2bf079d035140d9dc987d599855faec52bbe656674dd137089b35118ee97232bb7a9ed9d4ec8018a7c54cd78e3e6bfa76f64575324096f77da9839af6a46b9ac00000000"
    }
  ]
}