{
  "hash": "000000003f206cad3f9d1e2aab3d01cf3bacb0d1fa4ff57755d441a2c5dee2b8",
  "confirmations": 45920,
  "height": 7178,
  "version": 1,
  "versionHex": "00000001",
  "merkleroot": "c8a949eb10d743af2b9dfaebef4b17237709adafaa66cd595b7ebc4fa966d9c8",
  "time": 1236854934,
  "mediantime": 1236851370,
  "nonce": 4176290848,
  "bits": "1d00ffff",
  "difficulty": 1,
  "chainwork": "00000000000000000000000000000000000000000000000000001c0b1c0b1c0b",
  "nTx": 2,
  "previousblockhash": "000000003d09f9f599f17ef2d1c483a2c76359b424f3580080a4777f88b64bd3",
  "nextblockhash": "000000005fee4ca7eec12cfbcd1e741845b81c4fe2b8ad11c4314db1ddb1a9ab",
  "strippedsize": 643,
  "size": 643,
  "weight": 2572,
  "tx": [
    {
      "txid": "e21ef5669785d316f4e8d765931f0c8e1fbbd4fd0297c75b377569c2fedfa577",
      "hash": "e21ef5669785d316f4e8d765931f0c8e1fbbd4fd0297c75b377569c2fedfa577",
      "version": 1,
      "size": 135,
      "vsize": 135,
      "weight": 540,
      "locktime": 0,
      "vin": [
        {
          "coinbase": "04ffff001d025f05",
          "sequence": 4294967295
        }
      ],
      "vout": [
        {
          "value": 50.0,
          "n": 0,
          "scriptPubKey": {
            "asm": "04cc9bd8ea2dcc8d35f9cd98420b47825614056dee3c9413b87552489cfab933226a4392cf0c85457be2aa3888565270e98b35a6b75852f2e20208c9e1b0b74c01 OP_CHECKSIG",
            "desc": "pk(04cc9bd8ea2dcc8d35f9cd98420b47825614056dee3c9413b87552489cfab933226a4392cf0c85457be2aa3888565270e98b35a6b75852f2e20208c9e1b0b74c01)#zs27u8ae",
            "hex": "4104cc9bd8ea2dcc8d35f9cd98420b47825614056dee3c9413b87552489cfab933226a4392cf0c85457be2aa3888565270e98b35a6b75852f2e20208c9e1b0b74c01ac",
            "type": "pubkey"
          }
        }
      ],
      "hex": "01000000010000000000000000000000000000000000000000000000000000000000000000ffffffff0804ffff001d025f05ffffffff0100f2052a01000000434104cc9bd8ea2dcc8d35f9cd98420b47825614056dee3c9413b87552489cfab933226a4392cf0c85457be2aa3888565270e98b35a6b75852f2e20208c9e1b0b74c01ac00000000"
    },
    {
      "txid": "6a697d4ea52e2cb3f9c176fd2f3014f550bc0e8b4ed8e47588819535b99a39df",
      "hash": "6a697d4ea52e2cb3f9c176fd2f3014f550bc0e8b4ed8e47588819535b99a39df",
      "version": 1,
      "size": 427,
      "vsize": 427,
      "weight": 1708,
      "locktime": 0,
      "vin": [
        {
          "txid": "7b595a650a1a983dc834e2f8d349edd62e3fff78b7996a496967dfe654263979",
          "vout": 0,
          "scriptSig": {
            "asm": "304502204480b3324ab0c15f0158fd805913880bd8f650dd5b47764ee7e56c60a96c4382022100ac84a07c13a6d916adda9ad4f99424772b848aee1b3619467a374ff03ed8b287[ALL]",
            "hex": "48304502204480b3324ab0c15f0158fd805913880bd8f650dd5b47764ee7e56c60a96c4382022100ac84a07c13a6d916adda9ad4f99424772b848aee1b3619467a374ff03ed8b28701"
          },
          "sequence": 4294967295
        },
        {
          "txid": "4d2a5110febf7496d1d9c7a38b8d2ce64946986a8dc7e1f95c455202513f87bf",
          "vout": 0,
          "scriptSig": {
            "asm": "3044022044ff5314a03893cf3ebef775f218bb3204fde5ba193e0bfb7f5436ea8ee2e5a0022012435c0be05fccc7121e7a99f6078bda595b75969da8880f79d9ac09272e1232[ALL]",
            "hex": "473044022044ff5314a03893cf3ebef775f218bb3204fde5ba193e0bfb7f5436ea8ee2e5a0022012435c0be05fccc7121e7a99f6078bda595b75969da8880f79d9ac09272e123201"
          },
          "sequence": 4294967295
        },
        {
          "txid": "0c7bc2a056c61c83ed6a084c941587223baed010b484f89e3431386c390febdb",
          "vout": 0,
          "scriptSig": {
            "asm": "3045022100c8830ef22a99a358320079085d3feb52b1327caca8a8df36182cab60b69f8a7b02203c549e2a1d88a4819d6d6630777a2cbc88a2a205bf491cbd7bb19af5142500b6[ALL]",
            "hex": "483045022100c8830ef22a99a358320079085d3feb52b1327caca8a8df36182cab60b69f8a7b02203c549e2a1d88a4819d6d6630777a2cbc88a2a205bf491cbd7bb19af5142500b601"
          },
          "sequence": 4294967295
        }
      ],
      "vout": [
        {
          "value": 150.0,
          "n": 0,
          "scriptPubKey": {
            "asm": "046ed6211a69d1564d5571b0f92e191f3708c6ea6b1a240bcf955d9746db6620addc035c1a5e8edef087319b22d41a0689ec7a97a2118ce7d024db05a2854234fe OP_CHECKSIG",
            "desc": "pk(046ed6211a69d1564d5571b0f92e191f3708c6ea6b1a240bcf955d9746db6620addc035c1a5e8edef087319b22d41a0689ec7a97a2118ce7d024db05a2854234fe)#0kv35x3l",
            "hex": "41046ed6211a69d1564d5571b0f92e191f3708c6ea6b1a240bcf955d9746db6620addc035c1a5e8edef087319b22d41a0689ec7a97a2118ce7d024db05a2854234feac",
            "type": "pubkey"
          }
        }
      ],
      "fee": 0.0,
      "hex": "010000000379392654e6df6769496a99b778ff3f2ed6ed49d3f8e234c83d981a0a655a597b000000004948304502204480b3324ab0c15f0158fd805913880bd8f650dd5b47764ee7e56c60a96c4382022100ac84a07c13a6d916adda9ad4f99424772b848aee1b3619467a374ff03ed8b28701ffffffffbf873f510252455cf9e1c78d6a984649e62c8d8ba3c7d9d19674bffe10512a4d0000000048473044022044ff5314a03893cf3ebef775f218bb3204fde5ba193e0bfb7f5436ea8ee2e5a0022012435c0be05fccc7121e7a99f6078bda595b75969da8880f79d9ac09272e123201ffffffffdbeb0f396c3831349ef884b410d0ae3b228715944c086aed831cc656a0c27b0c0000000049483045022100c8830ef22a99a358320079085d3feb52b1327caca8a8df36182cab60b69f8a7b02203c549e2a1d88a4819d6d6630777a2cbc88a2a205bf491cbd7bb19af5142500b601ffffffff0100d6117e030000004341046ed6211a69d1564d5571b0f92e191f3708c6ea6b1a240bcf955d9746db6620addc035c1a5e8edef087319b22d41a0689ec7a97a2118ce7d024db05a2854234feac00000000"
    }
  ]
}