{
  "hash": "000000000e692a7ce7bade758e93e07b2bb2bd69bee2b4c48e036fd41dde061a",
  "confirmations": 49142,
  "height": 3956,
  "version": 1,
  "versionHex": "00000001",
  "merkleroot": "4c78b8e7ca5a5177a26383b70d3cc6a97f2141b7f71c07b25eb322e4da81cf9c",
  "time": 1234410175,
  "mediantime": 1234406413,
  "nonce": 1918898988,
  "bits": "1d00ffff",
  "difficulty": 1,
  "chainwork": "00000000000000000000000000000000000000000000000000000f750f750f75",
  "nTx": 1,
  "previousblockhash": "00000000e21f45957abd381bb53ba1f7b0d4954987230dcb3a5c18c9e3c4f947",
  "nextblockhash": "0000000035193a6742d4fdbfcc24fa89a5f179312233551f79370bd521408a9c",
  "strippedsize": 216,
  "size": 216,
  "weight": 864,
  "tx": [
    {
      "txid": "4c78b8e7ca5a5177a26383b70d3cc6a97f2141b7f71c07b25eb322e4da81cf9c",
      "hash": "4c78b8e7ca5a5177a26383b70d3cc6a97f2141b7f71c07b25eb322e4da81cf9c",
      "version": 1,
      "size": 135,
      "vsize": 135,
      "weight": 540,
      "locktime": 0,
      "vin": [
        {
          "coinbase": "04ffff001d02a603",
          "sequence": 4294967295
        }
      ],
      "vout": [
        {
          "value": 50.0,
          "n": 0,
          "scriptPubKey": {
            "asm": "04531799a9349c7262698333ecbd11e2af624f04bdb28921b1f498e6e1c5ca540aebcb6b2728281bf8cb679f08ba084748f5892c49e63ccc9c793caa5b6effdca5 OP_CHECKSIG",
            "desc": "pk(04531799a9349c7262698333ecbd11e2af624f04bdb28921b1f498e6e1c5ca540aebcb6b2728281bf8cb679f08ba084748f5892c49e63ccc9c793caa5b6effdca5)#spfhrs3n",
            "hex": "4104531799a9349c7262698333ecbd11e2af624f04bdb28921b1f498e6e1c5ca540aebcb6b2728281bf8cb679f08ba084748f5892c49e63ccc9c793caa5b6effdca5ac",
            "type": "pubkey"
          }
        }
      ],
      "hex": "01000000010000000000000000000000000000000000000000000000000000000000000000ffffffff0804ffff001d02a603ffffffff0100f2052a01000000434104531799a9349c7262698333ecbd11e2af624f04bdb28921b1f498e6e1c5ca540aebcb6b2728281bf8cb679f08ba084748f5892c49e63ccc9c793caa5b6effdca5ac00000000"
    }
  ]
}