{
  "hash": "000000004723d31f9674a64bd453ac2eb40ec950fc4429ab80dddc4a875297a4",
  "confirmations": 51150,
  "height": 1948,
  "version": 1,
  "versionHex": "00000001",
  "merkleroot": "27ee0d8b98ef1ad2b2af2c1813b0b827b64572189ab3e37e3ea8d9878e753f84",
  "time": 1233005789,
  "mediantime": 1233001397,
  "nonce": 529052169,
  "bits": "1d00ffff",
  "difficulty": 1,
  "chainwork": "0000000000000000000000000000000000000000000000000000079d079d079d",
  "nTx": 1,
  "previousblockhash": "0000000039dc3dd380933cba192ed683a2c8c80bee7db091b6a0be1c722c7fe8",
  "nextblockhash": "00000000fd33d335a22fa4f3f139b9147de4733ef6aabe7b98c250931ec92284",
  "strippedsize": 216,
  "size": 216,
  "weight": 864,
  "tx": [
    {
      "txid": "27ee0d8b98ef1ad2b2af2c1813b0b827b64572189ab3e37e3ea8d9878e753f84",
      "hash": "27ee0d8b98ef1ad2b2af2c1813b0b827b64572189ab3e37e3ea8d9878e753f84",
      "version": 1,
      "size": 135,
      "vsize": 135,
      "weight": 540,
      "locktime": 0,
      "vin": [
        {
          "coinbase": "04ffff001d028900",
          "sequence": 4294967295
        }
      ],
      "vout": [
        {
          "value": 50.0,
          "n": 0,
          "scriptPubKey": {
            "asm": "04ca09bd886bd8dce3d4f11b31006b003d1bc222477f26aa99867d0ca8644069260c0be594be8230dadfebe3d730305acdac78bb4fa492bfb452a5011315990315 OP_CHECKSIG",
            "desc": "pk(04ca09bd886bd8dce3d4f11b31006b003d1bc222477f26aa99867d0ca8644069260c0be594be8230dadfebe3d730305acdac78bb4fa492bfb452a5011315990315)#hesw8ddz",
            "hex": "4104ca09bd886bd8dce3d4f11b31006b003d1bc222477f26aa99867d0ca8644069260c0be594be8230dadfebe3d730305acdac78bb4fa492bfb452a5011315990315ac",
            "type": "pubkey"
          }
        }
      ],
      "hex": "01000000010000000000000000000000000000000000000000000000000000000000000000ffffffff0804ffff001d028900ffffffff0100f2052a01000000434104ca09bd886bd8dce3d4f11b31006b003d1bc222477f26aa99867d0ca8644069260c0be594be8230dadfebe3d730305acdac78bb4fa492bfb452a5011315990315ac00000000"
    }
  ]
}