{
  "hash": "000000008a49bf503cbdf8c5016927183ab252673dcde3b552a2441f6c4b5829",
  "confirmations": 48274,
  "height": 4824,
  "version": 1,
  "versionHex": "00000001",
  "merkleroot": "81cb55e5c95a8ab8f689a81618b32ffc33ce2f5e529a3018bf36b43813109f6c",
  "time": 1235016081,
  "mediantime": 1235012231,
  "nonce": 2836072964,
  "bits": "1d00ffff",
  "difficulty": 1,
  "chainwork": "000000000000000000000000000000000000000000000000000012d912d912d9",
  "nTx": 1,
  "previousblockhash": "0000000079f9e79fd7c741bf261b712379495dc62d06eca38884e7aaf3887884",
  "nextblockhash": "00000000a572f68848d819c0d35906b0905ea98f184e5e33e85832b7e46884f2",
  "strippedsize": 216,
  "size": 216,
  "weight": 864,
  "tx": [
    {
      "txid": "81cb55e5c95a8ab8f689a81618b32ffc33ce2f5e529a3018bf36b43813109f6c",
      "hash": "81cb55e5c95a8ab8f689a81618b32ffc33ce2f5e529a3018bf36b43813109f6c",
      "version": 1,
      "size": 135,
      "vsize": 135,
      "weight": 540,
      "locktime": 0,
      "vin": [
        {
          "coinbase": "04ffff001d02a804",
          "sequence": 4294967295
        }
      ],
      "vout": [
        {
          "value": 50.0,
          "n": 0,
          "scriptPubKey": {
            "asm": "041bb51121402d8f52d8cc6c2704c58e4e8e40173b7b9a8d38d4f025bbced3d32742ba0f7546f925812a2661ffa2d671c2dd26e1f50501892a6170cf98ff0c1524 OP_CHECKSIG",
            "desc": "pk(041bb51121402d8f52d8cc6c2704c58e4e8e40173b7b9a8d38d4f025bbced3d32742ba0f7546f925812a2661ffa2d671c2dd26e1f50501892a6170cf98ff0c1524)#jk5x0vy9",
            "hex": "41041bb51121402d8f52d8cc6c2704c58e4e8e40173b7b9a8d38d4f025bbced3d32742ba0f7546f925812a2661ffa2d671c2dd26e1f50501892a6170cf98ff0c1524ac",
            "type": "pubkey"
          }
        }
      ],
      "hex": "01000000010000000000000000000000000000000000000000000000000000000000000000ffffffff0804ffff001d02a804ffffffff0100f2052a010000004341041bb51121402d8f52d8cc6c2704c58e4e8e40173b7b9a8d38d4f025bbced3d32742ba0f7546f925812a2661ffa2d671c2dd26e1f50501892a6170cf98ff0c1524ac00000000"
    }
  ]
}