{
  "hash": "0000000059976df5b284b60f9aeb7bf97cc76b2647a47bced51168848c0f113b",
  "confirmations": 51351,
  "height": 1747,
  "version": 1,
  "versionHex": "00000001",
  "merkleroot": "5e9bf5a53b0ddf2c23c171fe8632105d8442c1a6523e13ed24d9c45cae40befc",
  "time": 1232873510,
  "mediantime": 1232871091,
  "nonce": 2446918450,
  "bits": "1d00ffff",
  "difficulty": 1,
  "chainwork": "000000000000000000000000000000000000000000000000000006d406d406d4",
  "nTx": 1,
  "previousblockhash": "00000000446f4aca4f8a35100496a83d97502b35129ed1301cafe7943d2dfec1",
  "nextblockhash": "00000000537e9a57c4218c609393dcb41d415e998ee6c9081a4815fab60bd2b5",
  "strippedsize": 216,
  "size": 216,
  "weight": 864,
  "tx": [
    {
      "txid": "5e9bf5a53b0ddf2c23c171fe8632105d8442c1a6523e13ed24d9c45cae40befc",
      "hash": "5e9bf5a53b0ddf2c23c171fe8632105d8442c1a6523e13ed24d9c45cae40befc",
      "version": 1,
      "size": 135,
      "vsize": 135,
      "weight": 540,
      "locktime": 0,
      "vin": [
        {
          "coinbase": "04ffff001d026e03",
          "sequence": 4294967295
        }
      ],
      "vout": [
        {
          "value": 50.0,
          "n": 0,
          "scriptPubKey": {
            "asm": "048d90b75fff83831ca949ce12829b4f92560ba2a0fdd836f2ac5ee4a4fdeb0f5743238b668e15919764a3c1272bda57762c6207cd1217881d156f11115c730acb OP_CHECKSIG",
            "desc": "pk(048d90b75fff83831ca949ce12829b4f92560ba2a0fdd836f2ac5ee4a4fdeb0f5743238b668e15919764a3c1272bda57762c6207cd1217881d156f11115c730acb)#0lnw3rc7",
            "hex": "41048d90b75fff83831ca949ce12829b4f92560ba2a0fdd836f2ac5ee4a4fdeb0f5743238b668e15919764a3c1272bda57762c6207cd1217881d156f11115c730acbac",
            "type": "pubkey"
          }
        }
      ],
      "hex": "01000000010000000000000000000000000000000000000000000000000000000000000000ffffffff0804ffff001d026e03ffffffff0100f2052a010000004341048d90b75fff83831ca949ce12829b4f92560ba2a0fdd836f2ac5ee4a4fdeb0f5743238b668e15919764a3c1272bda57762c6207cd1217881d156f11115c730acbac00000000"
    }
  ]
}