{
  "hash": "00000000e21c6bbc2a004516c3c69a0b4b62ed1c713d90d704ce486f8ffa5b07",
  "confirmations": 43356,
  "height": 9742,
  "version": 1,
  "versionHex": "00000001",
  "merkleroot": "d283d60db539bc2766b37efcbaef321dcd98241509f6f3a87a6163e64b555907",
  "time": 1238808578,
  "mediantime": 1238804543,
  "nonce": 986729784,
  "bits": "1d00ffff",
  "difficulty": 1,
  "chainwork": "0000000000000000000000000000000000000000000000000000260f260f260f",
  "nTx": 1,
  "previousblockhash": "00000000c8b469622049588e3719f880c112625e072ea59752414c61bd372486",
  "nextblockhash": "00000000f2a763b0145769996922672b59668d446bf457b349e428deedb63475",
  "strippedsize": 216,
  "size": 216,
  "weight": 864,
  "tx": [
    {
      "txid": "d283d60db539bc2766b37efcbaef321dcd98241509f6f3a87a6163e64b555907",
      "hash": "d283d60db539bc2766b37efcbaef321dcd98241509f6f3a87a6163e64b555907",
      "version": 1,
      "size": 135,
      "vsize": 135,
      "weight": 540,
      "locktime": 0,
      "vin": [
        {
          "coinbase": "04ffff001d026f09",
          "sequence": 4294967295
        }
      ],
      "vout": [
        {
          "value": 50.0,
          "n": 0,
          "scriptPubKey": {
            "asm": "0451cdaf4f9ee478208e0f40a78719ae27671f1d75f486719317ff0ca08602298a13206e41da2a8475c29cf316621d1c8eb32cd6bfd668bd6d3c3ea00d7c77d4ec OP_CHECKSIG",
            "desc": "pk(0451cdaf4f9ee478208e0f40a78719ae27671f1d75f486719317ff0ca08602298a13206e41da2a8475c29cf316621d1c8eb32cd6bfd668bd6d3c3ea00d7c77d4ec)#ey4kletc",
            "hex": "410451cdaf4f9ee478208e0f40a78719ae27671f1d75f486719317ff0ca08602298a13206e41da2a8475c29cf316621d1c8eb32cd6bfd668bd6d3c3ea00d7c77d4ecac",
            "type": "pubkey"
          }
        }
      ],
      "hex": "01000000010000000000000000000000000000000000000000000000000000000000000000ffffffff0804ffff001d026f09ffffffff0100f2052a0100000043410451cdaf4f9ee478208e0f40a78719ae27671f1d75f486719317ff0ca08602298a13206e41da2a8475c29cf316621d1c8eb32cd6bfd668bd6d3c3ea00d7c77d4ecac00000000"
    }
  ]
}