{
  "hash": "00000000037f026243cb3370690632e52be1e9bc32dd84b990443cb62b5e80f7",
  "confirmations": 46835,
  "height": 6263,
  "version": 1,
  "versionHex": "00000001",
  "merkleroot": "523eccc2eb4b68bfa2ef4b98eaed74c478c58576cc89338cf853d619b7295b8f",
  "time": 1236144569,
  "mediantime": 1236139675,
  "nonce": 3562483505,
  "bits": "1d00ffff",
  "difficulty": 1,
  "chainwork": "0000000000000000000000000000000000000000000000000000187818781878",
  "nTx": 1,
  "previousblockhash": "00000000467c7149a3cd062c4bfa43df61f24815fbf2b67a90dea456614c1d02",
  "nextblockhash": "000000005e0d1e0091ef61960feb9f0505ab33748ebd951095e74070f902582e",
  "strippedsize": 216,
  "size": 216,
  "weight": 864,
  "tx": [
    {
      "txid": "523eccc2eb4b68bfa2ef4b98eaed74c478c58576cc89338cf853d619b7295b8f",
      "hash": "523eccc2eb4b68bfa2ef4b98eaed74c478c58576cc89338cf853d619b7295b8f",
      "version": 1,
      "size": 135,
      "vsize": 135,
      "weight": 540,
      "locktime": 0,
      "vin": [
        {
          "coinbase": "04ffff001d02d409",
          "sequence": 4294967295
        }
      ],
      "vout": [
        {
          "value": 50.0,
          "n": 0,
          "scriptPubKey": {
            "asm": "04ffaddbe763eda6af1b32fd8e1d6b9d754dedd9bdf94bac869a4e3c2fae0312c1d08c1cb16ca282690ea655910d910ec3f081551141141be304f60e901d46fb4e OP_CHECKSIG",
            "desc": "pk(04ffaddbe763eda6af1b32fd8e1d6b9d754dedd9bdf94bac869a4e3c2fae0312c1d08c1cb16ca282690ea655910d910ec3f081551141141be304f60e901d46fb4e)#yluad7qe",
            "hex": "4104ffaddbe763eda6af1b32fd8e1d6b9d754dedd9bdf94bac869a4e3c2fae0312c1d08c1cb16ca282690ea655910d910ec3f081551141141be304f60e901d46fb4eac",
            "type": "pubkey"
          }
        }
      ],
      "hex": "01000000010000000000000000000000000000000000000000000000000000000000000000ffffffff0804ffff001d02d409ffffffff0100f2052a01000000434104ffaddbe763eda6af1b32fd8e1d6b9d754dedd9bdf94bac869a4e3c2fae0312c1d08c1cb16ca282690ea655910d910ec3f081551141141be304f60e901d46fb4eac00000000"
    }
  ]
}