{
  "hash": "00000000499539b7daa6092db8fc9e937d5021fe196d5e909686e75cfe7af045",
  "confirmations": 44299,
  "height": 8799,
  "version": 1,
  "versionHex": "00000001",
  "merkleroot": "1cf508ed031b38dcdd0126c91f61dfb55e9b8b1c5e4514081d7535b5ba7fea1a",
  "time": 1238099934,
  "mediantime": 1238096872,
  "nonce": 3620728596,
  "bits": "1d00ffff",
  "difficulty": 1,
  "chainwork": "0000000000000000000000000000000000000000000000000000226022602260",
  "nTx": 1,
  "previousblockhash": "000000006383601d061c77b3ee729a09265b19963040c487d3ec9cf61a483a16",
  "nextblockhash": "00000000a6b938f2407fa173d034c9da999e8f82ff27503edca069b88dd9b1c0",
  "strippedsize": 216,
  "size": 216,
  "weight": 864,
  "tx": [
    {
      "txid": "1cf508ed031b38dcdd0126c91f61dfb55e9b8b1c5e4514081d7535b5ba7fea1a",
      "hash": "1cf508ed031b38dcdd0126c91f61dfb55e9b8b1c5e4514081d7535b5ba7fea1a",
      "version": 1,
      "size": 135,
      "vsize": 135,
      "weight": 540,
      "locktime": 0,
      "vin": [
        {
          "coinbase": "04ffff001d02c702",
          "sequence": 4294967295
        }
      ],
      "vout": [
        {
          "value": 50.0,
          "n": 0,
          "scriptPubKey": {
            "asm": "04449c8bc9cbf0cd6fa614bb93d9fac5d906a7a47e67643b8ebb342b573eda7b7a858e09827f622b12449b427a78007cd0ae2e2efd44cab0bf1cf620e0b2bbde75 OP_CHECKSIG",
            "desc": "pk(04449c8bc9cbf0cd6fa614bb93d9fac5d906a7a47e67643b8ebb342b573eda7b7a858e09827f622b12449b427a78007cd0ae2e2efd44cab0bf1cf620e0b2bbde75)#w9um2cxt",
            "hex": "4104449c8bc9cbf0cd6fa614bb93d9fac5d906a7a47e67643b8ebb342b573eda7b7a858e09827f622b12449b427a78007cd0ae2e2efd44cab0bf1cf620e0b2bbde75ac",
            "type": "pubkey"
          }
        }
      ],
      "hex": "01000000010000000000000000000000000000000000000000000000000000000000000000ffffffff0804ffff001d02c702ffffffff0100f2052a01000000434104449c8bc9cbf0cd6fa614bb93d9fac5d906a7a47e67643b8ebb342b573eda7b7a858e09827f622b12449b427a78007cd0ae2e2efd44cab0bf1cf620e0b2bbde75ac00000000"
    }
  ]
}