{
  "hash": "00000000b5726567b9bd085a532889faaaa0baa8c269746353f2a484a1fde927",
  "confirmations": 50116,
  "height": 2982,
  "version": 1,
  "versionHex": "00000001",
  "merkleroot": "1b3028964beba2b0a0b945f0aa89ff09e8f241db046a68ca1f9813f6482d4f9a",
  "time": 1233749788,
  "mediantime": 1233747043,
  "nonce": 2062903074,
  "bits": "1d00ffff",
  "difficulty": 1,
  "chainwork": "00000000000000000000000000000000000000000000000000000ba70ba70ba7",
  "nTx": 1,
  "previousblockhash": "00000000c8e5e14194fb10f3f4000368b750dde2d1055cc4ffa29be0f875b9cf",
  "nextblockhash": "00000000c5c3b1bc0d890199113420a367920b20ab98ed8f6a3d31c932241789",
  "strippedsize": 216,
  "size": 216,
  "weight": 864,
  "tx": [
    {
      "txid": "1b3028964beba2b0a0b945f0aa89ff09e8f241db046a68ca1f9813f6482d4f9a",
      "hash": "1b3028964beba2b0a0b945f0aa89ff09e8f241db046a68ca1f9813f6482d4f9a",
      "version": 1,
      "size": 135,
      "vsize": 135,
      "weight": 540,
      "locktime": 0,
      "vin": [
        {
          "coinbase": "04ffff001d022001",
          "sequence": 4294967295
        }
      ],
      "vout": [
        {
          "value": 50.0,
          "n": 0,
          "scriptPubKey": {
            "asm": "049ced3b1788b7d675416cab4f9944ca353655c10a5b1d177eddcb8e4c3c4c29d25174331f0eed63aa91f0f8fea485f978995c47a80bd78a8ffe0dcd51d65cc69f OP_CHECKSIG",
            "desc": "pk(049ced3b1788b7d675416cab4f9944ca353655c10a5b1d177eddcb8e4c3c4c29d25174331f0eed63aa91f0f8fea485f978995c47a80bd78a8ffe0dcd51d65cc69f)#hvry4jc0",
            "hex": "41049ced3b1788b7d675416cab4f9944ca353655c10a5b1d177eddcb8e4c3c4c29d25174331f0eed63aa91f0f8fea485f978995c47a80bd78a8ffe0dcd51d65cc69fac",
            "type": "pubkey"
          }
        }
      ],
      "hex": "01000000010000000000000000000000000000000000000000000000000000000000000000ffffffff0804ffff001d022001ffffffff0100f2052a010000004341049ced3b1788b7d675416cab4f9944ca353655c10a5b1d177eddcb8e4c3c4c29d25174331f0eed63aa91f0f8fea485f978995c47a80bd78a8ffe0dcd51d65cc69fac00000000"
    }
  ]
}