{
  "hash": "000000009de59ca8e81e609f370b879d5b819b19c42460ff5430ce556282f175",
  "confirmations": 47937,
  "height": 5161,
  "version": 1,
  "versionHex": "00000001",
  "merkleroot": "f7207f8ccef5e77dac5424a8a16cdb28d3e28c74af0351b469eb53321e0925d6",
  "time": 1235259410,
  "mediantime": 1235256814,
  "nonce": 2281487391,
  "bits": "1d00ffff",
  "difficulty": 1,
  "chainwork": "0000000000000000000000000000000000000000000000000000142a142a142a",
  "nTx": 1,
  "previousblockhash": "00000000c6e8cbdccf6d51b66c59ac4ebd22959060ce1ec55dcff5843160a492",
  "nextblockhash": "000000008eb7d03e7f61712b56a5b21b258150d4334a488f4ba9aadd3250b780",
  "strippedsize": 216,
  "size": 216,
  "weight": 864,
  "tx": [
    {
      "txid": "f7207f8ccef5e77dac5424a8a16cdb28d3e28c74af0351b469eb53321e0925d6",
      "hash": "f7207f8ccef5e77dac5424a8a16cdb28d3e28c74af0351b469eb53321e0925d6",
      "version": 1,
      "size": 135,
      "vsize": 135,
      "weight": 540,
      "locktime": 0,
      "vin": [
        {
          "coinbase": "04ffff001d02140a",
          "sequence": 4294967295
        }
      ],
      "vout": [
        {
          "value": 50.0,
          "n": 0,
          "scriptPubKey": {
            "asm": "043cd5bac01781647307a99b48a346d9609ea0760f5738683a9c9c4d051819bbe590d9f1a0533795281858ad1dac93a08bee9e325482acae06d686cc1d69e215c7 OP_CHECKSIG",
            "desc": "pk(043cd5bac01781647307a99b48a346d9609ea0760f5738683a9c9c4d051819bbe590d9f1a0533795281858ad1dac93a08bee9e325482acae06d686cc1d69e215c7)#gd0ughrj",
            "hex": "41043cd5bac01781647307a99b48a346d9609ea0760f5738683a9c9c4d051819bbe590d9f1a0533795281858ad1dac93a08bee9e325482acae06d686cc1d69e215c7ac",
            "type": "pubkey"
          }
        }
      ],
      "hex": "01000000010000000000000000000000000000000000000000000000000000000000000000ffffffff0804ffff001d02140affffffff0100f2052a010000004341043cd5bac01781647307a99b48a346d9609ea0760f5738683a9c9c4d051819bbe590d9f1a0533795281858ad1dac93a08bee9e325482acae06d686cc1d69e215c7ac00000000"
    }
  ]
}