{
  "hash": "00000000cc30603558574da11534c8f3c8e2e44f5f96b438dd287f3cc3992a2a",
  "confirmations": 47953,
  "height": 5145,
  "version": 1,
  "versionHex": "00000001",
  "merkleroot": "5072b7732864666aa2ec4126284015c9beb3272543de40cffef9d7f2aa58bed3",
  "time": 1235249548,
  "mediantime": 1235245084,
  "nonce": 3052871448,
  "bits": "1d00ffff",
  "difficulty": 1,
  "chainwork": "0000000000000000000000000000000000000000000000000000141a141a141a",
  "nTx": 1,
  "previousblockhash": "000000000ad2e08201d27fd6cb17f87c0e4f980a5668bd619f294ff99f0f2c2e",
  "nextblockhash": "00000000083cf16b38d138788e5dc77616141d29366d1acd23447e72d31bec08",
  "strippedsize": 216,
  "size": 216,
  "weight": 864,
  "tx": [
    {
      "txid": "5072b7732864666aa2ec4126284015c9beb3272543de40cffef9d7f2aa58bed3",
      "hash": "5072b7732864666aa2ec4126284015c9beb3272543de40cffef9d7f2aa58bed3",
      "version": 1,
      "size": 135,
      "vsize": 135,
      "weight": 540,
      "locktime": 0,
      "vin": [
        {
          "coinbase": "04ffff001d02d009",
          "sequence": 4294967295
        }
      ],
      "vout": [
        {
          "value": 50.0,
          "n": 0,
          "scriptPubKey": {
            "asm": "048d540bbad2a8f40e0ab765e7a4a7d4f350cd4e003e96435e1b1dec9146902aeb9b7090b2b582fe300c82b2600bf820bd3370eb9de2aede5b5af54a9f89a31eff OP_CHECKSIG",
            "desc": "pk(048d540bbad2a8f40e0ab765e7a4a7d4f350cd4e003e96435e1b1dec9146902aeb9b7090b2b582fe300c82b2600bf820bd3370eb9de2aede5b5af54a9f89a31eff)#er7kfmxt",
            "hex": "41048d540bbad2a8f40e0ab765e7a4a7d4f350cd4e003e96435e1b1dec9146902aeb9b7090b2b582fe300c82b2600bf820bd3370eb9de2aede5b5af54a9f89a31effac",
            "type": "pubkey"
          }
        }
      ],
      "hex": "01000000010000000000000000000000000000000000000000000000000000000000000000ffffffff0804ffff001d02d009ffffffff0100f2052a010000004341048d540bbad2a8f40e0ab765e7a4a7d4f350cd4e003e96435e1b1dec9146902aeb9b7090b2b582fe300c82b2600bf820bd3370eb9de2aede5b5af54a9f89a31effac00000000"
    }
  ]
}