{
  "hash": "0000000074a2f7b5c956dfdecd4c20cde88cf1596f7ab8b93f28b349966e02b3",
  "confirmations": 43319,
  "height": 9779,
  "version": 1,
  "versionHex": "00000001",
  "merkleroot": "2cbe1bdd7437722db829c458c6d34ee54416700a93dd591bfcc609826e5e9fbb",
  "time": 1238841421,
  "mediantime": 1238837447,
  "nonce": 98102728,
  "bits": "1d00ffff",
  "difficulty": 1,
  "chainwork": "0000000000000000000000000000000000000000000000000000263426342634",
  "nTx": 1,
  "previousblockhash": "00000000056eaac616aceb9389f9a0b4812decf2ae900d328a7262d3da52d041",
  "nextblockhash": "00000000425264e355281f4eef35bcb7ff586cb4b258c47fd49cf157ff05ceb7",
  "strippedsize": 216,
  "size": 216,
  "weight": 864,
  "tx": [
    {
      "txid": "2cbe1bdd7437722db829c458c6d34ee54416700a93dd591bfcc609826e5e9fbb",
      "hash": "2cbe1bdd7437722db829c458c6d34ee54416700a93dd591bfcc609826e5e9fbb",
      "version": 1,
      "size": 135,
      "vsize": 135,
      "weight": 540,
      "locktime": 0,
      "vin": [
        {
          "coinbase": "04ffff001d021b0b",
          "sequence": 4294967295
        }
      ],
      "vout": [
        {
          "value": 50.0,
          "n": 0,
          "scriptPubKey": {
            "asm": "04636190777eacd75f484019b7cfc4c50e4f6716286fa61202bac91ea717f13f551791b00e9daab8f3dace548d5f67cb325efa76e57f4d042ec588710593c558f5 OP_CHECKSIG",
            "desc": "pk(04636190777eacd75f484019b7cfc4c50e4f6716286fa61202bac91ea717f13f551791b00e9daab8f3dace548d5f67cb325efa76e57f4d042ec588710593c558f5)#jf7zquqf",
            "hex": "4104636190777eacd75f484019b7cfc4c50e4f6716286fa61202bac91ea717f13f551791b00e9daab8f3dace548d5f67cb325efa76e57f4d042ec588710593c558f5ac",
            "type": "pubkey"
          }
        }
      ],
      "hex": "01000000010000000000000000000000000000000000000000000000000000000000000000ffffffff0804ffff001d021b0bffffffff0100f2052a01000000434104636190777eacd75f484019b7cfc4c50e4f6716286fa61202bac91ea717f13f551791b00e9daab8f3dace548d5f67cb325efa76e57f4d042ec588710593c558f5ac00000000"
    }
  ]
}