{
  "hash": "00000000edeb4b4261b9247503271235f44d9e3f40e9f473f3956c985865a384",
  "confirmations": 47515,
  "height": 5583,
  "version": 1,
  "versionHex": "00000001",
  "merkleroot": "a5f31344f60e863d3cfe30085901593d4b74930b4b5e33d9ded1e62a0ab13a4b",
  "time": 1235587757,
  "mediantime": 1235584789,
  "nonce": 331950596,
  "bits": "1d00ffff",
  "difficulty": 1,
  "chainwork": "000000000000000000000000000000000000000000000000000015d015d015d0",
  "nTx": 1,
  "previousblockhash": "0000000099bcd42c2f60abe651f157332bedfd2bf7213f3e26baf6923a9022d1",
  "nextblockhash": "000000004e10ed42c184cc5e04d636c6ee59bdcdf6cba65864a0b971f0f91238",
  "strippedsize": 216,
  "size": 216,
  "weight": 864,
  "tx": [
    {
      "txid": "a5f31344f60e863d3cfe30085901593d4b74930b4b5e33d9ded1e62a0ab13a4b",
      "hash": "a5f31344f60e863d3cfe30085901593d4b74930b4b5e33d9ded1e62a0ab13a4b",
      "version": 1,
      "size": 135,
      "vsize": 135,
      "weight": 540,
      "locktime": 0,
      "vin": [
        {
          "coinbase": "04ffff001d025607",
          "sequence": 4294967295
        }
      ],
      "vout": [
        {
          "value": 50.0,
          "n": 0,
          "scriptPubKey": {
            "asm": "042200d47ab6283d4490e11cf1965674bdaba97571b89e5f1efabc64681ca0e8f220336af39bb091d8ee92974d522f20ca851a341824c3fce2c67301dd467c4990 OP_CHECKSIG",
            "desc": "pk(042200d47ab6283d4490e11cf1965674bdaba97571b89e5f1efabc64681ca0e8f220336af39bb091d8ee92974d522f20ca851a341824c3fce2c67301dd467c4990)#p9r20zaf",
            "hex": "41042200d47ab6283d4490e11cf1965674bdaba97571b89e5f1efabc64681ca0e8f220336af39bb091d8ee92974d522f20ca851a341824c3fce2c67301dd467c4990ac",
            "type": "pubkey"
          }
        }
      ],
      "hex": "01000000010000000000000000000000000000000000000000000000000000000000000000ffffffff0804ffff001d025607ffffffff0100f2052a010000004341042200d47ab6283d4490e11cf1965674bdaba97571b89e5f1efabc64681ca0e8f220336af39bb091d8ee92974d522f20ca851a341824c3fce2c67301dd467c4990ac00000000"
    }
  ]
}