{
  "hash": "000000003e02802f5ab58d9132299394f315b860859889a34323af7487a1c6c9",
  "confirmations": 45627,
  "height": 7471,
  "version": 1,
  "versionHex": "00000001",
  "merkleroot": "96eb9e50dd4de5404ee20d6422cc8362b43adea7c80ffc24e0d7d731f8574b5b",
  "time": 1237077111,
  "mediantime": 1237073678,
  "nonce": 4153336623,
  "bits": "1d00ffff",
  "difficulty": 1,
  "chainwork": "00000000000000000000000000000000000000000000000000001d301d301d30",
  "nTx": 1,
  "previousblockhash": "000000002de78f3696efa0325b1680fda66ce777029f87753ea3b9a9c2ad15aa",
  "nextblockhash": "0000000042f33084b4d1d5ddb8aafd3c2276ba8b055b7c44935f9eb63650bfe8",
  "strippedsize": 216,
  "size": 216,
  "weight": 864,
  "tx": [
    {
      "txid": "96eb9e50dd4de5404ee20d6422cc8362b43adea7c80ffc24e0d7d731f8574b5b",
      "hash": "96eb9e50dd4de5404ee20d6422cc8362b43adea7c80ffc24e0d7d731f8574b5b",
      "version": 1,
      "size": 135,
      "vsize": 135,
      "weight": 540,
      "locktime": 0,
      "vin": [
        {
          "coinbase": "04ffff001d028700",
          "sequence": 4294967295
        }
      ],
      "vout": [
        {
          "value": 50.0,
          "n": 0,
          "scriptPubKey": {
            "asm": "04db75366f22594a8dd5597504551795091f8a6344172d7b666089aedb233d542769517946f95568ec8a0d0e3fa2e1cd4d70d1ff74131e5f1456bfd4db7b192e21 OP_CHECKSIG",
            "desc": "pk(04db75366f22594a8dd5597504551795091f8a6344172d7b666089aedb233d542769517946f95568ec8a0d0e3fa2e1cd4d70d1ff74131e5f1456bfd4db7b192e21)#83jhuq02",
            "hex": "4104db75366f22594a8dd5597504551795091f8a6344172d7b666089aedb233d542769517946f95568ec8a0d0e3fa2e1cd4d70d1ff74131e5f1456bfd4db7b192e21ac",
            "type": "pubkey"
          }
        }
      ],
      "hex": "01000000010000000000000000000000000000000000000000000000000000000000000000ffffffff0804ffff001d028700ffffffff0100f2052a01000000434104db75366f22594a8dd5597504551795091f8a6344172d7b666089aedb233d542769517946f95568ec8a0d0e3fa2e1cd4d70d1ff74131e5f1456bfd4db7b192e21ac00000000"
    }
  ]
}