{
  "hash": "000000001382080813aa522a4414d659e6e70df27999f3477096ed885b589a02",
  "confirmations": 51157,
  "height": 1941,
  "version": 1,
  "versionHex": "00000001",
  "merkleroot": "ce7517f44f852db21ab794ad32c82d9d9f29fc04a13236499e88a0cdf54fc924",
  "time": 1232999321,
  "mediantime": 1232996393,
  "nonce": 529517599,
  "bits": "1d00ffff",
  "difficulty": 1,
  "chainwork": "0000000000000000000000000000000000000000000000000000079607960796",
  "nTx": 1,
  "previousblockhash": "0000000056cb3abfa6d975ce08a6055365c432426a39ea7d8d984562dbbcea07",
  "nextblockhash": "00000000aeac8600a0469f121345575bcb5957f00d42ad88c815a69eb69b864c",
  "strippedsize": 215,
  "size": 215,
  "weight": 860,
  "tx": [
    {
      "txid": "ce7517f44f852db21ab794ad32c82d9d9f29fc04a13236499e88a0cdf54fc924",
      "hash": "ce7517f44f852db21ab794ad32c82d9d9f29fc04a13236499e88a0cdf54fc924",
      "version": 1,
      "size": 134,
      "vsize": 134,
      "weight": 536,
      "locktime": 0,
      "vin": [
        {
          "coinbase": "04ffff001d0176",
          "sequence": 4294967295
        }
      ],
      "vout": [
        {
          "value": 50.0,
          "n": 0,
          "scriptPubKey": {
            "asm": "04f6783f993e227c72b47e7f6cb97ba750b3da206550e4f77f9d4721a3c2367ef50f6a2b9b58c524dfc85389495ec75009f9f9041ff069e540398530451181a134 OP_CHECKSIG",
            "desc": "pk(04f6783f993e227c72b47e7f6cb97ba750b3da206550e4f77f9d4721a3c2367ef50f6a2b9b58c524dfc85389495ec75009f9f9041ff069e540398530451181a134)#0kmt8t4g",
            "hex": "4104f6783f993e227c72b47e7f6cb97ba750b3da206550e4f77f9d4721a3c2367ef50f6a2b9b58c524dfc85389495ec75009f9f9041ff069e540398530451181a134ac",
            "type": "pubkey"
          }
        }
      ],
      "hex": "01000000010000000000000000000000000000000000000000000000000000000000000000ffffffff0704ffff001d0176ffffffff0100f2052a01000000434104f6783f993e227c72b47e7f6cb97ba750b3da206550e4f77f9d4721a3c2367ef50f6a2b9b58c524dfc85389495ec75009f9f9041ff069e540398530451181a134ac00000000"
    }
  ]
}