{
  "hash": "0000000020bebe565f9bde8453ce1394de77844a370a3bb9f81e91fa7237ce7b",
  "confirmations": 47809,
  "height": 5289,
  "version": 1,
  "versionHex": "00000001",
  "merkleroot": "8bc3dec11525b2f50f3a959fdf5916b72e19d619a19980b9e2596a1f7652ff19",
  "time": 1235351406,
  "mediantime": 1235348198,
  "nonce": 352841782,
  "bits": "1d00ffff",
  "difficulty": 1,
  "chainwork": "000000000000000000000000000000000000000000000000000014aa14aa14aa",
  "nTx": 1,
  "previousblockhash": "00000000fb24bae51783091ab736aa5a71c6a87fa1e44816236e9a6e97f8dee0",
  "nextblockhash": "000000000582a00b84ae25641340e3511ce6945807dc98fbb281c4417418fd4a",
  "strippedsize": 216,
  "size": 216,
  "weight": 864,
  "tx": [
    {
      "txid": "8bc3dec11525b2f50f3a959fdf5916b72e19d619a19980b9e2596a1f7652ff19",
      "hash": "8bc3dec11525b2f50f3a959fdf5916b72e19d619a19980b9e2596a1f7652ff19",
      "version": 1,
      "size": 135,
      "vsize": 135,
      "weight": 540,
      "locktime": 0,
      "vin": [
        {
          "coinbase": "04ffff001d02df01",
          "sequence": 4294967295
        }
      ],
      "vout": [
        {
          "value": 50.0,
          "n": 0,
          "scriptPubKey": {
            "asm": "04dd26992314beb34e4394d2a875060ce9c85b646f45203e99f1693fa41d9ae4d258a53170fc9a109c7f6d6a7180bfd86e8e813b671de87e505407e69020d79fc9 OP_CHECKSIG",
            "desc": "pk(04dd26992314beb34e4394d2a875060ce9c85b646f45203e99f1693fa41d9ae4d258a53170fc9a109c7f6d6a7180bfd86e8e813b671de87e505407e69020d79fc9)#kmcpr4hr",
            "hex": "4104dd26992314beb34e4394d2a875060ce9c85b646f45203e99f1693fa41d9ae4d258a53170fc9a109c7f6d6a7180bfd86e8e813b671de87e505407e69020d79fc9ac",
            "type": "pubkey"
          }
        }
      ],
      "hex": "01000000010000000000000000000000000000000000000000000000000000000000000000ffffffff0804ffff001d02df01ffffffff0100f2052a01000000434104dd26992314beb34e4394d2a875060ce9c85b646f45203e99f1693fa41d9ae4d258a53170fc9a109c7f6d6a7180bfd86e8e813b671de87e505407e69020d79fc9ac00000000"
    }
  ]
}