{
  "hash": "0000000020fd18966269582d45778b66492cff334aebdf939c0786dbf30815d7",
  "confirmations": 52223,
  "height": 389,
  "version": 1,
  "versionHex": "00000001",
  "merkleroot": "cc4e08387b763ca8dbfc28054f9f6be626d0fd1797f1eaaf8df0cec90cfcd0b6",
  "time": 1231894426,
  "mediantime": 1231890178,
  "nonce": 3302147895,
  "bits": "1d00ffff",
  "difficulty": 1,
  "chainwork": "0000000000000000000000000000000000000000000000000000018601860186",
  "nTx": 1,
  "previousblockhash": "00000000a8c559dd08b5a038ce306cdea26549d6fd5bc69afdef5fd472e6ca6c",
  "nextblockhash": "00000000cfe2c153bac08324be181717740ababbfc912840a80be7b7ba1970ca",
  "strippedsize": 216,
  "size": 216,
  "weight": 864,
  "tx": [
    {
      "txid": "cc4e08387b763ca8dbfc28054f9f6be626d0fd1797f1eaaf8df0cec90cfcd0b6",
      "hash": "cc4e08387b763ca8dbfc28054f9f6be626d0fd1797f1eaaf8df0cec90cfcd0b6",
      "version": 1,
      "size": 135,
      "vsize": 135,
      "weight": 540,
      "locktime": 0,
      "vin": [
        {
          "coinbase": "04ffff001d023e02",
          "sequence": 4294967295
        }
      ],
      "vout": [
        {
          "value": 50.0,
          "n": 0,
          "scriptPubKey": {
            "asm": "04eb53d23f55095d667966d0244e3cea1595907e2284370307e990a6603bfbe8a8f1292eac71e830a79f3fe1a92cef6048ef1b082f2eca5218d0762677b4c75608 OP_CHECKSIG",
            "desc": "pk(04eb53d23f55095d667966d0244e3cea1595907e2284370307e990a6603bfbe8a8f1292eac71e830a79f3fe1a92cef6048ef1b082f2eca5218d0762677b4c75608)#c9ave6xt",
            "hex": "4104eb53d23f55095d667966d0244e3cea1595907e2284370307e990a6603bfbe8a8f1292eac71e830a79f3fe1a92cef6048ef1b082f2eca5218d0762677b4c75608ac",
            "type": "pubkey"
          }
        }
      ],
      "hex": "01000000010000000000000000000000000000000000000000000000000000000000000000ffffffff0804ffff001d023e02ffffffff0100f2052a01000000434104eb53d23f55095d667966d0244e3cea1595907e2284370307e990a6603bfbe8a8f1292eac71e830a79f3fe1a92cef6048ef1b082f2eca5218d0762677b4c75608ac00000000"
    }
  ]
}