{
  "hash": "00000000b3a56e88b76616452ba6763eece0756f8ed061dea6b48a96c0e8f35d",
  "confirmations": 44393,
  "height": 8705,
  "version": 1,
  "versionHex": "00000001",
  "merkleroot": "ab99b295bf49020917b9ca20540ddc7344f7436b802d41a681f904eded94ae0d",
  "time": 1238028385,
  "mediantime": 1238024020,
  "nonce": 103197722,
  "bits": "1d00ffff",
  "difficulty": 1,
  "chainwork": "0000000000000000000000000000000000000000000000000000220222022202",
  "nTx": 1,
  "previousblockhash": "0000000023bf2a6b9fdb55a03690eb77a746bb0e95488f18c666c45cf3511720",
  "nextblockhash": "00000000b830b128c054ce9e1a8492236b24731c6edd4f7c91d53444184475f3",
  "strippedsize": 216,
  "size": 216,
  "weight": 864,
  "tx": [
    {
      "txid": "ab99b295bf49020917b9ca20540ddc7344f7436b802d41a681f904eded94ae0d",
      "hash": "ab99b295bf49020917b9ca20540ddc7344f7436b802d41a681f904eded94ae0d",
      "version": 1,
      "size": 135,
      "vsize": 135,
      "weight": 540,
      "locktime": 0,
      "vin": [
        {
          "coinbase": "04ffff001d02f900",
          "sequence": 4294967295
        }
      ],
      "vout": [
        {
          "value": 50.0,
          "n": 0,
          "scriptPubKey": {
            "asm": "0425072da202009066c5a3e782a2bdc457cb445895dd2237748b2eedc45d41dc401d194a3406a40a3472b8809b8be54966e84ca6f622506d2166c9e0fd41692e1d OP_CHECKSIG",
            "desc": "pk(0425072da202009066c5a3e782a2bdc457cb445895dd2237748b2eedc45d41dc401d194a3406a40a3472b8809b8be54966e84ca6f622506d2166c9e0fd41692e1d)#6599ls4w",
            "hex": "410425072da202009066c5a3e782a2bdc457cb445895dd2237748b2eedc45d41dc401d194a3406a40a3472b8809b8be54966e84ca6f622506d2166c9e0fd41692e1dac",
            "type": "pubkey"
          }
        }
      ],
      "hex": "01000000010000000000000000000000000000000000000000000000000000000000000000ffffffff0804ffff001d02f900ffffffff0100f2052a0100000043410425072da202009066c5a3e782a2bdc457cb445895dd2237748b2eedc45d41dc401d194a3406a40a3472b8809b8be54966e84ca6f622506d2166c9e0fd41692e1dac00000000"
    }
  ]
}