{
  "hash": "0000000051fa1fdf351a2caaedfbf79912934561ab009b9ed6e287bf41299f9b",
  "confirmations": 45770,
  "height": 7328,
  "version": 1,
  "versionHex": "00000001",
  "merkleroot": "56dc25f63eee2c035c8f2e6efbc83ec0d5db620901d6388b8ebe778dc19a1833",
  "time": 1236968157,
  "mediantime": 1236964266,
  "nonce": 1628607290,
  "bits": "1d00ffff",
  "difficulty": 1,
  "chainwork": "00000000000000000000000000000000000000000000000000001ca11ca11ca1",
  "nTx": 1,
  "previousblockhash": "0000000036ba5f0892f8e538f8e11bb525368921c0da9a972fc351bee24695a6",
  "nextblockhash": "00000000fc6277e0756dca8d31e33b9f2541ffc0fc1bd4a7a5e17fde998e4021",
  "strippedsize": 216,
  "size": 216,
  "weight": 864,
  "tx": [
    {
      "txid": "56dc25f63eee2c035c8f2e6efbc83ec0d5db620901d6388b8ebe778dc19a1833",
      "hash": "56dc25f63eee2c035c8f2e6efbc83ec0d5db620901d6388b8ebe778dc19a1833",
      "version": 1,
      "size": 135,
      "vsize": 135,
      "weight": 540,
      "locktime": 0,
      "vin": [
        {
          "coinbase": "04ffff001d020f08",
          "sequence": 4294967295
        }
      ],
      "vout": [
        {
          "value": 50.0,
          "n": 0,
          "scriptPubKey": {
            "asm": "04302124ff70781df7914cbb78d3870304c09d436ee2cb0291ff455199edff8c93d1f869d1dd357fbecb66379399860533accfeeae11911b97dd2ba07fda0f9a3d OP_CHECKSIG",
            "desc": "pk(04302124ff70781df7914cbb78d3870304c09d436ee2cb0291ff455199edff8c93d1f869d1dd357fbecb66379399860533accfeeae11911b97dd2ba07fda0f9a3d)#g6vwtjm9",
            "hex": "4104302124ff70781df7914cbb78d3870304c09d436ee2cb0291ff455199edff8c93d1f869d1dd357fbecb66379399860533accfeeae11911b97dd2ba07fda0f9a3dac",
            "type": "pubkey"
          }
        }
      ],
      "hex": "01000000010000000000000000000000000000000000000000000000000000000000000000ffffffff0804ffff001d020f08ffffffff0100f2052a01000000434104302124ff70781df7914cbb78d3870304c09d436ee2cb0291ff455199edff8c93d1f869d1dd357fbecb66379399860533accfeeae11911b97dd2ba07fda0f9a3dac00000000"
    }
  ]
}