{
  "hash": "00000000a41d7cd90863e72b25cb473115c90bdc839059c24d4b9418aeeb2238",
  "confirmations": 47642,
  "height": 5456,
  "version": 1,
  "versionHex": "00000001",
  "merkleroot": "0222afcfe95fa1ad1eadefefea2ae73e6fb5887ac9719ab294ad9afa688f9192",
  "time": 1235487880,
  "mediantime": 1235484796,
  "nonce": 2095222585,
  "bits": "1d00ffff",
  "difficulty": 1,
  "chainwork": "0000000000000000000000000000000000000000000000000000155115511551",
  "nTx": 1,
  "previousblockhash": "00000000c195cde16f3dbf9f7c65976e9225e500a92d285b052d027556253519",
  "nextblockhash": "0000000010a507c16fe49a0f1c49913a77e503574c7cfac13222362ee6ef4f8b",
  "strippedsize": 216,
  "size": 216,
  "weight": 864,
  "tx": [
    {
      "txid": "0222afcfe95fa1ad1eadefefea2ae73e6fb5887ac9719ab294ad9afa688f9192",
      "hash": "0222afcfe95fa1ad1eadefefea2ae73e6fb5887ac9719ab294ad9afa688f9192",
      "version": 1,
      "size": 135,
      "vsize": 135,
      "weight": 540,
      "locktime": 0,
      "vin": [
        {
          "coinbase": "04ffff001d02d304",
          "sequence": 4294967295
        }
      ],
      "vout": [
        {
          "value": 50.0,
          "n": 0,
          "scriptPubKey": {
            "asm": "049179206ac114668adab38bbf1804130ba39d7914a19e6f4df28c2169191ef9d882d1692dfc65fa584127a54bec2d3fee111859d9b7f36f95d2be27ddac718ba7 OP_CHECKSIG",
            "desc": "pk(049179206ac114668adab38bbf1804130ba39d7914a19e6f4df28c2169191ef9d882d1692dfc65fa584127a54bec2d3fee111859d9b7f36f95d2be27ddac718ba7)#hhrpu63z",
            "hex": "41049179206ac114668adab38bbf1804130ba39d7914a19e6f4df28c2169191ef9d882d1692dfc65fa584127a54bec2d3fee111859d9b7f36f95d2be27ddac718ba7ac",
            "type": "pubkey"
          }
        }
      ],
      "hex": "01000000010000000000000000000000000000000000000000000000000000000000000000ffffffff0804ffff001d02d304ffffffff0100f2052a010000004341049179206ac114668adab38bbf1804130ba39d7914a19e6f4df28c2169191ef9d882d1692dfc65fa584127a54bec2d3fee111859d9b7f36f95d2be27ddac718ba7ac00000000"
    }
  ]
}