{
  "hash": "00000000b1bf24392cb8320600e7bf0e95b0b8510b87cf82ec6d187d11b3a718",
  "confirmations": 45544,
  "height": 7554,
  "version": 1,
  "versionHex": "00000001",
  "merkleroot": "d8ee04b61eba5a7e168b42dd6e76be584923186dc7746d5f573cd2b4903c00eb",
  "time": 1237140343,
  "mediantime": 1237135050,
  "nonce": 356784393,
  "bits": "1d00ffff",
  "difficulty": 1,
  "chainwork": "00000000000000000000000000000000000000000000000000001d831d831d83",
  "nTx": 1,
  "previousblockhash": "00000000494fb6db10cc44b776b2984444f42dd4a2667b6d399ce6a5b6c20449",
  "nextblockhash": "00000000b2329dd5992114e0cd7d04386c9d0cf332f4032f4380fae24b609e44",
  "strippedsize": 216,
  "size": 216,
  "weight": 864,
  "tx": [
    {
      "txid": "d8ee04b61eba5a7e168b42dd6e76be584923186dc7746d5f573cd2b4903c00eb",
      "hash": "d8ee04b61eba5a7e168b42dd6e76be584923186dc7746d5f573cd2b4903c00eb",
      "version": 1,
      "size": 135,
      "vsize": 135,
      "weight": 540,
      "locktime": 0,
      "vin": [
        {
          "coinbase": "04ffff001d02fc01",
          "sequence": 4294967295
        }
      ],
      "vout": [
        {
          "value": 50.0,
          "n": 0,
          "scriptPubKey": {
            "asm": "047f78c5bf1a44286d969769ffbeb75450b840e3189c9535d2839840ce18081a28882678ee8288f5cec45ea7fded2029a5a71df1c287f9d4b38cf9d1728bd387f1 OP_CHECKSIG",
            "desc": "pk(047f78c5bf1a44286d969769ffbeb75450b840e3189c9535d2839840ce18081a28882678ee8288f5cec45ea7fded2029a5a71df1c287f9d4b38cf9d1728bd387f1)#9eqmqdsq",
            "hex": "41047f78c5bf1a44286d969769ffbeb75450b840e3189c9535d2839840ce18081a28882678ee8288f5cec45ea7fded2029a5a71df1c287f9d4b38cf9d1728bd387f1ac",
            "type": "pubkey"
          }
        }
      ],
      "hex": "01000000010000000000000000000000000000000000000000000000000000000000000000ffffffff0804ffff001d02fc01ffffffff0100f2052a010000004341047f78c5bf1a44286d969769ffbeb75450b840e3189c9535d2839840ce18081a28882678ee8288f5cec45ea7fded2029a5a71df1c287f9d4b38cf9d1728bd387f1ac00000000"
    }
  ]
}