{
  "hash": "0000000048ce42951e8af4797031ac2a47772191baf7f7f2df5b57936c53be57",
  "confirmations": 43244,
  "height": 9854,
  "version": 1,
  "versionHex": "00000001",
  "merkleroot": "04c384195fce6bd42b210553fdfac4c0efc7deaae4c855f068f5ffed8493ae1b",
  "time": 1238895059,
  "mediantime": 1238891127,
  "nonce": 971545898,
  "bits": "1d00ffff",
  "difficulty": 1,
  "chainwork": "0000000000000000000000000000000000000000000000000000267f267f267f",
  "nTx": 1,
  "previousblockhash": "00000000d0a62503184328056dce83fb5f11fc41efc2ae6a939399268093502a",
  "nextblockhash": "000000006d47c68cd89311254e5a4ab94a3786761e9b95aa08c493c6b3198b7f",
  "strippedsize": 216,
  "size": 216,
  "weight": 864,
  "tx": [
    {
      "txid": "04c384195fce6bd42b210553fdfac4c0efc7deaae4c855f068f5ffed8493ae1b",
      "hash": "04c384195fce6bd42b210553fdfac4c0efc7deaae4c855f068f5ffed8493ae1b",
      "version": 1,
      "size": 135,
      "vsize": 135,
      "weight": 540,
      "locktime": 0,
      "vin": [
        {
          "coinbase": "04ffff001d024e01",
          "sequence": 4294967295
        }
      ],
      "vout": [
        {
          "value": 50.0,
          "n": 0,
          "scriptPubKey": {
            "asm": "0475fd071e980c5644062d9c70bcf5ef84c60f8cd9f7815ad6816ffae74343af7eae4fc14d153347cc06a97e77683161911b5fbcea35d735fa127a1db1bee18d58 OP_CHECKSIG",
            "desc": "pk(0475fd071e980c5644062d9c70bcf5ef84c60f8cd9f7815ad6816ffae74343af7eae4fc14d153347cc06a97e77683161911b5fbcea35d735fa127a1db1bee18d58)#gm2xsxxl",
            "hex": "410475fd071e980c5644062d9c70bcf5ef84c60f8cd9f7815ad6816ffae74343af7eae4fc14d153347cc06a97e77683161911b5fbcea35d735fa127a1db1bee18d58ac",
            "type": "pubkey"
          }
        }
      ],
      "hex": "01000000010000000000000000000000000000000000000000000000000000000000000000ffffffff0804ffff001d024e01ffffffff0100f2052a0100000043410475fd071e980c5644062d9c70bcf5ef84c60f8cd9f7815ad6816ffae74343af7eae4fc14d153347cc06a97e77683161911b5fbcea35d735fa127a1db1bee18d58ac00000000"
    }
  ]
}