{
  "hash": "000000000150d645c43690bc7ba1caaa7add0a25bd32c21f67ea1cdd594e1cc4",
  "confirmations": 49667,
  "height": 3431,
  "version": 1,
  "versionHex": "00000001",
  "merkleroot": "bac7334be18f34c81b53f8778fdf597a9c485deea887dabbe293424259703acd",
  "time": 1234059037,
  "mediantime": 1234056386,
  "nonce": 3580555057,
  "bits": "1d00ffff",
  "difficulty": 1,
  "chainwork": "00000000000000000000000000000000000000000000000000000d680d680d68",
  "nTx": 1,
  "previousblockhash": "00000000a2a59182a50b4f9e1b2f0f966933feea493939d429707c1389956a9d",
  "nextblockhash": "000000002997845107d9649b1d8e55fd8c35f4833da9db973f515c1162addd21",
  "strippedsize": 216,
  "size": 216,
  "weight": 864,
  "tx": [
    {
      "txid": "bac7334be18f34c81b53f8778fdf597a9c485deea887dabbe293424259703acd",
      "hash": "bac7334be18f34c81b53f8778fdf597a9c485deea887dabbe293424259703acd",
      "version": 1,
      "size": 135,
      "vsize": 135,
      "weight": 540,
      "locktime": 0,
      "vin": [
        {
          "coinbase": "04ffff001d020e06",
          "sequence": 4294967295
        }
      ],
      "vout": [
        {
          "value": 50.0,
          "n": 0,
          "scriptPubKey": {
            "asm": "0474b3bb6c01b8f5e56592f76aa710c1e1ba7e8b6b6c016eb8b23c45ad57c3d292e0f240abe21a6c6ac42b9d95931ea9064756dfec1d95277a7a6388a93ae59aa7 OP_CHECKSIG",
            "desc": "pk(0474b3bb6c01b8f5e56592f76aa710c1e1ba7e8b6b6c016eb8b23c45ad57c3d292e0f240abe21a6c6ac42b9d95931ea9064756dfec1d95277a7a6388a93ae59aa7)#v7cg4m7u",
            "hex": "410474b3bb6c01b8f5e56592f76aa710c1e1ba7e8b6b6c016eb8b23c45ad57c3d292e0f240abe21a6c6ac42b9d95931ea9064756dfec1d95277a7a6388a93ae59aa7ac",
            "type": "pubkey"
          }
        }
      ],
      "hex": "01000000010000000000000000000000000000000000000000000000000000000000000000ffffffff0804ffff001d020e06ffffffff0100f2052a0100000043410474b3bb6c01b8f5e56592f76aa710c1e1ba7e8b6b6c016eb8b23c45ad57c3d292e0f240abe21a6c6ac42b9d95931ea9064756dfec1d95277a7a6388a93ae59aa7ac00000000"
    }
  ]
}