{
  "hash": "000000007f4d5878b1965c46df374dc15b6f002a1f84a3d1aeaddf119b39fef6",
  "confirmations": 50814,
  "height": 2284,
  "version": 1,
  "versionHex": "00000001",
  "merkleroot": "7557f3e4ad20ed25f3fa7271409edc8ba2c34035696038523878b27c8d3585f7",
  "time": 1233269891,
  "mediantime": 1233266839,
  "nonce": 4677151,
  "bits": "1d00ffff",
  "difficulty": 1,
  "chainwork": "000000000000000000000000000000000000000000000000000008ed08ed08ed",
  "nTx": 1,
  "previousblockhash": "000000007569ac9cf8db89a6903ed71218bcf25786370acefef1866e15e96216",
  "nextblockhash": "000000002d9af58ffb34e9f64fd800380506a575c53476fe65b806acee7d5e9c",
  "strippedsize": 216,
  "size": 216,
  "weight": 864,
  "tx": [
    {
      "txid": "7557f3e4ad20ed25f3fa7271409edc8ba2c34035696038523878b27c8d3585f7",
      "hash": "7557f3e4ad20ed25f3fa7271409edc8ba2c34035696038523878b27c8d3585f7",
      "version": 1,
      "size": 135,
      "vsize": 135,
      "weight": 540,
      "locktime": 0,
      "vin": [
        {
          "coinbase": "04ffff001d024001",
          "sequence": 4294967295
        }
      ],
      "vout": [
        {
          "value": 50.0,
          "n": 0,
          "scriptPubKey": {
            "asm": "04552b348ced7553cdb1a06ca147d80f6135e739a681b8815b5fc2e875556b884ad2992513642c1d47de419ac65a45e005dbbcacdade5fc3cb556a635981b5a552 OP_CHECKSIG",
            "desc": "pk(04552b348ced7553cdb1a06ca147d80f6135e739a681b8815b5fc2e875556b884ad2992513642c1d47de419ac65a45e005dbbcacdade5fc3cb556a635981b5a552)#9p4hq8vp",
            "hex": "4104552b348ced7553cdb1a06ca147d80f6135e739a681b8815b5fc2e875556b884ad2992513642c1d47de419ac65a45e005dbbcacdade5fc3cb556a635981b5a552ac",
            "type": "pubkey"
          }
        }
      ],
      "hex": "01000000010000000000000000000000000000000000000000000000000000000000000000ffffffff0804ffff001d024001ffffffff0100f2052a01000000434104552b348ced7553cdb1a06ca147d80f6135e739a681b8815b5fc2e875556b884ad2992513642c1d47de419ac65a45e005dbbcacdade5fc3cb556a635981b5a552ac00000000"
    }
  ]
}