{
  "hash": "000000001330bcf09ebb284a528734961a23c361bbd3807c47bd0d570156b975",
  "confirmations": 50965,
  "height": 2133,
  "version": 1,
  "versionHex": "00000001",
  "merkleroot": "758e7992b613f59fd4857af5d4b09ec4a1df435dbd3df0cea764eacc31b9f0f3",
  "time": 1233161650,
  "mediantime": 1233157885,
  "nonce": 2873511687,
  "bits": "1d00ffff",
  "difficulty": 1,
  "chainwork": "0000000000000000000000000000000000000000000000000000085608560856",
  "nTx": 1,
  "previousblockhash": "00000000907fef6d24dbd9646cc5d27f6836e76a15f1105e250230323dd1c7ed",
  "nextblockhash": "000000006d15a46f33f628b76373bcb4c42ed89937b033823d0cf0fd86809a65",
  "strippedsize": 215,
  "size": 215,
  "weight": 860,
  "tx": [
    {
      "txid": "758e7992b613f59fd4857af5d4b09ec4a1df435dbd3df0cea764eacc31b9f0f3",
      "hash": "758e7992b613f59fd4857af5d4b09ec4a1df435dbd3df0cea764eacc31b9f0f3",
      "version": 1,
      "size": 134,
      "vsize": 134,
      "weight": 536,
      "locktime": 0,
      "vin": [
        {
          "coinbase": "04ffff001d0109",
          "sequence": 4294967295
        }
      ],
      "vout": [
        {
          "value": 50.0,
          "n": 0,
          "scriptPubKey": {
            "asm": "04b096a4545f7b64fb099a853c351c3d87d8dc983f95955b79823eeb3ba7c08c5d297220d1f3803db673c698ec42f870346d780fad74fe05fdb8c77288122b63f4 OP_CHECKSIG",
            "desc": "pk(04b096a4545f7b64fb099a853c351c3d87d8dc983f95955b79823eeb3ba7c08c5d297220d1f3803db673c698ec42f870346d780fad74fe05fdb8c77288122b63f4)#sukmal8g",
            "hex": "4104b096a4545f7b64fb099a853c351c3d87d8dc983f95955b79823eeb3ba7c08c5d297220d1f3803db673c698ec42f870346d780fad74fe05fdb8c77288122b63f4ac",
            "type": "pubkey"
          }
        }
      ],
      "hex": "01000000010000000000000000000000000000000000000000000000000000000000000000ffffffff0704ffff001d0109ffffffff0100f2052a01000000434104b096a4545f7b64fb099a853c351c3d87d8dc983f95955b79823eeb3ba7c08c5d297220d1f3803db673c698ec42f870346d780fad74fe05fdb8c77288122b63f4ac00000000"
    }
  ]
}