{
  "hash": "00000000442772a606f286ca57d5786f64b3bf1f600d47c413023aca7f1d20ac",
  "confirmations": 47807,
  "height": 5291,
  "version": 1,
  "versionHex": "00000001",
  "merkleroot": "f0148440e4fe53ef60fa65db62b7f366b2a96d81fa826aaa134db174dd8874b7",
  "time": 1235353976,
  "mediantime": 1235349846,
  "nonce": 1756485678,
  "bits": "1d00ffff",
  "difficulty": 1,
  "chainwork": "000000000000000000000000000000000000000000000000000014ac14ac14ac",
  "nTx": 1,
  "previousblockhash": "000000000582a00b84ae25641340e3511ce6945807dc98fbb281c4417418fd4a",
  "nextblockhash": "000000006b3275f11168b473cef0830a354e8e7ee4d4a740c84f0423adc4c54c",
  "strippedsize": 216,
  "size": 216,
  "weight": 864,
  "tx": [
    {
      "txid": "f0148440e4fe53ef60fa65db62b7f366b2a96d81fa826aaa134db174dd8874b7",
      "hash": "f0148440e4fe53ef60fa65db62b7f366b2a96d81fa826aaa134db174dd8874b7",
      "version": 1,
      "size": 135,
      "vsize": 135,
      "weight": 540,
      "locktime": 0,
      "vin": [
        {
          "coinbase": "04ffff001d02e601",
          "sequence": 4294967295
        }
      ],
      "vout": [
        {
          "value": 50.0,
          "n": 0,
          "scriptPubKey": {
            "asm": "0401968eb2bbaf31cee4df35fbdd8accadbbbfa072f5ce12803b0ef7525afce39654b71dd63023fe15caf49fcde8b3ae4af785d6440271e2137c1198a0c8bc24cb OP_CHECKSIG",
            "desc": "pk(0401968eb2bbaf31cee4df35fbdd8accadbbbfa072f5ce12803b0ef7525afce39654b71dd63023fe15caf49fcde8b3ae4af785d6440271e2137c1198a0c8bc24cb)#9hkum4r5",
            "hex": "410401968eb2bbaf31cee4df35fbdd8accadbbbfa072f5ce12803b0ef7525afce39654b71dd63023fe15caf49fcde8b3ae4af785d6440271e2137c1198a0c8bc24cbac",
            "type": "pubkey"
          }
        }
      ],
      "hex": "01000000010000000000000000000000000000000000000000000000000000000000000000ffffffff0804ffff001d02e601ffffffff0100f2052a0100000043410401968eb2bbaf31cee4df35fbdd8accadbbbfa072f5ce12803b0ef7525afce39654b71dd63023fe15caf49fcde8b3ae4af785d6440271e2137c1198a0c8bc24cbac00000000"
    }
  ]
}