{
  "hash": "00000000bfd3c9bce9f32df730377f628c8c09a3175603cfd40095a361b8c417",
  "confirmations": 50379,
  "height": 2719,
  "version": 1,
  "versionHex": "00000001",
  "merkleroot": "3ddf1b54a55a331d3709f2a2eae66573eb79dbb2f4fafe5b1fe224d71cbf3ea5",
  "time": 1233576204,
  "mediantime": 1233574099,
  "nonce": 3849133616,
  "bits": "1d00ffff",
  "difficulty": 1,
  "chainwork": "00000000000000000000000000000000000000000000000000000aa00aa00aa0",
  "nTx": 1,
  "previousblockhash": "00000000c7bde0d880a138cd7740026b9b7e18436951ffb12c992541c5ba3a73",
  "nextblockhash": "00000000356b8c7d725f4da31dd2e8d441a52446e88812562598ba588099289a",
  "strippedsize": 216,
  "size": 216,
  "weight": 864,
  "tx": [
    {
      "txid": "3ddf1b54a55a331d3709f2a2eae66573eb79dbb2f4fafe5b1fe224d71cbf3ea5",
      "hash": "3ddf1b54a55a331d3709f2a2eae66573eb79dbb2f4fafe5b1fe224d71cbf3ea5",
      "version": 1,
      "size": 135,
      "vsize": 135,
      "weight": 540,
      "locktime": 0,
      "vin": [
        {
          "coinbase": "04ffff001d02fe04",
          "sequence": 4294967295
        }
      ],
      "vout": [
        {
          "value": 50.0,
          "n": 0,
          "scriptPubKey": {
            "asm": "0469249848c86d39d4dd8739f59989e21eae0e841e53897fd8d7d80a17830530c24380a1e51a31c521d3183b679c145845fd9a0605a41048a926f13a0de5495a3e OP_CHECKSIG",
            "desc": "pk(0469249848c86d39d4dd8739f59989e21eae0e841e53897fd8d7d80a17830530c24380a1e51a31c521d3183b679c145845fd9a0605a41048a926f13a0de5495a3e)#fg43wp7v",
            "hex": "410469249848c86d39d4dd8739f59989e21eae0e841e53897fd8d7d80a17830530c24380a1e51a31c521d3183b679c145845fd9a0605a41048a926f13a0de5495a3eac",
            "type": "pubkey"
          }
        }
      ],
      "hex": "01000000010000000000000000000000000000000000000000000000000000000000000000ffffffff0804ffff001d02fe04ffffffff0100f2052a0100000043410469249848c86d39d4dd8739f59989e21eae0e841e53897fd8d7d80a17830530c24380a1e51a31c521d3183b679c145845fd9a0605a41048a926f13a0de5495a3eac00000000"
    }
  ]
}