{
  "hash": "00000000fa80410df0e9c00ef9e52aabd57351dc575dd9e4ec5c25827e02bd1b",
  "confirmations": 43376,
  "height": 9722,
  "version": 1,
  "versionHex": "00000001",
  "merkleroot": "4c4879d4b3f9c3cb972bcf67fe0fec35e25bd4ce18f5a591e94779b60c92e5e0",
  "time": 1238795260,
  "mediantime": 1238791228,
  "nonce": 4090284566,
  "bits": "1d00ffff",
  "difficulty": 1,
  "chainwork": "000000000000000000000000000000000000000000000000000025fb25fb25fb",
  "nTx": 1,
  "previousblockhash": "00000000163ed6f97b29b7c061245969d26a75f3e254a9ced19a1aa1cd0ed945",
  "nextblockhash": "0000000024ecf3ea06ef6ad5f902d8e46f4c79ac6c2d70b53250f9789a311a1f",
  "strippedsize": 216,
  "size": 216,
  "weight": 864,
  "tx": [
    {
      "txid": "4c4879d4b3f9c3cb972bcf67fe0fec35e25bd4ce18f5a591e94779b60c92e5e0",
      "hash": "4c4879d4b3f9c3cb972bcf67fe0fec35e25bd4ce18f5a591e94779b60c92e5e0",
      "version": 1,
      "size": 135,
      "vsize": 135,
      "weight": 540,
      "locktime": 0,
      "vin": [
        {
          "coinbase": "04ffff001d02e808",
          "sequence": 4294967295
        }
      ],
      "vout": [
        {
          "value": 50.0,
          "n": 0,
          "scriptPubKey": {
            "asm": "048079a6a925026fdb1cd8527ba60995b253e0c4a6da10f067510f82baa87ecbe13a2ee598a4f2b7dbe8612376ab0228d58e8a4ddf8308c684d94d1f79f3e09571 OP_CHECKSIG",
            "desc": "pk(048079a6a925026fdb1cd8527ba60995b253e0c4a6da10f067510f82baa87ecbe13a2ee598a4f2b7dbe8612376ab0228d58e8a4ddf8308c684d94d1f79f3e09571)#cfwn2ry0",
            "hex": "41048079a6a925026fdb1cd8527ba60995b253e0c4a6da10f067510f82baa87ecbe13a2ee598a4f2b7dbe8612376ab0228d58e8a4ddf8308c684d94d1f79f3e09571ac",
            "type": "pubkey"
          }
        }
      ],
      "hex": "01000000010000000000000000000000000000000000000000000000000000000000000000ffffffff0804ffff001d02e808ffffffff0100f2052a010000004341048079a6a925026fdb1cd8527ba60995b253e0c4a6da10f067510f82baa87ecbe13a2ee598a4f2b7dbe8612376ab0228d58e8a4ddf8308c684d94d1f79f3e09571ac00000000"
    }
  ]
}