{
  "hash": "00000000b7c37ebcca8672e12da0dfaebbc6f8808ce57e5fff7123259d51d644",
  "confirmations": 43741,
  "height": 9357,
  "version": 1,
  "versionHex": "00000001",
  "merkleroot": "6d222a717a66aafaf3ee1a03c08f585e374047af4b77c542a195426c3b276da4",
  "time": 1238517203,
  "mediantime": 1238513344,
  "nonce": 16025597,
  "bits": "1d00ffff",
  "difficulty": 1,
  "chainwork": "0000000000000000000000000000000000000000000000000000248e248e248e",
  "nTx": 1,
  "previousblockhash": "00000000b9843963d096355d50d6f0cf0d04b56ee92d34cd1d3daf7c1943b2c8",
  "nextblockhash": "00000000913fdbf224ecda1a0f1f8f3f77cf4decea5053f2511ef01091339475",
  "strippedsize": 216,
  "size": 216,
  "weight": 864,
  "tx": [
    {
      "txid": "6d222a717a66aafaf3ee1a03c08f585e374047af4b77c542a195426c3b276da4",
      "hash": "6d222a717a66aafaf3ee1a03c08f585e374047af4b77c542a195426c3b276da4",
      "version": 1,
      "size": 135,
      "vsize": 135,
      "weight": 540,
      "locktime": 0,
      "vin": [
        {
          "coinbase": "04ffff001d027509",
          "sequence": 4294967295
        }
      ],
      "vout": [
        {
          "value": 50.0,
          "n": 0,
          "scriptPubKey": {
            "asm": "048675c181da71a57fe3105b2f77372693fc9b6d1b31b709f3c084b5cdc045c6f3e884e1f3adf824cd26f1c521b1ced9bfca6b2c59f76994bf3953cd9bf1233d36 OP_CHECKSIG",
            "desc": "pk(048675c181da71a57fe3105b2f77372693fc9b6d1b31b709f3c084b5cdc045c6f3e884e1f3adf824cd26f1c521b1ced9bfca6b2c59f76994bf3953cd9bf1233d36)#78j06mpj",
            "hex": "41048675c181da71a57fe3105b2f77372693fc9b6d1b31b709f3c084b5cdc045c6f3e884e1f3adf824cd26f1c521b1ced9bfca6b2c59f76994bf3953cd9bf1233d36ac",
            "type": "pubkey"
          }
        }
      ],
      "hex": "01000000010000000000000000000000000000000000000000000000000000000000000000ffffffff0804ffff001d027509ffffffff0100f2052a010000004341048675c181da71a57fe3105b2f77372693fc9b6d1b31b709f3c084b5cdc045c6f3e884e1f3adf824cd26f1c521b1ced9bfca6b2c59f76994bf3953cd9bf1233d36ac00000000"
    }
  ]
}