{
  "hash": "0000000089c680170ab1ea7f17a4df3ee03ee6d66a3c843ad83e41c36cc2e4ea",
  "confirmations": 52373,
  "height": 725,
  "version": 1,
  "versionHex": "00000001",
  "merkleroot": "634ee14bdfe2bbeee3bfb082f751f1e0603a5735ac880b2e36f7445dfc161082",
  "time": 1232131033,
  "mediantime": 1232125633,
  "nonce": 1544660482,
  "bits": "1d00ffff",
  "difficulty": 1,
  "chainwork": "000000000000000000000000000000000000000000000000000002d602d602d6",
  "nTx": 1,
  "previousblockhash": "0000000053fe3cb3bea4439a1b901b16a68ad0a790b82c3cb0bae6be33e9d14a",
  "nextblockhash": "00000000dbf3493c5424054e469e704ef49998e81fb7b1cd5056709def9a7279",
  "strippedsize": 215,
  "size": 215,
  "weight": 860,
  "tx": [
    {
      "txid": "634ee14bdfe2bbeee3bfb082f751f1e0603a5735ac880b2e36f7445dfc161082",
      "hash": "634ee14bdfe2bbeee3bfb082f751f1e0603a5735ac880b2e36f7445dfc161082",
      "version": 1,
      "size": 134,
      "vsize": 134,
      "weight": 536,
      "locktime": 0,
      "vin": [
        {
          "coinbase": "04ffff001d0133",
          "sequence": 4294967295
        }
      ],
      "vout": [
        {
          "value": 50.0,
          "n": 0,
          "scriptPubKey": {
            "asm": "04e0987e3cc0ddb24caed8b2d565afb0fd01c660d166a67d71436f32b5f42a243a3bc6b25d910110a024c7be80d3c415be79df85827c497f18e13f9813966561ef OP_CHECKSIG",
            "desc": "pk(04e0987e3cc0ddb24caed8b2d565afb0fd01c660d166a67d71436f32b5f42a243a3bc6b25d910110a024c7be80d3c415be79df85827c497f18e13f9813966561ef)#n4ss2wrx",
            "hex": "4104e0987e3cc0ddb24caed8b2d565afb0fd01c660d166a67d71436f32b5f42a243a3bc6b25d910110a024c7be80d3c415be79df85827c497f18e13f9813966561efac",
            "type": "pubkey"
          }
        }
      ],
      "hex": "01000000010000000000000000000000000000000000000000000000000000000000000000ffffffff0704ffff001d0133ffffffff0100f2052a01000000434104e0987e3cc0ddb24caed8b2d565afb0fd01c660d166a67d71436f32b5f42a243a3bc6b25d910110a024c7be80d3c415be79df85827c497f18e13f9813966561efac00000000"
    }
  ]
}