{
  "hash": "00000000caacc22c3c30c5bfc48fe04cbc922d8240a2b766a19cedead68486fc",
  "confirmations": 45318,
  "height": 7780,
  "version": 1,
  "versionHex": "00000001",
  "merkleroot": "1e5aaab51e2644a4c1484323de50fd3f02d6dc04184af15c6b6245deae57a146",
  "time": 1237298369,
  "mediantime": 1237295437,
  "nonce": 3772155943,
  "bits": "1d00ffff",
  "difficulty": 1,
  "chainwork": "00000000000000000000000000000000000000000000000000001e651e651e65",
  "nTx": 1,
  "previousblockhash": "000000007b85b403757304d6172bfd9de5024cf8705ca0c39dc78f50b228f2cb",
  "nextblockhash": "0000000051123fc90ab6e36edce52fe309924cdcd5160313d82d00536c868ef3",
  "strippedsize": 216,
  "size": 216,
  "weight": 864,
  "tx": [
    {
      "txid": "1e5aaab51e2644a4c1484323de50fd3f02d6dc04184af15c6b6245deae57a146",
      "hash": "1e5aaab51e2644a4c1484323de50fd3f02d6dc04184af15c6b6245deae57a146",
      "version": 1,
      "size": 135,
      "vsize": 135,
      "weight": 540,
      "locktime": 0,
      "vin": [
        {
          "coinbase": "04ffff001d027805",
          "sequence": 4294967295
        }
      ],
      "vout": [
        {
          "value": 50.0,
          "n": 0,
          "scriptPubKey": {
            "asm": "04acac8ac207382d44ae2be68b658ab3d537f19ebe2f905239be58e743e84fd5fa9601111140ab230a79b53a156c43ae361ecac2796c8664641b9aa240ba9dd93e OP_CHECKSIG",
            "desc": "pk(04acac8ac207382d44ae2be68b658ab3d537f19ebe2f905239be58e743e84fd5fa9601111140ab230a79b53a156c43ae361ecac2796c8664641b9aa240ba9dd93e)#vfxmaeu2",
            "hex": "4104acac8ac207382d44ae2be68b658ab3d537f19ebe2f905239be58e743e84fd5fa9601111140ab230a79b53a156c43ae361ecac2796c8664641b9aa240ba9dd93eac",
            "type": "pubkey"
          }
        }
      ],
      "hex": "01000000010000000000000000000000000000000000000000000000000000000000000000ffffffff0804ffff001d027805ffffffff0100f2052a01000000434104acac8ac207382d44ae2be68b658ab3d537f19ebe2f905239be58e743e84fd5fa9601111140ab230a79b53a156c43ae361ecac2796c8664641b9aa240ba9dd93eac00000000"
    }
  ]
}