{
  "hash": "0000000058ac557f3f883c264d58f850a8bd1a7650e74f2f567ead10530606a8",
  "confirmations": 47471,
  "height": 5627,
  "version": 1,
  "versionHex": "00000001",
  "merkleroot": "5fee50bebb61c0a88f32e9a6f539be7deddd848c49a13525cc8616eb88056dc1",
  "time": 1235627675,
  "mediantime": 1235623464,
  "nonce": 2979980326,
  "bits": "1d00ffff",
  "difficulty": 1,
  "chainwork": "000000000000000000000000000000000000000000000000000015fc15fc15fc",
  "nTx": 1,
  "previousblockhash": "0000000098f28df657d414aa9d31da4350cad4b3c8046837c0129478be169d41",
  "nextblockhash": "00000000f406d0f8c50c98831220838486f6b6295a54b6ae72200dfa97ba11c6",
  "strippedsize": 216,
  "size": 216,
  "weight": 864,
  "tx": [
    {
      "txid": "5fee50bebb61c0a88f32e9a6f539be7deddd848c49a13525cc8616eb88056dc1",
      "hash": "5fee50bebb61c0a88f32e9a6f539be7deddd848c49a13525cc8616eb88056dc1",
      "version": 1,
      "size": 135,
      "vsize": 135,
      "weight": 540,
      "locktime": 0,
      "vin": [
        {
          "coinbase": "04ffff001d022c08",
          "sequence": 4294967295
        }
      ],
      "vout": [
        {
          "value": 50.0,
          "n": 0,
          "scriptPubKey": {
            "asm": "04ce5a20e862235f1b5f43fe621d0422df94418081a287f4ca98072edc28ec5683c8b44d0979eb80d7b8d5182b14170e999c62103e94e284c67fa42eeed9a3c3d7 OP_CHECKSIG",
            "desc": "pk(04ce5a20e862235f1b5f43fe621d0422df94418081a287f4ca98072edc28ec5683c8b44d0979eb80d7b8d5182b14170e999c62103e94e284c67fa42eeed9a3c3d7)#3kktknn7",
            "hex": "4104ce5a20e862235f1b5f43fe621d0422df94418081a287f4ca98072edc28ec5683c8b44d0979eb80d7b8d5182b14170e999c62103e94e284c67fa42eeed9a3c3d7ac",
            "type": "pubkey"
          }
        }
      ],
      "hex": "01000000010000000000000000000000000000000000000000000000000000000000000000ffffffff0804ffff001d022c08ffffffff0100f2052a01000000434104ce5a20e862235f1b5f43fe621d0422df94418081a287f4ca98072edc28ec5683c8b44d0979eb80d7b8d5182b14170e999c62103e94e284c67fa42eeed9a3c3d7ac00000000"
    }
  ]
}