{
  "hash": "0000000020f5ab646eb6c6c0edbcedbbd92b64300217cc9d7297cffc0ec567d3",
  "confirmations": 47522,
  "height": 5576,
  "version": 1,
  "versionHex": "00000001",
  "merkleroot": "99550e7aad3e7d11a06d72f615c2b74e21812f9a81ea243c2bc20d5384f368f9",
  "time": 1235583073,
  "mediantime": 1235578225,
  "nonce": 1642488611,
  "bits": "1d00ffff",
  "difficulty": 1,
  "chainwork": "000000000000000000000000000000000000000000000000000015c915c915c9",
  "nTx": 1,
  "previousblockhash": "00000000a5adc84a63c77353b470238f6a27cb436f229849766c7a222493207d",
  "nextblockhash": "00000000e381c7ded1f09fcfb6d3b132ec39fc29696f82b45caa719645bc4939",
  "strippedsize": 216,
  "size": 216,
  "weight": 864,
  "tx": [
    {
      "txid": "99550e7aad3e7d11a06d72f615c2b74e21812f9a81ea243c2bc20d5384f368f9",
      "hash": "99550e7aad3e7d11a06d72f615c2b74e21812f9a81ea243c2bc20d5384f368f9",
      "version": 1,
      "size": 135,
      "vsize": 135,
      "weight": 540,
      "locktime": 0,
      "vin": [
        {
          "coinbase": "04ffff001d023307",
          "sequence": 4294967295
        }
      ],
      "vout": [
        {
          "value": 50.0,
          "n": 0,
          "scriptPubKey": {
            "asm": "04a34cabbb91c7c1bb2ef89469bc485c9a052f53d130db26e9df63bb1c3a10b0af90d2dc2aac71c73c0c73b5af8a78264ee45a6f23e51f75df8341f39f193e5f53 OP_CHECKSIG",
            "desc": "pk(04a34cabbb91c7c1bb2ef89469bc485c9a052f53d130db26e9df63bb1c3a10b0af90d2dc2aac71c73c0c73b5af8a78264ee45a6f23e51f75df8341f39f193e5f53)#65sdfm2t",
            "hex": "4104a34cabbb91c7c1bb2ef89469bc485c9a052f53d130db26e9df63bb1c3a10b0af90d2dc2aac71c73c0c73b5af8a78264ee45a6f23e51f75df8341f39f193e5f53ac",
            "type": "pubkey"
          }
        }
      ],
      "hex": "01000000010000000000000000000000000000000000000000000000000000000000000000ffffffff0804ffff001d023307ffffffff0100f2052a01000000434104a34cabbb91c7c1bb2ef89469bc485c9a052f53d130db26e9df63bb1c3a10b0af90d2dc2aac71c73c0c73b5af8a78264ee45a6f23e51f75df8341f39f193e5f53ac00000000"
    }
  ]
}