{
  "hash": "00000000b604122a84070e34195832917ceeaf40291fb8531c981b5068b43b22",
  "confirmations": 44853,
  "height": 8245,
  "version": 1,
  "versionHex": "00000001",
  "merkleroot": "a467a753d0056f773a468bfc296fada981cc0d701f1bc7cf5fe62f4f5a6d05c4",
  "time": 1237692191,
  "mediantime": 1237689727,
  "nonce": 25851749,
  "bits": "1d00ffff",
  "difficulty": 1,
  "chainwork": "0000000000000000000000000000000000000000000000000000203620362036",
  "nTx": 1,
  "previousblockhash": "000000008f827ad838ed6caeca6499e157f36c9983b9316bb129afe1b2fdf8f3",
  "nextblockhash": "0000000095ac54894d620c90f936b47b434656cb938defe5892ec89b94942460",
  "strippedsize": 216,
  "size": 216,
  "weight": 864,
  "tx": [
    {
      "txid": "a467a753d0056f773a468bfc296fada981cc0d701f1bc7cf5fe62f4f5a6d05c4",
      "hash": "a467a753d0056f773a468bfc296fada981cc0d701f1bc7cf5fe62f4f5a6d05c4",
      "version": 1,
      "size": 135,
      "vsize": 135,
      "weight": 540,
      "locktime": 0,
      "vin": [
        {
          "coinbase": "04ffff001d029c04",
          "sequence": 4294967295
        }
      ],
      "vout": [
        {
          "value": 50.0,
          "n": 0,
          "scriptPubKey": {
            "asm": "044aaecab8a6e7f0e8c2473a27a9437704ab08c23702456e7f35b21847b6f24828d905ab47d3ced3fdb5efbca0ac257ec02153f3e9cac8d214b869bc022b8b39fb OP_CHECKSIG",
            "desc": "pk(044aaecab8a6e7f0e8c2473a27a9437704ab08c23702456e7f35b21847b6f24828d905ab47d3ced3fdb5efbca0ac257ec02153f3e9cac8d214b869bc022b8b39fb)#wcmx6t2l",
            "hex": "41044aaecab8a6e7f0e8c2473a27a9437704ab08c23702456e7f35b21847b6f24828d905ab47d3ced3fdb5efbca0ac257ec02153f3e9cac8d214b869bc022b8b39fbac",
            "type": "pubkey"
          }
        }
      ],
      "hex": "01000000010000000000000000000000000000000000000000000000000000000000000000ffffffff0804ffff001d029c04ffffffff0100f2052a010000004341044aaecab8a6e7f0e8c2473a27a9437704ab08c23702456e7f35b21847b6f24828d905ab47d3ced3fdb5efbca0ac257ec02153f3e9cac8d214b869bc022b8b39fbac00000000"
    }
  ]
}