{
  "hash": "00000000811115a3947ba5eff8fe7e34df53a9424933e0e714c90b2548c9dc07",
  "confirmations": 48516,
  "height": 4582,
  "version": 1,
  "versionHex": "00000001",
  "merkleroot": "7bfddca9437c8098d5630af444210b34fdb2ad5043c9ead0a5d322af39d3ee91",
  "time": 1234843273,
  "mediantime": 1234836603,
  "nonce": 2655419945,
  "bits": "1d00ffff",
  "difficulty": 1,
  "chainwork": "000000000000000000000000000000000000000000000000000011e711e711e7",
  "nTx": 1,
  "previousblockhash": "000000005b3b18f56cbd4d68e9ba4eb3051fdbb682a8c3b5ffa2d0a2c83dfaba",
  "nextblockhash": "0000000002ae17e3f77d3df4e8c9cad286a605480b6fc59e09793f51073b429d",
  "strippedsize": 216,
  "size": 216,
  "weight": 864,
  "tx": [
    {
      "txid": "7bfddca9437c8098d5630af444210b34fdb2ad5043c9ead0a5d322af39d3ee91",
      "hash": "7bfddca9437c8098d5630af444210b34fdb2ad5043c9ead0a5d322af39d3ee91",
      "version": 1,
      "size": 135,
      "vsize": 135,
      "weight": 540,
      "locktime": 0,
      "vin": [
        {
          "coinbase": "04ffff001d02a800",
          "sequence": 4294967295
        }
      ],
      "vout": [
        {
          "value": 50.0,
          "n": 0,
          "scriptPubKey": {
            "asm": "04c8f57e1773ef9e22f34bcb5803249c8102108a2051c126c2c6acb854a79a069d7493c61eb1f06cfa271eada785c83f25299fc6cf142f86acdd0fbd88557cc727 OP_CHECKSIG",
            "desc": "pk(04c8f57e1773ef9e22f34bcb5803249c8102108a2051c126c2c6acb854a79a069d7493c61eb1f06cfa271eada785c83f25299fc6cf142f86acdd0fbd88557cc727)#4d5006qr",
            "hex": "4104c8f57e1773ef9e22f34bcb5803249c8102108a2051c126c2c6acb854a79a069d7493c61eb1f06cfa271eada785c83f25299fc6cf142f86acdd0fbd88557cc727ac",
            "type": "pubkey"
          }
        }
      ],
      "hex": "01000000010000000000000000000000000000000000000000000000000000000000000000ffffffff0804ffff001d02a800ffffffff0100f2052a01000000434104c8f57e1773ef9e22f34bcb5803249c8102108a2051c126c2c6acb854a79a069d7493c61eb1f06cfa271eada785c83f25299fc6cf142f86acdd0fbd88557cc727ac00000000"
    }
  ]
}