{
  "hash": "00000000986d1199ba058a27a8e3b8bcc2cef88101bff887865c5bb154ca5e5f",
  "confirmations": 47616,
  "height": 5482,
  "version": 1,
  "versionHex": "00000001",
  "merkleroot": "d8013e1feaa45c64edeca72dff47d72f4ef8d4c98347b50b185177fcc645ba35",
  "time": 1235504628,
  "mediantime": 1235502354,
  "nonce": 4180429591,
  "bits": "1d00ffff",
  "difficulty": 1,
  "chainwork": "0000000000000000000000000000000000000000000000000000156b156b156b",
  "nTx": 1,
  "previousblockhash": "00000000069f2dea9afea0d348e12e1d010f70564517a1d946d4210af3dc27ef",
  "nextblockhash": "0000000059d23e34eb3dcda6bc4bd13c5f96354168db30ed14bfba4be20eaeae",
  "strippedsize": 216,
  "size": 216,
  "weight": 864,
  "tx": [
    {
      "txid": "d8013e1feaa45c64edeca72dff47d72f4ef8d4c98347b50b185177fcc645ba35",
      "hash": "d8013e1feaa45c64edeca72dff47d72f4ef8d4c98347b50b185177fcc645ba35",
      "version": 1,
      "size": 135,
      "vsize": 135,
      "weight": 540,
      "locktime": 0,
      "vin": [
        {
          "coinbase": "04ffff001d023705",
          "sequence": 4294967295
        }
      ],
      "vout": [
        {
          "value": 50.0,
          "n": 0,
          "scriptPubKey": {
            "asm": "0496417e7d730e1f1ed17a60c8d559ecf141a5d1bd8004a05c8026b57be7302358d3721f276f36e7a44b6553f75915118420c864ee7c6a9283fada389c9f6b9e2a OP_CHECKSIG",
            "desc": "pk(0496417e7d730e1f1ed17a60c8d559ecf141a5d1bd8004a05c8026b57be7302358d3721f276f36e7a44b6553f75915118420c864ee7c6a9283fada389c9f6b9e2a)#e4dhdsvh",
            "hex": "410496417e7d730e1f1ed17a60c8d559ecf141a5d1bd8004a05c8026b57be7302358d3721f276f36e7a44b6553f75915118420c864ee7c6a9283fada389c9f6b9e2aac",
            "type": "pubkey"
          }
        }
      ],
      "hex": "01000000010000000000000000000000000000000000000000000000000000000000000000ffffffff0804ffff001d023705ffffffff0100f2052a0100000043410496417e7d730e1f1ed17a60c8d559ecf141a5d1bd8004a05c8026b57be7302358d3721f276f36e7a44b6553f75915118420c864ee7c6a9283fada389c9f6b9e2aac00000000"
    }
  ]
}