{
  "hash": "000000001c39affddfdda1c130d9d3ec2f70ed98c5304aec20982f642a6dc4ee",
  "confirmations": 43647,
  "height": 9451,
  "version": 1,
  "versionHex": "00000001",
  "merkleroot": "a4b9c3c0c5939d54f5e254a8ef74dd1c49e13570d5b3c1dda3b158a7f990af04",
  "time": 1238596788,
  "mediantime": 1238588452,
  "nonce": 283258501,
  "bits": "1d00ffff",
  "difficulty": 1,
  "chainwork": "000000000000000000000000000000000000000000000000000024ec24ec24ec",
  "nTx": 1,
  "previousblockhash": "00000000cf441bf382cfcee46c9521425a1e46af5791d5a18a7bf51e422049d8",
  "nextblockhash": "00000000b75438a0eface9c6a15d8c50ee53c06a0e8f0fba64afd90364b5ae3e",
  "strippedsize": 215,
  "size": 215,
  "weight": 860,
  "tx": [
    {
      "txid": "a4b9c3c0c5939d54f5e254a8ef74dd1c49e13570d5b3c1dda3b158a7f990af04",
      "hash": "a4b9c3c0c5939d54f5e254a8ef74dd1c49e13570d5b3c1dda3b158a7f990af04",
      "version": 1,
      "size": 134,
      "vsize": 134,
      "weight": 536,
      "locktime": 0,
      "vin": [
        {
          "coinbase": "04ffff001d017a",
          "sequence": 4294967295
        }
      ],
      "vout": [
        {
          "value": 50.0,
          "n": 0,
          "scriptPubKey": {
            "asm": "049fb04ede1070e458474cf8b38f4f60d832267b1f8acce6f836f8be31c8845d5845f712bec1509ed1dae585adb16c451096389319022f61b3eb1973ddb45cc068 OP_CHECKSIG",
            "desc": "pk(049fb04ede1070e458474cf8b38f4f60d832267b1f8acce6f836f8be31c8845d5845f712bec1509ed1dae585adb16c451096389319022f61b3eb1973ddb45cc068)#lmurh9yc",
            "hex": "41049fb04ede1070e458474cf8b38f4f60d832267b1f8acce6f836f8be31c8845d5845f712bec1509ed1dae585adb16c451096389319022f61b3eb1973ddb45cc068ac",
            "type": "pubkey"
          }
        }
      ],
      "hex": "01000000010000000000000000000000000000000000000000000000000000000000000000ffffffff0704ffff001d017affffffff0100f2052a010000004341049fb04ede1070e458474cf8b38f4f60d832267b1f8acce6f836f8be31c8845d5845f712bec1509ed1dae585adb16c451096389319022f61b3eb1973ddb45cc068ac00000000"
    }
  ]
}