{
  "hash": "00000000ec3b701d4e2c703aac49051bcbebdfa9e3dd5400f819091cdd839d86",
  "confirmations": 49584,
  "height": 3514,
  "version": 1,
  "versionHex": "00000001",
  "merkleroot": "cbdad740e90fb6e92a8a24f2fa86f9c6494b71ba4f624a3bb487c4b85da83ea0",
  "time": 1234110878,
  "mediantime": 1234108024,
  "nonce": 106964140,
  "bits": "1d00ffff",
  "difficulty": 1,
  "chainwork": "00000000000000000000000000000000000000000000000000000dbb0dbb0dbb",
  "nTx": 1,
  "previousblockhash": "0000000014393b3a8f53853a4fead53cb8fa5d6002532b9ce108cb7afce4f209",
  "nextblockhash": "00000000f48687042f081e01ddfc33f07840e1185cf7a4117b84cd372adcc9c8",
  "strippedsize": 215,
  "size": 215,
  "weight": 860,
  "tx": [
    {
      "txid": "cbdad740e90fb6e92a8a24f2fa86f9c6494b71ba4f624a3bb487c4b85da83ea0",
      "hash": "cbdad740e90fb6e92a8a24f2fa86f9c6494b71ba4f624a3bb487c4b85da83ea0",
      "version": 1,
      "size": 134,
      "vsize": 134,
      "weight": 536,
      "locktime": 0,
      "vin": [
        {
          "coinbase": "04ffff001d0124",
          "sequence": 4294967295
        }
      ],
      "vout": [
        {
          "value": 50.0,
          "n": 0,
          "scriptPubKey": {
            "asm": "04e47b708ee015f69f97e872cf401b0a400079617d0452ba69e0bb8ac5f556d2443005962c3632c3d507d80ff0edc556a7514d92e1fa35b2e6ce834a6d1f5b0581 OP_CHECKSIG",
            "desc": "pk(04e47b708ee015f69f97e872cf401b0a400079617d0452ba69e0bb8ac5f556d2443005962c3632c3d507d80ff0edc556a7514d92e1fa35b2e6ce834a6d1f5b0581)#nqd0730e",
            "hex": "4104e47b708ee015f69f97e872cf401b0a400079617d0452ba69e0bb8ac5f556d2443005962c3632c3d507d80ff0edc556a7514d92e1fa35b2e6ce834a6d1f5b0581ac",
            "type": "pubkey"
          }
        }
      ],
      "hex": "01000000010000000000000000000000000000000000000000000000000000000000000000ffffffff0704ffff001d0124ffffffff0100f2052a01000000434104e47b708ee015f69f97e872cf401b0a400079617d0452ba69e0bb8ac5f556d2443005962c3632c3d507d80ff0edc556a7514d92e1fa35b2e6ce834a6d1f5b0581ac00000000"
    }
  ]
}