{
  "hash": "0000000045cadc125b19fe38a76994fa407281949a4a88b4745de306e92dee4f",
  "confirmations": 49712,
  "height": 3386,
  "version": 1,
  "versionHex": "00000001",
  "merkleroot": "48006e617f1b29df760fdbd3c1ca8e6e2b9b652c589370f998017c1586ab9ba7",
  "time": 1234028640,
  "mediantime": 1234024416,
  "nonce": 2954250805,
  "bits": "1d00ffff",
  "difficulty": 1,
  "chainwork": "00000000000000000000000000000000000000000000000000000d3b0d3b0d3b",
  "nTx": 1,
  "previousblockhash": "0000000087fcd7726f26681d9506771adc62d8da278f88c3c98034029377ab32",
  "nextblockhash": "0000000011109693f5d0bf6869c42df4efd15c9fb52530018236628b88d3d24d",
  "strippedsize": 216,
  "size": 216,
  "weight": 864,
  "tx": [
    {
      "txid": "48006e617f1b29df760fdbd3c1ca8e6e2b9b652c589370f998017c1586ab9ba7",
      "hash": "48006e617f1b29df760fdbd3c1ca8e6e2b9b652c589370f998017c1586ab9ba7",
      "version": 1,
      "size": 135,
      "vsize": 135,
      "weight": 540,
      "locktime": 0,
      "vin": [
        {
          "coinbase": "04ffff001d029605",
          "sequence": 4294967295
        }
      ],
      "vout": [
        {
          "value": 50.0,
          "n": 0,
          "scriptPubKey": {
            "asm": "0439280329cb79b533702f0fc3866891311467168544093b43756e2d1639c6a4c545ab14e3b239ad8dcc5163b78e19a275754a8b8c4917fb8165ba98c0ac1a1c01 OP_CHECKSIG",
            "desc": "pk(0439280329cb79b533702f0fc3866891311467168544093b43756e2d1639c6a4c545ab14e3b239ad8dcc5163b78e19a275754a8b8c4917fb8165ba98c0ac1a1c01)#dryk3u80",
            "hex": "410439280329cb79b533702f0fc3866891311467168544093b43756e2d1639c6a4c545ab14e3b239ad8dcc5163b78e19a275754a8b8c4917fb8165ba98c0ac1a1c01ac",
            "type": "pubkey"
          }
        }
      ],
      "hex": "01000000010000000000000000000000000000000000000000000000000000000000000000ffffffff0804ffff001d029605ffffffff0100f2052a0100000043410439280329cb79b533702f0fc3866891311467168544093b43756e2d1639c6a4c545ab14e3b239ad8dcc5163b78e19a275754a8b8c4917fb8165ba98c0ac1a1c01ac00000000"
    }
  ]
}