{
  "hash": "00000000971f78fd0cc78b8399ba3efdd96334977d4ea1e14800af9d8d89ab37",
  "confirmations": 51426,
  "height": 1672,
  "version": 1,
  "versionHex": "00000001",
  "merkleroot": "6568ce3deb828c2192f492e84a4868d63fa5dc5e95f5b516785eb19f2acb48b4",
  "time": 1232841849,
  "mediantime": 1232839007,
  "nonce": 3514540066,
  "bits": "1d00ffff",
  "difficulty": 1,
  "chainwork": "0000000000000000000000000000000000000000000000000000068906890689",
  "nTx": 1,
  "previousblockhash": "0000000067274eeaa86aebce4bd4146197069635acedb778bb12c109c6e0bc86",
  "nextblockhash": "000000005ad59963a6e7d72214bad519595fa49cafea64a6e1975d1aa74c02a7",
  "strippedsize": 216,
  "size": 216,
  "weight": 864,
  "tx": [
    {
      "txid": "6568ce3deb828c2192f492e84a4868d63fa5dc5e95f5b516785eb19f2acb48b4",
      "hash": "6568ce3deb828c2192f492e84a4868d63fa5dc5e95f5b516785eb19f2acb48b4",
      "version": 1,
      "size": 135,
      "vsize": 135,
      "weight": 540,
      "locktime": 0,
      "vin": [
        {
          "coinbase": "04ffff001d02c702",
          "sequence": 4294967295
        }
      ],
      "vout": [
        {
          "value": 50.0,
          "n": 0,
          "scriptPubKey": {
            "asm": "04163966c292d381721bef30606b2e2eccb0063c658705f828b78560e08177cbf5b14b78295e77aad77839fe3ba07c5e499dffcff5abb10a7036746b72ae2295e4 OP_CHECKSIG",
            "desc": "pk(04163966c292d381721bef30606b2e2eccb0063c658705f828b78560e08177cbf5b14b78295e77aad77839fe3ba07c5e499dffcff5abb10a7036746b72ae2295e4)#u427vy8y",
            "hex": "4104163966c292d381721bef30606b2e2eccb0063c658705f828b78560e08177cbf5b14b78295e77aad77839fe3ba07c5e499dffcff5abb10a7036746b72ae2295e4ac",
            "type": "pubkey"
          }
        }
      ],
      "hex": "01000000010000000000000000000000000000000000000000000000000000000000000000ffffffff0804ffff001d02c702ffffffff0100f2052a01000000434104163966c292d381721bef30606b2e2eccb0063c658705f828b78560e08177cbf5b14b78295e77aad77839fe3ba07c5e499dffcff5abb10a7036746b72ae2295e4ac00000000"
    }
  ]
}