{
  "hash": "00000000267ce7ff5ead38e833db937890c794cbf663c38fa3eafdb2c3453de6",
  "confirmations": 48217,
  "height": 4881,
  "version": 1,
  "versionHex": "00000001",
  "merkleroot": "a8d967eea33a1f8c4ed41d7f43dbcca0284d9ed84fa0403c0ba946057916affd",
  "time": 1235058292,
  "mediantime": 1235055858,
  "nonce": 3554080302,
  "bits": "1d00ffff",
  "difficulty": 1,
  "chainwork": "0000000000000000000000000000000000000000000000000000131213121312",
  "nTx": 1,
  "previousblockhash": "00000000d2b9593398848dcd293ec303c5397b4ed42a0701dfd4a48a221d8e6b",
  "nextblockhash": "00000000f188d02691f222df3b8f748c034b8d3fab81a1fd1f7631aacd2dafa4",
  "strippedsize": 216,
  "size": 216,
  "weight": 864,
  "tx": [
    {
      "txid": "a8d967eea33a1f8c4ed41d7f43dbcca0284d9ed84fa0403c0ba946057916affd",
      "hash": "a8d967eea33a1f8c4ed41d7f43dbcca0284d9ed84fa0403c0ba946057916affd",
      "version": 1,
      "size": 135,
      "vsize": 135,
      "weight": 540,
      "locktime": 0,
      "vin": [
        {
          "coinbase": "04ffff001d027705",
          "sequence": 4294967295
        }
      ],
      "vout": [
        {
          "value": 50.0,
          "n": 0,
          "scriptPubKey": {
            "asm": "04405f0bd1ba15a7d376ea717a4c0aec30e4fac72b47a1885e42d8eadead99424a081d5d4daa510ffe515f67273aefee1d4aed13770a1c193936f6f009d1523133 OP_CHECKSIG",
            "desc": "pk(04405f0bd1ba15a7d376ea717a4c0aec30e4fac72b47a1885e42d8eadead99424a081d5d4daa510ffe515f67273aefee1d4aed13770a1c193936f6f009d1523133)#a5kxqttw",
            "hex": "4104405f0bd1ba15a7d376ea717a4c0aec30e4fac72b47a1885e42d8eadead99424a081d5d4daa510ffe515f67273aefee1d4aed13770a1c193936f6f009d1523133ac",
            "type": "pubkey"
          }
        }
      ],
      "hex": "01000000010000000000000000000000000000000000000000000000000000000000000000ffffffff0804ffff001d027705ffffffff0100f2052a01000000434104405f0bd1ba15a7d376ea717a4c0aec30e4fac72b47a1885e42d8eadead99424a081d5d4daa510ffe515f67273aefee1d4aed13770a1c193936f6f009d1523133ac00000000"
    }
  ]
}