{
  "hash": "0000000062e646293e5f21e2ef1e2099b048cfb58a81081d4e4035a4e19e47a8",
  "confirmations": 52073,
  "height": 262,
  "version": 1,
  "versionHex": "00000001",
  "merkleroot": "8a1289e68161330fdc167aedb8ff464b537d2ed1fcd40bdc6a264694b66581a1",
  "time": 1231803947,
  "mediantime": 1231799163,
  "nonce": 3334731318,
  "bits": "1d00ffff",
  "difficulty": 1,
  "chainwork": "0000000000000000000000000000000000000000000000000000010701070107",
  "nTx": 1,
  "previousblockhash": "00000000054aad44afc89e1f4e0ee9561568629273df16153e425a2eb9cbbcb9",
  "nextblockhash": "00000000803cec62b96ccbb70affe0f05f351ada18d14a16960783aeafe0d8fc",
  "strippedsize": 216,
  "size": 216,
  "weight": 864,
  "tx": [
    {
      "txid": "8a1289e68161330fdc167aedb8ff464b537d2ed1fcd40bdc6a264694b66581a1",
      "hash": "8a1289e68161330fdc167aedb8ff464b537d2ed1fcd40bdc6a264694b66581a1",
      "version": 1,
      "size": 135,
      "vsize": 135,
      "weight": 540,
      "locktime": 0,
      "vin": [
        {
          "coinbase": "04ffff001d025d01",
          "sequence": 4294967295
        }
      ],
      "vout": [
        {
          "value": 50.0,
          "n": 0,
          "scriptPubKey": {
            "asm": "0406cfa37f85cb22da282bef2517b1222e0de7f95850a9f68e78bb230d7d01ec52368e10fd7b164d1f44be41c141d79937ebd04b7b0289b02a26136ccb1f211ade OP_CHECKSIG",
            "desc": "pk(0406cfa37f85cb22da282bef2517b1222e0de7f95850a9f68e78bb230d7d01ec52368e10fd7b164d1f44be41c141d79937ebd04b7b0289b02a26136ccb1f211ade)#kgjqljqf",
            "hex": "410406cfa37f85cb22da282bef2517b1222e0de7f95850a9f68e78bb230d7d01ec52368e10fd7b164d1f44be41c141d79937ebd04b7b0289b02a26136ccb1f211adeac",
            "type": "pubkey"
          }
        }
      ],
      "hex": "01000000010000000000000000000000000000000000000000000000000000000000000000ffffffff0804ffff001d025d01ffffffff0100f2052a0100000043410406cfa37f85cb22da282bef2517b1222e0de7f95850a9f68e78bb230d7d01ec52368e10fd7b164d1f44be41c141d79937ebd04b7b0289b02a26136ccb1f211adeac00000000"
    }
  ]
}