{
  "hash": "00000000abd10a678446693dd5ef014eb69c1160205c4b4c6fa6d3667ec5d519",
  "confirmations": 51810,
  "height": 1288,
  "version": 1,
  "versionHex": "00000001",
  "merkleroot": "33fc10dc080fb15d2e1a45e610350c9a76aa050b2ad5bb239f4b105b341b228b",
  "time": 1232566050,
  "mediantime": 1232562833,
  "nonce": 814565412,
  "bits": "1d00ffff",
  "difficulty": 1,
  "chainwork": "0000000000000000000000000000000000000000000000000000050905090509",
  "nTx": 1,
  "previousblockhash": "00000000202f36135a13e90c07fe3816d4ae948ff1e3fa941d3dee7bbf421604",
  "nextblockhash": "000000003a6b3441232f2091256865b88a73eb913728bf8c06a1c3c212bece8c",
  "strippedsize": 216,
  "size": 216,
  "weight": 864,
  "tx": [
    {
      "txid": "33fc10dc080fb15d2e1a45e610350c9a76aa050b2ad5bb239f4b105b341b228b",
      "hash": "33fc10dc080fb15d2e1a45e610350c9a76aa050b2ad5bb239f4b105b341b228b",
      "version": 1,
      "size": 135,
      "vsize": 135,
      "weight": 540,
      "locktime": 0,
      "vin": [
        {
          "coinbase": "04ffff001d021e0a",
          "sequence": 4294967295
        }
      ],
      "vout": [
        {
          "value": 50.0,
          "n": 0,
          "scriptPubKey": {
            "asm": "04b0b04c72c4dd4171539cff26b21e62babfd7868baf7502ca13ad87f3094667b962bef6fed6b20e32281177c518934592e74254b65f00b3ea8c3db63992ae944c OP_CHECKSIG",
            "desc": "pk(04b0b04c72c4dd4171539cff26b21e62babfd7868baf7502ca13ad87f3094667b962bef6fed6b20e32281177c518934592e74254b65f00b3ea8c3db63992ae944c)#s2s3wcve",
            "hex": "4104b0b04c72c4dd4171539cff26b21e62babfd7868baf7502ca13ad87f3094667b962bef6fed6b20e32281177c518934592e74254b65f00b3ea8c3db63992ae944cac",
            "type": "pubkey"
          }
        }
      ],
      "hex": "01000000010000000000000000000000000000000000000000000000000000000000000000ffffffff0804ffff001d021e0affffffff0100f2052a01000000434104b0b04c72c4dd4171539cff26b21e62babfd7868baf7502ca13ad87f3094667b962bef6fed6b20e32281177c518934592e74254b65f00b3ea8c3db63992ae944cac00000000"
    }
  ]
}