{
  "hash": "00000000b91b9b688617963d22b2b4d638cda7588a87c830f2111fc3eeb1b526",
  "confirmations": 43473,
  "height": 9625,
  "version": 1,
  "versionHex": "00000001",
  "merkleroot": "cd0f34220d19c7300e7ade0b772fa5b52987a714e4c65326ca21898b3a8f63b4",
  "time": 1238720968,
  "mediantime": 1238718614,
  "nonce": 126943050,
  "bits": "1d00ffff",
  "difficulty": 1,
  "chainwork": "0000000000000000000000000000000000000000000000000000259a259a259a",
  "nTx": 1,
  "previousblockhash": "00000000fb2a066ba024f8e7fe54bb61599f7a2810748598aad77f369e9fcc9b",
  "nextblockhash": "00000000a6b6f1b2e7526a8c26043a01ce7098cbc5d95896b4dc24836b908411",
  "strippedsize": 216,
  "size": 216,
  "weight": 864,
  "tx": [
    {
      "txid": "cd0f34220d19c7300e7ade0b772fa5b52987a714e4c65326ca21898b3a8f63b4",
      "hash": "cd0f34220d19c7300e7ade0b772fa5b52987a714e4c65326ca21898b3a8f63b4",
      "version": 1,
      "size": 135,
      "vsize": 135,
      "weight": 540,
      "locktime": 0,
      "vin": [
        {
          "coinbase": "04ffff001d02b700",
          "sequence": 4294967295
        }
      ],
      "vout": [
        {
          "value": 50.0,
          "n": 0,
          "scriptPubKey": {
            "asm": "049010148210569b045321cb01f933ac769ccbb7fbc714a89266443434a03dc3f0197e7bbb3a2459cedd40868c7a8045b47da0baddfbd2f055f8dc8f34daf3268c OP_CHECKSIG",
            "desc": "pk(049010148210569b045321cb01f933ac769ccbb7fbc714a89266443434a03dc3f0197e7bbb3a2459cedd40868c7a8045b47da0baddfbd2f055f8dc8f34daf3268c)#9v7dlah7",
            "hex": "41049010148210569b045321cb01f933ac769ccbb7fbc714a89266443434a03dc3f0197e7bbb3a2459cedd40868c7a8045b47da0baddfbd2f055f8dc8f34daf3268cac",
            "type": "pubkey"
          }
        }
      ],
      "hex": "01000000010000000000000000000000000000000000000000000000000000000000000000ffffffff0804ffff001d02b700ffffffff0100f2052a010000004341049010148210569b045321cb01f933ac769ccbb7fbc714a89266443434a03dc3f0197e7bbb3a2459cedd40868c7a8045b47da0baddfbd2f055f8dc8f34daf3268cac00000000"
    }
  ]
}