{
  "hash": "00000000af4a7f5131596697800a0014c668ae7f8385ce023c270dbce8844884",
  "confirmations": 52393,
  "height": 510,
  "version": 1,
  "versionHex": "00000001",
  "merkleroot": "6cbc46177c0501f9eb799517a41d567856e9153378972fba4cecdeee0913c85f",
  "time": 1231975169,
  "mediantime": 1231972858,
  "nonce": 1811090708,
  "bits": "1d00ffff",
  "difficulty": 1,
  "chainwork": "000000000000000000000000000000000000000000000000000001ff01ff01ff",
  "nTx": 1,
  "previousblockhash": "00000000d9d33aaf1c9dce5bbecaffc917e957e06f336bbace59704a2678e766",
  "nextblockhash": "0000000013c878e1fd334fc9a1f4dbe6a4ed76562c5507c4fc21c2e273f41610",
  "strippedsize": 216,
  "size": 216,
  "weight": 864,
  "tx": [
    {
      "txid": "6cbc46177c0501f9eb799517a41d567856e9153378972fba4cecdeee0913c85f",
      "hash": "6cbc46177c0501f9eb799517a41d567856e9153378972fba4cecdeee0913c85f",
      "version": 1,
      "size": 135,
      "vsize": 135,
      "weight": 540,
      "locktime": 0,
      "vin": [
        {
          "coinbase": "04ffff001d029e04",
          "sequence": 4294967295
        }
      ],
      "vout": [
        {
          "value": 50.0,
          "n": 0,
          "scriptPubKey": {
            "asm": "04acc46e91094a2966c0fc9eb0674cde53a432a73fc7a86dc5f7cdcdddb85b8cc03af2ce32699458c996d7594bc05accced4c4cba35c120e74423551cc21adeec8 OP_CHECKSIG",
            "desc": "pk(04acc46e91094a2966c0fc9eb0674cde53a432a73fc7a86dc5f7cdcdddb85b8cc03af2ce32699458c996d7594bc05accced4c4cba35c120e74423551cc21adeec8)#03erwvaq",
            "hex": "4104acc46e91094a2966c0fc9eb0674cde53a432a73fc7a86dc5f7cdcdddb85b8cc03af2ce32699458c996d7594bc05accced4c4cba35c120e74423551cc21adeec8ac",
            "type": "pubkey"
          }
        }
      ],
      "hex": "01000000010000000000000000000000000000000000000000000000000000000000000000ffffffff0804ffff001d029e04ffffffff0100f2052a01000000434104acc46e91094a2966c0fc9eb0674cde53a432a73fc7a86dc5f7cdcdddb85b8cc03af2ce32699458c996d7594bc05accced4c4cba35c120e74423551cc21adeec8ac00000000"
    }
  ]
}