{
  "hash": "00000000b09816342f1f080ca651552cd7d5ac3cf23e28ebe1af416ebd3b0395",
  "confirmations": 52061,
  "height": 140,
  "version": 1,
  "versionHex": "00000001",
  "merkleroot": "0e9639e3e6161c7c2917aa114fd6695e92c35f1c6acc6ad8489e3e44683727d5",
  "time": 1231689563,
  "mediantime": 1231686376,
  "nonce": 2576990506,
  "bits": "1d00ffff",
  "difficulty": 1,
  "chainwork": "0000000000000000000000000000000000000000000000000000008d008d008d",
  "nTx": 1,
  "previousblockhash": "00000000d8b8cf67b07679b59e46aeaedd7358f0fa70e2ef8ac347fdcb731f1d",
  "nextblockhash": "00000000a83dac69280eec98d9e650a3c69f0db88a3abf68b4c008b373af0ee5",
  "strippedsize": 215,
  "size": 215,
  "weight": 860,
  "tx": [
    {
      "txid": "0e9639e3e6161c7c2917aa114fd6695e92c35f1c6acc6ad8489e3e44683727d5",
      "hash": "0e9639e3e6161c7c2917aa114fd6695e92c35f1c6acc6ad8489e3e44683727d5",
      "version": 1,
      "size": 134,
      "vsize": 134,
      "weight": 536,
      "locktime": 0,
      "vin": [
        {
          "coinbase": "04ffff001d014d",
          "sequence": 4294967295
        }
      ],
      "vout": [
        {
          "value": 50.0,
          "n": 0,
          "scriptPubKey": {
            "asm": "040890f2990714393514c898eaa61353163aa4c2ac5be0cb78c8ffe0b3486d580c5c3ec584f303c04429ecb537144ca28def1a61e0213fbb3c15de9572f8cacdc0 OP_CHECKSIG",
            "desc": "pk(040890f2990714393514c898eaa61353163aa4c2ac5be0cb78c8ffe0b3486d580c5c3ec584f303c04429ecb537144ca28def1a61e0213fbb3c15de9572f8cacdc0)#v2jlfgtn",
            "hex": "41040890f2990714393514c898eaa61353163aa4c2ac5be0cb78c8ffe0b3486d580c5c3ec584f303c04429ecb537144ca28def1a61e0213fbb3c15de9572f8cacdc0ac",
            "type": "pubkey"
          }
        }
      ],
      "hex": "01000000010000000000000000000000000000000000000000000000000000000000000000ffffffff0704ffff001d014dffffffff0100f2052a010000004341040890f2990714393514c898eaa61353163aa4c2ac5be0cb78c8ffe0b3486d580c5c3ec584f303c04429ecb537144ca28def1a61e0213fbb3c15de9572f8cacdc0ac00000000"
    }
  ]
}