{
  "hash": "000000005a580147f6b6d5e90d40e173977f0f08f78bef0aa545a97f0bd2ccb4",
  "confirmations": 50439,
  "height": 2659,
  "version": 1,
  "versionHex": "00000001",
  "merkleroot": "f449b48eacd5fca550d8fca1dac5670daf13ff0f00ffb8f9942839bff8c58a5c",
  "time": 1233533236,
  "mediantime": 1233530640,
  "nonce": 2846939,
  "bits": "1d00ffff",
  "difficulty": 1,
  "chainwork": "00000000000000000000000000000000000000000000000000000a640a640a64",
  "nTx": 1,
  "previousblockhash": "00000000f11c8ead79f38a2561aa78ad1d15a3bc6187fc980cfb8db92365fa2c",
  "nextblockhash": "00000000d4f802358c9fd7fde183da3ad137979775893a756ce93ec3d2570526",
  "strippedsize": 216,
  "size": 216,
  "weight": 864,
  "tx": [
    {
      "txid": "f449b48eacd5fca550d8fca1dac5670daf13ff0f00ffb8f9942839bff8c58a5c",
      "hash": "f449b48eacd5fca550d8fca1dac5670daf13ff0f00ffb8f9942839bff8c58a5c",
      "version": 1,
      "size": 135,
      "vsize": 135,
      "weight": 540,
      "locktime": 0,
      "vin": [
        {
          "coinbase": "04ffff001d029600",
          "sequence": 4294967295
        }
      ],
      "vout": [
        {
          "value": 50.0,
          "n": 0,
          "scriptPubKey": {
            "asm": "04c028226ff531c0e65dab8cde08bd10679e58d67a00fe2a17e3cef0a96bfa195860ce417c39dcb44f5803a31a7c65dd50b318f04f34399f302b94f2fc5484f3c6 OP_CHECKSIG",
            "desc": "pk(04c028226ff531c0e65dab8cde08bd10679e58d67a00fe2a17e3cef0a96bfa195860ce417c39dcb44f5803a31a7c65dd50b318f04f34399f302b94f2fc5484f3c6)#6n5ad9l3",
            "hex": "4104c028226ff531c0e65dab8cde08bd10679e58d67a00fe2a17e3cef0a96bfa195860ce417c39dcb44f5803a31a7c65dd50b318f04f34399f302b94f2fc5484f3c6ac",
            "type": "pubkey"
          }
        }
      ],
      "hex": "01000000010000000000000000000000000000000000000000000000000000000000000000ffffffff0804ffff001d029600ffffffff0100f2052a01000000434104c028226ff531c0e65dab8cde08bd10679e58d67a00fe2a17e3cef0a96bfa195860ce417c39dcb44f5803a31a7c65dd50b318f04f34399f302b94f2fc5484f3c6ac00000000"
    }
  ]
}