{
  "hash": "00000000a5840431b42ef82d18c90046fafba4735a4f7957f59e8dd5fa3d4b85",
  "confirmations": 44423,
  "height": 8675,
  "version": 1,
  "versionHex": "00000001",
  "merkleroot": "9463773a20bd042166a63ddbd45c1398593b4e0c9007f56aad852a7f8c715ee7",
  "time": 1238005531,
  "mediantime": 1237999789,
  "nonce": 2134662699,
  "bits": "1d00ffff",
  "difficulty": 1,
  "chainwork": "000000000000000000000000000000000000000000000000000021e421e421e4",
  "nTx": 1,
  "previousblockhash": "000000007849dc16023dfb9a6b60cf73e13d507ca7de65697f32f9917aa91925",
  "nextblockhash": "0000000077991a4865e083ae4ae338c86ed3288e809fb9be17b1771c009afcd0",
  "strippedsize": 215,
  "size": 215,
  "weight": 860,
  "tx": [
    {
      "txid": "9463773a20bd042166a63ddbd45c1398593b4e0c9007f56aad852a7f8c715ee7",
      "hash": "9463773a20bd042166a63ddbd45c1398593b4e0c9007f56aad852a7f8c715ee7",
      "version": 1,
      "size": 134,
      "vsize": 134,
      "weight": 536,
      "locktime": 0,
      "vin": [
        {
          "coinbase": "04ffff001d017c",
          "sequence": 4294967295
        }
      ],
      "vout": [
        {
          "value": 50.0,
          "n": 0,
          "scriptPubKey": {
            "asm": "0477c0c50eba70ca3d816c5fc5d85f383c1c42d292a1f9d220b318cf7392c1de91d9c74724c6c956bcb507995f2f17856757da01f45baed364e861f6ed68fdaa27 OP_CHECKSIG",
            "desc": "pk(0477c0c50eba70ca3d816c5fc5d85f383c1c42d292a1f9d220b318cf7392c1de91d9c74724c6c956bcb507995f2f17856757da01f45baed364e861f6ed68fdaa27)#eyh50pxj",
            "hex": "410477c0c50eba70ca3d816c5fc5d85f383c1c42d292a1f9d220b318cf7392c1de91d9c74724c6c956bcb507995f2f17856757da01f45baed364e861f6ed68fdaa27ac",
            "type": "pubkey"
          }
        }
      ],
      "hex": "01000000010000000000000000000000000000000000000000000000000000000000000000ffffffff0704ffff001d017cffffffff0100f2052a0100000043410477c0c50eba70ca3d816c5fc5d85f383c1c42d292a1f9d220b318cf7392c1de91d9c74724c6c956bcb507995f2f17856757da01f45baed364e861f6ed68fdaa27ac00000000"
    }
  ]
}