{
  "hash": "000000008f7608780c98670ba8cd045667ff29d33f9f162eded95bc78a9bf54e",
  "confirmations": 50278,
  "height": 2820,
  "version": 1,
  "versionHex": "00000001",
  "merkleroot": "fd3759f3b5376b1f2fbc5a5698de776897e9fd2538d504a6f5389b9acdac8e35",
  "time": 1233639192,
  "mediantime": 1233637083,
  "nonce": 15654283,
  "bits": "1d00ffff",
  "difficulty": 1,
  "chainwork": "00000000000000000000000000000000000000000000000000000b050b050b05",
  "nTx": 1,
  "previousblockhash": "00000000183141f025fda1dd451800e25ca1159d584831758b85760c14598f8b",
  "nextblockhash": "000000005c356d4ba15ae111011c058aae4e9191869815dc910139ede032e7f6",
  "strippedsize": 215,
  "size": 215,
  "weight": 860,
  "tx": [
    {
      "txid": "fd3759f3b5376b1f2fbc5a5698de776897e9fd2538d504a6f5389b9acdac8e35",
      "hash": "fd3759f3b5376b1f2fbc5a5698de776897e9fd2538d504a6f5389b9acdac8e35",
      "version": 1,
      "size": 134,
      "vsize": 134,
      "weight": 536,
      "locktime": 0,
      "vin": [
        {
          "coinbase": "04ffff001d0112",
          "sequence": 4294967295
        }
      ],
      "vout": [
        {
          "value": 50.0,
          "n": 0,
          "scriptPubKey": {
            "asm": "04097ee58e6a8f10c63777abf6912d8bd380865c72b77c7571bcbe458d57280c52764ce39349457912cf24205eb174bb7e8fb0886a618e688934c60066bbcd4c0d OP_CHECKSIG",
            "desc": "pk(04097ee58e6a8f10c63777abf6912d8bd380865c72b77c7571bcbe458d57280c52764ce39349457912cf24205eb174bb7e8fb0886a618e688934c60066bbcd4c0d)#qt5mv6du",
            "hex": "4104097ee58e6a8f10c63777abf6912d8bd380865c72b77c7571bcbe458d57280c52764ce39349457912cf24205eb174bb7e8fb0886a618e688934c60066bbcd4c0dac",
            "type": "pubkey"
          }
        }
      ],
      "hex": "01000000010000000000000000000000000000000000000000000000000000000000000000ffffffff0704ffff001d0112ffffffff0100f2052a01000000434104097ee58e6a8f10c63777abf6912d8bd380865c72b77c7571bcbe458d57280c52764ce39349457912cf24205eb174bb7e8fb0886a618e688934c60066bbcd4c0dac00000000"
    }
  ]
}