{
  "hash": "000000003a230554eeafcf23be3d2d283d5c93a5750d13f77c1b6f343e9dd2d9",
  "confirmations": 50396,
  "height": 2702,
  "version": 1,
  "versionHex": "00000001",
  "merkleroot": "464646cfb6f4a386214e3d554b8d350dad64e5c3a0cfc4ab198a59bd759ff2a7",
  "time": 1233562157,
  "mediantime": 1233558176,
  "nonce": 38765227,
  "bits": "1d00ffff",
  "difficulty": 1,
  "chainwork": "00000000000000000000000000000000000000000000000000000a8f0a8f0a8f",
  "nTx": 1,
  "previousblockhash": "000000009d65522d29ae00f24ccc272fb66a97962440b2fd8aa0ca04bd1744ab",
  "nextblockhash": "00000000e6f3ddd1f93c53a57d4f00e1e96246d1484b4dd7c3169f3a01f13841",
  "strippedsize": 215,
  "size": 215,
  "weight": 860,
  "tx": [
    {
      "txid": "464646cfb6f4a386214e3d554b8d350dad64e5c3a0cfc4ab198a59bd759ff2a7",
      "hash": "464646cfb6f4a386214e3d554b8d350dad64e5c3a0cfc4ab198a59bd759ff2a7",
      "version": 1,
      "size": 134,
      "vsize": 134,
      "weight": 536,
      "locktime": 0,
      "vin": [
        {
          "coinbase": "04ffff001d016f",
          "sequence": 4294967295
        }
      ],
      "vout": [
        {
          "value": 50.0,
          "n": 0,
          "scriptPubKey": {
            "asm": "043bd58b063576c07d1826a33d9b1d2f9d528b639c80dadcf484961d3facca09b136178cc27acd0066728c12a0a368d09a0988c6d5be05702eff8971e74f1c5ecd OP_CHECKSIG",
            "desc": "pk(043bd58b063576c07d1826a33d9b1d2f9d528b639c80dadcf484961d3facca09b136178cc27acd0066728c12a0a368d09a0988c6d5be05702eff8971e74f1c5ecd)#ts0ayp5w",
            "hex": "41043bd58b063576c07d1826a33d9b1d2f9d528b639c80dadcf484961d3facca09b136178cc27acd0066728c12a0a368d09a0988c6d5be05702eff8971e74f1c5ecdac",
            "type": "pubkey"
          }
        }
      ],
      "hex": "01000000010000000000000000000000000000000000000000000000000000000000000000ffffffff0704ffff001d016fffffffff0100f2052a010000004341043bd58b063576c07d1826a33d9b1d2f9d528b639c80dadcf484961d3facca09b136178cc27acd0066728c12a0a368d09a0988c6d5be05702eff8971e74f1c5ecdac00000000"
    }
  ]
}