{
  "hash": "0000000014ae456c104853e17deaed2a61eede544edd048e557eda88c20b88f5",
  "confirmations": 51699,
  "height": 1399,
  "version": 1,
  "versionHex": "00000001",
  "merkleroot": "badeae9db2b8d01af5f70a46c83d20e0b85dd1d06960484c9a7dd600a4ba0b92",
  "time": 1232723624,
  "mediantime": 1232703311,
  "nonce": 496216912,
  "bits": "1d00ffff",
  "difficulty": 1,
  "chainwork": "0000000000000000000000000000000000000000000000000000057805780578",
  "nTx": 1,
  "previousblockhash": "00000000a8df21790d4785b6b2b9625f452ded9a3cec75b3160377aba5edceeb",
  "nextblockhash": "00000000c9c28d2bb760225beaddbc212a01720869b624f088e9311df5b5d8f2",
  "strippedsize": 216,
  "size": 216,
  "weight": 864,
  "tx": [
    {
      "txid": "badeae9db2b8d01af5f70a46c83d20e0b85dd1d06960484c9a7dd600a4ba0b92",
      "hash": "badeae9db2b8d01af5f70a46c83d20e0b85dd1d06960484c9a7dd600a4ba0b92",
      "version": 1,
      "size": 135,
      "vsize": 135,
      "weight": 540,
      "locktime": 0,
      "vin": [
        {
          "coinbase": "04ffff001d02df00",
          "sequence": 4294967295
        }
      ],
      "vout": [
        {
          "value": 50.0,
          "n": 0,
          "scriptPubKey": {
            "asm": "04e1b65ca24eb3b1f8541a3bbf2ccf0586d0f22c1e0739d50684a8fb9db074859c2b27fb497d67ae479fb7e702733efe7c075ed8c7ebd8a2f852748ee5f384453b OP_CHECKSIG",
            "desc": "pk(04e1b65ca24eb3b1f8541a3bbf2ccf0586d0f22c1e0739d50684a8fb9db074859c2b27fb497d67ae479fb7e702733efe7c075ed8c7ebd8a2f852748ee5f384453b)#g0huuvxu",
            "hex": "4104e1b65ca24eb3b1f8541a3bbf2ccf0586d0f22c1e0739d50684a8fb9db074859c2b27fb497d67ae479fb7e702733efe7c075ed8c7ebd8a2f852748ee5f384453bac",
            "type": "pubkey"
          }
        }
      ],
      "hex": "01000000010000000000000000000000000000000000000000000000000000000000000000ffffffff0804ffff001d02df00ffffffff0100f2052a01000000434104e1b65ca24eb3b1f8541a3bbf2ccf0586d0f22c1e0739d50684a8fb9db074859c2b27fb497d67ae479fb7e702733efe7c075ed8c7ebd8a2f852748ee5f384453bac00000000"
    }
  ]
}