{
  "hash": "00000000438ef100a73793939192b5d3b2b6efb59ee0e60bed3a3f599027ada6",
  "confirmations": 52402,
  "height": 696,
  "version": 1,
  "versionHex": "00000001",
  "merkleroot": "bd34e0476abb5a2b8d49ef1f1ea26e9bae6162035228b7dc34edeeacab53aa40",
  "time": 1232106114,
  "mediantime": 1232100803,
  "nonce": 3279297799,
  "bits": "1d00ffff",
  "difficulty": 1,
  "chainwork": "000000000000000000000000000000000000000000000000000002b902b902b9",
  "nTx": 1,
  "previousblockhash": "000000006815fb54c6c4871d67a80a3f4af24ae4032198b66753170d75cec02c",
  "nextblockhash": "00000000a3f4050652cb60d37dee6056b322fa2f3f8aa633e0162cb021c8a1df",
  "strippedsize": 216,
  "size": 216,
  "weight": 864,
  "tx": [
    {
      "txid": "bd34e0476abb5a2b8d49ef1f1ea26e9bae6162035228b7dc34edeeacab53aa40",
      "hash": "bd34e0476abb5a2b8d49ef1f1ea26e9bae6162035228b7dc34edeeacab53aa40",
      "version": 1,
      "size": 135,
      "vsize": 135,
      "weight": 540,
      "locktime": 0,
      "vin": [
        {
          "coinbase": "04ffff001d02f800",
          "sequence": 4294967295
        }
      ],
      "vout": [
        {
          "value": 50.0,
          "n": 0,
          "scriptPubKey": {
            "asm": "045f6d21ba3a8da9ed6880f075450dd1e203b8a94c88983434992cca4d4b82651c1d49ce6bc7b190377c36c696ef200ac245e77e02257d15876bec409f7792f3f3 OP_CHECKSIG",
            "desc": "pk(045f6d21ba3a8da9ed6880f075450dd1e203b8a94c88983434992cca4d4b82651c1d49ce6bc7b190377c36c696ef200ac245e77e02257d15876bec409f7792f3f3)#0k09w2r3",
            "hex": "41045f6d21ba3a8da9ed6880f075450dd1e203b8a94c88983434992cca4d4b82651c1d49ce6bc7b190377c36c696ef200ac245e77e02257d15876bec409f7792f3f3ac",
            "type": "pubkey"
          }
        }
      ],
      "hex": "01000000010000000000000000000000000000000000000000000000000000000000000000ffffffff0804ffff001d02f800ffffffff0100f2052a010000004341045f6d21ba3a8da9ed6880f075450dd1e203b8a94c88983434992cca4d4b82651c1d49ce6bc7b190377c36c696ef200ac245e77e02257d15876bec409f7792f3f3ac00000000"
    }
  ]
}