{
  "hash": "000000005e92e6fcce1e5f8e94faf41ef887b6ef4ed23723d4897efabcc0afee",
  "confirmations": 44020,
  "height": 9078,
  "version": 1,
  "versionHex": "00000001",
  "merkleroot": "fdc22f8d5f5340b936f13ced9a78b6afd8c25f5a3bbcbd6395d55411bdce2841",
  "time": 1238315716,
  "mediantime": 1238313536,
  "nonce": 2338557233,
  "bits": "1d00ffff",
  "difficulty": 1,
  "chainwork": "0000000000000000000000000000000000000000000000000000237723772377",
  "nTx": 1,
  "previousblockhash": "0000000062cb26abe0587ac88d7416566b2820c5943619764c9929d72c2f0f2d",
  "nextblockhash": "000000007566f4492a4ea9c418c88e7e33180e4a09675dbe355e411c8623561d",
  "strippedsize": 216,
  "size": 216,
  "weight": 864,
  "tx": [
    {
      "txid": "fdc22f8d5f5340b936f13ced9a78b6afd8c25f5a3bbcbd6395d55411bdce2841",
      "hash": "fdc22f8d5f5340b936f13ced9a78b6afd8c25f5a3bbcbd6395d55411bdce2841",
      "version": 1,
      "size": 135,
      "vsize": 135,
      "weight": 540,
      "locktime": 0,
      "vin": [
        {
          "coinbase": "04ffff001d02df07",
          "sequence": 4294967295
        }
      ],
      "vout": [
        {
          "value": 50.0,
          "n": 0,
          "scriptPubKey": {
            "asm": "04a1e40f88f897dab15756736325c99f66fc6c08999682b9572ede0d605966001463b89561f13036397d60e155e63eff796bc8bb9ee57ac868ad44bf3b5fb13ea1 OP_CHECKSIG",
            "desc": "pk(04a1e40f88f897dab15756736325c99f66fc6c08999682b9572ede0d605966001463b89561f13036397d60e155e63eff796bc8bb9ee57ac868ad44bf3b5fb13ea1)#2907w7jt",
            "hex": "4104a1e40f88f897dab15756736325c99f66fc6c08999682b9572ede0d605966001463b89561f13036397d60e155e63eff796bc8bb9ee57ac868ad44bf3b5fb13ea1ac",
            "type": "pubkey"
          }
        }
      ],
      "hex": "01000000010000000000000000000000000000000000000000000000000000000000000000ffffffff0804ffff001d02df07ffffffff0100f2052a01000000434104a1e40f88f897dab15756736325c99f66fc6c08999682b9572ede0d605966001463b89561f13036397d60e155e63eff796bc8bb9ee57ac868ad44bf3b5fb13ea1ac00000000"
    }
  ]
}