{
  "hash": "000000005ae2fdc26b76e01c7428b8f9c977176c6bb75fc6b869619dafc31452",
  "confirmations": 44692,
  "height": 8406,
  "version": 1,
  "versionHex": "00000001",
  "merkleroot": "b804e8f1874a7984956c8b86f7d338c05bed444439e1680089ee849f52cf5f83",
  "time": 1237802792,
  "mediantime": 1237799866,
  "nonce": 1407942682,
  "bits": "1d00ffff",
  "difficulty": 1,
  "chainwork": "000000000000000000000000000000000000000000000000000020d720d720d7",
  "nTx": 1,
  "previousblockhash": "0000000035cbdd492f99060333ef2a6d59f1afd0156203684ea654f20ec0027d",
  "nextblockhash": "000000009b6afc9f6bd55c20c5e15c30fb10b630a7da6205ab63e621d794f5ad",
  "strippedsize": 216,
  "size": 216,
  "weight": 864,
  "tx": [
    {
      "txid": "b804e8f1874a7984956c8b86f7d338c05bed444439e1680089ee849f52cf5f83",
      "hash": "b804e8f1874a7984956c8b86f7d338c05bed444439e1680089ee849f52cf5f83",
      "version": 1,
      "size": 135,
      "vsize": 135,
      "weight": 540,
      "locktime": 0,
      "vin": [
        {
          "coinbase": "04ffff001d021906",
          "sequence": 4294967295
        }
      ],
      "vout": [
        {
          "value": 50.0,
          "n": 0,
          "scriptPubKey": {
            "asm": "04324898221feb89287847ae7f59625a3c3894e935ca9bb617a9361d27ba14f3fc5f84f1ef5390b2262702d45f0bf242e310b62659a6ac9e89f9bfcb57ac28fda8 OP_CHECKSIG",
            "desc": "pk(04324898221feb89287847ae7f59625a3c3894e935ca9bb617a9361d27ba14f3fc5f84f1ef5390b2262702d45f0bf242e310b62659a6ac9e89f9bfcb57ac28fda8)#3fs6zzax",
            "hex": "4104324898221feb89287847ae7f59625a3c3894e935ca9bb617a9361d27ba14f3fc5f84f1ef5390b2262702d45f0bf242e310b62659a6ac9e89f9bfcb57ac28fda8ac",
            "type": "pubkey"
          }
        }
      ],
      "hex": "01000000010000000000000000000000000000000000000000000000000000000000000000ffffffff0804ffff001d021906ffffffff0100f2052a01000000434104324898221feb89287847ae7f59625a3c3894e935ca9bb617a9361d27ba14f3fc5f84f1ef5390b2262702d45f0bf242e310b62659a6ac9e89f9bfcb57ac28fda8ac00000000"
    }
  ]
}