{
  "hash": "00000000c92e5fd30b61569dc83e385e606e4629a695d012e60461a3f4d65a92",
  "confirmations": 48351,
  "height": 4747,
  "version": 1,
  "versionHex": "00000001",
  "merkleroot": "551071b054dad50590c89eebfa81cfb5ac6ec5093a158e4b0e64ebbb471097b9",
  "time": 1234961249,
  "mediantime": 1234957768,
  "nonce": 48873549,
  "bits": "1d00ffff",
  "difficulty": 1,
  "chainwork": "0000000000000000000000000000000000000000000000000000128c128c128c",
  "nTx": 1,
  "previousblockhash": "00000000be7f92391f63dd4409fefd73e140ab5e4c4bdc59b5ff04b63526da66",
  "nextblockhash": "000000002fc610f960358ed65403b1548c41ba471546338ac799dd9a8f386063",
  "strippedsize": 216,
  "size": 216,
  "weight": 864,
  "tx": [
    {
      "txid": "551071b054dad50590c89eebfa81cfb5ac6ec5093a158e4b0e64ebbb471097b9",
      "hash": "551071b054dad50590c89eebfa81cfb5ac6ec5093a158e4b0e64ebbb471097b9",
      "version": 1,
      "size": 135,
      "vsize": 135,
      "weight": 540,
      "locktime": 0,
      "vin": [
        {
          "coinbase": "04ffff001d02d700",
          "sequence": 4294967295
        }
      ],
      "vout": [
        {
          "value": 50.0,
          "n": 0,
          "scriptPubKey": {
            "asm": "04e12c6f4f543dcd34dd884dd4db2d4e38bb9fa7aec4c361fd94288d39a6935c860452bf6ad89d1add27be1748c84845fcbeb93552a048aa613d14711784ed9924 OP_CHECKSIG",
            "desc": "pk(04e12c6f4f543dcd34dd884dd4db2d4e38bb9fa7aec4c361fd94288d39a6935c860452bf6ad89d1add27be1748c84845fcbeb93552a048aa613d14711784ed9924)#4tvw2qnl",
            "hex": "4104e12c6f4f543dcd34dd884dd4db2d4e38bb9fa7aec4c361fd94288d39a6935c860452bf6ad89d1add27be1748c84845fcbeb93552a048aa613d14711784ed9924ac",
            "type": "pubkey"
          }
        }
      ],
      "hex": "01000000010000000000000000000000000000000000000000000000000000000000000000ffffffff0804ffff001d02d700ffffffff0100f2052a01000000434104e12c6f4f543dcd34dd884dd4db2d4e38bb9fa7aec4c361fd94288d39a6935c860452bf6ad89d1add27be1748c84845fcbeb93552a048aa613d14711784ed9924ac00000000"
    }
  ]
}