{
  "hash": "000000003819757b4093ca235dc2355734229ffb44e6dbb3191e9cd38d8f36c8",
  "confirmations": 44456,
  "height": 8642,
  "version": 1,
  "versionHex": "00000001",
  "merkleroot": "0dff26b45f0ee971e73e70505276505df8232561db3ed8dce4c5add9a41c12a8",
  "time": 1237978133,
  "mediantime": 1237974029,
  "nonce": 2658462490,
  "bits": "1d00ffff",
  "difficulty": 1,
  "chainwork": "000000000000000000000000000000000000000000000000000021c321c321c3",
  "nTx": 1,
  "previousblockhash": "00000000428a416c6536f785c18af1fb6094c653f2e847086eb58755303e2d39",
  "nextblockhash": "00000000281a0691c3a787107eb706b38173657935576e16373db912c36ce62d",
  "strippedsize": 216,
  "size": 216,
  "weight": 864,
  "tx": [
    {
      "txid": "0dff26b45f0ee971e73e70505276505df8232561db3ed8dce4c5add9a41c12a8",
      "hash": "0dff26b45f0ee971e73e70505276505df8232561db3ed8dce4c5add9a41c12a8",
      "version": 1,
      "size": 135,
      "vsize": 135,
      "weight": 540,
      "locktime": 0,
      "vin": [
        {
          "coinbase": "04ffff001d022d0a",
          "sequence": 4294967295
        }
      ],
      "vout": [
        {
          "value": 50.0,
          "n": 0,
          "scriptPubKey": {
            "asm": "049d0317103731135fa31b3bdf58e3b780caf131c7145abebe76142e685274ce0adbb07ad1e5212d06502564519477adab9fe70cc151a733797a4a202208363de7 OP_CHECKSIG",
            "desc": "pk(049d0317103731135fa31b3bdf58e3b780caf131c7145abebe76142e685274ce0adbb07ad1e5212d06502564519477adab9fe70cc151a733797a4a202208363de7)#utw3v4ka",
            "hex": "41049d0317103731135fa31b3bdf58e3b780caf131c7145abebe76142e685274ce0adbb07ad1e5212d06502564519477adab9fe70cc151a733797a4a202208363de7ac",
            "type": "pubkey"
          }
        }
      ],
      "hex": "01000000010000000000000000000000000000000000000000000000000000000000000000ffffffff0804ffff001d022d0affffffff0100f2052a010000004341049d0317103731135fa31b3bdf58e3b780caf131c7145abebe76142e685274ce0adbb07ad1e5212d06502564519477adab9fe70cc151a733797a4a202208363de7ac00000000"
    }
  ]
}