{
  "hash": "0000000020bdf900fc67ded9a556b6f22740856a1bf2ad92a6871ac4d3d0f594",
  "confirmations": 45233,
  "height": 7865,
  "version": 1,
  "versionHex": "00000001",
  "merkleroot": "62fd51b9ae66fa9e55d9808b89ec52cf3ac4b26cb5c32b8be159f0281f57c5ed",
  "time": 1237363177,
  "mediantime": 1237358782,
  "nonce": 944091447,
  "bits": "1d00ffff",
  "difficulty": 1,
  "chainwork": "00000000000000000000000000000000000000000000000000001eba1eba1eba",
  "nTx": 1,
  "previousblockhash": "00000000b7c90bc517d76eb5a16385be59b308bf303f69db242a714561db02ee",
  "nextblockhash": "00000000af9ecd4de95e6f92a55106c7b2a78161fdb71531497f0328b42cc14b",
  "strippedsize": 216,
  "size": 216,
  "weight": 864,
  "tx": [
    {
      "txid": "62fd51b9ae66fa9e55d9808b89ec52cf3ac4b26cb5c32b8be159f0281f57c5ed",
      "hash": "62fd51b9ae66fa9e55d9808b89ec52cf3ac4b26cb5c32b8be159f0281f57c5ed",
      "version": 1,
      "size": 135,
      "vsize": 135,
      "weight": 540,
      "locktime": 0,
      "vin": [
        {
          "coinbase": "04ffff001d02fc06",
          "sequence": 4294967295
        }
      ],
      "vout": [
        {
          "value": 50.0,
          "n": 0,
          "scriptPubKey": {
            "asm": "04ca192b7da7e9f9717c01bd5484c0dff9624758d3a1a9f4e617ff91620754c15f9fbf4fedacf3091c06b5e17c9bae7a93a8dc66565df0916a5d2ad23ac1cf5bcd OP_CHECKSIG",
            "desc": "pk(04ca192b7da7e9f9717c01bd5484c0dff9624758d3a1a9f4e617ff91620754c15f9fbf4fedacf3091c06b5e17c9bae7a93a8dc66565df0916a5d2ad23ac1cf5bcd)#ew23uyy0",
            "hex": "4104ca192b7da7e9f9717c01bd5484c0dff9624758d3a1a9f4e617ff91620754c15f9fbf4fedacf3091c06b5e17c9bae7a93a8dc66565df0916a5d2ad23ac1cf5bcdac",
            "type": "pubkey"
          }
        }
      ],
      "hex": "01000000010000000000000000000000000000000000000000000000000000000000000000ffffffff0804ffff001d02fc06ffffffff0100f2052a01000000434104ca192b7da7e9f9717c01bd5484c0dff9624758d3a1a9f4e617ff91620754c15f9fbf4fedacf3091c06b5e17c9bae7a93a8dc66565df0916a5d2ad23ac1cf5bcdac00000000"
    }
  ]
}