{
  "hash": "000000009e6a05d053409236953adae0e74b2cb63ac35fe5a2938503a6216fcb",
  "confirmations": 51268,
  "height": 1830,
  "version": 1,
  "versionHex": "00000001",
  "merkleroot": "4fe20daf4d8d655ecbbc38b52a45f9ebb4136d02187689b3ddd5c32432f59d6f",
  "time": 1232913022,
  "mediantime": 1232910591,
  "nonce": 19830838,
  "bits": "1d00ffff",
  "difficulty": 1,
  "chainwork": "0000000000000000000000000000000000000000000000000000072707270727",
  "nTx": 1,
  "previousblockhash": "00000000b974e0a66bd2dd1973758c7dfdf74d1be1077c2e413c5f8d7bdf0aae",
  "nextblockhash": "00000000f5c24710cf54775da5c791cbe2ea291e2941dc789b1dfad1daed54b0",
  "strippedsize": 216,
  "size": 216,
  "weight": 864,
  "tx": [
    {
      "txid": "4fe20daf4d8d655ecbbc38b52a45f9ebb4136d02187689b3ddd5c32432f59d6f",
      "hash": "4fe20daf4d8d655ecbbc38b52a45f9ebb4136d02187689b3ddd5c32432f59d6f",
      "version": 1,
      "size": 135,
      "vsize": 135,
      "weight": 540,
      "locktime": 0,
      "vin": [
        {
          "coinbase": "04ffff001d025f04",
          "sequence": 4294967295
        }
      ],
      "vout": [
        {
          "value": 50.0,
          "n": 0,
          "scriptPubKey": {
            "asm": "042432766750287eba22f8f71dc7336a2b94928077d838bdcdd5749408664a20307b76801eb11915a11fbae95320798803459422516b49eb7c7ccae86879564eb6 OP_CHECKSIG",
            "desc": "pk(042432766750287eba22f8f71dc7336a2b94928077d838bdcdd5749408664a20307b76801eb11915a11fbae95320798803459422516b49eb7c7ccae86879564eb6)#hdzh87gz",
            "hex": "41042432766750287eba22f8f71dc7336a2b94928077d838bdcdd5749408664a20307b76801eb11915a11fbae95320798803459422516b49eb7c7ccae86879564eb6ac",
            "type": "pubkey"
          }
        }
      ],
      "hex": "01000000010000000000000000000000000000000000000000000000000000000000000000ffffffff0804ffff001d025f04ffffffff0100f2052a010000004341042432766750287eba22f8f71dc7336a2b94928077d838bdcdd5749408664a20307b76801eb11915a11fbae95320798803459422516b49eb7c7ccae86879564eb6ac00000000"
    }
  ]
}