{
  "hash": "00000000ca247045243ca614f4ee723365f1979ea71d7d7ea91782e7c21241db",
  "confirmations": 45945,
  "height": 7153,
  "version": 1,
  "versionHex": "00000001",
  "merkleroot": "d995775086ffbbd7315598e217118c546ec1f903cdb4c9f889d00b6eb9fe1945",
  "time": 1236837985,
  "mediantime": 1236834392,
  "nonce": 1251799835,
  "bits": "1d00ffff",
  "difficulty": 1,
  "chainwork": "00000000000000000000000000000000000000000000000000001bf21bf21bf2",
  "nTx": 1,
  "previousblockhash": "00000000e3826f75b1b9239d8a0b6f36dbfbe119cecee4a4aa5684047fba6b3c",
  "nextblockhash": "000000002aee7320ff8012e0097de4de3ee17bb8d7533054ab2e64f822cc02e7",
  "strippedsize": 216,
  "size": 216,
  "weight": 864,
  "tx": [
    {
      "txid": "d995775086ffbbd7315598e217118c546ec1f903cdb4c9f889d00b6eb9fe1945",
      "hash": "d995775086ffbbd7315598e217118c546ec1f903cdb4c9f889d00b6eb9fe1945",
      "version": 1,
      "size": 135,
      "vsize": 135,
      "weight": 540,
      "locktime": 0,
      "vin": [
        {
          "coinbase": "04ffff001d02f304",
          "sequence": 4294967295
        }
      ],
      "vout": [
        {
          "value": 50.0,
          "n": 0,
          "scriptPubKey": {
            "asm": "0491765f3ed1f595328f5a0be5ebec5bca37f844fdec153ce0e2222e94c1f40d3662c93021275d9f8499ee630587f952f5cc173fdabcaf768e72c690a62ef7140b OP_CHECKSIG",
            "desc": "pk(0491765f3ed1f595328f5a0be5ebec5bca37f844fdec153ce0e2222e94c1f40d3662c93021275d9f8499ee630587f952f5cc173fdabcaf768e72c690a62ef7140b)#lck9jysl",
            "hex": "410491765f3ed1f595328f5a0be5ebec5bca37f844fdec153ce0e2222e94c1f40d3662c93021275d9f8499ee630587f952f5cc173fdabcaf768e72c690a62ef7140bac",
            "type": "pubkey"
          }
        }
      ],
      "hex": "01000000010000000000000000000000000000000000000000000000000000000000000000ffffffff0804ffff001d02f304ffffffff0100f2052a0100000043410491765f3ed1f595328f5a0be5ebec5bca37f844fdec153ce0e2222e94c1f40d3662c93021275d9f8499ee630587f952f5cc173fdabcaf768e72c690a62ef7140bac00000000"
    }
  ]
}