{
  "hash": "00000000c95d069853ba57ae3944bd3799c9f3630300ca70c616d31f802f25c3",
  "confirmations": 45647,
  "height": 7451,
  "version": 1,
  "versionHex": "00000001",
  "merkleroot": "2fa5a6d4cfef6b561a070780ccce117d7e9093f58c7ed1c97bb826aa44ba8dac",
  "time": 1237062885,
  "mediantime": 1237058727,
  "nonce": 1985978154,
  "bits": "1d00ffff",
  "difficulty": 1,
  "chainwork": "00000000000000000000000000000000000000000000000000001d1c1d1c1d1c",
  "nTx": 1,
  "previousblockhash": "00000000aa22811e91b2f456264959fcefa1b49ffbc93d110c21c36fb7d004c4",
  "nextblockhash": "0000000010cd9572bcbd92d1fad5bddac4de4c6f5cfc4b8aca6d747130a9c956",
  "strippedsize": 215,
  "size": 215,
  "weight": 860,
  "tx": [
    {
      "txid": "2fa5a6d4cfef6b561a070780ccce117d7e9093f58c7ed1c97bb826aa44ba8dac",
      "hash": "2fa5a6d4cfef6b561a070780ccce117d7e9093f58c7ed1c97bb826aa44ba8dac",
      "version": 1,
      "size": 134,
      "vsize": 134,
      "weight": 536,
      "locktime": 0,
      "vin": [
        {
          "coinbase": "04ffff001d0128",
          "sequence": 4294967295
        }
      ],
      "vout": [
        {
          "value": 50.0,
          "n": 0,
          "scriptPubKey": {
            "asm": "04602144e008c6d471df579d3bea81fda78d20ebc4f717e3e93ba4157815d3d84dce9f89bb887cec449aeb0232acf64314c85807a7e54a808beeefd3dfc73ae8ec OP_CHECKSIG",
            "desc": "pk(04602144e008c6d471df579d3bea81fda78d20ebc4f717e3e93ba4157815d3d84dce9f89bb887cec449aeb0232acf64314c85807a7e54a808beeefd3dfc73ae8ec)#r6c3tkqz",
            "hex": "4104602144e008c6d471df579d3bea81fda78d20ebc4f717e3e93ba4157815d3d84dce9f89bb887cec449aeb0232acf64314c85807a7e54a808beeefd3dfc73ae8ecac",
            "type": "pubkey"
          }
        }
      ],
      "hex": "01000000010000000000000000000000000000000000000000000000000000000000000000ffffffff0704ffff001d0128ffffffff0100f2052a01000000434104602144e008c6d471df579d3bea81fda78d20ebc4f717e3e93ba4157815d3d84dce9f89bb887cec449aeb0232acf64314c85807a7e54a808beeefd3dfc73ae8ecac00000000"
    }
  ]
}