{
  "hash": "00000000c0f199ae6994fd526b6b01e175a72c612d1d80acc1e849f6c8a80e60",
  "confirmations": 46121,
  "height": 6977,
  "version": 1,
  "versionHex": "00000001",
  "merkleroot": "9ce283a8f5c6bf59513fd0bdb794e60ada57951da8759def13d560c8df0d80dd",
  "time": 1236698142,
  "mediantime": 1236695290,
  "nonce": 2582151969,
  "bits": "1d00ffff",
  "difficulty": 1,
  "chainwork": "00000000000000000000000000000000000000000000000000001b421b421b42",
  "nTx": 1,
  "previousblockhash": "0000000067f5c9058f4beddbdd38bf49dac8cfdbe02acaf919f045b6a38a080a",
  "nextblockhash": "00000000d6ec0d695a006900ba691dbaeb0f0cc31f7531ceea63eb17f6ab0513",
  "strippedsize": 216,
  "size": 216,
  "weight": 864,
  "tx": [
    {
      "txid": "9ce283a8f5c6bf59513fd0bdb794e60ada57951da8759def13d560c8df0d80dd",
      "hash": "9ce283a8f5c6bf59513fd0bdb794e60ada57951da8759def13d560c8df0d80dd",
      "version": 1,
      "size": 135,
      "vsize": 135,
      "weight": 540,
      "locktime": 0,
      "vin": [
        {
          "coinbase": "04ffff001d02d401",
          "sequence": 4294967295
        }
      ],
      "vout": [
        {
          "value": 50.0,
          "n": 0,
          "scriptPubKey": {
            "asm": "047c97f0a7e830d5869bd3d9103cd8530676e31af8c7b9fa18efe670f8ec5813068094a18809e0e74c287cf58f1ef5ae08023635acd80d92e4fe69fd7e2ddd80a3 OP_CHECKSIG",
            "desc": "pk(047c97f0a7e830d5869bd3d9103cd8530676e31af8c7b9fa18efe670f8ec5813068094a18809e0e74c287cf58f1ef5ae08023635acd80d92e4fe69fd7e2ddd80a3)#2wh0pswn",
            "hex": "41047c97f0a7e830d5869bd3d9103cd8530676e31af8c7b9fa18efe670f8ec5813068094a18809e0e74c287cf58f1ef5ae08023635acd80d92e4fe69fd7e2ddd80a3ac",
            "type": "pubkey"
          }
        }
      ],
      "hex": "01000000010000000000000000000000000000000000000000000000000000000000000000ffffffff0804ffff001d02d401ffffffff0100f2052a010000004341047c97f0a7e830d5869bd3d9103cd8530676e31af8c7b9fa18efe670f8ec5813068094a18809e0e74c287cf58f1ef5ae08023635acd80d92e4fe69fd7e2ddd80a3ac00000000"
    }
  ]
}