{
  "hash": "00000000817225a719e142178240823283cb53ca9e5e79d88fd5ee70e64fe406",
  "confirmations": 52226,
  "height": 392,
  "version": 1,
  "versionHex": "00000001",
  "merkleroot": "203c52303fba40a9eec5721b6c87b37639f5505bef1b53e36613d7c3bb4c9674",
  "time": 1231897053,
  "mediantime": 1231892936,
  "nonce": 1735419394,
  "bits": "1d00ffff",
  "difficulty": 1,
  "chainwork": "0000000000000000000000000000000000000000000000000000018901890189",
  "nTx": 1,
  "previousblockhash": "00000000b7b96842342b709b4b41c25140b35bba339cbf4b325b723f2559ba04",
  "nextblockhash": "000000007ed76ca99c1c83cfdca1fb60104b38f848bc5d7762ffa38c60eaa32b",
  "strippedsize": 216,
  "size": 216,
  "weight": 864,
  "tx": [
    {
      "txid": "203c52303fba40a9eec5721b6c87b37639f5505bef1b53e36613d7c3bb4c9674",
      "hash": "203c52303fba40a9eec5721b6c87b37639f5505bef1b53e36613d7c3bb4c9674",
      "version": 1,
      "size": 135,
      "vsize": 135,
      "weight": 540,
      "locktime": 0,
      "vin": [
        {
          "coinbase": "04ffff001d025902",
          "sequence": 4294967295
        }
      ],
      "vout": [
        {
          "value": 50.0,
          "n": 0,
          "scriptPubKey": {
            "asm": "040e762876ae9ab7f19f08e2c025f2e092b171f57f8cdd9336aad80ec371a7d59335dff03638539fe251425a2fb70b788a6f9eac7c84f19312f95e569dba846a92 OP_CHECKSIG",
            "desc": "pk(040e762876ae9ab7f19f08e2c025f2e092b171f57f8cdd9336aad80ec371a7d59335dff03638539fe251425a2fb70b788a6f9eac7c84f19312f95e569dba846a92)#h3p933cp",
            "hex": "41040e762876ae9ab7f19f08e2c025f2e092b171f57f8cdd9336aad80ec371a7d59335dff03638539fe251425a2fb70b788a6f9eac7c84f19312f95e569dba846a92ac",
            "type": "pubkey"
          }
        }
      ],
      "hex": "01000000010000000000000000000000000000000000000000000000000000000000000000ffffffff0804ffff001d025902ffffffff0100f2052a010000004341040e762876ae9ab7f19f08e2c025f2e092b171f57f8cdd9336aad80ec371a7d59335dff03638539fe251425a2fb70b788a6f9eac7c84f19312f95e569dba846a92ac00000000"
    }
  ]
}