{
  "hash": "00000000a30f9861415541ec81f08a7817d1ec670719788049a62532db8d2ac0",
  "confirmations": 44787,
  "height": 8311,
  "version": 1,
  "versionHex": "00000001",
  "merkleroot": "882fbda2be252f615b0e90013eb7aedb0067b36d2b92a3e22e3ce689c120459b",
  "time": 1237737028,
  "mediantime": 1237734285,
  "nonce": 1134168628,
  "bits": "1d00ffff",
  "difficulty": 1,
  "chainwork": "0000000000000000000000000000000000000000000000000000207820782078",
  "nTx": 1,
  "previousblockhash": "0000000087926ee7063cdbcce1d4a428ebac78488db0d4ec9ff0c1905ea8ef8f",
  "nextblockhash": "00000000e04688c27adbe825370d6156d58089c984defa2773a9ee3996906d5a",
  "strippedsize": 216,
  "size": 216,
  "weight": 864,
  "tx": [
    {
      "txid": "882fbda2be252f615b0e90013eb7aedb0067b36d2b92a3e22e3ce689c120459b",
      "hash": "882fbda2be252f615b0e90013eb7aedb0067b36d2b92a3e22e3ce689c120459b",
      "version": 1,
      "size": 135,
      "vsize": 135,
      "weight": 540,
      "locktime": 0,
      "vin": [
        {
          "coinbase": "04ffff001d024804",
          "sequence": 4294967295
        }
      ],
      "vout": [
        {
          "value": 50.0,
          "n": 0,
          "scriptPubKey": {
            "asm": "0477275750c4346b4412ee8f11aef8fcb229ed47bdda0ba519a50a1cbfd1f2231bbf3de39c6e91e492c91db30bab3b017cd572df28691b197cb1bb257185386f9f OP_CHECKSIG",
            "desc": "pk(0477275750c4346b4412ee8f11aef8fcb229ed47bdda0ba519a50a1cbfd1f2231bbf3de39c6e91e492c91db30bab3b017cd572df28691b197cb1bb257185386f9f)#2pg9gfd5",
            "hex": "410477275750c4346b4412ee8f11aef8fcb229ed47bdda0ba519a50a1cbfd1f2231bbf3de39c6e91e492c91db30bab3b017cd572df28691b197cb1bb257185386f9fac",
            "type": "pubkey"
          }
        }
      ],
      "hex": "01000000010000000000000000000000000000000000000000000000000000000000000000ffffffff0804ffff001d024804ffffffff0100f2052a0100000043410477275750c4346b4412ee8f11aef8fcb229ed47bdda0ba519a50a1cbfd1f2231bbf3de39c6e91e492c91db30bab3b017cd572df28691b197cb1bb257185386f9fac00000000"
    }
  ]
}