{
  "hash": "00000000caa0e60be223d5b7cfe335d6742ddb3f4006a2cb5a81d02e2d2884de",
  "confirmations": 44808,
  "height": 8290,
  "version": 1,
  "versionHex": "00000001",
  "merkleroot": "5a663b72689e6e28de1b46a9edf4e370382d3210e4271721dffd602a2aa83eb1",
  "time": 1237724240,
  "mediantime": 1237721908,
  "nonce": 63099688,
  "bits": "1d00ffff",
  "difficulty": 1,
  "chainwork": "0000000000000000000000000000000000000000000000000000206320632063",
  "nTx": 1,
  "previousblockhash": "00000000e9666bdf76e2bbf2e3001ed4bb926cda54aaf2c72af365d21ba90490",
  "nextblockhash": "0000000060b58697f3a10a67d94f7437b734cbc761c80c79516c314ceca2811d",
  "strippedsize": 215,
  "size": 215,
  "weight": 860,
  "tx": [
    {
      "txid": "5a663b72689e6e28de1b46a9edf4e370382d3210e4271721dffd602a2aa83eb1",
      "hash": "5a663b72689e6e28de1b46a9edf4e370382d3210e4271721dffd602a2aa83eb1",
      "version": 1,
      "size": 134,
      "vsize": 134,
      "weight": 536,
      "locktime": 0,
      "vin": [
        {
          "coinbase": "04ffff001d0101",
          "sequence": 4294967295
        }
      ],
      "vout": [
        {
          "value": 50.0,
          "n": 0,
          "scriptPubKey": {
            "asm": "0401c20e6294b1ed20c93debc693ded9120bf0d61b19f5814fcd96185ac1e60ad269842b6f542bf98623a6c32b0ed961cfc2f029fb1be5020214604783bdde7a12 OP_CHECKSIG",
            "desc": "pk(0401c20e6294b1ed20c93debc693ded9120bf0d61b19f5814fcd96185ac1e60ad269842b6f542bf98623a6c32b0ed961cfc2f029fb1be5020214604783bdde7a12)#hmfny8yy",
            "hex": "410401c20e6294b1ed20c93debc693ded9120bf0d61b19f5814fcd96185ac1e60ad269842b6f542bf98623a6c32b0ed961cfc2f029fb1be5020214604783bdde7a12ac",
            "type": "pubkey"
          }
        }
      ],
      "hex": "01000000010000000000000000000000000000000000000000000000000000000000000000ffffffff0704ffff001d0101ffffffff0100f2052a0100000043410401c20e6294b1ed20c93debc693ded9120bf0d61b19f5814fcd96185ac1e60ad269842b6f542bf98623a6c32b0ed961cfc2f029fb1be5020214604783bdde7a12ac00000000"
    }
  ]
}