{
  "hash": "00000000b1cbcc5fe7b5b3e23737d83d8bbda880ab1429d58a78a4579010bb7b",
  "confirmations": 43181,
  "height": 9917,
  "version": 1,
  "versionHex": "00000001",
  "merkleroot": "eae2367389554dfd8e0008eb643b45c1ff5c6bd04afe5a54654628a99c650543",
  "time": 1238932777,
  "mediantime": 1238930202,
  "nonce": 2094141744,
  "bits": "1d00ffff",
  "difficulty": 1,
  "chainwork": "000000000000000000000000000000000000000000000000000026be26be26be",
  "nTx": 1,
  "previousblockhash": "00000000b0718c2433b012e399de10ea7b884b6af5fd7607ee0e854954f69393",
  "nextblockhash": "00000000a25e736d21a06eb69af9aff700a8e7c6bcfcf2a0c07c2f3c1dd7106d",
  "strippedsize": 216,
  "size": 216,
  "weight": 864,
  "tx": [
    {
      "txid": "eae2367389554dfd8e0008eb643b45c1ff5c6bd04afe5a54654628a99c650543",
      "hash": "eae2367389554dfd8e0008eb643b45c1ff5c6bd04afe5a54654628a99c650543",
      "version": 1,
      "size": 135,
      "vsize": 135,
      "weight": 540,
      "locktime": 0,
      "vin": [
        {
          "coinbase": "04ffff001d024b02",
          "sequence": 4294967295
        }
      ],
      "vout": [
        {
          "value": 50.0,
          "n": 0,
          "scriptPubKey": {
            "asm": "049d206dc0ebabc061d027e1efa6ad6729eeb307fa4837f91edd798aeff5e9418d6feba59e514bf54dddb4953048bb1b5ed0c7003c48d4f6b8f6403dab76aad6ad OP_CHECKSIG",
            "desc": "pk(049d206dc0ebabc061d027e1efa6ad6729eeb307fa4837f91edd798aeff5e9418d6feba59e514bf54dddb4953048bb1b5ed0c7003c48d4f6b8f6403dab76aad6ad)#nd562fnj",
            "hex": "41049d206dc0ebabc061d027e1efa6ad6729eeb307fa4837f91edd798aeff5e9418d6feba59e514bf54dddb4953048bb1b5ed0c7003c48d4f6b8f6403dab76aad6adac",
            "type": "pubkey"
          }
        }
      ],
      "hex": "01000000010000000000000000000000000000000000000000000000000000000000000000ffffffff0804ffff001d024b02ffffffff0100f2052a010000004341049d206dc0ebabc061d027e1efa6ad6729eeb307fa4837f91edd798aeff5e9418d6feba59e514bf54dddb4953048bb1b5ed0c7003c48d4f6b8f6403dab76aad6adac00000000"
    }
  ]
}