{
  "hash": "0000000035c87619e4408443c2791f30d3d27c7252739b3af85e910ab2c50306",
  "confirmations": 51588,
  "height": 1510,
  "version": 1,
  "versionHex": "00000001",
  "merkleroot": "ce4ea4732513089c9c9286ca79d5bb60334543df11a70f1187ec57c336053d06",
  "time": 1232772755,
  "mediantime": 1232770666,
  "nonce": 3388289841,
  "bits": "1d00ffff",
  "difficulty": 1,
  "chainwork": "000000000000000000000000000000000000000000000000000005e705e705e7",
  "nTx": 1,
  "previousblockhash": "000000007cf65564396af4a75ba96d5a07123d9f430faaf49758abc4e50cf2ea",
  "nextblockhash": "00000000a4a82c938d12c1a4fa65d98e40183ad33805c40b3654775082f19273",
  "strippedsize": 216,
  "size": 216,
  "weight": 864,
  "tx": [
    {
      "txid": "ce4ea4732513089c9c9286ca79d5bb60334543df11a70f1187ec57c336053d06",
      "hash": "ce4ea4732513089c9c9286ca79d5bb60334543df11a70f1187ec57c336053d06",
      "version": 1,
      "size": 135,
      "vsize": 135,
      "weight": 540,
      "locktime": 0,
      "vin": [
        {
          "coinbase": "04ffff001d023a01",
          "sequence": 4294967295
        }
      ],
      "vout": [
        {
          "value": 50.0,
          "n": 0,
          "scriptPubKey": {
            "asm": "048e453c9ec2d300ec4c1aaef93a85987cf1a61044218d30c4157c454032d17d1720bb017662d754697b0b273affe7334b06614e4611f838ddf169575f898349da OP_CHECKSIG",
            "desc": "pk(048e453c9ec2d300ec4c1aaef93a85987cf1a61044218d30c4157c454032d17d1720bb017662d754697b0b273affe7334b06614e4611f838ddf169575f898349da)#e8t8spxp",
            "hex": "41048e453c9ec2d300ec4c1aaef93a85987cf1a61044218d30c4157c454032d17d1720bb017662d754697b0b273affe7334b06614e4611f838ddf169575f898349daac",
            "type": "pubkey"
          }
        }
      ],
      "hex": "01000000010000000000000000000000000000000000000000000000000000000000000000ffffffff0804ffff001d023a01ffffffff0100f2052a010000004341048e453c9ec2d300ec4c1aaef93a85987cf1a61044218d30c4157c454032d17d1720bb017662d754697b0b273affe7334b06614e4611f838ddf169575f898349daac00000000"
    }
  ]
}