{
  "hash": "0000000062f1563ca6cbd2ba1863adb9d249a9d0415e2e12eae2d55557d6577b",
  "confirmations": 44923,
  "height": 8175,
  "version": 1,
  "versionHex": "00000001",
  "merkleroot": "48351070d8530e6912cf7baf33bb8accf8fb844f9f7809f8c85e0937e9fd7244",
  "time": 1237588855,
  "mediantime": 1237586514,
  "nonce": 4132958509,
  "bits": "1d00ffff",
  "difficulty": 1,
  "chainwork": "00000000000000000000000000000000000000000000000000001ff01ff01ff0",
  "nTx": 1,
  "previousblockhash": "00000000abd582d872b2c2e2df95fd35ee849f06e74fe5a7cc715f9a59c68fe3",
  "nextblockhash": "000000001a8af3dbb163d2033002258dc649d8060967835e9b558282f37a4f12",
  "strippedsize": 216,
  "size": 216,
  "weight": 864,
  "tx": [
    {
      "txid": "48351070d8530e6912cf7baf33bb8accf8fb844f9f7809f8c85e0937e9fd7244",
      "hash": "48351070d8530e6912cf7baf33bb8accf8fb844f9f7809f8c85e0937e9fd7244",
      "version": 1,
      "size": 135,
      "vsize": 135,
      "weight": 540,
      "locktime": 0,
      "vin": [
        {
          "coinbase": "04ffff001d027e02",
          "sequence": 4294967295
        }
      ],
      "vout": [
        {
          "value": 50.0,
          "n": 0,
          "scriptPubKey": {
            "asm": "04e0c26ce4ead6552351cc12e2dd114392dcf6fda602d7f71b25f19d9d7dfcf2444216ff7118dc2daf2ddedaaeefc3436c56c2c9b9441fab8f908480596b8cf821 OP_CHECKSIG",
            "desc": "pk(04e0c26ce4ead6552351cc12e2dd114392dcf6fda602d7f71b25f19d9d7dfcf2444216ff7118dc2daf2ddedaaeefc3436c56c2c9b9441fab8f908480596b8cf821)#62ltrese",
            "hex": "4104e0c26ce4ead6552351cc12e2dd114392dcf6fda602d7f71b25f19d9d7dfcf2444216ff7118dc2daf2ddedaaeefc3436c56c2c9b9441fab8f908480596b8cf821ac",
            "type": "pubkey"
          }
        }
      ],
      "hex": "01000000010000000000000000000000000000000000000000000000000000000000000000ffffffff0804ffff001d027e02ffffffff0100f2052a01000000434104e0c26ce4ead6552351cc12e2dd114392dcf6fda602d7f71b25f19d9d7dfcf2444216ff7118dc2daf2ddedaaeefc3436c56c2c9b9441fab8f908480596b8cf821ac00000000"
    }
  ]
}