{
  "hash": "00000000411e3b9b2066078b10548f1872b4c646a10cb39bb47395d3bf1d79c3",
  "confirmations": 50884,
  "height": 2214,
  "version": 1,
  "versionHex": "00000001",
  "merkleroot": "5f800cd360096585a4559c7cca6ceb59f0f64158ced77bf61ec4eea19cb65333",
  "time": 1233223458,
  "mediantime": 1233222060,
  "nonce": 70959312,
  "bits": "1d00ffff",
  "difficulty": 1,
  "chainwork": "000000000000000000000000000000000000000000000000000008a708a708a7",
  "nTx": 1,
  "previousblockhash": "000000009cdf8746d02ef9c07ef02447edbdbf22218ed318ad6bcba33f572996",
  "nextblockhash": "0000000092e1853b69493c46b1b5e4e02bd383bbc1152b1519f76f857afdb719",
  "strippedsize": 215,
  "size": 215,
  "weight": 860,
  "tx": [
    {
      "txid": "5f800cd360096585a4559c7cca6ceb59f0f64158ced77bf61ec4eea19cb65333",
      "hash": "5f800cd360096585a4559c7cca6ceb59f0f64158ced77bf61ec4eea19cb65333",
      "version": 1,
      "size": 134,
      "vsize": 134,
      "weight": 536,
      "locktime": 0,
      "vin": [
        {
          "coinbase": "04ffff001d0169",
          "sequence": 4294967295
        }
      ],
      "vout": [
        {
          "value": 50.0,
          "n": 0,
          "scriptPubKey": {
            "asm": "04af2c759b2894ff6ea538fb54d123e6d095fe39e7341ebcb2a52066a2d1c9da2fa7984d36ea682495ac9977cf62a338b2bbd4a7eb3da53c635ce80d17c2da2d4a OP_CHECKSIG",
            "desc": "pk(04af2c759b2894ff6ea538fb54d123e6d095fe39e7341ebcb2a52066a2d1c9da2fa7984d36ea682495ac9977cf62a338b2bbd4a7eb3da53c635ce80d17c2da2d4a)#yxvyqppa",
            "hex": "4104af2c759b2894ff6ea538fb54d123e6d095fe39e7341ebcb2a52066a2d1c9da2fa7984d36ea682495ac9977cf62a338b2bbd4a7eb3da53c635ce80d17c2da2d4aac",
            "type": "pubkey"
          }
        }
      ],
      "hex": "01000000010000000000000000000000000000000000000000000000000000000000000000ffffffff0704ffff001d0169ffffffff0100f2052a01000000434104af2c759b2894ff6ea538fb54d123e6d095fe39e7341ebcb2a52066a2d1c9da2fa7984d36ea682495ac9977cf62a338b2bbd4a7eb3da53c635ce80d17c2da2d4aac00000000"
    }
  ]
}