{
  "hash": "0000000041439bba955e25091f8375196c5a1a6d889e4a872d1fd5401132133d",
  "confirmations": 50332,
  "height": 2766,
  "version": 1,
  "versionHex": "00000001",
  "merkleroot": "af3337286ef19a8b9303eb781b40234a104f0bd3e83f566d2ab3a23f2ba155bf",
  "time": 1233606941,
  "mediantime": 1233603093,
  "nonce": 1275868200,
  "bits": "1d00ffff",
  "difficulty": 1,
  "chainwork": "00000000000000000000000000000000000000000000000000000acf0acf0acf",
  "nTx": 1,
  "previousblockhash": "0000000071387bb155f1fba14338ad98fa1a78844a54f80495243096fb6194bd",
  "nextblockhash": "000000000687047fa5cd8e392c298a76a3cce44994da426a26352045da0eebc9",
  "strippedsize": 216,
  "size": 216,
  "weight": 864,
  "tx": [
    {
      "txid": "af3337286ef19a8b9303eb781b40234a104f0bd3e83f566d2ab3a23f2ba155bf",
      "hash": "af3337286ef19a8b9303eb781b40234a104f0bd3e83f566d2ab3a23f2ba155bf",
      "version": 1,
      "size": 135,
      "vsize": 135,
      "weight": 540,
      "locktime": 0,
      "vin": [
        {
          "coinbase": "04ffff001d02c105",
          "sequence": 4294967295
        }
      ],
      "vout": [
        {
          "value": 50.0,
          "n": 0,
          "scriptPubKey": {
            "asm": "04471421bb22b97d522932865b0dc3cca140318a308e41c379617fe7440770804fddab1d48cda6dcb2fd4a3dd6ef694ab2205b17c1c12eecb4351497aee1cf6292 OP_CHECKSIG",
            "desc": "pk(04471421bb22b97d522932865b0dc3cca140318a308e41c379617fe7440770804fddab1d48cda6dcb2fd4a3dd6ef694ab2205b17c1c12eecb4351497aee1cf6292)#2xzp6cjt",
            "hex": "4104471421bb22b97d522932865b0dc3cca140318a308e41c379617fe7440770804fddab1d48cda6dcb2fd4a3dd6ef694ab2205b17c1c12eecb4351497aee1cf6292ac",
            "type": "pubkey"
          }
        }
      ],
      "hex": "01000000010000000000000000000000000000000000000000000000000000000000000000ffffffff0804ffff001d02c105ffffffff0100f2052a01000000434104471421bb22b97d522932865b0dc3cca140318a308e41c379617fe7440770804fddab1d48cda6dcb2fd4a3dd6ef694ab2205b17c1c12eecb4351497aee1cf6292ac00000000"
    }
  ]
}