{
  "hash": "00000000465c6c8e879ee54716572d4fd7e02edf6a973f417b6dc983840ebe49",
  "confirmations": 49860,
  "height": 3238,
  "version": 1,
  "versionHex": "00000001",
  "merkleroot": "ed64a120e0443b0b781bdfd9d0a172efdc8dc33bc6943c5585dac8cce321e2f4",
  "time": 1233928115,
  "mediantime": 1233923070,
  "nonce": 1849972993,
  "bits": "1d00ffff",
  "difficulty": 1,
  "chainwork": "00000000000000000000000000000000000000000000000000000ca70ca70ca7",
  "nTx": 1,
  "previousblockhash": "000000000964c78e630f65cdfa02da19fbe958cdaef7a53f9c9e427f42bda5e1",
  "nextblockhash": "0000000010b867ee0b793b0a469d014bb487e30b11b39a80f6d1235f3af69a94",
  "strippedsize": 216,
  "size": 216,
  "weight": 864,
  "tx": [
    {
      "txid": "ed64a120e0443b0b781bdfd9d0a172efdc8dc33bc6943c5585dac8cce321e2f4",
      "hash": "ed64a120e0443b0b781bdfd9d0a172efdc8dc33bc6943c5585dac8cce321e2f4",
      "version": 1,
      "size": 135,
      "vsize": 135,
      "weight": 540,
      "locktime": 0,
      "vin": [
        {
          "coinbase": "04ffff001d024603",
          "sequence": 4294967295
        }
      ],
      "vout": [
        {
          "value": 50.0,
          "n": 0,
          "scriptPubKey": {
            "asm": "04a032c0a1352c160c4e5b2cd75b7ad9c963f65dc6ba3116f629b64bd1d45ffa5c56773705c8607f3b00683c01152ab14eda3538c4b506d92cf779df29f43f67a1 OP_CHECKSIG",
            "desc": "pk(04a032c0a1352c160c4e5b2cd75b7ad9c963f65dc6ba3116f629b64bd1d45ffa5c56773705c8607f3b00683c01152ab14eda3538c4b506d92cf779df29f43f67a1)#l7q4atcg",
            "hex": "4104a032c0a1352c160c4e5b2cd75b7ad9c963f65dc6ba3116f629b64bd1d45ffa5c56773705c8607f3b00683c01152ab14eda3538c4b506d92cf779df29f43f67a1ac",
            "type": "pubkey"
          }
        }
      ],
      "hex": "01000000010000000000000000000000000000000000000000000000000000000000000000ffffffff0804ffff001d024603ffffffff0100f2052a01000000434104a032c0a1352c160c4e5b2cd75b7ad9c963f65dc6ba3116f629b64bd1d45ffa5c56773705c8607f3b00683c01152ab14eda3538c4b506d92cf779df29f43f67a1ac00000000"
    }
  ]
}