{
  "hash": "0000000005265ff2fbcf60436eb307234bf5ba5b3658198bebc2470703ee7e01",
  "confirmations": 47700,
  "height": 5398,
  "version": 1,
  "versionHex": "00000001",
  "merkleroot": "49896aef824d1deebed49e409aae0aadfe831d500c9364ae1e610948f3169213",
  "time": 1235439394,
  "mediantime": 1235435963,
  "nonce": 1094828590,
  "bits": "1d00ffff",
  "difficulty": 1,
  "chainwork": "0000000000000000000000000000000000000000000000000000151715171517",
  "nTx": 1,
  "previousblockhash": "0000000082c123deb4ddb3b5cf8bb3692567ba65b3a165a93376424b90247a99",
  "nextblockhash": "00000000df64862b7d3eaad2e4edc0f206b655fd409b69714361d11cb61740fc",
  "strippedsize": 216,
  "size": 216,
  "weight": 864,
  "tx": [
    {
      "txid": "49896aef824d1deebed49e409aae0aadfe831d500c9364ae1e610948f3169213",
      "hash": "49896aef824d1deebed49e409aae0aadfe831d500c9364ae1e610948f3169213",
      "version": 1,
      "size": 135,
      "vsize": 135,
      "weight": 540,
      "locktime": 0,
      "vin": [
        {
          "coinbase": "04ffff001d02a203",
          "sequence": 4294967295
        }
      ],
      "vout": [
        {
          "value": 50.0,
          "n": 0,
          "scriptPubKey": {
            "asm": "04e1561d93a28d33526f503740754385745efa7badf922594a90d0dab55d6941f3aa91abf23421c52fc34c695a23601d31d524f87a5bf7dda5d31d2b8f8a538df1 OP_CHECKSIG",
            "desc": "pk(04e1561d93a28d33526f503740754385745efa7badf922594a90d0dab55d6941f3aa91abf23421c52fc34c695a23601d31d524f87a5bf7dda5d31d2b8f8a538df1)#m2qz3yk3",
            "hex": "4104e1561d93a28d33526f503740754385745efa7badf922594a90d0dab55d6941f3aa91abf23421c52fc34c695a23601d31d524f87a5bf7dda5d31d2b8f8a538df1ac",
            "type": "pubkey"
          }
        }
      ],
      "hex": "01000000010000000000000000000000000000000000000000000000000000000000000000ffffffff0804ffff001d02a203ffffffff0100f2052a01000000434104e1561d93a28d33526f503740754385745efa7badf922594a90d0dab55d6941f3aa91abf23421c52fc34c695a23601d31d524f87a5bf7dda5d31d2b8f8a538df1ac00000000"
    }
  ]
}