{
  "hash": "0000000059bb38d53b446f247ccf6c5bf6c1c296890f1f09924ce77ff7720a99",
  "confirmations": 45100,
  "height": 7998,
  "version": 1,
  "versionHex": "00000001",
  "merkleroot": "1489006b448415459763b753eb9ed8c710915ff3306a00e76e45d0ec59b3d084",
  "time": 1237461111,
  "mediantime": 1237458590,
  "nonce": 1170389513,
  "bits": "1d00ffff",
  "difficulty": 1,
  "chainwork": "00000000000000000000000000000000000000000000000000001f3f1f3f1f3f",
  "nTx": 1,
  "previousblockhash": "00000000e5179e553f69a7a8eb44fb186518d98ea6e14dc7f5797087f3f60a92",
  "nextblockhash": "000000003b053a5319c57ebd885c50bdfb18b196aca551c85f938aba56b37931",
  "strippedsize": 216,
  "size": 216,
  "weight": 864,
  "tx": [
    {
      "txid": "1489006b448415459763b753eb9ed8c710915ff3306a00e76e45d0ec59b3d084",
      "hash": "1489006b448415459763b753eb9ed8c710915ff3306a00e76e45d0ec59b3d084",
      "version": 1,
      "size": 135,
      "vsize": 135,
      "weight": 540,
      "locktime": 0,
      "vin": [
        {
          "coinbase": "04ffff001d026709",
          "sequence": 4294967295
        }
      ],
      "vout": [
        {
          "value": 50.0,
          "n": 0,
          "scriptPubKey": {
            "asm": "04b0bae5eb9f3a1055d5e32d12dbc95410284e73aeea836d374d45ab4ceb8f2df264932b16ba853bf1d0299fde25422cebdbc18363e26e3b165c71233d1834354c OP_CHECKSIG",
            "desc": "pk(04b0bae5eb9f3a1055d5e32d12dbc95410284e73aeea836d374d45ab4ceb8f2df264932b16ba853bf1d0299fde25422cebdbc18363e26e3b165c71233d1834354c)#nanax3kn",
            "hex": "4104b0bae5eb9f3a1055d5e32d12dbc95410284e73aeea836d374d45ab4ceb8f2df264932b16ba853bf1d0299fde25422cebdbc18363e26e3b165c71233d1834354cac",
            "type": "pubkey"
          }
        }
      ],
      "hex": "01000000010000000000000000000000000000000000000000000000000000000000000000ffffffff0804ffff001d026709ffffffff0100f2052a01000000434104b0bae5eb9f3a1055d5e32d12dbc95410284e73aeea836d374d45ab4ceb8f2df264932b16ba853bf1d0299fde25422cebdbc18363e26e3b165c71233d1834354cac00000000"
    }
  ]
}