{
  "hash": "000000004d18f3fee1ce2d7b407748e2f14e330b4c7b1767763743676e1c9cf4",
  "confirmations": 47414,
  "height": 5684,
  "version": 1,
  "versionHex": "00000001",
  "merkleroot": "2a8a567640fa003eeaa75a57840aa3e19a0e0c08c748e25f09849a02b1100157",
  "time": 1235676289,
  "mediantime": 1235673470,
  "nonce": 1346083881,
  "bits": "1d00ffff",
  "difficulty": 1,
  "chainwork": "0000000000000000000000000000000000000000000000000000163516351635",
  "nTx": 1,
  "previousblockhash": "0000000061e609fc1590a6b5fcfdddb58a03c7e8240b4275f0ad49d618e26d2a",
  "nextblockhash": "000000009feebe5cf4b3f28644cfcac8afc24e73548e0a9c54fd99d490f27315",
  "strippedsize": 216,
  "size": 216,
  "weight": 864,
  "tx": [
    {
      "txid": "2a8a567640fa003eeaa75a57840aa3e19a0e0c08c748e25f09849a02b1100157",
      "hash": "2a8a567640fa003eeaa75a57840aa3e19a0e0c08c748e25f09849a02b1100157",
      "version": 1,
      "size": 135,
      "vsize": 135,
      "weight": 540,
      "locktime": 0,
      "vin": [
        {
          "coinbase": "04ffff001d022609",
          "sequence": 4294967295
        }
      ],
      "vout": [
        {
          "value": 50.0,
          "n": 0,
          "scriptPubKey": {
            "asm": "0482bf7c03c84471638585a5923ced8ef58693c85bffea012b7614c5befd7e035c29e1a99a56162595973f55a83c8624bf0c34e45eca4bda47b91bf20432d46f4d OP_CHECKSIG",
            "desc": "pk(0482bf7c03c84471638585a5923ced8ef58693c85bffea012b7614c5befd7e035c29e1a99a56162595973f55a83c8624bf0c34e45eca4bda47b91bf20432d46f4d)#wqugzmmg",
            "hex": "410482bf7c03c84471638585a5923ced8ef58693c85bffea012b7614c5befd7e035c29e1a99a56162595973f55a83c8624bf0c34e45eca4bda47b91bf20432d46f4dac",
            "type": "pubkey"
          }
        }
      ],
      "hex": "01000000010000000000000000000000000000000000000000000000000000000000000000ffffffff0804ffff001d022609ffffffff0100f2052a0100000043410482bf7c03c84471638585a5923ced8ef58693c85bffea012b7614c5befd7e035c29e1a99a56162595973f55a83c8624bf0c34e45eca4bda47b91bf20432d46f4dac00000000"
    }
  ]
}