{
  "hash": "000000005e485b5fea16528bb3cf8342a4d852e68a42f7b4961423c33ea9fcac",
  "confirmations": 44956,
  "height": 8142,
  "version": 1,
  "versionHex": "00000001",
  "merkleroot": "55043f4dd11efe52c7c8f40c945fa580d989ab568b44e76e93621328ffd6155b",
  "time": 1237566564,
  "mediantime": 1237561411,
  "nonce": 3431191864,
  "bits": "1d00ffff",
  "difficulty": 1,
  "chainwork": "00000000000000000000000000000000000000000000000000001fcf1fcf1fcf",
  "nTx": 1,
  "previousblockhash": "000000000cef43aa6525a1e57e18477950fa20bc2242e30ea4fe4d8a3da2d483",
  "nextblockhash": "00000000132da142072451b1783329c84cd4a699b6595c58acc517e4ffc3987c",
  "strippedsize": 216,
  "size": 216,
  "weight": 864,
  "tx": [
    {
      "txid": "55043f4dd11efe52c7c8f40c945fa580d989ab568b44e76e93621328ffd6155b",
      "hash": "55043f4dd11efe52c7c8f40c945fa580d989ab568b44e76e93621328ffd6155b",
      "version": 1,
      "size": 135,
      "vsize": 135,
      "weight": 540,
      "locktime": 0,
      "vin": [
        {
          "coinbase": "04ffff001d02d601",
          "sequence": 4294967295
        }
      ],
      "vout": [
        {
          "value": 50.0,
          "n": 0,
          "scriptPubKey": {
            "asm": "042bd5dd472a24bdb10293046eba75a093ade4464e17aba78b73f4a9e960f3ef537cea7591ef68b4d1d0639b9bc7bfb4b8c4d872575b4f290f075b88933ce3ff10 OP_CHECKSIG",
            "desc": "pk(042bd5dd472a24bdb10293046eba75a093ade4464e17aba78b73f4a9e960f3ef537cea7591ef68b4d1d0639b9bc7bfb4b8c4d872575b4f290f075b88933ce3ff10)#arcd7t5w",
            "hex": "41042bd5dd472a24bdb10293046eba75a093ade4464e17aba78b73f4a9e960f3ef537cea7591ef68b4d1d0639b9bc7bfb4b8c4d872575b4f290f075b88933ce3ff10ac",
            "type": "pubkey"
          }
        }
      ],
      "hex": "01000000010000000000000000000000000000000000000000000000000000000000000000ffffffff0804ffff001d02d601ffffffff0100f2052a010000004341042bd5dd472a24bdb10293046eba75a093ade4464e17aba78b73f4a9e960f3ef537cea7591ef68b4d1d0639b9bc7bfb4b8c4d872575b4f290f075b88933ce3ff10ac00000000"
    }
  ]
}