{
  "hash": "00000000f0816fe38cd51c7f9a5602b60233ac311fd8351b8353f35981133501",
  "confirmations": 51914,
  "height": 1184,
  "version": 1,
  "versionHex": "00000001",
  "merkleroot": "fdeab09f534cd5c95d66b590957225e667497374cd4146aa5ae92358f02c4cf6",
  "time": 1232488392,
  "mediantime": 1232484296,
  "nonce": 1486360581,
  "bits": "1d00ffff",
  "difficulty": 1,
  "chainwork": "000000000000000000000000000000000000000000000000000004a104a104a1",
  "nTx": 2,
  "previousblockhash": "00000000bd5a635c4733f07f1635e51be0fc122de3cf0edd42679be0da78ccab",
  "nextblockhash": "00000000d6da0422931a51d5fb47379f6330d9e608b1c340942d404bcd56cfc8",
  "strippedsize": 1213,
  "size": 1213,
  "weight": 4852,
  "tx": [
    {
      "txid": "dbc95f42fc1dc7334735e11fe3780377aeaaf5d3d11c17d19b3c415990f6a8ca",
      "hash": "dbc95f42fc1dc7334735e11fe3780377aeaaf5d3d11c17d19b3c415990f6a8ca",
      "version": 1,
      "size": 135,
      "vsize": 135,
      "weight": 540,
      "locktime": 0,
      "vin": [
        {
          "coinbase": "04ffff001d025d08",
          "sequence": 4294967295
        }
      ],
      "vout": [
        {
          "value": 50.0,
          "n": 0,
          "scriptPubKey": {
            "asm": "0487f181159a7f9e1f778d54649079e1f90096dbae771025045a1505e534e5140b55e086faf9f2b11d414411ffde7d01311c8bf39fa1b7bef872073c55c46cbadb OP_CHECKSIG",
            "desc": "pk(0487f181159a7f9e1f778d54649079e1f90096dbae771025045a1505e534e5140b55e086faf9f2b11d414411ffde7d01311c8bf39fa1b7bef872073c55c46cbadb)#ry48rre5",
            "hex": "410487f181159a7f9e1f778d54649079e1f90096dbae771025045a1505e534e5140b55e086faf9f2b11d414411ffde7d01311c8bf39fa1b7bef872073c55c46cbadbac",
            "type": "pubkey"
          }
        }
      ],
      "hex": "01000000010000000000000000000000000000000000000000000000000000000000000000ffffffff0804ffff001d025d08ffffffff0100f2052a0100000043410487f181159a7f9e1f778d54649079e1f90096dbae771025045a1505e534e5140b55e086faf9f2b11d414411ffde7d01311c8bf39fa1b7bef872073c55c46cbadbac00000000"
    },
    {
      "txid": "c445fc181b4570fa107006f31c68132df2df84160f6dc783a21e10f4497e3589",
      "hash": "c445fc181b4570fa107006f31c68132df2df84160f6dc783a21e10f4497e3589",
      "version": 1,
      "size": 997,
      "vsize": 997,
      "weight": 3988,
      "locktime": 0,
      "vin": [
        {
          "txid": "4a531c0c49f0e44dac7a13dbbe532219f678cc40bce5c1ce8c039322c98fdd18",
          "vout": 0,
          "scriptSig": {
            "asm": "3044022013c666135f5da4a55cd38d7352c9e6664d2cb16c16738dee22f8bdcb126aadba02207f43d3e86621d8ed20d74bed867822b0cc410b4a2bdfa5904c6fe6545a016683[ALL]",
            "hex": "473044022013c666135f5da4a55cd38d7352c9e6664d2cb16c16738dee22f8bdcb126aadba02207f43d3e86621d8ed20d74bed867822b0cc410b4a2bdfa5904c6fe6545a01668301"
          },
          "sequence": 4294967295
        },
        {
          "txid": "a94ce7bdfc2204c25fbeae8a66a82d6cf5a276f295c9995820f4621c8587022e",
          "vout": 0,
          "scriptSig": {
            "asm": "3046022100c0afee1f91f286ae921ea3b102a5691449a5d911f7a9a86437af56b63d4611dc02210088df25568767fbf67ba35ececd530d9813f9b975aff1b726b6f02c4b0ec08be3[ALL]",
            "hex": "493046022100c0afee1f91f286ae921ea3b102a5691449a5d911f7a9a86437af56b63d4611dc02210088df25568767fbf67ba35ececd530d9813f9b975aff1b726b6f02c4b0ec08be301"
          },
          "sequence": 4294967295
        },
        {
          "txid": "af67d4f0e784ad7d7c21cdbe2d501633f97a29b85be75f9a8fdd771cd14f1e53",
          "vout": 0,
          "scriptSig": {
            "asm": "3045022100aeb28ed90f8f5f3349005a5512642cfead97d345251727a16ae5af45d9981a2902202027daa716740d12d5cd938dd6c4f2e9df70dec88f01b4b1ad2371258dfb2677[ALL]",
            "hex": "483045022100aeb28ed90f8f5f3349005a5512642cfead97d345251727a16ae5af45d9981a2902202027daa716740d12d5cd938dd6c4f2e9df70dec88f01b4b1ad2371258dfb267701"
          },
          "sequence": 4294967295
        },
        {
          "txid": "b550304180c25457c810707c5fac13398a8c3abf56871e4cc4e4804336768b5b",
          "vout": 0,
          "scriptSig": {
            "asm": "304402205fcde524cf2d7bb0011236b3812cb3cd361d1889b22d6bad73f5b5ad26da5a3202200606e8ed41379f2713409b7210c6e9da88ec760c3509f481893a551bafac3d0c[ALL]",
            "hex": "47304402205fcde524cf2d7bb0011236b3812cb3cd361d1889b22d6bad73f5b5ad26da5a3202200606e8ed41379f2713409b7210c6e9da88ec760c3509f481893a551bafac3d0c01"
          },
          "sequence": 4294967295
        },
        {
          "txid": "c5a52ff7d65f2561d4984775265cb109285be6070b3fde31c846c44d8f0c1b66",
          "vout": 0,
          "scriptSig": {
            "asm": "304502205be59cd4abd3d97574966f451ffc807f9310889a086b0ebc45ef58fbda63a30d022100c416812158296f999579fe4aed6824bf46a20786b96a4327388211e9e5360773[ALL]",
            "hex": "48304502205be59cd4abd3d97574966f451ffc807f9310889a086b0ebc45ef58fbda63a30d022100c416812158296f999579fe4aed6824bf46a20786b96a4327388211e9e536077301"
          },
          "sequence": 4294967295
        },
        {
          "txid": "c03d073cd1e05cba67973d9e959245e2e4a4306263e6a3334928868ce3ed55d1",
          "vout": 0,
          "scriptSig": {
            "asm": "304402201bab9c5067802b35e5b9a4d6d1295c4083ec4cf4bbfbf8160e3349fe76aedf1602207ad037ba6a5a5e12d49dbbec015320a47ab5a220a9f28e0e7d8ca0ede8e4e8ed[ALL]",
            "hex": "47304402201bab9c5067802b35e5b9a4d6d1295c4083ec4cf4bbfbf8160e3349fe76aedf1602207ad037ba6a5a5e12d49dbbec015320a47ab5a220a9f28e0e7d8ca0ede8e4e8ed01"
          },
          "sequence": 4294967295
        },
        {
          "txid": "265fdbe80440aee7691890db8e5c9479109b2973a3c44bf1e2af9295c2695ef2",
          "vout": 0,
          "scriptSig": {
            "asm": "3045022068f1a311655950e291cfada7bb3c55bb16f673a5e354ed3a0fd96448f9141b28022100e8075060eefd673ce6fc824f9afc6faaa9169b5c2b6e54df3fa6802ae94d3e67[ALL]",
            "hex": "483045022068f1a311655950e291cfada7bb3c55bb16f673a5e354ed3a0fd96448f9141b28022100e8075060eefd673ce6fc824f9afc6faaa9169b5c2b6e54df3fa6802ae94d3e6701"
          },
          "sequence": 4294967295
        },
        {
          "txid": "7d2edf266b896bf7460daeb8b84653c43c9b8f5b6b0b453dd8808d53c19818ff",
          "vout": 0,
          "scriptSig": {
            "asm": "3046022100fd887e37eee5b10b809281f3b6fdcda022ae4e8eceed10d9fde0b2c3ee27bb9b022100ca9fa47465329316369c9ce363e5dadfb3eae49e03c106cfd261ba8610951475[ALL]",
            "hex": "493046022100fd887e37eee5b10b809281f3b6fdcda022ae4e8eceed10d9fde0b2c3ee27bb9b022100ca9fa47465329316369c9ce363e5dadfb3eae49e03c106cfd261ba861095147501"
          },
          "sequence": 4294967295
        }
      ],
      "vout": [
        {
          "value": 400.0,
          "n": 0,
          "scriptPubKey": {
            "asm": "04275a742d3ba1587ec4a491e7278a87d58aa98f847b154fbdf3d8b014c2449e5896c5266ea3bf293b17aad0d4b68a6c7503e37bd096ac8be889d30620032134a3 OP_CHECKSIG",
            "desc": "pk(04275a742d3ba1587ec4a491e7278a87d58aa98f847b154fbdf3d8b014c2449e5896c5266ea3bf293b17aad0d4b68a6c7503e37bd096ac8be889d30620032134a3)#pk2zqqfr",
            "hex": "4104275a742d3ba1587ec4a491e7278a87d58aa98f847b154fbdf3d8b014c2449e5896c5266ea3bf293b17aad0d4b68a6c7503e37bd096ac8be889d30620032134a3ac",
            "type": "pubkey"
          }
        }
      ],
      "fee": 0.0,
      "hex": "010000000818dd8fc92293038ccec1e5bc40cc78f6192253bedb137aac4de4f0490c1c534a0000000048473044022013c666135f5da4a55cd38d7352c9e6664d2cb16c16738dee22f8bdcb126aadba02207f43d3e86621d8ed20d74bed867822b0cc410b4a2bdfa5904c6fe6545a01668301ffffffff2e0287851c62f4205899c995f276a2f56c2da8668aaebe5fc20422fcbde74ca9000000004a493046022100c0afee1f91f286ae921ea3b102a5691449a5d911f7a9a86437af56b63d4611dc02210088df25568767fbf67ba35ececd530d9813f9b975aff1b726b6f02c4b0ec08be301ffffffff531e4fd11c77dd8f9a5fe75bb8297af93316502dbecd217c7dad84e7f0d467af0000000049483045022100aeb28ed90f8f5f3349005a5512642cfead97d345251727a16ae5af45d9981a2902202027daa716740d12d5cd938dd6c4f2e9df70dec88f01b4b1ad2371258dfb267701ffffffff5b8b76364380e4c44c1e8756bf3a8c8a3913ac5f7c7010c85754c280413050b5000000004847304402205fcde524cf2d7bb0011236b3812cb3cd361d1889b22d6bad73f5b5ad26da5a3202200606e8ed41379f2713409b7210c6e9da88ec760c3509f481893a551bafac3d0c01ffffffff661b0c8f4dc446c831de3f0b07e65b2809b15c26754798d461255fd6f72fa5c5000000004948304502205be59cd4abd3d97574966f451ffc807f9310889a086b0ebc45ef58fbda63a30d022100c416812158296f999579fe4aed6824bf46a20786b96a4327388211e9e536077301ffffffffd155ede38c86284933a3e6636230a4e4e24592959e3d9767ba5ce0d13c073dc0000000004847304402201bab9c5067802b35e5b9a4d6d1295c4083ec4cf4bbfbf8160e3349fe76aedf1602207ad037ba6a5a5e12d49dbbec015320a47ab5a220a9f28e0e7d8ca0ede8e4e8ed01fffffffff25e69c29592afe2f14bc4a373299b1079945c8edb901869e7ae4004e8db5f260000000049483045022068f1a311655950e291cfada7bb3c55bb16f673a5e354ed3a0fd96448f9141b28022100e8075060eefd673ce6fc824f9afc6faaa9169b5c2b6e54df3fa6802ae94d3e6701ffffffffff1898c1538d80d83d450b6b5b8f9b3cc45346b8b8ae0d46f76b896b26df2e7d000000004a493046022100fd887e37eee5b10b809281f3b6fdcda022ae4e8eceed10d9fde0b2c3ee27bb9b022100ca9fa47465329316369c9ce363e5dadfb3eae49e03c106cfd261ba861095147501ffffffff0100902f5009000000434104275a742d3ba1587ec4a491e7278a87d58aa98f847b154fbdf3d8b014c2449e5896c5266ea3bf293b17aad0d4b68a6c7503e37bd096ac8be889d30620032134a3ac00000000"
    }
  ]
}