{
  "hash": "000000006438d40acb75496695018c91b82377cbccca8d477797fa7adc721f82",
  "confirmations": 46609,
  "height": 6489,
  "version": 1,
  "versionHex": "00000001",
  "merkleroot": "f529dd05ebb67662902eedfd60c7a7f61f5e36de5e9b17439e2cb732cbb5c38b",
  "time": 1236321437,
  "mediantime": 1236318955,
  "nonce": 422912033,
  "bits": "1d00ffff",
  "difficulty": 1,
  "chainwork": "0000000000000000000000000000000000000000000000000000195a195a195a",
  "nTx": 1,
  "previousblockhash": "000000003e05a51397427853324c21e9a1984bba8daafda81452adf1b89a5c63",
  "nextblockhash": "000000005619d16344812b7a8e7bee7f286d31e9829bde188b7bc4410b63af52",
  "strippedsize": 216,
  "size": 216,
  "weight": 864,
  "tx": [
    {
      "txid": "f529dd05ebb67662902eedfd60c7a7f61f5e36de5e9b17439e2cb732cbb5c38b",
      "hash": "f529dd05ebb67662902eedfd60c7a7f61f5e36de5e9b17439e2cb732cbb5c38b",
      "version": 1,
      "size": 135,
      "vsize": 135,
      "weight": 540,
      "locktime": 0,
      "vin": [
        {
          "coinbase": "04ffff001d025503",
          "sequence": 4294967295
        }
      ],
      "vout": [
        {
          "value": 50.0,
          "n": 0,
          "scriptPubKey": {
            "asm": "04c0845597de434a6125f2f041bb45944be797ad676216cac4580896a7cc25b7f80b6e19fc7bf6fe8356127c01617d5813ba1c4a8734223f0143f9dcdc82ad8775 OP_CHECKSIG",
            "desc": "pk(04c0845597de434a6125f2f041bb45944be797ad676216cac4580896a7cc25b7f80b6e19fc7bf6fe8356127c01617d5813ba1c4a8734223f0143f9dcdc82ad8775)#jru0m7fc",
            "hex": "4104c0845597de434a6125f2f041bb45944be797ad676216cac4580896a7cc25b7f80b6e19fc7bf6fe8356127c01617d5813ba1c4a8734223f0143f9dcdc82ad8775ac",
            "type": "pubkey"
          }
        }
      ],
      "hex": "01000000010000000000000000000000000000000000000000000000000000000000000000ffffffff0804ffff001d025503ffffffff0100f2052a01000000434104c0845597de434a6125f2f041bb45944be797ad676216cac4580896a7cc25b7f80b6e19fc7bf6fe8356127c01617d5813ba1c4a8734223f0143f9dcdc82ad8775ac00000000"
    }
  ]
}