{
  "hash": "0000000001467bde2b707083757a9a5929d34bfb79b958e6b739c44e34cbf9d9",
  "confirmations": 51500,
  "height": 1598,
  "version": 1,
  "versionHex": "00000001",
  "merkleroot": "ef7ed3f0065cb65e11c296396a7fb6dfb08c24f31385e71f90fae187a7f0b889",
  "time": 1232810846,
  "mediantime": 1232808373,
  "nonce": 70057373,
  "bits": "1d00ffff",
  "difficulty": 1,
  "chainwork": "0000000000000000000000000000000000000000000000000000063f063f063f",
  "nTx": 1,
  "previousblockhash": "0000000088b781801ae07ed459fe1581a4cb039e2b72aea274ee83fea7d77875",
  "nextblockhash": "000000009dfdefce1a205fa0ce6631cf58b3e2628377e97b91f06564568d016d",
  "strippedsize": 216,
  "size": 216,
  "weight": 864,
  "tx": [
    {
      "txid": "ef7ed3f0065cb65e11c296396a7fb6dfb08c24f31385e71f90fae187a7f0b889",
      "hash": "ef7ed3f0065cb65e11c296396a7fb6dfb08c24f31385e71f90fae187a7f0b889",
      "version": 1,
      "size": 135,
      "vsize": 135,
      "weight": 540,
      "locktime": 0,
      "vin": [
        {
          "coinbase": "04ffff001d02a801",
          "sequence": 4294967295
        }
      ],
      "vout": [
        {
          "value": 50.0,
          "n": 0,
          "scriptPubKey": {
            "asm": "04aacd11375cbbc25678cad7564faf5deed8439c2ce7423fff7d5e80e3e36cf418ecfbc9b3f0b35ef1ee114af08e34911c5d90bb12fdf7fe48f0030bb495ee7059 OP_CHECKSIG",
            "desc": "pk(04aacd11375cbbc25678cad7564faf5deed8439c2ce7423fff7d5e80e3e36cf418ecfbc9b3f0b35ef1ee114af08e34911c5d90bb12fdf7fe48f0030bb495ee7059)#wszypl2x",
            "hex": "4104aacd11375cbbc25678cad7564faf5deed8439c2ce7423fff7d5e80e3e36cf418ecfbc9b3f0b35ef1ee114af08e34911c5d90bb12fdf7fe48f0030bb495ee7059ac",
            "type": "pubkey"
          }
        }
      ],
      "hex": "01000000010000000000000000000000000000000000000000000000000000000000000000ffffffff0804ffff001d02a801ffffffff0100f2052a01000000434104aacd11375cbbc25678cad7564faf5deed8439c2ce7423fff7d5e80e3e36cf418ecfbc9b3f0b35ef1ee114af08e34911c5d90bb12fdf7fe48f0030bb495ee7059ac00000000"
    }
  ]
}