{
  "hash": "00000000373421d4b8411038e7494a5c6324d0dea938e629b84a8f7b02843f44",
  "confirmations": 43527,
  "height": 9571,
  "version": 1,
  "versionHex": "00000001",
  "merkleroot": "115e66d8b7873e881192ad60549bd2b65f8a010b0412b6f64e0e7448041dcff0",
  "time": 1238678717,
  "mediantime": 1238675538,
  "nonce": 198426930,
  "bits": "1d00ffff",
  "difficulty": 1,
  "chainwork": "0000000000000000000000000000000000000000000000000000256425642564",
  "nTx": 1,
  "previousblockhash": "000000003c53a5818f50e81b12fff3f32d2356a551b101fe0ceba27232f21c02",
  "nextblockhash": "000000006650fe70a9f6441e9b8a4411bda08b84b4baab240910a57e44d6fd14",
  "strippedsize": 216,
  "size": 216,
  "weight": 864,
  "tx": [
    {
      "txid": "115e66d8b7873e881192ad60549bd2b65f8a010b0412b6f64e0e7448041dcff0",
      "hash": "115e66d8b7873e881192ad60549bd2b65f8a010b0412b6f64e0e7448041dcff0",
      "version": 1,
      "size": 135,
      "vsize": 135,
      "weight": 540,
      "locktime": 0,
      "vin": [
        {
          "coinbase": "04ffff001d028f06",
          "sequence": 4294967295
        }
      ],
      "vout": [
        {
          "value": 50.0,
          "n": 0,
          "scriptPubKey": {
            "asm": "048b06a87e377b17eedd169509984157e35ac4de44fc13195f6b4925d9436cd0011adf4cc28f32f8592e4facdb2878ad119c700c1e9bf94ab9b3c9ad50b5702cb3 OP_CHECKSIG",
            "desc": "pk(048b06a87e377b17eedd169509984157e35ac4de44fc13195f6b4925d9436cd0011adf4cc28f32f8592e4facdb2878ad119c700c1e9bf94ab9b3c9ad50b5702cb3)#hnnqsrdt",
            "hex": "41048b06a87e377b17eedd169509984157e35ac4de44fc13195f6b4925d9436cd0011adf4cc28f32f8592e4facdb2878ad119c700c1e9bf94ab9b3c9ad50b5702cb3ac",
            "type": "pubkey"
          }
        }
      ],
      "hex": "01000000010000000000000000000000000000000000000000000000000000000000000000ffffffff0804ffff001d028f06ffffffff0100f2052a010000004341048b06a87e377b17eedd169509984157e35ac4de44fc13195f6b4925d9436cd0011adf4cc28f32f8592e4facdb2878ad119c700c1e9bf94ab9b3c9ad50b5702cb3ac00000000"
    }
  ]
}