{
  "hash": "00000000c86e77bff65887d244809851ea3904abea3dad02857e782ffda469aa",
  "confirmations": 51647,
  "height": 1451,
  "version": 1,
  "versionHex": "00000001",
  "merkleroot": "aa3df3120ff59220073e2d0103886864ae71efaf1754975279478b1f7d27c101",
  "time": 1232747439,
  "mediantime": 1232744713,
  "nonce": 3766929920,
  "bits": "1d00ffff",
  "difficulty": 1,
  "chainwork": "000000000000000000000000000000000000000000000000000005ac05ac05ac",
  "nTx": 1,
  "previousblockhash": "000000003077f52fca44f7881567de49c2d816c25435a32bfc104c2158d709d9",
  "nextblockhash": "000000006f2f3682ed2b5d209f26d9123bb9de156c6e9efcab1388923de9ac0a",
  "strippedsize": 216,
  "size": 216,
  "weight": 864,
  "tx": [
    {
      "txid": "aa3df3120ff59220073e2d0103886864ae71efaf1754975279478b1f7d27c101",
      "hash": "aa3df3120ff59220073e2d0103886864ae71efaf1754975279478b1f7d27c101",
      "version": 1,
      "size": 135,
      "vsize": 135,
      "weight": 540,
      "locktime": 0,
      "vin": [
        {
          "coinbase": "04ffff001d029c00",
          "sequence": 4294967295
        }
      ],
      "vout": [
        {
          "value": 50.0,
          "n": 0,
          "scriptPubKey": {
            "asm": "04d5014ae89bd720615a6f472f64f03e075ab467278ff5adb3eb7bf55e10c4a8de1e6dc5b36a899e65d4047999b6458793c80cd9babf11fc2fe244cb16454a35e3 OP_CHECKSIG",
            "desc": "pk(04d5014ae89bd720615a6f472f64f03e075ab467278ff5adb3eb7bf55e10c4a8de1e6dc5b36a899e65d4047999b6458793c80cd9babf11fc2fe244cb16454a35e3)#cucyxwyc",
            "hex": "4104d5014ae89bd720615a6f472f64f03e075ab467278ff5adb3eb7bf55e10c4a8de1e6dc5b36a899e65d4047999b6458793c80cd9babf11fc2fe244cb16454a35e3ac",
            "type": "pubkey"
          }
        }
      ],
      "hex": "01000000010000000000000000000000000000000000000000000000000000000000000000ffffffff0804ffff001d029c00ffffffff0100f2052a01000000434104d5014ae89bd720615a6f472f64f03e075ab467278ff5adb3eb7bf55e10c4a8de1e6dc5b36a899e65d4047999b6458793c80cd9babf11fc2fe244cb16454a35e3ac00000000"
    }
  ]
}