{
  "hash": "0000000007123c244126c38e1c702e49b136905581f43070f0b58f2bbdb1cbfc",
  "confirmations": 51412,
  "height": 1686,
  "version": 1,
  "versionHex": "00000001",
  "merkleroot": "145b3a0de2ce9b8a3a0696782811090e3a2092ca44925c37b5d1112c12260067",
  "time": 1232846619,
  "mediantime": 1232844253,
  "nonce": 3094131495,
  "bits": "1d00ffff",
  "difficulty": 1,
  "chainwork": "0000000000000000000000000000000000000000000000000000069706970697",
  "nTx": 1,
  "previousblockhash": "00000000c7862910c4b517ee31e53c4d7c387442a6403e281719c20bf667d607",
  "nextblockhash": "00000000aa195e03989d7a4c5dc4b58ed4b1ef55e460a780a2dd7bbfffc51398",
  "strippedsize": 216,
  "size": 216,
  "weight": 864,
  "tx": [
    {
      "txid": "145b3a0de2ce9b8a3a0696782811090e3a2092ca44925c37b5d1112c12260067",
      "hash": "145b3a0de2ce9b8a3a0696782811090e3a2092ca44925c37b5d1112c12260067",
      "version": 1,
      "size": 135,
      "vsize": 135,
      "weight": 540,
      "locktime": 0,
      "vin": [
        {
          "coinbase": "04ffff001d020203",
          "sequence": 4294967295
        }
      ],
      "vout": [
        {
          "value": 50.0,
          "n": 0,
          "scriptPubKey": {
            "asm": "04aa384ac4fec70699179d7e7aaa6b8d040c499f15aab5bfb311b3f7f324404fca5dfb2a507e2c1643300859ae1c46b0a78a706f073166773383a8c29619d3e3a7 OP_CHECKSIG",
            "desc": "pk(04aa384ac4fec70699179d7e7aaa6b8d040c499f15aab5bfb311b3f7f324404fca5dfb2a507e2c1643300859ae1c46b0a78a706f073166773383a8c29619d3e3a7)#uwg30y40",
            "hex": "4104aa384ac4fec70699179d7e7aaa6b8d040c499f15aab5bfb311b3f7f324404fca5dfb2a507e2c1643300859ae1c46b0a78a706f073166773383a8c29619d3e3a7ac",
            "type": "pubkey"
          }
        }
      ],
      "hex": "01000000010000000000000000000000000000000000000000000000000000000000000000ffffffff0804ffff001d020203ffffffff0100f2052a01000000434104aa384ac4fec70699179d7e7aaa6b8d040c499f15aab5bfb311b3f7f324404fca5dfb2a507e2c1643300859ae1c46b0a78a706f073166773383a8c29619d3e3a7ac00000000"
    }
  ]
}