{
  "hash": "00000000800cca5d11742408e3965a84424269df7cecca5896649b1521d22297",
  "confirmations": 51182,
  "height": 1916,
  "version": 1,
  "versionHex": "00000001",
  "merkleroot": "388ec02a29c478136e2a707179cd29a236c1b61fd1d8ec8bb627f6c282a01357",
  "time": 1232960632,
  "mediantime": 1232950013,
  "nonce": 916199588,
  "bits": "1d00ffff",
  "difficulty": 1,
  "chainwork": "0000000000000000000000000000000000000000000000000000077d077d077d",
  "nTx": 1,
  "previousblockhash": "00000000739c5e05d27949d20a623f246760e1006c9e6f29ca39c3ceba5a416f",
  "nextblockhash": "00000000272568d8ad613b7f441fef896b912d21bca7ad2e18348e8b0ce483e7",
  "strippedsize": 216,
  "size": 216,
  "weight": 864,
  "tx": [
    {
      "txid": "388ec02a29c478136e2a707179cd29a236c1b61fd1d8ec8bb627f6c282a01357",
      "hash": "388ec02a29c478136e2a707179cd29a236c1b61fd1d8ec8bb627f6c282a01357",
      "version": 1,
      "size": 135,
      "vsize": 135,
      "weight": 540,
      "locktime": 0,
      "vin": [
        {
          "coinbase": "04ffff001d024c01",
          "sequence": 4294967295
        }
      ],
      "vout": [
        {
          "value": 50.0,
          "n": 0,
          "scriptPubKey": {
            "asm": "0475804160e4f228f2a711a91a580df3946a3aec674cb0fd07ddc00c2ce67ae1ee8f8d25d90eadca9cb8204ec027e316450047c212217753a68315cd7e903dff11 OP_CHECKSIG",
            "desc": "pk(0475804160e4f228f2a711a91a580df3946a3aec674cb0fd07ddc00c2ce67ae1ee8f8d25d90eadca9cb8204ec027e316450047c212217753a68315cd7e903dff11)#aukkdt47",
            "hex": "410475804160e4f228f2a711a91a580df3946a3aec674cb0fd07ddc00c2ce67ae1ee8f8d25d90eadca9cb8204ec027e316450047c212217753a68315cd7e903dff11ac",
            "type": "pubkey"
          }
        }
      ],
      "hex": "01000000010000000000000000000000000000000000000000000000000000000000000000ffffffff0804ffff001d024c01ffffffff0100f2052a0100000043410475804160e4f228f2a711a91a580df3946a3aec674cb0fd07ddc00c2ce67ae1ee8f8d25d90eadca9cb8204ec027e316450047c212217753a68315cd7e903dff11ac00000000"
    }
  ]
}