{
  "hash": "00000000074b4c7a212e7d65eadc4fbb88ee8f7de3d75abb1eadb5c580395252",
  "confirmations": 47585,
  "height": 5513,
  "version": 1,
  "versionHex": "00000001",
  "merkleroot": "18e5869b068c40c87b1a0bc713bd9e7a8d820d7a01d99f78b1ea1609a1ca96d8",
  "time": 1235532281,
  "mediantime": 1235527766,
  "nonce": 2174947386,
  "bits": "1d00ffff",
  "difficulty": 1,
  "chainwork": "0000000000000000000000000000000000000000000000000000158a158a158a",
  "nTx": 1,
  "previousblockhash": "000000000fbdfa8545ab0296f7aaa0de0d94a1ea60426cfdccd7fe661baa5a07",
  "nextblockhash": "000000008b900032d7f48a2d6e2357f40a5dc5e2733fa65b5b22b0488f52703f",
  "strippedsize": 216,
  "size": 216,
  "weight": 864,
  "tx": [
    {
      "txid": "18e5869b068c40c87b1a0bc713bd9e7a8d820d7a01d99f78b1ea1609a1ca96d8",
      "hash": "18e5869b068c40c87b1a0bc713bd9e7a8d820d7a01d99f78b1ea1609a1ca96d8",
      "version": 1,
      "size": 135,
      "vsize": 135,
      "weight": 540,
      "locktime": 0,
      "vin": [
        {
          "coinbase": "04ffff001d02e105",
          "sequence": 4294967295
        }
      ],
      "vout": [
        {
          "value": 50.0,
          "n": 0,
          "scriptPubKey": {
            "asm": "04c0ed5f6c327178603272e4854ea28ddf3e045a5b5153f83cfd6194258f6a98d7c65c60a2d56e4b3deefb58c996e0623da2b1665dfe3a52c00b9145725f355943 OP_CHECKSIG",
            "desc": "pk(04c0ed5f6c327178603272e4854ea28ddf3e045a5b5153f83cfd6194258f6a98d7c65c60a2d56e4b3deefb58c996e0623da2b1665dfe3a52c00b9145725f355943)#se6exzar",
            "hex": "4104c0ed5f6c327178603272e4854ea28ddf3e045a5b5153f83cfd6194258f6a98d7c65c60a2d56e4b3deefb58c996e0623da2b1665dfe3a52c00b9145725f355943ac",
            "type": "pubkey"
          }
        }
      ],
      "hex": "01000000010000000000000000000000000000000000000000000000000000000000000000ffffffff0804ffff001d02e105ffffffff0100f2052a01000000434104c0ed5f6c327178603272e4854ea28ddf3e045a5b5153f83cfd6194258f6a98d7c65c60a2d56e4b3deefb58c996e0623da2b1665dfe3a52c00b9145725f355943ac00000000"
    }
  ]
}