{
  "hash": "000000002ace74c47a24e92806aeefb968258359c2988f1bfd134f4bae233be6",
  "confirmations": 51109,
  "height": 1989,
  "version": 1,
  "versionHex": "00000001",
  "merkleroot": "6a00d6add82821dd3dbcbd9e750c3ef24a0f38d985853e29d0b8762d74c7e6f8",
  "time": 1233037179,
  "mediantime": 1233032710,
  "nonce": 3262061348,
  "bits": "1d00ffff",
  "difficulty": 1,
  "chainwork": "000000000000000000000000000000000000000000000000000007c607c607c6",
  "nTx": 1,
  "previousblockhash": "00000000785992b7d5ee630a7aaf650461ca6a5d176d96e8f1d83054132f0bf4",
  "nextblockhash": "00000000675bcdd144e9e266ab737f9dd2f62f039074dc1afc174a9d69acf41a",
  "strippedsize": 216,
  "size": 216,
  "weight": 864,
  "tx": [
    {
      "txid": "6a00d6add82821dd3dbcbd9e750c3ef24a0f38d985853e29d0b8762d74c7e6f8",
      "hash": "6a00d6add82821dd3dbcbd9e750c3ef24a0f38d985853e29d0b8762d74c7e6f8",
      "version": 1,
      "size": 135,
      "vsize": 135,
      "weight": 540,
      "locktime": 0,
      "vin": [
        {
          "coinbase": "04ffff001d025e01",
          "sequence": 4294967295
        }
      ],
      "vout": [
        {
          "value": 50.0,
          "n": 0,
          "scriptPubKey": {
            "asm": "041172c4ee5d6164fbea4192b13a3f438ba1ab97214c313fe2dfe3e9b6691bf99f294635c2f3df8febce9be1648277a201296b3d346ca344d655417828c68534f5 OP_CHECKSIG",
            "desc": "pk(041172c4ee5d6164fbea4192b13a3f438ba1ab97214c313fe2dfe3e9b6691bf99f294635c2f3df8febce9be1648277a201296b3d346ca344d655417828c68534f5)#h8ra8d5k",
            "hex": "41041172c4ee5d6164fbea4192b13a3f438ba1ab97214c313fe2dfe3e9b6691bf99f294635c2f3df8febce9be1648277a201296b3d346ca344d655417828c68534f5ac",
            "type": "pubkey"
          }
        }
      ],
      "hex": "01000000010000000000000000000000000000000000000000000000000000000000000000ffffffff0804ffff001d025e01ffffffff0100f2052a010000004341041172c4ee5d6164fbea4192b13a3f438ba1ab97214c313fe2dfe3e9b6691bf99f294635c2f3df8febce9be1648277a201296b3d346ca344d655417828c68534f5ac00000000"
    }
  ]
}