{
  "hash": "000000005180e108826aae57b4910e1a06f8bcb7b3e163913cea4f491143f4cc",
  "confirmations": 50561,
  "height": 2537,
  "version": 1,
  "versionHex": "00000001",
  "merkleroot": "2c2f391aff40e205bf852dd6b1c683801fdf7f81bfa341c5717701a9213814c2",
  "time": 1233442096,
  "mediantime": 1233438589,
  "nonce": 2628108803,
  "bits": "1d00ffff",
  "difficulty": 1,
  "chainwork": "000000000000000000000000000000000000000000000000000009ea09ea09ea",
  "nTx": 1,
  "previousblockhash": "00000000ba9d6ac9ee33b7740320afeb7a0cdd98f98a0dc84c9a6aca1160190e",
  "nextblockhash": "0000000044521f3387f0d64467c2abd615f9c8ce3547542d4af7de426cb553b8",
  "strippedsize": 216,
  "size": 216,
  "weight": 864,
  "tx": [
    {
      "txid": "2c2f391aff40e205bf852dd6b1c683801fdf7f81bfa341c5717701a9213814c2",
      "hash": "2c2f391aff40e205bf852dd6b1c683801fdf7f81bfa341c5717701a9213814c2",
      "version": 1,
      "size": 135,
      "vsize": 135,
      "weight": 540,
      "locktime": 0,
      "vin": [
        {
          "coinbase": "04ffff001d029301",
          "sequence": 4294967295
        }
      ],
      "vout": [
        {
          "value": 50.0,
          "n": 0,
          "scriptPubKey": {
            "asm": "0462b0602c7f9f3704d9e8ac9e37eab13d1d2972d8b0b8e7b65ae584ac407192583dcdf5d28f7561580779fdac11d88f1385e7a3e36d3c323975ad1a60d3c4d0db OP_CHECKSIG",
            "desc": "pk(0462b0602c7f9f3704d9e8ac9e37eab13d1d2972d8b0b8e7b65ae584ac407192583dcdf5d28f7561580779fdac11d88f1385e7a3e36d3c323975ad1a60d3c4d0db)#0lr3ly6k",
            "hex": "410462b0602c7f9f3704d9e8ac9e37eab13d1d2972d8b0b8e7b65ae584ac407192583dcdf5d28f7561580779fdac11d88f1385e7a3e36d3c323975ad1a60d3c4d0dbac",
            "type": "pubkey"
          }
        }
      ],
      "hex": "01000000010000000000000000000000000000000000000000000000000000000000000000ffffffff0804ffff001d029301ffffffff0100f2052a0100000043410462b0602c7f9f3704d9e8ac9e37eab13d1d2972d8b0b8e7b65ae584ac407192583dcdf5d28f7561580779fdac11d88f1385e7a3e36d3c323975ad1a60d3c4d0dbac00000000"
    }
  ]
}