{
  "hash": "00000000d0b88b709f1c6ace8876c77957e6548aeef7311329fdeff1f3dcd814",
  "confirmations": 47835,
  "height": 5263,
  "version": 1,
  "versionHex": "00000001",
  "merkleroot": "a76037651a18a81391ad4e332e007b8be2e91a238fcb649bb7bb257ddefd8833",
  "time": 1235331803,
  "mediantime": 1235329148,
  "nonce": 3488506935,
  "bits": "1d00ffff",
  "difficulty": 1,
  "chainwork": "0000000000000000000000000000000000000000000000000000149014901490",
  "nTx": 1,
  "previousblockhash": "00000000934e21f27256b447a256208b8f8e0c59a0a1d6193e2c996be33dca6f",
  "nextblockhash": "00000000a8548239874d42f2566c8c9976fb7aa162394c3ff60030d86219f366",
  "strippedsize": 216,
  "size": 216,
  "weight": 864,
  "tx": [
    {
      "txid": "a76037651a18a81391ad4e332e007b8be2e91a238fcb649bb7bb257ddefd8833",
      "hash": "a76037651a18a81391ad4e332e007b8be2e91a238fcb649bb7bb257ddefd8833",
      "version": 1,
      "size": 135,
      "vsize": 135,
      "weight": 540,
      "locktime": 0,
      "vin": [
        {
          "coinbase": "04ffff001d027401",
          "sequence": 4294967295
        }
      ],
      "vout": [
        {
          "value": 50.0,
          "n": 0,
          "scriptPubKey": {
            "asm": "04b1941262ce4006f617393d553dc5276caac0fa383b3daa72ee39a6cdc4601dd59d000603074509dda4726d11eca300641a6bc11c021372122fa38bfe718d25d5 OP_CHECKSIG",
            "desc": "pk(04b1941262ce4006f617393d553dc5276caac0fa383b3daa72ee39a6cdc4601dd59d000603074509dda4726d11eca300641a6bc11c021372122fa38bfe718d25d5)#z49pez6g",
            "hex": "4104b1941262ce4006f617393d553dc5276caac0fa383b3daa72ee39a6cdc4601dd59d000603074509dda4726d11eca300641a6bc11c021372122fa38bfe718d25d5ac",
            "type": "pubkey"
          }
        }
      ],
      "hex": "01000000010000000000000000000000000000000000000000000000000000000000000000ffffffff0804ffff001d027401ffffffff0100f2052a01000000434104b1941262ce4006f617393d553dc5276caac0fa383b3daa72ee39a6cdc4601dd59d000603074509dda4726d11eca300641a6bc11c021372122fa38bfe718d25d5ac00000000"
    }
  ]
}