{
  "hash": "0000000044b9ee1c99affa95e9a1f4110b79463219c83792a446979fff27ca7f",
  "confirmations": 43838,
  "height": 9260,
  "version": 1,
  "versionHex": "00000001",
  "merkleroot": "a1ea71a7e23fa83d71009d072e621981f4ce4ba18c0fa2c36569a18084875260",
  "time": 1238441658,
  "mediantime": 1238437697,
  "nonce": 1706720314,
  "bits": "1d00ffff",
  "difficulty": 1,
  "chainwork": "0000000000000000000000000000000000000000000000000000242d242d242d",
  "nTx": 1,
  "previousblockhash": "000000009d2a75607f575992ff49383af412b8d849673c9503722e587e52b161",
  "nextblockhash": "000000004cec09af8306b1ae5cc4367f860e9c959629f21e5154791eb5832040",
  "strippedsize": 216,
  "size": 216,
  "weight": 864,
  "tx": [
    {
      "txid": "a1ea71a7e23fa83d71009d072e621981f4ce4ba18c0fa2c36569a18084875260",
      "hash": "a1ea71a7e23fa83d71009d072e621981f4ce4ba18c0fa2c36569a18084875260",
      "version": 1,
      "size": 135,
      "vsize": 135,
      "weight": 540,
      "locktime": 0,
      "vin": [
        {
          "coinbase": "04ffff001d021001",
          "sequence": 4294967295
        }
      ],
      "vout": [
        {
          "value": 50.0,
          "n": 0,
          "scriptPubKey": {
            "asm": "04d78143dd62e1cf59593309c26bc370a32708baedf90634ad763d9d7f9606f2fe81a711b09beb9364c742ff05adf51324e485c2f1234fc2b554605c54fac7954d OP_CHECKSIG",
            "desc": "pk(04d78143dd62e1cf59593309c26bc370a32708baedf90634ad763d9d7f9606f2fe81a711b09beb9364c742ff05adf51324e485c2f1234fc2b554605c54fac7954d)#8ytn3vqq",
            "hex": "4104d78143dd62e1cf59593309c26bc370a32708baedf90634ad763d9d7f9606f2fe81a711b09beb9364c742ff05adf51324e485c2f1234fc2b554605c54fac7954dac",
            "type": "pubkey"
          }
        }
      ],
      "hex": "01000000010000000000000000000000000000000000000000000000000000000000000000ffffffff0804ffff001d021001ffffffff0100f2052a01000000434104d78143dd62e1cf59593309c26bc370a32708baedf90634ad763d9d7f9606f2fe81a711b09beb9364c742ff05adf51324e485c2f1234fc2b554605c54fac7954dac00000000"
    }
  ]
}