{
  "hash": "00000000bc3014410bd11fb34d87835d9301cce6f48ae38e71a56b6cbac985e3",
  "confirmations": 50921,
  "height": 2177,
  "version": 1,
  "versionHex": "00000001",
  "merkleroot": "b43411eb5a5df54721872c5f3afeb076baca2e3b1d9c16a434e1fc47381393d2",
  "time": 1233196058,
  "mediantime": 1233192518,
  "nonce": 1348200198,
  "bits": "1d00ffff",
  "difficulty": 1,
  "chainwork": "0000000000000000000000000000000000000000000000000000088208820882",
  "nTx": 1,
  "previousblockhash": "000000007f0b289645f06d880831c128a81c8d225671963668f63039aba5671c",
  "nextblockhash": "0000000003a92603ab1f2251c09b72d830fedd485d10149b7bbeb0bde08d42af",
  "strippedsize": 215,
  "size": 215,
  "weight": 860,
  "tx": [
    {
      "txid": "b43411eb5a5df54721872c5f3afeb076baca2e3b1d9c16a434e1fc47381393d2",
      "hash": "b43411eb5a5df54721872c5f3afeb076baca2e3b1d9c16a434e1fc47381393d2",
      "version": 1,
      "size": 134,
      "vsize": 134,
      "weight": 536,
      "locktime": 0,
      "vin": [
        {
          "coinbase": "04ffff001d0109",
          "sequence": 4294967295
        }
      ],
      "vout": [
        {
          "value": 50.0,
          "n": 0,
          "scriptPubKey": {
            "asm": "04f026c4d0c764b557e7a8d7df19e1fa5c275d59a3a89453308acfbbc8852c7914b330fb2571d9ff5c006db445e2584253420f0f0f8f4bae8b72bc91147eb2e3eb OP_CHECKSIG",
            "desc": "pk(04f026c4d0c764b557e7a8d7df19e1fa5c275d59a3a89453308acfbbc8852c7914b330fb2571d9ff5c006db445e2584253420f0f0f8f4bae8b72bc91147eb2e3eb)#j92l2p7a",
            "hex": "4104f026c4d0c764b557e7a8d7df19e1fa5c275d59a3a89453308acfbbc8852c7914b330fb2571d9ff5c006db445e2584253420f0f0f8f4bae8b72bc91147eb2e3ebac",
            "type": "pubkey"
          }
        }
      ],
      "hex": "01000000010000000000000000000000000000000000000000000000000000000000000000ffffffff0704ffff001d0109ffffffff0100f2052a01000000434104f026c4d0c764b557e7a8d7df19e1fa5c275d59a3a89453308acfbbc8852c7914b330fb2571d9ff5c006db445e2584253420f0f0f8f4bae8b72bc91147eb2e3ebac00000000"
    }
  ]
}