{
  "hash": "00000000f6b38fee667afb9cb2eedc5a9988d345e7b61ce220d34005d2d5b8bf",
  "confirmations": 51498,
  "height": 1600,
  "version": 1,
  "versionHex": "00000001",
  "merkleroot": "2a21c434ce9df342346dcb8f5d9ee663c8af421c383e7c8f2087a102e54f659e",
  "time": 1232811403,
  "mediantime": 1232809391,
  "nonce": 4130546467,
  "bits": "1d00ffff",
  "difficulty": 1,
  "chainwork": "0000000000000000000000000000000000000000000000000000064106410641",
  "nTx": 1,
  "previousblockhash": "000000009dfdefce1a205fa0ce6631cf58b3e2628377e97b91f06564568d016d",
  "nextblockhash": "00000000ffdacee18e2c714d840888e87796855b446f4883c2834c6ad1b9a1c7",
  "strippedsize": 216,
  "size": 216,
  "weight": 864,
  "tx": [
    {
      "txid": "2a21c434ce9df342346dcb8f5d9ee663c8af421c383e7c8f2087a102e54f659e",
      "hash": "2a21c434ce9df342346dcb8f5d9ee663c8af421c383e7c8f2087a102e54f659e",
      "version": 1,
      "size": 135,
      "vsize": 135,
      "weight": 540,
      "locktime": 0,
      "vin": [
        {
          "coinbase": "04ffff001d021802",
          "sequence": 4294967295
        }
      ],
      "vout": [
        {
          "value": 50.0,
          "n": 0,
          "scriptPubKey": {
            "asm": "04a2f1aeabc2081b036238a61fda6d9bfe4ccb0108f224356b250f9e32893b68f5faa646a15c9da25401280bab9c032e30b6c75068e3b348b18fced0ae578e7d76 OP_CHECKSIG",
            "desc": "pk(04a2f1aeabc2081b036238a61fda6d9bfe4ccb0108f224356b250f9e32893b68f5faa646a15c9da25401280bab9c032e30b6c75068e3b348b18fced0ae578e7d76)#75hj632u",
            "hex": "4104a2f1aeabc2081b036238a61fda6d9bfe4ccb0108f224356b250f9e32893b68f5faa646a15c9da25401280bab9c032e30b6c75068e3b348b18fced0ae578e7d76ac",
            "type": "pubkey"
          }
        }
      ],
      "hex": "01000000010000000000000000000000000000000000000000000000000000000000000000ffffffff0804ffff001d021802ffffffff0100f2052a01000000434104a2f1aeabc2081b036238a61fda6d9bfe4ccb0108f224356b250f9e32893b68f5faa646a15c9da25401280bab9c032e30b6c75068e3b348b18fced0ae578e7d76ac00000000"
    }
  ]
}