{
  "hash": "00000000d1de2a3f2dbdafb4695675917ef357570d2a79be1e3c37818a38f034",
  "confirmations": 45806,
  "height": 7292,
  "version": 1,
  "versionHex": "00000001",
  "merkleroot": "424f6d3516fe930abf9e085c46f4ac6f71985a804ba0194ede7bf266c985521b",
  "time": 1236942908,
  "mediantime": 1236938415,
  "nonce": 2852119583,
  "bits": "1d00ffff",
  "difficulty": 1,
  "chainwork": "00000000000000000000000000000000000000000000000000001c7d1c7d1c7d",
  "nTx": 1,
  "previousblockhash": "000000002f9a0690fe60aa6111258c49c9ea48ccc3ca7f3d9684a35677ebfd9a",
  "nextblockhash": "00000000c65b458c612958d1ada83f086cc1c0bd9a75dc15630857e842609432",
  "strippedsize": 216,
  "size": 216,
  "weight": 864,
  "tx": [
    {
      "txid": "424f6d3516fe930abf9e085c46f4ac6f71985a804ba0194ede7bf266c985521b",
      "hash": "424f6d3516fe930abf9e085c46f4ac6f71985a804ba0194ede7bf266c985521b",
      "version": 1,
      "size": 135,
      "vsize": 135,
      "weight": 540,
      "locktime": 0,
      "vin": [
        {
          "coinbase": "04ffff001d024b07",
          "sequence": 4294967295
        }
      ],
      "vout": [
        {
          "value": 50.0,
          "n": 0,
          "scriptPubKey": {
            "asm": "04dff7047f1fbbe05aeb12387d6c56393123e0646c3fd7f2c2e2fd4b6486be0c8cadc35084f8cda77454b65973d5627360eda4dc323216f92edd401e9f4312249d OP_CHECKSIG",
            "desc": "pk(04dff7047f1fbbe05aeb12387d6c56393123e0646c3fd7f2c2e2fd4b6486be0c8cadc35084f8cda77454b65973d5627360eda4dc323216f92edd401e9f4312249d)#g9tfcuz4",
            "hex": "4104dff7047f1fbbe05aeb12387d6c56393123e0646c3fd7f2c2e2fd4b6486be0c8cadc35084f8cda77454b65973d5627360eda4dc323216f92edd401e9f4312249dac",
            "type": "pubkey"
          }
        }
      ],
      "hex": "01000000010000000000000000000000000000000000000000000000000000000000000000ffffffff0804ffff001d024b07ffffffff0100f2052a01000000434104dff7047f1fbbe05aeb12387d6c56393123e0646c3fd7f2c2e2fd4b6486be0c8cadc35084f8cda77454b65973d5627360eda4dc323216f92edd401e9f4312249dac00000000"
    }
  ]
}