{
  "hash": "0000000096352c7e7bf5ebe736b8be0e00befc6c32eb941a32cce1f78d383c64",
  "confirmations": 49782,
  "height": 3316,
  "version": 1,
  "versionHex": "00000001",
  "merkleroot": "12cd0a27186158ea9081f80098af2e093b8cf48c40c4ab1425158a15208d58e3",
  "time": 1233979158,
  "mediantime": 1233976337,
  "nonce": 2703685681,
  "bits": "1d00ffff",
  "difficulty": 1,
  "chainwork": "00000000000000000000000000000000000000000000000000000cf50cf50cf5",
  "nTx": 1,
  "previousblockhash": "000000009ab9c64ad8ab9efe25677321534e168d3648aa429da84f54bbec7558",
  "nextblockhash": "0000000017b70297ac871d4abe618a3e5f1aa65910cc650ecacf25c7903222bc",
  "strippedsize": 216,
  "size": 216,
  "weight": 864,
  "tx": [
    {
      "txid": "12cd0a27186158ea9081f80098af2e093b8cf48c40c4ab1425158a15208d58e3",
      "hash": "12cd0a27186158ea9081f80098af2e093b8cf48c40c4ab1425158a15208d58e3",
      "version": 1,
      "size": 135,
      "vsize": 135,
      "weight": 540,
      "locktime": 0,
      "vin": [
        {
          "coinbase": "04ffff001d028d04",
          "sequence": 4294967295
        }
      ],
      "vout": [
        {
          "value": 50.0,
          "n": 0,
          "scriptPubKey": {
            "asm": "04673b371c3b3a3048f343a9083cf4fed21f1bef8aa3b0a535d7267a547635965f916526458868c6643be86c70bf1043914bc1169ac6d40ab50bc0c55432570875 OP_CHECKSIG",
            "desc": "pk(04673b371c3b3a3048f343a9083cf4fed21f1bef8aa3b0a535d7267a547635965f916526458868c6643be86c70bf1043914bc1169ac6d40ab50bc0c55432570875)#m6ufc8ye",
            "hex": "4104673b371c3b3a3048f343a9083cf4fed21f1bef8aa3b0a535d7267a547635965f916526458868c6643be86c70bf1043914bc1169ac6d40ab50bc0c55432570875ac",
            "type": "pubkey"
          }
        }
      ],
      "hex": "01000000010000000000000000000000000000000000000000000000000000000000000000ffffffff0804ffff001d028d04ffffffff0100f2052a01000000434104673b371c3b3a3048f343a9083cf4fed21f1bef8aa3b0a535d7267a547635965f916526458868c6643be86c70bf1043914bc1169ac6d40ab50bc0c55432570875ac00000000"
    }
  ]
}