{
  "hash": "0000000076d9ec583c757b8911406afe4d021aed0e5f30c16e65c82a71af32c2",
  "confirmations": 51944,
  "height": 89,
  "version": 1,
  "versionHex": "00000001",
  "merkleroot": "2306da842919574ed10ee9c211508b2bae2e8729b2fa5e83b4173831b89d2c28",
  "time": 1231653209,
  "mediantime": 1231649497,
  "nonce": 3635332629,
  "bits": "1d00ffff",
  "difficulty": 1,
  "chainwork": "0000000000000000000000000000000000000000000000000000005a005a005a",
  "nTx": 1,
  "previousblockhash": "0000000011fd31ceefda804321c8e00d9870c15a5395f361f3b0c6908eb7d04b",
  "nextblockhash": "00000000f365aa200968bb9808c3566d7d2465b4b3c93aa8a3cb9079f32cbb2f",
  "strippedsize": 215,
  "size": 215,
  "weight": 860,
  "tx": [
    {
      "txid": "2306da842919574ed10ee9c211508b2bae2e8729b2fa5e83b4173831b89d2c28",
      "hash": "2306da842919574ed10ee9c211508b2bae2e8729b2fa5e83b4173831b89d2c28",
      "version": 1,
      "size": 134,
      "vsize": 134,
      "weight": 536,
      "locktime": 0,
      "vin": [
        {
          "coinbase": "04ffff001d0122",
          "sequence": 4294967295
        }
      ],
      "vout": [
        {
          "value": 50.0,
          "n": 0,
          "scriptPubKey": {
            "asm": "0476a73b9d3afd848cbe8c99a0b1cca07ad5117d8ade5a314ce7739f0a189a0be77406d13cb6c92fe6d9b69c2fa338136938af9e930db3146fee39c5464a6707e3 OP_CHECKSIG",
            "desc": "pk(0476a73b9d3afd848cbe8c99a0b1cca07ad5117d8ade5a314ce7739f0a189a0be77406d13cb6c92fe6d9b69c2fa338136938af9e930db3146fee39c5464a6707e3)#7zx06sm9",
            "hex": "410476a73b9d3afd848cbe8c99a0b1cca07ad5117d8ade5a314ce7739f0a189a0be77406d13cb6c92fe6d9b69c2fa338136938af9e930db3146fee39c5464a6707e3ac",
            "type": "pubkey"
          }
        }
      ],
      "hex": "01000000010000000000000000000000000000000000000000000000000000000000000000ffffffff0704ffff001d0122ffffffff0100f2052a0100000043410476a73b9d3afd848cbe8c99a0b1cca07ad5117d8ade5a314ce7739f0a189a0be77406d13cb6c92fe6d9b69c2fa338136938af9e930db3146fee39c5464a6707e3ac00000000"
    }
  ]
}