{
  "hash": "0000000098340110d25610650daaca4931a51519a5bea7e789bbe6eb82ad8244",
  "confirmations": 52244,
  "height": 854,
  "version": 1,
  "versionHex": "00000001",
  "merkleroot": "dab39d7c718626019f2bf22079cf8504a9c2a5af529205b794571ee0ae1950da",
  "time": 1232233355,
  "mediantime": 1232228695,
  "nonce": 234852664,
  "bits": "1d00ffff",
  "difficulty": 1,
  "chainwork": "0000000000000000000000000000000000000000000000000000035703570357",
  "nTx": 1,
  "previousblockhash": "00000000b00e6bfa1742d8b209ea16cff0ca1f8466fa29fb9b171a1fcf9e09e9",
  "nextblockhash": "0000000063c8c3d40807ff4f0a12841d127a6aca2f853522a74378902de72ebf",
  "strippedsize": 216,
  "size": 216,
  "weight": 864,
  "tx": [
    {
      "txid": "dab39d7c718626019f2bf22079cf8504a9c2a5af529205b794571ee0ae1950da",
      "hash": "dab39d7c718626019f2bf22079cf8504a9c2a5af529205b794571ee0ae1950da",
      "version": 1,
      "size": 135,
      "vsize": 135,
      "weight": 540,
      "locktime": 0,
      "vin": [
        {
          "coinbase": "04ffff001d029002",
          "sequence": 4294967295
        }
      ],
      "vout": [
        {
          "value": 50.0,
          "n": 0,
          "scriptPubKey": {
            "asm": "04da9db9fde49a4a6dbc10172cc73dde4e7bad43ad04df746008bbe8b7d11f4839a1d1c0af4afe1326b504936ab6101c53300595322a3683ee6b5dc1f88fa410e4 OP_CHECKSIG",
            "desc": "pk(04da9db9fde49a4a6dbc10172cc73dde4e7bad43ad04df746008bbe8b7d11f4839a1d1c0af4afe1326b504936ab6101c53300595322a3683ee6b5dc1f88fa410e4)#jldqx2a7",
            "hex": "4104da9db9fde49a4a6dbc10172cc73dde4e7bad43ad04df746008bbe8b7d11f4839a1d1c0af4afe1326b504936ab6101c53300595322a3683ee6b5dc1f88fa410e4ac",
            "type": "pubkey"
          }
        }
      ],
      "hex": "01000000010000000000000000000000000000000000000000000000000000000000000000ffffffff0804ffff001d029002ffffffff0100f2052a01000000434104da9db9fde49a4a6dbc10172cc73dde4e7bad43ad04df746008bbe8b7d11f4839a1d1c0af4afe1326b504936ab6101c53300595322a3683ee6b5dc1f88fa410e4ac00000000"
    }
  ]
}