{
  "hash": "00000000d357309918e1e2586ca15141650f39b8097169274ccdba05991a87b3",
  "confirmations": 52040,
  "height": 1058,
  "version": 1,
  "versionHex": "00000001",
  "merkleroot": "294f7ef7252e37e9ebd4e4e9fe88e307af157f11cad937d7aa1be4aed2504dae",
  "time": 1232394221,
  "mediantime": 1232389749,
  "nonce": 2089977384,
  "bits": "1d00ffff",
  "difficulty": 1,
  "chainwork": "0000000000000000000000000000000000000000000000000000042304230423",
  "nTx": 1,
  "previousblockhash": "000000004b6da5bbb89d6602b47021c817837330c94c92ffdf0fe7a3fc65fa57",
  "nextblockhash": "00000000f6e758bff279b5d6c6c557dd1b90511eac1df10652a2a782aa5733b5",
  "strippedsize": 216,
  "size": 216,
  "weight": 864,
  "tx": [
    {
      "txid": "294f7ef7252e37e9ebd4e4e9fe88e307af157f11cad937d7aa1be4aed2504dae",
      "hash": "294f7ef7252e37e9ebd4e4e9fe88e307af157f11cad937d7aa1be4aed2504dae",
      "version": 1,
      "size": 135,
      "vsize": 135,
      "weight": 540,
      "locktime": 0,
      "vin": [
        {
          "coinbase": "04ffff001d022106",
          "sequence": 4294967295
        }
      ],
      "vout": [
        {
          "value": 50.0,
          "n": 0,
          "scriptPubKey": {
            "asm": "042b0c7dfa38fafb68763aa1b3c75dc7b474a96dd750f7ebcef37d19da6e6eead4ed64565342468ad8402fce9b073aa67ffe6987979f4f383c8321e9c5db0ac16e OP_CHECKSIG",
            "desc": "pk(042b0c7dfa38fafb68763aa1b3c75dc7b474a96dd750f7ebcef37d19da6e6eead4ed64565342468ad8402fce9b073aa67ffe6987979f4f383c8321e9c5db0ac16e)#ykgch7aw",
            "hex": "41042b0c7dfa38fafb68763aa1b3c75dc7b474a96dd750f7ebcef37d19da6e6eead4ed64565342468ad8402fce9b073aa67ffe6987979f4f383c8321e9c5db0ac16eac",
            "type": "pubkey"
          }
        }
      ],
      "hex": "01000000010000000000000000000000000000000000000000000000000000000000000000ffffffff0804ffff001d022106ffffffff0100f2052a010000004341042b0c7dfa38fafb68763aa1b3c75dc7b474a96dd750f7ebcef37d19da6e6eead4ed64565342468ad8402fce9b073aa67ffe6987979f4f383c8321e9c5db0ac16eac00000000"
    }
  ]
}