{
  "hash": "00000000acf14366ae6b071ad62a7bcaaab52b0ace43ef6d885a7f03810b81f3",
  "confirmations": 43987,
  "height": 9111,
  "version": 1,
  "versionHex": "00000001",
  "merkleroot": "1742718da2e2ce09cc8e80404d48445bc649685406bd3071f8ab880f05c78fd8",
  "time": 1238338436,
  "mediantime": 1238335083,
  "nonce": 43975464,
  "bits": "1d00ffff",
  "difficulty": 1,
  "chainwork": "0000000000000000000000000000000000000000000000000000239823982398",
  "nTx": 1,
  "previousblockhash": "000000009af8de91bef6ae9429a7d89adfb9add1ec95ba6ec60cb68f892e9d27",
  "nextblockhash": "0000000070e7c2095f3e9d63e095b55bd48df7610b9dddaebb9309568c84c675",
  "strippedsize": 216,
  "size": 216,
  "weight": 864,
  "tx": [
    {
      "txid": "1742718da2e2ce09cc8e80404d48445bc649685406bd3071f8ab880f05c78fd8",
      "hash": "1742718da2e2ce09cc8e80404d48445bc649685406bd3071f8ab880f05c78fd8",
      "version": 1,
      "size": 135,
      "vsize": 135,
      "weight": 540,
      "locktime": 0,
      "vin": [
        {
          "coinbase": "04ffff001d024e0e",
          "sequence": 4294967295
        }
      ],
      "vout": [
        {
          "value": 50.0,
          "n": 0,
          "scriptPubKey": {
            "asm": "040d042c9d6ef61615a984cd911543ab2d8df2495c0da482d15ae6f23c0317df905291ac7faa505add652675b73fffc48df9c0792a7c7b8dbb9794d0f6c1988c8a OP_CHECKSIG",
            "desc": "pk(040d042c9d6ef61615a984cd911543ab2d8df2495c0da482d15ae6f23c0317df905291ac7faa505add652675b73fffc48df9c0792a7c7b8dbb9794d0f6c1988c8a)#d663vfh7",
            "hex": "41040d042c9d6ef61615a984cd911543ab2d8df2495c0da482d15ae6f23c0317df905291ac7faa505add652675b73fffc48df9c0792a7c7b8dbb9794d0f6c1988c8aac",
            "type": "pubkey"
          }
        }
      ],
      "hex": "01000000010000000000000000000000000000000000000000000000000000000000000000ffffffff0804ffff001d024e0effffffff0100f2052a010000004341040d042c9d6ef61615a984cd911543ab2d8df2495c0da482d15ae6f23c0317df905291ac7faa505add652675b73fffc48df9c0792a7c7b8dbb9794d0f6c1988c8aac00000000"
    }
  ]
}