{
  "hash": "00000000978aa33333a6cc5c74d27ae815c0af65e41fd05c9aec1d22084e7520",
  "confirmations": 43717,
  "height": 9381,
  "version": 1,
  "versionHex": "00000001",
  "merkleroot": "f9aab55581bb0d161e7507594060bf338c6595ce96936da4636ff111173cc525",
  "time": 1238535072,
  "mediantime": 1238530798,
  "nonce": 4188513801,
  "bits": "1d00ffff",
  "difficulty": 1,
  "chainwork": "000000000000000000000000000000000000000000000000000024a624a624a6",
  "nTx": 1,
  "previousblockhash": "000000009499163e3f98481f41f05f892730c456e2cdfede6dee87ade42ba68b",
  "nextblockhash": "00000000186a60f70d105a1625af4c71d07744f93ed2e1c6589c4217ef4ecd35",
  "strippedsize": 216,
  "size": 216,
  "weight": 864,
  "tx": [
    {
      "txid": "f9aab55581bb0d161e7507594060bf338c6595ce96936da4636ff111173cc525",
      "hash": "f9aab55581bb0d161e7507594060bf338c6595ce96936da4636ff111173cc525",
      "version": 1,
      "size": 135,
      "vsize": 135,
      "weight": 540,
      "locktime": 0,
      "vin": [
        {
          "coinbase": "04ffff001d025303",
          "sequence": 4294967295
        }
      ],
      "vout": [
        {
          "value": 50.0,
          "n": 0,
          "scriptPubKey": {
            "asm": "0478844ffc6c2f16f38c723679c0a67d77bd1c0fdd81a93c25a01d2d81c58250aa834eca220a5c6802bb753ece9c3a5070f8e5e1551df290b0df13de5b2f6c8c46 OP_CHECKSIG",
            "desc": "pk(0478844ffc6c2f16f38c723679c0a67d77bd1c0fdd81a93c25a01d2d81c58250aa834eca220a5c6802bb753ece9c3a5070f8e5e1551df290b0df13de5b2f6c8c46)#808jcp2k",
            "hex": "410478844ffc6c2f16f38c723679c0a67d77bd1c0fdd81a93c25a01d2d81c58250aa834eca220a5c6802bb753ece9c3a5070f8e5e1551df290b0df13de5b2f6c8c46ac",
            "type": "pubkey"
          }
        }
      ],
      "hex": "01000000010000000000000000000000000000000000000000000000000000000000000000ffffffff0804ffff001d025303ffffffff0100f2052a0100000043410478844ffc6c2f16f38c723679c0a67d77bd1c0fdd81a93c25a01d2d81c58250aa834eca220a5c6802bb753ece9c3a5070f8e5e1551df290b0df13de5b2f6c8c46ac00000000"
    }
  ]
}