{
  "hash": "00000000a4b2ad5591c6de2f743742935cfde0adb4b590de1520abe7c0cefd68",
  "confirmations": 46350,
  "height": 6748,
  "version": 1,
  "versionHex": "00000001",
  "merkleroot": "1cf8a5729fafe9b314342148f44b4728e4cb3a8469f5fca7cc8ae9434167c018",
  "time": 1236518329,
  "mediantime": 1236513876,
  "nonce": 2224805156,
  "bits": "1d00ffff",
  "difficulty": 1,
  "chainwork": "00000000000000000000000000000000000000000000000000001a5d1a5d1a5d",
  "nTx": 1,
  "previousblockhash": "00000000c3665928b750dbcd90eccfa48974c95a48ac2e4b19159341ce870d51",
  "nextblockhash": "000000000fdc44b234de1c64e328ee140979491c556c019604d1e05139163535",
  "strippedsize": 216,
  "size": 216,
  "weight": 864,
  "tx": [
    {
      "txid": "1cf8a5729fafe9b314342148f44b4728e4cb3a8469f5fca7cc8ae9434167c018",
      "hash": "1cf8a5729fafe9b314342148f44b4728e4cb3a8469f5fca7cc8ae9434167c018",
      "version": 1,
      "size": 135,
      "vsize": 135,
      "weight": 540,
      "locktime": 0,
      "vin": [
        {
          "coinbase": "04ffff001d021108",
          "sequence": 4294967295
        }
      ],
      "vout": [
        {
          "value": 50.0,
          "n": 0,
          "scriptPubKey": {
            "asm": "040510cca390233e277a716946dc540009e7661b9de4e92751b306e8dc02e5b1c3febb5ac389b3d7ff00e2be118ad60f3fa91227e91246998230f90fdd8ba6cacf OP_CHECKSIG",
            "desc": "pk(040510cca390233e277a716946dc540009e7661b9de4e92751b306e8dc02e5b1c3febb5ac389b3d7ff00e2be118ad60f3fa91227e91246998230f90fdd8ba6cacf)#cxj804c4",
            "hex": "41040510cca390233e277a716946dc540009e7661b9de4e92751b306e8dc02e5b1c3febb5ac389b3d7ff00e2be118ad60f3fa91227e91246998230f90fdd8ba6cacfac",
            "type": "pubkey"
          }
        }
      ],
      "hex": "01000000010000000000000000000000000000000000000000000000000000000000000000ffffffff0804ffff001d021108ffffffff0100f2052a010000004341040510cca390233e277a716946dc540009e7661b9de4e92751b306e8dc02e5b1c3febb5ac389b3d7ff00e2be118ad60f3fa91227e91246998230f90fdd8ba6cacfac00000000"
    }
  ]
}