{
  "hash": "00000000645934b390e6a4d8d8134d686c9be38274a0b4f9ae70b16c39cb60b3",
  "confirmations": 43444,
  "height": 9654,
  "version": 1,
  "versionHex": "00000001",
  "merkleroot": "816a63d03b34aa767619a8be2d3347fdaafe457cac1dc96c5d125736051b3eda",
  "time": 1238744700,
  "mediantime": 1238739660,
  "nonce": 2604251444,
  "bits": "1d00ffff",
  "difficulty": 1,
  "chainwork": "000000000000000000000000000000000000000000000000000025b725b725b7",
  "nTx": 1,
  "previousblockhash": "0000000081aae35d3fcac45280d84af2d10453d8005e9db2c549e062373b0e97",
  "nextblockhash": "00000000f757255fccb7ab2cf59e8c8c2446e08ca5890dc3b95a0073089643ce",
  "strippedsize": 216,
  "size": 216,
  "weight": 864,
  "tx": [
    {
      "txid": "816a63d03b34aa767619a8be2d3347fdaafe457cac1dc96c5d125736051b3eda",
      "hash": "816a63d03b34aa767619a8be2d3347fdaafe457cac1dc96c5d125736051b3eda",
      "version": 1,
      "size": 135,
      "vsize": 135,
      "weight": 540,
      "locktime": 0,
      "vin": [
        {
          "coinbase": "04ffff001d02c807",
          "sequence": 4294967295
        }
      ],
      "vout": [
        {
          "value": 50.0,
          "n": 0,
          "scriptPubKey": {
            "asm": "0476586d78a9b4a7683da5f5af472662ef9b7424e8428b5c07b2ccd2cd876251cc42d410da1b4b6545f9ee6dab8fa6a3d35cb8e33d2375c1767c55c02a019136bb OP_CHECKSIG",
            "desc": "pk(0476586d78a9b4a7683da5f5af472662ef9b7424e8428b5c07b2ccd2cd876251cc42d410da1b4b6545f9ee6dab8fa6a3d35cb8e33d2375c1767c55c02a019136bb)#6zzh8rsr",
            "hex": "410476586d78a9b4a7683da5f5af472662ef9b7424e8428b5c07b2ccd2cd876251cc42d410da1b4b6545f9ee6dab8fa6a3d35cb8e33d2375c1767c55c02a019136bbac",
            "type": "pubkey"
          }
        }
      ],
      "hex": "01000000010000000000000000000000000000000000000000000000000000000000000000ffffffff0804ffff001d02c807ffffffff0100f2052a0100000043410476586d78a9b4a7683da5f5af472662ef9b7424e8428b5c07b2ccd2cd876251cc42d410da1b4b6545f9ee6dab8fa6a3d35cb8e33d2375c1767c55c02a019136bbac00000000"
    }
  ]
}