{
  "hash": "00000000121ff2e837d00ccb1386835bc0855e20947d8f6af17201e2bfa8e1c9",
  "confirmations": 52020,
  "height": 1078,
  "version": 1,
  "versionHex": "00000001",
  "merkleroot": "29d477266b44d92b26d3f2c6cffd8d825847ff561c0e4f25a6155459b3ee5aa6",
  "time": 1232407662,
  "mediantime": 1232403570,
  "nonce": 3177254178,
  "bits": "1d00ffff",
  "difficulty": 1,
  "chainwork": "0000000000000000000000000000000000000000000000000000043704370437",
  "nTx": 1,
  "previousblockhash": "000000000c11ba5cfa026e90b9fffcaf873c9182e533d40191f6f3073a95faf8",
  "nextblockhash": "0000000008d501c0bdaa3e966c59110a18546369e7ddd2bb81a7193b98769aa8",
  "strippedsize": 216,
  "size": 216,
  "weight": 864,
  "tx": [
    {
      "txid": "29d477266b44d92b26d3f2c6cffd8d825847ff561c0e4f25a6155459b3ee5aa6",
      "hash": "29d477266b44d92b26d3f2c6cffd8d825847ff561c0e4f25a6155459b3ee5aa6",
      "version": 1,
      "size": 135,
      "vsize": 135,
      "weight": 540,
      "locktime": 0,
      "vin": [
        {
          "coinbase": "04ffff001d02a006",
          "sequence": 4294967295
        }
      ],
      "vout": [
        {
          "value": 50.0,
          "n": 0,
          "scriptPubKey": {
            "asm": "04407ba5e05849caa32e83bcf6f5c7e12e767aeec38dd7cf119a364946de894613b2f28d65e669a85f418c320af0b2cceab9ec3b7488c56f327a8877fc760c22c6 OP_CHECKSIG",
            "desc": "pk(04407ba5e05849caa32e83bcf6f5c7e12e767aeec38dd7cf119a364946de894613b2f28d65e669a85f418c320af0b2cceab9ec3b7488c56f327a8877fc760c22c6)#cvwvk74u",
            "hex": "4104407ba5e05849caa32e83bcf6f5c7e12e767aeec38dd7cf119a364946de894613b2f28d65e669a85f418c320af0b2cceab9ec3b7488c56f327a8877fc760c22c6ac",
            "type": "pubkey"
          }
        }
      ],
      "hex": "01000000010000000000000000000000000000000000000000000000000000000000000000ffffffff0804ffff001d02a006ffffffff0100f2052a01000000434104407ba5e05849caa32e83bcf6f5c7e12e767aeec38dd7cf119a364946de894613b2f28d65e669a85f418c320af0b2cceab9ec3b7488c56f327a8877fc760c22c6ac00000000"
    }
  ]
}