{
  "hash": "000000006be00235ed1d0b71d20f33c3daaba0a3ebd8169967ce94e32b288860",
  "confirmations": 52034,
  "height": 303,
  "version": 1,
  "versionHex": "00000001",
  "merkleroot": "509cbf04b709f7f643fe71be1a97f8c494fd103bbb06809ac84ec2a4c3332d27",
  "time": 1231835108,
  "mediantime": 1231830791,
  "nonce": 908414002,
  "bits": "1d00ffff",
  "difficulty": 1,
  "chainwork": "0000000000000000000000000000000000000000000000000000013001300130",
  "nTx": 1,
  "previousblockhash": "000000007eff6cf2aaf401206860911f5c41565162de63e687d627e20335ef0a",
  "nextblockhash": "00000000375cc7513d56fdbba5c1e1adb0d69e662fd09dd14238bc627b66aadc",
  "strippedsize": 215,
  "size": 215,
  "weight": 860,
  "tx": [
    {
      "txid": "509cbf04b709f7f643fe71be1a97f8c494fd103bbb06809ac84ec2a4c3332d27",
      "hash": "509cbf04b709f7f643fe71be1a97f8c494fd103bbb06809ac84ec2a4c3332d27",
      "version": 1,
      "size": 134,
      "vsize": 134,
      "weight": 536,
      "locktime": 0,
      "vin": [
        {
          "coinbase": "04ffff001d017a",
          "sequence": 4294967295
        }
      ],
      "vout": [
        {
          "value": 50.0,
          "n": 0,
          "scriptPubKey": {
            "asm": "04fc4acadc6722fe57af749e4f708159d2aab95a98b46699cf3b72a536ddd536b5a4ee3dfd6e04e20b73d48769f2f1df55f37e56528aa4e37b6237ab745ebca23a OP_CHECKSIG",
            "desc": "pk(04fc4acadc6722fe57af749e4f708159d2aab95a98b46699cf3b72a536ddd536b5a4ee3dfd6e04e20b73d48769f2f1df55f37e56528aa4e37b6237ab745ebca23a)#psj6fswm",
            "hex": "4104fc4acadc6722fe57af749e4f708159d2aab95a98b46699cf3b72a536ddd536b5a4ee3dfd6e04e20b73d48769f2f1df55f37e56528aa4e37b6237ab745ebca23aac",
            "type": "pubkey"
          }
        }
      ],
      "hex": "01000000010000000000000000000000000000000000000000000000000000000000000000ffffffff0704ffff001d017affffffff0100f2052a01000000434104fc4acadc6722fe57af749e4f708159d2aab95a98b46699cf3b72a536ddd536b5a4ee3dfd6e04e20b73d48769f2f1df55f37e56528aa4e37b6237ab745ebca23aac00000000"
    }
  ]
}