{
  "hash": "0000000000243dfaef0a3b85c3b9c13c958ce6bed9fd4cb154c1df109c1ef884",
  "confirmations": 51112,
  "height": 1986,
  "version": 1,
  "versionHex": "00000001",
  "merkleroot": "c6423218d57b002b894b511f92e02aabb4bbe714a815318990e7b927006f4b6a",
  "time": 1233034738,
  "mediantime": 1233030521,
  "nonce": 2614294073,
  "bits": "1d00ffff",
  "difficulty": 1,
  "chainwork": "000000000000000000000000000000000000000000000000000007c307c307c3",
  "nTx": 1,
  "previousblockhash": "00000000c7b984d0429b8e9ffa044a776932944d3761eedee5d8b7bedb7a1eb7",
  "nextblockhash": "0000000073ba0d47c8458f2dafd7d7ed616fcb43e6b1a6c8a87236c7d991c89e",
  "strippedsize": 216,
  "size": 216,
  "weight": 864,
  "tx": [
    {
      "txid": "c6423218d57b002b894b511f92e02aabb4bbe714a815318990e7b927006f4b6a",
      "hash": "c6423218d57b002b894b511f92e02aabb4bbe714a815318990e7b927006f4b6a",
      "version": 1,
      "size": 135,
      "vsize": 135,
      "weight": 540,
      "locktime": 0,
      "vin": [
        {
          "coinbase": "04ffff001d023f01",
          "sequence": 4294967295
        }
      ],
      "vout": [
        {
          "value": 50.0,
          "n": 0,
          "scriptPubKey": {
            "asm": "04e0cfa880559affe0602eec83f866e137bb59392c897c39fe15f903b424061f7cbafa8254cdd75acb6579f8ba5499b53657edf7defdd212e32f119458cb376930 OP_CHECKSIG",
            "desc": "pk(04e0cfa880559affe0602eec83f866e137bb59392c897c39fe15f903b424061f7cbafa8254cdd75acb6579f8ba5499b53657edf7defdd212e32f119458cb376930)#3f3f2fh4",
            "hex": "4104e0cfa880559affe0602eec83f866e137bb59392c897c39fe15f903b424061f7cbafa8254cdd75acb6579f8ba5499b53657edf7defdd212e32f119458cb376930ac",
            "type": "pubkey"
          }
        }
      ],
      "hex": "01000000010000000000000000000000000000000000000000000000000000000000000000ffffffff0804ffff001d023f01ffffffff0100f2052a01000000434104e0cfa880559affe0602eec83f866e137bb59392c897c39fe15f903b424061f7cbafa8254cdd75acb6579f8ba5499b53657edf7defdd212e32f119458cb376930ac00000000"
    }
  ]
}