{
  "hash": "0000000085a74e13080fa4cf7083612d2723843e10fa73663473b96f431d06fd",
  "confirmations": 52002,
  "height": 1096,
  "version": 1,
  "versionHex": "00000001",
  "merkleroot": "d70b999f1459dc4bfeaa7918460a233886d9641ab439275dc3cfabac37080d6a",
  "time": 1232419724,
  "mediantime": 1232417465,
  "nonce": 144305464,
  "bits": "1d00ffff",
  "difficulty": 1,
  "chainwork": "0000000000000000000000000000000000000000000000000000044904490449",
  "nTx": 1,
  "previousblockhash": "000000005744bf6986d977384729b72ae7e2350e5e47640fc501b40808b6c3bb",
  "nextblockhash": "00000000f305ffdc2596b8be1435264eebcfb38033ef29e54b6f245cceb9e68d",
  "strippedsize": 216,
  "size": 216,
  "weight": 864,
  "tx": [
    {
      "txid": "d70b999f1459dc4bfeaa7918460a233886d9641ab439275dc3cfabac37080d6a",
      "hash": "d70b999f1459dc4bfeaa7918460a233886d9641ab439275dc3cfabac37080d6a",
      "version": 1,
      "size": 135,
      "vsize": 135,
      "weight": 540,
      "locktime": 0,
      "vin": [
        {
          "coinbase": "04ffff001d028101",
          "sequence": 4294967295
        }
      ],
      "vout": [
        {
          "value": 50.0,
          "n": 0,
          "scriptPubKey": {
            "asm": "045e4458d04bc2877efce5cdd10b60a9ed3e8ae5844e540213e24faa85690ae11493d046b2407757fe9b94ae79282e08f1ebd510da78b1f4fa51adcd137c9b4c7b OP_CHECKSIG",
            "desc": "pk(045e4458d04bc2877efce5cdd10b60a9ed3e8ae5844e540213e24faa85690ae11493d046b2407757fe9b94ae79282e08f1ebd510da78b1f4fa51adcd137c9b4c7b)#tw2m4nhy",
            "hex": "41045e4458d04bc2877efce5cdd10b60a9ed3e8ae5844e540213e24faa85690ae11493d046b2407757fe9b94ae79282e08f1ebd510da78b1f4fa51adcd137c9b4c7bac",
            "type": "pubkey"
          }
        }
      ],
      "hex": "01000000010000000000000000000000000000000000000000000000000000000000000000ffffffff0804ffff001d028101ffffffff0100f2052a010000004341045e4458d04bc2877efce5cdd10b60a9ed3e8ae5844e540213e24faa85690ae11493d046b2407757fe9b94ae79282e08f1ebd510da78b1f4fa51adcd137c9b4c7bac00000000"
    }
  ]
}