{
  "hash": "000000009d4aaabf90f50d5e1e92fdeb39d12f93296f126069f8ea4f933bb8c1",
  "confirmations": 47695,
  "height": 5403,
  "version": 1,
  "versionHex": "00000001",
  "merkleroot": "16fea6c39fc97cd012eb49b8b172e678695ece95eac90294d96154754e99428e",
  "time": 1235443472,
  "mediantime": 1235439394,
  "nonce": 1124638250,
  "bits": "1d00ffff",
  "difficulty": 1,
  "chainwork": "0000000000000000000000000000000000000000000000000000151c151c151c",
  "nTx": 1,
  "previousblockhash": "0000000008be8b0c151aff5a75be4e99f28e72de027972afd65ee9d0de09ccd6",
  "nextblockhash": "000000009ca947874aa9c7a719abd09e73925d749560a6284a38e786b5c38adc",
  "strippedsize": 216,
  "size": 216,
  "weight": 864,
  "tx": [
    {
      "txid": "16fea6c39fc97cd012eb49b8b172e678695ece95eac90294d96154754e99428e",
      "hash": "16fea6c39fc97cd012eb49b8b172e678695ece95eac90294d96154754e99428e",
      "version": 1,
      "size": 135,
      "vsize": 135,
      "weight": 540,
      "locktime": 0,
      "vin": [
        {
          "coinbase": "04ffff001d02b303",
          "sequence": 4294967295
        }
      ],
      "vout": [
        {
          "value": 50.0,
          "n": 0,
          "scriptPubKey": {
            "asm": "044ae0c0d6bdd848744ad02f78c8348ebc73f6134d18e386524c0eae0eeaa037f10e3b7f59e1c5cd371e4f4e3ba3a49c27fcb12f0e5b1917250432b64d54ec4cda OP_CHECKSIG",
            "desc": "pk(044ae0c0d6bdd848744ad02f78c8348ebc73f6134d18e386524c0eae0eeaa037f10e3b7f59e1c5cd371e4f4e3ba3a49c27fcb12f0e5b1917250432b64d54ec4cda)#v9mlx7xc",
            "hex": "41044ae0c0d6bdd848744ad02f78c8348ebc73f6134d18e386524c0eae0eeaa037f10e3b7f59e1c5cd371e4f4e3ba3a49c27fcb12f0e5b1917250432b64d54ec4cdaac",
            "type": "pubkey"
          }
        }
      ],
      "hex": "01000000010000000000000000000000000000000000000000000000000000000000000000ffffffff0804ffff001d02b303ffffffff0100f2052a010000004341044ae0c0d6bdd848744ad02f78c8348ebc73f6134d18e386524c0eae0eeaa037f10e3b7f59e1c5cd371e4f4e3ba3a49c27fcb12f0e5b1917250432b64d54ec4cdaac00000000"
    }
  ]
}