{
  "hash": "0000000078beb1130019f36f66a76b25fa3bda43c51eb107bc96cf30fabcadd2",
  "confirmations": 48778,
  "height": 4320,
  "version": 1,
  "versionHex": "00000001",
  "merkleroot": "1bcb67580135f7ebda25222589e6404e607a2bf4bb1f5323ba83bd25f3642eb7",
  "time": 1234657736,
  "mediantime": 1234653685,
  "nonce": 1349869334,
  "bits": "1d00ffff",
  "difficulty": 1,
  "chainwork": "000000000000000000000000000000000000000000000000000010e110e110e1",
  "nTx": 1,
  "previousblockhash": "000000004af475e85b4a457eee4ac95381a75c153a463c13421a12bd3d52e26d",
  "nextblockhash": "000000003477db5087dded86651685882ec943374684ddc475b4cb9fb9d75e9a",
  "strippedsize": 215,
  "size": 215,
  "weight": 860,
  "tx": [
    {
      "txid": "1bcb67580135f7ebda25222589e6404e607a2bf4bb1f5323ba83bd25f3642eb7",
      "hash": "1bcb67580135f7ebda25222589e6404e607a2bf4bb1f5323ba83bd25f3642eb7",
      "version": 1,
      "size": 134,
      "vsize": 134,
      "weight": 536,
      "locktime": 0,
      "vin": [
        {
          "coinbase": "04ffff001d0134",
          "sequence": 4294967295
        }
      ],
      "vout": [
        {
          "value": 50.0,
          "n": 0,
          "scriptPubKey": {
            "asm": "04b05f2abc48a80eab4fb003041880b8cb00418d2298438e43561b197bc386bb35379d48a5dd40df67a5160d70ff633c495abdf843df07b96674947c5169d5a320 OP_CHECKSIG",
            "desc": "pk(04b05f2abc48a80eab4fb003041880b8cb00418d2298438e43561b197bc386bb35379d48a5dd40df67a5160d70ff633c495abdf843df07b96674947c5169d5a320)#0w4gky4p",
            "hex": "4104b05f2abc48a80eab4fb003041880b8cb00418d2298438e43561b197bc386bb35379d48a5dd40df67a5160d70ff633c495abdf843df07b96674947c5169d5a320ac",
            "type": "pubkey"
          }
        }
      ],
      "hex": "01000000010000000000000000000000000000000000000000000000000000000000000000ffffffff0704ffff001d0134ffffffff0100f2052a01000000434104b05f2abc48a80eab4fb003041880b8cb00418d2298438e43561b197bc386bb35379d48a5dd40df67a5160d70ff633c495abdf843df07b96674947c5169d5a320ac00000000"
    }
  ]
}