{
  "hash": "0000000007d299e86ec5288fad2a3af02900996a13b2891679c074e7c83add0e",
  "confirmations": 49207,
  "height": 3891,
  "version": 1,
  "versionHex": "00000001",
  "merkleroot": "26658b65bddabdeed2621cd4ecef4e4f07d5bd3248e6ad448b493dc783d9a821",
  "time": 1234362172,
  "mediantime": 1234357505,
  "nonce": 2691961141,
  "bits": "1d00ffff",
  "difficulty": 1,
  "chainwork": "00000000000000000000000000000000000000000000000000000f340f340f34",
  "nTx": 1,
  "previousblockhash": "00000000dbf91c8bf2015d93c49af59da48f8766423dec5b323191578cf07cbd",
  "nextblockhash": "00000000353c75a4874d7c6ba5ad5250a2d56711bcd128a0680dcbf7db59d386",
  "strippedsize": 216,
  "size": 216,
  "weight": 864,
  "tx": [
    {
      "txid": "26658b65bddabdeed2621cd4ecef4e4f07d5bd3248e6ad448b493dc783d9a821",
      "hash": "26658b65bddabdeed2621cd4ecef4e4f07d5bd3248e6ad448b493dc783d9a821",
      "version": 1,
      "size": 135,
      "vsize": 135,
      "weight": 540,
      "locktime": 0,
      "vin": [
        {
          "coinbase": "04ffff001d028202",
          "sequence": 4294967295
        }
      ],
      "vout": [
        {
          "value": 50.0,
          "n": 0,
          "scriptPubKey": {
            "asm": "04b437434e565109c581b68f8491534f1152b18132da847dbe99632a08d08819d5b3725cd8508021d6c4d058c3432a1bf7a50fedf80d40928580c6ea3bedff2e18 OP_CHECKSIG",
            "desc": "pk(04b437434e565109c581b68f8491534f1152b18132da847dbe99632a08d08819d5b3725cd8508021d6c4d058c3432a1bf7a50fedf80d40928580c6ea3bedff2e18)#2zc30kja",
            "hex": "4104b437434e565109c581b68f8491534f1152b18132da847dbe99632a08d08819d5b3725cd8508021d6c4d058c3432a1bf7a50fedf80d40928580c6ea3bedff2e18ac",
            "type": "pubkey"
          }
        }
      ],
      "hex": "01000000010000000000000000000000000000000000000000000000000000000000000000ffffffff0804ffff001d028202ffffffff0100f2052a01000000434104b437434e565109c581b68f8491534f1152b18132da847dbe99632a08d08819d5b3725cd8508021d6c4d058c3432a1bf7a50fedf80d40928580c6ea3bedff2e18ac00000000"
    }
  ]
}