{
  "hash": "00000000455c3231e43bb558f8baeb192818c59ba84cdd3f8ee5f31460a5aa29",
  "confirmations": 44122,
  "height": 8976,
  "version": 1,
  "versionHex": "00000001",
  "merkleroot": "5072e8909ec6f6bc581f5f41776347899128a1d415efcabb58ef38241be19ab8",
  "time": 1238235968,
  "mediantime": 1238231786,
  "nonce": 1199492663,
  "bits": "1d00ffff",
  "difficulty": 1,
  "chainwork": "0000000000000000000000000000000000000000000000000000231123112311",
  "nTx": 1,
  "previousblockhash": "00000000f9f2eff4d24b4f63c6b86c04b54622e7727f820df1d3a8c0cb70344e",
  "nextblockhash": "000000006005091f4aa4f2f9ab8fcdbedf71fa27a1eabeae6ef94b5e3811ef1e",
  "strippedsize": 216,
  "size": 216,
  "weight": 864,
  "tx": [
    {
      "txid": "5072e8909ec6f6bc581f5f41776347899128a1d415efcabb58ef38241be19ab8",
      "hash": "5072e8909ec6f6bc581f5f41776347899128a1d415efcabb58ef38241be19ab8",
      "version": 1,
      "size": 135,
      "vsize": 135,
      "weight": 540,
      "locktime": 0,
      "vin": [
        {
          "coinbase": "04ffff001d021606",
          "sequence": 4294967295
        }
      ],
      "vout": [
        {
          "value": 50.0,
          "n": 0,
          "scriptPubKey": {
            "asm": "04247aa1aae0b10889586b282cf244ee666ef6e6bbf080909d2fc4e48750278214f8e4e1d86388d2b7e8e40b98c56ce48936d10320295e61885b45a948c6ebf5ee OP_CHECKSIG",
            "desc": "pk(04247aa1aae0b10889586b282cf244ee666ef6e6bbf080909d2fc4e48750278214f8e4e1d86388d2b7e8e40b98c56ce48936d10320295e61885b45a948c6ebf5ee)#98wg3thy",
            "hex": "4104247aa1aae0b10889586b282cf244ee666ef6e6bbf080909d2fc4e48750278214f8e4e1d86388d2b7e8e40b98c56ce48936d10320295e61885b45a948c6ebf5eeac",
            "type": "pubkey"
          }
        }
      ],
      "hex": "01000000010000000000000000000000000000000000000000000000000000000000000000ffffffff0804ffff001d021606ffffffff0100f2052a01000000434104247aa1aae0b10889586b282cf244ee666ef6e6bbf080909d2fc4e48750278214f8e4e1d86388d2b7e8e40b98c56ce48936d10320295e61885b45a948c6ebf5eeac00000000"
    }
  ]
}