{
  "hash": "00000000e1c6c4fec8e18026b3f96f8f7a7d289aeb8e8d99e16caef2a580281a",
  "confirmations": 50141,
  "height": 2957,
  "version": 1,
  "versionHex": "00000001",
  "merkleroot": "f119896e6820683e39b8c569a0c2bf7f257056c5a6b9d14c2143758861d95d16",
  "time": 1233731205,
  "mediantime": 1233726911,
  "nonce": 3045685041,
  "bits": "1d00ffff",
  "difficulty": 1,
  "chainwork": "00000000000000000000000000000000000000000000000000000b8e0b8e0b8e",
  "nTx": 1,
  "previousblockhash": "00000000c36ab229697cc2732c16bed1d9e731ddc641efb33a5bbceff046847b",
  "nextblockhash": "000000006fe7385ab0a8ddee0a12ac021805dff05ebe376413f2989f56f1ee0d",
  "strippedsize": 216,
  "size": 216,
  "weight": 864,
  "tx": [
    {
      "txid": "f119896e6820683e39b8c569a0c2bf7f257056c5a6b9d14c2143758861d95d16",
      "hash": "f119896e6820683e39b8c569a0c2bf7f257056c5a6b9d14c2143758861d95d16",
      "version": 1,
      "size": 135,
      "vsize": 135,
      "weight": 540,
      "locktime": 0,
      "vin": [
        {
          "coinbase": "04ffff001d02bd00",
          "sequence": 4294967295
        }
      ],
      "vout": [
        {
          "value": 50.0,
          "n": 0,
          "scriptPubKey": {
            "asm": "042baa58429a21bc3e6f0b37af0fb7a1c788b2a328a894275cd076dd9599d706432e7bea0b3f37244460d64ec4bf9f565906d708470ee5823f2091d1b6d401a133 OP_CHECKSIG",
            "desc": "pk(042baa58429a21bc3e6f0b37af0fb7a1c788b2a328a894275cd076dd9599d706432e7bea0b3f37244460d64ec4bf9f565906d708470ee5823f2091d1b6d401a133)#xa2guhlg",
            "hex": "41042baa58429a21bc3e6f0b37af0fb7a1c788b2a328a894275cd076dd9599d706432e7bea0b3f37244460d64ec4bf9f565906d708470ee5823f2091d1b6d401a133ac",
            "type": "pubkey"
          }
        }
      ],
      "hex": "01000000010000000000000000000000000000000000000000000000000000000000000000ffffffff0804ffff001d02bd00ffffffff0100f2052a010000004341042baa58429a21bc3e6f0b37af0fb7a1c788b2a328a894275cd076dd9599d706432e7bea0b3f37244460d64ec4bf9f565906d708470ee5823f2091d1b6d401a133ac00000000"
    }
  ]
}