{
  "hash": "00000000c4dbe2ba337fbe3ca768cca95e58c18f770042552dd8a41ee89204aa",
  "confirmations": 43834,
  "height": 9264,
  "version": 1,
  "versionHex": "00000001",
  "merkleroot": "a562f027d4fa05508e4554a1f130cf23cb3227b5ec355a97c5e21fbfb9770740",
  "time": 1238445216,
  "mediantime": 1238441226,
  "nonce": 3994149424,
  "bits": "1d00ffff",
  "difficulty": 1,
  "chainwork": "0000000000000000000000000000000000000000000000000000243124312431",
  "nTx": 1,
  "previousblockhash": "000000005d1fc8c58989690282c5e913a216323d5c2f87bfb2085fcc6061c753",
  "nextblockhash": "00000000af1adaea263e20b9130da2e4095f90a2cdaff58b6e894a1cf2972189",
  "strippedsize": 216,
  "size": 216,
  "weight": 864,
  "tx": [
    {
      "txid": "a562f027d4fa05508e4554a1f130cf23cb3227b5ec355a97c5e21fbfb9770740",
      "hash": "a562f027d4fa05508e4554a1f130cf23cb3227b5ec355a97c5e21fbfb9770740",
      "version": 1,
      "size": 135,
      "vsize": 135,
      "weight": 540,
      "locktime": 0,
      "vin": [
        {
          "coinbase": "04ffff001d021701",
          "sequence": 4294967295
        }
      ],
      "vout": [
        {
          "value": 50.0,
          "n": 0,
          "scriptPubKey": {
            "asm": "042172662c83f81b86fbe964c8fd2c332148e195b3902b850d1acbf61fe0f31a77680c6bbd89ec7144d11d2c4bc38907b787af2abd6f77056042fd1bd1b0ea9542 OP_CHECKSIG",
            "desc": "pk(042172662c83f81b86fbe964c8fd2c332148e195b3902b850d1acbf61fe0f31a77680c6bbd89ec7144d11d2c4bc38907b787af2abd6f77056042fd1bd1b0ea9542)#ekgcawxy",
            "hex": "41042172662c83f81b86fbe964c8fd2c332148e195b3902b850d1acbf61fe0f31a77680c6bbd89ec7144d11d2c4bc38907b787af2abd6f77056042fd1bd1b0ea9542ac",
            "type": "pubkey"
          }
        }
      ],
      "hex": "01000000010000000000000000000000000000000000000000000000000000000000000000ffffffff0804ffff001d021701ffffffff0100f2052a010000004341042172662c83f81b86fbe964c8fd2c332148e195b3902b850d1acbf61fe0f31a77680c6bbd89ec7144d11d2c4bc38907b787af2abd6f77056042fd1bd1b0ea9542ac00000000"
    }
  ]
}