{
  "hash": "00000000101ef076a211b3ae84724c8c6af1a7992a44f8750f99df28921e8e70",
  "confirmations": 50320,
  "height": 2778,
  "version": 1,
  "versionHex": "00000001",
  "merkleroot": "17c23a3162e0fbad304456889ccefc5878045d9c9d969ba47055c8df4c7747ea",
  "time": 1233615690,
  "mediantime": 1233611980,
  "nonce": 1225964035,
  "bits": "1d00ffff",
  "difficulty": 1,
  "chainwork": "00000000000000000000000000000000000000000000000000000adb0adb0adb",
  "nTx": 1,
  "previousblockhash": "0000000096c03ecac0f1f4ee4c253505ee03a16b27d81327861edfbc360ca9d3",
  "nextblockhash": "00000000c8b3400f3b915a80c702a6a75c4be65f6fce1ae88aae5510125420c7",
  "strippedsize": 216,
  "size": 216,
  "weight": 864,
  "tx": [
    {
      "txid": "17c23a3162e0fbad304456889ccefc5878045d9c9d969ba47055c8df4c7747ea",
      "hash": "17c23a3162e0fbad304456889ccefc5878045d9c9d969ba47055c8df4c7747ea",
      "version": 1,
      "size": 135,
      "vsize": 135,
      "weight": 540,
      "locktime": 0,
      "vin": [
        {
          "coinbase": "04ffff001d02ed05",
          "sequence": 4294967295
        }
      ],
      "vout": [
        {
          "value": 50.0,
          "n": 0,
          "scriptPubKey": {
            "asm": "04ee2dc04ceb7e27b9431f5828db092fef36c982ce3d63c0c7f8037331581353bcc96a47030c9e388a3c901fd7fb831876eed6d0a7b8cb0ab94eeab7828da3b722 OP_CHECKSIG",
            "desc": "pk(04ee2dc04ceb7e27b9431f5828db092fef36c982ce3d63c0c7f8037331581353bcc96a47030c9e388a3c901fd7fb831876eed6d0a7b8cb0ab94eeab7828da3b722)#qggdgc78",
            "hex": "4104ee2dc04ceb7e27b9431f5828db092fef36c982ce3d63c0c7f8037331581353bcc96a47030c9e388a3c901fd7fb831876eed6d0a7b8cb0ab94eeab7828da3b722ac",
            "type": "pubkey"
          }
        }
      ],
      "hex": "01000000010000000000000000000000000000000000000000000000000000000000000000ffffffff0804ffff001d02ed05ffffffff0100f2052a01000000434104ee2dc04ceb7e27b9431f5828db092fef36c982ce3d63c0c7f8037331581353bcc96a47030c9e388a3c901fd7fb831876eed6d0a7b8cb0ab94eeab7828da3b722ac00000000"
    }
  ]
}