{
  "hash": "00000000928daa509077bb7de093159fb5af09035713efd177c580b4b22b1f2b",
  "confirmations": 51484,
  "height": 1614,
  "version": 1,
  "versionHex": "00000001",
  "merkleroot": "1957ace81177bc5bef056a3692fca35b802e0bba20e919bbebb55ddfe17f3888",
  "time": 1232817138,
  "mediantime": 1232815318,
  "nonce": 55943111,
  "bits": "1d00ffff",
  "difficulty": 1,
  "chainwork": "0000000000000000000000000000000000000000000000000000064f064f064f",
  "nTx": 1,
  "previousblockhash": "00000000e8221c0f6f0f42336add588eb183969abc5bf0d967fb60fa3987a698",
  "nextblockhash": "0000000098c7727f332946230e251548a8a2b896e7f8727d416162f71b8b34bd",
  "strippedsize": 216,
  "size": 216,
  "weight": 864,
  "tx": [
    {
      "txid": "1957ace81177bc5bef056a3692fca35b802e0bba20e919bbebb55ddfe17f3888",
      "hash": "1957ace81177bc5bef056a3692fca35b802e0bba20e919bbebb55ddfe17f3888",
      "version": 1,
      "size": 135,
      "vsize": 135,
      "weight": 540,
      "locktime": 0,
      "vin": [
        {
          "coinbase": "04ffff001d02ca03",
          "sequence": 4294967295
        }
      ],
      "vout": [
        {
          "value": 50.0,
          "n": 0,
          "scriptPubKey": {
            "asm": "04af014a6f1bc14172ed92832c15b3645ae8eff7195bba45014f6ca8ca9092d6b6c3310695b96782057fdc5e3ce160ec308f82072425eacd24e499dbb38a120832 OP_CHECKSIG",
            "desc": "pk(04af014a6f1bc14172ed92832c15b3645ae8eff7195bba45014f6ca8ca9092d6b6c3310695b96782057fdc5e3ce160ec308f82072425eacd24e499dbb38a120832)#xxkpx3qt",
            "hex": "4104af014a6f1bc14172ed92832c15b3645ae8eff7195bba45014f6ca8ca9092d6b6c3310695b96782057fdc5e3ce160ec308f82072425eacd24e499dbb38a120832ac",
            "type": "pubkey"
          }
        }
      ],
      "hex": "01000000010000000000000000000000000000000000000000000000000000000000000000ffffffff0804ffff001d02ca03ffffffff0100f2052a01000000434104af014a6f1bc14172ed92832c15b3645ae8eff7195bba45014f6ca8ca9092d6b6c3310695b96782057fdc5e3ce160ec308f82072425eacd24e499dbb38a120832ac00000000"
    }
  ]
}