{
  "hash": "00000000b7fba4fb7744c2b2e8395048facd9c2e8f11ff077996c49d738e1777",
  "confirmations": 45228,
  "height": 7870,
  "version": 1,
  "versionHex": "00000001",
  "merkleroot": "09919f63e84c59ecd06b8e897dfe65af567c22ffd0ac5b9580fa5bcdb8eb6db0",
  "time": 1237367207,
  "mediantime": 1237363177,
  "nonce": 2913274389,
  "bits": "1d00ffff",
  "difficulty": 1,
  "chainwork": "00000000000000000000000000000000000000000000000000001ebf1ebf1ebf",
  "nTx": 1,
  "previousblockhash": "00000000502a828323486f0c50c163f950f29631fdf3b3e3c46fca18a148ff4e",
  "nextblockhash": "00000000d90f1872204bc72859cc3c6e1462ea1b3a46fca9d0a766ad250e007f",
  "strippedsize": 216,
  "size": 216,
  "weight": 864,
  "tx": [
    {
      "txid": "09919f63e84c59ecd06b8e897dfe65af567c22ffd0ac5b9580fa5bcdb8eb6db0",
      "hash": "09919f63e84c59ecd06b8e897dfe65af567c22ffd0ac5b9580fa5bcdb8eb6db0",
      "version": 1,
      "size": 135,
      "vsize": 135,
      "weight": 540,
      "locktime": 0,
      "vin": [
        {
          "coinbase": "04ffff001d020707",
          "sequence": 4294967295
        }
      ],
      "vout": [
        {
          "value": 50.0,
          "n": 0,
          "scriptPubKey": {
            "asm": "04c5b39a6a4dee6a07602fd81b29e72bd44e22bf9f608eaf2e90af36c882692ecee3eba13dacbd4b6c2f292e2a54246c078238fdfb7e4e20b4676c1de03708381b OP_CHECKSIG",
            "desc": "pk(04c5b39a6a4dee6a07602fd81b29e72bd44e22bf9f608eaf2e90af36c882692ecee3eba13dacbd4b6c2f292e2a54246c078238fdfb7e4e20b4676c1de03708381b)#ltdv50r4",
            "hex": "4104c5b39a6a4dee6a07602fd81b29e72bd44e22bf9f608eaf2e90af36c882692ecee3eba13dacbd4b6c2f292e2a54246c078238fdfb7e4e20b4676c1de03708381bac",
            "type": "pubkey"
          }
        }
      ],
      "hex": "01000000010000000000000000000000000000000000000000000000000000000000000000ffffffff0804ffff001d020707ffffffff0100f2052a01000000434104c5b39a6a4dee6a07602fd81b29e72bd44e22bf9f608eaf2e90af36c882692ecee3eba13dacbd4b6c2f292e2a54246c078238fdfb7e4e20b4676c1de03708381bac00000000"
    }
  ]
}