{
  "hash": "0000000087fcd7726f26681d9506771adc62d8da278f88c3c98034029377ab32",
  "confirmations": 49713,
  "height": 3385,
  "version": 1,
  "versionHex": "00000001",
  "merkleroot": "2a3dffe4fc22e20223d2db5d4307f7c0348ca5a6958988cee79948dc2772be46",
  "time": 1234027307,
  "mediantime": 1234024313,
  "nonce": 1984523578,
  "bits": "1d00ffff",
  "difficulty": 1,
  "chainwork": "00000000000000000000000000000000000000000000000000000d3a0d3a0d3a",
  "nTx": 1,
  "previousblockhash": "0000000022e3e4ef2ddcd5a8dc6c14f18d7bacfdf4a8456da9afd403ede4c107",
  "nextblockhash": "0000000045cadc125b19fe38a76994fa407281949a4a88b4745de306e92dee4f",
  "strippedsize": 216,
  "size": 216,
  "weight": 864,
  "tx": [
    {
      "txid": "2a3dffe4fc22e20223d2db5d4307f7c0348ca5a6958988cee79948dc2772be46",
      "hash": "2a3dffe4fc22e20223d2db5d4307f7c0348ca5a6958988cee79948dc2772be46",
      "version": 1,
      "size": 135,
      "vsize": 135,
      "weight": 540,
      "locktime": 0,
      "vin": [
        {
          "coinbase": "04ffff001d029305",
          "sequence": 4294967295
        }
      ],
      "vout": [
        {
          "value": 50.0,
          "n": 0,
          "scriptPubKey": {
            "asm": "049ee0fb17da0efb37088d0d4f7fbed81655fde133982feded56fd2451858974d89ab5a23af4f184b0aa8333a2b2cdc4cd7e0926b229fafc8a48ea2c66a511c8d8 OP_CHECKSIG",
            "desc": "pk(049ee0fb17da0efb37088d0d4f7fbed81655fde133982feded56fd2451858974d89ab5a23af4f184b0aa8333a2b2cdc4cd7e0926b229fafc8a48ea2c66a511c8d8)#sxtjqesk",
            "hex": "41049ee0fb17da0efb37088d0d4f7fbed81655fde133982feded56fd2451858974d89ab5a23af4f184b0aa8333a2b2cdc4cd7e0926b229fafc8a48ea2c66a511c8d8ac",
            "type": "pubkey"
          }
        }
      ],
      "hex": "01000000010000000000000000000000000000000000000000000000000000000000000000ffffffff0804ffff001d029305ffffffff0100f2052a010000004341049ee0fb17da0efb37088d0d4f7fbed81655fde133982feded56fd2451858974d89ab5a23af4f184b0aa8333a2b2cdc4cd7e0926b229fafc8a48ea2c66a511c8d8ac00000000"
    }
  ]
}