{
  "hash": "000000001a0f24c25c6192f7be8c9a0955a1d645c948c0bc47adbbaebcd754bb",
  "confirmations": 46791,
  "height": 6307,
  "version": 1,
  "versionHex": "00000001",
  "merkleroot": "5e8bdf6ccd4a18f769187b5a98e70025f6538050145a8039c055b6599510539a",
  "time": 1236177370,
  "mediantime": 1236174973,
  "nonce": 213131003,
  "bits": "1d00ffff",
  "difficulty": 1,
  "chainwork": "000000000000000000000000000000000000000000000000000018a418a418a4",
  "nTx": 1,
  "previousblockhash": "00000000db621826b75e25998e9dcbced0259ebe8dd10386611797139052a6c4",
  "nextblockhash": "0000000053a3118668459bbae5707b06702966d5100c9c96a9dfcfd2476f32ed",
  "strippedsize": 216,
  "size": 216,
  "weight": 864,
  "tx": [
    {
      "txid": "5e8bdf6ccd4a18f769187b5a98e70025f6538050145a8039c055b6599510539a",
      "hash": "5e8bdf6ccd4a18f769187b5a98e70025f6538050145a8039c055b6599510539a",
      "version": 1,
      "size": 135,
      "vsize": 135,
      "weight": 540,
      "locktime": 0,
      "vin": [
        {
          "coinbase": "04ffff001d02d800",
          "sequence": 4294967295
        }
      ],
      "vout": [
        {
          "value": 50.0,
          "n": 0,
          "scriptPubKey": {
            "asm": "0454c2b5f04afee91ab5231532e22fbd26fb525237955761771231c110ecd89d7f8ede51c39ffd2160458181b7ca3eb5d3b34d441de908e0086aca4785950b4cac OP_CHECKSIG",
            "desc": "pk(0454c2b5f04afee91ab5231532e22fbd26fb525237955761771231c110ecd89d7f8ede51c39ffd2160458181b7ca3eb5d3b34d441de908e0086aca4785950b4cac)#ay938kzd",
            "hex": "410454c2b5f04afee91ab5231532e22fbd26fb525237955761771231c110ecd89d7f8ede51c39ffd2160458181b7ca3eb5d3b34d441de908e0086aca4785950b4cacac",
            "type": "pubkey"
          }
        }
      ],
      "hex": "01000000010000000000000000000000000000000000000000000000000000000000000000ffffffff0804ffff001d02d800ffffffff0100f2052a0100000043410454c2b5f04afee91ab5231532e22fbd26fb525237955761771231c110ecd89d7f8ede51c39ffd2160458181b7ca3eb5d3b34d441de908e0086aca4785950b4cacac00000000"
    }
  ]
}