{
  "hash": "00000000e16d5dc0f9902480f1897956b02f30c5a2d5b88c4a1064488f09c7c2",
  "confirmations": 43550,
  "height": 9548,
  "version": 1,
  "versionHex": "00000001",
  "merkleroot": "c4772fbf2a6858697eaa6257aeb28cc89b1e362cd0cda2a1a64abe995fb294ed",
  "time": 1238661618,
  "mediantime": 1238655841,
  "nonce": 657355780,
  "bits": "1d00ffff",
  "difficulty": 1,
  "chainwork": "0000000000000000000000000000000000000000000000000000254d254d254d",
  "nTx": 1,
  "previousblockhash": "00000000585855b0d4b1f4554469203b2c5cba21a1130633f7e54c1bf077ef11",
  "nextblockhash": "00000000abe18f9019c0069f6162b3e21d68e99e864c12e637197931e07182fe",
  "strippedsize": 216,
  "size": 216,
  "weight": 864,
  "tx": [
    {
      "txid": "c4772fbf2a6858697eaa6257aeb28cc89b1e362cd0cda2a1a64abe995fb294ed",
      "hash": "c4772fbf2a6858697eaa6257aeb28cc89b1e362cd0cda2a1a64abe995fb294ed",
      "version": 1,
      "size": 135,
      "vsize": 135,
      "weight": 540,
      "locktime": 0,
      "vin": [
        {
          "coinbase": "04ffff001d020906",
          "sequence": 4294967295
        }
      ],
      "vout": [
        {
          "value": 50.0,
          "n": 0,
          "scriptPubKey": {
            "asm": "0491c4d818d6403f03c227a86af512cc8ffe3e433b622d1705365edde2bc3236a02d0cf7adaa016e4a0327f18e4790bdf611ad1e9f55bb29eb66342304985b8d85 OP_CHECKSIG",
            "desc": "pk(0491c4d818d6403f03c227a86af512cc8ffe3e433b622d1705365edde2bc3236a02d0cf7adaa016e4a0327f18e4790bdf611ad1e9f55bb29eb66342304985b8d85)#c29d9m6u",
            "hex": "410491c4d818d6403f03c227a86af512cc8ffe3e433b622d1705365edde2bc3236a02d0cf7adaa016e4a0327f18e4790bdf611ad1e9f55bb29eb66342304985b8d85ac",
            "type": "pubkey"
          }
        }
      ],
      "hex": "01000000010000000000000000000000000000000000000000000000000000000000000000ffffffff0804ffff001d020906ffffffff0100f2052a0100000043410491c4d818d6403f03c227a86af512cc8ffe3e433b622d1705365edde2bc3236a02d0cf7adaa016e4a0327f18e4790bdf611ad1e9f55bb29eb66342304985b8d85ac00000000"
    }
  ]
}