{
  "hash": "000000000173afcf79614b471d2956e6f6419ea33c6adf8201d7638a2c00ec1f",
  "confirmations": 50803,
  "height": 2295,
  "version": 1,
  "versionHex": "00000001",
  "merkleroot": "03ab43db30d6d51deec6ce765a0dd2ae626eff48c3110c2a5588df5a06635d97",
  "time": 1233277239,
  "mediantime": 1233274333,
  "nonce": 3870351909,
  "bits": "1d00ffff",
  "difficulty": 1,
  "chainwork": "000000000000000000000000000000000000000000000000000008f808f808f8",
  "nTx": 1,
  "previousblockhash": "0000000018f5849fabd683aa992bea25e2d9c8a7d8744dca5f67176d414d7df6",
  "nextblockhash": "0000000007df4a6e603db155f76ea469131b1ba6c8e1aed5179ef5c29108c92a",
  "strippedsize": 216,
  "size": 216,
  "weight": 864,
  "tx": [
    {
      "txid": "03ab43db30d6d51deec6ce765a0dd2ae626eff48c3110c2a5588df5a06635d97",
      "hash": "03ab43db30d6d51deec6ce765a0dd2ae626eff48c3110c2a5588df5a06635d97",
      "version": 1,
      "size": 135,
      "vsize": 135,
      "weight": 540,
      "locktime": 0,
      "vin": [
        {
          "coinbase": "04ffff001d029d01",
          "sequence": 4294967295
        }
      ],
      "vout": [
        {
          "value": 50.0,
          "n": 0,
          "scriptPubKey": {
            "asm": "04c03277c0f1453107b6ece49c870b12d9b09013e799e53655a6945e620de7baea36cf5ecb59c466cb62a541a6f2bc27d7947adf178227a8f56e85c12cd5d65725 OP_CHECKSIG",
            "desc": "pk(04c03277c0f1453107b6ece49c870b12d9b09013e799e53655a6945e620de7baea36cf5ecb59c466cb62a541a6f2bc27d7947adf178227a8f56e85c12cd5d65725)#yklc0pn9",
            "hex": "4104c03277c0f1453107b6ece49c870b12d9b09013e799e53655a6945e620de7baea36cf5ecb59c466cb62a541a6f2bc27d7947adf178227a8f56e85c12cd5d65725ac",
            "type": "pubkey"
          }
        }
      ],
      "hex": "01000000010000000000000000000000000000000000000000000000000000000000000000ffffffff0804ffff001d029d01ffffffff0100f2052a01000000434104c03277c0f1453107b6ece49c870b12d9b09013e799e53655a6945e620de7baea36cf5ecb59c466cb62a541a6f2bc27d7947adf178227a8f56e85c12cd5d65725ac00000000"
    }
  ]
}