{
  "hash": "000000008f7e87c8897a365abbcaf5936bf4d7b5ab434794644de3d32a5666aa",
  "confirmations": 44438,
  "height": 8660,
  "version": 1,
  "versionHex": "00000001",
  "merkleroot": "fa831776f4128b6737a3d3c54abbc7781f88183a067bb1279a09c00ebffc5818",
  "time": 1237992915,
  "mediantime": 1237989227,
  "nonce": 63939890,
  "bits": "1d00ffff",
  "difficulty": 1,
  "chainwork": "000000000000000000000000000000000000000000000000000021d521d521d5",
  "nTx": 1,
  "previousblockhash": "00000000f027fe41b775800b11935115fe4889a786e83c19654e459e6b8446d1",
  "nextblockhash": "000000009cab60c85f4a391a5854bcf53ea52cb47d1e3173d190ebb9029a2f19",
  "strippedsize": 216,
  "size": 216,
  "weight": 864,
  "tx": [
    {
      "txid": "fa831776f4128b6737a3d3c54abbc7781f88183a067bb1279a09c00ebffc5818",
      "hash": "fa831776f4128b6737a3d3c54abbc7781f88183a067bb1279a09c00ebffc5818",
      "version": 1,
      "size": 135,
      "vsize": 135,
      "weight": 540,
      "locktime": 0,
      "vin": [
        {
          "coinbase": "04ffff001d029902",
          "sequence": 4294967295
        }
      ],
      "vout": [
        {
          "value": 50.0,
          "n": 0,
          "scriptPubKey": {
            "asm": "0483877963b5eb2ae7adf23351c4fe6b9654ccec91ddf3035a4f8a3b293be211cb2cc1b8901e10a4190380d4f132a9ae53a1827a07fe3ab65d7cf1e6a5fbaddfed OP_CHECKSIG",
            "desc": "pk(0483877963b5eb2ae7adf23351c4fe6b9654ccec91ddf3035a4f8a3b293be211cb2cc1b8901e10a4190380d4f132a9ae53a1827a07fe3ab65d7cf1e6a5fbaddfed)#xgnhvhxx",
            "hex": "410483877963b5eb2ae7adf23351c4fe6b9654ccec91ddf3035a4f8a3b293be211cb2cc1b8901e10a4190380d4f132a9ae53a1827a07fe3ab65d7cf1e6a5fbaddfedac",
            "type": "pubkey"
          }
        }
      ],
      "hex": "01000000010000000000000000000000000000000000000000000000000000000000000000ffffffff0804ffff001d029902ffffffff0100f2052a0100000043410483877963b5eb2ae7adf23351c4fe6b9654ccec91ddf3035a4f8a3b293be211cb2cc1b8901e10a4190380d4f132a9ae53a1827a07fe3ab65d7cf1e6a5fbaddfedac00000000"
    }
  ]
}