{
  "hash": "00000000ac881b32a5b58f7e066abe65431ed3aff36c07d69add04b4aad503e5",
  "confirmations": 47182,
  "height": 5916,
  "version": 1,
  "versionHex": "00000001",
  "merkleroot": "8d148be5c483be2e83d3be08d57e75bee000da77c16ce0b039c18fcbac6fc9db",
  "time": 1235857689,
  "mediantime": 1235852329,
  "nonce": 3766631445,
  "bits": "1d00ffff",
  "difficulty": 1,
  "chainwork": "0000000000000000000000000000000000000000000000000000171d171d171d",
  "nTx": 1,
  "previousblockhash": "0000000098f7951febeb6d71c15e5fef937fd5f3813721f8a1ac0f410b1f39e3",
  "nextblockhash": "0000000040fa2efc3dfc985865619304637bd3f9d086ccd46879f8b5e8a31910",
  "strippedsize": 216,
  "size": 216,
  "weight": 864,
  "tx": [
    {
      "txid": "8d148be5c483be2e83d3be08d57e75bee000da77c16ce0b039c18fcbac6fc9db",
      "hash": "8d148be5c483be2e83d3be08d57e75bee000da77c16ce0b039c18fcbac6fc9db",
      "version": 1,
      "size": 135,
      "vsize": 135,
      "weight": 540,
      "locktime": 0,
      "vin": [
        {
          "coinbase": "04ffff001d025203",
          "sequence": 4294967295
        }
      ],
      "vout": [
        {
          "value": 50.0,
          "n": 0,
          "scriptPubKey": {
            "asm": "0445671ea30028d178b802b499fbf945fecce2e7898c3cc2ccb2c5600628246843954b6f5eaa4ca830af5b073bdddfc59564656a306a38e5a5f7f3f3c1b2e34078 OP_CHECKSIG",
            "desc": "pk(0445671ea30028d178b802b499fbf945fecce2e7898c3cc2ccb2c5600628246843954b6f5eaa4ca830af5b073bdddfc59564656a306a38e5a5f7f3f3c1b2e34078)#e7n3wfmj",
            "hex": "410445671ea30028d178b802b499fbf945fecce2e7898c3cc2ccb2c5600628246843954b6f5eaa4ca830af5b073bdddfc59564656a306a38e5a5f7f3f3c1b2e34078ac",
            "type": "pubkey"
          }
        }
      ],
      "hex": "01000000010000000000000000000000000000000000000000000000000000000000000000ffffffff0804ffff001d025203ffffffff0100f2052a0100000043410445671ea30028d178b802b499fbf945fecce2e7898c3cc2ccb2c5600628246843954b6f5eaa4ca830af5b073bdddfc59564656a306a38e5a5f7f3f3c1b2e34078ac00000000"
    }
  ]
}