{
  "hash": "000000007caa0b0b5926322a85cc521e6dd04b8b01474ea13044e530910e6e9d",
  "confirmations": 51482,
  "height": 1616,
  "version": 1,
  "versionHex": "00000001",
  "merkleroot": "339996ddefe78e83885a2eb5363af33ade4bf6a66f77a0866ceed4141614c8f1",
  "time": 1232818104,
  "mediantime": 1232816202,
  "nonce": 1058010167,
  "bits": "1d00ffff",
  "difficulty": 1,
  "chainwork": "0000000000000000000000000000000000000000000000000000065106510651",
  "nTx": 1,
  "previousblockhash": "0000000098c7727f332946230e251548a8a2b896e7f8727d416162f71b8b34bd",
  "nextblockhash": "00000000970de9b79c0e4f91652dd43ca9b779257fb57759f80e36e2c0835330",
  "strippedsize": 216,
  "size": 216,
  "weight": 864,
  "tx": [
    {
      "txid": "339996ddefe78e83885a2eb5363af33ade4bf6a66f77a0866ceed4141614c8f1",
      "hash": "339996ddefe78e83885a2eb5363af33ade4bf6a66f77a0866ceed4141614c8f1",
      "version": 1,
      "size": 135,
      "vsize": 135,
      "weight": 540,
      "locktime": 0,
      "vin": [
        {
          "coinbase": "04ffff001d022902",
          "sequence": 4294967295
        }
      ],
      "vout": [
        {
          "value": 50.0,
          "n": 0,
          "scriptPubKey": {
            "asm": "049e31f4950c13aae8acef219a7fc585cca43029056b89e7230ff3e08b5e49dedc579d7d2d83ac3b8116d5ba91c0d313980e1bbf5b64ed27ed72460070e46534ad OP_CHECKSIG",
            "desc": "pk(049e31f4950c13aae8acef219a7fc585cca43029056b89e7230ff3e08b5e49dedc579d7d2d83ac3b8116d5ba91c0d313980e1bbf5b64ed27ed72460070e46534ad)#5ftzyzl3",
            "hex": "41049e31f4950c13aae8acef219a7fc585cca43029056b89e7230ff3e08b5e49dedc579d7d2d83ac3b8116d5ba91c0d313980e1bbf5b64ed27ed72460070e46534adac",
            "type": "pubkey"
          }
        }
      ],
      "hex": "01000000010000000000000000000000000000000000000000000000000000000000000000ffffffff0804ffff001d022902ffffffff0100f2052a010000004341049e31f4950c13aae8acef219a7fc585cca43029056b89e7230ff3e08b5e49dedc579d7d2d83ac3b8116d5ba91c0d313980e1bbf5b64ed27ed72460070e46534adac00000000"
    }
  ]
}