{
  "hash": "00000000cb16523eebf2c9cf3e48a1b4986e83329c422f4fa8e5f7a75dcbdbaa",
  "confirmations": 45216,
  "height": 7882,
  "version": 1,
  "versionHex": "00000001",
  "merkleroot": "be122eb6afa5fcf178afb25af69ee5b48e845cb6addc089ae9c900d17de7bbd9",
  "time": 1237379007,
  "mediantime": 1237375553,
  "nonce": 3643494682,
  "bits": "1d00ffff",
  "difficulty": 1,
  "chainwork": "00000000000000000000000000000000000000000000000000001ecb1ecb1ecb",
  "nTx": 1,
  "previousblockhash": "00000000abbdfe0b7f53e2b4749e14076db5b620855bbef3c911a8f095c80daf",
  "nextblockhash": "0000000085a194d6ee90ede2b2ec84909ae810a659960dce5e3ee878b1b63384",
  "strippedsize": 216,
  "size": 216,
  "weight": 864,
  "tx": [
    {
      "txid": "be122eb6afa5fcf178afb25af69ee5b48e845cb6addc089ae9c900d17de7bbd9",
      "hash": "be122eb6afa5fcf178afb25af69ee5b48e845cb6addc089ae9c900d17de7bbd9",
      "version": 1,
      "size": 135,
      "vsize": 135,
      "weight": 540,
      "locktime": 0,
      "vin": [
        {
          "coinbase": "04ffff001d023007",
          "sequence": 4294967295
        }
      ],
      "vout": [
        {
          "value": 50.0,
          "n": 0,
          "scriptPubKey": {
            "asm": "041b4c1bee7459e0e1ffe0f59bf646cdfb80fa3f326fad93b04f6384f6bb1fe11ba804e3bb69e0ffd2890ae0a54f51faf70966c6eb020ac71daf034c909d979f86 OP_CHECKSIG",
            "desc": "pk(041b4c1bee7459e0e1ffe0f59bf646cdfb80fa3f326fad93b04f6384f6bb1fe11ba804e3bb69e0ffd2890ae0a54f51faf70966c6eb020ac71daf034c909d979f86)#qhfs6pga",
            "hex": "41041b4c1bee7459e0e1ffe0f59bf646cdfb80fa3f326fad93b04f6384f6bb1fe11ba804e3bb69e0ffd2890ae0a54f51faf70966c6eb020ac71daf034c909d979f86ac",
            "type": "pubkey"
          }
        }
      ],
      "hex": "01000000010000000000000000000000000000000000000000000000000000000000000000ffffffff0804ffff001d023007ffffffff0100f2052a010000004341041b4c1bee7459e0e1ffe0f59bf646cdfb80fa3f326fad93b04f6384f6bb1fe11ba804e3bb69e0ffd2890ae0a54f51faf70966c6eb020ac71daf034c909d979f86ac00000000"
    }
  ]
}