{
  "hash": "0000000071b1c0b324d78aeba8ba45cf79b02418572c93a66af8ab6b94c9dfbb",
  "confirmations": 45777,
  "height": 7321,
  "version": 1,
  "versionHex": "00000001",
  "merkleroot": "be92a8fdb6b4d0bcebfe9d3cb33dda2193b05a48a8bafdccd0c16bc56c217b10",
  "time": 1236962812,
  "mediantime": 1236960287,
  "nonce": 1616397353,
  "bits": "1d00ffff",
  "difficulty": 1,
  "chainwork": "00000000000000000000000000000000000000000000000000001c9a1c9a1c9a",
  "nTx": 1,
  "previousblockhash": "00000000316a89cc10bd7218f681b36ca5b9e761c0438e2617dc4fb8a1c65c8b",
  "nextblockhash": "00000000747689ddda175fd7d4153a8f9066c4fb4c9e8799c302814d1a1b678f",
  "strippedsize": 216,
  "size": 216,
  "weight": 864,
  "tx": [
    {
      "txid": "be92a8fdb6b4d0bcebfe9d3cb33dda2193b05a48a8bafdccd0c16bc56c217b10",
      "hash": "be92a8fdb6b4d0bcebfe9d3cb33dda2193b05a48a8bafdccd0c16bc56c217b10",
      "version": 1,
      "size": 135,
      "vsize": 135,
      "weight": 540,
      "locktime": 0,
      "vin": [
        {
          "coinbase": "04ffff001d02e307",
          "sequence": 4294967295
        }
      ],
      "vout": [
        {
          "value": 50.0,
          "n": 0,
          "scriptPubKey": {
            "asm": "0447a706d7dcd5536320165755630d2e39ecc6e5316084e01660c0e5bb29024fed40dffefb30033ae5061ca98d18761224720f31e6ce078a1847fbb40a1a2ec60e OP_CHECKSIG",
            "desc": "pk(0447a706d7dcd5536320165755630d2e39ecc6e5316084e01660c0e5bb29024fed40dffefb30033ae5061ca98d18761224720f31e6ce078a1847fbb40a1a2ec60e)#cj48uwg0",
            "hex": "410447a706d7dcd5536320165755630d2e39ecc6e5316084e01660c0e5bb29024fed40dffefb30033ae5061ca98d18761224720f31e6ce078a1847fbb40a1a2ec60eac",
            "type": "pubkey"
          }
        }
      ],
      "hex": "01000000010000000000000000000000000000000000000000000000000000000000000000ffffffff0804ffff001d02e307ffffffff0100f2052a0100000043410447a706d7dcd5536320165755630d2e39ecc6e5316084e01660c0e5bb29024fed40dffefb30033ae5061ca98d18761224720f31e6ce078a1847fbb40a1a2ec60eac00000000"
    }
  ]
}