{
  "hash": "000000005e2b0076ca0f6454bcd3f2444712c66865cf7d8ec7cb3a87e2e48471",
  "confirmations": 51695,
  "height": 1403,
  "version": 1,
  "versionHex": "00000001",
  "merkleroot": "f937cd3632781dd43a9740fb39c917d492427669adc1b67bebe9a7a903f29f61",
  "time": 1232727181,
  "mediantime": 1232721688,
  "nonce": 737400633,
  "bits": "1d00ffff",
  "difficulty": 1,
  "chainwork": "0000000000000000000000000000000000000000000000000000057c057c057c",
  "nTx": 1,
  "previousblockhash": "0000000055e06ca8b6fcdb26b4541cbd9b495d7dfbc5a4a0d24ba15254f0f45f",
  "nextblockhash": "00000000875ff922a83550005c33aaf82b6b76c1ef4d40b0d4b6e021224fd2ab",
  "strippedsize": 215,
  "size": 215,
  "weight": 860,
  "tx": [
    {
      "txid": "f937cd3632781dd43a9740fb39c917d492427669adc1b67bebe9a7a903f29f61",
      "hash": "f937cd3632781dd43a9740fb39c917d492427669adc1b67bebe9a7a903f29f61",
      "version": 1,
      "size": 134,
      "vsize": 134,
      "weight": 536,
      "locktime": 0,
      "vin": [
        {
          "coinbase": "04ffff001d010f",
          "sequence": 4294967295
        }
      ],
      "vout": [
        {
          "value": 50.0,
          "n": 0,
          "scriptPubKey": {
            "asm": "042a379adc35c48f7c7e6bb19ecf6d06cfe662b8fd8155dcdea5362b326d6bb7762f7165b6315a8abccb53b9b5f05c694cdca6c78e3f496bb53f68e2128a3fea3f OP_CHECKSIG",
            "desc": "pk(042a379adc35c48f7c7e6bb19ecf6d06cfe662b8fd8155dcdea5362b326d6bb7762f7165b6315a8abccb53b9b5f05c694cdca6c78e3f496bb53f68e2128a3fea3f)#uhu7w6jq",
            "hex": "41042a379adc35c48f7c7e6bb19ecf6d06cfe662b8fd8155dcdea5362b326d6bb7762f7165b6315a8abccb53b9b5f05c694cdca6c78e3f496bb53f68e2128a3fea3fac",
            "type": "pubkey"
          }
        }
      ],
      "hex": "01000000010000000000000000000000000000000000000000000000000000000000000000ffffffff0704ffff001d010fffffffff0100f2052a010000004341042a379adc35c48f7c7e6bb19ecf6d06cfe662b8fd8155dcdea5362b326d6bb7762f7165b6315a8abccb53b9b5f05c694cdca6c78e3f496bb53f68e2128a3fea3fac00000000"
    }
  ]
}