{
  "hash": "000000007b308f42e27972faa8cfbdf1c9162f470095346450ca0246ba19e185",
  "confirmations": 50031,
  "height": 3067,
  "version": 1,
  "versionHex": "00000001",
  "merkleroot": "8b47a9f5b694e1fcbc2d675badd3e730dcd3bb49b852d05e03e3e25a0e506f9c",
  "time": 1233807443,
  "mediantime": 1233803378,
  "nonce": 1836198181,
  "bits": "1d00ffff",
  "difficulty": 1,
  "chainwork": "00000000000000000000000000000000000000000000000000000bfc0bfc0bfc",
  "nTx": 1,
  "previousblockhash": "000000003adfb72fcea0d3fd535ada443f3ea13f1df23c2c4557a428d09b5707",
  "nextblockhash": "0000000090a824325eb9cf4106e1b1972881aa1a822384bb9a78e812e16cbced",
  "strippedsize": 215,
  "size": 215,
  "weight": 860,
  "tx": [
    {
      "txid": "8b47a9f5b694e1fcbc2d675badd3e730dcd3bb49b852d05e03e3e25a0e506f9c",
      "hash": "8b47a9f5b694e1fcbc2d675badd3e730dcd3bb49b852d05e03e3e25a0e506f9c",
      "version": 1,
      "size": 134,
      "vsize": 134,
      "weight": 536,
      "locktime": 0,
      "vin": [
        {
          "coinbase": "04ffff001d017d",
          "sequence": 4294967295
        }
      ],
      "vout": [
        {
          "value": 50.0,
          "n": 0,
          "scriptPubKey": {
            "asm": "043b7f76b6f636d1de5a3e79448e24cf5232291ad5f63fdd3b523d611613aa1dc3ab2672b8e0bf7e20a8302d46ebef6170b23a763bd7df4e06673e3a1669dbd226 OP_CHECKSIG",
            "desc": "pk(043b7f76b6f636d1de5a3e79448e24cf5232291ad5f63fdd3b523d611613aa1dc3ab2672b8e0bf7e20a8302d46ebef6170b23a763bd7df4e06673e3a1669dbd226)#vgqyh4t9",
            "hex": "41043b7f76b6f636d1de5a3e79448e24cf5232291ad5f63fdd3b523d611613aa1dc3ab2672b8e0bf7e20a8302d46ebef6170b23a763bd7df4e06673e3a1669dbd226ac",
            "type": "pubkey"
          }
        }
      ],
      "hex": "01000000010000000000000000000000000000000000000000000000000000000000000000ffffffff0704ffff001d017dffffffff0100f2052a010000004341043b7f76b6f636d1de5a3e79448e24cf5232291ad5f63fdd3b523d611613aa1dc3ab2672b8e0bf7e20a8302d46ebef6170b23a763bd7df4e06673e3a1669dbd226ac00000000"
    }
  ]
}