{
  "hash": "000000006dcc7b6f3aabef0115fed3a5f7686157f6827a8e1d246cedc9e6c387",
  "confirmations": 47811,
  "height": 5287,
  "version": 1,
  "versionHex": "00000001",
  "merkleroot": "7c8640533e9870e41158381ee05276d9683a549e721c9c3154cacfed54eb1e03",
  "time": 1235349903,
  "mediantime": 1235346031,
  "nonce": 1239331370,
  "bits": "1d00ffff",
  "difficulty": 1,
  "chainwork": "000000000000000000000000000000000000000000000000000014a814a814a8",
  "nTx": 1,
  "previousblockhash": "000000005c9912b5b1fb72d43e990d730e8826dd1629d33214cbc74828eab8f4",
  "nextblockhash": "00000000fb24bae51783091ab736aa5a71c6a87fa1e44816236e9a6e97f8dee0",
  "strippedsize": 216,
  "size": 216,
  "weight": 864,
  "tx": [
    {
      "txid": "7c8640533e9870e41158381ee05276d9683a549e721c9c3154cacfed54eb1e03",
      "hash": "7c8640533e9870e41158381ee05276d9683a549e721c9c3154cacfed54eb1e03",
      "version": 1,
      "size": 135,
      "vsize": 135,
      "weight": 540,
      "locktime": 0,
      "vin": [
        {
          "coinbase": "04ffff001d02da01",
          "sequence": 4294967295
        }
      ],
      "vout": [
        {
          "value": 50.0,
          "n": 0,
          "scriptPubKey": {
            "asm": "04cca2cea58f005f8f689890872db4d51505dce18bbf67d27d267283c935d47201c30f5f4ca143202d61ac68a22da5b407fe4eb50af3902d01a89e6f3dfdc64fcb OP_CHECKSIG",
            "desc": "pk(04cca2cea58f005f8f689890872db4d51505dce18bbf67d27d267283c935d47201c30f5f4ca143202d61ac68a22da5b407fe4eb50af3902d01a89e6f3dfdc64fcb)#84cumgwr",
            "hex": "4104cca2cea58f005f8f689890872db4d51505dce18bbf67d27d267283c935d47201c30f5f4ca143202d61ac68a22da5b407fe4eb50af3902d01a89e6f3dfdc64fcbac",
            "type": "pubkey"
          }
        }
      ],
      "hex": "01000000010000000000000000000000000000000000000000000000000000000000000000ffffffff0804ffff001d02da01ffffffff0100f2052a01000000434104cca2cea58f005f8f689890872db4d51505dce18bbf67d27d267283c935d47201c30f5f4ca143202d61ac68a22da5b407fe4eb50af3902d01a89e6f3dfdc64fcbac00000000"
    }
  ]
}