{
  "hash": "000000002ca121063a1c4e01f11605a5fa2193972365c26e49439f5081b40acb",
  "confirmations": 45525,
  "height": 7573,
  "version": 1,
  "versionHex": "00000001",
  "merkleroot": "fa7ead516dec7c1ad96ff8cd08e1a580bf6f81881d9f2d33cfb4ed5fda2b82ce",
  "time": 1237149849,
  "mediantime": 1237148534,
  "nonce": 19355682,
  "bits": "1d00ffff",
  "difficulty": 1,
  "chainwork": "00000000000000000000000000000000000000000000000000001d961d961d96",
  "nTx": 1,
  "previousblockhash": "000000007682077f8453fc346491e6eba69684b2641012aadcd3f2c49b581d77",
  "nextblockhash": "0000000090be299a94be58d514ae5284df39d38359a6b3a9492363cdbfb4c7e5",
  "strippedsize": 216,
  "size": 216,
  "weight": 864,
  "tx": [
    {
      "txid": "fa7ead516dec7c1ad96ff8cd08e1a580bf6f81881d9f2d33cfb4ed5fda2b82ce",
      "hash": "fa7ead516dec7c1ad96ff8cd08e1a580bf6f81881d9f2d33cfb4ed5fda2b82ce",
      "version": 1,
      "size": 135,
      "vsize": 135,
      "weight": 540,
      "locktime": 0,
      "vin": [
        {
          "coinbase": "04ffff001d020801",
          "sequence": 4294967295
        }
      ],
      "vout": [
        {
          "value": 50.0,
          "n": 0,
          "scriptPubKey": {
            "asm": "04ebe9cbed103adbaadd74f11253ed6f7575d7e2e73997b433c512643c39d61832a4a6c55b82a50dddf83a315e9ca88bafd5020826f00f89e24bda9933a9a38df7 OP_CHECKSIG",
            "desc": "pk(04ebe9cbed103adbaadd74f11253ed6f7575d7e2e73997b433c512643c39d61832a4a6c55b82a50dddf83a315e9ca88bafd5020826f00f89e24bda9933a9a38df7)#gwfg70x8",
            "hex": "4104ebe9cbed103adbaadd74f11253ed6f7575d7e2e73997b433c512643c39d61832a4a6c55b82a50dddf83a315e9ca88bafd5020826f00f89e24bda9933a9a38df7ac",
            "type": "pubkey"
          }
        }
      ],
      "hex": "01000000010000000000000000000000000000000000000000000000000000000000000000ffffffff0804ffff001d020801ffffffff0100f2052a01000000434104ebe9cbed103adbaadd74f11253ed6f7575d7e2e73997b433c512643c39d61832a4a6c55b82a50dddf83a315e9ca88bafd5020826f00f89e24bda9933a9a38df7ac00000000"
    }
  ]
}