{
  "hash": "000000003ddeb377f8c85e3c7b1ac78715fbb90fe65a617d0c57c0a6f62baf94",
  "confirmations": 52210,
  "height": 411,
  "version": 1,
  "versionHex": "00000001",
  "merkleroot": "41fca09f4bba706f1ca59ebd601fb5ac18c37b4468cf98fa008a00118d241a68",
  "time": 1231910433,
  "mediantime": 1231906883,
  "nonce": 2031447605,
  "bits": "1d00ffff",
  "difficulty": 1,
  "chainwork": "0000000000000000000000000000000000000000000000000000019c019c019c",
  "nTx": 1,
  "previousblockhash": "000000009579d1a62c9b365682641a0a6d73fc047b93fc5ab4ea046ccd9877ef",
  "nextblockhash": "0000000072d95c134f9a33b8f94bfe96186efc32fe8c6d13bdc2a196e40e2df0",
  "strippedsize": 216,
  "size": 216,
  "weight": 864,
  "tx": [
    {
      "txid": "41fca09f4bba706f1ca59ebd601fb5ac18c37b4468cf98fa008a00118d241a68",
      "hash": "41fca09f4bba706f1ca59ebd601fb5ac18c37b4468cf98fa008a00118d241a68",
      "version": 1,
      "size": 135,
      "vsize": 135,
      "weight": 540,
      "locktime": 0,
      "vin": [
        {
          "coinbase": "04ffff001d02c602",
          "sequence": 4294967295
        }
      ],
      "vout": [
        {
          "value": 50.0,
          "n": 0,
          "scriptPubKey": {
            "asm": "046d8fdaa3f107f5a433af401e84cf9b1f716249ceacc2a774b9cddb1b237ef187adf2dc5c2949ac74dd6f28d212e03c613b7845f79f2b9f8f72d2cee6ea379a1e OP_CHECKSIG",
            "desc": "pk(046d8fdaa3f107f5a433af401e84cf9b1f716249ceacc2a774b9cddb1b237ef187adf2dc5c2949ac74dd6f28d212e03c613b7845f79f2b9f8f72d2cee6ea379a1e)#ljn6vtlh",
            "hex": "41046d8fdaa3f107f5a433af401e84cf9b1f716249ceacc2a774b9cddb1b237ef187adf2dc5c2949ac74dd6f28d212e03c613b7845f79f2b9f8f72d2cee6ea379a1eac",
            "type": "pubkey"
          }
        }
      ],
      "hex": "01000000010000000000000000000000000000000000000000000000000000000000000000ffffffff0804ffff001d02c602ffffffff0100f2052a010000004341046d8fdaa3f107f5a433af401e84cf9b1f716249ceacc2a774b9cddb1b237ef187adf2dc5c2949ac74dd6f28d212e03c613b7845f79f2b9f8f72d2cee6ea379a1eac00000000"
    }
  ]
}