{
  "hash": "000000007907807feab71ef29ce55b4ad6755861338ec4af11d3abd3cff29158",
  "confirmations": 49475,
  "height": 3623,
  "version": 1,
  "versionHex": "00000001",
  "merkleroot": "ef25585988b7024e75165db927f3c4e9dea96db44513273bc245718fecf29660",
  "time": 1234186721,
  "mediantime": 1234183855,
  "nonce": 52133873,
  "bits": "1d00ffff",
  "difficulty": 1,
  "chainwork": "00000000000000000000000000000000000000000000000000000e280e280e28",
  "nTx": 1,
  "previousblockhash": "00000000c188ff06f43ab85a24029db0b005ac3ef8cb5c2b45a1c8069cb44d00",
  "nextblockhash": "00000000cdd7bbb3ed07a08ac0a53de3d93dcb7448987b05e5c2f5476cf2733a",
  "strippedsize": 216,
  "size": 216,
  "weight": 864,
  "tx": [
    {
      "txid": "ef25585988b7024e75165db927f3c4e9dea96db44513273bc245718fecf29660",
      "hash": "ef25585988b7024e75165db927f3c4e9dea96db44513273bc245718fecf29660",
      "version": 1,
      "size": 135,
      "vsize": 135,
      "weight": 540,
      "locktime": 0,
      "vin": [
        {
          "coinbase": "04ffff001d02bd01",
          "sequence": 4294967295
        }
      ],
      "vout": [
        {
          "value": 50.0,
          "n": 0,
          "scriptPubKey": {
            "asm": "04ec96ea8685e7301c8141a722736905c78835ca5eeadcd52789cba3487d8bfb5fecbc68553bf3e66e2c31c54a8789d61e88e7b348012565d50358690be7b7ad24 OP_CHECKSIG",
            "desc": "pk(04ec96ea8685e7301c8141a722736905c78835ca5eeadcd52789cba3487d8bfb5fecbc68553bf3e66e2c31c54a8789d61e88e7b348012565d50358690be7b7ad24)#fyatzt7z",
            "hex": "4104ec96ea8685e7301c8141a722736905c78835ca5eeadcd52789cba3487d8bfb5fecbc68553bf3e66e2c31c54a8789d61e88e7b348012565d50358690be7b7ad24ac",
            "type": "pubkey"
          }
        }
      ],
      "hex": "01000000010000000000000000000000000000000000000000000000000000000000000000ffffffff0804ffff001d02bd01ffffffff0100f2052a01000000434104ec96ea8685e7301c8141a722736905c78835ca5eeadcd52789cba3487d8bfb5fecbc68553bf3e66e2c31c54a8789d61e88e7b348012565d50358690be7b7ad24ac00000000"
    }
  ]
}