{
  "hash": "0000000066ceada565012ca45bbb89e1e0596fe533ff42de13762d0170506103",
  "confirmations": 49030,
  "height": 4068,
  "version": 1,
  "versionHex": "00000001",
  "merkleroot": "46aeae8751ccc74a3187ec0c64aaf7d7923676737130f9672ab28554442acdee",
  "time": 1234490164,
  "mediantime": 1234487375,
  "nonce": 2418301237,
  "bits": "1d00ffff",
  "difficulty": 1,
  "chainwork": "00000000000000000000000000000000000000000000000000000fe50fe50fe5",
  "nTx": 1,
  "previousblockhash": "000000001954f619765a4dbdf8b50c507e02b6bb6dfd0a4d5fb71cc6f2d10887",
  "nextblockhash": "0000000033dc66152e26c981dcfc5e05d1cbbe3489e7f8df271dbc068b647ab9",
  "strippedsize": 216,
  "size": 216,
  "weight": 864,
  "tx": [
    {
      "txid": "46aeae8751ccc74a3187ec0c64aaf7d7923676737130f9672ab28554442acdee",
      "hash": "46aeae8751ccc74a3187ec0c64aaf7d7923676737130f9672ab28554442acdee",
      "version": 1,
      "size": 135,
      "vsize": 135,
      "weight": 540,
      "locktime": 0,
      "vin": [
        {
          "coinbase": "04ffff001d028205",
          "sequence": 4294967295
        }
      ],
      "vout": [
        {
          "value": 50.0,
          "n": 0,
          "scriptPubKey": {
            "asm": "042fa172d28350ebab4a5db0e09274df4009d3ff54c2252e36f2201074899731883fbd59a19adac24557449496e41be3b085079d1b46e22d81ec07b3befea5bfb9 OP_CHECKSIG",
            "desc": "pk(042fa172d28350ebab4a5db0e09274df4009d3ff54c2252e36f2201074899731883fbd59a19adac24557449496e41be3b085079d1b46e22d81ec07b3befea5bfb9)#jcs8etmd",
            "hex": "41042fa172d28350ebab4a5db0e09274df4009d3ff54c2252e36f2201074899731883fbd59a19adac24557449496e41be3b085079d1b46e22d81ec07b3befea5bfb9ac",
            "type": "pubkey"
          }
        }
      ],
      "hex": "01000000010000000000000000000000000000000000000000000000000000000000000000ffffffff0804ffff001d028205ffffffff0100f2052a010000004341042fa172d28350ebab4a5db0e09274df4009d3ff54c2252e36f2201074899731883fbd59a19adac24557449496e41be3b085079d1b46e22d81ec07b3befea5bfb9ac00000000"
    }
  ]
}