{
  "hash": "00000000e53b89b483821ae404e64476692089be8f9ef5338bbdd5d0519872cc",
  "confirmations": 47066,
  "height": 6032,
  "version": 1,
  "versionHex": "00000001",
  "merkleroot": "91de636d8acc6d845862542d32aa9ce4c1f8966ff635ba3c84b2406d1576fb6e",
  "time": 1235954735,
  "mediantime": 1235950787,
  "nonce": 2691239987,
  "bits": "1d00ffff",
  "difficulty": 1,
  "chainwork": "0000000000000000000000000000000000000000000000000000179117911791",
  "nTx": 1,
  "previousblockhash": "00000000baa224f76daf42a136ab75b975197b4dd93dad2168dc905bb800aea4",
  "nextblockhash": "00000000838f0bfcf42b11be09ad50111df5e838e7f58b1616fe121ba5bd330a",
  "strippedsize": 216,
  "size": 216,
  "weight": 864,
  "tx": [
    {
      "txid": "91de636d8acc6d845862542d32aa9ce4c1f8966ff635ba3c84b2406d1576fb6e",
      "hash": "91de636d8acc6d845862542d32aa9ce4c1f8966ff635ba3c84b2406d1576fb6e",
      "version": 1,
      "size": 135,
      "vsize": 135,
      "weight": 540,
      "locktime": 0,
      "vin": [
        {
          "coinbase": "04ffff001d029b05",
          "sequence": 4294967295
        }
      ],
      "vout": [
        {
          "value": 50.0,
          "n": 0,
          "scriptPubKey": {
            "asm": "04800609e49acff7de96163509b14c5314dfebae422a9642357796d512aa268d060a8647bd46fdbc539044f24ed9e749dd22d8efba7962a0f296686bdf0148dfbe OP_CHECKSIG",
            "desc": "pk(04800609e49acff7de96163509b14c5314dfebae422a9642357796d512aa268d060a8647bd46fdbc539044f24ed9e749dd22d8efba7962a0f296686bdf0148dfbe)#ysx6stad",
            "hex": "4104800609e49acff7de96163509b14c5314dfebae422a9642357796d512aa268d060a8647bd46fdbc539044f24ed9e749dd22d8efba7962a0f296686bdf0148dfbeac",
            "type": "pubkey"
          }
        }
      ],
      "hex": "01000000010000000000000000000000000000000000000000000000000000000000000000ffffffff0804ffff001d029b05ffffffff0100f2052a01000000434104800609e49acff7de96163509b14c5314dfebae422a9642357796d512aa268d060a8647bd46fdbc539044f24ed9e749dd22d8efba7962a0f296686bdf0148dfbeac00000000"
    }
  ]
}