{
  "hash": "00000000cbbb5d05c519f6b66c37dde9aedd45d835f2a95608654a2b7920745b",
  "confirmations": 47206,
  "height": 5892,
  "version": 1,
  "versionHex": "00000001",
  "merkleroot": "c5661bfa45ac8bb2f83d030b466b332bbb63362385feb4f687a37062e4fec39b",
  "time": 1235836945,
  "mediantime": 1235833892,
  "nonce": 166140986,
  "bits": "1d00ffff",
  "difficulty": 1,
  "chainwork": "0000000000000000000000000000000000000000000000000000170517051705",
  "nTx": 1,
  "previousblockhash": "00000000086bd4e5384c020d8bc39092076909bf77ce2090e81ea76ca188fc63",
  "nextblockhash": "00000000425e16548b84b87ec3c813ebc013eae6172b3e89f01fd78e34490b21",
  "strippedsize": 216,
  "size": 216,
  "weight": 864,
  "tx": [
    {
      "txid": "c5661bfa45ac8bb2f83d030b466b332bbb63362385feb4f687a37062e4fec39b",
      "hash": "c5661bfa45ac8bb2f83d030b466b332bbb63362385feb4f687a37062e4fec39b",
      "version": 1,
      "size": 135,
      "vsize": 135,
      "weight": 540,
      "locktime": 0,
      "vin": [
        {
          "coinbase": "04ffff001d02cf02",
          "sequence": 4294967295
        }
      ],
      "vout": [
        {
          "value": 50.0,
          "n": 0,
          "scriptPubKey": {
            "asm": "04020b6c95f4462f744684a170ba949adae36ba6df844fe988937a53c87502a4f2baf983f543c2abee6126aa8e32ae74b37fe3539857b7518e3952f0c7f64f29ea OP_CHECKSIG",
            "desc": "pk(04020b6c95f4462f744684a170ba949adae36ba6df844fe988937a53c87502a4f2baf983f543c2abee6126aa8e32ae74b37fe3539857b7518e3952f0c7f64f29ea)#2mq8wgmk",
            "hex": "4104020b6c95f4462f744684a170ba949adae36ba6df844fe988937a53c87502a4f2baf983f543c2abee6126aa8e32ae74b37fe3539857b7518e3952f0c7f64f29eaac",
            "type": "pubkey"
          }
        }
      ],
      "hex": "01000000010000000000000000000000000000000000000000000000000000000000000000ffffffff0804ffff001d02cf02ffffffff0100f2052a01000000434104020b6c95f4462f744684a170ba949adae36ba6df844fe988937a53c87502a4f2baf983f543c2abee6126aa8e32ae74b37fe3539857b7518e3952f0c7f64f29eaac00000000"
    }
  ]
}