{
  "hash": "000000008be5e6accefdb72a72d470f4e52c32cb3a4728f6b4da46d34bcaaa93",
  "confirmations": 43135,
  "height": 9963,
  "version": 1,
  "versionHex": "00000001",
  "merkleroot": "9c866b88b4d1ec394f6f872d597125900a69916164eae138338aa0a160128436",
  "time": 1238964883,
  "mediantime": 1238961101,
  "nonce": 2818149420,
  "bits": "1d00ffff",
  "difficulty": 1,
  "chainwork": "000000000000000000000000000000000000000000000000000026ec26ec26ec",
  "nTx": 1,
  "previousblockhash": "000000005f65e257463e644ea951e4146200de16272557610e806b79d8aef60f",
  "nextblockhash": "000000007eb86c59d99cec735679e8b12d6ddd1fae49f0e19a6b18bdd2929916",
  "strippedsize": 216,
  "size": 216,
  "weight": 864,
  "tx": [
    {
      "txid": "9c866b88b4d1ec394f6f872d597125900a69916164eae138338aa0a160128436",
      "hash": "9c866b88b4d1ec394f6f872d597125900a69916164eae138338aa0a160128436",
      "version": 1,
      "size": 135,
      "vsize": 135,
      "weight": 540,
      "locktime": 0,
      "vin": [
        {
          "coinbase": "04ffff001d02e402",
          "sequence": 4294967295
        }
      ],
      "vout": [
        {
          "value": 50.0,
          "n": 0,
          "scriptPubKey": {
            "asm": "0451b9a4f771448c638b2d6918e7817b90c83927ebce7de94777b1d9f3bb6391a941225a204bf6e63bb640c5f2258944f1a9b8cfebabe6f341c6dfb8387ddc98d3 OP_CHECKSIG",
            "desc": "pk(0451b9a4f771448c638b2d6918e7817b90c83927ebce7de94777b1d9f3bb6391a941225a204bf6e63bb640c5f2258944f1a9b8cfebabe6f341c6dfb8387ddc98d3)#s023mq80",
            "hex": "410451b9a4f771448c638b2d6918e7817b90c83927ebce7de94777b1d9f3bb6391a941225a204bf6e63bb640c5f2258944f1a9b8cfebabe6f341c6dfb8387ddc98d3ac",
            "type": "pubkey"
          }
        }
      ],
      "hex": "01000000010000000000000000000000000000000000000000000000000000000000000000ffffffff0804ffff001d02e402ffffffff0100f2052a0100000043410451b9a4f771448c638b2d6918e7817b90c83927ebce7de94777b1d9f3bb6391a941225a204bf6e63bb640c5f2258944f1a9b8cfebabe6f341c6dfb8387ddc98d3ac00000000"
    }
  ]
}