{
  "hash": "000000007b93b95654ad03260436f9b27c308df11093af38c73d2693637026a1",
  "confirmations": 43304,
  "height": 9794,
  "version": 1,
  "versionHex": "00000001",
  "merkleroot": "c8ff401e4fede23261d6013e9f0e978642d80bdc99ee7f8d1a7228eeabe3b34b",
  "time": 1238852816,
  "mediantime": 1238849363,
  "nonce": 1975328770,
  "bits": "1d00ffff",
  "difficulty": 1,
  "chainwork": "0000000000000000000000000000000000000000000000000000264326432643",
  "nTx": 1,
  "previousblockhash": "000000002508648db286c32d79c75430d76b6f76b0081c48fdbad7b5ad3b0e4f",
  "nextblockhash": "0000000048ef72a0db69d3fa9679d6a2ab5d71eb80d043089ea8fa423fafdc57",
  "strippedsize": 215,
  "size": 215,
  "weight": 860,
  "tx": [
    {
      "txid": "c8ff401e4fede23261d6013e9f0e978642d80bdc99ee7f8d1a7228eeabe3b34b",
      "hash": "c8ff401e4fede23261d6013e9f0e978642d80bdc99ee7f8d1a7228eeabe3b34b",
      "version": 1,
      "size": 134,
      "vsize": 134,
      "weight": 536,
      "locktime": 0,
      "vin": [
        {
          "coinbase": "04ffff001d0134",
          "sequence": 4294967295
        }
      ],
      "vout": [
        {
          "value": 50.0,
          "n": 0,
          "scriptPubKey": {
            "asm": "045db1c51a3a4806ab6818c2e1e20d4e6cd76b0024251ff68dc15f0ab928a19be165003761628a73ddc8414fcbedb29640109bf38694c1e5eaa41a3a76c971f5b4 OP_CHECKSIG",
            "desc": "pk(045db1c51a3a4806ab6818c2e1e20d4e6cd76b0024251ff68dc15f0ab928a19be165003761628a73ddc8414fcbedb29640109bf38694c1e5eaa41a3a76c971f5b4)#65t5xnyf",
            "hex": "41045db1c51a3a4806ab6818c2e1e20d4e6cd76b0024251ff68dc15f0ab928a19be165003761628a73ddc8414fcbedb29640109bf38694c1e5eaa41a3a76c971f5b4ac",
            "type": "pubkey"
          }
        }
      ],
      "hex": "01000000010000000000000000000000000000000000000000000000000000000000000000ffffffff0704ffff001d0134ffffffff0100f2052a010000004341045db1c51a3a4806ab6818c2e1e20d4e6cd76b0024251ff68dc15f0ab928a19be165003761628a73ddc8414fcbedb29640109bf38694c1e5eaa41a3a76c971f5b4ac00000000"
    }
  ]
}