{
  "hash": "00000000ff1f5a558c320074a15d59eaa0f05e98f7258075f69ad3303eb9c759",
  "confirmations": 52421,
  "height": 677,
  "version": 1,
  "versionHex": "00000001",
  "merkleroot": "079cf9524b419b491cacc076423f18290f63f1e24ee67b87a92dddde82fc034f",
  "time": 1232090447,
  "mediantime": 1232085703,
  "nonce": 2212271638,
  "bits": "1d00ffff",
  "difficulty": 1,
  "chainwork": "000000000000000000000000000000000000000000000000000002a602a602a6",
  "nTx": 1,
  "previousblockhash": "000000003ea24331e6028681e1d342c0f21a45c3e205f24ccd5298a6497d1c58",
  "nextblockhash": "00000000038ba6aef61ecafa4361db063b2b86f24202b0ac857253f13461eb5a",
  "strippedsize": 215,
  "size": 215,
  "weight": 860,
  "tx": [
    {
      "txid": "079cf9524b419b491cacc076423f18290f63f1e24ee67b87a92dddde82fc034f",
      "hash": "079cf9524b419b491cacc076423f18290f63f1e24ee67b87a92dddde82fc034f",
      "version": 1,
      "size": 134,
      "vsize": 134,
      "weight": 536,
      "locktime": 0,
      "vin": [
        {
          "coinbase": "04ffff001d0161",
          "sequence": 4294967295
        }
      ],
      "vout": [
        {
          "value": 50.0,
          "n": 0,
          "scriptPubKey": {
            "asm": "0406307788dfab7f8f53b6a24cfb330da1773112db67011d064c2a0e0f1aea55eaf246a418f9a132760c0394d246291f8d4a2184c080279bd0574dfd65d162bd0d OP_CHECKSIG",
            "desc": "pk(0406307788dfab7f8f53b6a24cfb330da1773112db67011d064c2a0e0f1aea55eaf246a418f9a132760c0394d246291f8d4a2184c080279bd0574dfd65d162bd0d)#y9syz8h5",
            "hex": "410406307788dfab7f8f53b6a24cfb330da1773112db67011d064c2a0e0f1aea55eaf246a418f9a132760c0394d246291f8d4a2184c080279bd0574dfd65d162bd0dac",
            "type": "pubkey"
          }
        }
      ],
      "hex": "01000000010000000000000000000000000000000000000000000000000000000000000000ffffffff0704ffff001d0161ffffffff0100f2052a0100000043410406307788dfab7f8f53b6a24cfb330da1773112db67011d064c2a0e0f1aea55eaf246a418f9a132760c0394d246291f8d4a2184c080279bd0574dfd65d162bd0dac00000000"
    }
  ]
}