{
  "hash": "000000005c66e047b5ed4244911c203fac9507adb6d8e378a15db84841751b6f",
  "confirmations": 51512,
  "height": 1586,
  "version": 1,
  "versionHex": "00000001",
  "merkleroot": "006307f9299e740aa7348c7ddd67e687686ed25471af2a6a43262fd2aa90f1ce",
  "time": 1232805403,
  "mediantime": 1232802907,
  "nonce": 515958838,
  "bits": "1d00ffff",
  "difficulty": 1,
  "chainwork": "0000000000000000000000000000000000000000000000000000063306330633",
  "nTx": 2,
  "previousblockhash": "00000000edf47e92dbe2219a8c71a66f10108a0cb87f7bbe0b6ed1db89bca085",
  "nextblockhash": "000000005b9cb994d9eb7d7cd8f9d1e5f7132826a601072a205b13ccb84f2237",
  "strippedsize": 1443,
  "size": 1443,
  "weight": 5772,
  "tx": [
    {
      "txid": "09ab282ebae0cc80834645c1b2fdf577aecf00690a1f2a530eb6fd8a52073f82",
      "hash": "09ab282ebae0cc80834645c1b2fdf577aecf00690a1f2a530eb6fd8a52073f82",
      "version": 1,
      "size": 135,
      "vsize": 135,
      "weight": 540,
      "locktime": 0,
      "vin": [
        {
          "coinbase": "04ffff001d02ea01",
          "sequence": 4294967295
        }
      ],
      "vout": [
        {
          "value": 50.0,
          "n": 0,
          "scriptPubKey": {
            "asm": "04d7b292523f2d52c526ce0f8f29df11b2dcf9f17eac9ed8c66ccc37500b893790a721e7a906d147f7be861ff5861f4b85cd6198daf2ffcdb4192e7dc6163107cf OP_CHECKSIG",
            "desc": "pk(04d7b292523f2d52c526ce0f8f29df11b2dcf9f17eac9ed8c66ccc37500b893790a721e7a906d147f7be861ff5861f4b85cd6198daf2ffcdb4192e7dc6163107cf)#tj4spnfl",
            "hex": "4104d7b292523f2d52c526ce0f8f29df11b2dcf9f17eac9ed8c66ccc37500b893790a721e7a906d147f7be861ff5861f4b85cd6198daf2ffcdb4192e7dc6163107cfac",
            "type": "pubkey"
          }
        }
      ],
      "hex": "01000000010000000000000000000000000000000000000000000000000000000000000000ffffffff0804ffff001d02ea01ffffffff0100f2052a01000000434104d7b292523f2d52c526ce0f8f29df11b2dcf9f17eac9ed8c66ccc37500b893790a721e7a906d147f7be861ff5861f4b85cd6198daf2ffcdb4192e7dc6163107cfac00000000"
    },
    {
      "txid": "3a5c037f79eda4d61925529dd68951b92c11642b224f0ff3230c4a79f117e8f6",
      "hash": "3a5c037f79eda4d61925529dd68951b92c11642b224f0ff3230c4a79f117e8f6",
      "version": 1,
      "size": 1227,
      "vsize": 1227,
      "weight": 4908,
      "locktime": 0,
      "vin": [
        {
          "txid": "c573fa0b836556ef379c91f937df4b898f1f8ce67bb45e5f0697bdc0b02f2442",
          "vout": 0,
          "scriptSig": {
            "asm": "3046022100bf0a84a40ae694b530c19ced181a1e932061e87acdc98a671adefff3abbdeab5022100e59e6816ea83fb5cc2a601edb8bf9e216ad80e4013b317151e90a41532b5d648[ALL]",
            "hex": "493046022100bf0a84a40ae694b530c19ced181a1e932061e87acdc98a671adefff3abbdeab5022100e59e6816ea83fb5cc2a601edb8bf9e216ad80e4013b317151e90a41532b5d64801"
          },
          "sequence": 4294967295
        },
        {
          "txid": "d3ac56135599af18bc7de4d211efa80b484fe59c872a419d99abba3cf5776f51",
          "vout": 0,
          "scriptSig": {
            "asm": "3046022100a6aa43e5845d20ed02902984950d6cb26bc023a55348504c50e00a2a10d1b93f02210080b10b0144924f5ad9d7c26ee17ac15b15942896ac4d73bd90d869ffb80acbdc[ALL]",
            "hex": "493046022100a6aa43e5845d20ed02902984950d6cb26bc023a55348504c50e00a2a10d1b93f02210080b10b0144924f5ad9d7c26ee17ac15b15942896ac4d73bd90d869ffb80acbdc01"
          },
          "sequence": 4294967295
        },
        {
          "txid": "8d250091c6a8f496c628e035adc2f2fee0791fc8fac77cf2fb192f6121114c5c",
          "vout": 0,
          "scriptSig": {
            "asm": "3045022100a86126835ca9c8a8e9d261af9c367981ad1a583d277ba0c335733c1e98f0956e0220440dffbaac20c19faa933876b1f7f2471c7ea76c344f8b6e034f3c5b75654cab[ALL]",
            "hex": "483045022100a86126835ca9c8a8e9d261af9c367981ad1a583d277ba0c335733c1e98f0956e0220440dffbaac20c19faa933876b1f7f2471c7ea76c344f8b6e034f3c5b75654cab01"
          },
          "sequence": 4294967295
        },
        {
          "txid": "4c29af3a9291947b2ce5588d02c02cfd2e771f4c46d8584ec286b5498e9a3d9a",
          "vout": 0,
          "scriptSig": {
            "asm": "304502203a131171f724cc80bc5e1025f7121369b670fd14b6780d1e4e5159f3746023b4022100e4f5e4be3e38c76e6d773111dc027c6215f0e2d1d3781f430cd68850352a9dc4[ALL]",
            "hex": "48304502203a131171f724cc80bc5e1025f7121369b670fd14b6780d1e4e5159f3746023b4022100e4f5e4be3e38c76e6d773111dc027c6215f0e2d1d3781f430cd68850352a9dc401"
          },
          "sequence": 4294967295
        },
        {
          "txid": "896f2a0db78a20d5deccb8ff050b2cd9ba000000b342ae9d80701da030306fa3",
          "vout": 0,
          "scriptSig": {
            "asm": "304502200524f00881c3a0655f2aa66a9d828606b5d80749156c15429075ac896eff4dba022100c5235e82e230257a9219a5a53b35dd554ad8205bc1ee8f70f96c05d0b0956534[ALL]",
            "hex": "48304502200524f00881c3a0655f2aa66a9d828606b5d80749156c15429075ac896eff4dba022100c5235e82e230257a9219a5a53b35dd554ad8205bc1ee8f70f96c05d0b095653401"
          },
          "sequence": 4294967295
        },
        {
          "txid": "295517df651e2092d6e3e810a1f83a1252599a28cb5d13156398385a3b269bb2",
          "vout": 0,
          "scriptSig": {
            "asm": "30450220529c7fe3795f9cda859092d1bdf2a9659c88d9e57805ac062cacad678fd552f5022100e6e8091c7ee0fdbdd6e576048b5122a44de7593e094667a2e25cc05f35893107[ALL]",
            "hex": "4830450220529c7fe3795f9cda859092d1bdf2a9659c88d9e57805ac062cacad678fd552f5022100e6e8091c7ee0fdbdd6e576048b5122a44de7593e094667a2e25cc05f3589310701"
          },
          "sequence": 4294967295
        },
        {
          "txid": "eabb0a6912af65d00d571793c5cd73b89949f5e2c9fa4cd5e4b165201883a7b4",
          "vout": 0,
          "scriptSig": {
            "asm": "30450220770c3dbb35bdfc5e198f8ae0ebda3c6b08d6fd1d6a562fa0315118db075041e6022100a372b0abafbda9eabb9f0cf10a7a6e98a02307587dc4fa09e559373a22725842[ALL]",
            "hex": "4830450220770c3dbb35bdfc5e198f8ae0ebda3c6b08d6fd1d6a562fa0315118db075041e6022100a372b0abafbda9eabb9f0cf10a7a6e98a02307587dc4fa09e559373a2272584201"
          },
          "sequence": 4294967295
        },
        {
          "txid": "d00f26134b9fbd2a92b863505667410a0319b79c7a72518cffba3a1728d67bd2",
          "vout": 0,
          "scriptSig": {
            "asm": "3045022054de840fcb22a4e1149d14b5d079339ac2da5913274f6026d73e0e9bc5579ff1022100c4b34fb1d4efa59ea4e130e1be4c3e5ec673e4726f08388157021d2149127eef[ALL]",
            "hex": "483045022054de840fcb22a4e1149d14b5d079339ac2da5913274f6026d73e0e9bc5579ff1022100c4b34fb1d4efa59ea4e130e1be4c3e5ec673e4726f08388157021d2149127eef01"
          },
          "sequence": 4294967295
        },
        {
          "txid": "7f2b9cc3438adcbb7b1aa78bb37bdf03ede17060fab5e7091e1e6488387cf3f0",
          "vout": 0,
          "scriptSig": {
            "asm": "30450220604b369e4005b30286ae528a8a644d0ad5d5bf849bb009e73a00db0c61eae091022100aff413a1f8e65b30c186c8ddf259cdff700888d99cee3311d87b3b11d8850f45[ALL]",
            "hex": "4830450220604b369e4005b30286ae528a8a644d0ad5d5bf849bb009e73a00db0c61eae091022100aff413a1f8e65b30c186c8ddf259cdff700888d99cee3311d87b3b11d8850f4501"
          },
          "sequence": 4294967295
        },
        {
          "txid": "7ef1364111de3a67ef23c1aec4ad1aa62851e1e71550f9a32bb40161caca62f9",
          "vout": 0,
          "scriptSig": {
            "asm": "304402203f1b85ff75902374480ddcb34be32809ae70b276311300996bdd28ee29b1caee0220435ef3ad3bbc0b1560aa3712de344ec8453a66c87f70f0cd499d1a8df82e0613[ALL]",
            "hex": "47304402203f1b85ff75902374480ddcb34be32809ae70b276311300996bdd28ee29b1caee0220435ef3ad3bbc0b1560aa3712de344ec8453a66c87f70f0cd499d1a8df82e061301"
          },
          "sequence": 4294967295
        }
      ],
      "vout": [
        {
          "value": 500.0,
          "n": 0,
          "scriptPubKey": {
            "asm": "04554a9abcde5e79acb2552e6159b287c72c9c31b1a2510a877e3c8dc3cb1780da707b2364a229a3e7df8cd09a8e2c477589035b3590a7f9cd624a227b5624c574 OP_CHECKSIG",
            "desc": "pk(04554a9abcde5e79acb2552e6159b287c72c9c31b1a2510a877e3c8dc3cb1780da707b2364a229a3e7df8cd09a8e2c477589035b3590a7f9cd624a227b5624c574)#7e0lkxmh",
            "hex": "4104554a9abcde5e79acb2552e6159b287c72c9c31b1a2510a877e3c8dc3cb1780da707b2364a229a3e7df8cd09a8e2c477589035b3590a7f9cd624a227b5624c574ac",
            "type": "pubkey"
          }
        }
      ],
      "fee": 0.0,
      "hex": "010000000a42242fb0c0bd97065f5eb47be68c1f8f894bdf37f9919c37ef5665830bfa73c5000000004a493046022100bf0a84a40ae694b530c19ced181a1e932061e87acdc98a671adefff3abbdeab5022100e59e6816ea83fb5cc2a601edb8bf9e216ad80e4013b317151e90a41532b5d64801ffffffff516f77f53cbaab999d412a879ce54f480ba8ef11d2e47dbc18af99551356acd3000000004a493046022100a6aa43e5845d20ed02902984950d6cb26bc023a55348504c50e00a2a10d1b93f02210080b10b0144924f5ad9d7c26ee17ac15b15942896ac4d73bd90d869ffb80acbdc01ffffffff5c4c1121612f19fbf27cc7fac81f79e0fef2c2ad35e028c696f4a8c69100258d0000000049483045022100a86126835ca9c8a8e9d261af9c367981ad1a583d277ba0c335733c1e98f0956e0220440dffbaac20c19faa933876b1f7f2471c7ea76c344f8b6e034f3c5b75654cab01ffffffff9a3d9a8e49b586c24e58d8464c1f772efd2cc0028d58e52c7b9491923aaf294c000000004948304502203a131171f724cc80bc5e1025f7121369b670fd14b6780d1e4e5159f3746023b4022100e4f5e4be3e38c76e6d773111dc027c6215f0e2d1d3781f430cd68850352a9dc401ffffffffa36f3030a01d70809dae42b3000000bad92c0b05ffb8ccded5208ab70d2a6f89000000004948304502200524f00881c3a0655f2aa66a9d828606b5d80749156c15429075ac896eff4dba022100c5235e82e230257a9219a5a53b35dd554ad8205bc1ee8f70f96c05d0b095653401ffffffffb29b263b5a38986315135dcb289a5952123af8a110e8e3d692201e65df17552900000000494830450220529c7fe3795f9cda859092d1bdf2a9659c88d9e57805ac062cacad678fd552f5022100e6e8091c7ee0fdbdd6e576048b5122a44de7593e094667a2e25cc05f3589310701ffffffffb4a783182065b1e4d54cfac9e2f54999b873cdc59317570dd065af12690abbea00000000494830450220770c3dbb35bdfc5e198f8ae0ebda3c6b08d6fd1d6a562fa0315118db075041e6022100a372b0abafbda9eabb9f0cf10a7a6e98a02307587dc4fa09e559373a2272584201ffffffffd27bd628173abaff8c51727a9cb719030a4167565063b8922abd9f4b13260fd00000000049483045022054de840fcb22a4e1149d14b5d079339ac2da5913274f6026d73e0e9bc5579ff1022100c4b34fb1d4efa59ea4e130e1be4c3e5ec673e4726f08388157021d2149127eef01fffffffff0f37c3888641e1e09e7b5fa6070e1ed03df7bb38ba71a7bbbdc8a43c39c2b7f00000000494830450220604b369e4005b30286ae528a8a644d0ad5d5bf849bb009e73a00db0c61eae091022100aff413a1f8e65b30c186c8ddf259cdff700888d99cee3311d87b3b11d8850f4501fffffffff962caca6101b42ba3f95015e7e15128a61aadc4aec123ef673ade114136f17e000000004847304402203f1b85ff75902374480ddcb34be32809ae70b276311300996bdd28ee29b1caee0220435ef3ad3bbc0b1560aa3712de344ec8453a66c87f70f0cd499d1a8df82e061301ffffffff0100743ba40b000000434104554a9abcde5e79acb2552e6159b287c72c9c31b1a2510a877e3c8dc3cb1780da707b2364a229a3e7df8cd09a8e2c477589035b3590a7f9cd624a227b5624c574ac00000000"
    }
  ]
}