{
  "hash": "000000006bc82a0fb19fb21a1ecc82238a37d1bc13849e72d10d4fc07566d6cd",
  "confirmations": 47500,
  "height": 5598,
  "version": 1,
  "versionHex": "00000001",
  "merkleroot": "e07f3d876ba474d6c01e7b1ace007bf8c5164b21566a1b49f7fd39dfec65ab05",
  "time": 1235600615,
  "mediantime": 1235595390,
  "nonce": 2234241577,
  "bits": "1d00ffff",
  "difficulty": 1,
  "chainwork": "000000000000000000000000000000000000000000000000000015df15df15df",
  "nTx": 1,
  "previousblockhash": "00000000fc8767ebdf7832b7dde1e63093aace9bb5ba0ebf81773dac6be08a67",
  "nextblockhash": "00000000eb82e342307f9f24cbf6a5518efa4ac1824b62bf4e2981a516211385",
  "strippedsize": 216,
  "size": 216,
  "weight": 864,
  "tx": [
    {
      "txid": "e07f3d876ba474d6c01e7b1ace007bf8c5164b21566a1b49f7fd39dfec65ab05",
      "hash": "e07f3d876ba474d6c01e7b1ace007bf8c5164b21566a1b49f7fd39dfec65ab05",
      "version": 1,
      "size": 135,
      "vsize": 135,
      "weight": 540,
      "locktime": 0,
      "vin": [
        {
          "coinbase": "04ffff001d029f07",
          "sequence": 4294967295
        }
      ],
      "vout": [
        {
          "value": 50.0,
          "n": 0,
          "scriptPubKey": {
            "asm": "043c08bd38d707b50d7dd328b2bf5ea901c88d02772a6ad0e0efd81f99b177de4bb04fb639fbea1c087a78c938f5ff92c46bc01fba51984d500c0de82c4e02e0d6 OP_CHECKSIG",
            "desc": "pk(043c08bd38d707b50d7dd328b2bf5ea901c88d02772a6ad0e0efd81f99b177de4bb04fb639fbea1c087a78c938f5ff92c46bc01fba51984d500c0de82c4e02e0d6)#cutr0qfs",
            "hex": "41043c08bd38d707b50d7dd328b2bf5ea901c88d02772a6ad0e0efd81f99b177de4bb04fb639fbea1c087a78c938f5ff92c46bc01fba51984d500c0de82c4e02e0d6ac",
            "type": "pubkey"
          }
        }
      ],
      "hex": "01000000010000000000000000000000000000000000000000000000000000000000000000ffffffff0804ffff001d029f07ffffffff0100f2052a010000004341043c08bd38d707b50d7dd328b2bf5ea901c88d02772a6ad0e0efd81f99b177de4bb04fb639fbea1c087a78c938f5ff92c46bc01fba51984d500c0de82c4e02e0d6ac00000000"
    }
  ]
}