{
  "hash": "00000000cc55e4386c9058a04888ac9680d2a767b3d7075dc0c680f5d699e548",
  "confirmations": 51656,
  "height": 1442,
  "version": 1,
  "versionHex": "00000001",
  "merkleroot": "5171afa8bc054acc00d438f8c43d136aae183f2e9f8f3714c13a9eb55df9f739",
  "time": 1232742894,
  "mediantime": 1232741180,
  "nonce": 2202916389,
  "bits": "1d00ffff",
  "difficulty": 1,
  "chainwork": "000000000000000000000000000000000000000000000000000005a305a305a3",
  "nTx": 1,
  "previousblockhash": "000000009ea40eadbe623ae735d05ed6b57dc821bcd1d871e1b032fe939f5c8b",
  "nextblockhash": "000000004504bbe882c8093ab41036ffd2ef264ad0b88ad96a2e56fa73aac44b",
  "strippedsize": 215,
  "size": 215,
  "weight": 860,
  "tx": [
    {
      "txid": "5171afa8bc054acc00d438f8c43d136aae183f2e9f8f3714c13a9eb55df9f739",
      "hash": "5171afa8bc054acc00d438f8c43d136aae183f2e9f8f3714c13a9eb55df9f739",
      "version": 1,
      "size": 134,
      "vsize": 134,
      "weight": 536,
      "locktime": 0,
      "vin": [
        {
          "coinbase": "04ffff001d017d",
          "sequence": 4294967295
        }
      ],
      "vout": [
        {
          "value": 50.0,
          "n": 0,
          "scriptPubKey": {
            "asm": "043f17e04f3ae1dc8c516d75f2d5378f3bb28c55fd463864597039f4470773461ec8c429d08d386165e6a132e171fc30c7d007d6e428e7facaf25826bfe93ae61c OP_CHECKSIG",
            "desc": "pk(043f17e04f3ae1dc8c516d75f2d5378f3bb28c55fd463864597039f4470773461ec8c429d08d386165e6a132e171fc30c7d007d6e428e7facaf25826bfe93ae61c)#65uj29xa",
            "hex": "41043f17e04f3ae1dc8c516d75f2d5378f3bb28c55fd463864597039f4470773461ec8c429d08d386165e6a132e171fc30c7d007d6e428e7facaf25826bfe93ae61cac",
            "type": "pubkey"
          }
        }
      ],
      "hex": "01000000010000000000000000000000000000000000000000000000000000000000000000ffffffff0704ffff001d017dffffffff0100f2052a010000004341043f17e04f3ae1dc8c516d75f2d5378f3bb28c55fd463864597039f4470773461ec8c429d08d386165e6a132e171fc30c7d007d6e428e7facaf25826bfe93ae61cac00000000"
    }
  ]
}