{
  "hash": "000000000a57f553200b9e3f48d7ad22ca71ff844dac64415964876d0c790c14",
  "confirmations": 45694,
  "height": 7404,
  "version": 1,
  "versionHex": "00000001",
  "merkleroot": "6dc20efe68c11caea3e3f2209ece5ae0f6fccb5996983d150ab543e7d2c42d19",
  "time": 1237025726,
  "mediantime": 1237023435,
  "nonce": 447794475,
  "bits": "1d00ffff",
  "difficulty": 1,
  "chainwork": "00000000000000000000000000000000000000000000000000001ced1ced1ced",
  "nTx": 1,
  "previousblockhash": "000000008d21062d92193f0ba21e2ee4adc5d959eb335c0ae8970c1bcb014b38",
  "nextblockhash": "00000000405b854cab1a2522e3c78e0af016ac98cf5f223f1ee85f56f9ece3e0",
  "strippedsize": 216,
  "size": 216,
  "weight": 864,
  "tx": [
    {
      "txid": "6dc20efe68c11caea3e3f2209ece5ae0f6fccb5996983d150ab543e7d2c42d19",
      "hash": "6dc20efe68c11caea3e3f2209ece5ae0f6fccb5996983d150ab543e7d2c42d19",
      "version": 1,
      "size": 135,
      "vsize": 135,
      "weight": 540,
      "locktime": 0,
      "vin": [
        {
          "coinbase": "04ffff001d027b09",
          "sequence": 4294967295
        }
      ],
      "vout": [
        {
          "value": 50.0,
          "n": 0,
          "scriptPubKey": {
            "asm": "04d945ba4a6f6d50527b8e0c8358640bea9a9d2d08420d4003a7438cbb51c83f861216c9deef65fda525d921da9b7f26e7f5b5bd545a965f8067cc5d2fc81f5d83 OP_CHECKSIG",
            "desc": "pk(04d945ba4a6f6d50527b8e0c8358640bea9a9d2d08420d4003a7438cbb51c83f861216c9deef65fda525d921da9b7f26e7f5b5bd545a965f8067cc5d2fc81f5d83)#lhz0n8x3",
            "hex": "4104d945ba4a6f6d50527b8e0c8358640bea9a9d2d08420d4003a7438cbb51c83f861216c9deef65fda525d921da9b7f26e7f5b5bd545a965f8067cc5d2fc81f5d83ac",
            "type": "pubkey"
          }
        }
      ],
      "hex": "01000000010000000000000000000000000000000000000000000000000000000000000000ffffffff0804ffff001d027b09ffffffff0100f2052a01000000434104d945ba4a6f6d50527b8e0c8358640bea9a9d2d08420d4003a7438cbb51c83f861216c9deef65fda525d921da9b7f26e7f5b5bd545a965f8067cc5d2fc81f5d83ac00000000"
    }
  ]
}