{
  "hash": "00000000772098ea65f8e416b61d0a6961be640e203bc73c8b1a8381280679fe",
  "confirmations": 43323,
  "height": 9775,
  "version": 1,
  "versionHex": "00000001",
  "merkleroot": "0fd31431bc26dc051a824127496d12664aee2403d7459613b36ab787109e277f",
  "time": 1238837529,
  "mediantime": 1238833685,
  "nonce": 8419514,
  "bits": "1d00ffff",
  "difficulty": 1,
  "chainwork": "0000000000000000000000000000000000000000000000000000263026302630",
  "nTx": 1,
  "previousblockhash": "000000002f38afb1f789c456dbb17a86305252aef07fe850f91bc8aeb97163fe",
  "nextblockhash": "00000000cd0331eb9abf1d189468f0184395469dfe34e01ce6e505a64878c1d8",
  "strippedsize": 215,
  "size": 215,
  "weight": 860,
  "tx": [
    {
      "txid": "0fd31431bc26dc051a824127496d12664aee2403d7459613b36ab787109e277f",
      "hash": "0fd31431bc26dc051a824127496d12664aee2403d7459613b36ab787109e277f",
      "version": 1,
      "size": 134,
      "vsize": 134,
      "weight": 536,
      "locktime": 0,
      "vin": [
        {
          "coinbase": "04ffff001d011e",
          "sequence": 4294967295
        }
      ],
      "vout": [
        {
          "value": 50.0,
          "n": 0,
          "scriptPubKey": {
            "asm": "04350db3f49ec658c732c686b8a1b8975af702997226a92d10e4fa7dd94fbc3a1d3e8ca52c4defd43820e7309f1f0d3df15ecf3b2ad5a3a2f1e91caa03247303a9 OP_CHECKSIG",
            "desc": "pk(04350db3f49ec658c732c686b8a1b8975af702997226a92d10e4fa7dd94fbc3a1d3e8ca52c4defd43820e7309f1f0d3df15ecf3b2ad5a3a2f1e91caa03247303a9)#twwghzz9",
            "hex": "4104350db3f49ec658c732c686b8a1b8975af702997226a92d10e4fa7dd94fbc3a1d3e8ca52c4defd43820e7309f1f0d3df15ecf3b2ad5a3a2f1e91caa03247303a9ac",
            "type": "pubkey"
          }
        }
      ],
      "hex": "01000000010000000000000000000000000000000000000000000000000000000000000000ffffffff0704ffff001d011effffffff0100f2052a01000000434104350db3f49ec658c732c686b8a1b8975af702997226a92d10e4fa7dd94fbc3a1d3e8ca52c4defd43820e7309f1f0d3df15ecf3b2ad5a3a2f1e91caa03247303a9ac00000000"
    }
  ]
}