{
  "hash": "00000000f4d6e99c5cad59f196e206d0f713b52c0514ba5255a1deeaf0f0612c",
  "confirmations": 49736,
  "height": 3362,
  "version": 1,
  "versionHex": "00000001",
  "merkleroot": "99795fa2f98b53bb9126143ffb114daf69f5fbfb678e1ab7eedc0fd34fc41bf1",
  "time": 1234011206,
  "mediantime": 1234008261,
  "nonce": 1532009767,
  "bits": "1d00ffff",
  "difficulty": 1,
  "chainwork": "00000000000000000000000000000000000000000000000000000d230d230d23",
  "nTx": 1,
  "previousblockhash": "0000000029b508efdc4360bc1d0556778336d163be94e56dc081baf1f14d8a8d",
  "nextblockhash": "00000000c843444a37d3940480b25c8efc2634ed4e3749e70c3d62543fb35205",
  "strippedsize": 216,
  "size": 216,
  "weight": 864,
  "tx": [
    {
      "txid": "99795fa2f98b53bb9126143ffb114daf69f5fbfb678e1ab7eedc0fd34fc41bf1",
      "hash": "99795fa2f98b53bb9126143ffb114daf69f5fbfb678e1ab7eedc0fd34fc41bf1",
      "version": 1,
      "size": 135,
      "vsize": 135,
      "weight": 540,
      "locktime": 0,
      "vin": [
        {
          "coinbase": "04ffff001d024505",
          "sequence": 4294967295
        }
      ],
      "vout": [
        {
          "value": 50.0,
          "n": 0,
          "scriptPubKey": {
            "asm": "042f93f56be130d5c2429f85decace7e25314ee921541a00b2f9aca026b02ebf852e6f5dc56d5200082622b307f76bac62b57f36b157da51f8f4d9840b1e11bfcf OP_CHECKSIG",
            "desc": "pk(042f93f56be130d5c2429f85decace7e25314ee921541a00b2f9aca026b02ebf852e6f5dc56d5200082622b307f76bac62b57f36b157da51f8f4d9840b1e11bfcf)#m22nteaa",
            "hex": "41042f93f56be130d5c2429f85decace7e25314ee921541a00b2f9aca026b02ebf852e6f5dc56d5200082622b307f76bac62b57f36b157da51f8f4d9840b1e11bfcfac",
            "type": "pubkey"
          }
        }
      ],
      "hex": "01000000010000000000000000000000000000000000000000000000000000000000000000ffffffff0804ffff001d024505ffffffff0100f2052a010000004341042f93f56be130d5c2429f85decace7e25314ee921541a00b2f9aca026b02ebf852e6f5dc56d5200082622b307f76bac62b57f36b157da51f8f4d9840b1e11bfcfac00000000"
    }
  ]
}