{
  "hash": "00000000911afceb9077f749a2a13b7b29dc3ba50707c5d9dfba246405fd1066",
  "confirmations": 44558,
  "height": 8540,
  "version": 1,
  "versionHex": "00000001",
  "merkleroot": "195597cd5cad43a3e65afea5c7f8cccc6d2944c1323cd2cd5d2f67f8e1dc68e9",
  "time": 1237902870,
  "mediantime": 1237899041,
  "nonce": 3936733464,
  "bits": "1d00ffff",
  "difficulty": 1,
  "chainwork": "0000000000000000000000000000000000000000000000000000215d215d215d",
  "nTx": 1,
  "previousblockhash": "00000000ed62b53eecaa6da3feb43d84937f0d8b82cae4f77a78163f4dbd94fb",
  "nextblockhash": "00000000473b084fcbbb758d55663bf61e561da45d31c61cef1daaf74856a81c",
  "strippedsize": 216,
  "size": 216,
  "weight": 864,
  "tx": [
    {
      "txid": "195597cd5cad43a3e65afea5c7f8cccc6d2944c1323cd2cd5d2f67f8e1dc68e9",
      "hash": "195597cd5cad43a3e65afea5c7f8cccc6d2944c1323cd2cd5d2f67f8e1dc68e9",
      "version": 1,
      "size": 135,
      "vsize": 135,
      "weight": 540,
      "locktime": 0,
      "vin": [
        {
          "coinbase": "04ffff001d028208",
          "sequence": 4294967295
        }
      ],
      "vout": [
        {
          "value": 50.0,
          "n": 0,
          "scriptPubKey": {
            "asm": "0410e9c279bec4809199282a9cc32dc91919baaedde62c2e9b12e2ce158ed751c5118144b2994cfab9ae43106cb58efc2d0328e522c9b7978ea633d860223a79c5 OP_CHECKSIG",
            "desc": "pk(0410e9c279bec4809199282a9cc32dc91919baaedde62c2e9b12e2ce158ed751c5118144b2994cfab9ae43106cb58efc2d0328e522c9b7978ea633d860223a79c5)#vrxz0zxd",
            "hex": "410410e9c279bec4809199282a9cc32dc91919baaedde62c2e9b12e2ce158ed751c5118144b2994cfab9ae43106cb58efc2d0328e522c9b7978ea633d860223a79c5ac",
            "type": "pubkey"
          }
        }
      ],
      "hex": "01000000010000000000000000000000000000000000000000000000000000000000000000ffffffff0804ffff001d028208ffffffff0100f2052a0100000043410410e9c279bec4809199282a9cc32dc91919baaedde62c2e9b12e2ce158ed751c5118144b2994cfab9ae43106cb58efc2d0328e522c9b7978ea633d860223a79c5ac00000000"
    }
  ]
}