{
  "hash": "0000000007215fcf4eb06cf260013306b66fd92401f735861c4bb232d8352d17",
  "confirmations": 46635,
  "height": 6463,
  "version": 1,
  "versionHex": "00000001",
  "merkleroot": "ec1b3eeba0c8a65415ed3200e03763b6678507f4f2bff4ae7a32c6cc6ac45252",
  "time": 1236301906,
  "mediantime": 1236298982,
  "nonce": 7794298,
  "bits": "1d00ffff",
  "difficulty": 1,
  "chainwork": "0000000000000000000000000000000000000000000000000000194019401940",
  "nTx": 1,
  "previousblockhash": "00000000494442377d4e296cf505b688e7dd90f5c4fe6f903884b92ff997b659",
  "nextblockhash": "00000000d17bc95524605afd683baeef808993f1c615e7fc5151c08904c7a8be",
  "strippedsize": 215,
  "size": 215,
  "weight": 860,
  "tx": [
    {
      "txid": "ec1b3eeba0c8a65415ed3200e03763b6678507f4f2bff4ae7a32c6cc6ac45252",
      "hash": "ec1b3eeba0c8a65415ed3200e03763b6678507f4f2bff4ae7a32c6cc6ac45252",
      "version": 1,
      "size": 134,
      "vsize": 134,
      "weight": 536,
      "locktime": 0,
      "vin": [
        {
          "coinbase": "04ffff001d0111",
          "sequence": 4294967295
        }
      ],
      "vout": [
        {
          "value": 50.0,
          "n": 0,
          "scriptPubKey": {
            "asm": "04bdd20476aca12b41723052cfe0511d21fa5f0786efb64d0a71b4880d428b8fae061a6380e83bea22a52ef8a54753ca3f57fa19aaa4bc67548d851687675df852 OP_CHECKSIG",
            "desc": "pk(04bdd20476aca12b41723052cfe0511d21fa5f0786efb64d0a71b4880d428b8fae061a6380e83bea22a52ef8a54753ca3f57fa19aaa4bc67548d851687675df852)#9xmwef4n",
            "hex": "4104bdd20476aca12b41723052cfe0511d21fa5f0786efb64d0a71b4880d428b8fae061a6380e83bea22a52ef8a54753ca3f57fa19aaa4bc67548d851687675df852ac",
            "type": "pubkey"
          }
        }
      ],
      "hex": "01000000010000000000000000000000000000000000000000000000000000000000000000ffffffff0704ffff001d0111ffffffff0100f2052a01000000434104bdd20476aca12b41723052cfe0511d21fa5f0786efb64d0a71b4880d428b8fae061a6380e83bea22a52ef8a54753ca3f57fa19aaa4bc67548d851687675df852ac00000000"
    }
  ]
}