{
  "hash": "00000000cc686b75642b77dc7239109ffab8d22f697f6b4425ab4edc8e0c2250",
  "confirmations": 48086,
  "height": 5012,
  "version": 1,
  "versionHex": "00000001",
  "merkleroot": "f771b0dd6268528f0b274bcd5da6e6496fe67d861fe3c63197cfc24b18ae0ac3",
  "time": 1235144239,
  "mediantime": 1235141256,
  "nonce": 3421294387,
  "bits": "1d00ffff",
  "difficulty": 1,
  "chainwork": "0000000000000000000000000000000000000000000000000000139513951395",
  "nTx": 1,
  "previousblockhash": "00000000c535e0f28e371322849ab28abb37ddd9dbe3c2e100302375ecf63fbb",
  "nextblockhash": "0000000082b427d4f4c3dec9e1df1b9f32b426fa8b12e85384921aa3f59306c3",
  "strippedsize": 216,
  "size": 216,
  "weight": 864,
  "tx": [
    {
      "txid": "f771b0dd6268528f0b274bcd5da6e6496fe67d861fe3c63197cfc24b18ae0ac3",
      "hash": "f771b0dd6268528f0b274bcd5da6e6496fe67d861fe3c63197cfc24b18ae0ac3",
      "version": 1,
      "size": 135,
      "vsize": 135,
      "weight": 540,
      "locktime": 0,
      "vin": [
        {
          "coinbase": "04ffff001d023507",
          "sequence": 4294967295
        }
      ],
      "vout": [
        {
          "value": 50.0,
          "n": 0,
          "scriptPubKey": {
            "asm": "042d3003680a9654c7ae3f2d381866b7e510c43263e075204139455ce4a2921ba0ac0bc8583f9e82090fffb9446f4e01cb9f24f244e8f3f9481f8b970d28c10e4f OP_CHECKSIG",
            "desc": "pk(042d3003680a9654c7ae3f2d381866b7e510c43263e075204139455ce4a2921ba0ac0bc8583f9e82090fffb9446f4e01cb9f24f244e8f3f9481f8b970d28c10e4f)#20ckxsjt",
            "hex": "41042d3003680a9654c7ae3f2d381866b7e510c43263e075204139455ce4a2921ba0ac0bc8583f9e82090fffb9446f4e01cb9f24f244e8f3f9481f8b970d28c10e4fac",
            "type": "pubkey"
          }
        }
      ],
      "hex": "01000000010000000000000000000000000000000000000000000000000000000000000000ffffffff0804ffff001d023507ffffffff0100f2052a010000004341042d3003680a9654c7ae3f2d381866b7e510c43263e075204139455ce4a2921ba0ac0bc8583f9e82090fffb9446f4e01cb9f24f244e8f3f9481f8b970d28c10e4fac00000000"
    }
  ]
}