{
  "hash": "00000000584420c089821bdea32f64a73ad055ed814e90972f9108cc295517cf",
  "confirmations": 46698,
  "height": 6400,
  "version": 1,
  "versionHex": "00000001",
  "merkleroot": "94de81737290ef9a394bec8a68fd0d223765f4e8a2c8efa1667a9a3e639b5e03",
  "time": 1236255817,
  "mediantime": 1236252392,
  "nonce": 364366881,
  "bits": "1d00ffff",
  "difficulty": 1,
  "chainwork": "0000000000000000000000000000000000000000000000000000190119011901",
  "nTx": 1,
  "previousblockhash": "00000000b8a3e3ea56754658585a3714cdf761547687159ae4026328cd50f082",
  "nextblockhash": "000000005e7d5b3a44803b333b33ff2497edf213b1c7910277f49c6de67122c0",
  "strippedsize": 216,
  "size": 216,
  "weight": 864,
  "tx": [
    {
      "txid": "94de81737290ef9a394bec8a68fd0d223765f4e8a2c8efa1667a9a3e639b5e03",
      "hash": "94de81737290ef9a394bec8a68fd0d223765f4e8a2c8efa1667a9a3e639b5e03",
      "version": 1,
      "size": 135,
      "vsize": 135,
      "weight": 540,
      "locktime": 0,
      "vin": [
        {
          "coinbase": "04ffff001d02cf01",
          "sequence": 4294967295
        }
      ],
      "vout": [
        {
          "value": 50.0,
          "n": 0,
          "scriptPubKey": {
            "asm": "0403addc2d9b9780f9839c31475f3bdc27a9f8254ff6797daae8713a6701a9753d9872188fa9c2a53e1e6858ad91440cca00b381419df641cc42bb30b291f034a2 OP_CHECKSIG",
            "desc": "pk(0403addc2d9b9780f9839c31475f3bdc27a9f8254ff6797daae8713a6701a9753d9872188fa9c2a53e1e6858ad91440cca00b381419df641cc42bb30b291f034a2)#ellwwgnu",
            "hex": "410403addc2d9b9780f9839c31475f3bdc27a9f8254ff6797daae8713a6701a9753d9872188fa9c2a53e1e6858ad91440cca00b381419df641cc42bb30b291f034a2ac",
            "type": "pubkey"
          }
        }
      ],
      "hex": "01000000010000000000000000000000000000000000000000000000000000000000000000ffffffff0804ffff001d02cf01ffffffff0100f2052a0100000043410403addc2d9b9780f9839c31475f3bdc27a9f8254ff6797daae8713a6701a9753d9872188fa9c2a53e1e6858ad91440cca00b381419df641cc42bb30b291f034a2ac00000000"
    }
  ]
}