{
  "hash": "000000002a90502d96e8baa75b749b2fb4fa6491e115314bf7674f1e26ff726e",
  "confirmations": 51107,
  "height": 1991,
  "version": 1,
  "versionHex": "00000001",
  "merkleroot": "a2900a244ad24cb0004a9a23dacfab7071a73e1365f7065b0cd0e697fca2e56e",
  "time": 1233038572,
  "mediantime": 1233034738,
  "nonce": 2652415746,
  "bits": "1d00ffff",
  "difficulty": 1,
  "chainwork": "000000000000000000000000000000000000000000000000000007c807c807c8",
  "nTx": 1,
  "previousblockhash": "00000000675bcdd144e9e266ab737f9dd2f62f039074dc1afc174a9d69acf41a",
  "nextblockhash": "000000007e95b1d5a9603874ddbae14c6eacf7dcf86429efb91947ea27ca402e",
  "strippedsize": 216,
  "size": 216,
  "weight": 864,
  "tx": [
    {
      "txid": "a2900a244ad24cb0004a9a23dacfab7071a73e1365f7065b0cd0e697fca2e56e",
      "hash": "a2900a244ad24cb0004a9a23dacfab7071a73e1365f7065b0cd0e697fca2e56e",
      "version": 1,
      "size": 135,
      "vsize": 135,
      "weight": 540,
      "locktime": 0,
      "vin": [
        {
          "coinbase": "04ffff001d026601",
          "sequence": 4294967295
        }
      ],
      "vout": [
        {
          "value": 50.0,
          "n": 0,
          "scriptPubKey": {
            "asm": "04e8b69016bd64bf7bb1cc14c158be854ffb501ed1b0d207f5ae493721b85a728b69cd58858cc00caa6787f27eded50346ab93868c8395d0a424a2c2fee960bced OP_CHECKSIG",
            "desc": "pk(04e8b69016bd64bf7bb1cc14c158be854ffb501ed1b0d207f5ae493721b85a728b69cd58858cc00caa6787f27eded50346ab93868c8395d0a424a2c2fee960bced)#508sjvrg",
            "hex": "4104e8b69016bd64bf7bb1cc14c158be854ffb501ed1b0d207f5ae493721b85a728b69cd58858cc00caa6787f27eded50346ab93868c8395d0a424a2c2fee960bcedac",
            "type": "pubkey"
          }
        }
      ],
      "hex": "01000000010000000000000000000000000000000000000000000000000000000000000000ffffffff0804ffff001d026601ffffffff0100f2052a01000000434104e8b69016bd64bf7bb1cc14c158be854ffb501ed1b0d207f5ae493721b85a728b69cd58858cc00caa6787f27eded50346ab93868c8395d0a424a2c2fee960bcedac00000000"
    }
  ]
}