{
  "hash": "00000000312efa075ffb31b57ab2f1239105155c51349b426c19c112c66474d3",
  "confirmations": 44498,
  "height": 8600,
  "version": 1,
  "versionHex": "00000001",
  "merkleroot": "bb2279e1efe354dea352705f8470e14d923b7ac26a8c5d7b3447204236c6d159",
  "time": 1237950437,
  "mediantime": 1237947708,
  "nonce": 2488542247,
  "bits": "1d00ffff",
  "difficulty": 1,
  "chainwork": "0000000000000000000000000000000000000000000000000000219921992199",
  "nTx": 1,
  "previousblockhash": "0000000049819c3168a4ef325de04fe528114a5ecca846549a643d8a8a74c383",
  "nextblockhash": "000000008849986c44878f325590e577febaf1d60c9af9d79411c664264e5c0a",
  "strippedsize": 216,
  "size": 216,
  "weight": 864,
  "tx": [
    {
      "txid": "bb2279e1efe354dea352705f8470e14d923b7ac26a8c5d7b3447204236c6d159",
      "hash": "bb2279e1efe354dea352705f8470e14d923b7ac26a8c5d7b3447204236c6d159",
      "version": 1,
      "size": 135,
      "vsize": 135,
      "weight": 540,
      "locktime": 0,
      "vin": [
        {
          "coinbase": "04ffff001d027709",
          "sequence": 4294967295
        }
      ],
      "vout": [
        {
          "value": 50.0,
          "n": 0,
          "scriptPubKey": {
            "asm": "04b871920daa47c5c6dd6653898d48496557a251513529630385df85b06d24c56af05a1f38ac43e258e864807dc89f00eb926e02384ef7cdd3dc34fc219ad2b490 OP_CHECKSIG",
            "desc": "pk(04b871920daa47c5c6dd6653898d48496557a251513529630385df85b06d24c56af05a1f38ac43e258e864807dc89f00eb926e02384ef7cdd3dc34fc219ad2b490)#umkkq3re",
            "hex": "4104b871920daa47c5c6dd6653898d48496557a251513529630385df85b06d24c56af05a1f38ac43e258e864807dc89f00eb926e02384ef7cdd3dc34fc219ad2b490ac",
            "type": "pubkey"
          }
        }
      ],
      "hex": "01000000010000000000000000000000000000000000000000000000000000000000000000ffffffff0804ffff001d027709ffffffff0100f2052a01000000434104b871920daa47c5c6dd6653898d48496557a251513529630385df85b06d24c56af05a1f38ac43e258e864807dc89f00eb926e02384ef7cdd3dc34fc219ad2b490ac00000000"
    }
  ]
}