{
  "hash": "0000000006d5f5fabc6f0a3234a96583cfe534d9dc170067291cbfdad65cb2b1",
  "confirmations": 51754,
  "height": 1344,
  "version": 1,
  "versionHex": "00000001",
  "merkleroot": "2b1cb748ebc55e6b65c5747e5506a9795d3745afd906372a77c639d2dfab1e3e",
  "time": 1232635880,
  "mediantime": 1232631547,
  "nonce": 3079287319,
  "bits": "1d00ffff",
  "difficulty": 1,
  "chainwork": "0000000000000000000000000000000000000000000000000000054105410541",
  "nTx": 1,
  "previousblockhash": "000000007640f80b4355a643ae4791394f14299dffa196c99247f39957fe8c19",
  "nextblockhash": "00000000fa61e838f0d494211d874b881877148017221e8f95b7810dc6a6f6d3",
  "strippedsize": 216,
  "size": 216,
  "weight": 864,
  "tx": [
    {
      "txid": "2b1cb748ebc55e6b65c5747e5506a9795d3745afd906372a77c639d2dfab1e3e",
      "hash": "2b1cb748ebc55e6b65c5747e5506a9795d3745afd906372a77c639d2dfab1e3e",
      "version": 1,
      "size": 135,
      "vsize": 135,
      "weight": 540,
      "locktime": 0,
      "vin": [
        {
          "coinbase": "04ffff001d021001",
          "sequence": 4294967295
        }
      ],
      "vout": [
        {
          "value": 50.0,
          "n": 0,
          "scriptPubKey": {
            "asm": "047d1b3681eb670f6e76c6cc638cb5c6150b9cbff142889ca196f1b7581753769982cc120c30dd404eeef03c5f47339eaa816aaf55162c90a539e474ac4d9dd41e OP_CHECKSIG",
            "desc": "pk(047d1b3681eb670f6e76c6cc638cb5c6150b9cbff142889ca196f1b7581753769982cc120c30dd404eeef03c5f47339eaa816aaf55162c90a539e474ac4d9dd41e)#mymc92qu",
            "hex": "41047d1b3681eb670f6e76c6cc638cb5c6150b9cbff142889ca196f1b7581753769982cc120c30dd404eeef03c5f47339eaa816aaf55162c90a539e474ac4d9dd41eac",
            "type": "pubkey"
          }
        }
      ],
      "hex": "01000000010000000000000000000000000000000000000000000000000000000000000000ffffffff0804ffff001d021001ffffffff0100f2052a010000004341047d1b3681eb670f6e76c6cc638cb5c6150b9cbff142889ca196f1b7581753769982cc120c30dd404eeef03c5f47339eaa816aaf55162c90a539e474ac4d9dd41eac00000000"
    }
  ]
}