{
  "hash": "00000000d205842217d63b3197988b6753161e593281ec4e14fdda672143daa9",
  "confirmations": 46800,
  "height": 6298,
  "version": 1,
  "versionHex": "00000001",
  "merkleroot": "f18154ac2276ef6a10a444583c2d5ed021a25b462e312c6d431f2b6a135533b5",
  "time": 1236171511,
  "mediantime": 1236165495,
  "nonce": 3926672926,
  "bits": "1d00ffff",
  "difficulty": 1,
  "chainwork": "0000000000000000000000000000000000000000000000000000189b189b189b",
  "nTx": 1,
  "previousblockhash": "00000000df891453f150fb58d0b08bdeed2419916265e5801d61a6e4db217d29",
  "nextblockhash": "0000000085292b3042abf1f35a48e42db1406537d4937986a42fa8d5b3250979",
  "strippedsize": 215,
  "size": 215,
  "weight": 860,
  "tx": [
    {
      "txid": "f18154ac2276ef6a10a444583c2d5ed021a25b462e312c6d431f2b6a135533b5",
      "hash": "f18154ac2276ef6a10a444583c2d5ed021a25b462e312c6d431f2b6a135533b5",
      "version": 1,
      "size": 134,
      "vsize": 134,
      "weight": 536,
      "locktime": 0,
      "vin": [
        {
          "coinbase": "04ffff001d011f",
          "sequence": 4294967295
        }
      ],
      "vout": [
        {
          "value": 50.0,
          "n": 0,
          "scriptPubKey": {
            "asm": "04111186bf82588d44b4dde5c1f093d172913d394636779b6109e1f78030cd30d8f5f74498e5c67a176ecc0e7ddcc7b6b826c859e46ff74529dfc44f0a7e20d2db OP_CHECKSIG",
            "desc": "pk(04111186bf82588d44b4dde5c1f093d172913d394636779b6109e1f78030cd30d8f5f74498e5c67a176ecc0e7ddcc7b6b826c859e46ff74529dfc44f0a7e20d2db)#r7pr48n6",
            "hex": "4104111186bf82588d44b4dde5c1f093d172913d394636779b6109e1f78030cd30d8f5f74498e5c67a176ecc0e7ddcc7b6b826c859e46ff74529dfc44f0a7e20d2dbac",
            "type": "pubkey"
          }
        }
      ],
      "hex": "01000000010000000000000000000000000000000000000000000000000000000000000000ffffffff0704ffff001d011fffffffff0100f2052a01000000434104111186bf82588d44b4dde5c1f093d172913d394636779b6109e1f78030cd30d8f5f74498e5c67a176ecc0e7ddcc7b6b826c859e46ff74529dfc44f0a7e20d2dbac00000000"
    }
  ]
}