{
  "hash": "00000000bcb00981ddc55628072c9e8e4420d6eb062df616f9b2c2dc1aa29c26",
  "confirmations": 47303,
  "height": 5795,
  "version": 1,
  "versionHex": "00000001",
  "merkleroot": "c09de052393fbb26fc7828a5091ee7e1835ef614d80ca619adfdc926f1c4c85a",
  "time": 1235756315,
  "mediantime": 1235752691,
  "nonce": 3473918246,
  "bits": "1d00ffff",
  "difficulty": 1,
  "chainwork": "000000000000000000000000000000000000000000000000000016a416a416a4",
  "nTx": 1,
  "previousblockhash": "000000009aedb4ff756036b52b369c4f0afb3df01a887e91887ac29a98edffaf",
  "nextblockhash": "00000000e0bb8c9569709a55dbb9e36ee754534ec28fd438fab74312d60533a9",
  "strippedsize": 216,
  "size": 216,
  "weight": 864,
  "tx": [
    {
      "txid": "c09de052393fbb26fc7828a5091ee7e1835ef614d80ca619adfdc926f1c4c85a",
      "hash": "c09de052393fbb26fc7828a5091ee7e1835ef614d80ca619adfdc926f1c4c85a",
      "version": 1,
      "size": 135,
      "vsize": 135,
      "weight": 540,
      "locktime": 0,
      "vin": [
        {
          "coinbase": "04ffff001d029c00",
          "sequence": 4294967295
        }
      ],
      "vout": [
        {
          "value": 50.0,
          "n": 0,
          "scriptPubKey": {
            "asm": "04be3c197a5a901ade45347da38c7420d97764dd15fced279df77a0620b879effedd7f54ffb8cd4a95478e078295195a82406696cb4903c131cb4a865d79d84f9b OP_CHECKSIG",
            "desc": "pk(04be3c197a5a901ade45347da38c7420d97764dd15fced279df77a0620b879effedd7f54ffb8cd4a95478e078295195a82406696cb4903c131cb4a865d79d84f9b)#ufeparlz",
            "hex": "4104be3c197a5a901ade45347da38c7420d97764dd15fced279df77a0620b879effedd7f54ffb8cd4a95478e078295195a82406696cb4903c131cb4a865d79d84f9bac",
            "type": "pubkey"
          }
        }
      ],
      "hex": "01000000010000000000000000000000000000000000000000000000000000000000000000ffffffff0804ffff001d029c00ffffffff0100f2052a01000000434104be3c197a5a901ade45347da38c7420d97764dd15fced279df77a0620b879effedd7f54ffb8cd4a95478e078295195a82406696cb4903c131cb4a865d79d84f9bac00000000"
    }
  ]
}