{
  "hash": "00000000727d3ef6e04b7ebbf19a4d294a58be8f9cf91c4204eb36bfb5f35964",
  "confirmations": 52017,
  "height": 217,
  "version": 1,
  "versionHex": "00000001",
  "merkleroot": "56a198d8fa14f10e6f7d7df7b14ea3bf90cf20f98bd4bce89a41e423b78f5236",
  "time": 1231766029,
  "mediantime": 1231760777,
  "nonce": 451608323,
  "bits": "1d00ffff",
  "difficulty": 1,
  "chainwork": "000000000000000000000000000000000000000000000000000000da00da00da",
  "nTx": 1,
  "previousblockhash": "00000000faa2c21da83bb2a3151964f03e381cba49db5a0edf83dc834de8c90c",
  "nextblockhash": "000000002f7550e9eb1985a17e3bba31c302f1743d1cf45060445255021d0c6b",
  "strippedsize": 216,
  "size": 216,
  "weight": 864,
  "tx": [
    {
      "txid": "56a198d8fa14f10e6f7d7df7b14ea3bf90cf20f98bd4bce89a41e423b78f5236",
      "hash": "56a198d8fa14f10e6f7d7df7b14ea3bf90cf20f98bd4bce89a41e423b78f5236",
      "version": 1,
      "size": 135,
      "vsize": 135,
      "weight": 540,
      "locktime": 0,
      "vin": [
        {
          "coinbase": "04ffff001d028500",
          "sequence": 4294967295
        }
      ],
      "vout": [
        {
          "value": 50.0,
          "n": 0,
          "scriptPubKey": {
            "asm": "0463fb60e1a0d96adfbbb1581532dc5c452811c3748dff915dd0057a325841977805af542c03db7661303af023bf8bd1dc3cceb6fa282a7ddc73c10a18d25251e7 OP_CHECKSIG",
            "desc": "pk(0463fb60e1a0d96adfbbb1581532dc5c452811c3748dff915dd0057a325841977805af542c03db7661303af023bf8bd1dc3cceb6fa282a7ddc73c10a18d25251e7)#7p9jkz4a",
            "hex": "410463fb60e1a0d96adfbbb1581532dc5c452811c3748dff915dd0057a325841977805af542c03db7661303af023bf8bd1dc3cceb6fa282a7ddc73c10a18d25251e7ac",
            "type": "pubkey"
          }
        }
      ],
      "hex": "01000000010000000000000000000000000000000000000000000000000000000000000000ffffffff0804ffff001d028500ffffffff0100f2052a0100000043410463fb60e1a0d96adfbbb1581532dc5c452811c3748dff915dd0057a325841977805af542c03db7661303af023bf8bd1dc3cceb6fa282a7ddc73c10a18d25251e7ac00000000"
    }
  ]
}