{
  "hash": "000000005e01dc927c8446c518f741f3f3776234e18a44b8db2979bc8b1ecff8",
  "confirmations": 46086,
  "height": 7012,
  "version": 1,
  "versionHex": "00000001",
  "merkleroot": "fb47aa68346400f944417370e1ab635b2675a82a2e8a24c2d2ae49bacb585733",
  "time": 1236727726,
  "mediantime": 1236723587,
  "nonce": 88357913,
  "bits": "1d00ffff",
  "difficulty": 1,
  "chainwork": "00000000000000000000000000000000000000000000000000001b651b651b65",
  "nTx": 1,
  "previousblockhash": "0000000029a5e818e3e74610dc1433265156472f21778c426f86797aece0f29c",
  "nextblockhash": "000000003bbc16f32eea23690b57b647ea71582048c7033729868ee78b57e82d",
  "strippedsize": 216,
  "size": 216,
  "weight": 864,
  "tx": [
    {
      "txid": "fb47aa68346400f944417370e1ab635b2675a82a2e8a24c2d2ae49bacb585733",
      "hash": "fb47aa68346400f944417370e1ab635b2675a82a2e8a24c2d2ae49bacb585733",
      "version": 1,
      "size": 135,
      "vsize": 135,
      "weight": 540,
      "locktime": 0,
      "vin": [
        {
          "coinbase": "04ffff001d020c01",
          "sequence": 4294967295
        }
      ],
      "vout": [
        {
          "value": 50.0,
          "n": 0,
          "scriptPubKey": {
            "asm": "04797b375e0c9af158545687f52444a3febe2cbe9be87c84c91e90e11122cd53c6ab9c601a07a51f374f07c6a79d63a3e796f0ec9630e3a51b76bf1e82808ea891 OP_CHECKSIG",
            "desc": "pk(04797b375e0c9af158545687f52444a3febe2cbe9be87c84c91e90e11122cd53c6ab9c601a07a51f374f07c6a79d63a3e796f0ec9630e3a51b76bf1e82808ea891)#z3zr9fce",
            "hex": "4104797b375e0c9af158545687f52444a3febe2cbe9be87c84c91e90e11122cd53c6ab9c601a07a51f374f07c6a79d63a3e796f0ec9630e3a51b76bf1e82808ea891ac",
            "type": "pubkey"
          }
        }
      ],
      "hex": "01000000010000000000000000000000000000000000000000000000000000000000000000ffffffff0804ffff001d020c01ffffffff0100f2052a01000000434104797b375e0c9af158545687f52444a3febe2cbe9be87c84c91e90e11122cd53c6ab9c601a07a51f374f07c6a79d63a3e796f0ec9630e3a51b76bf1e82808ea891ac00000000"
    }
  ]
}