{
  "hash": "00000000a72028741dab34d9e7694d30f0a61f004af107a9ce055b8f82adcf65",
  "confirmations": 44948,
  "height": 8150,
  "version": 1,
  "versionHex": "00000001",
  "merkleroot": "7453207b30a2fd8b464ea4351968a84764f0a3b1d9aabb40b829459f918db502",
  "time": 1237574048,
  "mediantime": 1237569108,
  "nonce": 1677793536,
  "bits": "1d00ffff",
  "difficulty": 1,
  "chainwork": "00000000000000000000000000000000000000000000000000001fd71fd71fd7",
  "nTx": 1,
  "previousblockhash": "00000000fad7d9b3db7773b6263b902c8d6dabfc5ec36d6941188627393394e6",
  "nextblockhash": "00000000965bb293914b76c04e260e10a7cfcbc8ed5390719b21c5f3ad916285",
  "strippedsize": 216,
  "size": 216,
  "weight": 864,
  "tx": [
    {
      "txid": "7453207b30a2fd8b464ea4351968a84764f0a3b1d9aabb40b829459f918db502",
      "hash": "7453207b30a2fd8b464ea4351968a84764f0a3b1d9aabb40b829459f918db502",
      "version": 1,
      "size": 135,
      "vsize": 135,
      "weight": 540,
      "locktime": 0,
      "vin": [
        {
          "coinbase": "04ffff001d02ff01",
          "sequence": 4294967295
        }
      ],
      "vout": [
        {
          "value": 50.0,
          "n": 0,
          "scriptPubKey": {
            "asm": "04ce39cacc0ac2fc54515da818a4dc751c7f8bc9273416caf10755c6cef495a5a72bf37308e9fbf11f70039ef8cc16cac144ef4a28f462f3fc832162f83b1ac272 OP_CHECKSIG",
            "desc": "pk(04ce39cacc0ac2fc54515da818a4dc751c7f8bc9273416caf10755c6cef495a5a72bf37308e9fbf11f70039ef8cc16cac144ef4a28f462f3fc832162f83b1ac272)#y437jwtt",
            "hex": "4104ce39cacc0ac2fc54515da818a4dc751c7f8bc9273416caf10755c6cef495a5a72bf37308e9fbf11f70039ef8cc16cac144ef4a28f462f3fc832162f83b1ac272ac",
            "type": "pubkey"
          }
        }
      ],
      "hex": "01000000010000000000000000000000000000000000000000000000000000000000000000ffffffff0804ffff001d02ff01ffffffff0100f2052a01000000434104ce39cacc0ac2fc54515da818a4dc751c7f8bc9273416caf10755c6cef495a5a72bf37308e9fbf11f70039ef8cc16cac144ef4a28f462f3fc832162f83b1ac272ac00000000"
    }
  ]
}