{
  "hash": "0000000013f7c29152ef57883c73749b9d969ad78add6bb1bd1d473eb67fa1ab",
  "confirmations": 46595,
  "height": 6503,
  "version": 1,
  "versionHex": "00000001",
  "merkleroot": "cf006b055ddf09306a86ca5880b8cf51e9ab884ff39732c48897320b6c80365a",
  "time": 1236333096,
  "mediantime": 1236330160,
  "nonce": 1438572065,
  "bits": "1d00ffff",
  "difficulty": 1,
  "chainwork": "0000000000000000000000000000000000000000000000000000196819681968",
  "nTx": 1,
  "previousblockhash": "000000000c1c0e78796e4c57b7324c75f4a1b364ec5927dda87b0e2d6885026b",
  "nextblockhash": "0000000092c065597fb404109ba891cdd509879774bf7dea5e3d9abafe888db2",
  "strippedsize": 216,
  "size": 216,
  "weight": 864,
  "tx": [
    {
      "txid": "cf006b055ddf09306a86ca5880b8cf51e9ab884ff39732c48897320b6c80365a",
      "hash": "cf006b055ddf09306a86ca5880b8cf51e9ab884ff39732c48897320b6c80365a",
      "version": 1,
      "size": 135,
      "vsize": 135,
      "weight": 540,
      "locktime": 0,
      "vin": [
        {
          "coinbase": "04ffff001d02bd03",
          "sequence": 4294967295
        }
      ],
      "vout": [
        {
          "value": 50.0,
          "n": 0,
          "scriptPubKey": {
            "asm": "04adecda6880aac35b12e65cb83f409798e66fe9438d89608e83f473d3567f8ae4fa856fa03c286a2662be53bf5a74f671cddb1b57974c7862946171d0dac16dc6 OP_CHECKSIG",
            "desc": "pk(04adecda6880aac35b12e65cb83f409798e66fe9438d89608e83f473d3567f8ae4fa856fa03c286a2662be53bf5a74f671cddb1b57974c7862946171d0dac16dc6)#mw6p6fhn",
            "hex": "4104adecda6880aac35b12e65cb83f409798e66fe9438d89608e83f473d3567f8ae4fa856fa03c286a2662be53bf5a74f671cddb1b57974c7862946171d0dac16dc6ac",
            "type": "pubkey"
          }
        }
      ],
      "hex": "01000000010000000000000000000000000000000000000000000000000000000000000000ffffffff0804ffff001d02bd03ffffffff0100f2052a01000000434104adecda6880aac35b12e65cb83f409798e66fe9438d89608e83f473d3567f8ae4fa856fa03c286a2662be53bf5a74f671cddb1b57974c7862946171d0dac16dc6ac00000000"
    }
  ]
}