{
  "hash": "000000006c03d7466e36937aafa0482560257003b6502887ae367b7d9017ee21",
  "confirmations": 50712,
  "height": 2386,
  "version": 1,
  "versionHex": "00000001",
  "merkleroot": "c5bd09b5b91c40770bfe2c47313e874d51be86983aa4119fb7a28c760e59bf28",
  "time": 1233343630,
  "mediantime": 1233339250,
  "nonce": 2007581999,
  "bits": "1d00ffff",
  "difficulty": 1,
  "chainwork": "0000000000000000000000000000000000000000000000000000095309530953",
  "nTx": 1,
  "previousblockhash": "00000000992382eb485095447db1b59a3833a94641d9033c2aad27b1dbf974a9",
  "nextblockhash": "00000000785145f0ad2fe66882aabdfb6f2f38259394c32167bc40576c96aa6c",
  "strippedsize": 216,
  "size": 216,
  "weight": 864,
  "tx": [
    {
      "txid": "c5bd09b5b91c40770bfe2c47313e874d51be86983aa4119fb7a28c760e59bf28",
      "hash": "c5bd09b5b91c40770bfe2c47313e874d51be86983aa4119fb7a28c760e59bf28",
      "version": 1,
      "size": 135,
      "vsize": 135,
      "weight": 540,
      "locktime": 0,
      "vin": [
        {
          "coinbase": "04ffff001d026a03",
          "sequence": 4294967295
        }
      ],
      "vout": [
        {
          "value": 50.0,
          "n": 0,
          "scriptPubKey": {
            "asm": "04d6c2a17546dbe395b508efd413daa9fbfdb00b770c5fa0b1278a01ac1ee53b61331a7abcc3a4db97004127a50789499ceeadb74483f98de45ae745922ac8bdfd OP_CHECKSIG",
            "desc": "pk(04d6c2a17546dbe395b508efd413daa9fbfdb00b770c5fa0b1278a01ac1ee53b61331a7abcc3a4db97004127a50789499ceeadb74483f98de45ae745922ac8bdfd)#m30dn3nh",
            "hex": "4104d6c2a17546dbe395b508efd413daa9fbfdb00b770c5fa0b1278a01ac1ee53b61331a7abcc3a4db97004127a50789499ceeadb74483f98de45ae745922ac8bdfdac",
            "type": "pubkey"
          }
        }
      ],
      "hex": "01000000010000000000000000000000000000000000000000000000000000000000000000ffffffff0804ffff001d026a03ffffffff0100f2052a01000000434104d6c2a17546dbe395b508efd413daa9fbfdb00b770c5fa0b1278a01ac1ee53b61331a7abcc3a4db97004127a50789499ceeadb74483f98de45ae745922ac8bdfdac00000000"
    }
  ]
}