{
  "hash": "000000001d3b956fdb37433fa326005ca53162f7a9ac1afb26afd09dce24454d",
  "confirmations": 43325,
  "height": 9773,
  "version": 1,
  "versionHex": "00000001",
  "merkleroot": "9f1abaf4f2cf5c8708083b8d2835258c0a3f2215db21e4f27a6c3b5e3d728567",
  "time": 1238836468,
  "mediantime": 1238831987,
  "nonce": 2456659251,
  "bits": "1d00ffff",
  "difficulty": 1,
  "chainwork": "0000000000000000000000000000000000000000000000000000262e262e262e",
  "nTx": 1,
  "previousblockhash": "00000000ec7f892e14f2f3f2314f072443b96bc52c6eb982f4728c3a9761e544",
  "nextblockhash": "000000002f38afb1f789c456dbb17a86305252aef07fe850f91bc8aeb97163fe",
  "strippedsize": 216,
  "size": 216,
  "weight": 864,
  "tx": [
    {
      "txid": "9f1abaf4f2cf5c8708083b8d2835258c0a3f2215db21e4f27a6c3b5e3d728567",
      "hash": "9f1abaf4f2cf5c8708083b8d2835258c0a3f2215db21e4f27a6c3b5e3d728567",
      "version": 1,
      "size": 135,
      "vsize": 135,
      "weight": 540,
      "locktime": 0,
      "vin": [
        {
          "coinbase": "04ffff001d02230a",
          "sequence": 4294967295
        }
      ],
      "vout": [
        {
          "value": 50.0,
          "n": 0,
          "scriptPubKey": {
            "asm": "0465e1ef4128418c1fc5f7bbfafa6c87570853ba727cd188b2805a6817c45c79c07b44c7f2b165ec48f489742d1fa226f1986ff78f8881c4526b2fbc9b8c62e3bf OP_CHECKSIG",
            "desc": "pk(0465e1ef4128418c1fc5f7bbfafa6c87570853ba727cd188b2805a6817c45c79c07b44c7f2b165ec48f489742d1fa226f1986ff78f8881c4526b2fbc9b8c62e3bf)#hz7r34wt",
            "hex": "410465e1ef4128418c1fc5f7bbfafa6c87570853ba727cd188b2805a6817c45c79c07b44c7f2b165ec48f489742d1fa226f1986ff78f8881c4526b2fbc9b8c62e3bfac",
            "type": "pubkey"
          }
        }
      ],
      "hex": "01000000010000000000000000000000000000000000000000000000000000000000000000ffffffff0804ffff001d02230affffffff0100f2052a0100000043410465e1ef4128418c1fc5f7bbfafa6c87570853ba727cd188b2805a6817c45c79c07b44c7f2b165ec48f489742d1fa226f1986ff78f8881c4526b2fbc9b8c62e3bfac00000000"
    }
  ]
}