{
  "hash": "000000003babb3c0681dcb3b43e7f200ee884229d88c0ec9137ee30c6cb687bb",
  "confirmations": 47981,
  "height": 5117,
  "version": 1,
  "versionHex": "00000001",
  "merkleroot": "02c4c29443aade244b6bf1c1e4382410755252a4e01a6148f7fc369b5b416cd1",
  "time": 1235229751,
  "mediantime": 1235225893,
  "nonce": 931560451,
  "bits": "1d00ffff",
  "difficulty": 1,
  "chainwork": "000000000000000000000000000000000000000000000000000013fe13fe13fe",
  "nTx": 1,
  "previousblockhash": "00000000bb6f3e9f1dc7ea4adb5ddb96269ee74ded0edc64a78176a82a9b842e",
  "nextblockhash": "00000000803780d553518bdda590cc5cd9440ee2a1455550335e91b379cb6168",
  "strippedsize": 216,
  "size": 216,
  "weight": 864,
  "tx": [
    {
      "txid": "02c4c29443aade244b6bf1c1e4382410755252a4e01a6148f7fc369b5b416cd1",
      "hash": "02c4c29443aade244b6bf1c1e4382410755252a4e01a6148f7fc369b5b416cd1",
      "version": 1,
      "size": 135,
      "vsize": 135,
      "weight": 540,
      "locktime": 0,
      "vin": [
        {
          "coinbase": "04ffff001d024f09",
          "sequence": 4294967295
        }
      ],
      "vout": [
        {
          "value": 50.0,
          "n": 0,
          "scriptPubKey": {
            "asm": "04e05518694a4af38b9803552545e43e69e08830e4cc5529d9fd20c73e73722ea029a122d0017b7a9b7c8f04175824ba105f32f1173f8dfdc4fbb9e3ddd4ab5320 OP_CHECKSIG",
            "desc": "pk(04e05518694a4af38b9803552545e43e69e08830e4cc5529d9fd20c73e73722ea029a122d0017b7a9b7c8f04175824ba105f32f1173f8dfdc4fbb9e3ddd4ab5320)#jthm43uz",
            "hex": "4104e05518694a4af38b9803552545e43e69e08830e4cc5529d9fd20c73e73722ea029a122d0017b7a9b7c8f04175824ba105f32f1173f8dfdc4fbb9e3ddd4ab5320ac",
            "type": "pubkey"
          }
        }
      ],
      "hex": "01000000010000000000000000000000000000000000000000000000000000000000000000ffffffff0804ffff001d024f09ffffffff0100f2052a01000000434104e05518694a4af38b9803552545e43e69e08830e4cc5529d9fd20c73e73722ea029a122d0017b7a9b7c8f04175824ba105f32f1173f8dfdc4fbb9e3ddd4ab5320ac00000000"
    }
  ]
}