{
  "hash": "00000000dffd00f4d40f620e2efdabff6f3b539da8aab8f7147bbb75717c14cc",
  "confirmations": 44829,
  "height": 8269,
  "version": 1,
  "versionHex": "00000001",
  "merkleroot": "c5c74e5fd9605cf19d3c772b29281269eceb047c43c7e0bd6627f5fc98dc0162",
  "time": 1237712466,
  "mediantime": 1237707499,
  "nonce": 2550652984,
  "bits": "1d00ffff",
  "difficulty": 1,
  "chainwork": "0000000000000000000000000000000000000000000000000000204e204e204e",
  "nTx": 1,
  "previousblockhash": "00000000163d2e6783901ed6c384ac09071417f283de88d37ce4a2602b6a0233",
  "nextblockhash": "00000000ff7249c52e99c96c400b26e71c6d406d65a6da82e1efaa43603d9527",
  "strippedsize": 216,
  "size": 216,
  "weight": 864,
  "tx": [
    {
      "txid": "c5c74e5fd9605cf19d3c772b29281269eceb047c43c7e0bd6627f5fc98dc0162",
      "hash": "c5c74e5fd9605cf19d3c772b29281269eceb047c43c7e0bd6627f5fc98dc0162",
      "version": 1,
      "size": 135,
      "vsize": 135,
      "weight": 540,
      "locktime": 0,
      "vin": [
        {
          "coinbase": "04ffff001d02ca03",
          "sequence": 4294967295
        }
      ],
      "vout": [
        {
          "value": 50.0,
          "n": 0,
          "scriptPubKey": {
            "asm": "04d246b8c1866e06207648b28c5d0970ba20fc996a1af717108bdfdd27f4b32a6cc47ee5dc02e5e0a16f443c7a86e56cdc37d5930485ed4d307e6f565738741831 OP_CHECKSIG",
            "desc": "pk(04d246b8c1866e06207648b28c5d0970ba20fc996a1af717108bdfdd27f4b32a6cc47ee5dc02e5e0a16f443c7a86e56cdc37d5930485ed4d307e6f565738741831)#h008yaqa",
            "hex": "4104d246b8c1866e06207648b28c5d0970ba20fc996a1af717108bdfdd27f4b32a6cc47ee5dc02e5e0a16f443c7a86e56cdc37d5930485ed4d307e6f565738741831ac",
            "type": "pubkey"
          }
        }
      ],
      "hex": "01000000010000000000000000000000000000000000000000000000000000000000000000ffffffff0804ffff001d02ca03ffffffff0100f2052a01000000434104d246b8c1866e06207648b28c5d0970ba20fc996a1af717108bdfdd27f4b32a6cc47ee5dc02e5e0a16f443c7a86e56cdc37d5930485ed4d307e6f565738741831ac00000000"
    }
  ]
}