{
  "hash": "0000000001f55779c901704db84f61e4271ef2bce2a81b5d12645000b074b842",
  "confirmations": 51055,
  "height": 2043,
  "version": 1,
  "versionHex": "00000001",
  "merkleroot": "2fdb7da465d4d4b9b04fecf5ee2f961e73d559e584ad6ff8be92e73ed1efed34",
  "time": 1233087451,
  "mediantime": 1233082090,
  "nonce": 3395066917,
  "bits": "1d00ffff",
  "difficulty": 1,
  "chainwork": "000000000000000000000000000000000000000000000000000007fc07fc07fc",
  "nTx": 1,
  "previousblockhash": "00000000f076f68728aa514ade3e30bde5fafa5cf8718bf0ce58acd6b4c37dd4",
  "nextblockhash": "0000000052f1ba4554422db2c5be11790b1bc71a70309f4cb870f7919b72b700",
  "strippedsize": 216,
  "size": 216,
  "weight": 864,
  "tx": [
    {
      "txid": "2fdb7da465d4d4b9b04fecf5ee2f961e73d559e584ad6ff8be92e73ed1efed34",
      "hash": "2fdb7da465d4d4b9b04fecf5ee2f961e73d559e584ad6ff8be92e73ed1efed34",
      "version": 1,
      "size": 135,
      "vsize": 135,
      "weight": 540,
      "locktime": 0,
      "vin": [
        {
          "coinbase": "04ffff001d028d02",
          "sequence": 4294967295
        }
      ],
      "vout": [
        {
          "value": 50.0,
          "n": 0,
          "scriptPubKey": {
            "asm": "04e709f9d424968f207b42a1b98d6a32e6ddc54225458428e0cc6445aea8a7b07c2bf5133ce54d7e863f153b3459344546e78fd052861ba63f65a8a8465f9a4956 OP_CHECKSIG",
            "desc": "pk(04e709f9d424968f207b42a1b98d6a32e6ddc54225458428e0cc6445aea8a7b07c2bf5133ce54d7e863f153b3459344546e78fd052861ba63f65a8a8465f9a4956)#dpjrhr8a",
            "hex": "4104e709f9d424968f207b42a1b98d6a32e6ddc54225458428e0cc6445aea8a7b07c2bf5133ce54d7e863f153b3459344546e78fd052861ba63f65a8a8465f9a4956ac",
            "type": "pubkey"
          }
        }
      ],
      "hex": "01000000010000000000000000000000000000000000000000000000000000000000000000ffffffff0804ffff001d028d02ffffffff0100f2052a01000000434104e709f9d424968f207b42a1b98d6a32e6ddc54225458428e0cc6445aea8a7b07c2bf5133ce54d7e863f153b3459344546e78fd052861ba63f65a8a8465f9a4956ac00000000"
    }
  ]
}