{
  "hash": "0000000076cc801f9bb066d08246c3850b3fd8d160d0fc658c5bbb7d9e82d732",
  "confirmations": 47752,
  "height": 5346,
  "version": 1,
  "versionHex": "00000001",
  "merkleroot": "98bb259af05f403da172d4c0609925b7f0fe162e1fe5be7bf6e6170475bbc8d5",
  "time": 1235399945,
  "mediantime": 1235396655,
  "nonce": 1704232705,
  "bits": "1d00ffff",
  "difficulty": 1,
  "chainwork": "000000000000000000000000000000000000000000000000000014e314e314e3",
  "nTx": 1,
  "previousblockhash": "00000000a88480f5e39c1ac94060b0a9e5599ab191b4df17b2fd8fc94c8b4766",
  "nextblockhash": "0000000018b5d5f8461d3ec8e6312c8e9b2750f926ddcdabef9ad5bbcf84e06a",
  "strippedsize": 216,
  "size": 216,
  "weight": 864,
  "tx": [
    {
      "txid": "98bb259af05f403da172d4c0609925b7f0fe162e1fe5be7bf6e6170475bbc8d5",
      "hash": "98bb259af05f403da172d4c0609925b7f0fe162e1fe5be7bf6e6170475bbc8d5",
      "version": 1,
      "size": 135,
      "vsize": 135,
      "weight": 540,
      "locktime": 0,
      "vin": [
        {
          "coinbase": "04ffff001d02d202",
          "sequence": 4294967295
        }
      ],
      "vout": [
        {
          "value": 50.0,
          "n": 0,
          "scriptPubKey": {
            "asm": "04a8f239bd5489fa042b95637e23e68ec1c09dca018446389b32ecc77068a09b6532e0fa45f86d4cb0c24eae2ac42b98f99106891813d0269ed3ff42720fbfff0d OP_CHECKSIG",
            "desc": "pk(04a8f239bd5489fa042b95637e23e68ec1c09dca018446389b32ecc77068a09b6532e0fa45f86d4cb0c24eae2ac42b98f99106891813d0269ed3ff42720fbfff0d)#x6qh4a2f",
            "hex": "4104a8f239bd5489fa042b95637e23e68ec1c09dca018446389b32ecc77068a09b6532e0fa45f86d4cb0c24eae2ac42b98f99106891813d0269ed3ff42720fbfff0dac",
            "type": "pubkey"
          }
        }
      ],
      "hex": "01000000010000000000000000000000000000000000000000000000000000000000000000ffffffff0804ffff001d02d202ffffffff0100f2052a01000000434104a8f239bd5489fa042b95637e23e68ec1c09dca018446389b32ecc77068a09b6532e0fa45f86d4cb0c24eae2ac42b98f99106891813d0269ed3ff42720fbfff0dac00000000"
    }
  ]
}