{
  "hash": "000000009918edc82c3c26e02a241b00053c57339e4cb80a558b5a1a6a2c9c65",
  "confirmations": 44150,
  "height": 8948,
  "version": 1,
  "versionHex": "00000001",
  "merkleroot": "fd3d70f544600ebefbaf64dc208066dcc0ce78e47c03d2a47d215eb1a1d078d9",
  "time": 1238216178,
  "mediantime": 1238211250,
  "nonce": 1336556549,
  "bits": "1d00ffff",
  "difficulty": 1,
  "chainwork": "000000000000000000000000000000000000000000000000000022f522f522f5",
  "nTx": 1,
  "previousblockhash": "000000003dc61a619c72b085ee44574686c1ce58a8ba136f7eb07b34d40922f1",
  "nextblockhash": "00000000445bf8b54a7c8ffa6519555b267be41e76f8e18ae8e0b732b8c6e1f7",
  "strippedsize": 216,
  "size": 216,
  "weight": 864,
  "tx": [
    {
      "txid": "fd3d70f544600ebefbaf64dc208066dcc0ce78e47c03d2a47d215eb1a1d078d9",
      "hash": "fd3d70f544600ebefbaf64dc208066dcc0ce78e47c03d2a47d215eb1a1d078d9",
      "version": 1,
      "size": 135,
      "vsize": 135,
      "weight": 540,
      "locktime": 0,
      "vin": [
        {
          "coinbase": "04ffff001d026d05",
          "sequence": 4294967295
        }
      ],
      "vout": [
        {
          "value": 50.0,
          "n": 0,
          "scriptPubKey": {
            "asm": "0427a6dc3763940e653c430fb3ed57a45b3d39386dfc7cb3b323ba6f08f6b4901af4281b5505bc94a38ee6a337172795d42110382deaf110cdcaff256d0e0e043a OP_CHECKSIG",
            "desc": "pk(0427a6dc3763940e653c430fb3ed57a45b3d39386dfc7cb3b323ba6f08f6b4901af4281b5505bc94a38ee6a337172795d42110382deaf110cdcaff256d0e0e043a)#m8v9xvc2",
            "hex": "410427a6dc3763940e653c430fb3ed57a45b3d39386dfc7cb3b323ba6f08f6b4901af4281b5505bc94a38ee6a337172795d42110382deaf110cdcaff256d0e0e043aac",
            "type": "pubkey"
          }
        }
      ],
      "hex": "01000000010000000000000000000000000000000000000000000000000000000000000000ffffffff0804ffff001d026d05ffffffff0100f2052a0100000043410427a6dc3763940e653c430fb3ed57a45b3d39386dfc7cb3b323ba6f08f6b4901af4281b5505bc94a38ee6a337172795d42110382deaf110cdcaff256d0e0e043aac00000000"
    }
  ]
}