{
  "hash": "000000002b20e0a5b1e3f9476d567791e75e15be1bd15d2d5f81afcbe3b6b391",
  "confirmations": 49839,
  "height": 3259,
  "version": 1,
  "versionHex": "00000001",
  "merkleroot": "32990f98911e2f6a74f46dd297ea710f2a0ffd03dacb3038702ab37b6c159b92",
  "time": 1233941936,
  "mediantime": 1233938789,
  "nonce": 1536376600,
  "bits": "1d00ffff",
  "difficulty": 1,
  "chainwork": "00000000000000000000000000000000000000000000000000000cbc0cbc0cbc",
  "nTx": 1,
  "previousblockhash": "00000000bcc93b7607069e18c888c49f0755e7d188abd2af14672c9310359da5",
  "nextblockhash": "00000000345b12eaca4c045bb0320d37fb34026b8b5f2e951c617e4b90bde130",
  "strippedsize": 216,
  "size": 216,
  "weight": 864,
  "tx": [
    {
      "txid": "32990f98911e2f6a74f46dd297ea710f2a0ffd03dacb3038702ab37b6c159b92",
      "hash": "32990f98911e2f6a74f46dd297ea710f2a0ffd03dacb3038702ab37b6c159b92",
      "version": 1,
      "size": 135,
      "vsize": 135,
      "weight": 540,
      "locktime": 0,
      "vin": [
        {
          "coinbase": "04ffff001d029703",
          "sequence": 4294967295
        }
      ],
      "vout": [
        {
          "value": 50.0,
          "n": 0,
          "scriptPubKey": {
            "asm": "0480a7a2ed1c2727e1375b12cbd17879457865e46d59c74aff3b813c84e623196e1fb6c0e43e6cf709117050ccb6006fbcfc7c4e2dbcd8149e54e1e56787bba78a OP_CHECKSIG",
            "desc": "pk(0480a7a2ed1c2727e1375b12cbd17879457865e46d59c74aff3b813c84e623196e1fb6c0e43e6cf709117050ccb6006fbcfc7c4e2dbcd8149e54e1e56787bba78a)#2yeewjpp",
            "hex": "410480a7a2ed1c2727e1375b12cbd17879457865e46d59c74aff3b813c84e623196e1fb6c0e43e6cf709117050ccb6006fbcfc7c4e2dbcd8149e54e1e56787bba78aac",
            "type": "pubkey"
          }
        }
      ],
      "hex": "01000000010000000000000000000000000000000000000000000000000000000000000000ffffffff0804ffff001d029703ffffffff0100f2052a0100000043410480a7a2ed1c2727e1375b12cbd17879457865e46d59c74aff3b813c84e623196e1fb6c0e43e6cf709117050ccb6006fbcfc7c4e2dbcd8149e54e1e56787bba78aac00000000"
    }
  ]
}