{
  "hash": "0000000025ebddf45176d4cd83fe40389178af94c9f4a05e6e6799ccf7ac88ec",
  "confirmations": 51988,
  "height": 1110,
  "version": 1,
  "versionHex": "00000001",
  "merkleroot": "49a29f4d764270f978033f7d236e50cfd21c410dc8cf99e12f898dca6e1f1a2a",
  "time": 1232429699,
  "mediantime": 1232427022,
  "nonce": 481055517,
  "bits": "1d00ffff",
  "difficulty": 1,
  "chainwork": "0000000000000000000000000000000000000000000000000000045704570457",
  "nTx": 1,
  "previousblockhash": "00000000a4a9db6293064c6f7a3e583af08cedffef0ab6ef9c4d5066e2463868",
  "nextblockhash": "00000000ca59764b4ff11d88ea67e641dba94a17520ebd10f1631b21a18d5805",
  "strippedsize": 216,
  "size": 216,
  "weight": 864,
  "tx": [
    {
      "txid": "49a29f4d764270f978033f7d236e50cfd21c410dc8cf99e12f898dca6e1f1a2a",
      "hash": "49a29f4d764270f978033f7d236e50cfd21c410dc8cf99e12f898dca6e1f1a2a",
      "version": 1,
      "size": 135,
      "vsize": 135,
      "weight": 540,
      "locktime": 0,
      "vin": [
        {
          "coinbase": "04ffff001d023807",
          "sequence": 4294967295
        }
      ],
      "vout": [
        {
          "value": 50.0,
          "n": 0,
          "scriptPubKey": {
            "asm": "046fb7f82bd5b19adcb4e0f2b20f1e670ab14e316f880c72057e2b1315bcadb85f10a9e439961111e263578f8593b8c0c43b0b48760f811c73c5a0a06f6959edb4 OP_CHECKSIG",
            "desc": "pk(046fb7f82bd5b19adcb4e0f2b20f1e670ab14e316f880c72057e2b1315bcadb85f10a9e439961111e263578f8593b8c0c43b0b48760f811c73c5a0a06f6959edb4)#fs3vsjyc",
            "hex": "41046fb7f82bd5b19adcb4e0f2b20f1e670ab14e316f880c72057e2b1315bcadb85f10a9e439961111e263578f8593b8c0c43b0b48760f811c73c5a0a06f6959edb4ac",
            "type": "pubkey"
          }
        }
      ],
      "hex": "01000000010000000000000000000000000000000000000000000000000000000000000000ffffffff0804ffff001d023807ffffffff0100f2052a010000004341046fb7f82bd5b19adcb4e0f2b20f1e670ab14e316f880c72057e2b1315bcadb85f10a9e439961111e263578f8593b8c0c43b0b48760f811c73c5a0a06f6959edb4ac00000000"
    }
  ]
}