{
  "hash": "00000000417a0fcdb5047f37ed922c536fa7c27b99fc2d455016a42e11b6e96c",
  "confirmations": 52350,
  "height": 748,
  "version": 1,
  "versionHex": "00000001",
  "merkleroot": "7cef5389d7cfa7ff8b009eb4c9fb2531e78377dbeba3cc3afc8cc5128fec0e22",
  "time": 1232150102,
  "mediantime": 1232144951,
  "nonce": 1471282,
  "bits": "1d00ffff",
  "difficulty": 1,
  "chainwork": "000000000000000000000000000000000000000000000000000002ed02ed02ed",
  "nTx": 1,
  "previousblockhash": "000000006cae5f88a202295f6435ba871e03290523110e4b4be443db054561cb",
  "nextblockhash": "00000000f6b7bac6920871b0a04a0c6c0d3aafd178acc7d057562c45f7dfc0ce",
  "strippedsize": 215,
  "size": 215,
  "weight": 860,
  "tx": [
    {
      "txid": "7cef5389d7cfa7ff8b009eb4c9fb2531e78377dbeba3cc3afc8cc5128fec0e22",
      "hash": "7cef5389d7cfa7ff8b009eb4c9fb2531e78377dbeba3cc3afc8cc5128fec0e22",
      "version": 1,
      "size": 134,
      "vsize": 134,
      "weight": 536,
      "locktime": 0,
      "vin": [
        {
          "coinbase": "04ffff001d0128",
          "sequence": 4294967295
        }
      ],
      "vout": [
        {
          "value": 50.0,
          "n": 0,
          "scriptPubKey": {
            "asm": "040e5294b908cf239280dfaf35d3f92c711d1774a2d4ed0774f79a7c326370be736dbc4a7e986b45e36a34e8057f6cfba2e0adb7ef93b275885614fb1469675ac9 OP_CHECKSIG",
            "desc": "pk(040e5294b908cf239280dfaf35d3f92c711d1774a2d4ed0774f79a7c326370be736dbc4a7e986b45e36a34e8057f6cfba2e0adb7ef93b275885614fb1469675ac9)#rtfm4206",
            "hex": "41040e5294b908cf239280dfaf35d3f92c711d1774a2d4ed0774f79a7c326370be736dbc4a7e986b45e36a34e8057f6cfba2e0adb7ef93b275885614fb1469675ac9ac",
            "type": "pubkey"
          }
        }
      ],
      "hex": "01000000010000000000000000000000000000000000000000000000000000000000000000ffffffff0704ffff001d0128ffffffff0100f2052a010000004341040e5294b908cf239280dfaf35d3f92c711d1774a2d4ed0774f79a7c326370be736dbc4a7e986b45e36a34e8057f6cfba2e0adb7ef93b275885614fb1469675ac9ac00000000"
    }
  ]
}