{
  "hash": "000000002af9ef1b57fda3700f6cf24fec26f78ec9edc468e38acecce0237e8c",
  "confirmations": 46964,
  "height": 6134,
  "version": 1,
  "versionHex": "00000001",
  "merkleroot": "82d5f3cfc57548d7fee334f8cb9b727fca4a331b5d6f76df0892504cd7a1332b",
  "time": 1236036279,
  "mediantime": 1236031126,
  "nonce": 2326174228,
  "bits": "1d00ffff",
  "difficulty": 1,
  "chainwork": "000000000000000000000000000000000000000000000000000017f717f717f7",
  "nTx": 1,
  "previousblockhash": "00000000ce3f95831ae055a9fe6e497340a15a10a1edc7c06473564635f7f1c2",
  "nextblockhash": "0000000010774ff48119619dc84c5b158dacfb715fdb8aec96bf0324797d108e",
  "strippedsize": 216,
  "size": 216,
  "weight": 864,
  "tx": [
    {
      "txid": "82d5f3cfc57548d7fee334f8cb9b727fca4a331b5d6f76df0892504cd7a1332b",
      "hash": "82d5f3cfc57548d7fee334f8cb9b727fca4a331b5d6f76df0892504cd7a1332b",
      "version": 1,
      "size": 135,
      "vsize": 135,
      "weight": 540,
      "locktime": 0,
      "vin": [
        {
          "coinbase": "04ffff001d026a07",
          "sequence": 4294967295
        }
      ],
      "vout": [
        {
          "value": 50.0,
          "n": 0,
          "scriptPubKey": {
            "asm": "04b53ca1dfeeecf982e76169317cd50b9306871ffa97103a47806cddf37e2bebe39bf87983dc159910e27cb32490f00a4f3124e8c5c5b23ad75de137b1c92a8992 OP_CHECKSIG",
            "desc": "pk(04b53ca1dfeeecf982e76169317cd50b9306871ffa97103a47806cddf37e2bebe39bf87983dc159910e27cb32490f00a4f3124e8c5c5b23ad75de137b1c92a8992)#tkspnl0a",
            "hex": "4104b53ca1dfeeecf982e76169317cd50b9306871ffa97103a47806cddf37e2bebe39bf87983dc159910e27cb32490f00a4f3124e8c5c5b23ad75de137b1c92a8992ac",
            "type": "pubkey"
          }
        }
      ],
      "hex": "01000000010000000000000000000000000000000000000000000000000000000000000000ffffffff0804ffff001d026a07ffffffff0100f2052a01000000434104b53ca1dfeeecf982e76169317cd50b9306871ffa97103a47806cddf37e2bebe39bf87983dc159910e27cb32490f00a4f3124e8c5c5b23ad75de137b1c92a8992ac00000000"
    }
  ]
}