{
  "hash": "0000000082b5015589a3fdf2d4baff403e6f0be035a5d9742c1cae6295464449",
  "confirmations": 51768,
  "height": 3,
  "version": 1,
  "versionHex": "00000001",
  "merkleroot": "999e1c837c76a1b7fbb7e57baf87b309960f5ffefbf2a9b95dd890602272f644",
  "time": 1231470173,
  "mediantime": 1231469744,
  "nonce": 1844305925,
  "bits": "1d00ffff",
  "difficulty": 1,
  "chainwork": "0000000000000000000000000000000000000000000000000000000400040004",
  "nTx": 1,
  "previousblockhash": "000000006a625f06636b8bb6ac7b960a8d03705d1ace08b1a19da3fdcc99ddbd",
  "nextblockhash": "000000004ebadb55ee9096c9a2f8880e09da59c0d68b1c228da88e48844a1485",
  "strippedsize": 215,
  "size": 215,
  "weight": 860,
  "tx": [
    {
      "txid": "999e1c837c76a1b7fbb7e57baf87b309960f5ffefbf2a9b95dd890602272f644",
      "hash": "999e1c837c76a1b7fbb7e57baf87b309960f5ffefbf2a9b95dd890602272f644",
      "version": 1,
      "size": 134,
      "vsize": 134,
      "weight": 536,
      "locktime": 0,
      "vin": [
        {
          "coinbase": "04ffff001d010e",
          "sequence": 4294967295
        }
      ],
      "vout": [
        {
          "value": 50.0,
          "n": 0,
          "scriptPubKey": {
            "asm": "0494b9d3e76c5b1629ecf97fff95d7a4bbdac87cc26099ada28066c6ff1eb9191223cd897194a08d0c2726c5747f1db49e8cf90e75dc3e3550ae9b30086f3cd5aa OP_CHECKSIG",
            "desc": "pk(0494b9d3e76c5b1629ecf97fff95d7a4bbdac87cc26099ada28066c6ff1eb9191223cd897194a08d0c2726c5747f1db49e8cf90e75dc3e3550ae9b30086f3cd5aa)#4clk3zwz",
            "hex": "410494b9d3e76c5b1629ecf97fff95d7a4bbdac87cc26099ada28066c6ff1eb9191223cd897194a08d0c2726c5747f1db49e8cf90e75dc3e3550ae9b30086f3cd5aaac",
            "type": "pubkey"
          }
        }
      ],
      "hex": "01000000010000000000000000000000000000000000000000000000000000000000000000ffffffff0704ffff001d010effffffff0100f2052a0100000043410494b9d3e76c5b1629ecf97fff95d7a4bbdac87cc26099ada28066c6ff1eb9191223cd897194a08d0c2726c5747f1db49e8cf90e75dc3e3550ae9b30086f3cd5aaac00000000"
    }
  ]
}