{
  "hash": "00000000b7b577ff23b9d45212efd9c5dd98d347b7a4b4e8b19df5a51fa2f54d",
  "confirmations": 49695,
  "height": 3403,
  "version": 1,
  "versionHex": "00000001",
  "merkleroot": "cfb88123aa9619e1e849f6b3d789bf922770b0d9469e705a1bf24a56beb9a431",
  "time": 1234041211,
  "mediantime": 1234036352,
  "nonce": 593925945,
  "bits": "1d00ffff",
  "difficulty": 1,
  "chainwork": "00000000000000000000000000000000000000000000000000000d4c0d4c0d4c",
  "nTx": 1,
  "previousblockhash": "0000000018494c27c243e8ab8b6c322f12fbbe8f5908d0b42eafb9589fffe3a7",
  "nextblockhash": "00000000a3bf8cecebaf6aa03b9f0dc7329a26d183c2064d381b7f5c91d78cfc",
  "strippedsize": 216,
  "size": 216,
  "weight": 864,
  "tx": [
    {
      "txid": "cfb88123aa9619e1e849f6b3d789bf922770b0d9469e705a1bf24a56beb9a431",
      "hash": "cfb88123aa9619e1e849f6b3d789bf922770b0d9469e705a1bf24a56beb9a431",
      "version": 1,
      "size": 135,
      "vsize": 135,
      "weight": 540,
      "locktime": 0,
      "vin": [
        {
          "coinbase": "04ffff001d02bd05",
          "sequence": 4294967295
        }
      ],
      "vout": [
        {
          "value": 50.0,
          "n": 0,
          "scriptPubKey": {
            "asm": "04ce322c26a60b2a53f019a903ddd868c3d462b0191a97f2bab32c840e92679028677430aabcb78d7cefb3d05c5d6b785ae2c778d68ad366ff3dad41bc51884984 OP_CHECKSIG",
            "desc": "pk(04ce322c26a60b2a53f019a903ddd868c3d462b0191a97f2bab32c840e92679028677430aabcb78d7cefb3d05c5d6b785ae2c778d68ad366ff3dad41bc51884984)#38scf48e",
            "hex": "4104ce322c26a60b2a53f019a903ddd868c3d462b0191a97f2bab32c840e92679028677430aabcb78d7cefb3d05c5d6b785ae2c778d68ad366ff3dad41bc51884984ac",
            "type": "pubkey"
          }
        }
      ],
      "hex": "01000000010000000000000000000000000000000000000000000000000000000000000000ffffffff0804ffff001d02bd05ffffffff0100f2052a01000000434104ce322c26a60b2a53f019a903ddd868c3d462b0191a97f2bab32c840e92679028677430aabcb78d7cefb3d05c5d6b785ae2c778d68ad366ff3dad41bc51884984ac00000000"
    }
  ]
}