{
  "hash": "00000000591c60926972a52a26008a57f6b4a2ececfc7bcd440e39494f9d2650",
  "confirmations": 46675,
  "height": 6423,
  "version": 1,
  "versionHex": "00000001",
  "merkleroot": "07bff9026278d107f49229c8cd18257813a77a572fed028710f11496ee1e79c1",
  "time": 1236272469,
  "mediantime": 1236269230,
  "nonce": 2271973145,
  "bits": "1d00ffff",
  "difficulty": 1,
  "chainwork": "0000000000000000000000000000000000000000000000000000191819181918",
  "nTx": 1,
  "previousblockhash": "00000000d624dd8adfab7602eeff44d0bd9d23d177b72b80b00c066e370dfc2b",
  "nextblockhash": "00000000ddc2c05eeaa044dcd039cd68c74f2747f8fe38b2f08a511634ead4a0",
  "strippedsize": 216,
  "size": 216,
  "weight": 864,
  "tx": [
    {
      "txid": "07bff9026278d107f49229c8cd18257813a77a572fed028710f11496ee1e79c1",
      "hash": "07bff9026278d107f49229c8cd18257813a77a572fed028710f11496ee1e79c1",
      "version": 1,
      "size": 135,
      "vsize": 135,
      "weight": 540,
      "locktime": 0,
      "vin": [
        {
          "coinbase": "04ffff001d023b02",
          "sequence": 4294967295
        }
      ],
      "vout": [
        {
          "value": 50.0,
          "n": 0,
          "scriptPubKey": {
            "asm": "04586d624022f58870bcc0bd77284b690dfc71c189235697a641774056ca2da823c8299bee1c087e7983553006ff218e55166ea743cfc62e0dcddbd49ba5274f88 OP_CHECKSIG",
            "desc": "pk(04586d624022f58870bcc0bd77284b690dfc71c189235697a641774056ca2da823c8299bee1c087e7983553006ff218e55166ea743cfc62e0dcddbd49ba5274f88)#xz9nx8lg",
            "hex": "4104586d624022f58870bcc0bd77284b690dfc71c189235697a641774056ca2da823c8299bee1c087e7983553006ff218e55166ea743cfc62e0dcddbd49ba5274f88ac",
            "type": "pubkey"
          }
        }
      ],
      "hex": "01000000010000000000000000000000000000000000000000000000000000000000000000ffffffff0804ffff001d023b02ffffffff0100f2052a01000000434104586d624022f58870bcc0bd77284b690dfc71c189235697a641774056ca2da823c8299bee1c087e7983553006ff218e55166ea743cfc62e0dcddbd49ba5274f88ac00000000"
    }
  ]
}