{
  "hash": "00000000faac558a7a5266c3c678e53b53b88a619b00dd825395b8e4ca44cdd9",
  "confirmations": 43587,
  "height": 9511,
  "version": 1,
  "versionHex": "00000001",
  "merkleroot": "64111c54bba94a8e42b474d0da6cbd441a9a58722fa3cff7c7680c89dff8a0fc",
  "time": 1238639017,
  "mediantime": 1238632660,
  "nonce": 130444156,
  "bits": "1d00ffff",
  "difficulty": 1,
  "chainwork": "0000000000000000000000000000000000000000000000000000252825282528",
  "nTx": 1,
  "previousblockhash": "000000003ef4d27daf6dc6488206e439006466d2b9b3681ae07512e3f8f0a212",
  "nextblockhash": "000000009be075c2742955e8cad5aa09390e2e7feffdfecc371bdcae0fb60951",
  "strippedsize": 216,
  "size": 216,
  "weight": 864,
  "tx": [
    {
      "txid": "64111c54bba94a8e42b474d0da6cbd441a9a58722fa3cff7c7680c89dff8a0fc",
      "hash": "64111c54bba94a8e42b474d0da6cbd441a9a58722fa3cff7c7680c89dff8a0fc",
      "version": 1,
      "size": 135,
      "vsize": 135,
      "weight": 540,
      "locktime": 0,
      "vin": [
        {
          "coinbase": "04ffff001d021307",
          "sequence": 4294967295
        }
      ],
      "vout": [
        {
          "value": 50.0,
          "n": 0,
          "scriptPubKey": {
            "asm": "043510054c27ed625bc1791a5a4b2f280c1b7948be83ca1ec031b74a2746d173233755b190335a9b6d85b932839ef5e683069f4c7d35e74ec893aa4a9d5efee034 OP_CHECKSIG",
            "desc": "pk(043510054c27ed625bc1791a5a4b2f280c1b7948be83ca1ec031b74a2746d173233755b190335a9b6d85b932839ef5e683069f4c7d35e74ec893aa4a9d5efee034)#yzn5jv9q",
            "hex": "41043510054c27ed625bc1791a5a4b2f280c1b7948be83ca1ec031b74a2746d173233755b190335a9b6d85b932839ef5e683069f4c7d35e74ec893aa4a9d5efee034ac",
            "type": "pubkey"
          }
        }
      ],
      "hex": "01000000010000000000000000000000000000000000000000000000000000000000000000ffffffff0804ffff001d021307ffffffff0100f2052a010000004341043510054c27ed625bc1791a5a4b2f280c1b7948be83ca1ec031b74a2746d173233755b190335a9b6d85b932839ef5e683069f4c7d35e74ec893aa4a9d5efee034ac00000000"
    }
  ]
}