{
  "hash": "00000000e9d3d760fa6b03c9308217449067adf1d1d660541f133123ead320ce",
  "confirmations": 43307,
  "height": 9791,
  "version": 1,
  "versionHex": "00000001",
  "merkleroot": "cc9d31fdb5f15e94c8cdedb3fea69d09c4ea9d6fc30a5d54d26ddb48e4dcf8c5",
  "time": 1238851188,
  "mediantime": 1238847892,
  "nonce": 3033325857,
  "bits": "1d00ffff",
  "difficulty": 1,
  "chainwork": "0000000000000000000000000000000000000000000000000000264026402640",
  "nTx": 1,
  "previousblockhash": "000000002e45eea4df9758f40d06a52cc05e34e9a7cf2384fb19b5fed1512a75",
  "nextblockhash": "00000000d27dede5849312f2af73d469d5477095abfd74ad508ccb5d44745903",
  "strippedsize": 215,
  "size": 215,
  "weight": 860,
  "tx": [
    {
      "txid": "cc9d31fdb5f15e94c8cdedb3fea69d09c4ea9d6fc30a5d54d26ddb48e4dcf8c5",
      "hash": "cc9d31fdb5f15e94c8cdedb3fea69d09c4ea9d6fc30a5d54d26ddb48e4dcf8c5",
      "version": 1,
      "size": 134,
      "vsize": 134,
      "weight": 536,
      "locktime": 0,
      "vin": [
        {
          "coinbase": "04ffff001d012d",
          "sequence": 4294967295
        }
      ],
      "vout": [
        {
          "value": 50.0,
          "n": 0,
          "scriptPubKey": {
            "asm": "04455471434fc280c24c2aa425b7a700ac355dff89be6f186d33304c98200490f443ff55eaec3934f0a7ecb0cf38cfb6f7b5842c488004bf61bf81ed0dac02168e OP_CHECKSIG",
            "desc": "pk(04455471434fc280c24c2aa425b7a700ac355dff89be6f186d33304c98200490f443ff55eaec3934f0a7ecb0cf38cfb6f7b5842c488004bf61bf81ed0dac02168e)#tt0l8gkj",
            "hex": "4104455471434fc280c24c2aa425b7a700ac355dff89be6f186d33304c98200490f443ff55eaec3934f0a7ecb0cf38cfb6f7b5842c488004bf61bf81ed0dac02168eac",
            "type": "pubkey"
          }
        }
      ],
      "hex": "01000000010000000000000000000000000000000000000000000000000000000000000000ffffffff0704ffff001d012dffffffff0100f2052a01000000434104455471434fc280c24c2aa425b7a700ac355dff89be6f186d33304c98200490f443ff55eaec3934f0a7ecb0cf38cfb6f7b5842c488004bf61bf81ed0dac02168eac00000000"
    }
  ]
}