{
  "hash": "000000002b2a480b297c264ed72b6bdd5a50d6e2d767dbed63aac4aae29f4503",
  "confirmations": 47288,
  "height": 5810,
  "version": 1,
  "versionHex": "00000001",
  "merkleroot": "027463ff33531d13f00ce9eab30557b186f6ad26cc0472ee717142ea0c6eacce",
  "time": 1235767024,
  "mediantime": 1235762191,
  "nonce": 2764439301,
  "bits": "1d00ffff",
  "difficulty": 1,
  "chainwork": "000000000000000000000000000000000000000000000000000016b316b316b3",
  "nTx": 1,
  "previousblockhash": "000000001912e096fc05e39250b509c3a7f296f009a9d094e063092a5d57e315",
  "nextblockhash": "00000000e77d0285d63710f82deb70ec76e49fde5ffda000071d1c00ec112638",
  "strippedsize": 216,
  "size": 216,
  "weight": 864,
  "tx": [
    {
      "txid": "027463ff33531d13f00ce9eab30557b186f6ad26cc0472ee717142ea0c6eacce",
      "hash": "027463ff33531d13f00ce9eab30557b186f6ad26cc0472ee717142ea0c6eacce",
      "version": 1,
      "size": 135,
      "vsize": 135,
      "weight": 540,
      "locktime": 0,
      "vin": [
        {
          "coinbase": "04ffff001d02e900",
          "sequence": 4294967295
        }
      ],
      "vout": [
        {
          "value": 50.0,
          "n": 0,
          "scriptPubKey": {
            "asm": "044c27c8f3372a8b81ad57555ff03123306f6f46f780e1d65e92219e04013015ad95e8ba21020ff49adbf4bf15a167b8ca49d70dcbf967961ac52febe313d4c24d OP_CHECKSIG",
            "desc": "pk(044c27c8f3372a8b81ad57555ff03123306f6f46f780e1d65e92219e04013015ad95e8ba21020ff49adbf4bf15a167b8ca49d70dcbf967961ac52febe313d4c24d)#epxw874e",
            "hex": "41044c27c8f3372a8b81ad57555ff03123306f6f46f780e1d65e92219e04013015ad95e8ba21020ff49adbf4bf15a167b8ca49d70dcbf967961ac52febe313d4c24dac",
            "type": "pubkey"
          }
        }
      ],
      "hex": "01000000010000000000000000000000000000000000000000000000000000000000000000ffffffff0804ffff001d02e900ffffffff0100f2052a010000004341044c27c8f3372a8b81ad57555ff03123306f6f46f780e1d65e92219e04013015ad95e8ba21020ff49adbf4bf15a167b8ca49d70dcbf967961ac52febe313d4c24dac00000000"
    }
  ]
}