{
  "hash": "00000000bf4dcf6e329283e7182d438a8f1f89703593bac3a7d11f4e31d33dd9",
  "confirmations": 51741,
  "height": 1357,
  "version": 1,
  "versionHex": "00000001",
  "merkleroot": "84e82558638b23a5954d53fa5208f1c340fd45ebf419d627735d1da255b12da7",
  "time": 1232648310,
  "mediantime": 1232643036,
  "nonce": 3622034198,
  "bits": "1d00ffff",
  "difficulty": 1,
  "chainwork": "0000000000000000000000000000000000000000000000000000054e054e054e",
  "nTx": 1,
  "previousblockhash": "0000000034477170a51f40da9bce78f85c555a26be1361ce8c2900b02786f0c4",
  "nextblockhash": "00000000cd59f48beee18995921d026a34e6e09941ae2f78f529a9ed6f698009",
  "strippedsize": 216,
  "size": 216,
  "weight": 864,
  "tx": [
    {
      "txid": "84e82558638b23a5954d53fa5208f1c340fd45ebf419d627735d1da255b12da7",
      "hash": "84e82558638b23a5954d53fa5208f1c340fd45ebf419d627735d1da255b12da7",
      "version": 1,
      "size": 135,
      "vsize": 135,
      "weight": 540,
      "locktime": 0,
      "vin": [
        {
          "coinbase": "04ffff001d024f01",
          "sequence": 4294967295
        }
      ],
      "vout": [
        {
          "value": 50.0,
          "n": 0,
          "scriptPubKey": {
            "asm": "04443e8da33b29775cfb5727dccddc0f87f93a4d789db28c5ef0a4e41495b92b404ace3d7c1c5d6b24c35045298074332634bfdce980395e2724fe5506f76476a8 OP_CHECKSIG",
            "desc": "pk(04443e8da33b29775cfb5727dccddc0f87f93a4d789db28c5ef0a4e41495b92b404ace3d7c1c5d6b24c35045298074332634bfdce980395e2724fe5506f76476a8)#xx8g8dmc",
            "hex": "4104443e8da33b29775cfb5727dccddc0f87f93a4d789db28c5ef0a4e41495b92b404ace3d7c1c5d6b24c35045298074332634bfdce980395e2724fe5506f76476a8ac",
            "type": "pubkey"
          }
        }
      ],
      "hex": "01000000010000000000000000000000000000000000000000000000000000000000000000ffffffff0804ffff001d024f01ffffffff0100f2052a01000000434104443e8da33b29775cfb5727dccddc0f87f93a4d789db28c5ef0a4e41495b92b404ace3d7c1c5d6b24c35045298074332634bfdce980395e2724fe5506f76476a8ac00000000"
    }
  ]
}