{
  "hash": "000000008fde5983d3ac6db5c744e37fc2da2be557443186056469437f274578",
  "confirmations": 50649,
  "height": 2449,
  "version": 1,
  "versionHex": "00000001",
  "merkleroot": "db4ed532b01b511753caf1f0193c165c8c6ffd07ca362ec28000d36956221550",
  "time": 1233391651,
  "mediantime": 1233388584,
  "nonce": 774512391,
  "bits": "1d00ffff",
  "difficulty": 1,
  "chainwork": "0000000000000000000000000000000000000000000000000000099209920992",
  "nTx": 1,
  "previousblockhash": "000000008e6d8a7b7ae77ab2647459e3e1300d0adfa7f6cd6576fc9ec38378b3",
  "nextblockhash": "000000007bd0cc68f33f022f9d73889fa3e2bc58820e30d21567475633c40e99",
  "strippedsize": 215,
  "size": 215,
  "weight": 860,
  "tx": [
    {
      "txid": "db4ed532b01b511753caf1f0193c165c8c6ffd07ca362ec28000d36956221550",
      "hash": "db4ed532b01b511753caf1f0193c165c8c6ffd07ca362ec28000d36956221550",
      "version": 1,
      "size": 134,
      "vsize": 134,
      "weight": 536,
      "locktime": 0,
      "vin": [
        {
          "coinbase": "04ffff001d0178",
          "sequence": 4294967295
        }
      ],
      "vout": [
        {
          "value": 50.0,
          "n": 0,
          "scriptPubKey": {
            "asm": "04052a513319f4394ca373054341fcfd1a475a09aadd396c639c259960ac90d01ed6c6e45648693e80347f74c691e3a6d5808e1979e52c47b516d9d3febdcd0b39 OP_CHECKSIG",
            "desc": "pk(04052a513319f4394ca373054341fcfd1a475a09aadd396c639c259960ac90d01ed6c6e45648693e80347f74c691e3a6d5808e1979e52c47b516d9d3febdcd0b39)#7hh2svjq",
            "hex": "4104052a513319f4394ca373054341fcfd1a475a09aadd396c639c259960ac90d01ed6c6e45648693e80347f74c691e3a6d5808e1979e52c47b516d9d3febdcd0b39ac",
            "type": "pubkey"
          }
        }
      ],
      "hex": "01000000010000000000000000000000000000000000000000000000000000000000000000ffffffff0704ffff001d0178ffffffff0100f2052a01000000434104052a513319f4394ca373054341fcfd1a475a09aadd396c639c259960ac90d01ed6c6e45648693e80347f74c691e3a6d5808e1979e52c47b516d9d3febdcd0b39ac00000000"
    }
  ]
}