{
  "hash": "00000000bbdf2c879ae84da6d38f018bf29f4e08732f5a817069165ad484d024",
  "confirmations": 44284,
  "height": 8814,
  "version": 1,
  "versionHex": "00000001",
  "merkleroot": "b7435c028d7835dccb95e0faa90a149787ba2c299b83d08e75cabb2b5a2851cd",
  "time": 1238109388,
  "mediantime": 1238106210,
  "nonce": 31893985,
  "bits": "1d00ffff",
  "difficulty": 1,
  "chainwork": "0000000000000000000000000000000000000000000000000000226f226f226f",
  "nTx": 1,
  "previousblockhash": "00000000549af48de2d951296f00b748420c5335baf310b7d6d3b55ab09ec372",
  "nextblockhash": "000000003272a21b70414d8683a810a9474dec208f5bee443a0c81ed094f71d3",
  "strippedsize": 216,
  "size": 216,
  "weight": 864,
  "tx": [
    {
      "txid": "b7435c028d7835dccb95e0faa90a149787ba2c299b83d08e75cabb2b5a2851cd",
      "hash": "b7435c028d7835dccb95e0faa90a149787ba2c299b83d08e75cabb2b5a2851cd",
      "version": 1,
      "size": 135,
      "vsize": 135,
      "weight": 540,
      "locktime": 0,
      "vin": [
        {
          "coinbase": "04ffff001d023103",
          "sequence": 4294967295
        }
      ],
      "vout": [
        {
          "value": 50.0,
          "n": 0,
          "scriptPubKey": {
            "asm": "048ea9dc265199e746a01ea719d20e39dccd92d1789719d6a32626f650bc1e948ec6a743713094dbb0e805397a4919b1edc239c7ed8f07a5ed66487d086e4196c6 OP_CHECKSIG",
            "desc": "pk(048ea9dc265199e746a01ea719d20e39dccd92d1789719d6a32626f650bc1e948ec6a743713094dbb0e805397a4919b1edc239c7ed8f07a5ed66487d086e4196c6)#6z3spzn9",
            "hex": "41048ea9dc265199e746a01ea719d20e39dccd92d1789719d6a32626f650bc1e948ec6a743713094dbb0e805397a4919b1edc239c7ed8f07a5ed66487d086e4196c6ac",
            "type": "pubkey"
          }
        }
      ],
      "hex": "01000000010000000000000000000000000000000000000000000000000000000000000000ffffffff0804ffff001d023103ffffffff0100f2052a010000004341048ea9dc265199e746a01ea719d20e39dccd92d1789719d6a32626f650bc1e948ec6a743713094dbb0e805397a4919b1edc239c7ed8f07a5ed66487d086e4196c6ac00000000"
    }
  ]
}