{
  "hash": "00000000cf24dec9975c7bac7a1ca87a8fb5ebc0399c884b8586e71947f76a71",
  "confirmations": 45124,
  "height": 7974,
  "version": 1,
  "versionHex": "00000001",
  "merkleroot": "1ccc2fbf138e7e41ad2b24e6cc58e627446e2450ae8f08e663f7e455699924c9",
  "time": 1237444992,
  "mediantime": 1237441615,
  "nonce": 3037726517,
  "bits": "1d00ffff",
  "difficulty": 1,
  "chainwork": "00000000000000000000000000000000000000000000000000001f271f271f27",
  "nTx": 1,
  "previousblockhash": "00000000697c9c23663f76d60e6d777ce26011ba3539b34963a34a320aedc58d",
  "nextblockhash": "00000000d9c0e9269ed8bdcb6e29e73dd26fa5c38773f6a9d294734687cef0c3",
  "strippedsize": 216,
  "size": 216,
  "weight": 864,
  "tx": [
    {
      "txid": "1ccc2fbf138e7e41ad2b24e6cc58e627446e2450ae8f08e663f7e455699924c9",
      "hash": "1ccc2fbf138e7e41ad2b24e6cc58e627446e2450ae8f08e663f7e455699924c9",
      "version": 1,
      "size": 135,
      "vsize": 135,
      "weight": 540,
      "locktime": 0,
      "vin": [
        {
          "coinbase": "04ffff001d02f508",
          "sequence": 4294967295
        }
      ],
      "vout": [
        {
          "value": 50.0,
          "n": 0,
          "scriptPubKey": {
            "asm": "04e42f0a1525f9063cc580a16e9e6b3b0f1131f93eebda507051784908d08ed4fa16a527fc2ab078c3275ec389bac466f79f935a3f79513d061438935406f5e9b0 OP_CHECKSIG",
            "desc": "pk(04e42f0a1525f9063cc580a16e9e6b3b0f1131f93eebda507051784908d08ed4fa16a527fc2ab078c3275ec389bac466f79f935a3f79513d061438935406f5e9b0)#xvn6kk8k",
            "hex": "4104e42f0a1525f9063cc580a16e9e6b3b0f1131f93eebda507051784908d08ed4fa16a527fc2ab078c3275ec389bac466f79f935a3f79513d061438935406f5e9b0ac",
            "type": "pubkey"
          }
        }
      ],
      "hex": "01000000010000000000000000000000000000000000000000000000000000000000000000ffffffff0804ffff001d02f508ffffffff0100f2052a01000000434104e42f0a1525f9063cc580a16e9e6b3b0f1131f93eebda507051784908d08ed4fa16a527fc2ab078c3275ec389bac466f79f935a3f79513d061438935406f5e9b0ac00000000"
    }
  ]
}