{
  "hash": "0000000001c470c233e5c364ba36cd9330617c3307892a44cfc2850400e6deb3",
  "confirmations": 50861,
  "height": 2237,
  "version": 1,
  "versionHex": "00000001",
  "merkleroot": "f22e7dd1d1765aa090f16c824f9dd45b24117ba23d54e17537f8db61b0765dba",
  "time": 1233238084,
  "mediantime": 1233235713,
  "nonce": 589757974,
  "bits": "1d00ffff",
  "difficulty": 1,
  "chainwork": "000000000000000000000000000000000000000000000000000008be08be08be",
  "nTx": 1,
  "previousblockhash": "00000000e2e56d17b675db5c858b3735593eca5ed85c54aa23fd299e29310c37",
  "nextblockhash": "000000009439371e0edadc3fcca04f10319f6ce7a79664ff3bd81539cca12739",
  "strippedsize": 216,
  "size": 216,
  "weight": 864,
  "tx": [
    {
      "txid": "f22e7dd1d1765aa090f16c824f9dd45b24117ba23d54e17537f8db61b0765dba",
      "hash": "f22e7dd1d1765aa090f16c824f9dd45b24117ba23d54e17537f8db61b0765dba",
      "version": 1,
      "size": 135,
      "vsize": 135,
      "weight": 540,
      "locktime": 0,
      "vin": [
        {
          "coinbase": "04ffff001d02da00",
          "sequence": 4294967295
        }
      ],
      "vout": [
        {
          "value": 50.0,
          "n": 0,
          "scriptPubKey": {
            "asm": "0487dd2e85bfbc2b063dc21a7839b31f9fb7b3ff299bfce06455ec1c2badf77643887e0386fb59cf2a2f0b4206edfbe2f9e835f7c391f27620e3f821fbf3b026d6 OP_CHECKSIG",
            "desc": "pk(0487dd2e85bfbc2b063dc21a7839b31f9fb7b3ff299bfce06455ec1c2badf77643887e0386fb59cf2a2f0b4206edfbe2f9e835f7c391f27620e3f821fbf3b026d6)#8g737jaq",
            "hex": "410487dd2e85bfbc2b063dc21a7839b31f9fb7b3ff299bfce06455ec1c2badf77643887e0386fb59cf2a2f0b4206edfbe2f9e835f7c391f27620e3f821fbf3b026d6ac",
            "type": "pubkey"
          }
        }
      ],
      "hex": "01000000010000000000000000000000000000000000000000000000000000000000000000ffffffff0804ffff001d02da00ffffffff0100f2052a0100000043410487dd2e85bfbc2b063dc21a7839b31f9fb7b3ff299bfce06455ec1c2badf77643887e0386fb59cf2a2f0b4206edfbe2f9e835f7c391f27620e3f821fbf3b026d6ac00000000"
    }
  ]
}