{
  "hash": "0000000067f5c9058f4beddbdd38bf49dac8cfdbe02acaf919f045b6a38a080a",
  "confirmations": 46122,
  "height": 6976,
  "version": 1,
  "versionHex": "00000001",
  "merkleroot": "4960a669416a4f36d97bd9a7b3d58e42a7fdbf3ddffcab9e6287f18fa40c6884",
  "time": 1236697614,
  "mediantime": 1236694188,
  "nonce": 130228487,
  "bits": "1d00ffff",
  "difficulty": 1,
  "chainwork": "00000000000000000000000000000000000000000000000000001b411b411b41",
  "nTx": 1,
  "previousblockhash": "00000000395cf80fdfcb67aa69779a02a7d6d21562f74d4b53238d542248acae",
  "nextblockhash": "00000000c0f199ae6994fd526b6b01e175a72c612d1d80acc1e849f6c8a80e60",
  "strippedsize": 216,
  "size": 216,
  "weight": 864,
  "tx": [
    {
      "txid": "4960a669416a4f36d97bd9a7b3d58e42a7fdbf3ddffcab9e6287f18fa40c6884",
      "hash": "4960a669416a4f36d97bd9a7b3d58e42a7fdbf3ddffcab9e6287f18fa40c6884",
      "version": 1,
      "size": 135,
      "vsize": 135,
      "weight": 540,
      "locktime": 0,
      "vin": [
        {
          "coinbase": "04ffff001d02ca01",
          "sequence": 4294967295
        }
      ],
      "vout": [
        {
          "value": 50.0,
          "n": 0,
          "scriptPubKey": {
            "asm": "0415c448442208d882cfacd5359e21c8bee2c8b3ea24f7389e2eb954ca8841cdfc48cb4d0398492ad69b612e87381826f315d4ca611812568a0f2dea1f933899c8 OP_CHECKSIG",
            "desc": "pk(0415c448442208d882cfacd5359e21c8bee2c8b3ea24f7389e2eb954ca8841cdfc48cb4d0398492ad69b612e87381826f315d4ca611812568a0f2dea1f933899c8)#ty5j4404",
            "hex": "410415c448442208d882cfacd5359e21c8bee2c8b3ea24f7389e2eb954ca8841cdfc48cb4d0398492ad69b612e87381826f315d4ca611812568a0f2dea1f933899c8ac",
            "type": "pubkey"
          }
        }
      ],
      "hex": "01000000010000000000000000000000000000000000000000000000000000000000000000ffffffff0804ffff001d02ca01ffffffff0100f2052a0100000043410415c448442208d882cfacd5359e21c8bee2c8b3ea24f7389e2eb954ca8841cdfc48cb4d0398492ad69b612e87381826f315d4ca611812568a0f2dea1f933899c8ac00000000"
    }
  ]
}