{
  "hash": "00000000d4ff8c141c0b6ddab614cced66667ed7e37116f135ae90258a2e0867",
  "confirmations": 43976,
  "height": 9122,
  "version": 1,
  "versionHex": "00000001",
  "merkleroot": "43dd64b3a6daf90fa6b2a4cc45c8b5448e0123de04849885552596c6486177ed",
  "time": 1238345830,
  "mediantime": 1238341685,
  "nonce": 214952373,
  "bits": "1d00ffff",
  "difficulty": 1,
  "chainwork": "000000000000000000000000000000000000000000000000000023a323a323a3",
  "nTx": 1,
  "previousblockhash": "00000000819d198eb8ce9df3d5ddba6ee710cc637e83d5d806dbb541ebd85445",
  "nextblockhash": "00000000c12a769238ea24d69091d0bb501cfe00a7fc1d69c8379435a92bb908",
  "strippedsize": 216,
  "size": 216,
  "weight": 864,
  "tx": [
    {
      "txid": "43dd64b3a6daf90fa6b2a4cc45c8b5448e0123de04849885552596c6486177ed",
      "hash": "43dd64b3a6daf90fa6b2a4cc45c8b5448e0123de04849885552596c6486177ed",
      "version": 1,
      "size": 135,
      "vsize": 135,
      "weight": 540,
      "locktime": 0,
      "vin": [
        {
          "coinbase": "04ffff001d028d05",
          "sequence": 4294967295
        }
      ],
      "vout": [
        {
          "value": 50.0,
          "n": 0,
          "scriptPubKey": {
            "asm": "040cf87a8910352ad677acc4afb7aae46c85ecf63e582212152dc2bd76af00b1bfa52aac56f56d9820c627b65dae22094e9ff0bcdadfd37574afded4a4928403ef OP_CHECKSIG",
            "desc": "pk(040cf87a8910352ad677acc4afb7aae46c85ecf63e582212152dc2bd76af00b1bfa52aac56f56d9820c627b65dae22094e9ff0bcdadfd37574afded4a4928403ef)#k4l85zsc",
            "hex": "41040cf87a8910352ad677acc4afb7aae46c85ecf63e582212152dc2bd76af00b1bfa52aac56f56d9820c627b65dae22094e9ff0bcdadfd37574afded4a4928403efac",
            "type": "pubkey"
          }
        }
      ],
      "hex": "01000000010000000000000000000000000000000000000000000000000000000000000000ffffffff0804ffff001d028d05ffffffff0100f2052a010000004341040cf87a8910352ad677acc4afb7aae46c85ecf63e582212152dc2bd76af00b1bfa52aac56f56d9820c627b65dae22094e9ff0bcdadfd37574afded4a4928403efac00000000"
    }
  ]
}