{
  "hash": "000000007dabe608fd4225d279d268f431eed773f03d0a524f1cb079989ff93a",
  "confirmations": 52049,
  "height": 135,
  "version": 1,
  "versionHex": "00000001",
  "merkleroot": "f2a9c8b6b9361b21ee2f28672053ba0080b2bbbcb767ad34eb0c4d614d54014a",
  "time": 1231686376,
  "mediantime": 1231684125,
  "nonce": 2356769316,
  "bits": "1d00ffff",
  "difficulty": 1,
  "chainwork": "0000000000000000000000000000000000000000000000000000008800880088",
  "nTx": 1,
  "previousblockhash": "000000008b531a4e66ea3065d1f3368f27780b97b5070c1498dc43497a473c3a",
  "nextblockhash": "00000000b8885739dee79a5530ff50fceaea8db5d863507420aa0ef21f84ba79",
  "strippedsize": 215,
  "size": 215,
  "weight": 860,
  "tx": [
    {
      "txid": "f2a9c8b6b9361b21ee2f28672053ba0080b2bbbcb767ad34eb0c4d614d54014a",
      "hash": "f2a9c8b6b9361b21ee2f28672053ba0080b2bbbcb767ad34eb0c4d614d54014a",
      "version": 1,
      "size": 134,
      "vsize": 134,
      "weight": 536,
      "locktime": 0,
      "vin": [
        {
          "coinbase": "04ffff001d0124",
          "sequence": 4294967295
        }
      ],
      "vout": [
        {
          "value": 50.0,
          "n": 0,
          "scriptPubKey": {
            "asm": "041deab4b7de0843e4550430b01dfc20540ac1f44dec5d93238afefafd19e963dfa984f35a4750223b03f60c1539b8fa752048a6a465e00915ebd99fe5906fe966 OP_CHECKSIG",
            "desc": "pk(041deab4b7de0843e4550430b01dfc20540ac1f44dec5d93238afefafd19e963dfa984f35a4750223b03f60c1539b8fa752048a6a465e00915ebd99fe5906fe966)#dr6t3fyh",
            "hex": "41041deab4b7de0843e4550430b01dfc20540ac1f44dec5d93238afefafd19e963dfa984f35a4750223b03f60c1539b8fa752048a6a465e00915ebd99fe5906fe966ac",
            "type": "pubkey"
          }
        }
      ],
      "hex": "01000000010000000000000000000000000000000000000000000000000000000000000000ffffffff0704ffff001d0124ffffffff0100f2052a010000004341041deab4b7de0843e4550430b01dfc20540ac1f44dec5d93238afefafd19e963dfa984f35a4750223b03f60c1539b8fa752048a6a465e00915ebd99fe5906fe966ac00000000"
    }
  ]
}