{
  "hash": "00000000fab16c47b86ce9a6759599c3de955da28fe4b178d23f2d1d3ffb6ad9",
  "confirmations": 48028,
  "height": 5070,
  "version": 1,
  "versionHex": "00000001",
  "merkleroot": "df18540cdc5ccc9a897a2f55cf65d24beb2d1a583069abd2ae8e8f37925b9e2a",
  "time": 1235193510,
  "mediantime": 1235189093,
  "nonce": 3054091040,
  "bits": "1d00ffff",
  "difficulty": 1,
  "chainwork": "000000000000000000000000000000000000000000000000000013cf13cf13cf",
  "nTx": 1,
  "previousblockhash": "00000000704c45aa59a87ce579103125a28dd20808619ff0ab1b52e5a0c16fd2",
  "nextblockhash": "0000000062efff3d5ad81e54b42db0478ebbdcfcdd146287bbd7c1277d565a83",
  "strippedsize": 216,
  "size": 216,
  "weight": 864,
  "tx": [
    {
      "txid": "df18540cdc5ccc9a897a2f55cf65d24beb2d1a583069abd2ae8e8f37925b9e2a",
      "hash": "df18540cdc5ccc9a897a2f55cf65d24beb2d1a583069abd2ae8e8f37925b9e2a",
      "version": 1,
      "size": 135,
      "vsize": 135,
      "weight": 540,
      "locktime": 0,
      "vin": [
        {
          "coinbase": "04ffff001d024308",
          "sequence": 4294967295
        }
      ],
      "vout": [
        {
          "value": 50.0,
          "n": 0,
          "scriptPubKey": {
            "asm": "04fc3dfcd2a3463fe512fcd0c6beb83ca28f4e0ab60730d107e54d2632ea79f3f29c6e7b3e7687a18354ab527b165628c71478a48d9842a32ce97aa71f454004e8 OP_CHECKSIG",
            "desc": "pk(04fc3dfcd2a3463fe512fcd0c6beb83ca28f4e0ab60730d107e54d2632ea79f3f29c6e7b3e7687a18354ab527b165628c71478a48d9842a32ce97aa71f454004e8)#rjpru8kl",
            "hex": "4104fc3dfcd2a3463fe512fcd0c6beb83ca28f4e0ab60730d107e54d2632ea79f3f29c6e7b3e7687a18354ab527b165628c71478a48d9842a32ce97aa71f454004e8ac",
            "type": "pubkey"
          }
        }
      ],
      "hex": "01000000010000000000000000000000000000000000000000000000000000000000000000ffffffff0804ffff001d024308ffffffff0100f2052a01000000434104fc3dfcd2a3463fe512fcd0c6beb83ca28f4e0ab60730d107e54d2632ea79f3f29c6e7b3e7687a18354ab527b165628c71478a48d9842a32ce97aa71f454004e8ac00000000"
    }
  ]
}