{
  "hash": "00000000186fe8e4544f990fb43b357ab12d87ffaeb56f99a0b8171971a7c578",
  "confirmations": 48549,
  "height": 4549,
  "version": 1,
  "versionHex": "00000001",
  "merkleroot": "2903fd7c3dd010e8b8c66cf2f6217cca87c8b46d42f6751ca4b52fa59dab60a1",
  "time": 1234817425,
  "mediantime": 1234813356,
  "nonce": 1004531221,
  "bits": "1d00ffff",
  "difficulty": 1,
  "chainwork": "000000000000000000000000000000000000000000000000000011c611c611c6",
  "nTx": 1,
  "previousblockhash": "00000000bc47ee406b13ffc8ecd82cd245cf82ddbe1463c1543324eb4dcb4778",
  "nextblockhash": "000000000d59ddea668da22b3125c200f09719e6ac62c5ab2b55c86bcab0790e",
  "strippedsize": 215,
  "size": 215,
  "weight": 860,
  "tx": [
    {
      "txid": "2903fd7c3dd010e8b8c66cf2f6217cca87c8b46d42f6751ca4b52fa59dab60a1",
      "hash": "2903fd7c3dd010e8b8c66cf2f6217cca87c8b46d42f6751ca4b52fa59dab60a1",
      "version": 1,
      "size": 134,
      "vsize": 134,
      "weight": 536,
      "locktime": 0,
      "vin": [
        {
          "coinbase": "04ffff001d011e",
          "sequence": 4294967295
        }
      ],
      "vout": [
        {
          "value": 50.0,
          "n": 0,
          "scriptPubKey": {
            "asm": "049a94e7b6469374f12807fb0796953cc6f017d88c2dc15f21a3df88554c35c96589976bd4385c1dbff1a96a62c8b4a08403d8e45ba5e22c5abf6b590c8efe669f OP_CHECKSIG",
            "desc": "pk(049a94e7b6469374f12807fb0796953cc6f017d88c2dc15f21a3df88554c35c96589976bd4385c1dbff1a96a62c8b4a08403d8e45ba5e22c5abf6b590c8efe669f)#9m69qy50",
            "hex": "41049a94e7b6469374f12807fb0796953cc6f017d88c2dc15f21a3df88554c35c96589976bd4385c1dbff1a96a62c8b4a08403d8e45ba5e22c5abf6b590c8efe669fac",
            "type": "pubkey"
          }
        }
      ],
      "hex": "01000000010000000000000000000000000000000000000000000000000000000000000000ffffffff0704ffff001d011effffffff0100f2052a010000004341049a94e7b6469374f12807fb0796953cc6f017d88c2dc15f21a3df88554c35c96589976bd4385c1dbff1a96a62c8b4a08403d8e45ba5e22c5abf6b590c8efe669fac00000000"
    }
  ]
}