{
  "hash": "000000003d896c6d5797a889e0fe9d32583ffb71473ab46ca25d3c6db91b2c59",
  "confirmations": 51542,
  "height": 1556,
  "version": 1,
  "versionHex": "00000001",
  "merkleroot": "4e267af54e7e32a3c0dd6cdd210e0e5557a48a357f514fee60bcef12d21c0bc3",
  "time": 1232792026,
  "mediantime": 1232789366,
  "nonce": 1037026604,
  "bits": "1d00ffff",
  "difficulty": 1,
  "chainwork": "0000000000000000000000000000000000000000000000000000061506150615",
  "nTx": 1,
  "previousblockhash": "00000000ad1471fd5e8b872b9124b4d334fa594cb4ea87acac8895051bfdda1f",
  "nextblockhash": "000000001554e4b19098bb2f36845e75ae1453ca4357a9597cfb82f4a48282f3",
  "strippedsize": 216,
  "size": 216,
  "weight": 864,
  "tx": [
    {
      "txid": "4e267af54e7e32a3c0dd6cdd210e0e5557a48a357f514fee60bcef12d21c0bc3",
      "hash": "4e267af54e7e32a3c0dd6cdd210e0e5557a48a357f514fee60bcef12d21c0bc3",
      "version": 1,
      "size": 135,
      "vsize": 135,
      "weight": 540,
      "locktime": 0,
      "vin": [
        {
          "coinbase": "04ffff001d02b301",
          "sequence": 4294967295
        }
      ],
      "vout": [
        {
          "value": 50.0,
          "n": 0,
          "scriptPubKey": {
            "asm": "04abae40bb5e514690cc2c1d1575a744d7de118fa9773de6c32ded54e3ded24fd9c1b84e5dbe0de6ba6becaf5145d876c7928f5a4d52997bcd4c5855ca83ac0741 OP_CHECKSIG",
            "desc": "pk(04abae40bb5e514690cc2c1d1575a744d7de118fa9773de6c32ded54e3ded24fd9c1b84e5dbe0de6ba6becaf5145d876c7928f5a4d52997bcd4c5855ca83ac0741)#qzxr4824",
            "hex": "4104abae40bb5e514690cc2c1d1575a744d7de118fa9773de6c32ded54e3ded24fd9c1b84e5dbe0de6ba6becaf5145d876c7928f5a4d52997bcd4c5855ca83ac0741ac",
            "type": "pubkey"
          }
        }
      ],
      "hex": "01000000010000000000000000000000000000000000000000000000000000000000000000ffffffff0804ffff001d02b301ffffffff0100f2052a01000000434104abae40bb5e514690cc2c1d1575a744d7de118fa9773de6c32ded54e3ded24fd9c1b84e5dbe0de6ba6becaf5145d876c7928f5a4d52997bcd4c5855ca83ac0741ac00000000"
    }
  ]
}