{
  "hash": "00000000290ed9f54dcdfe3e56eafee77c9d9d73fc117d323ba8a4f2f25c174d",
  "confirmations": 48017,
  "height": 5081,
  "version": 1,
  "versionHex": "00000001",
  "merkleroot": "5dfac946dfbfbedaf7a099a7a5be9abc04305173bb4ed7f052389f1295c5951d",
  "time": 1235202627,
  "mediantime": 1235198119,
  "nonce": 1847417904,
  "bits": "1d00ffff",
  "difficulty": 1,
  "chainwork": "000000000000000000000000000000000000000000000000000013da13da13da",
  "nTx": 1,
  "previousblockhash": "00000000b2a8a9fb671be4ea3e7d06acc927289aca57de843abceb67c9e7947e",
  "nextblockhash": "00000000f49df538620cb75473634b4e867ecf88d7e49ace3cfad1590784a2ac",
  "strippedsize": 216,
  "size": 216,
  "weight": 864,
  "tx": [
    {
      "txid": "5dfac946dfbfbedaf7a099a7a5be9abc04305173bb4ed7f052389f1295c5951d",
      "hash": "5dfac946dfbfbedaf7a099a7a5be9abc04305173bb4ed7f052389f1295c5951d",
      "version": 1,
      "size": 135,
      "vsize": 135,
      "weight": 540,
      "locktime": 0,
      "vin": [
        {
          "coinbase": "04ffff001d029108",
          "sequence": 4294967295
        }
      ],
      "vout": [
        {
          "value": 50.0,
          "n": 0,
          "scriptPubKey": {
            "asm": "0414313afec08215c8d27d6146c0800824b6de97390a3cd97baeb49bd614738d5a65ecf2591eb0662fb86e09ba110d840bfbbda84bf9b0b93165c1e902ca46b9f6 OP_CHECKSIG",
            "desc": "pk(0414313afec08215c8d27d6146c0800824b6de97390a3cd97baeb49bd614738d5a65ecf2591eb0662fb86e09ba110d840bfbbda84bf9b0b93165c1e902ca46b9f6)#nxeuzj2p",
            "hex": "410414313afec08215c8d27d6146c0800824b6de97390a3cd97baeb49bd614738d5a65ecf2591eb0662fb86e09ba110d840bfbbda84bf9b0b93165c1e902ca46b9f6ac",
            "type": "pubkey"
          }
        }
      ],
      "hex": "01000000010000000000000000000000000000000000000000000000000000000000000000ffffffff0804ffff001d029108ffffffff0100f2052a0100000043410414313afec08215c8d27d6146c0800824b6de97390a3cd97baeb49bd614738d5a65ecf2591eb0662fb86e09ba110d840bfbbda84bf9b0b93165c1e902ca46b9f6ac00000000"
    }
  ]
}