{
  "hash": "00000000063335f5ab0c00399db8c9ea664cca26ad74a0ca6341ffa4095a5ccc",
  "confirmations": 50472,
  "height": 2626,
  "version": 1,
  "versionHex": "00000001",
  "merkleroot": "46dd40bf17bf165a3992c0659eff10af7cd7c58d8e10d865a9ec4f5f3ebebe2a",
  "time": 1233511208,
  "mediantime": 1233508607,
  "nonce": 1106420771,
  "bits": "1d00ffff",
  "difficulty": 1,
  "chainwork": "00000000000000000000000000000000000000000000000000000a430a430a43",
  "nTx": 1,
  "previousblockhash": "00000000508566ff28ea3a2def148eb05492f2f1383f85574a5205bb1be9d6f7",
  "nextblockhash": "00000000039e854de88404b98096d42ba4ca5a9a533b223638f75d6db171605a",
  "strippedsize": 216,
  "size": 216,
  "weight": 864,
  "tx": [
    {
      "txid": "46dd40bf17bf165a3992c0659eff10af7cd7c58d8e10d865a9ec4f5f3ebebe2a",
      "hash": "46dd40bf17bf165a3992c0659eff10af7cd7c58d8e10d865a9ec4f5f3ebebe2a",
      "version": 1,
      "size": 135,
      "vsize": 135,
      "weight": 540,
      "locktime": 0,
      "vin": [
        {
          "coinbase": "04ffff001d026703",
          "sequence": 4294967295
        }
      ],
      "vout": [
        {
          "value": 50.0,
          "n": 0,
          "scriptPubKey": {
            "asm": "0405c9db89121d8b9f027ff7f12580e6eaa6f078b84f7c002eaf6181c654d86c4c5b93a73b69becb0070cb83befe6eb1903a50463376bc73391c276c3dbe860b55 OP_CHECKSIG",
            "desc": "pk(0405c9db89121d8b9f027ff7f12580e6eaa6f078b84f7c002eaf6181c654d86c4c5b93a73b69becb0070cb83befe6eb1903a50463376bc73391c276c3dbe860b55)#4kjqaq26",
            "hex": "410405c9db89121d8b9f027ff7f12580e6eaa6f078b84f7c002eaf6181c654d86c4c5b93a73b69becb0070cb83befe6eb1903a50463376bc73391c276c3dbe860b55ac",
            "type": "pubkey"
          }
        }
      ],
      "hex": "01000000010000000000000000000000000000000000000000000000000000000000000000ffffffff0804ffff001d026703ffffffff0100f2052a0100000043410405c9db89121d8b9f027ff7f12580e6eaa6f078b84f7c002eaf6181c654d86c4c5b93a73b69becb0070cb83befe6eb1903a50463376bc73391c276c3dbe860b55ac00000000"
    }
  ]
}