{
  "hash": "00000000a2a171ff52ca3c9d046592c8ac623b136b8d6910003728a3d22691cc",
  "confirmations": 50843,
  "height": 2255,
  "version": 1,
  "versionHex": "00000001",
  "merkleroot": "90581d183646b1de85ad1d47a92765fec6d11a08a5b9a433f1709c890f34c2fb",
  "time": 1233248715,
  "mediantime": 1233246986,
  "nonce": 93436413,
  "bits": "1d00ffff",
  "difficulty": 1,
  "chainwork": "000000000000000000000000000000000000000000000000000008d008d008d0",
  "nTx": 1,
  "previousblockhash": "0000000084c67b198b88497ccf47fc0d136f72ab463ab25e399502d254f62aa1",
  "nextblockhash": "0000000016c9a2b06db02a157b3eae0309e0075c43eb94b3da72bd3ff7c81a14",
  "strippedsize": 215,
  "size": 215,
  "weight": 860,
  "tx": [
    {
      "txid": "90581d183646b1de85ad1d47a92765fec6d11a08a5b9a433f1709c890f34c2fb",
      "hash": "90581d183646b1de85ad1d47a92765fec6d11a08a5b9a433f1709c890f34c2fb",
      "version": 1,
      "size": 134,
      "vsize": 134,
      "weight": 536,
      "locktime": 0,
      "vin": [
        {
          "coinbase": "04ffff001d010d",
          "sequence": 4294967295
        }
      ],
      "vout": [
        {
          "value": 50.0,
          "n": 0,
          "scriptPubKey": {
            "asm": "0436f84c00eddab647a6e39f1b60d754775ebbe9392e3457587655e03c5fe2a2997853951b7add756a742b108427e5bd01c49fa5a5d3d4b57d23eef86a3aff6d8e OP_CHECKSIG",
            "desc": "pk(0436f84c00eddab647a6e39f1b60d754775ebbe9392e3457587655e03c5fe2a2997853951b7add756a742b108427e5bd01c49fa5a5d3d4b57d23eef86a3aff6d8e)#d0pt83tq",
            "hex": "410436f84c00eddab647a6e39f1b60d754775ebbe9392e3457587655e03c5fe2a2997853951b7add756a742b108427e5bd01c49fa5a5d3d4b57d23eef86a3aff6d8eac",
            "type": "pubkey"
          }
        }
      ],
      "hex": "01000000010000000000000000000000000000000000000000000000000000000000000000ffffffff0704ffff001d010dffffffff0100f2052a0100000043410436f84c00eddab647a6e39f1b60d754775ebbe9392e3457587655e03c5fe2a2997853951b7add756a742b108427e5bd01c49fa5a5d3d4b57d23eef86a3aff6d8eac00000000"
    }
  ]
}