{
  "hash": "000000007d8b560a19bdbb1b8686f23266329ab888c60238fb5071078110e1b8",
  "confirmations": 50950,
  "height": 2148,
  "version": 1,
  "versionHex": "00000001",
  "merkleroot": "d69770e526937a49b750bef3b37095dadf60770f5380b48b13bdf9d7b4fcb633",
  "time": 1233174253,
  "mediantime": 1233171142,
  "nonce": 4728692,
  "bits": "1d00ffff",
  "difficulty": 1,
  "chainwork": "0000000000000000000000000000000000000000000000000000086508650865",
  "nTx": 1,
  "previousblockhash": "000000002ce3d00a93b342f931c56436fb627d115e246cc77a5d33af87ebe922",
  "nextblockhash": "0000000027639216483775437aaf3bfbc8153ba2f40ab525511ff55732996bef",
  "strippedsize": 215,
  "size": 215,
  "weight": 860,
  "tx": [
    {
      "txid": "d69770e526937a49b750bef3b37095dadf60770f5380b48b13bdf9d7b4fcb633",
      "hash": "d69770e526937a49b750bef3b37095dadf60770f5380b48b13bdf9d7b4fcb633",
      "version": 1,
      "size": 134,
      "vsize": 134,
      "weight": 536,
      "locktime": 0,
      "vin": [
        {
          "coinbase": "04ffff001d015d",
          "sequence": 4294967295
        }
      ],
      "vout": [
        {
          "value": 50.0,
          "n": 0,
          "scriptPubKey": {
            "asm": "0477cd09803361a1ad948035c5909c793ef52c2abbde10fd5ca6d32be8e7a3750a5031fc63a31c59a69f413d66995040d6fecde8e18b82a3e62d4f55cd46df56e2 OP_CHECKSIG",
            "desc": "pk(0477cd09803361a1ad948035c5909c793ef52c2abbde10fd5ca6d32be8e7a3750a5031fc63a31c59a69f413d66995040d6fecde8e18b82a3e62d4f55cd46df56e2)#urg8mnjd",
            "hex": "410477cd09803361a1ad948035c5909c793ef52c2abbde10fd5ca6d32be8e7a3750a5031fc63a31c59a69f413d66995040d6fecde8e18b82a3e62d4f55cd46df56e2ac",
            "type": "pubkey"
          }
        }
      ],
      "hex": "01000000010000000000000000000000000000000000000000000000000000000000000000ffffffff0704ffff001d015dffffffff0100f2052a0100000043410477cd09803361a1ad948035c5909c793ef52c2abbde10fd5ca6d32be8e7a3750a5031fc63a31c59a69f413d66995040d6fecde8e18b82a3e62d4f55cd46df56e2ac00000000"
    }
  ]
}