{
  "hash": "000000005eb4163cb0063ab0d7e2ec003d3b2ce722b07a3f3583656aba28a2ab",
  "confirmations": 44964,
  "height": 8134,
  "version": 1,
  "versionHex": "00000001",
  "merkleroot": "fc515233940fb7b12e2492ce59fa160a55a99ce915cd6b8e80b0b99204cfb323",
  "time": 1237558433,
  "mediantime": 1237554306,
  "nonce": 201925656,
  "bits": "1d00ffff",
  "difficulty": 1,
  "chainwork": "00000000000000000000000000000000000000000000000000001fc71fc71fc7",
  "nTx": 1,
  "previousblockhash": "00000000e9ef1a30235fe40e58604b08497b8d25ca3cf8f87c972be1e171f928",
  "nextblockhash": "00000000ce5d3314ce99a2420f0ad9b045e47724c957bfd8feb0931d27a2bde7",
  "strippedsize": 216,
  "size": 216,
  "weight": 864,
  "tx": [
    {
      "txid": "fc515233940fb7b12e2492ce59fa160a55a99ce915cd6b8e80b0b99204cfb323",
      "hash": "fc515233940fb7b12e2492ce59fa160a55a99ce915cd6b8e80b0b99204cfb323",
      "version": 1,
      "size": 135,
      "vsize": 135,
      "weight": 540,
      "locktime": 0,
      "vin": [
        {
          "coinbase": "04ffff001d02b601",
          "sequence": 4294967295
        }
      ],
      "vout": [
        {
          "value": 50.0,
          "n": 0,
          "scriptPubKey": {
            "asm": "0402e0c7be192b94116bb84cc8241755a6b4e7969fd40a17b35f816648e43bbd305c7ac411f2c50c84ee0a7b55d132bc1c5ef2ae6ebf5cfa6ecdba2360a5764c49 OP_CHECKSIG",
            "desc": "pk(0402e0c7be192b94116bb84cc8241755a6b4e7969fd40a17b35f816648e43bbd305c7ac411f2c50c84ee0a7b55d132bc1c5ef2ae6ebf5cfa6ecdba2360a5764c49)#zh7c5t4y",
            "hex": "410402e0c7be192b94116bb84cc8241755a6b4e7969fd40a17b35f816648e43bbd305c7ac411f2c50c84ee0a7b55d132bc1c5ef2ae6ebf5cfa6ecdba2360a5764c49ac",
            "type": "pubkey"
          }
        }
      ],
      "hex": "01000000010000000000000000000000000000000000000000000000000000000000000000ffffffff0804ffff001d02b601ffffffff0100f2052a0100000043410402e0c7be192b94116bb84cc8241755a6b4e7969fd40a17b35f816648e43bbd305c7ac411f2c50c84ee0a7b55d132bc1c5ef2ae6ebf5cfa6ecdba2360a5764c49ac00000000"
    }
  ]
}