{
  "hash": "000000008a7dce4e8860ea16a68932b492dacadf2f093a066e535c581b7ee402",
  "confirmations": 44028,
  "height": 9070,
  "version": 1,
  "versionHex": "00000001",
  "merkleroot": "fa6bd7e3948d294ad2c9179666725dc396cfecf7610ce5d6f3884dddd7dab019",
  "time": 1238311490,
  "mediantime": 1238306763,
  "nonce": 1107790897,
  "bits": "1d00ffff",
  "difficulty": 1,
  "chainwork": "0000000000000000000000000000000000000000000000000000236f236f236f",
  "nTx": 1,
  "previousblockhash": "00000000710587f7287724069f6e9c0266cac0fd334435efe8af228b7d9269a2",
  "nextblockhash": "0000000013cffeff861efdc2c7071bb721ef7fb827741984cf703b9d6fb8cfe2",
  "strippedsize": 216,
  "size": 216,
  "weight": 864,
  "tx": [
    {
      "txid": "fa6bd7e3948d294ad2c9179666725dc396cfecf7610ce5d6f3884dddd7dab019",
      "hash": "fa6bd7e3948d294ad2c9179666725dc396cfecf7610ce5d6f3884dddd7dab019",
      "version": 1,
      "size": 135,
      "vsize": 135,
      "weight": 540,
      "locktime": 0,
      "vin": [
        {
          "coinbase": "04ffff001d02bc07",
          "sequence": 4294967295
        }
      ],
      "vout": [
        {
          "value": 50.0,
          "n": 0,
          "scriptPubKey": {
            "asm": "045a632123bb03a3becd095bc9e822dfc44fc0bcfbd4cb0c646da686b9a3a748349e548eb4abeea87ade3ca16c637bd4ac2e380d8e133826ee03d74190d1111855 OP_CHECKSIG",
            "desc": "pk(045a632123bb03a3becd095bc9e822dfc44fc0bcfbd4cb0c646da686b9a3a748349e548eb4abeea87ade3ca16c637bd4ac2e380d8e133826ee03d74190d1111855)#rjr5asnr",
            "hex": "41045a632123bb03a3becd095bc9e822dfc44fc0bcfbd4cb0c646da686b9a3a748349e548eb4abeea87ade3ca16c637bd4ac2e380d8e133826ee03d74190d1111855ac",
            "type": "pubkey"
          }
        }
      ],
      "hex": "01000000010000000000000000000000000000000000000000000000000000000000000000ffffffff0804ffff001d02bc07ffffffff0100f2052a010000004341045a632123bb03a3becd095bc9e822dfc44fc0bcfbd4cb0c646da686b9a3a748349e548eb4abeea87ade3ca16c637bd4ac2e380d8e133826ee03d74190d1111855ac00000000"
    }
  ]
}