{
  "hash": "00000000638d752e26e036560f4055aacf3845e4a33775e360d40d96a3950a46",
  "confirmations": 48193,
  "height": 4905,
  "version": 1,
  "versionHex": "00000001",
  "merkleroot": "bf7a0e2652fa9fe27c9c0e3e0899b2aece9d1bd11c47f5ab074362c0218f6e74",
  "time": 1235073691,
  "mediantime": 1235069935,
  "nonce": 4143067424,
  "bits": "1d00ffff",
  "difficulty": 1,
  "chainwork": "0000000000000000000000000000000000000000000000000000132a132a132a",
  "nTx": 1,
  "previousblockhash": "0000000072ff7c38ef0b58e75a42ba81ff969094d57e1f4febb8904bc9a48eda",
  "nextblockhash": "00000000cca488c074c4c6164e0c91ac580c42e63f33d3e28d705857abff721d",
  "strippedsize": 216,
  "size": 216,
  "weight": 864,
  "tx": [
    {
      "txid": "bf7a0e2652fa9fe27c9c0e3e0899b2aece9d1bd11c47f5ab074362c0218f6e74",
      "hash": "bf7a0e2652fa9fe27c9c0e3e0899b2aece9d1bd11c47f5ab074362c0218f6e74",
      "version": 1,
      "size": 135,
      "vsize": 135,
      "weight": 540,
      "locktime": 0,
      "vin": [
        {
          "coinbase": "04ffff001d02aa05",
          "sequence": 4294967295
        }
      ],
      "vout": [
        {
          "value": 50.0,
          "n": 0,
          "scriptPubKey": {
            "asm": "049f4e8db0728b9b5a2e3c7cb44b47f592aad55b29c07daf87bf72636d1165834c27fe0e64cf5a0557808ae3fe91f1da03691210a316808c9178ef88a268c92f50 OP_CHECKSIG",
            "desc": "pk(049f4e8db0728b9b5a2e3c7cb44b47f592aad55b29c07daf87bf72636d1165834c27fe0e64cf5a0557808ae3fe91f1da03691210a316808c9178ef88a268c92f50)#uhrhs4pn",
            "hex": "41049f4e8db0728b9b5a2e3c7cb44b47f592aad55b29c07daf87bf72636d1165834c27fe0e64cf5a0557808ae3fe91f1da03691210a316808c9178ef88a268c92f50ac",
            "type": "pubkey"
          }
        }
      ],
      "hex": "01000000010000000000000000000000000000000000000000000000000000000000000000ffffffff0804ffff001d02aa05ffffffff0100f2052a010000004341049f4e8db0728b9b5a2e3c7cb44b47f592aad55b29c07daf87bf72636d1165834c27fe0e64cf5a0557808ae3fe91f1da03691210a316808c9178ef88a268c92f50ac00000000"
    }
  ]
}