{
  "hash": "00000000bf15fb64c76a8c269c966bad7111cedf84589b4859350857482bb48e",
  "confirmations": 46607,
  "height": 6491,
  "version": 1,
  "versionHex": "00000001",
  "merkleroot": "1673780ab55c661bb14590848e14c63b552a4c10936d8144c5801a5627df0616",
  "time": 1236322741,
  "mediantime": 1236320251,
  "nonce": 2674008363,
  "bits": "1d00ffff",
  "difficulty": 1,
  "chainwork": "0000000000000000000000000000000000000000000000000000195c195c195c",
  "nTx": 1,
  "previousblockhash": "000000005619d16344812b7a8e7bee7f286d31e9829bde188b7bc4410b63af52",
  "nextblockhash": "000000005fad9ebb8923cff268ffef5cd61d22062700cfc331cebece79b21015",
  "strippedsize": 216,
  "size": 216,
  "weight": 864,
  "tx": [
    {
      "txid": "1673780ab55c661bb14590848e14c63b552a4c10936d8144c5801a5627df0616",
      "hash": "1673780ab55c661bb14590848e14c63b552a4c10936d8144c5801a5627df0616",
      "version": 1,
      "size": 135,
      "vsize": 135,
      "weight": 540,
      "locktime": 0,
      "vin": [
        {
          "coinbase": "04ffff001d026c03",
          "sequence": 4294967295
        }
      ],
      "vout": [
        {
          "value": 50.0,
          "n": 0,
          "scriptPubKey": {
            "asm": "0446fd251b382a49ee62aa6b08c9dc576dea93d84ab67f7be5c475e62f54a48dedc323b36193eb87089f760ab00a6d980aa4fd13f8c6fcc3d78783180702cb4bb4 OP_CHECKSIG",
            "desc": "pk(0446fd251b382a49ee62aa6b08c9dc576dea93d84ab67f7be5c475e62f54a48dedc323b36193eb87089f760ab00a6d980aa4fd13f8c6fcc3d78783180702cb4bb4)#3ulp6spe",
            "hex": "410446fd251b382a49ee62aa6b08c9dc576dea93d84ab67f7be5c475e62f54a48dedc323b36193eb87089f760ab00a6d980aa4fd13f8c6fcc3d78783180702cb4bb4ac",
            "type": "pubkey"
          }
        }
      ],
      "hex": "01000000010000000000000000000000000000000000000000000000000000000000000000ffffffff0804ffff001d026c03ffffffff0100f2052a0100000043410446fd251b382a49ee62aa6b08c9dc576dea93d84ab67f7be5c475e62f54a48dedc323b36193eb87089f760ab00a6d980aa4fd13f8c6fcc3d78783180702cb4bb4ac00000000"
    }
  ]
}