{
  "hash": "000000007ca8e0774811e5f1ccfd2492a57b6b4196b1b6a932f6768f4574374b",
  "confirmations": 48110,
  "height": 4988,
  "version": 1,
  "versionHex": "00000001",
  "merkleroot": "e5cb16a5f8370ca5d2588cee1bfb5ac6c492d047f91d28e4db879b91d055020c",
  "time": 1235131175,
  "mediantime": 1235129423,
  "nonce": 913145344,
  "bits": "1d00ffff",
  "difficulty": 1,
  "chainwork": "0000000000000000000000000000000000000000000000000000137d137d137d",
  "nTx": 1,
  "previousblockhash": "00000000a93d04783fbddeaf8e7961597889ea1674a5ba635ed18d6fc1bc9ed0",
  "nextblockhash": "000000005e7b8a93fc0b3a92f6a71382431519a6650b0609c3bf40fb539e8020",
  "strippedsize": 216,
  "size": 216,
  "weight": 864,
  "tx": [
    {
      "txid": "e5cb16a5f8370ca5d2588cee1bfb5ac6c492d047f91d28e4db879b91d055020c",
      "hash": "e5cb16a5f8370ca5d2588cee1bfb5ac6c492d047f91d28e4db879b91d055020c",
      "version": 1,
      "size": 135,
      "vsize": 135,
      "weight": 540,
      "locktime": 0,
      "vin": [
        {
          "coinbase": "04ffff001d02e306",
          "sequence": 4294967295
        }
      ],
      "vout": [
        {
          "value": 50.0,
          "n": 0,
          "scriptPubKey": {
            "asm": "044d039a9fb8d9e723dcb52479119f05fd00e777c2e77711dbd506c8c2e92536440491d782137ace549765c817d739dd0aea94d0cbf8d9aa25e8faa3498a9265b8 OP_CHECKSIG",
            "desc": "pk(044d039a9fb8d9e723dcb52479119f05fd00e777c2e77711dbd506c8c2e92536440491d782137ace549765c817d739dd0aea94d0cbf8d9aa25e8faa3498a9265b8)#njy07wtj",
            "hex": "41044d039a9fb8d9e723dcb52479119f05fd00e777c2e77711dbd506c8c2e92536440491d782137ace549765c817d739dd0aea94d0cbf8d9aa25e8faa3498a9265b8ac",
            "type": "pubkey"
          }
        }
      ],
      "hex": "01000000010000000000000000000000000000000000000000000000000000000000000000ffffffff0804ffff001d02e306ffffffff0100f2052a010000004341044d039a9fb8d9e723dcb52479119f05fd00e777c2e77711dbd506c8c2e92536440491d782137ace549765c817d739dd0aea94d0cbf8d9aa25e8faa3498a9265b8ac00000000"
    }
  ]
}