{
  "hash": "00000000f50ecd7a0b35076021c957d6df5b1f045ad24cfeb271c278bafe030c",
  "confirmations": 45252,
  "height": 7846,
  "version": 1,
  "versionHex": "00000001",
  "merkleroot": "7a3a00315ad02df465e8239005953db7cf3d94bfb96d8e977b8abe938623502d",
  "time": 1237348572,
  "mediantime": 1237345285,
  "nonce": 952867333,
  "bits": "1d00ffff",
  "difficulty": 1,
  "chainwork": "00000000000000000000000000000000000000000000000000001ea71ea71ea7",
  "nTx": 1,
  "previousblockhash": "00000000083731ec88716c2b972bcd3333ce941b4425df7c7d95a60c733f5427",
  "nextblockhash": "0000000095f66f5c23feee3647daae12ddf08df9acccac906cfeb34fc9e9e813",
  "strippedsize": 216,
  "size": 216,
  "weight": 864,
  "tx": [
    {
      "txid": "7a3a00315ad02df465e8239005953db7cf3d94bfb96d8e977b8abe938623502d",
      "hash": "7a3a00315ad02df465e8239005953db7cf3d94bfb96d8e977b8abe938623502d",
      "version": 1,
      "size": 135,
      "vsize": 135,
      "weight": 540,
      "locktime": 0,
      "vin": [
        {
          "coinbase": "04ffff001d02a806",
          "sequence": 4294967295
        }
      ],
      "vout": [
        {
          "value": 50.0,
          "n": 0,
          "scriptPubKey": {
            "asm": "04539f1f3ede7d566295fa63a7a2815be2830cbf2a5a01098454c40884f2e77ad20fb2d8e0da79c5216e8cfc47f31dd07872f5c3ec19f8150f80b8067abedd9133 OP_CHECKSIG",
            "desc": "pk(04539f1f3ede7d566295fa63a7a2815be2830cbf2a5a01098454c40884f2e77ad20fb2d8e0da79c5216e8cfc47f31dd07872f5c3ec19f8150f80b8067abedd9133)#v4xmaz4e",
            "hex": "4104539f1f3ede7d566295fa63a7a2815be2830cbf2a5a01098454c40884f2e77ad20fb2d8e0da79c5216e8cfc47f31dd07872f5c3ec19f8150f80b8067abedd9133ac",
            "type": "pubkey"
          }
        }
      ],
      "hex": "01000000010000000000000000000000000000000000000000000000000000000000000000ffffffff0804ffff001d02a806ffffffff0100f2052a01000000434104539f1f3ede7d566295fa63a7a2815be2830cbf2a5a01098454c40884f2e77ad20fb2d8e0da79c5216e8cfc47f31dd07872f5c3ec19f8150f80b8067abedd9133ac00000000"
    }
  ]
}