{
  "hash": "000000003c0e0048c2f3842b3187ea807ebd62dd517fc096da5197a0326ec527",
  "confirmations": 48932,
  "height": 4166,
  "version": 1,
  "versionHex": "00000001",
  "merkleroot": "d487630ae3d2f92ea6884443638ad616e562b399eb4a02040f22ce0de6008ba6",
  "time": 1234557726,
  "mediantime": 1234554372,
  "nonce": 97256167,
  "bits": "1d00ffff",
  "difficulty": 1,
  "chainwork": "0000000000000000000000000000000000000000000000000000104710471047",
  "nTx": 1,
  "previousblockhash": "000000004c6c56b3f40ce35eae2090b016ed800dc905f894bff725e19b13957e",
  "nextblockhash": "000000003a53eaa1c7fd940ab93ab872b52cac982df29aaefe2d575c14b20291",
  "strippedsize": 216,
  "size": 216,
  "weight": 864,
  "tx": [
    {
      "txid": "d487630ae3d2f92ea6884443638ad616e562b399eb4a02040f22ce0de6008ba6",
      "hash": "d487630ae3d2f92ea6884443638ad616e562b399eb4a02040f22ce0de6008ba6",
      "version": 1,
      "size": 135,
      "vsize": 135,
      "weight": 540,
      "locktime": 0,
      "vin": [
        {
          "coinbase": "04ffff001d02da08",
          "sequence": 4294967295
        }
      ],
      "vout": [
        {
          "value": 50.0,
          "n": 0,
          "scriptPubKey": {
            "asm": "04ecd4a64a6946649ac68e1f1e19674c5b32a38ffb382b024b4eaab16d755496a636752cf381041882037e6e3940be486ecb178a5ad9d2f4f34ec11ff27b7404db OP_CHECKSIG",
            "desc": "pk(04ecd4a64a6946649ac68e1f1e19674c5b32a38ffb382b024b4eaab16d755496a636752cf381041882037e6e3940be486ecb178a5ad9d2f4f34ec11ff27b7404db)#7mjntf2n",
            "hex": "4104ecd4a64a6946649ac68e1f1e19674c5b32a38ffb382b024b4eaab16d755496a636752cf381041882037e6e3940be486ecb178a5ad9d2f4f34ec11ff27b7404dbac",
            "type": "pubkey"
          }
        }
      ],
      "hex": "01000000010000000000000000000000000000000000000000000000000000000000000000ffffffff0804ffff001d02da08ffffffff0100f2052a01000000434104ecd4a64a6946649ac68e1f1e19674c5b32a38ffb382b024b4eaab16d755496a636752cf381041882037e6e3940be486ecb178a5ad9d2f4f34ec11ff27b7404dbac00000000"
    }
  ]
}