{
  "hash": "000000007660d1d51a1bbbbc4fa973795056600b7e62b953f5a95b9f2a194372",
  "confirmations": 46641,
  "height": 6457,
  "version": 1,
  "versionHex": "00000001",
  "merkleroot": "498cfba823d66aaeff3b81ede1b75126a869a426a1b61e1ac11e5a1df32df9d7",
  "time": 1236297407,
  "mediantime": 1236295064,
  "nonce": 2486808883,
  "bits": "1d00ffff",
  "difficulty": 1,
  "chainwork": "0000000000000000000000000000000000000000000000000000193a193a193a",
  "nTx": 1,
  "previousblockhash": "00000000de73e06a0aba72009d81c96b55b470400b4bbe784df0286f4ee29e96",
  "nextblockhash": "00000000be1c17b62356470ccf76fe597b67a32be2b85419eabdb70de230108b",
  "strippedsize": 216,
  "size": 216,
  "weight": 864,
  "tx": [
    {
      "txid": "498cfba823d66aaeff3b81ede1b75126a869a426a1b61e1ac11e5a1df32df9d7",
      "hash": "498cfba823d66aaeff3b81ede1b75126a869a426a1b61e1ac11e5a1df32df9d7",
      "version": 1,
      "size": 135,
      "vsize": 135,
      "weight": 540,
      "locktime": 0,
      "vin": [
        {
          "coinbase": "04ffff001d02af02",
          "sequence": 4294967295
        }
      ],
      "vout": [
        {
          "value": 50.0,
          "n": 0,
          "scriptPubKey": {
            "asm": "04cfc30e3cd7d99c4a8e7eb60923d39f66a80efc90f4c873269d1665119de9187177f1b2c01170a563b4e1a6ea36e7c97f14e381cca4bece9f1752a8f0fa88489f OP_CHECKSIG",
            "desc": "pk(04cfc30e3cd7d99c4a8e7eb60923d39f66a80efc90f4c873269d1665119de9187177f1b2c01170a563b4e1a6ea36e7c97f14e381cca4bece9f1752a8f0fa88489f)#2esqgpz9",
            "hex": "4104cfc30e3cd7d99c4a8e7eb60923d39f66a80efc90f4c873269d1665119de9187177f1b2c01170a563b4e1a6ea36e7c97f14e381cca4bece9f1752a8f0fa88489fac",
            "type": "pubkey"
          }
        }
      ],
      "hex": "01000000010000000000000000000000000000000000000000000000000000000000000000ffffffff0804ffff001d02af02ffffffff0100f2052a01000000434104cfc30e3cd7d99c4a8e7eb60923d39f66a80efc90f4c873269d1665119de9187177f1b2c01170a563b4e1a6ea36e7c97f14e381cca4bece9f1752a8f0fa88489fac00000000"
    }
  ]
}