{
  "hash": "0000000051be16bf62e194368722b6a18063d6183bc4fcd382cf4d3c95604c05",
  "confirmations": 43247,
  "height": 9851,
  "version": 1,
  "versionHex": "00000001",
  "merkleroot": "6a4fc52fbdb38885b3ce5ecb0698c0d18968f12b46a1241219ef06593fa9db03",
  "time": 1238892789,
  "mediantime": 1238888701,
  "nonce": 4232113190,
  "bits": "1d00ffff",
  "difficulty": 1,
  "chainwork": "0000000000000000000000000000000000000000000000000000267c267c267c",
  "nTx": 1,
  "previousblockhash": "00000000529faae2ff8a381b4818d213e2a44385e665a2d31215a5afba777e30",
  "nextblockhash": "00000000c2eb520c2882aecab730a6673f1c7c9180d2a9312f8a8b4bae23b6b1",
  "strippedsize": 216,
  "size": 216,
  "weight": 864,
  "tx": [
    {
      "txid": "6a4fc52fbdb38885b3ce5ecb0698c0d18968f12b46a1241219ef06593fa9db03",
      "hash": "6a4fc52fbdb38885b3ce5ecb0698c0d18968f12b46a1241219ef06593fa9db03",
      "version": 1,
      "size": 135,
      "vsize": 135,
      "weight": 540,
      "locktime": 0,
      "vin": [
        {
          "coinbase": "04ffff001d024801",
          "sequence": 4294967295
        }
      ],
      "vout": [
        {
          "value": 50.0,
          "n": 0,
          "scriptPubKey": {
            "asm": "04a204b3f187cf1b333f71d4afe0e23450cf05c8b260ad1d5fc6369d7050dae9bdaf2ddb25b258464f76b40bf0eb807da4bf19b1a2dc95d97583cd957888218f8c OP_CHECKSIG",
            "desc": "pk(04a204b3f187cf1b333f71d4afe0e23450cf05c8b260ad1d5fc6369d7050dae9bdaf2ddb25b258464f76b40bf0eb807da4bf19b1a2dc95d97583cd957888218f8c)#twazu5d8",
            "hex": "4104a204b3f187cf1b333f71d4afe0e23450cf05c8b260ad1d5fc6369d7050dae9bdaf2ddb25b258464f76b40bf0eb807da4bf19b1a2dc95d97583cd957888218f8cac",
            "type": "pubkey"
          }
        }
      ],
      "hex": "01000000010000000000000000000000000000000000000000000000000000000000000000ffffffff0804ffff001d024801ffffffff0100f2052a01000000434104a204b3f187cf1b333f71d4afe0e23450cf05c8b260ad1d5fc6369d7050dae9bdaf2ddb25b258464f76b40bf0eb807da4bf19b1a2dc95d97583cd957888218f8cac00000000"
    }
  ]
}