{
  "hash": "000000009cdf8746d02ef9c07ef02447edbdbf22218ed318ad6bcba33f572996",
  "confirmations": 50885,
  "height": 2213,
  "version": 1,
  "versionHex": "00000001",
  "merkleroot": "66721e3154705e5b0262a8f25b824e1b0b808e459579992373a1b8ee361fd88b",
  "time": 1233223216,
  "mediantime": 1233221099,
  "nonce": 3181060394,
  "bits": "1d00ffff",
  "difficulty": 1,
  "chainwork": "000000000000000000000000000000000000000000000000000008a608a608a6",
  "nTx": 1,
  "previousblockhash": "000000000ba2cae81854ad5a65aa484a9e1f44692bc76c1706dae7987ae09fcb",
  "nextblockhash": "00000000411e3b9b2066078b10548f1872b4c646a10cb39bb47395d3bf1d79c3",
  "strippedsize": 216,
  "size": 216,
  "weight": 864,
  "tx": [
    {
      "txid": "66721e3154705e5b0262a8f25b824e1b0b808e459579992373a1b8ee361fd88b",
      "hash": "66721e3154705e5b0262a8f25b824e1b0b808e459579992373a1b8ee361fd88b",
      "version": 1,
      "size": 135,
      "vsize": 135,
      "weight": 540,
      "locktime": 0,
      "vin": [
        {
          "coinbase": "04ffff001d028c00",
          "sequence": 4294967295
        }
      ],
      "vout": [
        {
          "value": 50.0,
          "n": 0,
          "scriptPubKey": {
            "asm": "04da175d0901db61b3d073adc626de1ccfaa6fe9873aa6326fa34242b9f23e16bd45b08c669f11c73d5dac2cc722a1e1b808ae7405f62a850e1260a365f5c71bcd OP_CHECKSIG",
            "desc": "pk(04da175d0901db61b3d073adc626de1ccfaa6fe9873aa6326fa34242b9f23e16bd45b08c669f11c73d5dac2cc722a1e1b808ae7405f62a850e1260a365f5c71bcd)#qh24nzxg",
            "hex": "4104da175d0901db61b3d073adc626de1ccfaa6fe9873aa6326fa34242b9f23e16bd45b08c669f11c73d5dac2cc722a1e1b808ae7405f62a850e1260a365f5c71bcdac",
            "type": "pubkey"
          }
        }
      ],
      "hex": "01000000010000000000000000000000000000000000000000000000000000000000000000ffffffff0804ffff001d028c00ffffffff0100f2052a01000000434104da175d0901db61b3d073adc626de1ccfaa6fe9873aa6326fa34242b9f23e16bd45b08c669f11c73d5dac2cc722a1e1b808ae7405f62a850e1260a365f5c71bcdac00000000"
    }
  ]
}