{
  "hash": "0000000037902846623149dd4b8117f1e03469b12da037ff5ddeac8ca122c38c",
  "confirmations": 48800,
  "height": 4298,
  "version": 1,
  "versionHex": "00000001",
  "merkleroot": "6b22e22125da7a377f751ac50f3202707a0d7f998112b2785d7dc4d9d43183ec",
  "time": 1234640459,
  "mediantime": 1234635787,
  "nonce": 1924765738,
  "bits": "1d00ffff",
  "difficulty": 1,
  "chainwork": "000000000000000000000000000000000000000000000000000010cb10cb10cb",
  "nTx": 1,
  "previousblockhash": "000000008fae380b28898add3a3383a9743caf412206508ebe5ab86707317cbb",
  "nextblockhash": "000000006442d82b6504a4fc33d1a2a3a2c2f7ceccebb0cb093b1b59b8457002",
  "strippedsize": 216,
  "size": 216,
  "weight": 864,
  "tx": [
    {
      "txid": "6b22e22125da7a377f751ac50f3202707a0d7f998112b2785d7dc4d9d43183ec",
      "hash": "6b22e22125da7a377f751ac50f3202707a0d7f998112b2785d7dc4d9d43183ec",
      "version": 1,
      "size": 135,
      "vsize": 135,
      "weight": 540,
      "locktime": 0,
      "vin": [
        {
          "coinbase": "04ffff001d02b408",
          "sequence": 4294967295
        }
      ],
      "vout": [
        {
          "value": 50.0,
          "n": 0,
          "scriptPubKey": {
            "asm": "042b4f8f2254a603870b0f976c768dfcedb72ece9ad62099de295c4f80f36c5111f2f058266dd144c1fd3537e3133b484963c89eaff3b17b399df80583775936ca OP_CHECKSIG",
            "desc": "pk(042b4f8f2254a603870b0f976c768dfcedb72ece9ad62099de295c4f80f36c5111f2f058266dd144c1fd3537e3133b484963c89eaff3b17b399df80583775936ca)#v6xyfs6p",
            "hex": "41042b4f8f2254a603870b0f976c768dfcedb72ece9ad62099de295c4f80f36c5111f2f058266dd144c1fd3537e3133b484963c89eaff3b17b399df80583775936caac",
            "type": "pubkey"
          }
        }
      ],
      "hex": "01000000010000000000000000000000000000000000000000000000000000000000000000ffffffff0804ffff001d02b408ffffffff0100f2052a010000004341042b4f8f2254a603870b0f976c768dfcedb72ece9ad62099de295c4f80f36c5111f2f058266dd144c1fd3537e3133b484963c89eaff3b17b399df80583775936caac00000000"
    }
  ]
}