{
  "hash": "000000009ca120fa05033f741deff9ab96ddc48ceecfe5e1c38ed6fbc2bc7eb8",
  "confirmations": 43806,
  "height": 9292,
  "version": 1,
  "versionHex": "00000001",
  "merkleroot": "531f493e49bbd86ce7eecea40716ce61f8999873b5c38b1a5a8adda20dfff361",
  "time": 1238468737,
  "mediantime": 1238463765,
  "nonce": 3302395136,
  "bits": "1d00ffff",
  "difficulty": 1,
  "chainwork": "0000000000000000000000000000000000000000000000000000244d244d244d",
  "nTx": 1,
  "previousblockhash": "0000000071bb4b4fe561191c7ab823d06b5186e00f89fa919ab938757b57a224",
  "nextblockhash": "000000002c9d378f8e2d1ce7ecbf23fcae0db52433af7926cf5bba44094c2e98",
  "strippedsize": 216,
  "size": 216,
  "weight": 864,
  "tx": [
    {
      "txid": "531f493e49bbd86ce7eecea40716ce61f8999873b5c38b1a5a8adda20dfff361",
      "hash": "531f493e49bbd86ce7eecea40716ce61f8999873b5c38b1a5a8adda20dfff361",
      "version": 1,
      "size": 135,
      "vsize": 135,
      "weight": 540,
      "locktime": 0,
      "vin": [
        {
          "coinbase": "04ffff001d029e01",
          "sequence": 4294967295
        }
      ],
      "vout": [
        {
          "value": 50.0,
          "n": 0,
          "scriptPubKey": {
            "asm": "04d0254082265052f0d91e4b8887b78eb2d989cfe4e4159c58b9fa314468da95536d8aa26ab724fa8d8a4ad7fffff264196a03b372c562d3ee626be5beef5f9d3d OP_CHECKSIG",
            "desc": "pk(04d0254082265052f0d91e4b8887b78eb2d989cfe4e4159c58b9fa314468da95536d8aa26ab724fa8d8a4ad7fffff264196a03b372c562d3ee626be5beef5f9d3d)#lefa2x9t",
            "hex": "4104d0254082265052f0d91e4b8887b78eb2d989cfe4e4159c58b9fa314468da95536d8aa26ab724fa8d8a4ad7fffff264196a03b372c562d3ee626be5beef5f9d3dac",
            "type": "pubkey"
          }
        }
      ],
      "hex": "01000000010000000000000000000000000000000000000000000000000000000000000000ffffffff0804ffff001d029e01ffffffff0100f2052a01000000434104d0254082265052f0d91e4b8887b78eb2d989cfe4e4159c58b9fa314468da95536d8aa26ab724fa8d8a4ad7fffff264196a03b372c562d3ee626be5beef5f9d3dac00000000"
    }
  ]
}