{
  "hash": "000000002d4cd936eab7956fa6a714ad328b8969ee7e1ba9708c6bc6626d9c3a",
  "confirmations": 48616,
  "height": 4482,
  "version": 1,
  "versionHex": "00000001",
  "merkleroot": "86c6238693788bbefb24ae179e39d1a21c11c19ab1e67c2932923ea90b04156c",
  "time": 1234767317,
  "mediantime": 1234763049,
  "nonce": 11877323,
  "bits": "1d00ffff",
  "difficulty": 1,
  "chainwork": "0000000000000000000000000000000000000000000000000000118311831183",
  "nTx": 1,
  "previousblockhash": "0000000061cb37d6fa617ec0535f11c413deb3946918bdb0c909fd158a0cb10e",
  "nextblockhash": "00000000afd960ab125b558081f57cb91cb4b227756ab345c2c6394554c07144",
  "strippedsize": 215,
  "size": 215,
  "weight": 860,
  "tx": [
    {
      "txid": "86c6238693788bbefb24ae179e39d1a21c11c19ab1e67c2932923ea90b04156c",
      "hash": "86c6238693788bbefb24ae179e39d1a21c11c19ab1e67c2932923ea90b04156c",
      "version": 1,
      "size": 134,
      "vsize": 134,
      "weight": 536,
      "locktime": 0,
      "vin": [
        {
          "coinbase": "04ffff001d0142",
          "sequence": 4294967295
        }
      ],
      "vout": [
        {
          "value": 50.0,
          "n": 0,
          "scriptPubKey": {
            "asm": "040a94a3aef536c03fc1c1d7811c163d08727479435176f47d1b19cc3981ec8be816a40ff607fb2db4bcde5cca91d9644d5974b60839457dbd8c2e56ca0726609f OP_CHECKSIG",
            "desc": "pk(040a94a3aef536c03fc1c1d7811c163d08727479435176f47d1b19cc3981ec8be816a40ff607fb2db4bcde5cca91d9644d5974b60839457dbd8c2e56ca0726609f)#alsegwjr",
            "hex": "41040a94a3aef536c03fc1c1d7811c163d08727479435176f47d1b19cc3981ec8be816a40ff607fb2db4bcde5cca91d9644d5974b60839457dbd8c2e56ca0726609fac",
            "type": "pubkey"
          }
        }
      ],
      "hex": "01000000010000000000000000000000000000000000000000000000000000000000000000ffffffff0704ffff001d0142ffffffff0100f2052a010000004341040a94a3aef536c03fc1c1d7811c163d08727479435176f47d1b19cc3981ec8be816a40ff607fb2db4bcde5cca91d9644d5974b60839457dbd8c2e56ca0726609fac00000000"
    }
  ]
}