{
  "hash": "00000000129a2736ea37e637c00dee22006c096a56a61cdb7a7d810732697878",
  "confirmations": 52230,
  "height": 868,
  "version": 1,
  "versionHex": "00000001",
  "merkleroot": "98deb09fc4d3d5a07b32ff16a47c29c2f21bd262e4d3c9253bfb50371a7c170b",
  "time": 1232246210,
  "mediantime": 1232242395,
  "nonce": 3242943771,
  "bits": "1d00ffff",
  "difficulty": 1,
  "chainwork": "0000000000000000000000000000000000000000000000000000036503650365",
  "nTx": 1,
  "previousblockhash": "0000000063eb0473d2a03542e142034847de1c47cdd0d6a4067142b33ade169d",
  "nextblockhash": "000000004a5988864cd783ea9a53a3e874bdaf50d7adb915ed700472bdd1ae07",
  "strippedsize": 216,
  "size": 216,
  "weight": 864,
  "tx": [
    {
      "txid": "98deb09fc4d3d5a07b32ff16a47c29c2f21bd262e4d3c9253bfb50371a7c170b",
      "hash": "98deb09fc4d3d5a07b32ff16a47c29c2f21bd262e4d3c9253bfb50371a7c170b",
      "version": 1,
      "size": 135,
      "vsize": 135,
      "weight": 540,
      "locktime": 0,
      "vin": [
        {
          "coinbase": "04ffff001d02d702",
          "sequence": 4294967295
        }
      ],
      "vout": [
        {
          "value": 50.0,
          "n": 0,
          "scriptPubKey": {
            "asm": "042195355f02b48ad0849cccaa805695648dfbaca29bb5baeca7f83e7b684ab3a088245bd52c81a01f269dd0754b38e60ec1f52b252dbc13ed6727507081251a66 OP_CHECKSIG",
            "desc": "pk(042195355f02b48ad0849cccaa805695648dfbaca29bb5baeca7f83e7b684ab3a088245bd52c81a01f269dd0754b38e60ec1f52b252dbc13ed6727507081251a66)#ev2kvzs7",
            "hex": "41042195355f02b48ad0849cccaa805695648dfbaca29bb5baeca7f83e7b684ab3a088245bd52c81a01f269dd0754b38e60ec1f52b252dbc13ed6727507081251a66ac",
            "type": "pubkey"
          }
        }
      ],
      "hex": "01000000010000000000000000000000000000000000000000000000000000000000000000ffffffff0804ffff001d02d702ffffffff0100f2052a010000004341042195355f02b48ad0849cccaa805695648dfbaca29bb5baeca7f83e7b684ab3a088245bd52c81a01f269dd0754b38e60ec1f52b252dbc13ed6727507081251a66ac00000000"
    }
  ]
}