{
  "hash": "000000001751153d790e15e80aade796bbc73257e897648d6d26eedc5166b0b7",
  "confirmations": 45358,
  "height": 7740,
  "version": 1,
  "versionHex": "00000001",
  "merkleroot": "c924cd43c025baca743cfdb1a293577f6e6ceb6058223f827e2bc047f51e7f99",
  "time": 1237270470,
  "mediantime": 1237266087,
  "nonce": 1835328309,
  "bits": "1d00ffff",
  "difficulty": 1,
  "chainwork": "00000000000000000000000000000000000000000000000000001e3d1e3d1e3d",
  "nTx": 1,
  "previousblockhash": "0000000009107c988aa6fe175777cae7b2e37b6719b580de63dccbcc9be710ce",
  "nextblockhash": "0000000035bc5525c606f59fa2f5ebc9ede67ade2d050fe255f831f3ff6f2ebb",
  "strippedsize": 216,
  "size": 216,
  "weight": 864,
  "tx": [
    {
      "txid": "c924cd43c025baca743cfdb1a293577f6e6ceb6058223f827e2bc047f51e7f99",
      "hash": "c924cd43c025baca743cfdb1a293577f6e6ceb6058223f827e2bc047f51e7f99",
      "version": 1,
      "size": 135,
      "vsize": 135,
      "weight": 540,
      "locktime": 0,
      "vin": [
        {
          "coinbase": "04ffff001d02e604",
          "sequence": 4294967295
        }
      ],
      "vout": [
        {
          "value": 50.0,
          "n": 0,
          "scriptPubKey": {
            "asm": "043bced3c49c3134c51ea4b278916113a9dca0bf9f7d7219d04f6f1dc7b49516638522d5968b80054ec4aaffd49858880397a2e62151cfabcc1bab4cb46614d927 OP_CHECKSIG",
            "desc": "pk(043bced3c49c3134c51ea4b278916113a9dca0bf9f7d7219d04f6f1dc7b49516638522d5968b80054ec4aaffd49858880397a2e62151cfabcc1bab4cb46614d927)#syvav6fj",
            "hex": "41043bced3c49c3134c51ea4b278916113a9dca0bf9f7d7219d04f6f1dc7b49516638522d5968b80054ec4aaffd49858880397a2e62151cfabcc1bab4cb46614d927ac",
            "type": "pubkey"
          }
        }
      ],
      "hex": "01000000010000000000000000000000000000000000000000000000000000000000000000ffffffff0804ffff001d02e604ffffffff0100f2052a010000004341043bced3c49c3134c51ea4b278916113a9dca0bf9f7d7219d04f6f1dc7b49516638522d5968b80054ec4aaffd49858880397a2e62151cfabcc1bab4cb46614d927ac00000000"
    }
  ]
}