{
  "hash": "00000000887dcf0f1d752603688a0458e5c43eaaea7d0486a6cce2f85b47b468",
  "confirmations": 50699,
  "height": 2399,
  "version": 1,
  "versionHex": "00000001",
  "merkleroot": "3b7dc28b195f8c64693fedc498ca710e0510c8a7da961b781c02b180351a48e6",
  "time": 1233355774,
  "mediantime": 1233349155,
  "nonce": 1275666718,
  "bits": "1d00ffff",
  "difficulty": 1,
  "chainwork": "0000000000000000000000000000000000000000000000000000096009600960",
  "nTx": 1,
  "previousblockhash": "00000000507f2d91edb7d97fd6518e4f8cf624f49c56640bd7c79c811fa5e458",
  "nextblockhash": "00000000081038eb250216ebb27f94d8896d2984dc962020c53e6a2852b92967",
  "strippedsize": 215,
  "size": 215,
  "weight": 860,
  "tx": [
    {
      "txid": "3b7dc28b195f8c64693fedc498ca710e0510c8a7da961b781c02b180351a48e6",
      "hash": "3b7dc28b195f8c64693fedc498ca710e0510c8a7da961b781c02b180351a48e6",
      "version": 1,
      "size": 134,
      "vsize": 134,
      "weight": 536,
      "locktime": 0,
      "vin": [
        {
          "coinbase": "04ffff001d0107",
          "sequence": 4294967295
        }
      ],
      "vout": [
        {
          "value": 50.0,
          "n": 0,
          "scriptPubKey": {
            "asm": "0455f005998d21a840cfc5bbf8b394bae00937cb73382f62e169b4ada912cc158837fde43ee76f245a65a661935f40d0eb9b8a5ebb121e89d1b45bba6de319b480 OP_CHECKSIG",
            "desc": "pk(0455f005998d21a840cfc5bbf8b394bae00937cb73382f62e169b4ada912cc158837fde43ee76f245a65a661935f40d0eb9b8a5ebb121e89d1b45bba6de319b480)#hsneevxu",
            "hex": "410455f005998d21a840cfc5bbf8b394bae00937cb73382f62e169b4ada912cc158837fde43ee76f245a65a661935f40d0eb9b8a5ebb121e89d1b45bba6de319b480ac",
            "type": "pubkey"
          }
        }
      ],
      "hex": "01000000010000000000000000000000000000000000000000000000000000000000000000ffffffff0704ffff001d0107ffffffff0100f2052a0100000043410455f005998d21a840cfc5bbf8b394bae00937cb73382f62e169b4ada912cc158837fde43ee76f245a65a661935f40d0eb9b8a5ebb121e89d1b45bba6de319b480ac00000000"
    }
  ]
}