{
  "hash": "0000000069f48850606fad177b5de8e819476645bc08d6269b15e28632fac12e",
  "confirmations": 47211,
  "height": 5887,
  "version": 1,
  "versionHex": "00000001",
  "merkleroot": "fd7f640ddd9821fa4edd5bb8483182a82613624fbf7731d556579d0f1d85bf3b",
  "time": 1235833892,
  "mediantime": 1235829316,
  "nonce": 215284268,
  "bits": "1d00ffff",
  "difficulty": 1,
  "chainwork": "0000000000000000000000000000000000000000000000000000170017001700",
  "nTx": 1,
  "previousblockhash": "00000000678d8ee647ae8c11ff55ea54458aa0905b2ce7b7303248473f58216b",
  "nextblockhash": "00000000d823258cc6f8a7c1df101bc326c50181b329e4e6b4327962e3d172dd",
  "strippedsize": 216,
  "size": 216,
  "weight": 864,
  "tx": [
    {
      "txid": "fd7f640ddd9821fa4edd5bb8483182a82613624fbf7731d556579d0f1d85bf3b",
      "hash": "fd7f640ddd9821fa4edd5bb8483182a82613624fbf7731d556579d0f1d85bf3b",
      "version": 1,
      "size": 135,
      "vsize": 135,
      "weight": 540,
      "locktime": 0,
      "vin": [
        {
          "coinbase": "04ffff001d027e01",
          "sequence": 4294967295
        }
      ],
      "vout": [
        {
          "value": 50.0,
          "n": 0,
          "scriptPubKey": {
            "asm": "0467650996c9bd14e7f815cf1401dfa1c826b7038690d0e76e3bf3f1dbdaef58841221a3eeba034f0ea2a5a9b98277f24b49500b91f940af45153f5f56d9411ea7 OP_CHECKSIG",
            "desc": "pk(0467650996c9bd14e7f815cf1401dfa1c826b7038690d0e76e3bf3f1dbdaef58841221a3eeba034f0ea2a5a9b98277f24b49500b91f940af45153f5f56d9411ea7)#z424g0ud",
            "hex": "410467650996c9bd14e7f815cf1401dfa1c826b7038690d0e76e3bf3f1dbdaef58841221a3eeba034f0ea2a5a9b98277f24b49500b91f940af45153f5f56d9411ea7ac",
            "type": "pubkey"
          }
        }
      ],
      "hex": "01000000010000000000000000000000000000000000000000000000000000000000000000ffffffff0804ffff001d027e01ffffffff0100f2052a0100000043410467650996c9bd14e7f815cf1401dfa1c826b7038690d0e76e3bf3f1dbdaef58841221a3eeba034f0ea2a5a9b98277f24b49500b91f940af45153f5f56d9411ea7ac00000000"
    }
  ]
}