{
  "hash": "00000000a54d999e432694f2a5a94a2af153af7647dc830b913d1745a51184b5",
  "confirmations": 43599,
  "height": 9499,
  "version": 1,
  "versionHex": "00000001",
  "merkleroot": "137e05c59b05cd64923882d311406320462d2af1ab96909f034a3edc660052e6",
  "time": 1238627566,
  "mediantime": 1238624646,
  "nonce": 1115075893,
  "bits": "1d00ffff",
  "difficulty": 1,
  "chainwork": "0000000000000000000000000000000000000000000000000000251c251c251c",
  "nTx": 1,
  "previousblockhash": "00000000736261e46c3a1b5693816353226798a02847ba6c755d5f23ef3bf9bf",
  "nextblockhash": "00000000436e6caeb22a9132729282c21b123311ee09b5f79f1f061325f1776c",
  "strippedsize": 216,
  "size": 216,
  "weight": 864,
  "tx": [
    {
      "txid": "137e05c59b05cd64923882d311406320462d2af1ab96909f034a3edc660052e6",
      "hash": "137e05c59b05cd64923882d311406320462d2af1ab96909f034a3edc660052e6",
      "version": 1,
      "size": 135,
      "vsize": 135,
      "weight": 540,
      "locktime": 0,
      "vin": [
        {
          "coinbase": "04ffff001d026c05",
          "sequence": 4294967295
        }
      ],
      "vout": [
        {
          "value": 50.0,
          "n": 0,
          "scriptPubKey": {
            "asm": "049c702867aeef8af817ee56987d429a46aa525b6f8501b53ba67473286528a9e84ab383c87106821c1b3f2229b210e4e5cbc26f1b1aa43df6a2c41a1114601740 OP_CHECKSIG",
            "desc": "pk(049c702867aeef8af817ee56987d429a46aa525b6f8501b53ba67473286528a9e84ab383c87106821c1b3f2229b210e4e5cbc26f1b1aa43df6a2c41a1114601740)#l8359dpm",
            "hex": "41049c702867aeef8af817ee56987d429a46aa525b6f8501b53ba67473286528a9e84ab383c87106821c1b3f2229b210e4e5cbc26f1b1aa43df6a2c41a1114601740ac",
            "type": "pubkey"
          }
        }
      ],
      "hex": "01000000010000000000000000000000000000000000000000000000000000000000000000ffffffff0804ffff001d026c05ffffffff0100f2052a010000004341049c702867aeef8af817ee56987d429a46aa525b6f8501b53ba67473286528a9e84ab383c87106821c1b3f2229b210e4e5cbc26f1b1aa43df6a2c41a1114601740ac00000000"
    }
  ]
}