{
  "hash": "00000000b9d2de60c26ad0ff1289bb6c97529cac7c5a37571900a0e6be77dca8",
  "confirmations": 52510,
  "height": 588,
  "version": 1,
  "versionHex": "00000001",
  "merkleroot": "4093d275ba3d11d9a8daa6c79a5d73c352aac4cbeafeed2c224fba1c4849950f",
  "time": 1232031265,
  "mediantime": 1232026445,
  "nonce": 4139235354,
  "bits": "1d00ffff",
  "difficulty": 1,
  "chainwork": "0000000000000000000000000000000000000000000000000000024d024d024d",
  "nTx": 1,
  "previousblockhash": "00000000fa041c4905c4eca1cc0c75204c2cd118da3ffd129c41840152038d20",
  "nextblockhash": "00000000b96305605f1eb5ab800024ff3fa260deedf6005e1e3987daa11d3935",
  "strippedsize": 216,
  "size": 216,
  "weight": 864,
  "tx": [
    {
      "txid": "4093d275ba3d11d9a8daa6c79a5d73c352aac4cbeafeed2c224fba1c4849950f",
      "hash": "4093d275ba3d11d9a8daa6c79a5d73c352aac4cbeafeed2c224fba1c4849950f",
      "version": 1,
      "size": 135,
      "vsize": 135,
      "weight": 540,
      "locktime": 0,
      "vin": [
        {
          "coinbase": "04ffff001d028106",
          "sequence": 4294967295
        }
      ],
      "vout": [
        {
          "value": 50.0,
          "n": 0,
          "scriptPubKey": {
            "asm": "048181e252662055f384b485fe435984f920fc72eb97033dde1ad55c075ece1b07fa825d9dc3c0d0801998b8529cb05efbd077c9ef6a90f944078a6d0b3d28b45c OP_CHECKSIG",
            "desc": "pk(048181e252662055f384b485fe435984f920fc72eb97033dde1ad55c075ece1b07fa825d9dc3c0d0801998b8529cb05efbd077c9ef6a90f944078a6d0b3d28b45c)#rd0rrdxd",
            "hex": "41048181e252662055f384b485fe435984f920fc72eb97033dde1ad55c075ece1b07fa825d9dc3c0d0801998b8529cb05efbd077c9ef6a90f944078a6d0b3d28b45cac",
            "type": "pubkey"
          }
        }
      ],
      "hex": "01000000010000000000000000000000000000000000000000000000000000000000000000ffffffff0804ffff001d028106ffffffff0100f2052a010000004341048181e252662055f384b485fe435984f920fc72eb97033dde1ad55c075ece1b07fa825d9dc3c0d0801998b8529cb05efbd077c9ef6a90f944078a6d0b3d28b45cac00000000"
    }
  ]
}