{
  "hash": "000000002c72cdf747e4fa6ad34a4bf6159cc65ab462e069c15d23eb5a688107",
  "confirmations": 52467,
  "height": 631,
  "version": 1,
  "versionHex": "00000001",
  "merkleroot": "ab7895105c01cb3ed295262395494461b59bda798d0cd380192f98a0e74a4e05",
  "time": 1232057250,
  "mediantime": 1232053261,
  "nonce": 343092259,
  "bits": "1d00ffff",
  "difficulty": 1,
  "chainwork": "0000000000000000000000000000000000000000000000000000027802780278",
  "nTx": 1,
  "previousblockhash": "00000000204da74cb20af67449c889b7bbb19f53d5387f999f875d8a1325de57",
  "nextblockhash": "00000000ad2ac1c66306f65080200104623cb0c32f7e52c23886f2909e298e06",
  "strippedsize": 216,
  "size": 216,
  "weight": 864,
  "tx": [
    {
      "txid": "ab7895105c01cb3ed295262395494461b59bda798d0cd380192f98a0e74a4e05",
      "hash": "ab7895105c01cb3ed295262395494461b59bda798d0cd380192f98a0e74a4e05",
      "version": 1,
      "size": 135,
      "vsize": 135,
      "weight": 540,
      "locktime": 0,
      "vin": [
        {
          "coinbase": "04ffff001d021d07",
          "sequence": 4294967295
        }
      ],
      "vout": [
        {
          "value": 50.0,
          "n": 0,
          "scriptPubKey": {
            "asm": "0466a2e0ac54a0eeffc9472cd211a632ebf3a4a7f8fa065f596fd47da8f7cff567a6e1b42c6997185592e73f41a7f8e370bedfdc5d2ae00034d8dc80888642e40c OP_CHECKSIG",
            "desc": "pk(0466a2e0ac54a0eeffc9472cd211a632ebf3a4a7f8fa065f596fd47da8f7cff567a6e1b42c6997185592e73f41a7f8e370bedfdc5d2ae00034d8dc80888642e40c)#t6ar68xe",
            "hex": "410466a2e0ac54a0eeffc9472cd211a632ebf3a4a7f8fa065f596fd47da8f7cff567a6e1b42c6997185592e73f41a7f8e370bedfdc5d2ae00034d8dc80888642e40cac",
            "type": "pubkey"
          }
        }
      ],
      "hex": "01000000010000000000000000000000000000000000000000000000000000000000000000ffffffff0804ffff001d021d07ffffffff0100f2052a0100000043410466a2e0ac54a0eeffc9472cd211a632ebf3a4a7f8fa065f596fd47da8f7cff567a6e1b42c6997185592e73f41a7f8e370bedfdc5d2ae00034d8dc80888642e40cac00000000"
    }
  ]
}