{
  "hash": "00000000e5a432606e00173535adf891aed6e759d2a45b9a6c2988c3f8e70a3c",
  "confirmations": 46967,
  "height": 6131,
  "version": 1,
  "versionHex": "00000001",
  "merkleroot": "3ba642b81a759e080f8efc14ebf658561a52314000fe94d9a37cc1eaf6a06449",
  "time": 1236033080,
  "mediantime": 1236029724,
  "nonce": 392573753,
  "bits": "1d00ffff",
  "difficulty": 1,
  "chainwork": "000000000000000000000000000000000000000000000000000017f417f417f4",
  "nTx": 1,
  "previousblockhash": "000000008393f20762c0fe982f60c125d3c29d549223caddcd30bed2123fed4f",
  "nextblockhash": "00000000dbbc4c005a427f94b9b7da4c55981aed04d46cfc76f8fc97b75de846",
  "strippedsize": 216,
  "size": 216,
  "weight": 864,
  "tx": [
    {
      "txid": "3ba642b81a759e080f8efc14ebf658561a52314000fe94d9a37cc1eaf6a06449",
      "hash": "3ba642b81a759e080f8efc14ebf658561a52314000fe94d9a37cc1eaf6a06449",
      "version": 1,
      "size": 135,
      "vsize": 135,
      "weight": 540,
      "locktime": 0,
      "vin": [
        {
          "coinbase": "04ffff001d025e07",
          "sequence": 4294967295
        }
      ],
      "vout": [
        {
          "value": 50.0,
          "n": 0,
          "scriptPubKey": {
            "asm": "0493411ccfe3077166729f0ae694e4958bd27b380753d00405cb0294d897e336025e85295b9d023ab6a4feb587c584ffc07135adac116029acdaaad14e879b5369 OP_CHECKSIG",
            "desc": "pk(0493411ccfe3077166729f0ae694e4958bd27b380753d00405cb0294d897e336025e85295b9d023ab6a4feb587c584ffc07135adac116029acdaaad14e879b5369)#te0zxp7l",
            "hex": "410493411ccfe3077166729f0ae694e4958bd27b380753d00405cb0294d897e336025e85295b9d023ab6a4feb587c584ffc07135adac116029acdaaad14e879b5369ac",
            "type": "pubkey"
          }
        }
      ],
      "hex": "01000000010000000000000000000000000000000000000000000000000000000000000000ffffffff0804ffff001d025e07ffffffff0100f2052a0100000043410493411ccfe3077166729f0ae694e4958bd27b380753d00405cb0294d897e336025e85295b9d023ab6a4feb587c584ffc07135adac116029acdaaad14e879b5369ac00000000"
    }
  ]
}