{
  "hash": "0000000016786764bd1922d96dd75912655381ca9f55d4980c74892fb1d9b6ce",
  "confirmations": 45356,
  "height": 7742,
  "version": 1,
  "versionHex": "00000001",
  "merkleroot": "23c884d6bcb31911339475ee94a5d2bfe7e0bafee902e0a797a61e1097b4ea6c",
  "time": 1237271838,
  "mediantime": 1237267445,
  "nonce": 391954197,
  "bits": "1d00ffff",
  "difficulty": 1,
  "chainwork": "00000000000000000000000000000000000000000000000000001e3f1e3f1e3f",
  "nTx": 1,
  "previousblockhash": "0000000035bc5525c606f59fa2f5ebc9ede67ade2d050fe255f831f3ff6f2ebb",
  "nextblockhash": "00000000bbe372ad70b7df2b13f3043c8324d4118ed71babf9cc6c584273df4a",
  "strippedsize": 216,
  "size": 216,
  "weight": 864,
  "tx": [
    {
      "txid": "23c884d6bcb31911339475ee94a5d2bfe7e0bafee902e0a797a61e1097b4ea6c",
      "hash": "23c884d6bcb31911339475ee94a5d2bfe7e0bafee902e0a797a61e1097b4ea6c",
      "version": 1,
      "size": 135,
      "vsize": 135,
      "weight": 540,
      "locktime": 0,
      "vin": [
        {
          "coinbase": "04ffff001d02ed04",
          "sequence": 4294967295
        }
      ],
      "vout": [
        {
          "value": 50.0,
          "n": 0,
          "scriptPubKey": {
            "asm": "04f3fa523c7e28ed88c4029cf446d50645f3facf87ad428c1c5da96eb848e42a1602981ccea420f3d7c45a54d1484c903bb0b6f79fd5414c2eeacd7bf5176d31fb OP_CHECKSIG",
            "desc": "pk(04f3fa523c7e28ed88c4029cf446d50645f3facf87ad428c1c5da96eb848e42a1602981ccea420f3d7c45a54d1484c903bb0b6f79fd5414c2eeacd7bf5176d31fb)#r39ggyql",
            "hex": "4104f3fa523c7e28ed88c4029cf446d50645f3facf87ad428c1c5da96eb848e42a1602981ccea420f3d7c45a54d1484c903bb0b6f79fd5414c2eeacd7bf5176d31fbac",
            "type": "pubkey"
          }
        }
      ],
      "hex": "01000000010000000000000000000000000000000000000000000000000000000000000000ffffffff0804ffff001d02ed04ffffffff0100f2052a01000000434104f3fa523c7e28ed88c4029cf446d50645f3facf87ad428c1c5da96eb848e42a1602981ccea420f3d7c45a54d1484c903bb0b6f79fd5414c2eeacd7bf5176d31fbac00000000"
    }
  ]
}