{
  "hash": "00000000905094bf55841908b240d56d7016cc60d49d2ec0bafdfa60edc1dea8",
  "confirmations": 50918,
  "height": 2180,
  "version": 1,
  "versionHex": "00000001",
  "merkleroot": "7baa9eac2c4338626023cb7f1f26b44bb98c10752656757a5931dc61251fd6a9",
  "time": 1233198715,
  "mediantime": 1233195288,
  "nonce": 1078920476,
  "bits": "1d00ffff",
  "difficulty": 1,
  "chainwork": "0000000000000000000000000000000000000000000000000000088508850885",
  "nTx": 1,
  "previousblockhash": "000000007c8087b2f6ee94537a66e56e6bc0a1b290f2def8557c1bd1bded70c6",
  "nextblockhash": "000000005e03eceb949b01f3e8a4e13382850aae6e7097482661ddc1813b08a3",
  "strippedsize": 215,
  "size": 215,
  "weight": 860,
  "tx": [
    {
      "txid": "7baa9eac2c4338626023cb7f1f26b44bb98c10752656757a5931dc61251fd6a9",
      "hash": "7baa9eac2c4338626023cb7f1f26b44bb98c10752656757a5931dc61251fd6a9",
      "version": 1,
      "size": 134,
      "vsize": 134,
      "weight": 536,
      "locktime": 0,
      "vin": [
        {
          "coinbase": "04ffff001d010c",
          "sequence": 4294967295
        }
      ],
      "vout": [
        {
          "value": 50.0,
          "n": 0,
          "scriptPubKey": {
            "asm": "0417dacd2c93c6af5f169cf7b18bb244ac6f72709966445aee52ae0e753f787956195d044205177c7ffe64717bd986cb37f5aa21ab2c722c3828f3b5939ac7f597 OP_CHECKSIG",
            "desc": "pk(0417dacd2c93c6af5f169cf7b18bb244ac6f72709966445aee52ae0e753f787956195d044205177c7ffe64717bd986cb37f5aa21ab2c722c3828f3b5939ac7f597)#7p5zusz9",
            "hex": "410417dacd2c93c6af5f169cf7b18bb244ac6f72709966445aee52ae0e753f787956195d044205177c7ffe64717bd986cb37f5aa21ab2c722c3828f3b5939ac7f597ac",
            "type": "pubkey"
          }
        }
      ],
      "hex": "01000000010000000000000000000000000000000000000000000000000000000000000000ffffffff0704ffff001d010cffffffff0100f2052a0100000043410417dacd2c93c6af5f169cf7b18bb244ac6f72709966445aee52ae0e753f787956195d044205177c7ffe64717bd986cb37f5aa21ab2c722c3828f3b5939ac7f597ac00000000"
    }
  ]
}