{
  "hash": "0000000020cc993b057182358df29839534c3233eca80aab0d42748a55a7e0bb",
  "confirmations": 51516,
  "height": 1582,
  "version": 1,
  "versionHex": "00000001",
  "merkleroot": "c8a84771bf17da2eb1d2b8f3735343b545e4494cd495021ae2df58c8b5c5d26d",
  "time": 1232803272,
  "mediantime": 1232800567,
  "nonce": 3725282335,
  "bits": "1d00ffff",
  "difficulty": 1,
  "chainwork": "0000000000000000000000000000000000000000000000000000062f062f062f",
  "nTx": 1,
  "previousblockhash": "00000000941031648fa40f9d00bb7bea3667d59fa5fd2ffd8d6a362362a61c0f",
  "nextblockhash": "0000000082fb56bbafe5f60356ddcff4bcadc8f0098718b2ff4498a7c6a0cad0",
  "strippedsize": 216,
  "size": 216,
  "weight": 864,
  "tx": [
    {
      "txid": "c8a84771bf17da2eb1d2b8f3735343b545e4494cd495021ae2df58c8b5c5d26d",
      "hash": "c8a84771bf17da2eb1d2b8f3735343b545e4494cd495021ae2df58c8b5c5d26d",
      "version": 1,
      "size": 135,
      "vsize": 135,
      "weight": 540,
      "locktime": 0,
      "vin": [
        {
          "coinbase": "04ffff001d02fd01",
          "sequence": 4294967295
        }
      ],
      "vout": [
        {
          "value": 50.0,
          "n": 0,
          "scriptPubKey": {
            "asm": "04787a2335c8473d9ddfda09cb7f7741fe71c6e4e3026800b5618b2b763216e1e0c73d35ff35fef9b65dc3b9e2e2465aaaaacb2c44a0c2d1be76c78328071957aa OP_CHECKSIG",
            "desc": "pk(04787a2335c8473d9ddfda09cb7f7741fe71c6e4e3026800b5618b2b763216e1e0c73d35ff35fef9b65dc3b9e2e2465aaaaacb2c44a0c2d1be76c78328071957aa)#hu68zw2q",
            "hex": "4104787a2335c8473d9ddfda09cb7f7741fe71c6e4e3026800b5618b2b763216e1e0c73d35ff35fef9b65dc3b9e2e2465aaaaacb2c44a0c2d1be76c78328071957aaac",
            "type": "pubkey"
          }
        }
      ],
      "hex": "01000000010000000000000000000000000000000000000000000000000000000000000000ffffffff0804ffff001d02fd01ffffffff0100f2052a01000000434104787a2335c8473d9ddfda09cb7f7741fe71c6e4e3026800b5618b2b763216e1e0c73d35ff35fef9b65dc3b9e2e2465aaaaacb2c44a0c2d1be76c78328071957aaac00000000"
    }
  ]
}