{
  "hash": "00000000feeb0d4b6494e4ccd20aef37fb9d93fb45a1feee644c2aaa33ebda4a",
  "confirmations": 51215,
  "height": 1883,
  "version": 1,
  "versionHex": "00000001",
  "merkleroot": "3a561f421d199812e98c7a7e06a519bbb7503097c2bbdd7956692feee9285b31",
  "time": 1232937232,
  "mediantime": 1232934385,
  "nonce": 3619219503,
  "bits": "1d00ffff",
  "difficulty": 1,
  "chainwork": "0000000000000000000000000000000000000000000000000000075c075c075c",
  "nTx": 1,
  "previousblockhash": "000000002457c6c89c31b8cdbdcccf4ba884dbe7d7fce2a6ccd2ee7e75c122f6",
  "nextblockhash": "00000000be3d49138ffadc146173b21c3b9f4fd3225617a4656873b2ed4a4cdd",
  "strippedsize": 216,
  "size": 216,
  "weight": 864,
  "tx": [
    {
      "txid": "3a561f421d199812e98c7a7e06a519bbb7503097c2bbdd7956692feee9285b31",
      "hash": "3a561f421d199812e98c7a7e06a519bbb7503097c2bbdd7956692feee9285b31",
      "version": 1,
      "size": 135,
      "vsize": 135,
      "weight": 540,
      "locktime": 0,
      "vin": [
        {
          "coinbase": "04ffff001d02f204",
          "sequence": 4294967295
        }
      ],
      "vout": [
        {
          "value": 50.0,
          "n": 0,
          "scriptPubKey": {
            "asm": "04493a1a4c70eb3db29ea7a6a1b2b04d4befedd7b3a7277ee7d4ba95a268975a394bc224746a2db29f2297f9bb8d48cb2500b7ccd39a1a4e02ab7743dad6549d9b OP_CHECKSIG",
            "desc": "pk(04493a1a4c70eb3db29ea7a6a1b2b04d4befedd7b3a7277ee7d4ba95a268975a394bc224746a2db29f2297f9bb8d48cb2500b7ccd39a1a4e02ab7743dad6549d9b)#80f34z47",
            "hex": "4104493a1a4c70eb3db29ea7a6a1b2b04d4befedd7b3a7277ee7d4ba95a268975a394bc224746a2db29f2297f9bb8d48cb2500b7ccd39a1a4e02ab7743dad6549d9bac",
            "type": "pubkey"
          }
        }
      ],
      "hex": "01000000010000000000000000000000000000000000000000000000000000000000000000ffffffff0804ffff001d02f204ffffffff0100f2052a01000000434104493a1a4c70eb3db29ea7a6a1b2b04d4befedd7b3a7277ee7d4ba95a268975a394bc224746a2db29f2297f9bb8d48cb2500b7ccd39a1a4e02ab7743dad6549d9bac00000000"
    }
  ]
}