{
  "hash": "00000000ad51e9525234e9ad796f9e86eed74111967d8fb214041c9e31cca5d6",
  "confirmations": 44538,
  "height": 8560,
  "version": 1,
  "versionHex": "00000001",
  "merkleroot": "3dbf4f51b20c014bec4641f20b979be9a53209430cd7737bd8976fceafe5db46",
  "time": 1237919918,
  "mediantime": 1237916721,
  "nonce": 1716867886,
  "bits": "1d00ffff",
  "difficulty": 1,
  "chainwork": "0000000000000000000000000000000000000000000000000000217121712171",
  "nTx": 1,
  "previousblockhash": "00000000a8847fd5a6b57bcb460b431466c564983670a40161e704f8fc00e58a",
  "nextblockhash": "00000000b9703eeaebfcf46c17af5b413b205362be9f3c45201f648119a2ad25",
  "strippedsize": 216,
  "size": 216,
  "weight": 864,
  "tx": [
    {
      "txid": "3dbf4f51b20c014bec4641f20b979be9a53209430cd7737bd8976fceafe5db46",
      "hash": "3dbf4f51b20c014bec4641f20b979be9a53209430cd7737bd8976fceafe5db46",
      "version": 1,
      "size": 135,
      "vsize": 135,
      "weight": 540,
      "locktime": 0,
      "vin": [
        {
          "coinbase": "04ffff001d02fa08",
          "sequence": 4294967295
        }
      ],
      "vout": [
        {
          "value": 50.0,
          "n": 0,
          "scriptPubKey": {
            "asm": "04596d148da32659465d14c70ee4008b4124e344f3a9a76335bb20bb9e444cfd21f9e3418ecfcca410e68aca33cdda73aa9d4442fbb8de859c304c1132e6fd5919 OP_CHECKSIG",
            "desc": "pk(04596d148da32659465d14c70ee4008b4124e344f3a9a76335bb20bb9e444cfd21f9e3418ecfcca410e68aca33cdda73aa9d4442fbb8de859c304c1132e6fd5919)#62jvzza4",
            "hex": "4104596d148da32659465d14c70ee4008b4124e344f3a9a76335bb20bb9e444cfd21f9e3418ecfcca410e68aca33cdda73aa9d4442fbb8de859c304c1132e6fd5919ac",
            "type": "pubkey"
          }
        }
      ],
      "hex": "01000000010000000000000000000000000000000000000000000000000000000000000000ffffffff0804ffff001d02fa08ffffffff0100f2052a01000000434104596d148da32659465d14c70ee4008b4124e344f3a9a76335bb20bb9e444cfd21f9e3418ecfcca410e68aca33cdda73aa9d4442fbb8de859c304c1132e6fd5919ac00000000"
    }
  ]
}