{
  "hash": "000000005da869b5313e389501e12447b9107de67090a969b1c6bed4ff0bfb6c",
  "confirmations": 46183,
  "height": 6915,
  "version": 1,
  "versionHex": "00000001",
  "merkleroot": "77a3d3d1b0e04c94b027fc87652a1e0ca52606ae525226f50741ce5f780e451f",
  "time": 1236649523,
  "mediantime": 1236645846,
  "nonce": 157405174,
  "bits": "1d00ffff",
  "difficulty": 1,
  "chainwork": "00000000000000000000000000000000000000000000000000001b041b041b04",
  "nTx": 1,
  "previousblockhash": "000000007d0986a5542d6b72357388a08ca641c8ab0ae6293279627cf5b5de8b",
  "nextblockhash": "00000000d2112a77f092ba9bf9534546a97cd164e027ec6ceb406a26e5166733",
  "strippedsize": 216,
  "size": 216,
  "weight": 864,
  "tx": [
    {
      "txid": "77a3d3d1b0e04c94b027fc87652a1e0ca52606ae525226f50741ce5f780e451f",
      "hash": "77a3d3d1b0e04c94b027fc87652a1e0ca52606ae525226f50741ce5f780e451f",
      "version": 1,
      "size": 135,
      "vsize": 135,
      "weight": 540,
      "locktime": 0,
      "vin": [
        {
          "coinbase": "04ffff001d02ab00",
          "sequence": 4294967295
        }
      ],
      "vout": [
        {
          "value": 50.0,
          "n": 0,
          "scriptPubKey": {
            "asm": "04a4faec8f6d6e65c1bdd3c3889a732894256b1cf5635a5e5ce66976aba974a7af5a372b53dd41e7f4e633e62e45991beccb3134d6434249f16f572d7e23a2e8e6 OP_CHECKSIG",
            "desc": "pk(04a4faec8f6d6e65c1bdd3c3889a732894256b1cf5635a5e5ce66976aba974a7af5a372b53dd41e7f4e633e62e45991beccb3134d6434249f16f572d7e23a2e8e6)#kqhy4pqc",
            "hex": "4104a4faec8f6d6e65c1bdd3c3889a732894256b1cf5635a5e5ce66976aba974a7af5a372b53dd41e7f4e633e62e45991beccb3134d6434249f16f572d7e23a2e8e6ac",
            "type": "pubkey"
          }
        }
      ],
      "hex": "01000000010000000000000000000000000000000000000000000000000000000000000000ffffffff0804ffff001d02ab00ffffffff0100f2052a01000000434104a4faec8f6d6e65c1bdd3c3889a732894256b1cf5635a5e5ce66976aba974a7af5a372b53dd41e7f4e633e62e45991beccb3134d6434249f16f572d7e23a2e8e6ac00000000"
    }
  ]
}