{
  "hash": "0000000083321015e00bbcc43d3606d4313f83c02dc1a793676822d2cd223ff1",
  "confirmations": 46154,
  "height": 6944,
  "version": 1,
  "versionHex": "00000001",
  "merkleroot": "445eb73433c7e3913b1a1009f8adafaca892d4572c3d07bf907251d3f027a34b",
  "time": 1236674742,
  "mediantime": 1236669204,
  "nonce": 2377736995,
  "bits": "1d00ffff",
  "difficulty": 1,
  "chainwork": "00000000000000000000000000000000000000000000000000001b211b211b21",
  "nTx": 1,
  "previousblockhash": "00000000e36f00c47aa3be81cb91ccc7626ee00182d7f712661a0068ea5d8020",
  "nextblockhash": "00000000497f464b2383ddcba50538a0c48c2c2b04886186844e8b8e42f98bca",
  "strippedsize": 216,
  "size": 216,
  "weight": 864,
  "tx": [
    {
      "txid": "445eb73433c7e3913b1a1009f8adafaca892d4572c3d07bf907251d3f027a34b",
      "hash": "445eb73433c7e3913b1a1009f8adafaca892d4572c3d07bf907251d3f027a34b",
      "version": 1,
      "size": 135,
      "vsize": 135,
      "weight": 540,
      "locktime": 0,
      "vin": [
        {
          "coinbase": "04ffff001d024101",
          "sequence": 4294967295
        }
      ],
      "vout": [
        {
          "value": 50.0,
          "n": 0,
          "scriptPubKey": {
            "asm": "049d8e3a7588ac14d4653b1e6c88b1abf9b0bcb1bdb20976957d9257e1b1f582f317adcba3eb72b0bb401555d1ce3e441a0214819bfb8eb4da424309a6a8ce8185 OP_CHECKSIG",
            "desc": "pk(049d8e3a7588ac14d4653b1e6c88b1abf9b0bcb1bdb20976957d9257e1b1f582f317adcba3eb72b0bb401555d1ce3e441a0214819bfb8eb4da424309a6a8ce8185)#pgz67s0a",
            "hex": "41049d8e3a7588ac14d4653b1e6c88b1abf9b0bcb1bdb20976957d9257e1b1f582f317adcba3eb72b0bb401555d1ce3e441a0214819bfb8eb4da424309a6a8ce8185ac",
            "type": "pubkey"
          }
        }
      ],
      "hex": "01000000010000000000000000000000000000000000000000000000000000000000000000ffffffff0804ffff001d024101ffffffff0100f2052a010000004341049d8e3a7588ac14d4653b1e6c88b1abf9b0bcb1bdb20976957d9257e1b1f582f317adcba3eb72b0bb401555d1ce3e441a0214819bfb8eb4da424309a6a8ce8185ac00000000"
    }
  ]
}