{
  "hash": "000000006ac271cc372f307d969abc97356c7eb21174439f36d2a79817667ad3",
  "confirmations": 46147,
  "height": 6951,
  "version": 1,
  "versionHex": "00000001",
  "merkleroot": "40d5c21b2683e7d91bfa9da31e4a719d4f410222bdea38dc378c8d03a2bf952a",
  "time": 1236680785,
  "mediantime": 1236676779,
  "nonce": 3554015778,
  "bits": "1d00ffff",
  "difficulty": 1,
  "chainwork": "00000000000000000000000000000000000000000000000000001b281b281b28",
  "nTx": 1,
  "previousblockhash": "00000000c6e6b10fcf170f83ac2deecffd607597a5f98fccff6497fe1559429f",
  "nextblockhash": "00000000bb35826c0a9294ae63c59e8b906bfa6e7801ecd9b26d75021131df66",
  "strippedsize": 216,
  "size": 216,
  "weight": 864,
  "tx": [
    {
      "txid": "40d5c21b2683e7d91bfa9da31e4a719d4f410222bdea38dc378c8d03a2bf952a",
      "hash": "40d5c21b2683e7d91bfa9da31e4a719d4f410222bdea38dc378c8d03a2bf952a",
      "version": 1,
      "size": 135,
      "vsize": 135,
      "weight": 540,
      "locktime": 0,
      "vin": [
        {
          "coinbase": "04ffff001d025c01",
          "sequence": 4294967295
        }
      ],
      "vout": [
        {
          "value": 50.0,
          "n": 0,
          "scriptPubKey": {
            "asm": "04974242425a01c8d708d99238f0e7f9b0b77e94ef4721cc8a4811630f22d037c3306bd2690b0e5e23209848015df8f33d9295ec220d2340ea0c0dcf8629c64085 OP_CHECKSIG",
            "desc": "pk(04974242425a01c8d708d99238f0e7f9b0b77e94ef4721cc8a4811630f22d037c3306bd2690b0e5e23209848015df8f33d9295ec220d2340ea0c0dcf8629c64085)#mc4pad3a",
            "hex": "4104974242425a01c8d708d99238f0e7f9b0b77e94ef4721cc8a4811630f22d037c3306bd2690b0e5e23209848015df8f33d9295ec220d2340ea0c0dcf8629c64085ac",
            "type": "pubkey"
          }
        }
      ],
      "hex": "01000000010000000000000000000000000000000000000000000000000000000000000000ffffffff0804ffff001d025c01ffffffff0100f2052a01000000434104974242425a01c8d708d99238f0e7f9b0b77e94ef4721cc8a4811630f22d037c3306bd2690b0e5e23209848015df8f33d9295ec220d2340ea0c0dcf8629c64085ac00000000"
    }
  ]
}