{
  "hash": "0000000038ce8e369537e3fab61a0cf7e944b21a967e2b7d276a4a79fbeb1919",
  "confirmations": 46781,
  "height": 6317,
  "version": 1,
  "versionHex": "00000001",
  "merkleroot": "2d239b264bd33dbaa883d044b78e47cdacb4be42e2506448490d4b1ecc30392b",
  "time": 1236184542,
  "mediantime": 1236180341,
  "nonce": 1296531716,
  "bits": "1d00ffff",
  "difficulty": 1,
  "chainwork": "000000000000000000000000000000000000000000000000000018ae18ae18ae",
  "nTx": 1,
  "previousblockhash": "0000000059638339223984f993eb0a4005649103aacf02ed1139d70b21c7e5c3",
  "nextblockhash": "00000000054518f6420800da4f4fa09dc572ddcddbf494ec75aee9b873b216a2",
  "strippedsize": 215,
  "size": 215,
  "weight": 860,
  "tx": [
    {
      "txid": "2d239b264bd33dbaa883d044b78e47cdacb4be42e2506448490d4b1ecc30392b",
      "hash": "2d239b264bd33dbaa883d044b78e47cdacb4be42e2506448490d4b1ecc30392b",
      "version": 1,
      "size": 134,
      "vsize": 134,
      "weight": 536,
      "locktime": 0,
      "vin": [
        {
          "coinbase": "04ffff001d0168",
          "sequence": 4294967295
        }
      ],
      "vout": [
        {
          "value": 50.0,
          "n": 0,
          "scriptPubKey": {
            "asm": "049fafb9d8b17dde7916898d80fb6e93d8910bb7c607fa426eda7d6440c0a8d823180b4ef5895e7929b39f31bef7fc1de9a690a9a73e8233c4f90c72e2afc8809d OP_CHECKSIG",
            "desc": "pk(049fafb9d8b17dde7916898d80fb6e93d8910bb7c607fa426eda7d6440c0a8d823180b4ef5895e7929b39f31bef7fc1de9a690a9a73e8233c4f90c72e2afc8809d)#mcf0v3my",
            "hex": "41049fafb9d8b17dde7916898d80fb6e93d8910bb7c607fa426eda7d6440c0a8d823180b4ef5895e7929b39f31bef7fc1de9a690a9a73e8233c4f90c72e2afc8809dac",
            "type": "pubkey"
          }
        }
      ],
      "hex": "01000000010000000000000000000000000000000000000000000000000000000000000000ffffffff0704ffff001d0168ffffffff0100f2052a010000004341049fafb9d8b17dde7916898d80fb6e93d8910bb7c607fa426eda7d6440c0a8d823180b4ef5895e7929b39f31bef7fc1de9a690a9a73e8233c4f90c72e2afc8809dac00000000"
    }
  ]
}