{
  "hash": "00000000445badc24fc82d137c552d7f013d0d0f55be4dac1dc61b92e4a27a40",
  "confirmations": 52071,
  "height": 1027,
  "version": 1,
  "versionHex": "00000001",
  "merkleroot": "6938e165143a92cd1cbca55afe56d9985cb410aad32e484e94dde878efaf3e81",
  "time": 1232368720,
  "mediantime": 1232366060,
  "nonce": 112195026,
  "bits": "1d00ffff",
  "difficulty": 1,
  "chainwork": "0000000000000000000000000000000000000000000000000000040404040404",
  "nTx": 1,
  "previousblockhash": "00000000425a4ad21d99ec0a32e1a5b5d0db2229c37ad433f8976db6c4397a66",
  "nextblockhash": "000000001bac8da2b747fc932bc14d168e25be8088adc164fe859f9acf8c5d16",
  "strippedsize": 216,
  "size": 216,
  "weight": 864,
  "tx": [
    {
      "txid": "6938e165143a92cd1cbca55afe56d9985cb410aad32e484e94dde878efaf3e81",
      "hash": "6938e165143a92cd1cbca55afe56d9985cb410aad32e484e94dde878efaf3e81",
      "version": 1,
      "size": 135,
      "vsize": 135,
      "weight": 540,
      "locktime": 0,
      "vin": [
        {
          "coinbase": "04ffff001d02df00",
          "sequence": 4294967295
        }
      ],
      "vout": [
        {
          "value": 50.0,
          "n": 0,
          "scriptPubKey": {
            "asm": "04978bd66262b7e760e2bbd2d0b3b5cde8ad1e22eabda19ecb83e2e2f83013e47e9bc30edb6e30c5a72fb7a53d8c9b413246fa68149a5074a017d510039af78aec OP_CHECKSIG",
            "desc": "pk(04978bd66262b7e760e2bbd2d0b3b5cde8ad1e22eabda19ecb83e2e2f83013e47e9bc30edb6e30c5a72fb7a53d8c9b413246fa68149a5074a017d510039af78aec)#f3q9aez2",
            "hex": "4104978bd66262b7e760e2bbd2d0b3b5cde8ad1e22eabda19ecb83e2e2f83013e47e9bc30edb6e30c5a72fb7a53d8c9b413246fa68149a5074a017d510039af78aecac",
            "type": "pubkey"
          }
        }
      ],
      "hex": "01000000010000000000000000000000000000000000000000000000000000000000000000ffffffff0804ffff001d02df00ffffffff0100f2052a01000000434104978bd66262b7e760e2bbd2d0b3b5cde8ad1e22eabda19ecb83e2e2f83013e47e9bc30edb6e30c5a72fb7a53d8c9b413246fa68149a5074a017d510039af78aecac00000000"
    }
  ]
}