{
  "hash": "000000000f27ac42a928d933bd8686a8198d30c513e6bf37a8e40d623256c724",
  "confirmations": 51711,
  "height": 1387,
  "version": 1,
  "versionHex": "00000001",
  "merkleroot": "ebdedc791508ab1366f6644c5d2ccaffb3a3007e6cf96ab1079363635b04b806",
  "time": 1232669186,
  "mediantime": 1232667108,
  "nonce": 138511779,
  "bits": "1d00ffff",
  "difficulty": 1,
  "chainwork": "0000000000000000000000000000000000000000000000000000056c056c056c",
  "nTx": 1,
  "previousblockhash": "00000000ad99090dce514a009fb4fe0dedb178027e7dc15eadf765d8f69dbe75",
  "nextblockhash": "00000000f65ec02ed1afe14a10abb94e08ca830ea8c5e47a8207f5e98d7fae65",
  "strippedsize": 215,
  "size": 215,
  "weight": 860,
  "tx": [
    {
      "txid": "ebdedc791508ab1366f6644c5d2ccaffb3a3007e6cf96ab1079363635b04b806",
      "hash": "ebdedc791508ab1366f6644c5d2ccaffb3a3007e6cf96ab1079363635b04b806",
      "version": 1,
      "size": 134,
      "vsize": 134,
      "weight": 536,
      "locktime": 0,
      "vin": [
        {
          "coinbase": "04ffff001d0112",
          "sequence": 4294967295
        }
      ],
      "vout": [
        {
          "value": 50.0,
          "n": 0,
          "scriptPubKey": {
            "asm": "046486897e07639c537a479c55ca61234fb01a302b331431c554179e94de7e41ffe88d06cfb2be815d3086644cbad3e803de33e57992764517e596a6990c70429b OP_CHECKSIG",
            "desc": "pk(046486897e07639c537a479c55ca61234fb01a302b331431c554179e94de7e41ffe88d06cfb2be815d3086644cbad3e803de33e57992764517e596a6990c70429b)#gvy3z4ty",
            "hex": "41046486897e07639c537a479c55ca61234fb01a302b331431c554179e94de7e41ffe88d06cfb2be815d3086644cbad3e803de33e57992764517e596a6990c70429bac",
            "type": "pubkey"
          }
        }
      ],
      "hex": "01000000010000000000000000000000000000000000000000000000000000000000000000ffffffff0704ffff001d0112ffffffff0100f2052a010000004341046486897e07639c537a479c55ca61234fb01a302b331431c554179e94de7e41ffe88d06cfb2be815d3086644cbad3e803de33e57992764517e596a6990c70429bac00000000"
    }
  ]
}