{
  "hash": "0000000052da77e6ee0287d6ba87f22b132e37cdfae3a91e03f19f49f28f4a1b",
  "confirmations": 49117,
  "height": 3981,
  "version": 1,
  "versionHex": "00000001",
  "merkleroot": "5763b25fa1262cbd7027e22cf2b18d936cb0d3c42cd03edbe4ae55d5e1cdcfaf",
  "time": 1234428351,
  "mediantime": 1234424186,
  "nonce": 1480991,
  "bits": "1d00ffff",
  "difficulty": 1,
  "chainwork": "00000000000000000000000000000000000000000000000000000f8e0f8e0f8e",
  "nTx": 1,
  "previousblockhash": "000000002077a5227336e5d79cde0a47e260bd369eba1b9cfe9c609f0980d987",
  "nextblockhash": "0000000087565ddcf78b4c674190ae46deb6b034412a0410dab4b2e4ab484bbf",
  "strippedsize": 216,
  "size": 216,
  "weight": 864,
  "tx": [
    {
      "txid": "5763b25fa1262cbd7027e22cf2b18d936cb0d3c42cd03edbe4ae55d5e1cdcfaf",
      "hash": "5763b25fa1262cbd7027e22cf2b18d936cb0d3c42cd03edbe4ae55d5e1cdcfaf",
      "version": 1,
      "size": 135,
      "vsize": 135,
      "weight": 540,
      "locktime": 0,
      "vin": [
        {
          "coinbase": "04ffff001d020704",
          "sequence": 4294967295
        }
      ],
      "vout": [
        {
          "value": 50.0,
          "n": 0,
          "scriptPubKey": {
            "asm": "04c2249046b6e98453d3c7316dffac62d01664f6ead5126620b771036d028bd6ab04ad2315a8e7b8cf2e16641561b0ade03c8ec5d6f6fa6f4c0d78a34ee61aab73 OP_CHECKSIG",
            "desc": "pk(04c2249046b6e98453d3c7316dffac62d01664f6ead5126620b771036d028bd6ab04ad2315a8e7b8cf2e16641561b0ade03c8ec5d6f6fa6f4c0d78a34ee61aab73)#qv2cddv7",
            "hex": "4104c2249046b6e98453d3c7316dffac62d01664f6ead5126620b771036d028bd6ab04ad2315a8e7b8cf2e16641561b0ade03c8ec5d6f6fa6f4c0d78a34ee61aab73ac",
            "type": "pubkey"
          }
        }
      ],
      "hex": "01000000010000000000000000000000000000000000000000000000000000000000000000ffffffff0804ffff001d020704ffffffff0100f2052a01000000434104c2249046b6e98453d3c7316dffac62d01664f6ead5126620b771036d028bd6ab04ad2315a8e7b8cf2e16641561b0ade03c8ec5d6f6fa6f4c0d78a34ee61aab73ac00000000"
    }
  ]
}