{
  "hash": "00000000372169662fc63fa89918568338313469cc633e3c7cc21a27372a5c57",
  "confirmations": 48774,
  "height": 4324,
  "version": 1,
  "versionHex": "00000001",
  "merkleroot": "c66b479fc00d24af86f5dc24758fd257f844fda7c5b834e59efcf272e8cfd7b8",
  "time": 1234662507,
  "mediantime": 1234657026,
  "nonce": 903299861,
  "bits": "1d00ffff",
  "difficulty": 1,
  "chainwork": "000000000000000000000000000000000000000000000000000010e510e510e5",
  "nTx": 1,
  "previousblockhash": "00000000191745f19a7ca2fb515a2b1f7594e89bd843c9118c831e3541eb266b",
  "nextblockhash": "0000000085ed4936d370769b1e44a3888297c45d1c415a1c24c947d17cf9e7e1",
  "strippedsize": 215,
  "size": 215,
  "weight": 860,
  "tx": [
    {
      "txid": "c66b479fc00d24af86f5dc24758fd257f844fda7c5b834e59efcf272e8cfd7b8",
      "hash": "c66b479fc00d24af86f5dc24758fd257f844fda7c5b834e59efcf272e8cfd7b8",
      "version": 1,
      "size": 134,
      "vsize": 134,
      "weight": 536,
      "locktime": 0,
      "vin": [
        {
          "coinbase": "04ffff001d0143",
          "sequence": 4294967295
        }
      ],
      "vout": [
        {
          "value": 50.0,
          "n": 0,
          "scriptPubKey": {
            "asm": "041e030c56dbc3c32d5b1a41fb6dd4597fb28b1e1a6ac33bcd12af43de3a684a76214703c63fd918a74e84441e71917b99edcd291018a22f0b8e7a3b9d74776548 OP_CHECKSIG",
            "desc": "pk(041e030c56dbc3c32d5b1a41fb6dd4597fb28b1e1a6ac33bcd12af43de3a684a76214703c63fd918a74e84441e71917b99edcd291018a22f0b8e7a3b9d74776548)#s5jfjt57",
            "hex": "41041e030c56dbc3c32d5b1a41fb6dd4597fb28b1e1a6ac33bcd12af43de3a684a76214703c63fd918a74e84441e71917b99edcd291018a22f0b8e7a3b9d74776548ac",
            "type": "pubkey"
          }
        }
      ],
      "hex": "01000000010000000000000000000000000000000000000000000000000000000000000000ffffffff0704ffff001d0143ffffffff0100f2052a010000004341041e030c56dbc3c32d5b1a41fb6dd4597fb28b1e1a6ac33bcd12af43de3a684a76214703c63fd918a74e84441e71917b99edcd291018a22f0b8e7a3b9d74776548ac00000000"
    }
  ]
}