{
  "hash": "000000002301fa46111e812fcff9eecc3be8752f30d96a80bba823663bd08a8e",
  "confirmations": 50081,
  "height": 3017,
  "version": 1,
  "versionHex": "00000001",
  "merkleroot": "1e0128a8071cff6988c28962c2fc4733015a482a3ff13692c62f6080bec73617",
  "time": 1233774371,
  "mediantime": 1233770281,
  "nonce": 212012943,
  "bits": "1d00ffff",
  "difficulty": 1,
  "chainwork": "00000000000000000000000000000000000000000000000000000bca0bca0bca",
  "nTx": 1,
  "previousblockhash": "00000000258f32cd44afd8e8d523eb8e778175ede7535ce07c9b64299f61175d",
  "nextblockhash": "000000005f2f2e4c4e8ce832beb63b73cb5ceaaab61527f9b1eaae0221f72dbb",
  "strippedsize": 215,
  "size": 215,
  "weight": 860,
  "tx": [
    {
      "txid": "1e0128a8071cff6988c28962c2fc4733015a482a3ff13692c62f6080bec73617",
      "hash": "1e0128a8071cff6988c28962c2fc4733015a482a3ff13692c62f6080bec73617",
      "version": 1,
      "size": 134,
      "vsize": 134,
      "weight": 536,
      "locktime": 0,
      "vin": [
        {
          "coinbase": "04ffff001d012d",
          "sequence": 4294967295
        }
      ],
      "vout": [
        {
          "value": 50.0,
          "n": 0,
          "scriptPubKey": {
            "asm": "0455e0f641e2cc02bea2d110ba6a444bcc635d7853c5b2e261b482a2165889cf297a06b037355d656e98b3f4d04c23af9c6a84294ca19389295e4742f6933cb031 OP_CHECKSIG",
            "desc": "pk(0455e0f641e2cc02bea2d110ba6a444bcc635d7853c5b2e261b482a2165889cf297a06b037355d656e98b3f4d04c23af9c6a84294ca19389295e4742f6933cb031)#7w0gks2s",
            "hex": "410455e0f641e2cc02bea2d110ba6a444bcc635d7853c5b2e261b482a2165889cf297a06b037355d656e98b3f4d04c23af9c6a84294ca19389295e4742f6933cb031ac",
            "type": "pubkey"
          }
        }
      ],
      "hex": "01000000010000000000000000000000000000000000000000000000000000000000000000ffffffff0704ffff001d012dffffffff0100f2052a0100000043410455e0f641e2cc02bea2d110ba6a444bcc635d7853c5b2e261b482a2165889cf297a06b037355d656e98b3f4d04c23af9c6a84294ca19389295e4742f6933cb031ac00000000"
    }
  ]
}