{
  "hash": "0000000056776041ebdc54bb829a88d4d6915793be1f08be507c4f7bcaf186d9",
  "confirmations": 51018,
  "height": 2080,
  "version": 1,
  "versionHex": "00000001",
  "merkleroot": "9aabe8a2bd6c5d91c71658a24b093d065633f64ba58fde24ddd4f0464afa8ef4",
  "time": 1233123994,
  "mediantime": 1233118992,
  "nonce": 2073846023,
  "bits": "1d00ffff",
  "difficulty": 1,
  "chainwork": "0000000000000000000000000000000000000000000000000000082108210821",
  "nTx": 1,
  "previousblockhash": "00000000960863ea6673e2849756218aa5a6a86af26d8992db5c4e83c7ec44da",
  "nextblockhash": "000000009c9a00e0b53d961b28f1a79245bea8b5835b10637e99dc22b2abd98f",
  "strippedsize": 216,
  "size": 216,
  "weight": 864,
  "tx": [
    {
      "txid": "9aabe8a2bd6c5d91c71658a24b093d065633f64ba58fde24ddd4f0464afa8ef4",
      "hash": "9aabe8a2bd6c5d91c71658a24b093d065633f64ba58fde24ddd4f0464afa8ef4",
      "version": 1,
      "size": 135,
      "vsize": 135,
      "weight": 540,
      "locktime": 0,
      "vin": [
        {
          "coinbase": "04ffff001d026b03",
          "sequence": 4294967295
        }
      ],
      "vout": [
        {
          "value": 50.0,
          "n": 0,
          "scriptPubKey": {
            "asm": "045eab3856733a8e8a00a6924aada124bcb94ec52e9732a024e65e7aab640890135d73a97129f1226e3192c8881f10a2db07038cbd86d13b0d892d797d65c47cd8 OP_CHECKSIG",
            "desc": "pk(045eab3856733a8e8a00a6924aada124bcb94ec52e9732a024e65e7aab640890135d73a97129f1226e3192c8881f10a2db07038cbd86d13b0d892d797d65c47cd8)#w7wlsxar",
            "hex": "41045eab3856733a8e8a00a6924aada124bcb94ec52e9732a024e65e7aab640890135d73a97129f1226e3192c8881f10a2db07038cbd86d13b0d892d797d65c47cd8ac",
            "type": "pubkey"
          }
        }
      ],
      "hex": "01000000010000000000000000000000000000000000000000000000000000000000000000ffffffff0804ffff001d026b03ffffffff0100f2052a010000004341045eab3856733a8e8a00a6924aada124bcb94ec52e9732a024e65e7aab640890135d73a97129f1226e3192c8881f10a2db07038cbd86d13b0d892d797d65c47cd8ac00000000"
    }
  ]
}