{
  "hash": "000000000964c78e630f65cdfa02da19fbe958cdaef7a53f9c9e427f42bda5e1",
  "confirmations": 49861,
  "height": 3237,
  "version": 1,
  "versionHex": "00000001",
  "merkleroot": "39573e06b65d015f36931bfe6d5671b1cf369ac30034a0dd174a2795bf990ca0",
  "time": 1233927008,
  "mediantime": 1233922488,
  "nonce": 1122658360,
  "bits": "1d00ffff",
  "difficulty": 1,
  "chainwork": "00000000000000000000000000000000000000000000000000000ca60ca60ca6",
  "nTx": 1,
  "previousblockhash": "00000000c8885684343666662310937cbd34991f0b00fa6abedfd566687a749a",
  "nextblockhash": "00000000465c6c8e879ee54716572d4fd7e02edf6a973f417b6dc983840ebe49",
  "strippedsize": 216,
  "size": 216,
  "weight": 864,
  "tx": [
    {
      "txid": "39573e06b65d015f36931bfe6d5671b1cf369ac30034a0dd174a2795bf990ca0",
      "hash": "39573e06b65d015f36931bfe6d5671b1cf369ac30034a0dd174a2795bf990ca0",
      "version": 1,
      "size": 135,
      "vsize": 135,
      "weight": 540,
      "locktime": 0,
      "vin": [
        {
          "coinbase": "04ffff001d024303",
          "sequence": 4294967295
        }
      ],
      "vout": [
        {
          "value": 50.0,
          "n": 0,
          "scriptPubKey": {
            "asm": "048045cb79313478f7b2356e2d307c2f7938080824529bb43d748a203b6a9255f129de40272d4d1b6b14a36c81a863c6232e5e756c93ab2ef4fb0ebd4c8ac81d09 OP_CHECKSIG",
            "desc": "pk(048045cb79313478f7b2356e2d307c2f7938080824529bb43d748a203b6a9255f129de40272d4d1b6b14a36c81a863c6232e5e756c93ab2ef4fb0ebd4c8ac81d09)#a3yce30j",
            "hex": "41048045cb79313478f7b2356e2d307c2f7938080824529bb43d748a203b6a9255f129de40272d4d1b6b14a36c81a863c6232e5e756c93ab2ef4fb0ebd4c8ac81d09ac",
            "type": "pubkey"
          }
        }
      ],
      "hex": "01000000010000000000000000000000000000000000000000000000000000000000000000ffffffff0804ffff001d024303ffffffff0100f2052a010000004341048045cb79313478f7b2356e2d307c2f7938080824529bb43d748a203b6a9255f129de40272d4d1b6b14a36c81a863c6232e5e756c93ab2ef4fb0ebd4c8ac81d09ac00000000"
    }
  ]
}