{
  "hash": "0000000053e557e806f01419d60de7c7b43dc4fb6896a93c9a7957b73be57fe0",
  "confirmations": 51820,
  "height": 1278,
  "version": 1,
  "versionHex": "00000001",
  "merkleroot": "f1b3871ee3e61c6b9ab2671857f549065b7ce582163273588323a3352ae33c6f",
  "time": 1232558225,
  "mediantime": 1232553971,
  "nonce": 4187137308,
  "bits": "1d00ffff",
  "difficulty": 1,
  "chainwork": "000000000000000000000000000000000000000000000000000004ff04ff04ff",
  "nTx": 1,
  "previousblockhash": "00000000d030affa87468d74670822ed0d46591cfa2dc1c628a0e16fc208a01c",
  "nextblockhash": "0000000054e0f2952d4cff87f3478ab319271123878173676b3531c3d90a2653",
  "strippedsize": 216,
  "size": 216,
  "weight": 864,
  "tx": [
    {
      "txid": "f1b3871ee3e61c6b9ab2671857f549065b7ce582163273588323a3352ae33c6f",
      "hash": "f1b3871ee3e61c6b9ab2671857f549065b7ce582163273588323a3352ae33c6f",
      "version": 1,
      "size": 135,
      "vsize": 135,
      "weight": 540,
      "locktime": 0,
      "vin": [
        {
          "coinbase": "04ffff001d02f809",
          "sequence": 4294967295
        }
      ],
      "vout": [
        {
          "value": 50.0,
          "n": 0,
          "scriptPubKey": {
            "asm": "0492e4fc7c7d444169b4f191e8daee91869a79f6ea963cd1495e4e650eede5c206a66fe7aa7a92058bc28e2c9da0017a9ca3fdd1efda3cb417272022d85e2ce149 OP_CHECKSIG",
            "desc": "pk(0492e4fc7c7d444169b4f191e8daee91869a79f6ea963cd1495e4e650eede5c206a66fe7aa7a92058bc28e2c9da0017a9ca3fdd1efda3cb417272022d85e2ce149)#4ty6zem9",
            "hex": "410492e4fc7c7d444169b4f191e8daee91869a79f6ea963cd1495e4e650eede5c206a66fe7aa7a92058bc28e2c9da0017a9ca3fdd1efda3cb417272022d85e2ce149ac",
            "type": "pubkey"
          }
        }
      ],
      "hex": "01000000010000000000000000000000000000000000000000000000000000000000000000ffffffff0804ffff001d02f809ffffffff0100f2052a0100000043410492e4fc7c7d444169b4f191e8daee91869a79f6ea963cd1495e4e650eede5c206a66fe7aa7a92058bc28e2c9da0017a9ca3fdd1efda3cb417272022d85e2ce149ac00000000"
    }
  ]
}