{
  "hash": "00000000883e289741813f2900714b6e76edbf6896dfd6d465faace22e2fcdba",
  "confirmations": 49858,
  "height": 3240,
  "version": 1,
  "versionHex": "00000001",
  "merkleroot": "6b4bd259c9046e86399f638d7aae8f6f95c1a5b74d34233b7f708cd4e76cdf31",
  "time": 1233928888,
  "mediantime": 1233925185,
  "nonce": 4370600,
  "bits": "1d00ffff",
  "difficulty": 1,
  "chainwork": "00000000000000000000000000000000000000000000000000000ca90ca90ca9",
  "nTx": 1,
  "previousblockhash": "0000000010b867ee0b793b0a469d014bb487e30b11b39a80f6d1235f3af69a94",
  "nextblockhash": "0000000004432268712b572db0d0e55bd4003daaa3303edb9cc0b63147e69144",
  "strippedsize": 216,
  "size": 216,
  "weight": 864,
  "tx": [
    {
      "txid": "6b4bd259c9046e86399f638d7aae8f6f95c1a5b74d34233b7f708cd4e76cdf31",
      "hash": "6b4bd259c9046e86399f638d7aae8f6f95c1a5b74d34233b7f708cd4e76cdf31",
      "version": 1,
      "size": 135,
      "vsize": 135,
      "weight": 540,
      "locktime": 0,
      "vin": [
        {
          "coinbase": "04ffff001d023e02",
          "sequence": 4294967295
        }
      ],
      "vout": [
        {
          "value": 50.0,
          "n": 0,
          "scriptPubKey": {
            "asm": "04f12910a31a80d8e390a2b095a146e4a7a0dd501daaae9f881468a67e58dd8a5afff28e876412ab3e11cb3b30f0d371bddc94d9065ebbacc4bc46522c2454b68f OP_CHECKSIG",
            "desc": "pk(04f12910a31a80d8e390a2b095a146e4a7a0dd501daaae9f881468a67e58dd8a5afff28e876412ab3e11cb3b30f0d371bddc94d9065ebbacc4bc46522c2454b68f)#8ydd587p",
            "hex": "4104f12910a31a80d8e390a2b095a146e4a7a0dd501daaae9f881468a67e58dd8a5afff28e876412ab3e11cb3b30f0d371bddc94d9065ebbacc4bc46522c2454b68fac",
            "type": "pubkey"
          }
        }
      ],
      "hex": "01000000010000000000000000000000000000000000000000000000000000000000000000ffffffff0804ffff001d023e02ffffffff0100f2052a01000000434104f12910a31a80d8e390a2b095a146e4a7a0dd501daaae9f881468a67e58dd8a5afff28e876412ab3e11cb3b30f0d371bddc94d9065ebbacc4bc46522c2454b68fac00000000"
    }
  ]
}