{
  "hash": "00000000a40a9d672c54ab44bcf8d4826087253203a88f2f7ee51d59a3c97bb8",
  "confirmations": 51245,
  "height": 1853,
  "version": 1,
  "versionHex": "00000001",
  "merkleroot": "bae6faa03606acbc9ab6a1823d1630f476be64a8c0d7777242d501488727808d",
  "time": 1232923646,
  "mediantime": 1232920843,
  "nonce": 3046008347,
  "bits": "1d00ffff",
  "difficulty": 1,
  "chainwork": "0000000000000000000000000000000000000000000000000000073e073e073e",
  "nTx": 1,
  "previousblockhash": "000000001344959fad0372d099b7c038d2a68369d72f8d589905d67282db47e8",
  "nextblockhash": "00000000ff6956311d1122294f29e862f2b9429133ebb66e7b7237102f481df4",
  "strippedsize": 216,
  "size": 216,
  "weight": 864,
  "tx": [
    {
      "txid": "bae6faa03606acbc9ab6a1823d1630f476be64a8c0d7777242d501488727808d",
      "hash": "bae6faa03606acbc9ab6a1823d1630f476be64a8c0d7777242d501488727808d",
      "version": 1,
      "size": 135,
      "vsize": 135,
      "weight": 540,
      "locktime": 0,
      "vin": [
        {
          "coinbase": "04ffff001d02ac04",
          "sequence": 4294967295
        }
      ],
      "vout": [
        {
          "value": 50.0,
          "n": 0,
          "scriptPubKey": {
            "asm": "045417858ba41bfd67538d102e85676c8be7dee7076ef3720db2209fe10da5584330489f0f5c337930f53b4a8fe1fa791b279eb71d88a802c21deac584badb799e OP_CHECKSIG",
            "desc": "pk(045417858ba41bfd67538d102e85676c8be7dee7076ef3720db2209fe10da5584330489f0f5c337930f53b4a8fe1fa791b279eb71d88a802c21deac584badb799e)#y8ryszec",
            "hex": "41045417858ba41bfd67538d102e85676c8be7dee7076ef3720db2209fe10da5584330489f0f5c337930f53b4a8fe1fa791b279eb71d88a802c21deac584badb799eac",
            "type": "pubkey"
          }
        }
      ],
      "hex": "01000000010000000000000000000000000000000000000000000000000000000000000000ffffffff0804ffff001d02ac04ffffffff0100f2052a010000004341045417858ba41bfd67538d102e85676c8be7dee7076ef3720db2209fe10da5584330489f0f5c337930f53b4a8fe1fa791b279eb71d88a802c21deac584badb799eac00000000"
    }
  ]
}