{
  "hash": "000000002b34c4302b9386cdbd30210ddc5ac5b47b15bb8fa84137aa13e54790",
  "confirmations": 46373,
  "height": 6725,
  "version": 1,
  "versionHex": "00000001",
  "merkleroot": "7b595a650a1a983dc834e2f8d349edd62e3fff78b7996a496967dfe654263979",
  "time": 1236501575,
  "mediantime": 1236498394,
  "nonce": 56060657,
  "bits": "1d00ffff",
  "difficulty": 1,
  "chainwork": "00000000000000000000000000000000000000000000000000001a461a461a46",
  "nTx": 1,
  "previousblockhash": "00000000f228911f74d1f7c5e683f85709218f79ef2ba571a25b7822df371173",
  "nextblockhash": "00000000349ad13e9a2bc3939cc42903df3a3a85eeae4191752a1fa1a1e98b08",
  "strippedsize": 216,
  "size": 216,
  "weight": 864,
  "tx": [
    {
      "txid": "7b595a650a1a983dc834e2f8d349edd62e3fff78b7996a496967dfe654263979",
      "hash": "7b595a650a1a983dc834e2f8d349edd62e3fff78b7996a496967dfe654263979",
      "version": 1,
      "size": 135,
      "vsize": 135,
      "weight": 540,
      "locktime": 0,
      "vin": [
        {
          "coinbase": "04ffff001d029301",
          "sequence": 4294967295
        }
      ],
      "vout": [
        {
          "value": 50.0,
          "n": 0,
          "scriptPubKey": {
            "asm": "0498bdcaa7492990a225289ac0d748a4a416c8dd65ae35592679add9721076ce9adcb2828f12fe1792f62b3cc59eb684334f62f07c90eb1688d411fba1cf8e132f OP_CHECKSIG",
            "desc": "pk(0498bdcaa7492990a225289ac0d748a4a416c8dd65ae35592679add9721076ce9adcb2828f12fe1792f62b3cc59eb684334f62f07c90eb1688d411fba1cf8e132f)#vy64jwq3",
            "hex": "410498bdcaa7492990a225289ac0d748a4a416c8dd65ae35592679add9721076ce9adcb2828f12fe1792f62b3cc59eb684334f62f07c90eb1688d411fba1cf8e132fac",
            "type": "pubkey"
          }
        }
      ],
      "hex": "01000000010000000000000000000000000000000000000000000000000000000000000000ffffffff0804ffff001d029301ffffffff0100f2052a0100000043410498bdcaa7492990a225289ac0d748a4a416c8dd65ae35592679add9721076ce9adcb2828f12fe1792f62b3cc59eb684334f62f07c90eb1688d411fba1cf8e132fac00000000"
    }
  ]
}