{
  "hash": "000000003fb07cd6b88c2d72edacd4c9d168fa06c8c9859cd51a9eb593ff8f97",
  "confirmations": 51348,
  "height": 1750,
  "version": 1,
  "versionHex": "00000001",
  "merkleroot": "46a91454a7b1cc225d227b4afbc8ecb6fe6a4bb59b8867594bc3793edc5b8714",
  "time": 1232874427,
  "mediantime": 1232872523,
  "nonce": 1570312749,
  "bits": "1d00ffff",
  "difficulty": 1,
  "chainwork": "000000000000000000000000000000000000000000000000000006d706d706d7",
  "nTx": 1,
  "previousblockhash": "00000000972a2a2e86dc713a277acadba1620837d2b9855dea844ad81e302a53",
  "nextblockhash": "000000005b5c1859db198e9f51966a1719e53efb00a3ae7f2d5489bb9e9db1df",
  "strippedsize": 216,
  "size": 216,
  "weight": 864,
  "tx": [
    {
      "txid": "46a91454a7b1cc225d227b4afbc8ecb6fe6a4bb59b8867594bc3793edc5b8714",
      "hash": "46a91454a7b1cc225d227b4afbc8ecb6fe6a4bb59b8867594bc3793edc5b8714",
      "version": 1,
      "size": 135,
      "vsize": 135,
      "weight": 540,
      "locktime": 0,
      "vin": [
        {
          "coinbase": "04ffff001d029103",
          "sequence": 4294967295
        }
      ],
      "vout": [
        {
          "value": 50.0,
          "n": 0,
          "scriptPubKey": {
            "asm": "04583656ca1179a094262d8c2ca89c39016e5c8fd8502efd547a1ee9bc92da2a3bca3cd10c9fc57b0bdb92a9745d050d156518124dc38e76e3a74ef45179c4b514 OP_CHECKSIG",
            "desc": "pk(04583656ca1179a094262d8c2ca89c39016e5c8fd8502efd547a1ee9bc92da2a3bca3cd10c9fc57b0bdb92a9745d050d156518124dc38e76e3a74ef45179c4b514)#l2l2m804",
            "hex": "4104583656ca1179a094262d8c2ca89c39016e5c8fd8502efd547a1ee9bc92da2a3bca3cd10c9fc57b0bdb92a9745d050d156518124dc38e76e3a74ef45179c4b514ac",
            "type": "pubkey"
          }
        }
      ],
      "hex": "01000000010000000000000000000000000000000000000000000000000000000000000000ffffffff0804ffff001d029103ffffffff0100f2052a01000000434104583656ca1179a094262d8c2ca89c39016e5c8fd8502efd547a1ee9bc92da2a3bca3cd10c9fc57b0bdb92a9745d050d156518124dc38e76e3a74ef45179c4b514ac00000000"
    }
  ]
}