{
  "hash": "000000006f1a159c96cee945b431aa2bb594017d4cbbc20f29768c5018b7f539",
  "confirmations": 46824,
  "height": 6274,
  "version": 1,
  "versionHex": "00000001",
  "merkleroot": "325d2fc705c5d2012e8e8a510245d8fee8a88d0df5f4369a206ad4844582e2b5",
  "time": 1236151091,
  "mediantime": 1236148684,
  "nonce": 1489406752,
  "bits": "1d00ffff",
  "difficulty": 1,
  "chainwork": "0000000000000000000000000000000000000000000000000000188318831883",
  "nTx": 1,
  "previousblockhash": "000000007dea7650bc2fa9b3da3aca691b286b4227ca4a3cc8d430c988457636",
  "nextblockhash": "000000005cfc10840d76b4a49410b51e38db0ef523bb8b5687e6d86965675d79",
  "strippedsize": 216,
  "size": 216,
  "weight": 864,
  "tx": [
    {
      "txid": "325d2fc705c5d2012e8e8a510245d8fee8a88d0df5f4369a206ad4844582e2b5",
      "hash": "325d2fc705c5d2012e8e8a510245d8fee8a88d0df5f4369a206ad4844582e2b5",
      "version": 1,
      "size": 135,
      "vsize": 135,
      "weight": 540,
      "locktime": 0,
      "vin": [
        {
          "coinbase": "04ffff001d02ef09",
          "sequence": 4294967295
        }
      ],
      "vout": [
        {
          "value": 50.0,
          "n": 0,
          "scriptPubKey": {
            "asm": "04465908200c5f916040d365e97301e5c5d92a8119c0077baa9ecc2a0591e768fba9b557a759725dd0853b5888f9e721abb6a53c27a6fdd4f0bd3750af861a317c OP_CHECKSIG",
            "desc": "pk(04465908200c5f916040d365e97301e5c5d92a8119c0077baa9ecc2a0591e768fba9b557a759725dd0853b5888f9e721abb6a53c27a6fdd4f0bd3750af861a317c)#vjtkhdld",
            "hex": "4104465908200c5f916040d365e97301e5c5d92a8119c0077baa9ecc2a0591e768fba9b557a759725dd0853b5888f9e721abb6a53c27a6fdd4f0bd3750af861a317cac",
            "type": "pubkey"
          }
        }
      ],
      "hex": "01000000010000000000000000000000000000000000000000000000000000000000000000ffffffff0804ffff001d02ef09ffffffff0100f2052a01000000434104465908200c5f916040d365e97301e5c5d92a8119c0077baa9ecc2a0591e768fba9b557a759725dd0853b5888f9e721abb6a53c27a6fdd4f0bd3750af861a317cac00000000"
    }
  ]
}