{
  "hash": "00000000db8062ab6a11d1854fb52903c0264308a9d8ea3ec191417cba5e3cb4",
  "confirmations": 46832,
  "height": 6266,
  "version": 1,
  "versionHex": "00000001",
  "merkleroot": "96aaf97dc0e6faa8004af67760ff3177a51e38659101dc35b384b3cb032647aa",
  "time": 1236146701,
  "mediantime": 1236143068,
  "nonce": 64211222,
  "bits": "1d00ffff",
  "difficulty": 1,
  "chainwork": "0000000000000000000000000000000000000000000000000000187b187b187b",
  "nTx": 1,
  "previousblockhash": "00000000dd9da4f4a2a548c90f3cb923088ad0cfc34a81fd3ff89f53e079ed8a",
  "nextblockhash": "0000000044e68e335d64826442a08e1ffaad79a9be68ca4e8a5d40b8a648bb34",
  "strippedsize": 215,
  "size": 215,
  "weight": 860,
  "tx": [
    {
      "txid": "96aaf97dc0e6faa8004af67760ff3177a51e38659101dc35b384b3cb032647aa",
      "hash": "96aaf97dc0e6faa8004af67760ff3177a51e38659101dc35b384b3cb032647aa",
      "version": 1,
      "size": 134,
      "vsize": 134,
      "weight": 536,
      "locktime": 0,
      "vin": [
        {
          "coinbase": "04ffff001d016e",
          "sequence": 4294967295
        }
      ],
      "vout": [
        {
          "value": 50.0,
          "n": 0,
          "scriptPubKey": {
            "asm": "04eb5d98c6972123707cc3846fe1efd2e61de27693e2f6100f12d04f280f46eef8e10e494663738fd74c5fb0d9d2ef7fa61c3a69df87e10390a7ce2b3a05fc2e70 OP_CHECKSIG",
            "desc": "pk(04eb5d98c6972123707cc3846fe1efd2e61de27693e2f6100f12d04f280f46eef8e10e494663738fd74c5fb0d9d2ef7fa61c3a69df87e10390a7ce2b3a05fc2e70)#t6t4tmrc",
            "hex": "4104eb5d98c6972123707cc3846fe1efd2e61de27693e2f6100f12d04f280f46eef8e10e494663738fd74c5fb0d9d2ef7fa61c3a69df87e10390a7ce2b3a05fc2e70ac",
            "type": "pubkey"
          }
        }
      ],
      "hex": "01000000010000000000000000000000000000000000000000000000000000000000000000ffffffff0704ffff001d016effffffff0100f2052a01000000434104eb5d98c6972123707cc3846fe1efd2e61de27693e2f6100f12d04f280f46eef8e10e494663738fd74c5fb0d9d2ef7fa61c3a69df87e10390a7ce2b3a05fc2e70ac00000000"
    }
  ]
}