{
  "hash": "000000006a906fbef861f23ce8ff5fae146675508fa5ec64817db5c81be04019",
  "confirmations": 52201,
  "height": 420,
  "version": 1,
  "versionHex": "00000001",
  "merkleroot": "8b32326c4ef9354f21658daf69e03deaae5b7c1109f6feb9fcb26b7bb5226851",
  "time": 1231914994,
  "mediantime": 1231912565,
  "nonce": 3506976020,
  "bits": "1d00ffff",
  "difficulty": 1,
  "chainwork": "000000000000000000000000000000000000000000000000000001a501a501a5",
  "nTx": 1,
  "previousblockhash": "0000000022d4d7a47758faf2674bf884b08cb54400d62d1736978895ca20914f",
  "nextblockhash": "00000000ae162df19a3451cefa33bc09a4a91b53e9bf103d57386158b798c71a",
  "strippedsize": 216,
  "size": 216,
  "weight": 864,
  "tx": [
    {
      "txid": "8b32326c4ef9354f21658daf69e03deaae5b7c1109f6feb9fcb26b7bb5226851",
      "hash": "8b32326c4ef9354f21658daf69e03deaae5b7c1109f6feb9fcb26b7bb5226851",
      "version": 1,
      "size": 135,
      "vsize": 135,
      "weight": 540,
      "locktime": 0,
      "vin": [
        {
          "coinbase": "04ffff001d02ed02",
          "sequence": 4294967295
        }
      ],
      "vout": [
        {
          "value": 50.0,
          "n": 0,
          "scriptPubKey": {
            "asm": "04ba026e7085858b28d89e98e057df8843ba523eea479d169a8a70a3ead32c2a9f85d7bc0dfa318739c29c1d2dfea94c531d86653d37fb3c06b598a983d19e63c2 OP_CHECKSIG",
            "desc": "pk(04ba026e7085858b28d89e98e057df8843ba523eea479d169a8a70a3ead32c2a9f85d7bc0dfa318739c29c1d2dfea94c531d86653d37fb3c06b598a983d19e63c2)#8q23ufxc",
            "hex": "4104ba026e7085858b28d89e98e057df8843ba523eea479d169a8a70a3ead32c2a9f85d7bc0dfa318739c29c1d2dfea94c531d86653d37fb3c06b598a983d19e63c2ac",
            "type": "pubkey"
          }
        }
      ],
      "hex": "01000000010000000000000000000000000000000000000000000000000000000000000000ffffffff0804ffff001d02ed02ffffffff0100f2052a01000000434104ba026e7085858b28d89e98e057df8843ba523eea479d169a8a70a3ead32c2a9f85d7bc0dfa318739c29c1d2dfea94c531d86653d37fb3c06b598a983d19e63c2ac00000000"
    }
  ]
}