{
  "hash": "000000007057e192efb33875b01831db62cfb6c91d50a23c9bd30e79457b6cb5",
  "confirmations": 48491,
  "height": 4607,
  "version": 1,
  "versionHex": "00000001",
  "merkleroot": "3b1ab41863258d9f7144e5948204484c48292bd442748596e3e3f4ef5e234686",
  "time": 1234859034,
  "mediantime": 1234855562,
  "nonce": 31108926,
  "bits": "1d00ffff",
  "difficulty": 1,
  "chainwork": "0000000000000000000000000000000000000000000000000000120012001200",
  "nTx": 1,
  "previousblockhash": "00000000c209c0f989f82d580206842faf60259f186b10351d5d46372f5c5e6a",
  "nextblockhash": "00000000d7cd0cc429d2ef6cd858000c5dd822bffc2fb174ae53e47cc27cfa9e",
  "strippedsize": 216,
  "size": 216,
  "weight": 864,
  "tx": [
    {
      "txid": "3b1ab41863258d9f7144e5948204484c48292bd442748596e3e3f4ef5e234686",
      "hash": "3b1ab41863258d9f7144e5948204484c48292bd442748596e3e3f4ef5e234686",
      "version": 1,
      "size": 135,
      "vsize": 135,
      "weight": 540,
      "locktime": 0,
      "vin": [
        {
          "coinbase": "04ffff001d02970a",
          "sequence": 4294967295
        }
      ],
      "vout": [
        {
          "value": 50.0,
          "n": 0,
          "scriptPubKey": {
            "asm": "042b0f123228ca423887999c1b75c987f7a9b0939c6014f5011d6a6f2d500bdbe67bc7c957b25183d9bd2e405f33daa9b54ab53c39290d44c66eee0dd6f1ed89b6 OP_CHECKSIG",
            "desc": "pk(042b0f123228ca423887999c1b75c987f7a9b0939c6014f5011d6a6f2d500bdbe67bc7c957b25183d9bd2e405f33daa9b54ab53c39290d44c66eee0dd6f1ed89b6)#k3lpamd5",
            "hex": "41042b0f123228ca423887999c1b75c987f7a9b0939c6014f5011d6a6f2d500bdbe67bc7c957b25183d9bd2e405f33daa9b54ab53c39290d44c66eee0dd6f1ed89b6ac",
            "type": "pubkey"
          }
        }
      ],
      "hex": "01000000010000000000000000000000000000000000000000000000000000000000000000ffffffff0804ffff001d02970affffffff0100f2052a010000004341042b0f123228ca423887999c1b75c987f7a9b0939c6014f5011d6a6f2d500bdbe67bc7c957b25183d9bd2e405f33daa9b54ab53c39290d44c66eee0dd6f1ed89b6ac00000000"
    }
  ]
}