{
  "hash": "000000002508648db286c32d79c75430d76b6f76b0081c48fdbad7b5ad3b0e4f",
  "confirmations": 43305,
  "height": 9793,
  "version": 1,
  "versionHex": "00000001",
  "merkleroot": "e7df3eb5d28e59c0f97e26d703a80bf0b5b3609157647d1d3380c3e52c9f9a01",
  "time": 1238852104,
  "mediantime": 1238848944,
  "nonce": 3006726191,
  "bits": "1d00ffff",
  "difficulty": 1,
  "chainwork": "0000000000000000000000000000000000000000000000000000264226422642",
  "nTx": 1,
  "previousblockhash": "00000000d27dede5849312f2af73d469d5477095abfd74ad508ccb5d44745903",
  "nextblockhash": "000000007b93b95654ad03260436f9b27c308df11093af38c73d2693637026a1",
  "strippedsize": 215,
  "size": 215,
  "weight": 860,
  "tx": [
    {
      "txid": "e7df3eb5d28e59c0f97e26d703a80bf0b5b3609157647d1d3380c3e52c9f9a01",
      "hash": "e7df3eb5d28e59c0f97e26d703a80bf0b5b3609157647d1d3380c3e52c9f9a01",
      "version": 1,
      "size": 134,
      "vsize": 134,
      "weight": 536,
      "locktime": 0,
      "vin": [
        {
          "coinbase": "04ffff001d0132",
          "sequence": 4294967295
        }
      ],
      "vout": [
        {
          "value": 50.0,
          "n": 0,
          "scriptPubKey": {
            "asm": "04703b3c16f6ef3c524b98ae24e2f1e4391e0994ca607ea82e8119316fedf4d9266a5116fff154c902ef548085c61c03d2af39c14db2c144ae97e3864ba1da8d7b OP_CHECKSIG",
            "desc": "pk(04703b3c16f6ef3c524b98ae24e2f1e4391e0994ca607ea82e8119316fedf4d9266a5116fff154c902ef548085c61c03d2af39c14db2c144ae97e3864ba1da8d7b)#g6dj3dzf",
            "hex": "4104703b3c16f6ef3c524b98ae24e2f1e4391e0994ca607ea82e8119316fedf4d9266a5116fff154c902ef548085c61c03d2af39c14db2c144ae97e3864ba1da8d7bac",
            "type": "pubkey"
          }
        }
      ],
      "hex": "01000000010000000000000000000000000000000000000000000000000000000000000000ffffffff0704ffff001d0132ffffffff0100f2052a01000000434104703b3c16f6ef3c524b98ae24e2f1e4391e0994ca607ea82e8119316fedf4d9266a5116fff154c902ef548085c61c03d2af39c14db2c144ae97e3864ba1da8d7bac00000000"
    }
  ]
}