{
  "hash": "00000000a100c2683a24dce9baa57ea903133e25915b91f8b92fa69c0d24cef6",
  "confirmations": 44612,
  "height": 8486,
  "version": 1,
  "versionHex": "00000001",
  "merkleroot": "e53f11f30960a0fc2973e5e1cb32aabf25497714a04b946359b78abdbea6a528",
  "time": 1237860139,
  "mediantime": 1237854780,
  "nonce": 929123624,
  "bits": "1d00ffff",
  "difficulty": 1,
  "chainwork": "0000000000000000000000000000000000000000000000000000212721272127",
  "nTx": 1,
  "previousblockhash": "00000000872ef69168d41555abc68bfe1995e349bf2521093f9babaf95a1fbf7",
  "nextblockhash": "000000009b1f8113a6b692738f264a8c2b2615bfc1c68062828d13e3cec82e04",
  "strippedsize": 216,
  "size": 216,
  "weight": 864,
  "tx": [
    {
      "txid": "e53f11f30960a0fc2973e5e1cb32aabf25497714a04b946359b78abdbea6a528",
      "hash": "e53f11f30960a0fc2973e5e1cb32aabf25497714a04b946359b78abdbea6a528",
      "version": 1,
      "size": 135,
      "vsize": 135,
      "weight": 540,
      "locktime": 0,
      "vin": [
        {
          "coinbase": "04ffff001d027507",
          "sequence": 4294967295
        }
      ],
      "vout": [
        {
          "value": 50.0,
          "n": 0,
          "scriptPubKey": {
            "asm": "046ef1887c75615e472b2a979019755ac55c4d02b84be8ed2481490baceddfd4f7fa03ec8b96618a812c4c714daf102a90d8190f00da68e1fa189757593f070ffb OP_CHECKSIG",
            "desc": "pk(046ef1887c75615e472b2a979019755ac55c4d02b84be8ed2481490baceddfd4f7fa03ec8b96618a812c4c714daf102a90d8190f00da68e1fa189757593f070ffb)#kurej9v9",
            "hex": "41046ef1887c75615e472b2a979019755ac55c4d02b84be8ed2481490baceddfd4f7fa03ec8b96618a812c4c714daf102a90d8190f00da68e1fa189757593f070ffbac",
            "type": "pubkey"
          }
        }
      ],
      "hex": "01000000010000000000000000000000000000000000000000000000000000000000000000ffffffff0804ffff001d027507ffffffff0100f2052a010000004341046ef1887c75615e472b2a979019755ac55c4d02b84be8ed2481490baceddfd4f7fa03ec8b96618a812c4c714daf102a90d8190f00da68e1fa189757593f070ffbac00000000"
    }
  ]
}