{
  "hash": "00000000fb11ef25014e02b315285a22f80c8f97689d7e36d723317defaabe5b",
  "confirmations": 51982,
  "height": 104,
  "version": 1,
  "versionHex": "00000001",
  "merkleroot": "240074c357b073a794d4dddb19cfb656f2899a89cc2988ab78668efe46d6b74b",
  "time": 1231664009,
  "mediantime": 1231660146,
  "nonce": 522348055,
  "bits": "1d00ffff",
  "difficulty": 1,
  "chainwork": "0000000000000000000000000000000000000000000000000000006900690069",
  "nTx": 1,
  "previousblockhash": "000000002109057cb846ff7d1d96bc77f9f65cb547938efe1961760a8bbb3f75",
  "nextblockhash": "00000000854d5c01c377e7ff131dbd4b3af44949c6f3126fb66eab4a3fc6b1ae",
  "strippedsize": 215,
  "size": 215,
  "weight": 860,
  "tx": [
    {
      "txid": "240074c357b073a794d4dddb19cfb656f2899a89cc2988ab78668efe46d6b74b",
      "hash": "240074c357b073a794d4dddb19cfb656f2899a89cc2988ab78668efe46d6b74b",
      "version": 1,
      "size": 134,
      "vsize": 134,
      "weight": 536,
      "locktime": 0,
      "vin": [
        {
          "coinbase": "04ffff001d016f",
          "sequence": 4294967295
        }
      ],
      "vout": [
        {
          "value": 50.0,
          "n": 0,
          "scriptPubKey": {
            "asm": "04cca405a78f6b83ca6e59c441df093c337a70d70015f428595be8b4670d5ba62093e33195b1cf9c220005fc90320c3309cbbc34c2e6da5558bd87b1f5f7c4400b OP_CHECKSIG",
            "desc": "pk(04cca405a78f6b83ca6e59c441df093c337a70d70015f428595be8b4670d5ba62093e33195b1cf9c220005fc90320c3309cbbc34c2e6da5558bd87b1f5f7c4400b)#g4m3crdv",
            "hex": "4104cca405a78f6b83ca6e59c441df093c337a70d70015f428595be8b4670d5ba62093e33195b1cf9c220005fc90320c3309cbbc34c2e6da5558bd87b1f5f7c4400bac",
            "type": "pubkey"
          }
        }
      ],
      "hex": "01000000010000000000000000000000000000000000000000000000000000000000000000ffffffff0704ffff001d016fffffffff0100f2052a01000000434104cca405a78f6b83ca6e59c441df093c337a70d70015f428595be8b4670d5ba62093e33195b1cf9c220005fc90320c3309cbbc34c2e6da5558bd87b1f5f7c4400bac00000000"
    }
  ]
}