{
  "hash": "00000000a6a591abb20891a698480583a76b4313eb5d6f6dcda282755aecbf36",
  "confirmations": 47906,
  "height": 5192,
  "version": 1,
  "versionHex": "00000001",
  "merkleroot": "d6ef7a2189d9f1e72f433f8f2a75a6926b9a033dcfc355d8e7567da513347413",
  "time": 1235280829,
  "mediantime": 1235277775,
  "nonce": 2397162757,
  "bits": "1d00ffff",
  "difficulty": 1,
  "chainwork": "0000000000000000000000000000000000000000000000000000144914491449",
  "nTx": 1,
  "previousblockhash": "00000000706322bbe5698eb5833f6a9ecc1f77154e5cb4efcb87b696cbb4ef89",
  "nextblockhash": "000000000b2b5c4032c9c9b96e7048ccfb1673ba6f445ac76bad8f6ba1b62fc6",
  "strippedsize": 215,
  "size": 215,
  "weight": 860,
  "tx": [
    {
      "txid": "d6ef7a2189d9f1e72f433f8f2a75a6926b9a033dcfc355d8e7567da513347413",
      "hash": "d6ef7a2189d9f1e72f433f8f2a75a6926b9a033dcfc355d8e7567da513347413",
      "version": 1,
      "size": 134,
      "vsize": 134,
      "weight": 536,
      "locktime": 0,
      "vin": [
        {
          "coinbase": "04ffff001d0164",
          "sequence": 4294967295
        }
      ],
      "vout": [
        {
          "value": 50.0,
          "n": 0,
          "scriptPubKey": {
            "asm": "0483d492f3e65f2c3b96e277afafdc965ef51751eb55d405540788fbc083fd3a453b485de118db21b01160d179736d67bc18bc846c586c8cae18c49734253fa188 OP_CHECKSIG",
            "desc": "pk(0483d492f3e65f2c3b96e277afafdc965ef51751eb55d405540788fbc083fd3a453b485de118db21b01160d179736d67bc18bc846c586c8cae18c49734253fa188)#5hzegqja",
            "hex": "410483d492f3e65f2c3b96e277afafdc965ef51751eb55d405540788fbc083fd3a453b485de118db21b01160d179736d67bc18bc846c586c8cae18c49734253fa188ac",
            "type": "pubkey"
          }
        }
      ],
      "hex": "01000000010000000000000000000000000000000000000000000000000000000000000000ffffffff0704ffff001d0164ffffffff0100f2052a0100000043410483d492f3e65f2c3b96e277afafdc965ef51751eb55d405540788fbc083fd3a453b485de118db21b01160d179736d67bc18bc846c586c8cae18c49734253fa188ac00000000"
    }
  ]
}