{
  "hash": "00000000e90092af9098f9b26543d36431cd10799b6ef669e938b28b9ef83da6",
  "confirmations": 51172,
  "height": 1926,
  "version": 1,
  "versionHex": "00000001",
  "merkleroot": "f7926bbb38f113196969a34ba16a734fc71e3d8f452ba5d9642739b4a710254d",
  "time": 1232986974,
  "mediantime": 1232982699,
  "nonce": 2279090693,
  "bits": "1d00ffff",
  "difficulty": 1,
  "chainwork": "0000000000000000000000000000000000000000000000000000078707870787",
  "nTx": 1,
  "previousblockhash": "000000004c2a22b369556e823dfe3c54e57f21044af3ddc00949d5b7268a33fa",
  "nextblockhash": "00000000b51829036629cdaf3ebf7186478366a8f51120e267e7e66dfa75f0e6",
  "strippedsize": 215,
  "size": 215,
  "weight": 860,
  "tx": [
    {
      "txid": "f7926bbb38f113196969a34ba16a734fc71e3d8f452ba5d9642739b4a710254d",
      "hash": "f7926bbb38f113196969a34ba16a734fc71e3d8f452ba5d9642739b4a710254d",
      "version": 1,
      "size": 134,
      "vsize": 134,
      "weight": 536,
      "locktime": 0,
      "vin": [
        {
          "coinbase": "04ffff001d0126",
          "sequence": 4294967295
        }
      ],
      "vout": [
        {
          "value": 50.0,
          "n": 0,
          "scriptPubKey": {
            "asm": "0419dab2b581959bf3348132217ec3fe84538b876b8df1d0097bd43c5f639ef4f067103ee1ac47c28e7548eedda23c308a46863194fd721111072409e6a7964552 OP_CHECKSIG",
            "desc": "pk(0419dab2b581959bf3348132217ec3fe84538b876b8df1d0097bd43c5f639ef4f067103ee1ac47c28e7548eedda23c308a46863194fd721111072409e6a7964552)#tan4mypr",
            "hex": "410419dab2b581959bf3348132217ec3fe84538b876b8df1d0097bd43c5f639ef4f067103ee1ac47c28e7548eedda23c308a46863194fd721111072409e6a7964552ac",
            "type": "pubkey"
          }
        }
      ],
      "hex": "01000000010000000000000000000000000000000000000000000000000000000000000000ffffffff0704ffff001d0126ffffffff0100f2052a0100000043410419dab2b581959bf3348132217ec3fe84538b876b8df1d0097bd43c5f639ef4f067103ee1ac47c28e7548eedda23c308a46863194fd721111072409e6a7964552ac00000000"
    }
  ]
}