{
  "hash": "000000000e6c383151952272004fa669ed3387b5fe8694d6032198b62d849d31",
  "confirmations": 45437,
  "height": 7661,
  "version": 1,
  "versionHex": "00000001",
  "merkleroot": "5a20d4b6bad2deb254b99d17564c901443ec092ed9e49b6e412f5f375988d753",
  "time": 1237210787,
  "mediantime": 1237206664,
  "nonce": 3851924996,
  "bits": "1d00ffff",
  "difficulty": 1,
  "chainwork": "00000000000000000000000000000000000000000000000000001dee1dee1dee",
  "nTx": 1,
  "previousblockhash": "000000000e36a73d4f89659f60fb02e7d3785653cb561ec10dcf37c0a21f28a3",
  "nextblockhash": "00000000ad9541c4e7e642c4ff2208bf2bf44aba0166b17763e1b438afe61ed6",
  "strippedsize": 216,
  "size": 216,
  "weight": 864,
  "tx": [
    {
      "txid": "5a20d4b6bad2deb254b99d17564c901443ec092ed9e49b6e412f5f375988d753",
      "hash": "5a20d4b6bad2deb254b99d17564c901443ec092ed9e49b6e412f5f375988d753",
      "version": 1,
      "size": 135,
      "vsize": 135,
      "weight": 540,
      "locktime": 0,
      "vin": [
        {
          "coinbase": "04ffff001d027e03",
          "sequence": 4294967295
        }
      ],
      "vout": [
        {
          "value": 50.0,
          "n": 0,
          "scriptPubKey": {
            "asm": "0421034b1abf859de8f32c2fad7c8332d58dd70d0366c1de0e58191860501b9f71149daa707b5a27aee4a17ae07561221e9c5052dba98e1749c45b05a42537177c OP_CHECKSIG",
            "desc": "pk(0421034b1abf859de8f32c2fad7c8332d58dd70d0366c1de0e58191860501b9f71149daa707b5a27aee4a17ae07561221e9c5052dba98e1749c45b05a42537177c)#hgx4mpwj",
            "hex": "410421034b1abf859de8f32c2fad7c8332d58dd70d0366c1de0e58191860501b9f71149daa707b5a27aee4a17ae07561221e9c5052dba98e1749c45b05a42537177cac",
            "type": "pubkey"
          }
        }
      ],
      "hex": "01000000010000000000000000000000000000000000000000000000000000000000000000ffffffff0804ffff001d027e03ffffffff0100f2052a0100000043410421034b1abf859de8f32c2fad7c8332d58dd70d0366c1de0e58191860501b9f71149daa707b5a27aee4a17ae07561221e9c5052dba98e1749c45b05a42537177cac00000000"
    }
  ]
}