{
  "hash": "000000006f571a21a59130d0f6f22a5d6d49f145a84b09677812e364410bae0b",
  "confirmations": 45871,
  "height": 7227,
  "version": 1,
  "versionHex": "00000001",
  "merkleroot": "d7aea5b6422ebb1cb7a44a89020513c38382eae144516d56f6ed597eb470aae2",
  "time": 1236890477,
  "mediantime": 1236887337,
  "nonce": 7146403,
  "bits": "1d00ffff",
  "difficulty": 1,
  "chainwork": "00000000000000000000000000000000000000000000000000001c3c1c3c1c3c",
  "nTx": 1,
  "previousblockhash": "0000000094bb5fbd86492b3259b328ed1e5d497c272159c3c84e2637b968e6bb",
  "nextblockhash": "0000000034919ca31173f4f19fd71f9d9b46d9f0d3a2231bc6ce83aa569b1390",
  "strippedsize": 215,
  "size": 215,
  "weight": 860,
  "tx": [
    {
      "txid": "d7aea5b6422ebb1cb7a44a89020513c38382eae144516d56f6ed597eb470aae2",
      "hash": "d7aea5b6422ebb1cb7a44a89020513c38382eae144516d56f6ed597eb470aae2",
      "version": 1,
      "size": 134,
      "vsize": 134,
      "weight": 536,
      "locktime": 0,
      "vin": [
        {
          "coinbase": "04ffff001d013f",
          "sequence": 4294967295
        }
      ],
      "vout": [
        {
          "value": 50.0,
          "n": 0,
          "scriptPubKey": {
            "asm": "044e525c05e6e9e5ccf6e5dd2a28e46792f424c53fd6b291a2fd5eba9337db65c9c18aa1b7ce966ffad04d4a8886cce2779d0cd200c6e3492e985537a16abb7087 OP_CHECKSIG",
            "desc": "pk(044e525c05e6e9e5ccf6e5dd2a28e46792f424c53fd6b291a2fd5eba9337db65c9c18aa1b7ce966ffad04d4a8886cce2779d0cd200c6e3492e985537a16abb7087)#j52zyutx",
            "hex": "41044e525c05e6e9e5ccf6e5dd2a28e46792f424c53fd6b291a2fd5eba9337db65c9c18aa1b7ce966ffad04d4a8886cce2779d0cd200c6e3492e985537a16abb7087ac",
            "type": "pubkey"
          }
        }
      ],
      "hex": "01000000010000000000000000000000000000000000000000000000000000000000000000ffffffff0704ffff001d013fffffffff0100f2052a010000004341044e525c05e6e9e5ccf6e5dd2a28e46792f424c53fd6b291a2fd5eba9337db65c9c18aa1b7ce966ffad04d4a8886cce2779d0cd200c6e3492e985537a16abb7087ac00000000"
    }
  ]
}