{
  "hash": "00000000b57cc4526ae7344fc61c79d936ea4cdc9a69f5800f9ec1a7c5c9a454",
  "confirmations": 44480,
  "height": 8618,
  "version": 1,
  "versionHex": "00000001",
  "merkleroot": "5a8b1865b192f9b016266103493269aa593fd47e28c80ffaaa8f52c5856e9f84",
  "time": 1237961822,
  "mediantime": 1237958956,
  "nonce": 2155993386,
  "bits": "1d00ffff",
  "difficulty": 1,
  "chainwork": "000000000000000000000000000000000000000000000000000021ab21ab21ab",
  "nTx": 1,
  "previousblockhash": "0000000056715ad182f92728ad911ac9e5e7a2d5490b57d6a5b2001d049ee1ff",
  "nextblockhash": "00000000c19d44a43443f81bcf4cf215168c63a28e47383f718fc12a305f36c2",
  "strippedsize": 216,
  "size": 216,
  "weight": 864,
  "tx": [
    {
      "txid": "5a8b1865b192f9b016266103493269aa593fd47e28c80ffaaa8f52c5856e9f84",
      "hash": "5a8b1865b192f9b016266103493269aa593fd47e28c80ffaaa8f52c5856e9f84",
      "version": 1,
      "size": 135,
      "vsize": 135,
      "weight": 540,
      "locktime": 0,
      "vin": [
        {
          "coinbase": "04ffff001d02c209",
          "sequence": 4294967295
        }
      ],
      "vout": [
        {
          "value": 50.0,
          "n": 0,
          "scriptPubKey": {
            "asm": "04afe13d9f733f2ece3925607a39fb74972fa05aeaf25bcdfa7235b32fc6459d8794782555b1b7d13ca6b89b0b0e852883e6172b69fdaca21234e3d0456382b4ba OP_CHECKSIG",
            "desc": "pk(04afe13d9f733f2ece3925607a39fb74972fa05aeaf25bcdfa7235b32fc6459d8794782555b1b7d13ca6b89b0b0e852883e6172b69fdaca21234e3d0456382b4ba)#k7wcpq8g",
            "hex": "4104afe13d9f733f2ece3925607a39fb74972fa05aeaf25bcdfa7235b32fc6459d8794782555b1b7d13ca6b89b0b0e852883e6172b69fdaca21234e3d0456382b4baac",
            "type": "pubkey"
          }
        }
      ],
      "hex": "01000000010000000000000000000000000000000000000000000000000000000000000000ffffffff0804ffff001d02c209ffffffff0100f2052a01000000434104afe13d9f733f2ece3925607a39fb74972fa05aeaf25bcdfa7235b32fc6459d8794782555b1b7d13ca6b89b0b0e852883e6172b69fdaca21234e3d0456382b4baac00000000"
    }
  ]
}