{
  "hash": "00000000ae8862260d6cafec2a633af5fab7bf73487ae8ed07e4751ef772ecd6",
  "confirmations": 45828,
  "height": 7270,
  "version": 1,
  "versionHex": "00000001",
  "merkleroot": "91c052c840611129441394d26cd46e1534588410c8e713fee82194f0fc888a35",
  "time": 1236923895,
  "mediantime": 1236920555,
  "nonce": 3466282529,
  "bits": "1d00ffff",
  "difficulty": 1,
  "chainwork": "00000000000000000000000000000000000000000000000000001c671c671c67",
  "nTx": 1,
  "previousblockhash": "00000000fb4306016140d54443a226596e9998c3fd3260f13adf24a4f8555617",
  "nextblockhash": "00000000939868fbee66bac335b18ee928f431d0751b9ab37a2fbb4a2ce13fba",
  "strippedsize": 216,
  "size": 216,
  "weight": 864,
  "tx": [
    {
      "txid": "91c052c840611129441394d26cd46e1534588410c8e713fee82194f0fc888a35",
      "hash": "91c052c840611129441394d26cd46e1534588410c8e713fee82194f0fc888a35",
      "version": 1,
      "size": 135,
      "vsize": 135,
      "weight": 540,
      "locktime": 0,
      "vin": [
        {
          "coinbase": "04ffff001d02da06",
          "sequence": 4294967295
        }
      ],
      "vout": [
        {
          "value": 50.0,
          "n": 0,
          "scriptPubKey": {
            "asm": "045a98ff34c65686f34f4bde1abd9e8a2920880fc8fc94d07312b1adf79651ff27e3b6ffdb0ee1d74a958ad36ba908ec1d50e62d2880c4f550b7453c9b55c17adc OP_CHECKSIG",
            "desc": "pk(045a98ff34c65686f34f4bde1abd9e8a2920880fc8fc94d07312b1adf79651ff27e3b6ffdb0ee1d74a958ad36ba908ec1d50e62d2880c4f550b7453c9b55c17adc)#mcqj3tn4",
            "hex": "41045a98ff34c65686f34f4bde1abd9e8a2920880fc8fc94d07312b1adf79651ff27e3b6ffdb0ee1d74a958ad36ba908ec1d50e62d2880c4f550b7453c9b55c17adcac",
            "type": "pubkey"
          }
        }
      ],
      "hex": "01000000010000000000000000000000000000000000000000000000000000000000000000ffffffff0804ffff001d02da06ffffffff0100f2052a010000004341045a98ff34c65686f34f4bde1abd9e8a2920880fc8fc94d07312b1adf79651ff27e3b6ffdb0ee1d74a958ad36ba908ec1d50e62d2880c4f550b7453c9b55c17adcac00000000"
    }
  ]
}