{
  "hash": "00000000a4342e04aa766386cdb4da70137efd47ac271f1a4e18429af3020a7c",
  "confirmations": 50198,
  "height": 2900,
  "version": 1,
  "versionHex": "00000001",
  "merkleroot": "09c618a3949b598e9b7a19e11c88cd9687ff567f7b7b2adde1715c40f89be0ad",
  "time": 1233693317,
  "mediantime": 1233689051,
  "nonce": 4220954907,
  "bits": "1d00ffff",
  "difficulty": 1,
  "chainwork": "00000000000000000000000000000000000000000000000000000b550b550b55",
  "nTx": 1,
  "previousblockhash": "00000000a210741369a4ce79cb9a318bc15e02acc3b16ea9657492bb0d3e3fd2",
  "nextblockhash": "00000000f903ce68d137addc7b21a4a8951ccf768e1fb0aa870311788f8fa22c",
  "strippedsize": 216,
  "size": 216,
  "weight": 864,
  "tx": [
    {
      "txid": "09c618a3949b598e9b7a19e11c88cd9687ff567f7b7b2adde1715c40f89be0ad",
      "hash": "09c618a3949b598e9b7a19e11c88cd9687ff567f7b7b2adde1715c40f89be0ad",
      "version": 1,
      "size": 135,
      "vsize": 135,
      "weight": 540,
      "locktime": 0,
      "vin": [
        {
          "coinbase": "04ffff001d025b07",
          "sequence": 4294967295
        }
      ],
      "vout": [
        {
          "value": 50.0,
          "n": 0,
          "scriptPubKey": {
            "asm": "0421626adf831ab7545705e9567ec95b62a949ac81c236314be6f98ea7ddaa1b751a9167a0a72246a63321ab4f76862037bada57d6bdfe92c81485eac5ee752116 OP_CHECKSIG",
            "desc": "pk(0421626adf831ab7545705e9567ec95b62a949ac81c236314be6f98ea7ddaa1b751a9167a0a72246a63321ab4f76862037bada57d6bdfe92c81485eac5ee752116)#xqjqd22a",
            "hex": "410421626adf831ab7545705e9567ec95b62a949ac81c236314be6f98ea7ddaa1b751a9167a0a72246a63321ab4f76862037bada57d6bdfe92c81485eac5ee752116ac",
            "type": "pubkey"
          }
        }
      ],
      "hex": "01000000010000000000000000000000000000000000000000000000000000000000000000ffffffff0804ffff001d025b07ffffffff0100f2052a0100000043410421626adf831ab7545705e9567ec95b62a949ac81c236314be6f98ea7ddaa1b751a9167a0a72246a63321ab4f76862037bada57d6bdfe92c81485eac5ee752116ac00000000"
    }
  ]
}