{
  "hash": "00000000c5165bbf9f089926208a58360b522e7a8112c6ddc55b7724bfbe24ad",
  "confirmations": 48507,
  "height": 4591,
  "version": 1,
  "versionHex": "00000001",
  "merkleroot": "58d7eb0706c0232b093f6b894b8da3c81bd74061a505840840cac660eb236281",
  "time": 1234848416,
  "mediantime": 1234845832,
  "nonce": 1987803680,
  "bits": "1d00ffff",
  "difficulty": 1,
  "chainwork": "000000000000000000000000000000000000000000000000000011f011f011f0",
  "nTx": 1,
  "previousblockhash": "000000008a09a5705e67ced1af6b82b14f020f9ea0a1d8c6b62374c4441ebbc6",
  "nextblockhash": "00000000655c8eefa900ec33513584288c52ce62a0bcf6d9015af97564d24589",
  "strippedsize": 216,
  "size": 216,
  "weight": 864,
  "tx": [
    {
      "txid": "58d7eb0706c0232b093f6b894b8da3c81bd74061a505840840cac660eb236281",
      "hash": "58d7eb0706c0232b093f6b894b8da3c81bd74061a505840840cac660eb236281",
      "version": 1,
      "size": 135,
      "vsize": 135,
      "weight": 540,
      "locktime": 0,
      "vin": [
        {
          "coinbase": "04ffff001d02c700",
          "sequence": 4294967295
        }
      ],
      "vout": [
        {
          "value": 50.0,
          "n": 0,
          "scriptPubKey": {
            "asm": "0460860b6af1c3bd3ec44a56f89831dec635a703e116eac9f89d10e5cca92853bd5ada7de60ea5a4b725b03403842522f5211036ca90010d043ebce248e21f725d OP_CHECKSIG",
            "desc": "pk(0460860b6af1c3bd3ec44a56f89831dec635a703e116eac9f89d10e5cca92853bd5ada7de60ea5a4b725b03403842522f5211036ca90010d043ebce248e21f725d)#gpxdm72y",
            "hex": "410460860b6af1c3bd3ec44a56f89831dec635a703e116eac9f89d10e5cca92853bd5ada7de60ea5a4b725b03403842522f5211036ca90010d043ebce248e21f725dac",
            "type": "pubkey"
          }
        }
      ],
      "hex": "01000000010000000000000000000000000000000000000000000000000000000000000000ffffffff0804ffff001d02c700ffffffff0100f2052a0100000043410460860b6af1c3bd3ec44a56f89831dec635a703e116eac9f89d10e5cca92853bd5ada7de60ea5a4b725b03403842522f5211036ca90010d043ebce248e21f725dac00000000"
    }
  ]
}