{
  "hash": "00000000e7c9fde0d160a3672029ad6a96c3098b3b95aa906d0dad9265f5aeb6",
  "confirmations": 43367,
  "height": 9731,
  "version": 1,
  "versionHex": "00000001",
  "merkleroot": "0e52079245af5405761b2e67bdee68044a1676046c5b9ec34644370ecb66c8fa",
  "time": 1238800299,
  "mediantime": 1238798321,
  "nonce": 11288152,
  "bits": "1d00ffff",
  "difficulty": 1,
  "chainwork": "0000000000000000000000000000000000000000000000000000260426042604",
  "nTx": 1,
  "previousblockhash": "000000007838923a6208aa50e3a758d28faeddd2d710d0c2056656eb02422345",
  "nextblockhash": "00000000c0843851d5a1a7e720f663af738f71d5f981861d934f2bca3cedd02b",
  "strippedsize": 216,
  "size": 216,
  "weight": 864,
  "tx": [
    {
      "txid": "0e52079245af5405761b2e67bdee68044a1676046c5b9ec34644370ecb66c8fa",
      "hash": "0e52079245af5405761b2e67bdee68044a1676046c5b9ec34644370ecb66c8fa",
      "version": 1,
      "size": 135,
      "vsize": 135,
      "weight": 540,
      "locktime": 0,
      "vin": [
        {
          "coinbase": "04ffff001d025101",
          "sequence": 4294967295
        }
      ],
      "vout": [
        {
          "value": 50.0,
          "n": 0,
          "scriptPubKey": {
            "asm": "0420fd1426dcec456bdbe118f45c3538407313a0706fe0f1e921594711cc7574473bb45266f6aa864a9f734eaa6b936aa478868f4668fee06699f65089ff4fd9df OP_CHECKSIG",
            "desc": "pk(0420fd1426dcec456bdbe118f45c3538407313a0706fe0f1e921594711cc7574473bb45266f6aa864a9f734eaa6b936aa478868f4668fee06699f65089ff4fd9df)#sawa7umg",
            "hex": "410420fd1426dcec456bdbe118f45c3538407313a0706fe0f1e921594711cc7574473bb45266f6aa864a9f734eaa6b936aa478868f4668fee06699f65089ff4fd9dfac",
            "type": "pubkey"
          }
        }
      ],
      "hex": "01000000010000000000000000000000000000000000000000000000000000000000000000ffffffff0804ffff001d025101ffffffff0100f2052a0100000043410420fd1426dcec456bdbe118f45c3538407313a0706fe0f1e921594711cc7574473bb45266f6aa864a9f734eaa6b936aa478868f4668fee06699f65089ff4fd9dfac00000000"
    }
  ]
}