{
  "hash": "000000002984ca7139a46c028209dc8c361422c9d1e08e83913b7863db3775e3",
  "confirmations": 46362,
  "height": 6736,
  "version": 1,
  "versionHex": "00000001",
  "merkleroot": "e7db1d3c0be999ba4e726c5b2a8fc03a21dff498ce1d671364b706da00004e92",
  "time": 1236508540,
  "mediantime": 1236505032,
  "nonce": 1795800090,
  "bits": "1d00ffff",
  "difficulty": 1,
  "chainwork": "00000000000000000000000000000000000000000000000000001a511a511a51",
  "nTx": 1,
  "previousblockhash": "00000000956edbf0b401da41c2bd35d0e45e50bb07658d35a77600829032cc9f",
  "nextblockhash": "000000009752ad49ba70f50e5fb03df6b0fd89c4fa7aed73f8a4470a7a20ab1b",
  "strippedsize": 216,
  "size": 216,
  "weight": 864,
  "tx": [
    {
      "txid": "e7db1d3c0be999ba4e726c5b2a8fc03a21dff498ce1d671364b706da00004e92",
      "hash": "e7db1d3c0be999ba4e726c5b2a8fc03a21dff498ce1d671364b706da00004e92",
      "version": 1,
      "size": 135,
      "vsize": 135,
      "weight": 540,
      "locktime": 0,
      "vin": [
        {
          "coinbase": "04ffff001d02c407",
          "sequence": 4294967295
        }
      ],
      "vout": [
        {
          "value": 50.0,
          "n": 0,
          "scriptPubKey": {
            "asm": "044fac0635994397e52bc315c707c01487c9840f2e9fe293b3c22b967db5d44e2718aa367a5586ac7d0be58270350f8472bb9c0ee2f6bfa3094ec8ec63bddcc694 OP_CHECKSIG",
            "desc": "pk(044fac0635994397e52bc315c707c01487c9840f2e9fe293b3c22b967db5d44e2718aa367a5586ac7d0be58270350f8472bb9c0ee2f6bfa3094ec8ec63bddcc694)#er88l5sr",
            "hex": "41044fac0635994397e52bc315c707c01487c9840f2e9fe293b3c22b967db5d44e2718aa367a5586ac7d0be58270350f8472bb9c0ee2f6bfa3094ec8ec63bddcc694ac",
            "type": "pubkey"
          }
        }
      ],
      "hex": "01000000010000000000000000000000000000000000000000000000000000000000000000ffffffff0804ffff001d02c407ffffffff0100f2052a010000004341044fac0635994397e52bc315c707c01487c9840f2e9fe293b3c22b967db5d44e2718aa367a5586ac7d0be58270350f8472bb9c0ee2f6bfa3094ec8ec63bddcc694ac00000000"
    }
  ]
}