{
  "hash": "00000000912b29d6a5005ee6106d9ee0328539b172edb7d4d1390316c6541a66",
  "confirmations": 45714,
  "height": 7384,
  "version": 1,
  "versionHex": "00000001",
  "merkleroot": "e98e1d84befbbe7e2e0d9641b97efb333232744ae8dd275eabda10bdb06b2518",
  "time": 1237009093,
  "mediantime": 1237004994,
  "nonce": 160880671,
  "bits": "1d00ffff",
  "difficulty": 1,
  "chainwork": "00000000000000000000000000000000000000000000000000001cd91cd91cd9",
  "nTx": 1,
  "previousblockhash": "00000000f3e1af7b75e770702c79b4b97d387514ada60e40098dcb07d325dc39",
  "nextblockhash": "0000000022ecd1312d96138b3c1c721a6a88fe2b3c68edd76006cdde65d44872",
  "strippedsize": 216,
  "size": 216,
  "weight": 864,
  "tx": [
    {
      "txid": "e98e1d84befbbe7e2e0d9641b97efb333232744ae8dd275eabda10bdb06b2518",
      "hash": "e98e1d84befbbe7e2e0d9641b97efb333232744ae8dd275eabda10bdb06b2518",
      "version": 1,
      "size": 135,
      "vsize": 135,
      "weight": 540,
      "locktime": 0,
      "vin": [
        {
          "coinbase": "04ffff001d020f09",
          "sequence": 4294967295
        }
      ],
      "vout": [
        {
          "value": 50.0,
          "n": 0,
          "scriptPubKey": {
            "asm": "04f7a9d03da0eb6212f7d50b4a1ec964a195a00f4f862285d662231d15851035bfd7686fc5e55963bdaece49ea3a3f768270ce15162edec0e7e634a16d993b8a78 OP_CHECKSIG",
            "desc": "pk(04f7a9d03da0eb6212f7d50b4a1ec964a195a00f4f862285d662231d15851035bfd7686fc5e55963bdaece49ea3a3f768270ce15162edec0e7e634a16d993b8a78)#t5jdeyve",
            "hex": "4104f7a9d03da0eb6212f7d50b4a1ec964a195a00f4f862285d662231d15851035bfd7686fc5e55963bdaece49ea3a3f768270ce15162edec0e7e634a16d993b8a78ac",
            "type": "pubkey"
          }
        }
      ],
      "hex": "01000000010000000000000000000000000000000000000000000000000000000000000000ffffffff0804ffff001d020f09ffffffff0100f2052a01000000434104f7a9d03da0eb6212f7d50b4a1ec964a195a00f4f862285d662231d15851035bfd7686fc5e55963bdaece49ea3a3f768270ce15162edec0e7e634a16d993b8a78ac00000000"
    }
  ]
}