{
  "hash": "000000005cba1279152a1d599e1bf8230345c17032065b9ea8c5360270c33b39",
  "confirmations": 50553,
  "height": 2545,
  "version": 1,
  "versionHex": "00000001",
  "merkleroot": "662589851cf34bf4c057cf6555fbcc2a7e6f31dfd673198083eda7afafb1e1cd",
  "time": 1233448111,
  "mediantime": 1233444755,
  "nonce": 660282388,
  "bits": "1d00ffff",
  "difficulty": 1,
  "chainwork": "000000000000000000000000000000000000000000000000000009f209f209f2",
  "nTx": 1,
  "previousblockhash": "00000000a3633674322a3ad241b11175f7200503e12e9948090dfbbaf8aa83ce",
  "nextblockhash": "000000009b28503a1755e120cb2ef8c744fd45961bea18af2d3c4e43492eb20f",
  "strippedsize": 216,
  "size": 216,
  "weight": 864,
  "tx": [
    {
      "txid": "662589851cf34bf4c057cf6555fbcc2a7e6f31dfd673198083eda7afafb1e1cd",
      "hash": "662589851cf34bf4c057cf6555fbcc2a7e6f31dfd673198083eda7afafb1e1cd",
      "version": 1,
      "size": 135,
      "vsize": 135,
      "weight": 540,
      "locktime": 0,
      "vin": [
        {
          "coinbase": "04ffff001d02c201",
          "sequence": 4294967295
        }
      ],
      "vout": [
        {
          "value": 50.0,
          "n": 0,
          "scriptPubKey": {
            "asm": "04c67c08b8d5054cd9bd75b593fe432e377af15595e8c4f6e50f1f197b0e09ec9d4a5d9e4de577e5a2aa4a1c91f92ffee94e31b05a0b06a8be6236a6ea86b9eb0d OP_CHECKSIG",
            "desc": "pk(04c67c08b8d5054cd9bd75b593fe432e377af15595e8c4f6e50f1f197b0e09ec9d4a5d9e4de577e5a2aa4a1c91f92ffee94e31b05a0b06a8be6236a6ea86b9eb0d)#49nz9p75",
            "hex": "4104c67c08b8d5054cd9bd75b593fe432e377af15595e8c4f6e50f1f197b0e09ec9d4a5d9e4de577e5a2aa4a1c91f92ffee94e31b05a0b06a8be6236a6ea86b9eb0dac",
            "type": "pubkey"
          }
        }
      ],
      "hex": "01000000010000000000000000000000000000000000000000000000000000000000000000ffffffff0804ffff001d02c201ffffffff0100f2052a01000000434104c67c08b8d5054cd9bd75b593fe432e377af15595e8c4f6e50f1f197b0e09ec9d4a5d9e4de577e5a2aa4a1c91f92ffee94e31b05a0b06a8be6236a6ea86b9eb0dac00000000"
    }
  ]
}