{
  "hash": "00000000ddd96d128e122d1179034ff66c27dc583eb9e8996a0b1779c60c6f86",
  "confirmations": 51840,
  "height": 37,
  "version": 1,
  "versionHex": "00000001",
  "merkleroot": "6d344eb5d67ed329a1c1d7603bba4b85d5916435b49f7a585bb370b76820287d",
  "time": 1231606762,
  "mediantime": 1231603171,
  "nonce": 2244623873,
  "bits": "1d00ffff",
  "difficulty": 1,
  "chainwork": "0000000000000000000000000000000000000000000000000000002600260026",
  "nTx": 1,
  "previousblockhash": "00000000f824d643f525b4904ea25c92174b8499435f388549a1700f4d3244de",
  "nextblockhash": "000000007c19ee8e924d3024d58efff50f872aadf256140bb1e3d62fea4fd6dd",
  "strippedsize": 215,
  "size": 215,
  "weight": 860,
  "tx": [
    {
      "txid": "6d344eb5d67ed329a1c1d7603bba4b85d5916435b49f7a585bb370b76820287d",
      "hash": "6d344eb5d67ed329a1c1d7603bba4b85d5916435b49f7a585bb370b76820287d",
      "version": 1,
      "size": 134,
      "vsize": 134,
      "weight": 536,
      "locktime": 0,
      "vin": [
        {
          "coinbase": "04ffff001d0157",
          "sequence": 4294967295
        }
      ],
      "vout": [
        {
          "value": 50.0,
          "n": 0,
          "scriptPubKey": {
            "asm": "04655798e5ce83da2f24955e16396846528d919c223c9c2945b211b722d55a85ccb8930066eaf34c501ac37c4d41c8e579ccc00f54d5a5f1b3c27de525ece5a5d5 OP_CHECKSIG",
            "desc": "pk(04655798e5ce83da2f24955e16396846528d919c223c9c2945b211b722d55a85ccb8930066eaf34c501ac37c4d41c8e579ccc00f54d5a5f1b3c27de525ece5a5d5)#0s9rrmhd",
            "hex": "4104655798e5ce83da2f24955e16396846528d919c223c9c2945b211b722d55a85ccb8930066eaf34c501ac37c4d41c8e579ccc00f54d5a5f1b3c27de525ece5a5d5ac",
            "type": "pubkey"
          }
        }
      ],
      "hex": "01000000010000000000000000000000000000000000000000000000000000000000000000ffffffff0704ffff001d0157ffffffff0100f2052a01000000434104655798e5ce83da2f24955e16396846528d919c223c9c2945b211b722d55a85ccb8930066eaf34c501ac37c4d41c8e579ccc00f54d5a5f1b3c27de525ece5a5d5ac00000000"
    }
  ]
}