{
  "hash": "00000000276217ea9d792c820e08e8c9123e2979585194398d4118cfc7f7e6b6",
  "confirmations": 46899,
  "height": 6199,
  "version": 1,
  "versionHex": "00000001",
  "merkleroot": "94acabef33fb871a9588749e7ec92be019b801a48a8cbf0d17aefada4ba8cef5",
  "time": 1236090117,
  "mediantime": 1236085253,
  "nonce": 3061977622,
  "bits": "1d00ffff",
  "difficulty": 1,
  "chainwork": "0000000000000000000000000000000000000000000000000000183818381838",
  "nTx": 1,
  "previousblockhash": "000000001294a1a6e85d6fa25d7e23bbd498e757e5dd8c1fbd00f877466e0879",
  "nextblockhash": "00000000670dfcebdfff4c8c0ef726645b0c51400b464b9f55c73e6377f160cc",
  "strippedsize": 216,
  "size": 216,
  "weight": 864,
  "tx": [
    {
      "txid": "94acabef33fb871a9588749e7ec92be019b801a48a8cbf0d17aefada4ba8cef5",
      "hash": "94acabef33fb871a9588749e7ec92be019b801a48a8cbf0d17aefada4ba8cef5",
      "version": 1,
      "size": 135,
      "vsize": 135,
      "weight": 540,
      "locktime": 0,
      "vin": [
        {
          "coinbase": "04ffff001d026f08",
          "sequence": 4294967295
        }
      ],
      "vout": [
        {
          "value": 50.0,
          "n": 0,
          "scriptPubKey": {
            "asm": "04f0198a949d27b9e8090c863ab2512cd608a2e3bd083cefc55918bc108ca244c0e4f535b33a2051bf0b49cc2f0980460bafa70567531acb6a9afdd0426507b190 OP_CHECKSIG",
            "desc": "pk(04f0198a949d27b9e8090c863ab2512cd608a2e3bd083cefc55918bc108ca244c0e4f535b33a2051bf0b49cc2f0980460bafa70567531acb6a9afdd0426507b190)#l8n7xmy4",
            "hex": "4104f0198a949d27b9e8090c863ab2512cd608a2e3bd083cefc55918bc108ca244c0e4f535b33a2051bf0b49cc2f0980460bafa70567531acb6a9afdd0426507b190ac",
            "type": "pubkey"
          }
        }
      ],
      "hex": "01000000010000000000000000000000000000000000000000000000000000000000000000ffffffff0804ffff001d026f08ffffffff0100f2052a01000000434104f0198a949d27b9e8090c863ab2512cd608a2e3bd083cefc55918bc108ca244c0e4f535b33a2051bf0b49cc2f0980460bafa70567531acb6a9afdd0426507b190ac00000000"
    }
  ]
}