{
  "hash": "00000000b3f870834abddae4314818204529b780f833669157bb65b384d81621",
  "confirmations": 50085,
  "height": 3013,
  "version": 1,
  "versionHex": "00000001",
  "merkleroot": "b9fd39ddf820c133729e536730f11983a8649c2900c08ef13528d07bcdcddcab",
  "time": 1233771533,
  "mediantime": 1233767738,
  "nonce": 3571329572,
  "bits": "1d00ffff",
  "difficulty": 1,
  "chainwork": "00000000000000000000000000000000000000000000000000000bc60bc60bc6",
  "nTx": 1,
  "previousblockhash": "0000000094bfee5e5359e8913c5cfb461282629dff5776bb17b3addd593e53ab",
  "nextblockhash": "000000004586e460002e8b629f99c6c3afb75d0356e44c10f3d6bfb174726e43",
  "strippedsize": 216,
  "size": 216,
  "weight": 864,
  "tx": [
    {
      "txid": "b9fd39ddf820c133729e536730f11983a8649c2900c08ef13528d07bcdcddcab",
      "hash": "b9fd39ddf820c133729e536730f11983a8649c2900c08ef13528d07bcdcddcab",
      "version": 1,
      "size": 135,
      "vsize": 135,
      "weight": 540,
      "locktime": 0,
      "vin": [
        {
          "coinbase": "04ffff001d029f01",
          "sequence": 4294967295
        }
      ],
      "vout": [
        {
          "value": 50.0,
          "n": 0,
          "scriptPubKey": {
            "asm": "0492d310e470d10b3249f093a8b0fd401b108de9ab943ffca40c77f89af790d58727a5ecdd6298f7039e69a690535040b36e13b0a3e47fbce89054be40c9b858ea OP_CHECKSIG",
            "desc": "pk(0492d310e470d10b3249f093a8b0fd401b108de9ab943ffca40c77f89af790d58727a5ecdd6298f7039e69a690535040b36e13b0a3e47fbce89054be40c9b858ea)#wk5memyz",
            "hex": "410492d310e470d10b3249f093a8b0fd401b108de9ab943ffca40c77f89af790d58727a5ecdd6298f7039e69a690535040b36e13b0a3e47fbce89054be40c9b858eaac",
            "type": "pubkey"
          }
        }
      ],
      "hex": "01000000010000000000000000000000000000000000000000000000000000000000000000ffffffff0804ffff001d029f01ffffffff0100f2052a0100000043410492d310e470d10b3249f093a8b0fd401b108de9ab943ffca40c77f89af790d58727a5ecdd6298f7039e69a690535040b36e13b0a3e47fbce89054be40c9b858eaac00000000"
    }
  ]
}