{
  "hash": "00000000da693e2626e038e5467c45d156ae8084285b09ac19b83d3b918a7b09",
  "confirmations": 43392,
  "height": 9706,
  "version": 1,
  "versionHex": "00000001",
  "merkleroot": "aa4b9b6eb8a1fc6051dcc3d5f6ec0eb87ba01e73bb1980c885b108901934522b",
  "time": 1238782454,
  "mediantime": 1238778097,
  "nonce": 208191488,
  "bits": "1d00ffff",
  "difficulty": 1,
  "chainwork": "000000000000000000000000000000000000000000000000000025eb25eb25eb",
  "nTx": 1,
  "previousblockhash": "00000000873b99a25f123d8b09a022b08d4a56a7b220f2b4ffce98c58f4e09bc",
  "nextblockhash": "000000006547a587e4961d89111585a5cf814c48678919207e9e3ffa1f9da02d",
  "strippedsize": 215,
  "size": 215,
  "weight": 860,
  "tx": [
    {
      "txid": "aa4b9b6eb8a1fc6051dcc3d5f6ec0eb87ba01e73bb1980c885b108901934522b",
      "hash": "aa4b9b6eb8a1fc6051dcc3d5f6ec0eb87ba01e73bb1980c885b108901934522b",
      "version": 1,
      "size": 134,
      "vsize": 134,
      "weight": 536,
      "locktime": 0,
      "vin": [
        {
          "coinbase": "04ffff001d015c",
          "sequence": 4294967295
        }
      ],
      "vout": [
        {
          "value": 50.0,
          "n": 0,
          "scriptPubKey": {
            "asm": "04ede64507f01dcba3681f37275508321cec53217b247202fad718bd42ea2677c532339069db858a4e8011faab64b8dc910a54b8c238659bac14924d44e1946270 OP_CHECKSIG",
            "desc": "pk(04ede64507f01dcba3681f37275508321cec53217b247202fad718bd42ea2677c532339069db858a4e8011faab64b8dc910a54b8c238659bac14924d44e1946270)#asl7g5gv",
            "hex": "4104ede64507f01dcba3681f37275508321cec53217b247202fad718bd42ea2677c532339069db858a4e8011faab64b8dc910a54b8c238659bac14924d44e1946270ac",
            "type": "pubkey"
          }
        }
      ],
      "hex": "01000000010000000000000000000000000000000000000000000000000000000000000000ffffffff0704ffff001d015cffffffff0100f2052a01000000434104ede64507f01dcba3681f37275508321cec53217b247202fad718bd42ea2677c532339069db858a4e8011faab64b8dc910a54b8c238659bac14924d44e1946270ac00000000"
    }
  ]
}