{
  "hash": "000000003727134a4823b6c4c5245e961fff7816fc494742fb0abd353c94757b",
  "confirmations": 52322,
  "height": 502,
  "version": 1,
  "versionHex": "00000001",
  "merkleroot": "996d3bc5ae6e16df53ab73abce81792c8415ae4cf04b148f5a9c79bcb41e21a2",
  "time": 1231969575,
  "mediantime": 1231966316,
  "nonce": 636712223,
  "bits": "1d00ffff",
  "difficulty": 1,
  "chainwork": "000000000000000000000000000000000000000000000000000001f701f701f7",
  "nTx": 1,
  "previousblockhash": "0000000046887292a76cd113a5fd6af38b17c9fb77e5936cd9856694030598f9",
  "nextblockhash": "0000000055a12319e123c04d357b87f5fb27f3e3de80a72de797db8f97018c0a",
  "strippedsize": 216,
  "size": 216,
  "weight": 864,
  "tx": [
    {
      "txid": "996d3bc5ae6e16df53ab73abce81792c8415ae4cf04b148f5a9c79bcb41e21a2",
      "hash": "996d3bc5ae6e16df53ab73abce81792c8415ae4cf04b148f5a9c79bcb41e21a2",
      "version": 1,
      "size": 135,
      "vsize": 135,
      "weight": 540,
      "locktime": 0,
      "vin": [
        {
          "coinbase": "04ffff001d027a04",
          "sequence": 4294967295
        }
      ],
      "vout": [
        {
          "value": 50.0,
          "n": 0,
          "scriptPubKey": {
            "asm": "04f03f070b97a2c106002ceaf16d3e55cb749ac54f70f6b38a43659fc89e849fae11186793ed563a9ca60ebc31b8d9da15d679b7f617c87345468cf84ad5a7ac2d OP_CHECKSIG",
            "desc": "pk(04f03f070b97a2c106002ceaf16d3e55cb749ac54f70f6b38a43659fc89e849fae11186793ed563a9ca60ebc31b8d9da15d679b7f617c87345468cf84ad5a7ac2d)#0vq4gueu",
            "hex": "4104f03f070b97a2c106002ceaf16d3e55cb749ac54f70f6b38a43659fc89e849fae11186793ed563a9ca60ebc31b8d9da15d679b7f617c87345468cf84ad5a7ac2dac",
            "type": "pubkey"
          }
        }
      ],
      "hex": "01000000010000000000000000000000000000000000000000000000000000000000000000ffffffff0804ffff001d027a04ffffffff0100f2052a01000000434104f03f070b97a2c106002ceaf16d3e55cb749ac54f70f6b38a43659fc89e849fae11186793ed563a9ca60ebc31b8d9da15d679b7f617c87345468cf84ad5a7ac2dac00000000"
    }
  ]
}