{
  "hash": "000000009189006e461d2f4037a819d00217412ac01900ddbf09461100b836bb",
  "confirmations": 51860,
  "height": 45,
  "version": 1,
  "versionHex": "00000001",
  "merkleroot": "f69778085f1e78a1ea1cfcfe3b61ffb5c99870f5ae382e41ec43cf165d66a6d9",
  "time": 1231611068,
  "mediantime": 1231608208,
  "nonce": 2771238433,
  "bits": "1d00ffff",
  "difficulty": 1,
  "chainwork": "0000000000000000000000000000000000000000000000000000002e002e002e",
  "nTx": 1,
  "previousblockhash": "000000002978eecde8d020f7f057083bc990002fff495121d7dc1c26d00c00f8",
  "nextblockhash": "0000000002d5f429a2e3a9d9f82b777469696deb64038803c87833aa8ee9c08e",
  "strippedsize": 215,
  "size": 215,
  "weight": 860,
  "tx": [
    {
      "txid": "f69778085f1e78a1ea1cfcfe3b61ffb5c99870f5ae382e41ec43cf165d66a6d9",
      "hash": "f69778085f1e78a1ea1cfcfe3b61ffb5c99870f5ae382e41ec43cf165d66a6d9",
      "version": 1,
      "size": 134,
      "vsize": 134,
      "weight": 536,
      "locktime": 0,
      "vin": [
        {
          "coinbase": "04ffff001d0121",
          "sequence": 4294967295
        }
      ],
      "vout": [
        {
          "value": 50.0,
          "n": 0,
          "scriptPubKey": {
            "asm": "04e049e5c6fb83743c8ef0a640cc82ea14191026643e3e2a1c84edf168bb9690f3c201d04a30c8609aa9406c1eb565e1b9fa218317da5177060de158f25ccc879d OP_CHECKSIG",
            "desc": "pk(04e049e5c6fb83743c8ef0a640cc82ea14191026643e3e2a1c84edf168bb9690f3c201d04a30c8609aa9406c1eb565e1b9fa218317da5177060de158f25ccc879d)#3t5kl2fz",
            "hex": "4104e049e5c6fb83743c8ef0a640cc82ea14191026643e3e2a1c84edf168bb9690f3c201d04a30c8609aa9406c1eb565e1b9fa218317da5177060de158f25ccc879dac",
            "type": "pubkey"
          }
        }
      ],
      "hex": "01000000010000000000000000000000000000000000000000000000000000000000000000ffffffff0704ffff001d0121ffffffff0100f2052a01000000434104e049e5c6fb83743c8ef0a640cc82ea14191026643e3e2a1c84edf168bb9690f3c201d04a30c8609aa9406c1eb565e1b9fa218317da5177060de158f25ccc879dac00000000"
    }
  ]
}