{
  "hash": "000000008f40e88b84b2e59314f86eb02dad46f335c8897a3197d0b5894c6b06",
  "confirmations": 51812,
  "height": 1286,
  "version": 1,
  "versionHex": "00000001",
  "merkleroot": "95ee278b6216bf8358b8dae7c7e7b0cc7f7911a8a1bd2c6b25d106594332a494",
  "time": 1232564096,
  "mediantime": 1232560551,
  "nonce": 2446832948,
  "bits": "1d00ffff",
  "difficulty": 1,
  "chainwork": "0000000000000000000000000000000000000000000000000000050705070507",
  "nTx": 1,
  "previousblockhash": "00000000146e6b3b4659cacbcda38e5d26d1d3d668fa1048fb99d84a03789932",
  "nextblockhash": "00000000202f36135a13e90c07fe3816d4ae948ff1e3fa941d3dee7bbf421604",
  "strippedsize": 216,
  "size": 216,
  "weight": 864,
  "tx": [
    {
      "txid": "95ee278b6216bf8358b8dae7c7e7b0cc7f7911a8a1bd2c6b25d106594332a494",
      "hash": "95ee278b6216bf8358b8dae7c7e7b0cc7f7911a8a1bd2c6b25d106594332a494",
      "version": 1,
      "size": 135,
      "vsize": 135,
      "weight": 540,
      "locktime": 0,
      "vin": [
        {
          "coinbase": "04ffff001d020c0a",
          "sequence": 4294967295
        }
      ],
      "vout": [
        {
          "value": 50.0,
          "n": 0,
          "scriptPubKey": {
            "asm": "04c8d6118e5cf68b51489fb12afb03593113832c3e68c927eb133cca8a555c6c9e6ab0adcbb3072acd064120642f2eb005e3f81768077edd7c21d8ae594e0691bd OP_CHECKSIG",
            "desc": "pk(04c8d6118e5cf68b51489fb12afb03593113832c3e68c927eb133cca8a555c6c9e6ab0adcbb3072acd064120642f2eb005e3f81768077edd7c21d8ae594e0691bd)#268fzks8",
            "hex": "4104c8d6118e5cf68b51489fb12afb03593113832c3e68c927eb133cca8a555c6c9e6ab0adcbb3072acd064120642f2eb005e3f81768077edd7c21d8ae594e0691bdac",
            "type": "pubkey"
          }
        }
      ],
      "hex": "01000000010000000000000000000000000000000000000000000000000000000000000000ffffffff0804ffff001d020c0affffffff0100f2052a01000000434104c8d6118e5cf68b51489fb12afb03593113832c3e68c927eb133cca8a555c6c9e6ab0adcbb3072acd064120642f2eb005e3f81768077edd7c21d8ae594e0691bdac00000000"
    }
  ]
}