{
  "hash": "00000000ef0938336d572b8404382fb7bb0b3ad46b5b665c8c08546c43c77bf6",
  "confirmations": 48482,
  "height": 4616,
  "version": 1,
  "versionHex": "00000001",
  "merkleroot": "0db891d4e0ba5bc69f71393ccd734eb4a32a291b621cec2c0fb7eaa98aec014d",
  "time": 1234866650,
  "mediantime": 1234861297,
  "nonce": 499215128,
  "bits": "1d00ffff",
  "difficulty": 1,
  "chainwork": "0000000000000000000000000000000000000000000000000000120912091209",
  "nTx": 1,
  "previousblockhash": "000000008418d133a657d1d7fd0a032e4af19c6dd55e7a2ee465087deeaed510",
  "nextblockhash": "00000000ae32028b9d10675807a89c14a8dda7017967af3b12a3c0e50de7cfc3",
  "strippedsize": 216,
  "size": 216,
  "weight": 864,
  "tx": [
    {
      "txid": "0db891d4e0ba5bc69f71393ccd734eb4a32a291b621cec2c0fb7eaa98aec014d",
      "hash": "0db891d4e0ba5bc69f71393ccd734eb4a32a291b621cec2c0fb7eaa98aec014d",
      "version": 1,
      "size": 135,
      "vsize": 135,
      "weight": 540,
      "locktime": 0,
      "vin": [
        {
          "coinbase": "04ffff001d021001",
          "sequence": 4294967295
        }
      ],
      "vout": [
        {
          "value": 50.0,
          "n": 0,
          "scriptPubKey": {
            "asm": "045cca04b4881c546fed1e823ed35ee0ad47d7e9a94716a3a43f55cbd54b64495f482b853f64400b98d0b3072f0518742906ca87975a050d6c8bd7da2420b9c211 OP_CHECKSIG",
            "desc": "pk(045cca04b4881c546fed1e823ed35ee0ad47d7e9a94716a3a43f55cbd54b64495f482b853f64400b98d0b3072f0518742906ca87975a050d6c8bd7da2420b9c211)#5jth03c5",
            "hex": "41045cca04b4881c546fed1e823ed35ee0ad47d7e9a94716a3a43f55cbd54b64495f482b853f64400b98d0b3072f0518742906ca87975a050d6c8bd7da2420b9c211ac",
            "type": "pubkey"
          }
        }
      ],
      "hex": "01000000010000000000000000000000000000000000000000000000000000000000000000ffffffff0804ffff001d021001ffffffff0100f2052a010000004341045cca04b4881c546fed1e823ed35ee0ad47d7e9a94716a3a43f55cbd54b64495f482b853f64400b98d0b3072f0518742906ca87975a050d6c8bd7da2420b9c211ac00000000"
    }
  ]
}