{
  "hash": "0000000058c984f21ab7ab8bb10244736c262ac0af93db33a24dd361e829f34e",
  "confirmations": 51726,
  "height": 1372,
  "version": 1,
  "versionHex": "00000001",
  "merkleroot": "0d7e59b4e99f502a56de6342941f296d502d496ab0b437797952f6e819470ee9",
  "time": 1232660232,
  "mediantime": 1232655600,
  "nonce": 3717877014,
  "bits": "1d00ffff",
  "difficulty": 1,
  "chainwork": "0000000000000000000000000000000000000000000000000000055d055d055d",
  "nTx": 1,
  "previousblockhash": "00000000dfad4fe47dcfc1a35c3384420d18210cd64c1bae5219e2ef3b123459",
  "nextblockhash": "00000000fcd4f700a61c4a14b2c61dc2f3497bf4dc705528dfb59d0e652f850b",
  "strippedsize": 216,
  "size": 216,
  "weight": 864,
  "tx": [
    {
      "txid": "0d7e59b4e99f502a56de6342941f296d502d496ab0b437797952f6e819470ee9",
      "hash": "0d7e59b4e99f502a56de6342941f296d502d496ab0b437797952f6e819470ee9",
      "version": 1,
      "size": 135,
      "vsize": 135,
      "weight": 540,
      "locktime": 0,
      "vin": [
        {
          "coinbase": "04ffff001d028a01",
          "sequence": 4294967295
        }
      ],
      "vout": [
        {
          "value": 50.0,
          "n": 0,
          "scriptPubKey": {
            "asm": "04b631003b68f63a55ed129f82b6408abb573071d6483582006a0fc65624cf99daea8e9ea9d8467388632595bc3327e7e4db00ab3ecd4c07e12b9ffd5c9a3f96f3 OP_CHECKSIG",
            "desc": "pk(04b631003b68f63a55ed129f82b6408abb573071d6483582006a0fc65624cf99daea8e9ea9d8467388632595bc3327e7e4db00ab3ecd4c07e12b9ffd5c9a3f96f3)#tujtfq9e",
            "hex": "4104b631003b68f63a55ed129f82b6408abb573071d6483582006a0fc65624cf99daea8e9ea9d8467388632595bc3327e7e4db00ab3ecd4c07e12b9ffd5c9a3f96f3ac",
            "type": "pubkey"
          }
        }
      ],
      "hex": "01000000010000000000000000000000000000000000000000000000000000000000000000ffffffff0804ffff001d028a01ffffffff0100f2052a01000000434104b631003b68f63a55ed129f82b6408abb573071d6483582006a0fc65624cf99daea8e9ea9d8467388632595bc3327e7e4db00ab3ecd4c07e12b9ffd5c9a3f96f3ac00000000"
    }
  ]
}