{
  "hash": "00000000d65dded3f5e0588a708525a23e4b6158b6348fe1b002513ccd2c6672",
  "confirmations": 43123,
  "height": 9975,
  "version": 1,
  "versionHex": "00000001",
  "merkleroot": "025b6f5600adc1cc1df33969a2dae18aecfd1f2c7d5a60bbbfa3fe58757fbf30",
  "time": 1238973461,
  "mediantime": 1238970771,
  "nonce": 19768578,
  "bits": "1d00ffff",
  "difficulty": 1,
  "chainwork": "000000000000000000000000000000000000000000000000000026f826f826f8",
  "nTx": 1,
  "previousblockhash": "0000000033e356b6859da65f5684cd709ff39bf3db4fcdf84731e8c5e2117b53",
  "nextblockhash": "00000000e121394a2c06495516ca5c103328f4126c713ac0ef366412f7cba066",
  "strippedsize": 216,
  "size": 216,
  "weight": 864,
  "tx": [
    {
      "txid": "025b6f5600adc1cc1df33969a2dae18aecfd1f2c7d5a60bbbfa3fe58757fbf30",
      "hash": "025b6f5600adc1cc1df33969a2dae18aecfd1f2c7d5a60bbbfa3fe58757fbf30",
      "version": 1,
      "size": 135,
      "vsize": 135,
      "weight": 540,
      "locktime": 0,
      "vin": [
        {
          "coinbase": "04ffff001d02e10b",
          "sequence": 4294967295
        }
      ],
      "vout": [
        {
          "value": 50.0,
          "n": 0,
          "scriptPubKey": {
            "asm": "046518e7135a95faf10b5134ad734054885636047a8ee8856fcb8644eb34368c2f82a7a8683d4090c8b51f1a394df12490acdf5f2d6932dc313d5ce4b685b53215 OP_CHECKSIG",
            "desc": "pk(046518e7135a95faf10b5134ad734054885636047a8ee8856fcb8644eb34368c2f82a7a8683d4090c8b51f1a394df12490acdf5f2d6932dc313d5ce4b685b53215)#h08a70ke",
            "hex": "41046518e7135a95faf10b5134ad734054885636047a8ee8856fcb8644eb34368c2f82a7a8683d4090c8b51f1a394df12490acdf5f2d6932dc313d5ce4b685b53215ac",
            "type": "pubkey"
          }
        }
      ],
      "hex": "01000000010000000000000000000000000000000000000000000000000000000000000000ffffffff0804ffff001d02e10bffffffff0100f2052a010000004341046518e7135a95faf10b5134ad734054885636047a8ee8856fcb8644eb34368c2f82a7a8683d4090c8b51f1a394df12490acdf5f2d6932dc313d5ce4b685b53215ac00000000"
    }
  ]
}