{
  "hash": "000000002792abad08ff528fd71821b23c2c87b2ebb49034e36a4aa8e78f66fb",
  "confirmations": 46450,
  "height": 6648,
  "version": 1,
  "versionHex": "00000001",
  "merkleroot": "e1800866203cf247725fe63425d7d342e274171fff629ebca91a5c05132746c9",
  "time": 1236442928,
  "mediantime": 1236440026,
  "nonce": 4013500708,
  "bits": "1d00ffff",
  "difficulty": 1,
  "chainwork": "000000000000000000000000000000000000000000000000000019f919f919f9",
  "nTx": 1,
  "previousblockhash": "00000000fa54966eeddec2ee763473e6ea3d7c1de237a301bca3c17ae8084542",
  "nextblockhash": "000000007fe9e0f146cca63016a5681c18ddf026184cb05eedab3e7593fe484c",
  "strippedsize": 216,
  "size": 216,
  "weight": 864,
  "tx": [
    {
      "txid": "e1800866203cf247725fe63425d7d342e274171fff629ebca91a5c05132746c9",
      "hash": "e1800866203cf247725fe63425d7d342e274171fff629ebca91a5c05132746c9",
      "version": 1,
      "size": 135,
      "vsize": 135,
      "weight": 540,
      "locktime": 0,
      "vin": [
        {
          "coinbase": "04ffff001d020a06",
          "sequence": 4294967295
        }
      ],
      "vout": [
        {
          "value": 50.0,
          "n": 0,
          "scriptPubKey": {
            "asm": "04d83638af82c48e818a014ecbb39b3114c96afce9aad27e324f0e0ff70e44d1de404237d21daf4aa7068888e8ff244290f5eb65ca1015453ad4e09d63c8e84912 OP_CHECKSIG",
            "desc": "pk(04d83638af82c48e818a014ecbb39b3114c96afce9aad27e324f0e0ff70e44d1de404237d21daf4aa7068888e8ff244290f5eb65ca1015453ad4e09d63c8e84912)#3l6j4l6q",
            "hex": "4104d83638af82c48e818a014ecbb39b3114c96afce9aad27e324f0e0ff70e44d1de404237d21daf4aa7068888e8ff244290f5eb65ca1015453ad4e09d63c8e84912ac",
            "type": "pubkey"
          }
        }
      ],
      "hex": "01000000010000000000000000000000000000000000000000000000000000000000000000ffffffff0804ffff001d020a06ffffffff0100f2052a01000000434104d83638af82c48e818a014ecbb39b3114c96afce9aad27e324f0e0ff70e44d1de404237d21daf4aa7068888e8ff244290f5eb65ca1015453ad4e09d63c8e84912ac00000000"
    }
  ]
}