{
  "hash": "000000009a735f0487773c10335e1f28b7b60fd8ce6b0787117713f2ba75b35c",
  "confirmations": 44435,
  "height": 8663,
  "version": 1,
  "versionHex": "00000001",
  "merkleroot": "85fe1facca65a28c907b1704507534e7739c268a07921e454cc874af0c9c852b",
  "time": 1237995045,
  "mediantime": 1237991226,
  "nonce": 2015185411,
  "bits": "1d00ffff",
  "difficulty": 1,
  "chainwork": "000000000000000000000000000000000000000000000000000021d821d821d8",
  "nTx": 1,
  "previousblockhash": "00000000bcf48730b0a0fc4b1fb6cba5b6ee87fcf583b96f11bec70e25c0f9cc",
  "nextblockhash": "00000000b3032886a7355c6c264a8de8d4a0699fe6a1ac1cb38365c7117e19f4",
  "strippedsize": 215,
  "size": 215,
  "weight": 860,
  "tx": [
    {
      "txid": "85fe1facca65a28c907b1704507534e7739c268a07921e454cc874af0c9c852b",
      "hash": "85fe1facca65a28c907b1704507534e7739c268a07921e454cc874af0c9c852b",
      "version": 1,
      "size": 134,
      "vsize": 134,
      "weight": 536,
      "locktime": 0,
      "vin": [
        {
          "coinbase": "04ffff001d013d",
          "sequence": 4294967295
        }
      ],
      "vout": [
        {
          "value": 50.0,
          "n": 0,
          "scriptPubKey": {
            "asm": "04ee15810586d17e116fb03674b0d62ddd8781a53ebac2ded70f2d775798ef6c4d966e9fc1f0ae9dd5851f0ae8f7666abfbf0ed3c6f2351414e3e85fe0ad8e04ca OP_CHECKSIG",
            "desc": "pk(04ee15810586d17e116fb03674b0d62ddd8781a53ebac2ded70f2d775798ef6c4d966e9fc1f0ae9dd5851f0ae8f7666abfbf0ed3c6f2351414e3e85fe0ad8e04ca)#ktl9zd65",
            "hex": "4104ee15810586d17e116fb03674b0d62ddd8781a53ebac2ded70f2d775798ef6c4d966e9fc1f0ae9dd5851f0ae8f7666abfbf0ed3c6f2351414e3e85fe0ad8e04caac",
            "type": "pubkey"
          }
        }
      ],
      "hex": "01000000010000000000000000000000000000000000000000000000000000000000000000ffffffff0704ffff001d013dffffffff0100f2052a01000000434104ee15810586d17e116fb03674b0d62ddd8781a53ebac2ded70f2d775798ef6c4d966e9fc1f0ae9dd5851f0ae8f7666abfbf0ed3c6f2351414e3e85fe0ad8e04caac00000000"
    }
  ]
}