{
  "hash": "00000000a208d65554dfe46ef515582b8fbc3adbc1be1c27da59c5060f9bcb91",
  "confirmations": 50485,
  "height": 2613,
  "version": 1,
  "versionHex": "00000001",
  "merkleroot": "25e3af89608e97e779a2b74ba19aac6d58e720dfcf201eb23d3d0b1b8f5f730f",
  "time": 1233502760,
  "mediantime": 1233499536,
  "nonce": 79035155,
  "bits": "1d00ffff",
  "difficulty": 1,
  "chainwork": "00000000000000000000000000000000000000000000000000000a360a360a36",
  "nTx": 1,
  "previousblockhash": "000000000d94d4bce4eb076b5f0bd4dc784887ac8bbb2fe9b45efbe34e20f897",
  "nextblockhash": "00000000f8088f96410b15a88fd8535249006ceb2a6172774f249486e71a7c42",
  "strippedsize": 216,
  "size": 216,
  "weight": 864,
  "tx": [
    {
      "txid": "25e3af89608e97e779a2b74ba19aac6d58e720dfcf201eb23d3d0b1b8f5f730f",
      "hash": "25e3af89608e97e779a2b74ba19aac6d58e720dfcf201eb23d3d0b1b8f5f730f",
      "version": 1,
      "size": 135,
      "vsize": 135,
      "weight": 540,
      "locktime": 0,
      "vin": [
        {
          "coinbase": "04ffff001d023903",
          "sequence": 4294967295
        }
      ],
      "vout": [
        {
          "value": 50.0,
          "n": 0,
          "scriptPubKey": {
            "asm": "0460d73d7a87c3b749ecc394f88c7ef7ccf9095276904e1d0395017e94a7267df92693d0544355ec28bac802137bbd4eabec30e47c9df32327a1384c3bd0db1e05 OP_CHECKSIG",
            "desc": "pk(0460d73d7a87c3b749ecc394f88c7ef7ccf9095276904e1d0395017e94a7267df92693d0544355ec28bac802137bbd4eabec30e47c9df32327a1384c3bd0db1e05)#anvyvlgy",
            "hex": "410460d73d7a87c3b749ecc394f88c7ef7ccf9095276904e1d0395017e94a7267df92693d0544355ec28bac802137bbd4eabec30e47c9df32327a1384c3bd0db1e05ac",
            "type": "pubkey"
          }
        }
      ],
      "hex": "01000000010000000000000000000000000000000000000000000000000000000000000000ffffffff0804ffff001d023903ffffffff0100f2052a0100000043410460d73d7a87c3b749ecc394f88c7ef7ccf9095276904e1d0395017e94a7267df92693d0544355ec28bac802137bbd4eabec30e47c9df32327a1384c3bd0db1e05ac00000000"
    }
  ]
}