{
  "hash": "0000000052da91541855a14d302fda8dbdec3010f2158e1dbee67e8ade2cb49b",
  "confirmations": 50721,
  "height": 2377,
  "version": 1,
  "versionHex": "00000001",
  "merkleroot": "6f379e78dde5ef9ecd831e29aade1fba6adba75db429fa087d82d2cfef28ee66",
  "time": 1233336378,
  "mediantime": 1233331961,
  "nonce": 3858942723,
  "bits": "1d00ffff",
  "difficulty": 1,
  "chainwork": "0000000000000000000000000000000000000000000000000000094a094a094a",
  "nTx": 1,
  "previousblockhash": "00000000b7ff527ae532e7fa4ff24ad476c5bb1efe3870e9d8794c8d1ff5cb43",
  "nextblockhash": "00000000dbe99fe90915218f74be250fffd6140041b1e8cf139543ae88af0795",
  "strippedsize": 216,
  "size": 216,
  "weight": 864,
  "tx": [
    {
      "txid": "6f379e78dde5ef9ecd831e29aade1fba6adba75db429fa087d82d2cfef28ee66",
      "hash": "6f379e78dde5ef9ecd831e29aade1fba6adba75db429fa087d82d2cfef28ee66",
      "version": 1,
      "size": 135,
      "vsize": 135,
      "weight": 540,
      "locktime": 0,
      "vin": [
        {
          "coinbase": "04ffff001d022203",
          "sequence": 4294967295
        }
      ],
      "vout": [
        {
          "value": 50.0,
          "n": 0,
          "scriptPubKey": {
            "asm": "04de7579fed41d76053e217a56e1a0ae5ace525850b8552e5801d58597dc0ef8afc2562704814b019af4260a1bb6bace1bf6f907ba2ecdde1d945fb048aa16ca37 OP_CHECKSIG",
            "desc": "pk(04de7579fed41d76053e217a56e1a0ae5ace525850b8552e5801d58597dc0ef8afc2562704814b019af4260a1bb6bace1bf6f907ba2ecdde1d945fb048aa16ca37)#zpgmetlp",
            "hex": "4104de7579fed41d76053e217a56e1a0ae5ace525850b8552e5801d58597dc0ef8afc2562704814b019af4260a1bb6bace1bf6f907ba2ecdde1d945fb048aa16ca37ac",
            "type": "pubkey"
          }
        }
      ],
      "hex": "01000000010000000000000000000000000000000000000000000000000000000000000000ffffffff0804ffff001d022203ffffffff0100f2052a01000000434104de7579fed41d76053e217a56e1a0ae5ace525850b8552e5801d58597dc0ef8afc2562704814b019af4260a1bb6bace1bf6f907ba2ecdde1d945fb048aa16ca37ac00000000"
    }
  ]
}