{
  "hash": "00000000af6ebfe2a16e85d5c9f8a842a79a7e1ee1edf60986b08182cba66fad",
  "confirmations": 50646,
  "height": 2452,
  "version": 1,
  "versionHex": "00000001",
  "merkleroot": "749386e78c5656d3eaff1c10e99a3c35d51ec21c5b80cd582f0e210ba7e2cc69",
  "time": 1233394600,
  "mediantime": 1233391044,
  "nonce": 259458053,
  "bits": "1d00ffff",
  "difficulty": 1,
  "chainwork": "0000000000000000000000000000000000000000000000000000099509950995",
  "nTx": 1,
  "previousblockhash": "00000000aaaf7a0014102a2cd47fff390d94a36f25ac70c5d5f5b0a3e988f978",
  "nextblockhash": "00000000258f83690646aa7fbc01b0a54634871dd8107bc18e602cbf5ce9a2aa",
  "strippedsize": 215,
  "size": 215,
  "weight": 860,
  "tx": [
    {
      "txid": "749386e78c5656d3eaff1c10e99a3c35d51ec21c5b80cd582f0e210ba7e2cc69",
      "hash": "749386e78c5656d3eaff1c10e99a3c35d51ec21c5b80cd582f0e210ba7e2cc69",
      "version": 1,
      "size": 134,
      "vsize": 134,
      "weight": 536,
      "locktime": 0,
      "vin": [
        {
          "coinbase": "04ffff001d014f",
          "sequence": 4294967295
        }
      ],
      "vout": [
        {
          "value": 50.0,
          "n": 0,
          "scriptPubKey": {
            "asm": "047189d89b1bfa2f5ec0217c8c77109c907818be24ee487508f5d3649dc7e6c634de30a1de5489053c48a842e299e9e8f780b5025a3c84d877ea3d1f828e2b49de OP_CHECKSIG",
            "desc": "pk(047189d89b1bfa2f5ec0217c8c77109c907818be24ee487508f5d3649dc7e6c634de30a1de5489053c48a842e299e9e8f780b5025a3c84d877ea3d1f828e2b49de)#dzdezdha",
            "hex": "41047189d89b1bfa2f5ec0217c8c77109c907818be24ee487508f5d3649dc7e6c634de30a1de5489053c48a842e299e9e8f780b5025a3c84d877ea3d1f828e2b49deac",
            "type": "pubkey"
          }
        }
      ],
      "hex": "01000000010000000000000000000000000000000000000000000000000000000000000000ffffffff0704ffff001d014fffffffff0100f2052a010000004341047189d89b1bfa2f5ec0217c8c77109c907818be24ee487508f5d3649dc7e6c634de30a1de5489053c48a842e299e9e8f780b5025a3c84d877ea3d1f828e2b49deac00000000"
    }
  ]
}