{
  "hash": "00000000c5e19f534f6c55b14fdb4dec0467e686e50ea6a45342c6754971d689",
  "confirmations": 45717,
  "height": 7381,
  "version": 1,
  "versionHex": "00000001",
  "merkleroot": "d0c86c70aa6d16a0f615bc1ac8c9f5421d8cbf8589e082df246f445f08032221",
  "time": 1237006716,
  "mediantime": 1237002808,
  "nonce": 1092907828,
  "bits": "1d00ffff",
  "difficulty": 1,
  "chainwork": "00000000000000000000000000000000000000000000000000001cd61cd61cd6",
  "nTx": 1,
  "previousblockhash": "00000000cab80ebffb2ae3eda249cab4b0499ff8612266dc0cba8fed59806d57",
  "nextblockhash": "000000000365926090128ede2367cb581efdb5130b957891e8c572fc210c839c",
  "strippedsize": 216,
  "size": 216,
  "weight": 864,
  "tx": [
    {
      "txid": "d0c86c70aa6d16a0f615bc1ac8c9f5421d8cbf8589e082df246f445f08032221",
      "hash": "d0c86c70aa6d16a0f615bc1ac8c9f5421d8cbf8589e082df246f445f08032221",
      "version": 1,
      "size": 135,
      "vsize": 135,
      "weight": 540,
      "locktime": 0,
      "vin": [
        {
          "coinbase": "04ffff001d020a09",
          "sequence": 4294967295
        }
      ],
      "vout": [
        {
          "value": 50.0,
          "n": 0,
          "scriptPubKey": {
            "asm": "047e5952ef1cca595b60af692b087f8a22858d20714503c1adb0b55a564c9a0d26ef5195b9abd313d0d41e24a69b2015ef271350d11f563699db308907cb71605e OP_CHECKSIG",
            "desc": "pk(047e5952ef1cca595b60af692b087f8a22858d20714503c1adb0b55a564c9a0d26ef5195b9abd313d0d41e24a69b2015ef271350d11f563699db308907cb71605e)#cgahvapm",
            "hex": "41047e5952ef1cca595b60af692b087f8a22858d20714503c1adb0b55a564c9a0d26ef5195b9abd313d0d41e24a69b2015ef271350d11f563699db308907cb71605eac",
            "type": "pubkey"
          }
        }
      ],
      "hex": "01000000010000000000000000000000000000000000000000000000000000000000000000ffffffff0804ffff001d020a09ffffffff0100f2052a010000004341047e5952ef1cca595b60af692b087f8a22858d20714503c1adb0b55a564c9a0d26ef5195b9abd313d0d41e24a69b2015ef271350d11f563699db308907cb71605eac00000000"
    }
  ]
}