{
  "hash": "000000000c26bbb4b7fa0da20e0ba50584547dd324a1b9230533b8a475903873",
  "confirmations": 52188,
  "height": 910,
  "version": 1,
  "versionHex": "00000001",
  "merkleroot": "ef166d2a815faa7995e8476ea6a4cfd12322aeb75422a715bca33a709e4f9171",
  "time": 1232284184,
  "mediantime": 1232280459,
  "nonce": 2889275441,
  "bits": "1d00ffff",
  "difficulty": 1,
  "chainwork": "0000000000000000000000000000000000000000000000000000038f038f038f",
  "nTx": 1,
  "previousblockhash": "000000001296a12c71fb7ab664179a0d47d0d6a96eaf1b5590d6d0ebbd472744",
  "nextblockhash": "0000000047560030cea942ff993f9c5464dd6499e7118d189c56ca57a465bcb7",
  "strippedsize": 216,
  "size": 216,
  "weight": 864,
  "tx": [
    {
      "txid": "ef166d2a815faa7995e8476ea6a4cfd12322aeb75422a715bca33a709e4f9171",
      "hash": "ef166d2a815faa7995e8476ea6a4cfd12322aeb75422a715bca33a709e4f9171",
      "version": 1,
      "size": 135,
      "vsize": 135,
      "weight": 540,
      "locktime": 0,
      "vin": [
        {
          "coinbase": "04ffff001d02d203",
          "sequence": 4294967295
        }
      ],
      "vout": [
        {
          "value": 50.0,
          "n": 0,
          "scriptPubKey": {
            "asm": "042b4dbaa91546669ebf24a065c39d3ac043a21c1f0b199b1341607439493674b11653d53647544b525fb3e8b1a5d7bc4be66726cd2da2520412227f552fb8521d OP_CHECKSIG",
            "desc": "pk(042b4dbaa91546669ebf24a065c39d3ac043a21c1f0b199b1341607439493674b11653d53647544b525fb3e8b1a5d7bc4be66726cd2da2520412227f552fb8521d)#h2vy4x8q",
            "hex": "41042b4dbaa91546669ebf24a065c39d3ac043a21c1f0b199b1341607439493674b11653d53647544b525fb3e8b1a5d7bc4be66726cd2da2520412227f552fb8521dac",
            "type": "pubkey"
          }
        }
      ],
      "hex": "01000000010000000000000000000000000000000000000000000000000000000000000000ffffffff0804ffff001d02d203ffffffff0100f2052a010000004341042b4dbaa91546669ebf24a065c39d3ac043a21c1f0b199b1341607439493674b11653d53647544b525fb3e8b1a5d7bc4be66726cd2da2520412227f552fb8521dac00000000"
    }
  ]
}