{
  "hash": "0000000054f5445a546e095668d56d66fbf5c977561da29b3ae8b97db9526d7b",
  "confirmations": 52207,
  "height": 414,
  "version": 1,
  "versionHex": "00000001",
  "merkleroot": "2ff4eef34690b1c8c69aadd0d2ff6d8b5507829a3806e584811d78480aa79dc3",
  "time": 1231912058,
  "mediantime": 1231908863,
  "nonce": 2593383705,
  "bits": "1d00ffff",
  "difficulty": 1,
  "chainwork": "0000000000000000000000000000000000000000000000000000019f019f019f",
  "nTx": 1,
  "previousblockhash": "00000000621e04b0b315c9d341f8b4ff269443178a9e895e49042e3dee11fda1",
  "nextblockhash": "000000003f7e074587fa1684ac863519fea3c64040b05ddd04948a13f7b19b42",
  "strippedsize": 216,
  "size": 216,
  "weight": 864,
  "tx": [
    {
      "txid": "2ff4eef34690b1c8c69aadd0d2ff6d8b5507829a3806e584811d78480aa79dc3",
      "hash": "2ff4eef34690b1c8c69aadd0d2ff6d8b5507829a3806e584811d78480aa79dc3",
      "version": 1,
      "size": 135,
      "vsize": 135,
      "weight": 540,
      "locktime": 0,
      "vin": [
        {
          "coinbase": "04ffff001d02e202",
          "sequence": 4294967295
        }
      ],
      "vout": [
        {
          "value": 50.0,
          "n": 0,
          "scriptPubKey": {
            "asm": "045d4a66935b248db4198a8b290d10ccb90de7f9589c081d155ee902350bb67a09791b2ae46b895c9a8a70160727996838b0d86053f04d9c338da52af1a670a844 OP_CHECKSIG",
            "desc": "pk(045d4a66935b248db4198a8b290d10ccb90de7f9589c081d155ee902350bb67a09791b2ae46b895c9a8a70160727996838b0d86053f04d9c338da52af1a670a844)#lz8p7d2d",
            "hex": "41045d4a66935b248db4198a8b290d10ccb90de7f9589c081d155ee902350bb67a09791b2ae46b895c9a8a70160727996838b0d86053f04d9c338da52af1a670a844ac",
            "type": "pubkey"
          }
        }
      ],
      "hex": "01000000010000000000000000000000000000000000000000000000000000000000000000ffffffff0804ffff001d02e202ffffffff0100f2052a010000004341045d4a66935b248db4198a8b290d10ccb90de7f9589c081d155ee902350bb67a09791b2ae46b895c9a8a70160727996838b0d86053f04d9c338da52af1a670a844ac00000000"
    }
  ]
}