{
  "hash": "000000000f39c341df325173430f32af8912a446b53dbbc9d1e2a93d860aa773",
  "confirmations": 50478,
  "height": 2620,
  "version": 1,
  "versionHex": "00000001",
  "merkleroot": "af35096d83eeba76aeb283d20cbcc7bb0e1a30a134ce300f895a90b9dd419d83",
  "time": 1233508512,
  "mediantime": 1233504057,
  "nonce": 270689973,
  "bits": "1d00ffff",
  "difficulty": 1,
  "chainwork": "00000000000000000000000000000000000000000000000000000a3d0a3d0a3d",
  "nTx": 1,
  "previousblockhash": "00000000eb3e381ed39e7eeea17eb4a347719958ed9b392ce0405198d7fb949b",
  "nextblockhash": "000000007235eda3143cf68087b0056ff54f274afa7495a19ad8c2d75e814a2d",
  "strippedsize": 215,
  "size": 215,
  "weight": 860,
  "tx": [
    {
      "txid": "af35096d83eeba76aeb283d20cbcc7bb0e1a30a134ce300f895a90b9dd419d83",
      "hash": "af35096d83eeba76aeb283d20cbcc7bb0e1a30a134ce300f895a90b9dd419d83",
      "version": 1,
      "size": 134,
      "vsize": 134,
      "weight": 536,
      "locktime": 0,
      "vin": [
        {
          "coinbase": "04ffff001d0120",
          "sequence": 4294967295
        }
      ],
      "vout": [
        {
          "value": 50.0,
          "n": 0,
          "scriptPubKey": {
            "asm": "0439a9f04d45e9e6893ee36b3546c9d953b1d3e52263ddd5d1445da035ca529023c63266795aa5b868ac10d16e2f89d615e316ddf49aef503b5b75bf4d5f970ed5 OP_CHECKSIG",
            "desc": "pk(0439a9f04d45e9e6893ee36b3546c9d953b1d3e52263ddd5d1445da035ca529023c63266795aa5b868ac10d16e2f89d615e316ddf49aef503b5b75bf4d5f970ed5)#hqxz50a9",
            "hex": "410439a9f04d45e9e6893ee36b3546c9d953b1d3e52263ddd5d1445da035ca529023c63266795aa5b868ac10d16e2f89d615e316ddf49aef503b5b75bf4d5f970ed5ac",
            "type": "pubkey"
          }
        }
      ],
      "hex": "01000000010000000000000000000000000000000000000000000000000000000000000000ffffffff0704ffff001d0120ffffffff0100f2052a0100000043410439a9f04d45e9e6893ee36b3546c9d953b1d3e52263ddd5d1445da035ca529023c63266795aa5b868ac10d16e2f89d615e316ddf49aef503b5b75bf4d5f970ed5ac00000000"
    }
  ]
}