{
  "hash": "000000008d84d3d671ef1d7b3996427f6ce578098708074647d002bc8a118a36",
  "confirmations": 50238,
  "height": 2860,
  "version": 1,
  "versionHex": "00000001",
  "merkleroot": "160efdbc1adb25a11db88eebdaa44e2d2d8fd259bef3a816724dd22d3815ff42",
  "time": 1233664875,
  "mediantime": 1233660553,
  "nonce": 3803235863,
  "bits": "1d00ffff",
  "difficulty": 1,
  "chainwork": "00000000000000000000000000000000000000000000000000000b2d0b2d0b2d",
  "nTx": 1,
  "previousblockhash": "000000008f7acf8bcd700f8e96e31a2d6a7b2e002f9fa9fbf559b520b1bd5e00",
  "nextblockhash": "00000000ec36c8bedef9062c8ede8ce0141f364dad2204f1d88a63ba94809288",
  "strippedsize": 216,
  "size": 216,
  "weight": 864,
  "tx": [
    {
      "txid": "160efdbc1adb25a11db88eebdaa44e2d2d8fd259bef3a816724dd22d3815ff42",
      "hash": "160efdbc1adb25a11db88eebdaa44e2d2d8fd259bef3a816724dd22d3815ff42",
      "version": 1,
      "size": 135,
      "vsize": 135,
      "weight": 540,
      "locktime": 0,
      "vin": [
        {
          "coinbase": "04ffff001d02ed06",
          "sequence": 4294967295
        }
      ],
      "vout": [
        {
          "value": 50.0,
          "n": 0,
          "scriptPubKey": {
            "asm": "0436b9565f1577a1dd53d3a1b3b42e74667e86111609acbdeeb30f37776a8227c3f32f03104a4cdea0b03e3697b37e1eea99ee756ae0ef938b89e46a9731dd7165 OP_CHECKSIG",
            "desc": "pk(0436b9565f1577a1dd53d3a1b3b42e74667e86111609acbdeeb30f37776a8227c3f32f03104a4cdea0b03e3697b37e1eea99ee756ae0ef938b89e46a9731dd7165)#j5sh49nm",
            "hex": "410436b9565f1577a1dd53d3a1b3b42e74667e86111609acbdeeb30f37776a8227c3f32f03104a4cdea0b03e3697b37e1eea99ee756ae0ef938b89e46a9731dd7165ac",
            "type": "pubkey"
          }
        }
      ],
      "hex": "01000000010000000000000000000000000000000000000000000000000000000000000000ffffffff0804ffff001d02ed06ffffffff0100f2052a0100000043410436b9565f1577a1dd53d3a1b3b42e74667e86111609acbdeeb30f37776a8227c3f32f03104a4cdea0b03e3697b37e1eea99ee756ae0ef938b89e46a9731dd7165ac00000000"
    }
  ]
}