{
  "hash": "00000000c29bdae03f2f331c1ff69309ed7b55ed0c21d2e63ac4d36c6aa61bde",
  "confirmations": 47565,
  "height": 5533,
  "version": 1,
  "versionHex": "00000001",
  "merkleroot": "6eebf8954cf5c6355e91e4c8e5a277dfa43d2dab7f010a3bb20ea97120a995a8",
  "time": 1235546406,
  "mediantime": 1235544101,
  "nonce": 458804505,
  "bits": "1d00ffff",
  "difficulty": 1,
  "chainwork": "0000000000000000000000000000000000000000000000000000159e159e159e",
  "nTx": 1,
  "previousblockhash": "000000001d58b1c023e458203f5389eeea6a325cdf75306d1cbc5c06620dfb41",
  "nextblockhash": "000000001c62d16f6f854444bd1e4cb28243a9dd8760e9a29a5adeee001bc6c6",
  "strippedsize": 216,
  "size": 216,
  "weight": 864,
  "tx": [
    {
      "txid": "6eebf8954cf5c6355e91e4c8e5a277dfa43d2dab7f010a3bb20ea97120a995a8",
      "hash": "6eebf8954cf5c6355e91e4c8e5a277dfa43d2dab7f010a3bb20ea97120a995a8",
      "version": 1,
      "size": 135,
      "vsize": 135,
      "weight": 540,
      "locktime": 0,
      "vin": [
        {
          "coinbase": "04ffff001d024206",
          "sequence": 4294967295
        }
      ],
      "vout": [
        {
          "value": 50.0,
          "n": 0,
          "scriptPubKey": {
            "asm": "0473ba643b30183816f3a6e343c10e3aa43c741c86fc6d228d4da5139e0fa68359ace1f3ebf89034458f81c2b01cf109c6277bfc51317e832c2b12819021b867b1 OP_CHECKSIG",
            "desc": "pk(0473ba643b30183816f3a6e343c10e3aa43c741c86fc6d228d4da5139e0fa68359ace1f3ebf89034458f81c2b01cf109c6277bfc51317e832c2b12819021b867b1)#zdk7f44k",
            "hex": "410473ba643b30183816f3a6e343c10e3aa43c741c86fc6d228d4da5139e0fa68359ace1f3ebf89034458f81c2b01cf109c6277bfc51317e832c2b12819021b867b1ac",
            "type": "pubkey"
          }
        }
      ],
      "hex": "01000000010000000000000000000000000000000000000000000000000000000000000000ffffffff0804ffff001d024206ffffffff0100f2052a0100000043410473ba643b30183816f3a6e343c10e3aa43c741c86fc6d228d4da5139e0fa68359ace1f3ebf89034458f81c2b01cf109c6277bfc51317e832c2b12819021b867b1ac00000000"
    }
  ]
}