{
  "hash": "000000009b394bf0aa56f48ab07275e849205f5c6c3985c1b3e5d5aef7b1e002",
  "confirmations": 50594,
  "height": 2504,
  "version": 1,
  "versionHex": "00000001",
  "merkleroot": "5b8595d18d8f274da1d4585f40318ef2d0e7baa567a593cf93476ef7ee690d70",
  "time": 1233422559,
  "mediantime": 1233421196,
  "nonce": 174979789,
  "bits": "1d00ffff",
  "difficulty": 1,
  "chainwork": "000000000000000000000000000000000000000000000000000009c909c909c9",
  "nTx": 1,
  "previousblockhash": "000000005027b4df8186a6221dab20522ec47a5c5eb146c3bc56c1429ddd26de",
  "nextblockhash": "00000000ab860c3da6ff611c6c618d2ccb184c00bb288ac3d602cc41450e4c7c",
  "strippedsize": 215,
  "size": 215,
  "weight": 860,
  "tx": [
    {
      "txid": "5b8595d18d8f274da1d4585f40318ef2d0e7baa567a593cf93476ef7ee690d70",
      "hash": "5b8595d18d8f274da1d4585f40318ef2d0e7baa567a593cf93476ef7ee690d70",
      "version": 1,
      "size": 134,
      "vsize": 134,
      "weight": 536,
      "locktime": 0,
      "vin": [
        {
          "coinbase": "04ffff001d010f",
          "sequence": 4294967295
        }
      ],
      "vout": [
        {
          "value": 50.0,
          "n": 0,
          "scriptPubKey": {
            "asm": "043701fe697dcafc1b0baa36b12656293394f9acae4d64bde58cfa98d843d85cff51ea960019007111433c03c613fcb72205a6926c36b26ec26dc4b62094b58267 OP_CHECKSIG",
            "desc": "pk(043701fe697dcafc1b0baa36b12656293394f9acae4d64bde58cfa98d843d85cff51ea960019007111433c03c613fcb72205a6926c36b26ec26dc4b62094b58267)#u3h2ht00",
            "hex": "41043701fe697dcafc1b0baa36b12656293394f9acae4d64bde58cfa98d843d85cff51ea960019007111433c03c613fcb72205a6926c36b26ec26dc4b62094b58267ac",
            "type": "pubkey"
          }
        }
      ],
      "hex": "01000000010000000000000000000000000000000000000000000000000000000000000000ffffffff0704ffff001d010fffffffff0100f2052a010000004341043701fe697dcafc1b0baa36b12656293394f9acae4d64bde58cfa98d843d85cff51ea960019007111433c03c613fcb72205a6926c36b26ec26dc4b62094b58267ac00000000"
    }
  ]
}