{
  "hash": "00000000f918fbed0d800462cd4f37c25109185019daaac1789134feea9c641e",
  "confirmations": 51232,
  "height": 1866,
  "version": 1,
  "versionHex": "00000001",
  "merkleroot": "0bef7a440ecdbb3a89a674491b2009524d0fb2c546bac978ad5ca5c2743d6ef6",
  "time": 1232929063,
  "mediantime": 1232927244,
  "nonce": 280454442,
  "bits": "1d00ffff",
  "difficulty": 1,
  "chainwork": "0000000000000000000000000000000000000000000000000000074b074b074b",
  "nTx": 1,
  "previousblockhash": "00000000cabdfa62f62553973d5ba3a0e74eb5b4d6e03366f79bd05f2a7c5646",
  "nextblockhash": "00000000d0770388d9f8e34235e8a46f6acf92777b489b45a8bbb088e881310d",
  "strippedsize": 216,
  "size": 216,
  "weight": 864,
  "tx": [
    {
      "txid": "0bef7a440ecdbb3a89a674491b2009524d0fb2c546bac978ad5ca5c2743d6ef6",
      "hash": "0bef7a440ecdbb3a89a674491b2009524d0fb2c546bac978ad5ca5c2743d6ef6",
      "version": 1,
      "size": 135,
      "vsize": 135,
      "weight": 540,
      "locktime": 0,
      "vin": [
        {
          "coinbase": "04ffff001d02c804",
          "sequence": 4294967295
        }
      ],
      "vout": [
        {
          "value": 50.0,
          "n": 0,
          "scriptPubKey": {
            "asm": "0495f7b5eebab779aebf43f988ef71fde2c21475632f7f4f35c8d94e4de127e8b5e86289b45acfaaebd058ce79727152af20f287af7537341a621a83515ee39255 OP_CHECKSIG",
            "desc": "pk(0495f7b5eebab779aebf43f988ef71fde2c21475632f7f4f35c8d94e4de127e8b5e86289b45acfaaebd058ce79727152af20f287af7537341a621a83515ee39255)#nmjf8y9m",
            "hex": "410495f7b5eebab779aebf43f988ef71fde2c21475632f7f4f35c8d94e4de127e8b5e86289b45acfaaebd058ce79727152af20f287af7537341a621a83515ee39255ac",
            "type": "pubkey"
          }
        }
      ],
      "hex": "01000000010000000000000000000000000000000000000000000000000000000000000000ffffffff0804ffff001d02c804ffffffff0100f2052a0100000043410495f7b5eebab779aebf43f988ef71fde2c21475632f7f4f35c8d94e4de127e8b5e86289b45acfaaebd058ce79727152af20f287af7537341a621a83515ee39255ac00000000"
    }
  ]
}