{
  "hash": "00000000553e2cdc44d98aa62334fda136ac28d852a4c0734de579bd038c627b",
  "confirmations": 43958,
  "height": 9140,
  "version": 1,
  "versionHex": "00000001",
  "merkleroot": "66ee59c59585f737d43c4042d14fa6491101a40a08949eb8fc6120232dc6288e",
  "time": 1238361690,
  "mediantime": 1238356265,
  "nonce": 1442026781,
  "bits": "1d00ffff",
  "difficulty": 1,
  "chainwork": "000000000000000000000000000000000000000000000000000023b523b523b5",
  "nTx": 1,
  "previousblockhash": "000000008488ed3e83ffc1beda9048b09b3c4fb6a3009dcc48d2be74052e8455",
  "nextblockhash": "0000000077a5a0f4bc2d1d941e8c8295661ac4f5c25f2dc131447e7dac7be39a",
  "strippedsize": 216,
  "size": 216,
  "weight": 864,
  "tx": [
    {
      "txid": "66ee59c59585f737d43c4042d14fa6491101a40a08949eb8fc6120232dc6288e",
      "hash": "66ee59c59585f737d43c4042d14fa6491101a40a08949eb8fc6120232dc6288e",
      "version": 1,
      "size": 135,
      "vsize": 135,
      "weight": 540,
      "locktime": 0,
      "vin": [
        {
          "coinbase": "04ffff001d021d09",
          "sequence": 4294967295
        }
      ],
      "vout": [
        {
          "value": 50.0,
          "n": 0,
          "scriptPubKey": {
            "asm": "04da67d300a30e7dcc46f5fc6e2cd91c8119c4a81e80a661e8937ef3e04f76dcc14037cc173b0cf23a56e0baaa90e4c9e62ffadc2d27eaa342d3555e6965d8ece6 OP_CHECKSIG",
            "desc": "pk(04da67d300a30e7dcc46f5fc6e2cd91c8119c4a81e80a661e8937ef3e04f76dcc14037cc173b0cf23a56e0baaa90e4c9e62ffadc2d27eaa342d3555e6965d8ece6)#ea7kmusw",
            "hex": "4104da67d300a30e7dcc46f5fc6e2cd91c8119c4a81e80a661e8937ef3e04f76dcc14037cc173b0cf23a56e0baaa90e4c9e62ffadc2d27eaa342d3555e6965d8ece6ac",
            "type": "pubkey"
          }
        }
      ],
      "hex": "01000000010000000000000000000000000000000000000000000000000000000000000000ffffffff0804ffff001d021d09ffffffff0100f2052a01000000434104da67d300a30e7dcc46f5fc6e2cd91c8119c4a81e80a661e8937ef3e04f76dcc14037cc173b0cf23a56e0baaa90e4c9e62ffadc2d27eaa342d3555e6965d8ece6ac00000000"
    }
  ]
}