{
  "hash": "000000007b04c926a448ee2e0ad006efb5f36e23b18113fd4f092a79bff4d18d",
  "confirmations": 44761,
  "height": 8337,
  "version": 1,
  "versionHex": "00000001",
  "merkleroot": "88772f1814ed693a223b56fdcf2839dcb8758004f5d10901bf3fb322499b5744",
  "time": 1237758783,
  "mediantime": 1237754626,
  "nonce": 3204195887,
  "bits": "1d00ffff",
  "difficulty": 1,
  "chainwork": "0000000000000000000000000000000000000000000000000000209220922092",
  "nTx": 1,
  "previousblockhash": "000000002a0a75f55d31664d286633abc3ac468d6f4d440677056b4f907eb8c3",
  "nextblockhash": "0000000070d7aa2d2d8611330edbc8c7af20de6b82833a4e5c93ff617db1656a",
  "strippedsize": 216,
  "size": 216,
  "weight": 864,
  "tx": [
    {
      "txid": "88772f1814ed693a223b56fdcf2839dcb8758004f5d10901bf3fb322499b5744",
      "hash": "88772f1814ed693a223b56fdcf2839dcb8758004f5d10901bf3fb322499b5744",
      "version": 1,
      "size": 135,
      "vsize": 135,
      "weight": 540,
      "locktime": 0,
      "vin": [
        {
          "coinbase": "04ffff001d02c304",
          "sequence": 4294967295
        }
      ],
      "vout": [
        {
          "value": 50.0,
          "n": 0,
          "scriptPubKey": {
            "asm": "04c6b1d5e1a1ef0ac2417251901847438a4e0569cee66b24cedb8554dc80a48a3cece4285a3a61a34eca5381366f1b4c30a5e8da7815b31edf42e2848c37e5cbcd OP_CHECKSIG",
            "desc": "pk(04c6b1d5e1a1ef0ac2417251901847438a4e0569cee66b24cedb8554dc80a48a3cece4285a3a61a34eca5381366f1b4c30a5e8da7815b31edf42e2848c37e5cbcd)#v9fldhu7",
            "hex": "4104c6b1d5e1a1ef0ac2417251901847438a4e0569cee66b24cedb8554dc80a48a3cece4285a3a61a34eca5381366f1b4c30a5e8da7815b31edf42e2848c37e5cbcdac",
            "type": "pubkey"
          }
        }
      ],
      "hex": "01000000010000000000000000000000000000000000000000000000000000000000000000ffffffff0804ffff001d02c304ffffffff0100f2052a01000000434104c6b1d5e1a1ef0ac2417251901847438a4e0569cee66b24cedb8554dc80a48a3cece4285a3a61a34eca5381366f1b4c30a5e8da7815b31edf42e2848c37e5cbcdac00000000"
    }
  ]
}