{
  "hash": "000000003945dbebda4b0440b7f7d867fb576d6dbcd3cb6f90f140e0669316ff",
  "confirmations": 48209,
  "height": 4889,
  "version": 1,
  "versionHex": "00000001",
  "merkleroot": "79e34448c02d3a11ef1373774435b357763f6a77d08506bc58848b69c7801793",
  "time": 1235063761,
  "mediantime": 1235060461,
  "nonce": 1372710451,
  "bits": "1d00ffff",
  "difficulty": 1,
  "chainwork": "0000000000000000000000000000000000000000000000000000131a131a131a",
  "nTx": 1,
  "previousblockhash": "000000001432802571b294a8de2af8f53e36c5ded250bee8b4ef5caa126fca96",
  "nextblockhash": "000000000d850008d6b22db13e0d5d2c167f7d416a460a1e569b16ac216e1658",
  "strippedsize": 216,
  "size": 216,
  "weight": 864,
  "tx": [
    {
      "txid": "79e34448c02d3a11ef1373774435b357763f6a77d08506bc58848b69c7801793",
      "hash": "79e34448c02d3a11ef1373774435b357763f6a77d08506bc58848b69c7801793",
      "version": 1,
      "size": 135,
      "vsize": 135,
      "weight": 540,
      "locktime": 0,
      "vin": [
        {
          "coinbase": "04ffff001d028d05",
          "sequence": 4294967295
        }
      ],
      "vout": [
        {
          "value": 50.0,
          "n": 0,
          "scriptPubKey": {
            "asm": "0467e71a3ed13d7e1d49c8fd757509ba3f46774efec45d4fe3f4a780356520bd166043b3a68e2d6aeb2647701585b75ba0a7e237a6383f473b4ea8f0bf005ac114 OP_CHECKSIG",
            "desc": "pk(0467e71a3ed13d7e1d49c8fd757509ba3f46774efec45d4fe3f4a780356520bd166043b3a68e2d6aeb2647701585b75ba0a7e237a6383f473b4ea8f0bf005ac114)#wnln9z09",
            "hex": "410467e71a3ed13d7e1d49c8fd757509ba3f46774efec45d4fe3f4a780356520bd166043b3a68e2d6aeb2647701585b75ba0a7e237a6383f473b4ea8f0bf005ac114ac",
            "type": "pubkey"
          }
        }
      ],
      "hex": "01000000010000000000000000000000000000000000000000000000000000000000000000ffffffff0804ffff001d028d05ffffffff0100f2052a0100000043410467e71a3ed13d7e1d49c8fd757509ba3f46774efec45d4fe3f4a780356520bd166043b3a68e2d6aeb2647701585b75ba0a7e237a6383f473b4ea8f0bf005ac114ac00000000"
    }
  ]
}