{
  "hash": "00000000e1ed138cec4b902f562224ee7bc00b868c551bc6c5fb14cdcaf937ee",
  "confirmations": 44696,
  "height": 8402,
  "version": 1,
  "versionHex": "00000001",
  "merkleroot": "92e48659b3b42a39866dee81e5fc4ac979b03d993b08c35e1f7df3929c3a2fc0",
  "time": 1237800192,
  "mediantime": 1237798644,
  "nonce": 73364261,
  "bits": "1d00ffff",
  "difficulty": 1,
  "chainwork": "000000000000000000000000000000000000000000000000000020d320d320d3",
  "nTx": 1,
  "previousblockhash": "00000000b0be827c7f99d96cf4e9187ce77c0f3c67613fe1326834706df88492",
  "nextblockhash": "0000000083759192b42b4f30c3de656f5132c4224f7d68b7f2af735112b676dd",
  "strippedsize": 216,
  "size": 216,
  "weight": 864,
  "tx": [
    {
      "txid": "92e48659b3b42a39866dee81e5fc4ac979b03d993b08c35e1f7df3929c3a2fc0",
      "hash": "92e48659b3b42a39866dee81e5fc4ac979b03d993b08c35e1f7df3929c3a2fc0",
      "version": 1,
      "size": 135,
      "vsize": 135,
      "weight": 540,
      "locktime": 0,
      "vin": [
        {
          "coinbase": "04ffff001d02e602",
          "sequence": 4294967295
        }
      ],
      "vout": [
        {
          "value": 50.0,
          "n": 0,
          "scriptPubKey": {
            "asm": "04139f89def8dddd4191df1a31f918e890ff9aa404f40a9329663dd42203adeb59d5fd298ec307b35e084095e9cd302dc1d08a61344ae6576a9b2e7d8d2d3aa2f9 OP_CHECKSIG",
            "desc": "pk(04139f89def8dddd4191df1a31f918e890ff9aa404f40a9329663dd42203adeb59d5fd298ec307b35e084095e9cd302dc1d08a61344ae6576a9b2e7d8d2d3aa2f9)#3slpxddq",
            "hex": "4104139f89def8dddd4191df1a31f918e890ff9aa404f40a9329663dd42203adeb59d5fd298ec307b35e084095e9cd302dc1d08a61344ae6576a9b2e7d8d2d3aa2f9ac",
            "type": "pubkey"
          }
        }
      ],
      "hex": "01000000010000000000000000000000000000000000000000000000000000000000000000ffffffff0804ffff001d02e602ffffffff0100f2052a01000000434104139f89def8dddd4191df1a31f918e890ff9aa404f40a9329663dd42203adeb59d5fd298ec307b35e084095e9cd302dc1d08a61344ae6576a9b2e7d8d2d3aa2f9ac00000000"
    }
  ]
}