{
  "hash": "00000000dc9149f7231f7295c4045ddf952c6424575afbb8dd07c5e7f0d0567d",
  "confirmations": 50371,
  "height": 2727,
  "version": 1,
  "versionHex": "00000001",
  "merkleroot": "a10d729626b69147fa59ef5c1a9532476ff3bbfcd5827bd548afe8f6ce8ac28e",
  "time": 1233582954,
  "mediantime": 1233578799,
  "nonce": 256945697,
  "bits": "1d00ffff",
  "difficulty": 1,
  "chainwork": "00000000000000000000000000000000000000000000000000000aa80aa80aa8",
  "nTx": 1,
  "previousblockhash": "00000000beb2d3ca0b4e46a1fa2b2ed679f4bd4b4d36603ea4a7fb8fbf07cc67",
  "nextblockhash": "000000002eababc383ae816a69515f21ce47e99eff7ddca9a2e9d8cc82f54bf6",
  "strippedsize": 215,
  "size": 215,
  "weight": 860,
  "tx": [
    {
      "txid": "a10d729626b69147fa59ef5c1a9532476ff3bbfcd5827bd548afe8f6ce8ac28e",
      "hash": "a10d729626b69147fa59ef5c1a9532476ff3bbfcd5827bd548afe8f6ce8ac28e",
      "version": 1,
      "size": 134,
      "vsize": 134,
      "weight": 536,
      "locktime": 0,
      "vin": [
        {
          "coinbase": "04ffff001d0111",
          "sequence": 4294967295
        }
      ],
      "vout": [
        {
          "value": 50.0,
          "n": 0,
          "scriptPubKey": {
            "asm": "0422ea4a2febbcfcd493c5f25a2e652d2d6d18c469dca9c63c4093edbdfada0d3918777b53056329c1a31644486bbd5de0db340aa203a6c10ad36dc227af8e06aa OP_CHECKSIG",
            "desc": "pk(0422ea4a2febbcfcd493c5f25a2e652d2d6d18c469dca9c63c4093edbdfada0d3918777b53056329c1a31644486bbd5de0db340aa203a6c10ad36dc227af8e06aa)#jrsgeg5n",
            "hex": "410422ea4a2febbcfcd493c5f25a2e652d2d6d18c469dca9c63c4093edbdfada0d3918777b53056329c1a31644486bbd5de0db340aa203a6c10ad36dc227af8e06aaac",
            "type": "pubkey"
          }
        }
      ],
      "hex": "01000000010000000000000000000000000000000000000000000000000000000000000000ffffffff0704ffff001d0111ffffffff0100f2052a0100000043410422ea4a2febbcfcd493c5f25a2e652d2d6d18c469dca9c63c4093edbdfada0d3918777b53056329c1a31644486bbd5de0db340aa203a6c10ad36dc227af8e06aaac00000000"
    }
  ]
}