{
  "hash": "0000000025075f093c42a0393c844bc59f90024b18a9f588f6fa3fc37487c3c2",
  "confirmations": 47881,
  "height": 5217,
  "version": 1,
  "versionHex": "00000001",
  "merkleroot": "42d90903f94156fbf411c9ef9c081be49bb501944580f2052b2805fe4f207d8a",
  "time": 1235298745,
  "mediantime": 1235293457,
  "nonce": 2139393307,
  "bits": "1d00ffff",
  "difficulty": 1,
  "chainwork": "0000000000000000000000000000000000000000000000000000146214621462",
  "nTx": 3,
  "previousblockhash": "000000002d98b5f04bfec834842873d9a8dcaf92f25817d5a3dd04c601b84b94",
  "nextblockhash": "00000000980997109d9cf5de1fe19aac6de68ce809a07fdb4c2a14050ce9b1d7",
  "strippedsize": 959,
  "size": 959,
  "weight": 3836,
  "tx": [
    {
      "txid": "a2949d0b9c413323c5cd47ac868e453d3200773fe76e2cbef29ec09c11ee68cf",
      "hash": "a2949d0b9c413323c5cd47ac868e453d3200773fe76e2cbef29ec09c11ee68cf",
      "version": 1,
      "size": 135,
      "vsize": 135,
      "weight": 540,
      "locktime": 0,
      "vin": [
        {
          "coinbase": "04ffff001d02c500",
          "sequence": 4294967295
        }
      ],
      "vout": [
        {
          "value": 50.0,
          "n": 0,
          "scriptPubKey": {
            "asm": "04f4af426e464d972012256f4cbe5df528aa99b1ceb489968a56cf6b295e6fad1473be89f66fbd3d16adf3dfba7c5253517d11d1d188fe858720497c4fc0a1ef9d OP_CHECKSIG",
            "desc": "pk(04f4af426e464d972012256f4cbe5df528aa99b1ceb489968a56cf6b295e6fad1473be89f66fbd3d16adf3dfba7c5253517d11d1d188fe858720497c4fc0a1ef9d)#arwsyu64",
            "hex": "4104f4af426e464d972012256f4cbe5df528aa99b1ceb489968a56cf6b295e6fad1473be89f66fbd3d16adf3dfba7c5253517d11d1d188fe858720497c4fc0a1ef9dac",
            "type": "pubkey"
          }
        }
      ],
      "hex": "01000000010000000000000000000000000000000000000000000000000000000000000000ffffffff0804ffff001d02c500ffffffff0100f2052a01000000434104f4af426e464d972012256f4cbe5df528aa99b1ceb489968a56cf6b295e6fad1473be89f66fbd3d16adf3dfba7c5253517d11d1d188fe858720497c4fc0a1ef9dac00000000"
    },
    {
      "txid": "9fa5efd12e4bdba914bf1acd03981c6e31eabaa8a8bd85fc2be36afe5a787c06",
      "hash": "9fa5efd12e4bdba914bf1acd03981c6e31eabaa8a8bd85fc2be36afe5a787c06",
      "version": 1,
      "size": 542,
      "vsize": 542,
      "weight": 2168,
      "locktime": 0,
      "vin": [
        {
          "txid": "3c5e48964a781208739ee27a9f78098930884d63f366f6e420983eb8bdbdda65",
          "vout": 0,
          "scriptSig": {
            "asm": "304502204c52c2301dcc3f6af7a3ef2ad118185ca2d52a7ae90013332ad53732a085b8d4022100f074ab99e77d5d4c54eb6bfc82c42a094d7d7eaf632d52897ef058c617a2bb23[ALL]",
            "hex": "48304502204c52c2301dcc3f6af7a3ef2ad118185ca2d52a7ae90013332ad53732a085b8d4022100f074ab99e77d5d4c54eb6bfc82c42a094d7d7eaf632d52897ef058c617a2bb2301"
          },
          "sequence": 4294967295
        },
        {
          "txid": "fca0ef33d719be00d7cd38b1c7eaa2bcc23948b5be7f7a529f1a459c6a4d40b7",
          "vout": 0,
          "scriptSig": {
            "asm": "304402206c55518aa596824d1e760afcfeb7b0103a1a82ea8dcd4c3474becc8246ba823702205009cbc40affa3414f9a139f38a86f81a401193f759fb514b9b1d4e2e49f82a4[ALL]",
            "hex": "47304402206c55518aa596824d1e760afcfeb7b0103a1a82ea8dcd4c3474becc8246ba823702205009cbc40affa3414f9a139f38a86f81a401193f759fb514b9b1d4e2e49f82a401"
          },
          "sequence": 4294967295
        },
        {
          "txid": "ec30492fbf3258bde252ad921795d67066fd6e2aeba78b691d5589b57a8107cc",
          "vout": 0,
          "scriptSig": {
            "asm": "3045022100b485b4daa4af75b7b34b4f2338e7b96809c75fab5577905ade0789c7f821a69e022010d73d2a3c7fcfc6db911dead795b0aa7d5448447ad5efc7e516699955a18ac8[ALL]",
            "hex": "483045022100b485b4daa4af75b7b34b4f2338e7b96809c75fab5577905ade0789c7f821a69e022010d73d2a3c7fcfc6db911dead795b0aa7d5448447ad5efc7e516699955a18ac801"
          },
          "sequence": 4294967295
        },
        {
          "txid": "d9d0ca00077e82590dcea565d04cd75d48075cbfe164ee73b258e78eefef1ff6",
          "vout": 0,
          "scriptSig": {
            "asm": "3046022100bc6e89ee580d1c721b15c36d0a1218c9e78f6f7537616553341bbd1199fe615a02210093062f2c1a1c87f55b710011976a03dff57428e38dd640f6fbdef0fa52ad462d[ALL]",
            "hex": "493046022100bc6e89ee580d1c721b15c36d0a1218c9e78f6f7537616553341bbd1199fe615a02210093062f2c1a1c87f55b710011976a03dff57428e38dd640f6fbdef0fa52ad462d01"
          },
          "sequence": 4294967295
        }
      ],
      "vout": [
        {
          "value": 200.0,
          "n": 0,
          "scriptPubKey": {
            "asm": "0408998c08bbe6bba756e9b864722fe76ca403929382db2b120f9f621966b00af48f4b014b458bccd4f2acf63b1487ecb9547bc87bdecb08e9c4d08c138c76439a OP_CHECKSIG",
            "desc": "pk(0408998c08bbe6bba756e9b864722fe76ca403929382db2b120f9f621966b00af48f4b014b458bccd4f2acf63b1487ecb9547bc87bdecb08e9c4d08c138c76439a)#lr64nxe5",
            "hex": "410408998c08bbe6bba756e9b864722fe76ca403929382db2b120f9f621966b00af48f4b014b458bccd4f2acf63b1487ecb9547bc87bdecb08e9c4d08c138c76439aac",
            "type": "pubkey"
          }
        }
      ],
      "fee": 0.0,
      "hex": "010000000465dabdbdb83e9820e4f666f3634d88308909789f7ae29e730812784a96485e3c000000004948304502204c52c2301dcc3f6af7a3ef2ad118185ca2d52a7ae90013332ad53732a085b8d4022100f074ab99e77d5d4c54eb6bfc82c42a094d7d7eaf632d52897ef058c617a2bb2301ffffffffb7404d6a9c451a9f527a7fbeb54839c2bca2eac7b138cdd700be19d733efa0fc000000004847304402206c55518aa596824d1e760afcfeb7b0103a1a82ea8dcd4c3474becc8246ba823702205009cbc40affa3414f9a139f38a86f81a401193f759fb514b9b1d4e2e49f82a401ffffffffcc07817ab589551d698ba7eb2a6efd6670d6951792ad52e2bd5832bf2f4930ec0000000049483045022100b485b4daa4af75b7b34b4f2338e7b96809c75fab5577905ade0789c7f821a69e022010d73d2a3c7fcfc6db911dead795b0aa7d5448447ad5efc7e516699955a18ac801fffffffff61fefef8ee758b273ee64e1bf5c07485dd74cd065a5ce0d59827e0700cad0d9000000004a493046022100bc6e89ee580d1c721b15c36d0a1218c9e78f6f7537616553341bbd1199fe615a02210093062f2c1a1c87f55b710011976a03dff57428e38dd640f6fbdef0fa52ad462d01ffffffff0100c817a80400000043410408998c08bbe6bba756e9b864722fe76ca403929382db2b120f9f621966b00af48f4b014b458bccd4f2acf63b1487ecb9547bc87bdecb08e9c4d08c138c76439aac00000000"
    },
    {
      "txid": "bea2f18440827950003bfcc130d0a82ebff013cec3848cdc8cb1c06e15672333",
      "hash": "bea2f18440827950003bfcc130d0a82ebff013cec3848cdc8cb1c06e15672333",
      "version": 1,
      "size": 201,
      "vsize": 201,
      "weight": 804,
      "locktime": 0,
      "vin": [
        {
          "txid": "68b0d5ad0616f24a1c7c7ec24dad236eaa9d369453e102dc1ffc7593c97d3215",
          "vout": 0,
          "scriptSig": {
            "asm": "304602210086b55b7f2fa5395d1e90a85115ada930afa01b86116d6bbeeecd8e2b97eefbac022100d653846d378845df2ced4b4923dcae4b6ddd5e8434b25e1602928235054c8d53[ALL]",
            "hex": "49304602210086b55b7f2fa5395d1e90a85115ada930afa01b86116d6bbeeecd8e2b97eefbac022100d653846d378845df2ced4b4923dcae4b6ddd5e8434b25e1602928235054c8d5301"
          },
          "sequence": 4294967295
        }
      ],
      "vout": [
        {
          "value": 50.0,
          "n": 0,
          "scriptPubKey": {
            "asm": "04b68b035858a00051ca70dd4ba297168d9a3720b642c2e0cd08846bfbb144233b11b24c4b8565353b579bd7109800e42a1fc1e20dbdfbba6a12d0089aab313181 OP_CHECKSIG",
            "desc": "pk(04b68b035858a00051ca70dd4ba297168d9a3720b642c2e0cd08846bfbb144233b11b24c4b8565353b579bd7109800e42a1fc1e20dbdfbba6a12d0089aab313181)#tgqy7n2k",
            "hex": "4104b68b035858a00051ca70dd4ba297168d9a3720b642c2e0cd08846bfbb144233b11b24c4b8565353b579bd7109800e42a1fc1e20dbdfbba6a12d0089aab313181ac",
            "type": "pubkey"
          }
        }
      ],
      "fee": 0.0,
      "hex": "010000000115327dc99375fc1fdc02e15394369daa6e23ad4dc27e7c1c4af21606add5b068000000004a49304602210086b55b7f2fa5395d1e90a85115ada930afa01b86116d6bbeeecd8e2b97eefbac022100d653846d378845df2ced4b4923dcae4b6ddd5e8434b25e1602928235054c8d5301ffffffff0100f2052a01000000434104b68b035858a00051ca70dd4ba297168d9a3720b642c2e0cd08846bfbb144233b11b24c4b8565353b579bd7109800e42a1fc1e20dbdfbba6a12d0089aab313181ac00000000"
    }
  ]
}