{
  "hash": "000000008e35a1d59ea1be8d76683662f47fd13c62a9e347ad5845a26f762026",
  "confirmations": 51799,
  "height": 25,
  "version": 1,
  "versionHex": "00000001",
  "merkleroot": "9b0f52332d7d013b49016416c4818b5abb80b01ca526b7b813830348ad2321be",
  "time": 1231568646,
  "mediantime": 1231565995,
  "nonce": 837891875,
  "bits": "1d00ffff",
  "difficulty": 1,
  "chainwork": "0000000000000000000000000000000000000000000000000000001a001a001a",
  "nTx": 1,
  "previousblockhash": "00000000fc051fbbce89a487e811a5d4319d209785ea4f4b27fc83770d1e415f",
  "nextblockhash": "0000000041438e52d25bccab8798a92cabafdaad69a071d3d2a41718faf01098",
  "strippedsize": 215,
  "size": 215,
  "weight": 860,
  "tx": [
    {
      "txid": "9b0f52332d7d013b49016416c4818b5abb80b01ca526b7b813830348ad2321be",
      "hash": "9b0f52332d7d013b49016416c4818b5abb80b01ca526b7b813830348ad2321be",
      "version": 1,
      "size": 134,
      "vsize": 134,
      "weight": 536,
      "locktime": 0,
      "vin": [
        {
          "coinbase": "04ffff001d0141",
          "sequence": 4294967295
        }
      ],
      "vout": [
        {
          "value": 50.0,
          "n": 0,
          "scriptPubKey": {
            "asm": "04bff063a080c07aa9d8e7038c9d1bd7e5076fc28dd3e905b76517ad958e9df65e83abefcdbdcd7310231aaaf16a53e9bc24598826a3291e5dab338675618e7f12 OP_CHECKSIG",
            "desc": "pk(04bff063a080c07aa9d8e7038c9d1bd7e5076fc28dd3e905b76517ad958e9df65e83abefcdbdcd7310231aaaf16a53e9bc24598826a3291e5dab338675618e7f12)#5zppr436",
            "hex": "4104bff063a080c07aa9d8e7038c9d1bd7e5076fc28dd3e905b76517ad958e9df65e83abefcdbdcd7310231aaaf16a53e9bc24598826a3291e5dab338675618e7f12ac",
            "type": "pubkey"
          }
        }
      ],
      "hex": "01000000010000000000000000000000000000000000000000000000000000000000000000ffffffff0704ffff001d0141ffffffff0100f2052a01000000434104bff063a080c07aa9d8e7038c9d1bd7e5076fc28dd3e905b76517ad958e9df65e83abefcdbdcd7310231aaaf16a53e9bc24598826a3291e5dab338675618e7f12ac00000000"
    }
  ]
}