{
  "hash": "000000007e16b0176d894bebf52f6ceb5dd8553831e579b50726779633a1f2eb",
  "confirmations": 51993,
  "height": 107,
  "version": 1,
  "versionHex": "00000001",
  "merkleroot": "97e5c5228b572e1be5e91e0cf04784757a293a5efe2788df42868d5cc12a2382",
  "time": 1231666285,
  "mediantime": 1231662670,
  "nonce": 3211090732,
  "bits": "1d00ffff",
  "difficulty": 1,
  "chainwork": "0000000000000000000000000000000000000000000000000000006c006c006c",
  "nTx": 1,
  "previousblockhash": "00000000877c1915ebe7d24bee5b81ecafcf1bac5890283124a3d662a50a7714",
  "nextblockhash": "0000000042afd69ddd5c5e2e9f58f65e88bde9a53f9f8f69a6e5ca93b07a24cf",
  "strippedsize": 216,
  "size": 216,
  "weight": 864,
  "tx": [
    {
      "txid": "97e5c5228b572e1be5e91e0cf04784757a293a5efe2788df42868d5cc12a2382",
      "hash": "97e5c5228b572e1be5e91e0cf04784757a293a5efe2788df42868d5cc12a2382",
      "version": 1,
      "size": 135,
      "vsize": 135,
      "weight": 540,
      "locktime": 0,
      "vin": [
        {
          "coinbase": "04ffff001d028700",
          "sequence": 4294967295
        }
      ],
      "vout": [
        {
          "value": 50.0,
          "n": 0,
          "scriptPubKey": {
            "asm": "049a72c65160bbf2726ac4b4beacec13abf5d65be89f8ddb2347870ab1c091d1e1ae3314ff7384f9da33c31664ff5aafb958a762f37f8726428cab6dc2a5af0aad OP_CHECKSIG",
            "desc": "pk(049a72c65160bbf2726ac4b4beacec13abf5d65be89f8ddb2347870ab1c091d1e1ae3314ff7384f9da33c31664ff5aafb958a762f37f8726428cab6dc2a5af0aad)#9a3c6pns",
            "hex": "41049a72c65160bbf2726ac4b4beacec13abf5d65be89f8ddb2347870ab1c091d1e1ae3314ff7384f9da33c31664ff5aafb958a762f37f8726428cab6dc2a5af0aadac",
            "type": "pubkey"
          }
        }
      ],
      "hex": "01000000010000000000000000000000000000000000000000000000000000000000000000ffffffff0804ffff001d028700ffffffff0100f2052a010000004341049a72c65160bbf2726ac4b4beacec13abf5d65be89f8ddb2347870ab1c091d1e1ae3314ff7384f9da33c31664ff5aafb958a762f37f8726428cab6dc2a5af0aadac00000000"
    }
  ]
}