{
  "hash": "00000000dd622ce79e7ba9ac8a58ad8ec10cc5a94cc1711e99b96b9ed98083fe",
  "confirmations": 50675,
  "height": 2423,
  "version": 1,
  "versionHex": "00000001",
  "merkleroot": "010f54b877699c7ccc09b4ce2520c9e1a71e6b3de0acce1cdb5619368b7644f4",
  "time": 1233371264,
  "mediantime": 1233369028,
  "nonce": 71750664,
  "bits": "1d00ffff",
  "difficulty": 1,
  "chainwork": "0000000000000000000000000000000000000000000000000000097809780978",
  "nTx": 1,
  "previousblockhash": "00000000aae08040a40f8adb0e11c926e9500694bf2d2fa0f36a8165a2a67fe4",
  "nextblockhash": "000000006aea5ee991100b4a3d9b926aa1813d9b995342d4fba6484bc51d76b5",
  "strippedsize": 215,
  "size": 215,
  "weight": 860,
  "tx": [
    {
      "txid": "010f54b877699c7ccc09b4ce2520c9e1a71e6b3de0acce1cdb5619368b7644f4",
      "hash": "010f54b877699c7ccc09b4ce2520c9e1a71e6b3de0acce1cdb5619368b7644f4",
      "version": 1,
      "size": 134,
      "vsize": 134,
      "weight": 536,
      "locktime": 0,
      "vin": [
        {
          "coinbase": "04ffff001d0115",
          "sequence": 4294967295
        }
      ],
      "vout": [
        {
          "value": 50.0,
          "n": 0,
          "scriptPubKey": {
            "asm": "04a70f31948adc8622a1d30b88a88afd3c549b0a70a1a56c6976559bc061f132695f00113e30c7f87d05f1b67b54a7c814936696761081cf2d93e4da37d96dcb55 OP_CHECKSIG",
            "desc": "pk(04a70f31948adc8622a1d30b88a88afd3c549b0a70a1a56c6976559bc061f132695f00113e30c7f87d05f1b67b54a7c814936696761081cf2d93e4da37d96dcb55)#zlfws76y",
            "hex": "4104a70f31948adc8622a1d30b88a88afd3c549b0a70a1a56c6976559bc061f132695f00113e30c7f87d05f1b67b54a7c814936696761081cf2d93e4da37d96dcb55ac",
            "type": "pubkey"
          }
        }
      ],
      "hex": "01000000010000000000000000000000000000000000000000000000000000000000000000ffffffff0704ffff001d0115ffffffff0100f2052a01000000434104a70f31948adc8622a1d30b88a88afd3c549b0a70a1a56c6976559bc061f132695f00113e30c7f87d05f1b67b54a7c814936696761081cf2d93e4da37d96dcb55ac00000000"
    }
  ]
}