{
  "hash": "00000000212d49b27f9085ff0f64ce3da962dc1d14288c75e1bd75c4be84458e",
  "confirmations": 43160,
  "height": 9938,
  "version": 1,
  "versionHex": "00000001",
  "merkleroot": "2e6bb7c36fe1e4f59ebbec52b29684118519640b77dab79d8b8e549fc7e3ac72",
  "time": 1238946279,
  "mediantime": 1238944477,
  "nonce": 1732088865,
  "bits": "1d00ffff",
  "difficulty": 1,
  "chainwork": "000000000000000000000000000000000000000000000000000026d326d326d3",
  "nTx": 1,
  "previousblockhash": "0000000037859d141f0e4f14daa08f1d4c0f1c8754adf01908ad14ae239437fe",
  "nextblockhash": "00000000220d3c67d4cf9a9aff38eeda2170b0fa30ffd922e3ed7ff58a59a2ed",
  "strippedsize": 216,
  "size": 216,
  "weight": 864,
  "tx": [
    {
      "txid": "2e6bb7c36fe1e4f59ebbec52b29684118519640b77dab79d8b8e549fc7e3ac72",
      "hash": "2e6bb7c36fe1e4f59ebbec52b29684118519640b77dab79d8b8e549fc7e3ac72",
      "version": 1,
      "size": 135,
      "vsize": 135,
      "weight": 540,
      "locktime": 0,
      "vin": [
        {
          "coinbase": "04ffff001d029002",
          "sequence": 4294967295
        }
      ],
      "vout": [
        {
          "value": 50.0,
          "n": 0,
          "scriptPubKey": {
            "asm": "04352fe504cde20ad067337253c820718ebc6e6f3f4a6d16d9966a9677b64a264c2b305b5b7a97c605906a96a15e38c8130a64a4a1061af5a9b6c776f506ab1215 OP_CHECKSIG",
            "desc": "pk(04352fe504cde20ad067337253c820718ebc6e6f3f4a6d16d9966a9677b64a264c2b305b5b7a97c605906a96a15e38c8130a64a4a1061af5a9b6c776f506ab1215)#mjv90nlr",
            "hex": "4104352fe504cde20ad067337253c820718ebc6e6f3f4a6d16d9966a9677b64a264c2b305b5b7a97c605906a96a15e38c8130a64a4a1061af5a9b6c776f506ab1215ac",
            "type": "pubkey"
          }
        }
      ],
      "hex": "01000000010000000000000000000000000000000000000000000000000000000000000000ffffffff0804ffff001d029002ffffffff0100f2052a01000000434104352fe504cde20ad067337253c820718ebc6e6f3f4a6d16d9966a9677b64a264c2b305b5b7a97c605906a96a15e38c8130a64a4a1061af5a9b6c776f506ab1215ac00000000"
    }
  ]
}