{
  "hash": "00000000947dddd5cc9dab71d3088ca43f02bb3dab80712f693dd7ce67c0077a",
  "confirmations": 50788,
  "height": 2310,
  "version": 1,
  "versionHex": "00000001",
  "merkleroot": "357e889c45a2e7bbb0288cf7b71e98df9ef44aedf0d20c64366dbfd26291d9c9",
  "time": 1233287416,
  "mediantime": 1233283066,
  "nonce": 65326360,
  "bits": "1d00ffff",
  "difficulty": 1,
  "chainwork": "0000000000000000000000000000000000000000000000000000090709070907",
  "nTx": 1,
  "previousblockhash": "00000000d57d78286874d1070edbac52f2db69b0413214a112f63d620d259922",
  "nextblockhash": "00000000c56f613c78509701f4564954047124e8313743795ae073b86003012c",
  "strippedsize": 216,
  "size": 216,
  "weight": 864,
  "tx": [
    {
      "txid": "357e889c45a2e7bbb0288cf7b71e98df9ef44aedf0d20c64366dbfd26291d9c9",
      "hash": "357e889c45a2e7bbb0288cf7b71e98df9ef44aedf0d20c64366dbfd26291d9c9",
      "version": 1,
      "size": 135,
      "vsize": 135,
      "weight": 540,
      "locktime": 0,
      "vin": [
        {
          "coinbase": "04ffff001d02d501",
          "sequence": 4294967295
        }
      ],
      "vout": [
        {
          "value": 50.0,
          "n": 0,
          "scriptPubKey": {
            "asm": "04995634cf7d2d68213e2d8c832356938d0e712276421b9af6d2bac535d78d8e1b35f027e965990d5d28635586b1bf0f57059cfd00dadc8981eb51158a04875da4 OP_CHECKSIG",
            "desc": "pk(04995634cf7d2d68213e2d8c832356938d0e712276421b9af6d2bac535d78d8e1b35f027e965990d5d28635586b1bf0f57059cfd00dadc8981eb51158a04875da4)#fva23kel",
            "hex": "4104995634cf7d2d68213e2d8c832356938d0e712276421b9af6d2bac535d78d8e1b35f027e965990d5d28635586b1bf0f57059cfd00dadc8981eb51158a04875da4ac",
            "type": "pubkey"
          }
        }
      ],
      "hex": "01000000010000000000000000000000000000000000000000000000000000000000000000ffffffff0804ffff001d02d501ffffffff0100f2052a01000000434104995634cf7d2d68213e2d8c832356938d0e712276421b9af6d2bac535d78d8e1b35f027e965990d5d28635586b1bf0f57059cfd00dadc8981eb51158a04875da4ac00000000"
    }
  ]
}