{
  "hash": "00000000b2031d82577d9bb787414b85a64ade60ccc77aba4a226d68e66878c5",
  "confirmations": 50924,
  "height": 2174,
  "version": 1,
  "versionHex": "00000001",
  "merkleroot": "fba411024544a61730e78bef3dde645e430318a217a4516737755fa27ebfd1ef",
  "time": 1233194849,
  "mediantime": 1233188285,
  "nonce": 3781482800,
  "bits": "1d00ffff",
  "difficulty": 1,
  "chainwork": "0000000000000000000000000000000000000000000000000000087f087f087f",
  "nTx": 1,
  "previousblockhash": "00000000f9987ab7340cd2f131c213e651b22a94d96d5b001bf76b6eb0d6042a",
  "nextblockhash": "00000000f7a80dbc86ad8adb945f503d4199716553a1fe6c46811b524d1a765d",
  "strippedsize": 215,
  "size": 215,
  "weight": 860,
  "tx": [
    {
      "txid": "fba411024544a61730e78bef3dde645e430318a217a4516737755fa27ebfd1ef",
      "hash": "fba411024544a61730e78bef3dde645e430318a217a4516737755fa27ebfd1ef",
      "version": 1,
      "size": 134,
      "vsize": 134,
      "weight": 536,
      "locktime": 0,
      "vin": [
        {
          "coinbase": "04ffff001d0107",
          "sequence": 4294967295
        }
      ],
      "vout": [
        {
          "value": 50.0,
          "n": 0,
          "scriptPubKey": {
            "asm": "04ee3db9f7841b01f69333acdb1b8743242aa1765e094051602d440b944b008f01d2df844a133a4ff4dc9589e76bf34c479281a1974e12a85922f0778c7a279f56 OP_CHECKSIG",
            "desc": "pk(04ee3db9f7841b01f69333acdb1b8743242aa1765e094051602d440b944b008f01d2df844a133a4ff4dc9589e76bf34c479281a1974e12a85922f0778c7a279f56)#2kg9yhmk",
            "hex": "4104ee3db9f7841b01f69333acdb1b8743242aa1765e094051602d440b944b008f01d2df844a133a4ff4dc9589e76bf34c479281a1974e12a85922f0778c7a279f56ac",
            "type": "pubkey"
          }
        }
      ],
      "hex": "01000000010000000000000000000000000000000000000000000000000000000000000000ffffffff0704ffff001d0107ffffffff0100f2052a01000000434104ee3db9f7841b01f69333acdb1b8743242aa1765e094051602d440b944b008f01d2df844a133a4ff4dc9589e76bf34c479281a1974e12a85922f0778c7a279f56ac00000000"
    }
  ]
}