{
  "hash": "0000000020e3e93765e3c3bdf4ff2aeae61bcaa177d9bc4ab8dd8911110e8511",
  "confirmations": 46143,
  "height": 6955,
  "version": 1,
  "versionHex": "00000001",
  "merkleroot": "eff73fbadce9aaf0c87beafd5c5a709e15e3eb251529c58f0325168b9563c2c1",
  "time": 1236684319,
  "mediantime": 1236680134,
  "nonce": 49898549,
  "bits": "1d00ffff",
  "difficulty": 1,
  "chainwork": "00000000000000000000000000000000000000000000000000001b2c1b2c1b2c",
  "nTx": 1,
  "previousblockhash": "000000005446a2e7544a571fe72aac68046ad5e18d31badde7196eff89f2c43c",
  "nextblockhash": "00000000e29b4934eb46ea3a9a4a14af2e80019a25b6eb3549db9dfe1dc229d8",
  "strippedsize": 216,
  "size": 216,
  "weight": 864,
  "tx": [
    {
      "txid": "eff73fbadce9aaf0c87beafd5c5a709e15e3eb251529c58f0325168b9563c2c1",
      "hash": "eff73fbadce9aaf0c87beafd5c5a709e15e3eb251529c58f0325168b9563c2c1",
      "version": 1,
      "size": 135,
      "vsize": 135,
      "weight": 540,
      "locktime": 0,
      "vin": [
        {
          "coinbase": "04ffff001d02bd00",
          "sequence": 4294967295
        }
      ],
      "vout": [
        {
          "value": 50.0,
          "n": 0,
          "scriptPubKey": {
            "asm": "040697d242ed95ef5198c819d32e3f748a652bdd3f51603b8f00e0ed118be278d1a644358ca65d617a1651af892ee517658f1ae20445ea545262deaf509f24367f OP_CHECKSIG",
            "desc": "pk(040697d242ed95ef5198c819d32e3f748a652bdd3f51603b8f00e0ed118be278d1a644358ca65d617a1651af892ee517658f1ae20445ea545262deaf509f24367f)#9eujls2y",
            "hex": "41040697d242ed95ef5198c819d32e3f748a652bdd3f51603b8f00e0ed118be278d1a644358ca65d617a1651af892ee517658f1ae20445ea545262deaf509f24367fac",
            "type": "pubkey"
          }
        }
      ],
      "hex": "01000000010000000000000000000000000000000000000000000000000000000000000000ffffffff0804ffff001d02bd00ffffffff0100f2052a010000004341040697d242ed95ef5198c819d32e3f748a652bdd3f51603b8f00e0ed118be278d1a644358ca65d617a1651af892ee517658f1ae20445ea545262deaf509f24367fac00000000"
    }
  ]
}