{
  "hash": "00000000bc919cfb64f62de736d55cf79e3d535b474ace256b4fbb56073f64db",
  "confirmations": 51809,
  "height": 30,
  "version": 1,
  "versionHex": "00000001",
  "merkleroot": "f5e26c8b82401c585235c572ba8265f16f7d9304ed8e31c198eab571754f5331",
  "time": 1231602122,
  "mediantime": 1231568646,
  "nonce": 3893691144,
  "bits": "1d00ffff",
  "difficulty": 1,
  "chainwork": "0000000000000000000000000000000000000000000000000000001f001f001f",
  "nTx": 1,
  "previousblockhash": "00000000c57a1b6351208c592eef8eff015d93c899a047fe35b35252a4a59bcb",
  "nextblockhash": "000000009700ff3494f215c412cd8c0ceabf1deb0df03ce39bcfc223b769d3c4",
  "strippedsize": 215,
  "size": 215,
  "weight": 860,
  "tx": [
    {
      "txid": "f5e26c8b82401c585235c572ba8265f16f7d9304ed8e31c198eab571754f5331",
      "hash": "f5e26c8b82401c585235c572ba8265f16f7d9304ed8e31c198eab571754f5331",
      "version": 1,
      "size": 134,
      "vsize": 134,
      "weight": 536,
      "locktime": 0,
      "vin": [
        {
          "coinbase": "04ffff001d0121",
          "sequence": 4294967295
        }
      ],
      "vout": [
        {
          "value": 50.0,
          "n": 0,
          "scriptPubKey": {
            "asm": "042cf59fafd089a348c5834283573608e89a305c60a034604c7d22dde50998f1b9bb74681986ca1884a6b1df8ce7f1b79a2277057de855a634626e7a5851c1e716 OP_CHECKSIG",
            "desc": "pk(042cf59fafd089a348c5834283573608e89a305c60a034604c7d22dde50998f1b9bb74681986ca1884a6b1df8ce7f1b79a2277057de855a634626e7a5851c1e716)#tafyhwq2",
            "hex": "41042cf59fafd089a348c5834283573608e89a305c60a034604c7d22dde50998f1b9bb74681986ca1884a6b1df8ce7f1b79a2277057de855a634626e7a5851c1e716ac",
            "type": "pubkey"
          }
        }
      ],
      "hex": "01000000010000000000000000000000000000000000000000000000000000000000000000ffffffff0704ffff001d0121ffffffff0100f2052a010000004341042cf59fafd089a348c5834283573608e89a305c60a034604c7d22dde50998f1b9bb74681986ca1884a6b1df8ce7f1b79a2277057de855a634626e7a5851c1e716ac00000000"
    }
  ]
}