{
  "hash": "00000000898b9cc3b3f49f236c195d2d8e90d0ad91ef4313b93e60333a0a8b5b",
  "confirmations": 51539,
  "height": 1559,
  "version": 1,
  "versionHex": "00000001",
  "merkleroot": "bf52ad206a8e8ee6cf0c74c4ba3511c9dc9ce17bc8f18fd7cc6063fcc190fb8e",
  "time": 1232793809,
  "mediantime": 1232790785,
  "nonce": 3525392405,
  "bits": "1d00ffff",
  "difficulty": 1,
  "chainwork": "0000000000000000000000000000000000000000000000000000061806180618",
  "nTx": 1,
  "previousblockhash": "000000008327b56c85f82bdd3fbf9bbaf5bf50712d5b7b2789a186d98ba48ba7",
  "nextblockhash": "000000006eccf4527b54c788162d57c66b8b5b3badeba857543ef9e621abc8d0",
  "strippedsize": 216,
  "size": 216,
  "weight": 864,
  "tx": [
    {
      "txid": "bf52ad206a8e8ee6cf0c74c4ba3511c9dc9ce17bc8f18fd7cc6063fcc190fb8e",
      "hash": "bf52ad206a8e8ee6cf0c74c4ba3511c9dc9ce17bc8f18fd7cc6063fcc190fb8e",
      "version": 1,
      "size": 135,
      "vsize": 135,
      "weight": 540,
      "locktime": 0,
      "vin": [
        {
          "coinbase": "04ffff001d02cc01",
          "sequence": 4294967295
        }
      ],
      "vout": [
        {
          "value": 50.0,
          "n": 0,
          "scriptPubKey": {
            "asm": "0462e6d9f04dc37e0eddd05a7227e87d0caeb79b2c75377f134e52ac1a703129107624da804b93157644826d0cd610834de2dcb6ec1edfe779bc7096ced16e8309 OP_CHECKSIG",
            "desc": "pk(0462e6d9f04dc37e0eddd05a7227e87d0caeb79b2c75377f134e52ac1a703129107624da804b93157644826d0cd610834de2dcb6ec1edfe779bc7096ced16e8309)#aaqyu9zj",
            "hex": "410462e6d9f04dc37e0eddd05a7227e87d0caeb79b2c75377f134e52ac1a703129107624da804b93157644826d0cd610834de2dcb6ec1edfe779bc7096ced16e8309ac",
            "type": "pubkey"
          }
        }
      ],
      "hex": "01000000010000000000000000000000000000000000000000000000000000000000000000ffffffff0804ffff001d02cc01ffffffff0100f2052a0100000043410462e6d9f04dc37e0eddd05a7227e87d0caeb79b2c75377f134e52ac1a703129107624da804b93157644826d0cd610834de2dcb6ec1edfe779bc7096ced16e8309ac00000000"
    }
  ]
}