{
  "hash": "00000000ad9541c4e7e642c4ff2208bf2bf44aba0166b17763e1b438afe61ed6",
  "confirmations": 45436,
  "height": 7662,
  "version": 1,
  "versionHex": "00000001",
  "merkleroot": "9af46afae8705512589f6fb970412ee1dd0d40a90594a63ae82576da9db43402",
  "time": 1237211211,
  "mediantime": 1237208041,
  "nonce": 1325846573,
  "bits": "1d00ffff",
  "difficulty": 1,
  "chainwork": "00000000000000000000000000000000000000000000000000001def1def1def",
  "nTx": 1,
  "previousblockhash": "000000000e6c383151952272004fa669ed3387b5fe8694d6032198b62d849d31",
  "nextblockhash": "00000000841f8dff7aa728b2d97e385fbba5b54e48be02a3da64041e63fc71d5",
  "strippedsize": 216,
  "size": 216,
  "weight": 864,
  "tx": [
    {
      "txid": "9af46afae8705512589f6fb970412ee1dd0d40a90594a63ae82576da9db43402",
      "hash": "9af46afae8705512589f6fb970412ee1dd0d40a90594a63ae82576da9db43402",
      "version": 1,
      "size": 135,
      "vsize": 135,
      "weight": 540,
      "locktime": 0,
      "vin": [
        {
          "coinbase": "04ffff001d028803",
          "sequence": 4294967295
        }
      ],
      "vout": [
        {
          "value": 50.0,
          "n": 0,
          "scriptPubKey": {
            "asm": "04248c7b960763ad5e80b99dd3be1450ba7a99428d659ae632e8602839aa085a54d263f4208a17d3a2992dbefead0ebf2a4842d8a2206a133106cddd2b732127ad OP_CHECKSIG",
            "desc": "pk(04248c7b960763ad5e80b99dd3be1450ba7a99428d659ae632e8602839aa085a54d263f4208a17d3a2992dbefead0ebf2a4842d8a2206a133106cddd2b732127ad)#lfkxuyce",
            "hex": "4104248c7b960763ad5e80b99dd3be1450ba7a99428d659ae632e8602839aa085a54d263f4208a17d3a2992dbefead0ebf2a4842d8a2206a133106cddd2b732127adac",
            "type": "pubkey"
          }
        }
      ],
      "hex": "01000000010000000000000000000000000000000000000000000000000000000000000000ffffffff0804ffff001d028803ffffffff0100f2052a01000000434104248c7b960763ad5e80b99dd3be1450ba7a99428d659ae632e8602839aa085a54d263f4208a17d3a2992dbefead0ebf2a4842d8a2206a133106cddd2b732127adac00000000"
    }
  ]
}