{
  "hash": "000000009ccaf48cf9c84d205cb320718a8b7f44a80e75fbf28d66d04283624b",
  "confirmations": 45508,
  "height": 7590,
  "version": 1,
  "versionHex": "00000001",
  "merkleroot": "9882e8f073bb47d662475c0dfe025f28890f5f45f71302688a571fa622350fd0",
  "time": 1237160336,
  "mediantime": 1237156253,
  "nonce": 2886734888,
  "bits": "1d00ffff",
  "difficulty": 1,
  "chainwork": "00000000000000000000000000000000000000000000000000001da71da71da7",
  "nTx": 1,
  "previousblockhash": "00000000b8bae35be701163c708166fc2376edc235e6901e2fd704a473168d15",
  "nextblockhash": "0000000084fca9b87cf6c0d8c1c4548cb0defc9a07816de6ec70dfb96a45cbb6",
  "strippedsize": 216,
  "size": 216,
  "weight": 864,
  "tx": [
    {
      "txid": "9882e8f073bb47d662475c0dfe025f28890f5f45f71302688a571fa622350fd0",
      "hash": "9882e8f073bb47d662475c0dfe025f28890f5f45f71302688a571fa622350fd0",
      "version": 1,
      "size": 135,
      "vsize": 135,
      "weight": 540,
      "locktime": 0,
      "vin": [
        {
          "coinbase": "04ffff001d027002",
          "sequence": 4294967295
        }
      ],
      "vout": [
        {
          "value": 50.0,
          "n": 0,
          "scriptPubKey": {
            "asm": "04658505ff0340a3c7f41a6fa428861e5347a5d465dc3fd4bc2a2c424cd56ead2cc214625986b34f70e349403852083f2e5ae936ce8f50118acc4297ee59894a2d OP_CHECKSIG",
            "desc": "pk(04658505ff0340a3c7f41a6fa428861e5347a5d465dc3fd4bc2a2c424cd56ead2cc214625986b34f70e349403852083f2e5ae936ce8f50118acc4297ee59894a2d)#5dwm8nmp",
            "hex": "4104658505ff0340a3c7f41a6fa428861e5347a5d465dc3fd4bc2a2c424cd56ead2cc214625986b34f70e349403852083f2e5ae936ce8f50118acc4297ee59894a2dac",
            "type": "pubkey"
          }
        }
      ],
      "hex": "01000000010000000000000000000000000000000000000000000000000000000000000000ffffffff0804ffff001d027002ffffffff0100f2052a01000000434104658505ff0340a3c7f41a6fa428861e5347a5d465dc3fd4bc2a2c424cd56ead2cc214625986b34f70e349403852083f2e5ae936ce8f50118acc4297ee59894a2dac00000000"
    }
  ]
}