{
  "hash": "00000000045d342e3048127de12cbeaf890f83f7babb08836a36f8a720f1fe27",
  "confirmations": 50034,
  "height": 3064,
  "version": 1,
  "versionHex": "00000001",
  "merkleroot": "2575c837c437dfd85823e5e7dad8e0adcfa1d2181078f3c4b9f4b9305d3f0401",
  "time": 1233804371,
  "mediantime": 1233800934,
  "nonce": 3437753630,
  "bits": "1d00ffff",
  "difficulty": 1,
  "chainwork": "00000000000000000000000000000000000000000000000000000bf90bf90bf9",
  "nTx": 1,
  "previousblockhash": "0000000078b8ab566d23a6a4a23de549c1a2881f3f6e34d9ddb14fd0d33a706a",
  "nextblockhash": "0000000037c50c38f580c653a41626326789b519c57248b2d8d2315222d6084b",
  "strippedsize": 215,
  "size": 215,
  "weight": 860,
  "tx": [
    {
      "txid": "2575c837c437dfd85823e5e7dad8e0adcfa1d2181078f3c4b9f4b9305d3f0401",
      "hash": "2575c837c437dfd85823e5e7dad8e0adcfa1d2181078f3c4b9f4b9305d3f0401",
      "version": 1,
      "size": 134,
      "vsize": 134,
      "weight": 536,
      "locktime": 0,
      "vin": [
        {
          "coinbase": "04ffff001d016e",
          "sequence": 4294967295
        }
      ],
      "vout": [
        {
          "value": 50.0,
          "n": 0,
          "scriptPubKey": {
            "asm": "04ce8f7c00282f0a697dad147adedf4660d0af1e9575024140a1d336c61ec18b03785fd6c17e677595e8379cc268ecec1cc5601aeeb44b67d080cdeb0e1e432ad3 OP_CHECKSIG",
            "desc": "pk(04ce8f7c00282f0a697dad147adedf4660d0af1e9575024140a1d336c61ec18b03785fd6c17e677595e8379cc268ecec1cc5601aeeb44b67d080cdeb0e1e432ad3)#39d79n93",
            "hex": "4104ce8f7c00282f0a697dad147adedf4660d0af1e9575024140a1d336c61ec18b03785fd6c17e677595e8379cc268ecec1cc5601aeeb44b67d080cdeb0e1e432ad3ac",
            "type": "pubkey"
          }
        }
      ],
      "hex": "01000000010000000000000000000000000000000000000000000000000000000000000000ffffffff0704ffff001d016effffffff0100f2052a01000000434104ce8f7c00282f0a697dad147adedf4660d0af1e9575024140a1d336c61ec18b03785fd6c17e677595e8379cc268ecec1cc5601aeeb44b67d080cdeb0e1e432ad3ac00000000"
    }
  ]
}