{
  "hash": "00000000b1ee19529a7c3b4b5ad198a4103404802ceb1f7161e67c1b7bfb755e",
  "confirmations": 52460,
  "height": 638,
  "version": 1,
  "versionHex": "00000001",
  "merkleroot": "a24cb94775ab64789f4a3fa31fb436b14ff1d6d825155c3f8801ea3ecc213dc1",
  "time": 1232061462,
  "mediantime": 1232058216,
  "nonce": 3766217729,
  "bits": "1d00ffff",
  "difficulty": 1,
  "chainwork": "0000000000000000000000000000000000000000000000000000027f027f027f",
  "nTx": 1,
  "previousblockhash": "0000000033913ab37586406bc5037c6f87cc2d41565e23958450bc2bc98ab07c",
  "nextblockhash": "0000000019c1d965032c1dc22f8a3ba3ab94cfeafd3b52a09f032de06b047dcb",
  "strippedsize": 216,
  "size": 216,
  "weight": 864,
  "tx": [
    {
      "txid": "a24cb94775ab64789f4a3fa31fb436b14ff1d6d825155c3f8801ea3ecc213dc1",
      "hash": "a24cb94775ab64789f4a3fa31fb436b14ff1d6d825155c3f8801ea3ecc213dc1",
      "version": 1,
      "size": 135,
      "vsize": 135,
      "weight": 540,
      "locktime": 0,
      "vin": [
        {
          "coinbase": "04ffff001d023f07",
          "sequence": 4294967295
        }
      ],
      "vout": [
        {
          "value": 50.0,
          "n": 0,
          "scriptPubKey": {
            "asm": "045e468115eecc9a289b882e62e792cfc34d3781dadb6e366bf38cf5b6d61ed10971773630cb0fb2446533e8e31dd83a05971f997510b66cee3f9d2d2e6e32e979 OP_CHECKSIG",
            "desc": "pk(045e468115eecc9a289b882e62e792cfc34d3781dadb6e366bf38cf5b6d61ed10971773630cb0fb2446533e8e31dd83a05971f997510b66cee3f9d2d2e6e32e979)#st5awkx4",
            "hex": "41045e468115eecc9a289b882e62e792cfc34d3781dadb6e366bf38cf5b6d61ed10971773630cb0fb2446533e8e31dd83a05971f997510b66cee3f9d2d2e6e32e979ac",
            "type": "pubkey"
          }
        }
      ],
      "hex": "01000000010000000000000000000000000000000000000000000000000000000000000000ffffffff0804ffff001d023f07ffffffff0100f2052a010000004341045e468115eecc9a289b882e62e792cfc34d3781dadb6e366bf38cf5b6d61ed10971773630cb0fb2446533e8e31dd83a05971f997510b66cee3f9d2d2e6e32e979ac00000000"
    }
  ]
}