{
  "hash": "000000002a05ba76ab6d662d62679bc3b04effd6f3c3345ebb9e5331f8053473",
  "confirmations": 48383,
  "height": 4715,
  "version": 1,
  "versionHex": "00000001",
  "merkleroot": "bb3c5b72662f8b4e5a0da0fb60795519770f2fa7464140c40070487857c4097b",
  "time": 1234937758,
  "mediantime": 1234934820,
  "nonce": 676058113,
  "bits": "1d00ffff",
  "difficulty": 1,
  "chainwork": "0000000000000000000000000000000000000000000000000000126c126c126c",
  "nTx": 1,
  "previousblockhash": "00000000a383976c25e2877bfd93117cf1df074c9f16a9d687dfb2aa55bac1c3",
  "nextblockhash": "00000000860ca8c60f8aec1e145540c0c9ed3e741e9a38dea2412d70db8b0785",
  "strippedsize": 216,
  "size": 216,
  "weight": 864,
  "tx": [
    {
      "txid": "bb3c5b72662f8b4e5a0da0fb60795519770f2fa7464140c40070487857c4097b",
      "hash": "bb3c5b72662f8b4e5a0da0fb60795519770f2fa7464140c40070487857c4097b",
      "version": 1,
      "size": 135,
      "vsize": 135,
      "weight": 540,
      "locktime": 0,
      "vin": [
        {
          "coinbase": "04ffff001d02bb02",
          "sequence": 4294967295
        }
      ],
      "vout": [
        {
          "value": 50.0,
          "n": 0,
          "scriptPubKey": {
            "asm": "040b0a59fd32c112eecef56ca77a974f043f44a6f181f1f420c51c50c1ad6ac6402f2f2e8e5f7a4894a0d7f513ae47a7da7aea8f9ed9c5e23e5abb336dc1d6f64b OP_CHECKSIG",
            "desc": "pk(040b0a59fd32c112eecef56ca77a974f043f44a6f181f1f420c51c50c1ad6ac6402f2f2e8e5f7a4894a0d7f513ae47a7da7aea8f9ed9c5e23e5abb336dc1d6f64b)#rmkh4m5p",
            "hex": "41040b0a59fd32c112eecef56ca77a974f043f44a6f181f1f420c51c50c1ad6ac6402f2f2e8e5f7a4894a0d7f513ae47a7da7aea8f9ed9c5e23e5abb336dc1d6f64bac",
            "type": "pubkey"
          }
        }
      ],
      "hex": "01000000010000000000000000000000000000000000000000000000000000000000000000ffffffff0804ffff001d02bb02ffffffff0100f2052a010000004341040b0a59fd32c112eecef56ca77a974f043f44a6f181f1f420c51c50c1ad6ac6402f2f2e8e5f7a4894a0d7f513ae47a7da7aea8f9ed9c5e23e5abb336dc1d6f64bac00000000"
    }
  ]
}