{
  "hash": "00000000ac6d253d46fb08d451a714c3356c96bbd64833350dd2d1e4dc5a0cae",
  "confirmations": 45415,
  "height": 7683,
  "version": 1,
  "versionHex": "00000001",
  "merkleroot": "64ee3294a4a45d9d16ea66caddba892091c7c2d6116078b1393184715e6c6863",
  "time": 1237225646,
  "mediantime": 1237222503,
  "nonce": 3897286950,
  "bits": "1d00ffff",
  "difficulty": 1,
  "chainwork": "00000000000000000000000000000000000000000000000000001e041e041e04",
  "nTx": 1,
  "previousblockhash": "000000002d8cad650759e8cabda86e5a6bc824d23c493950f890144672f7ad1c",
  "nextblockhash": "000000009a94c63fbdfe0d037cd520fa47972b857d218b6362981d12c37076f2",
  "strippedsize": 216,
  "size": 216,
  "weight": 864,
  "tx": [
    {
      "txid": "64ee3294a4a45d9d16ea66caddba892091c7c2d6116078b1393184715e6c6863",
      "hash": "64ee3294a4a45d9d16ea66caddba892091c7c2d6116078b1393184715e6c6863",
      "version": 1,
      "size": 135,
      "vsize": 135,
      "weight": 540,
      "locktime": 0,
      "vin": [
        {
          "coinbase": "04ffff001d02d003",
          "sequence": 4294967295
        }
      ],
      "vout": [
        {
          "value": 50.0,
          "n": 0,
          "scriptPubKey": {
            "asm": "041b9ad457d7e31465f7a120b14e2739f7239b5e757e312cecc9badece8b7d2993eef03d12de2a3dbe79ef5148014d640f8da6cebe5c78fadf9b8b9d9f97d702db OP_CHECKSIG",
            "desc": "pk(041b9ad457d7e31465f7a120b14e2739f7239b5e757e312cecc9badece8b7d2993eef03d12de2a3dbe79ef5148014d640f8da6cebe5c78fadf9b8b9d9f97d702db)#d4fmleca",
            "hex": "41041b9ad457d7e31465f7a120b14e2739f7239b5e757e312cecc9badece8b7d2993eef03d12de2a3dbe79ef5148014d640f8da6cebe5c78fadf9b8b9d9f97d702dbac",
            "type": "pubkey"
          }
        }
      ],
      "hex": "01000000010000000000000000000000000000000000000000000000000000000000000000ffffffff0804ffff001d02d003ffffffff0100f2052a010000004341041b9ad457d7e31465f7a120b14e2739f7239b5e757e312cecc9badece8b7d2993eef03d12de2a3dbe79ef5148014d640f8da6cebe5c78fadf9b8b9d9f97d702dbac00000000"
    }
  ]
}