{
  "hash": "00000000875ff922a83550005c33aaf82b6b76c1ef4d40b0d4b6e021224fd2ab",
  "confirmations": 51694,
  "height": 1404,
  "version": 1,
  "versionHex": "00000001",
  "merkleroot": "465ab3e70975f72fda0a6f504cb5daa59fe2be1bb4e5234ffabd6e0cacf4dc74",
  "time": 1232728212,
  "mediantime": 1232723624,
  "nonce": 895676675,
  "bits": "1d00ffff",
  "difficulty": 1,
  "chainwork": "0000000000000000000000000000000000000000000000000000057d057d057d",
  "nTx": 1,
  "previousblockhash": "000000005e2b0076ca0f6454bcd3f2444712c66865cf7d8ec7cb3a87e2e48471",
  "nextblockhash": "000000004472faa5e8894259c36dd1b07032e2f5f91fc0567a73cfe7c5337909",
  "strippedsize": 215,
  "size": 215,
  "weight": 860,
  "tx": [
    {
      "txid": "465ab3e70975f72fda0a6f504cb5daa59fe2be1bb4e5234ffabd6e0cacf4dc74",
      "hash": "465ab3e70975f72fda0a6f504cb5daa59fe2be1bb4e5234ffabd6e0cacf4dc74",
      "version": 1,
      "size": 134,
      "vsize": 134,
      "weight": 536,
      "locktime": 0,
      "vin": [
        {
          "coinbase": "04ffff001d0113",
          "sequence": 4294967295
        }
      ],
      "vout": [
        {
          "value": 50.0,
          "n": 0,
          "scriptPubKey": {
            "asm": "041c495dae4c01016ed7fed5863bcf74b1db2f9a9b9ba3f58d98d002b7919fea4ddf73dec9c42128ddced795f03ecc888ee0c0e48985e4c8dd8077e76ebb6201e9 OP_CHECKSIG",
            "desc": "pk(041c495dae4c01016ed7fed5863bcf74b1db2f9a9b9ba3f58d98d002b7919fea4ddf73dec9c42128ddced795f03ecc888ee0c0e48985e4c8dd8077e76ebb6201e9)#er55qtnw",
            "hex": "41041c495dae4c01016ed7fed5863bcf74b1db2f9a9b9ba3f58d98d002b7919fea4ddf73dec9c42128ddced795f03ecc888ee0c0e48985e4c8dd8077e76ebb6201e9ac",
            "type": "pubkey"
          }
        }
      ],
      "hex": "01000000010000000000000000000000000000000000000000000000000000000000000000ffffffff0704ffff001d0113ffffffff0100f2052a010000004341041c495dae4c01016ed7fed5863bcf74b1db2f9a9b9ba3f58d98d002b7919fea4ddf73dec9c42128ddced795f03ecc888ee0c0e48985e4c8dd8077e76ebb6201e9ac00000000"
    }
  ]
}