{
  "hash": "00000000beeea0fa91985689e247354592fb853d51562a2a1d7eb3c252f623da",
  "confirmations": 49133,
  "height": 3965,
  "version": 1,
  "versionHex": "00000001",
  "merkleroot": "a0ba6d19e36eae5fb803af3e96837ee67bcffb282c6e419600f100fd131268a0",
  "time": 1234416656,
  "mediantime": 1234413035,
  "nonce": 46718738,
  "bits": "1d00ffff",
  "difficulty": 1,
  "chainwork": "00000000000000000000000000000000000000000000000000000f7e0f7e0f7e",
  "nTx": 1,
  "previousblockhash": "00000000f0f0cb40a296f5dc76d120bfafae53dd9b144ec29c11610b56e9ac63",
  "nextblockhash": "000000009ef8015bca450ee33ca4912c9be51e230b82b9365139c303e4b047bc",
  "strippedsize": 216,
  "size": 216,
  "weight": 864,
  "tx": [
    {
      "txid": "a0ba6d19e36eae5fb803af3e96837ee67bcffb282c6e419600f100fd131268a0",
      "hash": "a0ba6d19e36eae5fb803af3e96837ee67bcffb282c6e419600f100fd131268a0",
      "version": 1,
      "size": 135,
      "vsize": 135,
      "weight": 540,
      "locktime": 0,
      "vin": [
        {
          "coinbase": "04ffff001d02b401",
          "sequence": 4294967295
        }
      ],
      "vout": [
        {
          "value": 50.0,
          "n": 0,
          "scriptPubKey": {
            "asm": "04b56632b9b9193c4d1d7d0e4a4b9096f75d3c2d30820d76685c2ddbeefc7579e4d51081508bbb2cf4844fb12b88ee6fde6a7feb9495eae83d3bbfe3c6c8573ff1 OP_CHECKSIG",
            "desc": "pk(04b56632b9b9193c4d1d7d0e4a4b9096f75d3c2d30820d76685c2ddbeefc7579e4d51081508bbb2cf4844fb12b88ee6fde6a7feb9495eae83d3bbfe3c6c8573ff1)#5jwkkfew",
            "hex": "4104b56632b9b9193c4d1d7d0e4a4b9096f75d3c2d30820d76685c2ddbeefc7579e4d51081508bbb2cf4844fb12b88ee6fde6a7feb9495eae83d3bbfe3c6c8573ff1ac",
            "type": "pubkey"
          }
        }
      ],
      "hex": "01000000010000000000000000000000000000000000000000000000000000000000000000ffffffff0804ffff001d02b401ffffffff0100f2052a01000000434104b56632b9b9193c4d1d7d0e4a4b9096f75d3c2d30820d76685c2ddbeefc7579e4d51081508bbb2cf4844fb12b88ee6fde6a7feb9495eae83d3bbfe3c6c8573ff1ac00000000"
    }
  ]
}