{
  "hash": "000000004b62ed92f99d307a43a29d4a733f5a175e4cc840841cfee4884a7231",
  "confirmations": 44158,
  "height": 8940,
  "version": 1,
  "versionHex": "00000001",
  "merkleroot": "fd764ea9c05895a5126220d89ae98a52ba698aeec3e548424d047343c3ead7d3",
  "time": 1238209043,
  "mediantime": 1238204491,
  "nonce": 257784888,
  "bits": "1d00ffff",
  "difficulty": 1,
  "chainwork": "000000000000000000000000000000000000000000000000000022ed22ed22ed",
  "nTx": 1,
  "previousblockhash": "0000000026d4b23e5780d66e77dbe0b8a3d4e22acf3134432e39b8077a1b73fe",
  "nextblockhash": "00000000a035c95dd3a6899a4bf6c2be6d45a0b18b6865fb03122b016edfb7e6",
  "strippedsize": 216,
  "size": 216,
  "weight": 864,
  "tx": [
    {
      "txid": "fd764ea9c05895a5126220d89ae98a52ba698aeec3e548424d047343c3ead7d3",
      "hash": "fd764ea9c05895a5126220d89ae98a52ba698aeec3e548424d047343c3ead7d3",
      "version": 1,
      "size": 135,
      "vsize": 135,
      "weight": 540,
      "locktime": 0,
      "vin": [
        {
          "coinbase": "04ffff001d025205",
          "sequence": 4294967295
        }
      ],
      "vout": [
        {
          "value": 50.0,
          "n": 0,
          "scriptPubKey": {
            "asm": "04b5732e763eac54fc7502693f417714dd8b4d062fbeba015e76e1df4f16eb215422403d62710144b37835e8d1dfee40947b1ccc6b7dc213c215c723b70b145e8c OP_CHECKSIG",
            "desc": "pk(04b5732e763eac54fc7502693f417714dd8b4d062fbeba015e76e1df4f16eb215422403d62710144b37835e8d1dfee40947b1ccc6b7dc213c215c723b70b145e8c)#qu0ua2f6",
            "hex": "4104b5732e763eac54fc7502693f417714dd8b4d062fbeba015e76e1df4f16eb215422403d62710144b37835e8d1dfee40947b1ccc6b7dc213c215c723b70b145e8cac",
            "type": "pubkey"
          }
        }
      ],
      "hex": "01000000010000000000000000000000000000000000000000000000000000000000000000ffffffff0804ffff001d025205ffffffff0100f2052a01000000434104b5732e763eac54fc7502693f417714dd8b4d062fbeba015e76e1df4f16eb215422403d62710144b37835e8d1dfee40947b1ccc6b7dc213c215c723b70b145e8cac00000000"
    }
  ]
}