{
  "hash": "000000009e77e4c6620a31d873c666d4e4e81ebb96b153eb248690140322cc4d",
  "confirmations": 46706,
  "height": 6392,
  "version": 1,
  "versionHex": "00000001",
  "merkleroot": "5fddcdd43d2cc59c9367c0024e4d35aaf0a285bf7ada00f0a2d875aca20f3af8",
  "time": 1236249525,
  "mediantime": 1236245917,
  "nonce": 4245719847,
  "bits": "1d00ffff",
  "difficulty": 1,
  "chainwork": "000000000000000000000000000000000000000000000000000018f918f918f9",
  "nTx": 1,
  "previousblockhash": "000000000631c2052f9da47327cd63591ea2c13ef8d0e1d74dcf9299d9a1b760",
  "nextblockhash": "00000000f3ae9499f091e6345f8b30c91e2bdd015ed999b2c1028b64da055cc9",
  "strippedsize": 216,
  "size": 216,
  "weight": 864,
  "tx": [
    {
      "txid": "5fddcdd43d2cc59c9367c0024e4d35aaf0a285bf7ada00f0a2d875aca20f3af8",
      "hash": "5fddcdd43d2cc59c9367c0024e4d35aaf0a285bf7ada00f0a2d875aca20f3af8",
      "version": 1,
      "size": 135,
      "vsize": 135,
      "weight": 540,
      "locktime": 0,
      "vin": [
        {
          "coinbase": "04ffff001d02a101",
          "sequence": 4294967295
        }
      ],
      "vout": [
        {
          "value": 50.0,
          "n": 0,
          "scriptPubKey": {
            "asm": "046ab6b6fc89fe28817197084f55a645faf8a1d247473214b97aec9ff1a810a91beefb2c945a659afed45ec8427aef9cb48d6dadc7e10cedb20c162aadaf9efe6e OP_CHECKSIG",
            "desc": "pk(046ab6b6fc89fe28817197084f55a645faf8a1d247473214b97aec9ff1a810a91beefb2c945a659afed45ec8427aef9cb48d6dadc7e10cedb20c162aadaf9efe6e)#e4ucvce3",
            "hex": "41046ab6b6fc89fe28817197084f55a645faf8a1d247473214b97aec9ff1a810a91beefb2c945a659afed45ec8427aef9cb48d6dadc7e10cedb20c162aadaf9efe6eac",
            "type": "pubkey"
          }
        }
      ],
      "hex": "01000000010000000000000000000000000000000000000000000000000000000000000000ffffffff0804ffff001d02a101ffffffff0100f2052a010000004341046ab6b6fc89fe28817197084f55a645faf8a1d247473214b97aec9ff1a810a91beefb2c945a659afed45ec8427aef9cb48d6dadc7e10cedb20c162aadaf9efe6eac00000000"
    }
  ]
}