{
  "hash": "0000000018acfba39f5b2d3065a1705ee2df5640e8754d101eed68f443037150",
  "confirmations": 51263,
  "height": 1835,
  "version": 1,
  "versionHex": "00000001",
  "merkleroot": "d61a7c8d72097428bc710bfa4836decbee6c6787e66bbd54f76a82fb4f02f739",
  "time": 1232915701,
  "mediantime": 1232913022,
  "nonce": 3565421875,
  "bits": "1d00ffff",
  "difficulty": 1,
  "chainwork": "0000000000000000000000000000000000000000000000000000072c072c072c",
  "nTx": 1,
  "previousblockhash": "00000000a4312fe881244917a19231dfda84f629e3fb6a620f7ccd84a4fc2af4",
  "nextblockhash": "0000000086a691adc91420e5524c503a91492ac8aa76e994321721c25cf489d1",
  "strippedsize": 216,
  "size": 216,
  "weight": 864,
  "tx": [
    {
      "txid": "d61a7c8d72097428bc710bfa4836decbee6c6787e66bbd54f76a82fb4f02f739",
      "hash": "d61a7c8d72097428bc710bfa4836decbee6c6787e66bbd54f76a82fb4f02f739",
      "version": 1,
      "size": 135,
      "vsize": 135,
      "weight": 540,
      "locktime": 0,
      "vin": [
        {
          "coinbase": "04ffff001d027604",
          "sequence": 4294967295
        }
      ],
      "vout": [
        {
          "value": 50.0,
          "n": 0,
          "scriptPubKey": {
            "asm": "04baa446c7375698f381db4a6c48327ae5a82805388a421c6c773aa47ed21430997d2565ec13026c1a358dcfb786e73aa89f886a0b02234d2557f9464139734a82 OP_CHECKSIG",
            "desc": "pk(04baa446c7375698f381db4a6c48327ae5a82805388a421c6c773aa47ed21430997d2565ec13026c1a358dcfb786e73aa89f886a0b02234d2557f9464139734a82)#0hx7v255",
            "hex": "4104baa446c7375698f381db4a6c48327ae5a82805388a421c6c773aa47ed21430997d2565ec13026c1a358dcfb786e73aa89f886a0b02234d2557f9464139734a82ac",
            "type": "pubkey"
          }
        }
      ],
      "hex": "01000000010000000000000000000000000000000000000000000000000000000000000000ffffffff0804ffff001d027604ffffffff0100f2052a01000000434104baa446c7375698f381db4a6c48327ae5a82805388a421c6c773aa47ed21430997d2565ec13026c1a358dcfb786e73aa89f886a0b02234d2557f9464139734a82ac00000000"
    }
  ]
}