{
  "hash": "000000008521df4a69ad1c9414d2ed701256b52568a8078b44466e6f01ddc56b",
  "confirmations": 45170,
  "height": 7928,
  "version": 1,
  "versionHex": "00000001",
  "merkleroot": "134af6c54e46e8955fe50a2c0ab4e5c393811dc3922e6a17648bd4633bd076cf",
  "time": 1237414322,
  "mediantime": 1237409582,
  "nonce": 211101901,
  "bits": "1d00ffff",
  "difficulty": 1,
  "chainwork": "00000000000000000000000000000000000000000000000000001ef91ef91ef9",
  "nTx": 1,
  "previousblockhash": "000000007687ab163b55f4c5e8ea7dc2579d8bf89653574e5a1a17c1987c3108",
  "nextblockhash": "000000000390cdbe7dd9d5a9d7370c89d554be94d987e18b361f80836081f1d4",
  "strippedsize": 215,
  "size": 215,
  "weight": 860,
  "tx": [
    {
      "txid": "134af6c54e46e8955fe50a2c0ab4e5c393811dc3922e6a17648bd4633bd076cf",
      "hash": "134af6c54e46e8955fe50a2c0ab4e5c393811dc3922e6a17648bd4633bd076cf",
      "version": 1,
      "size": 134,
      "vsize": 134,
      "weight": 536,
      "locktime": 0,
      "vin": [
        {
          "coinbase": "04ffff001d0155",
          "sequence": 4294967295
        }
      ],
      "vout": [
        {
          "value": 50.0,
          "n": 0,
          "scriptPubKey": {
            "asm": "04c6e61e1490543e96930149c93e21514e893e30d898d5d15718a4590f280b9df26b7c887bf9acc97efab5795ae6567735faa2788b517041b4cdf9f7d57da1f63e OP_CHECKSIG",
            "desc": "pk(04c6e61e1490543e96930149c93e21514e893e30d898d5d15718a4590f280b9df26b7c887bf9acc97efab5795ae6567735faa2788b517041b4cdf9f7d57da1f63e)#g3a9rlr4",
            "hex": "4104c6e61e1490543e96930149c93e21514e893e30d898d5d15718a4590f280b9df26b7c887bf9acc97efab5795ae6567735faa2788b517041b4cdf9f7d57da1f63eac",
            "type": "pubkey"
          }
        }
      ],
      "hex": "01000000010000000000000000000000000000000000000000000000000000000000000000ffffffff0704ffff001d0155ffffffff0100f2052a01000000434104c6e61e1490543e96930149c93e21514e893e30d898d5d15718a4590f280b9df26b7c887bf9acc97efab5795ae6567735faa2788b517041b4cdf9f7d57da1f63eac00000000"
    }
  ]
}