{
  "hash": "00000000425264e355281f4eef35bcb7ff586cb4b258c47fd49cf157ff05ceb7",
  "confirmations": 43318,
  "height": 9780,
  "version": 1,
  "versionHex": "00000001",
  "merkleroot": "7fdf4142fc72e9c28c3b29dc11f29273246ff83ff13c650a7da25ca3e7d40ea4",
  "time": 1238843069,
  "mediantime": 1238837529,
  "nonce": 566299064,
  "bits": "1d00ffff",
  "difficulty": 1,
  "chainwork": "0000000000000000000000000000000000000000000000000000263526352635",
  "nTx": 1,
  "previousblockhash": "0000000074a2f7b5c956dfdecd4c20cde88cf1596f7ab8b93f28b349966e02b3",
  "nextblockhash": "00000000aed372269b6a436579bf7263ca6f3dbdaeca167beb4d6e7bb5f8be48",
  "strippedsize": 216,
  "size": 216,
  "weight": 864,
  "tx": [
    {
      "txid": "7fdf4142fc72e9c28c3b29dc11f29273246ff83ff13c650a7da25ca3e7d40ea4",
      "hash": "7fdf4142fc72e9c28c3b29dc11f29273246ff83ff13c650a7da25ca3e7d40ea4",
      "version": 1,
      "size": 135,
      "vsize": 135,
      "weight": 540,
      "locktime": 0,
      "vin": [
        {
          "coinbase": "04ffff001d02a600",
          "sequence": 4294967295
        }
      ],
      "vout": [
        {
          "value": 50.0,
          "n": 0,
          "scriptPubKey": {
            "asm": "0423ed7fc9b94e877315693aff8fd009341244072d59d40695937905fca3e6be14770d4216db5004e0ebed49969c52475984c5bd704c1630da5e7b2e4fd0f5ce79 OP_CHECKSIG",
            "desc": "pk(0423ed7fc9b94e877315693aff8fd009341244072d59d40695937905fca3e6be14770d4216db5004e0ebed49969c52475984c5bd704c1630da5e7b2e4fd0f5ce79)#jd2l5agk",
            "hex": "410423ed7fc9b94e877315693aff8fd009341244072d59d40695937905fca3e6be14770d4216db5004e0ebed49969c52475984c5bd704c1630da5e7b2e4fd0f5ce79ac",
            "type": "pubkey"
          }
        }
      ],
      "hex": "01000000010000000000000000000000000000000000000000000000000000000000000000ffffffff0804ffff001d02a600ffffffff0100f2052a0100000043410423ed7fc9b94e877315693aff8fd009341244072d59d40695937905fca3e6be14770d4216db5004e0ebed49969c52475984c5bd704c1630da5e7b2e4fd0f5ce79ac00000000"
    }
  ]
}