{
  "hash": "00000000dffde08e66b4a083ff2a66c75d30d986b0a218973b8592b8287aad32",
  "confirmations": 49784,
  "height": 3314,
  "version": 1,
  "versionHex": "00000001",
  "merkleroot": "5393ff0c67b54ca5e259d6f8373481ed1e46d74458d67bbbda3ac98876f0af42",
  "time": 1233977962,
  "mediantime": 1233975266,
  "nonce": 2798245419,
  "bits": "1d00ffff",
  "difficulty": 1,
  "chainwork": "00000000000000000000000000000000000000000000000000000cf30cf30cf3",
  "nTx": 1,
  "previousblockhash": "00000000ce57e50f981f1ce85249ede1f6011bbee6aa3426011e16d6737555f9",
  "nextblockhash": "000000009ab9c64ad8ab9efe25677321534e168d3648aa429da84f54bbec7558",
  "strippedsize": 216,
  "size": 216,
  "weight": 864,
  "tx": [
    {
      "txid": "5393ff0c67b54ca5e259d6f8373481ed1e46d74458d67bbbda3ac98876f0af42",
      "hash": "5393ff0c67b54ca5e259d6f8373481ed1e46d74458d67bbbda3ac98876f0af42",
      "version": 1,
      "size": 135,
      "vsize": 135,
      "weight": 540,
      "locktime": 0,
      "vin": [
        {
          "coinbase": "04ffff001d028404",
          "sequence": 4294967295
        }
      ],
      "vout": [
        {
          "value": 50.0,
          "n": 0,
          "scriptPubKey": {
            "asm": "04117e7c41a41a3ef634493e66580184a748373ab3281c0fc81c4594518ac3bfe592ac352dfe3cf2f453a567256bc095170f150069b19d07894a5f7b8759c5097b OP_CHECKSIG",
            "desc": "pk(04117e7c41a41a3ef634493e66580184a748373ab3281c0fc81c4594518ac3bfe592ac352dfe3cf2f453a567256bc095170f150069b19d07894a5f7b8759c5097b)#90qfx9fu",
            "hex": "4104117e7c41a41a3ef634493e66580184a748373ab3281c0fc81c4594518ac3bfe592ac352dfe3cf2f453a567256bc095170f150069b19d07894a5f7b8759c5097bac",
            "type": "pubkey"
          }
        }
      ],
      "hex": "01000000010000000000000000000000000000000000000000000000000000000000000000ffffffff0804ffff001d028404ffffffff0100f2052a01000000434104117e7c41a41a3ef634493e66580184a748373ab3281c0fc81c4594518ac3bfe592ac352dfe3cf2f453a567256bc095170f150069b19d07894a5f7b8759c5097bac00000000"
    }
  ]
}