{
  "hash": "000000003e52df6a9a68859f54a5fb464de482ff456afd41ef3081054af49e72",
  "confirmations": 46704,
  "height": 6394,
  "version": 1,
  "versionHex": "00000001",
  "merkleroot": "65005a9c051fb9d8b1f8f02bb9d74813334160be353ab9d07069b6a861d009d5",
  "time": 1236251098,
  "mediantime": 1236247991,
  "nonce": 3301090105,
  "bits": "1d00ffff",
  "difficulty": 1,
  "chainwork": "000000000000000000000000000000000000000000000000000018fb18fb18fb",
  "nTx": 1,
  "previousblockhash": "00000000f3ae9499f091e6345f8b30c91e2bdd015ed999b2c1028b64da055cc9",
  "nextblockhash": "000000008fc68a02f26c2041822bb9f569fc8a5878b256a2193514f3c441ea45",
  "strippedsize": 216,
  "size": 216,
  "weight": 864,
  "tx": [
    {
      "txid": "65005a9c051fb9d8b1f8f02bb9d74813334160be353ab9d07069b6a861d009d5",
      "hash": "65005a9c051fb9d8b1f8f02bb9d74813334160be353ab9d07069b6a861d009d5",
      "version": 1,
      "size": 135,
      "vsize": 135,
      "weight": 540,
      "locktime": 0,
      "vin": [
        {
          "coinbase": "04ffff001d02ae01",
          "sequence": 4294967295
        }
      ],
      "vout": [
        {
          "value": 50.0,
          "n": 0,
          "scriptPubKey": {
            "asm": "0412a5a22b494952418ced68dedfe46da4e245588ab4827b9a131355cb5ccd3d5c401353917fc00ce5d7bbd3925f5942391de85cc040de5016cea03f5a5bd35ae1 OP_CHECKSIG",
            "desc": "pk(0412a5a22b494952418ced68dedfe46da4e245588ab4827b9a131355cb5ccd3d5c401353917fc00ce5d7bbd3925f5942391de85cc040de5016cea03f5a5bd35ae1)#ssychynm",
            "hex": "410412a5a22b494952418ced68dedfe46da4e245588ab4827b9a131355cb5ccd3d5c401353917fc00ce5d7bbd3925f5942391de85cc040de5016cea03f5a5bd35ae1ac",
            "type": "pubkey"
          }
        }
      ],
      "hex": "01000000010000000000000000000000000000000000000000000000000000000000000000ffffffff0804ffff001d02ae01ffffffff0100f2052a0100000043410412a5a22b494952418ced68dedfe46da4e245588ab4827b9a131355cb5ccd3d5c401353917fc00ce5d7bbd3925f5942391de85cc040de5016cea03f5a5bd35ae1ac00000000"
    }
  ]
}