{
  "hash": "000000005c639e971b4264e37ea0622756ab3ae33a48ea7b4c241e517cfb85b7",
  "confirmations": 49704,
  "height": 3394,
  "version": 1,
  "versionHex": "00000001",
  "merkleroot": "e8b8fa952e34c72e97f40fee7e435ddb1d46b873d90330c5df4fca53a93e4119",
  "time": 1234033726,
  "mediantime": 1234030794,
  "nonce": 3459171364,
  "bits": "1d00ffff",
  "difficulty": 1,
  "chainwork": "00000000000000000000000000000000000000000000000000000d430d430d43",
  "nTx": 1,
  "previousblockhash": "00000000fa65a679c1aefddf8bbae2b6e988d40b23075ec194bbfb8ec59dfea3",
  "nextblockhash": "00000000fb738e8a6f04d0ea4f66cf5b7c250afd78b8127b8f8c0ed01d15acfd",
  "strippedsize": 216,
  "size": 216,
  "weight": 864,
  "tx": [
    {
      "txid": "e8b8fa952e34c72e97f40fee7e435ddb1d46b873d90330c5df4fca53a93e4119",
      "hash": "e8b8fa952e34c72e97f40fee7e435ddb1d46b873d90330c5df4fca53a93e4119",
      "version": 1,
      "size": 135,
      "vsize": 135,
      "weight": 540,
      "locktime": 0,
      "vin": [
        {
          "coinbase": "04ffff001d02a505",
          "sequence": 4294967295
        }
      ],
      "vout": [
        {
          "value": 50.0,
          "n": 0,
          "scriptPubKey": {
            "asm": "041588255d592e58d73811cda4b32781a4b456257695d4bded90a58c00e7b90a4ce0abb62f4e3cebed3fc7c6b9baec3f0ba914028d5dda15ae7eef9d2ea62e2670 OP_CHECKSIG",
            "desc": "pk(041588255d592e58d73811cda4b32781a4b456257695d4bded90a58c00e7b90a4ce0abb62f4e3cebed3fc7c6b9baec3f0ba914028d5dda15ae7eef9d2ea62e2670)#72kafe2v",
            "hex": "41041588255d592e58d73811cda4b32781a4b456257695d4bded90a58c00e7b90a4ce0abb62f4e3cebed3fc7c6b9baec3f0ba914028d5dda15ae7eef9d2ea62e2670ac",
            "type": "pubkey"
          }
        }
      ],
      "hex": "01000000010000000000000000000000000000000000000000000000000000000000000000ffffffff0804ffff001d02a505ffffffff0100f2052a010000004341041588255d592e58d73811cda4b32781a4b456257695d4bded90a58c00e7b90a4ce0abb62f4e3cebed3fc7c6b9baec3f0ba914028d5dda15ae7eef9d2ea62e2670ac00000000"
    }
  ]
}