{
  "hash": "00000000dd67c115529e4cd02fa4df2085d55624e31bda594c107b31a2c12d86",
  "confirmations": 44574,
  "height": 8524,
  "version": 1,
  "versionHex": "00000001",
  "merkleroot": "af65e93ad575a60566f6ba6ecef689c6c6d6f853247f59bfeaa92c0b4fa58177",
  "time": 1237892248,
  "mediantime": 1237886549,
  "nonce": 796021792,
  "bits": "1d00ffff",
  "difficulty": 1,
  "chainwork": "0000000000000000000000000000000000000000000000000000214d214d214d",
  "nTx": 1,
  "previousblockhash": "00000000b40394f3a6c8c4fef12d5cca6f66ce35eb190c69c8b03ccdfb1fed34",
  "nextblockhash": "000000005885e0b90c9529da0eb8b0dea99dbe803dbd58a850f695cbd565301e",
  "strippedsize": 216,
  "size": 216,
  "weight": 864,
  "tx": [
    {
      "txid": "af65e93ad575a60566f6ba6ecef689c6c6d6f853247f59bfeaa92c0b4fa58177",
      "hash": "af65e93ad575a60566f6ba6ecef689c6c6d6f853247f59bfeaa92c0b4fa58177",
      "version": 1,
      "size": 135,
      "vsize": 135,
      "weight": 540,
      "locktime": 0,
      "vin": [
        {
          "coinbase": "04ffff001d022308",
          "sequence": 4294967295
        }
      ],
      "vout": [
        {
          "value": 50.0,
          "n": 0,
          "scriptPubKey": {
            "asm": "049ef7f01f5ac4a4b1887901ead0121a0a48f139cf57a911eda130b790c303b850835b80392c3400a5b83599e412fb91425e5ed05a16c46b75cb42d0dcd56c0099 OP_CHECKSIG",
            "desc": "pk(049ef7f01f5ac4a4b1887901ead0121a0a48f139cf57a911eda130b790c303b850835b80392c3400a5b83599e412fb91425e5ed05a16c46b75cb42d0dcd56c0099)#g76wvfah",
            "hex": "41049ef7f01f5ac4a4b1887901ead0121a0a48f139cf57a911eda130b790c303b850835b80392c3400a5b83599e412fb91425e5ed05a16c46b75cb42d0dcd56c0099ac",
            "type": "pubkey"
          }
        }
      ],
      "hex": "01000000010000000000000000000000000000000000000000000000000000000000000000ffffffff0804ffff001d022308ffffffff0100f2052a010000004341049ef7f01f5ac4a4b1887901ead0121a0a48f139cf57a911eda130b790c303b850835b80392c3400a5b83599e412fb91425e5ed05a16c46b75cb42d0dcd56c0099ac00000000"
    }
  ]
}