{
  "hash": "000000008ba54981a987f9c562a2ac1d653c4c7c3375448718d04190c74df213",
  "confirmations": 49977,
  "height": 3121,
  "version": 1,
  "versionHex": "00000001",
  "merkleroot": "fe46ca6b20a9fc9cee2bee43f231d00b961013c04793935b9600b579b3e3bd21",
  "time": 1233849585,
  "mediantime": 1233846956,
  "nonce": 230479922,
  "bits": "1d00ffff",
  "difficulty": 1,
  "chainwork": "00000000000000000000000000000000000000000000000000000c320c320c32",
  "nTx": 1,
  "previousblockhash": "0000000045cc047eac436ffc773d8668499d01607beba2a3a1ffec8d02662e9b",
  "nextblockhash": "0000000035acca84ef491b90f5b5c78e1528b998960cccf0224a487bf93f9d11",
  "strippedsize": 216,
  "size": 216,
  "weight": 864,
  "tx": [
    {
      "txid": "fe46ca6b20a9fc9cee2bee43f231d00b961013c04793935b9600b579b3e3bd21",
      "hash": "fe46ca6b20a9fc9cee2bee43f231d00b961013c04793935b9600b579b3e3bd21",
      "version": 1,
      "size": 135,
      "vsize": 135,
      "weight": 540,
      "locktime": 0,
      "vin": [
        {
          "coinbase": "04ffff001d02bd04",
          "sequence": 4294967295
        }
      ],
      "vout": [
        {
          "value": 50.0,
          "n": 0,
          "scriptPubKey": {
            "asm": "0432cb9b72d9b17703c34a5a623135f0be1901e6ee22d4e85df29c2a7b818720d3f47fe951afb4aab8892737ab6d19e78d5f6dfe8b767e8a6397c58122981e0e5a OP_CHECKSIG",
            "desc": "pk(0432cb9b72d9b17703c34a5a623135f0be1901e6ee22d4e85df29c2a7b818720d3f47fe951afb4aab8892737ab6d19e78d5f6dfe8b767e8a6397c58122981e0e5a)#vqcgu6tn",
            "hex": "410432cb9b72d9b17703c34a5a623135f0be1901e6ee22d4e85df29c2a7b818720d3f47fe951afb4aab8892737ab6d19e78d5f6dfe8b767e8a6397c58122981e0e5aac",
            "type": "pubkey"
          }
        }
      ],
      "hex": "01000000010000000000000000000000000000000000000000000000000000000000000000ffffffff0804ffff001d02bd04ffffffff0100f2052a0100000043410432cb9b72d9b17703c34a5a623135f0be1901e6ee22d4e85df29c2a7b818720d3f47fe951afb4aab8892737ab6d19e78d5f6dfe8b767e8a6397c58122981e0e5aac00000000"
    }
  ]
}