{
  "hash": "000000003c6d797bb137415ca0f9a266b8f59b8ec35e96454f7671d29e449335",
  "confirmations": 44261,
  "height": 8837,
  "version": 1,
  "versionHex": "00000001",
  "merkleroot": "9765e43a987bc1ec16f38b55cd38a9c55727a3e1ae960ddddd83ad7e3b3aaf36",
  "time": 1238127725,
  "mediantime": 1238121747,
  "nonce": 3793765931,
  "bits": "1d00ffff",
  "difficulty": 1,
  "chainwork": "0000000000000000000000000000000000000000000000000000228622862286",
  "nTx": 1,
  "previousblockhash": "00000000d3e91a1f7df6f1bb0325994742e92435d8d503bcf8aef6efb25bd915",
  "nextblockhash": "00000000446a342b7f41001e64420f1295a08f28980295844d75397b18013971",
  "strippedsize": 216,
  "size": 216,
  "weight": 864,
  "tx": [
    {
      "txid": "9765e43a987bc1ec16f38b55cd38a9c55727a3e1ae960ddddd83ad7e3b3aaf36",
      "hash": "9765e43a987bc1ec16f38b55cd38a9c55727a3e1ae960ddddd83ad7e3b3aaf36",
      "version": 1,
      "size": 135,
      "vsize": 135,
      "weight": 540,
      "locktime": 0,
      "vin": [
        {
          "coinbase": "04ffff001d027803",
          "sequence": 4294967295
        }
      ],
      "vout": [
        {
          "value": 50.0,
          "n": 0,
          "scriptPubKey": {
            "asm": "0414b58d93fe3b4e9930ea616d218b15e57445b25eb7ed6af083473cd60a7389068d0ccf357c3a4ecff2a53e64c78532b86317a8ab5c97094add45c4bbd8c263b2 OP_CHECKSIG",
            "desc": "pk(0414b58d93fe3b4e9930ea616d218b15e57445b25eb7ed6af083473cd60a7389068d0ccf357c3a4ecff2a53e64c78532b86317a8ab5c97094add45c4bbd8c263b2)#ayazqpp5",
            "hex": "410414b58d93fe3b4e9930ea616d218b15e57445b25eb7ed6af083473cd60a7389068d0ccf357c3a4ecff2a53e64c78532b86317a8ab5c97094add45c4bbd8c263b2ac",
            "type": "pubkey"
          }
        }
      ],
      "hex": "01000000010000000000000000000000000000000000000000000000000000000000000000ffffffff0804ffff001d027803ffffffff0100f2052a0100000043410414b58d93fe3b4e9930ea616d218b15e57445b25eb7ed6af083473cd60a7389068d0ccf357c3a4ecff2a53e64c78532b86317a8ab5c97094add45c4bbd8c263b2ac00000000"
    }
  ]
}