{
  "hash": "00000000e7d28ee0e6238bd21775a007d5c4987967d2e99a527572dd30fa06ef",
  "confirmations": 51926,
  "height": 77,
  "version": 1,
  "versionHex": "00000001",
  "merkleroot": "b5015619429af022efa69e0401891a92533b1852f214b68504c2e435a8cb7d0e",
  "time": 1231633184,
  "mediantime": 1231629194,
  "nonce": 322094626,
  "bits": "1d00ffff",
  "difficulty": 1,
  "chainwork": "0000000000000000000000000000000000000000000000000000004e004e004e",
  "nTx": 1,
  "previousblockhash": "000000005a512245f8e901241ce422afbd6b6f4c2d4bb582b763118614d57858",
  "nextblockhash": "00000000a2886c95400fd3b263b9920af80b118b28fee5d2a162a18e4d9d8b2f",
  "strippedsize": 215,
  "size": 215,
  "weight": 860,
  "tx": [
    {
      "txid": "b5015619429af022efa69e0401891a92533b1852f214b68504c2e435a8cb7d0e",
      "hash": "b5015619429af022efa69e0401891a92533b1852f214b68504c2e435a8cb7d0e",
      "version": 1,
      "size": 134,
      "vsize": 134,
      "weight": 536,
      "locktime": 0,
      "vin": [
        {
          "coinbase": "04ffff001d010e",
          "sequence": 4294967295
        }
      ],
      "vout": [
        {
          "value": 50.0,
          "n": 0,
          "scriptPubKey": {
            "asm": "04c8e38a2d330ef2c1317df46c906ed13c462bf5f360f1e26b1427ea38bf8f4075c91742ae5a0658b5beffb512dcc00f661b4813e85f584708204db09e4f6bd9b6 OP_CHECKSIG",
            "desc": "pk(04c8e38a2d330ef2c1317df46c906ed13c462bf5f360f1e26b1427ea38bf8f4075c91742ae5a0658b5beffb512dcc00f661b4813e85f584708204db09e4f6bd9b6)#c9hv9z07",
            "hex": "4104c8e38a2d330ef2c1317df46c906ed13c462bf5f360f1e26b1427ea38bf8f4075c91742ae5a0658b5beffb512dcc00f661b4813e85f584708204db09e4f6bd9b6ac",
            "type": "pubkey"
          }
        }
      ],
      "hex": "01000000010000000000000000000000000000000000000000000000000000000000000000ffffffff0704ffff001d010effffffff0100f2052a01000000434104c8e38a2d330ef2c1317df46c906ed13c462bf5f360f1e26b1427ea38bf8f4075c91742ae5a0658b5beffb512dcc00f661b4813e85f584708204db09e4f6bd9b6ac00000000"
    }
  ]
}