{
  "hash": "00000000161207e01bb1fd2dcf487e7b16bf32149569b93d683eec4e23eb8919",
  "confirmations": 52256,
  "height": 842,
  "version": 1,
  "versionHex": "00000001",
  "merkleroot": "67d57cd5c0ea4f919844bb981a306e7c4fcc9232d8179f34edaaa8fae7abd4af",
  "time": 1232223930,
  "mediantime": 1232219953,
  "nonce": 73089368,
  "bits": "1d00ffff",
  "difficulty": 1,
  "chainwork": "0000000000000000000000000000000000000000000000000000034b034b034b",
  "nTx": 1,
  "previousblockhash": "00000000051d92a464c9ea82e450d8ca44a0d04065e2f66aab01aa227ecfb3a4",
  "nextblockhash": "00000000fa5dae315bda889b42d81ec0d94de20d6ca6b446bf6e7747bafac665",
  "strippedsize": 216,
  "size": 216,
  "weight": 864,
  "tx": [
    {
      "txid": "67d57cd5c0ea4f919844bb981a306e7c4fcc9232d8179f34edaaa8fae7abd4af",
      "hash": "67d57cd5c0ea4f919844bb981a306e7c4fcc9232d8179f34edaaa8fae7abd4af",
      "version": 1,
      "size": 135,
      "vsize": 135,
      "weight": 540,
      "locktime": 0,
      "vin": [
        {
          "coinbase": "04ffff001d02d600",
          "sequence": 4294967295
        }
      ],
      "vout": [
        {
          "value": 50.0,
          "n": 0,
          "scriptPubKey": {
            "asm": "0444b38a55fffdc58f686d64395be3ed2cd66e291f2be62b7aa1d2a79096cf6342c54a062403c2f893710700570691dbd003c2f5fcd72e0964164bf31c022998c0 OP_CHECKSIG",
            "desc": "pk(0444b38a55fffdc58f686d64395be3ed2cd66e291f2be62b7aa1d2a79096cf6342c54a062403c2f893710700570691dbd003c2f5fcd72e0964164bf31c022998c0)#g8pf3wfa",
            "hex": "410444b38a55fffdc58f686d64395be3ed2cd66e291f2be62b7aa1d2a79096cf6342c54a062403c2f893710700570691dbd003c2f5fcd72e0964164bf31c022998c0ac",
            "type": "pubkey"
          }
        }
      ],
      "hex": "01000000010000000000000000000000000000000000000000000000000000000000000000ffffffff0804ffff001d02d600ffffffff0100f2052a0100000043410444b38a55fffdc58f686d64395be3ed2cd66e291f2be62b7aa1d2a79096cf6342c54a062403c2f893710700570691dbd003c2f5fcd72e0964164bf31c022998c0ac00000000"
    }
  ]
}