{
  "hash": "000000001be17e3d17a0a259fab0a275b1614909e56bcac9719318c300f82d1c",
  "confirmations": 43992,
  "height": 9106,
  "version": 1,
  "versionHex": "00000001",
  "merkleroot": "f2eddbe2a2e9ea2f5896f8b7b7e64c7f2ebfd2cfd5fafe60f7bb01745adbf72d",
  "time": 1238335083,
  "mediantime": 1238330801,
  "nonce": 658698287,
  "bits": "1d00ffff",
  "difficulty": 1,
  "chainwork": "0000000000000000000000000000000000000000000000000000239323932393",
  "nTx": 1,
  "previousblockhash": "00000000eb5d25e4d3dbf0ccb3867c2b34a6e3931d143b7d750503ed506b3832",
  "nextblockhash": "000000007b187435685ef25ee2e9362229fa73faf0a8ad0638bce02562bdc7a2",
  "strippedsize": 216,
  "size": 216,
  "weight": 864,
  "tx": [
    {
      "txid": "f2eddbe2a2e9ea2f5896f8b7b7e64c7f2ebfd2cfd5fafe60f7bb01745adbf72d",
      "hash": "f2eddbe2a2e9ea2f5896f8b7b7e64c7f2ebfd2cfd5fafe60f7bb01745adbf72d",
      "version": 1,
      "size": 135,
      "vsize": 135,
      "weight": 540,
      "locktime": 0,
      "vin": [
        {
          "coinbase": "04ffff001d027508",
          "sequence": 4294967295
        }
      ],
      "vout": [
        {
          "value": 50.0,
          "n": 0,
          "scriptPubKey": {
            "asm": "04c9e492840b4a80c1c300438a5eb001071919878c58299c07f2b3dcb11f1582924605c9124a85f1678d60b882d5cba1986785bcbbc54d354893a35f5364591a09 OP_CHECKSIG",
            "desc": "pk(04c9e492840b4a80c1c300438a5eb001071919878c58299c07f2b3dcb11f1582924605c9124a85f1678d60b882d5cba1986785bcbbc54d354893a35f5364591a09)#3r9t8fm8",
            "hex": "4104c9e492840b4a80c1c300438a5eb001071919878c58299c07f2b3dcb11f1582924605c9124a85f1678d60b882d5cba1986785bcbbc54d354893a35f5364591a09ac",
            "type": "pubkey"
          }
        }
      ],
      "hex": "01000000010000000000000000000000000000000000000000000000000000000000000000ffffffff0804ffff001d027508ffffffff0100f2052a01000000434104c9e492840b4a80c1c300438a5eb001071919878c58299c07f2b3dcb11f1582924605c9124a85f1678d60b882d5cba1986785bcbbc54d354893a35f5364591a09ac00000000"
    }
  ]
}