{
  "hash": "00000000e606b121c9dcb76525a6f3c00f551dd7183fc23c63635597cbe3b783",
  "confirmations": 50276,
  "height": 2822,
  "version": 1,
  "versionHex": "00000001",
  "merkleroot": "f3f71dc0387a9ef4f559a16930e6ca6eaa6717d52c040b0cfaf15affa9458bc8",
  "time": 1233640612,
  "mediantime": 1233638202,
  "nonce": 3356348726,
  "bits": "1d00ffff",
  "difficulty": 1,
  "chainwork": "00000000000000000000000000000000000000000000000000000b070b070b07",
  "nTx": 1,
  "previousblockhash": "000000005c356d4ba15ae111011c058aae4e9191869815dc910139ede032e7f6",
  "nextblockhash": "00000000a7f86096839afd4f8a636e702b3312adcb7ea6206e249e3f59f3d93a",
  "strippedsize": 216,
  "size": 216,
  "weight": 864,
  "tx": [
    {
      "txid": "f3f71dc0387a9ef4f559a16930e6ca6eaa6717d52c040b0cfaf15affa9458bc8",
      "hash": "f3f71dc0387a9ef4f559a16930e6ca6eaa6717d52c040b0cfaf15affa9458bc8",
      "version": 1,
      "size": 135,
      "vsize": 135,
      "weight": 540,
      "locktime": 0,
      "vin": [
        {
          "coinbase": "04ffff001d025106",
          "sequence": 4294967295
        }
      ],
      "vout": [
        {
          "value": 50.0,
          "n": 0,
          "scriptPubKey": {
            "asm": "04fe967eb4ba774c6a191db04fac53adb16c46f0fbd977d0d9711ef0c79b037becf3b2e87477a2b065f388cc8b32a0849f2c573b26fcf2e0e8c52f55476c25c6e8 OP_CHECKSIG",
            "desc": "pk(04fe967eb4ba774c6a191db04fac53adb16c46f0fbd977d0d9711ef0c79b037becf3b2e87477a2b065f388cc8b32a0849f2c573b26fcf2e0e8c52f55476c25c6e8)#nw3etm3j",
            "hex": "4104fe967eb4ba774c6a191db04fac53adb16c46f0fbd977d0d9711ef0c79b037becf3b2e87477a2b065f388cc8b32a0849f2c573b26fcf2e0e8c52f55476c25c6e8ac",
            "type": "pubkey"
          }
        }
      ],
      "hex": "01000000010000000000000000000000000000000000000000000000000000000000000000ffffffff0804ffff001d025106ffffffff0100f2052a01000000434104fe967eb4ba774c6a191db04fac53adb16c46f0fbd977d0d9711ef0c79b037becf3b2e87477a2b065f388cc8b32a0849f2c573b26fcf2e0e8c52f55476c25c6e8ac00000000"
    }
  ]
}