{
  "hash": "00000000667c4073f55cfff10a37cfeea4fa8fb1ead8ec573ddd5a140f3a4c94",
  "confirmations": 44024,
  "height": 9074,
  "version": 1,
  "versionHex": "00000001",
  "merkleroot": "bb1b9991f73091fada4feb0a745b929e17bba76cee08793300977c0cc4fd7289",
  "time": 1238313958,
  "mediantime": 1238310477,
  "nonce": 4053321004,
  "bits": "1d00ffff",
  "difficulty": 1,
  "chainwork": "0000000000000000000000000000000000000000000000000000237323732373",
  "nTx": 1,
  "previousblockhash": "0000000099d34e8aa84e6b73f6ff4e3c8cd957e387ffa4e802df3572d1fc3912",
  "nextblockhash": "0000000075d9598bb090706851a29fc74a3cecd6846ec87ac794d7350067babb",
  "strippedsize": 216,
  "size": 216,
  "weight": 864,
  "tx": [
    {
      "txid": "bb1b9991f73091fada4feb0a745b929e17bba76cee08793300977c0cc4fd7289",
      "hash": "bb1b9991f73091fada4feb0a745b929e17bba76cee08793300977c0cc4fd7289",
      "version": 1,
      "size": 135,
      "vsize": 135,
      "weight": 540,
      "locktime": 0,
      "vin": [
        {
          "coinbase": "04ffff001d02d007",
          "sequence": 4294967295
        }
      ],
      "vout": [
        {
          "value": 50.0,
          "n": 0,
          "scriptPubKey": {
            "asm": "04e3da4f7f55f15fac1acbc99e7d3ffce05405d53b8088d965f77261500dc0cfbd403b65389b720a53e412c96c3b4fe19190c8ab3f3f1aa8488fb1ea8542c0bc32 OP_CHECKSIG",
            "desc": "pk(04e3da4f7f55f15fac1acbc99e7d3ffce05405d53b8088d965f77261500dc0cfbd403b65389b720a53e412c96c3b4fe19190c8ab3f3f1aa8488fb1ea8542c0bc32)#9elzmmvh",
            "hex": "4104e3da4f7f55f15fac1acbc99e7d3ffce05405d53b8088d965f77261500dc0cfbd403b65389b720a53e412c96c3b4fe19190c8ab3f3f1aa8488fb1ea8542c0bc32ac",
            "type": "pubkey"
          }
        }
      ],
      "hex": "01000000010000000000000000000000000000000000000000000000000000000000000000ffffffff0804ffff001d02d007ffffffff0100f2052a01000000434104e3da4f7f55f15fac1acbc99e7d3ffce05405d53b8088d965f77261500dc0cfbd403b65389b720a53e412c96c3b4fe19190c8ab3f3f1aa8488fb1ea8542c0bc32ac00000000"
    }
  ]
}