{
  "hash": "00000000b781c7d1b96912017ec6d006d2d505d3cac0bd486550abe2066734f7",
  "confirmations": 47923,
  "height": 5175,
  "version": 1,
  "versionHex": "00000001",
  "merkleroot": "dbf7276b9ab4680285a2f51e137c654b8f82231fa3db32a9b2f61db3789338a3",
  "time": 1235269595,
  "mediantime": 1235266897,
  "nonce": 2116592166,
  "bits": "1d00ffff",
  "difficulty": 1,
  "chainwork": "0000000000000000000000000000000000000000000000000000143814381438",
  "nTx": 1,
  "previousblockhash": "00000000efde85fab4f3fcd5fe00c05a5ebd04e7997924f891578aeb15931eb3",
  "nextblockhash": "00000000c57da0f07304c040f3d65dc34533b4ade850beaf053ae567f73c954b",
  "strippedsize": 215,
  "size": 215,
  "weight": 860,
  "tx": [
    {
      "txid": "dbf7276b9ab4680285a2f51e137c654b8f82231fa3db32a9b2f61db3789338a3",
      "hash": "dbf7276b9ab4680285a2f51e137c654b8f82231fa3db32a9b2f61db3789338a3",
      "version": 1,
      "size": 134,
      "vsize": 134,
      "weight": 536,
      "locktime": 0,
      "vin": [
        {
          "coinbase": "04ffff001d010a",
          "sequence": 4294967295
        }
      ],
      "vout": [
        {
          "value": 50.0,
          "n": 0,
          "scriptPubKey": {
            "asm": "0473cb0e8a9997e09236a4d0f061922d467feab92f9dc31c992a48db58d7bc6beae9f2233d25aaad56ae90c406fd7d62b75ead68f52ac5cee21d497e50e3abee84 OP_CHECKSIG",
            "desc": "pk(0473cb0e8a9997e09236a4d0f061922d467feab92f9dc31c992a48db58d7bc6beae9f2233d25aaad56ae90c406fd7d62b75ead68f52ac5cee21d497e50e3abee84)#63mqqgn7",
            "hex": "410473cb0e8a9997e09236a4d0f061922d467feab92f9dc31c992a48db58d7bc6beae9f2233d25aaad56ae90c406fd7d62b75ead68f52ac5cee21d497e50e3abee84ac",
            "type": "pubkey"
          }
        }
      ],
      "hex": "01000000010000000000000000000000000000000000000000000000000000000000000000ffffffff0704ffff001d010affffffff0100f2052a0100000043410473cb0e8a9997e09236a4d0f061922d467feab92f9dc31c992a48db58d7bc6beae9f2233d25aaad56ae90c406fd7d62b75ead68f52ac5cee21d497e50e3abee84ac00000000"
    }
  ]
}