{
  "hash": "000000005f2f4063102005cb8a9f940a12f771e6947e3157c77f77ec00de9507",
  "confirmations": 44308,
  "height": 8790,
  "version": 1,
  "versionHex": "00000001",
  "merkleroot": "e8ab655ebc60e42cb28f8d1492a2bf4650424f24b4863ba3b9211c5aae5a2d24",
  "time": 1238094281,
  "mediantime": 1238088828,
  "nonce": 2705849875,
  "bits": "1d00ffff",
  "difficulty": 1,
  "chainwork": "0000000000000000000000000000000000000000000000000000225722572257",
  "nTx": 1,
  "previousblockhash": "000000004911facd3a8135d9ab337f67f65f4f92f73f3f295c924c0971116225",
  "nextblockhash": "00000000fce66f517da7e77003f45e5844e4cb00ded20e165b168a8c8aa59fa1",
  "strippedsize": 216,
  "size": 216,
  "weight": 864,
  "tx": [
    {
      "txid": "e8ab655ebc60e42cb28f8d1492a2bf4650424f24b4863ba3b9211c5aae5a2d24",
      "hash": "e8ab655ebc60e42cb28f8d1492a2bf4650424f24b4863ba3b9211c5aae5a2d24",
      "version": 1,
      "size": 135,
      "vsize": 135,
      "weight": 540,
      "locktime": 0,
      "vin": [
        {
          "coinbase": "04ffff001d027c02",
          "sequence": 4294967295
        }
      ],
      "vout": [
        {
          "value": 50.0,
          "n": 0,
          "scriptPubKey": {
            "asm": "04398f8abcab1fe6b7b8289c4f7d8e44a347eb533d4b44055208c62585df5c288c896df30ac28b4a462407ec9a4aeffd27bdd4a3248879725a3aaf0d50ce4366e2 OP_CHECKSIG",
            "desc": "pk(04398f8abcab1fe6b7b8289c4f7d8e44a347eb533d4b44055208c62585df5c288c896df30ac28b4a462407ec9a4aeffd27bdd4a3248879725a3aaf0d50ce4366e2)#pp8wqn6m",
            "hex": "4104398f8abcab1fe6b7b8289c4f7d8e44a347eb533d4b44055208c62585df5c288c896df30ac28b4a462407ec9a4aeffd27bdd4a3248879725a3aaf0d50ce4366e2ac",
            "type": "pubkey"
          }
        }
      ],
      "hex": "01000000010000000000000000000000000000000000000000000000000000000000000000ffffffff0804ffff001d027c02ffffffff0100f2052a01000000434104398f8abcab1fe6b7b8289c4f7d8e44a347eb533d4b44055208c62585df5c288c896df30ac28b4a462407ec9a4aeffd27bdd4a3248879725a3aaf0d50ce4366e2ac00000000"
    }
  ]
}