{
  "hash": "00000000ceef5fc8747f408a03466fcbd1bca6a1c70fb5e14df9cae395e22da5",
  "confirmations": 50941,
  "height": 2157,
  "version": 1,
  "versionHex": "00000001",
  "merkleroot": "af81353964ab6b5190540cfef887a8182d97d29c2b485314fd9757480f7232ba",
  "time": 1233180432,
  "mediantime": 1233177534,
  "nonce": 1675989805,
  "bits": "1d00ffff",
  "difficulty": 1,
  "chainwork": "0000000000000000000000000000000000000000000000000000086e086e086e",
  "nTx": 1,
  "previousblockhash": "0000000062975abcff6404d02ad9b418f959a52cf8670d1286f8cfa54f7515a7",
  "nextblockhash": "00000000cd9ab29792ecf41dc8bc2a0524ac6c7566ea9fcc4d11147089ff59c4",
  "strippedsize": 216,
  "size": 216,
  "weight": 864,
  "tx": [
    {
      "txid": "af81353964ab6b5190540cfef887a8182d97d29c2b485314fd9757480f7232ba",
      "hash": "af81353964ab6b5190540cfef887a8182d97d29c2b485314fd9757480f7232ba",
      "version": 1,
      "size": 135,
      "vsize": 135,
      "weight": 540,
      "locktime": 0,
      "vin": [
        {
          "coinbase": "04ffff001d028e00",
          "sequence": 4294967295
        }
      ],
      "vout": [
        {
          "value": 50.0,
          "n": 0,
          "scriptPubKey": {
            "asm": "04c919d8aff9bca6273cd7ec1895a83f252b490d481cded215fca17fc419246dc870359faa8fe8c31240f20fa4aaa06a4205d45c40e8695eaa0de83d7aac17d192 OP_CHECKSIG",
            "desc": "pk(04c919d8aff9bca6273cd7ec1895a83f252b490d481cded215fca17fc419246dc870359faa8fe8c31240f20fa4aaa06a4205d45c40e8695eaa0de83d7aac17d192)#f4q8zu2x",
            "hex": "4104c919d8aff9bca6273cd7ec1895a83f252b490d481cded215fca17fc419246dc870359faa8fe8c31240f20fa4aaa06a4205d45c40e8695eaa0de83d7aac17d192ac",
            "type": "pubkey"
          }
        }
      ],
      "hex": "01000000010000000000000000000000000000000000000000000000000000000000000000ffffffff0804ffff001d028e00ffffffff0100f2052a01000000434104c919d8aff9bca6273cd7ec1895a83f252b490d481cded215fca17fc419246dc870359faa8fe8c31240f20fa4aaa06a4205d45c40e8695eaa0de83d7aac17d192ac00000000"
    }
  ]
}