{
  "hash": "00000000dad68797d688b10426ead52b42b2dc654ea30ef9d6e9197c10c7658d",
  "confirmations": 51255,
  "height": 1843,
  "version": 1,
  "versionHex": "00000001",
  "merkleroot": "616badc3f920a8502a7a66847673d37704f18331952e902a2155f2b1a1c5f2d6",
  "time": 1232919013,
  "mediantime": 1232917006,
  "nonce": 136268821,
  "bits": "1d00ffff",
  "difficulty": 1,
  "chainwork": "0000000000000000000000000000000000000000000000000000073407340734",
  "nTx": 1,
  "previousblockhash": "0000000019011bfe67ef7cd47a5ed0fd9f4ef7b5b653a83675fbb3e354e490d1",
  "nextblockhash": "00000000ea6988272f73e60fa77b8c4de81d3e2d1d4a7f524849f6da363e23e2",
  "strippedsize": 216,
  "size": 216,
  "weight": 864,
  "tx": [
    {
      "txid": "616badc3f920a8502a7a66847673d37704f18331952e902a2155f2b1a1c5f2d6",
      "hash": "616badc3f920a8502a7a66847673d37704f18331952e902a2155f2b1a1c5f2d6",
      "version": 1,
      "size": 135,
      "vsize": 135,
      "weight": 540,
      "locktime": 0,
      "vin": [
        {
          "coinbase": "04ffff001d027f04",
          "sequence": 4294967295
        }
      ],
      "vout": [
        {
          "value": 50.0,
          "n": 0,
          "scriptPubKey": {
            "asm": "04870aa402eb2ee5678041b057f1431f75e841a8525fedc301f504a5a844cf7f8b9a1335d6d23904f389bf6407f3c3558475caa8962b3bda28175785e1a9381aab OP_CHECKSIG",
            "desc": "pk(04870aa402eb2ee5678041b057f1431f75e841a8525fedc301f504a5a844cf7f8b9a1335d6d23904f389bf6407f3c3558475caa8962b3bda28175785e1a9381aab)#c89sykdr",
            "hex": "4104870aa402eb2ee5678041b057f1431f75e841a8525fedc301f504a5a844cf7f8b9a1335d6d23904f389bf6407f3c3558475caa8962b3bda28175785e1a9381aabac",
            "type": "pubkey"
          }
        }
      ],
      "hex": "01000000010000000000000000000000000000000000000000000000000000000000000000ffffffff0804ffff001d027f04ffffffff0100f2052a01000000434104870aa402eb2ee5678041b057f1431f75e841a8525fedc301f504a5a844cf7f8b9a1335d6d23904f389bf6407f3c3558475caa8962b3bda28175785e1a9381aabac00000000"
    }
  ]
}