{
  "hash": "0000000091a3058f4ac09246f2fafcefd2502ed6fa2182a5b7d5ed59f12cc4a3",
  "confirmations": 50770,
  "height": 2328,
  "version": 1,
  "versionHex": "00000001",
  "merkleroot": "0ba9adc6165a2a6aa137d43fd391c507987b7c365af6d688f21dd9ff66cdd5e1",
  "time": 1233300515,
  "mediantime": 1233296826,
  "nonce": 2835941140,
  "bits": "1d00ffff",
  "difficulty": 1,
  "chainwork": "0000000000000000000000000000000000000000000000000000091909190919",
  "nTx": 1,
  "previousblockhash": "00000000d8329d19dc2c16ef9f2c6b060e52d363c3d7f41c77632f6765b87859",
  "nextblockhash": "000000001c8642a2b4c7572de6ac52fd45ad50c422931c74defb37e30219add2",
  "strippedsize": 216,
  "size": 216,
  "weight": 864,
  "tx": [
    {
      "txid": "0ba9adc6165a2a6aa137d43fd391c507987b7c365af6d688f21dd9ff66cdd5e1",
      "hash": "0ba9adc6165a2a6aa137d43fd391c507987b7c365af6d688f21dd9ff66cdd5e1",
      "version": 1,
      "size": 135,
      "vsize": 135,
      "weight": 540,
      "locktime": 0,
      "vin": [
        {
          "coinbase": "04ffff001d023d02",
          "sequence": 4294967295
        }
      ],
      "vout": [
        {
          "value": 50.0,
          "n": 0,
          "scriptPubKey": {
            "asm": "0403d22fa196bc730fbca16d10bbb1663cf7e2a6f625872ab2231af838389c60e7d5893f23ab32c97398de1723eadab37cdc7399899c4c45170a5cca006728d817 OP_CHECKSIG",
            "desc": "pk(0403d22fa196bc730fbca16d10bbb1663cf7e2a6f625872ab2231af838389c60e7d5893f23ab32c97398de1723eadab37cdc7399899c4c45170a5cca006728d817)#wr9ha7wv",
            "hex": "410403d22fa196bc730fbca16d10bbb1663cf7e2a6f625872ab2231af838389c60e7d5893f23ab32c97398de1723eadab37cdc7399899c4c45170a5cca006728d817ac",
            "type": "pubkey"
          }
        }
      ],
      "hex": "01000000010000000000000000000000000000000000000000000000000000000000000000ffffffff0804ffff001d023d02ffffffff0100f2052a0100000043410403d22fa196bc730fbca16d10bbb1663cf7e2a6f625872ab2231af838389c60e7d5893f23ab32c97398de1723eadab37cdc7399899c4c45170a5cca006728d817ac00000000"
    }
  ]
}