{
  "hash": "00000000bd10d59d9304901303f9cd0f1e72cf98c6d751f91fcd11838f924e61",
  "confirmations": 45388,
  "height": 7710,
  "version": 1,
  "versionHex": "00000001",
  "merkleroot": "b374013e6cc36bfe232b7e514a9fed421525877406060bb22b0a432dec1dfea5",
  "time": 1237244515,
  "mediantime": 1237242849,
  "nonce": 3772649248,
  "bits": "1d00ffff",
  "difficulty": 1,
  "chainwork": "00000000000000000000000000000000000000000000000000001e1f1e1f1e1f",
  "nTx": 1,
  "previousblockhash": "00000000500612eadf73e3c11e7cfd2c4f7281aba60b8e192b7c9c6f3149fc8b",
  "nextblockhash": "000000002f783e487717e95d7a2566f7665d97dece03a38f76ba556e9364df32",
  "strippedsize": 216,
  "size": 216,
  "weight": 864,
  "tx": [
    {
      "txid": "b374013e6cc36bfe232b7e514a9fed421525877406060bb22b0a432dec1dfea5",
      "hash": "b374013e6cc36bfe232b7e514a9fed421525877406060bb22b0a432dec1dfea5",
      "version": 1,
      "size": 135,
      "vsize": 135,
      "weight": 540,
      "locktime": 0,
      "vin": [
        {
          "coinbase": "04ffff001d025104",
          "sequence": 4294967295
        }
      ],
      "vout": [
        {
          "value": 50.0,
          "n": 0,
          "scriptPubKey": {
            "asm": "043ec4cb8f0a5c8256c7d3d0b13775cbea12bc43bb7e5e5bb2923d5e37a5908fc009fb47732f2ab08614f0038b5098094f06c6ac3211f701fdba958b5c573048a4 OP_CHECKSIG",
            "desc": "pk(043ec4cb8f0a5c8256c7d3d0b13775cbea12bc43bb7e5e5bb2923d5e37a5908fc009fb47732f2ab08614f0038b5098094f06c6ac3211f701fdba958b5c573048a4)#mkm4jzyu",
            "hex": "41043ec4cb8f0a5c8256c7d3d0b13775cbea12bc43bb7e5e5bb2923d5e37a5908fc009fb47732f2ab08614f0038b5098094f06c6ac3211f701fdba958b5c573048a4ac",
            "type": "pubkey"
          }
        }
      ],
      "hex": "01000000010000000000000000000000000000000000000000000000000000000000000000ffffffff0804ffff001d025104ffffffff0100f2052a010000004341043ec4cb8f0a5c8256c7d3d0b13775cbea12bc43bb7e5e5bb2923d5e37a5908fc009fb47732f2ab08614f0038b5098094f06c6ac3211f701fdba958b5c573048a4ac00000000"
    }
  ]
}