{
  "hash": "000000005d3a001979503a78d3b5f446a78b30af64d4b5153febed97a17d881b",
  "confirmations": 47803,
  "height": 5295,
  "version": 1,
  "versionHex": "00000001",
  "merkleroot": "5cd7287a09f87172433c6a373e67ea0651b023272a9e018a68c89ae8d9ec2ec2",
  "time": 1235357681,
  "mediantime": 1235352724,
  "nonce": 57256319,
  "bits": "1d00ffff",
  "difficulty": 1,
  "chainwork": "000000000000000000000000000000000000000000000000000014b014b014b0",
  "nTx": 1,
  "previousblockhash": "00000000d58e34ea1a1817f2f8155597424256090d4701b3c23af6f2722cf988",
  "nextblockhash": "00000000427e457ae1d44c88e78ac0685f2dbbc192dc2318728053e8b77a7603",
  "strippedsize": 216,
  "size": 216,
  "weight": 864,
  "tx": [
    {
      "txid": "5cd7287a09f87172433c6a373e67ea0651b023272a9e018a68c89ae8d9ec2ec2",
      "hash": "5cd7287a09f87172433c6a373e67ea0651b023272a9e018a68c89ae8d9ec2ec2",
      "version": 1,
      "size": 135,
      "vsize": 135,
      "weight": 540,
      "locktime": 0,
      "vin": [
        {
          "coinbase": "04ffff001d024c0d",
          "sequence": 4294967295
        }
      ],
      "vout": [
        {
          "value": 50.0,
          "n": 0,
          "scriptPubKey": {
            "asm": "04dcbd02e2214917a8139f6ffa0dc662962fe959566b3f515744679cb93ff48575d58427e057f753d8bb4c6ee221ab5a1cab90fe5919d21a7c9f7f81e9328bc376 OP_CHECKSIG",
            "desc": "pk(04dcbd02e2214917a8139f6ffa0dc662962fe959566b3f515744679cb93ff48575d58427e057f753d8bb4c6ee221ab5a1cab90fe5919d21a7c9f7f81e9328bc376)#5hyy2trw",
            "hex": "4104dcbd02e2214917a8139f6ffa0dc662962fe959566b3f515744679cb93ff48575d58427e057f753d8bb4c6ee221ab5a1cab90fe5919d21a7c9f7f81e9328bc376ac",
            "type": "pubkey"
          }
        }
      ],
      "hex": "01000000010000000000000000000000000000000000000000000000000000000000000000ffffffff0804ffff001d024c0dffffffff0100f2052a01000000434104dcbd02e2214917a8139f6ffa0dc662962fe959566b3f515744679cb93ff48575d58427e057f753d8bb4c6ee221ab5a1cab90fe5919d21a7c9f7f81e9328bc376ac00000000"
    }
  ]
}