{
  "hash": "00000000853a0470dde4d2d61765f4a3925a8fa6df8d8651bd65484ad3c0b003",
  "confirmations": 47686,
  "height": 5412,
  "version": 1,
  "versionHex": "00000001",
  "merkleroot": "4ba7de09168a0ac2f2a33822bdd655dabe7413992b3ae86b8907502c4e1be331",
  "time": 1235448932,
  "mediantime": 1235444541,
  "nonce": 729693732,
  "bits": "1d00ffff",
  "difficulty": 1,
  "chainwork": "0000000000000000000000000000000000000000000000000000152515251525",
  "nTx": 1,
  "previousblockhash": "0000000084a35f342311098378bfa518f6d08533b855aea88a18fbbb8bf61033",
  "nextblockhash": "00000000d392b645badf51c237aa5d2b2b124437fe17e688507fdb98bd2de352",
  "strippedsize": 216,
  "size": 216,
  "weight": 864,
  "tx": [
    {
      "txid": "4ba7de09168a0ac2f2a33822bdd655dabe7413992b3ae86b8907502c4e1be331",
      "hash": "4ba7de09168a0ac2f2a33822bdd655dabe7413992b3ae86b8907502c4e1be331",
      "version": 1,
      "size": 135,
      "vsize": 135,
      "weight": 540,
      "locktime": 0,
      "vin": [
        {
          "coinbase": "04ffff001d02ca03",
          "sequence": 4294967295
        }
      ],
      "vout": [
        {
          "value": 50.0,
          "n": 0,
          "scriptPubKey": {
            "asm": "046351af0aa3e1fc3a3986617720ea56ac2a91394f49f8012709c90b19a88c844508d79f6efd8b941a5de031c5da497e744989448c9298226e3f2c786c0d93b3ea OP_CHECKSIG",
            "desc": "pk(046351af0aa3e1fc3a3986617720ea56ac2a91394f49f8012709c90b19a88c844508d79f6efd8b941a5de031c5da497e744989448c9298226e3f2c786c0d93b3ea)#n7c7ljq0",
            "hex": "41046351af0aa3e1fc3a3986617720ea56ac2a91394f49f8012709c90b19a88c844508d79f6efd8b941a5de031c5da497e744989448c9298226e3f2c786c0d93b3eaac",
            "type": "pubkey"
          }
        }
      ],
      "hex": "01000000010000000000000000000000000000000000000000000000000000000000000000ffffffff0804ffff001d02ca03ffffffff0100f2052a010000004341046351af0aa3e1fc3a3986617720ea56ac2a91394f49f8012709c90b19a88c844508d79f6efd8b941a5de031c5da497e744989448c9298226e3f2c786c0d93b3eaac00000000"
    }
  ]
}