{
  "hash": "000000004035bc39ab7fb13986867d122e6d6b777f6026f0339a5e297b71b7c6",
  "confirmations": 45369,
  "height": 7729,
  "version": 1,
  "versionHex": "00000001",
  "merkleroot": "807148d78d40ba7240c52363b9b5691ac1dc04b1abda78ed42ca8d8fe94ab6b5",
  "time": 1237260272,
  "mediantime": 1237256036,
  "nonce": 1751320605,
  "bits": "1d00ffff",
  "difficulty": 1,
  "chainwork": "00000000000000000000000000000000000000000000000000001e321e321e32",
  "nTx": 1,
  "previousblockhash": "0000000066cbbcb55f6023be629a23bef0583627b3bbf54865fbc31d83f91560",
  "nextblockhash": "000000002bfbfdc1a10a4a4a84c21fdaabdc8e11368e3d371f8a860aaa0ebdb7",
  "strippedsize": 216,
  "size": 216,
  "weight": 864,
  "tx": [
    {
      "txid": "807148d78d40ba7240c52363b9b5691ac1dc04b1abda78ed42ca8d8fe94ab6b5",
      "hash": "807148d78d40ba7240c52363b9b5691ac1dc04b1abda78ed42ca8d8fe94ab6b5",
      "version": 1,
      "size": 135,
      "vsize": 135,
      "weight": 540,
      "locktime": 0,
      "vin": [
        {
          "coinbase": "04ffff001d02ae04",
          "sequence": 4294967295
        }
      ],
      "vout": [
        {
          "value": 50.0,
          "n": 0,
          "scriptPubKey": {
            "asm": "04d72c0ed87f4ee97e6cc801e9579f55314f47a6539fef8169461d6453773c5def77bbe1184fcd3e579ba55e452c1fb04becec2f17410339f77818b6862ed19b74 OP_CHECKSIG",
            "desc": "pk(04d72c0ed87f4ee97e6cc801e9579f55314f47a6539fef8169461d6453773c5def77bbe1184fcd3e579ba55e452c1fb04becec2f17410339f77818b6862ed19b74)#s6ma6xau",
            "hex": "4104d72c0ed87f4ee97e6cc801e9579f55314f47a6539fef8169461d6453773c5def77bbe1184fcd3e579ba55e452c1fb04becec2f17410339f77818b6862ed19b74ac",
            "type": "pubkey"
          }
        }
      ],
      "hex": "01000000010000000000000000000000000000000000000000000000000000000000000000ffffffff0804ffff001d02ae04ffffffff0100f2052a01000000434104d72c0ed87f4ee97e6cc801e9579f55314f47a6539fef8169461d6453773c5def77bbe1184fcd3e579ba55e452c1fb04becec2f17410339f77818b6862ed19b74ac00000000"
    }
  ]
}