{
  "hash": "00000000560ceccc52574155994fbafcc8373b21ea7c85206e0aa4929c4a8eb4",
  "confirmations": 47633,
  "height": 5465,
  "version": 1,
  "versionHex": "00000001",
  "merkleroot": "1adf9749d5b82e889fa4992e91d71642f3f322b641860953941886dffe621a07",
  "time": 1235494225,
  "mediantime": 1235492293,
  "nonce": 7735849,
  "bits": "1d00ffff",
  "difficulty": 1,
  "chainwork": "0000000000000000000000000000000000000000000000000000155a155a155a",
  "nTx": 1,
  "previousblockhash": "0000000084dee9803e97cda23967daabecbdb7b1499ede59facdffcb1c263c98",
  "nextblockhash": "00000000662ed3796d99b20390e3ab727e98b5cd80fb1a0de5a0bf7aee21fce1",
  "strippedsize": 216,
  "size": 216,
  "weight": 864,
  "tx": [
    {
      "txid": "1adf9749d5b82e889fa4992e91d71642f3f322b641860953941886dffe621a07",
      "hash": "1adf9749d5b82e889fa4992e91d71642f3f322b641860953941886dffe621a07",
      "version": 1,
      "size": 135,
      "vsize": 135,
      "weight": 540,
      "locktime": 0,
      "vin": [
        {
          "coinbase": "04ffff001d023301",
          "sequence": 4294967295
        }
      ],
      "vout": [
        {
          "value": 50.0,
          "n": 0,
          "scriptPubKey": {
            "asm": "047f327760500eafe73009f6a0e2e394e0cbeee4fef116cbd67c13a18ded203967705fc95f74a8ffcf098572bd0e3937c5605f5db24721084d84a0866f647bdad7 OP_CHECKSIG",
            "desc": "pk(047f327760500eafe73009f6a0e2e394e0cbeee4fef116cbd67c13a18ded203967705fc95f74a8ffcf098572bd0e3937c5605f5db24721084d84a0866f647bdad7)#k0tyh0zn",
            "hex": "41047f327760500eafe73009f6a0e2e394e0cbeee4fef116cbd67c13a18ded203967705fc95f74a8ffcf098572bd0e3937c5605f5db24721084d84a0866f647bdad7ac",
            "type": "pubkey"
          }
        }
      ],
      "hex": "01000000010000000000000000000000000000000000000000000000000000000000000000ffffffff0804ffff001d023301ffffffff0100f2052a010000004341047f327760500eafe73009f6a0e2e394e0cbeee4fef116cbd67c13a18ded203967705fc95f74a8ffcf098572bd0e3937c5605f5db24721084d84a0866f647bdad7ac00000000"
    }
  ]
}