{
  "hash": "00000000a95ffc19080926540534be32472ec3759c1e95b5cb4ff169e4b53812",
  "confirmations": 51407,
  "height": 1691,
  "version": 1,
  "versionHex": "00000001",
  "merkleroot": "3eeb8fe2711fd3f0e11d22d4034ac328c4e413a37915bbf40200a1d3420d1337",
  "time": 1232849444,
  "mediantime": 1232846619,
  "nonce": 1214113315,
  "bits": "1d00ffff",
  "difficulty": 1,
  "chainwork": "0000000000000000000000000000000000000000000000000000069c069c069c",
  "nTx": 1,
  "previousblockhash": "000000001d807cfd1880f185030f815b7afb6733ce6b09b2e3ce11145112f20b",
  "nextblockhash": "000000006491ae1a23c60475088c5febc4db81cf02f140c9e783af24ffdae9c7",
  "strippedsize": 216,
  "size": 216,
  "weight": 864,
  "tx": [
    {
      "txid": "3eeb8fe2711fd3f0e11d22d4034ac328c4e413a37915bbf40200a1d3420d1337",
      "hash": "3eeb8fe2711fd3f0e11d22d4034ac328c4e413a37915bbf40200a1d3420d1337",
      "version": 1,
      "size": 135,
      "vsize": 135,
      "weight": 540,
      "locktime": 0,
      "vin": [
        {
          "coinbase": "04ffff001d021103",
          "sequence": 4294967295
        }
      ],
      "vout": [
        {
          "value": 50.0,
          "n": 0,
          "scriptPubKey": {
            "asm": "0469c78e526a078599785d16f649339abe78719a3eceddb026fee48e65b03dd58b6de8a4079bff074220f6e6a3930afca2c5eebc66eb9a81fe70608988ca14b07e OP_CHECKSIG",
            "desc": "pk(0469c78e526a078599785d16f649339abe78719a3eceddb026fee48e65b03dd58b6de8a4079bff074220f6e6a3930afca2c5eebc66eb9a81fe70608988ca14b07e)#uvzsjucq",
            "hex": "410469c78e526a078599785d16f649339abe78719a3eceddb026fee48e65b03dd58b6de8a4079bff074220f6e6a3930afca2c5eebc66eb9a81fe70608988ca14b07eac",
            "type": "pubkey"
          }
        }
      ],
      "hex": "01000000010000000000000000000000000000000000000000000000000000000000000000ffffffff0804ffff001d021103ffffffff0100f2052a0100000043410469c78e526a078599785d16f649339abe78719a3eceddb026fee48e65b03dd58b6de8a4079bff074220f6e6a3930afca2c5eebc66eb9a81fe70608988ca14b07eac00000000"
    }
  ]
}