{
  "hash": "00000000c349693d1a5810e458f67e2d688bbd8cbd81ce50b8628794d94d8b12",
  "confirmations": 45073,
  "height": 8025,
  "version": 1,
  "versionHex": "00000001",
  "merkleroot": "e0318c95ce67d02b1267a0202cabfaecc53f7cb7740fd61025ade36c47ced497",
  "time": 1237480753,
  "mediantime": 1237476808,
  "nonce": 54005288,
  "bits": "1d00ffff",
  "difficulty": 1,
  "chainwork": "00000000000000000000000000000000000000000000000000001f5a1f5a1f5a",
  "nTx": 1,
  "previousblockhash": "00000000464dd5c231f204d38a9f785e3c3b45981cd49d546ca8724b41d4f513",
  "nextblockhash": "0000000018d3c1af76b8f47452d5a9abfe5f564a97ab3879311fef9cae55431c",
  "strippedsize": 216,
  "size": 216,
  "weight": 864,
  "tx": [
    {
      "txid": "e0318c95ce67d02b1267a0202cabfaecc53f7cb7740fd61025ade36c47ced497",
      "hash": "e0318c95ce67d02b1267a0202cabfaecc53f7cb7740fd61025ade36c47ced497",
      "version": 1,
      "size": 135,
      "vsize": 135,
      "weight": 540,
      "locktime": 0,
      "vin": [
        {
          "coinbase": "04ffff001d026a01",
          "sequence": 4294967295
        }
      ],
      "vout": [
        {
          "value": 50.0,
          "n": 0,
          "scriptPubKey": {
            "asm": "04095eb37e1ba487d692f1300a007065f00fef4f23d7a990f84640ebe572514a5561d0e0fc1f5bac0187811e0b901f2a618507f8ef0a9b376ad0019b05d108dc8c OP_CHECKSIG",
            "desc": "pk(04095eb37e1ba487d692f1300a007065f00fef4f23d7a990f84640ebe572514a5561d0e0fc1f5bac0187811e0b901f2a618507f8ef0a9b376ad0019b05d108dc8c)#wyjznes5",
            "hex": "4104095eb37e1ba487d692f1300a007065f00fef4f23d7a990f84640ebe572514a5561d0e0fc1f5bac0187811e0b901f2a618507f8ef0a9b376ad0019b05d108dc8cac",
            "type": "pubkey"
          }
        }
      ],
      "hex": "01000000010000000000000000000000000000000000000000000000000000000000000000ffffffff0804ffff001d026a01ffffffff0100f2052a01000000434104095eb37e1ba487d692f1300a007065f00fef4f23d7a990f84640ebe572514a5561d0e0fc1f5bac0187811e0b901f2a618507f8ef0a9b376ad0019b05d108dc8cac00000000"
    }
  ]
}