{
  "hash": "0000000090f6f2723c6ca4d9b935dedf309f6d150c1022184caae070406195a1",
  "confirmations": 47367,
  "height": 5731,
  "version": 1,
  "versionHex": "00000001",
  "merkleroot": "9b05603cfa4dd2bd215e7248d5262e39732c8539f75b7fc786ad947ed42e99a0",
  "time": 1235707429,
  "mediantime": 1235703118,
  "nonce": 2691662875,
  "bits": "1d00ffff",
  "difficulty": 1,
  "chainwork": "0000000000000000000000000000000000000000000000000000166416641664",
  "nTx": 1,
  "previousblockhash": "00000000a591a0a31953764ac5bfa1f6b1ced9488d83147c7fd757382b2656ae",
  "nextblockhash": "000000005d3426b59913052bc769be948246bc688622d646023cdbe0c8c1148a",
  "strippedsize": 216,
  "size": 216,
  "weight": 864,
  "tx": [
    {
      "txid": "9b05603cfa4dd2bd215e7248d5262e39732c8539f75b7fc786ad947ed42e99a0",
      "hash": "9b05603cfa4dd2bd215e7248d5262e39732c8539f75b7fc786ad947ed42e99a0",
      "version": 1,
      "size": 135,
      "vsize": 135,
      "weight": 540,
      "locktime": 0,
      "vin": [
        {
          "coinbase": "04ffff001d02f109",
          "sequence": 4294967295
        }
      ],
      "vout": [
        {
          "value": 50.0,
          "n": 0,
          "scriptPubKey": {
            "asm": "0498cbf739f1ee945989c3461c6dc1aff2a7e24f6bd2321a6717d8ded380c5551139858305e57b09980e50175d855bc48251430f45da83e8b3613a4286860917ba OP_CHECKSIG",
            "desc": "pk(0498cbf739f1ee945989c3461c6dc1aff2a7e24f6bd2321a6717d8ded380c5551139858305e57b09980e50175d855bc48251430f45da83e8b3613a4286860917ba)#4ymrmrwy",
            "hex": "410498cbf739f1ee945989c3461c6dc1aff2a7e24f6bd2321a6717d8ded380c5551139858305e57b09980e50175d855bc48251430f45da83e8b3613a4286860917baac",
            "type": "pubkey"
          }
        }
      ],
      "hex": "01000000010000000000000000000000000000000000000000000000000000000000000000ffffffff0804ffff001d02f109ffffffff0100f2052a0100000043410498cbf739f1ee945989c3461c6dc1aff2a7e24f6bd2321a6717d8ded380c5551139858305e57b09980e50175d855bc48251430f45da83e8b3613a4286860917baac00000000"
    }
  ]
}