{
  "hash": "000000005c7945c7c5b6aa895c8d0682fc60d2d196ec644cbe5c64c4654300e5",
  "confirmations": 43941,
  "height": 9157,
  "version": 1,
  "versionHex": "00000001",
  "merkleroot": "55899d7864d1f64adb1070c2548fbeb1ae0d264a1261654f7afbd65de84dbcbb",
  "time": 1238369825,
  "mediantime": 1238368119,
  "nonce": 28452215,
  "bits": "1d00ffff",
  "difficulty": 1,
  "chainwork": "000000000000000000000000000000000000000000000000000023c623c623c6",
  "nTx": 1,
  "previousblockhash": "0000000068a5af2e667e5a1f70c6843abfcbee2a2fef692d8ac42011e1520179",
  "nextblockhash": "00000000752213ae0762eac72ad453487921986168f2b2a2d4702475c7563dc6",
  "strippedsize": 216,
  "size": 216,
  "weight": 864,
  "tx": [
    {
      "txid": "55899d7864d1f64adb1070c2548fbeb1ae0d264a1261654f7afbd65de84dbcbb",
      "hash": "55899d7864d1f64adb1070c2548fbeb1ae0d264a1261654f7afbd65de84dbcbb",
      "version": 1,
      "size": 135,
      "vsize": 135,
      "weight": 540,
      "locktime": 0,
      "vin": [
        {
          "coinbase": "04ffff001d022c08",
          "sequence": 4294967295
        }
      ],
      "vout": [
        {
          "value": 50.0,
          "n": 0,
          "scriptPubKey": {
            "asm": "048d417b9ddbc6b08301396db98e48392578413b18b0e64cc09b84dd3192704a218082ea80eac48b8dac9516b6244a2721f6856ce5815e5bba7b374581487c868b OP_CHECKSIG",
            "desc": "pk(048d417b9ddbc6b08301396db98e48392578413b18b0e64cc09b84dd3192704a218082ea80eac48b8dac9516b6244a2721f6856ce5815e5bba7b374581487c868b)#yev9gcjx",
            "hex": "41048d417b9ddbc6b08301396db98e48392578413b18b0e64cc09b84dd3192704a218082ea80eac48b8dac9516b6244a2721f6856ce5815e5bba7b374581487c868bac",
            "type": "pubkey"
          }
        }
      ],
      "hex": "01000000010000000000000000000000000000000000000000000000000000000000000000ffffffff0804ffff001d022c08ffffffff0100f2052a010000004341048d417b9ddbc6b08301396db98e48392578413b18b0e64cc09b84dd3192704a218082ea80eac48b8dac9516b6244a2721f6856ce5815e5bba7b374581487c868bac00000000"
    }
  ]
}