{
  "hash": "00000000d0e370b801cebb37d6a98a9b99fbd8d10538756162f227337f85ca85",
  "confirmations": 52004,
  "height": 1094,
  "version": 1,
  "versionHex": "00000001",
  "merkleroot": "2b3ee0b8737b9f7872c5d061b33fad3b4b9b23b286f9e4ae50d91d5b8cf0282f",
  "time": 1232418765,
  "mediantime": 1232415903,
  "nonce": 5385395,
  "bits": "1d00ffff",
  "difficulty": 1,
  "chainwork": "0000000000000000000000000000000000000000000000000000044704470447",
  "nTx": 1,
  "previousblockhash": "00000000e64e510a837bf02cfdae8cb189a400fee5e6d25397639fd7099cf4e8",
  "nextblockhash": "000000005744bf6986d977384729b72ae7e2350e5e47640fc501b40808b6c3bb",
  "strippedsize": 216,
  "size": 216,
  "weight": 864,
  "tx": [
    {
      "txid": "2b3ee0b8737b9f7872c5d061b33fad3b4b9b23b286f9e4ae50d91d5b8cf0282f",
      "hash": "2b3ee0b8737b9f7872c5d061b33fad3b4b9b23b286f9e4ae50d91d5b8cf0282f",
      "version": 1,
      "size": 135,
      "vsize": 135,
      "weight": 540,
      "locktime": 0,
      "vin": [
        {
          "coinbase": "04ffff001d02bc01",
          "sequence": 4294967295
        }
      ],
      "vout": [
        {
          "value": 50.0,
          "n": 0,
          "scriptPubKey": {
            "asm": "045d0ddbdac69ca0c00cf6056a919e107c8523292ae3524cdcb1fe77b68dcb822d0241eb5702671a9634ee909da3e187b16d59043fb1c77fc1dfa77dfcf5741b5e OP_CHECKSIG",
            "desc": "pk(045d0ddbdac69ca0c00cf6056a919e107c8523292ae3524cdcb1fe77b68dcb822d0241eb5702671a9634ee909da3e187b16d59043fb1c77fc1dfa77dfcf5741b5e)#9pp78m2h",
            "hex": "41045d0ddbdac69ca0c00cf6056a919e107c8523292ae3524cdcb1fe77b68dcb822d0241eb5702671a9634ee909da3e187b16d59043fb1c77fc1dfa77dfcf5741b5eac",
            "type": "pubkey"
          }
        }
      ],
      "hex": "01000000010000000000000000000000000000000000000000000000000000000000000000ffffffff0804ffff001d02bc01ffffffff0100f2052a010000004341045d0ddbdac69ca0c00cf6056a919e107c8523292ae3524cdcb1fe77b68dcb822d0241eb5702671a9634ee909da3e187b16d59043fb1c77fc1dfa77dfcf5741b5eac00000000"
    }
  ]
}