{
  "hash": "00000000162cbdafac48666609b3d5e21989497bda594c167e0a07ad569bb154",
  "confirmations": 46495,
  "height": 6603,
  "version": 1,
  "versionHex": "00000001",
  "merkleroot": "0180fc7ac2e9cf0ddf8a2a1ff14757c1c96b98a95d8b7806c7161a767fbdcbfe",
  "time": 1236407671,
  "mediantime": 1236404569,
  "nonce": 107326593,
  "bits": "1d00ffff",
  "difficulty": 1,
  "chainwork": "000000000000000000000000000000000000000000000000000019cc19cc19cc",
  "nTx": 1,
  "previousblockhash": "00000000d7d7febdb0a8296d74a691660cbd21f4f14be0eebda4c3f91dc88ccd",
  "nextblockhash": "0000000032c77420b3b96781f8e5fbbaa880741cb8394df821a4ec4660ad8436",
  "strippedsize": 216,
  "size": 216,
  "weight": 864,
  "tx": [
    {
      "txid": "0180fc7ac2e9cf0ddf8a2a1ff14757c1c96b98a95d8b7806c7161a767fbdcbfe",
      "hash": "0180fc7ac2e9cf0ddf8a2a1ff14757c1c96b98a95d8b7806c7161a767fbdcbfe",
      "version": 1,
      "size": 135,
      "vsize": 135,
      "weight": 540,
      "locktime": 0,
      "vin": [
        {
          "coinbase": "04ffff001d02950b",
          "sequence": 4294967295
        }
      ],
      "vout": [
        {
          "value": 50.0,
          "n": 0,
          "scriptPubKey": {
            "asm": "04ac2a5eacdcb554b5c0ddcb532883429eaa86384b9d2abf5808b424025c8c5bec71cc720311d81b5d9f7f818bec7e6d0f3d4c7c5a18c8ef39ce036d7ee36b4d3c OP_CHECKSIG",
            "desc": "pk(04ac2a5eacdcb554b5c0ddcb532883429eaa86384b9d2abf5808b424025c8c5bec71cc720311d81b5d9f7f818bec7e6d0f3d4c7c5a18c8ef39ce036d7ee36b4d3c)#y5tay6at",
            "hex": "4104ac2a5eacdcb554b5c0ddcb532883429eaa86384b9d2abf5808b424025c8c5bec71cc720311d81b5d9f7f818bec7e6d0f3d4c7c5a18c8ef39ce036d7ee36b4d3cac",
            "type": "pubkey"
          }
        }
      ],
      "hex": "01000000010000000000000000000000000000000000000000000000000000000000000000ffffffff0804ffff001d02950bffffffff0100f2052a01000000434104ac2a5eacdcb554b5c0ddcb532883429eaa86384b9d2abf5808b424025c8c5bec71cc720311d81b5d9f7f818bec7e6d0f3d4c7c5a18c8ef39ce036d7ee36b4d3cac00000000"
    }
  ]
}