{
  "hash": "0000000075e862acce4e5848b4ce79399db17cf0c1d72bb2f49c2bbc7de22a74",
  "confirmations": 44621,
  "height": 8477,
  "version": 1,
  "versionHex": "00000001",
  "merkleroot": "3d6c5bc024f4adda218c0581e62313d0a835b4fa63f8053f6a8a2af99f1bc004",
  "time": 1237850832,
  "mediantime": 1237847070,
  "nonce": 2297698340,
  "bits": "1d00ffff",
  "difficulty": 1,
  "chainwork": "0000000000000000000000000000000000000000000000000000211e211e211e",
  "nTx": 1,
  "previousblockhash": "00000000ba01b873f18e03b73830aca04d0b86f579d0fd954ec57cab670fa305",
  "nextblockhash": "00000000c47e8c24b8c0fc198f9c3e45d722b6bb6fbab723640e2c429b19ae7e",
  "strippedsize": 216,
  "size": 216,
  "weight": 864,
  "tx": [
    {
      "txid": "3d6c5bc024f4adda218c0581e62313d0a835b4fa63f8053f6a8a2af99f1bc004",
      "hash": "3d6c5bc024f4adda218c0581e62313d0a835b4fa63f8053f6a8a2af99f1bc004",
      "version": 1,
      "size": 135,
      "vsize": 135,
      "weight": 540,
      "locktime": 0,
      "vin": [
        {
          "coinbase": "04ffff001d023d07",
          "sequence": 4294967295
        }
      ],
      "vout": [
        {
          "value": 50.0,
          "n": 0,
          "scriptPubKey": {
            "asm": "0403841de4246679187f940f06cb9c99679c8b55f03175a3d6c145fbc2363a2d5db2bc2769c3675a67cb02ec0bcb5730c314d76228aa98d0b2b00cb463c64faf0a OP_CHECKSIG",
            "desc": "pk(0403841de4246679187f940f06cb9c99679c8b55f03175a3d6c145fbc2363a2d5db2bc2769c3675a67cb02ec0bcb5730c314d76228aa98d0b2b00cb463c64faf0a)#9xjj40e8",
            "hex": "410403841de4246679187f940f06cb9c99679c8b55f03175a3d6c145fbc2363a2d5db2bc2769c3675a67cb02ec0bcb5730c314d76228aa98d0b2b00cb463c64faf0aac",
            "type": "pubkey"
          }
        }
      ],
      "hex": "01000000010000000000000000000000000000000000000000000000000000000000000000ffffffff0804ffff001d023d07ffffffff0100f2052a0100000043410403841de4246679187f940f06cb9c99679c8b55f03175a3d6c145fbc2363a2d5db2bc2769c3675a67cb02ec0bcb5730c314d76228aa98d0b2b00cb463c64faf0aac00000000"
    }
  ]
}