{
  "hash": "000000004b66f1288f8c9a705ee1793e0616369190b3dd4acbef4ddf9e57a06e",
  "confirmations": 47153,
  "height": 5945,
  "version": 1,
  "versionHex": "00000001",
  "merkleroot": "50bae4e7da1f5749ec6af56a007fa1ca54725112443456778f1fb9ba03ba5ad7",
  "time": 1235884872,
  "mediantime": 1235880674,
  "nonce": 297381099,
  "bits": "1d00ffff",
  "difficulty": 1,
  "chainwork": "0000000000000000000000000000000000000000000000000000173a173a173a",
  "nTx": 1,
  "previousblockhash": "0000000058ea26e4263178f3bbe49f200d291c104e757340dd145daa1faa1d10",
  "nextblockhash": "000000007b3b7755df1dcffaf3d8db55c69750d6e8a82fdd2ba64969f38c4282",
  "strippedsize": 216,
  "size": 216,
  "weight": 864,
  "tx": [
    {
      "txid": "50bae4e7da1f5749ec6af56a007fa1ca54725112443456778f1fb9ba03ba5ad7",
      "hash": "50bae4e7da1f5749ec6af56a007fa1ca54725112443456778f1fb9ba03ba5ad7",
      "version": 1,
      "size": 135,
      "vsize": 135,
      "weight": 540,
      "locktime": 0,
      "vin": [
        {
          "coinbase": "04ffff001d02b501",
          "sequence": 4294967295
        }
      ],
      "vout": [
        {
          "value": 50.0,
          "n": 0,
          "scriptPubKey": {
            "asm": "04565ec2022934ae9ae4154b78edf8689dc1130b1fa0bf34573d1e443fe113f8732c9aebc2448b2994a082c7a7926d12881aa4dedf8b13bafcb825c77e2299be9c OP_CHECKSIG",
            "desc": "pk(04565ec2022934ae9ae4154b78edf8689dc1130b1fa0bf34573d1e443fe113f8732c9aebc2448b2994a082c7a7926d12881aa4dedf8b13bafcb825c77e2299be9c)#dtmlk2ug",
            "hex": "4104565ec2022934ae9ae4154b78edf8689dc1130b1fa0bf34573d1e443fe113f8732c9aebc2448b2994a082c7a7926d12881aa4dedf8b13bafcb825c77e2299be9cac",
            "type": "pubkey"
          }
        }
      ],
      "hex": "01000000010000000000000000000000000000000000000000000000000000000000000000ffffffff0804ffff001d02b501ffffffff0100f2052a01000000434104565ec2022934ae9ae4154b78edf8689dc1130b1fa0bf34573d1e443fe113f8732c9aebc2448b2994a082c7a7926d12881aa4dedf8b13bafcb825c77e2299be9cac00000000"
    }
  ]
}