{
  "hash": "00000000578c7f5de49b1e67a0f0a98f36cd206c4ae8bec82edbe04960e316c4",
  "confirmations": 46740,
  "height": 6358,
  "version": 1,
  "versionHex": "00000001",
  "merkleroot": "dc1d4f3442583f1d0e8f3730cc173a40ea2d4533af1a9ed8f288b6861344568a",
  "time": 1236225823,
  "mediantime": 1236220274,
  "nonce": 3754691877,
  "bits": "1d00ffff",
  "difficulty": 1,
  "chainwork": "000000000000000000000000000000000000000000000000000018d718d718d7",
  "nTx": 1,
  "previousblockhash": "000000007721a546464c7708aa9257e62bae773ba89583442dd5ba2f8162b9d8",
  "nextblockhash": "000000002476471a1189d9a7ba2b3754c9cdffa56349c07fee98393bcf6dff10",
  "strippedsize": 216,
  "size": 216,
  "weight": 864,
  "tx": [
    {
      "txid": "dc1d4f3442583f1d0e8f3730cc173a40ea2d4533af1a9ed8f288b6861344568a",
      "hash": "dc1d4f3442583f1d0e8f3730cc173a40ea2d4533af1a9ed8f288b6861344568a",
      "version": 1,
      "size": 135,
      "vsize": 135,
      "weight": 540,
      "locktime": 0,
      "vin": [
        {
          "coinbase": "04ffff001d020901",
          "sequence": 4294967295
        }
      ],
      "vout": [
        {
          "value": 50.0,
          "n": 0,
          "scriptPubKey": {
            "asm": "04e42e96a6ddda750fe6ad0f23786ed899cdd0e3b4326f3a3dc0fd6c73fc773616541e648936d0a390e653927e65aa8bcad33d4a28258e48c7cc7c98ea5fcdd293 OP_CHECKSIG",
            "desc": "pk(04e42e96a6ddda750fe6ad0f23786ed899cdd0e3b4326f3a3dc0fd6c73fc773616541e648936d0a390e653927e65aa8bcad33d4a28258e48c7cc7c98ea5fcdd293)#femvu3pj",
            "hex": "4104e42e96a6ddda750fe6ad0f23786ed899cdd0e3b4326f3a3dc0fd6c73fc773616541e648936d0a390e653927e65aa8bcad33d4a28258e48c7cc7c98ea5fcdd293ac",
            "type": "pubkey"
          }
        }
      ],
      "hex": "01000000010000000000000000000000000000000000000000000000000000000000000000ffffffff0804ffff001d020901ffffffff0100f2052a01000000434104e42e96a6ddda750fe6ad0f23786ed899cdd0e3b4326f3a3dc0fd6c73fc773616541e648936d0a390e653927e65aa8bcad33d4a28258e48c7cc7c98ea5fcdd293ac00000000"
    }
  ]
}