{
  "hash": "00000000391ccdccc5b028199f8570b6f21f5595665ea6f0416a3c50cf4a283c",
  "confirmations": 46884,
  "height": 6214,
  "version": 1,
  "versionHex": "00000001",
  "merkleroot": "06747f94211660aa11776960a8f5b8e8bb329940e247edaca42e49e9e1258375",
  "time": 1236103391,
  "mediantime": 1236098797,
  "nonce": 200356184,
  "bits": "1d00ffff",
  "difficulty": 1,
  "chainwork": "0000000000000000000000000000000000000000000000000000184718471847",
  "nTx": 1,
  "previousblockhash": "00000000fa194d73503b3c2195de33f526e3ff5731005b93a75de60776a44ce9",
  "nextblockhash": "000000007aabdb1fa774c5cee7bb4daca791ec5ba0c2dd3d110129526477acf9",
  "strippedsize": 216,
  "size": 216,
  "weight": 864,
  "tx": [
    {
      "txid": "06747f94211660aa11776960a8f5b8e8bb329940e247edaca42e49e9e1258375",
      "hash": "06747f94211660aa11776960a8f5b8e8bb329940e247edaca42e49e9e1258375",
      "version": 1,
      "size": 135,
      "vsize": 135,
      "weight": 540,
      "locktime": 0,
      "vin": [
        {
          "coinbase": "04ffff001d028400",
          "sequence": 4294967295
        }
      ],
      "vout": [
        {
          "value": 50.0,
          "n": 0,
          "scriptPubKey": {
            "asm": "042a61aac326ccb1ed8a95a0a9206d925a84a0f90a55b0b9d0d26c45a34244a7a65ad6646cf62937648eab56320634273e996977ac37c6572ec723f4e0e76f62db OP_CHECKSIG",
            "desc": "pk(042a61aac326ccb1ed8a95a0a9206d925a84a0f90a55b0b9d0d26c45a34244a7a65ad6646cf62937648eab56320634273e996977ac37c6572ec723f4e0e76f62db)#62rm7y7h",
            "hex": "41042a61aac326ccb1ed8a95a0a9206d925a84a0f90a55b0b9d0d26c45a34244a7a65ad6646cf62937648eab56320634273e996977ac37c6572ec723f4e0e76f62dbac",
            "type": "pubkey"
          }
        }
      ],
      "hex": "01000000010000000000000000000000000000000000000000000000000000000000000000ffffffff0804ffff001d028400ffffffff0100f2052a010000004341042a61aac326ccb1ed8a95a0a9206d925a84a0f90a55b0b9d0d26c45a34244a7a65ad6646cf62937648eab56320634273e996977ac37c6572ec723f4e0e76f62dbac00000000"
    }
  ]
}