{
  "hash": "0000000056be2a39e6ebc28768c1966103f07dd743f0e4e2bfe505d0fa12f2a0",
  "confirmations": 45612,
  "height": 7486,
  "version": 1,
  "versionHex": "00000001",
  "merkleroot": "4c8e97f343f431167a9f04093c1e1ea0733210264f030b1f3b6b2a5c504e8330",
  "time": 1237086244,
  "mediantime": 1237082600,
  "nonce": 1933521197,
  "bits": "1d00ffff",
  "difficulty": 1,
  "chainwork": "00000000000000000000000000000000000000000000000000001d3f1d3f1d3f",
  "nTx": 1,
  "previousblockhash": "000000000a5bd621b698d946db9efde3bd5813a261a34d03213307bfa86ad341",
  "nextblockhash": "000000009e353a91c64cd1d4944a702dee9f1791451a9d52ad53c7e8bc278dee",
  "strippedsize": 216,
  "size": 216,
  "weight": 864,
  "tx": [
    {
      "txid": "4c8e97f343f431167a9f04093c1e1ea0733210264f030b1f3b6b2a5c504e8330",
      "hash": "4c8e97f343f431167a9f04093c1e1ea0733210264f030b1f3b6b2a5c504e8330",
      "version": 1,
      "size": 135,
      "vsize": 135,
      "weight": 540,
      "locktime": 0,
      "vin": [
        {
          "coinbase": "04ffff001d02b300",
          "sequence": 4294967295
        }
      ],
      "vout": [
        {
          "value": 50.0,
          "n": 0,
          "scriptPubKey": {
            "asm": "0448462cdcadda4a784d37d50da2727c2b8b2e5c7af54be7691224c38c9218953569cf863b82eb5cb98bf3cdd65fcd74e477cf39ba13e6cdd78a67a85bbf290572 OP_CHECKSIG",
            "desc": "pk(0448462cdcadda4a784d37d50da2727c2b8b2e5c7af54be7691224c38c9218953569cf863b82eb5cb98bf3cdd65fcd74e477cf39ba13e6cdd78a67a85bbf290572)#fz8526cp",
            "hex": "410448462cdcadda4a784d37d50da2727c2b8b2e5c7af54be7691224c38c9218953569cf863b82eb5cb98bf3cdd65fcd74e477cf39ba13e6cdd78a67a85bbf290572ac",
            "type": "pubkey"
          }
        }
      ],
      "hex": "01000000010000000000000000000000000000000000000000000000000000000000000000ffffffff0804ffff001d02b300ffffffff0100f2052a0100000043410448462cdcadda4a784d37d50da2727c2b8b2e5c7af54be7691224c38c9218953569cf863b82eb5cb98bf3cdd65fcd74e477cf39ba13e6cdd78a67a85bbf290572ac00000000"
    }
  ]
}