{
  "hash": "00000000837ed9c989ed7506b7ed9d04cffc3b32c9bc5bca7f4215d4c08f9237",
  "confirmations": 51063,
  "height": 2035,
  "version": 1,
  "versionHex": "00000001",
  "merkleroot": "733a1078721b7af63880758b97ea79688f6197e303dd65dd0fe874e2f3b61b33",
  "time": 1233079704,
  "mediantime": 1233076194,
  "nonce": 970090797,
  "bits": "1d00ffff",
  "difficulty": 1,
  "chainwork": "000000000000000000000000000000000000000000000000000007f407f407f4",
  "nTx": 1,
  "previousblockhash": "00000000aee0dbe3b27059da0a4410e4d59b3d70959f01ed21269dfab332d425",
  "nextblockhash": "0000000011de33c7f0a5c814697d7844d1c6ea5894bb0a2fb348289632844018",
  "strippedsize": 216,
  "size": 216,
  "weight": 864,
  "tx": [
    {
      "txid": "733a1078721b7af63880758b97ea79688f6197e303dd65dd0fe874e2f3b61b33",
      "hash": "733a1078721b7af63880758b97ea79688f6197e303dd65dd0fe874e2f3b61b33",
      "version": 1,
      "size": 135,
      "vsize": 135,
      "weight": 540,
      "locktime": 0,
      "vin": [
        {
          "coinbase": "04ffff001d027802",
          "sequence": 4294967295
        }
      ],
      "vout": [
        {
          "value": 50.0,
          "n": 0,
          "scriptPubKey": {
            "asm": "041a0f6439ed94287a1398d5ecf5ae4421e2f957a57cee64b08455c1f21f9b6b1cbd9aeba6fd1fae84e2285ea91b70b3192ce10965c323f45cfa9eb0b3f1d7556c OP_CHECKSIG",
            "desc": "pk(041a0f6439ed94287a1398d5ecf5ae4421e2f957a57cee64b08455c1f21f9b6b1cbd9aeba6fd1fae84e2285ea91b70b3192ce10965c323f45cfa9eb0b3f1d7556c)#uv60sj00",
            "hex": "41041a0f6439ed94287a1398d5ecf5ae4421e2f957a57cee64b08455c1f21f9b6b1cbd9aeba6fd1fae84e2285ea91b70b3192ce10965c323f45cfa9eb0b3f1d7556cac",
            "type": "pubkey"
          }
        }
      ],
      "hex": "01000000010000000000000000000000000000000000000000000000000000000000000000ffffffff0804ffff001d027802ffffffff0100f2052a010000004341041a0f6439ed94287a1398d5ecf5ae4421e2f957a57cee64b08455c1f21f9b6b1cbd9aeba6fd1fae84e2285ea91b70b3192ce10965c323f45cfa9eb0b3f1d7556cac00000000"
    }
  ]
}