{
  "hash": "00000000fef31a0a1273eda2985413155755ad82e4d9ea4cfdc0bccc4df83351",
  "confirmations": 50515,
  "height": 2583,
  "version": 1,
  "versionHex": "00000001",
  "merkleroot": "6045e68f8c9239ca7d06bd138ee3df035a91989fa382763f2cef34e3c68f58cc",
  "time": 1233480544,
  "mediantime": 1233476055,
  "nonce": 95935278,
  "bits": "1d00ffff",
  "difficulty": 1,
  "chainwork": "00000000000000000000000000000000000000000000000000000a180a180a18",
  "nTx": 1,
  "previousblockhash": "00000000b03f84706793f7980988895fb09e53e14ef747c39fe82e6263392398",
  "nextblockhash": "00000000cf760c950cd4733f117727628d87cff2b05ac8956e53381b908fd6e2",
  "strippedsize": 216,
  "size": 216,
  "weight": 864,
  "tx": [
    {
      "txid": "6045e68f8c9239ca7d06bd138ee3df035a91989fa382763f2cef34e3c68f58cc",
      "hash": "6045e68f8c9239ca7d06bd138ee3df035a91989fa382763f2cef34e3c68f58cc",
      "version": 1,
      "size": 135,
      "vsize": 135,
      "weight": 540,
      "locktime": 0,
      "vin": [
        {
          "coinbase": "04ffff001d02ad02",
          "sequence": 4294967295
        }
      ],
      "vout": [
        {
          "value": 50.0,
          "n": 0,
          "scriptPubKey": {
            "asm": "0436631c90e9cc13be2dd9d86af7971ae2616dfca449d9b569ec3ca9319274eb80426673ccdef854647e3c97a044371fbacde2015dd8be4f2ee38563693d85e67e OP_CHECKSIG",
            "desc": "pk(0436631c90e9cc13be2dd9d86af7971ae2616dfca449d9b569ec3ca9319274eb80426673ccdef854647e3c97a044371fbacde2015dd8be4f2ee38563693d85e67e)#qap2j3zh",
            "hex": "410436631c90e9cc13be2dd9d86af7971ae2616dfca449d9b569ec3ca9319274eb80426673ccdef854647e3c97a044371fbacde2015dd8be4f2ee38563693d85e67eac",
            "type": "pubkey"
          }
        }
      ],
      "hex": "01000000010000000000000000000000000000000000000000000000000000000000000000ffffffff0804ffff001d02ad02ffffffff0100f2052a0100000043410436631c90e9cc13be2dd9d86af7971ae2616dfca449d9b569ec3ca9319274eb80426673ccdef854647e3c97a044371fbacde2015dd8be4f2ee38563693d85e67eac00000000"
    }
  ]
}