{
  "hash": "000000002f226e2ccc2ad1ab8ff7df4dc044328099ac19d60ae93f0756abe21f",
  "confirmations": 46796,
  "height": 6302,
  "version": 1,
  "versionHex": "00000001",
  "merkleroot": "620c6158add536e56eef6e7fc952f5ba1c7d0292a4ddbaf1e2362ce657e3b251",
  "time": 1236174973,
  "mediantime": 1236170639,
  "nonce": 3323155765,
  "bits": "1d00ffff",
  "difficulty": 1,
  "chainwork": "0000000000000000000000000000000000000000000000000000189f189f189f",
  "nTx": 1,
  "previousblockhash": "00000000004b166c36d656f176b051ebe712ae69cfa624c5ab74719fbc6c7a56",
  "nextblockhash": "0000000093ac3b6bbc43928540ad72b03ae27521c778845ebcaca6295864983d",
  "strippedsize": 215,
  "size": 215,
  "weight": 860,
  "tx": [
    {
      "txid": "620c6158add536e56eef6e7fc952f5ba1c7d0292a4ddbaf1e2362ce657e3b251",
      "hash": "620c6158add536e56eef6e7fc952f5ba1c7d0292a4ddbaf1e2362ce657e3b251",
      "version": 1,
      "size": 134,
      "vsize": 134,
      "weight": 536,
      "locktime": 0,
      "vin": [
        {
          "coinbase": "04ffff001d012d",
          "sequence": 4294967295
        }
      ],
      "vout": [
        {
          "value": 50.0,
          "n": 0,
          "scriptPubKey": {
            "asm": "042dc78964ebf8b3abb81b4a3c546ef0325f2f596f5c38b5a23317e85699fc87db16fa44cba990b88c293ab8396923a212e8e0b24aae036d50e84333e39cf15df0 OP_CHECKSIG",
            "desc": "pk(042dc78964ebf8b3abb81b4a3c546ef0325f2f596f5c38b5a23317e85699fc87db16fa44cba990b88c293ab8396923a212e8e0b24aae036d50e84333e39cf15df0)#rqxyflcm",
            "hex": "41042dc78964ebf8b3abb81b4a3c546ef0325f2f596f5c38b5a23317e85699fc87db16fa44cba990b88c293ab8396923a212e8e0b24aae036d50e84333e39cf15df0ac",
            "type": "pubkey"
          }
        }
      ],
      "hex": "01000000010000000000000000000000000000000000000000000000000000000000000000ffffffff0704ffff001d012dffffffff0100f2052a010000004341042dc78964ebf8b3abb81b4a3c546ef0325f2f596f5c38b5a23317e85699fc87db16fa44cba990b88c293ab8396923a212e8e0b24aae036d50e84333e39cf15df0ac00000000"
    }
  ]
}