{
  "hash": "00000000d1c827fe034369dbbed5d835f5aad611cc802ba8862f3f1ade3860e8",
  "confirmations": 44068,
  "height": 9030,
  "version": 1,
  "versionHex": "00000001",
  "merkleroot": "d95dd58dc911425566c995446071cb41dc8952aa8e7c06cffcc6e2c6c13c09b6",
  "time": 1238273739,
  "mediantime": 1238270263,
  "nonce": 3391575606,
  "bits": "1d00ffff",
  "difficulty": 1,
  "chainwork": "0000000000000000000000000000000000000000000000000000234723472347",
  "nTx": 1,
  "previousblockhash": "00000000a712efd9a87e1ea84e9f781f9fabb91f1924065c457b6ccb0a7b9337",
  "nextblockhash": "00000000adee4235d3c2f7fe216299ef298c2802f1ea4505fb2138ff6991b2b8",
  "strippedsize": 216,
  "size": 216,
  "weight": 864,
  "tx": [
    {
      "txid": "d95dd58dc911425566c995446071cb41dc8952aa8e7c06cffcc6e2c6c13c09b6",
      "hash": "d95dd58dc911425566c995446071cb41dc8952aa8e7c06cffcc6e2c6c13c09b6",
      "version": 1,
      "size": 135,
      "vsize": 135,
      "weight": 540,
      "locktime": 0,
      "vin": [
        {
          "coinbase": "04ffff001d02e606",
          "sequence": 4294967295
        }
      ],
      "vout": [
        {
          "value": 50.0,
          "n": 0,
          "scriptPubKey": {
            "asm": "04b7482c3b2d65d4fc8daa26cbd4d543a7bb5205bc176c5312c9e0d675b13b32a42c7d3b62ec5d41c825322f8af737ee10f14d5b2948dcf9e32947d4a61889c871 OP_CHECKSIG",
            "desc": "pk(04b7482c3b2d65d4fc8daa26cbd4d543a7bb5205bc176c5312c9e0d675b13b32a42c7d3b62ec5d41c825322f8af737ee10f14d5b2948dcf9e32947d4a61889c871)#m909hy8j",
            "hex": "4104b7482c3b2d65d4fc8daa26cbd4d543a7bb5205bc176c5312c9e0d675b13b32a42c7d3b62ec5d41c825322f8af737ee10f14d5b2948dcf9e32947d4a61889c871ac",
            "type": "pubkey"
          }
        }
      ],
      "hex": "01000000010000000000000000000000000000000000000000000000000000000000000000ffffffff0804ffff001d02e606ffffffff0100f2052a01000000434104b7482c3b2d65d4fc8daa26cbd4d543a7bb5205bc176c5312c9e0d675b13b32a42c7d3b62ec5d41c825322f8af737ee10f14d5b2948dcf9e32947d4a61889c871ac00000000"
    }
  ]
}