{
  "hash": "000000000865506a72d77c94c24d867a61e79ef0f3dff73a7a8c8589004d76e2",
  "confirmations": 46547,
  "height": 6551,
  "version": 1,
  "versionHex": "00000001",
  "merkleroot": "4e0352d8235a9dc667fa3c14bbaa3d3d6d22b5035cf26fbd01ad1fbf23db07b0",
  "time": 1236366377,
  "mediantime": 1236362304,
  "nonce": 2422116920,
  "bits": "1d00ffff",
  "difficulty": 1,
  "chainwork": "0000000000000000000000000000000000000000000000000000199819981998",
  "nTx": 1,
  "previousblockhash": "000000007e64ffcb7bb48166d78eec11a5f6382839e39ef93cca7ab069419290",
  "nextblockhash": "0000000069080c00ad6658ce29f7a094ee78168e8eda10ccde62042f4b7744f9",
  "strippedsize": 216,
  "size": 216,
  "weight": 864,
  "tx": [
    {
      "txid": "4e0352d8235a9dc667fa3c14bbaa3d3d6d22b5035cf26fbd01ad1fbf23db07b0",
      "hash": "4e0352d8235a9dc667fa3c14bbaa3d3d6d22b5035cf26fbd01ad1fbf23db07b0",
      "version": 1,
      "size": 135,
      "vsize": 135,
      "weight": 540,
      "locktime": 0,
      "vin": [
        {
          "coinbase": "04ffff001d025904",
          "sequence": 4294967295
        }
      ],
      "vout": [
        {
          "value": 50.0,
          "n": 0,
          "scriptPubKey": {
            "asm": "0408bb1bb101e9597c12a95bb0ced78309824ad7a41a400481116a87a72ac7f6d02b3e0154502f93a69677a0ccf68d08737f04ca2579603f6715130cc657a5ff69 OP_CHECKSIG",
            "desc": "pk(0408bb1bb101e9597c12a95bb0ced78309824ad7a41a400481116a87a72ac7f6d02b3e0154502f93a69677a0ccf68d08737f04ca2579603f6715130cc657a5ff69)#m0mwush2",
            "hex": "410408bb1bb101e9597c12a95bb0ced78309824ad7a41a400481116a87a72ac7f6d02b3e0154502f93a69677a0ccf68d08737f04ca2579603f6715130cc657a5ff69ac",
            "type": "pubkey"
          }
        }
      ],
      "hex": "01000000010000000000000000000000000000000000000000000000000000000000000000ffffffff0804ffff001d025904ffffffff0100f2052a0100000043410408bb1bb101e9597c12a95bb0ced78309824ad7a41a400481116a87a72ac7f6d02b3e0154502f93a69677a0ccf68d08737f04ca2579603f6715130cc657a5ff69ac00000000"
    }
  ]
}