{
  "hash": "00000000dc579dc5d492fda5a4b7fa5e26107de3f401c82e036d34dc0ec02569",
  "confirmations": 48923,
  "height": 4175,
  "version": 1,
  "versionHex": "00000001",
  "merkleroot": "515e9b8e298772e497c18ff94995d4feb8ddec79d37cf97a617292ab5d583d96",
  "time": 1234563851,
  "mediantime": 1234560462,
  "nonce": 2159900188,
  "bits": "1d00ffff",
  "difficulty": 1,
  "chainwork": "0000000000000000000000000000000000000000000000000000105010501050",
  "nTx": 1,
  "previousblockhash": "00000000a4226bd5df776cfcacece1c81e3babea8bfa9c15b817eee75fb3a5fb",
  "nextblockhash": "000000005d2e34d81a4fb42185e4bde212ba511c0f5cc8c6a67cdd6b2e98116b",
  "strippedsize": 216,
  "size": 216,
  "weight": 864,
  "tx": [
    {
      "txid": "515e9b8e298772e497c18ff94995d4feb8ddec79d37cf97a617292ab5d583d96",
      "hash": "515e9b8e298772e497c18ff94995d4feb8ddec79d37cf97a617292ab5d583d96",
      "version": 1,
      "size": 135,
      "vsize": 135,
      "weight": 540,
      "locktime": 0,
      "vin": [
        {
          "coinbase": "04ffff001d02cb06",
          "sequence": 4294967295
        }
      ],
      "vout": [
        {
          "value": 50.0,
          "n": 0,
          "scriptPubKey": {
            "asm": "044a110fa48c33ff6ccfed3142156df8ec5b7f241aa18eec1c42483e24a3352535df2af4e50d6cdb4cfe57aa5e81a559024c9b89f50b124fbfe99c8a04caf1e886 OP_CHECKSIG",
            "desc": "pk(044a110fa48c33ff6ccfed3142156df8ec5b7f241aa18eec1c42483e24a3352535df2af4e50d6cdb4cfe57aa5e81a559024c9b89f50b124fbfe99c8a04caf1e886)#6gazshzq",
            "hex": "41044a110fa48c33ff6ccfed3142156df8ec5b7f241aa18eec1c42483e24a3352535df2af4e50d6cdb4cfe57aa5e81a559024c9b89f50b124fbfe99c8a04caf1e886ac",
            "type": "pubkey"
          }
        }
      ],
      "hex": "01000000010000000000000000000000000000000000000000000000000000000000000000ffffffff0804ffff001d02cb06ffffffff0100f2052a010000004341044a110fa48c33ff6ccfed3142156df8ec5b7f241aa18eec1c42483e24a3352535df2af4e50d6cdb4cfe57aa5e81a559024c9b89f50b124fbfe99c8a04caf1e886ac00000000"
    }
  ]
}