{
  "hash": "000000005cf1b64cac6f75161b89c7347baaa181b5b4f29ee62594981d9b5791",
  "confirmations": 46299,
  "height": 6799,
  "version": 1,
  "versionHex": "00000001",
  "merkleroot": "ffc7a8224d2d67bda2b701cd09864780c55626109dfa5fc58572e1bcd01c6fc9",
  "time": 1236556921,
  "mediantime": 1236553939,
  "nonce": 2367849238,
  "bits": "1d00ffff",
  "difficulty": 1,
  "chainwork": "00000000000000000000000000000000000000000000000000001a901a901a90",
  "nTx": 1,
  "previousblockhash": "00000000fca73a317b1903e03b50176a96706a2a87d7873c75b9ebcf574df28c",
  "nextblockhash": "000000009dbf018a558bb165176597ef69cc4c4be997f94e2c3e160059b93667",
  "strippedsize": 216,
  "size": 216,
  "weight": 864,
  "tx": [
    {
      "txid": "ffc7a8224d2d67bda2b701cd09864780c55626109dfa5fc58572e1bcd01c6fc9",
      "hash": "ffc7a8224d2d67bda2b701cd09864780c55626109dfa5fc58572e1bcd01c6fc9",
      "version": 1,
      "size": 135,
      "vsize": 135,
      "weight": 540,
      "locktime": 0,
      "vin": [
        {
          "coinbase": "04ffff001d020209",
          "sequence": 4294967295
        }
      ],
      "vout": [
        {
          "value": 50.0,
          "n": 0,
          "scriptPubKey": {
            "asm": "0438f123d2d6080c63cdbfa24931cc1286957fe8dda4959320c80dfbad996d5273900e937ccf1b5885409e81acdb327849fbb645c41462244546f037f82a770e30 OP_CHECKSIG",
            "desc": "pk(0438f123d2d6080c63cdbfa24931cc1286957fe8dda4959320c80dfbad996d5273900e937ccf1b5885409e81acdb327849fbb645c41462244546f037f82a770e30)#72yrpv3q",
            "hex": "410438f123d2d6080c63cdbfa24931cc1286957fe8dda4959320c80dfbad996d5273900e937ccf1b5885409e81acdb327849fbb645c41462244546f037f82a770e30ac",
            "type": "pubkey"
          }
        }
      ],
      "hex": "01000000010000000000000000000000000000000000000000000000000000000000000000ffffffff0804ffff001d020209ffffffff0100f2052a0100000043410438f123d2d6080c63cdbfa24931cc1286957fe8dda4959320c80dfbad996d5273900e937ccf1b5885409e81acdb327849fbb645c41462244546f037f82a770e30ac00000000"
    }
  ]
}