{
  "hash": "00000000870e5a1ab7db09b09b8657da6e938b6871456f12a1dc8ba87bcf7324",
  "confirmations": 47857,
  "height": 5241,
  "version": 1,
  "versionHex": "00000001",
  "merkleroot": "c4f48bd758b77975e75b6798aa13b4d0ce9b5613c259c326a8b7c5b3baa56ae8",
  "time": 1235315768,
  "mediantime": 1235313020,
  "nonce": 959719937,
  "bits": "1d00ffff",
  "difficulty": 1,
  "chainwork": "0000000000000000000000000000000000000000000000000000147a147a147a",
  "nTx": 1,
  "previousblockhash": "0000000052bdd6f8ba3d5612fdd8301802b3241cb0140109e5c8b81d99d0a5a6",
  "nextblockhash": "0000000037dff915d0898ffc914ee3d2c87472185ce1ef083e637ec7db994d15",
  "strippedsize": 216,
  "size": 216,
  "weight": 864,
  "tx": [
    {
      "txid": "c4f48bd758b77975e75b6798aa13b4d0ce9b5613c259c326a8b7c5b3baa56ae8",
      "hash": "c4f48bd758b77975e75b6798aa13b4d0ce9b5613c259c326a8b7c5b3baa56ae8",
      "version": 1,
      "size": 135,
      "vsize": 135,
      "weight": 540,
      "locktime": 0,
      "vin": [
        {
          "coinbase": "04ffff001d020d01",
          "sequence": 4294967295
        }
      ],
      "vout": [
        {
          "value": 50.0,
          "n": 0,
          "scriptPubKey": {
            "asm": "04810e160367c064467691c7bcab9520ab59f9fae7850909770f8bda16db1a337d392485c4bc27eb99fb903a69a83cbf4e4a18da84dbe244385ae63d0aa87663e5 OP_CHECKSIG",
            "desc": "pk(04810e160367c064467691c7bcab9520ab59f9fae7850909770f8bda16db1a337d392485c4bc27eb99fb903a69a83cbf4e4a18da84dbe244385ae63d0aa87663e5)#q3rkkpqt",
            "hex": "4104810e160367c064467691c7bcab9520ab59f9fae7850909770f8bda16db1a337d392485c4bc27eb99fb903a69a83cbf4e4a18da84dbe244385ae63d0aa87663e5ac",
            "type": "pubkey"
          }
        }
      ],
      "hex": "01000000010000000000000000000000000000000000000000000000000000000000000000ffffffff0804ffff001d020d01ffffffff0100f2052a01000000434104810e160367c064467691c7bcab9520ab59f9fae7850909770f8bda16db1a337d392485c4bc27eb99fb903a69a83cbf4e4a18da84dbe244385ae63d0aa87663e5ac00000000"
    }
  ]
}