{
  "hash": "000000006f580cb6ad9ae4f8087512620a575862772c5690e4e2e4587cc7d0b8",
  "confirmations": 50867,
  "height": 2231,
  "version": 1,
  "versionHex": "00000001",
  "merkleroot": "b69184320004019fb313f74d5385a54c1e0ed52365ff9c1fb5b344bc86796edc",
  "time": 1233235340,
  "mediantime": 1233231341,
  "nonce": 1568109111,
  "bits": "1d00ffff",
  "difficulty": 1,
  "chainwork": "000000000000000000000000000000000000000000000000000008b808b808b8",
  "nTx": 1,
  "previousblockhash": "00000000835466b0506cbbb587999ef0db2ff3ae9cdb3f0a3142341742754afe",
  "nextblockhash": "00000000d128995c0a95a56c5a045331f26a7b3d77c5f2705558564c970848cf",
  "strippedsize": 216,
  "size": 216,
  "weight": 864,
  "tx": [
    {
      "txid": "b69184320004019fb313f74d5385a54c1e0ed52365ff9c1fb5b344bc86796edc",
      "hash": "b69184320004019fb313f74d5385a54c1e0ed52365ff9c1fb5b344bc86796edc",
      "version": 1,
      "size": 135,
      "vsize": 135,
      "weight": 540,
      "locktime": 0,
      "vin": [
        {
          "coinbase": "04ffff001d02c800",
          "sequence": 4294967295
        }
      ],
      "vout": [
        {
          "value": 50.0,
          "n": 0,
          "scriptPubKey": {
            "asm": "04401571b6c3ffb731c5f533d743550a514eb426c871731763cf0e8ebb71c816c65bfe6ccdaf3dc33e6b675443709ab5e1da154e53f8aebbc36d24882aca896a24 OP_CHECKSIG",
            "desc": "pk(04401571b6c3ffb731c5f533d743550a514eb426c871731763cf0e8ebb71c816c65bfe6ccdaf3dc33e6b675443709ab5e1da154e53f8aebbc36d24882aca896a24)#t8atgdht",
            "hex": "4104401571b6c3ffb731c5f533d743550a514eb426c871731763cf0e8ebb71c816c65bfe6ccdaf3dc33e6b675443709ab5e1da154e53f8aebbc36d24882aca896a24ac",
            "type": "pubkey"
          }
        }
      ],
      "hex": "01000000010000000000000000000000000000000000000000000000000000000000000000ffffffff0804ffff001d02c800ffffffff0100f2052a01000000434104401571b6c3ffb731c5f533d743550a514eb426c871731763cf0e8ebb71c816c65bfe6ccdaf3dc33e6b675443709ab5e1da154e53f8aebbc36d24882aca896a24ac00000000"
    }
  ]
}