{
  "hash": "00000000a281b04becaff7e9d2509afb83861a5b027f814df9d0bda54ce1aa56",
  "confirmations": 51195,
  "height": 1903,
  "version": 1,
  "versionHex": "00000001",
  "merkleroot": "bcc81eac4871e11a1d5f5e52c46a481a7bc8b6ccbb5cf55874c4a66740fa3953",
  "time": 1232946068,
  "mediantime": 1232944634,
  "nonce": 4059325207,
  "bits": "1d00ffff",
  "difficulty": 1,
  "chainwork": "0000000000000000000000000000000000000000000000000000077007700770",
  "nTx": 1,
  "previousblockhash": "000000001ec525370be8bda598710df2b258cddb541c03d0d71fcaeb7fdfb2d1",
  "nextblockhash": "000000003cb957c9fdd08737db34b496c5240b50872b8527c660804c35fb6ee5",
  "strippedsize": 216,
  "size": 216,
  "weight": 864,
  "tx": [
    {
      "txid": "bcc81eac4871e11a1d5f5e52c46a481a7bc8b6ccbb5cf55874c4a66740fa3953",
      "hash": "bcc81eac4871e11a1d5f5e52c46a481a7bc8b6ccbb5cf55874c4a66740fa3953",
      "version": 1,
      "size": 135,
      "vsize": 135,
      "weight": 540,
      "locktime": 0,
      "vin": [
        {
          "coinbase": "04ffff001d024205",
          "sequence": 4294967295
        }
      ],
      "vout": [
        {
          "value": 50.0,
          "n": 0,
          "scriptPubKey": {
            "asm": "040b2a42d551010608b23007b597526c3f4a80e2eb3a6bbe4a6341bc2a1e693b995e7de160eb1218c263673cd954af1b46424b0321ccbc6f0e7c1e8470854bc353 OP_CHECKSIG",
            "desc": "pk(040b2a42d551010608b23007b597526c3f4a80e2eb3a6bbe4a6341bc2a1e693b995e7de160eb1218c263673cd954af1b46424b0321ccbc6f0e7c1e8470854bc353)#czn67gke",
            "hex": "41040b2a42d551010608b23007b597526c3f4a80e2eb3a6bbe4a6341bc2a1e693b995e7de160eb1218c263673cd954af1b46424b0321ccbc6f0e7c1e8470854bc353ac",
            "type": "pubkey"
          }
        }
      ],
      "hex": "01000000010000000000000000000000000000000000000000000000000000000000000000ffffffff0804ffff001d024205ffffffff0100f2052a010000004341040b2a42d551010608b23007b597526c3f4a80e2eb3a6bbe4a6341bc2a1e693b995e7de160eb1218c263673cd954af1b46424b0321ccbc6f0e7c1e8470854bc353ac00000000"
    }
  ]
}