{
  "hash": "0000000007ceec30862fd84b0aab7f69f396ab7efe405c4bdae0676f39204d47",
  "confirmations": 43696,
  "height": 9402,
  "version": 1,
  "versionHex": "00000001",
  "merkleroot": "784a7f0cd01a50e5c5138699dc950f2bf6cd8d7054795f75dbfc2880621f92fb",
  "time": 1238554664,
  "mediantime": 1238550026,
  "nonce": 4277210659,
  "bits": "1d00ffff",
  "difficulty": 1,
  "chainwork": "000000000000000000000000000000000000000000000000000024bb24bb24bb",
  "nTx": 1,
  "previousblockhash": "000000002c60ded12f2b34694c99c395c323d57b8d30ff752459bdd1c6ad7535",
  "nextblockhash": "00000000de05c30563e3dd88926559b180df792fee1fe63f9b4d87504daffc20",
  "strippedsize": 216,
  "size": 216,
  "weight": 864,
  "tx": [
    {
      "txid": "784a7f0cd01a50e5c5138699dc950f2bf6cd8d7054795f75dbfc2880621f92fb",
      "hash": "784a7f0cd01a50e5c5138699dc950f2bf6cd8d7054795f75dbfc2880621f92fb",
      "version": 1,
      "size": 135,
      "vsize": 135,
      "weight": 540,
      "locktime": 0,
      "vin": [
        {
          "coinbase": "04ffff001d02bc03",
          "sequence": 4294967295
        }
      ],
      "vout": [
        {
          "value": 50.0,
          "n": 0,
          "scriptPubKey": {
            "asm": "04163b5ae561f698bc42068a791d4079565270336fc9c1792cba80c63be7b8564869a01d6f0f98b3291a27a541e09d700f5813edf14e564bb04eb1cb32a722585b OP_CHECKSIG",
            "desc": "pk(04163b5ae561f698bc42068a791d4079565270336fc9c1792cba80c63be7b8564869a01d6f0f98b3291a27a541e09d700f5813edf14e564bb04eb1cb32a722585b)#ezxktch7",
            "hex": "4104163b5ae561f698bc42068a791d4079565270336fc9c1792cba80c63be7b8564869a01d6f0f98b3291a27a541e09d700f5813edf14e564bb04eb1cb32a722585bac",
            "type": "pubkey"
          }
        }
      ],
      "hex": "01000000010000000000000000000000000000000000000000000000000000000000000000ffffffff0804ffff001d02bc03ffffffff0100f2052a01000000434104163b5ae561f698bc42068a791d4079565270336fc9c1792cba80c63be7b8564869a01d6f0f98b3291a27a541e09d700f5813edf14e564bb04eb1cb32a722585bac00000000"
    }
  ]
}