{
  "hash": "00000000139581cca425d481f609d8c44bf5e72b9bf1fc0017d9c657eff35521",
  "confirmations": 43490,
  "height": 9608,
  "version": 1,
  "versionHex": "00000001",
  "merkleroot": "3943f60477c2d5161fb69f9da92c1d2ff5c274f7fea3396b5370e80963969df7",
  "time": 1238706633,
  "mediantime": 1238703494,
  "nonce": 3820534326,
  "bits": "1d00ffff",
  "difficulty": 1,
  "chainwork": "0000000000000000000000000000000000000000000000000000258925892589",
  "nTx": 1,
  "previousblockhash": "0000000038dfaa7ef44dfea851e1804e72c6fed0afff56fdc1a4e9cabff63699",
  "nextblockhash": "00000000fc7ab2ee2900e9053f4ab643b11a7dff589858f6a7c9b8e7bcfb81d2",
  "strippedsize": 216,
  "size": 216,
  "weight": 864,
  "tx": [
    {
      "txid": "3943f60477c2d5161fb69f9da92c1d2ff5c274f7fea3396b5370e80963969df7",
      "hash": "3943f60477c2d5161fb69f9da92c1d2ff5c274f7fea3396b5370e80963969df7",
      "version": 1,
      "size": 135,
      "vsize": 135,
      "weight": 540,
      "locktime": 0,
      "vin": [
        {
          "coinbase": "04ffff001d023607",
          "sequence": 4294967295
        }
      ],
      "vout": [
        {
          "value": 50.0,
          "n": 0,
          "scriptPubKey": {
            "asm": "04bc23beafebc41b9b720de5e5837e01d9d0efaaad5b61df32211cccece9ad285d7095300cc3d8e3eaf943b577168d9ebd1a2be84c5a984f6c6526fd8d37ca3ffa OP_CHECKSIG",
            "desc": "pk(04bc23beafebc41b9b720de5e5837e01d9d0efaaad5b61df32211cccece9ad285d7095300cc3d8e3eaf943b577168d9ebd1a2be84c5a984f6c6526fd8d37ca3ffa)#ul3sgngf",
            "hex": "4104bc23beafebc41b9b720de5e5837e01d9d0efaaad5b61df32211cccece9ad285d7095300cc3d8e3eaf943b577168d9ebd1a2be84c5a984f6c6526fd8d37ca3ffaac",
            "type": "pubkey"
          }
        }
      ],
      "hex": "01000000010000000000000000000000000000000000000000000000000000000000000000ffffffff0804ffff001d023607ffffffff0100f2052a01000000434104bc23beafebc41b9b720de5e5837e01d9d0efaaad5b61df32211cccece9ad285d7095300cc3d8e3eaf943b577168d9ebd1a2be84c5a984f6c6526fd8d37ca3ffaac00000000"
    }
  ]
}