{
  "hash": "000000002e02c833d243f4459015bc631c112395c220e8b7a1f709025f2f862d",
  "confirmations": 46226,
  "height": 6872,
  "version": 1,
  "versionHex": "00000001",
  "merkleroot": "a22f266cc5581591b6a3f93051e16471bf3aa352d0f7449db8ea8018e56b0a8c",
  "time": 1236610667,
  "mediantime": 1236606417,
  "nonce": 4150658612,
  "bits": "1d00ffff",
  "difficulty": 1,
  "chainwork": "00000000000000000000000000000000000000000000000000001ad91ad91ad9",
  "nTx": 1,
  "previousblockhash": "0000000034cf5a94968d475294737080888ee545706c3eb5ada30955027aed03",
  "nextblockhash": "00000000ad6361f79e31938dd028f4b87f60facd85f9cc8dde1ff2c9950ccf42",
  "strippedsize": 216,
  "size": 216,
  "weight": 864,
  "tx": [
    {
      "txid": "a22f266cc5581591b6a3f93051e16471bf3aa352d0f7449db8ea8018e56b0a8c",
      "hash": "a22f266cc5581591b6a3f93051e16471bf3aa352d0f7449db8ea8018e56b0a8c",
      "version": 1,
      "size": 135,
      "vsize": 135,
      "weight": 540,
      "locktime": 0,
      "vin": [
        {
          "coinbase": "04ffff001d021a0a",
          "sequence": 4294967295
        }
      ],
      "vout": [
        {
          "value": 50.0,
          "n": 0,
          "scriptPubKey": {
            "asm": "04413de2c4a1f79a6971e6887cac76e999845c112ca445745ff4a58e8168e1a4011d2def0459cf867173c054da5dad1b4f5705839382ba7ea18174dca63b60921a OP_CHECKSIG",
            "desc": "pk(04413de2c4a1f79a6971e6887cac76e999845c112ca445745ff4a58e8168e1a4011d2def0459cf867173c054da5dad1b4f5705839382ba7ea18174dca63b60921a)#l0yvsdxf",
            "hex": "4104413de2c4a1f79a6971e6887cac76e999845c112ca445745ff4a58e8168e1a4011d2def0459cf867173c054da5dad1b4f5705839382ba7ea18174dca63b60921aac",
            "type": "pubkey"
          }
        }
      ],
      "hex": "01000000010000000000000000000000000000000000000000000000000000000000000000ffffffff0804ffff001d021a0affffffff0100f2052a01000000434104413de2c4a1f79a6971e6887cac76e999845c112ca445745ff4a58e8168e1a4011d2def0459cf867173c054da5dad1b4f5705839382ba7ea18174dca63b60921aac00000000"
    }
  ]
}