{
  "hash": "0000000081aae35d3fcac45280d84af2d10453d8005e9db2c549e062373b0e97",
  "confirmations": 43445,
  "height": 9653,
  "version": 1,
  "versionHex": "00000001",
  "merkleroot": "3c112b20083b9b0b6dff3ce6645cc4cb4e03a4a87d49d98c8a6758c3b97ab7f0",
  "time": 1238743789,
  "mediantime": 1238738899,
  "nonce": 2476271381,
  "bits": "1d00ffff",
  "difficulty": 1,
  "chainwork": "000000000000000000000000000000000000000000000000000025b625b625b6",
  "nTx": 1,
  "previousblockhash": "00000000855a4014ebff20693aa8e9059d9f4d8f1265b683e54f8c3a87dcfd92",
  "nextblockhash": "00000000645934b390e6a4d8d8134d686c9be38274a0b4f9ae70b16c39cb60b3",
  "strippedsize": 216,
  "size": 216,
  "weight": 864,
  "tx": [
    {
      "txid": "3c112b20083b9b0b6dff3ce6645cc4cb4e03a4a87d49d98c8a6758c3b97ab7f0",
      "hash": "3c112b20083b9b0b6dff3ce6645cc4cb4e03a4a87d49d98c8a6758c3b97ab7f0",
      "version": 1,
      "size": 135,
      "vsize": 135,
      "weight": 540,
      "locktime": 0,
      "vin": [
        {
          "coinbase": "04ffff001d02c007",
          "sequence": 4294967295
        }
      ],
      "vout": [
        {
          "value": 50.0,
          "n": 0,
          "scriptPubKey": {
            "asm": "04313ca7588f541150572109e2ff67c3dac34938bf8f7dce21eebab962785d4b34ce2bc37ec78a7bbb9fb1a6f44653f9e0b794bbc88740b407988742b34b4c8741 OP_CHECKSIG",
            "desc": "pk(04313ca7588f541150572109e2ff67c3dac34938bf8f7dce21eebab962785d4b34ce2bc37ec78a7bbb9fb1a6f44653f9e0b794bbc88740b407988742b34b4c8741)#8vey7c7q",
            "hex": "4104313ca7588f541150572109e2ff67c3dac34938bf8f7dce21eebab962785d4b34ce2bc37ec78a7bbb9fb1a6f44653f9e0b794bbc88740b407988742b34b4c8741ac",
            "type": "pubkey"
          }
        }
      ],
      "hex": "01000000010000000000000000000000000000000000000000000000000000000000000000ffffffff0804ffff001d02c007ffffffff0100f2052a01000000434104313ca7588f541150572109e2ff67c3dac34938bf8f7dce21eebab962785d4b34ce2bc37ec78a7bbb9fb1a6f44653f9e0b794bbc88740b407988742b34b4c8741ac00000000"
    }
  ]
}