{
  "hash": "00000000832ac9edd5405a1fd4e417d879d17d8f344813f48f49ed725f9a5690",
  "confirmations": 46308,
  "height": 6790,
  "version": 1,
  "versionHex": "00000001",
  "merkleroot": "7c7d89b0c47f693614bbaefe787af8929496e9f8e59e9a8b81a9f96e410c04b2",
  "time": 1236551547,
  "mediantime": 1236548382,
  "nonce": 1173947447,
  "bits": "1d00ffff",
  "difficulty": 1,
  "chainwork": "00000000000000000000000000000000000000000000000000001a871a871a87",
  "nTx": 1,
  "previousblockhash": "0000000036adcbd6314843e3dbba6982acae6d3e44f020ece3130405c84e89f1",
  "nextblockhash": "000000005228ece0026fd6d775ca17dbd74fcd7dfe061b0b4072cfe2c58c577b",
  "strippedsize": 216,
  "size": 216,
  "weight": 864,
  "tx": [
    {
      "txid": "7c7d89b0c47f693614bbaefe787af8929496e9f8e59e9a8b81a9f96e410c04b2",
      "hash": "7c7d89b0c47f693614bbaefe787af8929496e9f8e59e9a8b81a9f96e410c04b2",
      "version": 1,
      "size": 135,
      "vsize": 135,
      "weight": 540,
      "locktime": 0,
      "vin": [
        {
          "coinbase": "04ffff001d02b408",
          "sequence": 4294967295
        }
      ],
      "vout": [
        {
          "value": 50.0,
          "n": 0,
          "scriptPubKey": {
            "asm": "04ee5afe89f05b995efccb5e2ffcfa1817df05f2462b74e12a105503dfeb660011c9a6ef6ae4f32c40a63db75a23f5a9d30a568959124a6d5bc306be9cbf8efaec OP_CHECKSIG",
            "desc": "pk(04ee5afe89f05b995efccb5e2ffcfa1817df05f2462b74e12a105503dfeb660011c9a6ef6ae4f32c40a63db75a23f5a9d30a568959124a6d5bc306be9cbf8efaec)#uelqc2eg",
            "hex": "4104ee5afe89f05b995efccb5e2ffcfa1817df05f2462b74e12a105503dfeb660011c9a6ef6ae4f32c40a63db75a23f5a9d30a568959124a6d5bc306be9cbf8efaecac",
            "type": "pubkey"
          }
        }
      ],
      "hex": "01000000010000000000000000000000000000000000000000000000000000000000000000ffffffff0804ffff001d02b408ffffffff0100f2052a01000000434104ee5afe89f05b995efccb5e2ffcfa1817df05f2462b74e12a105503dfeb660011c9a6ef6ae4f32c40a63db75a23f5a9d30a568959124a6d5bc306be9cbf8efaecac00000000"
    }
  ]
}