{
  "hash": "0000000062436dec026b8c8fcf9aea8554312de16d35888f05d2b41710850477",
  "confirmations": 51100,
  "height": 1998,
  "version": 1,
  "versionHex": "00000001",
  "merkleroot": "a3b6ca5456d9de369da6220fad8a39a3bffba5ca12c9c4b680a5e74a3a76958f",
  "time": 1233044877,
  "mediantime": 1233040455,
  "nonce": 1167109659,
  "bits": "1d00ffff",
  "difficulty": 1,
  "chainwork": "000000000000000000000000000000000000000000000000000007cf07cf07cf",
  "nTx": 1,
  "previousblockhash": "000000000f84cb6d276c94f0d8b9ad3d398c164d9eda53491a1102cd4d16ef0d",
  "nextblockhash": "00000000a1496d802a4a4074590ec34074b76a8ea6b81c1c9ad4192d3c2ea226",
  "strippedsize": 216,
  "size": 216,
  "weight": 864,
  "tx": [
    {
      "txid": "a3b6ca5456d9de369da6220fad8a39a3bffba5ca12c9c4b680a5e74a3a76958f",
      "hash": "a3b6ca5456d9de369da6220fad8a39a3bffba5ca12c9c4b680a5e74a3a76958f",
      "version": 1,
      "size": 135,
      "vsize": 135,
      "weight": 540,
      "locktime": 0,
      "vin": [
        {
          "coinbase": "04ffff001d028d01",
          "sequence": 4294967295
        }
      ],
      "vout": [
        {
          "value": 50.0,
          "n": 0,
          "scriptPubKey": {
            "asm": "04917ea9ef57e304262b47aab0d1670319907c8a5d29b063e35d7764029e59863cb9ba938bfab2f57b14dafb53d4d612594cd5d226c7107122176ce6ac5cd903f9 OP_CHECKSIG",
            "desc": "pk(04917ea9ef57e304262b47aab0d1670319907c8a5d29b063e35d7764029e59863cb9ba938bfab2f57b14dafb53d4d612594cd5d226c7107122176ce6ac5cd903f9)#xlxyfgka",
            "hex": "4104917ea9ef57e304262b47aab0d1670319907c8a5d29b063e35d7764029e59863cb9ba938bfab2f57b14dafb53d4d612594cd5d226c7107122176ce6ac5cd903f9ac",
            "type": "pubkey"
          }
        }
      ],
      "hex": "01000000010000000000000000000000000000000000000000000000000000000000000000ffffffff0804ffff001d028d01ffffffff0100f2052a01000000434104917ea9ef57e304262b47aab0d1670319907c8a5d29b063e35d7764029e59863cb9ba938bfab2f57b14dafb53d4d612594cd5d226c7107122176ce6ac5cd903f9ac00000000"
    }
  ]
}