{
  "hash": "000000002a555569598406c445badcbcf4af893f20d4c6d2c238802c53436511",
  "confirmations": 45989,
  "height": 7109,
  "version": 1,
  "versionHex": "00000001",
  "merkleroot": "8d7e490ac74ba36e449bbe990b570878a23380ec062ed675898dff175aea9f25",
  "time": 1236804929,
  "mediantime": 1236800214,
  "nonce": 229988414,
  "bits": "1d00ffff",
  "difficulty": 1,
  "chainwork": "00000000000000000000000000000000000000000000000000001bc61bc61bc6",
  "nTx": 1,
  "previousblockhash": "00000000adee5d7e2d3fd6b4b2d44f1bea1d1342d1dab9db7441b782383fa3bd",
  "nextblockhash": "00000000c19cb1fd730769e13f243bab5338163c044e5067e5b2a10e61159655",
  "strippedsize": 215,
  "size": 215,
  "weight": 860,
  "tx": [
    {
      "txid": "8d7e490ac74ba36e449bbe990b570878a23380ec062ed675898dff175aea9f25",
      "hash": "8d7e490ac74ba36e449bbe990b570878a23380ec062ed675898dff175aea9f25",
      "version": 1,
      "size": 134,
      "vsize": 134,
      "weight": 536,
      "locktime": 0,
      "vin": [
        {
          "coinbase": "04ffff001d013c",
          "sequence": 4294967295
        }
      ],
      "vout": [
        {
          "value": 50.0,
          "n": 0,
          "scriptPubKey": {
            "asm": "041fa5dc67e4cd5fdeb12baca8a6e4020c39387543dffc911eab074c48f8d8199fec50d19c90ed23628e3b83103e7cbc52ec2686811c3e85d2e4da35c2254a9e70 OP_CHECKSIG",
            "desc": "pk(041fa5dc67e4cd5fdeb12baca8a6e4020c39387543dffc911eab074c48f8d8199fec50d19c90ed23628e3b83103e7cbc52ec2686811c3e85d2e4da35c2254a9e70)#d00qpz9l",
            "hex": "41041fa5dc67e4cd5fdeb12baca8a6e4020c39387543dffc911eab074c48f8d8199fec50d19c90ed23628e3b83103e7cbc52ec2686811c3e85d2e4da35c2254a9e70ac",
            "type": "pubkey"
          }
        }
      ],
      "hex": "01000000010000000000000000000000000000000000000000000000000000000000000000ffffffff0704ffff001d013cffffffff0100f2052a010000004341041fa5dc67e4cd5fdeb12baca8a6e4020c39387543dffc911eab074c48f8d8199fec50d19c90ed23628e3b83103e7cbc52ec2686811c3e85d2e4da35c2254a9e70ac00000000"
    }
  ]
}