{
  "hash": "000000007a6f495d4f7495b8f36266822d741415acf0ceb3729f8863ea8e6567",
  "confirmations": 45817,
  "height": 7281,
  "version": 1,
  "versionHex": "00000001",
  "merkleroot": "b360e0813de940b053bd90889338e9c02ce09d192f6f907e0167ed91f27340c6",
  "time": 1236932266,
  "mediantime": 1236928953,
  "nonce": 2650492447,
  "bits": "1d00ffff",
  "difficulty": 1,
  "chainwork": "00000000000000000000000000000000000000000000000000001c721c721c72",
  "nTx": 1,
  "previousblockhash": "00000000ab56cdc9af24b07edd56b6f8fe77be5abb859b481d03f1631dcd914b",
  "nextblockhash": "00000000dc647e1a8dab876039d77f9e54561b6996bc4bf63f7398cfb19d83fc",
  "strippedsize": 216,
  "size": 216,
  "weight": 864,
  "tx": [
    {
      "txid": "b360e0813de940b053bd90889338e9c02ce09d192f6f907e0167ed91f27340c6",
      "hash": "b360e0813de940b053bd90889338e9c02ce09d192f6f907e0167ed91f27340c6",
      "version": 1,
      "size": 135,
      "vsize": 135,
      "weight": 540,
      "locktime": 0,
      "vin": [
        {
          "coinbase": "04ffff001d02ff06",
          "sequence": 4294967295
        }
      ],
      "vout": [
        {
          "value": 50.0,
          "n": 0,
          "scriptPubKey": {
            "asm": "0473c50b39222f24149e6475075c21b6c870c9646f8f34fdb512aa5be7a3d6b2a930b80d940177397b579318611ab85530ba9dca5e64918d65e68b2e21c8f05b85 OP_CHECKSIG",
            "desc": "pk(0473c50b39222f24149e6475075c21b6c870c9646f8f34fdb512aa5be7a3d6b2a930b80d940177397b579318611ab85530ba9dca5e64918d65e68b2e21c8f05b85)#men2gz97",
            "hex": "410473c50b39222f24149e6475075c21b6c870c9646f8f34fdb512aa5be7a3d6b2a930b80d940177397b579318611ab85530ba9dca5e64918d65e68b2e21c8f05b85ac",
            "type": "pubkey"
          }
        }
      ],
      "hex": "01000000010000000000000000000000000000000000000000000000000000000000000000ffffffff0804ffff001d02ff06ffffffff0100f2052a0100000043410473c50b39222f24149e6475075c21b6c870c9646f8f34fdb512aa5be7a3d6b2a930b80d940177397b579318611ab85530ba9dca5e64918d65e68b2e21c8f05b85ac00000000"
    }
  ]
}