{
  "hash": "000000007d6eecd3105802bc01a92d204439bbb8aeb3a0e840661842bfabf70f",
  "confirmations": 47693,
  "height": 5405,
  "version": 1,
  "versionHex": "00000001",
  "merkleroot": "60255fd51ab8516e1ec81ec21d2f8291c2787f3b2b0f586ddee507650a977b52",
  "time": 1235443934,
  "mediantime": 1235441214,
  "nonce": 3599007799,
  "bits": "1d00ffff",
  "difficulty": 1,
  "chainwork": "0000000000000000000000000000000000000000000000000000151e151e151e",
  "nTx": 1,
  "previousblockhash": "000000009ca947874aa9c7a719abd09e73925d749560a6284a38e786b5c38adc",
  "nextblockhash": "00000000dc94a1535f74f830a00f6fc3ded90465a64f2bc128a600e5009cc882",
  "strippedsize": 216,
  "size": 216,
  "weight": 864,
  "tx": [
    {
      "txid": "60255fd51ab8516e1ec81ec21d2f8291c2787f3b2b0f586ddee507650a977b52",
      "hash": "60255fd51ab8516e1ec81ec21d2f8291c2787f3b2b0f586ddee507650a977b52",
      "version": 1,
      "size": 135,
      "vsize": 135,
      "weight": 540,
      "locktime": 0,
      "vin": [
        {
          "coinbase": "04ffff001d02b903",
          "sequence": 4294967295
        }
      ],
      "vout": [
        {
          "value": 50.0,
          "n": 0,
          "scriptPubKey": {
            "asm": "04f3cd8e559949647499bee86c58dbd446f72ff3342c5b8c0349728654b7d2ec083869c814856cfaa0bae2c2ca0d321acef3a64e8d0ea422037240a042c3933e97 OP_CHECKSIG",
            "desc": "pk(04f3cd8e559949647499bee86c58dbd446f72ff3342c5b8c0349728654b7d2ec083869c814856cfaa0bae2c2ca0d321acef3a64e8d0ea422037240a042c3933e97)#39myn4na",
            "hex": "4104f3cd8e559949647499bee86c58dbd446f72ff3342c5b8c0349728654b7d2ec083869c814856cfaa0bae2c2ca0d321acef3a64e8d0ea422037240a042c3933e97ac",
            "type": "pubkey"
          }
        }
      ],
      "hex": "01000000010000000000000000000000000000000000000000000000000000000000000000ffffffff0804ffff001d02b903ffffffff0100f2052a01000000434104f3cd8e559949647499bee86c58dbd446f72ff3342c5b8c0349728654b7d2ec083869c814856cfaa0bae2c2ca0d321acef3a64e8d0ea422037240a042c3933e97ac00000000"
    }
  ]
}