{
  "hash": "000000009e40d8a56d6aefd563dfc8898ff546010354318af9a4490b11c7fbd9",
  "confirmations": 43425,
  "height": 9673,
  "version": 1,
  "versionHex": "00000001",
  "merkleroot": "185dbc5e01a91fbf84f5bf2d5c0ae85e2cb1faeb54946481fd2de8bce6ee6be7",
  "time": 1238757395,
  "mediantime": 1238752768,
  "nonce": 142255125,
  "bits": "1d00ffff",
  "difficulty": 1,
  "chainwork": "000000000000000000000000000000000000000000000000000025ca25ca25ca",
  "nTx": 1,
  "previousblockhash": "000000000e5be92ebf28748e676d3c55dc44a002ca56bd034851a47458cc2a57",
  "nextblockhash": "00000000feeb15949dc14692655dfc681db8c43c7f70dc50807579778bb9a5c0",
  "strippedsize": 216,
  "size": 216,
  "weight": 864,
  "tx": [
    {
      "txid": "185dbc5e01a91fbf84f5bf2d5c0ae85e2cb1faeb54946481fd2de8bce6ee6be7",
      "hash": "185dbc5e01a91fbf84f5bf2d5c0ae85e2cb1faeb54946481fd2de8bce6ee6be7",
      "version": 1,
      "size": 135,
      "vsize": 135,
      "weight": 540,
      "locktime": 0,
      "vin": [
        {
          "coinbase": "04ffff001d02f507",
          "sequence": 4294967295
        }
      ],
      "vout": [
        {
          "value": 50.0,
          "n": 0,
          "scriptPubKey": {
            "asm": "040812708069c38ebe333363e835c1e485763f8815f46251bda504226629d1eb948969c7a1cc13de2cdd2d205280d561a8b1812c0e6f33b2b11c009a501cce3529 OP_CHECKSIG",
            "desc": "pk(040812708069c38ebe333363e835c1e485763f8815f46251bda504226629d1eb948969c7a1cc13de2cdd2d205280d561a8b1812c0e6f33b2b11c009a501cce3529)#gk0ppzu3",
            "hex": "41040812708069c38ebe333363e835c1e485763f8815f46251bda504226629d1eb948969c7a1cc13de2cdd2d205280d561a8b1812c0e6f33b2b11c009a501cce3529ac",
            "type": "pubkey"
          }
        }
      ],
      "hex": "01000000010000000000000000000000000000000000000000000000000000000000000000ffffffff0804ffff001d02f507ffffffff0100f2052a010000004341040812708069c38ebe333363e835c1e485763f8815f46251bda504226629d1eb948969c7a1cc13de2cdd2d205280d561a8b1812c0e6f33b2b11c009a501cce3529ac00000000"
    }
  ]
}