{
  "hash": "000000003b2609ae9985061b1d703b9fa1e9bb21e3ae9a73c893a5b8e42223a2",
  "confirmations": 43455,
  "height": 9643,
  "version": 1,
  "versionHex": "00000001",
  "merkleroot": "bd9a218996622bc332b45b5c5401ed7f2eb1ddf0913df08410565f458d4d6dc7",
  "time": 1238734651,
  "mediantime": 1238730736,
  "nonce": 3933080875,
  "bits": "1d00ffff",
  "difficulty": 1,
  "chainwork": "000000000000000000000000000000000000000000000000000025ac25ac25ac",
  "nTx": 1,
  "previousblockhash": "000000009d4bbe1d70cd2b29800236b8cfa5d042ff46a83b0fb1549931c215fc",
  "nextblockhash": "000000007d0aa517378d078ec3a736e0d9db7a105ed8341ee8f39ffa0725181f",
  "strippedsize": 216,
  "size": 216,
  "weight": 864,
  "tx": [
    {
      "txid": "bd9a218996622bc332b45b5c5401ed7f2eb1ddf0913df08410565f458d4d6dc7",
      "hash": "bd9a218996622bc332b45b5c5401ed7f2eb1ddf0913df08410565f458d4d6dc7",
      "version": 1,
      "size": 135,
      "vsize": 135,
      "weight": 540,
      "locktime": 0,
      "vin": [
        {
          "coinbase": "04ffff001d029c07",
          "sequence": 4294967295
        }
      ],
      "vout": [
        {
          "value": 50.0,
          "n": 0,
          "scriptPubKey": {
            "asm": "04a9a6078fc6c94572a6ba0b03755c03eb2998c139bb22ab8d2a7159913041237d6d962c8b2d14b9d9494d580f3c8f9479e56be989c0a140a08375d87debf0906b OP_CHECKSIG",
            "desc": "pk(04a9a6078fc6c94572a6ba0b03755c03eb2998c139bb22ab8d2a7159913041237d6d962c8b2d14b9d9494d580f3c8f9479e56be989c0a140a08375d87debf0906b)#ykvg2yhu",
            "hex": "4104a9a6078fc6c94572a6ba0b03755c03eb2998c139bb22ab8d2a7159913041237d6d962c8b2d14b9d9494d580f3c8f9479e56be989c0a140a08375d87debf0906bac",
            "type": "pubkey"
          }
        }
      ],
      "hex": "01000000010000000000000000000000000000000000000000000000000000000000000000ffffffff0804ffff001d029c07ffffffff0100f2052a01000000434104a9a6078fc6c94572a6ba0b03755c03eb2998c139bb22ab8d2a7159913041237d6d962c8b2d14b9d9494d580f3c8f9479e56be989c0a140a08375d87debf0906bac00000000"
    }
  ]
}