{
  "hash": "00000000f5c717faadb357dce445bcec4df0bc4bacb28ec8722c39c8f538fe78",
  "confirmations": 50728,
  "height": 2370,
  "version": 1,
  "versionHex": "00000001",
  "merkleroot": "68350b6cd53292c20de052f0b6af6c476b7bae48d782f00cd79cd9c0ee6613ba",
  "time": 1233328994,
  "mediantime": 1233324849,
  "nonce": 3343022392,
  "bits": "1d00ffff",
  "difficulty": 1,
  "chainwork": "0000000000000000000000000000000000000000000000000000094309430943",
  "nTx": 1,
  "previousblockhash": "000000009836981bc8bef855a48ed5c3bc77a4b26fcca29fc636d68815b29184",
  "nextblockhash": "000000009a0e5a58ce8d2fe91c10f50bcf676dd707f58e5cddb8bd67698a3441",
  "strippedsize": 216,
  "size": 216,
  "weight": 864,
  "tx": [
    {
      "txid": "68350b6cd53292c20de052f0b6af6c476b7bae48d782f00cd79cd9c0ee6613ba",
      "hash": "68350b6cd53292c20de052f0b6af6c476b7bae48d782f00cd79cd9c0ee6613ba",
      "version": 1,
      "size": 135,
      "vsize": 135,
      "weight": 540,
      "locktime": 0,
      "vin": [
        {
          "coinbase": "04ffff001d02f102",
          "sequence": 4294967295
        }
      ],
      "vout": [
        {
          "value": 50.0,
          "n": 0,
          "scriptPubKey": {
            "asm": "04999376a2762a6a7c3f221da42ddb7bac39cda1d1f2cf50c7973618e698734ec6fcb9a138ac2febbb34da37f19765da01b66bc1d46bc1e8fd249c6b0244647052 OP_CHECKSIG",
            "desc": "pk(04999376a2762a6a7c3f221da42ddb7bac39cda1d1f2cf50c7973618e698734ec6fcb9a138ac2febbb34da37f19765da01b66bc1d46bc1e8fd249c6b0244647052)#n3ktqvy5",
            "hex": "4104999376a2762a6a7c3f221da42ddb7bac39cda1d1f2cf50c7973618e698734ec6fcb9a138ac2febbb34da37f19765da01b66bc1d46bc1e8fd249c6b0244647052ac",
            "type": "pubkey"
          }
        }
      ],
      "hex": "01000000010000000000000000000000000000000000000000000000000000000000000000ffffffff0804ffff001d02f102ffffffff0100f2052a01000000434104999376a2762a6a7c3f221da42ddb7bac39cda1d1f2cf50c7973618e698734ec6fcb9a138ac2febbb34da37f19765da01b66bc1d46bc1e8fd249c6b0244647052ac00000000"
    }
  ]
}