{
  "hash": "00000000db64cbf7545cc66bc9a9eeb6f5ab53f843144be6f1932ac36fd72c04",
  "confirmations": 52188,
  "height": 475,
  "version": 1,
  "versionHex": "00000001",
  "merkleroot": "8cc859fd41a05ede4b46f800042d91194ab0c66677d44bba0cbda61746174ccb",
  "time": 1231951310,
  "mediantime": 1231948637,
  "nonce": 4022490140,
  "bits": "1d00ffff",
  "difficulty": 1,
  "chainwork": "000000000000000000000000000000000000000000000000000001dc01dc01dc",
  "nTx": 1,
  "previousblockhash": "000000000d15d5f0d9971ab61c06e59f2e63e4a9cfbbb79d8f2b9d32243ee540",
  "nextblockhash": "000000008d3b06397627839cb42386e01e1e097432a9c5393170c4b6ce909372",
  "strippedsize": 216,
  "size": 216,
  "weight": 864,
  "tx": [
    {
      "txid": "8cc859fd41a05ede4b46f800042d91194ab0c66677d44bba0cbda61746174ccb",
      "hash": "8cc859fd41a05ede4b46f800042d91194ab0c66677d44bba0cbda61746174ccb",
      "version": 1,
      "size": 135,
      "vsize": 135,
      "weight": 540,
      "locktime": 0,
      "vin": [
        {
          "coinbase": "04ffff001d020b04",
          "sequence": 4294967295
        }
      ],
      "vout": [
        {
          "value": 50.0,
          "n": 0,
          "scriptPubKey": {
            "asm": "041de2f6f8366bd63dfd95c3ed8137eeb71447805a88dfd18d25bc7c4d5826fa2f838c96a6372d0e3a61f95993867b28ade8b7087a93f29569d07aaac40dec0076 OP_CHECKSIG",
            "desc": "pk(041de2f6f8366bd63dfd95c3ed8137eeb71447805a88dfd18d25bc7c4d5826fa2f838c96a6372d0e3a61f95993867b28ade8b7087a93f29569d07aaac40dec0076)#lh7tkq7p",
            "hex": "41041de2f6f8366bd63dfd95c3ed8137eeb71447805a88dfd18d25bc7c4d5826fa2f838c96a6372d0e3a61f95993867b28ade8b7087a93f29569d07aaac40dec0076ac",
            "type": "pubkey"
          }
        }
      ],
      "hex": "01000000010000000000000000000000000000000000000000000000000000000000000000ffffffff0804ffff001d020b04ffffffff0100f2052a010000004341041de2f6f8366bd63dfd95c3ed8137eeb71447805a88dfd18d25bc7c4d5826fa2f838c96a6372d0e3a61f95993867b28ade8b7087a93f29569d07aaac40dec0076ac00000000"
    }
  ]
}