{
  "hash": "00000000a22dcf89f9172a1909d5735e7ae134bb58270722649db21a48f033a3",
  "confirmations": 51526,
  "height": 1572,
  "version": 1,
  "versionHex": "00000001",
  "merkleroot": "3dea198e7236e944d7b49401689e7986b0fffbf0c71fbb7a4623f27e475bbcfd",
  "time": 1232798648,
  "mediantime": 1232797254,
  "nonce": 627398969,
  "bits": "1d00ffff",
  "difficulty": 1,
  "chainwork": "0000000000000000000000000000000000000000000000000000062506250625",
  "nTx": 1,
  "previousblockhash": "00000000250daf82bdfe1771f7fecc1f59a50ce35d4723b9a369243733e6b4ba",
  "nextblockhash": "000000006ef15911fadda841e9962faa5d03d0167f2778bbc4b79e35b5e8635b",
  "strippedsize": 216,
  "size": 216,
  "weight": 864,
  "tx": [
    {
      "txid": "3dea198e7236e944d7b49401689e7986b0fffbf0c71fbb7a4623f27e475bbcfd",
      "hash": "3dea198e7236e944d7b49401689e7986b0fffbf0c71fbb7a4623f27e475bbcfd",
      "version": 1,
      "size": 135,
      "vsize": 135,
      "weight": 540,
      "locktime": 0,
      "vin": [
        {
          "coinbase": "04ffff001d02e701",
          "sequence": 4294967295
        }
      ],
      "vout": [
        {
          "value": 50.0,
          "n": 0,
          "scriptPubKey": {
            "asm": "04d33720c649cafc54fcc8c4711a7a69250d45bba0ac791c8c88d7e5c36970cc1563d06393060a1daeb03227308069a570d4c1533d505bfb5deb6f1920c7746fbd OP_CHECKSIG",
            "desc": "pk(04d33720c649cafc54fcc8c4711a7a69250d45bba0ac791c8c88d7e5c36970cc1563d06393060a1daeb03227308069a570d4c1533d505bfb5deb6f1920c7746fbd)#geajyprr",
            "hex": "4104d33720c649cafc54fcc8c4711a7a69250d45bba0ac791c8c88d7e5c36970cc1563d06393060a1daeb03227308069a570d4c1533d505bfb5deb6f1920c7746fbdac",
            "type": "pubkey"
          }
        }
      ],
      "hex": "01000000010000000000000000000000000000000000000000000000000000000000000000ffffffff0804ffff001d02e701ffffffff0100f2052a01000000434104d33720c649cafc54fcc8c4711a7a69250d45bba0ac791c8c88d7e5c36970cc1563d06393060a1daeb03227308069a570d4c1533d505bfb5deb6f1920c7746fbdac00000000"
    }
  ]
}