{
  "hash": "000000006f7257a170baafd603b8da9ad06695f9fa9fdd2c9f764099919b998c",
  "confirmations": 50374,
  "height": 2724,
  "version": 1,
  "versionHex": "00000001",
  "merkleroot": "bb9f01dcb09fad21b9ef6d33da35ac983f7213ffd3fbc2526cf6f8b733e8eeed",
  "time": 1233580063,
  "mediantime": 1233576204,
  "nonce": 2882404911,
  "bits": "1d00ffff",
  "difficulty": 1,
  "chainwork": "00000000000000000000000000000000000000000000000000000aa50aa50aa5",
  "nTx": 1,
  "previousblockhash": "00000000cff88241b632ae5260a48a0a96a6cb6b90d237d05ab8181bd97470c0",
  "nextblockhash": "000000009c8b925bf3883d823c47602f4e304ea665c7dfda9cbc9e7b550f5965",
  "strippedsize": 216,
  "size": 216,
  "weight": 864,
  "tx": [
    {
      "txid": "bb9f01dcb09fad21b9ef6d33da35ac983f7213ffd3fbc2526cf6f8b733e8eeed",
      "hash": "bb9f01dcb09fad21b9ef6d33da35ac983f7213ffd3fbc2526cf6f8b733e8eeed",
      "version": 1,
      "size": 135,
      "vsize": 135,
      "weight": 540,
      "locktime": 0,
      "vin": [
        {
          "coinbase": "04ffff001d020d05",
          "sequence": 4294967295
        }
      ],
      "vout": [
        {
          "value": 50.0,
          "n": 0,
          "scriptPubKey": {
            "asm": "045e9650e7ae57d92b386bf3fa182fb771e2010249ba429b464e17e48bce8f5af006180fe4535f55b1cf62afda303fa2996a96aad90137a8606afddc3ece71e9cf OP_CHECKSIG",
            "desc": "pk(045e9650e7ae57d92b386bf3fa182fb771e2010249ba429b464e17e48bce8f5af006180fe4535f55b1cf62afda303fa2996a96aad90137a8606afddc3ece71e9cf)#jeag4h4u",
            "hex": "41045e9650e7ae57d92b386bf3fa182fb771e2010249ba429b464e17e48bce8f5af006180fe4535f55b1cf62afda303fa2996a96aad90137a8606afddc3ece71e9cfac",
            "type": "pubkey"
          }
        }
      ],
      "hex": "01000000010000000000000000000000000000000000000000000000000000000000000000ffffffff0804ffff001d020d05ffffffff0100f2052a010000004341045e9650e7ae57d92b386bf3fa182fb771e2010249ba429b464e17e48bce8f5af006180fe4535f55b1cf62afda303fa2996a96aad90137a8606afddc3ece71e9cfac00000000"
    }
  ]
}