{
  "hash": "000000007b85b403757304d6172bfd9de5024cf8705ca0c39dc78f50b228f2cb",
  "confirmations": 45319,
  "height": 7779,
  "version": 1,
  "versionHex": "00000001",
  "merkleroot": "27ac1864262040c610fc4f36c15a41af9d51c04a147e47434eaaabc80c03f9d8",
  "time": 1237297700,
  "mediantime": 1237294768,
  "nonce": 714370852,
  "bits": "1d00ffff",
  "difficulty": 1,
  "chainwork": "00000000000000000000000000000000000000000000000000001e641e641e64",
  "nTx": 1,
  "previousblockhash": "0000000074b3e5c7c97e10be14edc49589e469eef0c3109e5f5a6041383ba409",
  "nextblockhash": "00000000caacc22c3c30c5bfc48fe04cbc922d8240a2b766a19cedead68486fc",
  "strippedsize": 216,
  "size": 216,
  "weight": 864,
  "tx": [
    {
      "txid": "27ac1864262040c610fc4f36c15a41af9d51c04a147e47434eaaabc80c03f9d8",
      "hash": "27ac1864262040c610fc4f36c15a41af9d51c04a147e47434eaaabc80c03f9d8",
      "version": 1,
      "size": 135,
      "vsize": 135,
      "weight": 540,
      "locktime": 0,
      "vin": [
        {
          "coinbase": "04ffff001d027205",
          "sequence": 4294967295
        }
      ],
      "vout": [
        {
          "value": 50.0,
          "n": 0,
          "scriptPubKey": {
            "asm": "045dbb61f8c793e65f706a00dcdea9b3d5ef0a2963b5991dec5a349f96fe37d25f07a4db2a290969c4c89f2f517d568865e880ab35d22639cfd0ac4b0cd04a7cbd OP_CHECKSIG",
            "desc": "pk(045dbb61f8c793e65f706a00dcdea9b3d5ef0a2963b5991dec5a349f96fe37d25f07a4db2a290969c4c89f2f517d568865e880ab35d22639cfd0ac4b0cd04a7cbd)#hgpc2akv",
            "hex": "41045dbb61f8c793e65f706a00dcdea9b3d5ef0a2963b5991dec5a349f96fe37d25f07a4db2a290969c4c89f2f517d568865e880ab35d22639cfd0ac4b0cd04a7cbdac",
            "type": "pubkey"
          }
        }
      ],
      "hex": "01000000010000000000000000000000000000000000000000000000000000000000000000ffffffff0804ffff001d027205ffffffff0100f2052a010000004341045dbb61f8c793e65f706a00dcdea9b3d5ef0a2963b5991dec5a349f96fe37d25f07a4db2a290969c4c89f2f517d568865e880ab35d22639cfd0ac4b0cd04a7cbdac00000000"
    }
  ]
}