{
  "hash": "00000000b3a76f808acd2cbacce2616e383b6ae2b513078cc8da91bf9aa17411",
  "confirmations": 44251,
  "height": 8847,
  "version": 1,
  "versionHex": "00000001",
  "merkleroot": "0d07bed1db4e7b4114c893c54b25ac369f9fe8d80eaba252bee48ab1eb6cb98d",
  "time": 1238136261,
  "mediantime": 1238131746,
  "nonce": 3146994470,
  "bits": "1d00ffff",
  "difficulty": 1,
  "chainwork": "0000000000000000000000000000000000000000000000000000229022902290",
  "nTx": 1,
  "previousblockhash": "00000000c5894fa81da0f057d7b4ca5116093140b5d876f54c6d428e4dd21c16",
  "nextblockhash": "00000000121d44b620340776446d40875d4874643013dc1a3ff72d7090d16331",
  "strippedsize": 216,
  "size": 216,
  "weight": 864,
  "tx": [
    {
      "txid": "0d07bed1db4e7b4114c893c54b25ac369f9fe8d80eaba252bee48ab1eb6cb98d",
      "hash": "0d07bed1db4e7b4114c893c54b25ac369f9fe8d80eaba252bee48ab1eb6cb98d",
      "version": 1,
      "size": 135,
      "vsize": 135,
      "weight": 540,
      "locktime": 0,
      "vin": [
        {
          "coinbase": "04ffff001d029203",
          "sequence": 4294967295
        }
      ],
      "vout": [
        {
          "value": 50.0,
          "n": 0,
          "scriptPubKey": {
            "asm": "041ae0e44458ac9ab0a8f4dd675cabdcd252711e1b8aa2d267e1dfdb175f881b2cebd16f45638776dddbf7a6b1f397ddf00d820ff8a3e7a2ee2af6be0cf67a75fb OP_CHECKSIG",
            "desc": "pk(041ae0e44458ac9ab0a8f4dd675cabdcd252711e1b8aa2d267e1dfdb175f881b2cebd16f45638776dddbf7a6b1f397ddf00d820ff8a3e7a2ee2af6be0cf67a75fb)#6wfc9t3p",
            "hex": "41041ae0e44458ac9ab0a8f4dd675cabdcd252711e1b8aa2d267e1dfdb175f881b2cebd16f45638776dddbf7a6b1f397ddf00d820ff8a3e7a2ee2af6be0cf67a75fbac",
            "type": "pubkey"
          }
        }
      ],
      "hex": "01000000010000000000000000000000000000000000000000000000000000000000000000ffffffff0804ffff001d029203ffffffff0100f2052a010000004341041ae0e44458ac9ab0a8f4dd675cabdcd252711e1b8aa2d267e1dfdb175f881b2cebd16f45638776dddbf7a6b1f397ddf00d820ff8a3e7a2ee2af6be0cf67a75fbac00000000"
    }
  ]
}