{
  "hash": "00000000c21b38cebff4901eb0b6f4265b0adea665d8b63b5e3949e0bb923f06",
  "confirmations": 51963,
  "height": 96,
  "version": 1,
  "versionHex": "00000001",
  "merkleroot": "5f716bfbb5be57a4f2283509938898cffe7971af12adb152a058ac02405c85d8",
  "time": 1231657185,
  "mediantime": 1231654229,
  "nonce": 2019973671,
  "bits": "1d00ffff",
  "difficulty": 1,
  "chainwork": "0000000000000000000000000000000000000000000000000000006100610061",
  "nTx": 1,
  "previousblockhash": "0000000021a406d58deeb398942e3c6cf956295fc11b192935c453c7d80be1ca",
  "nextblockhash": "000000000ecab80b1bee41b0bff9514502d7d8c62bb842655da7b30008c891cc",
  "strippedsize": 215,
  "size": 215,
  "weight": 860,
  "tx": [
    {
      "txid": "5f716bfbb5be57a4f2283509938898cffe7971af12adb152a058ac02405c85d8",
      "hash": "5f716bfbb5be57a4f2283509938898cffe7971af12adb152a058ac02405c85d8",
      "version": 1,
      "size": 134,
      "vsize": 134,
      "weight": 536,
      "locktime": 0,
      "vin": [
        {
          "coinbase": "04ffff001d013a",
          "sequence": 4294967295
        }
      ],
      "vout": [
        {
          "value": 50.0,
          "n": 0,
          "scriptPubKey": {
            "asm": "0466997c6a5c2d1a61b07dccc317f31f1846c4054b9b8d3623a325358cd120ac6b60cbd6b1fe70102d293732401b7ad20d125de6371905fde9f2c7fbcb4c049125 OP_CHECKSIG",
            "desc": "pk(0466997c6a5c2d1a61b07dccc317f31f1846c4054b9b8d3623a325358cd120ac6b60cbd6b1fe70102d293732401b7ad20d125de6371905fde9f2c7fbcb4c049125)#qd7wqane",
            "hex": "410466997c6a5c2d1a61b07dccc317f31f1846c4054b9b8d3623a325358cd120ac6b60cbd6b1fe70102d293732401b7ad20d125de6371905fde9f2c7fbcb4c049125ac",
            "type": "pubkey"
          }
        }
      ],
      "hex": "01000000010000000000000000000000000000000000000000000000000000000000000000ffffffff0704ffff001d013affffffff0100f2052a0100000043410466997c6a5c2d1a61b07dccc317f31f1846c4054b9b8d3623a325358cd120ac6b60cbd6b1fe70102d293732401b7ad20d125de6371905fde9f2c7fbcb4c049125ac00000000"
    }
  ]
}