{
  "hash": "00000000ac1b67360d0372804da6a0db00d1d9587dbb2087367fbd3d0d4bad50",
  "confirmations": 51602,
  "height": 1496,
  "version": 1,
  "versionHex": "00000001",
  "merkleroot": "fb8c4da98c964d171d5ac962215e822d855ab8ab006b9c1274b2d725157ae93e",
  "time": 1232766170,
  "mediantime": 1232763740,
  "nonce": 547926300,
  "bits": "1d00ffff",
  "difficulty": 1,
  "chainwork": "000000000000000000000000000000000000000000000000000005d905d905d9",
  "nTx": 1,
  "previousblockhash": "000000004c1dcd06f4ca194a1761f25146a8b219dc03dd4df9d1f446210ce0a7",
  "nextblockhash": "000000002a656240dcd2cbbf5bd9d1ac87b6c7a513577852b048f1f412008d21",
  "strippedsize": 216,
  "size": 216,
  "weight": 864,
  "tx": [
    {
      "txid": "fb8c4da98c964d171d5ac962215e822d855ab8ab006b9c1274b2d725157ae93e",
      "hash": "fb8c4da98c964d171d5ac962215e822d855ab8ab006b9c1274b2d725157ae93e",
      "version": 1,
      "size": 135,
      "vsize": 135,
      "weight": 540,
      "locktime": 0,
      "vin": [
        {
          "coinbase": "04ffff001d022c01",
          "sequence": 4294967295
        }
      ],
      "vout": [
        {
          "value": 50.0,
          "n": 0,
          "scriptPubKey": {
            "asm": "04c3635b7ed6ea79ae833d08dc254e0477772fa669baf5b4b395abe3ed29a75e29a1a3f4b31e3263a799b1972177c3d57079d0826402595dbf6e6bf26f6cff8110 OP_CHECKSIG",
            "desc": "pk(04c3635b7ed6ea79ae833d08dc254e0477772fa669baf5b4b395abe3ed29a75e29a1a3f4b31e3263a799b1972177c3d57079d0826402595dbf6e6bf26f6cff8110)#v0d4ux78",
            "hex": "4104c3635b7ed6ea79ae833d08dc254e0477772fa669baf5b4b395abe3ed29a75e29a1a3f4b31e3263a799b1972177c3d57079d0826402595dbf6e6bf26f6cff8110ac",
            "type": "pubkey"
          }
        }
      ],
      "hex": "01000000010000000000000000000000000000000000000000000000000000000000000000ffffffff0804ffff001d022c01ffffffff0100f2052a01000000434104c3635b7ed6ea79ae833d08dc254e0477772fa669baf5b4b395abe3ed29a75e29a1a3f4b31e3263a799b1972177c3d57079d0826402595dbf6e6bf26f6cff8110ac00000000"
    }
  ]
}