{
  "hash": "00000000ff121cfae8cc0af08f232bf767fbe2568840e2364156b5f19d62c440",
  "confirmations": 46254,
  "height": 6844,
  "version": 1,
  "versionHex": "00000001",
  "merkleroot": "c3fe54041347776e9f0a1941f83485f6dc64868e099a89c3cd11bfb9fbbc2eaf",
  "time": 1236592774,
  "mediantime": 1236585852,
  "nonce": 85002463,
  "bits": "1d00ffff",
  "difficulty": 1,
  "chainwork": "00000000000000000000000000000000000000000000000000001abd1abd1abd",
  "nTx": 1,
  "previousblockhash": "000000002c08f02f6614a435147dee4a1b1ab252c5273d1df4ed9cac07a19fc7",
  "nextblockhash": "00000000b27dcb0f5e5463d7a6f8cf571032fc759ddde7fb92e901d31f071c8b",
  "strippedsize": 215,
  "size": 215,
  "weight": 860,
  "tx": [
    {
      "txid": "c3fe54041347776e9f0a1941f83485f6dc64868e099a89c3cd11bfb9fbbc2eaf",
      "hash": "c3fe54041347776e9f0a1941f83485f6dc64868e099a89c3cd11bfb9fbbc2eaf",
      "version": 1,
      "size": 134,
      "vsize": 134,
      "weight": 536,
      "locktime": 0,
      "vin": [
        {
          "coinbase": "04ffff001d0122",
          "sequence": 4294967295
        }
      ],
      "vout": [
        {
          "value": 50.0,
          "n": 0,
          "scriptPubKey": {
            "asm": "0496e33c97de3e75bbab42ddae16099ca172262ee08ceae26e168f2d1875e0b7707042c0d16304db2d0f3eb6eaa05a3baffae7ce70fbec2a3f2270e98d489317e2 OP_CHECKSIG",
            "desc": "pk(0496e33c97de3e75bbab42ddae16099ca172262ee08ceae26e168f2d1875e0b7707042c0d16304db2d0f3eb6eaa05a3baffae7ce70fbec2a3f2270e98d489317e2)#m8lsz6yd",
            "hex": "410496e33c97de3e75bbab42ddae16099ca172262ee08ceae26e168f2d1875e0b7707042c0d16304db2d0f3eb6eaa05a3baffae7ce70fbec2a3f2270e98d489317e2ac",
            "type": "pubkey"
          }
        }
      ],
      "hex": "01000000010000000000000000000000000000000000000000000000000000000000000000ffffffff0704ffff001d0122ffffffff0100f2052a0100000043410496e33c97de3e75bbab42ddae16099ca172262ee08ceae26e168f2d1875e0b7707042c0d16304db2d0f3eb6eaa05a3baffae7ce70fbec2a3f2270e98d489317e2ac00000000"
    }
  ]
}