{
  "hash": "00000000ec07b4e2be975a5273093b9a5a09a855dc35607cf090f7188b48b0e6",
  "confirmations": 46419,
  "height": 6679,
  "version": 1,
  "versionHex": "00000001",
  "merkleroot": "48f9880e794fa2cd26a1fed3d5a80228f9f8440f8257e5e82459ae9e68801378",
  "time": 1236466648,
  "mediantime": 1236463945,
  "nonce": 6416089,
  "bits": "1d00ffff",
  "difficulty": 1,
  "chainwork": "00000000000000000000000000000000000000000000000000001a181a181a18",
  "nTx": 1,
  "previousblockhash": "00000000a801774477a798a67ac390efcdf4a1345a22d7911fd5484c95479a8b",
  "nextblockhash": "00000000d43b85a4b11117fb10fb65640cbd2e9df0152547c6828157f03a663c",
  "strippedsize": 216,
  "size": 216,
  "weight": 864,
  "tx": [
    {
      "txid": "48f9880e794fa2cd26a1fed3d5a80228f9f8440f8257e5e82459ae9e68801378",
      "hash": "48f9880e794fa2cd26a1fed3d5a80228f9f8440f8257e5e82459ae9e68801378",
      "version": 1,
      "size": 135,
      "vsize": 135,
      "weight": 540,
      "locktime": 0,
      "vin": [
        {
          "coinbase": "04ffff001d020d02",
          "sequence": 4294967295
        }
      ],
      "vout": [
        {
          "value": 50.0,
          "n": 0,
          "scriptPubKey": {
            "asm": "04f8ba13a6779976ccbff4dbee862a73f5e529c80fda7e7eec6faca3c90db64794b9dde77a97d37e830414e5017d97395b1ebbce691b59994d05acce364bd60738 OP_CHECKSIG",
            "desc": "pk(04f8ba13a6779976ccbff4dbee862a73f5e529c80fda7e7eec6faca3c90db64794b9dde77a97d37e830414e5017d97395b1ebbce691b59994d05acce364bd60738)#z5fnt2y5",
            "hex": "4104f8ba13a6779976ccbff4dbee862a73f5e529c80fda7e7eec6faca3c90db64794b9dde77a97d37e830414e5017d97395b1ebbce691b59994d05acce364bd60738ac",
            "type": "pubkey"
          }
        }
      ],
      "hex": "01000000010000000000000000000000000000000000000000000000000000000000000000ffffffff0804ffff001d020d02ffffffff0100f2052a01000000434104f8ba13a6779976ccbff4dbee862a73f5e529c80fda7e7eec6faca3c90db64794b9dde77a97d37e830414e5017d97395b1ebbce691b59994d05acce364bd60738ac00000000"
    }
  ]
}