{
  "hash": "000000000c11ba5cfa026e90b9fffcaf873c9182e533d40191f6f3073a95faf8",
  "confirmations": 52021,
  "height": 1077,
  "version": 1,
  "versionHex": "00000001",
  "merkleroot": "b71e742a5fcb2c53e6cf660ac2d3795c415a66ee4985767faba9352e5f33602c",
  "time": 1232406728,
  "mediantime": 1232402972,
  "nonce": 2897588742,
  "bits": "1d00ffff",
  "difficulty": 1,
  "chainwork": "0000000000000000000000000000000000000000000000000000043604360436",
  "nTx": 1,
  "previousblockhash": "00000000adf54d02a4f99f8dda409b1165e927c09dfc6242f36d2055c6b6c817",
  "nextblockhash": "00000000121ff2e837d00ccb1386835bc0855e20947d8f6af17201e2bfa8e1c9",
  "strippedsize": 216,
  "size": 216,
  "weight": 864,
  "tx": [
    {
      "txid": "b71e742a5fcb2c53e6cf660ac2d3795c415a66ee4985767faba9352e5f33602c",
      "hash": "b71e742a5fcb2c53e6cf660ac2d3795c415a66ee4985767faba9352e5f33602c",
      "version": 1,
      "size": 135,
      "vsize": 135,
      "weight": 540,
      "locktime": 0,
      "vin": [
        {
          "coinbase": "04ffff001d029f06",
          "sequence": 4294967295
        }
      ],
      "vout": [
        {
          "value": 50.0,
          "n": 0,
          "scriptPubKey": {
            "asm": "041406cf8a3d4cd9dc1b9eb6e42b64e7debac17762cf5e257531a31bfa67e7a06adc1c71fbb02d3ec46c80f6e282d8ce8c2ff57096c1b417c51cd984eb034267d9 OP_CHECKSIG",
            "desc": "pk(041406cf8a3d4cd9dc1b9eb6e42b64e7debac17762cf5e257531a31bfa67e7a06adc1c71fbb02d3ec46c80f6e282d8ce8c2ff57096c1b417c51cd984eb034267d9)#z8cjlfur",
            "hex": "41041406cf8a3d4cd9dc1b9eb6e42b64e7debac17762cf5e257531a31bfa67e7a06adc1c71fbb02d3ec46c80f6e282d8ce8c2ff57096c1b417c51cd984eb034267d9ac",
            "type": "pubkey"
          }
        }
      ],
      "hex": "01000000010000000000000000000000000000000000000000000000000000000000000000ffffffff0804ffff001d029f06ffffffff0100f2052a010000004341041406cf8a3d4cd9dc1b9eb6e42b64e7debac17762cf5e257531a31bfa67e7a06adc1c71fbb02d3ec46c80f6e282d8ce8c2ff57096c1b417c51cd984eb034267d9ac00000000"
    }
  ]
}