{
  "hash": "0000000036a2d643bd78d457cab4320877a24303cc567c8ca84f6937802d0bc4",
  "confirmations": 52022,
  "height": 211,
  "version": 1,
  "versionHex": "00000001",
  "merkleroot": "17b5dd11f3672e2eae1b5b5bdd7804eb6ca4e780c46745a0c5d2d79ddb9aaa1b",
  "time": 1231760107,
  "mediantime": 1231757577,
  "nonce": 4018430728,
  "bits": "1d00ffff",
  "difficulty": 1,
  "chainwork": "000000000000000000000000000000000000000000000000000000d400d400d4",
  "nTx": 1,
  "previousblockhash": "00000000101932342af01908230784689a23deff717dcfe16552d673ff30f16b",
  "nextblockhash": "000000008664fb07a9bcdc7298e0c70ed577f2915d6eb06a934921cb7fbb2aec",
  "strippedsize": 215,
  "size": 215,
  "weight": 860,
  "tx": [
    {
      "txid": "17b5dd11f3672e2eae1b5b5bdd7804eb6ca4e780c46745a0c5d2d79ddb9aaa1b",
      "hash": "17b5dd11f3672e2eae1b5b5bdd7804eb6ca4e780c46745a0c5d2d79ddb9aaa1b",
      "version": 1,
      "size": 134,
      "vsize": 134,
      "weight": 536,
      "locktime": 0,
      "vin": [
        {
          "coinbase": "04ffff001d015b",
          "sequence": 4294967295
        }
      ],
      "vout": [
        {
          "value": 50.0,
          "n": 0,
          "scriptPubKey": {
            "asm": "04beb7bc7b2f665837c4c9e20baea772216bec2eb6794f7eaa9585bb9ccbbe9b22681a2c711d0bca4451e06e0bbf3e391bbcde23dc32cd02c7712d72bec6f4e5ad OP_CHECKSIG",
            "desc": "pk(04beb7bc7b2f665837c4c9e20baea772216bec2eb6794f7eaa9585bb9ccbbe9b22681a2c711d0bca4451e06e0bbf3e391bbcde23dc32cd02c7712d72bec6f4e5ad)#cd9w9g4x",
            "hex": "4104beb7bc7b2f665837c4c9e20baea772216bec2eb6794f7eaa9585bb9ccbbe9b22681a2c711d0bca4451e06e0bbf3e391bbcde23dc32cd02c7712d72bec6f4e5adac",
            "type": "pubkey"
          }
        }
      ],
      "hex": "01000000010000000000000000000000000000000000000000000000000000000000000000ffffffff0704ffff001d015bffffffff0100f2052a01000000434104beb7bc7b2f665837c4c9e20baea772216bec2eb6794f7eaa9585bb9ccbbe9b22681a2c711d0bca4451e06e0bbf3e391bbcde23dc32cd02c7712d72bec6f4e5adac00000000"
    }
  ]
}