{
  "hash": "0000000058a26c8722e6444f40e5441952b52d09c03efe759622b941e8d21e92",
  "confirmations": 48143,
  "height": 4955,
  "version": 1,
  "versionHex": "00000001",
  "merkleroot": "0c5f34301f941643ba988bbf47641e270c1442410be5edd249dcbd2f2e848c94",
  "time": 1235108008,
  "mediantime": 1235104422,
  "nonce": 201970832,
  "bits": "1d00ffff",
  "difficulty": 1,
  "chainwork": "0000000000000000000000000000000000000000000000000000135c135c135c",
  "nTx": 1,
  "previousblockhash": "00000000b99441bfc61169458d0ba6a34e68285a03e16bd9ba8489f7dc7b06e7",
  "nextblockhash": "000000007ea90a419346464a23a7f2fe4b2f48f9415192465563c6ca9343e45a",
  "strippedsize": 216,
  "size": 216,
  "weight": 864,
  "tx": [
    {
      "txid": "0c5f34301f941643ba988bbf47641e270c1442410be5edd249dcbd2f2e848c94",
      "hash": "0c5f34301f941643ba988bbf47641e270c1442410be5edd249dcbd2f2e848c94",
      "version": 1,
      "size": 135,
      "vsize": 135,
      "weight": 540,
      "locktime": 0,
      "vin": [
        {
          "coinbase": "04ffff001d02f40b",
          "sequence": 4294967295
        }
      ],
      "vout": [
        {
          "value": 50.0,
          "n": 0,
          "scriptPubKey": {
            "asm": "045fc58945e100ce186b5292d864ebf95c3b64537feb002cbe06ad117718e44f08e7612df0af52af08d6114c603bddb754102c53daa1a9d9d9120e781ac8d3e40a OP_CHECKSIG",
            "desc": "pk(045fc58945e100ce186b5292d864ebf95c3b64537feb002cbe06ad117718e44f08e7612df0af52af08d6114c603bddb754102c53daa1a9d9d9120e781ac8d3e40a)#9rxxdqyn",
            "hex": "41045fc58945e100ce186b5292d864ebf95c3b64537feb002cbe06ad117718e44f08e7612df0af52af08d6114c603bddb754102c53daa1a9d9d9120e781ac8d3e40aac",
            "type": "pubkey"
          }
        }
      ],
      "hex": "01000000010000000000000000000000000000000000000000000000000000000000000000ffffffff0804ffff001d02f40bffffffff0100f2052a010000004341045fc58945e100ce186b5292d864ebf95c3b64537feb002cbe06ad117718e44f08e7612df0af52af08d6114c603bddb754102c53daa1a9d9d9120e781ac8d3e40aac00000000"
    }
  ]
}