{
  "hash": "000000001c6aeec19265e9cc3ded8ba5ef5e63fae7747f30bf9c02c7bc8883f0",
  "confirmations": 52373,
  "height": 507,
  "version": 1,
  "versionHex": "00000001",
  "merkleroot": "a85fa3d831ab6b0305e7ff88d2d4941e25a810d4461635df51490653822071a8",
  "time": 1231973656,
  "mediantime": 1231969575,
  "nonce": 330467862,
  "bits": "1d00ffff",
  "difficulty": 1,
  "chainwork": "000000000000000000000000000000000000000000000000000001fc01fc01fc",
  "nTx": 1,
  "previousblockhash": "00000000a99525c043fd7e323414b60add43c254c44860094048f9c01e9a5fdd",
  "nextblockhash": "000000000d550f4161f2702165fdd782ec72ff9c541f864ebb8256b662b7e51a",
  "strippedsize": 216,
  "size": 216,
  "weight": 864,
  "tx": [
    {
      "txid": "a85fa3d831ab6b0305e7ff88d2d4941e25a810d4461635df51490653822071a8",
      "hash": "a85fa3d831ab6b0305e7ff88d2d4941e25a810d4461635df51490653822071a8",
      "version": 1,
      "size": 135,
      "vsize": 135,
      "weight": 540,
      "locktime": 0,
      "vin": [
        {
          "coinbase": "04ffff001d029804",
          "sequence": 4294967295
        }
      ],
      "vout": [
        {
          "value": 50.0,
          "n": 0,
          "scriptPubKey": {
            "asm": "047737b5d3036fcc149960d41ce31d47c5a47d3a843b23898d28a5e24d1482616860ba5bc61f060586c7ac2b0e7e3ec76e4763cf897d5b8b1110691832c9368f8c OP_CHECKSIG",
            "desc": "pk(047737b5d3036fcc149960d41ce31d47c5a47d3a843b23898d28a5e24d1482616860ba5bc61f060586c7ac2b0e7e3ec76e4763cf897d5b8b1110691832c9368f8c)#kwgh6pvt",
            "hex": "41047737b5d3036fcc149960d41ce31d47c5a47d3a843b23898d28a5e24d1482616860ba5bc61f060586c7ac2b0e7e3ec76e4763cf897d5b8b1110691832c9368f8cac",
            "type": "pubkey"
          }
        }
      ],
      "hex": "01000000010000000000000000000000000000000000000000000000000000000000000000ffffffff0804ffff001d029804ffffffff0100f2052a010000004341047737b5d3036fcc149960d41ce31d47c5a47d3a843b23898d28a5e24d1482616860ba5bc61f060586c7ac2b0e7e3ec76e4763cf897d5b8b1110691832c9368f8cac00000000"
    }
  ]
}