{
  "hash": "000000004a8b7d08ce52c63addfd00bb787ad487fd3dd727a8d64b7f98be2423",
  "confirmations": 48117,
  "height": 4981,
  "version": 1,
  "versionHex": "00000001",
  "merkleroot": "deb286e24f823c7cd3e1595d00d036af93a0a4eb92977ac3bdf33970bf9ff24e",
  "time": 1235127083,
  "mediantime": 1235123709,
  "nonce": 4018566914,
  "bits": "1d00ffff",
  "difficulty": 1,
  "chainwork": "0000000000000000000000000000000000000000000000000000137613761376",
  "nTx": 1,
  "previousblockhash": "000000004512079b08e0e260cd3495f7a1efd44dae909663ccb3766b7bf87f0a",
  "nextblockhash": "0000000021b5930bd047ff6d8419ee7e251534a865f42dc5e13b2e1038e8079e",
  "strippedsize": 216,
  "size": 216,
  "weight": 864,
  "tx": [
    {
      "txid": "deb286e24f823c7cd3e1595d00d036af93a0a4eb92977ac3bdf33970bf9ff24e",
      "hash": "deb286e24f823c7cd3e1595d00d036af93a0a4eb92977ac3bdf33970bf9ff24e",
      "version": 1,
      "size": 135,
      "vsize": 135,
      "weight": 540,
      "locktime": 0,
      "vin": [
        {
          "coinbase": "04ffff001d02bb06",
          "sequence": 4294967295
        }
      ],
      "vout": [
        {
          "value": 50.0,
          "n": 0,
          "scriptPubKey": {
            "asm": "04567956a277cc0752defff3b41b7970a3560adc06f38d99131c3d519358a38daa495f0b97421f4050472bba8d202ce4f0a2f75416a2326830a3be03a575e0c796 OP_CHECKSIG",
            "desc": "pk(04567956a277cc0752defff3b41b7970a3560adc06f38d99131c3d519358a38daa495f0b97421f4050472bba8d202ce4f0a2f75416a2326830a3be03a575e0c796)#rje9h7a6",
            "hex": "4104567956a277cc0752defff3b41b7970a3560adc06f38d99131c3d519358a38daa495f0b97421f4050472bba8d202ce4f0a2f75416a2326830a3be03a575e0c796ac",
            "type": "pubkey"
          }
        }
      ],
      "hex": "01000000010000000000000000000000000000000000000000000000000000000000000000ffffffff0804ffff001d02bb06ffffffff0100f2052a01000000434104567956a277cc0752defff3b41b7970a3560adc06f38d99131c3d519358a38daa495f0b97421f4050472bba8d202ce4f0a2f75416a2326830a3be03a575e0c796ac00000000"
    }
  ]
}