{
  "hash": "0000000005376fb93f3cf203375d6bbd2b498ad78563ef15ec4b9c0455e1a8a6",
  "confirmations": 49919,
  "height": 3179,
  "version": 1,
  "versionHex": "00000001",
  "merkleroot": "1c01a34fd71d2c3d8261ac5fafb99a54590d2c66b2844f4df0f39cbd4bceb051",
  "time": 1233885941,
  "mediantime": 1233882016,
  "nonce": 102306227,
  "bits": "1d00ffff",
  "difficulty": 1,
  "chainwork": "00000000000000000000000000000000000000000000000000000c6c0c6c0c6c",
  "nTx": 1,
  "previousblockhash": "000000007438423065e44946e51006b4bd0deab0cedc635d38abd16d6b430910",
  "nextblockhash": "00000000fe1e50a2bd550116932ff1e9193a38594c15fd6b2936102b7cecdbf9",
  "strippedsize": 215,
  "size": 215,
  "weight": 860,
  "tx": [
    {
      "txid": "1c01a34fd71d2c3d8261ac5fafb99a54590d2c66b2844f4df0f39cbd4bceb051",
      "hash": "1c01a34fd71d2c3d8261ac5fafb99a54590d2c66b2844f4df0f39cbd4bceb051",
      "version": 1,
      "size": 134,
      "vsize": 134,
      "weight": 536,
      "locktime": 0,
      "vin": [
        {
          "coinbase": "04ffff001d011c",
          "sequence": 4294967295
        }
      ],
      "vout": [
        {
          "value": 50.0,
          "n": 0,
          "scriptPubKey": {
            "asm": "0489368a8511ca286e722a15864ae8066e3501f942ff688a96e7c75bddd3b0c2bedce8d599bdb5caa1dcde79bc831f6c84516314298c8766d4fc2bd4cb437ce4e9 OP_CHECKSIG",
            "desc": "pk(0489368a8511ca286e722a15864ae8066e3501f942ff688a96e7c75bddd3b0c2bedce8d599bdb5caa1dcde79bc831f6c84516314298c8766d4fc2bd4cb437ce4e9)#jfjryvdd",
            "hex": "410489368a8511ca286e722a15864ae8066e3501f942ff688a96e7c75bddd3b0c2bedce8d599bdb5caa1dcde79bc831f6c84516314298c8766d4fc2bd4cb437ce4e9ac",
            "type": "pubkey"
          }
        }
      ],
      "hex": "01000000010000000000000000000000000000000000000000000000000000000000000000ffffffff0704ffff001d011cffffffff0100f2052a0100000043410489368a8511ca286e722a15864ae8066e3501f942ff688a96e7c75bddd3b0c2bedce8d599bdb5caa1dcde79bc831f6c84516314298c8766d4fc2bd4cb437ce4e9ac00000000"
    }
  ]
}