{
  "hash": "00000000ef4c811c84ed906383153380179c0c39ecec3bb02b6585661d4d14d8",
  "confirmations": 47234,
  "height": 5864,
  "version": 1,
  "versionHex": "00000001",
  "merkleroot": "431b8c5cd161161c8b775208e5ddfb83db9cc4aab1c5595a82bc906590bd3f4a",
  "time": 1235811884,
  "mediantime": 1235808992,
  "nonce": 195668423,
  "bits": "1d00ffff",
  "difficulty": 1,
  "chainwork": "000000000000000000000000000000000000000000000000000016e916e916e9",
  "nTx": 1,
  "previousblockhash": "000000006b26e14a10398ef0ed0401873422bfd65c013a3eb752056c79bbf067",
  "nextblockhash": "000000000c632c30f3f4adf7c1cc5f1377fe2d04369aaef23e59720aeefc1233",
  "strippedsize": 216,
  "size": 216,
  "weight": 864,
  "tx": [
    {
      "txid": "431b8c5cd161161c8b775208e5ddfb83db9cc4aab1c5595a82bc906590bd3f4a",
      "hash": "431b8c5cd161161c8b775208e5ddfb83db9cc4aab1c5595a82bc906590bd3f4a",
      "version": 1,
      "size": 135,
      "vsize": 135,
      "weight": 540,
      "locktime": 0,
      "vin": [
        {
          "coinbase": "04ffff001d026a01",
          "sequence": 4294967295
        }
      ],
      "vout": [
        {
          "value": 50.0,
          "n": 0,
          "scriptPubKey": {
            "asm": "04441cb0a414e0e08171fc88ffdb1bf91dad5e3b770a5dc4d3da4dd61cfddd4c56ed72b842f69802fe817d1c4c3d2117547780a04d5eafafc51b69c48ba70eb2d6 OP_CHECKSIG",
            "desc": "pk(04441cb0a414e0e08171fc88ffdb1bf91dad5e3b770a5dc4d3da4dd61cfddd4c56ed72b842f69802fe817d1c4c3d2117547780a04d5eafafc51b69c48ba70eb2d6)#vswf9cc6",
            "hex": "4104441cb0a414e0e08171fc88ffdb1bf91dad5e3b770a5dc4d3da4dd61cfddd4c56ed72b842f69802fe817d1c4c3d2117547780a04d5eafafc51b69c48ba70eb2d6ac",
            "type": "pubkey"
          }
        }
      ],
      "hex": "01000000010000000000000000000000000000000000000000000000000000000000000000ffffffff0804ffff001d026a01ffffffff0100f2052a01000000434104441cb0a414e0e08171fc88ffdb1bf91dad5e3b770a5dc4d3da4dd61cfddd4c56ed72b842f69802fe817d1c4c3d2117547780a04d5eafafc51b69c48ba70eb2d6ac00000000"
    }
  ]
}