{
  "hash": "0000000042ce3fa08a008cce1f6127c55505a56c2adf03296a5b9253e4c43ab5",
  "confirmations": 45254,
  "height": 7844,
  "version": 1,
  "versionHex": "00000001",
  "merkleroot": "59c21b72289038105d7ae73332cc0284f15b132956a8fc454bcc40d7bb78046b",
  "time": 1237347983,
  "mediantime": 1237343523,
  "nonce": 61284491,
  "bits": "1d00ffff",
  "difficulty": 1,
  "chainwork": "00000000000000000000000000000000000000000000000000001ea51ea51ea5",
  "nTx": 1,
  "previousblockhash": "00000000e059c4a708adca010d217e484600c568859708cf67cb8900c82c1a04",
  "nextblockhash": "00000000083731ec88716c2b972bcd3333ce941b4425df7c7d95a60c733f5427",
  "strippedsize": 216,
  "size": 216,
  "weight": 864,
  "tx": [
    {
      "txid": "59c21b72289038105d7ae73332cc0284f15b132956a8fc454bcc40d7bb78046b",
      "hash": "59c21b72289038105d7ae73332cc0284f15b132956a8fc454bcc40d7bb78046b",
      "version": 1,
      "size": 135,
      "vsize": 135,
      "weight": 540,
      "locktime": 0,
      "vin": [
        {
          "coinbase": "04ffff001d021802",
          "sequence": 4294967295
        }
      ],
      "vout": [
        {
          "value": 50.0,
          "n": 0,
          "scriptPubKey": {
            "asm": "0495e578e1288ab5558ab4355c95eec635c8400c39b0408b8264069350257acb6558873877a009fca39d837905ec0cbaba54309cb9442a0db2e8007781a12ae106 OP_CHECKSIG",
            "desc": "pk(0495e578e1288ab5558ab4355c95eec635c8400c39b0408b8264069350257acb6558873877a009fca39d837905ec0cbaba54309cb9442a0db2e8007781a12ae106)#tk438rq9",
            "hex": "410495e578e1288ab5558ab4355c95eec635c8400c39b0408b8264069350257acb6558873877a009fca39d837905ec0cbaba54309cb9442a0db2e8007781a12ae106ac",
            "type": "pubkey"
          }
        }
      ],
      "hex": "01000000010000000000000000000000000000000000000000000000000000000000000000ffffffff0804ffff001d021802ffffffff0100f2052a0100000043410495e578e1288ab5558ab4355c95eec635c8400c39b0408b8264069350257acb6558873877a009fca39d837905ec0cbaba54309cb9442a0db2e8007781a12ae106ac00000000"
    }
  ]
}