{
  "hash": "00000000de23a229d2781b11596a19dd81647ddc4fb6c85998bf6a1ea4cf26f0",
  "confirmations": 49693,
  "height": 3405,
  "version": 1,
  "versionHex": "00000001",
  "merkleroot": "56f0b618023beac1945a8a499efd4a5dd80e7777d1e91975279e64bce1d62a36",
  "time": 1234042299,
  "mediantime": 1234038283,
  "nonce": 2987793412,
  "bits": "1d00ffff",
  "difficulty": 1,
  "chainwork": "00000000000000000000000000000000000000000000000000000d4e0d4e0d4e",
  "nTx": 1,
  "previousblockhash": "00000000a3bf8cecebaf6aa03b9f0dc7329a26d183c2064d381b7f5c91d78cfc",
  "nextblockhash": "0000000052f10c5b85a01bbc88d5ef8ead684db016561a5914916f5dec73a152",
  "strippedsize": 216,
  "size": 216,
  "weight": 864,
  "tx": [
    {
      "txid": "56f0b618023beac1945a8a499efd4a5dd80e7777d1e91975279e64bce1d62a36",
      "hash": "56f0b618023beac1945a8a499efd4a5dd80e7777d1e91975279e64bce1d62a36",
      "version": 1,
      "size": 135,
      "vsize": 135,
      "weight": 540,
      "locktime": 0,
      "vin": [
        {
          "coinbase": "04ffff001d02be05",
          "sequence": 4294967295
        }
      ],
      "vout": [
        {
          "value": 50.0,
          "n": 0,
          "scriptPubKey": {
            "asm": "04122c7d3aaddab4485516ade71d7ad2e3c66ee9156625e0b5a9d8916510658b9364585cfe46dd9b03d150841e0c5d4aa8f7161ea5c8cd3ed0ce6b28d1a7a6cdb8 OP_CHECKSIG",
            "desc": "pk(04122c7d3aaddab4485516ade71d7ad2e3c66ee9156625e0b5a9d8916510658b9364585cfe46dd9b03d150841e0c5d4aa8f7161ea5c8cd3ed0ce6b28d1a7a6cdb8)#s4ff3e27",
            "hex": "4104122c7d3aaddab4485516ade71d7ad2e3c66ee9156625e0b5a9d8916510658b9364585cfe46dd9b03d150841e0c5d4aa8f7161ea5c8cd3ed0ce6b28d1a7a6cdb8ac",
            "type": "pubkey"
          }
        }
      ],
      "hex": "01000000010000000000000000000000000000000000000000000000000000000000000000ffffffff0804ffff001d02be05ffffffff0100f2052a01000000434104122c7d3aaddab4485516ade71d7ad2e3c66ee9156625e0b5a9d8916510658b9364585cfe46dd9b03d150841e0c5d4aa8f7161ea5c8cd3ed0ce6b28d1a7a6cdb8ac00000000"
    }
  ]
}