{
  "hash": "0000000046b6272474a106a41c35c914370c3b3d96da1ba75d2e29f6afc71a65",
  "confirmations": 47567,
  "height": 5531,
  "version": 1,
  "versionHex": "00000001",
  "merkleroot": "737ea84d2342ad77c7cd8d908a07995aa7faeb789149f942fac2ba965038322e",
  "time": 1235544945,
  "mediantime": 1235541837,
  "nonce": 31963818,
  "bits": "1d00ffff",
  "difficulty": 1,
  "chainwork": "0000000000000000000000000000000000000000000000000000159c159c159c",
  "nTx": 1,
  "previousblockhash": "000000005310971d1304a456759d9e85e4aad473f5f773a62fb9d08a51e313d9",
  "nextblockhash": "000000001d58b1c023e458203f5389eeea6a325cdf75306d1cbc5c06620dfb41",
  "strippedsize": 216,
  "size": 216,
  "weight": 864,
  "tx": [
    {
      "txid": "737ea84d2342ad77c7cd8d908a07995aa7faeb789149f942fac2ba965038322e",
      "hash": "737ea84d2342ad77c7cd8d908a07995aa7faeb789149f942fac2ba965038322e",
      "version": 1,
      "size": 135,
      "vsize": 135,
      "weight": 540,
      "locktime": 0,
      "vin": [
        {
          "coinbase": "04ffff001d025e07",
          "sequence": 4294967295
        }
      ],
      "vout": [
        {
          "value": 50.0,
          "n": 0,
          "scriptPubKey": {
            "asm": "04db0db5e233d2c69356499f4c6034676e2161148608899776aba0902278a29829e5733b4c236dcc8f903d1de105cc3420757db057eecbe1dd14fc22a591b6e9df OP_CHECKSIG",
            "desc": "pk(04db0db5e233d2c69356499f4c6034676e2161148608899776aba0902278a29829e5733b4c236dcc8f903d1de105cc3420757db057eecbe1dd14fc22a591b6e9df)#vy0dpauu",
            "hex": "4104db0db5e233d2c69356499f4c6034676e2161148608899776aba0902278a29829e5733b4c236dcc8f903d1de105cc3420757db057eecbe1dd14fc22a591b6e9dfac",
            "type": "pubkey"
          }
        }
      ],
      "hex": "01000000010000000000000000000000000000000000000000000000000000000000000000ffffffff0804ffff001d025e07ffffffff0100f2052a01000000434104db0db5e233d2c69356499f4c6034676e2161148608899776aba0902278a29829e5733b4c236dcc8f903d1de105cc3420757db057eecbe1dd14fc22a591b6e9dfac00000000"
    }
  ]
}