{
  "hash": "0000000081ca9f4af00279e8f559f2cfa00488b1c0241420df48ab50a46f4abd",
  "confirmations": 51011,
  "height": 2087,
  "version": 1,
  "versionHex": "00000001",
  "merkleroot": "5867911f48148f05a3c1064085ca9168f4c70699fcb0d88bf9e41c33deaa62ae",
  "time": 1233128242,
  "mediantime": 1233125385,
  "nonce": 95569941,
  "bits": "1d00ffff",
  "difficulty": 1,
  "chainwork": "0000000000000000000000000000000000000000000000000000082808280828",
  "nTx": 1,
  "previousblockhash": "00000000d454b939589eb57f33777401abcf0b3c98dfe2bd382f3b8981081381",
  "nextblockhash": "00000000b1915dd2367819ab3b5fec9ca28eb03936dfe34900a7a57efc298980",
  "strippedsize": 215,
  "size": 215,
  "weight": 860,
  "tx": [
    {
      "txid": "5867911f48148f05a3c1064085ca9168f4c70699fcb0d88bf9e41c33deaa62ae",
      "hash": "5867911f48148f05a3c1064085ca9168f4c70699fcb0d88bf9e41c33deaa62ae",
      "version": 1,
      "size": 134,
      "vsize": 134,
      "weight": 536,
      "locktime": 0,
      "vin": [
        {
          "coinbase": "04ffff001d013b",
          "sequence": 4294967295
        }
      ],
      "vout": [
        {
          "value": 50.0,
          "n": 0,
          "scriptPubKey": {
            "asm": "04cf85b7c6f774b2ba4041e91805857a36ef7faf44a31cfc96061cab1b0816319a5c8e2d07d444ceb37a4eacad18b4e6800d3a0efdffc5f264d85fbc3c34abce8a OP_CHECKSIG",
            "desc": "pk(04cf85b7c6f774b2ba4041e91805857a36ef7faf44a31cfc96061cab1b0816319a5c8e2d07d444ceb37a4eacad18b4e6800d3a0efdffc5f264d85fbc3c34abce8a)#3mwatj9c",
            "hex": "4104cf85b7c6f774b2ba4041e91805857a36ef7faf44a31cfc96061cab1b0816319a5c8e2d07d444ceb37a4eacad18b4e6800d3a0efdffc5f264d85fbc3c34abce8aac",
            "type": "pubkey"
          }
        }
      ],
      "hex": "01000000010000000000000000000000000000000000000000000000000000000000000000ffffffff0704ffff001d013bffffffff0100f2052a01000000434104cf85b7c6f774b2ba4041e91805857a36ef7faf44a31cfc96061cab1b0816319a5c8e2d07d444ceb37a4eacad18b4e6800d3a0efdffc5f264d85fbc3c34abce8aac00000000"
    }
  ]
}