{
  "hash": "0000000029abd0a9498f84ced03dce2f0e51638520e486d0d2b027a3470750a4",
  "confirmations": 46587,
  "height": 6511,
  "version": 1,
  "versionHex": "00000001",
  "merkleroot": "90e2d0b38dce54fdc8f92e67be00efbe8f9ab592a82faf2cd9e0b4c95050d1cd",
  "time": 1236337315,
  "mediantime": 1236335161,
  "nonce": 1568210474,
  "bits": "1d00ffff",
  "difficulty": 1,
  "chainwork": "0000000000000000000000000000000000000000000000000000197019701970",
  "nTx": 1,
  "previousblockhash": "00000000e6dbc27bd2302cb2c2fb05c3b2f358cb3067e7f9bd2860458fabf96e",
  "nextblockhash": "000000006c17d8ff3e602f1544339b37490d1d658468cf99216436af13eea908",
  "strippedsize": 216,
  "size": 216,
  "weight": 864,
  "tx": [
    {
      "txid": "90e2d0b38dce54fdc8f92e67be00efbe8f9ab592a82faf2cd9e0b4c95050d1cd",
      "hash": "90e2d0b38dce54fdc8f92e67be00efbe8f9ab592a82faf2cd9e0b4c95050d1cd",
      "version": 1,
      "size": 135,
      "vsize": 135,
      "weight": 540,
      "locktime": 0,
      "vin": [
        {
          "coinbase": "04ffff001d02e203",
          "sequence": 4294967295
        }
      ],
      "vout": [
        {
          "value": 50.0,
          "n": 0,
          "scriptPubKey": {
            "asm": "043e71f8ac0a6564a6d8633f19efe9268f620d5b97e4a69ea258983c79ca76ad8fa0e27be86895f2925df1026a0521376e9ec95ebcb5e75f4365a86b14fcf19997 OP_CHECKSIG",
            "desc": "pk(043e71f8ac0a6564a6d8633f19efe9268f620d5b97e4a69ea258983c79ca76ad8fa0e27be86895f2925df1026a0521376e9ec95ebcb5e75f4365a86b14fcf19997)#a3952wns",
            "hex": "41043e71f8ac0a6564a6d8633f19efe9268f620d5b97e4a69ea258983c79ca76ad8fa0e27be86895f2925df1026a0521376e9ec95ebcb5e75f4365a86b14fcf19997ac",
            "type": "pubkey"
          }
        }
      ],
      "hex": "01000000010000000000000000000000000000000000000000000000000000000000000000ffffffff0804ffff001d02e203ffffffff0100f2052a010000004341043e71f8ac0a6564a6d8633f19efe9268f620d5b97e4a69ea258983c79ca76ad8fa0e27be86895f2925df1026a0521376e9ec95ebcb5e75f4365a86b14fcf19997ac00000000"
    }
  ]
}