{
  "hash": "00000000c378c233cf6341ca6f4e7ebfe9fd1324fbbc0e21e0165393e0e83e37",
  "confirmations": 51995,
  "height": 345,
  "version": 1,
  "versionHex": "00000001",
  "merkleroot": "e9b4eadacc081d16f38cedd90c5a08444caa904e11ec66f056019f4449239e9a",
  "time": 1231861893,
  "mediantime": 1231858635,
  "nonce": 171250976,
  "bits": "1d00ffff",
  "difficulty": 1,
  "chainwork": "0000000000000000000000000000000000000000000000000000015a015a015a",
  "nTx": 1,
  "previousblockhash": "000000008cc122c5d35497371c6a0ac9b1659781848445be29bd9e2d1cf00d14",
  "nextblockhash": "0000000036d62217cd8364db8ab43303379061f7c1d7eecfe49ce10c6ef9a4b7",
  "strippedsize": 216,
  "size": 216,
  "weight": 864,
  "tx": [
    {
      "txid": "e9b4eadacc081d16f38cedd90c5a08444caa904e11ec66f056019f4449239e9a",
      "hash": "e9b4eadacc081d16f38cedd90c5a08444caa904e11ec66f056019f4449239e9a",
      "version": 1,
      "size": 135,
      "vsize": 135,
      "weight": 540,
      "locktime": 0,
      "vin": [
        {
          "coinbase": "04ffff001d026501",
          "sequence": 4294967295
        }
      ],
      "vout": [
        {
          "value": 50.0,
          "n": 0,
          "scriptPubKey": {
            "asm": "04ba3ef581dfbb9348a0931cecb2fe9430ffaf84e93ff0cae6d48b6cf221ad92f7a976e2f6809d00b443987516c3eaa030032d81739f18bfddace38c41412c9bf1 OP_CHECKSIG",
            "desc": "pk(04ba3ef581dfbb9348a0931cecb2fe9430ffaf84e93ff0cae6d48b6cf221ad92f7a976e2f6809d00b443987516c3eaa030032d81739f18bfddace38c41412c9bf1)#0c8kea2e",
            "hex": "4104ba3ef581dfbb9348a0931cecb2fe9430ffaf84e93ff0cae6d48b6cf221ad92f7a976e2f6809d00b443987516c3eaa030032d81739f18bfddace38c41412c9bf1ac",
            "type": "pubkey"
          }
        }
      ],
      "hex": "01000000010000000000000000000000000000000000000000000000000000000000000000ffffffff0804ffff001d026501ffffffff0100f2052a01000000434104ba3ef581dfbb9348a0931cecb2fe9430ffaf84e93ff0cae6d48b6cf221ad92f7a976e2f6809d00b443987516c3eaa030032d81739f18bfddace38c41412c9bf1ac00000000"
    }
  ]
}