{
  "hash": "0000000040fa2efc3dfc985865619304637bd3f9d086ccd46879f8b5e8a31910",
  "confirmations": 47181,
  "height": 5917,
  "version": 1,
  "versionHex": "00000001",
  "merkleroot": "0d0b19ecdc294751fe1db0e6fa3d3c367bc5223479d22789ee91e57aae0053e0",
  "time": 1235859214,
  "mediantime": 1235853726,
  "nonce": 1880773937,
  "bits": "1d00ffff",
  "difficulty": 1,
  "chainwork": "0000000000000000000000000000000000000000000000000000171e171e171e",
  "nTx": 2,
  "previousblockhash": "00000000ac881b32a5b58f7e066abe65431ed3aff36c07d69add04b4aad503e5",
  "nextblockhash": "0000000036756e204db33d761a29c187431b31c126cfdffe3aec05ea1a0572c2",
  "strippedsize": 1060,
  "size": 1060,
  "weight": 4240,
  "tx": [
    {
      "txid": "7d2aadf1c1cb57498193dbdaf3b50f476b1e4371b2456eca7a5da51db80f4a4e",
      "hash": "7d2aadf1c1cb57498193dbdaf3b50f476b1e4371b2456eca7a5da51db80f4a4e",
      "version": 1,
      "size": 135,
      "vsize": 135,
      "weight": 540,
      "locktime": 0,
      "vin": [
        {
          "coinbase": "04ffff001d025f03",
          "sequence": 4294967295
        }
      ],
      "vout": [
        {
          "value": 50.0,
          "n": 0,
          "scriptPubKey": {
            "asm": "04699948e33ff8295480c315db90703f428ffdcd8012bf43b8b1afac32be85ee0c0ba2bdf1bf663e1ff33812b13ed247ca4aec78489838a7fb9ed6563805b607cd OP_CHECKSIG",
            "desc": "pk(04699948e33ff8295480c315db90703f428ffdcd8012bf43b8b1afac32be85ee0c0ba2bdf1bf663e1ff33812b13ed247ca4aec78489838a7fb9ed6563805b607cd)#jvwucawf",
            "hex": "4104699948e33ff8295480c315db90703f428ffdcd8012bf43b8b1afac32be85ee0c0ba2bdf1bf663e1ff33812b13ed247ca4aec78489838a7fb9ed6563805b607cdac",
            "type": "pubkey"
          }
        }
      ],
      "hex": "01000000010000000000000000000000000000000000000000000000000000000000000000ffffffff0804ffff001d025f03ffffffff0100f2052a01000000434104699948e33ff8295480c315db90703f428ffdcd8012bf43b8b1afac32be85ee0c0ba2bdf1bf663e1ff33812b13ed247ca4aec78489838a7fb9ed6563805b607cdac00000000"
    },
    {
      "txid": "1ecd272fc854e5a1a241431411aad6e3aa74e77942b9a7c54c5c732eaf9732a1",
      "hash": "1ecd272fc854e5a1a241431411aad6e3aa74e77942b9a7c54c5c732eaf9732a1",
      "version": 1,
      "size": 844,
      "vsize": 844,
      "weight": 3376,
      "locktime": 0,
      "vin": [
        {
          "txid": "9dcaf5247d4d7cb55b53adf757c42ab0677867cba75ef5c50024406d94b2cc0e",
          "vout": 0,
          "scriptSig": {
            "asm": "3045022100d63a3cf92fded18f82341a7fb41003f548c450d69e5ea7cd96dd874502b874e602204da46a3f333e482754deb68da8ebe1ab83ad5bb74b448cef2fdc520245dfe9f5[ALL]",
            "hex": "483045022100d63a3cf92fded18f82341a7fb41003f548c450d69e5ea7cd96dd874502b874e602204da46a3f333e482754deb68da8ebe1ab83ad5bb74b448cef2fdc520245dfe9f501"
          },
          "sequence": 4294967295
        },
        {
          "txid": "e6e3739ec8158b3fc1a336869463e287aa52f97027d94250446588616c2f212c",
          "vout": 0,
          "scriptSig": {
            "asm": "3045022100b576641c82071dfabc25e384d49744b6de15509ea6f3a79a830a3559ea90cebc02206336ef39f00295bf1be3639373d8cc1f4ddb29cbdc698dc53f349c4a9cd3da48[ALL]",
            "hex": "483045022100b576641c82071dfabc25e384d49744b6de15509ea6f3a79a830a3559ea90cebc02206336ef39f00295bf1be3639373d8cc1f4ddb29cbdc698dc53f349c4a9cd3da4801"
          },
          "sequence": 4294967295
        },
        {
          "txid": "9e12e2ebdb3b9850d77352746f27d5ba5bb673f07a810b1a1abbc85dcf8f1234",
          "vout": 0,
          "scriptSig": {
            "asm": "3046022100e080a037570919b0ba829ec755b1dcece6c5f78a6ea5b7722daa42417c806665022100b3133b425efe7560bb7182e1b5919365f20235950c5990569b3e9509e15d4526[ALL]",
            "hex": "493046022100e080a037570919b0ba829ec755b1dcece6c5f78a6ea5b7722daa42417c806665022100b3133b425efe7560bb7182e1b5919365f20235950c5990569b3e9509e15d452601"
          },
          "sequence": 4294967295
        },
        {
          "txid": "5be2e8375895b8ea38195d544d7bcec75a9bba04aaa07396a015cbde6881a95d",
          "vout": 0,
          "scriptSig": {
            "asm": "30450221009d94bccad658900058834235747170dfcd3d3371bb8f4abc480ce7f4b63e36ce022053d8aa07cb275ce16d1e760d9f0a8764284c1d8edcace1619e4a929d2ae5e107[ALL]",
            "hex": "4830450221009d94bccad658900058834235747170dfcd3d3371bb8f4abc480ce7f4b63e36ce022053d8aa07cb275ce16d1e760d9f0a8764284c1d8edcace1619e4a929d2ae5e10701"
          },
          "sequence": 4294967295
        },
        {
          "txid": "f931599d54570fe512998f6bacddd1818fb49ba0054d23cb7f8a865b75ca2c7f",
          "vout": 0,
          "scriptSig": {
            "asm": "3046022100ca03cec757ec473c637c299ea9d631c71919e2074cceaebfeaf6d766060e7f05022100ba0ed715929b431e9cd90d7c06c181b7472d6b9dd927d66da2006a57f781ab20[ALL]",
            "hex": "493046022100ca03cec757ec473c637c299ea9d631c71919e2074cceaebfeaf6d766060e7f05022100ba0ed715929b431e9cd90d7c06c181b7472d6b9dd927d66da2006a57f781ab2001"
          },
          "sequence": 4294967295
        },
        {
          "txid": "8ef96cbaba03bd8cd1890affa25d95d11528b7bfe21bbf4c0433dc1cc0e5718a",
          "vout": 0,
          "scriptSig": {
            "asm": "3045022100fa49f0b416deb63da0e03f835876afc6c6f3c70b58f1a47fbe84c25f0c04dd1b02206cc5b92814454a9cc19bccaaa319354cc3dc3988b3feac4f41e3830fec5e6216[ALL]",
            "hex": "483045022100fa49f0b416deb63da0e03f835876afc6c6f3c70b58f1a47fbe84c25f0c04dd1b02206cc5b92814454a9cc19bccaaa319354cc3dc3988b3feac4f41e3830fec5e621601"
          },
          "sequence": 4294967295
        },
        {
          "txid": "df07ef95108a6179440ffa0c33787c900211a9c947ea4fab534b55eb15dfaaba",
          "vout": 0,
          "scriptSig": {
            "asm": "3045022061fdb8657a084bf5c3624fcffdf1b79306b67d21600378c8df329ab672f6dbed022100ae4205aa262c7d5d7e531bd57b6c4bd45de1b87eda696a68b81fa6a06c94b5d9[ALL]",
            "hex": "483045022061fdb8657a084bf5c3624fcffdf1b79306b67d21600378c8df329ab672f6dbed022100ae4205aa262c7d5d7e531bd57b6c4bd45de1b87eda696a68b81fa6a06c94b5d901"
          },
          "sequence": 4294967295
        }
      ],
      "vout": [
        {
          "value": 350.0,
          "n": 0,
          "scriptPubKey": {
            "asm": "OP_DUP OP_HASH160 592fc3990026334c8c6fb2b9da457179cdb5c688 OP_EQUALVERIFY OP_CHECKSIG",
            "desc": "addr(198aMn6ZYAczwrE5NvNTUMyJ5qkfy4g3Hi)#k9ndhvwd",
            "hex": "76a914592fc3990026334c8c6fb2b9da457179cdb5c68888ac",
            "address": "198aMn6ZYAczwrE5NvNTUMyJ5qkfy4g3Hi",
            "type": "pubkeyhash"
          }
        }
      ],
      "fee": 0.0,
      "hex": "01000000070eccb2946d402400c5f55ea7cb677867b02ac457f7ad535bb57c4d7d24f5ca9d0000000049483045022100d63a3cf92fded18f82341a7fb41003f548c450d69e5ea7cd96dd874502b874e602204da46a3f333e482754deb68da8ebe1ab83ad5bb74b448cef2fdc520245dfe9f501ffffffff2c212f6c618865445042d92770f952aa87e263948636a3c13f8b15c89e73e3e60000000049483045022100b576641c82071dfabc25e384d49744b6de15509ea6f3a79a830a3559ea90cebc02206336ef39f00295bf1be3639373d8cc1f4ddb29cbdc698dc53f349c4a9cd3da4801ffffffff34128fcf5dc8bb1a1a0b817af073b65bbad5276f745273d750983bdbebe2129e000000004a493046022100e080a037570919b0ba829ec755b1dcece6c5f78a6ea5b7722daa42417c806665022100b3133b425efe7560bb7182e1b5919365f20235950c5990569b3e9509e15d452601ffffffff5da98168decb15a09673a0aa04ba9b5ac7ce7b4d545d1938eab8955837e8e25b00000000494830450221009d94bccad658900058834235747170dfcd3d3371bb8f4abc480ce7f4b63e36ce022053d8aa07cb275ce16d1e760d9f0a8764284c1d8edcace1619e4a929d2ae5e10701ffffffff7f2cca755b868a7fcb234d05a09bb48f81d1ddac6b8f9912e50f57549d5931f9000000004a493046022100ca03cec757ec473c637c299ea9d631c71919e2074cceaebfeaf6d766060e7f05022100ba0ed715929b431e9cd90d7c06c181b7472d6b9dd927d66da2006a57f781ab2001ffffffff8a71e5c01cdc33044cbf1be2bfb72815d1955da2ff0a89d18cbd03baba6cf98e0000000049483045022100fa49f0b416deb63da0e03f835876afc6c6f3c70b58f1a47fbe84c25f0c04dd1b02206cc5b92814454a9cc19bccaaa319354cc3dc3988b3feac4f41e3830fec5e621601ffffffffbaaadf15eb554b53ab4fea47c9a91102907c78330cfa0f4479618a1095ef07df0000000049483045022061fdb8657a084bf5c3624fcffdf1b79306b67d21600378c8df329ab672f6dbed022100ae4205aa262c7d5d7e531bd57b6c4bd45de1b87eda696a68b81fa6a06c94b5d901ffffffff01009e2926080000001976a914592fc3990026334c8c6fb2b9da457179cdb5c68888ac00000000"
    }
  ]
}