{
  "hash": "0000000094e2db81aa4c18ff1a5fab546191d892fca20e421787d63605f34e3f",
  "confirmations": 47492,
  "height": 5606,
  "version": 1,
  "versionHex": "00000001",
  "merkleroot": "bc5b10cb56d3afab1a283957231f4d546a57b5556374693909ea96aaf007cde2",
  "time": 1235608974,
  "mediantime": 1235604860,
  "nonce": 84460097,
  "bits": "1d00ffff",
  "difficulty": 1,
  "chainwork": "000000000000000000000000000000000000000000000000000015e715e715e7",
  "nTx": 1,
  "previousblockhash": "0000000060817ef9a8e80134b432ebfd7ae68b0e02f426e828ff2ecefadca7c7",
  "nextblockhash": "0000000074f161dcc1bd634c82d0cff2e30c5c9f7e35c39cb9f27c8add66c919",
  "strippedsize": 216,
  "size": 216,
  "weight": 864,
  "tx": [
    {
      "txid": "bc5b10cb56d3afab1a283957231f4d546a57b5556374693909ea96aaf007cde2",
      "hash": "bc5b10cb56d3afab1a283957231f4d546a57b5556374693909ea96aaf007cde2",
      "version": 1,
      "size": 135,
      "vsize": 135,
      "weight": 540,
      "locktime": 0,
      "vin": [
        {
          "coinbase": "04ffff001d02a907",
          "sequence": 4294967295
        }
      ],
      "vout": [
        {
          "value": 50.0,
          "n": 0,
          "scriptPubKey": {
            "asm": "04cec5948d9e2e7f0145936717250e3add31b3a6eb54b20cda50545aabfd098e689486dc1e7b080ee5c65bbf5c9d9fed6f9c5d7da04358bf8a12ad3b89f6b4d82b OP_CHECKSIG",
            "desc": "pk(04cec5948d9e2e7f0145936717250e3add31b3a6eb54b20cda50545aabfd098e689486dc1e7b080ee5c65bbf5c9d9fed6f9c5d7da04358bf8a12ad3b89f6b4d82b)#04d4qefa",
            "hex": "4104cec5948d9e2e7f0145936717250e3add31b3a6eb54b20cda50545aabfd098e689486dc1e7b080ee5c65bbf5c9d9fed6f9c5d7da04358bf8a12ad3b89f6b4d82bac",
            "type": "pubkey"
          }
        }
      ],
      "hex": "01000000010000000000000000000000000000000000000000000000000000000000000000ffffffff0804ffff001d02a907ffffffff0100f2052a01000000434104cec5948d9e2e7f0145936717250e3add31b3a6eb54b20cda50545aabfd098e689486dc1e7b080ee5c65bbf5c9d9fed6f9c5d7da04358bf8a12ad3b89f6b4d82bac00000000"
    }
  ]
}