{
  "hash": "000000000c86bbd3cbfe99ef173d046ac8f6d39b6819af1b6353861d36365f0a",
  "confirmations": 52172,
  "height": 457,
  "version": 1,
  "versionHex": "00000001",
  "merkleroot": "7addbd5badcc73271e3094fb5cdbc864efabd61a91562385493f9a2872fe5345",
  "time": 1231942187,
  "mediantime": 1231937405,
  "nonce": 3859115284,
  "bits": "1d00ffff",
  "difficulty": 1,
  "chainwork": "000000000000000000000000000000000000000000000000000001ca01ca01ca",
  "nTx": 1,
  "previousblockhash": "000000008356bc1b035b437792093959059a7ca312a576313bdaf2610b3124c5",
  "nextblockhash": "0000000049db57f7c89df82008dbfeba44995c9675d779180ffb788aa6f6ad16",
  "strippedsize": 216,
  "size": 216,
  "weight": 864,
  "tx": [
    {
      "txid": "7addbd5badcc73271e3094fb5cdbc864efabd61a91562385493f9a2872fe5345",
      "hash": "7addbd5badcc73271e3094fb5cdbc864efabd61a91562385493f9a2872fe5345",
      "version": 1,
      "size": 135,
      "vsize": 135,
      "weight": 540,
      "locktime": 0,
      "vin": [
        {
          "coinbase": "04ffff001d02cf03",
          "sequence": 4294967295
        }
      ],
      "vout": [
        {
          "value": 50.0,
          "n": 0,
          "scriptPubKey": {
            "asm": "04b762660e37a42f33c1339ed96f08f4c8c3747e2eb141b7fd9d52de3bcfffaa74d3772206983fa5151aa94d1da5b3fb14f38d7bb5e1fcc58e2bdda9ea9d8e661b OP_CHECKSIG",
            "desc": "pk(04b762660e37a42f33c1339ed96f08f4c8c3747e2eb141b7fd9d52de3bcfffaa74d3772206983fa5151aa94d1da5b3fb14f38d7bb5e1fcc58e2bdda9ea9d8e661b)#uuvtgcue",
            "hex": "4104b762660e37a42f33c1339ed96f08f4c8c3747e2eb141b7fd9d52de3bcfffaa74d3772206983fa5151aa94d1da5b3fb14f38d7bb5e1fcc58e2bdda9ea9d8e661bac",
            "type": "pubkey"
          }
        }
      ],
      "hex": "01000000010000000000000000000000000000000000000000000000000000000000000000ffffffff0804ffff001d02cf03ffffffff0100f2052a01000000434104b762660e37a42f33c1339ed96f08f4c8c3747e2eb141b7fd9d52de3bcfffaa74d3772206983fa5151aa94d1da5b3fb14f38d7bb5e1fcc58e2bdda9ea9d8e661bac00000000"
    }
  ]
}