{
  "hash": "00000000e6455a87a189166001ecd142b621227c7e54788ca23ec0a332fc3a41",
  "confirmations": 45489,
  "height": 7609,
  "version": 1,
  "versionHex": "00000001",
  "merkleroot": "b922f95dd97e2dac61be6014330cd596c216f18da6a7a387a87751727b3860ac",
  "time": 1237174843,
  "mediantime": 1237172016,
  "nonce": 60814697,
  "bits": "1d00ffff",
  "difficulty": 1,
  "chainwork": "00000000000000000000000000000000000000000000000000001dba1dba1dba",
  "nTx": 1,
  "previousblockhash": "00000000de7e8c28af0ce816493aeeb38e793bc4af1023a2660fe79a5e5452d2",
  "nextblockhash": "00000000c6b9b7f26dbd5427b2f74750cefd1401f0eba633d1eef175fc49b2cb",
  "strippedsize": 215,
  "size": 215,
  "weight": 860,
  "tx": [
    {
      "txid": "b922f95dd97e2dac61be6014330cd596c216f18da6a7a387a87751727b3860ac",
      "hash": "b922f95dd97e2dac61be6014330cd596c216f18da6a7a387a87751727b3860ac",
      "version": 1,
      "size": 134,
      "vsize": 134,
      "weight": 536,
      "locktime": 0,
      "vin": [
        {
          "coinbase": "04ffff001d0113",
          "sequence": 4294967295
        }
      ],
      "vout": [
        {
          "value": 50.0,
          "n": 0,
          "scriptPubKey": {
            "asm": "04200dcb69cfe2d4d153cab299fa17b6e6c5a879c4e0366a66acc6251d54c9b715c491492475c618231e0789e5a5cbb54bec7ccb115c27a6c377938fe915f57889 OP_CHECKSIG",
            "desc": "pk(04200dcb69cfe2d4d153cab299fa17b6e6c5a879c4e0366a66acc6251d54c9b715c491492475c618231e0789e5a5cbb54bec7ccb115c27a6c377938fe915f57889)#msnpf527",
            "hex": "4104200dcb69cfe2d4d153cab299fa17b6e6c5a879c4e0366a66acc6251d54c9b715c491492475c618231e0789e5a5cbb54bec7ccb115c27a6c377938fe915f57889ac",
            "type": "pubkey"
          }
        }
      ],
      "hex": "01000000010000000000000000000000000000000000000000000000000000000000000000ffffffff0704ffff001d0113ffffffff0100f2052a01000000434104200dcb69cfe2d4d153cab299fa17b6e6c5a879c4e0366a66acc6251d54c9b715c491492475c618231e0789e5a5cbb54bec7ccb115c27a6c377938fe915f57889ac00000000"
    }
  ]
}