{
  "hash": "0000000092b1d848c608c64f9f764623432855007593e596258bb40daffa8fe7",
  "confirmations": 52079,
  "height": 256,
  "version": 1,
  "versionHex": "00000001",
  "merkleroot": "12b2f144a461e73183571a52332fa727e7b76ee49e212e0695446b7ac78cd3e8",
  "time": 1231798073,
  "mediantime": 1231793759,
  "nonce": 569014838,
  "bits": "1d00ffff",
  "difficulty": 1,
  "chainwork": "0000000000000000000000000000000000000000000000000000010101010101",
  "nTx": 1,
  "previousblockhash": "00000000d0a75c861fabf9ff7b92022f60e4afeed9331fe5aa073d8e4706fe3c",
  "nextblockhash": "00000000613da6433c0f6c61d8bcb17c39603dd4a8595142359905b18b84edcd",
  "strippedsize": 216,
  "size": 216,
  "weight": 864,
  "tx": [
    {
      "txid": "12b2f144a461e73183571a52332fa727e7b76ee49e212e0695446b7ac78cd3e8",
      "hash": "12b2f144a461e73183571a52332fa727e7b76ee49e212e0695446b7ac78cd3e8",
      "version": 1,
      "size": 135,
      "vsize": 135,
      "weight": 540,
      "locktime": 0,
      "vin": [
        {
          "coinbase": "04ffff001d023201",
          "sequence": 4294967295
        }
      ],
      "vout": [
        {
          "value": 50.0,
          "n": 0,
          "scriptPubKey": {
            "asm": "04d9dccb46ed1fc106395078840aef11b5152eae172d322db332a6ec00dcaf4606884b07083bbd8785e6e402dd292f1638261278050137dd3a2b1c9d5e645fde67 OP_CHECKSIG",
            "desc": "pk(04d9dccb46ed1fc106395078840aef11b5152eae172d322db332a6ec00dcaf4606884b07083bbd8785e6e402dd292f1638261278050137dd3a2b1c9d5e645fde67)#jeny7q5n",
            "hex": "4104d9dccb46ed1fc106395078840aef11b5152eae172d322db332a6ec00dcaf4606884b07083bbd8785e6e402dd292f1638261278050137dd3a2b1c9d5e645fde67ac",
            "type": "pubkey"
          }
        }
      ],
      "hex": "01000000010000000000000000000000000000000000000000000000000000000000000000ffffffff0804ffff001d023201ffffffff0100f2052a01000000434104d9dccb46ed1fc106395078840aef11b5152eae172d322db332a6ec00dcaf4606884b07083bbd8785e6e402dd292f1638261278050137dd3a2b1c9d5e645fde67ac00000000"
    }
  ]
}