{
  "hash": "00000000b31245632f9d27ba0dd4f18536b62d4e91b1590d82c8263764740841",
  "confirmations": 44263,
  "height": 8835,
  "version": 1,
  "versionHex": "00000001",
  "merkleroot": "137e8a2db7c8e62c11cdcea0c50a9d0f6f6dc87538de243b09ec4bb3f21fa1e4",
  "time": 1238125654,
  "mediantime": 1238119417,
  "nonce": 3108361246,
  "bits": "1d00ffff",
  "difficulty": 1,
  "chainwork": "0000000000000000000000000000000000000000000000000000228422842284",
  "nTx": 1,
  "previousblockhash": "00000000e665fdd14d417d3f38505e5199fd18000effed5da4ceb4239b46a2d8",
  "nextblockhash": "00000000d3e91a1f7df6f1bb0325994742e92435d8d503bcf8aef6efb25bd915",
  "strippedsize": 216,
  "size": 216,
  "weight": 864,
  "tx": [
    {
      "txid": "137e8a2db7c8e62c11cdcea0c50a9d0f6f6dc87538de243b09ec4bb3f21fa1e4",
      "hash": "137e8a2db7c8e62c11cdcea0c50a9d0f6f6dc87538de243b09ec4bb3f21fa1e4",
      "version": 1,
      "size": 135,
      "vsize": 135,
      "weight": 540,
      "locktime": 0,
      "vin": [
        {
          "coinbase": "04ffff001d026e03",
          "sequence": 4294967295
        }
      ],
      "vout": [
        {
          "value": 50.0,
          "n": 0,
          "scriptPubKey": {
            "asm": "047c0d75e4350a35c7a7070524e9b74c85ace116ccd1a391b40d6298ad3090ca611321eb806c792c7cc1d65c60878ff589c900a89f98b33c73da31a21b459e96d3 OP_CHECKSIG",
            "desc": "pk(047c0d75e4350a35c7a7070524e9b74c85ace116ccd1a391b40d6298ad3090ca611321eb806c792c7cc1d65c60878ff589c900a89f98b33c73da31a21b459e96d3)#dmj55uht",
            "hex": "41047c0d75e4350a35c7a7070524e9b74c85ace116ccd1a391b40d6298ad3090ca611321eb806c792c7cc1d65c60878ff589c900a89f98b33c73da31a21b459e96d3ac",
            "type": "pubkey"
          }
        }
      ],
      "hex": "01000000010000000000000000000000000000000000000000000000000000000000000000ffffffff0804ffff001d026e03ffffffff0100f2052a010000004341047c0d75e4350a35c7a7070524e9b74c85ace116ccd1a391b40d6298ad3090ca611321eb806c792c7cc1d65c60878ff589c900a89f98b33c73da31a21b459e96d3ac00000000"
    }
  ]
}