{
  "hash": "00000000b673799a339623c2c04cc9ed5feac0a1280925e2ff3ed759eefa3330",
  "confirmations": 45062,
  "height": 8036,
  "version": 1,
  "versionHex": "00000001",
  "merkleroot": "5af8d1838c30e58a691a36f5599467e15395fcaa44c60bdfbef26c168b1f0649",
  "time": 1237489177,
  "mediantime": 1237486244,
  "nonce": 1405200923,
  "bits": "1d00ffff",
  "difficulty": 1,
  "chainwork": "00000000000000000000000000000000000000000000000000001f651f651f65",
  "nTx": 1,
  "previousblockhash": "000000005cb309641e02e6b67486b16629472723b9230ceef9b042a5994cacad",
  "nextblockhash": "00000000cc78ad610206892e7be4d37adf3f7b4a5ac7b5c13a5d5a046f8d7daa",
  "strippedsize": 216,
  "size": 216,
  "weight": 864,
  "tx": [
    {
      "txid": "5af8d1838c30e58a691a36f5599467e15395fcaa44c60bdfbef26c168b1f0649",
      "hash": "5af8d1838c30e58a691a36f5599467e15395fcaa44c60bdfbef26c168b1f0649",
      "version": 1,
      "size": 135,
      "vsize": 135,
      "weight": 540,
      "locktime": 0,
      "vin": [
        {
          "coinbase": "04ffff001d02060a",
          "sequence": 4294967295
        }
      ],
      "vout": [
        {
          "value": 50.0,
          "n": 0,
          "scriptPubKey": {
            "asm": "047a9a166f8a128786b5f1fed71bfd8b1e4a05721024c508a1d053e58311104a9624f30a5e3ecc8ac91c3e591afc79b029b9beff8d07e3afc86ee785e48ee4d62e OP_CHECKSIG",
            "desc": "pk(047a9a166f8a128786b5f1fed71bfd8b1e4a05721024c508a1d053e58311104a9624f30a5e3ecc8ac91c3e591afc79b029b9beff8d07e3afc86ee785e48ee4d62e)#r5ptj9d0",
            "hex": "41047a9a166f8a128786b5f1fed71bfd8b1e4a05721024c508a1d053e58311104a9624f30a5e3ecc8ac91c3e591afc79b029b9beff8d07e3afc86ee785e48ee4d62eac",
            "type": "pubkey"
          }
        }
      ],
      "hex": "01000000010000000000000000000000000000000000000000000000000000000000000000ffffffff0804ffff001d02060affffffff0100f2052a010000004341047a9a166f8a128786b5f1fed71bfd8b1e4a05721024c508a1d053e58311104a9624f30a5e3ecc8ac91c3e591afc79b029b9beff8d07e3afc86ee785e48ee4d62eac00000000"
    }
  ]
}