{
  "hash": "000000007aad5b373b57f4d5a5f910ddf5361396a0eb6e6130f081bd992aab39",
  "confirmations": 50731,
  "height": 2367,
  "version": 1,
  "versionHex": "00000001",
  "merkleroot": "3e4956bcd97290938a362f45902efab402079a8909dcda6d7d67fcc2b045565a",
  "time": 1233325675,
  "mediantime": 1233322797,
  "nonce": 129236353,
  "bits": "1d00ffff",
  "difficulty": 1,
  "chainwork": "0000000000000000000000000000000000000000000000000000094009400940",
  "nTx": 1,
  "previousblockhash": "00000000f4ebc5ad93758a8f72c9f205d360e4d5757f233777de9f846c255951",
  "nextblockhash": "000000000f97c9f5374a4a547bf11639cac076923687f2117afa55050149eece",
  "strippedsize": 216,
  "size": 216,
  "weight": 864,
  "tx": [
    {
      "txid": "3e4956bcd97290938a362f45902efab402079a8909dcda6d7d67fcc2b045565a",
      "hash": "3e4956bcd97290938a362f45902efab402079a8909dcda6d7d67fcc2b045565a",
      "version": 1,
      "size": 135,
      "vsize": 135,
      "weight": 540,
      "locktime": 0,
      "vin": [
        {
          "coinbase": "04ffff001d02b801",
          "sequence": 4294967295
        }
      ],
      "vout": [
        {
          "value": 50.0,
          "n": 0,
          "scriptPubKey": {
            "asm": "041e37cb8aad7569110d3ba330a569314b0e19c22c367a3ad74ee12f829e82c07340207196b0b12750af8c5f9a064e5aa40279c5bbda33f26c98a0d6e8b3c2a967 OP_CHECKSIG",
            "desc": "pk(041e37cb8aad7569110d3ba330a569314b0e19c22c367a3ad74ee12f829e82c07340207196b0b12750af8c5f9a064e5aa40279c5bbda33f26c98a0d6e8b3c2a967)#lc8c8fph",
            "hex": "41041e37cb8aad7569110d3ba330a569314b0e19c22c367a3ad74ee12f829e82c07340207196b0b12750af8c5f9a064e5aa40279c5bbda33f26c98a0d6e8b3c2a967ac",
            "type": "pubkey"
          }
        }
      ],
      "hex": "01000000010000000000000000000000000000000000000000000000000000000000000000ffffffff0804ffff001d02b801ffffffff0100f2052a010000004341041e37cb8aad7569110d3ba330a569314b0e19c22c367a3ad74ee12f829e82c07340207196b0b12750af8c5f9a064e5aa40279c5bbda33f26c98a0d6e8b3c2a967ac00000000"
    }
  ]
}