{
  "hash": "000000003c88883fbfb5820a0ce9af26ea2c1c5c11180dc75ad47e6d0e9f0877",
  "confirmations": 50687,
  "height": 2411,
  "version": 1,
  "versionHex": "00000001",
  "merkleroot": "cf7e04715eb63d87e5b9a6c2d2f8bdf5b62188a211243b87b553f70ff4fb8d2f",
  "time": 1233362855,
  "mediantime": 1233360098,
  "nonce": 2681494298,
  "bits": "1d00ffff",
  "difficulty": 1,
  "chainwork": "0000000000000000000000000000000000000000000000000000096c096c096c",
  "nTx": 1,
  "previousblockhash": "000000006dd6ba3f019c7057a6e127319318d7dbef4efb7f2f3d39d7d53013b7",
  "nextblockhash": "00000000ce45140ff4b62388dd98730531216285dd1a9ddabbd646ba615b0461",
  "strippedsize": 215,
  "size": 215,
  "weight": 860,
  "tx": [
    {
      "txid": "cf7e04715eb63d87e5b9a6c2d2f8bdf5b62188a211243b87b553f70ff4fb8d2f",
      "hash": "cf7e04715eb63d87e5b9a6c2d2f8bdf5b62188a211243b87b553f70ff4fb8d2f",
      "version": 1,
      "size": 134,
      "vsize": 134,
      "weight": 536,
      "locktime": 0,
      "vin": [
        {
          "coinbase": "04ffff001d012e",
          "sequence": 4294967295
        }
      ],
      "vout": [
        {
          "value": 50.0,
          "n": 0,
          "scriptPubKey": {
            "asm": "04a08f87d01312d5d61950285e4f8e795f9990d3f6f9874c9cdbca90d2865155c4a4d7fe8e93e56a9f12279b7b24dead3bcc7ed2404115df8354a43c9961004531 OP_CHECKSIG",
            "desc": "pk(04a08f87d01312d5d61950285e4f8e795f9990d3f6f9874c9cdbca90d2865155c4a4d7fe8e93e56a9f12279b7b24dead3bcc7ed2404115df8354a43c9961004531)#8f2zs320",
            "hex": "4104a08f87d01312d5d61950285e4f8e795f9990d3f6f9874c9cdbca90d2865155c4a4d7fe8e93e56a9f12279b7b24dead3bcc7ed2404115df8354a43c9961004531ac",
            "type": "pubkey"
          }
        }
      ],
      "hex": "01000000010000000000000000000000000000000000000000000000000000000000000000ffffffff0704ffff001d012effffffff0100f2052a01000000434104a08f87d01312d5d61950285e4f8e795f9990d3f6f9874c9cdbca90d2865155c4a4d7fe8e93e56a9f12279b7b24dead3bcc7ed2404115df8354a43c9961004531ac00000000"
    }
  ]
}