{
  "hash": "00000000aaa4bb5f000426e08ad6109cac943d3e15c62637869058a97b63962c",
  "confirmations": 46051,
  "height": 7047,
  "version": 1,
  "versionHex": "00000001",
  "merkleroot": "63b024392a1721950dc27639ae47ac22ed04cf9a25199c81e2af58011952c619",
  "time": 1236755775,
  "mediantime": 1236749959,
  "nonce": 2114636088,
  "bits": "1d00ffff",
  "difficulty": 1,
  "chainwork": "00000000000000000000000000000000000000000000000000001b881b881b88",
  "nTx": 1,
  "previousblockhash": "000000004f012d3deeb53ea9bad75ac1b9d421522c4bcb84f41c4429265594b4",
  "nextblockhash": "00000000cf0e9000778f9af0929ab6410aa02904e078ffe9eb14610ec8b4b2ea",
  "strippedsize": 216,
  "size": 216,
  "weight": 864,
  "tx": [
    {
      "txid": "63b024392a1721950dc27639ae47ac22ed04cf9a25199c81e2af58011952c619",
      "hash": "63b024392a1721950dc27639ae47ac22ed04cf9a25199c81e2af58011952c619",
      "version": 1,
      "size": 135,
      "vsize": 135,
      "weight": 540,
      "locktime": 0,
      "vin": [
        {
          "coinbase": "04ffff001d021d03",
          "sequence": 4294967295
        }
      ],
      "vout": [
        {
          "value": 50.0,
          "n": 0,
          "scriptPubKey": {
            "asm": "044441c951cf78f305962d039ab24c4c79b6e8063a5f849e9327c22931ebb29f4b0eadc08530853667c935e2058288371ef6f6a7a537b7c281b387a67760722dfc OP_CHECKSIG",
            "desc": "pk(044441c951cf78f305962d039ab24c4c79b6e8063a5f849e9327c22931ebb29f4b0eadc08530853667c935e2058288371ef6f6a7a537b7c281b387a67760722dfc)#gntsmu2m",
            "hex": "41044441c951cf78f305962d039ab24c4c79b6e8063a5f849e9327c22931ebb29f4b0eadc08530853667c935e2058288371ef6f6a7a537b7c281b387a67760722dfcac",
            "type": "pubkey"
          }
        }
      ],
      "hex": "01000000010000000000000000000000000000000000000000000000000000000000000000ffffffff0804ffff001d021d03ffffffff0100f2052a010000004341044441c951cf78f305962d039ab24c4c79b6e8063a5f849e9327c22931ebb29f4b0eadc08530853667c935e2058288371ef6f6a7a537b7c281b387a67760722dfcac00000000"
    }
  ]
}