{
  "hash": "00000000e49373a26666dda6553bb5f0d74a939a788217829b20e6016a8334d4",
  "confirmations": 52570,
  "height": 528,
  "version": 1,
  "versionHex": "00000001",
  "merkleroot": "a320989b6e71abecdf7faaa0e2e8209a71c8826e1733228e43a96cd26f57b1df",
  "time": 1231986958,
  "mediantime": 1231983513,
  "nonce": 154246484,
  "bits": "1d00ffff",
  "difficulty": 1,
  "chainwork": "0000000000000000000000000000000000000000000000000000021102110211",
  "nTx": 1,
  "previousblockhash": "0000000050475e8b0608b84ae592640cd63577af6da96376570cfb5782bc9e5d",
  "nextblockhash": "00000000a0899965df34ebd3dbe3c1538e09433834f10d3f0a438ab9f5f0730e",
  "strippedsize": 216,
  "size": 216,
  "weight": 864,
  "tx": [
    {
      "txid": "a320989b6e71abecdf7faaa0e2e8209a71c8826e1733228e43a96cd26f57b1df",
      "hash": "a320989b6e71abecdf7faaa0e2e8209a71c8826e1733228e43a96cd26f57b1df",
      "version": 1,
      "size": 135,
      "vsize": 135,
      "weight": 540,
      "locktime": 0,
      "vin": [
        {
          "coinbase": "04ffff001d02ad00",
          "sequence": 4294967295
        }
      ],
      "vout": [
        {
          "value": 50.0,
          "n": 0,
          "scriptPubKey": {
            "asm": "04109afcde7d8bd9aee0527e5d518b068c939af92e3d31d131d993c22957d5bdeae9393e2f09281e05962c3b3ddb7046f763acc27ad4f3b4a6087f95069ceab2ac OP_CHECKSIG",
            "desc": "pk(04109afcde7d8bd9aee0527e5d518b068c939af92e3d31d131d993c22957d5bdeae9393e2f09281e05962c3b3ddb7046f763acc27ad4f3b4a6087f95069ceab2ac)#fakzgvx5",
            "hex": "4104109afcde7d8bd9aee0527e5d518b068c939af92e3d31d131d993c22957d5bdeae9393e2f09281e05962c3b3ddb7046f763acc27ad4f3b4a6087f95069ceab2acac",
            "type": "pubkey"
          }
        }
      ],
      "hex": "01000000010000000000000000000000000000000000000000000000000000000000000000ffffffff0804ffff001d02ad00ffffffff0100f2052a01000000434104109afcde7d8bd9aee0527e5d518b068c939af92e3d31d131d993c22957d5bdeae9393e2f09281e05962c3b3ddb7046f763acc27ad4f3b4a6087f95069ceab2acac00000000"
    }
  ]
}