{
  "hash": "000000003792ca071d4b698890b315448e6208f9f591ed88bebd3ed52012a505",
  "confirmations": 52365,
  "height": 733,
  "version": 1,
  "versionHex": "00000001",
  "merkleroot": "2bd7e754ddc5416e579a9aa54f93e9aa53af3b9c0ac8194462b22856b806e15e",
  "time": 1232136547,
  "mediantime": 1232133515,
  "nonce": 2371879727,
  "bits": "1d00ffff",
  "difficulty": 1,
  "chainwork": "000000000000000000000000000000000000000000000000000002de02de02de",
  "nTx": 1,
  "previousblockhash": "00000000ddd47166f0e4c39fb2db653955cdc9bef87530e8844153c13faabe07",
  "nextblockhash": "000000007f65dc5a5681c9de6fcdfec7f68aa67af923af236f151cbffaf8e26c",
  "strippedsize": 215,
  "size": 215,
  "weight": 860,
  "tx": [
    {
      "txid": "2bd7e754ddc5416e579a9aa54f93e9aa53af3b9c0ac8194462b22856b806e15e",
      "hash": "2bd7e754ddc5416e579a9aa54f93e9aa53af3b9c0ac8194462b22856b806e15e",
      "version": 1,
      "size": 134,
      "vsize": 134,
      "weight": 536,
      "locktime": 0,
      "vin": [
        {
          "coinbase": "04ffff001d0148",
          "sequence": 4294967295
        }
      ],
      "vout": [
        {
          "value": 50.0,
          "n": 0,
          "scriptPubKey": {
            "asm": "04ec8936a6afca7636082f062d13acda421a4444c2a7c69d15fe57b097d89bcb9f8e1aecb96a56281f7100ded97fe41ae117fc0f9f844a42160830e67559556ce5 OP_CHECKSIG",
            "desc": "pk(04ec8936a6afca7636082f062d13acda421a4444c2a7c69d15fe57b097d89bcb9f8e1aecb96a56281f7100ded97fe41ae117fc0f9f844a42160830e67559556ce5)#9fx3e557",
            "hex": "4104ec8936a6afca7636082f062d13acda421a4444c2a7c69d15fe57b097d89bcb9f8e1aecb96a56281f7100ded97fe41ae117fc0f9f844a42160830e67559556ce5ac",
            "type": "pubkey"
          }
        }
      ],
      "hex": "01000000010000000000000000000000000000000000000000000000000000000000000000ffffffff0704ffff001d0148ffffffff0100f2052a01000000434104ec8936a6afca7636082f062d13acda421a4444c2a7c69d15fe57b097d89bcb9f8e1aecb96a56281f7100ded97fe41ae117fc0f9f844a42160830e67559556ce5ac00000000"
    }
  ]
}