{
  "hash": "000000009b8514d16b4a64f6a458de01da3b633275dea5b511be12c121782d46",
  "confirmations": 47157,
  "height": 5941,
  "version": 1,
  "versionHex": "00000001",
  "merkleroot": "17f5a3c2d9714687e7adf973f0c95b43c545b4e8880aea035acc59dc778bb13c",
  "time": 1235881670,
  "mediantime": 1235877474,
  "nonce": 3263074332,
  "bits": "1d00ffff",
  "difficulty": 1,
  "chainwork": "0000000000000000000000000000000000000000000000000000173617361736",
  "nTx": 1,
  "previousblockhash": "000000003f87fa6d28f979128c1e89cf6bb239f885d7d811cfe7e6d10ca9bb2e",
  "nextblockhash": "0000000087e87b084602a425e53819b65dc0f0ac9bff48631c7d24972a0537b6",
  "strippedsize": 216,
  "size": 216,
  "weight": 864,
  "tx": [
    {
      "txid": "17f5a3c2d9714687e7adf973f0c95b43c545b4e8880aea035acc59dc778bb13c",
      "hash": "17f5a3c2d9714687e7adf973f0c95b43c545b4e8880aea035acc59dc778bb13c",
      "version": 1,
      "size": 135,
      "vsize": 135,
      "weight": 540,
      "locktime": 0,
      "vin": [
        {
          "coinbase": "04ffff001d02df03",
          "sequence": 4294967295
        }
      ],
      "vout": [
        {
          "value": 50.0,
          "n": 0,
          "scriptPubKey": {
            "asm": "0499aae34c82c5814d124bf7ce900413bf9c4520f87f165efdfa8e39adfe8e54ed3efe6ea1ab7e4213cc67aeb59743f0fe1abd80669fb17e81ceb22043e16c514a OP_CHECKSIG",
            "desc": "pk(0499aae34c82c5814d124bf7ce900413bf9c4520f87f165efdfa8e39adfe8e54ed3efe6ea1ab7e4213cc67aeb59743f0fe1abd80669fb17e81ceb22043e16c514a)#40u7s2dh",
            "hex": "410499aae34c82c5814d124bf7ce900413bf9c4520f87f165efdfa8e39adfe8e54ed3efe6ea1ab7e4213cc67aeb59743f0fe1abd80669fb17e81ceb22043e16c514aac",
            "type": "pubkey"
          }
        }
      ],
      "hex": "01000000010000000000000000000000000000000000000000000000000000000000000000ffffffff0804ffff001d02df03ffffffff0100f2052a0100000043410499aae34c82c5814d124bf7ce900413bf9c4520f87f165efdfa8e39adfe8e54ed3efe6ea1ab7e4213cc67aeb59743f0fe1abd80669fb17e81ceb22043e16c514aac00000000"
    }
  ]
}