{
  "hash": "00000000e02dd6d27f0ee3727b97f9fe72da33f0a1f06dba8cd4fb887fa1f646",
  "confirmations": 46972,
  "height": 6126,
  "version": 1,
  "versionHex": "00000001",
  "merkleroot": "b74a5e28f894143a38dd650f5764ae42b783b7f248b1942155692cba6a43d468",
  "time": 1236029724,
  "mediantime": 1236026825,
  "nonce": 2402190391,
  "bits": "1d00ffff",
  "difficulty": 1,
  "chainwork": "000000000000000000000000000000000000000000000000000017ef17ef17ef",
  "nTx": 1,
  "previousblockhash": "0000000093ca739f386f6ce9687e5849aaadf3600d037e01bf92a7a8183dd313",
  "nextblockhash": "00000000dd77ec9906d6a4ffde7d95945d6c675a922fc1bd365e5ff46f49fed3",
  "strippedsize": 216,
  "size": 216,
  "weight": 864,
  "tx": [
    {
      "txid": "b74a5e28f894143a38dd650f5764ae42b783b7f248b1942155692cba6a43d468",
      "hash": "b74a5e28f894143a38dd650f5764ae42b783b7f248b1942155692cba6a43d468",
      "version": 1,
      "size": 135,
      "vsize": 135,
      "weight": 540,
      "locktime": 0,
      "vin": [
        {
          "coinbase": "04ffff001d024907",
          "sequence": 4294967295
        }
      ],
      "vout": [
        {
          "value": 50.0,
          "n": 0,
          "scriptPubKey": {
            "asm": "0435eb5b4e0eb6d0c8658489eee3f04d0830cda4ee65a7a36f299a2a3e59022f59af4dc457dec4a19bffea64a8b4e5f901f0a805efb68f4be76ae65a15617df3cb OP_CHECKSIG",
            "desc": "pk(0435eb5b4e0eb6d0c8658489eee3f04d0830cda4ee65a7a36f299a2a3e59022f59af4dc457dec4a19bffea64a8b4e5f901f0a805efb68f4be76ae65a15617df3cb)#ctkaj2nu",
            "hex": "410435eb5b4e0eb6d0c8658489eee3f04d0830cda4ee65a7a36f299a2a3e59022f59af4dc457dec4a19bffea64a8b4e5f901f0a805efb68f4be76ae65a15617df3cbac",
            "type": "pubkey"
          }
        }
      ],
      "hex": "01000000010000000000000000000000000000000000000000000000000000000000000000ffffffff0804ffff001d024907ffffffff0100f2052a0100000043410435eb5b4e0eb6d0c8658489eee3f04d0830cda4ee65a7a36f299a2a3e59022f59af4dc457dec4a19bffea64a8b4e5f901f0a805efb68f4be76ae65a15617df3cbac00000000"
    }
  ]
}