{
  "hash": "00000000739051ee3f517aa433062cf021d50b81b6e637c2d8113307c09b900b",
  "confirmations": 50202,
  "height": 2896,
  "version": 1,
  "versionHex": "00000001",
  "merkleroot": "20ca219eae976d62372172f1bd6612021fd10b75744489a7f363060f02d9692e",
  "time": 1233689139,
  "mediantime": 1233686355,
  "nonce": 3966101805,
  "bits": "1d00ffff",
  "difficulty": 1,
  "chainwork": "00000000000000000000000000000000000000000000000000000b510b510b51",
  "nTx": 1,
  "previousblockhash": "00000000ad220a413041f6c50c396ff9522f4e5dcc6c955e4e99ae7bbda2f575",
  "nextblockhash": "00000000da2bc3cab56858357a59f787a0c52292787f01f43fec45aebe534547",
  "strippedsize": 216,
  "size": 216,
  "weight": 864,
  "tx": [
    {
      "txid": "20ca219eae976d62372172f1bd6612021fd10b75744489a7f363060f02d9692e",
      "hash": "20ca219eae976d62372172f1bd6612021fd10b75744489a7f363060f02d9692e",
      "version": 1,
      "size": 135,
      "vsize": 135,
      "weight": 540,
      "locktime": 0,
      "vin": [
        {
          "coinbase": "04ffff001d025707",
          "sequence": 4294967295
        }
      ],
      "vout": [
        {
          "value": 50.0,
          "n": 0,
          "scriptPubKey": {
            "asm": "0465ed31431a9f81cec0b0824d4b0d2d235a28247b285fa245390e6e2509b98fe56f8f35f28f14d7da1cf79e3d474d93799912e8856b32939c14ef5e27cf7de7d3 OP_CHECKSIG",
            "desc": "pk(0465ed31431a9f81cec0b0824d4b0d2d235a28247b285fa245390e6e2509b98fe56f8f35f28f14d7da1cf79e3d474d93799912e8856b32939c14ef5e27cf7de7d3)#yrftsy37",
            "hex": "410465ed31431a9f81cec0b0824d4b0d2d235a28247b285fa245390e6e2509b98fe56f8f35f28f14d7da1cf79e3d474d93799912e8856b32939c14ef5e27cf7de7d3ac",
            "type": "pubkey"
          }
        }
      ],
      "hex": "01000000010000000000000000000000000000000000000000000000000000000000000000ffffffff0804ffff001d025707ffffffff0100f2052a0100000043410465ed31431a9f81cec0b0824d4b0d2d235a28247b285fa245390e6e2509b98fe56f8f35f28f14d7da1cf79e3d474d93799912e8856b32939c14ef5e27cf7de7d3ac00000000"
    }
  ]
}