{
  "hash": "000000008bc3ccc1a72da93565653b8f70c541a9429eb67b1d50db964b86da60",
  "confirmations": 47091,
  "height": 6007,
  "version": 1,
  "versionHex": "00000001",
  "merkleroot": "34c8bded0256738d673c4b3274001a7f29b3cdec2440deaef41533da659b4206",
  "time": 1235931315,
  "mediantime": 1235928907,
  "nonce": 17916889,
  "bits": "1d00ffff",
  "difficulty": 1,
  "chainwork": "0000000000000000000000000000000000000000000000000000177817781778",
  "nTx": 1,
  "previousblockhash": "000000009bbf3121ebaa969547ef40f479bf64bc4bd159d263c640b184eb2d0a",
  "nextblockhash": "00000000b620e15a469e3404a0a5e74ace5b93d69234d1b5dc5dbbe59d54a1aa",
  "strippedsize": 215,
  "size": 215,
  "weight": 860,
  "tx": [
    {
      "txid": "34c8bded0256738d673c4b3274001a7f29b3cdec2440deaef41533da659b4206",
      "hash": "34c8bded0256738d673c4b3274001a7f29b3cdec2440deaef41533da659b4206",
      "version": 1,
      "size": 134,
      "vsize": 134,
      "weight": 536,
      "locktime": 0,
      "vin": [
        {
          "coinbase": "04ffff001d0165",
          "sequence": 4294967295
        }
      ],
      "vout": [
        {
          "value": 50.0,
          "n": 0,
          "scriptPubKey": {
            "asm": "046ba924a5bd5d050c8fb5cc6e1a644d3797e5472f6e94e88142cde7b764dffe37250be775f89171689958667187180e99bfcfe5e36f9c70e15dbfa717b957e46e OP_CHECKSIG",
            "desc": "pk(046ba924a5bd5d050c8fb5cc6e1a644d3797e5472f6e94e88142cde7b764dffe37250be775f89171689958667187180e99bfcfe5e36f9c70e15dbfa717b957e46e)#n4e6lddz",
            "hex": "41046ba924a5bd5d050c8fb5cc6e1a644d3797e5472f6e94e88142cde7b764dffe37250be775f89171689958667187180e99bfcfe5e36f9c70e15dbfa717b957e46eac",
            "type": "pubkey"
          }
        }
      ],
      "hex": "01000000010000000000000000000000000000000000000000000000000000000000000000ffffffff0704ffff001d0165ffffffff0100f2052a010000004341046ba924a5bd5d050c8fb5cc6e1a644d3797e5472f6e94e88142cde7b764dffe37250be775f89171689958667187180e99bfcfe5e36f9c70e15dbfa717b957e46eac00000000"
    }
  ]
}