{
  "hash": "0000000077f55034faf5042bad15a2533008161171902b783fc309162040aa2e",
  "confirmations": 47484,
  "height": 5614,
  "version": 1,
  "versionHex": "00000001",
  "merkleroot": "adf89bb8d2324827143b0af7f4bed7cf31d892103f0c61c5590f2b6b5c3104d5",
  "time": 1235615695,
  "mediantime": 1235611188,
  "nonce": 1551916319,
  "bits": "1d00ffff",
  "difficulty": 1,
  "chainwork": "000000000000000000000000000000000000000000000000000015ef15ef15ef",
  "nTx": 1,
  "previousblockhash": "000000000aaeb860e58ea6677ebe2ace24708a27eb957758c8f82ee018f3ee94",
  "nextblockhash": "000000000c77605c9abd4c89dd1734ca8feba72ae8b9e654f9a88e5e6d3b3ef0",
  "strippedsize": 216,
  "size": 216,
  "weight": 864,
  "tx": [
    {
      "txid": "adf89bb8d2324827143b0af7f4bed7cf31d892103f0c61c5590f2b6b5c3104d5",
      "hash": "adf89bb8d2324827143b0af7f4bed7cf31d892103f0c61c5590f2b6b5c3104d5",
      "version": 1,
      "size": 135,
      "vsize": 135,
      "weight": 540,
      "locktime": 0,
      "vin": [
        {
          "coinbase": "04ffff001d02eb07",
          "sequence": 4294967295
        }
      ],
      "vout": [
        {
          "value": 50.0,
          "n": 0,
          "scriptPubKey": {
            "asm": "044364b92682e0e72adf6e1bec232def81e66ecc268461d9ba2030334a1a122b96536f1e89f868b8b326cb548294c152e48d77c265be2b69853d4d416fc6a82abc OP_CHECKSIG",
            "desc": "pk(044364b92682e0e72adf6e1bec232def81e66ecc268461d9ba2030334a1a122b96536f1e89f868b8b326cb548294c152e48d77c265be2b69853d4d416fc6a82abc)#zn0s37fd",
            "hex": "41044364b92682e0e72adf6e1bec232def81e66ecc268461d9ba2030334a1a122b96536f1e89f868b8b326cb548294c152e48d77c265be2b69853d4d416fc6a82abcac",
            "type": "pubkey"
          }
        }
      ],
      "hex": "01000000010000000000000000000000000000000000000000000000000000000000000000ffffffff0804ffff001d02eb07ffffffff0100f2052a010000004341044364b92682e0e72adf6e1bec232def81e66ecc268461d9ba2030334a1a122b96536f1e89f868b8b326cb548294c152e48d77c265be2b69853d4d416fc6a82abcac00000000"
    }
  ]
}