{
  "hash": "000000006cef7c465cdc7ceb4587fe4c1cd7ca3269edf9bb53623eee6cf50356",
  "confirmations": 50703,
  "height": 2395,
  "version": 1,
  "versionHex": "00000001",
  "merkleroot": "c9146165a0e7421e232b80c20b4658c2c28071e7a46f6ed13536eda24473caba",
  "time": 1233350210,
  "mediantime": 1233346275,
  "nonce": 3779439921,
  "bits": "1d00ffff",
  "difficulty": 1,
  "chainwork": "0000000000000000000000000000000000000000000000000000095c095c095c",
  "nTx": 1,
  "previousblockhash": "000000005fc0564918d56e12523d158e0d452fabec129c6ad627908b4725fa63",
  "nextblockhash": "00000000dda6be51081341e04d1e120c18ab2d0d4c7a85c93a5a8ad3a17ef713",
  "strippedsize": 216,
  "size": 216,
  "weight": 864,
  "tx": [
    {
      "txid": "c9146165a0e7421e232b80c20b4658c2c28071e7a46f6ed13536eda24473caba",
      "hash": "c9146165a0e7421e232b80c20b4658c2c28071e7a46f6ed13536eda24473caba",
      "version": 1,
      "size": 135,
      "vsize": 135,
      "weight": 540,
      "locktime": 0,
      "vin": [
        {
          "coinbase": "04ffff001d02b403",
          "sequence": 4294967295
        }
      ],
      "vout": [
        {
          "value": 50.0,
          "n": 0,
          "scriptPubKey": {
            "asm": "04a5ebec3e03ca07c2e2ca8208760ecae9c3ec7786afe2ec29e64dd36445d0112cdc898ab08be2e51b8bb915a0175ee11ab995306d4103ecaec347e33d3ccbc8b7 OP_CHECKSIG",
            "desc": "pk(04a5ebec3e03ca07c2e2ca8208760ecae9c3ec7786afe2ec29e64dd36445d0112cdc898ab08be2e51b8bb915a0175ee11ab995306d4103ecaec347e33d3ccbc8b7)#gredlnkw",
            "hex": "4104a5ebec3e03ca07c2e2ca8208760ecae9c3ec7786afe2ec29e64dd36445d0112cdc898ab08be2e51b8bb915a0175ee11ab995306d4103ecaec347e33d3ccbc8b7ac",
            "type": "pubkey"
          }
        }
      ],
      "hex": "01000000010000000000000000000000000000000000000000000000000000000000000000ffffffff0804ffff001d02b403ffffffff0100f2052a01000000434104a5ebec3e03ca07c2e2ca8208760ecae9c3ec7786afe2ec29e64dd36445d0112cdc898ab08be2e51b8bb915a0175ee11ab995306d4103ecaec347e33d3ccbc8b7ac00000000"
    }
  ]
}