{
  "hash": "000000000b9cd32f191a1b3538127a93726f0ed20a21871d962eff0d655a1875",
  "confirmations": 52010,
  "height": 329,
  "version": 1,
  "versionHex": "00000001",
  "merkleroot": "04256336e9287f3b46508888cf3539dc0ab2fc8803cbe9668749fd18fc5dee85",
  "time": 1231852306,
  "mediantime": 1231849416,
  "nonce": 96426764,
  "bits": "1d00ffff",
  "difficulty": 1,
  "chainwork": "0000000000000000000000000000000000000000000000000000014a014a014a",
  "nTx": 1,
  "previousblockhash": "00000000a3ea820f0c258b8379b6f6c2ef0260e19aa78f60aae160caf2a8abd5",
  "nextblockhash": "00000000931292b665ecaadb744af46f877df2144d240e11e76f16cb1f6531c0",
  "strippedsize": 215,
  "size": 215,
  "weight": 860,
  "tx": [
    {
      "txid": "04256336e9287f3b46508888cf3539dc0ab2fc8803cbe9668749fd18fc5dee85",
      "hash": "04256336e9287f3b46508888cf3539dc0ab2fc8803cbe9668749fd18fc5dee85",
      "version": 1,
      "size": 134,
      "vsize": 134,
      "weight": 536,
      "locktime": 0,
      "vin": [
        {
          "coinbase": "04ffff001d0160",
          "sequence": 4294967295
        }
      ],
      "vout": [
        {
          "value": 50.0,
          "n": 0,
          "scriptPubKey": {
            "asm": "0406fbce9111c572added1d16b36132b04bb5c577a1e4194815a20608d2be99b98fbfd045c48c95c1e37d415d1b1c46a172653fb563ed1aa18a45864edd2322c64 OP_CHECKSIG",
            "desc": "pk(0406fbce9111c572added1d16b36132b04bb5c577a1e4194815a20608d2be99b98fbfd045c48c95c1e37d415d1b1c46a172653fb563ed1aa18a45864edd2322c64)#fq4qwndy",
            "hex": "410406fbce9111c572added1d16b36132b04bb5c577a1e4194815a20608d2be99b98fbfd045c48c95c1e37d415d1b1c46a172653fb563ed1aa18a45864edd2322c64ac",
            "type": "pubkey"
          }
        }
      ],
      "hex": "01000000010000000000000000000000000000000000000000000000000000000000000000ffffffff0704ffff001d0160ffffffff0100f2052a0100000043410406fbce9111c572added1d16b36132b04bb5c577a1e4194815a20608d2be99b98fbfd045c48c95c1e37d415d1b1c46a172653fb563ed1aa18a45864edd2322c64ac00000000"
    }
  ]
}