{
  "hash": "000000008a80e8ed5ada2b8832572a62152acd7be8084c46a7ff153ee14f54c9",
  "confirmations": 47574,
  "height": 5524,
  "version": 1,
  "versionHex": "00000001",
  "merkleroot": "9f41f5f30bef1da2d4c70ee75cab0bf7296e207207cb1931543f93903dd8e1ae",
  "time": 1235540500,
  "mediantime": 1235536322,
  "nonce": 1197381412,
  "bits": "1d00ffff",
  "difficulty": 1,
  "chainwork": "0000000000000000000000000000000000000000000000000000159515951595",
  "nTx": 1,
  "previousblockhash": "0000000098d88753452c62bfce6c636c7a139ebac7d9a3284636af5c79de0587",
  "nextblockhash": "00000000668b7906f7d29afd108a5c0c9f5fd6439c5d678386de34df269d9326",
  "strippedsize": 216,
  "size": 216,
  "weight": 864,
  "tx": [
    {
      "txid": "9f41f5f30bef1da2d4c70ee75cab0bf7296e207207cb1931543f93903dd8e1ae",
      "hash": "9f41f5f30bef1da2d4c70ee75cab0bf7296e207207cb1931543f93903dd8e1ae",
      "version": 1,
      "size": 135,
      "vsize": 135,
      "weight": 540,
      "locktime": 0,
      "vin": [
        {
          "coinbase": "04ffff001d021b06",
          "sequence": 4294967295
        }
      ],
      "vout": [
        {
          "value": 50.0,
          "n": 0,
          "scriptPubKey": {
            "asm": "041c655e0095ab2300b95fec280a861d7e9f2b871109bcb9b771101724b469ae7468f4788df30a9418e329e6e68cfdaf280d4654fe95a39d68d396a93ba85839ce OP_CHECKSIG",
            "desc": "pk(041c655e0095ab2300b95fec280a861d7e9f2b871109bcb9b771101724b469ae7468f4788df30a9418e329e6e68cfdaf280d4654fe95a39d68d396a93ba85839ce)#5z65r2ph",
            "hex": "41041c655e0095ab2300b95fec280a861d7e9f2b871109bcb9b771101724b469ae7468f4788df30a9418e329e6e68cfdaf280d4654fe95a39d68d396a93ba85839ceac",
            "type": "pubkey"
          }
        }
      ],
      "hex": "01000000010000000000000000000000000000000000000000000000000000000000000000ffffffff0804ffff001d021b06ffffffff0100f2052a010000004341041c655e0095ab2300b95fec280a861d7e9f2b871109bcb9b771101724b469ae7468f4788df30a9418e329e6e68cfdaf280d4654fe95a39d68d396a93ba85839ceac00000000"
    }
  ]
}