{
  "hash": "00000000004b536fdc5171605e51357a91b53f1cbdffa59448fa07c5ef07be47",
  "confirmations": 46510,
  "height": 6588,
  "version": 1,
  "versionHex": "00000001",
  "merkleroot": "6766cdaea6c9b8377b1987bb23f5934da42d7778875ed9f3ccb015cd4626dbe4",
  "time": 1236395445,
  "mediantime": 1236391160,
  "nonce": 1613367090,
  "bits": "1d00ffff",
  "difficulty": 1,
  "chainwork": "000000000000000000000000000000000000000000000000000019bd19bd19bd",
  "nTx": 1,
  "previousblockhash": "000000002280cc13bf8a16d13f4b2314ce0204a58637c09ceee011ed1e1c0466",
  "nextblockhash": "00000000c326f5a6a64726709ddde82ba58a8fa78aa4b9b6fb6df3c23fa876f1",
  "strippedsize": 216,
  "size": 216,
  "weight": 864,
  "tx": [
    {
      "txid": "6766cdaea6c9b8377b1987bb23f5934da42d7778875ed9f3ccb015cd4626dbe4",
      "hash": "6766cdaea6c9b8377b1987bb23f5934da42d7778875ed9f3ccb015cd4626dbe4",
      "version": 1,
      "size": 135,
      "vsize": 135,
      "weight": 540,
      "locktime": 0,
      "vin": [
        {
          "coinbase": "04ffff001d02e504",
          "sequence": 4294967295
        }
      ],
      "vout": [
        {
          "value": 50.0,
          "n": 0,
          "scriptPubKey": {
            "asm": "04825290ed87de876357f03648dd918d79f79d9624c2fed660b980c1fc4e1994bb824c9fcd6d51917279fa987f67800a54d46924a2306131ff8b11c6cf821ff36a OP_CHECKSIG",
            "desc": "pk(04825290ed87de876357f03648dd918d79f79d9624c2fed660b980c1fc4e1994bb824c9fcd6d51917279fa987f67800a54d46924a2306131ff8b11c6cf821ff36a)#jrphr8wq",
            "hex": "4104825290ed87de876357f03648dd918d79f79d9624c2fed660b980c1fc4e1994bb824c9fcd6d51917279fa987f67800a54d46924a2306131ff8b11c6cf821ff36aac",
            "type": "pubkey"
          }
        }
      ],
      "hex": "01000000010000000000000000000000000000000000000000000000000000000000000000ffffffff0804ffff001d02e504ffffffff0100f2052a01000000434104825290ed87de876357f03648dd918d79f79d9624c2fed660b980c1fc4e1994bb824c9fcd6d51917279fa987f67800a54d46924a2306131ff8b11c6cf821ff36aac00000000"
    }
  ]
}