{
  "hash": "00000000396bd3ff8aecd3aa578b58821f2f9887d478dab6bcf1c0a1cc0143d1",
  "confirmations": 45208,
  "height": 7890,
  "version": 1,
  "versionHex": "00000001",
  "merkleroot": "6d2ab11f44934cb317abac880d4db44400d3092d132f940f554d9a8e22720788",
  "time": 1237383602,
  "mediantime": 1237381143,
  "nonce": 955469856,
  "bits": "1d00ffff",
  "difficulty": 1,
  "chainwork": "00000000000000000000000000000000000000000000000000001ed31ed31ed3",
  "nTx": 1,
  "previousblockhash": "0000000005e0c213fa2cfdd581fd5a3a3e10ac72b602067f9abd93be6c5f4b45",
  "nextblockhash": "00000000ecaa563e4407b0cdde043391f83f07cc7dcb026fb2c01ff62f3b2b16",
  "strippedsize": 216,
  "size": 216,
  "weight": 864,
  "tx": [
    {
      "txid": "6d2ab11f44934cb317abac880d4db44400d3092d132f940f554d9a8e22720788",
      "hash": "6d2ab11f44934cb317abac880d4db44400d3092d132f940f554d9a8e22720788",
      "version": 1,
      "size": 135,
      "vsize": 135,
      "weight": 540,
      "locktime": 0,
      "vin": [
        {
          "coinbase": "04ffff001d024507",
          "sequence": 4294967295
        }
      ],
      "vout": [
        {
          "value": 50.0,
          "n": 0,
          "scriptPubKey": {
            "asm": "044cc3cf4d4b889ac53e31d3a3c79eb12844bfe2e5477e69b71c2471680b442c5c914adb77026fb04339c32fa10a02e0b97e4a49481d957b9176a3f9dde39737e5 OP_CHECKSIG",
            "desc": "pk(044cc3cf4d4b889ac53e31d3a3c79eb12844bfe2e5477e69b71c2471680b442c5c914adb77026fb04339c32fa10a02e0b97e4a49481d957b9176a3f9dde39737e5)#5mxmm6q6",
            "hex": "41044cc3cf4d4b889ac53e31d3a3c79eb12844bfe2e5477e69b71c2471680b442c5c914adb77026fb04339c32fa10a02e0b97e4a49481d957b9176a3f9dde39737e5ac",
            "type": "pubkey"
          }
        }
      ],
      "hex": "01000000010000000000000000000000000000000000000000000000000000000000000000ffffffff0804ffff001d024507ffffffff0100f2052a010000004341044cc3cf4d4b889ac53e31d3a3c79eb12844bfe2e5477e69b71c2471680b442c5c914adb77026fb04339c32fa10a02e0b97e4a49481d957b9176a3f9dde39737e5ac00000000"
    }
  ]
}