{
  "hash": "000000002476471a1189d9a7ba2b3754c9cdffa56349c07fee98393bcf6dff10",
  "confirmations": 46739,
  "height": 6359,
  "version": 1,
  "versionHex": "00000001",
  "merkleroot": "b0e58242e18d841acd0d739e0b184e424e240bc3abd7384206c402ea686d1634",
  "time": 1236226227,
  "mediantime": 1236221453,
  "nonce": 3610015008,
  "bits": "1d00ffff",
  "difficulty": 1,
  "chainwork": "000000000000000000000000000000000000000000000000000018d818d818d8",
  "nTx": 1,
  "previousblockhash": "00000000578c7f5de49b1e67a0f0a98f36cd206c4ae8bec82edbe04960e316c4",
  "nextblockhash": "00000000bdac76ae889c00504676e02c8be25af4a92539ac2641bb7e32014ddf",
  "strippedsize": 216,
  "size": 216,
  "weight": 864,
  "tx": [
    {
      "txid": "b0e58242e18d841acd0d739e0b184e424e240bc3abd7384206c402ea686d1634",
      "hash": "b0e58242e18d841acd0d739e0b184e424e240bc3abd7384206c402ea686d1634",
      "version": 1,
      "size": 135,
      "vsize": 135,
      "weight": 540,
      "locktime": 0,
      "vin": [
        {
          "coinbase": "04ffff001d021101",
          "sequence": 4294967295
        }
      ],
      "vout": [
        {
          "value": 50.0,
          "n": 0,
          "scriptPubKey": {
            "asm": "04b1dbd94275439281d8913ee4443c0bdacbc73bed7682637245ead67e90b531329f653363a0b246df601091aefea35f02a923953d51afafb6366996907a79ba43 OP_CHECKSIG",
            "desc": "pk(04b1dbd94275439281d8913ee4443c0bdacbc73bed7682637245ead67e90b531329f653363a0b246df601091aefea35f02a923953d51afafb6366996907a79ba43)#q6taklal",
            "hex": "4104b1dbd94275439281d8913ee4443c0bdacbc73bed7682637245ead67e90b531329f653363a0b246df601091aefea35f02a923953d51afafb6366996907a79ba43ac",
            "type": "pubkey"
          }
        }
      ],
      "hex": "01000000010000000000000000000000000000000000000000000000000000000000000000ffffffff0804ffff001d021101ffffffff0100f2052a01000000434104b1dbd94275439281d8913ee4443c0bdacbc73bed7682637245ead67e90b531329f653363a0b246df601091aefea35f02a923953d51afafb6366996907a79ba43ac00000000"
    }
  ]
}