{
  "hash": "00000000c7ede4b4d97579ce2ef124526d32a1dc1c4d35b18a9cd3096a4f0cbd",
  "confirmations": 44291,
  "height": 8807,
  "version": 1,
  "versionHex": "00000001",
  "merkleroot": "90694467131b44e21b1a8e85826be5346f7426d303c1fa130229f91f4d396b0f",
  "time": 1238105744,
  "mediantime": 1238102377,
  "nonce": 3903792164,
  "bits": "1d00ffff",
  "difficulty": 1,
  "chainwork": "0000000000000000000000000000000000000000000000000000226822682268",
  "nTx": 1,
  "previousblockhash": "00000000ea1f4e21fc336b5552e712d12a660b28baf8458b4bba1cf2187da1b0",
  "nextblockhash": "000000007d963253c24e06e6730837483accd5ab78549a4a7040e79247d07eb0",
  "strippedsize": 216,
  "size": 216,
  "weight": 864,
  "tx": [
    {
      "txid": "90694467131b44e21b1a8e85826be5346f7426d303c1fa130229f91f4d396b0f",
      "hash": "90694467131b44e21b1a8e85826be5346f7426d303c1fa130229f91f4d396b0f",
      "version": 1,
      "size": 135,
      "vsize": 135,
      "weight": 540,
      "locktime": 0,
      "vin": [
        {
          "coinbase": "04ffff001d02dc02",
          "sequence": 4294967295
        }
      ],
      "vout": [
        {
          "value": 50.0,
          "n": 0,
          "scriptPubKey": {
            "asm": "04aa9f3c9bdc823183561a054c38ec2d2a1d896bae2c00ab8b15cb0d6886a81749ee61251417768491514dfcdb504d0095863ffd9c97c6888b8e260d1fdef3fda6 OP_CHECKSIG",
            "desc": "pk(04aa9f3c9bdc823183561a054c38ec2d2a1d896bae2c00ab8b15cb0d6886a81749ee61251417768491514dfcdb504d0095863ffd9c97c6888b8e260d1fdef3fda6)#gx6gj7zt",
            "hex": "4104aa9f3c9bdc823183561a054c38ec2d2a1d896bae2c00ab8b15cb0d6886a81749ee61251417768491514dfcdb504d0095863ffd9c97c6888b8e260d1fdef3fda6ac",
            "type": "pubkey"
          }
        }
      ],
      "hex": "01000000010000000000000000000000000000000000000000000000000000000000000000ffffffff0804ffff001d02dc02ffffffff0100f2052a01000000434104aa9f3c9bdc823183561a054c38ec2d2a1d896bae2c00ab8b15cb0d6886a81749ee61251417768491514dfcdb504d0095863ffd9c97c6888b8e260d1fdef3fda6ac00000000"
    }
  ]
}