{
  "hash": "000000001c6e1e47a1d818180a56d06abfc729f2edc05f24c6b61f20c077f2ae",
  "confirmations": 46346,
  "height": 6752,
  "version": 1,
  "versionHex": "00000001",
  "merkleroot": "3a2cbb6cd493bdcff41501c7857896781272466201f18ec43fadee6010e4163a",
  "time": 1236522272,
  "mediantime": 1236517836,
  "nonce": 2510747419,
  "bits": "1d00ffff",
  "difficulty": 1,
  "chainwork": "00000000000000000000000000000000000000000000000000001a611a611a61",
  "nTx": 1,
  "previousblockhash": "00000000b51605f3005d43217446c483615c74d95956b4c569b4682e42fbe05d",
  "nextblockhash": "00000000fbcd7bd80181c94a9d15984fd6b5a0cd9d933c42b1f278c4b5bb76cb",
  "strippedsize": 216,
  "size": 216,
  "weight": 864,
  "tx": [
    {
      "txid": "3a2cbb6cd493bdcff41501c7857896781272466201f18ec43fadee6010e4163a",
      "hash": "3a2cbb6cd493bdcff41501c7857896781272466201f18ec43fadee6010e4163a",
      "version": 1,
      "size": 135,
      "vsize": 135,
      "weight": 540,
      "locktime": 0,
      "vin": [
        {
          "coinbase": "04ffff001d022108",
          "sequence": 4294967295
        }
      ],
      "vout": [
        {
          "value": 50.0,
          "n": 0,
          "scriptPubKey": {
            "asm": "04943bf65135929a3759c1cd8f800889acb861f52061bcdc6f76b47177d73de7e6c3a721d0fc5b6fb256d0173fca349111653663709f0a10d8811d9f8de74c018e OP_CHECKSIG",
            "desc": "pk(04943bf65135929a3759c1cd8f800889acb861f52061bcdc6f76b47177d73de7e6c3a721d0fc5b6fb256d0173fca349111653663709f0a10d8811d9f8de74c018e)#skmuglpy",
            "hex": "4104943bf65135929a3759c1cd8f800889acb861f52061bcdc6f76b47177d73de7e6c3a721d0fc5b6fb256d0173fca349111653663709f0a10d8811d9f8de74c018eac",
            "type": "pubkey"
          }
        }
      ],
      "hex": "01000000010000000000000000000000000000000000000000000000000000000000000000ffffffff0804ffff001d022108ffffffff0100f2052a01000000434104943bf65135929a3759c1cd8f800889acb861f52061bcdc6f76b47177d73de7e6c3a721d0fc5b6fb256d0173fca349111653663709f0a10d8811d9f8de74c018eac00000000"
    }
  ]
}