{
  "hash": "00000000a9b419e308486b4c45db8b876ef895409d7881f37ca6223a0d3d54b0",
  "confirmations": 46416,
  "height": 6682,
  "version": 1,
  "versionHex": "00000001",
  "merkleroot": "6da1d95280fff1fc2c354118d36816a81f64fbe4a26c4782de964af2a9b74bd2",
  "time": 1236469184,
  "mediantime": 1236465167,
  "nonce": 33776224,
  "bits": "1d00ffff",
  "difficulty": 1,
  "chainwork": "00000000000000000000000000000000000000000000000000001a1b1a1b1a1b",
  "nTx": 1,
  "previousblockhash": "00000000230110ed88fa279e1010c73ab127db68f71c30c56ec948fa4285e38c",
  "nextblockhash": "0000000081b33893a9c9bfad1c8cc1d86194501000482a02f30523620eb096d5",
  "strippedsize": 216,
  "size": 216,
  "weight": 864,
  "tx": [
    {
      "txid": "6da1d95280fff1fc2c354118d36816a81f64fbe4a26c4782de964af2a9b74bd2",
      "hash": "6da1d95280fff1fc2c354118d36816a81f64fbe4a26c4782de964af2a9b74bd2",
      "version": 1,
      "size": 135,
      "vsize": 135,
      "weight": 540,
      "locktime": 0,
      "vin": [
        {
          "coinbase": "04ffff001d021002",
          "sequence": 4294967295
        }
      ],
      "vout": [
        {
          "value": 50.0,
          "n": 0,
          "scriptPubKey": {
            "asm": "04d85f24994c6de5505bb3e1fbe8910e20c9c46da1846c0e1996e682a3c4b9d3a763048475347e9f662d9e8cee90f85e701ccd9a5a76a83adf9ad6a789d970189b OP_CHECKSIG",
            "desc": "pk(04d85f24994c6de5505bb3e1fbe8910e20c9c46da1846c0e1996e682a3c4b9d3a763048475347e9f662d9e8cee90f85e701ccd9a5a76a83adf9ad6a789d970189b)#06960n26",
            "hex": "4104d85f24994c6de5505bb3e1fbe8910e20c9c46da1846c0e1996e682a3c4b9d3a763048475347e9f662d9e8cee90f85e701ccd9a5a76a83adf9ad6a789d970189bac",
            "type": "pubkey"
          }
        }
      ],
      "hex": "01000000010000000000000000000000000000000000000000000000000000000000000000ffffffff0804ffff001d021002ffffffff0100f2052a01000000434104d85f24994c6de5505bb3e1fbe8910e20c9c46da1846c0e1996e682a3c4b9d3a763048475347e9f662d9e8cee90f85e701ccd9a5a76a83adf9ad6a789d970189bac00000000"
    }
  ]
}