{
  "hash": "0000000074f99cc2c2f30dd95322757a2772b083a8695974540fdfe9756ef716",
  "confirmations": 46434,
  "height": 6664,
  "version": 1,
  "versionHex": "00000001",
  "merkleroot": "bd2f9de809517c4280c44613bfbe863bb569f6086485e807ab779aa5fced9789",
  "time": 1236454903,
  "mediantime": 1236450577,
  "nonce": 1516842785,
  "bits": "1d00ffff",
  "difficulty": 1,
  "chainwork": "00000000000000000000000000000000000000000000000000001a091a091a09",
  "nTx": 1,
  "previousblockhash": "000000008b948c2c786e8078aa2514d34aa68f726f5bcf360dac67fd4313d342",
  "nextblockhash": "00000000c2644d8135b6aefd4b064bd7d450ea7edac1da6f286df9b4e61e297e",
  "strippedsize": 216,
  "size": 216,
  "weight": 864,
  "tx": [
    {
      "txid": "bd2f9de809517c4280c44613bfbe863bb569f6086485e807ab779aa5fced9789",
      "hash": "bd2f9de809517c4280c44613bfbe863bb569f6086485e807ab779aa5fced9789",
      "version": 1,
      "size": 135,
      "vsize": 135,
      "weight": 540,
      "locktime": 0,
      "vin": [
        {
          "coinbase": "04ffff001d025906",
          "sequence": 4294967295
        }
      ],
      "vout": [
        {
          "value": 50.0,
          "n": 0,
          "scriptPubKey": {
            "asm": "04c71309a8391d849151b0c9c239561eb2831b28c997c24a68e13b71b161c6d60003e45443ba9eee2ff5115fc8c4189e60cf4bb1aed897b40aa07822cf3ae60162 OP_CHECKSIG",
            "desc": "pk(04c71309a8391d849151b0c9c239561eb2831b28c997c24a68e13b71b161c6d60003e45443ba9eee2ff5115fc8c4189e60cf4bb1aed897b40aa07822cf3ae60162)#v0pdr694",
            "hex": "4104c71309a8391d849151b0c9c239561eb2831b28c997c24a68e13b71b161c6d60003e45443ba9eee2ff5115fc8c4189e60cf4bb1aed897b40aa07822cf3ae60162ac",
            "type": "pubkey"
          }
        }
      ],
      "hex": "01000000010000000000000000000000000000000000000000000000000000000000000000ffffffff0804ffff001d025906ffffffff0100f2052a01000000434104c71309a8391d849151b0c9c239561eb2831b28c997c24a68e13b71b161c6d60003e45443ba9eee2ff5115fc8c4189e60cf4bb1aed897b40aa07822cf3ae60162ac00000000"
    }
  ]
}