{
  "hash": "00000000a46ae93a5a781423b03f598dc17f2f48024097a9582700d07f49bcd7",
  "confirmations": 47396,
  "height": 5702,
  "version": 1,
  "versionHex": "00000001",
  "merkleroot": "1eca181354da999b9943ce4dec03954df2e1be6f69782ae604732568311b4690",
  "time": 1235686841,
  "mediantime": 1235684224,
  "nonce": 238684413,
  "bits": "1d00ffff",
  "difficulty": 1,
  "chainwork": "0000000000000000000000000000000000000000000000000000164716471647",
  "nTx": 1,
  "previousblockhash": "0000000043daed14132a6a3b129c5a87f8d8b27b818878583dcc2702fd32a479",
  "nextblockhash": "00000000b1b83eefd9c54cce943557976252d43d68ab28a0ce7021f15a55ec0e",
  "strippedsize": 215,
  "size": 215,
  "weight": 860,
  "tx": [
    {
      "txid": "1eca181354da999b9943ce4dec03954df2e1be6f69782ae604732568311b4690",
      "hash": "1eca181354da999b9943ce4dec03954df2e1be6f69782ae604732568311b4690",
      "version": 1,
      "size": 134,
      "vsize": 134,
      "weight": 536,
      "locktime": 0,
      "vin": [
        {
          "coinbase": "04ffff001d0109",
          "sequence": 4294967295
        }
      ],
      "vout": [
        {
          "value": 50.0,
          "n": 0,
          "scriptPubKey": {
            "asm": "04b65ecdce37988bbc60f577d1e6edc89a61361e187b97cd494866e0715372a7e7e90aa2b1e22011879b07df75270c8d01a6d0bf2af6b0337dc08e90cadc6f4b87 OP_CHECKSIG",
            "desc": "pk(04b65ecdce37988bbc60f577d1e6edc89a61361e187b97cd494866e0715372a7e7e90aa2b1e22011879b07df75270c8d01a6d0bf2af6b0337dc08e90cadc6f4b87)#4ag0khnj",
            "hex": "4104b65ecdce37988bbc60f577d1e6edc89a61361e187b97cd494866e0715372a7e7e90aa2b1e22011879b07df75270c8d01a6d0bf2af6b0337dc08e90cadc6f4b87ac",
            "type": "pubkey"
          }
        }
      ],
      "hex": "01000000010000000000000000000000000000000000000000000000000000000000000000ffffffff0704ffff001d0109ffffffff0100f2052a01000000434104b65ecdce37988bbc60f577d1e6edc89a61361e187b97cd494866e0715372a7e7e90aa2b1e22011879b07df75270c8d01a6d0bf2af6b0337dc08e90cadc6f4b87ac00000000"
    }
  ]
}