{
  "hash": "0000000028c18620aeab000ec560a64419bec60c4d31a226fb0c960752886e0d",
  "confirmations": 46545,
  "height": 6553,
  "version": 1,
  "versionHex": "00000001",
  "merkleroot": "712d68bd33a0e0c983927bc35a2bad48d9c5e3649771f12500c469357e701ee1",
  "time": 1236367404,
  "mediantime": 1236363962,
  "nonce": 116832689,
  "bits": "1d00ffff",
  "difficulty": 1,
  "chainwork": "0000000000000000000000000000000000000000000000000000199a199a199a",
  "nTx": 1,
  "previousblockhash": "0000000069080c00ad6658ce29f7a094ee78168e8eda10ccde62042f4b7744f9",
  "nextblockhash": "00000000176d5e0d79d721f3a359dd15e941f9219ace47153949508161c33b24",
  "strippedsize": 216,
  "size": 216,
  "weight": 864,
  "tx": [
    {
      "txid": "712d68bd33a0e0c983927bc35a2bad48d9c5e3649771f12500c469357e701ee1",
      "hash": "712d68bd33a0e0c983927bc35a2bad48d9c5e3649771f12500c469357e701ee1",
      "version": 1,
      "size": 135,
      "vsize": 135,
      "weight": 540,
      "locktime": 0,
      "vin": [
        {
          "coinbase": "04ffff001d029200",
          "sequence": 4294967295
        }
      ],
      "vout": [
        {
          "value": 50.0,
          "n": 0,
          "scriptPubKey": {
            "asm": "04e60e3380749af53e379315da88ae8e69bef88a94256f73fac9e71ee317a8e17e7993a60fcd4cc5d210f1b7df5c3e9b3b8fcce7afa1fae974d1914a532702f15b OP_CHECKSIG",
            "desc": "pk(04e60e3380749af53e379315da88ae8e69bef88a94256f73fac9e71ee317a8e17e7993a60fcd4cc5d210f1b7df5c3e9b3b8fcce7afa1fae974d1914a532702f15b)#cpdvmdlm",
            "hex": "4104e60e3380749af53e379315da88ae8e69bef88a94256f73fac9e71ee317a8e17e7993a60fcd4cc5d210f1b7df5c3e9b3b8fcce7afa1fae974d1914a532702f15bac",
            "type": "pubkey"
          }
        }
      ],
      "hex": "01000000010000000000000000000000000000000000000000000000000000000000000000ffffffff0804ffff001d029200ffffffff0100f2052a01000000434104e60e3380749af53e379315da88ae8e69bef88a94256f73fac9e71ee317a8e17e7993a60fcd4cc5d210f1b7df5c3e9b3b8fcce7afa1fae974d1914a532702f15bac00000000"
    }
  ]
}