{
  "hash": "00000000c55c595b18eff1e1d3f52b5759b9f56dac235af896e9c478cc77cbeb",
  "confirmations": 52179,
  "height": 442,
  "version": 1,
  "versionHex": "00000001",
  "merkleroot": "a739f9909bdf50466fd746e42394fada8e245f29e6f5747fca0a70dec470b75f",
  "time": 1231930435,
  "mediantime": 1231927300,
  "nonce": 65612400,
  "bits": "1d00ffff",
  "difficulty": 1,
  "chainwork": "000000000000000000000000000000000000000000000000000001bb01bb01bb",
  "nTx": 1,
  "previousblockhash": "00000000fc0f0e9952be1ff8efe59f96cfac449734cd6d58704ce6c65ec726a9",
  "nextblockhash": "00000000945c9ee0ee1dd8c1e59b44de30354039ad301de90782c14164517e48",
  "strippedsize": 216,
  "size": 216,
  "weight": 864,
  "tx": [
    {
      "txid": "a739f9909bdf50466fd746e42394fada8e245f29e6f5747fca0a70dec470b75f",
      "hash": "a739f9909bdf50466fd746e42394fada8e245f29e6f5747fca0a70dec470b75f",
      "version": 1,
      "size": 135,
      "vsize": 135,
      "weight": 540,
      "locktime": 0,
      "vin": [
        {
          "coinbase": "04ffff001d029d00",
          "sequence": 4294967295
        }
      ],
      "vout": [
        {
          "value": 50.0,
          "n": 0,
          "scriptPubKey": {
            "asm": "04c8a9c87a12bada5a94b903bc780e13e49600000c2b4a3f4d11f5a52c6fc3cee2949d1ebc5bba32a9ca456e23c9ac43f2307a0aea3cddb0d32ad5e97b3bcfd369 OP_CHECKSIG",
            "desc": "pk(04c8a9c87a12bada5a94b903bc780e13e49600000c2b4a3f4d11f5a52c6fc3cee2949d1ebc5bba32a9ca456e23c9ac43f2307a0aea3cddb0d32ad5e97b3bcfd369)#4jheq0me",
            "hex": "4104c8a9c87a12bada5a94b903bc780e13e49600000c2b4a3f4d11f5a52c6fc3cee2949d1ebc5bba32a9ca456e23c9ac43f2307a0aea3cddb0d32ad5e97b3bcfd369ac",
            "type": "pubkey"
          }
        }
      ],
      "hex": "01000000010000000000000000000000000000000000000000000000000000000000000000ffffffff0804ffff001d029d00ffffffff0100f2052a01000000434104c8a9c87a12bada5a94b903bc780e13e49600000c2b4a3f4d11f5a52c6fc3cee2949d1ebc5bba32a9ca456e23c9ac43f2307a0aea3cddb0d32ad5e97b3bcfd369ac00000000"
    }
  ]
}