{
  "hash": "00000000549ccd92340f9eac14c39c435e1ee0ac3e8ba46a02ebf4315f7f4cca",
  "confirmations": 45026,
  "height": 8072,
  "version": 1,
  "versionHex": "00000001",
  "merkleroot": "0736d53ce572b0537ec94a8ee5d86a34cf64c2b3ea7a3e8eb074ee57b92ce284",
  "time": 1237513675,
  "mediantime": 1237510277,
  "nonce": 112320421,
  "bits": "1d00ffff",
  "difficulty": 1,
  "chainwork": "00000000000000000000000000000000000000000000000000001f891f891f89",
  "nTx": 1,
  "previousblockhash": "000000004c9cc15a6b95aa54bac79ed84ae8eb57ebbded23d5956e579492852c",
  "nextblockhash": "00000000d0ef02f86cc258eaa292327ab3e8f06938cbd6b83871fde1064365a1",
  "strippedsize": 215,
  "size": 215,
  "weight": 860,
  "tx": [
    {
      "txid": "0736d53ce572b0537ec94a8ee5d86a34cf64c2b3ea7a3e8eb074ee57b92ce284",
      "hash": "0736d53ce572b0537ec94a8ee5d86a34cf64c2b3ea7a3e8eb074ee57b92ce284",
      "version": 1,
      "size": 134,
      "vsize": 134,
      "weight": 536,
      "locktime": 0,
      "vin": [
        {
          "coinbase": "04ffff001d0150",
          "sequence": 4294967295
        }
      ],
      "vout": [
        {
          "value": 50.0,
          "n": 0,
          "scriptPubKey": {
            "asm": "04b712fd5234cce05454ea907e9b79a519ed57418dfb69a5948132aafb1dea08fbed90c8fc8ee425b77071b9e332544d50b0a8dfb8b1db78e3f008d51c1a137c63 OP_CHECKSIG",
            "desc": "pk(04b712fd5234cce05454ea907e9b79a519ed57418dfb69a5948132aafb1dea08fbed90c8fc8ee425b77071b9e332544d50b0a8dfb8b1db78e3f008d51c1a137c63)#nuky3vum",
            "hex": "4104b712fd5234cce05454ea907e9b79a519ed57418dfb69a5948132aafb1dea08fbed90c8fc8ee425b77071b9e332544d50b0a8dfb8b1db78e3f008d51c1a137c63ac",
            "type": "pubkey"
          }
        }
      ],
      "hex": "01000000010000000000000000000000000000000000000000000000000000000000000000ffffffff0704ffff001d0150ffffffff0100f2052a01000000434104b712fd5234cce05454ea907e9b79a519ed57418dfb69a5948132aafb1dea08fbed90c8fc8ee425b77071b9e332544d50b0a8dfb8b1db78e3f008d51c1a137c63ac00000000"
    }
  ]
}