{
  "hash": "00000000557f4dd610df6144f7cee23c16e67fdbcbcc92bcc9e49ee71ac8cd5d",
  "confirmations": 51863,
  "height": 1235,
  "version": 1,
  "versionHex": "00000001",
  "merkleroot": "d611f5f26a91770b77c84c5faecb037f98dad4398105e66f8d4bab3db1cbbafe",
  "time": 1232527002,
  "mediantime": 1232523624,
  "nonce": 840260647,
  "bits": "1d00ffff",
  "difficulty": 1,
  "chainwork": "000000000000000000000000000000000000000000000000000004d404d404d4",
  "nTx": 1,
  "previousblockhash": "000000004257f209a21040d1baeb99c1ea852271238ef67a124a2c5349e1d870",
  "nextblockhash": "000000007534825a00c1cb0df8be677f98311430ae80307b46517d46e0bcc975",
  "strippedsize": 216,
  "size": 216,
  "weight": 864,
  "tx": [
    {
      "txid": "d611f5f26a91770b77c84c5faecb037f98dad4398105e66f8d4bab3db1cbbafe",
      "hash": "d611f5f26a91770b77c84c5faecb037f98dad4398105e66f8d4bab3db1cbbafe",
      "version": 1,
      "size": 135,
      "vsize": 135,
      "weight": 540,
      "locktime": 0,
      "vin": [
        {
          "coinbase": "04ffff001d022909",
          "sequence": 4294967295
        }
      ],
      "vout": [
        {
          "value": 50.0,
          "n": 0,
          "scriptPubKey": {
            "asm": "045364965997c2ac8b3b4cc6ec4ceb29c20338a2585cff657da8978533f15f928da9e4f9fee8369bd34a7761a747c46f84bc5a935b1f5e731ce44defadfc60623b OP_CHECKSIG",
            "desc": "pk(045364965997c2ac8b3b4cc6ec4ceb29c20338a2585cff657da8978533f15f928da9e4f9fee8369bd34a7761a747c46f84bc5a935b1f5e731ce44defadfc60623b)#wsqpgmew",
            "hex": "41045364965997c2ac8b3b4cc6ec4ceb29c20338a2585cff657da8978533f15f928da9e4f9fee8369bd34a7761a747c46f84bc5a935b1f5e731ce44defadfc60623bac",
            "type": "pubkey"
          }
        }
      ],
      "hex": "01000000010000000000000000000000000000000000000000000000000000000000000000ffffffff0804ffff001d022909ffffffff0100f2052a010000004341045364965997c2ac8b3b4cc6ec4ceb29c20338a2585cff657da8978533f15f928da9e4f9fee8369bd34a7761a747c46f84bc5a935b1f5e731ce44defadfc60623bac00000000"
    }
  ]
}