{
  "hash": "0000000090f5509d7cb00ed38b1ea0e48aa311ca72b7e1225216d336b25e9248",
  "confirmations": 45696,
  "height": 7402,
  "version": 1,
  "versionHex": "00000001",
  "merkleroot": "cd3e0a1c0579d9ea67ca71ec127eb25d92142e593dde8b68f3f260059fd97ede",
  "time": 1237025058,
  "mediantime": 1237020796,
  "nonce": 95408083,
  "bits": "1d00ffff",
  "difficulty": 1,
  "chainwork": "00000000000000000000000000000000000000000000000000001ceb1ceb1ceb",
  "nTx": 1,
  "previousblockhash": "00000000faede889e3a01b997f793321c0b482da1b4a019386f730427d7370b6",
  "nextblockhash": "000000008d21062d92193f0ba21e2ee4adc5d959eb335c0ae8970c1bcb014b38",
  "strippedsize": 216,
  "size": 216,
  "weight": 864,
  "tx": [
    {
      "txid": "cd3e0a1c0579d9ea67ca71ec127eb25d92142e593dde8b68f3f260059fd97ede",
      "hash": "cd3e0a1c0579d9ea67ca71ec127eb25d92142e593dde8b68f3f260059fd97ede",
      "version": 1,
      "size": 135,
      "vsize": 135,
      "weight": 540,
      "locktime": 0,
      "vin": [
        {
          "coinbase": "04ffff001d029a07",
          "sequence": 4294967295
        }
      ],
      "vout": [
        {
          "value": 50.0,
          "n": 0,
          "scriptPubKey": {
            "asm": "04e8291275f96429c9be9b23521c10c092b49cadbe83874e70032a4854c64b2199d042a4f3d89465d1e65e35a1da09d1e58717fd4c5750ec508fecb653922874e0 OP_CHECKSIG",
            "desc": "pk(04e8291275f96429c9be9b23521c10c092b49cadbe83874e70032a4854c64b2199d042a4f3d89465d1e65e35a1da09d1e58717fd4c5750ec508fecb653922874e0)#rrc8z26s",
            "hex": "4104e8291275f96429c9be9b23521c10c092b49cadbe83874e70032a4854c64b2199d042a4f3d89465d1e65e35a1da09d1e58717fd4c5750ec508fecb653922874e0ac",
            "type": "pubkey"
          }
        }
      ],
      "hex": "01000000010000000000000000000000000000000000000000000000000000000000000000ffffffff0804ffff001d029a07ffffffff0100f2052a01000000434104e8291275f96429c9be9b23521c10c092b49cadbe83874e70032a4854c64b2199d042a4f3d89465d1e65e35a1da09d1e58717fd4c5750ec508fecb653922874e0ac00000000"
    }
  ]
}