{
  "hash": "0000000077b2d94aa31f27643f15f9c707b6b7a0f9a4c885650ab02f6b1425cf",
  "confirmations": 47572,
  "height": 5526,
  "version": 1,
  "versionHex": "00000001",
  "merkleroot": "0a79c2e1239b115b55528c3c7335c25236e02709e0bb9c1558dc266e1e9fb3d9",
  "time": 1235541837,
  "mediantime": 1235537296,
  "nonce": 1834478885,
  "bits": "1d00ffff",
  "difficulty": 1,
  "chainwork": "0000000000000000000000000000000000000000000000000000159715971597",
  "nTx": 1,
  "previousblockhash": "00000000668b7906f7d29afd108a5c0c9f5fd6439c5d678386de34df269d9326",
  "nextblockhash": "000000009f7f024e266e044b5ef2e5460f2b8599a7248a13b0eb09b029b50636",
  "strippedsize": 216,
  "size": 216,
  "weight": 864,
  "tx": [
    {
      "txid": "0a79c2e1239b115b55528c3c7335c25236e02709e0bb9c1558dc266e1e9fb3d9",
      "hash": "0a79c2e1239b115b55528c3c7335c25236e02709e0bb9c1558dc266e1e9fb3d9",
      "version": 1,
      "size": 135,
      "vsize": 135,
      "weight": 540,
      "locktime": 0,
      "vin": [
        {
          "coinbase": "04ffff001d022006",
          "sequence": 4294967295
        }
      ],
      "vout": [
        {
          "value": 50.0,
          "n": 0,
          "scriptPubKey": {
            "asm": "04d17b6b9651fd0a121e61c0d186dbcefeb0559a7e369d72c107ed3b2013d95367747b7dd2e34ec4e42d7b9577dd554da48f0e5387002473827f42a98bc6d01c0f OP_CHECKSIG",
            "desc": "pk(04d17b6b9651fd0a121e61c0d186dbcefeb0559a7e369d72c107ed3b2013d95367747b7dd2e34ec4e42d7b9577dd554da48f0e5387002473827f42a98bc6d01c0f)#9qa3xwn8",
            "hex": "4104d17b6b9651fd0a121e61c0d186dbcefeb0559a7e369d72c107ed3b2013d95367747b7dd2e34ec4e42d7b9577dd554da48f0e5387002473827f42a98bc6d01c0fac",
            "type": "pubkey"
          }
        }
      ],
      "hex": "01000000010000000000000000000000000000000000000000000000000000000000000000ffffffff0804ffff001d022006ffffffff0100f2052a01000000434104d17b6b9651fd0a121e61c0d186dbcefeb0559a7e369d72c107ed3b2013d95367747b7dd2e34ec4e42d7b9577dd554da48f0e5387002473827f42a98bc6d01c0fac00000000"
    }
  ]
}