{
  "hash": "00000000ceae2b1cb578f066bd08c672fe87814880671c205febb2d624184f21",
  "confirmations": 52028,
  "height": 124,
  "version": 1,
  "versionHex": "00000001",
  "merkleroot": "611b40973fe68cc42b70ae5af365a449af458d76086415c6fa6c45364c36278e",
  "time": 1231678278,
  "mediantime": 1231674557,
  "nonce": 1878174981,
  "bits": "1d00ffff",
  "difficulty": 1,
  "chainwork": "0000000000000000000000000000000000000000000000000000007d007d007d",
  "nTx": 1,
  "previousblockhash": "00000000a3bbe4fd1da16a29dbdaba01cc35d6fc74ee17f794cf3aab94f7aaa0",
  "nextblockhash": "000000002f4afd677b14f17a19ef5f9584155e7a43b0375c85a5d52b43959916",
  "strippedsize": 216,
  "size": 216,
  "weight": 864,
  "tx": [
    {
      "txid": "611b40973fe68cc42b70ae5af365a449af458d76086415c6fa6c45364c36278e",
      "hash": "611b40973fe68cc42b70ae5af365a449af458d76086415c6fa6c45364c36278e",
      "version": 1,
      "size": 135,
      "vsize": 135,
      "weight": 540,
      "locktime": 0,
      "vin": [
        {
          "coinbase": "04ffff001d02e900",
          "sequence": 4294967295
        }
      ],
      "vout": [
        {
          "value": 50.0,
          "n": 0,
          "scriptPubKey": {
            "asm": "041fd091cdf05a34ffa28103adf83f399437d5bcf79fa07f55fe98f65a43a82e0ce5adbe6a3abb597d39573693453d8c1fac40ffb2ff2c9d9405940964d7cd6134 OP_CHECKSIG",
            "desc": "pk(041fd091cdf05a34ffa28103adf83f399437d5bcf79fa07f55fe98f65a43a82e0ce5adbe6a3abb597d39573693453d8c1fac40ffb2ff2c9d9405940964d7cd6134)#augy0afz",
            "hex": "41041fd091cdf05a34ffa28103adf83f399437d5bcf79fa07f55fe98f65a43a82e0ce5adbe6a3abb597d39573693453d8c1fac40ffb2ff2c9d9405940964d7cd6134ac",
            "type": "pubkey"
          }
        }
      ],
      "hex": "01000000010000000000000000000000000000000000000000000000000000000000000000ffffffff0804ffff001d02e900ffffffff0100f2052a010000004341041fd091cdf05a34ffa28103adf83f399437d5bcf79fa07f55fe98f65a43a82e0ce5adbe6a3abb597d39573693453d8c1fac40ffb2ff2c9d9405940964d7cd6134ac00000000"
    }
  ]
}