{
  "hash": "00000000f39741da98b6f3401782b09fcfe02dba0ef247ac9f3342b70db463e1",
  "confirmations": 51917,
  "height": 1181,
  "version": 1,
  "versionHex": "00000001",
  "merkleroot": "bbf9d4ea04d443211005058bb1697dbe17936016adc6ae49d58e414074cde268",
  "time": 1232485760,
  "mediantime": 1232482818,
  "nonce": 1239236379,
  "bits": "1d00ffff",
  "difficulty": 1,
  "chainwork": "0000000000000000000000000000000000000000000000000000049e049e049e",
  "nTx": 1,
  "previousblockhash": "00000000592ac01ba4e9d4daec3da2b6fac63f0faefa0222c715b660c18ddcaa",
  "nextblockhash": "000000000222d331c9cda8a89878ac1654b06660d10078ff7bf67793a6ca290b",
  "strippedsize": 216,
  "size": 216,
  "weight": 864,
  "tx": [
    {
      "txid": "bbf9d4ea04d443211005058bb1697dbe17936016adc6ae49d58e414074cde268",
      "hash": "bbf9d4ea04d443211005058bb1697dbe17936016adc6ae49d58e414074cde268",
      "version": 1,
      "size": 135,
      "vsize": 135,
      "weight": 540,
      "locktime": 0,
      "vin": [
        {
          "coinbase": "04ffff001d025408",
          "sequence": 4294967295
        }
      ],
      "vout": [
        {
          "value": 50.0,
          "n": 0,
          "scriptPubKey": {
            "asm": "04a4ce6832a09d1b3dfe53197b013937e50d42521edec1ead53d83fdffa8b9e1b70106aee9bc515921fbf9b68a44109e3de361f59e7ee85d023f1eecdf8942d175 OP_CHECKSIG",
            "desc": "pk(04a4ce6832a09d1b3dfe53197b013937e50d42521edec1ead53d83fdffa8b9e1b70106aee9bc515921fbf9b68a44109e3de361f59e7ee85d023f1eecdf8942d175)#svkzu6hh",
            "hex": "4104a4ce6832a09d1b3dfe53197b013937e50d42521edec1ead53d83fdffa8b9e1b70106aee9bc515921fbf9b68a44109e3de361f59e7ee85d023f1eecdf8942d175ac",
            "type": "pubkey"
          }
        }
      ],
      "hex": "01000000010000000000000000000000000000000000000000000000000000000000000000ffffffff0804ffff001d025408ffffffff0100f2052a01000000434104a4ce6832a09d1b3dfe53197b013937e50d42521edec1ead53d83fdffa8b9e1b70106aee9bc515921fbf9b68a44109e3de361f59e7ee85d023f1eecdf8942d175ac00000000"
    }
  ]
}