{
  "hash": "0000000088693bf43fde8cf1b2c29b3ddf40d1242781fe23b38fca9b5865b5dd",
  "confirmations": 43999,
  "height": 9099,
  "version": 1,
  "versionHex": "00000001",
  "merkleroot": "f23efa09ff3eb3a92534bb386248a1368e863accf20dd4140dfbb6bbe81dbc2f",
  "time": 1238329077,
  "mediantime": 1238327264,
  "nonce": 3649381163,
  "bits": "1d00ffff",
  "difficulty": 1,
  "chainwork": "0000000000000000000000000000000000000000000000000000238c238c238c",
  "nTx": 1,
  "previousblockhash": "000000008322a2d1dabcacd02e3f54e4007d250ec34c12a53b7dc64ea9e25fa3",
  "nextblockhash": "0000000071a164101778a4098e1b550a885fbafcf6b208291529e8386786a4c6",
  "strippedsize": 216,
  "size": 216,
  "weight": 864,
  "tx": [
    {
      "txid": "f23efa09ff3eb3a92534bb386248a1368e863accf20dd4140dfbb6bbe81dbc2f",
      "hash": "f23efa09ff3eb3a92534bb386248a1368e863accf20dd4140dfbb6bbe81dbc2f",
      "version": 1,
      "size": 135,
      "vsize": 135,
      "weight": 540,
      "locktime": 0,
      "vin": [
        {
          "coinbase": "04ffff001d024208",
          "sequence": 4294967295
        }
      ],
      "vout": [
        {
          "value": 50.0,
          "n": 0,
          "scriptPubKey": {
            "asm": "046df30c5c43e1cb45fc3dab26af1bbea9d1262aba0dd6ecf5c82d9f07eef9a4b30c92a06cb24b2237bac1d1e9eeead49e313b71c3015560d7c6559e85a16da3b4 OP_CHECKSIG",
            "desc": "pk(046df30c5c43e1cb45fc3dab26af1bbea9d1262aba0dd6ecf5c82d9f07eef9a4b30c92a06cb24b2237bac1d1e9eeead49e313b71c3015560d7c6559e85a16da3b4)#w3wg8pzd",
            "hex": "41046df30c5c43e1cb45fc3dab26af1bbea9d1262aba0dd6ecf5c82d9f07eef9a4b30c92a06cb24b2237bac1d1e9eeead49e313b71c3015560d7c6559e85a16da3b4ac",
            "type": "pubkey"
          }
        }
      ],
      "hex": "01000000010000000000000000000000000000000000000000000000000000000000000000ffffffff0804ffff001d024208ffffffff0100f2052a010000004341046df30c5c43e1cb45fc3dab26af1bbea9d1262aba0dd6ecf5c82d9f07eef9a4b30c92a06cb24b2237bac1d1e9eeead49e313b71c3015560d7c6559e85a16da3b4ac00000000"
    }
  ]
}