{
  "hash": "00000000980ec95db6c9bb4d009162a2925e6de788ef63138baa99abbcaa82e7",
  "confirmations": 49183,
  "height": 3915,
  "version": 1,
  "versionHex": "00000001",
  "merkleroot": "94cd631df8f7413c5405c6e012d3890fc1cbf02d29c7414f3c6228ed72379252",
  "time": 1234382502,
  "mediantime": 1234377553,
  "nonce": 482802736,
  "bits": "1d00ffff",
  "difficulty": 1,
  "chainwork": "00000000000000000000000000000000000000000000000000000f4c0f4c0f4c",
  "nTx": 1,
  "previousblockhash": "0000000059860e1d8e432c12f0550fd881cc2bb2705295266276a62e8d1a9a89",
  "nextblockhash": "0000000014ecc942f416a118e91712e1280a73b00f669a6451fe5a91845e77d0",
  "strippedsize": 216,
  "size": 216,
  "weight": 864,
  "tx": [
    {
      "txid": "94cd631df8f7413c5405c6e012d3890fc1cbf02d29c7414f3c6228ed72379252",
      "hash": "94cd631df8f7413c5405c6e012d3890fc1cbf02d29c7414f3c6228ed72379252",
      "version": 1,
      "size": 135,
      "vsize": 135,
      "weight": 540,
      "locktime": 0,
      "vin": [
        {
          "coinbase": "04ffff001d021103",
          "sequence": 4294967295
        }
      ],
      "vout": [
        {
          "value": 50.0,
          "n": 0,
          "scriptPubKey": {
            "asm": "04a2ba2eff71d9448a5e2609b577763f00a559cc3690c12510eb4cd4554b765957ee8784675f811dd75c00651785b200a4aba5a2e14b3cf99b121235d4c555bfdc OP_CHECKSIG",
            "desc": "pk(04a2ba2eff71d9448a5e2609b577763f00a559cc3690c12510eb4cd4554b765957ee8784675f811dd75c00651785b200a4aba5a2e14b3cf99b121235d4c555bfdc)#cnhaj2u2",
            "hex": "4104a2ba2eff71d9448a5e2609b577763f00a559cc3690c12510eb4cd4554b765957ee8784675f811dd75c00651785b200a4aba5a2e14b3cf99b121235d4c555bfdcac",
            "type": "pubkey"
          }
        }
      ],
      "hex": "01000000010000000000000000000000000000000000000000000000000000000000000000ffffffff0804ffff001d021103ffffffff0100f2052a01000000434104a2ba2eff71d9448a5e2609b577763f00a559cc3690c12510eb4cd4554b765957ee8784675f811dd75c00651785b200a4aba5a2e14b3cf99b121235d4c555bfdcac00000000"
    }
  ]
}