{
  "hash": "00000000822d2e65cad013384fc0d73e8ab9fa39c5dcd3b6f16f6cfd46724bd9",
  "confirmations": 44488,
  "height": 8610,
  "version": 1,
  "versionHex": "00000001",
  "merkleroot": "71fa5f61932ec4b1d7103b66f543dae8e2e1b0a6732f592bcb609986f376cdae",
  "time": 1237956667,
  "mediantime": 1237953356,
  "nonce": 1298858519,
  "bits": "1d00ffff",
  "difficulty": 1,
  "chainwork": "000000000000000000000000000000000000000000000000000021a321a321a3",
  "nTx": 1,
  "previousblockhash": "0000000020bb707c700651de0154778daa43d211c910fa0553aa9dc360c3f513",
  "nextblockhash": "00000000a9375e4682c7639f8901b8bf8a31f9709a69209bd2fac63e62f1b270",
  "strippedsize": 216,
  "size": 216,
  "weight": 864,
  "tx": [
    {
      "txid": "71fa5f61932ec4b1d7103b66f543dae8e2e1b0a6732f592bcb609986f376cdae",
      "hash": "71fa5f61932ec4b1d7103b66f543dae8e2e1b0a6732f592bcb609986f376cdae",
      "version": 1,
      "size": 135,
      "vsize": 135,
      "weight": 540,
      "locktime": 0,
      "vin": [
        {
          "coinbase": "04ffff001d02a309",
          "sequence": 4294967295
        }
      ],
      "vout": [
        {
          "value": 50.0,
          "n": 0,
          "scriptPubKey": {
            "asm": "049442ed811b6b896454f01dfe3a9850551c1d5089be38c6ffe1c15e172b1372962c977216dac7d4e231a07cf1d6e031068290d495304751dda62f2c005922ac6a OP_CHECKSIG",
            "desc": "pk(049442ed811b6b896454f01dfe3a9850551c1d5089be38c6ffe1c15e172b1372962c977216dac7d4e231a07cf1d6e031068290d495304751dda62f2c005922ac6a)#aj277xe2",
            "hex": "41049442ed811b6b896454f01dfe3a9850551c1d5089be38c6ffe1c15e172b1372962c977216dac7d4e231a07cf1d6e031068290d495304751dda62f2c005922ac6aac",
            "type": "pubkey"
          }
        }
      ],
      "hex": "01000000010000000000000000000000000000000000000000000000000000000000000000ffffffff0804ffff001d02a309ffffffff0100f2052a010000004341049442ed811b6b896454f01dfe3a9850551c1d5089be38c6ffe1c15e172b1372962c977216dac7d4e231a07cf1d6e031068290d495304751dda62f2c005922ac6aac00000000"
    }
  ]
}