{
  "hash": "00000000c6cb8dd2ab0f9a04b67feb0a177f88d427ca780a945a4954c54fd4e7",
  "confirmations": 50107,
  "height": 2991,
  "version": 1,
  "versionHex": "00000001",
  "merkleroot": "d0b740435fcadb7fc01c2d411469fcf0ddd513ce49acb394685d047a3057bded",
  "time": 1233754777,
  "mediantime": 1233752104,
  "nonce": 646408726,
  "bits": "1d00ffff",
  "difficulty": 1,
  "chainwork": "00000000000000000000000000000000000000000000000000000bb00bb00bb0",
  "nTx": 1,
  "previousblockhash": "0000000029a7476b452e3cbb70b34d2166b718d5934ecc69417047f035f6b268",
  "nextblockhash": "000000003ea8aead70be315fd1ff49ebb4a752fca9d0a4b54e52ef1f8df30f87",
  "strippedsize": 216,
  "size": 216,
  "weight": 864,
  "tx": [
    {
      "txid": "d0b740435fcadb7fc01c2d411469fcf0ddd513ce49acb394685d047a3057bded",
      "hash": "d0b740435fcadb7fc01c2d411469fcf0ddd513ce49acb394685d047a3057bded",
      "version": 1,
      "size": 135,
      "vsize": 135,
      "weight": 540,
      "locktime": 0,
      "vin": [
        {
          "coinbase": "04ffff001d023f01",
          "sequence": 4294967295
        }
      ],
      "vout": [
        {
          "value": 50.0,
          "n": 0,
          "scriptPubKey": {
            "asm": "04b3f86b715d7c440c4d5fd3215965cb1f6b1ad0cec7581435d09331793fc4c984c9265b2596e200512926278e54439cedd3cdaaba21b70db2f74ab376c05f58b8 OP_CHECKSIG",
            "desc": "pk(04b3f86b715d7c440c4d5fd3215965cb1f6b1ad0cec7581435d09331793fc4c984c9265b2596e200512926278e54439cedd3cdaaba21b70db2f74ab376c05f58b8)#kxccvrj9",
            "hex": "4104b3f86b715d7c440c4d5fd3215965cb1f6b1ad0cec7581435d09331793fc4c984c9265b2596e200512926278e54439cedd3cdaaba21b70db2f74ab376c05f58b8ac",
            "type": "pubkey"
          }
        }
      ],
      "hex": "01000000010000000000000000000000000000000000000000000000000000000000000000ffffffff0804ffff001d023f01ffffffff0100f2052a01000000434104b3f86b715d7c440c4d5fd3215965cb1f6b1ad0cec7581435d09331793fc4c984c9265b2596e200512926278e54439cedd3cdaaba21b70db2f74ab376c05f58b8ac00000000"
    }
  ]
}