{
  "hash": "0000000025f15576bf5734fa2e6b93a00593a969955f210aeae10c7f0733b81b",
  "confirmations": 52049,
  "height": 287,
  "version": 1,
  "versionHex": "00000001",
  "merkleroot": "8e760e3250339c2d14c064082e6d5e968d1d8ce356d40156a965d2790db3b3b2",
  "time": 1231822967,
  "mediantime": 1231818395,
  "nonce": 2239573784,
  "bits": "1d00ffff",
  "difficulty": 1,
  "chainwork": "0000000000000000000000000000000000000000000000000000012001200120",
  "nTx": 1,
  "previousblockhash": "00000000bad3f4791d4984e041ec55acf6f7b38a63b220b33f703ec2f6af049a",
  "nextblockhash": "00000000dc16c2db339f647ab31cad9d5639ba064272083debddebd2dcfb44ef",
  "strippedsize": 215,
  "size": 215,
  "weight": 860,
  "tx": [
    {
      "txid": "8e760e3250339c2d14c064082e6d5e968d1d8ce356d40156a965d2790db3b3b2",
      "hash": "8e760e3250339c2d14c064082e6d5e968d1d8ce356d40156a965d2790db3b3b2",
      "version": 1,
      "size": 134,
      "vsize": 134,
      "weight": 536,
      "locktime": 0,
      "vin": [
        {
          "coinbase": "04ffff001d013b",
          "sequence": 4294967295
        }
      ],
      "vout": [
        {
          "value": 50.0,
          "n": 0,
          "scriptPubKey": {
            "asm": "042511baf88708c08fe9afdd74fe0cf3db8c20e8ddc73f3e1c4105d45f71d3249609d934c6afe7d07050591604084ab3ada44b337dc5a3f97f877b6aa37458da6a OP_CHECKSIG",
            "desc": "pk(042511baf88708c08fe9afdd74fe0cf3db8c20e8ddc73f3e1c4105d45f71d3249609d934c6afe7d07050591604084ab3ada44b337dc5a3f97f877b6aa37458da6a)#c9qzrg0w",
            "hex": "41042511baf88708c08fe9afdd74fe0cf3db8c20e8ddc73f3e1c4105d45f71d3249609d934c6afe7d07050591604084ab3ada44b337dc5a3f97f877b6aa37458da6aac",
            "type": "pubkey"
          }
        }
      ],
      "hex": "01000000010000000000000000000000000000000000000000000000000000000000000000ffffffff0704ffff001d013bffffffff0100f2052a010000004341042511baf88708c08fe9afdd74fe0cf3db8c20e8ddc73f3e1c4105d45f71d3249609d934c6afe7d07050591604084ab3ada44b337dc5a3f97f877b6aa37458da6aac00000000"
    }
  ]
}