{
  "hash": "00000000f9ba9d049dd3925b4e7a5e19a80a29fcc8b74897b82c5a517323a25e",
  "confirmations": 43518,
  "height": 9580,
  "version": 1,
  "versionHex": "00000001",
  "merkleroot": "8a3cb357e944778ba0b35042b21ed69f3bc10d6b7730c4436dea010232bdc14a",
  "time": 1238684730,
  "mediantime": 1238681628,
  "nonce": 2101829432,
  "bits": "1d00ffff",
  "difficulty": 1,
  "chainwork": "0000000000000000000000000000000000000000000000000000256d256d256d",
  "nTx": 1,
  "previousblockhash": "00000000de074c075b37c998d32df666bf1a5b57c3a51a70e93af75f6e64d6cc",
  "nextblockhash": "0000000002aedc1b39bb1d25095100c193813b5344d79273347089259468ece0",
  "strippedsize": 216,
  "size": 216,
  "weight": 864,
  "tx": [
    {
      "txid": "8a3cb357e944778ba0b35042b21ed69f3bc10d6b7730c4436dea010232bdc14a",
      "hash": "8a3cb357e944778ba0b35042b21ed69f3bc10d6b7730c4436dea010232bdc14a",
      "version": 1,
      "size": 135,
      "vsize": 135,
      "weight": 540,
      "locktime": 0,
      "vin": [
        {
          "coinbase": "04ffff001d02a606",
          "sequence": 4294967295
        }
      ],
      "vout": [
        {
          "value": 50.0,
          "n": 0,
          "scriptPubKey": {
            "asm": "0458546de9f3f6b178003a98777dbbdf618e92fe205b69158c2f038012d689375b5b6fcb70c5e8594e990f8ddf5f0f8bf82306272f672444c2ce80435f123c6ad2 OP_CHECKSIG",
            "desc": "pk(0458546de9f3f6b178003a98777dbbdf618e92fe205b69158c2f038012d689375b5b6fcb70c5e8594e990f8ddf5f0f8bf82306272f672444c2ce80435f123c6ad2)#43t739sf",
            "hex": "410458546de9f3f6b178003a98777dbbdf618e92fe205b69158c2f038012d689375b5b6fcb70c5e8594e990f8ddf5f0f8bf82306272f672444c2ce80435f123c6ad2ac",
            "type": "pubkey"
          }
        }
      ],
      "hex": "01000000010000000000000000000000000000000000000000000000000000000000000000ffffffff0804ffff001d02a606ffffffff0100f2052a0100000043410458546de9f3f6b178003a98777dbbdf618e92fe205b69158c2f038012d689375b5b6fcb70c5e8594e990f8ddf5f0f8bf82306272f672444c2ce80435f123c6ad2ac00000000"
    }
  ]
}