{
  "hash": "000000003093404f242deed7393adda6cef961644debc2cf14d2a2bf8759bd1d",
  "confirmations": 44087,
  "height": 9011,
  "version": 1,
  "versionHex": "00000001",
  "merkleroot": "4d606f1c2ea768991e5301dba97fdb2a38c80f90f25b19d8042df658c6a4339d",
  "time": 1238258740,
  "mediantime": 1238256409,
  "nonce": 1174654506,
  "bits": "1d00ffff",
  "difficulty": 1,
  "chainwork": "0000000000000000000000000000000000000000000000000000233423342334",
  "nTx": 1,
  "previousblockhash": "00000000dfe0e38f6081da0a6de538fe8643cd25cb7c350e7cf1ce42dda179fe",
  "nextblockhash": "000000004c6fa7aa02a1f50d51b599a8c40efa663dbc45f092d4ec35a469f823",
  "strippedsize": 216,
  "size": 216,
  "weight": 864,
  "tx": [
    {
      "txid": "4d606f1c2ea768991e5301dba97fdb2a38c80f90f25b19d8042df658c6a4339d",
      "hash": "4d606f1c2ea768991e5301dba97fdb2a38c80f90f25b19d8042df658c6a4339d",
      "version": 1,
      "size": 135,
      "vsize": 135,
      "weight": 540,
      "locktime": 0,
      "vin": [
        {
          "coinbase": "04ffff001d029406",
          "sequence": 4294967295
        }
      ],
      "vout": [
        {
          "value": 50.0,
          "n": 0,
          "scriptPubKey": {
            "asm": "044bb17789402a538ba3ea9fde74487f26190ab115801164d1dab4d0cc976daa93bd8c24546bf444357004a21416da8ebc33d906bd2c119db2996a2bd8b8bdfe2d OP_CHECKSIG",
            "desc": "pk(044bb17789402a538ba3ea9fde74487f26190ab115801164d1dab4d0cc976daa93bd8c24546bf444357004a21416da8ebc33d906bd2c119db2996a2bd8b8bdfe2d)#5ju5f5sr",
            "hex": "41044bb17789402a538ba3ea9fde74487f26190ab115801164d1dab4d0cc976daa93bd8c24546bf444357004a21416da8ebc33d906bd2c119db2996a2bd8b8bdfe2dac",
            "type": "pubkey"
          }
        }
      ],
      "hex": "01000000010000000000000000000000000000000000000000000000000000000000000000ffffffff0804ffff001d029406ffffffff0100f2052a010000004341044bb17789402a538ba3ea9fde74487f26190ab115801164d1dab4d0cc976daa93bd8c24546bf444357004a21416da8ebc33d906bd2c119db2996a2bd8b8bdfe2dac00000000"
    }
  ]
}