{
  "hash": "000000009491cb21761959d228b175416333b66d557d8391214607a7e1cec045",
  "confirmations": 43685,
  "height": 9413,
  "version": 1,
  "versionHex": "00000001",
  "merkleroot": "0e33ec86201f7a3ee5434194b4a721e2832fb52088ac8c5259d979770f6d3b91",
  "time": 1238563307,
  "mediantime": 1238560229,
  "nonce": 600474155,
  "bits": "1d00ffff",
  "difficulty": 1,
  "chainwork": "000000000000000000000000000000000000000000000000000024c624c624c6",
  "nTx": 1,
  "previousblockhash": "0000000008ebdc73be1bdf161f7e73a75f1fd3a8d2cad1ab83b8387ff902350b",
  "nextblockhash": "000000000544b4c67b17b7e08038569f6fe70496e6ddab51eb044caef1597331",
  "strippedsize": 216,
  "size": 216,
  "weight": 864,
  "tx": [
    {
      "txid": "0e33ec86201f7a3ee5434194b4a721e2832fb52088ac8c5259d979770f6d3b91",
      "hash": "0e33ec86201f7a3ee5434194b4a721e2832fb52088ac8c5259d979770f6d3b91",
      "version": 1,
      "size": 135,
      "vsize": 135,
      "weight": 540,
      "locktime": 0,
      "vin": [
        {
          "coinbase": "04ffff001d02e003",
          "sequence": 4294967295
        }
      ],
      "vout": [
        {
          "value": 50.0,
          "n": 0,
          "scriptPubKey": {
            "asm": "043395d0353982675af975a36204be0eafdc4f47db020d4c8ab0111a8b408a17b6e50f06cae1b66f4beb4e9f6af5eb1a6ae93d6e5983b86db518ae4458b822f8f4 OP_CHECKSIG",
            "desc": "pk(043395d0353982675af975a36204be0eafdc4f47db020d4c8ab0111a8b408a17b6e50f06cae1b66f4beb4e9f6af5eb1a6ae93d6e5983b86db518ae4458b822f8f4)#dd0kgp8m",
            "hex": "41043395d0353982675af975a36204be0eafdc4f47db020d4c8ab0111a8b408a17b6e50f06cae1b66f4beb4e9f6af5eb1a6ae93d6e5983b86db518ae4458b822f8f4ac",
            "type": "pubkey"
          }
        }
      ],
      "hex": "01000000010000000000000000000000000000000000000000000000000000000000000000ffffffff0804ffff001d02e003ffffffff0100f2052a010000004341043395d0353982675af975a36204be0eafdc4f47db020d4c8ab0111a8b408a17b6e50f06cae1b66f4beb4e9f6af5eb1a6ae93d6e5983b86db518ae4458b822f8f4ac00000000"
    }
  ]
}