{
  "hash": "0000000088afa4b823451c4f99727ceab87c8bd57c05712d5530d54170765779",
  "confirmations": 48311,
  "height": 4787,
  "version": 1,
  "versionHex": "00000001",
  "merkleroot": "c2b8ad639ce4c0f2fc12e6339a826c996328a765c9431540f46eb9a3012026cf",
  "time": 1234989009,
  "mediantime": 1234983505,
  "nonce": 3772673285,
  "bits": "1d00ffff",
  "difficulty": 1,
  "chainwork": "000000000000000000000000000000000000000000000000000012b412b412b4",
  "nTx": 1,
  "previousblockhash": "0000000083a705d8aaac782aac89a162a04b5f2f50c7d7d48656405b48c40579",
  "nextblockhash": "000000008cf74765b186b965c54e3151941d52cafe1d01eb0350ded9bc9b9ccd",
  "strippedsize": 216,
  "size": 216,
  "weight": 864,
  "tx": [
    {
      "txid": "c2b8ad639ce4c0f2fc12e6339a826c996328a765c9431540f46eb9a3012026cf",
      "hash": "c2b8ad639ce4c0f2fc12e6339a826c996328a765c9431540f46eb9a3012026cf",
      "version": 1,
      "size": 135,
      "vsize": 135,
      "weight": 540,
      "locktime": 0,
      "vin": [
        {
          "coinbase": "04ffff001d02f703",
          "sequence": 4294967295
        }
      ],
      "vout": [
        {
          "value": 50.0,
          "n": 0,
          "scriptPubKey": {
            "asm": "0452266ae693cb548aaa09693410dafdd0467e25eb969b1f44af4938ff475e1d00c0e97c2f2d5545a3d7a611d3a0095aecb681bd9cafdfe60b40f8c77d042415a1 OP_CHECKSIG",
            "desc": "pk(0452266ae693cb548aaa09693410dafdd0467e25eb969b1f44af4938ff475e1d00c0e97c2f2d5545a3d7a611d3a0095aecb681bd9cafdfe60b40f8c77d042415a1)#rscew4h2",
            "hex": "410452266ae693cb548aaa09693410dafdd0467e25eb969b1f44af4938ff475e1d00c0e97c2f2d5545a3d7a611d3a0095aecb681bd9cafdfe60b40f8c77d042415a1ac",
            "type": "pubkey"
          }
        }
      ],
      "hex": "01000000010000000000000000000000000000000000000000000000000000000000000000ffffffff0804ffff001d02f703ffffffff0100f2052a0100000043410452266ae693cb548aaa09693410dafdd0467e25eb969b1f44af4938ff475e1d00c0e97c2f2d5545a3d7a611d3a0095aecb681bd9cafdfe60b40f8c77d042415a1ac00000000"
    }
  ]
}