{
  "hash": "000000005b30f48ef450de8ebdb8829a931e8cd86e2f11f48f381c61c845379b",
  "confirmations": 52515,
  "height": 583,
  "version": 1,
  "versionHex": "00000001",
  "merkleroot": "7bac4421dd77a9bc5801c8b6dff3525a7f6b0e518ffd0509fe90d40ae8893d31",
  "time": 1232026445,
  "mediantime": 1232022521,
  "nonce": 2708415027,
  "bits": "1d00ffff",
  "difficulty": 1,
  "chainwork": "0000000000000000000000000000000000000000000000000000024802480248",
  "nTx": 1,
  "previousblockhash": "000000000568dd391b3261d51ad4fcb68db5539200a15acc5bd6ece8b218601b",
  "nextblockhash": "00000000d3d4c3b9014bd51bd891d1161d7ead2dbe8597561eb17b1b9c6465c3",
  "strippedsize": 216,
  "size": 216,
  "weight": 864,
  "tx": [
    {
      "txid": "7bac4421dd77a9bc5801c8b6dff3525a7f6b0e518ffd0509fe90d40ae8893d31",
      "hash": "7bac4421dd77a9bc5801c8b6dff3525a7f6b0e518ffd0509fe90d40ae8893d31",
      "version": 1,
      "size": 135,
      "vsize": 135,
      "weight": 540,
      "locktime": 0,
      "vin": [
        {
          "coinbase": "04ffff001d024606",
          "sequence": 4294967295
        }
      ],
      "vout": [
        {
          "value": 50.0,
          "n": 0,
          "scriptPubKey": {
            "asm": "046a15b914a3a6ca59a3de89e1c42eff542728d737b4255fd18e8a3992a1b1783c8a4ec656c12bce0e41584afffb8a7712dd9131305c788ce6f0cdbe0c12e05ed0 OP_CHECKSIG",
            "desc": "pk(046a15b914a3a6ca59a3de89e1c42eff542728d737b4255fd18e8a3992a1b1783c8a4ec656c12bce0e41584afffb8a7712dd9131305c788ce6f0cdbe0c12e05ed0)#fj5nry93",
            "hex": "41046a15b914a3a6ca59a3de89e1c42eff542728d737b4255fd18e8a3992a1b1783c8a4ec656c12bce0e41584afffb8a7712dd9131305c788ce6f0cdbe0c12e05ed0ac",
            "type": "pubkey"
          }
        }
      ],
      "hex": "01000000010000000000000000000000000000000000000000000000000000000000000000ffffffff0804ffff001d024606ffffffff0100f2052a010000004341046a15b914a3a6ca59a3de89e1c42eff542728d737b4255fd18e8a3992a1b1783c8a4ec656c12bce0e41584afffb8a7712dd9131305c788ce6f0cdbe0c12e05ed0ac00000000"
    }
  ]
}