{
  "hash": "00000000907772f1d0fcbbedede3847b42264045c31e723ce050fb0a1d926a35",
  "confirmations": 47135,
  "height": 5963,
  "version": 1,
  "versionHex": "00000001",
  "merkleroot": "9fe100e3a5ec4456fcd148ac7596501c67d36b3ca2dfa5dc879328467f66641c",
  "time": 1235898554,
  "mediantime": 1235894723,
  "nonce": 424455202,
  "bits": "1d00ffff",
  "difficulty": 1,
  "chainwork": "0000000000000000000000000000000000000000000000000000174c174c174c",
  "nTx": 1,
  "previousblockhash": "0000000007c7bba9a86bdfe0f613b76a521e7af8960a348ec401fb6a0ce1a0f3",
  "nextblockhash": "0000000089be5fa6d7834ec3560612fdb66ad1553d0971858d6ead8985ab88b6",
  "strippedsize": 216,
  "size": 216,
  "weight": 864,
  "tx": [
    {
      "txid": "9fe100e3a5ec4456fcd148ac7596501c67d36b3ca2dfa5dc879328467f66641c",
      "hash": "9fe100e3a5ec4456fcd148ac7596501c67d36b3ca2dfa5dc879328467f66641c",
      "version": 1,
      "size": 135,
      "vsize": 135,
      "weight": 540,
      "locktime": 0,
      "vin": [
        {
          "coinbase": "04ffff001d023e04",
          "sequence": 4294967295
        }
      ],
      "vout": [
        {
          "value": 50.0,
          "n": 0,
          "scriptPubKey": {
            "asm": "04150dba4651afd90bf8a776127ebcace1e1a3e001e8c5cde1038250dc42512735b85c3b08fbeca7dac0f2ad69f68227c31d3b190affcf8ab6302e1ae3bf257682 OP_CHECKSIG",
            "desc": "pk(04150dba4651afd90bf8a776127ebcace1e1a3e001e8c5cde1038250dc42512735b85c3b08fbeca7dac0f2ad69f68227c31d3b190affcf8ab6302e1ae3bf257682)#lethnm8h",
            "hex": "4104150dba4651afd90bf8a776127ebcace1e1a3e001e8c5cde1038250dc42512735b85c3b08fbeca7dac0f2ad69f68227c31d3b190affcf8ab6302e1ae3bf257682ac",
            "type": "pubkey"
          }
        }
      ],
      "hex": "01000000010000000000000000000000000000000000000000000000000000000000000000ffffffff0804ffff001d023e04ffffffff0100f2052a01000000434104150dba4651afd90bf8a776127ebcace1e1a3e001e8c5cde1038250dc42512735b85c3b08fbeca7dac0f2ad69f68227c31d3b190affcf8ab6302e1ae3bf257682ac00000000"
    }
  ]
}