{
  "hash": "0000000055f58d3e2bdbecad9ac3923b2043eaa3b26e4906e5a1d3cd8b9676d6",
  "confirmations": 46946,
  "height": 6152,
  "version": 1,
  "versionHex": "00000001",
  "merkleroot": "b8099ef5a2a3ecca2df4158f6699df533084dd601dc5f349110b25806d91f8eb",
  "time": 1236050028,
  "mediantime": 1236046596,
  "nonce": 50796080,
  "bits": "1d00ffff",
  "difficulty": 1,
  "chainwork": "0000000000000000000000000000000000000000000000000000180918091809",
  "nTx": 1,
  "previousblockhash": "000000008ad1eabd35cf1c4bf69dbfa3adb92b2ceb663458b1b06ceee7dacca8",
  "nextblockhash": "00000000cd03d80e5f2fe3002af88e73962be352356718937edb676e3bf19396",
  "strippedsize": 216,
  "size": 216,
  "weight": 864,
  "tx": [
    {
      "txid": "b8099ef5a2a3ecca2df4158f6699df533084dd601dc5f349110b25806d91f8eb",
      "hash": "b8099ef5a2a3ecca2df4158f6699df533084dd601dc5f349110b25806d91f8eb",
      "version": 1,
      "size": 135,
      "vsize": 135,
      "weight": 540,
      "locktime": 0,
      "vin": [
        {
          "coinbase": "04ffff001d02b207",
          "sequence": 4294967295
        }
      ],
      "vout": [
        {
          "value": 50.0,
          "n": 0,
          "scriptPubKey": {
            "asm": "04dc5459d38822048c69f7e3e89c34943d5bb4905df974f7034c86657d25e48fecb25ef208c0d81f44c2021ca238e6be22eea1422d54c3b7582686d491600e9fbf OP_CHECKSIG",
            "desc": "pk(04dc5459d38822048c69f7e3e89c34943d5bb4905df974f7034c86657d25e48fecb25ef208c0d81f44c2021ca238e6be22eea1422d54c3b7582686d491600e9fbf)#3lx3chlv",
            "hex": "4104dc5459d38822048c69f7e3e89c34943d5bb4905df974f7034c86657d25e48fecb25ef208c0d81f44c2021ca238e6be22eea1422d54c3b7582686d491600e9fbfac",
            "type": "pubkey"
          }
        }
      ],
      "hex": "01000000010000000000000000000000000000000000000000000000000000000000000000ffffffff0804ffff001d02b207ffffffff0100f2052a01000000434104dc5459d38822048c69f7e3e89c34943d5bb4905df974f7034c86657d25e48fecb25ef208c0d81f44c2021ca238e6be22eea1422d54c3b7582686d491600e9fbfac00000000"
    }
  ]
}