{
  "hash": "0000000062775645272a8d8785577c8f237fd83a07de643c775d7f9f27de48ee",
  "confirmations": 52056,
  "height": 1042,
  "version": 1,
  "versionHex": "00000001",
  "merkleroot": "4bee1bc9e43089cdf9e4b96448949904bdd6eb6c8415ca1c6401fd6edf9c8c80",
  "time": 1232380348,
  "mediantime": 1232376733,
  "nonce": 19684159,
  "bits": "1d00ffff",
  "difficulty": 1,
  "chainwork": "0000000000000000000000000000000000000000000000000000041304130413",
  "nTx": 1,
  "previousblockhash": "00000000a1c2ef7c9653c9d46ed4ec06407f052b88d7599c4ccb04d758f8bc1f",
  "nextblockhash": "0000000060e2f2653b379638732f7624de0e7c66f604ed2e62de6033f007a2d3",
  "strippedsize": 216,
  "size": 216,
  "weight": 864,
  "tx": [
    {
      "txid": "4bee1bc9e43089cdf9e4b96448949904bdd6eb6c8415ca1c6401fd6edf9c8c80",
      "hash": "4bee1bc9e43089cdf9e4b96448949904bdd6eb6c8415ca1c6401fd6edf9c8c80",
      "version": 1,
      "size": 135,
      "vsize": 135,
      "weight": 540,
      "locktime": 0,
      "vin": [
        {
          "coinbase": "04ffff001d028601",
          "sequence": 4294967295
        }
      ],
      "vout": [
        {
          "value": 50.0,
          "n": 0,
          "scriptPubKey": {
            "asm": "04008209b6d4bc44c088d4b902be2f89d47146a6875fad8ac6a53ac56ee3a0b4a915311a1cfbeacca4cdd828f7382a7883b8296d17aafd3d8068caddace7dce773 OP_CHECKSIG",
            "desc": "pk(04008209b6d4bc44c088d4b902be2f89d47146a6875fad8ac6a53ac56ee3a0b4a915311a1cfbeacca4cdd828f7382a7883b8296d17aafd3d8068caddace7dce773)#7jl3hwn7",
            "hex": "4104008209b6d4bc44c088d4b902be2f89d47146a6875fad8ac6a53ac56ee3a0b4a915311a1cfbeacca4cdd828f7382a7883b8296d17aafd3d8068caddace7dce773ac",
            "type": "pubkey"
          }
        }
      ],
      "hex": "01000000010000000000000000000000000000000000000000000000000000000000000000ffffffff0804ffff001d028601ffffffff0100f2052a01000000434104008209b6d4bc44c088d4b902be2f89d47146a6875fad8ac6a53ac56ee3a0b4a915311a1cfbeacca4cdd828f7382a7883b8296d17aafd3d8068caddace7dce773ac00000000"
    }
  ]
}