{
  "hash": "0000000011bcb964387316b6ce0b1942980c0a14b7ad3220acc1fe407bb44e71",
  "confirmations": 46853,
  "height": 6245,
  "version": 1,
  "versionHex": "00000001",
  "merkleroot": "8f88f5cc1182e1d09fded38f010f2fa81f0880cb51e8e3b75ac56774cc21522c",
  "time": 1236128034,
  "mediantime": 1236123672,
  "nonce": 1185865747,
  "bits": "1d00ffff",
  "difficulty": 1,
  "chainwork": "0000000000000000000000000000000000000000000000000000186618661866",
  "nTx": 1,
  "previousblockhash": "00000000d5b191939be02a3657d5c784bd713d3389602765791989ba9cde529b",
  "nextblockhash": "0000000061a39096a7d96eefd98961e4c82fc750e9a5ebef9fdcb8706f6ed828",
  "strippedsize": 216,
  "size": 216,
  "weight": 864,
  "tx": [
    {
      "txid": "8f88f5cc1182e1d09fded38f010f2fa81f0880cb51e8e3b75ac56774cc21522c",
      "hash": "8f88f5cc1182e1d09fded38f010f2fa81f0880cb51e8e3b75ac56774cc21522c",
      "version": 1,
      "size": 135,
      "vsize": 135,
      "weight": 540,
      "locktime": 0,
      "vin": [
        {
          "coinbase": "04ffff001d026e09",
          "sequence": 4294967295
        }
      ],
      "vout": [
        {
          "value": 50.0,
          "n": 0,
          "scriptPubKey": {
            "asm": "04f53eecaf077b27c0fa460f13b346aa114171a69f916e5545f9b576bbf4419d9718f478dce721df9e849df4c370c95505b68550e9ea44fec6b43d78beeccb6223 OP_CHECKSIG",
            "desc": "pk(04f53eecaf077b27c0fa460f13b346aa114171a69f916e5545f9b576bbf4419d9718f478dce721df9e849df4c370c95505b68550e9ea44fec6b43d78beeccb6223)#xvu67gaw",
            "hex": "4104f53eecaf077b27c0fa460f13b346aa114171a69f916e5545f9b576bbf4419d9718f478dce721df9e849df4c370c95505b68550e9ea44fec6b43d78beeccb6223ac",
            "type": "pubkey"
          }
        }
      ],
      "hex": "01000000010000000000000000000000000000000000000000000000000000000000000000ffffffff0804ffff001d026e09ffffffff0100f2052a01000000434104f53eecaf077b27c0fa460f13b346aa114171a69f916e5545f9b576bbf4419d9718f478dce721df9e849df4c370c95505b68550e9ea44fec6b43d78beeccb6223ac00000000"
    }
  ]
}