{
  "hash": "00000000d0e19bba017fb2e4f9250ccfde58f0be055b46b0fa4ed8f6b52b871f",
  "confirmations": 47894,
  "height": 5204,
  "version": 1,
  "versionHex": "00000001",
  "merkleroot": "b8f7823eb7caab9fb79e2691f1ed188a93bb2148bf4db0ad29a7741e18503ce7",
  "time": 1235289074,
  "mediantime": 1235287378,
  "nonce": 2042309924,
  "bits": "1d00ffff",
  "difficulty": 1,
  "chainwork": "0000000000000000000000000000000000000000000000000000145514551455",
  "nTx": 1,
  "previousblockhash": "00000000cca557c753f23c8402cbce795b4cb399e94142b429ff16a7d2cca758",
  "nextblockhash": "00000000faacf44cdaa8799c463453703e5853e87178da6f6da4c547e58d7015",
  "strippedsize": 216,
  "size": 216,
  "weight": 864,
  "tx": [
    {
      "txid": "b8f7823eb7caab9fb79e2691f1ed188a93bb2148bf4db0ad29a7741e18503ce7",
      "hash": "b8f7823eb7caab9fb79e2691f1ed188a93bb2148bf4db0ad29a7741e18503ce7",
      "version": 1,
      "size": 135,
      "vsize": 135,
      "weight": 540,
      "locktime": 0,
      "vin": [
        {
          "coinbase": "04ffff001d02a800",
          "sequence": 4294967295
        }
      ],
      "vout": [
        {
          "value": 50.0,
          "n": 0,
          "scriptPubKey": {
            "asm": "047ec59b73b5f23f2fce9dc55d35dbddef00470a0d30bceacdb6bec13ef18468e4dbe92506edd4595ed3bd040c00640a1b5d0ce640fe17714464bbba974964bcfb OP_CHECKSIG",
            "desc": "pk(047ec59b73b5f23f2fce9dc55d35dbddef00470a0d30bceacdb6bec13ef18468e4dbe92506edd4595ed3bd040c00640a1b5d0ce640fe17714464bbba974964bcfb)#2h024k2l",
            "hex": "41047ec59b73b5f23f2fce9dc55d35dbddef00470a0d30bceacdb6bec13ef18468e4dbe92506edd4595ed3bd040c00640a1b5d0ce640fe17714464bbba974964bcfbac",
            "type": "pubkey"
          }
        }
      ],
      "hex": "01000000010000000000000000000000000000000000000000000000000000000000000000ffffffff0804ffff001d02a800ffffffff0100f2052a010000004341047ec59b73b5f23f2fce9dc55d35dbddef00470a0d30bceacdb6bec13ef18468e4dbe92506edd4595ed3bd040c00640a1b5d0ce640fe17714464bbba974964bcfbac00000000"
    }
  ]
}