{
  "hash": "000000007030a61ba73a6c9e66c84956b9817f5487edd52d2eccc02374e048d9",
  "confirmations": 50585,
  "height": 2513,
  "version": 1,
  "versionHex": "00000001",
  "merkleroot": "7dd16c9f1ba72faa83f0b82df530d901abe45a578bfe6b88d8d5803da86888cd",
  "time": 1233427047,
  "mediantime": 1233424184,
  "nonce": 1208689,
  "bits": "1d00ffff",
  "difficulty": 1,
  "chainwork": "000000000000000000000000000000000000000000000000000009d209d209d2",
  "nTx": 1,
  "previousblockhash": "0000000045218b32eb3717ef96608c1abe156546fe156a5d4eb1a0300f5f523b",
  "nextblockhash": "000000002cb941cf510cbda749caefc7b511680a7bba47ef49b7d8d470cea8b6",
  "strippedsize": 215,
  "size": 215,
  "weight": 860,
  "tx": [
    {
      "txid": "7dd16c9f1ba72faa83f0b82df530d901abe45a578bfe6b88d8d5803da86888cd",
      "hash": "7dd16c9f1ba72faa83f0b82df530d901abe45a578bfe6b88d8d5803da86888cd",
      "version": 1,
      "size": 134,
      "vsize": 134,
      "weight": 536,
      "locktime": 0,
      "vin": [
        {
          "coinbase": "04ffff001d0116",
          "sequence": 4294967295
        }
      ],
      "vout": [
        {
          "value": 50.0,
          "n": 0,
          "scriptPubKey": {
            "asm": "046af90a47cbf051721c589e94712691e497f2817a6888cea73150a7ab63919ba34303fae85c8ec5ef86b32e98c039753a079d89dcf346d9ce21f714b743254484 OP_CHECKSIG",
            "desc": "pk(046af90a47cbf051721c589e94712691e497f2817a6888cea73150a7ab63919ba34303fae85c8ec5ef86b32e98c039753a079d89dcf346d9ce21f714b743254484)#q0ljn68u",
            "hex": "41046af90a47cbf051721c589e94712691e497f2817a6888cea73150a7ab63919ba34303fae85c8ec5ef86b32e98c039753a079d89dcf346d9ce21f714b743254484ac",
            "type": "pubkey"
          }
        }
      ],
      "hex": "01000000010000000000000000000000000000000000000000000000000000000000000000ffffffff0704ffff001d0116ffffffff0100f2052a010000004341046af90a47cbf051721c589e94712691e497f2817a6888cea73150a7ab63919ba34303fae85c8ec5ef86b32e98c039753a079d89dcf346d9ce21f714b743254484ac00000000"
    }
  ]
}