{
  "hash": "00000000f7e47202ba95186d565b3484fe1db2b83183160a285f4da8ae9b76c4",
  "confirmations": 52359,
  "height": 739,
  "version": 1,
  "versionHex": "00000001",
  "merkleroot": "06c465c460692fe059efe40671863885785ea3907704af2b8d893ba5aefd157f",
  "time": 1232141054,
  "mediantime": 1232137444,
  "nonce": 66787542,
  "bits": "1d00ffff",
  "difficulty": 1,
  "chainwork": "000000000000000000000000000000000000000000000000000002e402e402e4",
  "nTx": 1,
  "previousblockhash": "000000000ec2bace2282d8d1e69b9d9371a6dea1665460e74fee9f05a6c8cefc",
  "nextblockhash": "00000000c39060871c6665d8307228083949ced6652605b764b2ffd52bac8d7d",
  "strippedsize": 215,
  "size": 215,
  "weight": 860,
  "tx": [
    {
      "txid": "06c465c460692fe059efe40671863885785ea3907704af2b8d893ba5aefd157f",
      "hash": "06c465c460692fe059efe40671863885785ea3907704af2b8d893ba5aefd157f",
      "version": 1,
      "size": 134,
      "vsize": 134,
      "weight": 536,
      "locktime": 0,
      "vin": [
        {
          "coinbase": "04ffff001d0121",
          "sequence": 4294967295
        }
      ],
      "vout": [
        {
          "value": 50.0,
          "n": 0,
          "scriptPubKey": {
            "asm": "04baf1c46bb55fbde9f19ec9748298a4ccab843ae8fe6455ef442ed9293f66477e2b77ea462b38eceae1c21c756f63477b5ca142138929fe5d70c945d38e75fa8c OP_CHECKSIG",
            "desc": "pk(04baf1c46bb55fbde9f19ec9748298a4ccab843ae8fe6455ef442ed9293f66477e2b77ea462b38eceae1c21c756f63477b5ca142138929fe5d70c945d38e75fa8c)#9z8nlmkj",
            "hex": "4104baf1c46bb55fbde9f19ec9748298a4ccab843ae8fe6455ef442ed9293f66477e2b77ea462b38eceae1c21c756f63477b5ca142138929fe5d70c945d38e75fa8cac",
            "type": "pubkey"
          }
        }
      ],
      "hex": "01000000010000000000000000000000000000000000000000000000000000000000000000ffffffff0704ffff001d0121ffffffff0100f2052a01000000434104baf1c46bb55fbde9f19ec9748298a4ccab843ae8fe6455ef442ed9293f66477e2b77ea462b38eceae1c21c756f63477b5ca142138929fe5d70c945d38e75fa8cac00000000"
    }
  ]
}