{
  "hash": "0000000085dc21acb05334554ee42d3564a9131b589511bb261f026fa99822d2",
  "confirmations": 52341,
  "height": 757,
  "version": 1,
  "versionHex": "00000001",
  "merkleroot": "20e5895b437c56b1c42f34fc1a2a280dd9a4b339b3ee1b89ec87d3e2cb3ec1d8",
  "time": 1232156739,
  "mediantime": 1232153225,
  "nonce": 50142027,
  "bits": "1d00ffff",
  "difficulty": 1,
  "chainwork": "000000000000000000000000000000000000000000000000000002f602f602f6",
  "nTx": 1,
  "previousblockhash": "0000000024c6a84ddf1a85c22e955d6b016cf13611257ad8f634cb4730158157",
  "nextblockhash": "00000000249d85e360e7fa196bb6cb040fc5bb6cabc4f8e3c0bf5a0a160eae8e",
  "strippedsize": 215,
  "size": 215,
  "weight": 860,
  "tx": [
    {
      "txid": "20e5895b437c56b1c42f34fc1a2a280dd9a4b339b3ee1b89ec87d3e2cb3ec1d8",
      "hash": "20e5895b437c56b1c42f34fc1a2a280dd9a4b339b3ee1b89ec87d3e2cb3ec1d8",
      "version": 1,
      "size": 134,
      "vsize": 134,
      "weight": 536,
      "locktime": 0,
      "vin": [
        {
          "coinbase": "04ffff001d012b",
          "sequence": 4294967295
        }
      ],
      "vout": [
        {
          "value": 50.0,
          "n": 0,
          "scriptPubKey": {
            "asm": "045d4944869283654e775307eb4ddfdc0d261395a4bf9c76916bc09f2b2e534a7051331a433c0eb6db01448fb1c752b69a80c79e4ab4fc2976810b57e1e4660b7a OP_CHECKSIG",
            "desc": "pk(045d4944869283654e775307eb4ddfdc0d261395a4bf9c76916bc09f2b2e534a7051331a433c0eb6db01448fb1c752b69a80c79e4ab4fc2976810b57e1e4660b7a)#ph8jql5n",
            "hex": "41045d4944869283654e775307eb4ddfdc0d261395a4bf9c76916bc09f2b2e534a7051331a433c0eb6db01448fb1c752b69a80c79e4ab4fc2976810b57e1e4660b7aac",
            "type": "pubkey"
          }
        }
      ],
      "hex": "01000000010000000000000000000000000000000000000000000000000000000000000000ffffffff0704ffff001d012bffffffff0100f2052a010000004341045d4944869283654e775307eb4ddfdc0d261395a4bf9c76916bc09f2b2e534a7051331a433c0eb6db01448fb1c752b69a80c79e4ab4fc2976810b57e1e4660b7aac00000000"
    }
  ]
}