{
  "hash": "0000000023b5d3df1c7cc06794b0a5a1389559d720112a26cc41b792ef024006",
  "confirmations": 44503,
  "height": 8595,
  "version": 1,
  "versionHex": "00000001",
  "merkleroot": "55894054e29333949af0e44dc18c95157fa1e4a249cc542c1a1bffe63f394229",
  "time": 1237947708,
  "mediantime": 1237943116,
  "nonce": 244495422,
  "bits": "1d00ffff",
  "difficulty": 1,
  "chainwork": "0000000000000000000000000000000000000000000000000000219421942194",
  "nTx": 1,
  "previousblockhash": "00000000384cc6240e3c6c25d4fe1a8fda50e17d40aacd54c921de954fc0b9db",
  "nextblockhash": "000000004876452a113e591ba291529948560abf6c7b780bd3d539d4dc3e512a",
  "strippedsize": 216,
  "size": 216,
  "weight": 864,
  "tx": [
    {
      "txid": "55894054e29333949af0e44dc18c95157fa1e4a249cc542c1a1bffe63f394229",
      "hash": "55894054e29333949af0e44dc18c95157fa1e4a249cc542c1a1bffe63f394229",
      "version": 1,
      "size": 135,
      "vsize": 135,
      "weight": 540,
      "locktime": 0,
      "vin": [
        {
          "coinbase": "04ffff001d025902",
          "sequence": 4294967295
        }
      ],
      "vout": [
        {
          "value": 50.0,
          "n": 0,
          "scriptPubKey": {
            "asm": "04e30bb6d1759b6eabc0b94b87c50323617e8ec43171f4bc2f7c513133b5920b3271ac7fea4e665f6814253e7b0076c20ce58f708eebcfbc2312a42f86e33800b7 OP_CHECKSIG",
            "desc": "pk(04e30bb6d1759b6eabc0b94b87c50323617e8ec43171f4bc2f7c513133b5920b3271ac7fea4e665f6814253e7b0076c20ce58f708eebcfbc2312a42f86e33800b7)#nh8jzmz4",
            "hex": "4104e30bb6d1759b6eabc0b94b87c50323617e8ec43171f4bc2f7c513133b5920b3271ac7fea4e665f6814253e7b0076c20ce58f708eebcfbc2312a42f86e33800b7ac",
            "type": "pubkey"
          }
        }
      ],
      "hex": "01000000010000000000000000000000000000000000000000000000000000000000000000ffffffff0804ffff001d025902ffffffff0100f2052a01000000434104e30bb6d1759b6eabc0b94b87c50323617e8ec43171f4bc2f7c513133b5920b3271ac7fea4e665f6814253e7b0076c20ce58f708eebcfbc2312a42f86e33800b7ac00000000"
    }
  ]
}