{
  "hash": "0000000026f7657f324b20225a269c26b4e03570b6f88e038e5e354010bf7525",
  "confirmations": 45879,
  "height": 7219,
  "version": 1,
  "versionHex": "00000001",
  "merkleroot": "4a29d5939a30f5e3826acce2836cab3faf452728d3e43fe5d6d5943716a298c3",
  "time": 1236885543,
  "mediantime": 1236881994,
  "nonce": 340492056,
  "bits": "1d00ffff",
  "difficulty": 1,
  "chainwork": "00000000000000000000000000000000000000000000000000001c341c341c34",
  "nTx": 1,
  "previousblockhash": "00000000a90a9d92334d5e5c939930f2dd769ef8e1dbdef153310b807041c943",
  "nextblockhash": "0000000060327d757e6926273a0e2ba1feecfdf0c784680934de2dea737810b1",
  "strippedsize": 216,
  "size": 216,
  "weight": 864,
  "tx": [
    {
      "txid": "4a29d5939a30f5e3826acce2836cab3faf452728d3e43fe5d6d5943716a298c3",
      "hash": "4a29d5939a30f5e3826acce2836cab3faf452728d3e43fe5d6d5943716a298c3",
      "version": 1,
      "size": 135,
      "vsize": 135,
      "weight": 540,
      "locktime": 0,
      "vin": [
        {
          "coinbase": "04ffff001d02f105",
          "sequence": 4294967295
        }
      ],
      "vout": [
        {
          "value": 50.0,
          "n": 0,
          "scriptPubKey": {
            "asm": "04c84654b88784380887d67961519d18b64ce5c9b8c80cefcd4c75afe04ebe0faacffc7e72b349b544fd5a436406fe9b96f09d12469258f61ec7f8ad3cb74647f4 OP_CHECKSIG",
            "desc": "pk(04c84654b88784380887d67961519d18b64ce5c9b8c80cefcd4c75afe04ebe0faacffc7e72b349b544fd5a436406fe9b96f09d12469258f61ec7f8ad3cb74647f4)#s7yupyaz",
            "hex": "4104c84654b88784380887d67961519d18b64ce5c9b8c80cefcd4c75afe04ebe0faacffc7e72b349b544fd5a436406fe9b96f09d12469258f61ec7f8ad3cb74647f4ac",
            "type": "pubkey"
          }
        }
      ],
      "hex": "01000000010000000000000000000000000000000000000000000000000000000000000000ffffffff0804ffff001d02f105ffffffff0100f2052a01000000434104c84654b88784380887d67961519d18b64ce5c9b8c80cefcd4c75afe04ebe0faacffc7e72b349b544fd5a436406fe9b96f09d12469258f61ec7f8ad3cb74647f4ac00000000"
    }
  ]
}