{
  "hash": "0000000074642394974015239b42465e8e4cc7636dfac0f645e20ac68daf4dd2",
  "confirmations": 43231,
  "height": 9867,
  "version": 1,
  "versionHex": "00000001",
  "merkleroot": "f2a626647c47f255c4d48083dd37274b6b6de6a0036ad2b8ed6e753e075cf98b",
  "time": 1238904339,
  "mediantime": 1238900104,
  "nonce": 423597104,
  "bits": "1d00ffff",
  "difficulty": 1,
  "chainwork": "0000000000000000000000000000000000000000000000000000268c268c268c",
  "nTx": 1,
  "previousblockhash": "00000000e99b6bda0cbf779eb661b874d5f6f450a0616bb9d9942b4929feaf97",
  "nextblockhash": "00000000dcab851d8c02e5bf448c9c3e778ed197739979713d12ba7447ba8005",
  "strippedsize": 216,
  "size": 216,
  "weight": 864,
  "tx": [
    {
      "txid": "f2a626647c47f255c4d48083dd37274b6b6de6a0036ad2b8ed6e753e075cf98b",
      "hash": "f2a626647c47f255c4d48083dd37274b6b6de6a0036ad2b8ed6e753e075cf98b",
      "version": 1,
      "size": 135,
      "vsize": 135,
      "weight": 540,
      "locktime": 0,
      "vin": [
        {
          "coinbase": "04ffff001d02a201",
          "sequence": 4294967295
        }
      ],
      "vout": [
        {
          "value": 50.0,
          "n": 0,
          "scriptPubKey": {
            "asm": "0486bf44c1a86f6efaf1b1fd99bfad14cd2dd86ecb7e9c502e6e74124dd2dd690fc5b4b0ec61d4090213571a5d267efec086992a6fd2b944edbb6bbd081f48144a OP_CHECKSIG",
            "desc": "pk(0486bf44c1a86f6efaf1b1fd99bfad14cd2dd86ecb7e9c502e6e74124dd2dd690fc5b4b0ec61d4090213571a5d267efec086992a6fd2b944edbb6bbd081f48144a)#xd0gjnpq",
            "hex": "410486bf44c1a86f6efaf1b1fd99bfad14cd2dd86ecb7e9c502e6e74124dd2dd690fc5b4b0ec61d4090213571a5d267efec086992a6fd2b944edbb6bbd081f48144aac",
            "type": "pubkey"
          }
        }
      ],
      "hex": "01000000010000000000000000000000000000000000000000000000000000000000000000ffffffff0804ffff001d02a201ffffffff0100f2052a0100000043410486bf44c1a86f6efaf1b1fd99bfad14cd2dd86ecb7e9c502e6e74124dd2dd690fc5b4b0ec61d4090213571a5d267efec086992a6fd2b944edbb6bbd081f48144aac00000000"
    }
  ]
}