{
  "hash": "00000000e9f98f2d446cc2aa66d55db4d3e877e1f92b6fae8b536097309f6edd",
  "confirmations": 46765,
  "height": 6333,
  "version": 1,
  "versionHex": "00000001",
  "merkleroot": "601be91303881526796c3f5b9f42e7275f48ff664742fe76c0813be36c4992b5",
  "time": 1236199715,
  "mediantime": 1236195264,
  "nonce": 1382467121,
  "bits": "1d00ffff",
  "difficulty": 1,
  "chainwork": "000000000000000000000000000000000000000000000000000018be18be18be",
  "nTx": 1,
  "previousblockhash": "000000005e440ced458ed300e09b98f94a913a7b4ef196df009a8055f267d22b",
  "nextblockhash": "00000000429f3066e1963c94df6bc5b44c5c5e6dc59861c403c91efc2e6e124f",
  "strippedsize": 216,
  "size": 216,
  "weight": 864,
  "tx": [
    {
      "txid": "601be91303881526796c3f5b9f42e7275f48ff664742fe76c0813be36c4992b5",
      "hash": "601be91303881526796c3f5b9f42e7275f48ff664742fe76c0813be36c4992b5",
      "version": 1,
      "size": 135,
      "vsize": 135,
      "weight": 540,
      "locktime": 0,
      "vin": [
        {
          "coinbase": "04ffff001d028f00",
          "sequence": 4294967295
        }
      ],
      "vout": [
        {
          "value": 50.0,
          "n": 0,
          "scriptPubKey": {
            "asm": "04246435b4b535aac2134f63e50c1224de9d5e4f8e05cd5a376625e76238cfffc2f1793d6fd0df27a05f92dd8c2df4be1927b780b68c79d87f911e47eab590fb34 OP_CHECKSIG",
            "desc": "pk(04246435b4b535aac2134f63e50c1224de9d5e4f8e05cd5a376625e76238cfffc2f1793d6fd0df27a05f92dd8c2df4be1927b780b68c79d87f911e47eab590fb34)#jp8xg4su",
            "hex": "4104246435b4b535aac2134f63e50c1224de9d5e4f8e05cd5a376625e76238cfffc2f1793d6fd0df27a05f92dd8c2df4be1927b780b68c79d87f911e47eab590fb34ac",
            "type": "pubkey"
          }
        }
      ],
      "hex": "01000000010000000000000000000000000000000000000000000000000000000000000000ffffffff0804ffff001d028f00ffffffff0100f2052a01000000434104246435b4b535aac2134f63e50c1224de9d5e4f8e05cd5a376625e76238cfffc2f1793d6fd0df27a05f92dd8c2df4be1927b780b68c79d87f911e47eab590fb34ac00000000"
    }
  ]
}