{
  "hash": "00000000fabd6dee2258f91f3a57e541cd02aa2fe8927c521f16db186206330d",
  "confirmations": 52236,
  "height": 862,
  "version": 1,
  "versionHex": "00000001",
  "merkleroot": "d0d91fcd42f8cac2c1498947ebe09ed9ed13a7b1cbf1c7b2a68a56b85d2c864c",
  "time": 1232241151,
  "mediantime": 1232236630,
  "nonce": 3285058869,
  "bits": "1d00ffff",
  "difficulty": 1,
  "chainwork": "0000000000000000000000000000000000000000000000000000035f035f035f",
  "nTx": 1,
  "previousblockhash": "000000008a4287df2039938d49b04c5d32941018c6c48e34553b0fd404f540ac",
  "nextblockhash": "00000000bdc509334b7956b5da137759c024f6a1a35097f8a28ed425e9ae9909",
  "strippedsize": 216,
  "size": 216,
  "weight": 864,
  "tx": [
    {
      "txid": "d0d91fcd42f8cac2c1498947ebe09ed9ed13a7b1cbf1c7b2a68a56b85d2c864c",
      "hash": "d0d91fcd42f8cac2c1498947ebe09ed9ed13a7b1cbf1c7b2a68a56b85d2c864c",
      "version": 1,
      "size": 135,
      "vsize": 135,
      "weight": 540,
      "locktime": 0,
      "vin": [
        {
          "coinbase": "04ffff001d02af02",
          "sequence": 4294967295
        }
      ],
      "vout": [
        {
          "value": 50.0,
          "n": 0,
          "scriptPubKey": {
            "asm": "043a02fb401f623fbd9da1a691aa1b0413f1c540721dff83c1f28a7c8b13b6901a3f7f99ae393b7931f02bdd0d4a43be5d999d7b1ba95b8d1c4a6bfbc7b3c788b7 OP_CHECKSIG",
            "desc": "pk(043a02fb401f623fbd9da1a691aa1b0413f1c540721dff83c1f28a7c8b13b6901a3f7f99ae393b7931f02bdd0d4a43be5d999d7b1ba95b8d1c4a6bfbc7b3c788b7)#5npm9auw",
            "hex": "41043a02fb401f623fbd9da1a691aa1b0413f1c540721dff83c1f28a7c8b13b6901a3f7f99ae393b7931f02bdd0d4a43be5d999d7b1ba95b8d1c4a6bfbc7b3c788b7ac",
            "type": "pubkey"
          }
        }
      ],
      "hex": "01000000010000000000000000000000000000000000000000000000000000000000000000ffffffff0804ffff001d02af02ffffffff0100f2052a010000004341043a02fb401f623fbd9da1a691aa1b0413f1c540721dff83c1f28a7c8b13b6901a3f7f99ae393b7931f02bdd0d4a43be5d999d7b1ba95b8d1c4a6bfbc7b3c788b7ac00000000"
    }
  ]
}