{
  "hash": "000000008a815b7b526932718dc52ef9d69fbf66d22d5bc7a081b17d157cfba2",
  "confirmations": 51982,
  "height": 1116,
  "version": 1,
  "versionHex": "00000001",
  "merkleroot": "2515ad1c775c4ccf395a6dd150c952fdc0496ad6161caf8b4ee6ad1c6bf8aca4",
  "time": 1232434247,
  "mediantime": 1232431122,
  "nonce": 429975226,
  "bits": "1d00ffff",
  "difficulty": 1,
  "chainwork": "0000000000000000000000000000000000000000000000000000045d045d045d",
  "nTx": 1,
  "previousblockhash": "00000000f00e7ebe4a59d68bb2c1800fb15195797ae781ad467a120f7bb8feaa",
  "nextblockhash": "000000008137e694130dc3f23a1441921a6bafaa4247b116edade8ce89847339",
  "strippedsize": 216,
  "size": 216,
  "weight": 864,
  "tx": [
    {
      "txid": "2515ad1c775c4ccf395a6dd150c952fdc0496ad6161caf8b4ee6ad1c6bf8aca4",
      "hash": "2515ad1c775c4ccf395a6dd150c952fdc0496ad6161caf8b4ee6ad1c6bf8aca4",
      "version": 1,
      "size": 135,
      "vsize": 135,
      "weight": 540,
      "locktime": 0,
      "vin": [
        {
          "coinbase": "04ffff001d02cc01",
          "sequence": 4294967295
        }
      ],
      "vout": [
        {
          "value": 50.0,
          "n": 0,
          "scriptPubKey": {
            "asm": "04c3d50cacf6a8abad5de3dd2983eeb280108c3eef7e479e1ae1f648593e75462e1eb8e77fb395a554784d606a8f3831e3c311455d1baf368e0403c52c5b5a443d OP_CHECKSIG",
            "desc": "pk(04c3d50cacf6a8abad5de3dd2983eeb280108c3eef7e479e1ae1f648593e75462e1eb8e77fb395a554784d606a8f3831e3c311455d1baf368e0403c52c5b5a443d)#y8axek3l",
            "hex": "4104c3d50cacf6a8abad5de3dd2983eeb280108c3eef7e479e1ae1f648593e75462e1eb8e77fb395a554784d606a8f3831e3c311455d1baf368e0403c52c5b5a443dac",
            "type": "pubkey"
          }
        }
      ],
      "hex": "01000000010000000000000000000000000000000000000000000000000000000000000000ffffffff0804ffff001d02cc01ffffffff0100f2052a01000000434104c3d50cacf6a8abad5de3dd2983eeb280108c3eef7e479e1ae1f648593e75462e1eb8e77fb395a554784d606a8f3831e3c311455d1baf368e0403c52c5b5a443dac00000000"
    }
  ]
}