{
  "hash": "0000000065553b4ddefb916f4932204ed0a3c081068fc04cd41e4fbefc89874c",
  "confirmations": 49166,
  "height": 3932,
  "version": 1,
  "versionHex": "00000001",
  "merkleroot": "d7f70b8624b4de7300f8ceb4f299a105fdbaf61837699f7854e13d07c78034af",
  "time": 1234393786,
  "mediantime": 1234390908,
  "nonce": 1961864969,
  "bits": "1d00ffff",
  "difficulty": 1,
  "chainwork": "00000000000000000000000000000000000000000000000000000f5d0f5d0f5d",
  "nTx": 1,
  "previousblockhash": "000000006ea6fef59ca992ff840e1ac7620b481fdd8e74e563aa15805cceadbf",
  "nextblockhash": "00000000ecf7d6813d1891e1ddb0d89a7d53abdfc92d94a3751d9fa231420a50",
  "strippedsize": 216,
  "size": 216,
  "weight": 864,
  "tx": [
    {
      "txid": "d7f70b8624b4de7300f8ceb4f299a105fdbaf61837699f7854e13d07c78034af",
      "hash": "d7f70b8624b4de7300f8ceb4f299a105fdbaf61837699f7854e13d07c78034af",
      "version": 1,
      "size": 135,
      "vsize": 135,
      "weight": 540,
      "locktime": 0,
      "vin": [
        {
          "coinbase": "04ffff001d025803",
          "sequence": 4294967295
        }
      ],
      "vout": [
        {
          "value": 50.0,
          "n": 0,
          "scriptPubKey": {
            "asm": "0474cdb8d3c4e58a97e67e7535d9de76c71a6b1909f16b26d4457acff0853c9867bc4649c0b0777d26e11f98c8c3ed501fe94c21b35f127dad0a9e2149f45e00e4 OP_CHECKSIG",
            "desc": "pk(0474cdb8d3c4e58a97e67e7535d9de76c71a6b1909f16b26d4457acff0853c9867bc4649c0b0777d26e11f98c8c3ed501fe94c21b35f127dad0a9e2149f45e00e4)#264pzaf6",
            "hex": "410474cdb8d3c4e58a97e67e7535d9de76c71a6b1909f16b26d4457acff0853c9867bc4649c0b0777d26e11f98c8c3ed501fe94c21b35f127dad0a9e2149f45e00e4ac",
            "type": "pubkey"
          }
        }
      ],
      "hex": "01000000010000000000000000000000000000000000000000000000000000000000000000ffffffff0804ffff001d025803ffffffff0100f2052a0100000043410474cdb8d3c4e58a97e67e7535d9de76c71a6b1909f16b26d4457acff0853c9867bc4649c0b0777d26e11f98c8c3ed501fe94c21b35f127dad0a9e2149f45e00e4ac00000000"
    }
  ]
}