{
  "hash": "0000000025bb3fa79b724a22a862edccc36d40b04e0a3661217aaaab3242b543",
  "confirmations": 47745,
  "height": 5353,
  "version": 1,
  "versionHex": "00000001",
  "merkleroot": "4003cb17c1e75da30089ed7b8f331d8ac7fbb078600f8c1386641a4e2b312e63",
  "time": 1235406410,
  "mediantime": 1235402127,
  "nonce": 2231666437,
  "bits": "1d00ffff",
  "difficulty": 1,
  "chainwork": "000000000000000000000000000000000000000000000000000014ea14ea14ea",
  "nTx": 1,
  "previousblockhash": "000000005ddd8f039574aca662cbb1bb13d4e295b6bcbc48f602859d2c44a651",
  "nextblockhash": "00000000d391c1150a599c652c5279914e1dd23e44331d15981a21b0cc55a770",
  "strippedsize": 216,
  "size": 216,
  "weight": 864,
  "tx": [
    {
      "txid": "4003cb17c1e75da30089ed7b8f331d8ac7fbb078600f8c1386641a4e2b312e63",
      "hash": "4003cb17c1e75da30089ed7b8f331d8ac7fbb078600f8c1386641a4e2b312e63",
      "version": 1,
      "size": 135,
      "vsize": 135,
      "weight": 540,
      "locktime": 0,
      "vin": [
        {
          "coinbase": "04ffff001d02f002",
          "sequence": 4294967295
        }
      ],
      "vout": [
        {
          "value": 50.0,
          "n": 0,
          "scriptPubKey": {
            "asm": "04f4781d02e998ef5fbe9524363330caacb5ee4baae5f66fb6cf2d9f87711bf814f398e31fb8d5a717c2952d80d2b32649e4a2a1f79d76c6c654805fbc81084af0 OP_CHECKSIG",
            "desc": "pk(04f4781d02e998ef5fbe9524363330caacb5ee4baae5f66fb6cf2d9f87711bf814f398e31fb8d5a717c2952d80d2b32649e4a2a1f79d76c6c654805fbc81084af0)#qhqt9w80",
            "hex": "4104f4781d02e998ef5fbe9524363330caacb5ee4baae5f66fb6cf2d9f87711bf814f398e31fb8d5a717c2952d80d2b32649e4a2a1f79d76c6c654805fbc81084af0ac",
            "type": "pubkey"
          }
        }
      ],
      "hex": "01000000010000000000000000000000000000000000000000000000000000000000000000ffffffff0804ffff001d02f002ffffffff0100f2052a01000000434104f4781d02e998ef5fbe9524363330caacb5ee4baae5f66fb6cf2d9f87711bf814f398e31fb8d5a717c2952d80d2b32649e4a2a1f79d76c6c654805fbc81084af0ac00000000"
    }
  ]
}