{
  "hash": "00000000990687d0eefcb17b6d04dd6a387ea75ff9233de72687f164e983f8e4",
  "confirmations": 50908,
  "height": 2190,
  "version": 1,
  "versionHex": "00000001",
  "merkleroot": "dfc614e513c41eaa8caf9379ce630ef083ebf6d6698790e451e386e523b292ed",
  "time": 1233207720,
  "mediantime": 1233203788,
  "nonce": 88791118,
  "bits": "1d00ffff",
  "difficulty": 1,
  "chainwork": "0000000000000000000000000000000000000000000000000000088f088f088f",
  "nTx": 1,
  "previousblockhash": "00000000b0e0b48f8503ce535d51691aad2366d7b0a77da0e7f5b6b9b3fa2091",
  "nextblockhash": "000000003cbf89153b0526e193ed74e5489a98c0b72f974d71c255425861eea4",
  "strippedsize": 215,
  "size": 215,
  "weight": 860,
  "tx": [
    {
      "txid": "dfc614e513c41eaa8caf9379ce630ef083ebf6d6698790e451e386e523b292ed",
      "hash": "dfc614e513c41eaa8caf9379ce630ef083ebf6d6698790e451e386e523b292ed",
      "version": 1,
      "size": 134,
      "vsize": 134,
      "weight": 536,
      "locktime": 0,
      "vin": [
        {
          "coinbase": "04ffff001d0151",
          "sequence": 4294967295
        }
      ],
      "vout": [
        {
          "value": 50.0,
          "n": 0,
          "scriptPubKey": {
            "asm": "04106779d53cdd86ce805e242377a4e1a091faf0edb40a80e699fd3e63f5e31031a6bd31ac3d8a02a344abb92725fc38699854213508c59872a5e4b6f35852698c OP_CHECKSIG",
            "desc": "pk(04106779d53cdd86ce805e242377a4e1a091faf0edb40a80e699fd3e63f5e31031a6bd31ac3d8a02a344abb92725fc38699854213508c59872a5e4b6f35852698c)#kfejg3ru",
            "hex": "4104106779d53cdd86ce805e242377a4e1a091faf0edb40a80e699fd3e63f5e31031a6bd31ac3d8a02a344abb92725fc38699854213508c59872a5e4b6f35852698cac",
            "type": "pubkey"
          }
        }
      ],
      "hex": "01000000010000000000000000000000000000000000000000000000000000000000000000ffffffff0704ffff001d0151ffffffff0100f2052a01000000434104106779d53cdd86ce805e242377a4e1a091faf0edb40a80e699fd3e63f5e31031a6bd31ac3d8a02a344abb92725fc38699854213508c59872a5e4b6f35852698cac00000000"
    }
  ]
}