{
  "hash": "000000008f785cc65342a71e68383e38c63b077ae2f4f7b5a3a3894fc5fa1b44",
  "confirmations": 46686,
  "height": 6412,
  "version": 1,
  "versionHex": "00000001",
  "merkleroot": "32134ada9daa8500d2b5e376c6890c897ab54d4759956328168eb297a9c23dff",
  "time": 1236265930,
  "mediantime": 1236260495,
  "nonce": 3244252436,
  "bits": "1d00ffff",
  "difficulty": 1,
  "chainwork": "0000000000000000000000000000000000000000000000000000190d190d190d",
  "nTx": 1,
  "previousblockhash": "0000000077ee8bb8e91ef9657695c874239b0060b4bd2bf95839a7d118b5edd6",
  "nextblockhash": "00000000748ec6c31fadf6895fcf0cad33d06ae1f5901929b28874f1b6764b9e",
  "strippedsize": 216,
  "size": 216,
  "weight": 864,
  "tx": [
    {
      "txid": "32134ada9daa8500d2b5e376c6890c897ab54d4759956328168eb297a9c23dff",
      "hash": "32134ada9daa8500d2b5e376c6890c897ab54d4759956328168eb297a9c23dff",
      "version": 1,
      "size": 135,
      "vsize": 135,
      "weight": 540,
      "locktime": 0,
      "vin": [
        {
          "coinbase": "04ffff001d021702",
          "sequence": 4294967295
        }
      ],
      "vout": [
        {
          "value": 50.0,
          "n": 0,
          "scriptPubKey": {
            "asm": "049ed6ef20040c783568064e9f8405711d3c6d9e11fbeb70fcee8d1c22267c1fa24e25bbbfc7370c77ad46dd97078331fa8f8b1e7bea63a4cdbf2c66b955bb3f82 OP_CHECKSIG",
            "desc": "pk(049ed6ef20040c783568064e9f8405711d3c6d9e11fbeb70fcee8d1c22267c1fa24e25bbbfc7370c77ad46dd97078331fa8f8b1e7bea63a4cdbf2c66b955bb3f82)#arh8mxy5",
            "hex": "41049ed6ef20040c783568064e9f8405711d3c6d9e11fbeb70fcee8d1c22267c1fa24e25bbbfc7370c77ad46dd97078331fa8f8b1e7bea63a4cdbf2c66b955bb3f82ac",
            "type": "pubkey"
          }
        }
      ],
      "hex": "01000000010000000000000000000000000000000000000000000000000000000000000000ffffffff0804ffff001d021702ffffffff0100f2052a010000004341049ed6ef20040c783568064e9f8405711d3c6d9e11fbeb70fcee8d1c22267c1fa24e25bbbfc7370c77ad46dd97078331fa8f8b1e7bea63a4cdbf2c66b955bb3f82ac00000000"
    }
  ]
}