{
  "hash": "00000000fb77bc758b5efd0ff40f3bcf12edfb1a0bada75355ba71de737d5990",
  "confirmations": 50436,
  "height": 2662,
  "version": 1,
  "versionHex": "00000001",
  "merkleroot": "201c547b43c1f097a5583762413223a29032951a4b0a9dbe7bc8dca10abbc01a",
  "time": 1233535803,
  "mediantime": 1233532992,
  "nonce": 147141181,
  "bits": "1d00ffff",
  "difficulty": 1,
  "chainwork": "00000000000000000000000000000000000000000000000000000a670a670a67",
  "nTx": 1,
  "previousblockhash": "000000007fb3dc97caf583a7740fbcc579eaca202c1eba5ebedc80d8e1a3c696",
  "nextblockhash": "000000008d55cc911e6f532604b81a63724dd47bf1657196fcba560997de953e",
  "strippedsize": 216,
  "size": 216,
  "weight": 864,
  "tx": [
    {
      "txid": "201c547b43c1f097a5583762413223a29032951a4b0a9dbe7bc8dca10abbc01a",
      "hash": "201c547b43c1f097a5583762413223a29032951a4b0a9dbe7bc8dca10abbc01a",
      "version": 1,
      "size": 135,
      "vsize": 135,
      "weight": 540,
      "locktime": 0,
      "vin": [
        {
          "coinbase": "04ffff001d02e102",
          "sequence": 4294967295
        }
      ],
      "vout": [
        {
          "value": 50.0,
          "n": 0,
          "scriptPubKey": {
            "asm": "0472a28051b555e31b7ecf35256a05ddede974f95a3b3eb04115b29a1822a9084b63984435e74bef4bc5d61ace0c626a2dabbd69009be1ce02042b789ce211149d OP_CHECKSIG",
            "desc": "pk(0472a28051b555e31b7ecf35256a05ddede974f95a3b3eb04115b29a1822a9084b63984435e74bef4bc5d61ace0c626a2dabbd69009be1ce02042b789ce211149d)#dmn6tp9e",
            "hex": "410472a28051b555e31b7ecf35256a05ddede974f95a3b3eb04115b29a1822a9084b63984435e74bef4bc5d61ace0c626a2dabbd69009be1ce02042b789ce211149dac",
            "type": "pubkey"
          }
        }
      ],
      "hex": "01000000010000000000000000000000000000000000000000000000000000000000000000ffffffff0804ffff001d02e102ffffffff0100f2052a0100000043410472a28051b555e31b7ecf35256a05ddede974f95a3b3eb04115b29a1822a9084b63984435e74bef4bc5d61ace0c626a2dabbd69009be1ce02042b789ce211149dac00000000"
    }
  ]
}