{
  "hash": "000000005a2ba0f0644d2abd0066353c16fc79c4e0bb7b5ab4741e20bb491727",
  "confirmations": 50852,
  "height": 2246,
  "version": 1,
  "versionHex": "00000001",
  "merkleroot": "a76126ecb64c74acd042c973a9d24eb9f89255b77aadd10e2c2b5554e1286c8c",
  "time": 1233245079,
  "mediantime": 1233241398,
  "nonce": 3701509941,
  "bits": "1d00ffff",
  "difficulty": 1,
  "chainwork": "000000000000000000000000000000000000000000000000000008c708c708c7",
  "nTx": 1,
  "previousblockhash": "00000000a56a59203fe39de44f3ee4b091bb40d869ed8d8f1c2e8f19c31fedf9",
  "nextblockhash": "000000008752513a044502dd2d75009ff847b5703ce1985f3e9fa8647ec50bbb",
  "strippedsize": 216,
  "size": 216,
  "weight": 864,
  "tx": [
    {
      "txid": "a76126ecb64c74acd042c973a9d24eb9f89255b77aadd10e2c2b5554e1286c8c",
      "hash": "a76126ecb64c74acd042c973a9d24eb9f89255b77aadd10e2c2b5554e1286c8c",
      "version": 1,
      "size": 135,
      "vsize": 135,
      "weight": 540,
      "locktime": 0,
      "vin": [
        {
          "coinbase": "04ffff001d020601",
          "sequence": 4294967295
        }
      ],
      "vout": [
        {
          "value": 50.0,
          "n": 0,
          "scriptPubKey": {
            "asm": "0467953c7d545037df80cebc41446c0d18f070d972e025e62c7fa9983973dec17abbffdf112dc10077e5b442f0bc2301557e039aabde7715ff717d03c092fa5659 OP_CHECKSIG",
            "desc": "pk(0467953c7d545037df80cebc41446c0d18f070d972e025e62c7fa9983973dec17abbffdf112dc10077e5b442f0bc2301557e039aabde7715ff717d03c092fa5659)#nhl3qjgz",
            "hex": "410467953c7d545037df80cebc41446c0d18f070d972e025e62c7fa9983973dec17abbffdf112dc10077e5b442f0bc2301557e039aabde7715ff717d03c092fa5659ac",
            "type": "pubkey"
          }
        }
      ],
      "hex": "01000000010000000000000000000000000000000000000000000000000000000000000000ffffffff0804ffff001d020601ffffffff0100f2052a0100000043410467953c7d545037df80cebc41446c0d18f070d972e025e62c7fa9983973dec17abbffdf112dc10077e5b442f0bc2301557e039aabde7715ff717d03c092fa5659ac00000000"
    }
  ]
}