{
  "hash": "000000000507b1b544c123048a54d131a6a5eb86884dca2ec2a6f5e29b3c7c51",
  "confirmations": 52320,
  "height": 778,
  "version": 1,
  "versionHex": "00000001",
  "merkleroot": "98177a2614e065742252dbe4a0b46febc8527a5996224ac8ce07fb29aa013c55",
  "time": 1232172535,
  "mediantime": 1232169303,
  "nonce": 1658379268,
  "bits": "1d00ffff",
  "difficulty": 1,
  "chainwork": "0000000000000000000000000000000000000000000000000000030b030b030b",
  "nTx": 1,
  "previousblockhash": "000000000ed962e1b77fcd47c5deab249f1adb1069195cbcd6cd77f2679e791b",
  "nextblockhash": "0000000088705973e5ff59d1a5b6cefbcdac79b15c3e20f91c1dec6ed26c4230",
  "strippedsize": 216,
  "size": 216,
  "weight": 864,
  "tx": [
    {
      "txid": "98177a2614e065742252dbe4a0b46febc8527a5996224ac8ce07fb29aa013c55",
      "hash": "98177a2614e065742252dbe4a0b46febc8527a5996224ac8ce07fb29aa013c55",
      "version": 1,
      "size": 135,
      "vsize": 135,
      "weight": 540,
      "locktime": 0,
      "vin": [
        {
          "coinbase": "04ffff001d021601",
          "sequence": 4294967295
        }
      ],
      "vout": [
        {
          "value": 50.0,
          "n": 0,
          "scriptPubKey": {
            "asm": "042390eef7932a67aaf1db233998a491aa29f18917a9528c42a401e696ef683dd0d3632678c31f7f9666267b1703b64959abf553242b9b88c75527f2b51d2336c4 OP_CHECKSIG",
            "desc": "pk(042390eef7932a67aaf1db233998a491aa29f18917a9528c42a401e696ef683dd0d3632678c31f7f9666267b1703b64959abf553242b9b88c75527f2b51d2336c4)#3h8fxdrd",
            "hex": "41042390eef7932a67aaf1db233998a491aa29f18917a9528c42a401e696ef683dd0d3632678c31f7f9666267b1703b64959abf553242b9b88c75527f2b51d2336c4ac",
            "type": "pubkey"
          }
        }
      ],
      "hex": "01000000010000000000000000000000000000000000000000000000000000000000000000ffffffff0804ffff001d021601ffffffff0100f2052a010000004341042390eef7932a67aaf1db233998a491aa29f18917a9528c42a401e696ef683dd0d3632678c31f7f9666267b1703b64959abf553242b9b88c75527f2b51d2336c4ac00000000"
    }
  ]
}