{
  "hash": "000000005ecfec8fd3d220c04242d06baa6e27219ca44b2713c264292d613eea",
  "confirmations": 49507,
  "height": 3591,
  "version": 1,
  "versionHex": "00000001",
  "merkleroot": "3580731b733b09c32c82c5885c21ebf343b4433075152ac6840816cad6b06f78",
  "time": 1234166192,
  "mediantime": 1234163342,
  "nonce": 3434329621,
  "bits": "1d00ffff",
  "difficulty": 1,
  "chainwork": "00000000000000000000000000000000000000000000000000000e080e080e08",
  "nTx": 1,
  "previousblockhash": "0000000050c539e0380620c5819d05e7b5bb3afbb8bb430181efc34684cfb004",
  "nextblockhash": "000000003a7124e4ac16cc89e6c7c564c04cdccabb7576ad0768dca42c47a4f1",
  "strippedsize": 216,
  "size": 216,
  "weight": 864,
  "tx": [
    {
      "txid": "3580731b733b09c32c82c5885c21ebf343b4433075152ac6840816cad6b06f78",
      "hash": "3580731b733b09c32c82c5885c21ebf343b4433075152ac6840816cad6b06f78",
      "version": 1,
      "size": 135,
      "vsize": 135,
      "weight": 540,
      "locktime": 0,
      "vin": [
        {
          "coinbase": "04ffff001d028108",
          "sequence": 4294967295
        }
      ],
      "vout": [
        {
          "value": 50.0,
          "n": 0,
          "scriptPubKey": {
            "asm": "04f35c49527d93c39449ab1ccb7e14f6ec27e6b73c5bd76f567b796ef3996d43b902916ce01fba3b16fb67a1e6830a043b4b71757939f8d9dc09a3d924a32a6747 OP_CHECKSIG",
            "desc": "pk(04f35c49527d93c39449ab1ccb7e14f6ec27e6b73c5bd76f567b796ef3996d43b902916ce01fba3b16fb67a1e6830a043b4b71757939f8d9dc09a3d924a32a6747)#sljgvzmd",
            "hex": "4104f35c49527d93c39449ab1ccb7e14f6ec27e6b73c5bd76f567b796ef3996d43b902916ce01fba3b16fb67a1e6830a043b4b71757939f8d9dc09a3d924a32a6747ac",
            "type": "pubkey"
          }
        }
      ],
      "hex": "01000000010000000000000000000000000000000000000000000000000000000000000000ffffffff0804ffff001d028108ffffffff0100f2052a01000000434104f35c49527d93c39449ab1ccb7e14f6ec27e6b73c5bd76f567b796ef3996d43b902916ce01fba3b16fb67a1e6830a043b4b71757939f8d9dc09a3d924a32a6747ac00000000"
    }
  ]
}