{
  "hash": "00000000bafabb8a5a07292226a73808b925e55a61b11adda18b62dedae10c55",
  "confirmations": 47740,
  "height": 5358,
  "version": 1,
  "versionHex": "00000001",
  "merkleroot": "e922d17e9e8ca8463a9d87fd69ca139c26b2cd81b2fc012e1e44426fdd11a263",
  "time": 1235409695,
  "mediantime": 1235406410,
  "nonce": 1437563188,
  "bits": "1d00ffff",
  "difficulty": 1,
  "chainwork": "000000000000000000000000000000000000000000000000000014ef14ef14ef",
  "nTx": 1,
  "previousblockhash": "000000008f64cda5d0d1d1e4c443112051fd16ef4bce34dec33022872b19702c",
  "nextblockhash": "000000000e2eac523b558633f6c2cd01de71c7fd67e44b84e564bb49f00007eb",
  "strippedsize": 216,
  "size": 216,
  "weight": 864,
  "tx": [
    {
      "txid": "e922d17e9e8ca8463a9d87fd69ca139c26b2cd81b2fc012e1e44426fdd11a263",
      "hash": "e922d17e9e8ca8463a9d87fd69ca139c26b2cd81b2fc012e1e44426fdd11a263",
      "version": 1,
      "size": 135,
      "vsize": 135,
      "weight": 540,
      "locktime": 0,
      "vin": [
        {
          "coinbase": "04ffff001d020703",
          "sequence": 4294967295
        }
      ],
      "vout": [
        {
          "value": 50.0,
          "n": 0,
          "scriptPubKey": {
            "asm": "04c6c1352ed008960c53a5a15ac2b1d879496f10f8c1e1dcdf87bf73f59f81ba958686f4b5c06bb818a89b09dd7e275a7fd98260a2b6885f08597734ab4177debb OP_CHECKSIG",
            "desc": "pk(04c6c1352ed008960c53a5a15ac2b1d879496f10f8c1e1dcdf87bf73f59f81ba958686f4b5c06bb818a89b09dd7e275a7fd98260a2b6885f08597734ab4177debb)#um5x0q0h",
            "hex": "4104c6c1352ed008960c53a5a15ac2b1d879496f10f8c1e1dcdf87bf73f59f81ba958686f4b5c06bb818a89b09dd7e275a7fd98260a2b6885f08597734ab4177debbac",
            "type": "pubkey"
          }
        }
      ],
      "hex": "01000000010000000000000000000000000000000000000000000000000000000000000000ffffffff0804ffff001d020703ffffffff0100f2052a01000000434104c6c1352ed008960c53a5a15ac2b1d879496f10f8c1e1dcdf87bf73f59f81ba958686f4b5c06bb818a89b09dd7e275a7fd98260a2b6885f08597734ab4177debbac00000000"
    }
  ]
}