{
  "hash": "000000004b94101e16825742055109f51c7fc8966c6918e48416cf95bf750580",
  "confirmations": 43510,
  "height": 9588,
  "version": 1,
  "versionHex": "00000001",
  "merkleroot": "217bba110d90b6cd5e2042370378ace1bb6161b3d5d833e14bbc44aadd837abb",
  "time": 1238690515,
  "mediantime": 1238687038,
  "nonce": 2305261607,
  "bits": "1d00ffff",
  "difficulty": 1,
  "chainwork": "0000000000000000000000000000000000000000000000000000257525752575",
  "nTx": 1,
  "previousblockhash": "00000000b089d36f578ad9e419852345cdd87752817b25b39708a8035c4069e6",
  "nextblockhash": "00000000b60cf3b3402318de47bc87b5a2a89644fbba421d52e8dfaf6cafae5a",
  "strippedsize": 216,
  "size": 216,
  "weight": 864,
  "tx": [
    {
      "txid": "217bba110d90b6cd5e2042370378ace1bb6161b3d5d833e14bbc44aadd837abb",
      "hash": "217bba110d90b6cd5e2042370378ace1bb6161b3d5d833e14bbc44aadd837abb",
      "version": 1,
      "size": 135,
      "vsize": 135,
      "weight": 540,
      "locktime": 0,
      "vin": [
        {
          "coinbase": "04ffff001d02d406",
          "sequence": 4294967295
        }
      ],
      "vout": [
        {
          "value": 50.0,
          "n": 0,
          "scriptPubKey": {
            "asm": "042b9a35e7e4e6bbe2bf6673e8f7090bfce0dcb8eb21fe7b1991d0985d2209f52b12a4ac0ea71a0babfde6713c7c8e87ad75c4e970ae0c801d9e50a3530ea208ec OP_CHECKSIG",
            "desc": "pk(042b9a35e7e4e6bbe2bf6673e8f7090bfce0dcb8eb21fe7b1991d0985d2209f52b12a4ac0ea71a0babfde6713c7c8e87ad75c4e970ae0c801d9e50a3530ea208ec)#k67fjuvu",
            "hex": "41042b9a35e7e4e6bbe2bf6673e8f7090bfce0dcb8eb21fe7b1991d0985d2209f52b12a4ac0ea71a0babfde6713c7c8e87ad75c4e970ae0c801d9e50a3530ea208ecac",
            "type": "pubkey"
          }
        }
      ],
      "hex": "01000000010000000000000000000000000000000000000000000000000000000000000000ffffffff0804ffff001d02d406ffffffff0100f2052a010000004341042b9a35e7e4e6bbe2bf6673e8f7090bfce0dcb8eb21fe7b1991d0985d2209f52b12a4ac0ea71a0babfde6713c7c8e87ad75c4e970ae0c801d9e50a3530ea208ecac00000000"
    }
  ]
}