{
  "hash": "000000004d3814f64f864ff1e3c2197618154b43c62237c80ea1be1a09c20c92",
  "confirmations": 52133,
  "height": 965,
  "version": 1,
  "versionHex": "00000001",
  "merkleroot": "5a1bd6a01373df7d4250adc3dec051bc12c020f04cdecb063526d3a21d0c128e",
  "time": 1232323275,
  "mediantime": 1232319062,
  "nonce": 1799597091,
  "bits": "1d00ffff",
  "difficulty": 1,
  "chainwork": "000000000000000000000000000000000000000000000000000003c603c603c6",
  "nTx": 1,
  "previousblockhash": "000000006f35e3b272050957426e172bd987fc433392954d6390d0437b3c67a9",
  "nextblockhash": "0000000092a37af1da9b6a304d6cb2613ece736bc865476e5a23611f347b0322",
  "strippedsize": 216,
  "size": 216,
  "weight": 864,
  "tx": [
    {
      "txid": "5a1bd6a01373df7d4250adc3dec051bc12c020f04cdecb063526d3a21d0c128e",
      "hash": "5a1bd6a01373df7d4250adc3dec051bc12c020f04cdecb063526d3a21d0c128e",
      "version": 1,
      "size": 135,
      "vsize": 135,
      "weight": 540,
      "locktime": 0,
      "vin": [
        {
          "coinbase": "04ffff001d028804",
          "sequence": 4294967295
        }
      ],
      "vout": [
        {
          "value": 50.0,
          "n": 0,
          "scriptPubKey": {
            "asm": "04fdf749ce0dbcf99f19c5a61897149a4ac8ca06e8cf69adc753dd8f38bad00f6c9efd84a9b1480f2d6e17989a359751e31011f6e1849d6e5d4b6f781902c74826 OP_CHECKSIG",
            "desc": "pk(04fdf749ce0dbcf99f19c5a61897149a4ac8ca06e8cf69adc753dd8f38bad00f6c9efd84a9b1480f2d6e17989a359751e31011f6e1849d6e5d4b6f781902c74826)#yuy0rrzn",
            "hex": "4104fdf749ce0dbcf99f19c5a61897149a4ac8ca06e8cf69adc753dd8f38bad00f6c9efd84a9b1480f2d6e17989a359751e31011f6e1849d6e5d4b6f781902c74826ac",
            "type": "pubkey"
          }
        }
      ],
      "hex": "01000000010000000000000000000000000000000000000000000000000000000000000000ffffffff0804ffff001d028804ffffffff0100f2052a01000000434104fdf749ce0dbcf99f19c5a61897149a4ac8ca06e8cf69adc753dd8f38bad00f6c9efd84a9b1480f2d6e17989a359751e31011f6e1849d6e5d4b6f781902c74826ac00000000"
    }
  ]
}