{
  "hash": "00000000bd9728e591043a3328bc8d0b84e37c57caca6e37f7d02cab56dbbf3b",
  "confirmations": 45382,
  "height": 7716,
  "version": 1,
  "versionHex": "00000001",
  "merkleroot": "ae764892803ce9d02a5bb7ceced3fca6f94a031f7878aa1ff16e4d0fffdb7935",
  "time": 1237251241,
  "mediantime": 1237246037,
  "nonce": 61132923,
  "bits": "1d00ffff",
  "difficulty": 1,
  "chainwork": "00000000000000000000000000000000000000000000000000001e251e251e25",
  "nTx": 1,
  "previousblockhash": "00000000da5872a125e5b13d8213b090cd8316b81ad89b4d59fc0b48cf508b33",
  "nextblockhash": "000000000c3c5fb33ea4106d8b52a7dee184111ec53d23c4c76eeb0ab7a9ec82",
  "strippedsize": 216,
  "size": 216,
  "weight": 864,
  "tx": [
    {
      "txid": "ae764892803ce9d02a5bb7ceced3fca6f94a031f7878aa1ff16e4d0fffdb7935",
      "hash": "ae764892803ce9d02a5bb7ceced3fca6f94a031f7878aa1ff16e4d0fffdb7935",
      "version": 1,
      "size": 135,
      "vsize": 135,
      "weight": 540,
      "locktime": 0,
      "vin": [
        {
          "coinbase": "04ffff001d02d508",
          "sequence": 4294967295
        }
      ],
      "vout": [
        {
          "value": 50.0,
          "n": 0,
          "scriptPubKey": {
            "asm": "04da7a26898d9cd8b2c12014fbcd69cf3ba387364db20a44674ad020779c3879e0f3903f2b7be043fefa3a6011f688c2e20aaa295bcb5d502cd8b0f85a5c4d122b OP_CHECKSIG",
            "desc": "pk(04da7a26898d9cd8b2c12014fbcd69cf3ba387364db20a44674ad020779c3879e0f3903f2b7be043fefa3a6011f688c2e20aaa295bcb5d502cd8b0f85a5c4d122b)#23qk80z2",
            "hex": "4104da7a26898d9cd8b2c12014fbcd69cf3ba387364db20a44674ad020779c3879e0f3903f2b7be043fefa3a6011f688c2e20aaa295bcb5d502cd8b0f85a5c4d122bac",
            "type": "pubkey"
          }
        }
      ],
      "hex": "01000000010000000000000000000000000000000000000000000000000000000000000000ffffffff0804ffff001d02d508ffffffff0100f2052a01000000434104da7a26898d9cd8b2c12014fbcd69cf3ba387364db20a44674ad020779c3879e0f3903f2b7be043fefa3a6011f688c2e20aaa295bcb5d502cd8b0f85a5c4d122bac00000000"
    }
  ]
}