{
  "hash": "00000000eaf6b1e6934d877f9e1a8370208498f604a4ce1695c96c78f987c077",
  "confirmations": 45531,
  "height": 7567,
  "version": 1,
  "versionHex": "00000001",
  "merkleroot": "04cbc40d7ebb16928c370fbd3d6ca4aa86c3c40749e0c95b77d65baf106ea852",
  "time": 1237148238,
  "mediantime": 1237145314,
  "nonce": 3597356291,
  "bits": "1d00ffff",
  "difficulty": 1,
  "chainwork": "00000000000000000000000000000000000000000000000000001d901d901d90",
  "nTx": 1,
  "previousblockhash": "00000000955f59fd9c3b10139325c0a802630ec1c7bbf308b754465a3485e737",
  "nextblockhash": "00000000fc24d06bcf81dbc9a4e24c612bb7535c340260c152e0d854e97ea82b",
  "strippedsize": 216,
  "size": 216,
  "weight": 864,
  "tx": [
    {
      "txid": "04cbc40d7ebb16928c370fbd3d6ca4aa86c3c40749e0c95b77d65baf106ea852",
      "hash": "04cbc40d7ebb16928c370fbd3d6ca4aa86c3c40749e0c95b77d65baf106ea852",
      "version": 1,
      "size": 135,
      "vsize": 135,
      "weight": 540,
      "locktime": 0,
      "vin": [
        {
          "coinbase": "04ffff001d022702",
          "sequence": 4294967295
        }
      ],
      "vout": [
        {
          "value": 50.0,
          "n": 0,
          "scriptPubKey": {
            "asm": "044ce553a35e9255c7c005c1bdc257c3d1d7e0e7b7029511683e0c78533ac9b0363484dc09fbef0b4012d1f8096d280a2638a53765db84f84bbb94cdd01eccdfed OP_CHECKSIG",
            "desc": "pk(044ce553a35e9255c7c005c1bdc257c3d1d7e0e7b7029511683e0c78533ac9b0363484dc09fbef0b4012d1f8096d280a2638a53765db84f84bbb94cdd01eccdfed)#k85dawlv",
            "hex": "41044ce553a35e9255c7c005c1bdc257c3d1d7e0e7b7029511683e0c78533ac9b0363484dc09fbef0b4012d1f8096d280a2638a53765db84f84bbb94cdd01eccdfedac",
            "type": "pubkey"
          }
        }
      ],
      "hex": "01000000010000000000000000000000000000000000000000000000000000000000000000ffffffff0804ffff001d022702ffffffff0100f2052a010000004341044ce553a35e9255c7c005c1bdc257c3d1d7e0e7b7029511683e0c78533ac9b0363484dc09fbef0b4012d1f8096d280a2638a53765db84f84bbb94cdd01eccdfedac00000000"
    }
  ]
}