{
  "hash": "00000000dbf3493c5424054e469e704ef49998e81fb7b1cd5056709def9a7279",
  "confirmations": 52372,
  "height": 726,
  "version": 1,
  "versionHex": "00000001",
  "merkleroot": "570f2d99e5590ca7dc6812930dfdbda651d0d8f95a9d230e8c51bc60acb29b0c",
  "time": 1232132250,
  "mediantime": 1232126326,
  "nonce": 98353222,
  "bits": "1d00ffff",
  "difficulty": 1,
  "chainwork": "000000000000000000000000000000000000000000000000000002d702d702d7",
  "nTx": 1,
  "previousblockhash": "0000000089c680170ab1ea7f17a4df3ee03ee6d66a3c843ad83e41c36cc2e4ea",
  "nextblockhash": "000000001c7eb6ab129cf14659aea1f77f6e116ea8da2193182b08eae6ecf5f7",
  "strippedsize": 215,
  "size": 215,
  "weight": 860,
  "tx": [
    {
      "txid": "570f2d99e5590ca7dc6812930dfdbda651d0d8f95a9d230e8c51bc60acb29b0c",
      "hash": "570f2d99e5590ca7dc6812930dfdbda651d0d8f95a9d230e8c51bc60acb29b0c",
      "version": 1,
      "size": 134,
      "vsize": 134,
      "weight": 536,
      "locktime": 0,
      "vin": [
        {
          "coinbase": "04ffff001d0138",
          "sequence": 4294967295
        }
      ],
      "vout": [
        {
          "value": 50.0,
          "n": 0,
          "scriptPubKey": {
            "asm": "049ee53d6030caf15fa29029fa3255427f46e45f3f2075859e720ba547d2d554d7cd0ccf7297c77f4a1209accb968b3cca3e9e42e374b7a964e9ea7b53c3d12503 OP_CHECKSIG",
            "desc": "pk(049ee53d6030caf15fa29029fa3255427f46e45f3f2075859e720ba547d2d554d7cd0ccf7297c77f4a1209accb968b3cca3e9e42e374b7a964e9ea7b53c3d12503)#dr8k0h46",
            "hex": "41049ee53d6030caf15fa29029fa3255427f46e45f3f2075859e720ba547d2d554d7cd0ccf7297c77f4a1209accb968b3cca3e9e42e374b7a964e9ea7b53c3d12503ac",
            "type": "pubkey"
          }
        }
      ],
      "hex": "01000000010000000000000000000000000000000000000000000000000000000000000000ffffffff0704ffff001d0138ffffffff0100f2052a010000004341049ee53d6030caf15fa29029fa3255427f46e45f3f2075859e720ba547d2d554d7cd0ccf7297c77f4a1209accb968b3cca3e9e42e374b7a964e9ea7b53c3d12503ac00000000"
    }
  ]
}