{
  "hash": "0000000092a762e2e74308fc7d649a52e8b60455d10429b417be16adf005c13d",
  "confirmations": 49945,
  "height": 3153,
  "version": 1,
  "versionHex": "00000001",
  "merkleroot": "02ef10508233b4b942c1f37a7ba9b65c141cd99c0045595836edc5b06aeb982b",
  "time": 1233869322,
  "mediantime": 1233865542,
  "nonce": 59577378,
  "bits": "1d00ffff",
  "difficulty": 1,
  "chainwork": "00000000000000000000000000000000000000000000000000000c520c520c52",
  "nTx": 1,
  "previousblockhash": "00000000c7dbed2ee7e87f6aa4f139d1a8b47ed721aae6ef11b66872a3a81ad5",
  "nextblockhash": "00000000b26a3295d00933c2aaa73bca19a3b643b0ad9c72545592527d10aa91",
  "strippedsize": 216,
  "size": 216,
  "weight": 864,
  "tx": [
    {
      "txid": "02ef10508233b4b942c1f37a7ba9b65c141cd99c0045595836edc5b06aeb982b",
      "hash": "02ef10508233b4b942c1f37a7ba9b65c141cd99c0045595836edc5b06aeb982b",
      "version": 1,
      "size": 135,
      "vsize": 135,
      "weight": 540,
      "locktime": 0,
      "vin": [
        {
          "coinbase": "04ffff001d020b02",
          "sequence": 4294967295
        }
      ],
      "vout": [
        {
          "value": 50.0,
          "n": 0,
          "scriptPubKey": {
            "asm": "0469d01964b3c80e3dfd7aea64a68fc59d9bbb3fd5cd2226f716244d79a92c10e7330c8c369d8b487b71bdda95307e930a574e11af8b2a9c4d74db68028b5e115f OP_CHECKSIG",
            "desc": "pk(0469d01964b3c80e3dfd7aea64a68fc59d9bbb3fd5cd2226f716244d79a92c10e7330c8c369d8b487b71bdda95307e930a574e11af8b2a9c4d74db68028b5e115f)#cxe8yv2t",
            "hex": "410469d01964b3c80e3dfd7aea64a68fc59d9bbb3fd5cd2226f716244d79a92c10e7330c8c369d8b487b71bdda95307e930a574e11af8b2a9c4d74db68028b5e115fac",
            "type": "pubkey"
          }
        }
      ],
      "hex": "01000000010000000000000000000000000000000000000000000000000000000000000000ffffffff0804ffff001d020b02ffffffff0100f2052a0100000043410469d01964b3c80e3dfd7aea64a68fc59d9bbb3fd5cd2226f716244d79a92c10e7330c8c369d8b487b71bdda95307e930a574e11af8b2a9c4d74db68028b5e115fac00000000"
    }
  ]
}