{
  "hash": "000000002e8da323ef670b4a8414303080298e3139a8506cc02e3137a5523166",
  "confirmations": 52175,
  "height": 923,
  "version": 1,
  "versionHex": "00000001",
  "merkleroot": "896f2a0db78a20d5deccb8ff050b2cd9ba000000b342ae9d80701da030306fa3",
  "time": 1232294096,
  "mediantime": 1232290270,
  "nonce": 72874710,
  "bits": "1d00ffff",
  "difficulty": 1,
  "chainwork": "0000000000000000000000000000000000000000000000000000039c039c039c",
  "nTx": 1,
  "previousblockhash": "00000000962e841023ce2177e1975f029b13a1fb3fc0a1c537e9f2a19ead5d34",
  "nextblockhash": "000000009b1a5822fee94f2f3dbf32b404169d88d9afb5e9b6735070a3a00d86",
  "strippedsize": 215,
  "size": 215,
  "weight": 860,
  "tx": [
    {
      "txid": "896f2a0db78a20d5deccb8ff050b2cd9ba000000b342ae9d80701da030306fa3",
      "hash": "896f2a0db78a20d5deccb8ff050b2cd9ba000000b342ae9d80701da030306fa3",
      "version": 1,
      "size": 134,
      "vsize": 134,
      "weight": 536,
      "locktime": 0,
      "vin": [
        {
          "coinbase": "04ffff001d016e",
          "sequence": 4294967295
        }
      ],
      "vout": [
        {
          "value": 50.0,
          "n": 0,
          "scriptPubKey": {
            "asm": "04fff5ab6184d556eacdd490af3c212dba4524ca295790ca7fe3ae8cb694eefcf0c84ecee31cb8a846dd0c123325e67fae2ae4b3ad8e070fc9e088868b3448e528 OP_CHECKSIG",
            "desc": "pk(04fff5ab6184d556eacdd490af3c212dba4524ca295790ca7fe3ae8cb694eefcf0c84ecee31cb8a846dd0c123325e67fae2ae4b3ad8e070fc9e088868b3448e528)#thwskt5c",
            "hex": "4104fff5ab6184d556eacdd490af3c212dba4524ca295790ca7fe3ae8cb694eefcf0c84ecee31cb8a846dd0c123325e67fae2ae4b3ad8e070fc9e088868b3448e528ac",
            "type": "pubkey"
          }
        }
      ],
      "hex": "01000000010000000000000000000000000000000000000000000000000000000000000000ffffffff0704ffff001d016effffffff0100f2052a01000000434104fff5ab6184d556eacdd490af3c212dba4524ca295790ca7fe3ae8cb694eefcf0c84ecee31cb8a846dd0c123325e67fae2ae4b3ad8e070fc9e088868b3448e528ac00000000"
    }
  ]
}