{
  "hash": "000000004aed3ecd7f4eee639eacb046187f06ec5baf02c8434134f914d3156f",
  "confirmations": 44460,
  "height": 8638,
  "version": 1,
  "versionHex": "00000001",
  "merkleroot": "a33684768e140aacb756a2b1b0bfb08f0fbe9ea91a7278d177e9899298c45414",
  "time": 1237974753,
  "mediantime": 1237970877,
  "nonce": 3019790133,
  "bits": "1d00ffff",
  "difficulty": 1,
  "chainwork": "000000000000000000000000000000000000000000000000000021bf21bf21bf",
  "nTx": 1,
  "previousblockhash": "00000000aeace44d57a51c231a1b5e9a0edc21b77c32503c0b0c186161ce4e17",
  "nextblockhash": "00000000377dcac7a06bcca10db790c2fbfe7b670eb9afdf2351e2679f3076da",
  "strippedsize": 216,
  "size": 216,
  "weight": 864,
  "tx": [
    {
      "txid": "a33684768e140aacb756a2b1b0bfb08f0fbe9ea91a7278d177e9899298c45414",
      "hash": "a33684768e140aacb756a2b1b0bfb08f0fbe9ea91a7278d177e9899298c45414",
      "version": 1,
      "size": 135,
      "vsize": 135,
      "weight": 540,
      "locktime": 0,
      "vin": [
        {
          "coinbase": "04ffff001d02190a",
          "sequence": 4294967295
        }
      ],
      "vout": [
        {
          "value": 50.0,
          "n": 0,
          "scriptPubKey": {
            "asm": "04f527b0b72d6f8b8bc5e040cc156930bd1b45033a867353726f326c4835aebe48780039bcb26b1e02dd4dfff094e49246e04c7ee270847d2b7169cd6a7bb10644 OP_CHECKSIG",
            "desc": "pk(04f527b0b72d6f8b8bc5e040cc156930bd1b45033a867353726f326c4835aebe48780039bcb26b1e02dd4dfff094e49246e04c7ee270847d2b7169cd6a7bb10644)#8902v3pp",
            "hex": "4104f527b0b72d6f8b8bc5e040cc156930bd1b45033a867353726f326c4835aebe48780039bcb26b1e02dd4dfff094e49246e04c7ee270847d2b7169cd6a7bb10644ac",
            "type": "pubkey"
          }
        }
      ],
      "hex": "01000000010000000000000000000000000000000000000000000000000000000000000000ffffffff0804ffff001d02190affffffff0100f2052a01000000434104f527b0b72d6f8b8bc5e040cc156930bd1b45033a867353726f326c4835aebe48780039bcb26b1e02dd4dfff094e49246e04c7ee270847d2b7169cd6a7bb10644ac00000000"
    }
  ]
}