{
  "hash": "0000000015192eb76ed385c70f4a81b99016d6118f02ab736c2d75cd1c87b4dd",
  "confirmations": 50538,
  "height": 2560,
  "version": 1,
  "versionHex": "00000001",
  "merkleroot": "6d7dbeaf58b901706fccebb02d222fca8baf03bc9c4c418617e236990599c18a",
  "time": 1233461378,
  "mediantime": 1233458518,
  "nonce": 3488495407,
  "bits": "1d00ffff",
  "difficulty": 1,
  "chainwork": "00000000000000000000000000000000000000000000000000000a010a010a01",
  "nTx": 1,
  "previousblockhash": "0000000037ba3b25d293d04601644c4dc8dc504762a161f3cac43ba7347524dd",
  "nextblockhash": "000000003bf807ef4c12b66a98e9e21f6fceadc950085b35e2c58583d854b3ff",
  "strippedsize": 216,
  "size": 216,
  "weight": 864,
  "tx": [
    {
      "txid": "6d7dbeaf58b901706fccebb02d222fca8baf03bc9c4c418617e236990599c18a",
      "hash": "6d7dbeaf58b901706fccebb02d222fca8baf03bc9c4c418617e236990599c18a",
      "version": 1,
      "size": 135,
      "vsize": 135,
      "weight": 540,
      "locktime": 0,
      "vin": [
        {
          "coinbase": "04ffff001d022102",
          "sequence": 4294967295
        }
      ],
      "vout": [
        {
          "value": 50.0,
          "n": 0,
          "scriptPubKey": {
            "asm": "0466c82226fb6cf4e4471e5d506fc4b6f723ee1a13dc3beac4e5a9bf03c49c9c4d7dd35d9085dbe4291f379ec7a3be256c8fd6aa250471f9c65345d69e82f6b183 OP_CHECKSIG",
            "desc": "pk(0466c82226fb6cf4e4471e5d506fc4b6f723ee1a13dc3beac4e5a9bf03c49c9c4d7dd35d9085dbe4291f379ec7a3be256c8fd6aa250471f9c65345d69e82f6b183)#xhpk9958",
            "hex": "410466c82226fb6cf4e4471e5d506fc4b6f723ee1a13dc3beac4e5a9bf03c49c9c4d7dd35d9085dbe4291f379ec7a3be256c8fd6aa250471f9c65345d69e82f6b183ac",
            "type": "pubkey"
          }
        }
      ],
      "hex": "01000000010000000000000000000000000000000000000000000000000000000000000000ffffffff0804ffff001d022102ffffffff0100f2052a0100000043410466c82226fb6cf4e4471e5d506fc4b6f723ee1a13dc3beac4e5a9bf03c49c9c4d7dd35d9085dbe4291f379ec7a3be256c8fd6aa250471f9c65345d69e82f6b183ac00000000"
    }
  ]
}