{
  "hash": "000000007a76955778103f04708db5b1c405c6bec139b5d9238ace78c3271491",
  "confirmations": 44156,
  "height": 8942,
  "version": 1,
  "versionHex": "00000001",
  "merkleroot": "9db0ed10171fe08ae66b23a67318444f2e298dfb4d9533df60ba18ad63d7a43c",
  "time": 1238210239,
  "mediantime": 1238206350,
  "nonce": 379651586,
  "bits": "1d00ffff",
  "difficulty": 1,
  "chainwork": "000000000000000000000000000000000000000000000000000022ef22ef22ef",
  "nTx": 1,
  "previousblockhash": "00000000a035c95dd3a6899a4bf6c2be6d45a0b18b6865fb03122b016edfb7e6",
  "nextblockhash": "000000007b6e0cc6e6eecf10dadc977015d80140f3b425698bdec888a893a5d4",
  "strippedsize": 216,
  "size": 216,
  "weight": 864,
  "tx": [
    {
      "txid": "9db0ed10171fe08ae66b23a67318444f2e298dfb4d9533df60ba18ad63d7a43c",
      "hash": "9db0ed10171fe08ae66b23a67318444f2e298dfb4d9533df60ba18ad63d7a43c",
      "version": 1,
      "size": 135,
      "vsize": 135,
      "weight": 540,
      "locktime": 0,
      "vin": [
        {
          "coinbase": "04ffff001d025705",
          "sequence": 4294967295
        }
      ],
      "vout": [
        {
          "value": 50.0,
          "n": 0,
          "scriptPubKey": {
            "asm": "0433c153ae0374975474361301c464a2eff055bf3c91bb11f097f158289e8ba84880f1cd2ad0fdffba7dec6b89006d7df3097e0ac7b36161f22494112990c54893 OP_CHECKSIG",
            "desc": "pk(0433c153ae0374975474361301c464a2eff055bf3c91bb11f097f158289e8ba84880f1cd2ad0fdffba7dec6b89006d7df3097e0ac7b36161f22494112990c54893)#qtqer47q",
            "hex": "410433c153ae0374975474361301c464a2eff055bf3c91bb11f097f158289e8ba84880f1cd2ad0fdffba7dec6b89006d7df3097e0ac7b36161f22494112990c54893ac",
            "type": "pubkey"
          }
        }
      ],
      "hex": "01000000010000000000000000000000000000000000000000000000000000000000000000ffffffff0804ffff001d025705ffffffff0100f2052a0100000043410433c153ae0374975474361301c464a2eff055bf3c91bb11f097f158289e8ba84880f1cd2ad0fdffba7dec6b89006d7df3097e0ac7b36161f22494112990c54893ac00000000"
    }
  ]
}