{
  "hash": "00000000ac60be46c3f78d9ef740ea974d910a7f51b0f0befdcfe0400469a80d",
  "confirmations": 50807,
  "height": 2291,
  "version": 1,
  "versionHex": "00000001",
  "merkleroot": "6b13786df48ed07b78795bfc7adc2284c13a0ba4291e0ca30ed57077a6e6feae",
  "time": 1233274670,
  "mediantime": 1233271777,
  "nonce": 1468298276,
  "bits": "1d00ffff",
  "difficulty": 1,
  "chainwork": "000000000000000000000000000000000000000000000000000008f408f408f4",
  "nTx": 1,
  "previousblockhash": "0000000087d58cfbda325f0e0c1a6d7c9653284952a737b7a6daa048836bb423",
  "nextblockhash": "00000000f428507fbe8d6d33c51180fba0c9fa5bb937430d86d84ac649f6fd1a",
  "strippedsize": 216,
  "size": 216,
  "weight": 864,
  "tx": [
    {
      "txid": "6b13786df48ed07b78795bfc7adc2284c13a0ba4291e0ca30ed57077a6e6feae",
      "hash": "6b13786df48ed07b78795bfc7adc2284c13a0ba4291e0ca30ed57077a6e6feae",
      "version": 1,
      "size": 135,
      "vsize": 135,
      "weight": 540,
      "locktime": 0,
      "vin": [
        {
          "coinbase": "04ffff001d029101",
          "sequence": 4294967295
        }
      ],
      "vout": [
        {
          "value": 50.0,
          "n": 0,
          "scriptPubKey": {
            "asm": "047104229dc8ee0975f3e549e53e72ccbb57b48bcd3b52b60f6a5ac81d872b4bafd415bacd9baf8833c0422a08f78d9f8d396a7356444da041bacec5844e5fa316 OP_CHECKSIG",
            "desc": "pk(047104229dc8ee0975f3e549e53e72ccbb57b48bcd3b52b60f6a5ac81d872b4bafd415bacd9baf8833c0422a08f78d9f8d396a7356444da041bacec5844e5fa316)#9mjjgcfm",
            "hex": "41047104229dc8ee0975f3e549e53e72ccbb57b48bcd3b52b60f6a5ac81d872b4bafd415bacd9baf8833c0422a08f78d9f8d396a7356444da041bacec5844e5fa316ac",
            "type": "pubkey"
          }
        }
      ],
      "hex": "01000000010000000000000000000000000000000000000000000000000000000000000000ffffffff0804ffff001d029101ffffffff0100f2052a010000004341047104229dc8ee0975f3e549e53e72ccbb57b48bcd3b52b60f6a5ac81d872b4bafd415bacd9baf8833c0422a08f78d9f8d396a7356444da041bacec5844e5fa316ac00000000"
    }
  ]
}