{
  "hash": "00000000929527c680e5fcab95d915ea5d690d2fee0b6741b8ff34016f0c1acd",
  "confirmations": 52332,
  "height": 766,
  "version": 1,
  "versionHex": "00000001",
  "merkleroot": "3e3946e76ac0b59a432fc789fd7888b100a50b39ff2f6aa8a45892e9ebb88d21",
  "time": 1232164242,
  "mediantime": 1232159437,
  "nonce": 2954443270,
  "bits": "1d00ffff",
  "difficulty": 1,
  "chainwork": "000000000000000000000000000000000000000000000000000002ff02ff02ff",
  "nTx": 1,
  "previousblockhash": "000000009dc6f775548971151fc86491ebc626057e9f5be06ab36421717d52bf",
  "nextblockhash": "000000002ba5875b0cfb046a7d16da3b3fca7fc4c31935d470db3883c593c98e",
  "strippedsize": 216,
  "size": 216,
  "weight": 864,
  "tx": [
    {
      "txid": "3e3946e76ac0b59a432fc789fd7888b100a50b39ff2f6aa8a45892e9ebb88d21",
      "hash": "3e3946e76ac0b59a432fc789fd7888b100a50b39ff2f6aa8a45892e9ebb88d21",
      "version": 1,
      "size": 135,
      "vsize": 135,
      "weight": 540,
      "locktime": 0,
      "vin": [
        {
          "coinbase": "04ffff001d02dc00",
          "sequence": 4294967295
        }
      ],
      "vout": [
        {
          "value": 50.0,
          "n": 0,
          "scriptPubKey": {
            "asm": "0487982b377bbb9fa0a3a9868320d383fdd05295c9cae171ada255a76c045877fa236cc0d665d595ef82101727e12f6fee1370abfe45c1f9b2524756f0c521654c OP_CHECKSIG",
            "desc": "pk(0487982b377bbb9fa0a3a9868320d383fdd05295c9cae171ada255a76c045877fa236cc0d665d595ef82101727e12f6fee1370abfe45c1f9b2524756f0c521654c)#6l3yg4yk",
            "hex": "410487982b377bbb9fa0a3a9868320d383fdd05295c9cae171ada255a76c045877fa236cc0d665d595ef82101727e12f6fee1370abfe45c1f9b2524756f0c521654cac",
            "type": "pubkey"
          }
        }
      ],
      "hex": "01000000010000000000000000000000000000000000000000000000000000000000000000ffffffff0804ffff001d02dc00ffffffff0100f2052a0100000043410487982b377bbb9fa0a3a9868320d383fdd05295c9cae171ada255a76c045877fa236cc0d665d595ef82101727e12f6fee1370abfe45c1f9b2524756f0c521654cac00000000"
    }
  ]
}