{
  "hash": "00000000a7d1c579bf9d01fa43e5914d204640aa5480f058aee2190ecd82fff7",
  "confirmations": 51828,
  "height": 1270,
  "version": 1,
  "versionHex": "00000001",
  "merkleroot": "1489ff50da03eb49665eb99fd72e13e021c7fd4ffb6f5ceb1ac1a7ce86c711d3",
  "time": 1232551580,
  "mediantime": 1232550102,
  "nonce": 27949551,
  "bits": "1d00ffff",
  "difficulty": 1,
  "chainwork": "000000000000000000000000000000000000000000000000000004f704f704f7",
  "nTx": 1,
  "previousblockhash": "00000000edf259616118e0c412d65ab12c546de5f6517c61891fc3b4376e6b2f",
  "nextblockhash": "00000000a51d677a650f458903657e41da551d386ea91a17273c38370ca83f17",
  "strippedsize": 215,
  "size": 215,
  "weight": 860,
  "tx": [
    {
      "txid": "1489ff50da03eb49665eb99fd72e13e021c7fd4ffb6f5ceb1ac1a7ce86c711d3",
      "hash": "1489ff50da03eb49665eb99fd72e13e021c7fd4ffb6f5ceb1ac1a7ce86c711d3",
      "version": 1,
      "size": 134,
      "vsize": 134,
      "weight": 536,
      "locktime": 0,
      "vin": [
        {
          "coinbase": "04ffff001d0106",
          "sequence": 4294967295
        }
      ],
      "vout": [
        {
          "value": 50.0,
          "n": 0,
          "scriptPubKey": {
            "asm": "046f831f9d757155075082cb19064d8bc525aeea0280340dc0a375afe96ab0ca72be277896c69666446c5f4412d9275ee4abd2d1d3bee6186bf61c5876faa6d8b5 OP_CHECKSIG",
            "desc": "pk(046f831f9d757155075082cb19064d8bc525aeea0280340dc0a375afe96ab0ca72be277896c69666446c5f4412d9275ee4abd2d1d3bee6186bf61c5876faa6d8b5)#sam0wnsd",
            "hex": "41046f831f9d757155075082cb19064d8bc525aeea0280340dc0a375afe96ab0ca72be277896c69666446c5f4412d9275ee4abd2d1d3bee6186bf61c5876faa6d8b5ac",
            "type": "pubkey"
          }
        }
      ],
      "hex": "01000000010000000000000000000000000000000000000000000000000000000000000000ffffffff0704ffff001d0106ffffffff0100f2052a010000004341046f831f9d757155075082cb19064d8bc525aeea0280340dc0a375afe96ab0ca72be277896c69666446c5f4412d9275ee4abd2d1d3bee6186bf61c5876faa6d8b5ac00000000"
    }
  ]
}