{
  "hash": "000000005f5e2da1c33bc6d86e8a06412b662aad01d3b931b3d3e1948092d447",
  "confirmations": 44466,
  "height": 8632,
  "version": 1,
  "versionHex": "00000001",
  "merkleroot": "cf0bb1f650575e1dd1a4432f99ea832051036e24fa48b8fbb8058eee3edd9004",
  "time": 1237970391,
  "mediantime": 1237967434,
  "nonce": 555461639,
  "bits": "1d00ffff",
  "difficulty": 1,
  "chainwork": "000000000000000000000000000000000000000000000000000021b921b921b9",
  "nTx": 1,
  "previousblockhash": "000000009bbb1f2b7f1256f8ba6a7a21811f02ab84267f30f8a97284b358b663",
  "nextblockhash": "00000000e1890040f7ae27ee86da324af47712fec7e8c5d4614509238536b96c",
  "strippedsize": 216,
  "size": 216,
  "weight": 864,
  "tx": [
    {
      "txid": "cf0bb1f650575e1dd1a4432f99ea832051036e24fa48b8fbb8058eee3edd9004",
      "hash": "cf0bb1f650575e1dd1a4432f99ea832051036e24fa48b8fbb8058eee3edd9004",
      "version": 1,
      "size": 135,
      "vsize": 135,
      "weight": 540,
      "locktime": 0,
      "vin": [
        {
          "coinbase": "04ffff001d02080a",
          "sequence": 4294967295
        }
      ],
      "vout": [
        {
          "value": 50.0,
          "n": 0,
          "scriptPubKey": {
            "asm": "04bca58a1900a43131ba435b23a9190442b8ad2e71ca1c6e870bdbad27d39117df87cc4119a8c487c44e25b9c6e1a8c12aaefbfcf3c3a734924acbc1ee77f47fe3 OP_CHECKSIG",
            "desc": "pk(04bca58a1900a43131ba435b23a9190442b8ad2e71ca1c6e870bdbad27d39117df87cc4119a8c487c44e25b9c6e1a8c12aaefbfcf3c3a734924acbc1ee77f47fe3)#79dq4pa4",
            "hex": "4104bca58a1900a43131ba435b23a9190442b8ad2e71ca1c6e870bdbad27d39117df87cc4119a8c487c44e25b9c6e1a8c12aaefbfcf3c3a734924acbc1ee77f47fe3ac",
            "type": "pubkey"
          }
        }
      ],
      "hex": "01000000010000000000000000000000000000000000000000000000000000000000000000ffffffff0804ffff001d02080affffffff0100f2052a01000000434104bca58a1900a43131ba435b23a9190442b8ad2e71ca1c6e870bdbad27d39117df87cc4119a8c487c44e25b9c6e1a8c12aaefbfcf3c3a734924acbc1ee77f47fe3ac00000000"
    }
  ]
}