{
  "hash": "00000000e091021c9c581d957341a0894622344cdd72a4e898e01876db09b05c",
  "confirmations": 43757,
  "height": 9341,
  "version": 1,
  "versionHex": "00000001",
  "merkleroot": "1787a224a96ff6ceb3ebef8fbd614e381f30ffa3f4456ba1b9b1ac18bd6375a5",
  "time": 1238504173,
  "mediantime": 1238501094,
  "nonce": 2497600561,
  "bits": "1d00ffff",
  "difficulty": 1,
  "chainwork": "0000000000000000000000000000000000000000000000000000247e247e247e",
  "nTx": 1,
  "previousblockhash": "000000006486e9b59af9a133b725ec47e6041929d874d290870d98805584ca67",
  "nextblockhash": "000000001ef7b402e03f61d59193a80619d021eadd267c254417d99f222d6784",
  "strippedsize": 216,
  "size": 216,
  "weight": 864,
  "tx": [
    {
      "txid": "1787a224a96ff6ceb3ebef8fbd614e381f30ffa3f4456ba1b9b1ac18bd6375a5",
      "hash": "1787a224a96ff6ceb3ebef8fbd614e381f30ffa3f4456ba1b9b1ac18bd6375a5",
      "version": 1,
      "size": 135,
      "vsize": 135,
      "weight": 540,
      "locktime": 0,
      "vin": [
        {
          "coinbase": "04ffff001d028202",
          "sequence": 4294967295
        }
      ],
      "vout": [
        {
          "value": 50.0,
          "n": 0,
          "scriptPubKey": {
            "asm": "046afeb9908cd731350236499d344a0de90c17c53f93eb5c3ccd25517cf8054be48a1ce50f1d92bdbd576d8a8305704cd772c1badc2922f2d7b9a89898c85764e9 OP_CHECKSIG",
            "desc": "pk(046afeb9908cd731350236499d344a0de90c17c53f93eb5c3ccd25517cf8054be48a1ce50f1d92bdbd576d8a8305704cd772c1badc2922f2d7b9a89898c85764e9)#tsxrvmw9",
            "hex": "41046afeb9908cd731350236499d344a0de90c17c53f93eb5c3ccd25517cf8054be48a1ce50f1d92bdbd576d8a8305704cd772c1badc2922f2d7b9a89898c85764e9ac",
            "type": "pubkey"
          }
        }
      ],
      "hex": "01000000010000000000000000000000000000000000000000000000000000000000000000ffffffff0804ffff001d028202ffffffff0100f2052a010000004341046afeb9908cd731350236499d344a0de90c17c53f93eb5c3ccd25517cf8054be48a1ce50f1d92bdbd576d8a8305704cd772c1badc2922f2d7b9a89898c85764e9ac00000000"
    }
  ]
}