{
  "hash": "00000000c76b0b67575a8735b8321399bc61c492b3b894150e751ea25205fc1a",
  "confirmations": 44049,
  "height": 9049,
  "version": 1,
  "versionHex": "00000001",
  "merkleroot": "84ec5e7b8dbedfaa5cac2cef3f974947c96a5b47513f05c9432d7b474e7ca5b8",
  "time": 1238292007,
  "mediantime": 1238284996,
  "nonce": 330290724,
  "bits": "1d00ffff",
  "difficulty": 1,
  "chainwork": "0000000000000000000000000000000000000000000000000000235a235a235a",
  "nTx": 1,
  "previousblockhash": "000000001247f067f39b80d4f0ebc77bd6e44ad520d48dcae476c791b190117b",
  "nextblockhash": "000000009a3062e2131984c6cf0b589c1eff5c9a50ff663c23e39670d325ee26",
  "strippedsize": 216,
  "size": 216,
  "weight": 864,
  "tx": [
    {
      "txid": "84ec5e7b8dbedfaa5cac2cef3f974947c96a5b47513f05c9432d7b474e7ca5b8",
      "hash": "84ec5e7b8dbedfaa5cac2cef3f974947c96a5b47513f05c9432d7b474e7ca5b8",
      "version": 1,
      "size": 135,
      "vsize": 135,
      "weight": 540,
      "locktime": 0,
      "vin": [
        {
          "coinbase": "04ffff001d023a07",
          "sequence": 4294967295
        }
      ],
      "vout": [
        {
          "value": 50.0,
          "n": 0,
          "scriptPubKey": {
            "asm": "04cfed3b08f1ea9dcd00d5a41746cb6bca48afab7f6b43fd2eec65609e1d0c1b09feb68b3d8b44a35bd4566aebfc11b45d831d45be6c71b3f8c6af7055fc567aa1 OP_CHECKSIG",
            "desc": "pk(04cfed3b08f1ea9dcd00d5a41746cb6bca48afab7f6b43fd2eec65609e1d0c1b09feb68b3d8b44a35bd4566aebfc11b45d831d45be6c71b3f8c6af7055fc567aa1)#gwsjpr72",
            "hex": "4104cfed3b08f1ea9dcd00d5a41746cb6bca48afab7f6b43fd2eec65609e1d0c1b09feb68b3d8b44a35bd4566aebfc11b45d831d45be6c71b3f8c6af7055fc567aa1ac",
            "type": "pubkey"
          }
        }
      ],
      "hex": "01000000010000000000000000000000000000000000000000000000000000000000000000ffffffff0804ffff001d023a07ffffffff0100f2052a01000000434104cfed3b08f1ea9dcd00d5a41746cb6bca48afab7f6b43fd2eec65609e1d0c1b09feb68b3d8b44a35bd4566aebfc11b45d831d45be6c71b3f8c6af7055fc567aa1ac00000000"
    }
  ]
}