{
  "hash": "0000000051047cd40e4eedaf77e20d928aacf6e00d5eff248f4bf76c0220e16f",
  "confirmations": 50665,
  "height": 2433,
  "version": 1,
  "versionHex": "00000001",
  "merkleroot": "63e0b003f01a372442e97b4a7907413e7a8e063b30c6f57e8ebc941c6ced3466",
  "time": 1233380038,
  "mediantime": 1233375387,
  "nonce": 1225549865,
  "bits": "1d00ffff",
  "difficulty": 1,
  "chainwork": "0000000000000000000000000000000000000000000000000000098209820982",
  "nTx": 1,
  "previousblockhash": "000000004919b23c81fa5ffec029f005fa9bfd25851a9605b1fcc280e830c74c",
  "nextblockhash": "00000000d2ad57633e3f5c1e01993fe32f8570d6f38c09d8b277130490642c27",
  "strippedsize": 215,
  "size": 215,
  "weight": 860,
  "tx": [
    {
      "txid": "63e0b003f01a372442e97b4a7907413e7a8e063b30c6f57e8ebc941c6ced3466",
      "hash": "63e0b003f01a372442e97b4a7907413e7a8e063b30c6f57e8ebc941c6ced3466",
      "version": 1,
      "size": 134,
      "vsize": 134,
      "weight": 536,
      "locktime": 0,
      "vin": [
        {
          "coinbase": "04ffff001d0143",
          "sequence": 4294967295
        }
      ],
      "vout": [
        {
          "value": 50.0,
          "n": 0,
          "scriptPubKey": {
            "asm": "049f4dec5a751b1088339a87a0159944e93f73eb89647c326dcf92ae3e52fcfd6ea45f2c79724e9396a72a33039dba0d2b903491d03798d4a14176dc920ceb8605 OP_CHECKSIG",
            "desc": "pk(049f4dec5a751b1088339a87a0159944e93f73eb89647c326dcf92ae3e52fcfd6ea45f2c79724e9396a72a33039dba0d2b903491d03798d4a14176dc920ceb8605)#9tq5gnyz",
            "hex": "41049f4dec5a751b1088339a87a0159944e93f73eb89647c326dcf92ae3e52fcfd6ea45f2c79724e9396a72a33039dba0d2b903491d03798d4a14176dc920ceb8605ac",
            "type": "pubkey"
          }
        }
      ],
      "hex": "01000000010000000000000000000000000000000000000000000000000000000000000000ffffffff0704ffff001d0143ffffffff0100f2052a010000004341049f4dec5a751b1088339a87a0159944e93f73eb89647c326dcf92ae3e52fcfd6ea45f2c79724e9396a72a33039dba0d2b903491d03798d4a14176dc920ceb8605ac00000000"
    }
  ]
}