{
  "hash": "0000000040ee86ddeadce4fbc458d37e6acae8cf4f220354a186d79a0c7a8b15",
  "confirmations": 43781,
  "height": 9317,
  "version": 1,
  "versionHex": "00000001",
  "merkleroot": "a4202ad23680d2a1267e40f6568f9b945271cdd84087abd5ceac9250008ea3e5",
  "time": 1238487447,
  "mediantime": 1238484105,
  "nonce": 50748626,
  "bits": "1d00ffff",
  "difficulty": 1,
  "chainwork": "0000000000000000000000000000000000000000000000000000246624662466",
  "nTx": 1,
  "previousblockhash": "00000000d32bc5ec519824ce94f22577e79e067a5e1cde93c9f6325a2cdac198",
  "nextblockhash": "000000009da588f7c54afef0760b5808b55472a1e8a9b919d2d47a7fa0c0e6c9",
  "strippedsize": 216,
  "size": 216,
  "weight": 864,
  "tx": [
    {
      "txid": "a4202ad23680d2a1267e40f6568f9b945271cdd84087abd5ceac9250008ea3e5",
      "hash": "a4202ad23680d2a1267e40f6568f9b945271cdd84087abd5ceac9250008ea3e5",
      "version": 1,
      "size": 135,
      "vsize": 135,
      "weight": 540,
      "locktime": 0,
      "vin": [
        {
          "coinbase": "04ffff001d024c09",
          "sequence": 4294967295
        }
      ],
      "vout": [
        {
          "value": 50.0,
          "n": 0,
          "scriptPubKey": {
            "asm": "04a0337a8ae4524403b8a46d6a43d5d7bffc7bbf3263e0830b404b309f3406b628a4fe25f22c38fcf4afbb5a1aad750650afee54cf6cc1357f2fba018bc1c70548 OP_CHECKSIG",
            "desc": "pk(04a0337a8ae4524403b8a46d6a43d5d7bffc7bbf3263e0830b404b309f3406b628a4fe25f22c38fcf4afbb5a1aad750650afee54cf6cc1357f2fba018bc1c70548)#c24e75j0",
            "hex": "4104a0337a8ae4524403b8a46d6a43d5d7bffc7bbf3263e0830b404b309f3406b628a4fe25f22c38fcf4afbb5a1aad750650afee54cf6cc1357f2fba018bc1c70548ac",
            "type": "pubkey"
          }
        }
      ],
      "hex": "01000000010000000000000000000000000000000000000000000000000000000000000000ffffffff0804ffff001d024c09ffffffff0100f2052a01000000434104a0337a8ae4524403b8a46d6a43d5d7bffc7bbf3263e0830b404b309f3406b628a4fe25f22c38fcf4afbb5a1aad750650afee54cf6cc1357f2fba018bc1c70548ac00000000"
    }
  ]
}