{
  "hash": "00000000965bb293914b76c04e260e10a7cfcbc8ed5390719b21c5f3ad916285",
  "confirmations": 44947,
  "height": 8151,
  "version": 1,
  "versionHex": "00000001",
  "merkleroot": "bb2ece0148f6d59fc49dbf24fced7eda9d90ab7613f8974d67554a5acd05de78",
  "time": 1237574767,
  "mediantime": 1237569631,
  "nonce": 202995462,
  "bits": "1d00ffff",
  "difficulty": 1,
  "chainwork": "00000000000000000000000000000000000000000000000000001fd81fd81fd8",
  "nTx": 1,
  "previousblockhash": "00000000a72028741dab34d9e7694d30f0a61f004af107a9ce055b8f82adcf65",
  "nextblockhash": "0000000048f553e934ae3a5bb0f69a69454fbe22b2ec2badb6e2e0db3f8e42c9",
  "strippedsize": 215,
  "size": 215,
  "weight": 860,
  "tx": [
    {
      "txid": "bb2ece0148f6d59fc49dbf24fced7eda9d90ab7613f8974d67554a5acd05de78",
      "hash": "bb2ece0148f6d59fc49dbf24fced7eda9d90ab7613f8974d67554a5acd05de78",
      "version": 1,
      "size": 134,
      "vsize": 134,
      "weight": 536,
      "locktime": 0,
      "vin": [
        {
          "coinbase": "04ffff001d0116",
          "sequence": 4294967295
        }
      ],
      "vout": [
        {
          "value": 50.0,
          "n": 0,
          "scriptPubKey": {
            "asm": "04c8d80c8ad20059e30902c8adbe11c018fb939ccafe9e929604a98863351e8b1398b17412013c1d1104b53b1c4f1d4e794c6336192970774e9ab6cf18dde04d3c OP_CHECKSIG",
            "desc": "pk(04c8d80c8ad20059e30902c8adbe11c018fb939ccafe9e929604a98863351e8b1398b17412013c1d1104b53b1c4f1d4e794c6336192970774e9ab6cf18dde04d3c)#ajx87a9t",
            "hex": "4104c8d80c8ad20059e30902c8adbe11c018fb939ccafe9e929604a98863351e8b1398b17412013c1d1104b53b1c4f1d4e794c6336192970774e9ab6cf18dde04d3cac",
            "type": "pubkey"
          }
        }
      ],
      "hex": "01000000010000000000000000000000000000000000000000000000000000000000000000ffffffff0704ffff001d0116ffffffff0100f2052a01000000434104c8d80c8ad20059e30902c8adbe11c018fb939ccafe9e929604a98863351e8b1398b17412013c1d1104b53b1c4f1d4e794c6336192970774e9ab6cf18dde04d3cac00000000"
    }
  ]
}