{
  "hash": "00000000121b7be05ecb69f74ade200b8d90f39791865064b1c1bf14c22cade7",
  "confirmations": 52154,
  "height": 944,
  "version": 1,
  "versionHex": "00000001",
  "merkleroot": "977e244c9afcab2fc0718ed12311325e4f9748a5b6b688d210bc2e57ce9b4b1e",
  "time": 1232309501,
  "mediantime": 1232306686,
  "nonce": 510586625,
  "bits": "1d00ffff",
  "difficulty": 1,
  "chainwork": "000000000000000000000000000000000000000000000000000003b103b103b1",
  "nTx": 1,
  "previousblockhash": "00000000e9a0e6f8f08cc1ac6198e3ea633bce375316c3d593a6654ec7e08b2d",
  "nextblockhash": "000000002ca3ef739f7e4769c44c29541b6796d5126c2fb7336a2a0add11dfd9",
  "strippedsize": 216,
  "size": 216,
  "weight": 864,
  "tx": [
    {
      "txid": "977e244c9afcab2fc0718ed12311325e4f9748a5b6b688d210bc2e57ce9b4b1e",
      "hash": "977e244c9afcab2fc0718ed12311325e4f9748a5b6b688d210bc2e57ce9b4b1e",
      "version": 1,
      "size": 135,
      "vsize": 135,
      "weight": 540,
      "locktime": 0,
      "vin": [
        {
          "coinbase": "04ffff001d024504",
          "sequence": 4294967295
        }
      ],
      "vout": [
        {
          "value": 50.0,
          "n": 0,
          "scriptPubKey": {
            "asm": "04482afca658cec6f80ac7dd3b953f9651c7c776b0958d4503e2b4cff58e0ba3457c83d18c1ce2bc4ac196d61a7b9134d102095d58a54e1545a2bb2d2cfbad6239 OP_CHECKSIG",
            "desc": "pk(04482afca658cec6f80ac7dd3b953f9651c7c776b0958d4503e2b4cff58e0ba3457c83d18c1ce2bc4ac196d61a7b9134d102095d58a54e1545a2bb2d2cfbad6239)#zp8ca4wc",
            "hex": "4104482afca658cec6f80ac7dd3b953f9651c7c776b0958d4503e2b4cff58e0ba3457c83d18c1ce2bc4ac196d61a7b9134d102095d58a54e1545a2bb2d2cfbad6239ac",
            "type": "pubkey"
          }
        }
      ],
      "hex": "01000000010000000000000000000000000000000000000000000000000000000000000000ffffffff0804ffff001d024504ffffffff0100f2052a01000000434104482afca658cec6f80ac7dd3b953f9651c7c776b0958d4503e2b4cff58e0ba3457c83d18c1ce2bc4ac196d61a7b9134d102095d58a54e1545a2bb2d2cfbad6239ac00000000"
    }
  ]
}