{
  "hash": "00000000402b05fe01a01f6c8cf73d0765407994bc95d5a2d833e1f34f9e653d",
  "confirmations": 43909,
  "height": 9189,
  "version": 1,
  "versionHex": "00000001",
  "merkleroot": "114aec92c4a4849f4169944204090383ed551274f686d3d7c5faf6849ff5143b",
  "time": 1238393211,
  "mediantime": 1238389504,
  "nonce": 1887093545,
  "bits": "1d00ffff",
  "difficulty": 1,
  "chainwork": "000000000000000000000000000000000000000000000000000023e623e623e6",
  "nTx": 1,
  "previousblockhash": "00000000cdf03f5843f16bb40456cbf509280afa5093404a8eb2b76d4d7e694f",
  "nextblockhash": "000000005d2737a4a4c65e7d54dca3c4b257ded4332d0c973ac08521bd4422f5",
  "strippedsize": 216,
  "size": 216,
  "weight": 864,
  "tx": [
    {
      "txid": "114aec92c4a4849f4169944204090383ed551274f686d3d7c5faf6849ff5143b",
      "hash": "114aec92c4a4849f4169944204090383ed551274f686d3d7c5faf6849ff5143b",
      "version": 1,
      "size": 135,
      "vsize": 135,
      "weight": 540,
      "locktime": 0,
      "vin": [
        {
          "coinbase": "04ffff001d02160a",
          "sequence": 4294967295
        }
      ],
      "vout": [
        {
          "value": 50.0,
          "n": 0,
          "scriptPubKey": {
            "asm": "0435661146708217be3fe358c6de054eb0fcb76d6f2cbf9328e7bfdaf38d46643ff341e0e6a606098f383d206717f4c12c921f4cbada50281bcd29dcef8efd1c7f OP_CHECKSIG",
            "desc": "pk(0435661146708217be3fe358c6de054eb0fcb76d6f2cbf9328e7bfdaf38d46643ff341e0e6a606098f383d206717f4c12c921f4cbada50281bcd29dcef8efd1c7f)#d9s3zmsa",
            "hex": "410435661146708217be3fe358c6de054eb0fcb76d6f2cbf9328e7bfdaf38d46643ff341e0e6a606098f383d206717f4c12c921f4cbada50281bcd29dcef8efd1c7fac",
            "type": "pubkey"
          }
        }
      ],
      "hex": "01000000010000000000000000000000000000000000000000000000000000000000000000ffffffff0804ffff001d02160affffffff0100f2052a0100000043410435661146708217be3fe358c6de054eb0fcb76d6f2cbf9328e7bfdaf38d46643ff341e0e6a606098f383d206717f4c12c921f4cbada50281bcd29dcef8efd1c7fac00000000"
    }
  ]
}