{
  "hash": "00000000c65e4d5675d3fbce1218f876bacbfb1853d8b355edd287551660c925",
  "confirmations": 43206,
  "height": 9892,
  "version": 1,
  "versionHex": "00000001",
  "merkleroot": "d60e3a3c9c2dcd05d65b2fcb596b542d75163404a3f8fdff9b7c84739eeba14d",
  "time": 1238918579,
  "mediantime": 1238916731,
  "nonce": 1767151923,
  "bits": "1d00ffff",
  "difficulty": 1,
  "chainwork": "000000000000000000000000000000000000000000000000000026a526a526a5",
  "nTx": 1,
  "previousblockhash": "000000006e5c5d9785de23ac829266f819b36c0bf77beda9d418781c1e163a89",
  "nextblockhash": "0000000020d05bebefaa917fc2396feed526bba2b58bc33d0f903f65d3963213",
  "strippedsize": 216,
  "size": 216,
  "weight": 864,
  "tx": [
    {
      "txid": "d60e3a3c9c2dcd05d65b2fcb596b542d75163404a3f8fdff9b7c84739eeba14d",
      "hash": "d60e3a3c9c2dcd05d65b2fcb596b542d75163404a3f8fdff9b7c84739eeba14d",
      "version": 1,
      "size": 135,
      "vsize": 135,
      "weight": 540,
      "locktime": 0,
      "vin": [
        {
          "coinbase": "04ffff001d02f301",
          "sequence": 4294967295
        }
      ],
      "vout": [
        {
          "value": 50.0,
          "n": 0,
          "scriptPubKey": {
            "asm": "04692fbb75e7665914c94fefa6c7f349c280c57c99375cda4a39a7c551c984532d5f842631badd60df465bb1e998f367954aab7ffdea434c58fa0950f57cfa3fed OP_CHECKSIG",
            "desc": "pk(04692fbb75e7665914c94fefa6c7f349c280c57c99375cda4a39a7c551c984532d5f842631badd60df465bb1e998f367954aab7ffdea434c58fa0950f57cfa3fed)#pj5qq78c",
            "hex": "4104692fbb75e7665914c94fefa6c7f349c280c57c99375cda4a39a7c551c984532d5f842631badd60df465bb1e998f367954aab7ffdea434c58fa0950f57cfa3fedac",
            "type": "pubkey"
          }
        }
      ],
      "hex": "01000000010000000000000000000000000000000000000000000000000000000000000000ffffffff0804ffff001d02f301ffffffff0100f2052a01000000434104692fbb75e7665914c94fefa6c7f349c280c57c99375cda4a39a7c551c984532d5f842631badd60df465bb1e998f367954aab7ffdea434c58fa0950f57cfa3fedac00000000"
    }
  ]
}