{
  "hash": "00000000ec7176c14936cabf8af2baa1834dd6de9e08a1ba6c0189c85a6564d9",
  "confirmations": 45464,
  "height": 7634,
  "version": 1,
  "versionHex": "00000001",
  "merkleroot": "a4846c49672f9cf295e58465f92207651ca3c12d9c95f7eff2febbfb60509ddb",
  "time": 1237191687,
  "mediantime": 1237188774,
  "nonce": 4212662570,
  "bits": "1d00ffff",
  "difficulty": 1,
  "chainwork": "00000000000000000000000000000000000000000000000000001dd31dd31dd3",
  "nTx": 1,
  "previousblockhash": "0000000085e19e9059b4750e379eda377b5d1ba0a992e717608d5960462bddf2",
  "nextblockhash": "000000001d0cfd9d4ff652899e002ee4284cdf5e0a8b8ba766f3fe1fbedd4237",
  "strippedsize": 216,
  "size": 216,
  "weight": 864,
  "tx": [
    {
      "txid": "a4846c49672f9cf295e58465f92207651ca3c12d9c95f7eff2febbfb60509ddb",
      "hash": "a4846c49672f9cf295e58465f92207651ca3c12d9c95f7eff2febbfb60509ddb",
      "version": 1,
      "size": 135,
      "vsize": 135,
      "weight": 540,
      "locktime": 0,
      "vin": [
        {
          "coinbase": "04ffff001d020903",
          "sequence": 4294967295
        }
      ],
      "vout": [
        {
          "value": 50.0,
          "n": 0,
          "scriptPubKey": {
            "asm": "04386098359399c81a24b192102e6034571bd514571bb4997554e919f5097e6b2ee4a525a8a874177d5c7bd3a15e96b15d92f109e9fa888361ffc7d8e4ba49e669 OP_CHECKSIG",
            "desc": "pk(04386098359399c81a24b192102e6034571bd514571bb4997554e919f5097e6b2ee4a525a8a874177d5c7bd3a15e96b15d92f109e9fa888361ffc7d8e4ba49e669)#0j5m9fxl",
            "hex": "4104386098359399c81a24b192102e6034571bd514571bb4997554e919f5097e6b2ee4a525a8a874177d5c7bd3a15e96b15d92f109e9fa888361ffc7d8e4ba49e669ac",
            "type": "pubkey"
          }
        }
      ],
      "hex": "01000000010000000000000000000000000000000000000000000000000000000000000000ffffffff0804ffff001d020903ffffffff0100f2052a01000000434104386098359399c81a24b192102e6034571bd514571bb4997554e919f5097e6b2ee4a525a8a874177d5c7bd3a15e96b15d92f109e9fa888361ffc7d8e4ba49e669ac00000000"
    }
  ]
}