{
  "hash": "00000000f312b1fcbfdf1b5a75d2414e4f3d1e28fd90f2e45c1a4a677cca45f1",
  "confirmations": 48073,
  "height": 5025,
  "version": 1,
  "versionHex": "00000001",
  "merkleroot": "887f9f2bc873cbfa114b5f11e9d5dc79d2b44794cc93bf161192fa1a29072430",
  "time": 1235154781,
  "mediantime": 1235150388,
  "nonce": 499764997,
  "bits": "1d00ffff",
  "difficulty": 1,
  "chainwork": "000000000000000000000000000000000000000000000000000013a213a213a2",
  "nTx": 1,
  "previousblockhash": "00000000bf9d10a122b4b9c96fdd46c270f3e311074dccede28e37f421e634bd",
  "nextblockhash": "00000000c4512a444a69c0671c9b9910624981f7fc6ac5b44b78fd6613f79184",
  "strippedsize": 216,
  "size": 216,
  "weight": 864,
  "tx": [
    {
      "txid": "887f9f2bc873cbfa114b5f11e9d5dc79d2b44794cc93bf161192fa1a29072430",
      "hash": "887f9f2bc873cbfa114b5f11e9d5dc79d2b44794cc93bf161192fa1a29072430",
      "version": 1,
      "size": 135,
      "vsize": 135,
      "weight": 540,
      "locktime": 0,
      "vin": [
        {
          "coinbase": "04ffff001d027a07",
          "sequence": 4294967295
        }
      ],
      "vout": [
        {
          "value": 50.0,
          "n": 0,
          "scriptPubKey": {
            "asm": "048c330f5ee7b59ebb35071aa8a950c359772281cf806551975e827b20b0e5ad8393f4029cf90b8f7eaf2ccaaceaa1883c10bf426d64a7b1c332404d0a4bfefe8b OP_CHECKSIG",
            "desc": "pk(048c330f5ee7b59ebb35071aa8a950c359772281cf806551975e827b20b0e5ad8393f4029cf90b8f7eaf2ccaaceaa1883c10bf426d64a7b1c332404d0a4bfefe8b)#4mxnxzyc",
            "hex": "41048c330f5ee7b59ebb35071aa8a950c359772281cf806551975e827b20b0e5ad8393f4029cf90b8f7eaf2ccaaceaa1883c10bf426d64a7b1c332404d0a4bfefe8bac",
            "type": "pubkey"
          }
        }
      ],
      "hex": "01000000010000000000000000000000000000000000000000000000000000000000000000ffffffff0804ffff001d027a07ffffffff0100f2052a010000004341048c330f5ee7b59ebb35071aa8a950c359772281cf806551975e827b20b0e5ad8393f4029cf90b8f7eaf2ccaaceaa1883c10bf426d64a7b1c332404d0a4bfefe8bac00000000"
    }
  ]
}