{
  "hash": "00000000ccaa7b8ae59f0bc58e7aca6ea7020b433a5127679c5372675519c102",
  "confirmations": 45259,
  "height": 7839,
  "version": 1,
  "versionHex": "00000001",
  "merkleroot": "7abf4a61541a4857bd1508d3af4bcd5e81e95ead443b9c7df208b367f7d58031",
  "time": 1237343523,
  "mediantime": 1237338534,
  "nonce": 3094515712,
  "bits": "1d00ffff",
  "difficulty": 1,
  "chainwork": "00000000000000000000000000000000000000000000000000001ea01ea01ea0",
  "nTx": 1,
  "previousblockhash": "0000000008535274df95b9754828b09cac384a5d9f43453f769219aaccf1cd9a",
  "nextblockhash": "00000000cfaad7de6eef5817f3e42943c8219991aa52f44280e5504607ebd743",
  "strippedsize": 216,
  "size": 216,
  "weight": 864,
  "tx": [
    {
      "txid": "7abf4a61541a4857bd1508d3af4bcd5e81e95ead443b9c7df208b367f7d58031",
      "hash": "7abf4a61541a4857bd1508d3af4bcd5e81e95ead443b9c7df208b367f7d58031",
      "version": 1,
      "size": 135,
      "vsize": 135,
      "weight": 540,
      "locktime": 0,
      "vin": [
        {
          "coinbase": "04ffff001d028206",
          "sequence": 4294967295
        }
      ],
      "vout": [
        {
          "value": 50.0,
          "n": 0,
          "scriptPubKey": {
            "asm": "049907a510f85066ae7ff2237c0a57e9bfbdde5c9a697a97eb1aa0034cdd99beb200822ebac70b5531fc8f6dfd746cb8210d0a018ede2b9e9482d0efdade047515 OP_CHECKSIG",
            "desc": "pk(049907a510f85066ae7ff2237c0a57e9bfbdde5c9a697a97eb1aa0034cdd99beb200822ebac70b5531fc8f6dfd746cb8210d0a018ede2b9e9482d0efdade047515)#haa0j6er",
            "hex": "41049907a510f85066ae7ff2237c0a57e9bfbdde5c9a697a97eb1aa0034cdd99beb200822ebac70b5531fc8f6dfd746cb8210d0a018ede2b9e9482d0efdade047515ac",
            "type": "pubkey"
          }
        }
      ],
      "hex": "01000000010000000000000000000000000000000000000000000000000000000000000000ffffffff0804ffff001d028206ffffffff0100f2052a010000004341049907a510f85066ae7ff2237c0a57e9bfbdde5c9a697a97eb1aa0034cdd99beb200822ebac70b5531fc8f6dfd746cb8210d0a018ede2b9e9482d0efdade047515ac00000000"
    }
  ]
}