{
  "hash": "000000003a7124e4ac16cc89e6c7c564c04cdccabb7576ad0768dca42c47a4f1",
  "confirmations": 49506,
  "height": 3592,
  "version": 1,
  "versionHex": "00000001",
  "merkleroot": "9f95d724608914909ccdf828f6c52ab0225c76b5afc09891aa1dc9b4662a34c2",
  "time": 1234167580,
  "mediantime": 1234163837,
  "nonce": 794040836,
  "bits": "1d00ffff",
  "difficulty": 1,
  "chainwork": "00000000000000000000000000000000000000000000000000000e090e090e09",
  "nTx": 1,
  "previousblockhash": "000000005ecfec8fd3d220c04242d06baa6e27219ca44b2713c264292d613eea",
  "nextblockhash": "00000000634d63176c4714a66615d472f4eea9f72a4eb4a7240ac7c8b6963023",
  "strippedsize": 216,
  "size": 216,
  "weight": 864,
  "tx": [
    {
      "txid": "9f95d724608914909ccdf828f6c52ab0225c76b5afc09891aa1dc9b4662a34c2",
      "hash": "9f95d724608914909ccdf828f6c52ab0225c76b5afc09891aa1dc9b4662a34c2",
      "version": 1,
      "size": 135,
      "vsize": 135,
      "weight": 540,
      "locktime": 0,
      "vin": [
        {
          "coinbase": "04ffff001d028308",
          "sequence": 4294967295
        }
      ],
      "vout": [
        {
          "value": 50.0,
          "n": 0,
          "scriptPubKey": {
            "asm": "04c8d2ba955d7b45164466e63e2c70729963e19f3b9e1f52df73afc833ce3bfeb095d979fb483e867ce55f2aaadb693bce0884c20cfe06137fb1b2a4e9f56e8681 OP_CHECKSIG",
            "desc": "pk(04c8d2ba955d7b45164466e63e2c70729963e19f3b9e1f52df73afc833ce3bfeb095d979fb483e867ce55f2aaadb693bce0884c20cfe06137fb1b2a4e9f56e8681)#z52x8l6s",
            "hex": "4104c8d2ba955d7b45164466e63e2c70729963e19f3b9e1f52df73afc833ce3bfeb095d979fb483e867ce55f2aaadb693bce0884c20cfe06137fb1b2a4e9f56e8681ac",
            "type": "pubkey"
          }
        }
      ],
      "hex": "01000000010000000000000000000000000000000000000000000000000000000000000000ffffffff0804ffff001d028308ffffffff0100f2052a01000000434104c8d2ba955d7b45164466e63e2c70729963e19f3b9e1f52df73afc833ce3bfeb095d979fb483e867ce55f2aaadb693bce0884c20cfe06137fb1b2a4e9f56e8681ac00000000"
    }
  ]
}