{
  "hash": "00000000f07b7bf9f822bbf60da65ca37459597023c8f128642fec83c13ee9f8",
  "confirmations": 52044,
  "height": 133,
  "version": 1,
  "versionHex": "00000001",
  "merkleroot": "08648614555595f23ea51c8c018777ac0601e328d7784e41a18408863d98500d",
  "time": 1231685667,
  "mediantime": 1231682091,
  "nonce": 1507157762,
  "bits": "1d00ffff",
  "difficulty": 1,
  "chainwork": "0000000000000000000000000000000000000000000000000000008600860086",
  "nTx": 1,
  "previousblockhash": "000000007fa3a39f556782005d5f041b9e6e0e8c1bfbbfc9be81437e5537ba17",
  "nextblockhash": "000000008b531a4e66ea3065d1f3368f27780b97b5070c1498dc43497a473c3a",
  "strippedsize": 215,
  "size": 215,
  "weight": 860,
  "tx": [
    {
      "txid": "08648614555595f23ea51c8c018777ac0601e328d7784e41a18408863d98500d",
      "hash": "08648614555595f23ea51c8c018777ac0601e328d7784e41a18408863d98500d",
      "version": 1,
      "size": 134,
      "vsize": 134,
      "weight": 536,
      "locktime": 0,
      "vin": [
        {
          "coinbase": "04ffff001d0121",
          "sequence": 4294967295
        }
      ],
      "vout": [
        {
          "value": 50.0,
          "n": 0,
          "scriptPubKey": {
            "asm": "047d2efa0dd72e9626e0b1daa5815c6830d4373e204c38c94a8264d7189b0d5e4221ef298e8f0e39ced8200f1b663ea91002d8dbc08e5ac1bf1a388798e287a679 OP_CHECKSIG",
            "desc": "pk(047d2efa0dd72e9626e0b1daa5815c6830d4373e204c38c94a8264d7189b0d5e4221ef298e8f0e39ced8200f1b663ea91002d8dbc08e5ac1bf1a388798e287a679)#h2g89dn3",
            "hex": "41047d2efa0dd72e9626e0b1daa5815c6830d4373e204c38c94a8264d7189b0d5e4221ef298e8f0e39ced8200f1b663ea91002d8dbc08e5ac1bf1a388798e287a679ac",
            "type": "pubkey"
          }
        }
      ],
      "hex": "01000000010000000000000000000000000000000000000000000000000000000000000000ffffffff0704ffff001d0121ffffffff0100f2052a010000004341047d2efa0dd72e9626e0b1daa5815c6830d4373e204c38c94a8264d7189b0d5e4221ef298e8f0e39ced8200f1b663ea91002d8dbc08e5ac1bf1a388798e287a679ac00000000"
    }
  ]
}