{
  "hash": "00000000c90d2b130f106b815f0124d5dabd578c4cb411e7899f7f39b34900b1",
  "confirmations": 46918,
  "height": 6180,
  "version": 1,
  "versionHex": "00000001",
  "merkleroot": "c88b9dac90d8fa44b8fda3b79058b6a2ec1648d1e5280c1c572a3345180c005f",
  "time": 1236075010,
  "mediantime": 1236071354,
  "nonce": 42995494,
  "bits": "1d00ffff",
  "difficulty": 1,
  "chainwork": "0000000000000000000000000000000000000000000000000000182518251825",
  "nTx": 1,
  "previousblockhash": "00000000b65a3b5d37a6909b3b0a5606a3068ff9b23e3177c7986b2767d7af3f",
  "nextblockhash": "000000000324a4d2067b0d0d42a7ffd0d63a203e9a961672b39bd14f1dfcbf67",
  "strippedsize": 216,
  "size": 216,
  "weight": 864,
  "tx": [
    {
      "txid": "c88b9dac90d8fa44b8fda3b79058b6a2ec1648d1e5280c1c572a3345180c005f",
      "hash": "c88b9dac90d8fa44b8fda3b79058b6a2ec1648d1e5280c1c572a3345180c005f",
      "version": 1,
      "size": 135,
      "vsize": 135,
      "weight": 540,
      "locktime": 0,
      "vin": [
        {
          "coinbase": "04ffff001d02eb09",
          "sequence": 4294967295
        }
      ],
      "vout": [
        {
          "value": 50.0,
          "n": 0,
          "scriptPubKey": {
            "asm": "04987b531ecc8026b5e665d98a1bd571d24b668f781ee683864e3b01b7de9c287bf8468a8e757c1b44748f5175e2de83fc7c0068b52930a3ef8d287a40ce739526 OP_CHECKSIG",
            "desc": "pk(04987b531ecc8026b5e665d98a1bd571d24b668f781ee683864e3b01b7de9c287bf8468a8e757c1b44748f5175e2de83fc7c0068b52930a3ef8d287a40ce739526)#aewse6q0",
            "hex": "4104987b531ecc8026b5e665d98a1bd571d24b668f781ee683864e3b01b7de9c287bf8468a8e757c1b44748f5175e2de83fc7c0068b52930a3ef8d287a40ce739526ac",
            "type": "pubkey"
          }
        }
      ],
      "hex": "01000000010000000000000000000000000000000000000000000000000000000000000000ffffffff0804ffff001d02eb09ffffffff0100f2052a01000000434104987b531ecc8026b5e665d98a1bd571d24b668f781ee683864e3b01b7de9c287bf8468a8e757c1b44748f5175e2de83fc7c0068b52930a3ef8d287a40ce739526ac00000000"
    }
  ]
}