{
  "hash": "00000000854d5c01c377e7ff131dbd4b3af44949c6f3126fb66eab4a3fc6b1ae",
  "confirmations": 51986,
  "height": 105,
  "version": 1,
  "versionHex": "00000001",
  "merkleroot": "5bc9bd461b455db119181c060085bd656430d9d431bbe4539eb0e367e9c77ac8",
  "time": 1231664567,
  "mediantime": 1231660825,
  "nonce": 280347178,
  "bits": "1d00ffff",
  "difficulty": 1,
  "chainwork": "0000000000000000000000000000000000000000000000000000006a006a006a",
  "nTx": 1,
  "previousblockhash": "00000000fb11ef25014e02b315285a22f80c8f97689d7e36d723317defaabe5b",
  "nextblockhash": "00000000877c1915ebe7d24bee5b81ecafcf1bac5890283124a3d662a50a7714",
  "strippedsize": 215,
  "size": 215,
  "weight": 860,
  "tx": [
    {
      "txid": "5bc9bd461b455db119181c060085bd656430d9d431bbe4539eb0e367e9c77ac8",
      "hash": "5bc9bd461b455db119181c060085bd656430d9d431bbe4539eb0e367e9c77ac8",
      "version": 1,
      "size": 134,
      "vsize": 134,
      "weight": 536,
      "locktime": 0,
      "vin": [
        {
          "coinbase": "04ffff001d0179",
          "sequence": 4294967295
        }
      ],
      "vout": [
        {
          "value": 50.0,
          "n": 0,
          "scriptPubKey": {
            "asm": "04953e5321dc6538f67ac273fe70cbfdec386bd389b0bf0c81a257f9351c7c0d9b6f8cb3e4b14fe322158935b04474e5afbded15f3ed5edd055d15368d708704fe OP_CHECKSIG",
            "desc": "pk(04953e5321dc6538f67ac273fe70cbfdec386bd389b0bf0c81a257f9351c7c0d9b6f8cb3e4b14fe322158935b04474e5afbded15f3ed5edd055d15368d708704fe)#87w7d2l5",
            "hex": "4104953e5321dc6538f67ac273fe70cbfdec386bd389b0bf0c81a257f9351c7c0d9b6f8cb3e4b14fe322158935b04474e5afbded15f3ed5edd055d15368d708704feac",
            "type": "pubkey"
          }
        }
      ],
      "hex": "01000000010000000000000000000000000000000000000000000000000000000000000000ffffffff0704ffff001d0179ffffffff0100f2052a01000000434104953e5321dc6538f67ac273fe70cbfdec386bd389b0bf0c81a257f9351c7c0d9b6f8cb3e4b14fe322158935b04474e5afbded15f3ed5edd055d15368d708704feac00000000"
    }
  ]
}