{
  "hash": "0000000008b139799229859fb817bb24663467d3509916d013dd79574204bbad",
  "confirmations": 49793,
  "height": 3305,
  "version": 1,
  "versionHex": "00000001",
  "merkleroot": "34965308a84a81935aceeb2bac26e76878822514575ba9c2f69cd31edd746963",
  "time": 1233972552,
  "mediantime": 1233969746,
  "nonce": 1298908953,
  "bits": "1d00ffff",
  "difficulty": 1,
  "chainwork": "00000000000000000000000000000000000000000000000000000cea0cea0cea",
  "nTx": 1,
  "previousblockhash": "00000000b552e1e2d2998cc49619d1138cea9ff5ead9f8dcc8febb4e60d73f76",
  "nextblockhash": "000000009094b2dd03fd9ad6b150b50c571295d45753445076fad28c6cb47ab3",
  "strippedsize": 216,
  "size": 216,
  "weight": 864,
  "tx": [
    {
      "txid": "34965308a84a81935aceeb2bac26e76878822514575ba9c2f69cd31edd746963",
      "hash": "34965308a84a81935aceeb2bac26e76878822514575ba9c2f69cd31edd746963",
      "version": 1,
      "size": 135,
      "vsize": 135,
      "weight": 540,
      "locktime": 0,
      "vin": [
        {
          "coinbase": "04ffff001d026104",
          "sequence": 4294967295
        }
      ],
      "vout": [
        {
          "value": 50.0,
          "n": 0,
          "scriptPubKey": {
            "asm": "04ae87be19e69224fa5504a73a26761a587ed6f34cea3b6c3fcded0d54879aec76f8842d07d47ed796a7efcfcf1c5dbb63c16296a1aa2e6ac118668562b22555a6 OP_CHECKSIG",
            "desc": "pk(04ae87be19e69224fa5504a73a26761a587ed6f34cea3b6c3fcded0d54879aec76f8842d07d47ed796a7efcfcf1c5dbb63c16296a1aa2e6ac118668562b22555a6)#vuc2mam8",
            "hex": "4104ae87be19e69224fa5504a73a26761a587ed6f34cea3b6c3fcded0d54879aec76f8842d07d47ed796a7efcfcf1c5dbb63c16296a1aa2e6ac118668562b22555a6ac",
            "type": "pubkey"
          }
        }
      ],
      "hex": "01000000010000000000000000000000000000000000000000000000000000000000000000ffffffff0804ffff001d026104ffffffff0100f2052a01000000434104ae87be19e69224fa5504a73a26761a587ed6f34cea3b6c3fcded0d54879aec76f8842d07d47ed796a7efcfcf1c5dbb63c16296a1aa2e6ac118668562b22555a6ac00000000"
    }
  ]
}