{
  "hash": "00000000d4cf6db8224f0f2240b92742529354134e02a6c3781b18985145a8ea",
  "confirmations": 49279,
  "height": 3819,
  "version": 1,
  "versionHex": "00000001",
  "merkleroot": "31c6f11640d11ab6c951fa8cfa674f2e5307352519bdb6d7c3f6d88e190599d8",
  "time": 1234316901,
  "mediantime": 1234314217,
  "nonce": 2203671302,
  "bits": "1d00ffff",
  "difficulty": 1,
  "chainwork": "00000000000000000000000000000000000000000000000000000eec0eec0eec",
  "nTx": 1,
  "previousblockhash": "0000000007dd2f02caac382b7392e0bdf991ad2a0f770d9c3f65bd429acd53c9",
  "nextblockhash": "000000008ef011d801e138c195c44a61d7bfc9623fc860e40615f6fc6eadc763",
  "strippedsize": 216,
  "size": 216,
  "weight": 864,
  "tx": [
    {
      "txid": "31c6f11640d11ab6c951fa8cfa674f2e5307352519bdb6d7c3f6d88e190599d8",
      "hash": "31c6f11640d11ab6c951fa8cfa674f2e5307352519bdb6d7c3f6d88e190599d8",
      "version": 1,
      "size": 135,
      "vsize": 135,
      "weight": 540,
      "locktime": 0,
      "vin": [
        {
          "coinbase": "04ffff001d028401",
          "sequence": 4294967295
        }
      ],
      "vout": [
        {
          "value": 50.0,
          "n": 0,
          "scriptPubKey": {
            "asm": "0424f7e322ea8559f604109ce774e2fd66ee4bb5a7e5e2cdeb9067e11adfca55978a12ed40ef3b5a0044ef91f46f2ab5c79139097be2cbdab674b5c9b3988f7530 OP_CHECKSIG",
            "desc": "pk(0424f7e322ea8559f604109ce774e2fd66ee4bb5a7e5e2cdeb9067e11adfca55978a12ed40ef3b5a0044ef91f46f2ab5c79139097be2cbdab674b5c9b3988f7530)#ldvvhhg8",
            "hex": "410424f7e322ea8559f604109ce774e2fd66ee4bb5a7e5e2cdeb9067e11adfca55978a12ed40ef3b5a0044ef91f46f2ab5c79139097be2cbdab674b5c9b3988f7530ac",
            "type": "pubkey"
          }
        }
      ],
      "hex": "01000000010000000000000000000000000000000000000000000000000000000000000000ffffffff0804ffff001d028401ffffffff0100f2052a0100000043410424f7e322ea8559f604109ce774e2fd66ee4bb5a7e5e2cdeb9067e11adfca55978a12ed40ef3b5a0044ef91f46f2ab5c79139097be2cbdab674b5c9b3988f7530ac00000000"
    }
  ]
}