{
  "hash": "000000008cd94d166f06496bd1b706ac2ee225cad04386fac39f7ee8d66f79b8",
  "confirmations": 49815,
  "height": 3283,
  "version": 1,
  "versionHex": "00000001",
  "merkleroot": "8d23e5c0db1c953af1f03bf56b9caba8eb224bb008a0959c8ef6e6f1929cf59a",
  "time": 1233958257,
  "mediantime": 1233954419,
  "nonce": 332723237,
  "bits": "1d00ffff",
  "difficulty": 1,
  "chainwork": "00000000000000000000000000000000000000000000000000000cd40cd40cd4",
  "nTx": 1,
  "previousblockhash": "00000000813a8b18394a8b96d47f53c9e417107aaab692a408659a881e3c1f4d",
  "nextblockhash": "00000000390b31bb5fa93549aa99b5e86f877b4d07b725fd350f9c9481a31eb5",
  "strippedsize": 216,
  "size": 216,
  "weight": 864,
  "tx": [
    {
      "txid": "8d23e5c0db1c953af1f03bf56b9caba8eb224bb008a0959c8ef6e6f1929cf59a",
      "hash": "8d23e5c0db1c953af1f03bf56b9caba8eb224bb008a0959c8ef6e6f1929cf59a",
      "version": 1,
      "size": 135,
      "vsize": 135,
      "weight": 540,
      "locktime": 0,
      "vin": [
        {
          "coinbase": "04ffff001d02f703",
          "sequence": 4294967295
        }
      ],
      "vout": [
        {
          "value": 50.0,
          "n": 0,
          "scriptPubKey": {
            "asm": "04f6dd1384eee878d1230f73568e87ca6fa47bc20fc0f6efdbbd99ce5cfb7b43bb67342020cac5b4cc8e7d82075439a0a8a58c603786d80bac5637953e70974c27 OP_CHECKSIG",
            "desc": "pk(04f6dd1384eee878d1230f73568e87ca6fa47bc20fc0f6efdbbd99ce5cfb7b43bb67342020cac5b4cc8e7d82075439a0a8a58c603786d80bac5637953e70974c27)#66kcrdw3",
            "hex": "4104f6dd1384eee878d1230f73568e87ca6fa47bc20fc0f6efdbbd99ce5cfb7b43bb67342020cac5b4cc8e7d82075439a0a8a58c603786d80bac5637953e70974c27ac",
            "type": "pubkey"
          }
        }
      ],
      "hex": "01000000010000000000000000000000000000000000000000000000000000000000000000ffffffff0804ffff001d02f703ffffffff0100f2052a01000000434104f6dd1384eee878d1230f73568e87ca6fa47bc20fc0f6efdbbd99ce5cfb7b43bb67342020cac5b4cc8e7d82075439a0a8a58c603786d80bac5637953e70974c27ac00000000"
    }
  ]
}