{
  "hash": "000000005a83151304f6be998d66d53d4e684255955d352e85a65e7020801738",
  "confirmations": 49997,
  "height": 3101,
  "version": 1,
  "versionHex": "00000001",
  "merkleroot": "71bd6c90a0708d0693372ef06deb0bcff95ec619c05bc17a532e880b772832ce",
  "time": 1233834827,
  "mediantime": 1233831430,
  "nonce": 3114286905,
  "bits": "1d00ffff",
  "difficulty": 1,
  "chainwork": "00000000000000000000000000000000000000000000000000000c1e0c1e0c1e",
  "nTx": 1,
  "previousblockhash": "0000000054470b7eaf483188546c296cb32dbed05bed5dd711bd7c685f8c8907",
  "nextblockhash": "00000000de4e9e30d87758af6afab71f26ab732cea8bb5f36a927253ea44c944",
  "strippedsize": 216,
  "size": 216,
  "weight": 864,
  "tx": [
    {
      "txid": "71bd6c90a0708d0693372ef06deb0bcff95ec619c05bc17a532e880b772832ce",
      "hash": "71bd6c90a0708d0693372ef06deb0bcff95ec619c05bc17a532e880b772832ce",
      "version": 1,
      "size": 135,
      "vsize": 135,
      "weight": 540,
      "locktime": 0,
      "vin": [
        {
          "coinbase": "04ffff001d022f01",
          "sequence": 4294967295
        }
      ],
      "vout": [
        {
          "value": 50.0,
          "n": 0,
          "scriptPubKey": {
            "asm": "046d5bdb1726efb867eee9c0d97c909e79d1e3aed660abb67785eb36557e59a6be3e5f8ea6bd9ab59aa53d825ea38b643928eac8951cd165522daea906dfad0673 OP_CHECKSIG",
            "desc": "pk(046d5bdb1726efb867eee9c0d97c909e79d1e3aed660abb67785eb36557e59a6be3e5f8ea6bd9ab59aa53d825ea38b643928eac8951cd165522daea906dfad0673)#rzep7rah",
            "hex": "41046d5bdb1726efb867eee9c0d97c909e79d1e3aed660abb67785eb36557e59a6be3e5f8ea6bd9ab59aa53d825ea38b643928eac8951cd165522daea906dfad0673ac",
            "type": "pubkey"
          }
        }
      ],
      "hex": "01000000010000000000000000000000000000000000000000000000000000000000000000ffffffff0804ffff001d022f01ffffffff0100f2052a010000004341046d5bdb1726efb867eee9c0d97c909e79d1e3aed660abb67785eb36557e59a6be3e5f8ea6bd9ab59aa53d825ea38b643928eac8951cd165522daea906dfad0673ac00000000"
    }
  ]
}