{
  "hash": "0000000013cffeff861efdc2c7071bb721ef7fb827741984cf703b9d6fb8cfe2",
  "confirmations": 44027,
  "height": 9071,
  "version": 1,
  "versionHex": "00000001",
  "merkleroot": "53674cd987caee27fc0ed33bfd3d7184a92a2fb59f4b0feaf41e14cfceb5f531",
  "time": 1238312138,
  "mediantime": 1238307972,
  "nonce": 1249839622,
  "bits": "1d00ffff",
  "difficulty": 1,
  "chainwork": "0000000000000000000000000000000000000000000000000000237023702370",
  "nTx": 1,
  "previousblockhash": "000000008a7dce4e8860ea16a68932b492dacadf2f093a066e535c581b7ee402",
  "nextblockhash": "00000000ddc9488a0cddebe9f7fb1ca741bfc4b7d3a7a5b7c00dd60c3b050ddd",
  "strippedsize": 216,
  "size": 216,
  "weight": 864,
  "tx": [
    {
      "txid": "53674cd987caee27fc0ed33bfd3d7184a92a2fb59f4b0feaf41e14cfceb5f531",
      "hash": "53674cd987caee27fc0ed33bfd3d7184a92a2fb59f4b0feaf41e14cfceb5f531",
      "version": 1,
      "size": 135,
      "vsize": 135,
      "weight": 540,
      "locktime": 0,
      "vin": [
        {
          "coinbase": "04ffff001d02c907",
          "sequence": 4294967295
        }
      ],
      "vout": [
        {
          "value": 50.0,
          "n": 0,
          "scriptPubKey": {
            "asm": "042d930f18478b7ffcfe5fd30e9a724a7d5008c7d6ef16068a94e8537441399b9e2f7d0945b87894e44087749c84e36736b2381a9e9fcc79ae9533a7fb9cc1ec84 OP_CHECKSIG",
            "desc": "pk(042d930f18478b7ffcfe5fd30e9a724a7d5008c7d6ef16068a94e8537441399b9e2f7d0945b87894e44087749c84e36736b2381a9e9fcc79ae9533a7fb9cc1ec84)#ze8ffnlh",
            "hex": "41042d930f18478b7ffcfe5fd30e9a724a7d5008c7d6ef16068a94e8537441399b9e2f7d0945b87894e44087749c84e36736b2381a9e9fcc79ae9533a7fb9cc1ec84ac",
            "type": "pubkey"
          }
        }
      ],
      "hex": "01000000010000000000000000000000000000000000000000000000000000000000000000ffffffff0804ffff001d02c907ffffffff0100f2052a010000004341042d930f18478b7ffcfe5fd30e9a724a7d5008c7d6ef16068a94e8537441399b9e2f7d0945b87894e44087749c84e36736b2381a9e9fcc79ae9533a7fb9cc1ec84ac00000000"
    }
  ]
}