{
  "hash": "00000000fbce2e3e1c2f00c556a549ea5973f5cdb692a36c97a289c267617af1",
  "confirmations": 50318,
  "height": 2780,
  "version": 1,
  "versionHex": "00000001",
  "merkleroot": "247b7dd1e1a206e55c3ab9fbca1824c52052a4eb65f61642e994c5e147855457",
  "time": 1233616675,
  "mediantime": 1233613227,
  "nonce": 4212443175,
  "bits": "1d00ffff",
  "difficulty": 1,
  "chainwork": "00000000000000000000000000000000000000000000000000000add0add0add",
  "nTx": 1,
  "previousblockhash": "00000000c8b3400f3b915a80c702a6a75c4be65f6fce1ae88aae5510125420c7",
  "nextblockhash": "000000005dbb85aae7ebc3ef8285d78edf4f21dda1b5ec623957e13887228fd8",
  "strippedsize": 216,
  "size": 216,
  "weight": 864,
  "tx": [
    {
      "txid": "247b7dd1e1a206e55c3ab9fbca1824c52052a4eb65f61642e994c5e147855457",
      "hash": "247b7dd1e1a206e55c3ab9fbca1824c52052a4eb65f61642e994c5e147855457",
      "version": 1,
      "size": 135,
      "vsize": 135,
      "weight": 540,
      "locktime": 0,
      "vin": [
        {
          "coinbase": "04ffff001d02ef05",
          "sequence": 4294967295
        }
      ],
      "vout": [
        {
          "value": 50.0,
          "n": 0,
          "scriptPubKey": {
            "asm": "0489987eec774ab41960379a9b5b2e79d8665a9836622f80c93cc153f38f632ff009ddea5b065c93872a948efcb722bf5871c6077ad5cb865bbc4db3229df8f750 OP_CHECKSIG",
            "desc": "pk(0489987eec774ab41960379a9b5b2e79d8665a9836622f80c93cc153f38f632ff009ddea5b065c93872a948efcb722bf5871c6077ad5cb865bbc4db3229df8f750)#zcym973d",
            "hex": "410489987eec774ab41960379a9b5b2e79d8665a9836622f80c93cc153f38f632ff009ddea5b065c93872a948efcb722bf5871c6077ad5cb865bbc4db3229df8f750ac",
            "type": "pubkey"
          }
        }
      ],
      "hex": "01000000010000000000000000000000000000000000000000000000000000000000000000ffffffff0804ffff001d02ef05ffffffff0100f2052a0100000043410489987eec774ab41960379a9b5b2e79d8665a9836622f80c93cc153f38f632ff009ddea5b065c93872a948efcb722bf5871c6077ad5cb865bbc4db3229df8f750ac00000000"
    }
  ]
}