{
  "hash": "00000000f75e4d0f2b7e474d9f91830870341fef36f096c018eb4bffd0449686",
  "confirmations": 45095,
  "height": 8003,
  "version": 1,
  "versionHex": "00000001",
  "merkleroot": "60d7e6833d89511c50a3342d63f8f8edb5c59d4d078f75ea4f84506724f7c07d",
  "time": 1237463154,
  "mediantime": 1237461110,
  "nonce": 133968134,
  "bits": "1d00ffff",
  "difficulty": 1,
  "chainwork": "00000000000000000000000000000000000000000000000000001f441f441f44",
  "nTx": 1,
  "previousblockhash": "00000000e47ee7510179985e4f2ef68c7212f3eded5df75af702ba6306bbec5a",
  "nextblockhash": "00000000670e58778b6861f17514c8ffdf786cb2ad2d1c7d77281c1e861c43e9",
  "strippedsize": 216,
  "size": 216,
  "weight": 864,
  "tx": [
    {
      "txid": "60d7e6833d89511c50a3342d63f8f8edb5c59d4d078f75ea4f84506724f7c07d",
      "hash": "60d7e6833d89511c50a3342d63f8f8edb5c59d4d078f75ea4f84506724f7c07d",
      "version": 1,
      "size": 135,
      "vsize": 135,
      "weight": 540,
      "locktime": 0,
      "vin": [
        {
          "coinbase": "04ffff001d029900",
          "sequence": 4294967295
        }
      ],
      "vout": [
        {
          "value": 50.0,
          "n": 0,
          "scriptPubKey": {
            "asm": "0409622f60b878538b27358c75cc5514931e97f239ffc58e0bbf15a3bfdc536d9d406e28e48c2d748ba4510d335d31ea18d1fb40f7dd97354b919ef31119f8b443 OP_CHECKSIG",
            "desc": "pk(0409622f60b878538b27358c75cc5514931e97f239ffc58e0bbf15a3bfdc536d9d406e28e48c2d748ba4510d335d31ea18d1fb40f7dd97354b919ef31119f8b443)#nx8dl7m8",
            "hex": "410409622f60b878538b27358c75cc5514931e97f239ffc58e0bbf15a3bfdc536d9d406e28e48c2d748ba4510d335d31ea18d1fb40f7dd97354b919ef31119f8b443ac",
            "type": "pubkey"
          }
        }
      ],
      "hex": "01000000010000000000000000000000000000000000000000000000000000000000000000ffffffff0804ffff001d029900ffffffff0100f2052a0100000043410409622f60b878538b27358c75cc5514931e97f239ffc58e0bbf15a3bfdc536d9d406e28e48c2d748ba4510d335d31ea18d1fb40f7dd97354b919ef31119f8b443ac00000000"
    }
  ]
}