{
  "hash": "00000000cfbb66ce2ab2890114169dbf1597615371ac2024dcd16c5160e451af",
  "confirmations": 43659,
  "height": 9439,
  "version": 1,
  "versionHex": "00000001",
  "merkleroot": "b358a8778283a60f1f3aa2723db0a6fbb4f57b3ea5e0956501ebf3470291abaf",
  "time": 1238583845,
  "mediantime": 1238580250,
  "nonce": 3957474849,
  "bits": "1d00ffff",
  "difficulty": 1,
  "chainwork": "000000000000000000000000000000000000000000000000000024e024e024e0",
  "nTx": 1,
  "previousblockhash": "000000007679597eb5c88ab61ea36dbbdbe94516d3778ab6ae289822345e8403",
  "nextblockhash": "000000001a34e973180b1fe80c130e46ba96249accbe7e240ed23a386d0bd8ba",
  "strippedsize": 216,
  "size": 216,
  "weight": 864,
  "tx": [
    {
      "txid": "b358a8778283a60f1f3aa2723db0a6fbb4f57b3ea5e0956501ebf3470291abaf",
      "hash": "b358a8778283a60f1f3aa2723db0a6fbb4f57b3ea5e0956501ebf3470291abaf",
      "version": 1,
      "size": 135,
      "vsize": 135,
      "weight": 540,
      "locktime": 0,
      "vin": [
        {
          "coinbase": "04ffff001d026804",
          "sequence": 4294967295
        }
      ],
      "vout": [
        {
          "value": 50.0,
          "n": 0,
          "scriptPubKey": {
            "asm": "0443c7f6c80856c45f108902499ac82be06f8d9fc202ca9a6d14116184b475b785d35ee05203942aafc16a49aa19b8f1ff815a8f71ab9f1e5fc69b764c1d29ad49 OP_CHECKSIG",
            "desc": "pk(0443c7f6c80856c45f108902499ac82be06f8d9fc202ca9a6d14116184b475b785d35ee05203942aafc16a49aa19b8f1ff815a8f71ab9f1e5fc69b764c1d29ad49)#edv8dydp",
            "hex": "410443c7f6c80856c45f108902499ac82be06f8d9fc202ca9a6d14116184b475b785d35ee05203942aafc16a49aa19b8f1ff815a8f71ab9f1e5fc69b764c1d29ad49ac",
            "type": "pubkey"
          }
        }
      ],
      "hex": "01000000010000000000000000000000000000000000000000000000000000000000000000ffffffff0804ffff001d026804ffffffff0100f2052a0100000043410443c7f6c80856c45f108902499ac82be06f8d9fc202ca9a6d14116184b475b785d35ee05203942aafc16a49aa19b8f1ff815a8f71ab9f1e5fc69b764c1d29ad49ac00000000"
    }
  ]
}