{
  "hash": "00000000349ad13e9a2bc3939cc42903df3a3a85eeae4191752a1fa1a1e98b08",
  "confirmations": 46372,
  "height": 6726,
  "version": 1,
  "versionHex": "00000001",
  "merkleroot": "9052d5996c1e3039b276907dd34fd73bc4dda66e924e97e504b5ebbc0d4b87ca",
  "time": 1236501729,
  "mediantime": 1236498586,
  "nonce": 3443741210,
  "bits": "1d00ffff",
  "difficulty": 1,
  "chainwork": "00000000000000000000000000000000000000000000000000001a471a471a47",
  "nTx": 1,
  "previousblockhash": "000000002b34c4302b9386cdbd30210ddc5ac5b47b15bb8fa84137aa13e54790",
  "nextblockhash": "000000004113dec6af7d43d56b0acf07f230b8fa2d10ea9b8d3fd3209a7bbf30",
  "strippedsize": 216,
  "size": 216,
  "weight": 864,
  "tx": [
    {
      "txid": "9052d5996c1e3039b276907dd34fd73bc4dda66e924e97e504b5ebbc0d4b87ca",
      "hash": "9052d5996c1e3039b276907dd34fd73bc4dda66e924e97e504b5ebbc0d4b87ca",
      "version": 1,
      "size": 135,
      "vsize": 135,
      "weight": 540,
      "locktime": 0,
      "vin": [
        {
          "coinbase": "04ffff001d027d07",
          "sequence": 4294967295
        }
      ],
      "vout": [
        {
          "value": 50.0,
          "n": 0,
          "scriptPubKey": {
            "asm": "047db445a5797d7f3a48dd4046e362df4696d5145d8829fe06a319e01e7862d841ef9aa5dfef6a8f3ce01b39f3e8f139b21851f95361f28838eed234a64d393baf OP_CHECKSIG",
            "desc": "pk(047db445a5797d7f3a48dd4046e362df4696d5145d8829fe06a319e01e7862d841ef9aa5dfef6a8f3ce01b39f3e8f139b21851f95361f28838eed234a64d393baf)#sjdhfz3l",
            "hex": "41047db445a5797d7f3a48dd4046e362df4696d5145d8829fe06a319e01e7862d841ef9aa5dfef6a8f3ce01b39f3e8f139b21851f95361f28838eed234a64d393bafac",
            "type": "pubkey"
          }
        }
      ],
      "hex": "01000000010000000000000000000000000000000000000000000000000000000000000000ffffffff0804ffff001d027d07ffffffff0100f2052a010000004341047db445a5797d7f3a48dd4046e362df4696d5145d8829fe06a319e01e7862d841ef9aa5dfef6a8f3ce01b39f3e8f139b21851f95361f28838eed234a64d393bafac00000000"
    }
  ]
}