{
  "hash": "00000000e2fe00b652b77364ced8b96402bf35d3064c4bd253140ef907adf1d6",
  "confirmations": 51071,
  "height": 2027,
  "version": 1,
  "versionHex": "00000001",
  "merkleroot": "4d13e840340b8d94c3a0cc69ea5354ccacb8968ff91a3262a002f2aedd80bf1b",
  "time": 1233073401,
  "mediantime": 1233070577,
  "nonce": 3217422886,
  "bits": "1d00ffff",
  "difficulty": 1,
  "chainwork": "000000000000000000000000000000000000000000000000000007ec07ec07ec",
  "nTx": 1,
  "previousblockhash": "00000000df3d3d8e1b63db203496a67c186cc7508adac33aa72db03685ada3b1",
  "nextblockhash": "00000000bf7540f41ae96e804929b75fb307c16ab46f071765ff35184231f066",
  "strippedsize": 216,
  "size": 216,
  "weight": 864,
  "tx": [
    {
      "txid": "4d13e840340b8d94c3a0cc69ea5354ccacb8968ff91a3262a002f2aedd80bf1b",
      "hash": "4d13e840340b8d94c3a0cc69ea5354ccacb8968ff91a3262a002f2aedd80bf1b",
      "version": 1,
      "size": 135,
      "vsize": 135,
      "weight": 540,
      "locktime": 0,
      "vin": [
        {
          "coinbase": "04ffff001d024102",
          "sequence": 4294967295
        }
      ],
      "vout": [
        {
          "value": 50.0,
          "n": 0,
          "scriptPubKey": {
            "asm": "040a94da5b8eb8f3a584bf5e9d6fdd23ca190bcf1715e9d9b44f926b23298a7ca8db172c05d7ac03c0c0d3837e561c5e4d0ccadf9f112087a302d384d0a7d16788 OP_CHECKSIG",
            "desc": "pk(040a94da5b8eb8f3a584bf5e9d6fdd23ca190bcf1715e9d9b44f926b23298a7ca8db172c05d7ac03c0c0d3837e561c5e4d0ccadf9f112087a302d384d0a7d16788)#p5epvjgr",
            "hex": "41040a94da5b8eb8f3a584bf5e9d6fdd23ca190bcf1715e9d9b44f926b23298a7ca8db172c05d7ac03c0c0d3837e561c5e4d0ccadf9f112087a302d384d0a7d16788ac",
            "type": "pubkey"
          }
        }
      ],
      "hex": "01000000010000000000000000000000000000000000000000000000000000000000000000ffffffff0804ffff001d024102ffffffff0100f2052a010000004341040a94da5b8eb8f3a584bf5e9d6fdd23ca190bcf1715e9d9b44f926b23298a7ca8db172c05d7ac03c0c0d3837e561c5e4d0ccadf9f112087a302d384d0a7d16788ac00000000"
    }
  ]
}