{
  "hash": "000000005d1ee9f633d16642d1bd8af362c3e49e7ce819937ebe6873aaa8c7b7",
  "confirmations": 51033,
  "height": 2065,
  "version": 1,
  "versionHex": "00000001",
  "merkleroot": "af2f3ca9eb0466ac85392d5cd1fb9c8646e0e309aee3be111087914afa10c9d9",
  "time": 1233109856,
  "mediantime": 1233105973,
  "nonce": 3386415364,
  "bits": "1d00ffff",
  "difficulty": 1,
  "chainwork": "0000000000000000000000000000000000000000000000000000081208120812",
  "nTx": 1,
  "previousblockhash": "00000000184d61d43e667b4aebe6224e0a3265a2be87048b7924d7339de6095d",
  "nextblockhash": "00000000b0ffc0f6ace673e0e6ad6893546c5c808919e6a15b6b5d51e4d8af70",
  "strippedsize": 216,
  "size": 216,
  "weight": 864,
  "tx": [
    {
      "txid": "af2f3ca9eb0466ac85392d5cd1fb9c8646e0e309aee3be111087914afa10c9d9",
      "hash": "af2f3ca9eb0466ac85392d5cd1fb9c8646e0e309aee3be111087914afa10c9d9",
      "version": 1,
      "size": 135,
      "vsize": 135,
      "weight": 540,
      "locktime": 0,
      "vin": [
        {
          "coinbase": "04ffff001d021803",
          "sequence": 4294967295
        }
      ],
      "vout": [
        {
          "value": 50.0,
          "n": 0,
          "scriptPubKey": {
            "asm": "04a2d582c61870b0ef7d6b9e55125d6fa4e5f4480d3178e2e3b0aad603a11bc19ef3b95fc3a70ea0198e3e091b80b0c0a126bc62de1debbec42799ae8b8be27a57 OP_CHECKSIG",
            "desc": "pk(04a2d582c61870b0ef7d6b9e55125d6fa4e5f4480d3178e2e3b0aad603a11bc19ef3b95fc3a70ea0198e3e091b80b0c0a126bc62de1debbec42799ae8b8be27a57)#jed0p6j3",
            "hex": "4104a2d582c61870b0ef7d6b9e55125d6fa4e5f4480d3178e2e3b0aad603a11bc19ef3b95fc3a70ea0198e3e091b80b0c0a126bc62de1debbec42799ae8b8be27a57ac",
            "type": "pubkey"
          }
        }
      ],
      "hex": "01000000010000000000000000000000000000000000000000000000000000000000000000ffffffff0804ffff001d021803ffffffff0100f2052a01000000434104a2d582c61870b0ef7d6b9e55125d6fa4e5f4480d3178e2e3b0aad603a11bc19ef3b95fc3a70ea0198e3e091b80b0c0a126bc62de1debbec42799ae8b8be27a57ac00000000"
    }
  ]
}