{
  "hash": "0000000078b8ab566d23a6a4a23de549c1a2881f3f6e34d9ddb14fd0d33a706a",
  "confirmations": 50035,
  "height": 3063,
  "version": 1,
  "versionHex": "00000001",
  "merkleroot": "e4df743390b51d56be830324224f9f466d37bf4e0c7a8cce96b6835cd382aed4",
  "time": 1233803897,
  "mediantime": 1233800669,
  "nonce": 666456622,
  "bits": "1d00ffff",
  "difficulty": 1,
  "chainwork": "00000000000000000000000000000000000000000000000000000bf80bf80bf8",
  "nTx": 1,
  "previousblockhash": "0000000024769204efc5142a8376e14458d923a23cd15bb43b38975617803f6e",
  "nextblockhash": "00000000045d342e3048127de12cbeaf890f83f7babb08836a36f8a720f1fe27",
  "strippedsize": 215,
  "size": 215,
  "weight": 860,
  "tx": [
    {
      "txid": "e4df743390b51d56be830324224f9f466d37bf4e0c7a8cce96b6835cd382aed4",
      "hash": "e4df743390b51d56be830324224f9f466d37bf4e0c7a8cce96b6835cd382aed4",
      "version": 1,
      "size": 134,
      "vsize": 134,
      "weight": 536,
      "locktime": 0,
      "vin": [
        {
          "coinbase": "04ffff001d016c",
          "sequence": 4294967295
        }
      ],
      "vout": [
        {
          "value": 50.0,
          "n": 0,
          "scriptPubKey": {
            "asm": "04284d0efa467e7467487f5aa7b73cc6625eaac2cd21f4e85ad40b4d0a058602564fcbffd0917c4f9163241d143bde2f509323f2750a2d826a1fff4e96c46715d3 OP_CHECKSIG",
            "desc": "pk(04284d0efa467e7467487f5aa7b73cc6625eaac2cd21f4e85ad40b4d0a058602564fcbffd0917c4f9163241d143bde2f509323f2750a2d826a1fff4e96c46715d3)#x5828h7j",
            "hex": "4104284d0efa467e7467487f5aa7b73cc6625eaac2cd21f4e85ad40b4d0a058602564fcbffd0917c4f9163241d143bde2f509323f2750a2d826a1fff4e96c46715d3ac",
            "type": "pubkey"
          }
        }
      ],
      "hex": "01000000010000000000000000000000000000000000000000000000000000000000000000ffffffff0704ffff001d016cffffffff0100f2052a01000000434104284d0efa467e7467487f5aa7b73cc6625eaac2cd21f4e85ad40b4d0a058602564fcbffd0917c4f9163241d143bde2f509323f2750a2d826a1fff4e96c46715d3ac00000000"
    }
  ]
}