{
  "hash": "0000000028ea6b7d019dac03b828383a21fd7e4eba5b53cf6ce7fb54157348b4",
  "confirmations": 47077,
  "height": 6021,
  "version": 1,
  "versionHex": "00000001",
  "merkleroot": "352fe7ef59a7056824cd7ad302cfdff53be3499c2c6f352f7bf86f654a1d680e",
  "time": 1235945452,
  "mediantime": 1235939819,
  "nonce": 1197609221,
  "bits": "1d00ffff",
  "difficulty": 1,
  "chainwork": "0000000000000000000000000000000000000000000000000000178617861786",
  "nTx": 1,
  "previousblockhash": "000000003f013115cee88169bc8eadc95cb705f06290e69504d6a98980d89171",
  "nextblockhash": "000000003e32e0b3451e82be69c7118d337efacf5e58402246b88507b8bf8948",
  "strippedsize": 216,
  "size": 216,
  "weight": 864,
  "tx": [
    {
      "txid": "352fe7ef59a7056824cd7ad302cfdff53be3499c2c6f352f7bf86f654a1d680e",
      "hash": "352fe7ef59a7056824cd7ad302cfdff53be3499c2c6f352f7bf86f654a1d680e",
      "version": 1,
      "size": 135,
      "vsize": 135,
      "weight": 540,
      "locktime": 0,
      "vin": [
        {
          "coinbase": "04ffff001d025305",
          "sequence": 4294967295
        }
      ],
      "vout": [
        {
          "value": 50.0,
          "n": 0,
          "scriptPubKey": {
            "asm": "0444e6f532962b5c732d7a0c5e13aed6b3004da5d98bba64afd29b8d64b7e2ab16661630678b681b88021652dfd99b305c683d5c8eb9d55baaf02da177e798b2a4 OP_CHECKSIG",
            "desc": "pk(0444e6f532962b5c732d7a0c5e13aed6b3004da5d98bba64afd29b8d64b7e2ab16661630678b681b88021652dfd99b305c683d5c8eb9d55baaf02da177e798b2a4)#cxs3jewq",
            "hex": "410444e6f532962b5c732d7a0c5e13aed6b3004da5d98bba64afd29b8d64b7e2ab16661630678b681b88021652dfd99b305c683d5c8eb9d55baaf02da177e798b2a4ac",
            "type": "pubkey"
          }
        }
      ],
      "hex": "01000000010000000000000000000000000000000000000000000000000000000000000000ffffffff0804ffff001d025305ffffffff0100f2052a0100000043410444e6f532962b5c732d7a0c5e13aed6b3004da5d98bba64afd29b8d64b7e2ab16661630678b681b88021652dfd99b305c683d5c8eb9d55baaf02da177e798b2a4ac00000000"
    }
  ]
}