{
  "hash": "000000006a604bf70ea8d7fdd317bfe5f7e9b6bbbb3b5a4a1b65f6997d0d1418",
  "confirmations": 46192,
  "height": 6906,
  "version": 1,
  "versionHex": "00000001",
  "merkleroot": "2951ed22cd835ec0585d9d8a21b6375405972efc2f9c5492880c76dea07b84ac",
  "time": 1236641749,
  "mediantime": 1236637658,
  "nonce": 2734273032,
  "bits": "1d00ffff",
  "difficulty": 1,
  "chainwork": "00000000000000000000000000000000000000000000000000001afb1afb1afb",
  "nTx": 1,
  "previousblockhash": "00000000162e5b72b27bdc31f409e4e955f1969fc081b16e0d76bccce66b38cd",
  "nextblockhash": "000000000f2a8949a2cfcf5842ad2844ad6f4526c723a755946487b302d4f2fa",
  "strippedsize": 216,
  "size": 216,
  "weight": 864,
  "tx": [
    {
      "txid": "2951ed22cd835ec0585d9d8a21b6375405972efc2f9c5492880c76dea07b84ac",
      "hash": "2951ed22cd835ec0585d9d8a21b6375405972efc2f9c5492880c76dea07b84ac",
      "version": 1,
      "size": 135,
      "vsize": 135,
      "weight": 540,
      "locktime": 0,
      "vin": [
        {
          "coinbase": "04ffff001d029400",
          "sequence": 4294967295
        }
      ],
      "vout": [
        {
          "value": 50.0,
          "n": 0,
          "scriptPubKey": {
            "asm": "0450a4bf895fa442c61a7d8c1b8e10a47d238d2ce114ea3d7698a1dec153e624c2a08cb31c45130884101b4f724984243c6ceedc6dd9dd38f786f0027b739dd5c9 OP_CHECKSIG",
            "desc": "pk(0450a4bf895fa442c61a7d8c1b8e10a47d238d2ce114ea3d7698a1dec153e624c2a08cb31c45130884101b4f724984243c6ceedc6dd9dd38f786f0027b739dd5c9)#j9l8ghpk",
            "hex": "410450a4bf895fa442c61a7d8c1b8e10a47d238d2ce114ea3d7698a1dec153e624c2a08cb31c45130884101b4f724984243c6ceedc6dd9dd38f786f0027b739dd5c9ac",
            "type": "pubkey"
          }
        }
      ],
      "hex": "01000000010000000000000000000000000000000000000000000000000000000000000000ffffffff0804ffff001d029400ffffffff0100f2052a0100000043410450a4bf895fa442c61a7d8c1b8e10a47d238d2ce114ea3d7698a1dec153e624c2a08cb31c45130884101b4f724984243c6ceedc6dd9dd38f786f0027b739dd5c9ac00000000"
    }
  ]
}