{
  "hash": "0000000039ec9a320d22da935ddace441e1f9b3827c33d693d366fb6a788a818",
  "confirmations": 48105,
  "height": 4993,
  "version": 1,
  "versionHex": "00000001",
  "merkleroot": "f281b83b4c341659b849121ec549fcbfcdddd7df6f8eef2fbbe681ff71967004",
  "time": 1235132709,
  "mediantime": 1235131175,
  "nonce": 2708239158,
  "bits": "1d00ffff",
  "difficulty": 1,
  "chainwork": "0000000000000000000000000000000000000000000000000000138213821382",
  "nTx": 1,
  "previousblockhash": "000000006ddad2381c933febd2845af7fdd415ef7b9a8de7a54cd7ee976ca4a0",
  "nextblockhash": "000000000d1a13f38e7174bd1eb3a87c0690511759b46b601fe452f319b09e4d",
  "strippedsize": 216,
  "size": 216,
  "weight": 864,
  "tx": [
    {
      "txid": "f281b83b4c341659b849121ec549fcbfcdddd7df6f8eef2fbbe681ff71967004",
      "hash": "f281b83b4c341659b849121ec549fcbfcdddd7df6f8eef2fbbe681ff71967004",
      "version": 1,
      "size": 135,
      "vsize": 135,
      "weight": 540,
      "locktime": 0,
      "vin": [
        {
          "coinbase": "04ffff001d02e606",
          "sequence": 4294967295
        }
      ],
      "vout": [
        {
          "value": 50.0,
          "n": 0,
          "scriptPubKey": {
            "asm": "0434b7b6249af649c6041ae51a7124c3ff6784af3eb5fb1ce0933a84a614134c4d0c187e8285a288397cd138f2f2e2d3b03769ade5c8a06cb156847904728e82bc OP_CHECKSIG",
            "desc": "pk(0434b7b6249af649c6041ae51a7124c3ff6784af3eb5fb1ce0933a84a614134c4d0c187e8285a288397cd138f2f2e2d3b03769ade5c8a06cb156847904728e82bc)#52rdzckk",
            "hex": "410434b7b6249af649c6041ae51a7124c3ff6784af3eb5fb1ce0933a84a614134c4d0c187e8285a288397cd138f2f2e2d3b03769ade5c8a06cb156847904728e82bcac",
            "type": "pubkey"
          }
        }
      ],
      "hex": "01000000010000000000000000000000000000000000000000000000000000000000000000ffffffff0804ffff001d02e606ffffffff0100f2052a0100000043410434b7b6249af649c6041ae51a7124c3ff6784af3eb5fb1ce0933a84a614134c4d0c187e8285a288397cd138f2f2e2d3b03769ade5c8a06cb156847904728e82bcac00000000"
    }
  ]
}