{
  "hash": "00000000b06330c887ba63611ef49b7f2a7ec6e32e12c0600a304757c2295df7",
  "confirmations": 43311,
  "height": 9787,
  "version": 1,
  "versionHex": "00000001",
  "merkleroot": "cacad8711a3b362ffd4131137ec03c875c910545355df906ce4a4eb36bb0d7d9",
  "time": 1238848728,
  "mediantime": 1238845287,
  "nonce": 220131449,
  "bits": "1d00ffff",
  "difficulty": 1,
  "chainwork": "0000000000000000000000000000000000000000000000000000263c263c263c",
  "nTx": 1,
  "previousblockhash": "000000007bee3c3f294e6c1b946ebbe85b1878faef0bf0c1e6908a0769d304f5",
  "nextblockhash": "00000000d704e101720a1f3e58b0d96ab456b72964aef734b82a323f80ac5df4",
  "strippedsize": 216,
  "size": 216,
  "weight": 864,
  "tx": [
    {
      "txid": "cacad8711a3b362ffd4131137ec03c875c910545355df906ce4a4eb36bb0d7d9",
      "hash": "cacad8711a3b362ffd4131137ec03c875c910545355df906ce4a4eb36bb0d7d9",
      "version": 1,
      "size": 135,
      "vsize": 135,
      "weight": 540,
      "locktime": 0,
      "vin": [
        {
          "coinbase": "04ffff001d02ad00",
          "sequence": 4294967295
        }
      ],
      "vout": [
        {
          "value": 50.0,
          "n": 0,
          "scriptPubKey": {
            "asm": "040a7d2872ffff6047662ad5687e742b5c299fbc5fc613656bb4c3c9ca1ad53c3dccf2269fbfdadc8cc212b018f2a9b5d735b956f86ba0822bd6ce7dd556855f66 OP_CHECKSIG",
            "desc": "pk(040a7d2872ffff6047662ad5687e742b5c299fbc5fc613656bb4c3c9ca1ad53c3dccf2269fbfdadc8cc212b018f2a9b5d735b956f86ba0822bd6ce7dd556855f66)#xy7rgkgl",
            "hex": "41040a7d2872ffff6047662ad5687e742b5c299fbc5fc613656bb4c3c9ca1ad53c3dccf2269fbfdadc8cc212b018f2a9b5d735b956f86ba0822bd6ce7dd556855f66ac",
            "type": "pubkey"
          }
        }
      ],
      "hex": "01000000010000000000000000000000000000000000000000000000000000000000000000ffffffff0804ffff001d02ad00ffffffff0100f2052a010000004341040a7d2872ffff6047662ad5687e742b5c299fbc5fc613656bb4c3c9ca1ad53c3dccf2269fbfdadc8cc212b018f2a9b5d735b956f86ba0822bd6ce7dd556855f66ac00000000"
    }
  ]
}