{
  "hash": "000000002e7f4f4f2bf4627c375e9230164cc2d534a80db5a3272346a166b66b",
  "confirmations": 48871,
  "height": 4227,
  "version": 1,
  "versionHex": "00000001",
  "merkleroot": "4fbd611b92d4474633b0346f3179f25a7b42d0a179ff629e5b0f115ac369c6e7",
  "time": 1234595987,
  "mediantime": 1234594018,
  "nonce": 3198564868,
  "bits": "1d00ffff",
  "difficulty": 1,
  "chainwork": "0000000000000000000000000000000000000000000000000000108410841084",
  "nTx": 1,
  "previousblockhash": "0000000084e120606e2bc784a003602cfee150b32414ac102db7e9e67c655505",
  "nextblockhash": "00000000e89befba7f78ae403ff629e4646a3752d79be577aa42a85add22949a",
  "strippedsize": 216,
  "size": 216,
  "weight": 864,
  "tx": [
    {
      "txid": "4fbd611b92d4474633b0346f3179f25a7b42d0a179ff629e5b0f115ac369c6e7",
      "hash": "4fbd611b92d4474633b0346f3179f25a7b42d0a179ff629e5b0f115ac369c6e7",
      "version": 1,
      "size": 135,
      "vsize": 135,
      "weight": 540,
      "locktime": 0,
      "vin": [
        {
          "coinbase": "04ffff001d02ad07",
          "sequence": 4294967295
        }
      ],
      "vout": [
        {
          "value": 50.0,
          "n": 0,
          "scriptPubKey": {
            "asm": "040abee9ccc2f4ceb8df76074c675dfc4199dfc299b31f6daa99033fb44164e6ccc9a8fd498039274bab87cd1f3f4d34566bc6533e21cbf05c75aea06cc061c888 OP_CHECKSIG",
            "desc": "pk(040abee9ccc2f4ceb8df76074c675dfc4199dfc299b31f6daa99033fb44164e6ccc9a8fd498039274bab87cd1f3f4d34566bc6533e21cbf05c75aea06cc061c888)#wlgxd8mg",
            "hex": "41040abee9ccc2f4ceb8df76074c675dfc4199dfc299b31f6daa99033fb44164e6ccc9a8fd498039274bab87cd1f3f4d34566bc6533e21cbf05c75aea06cc061c888ac",
            "type": "pubkey"
          }
        }
      ],
      "hex": "01000000010000000000000000000000000000000000000000000000000000000000000000ffffffff0804ffff001d02ad07ffffffff0100f2052a010000004341040abee9ccc2f4ceb8df76074c675dfc4199dfc299b31f6daa99033fb44164e6ccc9a8fd498039274bab87cd1f3f4d34566bc6533e21cbf05c75aea06cc061c888ac00000000"
    }
  ]
}