{
  "hash": "000000007ba4ed8233fba72ad14360d0aa1bd8ef5675c2d06659dfabd5862084",
  "confirmations": 52506,
  "height": 592,
  "version": 1,
  "versionHex": "00000001",
  "merkleroot": "008a45346f7056ddfc978d41bcc05540602d20bbfc8fec289175078652c161b0",
  "time": 1232033858,
  "mediantime": 1232030354,
  "nonce": 1763293491,
  "bits": "1d00ffff",
  "difficulty": 1,
  "chainwork": "0000000000000000000000000000000000000000000000000000025102510251",
  "nTx": 1,
  "previousblockhash": "00000000198281de1916c2918c0dcc9dc38cc2f0cc2a3f6b2347dcd3403e7a8a",
  "nextblockhash": "000000001d6a5eaa63b653d569e87179366ffee019ea4108f766e79578b5ebb2",
  "strippedsize": 216,
  "size": 216,
  "weight": 864,
  "tx": [
    {
      "txid": "008a45346f7056ddfc978d41bcc05540602d20bbfc8fec289175078652c161b0",
      "hash": "008a45346f7056ddfc978d41bcc05540602d20bbfc8fec289175078652c161b0",
      "version": 1,
      "size": 135,
      "vsize": 135,
      "weight": 540,
      "locktime": 0,
      "vin": [
        {
          "coinbase": "04ffff001d028b06",
          "sequence": 4294967295
        }
      ],
      "vout": [
        {
          "value": 50.0,
          "n": 0,
          "scriptPubKey": {
            "asm": "046bdae00afbe5ca6d10c55627a8255c1dc792b91c67c5876d4bce92fa9a789377ff7dffc4d47d9dbeee0e3961fcd724789df7fde86cc36479d65dea984ad2e9b9 OP_CHECKSIG",
            "desc": "pk(046bdae00afbe5ca6d10c55627a8255c1dc792b91c67c5876d4bce92fa9a789377ff7dffc4d47d9dbeee0e3961fcd724789df7fde86cc36479d65dea984ad2e9b9)#msjve55s",
            "hex": "41046bdae00afbe5ca6d10c55627a8255c1dc792b91c67c5876d4bce92fa9a789377ff7dffc4d47d9dbeee0e3961fcd724789df7fde86cc36479d65dea984ad2e9b9ac",
            "type": "pubkey"
          }
        }
      ],
      "hex": "01000000010000000000000000000000000000000000000000000000000000000000000000ffffffff0804ffff001d028b06ffffffff0100f2052a010000004341046bdae00afbe5ca6d10c55627a8255c1dc792b91c67c5876d4bce92fa9a789377ff7dffc4d47d9dbeee0e3961fcd724789df7fde86cc36479d65dea984ad2e9b9ac00000000"
    }
  ]
}