{
  "hash": "000000008aa82460fcc7049b175253401719e1425eb24a1de18018c26583aa27",
  "confirmations": 46465,
  "height": 6633,
  "version": 1,
  "versionHex": "00000001",
  "merkleroot": "96b498a09ca6052bc6b96fd61c00bae31e5d40fd31b19a58c9db8d8b07417a40",
  "time": 1236428933,
  "mediantime": 1236423976,
  "nonce": 1636725542,
  "bits": "1d00ffff",
  "difficulty": 1,
  "chainwork": "000000000000000000000000000000000000000000000000000019ea19ea19ea",
  "nTx": 1,
  "previousblockhash": "00000000900a1b7ef3f022f01af05a55a093041a91162af5bcfc957fd1213fed",
  "nextblockhash": "00000000ad4de69521187e7030317d1ae7afec0a16ef85aee761e25cf376e3c6",
  "strippedsize": 216,
  "size": 216,
  "weight": 864,
  "tx": [
    {
      "txid": "96b498a09ca6052bc6b96fd61c00bae31e5d40fd31b19a58c9db8d8b07417a40",
      "hash": "96b498a09ca6052bc6b96fd61c00bae31e5d40fd31b19a58c9db8d8b07417a40",
      "version": 1,
      "size": 135,
      "vsize": 135,
      "weight": 540,
      "locktime": 0,
      "vin": [
        {
          "coinbase": "04ffff001d02c705",
          "sequence": 4294967295
        }
      ],
      "vout": [
        {
          "value": 50.0,
          "n": 0,
          "scriptPubKey": {
            "asm": "047fc7bc6fe0c1d04d008505781ed3b471642aa3cf74c2ec34d6f6bfec08deba3a0ba43eeac8dcf228d0db18246b7e50ff28d54e3c19c63becb7b4f2ee656b0023 OP_CHECKSIG",
            "desc": "pk(047fc7bc6fe0c1d04d008505781ed3b471642aa3cf74c2ec34d6f6bfec08deba3a0ba43eeac8dcf228d0db18246b7e50ff28d54e3c19c63becb7b4f2ee656b0023)#rsj8e7eh",
            "hex": "41047fc7bc6fe0c1d04d008505781ed3b471642aa3cf74c2ec34d6f6bfec08deba3a0ba43eeac8dcf228d0db18246b7e50ff28d54e3c19c63becb7b4f2ee656b0023ac",
            "type": "pubkey"
          }
        }
      ],
      "hex": "01000000010000000000000000000000000000000000000000000000000000000000000000ffffffff0804ffff001d02c705ffffffff0100f2052a010000004341047fc7bc6fe0c1d04d008505781ed3b471642aa3cf74c2ec34d6f6bfec08deba3a0ba43eeac8dcf228d0db18246b7e50ff28d54e3c19c63becb7b4f2ee656b0023ac00000000"
    }
  ]
}