{
  "hash": "000000000e0a6dd63fbaf3e078494491d81ba2d6695266fde007dda7d859315d",
  "confirmations": 52424,
  "height": 514,
  "version": 1,
  "versionHex": "00000001",
  "merkleroot": "d9df26d62a3ce4855f3282462ba5581b23dc51ca3595de810115c0e7176722d3",
  "time": 1231977072,
  "mediantime": 1231975112,
  "nonce": 1113892372,
  "bits": "1d00ffff",
  "difficulty": 1,
  "chainwork": "0000000000000000000000000000000000000000000000000000020302030203",
  "nTx": 1,
  "previousblockhash": "00000000f6dd61de790513e2691978433a32c785a5aad32b173c8240f0616b55",
  "nextblockhash": "0000000052cd2861ec501c07a736a692fa629d841525fa42fa59e09e15687a12",
  "strippedsize": 216,
  "size": 216,
  "weight": 864,
  "tx": [
    {
      "txid": "d9df26d62a3ce4855f3282462ba5581b23dc51ca3595de810115c0e7176722d3",
      "hash": "d9df26d62a3ce4855f3282462ba5581b23dc51ca3595de810115c0e7176722d3",
      "version": 1,
      "size": 135,
      "vsize": 135,
      "weight": 540,
      "locktime": 0,
      "vin": [
        {
          "coinbase": "04ffff001d02af04",
          "sequence": 4294967295
        }
      ],
      "vout": [
        {
          "value": 50.0,
          "n": 0,
          "scriptPubKey": {
            "asm": "04aa95151e5732b38482f7916484f208ab5733496d8fb84b631e2ad59151cd486e34604099a64726e76daff7ed29d3e1dbcc0f955d401a51b9cba7fe8779a6c64c OP_CHECKSIG",
            "desc": "pk(04aa95151e5732b38482f7916484f208ab5733496d8fb84b631e2ad59151cd486e34604099a64726e76daff7ed29d3e1dbcc0f955d401a51b9cba7fe8779a6c64c)#qn9680j2",
            "hex": "4104aa95151e5732b38482f7916484f208ab5733496d8fb84b631e2ad59151cd486e34604099a64726e76daff7ed29d3e1dbcc0f955d401a51b9cba7fe8779a6c64cac",
            "type": "pubkey"
          }
        }
      ],
      "hex": "01000000010000000000000000000000000000000000000000000000000000000000000000ffffffff0804ffff001d02af04ffffffff0100f2052a01000000434104aa95151e5732b38482f7916484f208ab5733496d8fb84b631e2ad59151cd486e34604099a64726e76daff7ed29d3e1dbcc0f955d401a51b9cba7fe8779a6c64cac00000000"
    }
  ]
}