{
  "hash": "000000005fb1187e0f421479738db9c7fa205f633a74b988f338ea84d7212dd1",
  "confirmations": 51552,
  "height": 1546,
  "version": 1,
  "versionHex": "00000001",
  "merkleroot": "c23747e9c5aea3b4c5592f3210466b3799aca0c3f670529703d05e35c9da6641",
  "time": 1232787191,
  "mediantime": 1232784479,
  "nonce": 2185167662,
  "bits": "1d00ffff",
  "difficulty": 1,
  "chainwork": "0000000000000000000000000000000000000000000000000000060b060b060b",
  "nTx": 1,
  "previousblockhash": "00000000ab1351eb7cc4e628402c721dd8a0ed1fc52ab1981d0fbdf4076565b7",
  "nextblockhash": "00000000a3276f01862fdf27d0faaa04cedf3aaac83c4bf24400f739622077ed",
  "strippedsize": 216,
  "size": 216,
  "weight": 864,
  "tx": [
    {
      "txid": "c23747e9c5aea3b4c5592f3210466b3799aca0c3f670529703d05e35c9da6641",
      "hash": "c23747e9c5aea3b4c5592f3210466b3799aca0c3f670529703d05e35c9da6641",
      "version": 1,
      "size": 135,
      "vsize": 135,
      "weight": 540,
      "locktime": 0,
      "vin": [
        {
          "coinbase": "04ffff001d029c01",
          "sequence": 4294967295
        }
      ],
      "vout": [
        {
          "value": 50.0,
          "n": 0,
          "scriptPubKey": {
            "asm": "046c760d88a5ad98a3d6736600854285825d287a5253ec3c79c70c5d09b97b3b1ff8dc9535c9707b2b2be72fa6adcb2df06a539c8e90106ecd4d3d5ac751f8102c OP_CHECKSIG",
            "desc": "pk(046c760d88a5ad98a3d6736600854285825d287a5253ec3c79c70c5d09b97b3b1ff8dc9535c9707b2b2be72fa6adcb2df06a539c8e90106ecd4d3d5ac751f8102c)#a7x4sxlj",
            "hex": "41046c760d88a5ad98a3d6736600854285825d287a5253ec3c79c70c5d09b97b3b1ff8dc9535c9707b2b2be72fa6adcb2df06a539c8e90106ecd4d3d5ac751f8102cac",
            "type": "pubkey"
          }
        }
      ],
      "hex": "01000000010000000000000000000000000000000000000000000000000000000000000000ffffffff0804ffff001d029c01ffffffff0100f2052a010000004341046c760d88a5ad98a3d6736600854285825d287a5253ec3c79c70c5d09b97b3b1ff8dc9535c9707b2b2be72fa6adcb2df06a539c8e90106ecd4d3d5ac751f8102cac00000000"
    }
  ]
}