{
  "hash": "00000000163ed6f97b29b7c061245969d26a75f3e254a9ced19a1aa1cd0ed945",
  "confirmations": 43377,
  "height": 9721,
  "version": 1,
  "versionHex": "00000001",
  "merkleroot": "a35f2ddaddcaa28ad9888abc1f2a3c6fe8286ec7fba2159899752c9a2b498546",
  "time": 1238794784,
  "mediantime": 1238790280,
  "nonce": 2919382046,
  "bits": "1d00ffff",
  "difficulty": 1,
  "chainwork": "000000000000000000000000000000000000000000000000000025fa25fa25fa",
  "nTx": 1,
  "previousblockhash": "0000000023b6a52f525d702667b86e43f2a3a7e73a841da8b7a61e0cc6502e22",
  "nextblockhash": "00000000fa80410df0e9c00ef9e52aabd57351dc575dd9e4ec5c25827e02bd1b",
  "strippedsize": 216,
  "size": 216,
  "weight": 864,
  "tx": [
    {
      "txid": "a35f2ddaddcaa28ad9888abc1f2a3c6fe8286ec7fba2159899752c9a2b498546",
      "hash": "a35f2ddaddcaa28ad9888abc1f2a3c6fe8286ec7fba2159899752c9a2b498546",
      "version": 1,
      "size": 135,
      "vsize": 135,
      "weight": 540,
      "locktime": 0,
      "vin": [
        {
          "coinbase": "04ffff001d02e408",
          "sequence": 4294967295
        }
      ],
      "vout": [
        {
          "value": 50.0,
          "n": 0,
          "scriptPubKey": {
            "asm": "04ee154db11ad514690022c1f163d8829ed17be501800257f19038ce3277ba8ebc7cc1c2cfad03a033c87f9dfba064866838cd08cf336eb02006da588fe4c28bbe OP_CHECKSIG",
            "desc": "pk(04ee154db11ad514690022c1f163d8829ed17be501800257f19038ce3277ba8ebc7cc1c2cfad03a033c87f9dfba064866838cd08cf336eb02006da588fe4c28bbe)#agvmytd9",
            "hex": "4104ee154db11ad514690022c1f163d8829ed17be501800257f19038ce3277ba8ebc7cc1c2cfad03a033c87f9dfba064866838cd08cf336eb02006da588fe4c28bbeac",
            "type": "pubkey"
          }
        }
      ],
      "hex": "01000000010000000000000000000000000000000000000000000000000000000000000000ffffffff0804ffff001d02e408ffffffff0100f2052a01000000434104ee154db11ad514690022c1f163d8829ed17be501800257f19038ce3277ba8ebc7cc1c2cfad03a033c87f9dfba064866838cd08cf336eb02006da588fe4c28bbeac00000000"
    }
  ]
}