{
  "hash": "000000008b3ff2aaf3427f2a624cb9978e687d9fbba5000dc2f52bb4cc82d4be",
  "confirmations": 52042,
  "height": 186,
  "version": 1,
  "versionHex": "00000001",
  "merkleroot": "21cb91349d6403cd296d60f94a52a2da4cc47c70fd7fb7f2ee33bd580c7b7c2f",
  "time": 1231743669,
  "mediantime": 1231740133,
  "nonce": 14496688,
  "bits": "1d00ffff",
  "difficulty": 1,
  "chainwork": "000000000000000000000000000000000000000000000000000000bb00bb00bb",
  "nTx": 1,
  "previousblockhash": "00000000e24b8df3f63b67e6f803950a6bbfee804e21072f891b4257319273ef",
  "nextblockhash": "00000000b2cde2159116889837ecf300bd77d229d49b138c55366b54626e495d",
  "strippedsize": 215,
  "size": 215,
  "weight": 860,
  "tx": [
    {
      "txid": "21cb91349d6403cd296d60f94a52a2da4cc47c70fd7fb7f2ee33bd580c7b7c2f",
      "hash": "21cb91349d6403cd296d60f94a52a2da4cc47c70fd7fb7f2ee33bd580c7b7c2f",
      "version": 1,
      "size": 134,
      "vsize": 134,
      "weight": 536,
      "locktime": 0,
      "vin": [
        {
          "coinbase": "04ffff001d0102",
          "sequence": 4294967295
        }
      ],
      "vout": [
        {
          "value": 50.0,
          "n": 0,
          "scriptPubKey": {
            "asm": "04a8c5bdf4b5a4d77da3782aa5434b8418811b1dbe269fb05614c556c58d53a927c6ca41909ae493ac68b5e9495900ff378805b638e12b582f60a694b3bf892323 OP_CHECKSIG",
            "desc": "pk(04a8c5bdf4b5a4d77da3782aa5434b8418811b1dbe269fb05614c556c58d53a927c6ca41909ae493ac68b5e9495900ff378805b638e12b582f60a694b3bf892323)#e0et7vhc",
            "hex": "4104a8c5bdf4b5a4d77da3782aa5434b8418811b1dbe269fb05614c556c58d53a927c6ca41909ae493ac68b5e9495900ff378805b638e12b582f60a694b3bf892323ac",
            "type": "pubkey"
          }
        }
      ],
      "hex": "01000000010000000000000000000000000000000000000000000000000000000000000000ffffffff0704ffff001d0102ffffffff0100f2052a01000000434104a8c5bdf4b5a4d77da3782aa5434b8418811b1dbe269fb05614c556c58d53a927c6ca41909ae493ac68b5e9495900ff378805b638e12b582f60a694b3bf892323ac00000000"
    }
  ]
}