{
  "hash": "00000000a2185f1af428c37a1b72cd744761ede6656c601d7bee0de68849c6b2",
  "confirmations": 44085,
  "height": 9013,
  "version": 1,
  "versionHex": "00000001",
  "merkleroot": "66f32fd87a0b93369f380b89d9613cc76303bbf67ee940ca83906d758284ed67",
  "time": 1238260454,
  "mediantime": 1238257133,
  "nonce": 1204155938,
  "bits": "1d00ffff",
  "difficulty": 1,
  "chainwork": "0000000000000000000000000000000000000000000000000000233623362336",
  "nTx": 1,
  "previousblockhash": "000000004c6fa7aa02a1f50d51b599a8c40efa663dbc45f092d4ec35a469f823",
  "nextblockhash": "000000009cfa56aad416605ed3a78c1a75e71263c2fb8582fbf606ba7bc92027",
  "strippedsize": 216,
  "size": 216,
  "weight": 864,
  "tx": [
    {
      "txid": "66f32fd87a0b93369f380b89d9613cc76303bbf67ee940ca83906d758284ed67",
      "hash": "66f32fd87a0b93369f380b89d9613cc76303bbf67ee940ca83906d758284ed67",
      "version": 1,
      "size": 135,
      "vsize": 135,
      "weight": 540,
      "locktime": 0,
      "vin": [
        {
          "coinbase": "04ffff001d029906",
          "sequence": 4294967295
        }
      ],
      "vout": [
        {
          "value": 50.0,
          "n": 0,
          "scriptPubKey": {
            "asm": "043995c93d857aef4f96df20b8fa3ef30506f681f4a895c9ad25670af02f5a49883d02f8d99d435939d67507c85a4dcf0bcd61fd93e8908cb3b36aa0b61edcc791 OP_CHECKSIG",
            "desc": "pk(043995c93d857aef4f96df20b8fa3ef30506f681f4a895c9ad25670af02f5a49883d02f8d99d435939d67507c85a4dcf0bcd61fd93e8908cb3b36aa0b61edcc791)#3aspayrd",
            "hex": "41043995c93d857aef4f96df20b8fa3ef30506f681f4a895c9ad25670af02f5a49883d02f8d99d435939d67507c85a4dcf0bcd61fd93e8908cb3b36aa0b61edcc791ac",
            "type": "pubkey"
          }
        }
      ],
      "hex": "01000000010000000000000000000000000000000000000000000000000000000000000000ffffffff0804ffff001d029906ffffffff0100f2052a010000004341043995c93d857aef4f96df20b8fa3ef30506f681f4a895c9ad25670af02f5a49883d02f8d99d435939d67507c85a4dcf0bcd61fd93e8908cb3b36aa0b61edcc791ac00000000"
    }
  ]
}