{
  "hash": "00000000fa6066998c588e2c3933e036ed64907a65ec593fd8ab37316fed0e8f",
  "confirmations": 52189,
  "height": 432,
  "version": 1,
  "versionHex": "00000001",
  "merkleroot": "0691617b74805f5ed8b035632972e8ec8871c0a001df458ed38f5f1d16865e26",
  "time": 1231923277,
  "mediantime": 1231920354,
  "nonce": 1733048602,
  "bits": "1d00ffff",
  "difficulty": 1,
  "chainwork": "000000000000000000000000000000000000000000000000000001b101b101b1",
  "nTx": 1,
  "previousblockhash": "000000001e9722b33a88ee9a0d17b921361aa499cfa545c60ba629ee82bba42a",
  "nextblockhash": "000000005f1a9e236f32bcfbdb8ccd951e120858070d459d048ccf9577c462fd",
  "strippedsize": 216,
  "size": 216,
  "weight": 864,
  "tx": [
    {
      "txid": "0691617b74805f5ed8b035632972e8ec8871c0a001df458ed38f5f1d16865e26",
      "hash": "0691617b74805f5ed8b035632972e8ec8871c0a001df458ed38f5f1d16865e26",
      "version": 1,
      "size": 135,
      "vsize": 135,
      "weight": 540,
      "locktime": 0,
      "vin": [
        {
          "coinbase": "04ffff001d023f03",
          "sequence": 4294967295
        }
      ],
      "vout": [
        {
          "value": 50.0,
          "n": 0,
          "scriptPubKey": {
            "asm": "04933b69bedccc7a60bc335c88c09db286e394f13a50a81650009163db81e662090fb8893e4b2b60be44092bd924bee555c0cde31958f25802a88dd31cd50f50cf OP_CHECKSIG",
            "desc": "pk(04933b69bedccc7a60bc335c88c09db286e394f13a50a81650009163db81e662090fb8893e4b2b60be44092bd924bee555c0cde31958f25802a88dd31cd50f50cf)#pz9ehuvd",
            "hex": "4104933b69bedccc7a60bc335c88c09db286e394f13a50a81650009163db81e662090fb8893e4b2b60be44092bd924bee555c0cde31958f25802a88dd31cd50f50cfac",
            "type": "pubkey"
          }
        }
      ],
      "hex": "01000000010000000000000000000000000000000000000000000000000000000000000000ffffffff0804ffff001d023f03ffffffff0100f2052a01000000434104933b69bedccc7a60bc335c88c09db286e394f13a50a81650009163db81e662090fb8893e4b2b60be44092bd924bee555c0cde31958f25802a88dd31cd50f50cfac00000000"
    }
  ]
}