{
  "hash": "000000000ba2cae81854ad5a65aa484a9e1f44692bc76c1706dae7987ae09fcb",
  "confirmations": 50886,
  "height": 2212,
  "version": 1,
  "versionHex": "00000001",
  "merkleroot": "1aed46fbb5a562e24707ebe4b6ebcc48c49110058ee7700b9f186bcfdcf81cea",
  "time": 1233222520,
  "mediantime": 1233219856,
  "nonce": 4681562,
  "bits": "1d00ffff",
  "difficulty": 1,
  "chainwork": "000000000000000000000000000000000000000000000000000008a508a508a5",
  "nTx": 1,
  "previousblockhash": "00000000efb7a2f9980e6f4e146c9b7bb308fb2b300d47a106436fc85005af5d",
  "nextblockhash": "000000009cdf8746d02ef9c07ef02447edbdbf22218ed318ad6bcba33f572996",
  "strippedsize": 215,
  "size": 215,
  "weight": 860,
  "tx": [
    {
      "txid": "1aed46fbb5a562e24707ebe4b6ebcc48c49110058ee7700b9f186bcfdcf81cea",
      "hash": "1aed46fbb5a562e24707ebe4b6ebcc48c49110058ee7700b9f186bcfdcf81cea",
      "version": 1,
      "size": 134,
      "vsize": 134,
      "weight": 536,
      "locktime": 0,
      "vin": [
        {
          "coinbase": "04ffff001d0121",
          "sequence": 4294967295
        }
      ],
      "vout": [
        {
          "value": 50.0,
          "n": 0,
          "scriptPubKey": {
            "asm": "042c41caac40bb3ac48f3ae794ca08491c5ed593e0b782d18c780f02d82eb41f355d3c5e6fdea38f4c5d79b7b9b0376aac42fdfb5577b2202be199961fcd1ea705 OP_CHECKSIG",
            "desc": "pk(042c41caac40bb3ac48f3ae794ca08491c5ed593e0b782d18c780f02d82eb41f355d3c5e6fdea38f4c5d79b7b9b0376aac42fdfb5577b2202be199961fcd1ea705)#vw4m62r0",
            "hex": "41042c41caac40bb3ac48f3ae794ca08491c5ed593e0b782d18c780f02d82eb41f355d3c5e6fdea38f4c5d79b7b9b0376aac42fdfb5577b2202be199961fcd1ea705ac",
            "type": "pubkey"
          }
        }
      ],
      "hex": "01000000010000000000000000000000000000000000000000000000000000000000000000ffffffff0704ffff001d0121ffffffff0100f2052a010000004341042c41caac40bb3ac48f3ae794ca08491c5ed593e0b782d18c780f02d82eb41f355d3c5e6fdea38f4c5d79b7b9b0376aac42fdfb5577b2202be199961fcd1ea705ac00000000"
    }
  ]
}