{
  "hash": "000000000c8662009fdc5fc649984215b6472b860569ccbeb2a63a6731acdf8e",
  "confirmations": 52426,
  "height": 512,
  "version": 1,
  "versionHex": "00000001",
  "merkleroot": "a977106260f6309232b205e87de99e1f9d892ba8d52c0b46d8024e80ce03f14c",
  "time": 1231975750,
  "mediantime": 1231973656,
  "nonce": 34981982,
  "bits": "1d00ffff",
  "difficulty": 1,
  "chainwork": "0000000000000000000000000000000000000000000000000000020102010201",
  "nTx": 1,
  "previousblockhash": "0000000013c878e1fd334fc9a1f4dbe6a4ed76562c5507c4fc21c2e273f41610",
  "nextblockhash": "00000000f6dd61de790513e2691978433a32c785a5aad32b173c8240f0616b55",
  "strippedsize": 216,
  "size": 216,
  "weight": 864,
  "tx": [
    {
      "txid": "a977106260f6309232b205e87de99e1f9d892ba8d52c0b46d8024e80ce03f14c",
      "hash": "a977106260f6309232b205e87de99e1f9d892ba8d52c0b46d8024e80ce03f14c",
      "version": 1,
      "size": 135,
      "vsize": 135,
      "weight": 540,
      "locktime": 0,
      "vin": [
        {
          "coinbase": "04ffff001d02f000",
          "sequence": 4294967295
        }
      ],
      "vout": [
        {
          "value": 50.0,
          "n": 0,
          "scriptPubKey": {
            "asm": "0422e09d61aaebbba897cd9ad9733db0c0c56a9c674d04e0e6cdc78c9e7c370b1cf0cba4a5289c8742e6e0eacac608f176294c5914f62c40989562d680e2740a54 OP_CHECKSIG",
            "desc": "pk(0422e09d61aaebbba897cd9ad9733db0c0c56a9c674d04e0e6cdc78c9e7c370b1cf0cba4a5289c8742e6e0eacac608f176294c5914f62c40989562d680e2740a54)#rr6mhhsd",
            "hex": "410422e09d61aaebbba897cd9ad9733db0c0c56a9c674d04e0e6cdc78c9e7c370b1cf0cba4a5289c8742e6e0eacac608f176294c5914f62c40989562d680e2740a54ac",
            "type": "pubkey"
          }
        }
      ],
      "hex": "01000000010000000000000000000000000000000000000000000000000000000000000000ffffffff0804ffff001d02f000ffffffff0100f2052a0100000043410422e09d61aaebbba897cd9ad9733db0c0c56a9c674d04e0e6cdc78c9e7c370b1cf0cba4a5289c8742e6e0eacac608f176294c5914f62c40989562d680e2740a54ac00000000"
    }
  ]
}