{
  "hash": "00000000a231f8c4eb3e7abd317d52964002854596956660a678e4d11537e73e",
  "confirmations": 52101,
  "height": 997,
  "version": 1,
  "versionHex": "00000001",
  "merkleroot": "a8f1815e5deae697e2fa082289f26f3789a5eca1419f263fc289986ec744f592",
  "time": 1232345400,
  "mediantime": 1232343956,
  "nonce": 4166299141,
  "bits": "1d00ffff",
  "difficulty": 1,
  "chainwork": "000000000000000000000000000000000000000000000000000003e603e603e6",
  "nTx": 1,
  "previousblockhash": "00000000135e515a3570b8bd43cc0e5bc301780b7d98a57fe980739df183d289",
  "nextblockhash": "000000003b2cfccabec62b1f874ee8e8e3c481a7e78d5188d7777fbbb948f1a0",
  "strippedsize": 216,
  "size": 216,
  "weight": 864,
  "tx": [
    {
      "txid": "a8f1815e5deae697e2fa082289f26f3789a5eca1419f263fc289986ec744f592",
      "hash": "a8f1815e5deae697e2fa082289f26f3789a5eca1419f263fc289986ec744f592",
      "version": 1,
      "size": 135,
      "vsize": 135,
      "weight": 540,
      "locktime": 0,
      "vin": [
        {
          "coinbase": "04ffff001d02fa04",
          "sequence": 4294967295
        }
      ],
      "vout": [
        {
          "value": 50.0,
          "n": 0,
          "scriptPubKey": {
            "asm": "042937d08d910b7568f3dcb45340d02699a66a5b9c218ed5a01bf42660eec0c3f9528eea4172534a663178905946b728be85755371279ec011a2ee2a6c177a016e OP_CHECKSIG",
            "desc": "pk(042937d08d910b7568f3dcb45340d02699a66a5b9c218ed5a01bf42660eec0c3f9528eea4172534a663178905946b728be85755371279ec011a2ee2a6c177a016e)#wamu55ha",
            "hex": "41042937d08d910b7568f3dcb45340d02699a66a5b9c218ed5a01bf42660eec0c3f9528eea4172534a663178905946b728be85755371279ec011a2ee2a6c177a016eac",
            "type": "pubkey"
          }
        }
      ],
      "hex": "01000000010000000000000000000000000000000000000000000000000000000000000000ffffffff0804ffff001d02fa04ffffffff0100f2052a010000004341042937d08d910b7568f3dcb45340d02699a66a5b9c218ed5a01bf42660eec0c3f9528eea4172534a663178905946b728be85755371279ec011a2ee2a6c177a016eac00000000"
    }
  ]
}