{
  "hash": "00000000660aaa727ebc610ed069e23abd28f516c614de894e1492994df78edc",
  "confirmations": 47748,
  "height": 5350,
  "version": 1,
  "versionHex": "00000001",
  "merkleroot": "977e00ccf9d163ad5bf2e8b8774d16300b978492266768eb2cabb8be8d16688b",
  "time": 1235404398,
  "mediantime": 1235399280,
  "nonce": 901313065,
  "bits": "1d00ffff",
  "difficulty": 1,
  "chainwork": "000000000000000000000000000000000000000000000000000014e714e714e7",
  "nTx": 1,
  "previousblockhash": "00000000e37aae0e36b4f1ed6da9bb16d0a14815d63cc1ee7ca432e76d60c04c",
  "nextblockhash": "0000000083be2e513d76f87ebdf93310040ecb5ec14556bbe2b635bad65bdbdb",
  "strippedsize": 216,
  "size": 216,
  "weight": 864,
  "tx": [
    {
      "txid": "977e00ccf9d163ad5bf2e8b8774d16300b978492266768eb2cabb8be8d16688b",
      "hash": "977e00ccf9d163ad5bf2e8b8774d16300b978492266768eb2cabb8be8d16688b",
      "version": 1,
      "size": 135,
      "vsize": 135,
      "weight": 540,
      "locktime": 0,
      "vin": [
        {
          "coinbase": "04ffff001d02e402",
          "sequence": 4294967295
        }
      ],
      "vout": [
        {
          "value": 50.0,
          "n": 0,
          "scriptPubKey": {
            "asm": "04e0cc23d5cd7cdcc54251f410fc385e3026358150787522b05dd03884fa52d929c8548bcb80c2d7da2b95746df85d24f8c431e376f8096c114d5cbd9765934a2b OP_CHECKSIG",
            "desc": "pk(04e0cc23d5cd7cdcc54251f410fc385e3026358150787522b05dd03884fa52d929c8548bcb80c2d7da2b95746df85d24f8c431e376f8096c114d5cbd9765934a2b)#37z6keql",
            "hex": "4104e0cc23d5cd7cdcc54251f410fc385e3026358150787522b05dd03884fa52d929c8548bcb80c2d7da2b95746df85d24f8c431e376f8096c114d5cbd9765934a2bac",
            "type": "pubkey"
          }
        }
      ],
      "hex": "01000000010000000000000000000000000000000000000000000000000000000000000000ffffffff0804ffff001d02e402ffffffff0100f2052a01000000434104e0cc23d5cd7cdcc54251f410fc385e3026358150787522b05dd03884fa52d929c8548bcb80c2d7da2b95746df85d24f8c431e376f8096c114d5cbd9765934a2bac00000000"
    }
  ]
}