{
  "hash": "00000000e0d9b8de4c2f2a966d18fecb2f600df5de7a00634fa77c7ce7dbbaf8",
  "confirmations": 45676,
  "height": 7422,
  "version": 1,
  "versionHex": "00000001",
  "merkleroot": "2e70d76c497be8f32ce0317bb34399f963ba43e0e258c691bd5c02a5bd9578eb",
  "time": 1237040183,
  "mediantime": 1237036166,
  "nonce": 2872034817,
  "bits": "1d00ffff",
  "difficulty": 1,
  "chainwork": "00000000000000000000000000000000000000000000000000001cff1cff1cff",
  "nTx": 1,
  "previousblockhash": "00000000c9448fda9599ef8d4421f51742bba52db190a76eff472365605ae7aa",
  "nextblockhash": "00000000d96ba9671153a7649eda0c70f99877f4aaf11aaecb676b3568bf30ce",
  "strippedsize": 216,
  "size": 216,
  "weight": 864,
  "tx": [
    {
      "txid": "2e70d76c497be8f32ce0317bb34399f963ba43e0e258c691bd5c02a5bd9578eb",
      "hash": "2e70d76c497be8f32ce0317bb34399f963ba43e0e258c691bd5c02a5bd9578eb",
      "version": 1,
      "size": 135,
      "vsize": 135,
      "weight": 540,
      "locktime": 0,
      "vin": [
        {
          "coinbase": "04ffff001d02cb09",
          "sequence": 4294967295
        }
      ],
      "vout": [
        {
          "value": 50.0,
          "n": 0,
          "scriptPubKey": {
            "asm": "04b3cfd169833723dc8c9da907aebc81d863bc7be4d5c80301dbcae8180aa551d8d973a8be7184d0ca7a51da63a017cef1ea6e7fbc6e3368553fbe26004236edb3 OP_CHECKSIG",
            "desc": "pk(04b3cfd169833723dc8c9da907aebc81d863bc7be4d5c80301dbcae8180aa551d8d973a8be7184d0ca7a51da63a017cef1ea6e7fbc6e3368553fbe26004236edb3)#jrswfdxd",
            "hex": "4104b3cfd169833723dc8c9da907aebc81d863bc7be4d5c80301dbcae8180aa551d8d973a8be7184d0ca7a51da63a017cef1ea6e7fbc6e3368553fbe26004236edb3ac",
            "type": "pubkey"
          }
        }
      ],
      "hex": "01000000010000000000000000000000000000000000000000000000000000000000000000ffffffff0804ffff001d02cb09ffffffff0100f2052a01000000434104b3cfd169833723dc8c9da907aebc81d863bc7be4d5c80301dbcae8180aa551d8d973a8be7184d0ca7a51da63a017cef1ea6e7fbc6e3368553fbe26004236edb3ac00000000"
    }
  ]
}