{
  "hash": "00000000edf28e8862df8c9c4d1496e89228c1472c67838e06198da1117ae40a",
  "confirmations": 51669,
  "height": 1429,
  "version": 1,
  "versionHex": "00000001",
  "merkleroot": "aa3bc6b65cfa9154ac38a947c1a7a53dd7fc9e3f23382e9886de367275513912",
  "time": 1232736691,
  "mediantime": 1232735014,
  "nonce": 3087134520,
  "bits": "1d00ffff",
  "difficulty": 1,
  "chainwork": "0000000000000000000000000000000000000000000000000000059605960596",
  "nTx": 1,
  "previousblockhash": "000000000943001d3fffff625b880567d5ca906d996f6908d1f8b461ac203403",
  "nextblockhash": "000000000009606d829b157912edb060c406b519fb2bfcc1078c196b69c67e49",
  "strippedsize": 215,
  "size": 215,
  "weight": 860,
  "tx": [
    {
      "txid": "aa3bc6b65cfa9154ac38a947c1a7a53dd7fc9e3f23382e9886de367275513912",
      "hash": "aa3bc6b65cfa9154ac38a947c1a7a53dd7fc9e3f23382e9886de367275513912",
      "version": 1,
      "size": 134,
      "vsize": 134,
      "weight": 536,
      "locktime": 0,
      "vin": [
        {
          "coinbase": "04ffff001d015d",
          "sequence": 4294967295
        }
      ],
      "vout": [
        {
          "value": 50.0,
          "n": 0,
          "scriptPubKey": {
            "asm": "0439dde2196e8bc537efdc3238351ecef1f24faf206e59804089678403735a4a96431ebcf4938cd120f41cfd0c1d55c645d90875297be10f374b4f4e23c355eccc OP_CHECKSIG",
            "desc": "pk(0439dde2196e8bc537efdc3238351ecef1f24faf206e59804089678403735a4a96431ebcf4938cd120f41cfd0c1d55c645d90875297be10f374b4f4e23c355eccc)#8wjgfu6t",
            "hex": "410439dde2196e8bc537efdc3238351ecef1f24faf206e59804089678403735a4a96431ebcf4938cd120f41cfd0c1d55c645d90875297be10f374b4f4e23c355ecccac",
            "type": "pubkey"
          }
        }
      ],
      "hex": "01000000010000000000000000000000000000000000000000000000000000000000000000ffffffff0704ffff001d015dffffffff0100f2052a0100000043410439dde2196e8bc537efdc3238351ecef1f24faf206e59804089678403735a4a96431ebcf4938cd120f41cfd0c1d55c645d90875297be10f374b4f4e23c355ecccac00000000"
    }
  ]
}