{
  "hash": "00000000314e90489514c787d615cea50003af2023796ccdd085b6bcc1fa28f5",
  "confirmations": 51856,
  "height": 42,
  "version": 1,
  "versionHex": "00000001",
  "merkleroot": "27c4d937dca276fb2b61e579902e8a876fd5b5abc17590410ced02d5a9f8e483",
  "time": 1231609153,
  "mediantime": 1231606762,
  "nonce": 3600650283,
  "bits": "1d00ffff",
  "difficulty": 1,
  "chainwork": "0000000000000000000000000000000000000000000000000000002b002b002b",
  "nTx": 1,
  "previousblockhash": "00000000ad2b48c7032b6d7d4f2e19e54d79b1c159f5599056492f2cd7bb528b",
  "nextblockhash": "00000000ac21f2862aaab177fd3c5c8b395de842f84d88c9cf3420b2d393e550",
  "strippedsize": 215,
  "size": 215,
  "weight": 860,
  "tx": [
    {
      "txid": "27c4d937dca276fb2b61e579902e8a876fd5b5abc17590410ced02d5a9f8e483",
      "hash": "27c4d937dca276fb2b61e579902e8a876fd5b5abc17590410ced02d5a9f8e483",
      "version": 1,
      "size": 134,
      "vsize": 134,
      "weight": 536,
      "locktime": 0,
      "vin": [
        {
          "coinbase": "04ffff001d0115",
          "sequence": 4294967295
        }
      ],
      "vout": [
        {
          "value": 50.0,
          "n": 0,
          "scriptPubKey": {
            "asm": "04462b00d67b254e4b10de6fe0b277b6a34f2438758fc5fc2c18c5b53e9352322b94d2be6ca5a2557ebf55905f7dc6cca699162b0faf919754b5ca369d31d0bb31 OP_CHECKSIG",
            "desc": "pk(04462b00d67b254e4b10de6fe0b277b6a34f2438758fc5fc2c18c5b53e9352322b94d2be6ca5a2557ebf55905f7dc6cca699162b0faf919754b5ca369d31d0bb31)#ratatm6j",
            "hex": "4104462b00d67b254e4b10de6fe0b277b6a34f2438758fc5fc2c18c5b53e9352322b94d2be6ca5a2557ebf55905f7dc6cca699162b0faf919754b5ca369d31d0bb31ac",
            "type": "pubkey"
          }
        }
      ],
      "hex": "01000000010000000000000000000000000000000000000000000000000000000000000000ffffffff0704ffff001d0115ffffffff0100f2052a01000000434104462b00d67b254e4b10de6fe0b277b6a34f2438758fc5fc2c18c5b53e9352322b94d2be6ca5a2557ebf55905f7dc6cca699162b0faf919754b5ca369d31d0bb31ac00000000"
    }
  ]
}