{
  "hash": "000000006f9554b1b00ac6a3a52d9223f6083373f4aaff95effdbae09f359be6",
  "confirmations": 50817,
  "height": 2281,
  "version": 1,
  "versionHex": "00000001",
  "merkleroot": "6d7648e820a4f4d34c8c7675613630602d486bdf45d6b362992c92018fd15cbb",
  "time": 1233268037,
  "mediantime": 1233263841,
  "nonce": 355774520,
  "bits": "1d00ffff",
  "difficulty": 1,
  "chainwork": "000000000000000000000000000000000000000000000000000008ea08ea08ea",
  "nTx": 1,
  "previousblockhash": "00000000d9da3e4b800f2eeb7b5cde52d3a646b114f1a4995465109be76d9814",
  "nextblockhash": "000000005743d5f574e5a96826445be944e59687cba22ede9783155a1074da9b",
  "strippedsize": 216,
  "size": 216,
  "weight": 864,
  "tx": [
    {
      "txid": "6d7648e820a4f4d34c8c7675613630602d486bdf45d6b362992c92018fd15cbb",
      "hash": "6d7648e820a4f4d34c8c7675613630602d486bdf45d6b362992c92018fd15cbb",
      "version": 1,
      "size": 135,
      "vsize": 135,
      "weight": 540,
      "locktime": 0,
      "vin": [
        {
          "coinbase": "04ffff001d026901",
          "sequence": 4294967295
        }
      ],
      "vout": [
        {
          "value": 50.0,
          "n": 0,
          "scriptPubKey": {
            "asm": "0488d65e25a595133a04187c06afa46e1e7c41d5ad0d918c277ab307398a4dfbf1c5295bf699c3f8cd1dc1d0d17f791c6eb920943843da664bce4bcb26067ca1d9 OP_CHECKSIG",
            "desc": "pk(0488d65e25a595133a04187c06afa46e1e7c41d5ad0d918c277ab307398a4dfbf1c5295bf699c3f8cd1dc1d0d17f791c6eb920943843da664bce4bcb26067ca1d9)#k8vvgsyg",
            "hex": "410488d65e25a595133a04187c06afa46e1e7c41d5ad0d918c277ab307398a4dfbf1c5295bf699c3f8cd1dc1d0d17f791c6eb920943843da664bce4bcb26067ca1d9ac",
            "type": "pubkey"
          }
        }
      ],
      "hex": "01000000010000000000000000000000000000000000000000000000000000000000000000ffffffff0804ffff001d026901ffffffff0100f2052a0100000043410488d65e25a595133a04187c06afa46e1e7c41d5ad0d918c277ab307398a4dfbf1c5295bf699c3f8cd1dc1d0d17f791c6eb920943843da664bce4bcb26067ca1d9ac00000000"
    }
  ]
}