{
  "hash": "00000000d030affa87468d74670822ed0d46591cfa2dc1c628a0e16fc208a01c",
  "confirmations": 51821,
  "height": 1277,
  "version": 1,
  "versionHex": "00000001",
  "merkleroot": "c4f0d08bbed0db980dd57a6e30f4057baf5f3a4bcb23f970f0e95c5b451b373c",
  "time": 1232557240,
  "mediantime": 1232553288,
  "nonce": 2025242406,
  "bits": "1d00ffff",
  "difficulty": 1,
  "chainwork": "000000000000000000000000000000000000000000000000000004fe04fe04fe",
  "nTx": 1,
  "previousblockhash": "00000000abe5aa909678558a3584d467a2c2363b01668800e8ed5231d9d726c4",
  "nextblockhash": "0000000053e557e806f01419d60de7c7b43dc4fb6896a93c9a7957b73be57fe0",
  "strippedsize": 216,
  "size": 216,
  "weight": 864,
  "tx": [
    {
      "txid": "c4f0d08bbed0db980dd57a6e30f4057baf5f3a4bcb23f970f0e95c5b451b373c",
      "hash": "c4f0d08bbed0db980dd57a6e30f4057baf5f3a4bcb23f970f0e95c5b451b373c",
      "version": 1,
      "size": 135,
      "vsize": 135,
      "weight": 540,
      "locktime": 0,
      "vin": [
        {
          "coinbase": "04ffff001d02f709",
          "sequence": 4294967295
        }
      ],
      "vout": [
        {
          "value": 50.0,
          "n": 0,
          "scriptPubKey": {
            "asm": "04e64134eb90e03c7791927c8bae00fd0eb1112ae6cb24ec5be4f2e6d2574925403c6c7b1b811fd271cb5205e3b47a01b56ab8cc5c30422d9a2fe3037d9e7c413e OP_CHECKSIG",
            "desc": "pk(04e64134eb90e03c7791927c8bae00fd0eb1112ae6cb24ec5be4f2e6d2574925403c6c7b1b811fd271cb5205e3b47a01b56ab8cc5c30422d9a2fe3037d9e7c413e)#r2spxfmf",
            "hex": "4104e64134eb90e03c7791927c8bae00fd0eb1112ae6cb24ec5be4f2e6d2574925403c6c7b1b811fd271cb5205e3b47a01b56ab8cc5c30422d9a2fe3037d9e7c413eac",
            "type": "pubkey"
          }
        }
      ],
      "hex": "01000000010000000000000000000000000000000000000000000000000000000000000000ffffffff0804ffff001d02f709ffffffff0100f2052a01000000434104e64134eb90e03c7791927c8bae00fd0eb1112ae6cb24ec5be4f2e6d2574925403c6c7b1b811fd271cb5205e3b47a01b56ab8cc5c30422d9a2fe3037d9e7c413eac00000000"
    }
  ]
}