{
  "hash": "000000003983b989ed5037704b37ccced779def688ee8ad2ffba10f1cd94c731",
  "confirmations": 47914,
  "height": 5184,
  "version": 1,
  "versionHex": "00000001",
  "merkleroot": "9a4ffef1b33ce1192df4a9f4c5dc68fd332e55f3bd0701af8e3854c2a8a17f01",
  "time": 1235275532,
  "mediantime": 1235272790,
  "nonce": 2288869176,
  "bits": "1d00ffff",
  "difficulty": 1,
  "chainwork": "0000000000000000000000000000000000000000000000000000144114411441",
  "nTx": 1,
  "previousblockhash": "0000000059896c850423261359ed330fb9ba2a0b981d75972d54096925aadc33",
  "nextblockhash": "000000007689885f84a7fb445e5d4e3179411242d629d9e8b52d87a87d4768a6",
  "strippedsize": 215,
  "size": 215,
  "weight": 860,
  "tx": [
    {
      "txid": "9a4ffef1b33ce1192df4a9f4c5dc68fd332e55f3bd0701af8e3854c2a8a17f01",
      "hash": "9a4ffef1b33ce1192df4a9f4c5dc68fd332e55f3bd0701af8e3854c2a8a17f01",
      "version": 1,
      "size": 134,
      "vsize": 134,
      "weight": 536,
      "locktime": 0,
      "vin": [
        {
          "coinbase": "04ffff001d0148",
          "sequence": 4294967295
        }
      ],
      "vout": [
        {
          "value": 50.0,
          "n": 0,
          "scriptPubKey": {
            "asm": "04e89e7fee8ab27753379597b9b7d4384fa9a06faf6a4a31f34fce303aab1b4ba3976bd2e69a77029c07e0b64968b1f096dc104ea312e7b0d1283424440d0e95ad OP_CHECKSIG",
            "desc": "pk(04e89e7fee8ab27753379597b9b7d4384fa9a06faf6a4a31f34fce303aab1b4ba3976bd2e69a77029c07e0b64968b1f096dc104ea312e7b0d1283424440d0e95ad)#wtvamdj2",
            "hex": "4104e89e7fee8ab27753379597b9b7d4384fa9a06faf6a4a31f34fce303aab1b4ba3976bd2e69a77029c07e0b64968b1f096dc104ea312e7b0d1283424440d0e95adac",
            "type": "pubkey"
          }
        }
      ],
      "hex": "01000000010000000000000000000000000000000000000000000000000000000000000000ffffffff0704ffff001d0148ffffffff0100f2052a01000000434104e89e7fee8ab27753379597b9b7d4384fa9a06faf6a4a31f34fce303aab1b4ba3976bd2e69a77029c07e0b64968b1f096dc104ea312e7b0d1283424440d0e95adac00000000"
    }
  ]
}