{
  "hash": "00000000a4b25ce4c82a08d3c74d39c79295acab60365d009993c7b6da2c5c26",
  "confirmations": 45183,
  "height": 7915,
  "version": 1,
  "versionHex": "00000001",
  "merkleroot": "80235e9d670087f8cf40e4963f9c37f9017b0327bd7536523484d5afe857720f",
  "time": 1237403387,
  "mediantime": 1237400693,
  "nonce": 27612403,
  "bits": "1d00ffff",
  "difficulty": 1,
  "chainwork": "00000000000000000000000000000000000000000000000000001eec1eec1eec",
  "nTx": 1,
  "previousblockhash": "0000000027708ceb81dbd309ae848d2828663554cf25a502c67625b97c003c96",
  "nextblockhash": "00000000d77a461587fc03dd21011bedaf43d443bc58ffa444ed3829052942c6",
  "strippedsize": 216,
  "size": 216,
  "weight": 864,
  "tx": [
    {
      "txid": "80235e9d670087f8cf40e4963f9c37f9017b0327bd7536523484d5afe857720f",
      "hash": "80235e9d670087f8cf40e4963f9c37f9017b0327bd7536523484d5afe857720f",
      "version": 1,
      "size": 135,
      "vsize": 135,
      "weight": 540,
      "locktime": 0,
      "vin": [
        {
          "coinbase": "04ffff001d024f03",
          "sequence": 4294967295
        }
      ],
      "vout": [
        {
          "value": 50.0,
          "n": 0,
          "scriptPubKey": {
            "asm": "04a9b80d8b78b0632b99a861bf23648024c3e0b684f0e03d08f855cff929ea113b1ac0aa2fa1b00c379759be91ee9e86b2fbc2d8e9f2f1c0e1c07aabadfb1054f4 OP_CHECKSIG",
            "desc": "pk(04a9b80d8b78b0632b99a861bf23648024c3e0b684f0e03d08f855cff929ea113b1ac0aa2fa1b00c379759be91ee9e86b2fbc2d8e9f2f1c0e1c07aabadfb1054f4)#d8kj7c06",
            "hex": "4104a9b80d8b78b0632b99a861bf23648024c3e0b684f0e03d08f855cff929ea113b1ac0aa2fa1b00c379759be91ee9e86b2fbc2d8e9f2f1c0e1c07aabadfb1054f4ac",
            "type": "pubkey"
          }
        }
      ],
      "hex": "01000000010000000000000000000000000000000000000000000000000000000000000000ffffffff0804ffff001d024f03ffffffff0100f2052a01000000434104a9b80d8b78b0632b99a861bf23648024c3e0b684f0e03d08f855cff929ea113b1ac0aa2fa1b00c379759be91ee9e86b2fbc2d8e9f2f1c0e1c07aabadfb1054f4ac00000000"
    }
  ]
}