{
  "hash": "0000000009e8ec81ce4d599d67ef1a780230c9db23cc7aec269b08d684a05d76",
  "confirmations": 50159,
  "height": 2939,
  "version": 1,
  "versionHex": "00000001",
  "merkleroot": "d7b5823cbbcdabd0521ddebad3c2c35dc02d67143e7623699091d52836984523",
  "time": 1233717110,
  "mediantime": 1233713948,
  "nonce": 581709336,
  "bits": "1d00ffff",
  "difficulty": 1,
  "chainwork": "00000000000000000000000000000000000000000000000000000b7c0b7c0b7c",
  "nTx": 1,
  "previousblockhash": "0000000023a952a8335a910a5e492de0df5bf812d29db3bc3fcd2984246f6ecd",
  "nextblockhash": "00000000c03c0de143abe860076d2a0ffa92f9f1dc08eb0c94c6bc3b8998e27a",
  "strippedsize": 215,
  "size": 215,
  "weight": 860,
  "tx": [
    {
      "txid": "d7b5823cbbcdabd0521ddebad3c2c35dc02d67143e7623699091d52836984523",
      "hash": "d7b5823cbbcdabd0521ddebad3c2c35dc02d67143e7623699091d52836984523",
      "version": 1,
      "size": 134,
      "vsize": 134,
      "weight": 536,
      "locktime": 0,
      "vin": [
        {
          "coinbase": "04ffff001d015f",
          "sequence": 4294967295
        }
      ],
      "vout": [
        {
          "value": 50.0,
          "n": 0,
          "scriptPubKey": {
            "asm": "04d000c30258818a03c3c4615d18139f5d0937ecb910347fb11d8984150ae0af8815e8715e99c5884842a35a95c107ea400f2625c840a0a21c2c4f31732710e97b OP_CHECKSIG",
            "desc": "pk(04d000c30258818a03c3c4615d18139f5d0937ecb910347fb11d8984150ae0af8815e8715e99c5884842a35a95c107ea400f2625c840a0a21c2c4f31732710e97b)#826dczwg",
            "hex": "4104d000c30258818a03c3c4615d18139f5d0937ecb910347fb11d8984150ae0af8815e8715e99c5884842a35a95c107ea400f2625c840a0a21c2c4f31732710e97bac",
            "type": "pubkey"
          }
        }
      ],
      "hex": "01000000010000000000000000000000000000000000000000000000000000000000000000ffffffff0704ffff001d015fffffffff0100f2052a01000000434104d000c30258818a03c3c4615d18139f5d0937ecb910347fb11d8984150ae0af8815e8715e99c5884842a35a95c107ea400f2625c840a0a21c2c4f31732710e97bac00000000"
    }
  ]
}