{
  "hash": "00000000b0cd5f70892b121097c1d34bec061ef951d0ff1effabb2bf33a2cd9a",
  "confirmations": 46541,
  "height": 6557,
  "version": 1,
  "versionHex": "00000001",
  "merkleroot": "bf9656c738e70c8d92cd900b39a06cbc3a574ea0f85c3c1a036dfae02bb2501b",
  "time": 1236371026,
  "mediantime": 1236366950,
  "nonce": 545075222,
  "bits": "1d00ffff",
  "difficulty": 1,
  "chainwork": "0000000000000000000000000000000000000000000000000000199e199e199e",
  "nTx": 1,
  "previousblockhash": "00000000e746958c51f83d12ddba62886b212976f908b382a4fda49641d95a18",
  "nextblockhash": "00000000a66d01b8f6ad9769ce667488815102c78e056bfc94ae431109933631",
  "strippedsize": 216,
  "size": 216,
  "weight": 864,
  "tx": [
    {
      "txid": "bf9656c738e70c8d92cd900b39a06cbc3a574ea0f85c3c1a036dfae02bb2501b",
      "hash": "bf9656c738e70c8d92cd900b39a06cbc3a574ea0f85c3c1a036dfae02bb2501b",
      "version": 1,
      "size": 135,
      "vsize": 135,
      "weight": 540,
      "locktime": 0,
      "vin": [
        {
          "coinbase": "04ffff001d027e04",
          "sequence": 4294967295
        }
      ],
      "vout": [
        {
          "value": 50.0,
          "n": 0,
          "scriptPubKey": {
            "asm": "04f8fe74481f015502c350d8ed641d7ebc8599dced04ff74ff6b55d1342969b9a12bf181ee6f44856ba953b7f9877fd9a2ec4f7802f2723a17271512d266d861f0 OP_CHECKSIG",
            "desc": "pk(04f8fe74481f015502c350d8ed641d7ebc8599dced04ff74ff6b55d1342969b9a12bf181ee6f44856ba953b7f9877fd9a2ec4f7802f2723a17271512d266d861f0)#kperuhnx",
            "hex": "4104f8fe74481f015502c350d8ed641d7ebc8599dced04ff74ff6b55d1342969b9a12bf181ee6f44856ba953b7f9877fd9a2ec4f7802f2723a17271512d266d861f0ac",
            "type": "pubkey"
          }
        }
      ],
      "hex": "01000000010000000000000000000000000000000000000000000000000000000000000000ffffffff0804ffff001d027e04ffffffff0100f2052a01000000434104f8fe74481f015502c350d8ed641d7ebc8599dced04ff74ff6b55d1342969b9a12bf181ee6f44856ba953b7f9877fd9a2ec4f7802f2723a17271512d266d861f0ac00000000"
    }
  ]
}