{
  "hash": "00000000b0377041fa2c5b227b75ea9fed7c3635c9c1d94ec1389ff6096fa3d3",
  "confirmations": 49775,
  "height": 3323,
  "version": 1,
  "versionHex": "00000001",
  "merkleroot": "7916bd386f0950d4abaad0dc96c3355dd89e656e376a0d26daa8e4e0004a9b8a",
  "time": 1233982705,
  "mediantime": 1233980753,
  "nonce": 50688076,
  "bits": "1d00ffff",
  "difficulty": 1,
  "chainwork": "00000000000000000000000000000000000000000000000000000cfc0cfc0cfc",
  "nTx": 1,
  "previousblockhash": "00000000b59a16623d132e4bd5dfceb8dafc87d7b9b82aee8698d6a180693100",
  "nextblockhash": "0000000020029ec024e149c0abc9319ccebe038a163c17a27a7ad029152133d6",
  "strippedsize": 215,
  "size": 215,
  "weight": 860,
  "tx": [
    {
      "txid": "7916bd386f0950d4abaad0dc96c3355dd89e656e376a0d26daa8e4e0004a9b8a",
      "hash": "7916bd386f0950d4abaad0dc96c3355dd89e656e376a0d26daa8e4e0004a9b8a",
      "version": 1,
      "size": 134,
      "vsize": 134,
      "weight": 536,
      "locktime": 0,
      "vin": [
        {
          "coinbase": "04ffff001d0125",
          "sequence": 4294967295
        }
      ],
      "vout": [
        {
          "value": 50.0,
          "n": 0,
          "scriptPubKey": {
            "asm": "04ec7d85066ac31829199f021aafe722aa36b7cf36ceae07beff7ad816d8bccfee81c9034a60b8d1e86cd4dab78d2f616f7d68b8cd760737aee2e29520c74e888a OP_CHECKSIG",
            "desc": "pk(04ec7d85066ac31829199f021aafe722aa36b7cf36ceae07beff7ad816d8bccfee81c9034a60b8d1e86cd4dab78d2f616f7d68b8cd760737aee2e29520c74e888a)#nsr9ut63",
            "hex": "4104ec7d85066ac31829199f021aafe722aa36b7cf36ceae07beff7ad816d8bccfee81c9034a60b8d1e86cd4dab78d2f616f7d68b8cd760737aee2e29520c74e888aac",
            "type": "pubkey"
          }
        }
      ],
      "hex": "01000000010000000000000000000000000000000000000000000000000000000000000000ffffffff0704ffff001d0125ffffffff0100f2052a01000000434104ec7d85066ac31829199f021aafe722aa36b7cf36ceae07beff7ad816d8bccfee81c9034a60b8d1e86cd4dab78d2f616f7d68b8cd760737aee2e29520c74e888aac00000000"
    }
  ]
}