{
  "hash": "00000000cf0967a75cf5c6c111b6379184e70665c4d5450370355423ca9da917",
  "confirmations": 47864,
  "height": 5234,
  "version": 1,
  "versionHex": "00000001",
  "merkleroot": "e1406af351e6254c73229817cb1ade0b205a41c86eeb0ef5084db8e0ec768285",
  "time": 1235311961,
  "mediantime": 1235308480,
  "nonce": 81199248,
  "bits": "1d00ffff",
  "difficulty": 1,
  "chainwork": "0000000000000000000000000000000000000000000000000000147314731473",
  "nTx": 1,
  "previousblockhash": "0000000010760b88f8a59cf04f2f4abe7c7421619fe2f5248ed24ca0001952e8",
  "nextblockhash": "00000000f9b2fcdc987caa6011728406cc836878beb7f852fa3b362270d9745a",
  "strippedsize": 215,
  "size": 215,
  "weight": 860,
  "tx": [
    {
      "txid": "e1406af351e6254c73229817cb1ade0b205a41c86eeb0ef5084db8e0ec768285",
      "hash": "e1406af351e6254c73229817cb1ade0b205a41c86eeb0ef5084db8e0ec768285",
      "version": 1,
      "size": 134,
      "vsize": 134,
      "weight": 536,
      "locktime": 0,
      "vin": [
        {
          "coinbase": "04ffff001d0112",
          "sequence": 4294967295
        }
      ],
      "vout": [
        {
          "value": 50.0,
          "n": 0,
          "scriptPubKey": {
            "asm": "0414cfd23106285b879fd1c763ffc6ca2cf1fd8155e6ae60ca028e29b5a05ae4457b6c9fddb13c01da8f96d9963f9981b1077a466525df060e65535f31303635e9 OP_CHECKSIG",
            "desc": "pk(0414cfd23106285b879fd1c763ffc6ca2cf1fd8155e6ae60ca028e29b5a05ae4457b6c9fddb13c01da8f96d9963f9981b1077a466525df060e65535f31303635e9)#7g5xu8re",
            "hex": "410414cfd23106285b879fd1c763ffc6ca2cf1fd8155e6ae60ca028e29b5a05ae4457b6c9fddb13c01da8f96d9963f9981b1077a466525df060e65535f31303635e9ac",
            "type": "pubkey"
          }
        }
      ],
      "hex": "01000000010000000000000000000000000000000000000000000000000000000000000000ffffffff0704ffff001d0112ffffffff0100f2052a0100000043410414cfd23106285b879fd1c763ffc6ca2cf1fd8155e6ae60ca028e29b5a05ae4457b6c9fddb13c01da8f96d9963f9981b1077a466525df060e65535f31303635e9ac00000000"
    }
  ]
}