{
  "hash": "00000000d39fb19e2d805d2603a5ee371464f8a4cced6ab327d54811887b8483",
  "confirmations": 46958,
  "height": 6140,
  "version": 1,
  "versionHex": "00000001",
  "merkleroot": "81dea5cc5c45ca3f9846d960b4e2767bfb96a90ed428df04c0bfac5972d0d5b1",
  "time": 1236041712,
  "mediantime": 1236036955,
  "nonce": 2404957732,
  "bits": "1d00ffff",
  "difficulty": 1,
  "chainwork": "000000000000000000000000000000000000000000000000000017fd17fd17fd",
  "nTx": 1,
  "previousblockhash": "0000000092da292cd2347953dc0a331af3353e4708ad95455318f5d7ad1a3299",
  "nextblockhash": "00000000cb143287bdfdc286751f8d967aeb93a011b776c036f04bc10ed81c91",
  "strippedsize": 216,
  "size": 216,
  "weight": 864,
  "tx": [
    {
      "txid": "81dea5cc5c45ca3f9846d960b4e2767bfb96a90ed428df04c0bfac5972d0d5b1",
      "hash": "81dea5cc5c45ca3f9846d960b4e2767bfb96a90ed428df04c0bfac5972d0d5b1",
      "version": 1,
      "size": 135,
      "vsize": 135,
      "weight": 540,
      "locktime": 0,
      "vin": [
        {
          "coinbase": "04ffff001d028b07",
          "sequence": 4294967295
        }
      ],
      "vout": [
        {
          "value": 50.0,
          "n": 0,
          "scriptPubKey": {
            "asm": "0401b93ed720d6291bf50d2bd8e9adca41406186ae8123afa66414e4f48ec2f4ddb1d8fd85928136141c25c757a032f608f935940151db6d52e799d5dfee1c6bb1 OP_CHECKSIG",
            "desc": "pk(0401b93ed720d6291bf50d2bd8e9adca41406186ae8123afa66414e4f48ec2f4ddb1d8fd85928136141c25c757a032f608f935940151db6d52e799d5dfee1c6bb1)#0l8m449q",
            "hex": "410401b93ed720d6291bf50d2bd8e9adca41406186ae8123afa66414e4f48ec2f4ddb1d8fd85928136141c25c757a032f608f935940151db6d52e799d5dfee1c6bb1ac",
            "type": "pubkey"
          }
        }
      ],
      "hex": "01000000010000000000000000000000000000000000000000000000000000000000000000ffffffff0804ffff001d028b07ffffffff0100f2052a0100000043410401b93ed720d6291bf50d2bd8e9adca41406186ae8123afa66414e4f48ec2f4ddb1d8fd85928136141c25c757a032f608f935940151db6d52e799d5dfee1c6bb1ac00000000"
    }
  ]
}