{
  "hash": "0000000037c50c38f580c653a41626326789b519c57248b2d8d2315222d6084b",
  "confirmations": 50033,
  "height": 3065,
  "version": 1,
  "versionHex": "00000001",
  "merkleroot": "a3a174a3d998e7cc34ba68db7edb5b14a7feaab140ef0626b50ffe44a9bf8b95",
  "time": 1233804863,
  "mediantime": 1233801803,
  "nonce": 1087860784,
  "bits": "1d00ffff",
  "difficulty": 1,
  "chainwork": "00000000000000000000000000000000000000000000000000000bfa0bfa0bfa",
  "nTx": 1,
  "previousblockhash": "00000000045d342e3048127de12cbeaf890f83f7babb08836a36f8a720f1fe27",
  "nextblockhash": "000000003adfb72fcea0d3fd535ada443f3ea13f1df23c2c4557a428d09b5707",
  "strippedsize": 215,
  "size": 215,
  "weight": 860,
  "tx": [
    {
      "txid": "a3a174a3d998e7cc34ba68db7edb5b14a7feaab140ef0626b50ffe44a9bf8b95",
      "hash": "a3a174a3d998e7cc34ba68db7edb5b14a7feaab140ef0626b50ffe44a9bf8b95",
      "version": 1,
      "size": 134,
      "vsize": 134,
      "weight": 536,
      "locktime": 0,
      "vin": [
        {
          "coinbase": "04ffff001d0176",
          "sequence": 4294967295
        }
      ],
      "vout": [
        {
          "value": 50.0,
          "n": 0,
          "scriptPubKey": {
            "asm": "049ed7e756c1775b49876cc36efa337c1ed5d84c2e845999c2dbf07cdafe782ff98be6773e2c1dc65f77c4902c46c4ca5e76af0887dda3335566861e9ac8f082b2 OP_CHECKSIG",
            "desc": "pk(049ed7e756c1775b49876cc36efa337c1ed5d84c2e845999c2dbf07cdafe782ff98be6773e2c1dc65f77c4902c46c4ca5e76af0887dda3335566861e9ac8f082b2)#msz0vy4z",
            "hex": "41049ed7e756c1775b49876cc36efa337c1ed5d84c2e845999c2dbf07cdafe782ff98be6773e2c1dc65f77c4902c46c4ca5e76af0887dda3335566861e9ac8f082b2ac",
            "type": "pubkey"
          }
        }
      ],
      "hex": "01000000010000000000000000000000000000000000000000000000000000000000000000ffffffff0704ffff001d0176ffffffff0100f2052a010000004341049ed7e756c1775b49876cc36efa337c1ed5d84c2e845999c2dbf07cdafe782ff98be6773e2c1dc65f77c4902c46c4ca5e76af0887dda3335566861e9ac8f082b2ac00000000"
    }
  ]
}