{
  "hash": "000000006faa5dc3642b575bf8b5846e38630bf7cebd812bc8ec61718fbc746d",
  "confirmations": 48636,
  "height": 4462,
  "version": 1,
  "versionHex": "00000001",
  "merkleroot": "c880519b76646f1f9d4ebf16f74fea110fbc49519816f53d6a1a20e9705020a8",
  "time": 1234755202,
  "mediantime": 1234751663,
  "nonce": 1936642580,
  "bits": "1d00ffff",
  "difficulty": 1,
  "chainwork": "0000000000000000000000000000000000000000000000000000116f116f116f",
  "nTx": 1,
  "previousblockhash": "00000000104ccfd0b47698c3c1b89d46ee64f9eea248348b2e5d255826768eff",
  "nextblockhash": "00000000ba0cd29557c74074d6315eecff1057429a52e008d409d578776d3a2c",
  "strippedsize": 216,
  "size": 216,
  "weight": 864,
  "tx": [
    {
      "txid": "c880519b76646f1f9d4ebf16f74fea110fbc49519816f53d6a1a20e9705020a8",
      "hash": "c880519b76646f1f9d4ebf16f74fea110fbc49519816f53d6a1a20e9705020a8",
      "version": 1,
      "size": 135,
      "vsize": 135,
      "weight": 540,
      "locktime": 0,
      "vin": [
        {
          "coinbase": "04ffff001d023202",
          "sequence": 4294967295
        }
      ],
      "vout": [
        {
          "value": 50.0,
          "n": 0,
          "scriptPubKey": {
            "asm": "04b724f8886f8c2d3e754ccb33ca9814c73dc991a541fd284a7fa8e22b2f1b202f11133f3b5cf1232e360b09fee629068d078b52e0ef0e3aa82760187ed197a5a1 OP_CHECKSIG",
            "desc": "pk(04b724f8886f8c2d3e754ccb33ca9814c73dc991a541fd284a7fa8e22b2f1b202f11133f3b5cf1232e360b09fee629068d078b52e0ef0e3aa82760187ed197a5a1)#jezehqd6",
            "hex": "4104b724f8886f8c2d3e754ccb33ca9814c73dc991a541fd284a7fa8e22b2f1b202f11133f3b5cf1232e360b09fee629068d078b52e0ef0e3aa82760187ed197a5a1ac",
            "type": "pubkey"
          }
        }
      ],
      "hex": "01000000010000000000000000000000000000000000000000000000000000000000000000ffffffff0804ffff001d023202ffffffff0100f2052a01000000434104b724f8886f8c2d3e754ccb33ca9814c73dc991a541fd284a7fa8e22b2f1b202f11133f3b5cf1232e360b09fee629068d078b52e0ef0e3aa82760187ed197a5a1ac00000000"
    }
  ]
}