{
  "hash": "00000000b2dbe08506622dfe67e00afcd15f202d8a27f8971f45adcdfd03d22e",
  "confirmations": 45700,
  "height": 7398,
  "version": 1,
  "versionHex": "00000001",
  "merkleroot": "c4f2ee8f8a7449b7a20077457de4662efc3bc01a6f5f93a268a196c897487ddc",
  "time": 1237022242,
  "mediantime": 1237017665,
  "nonce": 366623027,
  "bits": "1d00ffff",
  "difficulty": 1,
  "chainwork": "00000000000000000000000000000000000000000000000000001ce71ce71ce7",
  "nTx": 1,
  "previousblockhash": "0000000039989e90ab5f258f9f64b385a9ee5d7d4aaea1bff29b10b9867489bb",
  "nextblockhash": "00000000ee3e5d6b3003677190edb6b43459eddfab9211072b22f26968b1c3db",
  "strippedsize": 216,
  "size": 216,
  "weight": 864,
  "tx": [
    {
      "txid": "c4f2ee8f8a7449b7a20077457de4662efc3bc01a6f5f93a268a196c897487ddc",
      "hash": "c4f2ee8f8a7449b7a20077457de4662efc3bc01a6f5f93a268a196c897487ddc",
      "version": 1,
      "size": 135,
      "vsize": 135,
      "weight": 540,
      "locktime": 0,
      "vin": [
        {
          "coinbase": "04ffff001d025b09",
          "sequence": 4294967295
        }
      ],
      "vout": [
        {
          "value": 50.0,
          "n": 0,
          "scriptPubKey": {
            "asm": "04cb48dc8b2249878f9f2cbcca7756bc3c0e97a31b28e4c5fd37359668bfc2ac349d11d04ada91b82925c27de9eae0c4a5a53e9fed3680944eca339a0f3594a9ec OP_CHECKSIG",
            "desc": "pk(04cb48dc8b2249878f9f2cbcca7756bc3c0e97a31b28e4c5fd37359668bfc2ac349d11d04ada91b82925c27de9eae0c4a5a53e9fed3680944eca339a0f3594a9ec)#h2f7tzge",
            "hex": "4104cb48dc8b2249878f9f2cbcca7756bc3c0e97a31b28e4c5fd37359668bfc2ac349d11d04ada91b82925c27de9eae0c4a5a53e9fed3680944eca339a0f3594a9ecac",
            "type": "pubkey"
          }
        }
      ],
      "hex": "01000000010000000000000000000000000000000000000000000000000000000000000000ffffffff0804ffff001d025b09ffffffff0100f2052a01000000434104cb48dc8b2249878f9f2cbcca7756bc3c0e97a31b28e4c5fd37359668bfc2ac349d11d04ada91b82925c27de9eae0c4a5a53e9fed3680944eca339a0f3594a9ecac00000000"
    }
  ]
}