{
  "hash": "00000000de682f326548f8870a0e65f75cd93a04d47d42fdbf300b7dffe6fdeb",
  "confirmations": 47103,
  "height": 5995,
  "version": 1,
  "versionHex": "00000001",
  "merkleroot": "3a9ed15e084a01fd4e8a16890c027e58c530134a66608ff9dd7ed49a77129cbd",
  "time": 1235924549,
  "mediantime": 1235920590,
  "nonce": 1148489503,
  "bits": "1d00ffff",
  "difficulty": 1,
  "chainwork": "0000000000000000000000000000000000000000000000000000176c176c176c",
  "nTx": 1,
  "previousblockhash": "00000000967f7ac20907833790bbcb4f4736b6a65caa0b17889c6545c73854db",
  "nextblockhash": "00000000504506810152c882121f64de975bd9074fffbd0e6a01ae1f7d132eef",
  "strippedsize": 216,
  "size": 216,
  "weight": 864,
  "tx": [
    {
      "txid": "3a9ed15e084a01fd4e8a16890c027e58c530134a66608ff9dd7ed49a77129cbd",
      "hash": "3a9ed15e084a01fd4e8a16890c027e58c530134a66608ff9dd7ed49a77129cbd",
      "version": 1,
      "size": 135,
      "vsize": 135,
      "weight": 540,
      "locktime": 0,
      "vin": [
        {
          "coinbase": "04ffff001d02e704",
          "sequence": 4294967295
        }
      ],
      "vout": [
        {
          "value": 50.0,
          "n": 0,
          "scriptPubKey": {
            "asm": "042b29f66c21e83eeef6b83eaa36e6cba98923c39216d60151dc77c32bac4872a1e95f4d9b84c430a667b13582cd7c5320ef5c074e3c70fcc2acbe6326a203e987 OP_CHECKSIG",
            "desc": "pk(042b29f66c21e83eeef6b83eaa36e6cba98923c39216d60151dc77c32bac4872a1e95f4d9b84c430a667b13582cd7c5320ef5c074e3c70fcc2acbe6326a203e987)#9n2h3p7f",
            "hex": "41042b29f66c21e83eeef6b83eaa36e6cba98923c39216d60151dc77c32bac4872a1e95f4d9b84c430a667b13582cd7c5320ef5c074e3c70fcc2acbe6326a203e987ac",
            "type": "pubkey"
          }
        }
      ],
      "hex": "01000000010000000000000000000000000000000000000000000000000000000000000000ffffffff0804ffff001d02e704ffffffff0100f2052a010000004341042b29f66c21e83eeef6b83eaa36e6cba98923c39216d60151dc77c32bac4872a1e95f4d9b84c430a667b13582cd7c5320ef5c074e3c70fcc2acbe6326a203e987ac00000000"
    }
  ]
}