{
  "hash": "00000000dc9d18c2d104934b4ef2cbf5827ea7be47353ea4d27ea34b9fc86569",
  "confirmations": 51369,
  "height": 1729,
  "version": 1,
  "versionHex": "00000001",
  "merkleroot": "3e8f4eab28436413a059b351beb6b926958da96de15cc26ecff4344a819cf8df",
  "time": 1232864255,
  "mediantime": 1232862066,
  "nonce": 918424887,
  "bits": "1d00ffff",
  "difficulty": 1,
  "chainwork": "000000000000000000000000000000000000000000000000000006c206c206c2",
  "nTx": 1,
  "previousblockhash": "0000000008f9fdae1079df095d5306ad0b1923da74565ab613f207ee1617a287",
  "nextblockhash": "000000006887ff71c96202da488a0052f79e4c03b1d098bccbd6f80b9c6be7e2",
  "strippedsize": 216,
  "size": 216,
  "weight": 864,
  "tx": [
    {
      "txid": "3e8f4eab28436413a059b351beb6b926958da96de15cc26ecff4344a819cf8df",
      "hash": "3e8f4eab28436413a059b351beb6b926958da96de15cc26ecff4344a819cf8df",
      "version": 1,
      "size": 135,
      "vsize": 135,
      "weight": 540,
      "locktime": 0,
      "vin": [
        {
          "coinbase": "04ffff001d025e03",
          "sequence": 4294967295
        }
      ],
      "vout": [
        {
          "value": 50.0,
          "n": 0,
          "scriptPubKey": {
            "asm": "04e3fce19d9d2775f0d7130761d3beb19ebd7565bdb84fce8dbf8bb6abe0fbb129050fbad9198c2475f449055e051e1a14b85094dd5e1876784991c0ecc3c82bb4 OP_CHECKSIG",
            "desc": "pk(04e3fce19d9d2775f0d7130761d3beb19ebd7565bdb84fce8dbf8bb6abe0fbb129050fbad9198c2475f449055e051e1a14b85094dd5e1876784991c0ecc3c82bb4)#agmqd9wn",
            "hex": "4104e3fce19d9d2775f0d7130761d3beb19ebd7565bdb84fce8dbf8bb6abe0fbb129050fbad9198c2475f449055e051e1a14b85094dd5e1876784991c0ecc3c82bb4ac",
            "type": "pubkey"
          }
        }
      ],
      "hex": "01000000010000000000000000000000000000000000000000000000000000000000000000ffffffff0804ffff001d025e03ffffffff0100f2052a01000000434104e3fce19d9d2775f0d7130761d3beb19ebd7565bdb84fce8dbf8bb6abe0fbb129050fbad9198c2475f449055e051e1a14b85094dd5e1876784991c0ecc3c82bb4ac00000000"
    }
  ]
}