{
  "hash": "00000000ec36a7861096841e14762ac7abd96cc5dd95968949f41b0b6d1cb732",
  "confirmations": 52059,
  "height": 1039,
  "version": 1,
  "versionHex": "00000001",
  "merkleroot": "203b563b4255e923352560afcf66d4ecdadb27573aa1a526b4c6539b220eec1e",
  "time": 1232378244,
  "mediantime": 1232373619,
  "nonce": 956263466,
  "bits": "1d00ffff",
  "difficulty": 1,
  "chainwork": "0000000000000000000000000000000000000000000000000000041004100410",
  "nTx": 1,
  "previousblockhash": "00000000a58b2ee621036b20ea940018667ddfb03aa43f0075ffd194099f8f3c",
  "nextblockhash": "000000005340964e637b61a6bea06b1dffbe04c5ec3f0694ba32412ed0dca6ca",
  "strippedsize": 216,
  "size": 216,
  "weight": 864,
  "tx": [
    {
      "txid": "203b563b4255e923352560afcf66d4ecdadb27573aa1a526b4c6539b220eec1e",
      "hash": "203b563b4255e923352560afcf66d4ecdadb27573aa1a526b4c6539b220eec1e",
      "version": 1,
      "size": 135,
      "vsize": 135,
      "weight": 540,
      "locktime": 0,
      "vin": [
        {
          "coinbase": "04ffff001d02c205",
          "sequence": 4294967295
        }
      ],
      "vout": [
        {
          "value": 50.0,
          "n": 0,
          "scriptPubKey": {
            "asm": "04e7f6456dc0e16679cba2cddf4d7fdf9cd1e3084a1e54b607988d2fe898dd16142cb113f47fe2306720dc5269d6bcb9a3c959d7742a53169e65e5f0225e6a7229 OP_CHECKSIG",
            "desc": "pk(04e7f6456dc0e16679cba2cddf4d7fdf9cd1e3084a1e54b607988d2fe898dd16142cb113f47fe2306720dc5269d6bcb9a3c959d7742a53169e65e5f0225e6a7229)#g968p36l",
            "hex": "4104e7f6456dc0e16679cba2cddf4d7fdf9cd1e3084a1e54b607988d2fe898dd16142cb113f47fe2306720dc5269d6bcb9a3c959d7742a53169e65e5f0225e6a7229ac",
            "type": "pubkey"
          }
        }
      ],
      "hex": "01000000010000000000000000000000000000000000000000000000000000000000000000ffffffff0804ffff001d02c205ffffffff0100f2052a01000000434104e7f6456dc0e16679cba2cddf4d7fdf9cd1e3084a1e54b607988d2fe898dd16142cb113f47fe2306720dc5269d6bcb9a3c959d7742a53169e65e5f0225e6a7229ac00000000"
    }
  ]
}