{
  "hash": "0000000057b8962e962f43a9d965c4019b595045a964ef55a513a558b4798a37",
  "confirmations": 49306,
  "height": 3792,
  "version": 1,
  "versionHex": "00000001",
  "merkleroot": "9e40ba880ecbad87efc3e13b267eb61a8d7f25fb7ac0dfb5588fe37c6e68a2f4",
  "time": 1234301727,
  "mediantime": 1234296792,
  "nonce": 3491145254,
  "bits": "1d00ffff",
  "difficulty": 1,
  "chainwork": "00000000000000000000000000000000000000000000000000000ed10ed10ed1",
  "nTx": 1,
  "previousblockhash": "000000001f9b6d703a0ffa10b1e9f134eba300af6119287d2dbb0c87492af32c",
  "nextblockhash": "00000000fe767aac3b303479222452e84f2b18ffa6b5db2722c2fe298c5a6e84",
  "strippedsize": 216,
  "size": 216,
  "weight": 864,
  "tx": [
    {
      "txid": "9e40ba880ecbad87efc3e13b267eb61a8d7f25fb7ac0dfb5588fe37c6e68a2f4",
      "hash": "9e40ba880ecbad87efc3e13b267eb61a8d7f25fb7ac0dfb5588fe37c6e68a2f4",
      "version": 1,
      "size": 135,
      "vsize": 135,
      "weight": 540,
      "locktime": 0,
      "vin": [
        {
          "coinbase": "04ffff001d023201",
          "sequence": 4294967295
        }
      ],
      "vout": [
        {
          "value": 50.0,
          "n": 0,
          "scriptPubKey": {
            "asm": "043df5fa5c9716f063301f156fe5ab36af089149ef9f1aa7d2183aad12ed54189e3cf2b1ca1c9994539239d5dabad8e57ae6e8b50f858d38d87b7ef7f37cd5c9ee OP_CHECKSIG",
            "desc": "pk(043df5fa5c9716f063301f156fe5ab36af089149ef9f1aa7d2183aad12ed54189e3cf2b1ca1c9994539239d5dabad8e57ae6e8b50f858d38d87b7ef7f37cd5c9ee)#87q42lkh",
            "hex": "41043df5fa5c9716f063301f156fe5ab36af089149ef9f1aa7d2183aad12ed54189e3cf2b1ca1c9994539239d5dabad8e57ae6e8b50f858d38d87b7ef7f37cd5c9eeac",
            "type": "pubkey"
          }
        }
      ],
      "hex": "01000000010000000000000000000000000000000000000000000000000000000000000000ffffffff0804ffff001d023201ffffffff0100f2052a010000004341043df5fa5c9716f063301f156fe5ab36af089149ef9f1aa7d2183aad12ed54189e3cf2b1ca1c9994539239d5dabad8e57ae6e8b50f858d38d87b7ef7f37cd5c9eeac00000000"
    }
  ]
}