{
  "hash": "0000000048d20048d2efa27669d42ee54da6be9eaab6010da9b89f7ed592f273",
  "confirmations": 43705,
  "height": 9393,
  "version": 1,
  "versionHex": "00000001",
  "merkleroot": "564dfc4bf4c2e78c2db77fce8167aa375a53b4aa6afaa3c12d057dd96e55ab73",
  "time": 1238546842,
  "mediantime": 1238541962,
  "nonce": 319103525,
  "bits": "1d00ffff",
  "difficulty": 1,
  "chainwork": "000000000000000000000000000000000000000000000000000024b224b224b2",
  "nTx": 1,
  "previousblockhash": "0000000073b299db8411568f97b9b87ad9e78e0fbf2019bc649439f76b2c87b6",
  "nextblockhash": "000000005d34e1019de01057b28adc59b67dbf40aed8b42e9820a69c2da4eb68",
  "strippedsize": 216,
  "size": 216,
  "weight": 864,
  "tx": [
    {
      "txid": "564dfc4bf4c2e78c2db77fce8167aa375a53b4aa6afaa3c12d057dd96e55ab73",
      "hash": "564dfc4bf4c2e78c2db77fce8167aa375a53b4aa6afaa3c12d057dd96e55ab73",
      "version": 1,
      "size": 135,
      "vsize": 135,
      "weight": 540,
      "locktime": 0,
      "vin": [
        {
          "coinbase": "04ffff001d028403",
          "sequence": 4294967295
        }
      ],
      "vout": [
        {
          "value": 50.0,
          "n": 0,
          "scriptPubKey": {
            "asm": "04c90352abbe1983a08338af7e5858a23c625e96962d79bca91367c8b5f15839a40fff0256e0916623d95a4391ee2876b9414539f66ebfae22e1ea28e6a7f3661a OP_CHECKSIG",
            "desc": "pk(04c90352abbe1983a08338af7e5858a23c625e96962d79bca91367c8b5f15839a40fff0256e0916623d95a4391ee2876b9414539f66ebfae22e1ea28e6a7f3661a)#wmaexlly",
            "hex": "4104c90352abbe1983a08338af7e5858a23c625e96962d79bca91367c8b5f15839a40fff0256e0916623d95a4391ee2876b9414539f66ebfae22e1ea28e6a7f3661aac",
            "type": "pubkey"
          }
        }
      ],
      "hex": "01000000010000000000000000000000000000000000000000000000000000000000000000ffffffff0804ffff001d028403ffffffff0100f2052a01000000434104c90352abbe1983a08338af7e5858a23c625e96962d79bca91367c8b5f15839a40fff0256e0916623d95a4391ee2876b9414539f66ebfae22e1ea28e6a7f3661aac00000000"
    }
  ]
}