{
  "hash": "0000000088705973e5ff59d1a5b6cefbcdac79b15c3e20f91c1dec6ed26c4230",
  "confirmations": 52319,
  "height": 779,
  "version": 1,
  "versionHex": "00000001",
  "merkleroot": "4313ae9c4ec7155b35e75a44dd6d14d67df5de94b2ba13ddcf0593851242606a",
  "time": 1232173741,
  "mediantime": 1232169696,
  "nonce": 2794903859,
  "bits": "1d00ffff",
  "difficulty": 1,
  "chainwork": "0000000000000000000000000000000000000000000000000000030c030c030c",
  "nTx": 1,
  "previousblockhash": "000000000507b1b544c123048a54d131a6a5eb86884dca2ec2a6f5e29b3c7c51",
  "nextblockhash": "00000000ba676d471b894c4d66237733dbffd900eba759091cc95b8de28a97e6",
  "strippedsize": 216,
  "size": 216,
  "weight": 864,
  "tx": [
    {
      "txid": "4313ae9c4ec7155b35e75a44dd6d14d67df5de94b2ba13ddcf0593851242606a",
      "hash": "4313ae9c4ec7155b35e75a44dd6d14d67df5de94b2ba13ddcf0593851242606a",
      "version": 1,
      "size": 135,
      "vsize": 135,
      "weight": 540,
      "locktime": 0,
      "vin": [
        {
          "coinbase": "04ffff001d021f01",
          "sequence": 4294967295
        }
      ],
      "vout": [
        {
          "value": 50.0,
          "n": 0,
          "scriptPubKey": {
            "asm": "04bff92c6bcd305a6d1bf45d979c837e3bc293398c746264499f178538f62417b24febdfea0c34451fe4852769aaadff147e6003a5397723ff8b7b485acc9d2695 OP_CHECKSIG",
            "desc": "pk(04bff92c6bcd305a6d1bf45d979c837e3bc293398c746264499f178538f62417b24febdfea0c34451fe4852769aaadff147e6003a5397723ff8b7b485acc9d2695)#3qwg0hqh",
            "hex": "4104bff92c6bcd305a6d1bf45d979c837e3bc293398c746264499f178538f62417b24febdfea0c34451fe4852769aaadff147e6003a5397723ff8b7b485acc9d2695ac",
            "type": "pubkey"
          }
        }
      ],
      "hex": "01000000010000000000000000000000000000000000000000000000000000000000000000ffffffff0804ffff001d021f01ffffffff0100f2052a01000000434104bff92c6bcd305a6d1bf45d979c837e3bc293398c746264499f178538f62417b24febdfea0c34451fe4852769aaadff147e6003a5397723ff8b7b485acc9d2695ac00000000"
    }
  ]
}