{
  "hash": "0000000070d7aa2d2d8611330edbc8c7af20de6b82833a4e5c93ff617db1656a",
  "confirmations": 44760,
  "height": 8338,
  "version": 1,
  "versionHex": "00000001",
  "merkleroot": "53f1e71342eb01f1f5a8646ae2d409f8a8ce8094f1db7291a6530a7c21a093da",
  "time": 1237758776,
  "mediantime": 1237755439,
  "nonce": 12255343,
  "bits": "1d00ffff",
  "difficulty": 1,
  "chainwork": "0000000000000000000000000000000000000000000000000000209320932093",
  "nTx": 1,
  "previousblockhash": "000000007b04c926a448ee2e0ad006efb5f36e23b18113fd4f092a79bff4d18d",
  "nextblockhash": "00000000d163fbc2a6cd5700a8dd8f171fa2644004912ef8ddbe92651704b3a5",
  "strippedsize": 215,
  "size": 215,
  "weight": 860,
  "tx": [
    {
      "txid": "53f1e71342eb01f1f5a8646ae2d409f8a8ce8094f1db7291a6530a7c21a093da",
      "hash": "53f1e71342eb01f1f5a8646ae2d409f8a8ce8094f1db7291a6530a7c21a093da",
      "version": 1,
      "size": 134,
      "vsize": 134,
      "weight": 536,
      "locktime": 0,
      "vin": [
        {
          "coinbase": "04ffff001d0133",
          "sequence": 4294967295
        }
      ],
      "vout": [
        {
          "value": 50.0,
          "n": 0,
          "scriptPubKey": {
            "asm": "04ea0913466b2c0fdf8fbcafe1419287cfd89c547336a93f78450cca30a7ec0604ea41f579e227160433011675150922394ef7ca870625ae8ef1ef9975b6b29df2 OP_CHECKSIG",
            "desc": "pk(04ea0913466b2c0fdf8fbcafe1419287cfd89c547336a93f78450cca30a7ec0604ea41f579e227160433011675150922394ef7ca870625ae8ef1ef9975b6b29df2)#mmt67r6u",
            "hex": "4104ea0913466b2c0fdf8fbcafe1419287cfd89c547336a93f78450cca30a7ec0604ea41f579e227160433011675150922394ef7ca870625ae8ef1ef9975b6b29df2ac",
            "type": "pubkey"
          }
        }
      ],
      "hex": "01000000010000000000000000000000000000000000000000000000000000000000000000ffffffff0704ffff001d0133ffffffff0100f2052a01000000434104ea0913466b2c0fdf8fbcafe1419287cfd89c547336a93f78450cca30a7ec0604ea41f579e227160433011675150922394ef7ca870625ae8ef1ef9975b6b29df2ac00000000"
    }
  ]
}