{
  "hash": "00000000e37aae0e36b4f1ed6da9bb16d0a14815d63cc1ee7ca432e76d60c04c",
  "confirmations": 47749,
  "height": 5349,
  "version": 1,
  "versionHex": "00000001",
  "merkleroot": "40ae5800032ac91628bddb73a9409c66ba71ab43dfcaa98450a7123a9d686d5b",
  "time": 1235403016,
  "mediantime": 1235397963,
  "nonce": 785752579,
  "bits": "1d00ffff",
  "difficulty": 1,
  "chainwork": "000000000000000000000000000000000000000000000000000014e614e614e6",
  "nTx": 1,
  "previousblockhash": "00000000b48007fcdcedc6b3709abe3c54573a631dea64be1ce1e6e9f769ca8a",
  "nextblockhash": "00000000660aaa727ebc610ed069e23abd28f516c614de894e1492994df78edc",
  "strippedsize": 216,
  "size": 216,
  "weight": 864,
  "tx": [
    {
      "txid": "40ae5800032ac91628bddb73a9409c66ba71ab43dfcaa98450a7123a9d686d5b",
      "hash": "40ae5800032ac91628bddb73a9409c66ba71ab43dfcaa98450a7123a9d686d5b",
      "version": 1,
      "size": 135,
      "vsize": 135,
      "weight": 540,
      "locktime": 0,
      "vin": [
        {
          "coinbase": "04ffff001d02e002",
          "sequence": 4294967295
        }
      ],
      "vout": [
        {
          "value": 50.0,
          "n": 0,
          "scriptPubKey": {
            "asm": "042c6065763f80d96b2995ad468fff6e6825c85f0be60a0bbcf18397cd56e4afc8d05505dc772b2258b3ecec1b58bd61cca0d5a51ef3b2f4b1cb1e50dfcbb271e0 OP_CHECKSIG",
            "desc": "pk(042c6065763f80d96b2995ad468fff6e6825c85f0be60a0bbcf18397cd56e4afc8d05505dc772b2258b3ecec1b58bd61cca0d5a51ef3b2f4b1cb1e50dfcbb271e0)#c7fx92rm",
            "hex": "41042c6065763f80d96b2995ad468fff6e6825c85f0be60a0bbcf18397cd56e4afc8d05505dc772b2258b3ecec1b58bd61cca0d5a51ef3b2f4b1cb1e50dfcbb271e0ac",
            "type": "pubkey"
          }
        }
      ],
      "hex": "01000000010000000000000000000000000000000000000000000000000000000000000000ffffffff0804ffff001d02e002ffffffff0100f2052a010000004341042c6065763f80d96b2995ad468fff6e6825c85f0be60a0bbcf18397cd56e4afc8d05505dc772b2258b3ecec1b58bd61cca0d5a51ef3b2f4b1cb1e50dfcbb271e0ac00000000"
    }
  ]
}