{
  "hash": "000000001d31aee00267ea4b4814869ff1bff68492a920fefc6bbb80075c27e2",
  "confirmations": 51447,
  "height": 1651,
  "version": 1,
  "versionHex": "00000001",
  "merkleroot": "87809c548d4153a0c3ef4e9ddbf63c6e99d5a7d9b135a900b4024c7cf40b4e6b",
  "time": 1232833881,
  "mediantime": 1232831854,
  "nonce": 2508682294,
  "bits": "1d00ffff",
  "difficulty": 1,
  "chainwork": "0000000000000000000000000000000000000000000000000000067406740674",
  "nTx": 1,
  "previousblockhash": "00000000272f42aa7edb7b466441a307f90490358b4283ba5b74dd149d7eb32a",
  "nextblockhash": "00000000258c6a24c8301305ea8bbe86bc462c6775187cc3f380ac726ee4a03e",
  "strippedsize": 216,
  "size": 216,
  "weight": 864,
  "tx": [
    {
      "txid": "87809c548d4153a0c3ef4e9ddbf63c6e99d5a7d9b135a900b4024c7cf40b4e6b",
      "hash": "87809c548d4153a0c3ef4e9ddbf63c6e99d5a7d9b135a900b4024c7cf40b4e6b",
      "version": 1,
      "size": 135,
      "vsize": 135,
      "weight": 540,
      "locktime": 0,
      "vin": [
        {
          "coinbase": "04ffff001d02a502",
          "sequence": 4294967295
        }
      ],
      "vout": [
        {
          "value": 50.0,
          "n": 0,
          "scriptPubKey": {
            "asm": "04aa4e10a4f3712b0280bae375689c6d8b1feb186b21c6e5a817d7f1d5e675c73da9f8e7b0d6521163bd5301362cc8f8892dd945779459429f06cb5de185214d62 OP_CHECKSIG",
            "desc": "pk(04aa4e10a4f3712b0280bae375689c6d8b1feb186b21c6e5a817d7f1d5e675c73da9f8e7b0d6521163bd5301362cc8f8892dd945779459429f06cb5de185214d62)#ehdrwlyh",
            "hex": "4104aa4e10a4f3712b0280bae375689c6d8b1feb186b21c6e5a817d7f1d5e675c73da9f8e7b0d6521163bd5301362cc8f8892dd945779459429f06cb5de185214d62ac",
            "type": "pubkey"
          }
        }
      ],
      "hex": "01000000010000000000000000000000000000000000000000000000000000000000000000ffffffff0804ffff001d02a502ffffffff0100f2052a01000000434104aa4e10a4f3712b0280bae375689c6d8b1feb186b21c6e5a817d7f1d5e675c73da9f8e7b0d6521163bd5301362cc8f8892dd945779459429f06cb5de185214d62ac00000000"
    }
  ]
}