{
  "hash": "00000000ecd1f046aef628ace22e4ddac3048d5cb51bd48c187e6d3a9f96b29c",
  "confirmations": 48854,
  "height": 4244,
  "version": 1,
  "versionHex": "00000001",
  "merkleroot": "7d78e536ed449febe2655baf3d4832c495cc6c665b215a3e5dd8abfcc9d8bb65",
  "time": 1234608236,
  "mediantime": 1234604480,
  "nonce": 3918970412,
  "bits": "1d00ffff",
  "difficulty": 1,
  "chainwork": "0000000000000000000000000000000000000000000000000000109510951095",
  "nTx": 1,
  "previousblockhash": "00000000cbd6f793bc319ae3d90fa6c343027b3a3ebc036f0a66c896a3733fec",
  "nextblockhash": "0000000055bf008876073794c0b5a5da2298cb831d4e702bfbe7033f88f93279",
  "strippedsize": 216,
  "size": 216,
  "weight": 864,
  "tx": [
    {
      "txid": "7d78e536ed449febe2655baf3d4832c495cc6c665b215a3e5dd8abfcc9d8bb65",
      "hash": "7d78e536ed449febe2655baf3d4832c495cc6c665b215a3e5dd8abfcc9d8bb65",
      "version": 1,
      "size": 135,
      "vsize": 135,
      "weight": 540,
      "locktime": 0,
      "vin": [
        {
          "coinbase": "04ffff001d02dd07",
          "sequence": 4294967295
        }
      ],
      "vout": [
        {
          "value": 50.0,
          "n": 0,
          "scriptPubKey": {
            "asm": "04afa3b19211d784b6fc9307f6c599a32663457a5d16897d3f04824aeab47c2f1ffa61af92e7fb9e825be77f28cc9025214d3089641ffe0d42bc111c43f3c3b3ab OP_CHECKSIG",
            "desc": "pk(04afa3b19211d784b6fc9307f6c599a32663457a5d16897d3f04824aeab47c2f1ffa61af92e7fb9e825be77f28cc9025214d3089641ffe0d42bc111c43f3c3b3ab)#envlu7q2",
            "hex": "4104afa3b19211d784b6fc9307f6c599a32663457a5d16897d3f04824aeab47c2f1ffa61af92e7fb9e825be77f28cc9025214d3089641ffe0d42bc111c43f3c3b3abac",
            "type": "pubkey"
          }
        }
      ],
      "hex": "01000000010000000000000000000000000000000000000000000000000000000000000000ffffffff0804ffff001d02dd07ffffffff0100f2052a01000000434104afa3b19211d784b6fc9307f6c599a32663457a5d16897d3f04824aeab47c2f1ffa61af92e7fb9e825be77f28cc9025214d3089641ffe0d42bc111c43f3c3b3abac00000000"
    }
  ]
}