{
  "hash": "00000000850d32f1b3cd207632b5a657b2f0b2de9bf34da0d18bc8a5f20e25c3",
  "confirmations": 47224,
  "height": 5874,
  "version": 1,
  "versionHex": "00000001",
  "merkleroot": "4e1ee0bda2a5f1e780821d3a9881763183f8457dc40cab99d393fa9a9ec0db0e",
  "time": 1235822957,
  "mediantime": 1235817380,
  "nonce": 1321652002,
  "bits": "1d00ffff",
  "difficulty": 1,
  "chainwork": "000000000000000000000000000000000000000000000000000016f316f316f3",
  "nTx": 1,
  "previousblockhash": "00000000a1026027f415d4addcf74ed216156ad496bc38ff6e7ee0df93ef7399",
  "nextblockhash": "00000000618eb41e00414ccb0c3fb55209f0b29148d5ddec0120cd6debdb126e",
  "strippedsize": 216,
  "size": 216,
  "weight": 864,
  "tx": [
    {
      "txid": "4e1ee0bda2a5f1e780821d3a9881763183f8457dc40cab99d393fa9a9ec0db0e",
      "hash": "4e1ee0bda2a5f1e780821d3a9881763183f8457dc40cab99d393fa9a9ec0db0e",
      "version": 1,
      "size": 135,
      "vsize": 135,
      "weight": 540,
      "locktime": 0,
      "vin": [
        {
          "coinbase": "04ffff001d028e02",
          "sequence": 4294967295
        }
      ],
      "vout": [
        {
          "value": 50.0,
          "n": 0,
          "scriptPubKey": {
            "asm": "04c2669c0fbdb50207980be114eba09473cfc18036b3e82a18256d4f60f609af82405d7e67d76f44a852e0b1d3ba70f537dc88493be112c2eba0af2d34d2958d3b OP_CHECKSIG",
            "desc": "pk(04c2669c0fbdb50207980be114eba09473cfc18036b3e82a18256d4f60f609af82405d7e67d76f44a852e0b1d3ba70f537dc88493be112c2eba0af2d34d2958d3b)#lejge2a4",
            "hex": "4104c2669c0fbdb50207980be114eba09473cfc18036b3e82a18256d4f60f609af82405d7e67d76f44a852e0b1d3ba70f537dc88493be112c2eba0af2d34d2958d3bac",
            "type": "pubkey"
          }
        }
      ],
      "hex": "01000000010000000000000000000000000000000000000000000000000000000000000000ffffffff0804ffff001d028e02ffffffff0100f2052a01000000434104c2669c0fbdb50207980be114eba09473cfc18036b3e82a18256d4f60f609af82405d7e67d76f44a852e0b1d3ba70f537dc88493be112c2eba0af2d34d2958d3bac00000000"
    }
  ]
}