{
  "hash": "00000000a7acce51e7e86d5ed81c361ad127f27c02a80a5b392ef6330c2107cc",
  "confirmations": 45658,
  "height": 7440,
  "version": 1,
  "versionHex": "00000001",
  "merkleroot": "25f5615af82142bd0685612aede3751d4d5a14b42617bb6a949359352bf2a65f",
  "time": 1237053142,
  "mediantime": 1237049576,
  "nonce": 4172423209,
  "bits": "1d00ffff",
  "difficulty": 1,
  "chainwork": "00000000000000000000000000000000000000000000000000001d111d111d11",
  "nTx": 1,
  "previousblockhash": "000000008e26a6ca46f3cde4cfaf06b21a6902ecab89953059ca366526c01e30",
  "nextblockhash": "000000006cb605fdb244424eaaad09187aca8a4f31adfa1b827e2ca19985aa82",
  "strippedsize": 216,
  "size": 216,
  "weight": 864,
  "tx": [
    {
      "txid": "25f5615af82142bd0685612aede3751d4d5a14b42617bb6a949359352bf2a65f",
      "hash": "25f5615af82142bd0685612aede3751d4d5a14b42617bb6a949359352bf2a65f",
      "version": 1,
      "size": 135,
      "vsize": 135,
      "weight": 540,
      "locktime": 0,
      "vin": [
        {
          "coinbase": "04ffff001d02250a",
          "sequence": 4294967295
        }
      ],
      "vout": [
        {
          "value": 50.0,
          "n": 0,
          "scriptPubKey": {
            "asm": "0475a7d756bb83e4d1e03ee4b16fcf248fcbc7a36498a879833801e3390f39cdc0c617fb8921508874138feb3dfec5adb2b4ee20a6de998479080431a4bbeca0d0 OP_CHECKSIG",
            "desc": "pk(0475a7d756bb83e4d1e03ee4b16fcf248fcbc7a36498a879833801e3390f39cdc0c617fb8921508874138feb3dfec5adb2b4ee20a6de998479080431a4bbeca0d0)#ufd4k0l4",
            "hex": "410475a7d756bb83e4d1e03ee4b16fcf248fcbc7a36498a879833801e3390f39cdc0c617fb8921508874138feb3dfec5adb2b4ee20a6de998479080431a4bbeca0d0ac",
            "type": "pubkey"
          }
        }
      ],
      "hex": "01000000010000000000000000000000000000000000000000000000000000000000000000ffffffff0804ffff001d02250affffffff0100f2052a0100000043410475a7d756bb83e4d1e03ee4b16fcf248fcbc7a36498a879833801e3390f39cdc0c617fb8921508874138feb3dfec5adb2b4ee20a6de998479080431a4bbeca0d0ac00000000"
    }
  ]
}