{
  "hash": "00000000a2708e0112d83a00106dfcd39a4b56f0895c8e083b030cf2897c67b7",
  "confirmations": 52227,
  "height": 871,
  "version": 1,
  "versionHex": "00000001",
  "merkleroot": "84bc056f5987379f763ff998d598ffd9c11c0432151f221e505fdb28259ab1cd",
  "time": 1232249078,
  "mediantime": 1232244658,
  "nonce": 2458588709,
  "bits": "1d00ffff",
  "difficulty": 1,
  "chainwork": "0000000000000000000000000000000000000000000000000000036803680368",
  "nTx": 1,
  "previousblockhash": "000000000f50c9b97b28606ad3d8bcae55684984b93b5dfea87f47f4fc7b9dd6",
  "nextblockhash": "00000000dd897971ba52271c7e007449accd23ac6be635c5c43f90dc81f1f99b",
  "strippedsize": 216,
  "size": 216,
  "weight": 864,
  "tx": [
    {
      "txid": "84bc056f5987379f763ff998d598ffd9c11c0432151f221e505fdb28259ab1cd",
      "hash": "84bc056f5987379f763ff998d598ffd9c11c0432151f221e505fdb28259ab1cd",
      "version": 1,
      "size": 135,
      "vsize": 135,
      "weight": 540,
      "locktime": 0,
      "vin": [
        {
          "coinbase": "04ffff001d02f502",
          "sequence": 4294967295
        }
      ],
      "vout": [
        {
          "value": 50.0,
          "n": 0,
          "scriptPubKey": {
            "asm": "044457f19ced97daf726966185d8aea9b11a404c9a68e72df6c15d24cbf8a8c06c4dd125a916a3b3ef99c256dbafceeda9d4870805300a3da103ce6225d85606ae OP_CHECKSIG",
            "desc": "pk(044457f19ced97daf726966185d8aea9b11a404c9a68e72df6c15d24cbf8a8c06c4dd125a916a3b3ef99c256dbafceeda9d4870805300a3da103ce6225d85606ae)#3swwjw2y",
            "hex": "41044457f19ced97daf726966185d8aea9b11a404c9a68e72df6c15d24cbf8a8c06c4dd125a916a3b3ef99c256dbafceeda9d4870805300a3da103ce6225d85606aeac",
            "type": "pubkey"
          }
        }
      ],
      "hex": "01000000010000000000000000000000000000000000000000000000000000000000000000ffffffff0804ffff001d02f502ffffffff0100f2052a010000004341044457f19ced97daf726966185d8aea9b11a404c9a68e72df6c15d24cbf8a8c06c4dd125a916a3b3ef99c256dbafceeda9d4870805300a3da103ce6225d85606aeac00000000"
    }
  ]
}