{
  "hash": "00000000128007ab3db907e5142718fe41ee551535e1f68e2931f15f80603f41",
  "confirmations": 52093,
  "height": 363,
  "version": 1,
  "versionHex": "00000001",
  "merkleroot": "94d1fb56b33424657ca086d8789672ad38cb7ce333da642b9f38568ad3576845",
  "time": 1231874201,
  "mediantime": 1231871671,
  "nonce": 2479128866,
  "bits": "1d00ffff",
  "difficulty": 1,
  "chainwork": "0000000000000000000000000000000000000000000000000000016c016c016c",
  "nTx": 1,
  "previousblockhash": "00000000d654e9866ad27a9bd3147fcc461fc13d261954f76d1281307883a729",
  "nextblockhash": "00000000ad29c3caf774552a757b68a54b55cd0b9ff0bb2eda4c9d0409b26c0d",
  "strippedsize": 216,
  "size": 216,
  "weight": 864,
  "tx": [
    {
      "txid": "94d1fb56b33424657ca086d8789672ad38cb7ce333da642b9f38568ad3576845",
      "hash": "94d1fb56b33424657ca086d8789672ad38cb7ce333da642b9f38568ad3576845",
      "version": 1,
      "size": 135,
      "vsize": 135,
      "weight": 540,
      "locktime": 0,
      "vin": [
        {
          "coinbase": "04ffff001d02bd01",
          "sequence": 4294967295
        }
      ],
      "vout": [
        {
          "value": 50.0,
          "n": 0,
          "scriptPubKey": {
            "asm": "040d91323ca448663776a4142eba3d449c49f38de07e4aff641ca5524f2855cf4319f4753c5ae679c13f45e74f27d7a2e5e095beee867f8025c0707b08e88bc6c7 OP_CHECKSIG",
            "desc": "pk(040d91323ca448663776a4142eba3d449c49f38de07e4aff641ca5524f2855cf4319f4753c5ae679c13f45e74f27d7a2e5e095beee867f8025c0707b08e88bc6c7)#0h4hn63c",
            "hex": "41040d91323ca448663776a4142eba3d449c49f38de07e4aff641ca5524f2855cf4319f4753c5ae679c13f45e74f27d7a2e5e095beee867f8025c0707b08e88bc6c7ac",
            "type": "pubkey"
          }
        }
      ],
      "hex": "01000000010000000000000000000000000000000000000000000000000000000000000000ffffffff0804ffff001d02bd01ffffffff0100f2052a010000004341040d91323ca448663776a4142eba3d449c49f38de07e4aff641ca5524f2855cf4319f4753c5ae679c13f45e74f27d7a2e5e095beee867f8025c0707b08e88bc6c7ac00000000"
    }
  ]
}