{
  "hash": "000000009217eb8bcc565eeece066f2bf6a0970cb2ee2a199e07a08990286fa4",
  "confirmations": 48316,
  "height": 4782,
  "version": 1,
  "versionHex": "00000001",
  "merkleroot": "7ab95ea9f85e3f3a6259cc60db0ed7f6327856e2b0b7987a89fa51a9396338dc",
  "time": 1234983505,
  "mediantime": 1234979519,
  "nonce": 10617694,
  "bits": "1d00ffff",
  "difficulty": 1,
  "chainwork": "000000000000000000000000000000000000000000000000000012af12af12af",
  "nTx": 1,
  "previousblockhash": "0000000021fd49e7e8d8bec7ed4bb7a06a80387de003b4a4c1cddb553b38f106",
  "nextblockhash": "0000000081710a0792a486bdeae59b9693e0cda96cb513bbaf3e721cfd6966c7",
  "strippedsize": 215,
  "size": 215,
  "weight": 860,
  "tx": [
    {
      "txid": "7ab95ea9f85e3f3a6259cc60db0ed7f6327856e2b0b7987a89fa51a9396338dc",
      "hash": "7ab95ea9f85e3f3a6259cc60db0ed7f6327856e2b0b7987a89fa51a9396338dc",
      "version": 1,
      "size": 134,
      "vsize": 134,
      "weight": 536,
      "locktime": 0,
      "vin": [
        {
          "coinbase": "04ffff001d0170",
          "sequence": 4294967295
        }
      ],
      "vout": [
        {
          "value": 50.0,
          "n": 0,
          "scriptPubKey": {
            "asm": "04b74d7e0dd00c72c26358ad1d647691bbd6886dd3c910b229bdfd5f7c6b3127a80e16ae2766c589a2d707e905ec4cc9d4e6d70314057eb2755ffe0b69e8ea8137 OP_CHECKSIG",
            "desc": "pk(04b74d7e0dd00c72c26358ad1d647691bbd6886dd3c910b229bdfd5f7c6b3127a80e16ae2766c589a2d707e905ec4cc9d4e6d70314057eb2755ffe0b69e8ea8137)#p9g0rfcd",
            "hex": "4104b74d7e0dd00c72c26358ad1d647691bbd6886dd3c910b229bdfd5f7c6b3127a80e16ae2766c589a2d707e905ec4cc9d4e6d70314057eb2755ffe0b69e8ea8137ac",
            "type": "pubkey"
          }
        }
      ],
      "hex": "01000000010000000000000000000000000000000000000000000000000000000000000000ffffffff0704ffff001d0170ffffffff0100f2052a01000000434104b74d7e0dd00c72c26358ad1d647691bbd6886dd3c910b229bdfd5f7c6b3127a80e16ae2766c589a2d707e905ec4cc9d4e6d70314057eb2755ffe0b69e8ea8137ac00000000"
    }
  ]
}