{
  "hash": "000000001ee69e4335116867458b75063b19839bf2465da0c52e844e9b295e03",
  "confirmations": 45304,
  "height": 7794,
  "version": 1,
  "versionHex": "00000001",
  "merkleroot": "f25a4f443b8293e62963c7d72016ef9e945b6a47f9460d69ed157c68a551535f",
  "time": 1237309062,
  "mediantime": 1237303328,
  "nonce": 2084843052,
  "bits": "1d00ffff",
  "difficulty": 1,
  "chainwork": "00000000000000000000000000000000000000000000000000001e731e731e73",
  "nTx": 1,
  "previousblockhash": "000000003d7356f9f87066345cf9ca69091a0a5a3fd5bb812baf6b032dbbf34b",
  "nextblockhash": "00000000f2362e437c5bc6410cc3c3b57a1dea9550891501f9e009e7779dddb4",
  "strippedsize": 216,
  "size": 216,
  "weight": 864,
  "tx": [
    {
      "txid": "f25a4f443b8293e62963c7d72016ef9e945b6a47f9460d69ed157c68a551535f",
      "hash": "f25a4f443b8293e62963c7d72016ef9e945b6a47f9460d69ed157c68a551535f",
      "version": 1,
      "size": 135,
      "vsize": 135,
      "weight": 540,
      "locktime": 0,
      "vin": [
        {
          "coinbase": "04ffff001d02b205",
          "sequence": 4294967295
        }
      ],
      "vout": [
        {
          "value": 50.0,
          "n": 0,
          "scriptPubKey": {
            "asm": "04666dd390cc253df4a87380576beb8a1846c1aac55736b365c6928cf14d97be041037f5f6a9c94c544d60ddd41cd0a716f1a7ec741d043b9af95fac5a4bea2289 OP_CHECKSIG",
            "desc": "pk(04666dd390cc253df4a87380576beb8a1846c1aac55736b365c6928cf14d97be041037f5f6a9c94c544d60ddd41cd0a716f1a7ec741d043b9af95fac5a4bea2289)#wzrmycvf",
            "hex": "4104666dd390cc253df4a87380576beb8a1846c1aac55736b365c6928cf14d97be041037f5f6a9c94c544d60ddd41cd0a716f1a7ec741d043b9af95fac5a4bea2289ac",
            "type": "pubkey"
          }
        }
      ],
      "hex": "01000000010000000000000000000000000000000000000000000000000000000000000000ffffffff0804ffff001d02b205ffffffff0100f2052a01000000434104666dd390cc253df4a87380576beb8a1846c1aac55736b365c6928cf14d97be041037f5f6a9c94c544d60ddd41cd0a716f1a7ec741d043b9af95fac5a4bea2289ac00000000"
    }
  ]
}