{
  "hash": "000000002fd527bf2256edac8d627faf66ee7a38592192040223b5d8dd1feb3d",
  "confirmations": 51734,
  "height": 1364,
  "version": 1,
  "versionHex": "00000001",
  "merkleroot": "52ee2c21a7f21b9c4c65b9eea11ad1b9fc80e4aafbf1fe9278763ff52b279bc3",
  "time": 1232654110,
  "mediantime": 1232650273,
  "nonce": 2373862947,
  "bits": "1d00ffff",
  "difficulty": 1,
  "chainwork": "0000000000000000000000000000000000000000000000000000055505550555",
  "nTx": 1,
  "previousblockhash": "00000000e6296700eb81d9da0c208dfa4bd797809dd0af29001442bc698e876e",
  "nextblockhash": "0000000001511ad3f629602f88cbecd0ba96c9ffdf7cbacdedfbff8619ae28f3",
  "strippedsize": 216,
  "size": 216,
  "weight": 864,
  "tx": [
    {
      "txid": "52ee2c21a7f21b9c4c65b9eea11ad1b9fc80e4aafbf1fe9278763ff52b279bc3",
      "hash": "52ee2c21a7f21b9c4c65b9eea11ad1b9fc80e4aafbf1fe9278763ff52b279bc3",
      "version": 1,
      "size": 135,
      "vsize": 135,
      "weight": 540,
      "locktime": 0,
      "vin": [
        {
          "coinbase": "04ffff001d027701",
          "sequence": 4294967295
        }
      ],
      "vout": [
        {
          "value": 50.0,
          "n": 0,
          "scriptPubKey": {
            "asm": "04590fb48c8691fc536dffc61de33cabfa85c32b6276d88da185d560723bf7da3a120b2a3ef295611330b6a0a74678470dad6dd2fc9c93913b3f6f16b12832a684 OP_CHECKSIG",
            "desc": "pk(04590fb48c8691fc536dffc61de33cabfa85c32b6276d88da185d560723bf7da3a120b2a3ef295611330b6a0a74678470dad6dd2fc9c93913b3f6f16b12832a684)#l4vdgl30",
            "hex": "4104590fb48c8691fc536dffc61de33cabfa85c32b6276d88da185d560723bf7da3a120b2a3ef295611330b6a0a74678470dad6dd2fc9c93913b3f6f16b12832a684ac",
            "type": "pubkey"
          }
        }
      ],
      "hex": "01000000010000000000000000000000000000000000000000000000000000000000000000ffffffff0804ffff001d027701ffffffff0100f2052a01000000434104590fb48c8691fc536dffc61de33cabfa85c32b6276d88da185d560723bf7da3a120b2a3ef295611330b6a0a74678470dad6dd2fc9c93913b3f6f16b12832a684ac00000000"
    }
  ]
}