{
  "hash": "00000000a2a4f737e46722e45b28d84635999dfbf20e1a0d6b5a6cd31fa1fad3",
  "confirmations": 45442,
  "height": 7656,
  "version": 1,
  "versionHex": "00000001",
  "merkleroot": "16ce99d5c81a1a29bb4379e8f4ae62494392f747c52bb6cbfc0ca969708d2e69",
  "time": 1237206664,
  "mediantime": 1237203246,
  "nonce": 1574113317,
  "bits": "1d00ffff",
  "difficulty": 1,
  "chainwork": "00000000000000000000000000000000000000000000000000001de91de91de9",
  "nTx": 1,
  "previousblockhash": "000000004df2d7adb6472d8406199cbdf686225921a032f6df25517f28d3b5cb",
  "nextblockhash": "00000000f68defbfbbf860c00270e04276060bed62344aa958806493cca61920",
  "strippedsize": 216,
  "size": 216,
  "weight": 864,
  "tx": [
    {
      "txid": "16ce99d5c81a1a29bb4379e8f4ae62494392f747c52bb6cbfc0ca969708d2e69",
      "hash": "16ce99d5c81a1a29bb4379e8f4ae62494392f747c52bb6cbfc0ca969708d2e69",
      "version": 1,
      "size": 135,
      "vsize": 135,
      "weight": 540,
      "locktime": 0,
      "vin": [
        {
          "coinbase": "04ffff001d026303",
          "sequence": 4294967295
        }
      ],
      "vout": [
        {
          "value": 50.0,
          "n": 0,
          "scriptPubKey": {
            "asm": "04a3cac0251206f0f278ae4e1a8ae5067cfd297ea4a597722a22e6a2f890e0005b6d174b16be8a418d43d7b4159edd4f2b13ffae05bafb9f1bf8cb007fe8b0e635 OP_CHECKSIG",
            "desc": "pk(04a3cac0251206f0f278ae4e1a8ae5067cfd297ea4a597722a22e6a2f890e0005b6d174b16be8a418d43d7b4159edd4f2b13ffae05bafb9f1bf8cb007fe8b0e635)#jg9vyj6x",
            "hex": "4104a3cac0251206f0f278ae4e1a8ae5067cfd297ea4a597722a22e6a2f890e0005b6d174b16be8a418d43d7b4159edd4f2b13ffae05bafb9f1bf8cb007fe8b0e635ac",
            "type": "pubkey"
          }
        }
      ],
      "hex": "01000000010000000000000000000000000000000000000000000000000000000000000000ffffffff0804ffff001d026303ffffffff0100f2052a01000000434104a3cac0251206f0f278ae4e1a8ae5067cfd297ea4a597722a22e6a2f890e0005b6d174b16be8a418d43d7b4159edd4f2b13ffae05bafb9f1bf8cb007fe8b0e635ac00000000"
    }
  ]
}