{
  "hash": "00000000597c74ad4e5770cf0ff3a0463822b9b971d11f81b6371a19d6d76331",
  "confirmations": 44604,
  "height": 8494,
  "version": 1,
  "versionHex": "00000001",
  "merkleroot": "8208217cd1031024b26929c076356a9a43b8e06cfc9c2233a9eaffa9d8d8ca5f",
  "time": 1237866649,
  "mediantime": 1237861872,
  "nonce": 1926340654,
  "bits": "1d00ffff",
  "difficulty": 1,
  "chainwork": "0000000000000000000000000000000000000000000000000000212f212f212f",
  "nTx": 1,
  "previousblockhash": "00000000eed6a2ca4d16b68cc38d981555de070f46e6673b018f123f0d967554",
  "nextblockhash": "00000000835b3057385da02d39b2e0cac7a417d41f75036f6a48135e2287682a",
  "strippedsize": 216,
  "size": 216,
  "weight": 864,
  "tx": [
    {
      "txid": "8208217cd1031024b26929c076356a9a43b8e06cfc9c2233a9eaffa9d8d8ca5f",
      "hash": "8208217cd1031024b26929c076356a9a43b8e06cfc9c2233a9eaffa9d8d8ca5f",
      "version": 1,
      "size": 135,
      "vsize": 135,
      "weight": 540,
      "locktime": 0,
      "vin": [
        {
          "coinbase": "04ffff001d02a807",
          "sequence": 4294967295
        }
      ],
      "vout": [
        {
          "value": 50.0,
          "n": 0,
          "scriptPubKey": {
            "asm": "04d3c83489654be7e1ee79436f4ecdc5fb8f837a5dabbc84038f63c5433a0da8265ab74b82c3d69cec48f9918b66dc5277b29827773a8385d9aedf959ee890d31b OP_CHECKSIG",
            "desc": "pk(04d3c83489654be7e1ee79436f4ecdc5fb8f837a5dabbc84038f63c5433a0da8265ab74b82c3d69cec48f9918b66dc5277b29827773a8385d9aedf959ee890d31b)#7t3jzh37",
            "hex": "4104d3c83489654be7e1ee79436f4ecdc5fb8f837a5dabbc84038f63c5433a0da8265ab74b82c3d69cec48f9918b66dc5277b29827773a8385d9aedf959ee890d31bac",
            "type": "pubkey"
          }
        }
      ],
      "hex": "01000000010000000000000000000000000000000000000000000000000000000000000000ffffffff0804ffff001d02a807ffffffff0100f2052a01000000434104d3c83489654be7e1ee79436f4ecdc5fb8f837a5dabbc84038f63c5433a0da8265ab74b82c3d69cec48f9918b66dc5277b29827773a8385d9aedf959ee890d31bac00000000"
    }
  ]
}