{
  "hash": "00000000a5adc84a63c77353b470238f6a27cb436f229849766c7a222493207d",
  "confirmations": 47523,
  "height": 5575,
  "version": 1,
  "versionHex": "00000001",
  "merkleroot": "b8017f066b2fb0e85d56b33ad7fad81f17f6fe13fa759fce16269565577485e2",
  "time": 1235582444,
  "mediantime": 1235577945,
  "nonce": 175650292,
  "bits": "1d00ffff",
  "difficulty": 1,
  "chainwork": "000000000000000000000000000000000000000000000000000015c815c815c8",
  "nTx": 1,
  "previousblockhash": "000000000f66c52ee306c5bb6fa99bddfc40eca4f00ac7f9a9018712c1fb3247",
  "nextblockhash": "0000000020f5ab646eb6c6c0edbcedbbd92b64300217cc9d7297cffc0ec567d3",
  "strippedsize": 215,
  "size": 215,
  "weight": 860,
  "tx": [
    {
      "txid": "b8017f066b2fb0e85d56b33ad7fad81f17f6fe13fa759fce16269565577485e2",
      "hash": "b8017f066b2fb0e85d56b33ad7fad81f17f6fe13fa759fce16269565577485e2",
      "version": 1,
      "size": 134,
      "vsize": 134,
      "weight": 536,
      "locktime": 0,
      "vin": [
        {
          "coinbase": "04ffff001d010f",
          "sequence": 4294967295
        }
      ],
      "vout": [
        {
          "value": 50.0,
          "n": 0,
          "scriptPubKey": {
            "asm": "04bf437a8fa0714d6baf6569202570f81dbb28f00617717fdb7fed16ad366c11f23f7ebe7895327fa7ba2180ab17def789bb718ffb867e9465e3fa7424ced30512 OP_CHECKSIG",
            "desc": "pk(04bf437a8fa0714d6baf6569202570f81dbb28f00617717fdb7fed16ad366c11f23f7ebe7895327fa7ba2180ab17def789bb718ffb867e9465e3fa7424ced30512)#8mr6tztf",
            "hex": "4104bf437a8fa0714d6baf6569202570f81dbb28f00617717fdb7fed16ad366c11f23f7ebe7895327fa7ba2180ab17def789bb718ffb867e9465e3fa7424ced30512ac",
            "type": "pubkey"
          }
        }
      ],
      "hex": "01000000010000000000000000000000000000000000000000000000000000000000000000ffffffff0704ffff001d010fffffffff0100f2052a01000000434104bf437a8fa0714d6baf6569202570f81dbb28f00617717fdb7fed16ad366c11f23f7ebe7895327fa7ba2180ab17def789bb718ffb867e9465e3fa7424ced30512ac00000000"
    }
  ]
}