{
  "hash": "000000000c6d92c5720d01287a7067f6694b81c32f980449f412176f43a6305b",
  "confirmations": 47100,
  "height": 5998,
  "version": 1,
  "versionHex": "00000001",
  "merkleroot": "0fdbdbb64edc7905eaf393abcf1aac43cc2e4f56d275a46bda0722cb8d905412",
  "time": 1235926399,
  "mediantime": 1235922316,
  "nonce": 1144622130,
  "bits": "1d00ffff",
  "difficulty": 1,
  "chainwork": "0000000000000000000000000000000000000000000000000000176f176f176f",
  "nTx": 1,
  "previousblockhash": "0000000066fea8a71cb20396330ec02326f37544afce250d847ff8d8eadb199b",
  "nextblockhash": "00000000828cb497379bedf1d0657c297b388ee2dc0edcd2e6998b30a17272bf",
  "strippedsize": 216,
  "size": 216,
  "weight": 864,
  "tx": [
    {
      "txid": "0fdbdbb64edc7905eaf393abcf1aac43cc2e4f56d275a46bda0722cb8d905412",
      "hash": "0fdbdbb64edc7905eaf393abcf1aac43cc2e4f56d275a46bda0722cb8d905412",
      "version": 1,
      "size": 135,
      "vsize": 135,
      "weight": 540,
      "locktime": 0,
      "vin": [
        {
          "coinbase": "04ffff001d02ec04",
          "sequence": 4294967295
        }
      ],
      "vout": [
        {
          "value": 50.0,
          "n": 0,
          "scriptPubKey": {
            "asm": "04f5576d8f5a747020c9f9c05ac9e41843d73ff7a485b01e1f75f6accb0b4bd59cdb53dec65ccc7a5e572b0fa8b54c47575841de746c373002f2242d58d6c2dcd3 OP_CHECKSIG",
            "desc": "pk(04f5576d8f5a747020c9f9c05ac9e41843d73ff7a485b01e1f75f6accb0b4bd59cdb53dec65ccc7a5e572b0fa8b54c47575841de746c373002f2242d58d6c2dcd3)#nd7y7yzh",
            "hex": "4104f5576d8f5a747020c9f9c05ac9e41843d73ff7a485b01e1f75f6accb0b4bd59cdb53dec65ccc7a5e572b0fa8b54c47575841de746c373002f2242d58d6c2dcd3ac",
            "type": "pubkey"
          }
        }
      ],
      "hex": "01000000010000000000000000000000000000000000000000000000000000000000000000ffffffff0804ffff001d02ec04ffffffff0100f2052a01000000434104f5576d8f5a747020c9f9c05ac9e41843d73ff7a485b01e1f75f6accb0b4bd59cdb53dec65ccc7a5e572b0fa8b54c47575841de746c373002f2242d58d6c2dcd3ac00000000"
    }
  ]
}