{
  "hash": "00000000f90e41c414da67dc411da8f4c1352bc4dee14326fc53ed12fcba2a26",
  "confirmations": 45266,
  "height": 7832,
  "version": 1,
  "versionHex": "00000001",
  "merkleroot": "25ea6e889d04fe1ca5034c8ac5497e498d2e21d43aaae0939ec37356a69eb054",
  "time": 1237337229,
  "mediantime": 1237335423,
  "nonce": 321064987,
  "bits": "1d00ffff",
  "difficulty": 1,
  "chainwork": "00000000000000000000000000000000000000000000000000001e991e991e99",
  "nTx": 1,
  "previousblockhash": "000000005b6e54fed7a8ec63e4d6729fb8cc2af5a006d95614e84290a9723e7f",
  "nextblockhash": "00000000c70a65dfe94927d26223f5bfe12b3ed5785d7a47e14a33ab318987c1",
  "strippedsize": 216,
  "size": 216,
  "weight": 864,
  "tx": [
    {
      "txid": "25ea6e889d04fe1ca5034c8ac5497e498d2e21d43aaae0939ec37356a69eb054",
      "hash": "25ea6e889d04fe1ca5034c8ac5497e498d2e21d43aaae0939ec37356a69eb054",
      "version": 1,
      "size": 135,
      "vsize": 135,
      "weight": 540,
      "locktime": 0,
      "vin": [
        {
          "coinbase": "04ffff001d026406",
          "sequence": 4294967295
        }
      ],
      "vout": [
        {
          "value": 50.0,
          "n": 0,
          "scriptPubKey": {
            "asm": "0416dade734e5660ab397b9fef49d04a0c488d7f061e6777ef10069c63df6f547d0a25dd2b94797e3a83782770de0e2e4184239b5e45f9cb081d82e9bdc6a8d662 OP_CHECKSIG",
            "desc": "pk(0416dade734e5660ab397b9fef49d04a0c488d7f061e6777ef10069c63df6f547d0a25dd2b94797e3a83782770de0e2e4184239b5e45f9cb081d82e9bdc6a8d662)#drttqkln",
            "hex": "410416dade734e5660ab397b9fef49d04a0c488d7f061e6777ef10069c63df6f547d0a25dd2b94797e3a83782770de0e2e4184239b5e45f9cb081d82e9bdc6a8d662ac",
            "type": "pubkey"
          }
        }
      ],
      "hex": "01000000010000000000000000000000000000000000000000000000000000000000000000ffffffff0804ffff001d026406ffffffff0100f2052a0100000043410416dade734e5660ab397b9fef49d04a0c488d7f061e6777ef10069c63df6f547d0a25dd2b94797e3a83782770de0e2e4184239b5e45f9cb081d82e9bdc6a8d662ac00000000"
    }
  ]
}