{
  "hash": "000000007796883846053d0be8621d0fe1d88987da1d627a1cba650cd4efebfc",
  "confirmations": 52166,
  "height": 463,
  "version": 1,
  "versionHex": "00000001",
  "merkleroot": "fab941c771959a1addff9c57482b40d557ad5d3d141ab11b82daae3c07e1264a",
  "time": 1231944562,
  "mediantime": 1231942726,
  "nonce": 57721960,
  "bits": "1d00ffff",
  "difficulty": 1,
  "chainwork": "000000000000000000000000000000000000000000000000000001d001d001d0",
  "nTx": 1,
  "previousblockhash": "0000000095c81ef621ffd5b8c7fbea7608b672ac81fd5f03c43ab3a7b27353b1",
  "nextblockhash": "000000009f02fc0ad2cbbc173f83b9db831a6a0956754784020b31e336d91081",
  "strippedsize": 216,
  "size": 216,
  "weight": 864,
  "tx": [
    {
      "txid": "fab941c771959a1addff9c57482b40d557ad5d3d141ab11b82daae3c07e1264a",
      "hash": "fab941c771959a1addff9c57482b40d557ad5d3d141ab11b82daae3c07e1264a",
      "version": 1,
      "size": 135,
      "vsize": 135,
      "weight": 540,
      "locktime": 0,
      "vin": [
        {
          "coinbase": "04ffff001d02be00",
          "sequence": 4294967295
        }
      ],
      "vout": [
        {
          "value": 50.0,
          "n": 0,
          "scriptPubKey": {
            "asm": "04bb9953cce84c32618d80a88ef93fecbe357347f5491ba5c4f4a2be00695e4da73773bef33e8493a6801607b30c3cbce21517f2e4a0853da8656a75ac30aa183a OP_CHECKSIG",
            "desc": "pk(04bb9953cce84c32618d80a88ef93fecbe357347f5491ba5c4f4a2be00695e4da73773bef33e8493a6801607b30c3cbce21517f2e4a0853da8656a75ac30aa183a)#gtwfvlrt",
            "hex": "4104bb9953cce84c32618d80a88ef93fecbe357347f5491ba5c4f4a2be00695e4da73773bef33e8493a6801607b30c3cbce21517f2e4a0853da8656a75ac30aa183aac",
            "type": "pubkey"
          }
        }
      ],
      "hex": "01000000010000000000000000000000000000000000000000000000000000000000000000ffffffff0804ffff001d02be00ffffffff0100f2052a01000000434104bb9953cce84c32618d80a88ef93fecbe357347f5491ba5c4f4a2be00695e4da73773bef33e8493a6801607b30c3cbce21517f2e4a0853da8656a75ac30aa183aac00000000"
    }
  ]
}