{
  "hash": "000000000d3fbaa25f0227c92f29637a5ae5c86d3b580b4501c36ac81341f375",
  "confirmations": 51307,
  "height": 1791,
  "version": 1,
  "versionHex": "00000001",
  "merkleroot": "96f26c354ff5d553d39ef466193fca54de5653addffae77b12825af01d6ebe73",
  "time": 1232893003,
  "mediantime": 1232890993,
  "nonce": 3674781220,
  "bits": "1d00ffff",
  "difficulty": 1,
  "chainwork": "0000000000000000000000000000000000000000000000000000070007000700",
  "nTx": 1,
  "previousblockhash": "000000008d1094720ae4f22693d7b4226f581ca03a2295dde57bc242a264fe4b",
  "nextblockhash": "00000000b60006aa4228517957f825de73774ef378ecac7aaf794491c0057326",
  "strippedsize": 216,
  "size": 216,
  "weight": 864,
  "tx": [
    {
      "txid": "96f26c354ff5d553d39ef466193fca54de5653addffae77b12825af01d6ebe73",
      "hash": "96f26c354ff5d553d39ef466193fca54de5653addffae77b12825af01d6ebe73",
      "version": 1,
      "size": 135,
      "vsize": 135,
      "weight": 540,
      "locktime": 0,
      "vin": [
        {
          "coinbase": "04ffff001d02f503",
          "sequence": 4294967295
        }
      ],
      "vout": [
        {
          "value": 50.0,
          "n": 0,
          "scriptPubKey": {
            "asm": "04f164342fd9b804f93445e869211e4837115768196839f4e749dfcc3a535416bbe0f7d5821b73963a1179cc59c138034a2895fd274598ce6e4667927d5c4cb483 OP_CHECKSIG",
            "desc": "pk(04f164342fd9b804f93445e869211e4837115768196839f4e749dfcc3a535416bbe0f7d5821b73963a1179cc59c138034a2895fd274598ce6e4667927d5c4cb483)#fsdasl8u",
            "hex": "4104f164342fd9b804f93445e869211e4837115768196839f4e749dfcc3a535416bbe0f7d5821b73963a1179cc59c138034a2895fd274598ce6e4667927d5c4cb483ac",
            "type": "pubkey"
          }
        }
      ],
      "hex": "01000000010000000000000000000000000000000000000000000000000000000000000000ffffffff0804ffff001d02f503ffffffff0100f2052a01000000434104f164342fd9b804f93445e869211e4837115768196839f4e749dfcc3a535416bbe0f7d5821b73963a1179cc59c138034a2895fd274598ce6e4667927d5c4cb483ac00000000"
    }
  ]
}