{
  "hash": "000000009d58fcec66383826c8ecfe88508c1a03d7e4f8f8bdc4bc06a553ed5c",
  "confirmations": 45325,
  "height": 7773,
  "version": 1,
  "versionHex": "00000001",
  "merkleroot": "e019e2eeb6d06fd05d3a9a24bb660e82f8009b4987eec411ad53aecd36f0e39d",
  "time": 1237294513,
  "mediantime": 1237291116,
  "nonce": 673003815,
  "bits": "1d00ffff",
  "difficulty": 1,
  "chainwork": "00000000000000000000000000000000000000000000000000001e5e1e5e1e5e",
  "nTx": 1,
  "previousblockhash": "00000000eec7489e37434253d87f78af46c0aff353e1495a92ea414497161500",
  "nextblockhash": "000000006f5a830dc955c5d3587088a19238fce26169d3c7309c4c7a64b03324",
  "strippedsize": 216,
  "size": 216,
  "weight": 864,
  "tx": [
    {
      "txid": "e019e2eeb6d06fd05d3a9a24bb660e82f8009b4987eec411ad53aecd36f0e39d",
      "hash": "e019e2eeb6d06fd05d3a9a24bb660e82f8009b4987eec411ad53aecd36f0e39d",
      "version": 1,
      "size": 135,
      "vsize": 135,
      "weight": 540,
      "locktime": 0,
      "vin": [
        {
          "coinbase": "04ffff001d025a05",
          "sequence": 4294967295
        }
      ],
      "vout": [
        {
          "value": 50.0,
          "n": 0,
          "scriptPubKey": {
            "asm": "04e3e04f9852137619c8144e8eb5b113227c75226723ca9e92d1dde34c8fec03fb46056c17d55383fd2d435b17fc399b0e9f9b909d60dc1795ae48c1b7bf68b36b OP_CHECKSIG",
            "desc": "pk(04e3e04f9852137619c8144e8eb5b113227c75226723ca9e92d1dde34c8fec03fb46056c17d55383fd2d435b17fc399b0e9f9b909d60dc1795ae48c1b7bf68b36b)#660dtsed",
            "hex": "4104e3e04f9852137619c8144e8eb5b113227c75226723ca9e92d1dde34c8fec03fb46056c17d55383fd2d435b17fc399b0e9f9b909d60dc1795ae48c1b7bf68b36bac",
            "type": "pubkey"
          }
        }
      ],
      "hex": "01000000010000000000000000000000000000000000000000000000000000000000000000ffffffff0804ffff001d025a05ffffffff0100f2052a01000000434104e3e04f9852137619c8144e8eb5b113227c75226723ca9e92d1dde34c8fec03fb46056c17d55383fd2d435b17fc399b0e9f9b909d60dc1795ae48c1b7bf68b36bac00000000"
    }
  ]
}