{
  "hash": "000000001324b900fa5d71ae666b9a0fbfcd4cee9be901c27341c8c86765916c",
  "confirmations": 47737,
  "height": 5361,
  "version": 1,
  "versionHex": "00000001",
  "merkleroot": "ce6fc5e0ea48372d8c9811642e57eb32ba22d8a714c7b24a4f1e7c7cc49d0b12",
  "time": 1235412617,
  "mediantime": 1235408138,
  "nonce": 2457398071,
  "bits": "1d00ffff",
  "difficulty": 1,
  "chainwork": "000000000000000000000000000000000000000000000000000014f214f214f2",
  "nTx": 1,
  "previousblockhash": "00000000f2e759f2c1f39d4f45c0f3fbb4ad0c79c380823f3e38ed8572c09bad",
  "nextblockhash": "00000000609cb03b69502dc7b47a517a22819934f0f3f7e9e05d8ecbf6c7d3ad",
  "strippedsize": 216,
  "size": 216,
  "weight": 864,
  "tx": [
    {
      "txid": "ce6fc5e0ea48372d8c9811642e57eb32ba22d8a714c7b24a4f1e7c7cc49d0b12",
      "hash": "ce6fc5e0ea48372d8c9811642e57eb32ba22d8a714c7b24a4f1e7c7cc49d0b12",
      "version": 1,
      "size": 135,
      "vsize": 135,
      "weight": 540,
      "locktime": 0,
      "vin": [
        {
          "coinbase": "04ffff001d021303",
          "sequence": 4294967295
        }
      ],
      "vout": [
        {
          "value": 50.0,
          "n": 0,
          "scriptPubKey": {
            "asm": "0402eff98e9875c7b1acbdb2fa84a5154a99663e664fd12be192729f106ce49e1624e235996420d97f241963a79a4a0bc03d0e7533882efacfa1e839ba230b9308 OP_CHECKSIG",
            "desc": "pk(0402eff98e9875c7b1acbdb2fa84a5154a99663e664fd12be192729f106ce49e1624e235996420d97f241963a79a4a0bc03d0e7533882efacfa1e839ba230b9308)#d0azr5ay",
            "hex": "410402eff98e9875c7b1acbdb2fa84a5154a99663e664fd12be192729f106ce49e1624e235996420d97f241963a79a4a0bc03d0e7533882efacfa1e839ba230b9308ac",
            "type": "pubkey"
          }
        }
      ],
      "hex": "01000000010000000000000000000000000000000000000000000000000000000000000000ffffffff0804ffff001d021303ffffffff0100f2052a0100000043410402eff98e9875c7b1acbdb2fa84a5154a99663e664fd12be192729f106ce49e1624e235996420d97f241963a79a4a0bc03d0e7533882efacfa1e839ba230b9308ac00000000"
    }
  ]
}