{
  "hash": "000000005d0ceb9dfcec53ef56b48f949f6e7a4e76b6fe9641fd02beff7134b4",
  "confirmations": 52426,
  "height": 672,
  "version": 1,
  "versionHex": "00000001",
  "merkleroot": "7b34ee4ca9f01ad537a2e36731668fb73e8842c18564c27690abe5463dce3777",
  "time": 1232085703,
  "mediantime": 1232079598,
  "nonce": 841205813,
  "bits": "1d00ffff",
  "difficulty": 1,
  "chainwork": "000000000000000000000000000000000000000000000000000002a102a102a1",
  "nTx": 1,
  "previousblockhash": "000000009e48aa3498ce546a1cbfccbc083e080108b06e0ad4bcea59c74a1af1",
  "nextblockhash": "00000000ea02e80eda7207d0e12b78a99dc94aff6bd2f199ea3a6cfc591a97f6",
  "strippedsize": 215,
  "size": 215,
  "weight": 860,
  "tx": [
    {
      "txid": "7b34ee4ca9f01ad537a2e36731668fb73e8842c18564c27690abe5463dce3777",
      "hash": "7b34ee4ca9f01ad537a2e36731668fb73e8842c18564c27690abe5463dce3777",
      "version": 1,
      "size": 134,
      "vsize": 134,
      "weight": 536,
      "locktime": 0,
      "vin": [
        {
          "coinbase": "04ffff001d0148",
          "sequence": 4294967295
        }
      ],
      "vout": [
        {
          "value": 50.0,
          "n": 0,
          "scriptPubKey": {
            "asm": "0476ada3818119b03659cbcd9c78534a83a1a3fb65ba48362e5bf06cd75df47ac3d7cddafe1bece28cc025328337ac39bcc226633eba97886e92bd85ee9ddec81f OP_CHECKSIG",
            "desc": "pk(0476ada3818119b03659cbcd9c78534a83a1a3fb65ba48362e5bf06cd75df47ac3d7cddafe1bece28cc025328337ac39bcc226633eba97886e92bd85ee9ddec81f)#apjq87ek",
            "hex": "410476ada3818119b03659cbcd9c78534a83a1a3fb65ba48362e5bf06cd75df47ac3d7cddafe1bece28cc025328337ac39bcc226633eba97886e92bd85ee9ddec81fac",
            "type": "pubkey"
          }
        }
      ],
      "hex": "01000000010000000000000000000000000000000000000000000000000000000000000000ffffffff0704ffff001d0148ffffffff0100f2052a0100000043410476ada3818119b03659cbcd9c78534a83a1a3fb65ba48362e5bf06cd75df47ac3d7cddafe1bece28cc025328337ac39bcc226633eba97886e92bd85ee9ddec81fac00000000"
    }
  ]
}