{
  "hash": "00000000e4621d872dc7056fcceac91569282a7332091a38c771c2d852235ea9",
  "confirmations": 50754,
  "height": 2344,
  "version": 1,
  "versionHex": "00000001",
  "merkleroot": "bf7549fc369f6aea542f9275916c95a4951e16aa66833e39d6b9ed463db7d67f",
  "time": 1233312251,
  "mediantime": 1233308687,
  "nonce": 858164500,
  "bits": "1d00ffff",
  "difficulty": 1,
  "chainwork": "0000000000000000000000000000000000000000000000000000092909290929",
  "nTx": 1,
  "previousblockhash": "00000000b80e4b633d6baea4db23cebf406dddaade5f79867bf5aeffb0b7453a",
  "nextblockhash": "000000007024f233aa44bc7784a78926fb1c325f9985c936ae57b94530505062",
  "strippedsize": 216,
  "size": 216,
  "weight": 864,
  "tx": [
    {
      "txid": "bf7549fc369f6aea542f9275916c95a4951e16aa66833e39d6b9ed463db7d67f",
      "hash": "bf7549fc369f6aea542f9275916c95a4951e16aa66833e39d6b9ed463db7d67f",
      "version": 1,
      "size": 135,
      "vsize": 135,
      "weight": 540,
      "locktime": 0,
      "vin": [
        {
          "coinbase": "04ffff001d029202",
          "sequence": 4294967295
        }
      ],
      "vout": [
        {
          "value": 50.0,
          "n": 0,
          "scriptPubKey": {
            "asm": "046c4f25f85aae9318bed6ea9cab4f954f2f4f8b9fa004ac48d85be8ff4498c1fab91b9e863ef88b1078dbbb7d89ed0ed5eaf972b0724a4b8bd485bd38f62502db OP_CHECKSIG",
            "desc": "pk(046c4f25f85aae9318bed6ea9cab4f954f2f4f8b9fa004ac48d85be8ff4498c1fab91b9e863ef88b1078dbbb7d89ed0ed5eaf972b0724a4b8bd485bd38f62502db)#aqevug7v",
            "hex": "41046c4f25f85aae9318bed6ea9cab4f954f2f4f8b9fa004ac48d85be8ff4498c1fab91b9e863ef88b1078dbbb7d89ed0ed5eaf972b0724a4b8bd485bd38f62502dbac",
            "type": "pubkey"
          }
        }
      ],
      "hex": "01000000010000000000000000000000000000000000000000000000000000000000000000ffffffff0804ffff001d029202ffffffff0100f2052a010000004341046c4f25f85aae9318bed6ea9cab4f954f2f4f8b9fa004ac48d85be8ff4498c1fab91b9e863ef88b1078dbbb7d89ed0ed5eaf972b0724a4b8bd485bd38f62502dbac00000000"
    }
  ]
}