{
  "hash": "000000004f51ff3b75ee624c32e5b1fdc911bd0c07104b00e192fd1d375fa452",
  "confirmations": 52409,
  "height": 689,
  "version": 1,
  "versionHex": "00000001",
  "merkleroot": "53faa3a83101c1648981b50df9de5d6facfb4f7c614623800ad9d3f38f1b8bf2",
  "time": 1232099502,
  "mediantime": 1232096885,
  "nonce": 972237107,
  "bits": "1d00ffff",
  "difficulty": 1,
  "chainwork": "000000000000000000000000000000000000000000000000000002b202b202b2",
  "nTx": 1,
  "previousblockhash": "00000000ffa5e19e744552ad9cf9255de8ac6d4c03b9ed259fca020c9a071b1e",
  "nextblockhash": "00000000a32fd98532b4bd1ca90c491e83d27d3238591bb93fddd080e903703c",
  "strippedsize": 216,
  "size": 216,
  "weight": 864,
  "tx": [
    {
      "txid": "53faa3a83101c1648981b50df9de5d6facfb4f7c614623800ad9d3f38f1b8bf2",
      "hash": "53faa3a83101c1648981b50df9de5d6facfb4f7c614623800ad9d3f38f1b8bf2",
      "version": 1,
      "size": 135,
      "vsize": 135,
      "weight": 540,
      "locktime": 0,
      "vin": [
        {
          "coinbase": "04ffff001d02aa00",
          "sequence": 4294967295
        }
      ],
      "vout": [
        {
          "value": 50.0,
          "n": 0,
          "scriptPubKey": {
            "asm": "04c8666ed18c5aeecfafba9d82f4c287be02c7cb8665ff85b5a15c234228494d659e57b08fb8cbbd6b698f81cb0757fbc3eb5ca86637ee13fa4acc55a4641d3cbc OP_CHECKSIG",
            "desc": "pk(04c8666ed18c5aeecfafba9d82f4c287be02c7cb8665ff85b5a15c234228494d659e57b08fb8cbbd6b698f81cb0757fbc3eb5ca86637ee13fa4acc55a4641d3cbc)#xmu4xlfu",
            "hex": "4104c8666ed18c5aeecfafba9d82f4c287be02c7cb8665ff85b5a15c234228494d659e57b08fb8cbbd6b698f81cb0757fbc3eb5ca86637ee13fa4acc55a4641d3cbcac",
            "type": "pubkey"
          }
        }
      ],
      "hex": "01000000010000000000000000000000000000000000000000000000000000000000000000ffffffff0804ffff001d02aa00ffffffff0100f2052a01000000434104c8666ed18c5aeecfafba9d82f4c287be02c7cb8665ff85b5a15c234228494d659e57b08fb8cbbd6b698f81cb0757fbc3eb5ca86637ee13fa4acc55a4641d3cbcac00000000"
    }
  ]
}