{
  "hash": "000000001e4ed2d4b03580ce578626d40b3424889953df0dbb86ac3d37efce54",
  "confirmations": 50963,
  "height": 2135,
  "version": 1,
  "versionHex": "00000001",
  "merkleroot": "2c57fd29803852e1c32dfc36e28e49f835e48389298fc8def78c840ced860648",
  "time": 1233163997,
  "mediantime": 1233159248,
  "nonce": 3742726421,
  "bits": "1d00ffff",
  "difficulty": 1,
  "chainwork": "0000000000000000000000000000000000000000000000000000085808580858",
  "nTx": 1,
  "previousblockhash": "000000006d15a46f33f628b76373bcb4c42ed89937b033823d0cf0fd86809a65",
  "nextblockhash": "000000004cae720c41e23ebf521ab2f9d35bfe364d670b2b195618213dde8783",
  "strippedsize": 215,
  "size": 215,
  "weight": 860,
  "tx": [
    {
      "txid": "2c57fd29803852e1c32dfc36e28e49f835e48389298fc8def78c840ced860648",
      "hash": "2c57fd29803852e1c32dfc36e28e49f835e48389298fc8def78c840ced860648",
      "version": 1,
      "size": 134,
      "vsize": 134,
      "weight": 536,
      "locktime": 0,
      "vin": [
        {
          "coinbase": "04ffff001d0113",
          "sequence": 4294967295
        }
      ],
      "vout": [
        {
          "value": 50.0,
          "n": 0,
          "scriptPubKey": {
            "asm": "04d0a24dbc7c13ed4e548cc8c48ac48ca0b34778b485272ac6b4583cbe51601fd723b2ff2a60b653c5b0d647cff4b1227a0c09f95e9ca2b97271db575589daac22 OP_CHECKSIG",
            "desc": "pk(04d0a24dbc7c13ed4e548cc8c48ac48ca0b34778b485272ac6b4583cbe51601fd723b2ff2a60b653c5b0d647cff4b1227a0c09f95e9ca2b97271db575589daac22)#4wm9l5yt",
            "hex": "4104d0a24dbc7c13ed4e548cc8c48ac48ca0b34778b485272ac6b4583cbe51601fd723b2ff2a60b653c5b0d647cff4b1227a0c09f95e9ca2b97271db575589daac22ac",
            "type": "pubkey"
          }
        }
      ],
      "hex": "01000000010000000000000000000000000000000000000000000000000000000000000000ffffffff0704ffff001d0113ffffffff0100f2052a01000000434104d0a24dbc7c13ed4e548cc8c48ac48ca0b34778b485272ac6b4583cbe51601fd723b2ff2a60b653c5b0d647cff4b1227a0c09f95e9ca2b97271db575589daac22ac00000000"
    }
  ]
}