{
  "hash": "000000001cf7cd13648a8613f515ed9dfebd6335b98b7140906bd022df40d5bb",
  "confirmations": 45451,
  "height": 7647,
  "version": 1,
  "versionHex": "00000001",
  "merkleroot": "9450f510ea4e7b31cb568ef01d8c04013e910c122d83fa3f58addbea5977d8f3",
  "time": 1237200953,
  "mediantime": 1237197365,
  "nonce": 3435043105,
  "bits": "1d00ffff",
  "difficulty": 1,
  "chainwork": "00000000000000000000000000000000000000000000000000001de01de01de0",
  "nTx": 1,
  "previousblockhash": "000000003c5b770856465f1d7f9ae8919f33504fc7971f486f51074386084cda",
  "nextblockhash": "00000000149a05aa3aa2544993ee1e359683750df8ec055c183e749f452c1fcf",
  "strippedsize": 216,
  "size": 216,
  "weight": 864,
  "tx": [
    {
      "txid": "9450f510ea4e7b31cb568ef01d8c04013e910c122d83fa3f58addbea5977d8f3",
      "hash": "9450f510ea4e7b31cb568ef01d8c04013e910c122d83fa3f58addbea5977d8f3",
      "version": 1,
      "size": 135,
      "vsize": 135,
      "weight": 540,
      "locktime": 0,
      "vin": [
        {
          "coinbase": "04ffff001d023403",
          "sequence": 4294967295
        }
      ],
      "vout": [
        {
          "value": 50.0,
          "n": 0,
          "scriptPubKey": {
            "asm": "04504386d58a270cd9001df634b5c6da0ebffaf94f52b50052ca62a85f5b921fa97aaefc629b00f8feaa97f37f2187823867749d17327aee1805d13b3bfe8c6214 OP_CHECKSIG",
            "desc": "pk(04504386d58a270cd9001df634b5c6da0ebffaf94f52b50052ca62a85f5b921fa97aaefc629b00f8feaa97f37f2187823867749d17327aee1805d13b3bfe8c6214)#exhl5j4a",
            "hex": "4104504386d58a270cd9001df634b5c6da0ebffaf94f52b50052ca62a85f5b921fa97aaefc629b00f8feaa97f37f2187823867749d17327aee1805d13b3bfe8c6214ac",
            "type": "pubkey"
          }
        }
      ],
      "hex": "01000000010000000000000000000000000000000000000000000000000000000000000000ffffffff0804ffff001d023403ffffffff0100f2052a01000000434104504386d58a270cd9001df634b5c6da0ebffaf94f52b50052ca62a85f5b921fa97aaefc629b00f8feaa97f37f2187823867749d17327aee1805d13b3bfe8c6214ac00000000"
    }
  ]
}