{
  "hash": "0000000015484ff1d18afb86c7581eabeaf7146813ce140595e2f136af7a393b",
  "confirmations": 52192,
  "height": 471,
  "version": 1,
  "versionHex": "00000001",
  "merkleroot": "3f6f06c81e268c6f05e3a2f1bbf22775415653c42491eba360b131de5888ed91",
  "time": 1231949596,
  "mediantime": 1231945725,
  "nonce": 2236918313,
  "bits": "1d00ffff",
  "difficulty": 1,
  "chainwork": "000000000000000000000000000000000000000000000000000001d801d801d8",
  "nTx": 1,
  "previousblockhash": "00000000fd3546b2d219faa87a34e1e6593769d753cf86fc647c4ee2a07710d1",
  "nextblockhash": "000000003cd7e9095cccffcb41462fb67407b66e0245717d06b322732fd2633e",
  "strippedsize": 216,
  "size": 216,
  "weight": 864,
  "tx": [
    {
      "txid": "3f6f06c81e268c6f05e3a2f1bbf22775415653c42491eba360b131de5888ed91",
      "hash": "3f6f06c81e268c6f05e3a2f1bbf22775415653c42491eba360b131de5888ed91",
      "version": 1,
      "size": 135,
      "vsize": 135,
      "weight": 540,
      "locktime": 0,
      "vin": [
        {
          "coinbase": "04ffff001d02fb03",
          "sequence": 4294967295
        }
      ],
      "vout": [
        {
          "value": 50.0,
          "n": 0,
          "scriptPubKey": {
            "asm": "04d25c6008773ee2a23ad0ee97553af1abd9e285462a3eaf02451ab4d9a206e052e5ea84a7be0ddd8c8b6d34060b19356aa5391efdd08553c4c74aa1b204a9d530 OP_CHECKSIG",
            "desc": "pk(04d25c6008773ee2a23ad0ee97553af1abd9e285462a3eaf02451ab4d9a206e052e5ea84a7be0ddd8c8b6d34060b19356aa5391efdd08553c4c74aa1b204a9d530)#zypy74xh",
            "hex": "4104d25c6008773ee2a23ad0ee97553af1abd9e285462a3eaf02451ab4d9a206e052e5ea84a7be0ddd8c8b6d34060b19356aa5391efdd08553c4c74aa1b204a9d530ac",
            "type": "pubkey"
          }
        }
      ],
      "hex": "01000000010000000000000000000000000000000000000000000000000000000000000000ffffffff0804ffff001d02fb03ffffffff0100f2052a01000000434104d25c6008773ee2a23ad0ee97553af1abd9e285462a3eaf02451ab4d9a206e052e5ea84a7be0ddd8c8b6d34060b19356aa5391efdd08553c4c74aa1b204a9d530ac00000000"
    }
  ]
}