{
  "hash": "000000004fd3f62c52990111e9f9be4350c25bb978b7680a68d8aa61473100e1",
  "confirmations": 47380,
  "height": 5718,
  "version": 1,
  "versionHex": "00000001",
  "merkleroot": "1a26fa2475cd5c81041697bc41bd1ca80aece409eec7546977221e291fea093b",
  "time": 1235699424,
  "mediantime": 1235695314,
  "nonce": 2637343793,
  "bits": "1d00ffff",
  "difficulty": 1,
  "chainwork": "0000000000000000000000000000000000000000000000000000165716571657",
  "nTx": 1,
  "previousblockhash": "00000000a281b098c057b406e8de544ceb9d6f693c1875501d879532a1c2be72",
  "nextblockhash": "00000000005cdd0f359287d4c5c9e3611c2cc53bc45010c1139bfc1660794ef3",
  "strippedsize": 216,
  "size": 216,
  "weight": 864,
  "tx": [
    {
      "txid": "1a26fa2475cd5c81041697bc41bd1ca80aece409eec7546977221e291fea093b",
      "hash": "1a26fa2475cd5c81041697bc41bd1ca80aece409eec7546977221e291fea093b",
      "version": 1,
      "size": 135,
      "vsize": 135,
      "weight": 540,
      "locktime": 0,
      "vin": [
        {
          "coinbase": "04ffff001d02c709",
          "sequence": 4294967295
        }
      ],
      "vout": [
        {
          "value": 50.0,
          "n": 0,
          "scriptPubKey": {
            "asm": "04822b92cfb0cd717d4069168d73efda45cf1e5a25e500412266544c7b1db5f305a75fe978da2c2761ed0a3e8094dbe853ed0f2eeb6128f324bfbcfef4dfe871a8 OP_CHECKSIG",
            "desc": "pk(04822b92cfb0cd717d4069168d73efda45cf1e5a25e500412266544c7b1db5f305a75fe978da2c2761ed0a3e8094dbe853ed0f2eeb6128f324bfbcfef4dfe871a8)#7nycd0tn",
            "hex": "4104822b92cfb0cd717d4069168d73efda45cf1e5a25e500412266544c7b1db5f305a75fe978da2c2761ed0a3e8094dbe853ed0f2eeb6128f324bfbcfef4dfe871a8ac",
            "type": "pubkey"
          }
        }
      ],
      "hex": "01000000010000000000000000000000000000000000000000000000000000000000000000ffffffff0804ffff001d02c709ffffffff0100f2052a01000000434104822b92cfb0cd717d4069168d73efda45cf1e5a25e500412266544c7b1db5f305a75fe978da2c2761ed0a3e8094dbe853ed0f2eeb6128f324bfbcfef4dfe871a8ac00000000"
    }
  ]
}