{
  "hash": "00000000224f643a45e8b834471161763adc11851af6a98f3d4753bef4ee289b",
  "confirmations": 47754,
  "height": 5344,
  "version": 1,
  "versionHex": "00000001",
  "merkleroot": "16348373578cfd4b602da671d0c4bf5d53bb7c3fad3dc0ab6e202353dac177bf",
  "time": 1235397963,
  "mediantime": 1235395518,
  "nonce": 294339107,
  "bits": "1d00ffff",
  "difficulty": 1,
  "chainwork": "000000000000000000000000000000000000000000000000000014e114e114e1",
  "nTx": 1,
  "previousblockhash": "00000000da94ecaa210171c19b4b6c4e98c81d1578795986acd00dbd9007a44b",
  "nextblockhash": "00000000a88480f5e39c1ac94060b0a9e5599ab191b4df17b2fd8fc94c8b4766",
  "strippedsize": 216,
  "size": 216,
  "weight": 864,
  "tx": [
    {
      "txid": "16348373578cfd4b602da671d0c4bf5d53bb7c3fad3dc0ab6e202353dac177bf",
      "hash": "16348373578cfd4b602da671d0c4bf5d53bb7c3fad3dc0ab6e202353dac177bf",
      "version": 1,
      "size": 135,
      "vsize": 135,
      "weight": 540,
      "locktime": 0,
      "vin": [
        {
          "coinbase": "04ffff001d02c702",
          "sequence": 4294967295
        }
      ],
      "vout": [
        {
          "value": 50.0,
          "n": 0,
          "scriptPubKey": {
            "asm": "04e36ac694354e8735f21080285e70eea2fbc8c3bc3146998886897f7399d5bb2419fd1ff56c89101c279a3f8e82fd06d1762651c3157dc177440260db3c0e6d63 OP_CHECKSIG",
            "desc": "pk(04e36ac694354e8735f21080285e70eea2fbc8c3bc3146998886897f7399d5bb2419fd1ff56c89101c279a3f8e82fd06d1762651c3157dc177440260db3c0e6d63)#3ey223ph",
            "hex": "4104e36ac694354e8735f21080285e70eea2fbc8c3bc3146998886897f7399d5bb2419fd1ff56c89101c279a3f8e82fd06d1762651c3157dc177440260db3c0e6d63ac",
            "type": "pubkey"
          }
        }
      ],
      "hex": "01000000010000000000000000000000000000000000000000000000000000000000000000ffffffff0804ffff001d02c702ffffffff0100f2052a01000000434104e36ac694354e8735f21080285e70eea2fbc8c3bc3146998886897f7399d5bb2419fd1ff56c89101c279a3f8e82fd06d1762651c3157dc177440260db3c0e6d63ac00000000"
    }
  ]
}