{
  "hash": "000000004e9312de3e91560422cfc38f37d6e96f836169d3cbef6284df27c0da",
  "confirmations": 50991,
  "height": 2107,
  "version": 1,
  "versionHex": "00000001",
  "merkleroot": "2bf82b0a56620b682eb6a4bd436c3643d7745b7293f6f735ac4389d76c43e726",
  "time": 1233142232,
  "mediantime": 1233138292,
  "nonce": 3354077704,
  "bits": "1d00ffff",
  "difficulty": 1,
  "chainwork": "0000000000000000000000000000000000000000000000000000083c083c083c",
  "nTx": 1,
  "previousblockhash": "00000000125bd7848efc28349f2f8a45aa2412e25fb0c9a63ab989db66ba910d",
  "nextblockhash": "00000000858aa3785d1874097feee96e35aa9e80804207d1af28f2ba251ea9bd",
  "strippedsize": 216,
  "size": 216,
  "weight": 864,
  "tx": [
    {
      "txid": "2bf82b0a56620b682eb6a4bd436c3643d7745b7293f6f735ac4389d76c43e726",
      "hash": "2bf82b0a56620b682eb6a4bd436c3643d7745b7293f6f735ac4389d76c43e726",
      "version": 1,
      "size": 135,
      "vsize": 135,
      "weight": 540,
      "locktime": 0,
      "vin": [
        {
          "coinbase": "04ffff001d02b903",
          "sequence": 4294967295
        }
      ],
      "vout": [
        {
          "value": 50.0,
          "n": 0,
          "scriptPubKey": {
            "asm": "048065bf586e0be26a027e984548fdf92eb6b6629717fdde4969f654a0bf04e9e1b9cca9a4067edab69851f0179f1042e5e78107738ebdeff5299b25c9dbfd1b35 OP_CHECKSIG",
            "desc": "pk(048065bf586e0be26a027e984548fdf92eb6b6629717fdde4969f654a0bf04e9e1b9cca9a4067edab69851f0179f1042e5e78107738ebdeff5299b25c9dbfd1b35)#zkrkan9x",
            "hex": "41048065bf586e0be26a027e984548fdf92eb6b6629717fdde4969f654a0bf04e9e1b9cca9a4067edab69851f0179f1042e5e78107738ebdeff5299b25c9dbfd1b35ac",
            "type": "pubkey"
          }
        }
      ],
      "hex": "01000000010000000000000000000000000000000000000000000000000000000000000000ffffffff0804ffff001d02b903ffffffff0100f2052a010000004341048065bf586e0be26a027e984548fdf92eb6b6629717fdde4969f654a0bf04e9e1b9cca9a4067edab69851f0179f1042e5e78107738ebdeff5299b25c9dbfd1b35ac00000000"
    }
  ]
}