{
  "hash": "00000000c8eb5603b6bcc934f66e1654bb0d8ca0c8f1768b6d1726fde28d91bf",
  "confirmations": 49439,
  "height": 3659,
  "version": 1,
  "versionHex": "00000001",
  "merkleroot": "87346a4372ab559651e9858d200bcbc30c183ccb5123f22b3f8916cd4680b74e",
  "time": 1234207599,
  "mediantime": 1234205715,
  "nonce": 797358593,
  "bits": "1d00ffff",
  "difficulty": 1,
  "chainwork": "00000000000000000000000000000000000000000000000000000e4c0e4c0e4c",
  "nTx": 1,
  "previousblockhash": "000000005be369c9ba2987d4be251b8391aae04f72a49567629cab56b10808a8",
  "nextblockhash": "00000000c4136bf96ec4c9a93202cf2f6cf59758b4c0e7c004d2816b93b55510",
  "strippedsize": 216,
  "size": 216,
  "weight": 864,
  "tx": [
    {
      "txid": "87346a4372ab559651e9858d200bcbc30c183ccb5123f22b3f8916cd4680b74e",
      "hash": "87346a4372ab559651e9858d200bcbc30c183ccb5123f22b3f8916cd4680b74e",
      "version": 1,
      "size": 135,
      "vsize": 135,
      "weight": 540,
      "locktime": 0,
      "vin": [
        {
          "coinbase": "04ffff001d025309",
          "sequence": 4294967295
        }
      ],
      "vout": [
        {
          "value": 50.0,
          "n": 0,
          "scriptPubKey": {
            "asm": "0400a00c3dccc74ba9ead81b43ba2e3312c4de703791a86217a04f5416f14ea3b72493cbb1f38ae07e4ed54c39575633eb4c4ec08f4e07681d5e002a0ab71a25b6 OP_CHECKSIG",
            "desc": "pk(0400a00c3dccc74ba9ead81b43ba2e3312c4de703791a86217a04f5416f14ea3b72493cbb1f38ae07e4ed54c39575633eb4c4ec08f4e07681d5e002a0ab71a25b6)#afgp3xja",
            "hex": "410400a00c3dccc74ba9ead81b43ba2e3312c4de703791a86217a04f5416f14ea3b72493cbb1f38ae07e4ed54c39575633eb4c4ec08f4e07681d5e002a0ab71a25b6ac",
            "type": "pubkey"
          }
        }
      ],
      "hex": "01000000010000000000000000000000000000000000000000000000000000000000000000ffffffff0804ffff001d025309ffffffff0100f2052a0100000043410400a00c3dccc74ba9ead81b43ba2e3312c4de703791a86217a04f5416f14ea3b72493cbb1f38ae07e4ed54c39575633eb4c4ec08f4e07681d5e002a0ab71a25b6ac00000000"
    }
  ]
}