{
  "hash": "00000000e01bc2b420a9005f6df58fe070e5227089b6cc7bfbfa34f5ec77c033",
  "confirmations": 46909,
  "height": 6189,
  "version": 1,
  "versionHex": "00000001",
  "merkleroot": "7ac82c2ec84ece18265f0053f8645205dce23f4e3e56eb4affa789d0c7bfdd7f",
  "time": 1236083460,
  "mediantime": 1236078813,
  "nonce": 4270751002,
  "bits": "1d00ffff",
  "difficulty": 1,
  "chainwork": "0000000000000000000000000000000000000000000000000000182e182e182e",
  "nTx": 1,
  "previousblockhash": "000000008537e6e3e13087f759131c1e435a647a0064c3f43815ed3b702b19c2",
  "nextblockhash": "00000000dcb2953968350328c7e0198d4f1ccbf21df2896e6c131a207abcd2bb",
  "strippedsize": 216,
  "size": 216,
  "weight": 864,
  "tx": [
    {
      "txid": "7ac82c2ec84ece18265f0053f8645205dce23f4e3e56eb4affa789d0c7bfdd7f",
      "hash": "7ac82c2ec84ece18265f0053f8645205dce23f4e3e56eb4affa789d0c7bfdd7f",
      "version": 1,
      "size": 135,
      "vsize": 135,
      "weight": 540,
      "locktime": 0,
      "vin": [
        {
          "coinbase": "04ffff001d025208",
          "sequence": 4294967295
        }
      ],
      "vout": [
        {
          "value": 50.0,
          "n": 0,
          "scriptPubKey": {
            "asm": "04691fa487e218a7c3129df2ee82012a7b058d87564a81b0d27c37130f2780f6514fa07843257f09ee9c8c8a7905c35124a90601fc6d58bd6dbf57d12aa15c5aae OP_CHECKSIG",
            "desc": "pk(04691fa487e218a7c3129df2ee82012a7b058d87564a81b0d27c37130f2780f6514fa07843257f09ee9c8c8a7905c35124a90601fc6d58bd6dbf57d12aa15c5aae)#z284ye53",
            "hex": "4104691fa487e218a7c3129df2ee82012a7b058d87564a81b0d27c37130f2780f6514fa07843257f09ee9c8c8a7905c35124a90601fc6d58bd6dbf57d12aa15c5aaeac",
            "type": "pubkey"
          }
        }
      ],
      "hex": "01000000010000000000000000000000000000000000000000000000000000000000000000ffffffff0804ffff001d025208ffffffff0100f2052a01000000434104691fa487e218a7c3129df2ee82012a7b058d87564a81b0d27c37130f2780f6514fa07843257f09ee9c8c8a7905c35124a90601fc6d58bd6dbf57d12aa15c5aaeac00000000"
    }
  ]
}