{
  "hash": "000000000f2a8949a2cfcf5842ad2844ad6f4526c723a755946487b302d4f2fa",
  "confirmations": 46191,
  "height": 6907,
  "version": 1,
  "versionHex": "00000001",
  "merkleroot": "41016a8bea34aa05843ce072c33b3736c3ed4528709e54b00fd27747c1a07591",
  "time": 1236643998,
  "mediantime": 1236639201,
  "nonce": 3749774119,
  "bits": "1d00ffff",
  "difficulty": 1,
  "chainwork": "00000000000000000000000000000000000000000000000000001afc1afc1afc",
  "nTx": 1,
  "previousblockhash": "000000006a604bf70ea8d7fdd317bfe5f7e9b6bbbb3b5a4a1b65f6997d0d1418",
  "nextblockhash": "00000000859e983115a123473dd3bd2fc85a2d190013a9214aefb416f2179d87",
  "strippedsize": 216,
  "size": 216,
  "weight": 864,
  "tx": [
    {
      "txid": "41016a8bea34aa05843ce072c33b3736c3ed4528709e54b00fd27747c1a07591",
      "hash": "41016a8bea34aa05843ce072c33b3736c3ed4528709e54b00fd27747c1a07591",
      "version": 1,
      "size": 135,
      "vsize": 135,
      "weight": 540,
      "locktime": 0,
      "vin": [
        {
          "coinbase": "04ffff001d029800",
          "sequence": 4294967295
        }
      ],
      "vout": [
        {
          "value": 50.0,
          "n": 0,
          "scriptPubKey": {
            "asm": "04ea5528261c05da801fc6b65bc75a30bf475896294496319c058717057c08b11f4235dddb0822db5de2bd2a872cf872c6918adb0a584f0fd23c9acae14720cd1d OP_CHECKSIG",
            "desc": "pk(04ea5528261c05da801fc6b65bc75a30bf475896294496319c058717057c08b11f4235dddb0822db5de2bd2a872cf872c6918adb0a584f0fd23c9acae14720cd1d)#dc7rdnu4",
            "hex": "4104ea5528261c05da801fc6b65bc75a30bf475896294496319c058717057c08b11f4235dddb0822db5de2bd2a872cf872c6918adb0a584f0fd23c9acae14720cd1dac",
            "type": "pubkey"
          }
        }
      ],
      "hex": "01000000010000000000000000000000000000000000000000000000000000000000000000ffffffff0804ffff001d029800ffffffff0100f2052a01000000434104ea5528261c05da801fc6b65bc75a30bf475896294496319c058717057c08b11f4235dddb0822db5de2bd2a872cf872c6918adb0a584f0fd23c9acae14720cd1dac00000000"
    }
  ]
}