{
  "hash": "0000000087e23245441cf605ab7dd6dacebe12660b537a6c5780b316f1b5792f",
  "confirmations": 50644,
  "height": 2454,
  "version": 1,
  "versionHex": "00000001",
  "merkleroot": "230b68f57c2d2162c75cb1a18027d847e9b42f048edf530972554efb2ab9210f",
  "time": 1233395636,
  "mediantime": 1233391651,
  "nonce": 2338144025,
  "bits": "1d00ffff",
  "difficulty": 1,
  "chainwork": "0000000000000000000000000000000000000000000000000000099709970997",
  "nTx": 1,
  "previousblockhash": "00000000258f83690646aa7fbc01b0a54634871dd8107bc18e602cbf5ce9a2aa",
  "nextblockhash": "00000000045287838aeb116c2463ae3c6063f1bca7c6746b6edd9c24b5f6263e",
  "strippedsize": 216,
  "size": 216,
  "weight": 864,
  "tx": [
    {
      "txid": "230b68f57c2d2162c75cb1a18027d847e9b42f048edf530972554efb2ab9210f",
      "hash": "230b68f57c2d2162c75cb1a18027d847e9b42f048edf530972554efb2ab9210f",
      "version": 1,
      "size": 135,
      "vsize": 135,
      "weight": 540,
      "locktime": 0,
      "vin": [
        {
          "coinbase": "04ffff001d029600",
          "sequence": 4294967295
        }
      ],
      "vout": [
        {
          "value": 50.0,
          "n": 0,
          "scriptPubKey": {
            "asm": "0427ef3e71d6d45324806bac2fb2ece890e2b33d8f7d0ce279a4de7b0f3c2349339052d4c51b96456c85f339ed833e77ab919add060a3001c3e626a6d4d4c29491 OP_CHECKSIG",
            "desc": "pk(0427ef3e71d6d45324806bac2fb2ece890e2b33d8f7d0ce279a4de7b0f3c2349339052d4c51b96456c85f339ed833e77ab919add060a3001c3e626a6d4d4c29491)#cel860jt",
            "hex": "410427ef3e71d6d45324806bac2fb2ece890e2b33d8f7d0ce279a4de7b0f3c2349339052d4c51b96456c85f339ed833e77ab919add060a3001c3e626a6d4d4c29491ac",
            "type": "pubkey"
          }
        }
      ],
      "hex": "01000000010000000000000000000000000000000000000000000000000000000000000000ffffffff0804ffff001d029600ffffffff0100f2052a0100000043410427ef3e71d6d45324806bac2fb2ece890e2b33d8f7d0ce279a4de7b0f3c2349339052d4c51b96456c85f339ed833e77ab919add060a3001c3e626a6d4d4c29491ac00000000"
    }
  ]
}