{
  "hash": "000000003029b2eee62efef83bc52762336a51b0242077b44d322b782093f973",
  "confirmations": 43285,
  "height": 9813,
  "version": 1,
  "versionHex": "00000001",
  "merkleroot": "a3f516f8e89d53a1573969dcdc61652289b9b42771ea1a808b409964f9480a5f",
  "time": 1238863488,
  "mediantime": 1238860889,
  "nonce": 376708891,
  "bits": "1d00ffff",
  "difficulty": 1,
  "chainwork": "0000000000000000000000000000000000000000000000000000265626562656",
  "nTx": 1,
  "previousblockhash": "00000000f8e01ecbcf496ba1f1d365537f51633b37a6d7cb5cd37c458830804e",
  "nextblockhash": "000000007fa0dae8be3bc397597f379bb57dd91e7f3b29836ff5dcb419864da6",
  "strippedsize": 215,
  "size": 215,
  "weight": 860,
  "tx": [
    {
      "txid": "a3f516f8e89d53a1573969dcdc61652289b9b42771ea1a808b409964f9480a5f",
      "hash": "a3f516f8e89d53a1573969dcdc61652289b9b42771ea1a808b409964f9480a5f",
      "version": 1,
      "size": 134,
      "vsize": 134,
      "weight": 536,
      "locktime": 0,
      "vin": [
        {
          "coinbase": "04ffff001d0179",
          "sequence": 4294967295
        }
      ],
      "vout": [
        {
          "value": 50.0,
          "n": 0,
          "scriptPubKey": {
            "asm": "0426457a09731f92e6b6b7b6483d5f2a87f59e95a943d3499daddbb725590138ee21c02cacb0f8be6d51c302ae8d84688c3bc7d767be92ff69451cb13a6a65683e OP_CHECKSIG",
            "desc": "pk(0426457a09731f92e6b6b7b6483d5f2a87f59e95a943d3499daddbb725590138ee21c02cacb0f8be6d51c302ae8d84688c3bc7d767be92ff69451cb13a6a65683e)#3lxt80wp",
            "hex": "410426457a09731f92e6b6b7b6483d5f2a87f59e95a943d3499daddbb725590138ee21c02cacb0f8be6d51c302ae8d84688c3bc7d767be92ff69451cb13a6a65683eac",
            "type": "pubkey"
          }
        }
      ],
      "hex": "01000000010000000000000000000000000000000000000000000000000000000000000000ffffffff0704ffff001d0179ffffffff0100f2052a0100000043410426457a09731f92e6b6b7b6483d5f2a87f59e95a943d3499daddbb725590138ee21c02cacb0f8be6d51c302ae8d84688c3bc7d767be92ff69451cb13a6a65683eac00000000"
    }
  ]
}