{
  "hash": "0000000025c6b644f8add734be7e666fa4afa43ca0204d623a0c0b1fd2104c7a",
  "confirmations": 52183,
  "height": 438,
  "version": 1,
  "versionHex": "00000001",
  "merkleroot": "f6e79a60ead1a6b74d70e46cea906b46f13f39773a691a3d382ca585000e11ad",
  "time": 1231927782,
  "mediantime": 1231924258,
  "nonce": 2650281008,
  "bits": "1d00ffff",
  "difficulty": 1,
  "chainwork": "000000000000000000000000000000000000000000000000000001b701b701b7",
  "nTx": 1,
  "previousblockhash": "0000000058f437720be706c70fd716ceb07110ea74402c9921b093815ad685d7",
  "nextblockhash": "00000000bf877e260208f54a9edde2c9689a5990c93467cc4e0becea8a3180d7",
  "strippedsize": 216,
  "size": 216,
  "weight": 864,
  "tx": [
    {
      "txid": "f6e79a60ead1a6b74d70e46cea906b46f13f39773a691a3d382ca585000e11ad",
      "hash": "f6e79a60ead1a6b74d70e46cea906b46f13f39773a691a3d382ca585000e11ad",
      "version": 1,
      "size": 135,
      "vsize": 135,
      "weight": 540,
      "locktime": 0,
      "vin": [
        {
          "coinbase": "04ffff001d026c03",
          "sequence": 4294967295
        }
      ],
      "vout": [
        {
          "value": 50.0,
          "n": 0,
          "scriptPubKey": {
            "asm": "044730f2126e3d8c8d9b48164a7b6a9273f28fc1e7dfb7fea195521063502be2c661c75ff73f130d1ea2a3ae2bbbf9e3a4ddd55293b613841e00871ab2f600f5b7 OP_CHECKSIG",
            "desc": "pk(044730f2126e3d8c8d9b48164a7b6a9273f28fc1e7dfb7fea195521063502be2c661c75ff73f130d1ea2a3ae2bbbf9e3a4ddd55293b613841e00871ab2f600f5b7)#cxexcpju",
            "hex": "41044730f2126e3d8c8d9b48164a7b6a9273f28fc1e7dfb7fea195521063502be2c661c75ff73f130d1ea2a3ae2bbbf9e3a4ddd55293b613841e00871ab2f600f5b7ac",
            "type": "pubkey"
          }
        }
      ],
      "hex": "01000000010000000000000000000000000000000000000000000000000000000000000000ffffffff0804ffff001d026c03ffffffff0100f2052a010000004341044730f2126e3d8c8d9b48164a7b6a9273f28fc1e7dfb7fea195521063502be2c661c75ff73f130d1ea2a3ae2bbbf9e3a4ddd55293b613841e00871ab2f600f5b7ac00000000"
    }
  ]
}