{
  "hash": "00000000333f5127071366020e74466a47cae8ce19784dbaba976d7aa7d11819",
  "confirmations": 46041,
  "height": 7057,
  "version": 1,
  "versionHex": "00000001",
  "merkleroot": "2260ac3344978cb8d08a14965cda81b2e27d7b901ae8e20ec47427cc143e5c7b",
  "time": 1236762053,
  "mediantime": 1236760221,
  "nonce": 97594412,
  "bits": "1d00ffff",
  "difficulty": 1,
  "chainwork": "00000000000000000000000000000000000000000000000000001b921b921b92",
  "nTx": 1,
  "previousblockhash": "000000001b757be67a9db68ea0554bef347197dba9b98644d4bda071e055f021",
  "nextblockhash": "0000000033f9151c79fa660b8d84dc8d0278509b1ce41a4257d6d5e0ec4f58b1",
  "strippedsize": 215,
  "size": 215,
  "weight": 860,
  "tx": [
    {
      "txid": "2260ac3344978cb8d08a14965cda81b2e27d7b901ae8e20ec47427cc143e5c7b",
      "hash": "2260ac3344978cb8d08a14965cda81b2e27d7b901ae8e20ec47427cc143e5c7b",
      "version": 1,
      "size": 134,
      "vsize": 134,
      "weight": 536,
      "locktime": 0,
      "vin": [
        {
          "coinbase": "04ffff001d010d",
          "sequence": 4294967295
        }
      ],
      "vout": [
        {
          "value": 50.0,
          "n": 0,
          "scriptPubKey": {
            "asm": "0400fd0150e8b05a6cca4ade1c6b22ea4deb8f7aff03885a14f495d4d1cf9b5e51fa540b92299759592f4ec736802f3135fd370b22309b1e92b8a40fb79cd927b8 OP_CHECKSIG",
            "desc": "pk(0400fd0150e8b05a6cca4ade1c6b22ea4deb8f7aff03885a14f495d4d1cf9b5e51fa540b92299759592f4ec736802f3135fd370b22309b1e92b8a40fb79cd927b8)#chjxyxaw",
            "hex": "410400fd0150e8b05a6cca4ade1c6b22ea4deb8f7aff03885a14f495d4d1cf9b5e51fa540b92299759592f4ec736802f3135fd370b22309b1e92b8a40fb79cd927b8ac",
            "type": "pubkey"
          }
        }
      ],
      "hex": "01000000010000000000000000000000000000000000000000000000000000000000000000ffffffff0704ffff001d010dffffffff0100f2052a0100000043410400fd0150e8b05a6cca4ade1c6b22ea4deb8f7aff03885a14f495d4d1cf9b5e51fa540b92299759592f4ec736802f3135fd370b22309b1e92b8a40fb79cd927b8ac00000000"
    }
  ]
}