{
  "hash": "0000000082a38ff5b06379fe8898e516e4b9158c6b3e4bf07dae998ac3e8699c",
  "confirmations": 51999,
  "height": 341,
  "version": 1,
  "versionHex": "00000001",
  "merkleroot": "2b2a848c2224f3c82c2d09f9da4082912037b30a74afa031f47cad49363cd509",
  "time": 1231859159,
  "mediantime": 1231856644,
  "nonce": 1040006677,
  "bits": "1d00ffff",
  "difficulty": 1,
  "chainwork": "0000000000000000000000000000000000000000000000000000015601560156",
  "nTx": 1,
  "previousblockhash": "000000005ddf5639bd049b9579d2ff5d1060ed1020a72f927db9c18b106e81b4",
  "nextblockhash": "0000000030d317436271d42f336d26387b284fed7c84e02f8d951d1a865b052b",
  "strippedsize": 216,
  "size": 216,
  "weight": 864,
  "tx": [
    {
      "txid": "2b2a848c2224f3c82c2d09f9da4082912037b30a74afa031f47cad49363cd509",
      "hash": "2b2a848c2224f3c82c2d09f9da4082912037b30a74afa031f47cad49363cd509",
      "version": 1,
      "size": 135,
      "vsize": 135,
      "weight": 540,
      "locktime": 0,
      "vin": [
        {
          "coinbase": "04ffff001d025701",
          "sequence": 4294967295
        }
      ],
      "vout": [
        {
          "value": 50.0,
          "n": 0,
          "scriptPubKey": {
            "asm": "043cfced644d64623571fbd55543907004a5a834a4870401ec898f5c022599a4cdcb2897f3923a08d249e355161fad11b93232a1198398e96d69951a74c59a105e OP_CHECKSIG",
            "desc": "pk(043cfced644d64623571fbd55543907004a5a834a4870401ec898f5c022599a4cdcb2897f3923a08d249e355161fad11b93232a1198398e96d69951a74c59a105e)#nfkpj4cg",
            "hex": "41043cfced644d64623571fbd55543907004a5a834a4870401ec898f5c022599a4cdcb2897f3923a08d249e355161fad11b93232a1198398e96d69951a74c59a105eac",
            "type": "pubkey"
          }
        }
      ],
      "hex": "01000000010000000000000000000000000000000000000000000000000000000000000000ffffffff0804ffff001d025701ffffffff0100f2052a010000004341043cfced644d64623571fbd55543907004a5a834a4870401ec898f5c022599a4cdcb2897f3923a08d249e355161fad11b93232a1198398e96d69951a74c59a105eac00000000"
    }
  ]
}