{
  "hash": "0000000007a3d4e82bab6dd5c48f6be01b0b80ac5134a3d87629a6fc26c48dbc",
  "confirmations": 47115,
  "height": 5983,
  "version": 1,
  "versionHex": "00000001",
  "merkleroot": "0dc259cac87398a4eda37c5a178e823017c47d445cfeed0477d3d6425bd3e05d",
  "time": 1235914652,
  "mediantime": 1235910318,
  "nonce": 2865016855,
  "bits": "1d00ffff",
  "difficulty": 1,
  "chainwork": "0000000000000000000000000000000000000000000000000000176017601760",
  "nTx": 1,
  "previousblockhash": "0000000030758b5a93041fdfcae3c10de124013f0a6133bf2efd61872eaf622b",
  "nextblockhash": "00000000b889b91e5a6c043366f29e31e9e9cf64b4e771dd4cab87562c2306d8",
  "strippedsize": 216,
  "size": 216,
  "weight": 864,
  "tx": [
    {
      "txid": "0dc259cac87398a4eda37c5a178e823017c47d445cfeed0477d3d6425bd3e05d",
      "hash": "0dc259cac87398a4eda37c5a178e823017c47d445cfeed0477d3d6425bd3e05d",
      "version": 1,
      "size": 135,
      "vsize": 135,
      "weight": 540,
      "locktime": 0,
      "vin": [
        {
          "coinbase": "04ffff001d029804",
          "sequence": 4294967295
        }
      ],
      "vout": [
        {
          "value": 50.0,
          "n": 0,
          "scriptPubKey": {
            "asm": "04a6172553c515ad5eab2050e71d249722ace7a3d6e250bb559ec7b69db1f4391e91ac08f5813f497a32b4e75637889159d14c285043aacaad68d0f8369811e8ef OP_CHECKSIG",
            "desc": "pk(04a6172553c515ad5eab2050e71d249722ace7a3d6e250bb559ec7b69db1f4391e91ac08f5813f497a32b4e75637889159d14c285043aacaad68d0f8369811e8ef)#papmw05g",
            "hex": "4104a6172553c515ad5eab2050e71d249722ace7a3d6e250bb559ec7b69db1f4391e91ac08f5813f497a32b4e75637889159d14c285043aacaad68d0f8369811e8efac",
            "type": "pubkey"
          }
        }
      ],
      "hex": "01000000010000000000000000000000000000000000000000000000000000000000000000ffffffff0804ffff001d029804ffffffff0100f2052a01000000434104a6172553c515ad5eab2050e71d249722ace7a3d6e250bb559ec7b69db1f4391e91ac08f5813f497a32b4e75637889159d14c285043aacaad68d0f8369811e8efac00000000"
    }
  ]
}