{
  "hash": "000000008f106f9bbd4d9d5dd412e4aeab83203d10a4125d03ec60bbad295c21",
  "confirmations": 52043,
  "height": 293,
  "version": 1,
  "versionHex": "00000001",
  "merkleroot": "065fab4aac42671a74eee036873d71fd209102b0e2c7a0bd5910e1a31d507c98",
  "time": 1231827489,
  "mediantime": 1231823695,
  "nonce": 3567640611,
  "bits": "1d00ffff",
  "difficulty": 1,
  "chainwork": "0000000000000000000000000000000000000000000000000000012601260126",
  "nTx": 1,
  "previousblockhash": "000000007716a1f58c0ac514031e7657a7cdbee9188545495558d3078375ee76",
  "nextblockhash": "0000000036b2f63a6f2e070dafbb6e47259d3ae00d4d2d0c7df4ec6a2271a7bc",
  "strippedsize": 215,
  "size": 215,
  "weight": 860,
  "tx": [
    {
      "txid": "065fab4aac42671a74eee036873d71fd209102b0e2c7a0bd5910e1a31d507c98",
      "hash": "065fab4aac42671a74eee036873d71fd209102b0e2c7a0bd5910e1a31d507c98",
      "version": 1,
      "size": 134,
      "vsize": 134,
      "weight": 536,
      "locktime": 0,
      "vin": [
        {
          "coinbase": "04ffff001d0152",
          "sequence": 4294967295
        }
      ],
      "vout": [
        {
          "value": 50.0,
          "n": 0,
          "scriptPubKey": {
            "asm": "0470d1423c0b381f9aca46f7394c893a2aa4dbee6739acd6bd2c228976e13446ba88254032b12425cd6bde5a65615af24a954e4feb65e2332c488dee6767848042 OP_CHECKSIG",
            "desc": "pk(0470d1423c0b381f9aca46f7394c893a2aa4dbee6739acd6bd2c228976e13446ba88254032b12425cd6bde5a65615af24a954e4feb65e2332c488dee6767848042)#pzcjarcc",
            "hex": "410470d1423c0b381f9aca46f7394c893a2aa4dbee6739acd6bd2c228976e13446ba88254032b12425cd6bde5a65615af24a954e4feb65e2332c488dee6767848042ac",
            "type": "pubkey"
          }
        }
      ],
      "hex": "01000000010000000000000000000000000000000000000000000000000000000000000000ffffffff0704ffff001d0152ffffffff0100f2052a0100000043410470d1423c0b381f9aca46f7394c893a2aa4dbee6739acd6bd2c228976e13446ba88254032b12425cd6bde5a65615af24a954e4feb65e2332c488dee6767848042ac00000000"
    }
  ]
}