{
  "hash": "00000000464f691ad2d73b68206aff6e217f806aa30dfe2b54fdb53765fd2e0b",
  "confirmations": 50394,
  "height": 2704,
  "version": 1,
  "versionHex": "00000001",
  "merkleroot": "9baac4702e3465d45177bb398551cecfaba9027d375ed3b173ff793926fa7202",
  "time": 1233563982,
  "mediantime": 1233559326,
  "nonce": 3174284061,
  "bits": "1d00ffff",
  "difficulty": 1,
  "chainwork": "00000000000000000000000000000000000000000000000000000a910a910a91",
  "nTx": 1,
  "previousblockhash": "00000000e6f3ddd1f93c53a57d4f00e1e96246d1484b4dd7c3169f3a01f13841",
  "nextblockhash": "000000000ba2784ee0e60204f2f49c6d3b83843c62cadf9ad5b1a2892a01f408",
  "strippedsize": 216,
  "size": 216,
  "weight": 864,
  "tx": [
    {
      "txid": "9baac4702e3465d45177bb398551cecfaba9027d375ed3b173ff793926fa7202",
      "hash": "9baac4702e3465d45177bb398551cecfaba9027d375ed3b173ff793926fa7202",
      "version": 1,
      "size": 135,
      "vsize": 135,
      "weight": 540,
      "locktime": 0,
      "vin": [
        {
          "coinbase": "04ffff001d02d004",
          "sequence": 4294967295
        }
      ],
      "vout": [
        {
          "value": 50.0,
          "n": 0,
          "scriptPubKey": {
            "asm": "042c6fedcaa03f23936b3e70337b1fb692bf806ffb417984cff00b73654709c817f761484327c8f6e2cc8fcc6ac81ad485e197d9ca78b3d69e053c6bba495559d7 OP_CHECKSIG",
            "desc": "pk(042c6fedcaa03f23936b3e70337b1fb692bf806ffb417984cff00b73654709c817f761484327c8f6e2cc8fcc6ac81ad485e197d9ca78b3d69e053c6bba495559d7)#767u39e5",
            "hex": "41042c6fedcaa03f23936b3e70337b1fb692bf806ffb417984cff00b73654709c817f761484327c8f6e2cc8fcc6ac81ad485e197d9ca78b3d69e053c6bba495559d7ac",
            "type": "pubkey"
          }
        }
      ],
      "hex": "01000000010000000000000000000000000000000000000000000000000000000000000000ffffffff0804ffff001d02d004ffffffff0100f2052a010000004341042c6fedcaa03f23936b3e70337b1fb692bf806ffb417984cff00b73654709c817f761484327c8f6e2cc8fcc6ac81ad485e197d9ca78b3d69e053c6bba495559d7ac00000000"
    }
  ]
}