{
  "hash": "0000000050c878a194212cddc468fced5162630acccae8a01778a997c307e347",
  "confirmations": 46523,
  "height": 6575,
  "version": 1,
  "versionHex": "00000001",
  "merkleroot": "65cf9c4ce7d68faa53d6e230a3c0fed1680866e1672623a8c9c513fc8562802d",
  "time": 1236384336,
  "mediantime": 1236379130,
  "nonce": 3665153333,
  "bits": "1d00ffff",
  "difficulty": 1,
  "chainwork": "000000000000000000000000000000000000000000000000000019b019b019b0",
  "nTx": 1,
  "previousblockhash": "000000000f473a759506cf47ee544fe35ef4f9bb4a1946b00aa278e079adfc47",
  "nextblockhash": "00000000190b7c78c04060087be9ffdafeffc2eaaba0c2f8c98e56e10cba73fb",
  "strippedsize": 216,
  "size": 216,
  "weight": 864,
  "tx": [
    {
      "txid": "65cf9c4ce7d68faa53d6e230a3c0fed1680866e1672623a8c9c513fc8562802d",
      "hash": "65cf9c4ce7d68faa53d6e230a3c0fed1680866e1672623a8c9c513fc8562802d",
      "version": 1,
      "size": 135,
      "vsize": 135,
      "weight": 540,
      "locktime": 0,
      "vin": [
        {
          "coinbase": "04ffff001d02b704",
          "sequence": 4294967295
        }
      ],
      "vout": [
        {
          "value": 50.0,
          "n": 0,
          "scriptPubKey": {
            "asm": "0422a250b88d7977095e097726eb1ca92f183a10f68f2390e6c485889376d483b30a35875bff8d0d7faad0ed707a52a0d07c3406c71d97f03f038a56cac524aaef OP_CHECKSIG",
            "desc": "pk(0422a250b88d7977095e097726eb1ca92f183a10f68f2390e6c485889376d483b30a35875bff8d0d7faad0ed707a52a0d07c3406c71d97f03f038a56cac524aaef)#792nft5g",
            "hex": "410422a250b88d7977095e097726eb1ca92f183a10f68f2390e6c485889376d483b30a35875bff8d0d7faad0ed707a52a0d07c3406c71d97f03f038a56cac524aaefac",
            "type": "pubkey"
          }
        }
      ],
      "hex": "01000000010000000000000000000000000000000000000000000000000000000000000000ffffffff0804ffff001d02b704ffffffff0100f2052a0100000043410422a250b88d7977095e097726eb1ca92f183a10f68f2390e6c485889376d483b30a35875bff8d0d7faad0ed707a52a0d07c3406c71d97f03f038a56cac524aaefac00000000"
    }
  ]
}