{
  "hash": "00000000bd7c172b76e84035e453dda541c8d05225f32dae20b99852a9656f02",
  "confirmations": 49843,
  "height": 3255,
  "version": 1,
  "versionHex": "00000001",
  "merkleroot": "0c4d83692661b2d9f7ff06bab513c2d82a89274c9be3197a6854fe078a92d5dd",
  "time": 1233939004,
  "mediantime": 1233936543,
  "nonce": 3599389999,
  "bits": "1d00ffff",
  "difficulty": 1,
  "chainwork": "00000000000000000000000000000000000000000000000000000cb80cb80cb8",
  "nTx": 1,
  "previousblockhash": "00000000ce4f13aee816eb8a51c1c5b5d8d7bba203c1bb597f6fd9a0e6358415",
  "nextblockhash": "0000000093fd25ff4a43ef7edbfc6ce74d2cd2ed47012d89af1ab6fd3ef71ef4",
  "strippedsize": 216,
  "size": 216,
  "weight": 864,
  "tx": [
    {
      "txid": "0c4d83692661b2d9f7ff06bab513c2d82a89274c9be3197a6854fe078a92d5dd",
      "hash": "0c4d83692661b2d9f7ff06bab513c2d82a89274c9be3197a6854fe078a92d5dd",
      "version": 1,
      "size": 135,
      "vsize": 135,
      "weight": 540,
      "locktime": 0,
      "vin": [
        {
          "coinbase": "04ffff001d027c03",
          "sequence": 4294967295
        }
      ],
      "vout": [
        {
          "value": 50.0,
          "n": 0,
          "scriptPubKey": {
            "asm": "04b80b4c65f07a6b99abcc497962deea8ed543b7de9aa613ec84a82edc54544ecedbd7c9ada89356a1ae4379f511357f21bf7a21921a70f47d2dbeb4937951f944 OP_CHECKSIG",
            "desc": "pk(04b80b4c65f07a6b99abcc497962deea8ed543b7de9aa613ec84a82edc54544ecedbd7c9ada89356a1ae4379f511357f21bf7a21921a70f47d2dbeb4937951f944)#3pw524ge",
            "hex": "4104b80b4c65f07a6b99abcc497962deea8ed543b7de9aa613ec84a82edc54544ecedbd7c9ada89356a1ae4379f511357f21bf7a21921a70f47d2dbeb4937951f944ac",
            "type": "pubkey"
          }
        }
      ],
      "hex": "01000000010000000000000000000000000000000000000000000000000000000000000000ffffffff0804ffff001d027c03ffffffff0100f2052a01000000434104b80b4c65f07a6b99abcc497962deea8ed543b7de9aa613ec84a82edc54544ecedbd7c9ada89356a1ae4379f511357f21bf7a21921a70f47d2dbeb4937951f944ac00000000"
    }
  ]
}