{
  "hash": "00000000972a2a2e86dc713a277acadba1620837d2b9855dea844ad81e302a53",
  "confirmations": 51349,
  "height": 1749,
  "version": 1,
  "versionHex": "00000001",
  "merkleroot": "4668ef800093828b7f5c70d5c6f73f7b76ef90af8b1faff16c4ea354645d43b6",
  "time": 1232874314,
  "mediantime": 1232871305,
  "nonce": 3683223324,
  "bits": "1d00ffff",
  "difficulty": 1,
  "chainwork": "000000000000000000000000000000000000000000000000000006d606d606d6",
  "nTx": 1,
  "previousblockhash": "00000000537e9a57c4218c609393dcb41d415e998ee6c9081a4815fab60bd2b5",
  "nextblockhash": "000000003fb07cd6b88c2d72edacd4c9d168fa06c8c9859cd51a9eb593ff8f97",
  "strippedsize": 216,
  "size": 216,
  "weight": 864,
  "tx": [
    {
      "txid": "4668ef800093828b7f5c70d5c6f73f7b76ef90af8b1faff16c4ea354645d43b6",
      "hash": "4668ef800093828b7f5c70d5c6f73f7b76ef90af8b1faff16c4ea354645d43b6",
      "version": 1,
      "size": 135,
      "vsize": 135,
      "weight": 540,
      "locktime": 0,
      "vin": [
        {
          "coinbase": "04ffff001d027003",
          "sequence": 4294967295
        }
      ],
      "vout": [
        {
          "value": 50.0,
          "n": 0,
          "scriptPubKey": {
            "asm": "0439b805d696d31441fa4a1b579c989756ae93597e5a31568a61559402931ce9eb2cb9f28a880abafd36c1c00472f5da9523c3a157513b033211bc4312678547b7 OP_CHECKSIG",
            "desc": "pk(0439b805d696d31441fa4a1b579c989756ae93597e5a31568a61559402931ce9eb2cb9f28a880abafd36c1c00472f5da9523c3a157513b033211bc4312678547b7)#htmdz8f8",
            "hex": "410439b805d696d31441fa4a1b579c989756ae93597e5a31568a61559402931ce9eb2cb9f28a880abafd36c1c00472f5da9523c3a157513b033211bc4312678547b7ac",
            "type": "pubkey"
          }
        }
      ],
      "hex": "01000000010000000000000000000000000000000000000000000000000000000000000000ffffffff0804ffff001d027003ffffffff0100f2052a0100000043410439b805d696d31441fa4a1b579c989756ae93597e5a31568a61559402931ce9eb2cb9f28a880abafd36c1c00472f5da9523c3a157513b033211bc4312678547b7ac00000000"
    }
  ]
}