{
  "hash": "00000000091da0832d88b03a8f3deadca5806da3fbad6fb8c2e691db8b53886d",
  "confirmations": 48280,
  "height": 4818,
  "version": 1,
  "versionHex": "00000001",
  "merkleroot": "ea2818720b2c47374b9c5303399b7ac8aed3a79855f901d8ae05f572531a16cd",
  "time": 1235011847,
  "mediantime": 1235007916,
  "nonce": 173548921,
  "bits": "1d00ffff",
  "difficulty": 1,
  "chainwork": "000000000000000000000000000000000000000000000000000012d312d312d3",
  "nTx": 1,
  "previousblockhash": "0000000041bf3b1c00ced3f3529a6326af38146e30177de5810f90eaf7e72032",
  "nextblockhash": "00000000c097a3d70d66d430bae5a410e6a1ab92eb817792d5e1a3954fbcbf7f",
  "strippedsize": 216,
  "size": 216,
  "weight": 864,
  "tx": [
    {
      "txid": "ea2818720b2c47374b9c5303399b7ac8aed3a79855f901d8ae05f572531a16cd",
      "hash": "ea2818720b2c47374b9c5303399b7ac8aed3a79855f901d8ae05f572531a16cd",
      "version": 1,
      "size": 135,
      "vsize": 135,
      "weight": 540,
      "locktime": 0,
      "vin": [
        {
          "coinbase": "04ffff001d024d03",
          "sequence": 4294967295
        }
      ],
      "vout": [
        {
          "value": 50.0,
          "n": 0,
          "scriptPubKey": {
            "asm": "043f47bfa75d038e6a42c05c3edc2546b7f538f2cc94c1d192cfa8a5151b7323d6d26d00eecd22ad10c3cc69f9d210f27ce17f2027e070e878ee9615db834a6467 OP_CHECKSIG",
            "desc": "pk(043f47bfa75d038e6a42c05c3edc2546b7f538f2cc94c1d192cfa8a5151b7323d6d26d00eecd22ad10c3cc69f9d210f27ce17f2027e070e878ee9615db834a6467)#p0rzq5ay",
            "hex": "41043f47bfa75d038e6a42c05c3edc2546b7f538f2cc94c1d192cfa8a5151b7323d6d26d00eecd22ad10c3cc69f9d210f27ce17f2027e070e878ee9615db834a6467ac",
            "type": "pubkey"
          }
        }
      ],
      "hex": "01000000010000000000000000000000000000000000000000000000000000000000000000ffffffff0804ffff001d024d03ffffffff0100f2052a010000004341043f47bfa75d038e6a42c05c3edc2546b7f538f2cc94c1d192cfa8a5151b7323d6d26d00eecd22ad10c3cc69f9d210f27ce17f2027e070e878ee9615db834a6467ac00000000"
    }
  ]
}