{
  "hash": "00000000386eead1eb7ff8d88b13996399a278f23cf17777bb8e434ce9099886",
  "confirmations": 47005,
  "height": 6093,
  "version": 1,
  "versionHex": "00000001",
  "merkleroot": "a5980feebb1237e4115564c561968ae4b7529bd9dd0f167767985487f0e1e34d",
  "time": 1236002612,
  "mediantime": 1235999179,
  "nonce": 394199555,
  "bits": "1d00ffff",
  "difficulty": 1,
  "chainwork": "000000000000000000000000000000000000000000000000000017ce17ce17ce",
  "nTx": 1,
  "previousblockhash": "000000006c5cfcc268b09c6d379e82dfeb8eb6499ff120b669a9a658fca197bf",
  "nextblockhash": "000000003a41e9d9830013ced42cd835579b1bcd963a928fc781645ef055f78e",
  "strippedsize": 216,
  "size": 216,
  "weight": 864,
  "tx": [
    {
      "txid": "a5980feebb1237e4115564c561968ae4b7529bd9dd0f167767985487f0e1e34d",
      "hash": "a5980feebb1237e4115564c561968ae4b7529bd9dd0f167767985487f0e1e34d",
      "version": 1,
      "size": 135,
      "vsize": 135,
      "weight": 540,
      "locktime": 0,
      "vin": [
        {
          "coinbase": "04ffff001d02ac06",
          "sequence": 4294967295
        }
      ],
      "vout": [
        {
          "value": 50.0,
          "n": 0,
          "scriptPubKey": {
            "asm": "04983358a212e258da353d26b1c3cb03e96360c2e7a5e73c5ebe18d8fecc6d54d753fe7f113dc97a74a4499042fdba2d3ac7d24f4be6f2bfd607fc3664bee140ad OP_CHECKSIG",
            "desc": "pk(04983358a212e258da353d26b1c3cb03e96360c2e7a5e73c5ebe18d8fecc6d54d753fe7f113dc97a74a4499042fdba2d3ac7d24f4be6f2bfd607fc3664bee140ad)#pkutqk80",
            "hex": "4104983358a212e258da353d26b1c3cb03e96360c2e7a5e73c5ebe18d8fecc6d54d753fe7f113dc97a74a4499042fdba2d3ac7d24f4be6f2bfd607fc3664bee140adac",
            "type": "pubkey"
          }
        }
      ],
      "hex": "01000000010000000000000000000000000000000000000000000000000000000000000000ffffffff0804ffff001d02ac06ffffffff0100f2052a01000000434104983358a212e258da353d26b1c3cb03e96360c2e7a5e73c5ebe18d8fecc6d54d753fe7f113dc97a74a4499042fdba2d3ac7d24f4be6f2bfd607fc3664bee140adac00000000"
    }
  ]
}