{
  "hash": "00000000319cacde61dec8ee9f4f064c445d9f6b6c163eec1c175c224a989771",
  "confirmations": 46436,
  "height": 6662,
  "version": 1,
  "versionHex": "00000001",
  "merkleroot": "8f66a081cc9cd2f25a7be30057f10d291714f94b6259b96d5aa67f06cba12b15",
  "time": 1236452498,
  "mediantime": 1236449311,
  "nonce": 2257021747,
  "bits": "1d00ffff",
  "difficulty": 1,
  "chainwork": "00000000000000000000000000000000000000000000000000001a071a071a07",
  "nTx": 1,
  "previousblockhash": "00000000cfce667241a47562d532256d9b3caff47c5388063c6c5eb94c5d5525",
  "nextblockhash": "000000008b948c2c786e8078aa2514d34aa68f726f5bcf360dac67fd4313d342",
  "strippedsize": 216,
  "size": 216,
  "weight": 864,
  "tx": [
    {
      "txid": "8f66a081cc9cd2f25a7be30057f10d291714f94b6259b96d5aa67f06cba12b15",
      "hash": "8f66a081cc9cd2f25a7be30057f10d291714f94b6259b96d5aa67f06cba12b15",
      "version": 1,
      "size": 135,
      "vsize": 135,
      "weight": 540,
      "locktime": 0,
      "vin": [
        {
          "coinbase": "04ffff001d024e06",
          "sequence": 4294967295
        }
      ],
      "vout": [
        {
          "value": 50.0,
          "n": 0,
          "scriptPubKey": {
            "asm": "04a93ce6e6fdd78a9e3d3cb0d1c243c33aa49cb3255dad39e3c6fd89c93cc630ce5fffcd77fa5684eb034b275efb01261978f17b5ebff609d99dbf679ce0ec8efe OP_CHECKSIG",
            "desc": "pk(04a93ce6e6fdd78a9e3d3cb0d1c243c33aa49cb3255dad39e3c6fd89c93cc630ce5fffcd77fa5684eb034b275efb01261978f17b5ebff609d99dbf679ce0ec8efe)#kzdqn5hr",
            "hex": "4104a93ce6e6fdd78a9e3d3cb0d1c243c33aa49cb3255dad39e3c6fd89c93cc630ce5fffcd77fa5684eb034b275efb01261978f17b5ebff609d99dbf679ce0ec8efeac",
            "type": "pubkey"
          }
        }
      ],
      "hex": "01000000010000000000000000000000000000000000000000000000000000000000000000ffffffff0804ffff001d024e06ffffffff0100f2052a01000000434104a93ce6e6fdd78a9e3d3cb0d1c243c33aa49cb3255dad39e3c6fd89c93cc630ce5fffcd77fa5684eb034b275efb01261978f17b5ebff609d99dbf679ce0ec8efeac00000000"
    }
  ]
}