{
  "hash": "00000000b5c402362622742217dcbf6488bb7f6cd6f3712eaef85c1734f657d7",
  "confirmations": 43575,
  "height": 9523,
  "version": 1,
  "versionHex": "00000001",
  "merkleroot": "b5317110afee8a30a477804a9bf4565109dba28ed564200fc29026e4aa7de7fc",
  "time": 1238642748,
  "mediantime": 1238640866,
  "nonce": 5011081,
  "bits": "1d00ffff",
  "difficulty": 1,
  "chainwork": "0000000000000000000000000000000000000000000000000000253425342534",
  "nTx": 1,
  "previousblockhash": "000000006401b8f289c114b1c11b97eaab640b06cf977144b34bf0eaa69aee81",
  "nextblockhash": "000000004a6484386e4f23ce779f7a6ae651c15c64db1ccd927fc633442b9e77",
  "strippedsize": 215,
  "size": 215,
  "weight": 860,
  "tx": [
    {
      "txid": "b5317110afee8a30a477804a9bf4565109dba28ed564200fc29026e4aa7de7fc",
      "hash": "b5317110afee8a30a477804a9bf4565109dba28ed564200fc29026e4aa7de7fc",
      "version": 1,
      "size": 134,
      "vsize": 134,
      "weight": 536,
      "locktime": 0,
      "vin": [
        {
          "coinbase": "04ffff001d0169",
          "sequence": 4294967295
        }
      ],
      "vout": [
        {
          "value": 50.0,
          "n": 0,
          "scriptPubKey": {
            "asm": "04c3eaea2b231b04686c9be07d3fab97005c1e06e72059a6d612e9a6f3690699e17e9e12d923ae7523c25aae6faeac48632c2606d7a5dd65a1f9a4cb2278d1cc7a OP_CHECKSIG",
            "desc": "pk(04c3eaea2b231b04686c9be07d3fab97005c1e06e72059a6d612e9a6f3690699e17e9e12d923ae7523c25aae6faeac48632c2606d7a5dd65a1f9a4cb2278d1cc7a)#vk9w4sv6",
            "hex": "4104c3eaea2b231b04686c9be07d3fab97005c1e06e72059a6d612e9a6f3690699e17e9e12d923ae7523c25aae6faeac48632c2606d7a5dd65a1f9a4cb2278d1cc7aac",
            "type": "pubkey"
          }
        }
      ],
      "hex": "01000000010000000000000000000000000000000000000000000000000000000000000000ffffffff0704ffff001d0169ffffffff0100f2052a01000000434104c3eaea2b231b04686c9be07d3fab97005c1e06e72059a6d612e9a6f3690699e17e9e12d923ae7523c25aae6faeac48632c2606d7a5dd65a1f9a4cb2278d1cc7aac00000000"
    }
  ]
}