{
  "hash": "0000000068026e7e0c455f0f390b250a71ecf8b8911fe50c86b0e4a37cdcf13f",
  "confirmations": 51614,
  "height": 1484,
  "version": 1,
  "versionHex": "00000001",
  "merkleroot": "1c08ab202d4412153883d328808bfa911ed096f96ef667b807cdb03eefad0d4b",
  "time": 1232761479,
  "mediantime": 1232759135,
  "nonce": 1824776237,
  "bits": "1d00ffff",
  "difficulty": 1,
  "chainwork": "000000000000000000000000000000000000000000000000000005cd05cd05cd",
  "nTx": 1,
  "previousblockhash": "0000000094fac7c1faa819b126571e587e533558930772bf31d86f69cfb744c2",
  "nextblockhash": "0000000028e31f00c3cdcfb301a40e3b1169efd6018c463ed47e7b51a9243784",
  "strippedsize": 216,
  "size": 216,
  "weight": 864,
  "tx": [
    {
      "txid": "1c08ab202d4412153883d328808bfa911ed096f96ef667b807cdb03eefad0d4b",
      "hash": "1c08ab202d4412153883d328808bfa911ed096f96ef667b807cdb03eefad0d4b",
      "version": 1,
      "size": 135,
      "vsize": 135,
      "weight": 540,
      "locktime": 0,
      "vin": [
        {
          "coinbase": "04ffff001d020101",
          "sequence": 4294967295
        }
      ],
      "vout": [
        {
          "value": 50.0,
          "n": 0,
          "scriptPubKey": {
            "asm": "0483356e6426e00946b1b9871b058b0ebf71738c255c23f47d15d4ea50c5dd7ed96d4a3b26f414e3af17e99ba99f2a560a990de5286b3470ad09cb0a3e5a5f08b6 OP_CHECKSIG",
            "desc": "pk(0483356e6426e00946b1b9871b058b0ebf71738c255c23f47d15d4ea50c5dd7ed96d4a3b26f414e3af17e99ba99f2a560a990de5286b3470ad09cb0a3e5a5f08b6)#zrm50mu7",
            "hex": "410483356e6426e00946b1b9871b058b0ebf71738c255c23f47d15d4ea50c5dd7ed96d4a3b26f414e3af17e99ba99f2a560a990de5286b3470ad09cb0a3e5a5f08b6ac",
            "type": "pubkey"
          }
        }
      ],
      "hex": "01000000010000000000000000000000000000000000000000000000000000000000000000ffffffff0804ffff001d020101ffffffff0100f2052a0100000043410483356e6426e00946b1b9871b058b0ebf71738c255c23f47d15d4ea50c5dd7ed96d4a3b26f414e3af17e99ba99f2a560a990de5286b3470ad09cb0a3e5a5f08b6ac00000000"
    }
  ]
}