{
  "hash": "00000000ce6813da013d842373094bab6d605c902cbc120739c9b017ce5d02c4",
  "confirmations": 45690,
  "height": 7408,
  "version": 1,
  "versionHex": "00000001",
  "merkleroot": "8b28b8e9fd51142cc0dc2ccb4d765ac3283d2b70fcef89bb58e5104f369e62eb",
  "time": 1237029691,
  "mediantime": 1237025304,
  "nonce": 2379501833,
  "bits": "1d00ffff",
  "difficulty": 1,
  "chainwork": "00000000000000000000000000000000000000000000000000001cf11cf11cf1",
  "nTx": 1,
  "previousblockhash": "00000000f987d459a18c8c1b46fc1ab96d85a1e9f94e8273a2fc93cf0060e1e5",
  "nextblockhash": "00000000f11aada81f5fb61607a51974b524f009d8efaa7e5897f0909201daa8",
  "strippedsize": 216,
  "size": 216,
  "weight": 864,
  "tx": [
    {
      "txid": "8b28b8e9fd51142cc0dc2ccb4d765ac3283d2b70fcef89bb58e5104f369e62eb",
      "hash": "8b28b8e9fd51142cc0dc2ccb4d765ac3283d2b70fcef89bb58e5104f369e62eb",
      "version": 1,
      "size": 135,
      "vsize": 135,
      "weight": 540,
      "locktime": 0,
      "vin": [
        {
          "coinbase": "04ffff001d029609",
          "sequence": 4294967295
        }
      ],
      "vout": [
        {
          "value": 50.0,
          "n": 0,
          "scriptPubKey": {
            "asm": "049c94ecb70f8ced7acf5a2cdfeac958092439afe2f5370d40430274695f0a83c6bef5626db08aea50702def720521e9be62bce3f3111d5c585054143f67fba088 OP_CHECKSIG",
            "desc": "pk(049c94ecb70f8ced7acf5a2cdfeac958092439afe2f5370d40430274695f0a83c6bef5626db08aea50702def720521e9be62bce3f3111d5c585054143f67fba088)#hna9jxlt",
            "hex": "41049c94ecb70f8ced7acf5a2cdfeac958092439afe2f5370d40430274695f0a83c6bef5626db08aea50702def720521e9be62bce3f3111d5c585054143f67fba088ac",
            "type": "pubkey"
          }
        }
      ],
      "hex": "01000000010000000000000000000000000000000000000000000000000000000000000000ffffffff0804ffff001d029609ffffffff0100f2052a010000004341049c94ecb70f8ced7acf5a2cdfeac958092439afe2f5370d40430274695f0a83c6bef5626db08aea50702def720521e9be62bce3f3111d5c585054143f67fba088ac00000000"
    }
  ]
}