{
  "hash": "0000000027482a073a4f97cca991d6702b871a5296f6aa75fb4e41208ea4e881",
  "confirmations": 46725,
  "height": 6373,
  "version": 1,
  "versionHex": "00000001",
  "merkleroot": "1dbcb4ed5ab8df94584b3480ce6c46fbea39957c4ab342eb59cc924b23562543",
  "time": 1236235893,
  "mediantime": 1236232057,
  "nonce": 3719593763,
  "bits": "1d00ffff",
  "difficulty": 1,
  "chainwork": "000000000000000000000000000000000000000000000000000018e618e618e6",
  "nTx": 1,
  "previousblockhash": "000000004926cc20d8615223a1a330e7f6ebc30d3bd12e53a974cabcc88fe13c",
  "nextblockhash": "0000000068977b19cd0c97cbb3600f3f10165eac14d6f38c588cb5434ef19458",
  "strippedsize": 216,
  "size": 216,
  "weight": 864,
  "tx": [
    {
      "txid": "1dbcb4ed5ab8df94584b3480ce6c46fbea39957c4ab342eb59cc924b23562543",
      "hash": "1dbcb4ed5ab8df94584b3480ce6c46fbea39957c4ab342eb59cc924b23562543",
      "version": 1,
      "size": 135,
      "vsize": 135,
      "weight": 540,
      "locktime": 0,
      "vin": [
        {
          "coinbase": "04ffff001d024f01",
          "sequence": 4294967295
        }
      ],
      "vout": [
        {
          "value": 50.0,
          "n": 0,
          "scriptPubKey": {
            "asm": "04f9f5f12f6ac9d92fa17ee9c9217545ff20bd71cc9b12695f6dd7bd1883b88c26cb28e0b3a34bc44c259d7a58afa9b600746519887a21069d8b0e7d1ab6475b51 OP_CHECKSIG",
            "desc": "pk(04f9f5f12f6ac9d92fa17ee9c9217545ff20bd71cc9b12695f6dd7bd1883b88c26cb28e0b3a34bc44c259d7a58afa9b600746519887a21069d8b0e7d1ab6475b51)#safh66pv",
            "hex": "4104f9f5f12f6ac9d92fa17ee9c9217545ff20bd71cc9b12695f6dd7bd1883b88c26cb28e0b3a34bc44c259d7a58afa9b600746519887a21069d8b0e7d1ab6475b51ac",
            "type": "pubkey"
          }
        }
      ],
      "hex": "01000000010000000000000000000000000000000000000000000000000000000000000000ffffffff0804ffff001d024f01ffffffff0100f2052a01000000434104f9f5f12f6ac9d92fa17ee9c9217545ff20bd71cc9b12695f6dd7bd1883b88c26cb28e0b3a34bc44c259d7a58afa9b600746519887a21069d8b0e7d1ab6475b51ac00000000"
    }
  ]
}