{
  "hash": "000000000763975802abb62458b61145ed86ef888029acaccfa2bd567781419f",
  "confirmations": 46068,
  "height": 7030,
  "version": 1,
  "versionHex": "00000001",
  "merkleroot": "d8eb38c63d8d649c6a454b71c5dee51ae2540de4ee5c09f00519cb1cd45fdd4c",
  "time": 1236740223,
  "mediantime": 1236738132,
  "nonce": 1066372639,
  "bits": "1d00ffff",
  "difficulty": 1,
  "chainwork": "00000000000000000000000000000000000000000000000000001b771b771b77",
  "nTx": 1,
  "previousblockhash": "000000003a1f2355922617c1ce8c0b0ee6c08e2614ccc6d4a898191fe3f1c237",
  "nextblockhash": "0000000064c177ee27588d11dffda0f450f131ca155ece5987a88d211976adb9",
  "strippedsize": 216,
  "size": 216,
  "weight": 864,
  "tx": [
    {
      "txid": "d8eb38c63d8d649c6a454b71c5dee51ae2540de4ee5c09f00519cb1cd45fdd4c",
      "hash": "d8eb38c63d8d649c6a454b71c5dee51ae2540de4ee5c09f00519cb1cd45fdd4c",
      "version": 1,
      "size": 135,
      "vsize": 135,
      "weight": 540,
      "locktime": 0,
      "vin": [
        {
          "coinbase": "04ffff001d02da02",
          "sequence": 4294967295
        }
      ],
      "vout": [
        {
          "value": 50.0,
          "n": 0,
          "scriptPubKey": {
            "asm": "04c139bcb74faaf80f07bdd67ad145f7ab48b075bc3ecc130aa1d3d3327aa7250d7f8d8b4992cd49d1bd297a57d6cae7d9066bf29789be170a9cc0463d6a6453ef OP_CHECKSIG",
            "desc": "pk(04c139bcb74faaf80f07bdd67ad145f7ab48b075bc3ecc130aa1d3d3327aa7250d7f8d8b4992cd49d1bd297a57d6cae7d9066bf29789be170a9cc0463d6a6453ef)#6a6fker4",
            "hex": "4104c139bcb74faaf80f07bdd67ad145f7ab48b075bc3ecc130aa1d3d3327aa7250d7f8d8b4992cd49d1bd297a57d6cae7d9066bf29789be170a9cc0463d6a6453efac",
            "type": "pubkey"
          }
        }
      ],
      "hex": "01000000010000000000000000000000000000000000000000000000000000000000000000ffffffff0804ffff001d02da02ffffffff0100f2052a01000000434104c139bcb74faaf80f07bdd67ad145f7ab48b075bc3ecc130aa1d3d3327aa7250d7f8d8b4992cd49d1bd297a57d6cae7d9066bf29789be170a9cc0463d6a6453efac00000000"
    }
  ]
}