{
  "hash": "0000000021de9e08a94972464e8b4203c69c88e98b0279ad11ce81afd4c54c1f",
  "confirmations": 52166,
  "height": 932,
  "version": 1,
  "versionHex": "00000001",
  "merkleroot": "ba2bbea15423a6582126b2ccedfed409d7a5d2a4ae6a4f9feb6fae46bdbdaaf6",
  "time": 1232301593,
  "mediantime": 1232296937,
  "nonce": 3455348506,
  "bits": "1d00ffff",
  "difficulty": 1,
  "chainwork": "000000000000000000000000000000000000000000000000000003a503a503a5",
  "nTx": 1,
  "previousblockhash": "00000000da6e80599108dbb4d23ede0fc8fb45adc3d974ada0742786ad5008a9",
  "nextblockhash": "00000000f99261c7dd7c7492cd2917f0a43f010b630b54e16b65cd631d6bed1e",
  "strippedsize": 216,
  "size": 216,
  "weight": 864,
  "tx": [
    {
      "txid": "ba2bbea15423a6582126b2ccedfed409d7a5d2a4ae6a4f9feb6fae46bdbdaaf6",
      "hash": "ba2bbea15423a6582126b2ccedfed409d7a5d2a4ae6a4f9feb6fae46bdbdaaf6",
      "version": 1,
      "size": 135,
      "vsize": 135,
      "weight": 540,
      "locktime": 0,
      "vin": [
        {
          "coinbase": "04ffff001d021f04",
          "sequence": 4294967295
        }
      ],
      "vout": [
        {
          "value": 50.0,
          "n": 0,
          "scriptPubKey": {
            "asm": "044e312a7e60c7dfd0cdd6e117f6aed2aea4b8077bc9fc71d4d23f129b661a749d3cfb70338979904a22184006a749b70f8b4befb4667677003ffe6058096eaa6a OP_CHECKSIG",
            "desc": "pk(044e312a7e60c7dfd0cdd6e117f6aed2aea4b8077bc9fc71d4d23f129b661a749d3cfb70338979904a22184006a749b70f8b4befb4667677003ffe6058096eaa6a)#90d5849h",
            "hex": "41044e312a7e60c7dfd0cdd6e117f6aed2aea4b8077bc9fc71d4d23f129b661a749d3cfb70338979904a22184006a749b70f8b4befb4667677003ffe6058096eaa6aac",
            "type": "pubkey"
          }
        }
      ],
      "hex": "01000000010000000000000000000000000000000000000000000000000000000000000000ffffffff0804ffff001d021f04ffffffff0100f2052a010000004341044e312a7e60c7dfd0cdd6e117f6aed2aea4b8077bc9fc71d4d23f129b661a749d3cfb70338979904a22184006a749b70f8b4befb4667677003ffe6058096eaa6aac00000000"
    }
  ]
}