{
  "hash": "000000008a16f9001325cea3b64039be951b922e2548499737fc121306bbef83",
  "confirmations": 45801,
  "height": 7297,
  "version": 1,
  "versionHex": "00000001",
  "merkleroot": "d3bf05e56fbfce135bba7a504eb9d3bb6e0f253256549a459e053346a8c9c557",
  "time": 1236947434,
  "mediantime": 1236942908,
  "nonce": 2491094582,
  "bits": "1d00ffff",
  "difficulty": 1,
  "chainwork": "00000000000000000000000000000000000000000000000000001c821c821c82",
  "nTx": 1,
  "previousblockhash": "0000000054937164d49eaaf404730c7c35377f2815f917a2ef9a7ef717737ff4",
  "nextblockhash": "0000000014e7358b03c1d8d38c74df6ae5bc635a1936ac2779c8e7bbc1260035",
  "strippedsize": 216,
  "size": 216,
  "weight": 864,
  "tx": [
    {
      "txid": "d3bf05e56fbfce135bba7a504eb9d3bb6e0f253256549a459e053346a8c9c557",
      "hash": "d3bf05e56fbfce135bba7a504eb9d3bb6e0f253256549a459e053346a8c9c557",
      "version": 1,
      "size": 135,
      "vsize": 135,
      "weight": 540,
      "locktime": 0,
      "vin": [
        {
          "coinbase": "04ffff001d027e07",
          "sequence": 4294967295
        }
      ],
      "vout": [
        {
          "value": 50.0,
          "n": 0,
          "scriptPubKey": {
            "asm": "04d10eab88fc92ba29f10153e4b7d908116cbaaa65e3d503d0e9d5a6b5a4a9c9d9165a5d0c0de355a5acd5b42c6c6f356b8446af1b406bafbcb5c79d0bd563b94d OP_CHECKSIG",
            "desc": "pk(04d10eab88fc92ba29f10153e4b7d908116cbaaa65e3d503d0e9d5a6b5a4a9c9d9165a5d0c0de355a5acd5b42c6c6f356b8446af1b406bafbcb5c79d0bd563b94d)#ly5qqn03",
            "hex": "4104d10eab88fc92ba29f10153e4b7d908116cbaaa65e3d503d0e9d5a6b5a4a9c9d9165a5d0c0de355a5acd5b42c6c6f356b8446af1b406bafbcb5c79d0bd563b94dac",
            "type": "pubkey"
          }
        }
      ],
      "hex": "01000000010000000000000000000000000000000000000000000000000000000000000000ffffffff0804ffff001d027e07ffffffff0100f2052a01000000434104d10eab88fc92ba29f10153e4b7d908116cbaaa65e3d503d0e9d5a6b5a4a9c9d9165a5d0c0de355a5acd5b42c6c6f356b8446af1b406bafbcb5c79d0bd563b94dac00000000"
    }
  ]
}