{
  "hash": "0000000037b32f32b177ea8d09746c5b05c60005bfcc84c78ca8fb22c5269c10",
  "confirmations": 47458,
  "height": 5640,
  "version": 1,
  "versionHex": "00000001",
  "merkleroot": "6992e22d9ce9907320e27619a64b0c7ebe93578d8bf93c8b0dd039400eebc6c7",
  "time": 1235638230,
  "mediantime": 1235634594,
  "nonce": 3093142814,
  "bits": "1d00ffff",
  "difficulty": 1,
  "chainwork": "0000000000000000000000000000000000000000000000000000160916091609",
  "nTx": 1,
  "previousblockhash": "0000000008e4138ffcfef67b05bfb3d91a3bb6c9b82eff62db0a20fcd34d28f7",
  "nextblockhash": "00000000d61b82fd6ed1423a19824a9b7dad03adbeff0feffe06eefab3149531",
  "strippedsize": 216,
  "size": 216,
  "weight": 864,
  "tx": [
    {
      "txid": "6992e22d9ce9907320e27619a64b0c7ebe93578d8bf93c8b0dd039400eebc6c7",
      "hash": "6992e22d9ce9907320e27619a64b0c7ebe93578d8bf93c8b0dd039400eebc6c7",
      "version": 1,
      "size": 135,
      "vsize": 135,
      "weight": 540,
      "locktime": 0,
      "vin": [
        {
          "coinbase": "04ffff001d027208",
          "sequence": 4294967295
        }
      ],
      "vout": [
        {
          "value": 50.0,
          "n": 0,
          "scriptPubKey": {
            "asm": "049572cbc86c99174b850c485841b16a75f3a94fa05e1661e8cf73977202788fd97fa2295df407997c388acbc69abb872db4d6bae88f95aee2c84a04919f7fb47e OP_CHECKSIG",
            "desc": "pk(049572cbc86c99174b850c485841b16a75f3a94fa05e1661e8cf73977202788fd97fa2295df407997c388acbc69abb872db4d6bae88f95aee2c84a04919f7fb47e)#rmhuc9sz",
            "hex": "41049572cbc86c99174b850c485841b16a75f3a94fa05e1661e8cf73977202788fd97fa2295df407997c388acbc69abb872db4d6bae88f95aee2c84a04919f7fb47eac",
            "type": "pubkey"
          }
        }
      ],
      "hex": "01000000010000000000000000000000000000000000000000000000000000000000000000ffffffff0804ffff001d027208ffffffff0100f2052a010000004341049572cbc86c99174b850c485841b16a75f3a94fa05e1661e8cf73977202788fd97fa2295df407997c388acbc69abb872db4d6bae88f95aee2c84a04919f7fb47eac00000000"
    }
  ]
}