{
  "hash": "000000000ca5bc8b14c11bef1b71d70b771b209487cc65021602ddec8d187491",
  "confirmations": 48877,
  "height": 4221,
  "version": 1,
  "versionHex": "00000001",
  "merkleroot": "d8da00489cd0229a1cbf1babe7925f89bf2bb14a4b0bd5276e101374e9eadf6a",
  "time": 1234593697,
  "mediantime": 1234589599,
  "nonce": 46641289,
  "bits": "1d00ffff",
  "difficulty": 1,
  "chainwork": "0000000000000000000000000000000000000000000000000000107e107e107e",
  "nTx": 1,
  "previousblockhash": "000000001cea975f48af9093bf2b1bf9a6c30afaf2f3a4abe158b2017bfaace9",
  "nextblockhash": "00000000c684b3e35639eb7d02651ebb536c90fe1a6aaa69c82a47c4ae8b110d",
  "strippedsize": 216,
  "size": 216,
  "weight": 864,
  "tx": [
    {
      "txid": "d8da00489cd0229a1cbf1babe7925f89bf2bb14a4b0bd5276e101374e9eadf6a",
      "hash": "d8da00489cd0229a1cbf1babe7925f89bf2bb14a4b0bd5276e101374e9eadf6a",
      "version": 1,
      "size": 135,
      "vsize": 135,
      "weight": 540,
      "locktime": 0,
      "vin": [
        {
          "coinbase": "04ffff001d021109",
          "sequence": 4294967295
        }
      ],
      "vout": [
        {
          "value": 50.0,
          "n": 0,
          "scriptPubKey": {
            "asm": "04c52c6e012528ac9e158ebfc8b6b6b4eddd8979436a6aa1cdfcc3049e9725ddadd0856bb501f1e90183fc2a9b23576dfbaf56bf8b38274e42b6d411409bdc350c OP_CHECKSIG",
            "desc": "pk(04c52c6e012528ac9e158ebfc8b6b6b4eddd8979436a6aa1cdfcc3049e9725ddadd0856bb501f1e90183fc2a9b23576dfbaf56bf8b38274e42b6d411409bdc350c)#ay68nujq",
            "hex": "4104c52c6e012528ac9e158ebfc8b6b6b4eddd8979436a6aa1cdfcc3049e9725ddadd0856bb501f1e90183fc2a9b23576dfbaf56bf8b38274e42b6d411409bdc350cac",
            "type": "pubkey"
          }
        }
      ],
      "hex": "01000000010000000000000000000000000000000000000000000000000000000000000000ffffffff0804ffff001d021109ffffffff0100f2052a01000000434104c52c6e012528ac9e158ebfc8b6b6b4eddd8979436a6aa1cdfcc3049e9725ddadd0856bb501f1e90183fc2a9b23576dfbaf56bf8b38274e42b6d411409bdc350cac00000000"
    }
  ]
}