{
  "hash": "0000000083a5576acd78098428b4bd35a33ecf31b50de117c014083079aadb9c",
  "confirmations": 49825,
  "height": 3273,
  "version": 1,
  "versionHex": "00000001",
  "merkleroot": "90d1f6df81ea105eb0ca45f283e360295bd9b9ab4d98ed6a8d36a6b8b74ce27f",
  "time": 1233951999,
  "mediantime": 1233947616,
  "nonce": 17081624,
  "bits": "1d00ffff",
  "difficulty": 1,
  "chainwork": "00000000000000000000000000000000000000000000000000000cca0cca0cca",
  "nTx": 1,
  "previousblockhash": "000000007b260f7a9713a81b16be88354602a146d72cd4c4e802f06df246b5cb",
  "nextblockhash": "00000000930aa2fb288282e98f8f334a41d31661441ab9a9faeca0511da6c873",
  "strippedsize": 216,
  "size": 216,
  "weight": 864,
  "tx": [
    {
      "txid": "90d1f6df81ea105eb0ca45f283e360295bd9b9ab4d98ed6a8d36a6b8b74ce27f",
      "hash": "90d1f6df81ea105eb0ca45f283e360295bd9b9ab4d98ed6a8d36a6b8b74ce27f",
      "version": 1,
      "size": 135,
      "vsize": 135,
      "weight": 540,
      "locktime": 0,
      "vin": [
        {
          "coinbase": "04ffff001d02de03",
          "sequence": 4294967295
        }
      ],
      "vout": [
        {
          "value": 50.0,
          "n": 0,
          "scriptPubKey": {
            "asm": "04d7cc5c5e2f8e9bb2e3a61ce028b4ba1e7b5faa83c6d49bf16051173d22e2dcf6f0f1c211987a048a9897013f998d20eacaedb60b4211f71e3b9dbefe30bef3b2 OP_CHECKSIG",
            "desc": "pk(04d7cc5c5e2f8e9bb2e3a61ce028b4ba1e7b5faa83c6d49bf16051173d22e2dcf6f0f1c211987a048a9897013f998d20eacaedb60b4211f71e3b9dbefe30bef3b2)#2l4lq0p3",
            "hex": "4104d7cc5c5e2f8e9bb2e3a61ce028b4ba1e7b5faa83c6d49bf16051173d22e2dcf6f0f1c211987a048a9897013f998d20eacaedb60b4211f71e3b9dbefe30bef3b2ac",
            "type": "pubkey"
          }
        }
      ],
      "hex": "01000000010000000000000000000000000000000000000000000000000000000000000000ffffffff0804ffff001d02de03ffffffff0100f2052a01000000434104d7cc5c5e2f8e9bb2e3a61ce028b4ba1e7b5faa83c6d49bf16051173d22e2dcf6f0f1c211987a048a9897013f998d20eacaedb60b4211f71e3b9dbefe30bef3b2ac00000000"
    }
  ]
}