{
  "hash": "00000000525496f3bf5045cccf1a2e75f125ca75300448795b36eee643872aa7",
  "confirmations": 48811,
  "height": 4287,
  "version": 1,
  "versionHex": "00000001",
  "merkleroot": "0e923843b3ac1e35368b3d280bcb1c42f1d1a4980f50b6dd3835b4b9aeccb001",
  "time": 1234633014,
  "mediantime": 1234629901,
  "nonce": 1401913119,
  "bits": "1d00ffff",
  "difficulty": 1,
  "chainwork": "000000000000000000000000000000000000000000000000000010c010c010c0",
  "nTx": 1,
  "previousblockhash": "00000000e7ab8c5e8f3210c409c1c099c0c8a44a936b7e366bf4b6748e5e746a",
  "nextblockhash": "000000006d5e2deae03b412459e1bd0b5368008b711fb67a0bfc81fe2da4bbb5",
  "strippedsize": 216,
  "size": 216,
  "weight": 864,
  "tx": [
    {
      "txid": "0e923843b3ac1e35368b3d280bcb1c42f1d1a4980f50b6dd3835b4b9aeccb001",
      "hash": "0e923843b3ac1e35368b3d280bcb1c42f1d1a4980f50b6dd3835b4b9aeccb001",
      "version": 1,
      "size": 135,
      "vsize": 135,
      "weight": 540,
      "locktime": 0,
      "vin": [
        {
          "coinbase": "04ffff001d028808",
          "sequence": 4294967295
        }
      ],
      "vout": [
        {
          "value": 50.0,
          "n": 0,
          "scriptPubKey": {
            "asm": "04cc9d976db0fc36bb322120bc9afda2248bcee1df0d8192bb85c56238ab699291bd07e1d3c305f15b4e425cfc358acb74aa19fb4139e7a28eca2c30d7992dcbe4 OP_CHECKSIG",
            "desc": "pk(04cc9d976db0fc36bb322120bc9afda2248bcee1df0d8192bb85c56238ab699291bd07e1d3c305f15b4e425cfc358acb74aa19fb4139e7a28eca2c30d7992dcbe4)#zhf7twl2",
            "hex": "4104cc9d976db0fc36bb322120bc9afda2248bcee1df0d8192bb85c56238ab699291bd07e1d3c305f15b4e425cfc358acb74aa19fb4139e7a28eca2c30d7992dcbe4ac",
            "type": "pubkey"
          }
        }
      ],
      "hex": "01000000010000000000000000000000000000000000000000000000000000000000000000ffffffff0804ffff001d028808ffffffff0100f2052a01000000434104cc9d976db0fc36bb322120bc9afda2248bcee1df0d8192bb85c56238ab699291bd07e1d3c305f15b4e425cfc358acb74aa19fb4139e7a28eca2c30d7992dcbe4ac00000000"
    }
  ]
}