{
  "hash": "000000005ab4b742680dcb3f9d3be40b219f3e8c57b0bc286bb50378b6450f8b",
  "confirmations": 45784,
  "height": 7314,
  "version": 1,
  "versionHex": "00000001",
  "merkleroot": "3d5d913434f5e44b2097c871172038fa81497ff93c03af1021fdc4f54d092671",
  "time": 1236958532,
  "mediantime": 1236954375,
  "nonce": 615560967,
  "bits": "1d00ffff",
  "difficulty": 1,
  "chainwork": "00000000000000000000000000000000000000000000000000001c931c931c93",
  "nTx": 1,
  "previousblockhash": "0000000016c0a7394c30e0d7bac93909321fc2b8495715095af59ef92741d9e8",
  "nextblockhash": "00000000beedef81f6ac28e034c64a09bb3accbab36bb08a446ee12589cdaeb0",
  "strippedsize": 216,
  "size": 216,
  "weight": 864,
  "tx": [
    {
      "txid": "3d5d913434f5e44b2097c871172038fa81497ff93c03af1021fdc4f54d092671",
      "hash": "3d5d913434f5e44b2097c871172038fa81497ff93c03af1021fdc4f54d092671",
      "version": 1,
      "size": 135,
      "vsize": 135,
      "weight": 540,
      "locktime": 0,
      "vin": [
        {
          "coinbase": "04ffff001d02cb07",
          "sequence": 4294967295
        }
      ],
      "vout": [
        {
          "value": 50.0,
          "n": 0,
          "scriptPubKey": {
            "asm": "04ae9ba827d2aac20e5e9aaaa53e3e877595473f4207126b28ed9368c906e23bdf770ca6c79d60697cf5d13324b5c9ff765b46057fed375b0c682770d23b4f0e10 OP_CHECKSIG",
            "desc": "pk(04ae9ba827d2aac20e5e9aaaa53e3e877595473f4207126b28ed9368c906e23bdf770ca6c79d60697cf5d13324b5c9ff765b46057fed375b0c682770d23b4f0e10)#9jxu9fj8",
            "hex": "4104ae9ba827d2aac20e5e9aaaa53e3e877595473f4207126b28ed9368c906e23bdf770ca6c79d60697cf5d13324b5c9ff765b46057fed375b0c682770d23b4f0e10ac",
            "type": "pubkey"
          }
        }
      ],
      "hex": "01000000010000000000000000000000000000000000000000000000000000000000000000ffffffff0804ffff001d02cb07ffffffff0100f2052a01000000434104ae9ba827d2aac20e5e9aaaa53e3e877595473f4207126b28ed9368c906e23bdf770ca6c79d60697cf5d13324b5c9ff765b46057fed375b0c682770d23b4f0e10ac00000000"
    }
  ]
}