{
  "hash": "000000003d8d831b6db7a57fa047c943d88b675823ddba026519f206dc6ec126",
  "confirmations": 47292,
  "height": 5806,
  "version": 1,
  "versionHex": "00000001",
  "merkleroot": "a0b4af452c328ec83c9e4201327d014bcad75c60113435995d6bda62409df498",
  "time": 1235763151,
  "mediantime": 1235760024,
  "nonce": 2675361287,
  "bits": "1d00ffff",
  "difficulty": 1,
  "chainwork": "000000000000000000000000000000000000000000000000000016af16af16af",
  "nTx": 1,
  "previousblockhash": "00000000e922de6979609935ff22b059f881788d8769348a3afa9770aaa28998",
  "nextblockhash": "00000000f93a7a7218adc73645cbb09bc6f06a8c9c4162e5b773296384deb556",
  "strippedsize": 216,
  "size": 216,
  "weight": 864,
  "tx": [
    {
      "txid": "a0b4af452c328ec83c9e4201327d014bcad75c60113435995d6bda62409df498",
      "hash": "a0b4af452c328ec83c9e4201327d014bcad75c60113435995d6bda62409df498",
      "version": 1,
      "size": 135,
      "vsize": 135,
      "weight": 540,
      "locktime": 0,
      "vin": [
        {
          "coinbase": "04ffff001d02cf00",
          "sequence": 4294967295
        }
      ],
      "vout": [
        {
          "value": 50.0,
          "n": 0,
          "scriptPubKey": {
            "asm": "04c1dfd9b30132215223c4f4cc947da49c4101c8182064ce361a0c99c89867121c2444501e127c636a5ed2d6da0c6e033ed7992b2846b0ae7f17302dcd48d21d47 OP_CHECKSIG",
            "desc": "pk(04c1dfd9b30132215223c4f4cc947da49c4101c8182064ce361a0c99c89867121c2444501e127c636a5ed2d6da0c6e033ed7992b2846b0ae7f17302dcd48d21d47)#zwcp6lvj",
            "hex": "4104c1dfd9b30132215223c4f4cc947da49c4101c8182064ce361a0c99c89867121c2444501e127c636a5ed2d6da0c6e033ed7992b2846b0ae7f17302dcd48d21d47ac",
            "type": "pubkey"
          }
        }
      ],
      "hex": "01000000010000000000000000000000000000000000000000000000000000000000000000ffffffff0804ffff001d02cf00ffffffff0100f2052a01000000434104c1dfd9b30132215223c4f4cc947da49c4101c8182064ce361a0c99c89867121c2444501e127c636a5ed2d6da0c6e033ed7992b2846b0ae7f17302dcd48d21d47ac00000000"
    }
  ]
}