{
  "hash": "00000000539376ba9a1b68e9b803ce7ae280bfbaa0eb62fc462126a6d07feec3",
  "confirmations": 52159,
  "height": 381,
  "version": 1,
  "versionHex": "00000001",
  "merkleroot": "253c15199bbf9b5f7138984b052be13fc59668030d049734792c7fd821e096ee",
  "time": 1231887806,
  "mediantime": 1231883994,
  "nonce": 3081686297,
  "bits": "1d00ffff",
  "difficulty": 1,
  "chainwork": "0000000000000000000000000000000000000000000000000000017e017e017e",
  "nTx": 1,
  "previousblockhash": "000000005c619c5a51f6bfeea9029520d1e05befb6129795e9cb122efd8f4dc8",
  "nextblockhash": "0000000018844c2a38f9ff9e018ba5ef9e02780b8d6fe3ce63fd4a6136633ed7",
  "strippedsize": 216,
  "size": 216,
  "weight": 864,
  "tx": [
    {
      "txid": "253c15199bbf9b5f7138984b052be13fc59668030d049734792c7fd821e096ee",
      "hash": "253c15199bbf9b5f7138984b052be13fc59668030d049734792c7fd821e096ee",
      "version": 1,
      "size": 135,
      "vsize": 135,
      "weight": 540,
      "locktime": 0,
      "vin": [
        {
          "coinbase": "04ffff001d021502",
          "sequence": 4294967295
        }
      ],
      "vout": [
        {
          "value": 50.0,
          "n": 0,
          "scriptPubKey": {
            "asm": "0421881aa1203269520705845a60a3ae05fb04f0119c476a6fdd4a4957d85060b6282c838c5108f3f461a844207c567338ff7a1018d7161086386b694318638a57 OP_CHECKSIG",
            "desc": "pk(0421881aa1203269520705845a60a3ae05fb04f0119c476a6fdd4a4957d85060b6282c838c5108f3f461a844207c567338ff7a1018d7161086386b694318638a57)#7g8t6kdl",
            "hex": "410421881aa1203269520705845a60a3ae05fb04f0119c476a6fdd4a4957d85060b6282c838c5108f3f461a844207c567338ff7a1018d7161086386b694318638a57ac",
            "type": "pubkey"
          }
        }
      ],
      "hex": "01000000010000000000000000000000000000000000000000000000000000000000000000ffffffff0804ffff001d021502ffffffff0100f2052a0100000043410421881aa1203269520705845a60a3ae05fb04f0119c476a6fdd4a4957d85060b6282c838c5108f3f461a844207c567338ff7a1018d7161086386b694318638a57ac00000000"
    }
  ]
}