{
  "hash": "000000008b0cde449f5fb47eff545764f75872783ee24ab4f636810c3b60a45d",
  "confirmations": 44103,
  "height": 8995,
  "version": 1,
  "versionHex": "00000001",
  "merkleroot": "c07ccd0293c9c527d512f62d4866648a7867d44c7c88836f2620036df02ab72d",
  "time": 1238249149,
  "mediantime": 1238245579,
  "nonce": 83315847,
  "bits": "1d00ffff",
  "difficulty": 1,
  "chainwork": "0000000000000000000000000000000000000000000000000000232423242324",
  "nTx": 1,
  "previousblockhash": "00000000fb00a6ee85e96ed7418fce94d36a4b616914f6e5a1fb80d9ff88b8a9",
  "nextblockhash": "00000000c411dcc4a6b2bdaa4a8678eee208926f25824237e9470dab80073b1f",
  "strippedsize": 216,
  "size": 216,
  "weight": 864,
  "tx": [
    {
      "txid": "c07ccd0293c9c527d512f62d4866648a7867d44c7c88836f2620036df02ab72d",
      "hash": "c07ccd0293c9c527d512f62d4866648a7867d44c7c88836f2620036df02ab72d",
      "version": 1,
      "size": 135,
      "vsize": 135,
      "weight": 540,
      "locktime": 0,
      "vin": [
        {
          "coinbase": "04ffff001d028707",
          "sequence": 4294967295
        }
      ],
      "vout": [
        {
          "value": 50.0,
          "n": 0,
          "scriptPubKey": {
            "asm": "0481769848c2f98662b74c224aa5abf895c04e112f3c27b349e05f4f80e036c1c35be80a2b93b4063e2fadfea6d7e0e8e39bf1ae73e6056c27607d514e8d386c07 OP_CHECKSIG",
            "desc": "pk(0481769848c2f98662b74c224aa5abf895c04e112f3c27b349e05f4f80e036c1c35be80a2b93b4063e2fadfea6d7e0e8e39bf1ae73e6056c27607d514e8d386c07)#22m87rlx",
            "hex": "410481769848c2f98662b74c224aa5abf895c04e112f3c27b349e05f4f80e036c1c35be80a2b93b4063e2fadfea6d7e0e8e39bf1ae73e6056c27607d514e8d386c07ac",
            "type": "pubkey"
          }
        }
      ],
      "hex": "01000000010000000000000000000000000000000000000000000000000000000000000000ffffffff0804ffff001d028707ffffffff0100f2052a0100000043410481769848c2f98662b74c224aa5abf895c04e112f3c27b349e05f4f80e036c1c35be80a2b93b4063e2fadfea6d7e0e8e39bf1ae73e6056c27607d514e8d386c07ac00000000"
    }
  ]
}