{
  "hash": "00000000d9ca6945382bc8f245dfe7156bc94bdf5b96ca2e6d7d09d5555eefc7",
  "confirmations": 45364,
  "height": 7734,
  "version": 1,
  "versionHex": "00000001",
  "merkleroot": "d370633225b491b7febf6b82e5bfd8119023759672b8a503fb86359bcf507685",
  "time": 1237264800,
  "mediantime": 1237260272,
  "nonce": 2836240151,
  "bits": "1d00ffff",
  "difficulty": 1,
  "chainwork": "00000000000000000000000000000000000000000000000000001e371e371e37",
  "nTx": 1,
  "previousblockhash": "000000000461fcde538569a5d992692266bc503c83df1559d11d9e55854f9980",
  "nextblockhash": "00000000077aacf66d52b356e57edbcb25f9b8054bacf61324d83b0a34e83d1b",
  "strippedsize": 216,
  "size": 216,
  "weight": 864,
  "tx": [
    {
      "txid": "d370633225b491b7febf6b82e5bfd8119023759672b8a503fb86359bcf507685",
      "hash": "d370633225b491b7febf6b82e5bfd8119023759672b8a503fb86359bcf507685",
      "version": 1,
      "size": 135,
      "vsize": 135,
      "weight": 540,
      "locktime": 0,
      "vin": [
        {
          "coinbase": "04ffff001d02cf04",
          "sequence": 4294967295
        }
      ],
      "vout": [
        {
          "value": 50.0,
          "n": 0,
          "scriptPubKey": {
            "asm": "04be13d086cf513f76b0c21d0f930b7f32935b015bced17f7c2f19b7c1c79ef5e0414b6fa7ff9542b4d2c6739b1ea998ec369c79c7bf9c38898b21d62a58a065de OP_CHECKSIG",
            "desc": "pk(04be13d086cf513f76b0c21d0f930b7f32935b015bced17f7c2f19b7c1c79ef5e0414b6fa7ff9542b4d2c6739b1ea998ec369c79c7bf9c38898b21d62a58a065de)#z2ndf5n8",
            "hex": "4104be13d086cf513f76b0c21d0f930b7f32935b015bced17f7c2f19b7c1c79ef5e0414b6fa7ff9542b4d2c6739b1ea998ec369c79c7bf9c38898b21d62a58a065deac",
            "type": "pubkey"
          }
        }
      ],
      "hex": "01000000010000000000000000000000000000000000000000000000000000000000000000ffffffff0804ffff001d02cf04ffffffff0100f2052a01000000434104be13d086cf513f76b0c21d0f930b7f32935b015bced17f7c2f19b7c1c79ef5e0414b6fa7ff9542b4d2c6739b1ea998ec369c79c7bf9c38898b21d62a58a065deac00000000"
    }
  ]
}