{
  "hash": "00000000a893fa1871e9a349309b47a9fd30520eff9605d52d981419cc210884",
  "confirmations": 52497,
  "height": 601,
  "version": 1,
  "versionHex": "00000001",
  "merkleroot": "7eacb4a7417f13315e0cd548b54b2c3a57605e930b55a7e385bd8aff35b20229",
  "time": 1232039247,
  "mediantime": 1232036500,
  "nonce": 3965866537,
  "bits": "1d00ffff",
  "difficulty": 1,
  "chainwork": "0000000000000000000000000000000000000000000000000000025a025a025a",
  "nTx": 1,
  "previousblockhash": "00000000c7f956a913bbef9c94f517c318805821b59ea6227175f3841792ea88",
  "nextblockhash": "00000000484bd8ea4a2a306a2b5ff8d6a3529df0097237183a9924d1d1a8073b",
  "strippedsize": 216,
  "size": 216,
  "weight": 864,
  "tx": [
    {
      "txid": "7eacb4a7417f13315e0cd548b54b2c3a57605e930b55a7e385bd8aff35b20229",
      "hash": "7eacb4a7417f13315e0cd548b54b2c3a57605e930b55a7e385bd8aff35b20229",
      "version": 1,
      "size": 135,
      "vsize": 135,
      "weight": 540,
      "locktime": 0,
      "vin": [
        {
          "coinbase": "04ffff001d02b106",
          "sequence": 4294967295
        }
      ],
      "vout": [
        {
          "value": 50.0,
          "n": 0,
          "scriptPubKey": {
            "asm": "04ca897d746f37f7ec7ed7f5fbfc93ae1ff7ca1f786b65dd27f19ae99f880bcb88a60fd6d28c41c21cc9b0e9b52dcd6be33d19d6df6c9d0cd5a0af2c070463fb30 OP_CHECKSIG",
            "desc": "pk(04ca897d746f37f7ec7ed7f5fbfc93ae1ff7ca1f786b65dd27f19ae99f880bcb88a60fd6d28c41c21cc9b0e9b52dcd6be33d19d6df6c9d0cd5a0af2c070463fb30)#4lrh3fus",
            "hex": "4104ca897d746f37f7ec7ed7f5fbfc93ae1ff7ca1f786b65dd27f19ae99f880bcb88a60fd6d28c41c21cc9b0e9b52dcd6be33d19d6df6c9d0cd5a0af2c070463fb30ac",
            "type": "pubkey"
          }
        }
      ],
      "hex": "01000000010000000000000000000000000000000000000000000000000000000000000000ffffffff0804ffff001d02b106ffffffff0100f2052a01000000434104ca897d746f37f7ec7ed7f5fbfc93ae1ff7ca1f786b65dd27f19ae99f880bcb88a60fd6d28c41c21cc9b0e9b52dcd6be33d19d6df6c9d0cd5a0af2c070463fb30ac00000000"
    }
  ]
}