{
  "hash": "000000007dc0a044ed2d3950071f69dce1ac6e75c14a9b9638cc773e098c56a3",
  "confirmations": 44895,
  "height": 8203,
  "version": 1,
  "versionHex": "00000001",
  "merkleroot": "a848d7557e1f9aa80815ff3ab3e90cf0bee5f74175f01762d25f3c04aa11f166",
  "time": 1237607859,
  "mediantime": 1237605024,
  "nonce": 77548444,
  "bits": "1d00ffff",
  "difficulty": 1,
  "chainwork": "0000000000000000000000000000000000000000000000000000200c200c200c",
  "nTx": 1,
  "previousblockhash": "000000006b07b6b1e5cdb6252af5fa9b86f3f32b5e173b1b200db5673b2165cf",
  "nextblockhash": "00000000eb861b5b31f7d3cc12d2ab03a9c3896ee3102361db41d426cd23f183",
  "strippedsize": 216,
  "size": 216,
  "weight": 864,
  "tx": [
    {
      "txid": "a848d7557e1f9aa80815ff3ab3e90cf0bee5f74175f01762d25f3c04aa11f166",
      "hash": "a848d7557e1f9aa80815ff3ab3e90cf0bee5f74175f01762d25f3c04aa11f166",
      "version": 1,
      "size": 135,
      "vsize": 135,
      "weight": 540,
      "locktime": 0,
      "vin": [
        {
          "coinbase": "04ffff001d027204",
          "sequence": 4294967295
        }
      ],
      "vout": [
        {
          "value": 50.0,
          "n": 0,
          "scriptPubKey": {
            "asm": "041d0a79e65f8bc1eaeba6e16cc00aeaf47e2ecd4372c56de7b637ed7bcd29ebc30e972936a8cfc7c4de81baa27621aae4d47ba843d48fce05339b3febdaae1235 OP_CHECKSIG",
            "desc": "pk(041d0a79e65f8bc1eaeba6e16cc00aeaf47e2ecd4372c56de7b637ed7bcd29ebc30e972936a8cfc7c4de81baa27621aae4d47ba843d48fce05339b3febdaae1235)#3gyzu46p",
            "hex": "41041d0a79e65f8bc1eaeba6e16cc00aeaf47e2ecd4372c56de7b637ed7bcd29ebc30e972936a8cfc7c4de81baa27621aae4d47ba843d48fce05339b3febdaae1235ac",
            "type": "pubkey"
          }
        }
      ],
      "hex": "01000000010000000000000000000000000000000000000000000000000000000000000000ffffffff0804ffff001d027204ffffffff0100f2052a010000004341041d0a79e65f8bc1eaeba6e16cc00aeaf47e2ecd4372c56de7b637ed7bcd29ebc30e972936a8cfc7c4de81baa27621aae4d47ba843d48fce05339b3febdaae1235ac00000000"
    }
  ]
}