{
  "hash": "00000000ca1733a80ecf7dfb7a526faefb5855ec69f98ff09115cf068bdf0a58",
  "confirmations": 46256,
  "height": 6842,
  "version": 1,
  "versionHex": "00000001",
  "merkleroot": "d04ab5436d7ae7bd75ec4ef457429cb4b3fa155b94edd6dd24b30fe03b84260b",
  "time": 1236587348,
  "mediantime": 1236583905,
  "nonce": 3677502264,
  "bits": "1d00ffff",
  "difficulty": 1,
  "chainwork": "00000000000000000000000000000000000000000000000000001abb1abb1abb",
  "nTx": 1,
  "previousblockhash": "00000000853193b088e2e1fb3d6b74bc4d6ef3723401a769fe03603b193684b1",
  "nextblockhash": "000000002c08f02f6614a435147dee4a1b1ab252c5273d1df4ed9cac07a19fc7",
  "strippedsize": 216,
  "size": 216,
  "weight": 864,
  "tx": [
    {
      "txid": "d04ab5436d7ae7bd75ec4ef457429cb4b3fa155b94edd6dd24b30fe03b84260b",
      "hash": "d04ab5436d7ae7bd75ec4ef457429cb4b3fa155b94edd6dd24b30fe03b84260b",
      "version": 1,
      "size": 135,
      "vsize": 135,
      "weight": 540,
      "locktime": 0,
      "vin": [
        {
          "coinbase": "04ffff001d028a09",
          "sequence": 4294967295
        }
      ],
      "vout": [
        {
          "value": 50.0,
          "n": 0,
          "scriptPubKey": {
            "asm": "04ed944c9a83aefcf4a03c23fa2491dba6b227f82823465c8c1c47e26882a575a0cabc368c2cfbcf82be1f04a86b227821551728a0dbf04038c9bfa5fe654ab9aa OP_CHECKSIG",
            "desc": "pk(04ed944c9a83aefcf4a03c23fa2491dba6b227f82823465c8c1c47e26882a575a0cabc368c2cfbcf82be1f04a86b227821551728a0dbf04038c9bfa5fe654ab9aa)#qqmuh72z",
            "hex": "4104ed944c9a83aefcf4a03c23fa2491dba6b227f82823465c8c1c47e26882a575a0cabc368c2cfbcf82be1f04a86b227821551728a0dbf04038c9bfa5fe654ab9aaac",
            "type": "pubkey"
          }
        }
      ],
      "hex": "01000000010000000000000000000000000000000000000000000000000000000000000000ffffffff0804ffff001d028a09ffffffff0100f2052a01000000434104ed944c9a83aefcf4a03c23fa2491dba6b227f82823465c8c1c47e26882a575a0cabc368c2cfbcf82be1f04a86b227821551728a0dbf04038c9bfa5fe654ab9aaac00000000"
    }
  ]
}