{
  "hash": "0000000031fd90c9cb5be9db548a1767c9d3ceddebf9563f4791b858165d318e",
  "confirmations": 50906,
  "height": 2192,
  "version": 1,
  "versionHex": "00000001",
  "merkleroot": "8716603ad9f544f63a5b5e776df6ae2a3da40e0e44f3f77ec2a2f41e6f11e2dc",
  "time": 1233208978,
  "mediantime": 1233205135,
  "nonce": 1306397190,
  "bits": "1d00ffff",
  "difficulty": 1,
  "chainwork": "0000000000000000000000000000000000000000000000000000089108910891",
  "nTx": 1,
  "previousblockhash": "000000003cbf89153b0526e193ed74e5489a98c0b72f974d71c255425861eea4",
  "nextblockhash": "00000000374a6102801382307c41f9ddb11e089d9a3362a96a84fd849cd51ada",
  "strippedsize": 215,
  "size": 215,
  "weight": 860,
  "tx": [
    {
      "txid": "8716603ad9f544f63a5b5e776df6ae2a3da40e0e44f3f77ec2a2f41e6f11e2dc",
      "hash": "8716603ad9f544f63a5b5e776df6ae2a3da40e0e44f3f77ec2a2f41e6f11e2dc",
      "version": 1,
      "size": 134,
      "vsize": 134,
      "weight": 536,
      "locktime": 0,
      "vin": [
        {
          "coinbase": "04ffff001d0128",
          "sequence": 4294967295
        }
      ],
      "vout": [
        {
          "value": 50.0,
          "n": 0,
          "scriptPubKey": {
            "asm": "04b12074c923cebcd9a128fb61cc8dc704a48976612e1b45ca93f462c6cad6d41d3e3f27a4ee9aa865f7ccd89d61bdf7803a9e42e81f41045c8a01effa2c6d0480 OP_CHECKSIG",
            "desc": "pk(04b12074c923cebcd9a128fb61cc8dc704a48976612e1b45ca93f462c6cad6d41d3e3f27a4ee9aa865f7ccd89d61bdf7803a9e42e81f41045c8a01effa2c6d0480)#2p6e98jh",
            "hex": "4104b12074c923cebcd9a128fb61cc8dc704a48976612e1b45ca93f462c6cad6d41d3e3f27a4ee9aa865f7ccd89d61bdf7803a9e42e81f41045c8a01effa2c6d0480ac",
            "type": "pubkey"
          }
        }
      ],
      "hex": "01000000010000000000000000000000000000000000000000000000000000000000000000ffffffff0704ffff001d0128ffffffff0100f2052a01000000434104b12074c923cebcd9a128fb61cc8dc704a48976612e1b45ca93f462c6cad6d41d3e3f27a4ee9aa865f7ccd89d61bdf7803a9e42e81f41045c8a01effa2c6d0480ac00000000"
    }
  ]
}