{
  "hash": "0000000097af7bc4e7c62e316c7288ed6b37e7083ebd6209f17e5de60dfa98b1",
  "confirmations": 48100,
  "height": 4998,
  "version": 1,
  "versionHex": "00000001",
  "merkleroot": "6a0c31fb49863064f564546e66b5fb773b01ddf3218801c6daac0f1d691d58aa",
  "time": 1235134590,
  "mediantime": 1235132709,
  "nonce": 38166819,
  "bits": "1d00ffff",
  "difficulty": 1,
  "chainwork": "0000000000000000000000000000000000000000000000000000138713871387",
  "nTx": 1,
  "previousblockhash": "0000000076a2ce70e7323a4f3ccae9302d0bd4452a0f164767cc872e70238acd",
  "nextblockhash": "00000000c9a61ea18fbf06b03e10033355e6eab3de038d975f40af9babbe0658",
  "strippedsize": 215,
  "size": 215,
  "weight": 860,
  "tx": [
    {
      "txid": "6a0c31fb49863064f564546e66b5fb773b01ddf3218801c6daac0f1d691d58aa",
      "hash": "6a0c31fb49863064f564546e66b5fb773b01ddf3218801c6daac0f1d691d58aa",
      "version": 1,
      "size": 134,
      "vsize": 134,
      "weight": 536,
      "locktime": 0,
      "vin": [
        {
          "coinbase": "04ffff001d0150",
          "sequence": 4294967295
        }
      ],
      "vout": [
        {
          "value": 50.0,
          "n": 0,
          "scriptPubKey": {
            "asm": "0412a4f83186a457ec7af04b7e1e21bce6870e24965cf55cc8157801faf37c681115e13cf52643e0dcdeb6d29545987f4d2df72b4ff96aec55a28d4773caa40b40 OP_CHECKSIG",
            "desc": "pk(0412a4f83186a457ec7af04b7e1e21bce6870e24965cf55cc8157801faf37c681115e13cf52643e0dcdeb6d29545987f4d2df72b4ff96aec55a28d4773caa40b40)#460226k4",
            "hex": "410412a4f83186a457ec7af04b7e1e21bce6870e24965cf55cc8157801faf37c681115e13cf52643e0dcdeb6d29545987f4d2df72b4ff96aec55a28d4773caa40b40ac",
            "type": "pubkey"
          }
        }
      ],
      "hex": "01000000010000000000000000000000000000000000000000000000000000000000000000ffffffff0704ffff001d0150ffffffff0100f2052a0100000043410412a4f83186a457ec7af04b7e1e21bce6870e24965cf55cc8157801faf37c681115e13cf52643e0dcdeb6d29545987f4d2df72b4ff96aec55a28d4773caa40b40ac00000000"
    }
  ]
}