{
  "hash": "0000000072af7bcb74e7756770bc1f526a9c82500fadecd0261a25babe8583f4",
  "confirmations": 51461,
  "height": 1637,
  "version": 1,
  "versionHex": "00000001",
  "merkleroot": "47fc380781e008ecdc79775f6869933d05d87b8d8e39edbf55a6c27827a338b1",
  "time": 1232827014,
  "mediantime": 1232824705,
  "nonce": 220395044,
  "bits": "1d00ffff",
  "difficulty": 1,
  "chainwork": "0000000000000000000000000000000000000000000000000000066606660666",
  "nTx": 1,
  "previousblockhash": "00000000be752294d937ba5fe0ee228b01bf5b11e26691e44a6a3cfb50fe1018",
  "nextblockhash": "0000000015668111ed6b058329318b4077bf91d2c3fd330731372917bb795db9",
  "strippedsize": 216,
  "size": 216,
  "weight": 864,
  "tx": [
    {
      "txid": "47fc380781e008ecdc79775f6869933d05d87b8d8e39edbf55a6c27827a338b1",
      "hash": "47fc380781e008ecdc79775f6869933d05d87b8d8e39edbf55a6c27827a338b1",
      "version": 1,
      "size": 135,
      "vsize": 135,
      "weight": 540,
      "locktime": 0,
      "vin": [
        {
          "coinbase": "04ffff001d028002",
          "sequence": 4294967295
        }
      ],
      "vout": [
        {
          "value": 50.0,
          "n": 0,
          "scriptPubKey": {
            "asm": "04f9ab75e35708567bb230010dbfec868bba85d7eaaca8766d3c0f61dc4722ea75cc77024b3f8eb65ac9c915fe8ba8e7292546702305e3f1998b8e4901d5c4d902 OP_CHECKSIG",
            "desc": "pk(04f9ab75e35708567bb230010dbfec868bba85d7eaaca8766d3c0f61dc4722ea75cc77024b3f8eb65ac9c915fe8ba8e7292546702305e3f1998b8e4901d5c4d902)#mx8m4pqt",
            "hex": "4104f9ab75e35708567bb230010dbfec868bba85d7eaaca8766d3c0f61dc4722ea75cc77024b3f8eb65ac9c915fe8ba8e7292546702305e3f1998b8e4901d5c4d902ac",
            "type": "pubkey"
          }
        }
      ],
      "hex": "01000000010000000000000000000000000000000000000000000000000000000000000000ffffffff0804ffff001d028002ffffffff0100f2052a01000000434104f9ab75e35708567bb230010dbfec868bba85d7eaaca8766d3c0f61dc4722ea75cc77024b3f8eb65ac9c915fe8ba8e7292546702305e3f1998b8e4901d5c4d902ac00000000"
    }
  ]
}