{
  "hash": "0000000019c1d965032c1dc22f8a3ba3ab94cfeafd3b52a09f032de06b047dcb",
  "confirmations": 52459,
  "height": 639,
  "version": 1,
  "versionHex": "00000001",
  "merkleroot": "cb082e975e3b39b1564f3d063aa3a70fb057886f2b62e98f146cecb67de56cb6",
  "time": 1232062277,
  "mediantime": 1232058407,
  "nonce": 2555948801,
  "bits": "1d00ffff",
  "difficulty": 1,
  "chainwork": "0000000000000000000000000000000000000000000000000000028002800280",
  "nTx": 1,
  "previousblockhash": "00000000b1ee19529a7c3b4b5ad198a4103404802ceb1f7161e67c1b7bfb755e",
  "nextblockhash": "0000000010e9b57889d2eb77bb99a44cf06e1a80d0b1d18cc599bd472b335bcc",
  "strippedsize": 216,
  "size": 216,
  "weight": 864,
  "tx": [
    {
      "txid": "cb082e975e3b39b1564f3d063aa3a70fb057886f2b62e98f146cecb67de56cb6",
      "hash": "cb082e975e3b39b1564f3d063aa3a70fb057886f2b62e98f146cecb67de56cb6",
      "version": 1,
      "size": 135,
      "vsize": 135,
      "weight": 540,
      "locktime": 0,
      "vin": [
        {
          "coinbase": "04ffff001d024307",
          "sequence": 4294967295
        }
      ],
      "vout": [
        {
          "value": 50.0,
          "n": 0,
          "scriptPubKey": {
            "asm": "042a3722ec6b335bc88265a25ab3c0c1f8ddfd37f349486c63c979ee15e8c3301afb05a5c44f62b8d44a2d352c7a97f0bc80037dc205d3792539240f055ed7408f OP_CHECKSIG",
            "desc": "pk(042a3722ec6b335bc88265a25ab3c0c1f8ddfd37f349486c63c979ee15e8c3301afb05a5c44f62b8d44a2d352c7a97f0bc80037dc205d3792539240f055ed7408f)#w5gzyktz",
            "hex": "41042a3722ec6b335bc88265a25ab3c0c1f8ddfd37f349486c63c979ee15e8c3301afb05a5c44f62b8d44a2d352c7a97f0bc80037dc205d3792539240f055ed7408fac",
            "type": "pubkey"
          }
        }
      ],
      "hex": "01000000010000000000000000000000000000000000000000000000000000000000000000ffffffff0804ffff001d024307ffffffff0100f2052a010000004341042a3722ec6b335bc88265a25ab3c0c1f8ddfd37f349486c63c979ee15e8c3301afb05a5c44f62b8d44a2d352c7a97f0bc80037dc205d3792539240f055ed7408fac00000000"
    }
  ]
}