{
  "hash": "00000000f334596d5afdb4b5ee5fb6974718f1d94160e57a10c4db598144b808",
  "confirmations": 52204,
  "height": 417,
  "version": 1,
  "versionHex": "00000001",
  "merkleroot": "193b51cd0c5a44bf6593e69fea91e9ddd311f610c5c23187552e3347b275b81b",
  "time": 1231913658,
  "mediantime": 1231910935,
  "nonce": 65314788,
  "bits": "1d00ffff",
  "difficulty": 1,
  "chainwork": "000000000000000000000000000000000000000000000000000001a201a201a2",
  "nTx": 1,
  "previousblockhash": "00000000accb9001c11866848a686bc3f2c42111cbcf2ee52cc5f5c7fcac508f",
  "nextblockhash": "000000003255163ea0bf1f01d5f559727ae71685d261baca156e2cd3c6e9e0f2",
  "strippedsize": 216,
  "size": 216,
  "weight": 864,
  "tx": [
    {
      "txid": "193b51cd0c5a44bf6593e69fea91e9ddd311f610c5c23187552e3347b275b81b",
      "hash": "193b51cd0c5a44bf6593e69fea91e9ddd311f610c5c23187552e3347b275b81b",
      "version": 1,
      "size": 135,
      "vsize": 135,
      "weight": 540,
      "locktime": 0,
      "vin": [
        {
          "coinbase": "04ffff001d028400",
          "sequence": 4294967295
        }
      ],
      "vout": [
        {
          "value": 50.0,
          "n": 0,
          "scriptPubKey": {
            "asm": "04bdd1fc7fd5a9d3850a1c149f3fb1cd69b98c1496375abe2ac000e5ee76e8f209f7205950b014541a3fbafbe92158df4dd36df917ec93f79c64ed3485b0c8b57a OP_CHECKSIG",
            "desc": "pk(04bdd1fc7fd5a9d3850a1c149f3fb1cd69b98c1496375abe2ac000e5ee76e8f209f7205950b014541a3fbafbe92158df4dd36df917ec93f79c64ed3485b0c8b57a)#7kpnnj79",
            "hex": "4104bdd1fc7fd5a9d3850a1c149f3fb1cd69b98c1496375abe2ac000e5ee76e8f209f7205950b014541a3fbafbe92158df4dd36df917ec93f79c64ed3485b0c8b57aac",
            "type": "pubkey"
          }
        }
      ],
      "hex": "01000000010000000000000000000000000000000000000000000000000000000000000000ffffffff0804ffff001d028400ffffffff0100f2052a01000000434104bdd1fc7fd5a9d3850a1c149f3fb1cd69b98c1496375abe2ac000e5ee76e8f209f7205950b014541a3fbafbe92158df4dd36df917ec93f79c64ed3485b0c8b57aac00000000"
    }
  ]
}