{
  "hash": "00000000c74f21f764aabc6088501fed78b47dacdd6adf13afb5cc756aff6162",
  "confirmations": 47964,
  "height": 5134,
  "version": 1,
  "versionHex": "00000001",
  "merkleroot": "233159e7477e0d2cfcbe195fbc0166e71872dc45d5c0bdbeaa58404eeba8a146",
  "time": 1235240432,
  "mediantime": 1235237464,
  "nonce": 1680412719,
  "bits": "1d00ffff",
  "difficulty": 1,
  "chainwork": "0000000000000000000000000000000000000000000000000000140f140f140f",
  "nTx": 1,
  "previousblockhash": "00000000145406f7d62b54cf17a406fc3ae654516c3d581e4b55a301b060a82a",
  "nextblockhash": "00000000fbeae012f28497609cf08e838a99797c2f151c11ea6af623914d0879",
  "strippedsize": 216,
  "size": 216,
  "weight": 864,
  "tx": [
    {
      "txid": "233159e7477e0d2cfcbe195fbc0166e71872dc45d5c0bdbeaa58404eeba8a146",
      "hash": "233159e7477e0d2cfcbe195fbc0166e71872dc45d5c0bdbeaa58404eeba8a146",
      "version": 1,
      "size": 135,
      "vsize": 135,
      "weight": 540,
      "locktime": 0,
      "vin": [
        {
          "coinbase": "04ffff001d02a209",
          "sequence": 4294967295
        }
      ],
      "vout": [
        {
          "value": 50.0,
          "n": 0,
          "scriptPubKey": {
            "asm": "04d6ef2fd4ed0b3d1fd0d7fc5d0ee2b6cc498722254bf6f5a61c31cd8835faa4b8421f7eac7d87d9a86bef0cfe26510e1e33498eb1a28b87476f8c1e33e434fd9e OP_CHECKSIG",
            "desc": "pk(04d6ef2fd4ed0b3d1fd0d7fc5d0ee2b6cc498722254bf6f5a61c31cd8835faa4b8421f7eac7d87d9a86bef0cfe26510e1e33498eb1a28b87476f8c1e33e434fd9e)#4ehruemw",
            "hex": "4104d6ef2fd4ed0b3d1fd0d7fc5d0ee2b6cc498722254bf6f5a61c31cd8835faa4b8421f7eac7d87d9a86bef0cfe26510e1e33498eb1a28b87476f8c1e33e434fd9eac",
            "type": "pubkey"
          }
        }
      ],
      "hex": "01000000010000000000000000000000000000000000000000000000000000000000000000ffffffff0804ffff001d02a209ffffffff0100f2052a01000000434104d6ef2fd4ed0b3d1fd0d7fc5d0ee2b6cc498722254bf6f5a61c31cd8835faa4b8421f7eac7d87d9a86bef0cfe26510e1e33498eb1a28b87476f8c1e33e434fd9eac00000000"
    }
  ]
}