{
  "hash": "00000000e2a77c0f42ed41ebbe18a40cebd8b2b473d31de6ce098f2d0e608bef",
  "confirmations": 51558,
  "height": 1540,
  "version": 1,
  "versionHex": "00000001",
  "merkleroot": "637edba34b2668e5fb9e45e6e232f3d5d2961ca02d8519398d04e3d4521a562f",
  "time": 1232784389,
  "mediantime": 1232782275,
  "nonce": 3969507614,
  "bits": "1d00ffff",
  "difficulty": 1,
  "chainwork": "0000000000000000000000000000000000000000000000000000060506050605",
  "nTx": 1,
  "previousblockhash": "00000000de0af0d9501ffad632b2302d22cab8b0f21526a81151ea04eb29c26f",
  "nextblockhash": "00000000d2b9d5dbe0ce0c18739a9e237438db82d98b98c9449dc3d4ab2994e3",
  "strippedsize": 216,
  "size": 216,
  "weight": 864,
  "tx": [
    {
      "txid": "637edba34b2668e5fb9e45e6e232f3d5d2961ca02d8519398d04e3d4521a562f",
      "hash": "637edba34b2668e5fb9e45e6e232f3d5d2961ca02d8519398d04e3d4521a562f",
      "version": 1,
      "size": 135,
      "vsize": 135,
      "weight": 540,
      "locktime": 0,
      "vin": [
        {
          "coinbase": "04ffff001d027d01",
          "sequence": 4294967295
        }
      ],
      "vout": [
        {
          "value": 50.0,
          "n": 0,
          "scriptPubKey": {
            "asm": "04f8a244b7d7154d01f8012375940c6de4a372a39bdaff15546efe14e6ff6d570e31a0d080279c56f7dbd8281c1916ac6ca4d3d8084806f950d133a1499e17e33c OP_CHECKSIG",
            "desc": "pk(04f8a244b7d7154d01f8012375940c6de4a372a39bdaff15546efe14e6ff6d570e31a0d080279c56f7dbd8281c1916ac6ca4d3d8084806f950d133a1499e17e33c)#llanw39x",
            "hex": "4104f8a244b7d7154d01f8012375940c6de4a372a39bdaff15546efe14e6ff6d570e31a0d080279c56f7dbd8281c1916ac6ca4d3d8084806f950d133a1499e17e33cac",
            "type": "pubkey"
          }
        }
      ],
      "hex": "01000000010000000000000000000000000000000000000000000000000000000000000000ffffffff0804ffff001d027d01ffffffff0100f2052a01000000434104f8a244b7d7154d01f8012375940c6de4a372a39bdaff15546efe14e6ff6d570e31a0d080279c56f7dbd8281c1916ac6ca4d3d8084806f950d133a1499e17e33cac00000000"
    }
  ]
}