{
  "hash": "00000000374e7db9c24a29cc9aadd38f39be6a05250e4abc44b29ee5074353a0",
  "confirmations": 43943,
  "height": 9155,
  "version": 1,
  "versionHex": "00000001",
  "merkleroot": "8a4c8416c7bf26b3ddaa99b4a78c1d0f160ff19fe8833afcb98501c59623acde",
  "time": 1238369437,
  "mediantime": 1238367306,
  "nonce": 6900651,
  "bits": "1d00ffff",
  "difficulty": 1,
  "chainwork": "000000000000000000000000000000000000000000000000000023c423c423c4",
  "nTx": 1,
  "previousblockhash": "00000000b9370f6cc868c0810a3c651921e3557c041a8dd45504ee87d0534f6b",
  "nextblockhash": "0000000068a5af2e667e5a1f70c6843abfcbee2a2fef692d8ac42011e1520179",
  "strippedsize": 216,
  "size": 216,
  "weight": 864,
  "tx": [
    {
      "txid": "8a4c8416c7bf26b3ddaa99b4a78c1d0f160ff19fe8833afcb98501c59623acde",
      "hash": "8a4c8416c7bf26b3ddaa99b4a78c1d0f160ff19fe8833afcb98501c59623acde",
      "version": 1,
      "size": 135,
      "vsize": 135,
      "weight": 540,
      "locktime": 0,
      "vin": [
        {
          "coinbase": "04ffff001d022a08",
          "sequence": 4294967295
        }
      ],
      "vout": [
        {
          "value": 50.0,
          "n": 0,
          "scriptPubKey": {
            "asm": "04f24fcbb3e6833a7f215648ec3420a0451a388b1b06fdb31aa6235aa0d423fe3ee3e47d074a110fefcb8d67db6dd1b10f775c9e2a1ffd3a44b9263535954f99ed OP_CHECKSIG",
            "desc": "pk(04f24fcbb3e6833a7f215648ec3420a0451a388b1b06fdb31aa6235aa0d423fe3ee3e47d074a110fefcb8d67db6dd1b10f775c9e2a1ffd3a44b9263535954f99ed)#r3kv2sfx",
            "hex": "4104f24fcbb3e6833a7f215648ec3420a0451a388b1b06fdb31aa6235aa0d423fe3ee3e47d074a110fefcb8d67db6dd1b10f775c9e2a1ffd3a44b9263535954f99edac",
            "type": "pubkey"
          }
        }
      ],
      "hex": "01000000010000000000000000000000000000000000000000000000000000000000000000ffffffff0804ffff001d022a08ffffffff0100f2052a01000000434104f24fcbb3e6833a7f215648ec3420a0451a388b1b06fdb31aa6235aa0d423fe3ee3e47d074a110fefcb8d67db6dd1b10f775c9e2a1ffd3a44b9263535954f99edac00000000"
    }
  ]
}