{
  "hash": "00000000be3d49138ffadc146173b21c3b9f4fd3225617a4656873b2ed4a4cdd",
  "confirmations": 51214,
  "height": 1884,
  "version": 1,
  "versionHex": "00000001",
  "merkleroot": "27a99e0addd30a165cb5322585d60d9956e8f5342141ee5d69f68c01fbdd46e3",
  "time": 1232938161,
  "mediantime": 1232934584,
  "nonce": 3028350490,
  "bits": "1d00ffff",
  "difficulty": 1,
  "chainwork": "0000000000000000000000000000000000000000000000000000075d075d075d",
  "nTx": 1,
  "previousblockhash": "00000000feeb0d4b6494e4ccd20aef37fb9d93fb45a1feee644c2aaa33ebda4a",
  "nextblockhash": "000000006a7e674aa8851c0821d246124b62afcbc224c493a3e898d0618dfa52",
  "strippedsize": 216,
  "size": 216,
  "weight": 864,
  "tx": [
    {
      "txid": "27a99e0addd30a165cb5322585d60d9956e8f5342141ee5d69f68c01fbdd46e3",
      "hash": "27a99e0addd30a165cb5322585d60d9956e8f5342141ee5d69f68c01fbdd46e3",
      "version": 1,
      "size": 135,
      "vsize": 135,
      "weight": 540,
      "locktime": 0,
      "vin": [
        {
          "coinbase": "04ffff001d021905",
          "sequence": 4294967295
        }
      ],
      "vout": [
        {
          "value": 50.0,
          "n": 0,
          "scriptPubKey": {
            "asm": "04bb2b0e73fad76fe8771c3a81029915fe28d84719abd07dc181b7677a4b61e11d433f0270a22bcbaa10ae7025e68ea3258ca9c8aae166f0a9ed90193a0500e259 OP_CHECKSIG",
            "desc": "pk(04bb2b0e73fad76fe8771c3a81029915fe28d84719abd07dc181b7677a4b61e11d433f0270a22bcbaa10ae7025e68ea3258ca9c8aae166f0a9ed90193a0500e259)#3k8jjyu8",
            "hex": "4104bb2b0e73fad76fe8771c3a81029915fe28d84719abd07dc181b7677a4b61e11d433f0270a22bcbaa10ae7025e68ea3258ca9c8aae166f0a9ed90193a0500e259ac",
            "type": "pubkey"
          }
        }
      ],
      "hex": "01000000010000000000000000000000000000000000000000000000000000000000000000ffffffff0804ffff001d021905ffffffff0100f2052a01000000434104bb2b0e73fad76fe8771c3a81029915fe28d84719abd07dc181b7677a4b61e11d433f0270a22bcbaa10ae7025e68ea3258ca9c8aae166f0a9ed90193a0500e259ac00000000"
    }
  ]
}