{
  "hash": "000000007e2811a6012b2f6b797ef936a1bfccf2f00e150ca8fa28fafaf0638c",
  "confirmations": 46432,
  "height": 6666,
  "version": 1,
  "versionHex": "00000001",
  "merkleroot": "6f3c31aaa7e8c370298b22c55d0401e7134fbc2ea5133cd40b4bab9da366d8de",
  "time": 1236456633,
  "mediantime": 1236452019,
  "nonce": 706585629,
  "bits": "1d00ffff",
  "difficulty": 1,
  "chainwork": "00000000000000000000000000000000000000000000000000001a0b1a0b1a0b",
  "nTx": 1,
  "previousblockhash": "00000000c2644d8135b6aefd4b064bd7d450ea7edac1da6f286df9b4e61e297e",
  "nextblockhash": "00000000ee9986ac9a76dc81bfe5919cef796697d3f3417a00861c2d5f08effe",
  "strippedsize": 216,
  "size": 216,
  "weight": 864,
  "tx": [
    {
      "txid": "6f3c31aaa7e8c370298b22c55d0401e7134fbc2ea5133cd40b4bab9da366d8de",
      "hash": "6f3c31aaa7e8c370298b22c55d0401e7134fbc2ea5133cd40b4bab9da366d8de",
      "version": 1,
      "size": 135,
      "vsize": 135,
      "weight": 540,
      "locktime": 0,
      "vin": [
        {
          "coinbase": "04ffff001d025e06",
          "sequence": 4294967295
        }
      ],
      "vout": [
        {
          "value": 50.0,
          "n": 0,
          "scriptPubKey": {
            "asm": "046d4a59e5a2590ff6ebe196778a6195a38f2aeab7755fa43dd153d5efed44b750f0c562f49df67029c629f1971ee70de9aa8453a661b90cbb78b2d0bb4b91072b OP_CHECKSIG",
            "desc": "pk(046d4a59e5a2590ff6ebe196778a6195a38f2aeab7755fa43dd153d5efed44b750f0c562f49df67029c629f1971ee70de9aa8453a661b90cbb78b2d0bb4b91072b)#wmjm7tl9",
            "hex": "41046d4a59e5a2590ff6ebe196778a6195a38f2aeab7755fa43dd153d5efed44b750f0c562f49df67029c629f1971ee70de9aa8453a661b90cbb78b2d0bb4b91072bac",
            "type": "pubkey"
          }
        }
      ],
      "hex": "01000000010000000000000000000000000000000000000000000000000000000000000000ffffffff0804ffff001d025e06ffffffff0100f2052a010000004341046d4a59e5a2590ff6ebe196778a6195a38f2aeab7755fa43dd153d5efed44b750f0c562f49df67029c629f1971ee70de9aa8453a661b90cbb78b2d0bb4b91072bac00000000"
    }
  ]
}