{
  "hash": "0000000079789b316275f77063322d08b49a123eb48df39e3c2c9b56eff7e942",
  "confirmations": 46443,
  "height": 6655,
  "version": 1,
  "versionHex": "00000001",
  "merkleroot": "2062e53a17778e83aa05917a6e3d4b58ad5755519e82e4ad95680420e7c652cf",
  "time": 1236448814,
  "mediantime": 1236445658,
  "nonce": 1953777975,
  "bits": "1d00ffff",
  "difficulty": 1,
  "chainwork": "00000000000000000000000000000000000000000000000000001a001a001a00",
  "nTx": 1,
  "previousblockhash": "0000000059e7320a82d07619edbb80111446a14afe835c62674875d9442dbbbc",
  "nextblockhash": "000000004cd188af6ab641ec5260c83ff2007de7d512d3194ad97fb4f1fa7e40",
  "strippedsize": 216,
  "size": 216,
  "weight": 864,
  "tx": [
    {
      "txid": "2062e53a17778e83aa05917a6e3d4b58ad5755519e82e4ad95680420e7c652cf",
      "hash": "2062e53a17778e83aa05917a6e3d4b58ad5755519e82e4ad95680420e7c652cf",
      "version": 1,
      "size": 135,
      "vsize": 135,
      "weight": 540,
      "locktime": 0,
      "vin": [
        {
          "coinbase": "04ffff001d023406",
          "sequence": 4294967295
        }
      ],
      "vout": [
        {
          "value": 50.0,
          "n": 0,
          "scriptPubKey": {
            "asm": "040e33f6d2958d807004119e8527b1ff4c285fd21847454d0789e816e26d11d207e248b5713f47f76c74cfec162ef9936a45557424ecefb119256171f89c6a1d47 OP_CHECKSIG",
            "desc": "pk(040e33f6d2958d807004119e8527b1ff4c285fd21847454d0789e816e26d11d207e248b5713f47f76c74cfec162ef9936a45557424ecefb119256171f89c6a1d47)#ftp9fsmg",
            "hex": "41040e33f6d2958d807004119e8527b1ff4c285fd21847454d0789e816e26d11d207e248b5713f47f76c74cfec162ef9936a45557424ecefb119256171f89c6a1d47ac",
            "type": "pubkey"
          }
        }
      ],
      "hex": "01000000010000000000000000000000000000000000000000000000000000000000000000ffffffff0804ffff001d023406ffffffff0100f2052a010000004341040e33f6d2958d807004119e8527b1ff4c285fd21847454d0789e816e26d11d207e248b5713f47f76c74cfec162ef9936a45557424ecefb119256171f89c6a1d47ac00000000"
    }
  ]
}