{
  "hash": "0000000008884067dbe80128da09a16315bb208a69e9894287a3c9e0fb671f8b",
  "confirmations": 52245,
  "height": 493,
  "version": 1,
  "versionHex": "00000001",
  "merkleroot": "8bea4c52e497aac81f3c6520febe1a2bff73dfa04d89855c32f4f5cd27d564c4",
  "time": 1231963103,
  "mediantime": 1231961090,
  "nonce": 22488128,
  "bits": "1d00ffff",
  "difficulty": 1,
  "chainwork": "000000000000000000000000000000000000000000000000000001ee01ee01ee",
  "nTx": 1,
  "previousblockhash": "000000008d9b5010b996bbab558e88e9fe8a8b42751dfcaa79217f9a66642e65",
  "nextblockhash": "000000004fb61ae8e99040c4e1e3b4d333dbe867f97f63ab4238cba80f59204a",
  "strippedsize": 215,
  "size": 215,
  "weight": 860,
  "tx": [
    {
      "txid": "8bea4c52e497aac81f3c6520febe1a2bff73dfa04d89855c32f4f5cd27d564c4",
      "hash": "8bea4c52e497aac81f3c6520febe1a2bff73dfa04d89855c32f4f5cd27d564c4",
      "version": 1,
      "size": 134,
      "vsize": 134,
      "weight": 536,
      "locktime": 0,
      "vin": [
        {
          "coinbase": "04ffff001d016c",
          "sequence": 4294967295
        }
      ],
      "vout": [
        {
          "value": 50.0,
          "n": 0,
          "scriptPubKey": {
            "asm": "04b5cc3e2c3ab73de6445c9adbe67e189a3acaa95aa0a328705c42d4cff747b0b2e3f63ad0ff231d7598d98a0b6d5ed199ec2831928bff1e9ee59de7dea9b8f6a5 OP_CHECKSIG",
            "desc": "pk(04b5cc3e2c3ab73de6445c9adbe67e189a3acaa95aa0a328705c42d4cff747b0b2e3f63ad0ff231d7598d98a0b6d5ed199ec2831928bff1e9ee59de7dea9b8f6a5)#xf57277p",
            "hex": "4104b5cc3e2c3ab73de6445c9adbe67e189a3acaa95aa0a328705c42d4cff747b0b2e3f63ad0ff231d7598d98a0b6d5ed199ec2831928bff1e9ee59de7dea9b8f6a5ac",
            "type": "pubkey"
          }
        }
      ],
      "hex": "01000000010000000000000000000000000000000000000000000000000000000000000000ffffffff0704ffff001d016cffffffff0100f2052a01000000434104b5cc3e2c3ab73de6445c9adbe67e189a3acaa95aa0a328705c42d4cff747b0b2e3f63ad0ff231d7598d98a0b6d5ed199ec2831928bff1e9ee59de7dea9b8f6a5ac00000000"
    }
  ]
}