{
  "hash": "00000000f11a02048994849fc2e785239b23de9bcfd7222d159188c52e7a98c5",
  "confirmations": 50597,
  "height": 2501,
  "version": 1,
  "versionHex": "00000001",
  "merkleroot": "69a14e6b050d10d6621faee3dac6682809feb0ffa76320b33c5c09f1059f06c7",
  "time": 1233421620,
  "mediantime": 1233419446,
  "nonce": 124867778,
  "bits": "1d00ffff",
  "difficulty": 1,
  "chainwork": "000000000000000000000000000000000000000000000000000009c609c609c6",
  "nTx": 1,
  "previousblockhash": "00000000d84724559f1691d916b2ed63a44884d495d155197647ce7667116b16",
  "nextblockhash": "00000000bb3e241dfd6f79ec7babc1e3395db92200e778d959861c513c1083fb",
  "strippedsize": 215,
  "size": 215,
  "weight": 860,
  "tx": [
    {
      "txid": "69a14e6b050d10d6621faee3dac6682809feb0ffa76320b33c5c09f1059f06c7",
      "hash": "69a14e6b050d10d6621faee3dac6682809feb0ffa76320b33c5c09f1059f06c7",
      "version": 1,
      "size": 134,
      "vsize": 134,
      "weight": 536,
      "locktime": 0,
      "vin": [
        {
          "coinbase": "04ffff001d010a",
          "sequence": 4294967295
        }
      ],
      "vout": [
        {
          "value": 50.0,
          "n": 0,
          "scriptPubKey": {
            "asm": "0475982ecc2f7cc94382ac2aef5d97dd50cb836110da4fccec98a98315b5a51cd28a782c63ba6de4fe3ad5101f91f5d17450c192bd7f69a833f52475ef888ef504 OP_CHECKSIG",
            "desc": "pk(0475982ecc2f7cc94382ac2aef5d97dd50cb836110da4fccec98a98315b5a51cd28a782c63ba6de4fe3ad5101f91f5d17450c192bd7f69a833f52475ef888ef504)#5sr82ez4",
            "hex": "410475982ecc2f7cc94382ac2aef5d97dd50cb836110da4fccec98a98315b5a51cd28a782c63ba6de4fe3ad5101f91f5d17450c192bd7f69a833f52475ef888ef504ac",
            "type": "pubkey"
          }
        }
      ],
      "hex": "01000000010000000000000000000000000000000000000000000000000000000000000000ffffffff0704ffff001d010affffffff0100f2052a0100000043410475982ecc2f7cc94382ac2aef5d97dd50cb836110da4fccec98a98315b5a51cd28a782c63ba6de4fe3ad5101f91f5d17450c192bd7f69a833f52475ef888ef504ac00000000"
    }
  ]
}