{
  "hash": "00000000df3d3d8e1b63db203496a67c186cc7508adac33aa72db03685ada3b1",
  "confirmations": 51072,
  "height": 2026,
  "version": 1,
  "versionHex": "00000001",
  "merkleroot": "d67c796d6992e799a4e02e21acb55131f9b2a0e013f30d4ecd5c0f962eefeb13",
  "time": 1233072736,
  "mediantime": 1233069492,
  "nonce": 2992339203,
  "bits": "1d00ffff",
  "difficulty": 1,
  "chainwork": "000000000000000000000000000000000000000000000000000007eb07eb07eb",
  "nTx": 1,
  "previousblockhash": "00000000cc455e6c79b0d9b7d9546a507ea312b00626a4cc3b625b270d9ad6d3",
  "nextblockhash": "00000000e2fe00b652b77364ced8b96402bf35d3064c4bd253140ef907adf1d6",
  "strippedsize": 216,
  "size": 216,
  "weight": 864,
  "tx": [
    {
      "txid": "d67c796d6992e799a4e02e21acb55131f9b2a0e013f30d4ecd5c0f962eefeb13",
      "hash": "d67c796d6992e799a4e02e21acb55131f9b2a0e013f30d4ecd5c0f962eefeb13",
      "version": 1,
      "size": 135,
      "vsize": 135,
      "weight": 540,
      "locktime": 0,
      "vin": [
        {
          "coinbase": "04ffff001d024002",
          "sequence": 4294967295
        }
      ],
      "vout": [
        {
          "value": 50.0,
          "n": 0,
          "scriptPubKey": {
            "asm": "049b139aca11375c4a6dd6f0a7a7fd69e5400cf8bd451e36621d48ddac99f5f42f2d6aec5daee8c6e286033e7d5c0daf677ce7e985aa28b02870e9a505db07d374 OP_CHECKSIG",
            "desc": "pk(049b139aca11375c4a6dd6f0a7a7fd69e5400cf8bd451e36621d48ddac99f5f42f2d6aec5daee8c6e286033e7d5c0daf677ce7e985aa28b02870e9a505db07d374)#e9fnqltt",
            "hex": "41049b139aca11375c4a6dd6f0a7a7fd69e5400cf8bd451e36621d48ddac99f5f42f2d6aec5daee8c6e286033e7d5c0daf677ce7e985aa28b02870e9a505db07d374ac",
            "type": "pubkey"
          }
        }
      ],
      "hex": "01000000010000000000000000000000000000000000000000000000000000000000000000ffffffff0804ffff001d024002ffffffff0100f2052a010000004341049b139aca11375c4a6dd6f0a7a7fd69e5400cf8bd451e36621d48ddac99f5f42f2d6aec5daee8c6e286033e7d5c0daf677ce7e985aa28b02870e9a505db07d374ac00000000"
    }
  ]
}