{
  "hash": "000000004e3849b0e27840a1b9e9dfc5bcda2633d05865ace5e2941bf88764d5",
  "confirmations": 47222,
  "height": 5876,
  "version": 1,
  "versionHex": "00000001",
  "merkleroot": "9db982d8557f4466196c252d3cf796044efa6be079c484cf04f878d6e948fdd8",
  "time": 1235824650,
  "mediantime": 1235820396,
  "nonce": 1174907141,
  "bits": "1d00ffff",
  "difficulty": 1,
  "chainwork": "000000000000000000000000000000000000000000000000000016f516f516f5",
  "nTx": 1,
  "previousblockhash": "00000000618eb41e00414ccb0c3fb55209f0b29148d5ddec0120cd6debdb126e",
  "nextblockhash": "00000000791d0d95530ac776f0b1757cc044c575eb8181ea78384b9828bd0f28",
  "strippedsize": 216,
  "size": 216,
  "weight": 864,
  "tx": [
    {
      "txid": "9db982d8557f4466196c252d3cf796044efa6be079c484cf04f878d6e948fdd8",
      "hash": "9db982d8557f4466196c252d3cf796044efa6be079c484cf04f878d6e948fdd8",
      "version": 1,
      "size": 135,
      "vsize": 135,
      "weight": 540,
      "locktime": 0,
      "vin": [
        {
          "coinbase": "04ffff001d02a202",
          "sequence": 4294967295
        }
      ],
      "vout": [
        {
          "value": 50.0,
          "n": 0,
          "scriptPubKey": {
            "asm": "04271f35fd5ed003939c921843463f963cfe56ec0b21c91c26b01b4ab01d91bce7bb1282edbf21c30019a75dc860c44352c1c81889dec20952c0918c3013aa64f5 OP_CHECKSIG",
            "desc": "pk(04271f35fd5ed003939c921843463f963cfe56ec0b21c91c26b01b4ab01d91bce7bb1282edbf21c30019a75dc860c44352c1c81889dec20952c0918c3013aa64f5)#e70t362s",
            "hex": "4104271f35fd5ed003939c921843463f963cfe56ec0b21c91c26b01b4ab01d91bce7bb1282edbf21c30019a75dc860c44352c1c81889dec20952c0918c3013aa64f5ac",
            "type": "pubkey"
          }
        }
      ],
      "hex": "01000000010000000000000000000000000000000000000000000000000000000000000000ffffffff0804ffff001d02a202ffffffff0100f2052a01000000434104271f35fd5ed003939c921843463f963cfe56ec0b21c91c26b01b4ab01d91bce7bb1282edbf21c30019a75dc860c44352c1c81889dec20952c0918c3013aa64f5ac00000000"
    }
  ]
}