{
  "hash": "00000000ef4330252e7d461a200c5a2208571b75e8645d18e4ebaa9ffc0c5ccd",
  "confirmations": 50656,
  "height": 2442,
  "version": 1,
  "versionHex": "00000001",
  "merkleroot": "5074c4202ee284140c1b01e1de05c760bbeabacd8cd0564d71a00725b41ae444",
  "time": 1233386916,
  "mediantime": 1233383180,
  "nonce": 3245839386,
  "bits": "1d00ffff",
  "difficulty": 1,
  "chainwork": "0000000000000000000000000000000000000000000000000000098b098b098b",
  "nTx": 1,
  "previousblockhash": "0000000074da83bbe5295d0bcf0b14f98b74272619b381545179f6655c54f363",
  "nextblockhash": "0000000083a8010a8c77c6e96e00586d04562dfc58d26a1dcf6520e73d1e5978",
  "strippedsize": 215,
  "size": 215,
  "weight": 860,
  "tx": [
    {
      "txid": "5074c4202ee284140c1b01e1de05c760bbeabacd8cd0564d71a00725b41ae444",
      "hash": "5074c4202ee284140c1b01e1de05c760bbeabacd8cd0564d71a00725b41ae444",
      "version": 1,
      "size": 134,
      "vsize": 134,
      "weight": 536,
      "locktime": 0,
      "vin": [
        {
          "coinbase": "04ffff001d0166",
          "sequence": 4294967295
        }
      ],
      "vout": [
        {
          "value": 50.0,
          "n": 0,
          "scriptPubKey": {
            "asm": "04fe1965d40e6a6bc5e0166ca04bd476eae1fecafce1fc16572673c0bb283665253fe005b8612f9a79d7f5c40d6a6e808a203270474e6f2161f18d2060590e6066 OP_CHECKSIG",
            "desc": "pk(04fe1965d40e6a6bc5e0166ca04bd476eae1fecafce1fc16572673c0bb283665253fe005b8612f9a79d7f5c40d6a6e808a203270474e6f2161f18d2060590e6066)#m353tux0",
            "hex": "4104fe1965d40e6a6bc5e0166ca04bd476eae1fecafce1fc16572673c0bb283665253fe005b8612f9a79d7f5c40d6a6e808a203270474e6f2161f18d2060590e6066ac",
            "type": "pubkey"
          }
        }
      ],
      "hex": "01000000010000000000000000000000000000000000000000000000000000000000000000ffffffff0704ffff001d0166ffffffff0100f2052a01000000434104fe1965d40e6a6bc5e0166ca04bd476eae1fecafce1fc16572673c0bb283665253fe005b8612f9a79d7f5c40d6a6e808a203270474e6f2161f18d2060590e6066ac00000000"
    }
  ]
}