{
  "hash": "00000000d139d167e3f6b575cf2578469e86db13d7cb1035eeabe64e751bb5cc",
  "confirmations": 52286,
  "height": 812,
  "version": 1,
  "versionHex": "00000001",
  "merkleroot": "9cad34944886dca0e8e88ec2e2a508fb6da1789f6cbaeffdc3668d560d8062bf",
  "time": 1232201792,
  "mediantime": 1232198652,
  "nonce": 3401693230,
  "bits": "1d00ffff",
  "difficulty": 1,
  "chainwork": "0000000000000000000000000000000000000000000000000000032d032d032d",
  "nTx": 1,
  "previousblockhash": "0000000036a113fad8c0d74c5fe30f09fcef40dd2bd94a2b36f93298eebf8606",
  "nextblockhash": "00000000a0963476270e03c002d98cc7be2865a02832451a65304e07712d1c95",
  "strippedsize": 216,
  "size": 216,
  "weight": 864,
  "tx": [
    {
      "txid": "9cad34944886dca0e8e88ec2e2a508fb6da1789f6cbaeffdc3668d560d8062bf",
      "hash": "9cad34944886dca0e8e88ec2e2a508fb6da1789f6cbaeffdc3668d560d8062bf",
      "version": 1,
      "size": 135,
      "vsize": 135,
      "weight": 540,
      "locktime": 0,
      "vin": [
        {
          "coinbase": "04ffff001d02c001",
          "sequence": 4294967295
        }
      ],
      "vout": [
        {
          "value": 50.0,
          "n": 0,
          "scriptPubKey": {
            "asm": "049941ec2e6eee2e036aec3012933a78ef6fcb8da65db32735c2d5e0151ebd7448ffd95b202acc19a7fbc1e59644bd8d11d6e1c177469b9ce8db35479afacc75f7 OP_CHECKSIG",
            "desc": "pk(049941ec2e6eee2e036aec3012933a78ef6fcb8da65db32735c2d5e0151ebd7448ffd95b202acc19a7fbc1e59644bd8d11d6e1c177469b9ce8db35479afacc75f7)#dvz99fvf",
            "hex": "41049941ec2e6eee2e036aec3012933a78ef6fcb8da65db32735c2d5e0151ebd7448ffd95b202acc19a7fbc1e59644bd8d11d6e1c177469b9ce8db35479afacc75f7ac",
            "type": "pubkey"
          }
        }
      ],
      "hex": "01000000010000000000000000000000000000000000000000000000000000000000000000ffffffff0804ffff001d02c001ffffffff0100f2052a010000004341049941ec2e6eee2e036aec3012933a78ef6fcb8da65db32735c2d5e0151ebd7448ffd95b202acc19a7fbc1e59644bd8d11d6e1c177469b9ce8db35479afacc75f7ac00000000"
    }
  ]
}