{
  "hash": "000000003ce99726d00dddc80aa52e7d8f2d4a9d6f531055cae0011637041719",
  "confirmations": 46827,
  "height": 6271,
  "version": 1,
  "versionHex": "00000001",
  "merkleroot": "31d69dce377885a373c5d386dbe9b4776406165d0d9fff4d40444c9d906b2238",
  "time": 1236149680,
  "mediantime": 1236146701,
  "nonce": 278591843,
  "bits": "1d00ffff",
  "difficulty": 1,
  "chainwork": "0000000000000000000000000000000000000000000000000000188018801880",
  "nTx": 1,
  "previousblockhash": "00000000927235e53245ffade6c852fa742e51265d4a4657c61d085ad9cafba7",
  "nextblockhash": "0000000042cceee1092a2084d091be35de333b20953e96057ffeaf27ca558aa8",
  "strippedsize": 216,
  "size": 216,
  "weight": 864,
  "tx": [
    {
      "txid": "31d69dce377885a373c5d386dbe9b4776406165d0d9fff4d40444c9d906b2238",
      "hash": "31d69dce377885a373c5d386dbe9b4776406165d0d9fff4d40444c9d906b2238",
      "version": 1,
      "size": 135,
      "vsize": 135,
      "weight": 540,
      "locktime": 0,
      "vin": [
        {
          "coinbase": "04ffff001d02ba00",
          "sequence": 4294967295
        }
      ],
      "vout": [
        {
          "value": 50.0,
          "n": 0,
          "scriptPubKey": {
            "asm": "04d1a5c7b11bda6164fcc2469c3e40004306736d5a8a87cc3536da23d72fdf77da95035a6e26d35cfb93cfa9e3fe3f168097e9a2b79086a77947e6cbc7390bc4e0 OP_CHECKSIG",
            "desc": "pk(04d1a5c7b11bda6164fcc2469c3e40004306736d5a8a87cc3536da23d72fdf77da95035a6e26d35cfb93cfa9e3fe3f168097e9a2b79086a77947e6cbc7390bc4e0)#geh3c0ce",
            "hex": "4104d1a5c7b11bda6164fcc2469c3e40004306736d5a8a87cc3536da23d72fdf77da95035a6e26d35cfb93cfa9e3fe3f168097e9a2b79086a77947e6cbc7390bc4e0ac",
            "type": "pubkey"
          }
        }
      ],
      "hex": "01000000010000000000000000000000000000000000000000000000000000000000000000ffffffff0804ffff001d02ba00ffffffff0100f2052a01000000434104d1a5c7b11bda6164fcc2469c3e40004306736d5a8a87cc3536da23d72fdf77da95035a6e26d35cfb93cfa9e3fe3f168097e9a2b79086a77947e6cbc7390bc4e0ac00000000"
    }
  ]
}