{
  "hash": "00000000cd9c854b176413d6d344d6238426539fe1525b9a88a06e5d8a2df72b",
  "confirmations": 51903,
  "height": 67,
  "version": 1,
  "versionHex": "00000001",
  "merkleroot": "b17fc28c1dc15ca4b05bf4784419c145b14e79ece54c793656997984c4e46715",
  "time": 1231626072,
  "mediantime": 1231623224,
  "nonce": 3252408872,
  "bits": "1d00ffff",
  "difficulty": 1,
  "chainwork": "0000000000000000000000000000000000000000000000000000004400440044",
  "nTx": 1,
  "previousblockhash": "0000000063d334becd1f17db9b6ccf570805caeed92d37d3d67b48e3685e760d",
  "nextblockhash": "00000000bfafa874eff9ea7ec32c26499bd2580718daa33fb5dd7710db2c814c",
  "strippedsize": 216,
  "size": 216,
  "weight": 864,
  "tx": [
    {
      "txid": "b17fc28c1dc15ca4b05bf4784419c145b14e79ece54c793656997984c4e46715",
      "hash": "b17fc28c1dc15ca4b05bf4784419c145b14e79ece54c793656997984c4e46715",
      "version": 1,
      "size": 135,
      "vsize": 135,
      "weight": 540,
      "locktime": 0,
      "vin": [
        {
          "coinbase": "04ffff001d02ad00",
          "sequence": 4294967295
        }
      ],
      "vout": [
        {
          "value": 50.0,
          "n": 0,
          "scriptPubKey": {
            "asm": "049977f4ef44b1c7c3854e52c3706c3a9614d7981ba3a7d4c7a168399c2ae324242c9b1e22e5ab8d0e8f732d56f353555e6c8ccb6116b1f46ff5fcc0298f9fadfd OP_CHECKSIG",
            "desc": "pk(049977f4ef44b1c7c3854e52c3706c3a9614d7981ba3a7d4c7a168399c2ae324242c9b1e22e5ab8d0e8f732d56f353555e6c8ccb6116b1f46ff5fcc0298f9fadfd)#xyeen5vr",
            "hex": "41049977f4ef44b1c7c3854e52c3706c3a9614d7981ba3a7d4c7a168399c2ae324242c9b1e22e5ab8d0e8f732d56f353555e6c8ccb6116b1f46ff5fcc0298f9fadfdac",
            "type": "pubkey"
          }
        }
      ],
      "hex": "01000000010000000000000000000000000000000000000000000000000000000000000000ffffffff0804ffff001d02ad00ffffffff0100f2052a010000004341049977f4ef44b1c7c3854e52c3706c3a9614d7981ba3a7d4c7a168399c2ae324242c9b1e22e5ab8d0e8f732d56f353555e6c8ccb6116b1f46ff5fcc0298f9fadfdac00000000"
    }
  ]
}