{
  "hash": "00000000ea99f0abd8798df94b3d09b0da09c41ef322c8303c4e89e8a7b91c07",
  "confirmations": 46480,
  "height": 6618,
  "version": 1,
  "versionHex": "00000001",
  "merkleroot": "58d1732e38b10781b5f3df245474e1e3915a8ed68b5bef81e28e4a168f3b9441",
  "time": 1236417488,
  "mediantime": 1236413363,
  "nonce": 801405224,
  "bits": "1d00ffff",
  "difficulty": 1,
  "chainwork": "000000000000000000000000000000000000000000000000000019db19db19db",
  "nTx": 1,
  "previousblockhash": "00000000ca391d792442f1bee1863e4007df4575eb1dc8566cc14755e5b397bb",
  "nextblockhash": "00000000d83489ee557ea8da7ac149fd54250c6afd8a782dc77428a37ca86cb0",
  "strippedsize": 216,
  "size": 216,
  "weight": 864,
  "tx": [
    {
      "txid": "58d1732e38b10781b5f3df245474e1e3915a8ed68b5bef81e28e4a168f3b9441",
      "hash": "58d1732e38b10781b5f3df245474e1e3915a8ed68b5bef81e28e4a168f3b9441",
      "version": 1,
      "size": 135,
      "vsize": 135,
      "weight": 540,
      "locktime": 0,
      "vin": [
        {
          "coinbase": "04ffff001d027005",
          "sequence": 4294967295
        }
      ],
      "vout": [
        {
          "value": 50.0,
          "n": 0,
          "scriptPubKey": {
            "asm": "04c7f63aabfc1ca58f861bda738af30c1f359a44132fb6a8e82181302a929278c6c383ea67abe1851f4eb8fb36b096073c12697608d8969a54c1e51c49b5fc9b27 OP_CHECKSIG",
            "desc": "pk(04c7f63aabfc1ca58f861bda738af30c1f359a44132fb6a8e82181302a929278c6c383ea67abe1851f4eb8fb36b096073c12697608d8969a54c1e51c49b5fc9b27)#zyfpkdqy",
            "hex": "4104c7f63aabfc1ca58f861bda738af30c1f359a44132fb6a8e82181302a929278c6c383ea67abe1851f4eb8fb36b096073c12697608d8969a54c1e51c49b5fc9b27ac",
            "type": "pubkey"
          }
        }
      ],
      "hex": "01000000010000000000000000000000000000000000000000000000000000000000000000ffffffff0804ffff001d027005ffffffff0100f2052a01000000434104c7f63aabfc1ca58f861bda738af30c1f359a44132fb6a8e82181302a929278c6c383ea67abe1851f4eb8fb36b096073c12697608d8969a54c1e51c49b5fc9b27ac00000000"
    }
  ]
}