{
  "hash": "0000000021b5930bd047ff6d8419ee7e251534a865f42dc5e13b2e1038e8079e",
  "confirmations": 48116,
  "height": 4982,
  "version": 1,
  "versionHex": "00000001",
  "merkleroot": "8a1e8a658e11cf4383569a6009c2dbe07af1182652b2871f93eee79d9526c3ad",
  "time": 1235128382,
  "mediantime": 1235123825,
  "nonce": 275844637,
  "bits": "1d00ffff",
  "difficulty": 1,
  "chainwork": "0000000000000000000000000000000000000000000000000000137713771377",
  "nTx": 1,
  "previousblockhash": "000000004a8b7d08ce52c63addfd00bb787ad487fd3dd727a8d64b7f98be2423",
  "nextblockhash": "000000002b61d0523ea9c80c7f522aa6fb117ed93f3d2c6aea011267a2c1d973",
  "strippedsize": 216,
  "size": 216,
  "weight": 864,
  "tx": [
    {
      "txid": "8a1e8a658e11cf4383569a6009c2dbe07af1182652b2871f93eee79d9526c3ad",
      "hash": "8a1e8a658e11cf4383569a6009c2dbe07af1182652b2871f93eee79d9526c3ad",
      "version": 1,
      "size": 135,
      "vsize": 135,
      "weight": 540,
      "locktime": 0,
      "vin": [
        {
          "coinbase": "04ffff001d02bc06",
          "sequence": 4294967295
        }
      ],
      "vout": [
        {
          "value": 50.0,
          "n": 0,
          "scriptPubKey": {
            "asm": "0459d4fe6f404644e26876e7eb825b4b57361d811d333d5640f3fbc301994389737aff2700171cb591e1667896bc514bb2136bbf7d0b944bfd348de6d725fb58e2 OP_CHECKSIG",
            "desc": "pk(0459d4fe6f404644e26876e7eb825b4b57361d811d333d5640f3fbc301994389737aff2700171cb591e1667896bc514bb2136bbf7d0b944bfd348de6d725fb58e2)#sv0nh8ze",
            "hex": "410459d4fe6f404644e26876e7eb825b4b57361d811d333d5640f3fbc301994389737aff2700171cb591e1667896bc514bb2136bbf7d0b944bfd348de6d725fb58e2ac",
            "type": "pubkey"
          }
        }
      ],
      "hex": "01000000010000000000000000000000000000000000000000000000000000000000000000ffffffff0804ffff001d02bc06ffffffff0100f2052a0100000043410459d4fe6f404644e26876e7eb825b4b57361d811d333d5640f3fbc301994389737aff2700171cb591e1667896bc514bb2136bbf7d0b944bfd348de6d725fb58e2ac00000000"
    }
  ]
}