{
  "hash": "00000000d4845af70264d790ac5fe2e8911eec5be26795a29df65eef1bc1a788",
  "confirmations": 43504,
  "height": 9594,
  "version": 1,
  "versionHex": "00000001",
  "merkleroot": "9e7389a7f3c82f48554dccb780888f001a26e2b9d08750063a09bf62f1313e4b",
  "time": 1238696302,
  "mediantime": 1238692839,
  "nonce": 256810784,
  "bits": "1d00ffff",
  "difficulty": 1,
  "chainwork": "0000000000000000000000000000000000000000000000000000257b257b257b",
  "nTx": 1,
  "previousblockhash": "00000000283ae40e5825e8f74ceab6ab1c97b9cc3a468892f53780503c0fe594",
  "nextblockhash": "000000009befcfc715b95f5bd59e81a90de2a8e465d3e814a53321bd003f4849",
  "strippedsize": 216,
  "size": 216,
  "weight": 864,
  "tx": [
    {
      "txid": "9e7389a7f3c82f48554dccb780888f001a26e2b9d08750063a09bf62f1313e4b",
      "hash": "9e7389a7f3c82f48554dccb780888f001a26e2b9d08750063a09bf62f1313e4b",
      "version": 1,
      "size": 135,
      "vsize": 135,
      "weight": 540,
      "locktime": 0,
      "vin": [
        {
          "coinbase": "04ffff001d02f806",
          "sequence": 4294967295
        }
      ],
      "vout": [
        {
          "value": 50.0,
          "n": 0,
          "scriptPubKey": {
            "asm": "04a651d44fd2adb7ffdf5f67cc6e91bdb9be3aae7a71bc8df00f9bd8b555acee95e94de7812b6e1c8631f269aa3a3759c39e52f4859ad7cc216a64f56148174412 OP_CHECKSIG",
            "desc": "pk(04a651d44fd2adb7ffdf5f67cc6e91bdb9be3aae7a71bc8df00f9bd8b555acee95e94de7812b6e1c8631f269aa3a3759c39e52f4859ad7cc216a64f56148174412)#607x68t7",
            "hex": "4104a651d44fd2adb7ffdf5f67cc6e91bdb9be3aae7a71bc8df00f9bd8b555acee95e94de7812b6e1c8631f269aa3a3759c39e52f4859ad7cc216a64f56148174412ac",
            "type": "pubkey"
          }
        }
      ],
      "hex": "01000000010000000000000000000000000000000000000000000000000000000000000000ffffffff0804ffff001d02f806ffffffff0100f2052a01000000434104a651d44fd2adb7ffdf5f67cc6e91bdb9be3aae7a71bc8df00f9bd8b555acee95e94de7812b6e1c8631f269aa3a3759c39e52f4859ad7cc216a64f56148174412ac00000000"
    }
  ]
}