{
  "hash": "0000000098e3770b1ae304350692cdfc809035b2077627cbcbd664cf5171a5a2",
  "confirmations": 43522,
  "height": 9576,
  "version": 1,
  "versionHex": "00000001",
  "merkleroot": "dfad65d42bc6ae4478a22a4e078133d75752d9b424fea0715489c8e909b78c28",
  "time": 1238685363,
  "mediantime": 1238678717,
  "nonce": 68294184,
  "bits": "1d00ffff",
  "difficulty": 1,
  "chainwork": "0000000000000000000000000000000000000000000000000000256925692569",
  "nTx": 1,
  "previousblockhash": "000000008a434bf614865306593649511c5d2a784d5c756b9174619b2e8df9a6",
  "nextblockhash": "0000000088df66fc4e4d47c146e721b526b8bbfd0816997e3a04dc56558f6cc8",
  "strippedsize": 216,
  "size": 216,
  "weight": 864,
  "tx": [
    {
      "txid": "dfad65d42bc6ae4478a22a4e078133d75752d9b424fea0715489c8e909b78c28",
      "hash": "dfad65d42bc6ae4478a22a4e078133d75752d9b424fea0715489c8e909b78c28",
      "version": 1,
      "size": 135,
      "vsize": 135,
      "weight": 540,
      "locktime": 0,
      "vin": [
        {
          "coinbase": "04ffff001d025407",
          "sequence": 4294967295
        }
      ],
      "vout": [
        {
          "value": 50.0,
          "n": 0,
          "scriptPubKey": {
            "asm": "042a7b8962a0a8c2a697d28ac9cef7baedaa42281d0bc34cae0a08d2d20807aeab6563a554623a37b8360cada63ff1e91d513eba05dd8caa9d5831d6413a73371e OP_CHECKSIG",
            "desc": "pk(042a7b8962a0a8c2a697d28ac9cef7baedaa42281d0bc34cae0a08d2d20807aeab6563a554623a37b8360cada63ff1e91d513eba05dd8caa9d5831d6413a73371e)#9e2qjhxt",
            "hex": "41042a7b8962a0a8c2a697d28ac9cef7baedaa42281d0bc34cae0a08d2d20807aeab6563a554623a37b8360cada63ff1e91d513eba05dd8caa9d5831d6413a73371eac",
            "type": "pubkey"
          }
        }
      ],
      "hex": "01000000010000000000000000000000000000000000000000000000000000000000000000ffffffff0804ffff001d025407ffffffff0100f2052a010000004341042a7b8962a0a8c2a697d28ac9cef7baedaa42281d0bc34cae0a08d2d20807aeab6563a554623a37b8360cada63ff1e91d513eba05dd8caa9d5831d6413a73371eac00000000"
    }
  ]
}