{
  "hash": "0000000086a40870d82307ba993f27e4f2485578bcf0d50a6baee40b9199806e",
  "confirmations": 52182,
  "height": 481,
  "version": 1,
  "versionHex": "00000001",
  "merkleroot": "49c28111bd99ecc06a5310d3c84ca6a09684d50bf6057e559d84d78067ec47c3",
  "time": 1231956588,
  "mediantime": 1231952108,
  "nonce": 2358480167,
  "bits": "1d00ffff",
  "difficulty": 1,
  "chainwork": "000000000000000000000000000000000000000000000000000001e201e201e2",
  "nTx": 1,
  "previousblockhash": "00000000ee9b6376dab707bb146c445aedab4fc6518abf995acdb74ffb4be7ac",
  "nextblockhash": "00000000351892a119b67fcb13dfc9655e79e91215f8f9609bb6907cd1208e4d",
  "strippedsize": 216,
  "size": 216,
  "weight": 864,
  "tx": [
    {
      "txid": "49c28111bd99ecc06a5310d3c84ca6a09684d50bf6057e559d84d78067ec47c3",
      "hash": "49c28111bd99ecc06a5310d3c84ca6a09684d50bf6057e559d84d78067ec47c3",
      "version": 1,
      "size": 135,
      "vsize": 135,
      "weight": 540,
      "locktime": 0,
      "vin": [
        {
          "coinbase": "04ffff001d023104",
          "sequence": 4294967295
        }
      ],
      "vout": [
        {
          "value": 50.0,
          "n": 0,
          "scriptPubKey": {
            "asm": "04adfe2959d6d39fc2cbb6376a482bb83998a089ec5a11f28b1cdc0a1d4e2b12a2ea5ee2cc03d0f3df46bb833aa0210a8ddef4af86edc3ff35661f996aaf7c653f OP_CHECKSIG",
            "desc": "pk(04adfe2959d6d39fc2cbb6376a482bb83998a089ec5a11f28b1cdc0a1d4e2b12a2ea5ee2cc03d0f3df46bb833aa0210a8ddef4af86edc3ff35661f996aaf7c653f)#k38gacd7",
            "hex": "4104adfe2959d6d39fc2cbb6376a482bb83998a089ec5a11f28b1cdc0a1d4e2b12a2ea5ee2cc03d0f3df46bb833aa0210a8ddef4af86edc3ff35661f996aaf7c653fac",
            "type": "pubkey"
          }
        }
      ],
      "hex": "01000000010000000000000000000000000000000000000000000000000000000000000000ffffffff0804ffff001d023104ffffffff0100f2052a01000000434104adfe2959d6d39fc2cbb6376a482bb83998a089ec5a11f28b1cdc0a1d4e2b12a2ea5ee2cc03d0f3df46bb833aa0210a8ddef4af86edc3ff35661f996aaf7c653fac00000000"
    }
  ]
}