{
  "hash": "00000000a3111e554bc77cb60e769a1c5d179fc578cea7eccb5a0a4a7d862f53",
  "confirmations": 43415,
  "height": 9683,
  "version": 1,
  "versionHex": "00000001",
  "merkleroot": "a0d4df13a70fcb00a030bf0baa861f759c540af534c4ee7eab8ffc9bebded477",
  "time": 1238766691,
  "mediantime": 1238762394,
  "nonce": 1843069997,
  "bits": "1d00ffff",
  "difficulty": 1,
  "chainwork": "000000000000000000000000000000000000000000000000000025d425d425d4",
  "nTx": 1,
  "previousblockhash": "000000006ff67eeaf26c0b98aeedf32331b482de85fef8b9f1124803341f468a",
  "nextblockhash": "00000000f6028c9e60bb7ad158e3ccece8049e29c5b1aaf1bb42fdf92949fb65",
  "strippedsize": 216,
  "size": 216,
  "weight": 864,
  "tx": [
    {
      "txid": "a0d4df13a70fcb00a030bf0baa861f759c540af534c4ee7eab8ffc9bebded477",
      "hash": "a0d4df13a70fcb00a030bf0baa861f759c540af534c4ee7eab8ffc9bebded477",
      "version": 1,
      "size": 135,
      "vsize": 135,
      "weight": 540,
      "locktime": 0,
      "vin": [
        {
          "coinbase": "04ffff001d022008",
          "sequence": 4294967295
        }
      ],
      "vout": [
        {
          "value": 50.0,
          "n": 0,
          "scriptPubKey": {
            "asm": "042e61a0a5c3c95333ea59b14b652aa162e954f3daf7cc19b5953425ef43ae53635976cf1adc8c80e050660a183a22139f97dc3bd1d001c6011b34db30a6ae89a8 OP_CHECKSIG",
            "desc": "pk(042e61a0a5c3c95333ea59b14b652aa162e954f3daf7cc19b5953425ef43ae53635976cf1adc8c80e050660a183a22139f97dc3bd1d001c6011b34db30a6ae89a8)#en2msrvm",
            "hex": "41042e61a0a5c3c95333ea59b14b652aa162e954f3daf7cc19b5953425ef43ae53635976cf1adc8c80e050660a183a22139f97dc3bd1d001c6011b34db30a6ae89a8ac",
            "type": "pubkey"
          }
        }
      ],
      "hex": "01000000010000000000000000000000000000000000000000000000000000000000000000ffffffff0804ffff001d022008ffffffff0100f2052a010000004341042e61a0a5c3c95333ea59b14b652aa162e954f3daf7cc19b5953425ef43ae53635976cf1adc8c80e050660a183a22139f97dc3bd1d001c6011b34db30a6ae89a8ac00000000"
    }
  ]
}