{
  "hash": "000000005c6439ea5bc6a07069f0345b8a05a377fd7fb572aeb6f8a2d5dcae85",
  "confirmations": 51093,
  "height": 2005,
  "version": 1,
  "versionHex": "00000001",
  "merkleroot": "7866601a0f9b3b40e0b7ec5bec55034566e29d5a1bc7e075e09902efd7406ff9",
  "time": 1233051397,
  "mediantime": 1233046715,
  "nonce": 1557521952,
  "bits": "1d00ffff",
  "difficulty": 1,
  "chainwork": "000000000000000000000000000000000000000000000000000007d607d607d6",
  "nTx": 1,
  "previousblockhash": "000000000c49b18cd444599d03945b094ffb8ef7a8d62322fefe51276a274d25",
  "nextblockhash": "00000000bbfbcbca844093b288adfa9b76a96d75387eb3829c484f497f6665cc",
  "strippedsize": 216,
  "size": 216,
  "weight": 864,
  "tx": [
    {
      "txid": "7866601a0f9b3b40e0b7ec5bec55034566e29d5a1bc7e075e09902efd7406ff9",
      "hash": "7866601a0f9b3b40e0b7ec5bec55034566e29d5a1bc7e075e09902efd7406ff9",
      "version": 1,
      "size": 135,
      "vsize": 135,
      "weight": 540,
      "locktime": 0,
      "vin": [
        {
          "coinbase": "04ffff001d02bd01",
          "sequence": 4294967295
        }
      ],
      "vout": [
        {
          "value": 50.0,
          "n": 0,
          "scriptPubKey": {
            "asm": "0499ef7ddd823e67a7c4438cda3c4f07cabe3dd875845ba0e65cc4553a4e4d21c88e62297a702206fe065ed9c53c75547d88ebff059f0f29bef7229eb44b5b2c10 OP_CHECKSIG",
            "desc": "pk(0499ef7ddd823e67a7c4438cda3c4f07cabe3dd875845ba0e65cc4553a4e4d21c88e62297a702206fe065ed9c53c75547d88ebff059f0f29bef7229eb44b5b2c10)#tqn6g9vp",
            "hex": "410499ef7ddd823e67a7c4438cda3c4f07cabe3dd875845ba0e65cc4553a4e4d21c88e62297a702206fe065ed9c53c75547d88ebff059f0f29bef7229eb44b5b2c10ac",
            "type": "pubkey"
          }
        }
      ],
      "hex": "01000000010000000000000000000000000000000000000000000000000000000000000000ffffffff0804ffff001d02bd01ffffffff0100f2052a0100000043410499ef7ddd823e67a7c4438cda3c4f07cabe3dd875845ba0e65cc4553a4e4d21c88e62297a702206fe065ed9c53c75547d88ebff059f0f29bef7229eb44b5b2c10ac00000000"
    }
  ]
}