{
  "hash": "0000000011d68e7505461a2ae9aa7a9e4b4d3a010e6de8ae1d4e3bbcca98409b",
  "confirmations": 52030,
  "height": 307,
  "version": 1,
  "versionHex": "00000001",
  "merkleroot": "edcf0176cfbb5c2f69f881f921c11405c3350173769a5cf8d10f6352fbecf085",
  "time": 1231838493,
  "mediantime": 1231833861,
  "nonce": 3175039514,
  "bits": "1d00ffff",
  "difficulty": 1,
  "chainwork": "0000000000000000000000000000000000000000000000000000013401340134",
  "nTx": 1,
  "previousblockhash": "00000000ef3b918293d5b533a43ef16d95742b39f9a0372996814a180543c3b8",
  "nextblockhash": "000000008a2d970d0e70426780035154342a0416903899925cf9283e815da494",
  "strippedsize": 216,
  "size": 216,
  "weight": 864,
  "tx": [
    {
      "txid": "edcf0176cfbb5c2f69f881f921c11405c3350173769a5cf8d10f6352fbecf085",
      "hash": "edcf0176cfbb5c2f69f881f921c11405c3350173769a5cf8d10f6352fbecf085",
      "version": 1,
      "size": 135,
      "vsize": 135,
      "weight": 540,
      "locktime": 0,
      "vin": [
        {
          "coinbase": "04ffff001d02a000",
          "sequence": 4294967295
        }
      ],
      "vout": [
        {
          "value": 50.0,
          "n": 0,
          "scriptPubKey": {
            "asm": "041de9657ed4a975949f04deba8bace1ed6db61fec36cc909ce1c7ebb99d745e630a9d5c105606f3bb98479ad0d73ad7c7e25f99dc7b6357dae7928300bd131712 OP_CHECKSIG",
            "desc": "pk(041de9657ed4a975949f04deba8bace1ed6db61fec36cc909ce1c7ebb99d745e630a9d5c105606f3bb98479ad0d73ad7c7e25f99dc7b6357dae7928300bd131712)#w05wadwr",
            "hex": "41041de9657ed4a975949f04deba8bace1ed6db61fec36cc909ce1c7ebb99d745e630a9d5c105606f3bb98479ad0d73ad7c7e25f99dc7b6357dae7928300bd131712ac",
            "type": "pubkey"
          }
        }
      ],
      "hex": "01000000010000000000000000000000000000000000000000000000000000000000000000ffffffff0804ffff001d02a000ffffffff0100f2052a010000004341041de9657ed4a975949f04deba8bace1ed6db61fec36cc909ce1c7ebb99d745e630a9d5c105606f3bb98479ad0d73ad7c7e25f99dc7b6357dae7928300bd131712ac00000000"
    }
  ]
}