{
  "hash": "000000005e26f8f08a61a29b7465f2caa5f6cdabedc9acf740f9075c77041c85",
  "confirmations": 45552,
  "height": 7546,
  "version": 1,
  "versionHex": "00000001",
  "merkleroot": "d525171896ffd2525c2e650ee28b52b025db05676a169bacb300847bd4c3bebb",
  "time": 1237133162,
  "mediantime": 1237129268,
  "nonce": 162018851,
  "bits": "1d00ffff",
  "difficulty": 1,
  "chainwork": "00000000000000000000000000000000000000000000000000001d7b1d7b1d7b",
  "nTx": 1,
  "previousblockhash": "00000000beb17633e3ea62309f40d8ebc916c8b957514344927604e944e65026",
  "nextblockhash": "000000009984e4307136cbe38d1fbb6ff078f63e7269d9bd0bc73309be3cd202",
  "strippedsize": 216,
  "size": 216,
  "weight": 864,
  "tx": [
    {
      "txid": "d525171896ffd2525c2e650ee28b52b025db05676a169bacb300847bd4c3bebb",
      "hash": "d525171896ffd2525c2e650ee28b52b025db05676a169bacb300847bd4c3bebb",
      "version": 1,
      "size": 135,
      "vsize": 135,
      "weight": 540,
      "locktime": 0,
      "vin": [
        {
          "coinbase": "04ffff001d02d601",
          "sequence": 4294967295
        }
      ],
      "vout": [
        {
          "value": 50.0,
          "n": 0,
          "scriptPubKey": {
            "asm": "0455f69c0b9e52dbfde7b29d0f426ed88c20429e3ade2ec914709742151937d7c8d426a2b15c8b858181b02ae6f291933beb08f93679addfdb9d198871841d66c6 OP_CHECKSIG",
            "desc": "pk(0455f69c0b9e52dbfde7b29d0f426ed88c20429e3ade2ec914709742151937d7c8d426a2b15c8b858181b02ae6f291933beb08f93679addfdb9d198871841d66c6)#rrn07l07",
            "hex": "410455f69c0b9e52dbfde7b29d0f426ed88c20429e3ade2ec914709742151937d7c8d426a2b15c8b858181b02ae6f291933beb08f93679addfdb9d198871841d66c6ac",
            "type": "pubkey"
          }
        }
      ],
      "hex": "01000000010000000000000000000000000000000000000000000000000000000000000000ffffffff0804ffff001d02d601ffffffff0100f2052a0100000043410455f69c0b9e52dbfde7b29d0f426ed88c20429e3ade2ec914709742151937d7c8d426a2b15c8b858181b02ae6f291933beb08f93679addfdb9d198871841d66c6ac00000000"
    }
  ]
}