{
  "hash": "000000000340996d07978c91cb215f6127e76121ed880f6cbac74b82bb858dc6",
  "confirmations": 45721,
  "height": 7377,
  "version": 1,
  "versionHex": "00000001",
  "merkleroot": "1a8db59472d176fad4874936d71d690fb203c590f7839b01b7f29a4e342765d3",
  "time": 1237004352,
  "mediantime": 1236999172,
  "nonce": 2445940794,
  "bits": "1d00ffff",
  "difficulty": 1,
  "chainwork": "00000000000000000000000000000000000000000000000000001cd21cd21cd2",
  "nTx": 1,
  "previousblockhash": "0000000075ed8532f3b13ebb69ee7a2d9b3a22999e398b889af485d1b41fad85",
  "nextblockhash": "0000000025c5cf207c974ab573038440316d8d69a756180742d695d27c8e2a8b",
  "strippedsize": 216,
  "size": 216,
  "weight": 864,
  "tx": [
    {
      "txid": "1a8db59472d176fad4874936d71d690fb203c590f7839b01b7f29a4e342765d3",
      "hash": "1a8db59472d176fad4874936d71d690fb203c590f7839b01b7f29a4e342765d3",
      "version": 1,
      "size": 135,
      "vsize": 135,
      "weight": 540,
      "locktime": 0,
      "vin": [
        {
          "coinbase": "04ffff001d02f508",
          "sequence": 4294967295
        }
      ],
      "vout": [
        {
          "value": 50.0,
          "n": 0,
          "scriptPubKey": {
            "asm": "046e1de06059aee01d0d971a650b6c641446b615585be5fa65b471a8c3039e5b7a1a76d1c7986fe1a9fc57474df2c1c9ce6b12e96b71a662c8de1414eced2e16a5 OP_CHECKSIG",
            "desc": "pk(046e1de06059aee01d0d971a650b6c641446b615585be5fa65b471a8c3039e5b7a1a76d1c7986fe1a9fc57474df2c1c9ce6b12e96b71a662c8de1414eced2e16a5)#ap2670v3",
            "hex": "41046e1de06059aee01d0d971a650b6c641446b615585be5fa65b471a8c3039e5b7a1a76d1c7986fe1a9fc57474df2c1c9ce6b12e96b71a662c8de1414eced2e16a5ac",
            "type": "pubkey"
          }
        }
      ],
      "hex": "01000000010000000000000000000000000000000000000000000000000000000000000000ffffffff0804ffff001d02f508ffffffff0100f2052a010000004341046e1de06059aee01d0d971a650b6c641446b615585be5fa65b471a8c3039e5b7a1a76d1c7986fe1a9fc57474df2c1c9ce6b12e96b71a662c8de1414eced2e16a5ac00000000"
    }
  ]
}