{
  "hash": "00000000736261e46c3a1b5693816353226798a02847ba6c755d5f23ef3bf9bf",
  "confirmations": 43600,
  "height": 9498,
  "version": 1,
  "versionHex": "00000001",
  "merkleroot": "ad4875480330d2bc82c62ef51f06f5875374b39d21da512c747db2b6202d76f4",
  "time": 1238627089,
  "mediantime": 1238623511,
  "nonce": 1234878764,
  "bits": "1d00ffff",
  "difficulty": 1,
  "chainwork": "0000000000000000000000000000000000000000000000000000251b251b251b",
  "nTx": 1,
  "previousblockhash": "00000000369c1224472d510f1f62c6a65fa4927b957b84b60b82a8a22296cb01",
  "nextblockhash": "00000000a54d999e432694f2a5a94a2af153af7647dc830b913d1745a51184b5",
  "strippedsize": 216,
  "size": 216,
  "weight": 864,
  "tx": [
    {
      "txid": "ad4875480330d2bc82c62ef51f06f5875374b39d21da512c747db2b6202d76f4",
      "hash": "ad4875480330d2bc82c62ef51f06f5875374b39d21da512c747db2b6202d76f4",
      "version": 1,
      "size": 135,
      "vsize": 135,
      "weight": 540,
      "locktime": 0,
      "vin": [
        {
          "coinbase": "04ffff001d026b05",
          "sequence": 4294967295
        }
      ],
      "vout": [
        {
          "value": 50.0,
          "n": 0,
          "scriptPubKey": {
            "asm": "04c77c76f5e19818be0d990e6d31e5eddf0fbfb28ede1e6ea1f3eb96c709f9eab6fcc5e798d5406c0f0c500e74a4da33f1db5698e800a7a7b67e9113e108ddad66 OP_CHECKSIG",
            "desc": "pk(04c77c76f5e19818be0d990e6d31e5eddf0fbfb28ede1e6ea1f3eb96c709f9eab6fcc5e798d5406c0f0c500e74a4da33f1db5698e800a7a7b67e9113e108ddad66)#y7hcfmm3",
            "hex": "4104c77c76f5e19818be0d990e6d31e5eddf0fbfb28ede1e6ea1f3eb96c709f9eab6fcc5e798d5406c0f0c500e74a4da33f1db5698e800a7a7b67e9113e108ddad66ac",
            "type": "pubkey"
          }
        }
      ],
      "hex": "01000000010000000000000000000000000000000000000000000000000000000000000000ffffffff0804ffff001d026b05ffffffff0100f2052a01000000434104c77c76f5e19818be0d990e6d31e5eddf0fbfb28ede1e6ea1f3eb96c709f9eab6fcc5e798d5406c0f0c500e74a4da33f1db5698e800a7a7b67e9113e108ddad66ac00000000"
    }
  ]
}