{
  "hash": "00000000fa60124bc1a57f4eec7b1cdae1148ea86fbb40c35ead58d218585f63",
  "confirmations": 44777,
  "height": 8321,
  "version": 1,
  "versionHex": "00000001",
  "merkleroot": "23bfc6bc700581385acdc7e7fe5a0c47c311fdc3eebba5a754368d0c8bc2c448",
  "time": 1237744453,
  "mediantime": 1237739784,
  "nonce": 862649125,
  "bits": "1d00ffff",
  "difficulty": 1,
  "chainwork": "0000000000000000000000000000000000000000000000000000208220822082",
  "nTx": 1,
  "previousblockhash": "00000000d96167cac0bbeac6a34b49adf15e22902692945254e8dec6d1d8415c",
  "nextblockhash": "00000000395ea999e12411a0ba0c98c84010117b5fec5b3fa395a66114bb53f8",
  "strippedsize": 216,
  "size": 216,
  "weight": 864,
  "tx": [
    {
      "txid": "23bfc6bc700581385acdc7e7fe5a0c47c311fdc3eebba5a754368d0c8bc2c448",
      "hash": "23bfc6bc700581385acdc7e7fe5a0c47c311fdc3eebba5a754368d0c8bc2c448",
      "version": 1,
      "size": 135,
      "vsize": 135,
      "weight": 540,
      "locktime": 0,
      "vin": [
        {
          "coinbase": "04ffff001d026504",
          "sequence": 4294967295
        }
      ],
      "vout": [
        {
          "value": 50.0,
          "n": 0,
          "scriptPubKey": {
            "asm": "045f600135fe5bf30c0b8e757db2dd564ce82cbf1351df174e426ed2a115af303abede2f24182521cc1f4a2bbd12557124cab19e0539ff09334d0e1bd81cb0f272 OP_CHECKSIG",
            "desc": "pk(045f600135fe5bf30c0b8e757db2dd564ce82cbf1351df174e426ed2a115af303abede2f24182521cc1f4a2bbd12557124cab19e0539ff09334d0e1bd81cb0f272)#qggv2gja",
            "hex": "41045f600135fe5bf30c0b8e757db2dd564ce82cbf1351df174e426ed2a115af303abede2f24182521cc1f4a2bbd12557124cab19e0539ff09334d0e1bd81cb0f272ac",
            "type": "pubkey"
          }
        }
      ],
      "hex": "01000000010000000000000000000000000000000000000000000000000000000000000000ffffffff0804ffff001d026504ffffffff0100f2052a010000004341045f600135fe5bf30c0b8e757db2dd564ce82cbf1351df174e426ed2a115af303abede2f24182521cc1f4a2bbd12557124cab19e0539ff09334d0e1bd81cb0f272ac00000000"
    }
  ]
}