{
  "hash": "00000000d3dc73a054e18dcba96273a2a8017ffb6533d09cd0c1db1df8756d73",
  "confirmations": 47072,
  "height": 6026,
  "version": 1,
  "versionHex": "00000001",
  "merkleroot": "396bf405fa3796ca5200b2b4e12a0b177767310478809a78ce4e07145321eea7",
  "time": 1235950584,
  "mediantime": 1235945452,
  "nonce": 1749449262,
  "bits": "1d00ffff",
  "difficulty": 1,
  "chainwork": "0000000000000000000000000000000000000000000000000000178b178b178b",
  "nTx": 1,
  "previousblockhash": "00000000218e64fdb5bd5e8d1a798da284c2fdbe26d966ce6851b54f4933cf41",
  "nextblockhash": "00000000946f4004e9a9604e72fdcf606f8d01cda4d73f0b51798cf2b454b243",
  "strippedsize": 216,
  "size": 216,
  "weight": 864,
  "tx": [
    {
      "txid": "396bf405fa3796ca5200b2b4e12a0b177767310478809a78ce4e07145321eea7",
      "hash": "396bf405fa3796ca5200b2b4e12a0b177767310478809a78ce4e07145321eea7",
      "version": 1,
      "size": 135,
      "vsize": 135,
      "weight": 540,
      "locktime": 0,
      "vin": [
        {
          "coinbase": "04ffff001d026805",
          "sequence": 4294967295
        }
      ],
      "vout": [
        {
          "value": 50.0,
          "n": 0,
          "scriptPubKey": {
            "asm": "04ce88dcb3ac1d9624997847d2f8a8a0ca6f59a762805323aec6d1a6f9e51337ee0ec9e5d3382088a9f19a4e4d9505f6de54e587996f5b49300a960a43054a43d9 OP_CHECKSIG",
            "desc": "pk(04ce88dcb3ac1d9624997847d2f8a8a0ca6f59a762805323aec6d1a6f9e51337ee0ec9e5d3382088a9f19a4e4d9505f6de54e587996f5b49300a960a43054a43d9)#a3u35gt0",
            "hex": "4104ce88dcb3ac1d9624997847d2f8a8a0ca6f59a762805323aec6d1a6f9e51337ee0ec9e5d3382088a9f19a4e4d9505f6de54e587996f5b49300a960a43054a43d9ac",
            "type": "pubkey"
          }
        }
      ],
      "hex": "01000000010000000000000000000000000000000000000000000000000000000000000000ffffffff0804ffff001d026805ffffffff0100f2052a01000000434104ce88dcb3ac1d9624997847d2f8a8a0ca6f59a762805323aec6d1a6f9e51337ee0ec9e5d3382088a9f19a4e4d9505f6de54e587996f5b49300a960a43054a43d9ac00000000"
    }
  ]
}