{
  "hash": "000000005f65e257463e644ea951e4146200de16272557610e806b79d8aef60f",
  "confirmations": 43136,
  "height": 9962,
  "version": 1,
  "versionHex": "00000001",
  "merkleroot": "683524bad0d83cf037a7d6c67887a1f96d7e94c6b8a53eefe102fb85cd1728a0",
  "time": 1238964216,
  "mediantime": 1238960754,
  "nonce": 1431176739,
  "bits": "1d00ffff",
  "difficulty": 1,
  "chainwork": "000000000000000000000000000000000000000000000000000026eb26eb26eb",
  "nTx": 3,
  "previousblockhash": "00000000d7f6d30acba819b86045a6b8ce5d9632f30525d162662bb43efacc18",
  "nextblockhash": "000000008be5e6accefdb72a72d470f4e52c32cb3a4728f6b4da46d34bcaaa93",
  "strippedsize": 2240,
  "size": 2240,
  "weight": 8960,
  "tx": [
    {
      "txid": "888bb33bd3374c7dc169c2fae34c8f2529594ffb8fe18d5e33f7a9e48ba39b44",
      "hash": "888bb33bd3374c7dc169c2fae34c8f2529594ffb8fe18d5e33f7a9e48ba39b44",
      "version": 1,
      "size": 135,
      "vsize": 135,
      "weight": 540,
      "locktime": 0,
      "vin": [
        {
          "coinbase": "04ffff001d02e102",
          "sequence": 4294967295
        }
      ],
      "vout": [
        {
          "value": 50.0,
          "n": 0,
          "scriptPubKey": {
            "asm": "04624a701333beb102f1de4ac6ebc5652a7366bf0705750a1472d6ccdb641e8f38f803863344158340d93764b819cb6ccf919ddc9b1bdcf7960dcb8afec65b99f2 OP_CHECKSIG",
            "desc": "pk(04624a701333beb102f1de4ac6ebc5652a7366bf0705750a1472d6ccdb641e8f38f803863344158340d93764b819cb6ccf919ddc9b1bdcf7960dcb8afec65b99f2)#tqvc8fh3",
            "hex": "4104624a701333beb102f1de4ac6ebc5652a7366bf0705750a1472d6ccdb641e8f38f803863344158340d93764b819cb6ccf919ddc9b1bdcf7960dcb8afec65b99f2ac",
            "type": "pubkey"
          }
        }
      ],
      "hex": "01000000010000000000000000000000000000000000000000000000000000000000000000ffffffff0804ffff001d02e102ffffffff0100f2052a01000000434104624a701333beb102f1de4ac6ebc5652a7366bf0705750a1472d6ccdb641e8f38f803863344158340d93764b819cb6ccf919ddc9b1bdcf7960dcb8afec65b99f2ac00000000"
    },
    {
      "txid": "146fbdc9a5bf4800b83d1e0b7022d6e554f93143f10f09600b4e55f879d472bd",
      "hash": "146fbdc9a5bf4800b83d1e0b7022d6e554f93143f10f09600b4e55f879d472bd",
      "version": 1,
      "size": 271,
      "vsize": 271,
      "weight": 1084,
      "locktime": 0,
      "vin": [
        {
          "txid": "fff8a9ffacadeb420c4ff9ef9e8f3f767622631cdf9507634e6cd1e885b0adb1",
          "vout": 0,
          "scriptSig": {
            "asm": "304402207464ba81972b8aefa8023f320671c1586f0cadd3db6951c9319522482e9c7d39022007f29258b15793cb6040d1048af686032d494cc454937d46bd6d949eb566061f[ALL]",
            "hex": "47304402207464ba81972b8aefa8023f320671c1586f0cadd3db6951c9319522482e9c7d39022007f29258b15793cb6040d1048af686032d494cc454937d46bd6d949eb566061f01"
          },
          "sequence": 4294967295
        },
        {
          "txid": "726d3367d6ae6e54dba85256d56ece082d70c4ccb3c1d992389d45c3589383c3",
          "vout": 0,
          "scriptSig": {
            "asm": "30450220238fd9471e8ed836d401ef1f6584ac96582a072b112a9f54869d62cb44f01f8f022100a167f6460b2e750087e29023929eebf6b830cab760bc5cdae9ad6acba8d4d08a[ALL]",
            "hex": "4830450220238fd9471e8ed836d401ef1f6584ac96582a072b112a9f54869d62cb44f01f8f022100a167f6460b2e750087e29023929eebf6b830cab760bc5cdae9ad6acba8d4d08a01"
          },
          "sequence": 4294967295
        }
      ],
      "vout": [
        {
          "value": 100.0,
          "n": 0,
          "scriptPubKey": {
            "asm": "OP_DUP OP_HASH160 592fc3990026334c8c6fb2b9da457179cdb5c688 OP_EQUALVERIFY OP_CHECKSIG",
            "desc": "addr(198aMn6ZYAczwrE5NvNTUMyJ5qkfy4g3Hi)#k9ndhvwd",
            "hex": "76a914592fc3990026334c8c6fb2b9da457179cdb5c68888ac",
            "address": "198aMn6ZYAczwrE5NvNTUMyJ5qkfy4g3Hi",
            "type": "pubkeyhash"
          }
        }
      ],
      "fee": 0.0,
      "hex": "0100000002b1adb085e8d16c4e630795df1c632276763f8f9eeff94f0c42ebadacffa9f8ff000000004847304402207464ba81972b8aefa8023f320671c1586f0cadd3db6951c9319522482e9c7d39022007f29258b15793cb6040d1048af686032d494cc454937d46bd6d949eb566061f01ffffffffc3839358c3459d3892d9c1b3ccc4702d08ce6ed55652a8db546eaed667336d7200000000494830450220238fd9471e8ed836d401ef1f6584ac96582a072b112a9f54869d62cb44f01f8f022100a167f6460b2e750087e29023929eebf6b830cab760bc5cdae9ad6acba8d4d08a01ffffffff0100e40b54020000001976a914592fc3990026334c8c6fb2b9da457179cdb5c68888ac00000000"
    },
    {
      "txid": "7eca6143f94eb7beac2a23506bc3ff0adaa0c9c9aeec71d7022e9b31f661c984",
      "hash": "7eca6143f94eb7beac2a23506bc3ff0adaa0c9c9aeec71d7022e9b31f661c984",
      "version": 1,
      "size": 1753,
      "vsize": 1753,
      "weight": 7012,
      "locktime": 0,
      "vin": [
        {
          "txid": "a06d267838dd0b867e229662fa7462f0a09733d7b20403d5c8e589eeb84e5303",
          "vout": 0,
          "scriptSig": {
            "asm": "30450220770b1edd540d2d9697ae762c6b39e3a639b9d8a65ac94977e8c7c3f228b6aa35022100a2a9d2fa7803e5976b1dd29451e10d6c3f50f9f099f9b5331a10b6760ede7727[ALL]",
            "hex": "4830450220770b1edd540d2d9697ae762c6b39e3a639b9d8a65ac94977e8c7c3f228b6aa35022100a2a9d2fa7803e5976b1dd29451e10d6c3f50f9f099f9b5331a10b6760ede772701"
          },
          "sequence": 4294967295
        },
        {
          "txid": "068134aeec3016706d7f2281e2b8f66e97471b44d425c25cd7529b831b2bcb0d",
          "vout": 0,
          "scriptSig": {
            "asm": "30440220392c50050499c33860f546433f0717c0bd886cf100f90ce5fd8fd94fc8fa388202203443c4b252d71ff25e5a1e90df8964641759a22f039a715c25e810ec6bd5999c[ALL]",
            "hex": "4730440220392c50050499c33860f546433f0717c0bd886cf100f90ce5fd8fd94fc8fa388202203443c4b252d71ff25e5a1e90df8964641759a22f039a715c25e810ec6bd5999c01"
          },
          "sequence": 4294967295
        },
        {
          "txid": "77d7c37df0f2daeeb418e688ca70a1e025d2bef265e4ecf2311af73058944627",
          "vout": 0,
          "scriptSig": {
            "asm": "3044022040ae6d8abeaf2b1e41e8ed0b9ca2dbb53f838d6c541c44597afea10fb6f8731202207b540f029a54175c76eb86e0cfcf35f654d3479c6395b88c2cccf20176576a6d[ALL]",
            "hex": "473044022040ae6d8abeaf2b1e41e8ed0b9ca2dbb53f838d6c541c44597afea10fb6f8731202207b540f029a54175c76eb86e0cfcf35f654d3479c6395b88c2cccf20176576a6d01"
          },
          "sequence": 4294967295
        },
        {
          "txid": "cadd9b89d8ca41170da3bbe3521c4c2f9cbbb32c788a0f803cf65e8e00937a2c",
          "vout": 0,
          "scriptSig": {
            "asm": "3045022100c233303b4c40f08329f249324b7c9d0dd8ee874f69df117bc906a18af5ef83e002201f137efde427642f17e23f0097e05952e7b1512ec8c14d2bfe2ac8ca3bbc9e9a[ALL]",
            "hex": "483045022100c233303b4c40f08329f249324b7c9d0dd8ee874f69df117bc906a18af5ef83e002201f137efde427642f17e23f0097e05952e7b1512ec8c14d2bfe2ac8ca3bbc9e9a01"
          },
          "sequence": 4294967295
        },
        {
          "txid": "fde34af456778597d2de1109cc3b19ce5328f9ffb3c044dcac0edc83b1e03435",
          "vout": 0,
          "scriptSig": {
            "asm": "3046022100970053b792929bf0ebd45d3cc1e60d4b6a4d2a91c7d8245d0201fbec912dbe14022100f03c4ee2de8e4a3e57a74e325dc9e127b8a546e60572f33129196514c71606db[ALL]",
            "hex": "493046022100970053b792929bf0ebd45d3cc1e60d4b6a4d2a91c7d8245d0201fbec912dbe14022100f03c4ee2de8e4a3e57a74e325dc9e127b8a546e60572f33129196514c71606db01"
          },
          "sequence": 4294967295
        },
        {
          "txid": "9e51c202fb5b41f9d0b3d249ad9f51e880fbf45244f7a07d1a519e26eb3fd24b",
          "vout": 0,
          "scriptSig": {
            "asm": "3045022070bb8a3ee70d18d11a2a574817bb32e934a858f04d0d07a0336b78b1962d91c6022100d44a050accb151b34c3dd467dfe921d0758fbaeb40707a2a983b8026b8f447ab[ALL]",
            "hex": "483045022070bb8a3ee70d18d11a2a574817bb32e934a858f04d0d07a0336b78b1962d91c6022100d44a050accb151b34c3dd467dfe921d0758fbaeb40707a2a983b8026b8f447ab01"
          },
          "sequence": 4294967295
        },
        {
          "txid": "ddbb71c171af5f0971eb1f3855c266d65b3d36edeefe7d274ea24b14e72c654c",
          "vout": 0,
          "scriptSig": {
            "asm": "3045022100bcab9a219bd6c534fbaa311e00c53bd74a6870614ac0470ef6cf773e69ef6b0f02201c82b9292e8a9b6629ee5b6319627187c3d46322f1978aae1839a3538cc99b4a[ALL]",
            "hex": "483045022100bcab9a219bd6c534fbaa311e00c53bd74a6870614ac0470ef6cf773e69ef6b0f02201c82b9292e8a9b6629ee5b6319627187c3d46322f1978aae1839a3538cc99b4a01"
          },
          "sequence": 4294967295
        },
        {
          "txid": "cafa794be400056b3351a36ca55e44d6e1a080ca1a12a857fbfcabcb050aa159",
          "vout": 0,
          "scriptSig": {
            "asm": "3045022100a6e00934d0d258cb3b885c355968c9787db4156c55218714ea0fb037df29e0df02200bcdb7d98fcbdfb6c407cf47bdc731dea78a3b958b4717db15f77670be55cb6c[ALL]",
            "hex": "483045022100a6e00934d0d258cb3b885c355968c9787db4156c55218714ea0fb037df29e0df02200bcdb7d98fcbdfb6c407cf47bdc731dea78a3b958b4717db15f77670be55cb6c01"
          },
          "sequence": 4294967295
        },
        {
          "txid": "ed85a49947cf823e122b3b76fb27cc68254cdac51c143abbf9a5f2b4c089ef64",
          "vout": 0,
          "scriptSig": {
            "asm": "30460221009529962822dc8ff09ebb8905019f578504af0edef0de9da568ae4d7ab7c5f656022100884b3a6ed27eebdd26215dfc423d80703480d59e03da9d5b608b9e14172c63ba[ALL]",
            "hex": "4930460221009529962822dc8ff09ebb8905019f578504af0edef0de9da568ae4d7ab7c5f656022100884b3a6ed27eebdd26215dfc423d80703480d59e03da9d5b608b9e14172c63ba01"
          },
          "sequence": 4294967295
        },
        {
          "txid": "3d482937730b5f2983d5e36803017d510c5e53c0ccc8bb7e55b600516d74dd7b",
          "vout": 0,
          "scriptSig": {
            "asm": "3044022038e2f192c7bae4ff6604f288ef02315406fb71aa47c0e8c95612faa6d11ed0ca0220765ba45df4ac56b2dbadfecaa2014ffe3f945e61f2cad01f6d66ee6fcb12ca34[ALL]",
            "hex": "473044022038e2f192c7bae4ff6604f288ef02315406fb71aa47c0e8c95612faa6d11ed0ca0220765ba45df4ac56b2dbadfecaa2014ffe3f945e61f2cad01f6d66ee6fcb12ca3401"
          },
          "sequence": 4294967295
        },
        {
          "txid": "e68ca7a49dda6a746ca2f45f04bd690796cd45f17145b34390be41c10c116cb1",
          "vout": 0,
          "scriptSig": {
            "asm": "3045022100e6ec32c12a0180b75a8a3be7b6c61a7f443f72a621d2037b136da3a5d7cba88a0220411d7da528a8befdda1491301587f4c995d0fc747c279483dc18310f564853f4[ALL]",
            "hex": "483045022100e6ec32c12a0180b75a8a3be7b6c61a7f443f72a621d2037b136da3a5d7cba88a0220411d7da528a8befdda1491301587f4c995d0fc747c279483dc18310f564853f401"
          },
          "sequence": 4294967295
        },
        {
          "txid": "407b1b915f1ba66f6a57f6db61578f2a74026ecb00d253daa8d4c22e99789eb8",
          "vout": 0,
          "scriptSig": {
            "asm": "3046022100d1e613eb7593a873a902c4136d17765970ceea17f08af50313fe049d13e40651022100e8bffd4a5491227705c2c728e0b1df31d8f38db0c39055ee7babfd1f8660552c[ALL]",
            "hex": "493046022100d1e613eb7593a873a902c4136d17765970ceea17f08af50313fe049d13e40651022100e8bffd4a5491227705c2c728e0b1df31d8f38db0c39055ee7babfd1f8660552c01"
          },
          "sequence": 4294967295
        },
        {
          "txid": "0f8097cffdc83fbbc10ded74bfa35c627ac38643c40b10a9eb332aad87fa91bd",
          "vout": 0,
          "scriptSig": {
            "asm": "30440220685f624770ff9f3f6fdbde5142a0ce0d4ffe259d18000fdba13fa5c09160d34702202e6b3170fc1794b49a14dc2080cdab2aec5daace2b1c8e854721df75daf63f93[ALL]",
            "hex": "4730440220685f624770ff9f3f6fdbde5142a0ce0d4ffe259d18000fdba13fa5c09160d34702202e6b3170fc1794b49a14dc2080cdab2aec5daace2b1c8e854721df75daf63f9301"
          },
          "sequence": 4294967295
        },
        {
          "txid": "3172c1499bf9f1ed0444798412fd60dbef22b716166e3b7adcecefc24895faf3",
          "vout": 0,
          "scriptSig": {
            "asm": "3045022100b1c6983bbf8e227ce5b50b31ffb7ad0ed962a446d834d7d5cf1aea901c7c73fa0220220d1c8d6c9cd656e6154ba0c8189145c6d2caca360d8c535c1fce897db2ac31[ALL]",
            "hex": "483045022100b1c6983bbf8e227ce5b50b31ffb7ad0ed962a446d834d7d5cf1aea901c7c73fa0220220d1c8d6c9cd656e6154ba0c8189145c6d2caca360d8c535c1fce897db2ac3101"
          },
          "sequence": 4294967295
        },
        {
          "txid": "0e52079245af5405761b2e67bdee68044a1676046c5b9ec34644370ecb66c8fa",
          "vout": 0,
          "scriptSig": {
            "asm": "304502202320a75d869227a289d2e92e48409632e808e59bb115a26bb143531aec6e080f022100be16e610c141938453ee11f953964cfe9fdf70b522e4df585a854429138313b9[ALL]",
            "hex": "48304502202320a75d869227a289d2e92e48409632e808e59bb115a26bb143531aec6e080f022100be16e610c141938453ee11f953964cfe9fdf70b522e4df585a854429138313b901"
          },
          "sequence": 4294967295
        }
      ],
      "vout": [
        {
          "value": 750.0,
          "n": 0,
          "scriptPubKey": {
            "asm": "OP_DUP OP_HASH160 592fc3990026334c8c6fb2b9da457179cdb5c688 OP_EQUALVERIFY OP_CHECKSIG",
            "desc": "addr(198aMn6ZYAczwrE5NvNTUMyJ5qkfy4g3Hi)#k9ndhvwd",
            "hex": "76a914592fc3990026334c8c6fb2b9da457179cdb5c68888ac",
            "address": "198aMn6ZYAczwrE5NvNTUMyJ5qkfy4g3Hi",
            "type": "pubkeyhash"
          }
        }
      ],
      "fee": 0.0,
      "hex": "010000000f03534eb8ee89e5c8d50304b2d73397a0f06274fa6296227e860bdd3878266da000000000494830450220770b1edd540d2d9697ae762c6b39e3a639b9d8a65ac94977e8c7c3f228b6aa35022100a2a9d2fa7803e5976b1dd29451e10d6c3f50f9f099f9b5331a10b6760ede772701ffffffff0dcb2b1b839b52d75cc225d4441b47976ef6b8e281227f6d701630ecae34810600000000484730440220392c50050499c33860f546433f0717c0bd886cf100f90ce5fd8fd94fc8fa388202203443c4b252d71ff25e5a1e90df8964641759a22f039a715c25e810ec6bd5999c01ffffffff2746945830f71a31f2ece465f2bed225e0a170ca88e618b4eedaf2f07dc3d7770000000048473044022040ae6d8abeaf2b1e41e8ed0b9ca2dbb53f838d6c541c44597afea10fb6f8731202207b540f029a54175c76eb86e0cfcf35f654d3479c6395b88c2cccf20176576a6d01ffffffff2c7a93008e5ef63c800f8a782cb3bb9c2f4c1c52e3bba30d1741cad8899bddca0000000049483045022100c233303b4c40f08329f249324b7c9d0dd8ee874f69df117bc906a18af5ef83e002201f137efde427642f17e23f0097e05952e7b1512ec8c14d2bfe2ac8ca3bbc9e9a01ffffffff3534e0b183dc0eacdc44c0b3fff92853ce193bcc0911ded297857756f44ae3fd000000004a493046022100970053b792929bf0ebd45d3cc1e60d4b6a4d2a91c7d8245d0201fbec912dbe14022100f03c4ee2de8e4a3e57a74e325dc9e127b8a546e60572f33129196514c71606db01ffffffff4bd23feb269e511a7da0f74452f4fb80e8519fad49d2b3d0f9415bfb02c2519e0000000049483045022070bb8a3ee70d18d11a2a574817bb32e934a858f04d0d07a0336b78b1962d91c6022100d44a050accb151b34c3dd467dfe921d0758fbaeb40707a2a983b8026b8f447ab01ffffffff4c652ce7144ba24e277dfeeeed363d5bd666c255381feb71095faf71c171bbdd0000000049483045022100bcab9a219bd6c534fbaa311e00c53bd74a6870614ac0470ef6cf773e69ef6b0f02201c82b9292e8a9b6629ee5b6319627187c3d46322f1978aae1839a3538cc99b4a01ffffffff59a10a05cbabfcfb57a8121aca80a0e1d6445ea56ca351336b0500e44b79faca0000000049483045022100a6e00934d0d258cb3b885c355968c9787db4156c55218714ea0fb037df29e0df02200bcdb7d98fcbdfb6c407cf47bdc731dea78a3b958b4717db15f77670be55cb6c01ffffffff64ef89c0b4f2a5f9bb3a141cc5da4c2568cc27fb763b2b123e82cf4799a485ed000000004a4930460221009529962822dc8ff09ebb8905019f578504af0edef0de9da568ae4d7ab7c5f656022100884b3a6ed27eebdd26215dfc423d80703480d59e03da9d5b608b9e14172c63ba01ffffffff7bdd746d5100b6557ebbc8ccc0535e0c517d010368e3d583295f0b733729483d0000000048473044022038e2f192c7bae4ff6604f288ef02315406fb71aa47c0e8c95612faa6d11ed0ca0220765ba45df4ac56b2dbadfecaa2014ffe3f945e61f2cad01f6d66ee6fcb12ca3401ffffffffb16c110cc141be9043b34571f145cd960769bd045ff4a26c746ada9da4a78ce60000000049483045022100e6ec32c12a0180b75a8a3be7b6c61a7f443f72a621d2037b136da3a5d7cba88a0220411d7da528a8befdda1491301587f4c995d0fc747c279483dc18310f564853f401ffffffffb89e78992ec2d4a8da53d200cb6e02742a8f5761dbf6576a6fa61b5f911b7b40000000004a493046022100d1e613eb7593a873a902c4136d17765970ceea17f08af50313fe049d13e40651022100e8bffd4a5491227705c2c728e0b1df31d8f38db0c39055ee7babfd1f8660552c01ffffffffbd91fa87ad2a33eba9100bc44386c37a625ca3bf74ed0dc1bb3fc8fdcf97800f00000000484730440220685f624770ff9f3f6fdbde5142a0ce0d4ffe259d18000fdba13fa5c09160d34702202e6b3170fc1794b49a14dc2080cdab2aec5daace2b1c8e854721df75daf63f9301fffffffff3fa9548c2efecdc7a3b6e1616b722efdb60fd1284794404edf1f99b49c172310000000049483045022100b1c6983bbf8e227ce5b50b31ffb7ad0ed962a446d834d7d5cf1aea901c7c73fa0220220d1c8d6c9cd656e6154ba0c8189145c6d2caca360d8c535c1fce897db2ac3101fffffffffac866cb0e374446c39e5b6c0476164a0468eebd672e1b760554af459207520e000000004948304502202320a75d869227a289d2e92e48409632e808e59bb115a26bb143531aec6e080f022100be16e610c141938453ee11f953964cfe9fdf70b522e4df585a854429138313b901ffffffff01002e5976110000001976a914592fc3990026334c8c6fb2b9da457179cdb5c68888ac00000000"
    }
  ]
}