{
  "hash": "000000000b9b127df1ddd724973613e688ec8e8e8381ec893768e40c0bcb1026",
  "confirmations": 51207,
  "height": 1891,
  "version": 1,
  "versionHex": "00000001",
  "merkleroot": "90954f72274ad279e9b7257b61df5b00bed7e418ec153e2027e6438fde491f4c",
  "time": 1232940769,
  "mediantime": 1232938776,
  "nonce": 4131331620,
  "bits": "1d00ffff",
  "difficulty": 1,
  "chainwork": "0000000000000000000000000000000000000000000000000000076407640764",
  "nTx": 1,
  "previousblockhash": "00000000a8a51545d4f832bdc7d613721795024a022ee5146358045179e1b022",
  "nextblockhash": "000000002a4816882c1c3c88a8f79ac8a5c760dd2f941148e80226024a56d74d",
  "strippedsize": 216,
  "size": 216,
  "weight": 864,
  "tx": [
    {
      "txid": "90954f72274ad279e9b7257b61df5b00bed7e418ec153e2027e6438fde491f4c",
      "hash": "90954f72274ad279e9b7257b61df5b00bed7e418ec153e2027e6438fde491f4c",
      "version": 1,
      "size": 135,
      "vsize": 135,
      "weight": 540,
      "locktime": 0,
      "vin": [
        {
          "coinbase": "04ffff001d022605",
          "sequence": 4294967295
        }
      ],
      "vout": [
        {
          "value": 50.0,
          "n": 0,
          "scriptPubKey": {
            "asm": "04cfe8e2bdf145a13502230ade1ed5c66986bba95318263f1574f80ee151518051bb840e0320d19dfc616f57a72489ac8b4b064e553b9915190061a9169f3ee33d OP_CHECKSIG",
            "desc": "pk(04cfe8e2bdf145a13502230ade1ed5c66986bba95318263f1574f80ee151518051bb840e0320d19dfc616f57a72489ac8b4b064e553b9915190061a9169f3ee33d)#my6gpeuv",
            "hex": "4104cfe8e2bdf145a13502230ade1ed5c66986bba95318263f1574f80ee151518051bb840e0320d19dfc616f57a72489ac8b4b064e553b9915190061a9169f3ee33dac",
            "type": "pubkey"
          }
        }
      ],
      "hex": "01000000010000000000000000000000000000000000000000000000000000000000000000ffffffff0804ffff001d022605ffffffff0100f2052a01000000434104cfe8e2bdf145a13502230ade1ed5c66986bba95318263f1574f80ee151518051bb840e0320d19dfc616f57a72489ac8b4b064e553b9915190061a9169f3ee33dac00000000"
    }
  ]
}