{
  "hash": "00000000526004111d4119e7986346e8fb5fc24619452dd5edf281ae63273287",
  "confirmations": 47250,
  "height": 5848,
  "version": 1,
  "versionHex": "00000001",
  "merkleroot": "e6e320afbc3dec35d6741cbd4cc0bf9c64f7b38946aeb4b6ddcd281a16596d88",
  "time": 1235800014,
  "mediantime": 1235794841,
  "nonce": 2623152675,
  "bits": "1d00ffff",
  "difficulty": 1,
  "chainwork": "000000000000000000000000000000000000000000000000000016d916d916d9",
  "nTx": 1,
  "previousblockhash": "00000000224fcce8879d3247c3200c3274e0706641a36b950382a7c1c05a83e9",
  "nextblockhash": "000000004e0681c56296ec7b351243e40d17e7bcd90f4a1664266a95c5a1442a",
  "strippedsize": 216,
  "size": 216,
  "weight": 864,
  "tx": [
    {
      "txid": "e6e320afbc3dec35d6741cbd4cc0bf9c64f7b38946aeb4b6ddcd281a16596d88",
      "hash": "e6e320afbc3dec35d6741cbd4cc0bf9c64f7b38946aeb4b6ddcd281a16596d88",
      "version": 1,
      "size": 135,
      "vsize": 135,
      "weight": 540,
      "locktime": 0,
      "vin": [
        {
          "coinbase": "04ffff001d02ae01",
          "sequence": 4294967295
        }
      ],
      "vout": [
        {
          "value": 50.0,
          "n": 0,
          "scriptPubKey": {
            "asm": "0487bd78fe34ae11626f1469071bf450e42d113061d83c2c0ac41e25f044c5924a9c44bf8c2878cbc2344b4e308f3cf2d4a063dd4f36bd2ca7815334aa18e08c2c OP_CHECKSIG",
            "desc": "pk(0487bd78fe34ae11626f1469071bf450e42d113061d83c2c0ac41e25f044c5924a9c44bf8c2878cbc2344b4e308f3cf2d4a063dd4f36bd2ca7815334aa18e08c2c)#h3rswff2",
            "hex": "410487bd78fe34ae11626f1469071bf450e42d113061d83c2c0ac41e25f044c5924a9c44bf8c2878cbc2344b4e308f3cf2d4a063dd4f36bd2ca7815334aa18e08c2cac",
            "type": "pubkey"
          }
        }
      ],
      "hex": "01000000010000000000000000000000000000000000000000000000000000000000000000ffffffff0804ffff001d02ae01ffffffff0100f2052a0100000043410487bd78fe34ae11626f1469071bf450e42d113061d83c2c0ac41e25f044c5924a9c44bf8c2878cbc2344b4e308f3cf2d4a063dd4f36bd2ca7815334aa18e08c2cac00000000"
    }
  ]
}