{
  "hash": "000000004b1fa27917780f6d64899e0c2d5b143ed45e4ab32e428894692f4472",
  "confirmations": 45408,
  "height": 7690,
  "version": 1,
  "versionHex": "00000001",
  "merkleroot": "97d4de9f1da2ef239c25d3cdad82973f541d7b6968de1838f17d4e6b48c6632e",
  "time": 1237232392,
  "mediantime": 1237227390,
  "nonce": 152390192,
  "bits": "1d00ffff",
  "difficulty": 1,
  "chainwork": "00000000000000000000000000000000000000000000000000001e0b1e0b1e0b",
  "nTx": 1,
  "previousblockhash": "000000000c9786184b3132f5571eb9444157e1911787e90dd0e155bf15c93029",
  "nextblockhash": "00000000fc804c9e2435ef447d7398586c72e7e0d8382a571da79bb02a59201e",
  "strippedsize": 216,
  "size": 216,
  "weight": 864,
  "tx": [
    {
      "txid": "97d4de9f1da2ef239c25d3cdad82973f541d7b6968de1838f17d4e6b48c6632e",
      "hash": "97d4de9f1da2ef239c25d3cdad82973f541d7b6968de1838f17d4e6b48c6632e",
      "version": 1,
      "size": 135,
      "vsize": 135,
      "weight": 540,
      "locktime": 0,
      "vin": [
        {
          "coinbase": "04ffff001d02f303",
          "sequence": 4294967295
        }
      ],
      "vout": [
        {
          "value": 50.0,
          "n": 0,
          "scriptPubKey": {
            "asm": "043695efe0f06987b04cda118d8eaba497b0b839800b4b0398be193282a1eb12eb4ed113d4b11fefdee1d64aa3e376d08b7e707cce32427ad83de492a38fd71ce9 OP_CHECKSIG",
            "desc": "pk(043695efe0f06987b04cda118d8eaba497b0b839800b4b0398be193282a1eb12eb4ed113d4b11fefdee1d64aa3e376d08b7e707cce32427ad83de492a38fd71ce9)#jguv2ka9",
            "hex": "41043695efe0f06987b04cda118d8eaba497b0b839800b4b0398be193282a1eb12eb4ed113d4b11fefdee1d64aa3e376d08b7e707cce32427ad83de492a38fd71ce9ac",
            "type": "pubkey"
          }
        }
      ],
      "hex": "01000000010000000000000000000000000000000000000000000000000000000000000000ffffffff0804ffff001d02f303ffffffff0100f2052a010000004341043695efe0f06987b04cda118d8eaba497b0b839800b4b0398be193282a1eb12eb4ed113d4b11fefdee1d64aa3e376d08b7e707cce32427ad83de492a38fd71ce9ac00000000"
    }
  ]
}