{
  "hash": "000000005ad203e8aa4c00fe3ccc9097b33c893d04b46e1f35f210aea77b2ba7",
  "confirmations": 44627,
  "height": 8471,
  "version": 1,
  "versionHex": "00000001",
  "merkleroot": "9c556913002ba252b743c96aa455463919db6f033c535c2c97af14a99bb95488",
  "time": 1237846560,
  "mediantime": 1237842233,
  "nonce": 3148155669,
  "bits": "1d00ffff",
  "difficulty": 1,
  "chainwork": "0000000000000000000000000000000000000000000000000000211821182118",
  "nTx": 1,
  "previousblockhash": "00000000a1c399b788ce10f273b62831ba6ba63b799a3079aa2c886414f4bbb4",
  "nextblockhash": "0000000060a235bdf172870b0c60ed0d48a1092d3085453f3f7c37b555efaa90",
  "strippedsize": 216,
  "size": 216,
  "weight": 864,
  "tx": [
    {
      "txid": "9c556913002ba252b743c96aa455463919db6f033c535c2c97af14a99bb95488",
      "hash": "9c556913002ba252b743c96aa455463919db6f033c535c2c97af14a99bb95488",
      "version": 1,
      "size": 135,
      "vsize": 135,
      "weight": 540,
      "locktime": 0,
      "vin": [
        {
          "coinbase": "04ffff001d022607",
          "sequence": 4294967295
        }
      ],
      "vout": [
        {
          "value": 50.0,
          "n": 0,
          "scriptPubKey": {
            "asm": "04435a382767bb98325569cc335d5976a791c917ca4b6fe0a7f95fa2721c1fd9c277e4d2712cf14e838d8b05911d17b6295abb265ce9e29262702ac13a6a8b450d OP_CHECKSIG",
            "desc": "pk(04435a382767bb98325569cc335d5976a791c917ca4b6fe0a7f95fa2721c1fd9c277e4d2712cf14e838d8b05911d17b6295abb265ce9e29262702ac13a6a8b450d)#89u88jkf",
            "hex": "4104435a382767bb98325569cc335d5976a791c917ca4b6fe0a7f95fa2721c1fd9c277e4d2712cf14e838d8b05911d17b6295abb265ce9e29262702ac13a6a8b450dac",
            "type": "pubkey"
          }
        }
      ],
      "hex": "01000000010000000000000000000000000000000000000000000000000000000000000000ffffffff0804ffff001d022607ffffffff0100f2052a01000000434104435a382767bb98325569cc335d5976a791c917ca4b6fe0a7f95fa2721c1fd9c277e4d2712cf14e838d8b05911d17b6295abb265ce9e29262702ac13a6a8b450dac00000000"
    }
  ]
}