{
  "hash": "00000000900d1e70b9606b562b92b62c0dafb82e14068aef08f0e5694fd433d4",
  "confirmations": 52015,
  "height": 323,
  "version": 1,
  "versionHex": "00000001",
  "merkleroot": "46b82623f888167d7dce3ec250aed703f5e2cf4b2b3737803d23c5be9e2136d0",
  "time": 1231848372,
  "mediantime": 1231845101,
  "nonce": 1579679266,
  "bits": "1d00ffff",
  "difficulty": 1,
  "chainwork": "0000000000000000000000000000000000000000000000000000014401440144",
  "nTx": 1,
  "previousblockhash": "00000000d79d0587bc2af68c3c51a43b22b6a7f274f488377187985641d4786d",
  "nextblockhash": "000000008c503c6c56dfee6a4ce1091875c8d7d9defe2c72f9eb5db0454f00c7",
  "strippedsize": 216,
  "size": 216,
  "weight": 864,
  "tx": [
    {
      "txid": "46b82623f888167d7dce3ec250aed703f5e2cf4b2b3737803d23c5be9e2136d0",
      "hash": "46b82623f888167d7dce3ec250aed703f5e2cf4b2b3737803d23c5be9e2136d0",
      "version": 1,
      "size": 135,
      "vsize": 135,
      "weight": 540,
      "locktime": 0,
      "vin": [
        {
          "coinbase": "04ffff001d02de00",
          "sequence": 4294967295
        }
      ],
      "vout": [
        {
          "value": 50.0,
          "n": 0,
          "scriptPubKey": {
            "asm": "04b29df33207682eeb5ba4258ccf25cb6363436622f2df91d442d630816614d8744596d66c37e3fb1f6bbd71ddab305f0721bfc15d4253712783d1cb3eda561af8 OP_CHECKSIG",
            "desc": "pk(04b29df33207682eeb5ba4258ccf25cb6363436622f2df91d442d630816614d8744596d66c37e3fb1f6bbd71ddab305f0721bfc15d4253712783d1cb3eda561af8)#fv5gqcle",
            "hex": "4104b29df33207682eeb5ba4258ccf25cb6363436622f2df91d442d630816614d8744596d66c37e3fb1f6bbd71ddab305f0721bfc15d4253712783d1cb3eda561af8ac",
            "type": "pubkey"
          }
        }
      ],
      "hex": "01000000010000000000000000000000000000000000000000000000000000000000000000ffffffff0804ffff001d02de00ffffffff0100f2052a01000000434104b29df33207682eeb5ba4258ccf25cb6363436622f2df91d442d630816614d8744596d66c37e3fb1f6bbd71ddab305f0721bfc15d4253712783d1cb3eda561af8ac00000000"
    }
  ]
}