{
  "hash": "00000000927db1eace275472e2c24d3ef7975758069dbac93f3e452bff4075f8",
  "confirmations": 45803,
  "height": 7295,
  "version": 1,
  "versionHex": "00000001",
  "merkleroot": "4fe0031c2d3b01d36b90511370add87f0aae334f57d04f6c6178202e47d3d4e3",
  "time": 1236945040,
  "mediantime": 1236941463,
  "nonce": 653729836,
  "bits": "1d00ffff",
  "difficulty": 1,
  "chainwork": "00000000000000000000000000000000000000000000000000001c801c801c80",
  "nTx": 1,
  "previousblockhash": "000000000ca0574736201b901abdb4f9dd2b9a6515e3e9a93fcea95670f38dba",
  "nextblockhash": "0000000054937164d49eaaf404730c7c35377f2815f917a2ef9a7ef717737ff4",
  "strippedsize": 216,
  "size": 216,
  "weight": 864,
  "tx": [
    {
      "txid": "4fe0031c2d3b01d36b90511370add87f0aae334f57d04f6c6178202e47d3d4e3",
      "hash": "4fe0031c2d3b01d36b90511370add87f0aae334f57d04f6c6178202e47d3d4e3",
      "version": 1,
      "size": 135,
      "vsize": 135,
      "weight": 540,
      "locktime": 0,
      "vin": [
        {
          "coinbase": "04ffff001d026e07",
          "sequence": 4294967295
        }
      ],
      "vout": [
        {
          "value": 50.0,
          "n": 0,
          "scriptPubKey": {
            "asm": "0412d90640a49c4a69eedc2421df3be7a3f48321b75e4ea03d8d02c6bc29e120bfa90735da1bfb1bd93e31686228658b44513cdd417533971251ba2e62f7414b85 OP_CHECKSIG",
            "desc": "pk(0412d90640a49c4a69eedc2421df3be7a3f48321b75e4ea03d8d02c6bc29e120bfa90735da1bfb1bd93e31686228658b44513cdd417533971251ba2e62f7414b85)#prregk93",
            "hex": "410412d90640a49c4a69eedc2421df3be7a3f48321b75e4ea03d8d02c6bc29e120bfa90735da1bfb1bd93e31686228658b44513cdd417533971251ba2e62f7414b85ac",
            "type": "pubkey"
          }
        }
      ],
      "hex": "01000000010000000000000000000000000000000000000000000000000000000000000000ffffffff0804ffff001d026e07ffffffff0100f2052a0100000043410412d90640a49c4a69eedc2421df3be7a3f48321b75e4ea03d8d02c6bc29e120bfa90735da1bfb1bd93e31686228658b44513cdd417533971251ba2e62f7414b85ac00000000"
    }
  ]
}