{
  "hash": "00000000fcd4f700a61c4a14b2c61dc2f3497bf4dc705528dfb59d0e652f850b",
  "confirmations": 51725,
  "height": 1373,
  "version": 1,
  "versionHex": "00000001",
  "merkleroot": "2c7776790ef679573e956e89c80be62074db09167e3f86135aa7c0782bdddc7e",
  "time": 1232661715,
  "mediantime": 1232656107,
  "nonce": 626787865,
  "bits": "1d00ffff",
  "difficulty": 1,
  "chainwork": "0000000000000000000000000000000000000000000000000000055e055e055e",
  "nTx": 1,
  "previousblockhash": "0000000058c984f21ab7ab8bb10244736c262ac0af93db33a24dd361e829f34e",
  "nextblockhash": "00000000cfc2e2706677f1de553f6cec4c2a97fcd0660e9d1f9b4621ba16d612",
  "strippedsize": 216,
  "size": 216,
  "weight": 864,
  "tx": [
    {
      "txid": "2c7776790ef679573e956e89c80be62074db09167e3f86135aa7c0782bdddc7e",
      "hash": "2c7776790ef679573e956e89c80be62074db09167e3f86135aa7c0782bdddc7e",
      "version": 1,
      "size": 135,
      "vsize": 135,
      "weight": 540,
      "locktime": 0,
      "vin": [
        {
          "coinbase": "04ffff001d029201",
          "sequence": 4294967295
        }
      ],
      "vout": [
        {
          "value": 50.0,
          "n": 0,
          "scriptPubKey": {
            "asm": "047c741c7a94c673e3b552c20e53bc0cf66107caea503d7cdcdc093361afb37541c45cb360b736a9830c87911d153a64c3cbf095e6ce0a5d05fbbc146311459c3e OP_CHECKSIG",
            "desc": "pk(047c741c7a94c673e3b552c20e53bc0cf66107caea503d7cdcdc093361afb37541c45cb360b736a9830c87911d153a64c3cbf095e6ce0a5d05fbbc146311459c3e)#5p2hmlrs",
            "hex": "41047c741c7a94c673e3b552c20e53bc0cf66107caea503d7cdcdc093361afb37541c45cb360b736a9830c87911d153a64c3cbf095e6ce0a5d05fbbc146311459c3eac",
            "type": "pubkey"
          }
        }
      ],
      "hex": "01000000010000000000000000000000000000000000000000000000000000000000000000ffffffff0804ffff001d029201ffffffff0100f2052a010000004341047c741c7a94c673e3b552c20e53bc0cf66107caea503d7cdcdc093361afb37541c45cb360b736a9830c87911d153a64c3cbf095e6ce0a5d05fbbc146311459c3eac00000000"
    }
  ]
}