{
  "hash": "00000000cf47f975184db0b4df92c9f798f61aa8143ffb0ce1c48746a8bd63aa",
  "confirmations": 46218,
  "height": 6880,
  "version": 1,
  "versionHex": "00000001",
  "merkleroot": "0c7bc2a056c61c83ed6a084c941587223baed010b484f89e3431386c390febdb",
  "time": 1236618474,
  "mediantime": 1236614046,
  "nonce": 6678317,
  "bits": "1d00ffff",
  "difficulty": 1,
  "chainwork": "00000000000000000000000000000000000000000000000000001ae11ae11ae1",
  "nTx": 1,
  "previousblockhash": "000000000a57b458066939e046cabe71347f020e6a82c2fee68850d166863ddb",
  "nextblockhash": "00000000fa8389c2f8f9701b81b4fdb7c382da4ce4b964cd0792068d1acf3acb",
  "strippedsize": 215,
  "size": 215,
  "weight": 860,
  "tx": [
    {
      "txid": "0c7bc2a056c61c83ed6a084c941587223baed010b484f89e3431386c390febdb",
      "hash": "0c7bc2a056c61c83ed6a084c941587223baed010b484f89e3431386c390febdb",
      "version": 1,
      "size": 134,
      "vsize": 134,
      "weight": 536,
      "locktime": 0,
      "vin": [
        {
          "coinbase": "04ffff001d0174",
          "sequence": 4294967295
        }
      ],
      "vout": [
        {
          "value": 50.0,
          "n": 0,
          "scriptPubKey": {
            "asm": "040b23d3b8da1ecfc7bc2f7a493903d9c659048ed0441e7f56a7ffd7c43d815a5cd214b58a9952459252dccb68e465b877f8901644d61cd68509a2f066b0458a34 OP_CHECKSIG",
            "desc": "pk(040b23d3b8da1ecfc7bc2f7a493903d9c659048ed0441e7f56a7ffd7c43d815a5cd214b58a9952459252dccb68e465b877f8901644d61cd68509a2f066b0458a34)#pkzyqm3x",
            "hex": "41040b23d3b8da1ecfc7bc2f7a493903d9c659048ed0441e7f56a7ffd7c43d815a5cd214b58a9952459252dccb68e465b877f8901644d61cd68509a2f066b0458a34ac",
            "type": "pubkey"
          }
        }
      ],
      "hex": "01000000010000000000000000000000000000000000000000000000000000000000000000ffffffff0704ffff001d0174ffffffff0100f2052a010000004341040b23d3b8da1ecfc7bc2f7a493903d9c659048ed0441e7f56a7ffd7c43d815a5cd214b58a9952459252dccb68e465b877f8901644d61cd68509a2f066b0458a34ac00000000"
    }
  ]
}