{
  "hash": "00000000ad2b48c7032b6d7d4f2e19e54d79b1c159f5599056492f2cd7bb528b",
  "confirmations": 51854,
  "height": 41,
  "version": 1,
  "versionHex": "00000001",
  "merkleroot": "9efa6cb3b8cca3c9387144f397f80e7b4bc2dd86026fdd308625a2e100a08d5a",
  "time": 1231608903,
  "mediantime": 1231605789,
  "nonce": 3522947079,
  "bits": "1d00ffff",
  "difficulty": 1,
  "chainwork": "0000000000000000000000000000000000000000000000000000002a002a002a",
  "nTx": 1,
  "previousblockhash": "00000000b2f01f399bf503e55f25a1aa51067056d2eb81915cb91976968b69aa",
  "nextblockhash": "00000000314e90489514c787d615cea50003af2023796ccdd085b6bcc1fa28f5",
  "strippedsize": 215,
  "size": 215,
  "weight": 860,
  "tx": [
    {
      "txid": "9efa6cb3b8cca3c9387144f397f80e7b4bc2dd86026fdd308625a2e100a08d5a",
      "hash": "9efa6cb3b8cca3c9387144f397f80e7b4bc2dd86026fdd308625a2e100a08d5a",
      "version": 1,
      "size": 134,
      "vsize": 134,
      "weight": 536,
      "locktime": 0,
      "vin": [
        {
          "coinbase": "04ffff001d0112",
          "sequence": 4294967295
        }
      ],
      "vout": [
        {
          "value": 50.0,
          "n": 0,
          "scriptPubKey": {
            "asm": "04a449ee292e46745b6e8e350a04777ee938f151af438a6b80c2fb86a65e71e6a677897ef1f8e997dcddc024d92639620e09021710ae3076836c90f3fa2fcdedd3 OP_CHECKSIG",
            "desc": "pk(04a449ee292e46745b6e8e350a04777ee938f151af438a6b80c2fb86a65e71e6a677897ef1f8e997dcddc024d92639620e09021710ae3076836c90f3fa2fcdedd3)#pdcvr6gx",
            "hex": "4104a449ee292e46745b6e8e350a04777ee938f151af438a6b80c2fb86a65e71e6a677897ef1f8e997dcddc024d92639620e09021710ae3076836c90f3fa2fcdedd3ac",
            "type": "pubkey"
          }
        }
      ],
      "hex": "01000000010000000000000000000000000000000000000000000000000000000000000000ffffffff0704ffff001d0112ffffffff0100f2052a01000000434104a449ee292e46745b6e8e350a04777ee938f151af438a6b80c2fb86a65e71e6a677897ef1f8e997dcddc024d92639620e09021710ae3076836c90f3fa2fcdedd3ac00000000"
    }
  ]
}