{
  "hash": "000000004c1085c45f772ff34d4e894e74290c25435103786e7355e4799e61ee",
  "confirmations": 50242,
  "height": 2856,
  "version": 1,
  "versionHex": "00000001",
  "merkleroot": "5744d25c8de4f07cb43c85a4c6d2d44b218cee1c682f01271d0b87496ec7f568",
  "time": 1233661341,
  "mediantime": 1233658146,
  "nonce": 493137710,
  "bits": "1d00ffff",
  "difficulty": 1,
  "chainwork": "00000000000000000000000000000000000000000000000000000b290b290b29",
  "nTx": 1,
  "previousblockhash": "00000000e75be357ad65995aadcbc94ac72cd5138f3f81b40a79d482696c43f2",
  "nextblockhash": "00000000d7e6c1c27ea335a4014b54f51b2805cae5d4f1c19ce59a4a27e607e3",
  "strippedsize": 216,
  "size": 216,
  "weight": 864,
  "tx": [
    {
      "txid": "5744d25c8de4f07cb43c85a4c6d2d44b218cee1c682f01271d0b87496ec7f568",
      "hash": "5744d25c8de4f07cb43c85a4c6d2d44b218cee1c682f01271d0b87496ec7f568",
      "version": 1,
      "size": 135,
      "vsize": 135,
      "weight": 540,
      "locktime": 0,
      "vin": [
        {
          "coinbase": "04ffff001d02cd06",
          "sequence": 4294967295
        }
      ],
      "vout": [
        {
          "value": 50.0,
          "n": 0,
          "scriptPubKey": {
            "asm": "0476f04cb3ea5f456d523acb17db12c9e96cb90fa55e840537df3c963f3d36a07628d5467999d5edf1735b6c3175d4f2afb7bdf0f419c8bfa741491b6a284ae857 OP_CHECKSIG",
            "desc": "pk(0476f04cb3ea5f456d523acb17db12c9e96cb90fa55e840537df3c963f3d36a07628d5467999d5edf1735b6c3175d4f2afb7bdf0f419c8bfa741491b6a284ae857)#ejny75kd",
            "hex": "410476f04cb3ea5f456d523acb17db12c9e96cb90fa55e840537df3c963f3d36a07628d5467999d5edf1735b6c3175d4f2afb7bdf0f419c8bfa741491b6a284ae857ac",
            "type": "pubkey"
          }
        }
      ],
      "hex": "01000000010000000000000000000000000000000000000000000000000000000000000000ffffffff0804ffff001d02cd06ffffffff0100f2052a0100000043410476f04cb3ea5f456d523acb17db12c9e96cb90fa55e840537df3c963f3d36a07628d5467999d5edf1735b6c3175d4f2afb7bdf0f419c8bfa741491b6a284ae857ac00000000"
    }
  ]
}