{
  "hash": "00000000a8847fd5a6b57bcb460b431466c564983670a40161e704f8fc00e58a",
  "confirmations": 44539,
  "height": 8559,
  "version": 1,
  "versionHex": "00000001",
  "merkleroot": "d092bc6a680fa8473f9dbf88f260159e7e84452ad519eadeeaaaea813012dec3",
  "time": 1237919540,
  "mediantime": 1237916571,
  "nonce": 8742168,
  "bits": "1d00ffff",
  "difficulty": 1,
  "chainwork": "0000000000000000000000000000000000000000000000000000217021702170",
  "nTx": 1,
  "previousblockhash": "000000000f85e438a8cee109ab1cad44f8324ce70de21b95b31fd038451e8f13",
  "nextblockhash": "00000000ad51e9525234e9ad796f9e86eed74111967d8fb214041c9e31cca5d6",
  "strippedsize": 216,
  "size": 216,
  "weight": 864,
  "tx": [
    {
      "txid": "d092bc6a680fa8473f9dbf88f260159e7e84452ad519eadeeaaaea813012dec3",
      "hash": "d092bc6a680fa8473f9dbf88f260159e7e84452ad519eadeeaaaea813012dec3",
      "version": 1,
      "size": 135,
      "vsize": 135,
      "weight": 540,
      "locktime": 0,
      "vin": [
        {
          "coinbase": "04ffff001d02f808",
          "sequence": 4294967295
        }
      ],
      "vout": [
        {
          "value": 50.0,
          "n": 0,
          "scriptPubKey": {
            "asm": "043abd4ab23c79aaa0af6db7e88539c922b2ec42445e15429f52d938e2472e63665b46d41028e6514858df59cc1d15aae29942a96a5929718e62ccd86b32e1c3d4 OP_CHECKSIG",
            "desc": "pk(043abd4ab23c79aaa0af6db7e88539c922b2ec42445e15429f52d938e2472e63665b46d41028e6514858df59cc1d15aae29942a96a5929718e62ccd86b32e1c3d4)#ev6kk7zp",
            "hex": "41043abd4ab23c79aaa0af6db7e88539c922b2ec42445e15429f52d938e2472e63665b46d41028e6514858df59cc1d15aae29942a96a5929718e62ccd86b32e1c3d4ac",
            "type": "pubkey"
          }
        }
      ],
      "hex": "01000000010000000000000000000000000000000000000000000000000000000000000000ffffffff0804ffff001d02f808ffffffff0100f2052a010000004341043abd4ab23c79aaa0af6db7e88539c922b2ec42445e15429f52d938e2472e63665b46d41028e6514858df59cc1d15aae29942a96a5929718e62ccd86b32e1c3d4ac00000000"
    }
  ]
}