{
  "hash": "00000000eb0750ff4a5cc3cf05cc34c758dff20b7820059571faacee4124ebc9",
  "confirmations": 46220,
  "height": 6878,
  "version": 1,
  "versionHex": "00000001",
  "merkleroot": "9e57376394ff5b7a7281ef1628df9d85f86374bad24f90107e1bf827773763e3",
  "time": 1236617470,
  "mediantime": 1236611757,
  "nonce": 210733366,
  "bits": "1d00ffff",
  "difficulty": 1,
  "chainwork": "00000000000000000000000000000000000000000000000000001adf1adf1adf",
  "nTx": 1,
  "previousblockhash": "0000000071a4cf635af61a4b2e31a7268394e7f6314b9db9878e50c5c4a9aa35",
  "nextblockhash": "000000000a57b458066939e046cabe71347f020e6a82c2fee68850d166863ddb",
  "strippedsize": 216,
  "size": 216,
  "weight": 864,
  "tx": [
    {
      "txid": "9e57376394ff5b7a7281ef1628df9d85f86374bad24f90107e1bf827773763e3",
      "hash": "9e57376394ff5b7a7281ef1628df9d85f86374bad24f90107e1bf827773763e3",
      "version": 1,
      "size": 135,
      "vsize": 135,
      "weight": 540,
      "locktime": 0,
      "vin": [
        {
          "coinbase": "04ffff001d02300a",
          "sequence": 4294967295
        }
      ],
      "vout": [
        {
          "value": 50.0,
          "n": 0,
          "scriptPubKey": {
            "asm": "04a4976785d0b40975277bc4494cc6d3087cbca6daad96e3cb4d9f7a6d02147a3f3024a62ea7aa7ade3b2e8437630ffae4022b18e093d1d8bc67fa360220958432 OP_CHECKSIG",
            "desc": "pk(04a4976785d0b40975277bc4494cc6d3087cbca6daad96e3cb4d9f7a6d02147a3f3024a62ea7aa7ade3b2e8437630ffae4022b18e093d1d8bc67fa360220958432)#xmfy6j2j",
            "hex": "4104a4976785d0b40975277bc4494cc6d3087cbca6daad96e3cb4d9f7a6d02147a3f3024a62ea7aa7ade3b2e8437630ffae4022b18e093d1d8bc67fa360220958432ac",
            "type": "pubkey"
          }
        }
      ],
      "hex": "01000000010000000000000000000000000000000000000000000000000000000000000000ffffffff0804ffff001d02300affffffff0100f2052a01000000434104a4976785d0b40975277bc4494cc6d3087cbca6daad96e3cb4d9f7a6d02147a3f3024a62ea7aa7ade3b2e8437630ffae4022b18e093d1d8bc67fa360220958432ac00000000"
    }
  ]
}