{
  "hash": "0000000042d2a80affc893529225ee3af68f8272ce66a988e2b746574eaddb6b",
  "confirmations": 51675,
  "height": 1423,
  "version": 1,
  "versionHex": "00000001",
  "merkleroot": "f8f829b635671bc2354f078f64ba2b8ac19c95dbded1702fc2a17e8289be8db2",
  "time": 1232734485,
  "mediantime": 1232732779,
  "nonce": 2735881757,
  "bits": "1d00ffff",
  "difficulty": 1,
  "chainwork": "0000000000000000000000000000000000000000000000000000059005900590",
  "nTx": 1,
  "previousblockhash": "000000007dad2b881db96066bd40c89aa1a79af74cc3f9cd4c9cc5273bb2cd40",
  "nextblockhash": "00000000eeef8d291c715483e9e0016056a68d5d692ee12db6973bbdd42c8fa7",
  "strippedsize": 215,
  "size": 215,
  "weight": 860,
  "tx": [
    {
      "txid": "f8f829b635671bc2354f078f64ba2b8ac19c95dbded1702fc2a17e8289be8db2",
      "hash": "f8f829b635671bc2354f078f64ba2b8ac19c95dbded1702fc2a17e8289be8db2",
      "version": 1,
      "size": 134,
      "vsize": 134,
      "weight": 536,
      "locktime": 0,
      "vin": [
        {
          "coinbase": "04ffff001d0158",
          "sequence": 4294967295
        }
      ],
      "vout": [
        {
          "value": 50.0,
          "n": 0,
          "scriptPubKey": {
            "asm": "04ed64f5d3b2f9ecbcd7c2566a2aaae329a23d24d23f3c6253ca3caa14d02224f24190492e3fc8bde6031178af04a926cc669fb6ce6ee839a5d6523fdd1f664800 OP_CHECKSIG",
            "desc": "pk(04ed64f5d3b2f9ecbcd7c2566a2aaae329a23d24d23f3c6253ca3caa14d02224f24190492e3fc8bde6031178af04a926cc669fb6ce6ee839a5d6523fdd1f664800)#g2gcmn7n",
            "hex": "4104ed64f5d3b2f9ecbcd7c2566a2aaae329a23d24d23f3c6253ca3caa14d02224f24190492e3fc8bde6031178af04a926cc669fb6ce6ee839a5d6523fdd1f664800ac",
            "type": "pubkey"
          }
        }
      ],
      "hex": "01000000010000000000000000000000000000000000000000000000000000000000000000ffffffff0704ffff001d0158ffffffff0100f2052a01000000434104ed64f5d3b2f9ecbcd7c2566a2aaae329a23d24d23f3c6253ca3caa14d02224f24190492e3fc8bde6031178af04a926cc669fb6ce6ee839a5d6523fdd1f664800ac00000000"
    }
  ]
}