{
  "hash": "0000000001a786952d564dc9f094b7198b509eac6783583b52e1d800ec2c097f",
  "confirmations": 45423,
  "height": 7675,
  "version": 1,
  "versionHex": "00000001",
  "merkleroot": "5f5d6f86d45c4df4bac065883074bbb2903443c9d87c1ec5eeff5a1379c305fb",
  "time": 1237220808,
  "mediantime": 1237216823,
  "nonce": 236695693,
  "bits": "1d00ffff",
  "difficulty": 1,
  "chainwork": "00000000000000000000000000000000000000000000000000001dfc1dfc1dfc",
  "nTx": 1,
  "previousblockhash": "000000003829f9dca9992cb57be455c82332804ea5cb4ebabc316955eb982b56",
  "nextblockhash": "000000007af9c512fabf297e811f7bc63230e165745fcff33f192f8cdae15a4c",
  "strippedsize": 216,
  "size": 216,
  "weight": 864,
  "tx": [
    {
      "txid": "5f5d6f86d45c4df4bac065883074bbb2903443c9d87c1ec5eeff5a1379c305fb",
      "hash": "5f5d6f86d45c4df4bac065883074bbb2903443c9d87c1ec5eeff5a1379c305fb",
      "version": 1,
      "size": 135,
      "vsize": 135,
      "weight": 540,
      "locktime": 0,
      "vin": [
        {
          "coinbase": "04ffff001d026b02",
          "sequence": 4294967295
        }
      ],
      "vout": [
        {
          "value": 50.0,
          "n": 0,
          "scriptPubKey": {
            "asm": "04f55682e5816b8c083c37a6daa37a5032518ade9780f9b372b8641e965e3db019c79bd11ac7326171c85434b4ef3455f2b0d551b31be603e0fce7ad6cb01ee21e OP_CHECKSIG",
            "desc": "pk(04f55682e5816b8c083c37a6daa37a5032518ade9780f9b372b8641e965e3db019c79bd11ac7326171c85434b4ef3455f2b0d551b31be603e0fce7ad6cb01ee21e)#3r5s6kxg",
            "hex": "4104f55682e5816b8c083c37a6daa37a5032518ade9780f9b372b8641e965e3db019c79bd11ac7326171c85434b4ef3455f2b0d551b31be603e0fce7ad6cb01ee21eac",
            "type": "pubkey"
          }
        }
      ],
      "hex": "01000000010000000000000000000000000000000000000000000000000000000000000000ffffffff0804ffff001d026b02ffffffff0100f2052a01000000434104f55682e5816b8c083c37a6daa37a5032518ade9780f9b372b8641e965e3db019c79bd11ac7326171c85434b4ef3455f2b0d551b31be603e0fce7ad6cb01ee21eac00000000"
    }
  ]
}