{
  "hash": "000000008c1f7653c7e61858d8024c0d6981bd2186166730e5c0d2650ab5648a",
  "confirmations": 52489,
  "height": 609,
  "version": 1,
  "versionHex": "00000001",
  "merkleroot": "0b1266e3eb3f7f64c92870d42aad1db213195ab70b3ec1bf2a97177ff04f0c9a",
  "time": 1232043349,
  "mediantime": 1232041344,
  "nonce": 4133557268,
  "bits": "1d00ffff",
  "difficulty": 1,
  "chainwork": "0000000000000000000000000000000000000000000000000000026202620262",
  "nTx": 1,
  "previousblockhash": "000000006f50d6c328e0438358991d8905cb372d06dfdfb40b61ab67490b85a9",
  "nextblockhash": "00000000efe4090f8b075603d047b16ea2d2c23eea6027a1b13f05c829b28588",
  "strippedsize": 216,
  "size": 216,
  "weight": 864,
  "tx": [
    {
      "txid": "0b1266e3eb3f7f64c92870d42aad1db213195ab70b3ec1bf2a97177ff04f0c9a",
      "hash": "0b1266e3eb3f7f64c92870d42aad1db213195ab70b3ec1bf2a97177ff04f0c9a",
      "version": 1,
      "size": 135,
      "vsize": 135,
      "weight": 540,
      "locktime": 0,
      "vin": [
        {
          "coinbase": "04ffff001d02d606",
          "sequence": 4294967295
        }
      ],
      "vout": [
        {
          "value": 50.0,
          "n": 0,
          "scriptPubKey": {
            "asm": "04d84efdf8d866ae319296decae4d0be2deb47b42c392899b5386b9b6b5a4aee2d0f104cf7c8aa651fa4b62c797f2463bfb31201890261f4f944421e1b6eb920f5 OP_CHECKSIG",
            "desc": "pk(04d84efdf8d866ae319296decae4d0be2deb47b42c392899b5386b9b6b5a4aee2d0f104cf7c8aa651fa4b62c797f2463bfb31201890261f4f944421e1b6eb920f5)#fweh3ka3",
            "hex": "4104d84efdf8d866ae319296decae4d0be2deb47b42c392899b5386b9b6b5a4aee2d0f104cf7c8aa651fa4b62c797f2463bfb31201890261f4f944421e1b6eb920f5ac",
            "type": "pubkey"
          }
        }
      ],
      "hex": "01000000010000000000000000000000000000000000000000000000000000000000000000ffffffff0804ffff001d02d606ffffffff0100f2052a01000000434104d84efdf8d866ae319296decae4d0be2deb47b42c392899b5386b9b6b5a4aee2d0f104cf7c8aa651fa4b62c797f2463bfb31201890261f4f944421e1b6eb920f5ac00000000"
    }
  ]
}