{
  "hash": "0000000098f7951febeb6d71c15e5fef937fd5f3813721f8a1ac0f410b1f39e3",
  "confirmations": 47183,
  "height": 5915,
  "version": 1,
  "versionHex": "00000001",
  "merkleroot": "947cc4b04c2503b20f3a40fb17f67ef8bd62c64f4bea05dc7a2ddc7782ff5d25",
  "time": 1235856400,
  "mediantime": 1235851570,
  "nonce": 1592270385,
  "bits": "1d00ffff",
  "difficulty": 1,
  "chainwork": "0000000000000000000000000000000000000000000000000000171c171c171c",
  "nTx": 1,
  "previousblockhash": "000000002509f053c420965b16ba18df78cf1e707cf8cc4bfbdb70d9a97e29e8",
  "nextblockhash": "00000000ac881b32a5b58f7e066abe65431ed3aff36c07d69add04b4aad503e5",
  "strippedsize": 216,
  "size": 216,
  "weight": 864,
  "tx": [
    {
      "txid": "947cc4b04c2503b20f3a40fb17f67ef8bd62c64f4bea05dc7a2ddc7782ff5d25",
      "hash": "947cc4b04c2503b20f3a40fb17f67ef8bd62c64f4bea05dc7a2ddc7782ff5d25",
      "version": 1,
      "size": 135,
      "vsize": 135,
      "weight": 540,
      "locktime": 0,
      "vin": [
        {
          "coinbase": "04ffff001d025103",
          "sequence": 4294967295
        }
      ],
      "vout": [
        {
          "value": 50.0,
          "n": 0,
          "scriptPubKey": {
            "asm": "045e65f91aedc3552a7bcf37140005825f9182cc5063958ce9c8946874c6ee56d4af4398dd2bc0e91e215374b9a7189d2d91f339234999d5c7f8590b0b37d13830 OP_CHECKSIG",
            "desc": "pk(045e65f91aedc3552a7bcf37140005825f9182cc5063958ce9c8946874c6ee56d4af4398dd2bc0e91e215374b9a7189d2d91f339234999d5c7f8590b0b37d13830)#yejj9dfs",
            "hex": "41045e65f91aedc3552a7bcf37140005825f9182cc5063958ce9c8946874c6ee56d4af4398dd2bc0e91e215374b9a7189d2d91f339234999d5c7f8590b0b37d13830ac",
            "type": "pubkey"
          }
        }
      ],
      "hex": "01000000010000000000000000000000000000000000000000000000000000000000000000ffffffff0804ffff001d025103ffffffff0100f2052a010000004341045e65f91aedc3552a7bcf37140005825f9182cc5063958ce9c8946874c6ee56d4af4398dd2bc0e91e215374b9a7189d2d91f339234999d5c7f8590b0b37d13830ac00000000"
    }
  ]
}