{
  "hash": "00000000132b99b9a546ad41729d7615d02a5461e878957951bab1ca2db14015",
  "confirmations": 44528,
  "height": 8570,
  "version": 1,
  "versionHex": "00000001",
  "merkleroot": "c92a9f93eaf076028b01de2832a1558b1c5a84c30b41a7dcbc643e4dd82b1257",
  "time": 1237927038,
  "mediantime": 1237923515,
  "nonce": 810202112,
  "bits": "1d00ffff",
  "difficulty": 1,
  "chainwork": "0000000000000000000000000000000000000000000000000000217b217b217b",
  "nTx": 1,
  "previousblockhash": "00000000954c9ba50cdfad508b066b2c318f54f14d0b4a5724cc3c6c4dce02cd",
  "nextblockhash": "00000000bc4bcd7794a12695376e0083f3dfb0ec3582025ecfcd908d3651c340",
  "strippedsize": 216,
  "size": 216,
  "weight": 864,
  "tx": [
    {
      "txid": "c92a9f93eaf076028b01de2832a1558b1c5a84c30b41a7dcbc643e4dd82b1257",
      "hash": "c92a9f93eaf076028b01de2832a1558b1c5a84c30b41a7dcbc643e4dd82b1257",
      "version": 1,
      "size": 135,
      "vsize": 135,
      "weight": 540,
      "locktime": 0,
      "vin": [
        {
          "coinbase": "04ffff001d021a09",
          "sequence": 4294967295
        }
      ],
      "vout": [
        {
          "value": 50.0,
          "n": 0,
          "scriptPubKey": {
            "asm": "047671f6e9db8c7a66525dae525d7471a53165eee35da938b2835fc56ed769e00ecab2bed9df31cec657195385df37f5be3047492d3bfd7819620b84776fedd47d OP_CHECKSIG",
            "desc": "pk(047671f6e9db8c7a66525dae525d7471a53165eee35da938b2835fc56ed769e00ecab2bed9df31cec657195385df37f5be3047492d3bfd7819620b84776fedd47d)#50ctw5jr",
            "hex": "41047671f6e9db8c7a66525dae525d7471a53165eee35da938b2835fc56ed769e00ecab2bed9df31cec657195385df37f5be3047492d3bfd7819620b84776fedd47dac",
            "type": "pubkey"
          }
        }
      ],
      "hex": "01000000010000000000000000000000000000000000000000000000000000000000000000ffffffff0804ffff001d021a09ffffffff0100f2052a010000004341047671f6e9db8c7a66525dae525d7471a53165eee35da938b2835fc56ed769e00ecab2bed9df31cec657195385df37f5be3047492d3bfd7819620b84776fedd47dac00000000"
    }
  ]
}