{
  "hash": "000000004ae594ed6a8e3d5bb333720d81107e41bc72cdf515d451565d084af3",
  "confirmations": 50709,
  "height": 2389,
  "version": 1,
  "versionHex": "00000001",
  "merkleroot": "f89e0e3dc99b9d226acd77801450ce170a547b0edbb7e7b175c00766d130c49c",
  "time": 1233345496,
  "mediantime": 1233341638,
  "nonce": 3302735652,
  "bits": "1d00ffff",
  "difficulty": 1,
  "chainwork": "0000000000000000000000000000000000000000000000000000095609560956",
  "nTx": 1,
  "previousblockhash": "00000000706dac7112e7cabbba1e37f5c5d03999ea1de530e9a9dd2c87abefc6",
  "nextblockhash": "000000004e2bc7beaf29dbeb96d856e7bbf8c639732cb87ab3fe77a3dfc184a1",
  "strippedsize": 216,
  "size": 216,
  "weight": 864,
  "tx": [
    {
      "txid": "f89e0e3dc99b9d226acd77801450ce170a547b0edbb7e7b175c00766d130c49c",
      "hash": "f89e0e3dc99b9d226acd77801450ce170a547b0edbb7e7b175c00766d130c49c",
      "version": 1,
      "size": 135,
      "vsize": 135,
      "weight": 540,
      "locktime": 0,
      "vin": [
        {
          "coinbase": "04ffff001d027303",
          "sequence": 4294967295
        }
      ],
      "vout": [
        {
          "value": 50.0,
          "n": 0,
          "scriptPubKey": {
            "asm": "043ba3b221e16b0f0094582d5d9095bfafe506accfdb4ab59fca491f73c8feb2d4f440a3e61c2b423123e250f43855709282251da8d845fc06f2131c2fcc9e51f4 OP_CHECKSIG",
            "desc": "pk(043ba3b221e16b0f0094582d5d9095bfafe506accfdb4ab59fca491f73c8feb2d4f440a3e61c2b423123e250f43855709282251da8d845fc06f2131c2fcc9e51f4)#ryg30mln",
            "hex": "41043ba3b221e16b0f0094582d5d9095bfafe506accfdb4ab59fca491f73c8feb2d4f440a3e61c2b423123e250f43855709282251da8d845fc06f2131c2fcc9e51f4ac",
            "type": "pubkey"
          }
        }
      ],
      "hex": "01000000010000000000000000000000000000000000000000000000000000000000000000ffffffff0804ffff001d027303ffffffff0100f2052a010000004341043ba3b221e16b0f0094582d5d9095bfafe506accfdb4ab59fca491f73c8feb2d4f440a3e61c2b423123e250f43855709282251da8d845fc06f2131c2fcc9e51f4ac00000000"
    }
  ]
}