{
  "hash": "000000008f9c053d69c4a892b23b510571982d381b8d6a43e2c71a3451d23c41",
  "confirmations": 52178,
  "height": 920,
  "version": 1,
  "versionHex": "00000001",
  "merkleroot": "507f58343e780b47345fd9247a45e58f543db79f96a5e0328ff9f4e373cc31bf",
  "time": 1232291413,
  "mediantime": 1232288629,
  "nonce": 3791443507,
  "bits": "1d00ffff",
  "difficulty": 1,
  "chainwork": "0000000000000000000000000000000000000000000000000000039903990399",
  "nTx": 1,
  "previousblockhash": "00000000442ee800dbf46277ed4665e6565f3db02c26ef4a8b08ab177c32dff4",
  "nextblockhash": "0000000086bab1e650c7fe174d5ae7943b39176fc956041d16b240bd8b4d7d2f",
  "strippedsize": 216,
  "size": 216,
  "weight": 864,
  "tx": [
    {
      "txid": "507f58343e780b47345fd9247a45e58f543db79f96a5e0328ff9f4e373cc31bf",
      "hash": "507f58343e780b47345fd9247a45e58f543db79f96a5e0328ff9f4e373cc31bf",
      "version": 1,
      "size": 135,
      "vsize": 135,
      "weight": 540,
      "locktime": 0,
      "vin": [
        {
          "coinbase": "04ffff001d02ec03",
          "sequence": 4294967295
        }
      ],
      "vout": [
        {
          "value": 50.0,
          "n": 0,
          "scriptPubKey": {
            "asm": "04c90a6682d52d9595cc1cd5156652ce7c1562286b93c0f4971b4895a792e54842ca33eafe4eea56c9c8a75bbdce947a10afe735d2ca6dff54494f122f36c3f7f0 OP_CHECKSIG",
            "desc": "pk(04c90a6682d52d9595cc1cd5156652ce7c1562286b93c0f4971b4895a792e54842ca33eafe4eea56c9c8a75bbdce947a10afe735d2ca6dff54494f122f36c3f7f0)#68f6xpgq",
            "hex": "4104c90a6682d52d9595cc1cd5156652ce7c1562286b93c0f4971b4895a792e54842ca33eafe4eea56c9c8a75bbdce947a10afe735d2ca6dff54494f122f36c3f7f0ac",
            "type": "pubkey"
          }
        }
      ],
      "hex": "01000000010000000000000000000000000000000000000000000000000000000000000000ffffffff0804ffff001d02ec03ffffffff0100f2052a01000000434104c90a6682d52d9595cc1cd5156652ce7c1562286b93c0f4971b4895a792e54842ca33eafe4eea56c9c8a75bbdce947a10afe735d2ca6dff54494f122f36c3f7f0ac00000000"
    }
  ]
}