{
  "hash": "0000000026024cd1f3a914b4d034e6cbbea6d0262569c04abe39a3f4a03d5aa6",
  "confirmations": 51076,
  "height": 2022,
  "version": 1,
  "versionHex": "00000001",
  "merkleroot": "722e960d0e991e13b3c76ce02e12b045402cd3aff7a692f219a0b264e1536522",
  "time": 1233070577,
  "mediantime": 1233064909,
  "nonce": 425187607,
  "bits": "1d00ffff",
  "difficulty": 1,
  "chainwork": "000000000000000000000000000000000000000000000000000007e707e707e7",
  "nTx": 1,
  "previousblockhash": "00000000cda6b0e6ebcfe7d45ad2d977f1b264f3fec58b41ecf53dba795b0d87",
  "nextblockhash": "000000005a6dc0cc4c7efac72b59fac06a22ed02118789300fd0cc9ff9a48e3c",
  "strippedsize": 216,
  "size": 216,
  "weight": 864,
  "tx": [
    {
      "txid": "722e960d0e991e13b3c76ce02e12b045402cd3aff7a692f219a0b264e1536522",
      "hash": "722e960d0e991e13b3c76ce02e12b045402cd3aff7a692f219a0b264e1536522",
      "version": 1,
      "size": 135,
      "vsize": 135,
      "weight": 540,
      "locktime": 0,
      "vin": [
        {
          "coinbase": "04ffff001d022602",
          "sequence": 4294967295
        }
      ],
      "vout": [
        {
          "value": 50.0,
          "n": 0,
          "scriptPubKey": {
            "asm": "046ed9fb312c572d19ddec56fc46fdee61efb03f28d3533df312c144aef88c6b45e7ac2afd9c64d8703f229aaf66b622c84f8a0bf29dc156ab6ed66e9f4798abab OP_CHECKSIG",
            "desc": "pk(046ed9fb312c572d19ddec56fc46fdee61efb03f28d3533df312c144aef88c6b45e7ac2afd9c64d8703f229aaf66b622c84f8a0bf29dc156ab6ed66e9f4798abab)#c30k9jqg",
            "hex": "41046ed9fb312c572d19ddec56fc46fdee61efb03f28d3533df312c144aef88c6b45e7ac2afd9c64d8703f229aaf66b622c84f8a0bf29dc156ab6ed66e9f4798ababac",
            "type": "pubkey"
          }
        }
      ],
      "hex": "01000000010000000000000000000000000000000000000000000000000000000000000000ffffffff0804ffff001d022602ffffffff0100f2052a010000004341046ed9fb312c572d19ddec56fc46fdee61efb03f28d3533df312c144aef88c6b45e7ac2afd9c64d8703f229aaf66b622c84f8a0bf29dc156ab6ed66e9f4798ababac00000000"
    }
  ]
}