{
  "hash": "00000000b6c64cdaf540504f4eb4e54aa58d372be7db7a5493821fe6e8f1d3c8",
  "confirmations": 43193,
  "height": 9905,
  "version": 1,
  "versionHex": "00000001",
  "merkleroot": "919160afd871da63eac8cfda8ce5f04278dd2b043c34eb638fc3ba24cf2bbb2a",
  "time": 1238926278,
  "mediantime": 1238923377,
  "nonce": 62024055,
  "bits": "1d00ffff",
  "difficulty": 1,
  "chainwork": "000000000000000000000000000000000000000000000000000026b226b226b2",
  "nTx": 1,
  "previousblockhash": "0000000089877bc50d61556aade226a7704e3b10abec959818b302a9b2b4f3ef",
  "nextblockhash": "00000000f7061818d6d7f6b4744a6644bf86071632d76c6ee9115d06657d6e76",
  "strippedsize": 216,
  "size": 216,
  "weight": 864,
  "tx": [
    {
      "txid": "919160afd871da63eac8cfda8ce5f04278dd2b043c34eb638fc3ba24cf2bbb2a",
      "hash": "919160afd871da63eac8cfda8ce5f04278dd2b043c34eb638fc3ba24cf2bbb2a",
      "version": 1,
      "size": 135,
      "vsize": 135,
      "weight": 540,
      "locktime": 0,
      "vin": [
        {
          "coinbase": "04ffff001d020e01",
          "sequence": 4294967295
        }
      ],
      "vout": [
        {
          "value": 50.0,
          "n": 0,
          "scriptPubKey": {
            "asm": "045e5786c0299e83c84b0a13c8d05830d358a9954be096920040900e2791336b1fce7340eec611b24989fd7a3e859a8907c523e9fe64c81eae96a39fa1ed4a4ffc OP_CHECKSIG",
            "desc": "pk(045e5786c0299e83c84b0a13c8d05830d358a9954be096920040900e2791336b1fce7340eec611b24989fd7a3e859a8907c523e9fe64c81eae96a39fa1ed4a4ffc)#gj3y69v6",
            "hex": "41045e5786c0299e83c84b0a13c8d05830d358a9954be096920040900e2791336b1fce7340eec611b24989fd7a3e859a8907c523e9fe64c81eae96a39fa1ed4a4ffcac",
            "type": "pubkey"
          }
        }
      ],
      "hex": "01000000010000000000000000000000000000000000000000000000000000000000000000ffffffff0804ffff001d020e01ffffffff0100f2052a010000004341045e5786c0299e83c84b0a13c8d05830d358a9954be096920040900e2791336b1fce7340eec611b24989fd7a3e859a8907c523e9fe64c81eae96a39fa1ed4a4ffcac00000000"
    }
  ]
}