{
  "hash": "000000006db4d94902cce6e19432ae97d7d06e06cce637ad83435d105e557775",
  "confirmations": 49651,
  "height": 3447,
  "version": 1,
  "versionHex": "00000001",
  "merkleroot": "e2dc733eb8d827047a4502e549c6ee63402934c8dfe6d789430d9727ec220447",
  "time": 1234069729,
  "mediantime": 1234067213,
  "nonce": 1875554102,
  "bits": "1d00ffff",
  "difficulty": 1,
  "chainwork": "00000000000000000000000000000000000000000000000000000d780d780d78",
  "nTx": 1,
  "previousblockhash": "00000000fe99c63735b72fbe1d3235c79dd765ab10d86e1048bb662d09fdb248",
  "nextblockhash": "00000000f19fade0693c2b209c85dbe384bda8de7319909e1f8e60253af87ee8",
  "strippedsize": 216,
  "size": 216,
  "weight": 864,
  "tx": [
    {
      "txid": "e2dc733eb8d827047a4502e549c6ee63402934c8dfe6d789430d9727ec220447",
      "hash": "e2dc733eb8d827047a4502e549c6ee63402934c8dfe6d789430d9727ec220447",
      "version": 1,
      "size": 135,
      "vsize": 135,
      "weight": 540,
      "locktime": 0,
      "vin": [
        {
          "coinbase": "04ffff001d024706",
          "sequence": 4294967295
        }
      ],
      "vout": [
        {
          "value": 50.0,
          "n": 0,
          "scriptPubKey": {
            "asm": "045ed1757c56b1ef5bdf60e299fc0d0028286cfc54d4b1b8ab91988f4a08494feaedc0fc703848fd6ebddc60c01bcdfe56af23efde3a9bdb1190f8b4f11bc21281 OP_CHECKSIG",
            "desc": "pk(045ed1757c56b1ef5bdf60e299fc0d0028286cfc54d4b1b8ab91988f4a08494feaedc0fc703848fd6ebddc60c01bcdfe56af23efde3a9bdb1190f8b4f11bc21281)#dhhhf38q",
            "hex": "41045ed1757c56b1ef5bdf60e299fc0d0028286cfc54d4b1b8ab91988f4a08494feaedc0fc703848fd6ebddc60c01bcdfe56af23efde3a9bdb1190f8b4f11bc21281ac",
            "type": "pubkey"
          }
        }
      ],
      "hex": "01000000010000000000000000000000000000000000000000000000000000000000000000ffffffff0804ffff001d024706ffffffff0100f2052a010000004341045ed1757c56b1ef5bdf60e299fc0d0028286cfc54d4b1b8ab91988f4a08494feaedc0fc703848fd6ebddc60c01bcdfe56af23efde3a9bdb1190f8b4f11bc21281ac00000000"
    }
  ]
}