{
  "hash": "00000000be3c231de630b045c165b842d24d53760dc84925d0d332f5f833f7d3",
  "confirmations": 52124,
  "height": 974,
  "version": 1,
  "versionHex": "00000001",
  "merkleroot": "261a9eab38de62e4b5dc507514bb7af0bfcae8661207de816cf1fefffffe5778",
  "time": 1232329529,
  "mediantime": 1232325821,
  "nonce": 71795464,
  "bits": "1d00ffff",
  "difficulty": 1,
  "chainwork": "000000000000000000000000000000000000000000000000000003cf03cf03cf",
  "nTx": 1,
  "previousblockhash": "0000000008a63e41a03767c76e4ba79a2132db23a7d714f57c5a7e4a7288f479",
  "nextblockhash": "00000000d67ac3dab052ac69301316b73678703e719ce3757e31e5b92444e64c",
  "strippedsize": 216,
  "size": 216,
  "weight": 864,
  "tx": [
    {
      "txid": "261a9eab38de62e4b5dc507514bb7af0bfcae8661207de816cf1fefffffe5778",
      "hash": "261a9eab38de62e4b5dc507514bb7af0bfcae8661207de816cf1fefffffe5778",
      "version": 1,
      "size": 135,
      "vsize": 135,
      "weight": 540,
      "locktime": 0,
      "vin": [
        {
          "coinbase": "04ffff001d02c604",
          "sequence": 4294967295
        }
      ],
      "vout": [
        {
          "value": 50.0,
          "n": 0,
          "scriptPubKey": {
            "asm": "047c8135d87694d8b49adc3a64bd0807b95dfe39ac7a5ee1996d34c01556273ab4dcee09c7ea5b9ff3e72684068e3e44ac7ca2db5d89d01b057591963543338b7f OP_CHECKSIG",
            "desc": "pk(047c8135d87694d8b49adc3a64bd0807b95dfe39ac7a5ee1996d34c01556273ab4dcee09c7ea5b9ff3e72684068e3e44ac7ca2db5d89d01b057591963543338b7f)#gsx255ps",
            "hex": "41047c8135d87694d8b49adc3a64bd0807b95dfe39ac7a5ee1996d34c01556273ab4dcee09c7ea5b9ff3e72684068e3e44ac7ca2db5d89d01b057591963543338b7fac",
            "type": "pubkey"
          }
        }
      ],
      "hex": "01000000010000000000000000000000000000000000000000000000000000000000000000ffffffff0804ffff001d02c604ffffffff0100f2052a010000004341047c8135d87694d8b49adc3a64bd0807b95dfe39ac7a5ee1996d34c01556273ab4dcee09c7ea5b9ff3e72684068e3e44ac7ca2db5d89d01b057591963543338b7fac00000000"
    }
  ]
}