{
  "hash": "0000000047c61b4d11c78afdd78d838a799d256d97cb7638a7f75e919bf6750f",
  "confirmations": 50189,
  "height": 2909,
  "version": 1,
  "versionHex": "00000001",
  "merkleroot": "a7464469f76a86fa336d9630ec1b789afd5c10f51721faf965ac1ce93650459c",
  "time": 1233697905,
  "mediantime": 1233695329,
  "nonce": 3887144737,
  "bits": "1d00ffff",
  "difficulty": 1,
  "chainwork": "00000000000000000000000000000000000000000000000000000b5e0b5e0b5e",
  "nTx": 1,
  "previousblockhash": "000000002726d8ffb29acb4a76fed0bcc7cc7f7fd1cce9fda0d91d39beca9ac6",
  "nextblockhash": "000000009a102824511c4bb8346b68066ee0e1d5ac470e841a7f95d218ad3c8f",
  "strippedsize": 216,
  "size": 216,
  "weight": 864,
  "tx": [
    {
      "txid": "a7464469f76a86fa336d9630ec1b789afd5c10f51721faf965ac1ce93650459c",
      "hash": "a7464469f76a86fa336d9630ec1b789afd5c10f51721faf965ac1ce93650459c",
      "version": 1,
      "size": 135,
      "vsize": 135,
      "weight": 540,
      "locktime": 0,
      "vin": [
        {
          "coinbase": "04ffff001d027407",
          "sequence": 4294967295
        }
      ],
      "vout": [
        {
          "value": 50.0,
          "n": 0,
          "scriptPubKey": {
            "asm": "04cfaefa7410caacec7813379be8e69684963ad5a9d8ac6ed56c9693896856d996f22dc374a881f6d1508526b699fea1b0193060a2d83614c269e6e3e492c3e55b OP_CHECKSIG",
            "desc": "pk(04cfaefa7410caacec7813379be8e69684963ad5a9d8ac6ed56c9693896856d996f22dc374a881f6d1508526b699fea1b0193060a2d83614c269e6e3e492c3e55b)#hqtymvme",
            "hex": "4104cfaefa7410caacec7813379be8e69684963ad5a9d8ac6ed56c9693896856d996f22dc374a881f6d1508526b699fea1b0193060a2d83614c269e6e3e492c3e55bac",
            "type": "pubkey"
          }
        }
      ],
      "hex": "01000000010000000000000000000000000000000000000000000000000000000000000000ffffffff0804ffff001d027407ffffffff0100f2052a01000000434104cfaefa7410caacec7813379be8e69684963ad5a9d8ac6ed56c9693896856d996f22dc374a881f6d1508526b699fea1b0193060a2d83614c269e6e3e492c3e55bac00000000"
    }
  ]
}