{
  "hash": "0000000072e23592ba4e4c94e5f3c2909c5158c42a937de79cc427eedc45acc3",
  "confirmations": 51457,
  "height": 1641,
  "version": 1,
  "versionHex": "00000001",
  "merkleroot": "d219ec335b9e81ad87b7baa6907a9ec8209ddb5fcf46d78c6f41a0e6ee7c96d1",
  "time": 1232829764,
  "mediantime": 1232826987,
  "nonce": 998249249,
  "bits": "1d00ffff",
  "difficulty": 1,
  "chainwork": "0000000000000000000000000000000000000000000000000000066a066a066a",
  "nTx": 1,
  "previousblockhash": "00000000046c6a34e2dee8bc6957cc36223526924aa5fd824564bc730905143b",
  "nextblockhash": "000000004842fee15ce6a523cd4354de3315b90272e5f56066b93f94a3f68e28",
  "strippedsize": 216,
  "size": 216,
  "weight": 864,
  "tx": [
    {
      "txid": "d219ec335b9e81ad87b7baa6907a9ec8209ddb5fcf46d78c6f41a0e6ee7c96d1",
      "hash": "d219ec335b9e81ad87b7baa6907a9ec8209ddb5fcf46d78c6f41a0e6ee7c96d1",
      "version": 1,
      "size": 135,
      "vsize": 135,
      "weight": 540,
      "locktime": 0,
      "vin": [
        {
          "coinbase": "04ffff001d028a02",
          "sequence": 4294967295
        }
      ],
      "vout": [
        {
          "value": 50.0,
          "n": 0,
          "scriptPubKey": {
            "asm": "04005d64a377ef6979a1f09ca7e402932f8418dc2b66d71ff8c051808d93f0e7d9079670f06669973c3d2add1374aa59ddf176be173533bda2de30da3c06fe2363 OP_CHECKSIG",
            "desc": "pk(04005d64a377ef6979a1f09ca7e402932f8418dc2b66d71ff8c051808d93f0e7d9079670f06669973c3d2add1374aa59ddf176be173533bda2de30da3c06fe2363)#jlrx0pkp",
            "hex": "4104005d64a377ef6979a1f09ca7e402932f8418dc2b66d71ff8c051808d93f0e7d9079670f06669973c3d2add1374aa59ddf176be173533bda2de30da3c06fe2363ac",
            "type": "pubkey"
          }
        }
      ],
      "hex": "01000000010000000000000000000000000000000000000000000000000000000000000000ffffffff0804ffff001d028a02ffffffff0100f2052a01000000434104005d64a377ef6979a1f09ca7e402932f8418dc2b66d71ff8c051808d93f0e7d9079670f06669973c3d2add1374aa59ddf176be173533bda2de30da3c06fe2363ac00000000"
    }
  ]
}