{
  "hash": "000000006e6f24c028e57ed885e5925993a21e8521fda852c8e8941298e517dd",
  "confirmations": 43882,
  "height": 9216,
  "version": 1,
  "versionHex": "00000001",
  "merkleroot": "707225e8aaece6eef14c2a82ff210e848de7e9dec1688aea51ce8869d2bd0af7",
  "time": 1238412924,
  "mediantime": 1238409957,
  "nonce": 1504452869,
  "bits": "1d00ffff",
  "difficulty": 1,
  "chainwork": "0000000000000000000000000000000000000000000000000000240124012401",
  "nTx": 1,
  "previousblockhash": "0000000094c61c16308c0e2c2e482835fd30c30a04ac2f833bc2b529ce6ee38c",
  "nextblockhash": "0000000011d0af58284833562b2d4560dc629a4b7af832c09fe0398826ec95d1",
  "strippedsize": 215,
  "size": 215,
  "weight": 860,
  "tx": [
    {
      "txid": "707225e8aaece6eef14c2a82ff210e848de7e9dec1688aea51ce8869d2bd0af7",
      "hash": "707225e8aaece6eef14c2a82ff210e848de7e9dec1688aea51ce8869d2bd0af7",
      "version": 1,
      "size": 134,
      "vsize": 134,
      "weight": 536,
      "locktime": 0,
      "vin": [
        {
          "coinbase": "04ffff001d012c",
          "sequence": 4294967295
        }
      ],
      "vout": [
        {
          "value": 50.0,
          "n": 0,
          "scriptPubKey": {
            "asm": "049ec4e369c30776f60f5381ce54a7edaff96545f94a18b0d09db8174be5683a1afec0c2e55bc989004e3f5543cbe5340ac3842576737edc353be3e1a25a717254 OP_CHECKSIG",
            "desc": "pk(049ec4e369c30776f60f5381ce54a7edaff96545f94a18b0d09db8174be5683a1afec0c2e55bc989004e3f5543cbe5340ac3842576737edc353be3e1a25a717254)#vtuug9w3",
            "hex": "41049ec4e369c30776f60f5381ce54a7edaff96545f94a18b0d09db8174be5683a1afec0c2e55bc989004e3f5543cbe5340ac3842576737edc353be3e1a25a717254ac",
            "type": "pubkey"
          }
        }
      ],
      "hex": "01000000010000000000000000000000000000000000000000000000000000000000000000ffffffff0704ffff001d012cffffffff0100f2052a010000004341049ec4e369c30776f60f5381ce54a7edaff96545f94a18b0d09db8174be5683a1afec0c2e55bc989004e3f5543cbe5340ac3842576737edc353be3e1a25a717254ac00000000"
    }
  ]
}