{
  "hash": "00000000a477aa0599bd9d42573bf8e2f0d4c737d06b95e1ee05fd3cade510ff",
  "confirmations": 43793,
  "height": 9305,
  "version": 1,
  "versionHex": "00000001",
  "merkleroot": "820347cba30ce4c464dfe923c86b8a9dcc4a52630fc2988d073c1556b2a2e0c5",
  "time": 1238479116,
  "mediantime": 1238474595,
  "nonce": 3392580870,
  "bits": "1d00ffff",
  "difficulty": 1,
  "chainwork": "0000000000000000000000000000000000000000000000000000245a245a245a",
  "nTx": 1,
  "previousblockhash": "00000000e7015c74b2924ff0c3db2f481da87a3c59eba10149b0361e2cd26c3b",
  "nextblockhash": "0000000039e4d37ff01bb9ed216bf0a4237426eab278cc00b8325cf446c5f66f",
  "strippedsize": 216,
  "size": 216,
  "weight": 864,
  "tx": [
    {
      "txid": "820347cba30ce4c464dfe923c86b8a9dcc4a52630fc2988d073c1556b2a2e0c5",
      "hash": "820347cba30ce4c464dfe923c86b8a9dcc4a52630fc2988d073c1556b2a2e0c5",
      "version": 1,
      "size": 135,
      "vsize": 135,
      "weight": 540,
      "locktime": 0,
      "vin": [
        {
          "coinbase": "04ffff001d02d301",
          "sequence": 4294967295
        }
      ],
      "vout": [
        {
          "value": 50.0,
          "n": 0,
          "scriptPubKey": {
            "asm": "041ec49b68729cd8ea64e2b366df44fd25a64de896bd5e9dfaef075480bb5c4e01dee88503bb29b465ec48b8edac42a35fb36b06359e8d30a0a2af5fafe20a33da OP_CHECKSIG",
            "desc": "pk(041ec49b68729cd8ea64e2b366df44fd25a64de896bd5e9dfaef075480bb5c4e01dee88503bb29b465ec48b8edac42a35fb36b06359e8d30a0a2af5fafe20a33da)#00lwl9ay",
            "hex": "41041ec49b68729cd8ea64e2b366df44fd25a64de896bd5e9dfaef075480bb5c4e01dee88503bb29b465ec48b8edac42a35fb36b06359e8d30a0a2af5fafe20a33daac",
            "type": "pubkey"
          }
        }
      ],
      "hex": "01000000010000000000000000000000000000000000000000000000000000000000000000ffffffff0804ffff001d02d301ffffffff0100f2052a010000004341041ec49b68729cd8ea64e2b366df44fd25a64de896bd5e9dfaef075480bb5c4e01dee88503bb29b465ec48b8edac42a35fb36b06359e8d30a0a2af5fafe20a33daac00000000"
    }
  ]
}