{
  "hash": "0000000011fd31ceefda804321c8e00d9870c15a5395f361f3b0c6908eb7d04b",
  "confirmations": 51942,
  "height": 88,
  "version": 1,
  "versionHex": "00000001",
  "merkleroot": "797556eb999f8fdfd8198dd9ea80723409a359ddcd75c4a54a511970745812f0",
  "time": 1231652408,
  "mediantime": 1231648583,
  "nonce": 4172594200,
  "bits": "1d00ffff",
  "difficulty": 1,
  "chainwork": "0000000000000000000000000000000000000000000000000000005900590059",
  "nTx": 1,
  "previousblockhash": "00000000a31b3785f0adc10975a4e3e356d133365c0aeab6e42240e17ac2e63c",
  "nextblockhash": "0000000076d9ec583c757b8911406afe4d021aed0e5f30c16e65c82a71af32c2",
  "strippedsize": 215,
  "size": 215,
  "weight": 860,
  "tx": [
    {
      "txid": "797556eb999f8fdfd8198dd9ea80723409a359ddcd75c4a54a511970745812f0",
      "hash": "797556eb999f8fdfd8198dd9ea80723409a359ddcd75c4a54a511970745812f0",
      "version": 1,
      "size": 134,
      "vsize": 134,
      "weight": 536,
      "locktime": 0,
      "vin": [
        {
          "coinbase": "04ffff001d0121",
          "sequence": 4294967295
        }
      ],
      "vout": [
        {
          "value": 50.0,
          "n": 0,
          "scriptPubKey": {
            "asm": "04db2bfc4aee47f0b45ae88bc76431940aa2547ef7ba34e4bf176f7cd37a3713e56a21ebece2a105df52bd6b4d213aaa8c7bb7c6556bff3e2a9d43e4658d5e3af2 OP_CHECKSIG",
            "desc": "pk(04db2bfc4aee47f0b45ae88bc76431940aa2547ef7ba34e4bf176f7cd37a3713e56a21ebece2a105df52bd6b4d213aaa8c7bb7c6556bff3e2a9d43e4658d5e3af2)#6svft684",
            "hex": "4104db2bfc4aee47f0b45ae88bc76431940aa2547ef7ba34e4bf176f7cd37a3713e56a21ebece2a105df52bd6b4d213aaa8c7bb7c6556bff3e2a9d43e4658d5e3af2ac",
            "type": "pubkey"
          }
        }
      ],
      "hex": "01000000010000000000000000000000000000000000000000000000000000000000000000ffffffff0704ffff001d0121ffffffff0100f2052a01000000434104db2bfc4aee47f0b45ae88bc76431940aa2547ef7ba34e4bf176f7cd37a3713e56a21ebece2a105df52bd6b4d213aaa8c7bb7c6556bff3e2a9d43e4658d5e3af2ac00000000"
    }
  ]
}