{
  "hash": "00000000bb3e241dfd6f79ec7babc1e3395db92200e778d959861c513c1083fb",
  "confirmations": 50596,
  "height": 2502,
  "version": 1,
  "versionHex": "00000001",
  "merkleroot": "0c886c29d95f095cc5b8ff9d1eabe8acab2a9fdf0118a12984d2a506a1c5c330",
  "time": 1233421641,
  "mediantime": 1233419998,
  "nonce": 1568284,
  "bits": "1d00ffff",
  "difficulty": 1,
  "chainwork": "000000000000000000000000000000000000000000000000000009c709c709c7",
  "nTx": 1,
  "previousblockhash": "00000000f11a02048994849fc2e785239b23de9bcfd7222d159188c52e7a98c5",
  "nextblockhash": "000000005027b4df8186a6221dab20522ec47a5c5eb146c3bc56c1429ddd26de",
  "strippedsize": 216,
  "size": 216,
  "weight": 864,
  "tx": [
    {
      "txid": "0c886c29d95f095cc5b8ff9d1eabe8acab2a9fdf0118a12984d2a506a1c5c330",
      "hash": "0c886c29d95f095cc5b8ff9d1eabe8acab2a9fdf0118a12984d2a506a1c5c330",
      "version": 1,
      "size": 135,
      "vsize": 135,
      "weight": 540,
      "locktime": 0,
      "vin": [
        {
          "coinbase": "04ffff001d023305",
          "sequence": 4294967295
        }
      ],
      "vout": [
        {
          "value": 50.0,
          "n": 0,
          "scriptPubKey": {
            "asm": "04fddd080fdbcb423e2852df671809b22aa907f42d4af1c7602062eb8d7fbcb172e53bd3494960369eed6753c37dd27c8428aaf096a426e969def0d4c7c61a4c8d OP_CHECKSIG",
            "desc": "pk(04fddd080fdbcb423e2852df671809b22aa907f42d4af1c7602062eb8d7fbcb172e53bd3494960369eed6753c37dd27c8428aaf096a426e969def0d4c7c61a4c8d)#nd9szzah",
            "hex": "4104fddd080fdbcb423e2852df671809b22aa907f42d4af1c7602062eb8d7fbcb172e53bd3494960369eed6753c37dd27c8428aaf096a426e969def0d4c7c61a4c8dac",
            "type": "pubkey"
          }
        }
      ],
      "hex": "01000000010000000000000000000000000000000000000000000000000000000000000000ffffffff0804ffff001d023305ffffffff0100f2052a01000000434104fddd080fdbcb423e2852df671809b22aa907f42d4af1c7602062eb8d7fbcb172e53bd3494960369eed6753c37dd27c8428aaf096a426e969def0d4c7c61a4c8dac00000000"
    }
  ]
}