{
  "hash": "0000000011c0a69f3063cf4fb95ac340e2557e57463f71817e7c2b6cf8c356b4",
  "confirmations": 50757,
  "height": 2341,
  "version": 1,
  "versionHex": "00000001",
  "merkleroot": "c191210a66ad6cff3a2b1a808507e755dbe570eb26065b4003b348c42c2b05ef",
  "time": 1233310222,
  "mediantime": 1233306504,
  "nonce": 724869632,
  "bits": "1d00ffff",
  "difficulty": 1,
  "chainwork": "0000000000000000000000000000000000000000000000000000092609260926",
  "nTx": 1,
  "previousblockhash": "00000000112d24a5aa42bc6695b9c7797ac8c874ba5d927793369706ef5db1fe",
  "nextblockhash": "000000000ce977110c4d11b875c77117a4b0c75fc26df4499cbead8b099e817c",
  "strippedsize": 216,
  "size": 216,
  "weight": 864,
  "tx": [
    {
      "txid": "c191210a66ad6cff3a2b1a808507e755dbe570eb26065b4003b348c42c2b05ef",
      "hash": "c191210a66ad6cff3a2b1a808507e755dbe570eb26065b4003b348c42c2b05ef",
      "version": 1,
      "size": 135,
      "vsize": 135,
      "weight": 540,
      "locktime": 0,
      "vin": [
        {
          "coinbase": "04ffff001d028a02",
          "sequence": 4294967295
        }
      ],
      "vout": [
        {
          "value": 50.0,
          "n": 0,
          "scriptPubKey": {
            "asm": "04f90b0e3b9851e24c41c9772c54b8ddca6a890947675997622396056e4b9c10d9f8943b53481296b4fe34444f65e51a4163efa46710767d77b3e2bece4bcee26b OP_CHECKSIG",
            "desc": "pk(04f90b0e3b9851e24c41c9772c54b8ddca6a890947675997622396056e4b9c10d9f8943b53481296b4fe34444f65e51a4163efa46710767d77b3e2bece4bcee26b)#rcpj3hnl",
            "hex": "4104f90b0e3b9851e24c41c9772c54b8ddca6a890947675997622396056e4b9c10d9f8943b53481296b4fe34444f65e51a4163efa46710767d77b3e2bece4bcee26bac",
            "type": "pubkey"
          }
        }
      ],
      "hex": "01000000010000000000000000000000000000000000000000000000000000000000000000ffffffff0804ffff001d028a02ffffffff0100f2052a01000000434104f90b0e3b9851e24c41c9772c54b8ddca6a890947675997622396056e4b9c10d9f8943b53481296b4fe34444f65e51a4163efa46710767d77b3e2bece4bcee26bac00000000"
    }
  ]
}