{
  "hash": "000000003b0b946d5ec4398fe6a98126563aa0ac52b5cbd0bdf1397c6a3b38af",
  "confirmations": 43643,
  "height": 9455,
  "version": 1,
  "versionHex": "00000001",
  "merkleroot": "eda8d3e69bc4dee0096e613fcb5aa6214c5a1ea21a2c88fa5ee2cdd4c553ac22",
  "time": 1238595922,
  "mediantime": 1238592164,
  "nonce": 37132006,
  "bits": "1d00ffff",
  "difficulty": 1,
  "chainwork": "000000000000000000000000000000000000000000000000000024f024f024f0",
  "nTx": 1,
  "previousblockhash": "0000000077ef0a8af7749037a92165605c627cae835cf2d5cc1b4f81dd7756bd",
  "nextblockhash": "00000000b1ad16f150df83eb4f2a9c22eed1619b85b6aa5ba99ca039d322a98c",
  "strippedsize": 215,
  "size": 215,
  "weight": 860,
  "tx": [
    {
      "txid": "eda8d3e69bc4dee0096e613fcb5aa6214c5a1ea21a2c88fa5ee2cdd4c553ac22",
      "hash": "eda8d3e69bc4dee0096e613fcb5aa6214c5a1ea21a2c88fa5ee2cdd4c553ac22",
      "version": 1,
      "size": 134,
      "vsize": 134,
      "weight": 536,
      "locktime": 0,
      "vin": [
        {
          "coinbase": "04ffff001d0126",
          "sequence": 4294967295
        }
      ],
      "vout": [
        {
          "value": 50.0,
          "n": 0,
          "scriptPubKey": {
            "asm": "0410d118c5e38c88c4b35b675246462ecd8f9434d1ee8c2a04cc87cd7c19fa50ff77321614e6d481ea4dd321e30c8bfd409e701067809cd64d0c1c020f08964b0a OP_CHECKSIG",
            "desc": "pk(0410d118c5e38c88c4b35b675246462ecd8f9434d1ee8c2a04cc87cd7c19fa50ff77321614e6d481ea4dd321e30c8bfd409e701067809cd64d0c1c020f08964b0a)#czvnurfc",
            "hex": "410410d118c5e38c88c4b35b675246462ecd8f9434d1ee8c2a04cc87cd7c19fa50ff77321614e6d481ea4dd321e30c8bfd409e701067809cd64d0c1c020f08964b0aac",
            "type": "pubkey"
          }
        }
      ],
      "hex": "01000000010000000000000000000000000000000000000000000000000000000000000000ffffffff0704ffff001d0126ffffffff0100f2052a0100000043410410d118c5e38c88c4b35b675246462ecd8f9434d1ee8c2a04cc87cd7c19fa50ff77321614e6d481ea4dd321e30c8bfd409e701067809cd64d0c1c020f08964b0aac00000000"
    }
  ]
}