{
  "hash": "000000004071ae39074040d4a302d96f61c45a0d38b6d5c5a7f4618aaa9e28c5",
  "confirmations": 46604,
  "height": 6494,
  "version": 1,
  "versionHex": "00000001",
  "merkleroot": "b2508d5115157ecb5f4fa25050915c6d115f97fba6e402503e7749b8d817852c",
  "time": 1236326225,
  "mediantime": 1236321437,
  "nonce": 3505800985,
  "bits": "1d00ffff",
  "difficulty": 1,
  "chainwork": "0000000000000000000000000000000000000000000000000000195f195f195f",
  "nTx": 1,
  "previousblockhash": "00000000b58de9128809fd2f74b9664d8422c2e250d5a3f1454e69579c6d0d18",
  "nextblockhash": "00000000973b14cc39260f83861f399d419128b4a15e40c60465741c2d1d78fe",
  "strippedsize": 216,
  "size": 216,
  "weight": 864,
  "tx": [
    {
      "txid": "b2508d5115157ecb5f4fa25050915c6d115f97fba6e402503e7749b8d817852c",
      "hash": "b2508d5115157ecb5f4fa25050915c6d115f97fba6e402503e7749b8d817852c",
      "version": 1,
      "size": 135,
      "vsize": 135,
      "weight": 540,
      "locktime": 0,
      "vin": [
        {
          "coinbase": "04ffff001d029103",
          "sequence": 4294967295
        }
      ],
      "vout": [
        {
          "value": 50.0,
          "n": 0,
          "scriptPubKey": {
            "asm": "04e0d1c7a9feb73a5d59f211cef8324d7a10a2aab651bacf86e8c89bffc58c58c7bcb826fff49511b607fd2c9820e900cf5834f0e0304964e20873220b6458b0e6 OP_CHECKSIG",
            "desc": "pk(04e0d1c7a9feb73a5d59f211cef8324d7a10a2aab651bacf86e8c89bffc58c58c7bcb826fff49511b607fd2c9820e900cf5834f0e0304964e20873220b6458b0e6)#vlwk9k0f",
            "hex": "4104e0d1c7a9feb73a5d59f211cef8324d7a10a2aab651bacf86e8c89bffc58c58c7bcb826fff49511b607fd2c9820e900cf5834f0e0304964e20873220b6458b0e6ac",
            "type": "pubkey"
          }
        }
      ],
      "hex": "01000000010000000000000000000000000000000000000000000000000000000000000000ffffffff0804ffff001d029103ffffffff0100f2052a01000000434104e0d1c7a9feb73a5d59f211cef8324d7a10a2aab651bacf86e8c89bffc58c58c7bcb826fff49511b607fd2c9820e900cf5834f0e0304964e20873220b6458b0e6ac00000000"
    }
  ]
}