{
  "hash": "000000006acde06ce6e26138c93848a595511fef93c4dd68e330332ba9604217",
  "confirmations": 51892,
  "height": 1206,
  "version": 1,
  "versionHex": "00000001",
  "merkleroot": "eabb0a6912af65d00d571793c5cd73b89949f5e2c9fa4cd5e4b165201883a7b4",
  "time": 1232505102,
  "mediantime": 1232501684,
  "nonce": 3527980,
  "bits": "1d00ffff",
  "difficulty": 1,
  "chainwork": "000000000000000000000000000000000000000000000000000004b704b704b7",
  "nTx": 1,
  "previousblockhash": "00000000cd2aefa450b4f3615caac2d2f9b8d555267c43c1dc63fdcf93c1168e",
  "nextblockhash": "00000000206be65b27f200bc6c642c4d31fda97142c04e20ae6ffb111a88af93",
  "strippedsize": 216,
  "size": 216,
  "weight": 864,
  "tx": [
    {
      "txid": "eabb0a6912af65d00d571793c5cd73b89949f5e2c9fa4cd5e4b165201883a7b4",
      "hash": "eabb0a6912af65d00d571793c5cd73b89949f5e2c9fa4cd5e4b165201883a7b4",
      "version": 1,
      "size": 135,
      "vsize": 135,
      "weight": 540,
      "locktime": 0,
      "vin": [
        {
          "coinbase": "04ffff001d020b01",
          "sequence": 4294967295
        }
      ],
      "vout": [
        {
          "value": 50.0,
          "n": 0,
          "scriptPubKey": {
            "asm": "04b5705c6dfbc7a4ee95d4bb9ff5f1d203900d27d7dbce5c6504b7cfb4e91e954e2ccc248825f38a7e18622ba87e537450e800912178e71f98bc40d85464caa976 OP_CHECKSIG",
            "desc": "pk(04b5705c6dfbc7a4ee95d4bb9ff5f1d203900d27d7dbce5c6504b7cfb4e91e954e2ccc248825f38a7e18622ba87e537450e800912178e71f98bc40d85464caa976)#djf5tj37",
            "hex": "4104b5705c6dfbc7a4ee95d4bb9ff5f1d203900d27d7dbce5c6504b7cfb4e91e954e2ccc248825f38a7e18622ba87e537450e800912178e71f98bc40d85464caa976ac",
            "type": "pubkey"
          }
        }
      ],
      "hex": "01000000010000000000000000000000000000000000000000000000000000000000000000ffffffff0804ffff001d020b01ffffffff0100f2052a01000000434104b5705c6dfbc7a4ee95d4bb9ff5f1d203900d27d7dbce5c6504b7cfb4e91e954e2ccc248825f38a7e18622ba87e537450e800912178e71f98bc40d85464caa976ac00000000"
    }
  ]
}