{
  "hash": "0000000054632d6e2e060a41b4fcff39ba16b90c3594d2ee8bbf30f8c5f03817",
  "confirmations": 49412,
  "height": 3686,
  "version": 1,
  "versionHex": "00000001",
  "merkleroot": "bb4d6d71ba8a833e6ca0adfe4b185a20541f460c9a53c549ef426a1266a7de47",
  "time": 1234224307,
  "mediantime": 1234222318,
  "nonce": 78116053,
  "bits": "1d00ffff",
  "difficulty": 1,
  "chainwork": "00000000000000000000000000000000000000000000000000000e670e670e67",
  "nTx": 1,
  "previousblockhash": "00000000503dbd811fc9e59fc8cdad4d2bf05c85390e987c67b75e8a1019e150",
  "nextblockhash": "000000008a96abd5137bdad9baf7125c2dfb0b8c99e16441123f8f98d5593e01",
  "strippedsize": 215,
  "size": 215,
  "weight": 860,
  "tx": [
    {
      "txid": "bb4d6d71ba8a833e6ca0adfe4b185a20541f460c9a53c549ef426a1266a7de47",
      "hash": "bb4d6d71ba8a833e6ca0adfe4b185a20541f460c9a53c549ef426a1266a7de47",
      "version": 1,
      "size": 134,
      "vsize": 134,
      "weight": 536,
      "locktime": 0,
      "vin": [
        {
          "coinbase": "04ffff001d014c",
          "sequence": 4294967295
        }
      ],
      "vout": [
        {
          "value": 50.0,
          "n": 0,
          "scriptPubKey": {
            "asm": "0423342462d59c3acbf73ca2b8d3606cdffd323c85cabcca7a259f6454b93fee67b0178459a835b2b782b295ecd68132439c7dd4780e6d34089252f13716689fc0 OP_CHECKSIG",
            "desc": "pk(0423342462d59c3acbf73ca2b8d3606cdffd323c85cabcca7a259f6454b93fee67b0178459a835b2b782b295ecd68132439c7dd4780e6d34089252f13716689fc0)#nckhgh8y",
            "hex": "410423342462d59c3acbf73ca2b8d3606cdffd323c85cabcca7a259f6454b93fee67b0178459a835b2b782b295ecd68132439c7dd4780e6d34089252f13716689fc0ac",
            "type": "pubkey"
          }
        }
      ],
      "hex": "01000000010000000000000000000000000000000000000000000000000000000000000000ffffffff0704ffff001d014cffffffff0100f2052a0100000043410423342462d59c3acbf73ca2b8d3606cdffd323c85cabcca7a259f6454b93fee67b0178459a835b2b782b295ecd68132439c7dd4780e6d34089252f13716689fc0ac00000000"
    }
  ]
}