{
  "hash": "000000000d72b52bd0b37eaddabb740f841ef07d949bddb1e464e819c4a8b96d",
  "confirmations": 50172,
  "height": 2926,
  "version": 1,
  "versionHex": "00000001",
  "merkleroot": "3e63a51e54962e8fe3ed151310fb59660990669f10a5b5569158290fb51f5153",
  "time": 1233708027,
  "mediantime": 1233704807,
  "nonce": 961425949,
  "bits": "1d00ffff",
  "difficulty": 1,
  "chainwork": "00000000000000000000000000000000000000000000000000000b6f0b6f0b6f",
  "nTx": 1,
  "previousblockhash": "00000000d50a6a8bd41991340a80b0c01402d5fb1bda31ec62d1c768bcfde542",
  "nextblockhash": "00000000e9aaa8adb247ad74351509c6d22e1ef0a5f509bc9c3cee7be4b18a26",
  "strippedsize": 215,
  "size": 215,
  "weight": 860,
  "tx": [
    {
      "txid": "3e63a51e54962e8fe3ed151310fb59660990669f10a5b5569158290fb51f5153",
      "hash": "3e63a51e54962e8fe3ed151310fb59660990669f10a5b5569158290fb51f5153",
      "version": 1,
      "size": 134,
      "vsize": 134,
      "weight": 536,
      "locktime": 0,
      "vin": [
        {
          "coinbase": "04ffff001d0116",
          "sequence": 4294967295
        }
      ],
      "vout": [
        {
          "value": 50.0,
          "n": 0,
          "scriptPubKey": {
            "asm": "0465be181bd2cd64755fd62724fecd3c984e8c5d9219a42e18667be161d725747476cb7440ca2d680253d544e00d075425ced5c3c939d17367c250ea38e9c98c2a OP_CHECKSIG",
            "desc": "pk(0465be181bd2cd64755fd62724fecd3c984e8c5d9219a42e18667be161d725747476cb7440ca2d680253d544e00d075425ced5c3c939d17367c250ea38e9c98c2a)#5kv2cwy0",
            "hex": "410465be181bd2cd64755fd62724fecd3c984e8c5d9219a42e18667be161d725747476cb7440ca2d680253d544e00d075425ced5c3c939d17367c250ea38e9c98c2aac",
            "type": "pubkey"
          }
        }
      ],
      "hex": "01000000010000000000000000000000000000000000000000000000000000000000000000ffffffff0704ffff001d0116ffffffff0100f2052a0100000043410465be181bd2cd64755fd62724fecd3c984e8c5d9219a42e18667be161d725747476cb7440ca2d680253d544e00d075425ced5c3c939d17367c250ea38e9c98c2aac00000000"
    }
  ]
}