{
  "hash": "0000000033f5a7a0833040c4023da88c50b8ad194a37b60848e2ba7dae04b6aa",
  "confirmations": 48670,
  "height": 4428,
  "version": 1,
  "versionHex": "00000001",
  "merkleroot": "0df8ac977f89d415d176a50c471aa71ce7a7c76c38fc80ed08034e7a557f660f",
  "time": 1234734106,
  "mediantime": 1234730511,
  "nonce": 139021416,
  "bits": "1d00ffff",
  "difficulty": 1,
  "chainwork": "0000000000000000000000000000000000000000000000000000114d114d114d",
  "nTx": 1,
  "previousblockhash": "000000000d40f101383a30a217b75f65468df86b974be8e7d6941ba5f8a968a0",
  "nextblockhash": "000000008ce5f7f18a07b732fd8a7f3a21eaadc36e2070e50c804b3c94947de5",
  "strippedsize": 215,
  "size": 215,
  "weight": 860,
  "tx": [
    {
      "txid": "0df8ac977f89d415d176a50c471aa71ce7a7c76c38fc80ed08034e7a557f660f",
      "hash": "0df8ac977f89d415d176a50c471aa71ce7a7c76c38fc80ed08034e7a557f660f",
      "version": 1,
      "size": 134,
      "vsize": 134,
      "weight": 536,
      "locktime": 0,
      "vin": [
        {
          "coinbase": "04ffff001d0119",
          "sequence": 4294967295
        }
      ],
      "vout": [
        {
          "value": 50.0,
          "n": 0,
          "scriptPubKey": {
            "asm": "045346108b060763169eb9c6f1f558c3fce4c520cf88c38bc77ab1fa586cd4e345a6035d0ddfdafb5a675db90fdd6ddec1c63a431d00bcd6f2fb421f5eeacbd88e OP_CHECKSIG",
            "desc": "pk(045346108b060763169eb9c6f1f558c3fce4c520cf88c38bc77ab1fa586cd4e345a6035d0ddfdafb5a675db90fdd6ddec1c63a431d00bcd6f2fb421f5eeacbd88e)#u8r8dgw4",
            "hex": "41045346108b060763169eb9c6f1f558c3fce4c520cf88c38bc77ab1fa586cd4e345a6035d0ddfdafb5a675db90fdd6ddec1c63a431d00bcd6f2fb421f5eeacbd88eac",
            "type": "pubkey"
          }
        }
      ],
      "hex": "01000000010000000000000000000000000000000000000000000000000000000000000000ffffffff0704ffff001d0119ffffffff0100f2052a010000004341045346108b060763169eb9c6f1f558c3fce4c520cf88c38bc77ab1fa586cd4e345a6035d0ddfdafb5a675db90fdd6ddec1c63a431d00bcd6f2fb421f5eeacbd88eac00000000"
    }
  ]
}