{
  "hash": "000000009b4eafe694d7cfe4f8a2555130d72d5fdf62cc1006242e2eac8d7f9c",
  "confirmations": 45822,
  "height": 7276,
  "version": 1,
  "versionHex": "00000001",
  "merkleroot": "59bf4ca914c0a065d0accabed25bff14675e7cb6d88e31cd4fbf5771b3f4a9a0",
  "time": 1236928953,
  "mediantime": 1236924330,
  "nonce": 4017775403,
  "bits": "1d00ffff",
  "difficulty": 1,
  "chainwork": "00000000000000000000000000000000000000000000000000001c6d1c6d1c6d",
  "nTx": 1,
  "previousblockhash": "000000007fe51eab27cb67946a3410430e4af64bfadd1be96d081a9460409adc",
  "nextblockhash": "00000000feeb0a00f26eb90dcceb1f6261b78204d88d113a2cac2e57cfba3a10",
  "strippedsize": 216,
  "size": 216,
  "weight": 864,
  "tx": [
    {
      "txid": "59bf4ca914c0a065d0accabed25bff14675e7cb6d88e31cd4fbf5771b3f4a9a0",
      "hash": "59bf4ca914c0a065d0accabed25bff14675e7cb6d88e31cd4fbf5771b3f4a9a0",
      "version": 1,
      "size": 135,
      "vsize": 135,
      "weight": 540,
      "locktime": 0,
      "vin": [
        {
          "coinbase": "04ffff001d02f206",
          "sequence": 4294967295
        }
      ],
      "vout": [
        {
          "value": 50.0,
          "n": 0,
          "scriptPubKey": {
            "asm": "045f349550f6d0c56aa71995310a96604d743f5206211c153513144a2df5e3f2283d5e3e7f4c5db77929541c2879d7362cd0121a1e26e10f22bd8a271b1b6655a4 OP_CHECKSIG",
            "desc": "pk(045f349550f6d0c56aa71995310a96604d743f5206211c153513144a2df5e3f2283d5e3e7f4c5db77929541c2879d7362cd0121a1e26e10f22bd8a271b1b6655a4)#uwcqmyqv",
            "hex": "41045f349550f6d0c56aa71995310a96604d743f5206211c153513144a2df5e3f2283d5e3e7f4c5db77929541c2879d7362cd0121a1e26e10f22bd8a271b1b6655a4ac",
            "type": "pubkey"
          }
        }
      ],
      "hex": "01000000010000000000000000000000000000000000000000000000000000000000000000ffffffff0804ffff001d02f206ffffffff0100f2052a010000004341045f349550f6d0c56aa71995310a96604d743f5206211c153513144a2df5e3f2283d5e3e7f4c5db77929541c2879d7362cd0121a1e26e10f22bd8a271b1b6655a4ac00000000"
    }
  ]
}