{
  "hash": "00000000a3de4e80b0392a889bdac50393b8de5cf8e313a08d02b88fee366aa2",
  "confirmations": 46672,
  "height": 6426,
  "version": 1,
  "versionHex": "00000001",
  "merkleroot": "0c0d6fc8ab9b365706f870c6c7392f3f9463946cdacf822aef32a7b2115dc199",
  "time": 1236275904,
  "mediantime": 1236270913,
  "nonce": 29725978,
  "bits": "1d00ffff",
  "difficulty": 1,
  "chainwork": "0000000000000000000000000000000000000000000000000000191b191b191b",
  "nTx": 1,
  "previousblockhash": "000000004d15e01d3ffc495df7bb638c2b35c5b5dd0ba405615f513e3393f0c7",
  "nextblockhash": "00000000419b12a77cfc58546f8b1b764c031cf0192286a5a304a153ae520aa3",
  "strippedsize": 215,
  "size": 215,
  "weight": 860,
  "tx": [
    {
      "txid": "0c0d6fc8ab9b365706f870c6c7392f3f9463946cdacf822aef32a7b2115dc199",
      "hash": "0c0d6fc8ab9b365706f870c6c7392f3f9463946cdacf822aef32a7b2115dc199",
      "version": 1,
      "size": 134,
      "vsize": 134,
      "weight": 536,
      "locktime": 0,
      "vin": [
        {
          "coinbase": "04ffff001d013c",
          "sequence": 4294967295
        }
      ],
      "vout": [
        {
          "value": 50.0,
          "n": 0,
          "scriptPubKey": {
            "asm": "04a85bc2e36f503b0229cbc8f975332295de446a1cba567b7d02c18e9a9e57841fccdc66014622f70662968391ec2ecf14fa499548791d6422460866a78a80be3f OP_CHECKSIG",
            "desc": "pk(04a85bc2e36f503b0229cbc8f975332295de446a1cba567b7d02c18e9a9e57841fccdc66014622f70662968391ec2ecf14fa499548791d6422460866a78a80be3f)#z3ys9t9w",
            "hex": "4104a85bc2e36f503b0229cbc8f975332295de446a1cba567b7d02c18e9a9e57841fccdc66014622f70662968391ec2ecf14fa499548791d6422460866a78a80be3fac",
            "type": "pubkey"
          }
        }
      ],
      "hex": "01000000010000000000000000000000000000000000000000000000000000000000000000ffffffff0704ffff001d013cffffffff0100f2052a01000000434104a85bc2e36f503b0229cbc8f975332295de446a1cba567b7d02c18e9a9e57841fccdc66014622f70662968391ec2ecf14fa499548791d6422460866a78a80be3fac00000000"
    }
  ]
}