{
  "hash": "0000000096ebcd20e619b7c67b2de6e01c5362864c25302da3e2a07750d5bb9a",
  "confirmations": 44839,
  "height": 8259,
  "version": 1,
  "versionHex": "00000001",
  "merkleroot": "50deb85507f3bd8b1c54004907897b8f3bafd1b8af7d59de861647f36516e6fc",
  "time": 1237703036,
  "mediantime": 1237699937,
  "nonce": 3721208326,
  "bits": "1d00ffff",
  "difficulty": 1,
  "chainwork": "0000000000000000000000000000000000000000000000000000204420442044",
  "nTx": 1,
  "previousblockhash": "00000000d68ba74afcda19e020428a19c4052df1b207246060bfd015c8953efa",
  "nextblockhash": "00000000f2ecfd89ee93cb3c4c9ccdb96f8edcd8785f4b9299916ebc035972c0",
  "strippedsize": 216,
  "size": 216,
  "weight": 864,
  "tx": [
    {
      "txid": "50deb85507f3bd8b1c54004907897b8f3bafd1b8af7d59de861647f36516e6fc",
      "hash": "50deb85507f3bd8b1c54004907897b8f3bafd1b8af7d59de861647f36516e6fc",
      "version": 1,
      "size": 135,
      "vsize": 135,
      "weight": 540,
      "locktime": 0,
      "vin": [
        {
          "coinbase": "04ffff001d029b03",
          "sequence": 4294967295
        }
      ],
      "vout": [
        {
          "value": 50.0,
          "n": 0,
          "scriptPubKey": {
            "asm": "04b5e8d63687f475fe3c349d727fc731bc951f7599183e6593caaf68d417474e6300e091db96309dfc53d5134069663044ab53d54c3281ae5bffd88ddc71312570 OP_CHECKSIG",
            "desc": "pk(04b5e8d63687f475fe3c349d727fc731bc951f7599183e6593caaf68d417474e6300e091db96309dfc53d5134069663044ab53d54c3281ae5bffd88ddc71312570)#f6kwgtld",
            "hex": "4104b5e8d63687f475fe3c349d727fc731bc951f7599183e6593caaf68d417474e6300e091db96309dfc53d5134069663044ab53d54c3281ae5bffd88ddc71312570ac",
            "type": "pubkey"
          }
        }
      ],
      "hex": "01000000010000000000000000000000000000000000000000000000000000000000000000ffffffff0804ffff001d029b03ffffffff0100f2052a01000000434104b5e8d63687f475fe3c349d727fc731bc951f7599183e6593caaf68d417474e6300e091db96309dfc53d5134069663044ab53d54c3281ae5bffd88ddc71312570ac00000000"
    }
  ]
}