{
  "hash": "000000004b9dfe906e0c97aaaa3dbb84a933d14788ddef29eb34c4054f884dfd",
  "confirmations": 52181,
  "height": 440,
  "version": 1,
  "versionHex": "00000001",
  "merkleroot": "3bb1fd25f0276d477e1a19ebc00688a13502658ee0b84e303890dd02c571c8d6",
  "time": 1231928776,
  "mediantime": 1231925298,
  "nonce": 2763182121,
  "bits": "1d00ffff",
  "difficulty": 1,
  "chainwork": "000000000000000000000000000000000000000000000000000001b901b901b9",
  "nTx": 1,
  "previousblockhash": "00000000bf877e260208f54a9edde2c9689a5990c93467cc4e0becea8a3180d7",
  "nextblockhash": "00000000fc0f0e9952be1ff8efe59f96cfac449734cd6d58704ce6c65ec726a9",
  "strippedsize": 216,
  "size": 216,
  "weight": 864,
  "tx": [
    {
      "txid": "3bb1fd25f0276d477e1a19ebc00688a13502658ee0b84e303890dd02c571c8d6",
      "hash": "3bb1fd25f0276d477e1a19ebc00688a13502658ee0b84e303890dd02c571c8d6",
      "version": 1,
      "size": 135,
      "vsize": 135,
      "weight": 540,
      "locktime": 0,
      "vin": [
        {
          "coinbase": "04ffff001d026e03",
          "sequence": 4294967295
        }
      ],
      "vout": [
        {
          "value": 50.0,
          "n": 0,
          "scriptPubKey": {
            "asm": "04bfdce3c94f1217b78f92dd4212dc6cd310633abcfca5263530c4d534ca01a56e4e8b08dfdbbd8a427348ebe2bcf3b7051e06508f0a46747e149c49d4b213e3f9 OP_CHECKSIG",
            "desc": "pk(04bfdce3c94f1217b78f92dd4212dc6cd310633abcfca5263530c4d534ca01a56e4e8b08dfdbbd8a427348ebe2bcf3b7051e06508f0a46747e149c49d4b213e3f9)#h90ys564",
            "hex": "4104bfdce3c94f1217b78f92dd4212dc6cd310633abcfca5263530c4d534ca01a56e4e8b08dfdbbd8a427348ebe2bcf3b7051e06508f0a46747e149c49d4b213e3f9ac",
            "type": "pubkey"
          }
        }
      ],
      "hex": "01000000010000000000000000000000000000000000000000000000000000000000000000ffffffff0804ffff001d026e03ffffffff0100f2052a01000000434104bfdce3c94f1217b78f92dd4212dc6cd310633abcfca5263530c4d534ca01a56e4e8b08dfdbbd8a427348ebe2bcf3b7051e06508f0a46747e149c49d4b213e3f9ac00000000"
    }
  ]
}