{
  "hash": "00000000a2d1ca6edd9db559451b983726275adabc3f299baf7eebfcd98454c1",
  "confirmations": 46870,
  "height": 6228,
  "version": 1,
  "versionHex": "00000001",
  "merkleroot": "e1f1f030d2ddfd37221f16c87330728b25bbf89cf136d0e8f594663cc8be785f",
  "time": 1236114374,
  "mediantime": 1236109437,
  "nonce": 665749028,
  "bits": "1d00ffff",
  "difficulty": 1,
  "chainwork": "0000000000000000000000000000000000000000000000000000185518551855",
  "nTx": 1,
  "previousblockhash": "0000000053e4697b1b98f884acc39ded8adaa934527c974468d5fa3925bda2f7",
  "nextblockhash": "00000000d03eaa6098f26f0d241b7d7310348f2140256af8b92a13dcfa4dc7ee",
  "strippedsize": 216,
  "size": 216,
  "weight": 864,
  "tx": [
    {
      "txid": "e1f1f030d2ddfd37221f16c87330728b25bbf89cf136d0e8f594663cc8be785f",
      "hash": "e1f1f030d2ddfd37221f16c87330728b25bbf89cf136d0e8f594663cc8be785f",
      "version": 1,
      "size": 135,
      "vsize": 135,
      "weight": 540,
      "locktime": 0,
      "vin": [
        {
          "coinbase": "04ffff001d021509",
          "sequence": 4294967295
        }
      ],
      "vout": [
        {
          "value": 50.0,
          "n": 0,
          "scriptPubKey": {
            "asm": "0497a024e7fb0a13a1b453affc83de2819d042643b62df49ab26da4e496576f0943d20447f1e691deb3afe630b52055d19215cc099753643acaaaebe93e75a8dab OP_CHECKSIG",
            "desc": "pk(0497a024e7fb0a13a1b453affc83de2819d042643b62df49ab26da4e496576f0943d20447f1e691deb3afe630b52055d19215cc099753643acaaaebe93e75a8dab)#j3q4vajn",
            "hex": "410497a024e7fb0a13a1b453affc83de2819d042643b62df49ab26da4e496576f0943d20447f1e691deb3afe630b52055d19215cc099753643acaaaebe93e75a8dabac",
            "type": "pubkey"
          }
        }
      ],
      "hex": "01000000010000000000000000000000000000000000000000000000000000000000000000ffffffff0804ffff001d021509ffffffff0100f2052a0100000043410497a024e7fb0a13a1b453affc83de2819d042643b62df49ab26da4e496576f0943d20447f1e691deb3afe630b52055d19215cc099753643acaaaebe93e75a8dabac00000000"
    }
  ]
}