{
  "hash": "00000000f137a47483f1c254de2d0c17736551b5159aac80b8accd39d632bfee",
  "confirmations": 47033,
  "height": 6065,
  "version": 1,
  "versionHex": "00000001",
  "merkleroot": "6b919f9e56f83b771ef4d71d8aebfecdef00f4b31a3d82259e909a8ba796a637",
  "time": 1235980780,
  "mediantime": 1235977213,
  "nonce": 76112772,
  "bits": "1d00ffff",
  "difficulty": 1,
  "chainwork": "000000000000000000000000000000000000000000000000000017b217b217b2",
  "nTx": 1,
  "previousblockhash": "0000000009596ad08b94e1c59361b94a94dc88f17df2dc0a87e4d1648fc331d9",
  "nextblockhash": "000000009f1bf38b2b8a4a1550cead8c03d56bad56d5045d18f2a99d2e047456",
  "strippedsize": 216,
  "size": 216,
  "weight": 864,
  "tx": [
    {
      "txid": "6b919f9e56f83b771ef4d71d8aebfecdef00f4b31a3d82259e909a8ba796a637",
      "hash": "6b919f9e56f83b771ef4d71d8aebfecdef00f4b31a3d82259e909a8ba796a637",
      "version": 1,
      "size": 135,
      "vsize": 135,
      "weight": 540,
      "locktime": 0,
      "vin": [
        {
          "coinbase": "04ffff001d029500",
          "sequence": 4294967295
        }
      ],
      "vout": [
        {
          "value": 50.0,
          "n": 0,
          "scriptPubKey": {
            "asm": "04807a04eaa5a85fcc4be8a54a93c80b5a2de55efb4f87aa67ff79969f09002b8b33ff9e18e2c9bd467f66cd02a607452918a6ddc667dd85a1c64f286d7d7ceaf3 OP_CHECKSIG",
            "desc": "pk(04807a04eaa5a85fcc4be8a54a93c80b5a2de55efb4f87aa67ff79969f09002b8b33ff9e18e2c9bd467f66cd02a607452918a6ddc667dd85a1c64f286d7d7ceaf3)#n9wslfyq",
            "hex": "4104807a04eaa5a85fcc4be8a54a93c80b5a2de55efb4f87aa67ff79969f09002b8b33ff9e18e2c9bd467f66cd02a607452918a6ddc667dd85a1c64f286d7d7ceaf3ac",
            "type": "pubkey"
          }
        }
      ],
      "hex": "01000000010000000000000000000000000000000000000000000000000000000000000000ffffffff0804ffff001d029500ffffffff0100f2052a01000000434104807a04eaa5a85fcc4be8a54a93c80b5a2de55efb4f87aa67ff79969f09002b8b33ff9e18e2c9bd467f66cd02a607452918a6ddc667dd85a1c64f286d7d7ceaf3ac00000000"
    }
  ]
}