{
  "hash": "00000000a53c7454947e3cd86eb81c958285d5cefbff5910cf692968d443fcff",
  "confirmations": 50392,
  "height": 2706,
  "version": 1,
  "versionHex": "00000001",
  "merkleroot": "77d038632550a0a8a0d33569fe019f8a3d40fd5ddf08062ace647e8862427ea2",
  "time": 1233564822,
  "mediantime": 1233562015,
  "nonce": 2551495,
  "bits": "1d00ffff",
  "difficulty": 1,
  "chainwork": "00000000000000000000000000000000000000000000000000000a930a930a93",
  "nTx": 1,
  "previousblockhash": "000000000ba2784ee0e60204f2f49c6d3b83843c62cadf9ad5b1a2892a01f408",
  "nextblockhash": "00000000f87322df1a585b17e45ed0bd817db29fcba4188e413c006f785db504",
  "strippedsize": 216,
  "size": 216,
  "weight": 864,
  "tx": [
    {
      "txid": "77d038632550a0a8a0d33569fe019f8a3d40fd5ddf08062ace647e8862427ea2",
      "hash": "77d038632550a0a8a0d33569fe019f8a3d40fd5ddf08062ace647e8862427ea2",
      "version": 1,
      "size": 135,
      "vsize": 135,
      "weight": 540,
      "locktime": 0,
      "vin": [
        {
          "coinbase": "04ffff001d02df00",
          "sequence": 4294967295
        }
      ],
      "vout": [
        {
          "value": 50.0,
          "n": 0,
          "scriptPubKey": {
            "asm": "049608dc5cd7561af87635cd47ae2746d4e6a575b15b5690027031c7d05df8912c0fa531c2ac1589e8bca82b2df197b665a454d9632d12a032cba48b7197985193 OP_CHECKSIG",
            "desc": "pk(049608dc5cd7561af87635cd47ae2746d4e6a575b15b5690027031c7d05df8912c0fa531c2ac1589e8bca82b2df197b665a454d9632d12a032cba48b7197985193)#jpld759g",
            "hex": "41049608dc5cd7561af87635cd47ae2746d4e6a575b15b5690027031c7d05df8912c0fa531c2ac1589e8bca82b2df197b665a454d9632d12a032cba48b7197985193ac",
            "type": "pubkey"
          }
        }
      ],
      "hex": "01000000010000000000000000000000000000000000000000000000000000000000000000ffffffff0804ffff001d02df00ffffffff0100f2052a010000004341049608dc5cd7561af87635cd47ae2746d4e6a575b15b5690027031c7d05df8912c0fa531c2ac1589e8bca82b2df197b665a454d9632d12a032cba48b7197985193ac00000000"
    }
  ]
}