{
  "hash": "0000000072d663f7274a6232b84e45bbc9272d52e1a88901749b6f79531092ac",
  "confirmations": 45811,
  "height": 7287,
  "version": 1,
  "versionHex": "00000001",
  "merkleroot": "a725f6d9825fc5b46171aa0b4df45851fda64ab1023e3b51d149576661ed20cd",
  "time": 1236938415,
  "mediantime": 1236933090,
  "nonce": 964669441,
  "bits": "1d00ffff",
  "difficulty": 1,
  "chainwork": "00000000000000000000000000000000000000000000000000001c781c781c78",
  "nTx": 1,
  "previousblockhash": "00000000a55109f40d3248952445f823ecf316905693e0724e87e52a62d1ccda",
  "nextblockhash": "00000000822428dbfc0d8a46ac268909fd5bcf47057a386bab613336a5f6f6f9",
  "strippedsize": 216,
  "size": 216,
  "weight": 864,
  "tx": [
    {
      "txid": "a725f6d9825fc5b46171aa0b4df45851fda64ab1023e3b51d149576661ed20cd",
      "hash": "a725f6d9825fc5b46171aa0b4df45851fda64ab1023e3b51d149576661ed20cd",
      "version": 1,
      "size": 135,
      "vsize": 135,
      "weight": 540,
      "locktime": 0,
      "vin": [
        {
          "coinbase": "04ffff001d022c07",
          "sequence": 4294967295
        }
      ],
      "vout": [
        {
          "value": 50.0,
          "n": 0,
          "scriptPubKey": {
            "asm": "04404479cf62b69433a39707433b3dffa06abd79db49bfdd1025412c4f4d62dc6b0f2a0e706d60dd99d717d1ba1b819cd73832555e0a782ed8ddd05682d7e05243 OP_CHECKSIG",
            "desc": "pk(04404479cf62b69433a39707433b3dffa06abd79db49bfdd1025412c4f4d62dc6b0f2a0e706d60dd99d717d1ba1b819cd73832555e0a782ed8ddd05682d7e05243)#w93kq3zw",
            "hex": "4104404479cf62b69433a39707433b3dffa06abd79db49bfdd1025412c4f4d62dc6b0f2a0e706d60dd99d717d1ba1b819cd73832555e0a782ed8ddd05682d7e05243ac",
            "type": "pubkey"
          }
        }
      ],
      "hex": "01000000010000000000000000000000000000000000000000000000000000000000000000ffffffff0804ffff001d022c07ffffffff0100f2052a01000000434104404479cf62b69433a39707433b3dffa06abd79db49bfdd1025412c4f4d62dc6b0f2a0e706d60dd99d717d1ba1b819cd73832555e0a782ed8ddd05682d7e05243ac00000000"
    }
  ]
}