{
  "hash": "000000005f3b33fbff842d0b7cf1de11fc4de376356b0d634a859eb77c840556",
  "confirmations": 51748,
  "height": 1350,
  "version": 1,
  "versionHex": "00000001",
  "merkleroot": "4d6f0f65f961ad3d4030255dc7e47c47ede131f3026528103d6778d3a40a1dcd",
  "time": 1232641950,
  "mediantime": 1232637235,
  "nonce": 339802655,
  "bits": "1d00ffff",
  "difficulty": 1,
  "chainwork": "0000000000000000000000000000000000000000000000000000054705470547",
  "nTx": 1,
  "previousblockhash": "0000000087b97399a2d8c2de62e64d61814a3b4bd488522fc9618083b125738e",
  "nextblockhash": "00000000d557f507f6a0e674f7ebed3df990a341ebbd4d5903d05f8249046c86",
  "strippedsize": 216,
  "size": 216,
  "weight": 864,
  "tx": [
    {
      "txid": "4d6f0f65f961ad3d4030255dc7e47c47ede131f3026528103d6778d3a40a1dcd",
      "hash": "4d6f0f65f961ad3d4030255dc7e47c47ede131f3026528103d6778d3a40a1dcd",
      "version": 1,
      "size": 135,
      "vsize": 135,
      "weight": 540,
      "locktime": 0,
      "vin": [
        {
          "coinbase": "04ffff001d022d01",
          "sequence": 4294967295
        }
      ],
      "vout": [
        {
          "value": 50.0,
          "n": 0,
          "scriptPubKey": {
            "asm": "04064d46ba5a2dcf1118ec5b32df90bf8c27491c5830e97a51d89868efca921e5d472295050c23972416c65de3b3466e25bdf899096ae97553369370b7b0edc3ab OP_CHECKSIG",
            "desc": "pk(04064d46ba5a2dcf1118ec5b32df90bf8c27491c5830e97a51d89868efca921e5d472295050c23972416c65de3b3466e25bdf899096ae97553369370b7b0edc3ab)#3f2fuprx",
            "hex": "4104064d46ba5a2dcf1118ec5b32df90bf8c27491c5830e97a51d89868efca921e5d472295050c23972416c65de3b3466e25bdf899096ae97553369370b7b0edc3abac",
            "type": "pubkey"
          }
        }
      ],
      "hex": "01000000010000000000000000000000000000000000000000000000000000000000000000ffffffff0804ffff001d022d01ffffffff0100f2052a01000000434104064d46ba5a2dcf1118ec5b32df90bf8c27491c5830e97a51d89868efca921e5d472295050c23972416c65de3b3466e25bdf899096ae97553369370b7b0edc3abac00000000"
    }
  ]
}