{
  "hash": "000000008d4c1547c65043606c7e22c2630dd66a078e77e1b0e9cf70dfa95ef3",
  "confirmations": 47814,
  "height": 5284,
  "version": 1,
  "versionHex": "00000001",
  "merkleroot": "80f063067b48fee7ffb165558ebf123f1e669b296c5bebd6877b2f6bea12daf0",
  "time": 1235348198,
  "mediantime": 1235343970,
  "nonce": 1913305631,
  "bits": "1d00ffff",
  "difficulty": 1,
  "chainwork": "000000000000000000000000000000000000000000000000000014a514a514a5",
  "nTx": 1,
  "previousblockhash": "00000000b049cef6b1ebe0d1ecdd2465d6907a68d35e9c086a0974b73c2afef9",
  "nextblockhash": "0000000041b04aa7c4de065196858b0cb9fce59b3d36b438e59043bba4c68ab3",
  "strippedsize": 216,
  "size": 216,
  "weight": 864,
  "tx": [
    {
      "txid": "80f063067b48fee7ffb165558ebf123f1e669b296c5bebd6877b2f6bea12daf0",
      "hash": "80f063067b48fee7ffb165558ebf123f1e669b296c5bebd6877b2f6bea12daf0",
      "version": 1,
      "size": 135,
      "vsize": 135,
      "weight": 540,
      "locktime": 0,
      "vin": [
        {
          "coinbase": "04ffff001d02d501",
          "sequence": 4294967295
        }
      ],
      "vout": [
        {
          "value": 50.0,
          "n": 0,
          "scriptPubKey": {
            "asm": "04812167c5826d9621cc0e54b072e0ce51f18dab0d49a82a6375f634653f0279f0196910984df6833eb911f87f518f6abf1e9f619f6e026b9257b62953be5fe21f OP_CHECKSIG",
            "desc": "pk(04812167c5826d9621cc0e54b072e0ce51f18dab0d49a82a6375f634653f0279f0196910984df6833eb911f87f518f6abf1e9f619f6e026b9257b62953be5fe21f)#wjqjkj9c",
            "hex": "4104812167c5826d9621cc0e54b072e0ce51f18dab0d49a82a6375f634653f0279f0196910984df6833eb911f87f518f6abf1e9f619f6e026b9257b62953be5fe21fac",
            "type": "pubkey"
          }
        }
      ],
      "hex": "01000000010000000000000000000000000000000000000000000000000000000000000000ffffffff0804ffff001d02d501ffffffff0100f2052a01000000434104812167c5826d9621cc0e54b072e0ce51f18dab0d49a82a6375f634653f0279f0196910984df6833eb911f87f518f6abf1e9f619f6e026b9257b62953be5fe21fac00000000"
    }
  ]
}