{
  "hash": "00000000e135705408a52b677d6bf64555dd605338c6e15e61bec0685c6c59e9",
  "confirmations": 44442,
  "height": 8656,
  "version": 1,
  "versionHex": "00000001",
  "merkleroot": "efb710a758eca87fe53b241d437dcca101dd8ea334952f3a0af808fea6c328eb",
  "time": 1237990046,
  "mediantime": 1237987491,
  "nonce": 1541181212,
  "bits": "1d00ffff",
  "difficulty": 1,
  "chainwork": "000000000000000000000000000000000000000000000000000021d121d121d1",
  "nTx": 1,
  "previousblockhash": "0000000019351928bfd8bcb76287ef80e8a5b3571ef5db9b76fc28bc3b27e9ba",
  "nextblockhash": "00000000b3d0e74a3b0ae2884470820910ee4109601cdb372c80a635958ee883",
  "strippedsize": 215,
  "size": 215,
  "weight": 860,
  "tx": [
    {
      "txid": "efb710a758eca87fe53b241d437dcca101dd8ea334952f3a0af808fea6c328eb",
      "hash": "efb710a758eca87fe53b241d437dcca101dd8ea334952f3a0af808fea6c328eb",
      "version": 1,
      "size": 134,
      "vsize": 134,
      "weight": 536,
      "locktime": 0,
      "vin": [
        {
          "coinbase": "04ffff001d011e",
          "sequence": 4294967295
        }
      ],
      "vout": [
        {
          "value": 50.0,
          "n": 0,
          "scriptPubKey": {
            "asm": "04de88ac6cbd130b38eb8a917e864b966701d67cbe790baaf982c777e211517f849973b8b0b6f3c4a7b2a90cf33edbb8abcbd1d9135196247ea00378343ec79d41 OP_CHECKSIG",
            "desc": "pk(04de88ac6cbd130b38eb8a917e864b966701d67cbe790baaf982c777e211517f849973b8b0b6f3c4a7b2a90cf33edbb8abcbd1d9135196247ea00378343ec79d41)#htcapwt3",
            "hex": "4104de88ac6cbd130b38eb8a917e864b966701d67cbe790baaf982c777e211517f849973b8b0b6f3c4a7b2a90cf33edbb8abcbd1d9135196247ea00378343ec79d41ac",
            "type": "pubkey"
          }
        }
      ],
      "hex": "01000000010000000000000000000000000000000000000000000000000000000000000000ffffffff0704ffff001d011effffffff0100f2052a01000000434104de88ac6cbd130b38eb8a917e864b966701d67cbe790baaf982c777e211517f849973b8b0b6f3c4a7b2a90cf33edbb8abcbd1d9135196247ea00378343ec79d41ac00000000"
    }
  ]
}