{
  "hash": "00000000a120b4f04e84e2d2adbb5384a08c490c24b0a134739da6aa2a287b60",
  "confirmations": 52288,
  "height": 810,
  "version": 1,
  "versionHex": "00000001",
  "merkleroot": "6895db7ca5c144c7fa264c8529b4372cbe6aaf6497a14afba33594ab1a4410c9",
  "time": 1232200390,
  "mediantime": 1232196637,
  "nonce": 14547254,
  "bits": "1d00ffff",
  "difficulty": 1,
  "chainwork": "0000000000000000000000000000000000000000000000000000032b032b032b",
  "nTx": 1,
  "previousblockhash": "00000000610283d515367cc9de93f7115af17be043833f0a52e41d2827597e9e",
  "nextblockhash": "0000000036a113fad8c0d74c5fe30f09fcef40dd2bd94a2b36f93298eebf8606",
  "strippedsize": 216,
  "size": 216,
  "weight": 864,
  "tx": [
    {
      "txid": "6895db7ca5c144c7fa264c8529b4372cbe6aaf6497a14afba33594ab1a4410c9",
      "hash": "6895db7ca5c144c7fa264c8529b4372cbe6aaf6497a14afba33594ab1a4410c9",
      "version": 1,
      "size": 135,
      "vsize": 135,
      "weight": 540,
      "locktime": 0,
      "vin": [
        {
          "coinbase": "04ffff001d02b301",
          "sequence": 4294967295
        }
      ],
      "vout": [
        {
          "value": 50.0,
          "n": 0,
          "scriptPubKey": {
            "asm": "04aa2bc30713b2315974342d2e685c7c8fe4ec08c8d9820e71e35aad3723ca8b8f8c0d247696930bfc635d910be9b34c6e7278044dd180dfe79de54f6a715af042 OP_CHECKSIG",
            "desc": "pk(04aa2bc30713b2315974342d2e685c7c8fe4ec08c8d9820e71e35aad3723ca8b8f8c0d247696930bfc635d910be9b34c6e7278044dd180dfe79de54f6a715af042)#l2ne77h6",
            "hex": "4104aa2bc30713b2315974342d2e685c7c8fe4ec08c8d9820e71e35aad3723ca8b8f8c0d247696930bfc635d910be9b34c6e7278044dd180dfe79de54f6a715af042ac",
            "type": "pubkey"
          }
        }
      ],
      "hex": "01000000010000000000000000000000000000000000000000000000000000000000000000ffffffff0804ffff001d02b301ffffffff0100f2052a01000000434104aa2bc30713b2315974342d2e685c7c8fe4ec08c8d9820e71e35aad3723ca8b8f8c0d247696930bfc635d910be9b34c6e7278044dd180dfe79de54f6a715af042ac00000000"
    }
  ]
}