{
  "hash": "00000000ad13c8f434895ab7d6773e07b7e1110bd4165a2335376d0563a0e735",
  "confirmations": 52143,
  "height": 955,
  "version": 1,
  "versionHex": "00000001",
  "merkleroot": "5d2d95607234eda24de4fd6958a36877d17858adbc9c086266477de623555248",
  "time": 1232316437,
  "mediantime": 1232313148,
  "nonce": 56258633,
  "bits": "1d00ffff",
  "difficulty": 1,
  "chainwork": "000000000000000000000000000000000000000000000000000003bc03bc03bc",
  "nTx": 1,
  "previousblockhash": "000000007193a7d412482a8bfe194e2bcb5f1b0b5c5c4582e0435ad162095062",
  "nextblockhash": "00000000677e3263de6e6972545f43c9eec825a1d39acbfc5820a94519f1684a",
  "strippedsize": 216,
  "size": 216,
  "weight": 864,
  "tx": [
    {
      "txid": "5d2d95607234eda24de4fd6958a36877d17858adbc9c086266477de623555248",
      "hash": "5d2d95607234eda24de4fd6958a36877d17858adbc9c086266477de623555248",
      "version": 1,
      "size": 135,
      "vsize": 135,
      "weight": 540,
      "locktime": 0,
      "vin": [
        {
          "coinbase": "04ffff001d029d00",
          "sequence": 4294967295
        }
      ],
      "vout": [
        {
          "value": 50.0,
          "n": 0,
          "scriptPubKey": {
            "asm": "040629dd293d9c35b49eb6872ad4b370295b0adc0526dcab54021be38a3165dad1ddeb331b9fbd777f9ff899cfdf55e679046d9769b545c34e86ab7c472b6db432 OP_CHECKSIG",
            "desc": "pk(040629dd293d9c35b49eb6872ad4b370295b0adc0526dcab54021be38a3165dad1ddeb331b9fbd777f9ff899cfdf55e679046d9769b545c34e86ab7c472b6db432)#puqc4332",
            "hex": "41040629dd293d9c35b49eb6872ad4b370295b0adc0526dcab54021be38a3165dad1ddeb331b9fbd777f9ff899cfdf55e679046d9769b545c34e86ab7c472b6db432ac",
            "type": "pubkey"
          }
        }
      ],
      "hex": "01000000010000000000000000000000000000000000000000000000000000000000000000ffffffff0804ffff001d029d00ffffffff0100f2052a010000004341040629dd293d9c35b49eb6872ad4b370295b0adc0526dcab54021be38a3165dad1ddeb331b9fbd777f9ff899cfdf55e679046d9769b545c34e86ab7c472b6db432ac00000000"
    }
  ]
}