{
  "hash": "000000009bf588ec242454e1343b03c8f1934b1cae89fd96f6ea8906b81a7e46",
  "confirmations": 44363,
  "height": 8735,
  "version": 1,
  "versionHex": "00000001",
  "merkleroot": "e272634a9c81f34a395398c0d48a4fa02ad4bd8035f6244959360a748bf71109",
  "time": 1238048027,
  "mediantime": 1238043477,
  "nonce": 1989644335,
  "bits": "1d00ffff",
  "difficulty": 1,
  "chainwork": "0000000000000000000000000000000000000000000000000000222022202220",
  "nTx": 1,
  "previousblockhash": "00000000b111c9f1c8b271a1add221c8c4b26b5af4950eac6661eee1f25c3b2b",
  "nextblockhash": "00000000665d5339b5b00ffa19afd10a3651ae057be36112a69669c28c4aa35f",
  "strippedsize": 216,
  "size": 216,
  "weight": 864,
  "tx": [
    {
      "txid": "e272634a9c81f34a395398c0d48a4fa02ad4bd8035f6244959360a748bf71109",
      "hash": "e272634a9c81f34a395398c0d48a4fa02ad4bd8035f6244959360a748bf71109",
      "version": 1,
      "size": 135,
      "vsize": 135,
      "weight": 540,
      "locktime": 0,
      "vin": [
        {
          "coinbase": "04ffff001d027a01",
          "sequence": 4294967295
        }
      ],
      "vout": [
        {
          "value": 50.0,
          "n": 0,
          "scriptPubKey": {
            "asm": "04b462b1fb6868a5c7bce0e5d994d3d08f2630122b93a59d168ebbcad714ac2b9d8e8b8c963a7e1a8c08463e94f83c50109beafe7dbc1bfa65fcc4f432ffdc1e47 OP_CHECKSIG",
            "desc": "pk(04b462b1fb6868a5c7bce0e5d994d3d08f2630122b93a59d168ebbcad714ac2b9d8e8b8c963a7e1a8c08463e94f83c50109beafe7dbc1bfa65fcc4f432ffdc1e47)#a55kjg3v",
            "hex": "4104b462b1fb6868a5c7bce0e5d994d3d08f2630122b93a59d168ebbcad714ac2b9d8e8b8c963a7e1a8c08463e94f83c50109beafe7dbc1bfa65fcc4f432ffdc1e47ac",
            "type": "pubkey"
          }
        }
      ],
      "hex": "01000000010000000000000000000000000000000000000000000000000000000000000000ffffffff0804ffff001d027a01ffffffff0100f2052a01000000434104b462b1fb6868a5c7bce0e5d994d3d08f2630122b93a59d168ebbcad714ac2b9d8e8b8c963a7e1a8c08463e94f83c50109beafe7dbc1bfa65fcc4f432ffdc1e47ac00000000"
    }
  ]
}