{
  "hash": "00000000c100f071cbc58a957bf94adf2f04b3162c77637de0bd8918b4ae418a",
  "confirmations": 45896,
  "height": 7202,
  "version": 1,
  "versionHex": "00000001",
  "merkleroot": "1c0bc5aca925845f11c9418babf0e8554765d55ad55e66853c5bdec6697500c1",
  "time": 1236872620,
  "mediantime": 1236867576,
  "nonce": 2432831513,
  "bits": "1d00ffff",
  "difficulty": 1,
  "chainwork": "00000000000000000000000000000000000000000000000000001c231c231c23",
  "nTx": 1,
  "previousblockhash": "0000000094f20fb6a309b8d5686a13a9cd3fdcddac1a52e5b7c5660e560cf1b1",
  "nextblockhash": "000000004ac89d3329a8a1bd7148a329b78aad987ca01b50ccd86c0b871ae637",
  "strippedsize": 216,
  "size": 216,
  "weight": 864,
  "tx": [
    {
      "txid": "1c0bc5aca925845f11c9418babf0e8554765d55ad55e66853c5bdec6697500c1",
      "hash": "1c0bc5aca925845f11c9418babf0e8554765d55ad55e66853c5bdec6697500c1",
      "version": 1,
      "size": 135,
      "vsize": 135,
      "weight": 540,
      "locktime": 0,
      "vin": [
        {
          "coinbase": "04ffff001d02be05",
          "sequence": 4294967295
        }
      ],
      "vout": [
        {
          "value": 50.0,
          "n": 0,
          "scriptPubKey": {
            "asm": "049b24d127c2a29e60d7633d2263cbe75e7569f30c97a1ad4c206ff0d053fc5011ee708e51be135c7722f53a9438ef02420b9156ecf5a99cb6f1ba0bb81dd10324 OP_CHECKSIG",
            "desc": "pk(049b24d127c2a29e60d7633d2263cbe75e7569f30c97a1ad4c206ff0d053fc5011ee708e51be135c7722f53a9438ef02420b9156ecf5a99cb6f1ba0bb81dd10324)#jx7f26lm",
            "hex": "41049b24d127c2a29e60d7633d2263cbe75e7569f30c97a1ad4c206ff0d053fc5011ee708e51be135c7722f53a9438ef02420b9156ecf5a99cb6f1ba0bb81dd10324ac",
            "type": "pubkey"
          }
        }
      ],
      "hex": "01000000010000000000000000000000000000000000000000000000000000000000000000ffffffff0804ffff001d02be05ffffffff0100f2052a010000004341049b24d127c2a29e60d7633d2263cbe75e7569f30c97a1ad4c206ff0d053fc5011ee708e51be135c7722f53a9438ef02420b9156ecf5a99cb6f1ba0bb81dd10324ac00000000"
    }
  ]
}