{
  "hash": "00000000794981ee7b4866a799bfd474b03da9fea865e58625d7168c89007fdc",
  "confirmations": 50428,
  "height": 2670,
  "version": 1,
  "versionHex": "00000001",
  "merkleroot": "0b9aa3dfa33a2790f1477e705fd984fde5211f0b795d76b741b3063a04e816a6",
  "time": 1233541511,
  "mediantime": 1233537748,
  "nonce": 2511162678,
  "bits": "1d00ffff",
  "difficulty": 1,
  "chainwork": "00000000000000000000000000000000000000000000000000000a6f0a6f0a6f",
  "nTx": 1,
  "previousblockhash": "00000000c51a9d2f4fa8a39fddea8e7666fe212f1bb10b9a65e7d6f13554a652",
  "nextblockhash": "00000000136c18e706a94aee3ca40c914d4ba806e0606a42c7e951c79cbc8f86",
  "strippedsize": 216,
  "size": 216,
  "weight": 864,
  "tx": [
    {
      "txid": "0b9aa3dfa33a2790f1477e705fd984fde5211f0b795d76b741b3063a04e816a6",
      "hash": "0b9aa3dfa33a2790f1477e705fd984fde5211f0b795d76b741b3063a04e816a6",
      "version": 1,
      "size": 135,
      "vsize": 135,
      "weight": 540,
      "locktime": 0,
      "vin": [
        {
          "coinbase": "04ffff001d025104",
          "sequence": 4294967295
        }
      ],
      "vout": [
        {
          "value": 50.0,
          "n": 0,
          "scriptPubKey": {
            "asm": "04d228a6f295c969b83c1aa6591c75e90db15e39cff77645e322f8429efe367c6c3001ee78735056b0132c22141bba4a91ebfe9ecc01815df6e21b0ec8661325db OP_CHECKSIG",
            "desc": "pk(04d228a6f295c969b83c1aa6591c75e90db15e39cff77645e322f8429efe367c6c3001ee78735056b0132c22141bba4a91ebfe9ecc01815df6e21b0ec8661325db)#k98tsaau",
            "hex": "4104d228a6f295c969b83c1aa6591c75e90db15e39cff77645e322f8429efe367c6c3001ee78735056b0132c22141bba4a91ebfe9ecc01815df6e21b0ec8661325dbac",
            "type": "pubkey"
          }
        }
      ],
      "hex": "01000000010000000000000000000000000000000000000000000000000000000000000000ffffffff0804ffff001d025104ffffffff0100f2052a01000000434104d228a6f295c969b83c1aa6591c75e90db15e39cff77645e322f8429efe367c6c3001ee78735056b0132c22141bba4a91ebfe9ecc01815df6e21b0ec8661325dbac00000000"
    }
  ]
}