{
  "hash": "000000006bdf4ca84bdb8f2bb54e3955e55ea0b3c6b3f9dc1dc929b6fb570755",
  "confirmations": 46423,
  "height": 6675,
  "version": 1,
  "versionHex": "00000001",
  "merkleroot": "1fbbf2a8114fcc17279af094d78713b3654bcfb06b4ad1c8b60af4346f16b7ac",
  "time": 1236464442,
  "mediantime": 1236459632,
  "nonce": 84640676,
  "bits": "1d00ffff",
  "difficulty": 1,
  "chainwork": "00000000000000000000000000000000000000000000000000001a141a141a14",
  "nTx": 1,
  "previousblockhash": "00000000d38aa0ceedf6d3f41b61e7c66f4ddbe7b4eb75ada23e47b4fb9c2fa9",
  "nextblockhash": "00000000722e47123b89782ef1d94a8b02866ac07c7c80a96560d35abe0c063e",
  "strippedsize": 216,
  "size": 216,
  "weight": 864,
  "tx": [
    {
      "txid": "1fbbf2a8114fcc17279af094d78713b3654bcfb06b4ad1c8b60af4346f16b7ac",
      "hash": "1fbbf2a8114fcc17279af094d78713b3654bcfb06b4ad1c8b60af4346f16b7ac",
      "version": 1,
      "size": 135,
      "vsize": 135,
      "weight": 540,
      "locktime": 0,
      "vin": [
        {
          "coinbase": "04ffff001d02c404",
          "sequence": 4294967295
        }
      ],
      "vout": [
        {
          "value": 50.0,
          "n": 0,
          "scriptPubKey": {
            "asm": "04d11185ee0463f8e1e808265d54ed1d6db35bb6c8e3660d0ceeff72eb21822def8535fe86993f2ef043fe4f82dd88e820bf634ba4e3387935d4d3ab30edfc1a03 OP_CHECKSIG",
            "desc": "pk(04d11185ee0463f8e1e808265d54ed1d6db35bb6c8e3660d0ceeff72eb21822def8535fe86993f2ef043fe4f82dd88e820bf634ba4e3387935d4d3ab30edfc1a03)#0el2ttkd",
            "hex": "4104d11185ee0463f8e1e808265d54ed1d6db35bb6c8e3660d0ceeff72eb21822def8535fe86993f2ef043fe4f82dd88e820bf634ba4e3387935d4d3ab30edfc1a03ac",
            "type": "pubkey"
          }
        }
      ],
      "hex": "01000000010000000000000000000000000000000000000000000000000000000000000000ffffffff0804ffff001d02c404ffffffff0100f2052a01000000434104d11185ee0463f8e1e808265d54ed1d6db35bb6c8e3660d0ceeff72eb21822def8535fe86993f2ef043fe4f82dd88e820bf634ba4e3387935d4d3ab30edfc1a03ac00000000"
    }
  ]
}