{
  "hash": "000000008da5da1d5f7b8c1516770407f5636769da593f779f2b00be31cc11b1",
  "confirmations": 47109,
  "height": 5989,
  "version": 1,
  "versionHex": "00000001",
  "merkleroot": "2beb7dcd49b6c53d49885d0f6605aac902e2e04274b9401df7355373324c6e08",
  "time": 1235920039,
  "mediantime": 1235915612,
  "nonce": 3696647173,
  "bits": "1d00ffff",
  "difficulty": 1,
  "chainwork": "0000000000000000000000000000000000000000000000000000176617661766",
  "nTx": 1,
  "previousblockhash": "00000000922b9826d019a1e19edb02b9b63138f8a213ffd88449e94cd0618e6b",
  "nextblockhash": "00000000b05ae9b737d5d518dde28f7a51f265606691e2c1fb5c6f05a7f3524a",
  "strippedsize": 216,
  "size": 216,
  "weight": 864,
  "tx": [
    {
      "txid": "2beb7dcd49b6c53d49885d0f6605aac902e2e04274b9401df7355373324c6e08",
      "hash": "2beb7dcd49b6c53d49885d0f6605aac902e2e04274b9401df7355373324c6e08",
      "version": 1,
      "size": 135,
      "vsize": 135,
      "weight": 540,
      "locktime": 0,
      "vin": [
        {
          "coinbase": "04ffff001d02b704",
          "sequence": 4294967295
        }
      ],
      "vout": [
        {
          "value": 50.0,
          "n": 0,
          "scriptPubKey": {
            "asm": "04c7d194534fc51d5ca4c45008fa6bdbf43f8a44062664c994e41f4b3f9c3c70190ed3d972a62432c28f5190a9b750479b096acd09ac44e8a08425afa7a0f3435a OP_CHECKSIG",
            "desc": "pk(04c7d194534fc51d5ca4c45008fa6bdbf43f8a44062664c994e41f4b3f9c3c70190ed3d972a62432c28f5190a9b750479b096acd09ac44e8a08425afa7a0f3435a)#c9pgrxru",
            "hex": "4104c7d194534fc51d5ca4c45008fa6bdbf43f8a44062664c994e41f4b3f9c3c70190ed3d972a62432c28f5190a9b750479b096acd09ac44e8a08425afa7a0f3435aac",
            "type": "pubkey"
          }
        }
      ],
      "hex": "01000000010000000000000000000000000000000000000000000000000000000000000000ffffffff0804ffff001d02b704ffffffff0100f2052a01000000434104c7d194534fc51d5ca4c45008fa6bdbf43f8a44062664c994e41f4b3f9c3c70190ed3d972a62432c28f5190a9b750479b096acd09ac44e8a08425afa7a0f3435aac00000000"
    }
  ]
}