{
  "hash": "00000000dbe2ee81486da98940b9f041e185ecba934eb8b76c1f3d54d7767b77",
  "confirmations": 50330,
  "height": 2768,
  "version": 1,
  "versionHex": "00000001",
  "merkleroot": "a2c5ee55ac7f6e6a8b271102b6aa96924c9cae24db923ae95a678d82f476c996",
  "time": 1233608273,
  "mediantime": 1233604406,
  "nonce": 12735041,
  "bits": "1d00ffff",
  "difficulty": 1,
  "chainwork": "00000000000000000000000000000000000000000000000000000ad10ad10ad1",
  "nTx": 1,
  "previousblockhash": "000000000687047fa5cd8e392c298a76a3cce44994da426a26352045da0eebc9",
  "nextblockhash": "00000000b7a16bf1538d8324b9443995ec49935c75008a8a335b34936d5732b0",
  "strippedsize": 215,
  "size": 215,
  "weight": 860,
  "tx": [
    {
      "txid": "a2c5ee55ac7f6e6a8b271102b6aa96924c9cae24db923ae95a678d82f476c996",
      "hash": "a2c5ee55ac7f6e6a8b271102b6aa96924c9cae24db923ae95a678d82f476c996",
      "version": 1,
      "size": 134,
      "vsize": 134,
      "weight": 536,
      "locktime": 0,
      "vin": [
        {
          "coinbase": "04ffff001d0157",
          "sequence": 4294967295
        }
      ],
      "vout": [
        {
          "value": 50.0,
          "n": 0,
          "scriptPubKey": {
            "asm": "0441babc9c51b8ee2711c0eb2f52d120a5c1c6b17776c996a3d44ab22ce2ac98f5a0c07527f582ed6b2ce0e4417f75dd074ac7d412a49a55b79a2fcb82b7a86072 OP_CHECKSIG",
            "desc": "pk(0441babc9c51b8ee2711c0eb2f52d120a5c1c6b17776c996a3d44ab22ce2ac98f5a0c07527f582ed6b2ce0e4417f75dd074ac7d412a49a55b79a2fcb82b7a86072)#g8vnt923",
            "hex": "410441babc9c51b8ee2711c0eb2f52d120a5c1c6b17776c996a3d44ab22ce2ac98f5a0c07527f582ed6b2ce0e4417f75dd074ac7d412a49a55b79a2fcb82b7a86072ac",
            "type": "pubkey"
          }
        }
      ],
      "hex": "01000000010000000000000000000000000000000000000000000000000000000000000000ffffffff0704ffff001d0157ffffffff0100f2052a0100000043410441babc9c51b8ee2711c0eb2f52d120a5c1c6b17776c996a3d44ab22ce2ac98f5a0c07527f582ed6b2ce0e4417f75dd074ac7d412a49a55b79a2fcb82b7a86072ac00000000"
    }
  ]
}