{
  "hash": "00000000fe4f3ee244e2915d959ecbd67da44ad26546c651e0a546dca24d6460",
  "confirmations": 50169,
  "height": 2929,
  "version": 1,
  "versionHex": "00000001",
  "merkleroot": "628d04a79699f8bc9b36202d5c394c58af3d27aa7bce35ee190cfea9b2a79097",
  "time": 1233710646,
  "mediantime": 1233706586,
  "nonce": 327521142,
  "bits": "1d00ffff",
  "difficulty": 1,
  "chainwork": "00000000000000000000000000000000000000000000000000000b720b720b72",
  "nTx": 1,
  "previousblockhash": "000000000bddbfb7a2afc264db15385f8a9191a5111edf6bb633b189b24237ae",
  "nextblockhash": "00000000d3bd57b12059b89b44344d6abee81321a1acfe178cb485be63ece6e7",
  "strippedsize": 215,
  "size": 215,
  "weight": 860,
  "tx": [
    {
      "txid": "628d04a79699f8bc9b36202d5c394c58af3d27aa7bce35ee190cfea9b2a79097",
      "hash": "628d04a79699f8bc9b36202d5c394c58af3d27aa7bce35ee190cfea9b2a79097",
      "version": 1,
      "size": 134,
      "vsize": 134,
      "weight": 536,
      "locktime": 0,
      "vin": [
        {
          "coinbase": "04ffff001d0103",
          "sequence": 4294967295
        }
      ],
      "vout": [
        {
          "value": 50.0,
          "n": 0,
          "scriptPubKey": {
            "asm": "0443a658b0105ce3d1a32c7e1692b08038242a4867a549cc21fa03ea5ec9ca6da5b627320ce4dac34ea15b1b03909e67839aaac9c59549ff7698ded8df64f0f542 OP_CHECKSIG",
            "desc": "pk(0443a658b0105ce3d1a32c7e1692b08038242a4867a549cc21fa03ea5ec9ca6da5b627320ce4dac34ea15b1b03909e67839aaac9c59549ff7698ded8df64f0f542)#hafvu6zl",
            "hex": "410443a658b0105ce3d1a32c7e1692b08038242a4867a549cc21fa03ea5ec9ca6da5b627320ce4dac34ea15b1b03909e67839aaac9c59549ff7698ded8df64f0f542ac",
            "type": "pubkey"
          }
        }
      ],
      "hex": "01000000010000000000000000000000000000000000000000000000000000000000000000ffffffff0704ffff001d0103ffffffff0100f2052a0100000043410443a658b0105ce3d1a32c7e1692b08038242a4867a549cc21fa03ea5ec9ca6da5b627320ce4dac34ea15b1b03909e67839aaac9c59549ff7698ded8df64f0f542ac00000000"
    }
  ]
}