{
  "hash": "000000001ba119a0f6d49ebabd83343b125d7ee3d3184b1b41d6a7f2051153eb",
  "confirmations": 46683,
  "height": 6415,
  "version": 1,
  "versionHex": "00000001",
  "merkleroot": "df492dbd36dce6fad73c6e9f00602e15c69502daeada4049b5b64d9610fbae0e",
  "time": 1236268122,
  "mediantime": 1236263655,
  "nonce": 60888024,
  "bits": "1d00ffff",
  "difficulty": 1,
  "chainwork": "0000000000000000000000000000000000000000000000000000191019101910",
  "nTx": 1,
  "previousblockhash": "00000000a8a4e1f22885af970a9317b3d97de8ff8e1b4646bccf1b9c5891d32b",
  "nextblockhash": "0000000073209dbb492f207b6d8d49e4a4eda057279759af3b87d79a33ee16d6",
  "strippedsize": 216,
  "size": 216,
  "weight": 864,
  "tx": [
    {
      "txid": "df492dbd36dce6fad73c6e9f00602e15c69502daeada4049b5b64d9610fbae0e",
      "hash": "df492dbd36dce6fad73c6e9f00602e15c69502daeada4049b5b64d9610fbae0e",
      "version": 1,
      "size": 135,
      "vsize": 135,
      "weight": 540,
      "locktime": 0,
      "vin": [
        {
          "coinbase": "04ffff001d02d80a",
          "sequence": 4294967295
        }
      ],
      "vout": [
        {
          "value": 50.0,
          "n": 0,
          "scriptPubKey": {
            "asm": "04ad8a60f0869a014effdbd69fcb3769adbfa8a647cf880c9852fe4385d07789cffa058024065ce471a5c5c583ec15f0eafa647a384dd6a6ed954a72bedc38342d OP_CHECKSIG",
            "desc": "pk(04ad8a60f0869a014effdbd69fcb3769adbfa8a647cf880c9852fe4385d07789cffa058024065ce471a5c5c583ec15f0eafa647a384dd6a6ed954a72bedc38342d)#kdy30vz3",
            "hex": "4104ad8a60f0869a014effdbd69fcb3769adbfa8a647cf880c9852fe4385d07789cffa058024065ce471a5c5c583ec15f0eafa647a384dd6a6ed954a72bedc38342dac",
            "type": "pubkey"
          }
        }
      ],
      "hex": "01000000010000000000000000000000000000000000000000000000000000000000000000ffffffff0804ffff001d02d80affffffff0100f2052a01000000434104ad8a60f0869a014effdbd69fcb3769adbfa8a647cf880c9852fe4385d07789cffa058024065ce471a5c5c583ec15f0eafa647a384dd6a6ed954a72bedc38342dac00000000"
    }
  ]
}