{
  "hash": "00000000726f1bbc7bc627d67432541f413121e3dcf7fd8faaeb55ba1e778fe9",
  "confirmations": 51573,
  "height": 1525,
  "version": 1,
  "versionHex": "00000001",
  "merkleroot": "1587eba00c30a43d9bc6a443543a9777bd2bd19fcc2bed49fed18b6cbeedefd3",
  "time": 1232777689,
  "mediantime": 1232776000,
  "nonce": 68958504,
  "bits": "1d00ffff",
  "difficulty": 1,
  "chainwork": "000000000000000000000000000000000000000000000000000005f605f605f6",
  "nTx": 1,
  "previousblockhash": "000000000ad51181e1fa8dd01d00ef0f63a0df05fc9f2aa82ed30debeff3e4af",
  "nextblockhash": "00000000e9f13af6043e8d4580b275b113202457e83aa96a6abc782ba5db2ae0",
  "strippedsize": 216,
  "size": 216,
  "weight": 864,
  "tx": [
    {
      "txid": "1587eba00c30a43d9bc6a443543a9777bd2bd19fcc2bed49fed18b6cbeedefd3",
      "hash": "1587eba00c30a43d9bc6a443543a9777bd2bd19fcc2bed49fed18b6cbeedefd3",
      "version": 1,
      "size": 135,
      "vsize": 135,
      "weight": 540,
      "locktime": 0,
      "vin": [
        {
          "coinbase": "04ffff001d027003",
          "sequence": 4294967295
        }
      ],
      "vout": [
        {
          "value": 50.0,
          "n": 0,
          "scriptPubKey": {
            "asm": "04a312e1e6b529e139924174095f9b6c459c9c62581ccfb386725ca096803230d9c1a568469573aace1f1f784aebfd52c1348bc37beb1fea1d712c8a2af2f2f5f2 OP_CHECKSIG",
            "desc": "pk(04a312e1e6b529e139924174095f9b6c459c9c62581ccfb386725ca096803230d9c1a568469573aace1f1f784aebfd52c1348bc37beb1fea1d712c8a2af2f2f5f2)#0ssyy9g8",
            "hex": "4104a312e1e6b529e139924174095f9b6c459c9c62581ccfb386725ca096803230d9c1a568469573aace1f1f784aebfd52c1348bc37beb1fea1d712c8a2af2f2f5f2ac",
            "type": "pubkey"
          }
        }
      ],
      "hex": "01000000010000000000000000000000000000000000000000000000000000000000000000ffffffff0804ffff001d027003ffffffff0100f2052a01000000434104a312e1e6b529e139924174095f9b6c459c9c62581ccfb386725ca096803230d9c1a568469573aace1f1f784aebfd52c1348bc37beb1fea1d712c8a2af2f2f5f2ac00000000"
    }
  ]
}