{
  "hash": "00000000e0be8c1aed8deec216f290765e072e5d909e5908b137418d99805bfe",
  "confirmations": 48277,
  "height": 4821,
  "version": 1,
  "versionHex": "00000001",
  "merkleroot": "f95275ce0abeca10b5c67b5ed61e40863a93d607c18fd990bafc3e1d821cb09f",
  "time": 1235014015,
  "mediantime": 1235010237,
  "nonce": 619938333,
  "bits": "1d00ffff",
  "difficulty": 1,
  "chainwork": "000000000000000000000000000000000000000000000000000012d612d612d6",
  "nTx": 1,
  "previousblockhash": "00000000f2dd2f23d3d3008a8ef26be0333d06b071687ae4e414caea637f2f93",
  "nextblockhash": "0000000067d925aef445c31994026ba9b6d4d2d4022fd04f4111a3fa7e2b2627",
  "strippedsize": 216,
  "size": 216,
  "weight": 864,
  "tx": [
    {
      "txid": "f95275ce0abeca10b5c67b5ed61e40863a93d607c18fd990bafc3e1d821cb09f",
      "hash": "f95275ce0abeca10b5c67b5ed61e40863a93d607c18fd990bafc3e1d821cb09f",
      "version": 1,
      "size": 135,
      "vsize": 135,
      "weight": 540,
      "locktime": 0,
      "vin": [
        {
          "coinbase": "04ffff001d029f04",
          "sequence": 4294967295
        }
      ],
      "vout": [
        {
          "value": 50.0,
          "n": 0,
          "scriptPubKey": {
            "asm": "0474b712985276578f6ecd23b28a9dc99706f86724a79fa6b86e59f5294301526b8265e5e3af184d7fe417493a79cd0fd2c8a0256d471a89de1547c4752c7c582d OP_CHECKSIG",
            "desc": "pk(0474b712985276578f6ecd23b28a9dc99706f86724a79fa6b86e59f5294301526b8265e5e3af184d7fe417493a79cd0fd2c8a0256d471a89de1547c4752c7c582d)#ag4ja2dx",
            "hex": "410474b712985276578f6ecd23b28a9dc99706f86724a79fa6b86e59f5294301526b8265e5e3af184d7fe417493a79cd0fd2c8a0256d471a89de1547c4752c7c582dac",
            "type": "pubkey"
          }
        }
      ],
      "hex": "01000000010000000000000000000000000000000000000000000000000000000000000000ffffffff0804ffff001d029f04ffffffff0100f2052a0100000043410474b712985276578f6ecd23b28a9dc99706f86724a79fa6b86e59f5294301526b8265e5e3af184d7fe417493a79cd0fd2c8a0256d471a89de1547c4752c7c582dac00000000"
    }
  ]
}