{
  "hash": "00000000c0eb042f3e6a51a8c5f4f0c0350724affae79436f0fb315b94ed8cf5",
  "confirmations": 50774,
  "height": 2324,
  "version": 1,
  "versionHex": "00000001",
  "merkleroot": "423712126ad8f388718b8d168a4b5b8363a0b3317a2726258e0e3f836ff68079",
  "time": 1233297246,
  "mediantime": 1233294675,
  "nonce": 232146461,
  "bits": "1d00ffff",
  "difficulty": 1,
  "chainwork": "0000000000000000000000000000000000000000000000000000091509150915",
  "nTx": 1,
  "previousblockhash": "00000000ccb320a356fdfb47e4cd9ebb22e4c294e23bd316aaeaef1701058c9e",
  "nextblockhash": "0000000068bca7204f5b11298a2e241f12a8ac466aa67865536ce52e928e2e40",
  "strippedsize": 216,
  "size": 216,
  "weight": 864,
  "tx": [
    {
      "txid": "423712126ad8f388718b8d168a4b5b8363a0b3317a2726258e0e3f836ff68079",
      "hash": "423712126ad8f388718b8d168a4b5b8363a0b3317a2726258e0e3f836ff68079",
      "version": 1,
      "size": 135,
      "vsize": 135,
      "weight": 540,
      "locktime": 0,
      "vin": [
        {
          "coinbase": "04ffff001d023102",
          "sequence": 4294967295
        }
      ],
      "vout": [
        {
          "value": 50.0,
          "n": 0,
          "scriptPubKey": {
            "asm": "04a4f1891870adf24107ece13bb04030519ed6e5fbdcec4a2fb9bc9b68b4f0a0bd3ea7841b069dd2a02e36027d33ff9b77aaf4d657e2e59c7525d5b0153d345446 OP_CHECKSIG",
            "desc": "pk(04a4f1891870adf24107ece13bb04030519ed6e5fbdcec4a2fb9bc9b68b4f0a0bd3ea7841b069dd2a02e36027d33ff9b77aaf4d657e2e59c7525d5b0153d345446)#lcvgmsuj",
            "hex": "4104a4f1891870adf24107ece13bb04030519ed6e5fbdcec4a2fb9bc9b68b4f0a0bd3ea7841b069dd2a02e36027d33ff9b77aaf4d657e2e59c7525d5b0153d345446ac",
            "type": "pubkey"
          }
        }
      ],
      "hex": "01000000010000000000000000000000000000000000000000000000000000000000000000ffffffff0804ffff001d023102ffffffff0100f2052a01000000434104a4f1891870adf24107ece13bb04030519ed6e5fbdcec4a2fb9bc9b68b4f0a0bd3ea7841b069dd2a02e36027d33ff9b77aaf4d657e2e59c7525d5b0153d345446ac00000000"
    }
  ]
}