{
  "hash": "000000000dbe13c5961daba3e9b8f3f6870bbd6fed966bb0d1a6084174f5e02a",
  "confirmations": 46164,
  "height": 6934,
  "version": 1,
  "versionHex": "00000001",
  "merkleroot": "155a805f70363ff6509a80ca2fef50f7eca85ad1387dc77c098f7219c94a8a7e",
  "time": 1236665297,
  "mediantime": 1236660785,
  "nonce": 921641249,
  "bits": "1d00ffff",
  "difficulty": 1,
  "chainwork": "00000000000000000000000000000000000000000000000000001b171b171b17",
  "nTx": 1,
  "previousblockhash": "00000000883100134dbe0bede12e931e7e5cabed804abfc791646cc93e0b8c2a",
  "nextblockhash": "00000000eebddc9bb9fa5419eb30aa8852b02f9e5abd26a698d088a601cb60ec",
  "strippedsize": 216,
  "size": 216,
  "weight": 864,
  "tx": [
    {
      "txid": "155a805f70363ff6509a80ca2fef50f7eca85ad1387dc77c098f7219c94a8a7e",
      "hash": "155a805f70363ff6509a80ca2fef50f7eca85ad1387dc77c098f7219c94a8a7e",
      "version": 1,
      "size": 135,
      "vsize": 135,
      "weight": 540,
      "locktime": 0,
      "vin": [
        {
          "coinbase": "04ffff001d020901",
          "sequence": 4294967295
        }
      ],
      "vout": [
        {
          "value": 50.0,
          "n": 0,
          "scriptPubKey": {
            "asm": "04dc37df1e4ec40652e58de5994510177ebd6144c5bbe93732d8d8efb0209c549d8e89ea316bb744c1f22f84848ae57a54a7aad6a032c9deb88a5221fdae6ff3cb OP_CHECKSIG",
            "desc": "pk(04dc37df1e4ec40652e58de5994510177ebd6144c5bbe93732d8d8efb0209c549d8e89ea316bb744c1f22f84848ae57a54a7aad6a032c9deb88a5221fdae6ff3cb)#4ndhjlvu",
            "hex": "4104dc37df1e4ec40652e58de5994510177ebd6144c5bbe93732d8d8efb0209c549d8e89ea316bb744c1f22f84848ae57a54a7aad6a032c9deb88a5221fdae6ff3cbac",
            "type": "pubkey"
          }
        }
      ],
      "hex": "01000000010000000000000000000000000000000000000000000000000000000000000000ffffffff0804ffff001d020901ffffffff0100f2052a01000000434104dc37df1e4ec40652e58de5994510177ebd6144c5bbe93732d8d8efb0209c549d8e89ea316bb744c1f22f84848ae57a54a7aad6a032c9deb88a5221fdae6ff3cbac00000000"
    }
  ]
}