{
  "hash": "000000005fade21217d1212ec5a4a60ae18aaf6f4f90138d2332fc8bcd25ff0d",
  "confirmations": 50634,
  "height": 2464,
  "version": 1,
  "versionHex": "00000001",
  "merkleroot": "3778efa6ed74c0127e0f1b4cffb8abc9b5a1edf0f04516f32aa50c654cd9ad40",
  "time": 1233401729,
  "mediantime": 1233398636,
  "nonce": 77142183,
  "bits": "1d00ffff",
  "difficulty": 1,
  "chainwork": "000000000000000000000000000000000000000000000000000009a109a109a1",
  "nTx": 1,
  "previousblockhash": "0000000018873a0c260ed81fb5a47802f11b00991b56a352575c92ec9d1e238d",
  "nextblockhash": "00000000cf9f32807a51004165e3a5a63d265de3cfd1dfb5068c29acff74634b",
  "strippedsize": 216,
  "size": 216,
  "weight": 864,
  "tx": [
    {
      "txid": "3778efa6ed74c0127e0f1b4cffb8abc9b5a1edf0f04516f32aa50c654cd9ad40",
      "hash": "3778efa6ed74c0127e0f1b4cffb8abc9b5a1edf0f04516f32aa50c654cd9ad40",
      "version": 1,
      "size": 135,
      "vsize": 135,
      "weight": 540,
      "locktime": 0,
      "vin": [
        {
          "coinbase": "04ffff001d023801",
          "sequence": 4294967295
        }
      ],
      "vout": [
        {
          "value": 50.0,
          "n": 0,
          "scriptPubKey": {
            "asm": "046c16a2d278da491591e54366806e684a3ff97827b46cb9207b0e98e41a75dd7a9baf6597f83aab9a2a66f2ffab841d6c0ef3a3d432e72db4bb0a2cb303079b76 OP_CHECKSIG",
            "desc": "pk(046c16a2d278da491591e54366806e684a3ff97827b46cb9207b0e98e41a75dd7a9baf6597f83aab9a2a66f2ffab841d6c0ef3a3d432e72db4bb0a2cb303079b76)#j09awdxw",
            "hex": "41046c16a2d278da491591e54366806e684a3ff97827b46cb9207b0e98e41a75dd7a9baf6597f83aab9a2a66f2ffab841d6c0ef3a3d432e72db4bb0a2cb303079b76ac",
            "type": "pubkey"
          }
        }
      ],
      "hex": "01000000010000000000000000000000000000000000000000000000000000000000000000ffffffff0804ffff001d023801ffffffff0100f2052a010000004341046c16a2d278da491591e54366806e684a3ff97827b46cb9207b0e98e41a75dd7a9baf6597f83aab9a2a66f2ffab841d6c0ef3a3d432e72db4bb0a2cb303079b76ac00000000"
    }
  ]
}