{
  "hash": "0000000036f75ba422b327c6cf6dc8e649f66f4c0bbde53df199bb9b1b717998",
  "confirmations": 47826,
  "height": 5272,
  "version": 1,
  "versionHex": "00000001",
  "merkleroot": "791c3242e52abac92c898be00c6fd54c4c1bf1f590f22110754b2e7512647377",
  "time": 1235340514,
  "mediantime": 1235335298,
  "nonce": 2100584759,
  "bits": "1d00ffff",
  "difficulty": 1,
  "chainwork": "0000000000000000000000000000000000000000000000000000149914991499",
  "nTx": 1,
  "previousblockhash": "0000000008adf19edf3f8ab3c717706ca45ac51cdf4a0d055e9fbc328ee0dd2c",
  "nextblockhash": "000000005bef32962166bb02025ce41132d5cbe5a80c5d53c45b3fb45814fd06",
  "strippedsize": 216,
  "size": 216,
  "weight": 864,
  "tx": [
    {
      "txid": "791c3242e52abac92c898be00c6fd54c4c1bf1f590f22110754b2e7512647377",
      "hash": "791c3242e52abac92c898be00c6fd54c4c1bf1f590f22110754b2e7512647377",
      "version": 1,
      "size": 135,
      "vsize": 135,
      "weight": 540,
      "locktime": 0,
      "vin": [
        {
          "coinbase": "04ffff001d029e01",
          "sequence": 4294967295
        }
      ],
      "vout": [
        {
          "value": 50.0,
          "n": 0,
          "scriptPubKey": {
            "asm": "04b6c18886d9f4c3b16283f750c4ce221b63f5abd272252994b0e137e4cb3250d1911b231ee10628bfb52e75bfb461d4e10ad2b60655027ae8ab70e61ba2d87e94 OP_CHECKSIG",
            "desc": "pk(04b6c18886d9f4c3b16283f750c4ce221b63f5abd272252994b0e137e4cb3250d1911b231ee10628bfb52e75bfb461d4e10ad2b60655027ae8ab70e61ba2d87e94)#4jmr6tzp",
            "hex": "4104b6c18886d9f4c3b16283f750c4ce221b63f5abd272252994b0e137e4cb3250d1911b231ee10628bfb52e75bfb461d4e10ad2b60655027ae8ab70e61ba2d87e94ac",
            "type": "pubkey"
          }
        }
      ],
      "hex": "01000000010000000000000000000000000000000000000000000000000000000000000000ffffffff0804ffff001d029e01ffffffff0100f2052a01000000434104b6c18886d9f4c3b16283f750c4ce221b63f5abd272252994b0e137e4cb3250d1911b231ee10628bfb52e75bfb461d4e10ad2b60655027ae8ab70e61ba2d87e94ac00000000"
    }
  ]
}