{
  "hash": "000000001ac5811d934567499b28bbc4bfc6ae587a14738cf9e65ffb11144435",
  "confirmations": 48843,
  "height": 4255,
  "version": 1,
  "versionHex": "00000001",
  "merkleroot": "460ada65fcea729124e2b8a872ca4469ae5540615559223396f9327c87b00d23",
  "time": 1234612948,
  "mediantime": 1234610714,
  "nonce": 148596168,
  "bits": "1d00ffff",
  "difficulty": 1,
  "chainwork": "000000000000000000000000000000000000000000000000000010a010a010a0",
  "nTx": 1,
  "previousblockhash": "00000000db369e007e500ef26f8c099dd1de32733d480c4d0ede0ec8d218d747",
  "nextblockhash": "0000000084dd21c2b382624423b64afcb98e2918caa46d0a912237a028945adc",
  "strippedsize": 215,
  "size": 215,
  "weight": 860,
  "tx": [
    {
      "txid": "460ada65fcea729124e2b8a872ca4469ae5540615559223396f9327c87b00d23",
      "hash": "460ada65fcea729124e2b8a872ca4469ae5540615559223396f9327c87b00d23",
      "version": 1,
      "size": 134,
      "vsize": 134,
      "weight": 536,
      "locktime": 0,
      "vin": [
        {
          "coinbase": "04ffff001d014e",
          "sequence": 4294967295
        }
      ],
      "vout": [
        {
          "value": 50.0,
          "n": 0,
          "scriptPubKey": {
            "asm": "0419a2813803de8dc297f0729251d88109c8bd95c1ab3e8dd2b579a391e71a4ffb8a4ccc190ed7717b8ac7c1645f094ac16791d8030b71c4cb173c63ccfdba34b4 OP_CHECKSIG",
            "desc": "pk(0419a2813803de8dc297f0729251d88109c8bd95c1ab3e8dd2b579a391e71a4ffb8a4ccc190ed7717b8ac7c1645f094ac16791d8030b71c4cb173c63ccfdba34b4)#cywg29kd",
            "hex": "410419a2813803de8dc297f0729251d88109c8bd95c1ab3e8dd2b579a391e71a4ffb8a4ccc190ed7717b8ac7c1645f094ac16791d8030b71c4cb173c63ccfdba34b4ac",
            "type": "pubkey"
          }
        }
      ],
      "hex": "01000000010000000000000000000000000000000000000000000000000000000000000000ffffffff0704ffff001d014effffffff0100f2052a0100000043410419a2813803de8dc297f0729251d88109c8bd95c1ab3e8dd2b579a391e71a4ffb8a4ccc190ed7717b8ac7c1645f094ac16791d8030b71c4cb173c63ccfdba34b4ac00000000"
    }
  ]
}