{
  "hash": "00000000e30e5f03da17b2d0a09237a7affb011f0708506e2ce1f1900d3ccd35",
  "confirmations": 45591,
  "height": 7507,
  "version": 1,
  "versionHex": "00000001",
  "merkleroot": "3ce518f8d4ffbf29e6ce6d35507ced2b5564a2e13e33344a113501fb306b2367",
  "time": 1237101895,
  "mediantime": 1237099300,
  "nonce": 99141886,
  "bits": "1d00ffff",
  "difficulty": 1,
  "chainwork": "00000000000000000000000000000000000000000000000000001d541d541d54",
  "nTx": 1,
  "previousblockhash": "000000000e6b706d07a86752164dd5d2cc8a6f4a381ec682a66173f2fc179245",
  "nextblockhash": "0000000013b3939396548fff0d8d0db387eab5a521450fd9005f5f3649f2b1f3",
  "strippedsize": 216,
  "size": 216,
  "weight": 864,
  "tx": [
    {
      "txid": "3ce518f8d4ffbf29e6ce6d35507ced2b5564a2e13e33344a113501fb306b2367",
      "hash": "3ce518f8d4ffbf29e6ce6d35507ced2b5564a2e13e33344a113501fb306b2367",
      "version": 1,
      "size": 135,
      "vsize": 135,
      "weight": 540,
      "locktime": 0,
      "vin": [
        {
          "coinbase": "04ffff001d02f102",
          "sequence": 4294967295
        }
      ],
      "vout": [
        {
          "value": 50.0,
          "n": 0,
          "scriptPubKey": {
            "asm": "0457f5fa2464edbf3ce7391cf08472f1be1b7e811e5884a83d42544d36a5019204c9d2e58e2aa02d55abed9e49974e7833836a01c341c0e65deb5623852ae446dc OP_CHECKSIG",
            "desc": "pk(0457f5fa2464edbf3ce7391cf08472f1be1b7e811e5884a83d42544d36a5019204c9d2e58e2aa02d55abed9e49974e7833836a01c341c0e65deb5623852ae446dc)#zsdchd24",
            "hex": "410457f5fa2464edbf3ce7391cf08472f1be1b7e811e5884a83d42544d36a5019204c9d2e58e2aa02d55abed9e49974e7833836a01c341c0e65deb5623852ae446dcac",
            "type": "pubkey"
          }
        }
      ],
      "hex": "01000000010000000000000000000000000000000000000000000000000000000000000000ffffffff0804ffff001d02f102ffffffff0100f2052a0100000043410457f5fa2464edbf3ce7391cf08472f1be1b7e811e5884a83d42544d36a5019204c9d2e58e2aa02d55abed9e49974e7833836a01c341c0e65deb5623852ae446dcac00000000"
    }
  ]
}