{
  "hash": "0000000014508be38bb90f3be774d262c209303a51c71bbf3102a458f39b8e3e",
  "confirmations": 51164,
  "height": 1934,
  "version": 1,
  "versionHex": "00000001",
  "merkleroot": "3b5c5fd6f5a8eebce30a3ad3e3279157be353b04b10dfea067f5d1516343f2e9",
  "time": 1232995642,
  "mediantime": 1232990915,
  "nonce": 3717497344,
  "bits": "1d00ffff",
  "difficulty": 1,
  "chainwork": "0000000000000000000000000000000000000000000000000000078f078f078f",
  "nTx": 1,
  "previousblockhash": "00000000cf29a2367f90e4c81e32cf8a00d02f2c824697c4cf473ed1d8adec23",
  "nextblockhash": "000000000af7d285a4de23d3a44fa16decc6c90b03fd794ee5140aded45232f7",
  "strippedsize": 215,
  "size": 215,
  "weight": 860,
  "tx": [
    {
      "txid": "3b5c5fd6f5a8eebce30a3ad3e3279157be353b04b10dfea067f5d1516343f2e9",
      "hash": "3b5c5fd6f5a8eebce30a3ad3e3279157be353b04b10dfea067f5d1516343f2e9",
      "version": 1,
      "size": 134,
      "vsize": 134,
      "weight": 536,
      "locktime": 0,
      "vin": [
        {
          "coinbase": "04ffff001d0160",
          "sequence": 4294967295
        }
      ],
      "vout": [
        {
          "value": 50.0,
          "n": 0,
          "scriptPubKey": {
            "asm": "04613a86636c1d8a10927992c77cc560a09bc8bcae68acb9bc2f496f66be4fc1d054356980033b76a641a952d72f939b6a1cfdb1259804343ffbeb2f09106dc134 OP_CHECKSIG",
            "desc": "pk(04613a86636c1d8a10927992c77cc560a09bc8bcae68acb9bc2f496f66be4fc1d054356980033b76a641a952d72f939b6a1cfdb1259804343ffbeb2f09106dc134)#2ynkhj9z",
            "hex": "4104613a86636c1d8a10927992c77cc560a09bc8bcae68acb9bc2f496f66be4fc1d054356980033b76a641a952d72f939b6a1cfdb1259804343ffbeb2f09106dc134ac",
            "type": "pubkey"
          }
        }
      ],
      "hex": "01000000010000000000000000000000000000000000000000000000000000000000000000ffffffff0704ffff001d0160ffffffff0100f2052a01000000434104613a86636c1d8a10927992c77cc560a09bc8bcae68acb9bc2f496f66be4fc1d054356980033b76a641a952d72f939b6a1cfdb1259804343ffbeb2f09106dc134ac00000000"
    }
  ]
}