{
  "hash": "00000000f6e758bff279b5d6c6c557dd1b90511eac1df10652a2a782aa5733b5",
  "confirmations": 52039,
  "height": 1059,
  "version": 1,
  "versionHex": "00000001",
  "merkleroot": "91e779fd411268b47be65761dfcd0b9bf2ef2bf3f096f505846f17af4fc6fdbb",
  "time": 1232395609,
  "mediantime": 1232390294,
  "nonce": 1013115669,
  "bits": "1d00ffff",
  "difficulty": 1,
  "chainwork": "0000000000000000000000000000000000000000000000000000042404240424",
  "nTx": 1,
  "previousblockhash": "00000000d357309918e1e2586ca15141650f39b8097169274ccdba05991a87b3",
  "nextblockhash": "00000000a396bda7ddfea736dc41dc1ff82ab99b391da8b8d8a24147bae0fe51",
  "strippedsize": 216,
  "size": 216,
  "weight": 864,
  "tx": [
    {
      "txid": "91e779fd411268b47be65761dfcd0b9bf2ef2bf3f096f505846f17af4fc6fdbb",
      "hash": "91e779fd411268b47be65761dfcd0b9bf2ef2bf3f096f505846f17af4fc6fdbb",
      "version": 1,
      "size": 135,
      "vsize": 135,
      "weight": 540,
      "locktime": 0,
      "vin": [
        {
          "coinbase": "04ffff001d022e06",
          "sequence": 4294967295
        }
      ],
      "vout": [
        {
          "value": 50.0,
          "n": 0,
          "scriptPubKey": {
            "asm": "0489963fd24efcc2f34bcc5f55c2286f1d2e706688e1227052a32a78b497d49190b7a9138580cae3f26cc299a0e7a79a5ad329387b7acb537475cb1df66410a20a OP_CHECKSIG",
            "desc": "pk(0489963fd24efcc2f34bcc5f55c2286f1d2e706688e1227052a32a78b497d49190b7a9138580cae3f26cc299a0e7a79a5ad329387b7acb537475cb1df66410a20a)#cazy42jn",
            "hex": "410489963fd24efcc2f34bcc5f55c2286f1d2e706688e1227052a32a78b497d49190b7a9138580cae3f26cc299a0e7a79a5ad329387b7acb537475cb1df66410a20aac",
            "type": "pubkey"
          }
        }
      ],
      "hex": "01000000010000000000000000000000000000000000000000000000000000000000000000ffffffff0804ffff001d022e06ffffffff0100f2052a0100000043410489963fd24efcc2f34bcc5f55c2286f1d2e706688e1227052a32a78b497d49190b7a9138580cae3f26cc299a0e7a79a5ad329387b7acb537475cb1df66410a20aac00000000"
    }
  ]
}