{
  "hash": "000000004d80d182f8f764246bf1f575da852557b659b42777edc0d719fb490a",
  "confirmations": 46631,
  "height": 6467,
  "version": 1,
  "versionHex": "00000001",
  "merkleroot": "b9f75b5d98225d8b276185af248da43a2562dd56573f1b3e0cb42293457718c1",
  "time": 1236304653,
  "mediantime": 1236301882,
  "nonce": 2833853220,
  "bits": "1d00ffff",
  "difficulty": 1,
  "chainwork": "0000000000000000000000000000000000000000000000000000194419441944",
  "nTx": 1,
  "previousblockhash": "00000000aad46b09e74ff3a1b37b511fa5e44e004b33432c28bcabe487b5599b",
  "nextblockhash": "0000000037cf5a77ed3dd54ff1df8c0a8e4c041b644809debbffe04cdaabf74f",
  "strippedsize": 216,
  "size": 216,
  "weight": 864,
  "tx": [
    {
      "txid": "b9f75b5d98225d8b276185af248da43a2562dd56573f1b3e0cb42293457718c1",
      "hash": "b9f75b5d98225d8b276185af248da43a2562dd56573f1b3e0cb42293457718c1",
      "version": 1,
      "size": 135,
      "vsize": 135,
      "weight": 540,
      "locktime": 0,
      "vin": [
        {
          "coinbase": "04ffff001d02cd02",
          "sequence": 4294967295
        }
      ],
      "vout": [
        {
          "value": 50.0,
          "n": 0,
          "scriptPubKey": {
            "asm": "04ba01e1fc40cb6bc57f2e5d24f132840d5ce2b8991b1f043ba0cea9caffca71c0393a0b6342e700232dc75463539c1ca80b68403b81815e466da0875c7a4e2c0d OP_CHECKSIG",
            "desc": "pk(04ba01e1fc40cb6bc57f2e5d24f132840d5ce2b8991b1f043ba0cea9caffca71c0393a0b6342e700232dc75463539c1ca80b68403b81815e466da0875c7a4e2c0d)#0klts052",
            "hex": "4104ba01e1fc40cb6bc57f2e5d24f132840d5ce2b8991b1f043ba0cea9caffca71c0393a0b6342e700232dc75463539c1ca80b68403b81815e466da0875c7a4e2c0dac",
            "type": "pubkey"
          }
        }
      ],
      "hex": "01000000010000000000000000000000000000000000000000000000000000000000000000ffffffff0804ffff001d02cd02ffffffff0100f2052a01000000434104ba01e1fc40cb6bc57f2e5d24f132840d5ce2b8991b1f043ba0cea9caffca71c0393a0b6342e700232dc75463539c1ca80b68403b81815e466da0875c7a4e2c0dac00000000"
    }
  ]
}