{
  "hash": "00000000b5194b18f6b81b445b7cf29dd0e96f6f2fb1402740256994cb8a8778",
  "confirmations": 50259,
  "height": 2839,
  "version": 1,
  "versionHex": "00000001",
  "merkleroot": "9707ab7974d5a3bf32d6575fa86924204aae1ef4c0045671b0932dc251490edf",
  "time": 1233652167,
  "mediantime": 1233647223,
  "nonce": 1022088965,
  "bits": "1d00ffff",
  "difficulty": 1,
  "chainwork": "00000000000000000000000000000000000000000000000000000b180b180b18",
  "nTx": 1,
  "previousblockhash": "00000000fd28382e084f93747bad7fe68cc284dc40741762234024aa22c7847e",
  "nextblockhash": "00000000516574a4455c89908277184e2250529b6f80971a5793b337e5f345fb",
  "strippedsize": 216,
  "size": 216,
  "weight": 864,
  "tx": [
    {
      "txid": "9707ab7974d5a3bf32d6575fa86924204aae1ef4c0045671b0932dc251490edf",
      "hash": "9707ab7974d5a3bf32d6575fa86924204aae1ef4c0045671b0932dc251490edf",
      "version": 1,
      "size": 135,
      "vsize": 135,
      "weight": 540,
      "locktime": 0,
      "vin": [
        {
          "coinbase": "04ffff001d02b306",
          "sequence": 4294967295
        }
      ],
      "vout": [
        {
          "value": 50.0,
          "n": 0,
          "scriptPubKey": {
            "asm": "04537c3d815d135b2608b5eb0da24d91207b076565ab82a37619bc1d81f25b966a8aaee009cdaae44728e7d32c77d6353573c7b14032cfd9d7f913410ef85543c0 OP_CHECKSIG",
            "desc": "pk(04537c3d815d135b2608b5eb0da24d91207b076565ab82a37619bc1d81f25b966a8aaee009cdaae44728e7d32c77d6353573c7b14032cfd9d7f913410ef85543c0)#6k5003ak",
            "hex": "4104537c3d815d135b2608b5eb0da24d91207b076565ab82a37619bc1d81f25b966a8aaee009cdaae44728e7d32c77d6353573c7b14032cfd9d7f913410ef85543c0ac",
            "type": "pubkey"
          }
        }
      ],
      "hex": "01000000010000000000000000000000000000000000000000000000000000000000000000ffffffff0804ffff001d02b306ffffffff0100f2052a01000000434104537c3d815d135b2608b5eb0da24d91207b076565ab82a37619bc1d81f25b966a8aaee009cdaae44728e7d32c77d6353573c7b14032cfd9d7f913410ef85543c0ac00000000"
    }
  ]
}