{
  "hash": "000000004ae235de91e61928d42e966e31967fd1e86a538d92a8b415bc348465",
  "confirmations": 43128,
  "height": 9970,
  "version": 1,
  "versionHex": "00000001",
  "merkleroot": "717522d5bfe2551c60c9dd0e864e134e12a685904c41fa0c8d961185fe717775",
  "time": 1238970771,
  "mediantime": 1238967054,
  "nonce": 1207192329,
  "bits": "1d00ffff",
  "difficulty": 1,
  "chainwork": "000000000000000000000000000000000000000000000000000026f326f326f3",
  "nTx": 1,
  "previousblockhash": "00000000b94ac5e08ca0e3e56cb5951109e30b8a5b7b97f8b106a6d7ec14a4ee",
  "nextblockhash": "000000001a510e2689acef458d8d27cab6b154a0b1b0fcb5263c23182593c3dc",
  "strippedsize": 216,
  "size": 216,
  "weight": 864,
  "tx": [
    {
      "txid": "717522d5bfe2551c60c9dd0e864e134e12a685904c41fa0c8d961185fe717775",
      "hash": "717522d5bfe2551c60c9dd0e864e134e12a685904c41fa0c8d961185fe717775",
      "version": 1,
      "size": 135,
      "vsize": 135,
      "weight": 540,
      "locktime": 0,
      "vin": [
        {
          "coinbase": "04ffff001d02fb02",
          "sequence": 4294967295
        }
      ],
      "vout": [
        {
          "value": 50.0,
          "n": 0,
          "scriptPubKey": {
            "asm": "0470d23487f8a989f1e1d333c9001e8d85301fe4a2ab12597c470b20d87bdbbf2ee468eaf3fe241c0b3ba01fd02f05c999b715a436e5e53ef4d4b97b54150d16cd OP_CHECKSIG",
            "desc": "pk(0470d23487f8a989f1e1d333c9001e8d85301fe4a2ab12597c470b20d87bdbbf2ee468eaf3fe241c0b3ba01fd02f05c999b715a436e5e53ef4d4b97b54150d16cd)#9ajdq426",
            "hex": "410470d23487f8a989f1e1d333c9001e8d85301fe4a2ab12597c470b20d87bdbbf2ee468eaf3fe241c0b3ba01fd02f05c999b715a436e5e53ef4d4b97b54150d16cdac",
            "type": "pubkey"
          }
        }
      ],
      "hex": "01000000010000000000000000000000000000000000000000000000000000000000000000ffffffff0804ffff001d02fb02ffffffff0100f2052a0100000043410470d23487f8a989f1e1d333c9001e8d85301fe4a2ab12597c470b20d87bdbbf2ee468eaf3fe241c0b3ba01fd02f05c999b715a436e5e53ef4d4b97b54150d16cdac00000000"
    }
  ]
}