{
  "hash": "000000004da91b6da0a6d96cb00662eca6f0dafd9bd1e8a6f0a24fca8cd317e3",
  "confirmations": 48254,
  "height": 4844,
  "version": 1,
  "versionHex": "00000001",
  "merkleroot": "e18f0b633179652960568dd72bd386b16a063de13ec1154f19331e0f83b19ccf",
  "time": 1235032590,
  "mediantime": 1235028842,
  "nonce": 1702504756,
  "bits": "1d00ffff",
  "difficulty": 1,
  "chainwork": "000000000000000000000000000000000000000000000000000012ed12ed12ed",
  "nTx": 1,
  "previousblockhash": "000000006831bf2f16797771e6995ca5c317f4166bcf9ec53d41303058348e6c",
  "nextblockhash": "00000000faf61b1875f68064f0dbd0055db17b2df85cea7276363def7a656a00",
  "strippedsize": 216,
  "size": 216,
  "weight": 864,
  "tx": [
    {
      "txid": "e18f0b633179652960568dd72bd386b16a063de13ec1154f19331e0f83b19ccf",
      "hash": "e18f0b633179652960568dd72bd386b16a063de13ec1154f19331e0f83b19ccf",
      "version": 1,
      "size": 135,
      "vsize": 135,
      "weight": 540,
      "locktime": 0,
      "vin": [
        {
          "coinbase": "04ffff001d020505",
          "sequence": 4294967295
        }
      ],
      "vout": [
        {
          "value": 50.0,
          "n": 0,
          "scriptPubKey": {
            "asm": "048e7e7c3aea3776bb161cc0b86aa6f502be025c94e21c504b8a8b50b82fc88128a3932a660190b9450bcf9930780913b0264c17c2083d5ddc2fba4493bfde9398 OP_CHECKSIG",
            "desc": "pk(048e7e7c3aea3776bb161cc0b86aa6f502be025c94e21c504b8a8b50b82fc88128a3932a660190b9450bcf9930780913b0264c17c2083d5ddc2fba4493bfde9398)#haujdu39",
            "hex": "41048e7e7c3aea3776bb161cc0b86aa6f502be025c94e21c504b8a8b50b82fc88128a3932a660190b9450bcf9930780913b0264c17c2083d5ddc2fba4493bfde9398ac",
            "type": "pubkey"
          }
        }
      ],
      "hex": "01000000010000000000000000000000000000000000000000000000000000000000000000ffffffff0804ffff001d020505ffffffff0100f2052a010000004341048e7e7c3aea3776bb161cc0b86aa6f502be025c94e21c504b8a8b50b82fc88128a3932a660190b9450bcf9930780913b0264c17c2083d5ddc2fba4493bfde9398ac00000000"
    }
  ]
}