{
  "hash": "0000000095710639baeec64aec542f29fc6299a11431fa78138541aa613c4ae0",
  "confirmations": 49487,
  "height": 3611,
  "version": 1,
  "versionHex": "00000001",
  "merkleroot": "a93f8f5d761d1db036283c5279b74dc4994950f20a1f2068bd64d40209d4f319",
  "time": 1234179939,
  "mediantime": 1234176404,
  "nonce": 1976648987,
  "bits": "1d00ffff",
  "difficulty": 1,
  "chainwork": "00000000000000000000000000000000000000000000000000000e1c0e1c0e1c",
  "nTx": 1,
  "previousblockhash": "000000009ac78cc4031fa286bb2842df37e857fea447e7bd61c0225f820d16fe",
  "nextblockhash": "00000000ace7468fe8ea9d70bf3621bfd59190346af86b436d4c2013eb3e2f58",
  "strippedsize": 216,
  "size": 216,
  "weight": 864,
  "tx": [
    {
      "txid": "a93f8f5d761d1db036283c5279b74dc4994950f20a1f2068bd64d40209d4f319",
      "hash": "a93f8f5d761d1db036283c5279b74dc4994950f20a1f2068bd64d40209d4f319",
      "version": 1,
      "size": 135,
      "vsize": 135,
      "weight": 540,
      "locktime": 0,
      "vin": [
        {
          "coinbase": "04ffff001d02c408",
          "sequence": 4294967295
        }
      ],
      "vout": [
        {
          "value": 50.0,
          "n": 0,
          "scriptPubKey": {
            "asm": "048ab6823500143f015e5b493e418640b7c77a5eb2b0ecfa389b0ffb9c5c8cdd7128b1f9e49343661f114211ceeb30409470259b27e65e1163d61c813d7ddad8c2 OP_CHECKSIG",
            "desc": "pk(048ab6823500143f015e5b493e418640b7c77a5eb2b0ecfa389b0ffb9c5c8cdd7128b1f9e49343661f114211ceeb30409470259b27e65e1163d61c813d7ddad8c2)#yxjayg84",
            "hex": "41048ab6823500143f015e5b493e418640b7c77a5eb2b0ecfa389b0ffb9c5c8cdd7128b1f9e49343661f114211ceeb30409470259b27e65e1163d61c813d7ddad8c2ac",
            "type": "pubkey"
          }
        }
      ],
      "hex": "01000000010000000000000000000000000000000000000000000000000000000000000000ffffffff0804ffff001d02c408ffffffff0100f2052a010000004341048ab6823500143f015e5b493e418640b7c77a5eb2b0ecfa389b0ffb9c5c8cdd7128b1f9e49343661f114211ceeb30409470259b27e65e1163d61c813d7ddad8c2ac00000000"
    }
  ]
}