{
  "hash": "000000000881c1287f3eb22d7cf45356c826ec0d35ecc0a7724b3f7b1817d3f0",
  "confirmations": 52103,
  "height": 995,
  "version": 1,
  "versionHex": "00000001",
  "merkleroot": "0b15b03de70b8a12268123c3c8443f32e95378b0b2bd05942800fea1c0748ce9",
  "time": 1232344831,
  "mediantime": 1232342619,
  "nonce": 3425830937,
  "bits": "1d00ffff",
  "difficulty": 1,
  "chainwork": "000000000000000000000000000000000000000000000000000003e403e403e4",
  "nTx": 1,
  "previousblockhash": "00000000f6e8e7975456ff3cdff418d55552c6a99cdbaa54cddd53837f974d7b",
  "nextblockhash": "00000000135e515a3570b8bd43cc0e5bc301780b7d98a57fe980739df183d289",
  "strippedsize": 216,
  "size": 216,
  "weight": 864,
  "tx": [
    {
      "txid": "0b15b03de70b8a12268123c3c8443f32e95378b0b2bd05942800fea1c0748ce9",
      "hash": "0b15b03de70b8a12268123c3c8443f32e95378b0b2bd05942800fea1c0748ce9",
      "version": 1,
      "size": 135,
      "vsize": 135,
      "weight": 540,
      "locktime": 0,
      "vin": [
        {
          "coinbase": "04ffff001d02f804",
          "sequence": 4294967295
        }
      ],
      "vout": [
        {
          "value": 50.0,
          "n": 0,
          "scriptPubKey": {
            "asm": "043e9f1e951e56f248c4a51b094cbbe9cef39ba10190c87ffb04be10e95c3ce3d60604a6e73e172d49bee0d82a228b60457ec9687ae44b9d18ec84341fd58cdca5 OP_CHECKSIG",
            "desc": "pk(043e9f1e951e56f248c4a51b094cbbe9cef39ba10190c87ffb04be10e95c3ce3d60604a6e73e172d49bee0d82a228b60457ec9687ae44b9d18ec84341fd58cdca5)#vgx5tnu2",
            "hex": "41043e9f1e951e56f248c4a51b094cbbe9cef39ba10190c87ffb04be10e95c3ce3d60604a6e73e172d49bee0d82a228b60457ec9687ae44b9d18ec84341fd58cdca5ac",
            "type": "pubkey"
          }
        }
      ],
      "hex": "01000000010000000000000000000000000000000000000000000000000000000000000000ffffffff0804ffff001d02f804ffffffff0100f2052a010000004341043e9f1e951e56f248c4a51b094cbbe9cef39ba10190c87ffb04be10e95c3ce3d60604a6e73e172d49bee0d82a228b60457ec9687ae44b9d18ec84341fd58cdca5ac00000000"
    }
  ]
}