{
  "hash": "00000000380bc674466d2354d788bbc384b409d3e05f665c2560f01729c5965e",
  "confirmations": 49152,
  "height": 3946,
  "version": 1,
  "versionHex": "00000001",
  "merkleroot": "29933664e4f4c175fe9d724d1daedb39a384bf2422575ddfe03ab03043171d28",
  "time": 1234402889,
  "mediantime": 1234400254,
  "nonce": 919117338,
  "bits": "1d00ffff",
  "difficulty": 1,
  "chainwork": "00000000000000000000000000000000000000000000000000000f6b0f6b0f6b",
  "nTx": 1,
  "previousblockhash": "0000000050a0602ab7519996ab042811e8165b2868ba01bb5cebc1108489708d",
  "nextblockhash": "000000007e44f42dcded6a1aac7b7269552c2a0b346fa1b628148dc11fa2e064",
  "strippedsize": 216,
  "size": 216,
  "weight": 864,
  "tx": [
    {
      "txid": "29933664e4f4c175fe9d724d1daedb39a384bf2422575ddfe03ab03043171d28",
      "hash": "29933664e4f4c175fe9d724d1daedb39a384bf2422575ddfe03ab03043171d28",
      "version": 1,
      "size": 135,
      "vsize": 135,
      "weight": 540,
      "locktime": 0,
      "vin": [
        {
          "coinbase": "04ffff001d028d03",
          "sequence": 4294967295
        }
      ],
      "vout": [
        {
          "value": 50.0,
          "n": 0,
          "scriptPubKey": {
            "asm": "047b2981b875fa8fbf1b6b95039bd669a290f6770263151b2eb855aac8a1f24f32fb540db012a23d6b6963308223dadd434972b3da5195015a481b9c8369aeedc2 OP_CHECKSIG",
            "desc": "pk(047b2981b875fa8fbf1b6b95039bd669a290f6770263151b2eb855aac8a1f24f32fb540db012a23d6b6963308223dadd434972b3da5195015a481b9c8369aeedc2)#73xgey5h",
            "hex": "41047b2981b875fa8fbf1b6b95039bd669a290f6770263151b2eb855aac8a1f24f32fb540db012a23d6b6963308223dadd434972b3da5195015a481b9c8369aeedc2ac",
            "type": "pubkey"
          }
        }
      ],
      "hex": "01000000010000000000000000000000000000000000000000000000000000000000000000ffffffff0804ffff001d028d03ffffffff0100f2052a010000004341047b2981b875fa8fbf1b6b95039bd669a290f6770263151b2eb855aac8a1f24f32fb540db012a23d6b6963308223dadd434972b3da5195015a481b9c8369aeedc2ac00000000"
    }
  ]
}