{
  "hash": "000000000d307eda232d986738cdd01ee4161cb51a3994f8a54f6e67fd1b4554",
  "confirmations": 52263,
  "height": 835,
  "version": 1,
  "versionHex": "00000001",
  "merkleroot": "f33490c99489c9e92b5dc532a2b673233cdca0e9b666c87d9c0edeada5b8fd38",
  "time": 1232218747,
  "mediantime": 1232213554,
  "nonce": 122481158,
  "bits": "1d00ffff",
  "difficulty": 1,
  "chainwork": "0000000000000000000000000000000000000000000000000000034403440344",
  "nTx": 1,
  "previousblockhash": "00000000e218d46cb2ebea79906e0052ae1c5bb6b224b0da3bcee63ea53e33d0",
  "nextblockhash": "00000000657735ca6d3368548751e8c4cde75698d0ed4f55e3f1297e27724c21",
  "strippedsize": 216,
  "size": 216,
  "weight": 864,
  "tx": [
    {
      "txid": "f33490c99489c9e92b5dc532a2b673233cdca0e9b666c87d9c0edeada5b8fd38",
      "hash": "f33490c99489c9e92b5dc532a2b673233cdca0e9b666c87d9c0edeada5b8fd38",
      "version": 1,
      "size": 135,
      "vsize": 135,
      "weight": 540,
      "locktime": 0,
      "vin": [
        {
          "coinbase": "04ffff001d022502",
          "sequence": 4294967295
        }
      ],
      "vout": [
        {
          "value": 50.0,
          "n": 0,
          "scriptPubKey": {
            "asm": "047e558ed23322d7ddb3030c8911c193d242aaa4588b966f8e1d3f8b9cdd69268149d75a6ad49dc5e5adb5c12d55c243199c73b816844801722002679ea7ab3f13 OP_CHECKSIG",
            "desc": "pk(047e558ed23322d7ddb3030c8911c193d242aaa4588b966f8e1d3f8b9cdd69268149d75a6ad49dc5e5adb5c12d55c243199c73b816844801722002679ea7ab3f13)#dup8kyw3",
            "hex": "41047e558ed23322d7ddb3030c8911c193d242aaa4588b966f8e1d3f8b9cdd69268149d75a6ad49dc5e5adb5c12d55c243199c73b816844801722002679ea7ab3f13ac",
            "type": "pubkey"
          }
        }
      ],
      "hex": "01000000010000000000000000000000000000000000000000000000000000000000000000ffffffff0804ffff001d022502ffffffff0100f2052a010000004341047e558ed23322d7ddb3030c8911c193d242aaa4588b966f8e1d3f8b9cdd69268149d75a6ad49dc5e5adb5c12d55c243199c73b816844801722002679ea7ab3f13ac00000000"
    }
  ]
}