{
  "hash": "00000000d8e0686ad0e5b7400712a7935b0519fe2d10bdd402c9ba26d4676363",
  "confirmations": 44669,
  "height": 8429,
  "version": 1,
  "versionHex": "00000001",
  "merkleroot": "b851314f92f9ce0d8ff8f615e33670d19eb8fea17aa389385a54e7dcf336cf81",
  "time": 1237817001,
  "mediantime": 1237814216,
  "nonce": 3379214894,
  "bits": "1d00ffff",
  "difficulty": 1,
  "chainwork": "000000000000000000000000000000000000000000000000000020ee20ee20ee",
  "nTx": 1,
  "previousblockhash": "00000000309564d27c75e4aeba724b98c0566b165066e33c4f2572a1f08dd2ba",
  "nextblockhash": "00000000e6947759eea5751d8fa1d4b9dab382538e6d79630c1090e1fe039051",
  "strippedsize": 216,
  "size": 216,
  "weight": 864,
  "tx": [
    {
      "txid": "b851314f92f9ce0d8ff8f615e33670d19eb8fea17aa389385a54e7dcf336cf81",
      "hash": "b851314f92f9ce0d8ff8f615e33670d19eb8fea17aa389385a54e7dcf336cf81",
      "version": 1,
      "size": 135,
      "vsize": 135,
      "weight": 540,
      "locktime": 0,
      "vin": [
        {
          "coinbase": "04ffff001d028e06",
          "sequence": 4294967295
        }
      ],
      "vout": [
        {
          "value": 50.0,
          "n": 0,
          "scriptPubKey": {
            "asm": "0440b82ceb7200c7b6d98ae0122d9afddd7c3a337c10a72c4aa57ede96e7587cbd94c615aa064a22cfd48dffd0ae8d7a42b9df669e124baabf0d1d470d3166c626 OP_CHECKSIG",
            "desc": "pk(0440b82ceb7200c7b6d98ae0122d9afddd7c3a337c10a72c4aa57ede96e7587cbd94c615aa064a22cfd48dffd0ae8d7a42b9df669e124baabf0d1d470d3166c626)#72ryk0u4",
            "hex": "410440b82ceb7200c7b6d98ae0122d9afddd7c3a337c10a72c4aa57ede96e7587cbd94c615aa064a22cfd48dffd0ae8d7a42b9df669e124baabf0d1d470d3166c626ac",
            "type": "pubkey"
          }
        }
      ],
      "hex": "01000000010000000000000000000000000000000000000000000000000000000000000000ffffffff0804ffff001d028e06ffffffff0100f2052a0100000043410440b82ceb7200c7b6d98ae0122d9afddd7c3a337c10a72c4aa57ede96e7587cbd94c615aa064a22cfd48dffd0ae8d7a42b9df669e124baabf0d1d470d3166c626ac00000000"
    }
  ]
}