{
  "hash": "0000000092e38e86fd855cdde57ce4fbb9913b1a3d12b6818e53c70273811212",
  "confirmations": 48717,
  "height": 4381,
  "version": 1,
  "versionHex": "00000001",
  "merkleroot": "a38922b194f15af8878c378b5679e64bd254b59b57ee41156a298b40444ef673",
  "time": 1234698782,
  "mediantime": 1234694787,
  "nonce": 241164838,
  "bits": "1d00ffff",
  "difficulty": 1,
  "chainwork": "0000000000000000000000000000000000000000000000000000111e111e111e",
  "nTx": 1,
  "previousblockhash": "000000008db537d5fe91c8669958d5717cc8737c58f6ef66ca17ad47933cbeb8",
  "nextblockhash": "00000000ed4f44fcb2aa8275e4f0ad4ea342cdbbdaa080a59be472ac8a596e86",
  "strippedsize": 216,
  "size": 216,
  "weight": 864,
  "tx": [
    {
      "txid": "a38922b194f15af8878c378b5679e64bd254b59b57ee41156a298b40444ef673",
      "hash": "a38922b194f15af8878c378b5679e64bd254b59b57ee41156a298b40444ef673",
      "version": 1,
      "size": 135,
      "vsize": 135,
      "weight": 540,
      "locktime": 0,
      "vin": [
        {
          "coinbase": "04ffff001d02ec00",
          "sequence": 4294967295
        }
      ],
      "vout": [
        {
          "value": 50.0,
          "n": 0,
          "scriptPubKey": {
            "asm": "042f6ffab9a7782a44805d7918af5c89a20de2376776d393b61e1db373166f024a0b48908277c49fb2a57f6546afa98e99add0c20e6886d2873dc88e60473aa048 OP_CHECKSIG",
            "desc": "pk(042f6ffab9a7782a44805d7918af5c89a20de2376776d393b61e1db373166f024a0b48908277c49fb2a57f6546afa98e99add0c20e6886d2873dc88e60473aa048)#fmn2q3x8",
            "hex": "41042f6ffab9a7782a44805d7918af5c89a20de2376776d393b61e1db373166f024a0b48908277c49fb2a57f6546afa98e99add0c20e6886d2873dc88e60473aa048ac",
            "type": "pubkey"
          }
        }
      ],
      "hex": "01000000010000000000000000000000000000000000000000000000000000000000000000ffffffff0804ffff001d02ec00ffffffff0100f2052a010000004341042f6ffab9a7782a44805d7918af5c89a20de2376776d393b61e1db373166f024a0b48908277c49fb2a57f6546afa98e99add0c20e6886d2873dc88e60473aa048ac00000000"
    }
  ]
}