{
  "hash": "000000001e2aec11362bd8db223b1eaf2e910effe00f08a6a51bb7f93ccf9199",
  "confirmations": 45263,
  "height": 7835,
  "version": 1,
  "versionHex": "00000001",
  "merkleroot": "0ffcfa436702d422787d4c5d6bf8e4e9468b4dd380c8ac1b05ee9e3b983da64b",
  "time": 1237339225,
  "mediantime": 1237336418,
  "nonce": 1444469761,
  "bits": "1d00ffff",
  "difficulty": 1,
  "chainwork": "00000000000000000000000000000000000000000000000000001e9c1e9c1e9c",
  "nTx": 1,
  "previousblockhash": "000000008189e520a10e1d736866946b03ad58d2fc24f163c7bb068833ad268d",
  "nextblockhash": "000000002b2c78c5e2bfbf4029566dec8764020c0c119d41dd072c95c153eaa6",
  "strippedsize": 216,
  "size": 216,
  "weight": 864,
  "tx": [
    {
      "txid": "0ffcfa436702d422787d4c5d6bf8e4e9468b4dd380c8ac1b05ee9e3b983da64b",
      "hash": "0ffcfa436702d422787d4c5d6bf8e4e9468b4dd380c8ac1b05ee9e3b983da64b",
      "version": 1,
      "size": 135,
      "vsize": 135,
      "weight": 540,
      "locktime": 0,
      "vin": [
        {
          "coinbase": "04ffff001d027506",
          "sequence": 4294967295
        }
      ],
      "vout": [
        {
          "value": 50.0,
          "n": 0,
          "scriptPubKey": {
            "asm": "040cfff1de215eb335b0af1c7b9d6a9ffd292120debc5b7342d0ea2806268c2c9bb1a8d35286c9e4ba35de35806a571bc1cd0d3e60783be89b20706b9d92c0866c OP_CHECKSIG",
            "desc": "pk(040cfff1de215eb335b0af1c7b9d6a9ffd292120debc5b7342d0ea2806268c2c9bb1a8d35286c9e4ba35de35806a571bc1cd0d3e60783be89b20706b9d92c0866c)#gyzw2hk5",
            "hex": "41040cfff1de215eb335b0af1c7b9d6a9ffd292120debc5b7342d0ea2806268c2c9bb1a8d35286c9e4ba35de35806a571bc1cd0d3e60783be89b20706b9d92c0866cac",
            "type": "pubkey"
          }
        }
      ],
      "hex": "01000000010000000000000000000000000000000000000000000000000000000000000000ffffffff0804ffff001d027506ffffffff0100f2052a010000004341040cfff1de215eb335b0af1c7b9d6a9ffd292120debc5b7342d0ea2806268c2c9bb1a8d35286c9e4ba35de35806a571bc1cd0d3e60783be89b20706b9d92c0866cac00000000"
    }
  ]
}