{
  "hash": "000000007f61cfcf11ddde9a4d078da91b8c18831e3f75cd1263366292142786",
  "confirmations": 46234,
  "height": 6864,
  "version": 1,
  "versionHex": "00000001",
  "merkleroot": "049fcd19f06b07a4b8a7081c9c63da0ec15210fb9e3f8aad6573cc46e6b2d306",
  "time": 1236605049,
  "mediantime": 1236602171,
  "nonce": 190756946,
  "bits": "1d00ffff",
  "difficulty": 1,
  "chainwork": "00000000000000000000000000000000000000000000000000001ad11ad11ad1",
  "nTx": 1,
  "previousblockhash": "000000001bc2484049552d3302ff29bae5b3b110772c97e4a4edf9efd82320b0",
  "nextblockhash": "00000000e5aafc1c3dbd73a2d90fb42b9cfbc18835c21a2e0881ddad91dda766",
  "strippedsize": 215,
  "size": 215,
  "weight": 860,
  "tx": [
    {
      "txid": "049fcd19f06b07a4b8a7081c9c63da0ec15210fb9e3f8aad6573cc46e6b2d306",
      "hash": "049fcd19f06b07a4b8a7081c9c63da0ec15210fb9e3f8aad6573cc46e6b2d306",
      "version": 1,
      "size": 134,
      "vsize": 134,
      "weight": 536,
      "locktime": 0,
      "vin": [
        {
          "coinbase": "04ffff001d017a",
          "sequence": 4294967295
        }
      ],
      "vout": [
        {
          "value": 50.0,
          "n": 0,
          "scriptPubKey": {
            "asm": "048a3aa821de9f33ed3cc839bb14fb126d15d3438ad32c2b4afcb03ccb151dfd42b473119ab33a7e4c3483d445a928979b2475013c411a47c4900737eaf364f1b2 OP_CHECKSIG",
            "desc": "pk(048a3aa821de9f33ed3cc839bb14fb126d15d3438ad32c2b4afcb03ccb151dfd42b473119ab33a7e4c3483d445a928979b2475013c411a47c4900737eaf364f1b2)#jcrwcraq",
            "hex": "41048a3aa821de9f33ed3cc839bb14fb126d15d3438ad32c2b4afcb03ccb151dfd42b473119ab33a7e4c3483d445a928979b2475013c411a47c4900737eaf364f1b2ac",
            "type": "pubkey"
          }
        }
      ],
      "hex": "01000000010000000000000000000000000000000000000000000000000000000000000000ffffffff0704ffff001d017affffffff0100f2052a010000004341048a3aa821de9f33ed3cc839bb14fb126d15d3438ad32c2b4afcb03ccb151dfd42b473119ab33a7e4c3483d445a928979b2475013c411a47c4900737eaf364f1b2ac00000000"
    }
  ]
}