{
  "hash": "000000008a3f87d76e4e59fbd3c531a87b0557b91c838a988e7c9589b42cf7db",
  "confirmations": 51148,
  "height": 1950,
  "version": 1,
  "versionHex": "00000001",
  "merkleroot": "9b0b15c823a9bc03e6e85bfd91cead3876a5e3e58df66d9d8d68fcec5030bf2b",
  "time": 1233007640,
  "mediantime": 1233004161,
  "nonce": 1841628704,
  "bits": "1d00ffff",
  "difficulty": 1,
  "chainwork": "0000000000000000000000000000000000000000000000000000079f079f079f",
  "nTx": 1,
  "previousblockhash": "00000000fd33d335a22fa4f3f139b9147de4733ef6aabe7b98c250931ec92284",
  "nextblockhash": "000000001414f1c4b00806241cedf3fb45c843c9144fbd14df57c03a84b8cc7b",
  "strippedsize": 216,
  "size": 216,
  "weight": 864,
  "tx": [
    {
      "txid": "9b0b15c823a9bc03e6e85bfd91cead3876a5e3e58df66d9d8d68fcec5030bf2b",
      "hash": "9b0b15c823a9bc03e6e85bfd91cead3876a5e3e58df66d9d8d68fcec5030bf2b",
      "version": 1,
      "size": 135,
      "vsize": 135,
      "weight": 540,
      "locktime": 0,
      "vin": [
        {
          "coinbase": "04ffff001d028d00",
          "sequence": 4294967295
        }
      ],
      "vout": [
        {
          "value": 50.0,
          "n": 0,
          "scriptPubKey": {
            "asm": "047357ae4801fad011338c419afbcd1c5c5ce000b1d5a28e2ed050cc3ade825720529e4046eb9924b805ffca9ac37781cb148b25873bfabb4e814636bc6536c35b OP_CHECKSIG",
            "desc": "pk(047357ae4801fad011338c419afbcd1c5c5ce000b1d5a28e2ed050cc3ade825720529e4046eb9924b805ffca9ac37781cb148b25873bfabb4e814636bc6536c35b)#ejxlj7p5",
            "hex": "41047357ae4801fad011338c419afbcd1c5c5ce000b1d5a28e2ed050cc3ade825720529e4046eb9924b805ffca9ac37781cb148b25873bfabb4e814636bc6536c35bac",
            "type": "pubkey"
          }
        }
      ],
      "hex": "01000000010000000000000000000000000000000000000000000000000000000000000000ffffffff0804ffff001d028d00ffffffff0100f2052a010000004341047357ae4801fad011338c419afbcd1c5c5ce000b1d5a28e2ed050cc3ade825720529e4046eb9924b805ffca9ac37781cb148b25873bfabb4e814636bc6536c35bac00000000"
    }
  ]
}