{
  "hash": "000000003e8da1bbcb66f62568bf10f2468fe45fedb0cdb5fef438a20e34baf3",
  "confirmations": 45366,
  "height": 7732,
  "version": 1,
  "versionHex": "00000001",
  "merkleroot": "4076566f355181fd077276c4646522e9ce5b845b950b6b57d92dd595d398bb78",
  "time": 1237263537,
  "mediantime": 1237258695,
  "nonce": 4115435033,
  "bits": "1d00ffff",
  "difficulty": 1,
  "chainwork": "00000000000000000000000000000000000000000000000000001e351e351e35",
  "nTx": 1,
  "previousblockhash": "0000000044a9165d98e9717f08c3000e216c78eec309e172ea612e4f26f27763",
  "nextblockhash": "000000000461fcde538569a5d992692266bc503c83df1559d11d9e55854f9980",
  "strippedsize": 216,
  "size": 216,
  "weight": 864,
  "tx": [
    {
      "txid": "4076566f355181fd077276c4646522e9ce5b845b950b6b57d92dd595d398bb78",
      "hash": "4076566f355181fd077276c4646522e9ce5b845b950b6b57d92dd595d398bb78",
      "version": 1,
      "size": 135,
      "vsize": 135,
      "weight": 540,
      "locktime": 0,
      "vin": [
        {
          "coinbase": "04ffff001d02c504",
          "sequence": 4294967295
        }
      ],
      "vout": [
        {
          "value": 50.0,
          "n": 0,
          "scriptPubKey": {
            "asm": "048a467c0fa1e3e458834151538f25a86c8576a317f22bbd87edfc4078140ca2a128509b33d552cd7dd571739ba17955321d6891e45570f8545f628cf81af7ece6 OP_CHECKSIG",
            "desc": "pk(048a467c0fa1e3e458834151538f25a86c8576a317f22bbd87edfc4078140ca2a128509b33d552cd7dd571739ba17955321d6891e45570f8545f628cf81af7ece6)#hu8gzmdx",
            "hex": "41048a467c0fa1e3e458834151538f25a86c8576a317f22bbd87edfc4078140ca2a128509b33d552cd7dd571739ba17955321d6891e45570f8545f628cf81af7ece6ac",
            "type": "pubkey"
          }
        }
      ],
      "hex": "01000000010000000000000000000000000000000000000000000000000000000000000000ffffffff0804ffff001d02c504ffffffff0100f2052a010000004341048a467c0fa1e3e458834151538f25a86c8576a317f22bbd87edfc4078140ca2a128509b33d552cd7dd571739ba17955321d6891e45570f8545f628cf81af7ece6ac00000000"
    }
  ]
}