{
  "hash": "00000000f1022ea9fce00eec106c1bc0bf408fb9d3b73493242ab81348ad8a85",
  "confirmations": 50575,
  "height": 2523,
  "version": 1,
  "versionHex": "00000001",
  "merkleroot": "3b6e670dc3eb7cfa9ca684fc7ab4a51eb499681a34fb14b705061fd08347e502",
  "time": 1233432682,
  "mediantime": 1233428912,
  "nonce": 1765934644,
  "bits": "1d00ffff",
  "difficulty": 1,
  "chainwork": "000000000000000000000000000000000000000000000000000009dc09dc09dc",
  "nTx": 1,
  "previousblockhash": "0000000080e27ac62e6d209c3866764229ae47ef988b2d754af30385a6b12523",
  "nextblockhash": "000000000e1a27ff4c29ef750fb620bef5697a32554e007f008c36bdc129b150",
  "strippedsize": 216,
  "size": 216,
  "weight": 864,
  "tx": [
    {
      "txid": "3b6e670dc3eb7cfa9ca684fc7ab4a51eb499681a34fb14b705061fd08347e502",
      "hash": "3b6e670dc3eb7cfa9ca684fc7ab4a51eb499681a34fb14b705061fd08347e502",
      "version": 1,
      "size": 135,
      "vsize": 135,
      "weight": 540,
      "locktime": 0,
      "vin": [
        {
          "coinbase": "04ffff001d025b01",
          "sequence": 4294967295
        }
      ],
      "vout": [
        {
          "value": 50.0,
          "n": 0,
          "scriptPubKey": {
            "asm": "04420b2d9ccb06e549b7b21dbeb2a0386d989a834986aab40703df238724c7082bbaeb831fa6ab13c02bfa9ac624125440212294dc326b2263d18c5b9de736084e OP_CHECKSIG",
            "desc": "pk(04420b2d9ccb06e549b7b21dbeb2a0386d989a834986aab40703df238724c7082bbaeb831fa6ab13c02bfa9ac624125440212294dc326b2263d18c5b9de736084e)#tfrx4wmy",
            "hex": "4104420b2d9ccb06e549b7b21dbeb2a0386d989a834986aab40703df238724c7082bbaeb831fa6ab13c02bfa9ac624125440212294dc326b2263d18c5b9de736084eac",
            "type": "pubkey"
          }
        }
      ],
      "hex": "01000000010000000000000000000000000000000000000000000000000000000000000000ffffffff0804ffff001d025b01ffffffff0100f2052a01000000434104420b2d9ccb06e549b7b21dbeb2a0386d989a834986aab40703df238724c7082bbaeb831fa6ab13c02bfa9ac624125440212294dc326b2263d18c5b9de736084eac00000000"
    }
  ]
}