{
  "hash": "00000000a8df21790d4785b6b2b9625f452ded9a3cec75b3160377aba5edceeb",
  "confirmations": 51700,
  "height": 1398,
  "version": 1,
  "versionHex": "00000001",
  "merkleroot": "bd3dadc040f022ada19730429fd91f86502887788782f09b7cd252f37b57f40c",
  "time": 1232721688,
  "mediantime": 1232698876,
  "nonce": 3111395060,
  "bits": "1d00ffff",
  "difficulty": 1,
  "chainwork": "0000000000000000000000000000000000000000000000000000057705770577",
  "nTx": 1,
  "previousblockhash": "00000000e7050ca0479ee3a47bc5b028bba56d4a1bed2e52e9317cd1fd633c08",
  "nextblockhash": "0000000014ae456c104853e17deaed2a61eede544edd048e557eda88c20b88f5",
  "strippedsize": 216,
  "size": 216,
  "weight": 864,
  "tx": [
    {
      "txid": "bd3dadc040f022ada19730429fd91f86502887788782f09b7cd252f37b57f40c",
      "hash": "bd3dadc040f022ada19730429fd91f86502887788782f09b7cd252f37b57f40c",
      "version": 1,
      "size": 135,
      "vsize": 135,
      "weight": 540,
      "locktime": 0,
      "vin": [
        {
          "coinbase": "04ffff001d02de00",
          "sequence": 4294967295
        }
      ],
      "vout": [
        {
          "value": 50.0,
          "n": 0,
          "scriptPubKey": {
            "asm": "04195037ee299d6fe236da9fe1ebc81052e43df6a4e1f9f14b99b7c7aeb491184396c482778a0e3dbbf65979d85618a46400539d8659014f871baf9e689c5b7b18 OP_CHECKSIG",
            "desc": "pk(04195037ee299d6fe236da9fe1ebc81052e43df6a4e1f9f14b99b7c7aeb491184396c482778a0e3dbbf65979d85618a46400539d8659014f871baf9e689c5b7b18)#y09nhf6a",
            "hex": "4104195037ee299d6fe236da9fe1ebc81052e43df6a4e1f9f14b99b7c7aeb491184396c482778a0e3dbbf65979d85618a46400539d8659014f871baf9e689c5b7b18ac",
            "type": "pubkey"
          }
        }
      ],
      "hex": "01000000010000000000000000000000000000000000000000000000000000000000000000ffffffff0804ffff001d02de00ffffffff0100f2052a01000000434104195037ee299d6fe236da9fe1ebc81052e43df6a4e1f9f14b99b7c7aeb491184396c482778a0e3dbbf65979d85618a46400539d8659014f871baf9e689c5b7b18ac00000000"
    }
  ]
}