{
  "hash": "00000000dfb27b850a46d9ee253211c00e5bc5db9fe745a18d7ba318cdaa6a81",
  "confirmations": 48841,
  "height": 4257,
  "version": 1,
  "versionHex": "00000001",
  "merkleroot": "1b803136daaa1c27dc3f9fc4b9ba56a683a587c52bbb49945b16de3602dca81a",
  "time": 1234614246,
  "mediantime": 1234611716,
  "nonce": 4242401593,
  "bits": "1d00ffff",
  "difficulty": 1,
  "chainwork": "000000000000000000000000000000000000000000000000000010a210a210a2",
  "nTx": 1,
  "previousblockhash": "0000000084dd21c2b382624423b64afcb98e2918caa46d0a912237a028945adc",
  "nextblockhash": "000000007d3037617d7804e2376266203f19861de946a3490c3525e1034cddb7",
  "strippedsize": 216,
  "size": 216,
  "weight": 864,
  "tx": [
    {
      "txid": "1b803136daaa1c27dc3f9fc4b9ba56a683a587c52bbb49945b16de3602dca81a",
      "hash": "1b803136daaa1c27dc3f9fc4b9ba56a683a587c52bbb49945b16de3602dca81a",
      "version": 1,
      "size": 135,
      "vsize": 135,
      "weight": 540,
      "locktime": 0,
      "vin": [
        {
          "coinbase": "04ffff001d02ff07",
          "sequence": 4294967295
        }
      ],
      "vout": [
        {
          "value": 50.0,
          "n": 0,
          "scriptPubKey": {
            "asm": "04ebb7aac2be772d22d9948b1934c6b9619a9ee3ed1635134adf43346b2a33d19e2abb6a2da1d69c4e125e9791756e0f0c3eaaeff0e3f90e4e8620fc8d3a2d14a2 OP_CHECKSIG",
            "desc": "pk(04ebb7aac2be772d22d9948b1934c6b9619a9ee3ed1635134adf43346b2a33d19e2abb6a2da1d69c4e125e9791756e0f0c3eaaeff0e3f90e4e8620fc8d3a2d14a2)#24d2dgcl",
            "hex": "4104ebb7aac2be772d22d9948b1934c6b9619a9ee3ed1635134adf43346b2a33d19e2abb6a2da1d69c4e125e9791756e0f0c3eaaeff0e3f90e4e8620fc8d3a2d14a2ac",
            "type": "pubkey"
          }
        }
      ],
      "hex": "01000000010000000000000000000000000000000000000000000000000000000000000000ffffffff0804ffff001d02ff07ffffffff0100f2052a01000000434104ebb7aac2be772d22d9948b1934c6b9619a9ee3ed1635134adf43346b2a33d19e2abb6a2da1d69c4e125e9791756e0f0c3eaaeff0e3f90e4e8620fc8d3a2d14a2ac00000000"
    }
  ]
}