{
  "hash": "00000000d16cbccbf3efd887605b96cfd70e4d4491dbbeb7e4f2d4114c1dc935",
  "confirmations": 48596,
  "height": 4502,
  "version": 1,
  "versionHex": "00000001",
  "merkleroot": "82fbcb66e909fbc43bcda2d86cda129d7921354be1efbacdcda832f0e8a86006",
  "time": 1234780805,
  "mediantime": 1234777601,
  "nonce": 2609553667,
  "bits": "1d00ffff",
  "difficulty": 1,
  "chainwork": "0000000000000000000000000000000000000000000000000000119711971197",
  "nTx": 1,
  "previousblockhash": "00000000dbae13c4a1366d42db3967b7cfc7604675cbe8be06ecd08ca7fb97b4",
  "nextblockhash": "00000000d253ee01216f001ccfac69a958eb4156424f05f4fe4bb0507bb87650",
  "strippedsize": 216,
  "size": 216,
  "weight": 864,
  "tx": [
    {
      "txid": "82fbcb66e909fbc43bcda2d86cda129d7921354be1efbacdcda832f0e8a86006",
      "hash": "82fbcb66e909fbc43bcda2d86cda129d7921354be1efbacdcda832f0e8a86006",
      "version": 1,
      "size": 135,
      "vsize": 135,
      "weight": 540,
      "locktime": 0,
      "vin": [
        {
          "coinbase": "04ffff001d02d402",
          "sequence": 4294967295
        }
      ],
      "vout": [
        {
          "value": 50.0,
          "n": 0,
          "scriptPubKey": {
            "asm": "04d7d61b477169f012e084a593e813800b6e6ab4cf7a0ecbb724df4b85dce880615d25af59710b6f33fe2f5a119036ba112fa80bf99fa5bd7e75c55bc744bf1b5d OP_CHECKSIG",
            "desc": "pk(04d7d61b477169f012e084a593e813800b6e6ab4cf7a0ecbb724df4b85dce880615d25af59710b6f33fe2f5a119036ba112fa80bf99fa5bd7e75c55bc744bf1b5d)#nmak3ftn",
            "hex": "4104d7d61b477169f012e084a593e813800b6e6ab4cf7a0ecbb724df4b85dce880615d25af59710b6f33fe2f5a119036ba112fa80bf99fa5bd7e75c55bc744bf1b5dac",
            "type": "pubkey"
          }
        }
      ],
      "hex": "01000000010000000000000000000000000000000000000000000000000000000000000000ffffffff0804ffff001d02d402ffffffff0100f2052a01000000434104d7d61b477169f012e084a593e813800b6e6ab4cf7a0ecbb724df4b85dce880615d25af59710b6f33fe2f5a119036ba112fa80bf99fa5bd7e75c55bc744bf1b5dac00000000"
    }
  ]
}