{
  "hash": "00000000cb9d89fb1bfd6119e1f2542775a5741bad07d0382e19db73cd92183e",
  "confirmations": 43963,
  "height": 9135,
  "version": 1,
  "versionHex": "00000001",
  "merkleroot": "3e534b33d459aae590499eebd8a7cb31eeb90f4134cdde852abd6c67dc544af1",
  "time": 1238356265,
  "mediantime": 1238352798,
  "nonce": 2514366764,
  "bits": "1d00ffff",
  "difficulty": 1,
  "chainwork": "000000000000000000000000000000000000000000000000000023b023b023b0",
  "nTx": 1,
  "previousblockhash": "00000000346fda022def808ec9e0ca283c87545a204e3a2753165e886afbba86",
  "nextblockhash": "00000000b9081b0b54959ad619607692c4dff547cf1cf806c206ad6a8739bebf",
  "strippedsize": 216,
  "size": 216,
  "weight": 864,
  "tx": [
    {
      "txid": "3e534b33d459aae590499eebd8a7cb31eeb90f4134cdde852abd6c67dc544af1",
      "hash": "3e534b33d459aae590499eebd8a7cb31eeb90f4134cdde852abd6c67dc544af1",
      "version": 1,
      "size": 135,
      "vsize": 135,
      "weight": 540,
      "locktime": 0,
      "vin": [
        {
          "coinbase": "04ffff001d020a09",
          "sequence": 4294967295
        }
      ],
      "vout": [
        {
          "value": 50.0,
          "n": 0,
          "scriptPubKey": {
            "asm": "04465a495dd8baca91e157df88a5f478613a85e3df9527c3430d3d102f57ab90d5301401ae34cb18c89d89f6648ab504f6d3a2e113a1c5e393466a1871be8fc3ce OP_CHECKSIG",
            "desc": "pk(04465a495dd8baca91e157df88a5f478613a85e3df9527c3430d3d102f57ab90d5301401ae34cb18c89d89f6648ab504f6d3a2e113a1c5e393466a1871be8fc3ce)#m5m8lfer",
            "hex": "4104465a495dd8baca91e157df88a5f478613a85e3df9527c3430d3d102f57ab90d5301401ae34cb18c89d89f6648ab504f6d3a2e113a1c5e393466a1871be8fc3ceac",
            "type": "pubkey"
          }
        }
      ],
      "hex": "01000000010000000000000000000000000000000000000000000000000000000000000000ffffffff0804ffff001d020a09ffffffff0100f2052a01000000434104465a495dd8baca91e157df88a5f478613a85e3df9527c3430d3d102f57ab90d5301401ae34cb18c89d89f6648ab504f6d3a2e113a1c5e393466a1871be8fc3ceac00000000"
    }
  ]
}