{
  "hash": "00000000792cc1513091cc859381657e3525b2c56f1283cdeb2ec4b3e7b5ef1d",
  "confirmations": 49864,
  "height": 3234,
  "version": 1,
  "versionHex": "00000001",
  "merkleroot": "064b18911b275422e13573a4618a1f22798b31231e62b28d6c24fe8c90f7c555",
  "time": 1233923672,
  "mediantime": 1233920518,
  "nonce": 874319368,
  "bits": "1d00ffff",
  "difficulty": 1,
  "chainwork": "00000000000000000000000000000000000000000000000000000ca30ca30ca3",
  "nTx": 1,
  "previousblockhash": "000000003867f96c1cdb30e7e6e227b817bad51ec528f5911bd4beab345998c2",
  "nextblockhash": "00000000a7fba9d396fe8a8ce031da63ed9b0019f4903d09d81ddcdae3c733bf",
  "strippedsize": 216,
  "size": 216,
  "weight": 864,
  "tx": [
    {
      "txid": "064b18911b275422e13573a4618a1f22798b31231e62b28d6c24fe8c90f7c555",
      "hash": "064b18911b275422e13573a4618a1f22798b31231e62b28d6c24fe8c90f7c555",
      "version": 1,
      "size": 135,
      "vsize": 135,
      "weight": 540,
      "locktime": 0,
      "vin": [
        {
          "coinbase": "04ffff001d023503",
          "sequence": 4294967295
        }
      ],
      "vout": [
        {
          "value": 50.0,
          "n": 0,
          "scriptPubKey": {
            "asm": "04fa31ef77cdcbbee6ef56f8ed174f5e145393a81790292367e99fb1d92caa7aaa163dc26a94b4dad8aba10c108792b528c65003490a2a4ab8d936d0f56437b647 OP_CHECKSIG",
            "desc": "pk(04fa31ef77cdcbbee6ef56f8ed174f5e145393a81790292367e99fb1d92caa7aaa163dc26a94b4dad8aba10c108792b528c65003490a2a4ab8d936d0f56437b647)#0xsarnqw",
            "hex": "4104fa31ef77cdcbbee6ef56f8ed174f5e145393a81790292367e99fb1d92caa7aaa163dc26a94b4dad8aba10c108792b528c65003490a2a4ab8d936d0f56437b647ac",
            "type": "pubkey"
          }
        }
      ],
      "hex": "01000000010000000000000000000000000000000000000000000000000000000000000000ffffffff0804ffff001d023503ffffffff0100f2052a01000000434104fa31ef77cdcbbee6ef56f8ed174f5e145393a81790292367e99fb1d92caa7aaa163dc26a94b4dad8aba10c108792b528c65003490a2a4ab8d936d0f56437b647ac00000000"
    }
  ]
}