{
  "hash": "000000007c3fd386028ec46b58517d8a08a719a5874ba5d1ed45c875fe1a0b28",
  "confirmations": 43885,
  "height": 9213,
  "version": 1,
  "versionHex": "00000001",
  "merkleroot": "dc14e7607d95491b1db276aafacd7a2feadc9c92da87c73f310b90bbd34dc93f",
  "time": 1238410512,
  "mediantime": 1238408100,
  "nonce": 2691943170,
  "bits": "1d00ffff",
  "difficulty": 1,
  "chainwork": "000000000000000000000000000000000000000000000000000023fe23fe23fe",
  "nTx": 1,
  "previousblockhash": "00000000802b24d48a01fdfdaffa16c08c269c8df40e34488b29b03b91dc41e6",
  "nextblockhash": "000000002ce859c01fadb6cfdc296ba3aa15dad5b86f1f0693c50b89decc92e1",
  "strippedsize": 215,
  "size": 215,
  "weight": 860,
  "tx": [
    {
      "txid": "dc14e7607d95491b1db276aafacd7a2feadc9c92da87c73f310b90bbd34dc93f",
      "hash": "dc14e7607d95491b1db276aafacd7a2feadc9c92da87c73f310b90bbd34dc93f",
      "version": 1,
      "size": 134,
      "vsize": 134,
      "weight": 536,
      "locktime": 0,
      "vin": [
        {
          "coinbase": "04ffff001d0114",
          "sequence": 4294967295
        }
      ],
      "vout": [
        {
          "value": 50.0,
          "n": 0,
          "scriptPubKey": {
            "asm": "0459d2c711c1ce1614d3b2e469efe591cd2b8801fce2bc494ca0d7f7303144327871876e3abdcf38acbefbfffb5e82036d680727cf7a779d681054aa51af061a38 OP_CHECKSIG",
            "desc": "pk(0459d2c711c1ce1614d3b2e469efe591cd2b8801fce2bc494ca0d7f7303144327871876e3abdcf38acbefbfffb5e82036d680727cf7a779d681054aa51af061a38)#j9l7ddgr",
            "hex": "410459d2c711c1ce1614d3b2e469efe591cd2b8801fce2bc494ca0d7f7303144327871876e3abdcf38acbefbfffb5e82036d680727cf7a779d681054aa51af061a38ac",
            "type": "pubkey"
          }
        }
      ],
      "hex": "01000000010000000000000000000000000000000000000000000000000000000000000000ffffffff0704ffff001d0114ffffffff0100f2052a0100000043410459d2c711c1ce1614d3b2e469efe591cd2b8801fce2bc494ca0d7f7303144327871876e3abdcf38acbefbfffb5e82036d680727cf7a779d681054aa51af061a38ac00000000"
    }
  ]
}