{
  "hash": "000000007e1ac8ccd506621e0bff04bc0af3c3aa16b5be64084eb23779c1d166",
  "confirmations": 51591,
  "height": 1507,
  "version": 1,
  "versionHex": "00000001",
  "merkleroot": "49da0f27aa3e38106f626ec830c3fe6bdeadd5b11a1c8dda239f873208eb5b99",
  "time": 1232771304,
  "mediantime": 1232769322,
  "nonce": 17121664,
  "bits": "1d00ffff",
  "difficulty": 1,
  "chainwork": "000000000000000000000000000000000000000000000000000005e405e405e4",
  "nTx": 1,
  "previousblockhash": "000000009b21280e899a42b1858cd2305835d548926eb7840653e040a536daf4",
  "nextblockhash": "00000000bdfb91e2ff603c06a2487f6b046e23999312a7e68beb164cf5524b6c",
  "strippedsize": 216,
  "size": 216,
  "weight": 864,
  "tx": [
    {
      "txid": "49da0f27aa3e38106f626ec830c3fe6bdeadd5b11a1c8dda239f873208eb5b99",
      "hash": "49da0f27aa3e38106f626ec830c3fe6bdeadd5b11a1c8dda239f873208eb5b99",
      "version": 1,
      "size": 135,
      "vsize": 135,
      "weight": 540,
      "locktime": 0,
      "vin": [
        {
          "coinbase": "04ffff001d02d102",
          "sequence": 4294967295
        }
      ],
      "vout": [
        {
          "value": 50.0,
          "n": 0,
          "scriptPubKey": {
            "asm": "04c24bb6e3627515c06fa053ccef56f56598bdf2ba1f31912e46c528c391717e82ff96e46b30f95b3f3c1351efb07d2a328d2c478e11c5ad8d6b6bd3cb9976b4e6 OP_CHECKSIG",
            "desc": "pk(04c24bb6e3627515c06fa053ccef56f56598bdf2ba1f31912e46c528c391717e82ff96e46b30f95b3f3c1351efb07d2a328d2c478e11c5ad8d6b6bd3cb9976b4e6)#7dxpzjvv",
            "hex": "4104c24bb6e3627515c06fa053ccef56f56598bdf2ba1f31912e46c528c391717e82ff96e46b30f95b3f3c1351efb07d2a328d2c478e11c5ad8d6b6bd3cb9976b4e6ac",
            "type": "pubkey"
          }
        }
      ],
      "hex": "01000000010000000000000000000000000000000000000000000000000000000000000000ffffffff0804ffff001d02d102ffffffff0100f2052a01000000434104c24bb6e3627515c06fa053ccef56f56598bdf2ba1f31912e46c528c391717e82ff96e46b30f95b3f3c1351efb07d2a328d2c478e11c5ad8d6b6bd3cb9976b4e6ac00000000"
    }
  ]
}