{
  "hash": "00000000ca05264d412c34fda1fd2fe2045c9e70b94e65556a6f2477a8444496",
  "confirmations": 44754,
  "height": 8344,
  "version": 1,
  "versionHex": "00000001",
  "merkleroot": "3b005b3d2415bef6fb5a23175411e88600f7232862b483df625bd437d43a464a",
  "time": 1237761362,
  "mediantime": 1237758875,
  "nonce": 1769548087,
  "bits": "1d00ffff",
  "difficulty": 1,
  "chainwork": "0000000000000000000000000000000000000000000000000000209920992099",
  "nTx": 1,
  "previousblockhash": "00000000b55e5adaa9d5a166238486e9863f48766af2877cc9217680c30a8019",
  "nextblockhash": "0000000045a514851ec8e6b56748cc16e43f400a27c4df1dba9c511939b643f7",
  "strippedsize": 216,
  "size": 216,
  "weight": 864,
  "tx": [
    {
      "txid": "3b005b3d2415bef6fb5a23175411e88600f7232862b483df625bd437d43a464a",
      "hash": "3b005b3d2415bef6fb5a23175411e88600f7232862b483df625bd437d43a464a",
      "version": 1,
      "size": 135,
      "vsize": 135,
      "weight": 540,
      "locktime": 0,
      "vin": [
        {
          "coinbase": "04ffff001d02e204",
          "sequence": 4294967295
        }
      ],
      "vout": [
        {
          "value": 50.0,
          "n": 0,
          "scriptPubKey": {
            "asm": "048a02ca6a80f9f4984b7cefb40282fa3a8c7aa2b8b1d4fcc4a5a4a977818217383cb08c7ad6868e435768eefe20ab58b683c6af3adf4d8c6b2989f1786f58875f OP_CHECKSIG",
            "desc": "pk(048a02ca6a80f9f4984b7cefb40282fa3a8c7aa2b8b1d4fcc4a5a4a977818217383cb08c7ad6868e435768eefe20ab58b683c6af3adf4d8c6b2989f1786f58875f)#2e7z6qeg",
            "hex": "41048a02ca6a80f9f4984b7cefb40282fa3a8c7aa2b8b1d4fcc4a5a4a977818217383cb08c7ad6868e435768eefe20ab58b683c6af3adf4d8c6b2989f1786f58875fac",
            "type": "pubkey"
          }
        }
      ],
      "hex": "01000000010000000000000000000000000000000000000000000000000000000000000000ffffffff0804ffff001d02e204ffffffff0100f2052a010000004341048a02ca6a80f9f4984b7cefb40282fa3a8c7aa2b8b1d4fcc4a5a4a977818217383cb08c7ad6868e435768eefe20ab58b683c6af3adf4d8c6b2989f1786f58875fac00000000"
    }
  ]
}