{
  "hash": "00000000c4b151af424176b62bbea5fceb2220916d04c29736c8219b8cc7c0c4",
  "confirmations": 45021,
  "height": 8077,
  "version": 1,
  "versionHex": "00000001",
  "merkleroot": "55a67258bd4d68b0cbc49760a6b0d30527ea759caf17e2f48d1008e225812bf5",
  "time": 1237515179,
  "mediantime": 1237513675,
  "nonce": 188934417,
  "bits": "1d00ffff",
  "difficulty": 1,
  "chainwork": "00000000000000000000000000000000000000000000000000001f8e1f8e1f8e",
  "nTx": 1,
  "previousblockhash": "00000000899d793be03154a7711eb366727ce7391c8d54c69d40aecfc9e675f5",
  "nextblockhash": "00000000812a68cab38022bad2a966e01cce1704ab870bfaa3bcd68df2a86daf",
  "strippedsize": 216,
  "size": 216,
  "weight": 864,
  "tx": [
    {
      "txid": "55a67258bd4d68b0cbc49760a6b0d30527ea759caf17e2f48d1008e225812bf5",
      "hash": "55a67258bd4d68b0cbc49760a6b0d30527ea759caf17e2f48d1008e225812bf5",
      "version": 1,
      "size": 135,
      "vsize": 135,
      "weight": 540,
      "locktime": 0,
      "vin": [
        {
          "coinbase": "04ffff001d029e01",
          "sequence": 4294967295
        }
      ],
      "vout": [
        {
          "value": 50.0,
          "n": 0,
          "scriptPubKey": {
            "asm": "0455e8fe032312f1d64b4fbb858d0755776f7040cde6914f4176855bffe4800940725d4d62f300b6abbf0c9169006a151409278742dc094aff1d6240160b1c1f9e OP_CHECKSIG",
            "desc": "pk(0455e8fe032312f1d64b4fbb858d0755776f7040cde6914f4176855bffe4800940725d4d62f300b6abbf0c9169006a151409278742dc094aff1d6240160b1c1f9e)#vtkdyv59",
            "hex": "410455e8fe032312f1d64b4fbb858d0755776f7040cde6914f4176855bffe4800940725d4d62f300b6abbf0c9169006a151409278742dc094aff1d6240160b1c1f9eac",
            "type": "pubkey"
          }
        }
      ],
      "hex": "01000000010000000000000000000000000000000000000000000000000000000000000000ffffffff0804ffff001d029e01ffffffff0100f2052a0100000043410455e8fe032312f1d64b4fbb858d0755776f7040cde6914f4176855bffe4800940725d4d62f300b6abbf0c9169006a151409278742dc094aff1d6240160b1c1f9eac00000000"
    }
  ]
}