{
  "hash": "000000003e26867afdd61814502ee0873383d89213f7aadd6ddefe8d5c991df4",
  "confirmations": 51372,
  "height": 1726,
  "version": 1,
  "versionHex": "00000001",
  "merkleroot": "e03c5c9f72fef45f126d70931c71a6860c6d8d45d79a30b416aac53db610b2e6",
  "time": 1232862892,
  "mediantime": 1232860485,
  "nonce": 1237857055,
  "bits": "1d00ffff",
  "difficulty": 1,
  "chainwork": "000000000000000000000000000000000000000000000000000006bf06bf06bf",
  "nTx": 1,
  "previousblockhash": "00000000bb391367c0d16a54a7430a98a566ba9b738a49f9876f3c90006f24c2",
  "nextblockhash": "000000000dd72e26537ed7e97d2fe5d0ced050b355cae9550cdb19ddd80dde4c",
  "strippedsize": 216,
  "size": 216,
  "weight": 864,
  "tx": [
    {
      "txid": "e03c5c9f72fef45f126d70931c71a6860c6d8d45d79a30b416aac53db610b2e6",
      "hash": "e03c5c9f72fef45f126d70931c71a6860c6d8d45d79a30b416aac53db610b2e6",
      "version": 1,
      "size": 135,
      "vsize": 135,
      "weight": 540,
      "locktime": 0,
      "vin": [
        {
          "coinbase": "04ffff001d025a03",
          "sequence": 4294967295
        }
      ],
      "vout": [
        {
          "value": 50.0,
          "n": 0,
          "scriptPubKey": {
            "asm": "04516d4f6a89b4b5896f69831d63cf70fdc3b917549225f9cb80e0ead1898d8b3e803b0dc5fef3fb80c38ba90f2f31b565eebbcc359d9d682fd4b8cac1fd5a9bca OP_CHECKSIG",
            "desc": "pk(04516d4f6a89b4b5896f69831d63cf70fdc3b917549225f9cb80e0ead1898d8b3e803b0dc5fef3fb80c38ba90f2f31b565eebbcc359d9d682fd4b8cac1fd5a9bca)#fjfy2m6l",
            "hex": "4104516d4f6a89b4b5896f69831d63cf70fdc3b917549225f9cb80e0ead1898d8b3e803b0dc5fef3fb80c38ba90f2f31b565eebbcc359d9d682fd4b8cac1fd5a9bcaac",
            "type": "pubkey"
          }
        }
      ],
      "hex": "01000000010000000000000000000000000000000000000000000000000000000000000000ffffffff0804ffff001d025a03ffffffff0100f2052a01000000434104516d4f6a89b4b5896f69831d63cf70fdc3b917549225f9cb80e0ead1898d8b3e803b0dc5fef3fb80c38ba90f2f31b565eebbcc359d9d682fd4b8cac1fd5a9bcaac00000000"
    }
  ]
}