{
  "hash": "000000004d05f98e9de57d05c6412fc92d24bc1107a636b3d0e4b6cb33599260",
  "confirmations": 47440,
  "height": 5658,
  "version": 1,
  "versionHex": "00000001",
  "merkleroot": "f2a2484a477ed8c36d7a265f7a736cbb6f43de80bf2bb50a93abbf07e8171edc",
  "time": 1235656031,
  "mediantime": 1235650327,
  "nonce": 1181238315,
  "bits": "1d00ffff",
  "difficulty": 1,
  "chainwork": "0000000000000000000000000000000000000000000000000000161b161b161b",
  "nTx": 1,
  "previousblockhash": "000000004d965280cf9e134acc9df0a18fd562b77500255d9b12f15d98095ab0",
  "nextblockhash": "00000000693d5ae1e426c5dd6a1582c60ce6f85d09884921d5fbbfca5f329632",
  "strippedsize": 216,
  "size": 216,
  "weight": 864,
  "tx": [
    {
      "txid": "f2a2484a477ed8c36d7a265f7a736cbb6f43de80bf2bb50a93abbf07e8171edc",
      "hash": "f2a2484a477ed8c36d7a265f7a736cbb6f43de80bf2bb50a93abbf07e8171edc",
      "version": 1,
      "size": 135,
      "vsize": 135,
      "weight": 540,
      "locktime": 0,
      "vin": [
        {
          "coinbase": "04ffff001d02d108",
          "sequence": 4294967295
        }
      ],
      "vout": [
        {
          "value": 50.0,
          "n": 0,
          "scriptPubKey": {
            "asm": "0458b3ea2047cfd6f05b4e02c4ca80aa4a79a3299e57be2113e2850c47ee37b5fe19c2034919cd9144d16719a8439c4c4695cb3fd9dd178e8d238cd23a3b9a677c OP_CHECKSIG",
            "desc": "pk(0458b3ea2047cfd6f05b4e02c4ca80aa4a79a3299e57be2113e2850c47ee37b5fe19c2034919cd9144d16719a8439c4c4695cb3fd9dd178e8d238cd23a3b9a677c)#z49d4z63",
            "hex": "410458b3ea2047cfd6f05b4e02c4ca80aa4a79a3299e57be2113e2850c47ee37b5fe19c2034919cd9144d16719a8439c4c4695cb3fd9dd178e8d238cd23a3b9a677cac",
            "type": "pubkey"
          }
        }
      ],
      "hex": "01000000010000000000000000000000000000000000000000000000000000000000000000ffffffff0804ffff001d02d108ffffffff0100f2052a0100000043410458b3ea2047cfd6f05b4e02c4ca80aa4a79a3299e57be2113e2850c47ee37b5fe19c2034919cd9144d16719a8439c4c4695cb3fd9dd178e8d238cd23a3b9a677cac00000000"
    }
  ]
}