{
  "hash": "0000000044a5854add7cedd006a413cb5fc06e3b6c4ddf6d149f23c6ebe6422a",
  "confirmations": 45983,
  "height": 7115,
  "version": 1,
  "versionHex": "00000001",
  "merkleroot": "7eacc9daaa2c786db58039796fc6744a3a07da427ba7cb1abe8e96c623bd9c8d",
  "time": 1236809452,
  "mediantime": 1236805653,
  "nonce": 3105589816,
  "bits": "1d00ffff",
  "difficulty": 1,
  "chainwork": "00000000000000000000000000000000000000000000000000001bcc1bcc1bcc",
  "nTx": 1,
  "previousblockhash": "000000004ca6164ff68a48acdfd3b58ac435cccb3accb21a7dd6235df34428e6",
  "nextblockhash": "00000000ba65dbfff54056ce5454b382dca6c64a15e435ffa8a6d1f119d25371",
  "strippedsize": 216,
  "size": 216,
  "weight": 864,
  "tx": [
    {
      "txid": "7eacc9daaa2c786db58039796fc6744a3a07da427ba7cb1abe8e96c623bd9c8d",
      "hash": "7eacc9daaa2c786db58039796fc6744a3a07da427ba7cb1abe8e96c623bd9c8d",
      "version": 1,
      "size": 135,
      "vsize": 135,
      "weight": 540,
      "locktime": 0,
      "vin": [
        {
          "coinbase": "04ffff001d023404",
          "sequence": 4294967295
        }
      ],
      "vout": [
        {
          "value": 50.0,
          "n": 0,
          "scriptPubKey": {
            "asm": "043d812f39744a59f2324c823855446273dd11e3a11f2a064337e03315904b82d067b411ff5b95447114b8a34bc00ef5cb4f85747812f92a2d43653bff8bb9e7f6 OP_CHECKSIG",
            "desc": "pk(043d812f39744a59f2324c823855446273dd11e3a11f2a064337e03315904b82d067b411ff5b95447114b8a34bc00ef5cb4f85747812f92a2d43653bff8bb9e7f6)#7f0ekh57",
            "hex": "41043d812f39744a59f2324c823855446273dd11e3a11f2a064337e03315904b82d067b411ff5b95447114b8a34bc00ef5cb4f85747812f92a2d43653bff8bb9e7f6ac",
            "type": "pubkey"
          }
        }
      ],
      "hex": "01000000010000000000000000000000000000000000000000000000000000000000000000ffffffff0804ffff001d023404ffffffff0100f2052a010000004341043d812f39744a59f2324c823855446273dd11e3a11f2a064337e03315904b82d067b411ff5b95447114b8a34bc00ef5cb4f85747812f92a2d43653bff8bb9e7f6ac00000000"
    }
  ]
}