{
  "hash": "0000000023a952a8335a910a5e492de0df5bf812d29db3bc3fcd2984246f6ecd",
  "confirmations": 50160,
  "height": 2938,
  "version": 1,
  "versionHex": "00000001",
  "merkleroot": "7285da939ef5f19240ad6ca9515c9df6c6f767a77280325ecbbb17da4d06170f",
  "time": 1233715884,
  "mediantime": 1233713090,
  "nonce": 91394870,
  "bits": "1d00ffff",
  "difficulty": 1,
  "chainwork": "00000000000000000000000000000000000000000000000000000b7b0b7b0b7b",
  "nTx": 1,
  "previousblockhash": "00000000c75abddb0e530cf708779071caa59bbc036b6135f12c929c40f5015f",
  "nextblockhash": "0000000009e8ec81ce4d599d67ef1a780230c9db23cc7aec269b08d684a05d76",
  "strippedsize": 216,
  "size": 216,
  "weight": 864,
  "tx": [
    {
      "txid": "7285da939ef5f19240ad6ca9515c9df6c6f767a77280325ecbbb17da4d06170f",
      "hash": "7285da939ef5f19240ad6ca9515c9df6c6f767a77280325ecbbb17da4d06170f",
      "version": 1,
      "size": 135,
      "vsize": 135,
      "weight": 540,
      "locktime": 0,
      "vin": [
        {
          "coinbase": "04ffff001d020604",
          "sequence": 4294967295
        }
      ],
      "vout": [
        {
          "value": 50.0,
          "n": 0,
          "scriptPubKey": {
            "asm": "04c3d448435ad4c00e47b461377a77fbc16a4a94b96002ba06219ca27502fa60175d3970d541d3f1b40f03b6c9c44f48608012e280e8e0e33b39cadda61b09dffd OP_CHECKSIG",
            "desc": "pk(04c3d448435ad4c00e47b461377a77fbc16a4a94b96002ba06219ca27502fa60175d3970d541d3f1b40f03b6c9c44f48608012e280e8e0e33b39cadda61b09dffd)#mrj5ef2g",
            "hex": "4104c3d448435ad4c00e47b461377a77fbc16a4a94b96002ba06219ca27502fa60175d3970d541d3f1b40f03b6c9c44f48608012e280e8e0e33b39cadda61b09dffdac",
            "type": "pubkey"
          }
        }
      ],
      "hex": "01000000010000000000000000000000000000000000000000000000000000000000000000ffffffff0804ffff001d020604ffffffff0100f2052a01000000434104c3d448435ad4c00e47b461377a77fbc16a4a94b96002ba06219ca27502fa60175d3970d541d3f1b40f03b6c9c44f48608012e280e8e0e33b39cadda61b09dffdac00000000"
    }
  ]
}