{
  "hash": "00000000e011735719f2c8980eb2a76d6eab1024ffebe0773c4c1393360a5346",
  "confirmations": 43337,
  "height": 9761,
  "version": 1,
  "versionHex": "00000001",
  "merkleroot": "c3f5903cebd2e8e9f426302e4e7a2a1d978bf8b796e762fed76b68ee52abe0db",
  "time": 1238825814,
  "mediantime": 1238820932,
  "nonce": 3768953859,
  "bits": "1d00ffff",
  "difficulty": 1,
  "chainwork": "0000000000000000000000000000000000000000000000000000262226222622",
  "nTx": 1,
  "previousblockhash": "000000000505e01616ba20af8d1476907f90ebdf9f461170f652c0ef04ec7446",
  "nextblockhash": "0000000021d6c84f61db50efd6ea42c9787b9d53f25f1b7a78154c4a8bd42aa7",
  "strippedsize": 216,
  "size": 216,
  "weight": 864,
  "tx": [
    {
      "txid": "c3f5903cebd2e8e9f426302e4e7a2a1d978bf8b796e762fed76b68ee52abe0db",
      "hash": "c3f5903cebd2e8e9f426302e4e7a2a1d978bf8b796e762fed76b68ee52abe0db",
      "version": 1,
      "size": 135,
      "vsize": 135,
      "weight": 540,
      "locktime": 0,
      "vin": [
        {
          "coinbase": "04ffff001d02000a",
          "sequence": 4294967295
        }
      ],
      "vout": [
        {
          "value": 50.0,
          "n": 0,
          "scriptPubKey": {
            "asm": "044a5838415ff5956967eda3681a4cffd58991709de814bc98346743c15314fb2d99e71bfe4e5571691229262677a10df1428cbdf27a46460b786a775f9c0f2e15 OP_CHECKSIG",
            "desc": "pk(044a5838415ff5956967eda3681a4cffd58991709de814bc98346743c15314fb2d99e71bfe4e5571691229262677a10df1428cbdf27a46460b786a775f9c0f2e15)#jj7v9mgj",
            "hex": "41044a5838415ff5956967eda3681a4cffd58991709de814bc98346743c15314fb2d99e71bfe4e5571691229262677a10df1428cbdf27a46460b786a775f9c0f2e15ac",
            "type": "pubkey"
          }
        }
      ],
      "hex": "01000000010000000000000000000000000000000000000000000000000000000000000000ffffffff0804ffff001d02000affffffff0100f2052a010000004341044a5838415ff5956967eda3681a4cffd58991709de814bc98346743c15314fb2d99e71bfe4e5571691229262677a10df1428cbdf27a46460b786a775f9c0f2e15ac00000000"
    }
  ]
}