{
  "hash": "00000000e8ef29ff44603ced8534398e1b5d9ff169e5f21d0036bbda3542e24a",
  "confirmations": 44570,
  "height": 8528,
  "version": 1,
  "versionHex": "00000001",
  "merkleroot": "fdd4d7236d5dd118d70bf8ba8f0e379bc1d2d5f62ff6205f54764087a165d1d0",
  "time": 1237895792,
  "mediantime": 1237891152,
  "nonce": 2411155994,
  "bits": "1d00ffff",
  "difficulty": 1,
  "chainwork": "0000000000000000000000000000000000000000000000000000215121512151",
  "nTx": 1,
  "previousblockhash": "00000000a4015392c9d042eba109e64e97fc3bb0f6385d7a00f523545004a53f",
  "nextblockhash": "00000000f9f4a155d9b911c01b3ae6f10a02ce3a0aa16946be72dfd5acbb6192",
  "strippedsize": 216,
  "size": 216,
  "weight": 864,
  "tx": [
    {
      "txid": "fdd4d7236d5dd118d70bf8ba8f0e379bc1d2d5f62ff6205f54764087a165d1d0",
      "hash": "fdd4d7236d5dd118d70bf8ba8f0e379bc1d2d5f62ff6205f54764087a165d1d0",
      "version": 1,
      "size": 135,
      "vsize": 135,
      "weight": 540,
      "locktime": 0,
      "vin": [
        {
          "coinbase": "04ffff001d023d08",
          "sequence": 4294967295
        }
      ],
      "vout": [
        {
          "value": 50.0,
          "n": 0,
          "scriptPubKey": {
            "asm": "04c94f0faeb3bec0672a57942c1435b7009a5a2bab5ec06816f197f1b1546e572479b70ea0362d8564c34b60b35828f40d250704f59569dde314c12781019b5ab6 OP_CHECKSIG",
            "desc": "pk(04c94f0faeb3bec0672a57942c1435b7009a5a2bab5ec06816f197f1b1546e572479b70ea0362d8564c34b60b35828f40d250704f59569dde314c12781019b5ab6)#jpuf4cmp",
            "hex": "4104c94f0faeb3bec0672a57942c1435b7009a5a2bab5ec06816f197f1b1546e572479b70ea0362d8564c34b60b35828f40d250704f59569dde314c12781019b5ab6ac",
            "type": "pubkey"
          }
        }
      ],
      "hex": "01000000010000000000000000000000000000000000000000000000000000000000000000ffffffff0804ffff001d023d08ffffffff0100f2052a01000000434104c94f0faeb3bec0672a57942c1435b7009a5a2bab5ec06816f197f1b1546e572479b70ea0362d8564c34b60b35828f40d250704f59569dde314c12781019b5ab6ac00000000"
    }
  ]
}