{
  "hash": "000000002972f1bf450266f458e030b8a07c62f1a90bdf34b90ab02bfff975a5",
  "confirmations": 51706,
  "height": 1392,
  "version": 1,
  "versionHex": "00000001",
  "merkleroot": "38e9bf379f2833222673315d4dd385011ce1e933e7322ac510bf8ac1cc5eaf41",
  "time": 1232697911,
  "mediantime": 1232669186,
  "nonce": 310481602,
  "bits": "1d00ffff",
  "difficulty": 1,
  "chainwork": "0000000000000000000000000000000000000000000000000000057105710571",
  "nTx": 1,
  "previousblockhash": "00000000ffbe97137d327beae4ec8b7d96b1eb961505d6ef1c079b587e136604",
  "nextblockhash": "00000000e5b5336b44848b1fda341c5a925a3db43d3db5c9ed694990a705b462",
  "strippedsize": 215,
  "size": 215,
  "weight": 860,
  "tx": [
    {
      "txid": "38e9bf379f2833222673315d4dd385011ce1e933e7322ac510bf8ac1cc5eaf41",
      "hash": "38e9bf379f2833222673315d4dd385011ce1e933e7322ac510bf8ac1cc5eaf41",
      "version": 1,
      "size": 134,
      "vsize": 134,
      "weight": 536,
      "locktime": 0,
      "vin": [
        {
          "coinbase": "04ffff001d010c",
          "sequence": 4294967295
        }
      ],
      "vout": [
        {
          "value": 50.0,
          "n": 0,
          "scriptPubKey": {
            "asm": "045e5eeeabd11f37afa737149633196911edec00bf015691d8aa70a451c81d6b6215435e8948eeae2aa270934731717976b046aba6c8377602a778e5e49a0acfbf OP_CHECKSIG",
            "desc": "pk(045e5eeeabd11f37afa737149633196911edec00bf015691d8aa70a451c81d6b6215435e8948eeae2aa270934731717976b046aba6c8377602a778e5e49a0acfbf)#c55v375p",
            "hex": "41045e5eeeabd11f37afa737149633196911edec00bf015691d8aa70a451c81d6b6215435e8948eeae2aa270934731717976b046aba6c8377602a778e5e49a0acfbfac",
            "type": "pubkey"
          }
        }
      ],
      "hex": "01000000010000000000000000000000000000000000000000000000000000000000000000ffffffff0704ffff001d010cffffffff0100f2052a010000004341045e5eeeabd11f37afa737149633196911edec00bf015691d8aa70a451c81d6b6215435e8948eeae2aa270934731717976b046aba6c8377602a778e5e49a0acfbfac00000000"
    }
  ]
}