{
  "hash": "00000000b1686525e1ad4669ee2cb8fd28d375af983853727a80015778df47b5",
  "confirmations": 51785,
  "height": 1313,
  "version": 1,
  "versionHex": "00000001",
  "merkleroot": "7900af7e9b84893d840cdf3f5aa04b4fe85325c7d7876f26db92882b35a799ed",
  "time": 1232606990,
  "mediantime": 1232601901,
  "nonce": 4249229363,
  "bits": "1d00ffff",
  "difficulty": 1,
  "chainwork": "0000000000000000000000000000000000000000000000000000052205220522",
  "nTx": 1,
  "previousblockhash": "00000000d328947cdbc1fa7392351a1667120f918c38bd12174d872f7382c1e7",
  "nextblockhash": "00000000f1901f4e95b25791a73dbf3979d2fa3f677d43c71706eb9c451f0836",
  "strippedsize": 215,
  "size": 215,
  "weight": 860,
  "tx": [
    {
      "txid": "7900af7e9b84893d840cdf3f5aa04b4fe85325c7d7876f26db92882b35a799ed",
      "hash": "7900af7e9b84893d840cdf3f5aa04b4fe85325c7d7876f26db92882b35a799ed",
      "version": 1,
      "size": 134,
      "vsize": 134,
      "weight": 536,
      "locktime": 0,
      "vin": [
        {
          "coinbase": "04ffff001d015a",
          "sequence": 4294967295
        }
      ],
      "vout": [
        {
          "value": 50.0,
          "n": 0,
          "scriptPubKey": {
            "asm": "04e5d59ebc22b24261d235c1dd7b96f3e1515d827772935ef06edef30c612c7f5384c712bd086b68c1dfc0e4e15ba8c2d9d6cf8f0467cba4b513736ad7a0a7f70c OP_CHECKSIG",
            "desc": "pk(04e5d59ebc22b24261d235c1dd7b96f3e1515d827772935ef06edef30c612c7f5384c712bd086b68c1dfc0e4e15ba8c2d9d6cf8f0467cba4b513736ad7a0a7f70c)#hzxq4kcp",
            "hex": "4104e5d59ebc22b24261d235c1dd7b96f3e1515d827772935ef06edef30c612c7f5384c712bd086b68c1dfc0e4e15ba8c2d9d6cf8f0467cba4b513736ad7a0a7f70cac",
            "type": "pubkey"
          }
        }
      ],
      "hex": "01000000010000000000000000000000000000000000000000000000000000000000000000ffffffff0704ffff001d015affffffff0100f2052a01000000434104e5d59ebc22b24261d235c1dd7b96f3e1515d827772935ef06edef30c612c7f5384c712bd086b68c1dfc0e4e15ba8c2d9d6cf8f0467cba4b513736ad7a0a7f70cac00000000"
    }
  ]
}