{
  "hash": "0000000023bf2a6b9fdb55a03690eb77a746bb0e95488f18c666c45cf3511720",
  "confirmations": 44394,
  "height": 8704,
  "version": 1,
  "versionHex": "00000001",
  "merkleroot": "35c1e02a5ee331974bb6049f6f975d2319c34721a5453e332e78cbaecba8126c",
  "time": 1238027193,
  "mediantime": 1238023377,
  "nonce": 138651392,
  "bits": "1d00ffff",
  "difficulty": 1,
  "chainwork": "0000000000000000000000000000000000000000000000000000220122012201",
  "nTx": 1,
  "previousblockhash": "00000000aaaa8ffe108ac1aba04f8415014a2d3892f9849b52b30e9726af533f",
  "nextblockhash": "00000000b3a56e88b76616452ba6763eece0756f8ed061dea6b48a96c0e8f35d",
  "strippedsize": 216,
  "size": 216,
  "weight": 864,
  "tx": [
    {
      "txid": "35c1e02a5ee331974bb6049f6f975d2319c34721a5453e332e78cbaecba8126c",
      "hash": "35c1e02a5ee331974bb6049f6f975d2319c34721a5453e332e78cbaecba8126c",
      "version": 1,
      "size": 135,
      "vsize": 135,
      "weight": 540,
      "locktime": 0,
      "vin": [
        {
          "coinbase": "04ffff001d02f500",
          "sequence": 4294967295
        }
      ],
      "vout": [
        {
          "value": 50.0,
          "n": 0,
          "scriptPubKey": {
            "asm": "0492d435f0a574b0ad0305a965a755a47ce0b26f0d65bc056842e57f3e7ba13c892b6aac6afd50634e407ee7049fc0a5d1a729ba35743efc54ea998e0c6155f3e9 OP_CHECKSIG",
            "desc": "pk(0492d435f0a574b0ad0305a965a755a47ce0b26f0d65bc056842e57f3e7ba13c892b6aac6afd50634e407ee7049fc0a5d1a729ba35743efc54ea998e0c6155f3e9)#mlat3zrn",
            "hex": "410492d435f0a574b0ad0305a965a755a47ce0b26f0d65bc056842e57f3e7ba13c892b6aac6afd50634e407ee7049fc0a5d1a729ba35743efc54ea998e0c6155f3e9ac",
            "type": "pubkey"
          }
        }
      ],
      "hex": "01000000010000000000000000000000000000000000000000000000000000000000000000ffffffff0804ffff001d02f500ffffffff0100f2052a0100000043410492d435f0a574b0ad0305a965a755a47ce0b26f0d65bc056842e57f3e7ba13c892b6aac6afd50634e407ee7049fc0a5d1a729ba35743efc54ea998e0c6155f3e9ac00000000"
    }
  ]
}