{
  "hash": "0000000082b71f3338960f989d2c10f14cd737ae56213c59bf9a403bd030bb12",
  "confirmations": 43204,
  "height": 9894,
  "version": 1,
  "versionHex": "00000001",
  "merkleroot": "ef2fb2b5ef8b186f928efd50bb062ee3c4ed987c619d04c5cf80fb068422a3dc",
  "time": 1238919646,
  "mediantime": 1238917169,
  "nonce": 3977942839,
  "bits": "1d00ffff",
  "difficulty": 1,
  "chainwork": "000000000000000000000000000000000000000000000000000026a726a726a7",
  "nTx": 1,
  "previousblockhash": "0000000020d05bebefaa917fc2396feed526bba2b58bc33d0f903f65d3963213",
  "nextblockhash": "0000000099caf17c7189e97eb6aacb451dfa1c97e0b06052ed6c2921630d16ed",
  "strippedsize": 216,
  "size": 216,
  "weight": 864,
  "tx": [
    {
      "txid": "ef2fb2b5ef8b186f928efd50bb062ee3c4ed987c619d04c5cf80fb068422a3dc",
      "hash": "ef2fb2b5ef8b186f928efd50bb062ee3c4ed987c619d04c5cf80fb068422a3dc",
      "version": 1,
      "size": 135,
      "vsize": 135,
      "weight": 540,
      "locktime": 0,
      "vin": [
        {
          "coinbase": "04ffff001d02f701",
          "sequence": 4294967295
        }
      ],
      "vout": [
        {
          "value": 50.0,
          "n": 0,
          "scriptPubKey": {
            "asm": "04521adbeecf0b046abdaddd7f5a24901b25c28785c492753df78dc80cdad2df83d7eac21b74428808cdea4a1347377172f4e337142365b49be0a6cc746e4f2e2f OP_CHECKSIG",
            "desc": "pk(04521adbeecf0b046abdaddd7f5a24901b25c28785c492753df78dc80cdad2df83d7eac21b74428808cdea4a1347377172f4e337142365b49be0a6cc746e4f2e2f)#s7dmdk2e",
            "hex": "4104521adbeecf0b046abdaddd7f5a24901b25c28785c492753df78dc80cdad2df83d7eac21b74428808cdea4a1347377172f4e337142365b49be0a6cc746e4f2e2fac",
            "type": "pubkey"
          }
        }
      ],
      "hex": "01000000010000000000000000000000000000000000000000000000000000000000000000ffffffff0804ffff001d02f701ffffffff0100f2052a01000000434104521adbeecf0b046abdaddd7f5a24901b25c28785c492753df78dc80cdad2df83d7eac21b74428808cdea4a1347377172f4e337142365b49be0a6cc746e4f2e2fac00000000"
    }
  ]
}