{
  "hash": "00000000ac3bf74a7622732573800644b96129de1a634bfa4920c40fe98e6e41",
  "confirmations": 45890,
  "height": 7208,
  "version": 1,
  "versionHex": "00000001",
  "merkleroot": "2bddf467ceb9135ec7b94d9a1d9af76bd6b313d41ed1609ed31cf3690c66eec8",
  "time": 1236876874,
  "mediantime": 1236873359,
  "nonce": 3772372739,
  "bits": "1d00ffff",
  "difficulty": 1,
  "chainwork": "00000000000000000000000000000000000000000000000000001c291c291c29",
  "nTx": 1,
  "previousblockhash": "000000001d6312ccb7e8ec10155832e2215e33c0fc8f2175fb3e1ca6e3467017",
  "nextblockhash": "00000000211fac5a418e2508b80abea0e62b404f3bd67266479e70e2b62679af",
  "strippedsize": 216,
  "size": 216,
  "weight": 864,
  "tx": [
    {
      "txid": "2bddf467ceb9135ec7b94d9a1d9af76bd6b313d41ed1609ed31cf3690c66eec8",
      "hash": "2bddf467ceb9135ec7b94d9a1d9af76bd6b313d41ed1609ed31cf3690c66eec8",
      "version": 1,
      "size": 135,
      "vsize": 135,
      "weight": 540,
      "locktime": 0,
      "vin": [
        {
          "coinbase": "04ffff001d02cf05",
          "sequence": 4294967295
        }
      ],
      "vout": [
        {
          "value": 50.0,
          "n": 0,
          "scriptPubKey": {
            "asm": "04e686a2f05c9ba1d328c320d032fd1b9b3c9340123bab0dff62e02c0c6bde777d22fe524065b49f9d95be44504e1999eb3f9ff175b53ed87d433808365040d3ce OP_CHECKSIG",
            "desc": "pk(04e686a2f05c9ba1d328c320d032fd1b9b3c9340123bab0dff62e02c0c6bde777d22fe524065b49f9d95be44504e1999eb3f9ff175b53ed87d433808365040d3ce)#gw6ss2mg",
            "hex": "4104e686a2f05c9ba1d328c320d032fd1b9b3c9340123bab0dff62e02c0c6bde777d22fe524065b49f9d95be44504e1999eb3f9ff175b53ed87d433808365040d3ceac",
            "type": "pubkey"
          }
        }
      ],
      "hex": "01000000010000000000000000000000000000000000000000000000000000000000000000ffffffff0804ffff001d02cf05ffffffff0100f2052a01000000434104e686a2f05c9ba1d328c320d032fd1b9b3c9340123bab0dff62e02c0c6bde777d22fe524065b49f9d95be44504e1999eb3f9ff175b53ed87d433808365040d3ceac00000000"
    }
  ]
}