{
  "hash": "00000000fd759a966080ea6a163e702740501a6e0745f639056a689eb3e94263",
  "confirmations": 45535,
  "height": 7563,
  "version": 1,
  "versionHex": "00000001",
  "merkleroot": "d7222f4eb7da7d688a16e651e73d66f6fbf4cdbcaa42f57e79326ec379caabde",
  "time": 1237146029,
  "mediantime": 1237143010,
  "nonce": 1427319811,
  "bits": "1d00ffff",
  "difficulty": 1,
  "chainwork": "00000000000000000000000000000000000000000000000000001d8c1d8c1d8c",
  "nTx": 1,
  "previousblockhash": "000000000f95bcb1b522c533da5084cfaa8132b9f8014a4b64b811ca6ec379a4",
  "nextblockhash": "000000009fb6bef410ea5984f830eaf734922a3c7f8793af7d959e9754866d74",
  "strippedsize": 216,
  "size": 216,
  "weight": 864,
  "tx": [
    {
      "txid": "d7222f4eb7da7d688a16e651e73d66f6fbf4cdbcaa42f57e79326ec379caabde",
      "hash": "d7222f4eb7da7d688a16e651e73d66f6fbf4cdbcaa42f57e79326ec379caabde",
      "version": 1,
      "size": 135,
      "vsize": 135,
      "weight": 540,
      "locktime": 0,
      "vin": [
        {
          "coinbase": "04ffff001d021b02",
          "sequence": 4294967295
        }
      ],
      "vout": [
        {
          "value": 50.0,
          "n": 0,
          "scriptPubKey": {
            "asm": "04aa116086cc9547657386ca3db32aba322b7e56c8845712f4813f974904065313145d850b4c22872a8ae73fb1b0dd8534a9195a2a25954d81404951766d44912e OP_CHECKSIG",
            "desc": "pk(04aa116086cc9547657386ca3db32aba322b7e56c8845712f4813f974904065313145d850b4c22872a8ae73fb1b0dd8534a9195a2a25954d81404951766d44912e)#wugfgd86",
            "hex": "4104aa116086cc9547657386ca3db32aba322b7e56c8845712f4813f974904065313145d850b4c22872a8ae73fb1b0dd8534a9195a2a25954d81404951766d44912eac",
            "type": "pubkey"
          }
        }
      ],
      "hex": "01000000010000000000000000000000000000000000000000000000000000000000000000ffffffff0804ffff001d021b02ffffffff0100f2052a01000000434104aa116086cc9547657386ca3db32aba322b7e56c8845712f4813f974904065313145d850b4c22872a8ae73fb1b0dd8534a9195a2a25954d81404951766d44912eac00000000"
    }
  ]
}