{
  "hash": "00000000570833758a30d31d67e8e6fd8c56488173e9a71f4fa7be920b93190c",
  "confirmations": 51664,
  "height": 1434,
  "version": 1,
  "versionHex": "00000001",
  "merkleroot": "baf69e4028faf8bfb5bda229083cc4eb89f2c7ba18726281c757746044f931b5",
  "time": 1232739702,
  "mediantime": 1232736691,
  "nonce": 966746136,
  "bits": "1d00ffff",
  "difficulty": 1,
  "chainwork": "0000000000000000000000000000000000000000000000000000059b059b059b",
  "nTx": 1,
  "previousblockhash": "0000000072c277adb4922170496fe2f181fd6b3c66103f8284e01818374aaf34",
  "nextblockhash": "00000000d90d095ad40666d8ad56af00b8c8b32b39a79301ddd58a35e0176654",
  "strippedsize": 215,
  "size": 215,
  "weight": 860,
  "tx": [
    {
      "txid": "baf69e4028faf8bfb5bda229083cc4eb89f2c7ba18726281c757746044f931b5",
      "hash": "baf69e4028faf8bfb5bda229083cc4eb89f2c7ba18726281c757746044f931b5",
      "version": 1,
      "size": 134,
      "vsize": 134,
      "weight": 536,
      "locktime": 0,
      "vin": [
        {
          "coinbase": "04ffff001d0172",
          "sequence": 4294967295
        }
      ],
      "vout": [
        {
          "value": 50.0,
          "n": 0,
          "scriptPubKey": {
            "asm": "048a4208a1c6c91f7a86295985a00673eda338073e80b2c532470a286b75bbcc39b617d5f2770540e7dc4f50ea2529d68a42b3f9d90e385114865bb3f461138990 OP_CHECKSIG",
            "desc": "pk(048a4208a1c6c91f7a86295985a00673eda338073e80b2c532470a286b75bbcc39b617d5f2770540e7dc4f50ea2529d68a42b3f9d90e385114865bb3f461138990)#m8skds09",
            "hex": "41048a4208a1c6c91f7a86295985a00673eda338073e80b2c532470a286b75bbcc39b617d5f2770540e7dc4f50ea2529d68a42b3f9d90e385114865bb3f461138990ac",
            "type": "pubkey"
          }
        }
      ],
      "hex": "01000000010000000000000000000000000000000000000000000000000000000000000000ffffffff0704ffff001d0172ffffffff0100f2052a010000004341048a4208a1c6c91f7a86295985a00673eda338073e80b2c532470a286b75bbcc39b617d5f2770540e7dc4f50ea2529d68a42b3f9d90e385114865bb3f461138990ac00000000"
    }
  ]
}