{
  "hash": "00000000693d5ae1e426c5dd6a1582c60ce6f85d09884921d5fbbfca5f329632",
  "confirmations": 47439,
  "height": 5659,
  "version": 1,
  "versionHex": "00000001",
  "merkleroot": "4a9365cf9886ca54ee54080269fbf52f204c993965ba9f7b2bf0d7fd8fb5a05c",
  "time": 1235657195,
  "mediantime": 1235651519,
  "nonce": 1697372198,
  "bits": "1d00ffff",
  "difficulty": 1,
  "chainwork": "0000000000000000000000000000000000000000000000000000161c161c161c",
  "nTx": 1,
  "previousblockhash": "000000004d05f98e9de57d05c6412fc92d24bc1107a636b3d0e4b6cb33599260",
  "nextblockhash": "00000000faabb1739a9780e0e6f36f06f83724f28a8766f1a2c9120a4d5e8b47",
  "strippedsize": 216,
  "size": 216,
  "weight": 864,
  "tx": [
    {
      "txid": "4a9365cf9886ca54ee54080269fbf52f204c993965ba9f7b2bf0d7fd8fb5a05c",
      "hash": "4a9365cf9886ca54ee54080269fbf52f204c993965ba9f7b2bf0d7fd8fb5a05c",
      "version": 1,
      "size": 135,
      "vsize": 135,
      "weight": 540,
      "locktime": 0,
      "vin": [
        {
          "coinbase": "04ffff001d02d908",
          "sequence": 4294967295
        }
      ],
      "vout": [
        {
          "value": 50.0,
          "n": 0,
          "scriptPubKey": {
            "asm": "0491212ef0719c642bf1addd0d2b7c3991b6f7febb9b5c1b2abb8afa324764235a525649b894a7d73f3eccfc43776f91f8d07ac08a9fe0fe17731f2f3e67764d19 OP_CHECKSIG",
            "desc": "pk(0491212ef0719c642bf1addd0d2b7c3991b6f7febb9b5c1b2abb8afa324764235a525649b894a7d73f3eccfc43776f91f8d07ac08a9fe0fe17731f2f3e67764d19)#00st7ka8",
            "hex": "410491212ef0719c642bf1addd0d2b7c3991b6f7febb9b5c1b2abb8afa324764235a525649b894a7d73f3eccfc43776f91f8d07ac08a9fe0fe17731f2f3e67764d19ac",
            "type": "pubkey"
          }
        }
      ],
      "hex": "01000000010000000000000000000000000000000000000000000000000000000000000000ffffffff0804ffff001d02d908ffffffff0100f2052a0100000043410491212ef0719c642bf1addd0d2b7c3991b6f7febb9b5c1b2abb8afa324764235a525649b894a7d73f3eccfc43776f91f8d07ac08a9fe0fe17731f2f3e67764d19ac00000000"
    }
  ]
}