{
  "hash": "000000007c95e75e7c10a7bc8cbd2052a7ab406a4b4b804badac953c2e7d7734",
  "confirmations": 44255,
  "height": 8843,
  "version": 1,
  "versionHex": "00000001",
  "merkleroot": "70206dbb91c584f122643fe8cd3c677fa0af5dd07f8e1bad14560a0d890037d0",
  "time": 1238132730,
  "mediantime": 1238127922,
  "nonce": 1627525918,
  "bits": "1d00ffff",
  "difficulty": 1,
  "chainwork": "0000000000000000000000000000000000000000000000000000228c228c228c",
  "nTx": 1,
  "previousblockhash": "00000000ea3e23452149ea3529c3488bbbeee869fe6321c10059531fb25bcaf4",
  "nextblockhash": "0000000091c106e5ece058c8a68ed1d98a9f5c42563b823825e164fcf379f3b4",
  "strippedsize": 216,
  "size": 216,
  "weight": 864,
  "tx": [
    {
      "txid": "70206dbb91c584f122643fe8cd3c677fa0af5dd07f8e1bad14560a0d890037d0",
      "hash": "70206dbb91c584f122643fe8cd3c677fa0af5dd07f8e1bad14560a0d890037d0",
      "version": 1,
      "size": 135,
      "vsize": 135,
      "weight": 540,
      "locktime": 0,
      "vin": [
        {
          "coinbase": "04ffff001d028a03",
          "sequence": 4294967295
        }
      ],
      "vout": [
        {
          "value": 50.0,
          "n": 0,
          "scriptPubKey": {
            "asm": "0415e998370877000d580fe3f433ae2ad458a1e804ccb9193b2b85fa2bbcdcc3d09c6b79f74d3fc3096c74030a36a31b6f764f6dbff49054127f202b74b925d9f7 OP_CHECKSIG",
            "desc": "pk(0415e998370877000d580fe3f433ae2ad458a1e804ccb9193b2b85fa2bbcdcc3d09c6b79f74d3fc3096c74030a36a31b6f764f6dbff49054127f202b74b925d9f7)#wr8khg7r",
            "hex": "410415e998370877000d580fe3f433ae2ad458a1e804ccb9193b2b85fa2bbcdcc3d09c6b79f74d3fc3096c74030a36a31b6f764f6dbff49054127f202b74b925d9f7ac",
            "type": "pubkey"
          }
        }
      ],
      "hex": "01000000010000000000000000000000000000000000000000000000000000000000000000ffffffff0804ffff001d028a03ffffffff0100f2052a0100000043410415e998370877000d580fe3f433ae2ad458a1e804ccb9193b2b85fa2bbcdcc3d09c6b79f74d3fc3096c74030a36a31b6f764f6dbff49054127f202b74b925d9f7ac00000000"
    }
  ]
}