{
  "hash": "00000000d44042e4c6cd061b8bc642eec5a159d1473531161672a1bcab531934",
  "confirmations": 50507,
  "height": 2591,
  "version": 1,
  "versionHex": "00000001",
  "merkleroot": "0caa8cff626f4251e37ab1ddb982450cc0ccefefae5dbd384c5b0818ea37d67a",
  "time": 1233488617,
  "mediantime": 1233483665,
  "nonce": 85464436,
  "bits": "1d00ffff",
  "difficulty": 1,
  "chainwork": "00000000000000000000000000000000000000000000000000000a200a200a20",
  "nTx": 1,
  "previousblockhash": "00000000422b3acec93f5327c7b8735e3a14ad5a56ee6087596af5b489935458",
  "nextblockhash": "0000000040eadecc1b9d7b61730e2cff3f4090af431470b0cce34abe47362c5a",
  "strippedsize": 215,
  "size": 215,
  "weight": 860,
  "tx": [
    {
      "txid": "0caa8cff626f4251e37ab1ddb982450cc0ccefefae5dbd384c5b0818ea37d67a",
      "hash": "0caa8cff626f4251e37ab1ddb982450cc0ccefefae5dbd384c5b0818ea37d67a",
      "version": 1,
      "size": 134,
      "vsize": 134,
      "weight": 536,
      "locktime": 0,
      "vin": [
        {
          "coinbase": "04ffff001d0122",
          "sequence": 4294967295
        }
      ],
      "vout": [
        {
          "value": 50.0,
          "n": 0,
          "scriptPubKey": {
            "asm": "047b24d6a5be35e32d9de5c8c96d2a7f09cfadff9b714f87e0f04d660406ee5e1b0eca16ecd337f503d95d6c482d07706f297e304c451d025303c5a4a008c99b66 OP_CHECKSIG",
            "desc": "pk(047b24d6a5be35e32d9de5c8c96d2a7f09cfadff9b714f87e0f04d660406ee5e1b0eca16ecd337f503d95d6c482d07706f297e304c451d025303c5a4a008c99b66)#wv7jzsjp",
            "hex": "41047b24d6a5be35e32d9de5c8c96d2a7f09cfadff9b714f87e0f04d660406ee5e1b0eca16ecd337f503d95d6c482d07706f297e304c451d025303c5a4a008c99b66ac",
            "type": "pubkey"
          }
        }
      ],
      "hex": "01000000010000000000000000000000000000000000000000000000000000000000000000ffffffff0704ffff001d0122ffffffff0100f2052a010000004341047b24d6a5be35e32d9de5c8c96d2a7f09cfadff9b714f87e0f04d660406ee5e1b0eca16ecd337f503d95d6c482d07706f297e304c451d025303c5a4a008c99b66ac00000000"
    }
  ]
}