{
  "hash": "00000000e6296f1eda44755317774b3e9ab1f585fe39c373d0af59092e79bd80",
  "confirmations": 50890,
  "height": 2208,
  "version": 1,
  "versionHex": "00000001",
  "merkleroot": "59cc35cbe3c9216b8e22b235b8e0459cfc16494b181d36073131e55732f1db0e",
  "time": 1233221099,
  "mediantime": 1233217787,
  "nonce": 737070598,
  "bits": "1d00ffff",
  "difficulty": 1,
  "chainwork": "000000000000000000000000000000000000000000000000000008a108a108a1",
  "nTx": 1,
  "previousblockhash": "00000000960a29c869fc09bae1f2475f2b85710b2070479e1a6c133768916921",
  "nextblockhash": "00000000a82ff3a7a0c609e549688b464d9e60842be1dfefefb4d7ef9af1a9dc",
  "strippedsize": 216,
  "size": 216,
  "weight": 864,
  "tx": [
    {
      "txid": "59cc35cbe3c9216b8e22b235b8e0459cfc16494b181d36073131e55732f1db0e",
      "hash": "59cc35cbe3c9216b8e22b235b8e0459cfc16494b181d36073131e55732f1db0e",
      "version": 1,
      "size": 135,
      "vsize": 135,
      "weight": 540,
      "locktime": 0,
      "vin": [
        {
          "coinbase": "04ffff001d028500",
          "sequence": 4294967295
        }
      ],
      "vout": [
        {
          "value": 50.0,
          "n": 0,
          "scriptPubKey": {
            "asm": "046d57a8d397965e736691558611d747ecbe2aed6d0a9e6740f94a35c9f035697dbaa6a600d60efe84d476368dd660ad9689ce82ac760a9ff6b3970452a3b7c4b6 OP_CHECKSIG",
            "desc": "pk(046d57a8d397965e736691558611d747ecbe2aed6d0a9e6740f94a35c9f035697dbaa6a600d60efe84d476368dd660ad9689ce82ac760a9ff6b3970452a3b7c4b6)#umawks0m",
            "hex": "41046d57a8d397965e736691558611d747ecbe2aed6d0a9e6740f94a35c9f035697dbaa6a600d60efe84d476368dd660ad9689ce82ac760a9ff6b3970452a3b7c4b6ac",
            "type": "pubkey"
          }
        }
      ],
      "hex": "01000000010000000000000000000000000000000000000000000000000000000000000000ffffffff0804ffff001d028500ffffffff0100f2052a010000004341046d57a8d397965e736691558611d747ecbe2aed6d0a9e6740f94a35c9f035697dbaa6a600d60efe84d476368dd660ad9689ce82ac760a9ff6b3970452a3b7c4b6ac00000000"
    }
  ]
}