{
  "hash": "000000008bb80b928343bc65ea33b2c97b722d7b85f0470d32a7519d2b7e5550",
  "confirmations": 52089,
  "height": 1009,
  "version": 1,
  "versionHex": "00000001",
  "merkleroot": "dcfea932a766b5259380e2a23774bacb9640e10c47baa5fd6edf2e0f258945ef",
  "time": 1232355137,
  "mediantime": 1232350152,
  "nonce": 3052918786,
  "bits": "1d00ffff",
  "difficulty": 1,
  "chainwork": "000000000000000000000000000000000000000000000000000003f203f203f2",
  "nTx": 1,
  "previousblockhash": "000000005f7e442c07d918a1f2cd4f594f5e1946c22b06ffd7dfe378f59f70e8",
  "nextblockhash": "0000000074679515061a7e8272f315ca6735ee18105e3d4e867cbc87988e2759",
  "strippedsize": 216,
  "size": 216,
  "weight": 864,
  "tx": [
    {
      "txid": "dcfea932a766b5259380e2a23774bacb9640e10c47baa5fd6edf2e0f258945ef",
      "hash": "dcfea932a766b5259380e2a23774bacb9640e10c47baa5fd6edf2e0f258945ef",
      "version": 1,
      "size": 135,
      "vsize": 135,
      "weight": 540,
      "locktime": 0,
      "vin": [
        {
          "coinbase": "04ffff001d023e05",
          "sequence": 4294967295
        }
      ],
      "vout": [
        {
          "value": 50.0,
          "n": 0,
          "scriptPubKey": {
            "asm": "0433c152bbee7d745c2dee3fb800158599ebf42d4da5af39baf3b7417009a63edc50ac037dd4959d0d3708cb61cb935f3c9f189279dc68a39e2af88fd67eb68556 OP_CHECKSIG",
            "desc": "pk(0433c152bbee7d745c2dee3fb800158599ebf42d4da5af39baf3b7417009a63edc50ac037dd4959d0d3708cb61cb935f3c9f189279dc68a39e2af88fd67eb68556)#hv2c2egn",
            "hex": "410433c152bbee7d745c2dee3fb800158599ebf42d4da5af39baf3b7417009a63edc50ac037dd4959d0d3708cb61cb935f3c9f189279dc68a39e2af88fd67eb68556ac",
            "type": "pubkey"
          }
        }
      ],
      "hex": "01000000010000000000000000000000000000000000000000000000000000000000000000ffffffff0804ffff001d023e05ffffffff0100f2052a0100000043410433c152bbee7d745c2dee3fb800158599ebf42d4da5af39baf3b7417009a63edc50ac037dd4959d0d3708cb61cb935f3c9f189279dc68a39e2af88fd67eb68556ac00000000"
    }
  ]
}