{
  "hash": "000000006a84e1a4de11a647ec02ec0497d6efc09397cd6e89082efd1ec6f7d5",
  "confirmations": 49253,
  "height": 3845,
  "version": 1,
  "versionHex": "00000001",
  "merkleroot": "1dff6908391a40a328283053194489730c81017e76ca05cc74fc523885218d06",
  "time": 1234331205,
  "mediantime": 1234328425,
  "nonce": 19457730,
  "bits": "1d00ffff",
  "difficulty": 1,
  "chainwork": "00000000000000000000000000000000000000000000000000000f060f060f06",
  "nTx": 1,
  "previousblockhash": "00000000864f198de6c67a8ea0a6497bddf32260f1ef38ed2199262b7deb0ff9",
  "nextblockhash": "000000008e021aa6181559cf54fe38706f99a748d40b1ab95a013e56301d42a1",
  "strippedsize": 215,
  "size": 215,
  "weight": 860,
  "tx": [
    {
      "txid": "1dff6908391a40a328283053194489730c81017e76ca05cc74fc523885218d06",
      "hash": "1dff6908391a40a328283053194489730c81017e76ca05cc74fc523885218d06",
      "version": 1,
      "size": 134,
      "vsize": 134,
      "weight": 536,
      "locktime": 0,
      "vin": [
        {
          "coinbase": "04ffff001d0118",
          "sequence": 4294967295
        }
      ],
      "vout": [
        {
          "value": 50.0,
          "n": 0,
          "scriptPubKey": {
            "asm": "04f6934230e8fe477c3fc9e393422b88b94d198fceb7e8bc79aab97609683119d27fadaa1f8bcfeea988a92d4dea903950aaf4c9c33a5ae4e57a97b0590fff49f6 OP_CHECKSIG",
            "desc": "pk(04f6934230e8fe477c3fc9e393422b88b94d198fceb7e8bc79aab97609683119d27fadaa1f8bcfeea988a92d4dea903950aaf4c9c33a5ae4e57a97b0590fff49f6)#qlcvrmnc",
            "hex": "4104f6934230e8fe477c3fc9e393422b88b94d198fceb7e8bc79aab97609683119d27fadaa1f8bcfeea988a92d4dea903950aaf4c9c33a5ae4e57a97b0590fff49f6ac",
            "type": "pubkey"
          }
        }
      ],
      "hex": "01000000010000000000000000000000000000000000000000000000000000000000000000ffffffff0704ffff001d0118ffffffff0100f2052a01000000434104f6934230e8fe477c3fc9e393422b88b94d198fceb7e8bc79aab97609683119d27fadaa1f8bcfeea988a92d4dea903950aaf4c9c33a5ae4e57a97b0590fff49f6ac00000000"
    }
  ]
}