{
  "hash": "00000000d6f0d7cee72dd0f0eb7de68e7daf9e00b09b0fc5ed3d07abeba185a1",
  "confirmations": 50165,
  "height": 2933,
  "version": 1,
  "versionHex": "00000001",
  "merkleroot": "1ab03fcb2193f7bed0a71ea187e5b9565c7fa5a6d7a7d08cf2fff3252d44d2dd",
  "time": 1233713090,
  "mediantime": 1233709520,
  "nonce": 4134031880,
  "bits": "1d00ffff",
  "difficulty": 1,
  "chainwork": "00000000000000000000000000000000000000000000000000000b760b760b76",
  "nTx": 1,
  "previousblockhash": "00000000f1687149c9658dfc89186a4404d3650a5674c3fba114c08f4355fb64",
  "nextblockhash": "0000000073ac184e60c6f799690cc042a8193c60d71c296c2bdcb96348d8c5f7",
  "strippedsize": 215,
  "size": 215,
  "weight": 860,
  "tx": [
    {
      "txid": "1ab03fcb2193f7bed0a71ea187e5b9565c7fa5a6d7a7d08cf2fff3252d44d2dd",
      "hash": "1ab03fcb2193f7bed0a71ea187e5b9565c7fa5a6d7a7d08cf2fff3252d44d2dd",
      "version": 1,
      "size": 134,
      "vsize": 134,
      "weight": 536,
      "locktime": 0,
      "vin": [
        {
          "coinbase": "04ffff001d0147",
          "sequence": 4294967295
        }
      ],
      "vout": [
        {
          "value": 50.0,
          "n": 0,
          "scriptPubKey": {
            "asm": "041585fe0321081479b7a9c3523f13be479c84bf0f580cb5fd498f6bce2b3907cd16ed918e68a85d42b7cd801a58b5600dd713a3fb42cee53a7c4fc9ef2dca2a97 OP_CHECKSIG",
            "desc": "pk(041585fe0321081479b7a9c3523f13be479c84bf0f580cb5fd498f6bce2b3907cd16ed918e68a85d42b7cd801a58b5600dd713a3fb42cee53a7c4fc9ef2dca2a97)#ed25ykp5",
            "hex": "41041585fe0321081479b7a9c3523f13be479c84bf0f580cb5fd498f6bce2b3907cd16ed918e68a85d42b7cd801a58b5600dd713a3fb42cee53a7c4fc9ef2dca2a97ac",
            "type": "pubkey"
          }
        }
      ],
      "hex": "01000000010000000000000000000000000000000000000000000000000000000000000000ffffffff0704ffff001d0147ffffffff0100f2052a010000004341041585fe0321081479b7a9c3523f13be479c84bf0f580cb5fd498f6bce2b3907cd16ed918e68a85d42b7cd801a58b5600dd713a3fb42cee53a7c4fc9ef2dca2a97ac00000000"
    }
  ]
}