{
  "hash": "0000000044e68e335d64826442a08e1ffaad79a9be68ca4e8a5d40b8a648bb34",
  "confirmations": 46831,
  "height": 6267,
  "version": 1,
  "versionHex": "00000001",
  "merkleroot": "9c3a06101da3f81a457f851e0d4bda1d103413dae0b17559b52949c710f95154",
  "time": 1236147368,
  "mediantime": 1236143489,
  "nonce": 177096515,
  "bits": "1d00ffff",
  "difficulty": 1,
  "chainwork": "0000000000000000000000000000000000000000000000000000187c187c187c",
  "nTx": 1,
  "previousblockhash": "00000000db8062ab6a11d1854fb52903c0264308a9d8ea3ec191417cba5e3cb4",
  "nextblockhash": "000000002c1a2986aed5907c096e19ecf3ce132056d178b029bd0cbf273afb95",
  "strippedsize": 216,
  "size": 216,
  "weight": 864,
  "tx": [
    {
      "txid": "9c3a06101da3f81a457f851e0d4bda1d103413dae0b17559b52949c710f95154",
      "hash": "9c3a06101da3f81a457f851e0d4bda1d103413dae0b17559b52949c710f95154",
      "version": 1,
      "size": 135,
      "vsize": 135,
      "weight": 540,
      "locktime": 0,
      "vin": [
        {
          "coinbase": "04ffff001d02420a",
          "sequence": 4294967295
        }
      ],
      "vout": [
        {
          "value": 50.0,
          "n": 0,
          "scriptPubKey": {
            "asm": "04877289c1f147ab22c055d794e321d39905b1a381aab6b653165a5e86ea00b44ac219a41a6c38c9ff6d897ccbaba5777992c17cf9c9b7c4e9239ef39bb37612e0 OP_CHECKSIG",
            "desc": "pk(04877289c1f147ab22c055d794e321d39905b1a381aab6b653165a5e86ea00b44ac219a41a6c38c9ff6d897ccbaba5777992c17cf9c9b7c4e9239ef39bb37612e0)#7s0h2ad5",
            "hex": "4104877289c1f147ab22c055d794e321d39905b1a381aab6b653165a5e86ea00b44ac219a41a6c38c9ff6d897ccbaba5777992c17cf9c9b7c4e9239ef39bb37612e0ac",
            "type": "pubkey"
          }
        }
      ],
      "hex": "01000000010000000000000000000000000000000000000000000000000000000000000000ffffffff0804ffff001d02420affffffff0100f2052a01000000434104877289c1f147ab22c055d794e321d39905b1a381aab6b653165a5e86ea00b44ac219a41a6c38c9ff6d897ccbaba5777992c17cf9c9b7c4e9239ef39bb37612e0ac00000000"
    }
  ]
}