{
  "hash": "000000000e2eac523b558633f6c2cd01de71c7fd67e44b84e564bb49f00007eb",
  "confirmations": 47739,
  "height": 5359,
  "version": 1,
  "versionHex": "00000001",
  "merkleroot": "7769226a682c640e2bb185ca1810b5e7d1abebb61f3538e9b337a50d9bd067d5",
  "time": 1235410283,
  "mediantime": 1235406923,
  "nonce": 3819011860,
  "bits": "1d00ffff",
  "difficulty": 1,
  "chainwork": "000000000000000000000000000000000000000000000000000014f014f014f0",
  "nTx": 1,
  "previousblockhash": "00000000bafabb8a5a07292226a73808b925e55a61b11adda18b62dedae10c55",
  "nextblockhash": "00000000f2e759f2c1f39d4f45c0f3fbb4ad0c79c380823f3e38ed8572c09bad",
  "strippedsize": 216,
  "size": 216,
  "weight": 864,
  "tx": [
    {
      "txid": "7769226a682c640e2bb185ca1810b5e7d1abebb61f3538e9b337a50d9bd067d5",
      "hash": "7769226a682c640e2bb185ca1810b5e7d1abebb61f3538e9b337a50d9bd067d5",
      "version": 1,
      "size": 135,
      "vsize": 135,
      "weight": 540,
      "locktime": 0,
      "vin": [
        {
          "coinbase": "04ffff001d020903",
          "sequence": 4294967295
        }
      ],
      "vout": [
        {
          "value": 50.0,
          "n": 0,
          "scriptPubKey": {
            "asm": "04c1ec2df71db1f140d61f815c54c73e30f4ed02b07d702c6bf21be3bed7528e84ca1f4bb967c61a4eacaeb483b6a07c8831770b0df0d9c0f19051a98ab7d35403 OP_CHECKSIG",
            "desc": "pk(04c1ec2df71db1f140d61f815c54c73e30f4ed02b07d702c6bf21be3bed7528e84ca1f4bb967c61a4eacaeb483b6a07c8831770b0df0d9c0f19051a98ab7d35403)#8vsr6l05",
            "hex": "4104c1ec2df71db1f140d61f815c54c73e30f4ed02b07d702c6bf21be3bed7528e84ca1f4bb967c61a4eacaeb483b6a07c8831770b0df0d9c0f19051a98ab7d35403ac",
            "type": "pubkey"
          }
        }
      ],
      "hex": "01000000010000000000000000000000000000000000000000000000000000000000000000ffffffff0804ffff001d020903ffffffff0100f2052a01000000434104c1ec2df71db1f140d61f815c54c73e30f4ed02b07d702c6bf21be3bed7528e84ca1f4bb967c61a4eacaeb483b6a07c8831770b0df0d9c0f19051a98ab7d35403ac00000000"
    }
  ]
}