{
  "hash": "00000000747689ddda175fd7d4153a8f9066c4fb4c9e8799c302814d1a1b678f",
  "confirmations": 45776,
  "height": 7322,
  "version": 1,
  "versionHex": "00000001",
  "merkleroot": "184b4693b628d89668cb088bc973f1e3f664555c02753c0060bb368e8de1eeac",
  "time": 1236963027,
  "mediantime": 1236961147,
  "nonce": 15175451,
  "bits": "1d00ffff",
  "difficulty": 1,
  "chainwork": "00000000000000000000000000000000000000000000000000001c9b1c9b1c9b",
  "nTx": 1,
  "previousblockhash": "0000000071b1c0b324d78aeba8ba45cf79b02418572c93a66af8ab6b94c9dfbb",
  "nextblockhash": "00000000a14daac133dac89bb7686b49713fdcd784b951afe0863ae6d36944f4",
  "strippedsize": 216,
  "size": 216,
  "weight": 864,
  "tx": [
    {
      "txid": "184b4693b628d89668cb088bc973f1e3f664555c02753c0060bb368e8de1eeac",
      "hash": "184b4693b628d89668cb088bc973f1e3f664555c02753c0060bb368e8de1eeac",
      "version": 1,
      "size": 135,
      "vsize": 135,
      "weight": 540,
      "locktime": 0,
      "vin": [
        {
          "coinbase": "04ffff001d02f602",
          "sequence": 4294967295
        }
      ],
      "vout": [
        {
          "value": 50.0,
          "n": 0,
          "scriptPubKey": {
            "asm": "043e0285acce8b066d3f7b3f780cb4608dc0f53247e2526dfec674cdd26fa00452cbec3da09aaee2bfe03512e680d8f9473edf8e1f1c515e42ce0702c93501a364 OP_CHECKSIG",
            "desc": "pk(043e0285acce8b066d3f7b3f780cb4608dc0f53247e2526dfec674cdd26fa00452cbec3da09aaee2bfe03512e680d8f9473edf8e1f1c515e42ce0702c93501a364)#3h3032nf",
            "hex": "41043e0285acce8b066d3f7b3f780cb4608dc0f53247e2526dfec674cdd26fa00452cbec3da09aaee2bfe03512e680d8f9473edf8e1f1c515e42ce0702c93501a364ac",
            "type": "pubkey"
          }
        }
      ],
      "hex": "01000000010000000000000000000000000000000000000000000000000000000000000000ffffffff0804ffff001d02f602ffffffff0100f2052a010000004341043e0285acce8b066d3f7b3f780cb4608dc0f53247e2526dfec674cdd26fa00452cbec3da09aaee2bfe03512e680d8f9473edf8e1f1c515e42ce0702c93501a364ac00000000"
    }
  ]
}