{
  "hash": "0000000088960278f4060b8747027b2aac0eb443aedbb1b75d1a72cf71826e89",
  "confirmations": 51864,
  "height": 48,
  "version": 1,
  "versionHex": "00000001",
  "merkleroot": "32edede0b7d0c37340a665de057f418df634452f6bb80dcb8a5ff0aeddf1158a",
  "time": 1231613140,
  "mediantime": 1231609477,
  "nonce": 3759171867,
  "bits": "1d00ffff",
  "difficulty": 1,
  "chainwork": "0000000000000000000000000000000000000000000000000000003100310031",
  "nTx": 1,
  "previousblockhash": "000000001a5c4531f86aa874e711e1882038336e2610f70ce750cdd690c57a81",
  "nextblockhash": "00000000f067c09041ff0fcee3d91aeb7fbcc5654d3f766af2b4377aaee68d00",
  "strippedsize": 215,
  "size": 215,
  "weight": 860,
  "tx": [
    {
      "txid": "32edede0b7d0c37340a665de057f418df634452f6bb80dcb8a5ff0aeddf1158a",
      "hash": "32edede0b7d0c37340a665de057f418df634452f6bb80dcb8a5ff0aeddf1158a",
      "version": 1,
      "size": 134,
      "vsize": 134,
      "weight": 536,
      "locktime": 0,
      "vin": [
        {
          "coinbase": "04ffff001d0137",
          "sequence": 4294967295
        }
      ],
      "vout": [
        {
          "value": 50.0,
          "n": 0,
          "scriptPubKey": {
            "asm": "0455f09e54cc544e9f61d0394db1bec90c30ea89c88c554196ebb68e9c8e02c5ea7f3291521dddb44abee835ed376152f04039634ae7af2b5ef2587776348d0b34 OP_CHECKSIG",
            "desc": "pk(0455f09e54cc544e9f61d0394db1bec90c30ea89c88c554196ebb68e9c8e02c5ea7f3291521dddb44abee835ed376152f04039634ae7af2b5ef2587776348d0b34)#npzq67pj",
            "hex": "410455f09e54cc544e9f61d0394db1bec90c30ea89c88c554196ebb68e9c8e02c5ea7f3291521dddb44abee835ed376152f04039634ae7af2b5ef2587776348d0b34ac",
            "type": "pubkey"
          }
        }
      ],
      "hex": "01000000010000000000000000000000000000000000000000000000000000000000000000ffffffff0704ffff001d0137ffffffff0100f2052a0100000043410455f09e54cc544e9f61d0394db1bec90c30ea89c88c554196ebb68e9c8e02c5ea7f3291521dddb44abee835ed376152f04039634ae7af2b5ef2587776348d0b34ac00000000"
    }
  ]
}