{
  "hash": "000000001d1f37e999d5718f097b0b8fe7e3deab7f4fe4f6c555a5f6eb853686",
  "confirmations": 49789,
  "height": 3309,
  "version": 1,
  "versionHex": "00000001",
  "merkleroot": "3e4b316e546bf0b19b6e3c18141ec643f8066ae94938e2cf439d3576f1cfa6a6",
  "time": 1233975266,
  "mediantime": 1233971360,
  "nonce": 3661053481,
  "bits": "1d00ffff",
  "difficulty": 1,
  "chainwork": "00000000000000000000000000000000000000000000000000000cee0cee0cee",
  "nTx": 4,
  "previousblockhash": "00000000b0ff4b60d318d8f104f7221a206059befcffef865826913240bbf25d",
  "nextblockhash": "000000009b086764feb26634176677c819d122a4c706a0cb1af68767edaa59d7",
  "strippedsize": 1462,
  "size": 1462,
  "weight": 5848,
  "tx": [
    {
      "txid": "83dea024facdcc9cbf6d12679ba8f45553f385ac17927f1ceba66cbe8678a53a",
      "hash": "83dea024facdcc9cbf6d12679ba8f45553f385ac17927f1ceba66cbe8678a53a",
      "version": 1,
      "size": 135,
      "vsize": 135,
      "weight": 540,
      "locktime": 0,
      "vin": [
        {
          "coinbase": "04ffff001d026a04",
          "sequence": 4294967295
        }
      ],
      "vout": [
        {
          "value": 50.0,
          "n": 0,
          "scriptPubKey": {
            "asm": "046ee0cccc397a154def4872a747cb409e2bcdc470ab7d364c2665138960068ce54f8e1bcb2e08c3775d2dd3498610cfdcac4eb2779ae65572bfe42d1b04e1a06a OP_CHECKSIG",
            "desc": "pk(046ee0cccc397a154def4872a747cb409e2bcdc470ab7d364c2665138960068ce54f8e1bcb2e08c3775d2dd3498610cfdcac4eb2779ae65572bfe42d1b04e1a06a)#tm8phx27",
            "hex": "41046ee0cccc397a154def4872a747cb409e2bcdc470ab7d364c2665138960068ce54f8e1bcb2e08c3775d2dd3498610cfdcac4eb2779ae65572bfe42d1b04e1a06aac",
            "type": "pubkey"
          }
        }
      ],
      "hex": "01000000010000000000000000000000000000000000000000000000000000000000000000ffffffff0804ffff001d026a04ffffffff0100f2052a010000004341046ee0cccc397a154def4872a747cb409e2bcdc470ab7d364c2665138960068ce54f8e1bcb2e08c3775d2dd3498610cfdcac4eb2779ae65572bfe42d1b04e1a06aac00000000"
    },
    {
      "txid": "3015186be9276f543d8e3e639c16d7627227307aadd2c588d2aa43c98ac2a1b3",
      "hash": "3015186be9276f543d8e3e639c16d7627227307aadd2c588d2aa43c98ac2a1b3",
      "version": 1,
      "size": 429,
      "vsize": 429,
      "weight": 1716,
      "locktime": 0,
      "vin": [
        {
          "txid": "8908c26fe156c326f0b032a47b88b53bb94e64890fbfc1ce40d484fa3839f40d",
          "vout": 0,
          "scriptSig": {
            "asm": "3045022100dc870fd001c3192dbc14a0ddd98cf23aa760ff9923d103c9c2feaf8f2d00bed60220499897a167726d84c064aceb6f9384641368df536886dcbb8106124dfdc8ccde[ALL]",
            "hex": "483045022100dc870fd001c3192dbc14a0ddd98cf23aa760ff9923d103c9c2feaf8f2d00bed60220499897a167726d84c064aceb6f9384641368df536886dcbb8106124dfdc8ccde01"
          },
          "sequence": 4294967295
        },
        {
          "txid": "115f940a1363ca9ab303fdd3fdddb8d6d0d98fbfc013419fc66917b2bded5208",
          "vout": 0,
          "scriptSig": {
            "asm": "3046022100ca1610c6d372e37467671bebe77b722fac72044aef22cc32788d399726aafaa7022100af4677e2f214ecec85b207b99bee9417697a66ded3aa775a99df90157689c5f5[ALL]",
            "hex": "493046022100ca1610c6d372e37467671bebe77b722fac72044aef22cc32788d399726aafaa7022100af4677e2f214ecec85b207b99bee9417697a66ded3aa775a99df90157689c5f501"
          },
          "sequence": 4294967295
        },
        {
          "txid": "cde5906b01c1b4247709d5aff006133fb227a764cd89f8507b5d1114338150f2",
          "vout": 0,
          "scriptSig": {
            "asm": "3045022017ddfc6b146311a5510bf3a00008e25427254e54094646e5549a08b3cba5e836022100c64a8a4a94370a74ec3d9dcddd8d31df37934a9237e64071c10adccacbcb3eea[ALL]",
            "hex": "483045022017ddfc6b146311a5510bf3a00008e25427254e54094646e5549a08b3cba5e836022100c64a8a4a94370a74ec3d9dcddd8d31df37934a9237e64071c10adccacbcb3eea01"
          },
          "sequence": 4294967295
        }
      ],
      "vout": [
        {
          "value": 150.0,
          "n": 0,
          "scriptPubKey": {
            "asm": "04e4072d4a04889ebfdb48165f7cb0ad5fd586690986c5b2297462955f7d0650b93ab666382292438acc94e07570197dcbaed0f4652b17b800f8e25ece51e243bb OP_CHECKSIG",
            "desc": "pk(04e4072d4a04889ebfdb48165f7cb0ad5fd586690986c5b2297462955f7d0650b93ab666382292438acc94e07570197dcbaed0f4652b17b800f8e25ece51e243bb)#8zkmwapk",
            "hex": "4104e4072d4a04889ebfdb48165f7cb0ad5fd586690986c5b2297462955f7d0650b93ab666382292438acc94e07570197dcbaed0f4652b17b800f8e25ece51e243bbac",
            "type": "pubkey"
          }
        }
      ],
      "fee": 0.0,
      "hex": "01000000030df43938fa84d440cec1bf0f89644eb93bb5887ba432b0f026c356e16fc208890000000049483045022100dc870fd001c3192dbc14a0ddd98cf23aa760ff9923d103c9c2feaf8f2d00bed60220499897a167726d84c064aceb6f9384641368df536886dcbb8106124dfdc8ccde01ffffffff0852edbdb21769c69f4113c0bf8fd9d0d6b8ddfdd3fd03b39aca63130a945f11000000004a493046022100ca1610c6d372e37467671bebe77b722fac72044aef22cc32788d399726aafaa7022100af4677e2f214ecec85b207b99bee9417697a66ded3aa775a99df90157689c5f501fffffffff250813314115d7b50f889cd64a727b23f1306f0afd5097724b4c1016b90e5cd0000000049483045022017ddfc6b146311a5510bf3a00008e25427254e54094646e5549a08b3cba5e836022100c64a8a4a94370a74ec3d9dcddd8d31df37934a9237e64071c10adccacbcb3eea01ffffffff0100d6117e03000000434104e4072d4a04889ebfdb48165f7cb0ad5fd586690986c5b2297462955f7d0650b93ab666382292438acc94e07570197dcbaed0f4652b17b800f8e25ece51e243bbac00000000"
    },
    {
      "txid": "d4aef5bf687ad1e45389c353b55a60073247f43a01532b17c90f20afe9963f05",
      "hash": "d4aef5bf687ad1e45389c353b55a60073247f43a01532b17c90f20afe9963f05",
      "version": 1,
      "size": 276,
      "vsize": 276,
      "weight": 1104,
      "locktime": 0,
      "vin": [
        {
          "txid": "063a1cf52736ad06125fbde45aa4d4266e0e1f060f7ef0823350b776373d6bab",
          "vout": 0,
          "scriptSig": {
            "asm": "3045022100c13dd1b09f267747875904da46e91ee241db3196766ab8cde97b64f8062ec9ab022032e6e8c3857ffd12b39672ec507bd014f7bb1eb7c4a0a2bcd919e102a461e437[ALL]",
            "hex": "483045022100c13dd1b09f267747875904da46e91ee241db3196766ab8cde97b64f8062ec9ab022032e6e8c3857ffd12b39672ec507bd014f7bb1eb7c4a0a2bcd919e102a461e43701"
          },
          "sequence": 4294967295
        }
      ],
      "vout": [
        {
          "value": 2.0,
          "n": 0,
          "scriptPubKey": {
            "asm": "0481a24329b0288ff68f1a55f9f89adcc530b83ae06b957b509464afb339c05d663bdcacd6c2e89c097b5069d4c1e8fcd34f003acd6f104d353c57df9cdc9a5ba5 OP_CHECKSIG",
            "desc": "pk(0481a24329b0288ff68f1a55f9f89adcc530b83ae06b957b509464afb339c05d663bdcacd6c2e89c097b5069d4c1e8fcd34f003acd6f104d353c57df9cdc9a5ba5)#mq3sjmh8",
            "hex": "410481a24329b0288ff68f1a55f9f89adcc530b83ae06b957b509464afb339c05d663bdcacd6c2e89c097b5069d4c1e8fcd34f003acd6f104d353c57df9cdc9a5ba5ac",
            "type": "pubkey"
          }
        },
        {
          "value": 48.0,
          "n": 1,
          "scriptPubKey": {
            "asm": "04458c0607bb03ec116a6923d120fb38f9d1a47cbc03a6b9d89e267ccd8667d0ddafd084a8dcc656ef9e1528afa64697fbb1b6efebc97c9e6d45ac9738029ed854 OP_CHECKSIG",
            "desc": "pk(04458c0607bb03ec116a6923d120fb38f9d1a47cbc03a6b9d89e267ccd8667d0ddafd084a8dcc656ef9e1528afa64697fbb1b6efebc97c9e6d45ac9738029ed854)#jws3gl7y",
            "hex": "4104458c0607bb03ec116a6923d120fb38f9d1a47cbc03a6b9d89e267ccd8667d0ddafd084a8dcc656ef9e1528afa64697fbb1b6efebc97c9e6d45ac9738029ed854ac",
            "type": "pubkey"
          }
        }
      ],
      "fee": 0.0,
      "hex": "0100000001ab6b3d3776b7503382f07e0f061f0e6e26d4a45ae4bd5f1206ad3627f51c3a060000000049483045022100c13dd1b09f267747875904da46e91ee241db3196766ab8cde97b64f8062ec9ab022032e6e8c3857ffd12b39672ec507bd014f7bb1eb7c4a0a2bcd919e102a461e43701ffffffff0200c2eb0b0000000043410481a24329b0288ff68f1a55f9f89adcc530b83ae06b957b509464afb339c05d663bdcacd6c2e89c097b5069d4c1e8fcd34f003acd6f104d353c57df9cdc9a5ba5ac00301a1e01000000434104458c0607bb03ec116a6923d120fb38f9d1a47cbc03a6b9d89e267ccd8667d0ddafd084a8dcc656ef9e1528afa64697fbb1b6efebc97c9e6d45ac9738029ed854ac00000000"
    },
    {
      "txid": "ff21c5c13081bf836295237b908fcf0c0c28acbd2149f64cc37efb0025cbea9b",
      "hash": "ff21c5c13081bf836295237b908fcf0c0c28acbd2149f64cc37efb0025cbea9b",
      "version": 1,
      "size": 541,
      "vsize": 541,
      "weight": 2164,
      "locktime": 0,
      "vin": [
        {
          "txid": "d4aef5bf687ad1e45389c353b55a60073247f43a01532b17c90f20afe9963f05",
          "vout": 1,
          "scriptSig": {
            "asm": "3045022100a019b65bb85ac51b42723e26fb6149f00e3d10aa3777e724ac4a5d028298c4f0022057b1fefd17c7f43c2c6f3bda5d4f4b12bbb149662c96f1dbc9278777e8dbd79b[ALL]",
            "hex": "483045022100a019b65bb85ac51b42723e26fb6149f00e3d10aa3777e724ac4a5d028298c4f0022057b1fefd17c7f43c2c6f3bda5d4f4b12bbb149662c96f1dbc9278777e8dbd79b01"
          },
          "sequence": 4294967295
        },
        {
          "txid": "cab2a01292e9a219e57c0e926c9d6d19b78607a2e7e05d6b5beea538abbf6b9e",
          "vout": 0,
          "scriptSig": {
            "asm": "304502206ae9ad76b621cf0922ee0942fdf3ed68856e5b0dbe636e93ddef9e1904f38684022100a2dddd64d12ff3a8a0110ad59f569e6bb19c2e6b57fc425ace9413189d923fc6[ALL]",
            "hex": "48304502206ae9ad76b621cf0922ee0942fdf3ed68856e5b0dbe636e93ddef9e1904f38684022100a2dddd64d12ff3a8a0110ad59f569e6bb19c2e6b57fc425ace9413189d923fc601"
          },
          "sequence": 4294967295
        },
        {
          "txid": "35a2dac86fa759b44f364f3029d51b6b12708cbcbdfa7b109b7b155dad552aa2",
          "vout": 0,
          "scriptSig": {
            "asm": "304402205b09219b8eaa3749a8ac28e535e2520350e019d9a37c5a6b27ed58e4db9cff8402202abf2cbd418ff685ec99d9622ac63789aa148b74f18b1217ffb7093c2c1ae0c9[ALL]",
            "hex": "47304402205b09219b8eaa3749a8ac28e535e2520350e019d9a37c5a6b27ed58e4db9cff8402202abf2cbd418ff685ec99d9622ac63789aa148b74f18b1217ffb7093c2c1ae0c901"
          },
          "sequence": 4294967295
        },
        {
          "txid": "aa89db96e318d4414902e7f906187f923a07edfd9414a83a33841af3873263cc",
          "vout": 0,
          "scriptSig": {
            "asm": "30450221008f52447711362e968223370fed57b83a6e3e121b521654b504aae64dbbab8b72022057121920521e0b1dc5edf7e4470d9fc03717e9f9ba6e43e117f80f8453d42555[ALL]",
            "hex": "4830450221008f52447711362e968223370fed57b83a6e3e121b521654b504aae64dbbab8b72022057121920521e0b1dc5edf7e4470d9fc03717e9f9ba6e43e117f80f8453d4255501"
          },
          "sequence": 4294967295
        }
      ],
      "vout": [
        {
          "value": 198.0,
          "n": 0,
          "scriptPubKey": {
            "asm": "04f1da95d0ce732d89eeed84c51424620ec866ad850051ab8cdd92adc4f688ed061e9aeaaaf39b8105ddcc97a651b1a52f88777599ebbe8ce25e9e705cf90e8861 OP_CHECKSIG",
            "desc": "pk(04f1da95d0ce732d89eeed84c51424620ec866ad850051ab8cdd92adc4f688ed061e9aeaaaf39b8105ddcc97a651b1a52f88777599ebbe8ce25e9e705cf90e8861)#t02p7pf2",
            "hex": "4104f1da95d0ce732d89eeed84c51424620ec866ad850051ab8cdd92adc4f688ed061e9aeaaaf39b8105ddcc97a651b1a52f88777599ebbe8ce25e9e705cf90e8861ac",
            "type": "pubkey"
          }
        }
      ],
      "fee": 0.0,
      "hex": "0100000004053f96e9af200fc9172b53013af4473207605ab553c38953e4d17a68bff5aed40100000049483045022100a019b65bb85ac51b42723e26fb6149f00e3d10aa3777e724ac4a5d028298c4f0022057b1fefd17c7f43c2c6f3bda5d4f4b12bbb149662c96f1dbc9278777e8dbd79b01ffffffff9e6bbfab38a5ee5b6b5de0e7a20786b7196d9d6c920e7ce519a2e99212a0b2ca000000004948304502206ae9ad76b621cf0922ee0942fdf3ed68856e5b0dbe636e93ddef9e1904f38684022100a2dddd64d12ff3a8a0110ad59f569e6bb19c2e6b57fc425ace9413189d923fc601ffffffffa22a55ad5d157b9b107bfabdbc8c70126b1bd529304f364fb459a76fc8daa235000000004847304402205b09219b8eaa3749a8ac28e535e2520350e019d9a37c5a6b27ed58e4db9cff8402202abf2cbd418ff685ec99d9622ac63789aa148b74f18b1217ffb7093c2c1ae0c901ffffffffcc633287f31a84333aa81494fded073a927f1806f9e7024941d418e396db89aa00000000494830450221008f52447711362e968223370fed57b83a6e3e121b521654b504aae64dbbab8b72022057121920521e0b1dc5edf7e4470d9fc03717e9f9ba6e43e117f80f8453d4255501ffffffff0100062c9c04000000434104f1da95d0ce732d89eeed84c51424620ec866ad850051ab8cdd92adc4f688ed061e9aeaaaf39b8105ddcc97a651b1a52f88777599ebbe8ce25e9e705cf90e8861ac00000000"
    }
  ]
}