{
  "hash": "00000000b597abb6793895fe263735d2337b3eba34c78b6e8ccdc6efc8c078a8",
  "confirmations": 47446,
  "height": 5652,
  "version": 1,
  "versionHex": "00000001",
  "merkleroot": "76db83d9c77b1af7cdaea11b9588e548af7cb124ccf5efa6f60eccfabc9308bd",
  "time": 1235649750,
  "mediantime": 1235645333,
  "nonce": 1246194200,
  "bits": "1d00ffff",
  "difficulty": 1,
  "chainwork": "0000000000000000000000000000000000000000000000000000161516151615",
  "nTx": 1,
  "previousblockhash": "00000000a8968a4b2b47660aa9ca625dbcab74bbb5f89af49bcb9148b502455b",
  "nextblockhash": "0000000014a04e29a42928c4c640f51fa022cc822b31fce4f0146bcf60abdbc1",
  "strippedsize": 216,
  "size": 216,
  "weight": 864,
  "tx": [
    {
      "txid": "76db83d9c77b1af7cdaea11b9588e548af7cb124ccf5efa6f60eccfabc9308bd",
      "hash": "76db83d9c77b1af7cdaea11b9588e548af7cb124ccf5efa6f60eccfabc9308bd",
      "version": 1,
      "size": 135,
      "vsize": 135,
      "weight": 540,
      "locktime": 0,
      "vin": [
        {
          "coinbase": "04ffff001d02b308",
          "sequence": 4294967295
        }
      ],
      "vout": [
        {
          "value": 50.0,
          "n": 0,
          "scriptPubKey": {
            "asm": "040642022463a9a7a6389ef00e17eb322e042cd63ea72e1cd8afcd6a65981b208f0e6f50344e5f8ef7bb5bdadb4788b419571c9484950ead480993eba43cecb1ea OP_CHECKSIG",
            "desc": "pk(040642022463a9a7a6389ef00e17eb322e042cd63ea72e1cd8afcd6a65981b208f0e6f50344e5f8ef7bb5bdadb4788b419571c9484950ead480993eba43cecb1ea)#c5ufqkhv",
            "hex": "41040642022463a9a7a6389ef00e17eb322e042cd63ea72e1cd8afcd6a65981b208f0e6f50344e5f8ef7bb5bdadb4788b419571c9484950ead480993eba43cecb1eaac",
            "type": "pubkey"
          }
        }
      ],
      "hex": "01000000010000000000000000000000000000000000000000000000000000000000000000ffffffff0804ffff001d02b308ffffffff0100f2052a010000004341040642022463a9a7a6389ef00e17eb322e042cd63ea72e1cd8afcd6a65981b208f0e6f50344e5f8ef7bb5bdadb4788b419571c9484950ead480993eba43cecb1eaac00000000"
    }
  ]
}