{
  "hash": "00000000749287aad39607403d52f762e613dbbde4e580cdaaa487892b8fa72c",
  "confirmations": 46806,
  "height": 6292,
  "version": 1,
  "versionHex": "00000001",
  "merkleroot": "1a980830e06fa2d47ad6008cb8554a7e1cd17a8e670edf01e1a66e583058a713",
  "time": 1236164431,
  "mediantime": 1236160766,
  "nonce": 3766348308,
  "bits": "1d00ffff",
  "difficulty": 1,
  "chainwork": "0000000000000000000000000000000000000000000000000000189518951895",
  "nTx": 1,
  "previousblockhash": "0000000019de4e5cbe32d0609b7f6499216d1b2b8243085bc0176c58b0db44eb",
  "nextblockhash": "000000002c141c4d6fb5c7830e27dd7d14dc497f2458363abe7d380f2b2acec9",
  "strippedsize": 216,
  "size": 216,
  "weight": 864,
  "tx": [
    {
      "txid": "1a980830e06fa2d47ad6008cb8554a7e1cd17a8e670edf01e1a66e583058a713",
      "hash": "1a980830e06fa2d47ad6008cb8554a7e1cd17a8e670edf01e1a66e583058a713",
      "version": 1,
      "size": 135,
      "vsize": 135,
      "weight": 540,
      "locktime": 0,
      "vin": [
        {
          "coinbase": "04ffff001d02330a",
          "sequence": 4294967295
        }
      ],
      "vout": [
        {
          "value": 50.0,
          "n": 0,
          "scriptPubKey": {
            "asm": "04f47e80448743a65fdc1c0e0ad63808ee50089034d72ab57672d7ff0399be29d8882a79fed193f6c26cb3ea9954110bb751f1daba1aa454daba8da5dce99b7dd1 OP_CHECKSIG",
            "desc": "pk(04f47e80448743a65fdc1c0e0ad63808ee50089034d72ab57672d7ff0399be29d8882a79fed193f6c26cb3ea9954110bb751f1daba1aa454daba8da5dce99b7dd1)#9g3jjqgp",
            "hex": "4104f47e80448743a65fdc1c0e0ad63808ee50089034d72ab57672d7ff0399be29d8882a79fed193f6c26cb3ea9954110bb751f1daba1aa454daba8da5dce99b7dd1ac",
            "type": "pubkey"
          }
        }
      ],
      "hex": "01000000010000000000000000000000000000000000000000000000000000000000000000ffffffff0804ffff001d02330affffffff0100f2052a01000000434104f47e80448743a65fdc1c0e0ad63808ee50089034d72ab57672d7ff0399be29d8882a79fed193f6c26cb3ea9954110bb751f1daba1aa454daba8da5dce99b7dd1ac00000000"
    }
  ]
}