{
  "hash": "000000007eb604956e2f591f9959baf9eaaf6d4eac8f273f5c6cb7c0555444ab",
  "confirmations": 50904,
  "height": 2194,
  "version": 1,
  "versionHex": "00000001",
  "merkleroot": "d4c704af3fbba12a5e04a8c858a86213b9ba96ee6d0c223b408f8c195e6ac97b",
  "time": 1233209937,
  "mediantime": 1233207532,
  "nonce": 2461750804,
  "bits": "1d00ffff",
  "difficulty": 1,
  "chainwork": "0000000000000000000000000000000000000000000000000000089308930893",
  "nTx": 1,
  "previousblockhash": "00000000374a6102801382307c41f9ddb11e089d9a3362a96a84fd849cd51ada",
  "nextblockhash": "0000000014a65a70cefa53205e5fd3523696b11a33abb522ebbc2dfd5542e1c5",
  "strippedsize": 215,
  "size": 215,
  "weight": 860,
  "tx": [
    {
      "txid": "d4c704af3fbba12a5e04a8c858a86213b9ba96ee6d0c223b408f8c195e6ac97b",
      "hash": "d4c704af3fbba12a5e04a8c858a86213b9ba96ee6d0c223b408f8c195e6ac97b",
      "version": 1,
      "size": 134,
      "vsize": 134,
      "weight": 536,
      "locktime": 0,
      "vin": [
        {
          "coinbase": "04ffff001d0134",
          "sequence": 4294967295
        }
      ],
      "vout": [
        {
          "value": 50.0,
          "n": 0,
          "scriptPubKey": {
            "asm": "0439922b7bd8641336728f07cf2807cf35bac4cc53de92b40379726ac29916c4faeccdc07db642fa5227c9fb1185654bc26e05ce4ed7bee950ef81a1cbd033af26 OP_CHECKSIG",
            "desc": "pk(0439922b7bd8641336728f07cf2807cf35bac4cc53de92b40379726ac29916c4faeccdc07db642fa5227c9fb1185654bc26e05ce4ed7bee950ef81a1cbd033af26)#e28ws022",
            "hex": "410439922b7bd8641336728f07cf2807cf35bac4cc53de92b40379726ac29916c4faeccdc07db642fa5227c9fb1185654bc26e05ce4ed7bee950ef81a1cbd033af26ac",
            "type": "pubkey"
          }
        }
      ],
      "hex": "01000000010000000000000000000000000000000000000000000000000000000000000000ffffffff0704ffff001d0134ffffffff0100f2052a0100000043410439922b7bd8641336728f07cf2807cf35bac4cc53de92b40379726ac29916c4faeccdc07db642fa5227c9fb1185654bc26e05ce4ed7bee950ef81a1cbd033af26ac00000000"
    }
  ]
}