{
  "hash": "000000009836981bc8bef855a48ed5c3bc77a4b26fcca29fc636d68815b29184",
  "confirmations": 50729,
  "height": 2369,
  "version": 1,
  "versionHex": "00000001",
  "merkleroot": "e38b63a9340b8e519a0a5b4289540755be15cc76a614ff6423e2e0181a152d57",
  "time": 1233328326,
  "mediantime": 1233324226,
  "nonce": 1396389128,
  "bits": "1d00ffff",
  "difficulty": 1,
  "chainwork": "0000000000000000000000000000000000000000000000000000094209420942",
  "nTx": 1,
  "previousblockhash": "000000000f97c9f5374a4a547bf11639cac076923687f2117afa55050149eece",
  "nextblockhash": "00000000f5c717faadb357dce445bcec4df0bc4bacb28ec8722c39c8f538fe78",
  "strippedsize": 216,
  "size": 216,
  "weight": 864,
  "tx": [
    {
      "txid": "e38b63a9340b8e519a0a5b4289540755be15cc76a614ff6423e2e0181a152d57",
      "hash": "e38b63a9340b8e519a0a5b4289540755be15cc76a614ff6423e2e0181a152d57",
      "version": 1,
      "size": 135,
      "vsize": 135,
      "weight": 540,
      "locktime": 0,
      "vin": [
        {
          "coinbase": "04ffff001d02e902",
          "sequence": 4294967295
        }
      ],
      "vout": [
        {
          "value": 50.0,
          "n": 0,
          "scriptPubKey": {
            "asm": "0401802f44bc4905959514d8fea1b3b57d1ee1921ac89d69449ac7754354f32eae3604b8dfd9c990a4e0f872102739685847f4a88b12701f36d95ed5c4f5ec155d OP_CHECKSIG",
            "desc": "pk(0401802f44bc4905959514d8fea1b3b57d1ee1921ac89d69449ac7754354f32eae3604b8dfd9c990a4e0f872102739685847f4a88b12701f36d95ed5c4f5ec155d)#002hz42q",
            "hex": "410401802f44bc4905959514d8fea1b3b57d1ee1921ac89d69449ac7754354f32eae3604b8dfd9c990a4e0f872102739685847f4a88b12701f36d95ed5c4f5ec155dac",
            "type": "pubkey"
          }
        }
      ],
      "hex": "01000000010000000000000000000000000000000000000000000000000000000000000000ffffffff0804ffff001d02e902ffffffff0100f2052a0100000043410401802f44bc4905959514d8fea1b3b57d1ee1921ac89d69449ac7754354f32eae3604b8dfd9c990a4e0f872102739685847f4a88b12701f36d95ed5c4f5ec155dac00000000"
    }
  ]
}