{
  "hash": "00000000c2f448fe90300b26b9adfe2d2060ae8d46d58b5d2b8435953237ad55",
  "confirmations": 43680,
  "height": 9418,
  "version": 1,
  "versionHex": "00000001",
  "merkleroot": "0f85ebf97dba5c1e640cd7b4225dfa869577109c648af748800c2ed6b63a1b7e",
  "time": 1238566819,
  "mediantime": 1238563307,
  "nonce": 1221620227,
  "bits": "1d00ffff",
  "difficulty": 1,
  "chainwork": "000000000000000000000000000000000000000000000000000024cb24cb24cb",
  "nTx": 1,
  "previousblockhash": "000000001ae61609f1fc79036377ef6f119363175c8eb152ca1c13d115427da5",
  "nextblockhash": "00000000c8d976c960be031128b9e71485c2376b230c73c71af7af6f91b3642d",
  "strippedsize": 216,
  "size": 216,
  "weight": 864,
  "tx": [
    {
      "txid": "0f85ebf97dba5c1e640cd7b4225dfa869577109c648af748800c2ed6b63a1b7e",
      "hash": "0f85ebf97dba5c1e640cd7b4225dfa869577109c648af748800c2ed6b63a1b7e",
      "version": 1,
      "size": 135,
      "vsize": 135,
      "weight": 540,
      "locktime": 0,
      "vin": [
        {
          "coinbase": "04ffff001d02f503",
          "sequence": 4294967295
        }
      ],
      "vout": [
        {
          "value": 50.0,
          "n": 0,
          "scriptPubKey": {
            "asm": "04cbae580571e04bca9b13b9ed88f2c3acec6655d680988fbb93a6838b107d5658b0710d33b1d81a49fabc1510913ff8e00ca689892d0a449a0bafdd23ab99a1f4 OP_CHECKSIG",
            "desc": "pk(04cbae580571e04bca9b13b9ed88f2c3acec6655d680988fbb93a6838b107d5658b0710d33b1d81a49fabc1510913ff8e00ca689892d0a449a0bafdd23ab99a1f4)#0hc8zqe5",
            "hex": "4104cbae580571e04bca9b13b9ed88f2c3acec6655d680988fbb93a6838b107d5658b0710d33b1d81a49fabc1510913ff8e00ca689892d0a449a0bafdd23ab99a1f4ac",
            "type": "pubkey"
          }
        }
      ],
      "hex": "01000000010000000000000000000000000000000000000000000000000000000000000000ffffffff0804ffff001d02f503ffffffff0100f2052a01000000434104cbae580571e04bca9b13b9ed88f2c3acec6655d680988fbb93a6838b107d5658b0710d33b1d81a49fabc1510913ff8e00ca689892d0a449a0bafdd23ab99a1f4ac00000000"
    }
  ]
}