{
  "hash": "000000000280b50dd608624652fd7e42f55b425eaf0f24b38b7816a6fbc65bce",
  "confirmations": 45201,
  "height": 7897,
  "version": 1,
  "versionHex": "00000001",
  "merkleroot": "8469fe84c005e03c2b413060259bbfa2597cb485963a1e8a2401d2be7fff94ac",
  "time": 1237389815,
  "mediantime": 1237384854,
  "nonce": 1932694582,
  "bits": "1d00ffff",
  "difficulty": 1,
  "chainwork": "00000000000000000000000000000000000000000000000000001eda1eda1eda",
  "nTx": 1,
  "previousblockhash": "00000000a8d779d2cfdb8dab67997b995c5ff426d117e6c54a06d785080e66a1",
  "nextblockhash": "000000004be011192200692e4bd803d4963f13a1b221c290fe325c91bc18b4f3",
  "strippedsize": 216,
  "size": 216,
  "weight": 864,
  "tx": [
    {
      "txid": "8469fe84c005e03c2b413060259bbfa2597cb485963a1e8a2401d2be7fff94ac",
      "hash": "8469fe84c005e03c2b413060259bbfa2597cb485963a1e8a2401d2be7fff94ac",
      "version": 1,
      "size": 135,
      "vsize": 135,
      "weight": 540,
      "locktime": 0,
      "vin": [
        {
          "coinbase": "04ffff001d026607",
          "sequence": 4294967295
        }
      ],
      "vout": [
        {
          "value": 50.0,
          "n": 0,
          "scriptPubKey": {
            "asm": "047825e4cc7f5925b28268e217669f7a73c180c0dcc06f614ab130361b93fcec206606cc45fc350afa3733206d6fc77cb62b6017f6c6f22a4674e146012785eaa9 OP_CHECKSIG",
            "desc": "pk(047825e4cc7f5925b28268e217669f7a73c180c0dcc06f614ab130361b93fcec206606cc45fc350afa3733206d6fc77cb62b6017f6c6f22a4674e146012785eaa9)#ckgrezqd",
            "hex": "41047825e4cc7f5925b28268e217669f7a73c180c0dcc06f614ab130361b93fcec206606cc45fc350afa3733206d6fc77cb62b6017f6c6f22a4674e146012785eaa9ac",
            "type": "pubkey"
          }
        }
      ],
      "hex": "01000000010000000000000000000000000000000000000000000000000000000000000000ffffffff0804ffff001d026607ffffffff0100f2052a010000004341047825e4cc7f5925b28268e217669f7a73c180c0dcc06f614ab130361b93fcec206606cc45fc350afa3733206d6fc77cb62b6017f6c6f22a4674e146012785eaa9ac00000000"
    }
  ]
}