{
  "hash": "0000000035bb26acf342953e920830edf91dd193d7e86a4f109652b2d88faed4",
  "confirmations": 50341,
  "height": 2757,
  "version": 1,
  "versionHex": "00000001",
  "merkleroot": "46b92499f6e8e766386fdb19dc29bc7d0df327de1fa8d4ff489295c4a77fa8d0",
  "time": 1233600674,
  "mediantime": 1233597884,
  "nonce": 3161531173,
  "bits": "1d00ffff",
  "difficulty": 1,
  "chainwork": "00000000000000000000000000000000000000000000000000000ac60ac60ac6",
  "nTx": 1,
  "previousblockhash": "0000000073d85338386a00cc94c1d31bc6d91deee32a8cccf188df1b9169ebb0",
  "nextblockhash": "00000000be2b84cab11eb5ec4eaa6f9bd3422327614efe164d4a6b7712511547",
  "strippedsize": 216,
  "size": 216,
  "weight": 864,
  "tx": [
    {
      "txid": "46b92499f6e8e766386fdb19dc29bc7d0df327de1fa8d4ff489295c4a77fa8d0",
      "hash": "46b92499f6e8e766386fdb19dc29bc7d0df327de1fa8d4ff489295c4a77fa8d0",
      "version": 1,
      "size": 135,
      "vsize": 135,
      "weight": 540,
      "locktime": 0,
      "vin": [
        {
          "coinbase": "04ffff001d029705",
          "sequence": 4294967295
        }
      ],
      "vout": [
        {
          "value": 50.0,
          "n": 0,
          "scriptPubKey": {
            "asm": "04fc80f9ae141e1c29c0b69afa8f1b141745293b6c625f66b2d72d592e7d5c06d8928ddd1cebefbda3d115d549823b1770d768194cfec879887d7de8a216913631 OP_CHECKSIG",
            "desc": "pk(04fc80f9ae141e1c29c0b69afa8f1b141745293b6c625f66b2d72d592e7d5c06d8928ddd1cebefbda3d115d549823b1770d768194cfec879887d7de8a216913631)#tl6kszzp",
            "hex": "4104fc80f9ae141e1c29c0b69afa8f1b141745293b6c625f66b2d72d592e7d5c06d8928ddd1cebefbda3d115d549823b1770d768194cfec879887d7de8a216913631ac",
            "type": "pubkey"
          }
        }
      ],
      "hex": "01000000010000000000000000000000000000000000000000000000000000000000000000ffffffff0804ffff001d029705ffffffff0100f2052a01000000434104fc80f9ae141e1c29c0b69afa8f1b141745293b6c625f66b2d72d592e7d5c06d8928ddd1cebefbda3d115d549823b1770d768194cfec879887d7de8a216913631ac00000000"
    }
  ]
}