{
  "hash": "000000008b2cde95da2c8c37affea1854ed3f450172249e2533990dd63a41bcd",
  "confirmations": 47983,
  "height": 5115,
  "version": 1,
  "versionHex": "00000001",
  "merkleroot": "2475a153dd614027ef96183676fde63364080c7bc493031a5b1de47f3283be70",
  "time": 1235227359,
  "mediantime": 1235224053,
  "nonce": 1680401712,
  "bits": "1d00ffff",
  "difficulty": 1,
  "chainwork": "000000000000000000000000000000000000000000000000000013fc13fc13fc",
  "nTx": 1,
  "previousblockhash": "00000000c4eeaa02cf94004eba86b724fe3c47634292a3ae0aa20339f17aae87",
  "nextblockhash": "00000000bb6f3e9f1dc7ea4adb5ddb96269ee74ded0edc64a78176a82a9b842e",
  "strippedsize": 216,
  "size": 216,
  "weight": 864,
  "tx": [
    {
      "txid": "2475a153dd614027ef96183676fde63364080c7bc493031a5b1de47f3283be70",
      "hash": "2475a153dd614027ef96183676fde63364080c7bc493031a5b1de47f3283be70",
      "version": 1,
      "size": 135,
      "vsize": 135,
      "weight": 540,
      "locktime": 0,
      "vin": [
        {
          "coinbase": "04ffff001d024609",
          "sequence": 4294967295
        }
      ],
      "vout": [
        {
          "value": 50.0,
          "n": 0,
          "scriptPubKey": {
            "asm": "048f6e19c5726907c3e25a146118c104eeab98f8b0e0a171653dfb11dc92a42199f1b50db917c7f12275a97201b4fa29f86b7876ba8b516240173d7f1429fb63bb OP_CHECKSIG",
            "desc": "pk(048f6e19c5726907c3e25a146118c104eeab98f8b0e0a171653dfb11dc92a42199f1b50db917c7f12275a97201b4fa29f86b7876ba8b516240173d7f1429fb63bb)#y5jwr5uk",
            "hex": "41048f6e19c5726907c3e25a146118c104eeab98f8b0e0a171653dfb11dc92a42199f1b50db917c7f12275a97201b4fa29f86b7876ba8b516240173d7f1429fb63bbac",
            "type": "pubkey"
          }
        }
      ],
      "hex": "01000000010000000000000000000000000000000000000000000000000000000000000000ffffffff0804ffff001d024609ffffffff0100f2052a010000004341048f6e19c5726907c3e25a146118c104eeab98f8b0e0a171653dfb11dc92a42199f1b50db917c7f12275a97201b4fa29f86b7876ba8b516240173d7f1429fb63bbac00000000"
    }
  ]
}