{
  "hash": "00000000541828a90e98b49c55e8aefd9b27140f9d873ca2a7d1237054b659a2",
  "confirmations": 43850,
  "height": 9248,
  "version": 1,
  "versionHex": "00000001",
  "merkleroot": "49c521ea47b0ce00e96863aea05361c34ffd9cc91240b02ae6a6b963c4b5cdd9",
  "time": 1238433342,
  "mediantime": 1238429446,
  "nonce": 2178952212,
  "bits": "1d00ffff",
  "difficulty": 1,
  "chainwork": "0000000000000000000000000000000000000000000000000000242124212421",
  "nTx": 1,
  "previousblockhash": "00000000382fe8d455a16c7dfc9d8ac31ed6fb6347ad0e4bea4c9faa78abde65",
  "nextblockhash": "00000000842d44ca92a61249883423c2c824f387af268ac1843a6b39bde248d3",
  "strippedsize": 216,
  "size": 216,
  "weight": 864,
  "tx": [
    {
      "txid": "49c521ea47b0ce00e96863aea05361c34ffd9cc91240b02ae6a6b963c4b5cdd9",
      "hash": "49c521ea47b0ce00e96863aea05361c34ffd9cc91240b02ae6a6b963c4b5cdd9",
      "version": 1,
      "size": 135,
      "vsize": 135,
      "weight": 540,
      "locktime": 0,
      "vin": [
        {
          "coinbase": "04ffff001d02ee00",
          "sequence": 4294967295
        }
      ],
      "vout": [
        {
          "value": 50.0,
          "n": 0,
          "scriptPubKey": {
            "asm": "0435f14251e60061e0d63bc290f2fb813764313757233cd557f605c2dadf6def8b7b1816a571da466db774c09a80fb8671260d7086e7d63224d150e78be2072a63 OP_CHECKSIG",
            "desc": "pk(0435f14251e60061e0d63bc290f2fb813764313757233cd557f605c2dadf6def8b7b1816a571da466db774c09a80fb8671260d7086e7d63224d150e78be2072a63)#yv6rsxy9",
            "hex": "410435f14251e60061e0d63bc290f2fb813764313757233cd557f605c2dadf6def8b7b1816a571da466db774c09a80fb8671260d7086e7d63224d150e78be2072a63ac",
            "type": "pubkey"
          }
        }
      ],
      "hex": "01000000010000000000000000000000000000000000000000000000000000000000000000ffffffff0804ffff001d02ee00ffffffff0100f2052a0100000043410435f14251e60061e0d63bc290f2fb813764313757233cd557f605c2dadf6def8b7b1816a571da466db774c09a80fb8671260d7086e7d63224d150e78be2072a63ac00000000"
    }
  ]
}