{
  "hash": "0000000041211665a9770f6d733f221b386238f4c097cd7c373b7f30bd1d625c",
  "confirmations": 49888,
  "height": 3210,
  "version": 1,
  "versionHex": "00000001",
  "merkleroot": "d7496a72c2fffaf2d4f87a7bcb6370a1c89edf2b55d5e6a9e45b9b5acf63d69c",
  "time": 1233907438,
  "mediantime": 1233904572,
  "nonce": 1624071480,
  "bits": "1d00ffff",
  "difficulty": 1,
  "chainwork": "00000000000000000000000000000000000000000000000000000c8b0c8b0c8b",
  "nTx": 1,
  "previousblockhash": "00000000e9eac4f031a1594cd03d8c04d30e6efe46cf9befe52f41f0cf4c41df",
  "nextblockhash": "00000000c66f9f464ef9a4af1be732398c36c28046f77bf727145c71722b85a4",
  "strippedsize": 216,
  "size": 216,
  "weight": 864,
  "tx": [
    {
      "txid": "d7496a72c2fffaf2d4f87a7bcb6370a1c89edf2b55d5e6a9e45b9b5acf63d69c",
      "hash": "d7496a72c2fffaf2d4f87a7bcb6370a1c89edf2b55d5e6a9e45b9b5acf63d69c",
      "version": 1,
      "size": 135,
      "vsize": 135,
      "weight": 540,
      "locktime": 0,
      "vin": [
        {
          "coinbase": "04ffff001d02eb02",
          "sequence": 4294967295
        }
      ],
      "vout": [
        {
          "value": 50.0,
          "n": 0,
          "scriptPubKey": {
            "asm": "046c3f74409ccd17626f66e6e2c8b7ea80f820df58513b9dd596f5f7893f623addb8b9128a06b3aaaddd08f12ba996bdd535b05e3cf41ab98b351fa7463f6e2fe5 OP_CHECKSIG",
            "desc": "pk(046c3f74409ccd17626f66e6e2c8b7ea80f820df58513b9dd596f5f7893f623addb8b9128a06b3aaaddd08f12ba996bdd535b05e3cf41ab98b351fa7463f6e2fe5)#kq9tlxnj",
            "hex": "41046c3f74409ccd17626f66e6e2c8b7ea80f820df58513b9dd596f5f7893f623addb8b9128a06b3aaaddd08f12ba996bdd535b05e3cf41ab98b351fa7463f6e2fe5ac",
            "type": "pubkey"
          }
        }
      ],
      "hex": "01000000010000000000000000000000000000000000000000000000000000000000000000ffffffff0804ffff001d02eb02ffffffff0100f2052a010000004341046c3f74409ccd17626f66e6e2c8b7ea80f820df58513b9dd596f5f7893f623addb8b9128a06b3aaaddd08f12ba996bdd535b05e3cf41ab98b351fa7463f6e2fe5ac00000000"
    }
  ]
}