{
  "hash": "00000000a41fd417f88c0d13b16c5496daee3d25a2d376c9677ab4cc37f4424a",
  "confirmations": 44556,
  "height": 8542,
  "version": 1,
  "versionHex": "00000001",
  "merkleroot": "01275e5ead771dc100f15a5cbbdcbb9273275703b893c95a7e08335fc688e10c",
  "time": 1237905237,
  "mediantime": 1237900804,
  "nonce": 572050980,
  "bits": "1d00ffff",
  "difficulty": 1,
  "chainwork": "0000000000000000000000000000000000000000000000000000215f215f215f",
  "nTx": 1,
  "previousblockhash": "00000000473b084fcbbb758d55663bf61e561da45d31c61cef1daaf74856a81c",
  "nextblockhash": "0000000013a423907c5459c08bf5121dfbcf9e89e3925ecc90a36e8de0fffe48",
  "strippedsize": 216,
  "size": 216,
  "weight": 864,
  "tx": [
    {
      "txid": "01275e5ead771dc100f15a5cbbdcbb9273275703b893c95a7e08335fc688e10c",
      "hash": "01275e5ead771dc100f15a5cbbdcbb9273275703b893c95a7e08335fc688e10c",
      "version": 1,
      "size": 135,
      "vsize": 135,
      "weight": 540,
      "locktime": 0,
      "vin": [
        {
          "coinbase": "04ffff001d028608",
          "sequence": 4294967295
        }
      ],
      "vout": [
        {
          "value": 50.0,
          "n": 0,
          "scriptPubKey": {
            "asm": "0456f79de77a645ecbb821ca66465d1fcf682d247e27b766e53b3df047be674441cfac2e45981a2fa0a15c47f52153337af135b1870bc09c480aae2de3271a4315 OP_CHECKSIG",
            "desc": "pk(0456f79de77a645ecbb821ca66465d1fcf682d247e27b766e53b3df047be674441cfac2e45981a2fa0a15c47f52153337af135b1870bc09c480aae2de3271a4315)#950xua6u",
            "hex": "410456f79de77a645ecbb821ca66465d1fcf682d247e27b766e53b3df047be674441cfac2e45981a2fa0a15c47f52153337af135b1870bc09c480aae2de3271a4315ac",
            "type": "pubkey"
          }
        }
      ],
      "hex": "01000000010000000000000000000000000000000000000000000000000000000000000000ffffffff0804ffff001d028608ffffffff0100f2052a0100000043410456f79de77a645ecbb821ca66465d1fcf682d247e27b766e53b3df047be674441cfac2e45981a2fa0a15c47f52153337af135b1870bc09c480aae2de3271a4315ac00000000"
    }
  ]
}