{
  "hash": "00000000ef594210a5a7902c7b5c399b049ca4233d3450c91cda55adfe2ffd1d",
  "confirmations": 44185,
  "height": 8913,
  "version": 1,
  "versionHex": "00000001",
  "merkleroot": "a671a0e789eb132b0f664f6f34d178a99076d5d45c83ed0cdd4ac6633f63db10",
  "time": 1238189202,
  "mediantime": 1238185820,
  "nonce": 2465949733,
  "bits": "1d00ffff",
  "difficulty": 1,
  "chainwork": "000000000000000000000000000000000000000000000000000022d222d222d2",
  "nTx": 1,
  "previousblockhash": "0000000005f5ec2942da73b6464c4b454f9fc9b0f2fbc5e4dc393efbdedc8180",
  "nextblockhash": "000000008d26f8741d57c63909bd91c452ae62a2a60ce74c0f02b03f0d022917",
  "strippedsize": 216,
  "size": 216,
  "weight": 864,
  "tx": [
    {
      "txid": "a671a0e789eb132b0f664f6f34d178a99076d5d45c83ed0cdd4ac6633f63db10",
      "hash": "a671a0e789eb132b0f664f6f34d178a99076d5d45c83ed0cdd4ac6633f63db10",
      "version": 1,
      "size": 135,
      "vsize": 135,
      "weight": 540,
      "locktime": 0,
      "vin": [
        {
          "coinbase": "04ffff001d02d504",
          "sequence": 4294967295
        }
      ],
      "vout": [
        {
          "value": 50.0,
          "n": 0,
          "scriptPubKey": {
            "asm": "04080a7da54a1b6315c490c704366bc0e8cd9e1936fa76e85e7787673757c7ddc9f7f863ce4ed1c35d8fc9d1c5315be73f90c1a1ce825ff0bf59388e1dc874ae64 OP_CHECKSIG",
            "desc": "pk(04080a7da54a1b6315c490c704366bc0e8cd9e1936fa76e85e7787673757c7ddc9f7f863ce4ed1c35d8fc9d1c5315be73f90c1a1ce825ff0bf59388e1dc874ae64)#dzwrpzma",
            "hex": "4104080a7da54a1b6315c490c704366bc0e8cd9e1936fa76e85e7787673757c7ddc9f7f863ce4ed1c35d8fc9d1c5315be73f90c1a1ce825ff0bf59388e1dc874ae64ac",
            "type": "pubkey"
          }
        }
      ],
      "hex": "01000000010000000000000000000000000000000000000000000000000000000000000000ffffffff0804ffff001d02d504ffffffff0100f2052a01000000434104080a7da54a1b6315c490c704366bc0e8cd9e1936fa76e85e7787673757c7ddc9f7f863ce4ed1c35d8fc9d1c5315be73f90c1a1ce825ff0bf59388e1dc874ae64ac00000000"
    }
  ]
}