{
  "hash": "000000006eadd08ea3948769f170df099a3e1f523d1191cca9ba91e97fa31e59",
  "confirmations": 47684,
  "height": 5414,
  "version": 1,
  "versionHex": "00000001",
  "merkleroot": "31305ca69f30d3c59438a90c294d39b6bd881e70a107ab38db7ded03329f72de",
  "time": 1235450304,
  "mediantime": 1235446406,
  "nonce": 313077277,
  "bits": "1d00ffff",
  "difficulty": 1,
  "chainwork": "0000000000000000000000000000000000000000000000000000152715271527",
  "nTx": 1,
  "previousblockhash": "00000000d392b645badf51c237aa5d2b2b124437fe17e688507fdb98bd2de352",
  "nextblockhash": "000000000157af061fd5db33b6d5144e641162682f33e81d239e4df09d612f53",
  "strippedsize": 216,
  "size": 216,
  "weight": 864,
  "tx": [
    {
      "txid": "31305ca69f30d3c59438a90c294d39b6bd881e70a107ab38db7ded03329f72de",
      "hash": "31305ca69f30d3c59438a90c294d39b6bd881e70a107ab38db7ded03329f72de",
      "version": 1,
      "size": 135,
      "vsize": 135,
      "weight": 540,
      "locktime": 0,
      "vin": [
        {
          "coinbase": "04ffff001d02ce03",
          "sequence": 4294967295
        }
      ],
      "vout": [
        {
          "value": 50.0,
          "n": 0,
          "scriptPubKey": {
            "asm": "04af4828492cd5a7379ea357e393a2f8c55a3ee813b2bd85dec1b3fecb4e0e8cae7eab80afbaafd80cccc597f52a801f19b10a680c717105cfc4ce8831a18e0371 OP_CHECKSIG",
            "desc": "pk(04af4828492cd5a7379ea357e393a2f8c55a3ee813b2bd85dec1b3fecb4e0e8cae7eab80afbaafd80cccc597f52a801f19b10a680c717105cfc4ce8831a18e0371)#pdhequ9s",
            "hex": "4104af4828492cd5a7379ea357e393a2f8c55a3ee813b2bd85dec1b3fecb4e0e8cae7eab80afbaafd80cccc597f52a801f19b10a680c717105cfc4ce8831a18e0371ac",
            "type": "pubkey"
          }
        }
      ],
      "hex": "01000000010000000000000000000000000000000000000000000000000000000000000000ffffffff0804ffff001d02ce03ffffffff0100f2052a01000000434104af4828492cd5a7379ea357e393a2f8c55a3ee813b2bd85dec1b3fecb4e0e8cae7eab80afbaafd80cccc597f52a801f19b10a680c717105cfc4ce8831a18e0371ac00000000"
    }
  ]
}