{
  "hash": "0000000052af552fb616ca24d4d85c1b7faa8d5cf9ca911e87170785c922bea6",
  "confirmations": 51580,
  "height": 1518,
  "version": 1,
  "versionHex": "00000001",
  "merkleroot": "2beba533cac8c13e4aa6e5669ef7da15800cce749ab2723227e78b1a031fd0ab",
  "time": 1232775734,
  "mediantime": 1232773342,
  "nonce": 3914944276,
  "bits": "1d00ffff",
  "difficulty": 1,
  "chainwork": "000000000000000000000000000000000000000000000000000005ef05ef05ef",
  "nTx": 1,
  "previousblockhash": "00000000f27b6762dfa9cad49822ad3a7bbf628efb833eb357f1902010434e19",
  "nextblockhash": "00000000c0bb3a9cb6c02915a21d3ff877043acaa53fc91d8d6092a2f51cec07",
  "strippedsize": 216,
  "size": 216,
  "weight": 864,
  "tx": [
    {
      "txid": "2beba533cac8c13e4aa6e5669ef7da15800cce749ab2723227e78b1a031fd0ab",
      "hash": "2beba533cac8c13e4aa6e5669ef7da15800cce749ab2723227e78b1a031fd0ab",
      "version": 1,
      "size": 135,
      "vsize": 135,
      "weight": 540,
      "locktime": 0,
      "vin": [
        {
          "coinbase": "04ffff001d025101",
          "sequence": 4294967295
        }
      ],
      "vout": [
        {
          "value": 50.0,
          "n": 0,
          "scriptPubKey": {
            "asm": "04a5deea772966bdf0703bd4fa5503f0642e44656a5ecb5d2e8d8cd3755c6fdb73c4b0bc9123ffc56cbc4d1476fa61d822251063fcf08d7f84fbc68654c206b46d OP_CHECKSIG",
            "desc": "pk(04a5deea772966bdf0703bd4fa5503f0642e44656a5ecb5d2e8d8cd3755c6fdb73c4b0bc9123ffc56cbc4d1476fa61d822251063fcf08d7f84fbc68654c206b46d)#de8t06jy",
            "hex": "4104a5deea772966bdf0703bd4fa5503f0642e44656a5ecb5d2e8d8cd3755c6fdb73c4b0bc9123ffc56cbc4d1476fa61d822251063fcf08d7f84fbc68654c206b46dac",
            "type": "pubkey"
          }
        }
      ],
      "hex": "01000000010000000000000000000000000000000000000000000000000000000000000000ffffffff0804ffff001d025101ffffffff0100f2052a01000000434104a5deea772966bdf0703bd4fa5503f0642e44656a5ecb5d2e8d8cd3755c6fdb73c4b0bc9123ffc56cbc4d1476fa61d822251063fcf08d7f84fbc68654c206b46dac00000000"
    }
  ]
}