{
  "hash": "000000001419e5881c5acf071a5b27ff6e473314ead91830ce138d72864a1a04",
  "confirmations": 49356,
  "height": 3742,
  "version": 1,
  "versionHex": "00000001",
  "merkleroot": "90a23544aef2e458c63b41ebd1e149b5d56247c326d43b8f0aa80db189160b3c",
  "time": 1234263314,
  "mediantime": 1234259518,
  "nonce": 679284224,
  "bits": "1d00ffff",
  "difficulty": 1,
  "chainwork": "00000000000000000000000000000000000000000000000000000e9f0e9f0e9f",
  "nTx": 1,
  "previousblockhash": "00000000df01937342f4fa17c4848e31075d6d3df2647885a2483b1c0717ab75",
  "nextblockhash": "000000000a79a13dda9e9edcf7f1dd7b88ef63ca6d4a0383d40c5ad12bf93b29",
  "strippedsize": 215,
  "size": 215,
  "weight": 860,
  "tx": [
    {
      "txid": "90a23544aef2e458c63b41ebd1e149b5d56247c326d43b8f0aa80db189160b3c",
      "hash": "90a23544aef2e458c63b41ebd1e149b5d56247c326d43b8f0aa80db189160b3c",
      "version": 1,
      "size": 134,
      "vsize": 134,
      "weight": 536,
      "locktime": 0,
      "vin": [
        {
          "coinbase": "04ffff001d0177",
          "sequence": 4294967295
        }
      ],
      "vout": [
        {
          "value": 50.0,
          "n": 0,
          "scriptPubKey": {
            "asm": "0464720bb50cc3be1e2f3103ec53b42ffa4f1b07d51010fa8bace5a913e65f359830a4826c71e9f7b2f1ed7ad1b71de63d329737b8293a6d12f09864bf95ed329e OP_CHECKSIG",
            "desc": "pk(0464720bb50cc3be1e2f3103ec53b42ffa4f1b07d51010fa8bace5a913e65f359830a4826c71e9f7b2f1ed7ad1b71de63d329737b8293a6d12f09864bf95ed329e)#0mllu5mx",
            "hex": "410464720bb50cc3be1e2f3103ec53b42ffa4f1b07d51010fa8bace5a913e65f359830a4826c71e9f7b2f1ed7ad1b71de63d329737b8293a6d12f09864bf95ed329eac",
            "type": "pubkey"
          }
        }
      ],
      "hex": "01000000010000000000000000000000000000000000000000000000000000000000000000ffffffff0704ffff001d0177ffffffff0100f2052a0100000043410464720bb50cc3be1e2f3103ec53b42ffa4f1b07d51010fa8bace5a913e65f359830a4826c71e9f7b2f1ed7ad1b71de63d329737b8293a6d12f09864bf95ed329eac00000000"
    }
  ]
}