{
  "hash": "00000000197fab9874dc712a61ca3a9544c9919e299d030851c978bab2dcb4e3",
  "confirmations": 52012,
  "height": 326,
  "version": 1,
  "versionHex": "00000001",
  "merkleroot": "cf0ce82b3cacec1b56c157dc432c234a765cf47e6284bffd930bf50964728b16",
  "time": 1231850712,
  "mediantime": 1231846990,
  "nonce": 3865518887,
  "bits": "1d00ffff",
  "difficulty": 1,
  "chainwork": "0000000000000000000000000000000000000000000000000000014701470147",
  "nTx": 1,
  "previousblockhash": "00000000b4e2799499c9e64dfbe13fc772be5e9c1eb284eac1b501710fb48ccb",
  "nextblockhash": "00000000704779006e444bbfb928cd324da7c62685e7b4f120301e3ad59be0da",
  "strippedsize": 216,
  "size": 216,
  "weight": 864,
  "tx": [
    {
      "txid": "cf0ce82b3cacec1b56c157dc432c234a765cf47e6284bffd930bf50964728b16",
      "hash": "cf0ce82b3cacec1b56c157dc432c234a765cf47e6284bffd930bf50964728b16",
      "version": 1,
      "size": 135,
      "vsize": 135,
      "weight": 540,
      "locktime": 0,
      "vin": [
        {
          "coinbase": "04ffff001d02f600",
          "sequence": 4294967295
        }
      ],
      "vout": [
        {
          "value": 50.0,
          "n": 0,
          "scriptPubKey": {
            "asm": "041b45c61f70088883b1d54e3de8247e6acc731029599ff04be28fd0afca12ff7807049d433b48e3da1db42f4293bb8e1efda4b6d276588bc598f0abcd2f757c48 OP_CHECKSIG",
            "desc": "pk(041b45c61f70088883b1d54e3de8247e6acc731029599ff04be28fd0afca12ff7807049d433b48e3da1db42f4293bb8e1efda4b6d276588bc598f0abcd2f757c48)#20p6wduh",
            "hex": "41041b45c61f70088883b1d54e3de8247e6acc731029599ff04be28fd0afca12ff7807049d433b48e3da1db42f4293bb8e1efda4b6d276588bc598f0abcd2f757c48ac",
            "type": "pubkey"
          }
        }
      ],
      "hex": "01000000010000000000000000000000000000000000000000000000000000000000000000ffffffff0804ffff001d02f600ffffffff0100f2052a010000004341041b45c61f70088883b1d54e3de8247e6acc731029599ff04be28fd0afca12ff7807049d433b48e3da1db42f4293bb8e1efda4b6d276588bc598f0abcd2f757c48ac00000000"
    }
  ]
}