{
  "hash": "0000000075a8cbe4025124942a0b1303bca931025fb733fa7f6203506afcd81f",
  "confirmations": 44581,
  "height": 8517,
  "version": 1,
  "versionHex": "00000001",
  "merkleroot": "c52da2669f81042fd5896d0dabc9e5d3ef3a58f8edbe50b7087a51be33a23636",
  "time": 1237884617,
  "mediantime": 1237880974,
  "nonce": 281915644,
  "bits": "1d00ffff",
  "difficulty": 1,
  "chainwork": "0000000000000000000000000000000000000000000000000000214621462146",
  "nTx": 1,
  "previousblockhash": "00000000e46010d660e4bd1b5f4696bf5ceb2763aad2809fd22169e582ff1bb2",
  "nextblockhash": "000000002d0648fdbeb50122f8db286c6748d9ec3b2cef903044c89d15c25f89",
  "strippedsize": 216,
  "size": 216,
  "weight": 864,
  "tx": [
    {
      "txid": "c52da2669f81042fd5896d0dabc9e5d3ef3a58f8edbe50b7087a51be33a23636",
      "hash": "c52da2669f81042fd5896d0dabc9e5d3ef3a58f8edbe50b7087a51be33a23636",
      "version": 1,
      "size": 135,
      "vsize": 135,
      "weight": 540,
      "locktime": 0,
      "vin": [
        {
          "coinbase": "04ffff001d020c02",
          "sequence": 4294967295
        }
      ],
      "vout": [
        {
          "value": 50.0,
          "n": 0,
          "scriptPubKey": {
            "asm": "04d2a02894ee2022726e4d854edba739a97793c0dedca2355b764106034d79bbdeabd4403507f5a8aa7a13554e2f072b575594bebc635bf3c210aed9f9ef2b52ad OP_CHECKSIG",
            "desc": "pk(04d2a02894ee2022726e4d854edba739a97793c0dedca2355b764106034d79bbdeabd4403507f5a8aa7a13554e2f072b575594bebc635bf3c210aed9f9ef2b52ad)#dnrr0yhj",
            "hex": "4104d2a02894ee2022726e4d854edba739a97793c0dedca2355b764106034d79bbdeabd4403507f5a8aa7a13554e2f072b575594bebc635bf3c210aed9f9ef2b52adac",
            "type": "pubkey"
          }
        }
      ],
      "hex": "01000000010000000000000000000000000000000000000000000000000000000000000000ffffffff0804ffff001d020c02ffffffff0100f2052a01000000434104d2a02894ee2022726e4d854edba739a97793c0dedca2355b764106034d79bbdeabd4403507f5a8aa7a13554e2f072b575594bebc635bf3c210aed9f9ef2b52adac00000000"
    }
  ]
}