{
  "hash": "000000007c0b9e3b8c9ca8e7d46248818118358245d3d248c4c9a73367e1785e",
  "confirmations": 47341,
  "height": 5757,
  "version": 1,
  "versionHex": "00000001",
  "merkleroot": "82fc79d3bf2858bbab1e71401a23b1039a91f3193e09c0367bc9af47f42c9b06",
  "time": 1235728613,
  "mediantime": 1235725673,
  "nonce": 1924091941,
  "bits": "1d00ffff",
  "difficulty": 1,
  "chainwork": "0000000000000000000000000000000000000000000000000000167e167e167e",
  "nTx": 1,
  "previousblockhash": "000000003e29a641e28e89ce938218a110f2a7f4ffed60c7b6c4634315755a36",
  "nextblockhash": "0000000015762864c8786d5a9d1917cf003c60eec9aa620d7485bc2abb1e5ac8",
  "strippedsize": 215,
  "size": 215,
  "weight": 860,
  "tx": [
    {
      "txid": "82fc79d3bf2858bbab1e71401a23b1039a91f3193e09c0367bc9af47f42c9b06",
      "hash": "82fc79d3bf2858bbab1e71401a23b1039a91f3193e09c0367bc9af47f42c9b06",
      "version": 1,
      "size": 134,
      "vsize": 134,
      "weight": 536,
      "locktime": 0,
      "vin": [
        {
          "coinbase": "04ffff001d0120",
          "sequence": 4294967295
        }
      ],
      "vout": [
        {
          "value": 50.0,
          "n": 0,
          "scriptPubKey": {
            "asm": "04a2687419d28afc9a6d99f465b902253f4d78688de3b980cee16f436b4bcb46491dcb090cc7f8c8f8cd9276a49c8b92ad53da1162657e49eb1c6ea0170a0a6646 OP_CHECKSIG",
            "desc": "pk(04a2687419d28afc9a6d99f465b902253f4d78688de3b980cee16f436b4bcb46491dcb090cc7f8c8f8cd9276a49c8b92ad53da1162657e49eb1c6ea0170a0a6646)#6yv9w2fn",
            "hex": "4104a2687419d28afc9a6d99f465b902253f4d78688de3b980cee16f436b4bcb46491dcb090cc7f8c8f8cd9276a49c8b92ad53da1162657e49eb1c6ea0170a0a6646ac",
            "type": "pubkey"
          }
        }
      ],
      "hex": "01000000010000000000000000000000000000000000000000000000000000000000000000ffffffff0704ffff001d0120ffffffff0100f2052a01000000434104a2687419d28afc9a6d99f465b902253f4d78688de3b980cee16f436b4bcb46491dcb090cc7f8c8f8cd9276a49c8b92ad53da1162657e49eb1c6ea0170a0a6646ac00000000"
    }
  ]
}