{
  "hash": "00000000555b7f7c0400d762e8665126d47dc6d23a9bf785e836c7997295da36",
  "confirmations": 51379,
  "height": 1719,
  "version": 1,
  "versionHex": "00000001",
  "merkleroot": "dd25d20d162488ad354e203461317380474cfdf51dfe51c83661ed04d4d32af2",
  "time": 1232860046,
  "mediantime": 1232858509,
  "nonce": 3378048534,
  "bits": "1d00ffff",
  "difficulty": 1,
  "chainwork": "000000000000000000000000000000000000000000000000000006b806b806b8",
  "nTx": 1,
  "previousblockhash": "000000003a2c245fd89ff480959cdd0a1b6a554dacd4d648efa763b6d69489e4",
  "nextblockhash": "00000000349ece8e0646fff3b5d97166f2331177bbb693111ed51fd9ba1d7886",
  "strippedsize": 216,
  "size": 216,
  "weight": 864,
  "tx": [
    {
      "txid": "dd25d20d162488ad354e203461317380474cfdf51dfe51c83661ed04d4d32af2",
      "hash": "dd25d20d162488ad354e203461317380474cfdf51dfe51c83661ed04d4d32af2",
      "version": 1,
      "size": 135,
      "vsize": 135,
      "weight": 540,
      "locktime": 0,
      "vin": [
        {
          "coinbase": "04ffff001d025103",
          "sequence": 4294967295
        }
      ],
      "vout": [
        {
          "value": 50.0,
          "n": 0,
          "scriptPubKey": {
            "asm": "04c1ebc3de9f29b02c4aefebc33ad3ee62a994c621940cbab4b2b12f2daa301b192bcca9a3f333121cf3b8f46f3e2fbc4cbfa105f7c3b6bf9c60fba1c475f494e7 OP_CHECKSIG",
            "desc": "pk(04c1ebc3de9f29b02c4aefebc33ad3ee62a994c621940cbab4b2b12f2daa301b192bcca9a3f333121cf3b8f46f3e2fbc4cbfa105f7c3b6bf9c60fba1c475f494e7)#v4van9v7",
            "hex": "4104c1ebc3de9f29b02c4aefebc33ad3ee62a994c621940cbab4b2b12f2daa301b192bcca9a3f333121cf3b8f46f3e2fbc4cbfa105f7c3b6bf9c60fba1c475f494e7ac",
            "type": "pubkey"
          }
        }
      ],
      "hex": "01000000010000000000000000000000000000000000000000000000000000000000000000ffffffff0804ffff001d025103ffffffff0100f2052a01000000434104c1ebc3de9f29b02c4aefebc33ad3ee62a994c621940cbab4b2b12f2daa301b192bcca9a3f333121cf3b8f46f3e2fbc4cbfa105f7c3b6bf9c60fba1c475f494e7ac00000000"
    }
  ]
}