{
  "hash": "0000000033dbde75bb161359a3ea82c5c85311c8fc5e0bd8dd804a1423d575e9",
  "confirmations": 50325,
  "height": 2773,
  "version": 1,
  "versionHex": "00000001",
  "merkleroot": "5fd782ef6bd38bcd263d5f26e35f31c4c01f75a22cbd6bd13a5db10f924f9ac1",
  "time": 1233611980,
  "mediantime": 1233608273,
  "nonce": 1391322658,
  "bits": "1d00ffff",
  "difficulty": 1,
  "chainwork": "00000000000000000000000000000000000000000000000000000ad60ad60ad6",
  "nTx": 1,
  "previousblockhash": "0000000027dbb87e7e07027c9984ac28b62c8875faa993611b391b9115603c71",
  "nextblockhash": "000000000db135a4809f3a7f75c7fe5c72594d928eff19bb8cfe4b1d2d29073f",
  "strippedsize": 216,
  "size": 216,
  "weight": 864,
  "tx": [
    {
      "txid": "5fd782ef6bd38bcd263d5f26e35f31c4c01f75a22cbd6bd13a5db10f924f9ac1",
      "hash": "5fd782ef6bd38bcd263d5f26e35f31c4c01f75a22cbd6bd13a5db10f924f9ac1",
      "version": 1,
      "size": 135,
      "vsize": 135,
      "weight": 540,
      "locktime": 0,
      "vin": [
        {
          "coinbase": "04ffff001d02d705",
          "sequence": 4294967295
        }
      ],
      "vout": [
        {
          "value": 50.0,
          "n": 0,
          "scriptPubKey": {
            "asm": "04e35e2ddde34e10617550a83c96c210cb25ad8ab9e1892b667c4a796c91c1c6e5b8acce58fe67354f7401eeea5aed0b59bb921d920fa29b5c26e8c27f08633186 OP_CHECKSIG",
            "desc": "pk(04e35e2ddde34e10617550a83c96c210cb25ad8ab9e1892b667c4a796c91c1c6e5b8acce58fe67354f7401eeea5aed0b59bb921d920fa29b5c26e8c27f08633186)#2rwgs9xv",
            "hex": "4104e35e2ddde34e10617550a83c96c210cb25ad8ab9e1892b667c4a796c91c1c6e5b8acce58fe67354f7401eeea5aed0b59bb921d920fa29b5c26e8c27f08633186ac",
            "type": "pubkey"
          }
        }
      ],
      "hex": "01000000010000000000000000000000000000000000000000000000000000000000000000ffffffff0804ffff001d02d705ffffffff0100f2052a01000000434104e35e2ddde34e10617550a83c96c210cb25ad8ab9e1892b667c4a796c91c1c6e5b8acce58fe67354f7401eeea5aed0b59bb921d920fa29b5c26e8c27f08633186ac00000000"
    }
  ]
}