{
  "hash": "000000003a4e4b9193c3632d820ba93ec30f192c4bd0be902f6304edeeaca9a6",
  "confirmations": 51343,
  "height": 1755,
  "version": 1,
  "versionHex": "00000001",
  "merkleroot": "9bcdcd25b2f9a79faa20994ededfdd7f63804feeae5404f3a35d7394308c6632",
  "time": 1232876386,
  "mediantime": 1232874427,
  "nonce": 2675843617,
  "bits": "1d00ffff",
  "difficulty": 1,
  "chainwork": "000000000000000000000000000000000000000000000000000006dc06dc06dc",
  "nTx": 1,
  "previousblockhash": "000000001346de321c79a533dea54f329d69acced37153324594e6b615775909",
  "nextblockhash": "000000005ba792c43083919a3352d96da39563de6553a660b929071f90eff728",
  "strippedsize": 216,
  "size": 216,
  "weight": 864,
  "tx": [
    {
      "txid": "9bcdcd25b2f9a79faa20994ededfdd7f63804feeae5404f3a35d7394308c6632",
      "hash": "9bcdcd25b2f9a79faa20994ededfdd7f63804feeae5404f3a35d7394308c6632",
      "version": 1,
      "size": 135,
      "vsize": 135,
      "weight": 540,
      "locktime": 0,
      "vin": [
        {
          "coinbase": "04ffff001d02b203",
          "sequence": 4294967295
        }
      ],
      "vout": [
        {
          "value": 50.0,
          "n": 0,
          "scriptPubKey": {
            "asm": "04c87ad3ab8d9cc918cb41c7cd2a10052b1e4370ad15f65e087e3452b76d6b1a3ad0c93768ebc7a159686d20cc4e37709fe4eb64d60b1eef38eb80a903b2cfe5fb OP_CHECKSIG",
            "desc": "pk(04c87ad3ab8d9cc918cb41c7cd2a10052b1e4370ad15f65e087e3452b76d6b1a3ad0c93768ebc7a159686d20cc4e37709fe4eb64d60b1eef38eb80a903b2cfe5fb)#gy2tkh3x",
            "hex": "4104c87ad3ab8d9cc918cb41c7cd2a10052b1e4370ad15f65e087e3452b76d6b1a3ad0c93768ebc7a159686d20cc4e37709fe4eb64d60b1eef38eb80a903b2cfe5fbac",
            "type": "pubkey"
          }
        }
      ],
      "hex": "01000000010000000000000000000000000000000000000000000000000000000000000000ffffffff0804ffff001d02b203ffffffff0100f2052a01000000434104c87ad3ab8d9cc918cb41c7cd2a10052b1e4370ad15f65e087e3452b76d6b1a3ad0c93768ebc7a159686d20cc4e37709fe4eb64d60b1eef38eb80a903b2cfe5fbac00000000"
    }
  ]
}