{
  "hash": "000000005dbb85aae7ebc3ef8285d78edf4f21dda1b5ec623957e13887228fd8",
  "confirmations": 50317,
  "height": 2781,
  "version": 1,
  "versionHex": "00000001",
  "merkleroot": "f59e344138a52c64543791b955118358b79cf950b9923de53fbcae7e9f6002e7",
  "time": 1233617835,
  "mediantime": 1233613896,
  "nonce": 1644671788,
  "bits": "1d00ffff",
  "difficulty": 1,
  "chainwork": "00000000000000000000000000000000000000000000000000000ade0ade0ade",
  "nTx": 1,
  "previousblockhash": "00000000fbce2e3e1c2f00c556a549ea5973f5cdb692a36c97a289c267617af1",
  "nextblockhash": "0000000055530174f3eaf349c20522e71b87a1e5929054889d774f84859d542c",
  "strippedsize": 216,
  "size": 216,
  "weight": 864,
  "tx": [
    {
      "txid": "f59e344138a52c64543791b955118358b79cf950b9923de53fbcae7e9f6002e7",
      "hash": "f59e344138a52c64543791b955118358b79cf950b9923de53fbcae7e9f6002e7",
      "version": 1,
      "size": 135,
      "vsize": 135,
      "weight": 540,
      "locktime": 0,
      "vin": [
        {
          "coinbase": "04ffff001d02f105",
          "sequence": 4294967295
        }
      ],
      "vout": [
        {
          "value": 50.0,
          "n": 0,
          "scriptPubKey": {
            "asm": "04922f50f5f65d15ecc11fa5f796a7d784fdebcc7a505d5561cdbfe391753bce1a915f09950d176528aacce5a0c7f115ea93b2c96b769fc26fe70258c25f075438 OP_CHECKSIG",
            "desc": "pk(04922f50f5f65d15ecc11fa5f796a7d784fdebcc7a505d5561cdbfe391753bce1a915f09950d176528aacce5a0c7f115ea93b2c96b769fc26fe70258c25f075438)#8e3a8246",
            "hex": "4104922f50f5f65d15ecc11fa5f796a7d784fdebcc7a505d5561cdbfe391753bce1a915f09950d176528aacce5a0c7f115ea93b2c96b769fc26fe70258c25f075438ac",
            "type": "pubkey"
          }
        }
      ],
      "hex": "01000000010000000000000000000000000000000000000000000000000000000000000000ffffffff0804ffff001d02f105ffffffff0100f2052a01000000434104922f50f5f65d15ecc11fa5f796a7d784fdebcc7a505d5561cdbfe391753bce1a915f09950d176528aacce5a0c7f115ea93b2c96b769fc26fe70258c25f075438ac00000000"
    }
  ]
}