{
  "hash": "000000009bbb1f2b7f1256f8ba6a7a21811f02ab84267f30f8a97284b358b663",
  "confirmations": 44467,
  "height": 8631,
  "version": 1,
  "versionHex": "00000001",
  "merkleroot": "e6e9c265d039858f4c8c8a9a004027ac24f39686064bfe354e70fcc077cf9d1e",
  "time": 1237969934,
  "mediantime": 1237966838,
  "nonce": 752956676,
  "bits": "1d00ffff",
  "difficulty": 1,
  "chainwork": "000000000000000000000000000000000000000000000000000021b821b821b8",
  "nTx": 1,
  "previousblockhash": "0000000080b7a2f6ddcf79cef1eea9a7c0bd729fbfdba1226e27964c98908035",
  "nextblockhash": "000000005f5e2da1c33bc6d86e8a06412b662aad01d3b931b3d3e1948092d447",
  "strippedsize": 216,
  "size": 216,
  "weight": 864,
  "tx": [
    {
      "txid": "e6e9c265d039858f4c8c8a9a004027ac24f39686064bfe354e70fcc077cf9d1e",
      "hash": "e6e9c265d039858f4c8c8a9a004027ac24f39686064bfe354e70fcc077cf9d1e",
      "version": 1,
      "size": 135,
      "vsize": 135,
      "weight": 540,
      "locktime": 0,
      "vin": [
        {
          "coinbase": "04ffff001d02030a",
          "sequence": 4294967295
        }
      ],
      "vout": [
        {
          "value": 50.0,
          "n": 0,
          "scriptPubKey": {
            "asm": "04021bc750dc9cb21eed1be35e88acfa8e9a3206125d671f4e5a3d47ca7bbfff27c0f254b891a4af910be6e90a8f1c9eaedb99aaf3b45acb77a6f41f5501df6083 OP_CHECKSIG",
            "desc": "pk(04021bc750dc9cb21eed1be35e88acfa8e9a3206125d671f4e5a3d47ca7bbfff27c0f254b891a4af910be6e90a8f1c9eaedb99aaf3b45acb77a6f41f5501df6083)#szwqh2gp",
            "hex": "4104021bc750dc9cb21eed1be35e88acfa8e9a3206125d671f4e5a3d47ca7bbfff27c0f254b891a4af910be6e90a8f1c9eaedb99aaf3b45acb77a6f41f5501df6083ac",
            "type": "pubkey"
          }
        }
      ],
      "hex": "01000000010000000000000000000000000000000000000000000000000000000000000000ffffffff0804ffff001d02030affffffff0100f2052a01000000434104021bc750dc9cb21eed1be35e88acfa8e9a3206125d671f4e5a3d47ca7bbfff27c0f254b891a4af910be6e90a8f1c9eaedb99aaf3b45acb77a6f41f5501df6083ac00000000"
    }
  ]
}