{
  "hash": "000000007ec99d19c41c794e40bbd92acab40fe1ee019bf672ea01c566b78bb3",
  "confirmations": 46653,
  "height": 6445,
  "version": 1,
  "versionHex": "00000001",
  "merkleroot": "7914ed34e0633b69b92faf5a26b4122e92176670034e4e32e0c3fdd2982c6742",
  "time": 1236290101,
  "mediantime": 1236285581,
  "nonce": 4212527912,
  "bits": "1d00ffff",
  "difficulty": 1,
  "chainwork": "0000000000000000000000000000000000000000000000000000192e192e192e",
  "nTx": 1,
  "previousblockhash": "000000008d590df3c8a35bc0f921c71b74f2e8a1ecd361fb892dd886d7c8b2ca",
  "nextblockhash": "00000000fc55e91e03e595c2950712d44d1b3a04fc229179808b46f5767b4b78",
  "strippedsize": 216,
  "size": 216,
  "weight": 864,
  "tx": [
    {
      "txid": "7914ed34e0633b69b92faf5a26b4122e92176670034e4e32e0c3fdd2982c6742",
      "hash": "7914ed34e0633b69b92faf5a26b4122e92176670034e4e32e0c3fdd2982c6742",
      "version": 1,
      "size": 135,
      "vsize": 135,
      "weight": 540,
      "locktime": 0,
      "vin": [
        {
          "coinbase": "04ffff001d028402",
          "sequence": 4294967295
        }
      ],
      "vout": [
        {
          "value": 50.0,
          "n": 0,
          "scriptPubKey": {
            "asm": "043f1ca73a74b79766fd7010e65eb32763a10d55762428d7c80d5ed24d0c73e3a9d81ab15a35fc7f8bbc03bf03b1b59db165e676629c7807b9a5101052b6cd71cd OP_CHECKSIG",
            "desc": "pk(043f1ca73a74b79766fd7010e65eb32763a10d55762428d7c80d5ed24d0c73e3a9d81ab15a35fc7f8bbc03bf03b1b59db165e676629c7807b9a5101052b6cd71cd)#j6ffuh7r",
            "hex": "41043f1ca73a74b79766fd7010e65eb32763a10d55762428d7c80d5ed24d0c73e3a9d81ab15a35fc7f8bbc03bf03b1b59db165e676629c7807b9a5101052b6cd71cdac",
            "type": "pubkey"
          }
        }
      ],
      "hex": "01000000010000000000000000000000000000000000000000000000000000000000000000ffffffff0804ffff001d028402ffffffff0100f2052a010000004341043f1ca73a74b79766fd7010e65eb32763a10d55762428d7c80d5ed24d0c73e3a9d81ab15a35fc7f8bbc03bf03b1b59db165e676629c7807b9a5101052b6cd71cdac00000000"
    }
  ]
}