{
  "hash": "00000000f54ae42492abbdc195dcf041ac89e7c522272ae1d28e95caaa5e6b0c",
  "confirmations": 49053,
  "height": 4045,
  "version": 1,
  "versionHex": "00000001",
  "merkleroot": "fb94aeaf47f39fcc449016f06b7f5c9b76c884709e675abff083c87574d9fdb6",
  "time": 1234474356,
  "mediantime": 1234471234,
  "nonce": 759046942,
  "bits": "1d00ffff",
  "difficulty": 1,
  "chainwork": "00000000000000000000000000000000000000000000000000000fce0fce0fce",
  "nTx": 1,
  "previousblockhash": "000000002ea27436706d7f9d0e2e5005a3d2c8a3f40bb880079d243fb1160c42",
  "nextblockhash": "00000000260d3161f60c4d23b6f8b2f7d19c4f9eae2c354003c74c6e19a2bdf1",
  "strippedsize": 216,
  "size": 216,
  "weight": 864,
  "tx": [
    {
      "txid": "fb94aeaf47f39fcc449016f06b7f5c9b76c884709e675abff083c87574d9fdb6",
      "hash": "fb94aeaf47f39fcc449016f06b7f5c9b76c884709e675abff083c87574d9fdb6",
      "version": 1,
      "size": 135,
      "vsize": 135,
      "weight": 540,
      "locktime": 0,
      "vin": [
        {
          "coinbase": "04ffff001d022205",
          "sequence": 4294967295
        }
      ],
      "vout": [
        {
          "value": 50.0,
          "n": 0,
          "scriptPubKey": {
            "asm": "04b4a8681345d7b7569fd342fecba415aad2cad1a626bda740f70a8099b188ce06348f72992939afb946e5cebe64d9aee1ab7233692caa5a4e7a2a0cb35c6bb6ee OP_CHECKSIG",
            "desc": "pk(04b4a8681345d7b7569fd342fecba415aad2cad1a626bda740f70a8099b188ce06348f72992939afb946e5cebe64d9aee1ab7233692caa5a4e7a2a0cb35c6bb6ee)#tachvkjc",
            "hex": "4104b4a8681345d7b7569fd342fecba415aad2cad1a626bda740f70a8099b188ce06348f72992939afb946e5cebe64d9aee1ab7233692caa5a4e7a2a0cb35c6bb6eeac",
            "type": "pubkey"
          }
        }
      ],
      "hex": "01000000010000000000000000000000000000000000000000000000000000000000000000ffffffff0804ffff001d022205ffffffff0100f2052a01000000434104b4a8681345d7b7569fd342fecba415aad2cad1a626bda740f70a8099b188ce06348f72992939afb946e5cebe64d9aee1ab7233692caa5a4e7a2a0cb35c6bb6eeac00000000"
    }
  ]
}