{
  "hash": "00000000795723f4804ce3d29bc6e68069bfd78abef8f04e460c729b48bc7179",
  "confirmations": 47990,
  "height": 5108,
  "version": 1,
  "versionHex": "00000001",
  "merkleroot": "c4958272103c04d543450f054305f5b7f8c281515742854baa3ee6fb8feec2bc",
  "time": 1235223658,
  "mediantime": 1235219818,
  "nonce": 151979513,
  "bits": "1d00ffff",
  "difficulty": 1,
  "chainwork": "000000000000000000000000000000000000000000000000000013f513f513f5",
  "nTx": 1,
  "previousblockhash": "000000001ebbbbb7ca120ab3d6a3f11f6a00d9dd8423cb183b8a218807970626",
  "nextblockhash": "000000000c517d45e13df76251a37a2f98b49370ae834840961276101f16e244",
  "strippedsize": 216,
  "size": 216,
  "weight": 864,
  "tx": [
    {
      "txid": "c4958272103c04d543450f054305f5b7f8c281515742854baa3ee6fb8feec2bc",
      "hash": "c4958272103c04d543450f054305f5b7f8c281515742854baa3ee6fb8feec2bc",
      "version": 1,
      "size": 135,
      "vsize": 135,
      "weight": 540,
      "locktime": 0,
      "vin": [
        {
          "coinbase": "04ffff001d02bb00",
          "sequence": 4294967295
        }
      ],
      "vout": [
        {
          "value": 50.0,
          "n": 0,
          "scriptPubKey": {
            "asm": "04f244bf01d8965dad32403a77bea97fe6eacce2e4ae7419f6db5016fd0c393539ca1a2c75b601cb6fe6dc13b84547ebb7b3af368aaca12711319d3e9f80deb521 OP_CHECKSIG",
            "desc": "pk(04f244bf01d8965dad32403a77bea97fe6eacce2e4ae7419f6db5016fd0c393539ca1a2c75b601cb6fe6dc13b84547ebb7b3af368aaca12711319d3e9f80deb521)#yhhpkljc",
            "hex": "4104f244bf01d8965dad32403a77bea97fe6eacce2e4ae7419f6db5016fd0c393539ca1a2c75b601cb6fe6dc13b84547ebb7b3af368aaca12711319d3e9f80deb521ac",
            "type": "pubkey"
          }
        }
      ],
      "hex": "01000000010000000000000000000000000000000000000000000000000000000000000000ffffffff0804ffff001d02bb00ffffffff0100f2052a01000000434104f244bf01d8965dad32403a77bea97fe6eacce2e4ae7419f6db5016fd0c393539ca1a2c75b601cb6fe6dc13b84547ebb7b3af368aaca12711319d3e9f80deb521ac00000000"
    }
  ]
}