{
  "hash": "00000000419b12a77cfc58546f8b1b764c031cf0192286a5a304a153ae520aa3",
  "confirmations": 46671,
  "height": 6427,
  "version": 1,
  "versionHex": "00000001",
  "merkleroot": "118909bc53524160117e86aa6d72a5666405ce2afd4174ffbe77ff3827229c53",
  "time": 1236275504,
  "mediantime": 1236271748,
  "nonce": 726206743,
  "bits": "1d00ffff",
  "difficulty": 1,
  "chainwork": "0000000000000000000000000000000000000000000000000000191c191c191c",
  "nTx": 1,
  "previousblockhash": "00000000a3de4e80b0392a889bdac50393b8de5cf8e313a08d02b88fee366aa2",
  "nextblockhash": "00000000d1899d2fa50af50c57eccdec55b7f7414b55d3145eb31035cb16ae6e",
  "strippedsize": 216,
  "size": 216,
  "weight": 864,
  "tx": [
    {
      "txid": "118909bc53524160117e86aa6d72a5666405ce2afd4174ffbe77ff3827229c53",
      "hash": "118909bc53524160117e86aa6d72a5666405ce2afd4174ffbe77ff3827229c53",
      "version": 1,
      "size": 135,
      "vsize": 135,
      "weight": 540,
      "locktime": 0,
      "vin": [
        {
          "coinbase": "04ffff001d025602",
          "sequence": 4294967295
        }
      ],
      "vout": [
        {
          "value": 50.0,
          "n": 0,
          "scriptPubKey": {
            "asm": "04bf42fa98e1555b4988a0070524dee86fdcc2ce29ea20afa75db606da8deccaee2947e5fe6960396493f4b800d4e2c96eab971015310ad8d1929cb08398414e8d OP_CHECKSIG",
            "desc": "pk(04bf42fa98e1555b4988a0070524dee86fdcc2ce29ea20afa75db606da8deccaee2947e5fe6960396493f4b800d4e2c96eab971015310ad8d1929cb08398414e8d)#ty9wqdu0",
            "hex": "4104bf42fa98e1555b4988a0070524dee86fdcc2ce29ea20afa75db606da8deccaee2947e5fe6960396493f4b800d4e2c96eab971015310ad8d1929cb08398414e8dac",
            "type": "pubkey"
          }
        }
      ],
      "hex": "01000000010000000000000000000000000000000000000000000000000000000000000000ffffffff0804ffff001d025602ffffffff0100f2052a01000000434104bf42fa98e1555b4988a0070524dee86fdcc2ce29ea20afa75db606da8deccaee2947e5fe6960396493f4b800d4e2c96eab971015310ad8d1929cb08398414e8dac00000000"
    }
  ]
}