{
  "hash": "00000000dcab851d8c02e5bf448c9c3e778ed197739979713d12ba7447ba8005",
  "confirmations": 43230,
  "height": 9868,
  "version": 1,
  "versionHex": "00000001",
  "merkleroot": "b4e70e22699aa88da67a4936ab62750712eddeda5b2c5617bf3e34675c0107b3",
  "time": 1238904436,
  "mediantime": 1238901359,
  "nonce": 17381298,
  "bits": "1d00ffff",
  "difficulty": 1,
  "chainwork": "0000000000000000000000000000000000000000000000000000268d268d268d",
  "nTx": 1,
  "previousblockhash": "0000000074642394974015239b42465e8e4cc7636dfac0f645e20ac68daf4dd2",
  "nextblockhash": "00000000e975fdbc72e2f3120a5692299a08d1119f4d31f1f78298f98f3f6b81",
  "strippedsize": 216,
  "size": 216,
  "weight": 864,
  "tx": [
    {
      "txid": "b4e70e22699aa88da67a4936ab62750712eddeda5b2c5617bf3e34675c0107b3",
      "hash": "b4e70e22699aa88da67a4936ab62750712eddeda5b2c5617bf3e34675c0107b3",
      "version": 1,
      "size": 135,
      "vsize": 135,
      "weight": 540,
      "locktime": 0,
      "vin": [
        {
          "coinbase": "04ffff001d02e900",
          "sequence": 4294967295
        }
      ],
      "vout": [
        {
          "value": 50.0,
          "n": 0,
          "scriptPubKey": {
            "asm": "0401566654a37f20165391f08dfecedcf675f1c9f069c3ea55b1422ed4b767ef6de53238368a48021e423af17857c90078d50e39e5cf307094e890e070584ce8d9 OP_CHECKSIG",
            "desc": "pk(0401566654a37f20165391f08dfecedcf675f1c9f069c3ea55b1422ed4b767ef6de53238368a48021e423af17857c90078d50e39e5cf307094e890e070584ce8d9)#6k650mn5",
            "hex": "410401566654a37f20165391f08dfecedcf675f1c9f069c3ea55b1422ed4b767ef6de53238368a48021e423af17857c90078d50e39e5cf307094e890e070584ce8d9ac",
            "type": "pubkey"
          }
        }
      ],
      "hex": "01000000010000000000000000000000000000000000000000000000000000000000000000ffffffff0804ffff001d02e900ffffffff0100f2052a0100000043410401566654a37f20165391f08dfecedcf675f1c9f069c3ea55b1422ed4b767ef6de53238368a48021e423af17857c90078d50e39e5cf307094e890e070584ce8d9ac00000000"
    }
  ]
}