{
  "hash": "00000000a641cad738e8ec59f0599d5b9d7e463e45d194ea021a1ace23b63e92",
  "confirmations": 46412,
  "height": 6686,
  "version": 1,
  "versionHex": "00000001",
  "merkleroot": "f6a904047a4765c94e03200e2154fdfe9ac096004afd325bc13e3ed65b4cc73f",
  "time": 1236472653,
  "mediantime": 1236468790,
  "nonce": 3488611358,
  "bits": "1d00ffff",
  "difficulty": 1,
  "chainwork": "00000000000000000000000000000000000000000000000000001a1f1a1f1a1f",
  "nTx": 1,
  "previousblockhash": "00000000ac7255079662cfc025a1b7c185dcd99e085f31c4c2f00e6a3e35d240",
  "nextblockhash": "00000000eea3e5ed45d24b009087a5870586c0182805fe519a370fc4372a88a3",
  "strippedsize": 216,
  "size": 216,
  "weight": 864,
  "tx": [
    {
      "txid": "f6a904047a4765c94e03200e2154fdfe9ac096004afd325bc13e3ed65b4cc73f",
      "hash": "f6a904047a4765c94e03200e2154fdfe9ac096004afd325bc13e3ed65b4cc73f",
      "version": 1,
      "size": 135,
      "vsize": 135,
      "weight": 540,
      "locktime": 0,
      "vin": [
        {
          "coinbase": "04ffff001d02b506",
          "sequence": 4294967295
        }
      ],
      "vout": [
        {
          "value": 50.0,
          "n": 0,
          "scriptPubKey": {
            "asm": "046db53d1bea49ca1fae647c1632778f4fdaf02e2abe223434d296ab13683c7c38c8403ac6913bee3561c8f87646e776d96b7978b576f9cd7771d318c7dadead53 OP_CHECKSIG",
            "desc": "pk(046db53d1bea49ca1fae647c1632778f4fdaf02e2abe223434d296ab13683c7c38c8403ac6913bee3561c8f87646e776d96b7978b576f9cd7771d318c7dadead53)#zt0nayjh",
            "hex": "41046db53d1bea49ca1fae647c1632778f4fdaf02e2abe223434d296ab13683c7c38c8403ac6913bee3561c8f87646e776d96b7978b576f9cd7771d318c7dadead53ac",
            "type": "pubkey"
          }
        }
      ],
      "hex": "01000000010000000000000000000000000000000000000000000000000000000000000000ffffffff0804ffff001d02b506ffffffff0100f2052a010000004341046db53d1bea49ca1fae647c1632778f4fdaf02e2abe223434d296ab13683c7c38c8403ac6913bee3561c8f87646e776d96b7978b576f9cd7771d318c7dadead53ac00000000"
    }
  ]
}