{
  "hash": "00000000336a20a1040ab496ceb92abe060720646631c1b3a9b76f917f0eb54c",
  "confirmations": 48126,
  "height": 4972,
  "version": 1,
  "versionHex": "00000001",
  "merkleroot": "c323151ce88c5c658428b8a4993d954357ba37ec4a14c57b3fb5b5863cdf367a",
  "time": 1235120096,
  "mediantime": 1235116259,
  "nonce": 3265738266,
  "bits": "1d00ffff",
  "difficulty": 1,
  "chainwork": "0000000000000000000000000000000000000000000000000000136d136d136d",
  "nTx": 1,
  "previousblockhash": "00000000262b0b63fcb7e829b82cfa1bfa8c6fff22539fd1590e9855f29e9ac5",
  "nextblockhash": "000000009129b24b6e982af7f065cd4473dd4d73f2a68da05a2b867dd968cc73",
  "strippedsize": 216,
  "size": 216,
  "weight": 864,
  "tx": [
    {
      "txid": "c323151ce88c5c658428b8a4993d954357ba37ec4a14c57b3fb5b5863cdf367a",
      "hash": "c323151ce88c5c658428b8a4993d954357ba37ec4a14c57b3fb5b5863cdf367a",
      "version": 1,
      "size": 135,
      "vsize": 135,
      "weight": 540,
      "locktime": 0,
      "vin": [
        {
          "coinbase": "04ffff001d02ab06",
          "sequence": 4294967295
        }
      ],
      "vout": [
        {
          "value": 50.0,
          "n": 0,
          "scriptPubKey": {
            "asm": "046b2bdcf32be3a5d7f933a479a2e5aa5ae22be9d21c1893be8371f83bc5376c39ba7c3b2aa05b9dfb4976107ca2e33dab9f950cc95f3a85e54a998f2719fdc6c2 OP_CHECKSIG",
            "desc": "pk(046b2bdcf32be3a5d7f933a479a2e5aa5ae22be9d21c1893be8371f83bc5376c39ba7c3b2aa05b9dfb4976107ca2e33dab9f950cc95f3a85e54a998f2719fdc6c2)#tvsjf7s0",
            "hex": "41046b2bdcf32be3a5d7f933a479a2e5aa5ae22be9d21c1893be8371f83bc5376c39ba7c3b2aa05b9dfb4976107ca2e33dab9f950cc95f3a85e54a998f2719fdc6c2ac",
            "type": "pubkey"
          }
        }
      ],
      "hex": "01000000010000000000000000000000000000000000000000000000000000000000000000ffffffff0804ffff001d02ab06ffffffff0100f2052a010000004341046b2bdcf32be3a5d7f933a479a2e5aa5ae22be9d21c1893be8371f83bc5376c39ba7c3b2aa05b9dfb4976107ca2e33dab9f950cc95f3a85e54a998f2719fdc6c2ac00000000"
    }
  ]
}