{
  "hash": "0000000089bc59042b867d7ddb16b6c37765a222e848ecb54d6e84f68c4f7e90",
  "confirmations": 46970,
  "height": 6128,
  "version": 1,
  "versionHex": "00000001",
  "merkleroot": "0039271bc1da17ed0ece697c71da173d55cfbacd7c1769db29e0dbbea4f95dff",
  "time": 1236030633,
  "mediantime": 1236027483,
  "nonce": 1142146850,
  "bits": "1d00ffff",
  "difficulty": 1,
  "chainwork": "000000000000000000000000000000000000000000000000000017f117f117f1",
  "nTx": 1,
  "previousblockhash": "00000000dd77ec9906d6a4ffde7d95945d6c675a922fc1bd365e5ff46f49fed3",
  "nextblockhash": "000000005e5637239855db5d7eae501fe0baf795efdbf279d495e12d273bc012",
  "strippedsize": 216,
  "size": 216,
  "weight": 864,
  "tx": [
    {
      "txid": "0039271bc1da17ed0ece697c71da173d55cfbacd7c1769db29e0dbbea4f95dff",
      "hash": "0039271bc1da17ed0ece697c71da173d55cfbacd7c1769db29e0dbbea4f95dff",
      "version": 1,
      "size": 135,
      "vsize": 135,
      "weight": 540,
      "locktime": 0,
      "vin": [
        {
          "coinbase": "04ffff001d024b07",
          "sequence": 4294967295
        }
      ],
      "vout": [
        {
          "value": 50.0,
          "n": 0,
          "scriptPubKey": {
            "asm": "045c5642236f577d141fbe288ed9c5dc3bdecfc6434395df3e1a0a1bf8fda54adfc80befa43f727622657affde1e26dda52d7e74acc6a78bfd58b21cb65b0422f5 OP_CHECKSIG",
            "desc": "pk(045c5642236f577d141fbe288ed9c5dc3bdecfc6434395df3e1a0a1bf8fda54adfc80befa43f727622657affde1e26dda52d7e74acc6a78bfd58b21cb65b0422f5)#gxga7n2j",
            "hex": "41045c5642236f577d141fbe288ed9c5dc3bdecfc6434395df3e1a0a1bf8fda54adfc80befa43f727622657affde1e26dda52d7e74acc6a78bfd58b21cb65b0422f5ac",
            "type": "pubkey"
          }
        }
      ],
      "hex": "01000000010000000000000000000000000000000000000000000000000000000000000000ffffffff0804ffff001d024b07ffffffff0100f2052a010000004341045c5642236f577d141fbe288ed9c5dc3bdecfc6434395df3e1a0a1bf8fda54adfc80befa43f727622657affde1e26dda52d7e74acc6a78bfd58b21cb65b0422f5ac00000000"
    }
  ]
}