{
  "hash": "0000000013ffd0a8a4840d5dcfb60f75c8e9bc2b7922a16fa2f7e12b130466c7",
  "confirmations": 49292,
  "height": 3806,
  "version": 1,
  "versionHex": "00000001",
  "merkleroot": "9b9ab260b9d649bfedfab5a24001beeb31c482434fcbc8c409ad08f742a81f69",
  "time": 1234310592,
  "mediantime": 1234307354,
  "nonce": 4254810167,
  "bits": "1d00ffff",
  "difficulty": 1,
  "chainwork": "00000000000000000000000000000000000000000000000000000edf0edf0edf",
  "nTx": 1,
  "previousblockhash": "000000005dd88c6b2c92052eb03bc7d1fccbfac5cdf2f6f2def3d6ed7c2dc3ae",
  "nextblockhash": "000000006f8648807dd770d06929b305658307bca587094b3398c481a1b70fcc",
  "strippedsize": 216,
  "size": 216,
  "weight": 864,
  "tx": [
    {
      "txid": "9b9ab260b9d649bfedfab5a24001beeb31c482434fcbc8c409ad08f742a81f69",
      "hash": "9b9ab260b9d649bfedfab5a24001beeb31c482434fcbc8c409ad08f742a81f69",
      "version": 1,
      "size": 135,
      "vsize": 135,
      "weight": 540,
      "locktime": 0,
      "vin": [
        {
          "coinbase": "04ffff001d026501",
          "sequence": 4294967295
        }
      ],
      "vout": [
        {
          "value": 50.0,
          "n": 0,
          "scriptPubKey": {
            "asm": "049b4a7b2c04b7d228c5ed0e4d344ee65b42079a7a1f9c426cd89000e916ea61ad44ba0d0fa7134a811f9f5939374fd1dad4e9738dd5f7c9d1b8aebea58f7a554c OP_CHECKSIG",
            "desc": "pk(049b4a7b2c04b7d228c5ed0e4d344ee65b42079a7a1f9c426cd89000e916ea61ad44ba0d0fa7134a811f9f5939374fd1dad4e9738dd5f7c9d1b8aebea58f7a554c)#u48jga0t",
            "hex": "41049b4a7b2c04b7d228c5ed0e4d344ee65b42079a7a1f9c426cd89000e916ea61ad44ba0d0fa7134a811f9f5939374fd1dad4e9738dd5f7c9d1b8aebea58f7a554cac",
            "type": "pubkey"
          }
        }
      ],
      "hex": "01000000010000000000000000000000000000000000000000000000000000000000000000ffffffff0804ffff001d026501ffffffff0100f2052a010000004341049b4a7b2c04b7d228c5ed0e4d344ee65b42079a7a1f9c426cd89000e916ea61ad44ba0d0fa7134a811f9f5939374fd1dad4e9738dd5f7c9d1b8aebea58f7a554cac00000000"
    }
  ]
}