{
  "hash": "00000000829fae72753f0d3fb9ecf5e6329501bb075a20be0529ff6fdeb333b5",
  "confirmations": 47554,
  "height": 5544,
  "version": 1,
  "versionHex": "00000001",
  "merkleroot": "773b22584babd3430aa8a24e027a25699b7cd78db7be2e986f1e0c640544c84e",
  "time": 1235557275,
  "mediantime": 1235552472,
  "nonce": 863841556,
  "bits": "1d00ffff",
  "difficulty": 1,
  "chainwork": "000000000000000000000000000000000000000000000000000015a915a915a9",
  "nTx": 1,
  "previousblockhash": "00000000fc162dab7c86bc96fe1096616b9a725aca1f60dee71fe7922ab9990b",
  "nextblockhash": "00000000d792554eb5222f19e1d3a91fdf66a3cd4949588cc1fc5bef7441d1c7",
  "strippedsize": 216,
  "size": 216,
  "weight": 864,
  "tx": [
    {
      "txid": "773b22584babd3430aa8a24e027a25699b7cd78db7be2e986f1e0c640544c84e",
      "hash": "773b22584babd3430aa8a24e027a25699b7cd78db7be2e986f1e0c640544c84e",
      "version": 1,
      "size": 135,
      "vsize": 135,
      "weight": 540,
      "locktime": 0,
      "vin": [
        {
          "coinbase": "04ffff001d028006",
          "sequence": 4294967295
        }
      ],
      "vout": [
        {
          "value": 50.0,
          "n": 0,
          "scriptPubKey": {
            "asm": "044d70a50d5b53f2c1bd0e2e3a8d3b67df559bf79f5dbc38de53a0276da0a2c727b7d8dbcbe879a60bffb56d018be059359723e7d7e455595b74e01c9af8a893a8 OP_CHECKSIG",
            "desc": "pk(044d70a50d5b53f2c1bd0e2e3a8d3b67df559bf79f5dbc38de53a0276da0a2c727b7d8dbcbe879a60bffb56d018be059359723e7d7e455595b74e01c9af8a893a8)#67w8wadl",
            "hex": "41044d70a50d5b53f2c1bd0e2e3a8d3b67df559bf79f5dbc38de53a0276da0a2c727b7d8dbcbe879a60bffb56d018be059359723e7d7e455595b74e01c9af8a893a8ac",
            "type": "pubkey"
          }
        }
      ],
      "hex": "01000000010000000000000000000000000000000000000000000000000000000000000000ffffffff0804ffff001d028006ffffffff0100f2052a010000004341044d70a50d5b53f2c1bd0e2e3a8d3b67df559bf79f5dbc38de53a0276da0a2c727b7d8dbcbe879a60bffb56d018be059359723e7d7e455595b74e01c9af8a893a8ac00000000"
    }
  ]
}