{
  "hash": "0000000079ef0da5be745f295d17f3cd966752079847d40b14ab7f4ca96cc577",
  "confirmations": 44882,
  "height": 8216,
  "version": 1,
  "versionHex": "00000001",
  "merkleroot": "1fccd56615a6b5e9274b3d9df48ba8028d27efad5988f9b737ea4a791acd7187",
  "time": 1237633258,
  "mediantime": 1237623395,
  "nonce": 1448266673,
  "bits": "1d00ffff",
  "difficulty": 1,
  "chainwork": "0000000000000000000000000000000000000000000000000000201920192019",
  "nTx": 1,
  "previousblockhash": "00000000da558961f9680bf78f615aae3adf53bbedaadd934d624d544c72b429",
  "nextblockhash": "0000000024f304df9dc0df33394da8543a5fe89ced93f9e16413c9bee6a913b4",
  "strippedsize": 215,
  "size": 215,
  "weight": 860,
  "tx": [
    {
      "txid": "1fccd56615a6b5e9274b3d9df48ba8028d27efad5988f9b737ea4a791acd7187",
      "hash": "1fccd56615a6b5e9274b3d9df48ba8028d27efad5988f9b737ea4a791acd7187",
      "version": 1,
      "size": 134,
      "vsize": 134,
      "weight": 536,
      "locktime": 0,
      "vin": [
        {
          "coinbase": "04ffff001d0155",
          "sequence": 4294967295
        }
      ],
      "vout": [
        {
          "value": 50.0,
          "n": 0,
          "scriptPubKey": {
            "asm": "041a17f2f56b1e5e9e2c6702b872da4d0fde68e232855d2b8282b7220d63d6c1ffc9fcd07407dfd0161c23f6e2e40cb0f68e49a41a61b4a05c594f3e686afc1763 OP_CHECKSIG",
            "desc": "pk(041a17f2f56b1e5e9e2c6702b872da4d0fde68e232855d2b8282b7220d63d6c1ffc9fcd07407dfd0161c23f6e2e40cb0f68e49a41a61b4a05c594f3e686afc1763)#ejvt983c",
            "hex": "41041a17f2f56b1e5e9e2c6702b872da4d0fde68e232855d2b8282b7220d63d6c1ffc9fcd07407dfd0161c23f6e2e40cb0f68e49a41a61b4a05c594f3e686afc1763ac",
            "type": "pubkey"
          }
        }
      ],
      "hex": "01000000010000000000000000000000000000000000000000000000000000000000000000ffffffff0704ffff001d0155ffffffff0100f2052a010000004341041a17f2f56b1e5e9e2c6702b872da4d0fde68e232855d2b8282b7220d63d6c1ffc9fcd07407dfd0161c23f6e2e40cb0f68e49a41a61b4a05c594f3e686afc1763ac00000000"
    }
  ]
}