{
  "hash": "00000000924e36aed155fe03fdfb5e351ab618c7815815350cd21c0bf5a05693",
  "confirmations": 51879,
  "height": 1219,
  "version": 1,
  "versionHex": "00000001",
  "merkleroot": "d88c431a2c612b92a3c5ae0368a04daf7ae03017d60393ac00d46f20b0cd0e88",
  "time": 1232514395,
  "mediantime": 1232511863,
  "nonce": 133301182,
  "bits": "1d00ffff",
  "difficulty": 1,
  "chainwork": "000000000000000000000000000000000000000000000000000004c404c404c4",
  "nTx": 1,
  "previousblockhash": "00000000e51c5e124b5b690fd5143f8bd543e73068a4d0ddd9bc01e8ce0e3633",
  "nextblockhash": "0000000047e2deb17c9084a5940152048a485c04e7b85145eb58d001c641c89b",
  "strippedsize": 216,
  "size": 216,
  "weight": 864,
  "tx": [
    {
      "txid": "d88c431a2c612b92a3c5ae0368a04daf7ae03017d60393ac00d46f20b0cd0e88",
      "hash": "d88c431a2c612b92a3c5ae0368a04daf7ae03017d60393ac00d46f20b0cd0e88",
      "version": 1,
      "size": 135,
      "vsize": 135,
      "weight": 540,
      "locktime": 0,
      "vin": [
        {
          "coinbase": "04ffff001d02ae01",
          "sequence": 4294967295
        }
      ],
      "vout": [
        {
          "value": 50.0,
          "n": 0,
          "scriptPubKey": {
            "asm": "04f4ec5be6708cb24d30bbe9751d212fc1d1a44aaad73d209d68ac5e7d6d8d97bfc7072b67679bead26bf0cb200b9707a22eedb128654ede5ea0bdf8167d137eb8 OP_CHECKSIG",
            "desc": "pk(04f4ec5be6708cb24d30bbe9751d212fc1d1a44aaad73d209d68ac5e7d6d8d97bfc7072b67679bead26bf0cb200b9707a22eedb128654ede5ea0bdf8167d137eb8)#7jg3t0u2",
            "hex": "4104f4ec5be6708cb24d30bbe9751d212fc1d1a44aaad73d209d68ac5e7d6d8d97bfc7072b67679bead26bf0cb200b9707a22eedb128654ede5ea0bdf8167d137eb8ac",
            "type": "pubkey"
          }
        }
      ],
      "hex": "01000000010000000000000000000000000000000000000000000000000000000000000000ffffffff0804ffff001d02ae01ffffffff0100f2052a01000000434104f4ec5be6708cb24d30bbe9751d212fc1d1a44aaad73d209d68ac5e7d6d8d97bfc7072b67679bead26bf0cb200b9707a22eedb128654ede5ea0bdf8167d137eb8ac00000000"
    }
  ]
}