{
  "hash": "000000005dd2b40fd79157d74961daf6583ab3189b51d26d316af208cb61c358",
  "confirmations": 47426,
  "height": 5672,
  "version": 1,
  "versionHex": "00000001",
  "merkleroot": "245193463a898a14da88e239e83ec4160aa8048353828cce40cfdb368ecebe5a",
  "time": 1235668082,
  "mediantime": 1235664033,
  "nonce": 761846835,
  "bits": "1d00ffff",
  "difficulty": 1,
  "chainwork": "0000000000000000000000000000000000000000000000000000162916291629",
  "nTx": 1,
  "previousblockhash": "00000000a4d4a5a85d5944b8f4de6a7efaefb5a056ee0997d587c19493062d6d",
  "nextblockhash": "00000000cfa3e85c598e71a7b4af92c21d60c63f2f5234d7d4a241e4a6263ab2",
  "strippedsize": 216,
  "size": 216,
  "weight": 864,
  "tx": [
    {
      "txid": "245193463a898a14da88e239e83ec4160aa8048353828cce40cfdb368ecebe5a",
      "hash": "245193463a898a14da88e239e83ec4160aa8048353828cce40cfdb368ecebe5a",
      "version": 1,
      "size": 135,
      "vsize": 135,
      "weight": 540,
      "locktime": 0,
      "vin": [
        {
          "coinbase": "04ffff001d02f608",
          "sequence": 4294967295
        }
      ],
      "vout": [
        {
          "value": 50.0,
          "n": 0,
          "scriptPubKey": {
            "asm": "0449fa09fe1a70ffc9bb25f9293e1a909b73a2a320e84071896c32de1ea6aee6c639a86bbb5b535c3b6508e32eb4768c69fd9526355d559f91aeb850a2f2ddcc64 OP_CHECKSIG",
            "desc": "pk(0449fa09fe1a70ffc9bb25f9293e1a909b73a2a320e84071896c32de1ea6aee6c639a86bbb5b535c3b6508e32eb4768c69fd9526355d559f91aeb850a2f2ddcc64)#kp922ust",
            "hex": "410449fa09fe1a70ffc9bb25f9293e1a909b73a2a320e84071896c32de1ea6aee6c639a86bbb5b535c3b6508e32eb4768c69fd9526355d559f91aeb850a2f2ddcc64ac",
            "type": "pubkey"
          }
        }
      ],
      "hex": "01000000010000000000000000000000000000000000000000000000000000000000000000ffffffff0804ffff001d02f608ffffffff0100f2052a0100000043410449fa09fe1a70ffc9bb25f9293e1a909b73a2a320e84071896c32de1ea6aee6c639a86bbb5b535c3b6508e32eb4768c69fd9526355d559f91aeb850a2f2ddcc64ac00000000"
    }
  ]
}