{
  "hash": "000000007d626f305f95eeefe3749698a9f0e3c478a31a9692e503eb396cffde",
  "confirmations": 49870,
  "height": 3228,
  "version": 1,
  "versionHex": "00000001",
  "merkleroot": "bfe79f7e6acc5e3974574dbffa3343f5fed56781b8bd10f45287d39971d03e2c",
  "time": 1233919549,
  "mediantime": 1233917637,
  "nonce": 2639466532,
  "bits": "1d00ffff",
  "difficulty": 1,
  "chainwork": "00000000000000000000000000000000000000000000000000000c9d0c9d0c9d",
  "nTx": 1,
  "previousblockhash": "000000000e33b16c879b77e0b44b831345d744bcce5875665d80ad175dabd11f",
  "nextblockhash": "000000005efa045324071de29a6ec14b436d661dc1d5342229f638e3625f8161",
  "strippedsize": 216,
  "size": 216,
  "weight": 864,
  "tx": [
    {
      "txid": "bfe79f7e6acc5e3974574dbffa3343f5fed56781b8bd10f45287d39971d03e2c",
      "hash": "bfe79f7e6acc5e3974574dbffa3343f5fed56781b8bd10f45287d39971d03e2c",
      "version": 1,
      "size": 135,
      "vsize": 135,
      "weight": 540,
      "locktime": 0,
      "vin": [
        {
          "coinbase": "04ffff001d022403",
          "sequence": 4294967295
        }
      ],
      "vout": [
        {
          "value": 50.0,
          "n": 0,
          "scriptPubKey": {
            "asm": "041b28d99ae9fc43d6f49a0f49e7e1eaef2ab990167fa689943e66267160bc31e99af25076a41042a6733b6d901aeba66dadacf016d4b2aaa06f6f4a146db95585 OP_CHECKSIG",
            "desc": "pk(041b28d99ae9fc43d6f49a0f49e7e1eaef2ab990167fa689943e66267160bc31e99af25076a41042a6733b6d901aeba66dadacf016d4b2aaa06f6f4a146db95585)#hgy2lhae",
            "hex": "41041b28d99ae9fc43d6f49a0f49e7e1eaef2ab990167fa689943e66267160bc31e99af25076a41042a6733b6d901aeba66dadacf016d4b2aaa06f6f4a146db95585ac",
            "type": "pubkey"
          }
        }
      ],
      "hex": "01000000010000000000000000000000000000000000000000000000000000000000000000ffffffff0804ffff001d022403ffffffff0100f2052a010000004341041b28d99ae9fc43d6f49a0f49e7e1eaef2ab990167fa689943e66267160bc31e99af25076a41042a6733b6d901aeba66dadacf016d4b2aaa06f6f4a146db95585ac00000000"
    }
  ]
}