{
  "hash": "000000003b04f1b0a58347fbe06b5cc312c1a7a69ecbc4b0ee0725e7eb233164",
  "confirmations": 45559,
  "height": 7539,
  "version": 1,
  "versionHex": "00000001",
  "merkleroot": "ff297ccda40d1ebf7b27f09bc3c823f49015390337a8a678691e76db937eb85b",
  "time": 1237127467,
  "mediantime": 1237124967,
  "nonce": 6481982,
  "bits": "1d00ffff",
  "difficulty": 1,
  "chainwork": "00000000000000000000000000000000000000000000000000001d741d741d74",
  "nTx": 1,
  "previousblockhash": "000000008a92018d09a49048a2d4dec35a57e429480a6f5ff111cd2c4fcce8f6",
  "nextblockhash": "00000000763b46e83b0cbcd99e679fc01840d5e804ac3df3181b40dd80036646",
  "strippedsize": 216,
  "size": 216,
  "weight": 864,
  "tx": [
    {
      "txid": "ff297ccda40d1ebf7b27f09bc3c823f49015390337a8a678691e76db937eb85b",
      "hash": "ff297ccda40d1ebf7b27f09bc3c823f49015390337a8a678691e76db937eb85b",
      "version": 1,
      "size": 135,
      "vsize": 135,
      "weight": 540,
      "locktime": 0,
      "vin": [
        {
          "coinbase": "04ffff001d02cf03",
          "sequence": 4294967295
        }
      ],
      "vout": [
        {
          "value": 50.0,
          "n": 0,
          "scriptPubKey": {
            "asm": "04b4fc46c5cbe0b943c96266ded4e4e42623b285537129e2744d7829becee458977e72c0c95f6dde815a99c96c04d4975645661147697b22ba0fd733de3228932a OP_CHECKSIG",
            "desc": "pk(04b4fc46c5cbe0b943c96266ded4e4e42623b285537129e2744d7829becee458977e72c0c95f6dde815a99c96c04d4975645661147697b22ba0fd733de3228932a)#39yr4lgk",
            "hex": "4104b4fc46c5cbe0b943c96266ded4e4e42623b285537129e2744d7829becee458977e72c0c95f6dde815a99c96c04d4975645661147697b22ba0fd733de3228932aac",
            "type": "pubkey"
          }
        }
      ],
      "hex": "01000000010000000000000000000000000000000000000000000000000000000000000000ffffffff0804ffff001d02cf03ffffffff0100f2052a01000000434104b4fc46c5cbe0b943c96266ded4e4e42623b285537129e2744d7829becee458977e72c0c95f6dde815a99c96c04d4975645661147697b22ba0fd733de3228932aac00000000"
    }
  ]
}