{
  "hash": "0000000036e9b23428b4e9e275c5edc14b4765c82fdad3d5f8abd078303d63d3",
  "confirmations": 51068,
  "height": 2030,
  "version": 1,
  "versionHex": "00000001",
  "merkleroot": "c7fd112f4880b7e34bda8465160560c1fa492bc7680237564190805a7c1d9de6",
  "time": 1233076194,
  "mediantime": 1233072349,
  "nonce": 794908948,
  "bits": "1d00ffff",
  "difficulty": 1,
  "chainwork": "000000000000000000000000000000000000000000000000000007ef07ef07ef",
  "nTx": 1,
  "previousblockhash": "0000000056db511c4a2801cab2704dda95dfd97ac1ddf7c107fdbc089b4a19f2",
  "nextblockhash": "00000000b1c8b944d9d8a4d6165abfc98fbce1e894070e1dacfb4bfcad9b17d0",
  "strippedsize": 216,
  "size": 216,
  "weight": 864,
  "tx": [
    {
      "txid": "c7fd112f4880b7e34bda8465160560c1fa492bc7680237564190805a7c1d9de6",
      "hash": "c7fd112f4880b7e34bda8465160560c1fa492bc7680237564190805a7c1d9de6",
      "version": 1,
      "size": 135,
      "vsize": 135,
      "weight": 540,
      "locktime": 0,
      "vin": [
        {
          "coinbase": "04ffff001d025602",
          "sequence": 4294967295
        }
      ],
      "vout": [
        {
          "value": 50.0,
          "n": 0,
          "scriptPubKey": {
            "asm": "041ef76c45bdacacb7c13356465e73a5d537d2013de5df9a4baf38bf09bee2f73588d00dbf1b8d516be2659852b404779d6e9f7cd6039561f2fc2f5ffddb3f034e OP_CHECKSIG",
            "desc": "pk(041ef76c45bdacacb7c13356465e73a5d537d2013de5df9a4baf38bf09bee2f73588d00dbf1b8d516be2659852b404779d6e9f7cd6039561f2fc2f5ffddb3f034e)#u479aej3",
            "hex": "41041ef76c45bdacacb7c13356465e73a5d537d2013de5df9a4baf38bf09bee2f73588d00dbf1b8d516be2659852b404779d6e9f7cd6039561f2fc2f5ffddb3f034eac",
            "type": "pubkey"
          }
        }
      ],
      "hex": "01000000010000000000000000000000000000000000000000000000000000000000000000ffffffff0804ffff001d025602ffffffff0100f2052a010000004341041ef76c45bdacacb7c13356465e73a5d537d2013de5df9a4baf38bf09bee2f73588d00dbf1b8d516be2659852b404779d6e9f7cd6039561f2fc2f5ffddb3f034eac00000000"
    }
  ]
}