{
  "hash": "00000000e4315a299d86138a2114a5a4ad426b93d2500d8deab4752bd4e1fe81",
  "confirmations": 46769,
  "height": 6329,
  "version": 1,
  "versionHex": "00000001",
  "merkleroot": "0a01253667b5beae38fa736a4e1e94f2d10eecd36b935bdee071025c434d9ce8",
  "time": 1236196229,
  "mediantime": 1236192314,
  "nonce": 3849669920,
  "bits": "1d00ffff",
  "difficulty": 1,
  "chainwork": "000000000000000000000000000000000000000000000000000018ba18ba18ba",
  "nTx": 1,
  "previousblockhash": "00000000006c56e2d190e509e63bd9fe6e8789d9ad33727d31754aa76f1f97f7",
  "nextblockhash": "000000006fc3e77516953428d1a272253b9cce64995145e6fee03cccc794a75a",
  "strippedsize": 216,
  "size": 216,
  "weight": 864,
  "tx": [
    {
      "txid": "0a01253667b5beae38fa736a4e1e94f2d10eecd36b935bdee071025c434d9ce8",
      "hash": "0a01253667b5beae38fa736a4e1e94f2d10eecd36b935bdee071025c434d9ce8",
      "version": 1,
      "size": 135,
      "vsize": 135,
      "weight": 540,
      "locktime": 0,
      "vin": [
        {
          "coinbase": "04ffff001d028600",
          "sequence": 4294967295
        }
      ],
      "vout": [
        {
          "value": 50.0,
          "n": 0,
          "scriptPubKey": {
            "asm": "041b515f82f300ec0763aa02571f906ffdd1a14bade4949915ff1f9057c75ff3005f8142d9c53919840fb7cd8f4e3e687a4f4cd2fa47b677d43ea99f2408e30f45 OP_CHECKSIG",
            "desc": "pk(041b515f82f300ec0763aa02571f906ffdd1a14bade4949915ff1f9057c75ff3005f8142d9c53919840fb7cd8f4e3e687a4f4cd2fa47b677d43ea99f2408e30f45)#dy797swv",
            "hex": "41041b515f82f300ec0763aa02571f906ffdd1a14bade4949915ff1f9057c75ff3005f8142d9c53919840fb7cd8f4e3e687a4f4cd2fa47b677d43ea99f2408e30f45ac",
            "type": "pubkey"
          }
        }
      ],
      "hex": "01000000010000000000000000000000000000000000000000000000000000000000000000ffffffff0804ffff001d028600ffffffff0100f2052a010000004341041b515f82f300ec0763aa02571f906ffdd1a14bade4949915ff1f9057c75ff3005f8142d9c53919840fb7cd8f4e3e687a4f4cd2fa47b677d43ea99f2408e30f45ac00000000"
    }
  ]
}