{
  "hash": "000000006e83f46d791e7495dc91062612a8a6a45a5b5453905b4e9326ad4f07",
  "confirmations": 46294,
  "height": 6804,
  "version": 1,
  "versionHex": "00000001",
  "merkleroot": "ace02dde4959ae0be00ee9be33a72cc1fd9af9754b08b4f240ba50659689047c",
  "time": 1236561458,
  "mediantime": 1236556921,
  "nonce": 62579632,
  "bits": "1d00ffff",
  "difficulty": 1,
  "chainwork": "00000000000000000000000000000000000000000000000000001a951a951a95",
  "nTx": 1,
  "previousblockhash": "0000000024e6fc9d04106a21dc9171f2c1a214d62c71747e155d652577758a6e",
  "nextblockhash": "000000006731670d0f391601c38e6736111f23ea6b746920959d828bee6913ab",
  "strippedsize": 215,
  "size": 215,
  "weight": 860,
  "tx": [
    {
      "txid": "ace02dde4959ae0be00ee9be33a72cc1fd9af9754b08b4f240ba50659689047c",
      "hash": "ace02dde4959ae0be00ee9be33a72cc1fd9af9754b08b4f240ba50659689047c",
      "version": 1,
      "size": 134,
      "vsize": 134,
      "weight": 536,
      "locktime": 0,
      "vin": [
        {
          "coinbase": "04ffff001d012a",
          "sequence": 4294967295
        }
      ],
      "vout": [
        {
          "value": 50.0,
          "n": 0,
          "scriptPubKey": {
            "asm": "0424dcec2fc0837e2ef2e8d4d52306f70186cb79d421284b32b96af661b56390a9287c3381d8c8dfa98b2a4250e92c66b49abb27ef8b6026ea915310e4f97dc571 OP_CHECKSIG",
            "desc": "pk(0424dcec2fc0837e2ef2e8d4d52306f70186cb79d421284b32b96af661b56390a9287c3381d8c8dfa98b2a4250e92c66b49abb27ef8b6026ea915310e4f97dc571)#4zr9fu22",
            "hex": "410424dcec2fc0837e2ef2e8d4d52306f70186cb79d421284b32b96af661b56390a9287c3381d8c8dfa98b2a4250e92c66b49abb27ef8b6026ea915310e4f97dc571ac",
            "type": "pubkey"
          }
        }
      ],
      "hex": "01000000010000000000000000000000000000000000000000000000000000000000000000ffffffff0704ffff001d012affffffff0100f2052a0100000043410424dcec2fc0837e2ef2e8d4d52306f70186cb79d421284b32b96af661b56390a9287c3381d8c8dfa98b2a4250e92c66b49abb27ef8b6026ea915310e4f97dc571ac00000000"
    }
  ]
}