{
  "hash": "0000000009e116a06e5a8ee2f64f3777ff2d82cfaf10a97a6a27fb947a835353",
  "confirmations": 46297,
  "height": 6801,
  "version": 1,
  "versionHex": "00000001",
  "merkleroot": "2d4ef727c8ade62d8245ae592303102ccebb7acfea4d0ee08bd4f0c76e290983",
  "time": 1236558810,
  "mediantime": 1236555030,
  "nonce": 3263362561,
  "bits": "1d00ffff",
  "difficulty": 1,
  "chainwork": "00000000000000000000000000000000000000000000000000001a921a921a92",
  "nTx": 1,
  "previousblockhash": "000000009dbf018a558bb165176597ef69cc4c4be997f94e2c3e160059b93667",
  "nextblockhash": "000000002a43f5df49322805bd01cde675cdc39a13bfcb1b0186f1877756b6d5",
  "strippedsize": 216,
  "size": 216,
  "weight": 864,
  "tx": [
    {
      "txid": "2d4ef727c8ade62d8245ae592303102ccebb7acfea4d0ee08bd4f0c76e290983",
      "hash": "2d4ef727c8ade62d8245ae592303102ccebb7acfea4d0ee08bd4f0c76e290983",
      "version": 1,
      "size": 135,
      "vsize": 135,
      "weight": 540,
      "locktime": 0,
      "vin": [
        {
          "coinbase": "04ffff001d020709",
          "sequence": 4294967295
        }
      ],
      "vout": [
        {
          "value": 50.0,
          "n": 0,
          "scriptPubKey": {
            "asm": "0480568b375546a3cb9f010c81b8f700b4d62bb46798654bc943ffaf7adacf389afb6561acc61e1674d93ab5895ec12bd457c252342849252fa0d7e51653b1098f OP_CHECKSIG",
            "desc": "pk(0480568b375546a3cb9f010c81b8f700b4d62bb46798654bc943ffaf7adacf389afb6561acc61e1674d93ab5895ec12bd457c252342849252fa0d7e51653b1098f)#mzfyv7e2",
            "hex": "410480568b375546a3cb9f010c81b8f700b4d62bb46798654bc943ffaf7adacf389afb6561acc61e1674d93ab5895ec12bd457c252342849252fa0d7e51653b1098fac",
            "type": "pubkey"
          }
        }
      ],
      "hex": "01000000010000000000000000000000000000000000000000000000000000000000000000ffffffff0804ffff001d020709ffffffff0100f2052a0100000043410480568b375546a3cb9f010c81b8f700b4d62bb46798654bc943ffaf7adacf389afb6561acc61e1674d93ab5895ec12bd457c252342849252fa0d7e51653b1098fac00000000"
    }
  ]
}