{
  "hash": "00000000fb2a066ba024f8e7fe54bb61599f7a2810748598aad77f369e9fcc9b",
  "confirmations": 43474,
  "height": 9624,
  "version": 1,
  "versionHex": "00000001",
  "merkleroot": "3ccda48c77db894aa2ec8b47c45f0e038067dc6190f604b03eeea415a68ff8a3",
  "time": 1238720579,
  "mediantime": 1238717219,
  "nonce": 3382033686,
  "bits": "1d00ffff",
  "difficulty": 1,
  "chainwork": "0000000000000000000000000000000000000000000000000000259925992599",
  "nTx": 1,
  "previousblockhash": "00000000dfac8a589bbb066ab83b93d49d463ab2dbf77ba0d70ad51c11177a3e",
  "nextblockhash": "00000000b91b9b688617963d22b2b4d638cda7588a87c830f2111fc3eeb1b526",
  "strippedsize": 216,
  "size": 216,
  "weight": 864,
  "tx": [
    {
      "txid": "3ccda48c77db894aa2ec8b47c45f0e038067dc6190f604b03eeea415a68ff8a3",
      "hash": "3ccda48c77db894aa2ec8b47c45f0e038067dc6190f604b03eeea415a68ff8a3",
      "version": 1,
      "size": 135,
      "vsize": 135,
      "weight": 540,
      "locktime": 0,
      "vin": [
        {
          "coinbase": "04ffff001d026c07",
          "sequence": 4294967295
        }
      ],
      "vout": [
        {
          "value": 50.0,
          "n": 0,
          "scriptPubKey": {
            "asm": "048e0f72c5fe3f10082ecfa4910909f9eccd53b1e91f98933ad45f2d096d7d1392ae8fe380afc85ddd610b30936ee05899765311819a253c68b712d47eb0425aa1 OP_CHECKSIG",
            "desc": "pk(048e0f72c5fe3f10082ecfa4910909f9eccd53b1e91f98933ad45f2d096d7d1392ae8fe380afc85ddd610b30936ee05899765311819a253c68b712d47eb0425aa1)#xgkllnnn",
            "hex": "41048e0f72c5fe3f10082ecfa4910909f9eccd53b1e91f98933ad45f2d096d7d1392ae8fe380afc85ddd610b30936ee05899765311819a253c68b712d47eb0425aa1ac",
            "type": "pubkey"
          }
        }
      ],
      "hex": "01000000010000000000000000000000000000000000000000000000000000000000000000ffffffff0804ffff001d026c07ffffffff0100f2052a010000004341048e0f72c5fe3f10082ecfa4910909f9eccd53b1e91f98933ad45f2d096d7d1392ae8fe380afc85ddd610b30936ee05899765311819a253c68b712d47eb0425aa1ac00000000"
    }
  ]
}