{
  "hash": "0000000096732a5e1eb8fd8da3bc5024cfb882a9ed4c04b3a0077eae470169cb",
  "confirmations": 52192,
  "height": 906,
  "version": 1,
  "versionHex": "00000001",
  "merkleroot": "fa1c23eec89ddcc242748d2c7864eaa1ec9314f8a6fa261bac60019b5ff3364c",
  "time": 1232281585,
  "mediantime": 1232277180,
  "nonce": 1998927367,
  "bits": "1d00ffff",
  "difficulty": 1,
  "chainwork": "0000000000000000000000000000000000000000000000000000038b038b038b",
  "nTx": 1,
  "previousblockhash": "00000000a8ed265d3d7d4a829dac44c97b30f1a519bcd7ca038a7c680755a30c",
  "nextblockhash": "00000000c90449e0eae4ab3e64248d2bb105c8bc720e3c7317ecfa4f1c482163",
  "strippedsize": 216,
  "size": 216,
  "weight": 864,
  "tx": [
    {
      "txid": "fa1c23eec89ddcc242748d2c7864eaa1ec9314f8a6fa261bac60019b5ff3364c",
      "hash": "fa1c23eec89ddcc242748d2c7864eaa1ec9314f8a6fa261bac60019b5ff3364c",
      "version": 1,
      "size": 135,
      "vsize": 135,
      "weight": 540,
      "locktime": 0,
      "vin": [
        {
          "coinbase": "04ffff001d02cc03",
          "sequence": 4294967295
        }
      ],
      "vout": [
        {
          "value": 50.0,
          "n": 0,
          "scriptPubKey": {
            "asm": "04ea7b3fc8450b4b15abf0cc9b3dc96e3f8e964d3b37897b96c0aecf641bce4a760de3375b520e4103f7fb4c8205d0cd2bcc2de9c18e7bd0151ee54f04f84353fd OP_CHECKSIG",
            "desc": "pk(04ea7b3fc8450b4b15abf0cc9b3dc96e3f8e964d3b37897b96c0aecf641bce4a760de3375b520e4103f7fb4c8205d0cd2bcc2de9c18e7bd0151ee54f04f84353fd)#xrye3sdv",
            "hex": "4104ea7b3fc8450b4b15abf0cc9b3dc96e3f8e964d3b37897b96c0aecf641bce4a760de3375b520e4103f7fb4c8205d0cd2bcc2de9c18e7bd0151ee54f04f84353fdac",
            "type": "pubkey"
          }
        }
      ],
      "hex": "01000000010000000000000000000000000000000000000000000000000000000000000000ffffffff0804ffff001d02cc03ffffffff0100f2052a01000000434104ea7b3fc8450b4b15abf0cc9b3dc96e3f8e964d3b37897b96c0aecf641bce4a760de3375b520e4103f7fb4c8205d0cd2bcc2de9c18e7bd0151ee54f04f84353fdac00000000"
    }
  ]
}