{
  "hash": "00000000a8b2b31aba382f5d892001122d8d20a397dd979d3414907a8129ac97",
  "confirmations": 47343,
  "height": 5755,
  "version": 1,
  "versionHex": "00000001",
  "merkleroot": "ff2ecee2aaa2221c88a0e34d5096d552dbac4ac42e0760a6563ce32cf3902a2a",
  "time": 1235727224,
  "mediantime": 1235724273,
  "nonce": 2245000248,
  "bits": "1d00ffff",
  "difficulty": 1,
  "chainwork": "0000000000000000000000000000000000000000000000000000167c167c167c",
  "nTx": 1,
  "previousblockhash": "0000000059734cc49793a3ccb9b5dbf6a213db50b84537d7493c79c0150bcaaa",
  "nextblockhash": "000000003e29a641e28e89ce938218a110f2a7f4ffed60c7b6c4634315755a36",
  "strippedsize": 215,
  "size": 215,
  "weight": 860,
  "tx": [
    {
      "txid": "ff2ecee2aaa2221c88a0e34d5096d552dbac4ac42e0760a6563ce32cf3902a2a",
      "hash": "ff2ecee2aaa2221c88a0e34d5096d552dbac4ac42e0760a6563ce32cf3902a2a",
      "version": 1,
      "size": 134,
      "vsize": 134,
      "weight": 536,
      "locktime": 0,
      "vin": [
        {
          "coinbase": "04ffff001d011e",
          "sequence": 4294967295
        }
      ],
      "vout": [
        {
          "value": 50.0,
          "n": 0,
          "scriptPubKey": {
            "asm": "043f3e328217743cd97d8152f3112c6c7fb9b911bd0ed8cb2f4c961ac686db1e02ca08d9d135a78ab7cb13e8c73aeaec6519a41a91908b904bfd78f321d66ee4f3 OP_CHECKSIG",
            "desc": "pk(043f3e328217743cd97d8152f3112c6c7fb9b911bd0ed8cb2f4c961ac686db1e02ca08d9d135a78ab7cb13e8c73aeaec6519a41a91908b904bfd78f321d66ee4f3)#jngzdz8w",
            "hex": "41043f3e328217743cd97d8152f3112c6c7fb9b911bd0ed8cb2f4c961ac686db1e02ca08d9d135a78ab7cb13e8c73aeaec6519a41a91908b904bfd78f321d66ee4f3ac",
            "type": "pubkey"
          }
        }
      ],
      "hex": "01000000010000000000000000000000000000000000000000000000000000000000000000ffffffff0704ffff001d011effffffff0100f2052a010000004341043f3e328217743cd97d8152f3112c6c7fb9b911bd0ed8cb2f4c961ac686db1e02ca08d9d135a78ab7cb13e8c73aeaec6519a41a91908b904bfd78f321d66ee4f3ac00000000"
    }
  ]
}