{
  "hash": "000000008496bd0f4a2f37930d65493f1f5b6c1d6db0ed3561da47ed142d6d2c",
  "confirmations": 45006,
  "height": 8092,
  "version": 1,
  "versionHex": "00000001",
  "merkleroot": "d3e80d508ef6ff3a8fc44cced72b0b575a99225e6f8509505edd3783392f84dd",
  "time": 1237525774,
  "mediantime": 1237521615,
  "nonce": 2598412293,
  "bits": "1d00ffff",
  "difficulty": 1,
  "chainwork": "00000000000000000000000000000000000000000000000000001f9d1f9d1f9d",
  "nTx": 1,
  "previousblockhash": "0000000062505349e96b0ed8b508d01d8f44d27e28a29e25bc9e2cc2f8ced7be",
  "nextblockhash": "00000000e979a834d18ef3fe6e502ca498e5091add917085ad632a7b9d4a9ed0",
  "strippedsize": 216,
  "size": 216,
  "weight": 864,
  "tx": [
    {
      "txid": "d3e80d508ef6ff3a8fc44cced72b0b575a99225e6f8509505edd3783392f84dd",
      "hash": "d3e80d508ef6ff3a8fc44cced72b0b575a99225e6f8509505edd3783392f84dd",
      "version": 1,
      "size": 135,
      "vsize": 135,
      "weight": 540,
      "locktime": 0,
      "vin": [
        {
          "coinbase": "04ffff001d02f600",
          "sequence": 4294967295
        }
      ],
      "vout": [
        {
          "value": 50.0,
          "n": 0,
          "scriptPubKey": {
            "asm": "0469c52c33ae6469f9e5a46aebc20bc346accb23ea31b70d15dadf8db26ca013d92719298e2b7d3145e4b5a4ecde0de4f3735414bade5bb0d8c500d66a9303da01 OP_CHECKSIG",
            "desc": "pk(0469c52c33ae6469f9e5a46aebc20bc346accb23ea31b70d15dadf8db26ca013d92719298e2b7d3145e4b5a4ecde0de4f3735414bade5bb0d8c500d66a9303da01)#3ur44ucx",
            "hex": "410469c52c33ae6469f9e5a46aebc20bc346accb23ea31b70d15dadf8db26ca013d92719298e2b7d3145e4b5a4ecde0de4f3735414bade5bb0d8c500d66a9303da01ac",
            "type": "pubkey"
          }
        }
      ],
      "hex": "01000000010000000000000000000000000000000000000000000000000000000000000000ffffffff0804ffff001d02f600ffffffff0100f2052a0100000043410469c52c33ae6469f9e5a46aebc20bc346accb23ea31b70d15dadf8db26ca013d92719298e2b7d3145e4b5a4ecde0de4f3735414bade5bb0d8c500d66a9303da01ac00000000"
    }
  ]
}