{
  "hash": "00000000ce3d29921074f8f2f42fc689b985086aaed696adc8420056862b050d",
  "confirmations": 43507,
  "height": 9591,
  "version": 1,
  "versionHex": "00000001",
  "merkleroot": "f2e4794895359df129956ca2a336630974a2922d4441ba70ebd7c8a6f240a6df",
  "time": 1238694149,
  "mediantime": 1238689596,
  "nonce": 1343364118,
  "bits": "1d00ffff",
  "difficulty": 1,
  "chainwork": "0000000000000000000000000000000000000000000000000000257825782578",
  "nTx": 1,
  "previousblockhash": "000000000ceaa2dfa65980f24a79b9986d798722937e5ea341eca4ed6e016dd6",
  "nextblockhash": "000000004f0f3c567b7cd9ac0375e57207f1741a7e43e70b5ad36a4a162b6107",
  "strippedsize": 216,
  "size": 216,
  "weight": 864,
  "tx": [
    {
      "txid": "f2e4794895359df129956ca2a336630974a2922d4441ba70ebd7c8a6f240a6df",
      "hash": "f2e4794895359df129956ca2a336630974a2922d4441ba70ebd7c8a6f240a6df",
      "version": 1,
      "size": 135,
      "vsize": 135,
      "weight": 540,
      "locktime": 0,
      "vin": [
        {
          "coinbase": "04ffff001d02e006",
          "sequence": 4294967295
        }
      ],
      "vout": [
        {
          "value": 50.0,
          "n": 0,
          "scriptPubKey": {
            "asm": "0421be73353dc8b5265dadffb8e37d5f11aa9be282402589bfe1c5c96704d828a491699768715cdf4b32380e38f6a7c8356a161f351832fd4e2fed15d345f80b77 OP_CHECKSIG",
            "desc": "pk(0421be73353dc8b5265dadffb8e37d5f11aa9be282402589bfe1c5c96704d828a491699768715cdf4b32380e38f6a7c8356a161f351832fd4e2fed15d345f80b77)#s9jtcamv",
            "hex": "410421be73353dc8b5265dadffb8e37d5f11aa9be282402589bfe1c5c96704d828a491699768715cdf4b32380e38f6a7c8356a161f351832fd4e2fed15d345f80b77ac",
            "type": "pubkey"
          }
        }
      ],
      "hex": "01000000010000000000000000000000000000000000000000000000000000000000000000ffffffff0804ffff001d02e006ffffffff0100f2052a0100000043410421be73353dc8b5265dadffb8e37d5f11aa9be282402589bfe1c5c96704d828a491699768715cdf4b32380e38f6a7c8356a161f351832fd4e2fed15d345f80b77ac00000000"
    }
  ]
}