{
  "hash": "00000000ebcbd04dd834b0709bcd74a05dd7a8f1524bfa30a603e3db1d888053",
  "confirmations": 51251,
  "height": 1847,
  "version": 1,
  "versionHex": "00000001",
  "merkleroot": "e3d67dccdbe007e8afc59d08acb219e73a4beea2eb9c8efbf7f6b78719a50556",
  "time": 1232920737,
  "mediantime": 1232917812,
  "nonce": 2180909616,
  "bits": "1d00ffff",
  "difficulty": 1,
  "chainwork": "0000000000000000000000000000000000000000000000000000073807380738",
  "nTx": 1,
  "previousblockhash": "000000003c883c858ec953652a66caa23265ac9f331b602691f3092cf1ae7299",
  "nextblockhash": "00000000845a1a4a029bc2a33d5eb51ef53502e314e5ba19ebd835c4bd353b3a",
  "strippedsize": 216,
  "size": 216,
  "weight": 864,
  "tx": [
    {
      "txid": "e3d67dccdbe007e8afc59d08acb219e73a4beea2eb9c8efbf7f6b78719a50556",
      "hash": "e3d67dccdbe007e8afc59d08acb219e73a4beea2eb9c8efbf7f6b78719a50556",
      "version": 1,
      "size": 135,
      "vsize": 135,
      "weight": 540,
      "locktime": 0,
      "vin": [
        {
          "coinbase": "04ffff001d029d04",
          "sequence": 4294967295
        }
      ],
      "vout": [
        {
          "value": 50.0,
          "n": 0,
          "scriptPubKey": {
            "asm": "04bd1731cc2c6263d531bcba15331b77b0e65dd5283aac2e7edcae102634dd02650cb047b9547e29c90c23bd0e4f4a338ccaad95ee52342f0633d8df15d79fab21 OP_CHECKSIG",
            "desc": "pk(04bd1731cc2c6263d531bcba15331b77b0e65dd5283aac2e7edcae102634dd02650cb047b9547e29c90c23bd0e4f4a338ccaad95ee52342f0633d8df15d79fab21)#mjtg5ekv",
            "hex": "4104bd1731cc2c6263d531bcba15331b77b0e65dd5283aac2e7edcae102634dd02650cb047b9547e29c90c23bd0e4f4a338ccaad95ee52342f0633d8df15d79fab21ac",
            "type": "pubkey"
          }
        }
      ],
      "hex": "01000000010000000000000000000000000000000000000000000000000000000000000000ffffffff0804ffff001d029d04ffffffff0100f2052a01000000434104bd1731cc2c6263d531bcba15331b77b0e65dd5283aac2e7edcae102634dd02650cb047b9547e29c90c23bd0e4f4a338ccaad95ee52342f0633d8df15d79fab21ac00000000"
    }
  ]
}