{
  "hash": "00000000c3fb5743f363f762c0b564eca5628ec0e3b39b343b5fd754e489b707",
  "confirmations": 43382,
  "height": 9716,
  "version": 1,
  "versionHex": "00000001",
  "merkleroot": "4bd20aa479e6860073e51c6d68cfcdf11125cd5a125dfa28686e11a205288e30",
  "time": 1238790280,
  "mediantime": 1238786761,
  "nonce": 166881145,
  "bits": "1d00ffff",
  "difficulty": 1,
  "chainwork": "000000000000000000000000000000000000000000000000000025f525f525f5",
  "nTx": 1,
  "previousblockhash": "000000006e1805bc1ea01c633ee6eb4b3773618822569c342306b253f2b0b99f",
  "nextblockhash": "000000000558b35935bd19d7b8c5969feda2b7e993f4d98ff519da470520dcf7",
  "strippedsize": 215,
  "size": 215,
  "weight": 860,
  "tx": [
    {
      "txid": "4bd20aa479e6860073e51c6d68cfcdf11125cd5a125dfa28686e11a205288e30",
      "hash": "4bd20aa479e6860073e51c6d68cfcdf11125cd5a125dfa28686e11a205288e30",
      "version": 1,
      "size": 134,
      "vsize": 134,
      "weight": 536,
      "locktime": 0,
      "vin": [
        {
          "coinbase": "04ffff001d0166",
          "sequence": 4294967295
        }
      ],
      "vout": [
        {
          "value": 50.0,
          "n": 0,
          "scriptPubKey": {
            "asm": "04358a0240043c3f2d212687be5c95140038691a1e94e74944688f7b587c27d29999574bd4ad33671558d3c83fc125c18e643a8ef4411acecb57c390d120788cd7 OP_CHECKSIG",
            "desc": "pk(04358a0240043c3f2d212687be5c95140038691a1e94e74944688f7b587c27d29999574bd4ad33671558d3c83fc125c18e643a8ef4411acecb57c390d120788cd7)#k2l0zgd7",
            "hex": "4104358a0240043c3f2d212687be5c95140038691a1e94e74944688f7b587c27d29999574bd4ad33671558d3c83fc125c18e643a8ef4411acecb57c390d120788cd7ac",
            "type": "pubkey"
          }
        }
      ],
      "hex": "01000000010000000000000000000000000000000000000000000000000000000000000000ffffffff0704ffff001d0166ffffffff0100f2052a01000000434104358a0240043c3f2d212687be5c95140038691a1e94e74944688f7b587c27d29999574bd4ad33671558d3c83fc125c18e643a8ef4411acecb57c390d120788cd7ac00000000"
    }
  ]
}