{
  "hash": "000000006ebffd75750dcb1b54e9ae461bf4ef73381d0e9a9bd1995f3a4e343d",
  "confirmations": 50262,
  "height": 2836,
  "version": 1,
  "versionHex": "00000001",
  "merkleroot": "51fb67eb1930cbb4ea48ffe387ef0ec484051ebce724f59acd09f9ccc70ed3e6",
  "time": 1233648778,
  "mediantime": 1233645504,
  "nonce": 1895077414,
  "bits": "1d00ffff",
  "difficulty": 1,
  "chainwork": "00000000000000000000000000000000000000000000000000000b150b150b15",
  "nTx": 1,
  "previousblockhash": "00000000c0251a421946cdda9db14def325eab6e8bf95cdea5e9b859f9ef8698",
  "nextblockhash": "000000007493f6865773ffcea485a510b96794b918d291dc005046f47def1c2d",
  "strippedsize": 216,
  "size": 216,
  "weight": 864,
  "tx": [
    {
      "txid": "51fb67eb1930cbb4ea48ffe387ef0ec484051ebce724f59acd09f9ccc70ed3e6",
      "hash": "51fb67eb1930cbb4ea48ffe387ef0ec484051ebce724f59acd09f9ccc70ed3e6",
      "version": 1,
      "size": 135,
      "vsize": 135,
      "weight": 540,
      "locktime": 0,
      "vin": [
        {
          "coinbase": "04ffff001d02a606",
          "sequence": 4294967295
        }
      ],
      "vout": [
        {
          "value": 50.0,
          "n": 0,
          "scriptPubKey": {
            "asm": "04f5ba0e12e95d47508c818566ed1b920f700560e16d4f51cd64e6ebf2bdc02c656d2550cbd7b6c68ac6611df6a7e8684c145dc292efd8feba068df8059b76b7a2 OP_CHECKSIG",
            "desc": "pk(04f5ba0e12e95d47508c818566ed1b920f700560e16d4f51cd64e6ebf2bdc02c656d2550cbd7b6c68ac6611df6a7e8684c145dc292efd8feba068df8059b76b7a2)#fq8dn2c9",
            "hex": "4104f5ba0e12e95d47508c818566ed1b920f700560e16d4f51cd64e6ebf2bdc02c656d2550cbd7b6c68ac6611df6a7e8684c145dc292efd8feba068df8059b76b7a2ac",
            "type": "pubkey"
          }
        }
      ],
      "hex": "01000000010000000000000000000000000000000000000000000000000000000000000000ffffffff0804ffff001d02a606ffffffff0100f2052a01000000434104f5ba0e12e95d47508c818566ed1b920f700560e16d4f51cd64e6ebf2bdc02c656d2550cbd7b6c68ac6611df6a7e8684c145dc292efd8feba068df8059b76b7a2ac00000000"
    }
  ]
}