{
  "hash": "00000000ff862f4e3c760fee9666defe2ac0ff026171953558b14421840a2446",
  "confirmations": 52043,
  "height": 184,
  "version": 1,
  "versionHex": "00000001",
  "merkleroot": "7261a156ddd561c8144eed6956ada63bf53fa015ef84f8f2b06d9928caf320bf",
  "time": 1231742949,
  "mediantime": 1231738005,
  "nonce": 169414958,
  "bits": "1d00ffff",
  "difficulty": 1,
  "chainwork": "000000000000000000000000000000000000000000000000000000b900b900b9",
  "nTx": 1,
  "previousblockhash": "00000000f46e513f038baf6f2d9a95b2a28d8a6c985bcf24b9e07f0f63a29888",
  "nextblockhash": "00000000e24b8df3f63b67e6f803950a6bbfee804e21072f891b4257319273ef",
  "strippedsize": 215,
  "size": 215,
  "weight": 860,
  "tx": [
    {
      "txid": "7261a156ddd561c8144eed6956ada63bf53fa015ef84f8f2b06d9928caf320bf",
      "hash": "7261a156ddd561c8144eed6956ada63bf53fa015ef84f8f2b06d9928caf320bf",
      "version": 1,
      "size": 134,
      "vsize": 134,
      "weight": 536,
      "locktime": 0,
      "vin": [
        {
          "coinbase": "04ffff001d0102",
          "sequence": 4294967295
        }
      ],
      "vout": [
        {
          "value": 50.0,
          "n": 0,
          "scriptPubKey": {
            "asm": "04b03e3014aba0d36e8444e20f93c0b03de4e5eb18aad8311191bce383cf84fa4dc76c28bb3d8e95b5e2267a307d87843db3fc3f7cb772f1dd16234295f08ad199 OP_CHECKSIG",
            "desc": "pk(04b03e3014aba0d36e8444e20f93c0b03de4e5eb18aad8311191bce383cf84fa4dc76c28bb3d8e95b5e2267a307d87843db3fc3f7cb772f1dd16234295f08ad199)#2xv0zqx5",
            "hex": "4104b03e3014aba0d36e8444e20f93c0b03de4e5eb18aad8311191bce383cf84fa4dc76c28bb3d8e95b5e2267a307d87843db3fc3f7cb772f1dd16234295f08ad199ac",
            "type": "pubkey"
          }
        }
      ],
      "hex": "01000000010000000000000000000000000000000000000000000000000000000000000000ffffffff0704ffff001d0102ffffffff0100f2052a01000000434104b03e3014aba0d36e8444e20f93c0b03de4e5eb18aad8311191bce383cf84fa4dc76c28bb3d8e95b5e2267a307d87843db3fc3f7cb772f1dd16234295f08ad199ac00000000"
    }
  ]
}