{
  "hash": "0000000036dc2ce23cdd934eff4bae120155de8b8712de8489c8870b06e334ff",
  "confirmations": 50599,
  "height": 2499,
  "version": 1,
  "versionHex": "00000001",
  "merkleroot": "6373e4d2b8653b4f3ae6b39e8ee5f595cb9b86aace932ac3defcfc57504eb834",
  "time": 1233421196,
  "mediantime": 1233418441,
  "nonce": 3192142336,
  "bits": "1d00ffff",
  "difficulty": 1,
  "chainwork": "000000000000000000000000000000000000000000000000000009c409c409c4",
  "nTx": 1,
  "previousblockhash": "00000000234f5fb4707c5f8c21edf698f2f8dbab6342862367f395fc8ccfa602",
  "nextblockhash": "00000000d84724559f1691d916b2ed63a44884d495d155197647ce7667116b16",
  "strippedsize": 216,
  "size": 216,
  "weight": 864,
  "tx": [
    {
      "txid": "6373e4d2b8653b4f3ae6b39e8ee5f595cb9b86aace932ac3defcfc57504eb834",
      "hash": "6373e4d2b8653b4f3ae6b39e8ee5f595cb9b86aace932ac3defcfc57504eb834",
      "version": 1,
      "size": 135,
      "vsize": 135,
      "weight": 540,
      "locktime": 0,
      "vin": [
        {
          "coinbase": "04ffff001d021f01",
          "sequence": 4294967295
        }
      ],
      "vout": [
        {
          "value": 50.0,
          "n": 0,
          "scriptPubKey": {
            "asm": "0468cce0c4ba59e3481359194f9321817b5c43815d9157f62b455c7121b3d481863f740540c6fbb2e568898d81f0349d175390d3c90a9ecabd22cc07e28fe1dd14 OP_CHECKSIG",
            "desc": "pk(0468cce0c4ba59e3481359194f9321817b5c43815d9157f62b455c7121b3d481863f740540c6fbb2e568898d81f0349d175390d3c90a9ecabd22cc07e28fe1dd14)#gz0r9dd5",
            "hex": "410468cce0c4ba59e3481359194f9321817b5c43815d9157f62b455c7121b3d481863f740540c6fbb2e568898d81f0349d175390d3c90a9ecabd22cc07e28fe1dd14ac",
            "type": "pubkey"
          }
        }
      ],
      "hex": "01000000010000000000000000000000000000000000000000000000000000000000000000ffffffff0804ffff001d021f01ffffffff0100f2052a0100000043410468cce0c4ba59e3481359194f9321817b5c43815d9157f62b455c7121b3d481863f740540c6fbb2e568898d81f0349d175390d3c90a9ecabd22cc07e28fe1dd14ac00000000"
    }
  ]
}