{
  "hash": "00000000180b5bdbeb61d547a04adf658f7c9be695cd2c5d8fdf3e27e022d833",
  "confirmations": 52443,
  "height": 655,
  "version": 1,
  "versionHex": "00000001",
  "merkleroot": "fcb021cb0a02ed5032b97ef2db5e66c67c38285956dab5294baf14078c0568e9",
  "time": 1232072093,
  "mediantime": 1232069443,
  "nonce": 23791650,
  "bits": "1d00ffff",
  "difficulty": 1,
  "chainwork": "0000000000000000000000000000000000000000000000000000029002900290",
  "nTx": 1,
  "previousblockhash": "00000000f977441badb36a6bbac2057f7c6464dea83fabde00636803ae536534",
  "nextblockhash": "00000000915f7a477e3df905e1625c9e59ce63e6c26fa349f427b9cc314a4a76",
  "strippedsize": 216,
  "size": 216,
  "weight": 864,
  "tx": [
    {
      "txid": "fcb021cb0a02ed5032b97ef2db5e66c67c38285956dab5294baf14078c0568e9",
      "hash": "fcb021cb0a02ed5032b97ef2db5e66c67c38285956dab5294baf14078c0568e9",
      "version": 1,
      "size": 135,
      "vsize": 135,
      "weight": 540,
      "locktime": 0,
      "vin": [
        {
          "coinbase": "04ffff001d029b07",
          "sequence": 4294967295
        }
      ],
      "vout": [
        {
          "value": 50.0,
          "n": 0,
          "scriptPubKey": {
            "asm": "04a4dc4d8a31f3bb6c00fb22d1fad91f064c198de2af65e5bd29126a4a2698c9af3ac6e762de853c813b17e84bf29cd53de38bb9b2d3c516040bc57c45cbfee068 OP_CHECKSIG",
            "desc": "pk(04a4dc4d8a31f3bb6c00fb22d1fad91f064c198de2af65e5bd29126a4a2698c9af3ac6e762de853c813b17e84bf29cd53de38bb9b2d3c516040bc57c45cbfee068)#3hjk58tw",
            "hex": "4104a4dc4d8a31f3bb6c00fb22d1fad91f064c198de2af65e5bd29126a4a2698c9af3ac6e762de853c813b17e84bf29cd53de38bb9b2d3c516040bc57c45cbfee068ac",
            "type": "pubkey"
          }
        }
      ],
      "hex": "01000000010000000000000000000000000000000000000000000000000000000000000000ffffffff0804ffff001d029b07ffffffff0100f2052a01000000434104a4dc4d8a31f3bb6c00fb22d1fad91f064c198de2af65e5bd29126a4a2698c9af3ac6e762de853c813b17e84bf29cd53de38bb9b2d3c516040bc57c45cbfee068ac00000000"
    }
  ]
}