{
  "hash": "00000000d96cd57bf653812f5a3126a14ea39b089e4afa71e67e9a8bbed6a433",
  "confirmations": 50499,
  "height": 2599,
  "version": 1,
  "versionHex": "00000001",
  "merkleroot": "9fd373aa0f955ae36a5d2800c54a5bf7f14788139fd8c2ac587e3c03a02fa946",
  "time": 1233495354,
  "mediantime": 1233490713,
  "nonce": 75762969,
  "bits": "1d00ffff",
  "difficulty": 1,
  "chainwork": "00000000000000000000000000000000000000000000000000000a280a280a28",
  "nTx": 1,
  "previousblockhash": "00000000228868bd1c5fad818799827c4bbff4cecc5673511a1c594f7ccaff4b",
  "nextblockhash": "0000000091a7488531bb1050f24c0f8f90d4da873673eb4dec62bbce56a32910",
  "strippedsize": 215,
  "size": 215,
  "weight": 860,
  "tx": [
    {
      "txid": "9fd373aa0f955ae36a5d2800c54a5bf7f14788139fd8c2ac587e3c03a02fa946",
      "hash": "9fd373aa0f955ae36a5d2800c54a5bf7f14788139fd8c2ac587e3c03a02fa946",
      "version": 1,
      "size": 134,
      "vsize": 134,
      "weight": 536,
      "locktime": 0,
      "vin": [
        {
          "coinbase": "04ffff001d0159",
          "sequence": 4294967295
        }
      ],
      "vout": [
        {
          "value": 50.0,
          "n": 0,
          "scriptPubKey": {
            "asm": "041562cf98a67a467c3fe510d8dd1f4ba44bd8b0eae1a2fe771473f94be15a2570043e59929d9f6782678c8099a90f2bf9b32cc6ab4a942117e1830830e6942a16 OP_CHECKSIG",
            "desc": "pk(041562cf98a67a467c3fe510d8dd1f4ba44bd8b0eae1a2fe771473f94be15a2570043e59929d9f6782678c8099a90f2bf9b32cc6ab4a942117e1830830e6942a16)#k4p84wlt",
            "hex": "41041562cf98a67a467c3fe510d8dd1f4ba44bd8b0eae1a2fe771473f94be15a2570043e59929d9f6782678c8099a90f2bf9b32cc6ab4a942117e1830830e6942a16ac",
            "type": "pubkey"
          }
        }
      ],
      "hex": "01000000010000000000000000000000000000000000000000000000000000000000000000ffffffff0704ffff001d0159ffffffff0100f2052a010000004341041562cf98a67a467c3fe510d8dd1f4ba44bd8b0eae1a2fe771473f94be15a2570043e59929d9f6782678c8099a90f2bf9b32cc6ab4a942117e1830830e6942a16ac00000000"
    }
  ]
}