{
  "hash": "000000004ff664bfa7d217f6df64c1627089061429408e1da5ef903b8f3c77db",
  "confirmations": 52324,
  "height": 500,
  "version": 1,
  "versionHex": "00000001",
  "merkleroot": "04857418393e77f8060291bc2faaac30facefbfcd50f1f64df4e2dc2b5f57ecf",
  "time": 1231968449,
  "mediantime": 1231964596,
  "nonce": 2063568441,
  "bits": "1d00ffff",
  "difficulty": 1,
  "chainwork": "000000000000000000000000000000000000000000000000000001f501f501f5",
  "nTx": 1,
  "previousblockhash": "00000000806df68baab17e49e567d4211177fef4849ffd8242d095c6a1169f45",
  "nextblockhash": "0000000046887292a76cd113a5fd6af38b17c9fb77e5936cd9856694030598f9",
  "strippedsize": 216,
  "size": 216,
  "weight": 864,
  "tx": [
    {
      "txid": "04857418393e77f8060291bc2faaac30facefbfcd50f1f64df4e2dc2b5f57ecf",
      "hash": "04857418393e77f8060291bc2faaac30facefbfcd50f1f64df4e2dc2b5f57ecf",
      "version": 1,
      "size": 135,
      "vsize": 135,
      "weight": 540,
      "locktime": 0,
      "vin": [
        {
          "coinbase": "04ffff001d027904",
          "sequence": 4294967295
        }
      ],
      "vout": [
        {
          "value": 50.0,
          "n": 0,
          "scriptPubKey": {
            "asm": "042d9a7f300e87b4877f0f601d9c4a1a387e159681bb1623339f6124bf5f3c60a0695fa295cba1d6162a81bcc91a8fe67eceaaefb151db2a5053e1ba7e78b0c9b2 OP_CHECKSIG",
            "desc": "pk(042d9a7f300e87b4877f0f601d9c4a1a387e159681bb1623339f6124bf5f3c60a0695fa295cba1d6162a81bcc91a8fe67eceaaefb151db2a5053e1ba7e78b0c9b2)#njdyr9zt",
            "hex": "41042d9a7f300e87b4877f0f601d9c4a1a387e159681bb1623339f6124bf5f3c60a0695fa295cba1d6162a81bcc91a8fe67eceaaefb151db2a5053e1ba7e78b0c9b2ac",
            "type": "pubkey"
          }
        }
      ],
      "hex": "01000000010000000000000000000000000000000000000000000000000000000000000000ffffffff0804ffff001d027904ffffffff0100f2052a010000004341042d9a7f300e87b4877f0f601d9c4a1a387e159681bb1623339f6124bf5f3c60a0695fa295cba1d6162a81bcc91a8fe67eceaaefb151db2a5053e1ba7e78b0c9b2ac00000000"
    }
  ]
}