{
  "hash": "0000000067d925aef445c31994026ba9b6d4d2d4022fd04f4111a3fa7e2b2627",
  "confirmations": 48276,
  "height": 4822,
  "version": 1,
  "versionHex": "00000001",
  "merkleroot": "613fa987b3d6adefd48f9e79ec108490dc646ccc1cb50d50b923b7ce0ab12cd4",
  "time": 1235015088,
  "mediantime": 1235010794,
  "nonce": 346968459,
  "bits": "1d00ffff",
  "difficulty": 1,
  "chainwork": "000000000000000000000000000000000000000000000000000012d712d712d7",
  "nTx": 1,
  "previousblockhash": "00000000e0be8c1aed8deec216f290765e072e5d909e5908b137418d99805bfe",
  "nextblockhash": "0000000079f9e79fd7c741bf261b712379495dc62d06eca38884e7aaf3887884",
  "strippedsize": 216,
  "size": 216,
  "weight": 864,
  "tx": [
    {
      "txid": "613fa987b3d6adefd48f9e79ec108490dc646ccc1cb50d50b923b7ce0ab12cd4",
      "hash": "613fa987b3d6adefd48f9e79ec108490dc646ccc1cb50d50b923b7ce0ab12cd4",
      "version": 1,
      "size": 135,
      "vsize": 135,
      "weight": 540,
      "locktime": 0,
      "vin": [
        {
          "coinbase": "04ffff001d022201",
          "sequence": 4294967295
        }
      ],
      "vout": [
        {
          "value": 50.0,
          "n": 0,
          "scriptPubKey": {
            "asm": "04692dd62fab327d5fbff9c1779d86445d485da523e71897992737a8b9527bcb82c16a35e1826c9d1f6337d6be30e9a5dbd87af51e07fd7a55c4f5716e1f1a409f OP_CHECKSIG",
            "desc": "pk(04692dd62fab327d5fbff9c1779d86445d485da523e71897992737a8b9527bcb82c16a35e1826c9d1f6337d6be30e9a5dbd87af51e07fd7a55c4f5716e1f1a409f)#kjgxdzqr",
            "hex": "4104692dd62fab327d5fbff9c1779d86445d485da523e71897992737a8b9527bcb82c16a35e1826c9d1f6337d6be30e9a5dbd87af51e07fd7a55c4f5716e1f1a409fac",
            "type": "pubkey"
          }
        }
      ],
      "hex": "01000000010000000000000000000000000000000000000000000000000000000000000000ffffffff0804ffff001d022201ffffffff0100f2052a01000000434104692dd62fab327d5fbff9c1779d86445d485da523e71897992737a8b9527bcb82c16a35e1826c9d1f6337d6be30e9a5dbd87af51e07fd7a55c4f5716e1f1a409fac00000000"
    }
  ]
}