{
  "hash": "00000000276544e3a758cda222e9291f01bd8d6fb6efe70779fd9bab600c7670",
  "confirmations": 44804,
  "height": 8294,
  "version": 1,
  "versionHex": "00000001",
  "merkleroot": "8ee239988981eeea165b92ac70ea3aab501824e754bb92f06b8931d7495971ce",
  "time": 1237726488,
  "mediantime": 1237724072,
  "nonce": 3953882169,
  "bits": "1d00ffff",
  "difficulty": 1,
  "chainwork": "0000000000000000000000000000000000000000000000000000206720672067",
  "nTx": 1,
  "previousblockhash": "00000000229bebfd3876c8c63e98123e6246458414fe432ccbd2b8cda6e28674",
  "nextblockhash": "000000004d057f5e39e780853e80c3447f2827344674d417b5715ed201397c35",
  "strippedsize": 216,
  "size": 216,
  "weight": 864,
  "tx": [
    {
      "txid": "8ee239988981eeea165b92ac70ea3aab501824e754bb92f06b8931d7495971ce",
      "hash": "8ee239988981eeea165b92ac70ea3aab501824e754bb92f06b8931d7495971ce",
      "version": 1,
      "size": 135,
      "vsize": 135,
      "weight": 540,
      "locktime": 0,
      "vin": [
        {
          "coinbase": "04ffff001d021804",
          "sequence": 4294967295
        }
      ],
      "vout": [
        {
          "value": 50.0,
          "n": 0,
          "scriptPubKey": {
            "asm": "046d312bb924609f67b59da2953e5d1da0ada6871d37a13c65fca3ed5cf6f60855d2dac86147b85965b608288acb97f7ee2991040736cbc8101eb0da00c186bf4a OP_CHECKSIG",
            "desc": "pk(046d312bb924609f67b59da2953e5d1da0ada6871d37a13c65fca3ed5cf6f60855d2dac86147b85965b608288acb97f7ee2991040736cbc8101eb0da00c186bf4a)#9ghskq8d",
            "hex": "41046d312bb924609f67b59da2953e5d1da0ada6871d37a13c65fca3ed5cf6f60855d2dac86147b85965b608288acb97f7ee2991040736cbc8101eb0da00c186bf4aac",
            "type": "pubkey"
          }
        }
      ],
      "hex": "01000000010000000000000000000000000000000000000000000000000000000000000000ffffffff0804ffff001d021804ffffffff0100f2052a010000004341046d312bb924609f67b59da2953e5d1da0ada6871d37a13c65fca3ed5cf6f60855d2dac86147b85965b608288acb97f7ee2991040736cbc8101eb0da00c186bf4aac00000000"
    }
  ]
}