{
  "hash": "0000000076a2ce70e7323a4f3ccae9302d0bd4452a0f164767cc872e70238acd",
  "confirmations": 48101,
  "height": 4997,
  "version": 1,
  "versionHex": "00000001",
  "merkleroot": "86a6f52f88bdc9bef5be5c52189eaa15cfe86dc903e29a3d6888e6e625b641dc",
  "time": 1235134464,
  "mediantime": 1235132549,
  "nonce": 1320530476,
  "bits": "1d00ffff",
  "difficulty": 1,
  "chainwork": "0000000000000000000000000000000000000000000000000000138613861386",
  "nTx": 1,
  "previousblockhash": "0000000067088c4f789903333a7e50cc34cbd5784f96d2a112670b5b571cd077",
  "nextblockhash": "0000000097af7bc4e7c62e316c7288ed6b37e7083ebd6209f17e5de60dfa98b1",
  "strippedsize": 216,
  "size": 216,
  "weight": 864,
  "tx": [
    {
      "txid": "86a6f52f88bdc9bef5be5c52189eaa15cfe86dc903e29a3d6888e6e625b641dc",
      "hash": "86a6f52f88bdc9bef5be5c52189eaa15cfe86dc903e29a3d6888e6e625b641dc",
      "version": 1,
      "size": 135,
      "vsize": 135,
      "weight": 540,
      "locktime": 0,
      "vin": [
        {
          "coinbase": "04ffff001d02f406",
          "sequence": 4294967295
        }
      ],
      "vout": [
        {
          "value": 50.0,
          "n": 0,
          "scriptPubKey": {
            "asm": "0455adee1e00110e05f740a0b54cd780eaf8cb40995fb64bb4e5776726588f9f905740503b770845ad3b21343bb2fd9c3cc6a77827f48c67b171d47181d55277b4 OP_CHECKSIG",
            "desc": "pk(0455adee1e00110e05f740a0b54cd780eaf8cb40995fb64bb4e5776726588f9f905740503b770845ad3b21343bb2fd9c3cc6a77827f48c67b171d47181d55277b4)#hncrq2m2",
            "hex": "410455adee1e00110e05f740a0b54cd780eaf8cb40995fb64bb4e5776726588f9f905740503b770845ad3b21343bb2fd9c3cc6a77827f48c67b171d47181d55277b4ac",
            "type": "pubkey"
          }
        }
      ],
      "hex": "01000000010000000000000000000000000000000000000000000000000000000000000000ffffffff0804ffff001d02f406ffffffff0100f2052a0100000043410455adee1e00110e05f740a0b54cd780eaf8cb40995fb64bb4e5776726588f9f905740503b770845ad3b21343bb2fd9c3cc6a77827f48c67b171d47181d55277b4ac00000000"
    }
  ]
}