{
  "hash": "000000009b1e720db75188c7817356f9f1c0752b30f654d480fa4a6a8c3e7ecb",
  "confirmations": 45575,
  "height": 7523,
  "version": 1,
  "versionHex": "00000001",
  "merkleroot": "e33837c83e103eb8844bda3314581f434f2d013c242b086d9617accc3eec4013",
  "time": 1237113741,
  "mediantime": 1237109947,
  "nonce": 21626893,
  "bits": "1d00ffff",
  "difficulty": 1,
  "chainwork": "00000000000000000000000000000000000000000000000000001d641d641d64",
  "nTx": 1,
  "previousblockhash": "00000000acba2569ca2b05b382b3dd2c0245f632742eb2cde3f626c175f43787",
  "nextblockhash": "0000000074c3a098f16c35b3084800a6a799bc59a46fbce5a27c9f4b47c8a9d7",
  "strippedsize": 216,
  "size": 216,
  "weight": 864,
  "tx": [
    {
      "txid": "e33837c83e103eb8844bda3314581f434f2d013c242b086d9617accc3eec4013",
      "hash": "e33837c83e103eb8844bda3314581f434f2d013c242b086d9617accc3eec4013",
      "version": 1,
      "size": 135,
      "vsize": 135,
      "weight": 540,
      "locktime": 0,
      "vin": [
        {
          "coinbase": "04ffff001d020103",
          "sequence": 4294967295
        }
      ],
      "vout": [
        {
          "value": 50.0,
          "n": 0,
          "scriptPubKey": {
            "asm": "0498b2336a25c401f44128cff589a72f299297cc8d9e3b50aa56fb046a6ed2b47547492669c160f7efe7b0540905008ae2e5c92330e14a5e64d0b3c0e454fc24d4 OP_CHECKSIG",
            "desc": "pk(0498b2336a25c401f44128cff589a72f299297cc8d9e3b50aa56fb046a6ed2b47547492669c160f7efe7b0540905008ae2e5c92330e14a5e64d0b3c0e454fc24d4)#gntknh6w",
            "hex": "410498b2336a25c401f44128cff589a72f299297cc8d9e3b50aa56fb046a6ed2b47547492669c160f7efe7b0540905008ae2e5c92330e14a5e64d0b3c0e454fc24d4ac",
            "type": "pubkey"
          }
        }
      ],
      "hex": "01000000010000000000000000000000000000000000000000000000000000000000000000ffffffff0804ffff001d020103ffffffff0100f2052a0100000043410498b2336a25c401f44128cff589a72f299297cc8d9e3b50aa56fb046a6ed2b47547492669c160f7efe7b0540905008ae2e5c92330e14a5e64d0b3c0e454fc24d4ac00000000"
    }
  ]
}