{
  "hash": "0000000011de33c7f0a5c814697d7844d1c6ea5894bb0a2fb348289632844018",
  "confirmations": 51062,
  "height": 2036,
  "version": 1,
  "versionHex": "00000001",
  "merkleroot": "789032697c67ca4dd6062c8c212b4edf910672eb7187739e87a49792f3e14cb9",
  "time": 1233080449,
  "mediantime": 1233076902,
  "nonce": 138685482,
  "bits": "1d00ffff",
  "difficulty": 1,
  "chainwork": "000000000000000000000000000000000000000000000000000007f507f507f5",
  "nTx": 1,
  "previousblockhash": "00000000837ed9c989ed7506b7ed9d04cffc3b32c9bc5bca7f4215d4c08f9237",
  "nextblockhash": "00000000fdda310197211d8baa3283412f078b2a4194d59b0713f08861415076",
  "strippedsize": 216,
  "size": 216,
  "weight": 864,
  "tx": [
    {
      "txid": "789032697c67ca4dd6062c8c212b4edf910672eb7187739e87a49792f3e14cb9",
      "hash": "789032697c67ca4dd6062c8c212b4edf910672eb7187739e87a49792f3e14cb9",
      "version": 1,
      "size": 135,
      "vsize": 135,
      "weight": 540,
      "locktime": 0,
      "vin": [
        {
          "coinbase": "04ffff001d027b02",
          "sequence": 4294967295
        }
      ],
      "vout": [
        {
          "value": 50.0,
          "n": 0,
          "scriptPubKey": {
            "asm": "04c4ccb0af30f08bf5bf7f8ba9b8d4f83b0d4b7edb77d1ecc139fdf2ec06d08e35c1dae8b2c10ad34fca2a4d8d97435c977f0769ee76129f3429302a09ea4bdcd7 OP_CHECKSIG",
            "desc": "pk(04c4ccb0af30f08bf5bf7f8ba9b8d4f83b0d4b7edb77d1ecc139fdf2ec06d08e35c1dae8b2c10ad34fca2a4d8d97435c977f0769ee76129f3429302a09ea4bdcd7)#c0x7x4dq",
            "hex": "4104c4ccb0af30f08bf5bf7f8ba9b8d4f83b0d4b7edb77d1ecc139fdf2ec06d08e35c1dae8b2c10ad34fca2a4d8d97435c977f0769ee76129f3429302a09ea4bdcd7ac",
            "type": "pubkey"
          }
        }
      ],
      "hex": "01000000010000000000000000000000000000000000000000000000000000000000000000ffffffff0804ffff001d027b02ffffffff0100f2052a01000000434104c4ccb0af30f08bf5bf7f8ba9b8d4f83b0d4b7edb77d1ecc139fdf2ec06d08e35c1dae8b2c10ad34fca2a4d8d97435c977f0769ee76129f3429302a09ea4bdcd7ac00000000"
    }
  ]
}