{
  "hash": "00000000921d00495e1b5fe6244e51580fdb85ee7bf0e9318d6f323a8ae76e17",
  "confirmations": 51423,
  "height": 1675,
  "version": 1,
  "versionHex": "00000001",
  "merkleroot": "b430d046a9ada1a7a44a69e1628544f73d0d830136098473dd3dbdcfe00d8c34",
  "time": 1232842441,
  "mediantime": 1232840964,
  "nonce": 2866439221,
  "bits": "1d00ffff",
  "difficulty": 1,
  "chainwork": "0000000000000000000000000000000000000000000000000000068c068c068c",
  "nTx": 1,
  "previousblockhash": "00000000e1652886c38b554715d975ca1b81c01291c93e0434b3d665cbea1896",
  "nextblockhash": "00000000bc8243c8b97e217b7ecc2b9b75eebfec61407e76ea29df12c676b149",
  "strippedsize": 216,
  "size": 216,
  "weight": 864,
  "tx": [
    {
      "txid": "b430d046a9ada1a7a44a69e1628544f73d0d830136098473dd3dbdcfe00d8c34",
      "hash": "b430d046a9ada1a7a44a69e1628544f73d0d830136098473dd3dbdcfe00d8c34",
      "version": 1,
      "size": 135,
      "vsize": 135,
      "weight": 540,
      "locktime": 0,
      "vin": [
        {
          "coinbase": "04ffff001d02e302",
          "sequence": 4294967295
        }
      ],
      "vout": [
        {
          "value": 50.0,
          "n": 0,
          "scriptPubKey": {
            "asm": "04ff1868c658f7fb1de243dd3bfaa99806f695b1c4cf96d35cb28c6d4d885bdfa783850521cd2753d31875523d7c2019f4558e701f088b62310b0f25bc40fefb57 OP_CHECKSIG",
            "desc": "pk(04ff1868c658f7fb1de243dd3bfaa99806f695b1c4cf96d35cb28c6d4d885bdfa783850521cd2753d31875523d7c2019f4558e701f088b62310b0f25bc40fefb57)#487vmyj5",
            "hex": "4104ff1868c658f7fb1de243dd3bfaa99806f695b1c4cf96d35cb28c6d4d885bdfa783850521cd2753d31875523d7c2019f4558e701f088b62310b0f25bc40fefb57ac",
            "type": "pubkey"
          }
        }
      ],
      "hex": "01000000010000000000000000000000000000000000000000000000000000000000000000ffffffff0804ffff001d02e302ffffffff0100f2052a01000000434104ff1868c658f7fb1de243dd3bfaa99806f695b1c4cf96d35cb28c6d4d885bdfa783850521cd2753d31875523d7c2019f4558e701f088b62310b0f25bc40fefb57ac00000000"
    }
  ]
}