{
  "hash": "00000000e56221fe739b4293f144e3e3345f729599a5ac97d35cf26ca38c8950",
  "confirmations": 45994,
  "height": 7104,
  "version": 1,
  "versionHex": "00000001",
  "merkleroot": "fb32c28cc5e03c8c10c3a3767f6b8c387498f96746fc9d56b0a188cd9d33a174",
  "time": 1236800214,
  "mediantime": 1236796664,
  "nonce": 2373591337,
  "bits": "1d00ffff",
  "difficulty": 1,
  "chainwork": "00000000000000000000000000000000000000000000000000001bc11bc11bc1",
  "nTx": 1,
  "previousblockhash": "00000000ecbc3550f96e5cf97c35a266eb0a55a316064a2d2a7da7111322c9e8",
  "nextblockhash": "00000000ca844600025aa239105586f08b88f3c384f318918c01b3f7865689fe",
  "strippedsize": 216,
  "size": 216,
  "weight": 864,
  "tx": [
    {
      "txid": "fb32c28cc5e03c8c10c3a3767f6b8c387498f96746fc9d56b0a188cd9d33a174",
      "hash": "fb32c28cc5e03c8c10c3a3767f6b8c387498f96746fc9d56b0a188cd9d33a174",
      "version": 1,
      "size": 135,
      "vsize": 135,
      "weight": 540,
      "locktime": 0,
      "vin": [
        {
          "coinbase": "04ffff001d02f703",
          "sequence": 4294967295
        }
      ],
      "vout": [
        {
          "value": 50.0,
          "n": 0,
          "scriptPubKey": {
            "asm": "046ea342b2484be83ad87492382f381eb68721af7e40ec038cb94d2b4cb610bc99c37f6686e8a1ea3746e7ed32b3bd3469b7ffbaf827daa267b849527298341872 OP_CHECKSIG",
            "desc": "pk(046ea342b2484be83ad87492382f381eb68721af7e40ec038cb94d2b4cb610bc99c37f6686e8a1ea3746e7ed32b3bd3469b7ffbaf827daa267b849527298341872)#w3sm7s0e",
            "hex": "41046ea342b2484be83ad87492382f381eb68721af7e40ec038cb94d2b4cb610bc99c37f6686e8a1ea3746e7ed32b3bd3469b7ffbaf827daa267b849527298341872ac",
            "type": "pubkey"
          }
        }
      ],
      "hex": "01000000010000000000000000000000000000000000000000000000000000000000000000ffffffff0804ffff001d02f703ffffffff0100f2052a010000004341046ea342b2484be83ad87492382f381eb68721af7e40ec038cb94d2b4cb610bc99c37f6686e8a1ea3746e7ed32b3bd3469b7ffbaf827daa267b849527298341872ac00000000"
    }
  ]
}