{
  "hash": "0000000080641eb0b46507f316943ffde2543b371233dc30511b3679f57739e7",
  "confirmations": 47352,
  "height": 5746,
  "version": 1,
  "versionHex": "00000001",
  "merkleroot": "669ca8e42108a3013e28eab380c0bf0afb0c2faeb65816c81e8fd6f45f315525",
  "time": 1235718892,
  "mediantime": 1235714946,
  "nonce": 4115536947,
  "bits": "1d00ffff",
  "difficulty": 1,
  "chainwork": "0000000000000000000000000000000000000000000000000000167316731673",
  "nTx": 1,
  "previousblockhash": "00000000c8d895150743b70dcfbadbbc5daaae7ec8d697d1a02ea2d5e3b56aa3",
  "nextblockhash": "00000000f114c2a19b4ce84b9dd7120e6f777f68bafd5da0872f1e2dd61ac71c",
  "strippedsize": 216,
  "size": 216,
  "weight": 864,
  "tx": [
    {
      "txid": "669ca8e42108a3013e28eab380c0bf0afb0c2faeb65816c81e8fd6f45f315525",
      "hash": "669ca8e42108a3013e28eab380c0bf0afb0c2faeb65816c81e8fd6f45f315525",
      "version": 1,
      "size": 135,
      "vsize": 135,
      "weight": 540,
      "locktime": 0,
      "vin": [
        {
          "coinbase": "04ffff001d02350a",
          "sequence": 4294967295
        }
      ],
      "vout": [
        {
          "value": 50.0,
          "n": 0,
          "scriptPubKey": {
            "asm": "0415d783f38c17ff7580968f76b3b1aec51c279862373ccc3cad029a1ddcc5a7dc3d4d993e33d720c02c5fd9ef6bc20e1c21fda11abd8c54c71e7f455d2bcc8137 OP_CHECKSIG",
            "desc": "pk(0415d783f38c17ff7580968f76b3b1aec51c279862373ccc3cad029a1ddcc5a7dc3d4d993e33d720c02c5fd9ef6bc20e1c21fda11abd8c54c71e7f455d2bcc8137)#jjcqhgpj",
            "hex": "410415d783f38c17ff7580968f76b3b1aec51c279862373ccc3cad029a1ddcc5a7dc3d4d993e33d720c02c5fd9ef6bc20e1c21fda11abd8c54c71e7f455d2bcc8137ac",
            "type": "pubkey"
          }
        }
      ],
      "hex": "01000000010000000000000000000000000000000000000000000000000000000000000000ffffffff0804ffff001d02350affffffff0100f2052a0100000043410415d783f38c17ff7580968f76b3b1aec51c279862373ccc3cad029a1ddcc5a7dc3d4d993e33d720c02c5fd9ef6bc20e1c21fda11abd8c54c71e7f455d2bcc8137ac00000000"
    }
  ]
}