{
  "hash": "0000000054573a9e32aed11105dd68d64a00ee431f17846f5ff3b3d198a453d8",
  "confirmations": 51140,
  "height": 1958,
  "version": 1,
  "versionHex": "00000001",
  "merkleroot": "d3e4d9fff549c3ace68e37d19045002a1045d862df3e3e54d88773d940ccc3e8",
  "time": 1233014006,
  "mediantime": 1233010123,
  "nonce": 161209651,
  "bits": "1d00ffff",
  "difficulty": 1,
  "chainwork": "000000000000000000000000000000000000000000000000000007a707a707a7",
  "nTx": 1,
  "previousblockhash": "00000000c8b4a5829742a4b5da101072d2971e4f04852cb01025972c3466ade8",
  "nextblockhash": "0000000061d5ec8fb1e4b5ece099519a437af09b8b5e9590604760964e188b14",
  "strippedsize": 216,
  "size": 216,
  "weight": 864,
  "tx": [
    {
      "txid": "d3e4d9fff549c3ace68e37d19045002a1045d862df3e3e54d88773d940ccc3e8",
      "hash": "d3e4d9fff549c3ace68e37d19045002a1045d862df3e3e54d88773d940ccc3e8",
      "version": 1,
      "size": 135,
      "vsize": 135,
      "weight": 540,
      "locktime": 0,
      "vin": [
        {
          "coinbase": "04ffff001d02b100",
          "sequence": 4294967295
        }
      ],
      "vout": [
        {
          "value": 50.0,
          "n": 0,
          "scriptPubKey": {
            "asm": "041f97c7a8deb771b988b663fbbdf7d2f9f276a44265379cb7eef958cac75d53f46719a10b873f6f3ea90877b0cbd634626be27dceed8c034720565bf31eb6e862 OP_CHECKSIG",
            "desc": "pk(041f97c7a8deb771b988b663fbbdf7d2f9f276a44265379cb7eef958cac75d53f46719a10b873f6f3ea90877b0cbd634626be27dceed8c034720565bf31eb6e862)#0gte4l36",
            "hex": "41041f97c7a8deb771b988b663fbbdf7d2f9f276a44265379cb7eef958cac75d53f46719a10b873f6f3ea90877b0cbd634626be27dceed8c034720565bf31eb6e862ac",
            "type": "pubkey"
          }
        }
      ],
      "hex": "01000000010000000000000000000000000000000000000000000000000000000000000000ffffffff0804ffff001d02b100ffffffff0100f2052a010000004341041f97c7a8deb771b988b663fbbdf7d2f9f276a44265379cb7eef958cac75d53f46719a10b873f6f3ea90877b0cbd634626be27dceed8c034720565bf31eb6e862ac00000000"
    }
  ]
}