{
  "hash": "000000001cd3ea335cdf6fbffe7fa954f761d16ff19893f04465916a3f5f5dc3",
  "confirmations": 52070,
  "height": 265,
  "version": 1,
  "versionHex": "00000001",
  "merkleroot": "3cbcfdf7fa3c6312ee0c38dc2263cdba176a0012ea818ef99f833115f363ab11",
  "time": 1231806051,
  "mediantime": 1231802728,
  "nonce": 9678169,
  "bits": "1d00ffff",
  "difficulty": 1,
  "chainwork": "0000000000000000000000000000000000000000000000000000010a010a010a",
  "nTx": 1,
  "previousblockhash": "00000000641f9b99064bda263144a08761757b566357f49e95f516b0b5a4b778",
  "nextblockhash": "0000000054de543828fb973ecf9302291426f1e99189b03c97f618f79eebf4b3",
  "strippedsize": 215,
  "size": 215,
  "weight": 860,
  "tx": [
    {
      "txid": "3cbcfdf7fa3c6312ee0c38dc2263cdba176a0012ea818ef99f833115f363ab11",
      "hash": "3cbcfdf7fa3c6312ee0c38dc2263cdba176a0012ea818ef99f833115f363ab11",
      "version": 1,
      "size": 134,
      "vsize": 134,
      "weight": 536,
      "locktime": 0,
      "vin": [
        {
          "coinbase": "04ffff001d0124",
          "sequence": 4294967295
        }
      ],
      "vout": [
        {
          "value": 50.0,
          "n": 0,
          "scriptPubKey": {
            "asm": "0462d178dd982f4fe3428cf6101ec138c5d42ac62b02ce8ce1cd1e2ff1e304c9a330009c64d7f30da61e7a5af9fd1d05a992477596512275657336403aa65f3885 OP_CHECKSIG",
            "desc": "pk(0462d178dd982f4fe3428cf6101ec138c5d42ac62b02ce8ce1cd1e2ff1e304c9a330009c64d7f30da61e7a5af9fd1d05a992477596512275657336403aa65f3885)#zv43czkv",
            "hex": "410462d178dd982f4fe3428cf6101ec138c5d42ac62b02ce8ce1cd1e2ff1e304c9a330009c64d7f30da61e7a5af9fd1d05a992477596512275657336403aa65f3885ac",
            "type": "pubkey"
          }
        }
      ],
      "hex": "01000000010000000000000000000000000000000000000000000000000000000000000000ffffffff0704ffff001d0124ffffffff0100f2052a0100000043410462d178dd982f4fe3428cf6101ec138c5d42ac62b02ce8ce1cd1e2ff1e304c9a330009c64d7f30da61e7a5af9fd1d05a992477596512275657336403aa65f3885ac00000000"
    }
  ]
}