{
  "hash": "000000005e76a77d1df74039b6a9df2cfb89fd0a6f1886fb0414ece69e002b73",
  "confirmations": 49822,
  "height": 3276,
  "version": 1,
  "versionHex": "00000001",
  "merkleroot": "22cf65888421f54cc081f7600187184497a8488d7845e4e1ca7d2c4e60d9eafc",
  "time": 1233953514,
  "mediantime": 1233950059,
  "nonce": 80553522,
  "bits": "1d00ffff",
  "difficulty": 1,
  "chainwork": "00000000000000000000000000000000000000000000000000000ccd0ccd0ccd",
  "nTx": 1,
  "previousblockhash": "0000000092fb00c5a89097a1967f22d4018fd8ec516e65ff0e5da8f2ab0eb0d7",
  "nextblockhash": "00000000b07fea10b769fe1ae372fd23705f11142c4a7b3627ff04041afc80c5",
  "strippedsize": 215,
  "size": 215,
  "weight": 860,
  "tx": [
    {
      "txid": "22cf65888421f54cc081f7600187184497a8488d7845e4e1ca7d2c4e60d9eafc",
      "hash": "22cf65888421f54cc081f7600187184497a8488d7845e4e1ca7d2c4e60d9eafc",
      "version": 1,
      "size": 134,
      "vsize": 134,
      "weight": 536,
      "locktime": 0,
      "vin": [
        {
          "coinbase": "04ffff001d0164",
          "sequence": 4294967295
        }
      ],
      "vout": [
        {
          "value": 50.0,
          "n": 0,
          "scriptPubKey": {
            "asm": "04a30e8b8deda5de29db42bbc0e682c4bd71fe281c3a6d6c7cf3b861cf960bab49c84a291eef409743bdd03aaabae0d5d0ce5b8d6cd5135ce445136db172471d3c OP_CHECKSIG",
            "desc": "pk(04a30e8b8deda5de29db42bbc0e682c4bd71fe281c3a6d6c7cf3b861cf960bab49c84a291eef409743bdd03aaabae0d5d0ce5b8d6cd5135ce445136db172471d3c)#0r4cy73s",
            "hex": "4104a30e8b8deda5de29db42bbc0e682c4bd71fe281c3a6d6c7cf3b861cf960bab49c84a291eef409743bdd03aaabae0d5d0ce5b8d6cd5135ce445136db172471d3cac",
            "type": "pubkey"
          }
        }
      ],
      "hex": "01000000010000000000000000000000000000000000000000000000000000000000000000ffffffff0704ffff001d0164ffffffff0100f2052a01000000434104a30e8b8deda5de29db42bbc0e682c4bd71fe281c3a6d6c7cf3b861cf960bab49c84a291eef409743bdd03aaabae0d5d0ce5b8d6cd5135ce445136db172471d3cac00000000"
    }
  ]
}