{
  "hash": "00000000815f50e231547f23c2b67a932b6d9fd53f246c1aace8290ee2ba8b4e",
  "confirmations": 46283,
  "height": 6815,
  "version": 1,
  "versionHex": "00000001",
  "merkleroot": "c9a7d8954949c3c0072fb2cba787791b56eb479b62b0241cdf12a8d711fc0946",
  "time": 1236566557,
  "mediantime": 1236564434,
  "nonce": 3527591988,
  "bits": "1d00ffff",
  "difficulty": 1,
  "chainwork": "00000000000000000000000000000000000000000000000000001aa01aa01aa0",
  "nTx": 1,
  "previousblockhash": "000000008e316e5d1e71a6c2d2d9812ad71736a28eb4d76fd7f933ed7b02a52a",
  "nextblockhash": "00000000c47a7d088188d3d7fdc2bf2beee5a4546796491bad5f3c0976cc8312",
  "strippedsize": 216,
  "size": 216,
  "weight": 864,
  "tx": [
    {
      "txid": "c9a7d8954949c3c0072fb2cba787791b56eb479b62b0241cdf12a8d711fc0946",
      "hash": "c9a7d8954949c3c0072fb2cba787791b56eb479b62b0241cdf12a8d711fc0946",
      "version": 1,
      "size": 135,
      "vsize": 135,
      "weight": 540,
      "locktime": 0,
      "vin": [
        {
          "coinbase": "04ffff001d023e09",
          "sequence": 4294967295
        }
      ],
      "vout": [
        {
          "value": 50.0,
          "n": 0,
          "scriptPubKey": {
            "asm": "047073fa1927b3d215d9064ebc58aea11a581993f30a959de5e88ce183ebd8c77246afc45aabe5659f241523cd5773bcb57b3f7455c2e9e6ba5a04f1c4f0a83e64 OP_CHECKSIG",
            "desc": "pk(047073fa1927b3d215d9064ebc58aea11a581993f30a959de5e88ce183ebd8c77246afc45aabe5659f241523cd5773bcb57b3f7455c2e9e6ba5a04f1c4f0a83e64)#mq2gtdv3",
            "hex": "41047073fa1927b3d215d9064ebc58aea11a581993f30a959de5e88ce183ebd8c77246afc45aabe5659f241523cd5773bcb57b3f7455c2e9e6ba5a04f1c4f0a83e64ac",
            "type": "pubkey"
          }
        }
      ],
      "hex": "01000000010000000000000000000000000000000000000000000000000000000000000000ffffffff0804ffff001d023e09ffffffff0100f2052a010000004341047073fa1927b3d215d9064ebc58aea11a581993f30a959de5e88ce183ebd8c77246afc45aabe5659f241523cd5773bcb57b3f7455c2e9e6ba5a04f1c4f0a83e64ac00000000"
    }
  ]
}