{
  "hash": "000000006ef058072941c3af8ff373e2a8fd59fe1caf0c6795b2cc54d1fa2d71",
  "confirmations": 44641,
  "height": 8457,
  "version": 1,
  "versionHex": "00000001",
  "merkleroot": "9f02fec80d4fc9997e4d7cf89ba4f68526b36ccaa5b4ab9fd61b9a43d7f17535",
  "time": 1237835104,
  "mediantime": 1237830809,
  "nonce": 3272078081,
  "bits": "1d00ffff",
  "difficulty": 1,
  "chainwork": "0000000000000000000000000000000000000000000000000000210a210a210a",
  "nTx": 1,
  "previousblockhash": "00000000eba4f5990ca6e790a8611124e774acc8f5a662056d2b960e0a02c806",
  "nextblockhash": "00000000af567d147c0ff1353285ad51e2b904c958b36c45e5d4a99c124d6092",
  "strippedsize": 216,
  "size": 216,
  "weight": 864,
  "tx": [
    {
      "txid": "9f02fec80d4fc9997e4d7cf89ba4f68526b36ccaa5b4ab9fd61b9a43d7f17535",
      "hash": "9f02fec80d4fc9997e4d7cf89ba4f68526b36ccaa5b4ab9fd61b9a43d7f17535",
      "version": 1,
      "size": 135,
      "vsize": 135,
      "weight": 540,
      "locktime": 0,
      "vin": [
        {
          "coinbase": "04ffff001d02de06",
          "sequence": 4294967295
        }
      ],
      "vout": [
        {
          "value": 50.0,
          "n": 0,
          "scriptPubKey": {
            "asm": "04220539406d17d43ba70d6e19fabbd34ba91c42f11af9bbb93c5b395d8d0687aad6360fedee50ead76ad7b32b65f6dded395d3a4d577efef611431884189b2d86 OP_CHECKSIG",
            "desc": "pk(04220539406d17d43ba70d6e19fabbd34ba91c42f11af9bbb93c5b395d8d0687aad6360fedee50ead76ad7b32b65f6dded395d3a4d577efef611431884189b2d86)#duhqejdt",
            "hex": "4104220539406d17d43ba70d6e19fabbd34ba91c42f11af9bbb93c5b395d8d0687aad6360fedee50ead76ad7b32b65f6dded395d3a4d577efef611431884189b2d86ac",
            "type": "pubkey"
          }
        }
      ],
      "hex": "01000000010000000000000000000000000000000000000000000000000000000000000000ffffffff0804ffff001d02de06ffffffff0100f2052a01000000434104220539406d17d43ba70d6e19fabbd34ba91c42f11af9bbb93c5b395d8d0687aad6360fedee50ead76ad7b32b65f6dded395d3a4d577efef611431884189b2d86ac00000000"
    }
  ]
}