{
  "hash": "0000000059d23e34eb3dcda6bc4bd13c5f96354168db30ed14bfba4be20eaeae",
  "confirmations": 47615,
  "height": 5483,
  "version": 1,
  "versionHex": "00000001",
  "merkleroot": "081bccfa1ac7f3cf724af6df6917a4a8d4e7cf641217c5f1635eca4a286e3556",
  "time": 1235505261,
  "mediantime": 1235502545,
  "nonce": 2484589871,
  "bits": "1d00ffff",
  "difficulty": 1,
  "chainwork": "0000000000000000000000000000000000000000000000000000156c156c156c",
  "nTx": 1,
  "previousblockhash": "00000000986d1199ba058a27a8e3b8bcc2cef88101bff887865c5bb154ca5e5f",
  "nextblockhash": "00000000a51d7f1727d1b484ae0c8cfdcc0576c291be93622b1be931134225e0",
  "strippedsize": 216,
  "size": 216,
  "weight": 864,
  "tx": [
    {
      "txid": "081bccfa1ac7f3cf724af6df6917a4a8d4e7cf641217c5f1635eca4a286e3556",
      "hash": "081bccfa1ac7f3cf724af6df6917a4a8d4e7cf641217c5f1635eca4a286e3556",
      "version": 1,
      "size": 135,
      "vsize": 135,
      "weight": 540,
      "locktime": 0,
      "vin": [
        {
          "coinbase": "04ffff001d024205",
          "sequence": 4294967295
        }
      ],
      "vout": [
        {
          "value": 50.0,
          "n": 0,
          "scriptPubKey": {
            "asm": "04376f60394e2591d3322882b2ee129614d485f20188550be0c25b772ccbef3ea6ce88082dc92a3f0582d6dbc46ff3a4cff3a53c2023761b57682aa5e7560d8107 OP_CHECKSIG",
            "desc": "pk(04376f60394e2591d3322882b2ee129614d485f20188550be0c25b772ccbef3ea6ce88082dc92a3f0582d6dbc46ff3a4cff3a53c2023761b57682aa5e7560d8107)#wwhagef9",
            "hex": "4104376f60394e2591d3322882b2ee129614d485f20188550be0c25b772ccbef3ea6ce88082dc92a3f0582d6dbc46ff3a4cff3a53c2023761b57682aa5e7560d8107ac",
            "type": "pubkey"
          }
        }
      ],
      "hex": "01000000010000000000000000000000000000000000000000000000000000000000000000ffffffff0804ffff001d024205ffffffff0100f2052a01000000434104376f60394e2591d3322882b2ee129614d485f20188550be0c25b772ccbef3ea6ce88082dc92a3f0582d6dbc46ff3a4cff3a53c2023761b57682aa5e7560d8107ac00000000"
    }
  ]
}