{
  "hash": "00000000eb110fd65125802a2fcd5d1b68fd6c77a2019c5c7a4e11599dfa1a01",
  "confirmations": 51367,
  "height": 1731,
  "version": 1,
  "versionHex": "00000001",
  "merkleroot": "84cf175b32498d96a2dc71139429a7a2e78f0d80e85da27df63f6441714eeadf",
  "time": 1232865177,
  "mediantime": 1232862892,
  "nonce": 1497935417,
  "bits": "1d00ffff",
  "difficulty": 1,
  "chainwork": "000000000000000000000000000000000000000000000000000006c406c406c4",
  "nTx": 1,
  "previousblockhash": "000000006887ff71c96202da488a0052f79e4c03b1d098bccbd6f80b9c6be7e2",
  "nextblockhash": "0000000025de8cfd005b4e2e485ad0838870d9158ffcc350a3179e469920e3a3",
  "strippedsize": 216,
  "size": 216,
  "weight": 864,
  "tx": [
    {
      "txid": "84cf175b32498d96a2dc71139429a7a2e78f0d80e85da27df63f6441714eeadf",
      "hash": "84cf175b32498d96a2dc71139429a7a2e78f0d80e85da27df63f6441714eeadf",
      "version": 1,
      "size": 135,
      "vsize": 135,
      "weight": 540,
      "locktime": 0,
      "vin": [
        {
          "coinbase": "04ffff001d026403",
          "sequence": 4294967295
        }
      ],
      "vout": [
        {
          "value": 50.0,
          "n": 0,
          "scriptPubKey": {
            "asm": "0400a3a070299a8727cffff2e69f317f5175cb4750696283a6105736de11ce15b6b7ed51e9aabb45a61a4c8fa5215f35c5596c100d0199cbd6087d028d7924e135 OP_CHECKSIG",
            "desc": "pk(0400a3a070299a8727cffff2e69f317f5175cb4750696283a6105736de11ce15b6b7ed51e9aabb45a61a4c8fa5215f35c5596c100d0199cbd6087d028d7924e135)#uwn8hy74",
            "hex": "410400a3a070299a8727cffff2e69f317f5175cb4750696283a6105736de11ce15b6b7ed51e9aabb45a61a4c8fa5215f35c5596c100d0199cbd6087d028d7924e135ac",
            "type": "pubkey"
          }
        }
      ],
      "hex": "01000000010000000000000000000000000000000000000000000000000000000000000000ffffffff0804ffff001d026403ffffffff0100f2052a0100000043410400a3a070299a8727cffff2e69f317f5175cb4750696283a6105736de11ce15b6b7ed51e9aabb45a61a4c8fa5215f35c5596c100d0199cbd6087d028d7924e135ac00000000"
    }
  ]
}