{
  "hash": "00000000cfff955cc1a30a3a8acb859b7636afd57b733acdbe43424282901e32",
  "confirmations": 49113,
  "height": 3985,
  "version": 1,
  "versionHex": "00000001",
  "merkleroot": "92997a22743efdd83f84a606613f9e68b255220380ec5e7008ed6381ecd520ed",
  "time": 1234431623,
  "mediantime": 1234427531,
  "nonce": 323625109,
  "bits": "1d00ffff",
  "difficulty": 1,
  "chainwork": "00000000000000000000000000000000000000000000000000000f920f920f92",
  "nTx": 1,
  "previousblockhash": "0000000053ba3bc1830f26bcd47e890f68582708b270022d51d284039bf00e23",
  "nextblockhash": "0000000095377cddc2c5ae9d490ff21009dfec53267e96fc3e8ab471325a30d6",
  "strippedsize": 216,
  "size": 216,
  "weight": 864,
  "tx": [
    {
      "txid": "92997a22743efdd83f84a606613f9e68b255220380ec5e7008ed6381ecd520ed",
      "hash": "92997a22743efdd83f84a606613f9e68b255220380ec5e7008ed6381ecd520ed",
      "version": 1,
      "size": 135,
      "vsize": 135,
      "weight": 540,
      "locktime": 0,
      "vin": [
        {
          "coinbase": "04ffff001d022508",
          "sequence": 4294967295
        }
      ],
      "vout": [
        {
          "value": 50.0,
          "n": 0,
          "scriptPubKey": {
            "asm": "042617cedc61453203726669ae18da1c5cf5cb6f9eade64950a8cb9638433051712d105ee9c23cedc2d8b1c88bfcf3f3ad1eb8accdc3c8da0313c8f90557850d0c OP_CHECKSIG",
            "desc": "pk(042617cedc61453203726669ae18da1c5cf5cb6f9eade64950a8cb9638433051712d105ee9c23cedc2d8b1c88bfcf3f3ad1eb8accdc3c8da0313c8f90557850d0c)#v3edejfy",
            "hex": "41042617cedc61453203726669ae18da1c5cf5cb6f9eade64950a8cb9638433051712d105ee9c23cedc2d8b1c88bfcf3f3ad1eb8accdc3c8da0313c8f90557850d0cac",
            "type": "pubkey"
          }
        }
      ],
      "hex": "01000000010000000000000000000000000000000000000000000000000000000000000000ffffffff0804ffff001d022508ffffffff0100f2052a010000004341042617cedc61453203726669ae18da1c5cf5cb6f9eade64950a8cb9638433051712d105ee9c23cedc2d8b1c88bfcf3f3ad1eb8accdc3c8da0313c8f90557850d0cac00000000"
    }
  ]
}