{
  "hash": "0000000022c4ed981e60b3cccebb719b1fe19ab4d34dd968310dcd1c92a2b9d8",
  "confirmations": 47176,
  "height": 5922,
  "version": 1,
  "versionHex": "00000001",
  "merkleroot": "8fb1e1988861693b7b3005e24011e54e6d8f3464d60851435ccb43a2713ea0b8",
  "time": 1235864313,
  "mediantime": 1235859214,
  "nonce": 866120216,
  "bits": "1d00ffff",
  "difficulty": 1,
  "chainwork": "0000000000000000000000000000000000000000000000000000172317231723",
  "nTx": 1,
  "previousblockhash": "00000000190bbcbb2a1d39f08098822eb54172123beac580660d1fe23944305a",
  "nextblockhash": "00000000dff3628050a0cf1dc78296821bed27e7c64a4257fb1a81b7e4f1841e",
  "strippedsize": 216,
  "size": 216,
  "weight": 864,
  "tx": [
    {
      "txid": "8fb1e1988861693b7b3005e24011e54e6d8f3464d60851435ccb43a2713ea0b8",
      "hash": "8fb1e1988861693b7b3005e24011e54e6d8f3464d60851435ccb43a2713ea0b8",
      "version": 1,
      "size": 135,
      "vsize": 135,
      "weight": 540,
      "locktime": 0,
      "vin": [
        {
          "coinbase": "04ffff001d028203",
          "sequence": 4294967295
        }
      ],
      "vout": [
        {
          "value": 50.0,
          "n": 0,
          "scriptPubKey": {
            "asm": "046d3269ca27b0b09663babb37cf86f671219628ca2c6485897a17284377d4e707489d96687bea2c4666f69048f9c121a5c094b2f3462219754bf627bc49e7d29c OP_CHECKSIG",
            "desc": "pk(046d3269ca27b0b09663babb37cf86f671219628ca2c6485897a17284377d4e707489d96687bea2c4666f69048f9c121a5c094b2f3462219754bf627bc49e7d29c)#uah5mpwu",
            "hex": "41046d3269ca27b0b09663babb37cf86f671219628ca2c6485897a17284377d4e707489d96687bea2c4666f69048f9c121a5c094b2f3462219754bf627bc49e7d29cac",
            "type": "pubkey"
          }
        }
      ],
      "hex": "01000000010000000000000000000000000000000000000000000000000000000000000000ffffffff0804ffff001d028203ffffffff0100f2052a010000004341046d3269ca27b0b09663babb37cf86f671219628ca2c6485897a17284377d4e707489d96687bea2c4666f69048f9c121a5c094b2f3462219754bf627bc49e7d29cac00000000"
    }
  ]
}