{
  "hash": "0000000009e9cdbe92d53b0b9fe6bebeded78146fc57db033f58d10dd6a24d28",
  "confirmations": 47468,
  "height": 5630,
  "version": 1,
  "versionHex": "00000001",
  "merkleroot": "815ecd6c9cfee94ae825c822d7eb7f87d833eae5abe8e76cefac467ca32e986d",
  "time": 1235629708,
  "mediantime": 1235625865,
  "nonce": 4108204090,
  "bits": "1d00ffff",
  "difficulty": 1,
  "chainwork": "000000000000000000000000000000000000000000000000000015ff15ff15ff",
  "nTx": 1,
  "previousblockhash": "000000005172da61ecbd45772b661a760819fd016fff994e68a2d5a26ab3382a",
  "nextblockhash": "000000008f8eea4d988b36f4dac1eb2ca51b1ef1800e9747a3ce5e2271bda43c",
  "strippedsize": 216,
  "size": 216,
  "weight": 864,
  "tx": [
    {
      "txid": "815ecd6c9cfee94ae825c822d7eb7f87d833eae5abe8e76cefac467ca32e986d",
      "hash": "815ecd6c9cfee94ae825c822d7eb7f87d833eae5abe8e76cefac467ca32e986d",
      "version": 1,
      "size": 135,
      "vsize": 135,
      "weight": 540,
      "locktime": 0,
      "vin": [
        {
          "coinbase": "04ffff001d023a08",
          "sequence": 4294967295
        }
      ],
      "vout": [
        {
          "value": 50.0,
          "n": 0,
          "scriptPubKey": {
            "asm": "04a4bd6d2e8ffc86e9a2f4b484061f378d1882165db228bfd83a8b1dcdf70721ea256b880d9bdab776c1ff1c344a1464551ded118e02ac06a6ab59079c753356d9 OP_CHECKSIG",
            "desc": "pk(04a4bd6d2e8ffc86e9a2f4b484061f378d1882165db228bfd83a8b1dcdf70721ea256b880d9bdab776c1ff1c344a1464551ded118e02ac06a6ab59079c753356d9)#k9trmajf",
            "hex": "4104a4bd6d2e8ffc86e9a2f4b484061f378d1882165db228bfd83a8b1dcdf70721ea256b880d9bdab776c1ff1c344a1464551ded118e02ac06a6ab59079c753356d9ac",
            "type": "pubkey"
          }
        }
      ],
      "hex": "01000000010000000000000000000000000000000000000000000000000000000000000000ffffffff0804ffff001d023a08ffffffff0100f2052a01000000434104a4bd6d2e8ffc86e9a2f4b484061f378d1882165db228bfd83a8b1dcdf70721ea256b880d9bdab776c1ff1c344a1464551ded118e02ac06a6ab59079c753356d9ac00000000"
    }
  ]
}