{
  "hash": "000000009efd98f417a034d1b38cbf06a6026766cdba84dc1357ba6259610576",
  "confirmations": 52216,
  "height": 882,
  "version": 1,
  "versionHex": "00000001",
  "merkleroot": "220bc0f62832470a1b88e668d85e0644ffe92573b01de17dc2d801170136c88f",
  "time": 1232260301,
  "mediantime": 1232254751,
  "nonce": 2677933088,
  "bits": "1d00ffff",
  "difficulty": 1,
  "chainwork": "0000000000000000000000000000000000000000000000000000037303730373",
  "nTx": 1,
  "previousblockhash": "00000000b715b0c5b5812ff95850038bf5af4e00112511d9d673d9043f26fbe2",
  "nextblockhash": "00000000a45be7b90f33fa3ef9c2e5b842da5e021b4ce7434668dde286496946",
  "strippedsize": 216,
  "size": 216,
  "weight": 864,
  "tx": [
    {
      "txid": "220bc0f62832470a1b88e668d85e0644ffe92573b01de17dc2d801170136c88f",
      "hash": "220bc0f62832470a1b88e668d85e0644ffe92573b01de17dc2d801170136c88f",
      "version": 1,
      "size": 135,
      "vsize": 135,
      "weight": 540,
      "locktime": 0,
      "vin": [
        {
          "coinbase": "04ffff001d025103",
          "sequence": 4294967295
        }
      ],
      "vout": [
        {
          "value": 50.0,
          "n": 0,
          "scriptPubKey": {
            "asm": "041283eeaffb99e2fdae51bede7bd550ffcfe9e43fa84d68873f6d2976255453b0577cd5edb4dc98bc2b3d934eadc6ba4c11927afb6b575aab50753aaa0c8226bd OP_CHECKSIG",
            "desc": "pk(041283eeaffb99e2fdae51bede7bd550ffcfe9e43fa84d68873f6d2976255453b0577cd5edb4dc98bc2b3d934eadc6ba4c11927afb6b575aab50753aaa0c8226bd)#8v4sh46q",
            "hex": "41041283eeaffb99e2fdae51bede7bd550ffcfe9e43fa84d68873f6d2976255453b0577cd5edb4dc98bc2b3d934eadc6ba4c11927afb6b575aab50753aaa0c8226bdac",
            "type": "pubkey"
          }
        }
      ],
      "hex": "01000000010000000000000000000000000000000000000000000000000000000000000000ffffffff0804ffff001d025103ffffffff0100f2052a010000004341041283eeaffb99e2fdae51bede7bd550ffcfe9e43fa84d68873f6d2976255453b0577cd5edb4dc98bc2b3d934eadc6ba4c11927afb6b575aab50753aaa0c8226bdac00000000"
    }
  ]
}