{
  "hash": "0000000084054713ad279e29c8f8497ca80405e32aa728c71431ab7c802fcc56",
  "confirmations": 47430,
  "height": 5668,
  "version": 1,
  "versionHex": "00000001",
  "merkleroot": "961aa4513f5c1a988107e89016f28491091181487db67bb9f9ee3d67c5374034",
  "time": 1235664937,
  "mediantime": 1235661371,
  "nonce": 2717406262,
  "bits": "1d00ffff",
  "difficulty": 1,
  "chainwork": "0000000000000000000000000000000000000000000000000000162516251625",
  "nTx": 1,
  "previousblockhash": "000000005472019fbdfd744554f49b43d6fdbd8b17be944c385a4382f4fa563d",
  "nextblockhash": "0000000095a387d69be36dc016d5025fc12257f616e0defcbb76b89157e65c47",
  "strippedsize": 216,
  "size": 216,
  "weight": 864,
  "tx": [
    {
      "txid": "961aa4513f5c1a988107e89016f28491091181487db67bb9f9ee3d67c5374034",
      "hash": "961aa4513f5c1a988107e89016f28491091181487db67bb9f9ee3d67c5374034",
      "version": 1,
      "size": 135,
      "vsize": 135,
      "weight": 540,
      "locktime": 0,
      "vin": [
        {
          "coinbase": "04ffff001d02ef08",
          "sequence": 4294967295
        }
      ],
      "vout": [
        {
          "value": 50.0,
          "n": 0,
          "scriptPubKey": {
            "asm": "045dd43f9cc196a4dd7d723879e51ba60a133b0e21ea18c1488ff61f804a350f001adbb33c1cc7285f564c4e38ae1dded61e18d4fc3e40e7754c70e9c73f084418 OP_CHECKSIG",
            "desc": "pk(045dd43f9cc196a4dd7d723879e51ba60a133b0e21ea18c1488ff61f804a350f001adbb33c1cc7285f564c4e38ae1dded61e18d4fc3e40e7754c70e9c73f084418)#8y7gav37",
            "hex": "41045dd43f9cc196a4dd7d723879e51ba60a133b0e21ea18c1488ff61f804a350f001adbb33c1cc7285f564c4e38ae1dded61e18d4fc3e40e7754c70e9c73f084418ac",
            "type": "pubkey"
          }
        }
      ],
      "hex": "01000000010000000000000000000000000000000000000000000000000000000000000000ffffffff0804ffff001d02ef08ffffffff0100f2052a010000004341045dd43f9cc196a4dd7d723879e51ba60a133b0e21ea18c1488ff61f804a350f001adbb33c1cc7285f564c4e38ae1dded61e18d4fc3e40e7754c70e9c73f084418ac00000000"
    }
  ]
}