{
  "hash": "000000003562ac5b8c41bf0ed09ab126ac1bf5b244b65066df51472267c4d5f8",
  "confirmations": 47957,
  "height": 5141,
  "version": 1,
  "versionHex": "00000001",
  "merkleroot": "6e9d903c8d7374ab1360ea8d8e7703641662f4d5c1d500edf4cfefeb81517745",
  "time": 1235245510,
  "mediantime": 1235241691,
  "nonce": 954718775,
  "bits": "1d00ffff",
  "difficulty": 1,
  "chainwork": "0000000000000000000000000000000000000000000000000000141614161416",
  "nTx": 1,
  "previousblockhash": "00000000af61bb99c804897a63d7babcff6aa2e9b406d3baa291d0f87439b553",
  "nextblockhash": "0000000027f405f71ba9d1fb7239f96d32ae3b55d81237051243ff86ddd7a0c9",
  "strippedsize": 216,
  "size": 216,
  "weight": 864,
  "tx": [
    {
      "txid": "6e9d903c8d7374ab1360ea8d8e7703641662f4d5c1d500edf4cfefeb81517745",
      "hash": "6e9d903c8d7374ab1360ea8d8e7703641662f4d5c1d500edf4cfefeb81517745",
      "version": 1,
      "size": 135,
      "vsize": 135,
      "weight": 540,
      "locktime": 0,
      "vin": [
        {
          "coinbase": "04ffff001d02c809",
          "sequence": 4294967295
        }
      ],
      "vout": [
        {
          "value": 50.0,
          "n": 0,
          "scriptPubKey": {
            "asm": "04e61777e304a5d56112ae869308fdf2dc51533f4309f6dfd2241ca20b65de0074360c0949f7d45a1c9e05808af5167d9a25c4d98e332dfff30c5b0bd51ce97f66 OP_CHECKSIG",
            "desc": "pk(04e61777e304a5d56112ae869308fdf2dc51533f4309f6dfd2241ca20b65de0074360c0949f7d45a1c9e05808af5167d9a25c4d98e332dfff30c5b0bd51ce97f66)#vykdumwc",
            "hex": "4104e61777e304a5d56112ae869308fdf2dc51533f4309f6dfd2241ca20b65de0074360c0949f7d45a1c9e05808af5167d9a25c4d98e332dfff30c5b0bd51ce97f66ac",
            "type": "pubkey"
          }
        }
      ],
      "hex": "01000000010000000000000000000000000000000000000000000000000000000000000000ffffffff0804ffff001d02c809ffffffff0100f2052a01000000434104e61777e304a5d56112ae869308fdf2dc51533f4309f6dfd2241ca20b65de0074360c0949f7d45a1c9e05808af5167d9a25c4d98e332dfff30c5b0bd51ce97f66ac00000000"
    }
  ]
}