{
  "hash": "00000000b27e51b65247e5d4f0fc2922209298dec199e2d6ad8eda9910c2e756",
  "confirmations": 45131,
  "height": 7967,
  "version": 1,
  "versionHex": "00000001",
  "merkleroot": "750f4a87c2efbccef53a224b0716832956c90c438488a0ee62c6113ebac9136e",
  "time": 1237438973,
  "mediantime": 1237436715,
  "nonce": 2172794371,
  "bits": "1d00ffff",
  "difficulty": 1,
  "chainwork": "00000000000000000000000000000000000000000000000000001f201f201f20",
  "nTx": 1,
  "previousblockhash": "0000000059fd909513a8ca388de12b87c04665d1f131f8d9d243eb50441696a3",
  "nextblockhash": "00000000ef518f0c1cfa351a02ad267f83a1165d959ce1d757b138e1cfea4f0f",
  "strippedsize": 216,
  "size": 216,
  "weight": 864,
  "tx": [
    {
      "txid": "750f4a87c2efbccef53a224b0716832956c90c438488a0ee62c6113ebac9136e",
      "hash": "750f4a87c2efbccef53a224b0716832956c90c438488a0ee62c6113ebac9136e",
      "version": 1,
      "size": 135,
      "vsize": 135,
      "weight": 540,
      "locktime": 0,
      "vin": [
        {
          "coinbase": "04ffff001d02c408",
          "sequence": 4294967295
        }
      ],
      "vout": [
        {
          "value": 50.0,
          "n": 0,
          "scriptPubKey": {
            "asm": "04a65cf171d1677dbb1c36e31a5f5068485d0833841fb6c812fb4fbf79a37ba97ac841ce2364d5e8a16ca86c4e1aa06819a545d5ac653e176905105b8f50e0946b OP_CHECKSIG",
            "desc": "pk(04a65cf171d1677dbb1c36e31a5f5068485d0833841fb6c812fb4fbf79a37ba97ac841ce2364d5e8a16ca86c4e1aa06819a545d5ac653e176905105b8f50e0946b)#jvvt7z3s",
            "hex": "4104a65cf171d1677dbb1c36e31a5f5068485d0833841fb6c812fb4fbf79a37ba97ac841ce2364d5e8a16ca86c4e1aa06819a545d5ac653e176905105b8f50e0946bac",
            "type": "pubkey"
          }
        }
      ],
      "hex": "01000000010000000000000000000000000000000000000000000000000000000000000000ffffffff0804ffff001d02c408ffffffff0100f2052a01000000434104a65cf171d1677dbb1c36e31a5f5068485d0833841fb6c812fb4fbf79a37ba97ac841ce2364d5e8a16ca86c4e1aa06819a545d5ac653e176905105b8f50e0946bac00000000"
    }
  ]
}