{
  "hash": "0000000016d49814f2a12452f3d3d37b846be12702f9f3932c4eb9c4d3eb39ef",
  "confirmations": 46986,
  "height": 6112,
  "version": 1,
  "versionHex": "00000001",
  "merkleroot": "dc9068da116f4f32d54a2f65cb707f5883498dc8b7871a08785ecfaf8f3c6336",
  "time": 1236017896,
  "mediantime": 1236014318,
  "nonce": 5101212,
  "bits": "1d00ffff",
  "difficulty": 1,
  "chainwork": "000000000000000000000000000000000000000000000000000017e117e117e1",
  "nTx": 1,
  "previousblockhash": "000000005b28ffb3c31a309a53425a7190ec55af9c65c574e6b5abd45ce83846",
  "nextblockhash": "000000000bc1098aa151e3f9666914be2db86f9f1b6372f20a8013a2ef587934",
  "strippedsize": 216,
  "size": 216,
  "weight": 864,
  "tx": [
    {
      "txid": "dc9068da116f4f32d54a2f65cb707f5883498dc8b7871a08785ecfaf8f3c6336",
      "hash": "dc9068da116f4f32d54a2f65cb707f5883498dc8b7871a08785ecfaf8f3c6336",
      "version": 1,
      "size": 135,
      "vsize": 135,
      "weight": 540,
      "locktime": 0,
      "vin": [
        {
          "coinbase": "04ffff001d02c400",
          "sequence": 4294967295
        }
      ],
      "vout": [
        {
          "value": 50.0,
          "n": 0,
          "scriptPubKey": {
            "asm": "046bd91bd87ce1040b5645644e88355e3d3e18a95380465880ca7f82d05669c0d3b78545d45092d50f26e9ec889320758843507eba258dd86398ea6616f11c8134 OP_CHECKSIG",
            "desc": "pk(046bd91bd87ce1040b5645644e88355e3d3e18a95380465880ca7f82d05669c0d3b78545d45092d50f26e9ec889320758843507eba258dd86398ea6616f11c8134)#33kggq46",
            "hex": "41046bd91bd87ce1040b5645644e88355e3d3e18a95380465880ca7f82d05669c0d3b78545d45092d50f26e9ec889320758843507eba258dd86398ea6616f11c8134ac",
            "type": "pubkey"
          }
        }
      ],
      "hex": "01000000010000000000000000000000000000000000000000000000000000000000000000ffffffff0804ffff001d02c400ffffffff0100f2052a010000004341046bd91bd87ce1040b5645644e88355e3d3e18a95380465880ca7f82d05669c0d3b78545d45092d50f26e9ec889320758843507eba258dd86398ea6616f11c8134ac00000000"
    }
  ]
}