{
  "hash": "000000006d252aff157b8b6b5212fe6c72e3a2904912a6022c1161dcb329d744",
  "confirmations": 47832,
  "height": 5266,
  "version": 1,
  "versionHex": "00000001",
  "merkleroot": "929c35f8b01959040ff998d90cb3472d3a0689bb6afcd89454fbb61ea7bff2e5",
  "time": 1235334404,
  "mediantime": 1235331058,
  "nonce": 2472174345,
  "bits": "1d00ffff",
  "difficulty": 1,
  "chainwork": "0000000000000000000000000000000000000000000000000000149314931493",
  "nTx": 1,
  "previousblockhash": "00000000b2f298757e5db43e956f2b13e47c66e908296cc73931dd74de149e18",
  "nextblockhash": "0000000090a0137ad27ad897e5f3d9119007b0aeff4fbec351340a7efdd9fc30",
  "strippedsize": 216,
  "size": 216,
  "weight": 864,
  "tx": [
    {
      "txid": "929c35f8b01959040ff998d90cb3472d3a0689bb6afcd89454fbb61ea7bff2e5",
      "hash": "929c35f8b01959040ff998d90cb3472d3a0689bb6afcd89454fbb61ea7bff2e5",
      "version": 1,
      "size": 135,
      "vsize": 135,
      "weight": 540,
      "locktime": 0,
      "vin": [
        {
          "coinbase": "04ffff001d028201",
          "sequence": 4294967295
        }
      ],
      "vout": [
        {
          "value": 50.0,
          "n": 0,
          "scriptPubKey": {
            "asm": "0475fb611685d0f6252513bfd08742309f6072d2bfe2ac3e0ff21881a22cb5b497069fb687a29c62de865ad90cba2a4e08def270f1be1b0c77ef977c04ad248570 OP_CHECKSIG",
            "desc": "pk(0475fb611685d0f6252513bfd08742309f6072d2bfe2ac3e0ff21881a22cb5b497069fb687a29c62de865ad90cba2a4e08def270f1be1b0c77ef977c04ad248570)#asdzhf2l",
            "hex": "410475fb611685d0f6252513bfd08742309f6072d2bfe2ac3e0ff21881a22cb5b497069fb687a29c62de865ad90cba2a4e08def270f1be1b0c77ef977c04ad248570ac",
            "type": "pubkey"
          }
        }
      ],
      "hex": "01000000010000000000000000000000000000000000000000000000000000000000000000ffffffff0804ffff001d028201ffffffff0100f2052a0100000043410475fb611685d0f6252513bfd08742309f6072d2bfe2ac3e0ff21881a22cb5b497069fb687a29c62de865ad90cba2a4e08def270f1be1b0c77ef977c04ad248570ac00000000"
    }
  ]
}