{
  "hash": "000000009c14813e90cd2d44f5bc14995ce115a51d606709aaa70965e716a46b",
  "confirmations": 46002,
  "height": 7096,
  "version": 1,
  "versionHex": "00000001",
  "merkleroot": "453303337b786bf1490994afa3ba808f336b1c255c428a31b12544ab9cb904b2",
  "time": 1236796183,
  "mediantime": 1236791239,
  "nonce": 41824116,
  "bits": "1d00ffff",
  "difficulty": 1,
  "chainwork": "00000000000000000000000000000000000000000000000000001bb91bb91bb9",
  "nTx": 1,
  "previousblockhash": "00000000482c230f5521df0b51af99b47dbaa0f40106f8b26ccb8d205e32c011",
  "nextblockhash": "0000000082c536679fb28b178a7fd2a0907a87d5cd498084c42d1272ba534ba0",
  "strippedsize": 216,
  "size": 216,
  "weight": 864,
  "tx": [
    {
      "txid": "453303337b786bf1490994afa3ba808f336b1c255c428a31b12544ab9cb904b2",
      "hash": "453303337b786bf1490994afa3ba808f336b1c255c428a31b12544ab9cb904b2",
      "version": 1,
      "size": 135,
      "vsize": 135,
      "weight": 540,
      "locktime": 0,
      "vin": [
        {
          "coinbase": "04ffff001d026606",
          "sequence": 4294967295
        }
      ],
      "vout": [
        {
          "value": 50.0,
          "n": 0,
          "scriptPubKey": {
            "asm": "043ce6790eb5def30dc59c16ceb5ecde3d06577042bbede3b656920a963cb9d1b4c92c01a717d3f8cfe20159025cb8d5fcfdce18b85a7ab526b6cd598ee839d858 OP_CHECKSIG",
            "desc": "pk(043ce6790eb5def30dc59c16ceb5ecde3d06577042bbede3b656920a963cb9d1b4c92c01a717d3f8cfe20159025cb8d5fcfdce18b85a7ab526b6cd598ee839d858)#4fel6e2y",
            "hex": "41043ce6790eb5def30dc59c16ceb5ecde3d06577042bbede3b656920a963cb9d1b4c92c01a717d3f8cfe20159025cb8d5fcfdce18b85a7ab526b6cd598ee839d858ac",
            "type": "pubkey"
          }
        }
      ],
      "hex": "01000000010000000000000000000000000000000000000000000000000000000000000000ffffffff0804ffff001d026606ffffffff0100f2052a010000004341043ce6790eb5def30dc59c16ceb5ecde3d06577042bbede3b656920a963cb9d1b4c92c01a717d3f8cfe20159025cb8d5fcfdce18b85a7ab526b6cd598ee839d858ac00000000"
    }
  ]
}