{
  "hash": "000000003833f8e889296873103ee9678c46971cdc3688d99a61b7b53fc7f9a4",
  "confirmations": 44702,
  "height": 8396,
  "version": 1,
  "versionHex": "00000001",
  "merkleroot": "fdbe717fbc5e8db0f7f570f2f5980ed6f3e498054520ebda994473e9370d78ca",
  "time": 1237798261,
  "mediantime": 1237795438,
  "nonce": 1454317352,
  "bits": "1d00ffff",
  "difficulty": 1,
  "chainwork": "000000000000000000000000000000000000000000000000000020cd20cd20cd",
  "nTx": 1,
  "previousblockhash": "000000004ca7fba723ae087aa3f24661d8659eb8a76a650af846d13c6e9e4e9f",
  "nextblockhash": "0000000098076bc4cdc362f418bfe8d2f753d305a7f7513dcdf5a8563f0d88d9",
  "strippedsize": 216,
  "size": 216,
  "weight": 864,
  "tx": [
    {
      "txid": "fdbe717fbc5e8db0f7f570f2f5980ed6f3e498054520ebda994473e9370d78ca",
      "hash": "fdbe717fbc5e8db0f7f570f2f5980ed6f3e498054520ebda994473e9370d78ca",
      "version": 1,
      "size": 135,
      "vsize": 135,
      "weight": 540,
      "locktime": 0,
      "vin": [
        {
          "coinbase": "04ffff001d02ee05",
          "sequence": 4294967295
        }
      ],
      "vout": [
        {
          "value": 50.0,
          "n": 0,
          "scriptPubKey": {
            "asm": "04ef2a052d8f04a5a7fbb6b6e1f5d3a94ff0b698ea7d060ea6e90a1327f03cd13dd54272b1fb1aa80b3bd16a5834d8c584f7c4fac0132d62ec6402176ff2efdf33 OP_CHECKSIG",
            "desc": "pk(04ef2a052d8f04a5a7fbb6b6e1f5d3a94ff0b698ea7d060ea6e90a1327f03cd13dd54272b1fb1aa80b3bd16a5834d8c584f7c4fac0132d62ec6402176ff2efdf33)#dqpgy3aw",
            "hex": "4104ef2a052d8f04a5a7fbb6b6e1f5d3a94ff0b698ea7d060ea6e90a1327f03cd13dd54272b1fb1aa80b3bd16a5834d8c584f7c4fac0132d62ec6402176ff2efdf33ac",
            "type": "pubkey"
          }
        }
      ],
      "hex": "01000000010000000000000000000000000000000000000000000000000000000000000000ffffffff0804ffff001d02ee05ffffffff0100f2052a01000000434104ef2a052d8f04a5a7fbb6b6e1f5d3a94ff0b698ea7d060ea6e90a1327f03cd13dd54272b1fb1aa80b3bd16a5834d8c584f7c4fac0132d62ec6402176ff2efdf33ac00000000"
    }
  ]
}