{
  "hash": "00000000b309ddd568afaad8877896efd83a90cfbbec212f5085debc3e988a4b",
  "confirmations": 48626,
  "height": 4472,
  "version": 1,
  "versionHex": "00000001",
  "merkleroot": "f4d8f17fb958972fc9804efd34cdca1b5b035e12c73912b75a6f8bd7d8f1af50",
  "time": 1234760127,
  "mediantime": 1234758526,
  "nonce": 1900107785,
  "bits": "1d00ffff",
  "difficulty": 1,
  "chainwork": "0000000000000000000000000000000000000000000000000000117911791179",
  "nTx": 1,
  "previousblockhash": "00000000e5c807d00ffbab1db332ab4c6d27f2d71e30df390ff398e4bbbca254",
  "nextblockhash": "000000003f7a971bf38ff07c943605568a3afebd634ba6e05ea900526138b07f",
  "strippedsize": 216,
  "size": 216,
  "weight": 864,
  "tx": [
    {
      "txid": "f4d8f17fb958972fc9804efd34cdca1b5b035e12c73912b75a6f8bd7d8f1af50",
      "hash": "f4d8f17fb958972fc9804efd34cdca1b5b035e12c73912b75a6f8bd7d8f1af50",
      "version": 1,
      "size": 135,
      "vsize": 135,
      "weight": 540,
      "locktime": 0,
      "vin": [
        {
          "coinbase": "04ffff001d024b02",
          "sequence": 4294967295
        }
      ],
      "vout": [
        {
          "value": 50.0,
          "n": 0,
          "scriptPubKey": {
            "asm": "0413f1366e3c56c2040b8c0ec2f69b1170a5182a1dd7ad752ca79bca29b4f7b8920d4178a3c0c6a248c8365178e4c0d8fb56b6f12f5894eeb7b74643c29224e488 OP_CHECKSIG",
            "desc": "pk(0413f1366e3c56c2040b8c0ec2f69b1170a5182a1dd7ad752ca79bca29b4f7b8920d4178a3c0c6a248c8365178e4c0d8fb56b6f12f5894eeb7b74643c29224e488)#c6mjtg7y",
            "hex": "410413f1366e3c56c2040b8c0ec2f69b1170a5182a1dd7ad752ca79bca29b4f7b8920d4178a3c0c6a248c8365178e4c0d8fb56b6f12f5894eeb7b74643c29224e488ac",
            "type": "pubkey"
          }
        }
      ],
      "hex": "01000000010000000000000000000000000000000000000000000000000000000000000000ffffffff0804ffff001d024b02ffffffff0100f2052a0100000043410413f1366e3c56c2040b8c0ec2f69b1170a5182a1dd7ad752ca79bca29b4f7b8920d4178a3c0c6a248c8365178e4c0d8fb56b6f12f5894eeb7b74643c29224e488ac00000000"
    }
  ]
}