{
  "hash": "00000000cb507fcc36bc5f87f902bcd13d548d38005d614672e6813e4f664706",
  "confirmations": 46702,
  "height": 6396,
  "version": 1,
  "versionHex": "00000001",
  "merkleroot": "18bb9ad638fe19e186ed973f3129d36ea4def0118fc6d33c3879d4944803e13b",
  "time": 1236252944,
  "mediantime": 1236248827,
  "nonce": 3080871482,
  "bits": "1d00ffff",
  "difficulty": 1,
  "chainwork": "000000000000000000000000000000000000000000000000000018fd18fd18fd",
  "nTx": 1,
  "previousblockhash": "000000008fc68a02f26c2041822bb9f569fc8a5878b256a2193514f3c441ea45",
  "nextblockhash": "00000000d099d910dfdc0f12c7b2737b47fa528fb04dd25548ee0e78309e4e05",
  "strippedsize": 216,
  "size": 216,
  "weight": 864,
  "tx": [
    {
      "txid": "18bb9ad638fe19e186ed973f3129d36ea4def0118fc6d33c3879d4944803e13b",
      "hash": "18bb9ad638fe19e186ed973f3129d36ea4def0118fc6d33c3879d4944803e13b",
      "version": 1,
      "size": 135,
      "vsize": 135,
      "weight": 540,
      "locktime": 0,
      "vin": [
        {
          "coinbase": "04ffff001d02bc01",
          "sequence": 4294967295
        }
      ],
      "vout": [
        {
          "value": 50.0,
          "n": 0,
          "scriptPubKey": {
            "asm": "04723733faa24bba15769832c528129ff58fbe32e7ec5b10f86cbf8b69ed24190b36a51ed4451ed2a56afbb62183ec3f5af4d96719ce89df0ce725f0ee25902bc8 OP_CHECKSIG",
            "desc": "pk(04723733faa24bba15769832c528129ff58fbe32e7ec5b10f86cbf8b69ed24190b36a51ed4451ed2a56afbb62183ec3f5af4d96719ce89df0ce725f0ee25902bc8)#gku9y8qv",
            "hex": "4104723733faa24bba15769832c528129ff58fbe32e7ec5b10f86cbf8b69ed24190b36a51ed4451ed2a56afbb62183ec3f5af4d96719ce89df0ce725f0ee25902bc8ac",
            "type": "pubkey"
          }
        }
      ],
      "hex": "01000000010000000000000000000000000000000000000000000000000000000000000000ffffffff0804ffff001d02bc01ffffffff0100f2052a01000000434104723733faa24bba15769832c528129ff58fbe32e7ec5b10f86cbf8b69ed24190b36a51ed4451ed2a56afbb62183ec3f5af4d96719ce89df0ce725f0ee25902bc8ac00000000"
    }
  ]
}