{
  "hash": "00000000b1864af6e54979ec7a500cda079fec0f7c8837b610ca7fc4bd8f75f8",
  "confirmations": 47673,
  "height": 5425,
  "version": 1,
  "versionHex": "00000001",
  "merkleroot": "9b3418dd2dd6e7ecd6270825d57bf9bc52f72ecda63ad7cf5c33c8aa37b85816",
  "time": 1235460584,
  "mediantime": 1235455057,
  "nonce": 683405613,
  "bits": "1d00ffff",
  "difficulty": 1,
  "chainwork": "0000000000000000000000000000000000000000000000000000153215321532",
  "nTx": 1,
  "previousblockhash": "000000007e87f91334c1be083b131a91c1d4114f6a15ecade25fbcc3c3bc3e73",
  "nextblockhash": "0000000018d2323a1ecf127e68846085fb9036f85cbe9117ca4a69f1a9312490",
  "strippedsize": 216,
  "size": 216,
  "weight": 864,
  "tx": [
    {
      "txid": "9b3418dd2dd6e7ecd6270825d57bf9bc52f72ecda63ad7cf5c33c8aa37b85816",
      "hash": "9b3418dd2dd6e7ecd6270825d57bf9bc52f72ecda63ad7cf5c33c8aa37b85816",
      "version": 1,
      "size": 135,
      "vsize": 135,
      "weight": 540,
      "locktime": 0,
      "vin": [
        {
          "coinbase": "04ffff001d020c04",
          "sequence": 4294967295
        }
      ],
      "vout": [
        {
          "value": 50.0,
          "n": 0,
          "scriptPubKey": {
            "asm": "04f818768b97f69a5af2bdd5e4b352f3b53def49219ad969e757638e2f73b0508e5e08e94720a5e00f70328e49df2410ad00c13011ef08c06b0ad6fbc5f291d81f OP_CHECKSIG",
            "desc": "pk(04f818768b97f69a5af2bdd5e4b352f3b53def49219ad969e757638e2f73b0508e5e08e94720a5e00f70328e49df2410ad00c13011ef08c06b0ad6fbc5f291d81f)#9qpsexcg",
            "hex": "4104f818768b97f69a5af2bdd5e4b352f3b53def49219ad969e757638e2f73b0508e5e08e94720a5e00f70328e49df2410ad00c13011ef08c06b0ad6fbc5f291d81fac",
            "type": "pubkey"
          }
        }
      ],
      "hex": "01000000010000000000000000000000000000000000000000000000000000000000000000ffffffff0804ffff001d020c04ffffffff0100f2052a01000000434104f818768b97f69a5af2bdd5e4b352f3b53def49219ad969e757638e2f73b0508e5e08e94720a5e00f70328e49df2410ad00c13011ef08c06b0ad6fbc5f291d81fac00000000"
    }
  ]
}