{
  "hash": "00000000a5c9ae7b0c97436e0bf1111fd421bf3fd9118aeaa8063575cd1bee7e",
  "confirmations": 51005,
  "height": 2093,
  "version": 1,
  "versionHex": "00000001",
  "merkleroot": "843161897e1b82e20f030602a1e7de474243402ef82730fd1b676af2ff2a7e98",
  "time": 1233132655,
  "mediantime": 1233128367,
  "nonce": 1391827486,
  "bits": "1d00ffff",
  "difficulty": 1,
  "chainwork": "0000000000000000000000000000000000000000000000000000082e082e082e",
  "nTx": 1,
  "previousblockhash": "000000002632732de3262f8a3df0c1516439fe310353e183db101a61bc77a788",
  "nextblockhash": "000000007e96f9aaf9ffa534df258772228aadf119fecb09b05e942686dde7d4",
  "strippedsize": 216,
  "size": 216,
  "weight": 864,
  "tx": [
    {
      "txid": "843161897e1b82e20f030602a1e7de474243402ef82730fd1b676af2ff2a7e98",
      "hash": "843161897e1b82e20f030602a1e7de474243402ef82730fd1b676af2ff2a7e98",
      "version": 1,
      "size": 135,
      "vsize": 135,
      "weight": 540,
      "locktime": 0,
      "vin": [
        {
          "coinbase": "04ffff001d029003",
          "sequence": 4294967295
        }
      ],
      "vout": [
        {
          "value": 50.0,
          "n": 0,
          "scriptPubKey": {
            "asm": "0467c9d4a89813cd51df1fdf560990a0a1c3e80d6d7e5a214e3222568b403c978f539c973f722a03f7514d981395530c5821d1f58ac9b6ff052885e67275e481e9 OP_CHECKSIG",
            "desc": "pk(0467c9d4a89813cd51df1fdf560990a0a1c3e80d6d7e5a214e3222568b403c978f539c973f722a03f7514d981395530c5821d1f58ac9b6ff052885e67275e481e9)#r0wtw3us",
            "hex": "410467c9d4a89813cd51df1fdf560990a0a1c3e80d6d7e5a214e3222568b403c978f539c973f722a03f7514d981395530c5821d1f58ac9b6ff052885e67275e481e9ac",
            "type": "pubkey"
          }
        }
      ],
      "hex": "01000000010000000000000000000000000000000000000000000000000000000000000000ffffffff0804ffff001d029003ffffffff0100f2052a0100000043410467c9d4a89813cd51df1fdf560990a0a1c3e80d6d7e5a214e3222568b403c978f539c973f722a03f7514d981395530c5821d1f58ac9b6ff052885e67275e481e9ac00000000"
    }
  ]
}