{
  "hash": "00000000c4a3de36e3cfcfc042b3353626ad0a8b7e62f609c989b838a1883934",
  "confirmations": 44624,
  "height": 8474,
  "version": 1,
  "versionHex": "00000001",
  "merkleroot": "e41617c000daa820e79d205ec02c134a4ba175df65e5a303e3a5acb030e70955",
  "time": 1237848045,
  "mediantime": 1237845109,
  "nonce": 215212597,
  "bits": "1d00ffff",
  "difficulty": 1,
  "chainwork": "0000000000000000000000000000000000000000000000000000211b211b211b",
  "nTx": 1,
  "previousblockhash": "000000009e77338b1278e3217b90f4a7c88cb53bb01bd666d99f0b89ecdf846b",
  "nextblockhash": "0000000018c1efcca692a91d096b44017da704c1c116704cee7e032b9e38397c",
  "strippedsize": 216,
  "size": 216,
  "weight": 864,
  "tx": [
    {
      "txid": "e41617c000daa820e79d205ec02c134a4ba175df65e5a303e3a5acb030e70955",
      "hash": "e41617c000daa820e79d205ec02c134a4ba175df65e5a303e3a5acb030e70955",
      "version": 1,
      "size": 135,
      "vsize": 135,
      "weight": 540,
      "locktime": 0,
      "vin": [
        {
          "coinbase": "04ffff001d022d07",
          "sequence": 4294967295
        }
      ],
      "vout": [
        {
          "value": 50.0,
          "n": 0,
          "scriptPubKey": {
            "asm": "0487a63302cabec6f1e81d1c4cef969fab679cbf79da7e42ab871536a02fa12c3e40a034a3569bc16b22ee61c75c5254625690549fbc681ee5eaec8f4c0616ee72 OP_CHECKSIG",
            "desc": "pk(0487a63302cabec6f1e81d1c4cef969fab679cbf79da7e42ab871536a02fa12c3e40a034a3569bc16b22ee61c75c5254625690549fbc681ee5eaec8f4c0616ee72)#uj9fpx6j",
            "hex": "410487a63302cabec6f1e81d1c4cef969fab679cbf79da7e42ab871536a02fa12c3e40a034a3569bc16b22ee61c75c5254625690549fbc681ee5eaec8f4c0616ee72ac",
            "type": "pubkey"
          }
        }
      ],
      "hex": "01000000010000000000000000000000000000000000000000000000000000000000000000ffffffff0804ffff001d022d07ffffffff0100f2052a0100000043410487a63302cabec6f1e81d1c4cef969fab679cbf79da7e42ab871536a02fa12c3e40a034a3569bc16b22ee61c75c5254625690549fbc681ee5eaec8f4c0616ee72ac00000000"
    }
  ]
}