{
  "hash": "000000003772166c5a96e7a18481c0d7875ba47fed4524e9db445846215293d4",
  "confirmations": 46555,
  "height": 6543,
  "version": 1,
  "versionHex": "00000001",
  "merkleroot": "f6f9e5e17dcb3ee11275db84b2f92c53b3850daca0858221be17ac34ba489e07",
  "time": 1236360843,
  "mediantime": 1236357533,
  "nonce": 3893899016,
  "bits": "1d00ffff",
  "difficulty": 1,
  "chainwork": "0000000000000000000000000000000000000000000000000000199019901990",
  "nTx": 1,
  "previousblockhash": "000000008d721d14e6674eed25e59c39ff10ca324734779cc163608c851ccd50",
  "nextblockhash": "000000000e2301b082e35c3f7f1d9dd63bb1a93878cb45741a799d32859df32a",
  "strippedsize": 216,
  "size": 216,
  "weight": 864,
  "tx": [
    {
      "txid": "f6f9e5e17dcb3ee11275db84b2f92c53b3850daca0858221be17ac34ba489e07",
      "hash": "f6f9e5e17dcb3ee11275db84b2f92c53b3850daca0858221be17ac34ba489e07",
      "version": 1,
      "size": 135,
      "vsize": 135,
      "weight": 540,
      "locktime": 0,
      "vin": [
        {
          "coinbase": "04ffff001d024104",
          "sequence": 4294967295
        }
      ],
      "vout": [
        {
          "value": 50.0,
          "n": 0,
          "scriptPubKey": {
            "asm": "0439ce830b9605d527662e5631caf3b7e89625e3d95a30765168c2aaa788783b129ff29e3ff3d890374fb85854f0c8621d0cbb097ab50b6196522e7e4ef80e0af3 OP_CHECKSIG",
            "desc": "pk(0439ce830b9605d527662e5631caf3b7e89625e3d95a30765168c2aaa788783b129ff29e3ff3d890374fb85854f0c8621d0cbb097ab50b6196522e7e4ef80e0af3)#xed300mz",
            "hex": "410439ce830b9605d527662e5631caf3b7e89625e3d95a30765168c2aaa788783b129ff29e3ff3d890374fb85854f0c8621d0cbb097ab50b6196522e7e4ef80e0af3ac",
            "type": "pubkey"
          }
        }
      ],
      "hex": "01000000010000000000000000000000000000000000000000000000000000000000000000ffffffff0804ffff001d024104ffffffff0100f2052a0100000043410439ce830b9605d527662e5631caf3b7e89625e3d95a30765168c2aaa788783b129ff29e3ff3d890374fb85854f0c8621d0cbb097ab50b6196522e7e4ef80e0af3ac00000000"
    }
  ]
}