{
  "hash": "00000000e1a5b93a6243f30f23805eb66d14ac674e6fce9674329c6ac713b8c1",
  "confirmations": 50303,
  "height": 2795,
  "version": 1,
  "versionHex": "00000001",
  "merkleroot": "580aad2349ea7aafa54a34da4404e5a3f62ad8f643eaa20b706306169d071e4a",
  "time": 1233625742,
  "mediantime": 1233622188,
  "nonce": 1364777219,
  "bits": "1d00ffff",
  "difficulty": 1,
  "chainwork": "00000000000000000000000000000000000000000000000000000aec0aec0aec",
  "nTx": 1,
  "previousblockhash": "0000000063002096e3041921690a8f46a8e41da52f372872a855264e48cb3935",
  "nextblockhash": "00000000906cef1ee0cca07b30a9db422d481536ca22cc61cbc31fd66da7d3f4",
  "strippedsize": 216,
  "size": 216,
  "weight": 864,
  "tx": [
    {
      "txid": "580aad2349ea7aafa54a34da4404e5a3f62ad8f643eaa20b706306169d071e4a",
      "hash": "580aad2349ea7aafa54a34da4404e5a3f62ad8f643eaa20b706306169d071e4a",
      "version": 1,
      "size": 135,
      "vsize": 135,
      "weight": 540,
      "locktime": 0,
      "vin": [
        {
          "coinbase": "04ffff001d021b06",
          "sequence": 4294967295
        }
      ],
      "vout": [
        {
          "value": 50.0,
          "n": 0,
          "scriptPubKey": {
            "asm": "0408fdde1dd2bff391b54d3cd9643f85f774df54864e3d9e5c531c2164b864266c96c2aa0b8612b3bef3b4e1dcc2191f5c33c1a30234396183b8be86410bd39cd5 OP_CHECKSIG",
            "desc": "pk(0408fdde1dd2bff391b54d3cd9643f85f774df54864e3d9e5c531c2164b864266c96c2aa0b8612b3bef3b4e1dcc2191f5c33c1a30234396183b8be86410bd39cd5)#rcfpvxr2",
            "hex": "410408fdde1dd2bff391b54d3cd9643f85f774df54864e3d9e5c531c2164b864266c96c2aa0b8612b3bef3b4e1dcc2191f5c33c1a30234396183b8be86410bd39cd5ac",
            "type": "pubkey"
          }
        }
      ],
      "hex": "01000000010000000000000000000000000000000000000000000000000000000000000000ffffffff0804ffff001d021b06ffffffff0100f2052a0100000043410408fdde1dd2bff391b54d3cd9643f85f774df54864e3d9e5c531c2164b864266c96c2aa0b8612b3bef3b4e1dcc2191f5c33c1a30234396183b8be86410bd39cd5ac00000000"
    }
  ]
}