{
  "hash": "000000008b900032d7f48a2d6e2357f40a5dc5e2733fa65b5b22b0488f52703f",
  "confirmations": 47584,
  "height": 5514,
  "version": 1,
  "versionHex": "00000001",
  "merkleroot": "d64791c0c6e46d879270a4ecf4422ed4dc252572a2315954a0392427cbfd24e7",
  "time": 1235532737,
  "mediantime": 1235528727,
  "nonce": 144073214,
  "bits": "1d00ffff",
  "difficulty": 1,
  "chainwork": "0000000000000000000000000000000000000000000000000000158b158b158b",
  "nTx": 1,
  "previousblockhash": "00000000074b4c7a212e7d65eadc4fbb88ee8f7de3d75abb1eadb5c580395252",
  "nextblockhash": "000000005f8fdb9defbc5bbfb36d8ef7ef911010757084f2f14d4eb6233adc03",
  "strippedsize": 215,
  "size": 215,
  "weight": 860,
  "tx": [
    {
      "txid": "d64791c0c6e46d879270a4ecf4422ed4dc252572a2315954a0392427cbfd24e7",
      "hash": "d64791c0c6e46d879270a4ecf4422ed4dc252572a2315954a0392427cbfd24e7",
      "version": 1,
      "size": 134,
      "vsize": 134,
      "weight": 536,
      "locktime": 0,
      "vin": [
        {
          "coinbase": "04ffff001d0114",
          "sequence": 4294967295
        }
      ],
      "vout": [
        {
          "value": 50.0,
          "n": 0,
          "scriptPubKey": {
            "asm": "048c0f8c173095c96e9cb020057e8f314b48dbc903b4e879ad5bf1c64d7dcb94b1b60ba7ca699c013d5cb1c853512ab9b0098f05d631f33437e9d5f45bbe230695 OP_CHECKSIG",
            "desc": "pk(048c0f8c173095c96e9cb020057e8f314b48dbc903b4e879ad5bf1c64d7dcb94b1b60ba7ca699c013d5cb1c853512ab9b0098f05d631f33437e9d5f45bbe230695)#ha8djxp5",
            "hex": "41048c0f8c173095c96e9cb020057e8f314b48dbc903b4e879ad5bf1c64d7dcb94b1b60ba7ca699c013d5cb1c853512ab9b0098f05d631f33437e9d5f45bbe230695ac",
            "type": "pubkey"
          }
        }
      ],
      "hex": "01000000010000000000000000000000000000000000000000000000000000000000000000ffffffff0704ffff001d0114ffffffff0100f2052a010000004341048c0f8c173095c96e9cb020057e8f314b48dbc903b4e879ad5bf1c64d7dcb94b1b60ba7ca699c013d5cb1c853512ab9b0098f05d631f33437e9d5f45bbe230695ac00000000"
    }
  ]
}