{
  "hash": "000000000532dccc9b9b4892a0729da25846d1f31060cddb95aac68aacb0b24d",
  "confirmations": 45951,
  "height": 7147,
  "version": 1,
  "versionHex": "00000001",
  "merkleroot": "7b513015267e2290d9d451a4c815c52ae3e58368ca070b904319b008bc96ae5c",
  "time": 1236833999,
  "mediantime": 1236828693,
  "nonce": 1504258819,
  "bits": "1d00ffff",
  "difficulty": 1,
  "chainwork": "00000000000000000000000000000000000000000000000000001bec1bec1bec",
  "nTx": 1,
  "previousblockhash": "0000000026b19c784491f37573fc9f23370abf0188f819b3254030a7452d9a96",
  "nextblockhash": "00000000a842cb9481ae4f8612cec3a71f96c79c7921e378f41586ab8d0fa022",
  "strippedsize": 216,
  "size": 216,
  "weight": 864,
  "tx": [
    {
      "txid": "7b513015267e2290d9d451a4c815c52ae3e58368ca070b904319b008bc96ae5c",
      "hash": "7b513015267e2290d9d451a4c815c52ae3e58368ca070b904319b008bc96ae5c",
      "version": 1,
      "size": 135,
      "vsize": 135,
      "weight": 540,
      "locktime": 0,
      "vin": [
        {
          "coinbase": "04ffff001d02e504",
          "sequence": 4294967295
        }
      ],
      "vout": [
        {
          "value": 50.0,
          "n": 0,
          "scriptPubKey": {
            "asm": "0439fe695e438333a35734be1451be9d5ff60442d395f8ac6a5547b32dd74c31d25ce47d8d1a997bf2c8523891f2b266ca7a325c2df677ee0a43bcd825a219be4a OP_CHECKSIG",
            "desc": "pk(0439fe695e438333a35734be1451be9d5ff60442d395f8ac6a5547b32dd74c31d25ce47d8d1a997bf2c8523891f2b266ca7a325c2df677ee0a43bcd825a219be4a)#v0d2dc6q",
            "hex": "410439fe695e438333a35734be1451be9d5ff60442d395f8ac6a5547b32dd74c31d25ce47d8d1a997bf2c8523891f2b266ca7a325c2df677ee0a43bcd825a219be4aac",
            "type": "pubkey"
          }
        }
      ],
      "hex": "01000000010000000000000000000000000000000000000000000000000000000000000000ffffffff0804ffff001d02e504ffffffff0100f2052a0100000043410439fe695e438333a35734be1451be9d5ff60442d395f8ac6a5547b32dd74c31d25ce47d8d1a997bf2c8523891f2b266ca7a325c2df677ee0a43bcd825a219be4aac00000000"
    }
  ]
}