{
  "hash": "00000000dabe35441efb615ad072e22ece58326cf0a43b990fc00aab808e8589",
  "confirmations": 52202,
  "height": 896,
  "version": 1,
  "versionHex": "00000001",
  "merkleroot": "7c9b05865604479d11b1668f292c6d66c4e636ac4aaa7c1fbe0c42f4b223b6e1",
  "time": 1232272930,
  "mediantime": 1232267105,
  "nonce": 4125391106,
  "bits": "1d00ffff",
  "difficulty": 1,
  "chainwork": "0000000000000000000000000000000000000000000000000000038103810381",
  "nTx": 1,
  "previousblockhash": "000000009ee07a92b2efac3583968f836a5adca93c525e085f2512644e0cae26",
  "nextblockhash": "00000000306d8ff2a054d739a88fea4d9fd453508571331ca944099ea77c3b0c",
  "strippedsize": 216,
  "size": 216,
  "weight": 864,
  "tx": [
    {
      "txid": "7c9b05865604479d11b1668f292c6d66c4e636ac4aaa7c1fbe0c42f4b223b6e1",
      "hash": "7c9b05865604479d11b1668f292c6d66c4e636ac4aaa7c1fbe0c42f4b223b6e1",
      "version": 1,
      "size": 135,
      "vsize": 135,
      "weight": 540,
      "locktime": 0,
      "vin": [
        {
          "coinbase": "04ffff001d02a003",
          "sequence": 4294967295
        }
      ],
      "vout": [
        {
          "value": 50.0,
          "n": 0,
          "scriptPubKey": {
            "asm": "045c73dd1bf50febc82d30eea6542cf0fccfb05013b998de74b3a303f2cf85b9101789558440c6300ea4acc9c6a0991d4d0ce07dcd0b6e9d4a7aeb3728444bfb92 OP_CHECKSIG",
            "desc": "pk(045c73dd1bf50febc82d30eea6542cf0fccfb05013b998de74b3a303f2cf85b9101789558440c6300ea4acc9c6a0991d4d0ce07dcd0b6e9d4a7aeb3728444bfb92)#3ypzmn4m",
            "hex": "41045c73dd1bf50febc82d30eea6542cf0fccfb05013b998de74b3a303f2cf85b9101789558440c6300ea4acc9c6a0991d4d0ce07dcd0b6e9d4a7aeb3728444bfb92ac",
            "type": "pubkey"
          }
        }
      ],
      "hex": "01000000010000000000000000000000000000000000000000000000000000000000000000ffffffff0804ffff001d02a003ffffffff0100f2052a010000004341045c73dd1bf50febc82d30eea6542cf0fccfb05013b998de74b3a303f2cf85b9101789558440c6300ea4acc9c6a0991d4d0ce07dcd0b6e9d4a7aeb3728444bfb92ac00000000"
    }
  ]
}