{
  "hash": "00000000114f8a140d8dc7a809e4862c71e879af8772013b28ec6fa72bf6d7ac",
  "confirmations": 44196,
  "height": 8902,
  "version": 1,
  "versionHex": "00000001",
  "merkleroot": "7e2d9e75b94a87a6b6b8d5e02410253c8ea7c5ac927083fe1fbefe9a1ff55b19",
  "time": 1238181609,
  "mediantime": 1238176666,
  "nonce": 3704972553,
  "bits": "1d00ffff",
  "difficulty": 1,
  "chainwork": "000000000000000000000000000000000000000000000000000022c722c722c7",
  "nTx": 1,
  "previousblockhash": "00000000d44e8ccd202074e7c892d68eb22dbb7e3a2201455cd7c7e428d3c2b6",
  "nextblockhash": "000000007b665dd0aaa9e3c4bda7c0f9e22ba8155ed47ef577349f5415d601ca",
  "strippedsize": 216,
  "size": 216,
  "weight": 864,
  "tx": [
    {
      "txid": "7e2d9e75b94a87a6b6b8d5e02410253c8ea7c5ac927083fe1fbefe9a1ff55b19",
      "hash": "7e2d9e75b94a87a6b6b8d5e02410253c8ea7c5ac927083fe1fbefe9a1ff55b19",
      "version": 1,
      "size": 135,
      "vsize": 135,
      "weight": 540,
      "locktime": 0,
      "vin": [
        {
          "coinbase": "04ffff001d027d04",
          "sequence": 4294967295
        }
      ],
      "vout": [
        {
          "value": 50.0,
          "n": 0,
          "scriptPubKey": {
            "asm": "043f86b7c9e04564d3cfc1e1824da03f03c8bb4cfb2f46644245ec77f10c0945a9f2b447013ed77cf48016b03a27b340efe42c2cc8e103bc513bf2007ee8de4e44 OP_CHECKSIG",
            "desc": "pk(043f86b7c9e04564d3cfc1e1824da03f03c8bb4cfb2f46644245ec77f10c0945a9f2b447013ed77cf48016b03a27b340efe42c2cc8e103bc513bf2007ee8de4e44)#hdl8808t",
            "hex": "41043f86b7c9e04564d3cfc1e1824da03f03c8bb4cfb2f46644245ec77f10c0945a9f2b447013ed77cf48016b03a27b340efe42c2cc8e103bc513bf2007ee8de4e44ac",
            "type": "pubkey"
          }
        }
      ],
      "hex": "01000000010000000000000000000000000000000000000000000000000000000000000000ffffffff0804ffff001d027d04ffffffff0100f2052a010000004341043f86b7c9e04564d3cfc1e1824da03f03c8bb4cfb2f46644245ec77f10c0945a9f2b447013ed77cf48016b03a27b340efe42c2cc8e103bc513bf2007ee8de4e44ac00000000"
    }
  ]
}