{
  "hash": "00000000710bdfefc65fae752b3777f415778049632e37f5ab8e7cf0ebfd9f11",
  "confirmations": 51144,
  "height": 1954,
  "version": 1,
  "versionHex": "00000001",
  "merkleroot": "1e27fb4d588f4a5828a8511cfefaa5e9ceed9006e957a38db0fd849f4ac85de5",
  "time": 1233010905,
  "mediantime": 1233007101,
  "nonce": 180059684,
  "bits": "1d00ffff",
  "difficulty": 1,
  "chainwork": "000000000000000000000000000000000000000000000000000007a307a307a3",
  "nTx": 1,
  "previousblockhash": "0000000087fc0397cf6acaef40d56c9a5427066041e1cde1d1bfcbe12f023991",
  "nextblockhash": "00000000bc8a0e20d31d39432595b89b9b6507a9ff25aae48289de86ad303c18",
  "strippedsize": 216,
  "size": 216,
  "weight": 864,
  "tx": [
    {
      "txid": "1e27fb4d588f4a5828a8511cfefaa5e9ceed9006e957a38db0fd849f4ac85de5",
      "hash": "1e27fb4d588f4a5828a8511cfefaa5e9ceed9006e957a38db0fd849f4ac85de5",
      "version": 1,
      "size": 135,
      "vsize": 135,
      "weight": 540,
      "locktime": 0,
      "vin": [
        {
          "coinbase": "04ffff001d02a500",
          "sequence": 4294967295
        }
      ],
      "vout": [
        {
          "value": 50.0,
          "n": 0,
          "scriptPubKey": {
            "asm": "0449807d975bffd141d7d50bc7477881c089c51504abe692fa436b684ff2198f427927bfb196f5a7dc888ff33e723cd7dd1220bce09749c6f29a8da93770354a07 OP_CHECKSIG",
            "desc": "pk(0449807d975bffd141d7d50bc7477881c089c51504abe692fa436b684ff2198f427927bfb196f5a7dc888ff33e723cd7dd1220bce09749c6f29a8da93770354a07)#4w2hdvvd",
            "hex": "410449807d975bffd141d7d50bc7477881c089c51504abe692fa436b684ff2198f427927bfb196f5a7dc888ff33e723cd7dd1220bce09749c6f29a8da93770354a07ac",
            "type": "pubkey"
          }
        }
      ],
      "hex": "01000000010000000000000000000000000000000000000000000000000000000000000000ffffffff0804ffff001d02a500ffffffff0100f2052a0100000043410449807d975bffd141d7d50bc7477881c089c51504abe692fa436b684ff2198f427927bfb196f5a7dc888ff33e723cd7dd1220bce09749c6f29a8da93770354a07ac00000000"
    }
  ]
}