{
  "hash": "00000000e37dbdb6d6161067943874357cdfa257ae6e7687eb21f97c3af9dca3",
  "confirmations": 46265,
  "height": 6833,
  "version": 1,
  "versionHex": "00000001",
  "merkleroot": "2b62b45538a09b9e1223c3cd90e6e58368b9d38bc1e1d4dac4da761c0bdb679e",
  "time": 1236581408,
  "mediantime": 1236578742,
  "nonce": 49684566,
  "bits": "1d00ffff",
  "difficulty": 1,
  "chainwork": "00000000000000000000000000000000000000000000000000001ab21ab21ab2",
  "nTx": 1,
  "previousblockhash": "000000005a0ad65fd0c1010d8158886f7a863569706caec527f126550c3b0c84",
  "nextblockhash": "0000000063d1ae6f16a6f3dafa8caf8d0c7d101d3ba7f886b22c5c99869fc3a0",
  "strippedsize": 215,
  "size": 215,
  "weight": 860,
  "tx": [
    {
      "txid": "2b62b45538a09b9e1223c3cd90e6e58368b9d38bc1e1d4dac4da761c0bdb679e",
      "hash": "2b62b45538a09b9e1223c3cd90e6e58368b9d38bc1e1d4dac4da761c0bdb679e",
      "version": 1,
      "size": 134,
      "vsize": 134,
      "weight": 536,
      "locktime": 0,
      "vin": [
        {
          "coinbase": "04ffff001d015b",
          "sequence": 4294967295
        }
      ],
      "vout": [
        {
          "value": 50.0,
          "n": 0,
          "scriptPubKey": {
            "asm": "04e90e34e600851a1fdb3d43d05fff7a66d7e553b0337c04cf38172bdc1b1fe56eefdfe4cdd21bb9ca76f481752f4ec956cac19b1113be8f4a807f9b66e1413eee OP_CHECKSIG",
            "desc": "pk(04e90e34e600851a1fdb3d43d05fff7a66d7e553b0337c04cf38172bdc1b1fe56eefdfe4cdd21bb9ca76f481752f4ec956cac19b1113be8f4a807f9b66e1413eee)#39wtvr5s",
            "hex": "4104e90e34e600851a1fdb3d43d05fff7a66d7e553b0337c04cf38172bdc1b1fe56eefdfe4cdd21bb9ca76f481752f4ec956cac19b1113be8f4a807f9b66e1413eeeac",
            "type": "pubkey"
          }
        }
      ],
      "hex": "01000000010000000000000000000000000000000000000000000000000000000000000000ffffffff0704ffff001d015bffffffff0100f2052a01000000434104e90e34e600851a1fdb3d43d05fff7a66d7e553b0337c04cf38172bdc1b1fe56eefdfe4cdd21bb9ca76f481752f4ec956cac19b1113be8f4a807f9b66e1413eeeac00000000"
    }
  ]
}