{
  "hash": "00000000ebd5da644c2a573f1eb8e069da3eeba8affe911977ac0147229b01ae",
  "confirmations": 49892,
  "height": 3206,
  "version": 1,
  "versionHex": "00000001",
  "merkleroot": "933a4da0ce644649648331f4b3af369995e282159a515c6ae80bf9ffeffd4643",
  "time": 1233904675,
  "mediantime": 1233902189,
  "nonce": 1380819226,
  "bits": "1d00ffff",
  "difficulty": 1,
  "chainwork": "00000000000000000000000000000000000000000000000000000c870c870c87",
  "nTx": 1,
  "previousblockhash": "000000003c6f8c765add5fe042bd589becf4fd3d8c48a51a5c423f59604f183e",
  "nextblockhash": "00000000731863fda62ad45cb258731b85038f96e19bca63afe7201a5e4a8e6c",
  "strippedsize": 216,
  "size": 216,
  "weight": 864,
  "tx": [
    {
      "txid": "933a4da0ce644649648331f4b3af369995e282159a515c6ae80bf9ffeffd4643",
      "hash": "933a4da0ce644649648331f4b3af369995e282159a515c6ae80bf9ffeffd4643",
      "version": 1,
      "size": 135,
      "vsize": 135,
      "weight": 540,
      "locktime": 0,
      "vin": [
        {
          "coinbase": "04ffff001d02dc02",
          "sequence": 4294967295
        }
      ],
      "vout": [
        {
          "value": 50.0,
          "n": 0,
          "scriptPubKey": {
            "asm": "040cfdfd68a4ee72b9dd240730338263cb0195686af67c0246733feec2f2976160922ec4a328c5b2688beee55bcbfc6d8ef0dd5290185f6f68244d0d0caeaab51c OP_CHECKSIG",
            "desc": "pk(040cfdfd68a4ee72b9dd240730338263cb0195686af67c0246733feec2f2976160922ec4a328c5b2688beee55bcbfc6d8ef0dd5290185f6f68244d0d0caeaab51c)#k28dwnme",
            "hex": "41040cfdfd68a4ee72b9dd240730338263cb0195686af67c0246733feec2f2976160922ec4a328c5b2688beee55bcbfc6d8ef0dd5290185f6f68244d0d0caeaab51cac",
            "type": "pubkey"
          }
        }
      ],
      "hex": "01000000010000000000000000000000000000000000000000000000000000000000000000ffffffff0804ffff001d02dc02ffffffff0100f2052a010000004341040cfdfd68a4ee72b9dd240730338263cb0195686af67c0246733feec2f2976160922ec4a328c5b2688beee55bcbfc6d8ef0dd5290185f6f68244d0d0caeaab51cac00000000"
    }
  ]
}