{
  "hash": "0000000019972a58c03ff1b4022a79abed8b0425bb9851ece3785044845dd752",
  "confirmations": 46446,
  "height": 6652,
  "version": 1,
  "versionHex": "00000001",
  "merkleroot": "34d6bdf390f9a59e67ad2b8480063a691dd49ed58d2b57cf5e129551fcb040e7",
  "time": 1236447105,
  "mediantime": 1236442646,
  "nonce": 2657414200,
  "bits": "1d00ffff",
  "difficulty": 1,
  "chainwork": "000000000000000000000000000000000000000000000000000019fd19fd19fd",
  "nTx": 1,
  "previousblockhash": "0000000002d1a07095a9166b65acc8558b47aeaea0e910fdba81189cbdca5fda",
  "nextblockhash": "000000003367ecf7ced02b79a4195b68d1c5ba932bb2d820bb205660c617baef",
  "strippedsize": 216,
  "size": 216,
  "weight": 864,
  "tx": [
    {
      "txid": "34d6bdf390f9a59e67ad2b8480063a691dd49ed58d2b57cf5e129551fcb040e7",
      "hash": "34d6bdf390f9a59e67ad2b8480063a691dd49ed58d2b57cf5e129551fcb040e7",
      "version": 1,
      "size": 135,
      "vsize": 135,
      "weight": 540,
      "locktime": 0,
      "vin": [
        {
          "coinbase": "04ffff001d022006",
          "sequence": 4294967295
        }
      ],
      "vout": [
        {
          "value": 50.0,
          "n": 0,
          "scriptPubKey": {
            "asm": "04acb00d2767c459c9d13f101fe2d6ee462bc53aa79baf94f8760838e2cb5e217d944273f79eb1e8c366e2805abc948d1f7d4a35911c8b5dc6c79edd0e61353fad OP_CHECKSIG",
            "desc": "pk(04acb00d2767c459c9d13f101fe2d6ee462bc53aa79baf94f8760838e2cb5e217d944273f79eb1e8c366e2805abc948d1f7d4a35911c8b5dc6c79edd0e61353fad)#ycz6eane",
            "hex": "4104acb00d2767c459c9d13f101fe2d6ee462bc53aa79baf94f8760838e2cb5e217d944273f79eb1e8c366e2805abc948d1f7d4a35911c8b5dc6c79edd0e61353fadac",
            "type": "pubkey"
          }
        }
      ],
      "hex": "01000000010000000000000000000000000000000000000000000000000000000000000000ffffffff0804ffff001d022006ffffffff0100f2052a01000000434104acb00d2767c459c9d13f101fe2d6ee462bc53aa79baf94f8760838e2cb5e217d944273f79eb1e8c366e2805abc948d1f7d4a35911c8b5dc6c79edd0e61353fadac00000000"
    }
  ]
}