{
  "hash": "00000000581a8d9a2a053e8d54b52477e6850e16fd33fcf4a607c1b21600c7ce",
  "confirmations": 52541,
  "height": 557,
  "version": 1,
  "versionHex": "00000001",
  "merkleroot": "a6cf97034eb09a9d47620c89d9823097aa31000e8d43593f4d24e4ee76c33ba0",
  "time": 1232008622,
  "mediantime": 1232004122,
  "nonce": 2606844214,
  "bits": "1d00ffff",
  "difficulty": 1,
  "chainwork": "0000000000000000000000000000000000000000000000000000022e022e022e",
  "nTx": 1,
  "previousblockhash": "00000000ee7947e2c00f657648bb1f4bfbc2f8fe0c9222d892c1474401cdc4ad",
  "nextblockhash": "00000000e6940891fe89992ae41b65864936c75880e4a428221520f8783c9215",
  "strippedsize": 216,
  "size": 216,
  "weight": 864,
  "tx": [
    {
      "txid": "a6cf97034eb09a9d47620c89d9823097aa31000e8d43593f4d24e4ee76c33ba0",
      "hash": "a6cf97034eb09a9d47620c89d9823097aa31000e8d43593f4d24e4ee76c33ba0",
      "version": 1,
      "size": 135,
      "vsize": 135,
      "weight": 540,
      "locktime": 0,
      "vin": [
        {
          "coinbase": "04ffff001d02d605",
          "sequence": 4294967295
        }
      ],
      "vout": [
        {
          "value": 50.0,
          "n": 0,
          "scriptPubKey": {
            "asm": "04ca0ad676bc343f1540a3ae20f357519b3573e05105f872b5d8590d1339d5c3d44547d97aa210d06f9ef70f65396289f7a230c2a16450e3cc28f17986e036490e OP_CHECKSIG",
            "desc": "pk(04ca0ad676bc343f1540a3ae20f357519b3573e05105f872b5d8590d1339d5c3d44547d97aa210d06f9ef70f65396289f7a230c2a16450e3cc28f17986e036490e)#z0l4wru2",
            "hex": "4104ca0ad676bc343f1540a3ae20f357519b3573e05105f872b5d8590d1339d5c3d44547d97aa210d06f9ef70f65396289f7a230c2a16450e3cc28f17986e036490eac",
            "type": "pubkey"
          }
        }
      ],
      "hex": "01000000010000000000000000000000000000000000000000000000000000000000000000ffffffff0804ffff001d02d605ffffffff0100f2052a01000000434104ca0ad676bc343f1540a3ae20f357519b3573e05105f872b5d8590d1339d5c3d44547d97aa210d06f9ef70f65396289f7a230c2a16450e3cc28f17986e036490eac00000000"
    }
  ]
}