{
  "hash": "00000000eafb128705bb96f7d0409b89f9c783b6b88b7d386ac7109721b02968",
  "confirmations": 52274,
  "height": 824,
  "version": 1,
  "versionHex": "00000001",
  "merkleroot": "4e7b39f97978a303d611147698fa5df474a1cef55e2e47ded6a31122171d8897",
  "time": 1232210734,
  "mediantime": 1232206702,
  "nonce": 170631261,
  "bits": "1d00ffff",
  "difficulty": 1,
  "chainwork": "0000000000000000000000000000000000000000000000000000033903390339",
  "nTx": 1,
  "previousblockhash": "00000000edf94d4cccfad927d469eaabfc1e8c68a715203f85e2459f6885296d",
  "nextblockhash": "00000000dac774c3cb8558b37d6b7879c0cbcacb6a455ca4e780ce85dd70a791",
  "strippedsize": 215,
  "size": 215,
  "weight": 860,
  "tx": [
    {
      "txid": "4e7b39f97978a303d611147698fa5df474a1cef55e2e47ded6a31122171d8897",
      "hash": "4e7b39f97978a303d611147698fa5df474a1cef55e2e47ded6a31122171d8897",
      "version": 1,
      "size": 134,
      "vsize": 134,
      "weight": 536,
      "locktime": 0,
      "vin": [
        {
          "coinbase": "04ffff001d016e",
          "sequence": 4294967295
        }
      ],
      "vout": [
        {
          "value": 50.0,
          "n": 0,
          "scriptPubKey": {
            "asm": "0480dc2647ef1aed071be6092c16c7f936f04008c3d4ccedd6ef4b380058cec5e1e6890d7a6c542604ec72422612d82b055e149e3e28c10335576ca2e578a15268 OP_CHECKSIG",
            "desc": "pk(0480dc2647ef1aed071be6092c16c7f936f04008c3d4ccedd6ef4b380058cec5e1e6890d7a6c542604ec72422612d82b055e149e3e28c10335576ca2e578a15268)#qf2wzx37",
            "hex": "410480dc2647ef1aed071be6092c16c7f936f04008c3d4ccedd6ef4b380058cec5e1e6890d7a6c542604ec72422612d82b055e149e3e28c10335576ca2e578a15268ac",
            "type": "pubkey"
          }
        }
      ],
      "hex": "01000000010000000000000000000000000000000000000000000000000000000000000000ffffffff0704ffff001d016effffffff0100f2052a0100000043410480dc2647ef1aed071be6092c16c7f936f04008c3d4ccedd6ef4b380058cec5e1e6890d7a6c542604ec72422612d82b055e149e3e28c10335576ca2e578a15268ac00000000"
    }
  ]
}