{
  "hash": "000000002a80294358278b082285f25284883bb7f67c95162e2ee5c56f220e1c",
  "confirmations": 47925,
  "height": 5173,
  "version": 1,
  "versionHex": "00000001",
  "merkleroot": "4baa020706ec5a7a4355d9f6189416d00c44df11bb9bef47b6c902387633c230",
  "time": 1235268374,
  "mediantime": 1235264083,
  "nonce": 947055617,
  "bits": "1d00ffff",
  "difficulty": 1,
  "chainwork": "0000000000000000000000000000000000000000000000000000143614361436",
  "nTx": 1,
  "previousblockhash": "00000000b65437c5b0e4a650609fcd24fc5233789e8913616fdfbd947ee92875",
  "nextblockhash": "00000000efde85fab4f3fcd5fe00c05a5ebd04e7997924f891578aeb15931eb3",
  "strippedsize": 215,
  "size": 215,
  "weight": 860,
  "tx": [
    {
      "txid": "4baa020706ec5a7a4355d9f6189416d00c44df11bb9bef47b6c902387633c230",
      "hash": "4baa020706ec5a7a4355d9f6189416d00c44df11bb9bef47b6c902387633c230",
      "version": 1,
      "size": 134,
      "vsize": 134,
      "weight": 536,
      "locktime": 0,
      "vin": [
        {
          "coinbase": "04ffff001d0109",
          "sequence": 4294967295
        }
      ],
      "vout": [
        {
          "value": 50.0,
          "n": 0,
          "scriptPubKey": {
            "asm": "0425dffd8bc4b16d4eda693ed0285cbfcf6fb500628ac4e9fdcc3b0db00e103ca301b076881f1a1fb52cff3a9ec1d0583bb82ba11524fb97f99973694747ea9dc2 OP_CHECKSIG",
            "desc": "pk(0425dffd8bc4b16d4eda693ed0285cbfcf6fb500628ac4e9fdcc3b0db00e103ca301b076881f1a1fb52cff3a9ec1d0583bb82ba11524fb97f99973694747ea9dc2)#rwxf6hqk",
            "hex": "410425dffd8bc4b16d4eda693ed0285cbfcf6fb500628ac4e9fdcc3b0db00e103ca301b076881f1a1fb52cff3a9ec1d0583bb82ba11524fb97f99973694747ea9dc2ac",
            "type": "pubkey"
          }
        }
      ],
      "hex": "01000000010000000000000000000000000000000000000000000000000000000000000000ffffffff0704ffff001d0109ffffffff0100f2052a0100000043410425dffd8bc4b16d4eda693ed0285cbfcf6fb500628ac4e9fdcc3b0db00e103ca301b076881f1a1fb52cff3a9ec1d0583bb82ba11524fb97f99973694747ea9dc2ac00000000"
    }
  ]
}