{
  "hash": "000000000c632c30f3f4adf7c1cc5f1377fe2d04369aaef23e59720aeefc1233",
  "confirmations": 47233,
  "height": 5865,
  "version": 1,
  "versionHex": "00000001",
  "merkleroot": "90484c390e580fdbfa33cb6e99c60ac1484a2fac4e891f40ec9e5d1d53943c30",
  "time": 1235812336,
  "mediantime": 1235809486,
  "nonce": 575535141,
  "bits": "1d00ffff",
  "difficulty": 1,
  "chainwork": "000000000000000000000000000000000000000000000000000016ea16ea16ea",
  "nTx": 1,
  "previousblockhash": "00000000ef4c811c84ed906383153380179c0c39ecec3bb02b6585661d4d14d8",
  "nextblockhash": "00000000103d8fdbf787e5863e15311de52d3aa924f1e93e80eb7552164b958b",
  "strippedsize": 216,
  "size": 216,
  "weight": 864,
  "tx": [
    {
      "txid": "90484c390e580fdbfa33cb6e99c60ac1484a2fac4e891f40ec9e5d1d53943c30",
      "hash": "90484c390e580fdbfa33cb6e99c60ac1484a2fac4e891f40ec9e5d1d53943c30",
      "version": 1,
      "size": 135,
      "vsize": 135,
      "weight": 540,
      "locktime": 0,
      "vin": [
        {
          "coinbase": "04ffff001d023602",
          "sequence": 4294967295
        }
      ],
      "vout": [
        {
          "value": 50.0,
          "n": 0,
          "scriptPubKey": {
            "asm": "047d98f0d96fefe872472bad10b13b2eda23c4302663e605dc45590506f86f892f6fdcf6a583c8fba40818946add0ebbf412030dc07eac4ce6920bfa8dab6fe5e8 OP_CHECKSIG",
            "desc": "pk(047d98f0d96fefe872472bad10b13b2eda23c4302663e605dc45590506f86f892f6fdcf6a583c8fba40818946add0ebbf412030dc07eac4ce6920bfa8dab6fe5e8)#jpvaxjvz",
            "hex": "41047d98f0d96fefe872472bad10b13b2eda23c4302663e605dc45590506f86f892f6fdcf6a583c8fba40818946add0ebbf412030dc07eac4ce6920bfa8dab6fe5e8ac",
            "type": "pubkey"
          }
        }
      ],
      "hex": "01000000010000000000000000000000000000000000000000000000000000000000000000ffffffff0804ffff001d023602ffffffff0100f2052a010000004341047d98f0d96fefe872472bad10b13b2eda23c4302663e605dc45590506f86f892f6fdcf6a583c8fba40818946add0ebbf412030dc07eac4ce6920bfa8dab6fe5e8ac00000000"
    }
  ]
}