{
  "hash": "00000000de7e8c28af0ce816493aeeb38e793bc4af1023a2660fe79a5e5452d2",
  "confirmations": 45490,
  "height": 7608,
  "version": 1,
  "versionHex": "00000001",
  "merkleroot": "2593f54fb003d95236c81aa0eef541c44e70c02a3da8bb3387104e5fb145c448",
  "time": 1237174587,
  "mediantime": 1237171294,
  "nonce": 1928465664,
  "bits": "1d00ffff",
  "difficulty": 1,
  "chainwork": "00000000000000000000000000000000000000000000000000001db91db91db9",
  "nTx": 1,
  "previousblockhash": "00000000abd5fdd6e2c284d42b0ea71b4178bd8e063eb6d761724bfe532084f7",
  "nextblockhash": "00000000e6455a87a189166001ecd142b621227c7e54788ca23ec0a332fc3a41",
  "strippedsize": 216,
  "size": 216,
  "weight": 864,
  "tx": [
    {
      "txid": "2593f54fb003d95236c81aa0eef541c44e70c02a3da8bb3387104e5fb145c448",
      "hash": "2593f54fb003d95236c81aa0eef541c44e70c02a3da8bb3387104e5fb145c448",
      "version": 1,
      "size": 135,
      "vsize": 135,
      "weight": 540,
      "locktime": 0,
      "vin": [
        {
          "coinbase": "04ffff001d02c902",
          "sequence": 4294967295
        }
      ],
      "vout": [
        {
          "value": 50.0,
          "n": 0,
          "scriptPubKey": {
            "asm": "0420d73ad7815e237636461957e740053a1d248651383e184920548a830c3f200471cac5fd6a29ae7717a3c040f71700bd283f427f7cbf255b4e1508eddbe42d09 OP_CHECKSIG",
            "desc": "pk(0420d73ad7815e237636461957e740053a1d248651383e184920548a830c3f200471cac5fd6a29ae7717a3c040f71700bd283f427f7cbf255b4e1508eddbe42d09)#qmgrpddu",
            "hex": "410420d73ad7815e237636461957e740053a1d248651383e184920548a830c3f200471cac5fd6a29ae7717a3c040f71700bd283f427f7cbf255b4e1508eddbe42d09ac",
            "type": "pubkey"
          }
        }
      ],
      "hex": "01000000010000000000000000000000000000000000000000000000000000000000000000ffffffff0804ffff001d02c902ffffffff0100f2052a0100000043410420d73ad7815e237636461957e740053a1d248651383e184920548a830c3f200471cac5fd6a29ae7717a3c040f71700bd283f427f7cbf255b4e1508eddbe42d09ac00000000"
    }
  ]
}