{
  "hash": "00000000ca2784989c64db4c1a5dc9d51facd4ad5c146c497e7e2f76413d8b86",
  "confirmations": 50476,
  "height": 2622,
  "version": 1,
  "versionHex": "00000001",
  "merkleroot": "5efba63cd127b299f2100d0dc78e9c9e3d053074fec1be799d4a2aa7bd8829d2",
  "time": 1233509224,
  "mediantime": 1233506144,
  "nonce": 1048251907,
  "bits": "1d00ffff",
  "difficulty": 1,
  "chainwork": "00000000000000000000000000000000000000000000000000000a3f0a3f0a3f",
  "nTx": 1,
  "previousblockhash": "000000007235eda3143cf68087b0056ff54f274afa7495a19ad8c2d75e814a2d",
  "nextblockhash": "0000000059628f82831204c2af4dadb8427ef2c257e64639c6016beccbf3160d",
  "strippedsize": 216,
  "size": 216,
  "weight": 864,
  "tx": [
    {
      "txid": "5efba63cd127b299f2100d0dc78e9c9e3d053074fec1be799d4a2aa7bd8829d2",
      "hash": "5efba63cd127b299f2100d0dc78e9c9e3d053074fec1be799d4a2aa7bd8829d2",
      "version": 1,
      "size": 135,
      "vsize": 135,
      "weight": 540,
      "locktime": 0,
      "vin": [
        {
          "coinbase": "04ffff001d026303",
          "sequence": 4294967295
        }
      ],
      "vout": [
        {
          "value": 50.0,
          "n": 0,
          "scriptPubKey": {
            "asm": "04183b61f6d10500a1623fe519a725bde8e0c69567c5545df039a1c671c391e6434b206d9d6b08f3f5b2d4921f3f135d83d9bf935d67bbadf2bd230aa406b6f454 OP_CHECKSIG",
            "desc": "pk(04183b61f6d10500a1623fe519a725bde8e0c69567c5545df039a1c671c391e6434b206d9d6b08f3f5b2d4921f3f135d83d9bf935d67bbadf2bd230aa406b6f454)#x76pyv5j",
            "hex": "4104183b61f6d10500a1623fe519a725bde8e0c69567c5545df039a1c671c391e6434b206d9d6b08f3f5b2d4921f3f135d83d9bf935d67bbadf2bd230aa406b6f454ac",
            "type": "pubkey"
          }
        }
      ],
      "hex": "01000000010000000000000000000000000000000000000000000000000000000000000000ffffffff0804ffff001d026303ffffffff0100f2052a01000000434104183b61f6d10500a1623fe519a725bde8e0c69567c5545df039a1c671c391e6434b206d9d6b08f3f5b2d4921f3f135d83d9bf935d67bbadf2bd230aa406b6f454ac00000000"
    }
  ]
}