{
  "hash": "000000007bee3c3f294e6c1b946ebbe85b1878faef0bf0c1e6908a0769d304f5",
  "confirmations": 43312,
  "height": 9786,
  "version": 1,
  "versionHex": "00000001",
  "merkleroot": "b1b9c53f75c33930b9df3d449ecbdfb6a9066fc0418328a7715035933f11459a",
  "time": 1238847892,
  "mediantime": 1238843909,
  "nonce": 183187492,
  "bits": "1d00ffff",
  "difficulty": 1,
  "chainwork": "0000000000000000000000000000000000000000000000000000263b263b263b",
  "nTx": 1,
  "previousblockhash": "000000009ac2acfcd4bdb56050db189a2efcfa8f81ffa94acadfe10049905cbf",
  "nextblockhash": "00000000b06330c887ba63611ef49b7f2a7ec6e32e12c0600a304757c2295df7",
  "strippedsize": 215,
  "size": 215,
  "weight": 860,
  "tx": [
    {
      "txid": "b1b9c53f75c33930b9df3d449ecbdfb6a9066fc0418328a7715035933f11459a",
      "hash": "b1b9c53f75c33930b9df3d449ecbdfb6a9066fc0418328a7715035933f11459a",
      "version": 1,
      "size": 134,
      "vsize": 134,
      "weight": 536,
      "locktime": 0,
      "vin": [
        {
          "coinbase": "04ffff001d011f",
          "sequence": 4294967295
        }
      ],
      "vout": [
        {
          "value": 50.0,
          "n": 0,
          "scriptPubKey": {
            "asm": "0437eba24b0f0e8d804cf28f89e21814f7096616dd43b714711238f5fc50539ddb933df9ea64dc31f89c457668a9f73ee16db66ed98c971724f4d90bc14c4e4446 OP_CHECKSIG",
            "desc": "pk(0437eba24b0f0e8d804cf28f89e21814f7096616dd43b714711238f5fc50539ddb933df9ea64dc31f89c457668a9f73ee16db66ed98c971724f4d90bc14c4e4446)#0zur6juj",
            "hex": "410437eba24b0f0e8d804cf28f89e21814f7096616dd43b714711238f5fc50539ddb933df9ea64dc31f89c457668a9f73ee16db66ed98c971724f4d90bc14c4e4446ac",
            "type": "pubkey"
          }
        }
      ],
      "hex": "01000000010000000000000000000000000000000000000000000000000000000000000000ffffffff0704ffff001d011fffffffff0100f2052a0100000043410437eba24b0f0e8d804cf28f89e21814f7096616dd43b714711238f5fc50539ddb933df9ea64dc31f89c457668a9f73ee16db66ed98c971724f4d90bc14c4e4446ac00000000"
    }
  ]
}