{
  "hash": "0000000013c878e1fd334fc9a1f4dbe6a4ed76562c5507c4fc21c2e273f41610",
  "confirmations": 52427,
  "height": 511,
  "version": 1,
  "versionHex": "00000001",
  "merkleroot": "58cd41b9ab6ef3c2daf1314392115f3ec60a40bfbd021648377fa70b859dc506",
  "time": 1231975547,
  "mediantime": 1231973609,
  "nonce": 4240587811,
  "bits": "1d00ffff",
  "difficulty": 1,
  "chainwork": "0000000000000000000000000000000000000000000000000000020002000200",
  "nTx": 1,
  "previousblockhash": "00000000af4a7f5131596697800a0014c668ae7f8385ce023c270dbce8844884",
  "nextblockhash": "000000000c8662009fdc5fc649984215b6472b860569ccbeb2a63a6731acdf8e",
  "strippedsize": 216,
  "size": 216,
  "weight": 864,
  "tx": [
    {
      "txid": "58cd41b9ab6ef3c2daf1314392115f3ec60a40bfbd021648377fa70b859dc506",
      "hash": "58cd41b9ab6ef3c2daf1314392115f3ec60a40bfbd021648377fa70b859dc506",
      "version": 1,
      "size": 135,
      "vsize": 135,
      "weight": 540,
      "locktime": 0,
      "vin": [
        {
          "coinbase": "04ffff001d02a304",
          "sequence": 4294967295
        }
      ],
      "vout": [
        {
          "value": 50.0,
          "n": 0,
          "scriptPubKey": {
            "asm": "04ccb0ce9a13b6b45fcb559c588d6be285c256da17217b9961a5d8b5fb1a59d5ec843da846a32f5f7fb36009521f12f5ada777f8026dc18d0b9ab809089cb29cee OP_CHECKSIG",
            "desc": "pk(04ccb0ce9a13b6b45fcb559c588d6be285c256da17217b9961a5d8b5fb1a59d5ec843da846a32f5f7fb36009521f12f5ada777f8026dc18d0b9ab809089cb29cee)#pdrz69qf",
            "hex": "4104ccb0ce9a13b6b45fcb559c588d6be285c256da17217b9961a5d8b5fb1a59d5ec843da846a32f5f7fb36009521f12f5ada777f8026dc18d0b9ab809089cb29ceeac",
            "type": "pubkey"
          }
        }
      ],
      "hex": "01000000010000000000000000000000000000000000000000000000000000000000000000ffffffff0804ffff001d02a304ffffffff0100f2052a01000000434104ccb0ce9a13b6b45fcb559c588d6be285c256da17217b9961a5d8b5fb1a59d5ec843da846a32f5f7fb36009521f12f5ada777f8026dc18d0b9ab809089cb29ceeac00000000"
    }
  ]
}