{
  "hash": "000000006d3cd44163e49744c4a8ea078168a0579c89603cf5c4819826c70368",
  "confirmations": 48371,
  "height": 4727,
  "version": 1,
  "versionHex": "00000001",
  "merkleroot": "8234419fe8f9afe4e5c032e040f331fa94e0f53a0c8e5583dea2aeab613dc805",
  "time": 1234947125,
  "mediantime": 1234942260,
  "nonce": 1259894584,
  "bits": "1d00ffff",
  "difficulty": 1,
  "chainwork": "0000000000000000000000000000000000000000000000000000127812781278",
  "nTx": 1,
  "previousblockhash": "00000000715b397fb3e074b467e65a0404c59bc6ea15f4a11d084405dc843517",
  "nextblockhash": "00000000c6e535100cde044fb3af02112156265a176ba5e2e12f4cb5882254f7",
  "strippedsize": 216,
  "size": 216,
  "weight": 864,
  "tx": [
    {
      "txid": "8234419fe8f9afe4e5c032e040f331fa94e0f53a0c8e5583dea2aeab613dc805",
      "hash": "8234419fe8f9afe4e5c032e040f331fa94e0f53a0c8e5583dea2aeab613dc805",
      "version": 1,
      "size": 135,
      "vsize": 135,
      "weight": 540,
      "locktime": 0,
      "vin": [
        {
          "coinbase": "04ffff001d02db02",
          "sequence": 4294967295
        }
      ],
      "vout": [
        {
          "value": 50.0,
          "n": 0,
          "scriptPubKey": {
            "asm": "0440be01fc06cdb79786494679406e52cebc563d6c2614f7914e7c0c006644a95c52667fb8a220c192a2993a3abca4a29ebfb18e23c9c262bdbc56e7656778d1d3 OP_CHECKSIG",
            "desc": "pk(0440be01fc06cdb79786494679406e52cebc563d6c2614f7914e7c0c006644a95c52667fb8a220c192a2993a3abca4a29ebfb18e23c9c262bdbc56e7656778d1d3)#ethuz42w",
            "hex": "410440be01fc06cdb79786494679406e52cebc563d6c2614f7914e7c0c006644a95c52667fb8a220c192a2993a3abca4a29ebfb18e23c9c262bdbc56e7656778d1d3ac",
            "type": "pubkey"
          }
        }
      ],
      "hex": "01000000010000000000000000000000000000000000000000000000000000000000000000ffffffff0804ffff001d02db02ffffffff0100f2052a0100000043410440be01fc06cdb79786494679406e52cebc563d6c2614f7914e7c0c006644a95c52667fb8a220c192a2993a3abca4a29ebfb18e23c9c262bdbc56e7656778d1d3ac00000000"
    }
  ]
}