{
  "hash": "0000000028e5e4ccf9c8fb193d58f0468bd6403acd23cddff590149bd55c4880",
  "confirmations": 50518,
  "height": 2580,
  "version": 1,
  "versionHex": "00000001",
  "merkleroot": "c3d7596b2ae8dcef11e65895533610212b60afaea1e6c176b1b9350413a80e9a",
  "time": 1233477840,
  "mediantime": 1233473816,
  "nonce": 1809523457,
  "bits": "1d00ffff",
  "difficulty": 1,
  "chainwork": "00000000000000000000000000000000000000000000000000000a150a150a15",
  "nTx": 1,
  "previousblockhash": "0000000096a904fbe562c936302421be05856fce88a4722a9333734996b6938b",
  "nextblockhash": "00000000278eeefb109badc045bc9efaed1b74587f5ffb3e2f06ed6ec4a4ddc1",
  "strippedsize": 216,
  "size": 216,
  "weight": 864,
  "tx": [
    {
      "txid": "c3d7596b2ae8dcef11e65895533610212b60afaea1e6c176b1b9350413a80e9a",
      "hash": "c3d7596b2ae8dcef11e65895533610212b60afaea1e6c176b1b9350413a80e9a",
      "version": 1,
      "size": 135,
      "vsize": 135,
      "weight": 540,
      "locktime": 0,
      "vin": [
        {
          "coinbase": "04ffff001d029e02",
          "sequence": 4294967295
        }
      ],
      "vout": [
        {
          "value": 50.0,
          "n": 0,
          "scriptPubKey": {
            "asm": "041d8cdab688fc941dee3d19f4e615879212036b8d36c8d7871ee4ef2c05313d5b31c4bd3202cd9465cf8bb0f3f7b7b012b3c26f0a4797249874f017e4f3eb87ea OP_CHECKSIG",
            "desc": "pk(041d8cdab688fc941dee3d19f4e615879212036b8d36c8d7871ee4ef2c05313d5b31c4bd3202cd9465cf8bb0f3f7b7b012b3c26f0a4797249874f017e4f3eb87ea)#66ajh4vm",
            "hex": "41041d8cdab688fc941dee3d19f4e615879212036b8d36c8d7871ee4ef2c05313d5b31c4bd3202cd9465cf8bb0f3f7b7b012b3c26f0a4797249874f017e4f3eb87eaac",
            "type": "pubkey"
          }
        }
      ],
      "hex": "01000000010000000000000000000000000000000000000000000000000000000000000000ffffffff0804ffff001d029e02ffffffff0100f2052a010000004341041d8cdab688fc941dee3d19f4e615879212036b8d36c8d7871ee4ef2c05313d5b31c4bd3202cd9465cf8bb0f3f7b7b012b3c26f0a4797249874f017e4f3eb87eaac00000000"
    }
  ]
}