{
  "hash": "000000000ef6f116ecc58b116edcb072be5ef88b7af44d784e73319665ff41c1",
  "confirmations": 49514,
  "height": 3584,
  "version": 1,
  "versionHex": "00000001",
  "merkleroot": "a0cb0d8560473324599ef46819fb886d5c89a189527df75ae25d54adafc089de",
  "time": 1234161871,
  "mediantime": 1234158080,
  "nonce": 3637168949,
  "bits": "1d00ffff",
  "difficulty": 1,
  "chainwork": "00000000000000000000000000000000000000000000000000000e010e010e01",
  "nTx": 1,
  "previousblockhash": "000000003635c78b66d1743a2743e5f891abff76a812bffbf5e2b9f34786ed53",
  "nextblockhash": "00000000b2e6abb2e0fb33342e7076e502f898243e2fa2254589cafdfc159989",
  "strippedsize": 216,
  "size": 216,
  "weight": 864,
  "tx": [
    {
      "txid": "a0cb0d8560473324599ef46819fb886d5c89a189527df75ae25d54adafc089de",
      "hash": "a0cb0d8560473324599ef46819fb886d5c89a189527df75ae25d54adafc089de",
      "version": 1,
      "size": 135,
      "vsize": 135,
      "weight": 540,
      "locktime": 0,
      "vin": [
        {
          "coinbase": "04ffff001d026a08",
          "sequence": 4294967295
        }
      ],
      "vout": [
        {
          "value": 50.0,
          "n": 0,
          "scriptPubKey": {
            "asm": "04eb1440deb9e5ee9409b8ea047cbd664678e4bf668370e9fcabdd6833793d61ba50b579c9aaa6699807a4c4e01b1f418c2a248de52a098dcc4cba5493992067ca OP_CHECKSIG",
            "desc": "pk(04eb1440deb9e5ee9409b8ea047cbd664678e4bf668370e9fcabdd6833793d61ba50b579c9aaa6699807a4c4e01b1f418c2a248de52a098dcc4cba5493992067ca)#lknzdrns",
            "hex": "4104eb1440deb9e5ee9409b8ea047cbd664678e4bf668370e9fcabdd6833793d61ba50b579c9aaa6699807a4c4e01b1f418c2a248de52a098dcc4cba5493992067caac",
            "type": "pubkey"
          }
        }
      ],
      "hex": "01000000010000000000000000000000000000000000000000000000000000000000000000ffffffff0804ffff001d026a08ffffffff0100f2052a01000000434104eb1440deb9e5ee9409b8ea047cbd664678e4bf668370e9fcabdd6833793d61ba50b579c9aaa6699807a4c4e01b1f418c2a248de52a098dcc4cba5493992067caac00000000"
    }
  ]
}