{
  "hash": "00000000891a7178d8ae57ce0f58cd0f5f0fcaed2bc067c1af8514e76099909b",
  "confirmations": 43631,
  "height": 9467,
  "version": 1,
  "versionHex": "00000001",
  "merkleroot": "082b3fb82a90aba0d8b8a7159193143d23afcc83053e3b33941af3aa7dce3352",
  "time": 1238603782,
  "mediantime": 1238601437,
  "nonce": 28169034,
  "bits": "1d00ffff",
  "difficulty": 1,
  "chainwork": "000000000000000000000000000000000000000000000000000024fc24fc24fc",
  "nTx": 1,
  "previousblockhash": "000000002fcc3326cb16666c82cd298ea4a6bf66363351af87d392b82f190ace",
  "nextblockhash": "00000000c8f4d18b6df1c2a0788312b5c8df41bc083a70ef0a34a9908a7c45b8",
  "strippedsize": 216,
  "size": 216,
  "weight": 864,
  "tx": [
    {
      "txid": "082b3fb82a90aba0d8b8a7159193143d23afcc83053e3b33941af3aa7dce3352",
      "hash": "082b3fb82a90aba0d8b8a7159193143d23afcc83053e3b33941af3aa7dce3352",
      "version": 1,
      "size": 135,
      "vsize": 135,
      "weight": 540,
      "locktime": 0,
      "vin": [
        {
          "coinbase": "04ffff001d02e309",
          "sequence": 4294967295
        }
      ],
      "vout": [
        {
          "value": 50.0,
          "n": 0,
          "scriptPubKey": {
            "asm": "04e9d9de5140cfda360fa961af10bd95e5e2aa93814a1f598cf5747b17cf36efaa00e48844e948cf5dd19b8817b196e7557677462582a632b613fbd29f3670484b OP_CHECKSIG",
            "desc": "pk(04e9d9de5140cfda360fa961af10bd95e5e2aa93814a1f598cf5747b17cf36efaa00e48844e948cf5dd19b8817b196e7557677462582a632b613fbd29f3670484b)#nezmswrv",
            "hex": "4104e9d9de5140cfda360fa961af10bd95e5e2aa93814a1f598cf5747b17cf36efaa00e48844e948cf5dd19b8817b196e7557677462582a632b613fbd29f3670484bac",
            "type": "pubkey"
          }
        }
      ],
      "hex": "01000000010000000000000000000000000000000000000000000000000000000000000000ffffffff0804ffff001d02e309ffffffff0100f2052a01000000434104e9d9de5140cfda360fa961af10bd95e5e2aa93814a1f598cf5747b17cf36efaa00e48844e948cf5dd19b8817b196e7557677462582a632b613fbd29f3670484bac00000000"
    }
  ]
}