{
  "hash": "00000000e3e9f616676fc2d12c188eed257f5300593723445a3c551fb57787a0",
  "confirmations": 48165,
  "height": 4933,
  "version": 1,
  "versionHex": "00000001",
  "merkleroot": "d5aa90fa089b07fed660ec3293cb395fb2e571e76d60069e7cc0deed37ad79af",
  "time": 1235092428,
  "mediantime": 1235089204,
  "nonce": 3932514594,
  "bits": "1d00ffff",
  "difficulty": 1,
  "chainwork": "0000000000000000000000000000000000000000000000000000134613461346",
  "nTx": 1,
  "previousblockhash": "000000006c354dbdf9335c68073941e5d7a7a223f5de5200bdcc4957a7b374dc",
  "nextblockhash": "00000000b6ef2f53bef81c9c04a010e5ac99fc586c421fab2957926b127edc86",
  "strippedsize": 216,
  "size": 216,
  "weight": 864,
  "tx": [
    {
      "txid": "d5aa90fa089b07fed660ec3293cb395fb2e571e76d60069e7cc0deed37ad79af",
      "hash": "d5aa90fa089b07fed660ec3293cb395fb2e571e76d60069e7cc0deed37ad79af",
      "version": 1,
      "size": 135,
      "vsize": 135,
      "weight": 540,
      "locktime": 0,
      "vin": [
        {
          "coinbase": "04ffff001d022f06",
          "sequence": 4294967295
        }
      ],
      "vout": [
        {
          "value": 50.0,
          "n": 0,
          "scriptPubKey": {
            "asm": "04ce605200d0ca8ba816f88867dff2bf0353da3bf07b36a1d02e45ac652df5697601cbe1bd91238d4202a7902b02c978b864f8111c5829295cbdf7df74d3ca3f80 OP_CHECKSIG",
            "desc": "pk(04ce605200d0ca8ba816f88867dff2bf0353da3bf07b36a1d02e45ac652df5697601cbe1bd91238d4202a7902b02c978b864f8111c5829295cbdf7df74d3ca3f80)#5kvhn9gr",
            "hex": "4104ce605200d0ca8ba816f88867dff2bf0353da3bf07b36a1d02e45ac652df5697601cbe1bd91238d4202a7902b02c978b864f8111c5829295cbdf7df74d3ca3f80ac",
            "type": "pubkey"
          }
        }
      ],
      "hex": "01000000010000000000000000000000000000000000000000000000000000000000000000ffffffff0804ffff001d022f06ffffffff0100f2052a01000000434104ce605200d0ca8ba816f88867dff2bf0353da3bf07b36a1d02e45ac652df5697601cbe1bd91238d4202a7902b02c978b864f8111c5829295cbdf7df74d3ca3f80ac00000000"
    }
  ]
}