{
  "hash": "00000000a85e5b2827b328be25397bfda277b1011e44c3682726f8a8f701ab69",
  "confirmations": 51858,
  "height": 1240,
  "version": 1,
  "versionHex": "00000001",
  "merkleroot": "68fa37a23804116f89ee68441f7a4b91abcf519bd371513f9a65b1c67fd0b772",
  "time": 1232531092,
  "mediantime": 1232527002,
  "nonce": 13405875,
  "bits": "1d00ffff",
  "difficulty": 1,
  "chainwork": "000000000000000000000000000000000000000000000000000004d904d904d9",
  "nTx": 1,
  "previousblockhash": "000000002cdcd68510d38863a1eb80c73edf9a181ab838037bccab1d64cc910e",
  "nextblockhash": "0000000010225c4184ee284212c099a37d333713d13fe2389649bdd880f018b5",
  "strippedsize": 215,
  "size": 215,
  "weight": 860,
  "tx": [
    {
      "txid": "68fa37a23804116f89ee68441f7a4b91abcf519bd371513f9a65b1c67fd0b772",
      "hash": "68fa37a23804116f89ee68441f7a4b91abcf519bd371513f9a65b1c67fd0b772",
      "version": 1,
      "size": 134,
      "vsize": 134,
      "weight": 536,
      "locktime": 0,
      "vin": [
        {
          "coinbase": "04ffff001d013e",
          "sequence": 4294967295
        }
      ],
      "vout": [
        {
          "value": 50.0,
          "n": 0,
          "scriptPubKey": {
            "asm": "0435221b798d04e0862277512750c8499115774ab2dad2763c5e91f1b1eb7c258b5d6fb503a911536d8e6a84222c233e2fab6c834b05245cd6f16a777a3a5950a1 OP_CHECKSIG",
            "desc": "pk(0435221b798d04e0862277512750c8499115774ab2dad2763c5e91f1b1eb7c258b5d6fb503a911536d8e6a84222c233e2fab6c834b05245cd6f16a777a3a5950a1)#a2gwzaya",
            "hex": "410435221b798d04e0862277512750c8499115774ab2dad2763c5e91f1b1eb7c258b5d6fb503a911536d8e6a84222c233e2fab6c834b05245cd6f16a777a3a5950a1ac",
            "type": "pubkey"
          }
        }
      ],
      "hex": "01000000010000000000000000000000000000000000000000000000000000000000000000ffffffff0704ffff001d013effffffff0100f2052a0100000043410435221b798d04e0862277512750c8499115774ab2dad2763c5e91f1b1eb7c258b5d6fb503a911536d8e6a84222c233e2fab6c834b05245cd6f16a777a3a5950a1ac00000000"
    }
  ]
}