{
  "hash": "00000000a2886c95400fd3b263b9920af80b118b28fee5d2a162a18e4d9d8b2f",
  "confirmations": 51927,
  "height": 78,
  "version": 1,
  "versionHex": "00000001",
  "merkleroot": "7ea1d2304f1f95fae773ed8ef67b51cfd5ab33ea8b6ab0a932ee3e248b7ba74c",
  "time": 1231635654,
  "mediantime": 1231630288,
  "nonce": 483699940,
  "bits": "1d00ffff",
  "difficulty": 1,
  "chainwork": "0000000000000000000000000000000000000000000000000000004f004f004f",
  "nTx": 1,
  "previousblockhash": "00000000e7d28ee0e6238bd21775a007d5c4987967d2e99a527572dd30fa06ef",
  "nextblockhash": "0000000086e318e8c348dad73199bb6fac8cc1effb9c872a7dda49c5caca0021",
  "strippedsize": 215,
  "size": 215,
  "weight": 860,
  "tx": [
    {
      "txid": "7ea1d2304f1f95fae773ed8ef67b51cfd5ab33ea8b6ab0a932ee3e248b7ba74c",
      "hash": "7ea1d2304f1f95fae773ed8ef67b51cfd5ab33ea8b6ab0a932ee3e248b7ba74c",
      "version": 1,
      "size": 134,
      "vsize": 134,
      "weight": 536,
      "locktime": 0,
      "vin": [
        {
          "coinbase": "04ffff001d010f",
          "sequence": 4294967295
        }
      ],
      "vout": [
        {
          "value": 50.0,
          "n": 0,
          "scriptPubKey": {
            "asm": "04fd024595ebaa7a83bd672cd7d59e6eb42f0f04e7dc77a4f0634e45c2420d8a949cba06cde901f23d52cda564d494d172ba80281fa2d9c2a2e825e9c462be0da6 OP_CHECKSIG",
            "desc": "pk(04fd024595ebaa7a83bd672cd7d59e6eb42f0f04e7dc77a4f0634e45c2420d8a949cba06cde901f23d52cda564d494d172ba80281fa2d9c2a2e825e9c462be0da6)#jsmp5k5f",
            "hex": "4104fd024595ebaa7a83bd672cd7d59e6eb42f0f04e7dc77a4f0634e45c2420d8a949cba06cde901f23d52cda564d494d172ba80281fa2d9c2a2e825e9c462be0da6ac",
            "type": "pubkey"
          }
        }
      ],
      "hex": "01000000010000000000000000000000000000000000000000000000000000000000000000ffffffff0704ffff001d010fffffffff0100f2052a01000000434104fd024595ebaa7a83bd672cd7d59e6eb42f0f04e7dc77a4f0634e45c2420d8a949cba06cde901f23d52cda564d494d172ba80281fa2d9c2a2e825e9c462be0da6ac00000000"
    }
  ]
}