{
  "hash": "0000000046ba32458dff710c8f28a1ae9bb49e8f8ee994c6bf2e99ec4b2d73c6",
  "confirmations": 45175,
  "height": 7923,
  "version": 1,
  "versionHex": "00000001",
  "merkleroot": "20110e52f29e270f48fe4109b54ed60d2e05c7a560d3d823efeb84a5db311869",
  "time": 1237409582,
  "mediantime": 1237405433,
  "nonce": 99300884,
  "bits": "1d00ffff",
  "difficulty": 1,
  "chainwork": "00000000000000000000000000000000000000000000000000001ef41ef41ef4",
  "nTx": 1,
  "previousblockhash": "00000000b9a7113fc8550eb02dfec36c21e9bce64595705c4dafa7ab267b0665",
  "nextblockhash": "00000000985c4c8c6b6597186250e2486f7ff7faa393ccbf7070803502b78cc6",
  "strippedsize": 215,
  "size": 215,
  "weight": 860,
  "tx": [
    {
      "txid": "20110e52f29e270f48fe4109b54ed60d2e05c7a560d3d823efeb84a5db311869",
      "hash": "20110e52f29e270f48fe4109b54ed60d2e05c7a560d3d823efeb84a5db311869",
      "version": 1,
      "size": 134,
      "vsize": 134,
      "weight": 536,
      "locktime": 0,
      "vin": [
        {
          "coinbase": "04ffff001d0152",
          "sequence": 4294967295
        }
      ],
      "vout": [
        {
          "value": 50.0,
          "n": 0,
          "scriptPubKey": {
            "asm": "04848a40a9fb5a43e62fc9eb57ddae45143d94ec4921364136bb27636295d8f13b4cc0b03c264b20a0fa306ca3ba73e1a1c33dbc789a06c36e4b90d0a07597d894 OP_CHECKSIG",
            "desc": "pk(04848a40a9fb5a43e62fc9eb57ddae45143d94ec4921364136bb27636295d8f13b4cc0b03c264b20a0fa306ca3ba73e1a1c33dbc789a06c36e4b90d0a07597d894)#jfg55zjf",
            "hex": "4104848a40a9fb5a43e62fc9eb57ddae45143d94ec4921364136bb27636295d8f13b4cc0b03c264b20a0fa306ca3ba73e1a1c33dbc789a06c36e4b90d0a07597d894ac",
            "type": "pubkey"
          }
        }
      ],
      "hex": "01000000010000000000000000000000000000000000000000000000000000000000000000ffffffff0704ffff001d0152ffffffff0100f2052a01000000434104848a40a9fb5a43e62fc9eb57ddae45143d94ec4921364136bb27636295d8f13b4cc0b03c264b20a0fa306ca3ba73e1a1c33dbc789a06c36e4b90d0a07597d894ac00000000"
    }
  ]
}