{
  "hash": "00000000682d24e0ec13f1b3cbddf37ad655b7f962d0a604f2477bbbc9f54b64",
  "confirmations": 44844,
  "height": 8254,
  "version": 1,
  "versionHex": "00000001",
  "merkleroot": "223d09075fe5d33f0df2e664103900528b729c686f9ac8a5499f863823aefc30",
  "time": 1237699937,
  "mediantime": 1237696791,
  "nonce": 4240129828,
  "bits": "1d00ffff",
  "difficulty": 1,
  "chainwork": "0000000000000000000000000000000000000000000000000000203f203f203f",
  "nTx": 1,
  "previousblockhash": "000000004cf71dbbc5e6b2570c1413cf01f14f0698ec6fe5b3c8003f828506ce",
  "nextblockhash": "000000008df75b21de6295c8ba146a562207d5ca01666666f1b966b319989770",
  "strippedsize": 216,
  "size": 216,
  "weight": 864,
  "tx": [
    {
      "txid": "223d09075fe5d33f0df2e664103900528b729c686f9ac8a5499f863823aefc30",
      "hash": "223d09075fe5d33f0df2e664103900528b729c686f9ac8a5499f863823aefc30",
      "version": 1,
      "size": 135,
      "vsize": 135,
      "weight": 540,
      "locktime": 0,
      "vin": [
        {
          "coinbase": "04ffff001d028c03",
          "sequence": 4294967295
        }
      ],
      "vout": [
        {
          "value": 50.0,
          "n": 0,
          "scriptPubKey": {
            "asm": "041fe9cbca32d12133937246ca082e46dcdf7a56afe9e3346472c388d0c7fc99f66eb888aa7257f12f493abfb8d38e08fd29ff1fd6cf896cef5ea3c46bc9009254 OP_CHECKSIG",
            "desc": "pk(041fe9cbca32d12133937246ca082e46dcdf7a56afe9e3346472c388d0c7fc99f66eb888aa7257f12f493abfb8d38e08fd29ff1fd6cf896cef5ea3c46bc9009254)#4zv0v2qe",
            "hex": "41041fe9cbca32d12133937246ca082e46dcdf7a56afe9e3346472c388d0c7fc99f66eb888aa7257f12f493abfb8d38e08fd29ff1fd6cf896cef5ea3c46bc9009254ac",
            "type": "pubkey"
          }
        }
      ],
      "hex": "01000000010000000000000000000000000000000000000000000000000000000000000000ffffffff0804ffff001d028c03ffffffff0100f2052a010000004341041fe9cbca32d12133937246ca082e46dcdf7a56afe9e3346472c388d0c7fc99f66eb888aa7257f12f493abfb8d38e08fd29ff1fd6cf896cef5ea3c46bc9009254ac00000000"
    }
  ]
}