{
  "hash": "000000000739d3e005f2425ac6587c83e21e5821f386a923155cf5e79389d29e",
  "confirmations": 48942,
  "height": 4156,
  "version": 1,
  "versionHex": "00000001",
  "merkleroot": "8733e1355db9739a5290b8c59b2ced08feae1cab508defc77946815f0f36b38e",
  "time": 1234552082,
  "mediantime": 1234549560,
  "nonce": 81685307,
  "bits": "1d00ffff",
  "difficulty": 1,
  "chainwork": "0000000000000000000000000000000000000000000000000000103d103d103d",
  "nTx": 1,
  "previousblockhash": "00000000386f393ec8653f9ba8fe2e4a6ac3416acaa5a66982421d8c25386404",
  "nextblockhash": "000000006ff93b9f91a0716f376a4eb93d945ca4002c498524a7d107296211ff",
  "strippedsize": 216,
  "size": 216,
  "weight": 864,
  "tx": [
    {
      "txid": "8733e1355db9739a5290b8c59b2ced08feae1cab508defc77946815f0f36b38e",
      "hash": "8733e1355db9739a5290b8c59b2ced08feae1cab508defc77946815f0f36b38e",
      "version": 1,
      "size": 135,
      "vsize": 135,
      "weight": 540,
      "locktime": 0,
      "vin": [
        {
          "coinbase": "04ffff001d02d008",
          "sequence": 4294967295
        }
      ],
      "vout": [
        {
          "value": 50.0,
          "n": 0,
          "scriptPubKey": {
            "asm": "04acb935738c58f911dd6c2f9433613eea87038f3998d435329526ac634a7775afb5bbac6c3d66930f6e5fb5c84bdfd24a551f61912e4839b2cdd05fbb940fe370 OP_CHECKSIG",
            "desc": "pk(04acb935738c58f911dd6c2f9433613eea87038f3998d435329526ac634a7775afb5bbac6c3d66930f6e5fb5c84bdfd24a551f61912e4839b2cdd05fbb940fe370)#ytdn9fup",
            "hex": "4104acb935738c58f911dd6c2f9433613eea87038f3998d435329526ac634a7775afb5bbac6c3d66930f6e5fb5c84bdfd24a551f61912e4839b2cdd05fbb940fe370ac",
            "type": "pubkey"
          }
        }
      ],
      "hex": "01000000010000000000000000000000000000000000000000000000000000000000000000ffffffff0804ffff001d02d008ffffffff0100f2052a01000000434104acb935738c58f911dd6c2f9433613eea87038f3998d435329526ac634a7775afb5bbac6c3d66930f6e5fb5c84bdfd24a551f61912e4839b2cdd05fbb940fe370ac00000000"
    }
  ]
}