{
  "hash": "000000006ba5f6eada01dce3194be9fa2ff777b689bce7ab37a4d5a85e591820",
  "confirmations": 52411,
  "height": 687,
  "version": 1,
  "versionHex": "00000001",
  "merkleroot": "c2da9f0a71a77aa727c2c0dd1e0798f697302dbc38814938d5338233f8480890",
  "time": 1232098386,
  "mediantime": 1232094155,
  "nonce": 6180493,
  "bits": "1d00ffff",
  "difficulty": 1,
  "chainwork": "000000000000000000000000000000000000000000000000000002b002b002b0",
  "nTx": 1,
  "previousblockhash": "0000000070ac1f16e6ee73ed5fd4cd0b095844be257eafc617d86e54f0432b94",
  "nextblockhash": "00000000ffa5e19e744552ad9cf9255de8ac6d4c03b9ed259fca020c9a071b1e",
  "strippedsize": 215,
  "size": 215,
  "weight": 860,
  "tx": [
    {
      "txid": "c2da9f0a71a77aa727c2c0dd1e0798f697302dbc38814938d5338233f8480890",
      "hash": "c2da9f0a71a77aa727c2c0dd1e0798f697302dbc38814938d5338233f8480890",
      "version": 1,
      "size": 134,
      "vsize": 134,
      "weight": 536,
      "locktime": 0,
      "vin": [
        {
          "coinbase": "04ffff001d0110",
          "sequence": 4294967295
        }
      ],
      "vout": [
        {
          "value": 50.0,
          "n": 0,
          "scriptPubKey": {
            "asm": "04c47c2c2eea037caf702f8292b28523a2c42bfb7da69a744b411e4dbd73ca4af4601ef6a704c6c71ebe16b07f755fb00ceff91a12fd3099453ef80eef96f1923f OP_CHECKSIG",
            "desc": "pk(04c47c2c2eea037caf702f8292b28523a2c42bfb7da69a744b411e4dbd73ca4af4601ef6a704c6c71ebe16b07f755fb00ceff91a12fd3099453ef80eef96f1923f)#3qeylqxg",
            "hex": "4104c47c2c2eea037caf702f8292b28523a2c42bfb7da69a744b411e4dbd73ca4af4601ef6a704c6c71ebe16b07f755fb00ceff91a12fd3099453ef80eef96f1923fac",
            "type": "pubkey"
          }
        }
      ],
      "hex": "01000000010000000000000000000000000000000000000000000000000000000000000000ffffffff0704ffff001d0110ffffffff0100f2052a01000000434104c47c2c2eea037caf702f8292b28523a2c42bfb7da69a744b411e4dbd73ca4af4601ef6a704c6c71ebe16b07f755fb00ceff91a12fd3099453ef80eef96f1923fac00000000"
    }
  ]
}