{
  "hash": "0000000078493daf495abe0ca316583c5b291ed4e2edc793e7348c70ad6b6c53",
  "confirmations": 43524,
  "height": 9574,
  "version": 1,
  "versionHex": "00000001",
  "merkleroot": "e31f640befc1648014d71974afe393b86a7412440440f1e10f3be70c2d1517a3",
  "time": 1238680820,
  "mediantime": 1238678252,
  "nonce": 367637786,
  "bits": "1d00ffff",
  "difficulty": 1,
  "chainwork": "0000000000000000000000000000000000000000000000000000256725672567",
  "nTx": 1,
  "previousblockhash": "0000000009e9fa775a2d3fbf04779dc784bff89b95870a684ca597d3bdbe800d",
  "nextblockhash": "000000008a434bf614865306593649511c5d2a784d5c756b9174619b2e8df9a6",
  "strippedsize": 216,
  "size": 216,
  "weight": 864,
  "tx": [
    {
      "txid": "e31f640befc1648014d71974afe393b86a7412440440f1e10f3be70c2d1517a3",
      "hash": "e31f640befc1648014d71974afe393b86a7412440440f1e10f3be70c2d1517a3",
      "version": 1,
      "size": 135,
      "vsize": 135,
      "weight": 540,
      "locktime": 0,
      "vin": [
        {
          "coinbase": "04ffff001d029506",
          "sequence": 4294967295
        }
      ],
      "vout": [
        {
          "value": 50.0,
          "n": 0,
          "scriptPubKey": {
            "asm": "0424a547423bd1acefd053ba914b26915a62b4849e59b772435a7596dece8adb5c459aac6b15c1695edda44f6fcfcacf0a6783ebd1968ad80b4f3a105588f5769c OP_CHECKSIG",
            "desc": "pk(0424a547423bd1acefd053ba914b26915a62b4849e59b772435a7596dece8adb5c459aac6b15c1695edda44f6fcfcacf0a6783ebd1968ad80b4f3a105588f5769c)#kk00kphu",
            "hex": "410424a547423bd1acefd053ba914b26915a62b4849e59b772435a7596dece8adb5c459aac6b15c1695edda44f6fcfcacf0a6783ebd1968ad80b4f3a105588f5769cac",
            "type": "pubkey"
          }
        }
      ],
      "hex": "01000000010000000000000000000000000000000000000000000000000000000000000000ffffffff0804ffff001d029506ffffffff0100f2052a0100000043410424a547423bd1acefd053ba914b26915a62b4849e59b772435a7596dece8adb5c459aac6b15c1695edda44f6fcfcacf0a6783ebd1968ad80b4f3a105588f5769cac00000000"
    }
  ]
}