{
  "hash": "00000000bdac76ae889c00504676e02c8be25af4a92539ac2641bb7e32014ddf",
  "confirmations": 46738,
  "height": 6360,
  "version": 1,
  "versionHex": "00000001",
  "merkleroot": "152b3bfa27e3beb9bcd08c3479eb400a0ac86183693d475324125c39eb1d9657",
  "time": 1236226312,
  "mediantime": 1236222884,
  "nonce": 19130680,
  "bits": "1d00ffff",
  "difficulty": 1,
  "chainwork": "000000000000000000000000000000000000000000000000000018d918d918d9",
  "nTx": 1,
  "previousblockhash": "000000002476471a1189d9a7ba2b3754c9cdffa56349c07fee98393bcf6dff10",
  "nextblockhash": "000000001ffa94bdac5facdc01272d7b1dbcc95ec8deb80deb4a8dbcb17ffb28",
  "strippedsize": 216,
  "size": 216,
  "weight": 864,
  "tx": [
    {
      "txid": "152b3bfa27e3beb9bcd08c3479eb400a0ac86183693d475324125c39eb1d9657",
      "hash": "152b3bfa27e3beb9bcd08c3479eb400a0ac86183693d475324125c39eb1d9657",
      "version": 1,
      "size": 135,
      "vsize": 135,
      "weight": 540,
      "locktime": 0,
      "vin": [
        {
          "coinbase": "04ffff001d02a10a",
          "sequence": 4294967295
        }
      ],
      "vout": [
        {
          "value": 50.0,
          "n": 0,
          "scriptPubKey": {
            "asm": "04280433a0aeb35e9fd9e36da84f8b2b8f364aba29300f2a6f502f83963cb5a4947536397fb06b72e67b6dc469d11e3c6b6af9106c49c59ec046ee7288a1526319 OP_CHECKSIG",
            "desc": "pk(04280433a0aeb35e9fd9e36da84f8b2b8f364aba29300f2a6f502f83963cb5a4947536397fb06b72e67b6dc469d11e3c6b6af9106c49c59ec046ee7288a1526319)#ezthqfzj",
            "hex": "4104280433a0aeb35e9fd9e36da84f8b2b8f364aba29300f2a6f502f83963cb5a4947536397fb06b72e67b6dc469d11e3c6b6af9106c49c59ec046ee7288a1526319ac",
            "type": "pubkey"
          }
        }
      ],
      "hex": "01000000010000000000000000000000000000000000000000000000000000000000000000ffffffff0804ffff001d02a10affffffff0100f2052a01000000434104280433a0aeb35e9fd9e36da84f8b2b8f364aba29300f2a6f502f83963cb5a4947536397fb06b72e67b6dc469d11e3c6b6af9106c49c59ec046ee7288a1526319ac00000000"
    }
  ]
}