{
  "hash": "00000000314adfb954aa27794bf6015ff65112ad64adf179338e979108277226",
  "confirmations": 52434,
  "height": 664,
  "version": 1,
  "versionHex": "00000001",
  "merkleroot": "190ec0e9cb1c15b84824f0bdc7c5f2cf94e8186b5f58d4d8c2cbc0d7835d46df",
  "time": 1232078396,
  "mediantime": 1232074147,
  "nonce": 3339142691,
  "bits": "1d00ffff",
  "difficulty": 1,
  "chainwork": "0000000000000000000000000000000000000000000000000000029902990299",
  "nTx": 1,
  "previousblockhash": "00000000158b0585927acbb1fec533a7883045dabff45a3ee95fb9750a514344",
  "nextblockhash": "000000008b3292ededf3a3a675c44bb2a2ac378878fad1c10cef4219f2d95100",
  "strippedsize": 215,
  "size": 215,
  "weight": 860,
  "tx": [
    {
      "txid": "190ec0e9cb1c15b84824f0bdc7c5f2cf94e8186b5f58d4d8c2cbc0d7835d46df",
      "hash": "190ec0e9cb1c15b84824f0bdc7c5f2cf94e8186b5f58d4d8c2cbc0d7835d46df",
      "version": 1,
      "size": 134,
      "vsize": 134,
      "weight": 536,
      "locktime": 0,
      "vin": [
        {
          "coinbase": "04ffff001d0119",
          "sequence": 4294967295
        }
      ],
      "vout": [
        {
          "value": 50.0,
          "n": 0,
          "scriptPubKey": {
            "asm": "0430f0fba5217848feb767c022d10c135023e9869beee7f5f8d5a41501f05e02586783db5a99d825de7883738c05231780a3fcadc3f26d29d9b6b44cfb282c745e OP_CHECKSIG",
            "desc": "pk(0430f0fba5217848feb767c022d10c135023e9869beee7f5f8d5a41501f05e02586783db5a99d825de7883738c05231780a3fcadc3f26d29d9b6b44cfb282c745e)#8ncrer7s",
            "hex": "410430f0fba5217848feb767c022d10c135023e9869beee7f5f8d5a41501f05e02586783db5a99d825de7883738c05231780a3fcadc3f26d29d9b6b44cfb282c745eac",
            "type": "pubkey"
          }
        }
      ],
      "hex": "01000000010000000000000000000000000000000000000000000000000000000000000000ffffffff0704ffff001d0119ffffffff0100f2052a0100000043410430f0fba5217848feb767c022d10c135023e9869beee7f5f8d5a41501f05e02586783db5a99d825de7883738c05231780a3fcadc3f26d29d9b6b44cfb282c745eac00000000"
    }
  ]
}