{
  "hash": "000000009f8717ab59587de3c519d762fe0cc1b9b3e778eed40bac05969f4217",
  "confirmations": 43948,
  "height": 9150,
  "version": 1,
  "versionHex": "00000001",
  "merkleroot": "56361f0173f38d92e5857e6d76d19c17940f4fce4c6cf4f8a9ecbf3adc6341a3",
  "time": 1238367306,
  "mediantime": 1238364216,
  "nonce": 3593704713,
  "bits": "1d00ffff",
  "difficulty": 1,
  "chainwork": "000000000000000000000000000000000000000000000000000023bf23bf23bf",
  "nTx": 1,
  "previousblockhash": "000000000f1e972f5b48d69335b485ad2601f826da6f5722d6d9f2de5215251d",
  "nextblockhash": "000000000cc48842faf0df1dd7621449ff8b4d28007d56c77a59be45df5b4036",
  "strippedsize": 216,
  "size": 216,
  "weight": 864,
  "tx": [
    {
      "txid": "56361f0173f38d92e5857e6d76d19c17940f4fce4c6cf4f8a9ecbf3adc6341a3",
      "hash": "56361f0173f38d92e5857e6d76d19c17940f4fce4c6cf4f8a9ecbf3adc6341a3",
      "version": 1,
      "size": 135,
      "vsize": 135,
      "weight": 540,
      "locktime": 0,
      "vin": [
        {
          "coinbase": "04ffff001d025709",
          "sequence": 4294967295
        }
      ],
      "vout": [
        {
          "value": 50.0,
          "n": 0,
          "scriptPubKey": {
            "asm": "04ee809600ba213c7aeb3f8c00f2b021403409f64b2d7d578a93134764e910668444a570d8694153c35e11d9470c808dcffe487107b660384040cb91a9b8dbcdc2 OP_CHECKSIG",
            "desc": "pk(04ee809600ba213c7aeb3f8c00f2b021403409f64b2d7d578a93134764e910668444a570d8694153c35e11d9470c808dcffe487107b660384040cb91a9b8dbcdc2)#uwdxr5ua",
            "hex": "4104ee809600ba213c7aeb3f8c00f2b021403409f64b2d7d578a93134764e910668444a570d8694153c35e11d9470c808dcffe487107b660384040cb91a9b8dbcdc2ac",
            "type": "pubkey"
          }
        }
      ],
      "hex": "01000000010000000000000000000000000000000000000000000000000000000000000000ffffffff0804ffff001d025709ffffffff0100f2052a01000000434104ee809600ba213c7aeb3f8c00f2b021403409f64b2d7d578a93134764e910668444a570d8694153c35e11d9470c808dcffe487107b660384040cb91a9b8dbcdc2ac00000000"
    }
  ]
}