{
  "hash": "00000000bcc93b7607069e18c888c49f0755e7d188abd2af14672c9310359da5",
  "confirmations": 49840,
  "height": 3258,
  "version": 1,
  "versionHex": "00000001",
  "merkleroot": "9aeee16317967857deb2a833b001aee38582d0ed0670b3a41c392bcd26d2df99",
  "time": 1233940354,
  "mediantime": 1233938502,
  "nonce": 3995657245,
  "bits": "1d00ffff",
  "difficulty": 1,
  "chainwork": "00000000000000000000000000000000000000000000000000000cbb0cbb0cbb",
  "nTx": 1,
  "previousblockhash": "0000000093e0b556b4cdaf55ce83b2e17429edd1c020c1756932a83db4d97c0c",
  "nextblockhash": "000000002b20e0a5b1e3f9476d567791e75e15be1bd15d2d5f81afcbe3b6b391",
  "strippedsize": 216,
  "size": 216,
  "weight": 864,
  "tx": [
    {
      "txid": "9aeee16317967857deb2a833b001aee38582d0ed0670b3a41c392bcd26d2df99",
      "hash": "9aeee16317967857deb2a833b001aee38582d0ed0670b3a41c392bcd26d2df99",
      "version": 1,
      "size": 135,
      "vsize": 135,
      "weight": 540,
      "locktime": 0,
      "vin": [
        {
          "coinbase": "04ffff001d028a03",
          "sequence": 4294967295
        }
      ],
      "vout": [
        {
          "value": 50.0,
          "n": 0,
          "scriptPubKey": {
            "asm": "0432bad94c1b5a66ed7738cb6e7cd770d3b609094f268cc3fa62e327ee640a08270606407af26130f29e64d6045b38dae71fc039928b9f872d528f572ffe2d26b2 OP_CHECKSIG",
            "desc": "pk(0432bad94c1b5a66ed7738cb6e7cd770d3b609094f268cc3fa62e327ee640a08270606407af26130f29e64d6045b38dae71fc039928b9f872d528f572ffe2d26b2)#eurmnuyt",
            "hex": "410432bad94c1b5a66ed7738cb6e7cd770d3b609094f268cc3fa62e327ee640a08270606407af26130f29e64d6045b38dae71fc039928b9f872d528f572ffe2d26b2ac",
            "type": "pubkey"
          }
        }
      ],
      "hex": "01000000010000000000000000000000000000000000000000000000000000000000000000ffffffff0804ffff001d028a03ffffffff0100f2052a0100000043410432bad94c1b5a66ed7738cb6e7cd770d3b609094f268cc3fa62e327ee640a08270606407af26130f29e64d6045b38dae71fc039928b9f872d528f572ffe2d26b2ac00000000"
    }
  ]
}