{
  "hash": "000000001c3bfddc96a2e9e6e1854f40da42b3fe9b512d2bd92c487e583f291f",
  "confirmations": 44372,
  "height": 8726,
  "version": 1,
  "versionHex": "00000001",
  "merkleroot": "004e5162e30c0308ec77803dea170f7bb88cef851f0a81347881f1382831054d",
  "time": 1238040439,
  "mediantime": 1238037780,
  "nonce": 1944971031,
  "bits": "1d00ffff",
  "difficulty": 1,
  "chainwork": "0000000000000000000000000000000000000000000000000000221722172217",
  "nTx": 1,
  "previousblockhash": "00000000a24e620ecaaddc3c060014d5ea3cc48e450a682672e9af8389d83234",
  "nextblockhash": "0000000066f9e170c5e8c33be66566562e044aba689af05a853c8784d2876823",
  "strippedsize": 216,
  "size": 216,
  "weight": 864,
  "tx": [
    {
      "txid": "004e5162e30c0308ec77803dea170f7bb88cef851f0a81347881f1382831054d",
      "hash": "004e5162e30c0308ec77803dea170f7bb88cef851f0a81347881f1382831054d",
      "version": 1,
      "size": 135,
      "vsize": 135,
      "weight": 540,
      "locktime": 0,
      "vin": [
        {
          "coinbase": "04ffff001d025801",
          "sequence": 4294967295
        }
      ],
      "vout": [
        {
          "value": 50.0,
          "n": 0,
          "scriptPubKey": {
            "asm": "04df1ff66fe3ef5f8ccaef3ad1e9d44e253bbb1a283929d80d248eb3275f8a351060e434381d7a282ad18672979c9c2ca480c4f665c3234848c9659a135bd29155 OP_CHECKSIG",
            "desc": "pk(04df1ff66fe3ef5f8ccaef3ad1e9d44e253bbb1a283929d80d248eb3275f8a351060e434381d7a282ad18672979c9c2ca480c4f665c3234848c9659a135bd29155)#ka2wflm0",
            "hex": "4104df1ff66fe3ef5f8ccaef3ad1e9d44e253bbb1a283929d80d248eb3275f8a351060e434381d7a282ad18672979c9c2ca480c4f665c3234848c9659a135bd29155ac",
            "type": "pubkey"
          }
        }
      ],
      "hex": "01000000010000000000000000000000000000000000000000000000000000000000000000ffffffff0804ffff001d025801ffffffff0100f2052a01000000434104df1ff66fe3ef5f8ccaef3ad1e9d44e253bbb1a283929d80d248eb3275f8a351060e434381d7a282ad18672979c9c2ca480c4f665c3234848c9659a135bd29155ac00000000"
    }
  ]
}