{
  "hash": "00000000d6c6d644a13d10d17dc3f6b02a22cfde5412e3c94fa55b54636dc6dd",
  "confirmations": 48131,
  "height": 4967,
  "version": 1,
  "versionHex": "00000001",
  "merkleroot": "1cb9e67011ae696f6463effcb0910843d051c1a133c7df6ed83eaeef16851a40",
  "time": 1235116259,
  "mediantime": 1235112726,
  "nonce": 2569880631,
  "bits": "1d00ffff",
  "difficulty": 1,
  "chainwork": "0000000000000000000000000000000000000000000000000000136813681368",
  "nTx": 1,
  "previousblockhash": "000000004f6a440a95a5d2d6c89f3e6b46587cd43f76efbaa96ef5d37ea90961",
  "nextblockhash": "000000007424ba7641af26de3067e92d49ba8d21c2b726e7f28fe99898cb3f5b",
  "strippedsize": 216,
  "size": 216,
  "weight": 864,
  "tx": [
    {
      "txid": "1cb9e67011ae696f6463effcb0910843d051c1a133c7df6ed83eaeef16851a40",
      "hash": "1cb9e67011ae696f6463effcb0910843d051c1a133c7df6ed83eaeef16851a40",
      "version": 1,
      "size": 135,
      "vsize": 135,
      "weight": 540,
      "locktime": 0,
      "vin": [
        {
          "coinbase": "04ffff001d029d06",
          "sequence": 4294967295
        }
      ],
      "vout": [
        {
          "value": 50.0,
          "n": 0,
          "scriptPubKey": {
            "asm": "04ce6fea2782938098f4602b8a752cd269a3ce2cdc2b8c81e690165e3766356a30a681cdae94c282f63be42df5f49b63b518a91be48082239b361d175c8e85ade9 OP_CHECKSIG",
            "desc": "pk(04ce6fea2782938098f4602b8a752cd269a3ce2cdc2b8c81e690165e3766356a30a681cdae94c282f63be42df5f49b63b518a91be48082239b361d175c8e85ade9)#8nd280av",
            "hex": "4104ce6fea2782938098f4602b8a752cd269a3ce2cdc2b8c81e690165e3766356a30a681cdae94c282f63be42df5f49b63b518a91be48082239b361d175c8e85ade9ac",
            "type": "pubkey"
          }
        }
      ],
      "hex": "01000000010000000000000000000000000000000000000000000000000000000000000000ffffffff0804ffff001d029d06ffffffff0100f2052a01000000434104ce6fea2782938098f4602b8a752cd269a3ce2cdc2b8c81e690165e3766356a30a681cdae94c282f63be42df5f49b63b518a91be48082239b361d175c8e85ade9ac00000000"
    }
  ]
}