{
  "hash": "000000002b6ddc71413d93249aeeb35ae0e0d2fbdb9d4333667a40826638589f",
  "confirmations": 44118,
  "height": 8980,
  "version": 1,
  "versionHex": "00000001",
  "merkleroot": "c8d00a592c00c9ac79a8afd8bab253fb174e920c669d8472716274796fd7a76b",
  "time": 1238238241,
  "mediantime": 1238235496,
  "nonce": 81482342,
  "bits": "1d00ffff",
  "difficulty": 1,
  "chainwork": "0000000000000000000000000000000000000000000000000000231523152315",
  "nTx": 1,
  "previousblockhash": "000000003aabb2148cb1f0e9a9866a40f4b4cd0f4bd4922bd4fc059f968e144f",
  "nextblockhash": "00000000bc575fd8fc0320ee5b7bcc92a846871f10c3643dfa2e917d7ab0f997",
  "strippedsize": 216,
  "size": 216,
  "weight": 864,
  "tx": [
    {
      "txid": "c8d00a592c00c9ac79a8afd8bab253fb174e920c669d8472716274796fd7a76b",
      "hash": "c8d00a592c00c9ac79a8afd8bab253fb174e920c669d8472716274796fd7a76b",
      "version": 1,
      "size": 135,
      "vsize": 135,
      "weight": 540,
      "locktime": 0,
      "vin": [
        {
          "coinbase": "04ffff001d021905",
          "sequence": 4294967295
        }
      ],
      "vout": [
        {
          "value": 50.0,
          "n": 0,
          "scriptPubKey": {
            "asm": "0439f8ca40a8cd1e7fdd3fc75e8827229159f1bd947d1132135cc9eddabe77704ef09d85d451e3c2f7d3f0e72380b24dfca38c5f2d2c6ca701231ab615c74bee1a OP_CHECKSIG",
            "desc": "pk(0439f8ca40a8cd1e7fdd3fc75e8827229159f1bd947d1132135cc9eddabe77704ef09d85d451e3c2f7d3f0e72380b24dfca38c5f2d2c6ca701231ab615c74bee1a)#k0mg0dpd",
            "hex": "410439f8ca40a8cd1e7fdd3fc75e8827229159f1bd947d1132135cc9eddabe77704ef09d85d451e3c2f7d3f0e72380b24dfca38c5f2d2c6ca701231ab615c74bee1aac",
            "type": "pubkey"
          }
        }
      ],
      "hex": "01000000010000000000000000000000000000000000000000000000000000000000000000ffffffff0804ffff001d021905ffffffff0100f2052a0100000043410439f8ca40a8cd1e7fdd3fc75e8827229159f1bd947d1132135cc9eddabe77704ef09d85d451e3c2f7d3f0e72380b24dfca38c5f2d2c6ca701231ab615c74bee1aac00000000"
    }
  ]
}