{
  "hash": "00000000a0899965df34ebd3dbe3c1538e09433834f10d3f0a438ab9f5f0730e",
  "confirmations": 52569,
  "height": 529,
  "version": 1,
  "versionHex": "00000001",
  "merkleroot": "3001cba440bde20f6b65437f5e9feb7e55d306b8e7b28d9fa27d7f44ffd66e2b",
  "time": 1231987028,
  "mediantime": 1231983986,
  "nonce": 2183341111,
  "bits": "1d00ffff",
  "difficulty": 1,
  "chainwork": "0000000000000000000000000000000000000000000000000000021202120212",
  "nTx": 1,
  "previousblockhash": "00000000e49373a26666dda6553bb5f0d74a939a788217829b20e6016a8334d4",
  "nextblockhash": "0000000012ac8aedef5fb255a9a01f52d2292c5af21c737eaba1ef05e2c9c136",
  "strippedsize": 216,
  "size": 216,
  "weight": 864,
  "tx": [
    {
      "txid": "3001cba440bde20f6b65437f5e9feb7e55d306b8e7b28d9fa27d7f44ffd66e2b",
      "hash": "3001cba440bde20f6b65437f5e9feb7e55d306b8e7b28d9fa27d7f44ffd66e2b",
      "version": 1,
      "size": 135,
      "vsize": 135,
      "weight": 540,
      "locktime": 0,
      "vin": [
        {
          "coinbase": "04ffff001d020e05",
          "sequence": 4294967295
        }
      ],
      "vout": [
        {
          "value": 50.0,
          "n": 0,
          "scriptPubKey": {
            "asm": "04e56d371e7a56ce7ef81cc84d8fac86da5bdee1a1a4ff1d4086a15f5c2d50b7eda99da9c1ec8d7715ab8d3aa6e0a9d7f7176d6c63b17399c5fa3342433fd965a1 OP_CHECKSIG",
            "desc": "pk(04e56d371e7a56ce7ef81cc84d8fac86da5bdee1a1a4ff1d4086a15f5c2d50b7eda99da9c1ec8d7715ab8d3aa6e0a9d7f7176d6c63b17399c5fa3342433fd965a1)#cgs6gteg",
            "hex": "4104e56d371e7a56ce7ef81cc84d8fac86da5bdee1a1a4ff1d4086a15f5c2d50b7eda99da9c1ec8d7715ab8d3aa6e0a9d7f7176d6c63b17399c5fa3342433fd965a1ac",
            "type": "pubkey"
          }
        }
      ],
      "hex": "01000000010000000000000000000000000000000000000000000000000000000000000000ffffffff0804ffff001d020e05ffffffff0100f2052a01000000434104e56d371e7a56ce7ef81cc84d8fac86da5bdee1a1a4ff1d4086a15f5c2d50b7eda99da9c1ec8d7715ab8d3aa6e0a9d7f7176d6c63b17399c5fa3342433fd965a1ac00000000"
    }
  ]
}