{
  "hash": "00000000083cf16b38d138788e5dc77616141d29366d1acd23447e72d31bec08",
  "confirmations": 47952,
  "height": 5146,
  "version": 1,
  "versionHex": "00000001",
  "merkleroot": "6abef7578d98219abf1a62e61513ce3698cae9bc413a844266fd0fd0befc3043",
  "time": 1235249807,
  "mediantime": 1235245510,
  "nonce": 69963141,
  "bits": "1d00ffff",
  "difficulty": 1,
  "chainwork": "0000000000000000000000000000000000000000000000000000141b141b141b",
  "nTx": 1,
  "previousblockhash": "00000000cc30603558574da11534c8f3c8e2e44f5f96b438dd287f3cc3992a2a",
  "nextblockhash": "00000000e8bcaa99f456be9f35e6a9ea7d4b4712367871a9158d417e0083c311",
  "strippedsize": 216,
  "size": 216,
  "weight": 864,
  "tx": [
    {
      "txid": "6abef7578d98219abf1a62e61513ce3698cae9bc413a844266fd0fd0befc3043",
      "hash": "6abef7578d98219abf1a62e61513ce3698cae9bc413a844266fd0fd0befc3043",
      "version": 1,
      "size": 135,
      "vsize": 135,
      "weight": 540,
      "locktime": 0,
      "vin": [
        {
          "coinbase": "04ffff001d02d905",
          "sequence": 4294967295
        }
      ],
      "vout": [
        {
          "value": 50.0,
          "n": 0,
          "scriptPubKey": {
            "asm": "045b26f308b3a1cc16290e4ea8c86b55bd88cf6413f5ff3cb7c3a9b268e8c880400db4dd2228061291526490ffd3dd8b2ede485c0b6f53e1d2671d68a341ec2b59 OP_CHECKSIG",
            "desc": "pk(045b26f308b3a1cc16290e4ea8c86b55bd88cf6413f5ff3cb7c3a9b268e8c880400db4dd2228061291526490ffd3dd8b2ede485c0b6f53e1d2671d68a341ec2b59)#tfdg9dzs",
            "hex": "41045b26f308b3a1cc16290e4ea8c86b55bd88cf6413f5ff3cb7c3a9b268e8c880400db4dd2228061291526490ffd3dd8b2ede485c0b6f53e1d2671d68a341ec2b59ac",
            "type": "pubkey"
          }
        }
      ],
      "hex": "01000000010000000000000000000000000000000000000000000000000000000000000000ffffffff0804ffff001d02d905ffffffff0100f2052a010000004341045b26f308b3a1cc16290e4ea8c86b55bd88cf6413f5ff3cb7c3a9b268e8c880400db4dd2228061291526490ffd3dd8b2ede485c0b6f53e1d2671d68a341ec2b59ac00000000"
    }
  ]
}