{
  "hash": "00000000cd2aefa450b4f3615caac2d2f9b8d555267c43c1dc63fdcf93c1168e",
  "confirmations": 51893,
  "height": 1205,
  "version": 1,
  "versionHex": "00000001",
  "merkleroot": "29a7c21bd48b9f9a1b547cc8e988ba4f884dba521c853e6ed16da75fe129f3ee",
  "time": 1232505060,
  "mediantime": 1232500435,
  "nonce": 2690550298,
  "bits": "1d00ffff",
  "difficulty": 1,
  "chainwork": "000000000000000000000000000000000000000000000000000004b604b604b6",
  "nTx": 1,
  "previousblockhash": "000000000316e604c093c233987a8df534ee40abe9618a189f512baab84d63f5",
  "nextblockhash": "000000006acde06ce6e26138c93848a595511fef93c4dd68e330332ba9604217",
  "strippedsize": 216,
  "size": 216,
  "weight": 864,
  "tx": [
    {
      "txid": "29a7c21bd48b9f9a1b547cc8e988ba4f884dba521c853e6ed16da75fe129f3ee",
      "hash": "29a7c21bd48b9f9a1b547cc8e988ba4f884dba521c853e6ed16da75fe129f3ee",
      "version": 1,
      "size": 135,
      "vsize": 135,
      "weight": 540,
      "locktime": 0,
      "vin": [
        {
          "coinbase": "04ffff001d02bd08",
          "sequence": 4294967295
        }
      ],
      "vout": [
        {
          "value": 50.0,
          "n": 0,
          "scriptPubKey": {
            "asm": "04e0d0fb35910579b03c763bd4f5de1f876d008d191c89cac7d4d400189a59137f006ba3df4ea69a71a162711df8276e076454bfea0bc37361edfff926dd15b831 OP_CHECKSIG",
            "desc": "pk(04e0d0fb35910579b03c763bd4f5de1f876d008d191c89cac7d4d400189a59137f006ba3df4ea69a71a162711df8276e076454bfea0bc37361edfff926dd15b831)#8lgqssd4",
            "hex": "4104e0d0fb35910579b03c763bd4f5de1f876d008d191c89cac7d4d400189a59137f006ba3df4ea69a71a162711df8276e076454bfea0bc37361edfff926dd15b831ac",
            "type": "pubkey"
          }
        }
      ],
      "hex": "01000000010000000000000000000000000000000000000000000000000000000000000000ffffffff0804ffff001d02bd08ffffffff0100f2052a01000000434104e0d0fb35910579b03c763bd4f5de1f876d008d191c89cac7d4d400189a59137f006ba3df4ea69a71a162711df8276e076454bfea0bc37361edfff926dd15b831ac00000000"
    }
  ]
}