{
  "hash": "00000000769a69bab4b23c22eb7aba05c19f0f874dc28de629a2c2959939e253",
  "confirmations": 44858,
  "height": 8240,
  "version": 1,
  "versionHex": "00000001",
  "merkleroot": "b2a188b7e24be690ff8eca41867641a573fbede013443f56df7a8083b5d8ba3f",
  "time": 1237689723,
  "mediantime": 1237687241,
  "nonce": 2025912,
  "bits": "1d00ffff",
  "difficulty": 1,
  "chainwork": "0000000000000000000000000000000000000000000000000000203120312031",
  "nTx": 1,
  "previousblockhash": "0000000087844ccfccbee0e02b2b908bd23ea90917cce27497a93caa0b3ce87c",
  "nextblockhash": "00000000c826ca8cb0836a71235444032ac3b1eb480ad6627a465b35cb0572df",
  "strippedsize": 215,
  "size": 215,
  "weight": 860,
  "tx": [
    {
      "txid": "b2a188b7e24be690ff8eca41867641a573fbede013443f56df7a8083b5d8ba3f",
      "hash": "b2a188b7e24be690ff8eca41867641a573fbede013443f56df7a8083b5d8ba3f",
      "version": 1,
      "size": 134,
      "vsize": 134,
      "weight": 536,
      "locktime": 0,
      "vin": [
        {
          "coinbase": "04ffff001d0131",
          "sequence": 4294967295
        }
      ],
      "vout": [
        {
          "value": 50.0,
          "n": 0,
          "scriptPubKey": {
            "asm": "041e018aeddb2682920a41b3bcc299b38f171d03f3b2deb3bbe48bf10a8f81b81c52b51314aaaf1754bd547029f40df26f4b92f122d87c33ce4ce5227d3f1554bd OP_CHECKSIG",
            "desc": "pk(041e018aeddb2682920a41b3bcc299b38f171d03f3b2deb3bbe48bf10a8f81b81c52b51314aaaf1754bd547029f40df26f4b92f122d87c33ce4ce5227d3f1554bd)#pjdy7jp4",
            "hex": "41041e018aeddb2682920a41b3bcc299b38f171d03f3b2deb3bbe48bf10a8f81b81c52b51314aaaf1754bd547029f40df26f4b92f122d87c33ce4ce5227d3f1554bdac",
            "type": "pubkey"
          }
        }
      ],
      "hex": "01000000010000000000000000000000000000000000000000000000000000000000000000ffffffff0704ffff001d0131ffffffff0100f2052a010000004341041e018aeddb2682920a41b3bcc299b38f171d03f3b2deb3bbe48bf10a8f81b81c52b51314aaaf1754bd547029f40df26f4b92f122d87c33ce4ce5227d3f1554bdac00000000"
    }
  ]
}