{
  "hash": "0000000024825a7f2109431ab025d4e49c0c08f4b904d29b7e5251c779deadd6",
  "confirmations": 43589,
  "height": 9509,
  "version": 1,
  "versionHex": "00000001",
  "merkleroot": "b8196249771897bc2eaa4cc682a745eec10e440ade6ed9c9c1cb5e9bc183495e",
  "time": 1238634552,
  "mediantime": 1238631827,
  "nonce": 919881513,
  "bits": "1d00ffff",
  "difficulty": 1,
  "chainwork": "0000000000000000000000000000000000000000000000000000252625262526",
  "nTx": 1,
  "previousblockhash": "0000000050a320dbfdef05548c50321c8acf5a611feba3d7103771f9638cc397",
  "nextblockhash": "000000003ef4d27daf6dc6488206e439006466d2b9b3681ae07512e3f8f0a212",
  "strippedsize": 216,
  "size": 216,
  "weight": 864,
  "tx": [
    {
      "txid": "b8196249771897bc2eaa4cc682a745eec10e440ade6ed9c9c1cb5e9bc183495e",
      "hash": "b8196249771897bc2eaa4cc682a745eec10e440ade6ed9c9c1cb5e9bc183495e",
      "version": 1,
      "size": 135,
      "vsize": 135,
      "weight": 540,
      "locktime": 0,
      "vin": [
        {
          "coinbase": "04ffff001d027c05",
          "sequence": 4294967295
        }
      ],
      "vout": [
        {
          "value": 50.0,
          "n": 0,
          "scriptPubKey": {
            "asm": "04c7574f20d8cc8bf8c49d3424670589b0866e93b42e8da4fa070bfec8e7932b58e3420969bad3ea301d00a6ba457e10a6980cfead1ba0ba0d7a04d0cec487a0fd OP_CHECKSIG",
            "desc": "pk(04c7574f20d8cc8bf8c49d3424670589b0866e93b42e8da4fa070bfec8e7932b58e3420969bad3ea301d00a6ba457e10a6980cfead1ba0ba0d7a04d0cec487a0fd)#fx4jzjer",
            "hex": "4104c7574f20d8cc8bf8c49d3424670589b0866e93b42e8da4fa070bfec8e7932b58e3420969bad3ea301d00a6ba457e10a6980cfead1ba0ba0d7a04d0cec487a0fdac",
            "type": "pubkey"
          }
        }
      ],
      "hex": "01000000010000000000000000000000000000000000000000000000000000000000000000ffffffff0804ffff001d027c05ffffffff0100f2052a01000000434104c7574f20d8cc8bf8c49d3424670589b0866e93b42e8da4fa070bfec8e7932b58e3420969bad3ea301d00a6ba457e10a6980cfead1ba0ba0d7a04d0cec487a0fdac00000000"
    }
  ]
}