{
  "hash": "000000001d1292bc16af274b5490c29412e7e14c99a4ee3f154c984e05724b7f",
  "confirmations": 45031,
  "height": 8067,
  "version": 1,
  "versionHex": "00000001",
  "merkleroot": "59da69fee23f1c5fb9ca6e09cb83ad8f167d1674f1b2fb463cdf655c7ad703b0",
  "time": 1237510277,
  "mediantime": 1237506696,
  "nonce": 3336423443,
  "bits": "1d00ffff",
  "difficulty": 1,
  "chainwork": "00000000000000000000000000000000000000000000000000001f841f841f84",
  "nTx": 1,
  "previousblockhash": "00000000b5cf93f80e029e0f61a5cc7b834b33e5e4f27e07202648286973a3f2",
  "nextblockhash": "000000005237a22a923fe226df891ab01954ceb464144196ec4ba26533a4016c",
  "strippedsize": 216,
  "size": 216,
  "weight": 864,
  "tx": [
    {
      "txid": "59da69fee23f1c5fb9ca6e09cb83ad8f167d1674f1b2fb463cdf655c7ad703b0",
      "hash": "59da69fee23f1c5fb9ca6e09cb83ad8f167d1674f1b2fb463cdf655c7ad703b0",
      "version": 1,
      "size": 135,
      "vsize": 135,
      "weight": 540,
      "locktime": 0,
      "vin": [
        {
          "coinbase": "04ffff001d02a700",
          "sequence": 4294967295
        }
      ],
      "vout": [
        {
          "value": 50.0,
          "n": 0,
          "scriptPubKey": {
            "asm": "0400221fb5026fe55a547b49ede6ea985bebacc9a758efee7ee5ac04532b928b8d65ba8fa85ac76ed713c4d9170536160dae01e0feb465f86830f5a54c2327aa45 OP_CHECKSIG",
            "desc": "pk(0400221fb5026fe55a547b49ede6ea985bebacc9a758efee7ee5ac04532b928b8d65ba8fa85ac76ed713c4d9170536160dae01e0feb465f86830f5a54c2327aa45)#kh8h0067",
            "hex": "410400221fb5026fe55a547b49ede6ea985bebacc9a758efee7ee5ac04532b928b8d65ba8fa85ac76ed713c4d9170536160dae01e0feb465f86830f5a54c2327aa45ac",
            "type": "pubkey"
          }
        }
      ],
      "hex": "01000000010000000000000000000000000000000000000000000000000000000000000000ffffffff0804ffff001d02a700ffffffff0100f2052a0100000043410400221fb5026fe55a547b49ede6ea985bebacc9a758efee7ee5ac04532b928b8d65ba8fa85ac76ed713c4d9170536160dae01e0feb465f86830f5a54c2327aa45ac00000000"
    }
  ]
}