{
  "hash": "00000000ebf49c30f01d0508174e84dd9b9fabe8a518ec316eb538d834cfdf00",
  "confirmations": 43499,
  "height": 9599,
  "version": 1,
  "versionHex": "00000001",
  "merkleroot": "3c5596a615bb445efb73f89e4c9a92cbaa9b4e78a03fa18c36c5aaabc583a01e",
  "time": 1238700202,
  "mediantime": 1238696302,
  "nonce": 1273135927,
  "bits": "1d00ffff",
  "difficulty": 1,
  "chainwork": "0000000000000000000000000000000000000000000000000000258025802580",
  "nTx": 1,
  "previousblockhash": "000000000ac3ed525cab5b76f0858fe59d0677b7e99933406903d18cc0a86899",
  "nextblockhash": "00000000ca2be0b2535ca0dc5b74a3d59f3209f664c3c6dd016d227d31548995",
  "strippedsize": 216,
  "size": 216,
  "weight": 864,
  "tx": [
    {
      "txid": "3c5596a615bb445efb73f89e4c9a92cbaa9b4e78a03fa18c36c5aaabc583a01e",
      "hash": "3c5596a615bb445efb73f89e4c9a92cbaa9b4e78a03fa18c36c5aaabc583a01e",
      "version": 1,
      "size": 135,
      "vsize": 135,
      "weight": 540,
      "locktime": 0,
      "vin": [
        {
          "coinbase": "04ffff001d021107",
          "sequence": 4294967295
        }
      ],
      "vout": [
        {
          "value": 50.0,
          "n": 0,
          "scriptPubKey": {
            "asm": "04baa8371e31f1e41c1ba3a97f765323b024f18acfc81b8315409a9632d61d92bf6ffcab1ef549a2136946c87fe2a605779ce7dd2dd6581cd7aeca002a88349068 OP_CHECKSIG",
            "desc": "pk(04baa8371e31f1e41c1ba3a97f765323b024f18acfc81b8315409a9632d61d92bf6ffcab1ef549a2136946c87fe2a605779ce7dd2dd6581cd7aeca002a88349068)#fa9d3uzp",
            "hex": "4104baa8371e31f1e41c1ba3a97f765323b024f18acfc81b8315409a9632d61d92bf6ffcab1ef549a2136946c87fe2a605779ce7dd2dd6581cd7aeca002a88349068ac",
            "type": "pubkey"
          }
        }
      ],
      "hex": "01000000010000000000000000000000000000000000000000000000000000000000000000ffffffff0804ffff001d021107ffffffff0100f2052a01000000434104baa8371e31f1e41c1ba3a97f765323b024f18acfc81b8315409a9632d61d92bf6ffcab1ef549a2136946c87fe2a605779ce7dd2dd6581cd7aeca002a88349068ac00000000"
    }
  ]
}