{
  "hash": "00000000be7f92391f63dd4409fefd73e140ab5e4c4bdc59b5ff04b63526da66",
  "confirmations": 48352,
  "height": 4746,
  "version": 1,
  "versionHex": "00000001",
  "merkleroot": "50ca71fde0433e86a09d4b22f4f4dfde9636bb78a1ff7a3b1aeadcac47aded5f",
  "time": 1234961083,
  "mediantime": 1234956433,
  "nonce": 1381635888,
  "bits": "1d00ffff",
  "difficulty": 1,
  "chainwork": "0000000000000000000000000000000000000000000000000000128b128b128b",
  "nTx": 1,
  "previousblockhash": "000000005ab451dfa33bb45121438ca7576104d3e20c41b8a8f2b67b1b2384b7",
  "nextblockhash": "00000000c92e5fd30b61569dc83e385e606e4629a695d012e60461a3f4d65a92",
  "strippedsize": 216,
  "size": 216,
  "weight": 864,
  "tx": [
    {
      "txid": "50ca71fde0433e86a09d4b22f4f4dfde9636bb78a1ff7a3b1aeadcac47aded5f",
      "hash": "50ca71fde0433e86a09d4b22f4f4dfde9636bb78a1ff7a3b1aeadcac47aded5f",
      "version": 1,
      "size": 135,
      "vsize": 135,
      "weight": 540,
      "locktime": 0,
      "vin": [
        {
          "coinbase": "04ffff001d022f03",
          "sequence": 4294967295
        }
      ],
      "vout": [
        {
          "value": 50.0,
          "n": 0,
          "scriptPubKey": {
            "asm": "04abbc2272a01b441a2549b180ba5778fecaed2eef739d8e4422220b0de6fd528d54eb2572b8b4a28c85365be6af70619d45dd9024140c20c0ceea73cafde014d6 OP_CHECKSIG",
            "desc": "pk(04abbc2272a01b441a2549b180ba5778fecaed2eef739d8e4422220b0de6fd528d54eb2572b8b4a28c85365be6af70619d45dd9024140c20c0ceea73cafde014d6)#hkyt4uaf",
            "hex": "4104abbc2272a01b441a2549b180ba5778fecaed2eef739d8e4422220b0de6fd528d54eb2572b8b4a28c85365be6af70619d45dd9024140c20c0ceea73cafde014d6ac",
            "type": "pubkey"
          }
        }
      ],
      "hex": "01000000010000000000000000000000000000000000000000000000000000000000000000ffffffff0804ffff001d022f03ffffffff0100f2052a01000000434104abbc2272a01b441a2549b180ba5778fecaed2eef739d8e4422220b0de6fd528d54eb2572b8b4a28c85365be6af70619d45dd9024140c20c0ceea73cafde014d6ac00000000"
    }
  ]
}