{
  "hash": "0000000072f39782b9ae0982ee78f9965adfd9a5b0bd55a22d797bc01d5c4731",
  "confirmations": 45273,
  "height": 7825,
  "version": 1,
  "versionHex": "00000001",
  "merkleroot": "ec187e4d2be8629306dee7c8cdb6ea0fa5dabf8deabde616cd8fdec0a32ab297",
  "time": 1237333200,
  "mediantime": 1237329988,
  "nonce": 1534504987,
  "bits": "1d00ffff",
  "difficulty": 1,
  "chainwork": "00000000000000000000000000000000000000000000000000001e921e921e92",
  "nTx": 1,
  "previousblockhash": "00000000a04a6f1046fc1e5d6c64efa3588ce0b876307f7feb8a2ded024f8def",
  "nextblockhash": "00000000aaaebe6b6bc8887aaeeba7c2c154865bf959f0455d57fadfddb60faa",
  "strippedsize": 216,
  "size": 216,
  "weight": 864,
  "tx": [
    {
      "txid": "ec187e4d2be8629306dee7c8cdb6ea0fa5dabf8deabde616cd8fdec0a32ab297",
      "hash": "ec187e4d2be8629306dee7c8cdb6ea0fa5dabf8deabde616cd8fdec0a32ab297",
      "version": 1,
      "size": 135,
      "vsize": 135,
      "weight": 540,
      "locktime": 0,
      "vin": [
        {
          "coinbase": "04ffff001d025106",
          "sequence": 4294967295
        }
      ],
      "vout": [
        {
          "value": 50.0,
          "n": 0,
          "scriptPubKey": {
            "asm": "046bc78bdf7dd3959d1776a50e768c1b10c47b934625eb3342821f971f307644ad6aa0386076beea093a984c133a2a6217478b97337bdd6252542c7fa4eaf8b61b OP_CHECKSIG",
            "desc": "pk(046bc78bdf7dd3959d1776a50e768c1b10c47b934625eb3342821f971f307644ad6aa0386076beea093a984c133a2a6217478b97337bdd6252542c7fa4eaf8b61b)#k7gds9yp",
            "hex": "41046bc78bdf7dd3959d1776a50e768c1b10c47b934625eb3342821f971f307644ad6aa0386076beea093a984c133a2a6217478b97337bdd6252542c7fa4eaf8b61bac",
            "type": "pubkey"
          }
        }
      ],
      "hex": "01000000010000000000000000000000000000000000000000000000000000000000000000ffffffff0804ffff001d025106ffffffff0100f2052a010000004341046bc78bdf7dd3959d1776a50e768c1b10c47b934625eb3342821f971f307644ad6aa0386076beea093a984c133a2a6217478b97337bdd6252542c7fa4eaf8b61bac00000000"
    }
  ]
}