{
  "hash": "0000000082069a2b9a9b2428da4fc3cca39b636ca4bfd79abf85016906daca71",
  "confirmations": 43411,
  "height": 9687,
  "version": 1,
  "versionHex": "00000001",
  "merkleroot": "f2827ffe124aa3d28195d188a27a009e33a7e36763beb7bcf829625654a58839",
  "time": 1238769985,
  "mediantime": 1238765565,
  "nonce": 1681261599,
  "bits": "1d00ffff",
  "difficulty": 1,
  "chainwork": "000000000000000000000000000000000000000000000000000025d825d825d8",
  "nTx": 1,
  "previousblockhash": "000000004191891622f30db0f878e37a050a73a249e097f9d98d41829aba80ca",
  "nextblockhash": "0000000038806a20908b3504c8357b0a84cd2053d98814e9665959fa9917e721",
  "strippedsize": 216,
  "size": 216,
  "weight": 864,
  "tx": [
    {
      "txid": "f2827ffe124aa3d28195d188a27a009e33a7e36763beb7bcf829625654a58839",
      "hash": "f2827ffe124aa3d28195d188a27a009e33a7e36763beb7bcf829625654a58839",
      "version": 1,
      "size": 135,
      "vsize": 135,
      "weight": 540,
      "locktime": 0,
      "vin": [
        {
          "coinbase": "04ffff001d023a08",
          "sequence": 4294967295
        }
      ],
      "vout": [
        {
          "value": 50.0,
          "n": 0,
          "scriptPubKey": {
            "asm": "044c8bb9c3b7ba65c62537c09913a4dddf222f676bddb13a3142a0b80e7d98e17f8e7c17ec918ac15b0ce4fbcfc49d2389313b3546932b20156a21f6371e940b24 OP_CHECKSIG",
            "desc": "pk(044c8bb9c3b7ba65c62537c09913a4dddf222f676bddb13a3142a0b80e7d98e17f8e7c17ec918ac15b0ce4fbcfc49d2389313b3546932b20156a21f6371e940b24)#2ztp3wj2",
            "hex": "41044c8bb9c3b7ba65c62537c09913a4dddf222f676bddb13a3142a0b80e7d98e17f8e7c17ec918ac15b0ce4fbcfc49d2389313b3546932b20156a21f6371e940b24ac",
            "type": "pubkey"
          }
        }
      ],
      "hex": "01000000010000000000000000000000000000000000000000000000000000000000000000ffffffff0804ffff001d023a08ffffffff0100f2052a010000004341044c8bb9c3b7ba65c62537c09913a4dddf222f676bddb13a3142a0b80e7d98e17f8e7c17ec918ac15b0ce4fbcfc49d2389313b3546932b20156a21f6371e940b24ac00000000"
    }
  ]
}