{
  "hash": "0000000040063ce77f3226139a9843d7cdccb7cf4b84e4afac79d6515791222f",
  "confirmations": 44667,
  "height": 8431,
  "version": 1,
  "versionHex": "00000001",
  "merkleroot": "1c216d43bbc75970ad58d5ce4c2e132678e5dd6db1369c76ebd444960d41f848",
  "time": 1237817560,
  "mediantime": 1237814521,
  "nonce": 1745620276,
  "bits": "1d00ffff",
  "difficulty": 1,
  "chainwork": "000000000000000000000000000000000000000000000000000020f020f020f0",
  "nTx": 1,
  "previousblockhash": "00000000e6947759eea5751d8fa1d4b9dab382538e6d79630c1090e1fe039051",
  "nextblockhash": "0000000039f573d63702926787950fd543889b60e4c434dd5be4e855afeb89b4",
  "strippedsize": 216,
  "size": 216,
  "weight": 864,
  "tx": [
    {
      "txid": "1c216d43bbc75970ad58d5ce4c2e132678e5dd6db1369c76ebd444960d41f848",
      "hash": "1c216d43bbc75970ad58d5ce4c2e132678e5dd6db1369c76ebd444960d41f848",
      "version": 1,
      "size": 135,
      "vsize": 135,
      "weight": 540,
      "locktime": 0,
      "vin": [
        {
          "coinbase": "04ffff001d029506",
          "sequence": 4294967295
        }
      ],
      "vout": [
        {
          "value": 50.0,
          "n": 0,
          "scriptPubKey": {
            "asm": "047c51b928eff0657ab72584c7d72d385619ee03c55f2aa596237c2a532f7328eca7c0e041618f5d66cad3bace1a5badd12cdcdddd3b0e9fe0c6d59bc78c6aced4 OP_CHECKSIG",
            "desc": "pk(047c51b928eff0657ab72584c7d72d385619ee03c55f2aa596237c2a532f7328eca7c0e041618f5d66cad3bace1a5badd12cdcdddd3b0e9fe0c6d59bc78c6aced4)#ew6hgs6d",
            "hex": "41047c51b928eff0657ab72584c7d72d385619ee03c55f2aa596237c2a532f7328eca7c0e041618f5d66cad3bace1a5badd12cdcdddd3b0e9fe0c6d59bc78c6aced4ac",
            "type": "pubkey"
          }
        }
      ],
      "hex": "01000000010000000000000000000000000000000000000000000000000000000000000000ffffffff0804ffff001d029506ffffffff0100f2052a010000004341047c51b928eff0657ab72584c7d72d385619ee03c55f2aa596237c2a532f7328eca7c0e041618f5d66cad3bace1a5badd12cdcdddd3b0e9fe0c6d59bc78c6aced4ac00000000"
    }
  ]
}