{
  "hash": "000000002e76e88e6ca526f324505fae2cc8245af31e92279f031a6019270512",
  "confirmations": 52075,
  "height": 145,
  "version": 1,
  "versionHex": "00000001",
  "merkleroot": "3f44efc23687edae461827db9545731ec7232b1d681f1562911a25c0159e3539",
  "time": 1231693700,
  "mediantime": 1231689563,
  "nonce": 495243799,
  "bits": "1d00ffff",
  "difficulty": 1,
  "chainwork": "0000000000000000000000000000000000000000000000000000009200920092",
  "nTx": 1,
  "previousblockhash": "000000007f47b4ef1a99f9a961199a5878852e7695ef07820de4b7fa45bda802",
  "nextblockhash": "000000006e7fe1ebbae18fd9ea0c8b696f1fec8e5de738ef47af1299374a081c",
  "strippedsize": 216,
  "size": 216,
  "weight": 864,
  "tx": [
    {
      "txid": "3f44efc23687edae461827db9545731ec7232b1d681f1562911a25c0159e3539",
      "hash": "3f44efc23687edae461827db9545731ec7232b1d681f1562911a25c0159e3539",
      "version": 1,
      "size": 135,
      "vsize": 135,
      "weight": 540,
      "locktime": 0,
      "vin": [
        {
          "coinbase": "04ffff001d028700",
          "sequence": 4294967295
        }
      ],
      "vout": [
        {
          "value": 50.0,
          "n": 0,
          "scriptPubKey": {
            "asm": "048b5f7c6e17394fa995cd22c387de26362f26aa2bd524581d2a76d5aaf7d540b825fbab64db7a537b05ba68c90471d9ed49cf97bef6c9d4b4d7c48b37cbab3193 OP_CHECKSIG",
            "desc": "pk(048b5f7c6e17394fa995cd22c387de26362f26aa2bd524581d2a76d5aaf7d540b825fbab64db7a537b05ba68c90471d9ed49cf97bef6c9d4b4d7c48b37cbab3193)#jphwjpcx",
            "hex": "41048b5f7c6e17394fa995cd22c387de26362f26aa2bd524581d2a76d5aaf7d540b825fbab64db7a537b05ba68c90471d9ed49cf97bef6c9d4b4d7c48b37cbab3193ac",
            "type": "pubkey"
          }
        }
      ],
      "hex": "01000000010000000000000000000000000000000000000000000000000000000000000000ffffffff0804ffff001d028700ffffffff0100f2052a010000004341048b5f7c6e17394fa995cd22c387de26362f26aa2bd524581d2a76d5aaf7d540b825fbab64db7a537b05ba68c90471d9ed49cf97bef6c9d4b4d7c48b37cbab3193ac00000000"
    }
  ]
}