{
  "hash": "000000003adc7620b189e487d65c8d1144f9801cf78bffc2ffaee3b7b2717d68",
  "confirmations": 51399,
  "height": 1699,
  "version": 1,
  "versionHex": "00000001",
  "merkleroot": "2b9eee5a4c1545c04be9431784d192d1e2536ea7d6da174fb024e1770be346c0",
  "time": 1232852609,
  "mediantime": 1232850362,
  "nonce": 2912132921,
  "bits": "1d00ffff",
  "difficulty": 1,
  "chainwork": "000000000000000000000000000000000000000000000000000006a406a406a4",
  "nTx": 1,
  "previousblockhash": "00000000601efcb04a6bc1b3c8a717ef193ab6307823b04818ea5302909c5e1a",
  "nextblockhash": "000000009bf03aa138b1bb31491261221f8d4562941c1022a798acda7e3158d4",
  "strippedsize": 216,
  "size": 216,
  "weight": 864,
  "tx": [
    {
      "txid": "2b9eee5a4c1545c04be9431784d192d1e2536ea7d6da174fb024e1770be346c0",
      "hash": "2b9eee5a4c1545c04be9431784d192d1e2536ea7d6da174fb024e1770be346c0",
      "version": 1,
      "size": 135,
      "vsize": 135,
      "weight": 540,
      "locktime": 0,
      "vin": [
        {
          "coinbase": "04ffff001d021f03",
          "sequence": 4294967295
        }
      ],
      "vout": [
        {
          "value": 50.0,
          "n": 0,
          "scriptPubKey": {
            "asm": "04e5cd62a394a3ff4e24ea09b34339ff2555dbd1a08df9e340e13fa8e031e625c05e545bcb2d3f8bccd1ecc18f473298ee74de0c6feb65cbc96af7e31b6e4750d4 OP_CHECKSIG",
            "desc": "pk(04e5cd62a394a3ff4e24ea09b34339ff2555dbd1a08df9e340e13fa8e031e625c05e545bcb2d3f8bccd1ecc18f473298ee74de0c6feb65cbc96af7e31b6e4750d4)#6y2l6elj",
            "hex": "4104e5cd62a394a3ff4e24ea09b34339ff2555dbd1a08df9e340e13fa8e031e625c05e545bcb2d3f8bccd1ecc18f473298ee74de0c6feb65cbc96af7e31b6e4750d4ac",
            "type": "pubkey"
          }
        }
      ],
      "hex": "01000000010000000000000000000000000000000000000000000000000000000000000000ffffffff0804ffff001d021f03ffffffff0100f2052a01000000434104e5cd62a394a3ff4e24ea09b34339ff2555dbd1a08df9e340e13fa8e031e625c05e545bcb2d3f8bccd1ecc18f473298ee74de0c6feb65cbc96af7e31b6e4750d4ac00000000"
    }
  ]
}