{
  "hash": "00000000edaa8a068b03459d4e3fd1979bb69ae46cd8233d422388385d98e77a",
  "confirmations": 46207,
  "height": 6891,
  "version": 1,
  "versionHex": "00000001",
  "merkleroot": "04bf0140fb296df3d3e626e44fb832d9383a728247e392c13dc600f960d2d149",
  "time": 1236629715,
  "mediantime": 1236625925,
  "nonce": 3199959084,
  "bits": "1d00ffff",
  "difficulty": 1,
  "chainwork": "00000000000000000000000000000000000000000000000000001aec1aec1aec",
  "nTx": 1,
  "previousblockhash": "00000000f5df9a9a3e31318ffdc8ea3f01fbca1a673222075e306f9b9da02fe3",
  "nextblockhash": "0000000050a58f5c3fa7c44401783b5980eda151a67539455c3c3119842d1471",
  "strippedsize": 215,
  "size": 215,
  "weight": 860,
  "tx": [
    {
      "txid": "04bf0140fb296df3d3e626e44fb832d9383a728247e392c13dc600f960d2d149",
      "hash": "04bf0140fb296df3d3e626e44fb832d9383a728247e392c13dc600f960d2d149",
      "version": 1,
      "size": 134,
      "vsize": 134,
      "weight": 536,
      "locktime": 0,
      "vin": [
        {
          "coinbase": "04ffff001d0125",
          "sequence": 4294967295
        }
      ],
      "vout": [
        {
          "value": 50.0,
          "n": 0,
          "scriptPubKey": {
            "asm": "04569555883a2cf38692480ec11032c7a72a602917b0a8d56c67b4d1cd4feb97442c78a964d71909af722811fce1e3bc59880b673f97c8a36d0fa7090b94f31fb4 OP_CHECKSIG",
            "desc": "pk(04569555883a2cf38692480ec11032c7a72a602917b0a8d56c67b4d1cd4feb97442c78a964d71909af722811fce1e3bc59880b673f97c8a36d0fa7090b94f31fb4)#24fnwqtx",
            "hex": "4104569555883a2cf38692480ec11032c7a72a602917b0a8d56c67b4d1cd4feb97442c78a964d71909af722811fce1e3bc59880b673f97c8a36d0fa7090b94f31fb4ac",
            "type": "pubkey"
          }
        }
      ],
      "hex": "01000000010000000000000000000000000000000000000000000000000000000000000000ffffffff0704ffff001d0125ffffffff0100f2052a01000000434104569555883a2cf38692480ec11032c7a72a602917b0a8d56c67b4d1cd4feb97442c78a964d71909af722811fce1e3bc59880b673f97c8a36d0fa7090b94f31fb4ac00000000"
    }
  ]
}