{
  "hash": "000000002c1a2986aed5907c096e19ecf3ce132056d178b029bd0cbf273afb95",
  "confirmations": 46830,
  "height": 6268,
  "version": 1,
  "versionHex": "00000001",
  "merkleroot": "87fb4e5d1731d6cff159dea32774c71e0103f34acbe07596f4cea51b6373f9c4",
  "time": 1236147476,
  "mediantime": 1236144569,
  "nonce": 2659971637,
  "bits": "1d00ffff",
  "difficulty": 1,
  "chainwork": "0000000000000000000000000000000000000000000000000000187d187d187d",
  "nTx": 1,
  "previousblockhash": "0000000044e68e335d64826442a08e1ffaad79a9be68ca4e8a5d40b8a648bb34",
  "nextblockhash": "000000002178dae529077386d68c48b1660f6168baadbabb6bcbd0a59dc10b17",
  "strippedsize": 216,
  "size": 216,
  "weight": 864,
  "tx": [
    {
      "txid": "87fb4e5d1731d6cff159dea32774c71e0103f34acbe07596f4cea51b6373f9c4",
      "hash": "87fb4e5d1731d6cff159dea32774c71e0103f34acbe07596f4cea51b6373f9c4",
      "version": 1,
      "size": 135,
      "vsize": 135,
      "weight": 540,
      "locktime": 0,
      "vin": [
        {
          "coinbase": "04ffff001d02e809",
          "sequence": 4294967295
        }
      ],
      "vout": [
        {
          "value": 50.0,
          "n": 0,
          "scriptPubKey": {
            "asm": "0446bee57bcfdf2e9ceb08278c3a009f79e8d1c90aac7a4b1b69fac4c00261a326b3062c374cd1c715d1528ac7012c2b7fd380051130aa6d9a0b02614b1ee7abf7 OP_CHECKSIG",
            "desc": "pk(0446bee57bcfdf2e9ceb08278c3a009f79e8d1c90aac7a4b1b69fac4c00261a326b3062c374cd1c715d1528ac7012c2b7fd380051130aa6d9a0b02614b1ee7abf7)#xk7777yp",
            "hex": "410446bee57bcfdf2e9ceb08278c3a009f79e8d1c90aac7a4b1b69fac4c00261a326b3062c374cd1c715d1528ac7012c2b7fd380051130aa6d9a0b02614b1ee7abf7ac",
            "type": "pubkey"
          }
        }
      ],
      "hex": "01000000010000000000000000000000000000000000000000000000000000000000000000ffffffff0804ffff001d02e809ffffffff0100f2052a0100000043410446bee57bcfdf2e9ceb08278c3a009f79e8d1c90aac7a4b1b69fac4c00261a326b3062c374cd1c715d1528ac7012c2b7fd380051130aa6d9a0b02614b1ee7abf7ac00000000"
    }
  ]
}