{
  "hash": "000000000e27cea4bd8828046017ef610080cbbd8a570b36be4cfca2636c7437",
  "confirmations": 46179,
  "height": 6919,
  "version": 1,
  "versionHex": "00000001",
  "merkleroot": "f2637a730b599e3ec71ee5a6cff20a2fbbf6628069a8daf2c70eb2810011a4f3",
  "time": 1236652124,
  "mediantime": 1236649001,
  "nonce": 1359934484,
  "bits": "1d00ffff",
  "difficulty": 1,
  "chainwork": "00000000000000000000000000000000000000000000000000001b081b081b08",
  "nTx": 1,
  "previousblockhash": "000000005e75f01fd9f13cc5607476ca4b0caf1bb405cf47ffabf4b97a15680f",
  "nextblockhash": "000000006cc01055572ce6042273622b26dd05993e3a45f39b48ddaa57a171fe",
  "strippedsize": 216,
  "size": 216,
  "weight": 864,
  "tx": [
    {
      "txid": "f2637a730b599e3ec71ee5a6cff20a2fbbf6628069a8daf2c70eb2810011a4f3",
      "hash": "f2637a730b599e3ec71ee5a6cff20a2fbbf6628069a8daf2c70eb2810011a4f3",
      "version": 1,
      "size": 135,
      "vsize": 135,
      "weight": 540,
      "locktime": 0,
      "vin": [
        {
          "coinbase": "04ffff001d02b700",
          "sequence": 4294967295
        }
      ],
      "vout": [
        {
          "value": 50.0,
          "n": 0,
          "scriptPubKey": {
            "asm": "04bd422942c97917da493453af394a93a8e42f6aacf84b5418574cfd5478326a2eb7244c45d4616da5fa28b4b1ff5e7b38ae17118e597ac3ade6ae637a87281122 OP_CHECKSIG",
            "desc": "pk(04bd422942c97917da493453af394a93a8e42f6aacf84b5418574cfd5478326a2eb7244c45d4616da5fa28b4b1ff5e7b38ae17118e597ac3ade6ae637a87281122)#7gjc4kug",
            "hex": "4104bd422942c97917da493453af394a93a8e42f6aacf84b5418574cfd5478326a2eb7244c45d4616da5fa28b4b1ff5e7b38ae17118e597ac3ade6ae637a87281122ac",
            "type": "pubkey"
          }
        }
      ],
      "hex": "01000000010000000000000000000000000000000000000000000000000000000000000000ffffffff0804ffff001d02b700ffffffff0100f2052a01000000434104bd422942c97917da493453af394a93a8e42f6aacf84b5418574cfd5478326a2eb7244c45d4616da5fa28b4b1ff5e7b38ae17118e597ac3ade6ae637a87281122ac00000000"
    }
  ]
}