{
  "hash": "00000000d14ed5bff1d83c8fadccbdb206de78167a4c477330ca4da1e50ac6f2",
  "confirmations": 44887,
  "height": 8211,
  "version": 1,
  "versionHex": "00000001",
  "merkleroot": "da2c0df5b8de9201baa265799ba80f0b61c2b52cc44a0515017fa20a4fc7fc8e",
  "time": 1237623395,
  "mediantime": 1237609217,
  "nonce": 3753759173,
  "bits": "1d00ffff",
  "difficulty": 1,
  "chainwork": "0000000000000000000000000000000000000000000000000000201420142014",
  "nTx": 1,
  "previousblockhash": "0000000086410b1e0521711c177bd8975ce0f6f4fb06dd7d2eeb0bfffb2dbbf7",
  "nextblockhash": "00000000521d8e21e6e082bb2b5bdd04a97ce535816dffc9635829c3f8d15256",
  "strippedsize": 216,
  "size": 216,
  "weight": 864,
  "tx": [
    {
      "txid": "da2c0df5b8de9201baa265799ba80f0b61c2b52cc44a0515017fa20a4fc7fc8e",
      "hash": "da2c0df5b8de9201baa265799ba80f0b61c2b52cc44a0515017fa20a4fc7fc8e",
      "version": 1,
      "size": 135,
      "vsize": 135,
      "weight": 540,
      "locktime": 0,
      "vin": [
        {
          "coinbase": "04ffff001d02dc00",
          "sequence": 4294967295
        }
      ],
      "vout": [
        {
          "value": 50.0,
          "n": 0,
          "scriptPubKey": {
            "asm": "04d7f08953c78915e188259bd6da2a9c3ca45a71b5665e375d7473689295063b3c36ea9adfb4a54bc553b3156a0489360fa3884f39d19757e3b1460c644975ce6c OP_CHECKSIG",
            "desc": "pk(04d7f08953c78915e188259bd6da2a9c3ca45a71b5665e375d7473689295063b3c36ea9adfb4a54bc553b3156a0489360fa3884f39d19757e3b1460c644975ce6c)#5tu9j2cy",
            "hex": "4104d7f08953c78915e188259bd6da2a9c3ca45a71b5665e375d7473689295063b3c36ea9adfb4a54bc553b3156a0489360fa3884f39d19757e3b1460c644975ce6cac",
            "type": "pubkey"
          }
        }
      ],
      "hex": "01000000010000000000000000000000000000000000000000000000000000000000000000ffffffff0804ffff001d02dc00ffffffff0100f2052a01000000434104d7f08953c78915e188259bd6da2a9c3ca45a71b5665e375d7473689295063b3c36ea9adfb4a54bc553b3156a0489360fa3884f39d19757e3b1460c644975ce6cac00000000"
    }
  ]
}