{
  "hash": "000000009417874accc99f06451effdbf7378093fd6fc85d726fff584fca013a",
  "confirmations": 48175,
  "height": 4923,
  "version": 1,
  "versionHex": "00000001",
  "merkleroot": "42ef81250d68aec8833c72d55b0b44cd733a1d03650c3e0e51880a3692d39a1f",
  "time": 1235085517,
  "mediantime": 1235082721,
  "nonce": 2605047332,
  "bits": "1d00ffff",
  "difficulty": 1,
  "chainwork": "0000000000000000000000000000000000000000000000000000133c133c133c",
  "nTx": 1,
  "previousblockhash": "000000009921191d67470d126d1e4957849aa909b4f14c9ddd228b35db08e2b4",
  "nextblockhash": "000000005844a754a5040a46b1fafc21d245446652e010f878bee8a5e5b5fabd",
  "strippedsize": 216,
  "size": 216,
  "weight": 864,
  "tx": [
    {
      "txid": "42ef81250d68aec8833c72d55b0b44cd733a1d03650c3e0e51880a3692d39a1f",
      "hash": "42ef81250d68aec8833c72d55b0b44cd733a1d03650c3e0e51880a3692d39a1f",
      "version": 1,
      "size": 135,
      "vsize": 135,
      "weight": 540,
      "locktime": 0,
      "vin": [
        {
          "coinbase": "04ffff001d02fe05",
          "sequence": 4294967295
        }
      ],
      "vout": [
        {
          "value": 50.0,
          "n": 0,
          "scriptPubKey": {
            "asm": "04efc7cc1c0b29e365438800296e84d5a0a86994218a06b26e3ff0be91e329e2c02b3c9d7b3247169d5c2afdadd1b0f11eeae71f407f3bc6e90aecffb66ed5df46 OP_CHECKSIG",
            "desc": "pk(04efc7cc1c0b29e365438800296e84d5a0a86994218a06b26e3ff0be91e329e2c02b3c9d7b3247169d5c2afdadd1b0f11eeae71f407f3bc6e90aecffb66ed5df46)#walf8eq5",
            "hex": "4104efc7cc1c0b29e365438800296e84d5a0a86994218a06b26e3ff0be91e329e2c02b3c9d7b3247169d5c2afdadd1b0f11eeae71f407f3bc6e90aecffb66ed5df46ac",
            "type": "pubkey"
          }
        }
      ],
      "hex": "01000000010000000000000000000000000000000000000000000000000000000000000000ffffffff0804ffff001d02fe05ffffffff0100f2052a01000000434104efc7cc1c0b29e365438800296e84d5a0a86994218a06b26e3ff0be91e329e2c02b3c9d7b3247169d5c2afdadd1b0f11eeae71f407f3bc6e90aecffb66ed5df46ac00000000"
    }
  ]
}