{
  "hash": "00000000df039632706f1fae438e4fddc0f42b92d5778348a53413e577180553",
  "confirmations": 47932,
  "height": 5166,
  "version": 1,
  "versionHex": "00000001",
  "merkleroot": "329f37e4fb7aebd4ca3205620611f012947dd3627346f3aa56271e3515a2427d",
  "time": 1235262568,
  "mediantime": 1235259410,
  "nonce": 94447178,
  "bits": "1d00ffff",
  "difficulty": 1,
  "chainwork": "0000000000000000000000000000000000000000000000000000142f142f142f",
  "nTx": 1,
  "previousblockhash": "000000006758d578caf2ebb468e61e283078515e1a3814a230cfb9ac7c290b50",
  "nextblockhash": "00000000fc5780be430113cb160a5ea51efa6a66e62663a69621aadbb9036060",
  "strippedsize": 215,
  "size": 215,
  "weight": 860,
  "tx": [
    {
      "txid": "329f37e4fb7aebd4ca3205620611f012947dd3627346f3aa56271e3515a2427d",
      "hash": "329f37e4fb7aebd4ca3205620611f012947dd3627346f3aa56271e3515a2427d",
      "version": 1,
      "size": 134,
      "vsize": 134,
      "weight": 536,
      "locktime": 0,
      "vin": [
        {
          "coinbase": "04ffff001d010a",
          "sequence": 4294967295
        }
      ],
      "vout": [
        {
          "value": 50.0,
          "n": 0,
          "scriptPubKey": {
            "asm": "04ac260e08191ae4e145887c91cd7fcefa2957817ce8a6e36472ab9aa8adcde768685ab906d019d24f27301942c28c5b1b6aae0d19d24ce362483134586ced7540 OP_CHECKSIG",
            "desc": "pk(04ac260e08191ae4e145887c91cd7fcefa2957817ce8a6e36472ab9aa8adcde768685ab906d019d24f27301942c28c5b1b6aae0d19d24ce362483134586ced7540)#hxezwj88",
            "hex": "4104ac260e08191ae4e145887c91cd7fcefa2957817ce8a6e36472ab9aa8adcde768685ab906d019d24f27301942c28c5b1b6aae0d19d24ce362483134586ced7540ac",
            "type": "pubkey"
          }
        }
      ],
      "hex": "01000000010000000000000000000000000000000000000000000000000000000000000000ffffffff0704ffff001d010affffffff0100f2052a01000000434104ac260e08191ae4e145887c91cd7fcefa2957817ce8a6e36472ab9aa8adcde768685ab906d019d24f27301942c28c5b1b6aae0d19d24ce362483134586ced7540ac00000000"
    }
  ]
}