{
  "hash": "00000000df64862b7d3eaad2e4edc0f206b655fd409b69714361d11cb61740fc",
  "confirmations": 47699,
  "height": 5399,
  "version": 1,
  "versionHex": "00000001",
  "merkleroot": "4dda4999e959bbc69d12f5bd68ea285553c3b95ab3cfeb250bd52d9789ac5cd8",
  "time": 1235440525,
  "mediantime": 1235436335,
  "nonce": 2954751751,
  "bits": "1d00ffff",
  "difficulty": 1,
  "chainwork": "0000000000000000000000000000000000000000000000000000151815181518",
  "nTx": 1,
  "previousblockhash": "0000000005265ff2fbcf60436eb307234bf5ba5b3658198bebc2470703ee7e01",
  "nextblockhash": "000000003819e45f96d069bb41dfa72e94c0ee0c9c97a1b127b62e8613b71374",
  "strippedsize": 216,
  "size": 216,
  "weight": 864,
  "tx": [
    {
      "txid": "4dda4999e959bbc69d12f5bd68ea285553c3b95ab3cfeb250bd52d9789ac5cd8",
      "hash": "4dda4999e959bbc69d12f5bd68ea285553c3b95ab3cfeb250bd52d9789ac5cd8",
      "version": 1,
      "size": 135,
      "vsize": 135,
      "weight": 540,
      "locktime": 0,
      "vin": [
        {
          "coinbase": "04ffff001d02a303",
          "sequence": 4294967295
        }
      ],
      "vout": [
        {
          "value": 50.0,
          "n": 0,
          "scriptPubKey": {
            "asm": "04eaae5ccb8f28258a1faf817099fb3703e37c5beb4a2a772ed049da5955ea8383a63cf4fdd1d290b94e1c5247c447d9ebdb178c1d590696d7953d1b4bcd790ee3 OP_CHECKSIG",
            "desc": "pk(04eaae5ccb8f28258a1faf817099fb3703e37c5beb4a2a772ed049da5955ea8383a63cf4fdd1d290b94e1c5247c447d9ebdb178c1d590696d7953d1b4bcd790ee3)#kzztjkz5",
            "hex": "4104eaae5ccb8f28258a1faf817099fb3703e37c5beb4a2a772ed049da5955ea8383a63cf4fdd1d290b94e1c5247c447d9ebdb178c1d590696d7953d1b4bcd790ee3ac",
            "type": "pubkey"
          }
        }
      ],
      "hex": "01000000010000000000000000000000000000000000000000000000000000000000000000ffffffff0804ffff001d02a303ffffffff0100f2052a01000000434104eaae5ccb8f28258a1faf817099fb3703e37c5beb4a2a772ed049da5955ea8383a63cf4fdd1d290b94e1c5247c447d9ebdb178c1d590696d7953d1b4bcd790ee3ac00000000"
    }
  ]
}