{
  "hash": "000000002af40424edd2b40c8028e6c16520e221d916486747529fc27b649dad",
  "confirmations": 46581,
  "height": 6517,
  "version": 1,
  "versionHex": "00000001",
  "merkleroot": "18b3ac083fdfc21469abc072fac6d18aa75d1980e8f5218c065302b580b4644c",
  "time": 1236340402,
  "mediantime": 1236338152,
  "nonce": 21024688,
  "bits": "1d00ffff",
  "difficulty": 1,
  "chainwork": "0000000000000000000000000000000000000000000000000000197619761976",
  "nTx": 1,
  "previousblockhash": "00000000695ca86e48e2d28aeaadbec48161e51aed54af18073e3bbcbe295265",
  "nextblockhash": "0000000070e817b3a18fc341b538032ae23b0e063c4f15f460ec639d19e4d235",
  "strippedsize": 216,
  "size": 216,
  "weight": 864,
  "tx": [
    {
      "txid": "18b3ac083fdfc21469abc072fac6d18aa75d1980e8f5218c065302b580b4644c",
      "hash": "18b3ac083fdfc21469abc072fac6d18aa75d1980e8f5218c065302b580b4644c",
      "version": 1,
      "size": 135,
      "vsize": 135,
      "weight": 540,
      "locktime": 0,
      "vin": [
        {
          "coinbase": "04ffff001d022704",
          "sequence": 4294967295
        }
      ],
      "vout": [
        {
          "value": 50.0,
          "n": 0,
          "scriptPubKey": {
            "asm": "04c1fbc83ba5864150aec3f578f2d001d457454fec8a131103fb72e19dbfaf505b8c065473592b71adbc1c19d71972669b1736c01aba0048ad420d9d6dd068bc54 OP_CHECKSIG",
            "desc": "pk(04c1fbc83ba5864150aec3f578f2d001d457454fec8a131103fb72e19dbfaf505b8c065473592b71adbc1c19d71972669b1736c01aba0048ad420d9d6dd068bc54)#vw8v060n",
            "hex": "4104c1fbc83ba5864150aec3f578f2d001d457454fec8a131103fb72e19dbfaf505b8c065473592b71adbc1c19d71972669b1736c01aba0048ad420d9d6dd068bc54ac",
            "type": "pubkey"
          }
        }
      ],
      "hex": "01000000010000000000000000000000000000000000000000000000000000000000000000ffffffff0804ffff001d022704ffffffff0100f2052a01000000434104c1fbc83ba5864150aec3f578f2d001d457454fec8a131103fb72e19dbfaf505b8c065473592b71adbc1c19d71972669b1736c01aba0048ad420d9d6dd068bc54ac00000000"
    }
  ]
}