{
  "hash": "0000000018b5d5f8461d3ec8e6312c8e9b2750f926ddcdabef9ad5bbcf84e06a",
  "confirmations": 47751,
  "height": 5347,
  "version": 1,
  "versionHex": "00000001",
  "merkleroot": "fdd4f6ab8cec853b3d8dd9f89e19cfc49efc45c4a910c2fb0af1d58338916e4a",
  "time": 1235400896,
  "mediantime": 1235396879,
  "nonce": 1655859718,
  "bits": "1d00ffff",
  "difficulty": 1,
  "chainwork": "000000000000000000000000000000000000000000000000000014e414e414e4",
  "nTx": 1,
  "previousblockhash": "0000000076cc801f9bb066d08246c3850b3fd8d160d0fc658c5bbb7d9e82d732",
  "nextblockhash": "00000000b48007fcdcedc6b3709abe3c54573a631dea64be1ce1e6e9f769ca8a",
  "strippedsize": 216,
  "size": 216,
  "weight": 864,
  "tx": [
    {
      "txid": "fdd4f6ab8cec853b3d8dd9f89e19cfc49efc45c4a910c2fb0af1d58338916e4a",
      "hash": "fdd4f6ab8cec853b3d8dd9f89e19cfc49efc45c4a910c2fb0af1d58338916e4a",
      "version": 1,
      "size": 135,
      "vsize": 135,
      "weight": 540,
      "locktime": 0,
      "vin": [
        {
          "coinbase": "04ffff001d02d402",
          "sequence": 4294967295
        }
      ],
      "vout": [
        {
          "value": 50.0,
          "n": 0,
          "scriptPubKey": {
            "asm": "0440e04ceb8221894541bb6d3f0070ed2b9e89a6b86237c46bba581ce6facaa0ac8eb6cf1c32d8d2ef48e25a6fa826ebc7f4bb7b3655a079abae334d302eb37061 OP_CHECKSIG",
            "desc": "pk(0440e04ceb8221894541bb6d3f0070ed2b9e89a6b86237c46bba581ce6facaa0ac8eb6cf1c32d8d2ef48e25a6fa826ebc7f4bb7b3655a079abae334d302eb37061)#q9884jq9",
            "hex": "410440e04ceb8221894541bb6d3f0070ed2b9e89a6b86237c46bba581ce6facaa0ac8eb6cf1c32d8d2ef48e25a6fa826ebc7f4bb7b3655a079abae334d302eb37061ac",
            "type": "pubkey"
          }
        }
      ],
      "hex": "01000000010000000000000000000000000000000000000000000000000000000000000000ffffffff0804ffff001d02d402ffffffff0100f2052a0100000043410440e04ceb8221894541bb6d3f0070ed2b9e89a6b86237c46bba581ce6facaa0ac8eb6cf1c32d8d2ef48e25a6fa826ebc7f4bb7b3655a079abae334d302eb37061ac00000000"
    }
  ]
}