{
  "hash": "00000000c858ffba5731087a945836fcb2e778ce6446ff3e8a40b77a44ef6945",
  "confirmations": 44643,
  "height": 8455,
  "version": 1,
  "versionHex": "00000001",
  "merkleroot": "be127abc7f545d5f34a789afb01d5f2ab2675a6a8a68bc9ca4b295aa3e1da9b4",
  "time": 1237833660,
  "mediantime": 1237829665,
  "nonce": 1886132259,
  "bits": "1d00ffff",
  "difficulty": 1,
  "chainwork": "0000000000000000000000000000000000000000000000000000210821082108",
  "nTx": 1,
  "previousblockhash": "000000000031e03f8f396ba4d1ae91489983fc878e3f4295e15052edf33858a5",
  "nextblockhash": "00000000eba4f5990ca6e790a8611124e774acc8f5a662056d2b960e0a02c806",
  "strippedsize": 216,
  "size": 216,
  "weight": 864,
  "tx": [
    {
      "txid": "be127abc7f545d5f34a789afb01d5f2ab2675a6a8a68bc9ca4b295aa3e1da9b4",
      "hash": "be127abc7f545d5f34a789afb01d5f2ab2675a6a8a68bc9ca4b295aa3e1da9b4",
      "version": 1,
      "size": 135,
      "vsize": 135,
      "weight": 540,
      "locktime": 0,
      "vin": [
        {
          "coinbase": "04ffff001d02d906",
          "sequence": 4294967295
        }
      ],
      "vout": [
        {
          "value": 50.0,
          "n": 0,
          "scriptPubKey": {
            "asm": "04a153d66e808831096799f92ba4ddd79f4724468b5bcda1099f0eef2c1935120fb5da912672d0a6b445864afb705d2837f893c9e161101f471e208eda853fca9e OP_CHECKSIG",
            "desc": "pk(04a153d66e808831096799f92ba4ddd79f4724468b5bcda1099f0eef2c1935120fb5da912672d0a6b445864afb705d2837f893c9e161101f471e208eda853fca9e)#sas682wr",
            "hex": "4104a153d66e808831096799f92ba4ddd79f4724468b5bcda1099f0eef2c1935120fb5da912672d0a6b445864afb705d2837f893c9e161101f471e208eda853fca9eac",
            "type": "pubkey"
          }
        }
      ],
      "hex": "01000000010000000000000000000000000000000000000000000000000000000000000000ffffffff0804ffff001d02d906ffffffff0100f2052a01000000434104a153d66e808831096799f92ba4ddd79f4724468b5bcda1099f0eef2c1935120fb5da912672d0a6b445864afb705d2837f893c9e161101f471e208eda853fca9eac00000000"
    }
  ]
}