{
  "hash": "0000000080b724743eca50899691555164e2568b421397d3ebde65689c03e5fc",
  "confirmations": 45334,
  "height": 7764,
  "version": 1,
  "versionHex": "00000001",
  "merkleroot": "437bfc302266ded3c467ba8a6a88f6fcb1f7828fc46d894f5f2b3a273bdcf561",
  "time": 1237287881,
  "mediantime": 1237282602,
  "nonce": 991167768,
  "bits": "1d00ffff",
  "difficulty": 1,
  "chainwork": "00000000000000000000000000000000000000000000000000001e551e551e55",
  "nTx": 1,
  "previousblockhash": "0000000045644e30e3239267977eb894cde87977781e3d401c5baafbc3edc263",
  "nextblockhash": "000000005e5eaebb1f806e1f3d72a9f8c0d79a096346e6dd5a68c0de1fe0da8d",
  "strippedsize": 216,
  "size": 216,
  "weight": 864,
  "tx": [
    {
      "txid": "437bfc302266ded3c467ba8a6a88f6fcb1f7828fc46d894f5f2b3a273bdcf561",
      "hash": "437bfc302266ded3c467ba8a6a88f6fcb1f7828fc46d894f5f2b3a273bdcf561",
      "version": 1,
      "size": 135,
      "vsize": 135,
      "weight": 540,
      "locktime": 0,
      "vin": [
        {
          "coinbase": "04ffff001d022f05",
          "sequence": 4294967295
        }
      ],
      "vout": [
        {
          "value": 50.0,
          "n": 0,
          "scriptPubKey": {
            "asm": "04171b76db607fdfaa0545dfcf6ed07e15eb8d2c111036c3d13f4725919714167cd96797fa0f8bf68090728b9ba0a7cb851e49c1f033e226700a7aba9cc02ab0c8 OP_CHECKSIG",
            "desc": "pk(04171b76db607fdfaa0545dfcf6ed07e15eb8d2c111036c3d13f4725919714167cd96797fa0f8bf68090728b9ba0a7cb851e49c1f033e226700a7aba9cc02ab0c8)#uh25033z",
            "hex": "4104171b76db607fdfaa0545dfcf6ed07e15eb8d2c111036c3d13f4725919714167cd96797fa0f8bf68090728b9ba0a7cb851e49c1f033e226700a7aba9cc02ab0c8ac",
            "type": "pubkey"
          }
        }
      ],
      "hex": "01000000010000000000000000000000000000000000000000000000000000000000000000ffffffff0804ffff001d022f05ffffffff0100f2052a01000000434104171b76db607fdfaa0545dfcf6ed07e15eb8d2c111036c3d13f4725919714167cd96797fa0f8bf68090728b9ba0a7cb851e49c1f033e226700a7aba9cc02ab0c8ac00000000"
    }
  ]
}