{
  "hash": "0000000040c06516cc9424ea574731fd6fd8804e31dabbafb7113b637969b08a",
  "confirmations": 45384,
  "height": 7714,
  "version": 1,
  "versionHex": "00000001",
  "merkleroot": "ba4a08ab1d15f2a55b6c7b7798f504c6c604c832047ecd4ad9f9b0fc413c6088",
  "time": 1237249527,
  "mediantime": 1237244337,
  "nonce": 4093863683,
  "bits": "1d00ffff",
  "difficulty": 1,
  "chainwork": "00000000000000000000000000000000000000000000000000001e231e231e23",
  "nTx": 1,
  "previousblockhash": "0000000057c9dda16419004d83bcc83dc9db159fbecb6db628cf61453b835917",
  "nextblockhash": "00000000da5872a125e5b13d8213b090cd8316b81ad89b4d59fc0b48cf508b33",
  "strippedsize": 216,
  "size": 216,
  "weight": 864,
  "tx": [
    {
      "txid": "ba4a08ab1d15f2a55b6c7b7798f504c6c604c832047ecd4ad9f9b0fc413c6088",
      "hash": "ba4a08ab1d15f2a55b6c7b7798f504c6c604c832047ecd4ad9f9b0fc413c6088",
      "version": 1,
      "size": 135,
      "vsize": 135,
      "weight": 540,
      "locktime": 0,
      "vin": [
        {
          "coinbase": "04ffff001d027204",
          "sequence": 4294967295
        }
      ],
      "vout": [
        {
          "value": 50.0,
          "n": 0,
          "scriptPubKey": {
            "asm": "043a3d6a2dc0af6bc6c9444b4d028f93dd7370ea833fe37a1ad8b9c128fb643ad5c634ccf39cabe58732e69d7c5875b8e76a4b833b1bd3bfaa59dc18a85e575fbd OP_CHECKSIG",
            "desc": "pk(043a3d6a2dc0af6bc6c9444b4d028f93dd7370ea833fe37a1ad8b9c128fb643ad5c634ccf39cabe58732e69d7c5875b8e76a4b833b1bd3bfaa59dc18a85e575fbd)#p545p4ka",
            "hex": "41043a3d6a2dc0af6bc6c9444b4d028f93dd7370ea833fe37a1ad8b9c128fb643ad5c634ccf39cabe58732e69d7c5875b8e76a4b833b1bd3bfaa59dc18a85e575fbdac",
            "type": "pubkey"
          }
        }
      ],
      "hex": "01000000010000000000000000000000000000000000000000000000000000000000000000ffffffff0804ffff001d027204ffffffff0100f2052a010000004341043a3d6a2dc0af6bc6c9444b4d028f93dd7370ea833fe37a1ad8b9c128fb643ad5c634ccf39cabe58732e69d7c5875b8e76a4b833b1bd3bfaa59dc18a85e575fbdac00000000"
    }
  ]
}