{
  "hash": "00000000acc0f1ca3334891819df9916b3e93aa7901bd2046fd9141fe065a05b",
  "confirmations": 43261,
  "height": 9837,
  "version": 1,
  "versionHex": "00000001",
  "merkleroot": "49b3c3bcd5607480536359ce67ddd1dd0fd975a2834dd851f7bdc6afadb1059a",
  "time": 1238882064,
  "mediantime": 1238878323,
  "nonce": 707935542,
  "bits": "1d00ffff",
  "difficulty": 1,
  "chainwork": "0000000000000000000000000000000000000000000000000000266e266e266e",
  "nTx": 1,
  "previousblockhash": "0000000025fbf75fb5db7cd88819a5a3d2fc1ef50f405e9f512ca8f40a47b6f8",
  "nextblockhash": "00000000daea17fed830ea437e95b5461b9820c49cbe2fa6ddd0b63b272decab",
  "strippedsize": 216,
  "size": 216,
  "weight": 864,
  "tx": [
    {
      "txid": "49b3c3bcd5607480536359ce67ddd1dd0fd975a2834dd851f7bdc6afadb1059a",
      "hash": "49b3c3bcd5607480536359ce67ddd1dd0fd975a2834dd851f7bdc6afadb1059a",
      "version": 1,
      "size": 135,
      "vsize": 135,
      "weight": 540,
      "locktime": 0,
      "vin": [
        {
          "coinbase": "04ffff001d02fd00",
          "sequence": 4294967295
        }
      ],
      "vout": [
        {
          "value": 50.0,
          "n": 0,
          "scriptPubKey": {
            "asm": "04bb93660f7179aea4cf6c669192d6ca8aabe99e6380f75054c35784149829232342600429d9218d979910a9c629616560943f536f1217e54c0112768f3bdf3260 OP_CHECKSIG",
            "desc": "pk(04bb93660f7179aea4cf6c669192d6ca8aabe99e6380f75054c35784149829232342600429d9218d979910a9c629616560943f536f1217e54c0112768f3bdf3260)#a72jykc7",
            "hex": "4104bb93660f7179aea4cf6c669192d6ca8aabe99e6380f75054c35784149829232342600429d9218d979910a9c629616560943f536f1217e54c0112768f3bdf3260ac",
            "type": "pubkey"
          }
        }
      ],
      "hex": "01000000010000000000000000000000000000000000000000000000000000000000000000ffffffff0804ffff001d02fd00ffffffff0100f2052a01000000434104bb93660f7179aea4cf6c669192d6ca8aabe99e6380f75054c35784149829232342600429d9218d979910a9c629616560943f536f1217e54c0112768f3bdf3260ac00000000"
    }
  ]
}