{
  "hash": "00000000d7cd4bef4ee6491a622be5e5da311b6036ec4bfa0c5a534891d0b03d",
  "confirmations": 43707,
  "height": 9391,
  "version": 1,
  "versionHex": "00000001",
  "merkleroot": "cf03ef64d5cd57e5c55d8786ef436c0e635c5f187adfdefece9740e71eaf4c08",
  "time": 1238544961,
  "mediantime": 1238540066,
  "nonce": 3300159778,
  "bits": "1d00ffff",
  "difficulty": 1,
  "chainwork": "000000000000000000000000000000000000000000000000000024b024b024b0",
  "nTx": 1,
  "previousblockhash": "000000008bc3f009b765ffea9eda529f28f9186e938ebc1ffe60892ce1155acb",
  "nextblockhash": "0000000073b299db8411568f97b9b87ad9e78e0fbf2019bc649439f76b2c87b6",
  "strippedsize": 216,
  "size": 216,
  "weight": 864,
  "tx": [
    {
      "txid": "cf03ef64d5cd57e5c55d8786ef436c0e635c5f187adfdefece9740e71eaf4c08",
      "hash": "cf03ef64d5cd57e5c55d8786ef436c0e635c5f187adfdefece9740e71eaf4c08",
      "version": 1,
      "size": 135,
      "vsize": 135,
      "weight": 540,
      "locktime": 0,
      "vin": [
        {
          "coinbase": "04ffff001d027603",
          "sequence": 4294967295
        }
      ],
      "vout": [
        {
          "value": 50.0,
          "n": 0,
          "scriptPubKey": {
            "asm": "049cbdc7f93e31f5dc871c37ae65593cc60c0a38c9795b6a0f4a8225c7c869a3caf008f01d1b6a9f83b6bc599f88dcd28bde0a64843985e9f634b4451aced5dbe1 OP_CHECKSIG",
            "desc": "pk(049cbdc7f93e31f5dc871c37ae65593cc60c0a38c9795b6a0f4a8225c7c869a3caf008f01d1b6a9f83b6bc599f88dcd28bde0a64843985e9f634b4451aced5dbe1)#n3uy4nvc",
            "hex": "41049cbdc7f93e31f5dc871c37ae65593cc60c0a38c9795b6a0f4a8225c7c869a3caf008f01d1b6a9f83b6bc599f88dcd28bde0a64843985e9f634b4451aced5dbe1ac",
            "type": "pubkey"
          }
        }
      ],
      "hex": "01000000010000000000000000000000000000000000000000000000000000000000000000ffffffff0804ffff001d027603ffffffff0100f2052a010000004341049cbdc7f93e31f5dc871c37ae65593cc60c0a38c9795b6a0f4a8225c7c869a3caf008f01d1b6a9f83b6bc599f88dcd28bde0a64843985e9f634b4451aced5dbe1ac00000000"
    }
  ]
}