{
  "hash": "000000004a6484386e4f23ce779f7a6ae651c15c64db1ccd927fc633442b9e77",
  "confirmations": 43574,
  "height": 9524,
  "version": 1,
  "versionHex": "00000001",
  "merkleroot": "4b39d4e24e01026b46e16e7530f09acd1ec53284807e376ee7eb978bca61d87b",
  "time": 1238647245,
  "mediantime": 1238640911,
  "nonce": 236629601,
  "bits": "1d00ffff",
  "difficulty": 1,
  "chainwork": "0000000000000000000000000000000000000000000000000000253525352535",
  "nTx": 1,
  "previousblockhash": "00000000b5c402362622742217dcbf6488bb7f6cd6f3712eaef85c1734f657d7",
  "nextblockhash": "000000004013f5eba4a7825f8cdb1bbfe8fa9d2b359adc4ad1da086db08227e8",
  "strippedsize": 216,
  "size": 216,
  "weight": 864,
  "tx": [
    {
      "txid": "4b39d4e24e01026b46e16e7530f09acd1ec53284807e376ee7eb978bca61d87b",
      "hash": "4b39d4e24e01026b46e16e7530f09acd1ec53284807e376ee7eb978bca61d87b",
      "version": 1,
      "size": 135,
      "vsize": 135,
      "weight": 540,
      "locktime": 0,
      "vin": [
        {
          "coinbase": "04ffff001d022007",
          "sequence": 4294967295
        }
      ],
      "vout": [
        {
          "value": 50.0,
          "n": 0,
          "scriptPubKey": {
            "asm": "04f083fcaaae204cd71ea478ca35291631a9000721614f87deb2bcafedc327a90c844a8aaf2368c517281087ce0bbd78bf345e3d76b3698f0da8f489b99c4f5d3b OP_CHECKSIG",
            "desc": "pk(04f083fcaaae204cd71ea478ca35291631a9000721614f87deb2bcafedc327a90c844a8aaf2368c517281087ce0bbd78bf345e3d76b3698f0da8f489b99c4f5d3b)#xqk83svu",
            "hex": "4104f083fcaaae204cd71ea478ca35291631a9000721614f87deb2bcafedc327a90c844a8aaf2368c517281087ce0bbd78bf345e3d76b3698f0da8f489b99c4f5d3bac",
            "type": "pubkey"
          }
        }
      ],
      "hex": "01000000010000000000000000000000000000000000000000000000000000000000000000ffffffff0804ffff001d022007ffffffff0100f2052a01000000434104f083fcaaae204cd71ea478ca35291631a9000721614f87deb2bcafedc327a90c844a8aaf2368c517281087ce0bbd78bf345e3d76b3698f0da8f489b99c4f5d3bac00000000"
    }
  ]
}