{
  "hash": "000000004f5b1c434e7cd1995c7c187a5dad98a471f29f86829a34e6ebeed6ea",
  "confirmations": 46340,
  "height": 6758,
  "version": 1,
  "versionHex": "00000001",
  "merkleroot": "52b006df7b6d20442a18cf0d0623fb8e3feb932a290565527df162264f0e8ac8",
  "time": 1236526828,
  "mediantime": 1236523412,
  "nonce": 125786908,
  "bits": "1d00ffff",
  "difficulty": 1,
  "chainwork": "00000000000000000000000000000000000000000000000000001a671a671a67",
  "nTx": 1,
  "previousblockhash": "0000000055f628a1c617b8c33e2063f606fefae443533077609a03bdc9e91547",
  "nextblockhash": "0000000016f4735551894f42756a4197f8603dd15b2956a36b67ab67162904e2",
  "strippedsize": 216,
  "size": 216,
  "weight": 864,
  "tx": [
    {
      "txid": "52b006df7b6d20442a18cf0d0623fb8e3feb932a290565527df162264f0e8ac8",
      "hash": "52b006df7b6d20442a18cf0d0623fb8e3feb932a290565527df162264f0e8ac8",
      "version": 1,
      "size": 135,
      "vsize": 135,
      "weight": 540,
      "locktime": 0,
      "vin": [
        {
          "coinbase": "04ffff001d023508",
          "sequence": 4294967295
        }
      ],
      "vout": [
        {
          "value": 50.0,
          "n": 0,
          "scriptPubKey": {
            "asm": "04b311a06ec14b85b3e6383a9594fefe3eb87a10c866ad5a2b0f6635fdfeecda65f12de2441deaf79cc06031bd832b45bd3ef391e9830309ab5dabefdd5af20c31 OP_CHECKSIG",
            "desc": "pk(04b311a06ec14b85b3e6383a9594fefe3eb87a10c866ad5a2b0f6635fdfeecda65f12de2441deaf79cc06031bd832b45bd3ef391e9830309ab5dabefdd5af20c31)#quv8h8yl",
            "hex": "4104b311a06ec14b85b3e6383a9594fefe3eb87a10c866ad5a2b0f6635fdfeecda65f12de2441deaf79cc06031bd832b45bd3ef391e9830309ab5dabefdd5af20c31ac",
            "type": "pubkey"
          }
        }
      ],
      "hex": "01000000010000000000000000000000000000000000000000000000000000000000000000ffffffff0804ffff001d023508ffffffff0100f2052a01000000434104b311a06ec14b85b3e6383a9594fefe3eb87a10c866ad5a2b0f6635fdfeecda65f12de2441deaf79cc06031bd832b45bd3ef391e9830309ab5dabefdd5af20c31ac00000000"
    }
  ]
}