{
  "hash": "0000000006a774e00b730eeba018fbca6673c32753fce367a316f5c9be4332bd",
  "confirmations": 52219,
  "height": 399,
  "version": 1,
  "versionHex": "00000001",
  "merkleroot": "d9ab16fd9a8a5758e9a276eeecca67f232daabd6a603c8c6a1bb0b99c542163e",
  "time": 1231901339,
  "mediantime": 1231897970,
  "nonce": 1284574755,
  "bits": "1d00ffff",
  "difficulty": 1,
  "chainwork": "0000000000000000000000000000000000000000000000000000019001900190",
  "nTx": 1,
  "previousblockhash": "000000002f7d702a27ccd65158740198f79d4ba1ddea8ab14b56b63a6289fe89",
  "nextblockhash": "000000002dd9919f0a67590bb7c945cb57270a060ce39e85d8d37536a71928c3",
  "strippedsize": 216,
  "size": 216,
  "weight": 864,
  "tx": [
    {
      "txid": "d9ab16fd9a8a5758e9a276eeecca67f232daabd6a603c8c6a1bb0b99c542163e",
      "hash": "d9ab16fd9a8a5758e9a276eeecca67f232daabd6a603c8c6a1bb0b99c542163e",
      "version": 1,
      "size": 135,
      "vsize": 135,
      "weight": 540,
      "locktime": 0,
      "vin": [
        {
          "coinbase": "04ffff001d027302",
          "sequence": 4294967295
        }
      ],
      "vout": [
        {
          "value": 50.0,
          "n": 0,
          "scriptPubKey": {
            "asm": "04cc7b14f46a7c690097b2dbec430e773c6fe3bc4c52fbf90302c5a84bfe64821874b489a34c25310499af10b2a3ffd0486a58f44154c4418d288779a773983ef8 OP_CHECKSIG",
            "desc": "pk(04cc7b14f46a7c690097b2dbec430e773c6fe3bc4c52fbf90302c5a84bfe64821874b489a34c25310499af10b2a3ffd0486a58f44154c4418d288779a773983ef8)#wldvmp5a",
            "hex": "4104cc7b14f46a7c690097b2dbec430e773c6fe3bc4c52fbf90302c5a84bfe64821874b489a34c25310499af10b2a3ffd0486a58f44154c4418d288779a773983ef8ac",
            "type": "pubkey"
          }
        }
      ],
      "hex": "01000000010000000000000000000000000000000000000000000000000000000000000000ffffffff0804ffff001d027302ffffffff0100f2052a01000000434104cc7b14f46a7c690097b2dbec430e773c6fe3bc4c52fbf90302c5a84bfe64821874b489a34c25310499af10b2a3ffd0486a58f44154c4418d288779a773983ef8ac00000000"
    }
  ]
}