{
  "hash": "000000002bdd4d2377d0874616e031f9d24b42b2b0e03d8d6600010a0918ab1f",
  "confirmations": 49664,
  "height": 3434,
  "version": 1,
  "versionHex": "00000001",
  "merkleroot": "70716e63794d7f1b27783a3f5a5b597d3b2be7b68b6c96a80afbd464b4ecd226",
  "time": 1234062168,
  "mediantime": 1234057626,
  "nonce": 1303865119,
  "bits": "1d00ffff",
  "difficulty": 1,
  "chainwork": "00000000000000000000000000000000000000000000000000000d6b0d6b0d6b",
  "nTx": 1,
  "previousblockhash": "000000003345024722b806f833ae52bdd10e12a4a2d199ea3744b3673511ec50",
  "nextblockhash": "0000000037bbf8540f82bd8ea365f9c454998b2ca2111d0d6d40abb5a92f6b1f",
  "strippedsize": 216,
  "size": 216,
  "weight": 864,
  "tx": [
    {
      "txid": "70716e63794d7f1b27783a3f5a5b597d3b2be7b68b6c96a80afbd464b4ecd226",
      "hash": "70716e63794d7f1b27783a3f5a5b597d3b2be7b68b6c96a80afbd464b4ecd226",
      "version": 1,
      "size": 135,
      "vsize": 135,
      "weight": 540,
      "locktime": 0,
      "vin": [
        {
          "coinbase": "04ffff001d021b06",
          "sequence": 4294967295
        }
      ],
      "vout": [
        {
          "value": 50.0,
          "n": 0,
          "scriptPubKey": {
            "asm": "04ee45915bf7ae74c697d20316341a684984c5a863bcb94bd553ecdf1dbd0aa15ca939558e5c2db1eb170e66d9ba29735dfa1b437a3d78a031eb6704875602c9ec OP_CHECKSIG",
            "desc": "pk(04ee45915bf7ae74c697d20316341a684984c5a863bcb94bd553ecdf1dbd0aa15ca939558e5c2db1eb170e66d9ba29735dfa1b437a3d78a031eb6704875602c9ec)#ltenhr73",
            "hex": "4104ee45915bf7ae74c697d20316341a684984c5a863bcb94bd553ecdf1dbd0aa15ca939558e5c2db1eb170e66d9ba29735dfa1b437a3d78a031eb6704875602c9ecac",
            "type": "pubkey"
          }
        }
      ],
      "hex": "01000000010000000000000000000000000000000000000000000000000000000000000000ffffffff0804ffff001d021b06ffffffff0100f2052a01000000434104ee45915bf7ae74c697d20316341a684984c5a863bcb94bd553ecdf1dbd0aa15ca939558e5c2db1eb170e66d9ba29735dfa1b437a3d78a031eb6704875602c9ecac00000000"
    }
  ]
}