{
  "hash": "00000000be977b98fa3affe971e3f4bab32449c93077a14752d3579410aba581",
  "confirmations": 46561,
  "height": 6537,
  "version": 1,
  "versionHex": "00000001",
  "merkleroot": "89f2b03a44bb4bc5b2f107ee57c6e29e4836706587ec1dfa394de0dc154209cc",
  "time": 1236356758,
  "mediantime": 1236351531,
  "nonce": 1651883577,
  "bits": "1d00ffff",
  "difficulty": 1,
  "chainwork": "0000000000000000000000000000000000000000000000000000198a198a198a",
  "nTx": 1,
  "previousblockhash": "000000007d0185eba9d8d4e3f5d396b6cc793871b16e31f5490f59fa8f7cdf08",
  "nextblockhash": "000000005159f5031dbfaf263cdca304aed38c12ef5c0539c441bd27ea158ff1",
  "strippedsize": 216,
  "size": 216,
  "weight": 864,
  "tx": [
    {
      "txid": "89f2b03a44bb4bc5b2f107ee57c6e29e4836706587ec1dfa394de0dc154209cc",
      "hash": "89f2b03a44bb4bc5b2f107ee57c6e29e4836706587ec1dfa394de0dc154209cc",
      "version": 1,
      "size": 135,
      "vsize": 135,
      "weight": 540,
      "locktime": 0,
      "vin": [
        {
          "coinbase": "04ffff001d023104",
          "sequence": 4294967295
        }
      ],
      "vout": [
        {
          "value": 50.0,
          "n": 0,
          "scriptPubKey": {
            "asm": "045e75dbeccfaea1dee36b57f66d960a42c20fadb34b42b678ac690d693ffadffa0f289d2efc7a870d56b15929ce13330c7cd5867ead830adc9afe6dddbfca79f7 OP_CHECKSIG",
            "desc": "pk(045e75dbeccfaea1dee36b57f66d960a42c20fadb34b42b678ac690d693ffadffa0f289d2efc7a870d56b15929ce13330c7cd5867ead830adc9afe6dddbfca79f7)#un5lnuym",
            "hex": "41045e75dbeccfaea1dee36b57f66d960a42c20fadb34b42b678ac690d693ffadffa0f289d2efc7a870d56b15929ce13330c7cd5867ead830adc9afe6dddbfca79f7ac",
            "type": "pubkey"
          }
        }
      ],
      "hex": "01000000010000000000000000000000000000000000000000000000000000000000000000ffffffff0804ffff001d023104ffffffff0100f2052a010000004341045e75dbeccfaea1dee36b57f66d960a42c20fadb34b42b678ac690d693ffadffa0f289d2efc7a870d56b15929ce13330c7cd5867ead830adc9afe6dddbfca79f7ac00000000"
    }
  ]
}