{
  "hash": "00000000fcf2e4659eec34c869e25bf12bbabdc15313904c7f83b852886efcc8",
  "confirmations": 46157,
  "height": 6941,
  "version": 1,
  "versionHex": "00000001",
  "merkleroot": "525e07621efec7879ea9b534bada757c9f6abd1d81ca7c53ea260f30a6863d46",
  "time": 1236671140,
  "mediantime": 1236666428,
  "nonce": 3401082672,
  "bits": "1d00ffff",
  "difficulty": 1,
  "chainwork": "00000000000000000000000000000000000000000000000000001b1e1b1e1b1e",
  "nTx": 1,
  "previousblockhash": "000000009ac22b564d45d5bce1355b74cf37886df0d4615bebdd783e1a1d3ba0",
  "nextblockhash": "0000000076e05f8e9cadbb5c6b914fc7949285b5161ecb8b419eef7b4a8f4fac",
  "strippedsize": 216,
  "size": 216,
  "weight": 864,
  "tx": [
    {
      "txid": "525e07621efec7879ea9b534bada757c9f6abd1d81ca7c53ea260f30a6863d46",
      "hash": "525e07621efec7879ea9b534bada757c9f6abd1d81ca7c53ea260f30a6863d46",
      "version": 1,
      "size": 135,
      "vsize": 135,
      "weight": 540,
      "locktime": 0,
      "vin": [
        {
          "coinbase": "04ffff001d023501",
          "sequence": 4294967295
        }
      ],
      "vout": [
        {
          "value": 50.0,
          "n": 0,
          "scriptPubKey": {
            "asm": "04edb25c34f61d8e06c3e3e25728d9478f1afa06b44de79c42d59e4ac19c609666c1a05b7bb4cff2f389d673697d87f1064901aa48359e9b656793fb6c6ec6977b OP_CHECKSIG",
            "desc": "pk(04edb25c34f61d8e06c3e3e25728d9478f1afa06b44de79c42d59e4ac19c609666c1a05b7bb4cff2f389d673697d87f1064901aa48359e9b656793fb6c6ec6977b)#fu85madh",
            "hex": "4104edb25c34f61d8e06c3e3e25728d9478f1afa06b44de79c42d59e4ac19c609666c1a05b7bb4cff2f389d673697d87f1064901aa48359e9b656793fb6c6ec6977bac",
            "type": "pubkey"
          }
        }
      ],
      "hex": "01000000010000000000000000000000000000000000000000000000000000000000000000ffffffff0804ffff001d023501ffffffff0100f2052a01000000434104edb25c34f61d8e06c3e3e25728d9478f1afa06b44de79c42d59e4ac19c609666c1a05b7bb4cff2f389d673697d87f1064901aa48359e9b656793fb6c6ec6977bac00000000"
    }
  ]
}