{
  "hash": "0000000080af4f2b1c483e0942b004618fbd23ec0b4acea09486fd5257b4ecae",
  "confirmations": 52479,
  "height": 619,
  "version": 1,
  "versionHex": "00000001",
  "merkleroot": "306837de6eea47b1a9ff1edeb4a30aa9a4718a2e49fefa097576910af7ba3406",
  "time": 1232049139,
  "mediantime": 1232045504,
  "nonce": 2477737783,
  "bits": "1d00ffff",
  "difficulty": 1,
  "chainwork": "0000000000000000000000000000000000000000000000000000026c026c026c",
  "nTx": 1,
  "previousblockhash": "00000000b90e354dad0524303be97ca253572fb99c639a55976aa683cce7facc",
  "nextblockhash": "00000000beecc05104c1cf910a44524f717be71686f339b751824aa0e76ad313",
  "strippedsize": 216,
  "size": 216,
  "weight": 864,
  "tx": [
    {
      "txid": "306837de6eea47b1a9ff1edeb4a30aa9a4718a2e49fefa097576910af7ba3406",
      "hash": "306837de6eea47b1a9ff1edeb4a30aa9a4718a2e49fefa097576910af7ba3406",
      "version": 1,
      "size": 135,
      "vsize": 135,
      "weight": 540,
      "locktime": 0,
      "vin": [
        {
          "coinbase": "04ffff001d02f606",
          "sequence": 4294967295
        }
      ],
      "vout": [
        {
          "value": 50.0,
          "n": 0,
          "scriptPubKey": {
            "asm": "04e97963ff9d0c871950ea52b1dedfbc1797b963eddfbf21274434127d993c49bf98b6801cd30bd840af0a8b7554b6c9b60aeed8bdcabfa0967b5e8527c5ddc728 OP_CHECKSIG",
            "desc": "pk(04e97963ff9d0c871950ea52b1dedfbc1797b963eddfbf21274434127d993c49bf98b6801cd30bd840af0a8b7554b6c9b60aeed8bdcabfa0967b5e8527c5ddc728)#kyus4nv0",
            "hex": "4104e97963ff9d0c871950ea52b1dedfbc1797b963eddfbf21274434127d993c49bf98b6801cd30bd840af0a8b7554b6c9b60aeed8bdcabfa0967b5e8527c5ddc728ac",
            "type": "pubkey"
          }
        }
      ],
      "hex": "01000000010000000000000000000000000000000000000000000000000000000000000000ffffffff0804ffff001d02f606ffffffff0100f2052a01000000434104e97963ff9d0c871950ea52b1dedfbc1797b963eddfbf21274434127d993c49bf98b6801cd30bd840af0a8b7554b6c9b60aeed8bdcabfa0967b5e8527c5ddc728ac00000000"
    }
  ]
}