{
  "hash": "00000000cf627daddffebff0e5b09083aadeddbca4a0a168fd6ca4218d2d5eef",
  "confirmations": 45469,
  "height": 7629,
  "version": 1,
  "versionHex": "00000001",
  "merkleroot": "7512d0b752438051a6b22adf7cf04ecdcd9690a7eccb44033b4be6e4d1c76724",
  "time": 1237188774,
  "mediantime": 1237185950,
  "nonce": 658314541,
  "bits": "1d00ffff",
  "difficulty": 1,
  "chainwork": "00000000000000000000000000000000000000000000000000001dce1dce1dce",
  "nTx": 1,
  "previousblockhash": "00000000a556a878cce7db79101d4aa4481c056ff1a3b58d21bb24fe8a2923ee",
  "nextblockhash": "000000004e3b6b4d3147100da112bb720077a2a0e108cc09d562622c4b3ef7c6",
  "strippedsize": 216,
  "size": 216,
  "weight": 864,
  "tx": [
    {
      "txid": "7512d0b752438051a6b22adf7cf04ecdcd9690a7eccb44033b4be6e4d1c76724",
      "hash": "7512d0b752438051a6b22adf7cf04ecdcd9690a7eccb44033b4be6e4d1c76724",
      "version": 1,
      "size": 135,
      "vsize": 135,
      "weight": 540,
      "locktime": 0,
      "vin": [
        {
          "coinbase": "04ffff001d020303",
          "sequence": 4294967295
        }
      ],
      "vout": [
        {
          "value": 50.0,
          "n": 0,
          "scriptPubKey": {
            "asm": "04050f40ae72617c05e73f1e27a5832cbca7eb98238dcec96304551b0203e04a8b58a930cf3ee327429dca79f6ed88b0f08ddb2527f8166370f933bca5b9e6d1ca OP_CHECKSIG",
            "desc": "pk(04050f40ae72617c05e73f1e27a5832cbca7eb98238dcec96304551b0203e04a8b58a930cf3ee327429dca79f6ed88b0f08ddb2527f8166370f933bca5b9e6d1ca)#qgqxvudw",
            "hex": "4104050f40ae72617c05e73f1e27a5832cbca7eb98238dcec96304551b0203e04a8b58a930cf3ee327429dca79f6ed88b0f08ddb2527f8166370f933bca5b9e6d1caac",
            "type": "pubkey"
          }
        }
      ],
      "hex": "01000000010000000000000000000000000000000000000000000000000000000000000000ffffffff0804ffff001d020303ffffffff0100f2052a01000000434104050f40ae72617c05e73f1e27a5832cbca7eb98238dcec96304551b0203e04a8b58a930cf3ee327429dca79f6ed88b0f08ddb2527f8166370f933bca5b9e6d1caac00000000"
    }
  ]
}