{
  "hash": "00000000c243644e8dad87233f1c211b682562a49c2f27137557b06ccf6a4fb1",
  "confirmations": 46215,
  "height": 6883,
  "version": 1,
  "versionHex": "00000001",
  "merkleroot": "2f616f53b5e857ee22fd04a04f09b1c2502a2a1673b688b5b805636139ccef21",
  "time": 1236623191,
  "mediantime": 1236617470,
  "nonce": 1780277024,
  "bits": "1d00ffff",
  "difficulty": 1,
  "chainwork": "00000000000000000000000000000000000000000000000000001ae41ae41ae4",
  "nTx": 1,
  "previousblockhash": "0000000030c4ac4baed7725a572f65e1392391669bc199ab793b565d30b2b810",
  "nextblockhash": "00000000c744db57e41f4555b8ab84f2484e6898754de72289cd6f176d1dfc5e",
  "strippedsize": 215,
  "size": 215,
  "weight": 860,
  "tx": [
    {
      "txid": "2f616f53b5e857ee22fd04a04f09b1c2502a2a1673b688b5b805636139ccef21",
      "hash": "2f616f53b5e857ee22fd04a04f09b1c2502a2a1673b688b5b805636139ccef21",
      "version": 1,
      "size": 134,
      "vsize": 134,
      "weight": 536,
      "locktime": 0,
      "vin": [
        {
          "coinbase": "04ffff001d0104",
          "sequence": 4294967295
        }
      ],
      "vout": [
        {
          "value": 50.0,
          "n": 0,
          "scriptPubKey": {
            "asm": "04d9737e0dc924e1ad8d8ad7c15e1e282c398c87ba9c46cecbde7029b9e61f010a301109b7d17e7d68d06d2f615ec864c1b473cb95a2b26d1d553a969afd22aeae OP_CHECKSIG",
            "desc": "pk(04d9737e0dc924e1ad8d8ad7c15e1e282c398c87ba9c46cecbde7029b9e61f010a301109b7d17e7d68d06d2f615ec864c1b473cb95a2b26d1d553a969afd22aeae)#fzdfsaac",
            "hex": "4104d9737e0dc924e1ad8d8ad7c15e1e282c398c87ba9c46cecbde7029b9e61f010a301109b7d17e7d68d06d2f615ec864c1b473cb95a2b26d1d553a969afd22aeaeac",
            "type": "pubkey"
          }
        }
      ],
      "hex": "01000000010000000000000000000000000000000000000000000000000000000000000000ffffffff0704ffff001d0104ffffffff0100f2052a01000000434104d9737e0dc924e1ad8d8ad7c15e1e282c398c87ba9c46cecbde7029b9e61f010a301109b7d17e7d68d06d2f615ec864c1b473cb95a2b26d1d553a969afd22aeaeac00000000"
    }
  ]
}