{
  "hash": "00000000086bd4e5384c020d8bc39092076909bf77ce2090e81ea76ca188fc63",
  "confirmations": 47207,
  "height": 5891,
  "version": 1,
  "versionHex": "00000001",
  "merkleroot": "cea3ef68848f41a7e7dd69b9c889832af9597992936f1bf3b874b4b0138611b0",
  "time": 1235836461,
  "mediantime": 1235833206,
  "nonce": 1129290531,
  "bits": "1d00ffff",
  "difficulty": 1,
  "chainwork": "0000000000000000000000000000000000000000000000000000170417041704",
  "nTx": 1,
  "previousblockhash": "0000000044f729c68ab2eff4e29ef228d676f93df405db00620703db33f2d48c",
  "nextblockhash": "00000000cbbb5d05c519f6b66c37dde9aedd45d835f2a95608654a2b7920745b",
  "strippedsize": 216,
  "size": 216,
  "weight": 864,
  "tx": [
    {
      "txid": "cea3ef68848f41a7e7dd69b9c889832af9597992936f1bf3b874b4b0138611b0",
      "hash": "cea3ef68848f41a7e7dd69b9c889832af9597992936f1bf3b874b4b0138611b0",
      "version": 1,
      "size": 135,
      "vsize": 135,
      "weight": 540,
      "locktime": 0,
      "vin": [
        {
          "coinbase": "04ffff001d02ca02",
          "sequence": 4294967295
        }
      ],
      "vout": [
        {
          "value": 50.0,
          "n": 0,
          "scriptPubKey": {
            "asm": "04cd886ab9e436eb1fb1eafa86a25b580d05f7e419eb77a17118679085a2b0b80e9c4858c87c563e2bed3e2cb5baf19dd532240444c406fa8e446f6b12e91d0b8d OP_CHECKSIG",
            "desc": "pk(04cd886ab9e436eb1fb1eafa86a25b580d05f7e419eb77a17118679085a2b0b80e9c4858c87c563e2bed3e2cb5baf19dd532240444c406fa8e446f6b12e91d0b8d)#yeq9fxyt",
            "hex": "4104cd886ab9e436eb1fb1eafa86a25b580d05f7e419eb77a17118679085a2b0b80e9c4858c87c563e2bed3e2cb5baf19dd532240444c406fa8e446f6b12e91d0b8dac",
            "type": "pubkey"
          }
        }
      ],
      "hex": "01000000010000000000000000000000000000000000000000000000000000000000000000ffffffff0804ffff001d02ca02ffffffff0100f2052a01000000434104cd886ab9e436eb1fb1eafa86a25b580d05f7e419eb77a17118679085a2b0b80e9c4858c87c563e2bed3e2cb5baf19dd532240444c406fa8e446f6b12e91d0b8dac00000000"
    }
  ]
}