{
  "hash": "00000000b90e354dad0524303be97ca253572fb99c639a55976aa683cce7facc",
  "confirmations": 52480,
  "height": 618,
  "version": 1,
  "versionHex": "00000001",
  "merkleroot": "5812de6f77fcc6c89c2eff87cfff92bb30f0a0d1a828bda5c5f6973c388085fe",
  "time": 1232048357,
  "mediantime": 1232045372,
  "nonce": 2424598790,
  "bits": "1d00ffff",
  "difficulty": 1,
  "chainwork": "0000000000000000000000000000000000000000000000000000026b026b026b",
  "nTx": 1,
  "previousblockhash": "000000005eaaf15c3e3291f1d8aac5ab817e828e6de8925985225dc97f247bd0",
  "nextblockhash": "0000000080af4f2b1c483e0942b004618fbd23ec0b4acea09486fd5257b4ecae",
  "strippedsize": 216,
  "size": 216,
  "weight": 864,
  "tx": [
    {
      "txid": "5812de6f77fcc6c89c2eff87cfff92bb30f0a0d1a828bda5c5f6973c388085fe",
      "hash": "5812de6f77fcc6c89c2eff87cfff92bb30f0a0d1a828bda5c5f6973c388085fe",
      "version": 1,
      "size": 135,
      "vsize": 135,
      "weight": 540,
      "locktime": 0,
      "vin": [
        {
          "coinbase": "04ffff001d02f506",
          "sequence": 4294967295
        }
      ],
      "vout": [
        {
          "value": 50.0,
          "n": 0,
          "scriptPubKey": {
            "asm": "044a5d47cad6081d535a06133cd70f28f1e36b3c1830aa1340a12dc629bb796a3acf741d4c7e5181e861b5b2e8088cdd2f276df11387066daff4e22c21d4f1a714 OP_CHECKSIG",
            "desc": "pk(044a5d47cad6081d535a06133cd70f28f1e36b3c1830aa1340a12dc629bb796a3acf741d4c7e5181e861b5b2e8088cdd2f276df11387066daff4e22c21d4f1a714)#26ekvc3e",
            "hex": "41044a5d47cad6081d535a06133cd70f28f1e36b3c1830aa1340a12dc629bb796a3acf741d4c7e5181e861b5b2e8088cdd2f276df11387066daff4e22c21d4f1a714ac",
            "type": "pubkey"
          }
        }
      ],
      "hex": "01000000010000000000000000000000000000000000000000000000000000000000000000ffffffff0804ffff001d02f506ffffffff0100f2052a010000004341044a5d47cad6081d535a06133cd70f28f1e36b3c1830aa1340a12dc629bb796a3acf741d4c7e5181e861b5b2e8088cdd2f276df11387066daff4e22c21d4f1a714ac00000000"
    }
  ]
}