{
  "hash": "0000000019de4e5cbe32d0609b7f6499216d1b2b8243085bc0176c58b0db44eb",
  "confirmations": 46807,
  "height": 6291,
  "version": 1,
  "versionHex": "00000001",
  "merkleroot": "a860c4abb459095be66e1bf76338c6b894e2dfff0758bd36ec5d5a64266382a2",
  "time": 1236163546,
  "mediantime": 1236159970,
  "nonce": 1459111940,
  "bits": "1d00ffff",
  "difficulty": 1,
  "chainwork": "0000000000000000000000000000000000000000000000000000189418941894",
  "nTx": 1,
  "previousblockhash": "00000000a03e9095f0f0785c6502f5d25ba50967bc77ee63ffbdd34cc7045bdd",
  "nextblockhash": "00000000749287aad39607403d52f762e613dbbde4e580cdaaa487892b8fa72c",
  "strippedsize": 216,
  "size": 216,
  "weight": 864,
  "tx": [
    {
      "txid": "a860c4abb459095be66e1bf76338c6b894e2dfff0758bd36ec5d5a64266382a2",
      "hash": "a860c4abb459095be66e1bf76338c6b894e2dfff0758bd36ec5d5a64266382a2",
      "version": 1,
      "size": 135,
      "vsize": 135,
      "weight": 540,
      "locktime": 0,
      "vin": [
        {
          "coinbase": "04ffff001d02320a",
          "sequence": 4294967295
        }
      ],
      "vout": [
        {
          "value": 50.0,
          "n": 0,
          "scriptPubKey": {
            "asm": "0481d7b3af75b0af0d0c67c71a7f841e95b793281008c20c9cba6aafa50ed0161e7e451784d312e099dbe9bb91eded623b1100bfe6f0e167430008c3bcfa6069d4 OP_CHECKSIG",
            "desc": "pk(0481d7b3af75b0af0d0c67c71a7f841e95b793281008c20c9cba6aafa50ed0161e7e451784d312e099dbe9bb91eded623b1100bfe6f0e167430008c3bcfa6069d4)#v5nywy5f",
            "hex": "410481d7b3af75b0af0d0c67c71a7f841e95b793281008c20c9cba6aafa50ed0161e7e451784d312e099dbe9bb91eded623b1100bfe6f0e167430008c3bcfa6069d4ac",
            "type": "pubkey"
          }
        }
      ],
      "hex": "01000000010000000000000000000000000000000000000000000000000000000000000000ffffffff0804ffff001d02320affffffff0100f2052a0100000043410481d7b3af75b0af0d0c67c71a7f841e95b793281008c20c9cba6aafa50ed0161e7e451784d312e099dbe9bb91eded623b1100bfe6f0e167430008c3bcfa6069d4ac00000000"
    }
  ]
}