{
  "hash": "000000007be7f961cd64a241a97063a57c4c5ff89a8684433c3fb581d942c604",
  "confirmations": 44508,
  "height": 8590,
  "version": 1,
  "versionHex": "00000001",
  "merkleroot": "4864c9893f381149ea8aed61285d127a02750b067ec352099d7cc2be5b51087c",
  "time": 1237943116,
  "mediantime": 1237939311,
  "nonce": 3888272685,
  "bits": "1d00ffff",
  "difficulty": 1,
  "chainwork": "0000000000000000000000000000000000000000000000000000218f218f218f",
  "nTx": 1,
  "previousblockhash": "00000000cfa69a3561611f7c31a791e8afcdb5bf965c5d4fc9b5caa8ba7bf092",
  "nextblockhash": "0000000091d29877d6403e3aa31282cbd39952661ad99ecbbb484f937b387b97",
  "strippedsize": 216,
  "size": 216,
  "weight": 864,
  "tx": [
    {
      "txid": "4864c9893f381149ea8aed61285d127a02750b067ec352099d7cc2be5b51087c",
      "hash": "4864c9893f381149ea8aed61285d127a02750b067ec352099d7cc2be5b51087c",
      "version": 1,
      "size": 135,
      "vsize": 135,
      "weight": 540,
      "locktime": 0,
      "vin": [
        {
          "coinbase": "04ffff001d026b09",
          "sequence": 4294967295
        }
      ],
      "vout": [
        {
          "value": 50.0,
          "n": 0,
          "scriptPubKey": {
            "asm": "0455294068d46ebce600071725cee7595d94556da9ae73ad5715e776ee1236fa3ea4d70d3f7b7eb235470d700156d762ba4d01f439cc2972a881cd2175aa3c0cf6 OP_CHECKSIG",
            "desc": "pk(0455294068d46ebce600071725cee7595d94556da9ae73ad5715e776ee1236fa3ea4d70d3f7b7eb235470d700156d762ba4d01f439cc2972a881cd2175aa3c0cf6)#3nd9rjku",
            "hex": "410455294068d46ebce600071725cee7595d94556da9ae73ad5715e776ee1236fa3ea4d70d3f7b7eb235470d700156d762ba4d01f439cc2972a881cd2175aa3c0cf6ac",
            "type": "pubkey"
          }
        }
      ],
      "hex": "01000000010000000000000000000000000000000000000000000000000000000000000000ffffffff0804ffff001d026b09ffffffff0100f2052a0100000043410455294068d46ebce600071725cee7595d94556da9ae73ad5715e776ee1236fa3ea4d70d3f7b7eb235470d700156d762ba4d01f439cc2972a881cd2175aa3c0cf6ac00000000"
    }
  ]
}