{
  "hash": "0000000056177c1e883bb57705e22d3c8c8826b6301232578593f41225b104ce",
  "confirmations": 43728,
  "height": 9370,
  "version": 1,
  "versionHex": "00000001",
  "merkleroot": "e2c2b1aea292c5c8c79f42f8b119a2aaa52705d0f4206360dff5e458725a4e76",
  "time": 1238525274,
  "mediantime": 1238522020,
  "nonce": 167231266,
  "bits": "1d00ffff",
  "difficulty": 1,
  "chainwork": "0000000000000000000000000000000000000000000000000000249b249b249b",
  "nTx": 1,
  "previousblockhash": "00000000fb268655c88bc3ab236d3a96f0df834217e1cf425942f0dc193706f4",
  "nextblockhash": "0000000037716aaebeb6ce9799c9d3a588fd7e7540a9fbafc873920d50de3a06",
  "strippedsize": 216,
  "size": 216,
  "weight": 864,
  "tx": [
    {
      "txid": "e2c2b1aea292c5c8c79f42f8b119a2aaa52705d0f4206360dff5e458725a4e76",
      "hash": "e2c2b1aea292c5c8c79f42f8b119a2aaa52705d0f4206360dff5e458725a4e76",
      "version": 1,
      "size": 135,
      "vsize": 135,
      "weight": 540,
      "locktime": 0,
      "vin": [
        {
          "coinbase": "04ffff001d023d05",
          "sequence": 4294967295
        }
      ],
      "vout": [
        {
          "value": 50.0,
          "n": 0,
          "scriptPubKey": {
            "asm": "0415fdeadf70ac7b2ce875a2b70fb45b1102b3d22fc2536f90408ba3b28b07dec805199859e720c2ee60b7097af1cea0d4771ecb3442b3aee792f956de818ee91e OP_CHECKSIG",
            "desc": "pk(0415fdeadf70ac7b2ce875a2b70fb45b1102b3d22fc2536f90408ba3b28b07dec805199859e720c2ee60b7097af1cea0d4771ecb3442b3aee792f956de818ee91e)#xcnv09pe",
            "hex": "410415fdeadf70ac7b2ce875a2b70fb45b1102b3d22fc2536f90408ba3b28b07dec805199859e720c2ee60b7097af1cea0d4771ecb3442b3aee792f956de818ee91eac",
            "type": "pubkey"
          }
        }
      ],
      "hex": "01000000010000000000000000000000000000000000000000000000000000000000000000ffffffff0804ffff001d023d05ffffffff0100f2052a0100000043410415fdeadf70ac7b2ce875a2b70fb45b1102b3d22fc2536f90408ba3b28b07dec805199859e720c2ee60b7097af1cea0d4771ecb3442b3aee792f956de818ee91eac00000000"
    }
  ]
}