{
  "hash": "0000000089877bc50d61556aade226a7704e3b10abec959818b302a9b2b4f3ef",
  "confirmations": 43194,
  "height": 9904,
  "version": 1,
  "versionHex": "00000001",
  "merkleroot": "71f712a9ac8fda65476170c2cbda977c1dbe1fa367ff6ea725fd7ad0808538bf",
  "time": 1238926035,
  "mediantime": 1238922266,
  "nonce": 6121365,
  "bits": "1d00ffff",
  "difficulty": 1,
  "chainwork": "000000000000000000000000000000000000000000000000000026b126b126b1",
  "nTx": 1,
  "previousblockhash": "00000000cef2a8c08e84cdc055db8a26c5f7e9d9d79dd3f6982a2752958b32b7",
  "nextblockhash": "00000000b6c64cdaf540504f4eb4e54aa58d372be7db7a5493821fe6e8f1d3c8",
  "strippedsize": 216,
  "size": 216,
  "weight": 864,
  "tx": [
    {
      "txid": "71f712a9ac8fda65476170c2cbda977c1dbe1fa367ff6ea725fd7ad0808538bf",
      "hash": "71f712a9ac8fda65476170c2cbda977c1dbe1fa367ff6ea725fd7ad0808538bf",
      "version": 1,
      "size": 135,
      "vsize": 135,
      "weight": 540,
      "locktime": 0,
      "vin": [
        {
          "coinbase": "04ffff001d026811",
          "sequence": 4294967295
        }
      ],
      "vout": [
        {
          "value": 50.0,
          "n": 0,
          "scriptPubKey": {
            "asm": "04b92f368735797fad3f9a814907ffc9b7fb5b678b5f0c5eaa1865b51a08f1fe3c780fc305af3ef852e68cf7ec7efc7c5809d0e972f1384c2e79af4c3493ce71df OP_CHECKSIG",
            "desc": "pk(04b92f368735797fad3f9a814907ffc9b7fb5b678b5f0c5eaa1865b51a08f1fe3c780fc305af3ef852e68cf7ec7efc7c5809d0e972f1384c2e79af4c3493ce71df)#whtpxnp9",
            "hex": "4104b92f368735797fad3f9a814907ffc9b7fb5b678b5f0c5eaa1865b51a08f1fe3c780fc305af3ef852e68cf7ec7efc7c5809d0e972f1384c2e79af4c3493ce71dfac",
            "type": "pubkey"
          }
        }
      ],
      "hex": "01000000010000000000000000000000000000000000000000000000000000000000000000ffffffff0804ffff001d026811ffffffff0100f2052a01000000434104b92f368735797fad3f9a814907ffc9b7fb5b678b5f0c5eaa1865b51a08f1fe3c780fc305af3ef852e68cf7ec7efc7c5809d0e972f1384c2e79af4c3493ce71dfac00000000"
    }
  ]
}