{
  "hash": "00000000a3a0c36cf5524cf13ec2cff8b87025992a4879f3f339e4fb848b3a16",
  "confirmations": 46131,
  "height": 6967,
  "version": 1,
  "versionHex": "00000001",
  "merkleroot": "fc952c415bf842d69b30ef87f361c1dfcf15f003bee45f428c3731e920bdb421",
  "time": 1236692301,
  "mediantime": 1236688816,
  "nonce": 1359831074,
  "bits": "1d00ffff",
  "difficulty": 1,
  "chainwork": "00000000000000000000000000000000000000000000000000001b381b381b38",
  "nTx": 1,
  "previousblockhash": "000000000ced11649abe4bb6dda4b2f48629c5484cd26dd57419d9b0ffec9608",
  "nextblockhash": "00000000b5c44c71fc6d438a944f5b57c8fdb719dd7639fa94a14576a374598a",
  "strippedsize": 216,
  "size": 216,
  "weight": 864,
  "tx": [
    {
      "txid": "fc952c415bf842d69b30ef87f361c1dfcf15f003bee45f428c3731e920bdb421",
      "hash": "fc952c415bf842d69b30ef87f361c1dfcf15f003bee45f428c3731e920bdb421",
      "version": 1,
      "size": 135,
      "vsize": 135,
      "weight": 540,
      "locktime": 0,
      "vin": [
        {
          "coinbase": "04ffff001d02a201",
          "sequence": 4294967295
        }
      ],
      "vout": [
        {
          "value": 50.0,
          "n": 0,
          "scriptPubKey": {
            "asm": "046f444cd0ec45fa07170d08d4110c33ccb3d7073035e95a381eda45f5ecfeb0d95492bea2fb737448d0206b771607ad46f7651669c686f090801e6d91151ae7b0 OP_CHECKSIG",
            "desc": "pk(046f444cd0ec45fa07170d08d4110c33ccb3d7073035e95a381eda45f5ecfeb0d95492bea2fb737448d0206b771607ad46f7651669c686f090801e6d91151ae7b0)#9zjr2m0g",
            "hex": "41046f444cd0ec45fa07170d08d4110c33ccb3d7073035e95a381eda45f5ecfeb0d95492bea2fb737448d0206b771607ad46f7651669c686f090801e6d91151ae7b0ac",
            "type": "pubkey"
          }
        }
      ],
      "hex": "01000000010000000000000000000000000000000000000000000000000000000000000000ffffffff0804ffff001d02a201ffffffff0100f2052a010000004341046f444cd0ec45fa07170d08d4110c33ccb3d7073035e95a381eda45f5ecfeb0d95492bea2fb737448d0206b771607ad46f7651669c686f090801e6d91151ae7b0ac00000000"
    }
  ]
}