{
  "hash": "000000000c6232610bb9d7514e3ae66257d140f15983b472418e804014a4c514",
  "confirmations": 50347,
  "height": 2751,
  "version": 1,
  "versionHex": "00000001",
  "merkleroot": "81e0dc7d0c015f0cdfb75bb2fb20561dfa7a6c49b27a9ed7f438af8dd3b34dd3",
  "time": 1233596989,
  "mediantime": 1233593862,
  "nonce": 3375196694,
  "bits": "1d00ffff",
  "difficulty": 1,
  "chainwork": "00000000000000000000000000000000000000000000000000000ac00ac00ac0",
  "nTx": 1,
  "previousblockhash": "00000000f8758cf9b66dfb602fa55fc99a0abf83eac31243bcb7111094934005",
  "nextblockhash": "000000002714afd459070dc0fe4073c60482e4bacca2a4c6c801447c367726f7",
  "strippedsize": 216,
  "size": 216,
  "weight": 864,
  "tx": [
    {
      "txid": "81e0dc7d0c015f0cdfb75bb2fb20561dfa7a6c49b27a9ed7f438af8dd3b34dd3",
      "hash": "81e0dc7d0c015f0cdfb75bb2fb20561dfa7a6c49b27a9ed7f438af8dd3b34dd3",
      "version": 1,
      "size": 135,
      "vsize": 135,
      "weight": 540,
      "locktime": 0,
      "vin": [
        {
          "coinbase": "04ffff001d028705",
          "sequence": 4294967295
        }
      ],
      "vout": [
        {
          "value": 50.0,
          "n": 0,
          "scriptPubKey": {
            "asm": "0471eacfd4446cd9925bcc79d3eed0d03b612b15c7cdcca90852c0116aa976e37a105586fff1a47abe50847ad80c72c2e18d4c55b2bc2810a15e88e455091b4184 OP_CHECKSIG",
            "desc": "pk(0471eacfd4446cd9925bcc79d3eed0d03b612b15c7cdcca90852c0116aa976e37a105586fff1a47abe50847ad80c72c2e18d4c55b2bc2810a15e88e455091b4184)#gchlmvdp",
            "hex": "410471eacfd4446cd9925bcc79d3eed0d03b612b15c7cdcca90852c0116aa976e37a105586fff1a47abe50847ad80c72c2e18d4c55b2bc2810a15e88e455091b4184ac",
            "type": "pubkey"
          }
        }
      ],
      "hex": "01000000010000000000000000000000000000000000000000000000000000000000000000ffffffff0804ffff001d028705ffffffff0100f2052a0100000043410471eacfd4446cd9925bcc79d3eed0d03b612b15c7cdcca90852c0116aa976e37a105586fff1a47abe50847ad80c72c2e18d4c55b2bc2810a15e88e455091b4184ac00000000"
    }
  ]
}