{
  "hash": "000000003b3b42e8af3178e581f468b6d83e5acd419b00656d3d5c22b82ff29c",
  "confirmations": 52526,
  "height": 572,
  "version": 1,
  "versionHex": "00000001",
  "merkleroot": "468c9b63d34b1d662715b47644cb24c04964ed27620bbf284b0fbbf95077b7eb",
  "time": 1232018217,
  "mediantime": 1232014906,
  "nonce": 169822514,
  "bits": "1d00ffff",
  "difficulty": 1,
  "chainwork": "0000000000000000000000000000000000000000000000000000023d023d023d",
  "nTx": 1,
  "previousblockhash": "00000000bf86d3a09a14d502d171947a7408c3779e83b78c100e5ed57fca3be0",
  "nextblockhash": "000000004f2c63cf028a37e7fc793a47ace7c27d44aac2a82fd9d90dbfc1750d",
  "strippedsize": 216,
  "size": 216,
  "weight": 864,
  "tx": [
    {
      "txid": "468c9b63d34b1d662715b47644cb24c04964ed27620bbf284b0fbbf95077b7eb",
      "hash": "468c9b63d34b1d662715b47644cb24c04964ed27620bbf284b0fbbf95077b7eb",
      "version": 1,
      "size": 135,
      "vsize": 135,
      "weight": 540,
      "locktime": 0,
      "vin": [
        {
          "coinbase": "04ffff001d021006",
          "sequence": 4294967295
        }
      ],
      "vout": [
        {
          "value": 50.0,
          "n": 0,
          "scriptPubKey": {
            "asm": "04be5530097d28d2c6e8337c8681aea47456bfacf9538fa960b61d4c51ab2b9fa7d6ba316e6ed390e24bf194c3a33ac302ff680761d8ffc574c830f52778890dfc OP_CHECKSIG",
            "desc": "pk(04be5530097d28d2c6e8337c8681aea47456bfacf9538fa960b61d4c51ab2b9fa7d6ba316e6ed390e24bf194c3a33ac302ff680761d8ffc574c830f52778890dfc)#qxe02k8t",
            "hex": "4104be5530097d28d2c6e8337c8681aea47456bfacf9538fa960b61d4c51ab2b9fa7d6ba316e6ed390e24bf194c3a33ac302ff680761d8ffc574c830f52778890dfcac",
            "type": "pubkey"
          }
        }
      ],
      "hex": "01000000010000000000000000000000000000000000000000000000000000000000000000ffffffff0804ffff001d021006ffffffff0100f2052a01000000434104be5530097d28d2c6e8337c8681aea47456bfacf9538fa960b61d4c51ab2b9fa7d6ba316e6ed390e24bf194c3a33ac302ff680761d8ffc574c830f52778890dfcac00000000"
    }
  ]
}