{
  "hash": "000000008a6086520151f1385c6f5a148572b0c36156d713b48e6e5b6330529b",
  "confirmations": 52023,
  "height": 121,
  "version": 1,
  "versionHex": "00000001",
  "merkleroot": "38d907cc08db97a47c2a6e789daeaf6343fa107c5e03297a8bb709373ac17eff",
  "time": 1231676281,
  "mediantime": 1231672548,
  "nonce": 187514400,
  "bits": "1d00ffff",
  "difficulty": 1,
  "chainwork": "0000000000000000000000000000000000000000000000000000007a007a007a",
  "nTx": 1,
  "previousblockhash": "0000000068e1ce37e6d50d1e960255c00047d9c808146b77df2dc186ab1bc92a",
  "nextblockhash": "000000008d98d186565441057e87cc03251b95b9042956c9fb11325e2d4a847a",
  "strippedsize": 216,
  "size": 216,
  "weight": 864,
  "tx": [
    {
      "txid": "38d907cc08db97a47c2a6e789daeaf6343fa107c5e03297a8bb709373ac17eff",
      "hash": "38d907cc08db97a47c2a6e789daeaf6343fa107c5e03297a8bb709373ac17eff",
      "version": 1,
      "size": 135,
      "vsize": 135,
      "weight": 540,
      "locktime": 0,
      "vin": [
        {
          "coinbase": "04ffff001d02d100",
          "sequence": 4294967295
        }
      ],
      "vout": [
        {
          "value": 50.0,
          "n": 0,
          "scriptPubKey": {
            "asm": "04a1cf0c83c93ca840f97db5ceb2302c494afc81c75cb29ea1b42c8f7d6b94d8dbbc3f20521999f8d90ad0c83231fe6e9bfd4e6e1c88396ebeeb5260c467651e4f OP_CHECKSIG",
            "desc": "pk(04a1cf0c83c93ca840f97db5ceb2302c494afc81c75cb29ea1b42c8f7d6b94d8dbbc3f20521999f8d90ad0c83231fe6e9bfd4e6e1c88396ebeeb5260c467651e4f)#n4lk9uxc",
            "hex": "4104a1cf0c83c93ca840f97db5ceb2302c494afc81c75cb29ea1b42c8f7d6b94d8dbbc3f20521999f8d90ad0c83231fe6e9bfd4e6e1c88396ebeeb5260c467651e4fac",
            "type": "pubkey"
          }
        }
      ],
      "hex": "01000000010000000000000000000000000000000000000000000000000000000000000000ffffffff0804ffff001d02d100ffffffff0100f2052a01000000434104a1cf0c83c93ca840f97db5ceb2302c494afc81c75cb29ea1b42c8f7d6b94d8dbbc3f20521999f8d90ad0c83231fe6e9bfd4e6e1c88396ebeeb5260c467651e4fac00000000"
    }
  ]
}