{
  "hash": "00000000b5c41fc778883bb00fe535d3510d8c01209e1201151d819795740b0e",
  "confirmations": 52302,
  "height": 796,
  "version": 1,
  "versionHex": "00000001",
  "merkleroot": "657503bcf2bafc423cf2c3d2aec559e98cacedcbe0427460e6f5b4d1e3b02cf1",
  "time": 1232189223,
  "mediantime": 1232183635,
  "nonce": 1735180061,
  "bits": "1d00ffff",
  "difficulty": 1,
  "chainwork": "0000000000000000000000000000000000000000000000000000031d031d031d",
  "nTx": 1,
  "previousblockhash": "00000000c8e6d6e1e61e22c780e255ffb21b420fc82f6b4d10a16bcd7710fc89",
  "nextblockhash": "00000000b0a235f2c0d786b99d2419dfd4461838842dddb1b7c9025592983fea",
  "strippedsize": 216,
  "size": 216,
  "weight": 864,
  "tx": [
    {
      "txid": "657503bcf2bafc423cf2c3d2aec559e98cacedcbe0427460e6f5b4d1e3b02cf1",
      "hash": "657503bcf2bafc423cf2c3d2aec559e98cacedcbe0427460e6f5b4d1e3b02cf1",
      "version": 1,
      "size": 135,
      "vsize": 135,
      "weight": 540,
      "locktime": 0,
      "vin": [
        {
          "coinbase": "04ffff001d026f01",
          "sequence": 4294967295
        }
      ],
      "vout": [
        {
          "value": 50.0,
          "n": 0,
          "scriptPubKey": {
            "asm": "0496b262bce28c705bacc756a9c7aeaae8cda87d0e6a4a854f979845e4379dbd4b29f397a292ddb9481aaeb1d544437a6545e316156c32c5836fbf6fa798c3e555 OP_CHECKSIG",
            "desc": "pk(0496b262bce28c705bacc756a9c7aeaae8cda87d0e6a4a854f979845e4379dbd4b29f397a292ddb9481aaeb1d544437a6545e316156c32c5836fbf6fa798c3e555)#vn5cpy90",
            "hex": "410496b262bce28c705bacc756a9c7aeaae8cda87d0e6a4a854f979845e4379dbd4b29f397a292ddb9481aaeb1d544437a6545e316156c32c5836fbf6fa798c3e555ac",
            "type": "pubkey"
          }
        }
      ],
      "hex": "01000000010000000000000000000000000000000000000000000000000000000000000000ffffffff0804ffff001d026f01ffffffff0100f2052a0100000043410496b262bce28c705bacc756a9c7aeaae8cda87d0e6a4a854f979845e4379dbd4b29f397a292ddb9481aaeb1d544437a6545e316156c32c5836fbf6fa798c3e555ac00000000"
    }
  ]
}