{
  "hash": "00000000813a8b18394a8b96d47f53c9e417107aaab692a408659a881e3c1f4d",
  "confirmations": 49816,
  "height": 3282,
  "version": 1,
  "versionHex": "00000001",
  "merkleroot": "fba58c5459a5d997c3b4138b11bc746ba34be7add893a55c52e58aed94365915",
  "time": 1233956776,
  "mediantime": 1233953938,
  "nonce": 2601860663,
  "bits": "1d00ffff",
  "difficulty": 1,
  "chainwork": "00000000000000000000000000000000000000000000000000000cd30cd30cd3",
  "nTx": 1,
  "previousblockhash": "000000001a3871d7fc9627c500469389400d085796595d1f53829742e19ab1b8",
  "nextblockhash": "000000008cd94d166f06496bd1b706ac2ee225cad04386fac39f7ee8d66f79b8",
  "strippedsize": 216,
  "size": 216,
  "weight": 864,
  "tx": [
    {
      "txid": "fba58c5459a5d997c3b4138b11bc746ba34be7add893a55c52e58aed94365915",
      "hash": "fba58c5459a5d997c3b4138b11bc746ba34be7add893a55c52e58aed94365915",
      "version": 1,
      "size": 135,
      "vsize": 135,
      "weight": 540,
      "locktime": 0,
      "vin": [
        {
          "coinbase": "04ffff001d02f603",
          "sequence": 4294967295
        }
      ],
      "vout": [
        {
          "value": 50.0,
          "n": 0,
          "scriptPubKey": {
            "asm": "04c27eb8308476e2bacc739f2779bf16059e96ef96e350a2637ce8938209b75e4cb7d4808a0ef22a1272640e910939eeb477745219da8d9daa4ea80be65d5b9b10 OP_CHECKSIG",
            "desc": "pk(04c27eb8308476e2bacc739f2779bf16059e96ef96e350a2637ce8938209b75e4cb7d4808a0ef22a1272640e910939eeb477745219da8d9daa4ea80be65d5b9b10)#27ncv20q",
            "hex": "4104c27eb8308476e2bacc739f2779bf16059e96ef96e350a2637ce8938209b75e4cb7d4808a0ef22a1272640e910939eeb477745219da8d9daa4ea80be65d5b9b10ac",
            "type": "pubkey"
          }
        }
      ],
      "hex": "01000000010000000000000000000000000000000000000000000000000000000000000000ffffffff0804ffff001d02f603ffffffff0100f2052a01000000434104c27eb8308476e2bacc739f2779bf16059e96ef96e350a2637ce8938209b75e4cb7d4808a0ef22a1272640e910939eeb477745219da8d9daa4ea80be65d5b9b10ac00000000"
    }
  ]
}