{
  "hash": "000000005fb2e00bae94eaa99f1715fd433f96dbb6714ce06f4b36250e898905",
  "confirmations": 46539,
  "height": 6559,
  "version": 1,
  "versionHex": "00000001",
  "merkleroot": "5f1d4b2b2e5b0acc39dfa929b01ee99f8c9d978f4353a05354c1bc364358157b",
  "time": 1236372952,
  "mediantime": 1236367666,
  "nonce": 2237158683,
  "bits": "1d00ffff",
  "difficulty": 1,
  "chainwork": "000000000000000000000000000000000000000000000000000019a019a019a0",
  "nTx": 1,
  "previousblockhash": "00000000a66d01b8f6ad9769ce667488815102c78e056bfc94ae431109933631",
  "nextblockhash": "000000008c20691cd9b2c56bc110a3d9a431cbd08ce60bb63958f779e5ab081c",
  "strippedsize": 216,
  "size": 216,
  "weight": 864,
  "tx": [
    {
      "txid": "5f1d4b2b2e5b0acc39dfa929b01ee99f8c9d978f4353a05354c1bc364358157b",
      "hash": "5f1d4b2b2e5b0acc39dfa929b01ee99f8c9d978f4353a05354c1bc364358157b",
      "version": 1,
      "size": 135,
      "vsize": 135,
      "weight": 540,
      "locktime": 0,
      "vin": [
        {
          "coinbase": "04ffff001d028704",
          "sequence": 4294967295
        }
      ],
      "vout": [
        {
          "value": 50.0,
          "n": 0,
          "scriptPubKey": {
            "asm": "045bd26bc2baa016f3f69c76cd3f6451b16da68bdcedeee067c09f2a7d071bd01472926130706b31f6d06856f8bb327bc41630c62ce3acae85179504e6657dc337 OP_CHECKSIG",
            "desc": "pk(045bd26bc2baa016f3f69c76cd3f6451b16da68bdcedeee067c09f2a7d071bd01472926130706b31f6d06856f8bb327bc41630c62ce3acae85179504e6657dc337)#sq25cwue",
            "hex": "41045bd26bc2baa016f3f69c76cd3f6451b16da68bdcedeee067c09f2a7d071bd01472926130706b31f6d06856f8bb327bc41630c62ce3acae85179504e6657dc337ac",
            "type": "pubkey"
          }
        }
      ],
      "hex": "01000000010000000000000000000000000000000000000000000000000000000000000000ffffffff0804ffff001d028704ffffffff0100f2052a010000004341045bd26bc2baa016f3f69c76cd3f6451b16da68bdcedeee067c09f2a7d071bd01472926130706b31f6d06856f8bb327bc41630c62ce3acae85179504e6657dc337ac00000000"
    }
  ]
}