{
  "hash": "00000000c3882d892a7c8a51e4069b096a645c82dabe7f48c8275faa5f369a2f",
  "confirmations": 45857,
  "height": 7241,
  "version": 1,
  "versionHex": "00000001",
  "merkleroot": "37a51ed1a5842789a694cf349237b6572a4d42f97f02629f312f0797e3ca3a3a",
  "time": 1236899061,
  "mediantime": 1236895836,
  "nonce": 146785131,
  "bits": "1d00ffff",
  "difficulty": 1,
  "chainwork": "00000000000000000000000000000000000000000000000000001c4a1c4a1c4a",
  "nTx": 1,
  "previousblockhash": "00000000cf99e30fc5ddc4854d4f51bbf8091fa774a28d80c48e70a3bf4c4854",
  "nextblockhash": "000000000cce01e2809bc75a5e5ab1cd7ffe29b096e39ccdd6dc413009f90cdd",
  "strippedsize": 216,
  "size": 216,
  "weight": 864,
  "tx": [
    {
      "txid": "37a51ed1a5842789a694cf349237b6572a4d42f97f02629f312f0797e3ca3a3a",
      "hash": "37a51ed1a5842789a694cf349237b6572a4d42f97f02629f312f0797e3ca3a3a",
      "version": 1,
      "size": 135,
      "vsize": 135,
      "weight": 540,
      "locktime": 0,
      "vin": [
        {
          "coinbase": "04ffff001d029200",
          "sequence": 4294967295
        }
      ],
      "vout": [
        {
          "value": 50.0,
          "n": 0,
          "scriptPubKey": {
            "asm": "042acff16784da0b64467d9d7bbf7dcaf8b4e48c0717a5cd9f6b2cd0458992ba05ac3c70687924faefff93cdd23c464daff59cbef16143f763d4a59367e1a99f0d OP_CHECKSIG",
            "desc": "pk(042acff16784da0b64467d9d7bbf7dcaf8b4e48c0717a5cd9f6b2cd0458992ba05ac3c70687924faefff93cdd23c464daff59cbef16143f763d4a59367e1a99f0d)#yzslugm5",
            "hex": "41042acff16784da0b64467d9d7bbf7dcaf8b4e48c0717a5cd9f6b2cd0458992ba05ac3c70687924faefff93cdd23c464daff59cbef16143f763d4a59367e1a99f0dac",
            "type": "pubkey"
          }
        }
      ],
      "hex": "01000000010000000000000000000000000000000000000000000000000000000000000000ffffffff0804ffff001d029200ffffffff0100f2052a010000004341042acff16784da0b64467d9d7bbf7dcaf8b4e48c0717a5cd9f6b2cd0458992ba05ac3c70687924faefff93cdd23c464daff59cbef16143f763d4a59367e1a99f0dac00000000"
    }
  ]
}