{
  "hash": "000000006a88eef081b653d0bc7cbc7296c7bcf0bf60c0c92586fd4d6a0c9fae",
  "confirmations": 51299,
  "height": 1799,
  "version": 1,
  "versionHex": "00000001",
  "merkleroot": "de2b05d03485778ea6eb28c5e4b3b93d90d8ae64e2c5c5432ae24b0933f7acfe",
  "time": 1232898124,
  "mediantime": 1232894821,
  "nonce": 1756727316,
  "bits": "1d00ffff",
  "difficulty": 1,
  "chainwork": "0000000000000000000000000000000000000000000000000000070807080708",
  "nTx": 1,
  "previousblockhash": "0000000040d9e6d28ab52d7998b4cf33ab98e149a9ee0c07caea1b74bafd0f51",
  "nextblockhash": "00000000046d4e2de13c9a31dec05fafcae393ae7de773242abd4db47e9e747f",
  "strippedsize": 216,
  "size": 216,
  "weight": 864,
  "tx": [
    {
      "txid": "de2b05d03485778ea6eb28c5e4b3b93d90d8ae64e2c5c5432ae24b0933f7acfe",
      "hash": "de2b05d03485778ea6eb28c5e4b3b93d90d8ae64e2c5c5432ae24b0933f7acfe",
      "version": 1,
      "size": 135,
      "vsize": 135,
      "weight": 540,
      "locktime": 0,
      "vin": [
        {
          "coinbase": "04ffff001d021e04",
          "sequence": 4294967295
        }
      ],
      "vout": [
        {
          "value": 50.0,
          "n": 0,
          "scriptPubKey": {
            "asm": "049bfa50658b24462af9d24ad6e1ad7da51097c26d2cb868ed4f5f84e74d3561a100f990412aeb82f167d672da21aab6ca8e059e3e0af8dd4b29b741bc6a689342 OP_CHECKSIG",
            "desc": "pk(049bfa50658b24462af9d24ad6e1ad7da51097c26d2cb868ed4f5f84e74d3561a100f990412aeb82f167d672da21aab6ca8e059e3e0af8dd4b29b741bc6a689342)#0wazjc4c",
            "hex": "41049bfa50658b24462af9d24ad6e1ad7da51097c26d2cb868ed4f5f84e74d3561a100f990412aeb82f167d672da21aab6ca8e059e3e0af8dd4b29b741bc6a689342ac",
            "type": "pubkey"
          }
        }
      ],
      "hex": "01000000010000000000000000000000000000000000000000000000000000000000000000ffffffff0804ffff001d021e04ffffffff0100f2052a010000004341049bfa50658b24462af9d24ad6e1ad7da51097c26d2cb868ed4f5f84e74d3561a100f990412aeb82f167d672da21aab6ca8e059e3e0af8dd4b29b741bc6a689342ac00000000"
    }
  ]
}