{
  "hash": "000000006c17d8ff3e602f1544339b37490d1d658468cf99216436af13eea908",
  "confirmations": 46586,
  "height": 6512,
  "version": 1,
  "versionHex": "00000001",
  "merkleroot": "12d819c251a2633dcdd1a407df172208c54f6808c9a30ae3f39f958c17ddd2ee",
  "time": 1236338152,
  "mediantime": 1236335301,
  "nonce": 1281146907,
  "bits": "1d00ffff",
  "difficulty": 1,
  "chainwork": "0000000000000000000000000000000000000000000000000000197119711971",
  "nTx": 1,
  "previousblockhash": "0000000029abd0a9498f84ced03dce2f0e51638520e486d0d2b027a3470750a4",
  "nextblockhash": "0000000028f36f4bf7c436d910645af2ab889ce59e00047917dcd0ff12c895d0",
  "strippedsize": 216,
  "size": 216,
  "weight": 864,
  "tx": [
    {
      "txid": "12d819c251a2633dcdd1a407df172208c54f6808c9a30ae3f39f958c17ddd2ee",
      "hash": "12d819c251a2633dcdd1a407df172208c54f6808c9a30ae3f39f958c17ddd2ee",
      "version": 1,
      "size": 135,
      "vsize": 135,
      "weight": 540,
      "locktime": 0,
      "vin": [
        {
          "coinbase": "04ffff001d02e603",
          "sequence": 4294967295
        }
      ],
      "vout": [
        {
          "value": 50.0,
          "n": 0,
          "scriptPubKey": {
            "asm": "0450cc62b29852993f1782489e868eb716493a9b59f5ab1b5c98bf5387109ba2084824aa4829d50d1f7a3032e97d926d3eed985c332f9a192f3039bfbb3fae6306 OP_CHECKSIG",
            "desc": "pk(0450cc62b29852993f1782489e868eb716493a9b59f5ab1b5c98bf5387109ba2084824aa4829d50d1f7a3032e97d926d3eed985c332f9a192f3039bfbb3fae6306)#cy8lp8zy",
            "hex": "410450cc62b29852993f1782489e868eb716493a9b59f5ab1b5c98bf5387109ba2084824aa4829d50d1f7a3032e97d926d3eed985c332f9a192f3039bfbb3fae6306ac",
            "type": "pubkey"
          }
        }
      ],
      "hex": "01000000010000000000000000000000000000000000000000000000000000000000000000ffffffff0804ffff001d02e603ffffffff0100f2052a0100000043410450cc62b29852993f1782489e868eb716493a9b59f5ab1b5c98bf5387109ba2084824aa4829d50d1f7a3032e97d926d3eed985c332f9a192f3039bfbb3fae6306ac00000000"
    }
  ]
}