{
  "hash": "000000000494c1e7e3c3b80f24c736542c0a28e24c710d91f9d727fa13dceb21",
  "confirmations": 43762,
  "height": 9336,
  "version": 1,
  "versionHex": "00000001",
  "merkleroot": "1348feded5a143aa33926ecc706d1fc0d2af7fee329f3a9faf297762123f696e",
  "time": 1238501094,
  "mediantime": 1238498682,
  "nonce": 1673761817,
  "bits": "1d00ffff",
  "difficulty": 1,
  "chainwork": "0000000000000000000000000000000000000000000000000000247924792479",
  "nTx": 1,
  "previousblockhash": "00000000cee1ebe5ca4698c8dc203ec6a430eb43f85326273c5934a428861df0",
  "nextblockhash": "00000000cc3b5b188b3e1d413a52c04f392a9276c5529a05af81393073ba530d",
  "strippedsize": 216,
  "size": 216,
  "weight": 864,
  "tx": [
    {
      "txid": "1348feded5a143aa33926ecc706d1fc0d2af7fee329f3a9faf297762123f696e",
      "hash": "1348feded5a143aa33926ecc706d1fc0d2af7fee329f3a9faf297762123f696e",
      "version": 1,
      "size": 135,
      "vsize": 135,
      "weight": 540,
      "locktime": 0,
      "vin": [
        {
          "coinbase": "04ffff001d026e02",
          "sequence": 4294967295
        }
      ],
      "vout": [
        {
          "value": 50.0,
          "n": 0,
          "scriptPubKey": {
            "asm": "046dd93265d055c3e5f4b44b5fe49516745a1c49b4f740e54ba6b7f3f13fede320e997399b3f61e27f9d830aa3edf6e549443ce5d43a3ba113ede4b028cbcebeff OP_CHECKSIG",
            "desc": "pk(046dd93265d055c3e5f4b44b5fe49516745a1c49b4f740e54ba6b7f3f13fede320e997399b3f61e27f9d830aa3edf6e549443ce5d43a3ba113ede4b028cbcebeff)#062urp5r",
            "hex": "41046dd93265d055c3e5f4b44b5fe49516745a1c49b4f740e54ba6b7f3f13fede320e997399b3f61e27f9d830aa3edf6e549443ce5d43a3ba113ede4b028cbcebeffac",
            "type": "pubkey"
          }
        }
      ],
      "hex": "01000000010000000000000000000000000000000000000000000000000000000000000000ffffffff0804ffff001d026e02ffffffff0100f2052a010000004341046dd93265d055c3e5f4b44b5fe49516745a1c49b4f740e54ba6b7f3f13fede320e997399b3f61e27f9d830aa3edf6e549443ce5d43a3ba113ede4b028cbcebeffac00000000"
    }
  ]
}