{
  "hash": "000000004c32116cf9c711a9f3668efc9a486bf656771b97eb6b3c3390dabaa1",
  "confirmations": 46584,
  "height": 6514,
  "version": 1,
  "versionHex": "00000001",
  "merkleroot": "16cb66bfb69817397f9e6c960d6621dd9f911d07b8d9b2ceec359f06bfac596a",
  "time": 1236338568,
  "mediantime": 1236335700,
  "nonce": 2887156794,
  "bits": "1d00ffff",
  "difficulty": 1,
  "chainwork": "0000000000000000000000000000000000000000000000000000197319731973",
  "nTx": 1,
  "previousblockhash": "0000000028f36f4bf7c436d910645af2ab889ce59e00047917dcd0ff12c895d0",
  "nextblockhash": "00000000b00e30759b2921f01ede8c77783d3724d993116f5b7cf731d5c51350",
  "strippedsize": 216,
  "size": 216,
  "weight": 864,
  "tx": [
    {
      "txid": "16cb66bfb69817397f9e6c960d6621dd9f911d07b8d9b2ceec359f06bfac596a",
      "hash": "16cb66bfb69817397f9e6c960d6621dd9f911d07b8d9b2ceec359f06bfac596a",
      "version": 1,
      "size": 135,
      "vsize": 135,
      "weight": 540,
      "locktime": 0,
      "vin": [
        {
          "coinbase": "04ffff001d02e703",
          "sequence": 4294967295
        }
      ],
      "vout": [
        {
          "value": 50.0,
          "n": 0,
          "scriptPubKey": {
            "asm": "0494a9e7d2b636ca136f809a6d4c93d17f7a0f5462acda2b3eb7f237a5c9780e932896126d616974f967ede83d9b2b5efd2f635566257b4fc732ad504c52811b13 OP_CHECKSIG",
            "desc": "pk(0494a9e7d2b636ca136f809a6d4c93d17f7a0f5462acda2b3eb7f237a5c9780e932896126d616974f967ede83d9b2b5efd2f635566257b4fc732ad504c52811b13)#l3tt2s3k",
            "hex": "410494a9e7d2b636ca136f809a6d4c93d17f7a0f5462acda2b3eb7f237a5c9780e932896126d616974f967ede83d9b2b5efd2f635566257b4fc732ad504c52811b13ac",
            "type": "pubkey"
          }
        }
      ],
      "hex": "01000000010000000000000000000000000000000000000000000000000000000000000000ffffffff0804ffff001d02e703ffffffff0100f2052a0100000043410494a9e7d2b636ca136f809a6d4c93d17f7a0f5462acda2b3eb7f237a5c9780e932896126d616974f967ede83d9b2b5efd2f635566257b4fc732ad504c52811b13ac00000000"
    }
  ]
}