{
  "hash": "00000000140e7c8288bfab47c59d714ddb74280c3ba74afac649ebb9ba253252",
  "confirmations": 48013,
  "height": 5085,
  "version": 1,
  "versionHex": "00000001",
  "merkleroot": "5ab317675c8255f72f6aa82bd1b8687ec39749594deb70296ab2f8eabd7ffb02",
  "time": 1235205790,
  "mediantime": 1235201352,
  "nonce": 796444216,
  "bits": "1d00ffff",
  "difficulty": 1,
  "chainwork": "000000000000000000000000000000000000000000000000000013de13de13de",
  "nTx": 1,
  "previousblockhash": "00000000dc2953ccf1233a13f4e139e52bdfb500d53cf65a5f7498ed8161fed1",
  "nextblockhash": "000000006679495ce21cd5962ebdeedca2dd15e76145a1a3182ab282842b0b83",
  "strippedsize": 216,
  "size": 216,
  "weight": 864,
  "tx": [
    {
      "txid": "5ab317675c8255f72f6aa82bd1b8687ec39749594deb70296ab2f8eabd7ffb02",
      "hash": "5ab317675c8255f72f6aa82bd1b8687ec39749594deb70296ab2f8eabd7ffb02",
      "version": 1,
      "size": 135,
      "vsize": 135,
      "weight": 540,
      "locktime": 0,
      "vin": [
        {
          "coinbase": "04ffff001d02a908",
          "sequence": 4294967295
        }
      ],
      "vout": [
        {
          "value": 50.0,
          "n": 0,
          "scriptPubKey": {
            "asm": "04c3c16963d889609b0c673413c4e6316eb2d9942bfa45ffb388fb520682ccdb2e8e631641bee5ae6ea0a50bb98d0b966d3d2e68cf96efd49a6375efadee5889e6 OP_CHECKSIG",
            "desc": "pk(04c3c16963d889609b0c673413c4e6316eb2d9942bfa45ffb388fb520682ccdb2e8e631641bee5ae6ea0a50bb98d0b966d3d2e68cf96efd49a6375efadee5889e6)#l3t3ad68",
            "hex": "4104c3c16963d889609b0c673413c4e6316eb2d9942bfa45ffb388fb520682ccdb2e8e631641bee5ae6ea0a50bb98d0b966d3d2e68cf96efd49a6375efadee5889e6ac",
            "type": "pubkey"
          }
        }
      ],
      "hex": "01000000010000000000000000000000000000000000000000000000000000000000000000ffffffff0804ffff001d02a908ffffffff0100f2052a01000000434104c3c16963d889609b0c673413c4e6316eb2d9942bfa45ffb388fb520682ccdb2e8e631641bee5ae6ea0a50bb98d0b966d3d2e68cf96efd49a6375efadee5889e6ac00000000"
    }
  ]
}