{
  "hash": "000000000e0fc28556eaa69b100b8fc370d458d04d5cdb58e9d014f2c9fc75ac",
  "confirmations": 43532,
  "height": 9566,
  "version": 1,
  "versionHex": "00000001",
  "merkleroot": "d87d2b4981a4adac1755928a253fad081ce9b66e838666c6db256c0f4e1cbe4e",
  "time": 1238678252,
  "mediantime": 1238670713,
  "nonce": 161335496,
  "bits": "1d00ffff",
  "difficulty": 1,
  "chainwork": "0000000000000000000000000000000000000000000000000000255f255f255f",
  "nTx": 1,
  "previousblockhash": "000000007a8f09aeb266c2f4605e13a2b8046ac7346271cf75f7ca70632839a6",
  "nextblockhash": "00000000914e22b7e449f8e5d8b33e3a3c123d9a357439a097ec9720723a52a0",
  "strippedsize": 216,
  "size": 216,
  "weight": 864,
  "tx": [
    {
      "txid": "d87d2b4981a4adac1755928a253fad081ce9b66e838666c6db256c0f4e1cbe4e",
      "hash": "d87d2b4981a4adac1755928a253fad081ce9b66e838666c6db256c0f4e1cbe4e",
      "version": 1,
      "size": 135,
      "vsize": 135,
      "weight": 540,
      "locktime": 0,
      "vin": [
        {
          "coinbase": "04ffff001d024a07",
          "sequence": 4294967295
        }
      ],
      "vout": [
        {
          "value": 50.0,
          "n": 0,
          "scriptPubKey": {
            "asm": "04b63b7be0cf560c9d73a2f8d3f9701ad0fa1765c726479dbd357aded20fa7726aac1ebc21589eefcb7effd65194dfc25072aa7b14e8411b8fdebb40fff7e68759 OP_CHECKSIG",
            "desc": "pk(04b63b7be0cf560c9d73a2f8d3f9701ad0fa1765c726479dbd357aded20fa7726aac1ebc21589eefcb7effd65194dfc25072aa7b14e8411b8fdebb40fff7e68759)#mkgyss0u",
            "hex": "4104b63b7be0cf560c9d73a2f8d3f9701ad0fa1765c726479dbd357aded20fa7726aac1ebc21589eefcb7effd65194dfc25072aa7b14e8411b8fdebb40fff7e68759ac",
            "type": "pubkey"
          }
        }
      ],
      "hex": "01000000010000000000000000000000000000000000000000000000000000000000000000ffffffff0804ffff001d024a07ffffffff0100f2052a01000000434104b63b7be0cf560c9d73a2f8d3f9701ad0fa1765c726479dbd357aded20fa7726aac1ebc21589eefcb7effd65194dfc25072aa7b14e8411b8fdebb40fff7e68759ac00000000"
    }
  ]
}