{
  "hash": "00000000306d8ff2a054d739a88fea4d9fd453508571331ca944099ea77c3b0c",
  "confirmations": 52201,
  "height": 897,
  "version": 1,
  "versionHex": "00000001",
  "merkleroot": "3af22d6c1bfe8633f09307820affcc79cace1a39d9d3c7c5d1d4ff271bc1b63c",
  "time": 1232273473,
  "mediantime": 1232268076,
  "nonce": 3676186654,
  "bits": "1d00ffff",
  "difficulty": 1,
  "chainwork": "0000000000000000000000000000000000000000000000000000038203820382",
  "nTx": 1,
  "previousblockhash": "00000000dabe35441efb615ad072e22ece58326cf0a43b990fc00aab808e8589",
  "nextblockhash": "00000000d7c1cc9c3b971360e854059298ae70a0d1a410a9aad67d49663088e1",
  "strippedsize": 216,
  "size": 216,
  "weight": 864,
  "tx": [
    {
      "txid": "3af22d6c1bfe8633f09307820affcc79cace1a39d9d3c7c5d1d4ff271bc1b63c",
      "hash": "3af22d6c1bfe8633f09307820affcc79cace1a39d9d3c7c5d1d4ff271bc1b63c",
      "version": 1,
      "size": 135,
      "vsize": 135,
      "weight": 540,
      "locktime": 0,
      "vin": [
        {
          "coinbase": "04ffff001d02a203",
          "sequence": 4294967295
        }
      ],
      "vout": [
        {
          "value": 50.0,
          "n": 0,
          "scriptPubKey": {
            "asm": "041f6cb4b69afd49ac3094d38aa707c287298d6b0d04f5e427198e84fb6d18e9462ec3f2ddd88d2948f7898d4aa2db4e410ca792bc9b8f46bbe859a15ee538c4ec OP_CHECKSIG",
            "desc": "pk(041f6cb4b69afd49ac3094d38aa707c287298d6b0d04f5e427198e84fb6d18e9462ec3f2ddd88d2948f7898d4aa2db4e410ca792bc9b8f46bbe859a15ee538c4ec)#m5tlvjr4",
            "hex": "41041f6cb4b69afd49ac3094d38aa707c287298d6b0d04f5e427198e84fb6d18e9462ec3f2ddd88d2948f7898d4aa2db4e410ca792bc9b8f46bbe859a15ee538c4ecac",
            "type": "pubkey"
          }
        }
      ],
      "hex": "01000000010000000000000000000000000000000000000000000000000000000000000000ffffffff0804ffff001d02a203ffffffff0100f2052a010000004341041f6cb4b69afd49ac3094d38aa707c287298d6b0d04f5e427198e84fb6d18e9462ec3f2ddd88d2948f7898d4aa2db4e410ca792bc9b8f46bbe859a15ee538c4ecac00000000"
    }
  ]
}