{
  "hash": "000000002ba5875b0cfb046a7d16da3b3fca7fc4c31935d470db3883c593c98e",
  "confirmations": 52331,
  "height": 767,
  "version": 1,
  "versionHex": "00000001",
  "merkleroot": "a58181beead631b49c6f87569aa3a1cd516f7019eae250213461a801517625f2",
  "time": 1232164279,
  "mediantime": 1232160698,
  "nonce": 6408720,
  "bits": "1d00ffff",
  "difficulty": 1,
  "chainwork": "0000000000000000000000000000000000000000000000000000030003000300",
  "nTx": 1,
  "previousblockhash": "00000000929527c680e5fcab95d915ea5d690d2fee0b6741b8ff34016f0c1acd",
  "nextblockhash": "000000000af8d998f9358c2288930f510664fda475d566bf8fdfb2e1b5076e48",
  "strippedsize": 215,
  "size": 215,
  "weight": 860,
  "tx": [
    {
      "txid": "a58181beead631b49c6f87569aa3a1cd516f7019eae250213461a801517625f2",
      "hash": "a58181beead631b49c6f87569aa3a1cd516f7019eae250213461a801517625f2",
      "version": 1,
      "size": 134,
      "vsize": 134,
      "weight": 536,
      "locktime": 0,
      "vin": [
        {
          "coinbase": "04ffff001d0135",
          "sequence": 4294967295
        }
      ],
      "vout": [
        {
          "value": 50.0,
          "n": 0,
          "scriptPubKey": {
            "asm": "04e08f9173935abbd548d2cb4924c1e74608021dc0663c55e6072318b073bce6bcb8e1abd4ab0104fd9eff87904061f38daba8cbdbfb581a4d1fa864cdda5a7e98 OP_CHECKSIG",
            "desc": "pk(04e08f9173935abbd548d2cb4924c1e74608021dc0663c55e6072318b073bce6bcb8e1abd4ab0104fd9eff87904061f38daba8cbdbfb581a4d1fa864cdda5a7e98)#lzm20na7",
            "hex": "4104e08f9173935abbd548d2cb4924c1e74608021dc0663c55e6072318b073bce6bcb8e1abd4ab0104fd9eff87904061f38daba8cbdbfb581a4d1fa864cdda5a7e98ac",
            "type": "pubkey"
          }
        }
      ],
      "hex": "01000000010000000000000000000000000000000000000000000000000000000000000000ffffffff0704ffff001d0135ffffffff0100f2052a01000000434104e08f9173935abbd548d2cb4924c1e74608021dc0663c55e6072318b073bce6bcb8e1abd4ab0104fd9eff87904061f38daba8cbdbfb581a4d1fa864cdda5a7e98ac00000000"
    }
  ]
}