{
  "hash": "0000000058793892f5c17ee6b8f0b3e19a5f21ff0088571745e424cb4a121082",
  "confirmations": 44163,
  "height": 8935,
  "version": 1,
  "versionHex": "00000001",
  "merkleroot": "28d1a2a38ded3d81e71497e88cb1e814f250ea6d7f293576bcf83821f9401566",
  "time": 1238204491,
  "mediantime": 1238201932,
  "nonce": 40004434,
  "bits": "1d00ffff",
  "difficulty": 1,
  "chainwork": "000000000000000000000000000000000000000000000000000022e822e822e8",
  "nTx": 1,
  "previousblockhash": "00000000b9738a7ee984bd3e48848e1ceb05f685dc78fe664c1f0cab5a106441",
  "nextblockhash": "00000000220d009e9e7ad165566fe1792b470ddbb3a48646ffd857cb109e8f37",
  "strippedsize": 216,
  "size": 216,
  "weight": 864,
  "tx": [
    {
      "txid": "28d1a2a38ded3d81e71497e88cb1e814f250ea6d7f293576bcf83821f9401566",
      "hash": "28d1a2a38ded3d81e71497e88cb1e814f250ea6d7f293576bcf83821f9401566",
      "version": 1,
      "size": 135,
      "vsize": 135,
      "weight": 540,
      "locktime": 0,
      "vin": [
        {
          "coinbase": "04ffff001d02aa03",
          "sequence": 4294967295
        }
      ],
      "vout": [
        {
          "value": 50.0,
          "n": 0,
          "scriptPubKey": {
            "asm": "046b2acb3a141f4ba0a960b971c852bcd4a1cef7c52de0518d36f1384757357bbabe7205764e9fef6ba5037dfa8a46717a4a7e3ceaba1cb366b5b2a206c7174c07 OP_CHECKSIG",
            "desc": "pk(046b2acb3a141f4ba0a960b971c852bcd4a1cef7c52de0518d36f1384757357bbabe7205764e9fef6ba5037dfa8a46717a4a7e3ceaba1cb366b5b2a206c7174c07)#ejgyrtgr",
            "hex": "41046b2acb3a141f4ba0a960b971c852bcd4a1cef7c52de0518d36f1384757357bbabe7205764e9fef6ba5037dfa8a46717a4a7e3ceaba1cb366b5b2a206c7174c07ac",
            "type": "pubkey"
          }
        }
      ],
      "hex": "01000000010000000000000000000000000000000000000000000000000000000000000000ffffffff0804ffff001d02aa03ffffffff0100f2052a010000004341046b2acb3a141f4ba0a960b971c852bcd4a1cef7c52de0518d36f1384757357bbabe7205764e9fef6ba5037dfa8a46717a4a7e3ceaba1cb366b5b2a206c7174c07ac00000000"
    }
  ]
}