{
  "hash": "0000000089be5fa6d7834ec3560612fdb66ad1553d0971858d6ead8985ab88b6",
  "confirmations": 47134,
  "height": 5964,
  "version": 1,
  "versionHex": "00000001",
  "merkleroot": "fa416847940658e1e64e816d59d0abf822c7dc559fecfaf0c9358d9938d0da0a",
  "time": 1235899332,
  "mediantime": 1235895803,
  "nonce": 3365706269,
  "bits": "1d00ffff",
  "difficulty": 1,
  "chainwork": "0000000000000000000000000000000000000000000000000000174d174d174d",
  "nTx": 1,
  "previousblockhash": "00000000907772f1d0fcbbedede3847b42264045c31e723ce050fb0a1d926a35",
  "nextblockhash": "000000003ad30fb5fc04cc7d26be67dca4a51ad5100501a9f14f831294cebddc",
  "strippedsize": 216,
  "size": 216,
  "weight": 864,
  "tx": [
    {
      "txid": "fa416847940658e1e64e816d59d0abf822c7dc559fecfaf0c9358d9938d0da0a",
      "hash": "fa416847940658e1e64e816d59d0abf822c7dc559fecfaf0c9358d9938d0da0a",
      "version": 1,
      "size": 135,
      "vsize": 135,
      "weight": 540,
      "locktime": 0,
      "vin": [
        {
          "coinbase": "04ffff001d024404",
          "sequence": 4294967295
        }
      ],
      "vout": [
        {
          "value": 50.0,
          "n": 0,
          "scriptPubKey": {
            "asm": "04d768c1550887f648032489a953fff553abb212b28dd3bc65d8c7b6f0e346c20aa7ff1d68bdaef1a45f9c34d008aebae794e55ef510aa779160e5761a997612e6 OP_CHECKSIG",
            "desc": "pk(04d768c1550887f648032489a953fff553abb212b28dd3bc65d8c7b6f0e346c20aa7ff1d68bdaef1a45f9c34d008aebae794e55ef510aa779160e5761a997612e6)#04rdgwtz",
            "hex": "4104d768c1550887f648032489a953fff553abb212b28dd3bc65d8c7b6f0e346c20aa7ff1d68bdaef1a45f9c34d008aebae794e55ef510aa779160e5761a997612e6ac",
            "type": "pubkey"
          }
        }
      ],
      "hex": "01000000010000000000000000000000000000000000000000000000000000000000000000ffffffff0804ffff001d024404ffffffff0100f2052a01000000434104d768c1550887f648032489a953fff553abb212b28dd3bc65d8c7b6f0e346c20aa7ff1d68bdaef1a45f9c34d008aebae794e55ef510aa779160e5761a997612e6ac00000000"
    }
  ]
}