{
  "hash": "00000000e19626b41200b870d34a1e565a694ee1f17b351a360356e0dda821b4",
  "confirmations": 50301,
  "height": 2797,
  "version": 1,
  "versionHex": "00000001",
  "merkleroot": "9302cf1d5ab77aab30ce9ab257a08e88eaf64737ea9c0e38c65e21bf18795567",
  "time": 1233627348,
  "mediantime": 1233624139,
  "nonce": 3353687070,
  "bits": "1d00ffff",
  "difficulty": 1,
  "chainwork": "00000000000000000000000000000000000000000000000000000aee0aee0aee",
  "nTx": 1,
  "previousblockhash": "00000000906cef1ee0cca07b30a9db422d481536ca22cc61cbc31fd66da7d3f4",
  "nextblockhash": "00000000bd552e9cb342d1c21836d1e8f7b2ed19452e1abce3fa5b9a57cf4821",
  "strippedsize": 216,
  "size": 216,
  "weight": 864,
  "tx": [
    {
      "txid": "9302cf1d5ab77aab30ce9ab257a08e88eaf64737ea9c0e38c65e21bf18795567",
      "hash": "9302cf1d5ab77aab30ce9ab257a08e88eaf64737ea9c0e38c65e21bf18795567",
      "version": 1,
      "size": 135,
      "vsize": 135,
      "weight": 540,
      "locktime": 0,
      "vin": [
        {
          "coinbase": "04ffff001d021d06",
          "sequence": 4294967295
        }
      ],
      "vout": [
        {
          "value": 50.0,
          "n": 0,
          "scriptPubKey": {
            "asm": "041589c9c75f983c4b39bcb8789ffab3e2ddde7479932be5b053c3ec6cce937a381ffbaf3e754baaaecb6c472d1852990eb01587e6174c7d5cdfbf968981851369 OP_CHECKSIG",
            "desc": "pk(041589c9c75f983c4b39bcb8789ffab3e2ddde7479932be5b053c3ec6cce937a381ffbaf3e754baaaecb6c472d1852990eb01587e6174c7d5cdfbf968981851369)#5x0k3d8z",
            "hex": "41041589c9c75f983c4b39bcb8789ffab3e2ddde7479932be5b053c3ec6cce937a381ffbaf3e754baaaecb6c472d1852990eb01587e6174c7d5cdfbf968981851369ac",
            "type": "pubkey"
          }
        }
      ],
      "hex": "01000000010000000000000000000000000000000000000000000000000000000000000000ffffffff0804ffff001d021d06ffffffff0100f2052a010000004341041589c9c75f983c4b39bcb8789ffab3e2ddde7479932be5b053c3ec6cce937a381ffbaf3e754baaaecb6c472d1852990eb01587e6174c7d5cdfbf968981851369ac00000000"
    }
  ]
}