{
  "hash": "0000000022d4d7a47758faf2674bf884b08cb54400d62d1736978895ca20914f",
  "confirmations": 52202,
  "height": 419,
  "version": 1,
  "versionHex": "00000001",
  "merkleroot": "1744372990897f287c453bbfd79017fc88646e0c4a973093b953b34b731785cc",
  "time": 1231914168,
  "mediantime": 1231912058,
  "nonce": 22447797,
  "bits": "1d00ffff",
  "difficulty": 1,
  "chainwork": "000000000000000000000000000000000000000000000000000001a401a401a4",
  "nTx": 1,
  "previousblockhash": "000000003255163ea0bf1f01d5f559727ae71685d261baca156e2cd3c6e9e0f2",
  "nextblockhash": "000000006a906fbef861f23ce8ff5fae146675508fa5ec64817db5c81be04019",
  "strippedsize": 215,
  "size": 215,
  "weight": 860,
  "tx": [
    {
      "txid": "1744372990897f287c453bbfd79017fc88646e0c4a973093b953b34b731785cc",
      "hash": "1744372990897f287c453bbfd79017fc88646e0c4a973093b953b34b731785cc",
      "version": 1,
      "size": 134,
      "vsize": 134,
      "weight": 536,
      "locktime": 0,
      "vin": [
        {
          "coinbase": "04ffff001d0146",
          "sequence": 4294967295
        }
      ],
      "vout": [
        {
          "value": 50.0,
          "n": 0,
          "scriptPubKey": {
            "asm": "04a46ab1cb0e47d986699596a917bd162603dcdc7cfd19d2192e7c30b4a452705f246a84bc4ae90c3c55c8d546c03fcf9c4ab396b1be3614295f9702ed2381260a OP_CHECKSIG",
            "desc": "pk(04a46ab1cb0e47d986699596a917bd162603dcdc7cfd19d2192e7c30b4a452705f246a84bc4ae90c3c55c8d546c03fcf9c4ab396b1be3614295f9702ed2381260a)#l3ex7puf",
            "hex": "4104a46ab1cb0e47d986699596a917bd162603dcdc7cfd19d2192e7c30b4a452705f246a84bc4ae90c3c55c8d546c03fcf9c4ab396b1be3614295f9702ed2381260aac",
            "type": "pubkey"
          }
        }
      ],
      "hex": "01000000010000000000000000000000000000000000000000000000000000000000000000ffffffff0704ffff001d0146ffffffff0100f2052a01000000434104a46ab1cb0e47d986699596a917bd162603dcdc7cfd19d2192e7c30b4a452705f246a84bc4ae90c3c55c8d546c03fcf9c4ab396b1be3614295f9702ed2381260aac00000000"
    }
  ]
}