{
  "hash": "00000000ca0431fe8b104ae5b137c1881017e0afb16080c194b60391769cd987",
  "confirmations": 45400,
  "height": 7698,
  "version": 1,
  "versionHex": "00000001",
  "merkleroot": "ddbb872ad1b48f07ea2a1b6cff27b455edfc044c86726299d184e905de97e28a",
  "time": 1237237959,
  "mediantime": 1237235380,
  "nonce": 394243369,
  "bits": "1d00ffff",
  "difficulty": 1,
  "chainwork": "00000000000000000000000000000000000000000000000000001e131e131e13",
  "nTx": 1,
  "previousblockhash": "000000001c5df40d83ecddc84084e23c1ddc4b9008ebeb18eb62f7da38355402",
  "nextblockhash": "0000000097753699e6a0f0759ef6de8e47d8b6312aa17988e914786341b09bac",
  "strippedsize": 216,
  "size": 216,
  "weight": 864,
  "tx": [
    {
      "txid": "ddbb872ad1b48f07ea2a1b6cff27b455edfc044c86726299d184e905de97e28a",
      "hash": "ddbb872ad1b48f07ea2a1b6cff27b455edfc044c86726299d184e905de97e28a",
      "version": 1,
      "size": 135,
      "vsize": 135,
      "weight": 540,
      "locktime": 0,
      "vin": [
        {
          "coinbase": "04ffff001d021b04",
          "sequence": 4294967295
        }
      ],
      "vout": [
        {
          "value": 50.0,
          "n": 0,
          "scriptPubKey": {
            "asm": "04985e66424788faa58d5860a6759867d78b1690431c38a4d1c1654b76741133034ee0487ed6c3de16a950cac559b29a4ef5a7ffe25ba0c03794030e3491e467ba OP_CHECKSIG",
            "desc": "pk(04985e66424788faa58d5860a6759867d78b1690431c38a4d1c1654b76741133034ee0487ed6c3de16a950cac559b29a4ef5a7ffe25ba0c03794030e3491e467ba)#r7dahsfy",
            "hex": "4104985e66424788faa58d5860a6759867d78b1690431c38a4d1c1654b76741133034ee0487ed6c3de16a950cac559b29a4ef5a7ffe25ba0c03794030e3491e467baac",
            "type": "pubkey"
          }
        }
      ],
      "hex": "01000000010000000000000000000000000000000000000000000000000000000000000000ffffffff0804ffff001d021b04ffffffff0100f2052a01000000434104985e66424788faa58d5860a6759867d78b1690431c38a4d1c1654b76741133034ee0487ed6c3de16a950cac559b29a4ef5a7ffe25ba0c03794030e3491e467baac00000000"
    }
  ]
}