{
  "hash": "0000000048f553e934ae3a5bb0f69a69454fbe22b2ec2badb6e2e0db3f8e42c9",
  "confirmations": 44946,
  "height": 8152,
  "version": 1,
  "versionHex": "00000001",
  "merkleroot": "418dfab01343712da9c5b75c98af7f02281a6bdc8926417be3e363e4a49086aa",
  "time": 1237574905,
  "mediantime": 1237571092,
  "nonce": 845021185,
  "bits": "1d00ffff",
  "difficulty": 1,
  "chainwork": "00000000000000000000000000000000000000000000000000001fd91fd91fd9",
  "nTx": 1,
  "previousblockhash": "00000000965bb293914b76c04e260e10a7cfcbc8ed5390719b21c5f3ad916285",
  "nextblockhash": "0000000061c197c566170b6a3672d18224c5f2a5579ddb00ca67631947c4b8a2",
  "strippedsize": 216,
  "size": 216,
  "weight": 864,
  "tx": [
    {
      "txid": "418dfab01343712da9c5b75c98af7f02281a6bdc8926417be3e363e4a49086aa",
      "hash": "418dfab01343712da9c5b75c98af7f02281a6bdc8926417be3e363e4a49086aa",
      "version": 1,
      "size": 135,
      "vsize": 135,
      "weight": 540,
      "locktime": 0,
      "vin": [
        {
          "coinbase": "04ffff001d020702",
          "sequence": 4294967295
        }
      ],
      "vout": [
        {
          "value": 50.0,
          "n": 0,
          "scriptPubKey": {
            "asm": "0402eca46e2c2fdcacbf0a3f1d3ae9a966827e1b2aa843df27f1dfafb17feef2f46bf0749e9085fa7880724377517d8798de982e1fabcf76aaa86c2866f4853b08 OP_CHECKSIG",
            "desc": "pk(0402eca46e2c2fdcacbf0a3f1d3ae9a966827e1b2aa843df27f1dfafb17feef2f46bf0749e9085fa7880724377517d8798de982e1fabcf76aaa86c2866f4853b08)#2sv5gkhp",
            "hex": "410402eca46e2c2fdcacbf0a3f1d3ae9a966827e1b2aa843df27f1dfafb17feef2f46bf0749e9085fa7880724377517d8798de982e1fabcf76aaa86c2866f4853b08ac",
            "type": "pubkey"
          }
        }
      ],
      "hex": "01000000010000000000000000000000000000000000000000000000000000000000000000ffffffff0804ffff001d020702ffffffff0100f2052a0100000043410402eca46e2c2fdcacbf0a3f1d3ae9a966827e1b2aa843df27f1dfafb17feef2f46bf0749e9085fa7880724377517d8798de982e1fabcf76aaa86c2866f4853b08ac00000000"
    }
  ]
}