{
  "hash": "00000000120dd526a6846eab1988c60f679c72a11e48f05235d3646829916b7c",
  "confirmations": 51984,
  "height": 1114,
  "version": 1,
  "versionHex": "00000001",
  "merkleroot": "4c29af3a9291947b2ce5588d02c02cfd2e771f4c46d8584ec286b5498e9a3d9a",
  "time": 1232432828,
  "mediantime": 1232428878,
  "nonce": 92233345,
  "bits": "1d00ffff",
  "difficulty": 1,
  "chainwork": "0000000000000000000000000000000000000000000000000000045b045b045b",
  "nTx": 1,
  "previousblockhash": "00000000d1ba8570c7da8d9cb11df7ecaad7b9850a1b72a0eb15eb7c9c0b50d2",
  "nextblockhash": "00000000f00e7ebe4a59d68bb2c1800fb15195797ae781ad467a120f7bb8feaa",
  "strippedsize": 216,
  "size": 216,
  "weight": 864,
  "tx": [
    {
      "txid": "4c29af3a9291947b2ce5588d02c02cfd2e771f4c46d8584ec286b5498e9a3d9a",
      "hash": "4c29af3a9291947b2ce5588d02c02cfd2e771f4c46d8584ec286b5498e9a3d9a",
      "version": 1,
      "size": 135,
      "vsize": 135,
      "weight": 540,
      "locktime": 0,
      "vin": [
        {
          "coinbase": "04ffff001d02ae00",
          "sequence": 4294967295
        }
      ],
      "vout": [
        {
          "value": 50.0,
          "n": 0,
          "scriptPubKey": {
            "asm": "043de2950649c8e9b1a95f26b136717c6241805e7f9f9448b580723b4d9edec376dc3c2d1b72b7144440a5219271b17a3a35e6118641e7929013eadf33d1583814 OP_CHECKSIG",
            "desc": "pk(043de2950649c8e9b1a95f26b136717c6241805e7f9f9448b580723b4d9edec376dc3c2d1b72b7144440a5219271b17a3a35e6118641e7929013eadf33d1583814)#7trlp4yw",
            "hex": "41043de2950649c8e9b1a95f26b136717c6241805e7f9f9448b580723b4d9edec376dc3c2d1b72b7144440a5219271b17a3a35e6118641e7929013eadf33d1583814ac",
            "type": "pubkey"
          }
        }
      ],
      "hex": "01000000010000000000000000000000000000000000000000000000000000000000000000ffffffff0804ffff001d02ae00ffffffff0100f2052a010000004341043de2950649c8e9b1a95f26b136717c6241805e7f9f9448b580723b4d9edec376dc3c2d1b72b7144440a5219271b17a3a35e6118641e7929013eadf33d1583814ac00000000"
    }
  ]
}