{
  "hash": "0000000002a8f6cbc349bfb28cf89c268e11aa9b416c88e0ac7e68a0f99c7935",
  "confirmations": 46370,
  "height": 6728,
  "version": 1,
  "versionHex": "00000001",
  "merkleroot": "30350352890934b6ba27877799c1b6bb3bd72e67e9fa4a8265d2254accd44148",
  "time": 1236502041,
  "mediantime": 1236499069,
  "nonce": 73746818,
  "bits": "1d00ffff",
  "difficulty": 1,
  "chainwork": "00000000000000000000000000000000000000000000000000001a491a491a49",
  "nTx": 1,
  "previousblockhash": "000000004113dec6af7d43d56b0acf07f230b8fa2d10ea9b8d3fd3209a7bbf30",
  "nextblockhash": "0000000062647806b0de1da5f10db997519766bad88687d5d5cea30131dc96cc",
  "strippedsize": 215,
  "size": 215,
  "weight": 860,
  "tx": [
    {
      "txid": "30350352890934b6ba27877799c1b6bb3bd72e67e9fa4a8265d2254accd44148",
      "hash": "30350352890934b6ba27877799c1b6bb3bd72e67e9fa4a8265d2254accd44148",
      "version": 1,
      "size": 134,
      "vsize": 134,
      "weight": 536,
      "locktime": 0,
      "vin": [
        {
          "coinbase": "04ffff001d010c",
          "sequence": 4294967295
        }
      ],
      "vout": [
        {
          "value": 50.0,
          "n": 0,
          "scriptPubKey": {
            "asm": "041c8d84b7abae88e124d4b1239205adf10e104911ba44eda2450ac79be09c6d206a320844d09c105fca478d4f3fb9daa47612e9cc76bb4b7528ec67daf68031bd OP_CHECKSIG",
            "desc": "pk(041c8d84b7abae88e124d4b1239205adf10e104911ba44eda2450ac79be09c6d206a320844d09c105fca478d4f3fb9daa47612e9cc76bb4b7528ec67daf68031bd)#k8mjmhuf",
            "hex": "41041c8d84b7abae88e124d4b1239205adf10e104911ba44eda2450ac79be09c6d206a320844d09c105fca478d4f3fb9daa47612e9cc76bb4b7528ec67daf68031bdac",
            "type": "pubkey"
          }
        }
      ],
      "hex": "01000000010000000000000000000000000000000000000000000000000000000000000000ffffffff0704ffff001d010cffffffff0100f2052a010000004341041c8d84b7abae88e124d4b1239205adf10e104911ba44eda2450ac79be09c6d206a320844d09c105fca478d4f3fb9daa47612e9cc76bb4b7528ec67daf68031bdac00000000"
    }
  ]
}