{
  "hash": "00000000f3e1af7b75e770702c79b4b97d387514ada60e40098dcb07d325dc39",
  "confirmations": 45715,
  "height": 7383,
  "version": 1,
  "versionHex": "00000001",
  "merkleroot": "8fe25742fa271975f787ef73cd528177d51413f0a97561711dc680ce470b31fa",
  "time": 1237007580,
  "mediantime": 1237004832,
  "nonce": 3328792609,
  "bits": "1d00ffff",
  "difficulty": 1,
  "chainwork": "00000000000000000000000000000000000000000000000000001cd81cd81cd8",
  "nTx": 1,
  "previousblockhash": "000000000365926090128ede2367cb581efdb5130b957891e8c572fc210c839c",
  "nextblockhash": "00000000912b29d6a5005ee6106d9ee0328539b172edb7d4d1390316c6541a66",
  "strippedsize": 216,
  "size": 216,
  "weight": 864,
  "tx": [
    {
      "txid": "8fe25742fa271975f787ef73cd528177d51413f0a97561711dc680ce470b31fa",
      "hash": "8fe25742fa271975f787ef73cd528177d51413f0a97561711dc680ce470b31fa",
      "version": 1,
      "size": 135,
      "vsize": 135,
      "weight": 540,
      "locktime": 0,
      "vin": [
        {
          "coinbase": "04ffff001d020c09",
          "sequence": 4294967295
        }
      ],
      "vout": [
        {
          "value": 50.0,
          "n": 0,
          "scriptPubKey": {
            "asm": "048d54eb44b49940dc8aa339b7c1e496dea2adc083cc7c0a50c00ebc537ecf06e7e56608ad5a7a7e2db3efca7284c260baea86e281fd200d532b9bc0bbcf99d27d OP_CHECKSIG",
            "desc": "pk(048d54eb44b49940dc8aa339b7c1e496dea2adc083cc7c0a50c00ebc537ecf06e7e56608ad5a7a7e2db3efca7284c260baea86e281fd200d532b9bc0bbcf99d27d)#4jggphth",
            "hex": "41048d54eb44b49940dc8aa339b7c1e496dea2adc083cc7c0a50c00ebc537ecf06e7e56608ad5a7a7e2db3efca7284c260baea86e281fd200d532b9bc0bbcf99d27dac",
            "type": "pubkey"
          }
        }
      ],
      "hex": "01000000010000000000000000000000000000000000000000000000000000000000000000ffffffff0804ffff001d020c09ffffffff0100f2052a010000004341048d54eb44b49940dc8aa339b7c1e496dea2adc083cc7c0a50c00ebc537ecf06e7e56608ad5a7a7e2db3efca7284c260baea86e281fd200d532b9bc0bbcf99d27dac00000000"
    }
  ]
}