{
  "hash": "00000000a4d4a5a85d5944b8f4de6a7efaefb5a056ee0997d587c19493062d6d",
  "confirmations": 47427,
  "height": 5671,
  "version": 1,
  "versionHex": "00000001",
  "merkleroot": "0d83e0e0cfd82f5110c4ddcc0de97d9ff566c172d919e224e5490ba2df3eacd0",
  "time": 1235666810,
  "mediantime": 1235662817,
  "nonce": 3858929201,
  "bits": "1d00ffff",
  "difficulty": 1,
  "chainwork": "0000000000000000000000000000000000000000000000000000162816281628",
  "nTx": 1,
  "previousblockhash": "00000000ef78b3d4894522830144ea85a6e3dad7caccbda7a118e51eb8115cbc",
  "nextblockhash": "000000005dd2b40fd79157d74961daf6583ab3189b51d26d316af208cb61c358",
  "strippedsize": 216,
  "size": 216,
  "weight": 864,
  "tx": [
    {
      "txid": "0d83e0e0cfd82f5110c4ddcc0de97d9ff566c172d919e224e5490ba2df3eacd0",
      "hash": "0d83e0e0cfd82f5110c4ddcc0de97d9ff566c172d919e224e5490ba2df3eacd0",
      "version": 1,
      "size": 135,
      "vsize": 135,
      "weight": 540,
      "locktime": 0,
      "vin": [
        {
          "coinbase": "04ffff001d02f408",
          "sequence": 4294967295
        }
      ],
      "vout": [
        {
          "value": 50.0,
          "n": 0,
          "scriptPubKey": {
            "asm": "04569ebd0d7711d95c7670ac8d92005bf228f25a45583f6edd34704096c9c956aa77d471a4a999edf64e0045b486b875d5ef66ed2d71c11e3539f8051a27ae4a04 OP_CHECKSIG",
            "desc": "pk(04569ebd0d7711d95c7670ac8d92005bf228f25a45583f6edd34704096c9c956aa77d471a4a999edf64e0045b486b875d5ef66ed2d71c11e3539f8051a27ae4a04)#6y9vngz9",
            "hex": "4104569ebd0d7711d95c7670ac8d92005bf228f25a45583f6edd34704096c9c956aa77d471a4a999edf64e0045b486b875d5ef66ed2d71c11e3539f8051a27ae4a04ac",
            "type": "pubkey"
          }
        }
      ],
      "hex": "01000000010000000000000000000000000000000000000000000000000000000000000000ffffffff0804ffff001d02f408ffffffff0100f2052a01000000434104569ebd0d7711d95c7670ac8d92005bf228f25a45583f6edd34704096c9c956aa77d471a4a999edf64e0045b486b875d5ef66ed2d71c11e3539f8051a27ae4a04ac00000000"
    }
  ]
}