{
  "hash": "00000000af67e0ab8b6f8beecb9172f632a037d5c5701af697392dbe9471ed37",
  "confirmations": 51860,
  "height": 1238,
  "version": 1,
  "versionHex": "00000001",
  "merkleroot": "01591c221665e97a70aac828127d1abfb647ae44584eee31f146b4b1ea783857",
  "time": 1232530568,
  "mediantime": 1232526312,
  "nonce": 2004439857,
  "bits": "1d00ffff",
  "difficulty": 1,
  "chainwork": "000000000000000000000000000000000000000000000000000004d704d704d7",
  "nTx": 1,
  "previousblockhash": "00000000ce532079f1135377e7b1b4e7f1ae60f793ff5427e8b2510af911b391",
  "nextblockhash": "000000002cdcd68510d38863a1eb80c73edf9a181ab838037bccab1d64cc910e",
  "strippedsize": 216,
  "size": 216,
  "weight": 864,
  "tx": [
    {
      "txid": "01591c221665e97a70aac828127d1abfb647ae44584eee31f146b4b1ea783857",
      "hash": "01591c221665e97a70aac828127d1abfb647ae44584eee31f146b4b1ea783857",
      "version": 1,
      "size": 135,
      "vsize": 135,
      "weight": 540,
      "locktime": 0,
      "vin": [
        {
          "coinbase": "04ffff001d023409",
          "sequence": 4294967295
        }
      ],
      "vout": [
        {
          "value": 50.0,
          "n": 0,
          "scriptPubKey": {
            "asm": "048fba74e3ad75146815f15288f627066c78920653904526fe4a3ae831fccd2b3ea6d73097592f3624e35071ee07e63f0ee6dddbb87ba0e9d0e55e231a66b5f51e OP_CHECKSIG",
            "desc": "pk(048fba74e3ad75146815f15288f627066c78920653904526fe4a3ae831fccd2b3ea6d73097592f3624e35071ee07e63f0ee6dddbb87ba0e9d0e55e231a66b5f51e)#ssvjm783",
            "hex": "41048fba74e3ad75146815f15288f627066c78920653904526fe4a3ae831fccd2b3ea6d73097592f3624e35071ee07e63f0ee6dddbb87ba0e9d0e55e231a66b5f51eac",
            "type": "pubkey"
          }
        }
      ],
      "hex": "01000000010000000000000000000000000000000000000000000000000000000000000000ffffffff0804ffff001d023409ffffffff0100f2052a010000004341048fba74e3ad75146815f15288f627066c78920653904526fe4a3ae831fccd2b3ea6d73097592f3624e35071ee07e63f0ee6dddbb87ba0e9d0e55e231a66b5f51eac00000000"
    }
  ]
}