{
  "hash": "0000000090de150fe67307110a94c86da095c90865796ef67e999e3a5db03d16",
  "confirmations": 43667,
  "height": 9431,
  "version": 1,
  "versionHex": "00000001",
  "merkleroot": "7a4a12868c6d22a8579e9f8a114a6c8fcd032c2fddbe164b6df51ae69a885ad2",
  "time": 1238577476,
  "mediantime": 1238572623,
  "nonce": 1138947381,
  "bits": "1d00ffff",
  "difficulty": 1,
  "chainwork": "000000000000000000000000000000000000000000000000000024d824d824d8",
  "nTx": 1,
  "previousblockhash": "00000000ad75826c1a36cc0d59fe45d68709022d21dbdb1626f37fe9673b404d",
  "nextblockhash": "00000000c1e525e9cb701a232bcbffd1d55e168e81b39cb6339ba6174bfec08e",
  "strippedsize": 216,
  "size": 216,
  "weight": 864,
  "tx": [
    {
      "txid": "7a4a12868c6d22a8579e9f8a114a6c8fcd032c2fddbe164b6df51ae69a885ad2",
      "hash": "7a4a12868c6d22a8579e9f8a114a6c8fcd032c2fddbe164b6df51ae69a885ad2",
      "version": 1,
      "size": 135,
      "vsize": 135,
      "weight": 540,
      "locktime": 0,
      "vin": [
        {
          "coinbase": "04ffff001d022d04",
          "sequence": 4294967295
        }
      ],
      "vout": [
        {
          "value": 50.0,
          "n": 0,
          "scriptPubKey": {
            "asm": "04b6b827a0d17aea20ffb52488750660ec7c00b1748cc005b1917f9e70c552fb1df661dc3a71f458f64d80d94f762c40c63e51f7294ef6c83088ed1d39990d695b OP_CHECKSIG",
            "desc": "pk(04b6b827a0d17aea20ffb52488750660ec7c00b1748cc005b1917f9e70c552fb1df661dc3a71f458f64d80d94f762c40c63e51f7294ef6c83088ed1d39990d695b)#ymd7rhjc",
            "hex": "4104b6b827a0d17aea20ffb52488750660ec7c00b1748cc005b1917f9e70c552fb1df661dc3a71f458f64d80d94f762c40c63e51f7294ef6c83088ed1d39990d695bac",
            "type": "pubkey"
          }
        }
      ],
      "hex": "01000000010000000000000000000000000000000000000000000000000000000000000000ffffffff0804ffff001d022d04ffffffff0100f2052a01000000434104b6b827a0d17aea20ffb52488750660ec7c00b1748cc005b1917f9e70c552fb1df661dc3a71f458f64d80d94f762c40c63e51f7294ef6c83088ed1d39990d695bac00000000"
    }
  ]
}