{
  "hash": "00000000fc162dab7c86bc96fe1096616b9a725aca1f60dee71fe7922ab9990b",
  "confirmations": 47555,
  "height": 5543,
  "version": 1,
  "versionHex": "00000001",
  "merkleroot": "546b7c2e5b2dbbdf83dc1db402f9e9b4c7e44728f99a0406af3a89cc7cdd642e",
  "time": 1235556090,
  "mediantime": 1235551145,
  "nonce": 3654622467,
  "bits": "1d00ffff",
  "difficulty": 1,
  "chainwork": "000000000000000000000000000000000000000000000000000015a815a815a8",
  "nTx": 1,
  "previousblockhash": "00000000d9081d63277c46d063f6bb871bb5af31110646cd302aefcd20a2d760",
  "nextblockhash": "00000000829fae72753f0d3fb9ecf5e6329501bb075a20be0529ff6fdeb333b5",
  "strippedsize": 216,
  "size": 216,
  "weight": 864,
  "tx": [
    {
      "txid": "546b7c2e5b2dbbdf83dc1db402f9e9b4c7e44728f99a0406af3a89cc7cdd642e",
      "hash": "546b7c2e5b2dbbdf83dc1db402f9e9b4c7e44728f99a0406af3a89cc7cdd642e",
      "version": 1,
      "size": 135,
      "vsize": 135,
      "weight": 540,
      "locktime": 0,
      "vin": [
        {
          "coinbase": "04ffff001d026e06",
          "sequence": 4294967295
        }
      ],
      "vout": [
        {
          "value": 50.0,
          "n": 0,
          "scriptPubKey": {
            "asm": "04f7f27b0acb3fb14a95a2610fd89b4f2909361e26213284e41ce45eaf229e6d5f0196343277d9b4a0d7de4175ac29ac5a213de533d3017b2553d289a4a6dec502 OP_CHECKSIG",
            "desc": "pk(04f7f27b0acb3fb14a95a2610fd89b4f2909361e26213284e41ce45eaf229e6d5f0196343277d9b4a0d7de4175ac29ac5a213de533d3017b2553d289a4a6dec502)#p3dpk04c",
            "hex": "4104f7f27b0acb3fb14a95a2610fd89b4f2909361e26213284e41ce45eaf229e6d5f0196343277d9b4a0d7de4175ac29ac5a213de533d3017b2553d289a4a6dec502ac",
            "type": "pubkey"
          }
        }
      ],
      "hex": "01000000010000000000000000000000000000000000000000000000000000000000000000ffffffff0804ffff001d026e06ffffffff0100f2052a01000000434104f7f27b0acb3fb14a95a2610fd89b4f2909361e26213284e41ce45eaf229e6d5f0196343277d9b4a0d7de4175ac29ac5a213de533d3017b2553d289a4a6dec502ac00000000"
    }
  ]
}