{
  "hash": "00000000b536b7237b218ee74226a242d42aad38429e8c84e6b00597750487ae",
  "confirmations": 45933,
  "height": 7165,
  "version": 1,
  "versionHex": "00000001",
  "merkleroot": "9dad2a9df0c082824fc6349a68b9da347579d62a9c987d7c0f2ccb02fee07a08",
  "time": 1236845521,
  "mediantime": 1236841927,
  "nonce": 2011673385,
  "bits": "1d00ffff",
  "difficulty": 1,
  "chainwork": "00000000000000000000000000000000000000000000000000001bfe1bfe1bfe",
  "nTx": 1,
  "previousblockhash": "000000001be82443485d96eb5595e55eb5400ad7092c4da6e9f65cf10fe9cbc5",
  "nextblockhash": "00000000d17c1b768f3b494e83d6a22fe748aaa9fc49dc6ef0bd2297132380d8",
  "strippedsize": 216,
  "size": 216,
  "weight": 864,
  "tx": [
    {
      "txid": "9dad2a9df0c082824fc6349a68b9da347579d62a9c987d7c0f2ccb02fee07a08",
      "hash": "9dad2a9df0c082824fc6349a68b9da347579d62a9c987d7c0f2ccb02fee07a08",
      "version": 1,
      "size": 135,
      "vsize": 135,
      "weight": 540,
      "locktime": 0,
      "vin": [
        {
          "coinbase": "04ffff001d021c05",
          "sequence": 4294967295
        }
      ],
      "vout": [
        {
          "value": 50.0,
          "n": 0,
          "scriptPubKey": {
            "asm": "047ad794acd874c738674c55a91e5d987aa5e9959c3b90750b43a7a505a8f4b5512e103c20154fda0cee43bc359c9b776290d2dd4d5c11a76bb032d5bb86feb46c OP_CHECKSIG",
            "desc": "pk(047ad794acd874c738674c55a91e5d987aa5e9959c3b90750b43a7a505a8f4b5512e103c20154fda0cee43bc359c9b776290d2dd4d5c11a76bb032d5bb86feb46c)#3rhplt3h",
            "hex": "41047ad794acd874c738674c55a91e5d987aa5e9959c3b90750b43a7a505a8f4b5512e103c20154fda0cee43bc359c9b776290d2dd4d5c11a76bb032d5bb86feb46cac",
            "type": "pubkey"
          }
        }
      ],
      "hex": "01000000010000000000000000000000000000000000000000000000000000000000000000ffffffff0804ffff001d021c05ffffffff0100f2052a010000004341047ad794acd874c738674c55a91e5d987aa5e9959c3b90750b43a7a505a8f4b5512e103c20154fda0cee43bc359c9b776290d2dd4d5c11a76bb032d5bb86feb46cac00000000"
    }
  ]
}