{
  "hash": "00000000ce465612482a6d69c115e7e390a896b2f4794dc43c209f236c4a48d6",
  "confirmations": 45345,
  "height": 7753,
  "version": 1,
  "versionHex": "00000001",
  "merkleroot": "affc6da35ae3c3595ed3b1e9901c57dbd955d105d240bfca2881b9cca6802c17",
  "time": 1237278516,
  "mediantime": 1237275248,
  "nonce": 410987526,
  "bits": "1d00ffff",
  "difficulty": 1,
  "chainwork": "00000000000000000000000000000000000000000000000000001e4a1e4a1e4a",
  "nTx": 1,
  "previousblockhash": "00000000675cc0c2fa1953ee4fb3390b6b3cea4e57d9d00fb702b0984d7b9df1",
  "nextblockhash": "00000000bd0c94b6814de04eb71307ceace6c9ea1841bc1f0888cdcc6a3d38e6",
  "strippedsize": 216,
  "size": 216,
  "weight": 864,
  "tx": [
    {
      "txid": "affc6da35ae3c3595ed3b1e9901c57dbd955d105d240bfca2881b9cca6802c17",
      "hash": "affc6da35ae3c3595ed3b1e9901c57dbd955d105d240bfca2881b9cca6802c17",
      "version": 1,
      "size": 135,
      "vsize": 135,
      "weight": 540,
      "locktime": 0,
      "vin": [
        {
          "coinbase": "04ffff001d021805",
          "sequence": 4294967295
        }
      ],
      "vout": [
        {
          "value": 50.0,
          "n": 0,
          "scriptPubKey": {
            "asm": "040c27feecaf60db42cfed5b88b90fb0a80e66e82beb2d746a044e576b0453eade3be1d105c21b0570f404c975be294e88d4fe54cd9978bfe9d143d262f12c5521 OP_CHECKSIG",
            "desc": "pk(040c27feecaf60db42cfed5b88b90fb0a80e66e82beb2d746a044e576b0453eade3be1d105c21b0570f404c975be294e88d4fe54cd9978bfe9d143d262f12c5521)#2vcgcetu",
            "hex": "41040c27feecaf60db42cfed5b88b90fb0a80e66e82beb2d746a044e576b0453eade3be1d105c21b0570f404c975be294e88d4fe54cd9978bfe9d143d262f12c5521ac",
            "type": "pubkey"
          }
        }
      ],
      "hex": "01000000010000000000000000000000000000000000000000000000000000000000000000ffffffff0804ffff001d021805ffffffff0100f2052a010000004341040c27feecaf60db42cfed5b88b90fb0a80e66e82beb2d746a044e576b0453eade3be1d105c21b0570f404c975be294e88d4fe54cd9978bfe9d143d262f12c5521ac00000000"
    }
  ]
}