{
  "hash": "00000000e71f13f1d27e643de3f7d7da9da6dff8dcff26702c4a682b243aa3dc",
  "confirmations": 46612,
  "height": 6486,
  "version": 1,
  "versionHex": "00000001",
  "merkleroot": "b4a5d54ba993bcc44bb21e70974a723f78afc1f826c8d765603753d41749c58f",
  "time": 1236320696,
  "mediantime": 1236316866,
  "nonce": 29565170,
  "bits": "1d00ffff",
  "difficulty": 1,
  "chainwork": "0000000000000000000000000000000000000000000000000000195719571957",
  "nTx": 1,
  "previousblockhash": "00000000bd6efd0419df2abe501946d4a90c24571c5f44fb176a7155292db3a6",
  "nextblockhash": "000000003b2f4d7964d4786046cd595d8f7174dd503e354ee0bdde776d125625",
  "strippedsize": 215,
  "size": 215,
  "weight": 860,
  "tx": [
    {
      "txid": "b4a5d54ba993bcc44bb21e70974a723f78afc1f826c8d765603753d41749c58f",
      "hash": "b4a5d54ba993bcc44bb21e70974a723f78afc1f826c8d765603753d41749c58f",
      "version": 1,
      "size": 134,
      "vsize": 134,
      "weight": 536,
      "locktime": 0,
      "vin": [
        {
          "coinbase": "04ffff001d0179",
          "sequence": 4294967295
        }
      ],
      "vout": [
        {
          "value": 50.0,
          "n": 0,
          "scriptPubKey": {
            "asm": "04e6df2554faba9d81b0af9c720ce5a38d04269b7a1f74389f6e2a84c7528bc1504f742415a105967f8ae591af97ffeeb7e431063a065aa193ac432ac32a3d7354 OP_CHECKSIG",
            "desc": "pk(04e6df2554faba9d81b0af9c720ce5a38d04269b7a1f74389f6e2a84c7528bc1504f742415a105967f8ae591af97ffeeb7e431063a065aa193ac432ac32a3d7354)#ncdh58mj",
            "hex": "4104e6df2554faba9d81b0af9c720ce5a38d04269b7a1f74389f6e2a84c7528bc1504f742415a105967f8ae591af97ffeeb7e431063a065aa193ac432ac32a3d7354ac",
            "type": "pubkey"
          }
        }
      ],
      "hex": "01000000010000000000000000000000000000000000000000000000000000000000000000ffffffff0704ffff001d0179ffffffff0100f2052a01000000434104e6df2554faba9d81b0af9c720ce5a38d04269b7a1f74389f6e2a84c7528bc1504f742415a105967f8ae591af97ffeeb7e431063a065aa193ac432ac32a3d7354ac00000000"
    }
  ]
}