{
  "hash": "000000009fbb06401af2691eec5fcff8b79d7202720670d492dc88117b57fd15",
  "confirmations": 51976,
  "height": 1122,
  "version": 1,
  "versionHex": "00000001",
  "merkleroot": "96387a5c0d6b8ca7647340ead7e1a1a8563ec623f3f4a382cd4ea9a2bca1549b",
  "time": 1232437702,
  "mediantime": 1232434318,
  "nonce": 1363282437,
  "bits": "1d00ffff",
  "difficulty": 1,
  "chainwork": "0000000000000000000000000000000000000000000000000000046304630463",
  "nTx": 1,
  "previousblockhash": "00000000ef9b99b56eb53d5fc71bcd9a5c4d437ce434dfcc9dca183a33615636",
  "nextblockhash": "000000002bfd185d2ace367a5669eb9857ee0fdd108f50ba740db2477e75cbb8",
  "strippedsize": 216,
  "size": 216,
  "weight": 864,
  "tx": [
    {
      "txid": "96387a5c0d6b8ca7647340ead7e1a1a8563ec623f3f4a382cd4ea9a2bca1549b",
      "hash": "96387a5c0d6b8ca7647340ead7e1a1a8563ec623f3f4a382cd4ea9a2bca1549b",
      "version": 1,
      "size": 135,
      "vsize": 135,
      "weight": 540,
      "locktime": 0,
      "vin": [
        {
          "coinbase": "04ffff001d025d07",
          "sequence": 4294967295
        }
      ],
      "vout": [
        {
          "value": 50.0,
          "n": 0,
          "scriptPubKey": {
            "asm": "047b5e7f8a625e719430bd8ed542362c78043face86dd1231ae60f8e43da6c68183da491b36400335d4d8180a84d1672b8c873cb3997d0e2529f7c8e883ffdd286 OP_CHECKSIG",
            "desc": "pk(047b5e7f8a625e719430bd8ed542362c78043face86dd1231ae60f8e43da6c68183da491b36400335d4d8180a84d1672b8c873cb3997d0e2529f7c8e883ffdd286)#8ed28j8t",
            "hex": "41047b5e7f8a625e719430bd8ed542362c78043face86dd1231ae60f8e43da6c68183da491b36400335d4d8180a84d1672b8c873cb3997d0e2529f7c8e883ffdd286ac",
            "type": "pubkey"
          }
        }
      ],
      "hex": "01000000010000000000000000000000000000000000000000000000000000000000000000ffffffff0804ffff001d025d07ffffffff0100f2052a010000004341047b5e7f8a625e719430bd8ed542362c78043face86dd1231ae60f8e43da6c68183da491b36400335d4d8180a84d1672b8c873cb3997d0e2529f7c8e883ffdd286ac00000000"
    }
  ]
}