{
  "hash": "00000000b9fb4b453338bcfe77c0ab3cd342bd24ea0c6f38724c755e8479a525",
  "confirmations": 44070,
  "height": 9028,
  "version": 1,
  "versionHex": "00000001",
  "merkleroot": "7aa913712df214db7ce6514e589566e66dea54b067b7d4151c7a3501d48b65fe",
  "time": 1238272155,
  "mediantime": 1238269210,
  "nonce": 3239326997,
  "bits": "1d00ffff",
  "difficulty": 1,
  "chainwork": "0000000000000000000000000000000000000000000000000000234523452345",
  "nTx": 1,
  "previousblockhash": "0000000026877aca2e4a930e8a232865f1f4259b4e6305b24ff9af3e187ae0ba",
  "nextblockhash": "00000000a712efd9a87e1ea84e9f781f9fabb91f1924065c457b6ccb0a7b9337",
  "strippedsize": 216,
  "size": 216,
  "weight": 864,
  "tx": [
    {
      "txid": "7aa913712df214db7ce6514e589566e66dea54b067b7d4151c7a3501d48b65fe",
      "hash": "7aa913712df214db7ce6514e589566e66dea54b067b7d4151c7a3501d48b65fe",
      "version": 1,
      "size": 135,
      "vsize": 135,
      "weight": 540,
      "locktime": 0,
      "vin": [
        {
          "coinbase": "04ffff001d02d706",
          "sequence": 4294967295
        }
      ],
      "vout": [
        {
          "value": 50.0,
          "n": 0,
          "scriptPubKey": {
            "asm": "045d47d7c1121de7b668348e9bb58f06ee20e658850465fa5253cb750a2b10a98ecc46cf24dcb46926e060fbe118a399de81387724dc9941c0799696c81c496125 OP_CHECKSIG",
            "desc": "pk(045d47d7c1121de7b668348e9bb58f06ee20e658850465fa5253cb750a2b10a98ecc46cf24dcb46926e060fbe118a399de81387724dc9941c0799696c81c496125)#5t8ggkk2",
            "hex": "41045d47d7c1121de7b668348e9bb58f06ee20e658850465fa5253cb750a2b10a98ecc46cf24dcb46926e060fbe118a399de81387724dc9941c0799696c81c496125ac",
            "type": "pubkey"
          }
        }
      ],
      "hex": "01000000010000000000000000000000000000000000000000000000000000000000000000ffffffff0804ffff001d02d706ffffffff0100f2052a010000004341045d47d7c1121de7b668348e9bb58f06ee20e658850465fa5253cb750a2b10a98ecc46cf24dcb46926e060fbe118a399de81387724dc9941c0799696c81c496125ac00000000"
    }
  ]
}