{
  "hash": "00000000a8491571ffbbcf4dde1b50badf32c54ff5884d3dca4fca3fd9067a12",
  "confirmations": 49968,
  "height": 3130,
  "version": 1,
  "versionHex": "00000001",
  "merkleroot": "70d5954a6658c054bfdb5fecb354b418b9069d9c0b08fda3fdbd64d491a811f4",
  "time": 1233854290,
  "mediantime": 1233851256,
  "nonce": 2565228333,
  "bits": "1d00ffff",
  "difficulty": 1,
  "chainwork": "00000000000000000000000000000000000000000000000000000c3b0c3b0c3b",
  "nTx": 1,
  "previousblockhash": "000000000c4ed029a5b413fc571ab2eae0d261ea6164b2ddbf520aa78abfa8c1",
  "nextblockhash": "000000003b4f4c304e80a5fbdbaf200ae4a910bd5432aae07ea0cf45e03b76a3",
  "strippedsize": 216,
  "size": 216,
  "weight": 864,
  "tx": [
    {
      "txid": "70d5954a6658c054bfdb5fecb354b418b9069d9c0b08fda3fdbd64d491a811f4",
      "hash": "70d5954a6658c054bfdb5fecb354b418b9069d9c0b08fda3fdbd64d491a811f4",
      "version": 1,
      "size": 135,
      "vsize": 135,
      "weight": 540,
      "locktime": 0,
      "vin": [
        {
          "coinbase": "04ffff001d02a401",
          "sequence": 4294967295
        }
      ],
      "vout": [
        {
          "value": 50.0,
          "n": 0,
          "scriptPubKey": {
            "asm": "04ac96e09b8d7e5ba4b5b09fec4413cdb2615306774c76f0934f37c6fc504ef48a9804dc03b5e794ddabe746f746a25987e569597f1985c256f5484b316404a027 OP_CHECKSIG",
            "desc": "pk(04ac96e09b8d7e5ba4b5b09fec4413cdb2615306774c76f0934f37c6fc504ef48a9804dc03b5e794ddabe746f746a25987e569597f1985c256f5484b316404a027)#6pu9pe5n",
            "hex": "4104ac96e09b8d7e5ba4b5b09fec4413cdb2615306774c76f0934f37c6fc504ef48a9804dc03b5e794ddabe746f746a25987e569597f1985c256f5484b316404a027ac",
            "type": "pubkey"
          }
        }
      ],
      "hex": "01000000010000000000000000000000000000000000000000000000000000000000000000ffffffff0804ffff001d02a401ffffffff0100f2052a01000000434104ac96e09b8d7e5ba4b5b09fec4413cdb2615306774c76f0934f37c6fc504ef48a9804dc03b5e794ddabe746f746a25987e569597f1985c256f5484b316404a027ac00000000"
    }
  ]
}