{
  "hash": "000000007ec3a2daeb2fda267d4c5520c5588aac135aae9e5f01eada28e15d6f",
  "confirmations": 52017,
  "height": 321,
  "version": 1,
  "versionHex": "00000001",
  "merkleroot": "295fad4bfc338409b3fbce82f53a2e6e16a627475dd9aea38d856fcfa0228753",
  "time": 1231846990,
  "mediantime": 1231844245,
  "nonce": 2081122853,
  "bits": "1d00ffff",
  "difficulty": 1,
  "chainwork": "0000000000000000000000000000000000000000000000000000014201420142",
  "nTx": 1,
  "previousblockhash": "000000003f100bcb2790fbf45f69b6825094d75adf5ae9dbf8f4072fe2ff2ea7",
  "nextblockhash": "00000000d79d0587bc2af68c3c51a43b22b6a7f274f488377187985641d4786d",
  "strippedsize": 216,
  "size": 216,
  "weight": 864,
  "tx": [
    {
      "txid": "295fad4bfc338409b3fbce82f53a2e6e16a627475dd9aea38d856fcfa0228753",
      "hash": "295fad4bfc338409b3fbce82f53a2e6e16a627475dd9aea38d856fcfa0228753",
      "version": 1,
      "size": 135,
      "vsize": 135,
      "weight": 540,
      "locktime": 0,
      "vin": [
        {
          "coinbase": "04ffff001d02da00",
          "sequence": 4294967295
        }
      ],
      "vout": [
        {
          "value": 50.0,
          "n": 0,
          "scriptPubKey": {
            "asm": "043f37c6357328a3bb1def2f895f3e0fe8322be914b6afdd654b034fddedb54edaa784aa54ce437d3aa35c9e4cba78232edc3c9bcedbb1c9ad69a3adfed5f8185a OP_CHECKSIG",
            "desc": "pk(043f37c6357328a3bb1def2f895f3e0fe8322be914b6afdd654b034fddedb54edaa784aa54ce437d3aa35c9e4cba78232edc3c9bcedbb1c9ad69a3adfed5f8185a)#ezfkvz32",
            "hex": "41043f37c6357328a3bb1def2f895f3e0fe8322be914b6afdd654b034fddedb54edaa784aa54ce437d3aa35c9e4cba78232edc3c9bcedbb1c9ad69a3adfed5f8185aac",
            "type": "pubkey"
          }
        }
      ],
      "hex": "01000000010000000000000000000000000000000000000000000000000000000000000000ffffffff0804ffff001d02da00ffffffff0100f2052a010000004341043f37c6357328a3bb1def2f895f3e0fe8322be914b6afdd654b034fddedb54edaa784aa54ce437d3aa35c9e4cba78232edc3c9bcedbb1c9ad69a3adfed5f8185aac00000000"
    }
  ]
}