{
  "hash": "000000009c8ecb0f1e1cadf36f26d60d2d5399cd5cba41146e0b5cd2a5ab9730",
  "confirmations": 47646,
  "height": 5452,
  "version": 1,
  "versionHex": "00000001",
  "merkleroot": "da5457b5eb4736281e130ba540e4b4560e6cbb241584625c398b016e5927ad32",
  "time": 1235485427,
  "mediantime": 1235480609,
  "nonce": 150569054,
  "bits": "1d00ffff",
  "difficulty": 1,
  "chainwork": "0000000000000000000000000000000000000000000000000000154d154d154d",
  "nTx": 1,
  "previousblockhash": "00000000e6b85123ef8a72c3001c72a9b003d858acca502f66c0fee3e3f4cccd",
  "nextblockhash": "00000000bd6d764b38bc485d7fba1aeadbf2448958671e2580a44d45c731d023",
  "strippedsize": 215,
  "size": 215,
  "weight": 860,
  "tx": [
    {
      "txid": "da5457b5eb4736281e130ba540e4b4560e6cbb241584625c398b016e5927ad32",
      "hash": "da5457b5eb4736281e130ba540e4b4560e6cbb241584625c398b016e5927ad32",
      "version": 1,
      "size": 134,
      "vsize": 134,
      "weight": 536,
      "locktime": 0,
      "vin": [
        {
          "coinbase": "04ffff001d0118",
          "sequence": 4294967295
        }
      ],
      "vout": [
        {
          "value": 50.0,
          "n": 0,
          "scriptPubKey": {
            "asm": "04dde3d60083cdebdba444621cd40737c3085626bedea887cf4e51a57287df7e3c5ddc6bae3d705f093a807b452a66cf40affe74229e2ba3308e5ffcfe4080be63 OP_CHECKSIG",
            "desc": "pk(04dde3d60083cdebdba444621cd40737c3085626bedea887cf4e51a57287df7e3c5ddc6bae3d705f093a807b452a66cf40affe74229e2ba3308e5ffcfe4080be63)#lt89awgq",
            "hex": "4104dde3d60083cdebdba444621cd40737c3085626bedea887cf4e51a57287df7e3c5ddc6bae3d705f093a807b452a66cf40affe74229e2ba3308e5ffcfe4080be63ac",
            "type": "pubkey"
          }
        }
      ],
      "hex": "01000000010000000000000000000000000000000000000000000000000000000000000000ffffffff0704ffff001d0118ffffffff0100f2052a01000000434104dde3d60083cdebdba444621cd40737c3085626bedea887cf4e51a57287df7e3c5ddc6bae3d705f093a807b452a66cf40affe74229e2ba3308e5ffcfe4080be63ac00000000"
    }
  ]
}