{
  "hash": "000000003c5b770856465f1d7f9ae8919f33504fc7971f486f51074386084cda",
  "confirmations": 45452,
  "height": 7646,
  "version": 1,
  "versionHex": "00000001",
  "merkleroot": "4e0a0b2f9ea53835c729be4db0cbc7aaad35fc95c47fca0a71b79b3d329ee9de",
  "time": 1237199853,
  "mediantime": 1237196597,
  "nonce": 2461293114,
  "bits": "1d00ffff",
  "difficulty": 1,
  "chainwork": "00000000000000000000000000000000000000000000000000001ddf1ddf1ddf",
  "nTx": 1,
  "previousblockhash": "000000006da23445fb82457e211807b038717de3433458a795a461eadc597ecd",
  "nextblockhash": "000000001cf7cd13648a8613f515ed9dfebd6335b98b7140906bd022df40d5bb",
  "strippedsize": 216,
  "size": 216,
  "weight": 864,
  "tx": [
    {
      "txid": "4e0a0b2f9ea53835c729be4db0cbc7aaad35fc95c47fca0a71b79b3d329ee9de",
      "hash": "4e0a0b2f9ea53835c729be4db0cbc7aaad35fc95c47fca0a71b79b3d329ee9de",
      "version": 1,
      "size": 135,
      "vsize": 135,
      "weight": 540,
      "locktime": 0,
      "vin": [
        {
          "coinbase": "04ffff001d022e03",
          "sequence": 4294967295
        }
      ],
      "vout": [
        {
          "value": 50.0,
          "n": 0,
          "scriptPubKey": {
            "asm": "04d06e612c9072bb4ce8514d6616974518681e951e2b7439b5642bf4c8e387b1662845f7ff6d7ff520c25d8cdc1f23c680b03079c0921e941359f8f4c94c445435 OP_CHECKSIG",
            "desc": "pk(04d06e612c9072bb4ce8514d6616974518681e951e2b7439b5642bf4c8e387b1662845f7ff6d7ff520c25d8cdc1f23c680b03079c0921e941359f8f4c94c445435)#g2k3f3te",
            "hex": "4104d06e612c9072bb4ce8514d6616974518681e951e2b7439b5642bf4c8e387b1662845f7ff6d7ff520c25d8cdc1f23c680b03079c0921e941359f8f4c94c445435ac",
            "type": "pubkey"
          }
        }
      ],
      "hex": "01000000010000000000000000000000000000000000000000000000000000000000000000ffffffff0804ffff001d022e03ffffffff0100f2052a01000000434104d06e612c9072bb4ce8514d6616974518681e951e2b7439b5642bf4c8e387b1662845f7ff6d7ff520c25d8cdc1f23c680b03079c0921e941359f8f4c94c445435ac00000000"
    }
  ]
}