{
  "hash": "00000000671bd6f873976a5b9e2214457502de200d0b57211c9c66868fdb977a",
  "confirmations": 43694,
  "height": 9404,
  "version": 1,
  "versionHex": "00000001",
  "merkleroot": "89fb0480d40c0066a073922005c48d34f65236dfd71f277fe5d0ab905a8eaf88",
  "time": 1238556138,
  "mediantime": 1238551076,
  "nonce": 4111039787,
  "bits": "1d00ffff",
  "difficulty": 1,
  "chainwork": "000000000000000000000000000000000000000000000000000024bd24bd24bd",
  "nTx": 1,
  "previousblockhash": "00000000de05c30563e3dd88926559b180df792fee1fe63f9b4d87504daffc20",
  "nextblockhash": "000000005cf4edaa6a2027ad062ecb0a30826781ee0f80925afdc169033142f1",
  "strippedsize": 216,
  "size": 216,
  "weight": 864,
  "tx": [
    {
      "txid": "89fb0480d40c0066a073922005c48d34f65236dfd71f277fe5d0ab905a8eaf88",
      "hash": "89fb0480d40c0066a073922005c48d34f65236dfd71f277fe5d0ab905a8eaf88",
      "version": 1,
      "size": 135,
      "vsize": 135,
      "weight": 540,
      "locktime": 0,
      "vin": [
        {
          "coinbase": "04ffff001d02c203",
          "sequence": 4294967295
        }
      ],
      "vout": [
        {
          "value": 50.0,
          "n": 0,
          "scriptPubKey": {
            "asm": "04d0c7878ecd1ea30a91028912ab278d3e9814ed34d67b20fed16469212edd7d2c5bde264822bf8e195c863ab80b2e93c5cf0be8c7a1b33293ae214ad66cb28cbd OP_CHECKSIG",
            "desc": "pk(04d0c7878ecd1ea30a91028912ab278d3e9814ed34d67b20fed16469212edd7d2c5bde264822bf8e195c863ab80b2e93c5cf0be8c7a1b33293ae214ad66cb28cbd)#n65yjz8k",
            "hex": "4104d0c7878ecd1ea30a91028912ab278d3e9814ed34d67b20fed16469212edd7d2c5bde264822bf8e195c863ab80b2e93c5cf0be8c7a1b33293ae214ad66cb28cbdac",
            "type": "pubkey"
          }
        }
      ],
      "hex": "01000000010000000000000000000000000000000000000000000000000000000000000000ffffffff0804ffff001d02c203ffffffff0100f2052a01000000434104d0c7878ecd1ea30a91028912ab278d3e9814ed34d67b20fed16469212edd7d2c5bde264822bf8e195c863ab80b2e93c5cf0be8c7a1b33293ae214ad66cb28cbdac00000000"
    }
  ]
}