{
  "hash": "000000000a35a6104f17dc5dedb6ef250ef412f4fbf67f5dd77f964aa1c10b36",
  "confirmations": 52037,
  "height": 192,
  "version": 1,
  "versionHex": "00000001",
  "merkleroot": "16293da6d4078f636b691448b57f96d5af32d7ca3fb15a20cc74845b224a44bd",
  "time": 1231747164,
  "mediantime": 1231744600,
  "nonce": 4261059103,
  "bits": "1d00ffff",
  "difficulty": 1,
  "chainwork": "000000000000000000000000000000000000000000000000000000c100c100c1",
  "nTx": 1,
  "previousblockhash": "00000000520bf3614f3f3f312491bcce9ae820cfcf8393cf1e7aecb0db4932ab",
  "nextblockhash": "00000000833cccbec543914a96b4994669205444c85d9e4f5268d808910b9696",
  "strippedsize": 215,
  "size": 215,
  "weight": 860,
  "tx": [
    {
      "txid": "16293da6d4078f636b691448b57f96d5af32d7ca3fb15a20cc74845b224a44bd",
      "hash": "16293da6d4078f636b691448b57f96d5af32d7ca3fb15a20cc74845b224a44bd",
      "version": 1,
      "size": 134,
      "vsize": 134,
      "weight": 536,
      "locktime": 0,
      "vin": [
        {
          "coinbase": "04ffff001d010d",
          "sequence": 4294967295
        }
      ],
      "vout": [
        {
          "value": 50.0,
          "n": 0,
          "scriptPubKey": {
            "asm": "04688a6734155a81a8fd9093a55b16bc5c50242f7ead7e0070c91db438fd15f80bd2841af71ee62213bd2022276edf646957546537a54ceb3a7b478e7c07be213b OP_CHECKSIG",
            "desc": "pk(04688a6734155a81a8fd9093a55b16bc5c50242f7ead7e0070c91db438fd15f80bd2841af71ee62213bd2022276edf646957546537a54ceb3a7b478e7c07be213b)#ggy0zv7k",
            "hex": "4104688a6734155a81a8fd9093a55b16bc5c50242f7ead7e0070c91db438fd15f80bd2841af71ee62213bd2022276edf646957546537a54ceb3a7b478e7c07be213bac",
            "type": "pubkey"
          }
        }
      ],
      "hex": "01000000010000000000000000000000000000000000000000000000000000000000000000ffffffff0704ffff001d010dffffffff0100f2052a01000000434104688a6734155a81a8fd9093a55b16bc5c50242f7ead7e0070c91db438fd15f80bd2841af71ee62213bd2022276edf646957546537a54ceb3a7b478e7c07be213bac00000000"
    }
  ]
}