{
  "hash": "00000000f6517645fd844cf538a58c126679d2cdf5ca089ae5123153c87722c3",
  "confirmations": 45941,
  "height": 7157,
  "version": 1,
  "versionHex": "00000001",
  "merkleroot": "81af2163b6ef98500e55e2785bae8df33751e16373018eea71643937138181af",
  "time": 1236839544,
  "mediantime": 1236837115,
  "nonce": 1507429893,
  "bits": "1d00ffff",
  "difficulty": 1,
  "chainwork": "00000000000000000000000000000000000000000000000000001bf61bf61bf6",
  "nTx": 1,
  "previousblockhash": "0000000029b9a0a930d3e3e15926ab346b188220d67a07bf45b9419c5da77893",
  "nextblockhash": "00000000be097d93bb0d24301bb4f6e5e8779cb2894d6676fba726a890592dca",
  "strippedsize": 216,
  "size": 216,
  "weight": 864,
  "tx": [
    {
      "txid": "81af2163b6ef98500e55e2785bae8df33751e16373018eea71643937138181af",
      "hash": "81af2163b6ef98500e55e2785bae8df33751e16373018eea71643937138181af",
      "version": 1,
      "size": 135,
      "vsize": 135,
      "weight": 540,
      "locktime": 0,
      "vin": [
        {
          "coinbase": "04ffff001d020a05",
          "sequence": 4294967295
        }
      ],
      "vout": [
        {
          "value": 50.0,
          "n": 0,
          "scriptPubKey": {
            "asm": "04468f12492751ddcdccc05bcf0efef16891ea732336d29c2a22b8da4cb5f70c89c70755d0789857dff1bd45c4dedc09f0e071cdb4d2a8611c04e5e9e07d8e040e OP_CHECKSIG",
            "desc": "pk(04468f12492751ddcdccc05bcf0efef16891ea732336d29c2a22b8da4cb5f70c89c70755d0789857dff1bd45c4dedc09f0e071cdb4d2a8611c04e5e9e07d8e040e)#jf7pml6a",
            "hex": "4104468f12492751ddcdccc05bcf0efef16891ea732336d29c2a22b8da4cb5f70c89c70755d0789857dff1bd45c4dedc09f0e071cdb4d2a8611c04e5e9e07d8e040eac",
            "type": "pubkey"
          }
        }
      ],
      "hex": "01000000010000000000000000000000000000000000000000000000000000000000000000ffffffff0804ffff001d020a05ffffffff0100f2052a01000000434104468f12492751ddcdccc05bcf0efef16891ea732336d29c2a22b8da4cb5f70c89c70755d0789857dff1bd45c4dedc09f0e071cdb4d2a8611c04e5e9e07d8e040eac00000000"
    }
  ]
}