{
  "hash": "000000006981d3d261a7aec707f5c0051ae2a01d8d86f2139771241fc4d39c7c",
  "confirmations": 50541,
  "height": 2557,
  "version": 1,
  "versionHex": "00000001",
  "merkleroot": "94ec69f36740d415de368dbeb54921639370138c0a51b92baec670014dc51c9e",
  "time": 1233459347,
  "mediantime": 1233456157,
  "nonce": 252881615,
  "bits": "1d00ffff",
  "difficulty": 1,
  "chainwork": "000000000000000000000000000000000000000000000000000009fe09fe09fe",
  "nTx": 1,
  "previousblockhash": "00000000e27b162e13a8475282d442ddf3aeb902afe6233fa801f61f8c6a2fa8",
  "nextblockhash": "00000000e5c5fc186ddd5283f3de91ec2637a567307faa231e775066fa570959",
  "strippedsize": 216,
  "size": 216,
  "weight": 864,
  "tx": [
    {
      "txid": "94ec69f36740d415de368dbeb54921639370138c0a51b92baec670014dc51c9e",
      "hash": "94ec69f36740d415de368dbeb54921639370138c0a51b92baec670014dc51c9e",
      "version": 1,
      "size": 135,
      "vsize": 135,
      "weight": 540,
      "locktime": 0,
      "vin": [
        {
          "coinbase": "04ffff001d027702",
          "sequence": 4294967295
        }
      ],
      "vout": [
        {
          "value": 50.0,
          "n": 0,
          "scriptPubKey": {
            "asm": "04717b0ba5a9ebb09461581d652ba69b199ca4963d47081e6b59efafe66941132ce4d5d5cf1dc6ca125304ceb6e70be3a2aeb09016091f193f96dd0c90e7193a7a OP_CHECKSIG",
            "desc": "pk(04717b0ba5a9ebb09461581d652ba69b199ca4963d47081e6b59efafe66941132ce4d5d5cf1dc6ca125304ceb6e70be3a2aeb09016091f193f96dd0c90e7193a7a)#fwjryf7f",
            "hex": "4104717b0ba5a9ebb09461581d652ba69b199ca4963d47081e6b59efafe66941132ce4d5d5cf1dc6ca125304ceb6e70be3a2aeb09016091f193f96dd0c90e7193a7aac",
            "type": "pubkey"
          }
        }
      ],
      "hex": "01000000010000000000000000000000000000000000000000000000000000000000000000ffffffff0804ffff001d027702ffffffff0100f2052a01000000434104717b0ba5a9ebb09461581d652ba69b199ca4963d47081e6b59efafe66941132ce4d5d5cf1dc6ca125304ceb6e70be3a2aeb09016091f193f96dd0c90e7193a7aac00000000"
    }
  ]
}