{
  "hash": "00000000ea25c2bd868f9fc2a53019177ecfe68f3b2d6f2538ab16fbbefc909c",
  "confirmations": 51234,
  "height": 1864,
  "version": 1,
  "versionHex": "00000001",
  "merkleroot": "e6299a65f8d35761bdc7b9cb15ef1a16e774cfa99a2225d8e16cb217d526d284",
  "time": 1232928363,
  "mediantime": 1232925824,
  "nonce": 43021723,
  "bits": "1d00ffff",
  "difficulty": 1,
  "chainwork": "0000000000000000000000000000000000000000000000000000074907490749",
  "nTx": 1,
  "previousblockhash": "00000000728d8e5b68328b0357af3b1591f4cfa7e074e1c6d5bc900461863606",
  "nextblockhash": "00000000cabdfa62f62553973d5ba3a0e74eb5b4d6e03366f79bd05f2a7c5646",
  "strippedsize": 215,
  "size": 215,
  "weight": 860,
  "tx": [
    {
      "txid": "e6299a65f8d35761bdc7b9cb15ef1a16e774cfa99a2225d8e16cb217d526d284",
      "hash": "e6299a65f8d35761bdc7b9cb15ef1a16e774cfa99a2225d8e16cb217d526d284",
      "version": 1,
      "size": 134,
      "vsize": 134,
      "weight": 536,
      "locktime": 0,
      "vin": [
        {
          "coinbase": "04ffff001d0179",
          "sequence": 4294967295
        }
      ],
      "vout": [
        {
          "value": 50.0,
          "n": 0,
          "scriptPubKey": {
            "asm": "0464b313dee60411693f2782fce498df3ee00bb112af11f2de33c969cff0c42e10ecab90a11c35bb54d8eca106facbac56ed5c4171b98b150f341f1c7a18e3bc5c OP_CHECKSIG",
            "desc": "pk(0464b313dee60411693f2782fce498df3ee00bb112af11f2de33c969cff0c42e10ecab90a11c35bb54d8eca106facbac56ed5c4171b98b150f341f1c7a18e3bc5c)#353kv9pu",
            "hex": "410464b313dee60411693f2782fce498df3ee00bb112af11f2de33c969cff0c42e10ecab90a11c35bb54d8eca106facbac56ed5c4171b98b150f341f1c7a18e3bc5cac",
            "type": "pubkey"
          }
        }
      ],
      "hex": "01000000010000000000000000000000000000000000000000000000000000000000000000ffffffff0704ffff001d0179ffffffff0100f2052a0100000043410464b313dee60411693f2782fce498df3ee00bb112af11f2de33c969cff0c42e10ecab90a11c35bb54d8eca106facbac56ed5c4171b98b150f341f1c7a18e3bc5cac00000000"
    }
  ]
}