{
  "hash": "0000000096c0d938872c42fbfcb01d44f76535701e4c354d5c3f7345b004e3f6",
  "confirmations": 48035,
  "height": 5063,
  "version": 1,
  "versionHex": "00000001",
  "merkleroot": "2bb4a518317b8e57c237d23f437484935c932a4b50eb30a5ee489b35fe98db72",
  "time": 1235187145,
  "mediantime": 1235183432,
  "nonce": 4127685148,
  "bits": "1d00ffff",
  "difficulty": 1,
  "chainwork": "000000000000000000000000000000000000000000000000000013c813c813c8",
  "nTx": 1,
  "previousblockhash": "0000000098e574e8c06d4c1748cb547be98c6b725e642efab628f8b0601a7017",
  "nextblockhash": "000000006e7289e97a4e7328ad4d23d5d2d3e301a2bf5ffe01867d7578cb3f8a",
  "strippedsize": 216,
  "size": 216,
  "weight": 864,
  "tx": [
    {
      "txid": "2bb4a518317b8e57c237d23f437484935c932a4b50eb30a5ee489b35fe98db72",
      "hash": "2bb4a518317b8e57c237d23f437484935c932a4b50eb30a5ee489b35fe98db72",
      "version": 1,
      "size": 135,
      "vsize": 135,
      "weight": 540,
      "locktime": 0,
      "vin": [
        {
          "coinbase": "04ffff001d022508",
          "sequence": 4294967295
        }
      ],
      "vout": [
        {
          "value": 50.0,
          "n": 0,
          "scriptPubKey": {
            "asm": "0432febe9167062594fe67b240a57d4783269dbd504a912e5496756eb0e5d8e06cf6022d56169d84440b0f95404c162639dc71b1a7d5cc0655a396d788ba031bb5 OP_CHECKSIG",
            "desc": "pk(0432febe9167062594fe67b240a57d4783269dbd504a912e5496756eb0e5d8e06cf6022d56169d84440b0f95404c162639dc71b1a7d5cc0655a396d788ba031bb5)#arte5gup",
            "hex": "410432febe9167062594fe67b240a57d4783269dbd504a912e5496756eb0e5d8e06cf6022d56169d84440b0f95404c162639dc71b1a7d5cc0655a396d788ba031bb5ac",
            "type": "pubkey"
          }
        }
      ],
      "hex": "01000000010000000000000000000000000000000000000000000000000000000000000000ffffffff0804ffff001d022508ffffffff0100f2052a0100000043410432febe9167062594fe67b240a57d4783269dbd504a912e5496756eb0e5d8e06cf6022d56169d84440b0f95404c162639dc71b1a7d5cc0655a396d788ba031bb5ac00000000"
    }
  ]
}