{
  "hash": "0000000092bc97af40ddee0acba80b5790e4607aa8e5f541086fefb45c445f6a",
  "confirmations": 51186,
  "height": 1912,
  "version": 1,
  "versionHex": "00000001",
  "merkleroot": "5b928995542996c13e56fd80402a9258b082e1c82cadda52662b5f236d436c33",
  "time": 1232950123,
  "mediantime": 1232948565,
  "nonce": 2777502,
  "bits": "1d00ffff",
  "difficulty": 1,
  "chainwork": "0000000000000000000000000000000000000000000000000000077907790779",
  "nTx": 1,
  "previousblockhash": "0000000015099d9ce70a3da3ab91a7c2ebeba085c0513acee6618351414f4b6a",
  "nextblockhash": "000000006ddf1cbfb47499088b01454401df2dfe50e759a0ea30b5cbbc99acdb",
  "strippedsize": 215,
  "size": 215,
  "weight": 860,
  "tx": [
    {
      "txid": "5b928995542996c13e56fd80402a9258b082e1c82cadda52662b5f236d436c33",
      "hash": "5b928995542996c13e56fd80402a9258b082e1c82cadda52662b5f236d436c33",
      "version": 1,
      "size": 134,
      "vsize": 134,
      "weight": 536,
      "locktime": 0,
      "vin": [
        {
          "coinbase": "04ffff001d011c",
          "sequence": 4294967295
        }
      ],
      "vout": [
        {
          "value": 50.0,
          "n": 0,
          "scriptPubKey": {
            "asm": "0422f8d7d437ef2667f4dc54cf556b7531ea4927e36a87eb2230ea92098353891d48d4590cb2331d6c91aa1c4103457f3af6fa754e3a145e5e599896d54e801454 OP_CHECKSIG",
            "desc": "pk(0422f8d7d437ef2667f4dc54cf556b7531ea4927e36a87eb2230ea92098353891d48d4590cb2331d6c91aa1c4103457f3af6fa754e3a145e5e599896d54e801454)#vv4szjst",
            "hex": "410422f8d7d437ef2667f4dc54cf556b7531ea4927e36a87eb2230ea92098353891d48d4590cb2331d6c91aa1c4103457f3af6fa754e3a145e5e599896d54e801454ac",
            "type": "pubkey"
          }
        }
      ],
      "hex": "01000000010000000000000000000000000000000000000000000000000000000000000000ffffffff0704ffff001d011cffffffff0100f2052a0100000043410422f8d7d437ef2667f4dc54cf556b7531ea4927e36a87eb2230ea92098353891d48d4590cb2331d6c91aa1c4103457f3af6fa754e3a145e5e599896d54e801454ac00000000"
    }
  ]
}