{
  "hash": "0000000087d58cfbda325f0e0c1a6d7c9653284952a737b7a6daa048836bb423",
  "confirmations": 50808,
  "height": 2290,
  "version": 1,
  "versionHex": "00000001",
  "merkleroot": "c0bcbb06da5dd0cd9ad25861af4a7074b43f3dc80439a6ae9c10e9da44e5076d",
  "time": 1233274333,
  "mediantime": 1233270775,
  "nonce": 82572210,
  "bits": "1d00ffff",
  "difficulty": 1,
  "chainwork": "000000000000000000000000000000000000000000000000000008f308f308f3",
  "nTx": 1,
  "previousblockhash": "00000000c068202bf064552cae1c57b92fee3d24d5040f251f48a03c7217320c",
  "nextblockhash": "00000000ac60be46c3f78d9ef740ea974d910a7f51b0f0befdcfe0400469a80d",
  "strippedsize": 216,
  "size": 216,
  "weight": 864,
  "tx": [
    {
      "txid": "c0bcbb06da5dd0cd9ad25861af4a7074b43f3dc80439a6ae9c10e9da44e5076d",
      "hash": "c0bcbb06da5dd0cd9ad25861af4a7074b43f3dc80439a6ae9c10e9da44e5076d",
      "version": 1,
      "size": 135,
      "vsize": 135,
      "weight": 540,
      "locktime": 0,
      "vin": [
        {
          "coinbase": "04ffff001d025f04",
          "sequence": 4294967295
        }
      ],
      "vout": [
        {
          "value": 50.0,
          "n": 0,
          "scriptPubKey": {
            "asm": "043b983cd9f2fb7add66a3f31b0cb3cee1096694508656c7b84a9bd61967670eaa5ec9563c1e924d172b66410dbb6ca2f74585e89eeedddfba76b8139aadabc296 OP_CHECKSIG",
            "desc": "pk(043b983cd9f2fb7add66a3f31b0cb3cee1096694508656c7b84a9bd61967670eaa5ec9563c1e924d172b66410dbb6ca2f74585e89eeedddfba76b8139aadabc296)#zwn2zd46",
            "hex": "41043b983cd9f2fb7add66a3f31b0cb3cee1096694508656c7b84a9bd61967670eaa5ec9563c1e924d172b66410dbb6ca2f74585e89eeedddfba76b8139aadabc296ac",
            "type": "pubkey"
          }
        }
      ],
      "hex": "01000000010000000000000000000000000000000000000000000000000000000000000000ffffffff0804ffff001d025f04ffffffff0100f2052a010000004341043b983cd9f2fb7add66a3f31b0cb3cee1096694508656c7b84a9bd61967670eaa5ec9563c1e924d172b66410dbb6ca2f74585e89eeedddfba76b8139aadabc296ac00000000"
    }
  ]
}