{
  "hash": "00000000b55e5adaa9d5a166238486e9863f48766af2877cc9217680c30a8019",
  "confirmations": 44755,
  "height": 8343,
  "version": 1,
  "versionHex": "00000001",
  "merkleroot": "d6ba11dbe9815af8f80cf1ed5bbd14a26f47852a87531b648035488b359ca78d",
  "time": 1237760405,
  "mediantime": 1237758783,
  "nonce": 4229841181,
  "bits": "1d00ffff",
  "difficulty": 1,
  "chainwork": "0000000000000000000000000000000000000000000000000000209820982098",
  "nTx": 1,
  "previousblockhash": "0000000041e2d9a0e1a3cb1381a1797625d017df5b2e4614f48e312cbeb31046",
  "nextblockhash": "00000000ca05264d412c34fda1fd2fe2045c9e70b94e65556a6f2477a8444496",
  "strippedsize": 216,
  "size": 216,
  "weight": 864,
  "tx": [
    {
      "txid": "d6ba11dbe9815af8f80cf1ed5bbd14a26f47852a87531b648035488b359ca78d",
      "hash": "d6ba11dbe9815af8f80cf1ed5bbd14a26f47852a87531b648035488b359ca78d",
      "version": 1,
      "size": 135,
      "vsize": 135,
      "weight": 540,
      "locktime": 0,
      "vin": [
        {
          "coinbase": "04ffff001d02df04",
          "sequence": 4294967295
        }
      ],
      "vout": [
        {
          "value": 50.0,
          "n": 0,
          "scriptPubKey": {
            "asm": "04c04d92047dc66f823d2746c6828f1d427facfaf2e4eb708d725bdb21b9cb9eed5746e40878e18a4edb9686215e9131d831a14e5562fc6e3e3ea223a1aad78987 OP_CHECKSIG",
            "desc": "pk(04c04d92047dc66f823d2746c6828f1d427facfaf2e4eb708d725bdb21b9cb9eed5746e40878e18a4edb9686215e9131d831a14e5562fc6e3e3ea223a1aad78987)#dfpljm2g",
            "hex": "4104c04d92047dc66f823d2746c6828f1d427facfaf2e4eb708d725bdb21b9cb9eed5746e40878e18a4edb9686215e9131d831a14e5562fc6e3e3ea223a1aad78987ac",
            "type": "pubkey"
          }
        }
      ],
      "hex": "01000000010000000000000000000000000000000000000000000000000000000000000000ffffffff0804ffff001d02df04ffffffff0100f2052a01000000434104c04d92047dc66f823d2746c6828f1d427facfaf2e4eb708d725bdb21b9cb9eed5746e40878e18a4edb9686215e9131d831a14e5562fc6e3e3ea223a1aad78987ac00000000"
    }
  ]
}