{
  "hash": "000000002436274e351576ee5c9d6a96ce64072d02713d20c32c36bf70f9fbb5",
  "confirmations": 52522,
  "height": 576,
  "version": 1,
  "versionHex": "00000001",
  "merkleroot": "40c1585c90e2081d6e14e60952c16258b3ae2fed204d0879fda052572d03c705",
  "time": 1232020303,
  "mediantime": 1232017034,
  "nonce": 3341812250,
  "bits": "1d00ffff",
  "difficulty": 1,
  "chainwork": "0000000000000000000000000000000000000000000000000000024102410241",
  "nTx": 1,
  "previousblockhash": "00000000ecc3ba4a80a6d61ea3abc22a8fddf11d1f8019b7fbbde92e2b4dd4a8",
  "nextblockhash": "0000000011e36edf0c01ecffe36ac4be9f4674c5438d5bd02f47a59c798f663c",
  "strippedsize": 216,
  "size": 216,
  "weight": 864,
  "tx": [
    {
      "txid": "40c1585c90e2081d6e14e60952c16258b3ae2fed204d0879fda052572d03c705",
      "hash": "40c1585c90e2081d6e14e60952c16258b3ae2fed204d0879fda052572d03c705",
      "version": 1,
      "size": 135,
      "vsize": 135,
      "weight": 540,
      "locktime": 0,
      "vin": [
        {
          "coinbase": "04ffff001d021b06",
          "sequence": 4294967295
        }
      ],
      "vout": [
        {
          "value": 50.0,
          "n": 0,
          "scriptPubKey": {
            "asm": "0495505067e8552c07e35da32c939916fa5f44964289a91fbf84a4b59166b8edc56d9c6f72a7c35002b972160816c8e5ccf1698cb8622287283dac3c641f1b4ecf OP_CHECKSIG",
            "desc": "pk(0495505067e8552c07e35da32c939916fa5f44964289a91fbf84a4b59166b8edc56d9c6f72a7c35002b972160816c8e5ccf1698cb8622287283dac3c641f1b4ecf)#umqz75h7",
            "hex": "410495505067e8552c07e35da32c939916fa5f44964289a91fbf84a4b59166b8edc56d9c6f72a7c35002b972160816c8e5ccf1698cb8622287283dac3c641f1b4ecfac",
            "type": "pubkey"
          }
        }
      ],
      "hex": "01000000010000000000000000000000000000000000000000000000000000000000000000ffffffff0804ffff001d021b06ffffffff0100f2052a0100000043410495505067e8552c07e35da32c939916fa5f44964289a91fbf84a4b59166b8edc56d9c6f72a7c35002b972160816c8e5ccf1698cb8622287283dac3c641f1b4ecfac00000000"
    }
  ]
}