{
  "hash": "000000006f2f3682ed2b5d209f26d9123bb9de156c6e9efcab1388923de9ac0a",
  "confirmations": 51646,
  "height": 1452,
  "version": 1,
  "versionHex": "00000001",
  "merkleroot": "979c4b8415e47983ddb90c9d64e5fd0d9851aa5142ea65f975205498569f1349",
  "time": 1232747990,
  "mediantime": 1232745465,
  "nonce": 3751744051,
  "bits": "1d00ffff",
  "difficulty": 1,
  "chainwork": "000000000000000000000000000000000000000000000000000005ad05ad05ad",
  "nTx": 1,
  "previousblockhash": "00000000c86e77bff65887d244809851ea3904abea3dad02857e782ffda469aa",
  "nextblockhash": "00000000f9dc03c47f0e89c002134d1fbfd9b3e6c3011b74f1ab6a23823cb2d0",
  "strippedsize": 216,
  "size": 216,
  "weight": 864,
  "tx": [
    {
      "txid": "979c4b8415e47983ddb90c9d64e5fd0d9851aa5142ea65f975205498569f1349",
      "hash": "979c4b8415e47983ddb90c9d64e5fd0d9851aa5142ea65f975205498569f1349",
      "version": 1,
      "size": 135,
      "vsize": 135,
      "weight": 540,
      "locktime": 0,
      "vin": [
        {
          "coinbase": "04ffff001d02b000",
          "sequence": 4294967295
        }
      ],
      "vout": [
        {
          "value": 50.0,
          "n": 0,
          "scriptPubKey": {
            "asm": "04b7e09d59b91de10cfe5a71ab4d5ff408852d4a43596617391127e78482b04d93ae13b1db649874127bc2ce32a6a1e5aa9f04ab3b9284cc1d0900cad9ce7332e7 OP_CHECKSIG",
            "desc": "pk(04b7e09d59b91de10cfe5a71ab4d5ff408852d4a43596617391127e78482b04d93ae13b1db649874127bc2ce32a6a1e5aa9f04ab3b9284cc1d0900cad9ce7332e7)#8g2jyx2e",
            "hex": "4104b7e09d59b91de10cfe5a71ab4d5ff408852d4a43596617391127e78482b04d93ae13b1db649874127bc2ce32a6a1e5aa9f04ab3b9284cc1d0900cad9ce7332e7ac",
            "type": "pubkey"
          }
        }
      ],
      "hex": "01000000010000000000000000000000000000000000000000000000000000000000000000ffffffff0804ffff001d02b000ffffffff0100f2052a01000000434104b7e09d59b91de10cfe5a71ab4d5ff408852d4a43596617391127e78482b04d93ae13b1db649874127bc2ce32a6a1e5aa9f04ab3b9284cc1d0900cad9ce7332e7ac00000000"
    }
  ]
}