{
  "hash": "00000000b2d28b4761a6095a53d575c891e50f0f85a26533c5c50ef7b57eff41",
  "confirmations": 47716,
  "height": 5382,
  "version": 1,
  "versionHex": "00000001",
  "merkleroot": "939604426ac9def4f4157264b727aa56eac2ce177ce70e130f005839042496dc",
  "time": 1235425115,
  "mediantime": 1235422034,
  "nonce": 4218786068,
  "bits": "1d00ffff",
  "difficulty": 1,
  "chainwork": "0000000000000000000000000000000000000000000000000000150715071507",
  "nTx": 1,
  "previousblockhash": "00000000b9244e69cd68d3c510602c033b92bac6e517a37794c211f7b7007798",
  "nextblockhash": "00000000d05b89758ca277b9b50d17fcf8f1372a037eed3ed369a508512aed4a",
  "strippedsize": 216,
  "size": 216,
  "weight": 864,
  "tx": [
    {
      "txid": "939604426ac9def4f4157264b727aa56eac2ce177ce70e130f005839042496dc",
      "hash": "939604426ac9def4f4157264b727aa56eac2ce177ce70e130f005839042496dc",
      "version": 1,
      "size": 135,
      "vsize": 135,
      "weight": 540,
      "locktime": 0,
      "vin": [
        {
          "coinbase": "04ffff001d025f03",
          "sequence": 4294967295
        }
      ],
      "vout": [
        {
          "value": 50.0,
          "n": 0,
          "scriptPubKey": {
            "asm": "047b518a73e936845338107ec940ede280f23af85bcbb8f15003ee6dadef99c65f1bbbc4d40e8178d1694025ccfa9d03b298959a345d320faf5a18249aa38af538 OP_CHECKSIG",
            "desc": "pk(047b518a73e936845338107ec940ede280f23af85bcbb8f15003ee6dadef99c65f1bbbc4d40e8178d1694025ccfa9d03b298959a345d320faf5a18249aa38af538)#y7a9kuxj",
            "hex": "41047b518a73e936845338107ec940ede280f23af85bcbb8f15003ee6dadef99c65f1bbbc4d40e8178d1694025ccfa9d03b298959a345d320faf5a18249aa38af538ac",
            "type": "pubkey"
          }
        }
      ],
      "hex": "01000000010000000000000000000000000000000000000000000000000000000000000000ffffffff0804ffff001d025f03ffffffff0100f2052a010000004341047b518a73e936845338107ec940ede280f23af85bcbb8f15003ee6dadef99c65f1bbbc4d40e8178d1694025ccfa9d03b298959a345d320faf5a18249aa38af538ac00000000"
    }
  ]
}