{
  "hash": "00000000eddcc4c5f55ca8e83f7b01e173b388a67c61ad4eef0b595985205074",
  "confirmations": 43654,
  "height": 9444,
  "version": 1,
  "versionHex": "00000001",
  "merkleroot": "20ed46c715412bc8b258d2d7866501082d35af38af46c030507cc53d96fbd0d7",
  "time": 1238587430,
  "mediantime": 1238583845,
  "nonce": 2795954219,
  "bits": "1d00ffff",
  "difficulty": 1,
  "chainwork": "000000000000000000000000000000000000000000000000000024e524e524e5",
  "nTx": 1,
  "previousblockhash": "00000000333871bd7aaa5cdacffba04f16b17b060ccaeffb9977dc3aa158a5b6",
  "nextblockhash": "000000003cf7ecb6f1ea1e2d55062c95a32b676181385136d12310fbb71e5c7f",
  "strippedsize": 216,
  "size": 216,
  "weight": 864,
  "tx": [
    {
      "txid": "20ed46c715412bc8b258d2d7866501082d35af38af46c030507cc53d96fbd0d7",
      "hash": "20ed46c715412bc8b258d2d7866501082d35af38af46c030507cc53d96fbd0d7",
      "version": 1,
      "size": 135,
      "vsize": 135,
      "weight": 540,
      "locktime": 0,
      "vin": [
        {
          "coinbase": "04ffff001d028504",
          "sequence": 4294967295
        }
      ],
      "vout": [
        {
          "value": 50.0,
          "n": 0,
          "scriptPubKey": {
            "asm": "04ec8d363c5911f648d0c4ec2866fb665ce54f8e6847c18ebfb50c8359a10c1ab9e956ccf16721b5cfebcc0d19a6391e49e19210386c7ad5a871c132cbc79b85d2 OP_CHECKSIG",
            "desc": "pk(04ec8d363c5911f648d0c4ec2866fb665ce54f8e6847c18ebfb50c8359a10c1ab9e956ccf16721b5cfebcc0d19a6391e49e19210386c7ad5a871c132cbc79b85d2)#8aevx3pw",
            "hex": "4104ec8d363c5911f648d0c4ec2866fb665ce54f8e6847c18ebfb50c8359a10c1ab9e956ccf16721b5cfebcc0d19a6391e49e19210386c7ad5a871c132cbc79b85d2ac",
            "type": "pubkey"
          }
        }
      ],
      "hex": "01000000010000000000000000000000000000000000000000000000000000000000000000ffffffff0804ffff001d028504ffffffff0100f2052a01000000434104ec8d363c5911f648d0c4ec2866fb665ce54f8e6847c18ebfb50c8359a10c1ab9e956ccf16721b5cfebcc0d19a6391e49e19210386c7ad5a871c132cbc79b85d2ac00000000"
    }
  ]
}