{
  "hash": "00000000740acadf4cce36a0d8d7616f64a7b1fdad10aa93fd33e36bde2a67fc",
  "confirmations": 52182,
  "height": 916,
  "version": 1,
  "versionHex": "00000001",
  "merkleroot": "468340002803a8db9740ffd3a9af7a3d9bb278158acb5179a0e7d48dc0713b40",
  "time": 1232288674,
  "mediantime": 1232285076,
  "nonce": 429738275,
  "bits": "1d00ffff",
  "difficulty": 1,
  "chainwork": "0000000000000000000000000000000000000000000000000000039503950395",
  "nTx": 1,
  "previousblockhash": "00000000170dacd25631952163cce7b2fbffcb7e0b63aacea2a1b16d52dac3a8",
  "nextblockhash": "0000000079fe2d3adf72263777b6b47778870f959fc9b3a4ba10be2ce320c734",
  "strippedsize": 216,
  "size": 216,
  "weight": 864,
  "tx": [
    {
      "txid": "468340002803a8db9740ffd3a9af7a3d9bb278158acb5179a0e7d48dc0713b40",
      "hash": "468340002803a8db9740ffd3a9af7a3d9bb278158acb5179a0e7d48dc0713b40",
      "version": 1,
      "size": 135,
      "vsize": 135,
      "weight": 540,
      "locktime": 0,
      "vin": [
        {
          "coinbase": "04ffff001d02da03",
          "sequence": 4294967295
        }
      ],
      "vout": [
        {
          "value": 50.0,
          "n": 0,
          "scriptPubKey": {
            "asm": "041124ed04a72250d8efed5e3a9cd0321a9e956842661a035272760214a70c865cb815985271b6120197e5b27ae82283cb52048d7bc98b70c1594baa86dfc3b32c OP_CHECKSIG",
            "desc": "pk(041124ed04a72250d8efed5e3a9cd0321a9e956842661a035272760214a70c865cb815985271b6120197e5b27ae82283cb52048d7bc98b70c1594baa86dfc3b32c)#9940vrk8",
            "hex": "41041124ed04a72250d8efed5e3a9cd0321a9e956842661a035272760214a70c865cb815985271b6120197e5b27ae82283cb52048d7bc98b70c1594baa86dfc3b32cac",
            "type": "pubkey"
          }
        }
      ],
      "hex": "01000000010000000000000000000000000000000000000000000000000000000000000000ffffffff0804ffff001d02da03ffffffff0100f2052a010000004341041124ed04a72250d8efed5e3a9cd0321a9e956842661a035272760214a70c865cb815985271b6120197e5b27ae82283cb52048d7bc98b70c1594baa86dfc3b32cac00000000"
    }
  ]
}