{
  "hash": "00000000dc854870a02ac502cdd732644eea099008b518985da6d76015db2bdf",
  "confirmations": 52029,
  "height": 229,
  "version": 1,
  "versionHex": "00000001",
  "merkleroot": "d82145d84af01f21077245f83081d0367e366c359d052a648eec97a51152e952",
  "time": 1231775577,
  "mediantime": 1231771689,
  "nonce": 628211764,
  "bits": "1d00ffff",
  "difficulty": 1,
  "chainwork": "000000000000000000000000000000000000000000000000000000e600e600e6",
  "nTx": 1,
  "previousblockhash": "0000000057fe26eebfbe0d0b7bfca14afee147973eef16350c8e6b9fde49343a",
  "nextblockhash": "00000000a7494fded2b0cc826dd1c58f1c383714f2de0449a3a3643ead5452c2",
  "strippedsize": 216,
  "size": 216,
  "weight": 864,
  "tx": [
    {
      "txid": "d82145d84af01f21077245f83081d0367e366c359d052a648eec97a51152e952",
      "hash": "d82145d84af01f21077245f83081d0367e366c359d052a648eec97a51152e952",
      "version": 1,
      "size": 135,
      "vsize": 135,
      "weight": 540,
      "locktime": 0,
      "vin": [
        {
          "coinbase": "04ffff001d02c900",
          "sequence": 4294967295
        }
      ],
      "vout": [
        {
          "value": 50.0,
          "n": 0,
          "scriptPubKey": {
            "asm": "043be958963585c925180a4330d7f845275c7021957f17176b21f94d2660132ee4237cd1aa83f4dae4c030700590985f9418913e4829a5552c9ca268e1bb21b821 OP_CHECKSIG",
            "desc": "pk(043be958963585c925180a4330d7f845275c7021957f17176b21f94d2660132ee4237cd1aa83f4dae4c030700590985f9418913e4829a5552c9ca268e1bb21b821)#k47pmqmv",
            "hex": "41043be958963585c925180a4330d7f845275c7021957f17176b21f94d2660132ee4237cd1aa83f4dae4c030700590985f9418913e4829a5552c9ca268e1bb21b821ac",
            "type": "pubkey"
          }
        }
      ],
      "hex": "01000000010000000000000000000000000000000000000000000000000000000000000000ffffffff0804ffff001d02c900ffffffff0100f2052a010000004341043be958963585c925180a4330d7f845275c7021957f17176b21f94d2660132ee4237cd1aa83f4dae4c030700590985f9418913e4829a5552c9ca268e1bb21b821ac00000000"
    }
  ]
}