{
  "hash": "00000000ddfdd23a02d2ddea4b8b2fae6e9c87eb90a8661f7abfd14951e2ea36",
  "confirmations": 44425,
  "height": 8673,
  "version": 1,
  "versionHex": "00000001",
  "merkleroot": "e559303738e78e3a59754a7e72887c8bf2098466a8d8ebe9f6f1c71e0568ea90",
  "time": 1238002943,
  "mediantime": 1237998313,
  "nonce": 606417444,
  "bits": "1d00ffff",
  "difficulty": 1,
  "chainwork": "000000000000000000000000000000000000000000000000000021e221e221e2",
  "nTx": 1,
  "previousblockhash": "000000009233dc3a755c9689af97888d3c798993129f5bb989052151bc26d4a4",
  "nextblockhash": "000000007849dc16023dfb9a6b60cf73e13d507ca7de65697f32f9917aa91925",
  "strippedsize": 215,
  "size": 215,
  "weight": 860,
  "tx": [
    {
      "txid": "e559303738e78e3a59754a7e72887c8bf2098466a8d8ebe9f6f1c71e0568ea90",
      "hash": "e559303738e78e3a59754a7e72887c8bf2098466a8d8ebe9f6f1c71e0568ea90",
      "version": 1,
      "size": 134,
      "vsize": 134,
      "weight": 536,
      "locktime": 0,
      "vin": [
        {
          "coinbase": "04ffff001d0166",
          "sequence": 4294967295
        }
      ],
      "vout": [
        {
          "value": 50.0,
          "n": 0,
          "scriptPubKey": {
            "asm": "04a29a55bf2a8eb7bd267676970f73c2ba457744c42fdf1c60b1d708aa2b8859377d0b66dd4b4d482b95f06147241d2e5e79ddbf1b8c8c255dcad6ae2bff330887 OP_CHECKSIG",
            "desc": "pk(04a29a55bf2a8eb7bd267676970f73c2ba457744c42fdf1c60b1d708aa2b8859377d0b66dd4b4d482b95f06147241d2e5e79ddbf1b8c8c255dcad6ae2bff330887)#48kznvjj",
            "hex": "4104a29a55bf2a8eb7bd267676970f73c2ba457744c42fdf1c60b1d708aa2b8859377d0b66dd4b4d482b95f06147241d2e5e79ddbf1b8c8c255dcad6ae2bff330887ac",
            "type": "pubkey"
          }
        }
      ],
      "hex": "01000000010000000000000000000000000000000000000000000000000000000000000000ffffffff0704ffff001d0166ffffffff0100f2052a01000000434104a29a55bf2a8eb7bd267676970f73c2ba457744c42fdf1c60b1d708aa2b8859377d0b66dd4b4d482b95f06147241d2e5e79ddbf1b8c8c255dcad6ae2bff330887ac00000000"
    }
  ]
}