{
  "hash": "000000008f858bef0b058c6d32680ccdb7d1bf4c35e97bd73fbe1b42f5069829",
  "confirmations": 52324,
  "height": 774,
  "version": 1,
  "versionHex": "00000001",
  "merkleroot": "792dc28a543efca217374b4a802e0c88506fde8bc7bbffba4890b2726e126009",
  "time": 1232169696,
  "mediantime": 1232166977,
  "nonce": 234909223,
  "bits": "1d00ffff",
  "difficulty": 1,
  "chainwork": "0000000000000000000000000000000000000000000000000000030703070307",
  "nTx": 1,
  "previousblockhash": "000000004d3ef3521bfb87c9b184f61a6658d55383fc313923a1c8899b9c0163",
  "nextblockhash": "00000000284439b700b0f546c490020308dde23bf72f1ee15253af6bdd19468d",
  "strippedsize": 216,
  "size": 216,
  "weight": 864,
  "tx": [
    {
      "txid": "792dc28a543efca217374b4a802e0c88506fde8bc7bbffba4890b2726e126009",
      "hash": "792dc28a543efca217374b4a802e0c88506fde8bc7bbffba4890b2726e126009",
      "version": 1,
      "size": 135,
      "vsize": 135,
      "weight": 540,
      "locktime": 0,
      "vin": [
        {
          "coinbase": "04ffff001d02fb00",
          "sequence": 4294967295
        }
      ],
      "vout": [
        {
          "value": 50.0,
          "n": 0,
          "scriptPubKey": {
            "asm": "04d60376f495f32c4d9e0e3d42a0b93d1b722497a09f7119ea856b75efcd5b867be001cc4a3b3ff65c6e25d203c7e041f2fae445e86321229dfe93ce95eb99c464 OP_CHECKSIG",
            "desc": "pk(04d60376f495f32c4d9e0e3d42a0b93d1b722497a09f7119ea856b75efcd5b867be001cc4a3b3ff65c6e25d203c7e041f2fae445e86321229dfe93ce95eb99c464)#f3h8semy",
            "hex": "4104d60376f495f32c4d9e0e3d42a0b93d1b722497a09f7119ea856b75efcd5b867be001cc4a3b3ff65c6e25d203c7e041f2fae445e86321229dfe93ce95eb99c464ac",
            "type": "pubkey"
          }
        }
      ],
      "hex": "01000000010000000000000000000000000000000000000000000000000000000000000000ffffffff0804ffff001d02fb00ffffffff0100f2052a01000000434104d60376f495f32c4d9e0e3d42a0b93d1b722497a09f7119ea856b75efcd5b867be001cc4a3b3ff65c6e25d203c7e041f2fae445e86321229dfe93ce95eb99c464ac00000000"
    }
  ]
}