{
  "hash": "00000000a8eb67a3850b2a212994caf169bd08e56841d1777ed40e3057818fff",
  "confirmations": 52567,
  "height": 531,
  "version": 1,
  "versionHex": "00000001",
  "merkleroot": "6a88880a33d8b5915704f921583189270381f85eae48087f7790aca5f291bfb2",
  "time": 1231989040,
  "mediantime": 1231985645,
  "nonce": 4249996831,
  "bits": "1d00ffff",
  "difficulty": 1,
  "chainwork": "0000000000000000000000000000000000000000000000000000021402140214",
  "nTx": 1,
  "previousblockhash": "0000000012ac8aedef5fb255a9a01f52d2292c5af21c737eaba1ef05e2c9c136",
  "nextblockhash": "0000000054dfed74457e592658485bb93f60e7e608c815f093e1d59106ab74e4",
  "strippedsize": 216,
  "size": 216,
  "weight": 864,
  "tx": [
    {
      "txid": "6a88880a33d8b5915704f921583189270381f85eae48087f7790aca5f291bfb2",
      "hash": "6a88880a33d8b5915704f921583189270381f85eae48087f7790aca5f291bfb2",
      "version": 1,
      "size": 135,
      "vsize": 135,
      "weight": 540,
      "locktime": 0,
      "vin": [
        {
          "coinbase": "04ffff001d022305",
          "sequence": 4294967295
        }
      ],
      "vout": [
        {
          "value": 50.0,
          "n": 0,
          "scriptPubKey": {
            "asm": "04ab40221b11b9c6d290f327e2a1aa5c9a38c7ed6f0f15ea47e675054dc2078db34e0b3946a4993a37d46a9a41f99740c66368839672949001f6f2cad722d6021a OP_CHECKSIG",
            "desc": "pk(04ab40221b11b9c6d290f327e2a1aa5c9a38c7ed6f0f15ea47e675054dc2078db34e0b3946a4993a37d46a9a41f99740c66368839672949001f6f2cad722d6021a)#xacnrqyu",
            "hex": "4104ab40221b11b9c6d290f327e2a1aa5c9a38c7ed6f0f15ea47e675054dc2078db34e0b3946a4993a37d46a9a41f99740c66368839672949001f6f2cad722d6021aac",
            "type": "pubkey"
          }
        }
      ],
      "hex": "01000000010000000000000000000000000000000000000000000000000000000000000000ffffffff0804ffff001d022305ffffffff0100f2052a01000000434104ab40221b11b9c6d290f327e2a1aa5c9a38c7ed6f0f15ea47e675054dc2078db34e0b3946a4993a37d46a9a41f99740c66368839672949001f6f2cad722d6021aac00000000"
    }
  ]
}