{
  "hash": "000000008393f20762c0fe982f60c125d3c29d549223caddcd30bed2123fed4f",
  "confirmations": 46968,
  "height": 6130,
  "version": 1,
  "versionHex": "00000001",
  "merkleroot": "f4777dcac6ec3f26b5dea03644df6f2049befc2f2718e203f3627dc06d3d1e9d",
  "time": 1236031802,
  "mediantime": 1236029189,
  "nonce": 786326786,
  "bits": "1d00ffff",
  "difficulty": 1,
  "chainwork": "000000000000000000000000000000000000000000000000000017f317f317f3",
  "nTx": 1,
  "previousblockhash": "000000005e5637239855db5d7eae501fe0baf795efdbf279d495e12d273bc012",
  "nextblockhash": "00000000e5a432606e00173535adf891aed6e759d2a45b9a6c2988c3f8e70a3c",
  "strippedsize": 216,
  "size": 216,
  "weight": 864,
  "tx": [
    {
      "txid": "f4777dcac6ec3f26b5dea03644df6f2049befc2f2718e203f3627dc06d3d1e9d",
      "hash": "f4777dcac6ec3f26b5dea03644df6f2049befc2f2718e203f3627dc06d3d1e9d",
      "version": 1,
      "size": 135,
      "vsize": 135,
      "weight": 540,
      "locktime": 0,
      "vin": [
        {
          "coinbase": "04ffff001d025b07",
          "sequence": 4294967295
        }
      ],
      "vout": [
        {
          "value": 50.0,
          "n": 0,
          "scriptPubKey": {
            "asm": "040ccac3bb7b8136c49af0fadd100f95313adfb609776c212f02d8221a52767990691c8fda12248b6498b25080bfa17ce8e8889c8ec75e197e289103d404f7b483 OP_CHECKSIG",
            "desc": "pk(040ccac3bb7b8136c49af0fadd100f95313adfb609776c212f02d8221a52767990691c8fda12248b6498b25080bfa17ce8e8889c8ec75e197e289103d404f7b483)#ufcymalh",
            "hex": "41040ccac3bb7b8136c49af0fadd100f95313adfb609776c212f02d8221a52767990691c8fda12248b6498b25080bfa17ce8e8889c8ec75e197e289103d404f7b483ac",
            "type": "pubkey"
          }
        }
      ],
      "hex": "01000000010000000000000000000000000000000000000000000000000000000000000000ffffffff0804ffff001d025b07ffffffff0100f2052a010000004341040ccac3bb7b8136c49af0fadd100f95313adfb609776c212f02d8221a52767990691c8fda12248b6498b25080bfa17ce8e8889c8ec75e197e289103d404f7b483ac00000000"
    }
  ]
}