{
  "hash": "000000009219bca826bc9591dee62fa035752dadba2f17cfc6875588ca2d3fc8",
  "confirmations": 47259,
  "height": 5839,
  "version": 1,
  "versionHex": "00000001",
  "merkleroot": "8b05e8a96592f433930b94d2154f99ea3b8f96c47855905aa7e241da18bec16e",
  "time": 1235792371,
  "mediantime": 1235787150,
  "nonce": 972986650,
  "bits": "1d00ffff",
  "difficulty": 1,
  "chainwork": "000000000000000000000000000000000000000000000000000016d016d016d0",
  "nTx": 1,
  "previousblockhash": "00000000d188d05f2306af5933485804e8849e5d56d7818f769b7f028e938daf",
  "nextblockhash": "000000007f87a3fc3a4c47760cd2e6df646be144198714dc1ba6240eb90ef35e",
  "strippedsize": 216,
  "size": 216,
  "weight": 864,
  "tx": [
    {
      "txid": "8b05e8a96592f433930b94d2154f99ea3b8f96c47855905aa7e241da18bec16e",
      "hash": "8b05e8a96592f433930b94d2154f99ea3b8f96c47855905aa7e241da18bec16e",
      "version": 1,
      "size": 135,
      "vsize": 135,
      "weight": 540,
      "locktime": 0,
      "vin": [
        {
          "coinbase": "04ffff001d028001",
          "sequence": 4294967295
        }
      ],
      "vout": [
        {
          "value": 50.0,
          "n": 0,
          "scriptPubKey": {
            "asm": "0462c5874988bf73621b8b46d7469edb74304d4df66c259653018a16b95ba7ce0111b9af3ac091ec12f8686a193442a628a85b810b9080a8fe2b3deeb8a7f34375 OP_CHECKSIG",
            "desc": "pk(0462c5874988bf73621b8b46d7469edb74304d4df66c259653018a16b95ba7ce0111b9af3ac091ec12f8686a193442a628a85b810b9080a8fe2b3deeb8a7f34375)#h7ampqjt",
            "hex": "410462c5874988bf73621b8b46d7469edb74304d4df66c259653018a16b95ba7ce0111b9af3ac091ec12f8686a193442a628a85b810b9080a8fe2b3deeb8a7f34375ac",
            "type": "pubkey"
          }
        }
      ],
      "hex": "01000000010000000000000000000000000000000000000000000000000000000000000000ffffffff0804ffff001d028001ffffffff0100f2052a0100000043410462c5874988bf73621b8b46d7469edb74304d4df66c259653018a16b95ba7ce0111b9af3ac091ec12f8686a193442a628a85b810b9080a8fe2b3deeb8a7f34375ac00000000"
    }
  ]
}