{
  "hash": "0000000063ea2e3ce28c3b9e502491af8da703ae41980c39b6be0ee383239179",
  "confirmations": 48962,
  "height": 4136,
  "version": 1,
  "versionHex": "00000001",
  "merkleroot": "f6c84f1d11e3d1708402e93e161bdd7697414035a584b42f7a7c1af5733e45b9",
  "time": 1234538603,
  "mediantime": 1234534932,
  "nonce": 2818789143,
  "bits": "1d00ffff",
  "difficulty": 1,
  "chainwork": "0000000000000000000000000000000000000000000000000000102910291029",
  "nTx": 1,
  "previousblockhash": "00000000e509664c7f625d7e7d67ac8d10a15997198753aef1b42d918590cc7a",
  "nextblockhash": "00000000097559226f21bad95c5376d61ffab63da57945e9d42292100a4dffbe",
  "strippedsize": 216,
  "size": 216,
  "weight": 864,
  "tx": [
    {
      "txid": "f6c84f1d11e3d1708402e93e161bdd7697414035a584b42f7a7c1af5733e45b9",
      "hash": "f6c84f1d11e3d1708402e93e161bdd7697414035a584b42f7a7c1af5733e45b9",
      "version": 1,
      "size": 135,
      "vsize": 135,
      "weight": 540,
      "locktime": 0,
      "vin": [
        {
          "coinbase": "04ffff001d026106",
          "sequence": 4294967295
        }
      ],
      "vout": [
        {
          "value": 50.0,
          "n": 0,
          "scriptPubKey": {
            "asm": "043089e856ff7acbe057a1df18e82625eb11f32b4a15c308d42a3ecc89f56a10cbf170b413ea18e07f64cab3112ada5d4fbbe8711c8640a8666235b6c1ad03b2c6 OP_CHECKSIG",
            "desc": "pk(043089e856ff7acbe057a1df18e82625eb11f32b4a15c308d42a3ecc89f56a10cbf170b413ea18e07f64cab3112ada5d4fbbe8711c8640a8666235b6c1ad03b2c6)#cplskynu",
            "hex": "41043089e856ff7acbe057a1df18e82625eb11f32b4a15c308d42a3ecc89f56a10cbf170b413ea18e07f64cab3112ada5d4fbbe8711c8640a8666235b6c1ad03b2c6ac",
            "type": "pubkey"
          }
        }
      ],
      "hex": "01000000010000000000000000000000000000000000000000000000000000000000000000ffffffff0804ffff001d026106ffffffff0100f2052a010000004341043089e856ff7acbe057a1df18e82625eb11f32b4a15c308d42a3ecc89f56a10cbf170b413ea18e07f64cab3112ada5d4fbbe8711c8640a8666235b6c1ad03b2c6ac00000000"
    }
  ]
}