{
  "hash": "00000000941c213fe9c2e0144ab9ef19068acdbba8b394e77407e779b5728138",
  "confirmations": 44001,
  "height": 9097,
  "version": 1,
  "versionHex": "00000001",
  "merkleroot": "81aa160833b47dca45fe2a531d132a972cb6841ce06cb2264aca26f94e80588d",
  "time": 1238328548,
  "mediantime": 1238326219,
  "nonce": 1181008682,
  "bits": "1d00ffff",
  "difficulty": 1,
  "chainwork": "0000000000000000000000000000000000000000000000000000238a238a238a",
  "nTx": 1,
  "previousblockhash": "000000000a19c798c579dede01a40639ad01dc5235ba4a7a6df354279257daf4",
  "nextblockhash": "000000008322a2d1dabcacd02e3f54e4007d250ec34c12a53b7dc64ea9e25fa3",
  "strippedsize": 216,
  "size": 216,
  "weight": 864,
  "tx": [
    {
      "txid": "81aa160833b47dca45fe2a531d132a972cb6841ce06cb2264aca26f94e80588d",
      "hash": "81aa160833b47dca45fe2a531d132a972cb6841ce06cb2264aca26f94e80588d",
      "version": 1,
      "size": 135,
      "vsize": 135,
      "weight": 540,
      "locktime": 0,
      "vin": [
        {
          "coinbase": "04ffff001d023f08",
          "sequence": 4294967295
        }
      ],
      "vout": [
        {
          "value": 50.0,
          "n": 0,
          "scriptPubKey": {
            "asm": "04b7ecbe081cf25b9da89c971312b9c17f21691910cac1124a93cddd2bd6a5714f0c3dac05b6e1791331f20821d2b2a731d2548c9522c43239d5071ac096f360ba OP_CHECKSIG",
            "desc": "pk(04b7ecbe081cf25b9da89c971312b9c17f21691910cac1124a93cddd2bd6a5714f0c3dac05b6e1791331f20821d2b2a731d2548c9522c43239d5071ac096f360ba)#qflf43jv",
            "hex": "4104b7ecbe081cf25b9da89c971312b9c17f21691910cac1124a93cddd2bd6a5714f0c3dac05b6e1791331f20821d2b2a731d2548c9522c43239d5071ac096f360baac",
            "type": "pubkey"
          }
        }
      ],
      "hex": "01000000010000000000000000000000000000000000000000000000000000000000000000ffffffff0804ffff001d023f08ffffffff0100f2052a01000000434104b7ecbe081cf25b9da89c971312b9c17f21691910cac1124a93cddd2bd6a5714f0c3dac05b6e1791331f20821d2b2a731d2548c9522c43239d5071ac096f360baac00000000"
    }
  ]
}