{
  "hash": "0000000014a04e29a42928c4c640f51fa022cc822b31fce4f0146bcf60abdbc1",
  "confirmations": 47445,
  "height": 5653,
  "version": 1,
  "versionHex": "00000001",
  "merkleroot": "276d167ebbb6511ebc53e72dda52d875a01f4c61c82a0f6c50a7035ecfbff95b",
  "time": 1235650327,
  "mediantime": 1235646651,
  "nonce": 3448630,
  "bits": "1d00ffff",
  "difficulty": 1,
  "chainwork": "0000000000000000000000000000000000000000000000000000161616161616",
  "nTx": 1,
  "previousblockhash": "00000000b597abb6793895fe263735d2337b3eba34c78b6e8ccdc6efc8c078a8",
  "nextblockhash": "00000000f57b72d02f4e1e00ac446de10f311caad10c45c8dd97301bad27ab5d",
  "strippedsize": 216,
  "size": 216,
  "weight": 864,
  "tx": [
    {
      "txid": "276d167ebbb6511ebc53e72dda52d875a01f4c61c82a0f6c50a7035ecfbff95b",
      "hash": "276d167ebbb6511ebc53e72dda52d875a01f4c61c82a0f6c50a7035ecfbff95b",
      "version": 1,
      "size": 135,
      "vsize": 135,
      "weight": 540,
      "locktime": 0,
      "vin": [
        {
          "coinbase": "04ffff001d02b608",
          "sequence": 4294967295
        }
      ],
      "vout": [
        {
          "value": 50.0,
          "n": 0,
          "scriptPubKey": {
            "asm": "04b068c808d8f30008289a25a295bc0a969384cc8aae76046d8fdc21fd8f58762ba659da42d6c3be02ec986f151e5e2b45d7db89caa24760b75a815e9d1bea696c OP_CHECKSIG",
            "desc": "pk(04b068c808d8f30008289a25a295bc0a969384cc8aae76046d8fdc21fd8f58762ba659da42d6c3be02ec986f151e5e2b45d7db89caa24760b75a815e9d1bea696c)#tm7ltm6c",
            "hex": "4104b068c808d8f30008289a25a295bc0a969384cc8aae76046d8fdc21fd8f58762ba659da42d6c3be02ec986f151e5e2b45d7db89caa24760b75a815e9d1bea696cac",
            "type": "pubkey"
          }
        }
      ],
      "hex": "01000000010000000000000000000000000000000000000000000000000000000000000000ffffffff0804ffff001d02b608ffffffff0100f2052a01000000434104b068c808d8f30008289a25a295bc0a969384cc8aae76046d8fdc21fd8f58762ba659da42d6c3be02ec986f151e5e2b45d7db89caa24760b75a815e9d1bea696cac00000000"
    }
  ]
}