{
  "hash": "00000000c30fa668881fa6feac36d66ded25a322e0ddc3304d60472b41d4bedb",
  "confirmations": 44630,
  "height": 8468,
  "version": 1,
  "versionHex": "00000001",
  "merkleroot": "ca563b6294dcca44a42ec01bf0fc1c31b06cfbc5945c0cffdf5d4ea828593228",
  "time": 1237843528,
  "mediantime": 1237840358,
  "nonce": 1261707320,
  "bits": "1d00ffff",
  "difficulty": 1,
  "chainwork": "0000000000000000000000000000000000000000000000000000211521152115",
  "nTx": 1,
  "previousblockhash": "00000000ea4bee90153cf8ec446427110d978bcb3b157b6199dacac92e8b9858",
  "nextblockhash": "00000000851624ac180d0f9a3a177284acef027c12821b0905c8b5c2e50e4e34",
  "strippedsize": 216,
  "size": 216,
  "weight": 864,
  "tx": [
    {
      "txid": "ca563b6294dcca44a42ec01bf0fc1c31b06cfbc5945c0cffdf5d4ea828593228",
      "hash": "ca563b6294dcca44a42ec01bf0fc1c31b06cfbc5945c0cffdf5d4ea828593228",
      "version": 1,
      "size": 135,
      "vsize": 135,
      "weight": 540,
      "locktime": 0,
      "vin": [
        {
          "coinbase": "04ffff001d021407",
          "sequence": 4294967295
        }
      ],
      "vout": [
        {
          "value": 50.0,
          "n": 0,
          "scriptPubKey": {
            "asm": "0403b8e7f10e239232a053034db528b942c2025536eb29876df8cd75369522f0edb4d7bb7b1dd637ccf5c5b16db770f1d50b17f2bc263a3899d73daa30e5abef9f OP_CHECKSIG",
            "desc": "pk(0403b8e7f10e239232a053034db528b942c2025536eb29876df8cd75369522f0edb4d7bb7b1dd637ccf5c5b16db770f1d50b17f2bc263a3899d73daa30e5abef9f)#tucyuf38",
            "hex": "410403b8e7f10e239232a053034db528b942c2025536eb29876df8cd75369522f0edb4d7bb7b1dd637ccf5c5b16db770f1d50b17f2bc263a3899d73daa30e5abef9fac",
            "type": "pubkey"
          }
        }
      ],
      "hex": "01000000010000000000000000000000000000000000000000000000000000000000000000ffffffff0804ffff001d021407ffffffff0100f2052a0100000043410403b8e7f10e239232a053034db528b942c2025536eb29876df8cd75369522f0edb4d7bb7b1dd637ccf5c5b16db770f1d50b17f2bc263a3899d73daa30e5abef9fac00000000"
    }
  ]
}