{
  "hash": "0000000059ca1017ff6862865f8e3faaa75d57e64b7dd23d223e964bca250cc1",
  "confirmations": 51153,
  "height": 1945,
  "version": 1,
  "versionHex": "00000001",
  "merkleroot": "86aca47e549394fa316d242e952715ac80a927bcc69b46f949fa5824dae0605a",
  "time": 1233004161,
  "mediantime": 1232998843,
  "nonce": 3045047832,
  "bits": "1d00ffff",
  "difficulty": 1,
  "chainwork": "0000000000000000000000000000000000000000000000000000079a079a079a",
  "nTx": 2,
  "previousblockhash": "0000000070f317aab8c838bc27c8d1e3f825941e793d754746e068f3b9c888b5",
  "nextblockhash": "00000000eda3c09a860212d3c94703be7f159d5964d666df9b97c9b97e68f3ad",
  "strippedsize": 2540,
  "size": 2540,
  "weight": 10160,
  "tx": [
    {
      "txid": "435b7cea28d87501bab1547177624ea52fa3728ec4e17fc12102846da8e4b351",
      "hash": "435b7cea28d87501bab1547177624ea52fa3728ec4e17fc12102846da8e4b351",
      "version": 1,
      "size": 135,
      "vsize": 135,
      "weight": 540,
      "locktime": 0,
      "vin": [
        {
          "coinbase": "04ffff001d028200",
          "sequence": 4294967295
        }
      ],
      "vout": [
        {
          "value": 50.0,
          "n": 0,
          "scriptPubKey": {
            "asm": "0414289ea005d289fcbe255d3d78fffa885075f9a944c0d1d07e36a0544260248bf2a23333ce1f2cfe7223b68288d209632587c66f0f743289b114759077cf1a4a OP_CHECKSIG",
            "desc": "pk(0414289ea005d289fcbe255d3d78fffa885075f9a944c0d1d07e36a0544260248bf2a23333ce1f2cfe7223b68288d209632587c66f0f743289b114759077cf1a4a)#8g9ehw00",
            "hex": "410414289ea005d289fcbe255d3d78fffa885075f9a944c0d1d07e36a0544260248bf2a23333ce1f2cfe7223b68288d209632587c66f0f743289b114759077cf1a4aac",
            "type": "pubkey"
          }
        }
      ],
      "hex": "01000000010000000000000000000000000000000000000000000000000000000000000000ffffffff0804ffff001d028200ffffffff0100f2052a0100000043410414289ea005d289fcbe255d3d78fffa885075f9a944c0d1d07e36a0544260248bf2a23333ce1f2cfe7223b68288d209632587c66f0f743289b114759077cf1a4aac00000000"
    },
    {
      "txid": "5559270f3e12c0b9136cb6caf147322669394d2c9b90fd7a363f3e685e7c2407",
      "hash": "5559270f3e12c0b9136cb6caf147322669394d2c9b90fd7a363f3e685e7c2407",
      "version": 1,
      "size": 2324,
      "vsize": 2324,
      "weight": 9296,
      "locktime": 0,
      "vin": [
        {
          "txid": "5bb5df544ad5976ea1c1e9fe17d27137e144bf0f823c90b09759deca07d23809",
          "vout": 0,
          "scriptSig": {
            "asm": "3046022100aa7b6c7ebb12904d072731d83f15a3e8bc2097ded757d794cef7d912f8ae1d97022100d4edd90392b35ce3e6c623eff99a1090ee5c163810c0ec87d38da151c45815a1[ALL]",
            "hex": "493046022100aa7b6c7ebb12904d072731d83f15a3e8bc2097ded757d794cef7d912f8ae1d97022100d4edd90392b35ce3e6c623eff99a1090ee5c163810c0ec87d38da151c45815a101"
          },
          "sequence": 4294967295
        },
        {
          "txid": "d736415cfbe80616fad7419a34502130a72c556064aff4960cc12be9e1e8a425",
          "vout": 0,
          "scriptSig": {
            "asm": "3045022100902dfd9d40c6433db5ba207cd0e6bda0e21691ca4365e0642b3b0ffb637f742c02206bb8e0a6b5b6a757ce96f31b71536eeb1c317b8727e0e802c82dc76737078298[ALL]",
            "hex": "483045022100902dfd9d40c6433db5ba207cd0e6bda0e21691ca4365e0642b3b0ffb637f742c02206bb8e0a6b5b6a757ce96f31b71536eeb1c317b8727e0e802c82dc7673707829801"
          },
          "sequence": 4294967295
        },
        {
          "txid": "e237b2a6f735625b2e44e13c0ab1785dff9d42ec544e2500d5b17f3b84121aa0",
          "vout": 0,
          "scriptSig": {
            "asm": "3046022100d0b911befed591b2a870c063743161a95bd9cce6aec930ad535e28c31a27a83c022100a17e56b003e47be5ce6b1d6a78b94b612c4ba9f6653551aa3ab0be00aeb4d549[ALL]",
            "hex": "493046022100d0b911befed591b2a870c063743161a95bd9cce6aec930ad535e28c31a27a83c022100a17e56b003e47be5ce6b1d6a78b94b612c4ba9f6653551aa3ab0be00aeb4d54901"
          },
          "sequence": 4294967295
        },
        {
          "txid": "a261b036db6dc7611b15c8910b84bd550001a688b184c6c85607e17e17d7c529",
          "vout": 0,
          "scriptSig": {
            "asm": "304402202d6c9ff44cb65154d8ca854ffcbbb255c380b5bbe6ab9639a2ac82c8dd52394f02207cf9b13943e04a73a63eefa2a1c80f287d89f798209e4b253e37948e1261e0d1[ALL]",
            "hex": "47304402202d6c9ff44cb65154d8ca854ffcbbb255c380b5bbe6ab9639a2ac82c8dd52394f02207cf9b13943e04a73a63eefa2a1c80f287d89f798209e4b253e37948e1261e0d101"
          },
          "sequence": 4294967295
        },
        {
          "txid": "1ea7582f645a225fbb0b4ab429033ba9c50b27fadb734bf5572f72b81dae2391",
          "vout": 0,
          "scriptSig": {
            "asm": "3046022100c45ec8d4cba18eda841ad8312196814183c43f395c172559903b7c1ebaf78029022100b5c80333de65d79c77a0307d57f7ca9b2a006cd84f5d3c5ddb349dbf48dc094d[ALL]",
            "hex": "493046022100c45ec8d4cba18eda841ad8312196814183c43f395c172559903b7c1ebaf78029022100b5c80333de65d79c77a0307d57f7ca9b2a006cd84f5d3c5ddb349dbf48dc094d01"
          },
          "sequence": 4294967295
        },
        {
          "txid": "81760cb66a9e7d83d876a3fbe31625141b4084316f3e4ab26746a33798e5e7f0",
          "vout": 0,
          "scriptSig": {
            "asm": "3046022100e8a77f5e501430669b8fbb38b1f1f91706d1ea54c56482dcfbac40607f90b797022100fdac29e939b2265046f658ef60db266381586dc116bc5fbc4cdc89cabd43261e[ALL]",
            "hex": "493046022100e8a77f5e501430669b8fbb38b1f1f91706d1ea54c56482dcfbac40607f90b797022100fdac29e939b2265046f658ef60db266381586dc116bc5fbc4cdc89cabd43261e01"
          },
          "sequence": 4294967295
        },
        {
          "txid": "6951b21476bf50a026a8e209be370402b2293765bad93a28b99fd071c954e7f5",
          "vout": 0,
          "scriptSig": {
            "asm": "3045022100ce9d0d6262c78fce8b444b6aef0c6e9dcdb53c6fc4ce124b7b6907d811d29deb0220056803812a68f5619ee1eccff5d8ca627597023fd95f6fdcd4b6f9e1eb2a4621[ALL]",
            "hex": "483045022100ce9d0d6262c78fce8b444b6aef0c6e9dcdb53c6fc4ce124b7b6907d811d29deb0220056803812a68f5619ee1eccff5d8ca627597023fd95f6fdcd4b6f9e1eb2a462101"
          },
          "sequence": 4294967295
        },
        {
          "txid": "0d916c9c1805607fa7f25c299fa05bda94bb7937ac5cd2273c919e62657ef8f7",
          "vout": 0,
          "scriptSig": {
            "asm": "3045022100efd0a3e750e678ef1d6651c66be8f5c7ca8f78178537b2962bdb0426c1d5a26602201500df94033d4fe0496bf199f2ecb176599784fd762a1844f004b39fe2f4ccb5[ALL]",
            "hex": "483045022100efd0a3e750e678ef1d6651c66be8f5c7ca8f78178537b2962bdb0426c1d5a26602201500df94033d4fe0496bf199f2ecb176599784fd762a1844f004b39fe2f4ccb501"
          },
          "sequence": 4294967295
        },
        {
          "txid": "77182d9b0408dba082453ea1a89a0c2b31a49ebe7db23d9a4c6bc1a5af1dd156",
          "vout": 0,
          "scriptSig": {
            "asm": "304402206474bed8fbe4e5a362078e71f9e43916070af3afb6c4287fd518559bf84e752b022052f59e58511809b129fb3a57efcc99462288eb7fbd7835fef669266ca94e48a1[ALL]",
            "hex": "47304402206474bed8fbe4e5a362078e71f9e43916070af3afb6c4287fd518559bf84e752b022052f59e58511809b129fb3a57efcc99462288eb7fbd7835fef669266ca94e48a101"
          },
          "sequence": 4294967295
        },
        {
          "txid": "288c39b5fa36773af221bd6646ac8a0aad72c62afec63fdccac465e71ac7c038",
          "vout": 0,
          "scriptSig": {
            "asm": "3045022100e6932f09658140f57300ad3e8deaa26c6bf9e272af8fd6ede47ac49c0b8c1fba0220796bbd5b4219353ca863a797668c62dc3aea98669cb94a328adf706d846e0053[ALL]",
            "hex": "483045022100e6932f09658140f57300ad3e8deaa26c6bf9e272af8fd6ede47ac49c0b8c1fba0220796bbd5b4219353ca863a797668c62dc3aea98669cb94a328adf706d846e005301"
          },
          "sequence": 4294967295
        },
        {
          "txid": "ae19b3936a39b512ae82dc5cf21520771b552407da29c615b5096003dda3010a",
          "vout": 0,
          "scriptSig": {
            "asm": "30440220246b80498a201c80555ca8d027d3401e1e2a295b74dec131ba2fcb6403d934c90220762a5e41adaead26d5a7d31f6bd65416111cbe373da9e76238408c5145a13279[ALL]",
            "hex": "4730440220246b80498a201c80555ca8d027d3401e1e2a295b74dec131ba2fcb6403d934c90220762a5e41adaead26d5a7d31f6bd65416111cbe373da9e76238408c5145a1327901"
          },
          "sequence": 4294967295
        },
        {
          "txid": "d925eebb456176b4ba7b677ce923b1c0caa25d48700ce22e9d4da4db4cc2a96f",
          "vout": 0,
          "scriptSig": {
            "asm": "304402201683874f8a0b0a6e9b29f180af101f94861bbc5456ea24be09462b3f08c2c49f02203ed75363c7bac1ba9ff54d2d2815379a43cc02eaebe8a46f6f8c7de9492cdbb6[ALL]",
            "hex": "47304402201683874f8a0b0a6e9b29f180af101f94861bbc5456ea24be09462b3f08c2c49f02203ed75363c7bac1ba9ff54d2d2815379a43cc02eaebe8a46f6f8c7de9492cdbb601"
          },
          "sequence": 4294967295
        },
        {
          "txid": "d7554936d215b11d38769ca92ba0468e01b79a08ed54117ceb4a6d4419118ebe",
          "vout": 0,
          "scriptSig": {
            "asm": "3044022040ab8ac3d3061b2f2076e796548e0409c33933f979ef46279fea89a9c00caf4d022068feac60d9bb5a0481ce8faa8d8386c0199eeef0a27324a73beb6abcdd8109e1[ALL]",
            "hex": "473044022040ab8ac3d3061b2f2076e796548e0409c33933f979ef46279fea89a9c00caf4d022068feac60d9bb5a0481ce8faa8d8386c0199eeef0a27324a73beb6abcdd8109e101"
          },
          "sequence": 4294967295
        },
        {
          "txid": "0c94bc056cba83f3639affefcdc358fa38503d5a4216172db74efa5494d840ca",
          "vout": 0,
          "scriptSig": {
            "asm": "3046022100e876af910e5dd8bb98ebf831103dc94ef7aa227a9bd309fba46dfeb7071233af022100f734080203dca489449ae2e9efc9dc729d82745cf15bf85659255f01f8fd6689[ALL]",
            "hex": "493046022100e876af910e5dd8bb98ebf831103dc94ef7aa227a9bd309fba46dfeb7071233af022100f734080203dca489449ae2e9efc9dc729d82745cf15bf85659255f01f8fd668901"
          },
          "sequence": 4294967295
        },
        {
          "txid": "badeae9db2b8d01af5f70a46c83d20e0b85dd1d06960484c9a7dd600a4ba0b92",
          "vout": 0,
          "scriptSig": {
            "asm": "30460221008d8e28b4d7961e07d0a9ffe3befd391266563997b329534d3a01a678d305b760022100f6a27cdd08d17f15716203130801f30f8d4af655e867bcdb68100a2f5c104f6c[ALL]",
            "hex": "4930460221008d8e28b4d7961e07d0a9ffe3befd391266563997b329534d3a01a678d305b760022100f6a27cdd08d17f15716203130801f30f8d4af655e867bcdb68100a2f5c104f6c01"
          },
          "sequence": 4294967295
        },
        {
          "txid": "bd3dadc040f022ada19730429fd91f86502887788782f09b7cd252f37b57f40c",
          "vout": 0,
          "scriptSig": {
            "asm": "304502204f5b403e4d68d1338835bcec099a7ac0a31234c53f56952c4e8aa5c0d9512b7f022100d2fd966abc6d263f375779912baac5301029993ade3a3a473bcc6841bbe05136[ALL]",
            "hex": "48304502204f5b403e4d68d1338835bcec099a7ac0a31234c53f56952c4e8aa5c0d9512b7f022100d2fd966abc6d263f375779912baac5301029993ade3a3a473bcc6841bbe0513601"
          },
          "sequence": 4294967295
        },
        {
          "txid": "3465704ac2228398088db6c764047c0497fc5ff12ada5c574b9a22fb95ca4496",
          "vout": 0,
          "scriptSig": {
            "asm": "304402203acfef5c0772a403a62bfeb37e3dee9e7eeeaf3aea4bcc25601becf4b0dd79ce02200842695a5a1e588d90154ddd50dde0f7ee64c688d74d02c3707456353a963f44[ALL]",
            "hex": "47304402203acfef5c0772a403a62bfeb37e3dee9e7eeeaf3aea4bcc25601becf4b0dd79ce02200842695a5a1e588d90154ddd50dde0f7ee64c688d74d02c3707456353a963f4401"
          },
          "sequence": 4294967295
        },
        {
          "txid": "fbec1c21ca91d4e5baf55f305b05d294755b4fd069d149344b2104b708e42873",
          "vout": 0,
          "scriptSig": {
            "asm": "304502200f9971d6b32fb6fc9e0b03bd7b49b87032a9ca13cab797d05b166aeb1fb3326b022100ba2050e962792aca8d07178fbf3eac95f874ceebec47f05193e2b16fb7e3d546[ALL]",
            "hex": "48304502200f9971d6b32fb6fc9e0b03bd7b49b87032a9ca13cab797d05b166aeb1fb3326b022100ba2050e962792aca8d07178fbf3eac95f874ceebec47f05193e2b16fb7e3d54601"
          },
          "sequence": 4294967295
        },
        {
          "txid": "cc5413e5adea9838734b674c6a36764c01676b87d8c9f65505648e79fa7da9b7",
          "vout": 0,
          "scriptSig": {
            "asm": "304502210093c6bf17aebaf9efbbf8816ccef362bb91fc506b98f1b6ac8a3629816e5643e9022036e84b31f2665e63d7110ab162656a360ac91641b911f71b30b4e77dd2f0d6cc[ALL]",
            "hex": "48304502210093c6bf17aebaf9efbbf8816ccef362bb91fc506b98f1b6ac8a3629816e5643e9022036e84b31f2665e63d7110ab162656a360ac91641b911f71b30b4e77dd2f0d6cc01"
          },
          "sequence": 4294967295
        },
        {
          "txid": "ef7ed3f0065cb65e11c296396a7fb6dfb08c24f31385e71f90fae187a7f0b889",
          "vout": 0,
          "scriptSig": {
            "asm": "304502206a1dba42aac7f10b58a46bb565339e4e394848ac6deaf8ae5f04a8da4a5565ad0221009f82fba7972819f132b6a6b8357fbde4c9aaee6e0c93ab8cc0fa0833f1062c23[ALL]",
            "hex": "48304502206a1dba42aac7f10b58a46bb565339e4e394848ac6deaf8ae5f04a8da4a5565ad0221009f82fba7972819f132b6a6b8357fbde4c9aaee6e0c93ab8cc0fa0833f1062c2301"
          },
          "sequence": 4294967295
        }
      ],
      "vout": [
        {
          "value": 1000.0,
          "n": 0,
          "scriptPubKey": {
            "asm": "OP_DUP OP_HASH160 12ab8dc588ca9d5787dde7eb29569da63c3a238c OP_EQUALVERIFY OP_CHECKSIG",
            "desc": "addr(12higDjoCCNXSA95xZMWUdPvXNmkAduhWv)#zn56zju2",
            "hex": "76a91412ab8dc588ca9d5787dde7eb29569da63c3a238c88ac",
            "address": "12higDjoCCNXSA95xZMWUdPvXNmkAduhWv",
            "type": "pubkeyhash"
          }
        }
      ],
      "fee": 0.0,
      "hex": "01000000140938d207cade5997b0903c820fbf44e13771d217fee9c1a16e97d54a54dfb55b000000004a493046022100aa7b6c7ebb12904d072731d83f15a3e8bc2097ded757d794cef7d912f8ae1d97022100d4edd90392b35ce3e6c623eff99a1090ee5c163810c0ec87d38da151c45815a101ffffffff25a4e8e1e92bc10c96f4af6460552ca7302150349a41d7fa1606e8fb5c4136d70000000049483045022100902dfd9d40c6433db5ba207cd0e6bda0e21691ca4365e0642b3b0ffb637f742c02206bb8e0a6b5b6a757ce96f31b71536eeb1c317b8727e0e802c82dc7673707829801ffffffffa01a12843b7fb1d500254e54ec429dff5d78b10a3ce1442e5b6235f7a6b237e2000000004a493046022100d0b911befed591b2a870c063743161a95bd9cce6aec930ad535e28c31a27a83c022100a17e56b003e47be5ce6b1d6a78b94b612c4ba9f6653551aa3ab0be00aeb4d54901ffffffff29c5d7177ee10756c8c684b188a6010055bd840b91c8151b61c76ddb36b061a2000000004847304402202d6c9ff44cb65154d8ca854ffcbbb255c380b5bbe6ab9639a2ac82c8dd52394f02207cf9b13943e04a73a63eefa2a1c80f287d89f798209e4b253e37948e1261e0d101ffffffff9123ae1db8722f57f54b73dbfa270bc5a93b0329b44a0bbb5f225a642f58a71e000000004a493046022100c45ec8d4cba18eda841ad8312196814183c43f395c172559903b7c1ebaf78029022100b5c80333de65d79c77a0307d57f7ca9b2a006cd84f5d3c5ddb349dbf48dc094d01fffffffff0e7e59837a34667b24a3e6f3184401b142516e3fba376d8837d9e6ab60c7681000000004a493046022100e8a77f5e501430669b8fbb38b1f1f91706d1ea54c56482dcfbac40607f90b797022100fdac29e939b2265046f658ef60db266381586dc116bc5fbc4cdc89cabd43261e01fffffffff5e754c971d09fb9283ad9ba653729b2020437be09e2a826a050bf7614b251690000000049483045022100ce9d0d6262c78fce8b444b6aef0c6e9dcdb53c6fc4ce124b7b6907d811d29deb0220056803812a68f5619ee1eccff5d8ca627597023fd95f6fdcd4b6f9e1eb2a462101fffffffff7f87e65629e913c27d25cac3779bb94da5ba09f295cf2a77f6005189c6c910d0000000049483045022100efd0a3e750e678ef1d6651c66be8f5c7ca8f78178537b2962bdb0426c1d5a26602201500df94033d4fe0496bf199f2ecb176599784fd762a1844f004b39fe2f4ccb501ffffffff56d11dafa5c16b4c9a3db27dbe9ea4312b0c9aa8a13e4582a0db08049b2d1877000000004847304402206474bed8fbe4e5a362078e71f9e43916070af3afb6c4287fd518559bf84e752b022052f59e58511809b129fb3a57efcc99462288eb7fbd7835fef669266ca94e48a101ffffffff38c0c71ae765c4cadc3fc6fe2ac672ad0a8aac4666bd21f23a7736fab5398c280000000049483045022100e6932f09658140f57300ad3e8deaa26c6bf9e272af8fd6ede47ac49c0b8c1fba0220796bbd5b4219353ca863a797668c62dc3aea98669cb94a328adf706d846e005301ffffffff0a01a3dd036009b515c629da0724551b772015f25cdc82ae12b5396a93b319ae00000000484730440220246b80498a201c80555ca8d027d3401e1e2a295b74dec131ba2fcb6403d934c90220762a5e41adaead26d5a7d31f6bd65416111cbe373da9e76238408c5145a1327901ffffffff6fa9c24cdba44d9d2ee20c70485da2cac0b123e97c677bbab4766145bbee25d9000000004847304402201683874f8a0b0a6e9b29f180af101f94861bbc5456ea24be09462b3f08c2c49f02203ed75363c7bac1ba9ff54d2d2815379a43cc02eaebe8a46f6f8c7de9492cdbb601ffffffffbe8e1119446d4aeb7c1154ed089ab7018e46a02ba99c76381db115d2364955d70000000048473044022040ab8ac3d3061b2f2076e796548e0409c33933f979ef46279fea89a9c00caf4d022068feac60d9bb5a0481ce8faa8d8386c0199eeef0a27324a73beb6abcdd8109e101ffffffffca40d89454fa4eb72d1716425a3d5038fa58c3cdefff9a63f383ba6c05bc940c000000004a493046022100e876af910e5dd8bb98ebf831103dc94ef7aa227a9bd309fba46dfeb7071233af022100f734080203dca489449ae2e9efc9dc729d82745cf15bf85659255f01f8fd668901ffffffff920bbaa400d67d9a4c486069d0d15db8e0203dc8460af7f51ad0b8b29daedeba000000004a4930460221008d8e28b4d7961e07d0a9ffe3befd391266563997b329534d3a01a678d305b760022100f6a27cdd08d17f15716203130801f30f8d4af655e867bcdb68100a2f5c104f6c01ffffffff0cf4577bf352d27c9bf0828778872850861fd99f423097a1ad22f040c0ad3dbd000000004948304502204f5b403e4d68d1338835bcec099a7ac0a31234c53f56952c4e8aa5c0d9512b7f022100d2fd966abc6d263f375779912baac5301029993ade3a3a473bcc6841bbe0513601ffffffff9644ca95fb229a4b575cda2af15ffc97047c0464c7b68d08988322c24a706534000000004847304402203acfef5c0772a403a62bfeb37e3dee9e7eeeaf3aea4bcc25601becf4b0dd79ce02200842695a5a1e588d90154ddd50dde0f7ee64c688d74d02c3707456353a963f4401ffffffff7328e408b704214b3449d169d04f5b7594d2055b305ff5bae5d491ca211cecfb000000004948304502200f9971d6b32fb6fc9e0b03bd7b49b87032a9ca13cab797d05b166aeb1fb3326b022100ba2050e962792aca8d07178fbf3eac95f874ceebec47f05193e2b16fb7e3d54601ffffffffb7a97dfa798e640555f6c9d8876b67014c76366a4c674b733898eaade51354cc000000004948304502210093c6bf17aebaf9efbbf8816ccef362bb91fc506b98f1b6ac8a3629816e5643e9022036e84b31f2665e63d7110ab162656a360ac91641b911f71b30b4e77dd2f0d6cc01ffffffff89b8f0a787e1fa901fe78513f3248cb0dfb67f6a3996c2115eb65c06f0d37eef000000004948304502206a1dba42aac7f10b58a46bb565339e4e394848ac6deaf8ae5f04a8da4a5565ad0221009f82fba7972819f132b6a6b8357fbde4c9aaee6e0c93ab8cc0fa0833f1062c2301ffffffff0100e87648170000001976a91412ab8dc588ca9d5787dde7eb29569da63c3a238c88ac00000000"
    }
  ]
}