{
  "hash": "0000000014669130de860bc311833a43cd310d0d9cbc3ac0a4801e6cb213646f",
  "confirmations": 52225,
  "height": 387,
  "version": 1,
  "versionHex": "00000001",
  "merkleroot": "8d170388714900046ac643f6b5440edf144cf75cb2161b27e4c2a03917e7ce76",
  "time": 1231892936,
  "mediantime": 1231888319,
  "nonce": 3285713451,
  "bits": "1d00ffff",
  "difficulty": 1,
  "chainwork": "0000000000000000000000000000000000000000000000000000018401840184",
  "nTx": 1,
  "previousblockhash": "0000000061d87eca0a039ebdf3f6a7932aa879729b74d64911b9828957a294d9",
  "nextblockhash": "00000000a8c559dd08b5a038ce306cdea26549d6fd5bc69afdef5fd472e6ca6c",
  "strippedsize": 216,
  "size": 216,
  "weight": 864,
  "tx": [
    {
      "txid": "8d170388714900046ac643f6b5440edf144cf75cb2161b27e4c2a03917e7ce76",
      "hash": "8d170388714900046ac643f6b5440edf144cf75cb2161b27e4c2a03917e7ce76",
      "version": 1,
      "size": 135,
      "vsize": 135,
      "weight": 540,
      "locktime": 0,
      "vin": [
        {
          "coinbase": "04ffff001d023b02",
          "sequence": 4294967295
        }
      ],
      "vout": [
        {
          "value": 50.0,
          "n": 0,
          "scriptPubKey": {
            "asm": "0453e14f5e00477fb515c41db7b3e98f49f5089f1385a0f06dacd2407cf948b53b8452ef599a596e5171fcf1432986939d719787d086eb132a53e4a1eda1839882 OP_CHECKSIG",
            "desc": "pk(0453e14f5e00477fb515c41db7b3e98f49f5089f1385a0f06dacd2407cf948b53b8452ef599a596e5171fcf1432986939d719787d086eb132a53e4a1eda1839882)#4hpyzftn",
            "hex": "410453e14f5e00477fb515c41db7b3e98f49f5089f1385a0f06dacd2407cf948b53b8452ef599a596e5171fcf1432986939d719787d086eb132a53e4a1eda1839882ac",
            "type": "pubkey"
          }
        }
      ],
      "hex": "01000000010000000000000000000000000000000000000000000000000000000000000000ffffffff0804ffff001d023b02ffffffff0100f2052a0100000043410453e14f5e00477fb515c41db7b3e98f49f5089f1385a0f06dacd2407cf948b53b8452ef599a596e5171fcf1432986939d719787d086eb132a53e4a1eda1839882ac00000000"
    }
  ]
}