{
  "hash": "00000000b00e6bfa1742d8b209ea16cff0ca1f8466fa29fb9b171a1fcf9e09e9",
  "confirmations": 52245,
  "height": 853,
  "version": 1,
  "versionHex": "00000001",
  "merkleroot": "d5ad2bcfca33dc1dd908a87a01dd605ee26cd81970c5ffac86a0e8b317a4b798",
  "time": 1232231701,
  "mediantime": 1232227629,
  "nonce": 3983030069,
  "bits": "1d00ffff",
  "difficulty": 1,
  "chainwork": "0000000000000000000000000000000000000000000000000000035603560356",
  "nTx": 1,
  "previousblockhash": "0000000002409962f89d663037584576946a5f685d2d5baf7afaea685532ec76",
  "nextblockhash": "0000000098340110d25610650daaca4931a51519a5bea7e789bbe6eb82ad8244",
  "strippedsize": 216,
  "size": 216,
  "weight": 864,
  "tx": [
    {
      "txid": "d5ad2bcfca33dc1dd908a87a01dd605ee26cd81970c5ffac86a0e8b317a4b798",
      "hash": "d5ad2bcfca33dc1dd908a87a01dd605ee26cd81970c5ffac86a0e8b317a4b798",
      "version": 1,
      "size": 135,
      "vsize": 135,
      "weight": 540,
      "locktime": 0,
      "vin": [
        {
          "coinbase": "04ffff001d028202",
          "sequence": 4294967295
        }
      ],
      "vout": [
        {
          "value": 50.0,
          "n": 0,
          "scriptPubKey": {
            "asm": "0414dae4edd31507ab24ee1368dd701b24d6e3645d653c205b973f621b0a69123d02b5ce4f84a29f72215d0bce724ffb71966e81dcce17709b7d8d70699bc6117c OP_CHECKSIG",
            "desc": "pk(0414dae4edd31507ab24ee1368dd701b24d6e3645d653c205b973f621b0a69123d02b5ce4f84a29f72215d0bce724ffb71966e81dcce17709b7d8d70699bc6117c)#5r3l39up",
            "hex": "410414dae4edd31507ab24ee1368dd701b24d6e3645d653c205b973f621b0a69123d02b5ce4f84a29f72215d0bce724ffb71966e81dcce17709b7d8d70699bc6117cac",
            "type": "pubkey"
          }
        }
      ],
      "hex": "01000000010000000000000000000000000000000000000000000000000000000000000000ffffffff0804ffff001d028202ffffffff0100f2052a0100000043410414dae4edd31507ab24ee1368dd701b24d6e3645d653c205b973f621b0a69123d02b5ce4f84a29f72215d0bce724ffb71966e81dcce17709b7d8d70699bc6117cac00000000"
    }
  ]
}