{
  "hash": "00000000754312ec7235128b6e6e3539c760f61c1988e4728a5aa1dcd9cbcbde",
  "confirmations": 52178,
  "height": 485,
  "version": 1,
  "versionHex": "00000001",
  "merkleroot": "5b24dc42ca0b4e488e90e792b52a32eb5749b3c762cd377ddef24ffa885e5f30",
  "time": 1231958995,
  "mediantime": 1231955305,
  "nonce": 31296318,
  "bits": "1d00ffff",
  "difficulty": 1,
  "chainwork": "000000000000000000000000000000000000000000000000000001e601e601e6",
  "nTx": 1,
  "previousblockhash": "000000005eb185e781c9980b7bf3001170c606c7534f4543cc931d1d66a2b205",
  "nextblockhash": "00000000d33226beeea5253068d1252b713fec143b7336a25b75cbc35afe45da",
  "strippedsize": 215,
  "size": 215,
  "weight": 860,
  "tx": [
    {
      "txid": "5b24dc42ca0b4e488e90e792b52a32eb5749b3c762cd377ddef24ffa885e5f30",
      "hash": "5b24dc42ca0b4e488e90e792b52a32eb5749b3c762cd377ddef24ffa885e5f30",
      "version": 1,
      "size": 134,
      "vsize": 134,
      "weight": 536,
      "locktime": 0,
      "vin": [
        {
          "coinbase": "04ffff001d0111",
          "sequence": 4294967295
        }
      ],
      "vout": [
        {
          "value": 50.0,
          "n": 0,
          "scriptPubKey": {
            "asm": "04b23ab3cf9dd2b879483ff42d89015ce6c8488353fbc63675767d8c53084362b0b7636af22f8b2c8e201ced3e44ff2abab88a2aca0238233c02e4a4966a5234fc OP_CHECKSIG",
            "desc": "pk(04b23ab3cf9dd2b879483ff42d89015ce6c8488353fbc63675767d8c53084362b0b7636af22f8b2c8e201ced3e44ff2abab88a2aca0238233c02e4a4966a5234fc)#jm80nmzw",
            "hex": "4104b23ab3cf9dd2b879483ff42d89015ce6c8488353fbc63675767d8c53084362b0b7636af22f8b2c8e201ced3e44ff2abab88a2aca0238233c02e4a4966a5234fcac",
            "type": "pubkey"
          }
        }
      ],
      "hex": "01000000010000000000000000000000000000000000000000000000000000000000000000ffffffff0704ffff001d0111ffffffff0100f2052a01000000434104b23ab3cf9dd2b879483ff42d89015ce6c8488353fbc63675767d8c53084362b0b7636af22f8b2c8e201ced3e44ff2abab88a2aca0238233c02e4a4966a5234fcac00000000"
    }
  ]
}