{
  "hash": "000000005b6e54fed7a8ec63e4d6729fb8cc2af5a006d95614e84290a9723e7f",
  "confirmations": 45267,
  "height": 7831,
  "version": 1,
  "versionHex": "00000001",
  "merkleroot": "6fa53fdf43d55362c685452ed9bb7886910a23b41aade97666ee10b6028949bb",
  "time": 1237336742,
  "mediantime": 1237334123,
  "nonce": 89763205,
  "bits": "1d00ffff",
  "difficulty": 1,
  "chainwork": "00000000000000000000000000000000000000000000000000001e981e981e98",
  "nTx": 1,
  "previousblockhash": "00000000c3beb2fd77559d21f21ad9ed394ca108bcb99967a1906c6138a0bab9",
  "nextblockhash": "00000000f90e41c414da67dc411da8f4c1352bc4dee14326fc53ed12fcba2a26",
  "strippedsize": 215,
  "size": 215,
  "weight": 860,
  "tx": [
    {
      "txid": "6fa53fdf43d55362c685452ed9bb7886910a23b41aade97666ee10b6028949bb",
      "hash": "6fa53fdf43d55362c685452ed9bb7886910a23b41aade97666ee10b6028949bb",
      "version": 1,
      "size": 134,
      "vsize": 134,
      "weight": 536,
      "locktime": 0,
      "vin": [
        {
          "coinbase": "04ffff001d010d",
          "sequence": 4294967295
        }
      ],
      "vout": [
        {
          "value": 50.0,
          "n": 0,
          "scriptPubKey": {
            "asm": "04c3113d275a3311cf2154a99d0fd6745b8e9e5a3b0f5f27d7618f3da381072909afed00dd13045e5a57d21ac4ff36e086c1738ea3e1e8d4c0d3ff641baf0a10c9 OP_CHECKSIG",
            "desc": "pk(04c3113d275a3311cf2154a99d0fd6745b8e9e5a3b0f5f27d7618f3da381072909afed00dd13045e5a57d21ac4ff36e086c1738ea3e1e8d4c0d3ff641baf0a10c9)#ps7rcf4r",
            "hex": "4104c3113d275a3311cf2154a99d0fd6745b8e9e5a3b0f5f27d7618f3da381072909afed00dd13045e5a57d21ac4ff36e086c1738ea3e1e8d4c0d3ff641baf0a10c9ac",
            "type": "pubkey"
          }
        }
      ],
      "hex": "01000000010000000000000000000000000000000000000000000000000000000000000000ffffffff0704ffff001d010dffffffff0100f2052a01000000434104c3113d275a3311cf2154a99d0fd6745b8e9e5a3b0f5f27d7618f3da381072909afed00dd13045e5a57d21ac4ff36e086c1738ea3e1e8d4c0d3ff641baf0a10c9ac00000000"
    }
  ]
}