{
  "hash": "0000000061c9682ba3045c5ab56f45f1cf98b0029d2ea195e2be4dc2327976aa",
  "confirmations": 51833,
  "height": 1265,
  "version": 1,
  "versionHex": "00000001",
  "merkleroot": "79360de2535a9bab4c8ffa5959b43b34939f605e13f2956b1f209403850f1392",
  "time": 1232550102,
  "mediantime": 1232544961,
  "nonce": 924859175,
  "bits": "1d00ffff",
  "difficulty": 1,
  "chainwork": "000000000000000000000000000000000000000000000000000004f204f204f2",
  "nTx": 1,
  "previousblockhash": "0000000075c53615a885fb183c632beaaebb6ff7bd90ab7acfd4eb4d9ee2d357",
  "nextblockhash": "00000000b1d5f46af55418375118f256a0d0e9331b74ef01225c5f0ec0f77629",
  "strippedsize": 216,
  "size": 216,
  "weight": 864,
  "tx": [
    {
      "txid": "79360de2535a9bab4c8ffa5959b43b34939f605e13f2956b1f209403850f1392",
      "hash": "79360de2535a9bab4c8ffa5959b43b34939f605e13f2956b1f209403850f1392",
      "version": 1,
      "size": 135,
      "vsize": 135,
      "weight": 540,
      "locktime": 0,
      "vin": [
        {
          "coinbase": "04ffff001d02b709",
          "sequence": 4294967295
        }
      ],
      "vout": [
        {
          "value": 50.0,
          "n": 0,
          "scriptPubKey": {
            "asm": "049c2b512b1d703df3ef6a0706d2eaa4d820562acdab178b3d75ed693bc69f60614526adea4a4581b93f5aa28595d9e6e844ca12f329a8dd90d62da6e2572b16b9 OP_CHECKSIG",
            "desc": "pk(049c2b512b1d703df3ef6a0706d2eaa4d820562acdab178b3d75ed693bc69f60614526adea4a4581b93f5aa28595d9e6e844ca12f329a8dd90d62da6e2572b16b9)#uvllj0cp",
            "hex": "41049c2b512b1d703df3ef6a0706d2eaa4d820562acdab178b3d75ed693bc69f60614526adea4a4581b93f5aa28595d9e6e844ca12f329a8dd90d62da6e2572b16b9ac",
            "type": "pubkey"
          }
        }
      ],
      "hex": "01000000010000000000000000000000000000000000000000000000000000000000000000ffffffff0804ffff001d02b709ffffffff0100f2052a010000004341049c2b512b1d703df3ef6a0706d2eaa4d820562acdab178b3d75ed693bc69f60614526adea4a4581b93f5aa28595d9e6e844ca12f329a8dd90d62da6e2572b16b9ac00000000"
    }
  ]
}