{
  "hash": "00000000c53755573f641113a404aad6f3766d6f7925eef27ded88a22f52dae8",
  "confirmations": 48003,
  "height": 5095,
  "version": 1,
  "versionHex": "00000001",
  "merkleroot": "c46cebcf60903a125d1b4d0072b13b2bc2f5771c59389787c522d11f1e332c46",
  "time": 1235212952,
  "mediantime": 1235209112,
  "nonce": 3444035611,
  "bits": "1d00ffff",
  "difficulty": 1,
  "chainwork": "000000000000000000000000000000000000000000000000000013e813e813e8",
  "nTx": 1,
  "previousblockhash": "000000000b907129f8d5d8619f38d09318549494964ffc1f1a687340dbbbf866",
  "nextblockhash": "000000008cdc52b3a942de8939ac5b23d7d4ebc8cffe3e57aefc0b1abd22da59",
  "strippedsize": 216,
  "size": 216,
  "weight": 864,
  "tx": [
    {
      "txid": "c46cebcf60903a125d1b4d0072b13b2bc2f5771c59389787c522d11f1e332c46",
      "hash": "c46cebcf60903a125d1b4d0072b13b2bc2f5771c59389787c522d11f1e332c46",
      "version": 1,
      "size": 135,
      "vsize": 135,
      "weight": 540,
      "locktime": 0,
      "vin": [
        {
          "coinbase": "04ffff001d02e708",
          "sequence": 4294967295
        }
      ],
      "vout": [
        {
          "value": 50.0,
          "n": 0,
          "scriptPubKey": {
            "asm": "04b772fe586c0c1d347817967d77c8eaf1abd103f6104015881b3ff226f1ab309d57320861ca41fc94eca8c95b2cdb67ed8fbfacb3b34c31f98e1992e33431a6f0 OP_CHECKSIG",
            "desc": "pk(04b772fe586c0c1d347817967d77c8eaf1abd103f6104015881b3ff226f1ab309d57320861ca41fc94eca8c95b2cdb67ed8fbfacb3b34c31f98e1992e33431a6f0)#97gxpnp2",
            "hex": "4104b772fe586c0c1d347817967d77c8eaf1abd103f6104015881b3ff226f1ab309d57320861ca41fc94eca8c95b2cdb67ed8fbfacb3b34c31f98e1992e33431a6f0ac",
            "type": "pubkey"
          }
        }
      ],
      "hex": "01000000010000000000000000000000000000000000000000000000000000000000000000ffffffff0804ffff001d02e708ffffffff0100f2052a01000000434104b772fe586c0c1d347817967d77c8eaf1abd103f6104015881b3ff226f1ab309d57320861ca41fc94eca8c95b2cdb67ed8fbfacb3b34c31f98e1992e33431a6f0ac00000000"
    }
  ]
}