{
  "hash": "00000000d2da033fe3ebe3a8bb696f8b3bd08beb97b514507af1152ccbc45cd6",
  "confirmations": 46939,
  "height": 6159,
  "version": 1,
  "versionHex": "00000001",
  "merkleroot": "f345699a375438c20f6244f1baad308331b5a6853614c57b98987c05f5d8fea5",
  "time": 1236057350,
  "mediantime": 1236052447,
  "nonce": 641003318,
  "bits": "1d00ffff",
  "difficulty": 1,
  "chainwork": "0000000000000000000000000000000000000000000000000000181018101810",
  "nTx": 1,
  "previousblockhash": "00000000429a5c03424de0a0d38c1137d5375022192d3d005c8d177d34b19aa7",
  "nextblockhash": "0000000068975438bbac81a6b529250759fcb7a5be799b6e90058590b45422b4",
  "strippedsize": 216,
  "size": 216,
  "weight": 864,
  "tx": [
    {
      "txid": "f345699a375438c20f6244f1baad308331b5a6853614c57b98987c05f5d8fea5",
      "hash": "f345699a375438c20f6244f1baad308331b5a6853614c57b98987c05f5d8fea5",
      "version": 1,
      "size": 135,
      "vsize": 135,
      "weight": 540,
      "locktime": 0,
      "vin": [
        {
          "coinbase": "04ffff001d02c607",
          "sequence": 4294967295
        }
      ],
      "vout": [
        {
          "value": 50.0,
          "n": 0,
          "scriptPubKey": {
            "asm": "0455edaa4f696214f54a0916a8604432a3351df2b89472df982a5e52ffc90c61c480b5d86dbcb2d2a6cf2551ed649894904d8e2ad43f4fde9e6e311bdba296858d OP_CHECKSIG",
            "desc": "pk(0455edaa4f696214f54a0916a8604432a3351df2b89472df982a5e52ffc90c61c480b5d86dbcb2d2a6cf2551ed649894904d8e2ad43f4fde9e6e311bdba296858d)#f0k72xzs",
            "hex": "410455edaa4f696214f54a0916a8604432a3351df2b89472df982a5e52ffc90c61c480b5d86dbcb2d2a6cf2551ed649894904d8e2ad43f4fde9e6e311bdba296858dac",
            "type": "pubkey"
          }
        }
      ],
      "hex": "01000000010000000000000000000000000000000000000000000000000000000000000000ffffffff0804ffff001d02c607ffffffff0100f2052a0100000043410455edaa4f696214f54a0916a8604432a3351df2b89472df982a5e52ffc90c61c480b5d86dbcb2d2a6cf2551ed649894904d8e2ad43f4fde9e6e311bdba296858dac00000000"
    }
  ]
}