{
  "hash": "00000000966d702b1248872b36c4daab3abcb8de47940dc7baa7309ac067e270",
  "confirmations": 43789,
  "height": 9309,
  "version": 1,
  "versionHex": "00000001",
  "merkleroot": "2919492609b061812d3c5edc2e393a9a196bb5e127defbdc2d8c4b096d13cfb4",
  "time": 1238484105,
  "mediantime": 1238477647,
  "nonce": 3825078,
  "bits": "1d00ffff",
  "difficulty": 1,
  "chainwork": "0000000000000000000000000000000000000000000000000000245e245e245e",
  "nTx": 1,
  "previousblockhash": "000000007930799dab6bb69c7858a4d8b45001a64b663b552bd1a84e44b9fb41",
  "nextblockhash": "000000004d441eda6d86516b77701eb913788efe7d6a74ad3d06a5aa343e6d1e",
  "strippedsize": 216,
  "size": 216,
  "weight": 864,
  "tx": [
    {
      "txid": "2919492609b061812d3c5edc2e393a9a196bb5e127defbdc2d8c4b096d13cfb4",
      "hash": "2919492609b061812d3c5edc2e393a9a196bb5e127defbdc2d8c4b096d13cfb4",
      "version": 1,
      "size": 135,
      "vsize": 135,
      "weight": 540,
      "locktime": 0,
      "vin": [
        {
          "coinbase": "04ffff001d024806",
          "sequence": 4294967295
        }
      ],
      "vout": [
        {
          "value": 50.0,
          "n": 0,
          "scriptPubKey": {
            "asm": "04abdc029633fb0959cc5540163da3affd019c54daa0a54e5542cce1f7a0fd82a014f51087f7562110d6ab8e03c21b8a04ebef4ef7d9cdffdc219491127a8a0624 OP_CHECKSIG",
            "desc": "pk(04abdc029633fb0959cc5540163da3affd019c54daa0a54e5542cce1f7a0fd82a014f51087f7562110d6ab8e03c21b8a04ebef4ef7d9cdffdc219491127a8a0624)#rvz5054f",
            "hex": "4104abdc029633fb0959cc5540163da3affd019c54daa0a54e5542cce1f7a0fd82a014f51087f7562110d6ab8e03c21b8a04ebef4ef7d9cdffdc219491127a8a0624ac",
            "type": "pubkey"
          }
        }
      ],
      "hex": "01000000010000000000000000000000000000000000000000000000000000000000000000ffffffff0804ffff001d024806ffffffff0100f2052a01000000434104abdc029633fb0959cc5540163da3affd019c54daa0a54e5542cce1f7a0fd82a014f51087f7562110d6ab8e03c21b8a04ebef4ef7d9cdffdc219491127a8a0624ac00000000"
    }
  ]
}