{
  "hash": "0000000083fb9db6cdd95705a71c717243a504835899ca35a1807dab4764de47",
  "confirmations": 51548,
  "height": 1550,
  "version": 1,
  "versionHex": "00000001",
  "merkleroot": "8c1aefb3625a21c2e537b63f4aadfa18e8cb85b27b4e50a14ae28fb3cb7edc08",
  "time": 1232789228,
  "mediantime": 1232786571,
  "nonce": 3290727688,
  "bits": "1d00ffff",
  "difficulty": 1,
  "chainwork": "0000000000000000000000000000000000000000000000000000060f060f060f",
  "nTx": 1,
  "previousblockhash": "000000007a2f55c8785431caf8b373ee9908ad7d3adb6ef50d903e74f39a20e1",
  "nextblockhash": "00000000932127d2c7c987b0b34ac15b2874c9a57d363d14276c447f9c4abe37",
  "strippedsize": 216,
  "size": 216,
  "weight": 864,
  "tx": [
    {
      "txid": "8c1aefb3625a21c2e537b63f4aadfa18e8cb85b27b4e50a14ae28fb3cb7edc08",
      "hash": "8c1aefb3625a21c2e537b63f4aadfa18e8cb85b27b4e50a14ae28fb3cb7edc08",
      "version": 1,
      "size": 135,
      "vsize": 135,
      "weight": 540,
      "locktime": 0,
      "vin": [
        {
          "coinbase": "04ffff001d02a701",
          "sequence": 4294967295
        }
      ],
      "vout": [
        {
          "value": 50.0,
          "n": 0,
          "scriptPubKey": {
            "asm": "040cc1773c56f3442d1082fb5fbcf88e80b42ab7ede8357206be0b2734eb1929870b3b4c78cb817c4421a26d6dd1bcc1a873c967ed8d5b0f34a9f9cf37583e2d59 OP_CHECKSIG",
            "desc": "pk(040cc1773c56f3442d1082fb5fbcf88e80b42ab7ede8357206be0b2734eb1929870b3b4c78cb817c4421a26d6dd1bcc1a873c967ed8d5b0f34a9f9cf37583e2d59)#mn4xus6f",
            "hex": "41040cc1773c56f3442d1082fb5fbcf88e80b42ab7ede8357206be0b2734eb1929870b3b4c78cb817c4421a26d6dd1bcc1a873c967ed8d5b0f34a9f9cf37583e2d59ac",
            "type": "pubkey"
          }
        }
      ],
      "hex": "01000000010000000000000000000000000000000000000000000000000000000000000000ffffffff0804ffff001d02a701ffffffff0100f2052a010000004341040cc1773c56f3442d1082fb5fbcf88e80b42ab7ede8357206be0b2734eb1929870b3b4c78cb817c4421a26d6dd1bcc1a873c967ed8d5b0f34a9f9cf37583e2d59ac00000000"
    }
  ]
}