{
  "hash": "00000000a90a9d92334d5e5c939930f2dd769ef8e1dbdef153310b807041c943",
  "confirmations": 45880,
  "height": 7218,
  "version": 1,
  "versionHex": "00000001",
  "merkleroot": "41c704644559d3b84a0f261944f00337114d11ebfdc1cda9dbfe72e2067a9166",
  "time": 1236884680,
  "mediantime": 1236881631,
  "nonce": 2298718753,
  "bits": "1d00ffff",
  "difficulty": 1,
  "chainwork": "00000000000000000000000000000000000000000000000000001c331c331c33",
  "nTx": 1,
  "previousblockhash": "0000000032cf89506d8f27093464f1aaf7ae7452445359958383a1cf07277099",
  "nextblockhash": "0000000026f7657f324b20225a269c26b4e03570b6f88e038e5e354010bf7525",
  "strippedsize": 216,
  "size": 216,
  "weight": 864,
  "tx": [
    {
      "txid": "41c704644559d3b84a0f261944f00337114d11ebfdc1cda9dbfe72e2067a9166",
      "hash": "41c704644559d3b84a0f261944f00337114d11ebfdc1cda9dbfe72e2067a9166",
      "version": 1,
      "size": 135,
      "vsize": 135,
      "weight": 540,
      "locktime": 0,
      "vin": [
        {
          "coinbase": "04ffff001d02ed05",
          "sequence": 4294967295
        }
      ],
      "vout": [
        {
          "value": 50.0,
          "n": 0,
          "scriptPubKey": {
            "asm": "0487357c183caeecae2821fa236d54df04864600b6cf721131e2483ecf167b74aaff906394790c50e4e1f56f06122c11b0b5c6a4cfd6002f69b0c8c6c0aebf5910 OP_CHECKSIG",
            "desc": "pk(0487357c183caeecae2821fa236d54df04864600b6cf721131e2483ecf167b74aaff906394790c50e4e1f56f06122c11b0b5c6a4cfd6002f69b0c8c6c0aebf5910)#7kgqfyqd",
            "hex": "410487357c183caeecae2821fa236d54df04864600b6cf721131e2483ecf167b74aaff906394790c50e4e1f56f06122c11b0b5c6a4cfd6002f69b0c8c6c0aebf5910ac",
            "type": "pubkey"
          }
        }
      ],
      "hex": "01000000010000000000000000000000000000000000000000000000000000000000000000ffffffff0804ffff001d02ed05ffffffff0100f2052a0100000043410487357c183caeecae2821fa236d54df04864600b6cf721131e2483ecf167b74aaff906394790c50e4e1f56f06122c11b0b5c6a4cfd6002f69b0c8c6c0aebf5910ac00000000"
    }
  ]
}