{
  "hash": "000000007991c4351b6074eade162fcd39992d42ef527ebe0e03ff427e1e9e59",
  "confirmations": 44718,
  "height": 8380,
  "version": 1,
  "versionHex": "00000001",
  "merkleroot": "feda8f47b6709463f4169ebb5d42e1926888f88ef936751e6b71aad90b02afff",
  "time": 1237786586,
  "mediantime": 1237782052,
  "nonce": 728794402,
  "bits": "1d00ffff",
  "difficulty": 1,
  "chainwork": "000000000000000000000000000000000000000000000000000020bd20bd20bd",
  "nTx": 1,
  "previousblockhash": "000000000f89232e57a6392f67e38f465d41502b97d3fbc8f82fa5969472914c",
  "nextblockhash": "00000000ebc95fe8f770d81dfdc07a034fd6c1dabf35af9bed834fedaa5f065b",
  "strippedsize": 216,
  "size": 216,
  "weight": 864,
  "tx": [
    {
      "txid": "feda8f47b6709463f4169ebb5d42e1926888f88ef936751e6b71aad90b02afff",
      "hash": "feda8f47b6709463f4169ebb5d42e1926888f88ef936751e6b71aad90b02afff",
      "version": 1,
      "size": 135,
      "vsize": 135,
      "weight": 540,
      "locktime": 0,
      "vin": [
        {
          "coinbase": "04ffff001d028605",
          "sequence": 4294967295
        }
      ],
      "vout": [
        {
          "value": 50.0,
          "n": 0,
          "scriptPubKey": {
            "asm": "0494272d415439c4b99eb1de6dd74cc3444bc980f115eb6b018899eecc1f3f58a35b3e1bc0e9f95f60dad5223bee827204ccb6a0c36580dab685a213cc64da66bb OP_CHECKSIG",
            "desc": "pk(0494272d415439c4b99eb1de6dd74cc3444bc980f115eb6b018899eecc1f3f58a35b3e1bc0e9f95f60dad5223bee827204ccb6a0c36580dab685a213cc64da66bb)#m7xrs78j",
            "hex": "410494272d415439c4b99eb1de6dd74cc3444bc980f115eb6b018899eecc1f3f58a35b3e1bc0e9f95f60dad5223bee827204ccb6a0c36580dab685a213cc64da66bbac",
            "type": "pubkey"
          }
        }
      ],
      "hex": "01000000010000000000000000000000000000000000000000000000000000000000000000ffffffff0804ffff001d028605ffffffff0100f2052a0100000043410494272d415439c4b99eb1de6dd74cc3444bc980f115eb6b018899eecc1f3f58a35b3e1bc0e9f95f60dad5223bee827204ccb6a0c36580dab685a213cc64da66bbac00000000"
    }
  ]
}