{
  "hash": "000000007dafe62a0e8ed540a46e5f65b5714cbaa8d88b29c38b98f8b4e73753",
  "confirmations": 46113,
  "height": 6985,
  "version": 1,
  "versionHex": "00000001",
  "merkleroot": "dc72275866f22dd8fb6dee915a7aefac2b70d939232251e96db86da5f7a96d98",
  "time": 1236705889,
  "mediantime": 1236701305,
  "nonce": 497363989,
  "bits": "1d00ffff",
  "difficulty": 1,
  "chainwork": "00000000000000000000000000000000000000000000000000001b4a1b4a1b4a",
  "nTx": 1,
  "previousblockhash": "0000000074df9d9258ed1acc85abb45e099a7aca5d53f082c17efad5de4cf73a",
  "nextblockhash": "000000003d6b807793d48087a98b3d3032022645fe42989ead45d94c64cfb452",
  "strippedsize": 216,
  "size": 216,
  "weight": 864,
  "tx": [
    {
      "txid": "dc72275866f22dd8fb6dee915a7aefac2b70d939232251e96db86da5f7a96d98",
      "hash": "dc72275866f22dd8fb6dee915a7aefac2b70d939232251e96db86da5f7a96d98",
      "version": 1,
      "size": 135,
      "vsize": 135,
      "weight": 540,
      "locktime": 0,
      "vin": [
        {
          "coinbase": "04ffff001d02fd01",
          "sequence": 4294967295
        }
      ],
      "vout": [
        {
          "value": 50.0,
          "n": 0,
          "scriptPubKey": {
            "asm": "04305adde80bb4723fda8740bc45c8a0653df0c34ac635b9212e7ce2543502a4b5fad73e2cd3e1f80441ed094ef5ceecf403b958c3c3f87a9fa2290d5bed4ba7fd OP_CHECKSIG",
            "desc": "pk(04305adde80bb4723fda8740bc45c8a0653df0c34ac635b9212e7ce2543502a4b5fad73e2cd3e1f80441ed094ef5ceecf403b958c3c3f87a9fa2290d5bed4ba7fd)#rrh8g6ef",
            "hex": "4104305adde80bb4723fda8740bc45c8a0653df0c34ac635b9212e7ce2543502a4b5fad73e2cd3e1f80441ed094ef5ceecf403b958c3c3f87a9fa2290d5bed4ba7fdac",
            "type": "pubkey"
          }
        }
      ],
      "hex": "01000000010000000000000000000000000000000000000000000000000000000000000000ffffffff0804ffff001d02fd01ffffffff0100f2052a01000000434104305adde80bb4723fda8740bc45c8a0653df0c34ac635b9212e7ce2543502a4b5fad73e2cd3e1f80441ed094ef5ceecf403b958c3c3f87a9fa2290d5bed4ba7fdac00000000"
    }
  ]
}