{
  "hash": "0000000044f729c68ab2eff4e29ef228d676f93df405db00620703db33f2d48c",
  "confirmations": 47208,
  "height": 5890,
  "version": 1,
  "versionHex": "00000001",
  "merkleroot": "ec6df6f8e00b84d210a7207d9aa060a0ebe24847c721e0a3664add3490eb57d3",
  "time": 1235835759,
  "mediantime": 1235832520,
  "nonce": 174444840,
  "bits": "1d00ffff",
  "difficulty": 1,
  "chainwork": "0000000000000000000000000000000000000000000000000000170317031703",
  "nTx": 1,
  "previousblockhash": "000000005de793b4cd1ef39e48a78c06f9a6f209864360412f72eeab3fedccb3",
  "nextblockhash": "00000000086bd4e5384c020d8bc39092076909bf77ce2090e81ea76ca188fc63",
  "strippedsize": 216,
  "size": 216,
  "weight": 864,
  "tx": [
    {
      "txid": "ec6df6f8e00b84d210a7207d9aa060a0ebe24847c721e0a3664add3490eb57d3",
      "hash": "ec6df6f8e00b84d210a7207d9aa060a0ebe24847c721e0a3664add3490eb57d3",
      "version": 1,
      "size": 135,
      "vsize": 135,
      "weight": 540,
      "locktime": 0,
      "vin": [
        {
          "coinbase": "04ffff001d02c802",
          "sequence": 4294967295
        }
      ],
      "vout": [
        {
          "value": 50.0,
          "n": 0,
          "scriptPubKey": {
            "asm": "04b59ca2fd1516a1694a0f735f860a171e19604e4fd4d10d4249f16e8db8716ed5cd2da686644bcf9269bfaaef1f2783a05bcebd5b59bdb845f034af1e8ac5ea15 OP_CHECKSIG",
            "desc": "pk(04b59ca2fd1516a1694a0f735f860a171e19604e4fd4d10d4249f16e8db8716ed5cd2da686644bcf9269bfaaef1f2783a05bcebd5b59bdb845f034af1e8ac5ea15)#rzj49wtu",
            "hex": "4104b59ca2fd1516a1694a0f735f860a171e19604e4fd4d10d4249f16e8db8716ed5cd2da686644bcf9269bfaaef1f2783a05bcebd5b59bdb845f034af1e8ac5ea15ac",
            "type": "pubkey"
          }
        }
      ],
      "hex": "01000000010000000000000000000000000000000000000000000000000000000000000000ffffffff0804ffff001d02c802ffffffff0100f2052a01000000434104b59ca2fd1516a1694a0f735f860a171e19604e4fd4d10d4249f16e8db8716ed5cd2da686644bcf9269bfaaef1f2783a05bcebd5b59bdb845f034af1e8ac5ea15ac00000000"
    }
  ]
}