{
  "hash": "00000000801be6582ebaa97591962b4ff63fa51976082079f6c385d9026ca123",
  "confirmations": 51900,
  "height": 1198,
  "version": 1,
  "versionHex": "00000001",
  "merkleroot": "860c8b69e80fa7bb2ddb85316f3c50d5ab5f14a7f8dae5bd80a4fe27ed034921",
  "time": 1232498519,
  "mediantime": 1232495699,
  "nonce": 2661522997,
  "bits": "1d00ffff",
  "difficulty": 1,
  "chainwork": "000000000000000000000000000000000000000000000000000004af04af04af",
  "nTx": 1,
  "previousblockhash": "00000000de70372d549238784fce4946fc7d30cb7f8187588d937b76ba7e2fe1",
  "nextblockhash": "000000005b3b7ea5ebdb0d518bd68cddbe3e283adb447bcaa5b13a459c474737",
  "strippedsize": 216,
  "size": 216,
  "weight": 864,
  "tx": [
    {
      "txid": "860c8b69e80fa7bb2ddb85316f3c50d5ab5f14a7f8dae5bd80a4fe27ed034921",
      "hash": "860c8b69e80fa7bb2ddb85316f3c50d5ab5f14a7f8dae5bd80a4fe27ed034921",
      "version": 1,
      "size": 135,
      "vsize": 135,
      "weight": 540,
      "locktime": 0,
      "vin": [
        {
          "coinbase": "04ffff001d029b08",
          "sequence": 4294967295
        }
      ],
      "vout": [
        {
          "value": 50.0,
          "n": 0,
          "scriptPubKey": {
            "asm": "04511869400dd53232d05a1473122e5f4dac5fa965e26c2632b8d8d58426e6af1e13c700f93833df90eb1884b84531c510e4dd273ed58af200224b6e078f444179 OP_CHECKSIG",
            "desc": "pk(04511869400dd53232d05a1473122e5f4dac5fa965e26c2632b8d8d58426e6af1e13c700f93833df90eb1884b84531c510e4dd273ed58af200224b6e078f444179)#ckz4rx4c",
            "hex": "4104511869400dd53232d05a1473122e5f4dac5fa965e26c2632b8d8d58426e6af1e13c700f93833df90eb1884b84531c510e4dd273ed58af200224b6e078f444179ac",
            "type": "pubkey"
          }
        }
      ],
      "hex": "01000000010000000000000000000000000000000000000000000000000000000000000000ffffffff0804ffff001d029b08ffffffff0100f2052a01000000434104511869400dd53232d05a1473122e5f4dac5fa965e26c2632b8d8d58426e6af1e13c700f93833df90eb1884b84531c510e4dd273ed58af200224b6e078f444179ac00000000"
    }
  ]
}