{
  "hash": "00000000b604b1bc6231df6af11c3c278495cf1931ede42ba4b8c6e27672a58d",
  "confirmations": 44583,
  "height": 8515,
  "version": 1,
  "versionHex": "00000001",
  "merkleroot": "c03b2cc444a50de9e4fc38b1580a0df519abc9ce310e4f1ae461901d37801b5e",
  "time": 1237883427,
  "mediantime": 1237880088,
  "nonce": 3059570724,
  "bits": "1d00ffff",
  "difficulty": 1,
  "chainwork": "0000000000000000000000000000000000000000000000000000214421442144",
  "nTx": 1,
  "previousblockhash": "00000000b84eef52e467604650fd32a06464448072c35c49d9b91490f0e4878f",
  "nextblockhash": "00000000e46010d660e4bd1b5f4696bf5ceb2763aad2809fd22169e582ff1bb2",
  "strippedsize": 216,
  "size": 216,
  "weight": 864,
  "tx": [
    {
      "txid": "c03b2cc444a50de9e4fc38b1580a0df519abc9ce310e4f1ae461901d37801b5e",
      "hash": "c03b2cc444a50de9e4fc38b1580a0df519abc9ce310e4f1ae461901d37801b5e",
      "version": 1,
      "size": 135,
      "vsize": 135,
      "weight": 540,
      "locktime": 0,
      "vin": [
        {
          "coinbase": "04ffff001d02fb07",
          "sequence": 4294967295
        }
      ],
      "vout": [
        {
          "value": 50.0,
          "n": 0,
          "scriptPubKey": {
            "asm": "04be95ffdb92a3c961162a92fb9f172169da7fef3f03253630736383015baeee623c8eee66dd029ca522aca932978a12718325a2f1cd2615f2c2acd01ee23abc6b OP_CHECKSIG",
            "desc": "pk(04be95ffdb92a3c961162a92fb9f172169da7fef3f03253630736383015baeee623c8eee66dd029ca522aca932978a12718325a2f1cd2615f2c2acd01ee23abc6b)#xdlh623n",
            "hex": "4104be95ffdb92a3c961162a92fb9f172169da7fef3f03253630736383015baeee623c8eee66dd029ca522aca932978a12718325a2f1cd2615f2c2acd01ee23abc6bac",
            "type": "pubkey"
          }
        }
      ],
      "hex": "01000000010000000000000000000000000000000000000000000000000000000000000000ffffffff0804ffff001d02fb07ffffffff0100f2052a01000000434104be95ffdb92a3c961162a92fb9f172169da7fef3f03253630736383015baeee623c8eee66dd029ca522aca932978a12718325a2f1cd2615f2c2acd01ee23abc6bac00000000"
    }
  ]
}