{
  "hash": "0000000039071cc3993397398ba6bc1265563383f428226a972903a42017b4a2",
  "confirmations": 49905,
  "height": 3193,
  "version": 1,
  "versionHex": "00000001",
  "merkleroot": "0e4abd9871c172b668d6220dd6d3e91b7f5b8461b32258e829ddee8c74045d9e",
  "time": 1233894298,
  "mediantime": 1233891352,
  "nonce": 2080620325,
  "bits": "1d00ffff",
  "difficulty": 1,
  "chainwork": "00000000000000000000000000000000000000000000000000000c7a0c7a0c7a",
  "nTx": 1,
  "previousblockhash": "00000000c52f9f67991800a704489d66653bcf91d1a950cc966820ff53a6a067",
  "nextblockhash": "000000001ceeaad2b160a06fc82b75e361e464700efb0bfffcce04ac27b85e97",
  "strippedsize": 216,
  "size": 216,
  "weight": 864,
  "tx": [
    {
      "txid": "0e4abd9871c172b668d6220dd6d3e91b7f5b8461b32258e829ddee8c74045d9e",
      "hash": "0e4abd9871c172b668d6220dd6d3e91b7f5b8461b32258e829ddee8c74045d9e",
      "version": 1,
      "size": 135,
      "vsize": 135,
      "weight": 540,
      "locktime": 0,
      "vin": [
        {
          "coinbase": "04ffff001d029302",
          "sequence": 4294967295
        }
      ],
      "vout": [
        {
          "value": 50.0,
          "n": 0,
          "scriptPubKey": {
            "asm": "04af2c7c5443d5a277a675ccde876bd9b085b7be67977767c22b5d5a003bb99148b5435ae1c9b6951d770dae0104ab36809834bd7dd68c9646c99bb9af17dfde31 OP_CHECKSIG",
            "desc": "pk(04af2c7c5443d5a277a675ccde876bd9b085b7be67977767c22b5d5a003bb99148b5435ae1c9b6951d770dae0104ab36809834bd7dd68c9646c99bb9af17dfde31)#jj4gpez3",
            "hex": "4104af2c7c5443d5a277a675ccde876bd9b085b7be67977767c22b5d5a003bb99148b5435ae1c9b6951d770dae0104ab36809834bd7dd68c9646c99bb9af17dfde31ac",
            "type": "pubkey"
          }
        }
      ],
      "hex": "01000000010000000000000000000000000000000000000000000000000000000000000000ffffffff0804ffff001d029302ffffffff0100f2052a01000000434104af2c7c5443d5a277a675ccde876bd9b085b7be67977767c22b5d5a003bb99148b5435ae1c9b6951d770dae0104ab36809834bd7dd68c9646c99bb9af17dfde31ac00000000"
    }
  ]
}