{
  "hash": "0000000088cbdf11dea3e0e1c5509596fd16c2616c511e6d2a6eb993f8c09a6c",
  "confirmations": 43484,
  "height": 9614,
  "version": 1,
  "versionHex": "00000001",
  "merkleroot": "5d6d53b800cf8657739d88972e88e2879fe07e714c88b88ff6c595504eff8144",
  "time": 1238712325,
  "mediantime": 1238707480,
  "nonce": 429065780,
  "bits": "1d00ffff",
  "difficulty": 1,
  "chainwork": "0000000000000000000000000000000000000000000000000000258f258f258f",
  "nTx": 1,
  "previousblockhash": "00000000e836625ac5d0712ebbbd9c544cb84b6d81e8b8ef810d5defe20962b9",
  "nextblockhash": "0000000007d1cc6343cbba51c9234394438e6ef730e31cc1c1cc30ef9efdde86",
  "strippedsize": 216,
  "size": 216,
  "weight": 864,
  "tx": [
    {
      "txid": "5d6d53b800cf8657739d88972e88e2879fe07e714c88b88ff6c595504eff8144",
      "hash": "5d6d53b800cf8657739d88972e88e2879fe07e714c88b88ff6c595504eff8144",
      "version": 1,
      "size": 135,
      "vsize": 135,
      "weight": 540,
      "locktime": 0,
      "vin": [
        {
          "coinbase": "04ffff001d025207",
          "sequence": 4294967295
        }
      ],
      "vout": [
        {
          "value": 50.0,
          "n": 0,
          "scriptPubKey": {
            "asm": "04e963cc4e36efbe4aae0e6fb4f753131443e41efc759881046cafd7440a6e8ef575a751af8e991d0ec45f861f9969e33caf3f869faef4cabce69660c80de80348 OP_CHECKSIG",
            "desc": "pk(04e963cc4e36efbe4aae0e6fb4f753131443e41efc759881046cafd7440a6e8ef575a751af8e991d0ec45f861f9969e33caf3f869faef4cabce69660c80de80348)#mws0z63w",
            "hex": "4104e963cc4e36efbe4aae0e6fb4f753131443e41efc759881046cafd7440a6e8ef575a751af8e991d0ec45f861f9969e33caf3f869faef4cabce69660c80de80348ac",
            "type": "pubkey"
          }
        }
      ],
      "hex": "01000000010000000000000000000000000000000000000000000000000000000000000000ffffffff0804ffff001d025207ffffffff0100f2052a01000000434104e963cc4e36efbe4aae0e6fb4f753131443e41efc759881046cafd7440a6e8ef575a751af8e991d0ec45f861f9969e33caf3f869faef4cabce69660c80de80348ac00000000"
    }
  ]
}