{
  "hash": "00000000314ff43c77573a3b8094951ce4b0f86aceee65e226914eb737ada575",
  "confirmations": 52548,
  "height": 550,
  "version": 1,
  "versionHex": "00000001",
  "merkleroot": "7fa84e1ae4fcb07cc1e74375d5023caeaffbfc86efef7fc7fb0863296b5e54ae",
  "time": 1232002581,
  "mediantime": 1231998512,
  "nonce": 3972065590,
  "bits": "1d00ffff",
  "difficulty": 1,
  "chainwork": "0000000000000000000000000000000000000000000000000000022702270227",
  "nTx": 1,
  "previousblockhash": "000000007583506b911ea93c3dc6ccad6351cc50cbab124e67441194d4a3d30f",
  "nextblockhash": "00000000cbfae8784536a97d45ae3422b3ec0bb76d480ad3e5db394f8a0b797d",
  "strippedsize": 216,
  "size": 216,
  "weight": 864,
  "tx": [
    {
      "txid": "7fa84e1ae4fcb07cc1e74375d5023caeaffbfc86efef7fc7fb0863296b5e54ae",
      "hash": "7fa84e1ae4fcb07cc1e74375d5023caeaffbfc86efef7fc7fb0863296b5e54ae",
      "version": 1,
      "size": 135,
      "vsize": 135,
      "weight": 540,
      "locktime": 0,
      "vin": [
        {
          "coinbase": "04ffff001d029f05",
          "sequence": 4294967295
        }
      ],
      "vout": [
        {
          "value": 50.0,
          "n": 0,
          "scriptPubKey": {
            "asm": "04fda740476e399b91814a273ae9dfb8ba9acda2f5c3c046ab369c871ec2015f0d6504afba0870cde3cc576de318554dd04462792bd784fa8ded0fccbec9108f76 OP_CHECKSIG",
            "desc": "pk(04fda740476e399b91814a273ae9dfb8ba9acda2f5c3c046ab369c871ec2015f0d6504afba0870cde3cc576de318554dd04462792bd784fa8ded0fccbec9108f76)#7lr4k83v",
            "hex": "4104fda740476e399b91814a273ae9dfb8ba9acda2f5c3c046ab369c871ec2015f0d6504afba0870cde3cc576de318554dd04462792bd784fa8ded0fccbec9108f76ac",
            "type": "pubkey"
          }
        }
      ],
      "hex": "01000000010000000000000000000000000000000000000000000000000000000000000000ffffffff0804ffff001d029f05ffffffff0100f2052a01000000434104fda740476e399b91814a273ae9dfb8ba9acda2f5c3c046ab369c871ec2015f0d6504afba0870cde3cc576de318554dd04462792bd784fa8ded0fccbec9108f76ac00000000"
    }
  ]
}