{
  "hash": "000000007d679d9e8837117151224d14af2cfb20eb85de4e079f225ea70ed7e1",
  "confirmations": 45476,
  "height": 7622,
  "version": 1,
  "versionHex": "00000001",
  "merkleroot": "f4ba3f067c2683698fc06b10c9564faf7520ea860778ff4d7e845a36447d1a7b",
  "time": 1237184224,
  "mediantime": 1237180212,
  "nonce": 250550342,
  "bits": "1d00ffff",
  "difficulty": 1,
  "chainwork": "00000000000000000000000000000000000000000000000000001dc71dc71dc7",
  "nTx": 1,
  "previousblockhash": "00000000903ed6d535dd9ca7bb9dbf75b7a13793eabf01bb91c2d54e36be2d08",
  "nextblockhash": "00000000e32aa73c997fad6a97be538ecd64735a4a9976edf2134024dee6c2f8",
  "strippedsize": 216,
  "size": 216,
  "weight": 864,
  "tx": [
    {
      "txid": "f4ba3f067c2683698fc06b10c9564faf7520ea860778ff4d7e845a36447d1a7b",
      "hash": "f4ba3f067c2683698fc06b10c9564faf7520ea860778ff4d7e845a36447d1a7b",
      "version": 1,
      "size": 135,
      "vsize": 135,
      "weight": 540,
      "locktime": 0,
      "vin": [
        {
          "coinbase": "04ffff001d026403",
          "sequence": 4294967295
        }
      ],
      "vout": [
        {
          "value": 50.0,
          "n": 0,
          "scriptPubKey": {
            "asm": "042db9cd9d7af09bc1e66d565c8f5268bb0b1890e95f407d765eb0ce166b4b314fa7b726e13805efbdb94a540198bdab8764dfc210ae7a5a005ff2e4985d98e3a1 OP_CHECKSIG",
            "desc": "pk(042db9cd9d7af09bc1e66d565c8f5268bb0b1890e95f407d765eb0ce166b4b314fa7b726e13805efbdb94a540198bdab8764dfc210ae7a5a005ff2e4985d98e3a1)#t6zwekzp",
            "hex": "41042db9cd9d7af09bc1e66d565c8f5268bb0b1890e95f407d765eb0ce166b4b314fa7b726e13805efbdb94a540198bdab8764dfc210ae7a5a005ff2e4985d98e3a1ac",
            "type": "pubkey"
          }
        }
      ],
      "hex": "01000000010000000000000000000000000000000000000000000000000000000000000000ffffffff0804ffff001d026403ffffffff0100f2052a010000004341042db9cd9d7af09bc1e66d565c8f5268bb0b1890e95f407d765eb0ce166b4b314fa7b726e13805efbdb94a540198bdab8764dfc210ae7a5a005ff2e4985d98e3a1ac00000000"
    }
  ]
}