{
  "hash": "00000000a3ff9826452b48a73aade6e5a4f0e64ae3fc0f923cbae50991df70f8",
  "confirmations": 45393,
  "height": 7705,
  "version": 1,
  "versionHex": "00000001",
  "merkleroot": "6d7c74483531c1b90dd48b1e69457a6a38eeab5156a700da4a4c118a164ee908",
  "time": 1237242849,
  "mediantime": 1237239228,
  "nonce": 1474338349,
  "bits": "1d00ffff",
  "difficulty": 1,
  "chainwork": "00000000000000000000000000000000000000000000000000001e1a1e1a1e1a",
  "nTx": 1,
  "previousblockhash": "000000003e2a49424baaf8e3fcbc849e9dfa8db750ed7f400414573fe92830c8",
  "nextblockhash": "00000000cab8ba72a5d415dd48bcb03ce10497ed82e16d628e5101c1dc0c0994",
  "strippedsize": 216,
  "size": 216,
  "weight": 864,
  "tx": [
    {
      "txid": "6d7c74483531c1b90dd48b1e69457a6a38eeab5156a700da4a4c118a164ee908",
      "hash": "6d7c74483531c1b90dd48b1e69457a6a38eeab5156a700da4a4c118a164ee908",
      "version": 1,
      "size": 135,
      "vsize": 135,
      "weight": 540,
      "locktime": 0,
      "vin": [
        {
          "coinbase": "04ffff001d023d04",
          "sequence": 4294967295
        }
      ],
      "vout": [
        {
          "value": 50.0,
          "n": 0,
          "scriptPubKey": {
            "asm": "04f8c4cc5f081a268b53c7d51a53bec5519fda6bb3df6ce47d66ecca9e6c751c30aeab7e702e993b013e2052cfaf5cf3148d14a5b4553d73e8546f95971e5a16cf OP_CHECKSIG",
            "desc": "pk(04f8c4cc5f081a268b53c7d51a53bec5519fda6bb3df6ce47d66ecca9e6c751c30aeab7e702e993b013e2052cfaf5cf3148d14a5b4553d73e8546f95971e5a16cf)#s6lgxdnh",
            "hex": "4104f8c4cc5f081a268b53c7d51a53bec5519fda6bb3df6ce47d66ecca9e6c751c30aeab7e702e993b013e2052cfaf5cf3148d14a5b4553d73e8546f95971e5a16cfac",
            "type": "pubkey"
          }
        }
      ],
      "hex": "01000000010000000000000000000000000000000000000000000000000000000000000000ffffffff0804ffff001d023d04ffffffff0100f2052a01000000434104f8c4cc5f081a268b53c7d51a53bec5519fda6bb3df6ce47d66ecca9e6c751c30aeab7e702e993b013e2052cfaf5cf3148d14a5b4553d73e8546f95971e5a16cfac00000000"
    }
  ]
}