{
  "hash": "00000000e15e3f9f5237c4d268c20f23ddbb78c2787fe3c1453ce625414cf656",
  "confirmations": 50419,
  "height": 2679,
  "version": 1,
  "versionHex": "00000001",
  "merkleroot": "938afbadf7e74d6a515a9893a27d8f9f15ff00b9c0ac4b60c828d08e78088925",
  "time": 1233547938,
  "mediantime": 1233544160,
  "nonce": 263866118,
  "bits": "1d00ffff",
  "difficulty": 1,
  "chainwork": "00000000000000000000000000000000000000000000000000000a780a780a78",
  "nTx": 1,
  "previousblockhash": "00000000cb8ce334e6e2e10d6c20c52782729389a823283f7ef0eec12e452edf",
  "nextblockhash": "00000000a2696fcc7e4db264b594b481759b692ebaff7cff61145ea11d983593",
  "strippedsize": 216,
  "size": 216,
  "weight": 864,
  "tx": [
    {
      "txid": "938afbadf7e74d6a515a9893a27d8f9f15ff00b9c0ac4b60c828d08e78088925",
      "hash": "938afbadf7e74d6a515a9893a27d8f9f15ff00b9c0ac4b60c828d08e78088925",
      "version": 1,
      "size": 135,
      "vsize": 135,
      "weight": 540,
      "locktime": 0,
      "vin": [
        {
          "coinbase": "04ffff001d027404",
          "sequence": 4294967295
        }
      ],
      "vout": [
        {
          "value": 50.0,
          "n": 0,
          "scriptPubKey": {
            "asm": "044a151a18d3abfdd8ebc744449944d6430a060425768bee3813480cc6d5aa130b4ef8fb385a8e1f46f89013cabdc4055ffdd34a3eef667877fbdb099f2713ed7b OP_CHECKSIG",
            "desc": "pk(044a151a18d3abfdd8ebc744449944d6430a060425768bee3813480cc6d5aa130b4ef8fb385a8e1f46f89013cabdc4055ffdd34a3eef667877fbdb099f2713ed7b)#xzcm7qht",
            "hex": "41044a151a18d3abfdd8ebc744449944d6430a060425768bee3813480cc6d5aa130b4ef8fb385a8e1f46f89013cabdc4055ffdd34a3eef667877fbdb099f2713ed7bac",
            "type": "pubkey"
          }
        }
      ],
      "hex": "01000000010000000000000000000000000000000000000000000000000000000000000000ffffffff0804ffff001d027404ffffffff0100f2052a010000004341044a151a18d3abfdd8ebc744449944d6430a060425768bee3813480cc6d5aa130b4ef8fb385a8e1f46f89013cabdc4055ffdd34a3eef667877fbdb099f2713ed7bac00000000"
    }
  ]
}