{
  "hash": "00000000e93a18e6d4acbaa5fec37dfbdf2d4109efbe8ea2d962e4c922565252",
  "confirmations": 44376,
  "height": 8722,
  "version": 1,
  "versionHex": "00000001",
  "merkleroot": "c5277182dc6ed7da9771270cc169e7b973db1eec49d8370e91c1d6717f569700",
  "time": 1238038021,
  "mediantime": 1238034519,
  "nonce": 1869008939,
  "bits": "1d00ffff",
  "difficulty": 1,
  "chainwork": "0000000000000000000000000000000000000000000000000000221322132213",
  "nTx": 1,
  "previousblockhash": "00000000ea88a91c6afaa042408c615fe734e0bb0318b552deb0313f5946a8c3",
  "nextblockhash": "00000000376773e9cc30f6b052dde766ae11ac33aa779dea7c1c1405db2a3e68",
  "strippedsize": 216,
  "size": 216,
  "weight": 864,
  "tx": [
    {
      "txid": "c5277182dc6ed7da9771270cc169e7b973db1eec49d8370e91c1d6717f569700",
      "hash": "c5277182dc6ed7da9771270cc169e7b973db1eec49d8370e91c1d6717f569700",
      "version": 1,
      "size": 135,
      "vsize": 135,
      "weight": 540,
      "locktime": 0,
      "vin": [
        {
          "coinbase": "04ffff001d024e01",
          "sequence": 4294967295
        }
      ],
      "vout": [
        {
          "value": 50.0,
          "n": 0,
          "scriptPubKey": {
            "asm": "04589d5a3099c3312a4d18c15c135189835c910e3ed2cfa75c48fc42dec097c86ec9793947a8c5dd9558781c3165f3826771da0189fcc5a5610b0016d4f8ba4f49 OP_CHECKSIG",
            "desc": "pk(04589d5a3099c3312a4d18c15c135189835c910e3ed2cfa75c48fc42dec097c86ec9793947a8c5dd9558781c3165f3826771da0189fcc5a5610b0016d4f8ba4f49)#sk4rfsxr",
            "hex": "4104589d5a3099c3312a4d18c15c135189835c910e3ed2cfa75c48fc42dec097c86ec9793947a8c5dd9558781c3165f3826771da0189fcc5a5610b0016d4f8ba4f49ac",
            "type": "pubkey"
          }
        }
      ],
      "hex": "01000000010000000000000000000000000000000000000000000000000000000000000000ffffffff0804ffff001d024e01ffffffff0100f2052a01000000434104589d5a3099c3312a4d18c15c135189835c910e3ed2cfa75c48fc42dec097c86ec9793947a8c5dd9558781c3165f3826771da0189fcc5a5610b0016d4f8ba4f49ac00000000"
    }
  ]
}