{
  "hash": "000000006486e9b59af9a133b725ec47e6041929d874d290870d98805584ca67",
  "confirmations": 43758,
  "height": 9340,
  "version": 1,
  "versionHex": "00000001",
  "merkleroot": "7113d3698f7a5c88ea5e33077d297fc2b26f54813e407ccaaa28b60f8424af33",
  "time": 1238507159,
  "mediantime": 1238500479,
  "nonce": 137175953,
  "bits": "1d00ffff",
  "difficulty": 1,
  "chainwork": "0000000000000000000000000000000000000000000000000000247d247d247d",
  "nTx": 1,
  "previousblockhash": "00000000d82b8a7e2ab966ff06c1ff991bfb1ec76dec5d0ab73ca46c6139c8c1",
  "nextblockhash": "00000000e091021c9c581d957341a0894622344cdd72a4e898e01876db09b05c",
  "strippedsize": 215,
  "size": 215,
  "weight": 860,
  "tx": [
    {
      "txid": "7113d3698f7a5c88ea5e33077d297fc2b26f54813e407ccaaa28b60f8424af33",
      "hash": "7113d3698f7a5c88ea5e33077d297fc2b26f54813e407ccaaa28b60f8424af33",
      "version": 1,
      "size": 134,
      "vsize": 134,
      "weight": 536,
      "locktime": 0,
      "vin": [
        {
          "coinbase": "04ffff001d0125",
          "sequence": 4294967295
        }
      ],
      "vout": [
        {
          "value": 50.0,
          "n": 0,
          "scriptPubKey": {
            "asm": "047f3a05b283b396d067dd0e30e92b6a94a93413e7999b3c585f20eb435faac4d6204fcc1c0b3bcd9cd2b0f3d0c5127c0b22971a5fca335e3a55cd749e0c51bde5 OP_CHECKSIG",
            "desc": "pk(047f3a05b283b396d067dd0e30e92b6a94a93413e7999b3c585f20eb435faac4d6204fcc1c0b3bcd9cd2b0f3d0c5127c0b22971a5fca335e3a55cd749e0c51bde5)#y5dxj4zz",
            "hex": "41047f3a05b283b396d067dd0e30e92b6a94a93413e7999b3c585f20eb435faac4d6204fcc1c0b3bcd9cd2b0f3d0c5127c0b22971a5fca335e3a55cd749e0c51bde5ac",
            "type": "pubkey"
          }
        }
      ],
      "hex": "01000000010000000000000000000000000000000000000000000000000000000000000000ffffffff0704ffff001d0125ffffffff0100f2052a010000004341047f3a05b283b396d067dd0e30e92b6a94a93413e7999b3c585f20eb435faac4d6204fcc1c0b3bcd9cd2b0f3d0c5127c0b22971a5fca335e3a55cd749e0c51bde5ac00000000"
    }
  ]
}