{
  "hash": "000000006b316a2f70da34951fec6f22e2964c86f34e4a196fdf3f4d164569fa",
  "confirmations": 47713,
  "height": 5385,
  "version": 1,
  "versionHex": "00000001",
  "merkleroot": "a5e923283c997b9098f0ed1d1498c3173c39b2a0c146b8beb9713738d682a921",
  "time": 1235427257,
  "mediantime": 1235423756,
  "nonce": 1255358761,
  "bits": "1d00ffff",
  "difficulty": 1,
  "chainwork": "0000000000000000000000000000000000000000000000000000150a150a150a",
  "nTx": 1,
  "previousblockhash": "00000000d9a4c6e6ede14f7e651987c1778d738b9a99a85e7cead047d3c28b96",
  "nextblockhash": "00000000fff91949181449d048aca5a1cc6d0e3e3f34e89c00ab2709696b8da0",
  "strippedsize": 216,
  "size": 216,
  "weight": 864,
  "tx": [
    {
      "txid": "a5e923283c997b9098f0ed1d1498c3173c39b2a0c146b8beb9713738d682a921",
      "hash": "a5e923283c997b9098f0ed1d1498c3173c39b2a0c146b8beb9713738d682a921",
      "version": 1,
      "size": 135,
      "vsize": 135,
      "weight": 540,
      "locktime": 0,
      "vin": [
        {
          "coinbase": "04ffff001d026803",
          "sequence": 4294967295
        }
      ],
      "vout": [
        {
          "value": 50.0,
          "n": 0,
          "scriptPubKey": {
            "asm": "0498e7eb2c606e6f2a6e7d95418f3abc41792cc74f209cb456a158ccdb6417fd45a028c93ce792154c3d7aa1fb4c6ce30b7b4c05a394f01b68f53649a628903b3b OP_CHECKSIG",
            "desc": "pk(0498e7eb2c606e6f2a6e7d95418f3abc41792cc74f209cb456a158ccdb6417fd45a028c93ce792154c3d7aa1fb4c6ce30b7b4c05a394f01b68f53649a628903b3b)#ctgkmul9",
            "hex": "410498e7eb2c606e6f2a6e7d95418f3abc41792cc74f209cb456a158ccdb6417fd45a028c93ce792154c3d7aa1fb4c6ce30b7b4c05a394f01b68f53649a628903b3bac",
            "type": "pubkey"
          }
        }
      ],
      "hex": "01000000010000000000000000000000000000000000000000000000000000000000000000ffffffff0804ffff001d026803ffffffff0100f2052a0100000043410498e7eb2c606e6f2a6e7d95418f3abc41792cc74f209cb456a158ccdb6417fd45a028c93ce792154c3d7aa1fb4c6ce30b7b4c05a394f01b68f53649a628903b3bac00000000"
    }
  ]
}