{
  "hash": "0000000009ff1a086133e96a097ae7138593722bf89463703abdae49412c5043",
  "confirmations": 50467,
  "height": 2631,
  "version": 1,
  "versionHex": "00000001",
  "merkleroot": "2b29297bde9173cd31c1c1e0a956e574a91d0214dba6e7556c02526bd9f98d7e",
  "time": 1233513983,
  "mediantime": 1233511208,
  "nonce": 820026114,
  "bits": "1d00ffff",
  "difficulty": 1,
  "chainwork": "00000000000000000000000000000000000000000000000000000a480a480a48",
  "nTx": 1,
  "previousblockhash": "00000000294d6aac3f71b25da5b0a6f5dfd3563cb5ce4f50fb01a03b4d9c4810",
  "nextblockhash": "0000000016f2681801aba824f8ce1cccb1e7155ca22c9c76dfa23b3bc8e03779",
  "strippedsize": 216,
  "size": 216,
  "weight": 864,
  "tx": [
    {
      "txid": "2b29297bde9173cd31c1c1e0a956e574a91d0214dba6e7556c02526bd9f98d7e",
      "hash": "2b29297bde9173cd31c1c1e0a956e574a91d0214dba6e7556c02526bd9f98d7e",
      "version": 1,
      "size": 135,
      "vsize": 135,
      "weight": 540,
      "locktime": 0,
      "vin": [
        {
          "coinbase": "04ffff001d027503",
          "sequence": 4294967295
        }
      ],
      "vout": [
        {
          "value": 50.0,
          "n": 0,
          "scriptPubKey": {
            "asm": "04a4f658fd85cc6630833cd00c8a6fb7e05d0f77671fe5dcb3bf49ed9a734468fc96f2000453a21be3469602bba9bd02a6ec47cf1edd9c3fb259e7f02bbcb7eca1 OP_CHECKSIG",
            "desc": "pk(04a4f658fd85cc6630833cd00c8a6fb7e05d0f77671fe5dcb3bf49ed9a734468fc96f2000453a21be3469602bba9bd02a6ec47cf1edd9c3fb259e7f02bbcb7eca1)#vyflpwan",
            "hex": "4104a4f658fd85cc6630833cd00c8a6fb7e05d0f77671fe5dcb3bf49ed9a734468fc96f2000453a21be3469602bba9bd02a6ec47cf1edd9c3fb259e7f02bbcb7eca1ac",
            "type": "pubkey"
          }
        }
      ],
      "hex": "01000000010000000000000000000000000000000000000000000000000000000000000000ffffffff0804ffff001d027503ffffffff0100f2052a01000000434104a4f658fd85cc6630833cd00c8a6fb7e05d0f77671fe5dcb3bf49ed9a734468fc96f2000453a21be3469602bba9bd02a6ec47cf1edd9c3fb259e7f02bbcb7eca1ac00000000"
    }
  ]
}