{
  "hash": "00000000f61901c4fd1e33bcb8ec1a79300682fee44a8b01d556759f2430d963",
  "confirmations": 44764,
  "height": 8334,
  "version": 1,
  "versionHex": "00000001",
  "merkleroot": "2ea2a6937515cd9b8a882e97e67f33dc0e689488e0e2d9626975586e513e6ba8",
  "time": 1237755664,
  "mediantime": 1237751606,
  "nonce": 853095708,
  "bits": "1d00ffff",
  "difficulty": 1,
  "chainwork": "0000000000000000000000000000000000000000000000000000208f208f208f",
  "nTx": 1,
  "previousblockhash": "00000000c08e4db3ceaeaf7cef9429f6d3fd9ede816df6f150f89892183fd780",
  "nextblockhash": "0000000027db8c3becbb444573fdc3d5e5d3226ab9c98e029c1d8c54884bf4fb",
  "strippedsize": 216,
  "size": 216,
  "weight": 864,
  "tx": [
    {
      "txid": "2ea2a6937515cd9b8a882e97e67f33dc0e689488e0e2d9626975586e513e6ba8",
      "hash": "2ea2a6937515cd9b8a882e97e67f33dc0e689488e0e2d9626975586e513e6ba8",
      "version": 1,
      "size": 135,
      "vsize": 135,
      "weight": 540,
      "locktime": 0,
      "vin": [
        {
          "coinbase": "04ffff001d02b204",
          "sequence": 4294967295
        }
      ],
      "vout": [
        {
          "value": 50.0,
          "n": 0,
          "scriptPubKey": {
            "asm": "04674f061560778866cd9f7f35dad5502e616796ca483cfea31742e04fe307dcf337fe446c7633b19a3261394633b5baf7528ea9ce3879cb40a57493658b68bb6e OP_CHECKSIG",
            "desc": "pk(04674f061560778866cd9f7f35dad5502e616796ca483cfea31742e04fe307dcf337fe446c7633b19a3261394633b5baf7528ea9ce3879cb40a57493658b68bb6e)#t2pnmkge",
            "hex": "4104674f061560778866cd9f7f35dad5502e616796ca483cfea31742e04fe307dcf337fe446c7633b19a3261394633b5baf7528ea9ce3879cb40a57493658b68bb6eac",
            "type": "pubkey"
          }
        }
      ],
      "hex": "01000000010000000000000000000000000000000000000000000000000000000000000000ffffffff0804ffff001d02b204ffffffff0100f2052a01000000434104674f061560778866cd9f7f35dad5502e616796ca483cfea31742e04fe307dcf337fe446c7633b19a3261394633b5baf7528ea9ce3879cb40a57493658b68bb6eac00000000"
    }
  ]
}