{
  "hash": "000000004718c1ef012d3980ba6c85916402c57e4bb0d285f4041627f326d850",
  "confirmations": 51219,
  "height": 1879,
  "version": 1,
  "versionHex": "00000001",
  "merkleroot": "6953cdcb809eb37e8dbceb830841513c1a82858ec92567cfcfe3743352962802",
  "time": 1232934584,
  "mediantime": 1232932639,
  "nonce": 1045945108,
  "bits": "1d00ffff",
  "difficulty": 1,
  "chainwork": "0000000000000000000000000000000000000000000000000000075807580758",
  "nTx": 1,
  "previousblockhash": "00000000d02b479f4b12acc60bd26b95c74ea25ba831facd30117dffa9e94cb4",
  "nextblockhash": "00000000ef5126d211c6e240795c88d9475c2b0b5d5e75bb0feae6cf59775f08",
  "strippedsize": 216,
  "size": 216,
  "weight": 864,
  "tx": [
    {
      "txid": "6953cdcb809eb37e8dbceb830841513c1a82858ec92567cfcfe3743352962802",
      "hash": "6953cdcb809eb37e8dbceb830841513c1a82858ec92567cfcfe3743352962802",
      "version": 1,
      "size": 135,
      "vsize": 135,
      "weight": 540,
      "locktime": 0,
      "vin": [
        {
          "coinbase": "04ffff001d020505",
          "sequence": 4294967295
        }
      ],
      "vout": [
        {
          "value": 50.0,
          "n": 0,
          "scriptPubKey": {
            "asm": "04708b56a8c97cae16ffdb816ffdaedc8d2e432777d4336a3b68bac849ad9d5657166d54f84492cbc19cc47a71bb8176d665a1344cb5bea69c3bb10c58b2f5c720 OP_CHECKSIG",
            "desc": "pk(04708b56a8c97cae16ffdb816ffdaedc8d2e432777d4336a3b68bac849ad9d5657166d54f84492cbc19cc47a71bb8176d665a1344cb5bea69c3bb10c58b2f5c720)#rf8n6seu",
            "hex": "4104708b56a8c97cae16ffdb816ffdaedc8d2e432777d4336a3b68bac849ad9d5657166d54f84492cbc19cc47a71bb8176d665a1344cb5bea69c3bb10c58b2f5c720ac",
            "type": "pubkey"
          }
        }
      ],
      "hex": "01000000010000000000000000000000000000000000000000000000000000000000000000ffffffff0804ffff001d020505ffffffff0100f2052a01000000434104708b56a8c97cae16ffdb816ffdaedc8d2e432777d4336a3b68bac849ad9d5657166d54f84492cbc19cc47a71bb8176d665a1344cb5bea69c3bb10c58b2f5c720ac00000000"
    }
  ]
}