{
  "hash": "00000000785228f0d067057b286955caed37d7b57085adc9199f2412213c3b99",
  "confirmations": 49492,
  "height": 3606,
  "version": 1,
  "versionHex": "00000001",
  "merkleroot": "ed847874bcd8cc37f04310e87132aa0a40d8540a033a267b4d96c7082027473d",
  "time": 1234176404,
  "mediantime": 1234173337,
  "nonce": 635321657,
  "bits": "1d00ffff",
  "difficulty": 1,
  "chainwork": "00000000000000000000000000000000000000000000000000000e170e170e17",
  "nTx": 1,
  "previousblockhash": "000000008d708e0a2b7e7694904ba14bbd1eb534c507742e4d5b32d9d2729eac",
  "nextblockhash": "00000000dd10a32ba65f225b5e4df1da4fa80fc8a2a4eba901f4e791adbd2c41",
  "strippedsize": 216,
  "size": 216,
  "weight": 864,
  "tx": [
    {
      "txid": "ed847874bcd8cc37f04310e87132aa0a40d8540a033a267b4d96c7082027473d",
      "hash": "ed847874bcd8cc37f04310e87132aa0a40d8540a033a267b4d96c7082027473d",
      "version": 1,
      "size": 135,
      "vsize": 135,
      "weight": 540,
      "locktime": 0,
      "vin": [
        {
          "coinbase": "04ffff001d02ba08",
          "sequence": 4294967295
        }
      ],
      "vout": [
        {
          "value": 50.0,
          "n": 0,
          "scriptPubKey": {
            "asm": "04d764790b559ddef5df219952ad428784c23143ba9cc7c8a59728ad6e67bf184596f751d33bc54779246bd9b0dbce62d592e0252eaea253202b43c0f2c6bef63c OP_CHECKSIG",
            "desc": "pk(04d764790b559ddef5df219952ad428784c23143ba9cc7c8a59728ad6e67bf184596f751d33bc54779246bd9b0dbce62d592e0252eaea253202b43c0f2c6bef63c)#nud4vpux",
            "hex": "4104d764790b559ddef5df219952ad428784c23143ba9cc7c8a59728ad6e67bf184596f751d33bc54779246bd9b0dbce62d592e0252eaea253202b43c0f2c6bef63cac",
            "type": "pubkey"
          }
        }
      ],
      "hex": "01000000010000000000000000000000000000000000000000000000000000000000000000ffffffff0804ffff001d02ba08ffffffff0100f2052a01000000434104d764790b559ddef5df219952ad428784c23143ba9cc7c8a59728ad6e67bf184596f751d33bc54779246bd9b0dbce62d592e0252eaea253202b43c0f2c6bef63cac00000000"
    }
  ]
}