{
  "hash": "000000007193a7d412482a8bfe194e2bcb5f1b0b5c5c4582e0435ad162095062",
  "confirmations": 52144,
  "height": 954,
  "version": 1,
  "versionHex": "00000001",
  "merkleroot": "9eddc393edb1d0dad1be954dca2ed49a87a6ff352f5d52f304cadf20739dd9d5",
  "time": 1232316261,
  "mediantime": 1232312474,
  "nonce": 2998606889,
  "bits": "1d00ffff",
  "difficulty": 1,
  "chainwork": "000000000000000000000000000000000000000000000000000003bb03bb03bb",
  "nTx": 1,
  "previousblockhash": "00000000b61bf949bddcd48b7c4eadac2972f604e22f9b34be942cd84925b6cf",
  "nextblockhash": "00000000ad13c8f434895ab7d6773e07b7e1110bd4165a2335376d0563a0e735",
  "strippedsize": 216,
  "size": 216,
  "weight": 864,
  "tx": [
    {
      "txid": "9eddc393edb1d0dad1be954dca2ed49a87a6ff352f5d52f304cadf20739dd9d5",
      "hash": "9eddc393edb1d0dad1be954dca2ed49a87a6ff352f5d52f304cadf20739dd9d5",
      "version": 1,
      "size": 135,
      "vsize": 135,
      "weight": 540,
      "locktime": 0,
      "vin": [
        {
          "coinbase": "04ffff001d026a04",
          "sequence": 4294967295
        }
      ],
      "vout": [
        {
          "value": 50.0,
          "n": 0,
          "scriptPubKey": {
            "asm": "04756cc35ea55c614a7e76e21e6776f411aafc747a36337ae4a256136fed3a84072e8b7a7a11a586550a5d928d3a25d63cdac377d217e9d58e2f0c75a634bc16bc OP_CHECKSIG",
            "desc": "pk(04756cc35ea55c614a7e76e21e6776f411aafc747a36337ae4a256136fed3a84072e8b7a7a11a586550a5d928d3a25d63cdac377d217e9d58e2f0c75a634bc16bc)#ydswc2tv",
            "hex": "4104756cc35ea55c614a7e76e21e6776f411aafc747a36337ae4a256136fed3a84072e8b7a7a11a586550a5d928d3a25d63cdac377d217e9d58e2f0c75a634bc16bcac",
            "type": "pubkey"
          }
        }
      ],
      "hex": "01000000010000000000000000000000000000000000000000000000000000000000000000ffffffff0804ffff001d026a04ffffffff0100f2052a01000000434104756cc35ea55c614a7e76e21e6776f411aafc747a36337ae4a256136fed3a84072e8b7a7a11a586550a5d928d3a25d63cdac377d217e9d58e2f0c75a634bc16bcac00000000"
    }
  ]
}