{
  "hash": "00000000a24ffe7c80ead2ec6243cc63ccf856b283fcc540f99c0290d8c83d84",
  "confirmations": 43257,
  "height": 9841,
  "version": 1,
  "versionHex": "00000001",
  "merkleroot": "b577cf051185fed05f5434207db433237b2c5dec0ce251a28852588ef723ada6",
  "time": 1238884289,
  "mediantime": 1238880930,
  "nonce": 2749377590,
  "bits": "1d00ffff",
  "difficulty": 1,
  "chainwork": "0000000000000000000000000000000000000000000000000000267226722672",
  "nTx": 1,
  "previousblockhash": "00000000d846c5fbd90fe25130cfc4c62e07594c5d98b8fcb13110d38fe56a23",
  "nextblockhash": "00000000e8abf3d8f51adfe484443d87f054de0632a7330f3b9f4e1be1225610",
  "strippedsize": 216,
  "size": 216,
  "weight": 864,
  "tx": [
    {
      "txid": "b577cf051185fed05f5434207db433237b2c5dec0ce251a28852588ef723ada6",
      "hash": "b577cf051185fed05f5434207db433237b2c5dec0ce251a28852588ef723ada6",
      "version": 1,
      "size": 135,
      "vsize": 135,
      "weight": 540,
      "locktime": 0,
      "vin": [
        {
          "coinbase": "04ffff001d020701",
          "sequence": 4294967295
        }
      ],
      "vout": [
        {
          "value": 50.0,
          "n": 0,
          "scriptPubKey": {
            "asm": "04231c80e1760ff4481d1f9fe23fb623941fdd729d5f7ec859e627935a52131040af1544bbc7e2d9a1e4f919306c622a70ad293b3e00307a3a6de6d3218c8cd761 OP_CHECKSIG",
            "desc": "pk(04231c80e1760ff4481d1f9fe23fb623941fdd729d5f7ec859e627935a52131040af1544bbc7e2d9a1e4f919306c622a70ad293b3e00307a3a6de6d3218c8cd761)#n7n8wu4h",
            "hex": "4104231c80e1760ff4481d1f9fe23fb623941fdd729d5f7ec859e627935a52131040af1544bbc7e2d9a1e4f919306c622a70ad293b3e00307a3a6de6d3218c8cd761ac",
            "type": "pubkey"
          }
        }
      ],
      "hex": "01000000010000000000000000000000000000000000000000000000000000000000000000ffffffff0804ffff001d020701ffffffff0100f2052a01000000434104231c80e1760ff4481d1f9fe23fb623941fdd729d5f7ec859e627935a52131040af1544bbc7e2d9a1e4f919306c622a70ad293b3e00307a3a6de6d3218c8cd761ac00000000"
    }
  ]
}