{
  "hash": "00000000f93a3117431247c4f24c86cf2085a29117076491dabe022c9d2cb69c",
  "confirmations": 49805,
  "height": 3293,
  "version": 1,
  "versionHex": "00000001",
  "merkleroot": "aa5d869147326609b50fb0a12c31ff1ab6ddab227e39ab0460874d83f4ff7a7f",
  "time": 1233966217,
  "mediantime": 1233963799,
  "nonce": 41468601,
  "bits": "1d00ffff",
  "difficulty": 1,
  "chainwork": "00000000000000000000000000000000000000000000000000000cde0cde0cde",
  "nTx": 1,
  "previousblockhash": "000000000e4523a52ec47847eb7bd92e9d2d2c535decd665807b577e62999b1e",
  "nextblockhash": "000000003c1cf3c7ce9d708f00fd77e80c5e736aaa351606575e44c638677b44",
  "strippedsize": 215,
  "size": 215,
  "weight": 860,
  "tx": [
    {
      "txid": "aa5d869147326609b50fb0a12c31ff1ab6ddab227e39ab0460874d83f4ff7a7f",
      "hash": "aa5d869147326609b50fb0a12c31ff1ab6ddab227e39ab0460874d83f4ff7a7f",
      "version": 1,
      "size": 134,
      "vsize": 134,
      "weight": 536,
      "locktime": 0,
      "vin": [
        {
          "coinbase": "04ffff001d016e",
          "sequence": 4294967295
        }
      ],
      "vout": [
        {
          "value": 50.0,
          "n": 0,
          "scriptPubKey": {
            "asm": "046cd9776c91f409d0b45a1c1932c7f980795fcc37c5f43e44456a9709b5afb12f8d5962b92c09d10469dd039c35cc5ec1acf42fd7660d0bdf88846b34f55b083c OP_CHECKSIG",
            "desc": "pk(046cd9776c91f409d0b45a1c1932c7f980795fcc37c5f43e44456a9709b5afb12f8d5962b92c09d10469dd039c35cc5ec1acf42fd7660d0bdf88846b34f55b083c)#8zyt53zu",
            "hex": "41046cd9776c91f409d0b45a1c1932c7f980795fcc37c5f43e44456a9709b5afb12f8d5962b92c09d10469dd039c35cc5ec1acf42fd7660d0bdf88846b34f55b083cac",
            "type": "pubkey"
          }
        }
      ],
      "hex": "01000000010000000000000000000000000000000000000000000000000000000000000000ffffffff0704ffff001d016effffffff0100f2052a010000004341046cd9776c91f409d0b45a1c1932c7f980795fcc37c5f43e44456a9709b5afb12f8d5962b92c09d10469dd039c35cc5ec1acf42fd7660d0bdf88846b34f55b083cac00000000"
    }
  ]
}