{
  "hash": "000000003d6d7481a0c36a44a14d64d1ffecf63416394195ddf3dfe8e2d02103",
  "confirmations": 43219,
  "height": 9879,
  "version": 1,
  "versionHex": "00000001",
  "merkleroot": "1049a2c26fd81fcbb1c44e7601433a1dd295527b540e57c806d56fe30d2dc2c0",
  "time": 1238911196,
  "mediantime": 1238909082,
  "nonce": 1613387041,
  "bits": "1d00ffff",
  "difficulty": 1,
  "chainwork": "0000000000000000000000000000000000000000000000000000269826982698",
  "nTx": 1,
  "previousblockhash": "00000000eb14c7b934c0860a83bc872c9a4571d8704ba1e9bc37bd2e797d772d",
  "nextblockhash": "000000003abc5f04a0388406a3f268716e293394f6824f8e05b8808fcba633c0",
  "strippedsize": 216,
  "size": 216,
  "weight": 864,
  "tx": [
    {
      "txid": "1049a2c26fd81fcbb1c44e7601433a1dd295527b540e57c806d56fe30d2dc2c0",
      "hash": "1049a2c26fd81fcbb1c44e7601433a1dd295527b540e57c806d56fe30d2dc2c0",
      "version": 1,
      "size": 135,
      "vsize": 135,
      "weight": 540,
      "locktime": 0,
      "vin": [
        {
          "coinbase": "04ffff001d02b801",
          "sequence": 4294967295
        }
      ],
      "vout": [
        {
          "value": 50.0,
          "n": 0,
          "scriptPubKey": {
            "asm": "04d7258622e0c86672f32e2c5cfbae1d6301f1991c5b6274accbde2a2051166c20852d1fbbc765098f4d5b3ebd13bc62063e7122d72ae88dc01a6dec5bf7da6fb6 OP_CHECKSIG",
            "desc": "pk(04d7258622e0c86672f32e2c5cfbae1d6301f1991c5b6274accbde2a2051166c20852d1fbbc765098f4d5b3ebd13bc62063e7122d72ae88dc01a6dec5bf7da6fb6)#u2jvtcv9",
            "hex": "4104d7258622e0c86672f32e2c5cfbae1d6301f1991c5b6274accbde2a2051166c20852d1fbbc765098f4d5b3ebd13bc62063e7122d72ae88dc01a6dec5bf7da6fb6ac",
            "type": "pubkey"
          }
        }
      ],
      "hex": "01000000010000000000000000000000000000000000000000000000000000000000000000ffffffff0804ffff001d02b801ffffffff0100f2052a01000000434104d7258622e0c86672f32e2c5cfbae1d6301f1991c5b6274accbde2a2051166c20852d1fbbc765098f4d5b3ebd13bc62063e7122d72ae88dc01a6dec5bf7da6fb6ac00000000"
    }
  ]
}