{
  "hash": "00000000e836625ac5d0712ebbbd9c544cb84b6d81e8b8ef810d5defe20962b9",
  "confirmations": 43485,
  "height": 9613,
  "version": 1,
  "versionHex": "00000001",
  "merkleroot": "e16a6cec4b376dbadf8630ed348c66a34a00569c30a015a9375280ce406ac2bd",
  "time": 1238711135,
  "mediantime": 1238706633,
  "nonce": 3037822465,
  "bits": "1d00ffff",
  "difficulty": 1,
  "chainwork": "0000000000000000000000000000000000000000000000000000258e258e258e",
  "nTx": 1,
  "previousblockhash": "00000000a91199ea5c490a5cfd90a0b93522be3add4b043654b7976317307e74",
  "nextblockhash": "0000000088cbdf11dea3e0e1c5509596fd16c2616c511e6d2a6eb993f8c09a6c",
  "strippedsize": 216,
  "size": 216,
  "weight": 864,
  "tx": [
    {
      "txid": "e16a6cec4b376dbadf8630ed348c66a34a00569c30a015a9375280ce406ac2bd",
      "hash": "e16a6cec4b376dbadf8630ed348c66a34a00569c30a015a9375280ce406ac2bd",
      "version": 1,
      "size": 135,
      "vsize": 135,
      "weight": 540,
      "locktime": 0,
      "vin": [
        {
          "coinbase": "04ffff001d024e07",
          "sequence": 4294967295
        }
      ],
      "vout": [
        {
          "value": 50.0,
          "n": 0,
          "scriptPubKey": {
            "asm": "04a0136eb524966c0054b68191929220391946313e4d53f32e5883fb86854b7d6d8bfd40b96032991dd017bcee3b733b100082b802546e128f7f82139845210e26 OP_CHECKSIG",
            "desc": "pk(04a0136eb524966c0054b68191929220391946313e4d53f32e5883fb86854b7d6d8bfd40b96032991dd017bcee3b733b100082b802546e128f7f82139845210e26)#jrh7ytl0",
            "hex": "4104a0136eb524966c0054b68191929220391946313e4d53f32e5883fb86854b7d6d8bfd40b96032991dd017bcee3b733b100082b802546e128f7f82139845210e26ac",
            "type": "pubkey"
          }
        }
      ],
      "hex": "01000000010000000000000000000000000000000000000000000000000000000000000000ffffffff0804ffff001d024e07ffffffff0100f2052a01000000434104a0136eb524966c0054b68191929220391946313e4d53f32e5883fb86854b7d6d8bfd40b96032991dd017bcee3b733b100082b802546e128f7f82139845210e26ac00000000"
    }
  ]
}