{
  "hash": "00000000e3826f75b1b9239d8a0b6f36dbfbe119cecee4a4aa5684047fba6b3c",
  "confirmations": 45946,
  "height": 7152,
  "version": 1,
  "versionHex": "00000001",
  "merkleroot": "d0e34c87861aca59abc85694ccbb6f9bb3f23bd91ac048f2f186994eb1985c7f",
  "time": 1236837115,
  "mediantime": 1236833999,
  "nonce": 26299844,
  "bits": "1d00ffff",
  "difficulty": 1,
  "chainwork": "00000000000000000000000000000000000000000000000000001bf11bf11bf1",
  "nTx": 1,
  "previousblockhash": "00000000105fb7538b2bea90c38e9286580e213abf8b5c2fed13466f547a390c",
  "nextblockhash": "00000000ca247045243ca614f4ee723365f1979ea71d7d7ea91782e7c21241db",
  "strippedsize": 215,
  "size": 215,
  "weight": 860,
  "tx": [
    {
      "txid": "d0e34c87861aca59abc85694ccbb6f9bb3f23bd91ac048f2f186994eb1985c7f",
      "hash": "d0e34c87861aca59abc85694ccbb6f9bb3f23bd91ac048f2f186994eb1985c7f",
      "version": 1,
      "size": 134,
      "vsize": 134,
      "weight": 536,
      "locktime": 0,
      "vin": [
        {
          "coinbase": "04ffff001d0165",
          "sequence": 4294967295
        }
      ],
      "vout": [
        {
          "value": 50.0,
          "n": 0,
          "scriptPubKey": {
            "asm": "04eb88c1fdee23bde076f6669a9aabf4ccde84bc2af58358f53608d54d39d522e218674d567327f338c668d49752607eda029988bc661af653ed69fd201426ed2f OP_CHECKSIG",
            "desc": "pk(04eb88c1fdee23bde076f6669a9aabf4ccde84bc2af58358f53608d54d39d522e218674d567327f338c668d49752607eda029988bc661af653ed69fd201426ed2f)#cffn27ef",
            "hex": "4104eb88c1fdee23bde076f6669a9aabf4ccde84bc2af58358f53608d54d39d522e218674d567327f338c668d49752607eda029988bc661af653ed69fd201426ed2fac",
            "type": "pubkey"
          }
        }
      ],
      "hex": "01000000010000000000000000000000000000000000000000000000000000000000000000ffffffff0704ffff001d0165ffffffff0100f2052a01000000434104eb88c1fdee23bde076f6669a9aabf4ccde84bc2af58358f53608d54d39d522e218674d567327f338c668d49752607eda029988bc661af653ed69fd201426ed2fac00000000"
    }
  ]
}