{
  "hash": "00000000e806b4a56f0ba877190842ef12289c57faae57a1b85eaa0ed87ff22d",
  "confirmations": 46005,
  "height": 7093,
  "version": 1,
  "versionHex": "00000001",
  "merkleroot": "2390ec23dcde443528ed33563e50c07a503f17a7c8cc3813e0386a18bdd6a2cd",
  "time": 1236793558,
  "mediantime": 1236787661,
  "nonce": 4099190312,
  "bits": "1d00ffff",
  "difficulty": 1,
  "chainwork": "00000000000000000000000000000000000000000000000000001bb61bb61bb6",
  "nTx": 1,
  "previousblockhash": "00000000021df86d6a30dae7cde5561371426a030840af9c6fee2343be63a613",
  "nextblockhash": "0000000046f2a151b08a560ba61fafeeb4c69e00822a31b60eb27045d8c36c0d",
  "strippedsize": 216,
  "size": 216,
  "weight": 864,
  "tx": [
    {
      "txid": "2390ec23dcde443528ed33563e50c07a503f17a7c8cc3813e0386a18bdd6a2cd",
      "hash": "2390ec23dcde443528ed33563e50c07a503f17a7c8cc3813e0386a18bdd6a2cd",
      "version": 1,
      "size": 135,
      "vsize": 135,
      "weight": 540,
      "locktime": 0,
      "vin": [
        {
          "coinbase": "04ffff001d02e403",
          "sequence": 4294967295
        }
      ],
      "vout": [
        {
          "value": 50.0,
          "n": 0,
          "scriptPubKey": {
            "asm": "04c95a5cf7f070149e4a82d5cab21fbfbea7e3ca0aaf3d0921e42f28af7a26ff9245f9b93101bc010a442509ba9cbad48712b6525d3b0659103ff17fdc728c8229 OP_CHECKSIG",
            "desc": "pk(04c95a5cf7f070149e4a82d5cab21fbfbea7e3ca0aaf3d0921e42f28af7a26ff9245f9b93101bc010a442509ba9cbad48712b6525d3b0659103ff17fdc728c8229)#yu6nwwhz",
            "hex": "4104c95a5cf7f070149e4a82d5cab21fbfbea7e3ca0aaf3d0921e42f28af7a26ff9245f9b93101bc010a442509ba9cbad48712b6525d3b0659103ff17fdc728c8229ac",
            "type": "pubkey"
          }
        }
      ],
      "hex": "01000000010000000000000000000000000000000000000000000000000000000000000000ffffffff0804ffff001d02e403ffffffff0100f2052a01000000434104c95a5cf7f070149e4a82d5cab21fbfbea7e3ca0aaf3d0921e42f28af7a26ff9245f9b93101bc010a442509ba9cbad48712b6525d3b0659103ff17fdc728c8229ac00000000"
    }
  ]
}