{
  "hash": "000000005914e2b3a6f75f7648494da32a465a2bd03d1648ad08a4d368df4849",
  "confirmations": 49362,
  "height": 3736,
  "version": 1,
  "versionHex": "00000001",
  "merkleroot": "f7bdf18cc923cdc07d805f1e682fc9f132827494363a9a6a322493ec97c5fd9f",
  "time": 1234259354,
  "mediantime": 1234255855,
  "nonce": 211164738,
  "bits": "1d00ffff",
  "difficulty": 1,
  "chainwork": "00000000000000000000000000000000000000000000000000000e990e990e99",
  "nTx": 1,
  "previousblockhash": "00000000505b340c3278544c04264aff94ea29757b59067f824f83cefba68a59",
  "nextblockhash": "000000003b5125dd502fec32b1950c633f5e80b19fb5815d1eb1b80ecb41893e",
  "strippedsize": 216,
  "size": 216,
  "weight": 864,
  "tx": [
    {
      "txid": "f7bdf18cc923cdc07d805f1e682fc9f132827494363a9a6a322493ec97c5fd9f",
      "hash": "f7bdf18cc923cdc07d805f1e682fc9f132827494363a9a6a322493ec97c5fd9f",
      "version": 1,
      "size": 135,
      "vsize": 135,
      "weight": 540,
      "locktime": 0,
      "vin": [
        {
          "coinbase": "04ffff001d020301",
          "sequence": 4294967295
        }
      ],
      "vout": [
        {
          "value": 50.0,
          "n": 0,
          "scriptPubKey": {
            "asm": "0417c7c3697bf9e98a8546703ece809587042fa44a09379db6d2f0a6b6cf12fa018b4e8a5ec72ab8bae6af62fe2d17c05ec5cb95596e2652162b13e3aea06f1be0 OP_CHECKSIG",
            "desc": "pk(0417c7c3697bf9e98a8546703ece809587042fa44a09379db6d2f0a6b6cf12fa018b4e8a5ec72ab8bae6af62fe2d17c05ec5cb95596e2652162b13e3aea06f1be0)#k3yx6xxe",
            "hex": "410417c7c3697bf9e98a8546703ece809587042fa44a09379db6d2f0a6b6cf12fa018b4e8a5ec72ab8bae6af62fe2d17c05ec5cb95596e2652162b13e3aea06f1be0ac",
            "type": "pubkey"
          }
        }
      ],
      "hex": "01000000010000000000000000000000000000000000000000000000000000000000000000ffffffff0804ffff001d020301ffffffff0100f2052a0100000043410417c7c3697bf9e98a8546703ece809587042fa44a09379db6d2f0a6b6cf12fa018b4e8a5ec72ab8bae6af62fe2d17c05ec5cb95596e2652162b13e3aea06f1be0ac00000000"
    }
  ]
}