{
  "hash": "00000000dd333867e9e05c70d22116d836fe301669eab69e3928e6b52ca5d672",
  "confirmations": 47474,
  "height": 5624,
  "version": 1,
  "versionHex": "00000001",
  "merkleroot": "eba179b34bde490e1bbddc4f3bd1f022b43f26e7757dbfadf004e0e8f6bd9d6a",
  "time": 1235624454,
  "mediantime": 1235620539,
  "nonce": 4030415415,
  "bits": "1d00ffff",
  "difficulty": 1,
  "chainwork": "000000000000000000000000000000000000000000000000000015f915f915f9",
  "nTx": 1,
  "previousblockhash": "00000000468745b1dba20167e045012c7492e3615ed405f7d9bdad9e7b4f2029",
  "nextblockhash": "00000000e8ca9ad4f38bb3bafc5834fc4dfd8b91488c17d8cb8524224141b309",
  "strippedsize": 216,
  "size": 216,
  "weight": 864,
  "tx": [
    {
      "txid": "eba179b34bde490e1bbddc4f3bd1f022b43f26e7757dbfadf004e0e8f6bd9d6a",
      "hash": "eba179b34bde490e1bbddc4f3bd1f022b43f26e7757dbfadf004e0e8f6bd9d6a",
      "version": 1,
      "size": 135,
      "vsize": 135,
      "weight": 540,
      "locktime": 0,
      "vin": [
        {
          "coinbase": "04ffff001d022308",
          "sequence": 4294967295
        }
      ],
      "vout": [
        {
          "value": 50.0,
          "n": 0,
          "scriptPubKey": {
            "asm": "04a4a666763adbefc40b5109d1db05d4d42df3f177b25b0ab7221e9f412e88646621569e70143fe6d44ad3f9b4782f7e2d8c61678b5b85fe83e174942d2b0e78f7 OP_CHECKSIG",
            "desc": "pk(04a4a666763adbefc40b5109d1db05d4d42df3f177b25b0ab7221e9f412e88646621569e70143fe6d44ad3f9b4782f7e2d8c61678b5b85fe83e174942d2b0e78f7)#363gdqvj",
            "hex": "4104a4a666763adbefc40b5109d1db05d4d42df3f177b25b0ab7221e9f412e88646621569e70143fe6d44ad3f9b4782f7e2d8c61678b5b85fe83e174942d2b0e78f7ac",
            "type": "pubkey"
          }
        }
      ],
      "hex": "01000000010000000000000000000000000000000000000000000000000000000000000000ffffffff0804ffff001d022308ffffffff0100f2052a01000000434104a4a666763adbefc40b5109d1db05d4d42df3f177b25b0ab7221e9f412e88646621569e70143fe6d44ad3f9b4782f7e2d8c61678b5b85fe83e174942d2b0e78f7ac00000000"
    }
  ]
}