{
  "hash": "0000000046f2a151b08a560ba61fafeeb4c69e00822a31b60eb27045d8c36c0d",
  "confirmations": 46004,
  "height": 7094,
  "version": 1,
  "versionHex": "00000001",
  "merkleroot": "cd2e32cf1333a12ecef23944e127a380767e45689c71f11c7c0b7c1d2f2c35ac",
  "time": 1236794785,
  "mediantime": 1236788846,
  "nonce": 1902373431,
  "bits": "1d00ffff",
  "difficulty": 1,
  "chainwork": "00000000000000000000000000000000000000000000000000001bb71bb71bb7",
  "nTx": 1,
  "previousblockhash": "00000000e806b4a56f0ba877190842ef12289c57faae57a1b85eaa0ed87ff22d",
  "nextblockhash": "00000000482c230f5521df0b51af99b47dbaa0f40106f8b26ccb8d205e32c011",
  "strippedsize": 216,
  "size": 216,
  "weight": 864,
  "tx": [
    {
      "txid": "cd2e32cf1333a12ecef23944e127a380767e45689c71f11c7c0b7c1d2f2c35ac",
      "hash": "cd2e32cf1333a12ecef23944e127a380767e45689c71f11c7c0b7c1d2f2c35ac",
      "version": 1,
      "size": 135,
      "vsize": 135,
      "weight": 540,
      "locktime": 0,
      "vin": [
        {
          "coinbase": "04ffff001d02e603",
          "sequence": 4294967295
        }
      ],
      "vout": [
        {
          "value": 50.0,
          "n": 0,
          "scriptPubKey": {
            "asm": "043e2a91e90ffbaf710606a5dca2b9f7cc46526f3b93f920429bda765fae4673fba3dae87cfae3a0373f915960a407ab3e16d3fd5673fced600da3e3bd8b76de4b OP_CHECKSIG",
            "desc": "pk(043e2a91e90ffbaf710606a5dca2b9f7cc46526f3b93f920429bda765fae4673fba3dae87cfae3a0373f915960a407ab3e16d3fd5673fced600da3e3bd8b76de4b)#wdle2s62",
            "hex": "41043e2a91e90ffbaf710606a5dca2b9f7cc46526f3b93f920429bda765fae4673fba3dae87cfae3a0373f915960a407ab3e16d3fd5673fced600da3e3bd8b76de4bac",
            "type": "pubkey"
          }
        }
      ],
      "hex": "01000000010000000000000000000000000000000000000000000000000000000000000000ffffffff0804ffff001d02e603ffffffff0100f2052a010000004341043e2a91e90ffbaf710606a5dca2b9f7cc46526f3b93f920429bda765fae4673fba3dae87cfae3a0373f915960a407ab3e16d3fd5673fced600da3e3bd8b76de4bac00000000"
    }
  ]
}