{
  "hash": "00000000b2cde2159116889837ecf300bd77d229d49b138c55366b54626e495d",
  "confirmations": 52041,
  "height": 187,
  "version": 1,
  "versionHex": "00000001",
  "merkleroot": "52478db532c594119845eb8260d640d78798e4b7fcb77fed4e2bad4c3ecbaf1c",
  "time": 1231744600,
  "mediantime": 1231740736,
  "nonce": 853721115,
  "bits": "1d00ffff",
  "difficulty": 1,
  "chainwork": "000000000000000000000000000000000000000000000000000000bc00bc00bc",
  "nTx": 2,
  "previousblockhash": "000000008b3ff2aaf3427f2a624cb9978e687d9fbba5000dc2f52bb4cc82d4be",
  "nextblockhash": "000000009a940db389f3a7cbb8405f4ec14342bed36073b60ee63ed7e117f193",
  "strippedsize": 414,
  "size": 414,
  "weight": 1656,
  "tx": [
    {
      "txid": "70587f1780ccd2ebbace28a7b33d83d19f4362f10ff7a4ad88f8c413883f94b7",
      "hash": "70587f1780ccd2ebbace28a7b33d83d19f4362f10ff7a4ad88f8c413883f94b7",
      "version": 1,
      "size": 134,
      "vsize": 134,
      "weight": 536,
      "locktime": 0,
      "vin": [
        {
          "coinbase": "04ffff001d011a",
          "sequence": 4294967295
        }
      ],
      "vout": [
        {
          "value": 50.0,
          "n": 0,
          "scriptPubKey": {
            "asm": "0435d66d6cef63a3461110c810975b8816308372b58274d88436a974b478d98d8d972f7233ea8a5242d151de9d4b1ac11a6f7f8460e8f9b146d97c7bad980cc5ce OP_CHECKSIG",
            "desc": "pk(0435d66d6cef63a3461110c810975b8816308372b58274d88436a974b478d98d8d972f7233ea8a5242d151de9d4b1ac11a6f7f8460e8f9b146d97c7bad980cc5ce)#4julh5d9",
            "hex": "410435d66d6cef63a3461110c810975b8816308372b58274d88436a974b478d98d8d972f7233ea8a5242d151de9d4b1ac11a6f7f8460e8f9b146d97c7bad980cc5ceac",
            "type": "pubkey"
          }
        }
      ],
      "hex": "01000000010000000000000000000000000000000000000000000000000000000000000000ffffffff0704ffff001d011affffffff0100f2052a0100000043410435d66d6cef63a3461110c810975b8816308372b58274d88436a974b478d98d8d972f7233ea8a5242d151de9d4b1ac11a6f7f8460e8f9b146d97c7bad980cc5ceac00000000"
    },
    {
      "txid": "4385fcf8b14497d0659adccfe06ae7e38e0b5dc95ff8a13d7c62035994a0cd79",
      "hash": "4385fcf8b14497d0659adccfe06ae7e38e0b5dc95ff8a13d7c62035994a0cd79",
      "version": 1,
      "size": 199,
      "vsize": 199,
      "weight": 796,
      "locktime": 0,
      "vin": [
        {
          "txid": "12b5633bad1f9c167d523ad1aa1947b2732a865bf5414eab2f9e5ae5d5c191ba",
          "vout": 0,
          "scriptSig": {
            "asm": "3044022041d56d649e3ca8a06ffc10dbc6ba37cb958d1177cc8a155e83d0646cd5852634022047fd6a02e26b00de9f60fb61326856e66d7a0d5e2bc9d01fb95f689fc705c04b[ALL]",
            "hex": "473044022041d56d649e3ca8a06ffc10dbc6ba37cb958d1177cc8a155e83d0646cd5852634022047fd6a02e26b00de9f60fb61326856e66d7a0d5e2bc9d01fb95f689fc705c04b01"
          },
          "sequence": 4294967295
        }
      ],
      "vout": [
        {
          "value": 1.0,
          "n": 0,
          "scriptPubKey": {
            "asm": "04fe1b9ccf732e1f6b760c5ed3152388eeeadd4a073e621f741eb157e6a62e3547c8e939abbd6a513bf3a1fbe28f9ea85a4e64c526702435d726f7ff14da40bae4 OP_CHECKSIG",
            "desc": "pk(04fe1b9ccf732e1f6b760c5ed3152388eeeadd4a073e621f741eb157e6a62e3547c8e939abbd6a513bf3a1fbe28f9ea85a4e64c526702435d726f7ff14da40bae4)#hr2tlzup",
            "hex": "4104fe1b9ccf732e1f6b760c5ed3152388eeeadd4a073e621f741eb157e6a62e3547c8e939abbd6a513bf3a1fbe28f9ea85a4e64c526702435d726f7ff14da40bae4ac",
            "type": "pubkey"
          }
        }
      ],
      "fee": 0.0,
      "hex": "0100000001ba91c1d5e55a9e2fab4e41f55b862a73b24719aad13a527d169c1fad3b63b5120000000048473044022041d56d649e3ca8a06ffc10dbc6ba37cb958d1177cc8a155e83d0646cd5852634022047fd6a02e26b00de9f60fb61326856e66d7a0d5e2bc9d01fb95f689fc705c04b01ffffffff0100e1f50500000000434104fe1b9ccf732e1f6b760c5ed3152388eeeadd4a073e621f741eb157e6a62e3547c8e939abbd6a513bf3a1fbe28f9ea85a4e64c526702435d726f7ff14da40bae4ac00000000"
    }
  ]
}