{
  "hash": "00000000ce3f95831ae055a9fe6e497340a15a10a1edc7c06473564635f7f1c2",
  "confirmations": 46965,
  "height": 6133,
  "version": 1,
  "versionHex": "00000001",
  "merkleroot": "8dfa35118c96bcb7233be2dac5b84b7c731d4322a47fcae8a76085585bb3a614",
  "time": 1236034939,
  "mediantime": 1236030633,
  "nonce": 4283616312,
  "bits": "1d00ffff",
  "difficulty": 1,
  "chainwork": "000000000000000000000000000000000000000000000000000017f617f617f6",
  "nTx": 1,
  "previousblockhash": "00000000dbbc4c005a427f94b9b7da4c55981aed04d46cfc76f8fc97b75de846",
  "nextblockhash": "000000002af9ef1b57fda3700f6cf24fec26f78ec9edc468e38acecce0237e8c",
  "strippedsize": 216,
  "size": 216,
  "weight": 864,
  "tx": [
    {
      "txid": "8dfa35118c96bcb7233be2dac5b84b7c731d4322a47fcae8a76085585bb3a614",
      "hash": "8dfa35118c96bcb7233be2dac5b84b7c731d4322a47fcae8a76085585bb3a614",
      "version": 1,
      "size": 135,
      "vsize": 135,
      "weight": 540,
      "locktime": 0,
      "vin": [
        {
          "coinbase": "04ffff001d026807",
          "sequence": 4294967295
        }
      ],
      "vout": [
        {
          "value": 50.0,
          "n": 0,
          "scriptPubKey": {
            "asm": "042adf29e0a39c818aded5d6c14494aa855daabb6b67c2fa5742ec20fd0955121a72fbae6537c93c70c1a7c748bf0acf450885f07b417e1b59adc28fc7c877a4a9 OP_CHECKSIG",
            "desc": "pk(042adf29e0a39c818aded5d6c14494aa855daabb6b67c2fa5742ec20fd0955121a72fbae6537c93c70c1a7c748bf0acf450885f07b417e1b59adc28fc7c877a4a9)#yhkjw6x5",
            "hex": "41042adf29e0a39c818aded5d6c14494aa855daabb6b67c2fa5742ec20fd0955121a72fbae6537c93c70c1a7c748bf0acf450885f07b417e1b59adc28fc7c877a4a9ac",
            "type": "pubkey"
          }
        }
      ],
      "hex": "01000000010000000000000000000000000000000000000000000000000000000000000000ffffffff0804ffff001d026807ffffffff0100f2052a010000004341042adf29e0a39c818aded5d6c14494aa855daabb6b67c2fa5742ec20fd0955121a72fbae6537c93c70c1a7c748bf0acf450885f07b417e1b59adc28fc7c877a4a9ac00000000"
    }
  ]
}