{
  "hash": "000000008462fe42d69930b0e98b5cb33d68d70a15955a066a4169d70fd01cf3",
  "confirmations": 47141,
  "height": 5957,
  "version": 1,
  "versionHex": "00000001",
  "merkleroot": "772c960080a830e65d36a34543518587bab54bc0b492c6bfe0bec6c771267267",
  "time": 1235893910,
  "mediantime": 1235889775,
  "nonce": 2910493995,
  "bits": "1d00ffff",
  "difficulty": 1,
  "chainwork": "0000000000000000000000000000000000000000000000000000174617461746",
  "nTx": 1,
  "previousblockhash": "00000000a7c151b1265ba5113696eca9ea57a0e2beaaa9b7e3cf4718cad07a4c",
  "nextblockhash": "000000006797a0a0c44c2c46974e627d2fd29ce00f1d5b28dd16a0daa9ebfc7a",
  "strippedsize": 216,
  "size": 216,
  "weight": 864,
  "tx": [
    {
      "txid": "772c960080a830e65d36a34543518587bab54bc0b492c6bfe0bec6c771267267",
      "hash": "772c960080a830e65d36a34543518587bab54bc0b492c6bfe0bec6c771267267",
      "version": 1,
      "size": 135,
      "vsize": 135,
      "weight": 540,
      "locktime": 0,
      "vin": [
        {
          "coinbase": "04ffff001d022204",
          "sequence": 4294967295
        }
      ],
      "vout": [
        {
          "value": 50.0,
          "n": 0,
          "scriptPubKey": {
            "asm": "04c1f645661026c55cdea779039eb462760a66a3d4a90b77ec09dc99e480538ca4dfbde7baf3a20becfbd9b62509274ce2eb68f287d16b450bdf41176522432c4c OP_CHECKSIG",
            "desc": "pk(04c1f645661026c55cdea779039eb462760a66a3d4a90b77ec09dc99e480538ca4dfbde7baf3a20becfbd9b62509274ce2eb68f287d16b450bdf41176522432c4c)#da0277vn",
            "hex": "4104c1f645661026c55cdea779039eb462760a66a3d4a90b77ec09dc99e480538ca4dfbde7baf3a20becfbd9b62509274ce2eb68f287d16b450bdf41176522432c4cac",
            "type": "pubkey"
          }
        }
      ],
      "hex": "01000000010000000000000000000000000000000000000000000000000000000000000000ffffffff0804ffff001d022204ffffffff0100f2052a01000000434104c1f645661026c55cdea779039eb462760a66a3d4a90b77ec09dc99e480538ca4dfbde7baf3a20becfbd9b62509274ce2eb68f287d16b450bdf41176522432c4cac00000000"
    }
  ]
}