{
  "hash": "0000000054562c25534c2c8815706f6ec67b01e1ebfd15bd81352c0438e5b38a",
  "confirmations": 45655,
  "height": 7443,
  "version": 1,
  "versionHex": "00000001",
  "merkleroot": "428c97db7327a36bf0e67b9a8a1c2508781b419485b782cda19e9f3196091d36",
  "time": 1237053971,
  "mediantime": 1237051760,
  "nonce": 3889471282,
  "bits": "1d00ffff",
  "difficulty": 1,
  "chainwork": "00000000000000000000000000000000000000000000000000001d141d141d14",
  "nTx": 1,
  "previousblockhash": "0000000088fccdc30b98a3bc6c06c83c36f41b5da7695be00855022ca15ba98b",
  "nextblockhash": "000000006182f684cdbe2dd5bc7b5b7dcd059c2ee1ae2c7b39659f2d44355e03",
  "strippedsize": 216,
  "size": 216,
  "weight": 864,
  "tx": [
    {
      "txid": "428c97db7327a36bf0e67b9a8a1c2508781b419485b782cda19e9f3196091d36",
      "hash": "428c97db7327a36bf0e67b9a8a1c2508781b419485b782cda19e9f3196091d36",
      "version": 1,
      "size": 135,
      "vsize": 135,
      "weight": 540,
      "locktime": 0,
      "vin": [
        {
          "coinbase": "04ffff001d022f0a",
          "sequence": 4294967295
        }
      ],
      "vout": [
        {
          "value": 50.0,
          "n": 0,
          "scriptPubKey": {
            "asm": "04a468573ee20c4f7983f963f8a8023fd69e843d21b97f79a33198b50cc0ca02f1d41d923ee8bf4efe5b0a89fcf0256b903d9cd6c9150f8304b4eff1ab8d351494 OP_CHECKSIG",
            "desc": "pk(04a468573ee20c4f7983f963f8a8023fd69e843d21b97f79a33198b50cc0ca02f1d41d923ee8bf4efe5b0a89fcf0256b903d9cd6c9150f8304b4eff1ab8d351494)#9zxej6xt",
            "hex": "4104a468573ee20c4f7983f963f8a8023fd69e843d21b97f79a33198b50cc0ca02f1d41d923ee8bf4efe5b0a89fcf0256b903d9cd6c9150f8304b4eff1ab8d351494ac",
            "type": "pubkey"
          }
        }
      ],
      "hex": "01000000010000000000000000000000000000000000000000000000000000000000000000ffffffff0804ffff001d022f0affffffff0100f2052a01000000434104a468573ee20c4f7983f963f8a8023fd69e843d21b97f79a33198b50cc0ca02f1d41d923ee8bf4efe5b0a89fcf0256b903d9cd6c9150f8304b4eff1ab8d351494ac00000000"
    }
  ]
}