{
  "hash": "000000008ebf197a1354e06b65644b01b213bfe40e11a7e74663006fe15dd051",
  "confirmations": 49831,
  "height": 3267,
  "version": 1,
  "versionHex": "00000001",
  "merkleroot": "24f9d40df98539df96ae9446a284a7eb8642b1f4502702b8180b195702aae9bc",
  "time": 1233946487,
  "mediantime": 1233943588,
  "nonce": 4011241017,
  "bits": "1d00ffff",
  "difficulty": 1,
  "chainwork": "00000000000000000000000000000000000000000000000000000cc40cc40cc4",
  "nTx": 1,
  "previousblockhash": "00000000fc69ea63d2a33e9818efd37a03bba40a31bd433dab2c73fe63a5209a",
  "nextblockhash": "00000000adc949d7070c080d5bad0cf7effa0fa8b7b3acb8fdf7a99290066466",
  "strippedsize": 216,
  "size": 216,
  "weight": 864,
  "tx": [
    {
      "txid": "24f9d40df98539df96ae9446a284a7eb8642b1f4502702b8180b195702aae9bc",
      "hash": "24f9d40df98539df96ae9446a284a7eb8642b1f4502702b8180b195702aae9bc",
      "version": 1,
      "size": 135,
      "vsize": 135,
      "weight": 540,
      "locktime": 0,
      "vin": [
        {
          "coinbase": "04ffff001d02c103",
          "sequence": 4294967295
        }
      ],
      "vout": [
        {
          "value": 50.0,
          "n": 0,
          "scriptPubKey": {
            "asm": "044c00c6317a7b5b66697ded71b40ebe9f4af4753705241068878248a84fade0b4bdb6567e2643a0c5443593d34ea45fd4b56db1712b6751a546db77d1f3f79104 OP_CHECKSIG",
            "desc": "pk(044c00c6317a7b5b66697ded71b40ebe9f4af4753705241068878248a84fade0b4bdb6567e2643a0c5443593d34ea45fd4b56db1712b6751a546db77d1f3f79104)#t9kz4fcv",
            "hex": "41044c00c6317a7b5b66697ded71b40ebe9f4af4753705241068878248a84fade0b4bdb6567e2643a0c5443593d34ea45fd4b56db1712b6751a546db77d1f3f79104ac",
            "type": "pubkey"
          }
        }
      ],
      "hex": "01000000010000000000000000000000000000000000000000000000000000000000000000ffffffff0804ffff001d02c103ffffffff0100f2052a010000004341044c00c6317a7b5b66697ded71b40ebe9f4af4753705241068878248a84fade0b4bdb6567e2643a0c5443593d34ea45fd4b56db1712b6751a546db77d1f3f79104ac00000000"
    }
  ]
}