{
  "hash": "000000002426866050252405485d89a58df2f51faab9ec30c9c99b775e389378",
  "confirmations": 46876,
  "height": 6222,
  "version": 1,
  "versionHex": "00000001",
  "merkleroot": "90ac179b7bace14dde2ce3b77fa325c0bc5e4dec2fd2d1bddb831ac81b00fd95",
  "time": 1236108836,
  "mediantime": 1236104474,
  "nonce": 234472243,
  "bits": "1d00ffff",
  "difficulty": 1,
  "chainwork": "0000000000000000000000000000000000000000000000000000184f184f184f",
  "nTx": 1,
  "previousblockhash": "00000000a0488d1f2df2833b8d0205ac5f626840b60531535bad9fbf6ad8f837",
  "nextblockhash": "0000000005e8f18e86f55c587101ea0234542e505c81e8118ca1ef6e07a7f261",
  "strippedsize": 216,
  "size": 216,
  "weight": 864,
  "tx": [
    {
      "txid": "90ac179b7bace14dde2ce3b77fa325c0bc5e4dec2fd2d1bddb831ac81b00fd95",
      "hash": "90ac179b7bace14dde2ce3b77fa325c0bc5e4dec2fd2d1bddb831ac81b00fd95",
      "version": 1,
      "size": 135,
      "vsize": 135,
      "weight": 540,
      "locktime": 0,
      "vin": [
        {
          "coinbase": "04ffff001d02e708",
          "sequence": 4294967295
        }
      ],
      "vout": [
        {
          "value": 50.0,
          "n": 0,
          "scriptPubKey": {
            "asm": "04a1e5291d8b2260044dd76ebdc9d4bd5f93220093501b4fc1aa2b054dc8da4130ee9c5eb987c221f80a8a0602291bcb2ad92f4a8a6fa5ff6cbea3863662719880 OP_CHECKSIG",
            "desc": "pk(04a1e5291d8b2260044dd76ebdc9d4bd5f93220093501b4fc1aa2b054dc8da4130ee9c5eb987c221f80a8a0602291bcb2ad92f4a8a6fa5ff6cbea3863662719880)#ufhlrzzj",
            "hex": "4104a1e5291d8b2260044dd76ebdc9d4bd5f93220093501b4fc1aa2b054dc8da4130ee9c5eb987c221f80a8a0602291bcb2ad92f4a8a6fa5ff6cbea3863662719880ac",
            "type": "pubkey"
          }
        }
      ],
      "hex": "01000000010000000000000000000000000000000000000000000000000000000000000000ffffffff0804ffff001d02e708ffffffff0100f2052a01000000434104a1e5291d8b2260044dd76ebdc9d4bd5f93220093501b4fc1aa2b054dc8da4130ee9c5eb987c221f80a8a0602291bcb2ad92f4a8a6fa5ff6cbea3863662719880ac00000000"
    }
  ]
}