{
  "hash": "000000006b1f5dc15511fafc195ed3397c191ef1298a8255c9e99d877a5ffd26",
  "confirmations": 51609,
  "height": 1489,
  "version": 1,
  "versionHex": "00000001",
  "merkleroot": "b6208e23c7718d1e559e976a4d1f372c89f75f993d2e06069425e0f64d6323de",
  "time": 1232762404,
  "mediantime": 1232761479,
  "nonce": 1759204128,
  "bits": "1d00ffff",
  "difficulty": 1,
  "chainwork": "000000000000000000000000000000000000000000000000000005d205d205d2",
  "nTx": 1,
  "previousblockhash": "000000004e71854ee6867086bc5870c4d88b7ea470fc0a46b2f3091a6b490e25",
  "nextblockhash": "000000001d48d25d3c5cce231e54dd545d31c41d050f375a9246406e85c3c821",
  "strippedsize": 216,
  "size": 216,
  "weight": 864,
  "tx": [
    {
      "txid": "b6208e23c7718d1e559e976a4d1f372c89f75f993d2e06069425e0f64d6323de",
      "hash": "b6208e23c7718d1e559e976a4d1f372c89f75f993d2e06069425e0f64d6323de",
      "version": 1,
      "size": 135,
      "vsize": 135,
      "weight": 540,
      "locktime": 0,
      "vin": [
        {
          "coinbase": "04ffff001d020c01",
          "sequence": 4294967295
        }
      ],
      "vout": [
        {
          "value": 50.0,
          "n": 0,
          "scriptPubKey": {
            "asm": "04c57cf1c8c2f49b5ce9b726a8f38788cd05916e1a425948cae7975b2b5de4f7b5c5860d43de4b173d10bc5c1da1f737d3e33f37ee69dc756e52e01682bb0a4ed4 OP_CHECKSIG",
            "desc": "pk(04c57cf1c8c2f49b5ce9b726a8f38788cd05916e1a425948cae7975b2b5de4f7b5c5860d43de4b173d10bc5c1da1f737d3e33f37ee69dc756e52e01682bb0a4ed4)#dzxz2tsk",
            "hex": "4104c57cf1c8c2f49b5ce9b726a8f38788cd05916e1a425948cae7975b2b5de4f7b5c5860d43de4b173d10bc5c1da1f737d3e33f37ee69dc756e52e01682bb0a4ed4ac",
            "type": "pubkey"
          }
        }
      ],
      "hex": "01000000010000000000000000000000000000000000000000000000000000000000000000ffffffff0804ffff001d020c01ffffffff0100f2052a01000000434104c57cf1c8c2f49b5ce9b726a8f38788cd05916e1a425948cae7975b2b5de4f7b5c5860d43de4b173d10bc5c1da1f737d3e33f37ee69dc756e52e01682bb0a4ed4ac00000000"
    }
  ]
}