{
  "hash": "0000000057c7d5c0a5aea3f950bd831a938d8e57a98b07557a964fb62d7d06ff",
  "confirmations": 52204,
  "height": 894,
  "version": 1,
  "versionHex": "00000001",
  "merkleroot": "74e079947de6fe3c46f263d35a22a82a75b52d53f2aff8190cd2732429e1a4ab",
  "time": 1232270118,
  "mediantime": 1232264942,
  "nonce": 1941777956,
  "bits": "1d00ffff",
  "difficulty": 1,
  "chainwork": "0000000000000000000000000000000000000000000000000000037f037f037f",
  "nTx": 1,
  "previousblockhash": "0000000001713f321b78d3333243e7f4f66ebf7113e534e771791b5aa876774e",
  "nextblockhash": "000000009ee07a92b2efac3583968f836a5adca93c525e085f2512644e0cae26",
  "strippedsize": 216,
  "size": 216,
  "weight": 864,
  "tx": [
    {
      "txid": "74e079947de6fe3c46f263d35a22a82a75b52d53f2aff8190cd2732429e1a4ab",
      "hash": "74e079947de6fe3c46f263d35a22a82a75b52d53f2aff8190cd2732429e1a4ab",
      "version": 1,
      "size": 135,
      "vsize": 135,
      "weight": 540,
      "locktime": 0,
      "vin": [
        {
          "coinbase": "04ffff001d029603",
          "sequence": 4294967295
        }
      ],
      "vout": [
        {
          "value": 50.0,
          "n": 0,
          "scriptPubKey": {
            "asm": "04dbd95c71fb05924a7afb025cf7a67d6b9759c595653ff8b4bba2257cf24b9a95ee42b86302018ffb3d16b8888ee6ffc884c39bad70131a8739391a087b88f440 OP_CHECKSIG",
            "desc": "pk(04dbd95c71fb05924a7afb025cf7a67d6b9759c595653ff8b4bba2257cf24b9a95ee42b86302018ffb3d16b8888ee6ffc884c39bad70131a8739391a087b88f440)#g4p9uqrq",
            "hex": "4104dbd95c71fb05924a7afb025cf7a67d6b9759c595653ff8b4bba2257cf24b9a95ee42b86302018ffb3d16b8888ee6ffc884c39bad70131a8739391a087b88f440ac",
            "type": "pubkey"
          }
        }
      ],
      "hex": "01000000010000000000000000000000000000000000000000000000000000000000000000ffffffff0804ffff001d029603ffffffff0100f2052a01000000434104dbd95c71fb05924a7afb025cf7a67d6b9759c595653ff8b4bba2257cf24b9a95ee42b86302018ffb3d16b8888ee6ffc884c39bad70131a8739391a087b88f440ac00000000"
    }
  ]
}