{
  "hash": "00000000e6dbc27bd2302cb2c2fb05c3b2f358cb3067e7f9bd2860458fabf96e",
  "confirmations": 46588,
  "height": 6510,
  "version": 1,
  "versionHex": "00000001",
  "merkleroot": "b1982ec51535e9b9b95ca4d3e3f477a64dcca55aa225d82589877adfd49ebcb3",
  "time": 1236336614,
  "mediantime": 1236334938,
  "nonce": 820316698,
  "bits": "1d00ffff",
  "difficulty": 1,
  "chainwork": "0000000000000000000000000000000000000000000000000000196f196f196f",
  "nTx": 1,
  "previousblockhash": "0000000024c7c278a590ac887444b6df9b4da6d270956150da1b9523526bf4cf",
  "nextblockhash": "0000000029abd0a9498f84ced03dce2f0e51638520e486d0d2b027a3470750a4",
  "strippedsize": 216,
  "size": 216,
  "weight": 864,
  "tx": [
    {
      "txid": "b1982ec51535e9b9b95ca4d3e3f477a64dcca55aa225d82589877adfd49ebcb3",
      "hash": "b1982ec51535e9b9b95ca4d3e3f477a64dcca55aa225d82589877adfd49ebcb3",
      "version": 1,
      "size": 135,
      "vsize": 135,
      "weight": 540,
      "locktime": 0,
      "vin": [
        {
          "coinbase": "04ffff001d02dd03",
          "sequence": 4294967295
        }
      ],
      "vout": [
        {
          "value": 50.0,
          "n": 0,
          "scriptPubKey": {
            "asm": "0441c77b04c5f6c437bcb76a9e75cf9c8f3b564370ada529eebcd8a1490eef8f29db1e88280d1e811e374d9cb3bc7f6d70a5bda191633828f555ab54fa26d915bb OP_CHECKSIG",
            "desc": "pk(0441c77b04c5f6c437bcb76a9e75cf9c8f3b564370ada529eebcd8a1490eef8f29db1e88280d1e811e374d9cb3bc7f6d70a5bda191633828f555ab54fa26d915bb)#5kn24atl",
            "hex": "410441c77b04c5f6c437bcb76a9e75cf9c8f3b564370ada529eebcd8a1490eef8f29db1e88280d1e811e374d9cb3bc7f6d70a5bda191633828f555ab54fa26d915bbac",
            "type": "pubkey"
          }
        }
      ],
      "hex": "01000000010000000000000000000000000000000000000000000000000000000000000000ffffffff0804ffff001d02dd03ffffffff0100f2052a0100000043410441c77b04c5f6c437bcb76a9e75cf9c8f3b564370ada529eebcd8a1490eef8f29db1e88280d1e811e374d9cb3bc7f6d70a5bda191633828f555ab54fa26d915bbac00000000"
    }
  ]
}