{
  "hash": "0000000023b94549ea5df42a85941bbaabe19051f802af60e1998974dad1ed3a",
  "confirmations": 50636,
  "height": 2462,
  "version": 1,
  "versionHex": "00000001",
  "merkleroot": "1230e3fe655712070f6cd0f7a6a3827f96507ba1bd2e9a207143bb38660acd32",
  "time": 1233400547,
  "mediantime": 1233396932,
  "nonce": 107009291,
  "bits": "1d00ffff",
  "difficulty": 1,
  "chainwork": "0000000000000000000000000000000000000000000000000000099f099f099f",
  "nTx": 1,
  "previousblockhash": "0000000030aa3590bd74cece671d2ec922e2b01e2623f2d177fac8b20384251c",
  "nextblockhash": "0000000018873a0c260ed81fb5a47802f11b00991b56a352575c92ec9d1e238d",
  "strippedsize": 216,
  "size": 216,
  "weight": 864,
  "tx": [
    {
      "txid": "1230e3fe655712070f6cd0f7a6a3827f96507ba1bd2e9a207143bb38660acd32",
      "hash": "1230e3fe655712070f6cd0f7a6a3827f96507ba1bd2e9a207143bb38660acd32",
      "version": 1,
      "size": 135,
      "vsize": 135,
      "weight": 540,
      "locktime": 0,
      "vin": [
        {
          "coinbase": "04ffff001d022901",
          "sequence": 4294967295
        }
      ],
      "vout": [
        {
          "value": 50.0,
          "n": 0,
          "scriptPubKey": {
            "asm": "04db95927ad74c21754dde0796814d524d5396f14548a4141194d41d90fcbd7c30ee5256adbb7e787d1e72a37a4ee378a778cd5f7221768927a9584596f01d87ce OP_CHECKSIG",
            "desc": "pk(04db95927ad74c21754dde0796814d524d5396f14548a4141194d41d90fcbd7c30ee5256adbb7e787d1e72a37a4ee378a778cd5f7221768927a9584596f01d87ce)#zr7ytf3t",
            "hex": "4104db95927ad74c21754dde0796814d524d5396f14548a4141194d41d90fcbd7c30ee5256adbb7e787d1e72a37a4ee378a778cd5f7221768927a9584596f01d87ceac",
            "type": "pubkey"
          }
        }
      ],
      "hex": "01000000010000000000000000000000000000000000000000000000000000000000000000ffffffff0804ffff001d022901ffffffff0100f2052a01000000434104db95927ad74c21754dde0796814d524d5396f14548a4141194d41d90fcbd7c30ee5256adbb7e787d1e72a37a4ee378a778cd5f7221768927a9584596f01d87ceac00000000"
    }
  ]
}