{
  "hash": "00000000365ea47381ee446a6a311955fec1dabfacb83a9ef57b8ff34b1ef6b0",
  "confirmations": 43897,
  "height": 9201,
  "version": 1,
  "versionHex": "00000001",
  "merkleroot": "134ce3f253be3603f9095b075b8c1b4e6eeaa37a4cb7e105495c09957597427f",
  "time": 1238399521,
  "mediantime": 1238396414,
  "nonce": 1832263937,
  "bits": "1d00ffff",
  "difficulty": 1,
  "chainwork": "000000000000000000000000000000000000000000000000000023f223f223f2",
  "nTx": 1,
  "previousblockhash": "00000000821bc8b810300b56540b47d14ed719dc8ca50c941b4ae139e9f2d3c1",
  "nextblockhash": "00000000b4e043ef98354a46e30ee710758bd62af90a2b820548c752a23c212c",
  "strippedsize": 216,
  "size": 216,
  "weight": 864,
  "tx": [
    {
      "txid": "134ce3f253be3603f9095b075b8c1b4e6eeaa37a4cb7e105495c09957597427f",
      "hash": "134ce3f253be3603f9095b075b8c1b4e6eeaa37a4cb7e105495c09957597427f",
      "version": 1,
      "size": 135,
      "vsize": 135,
      "weight": 540,
      "locktime": 0,
      "vin": [
        {
          "coinbase": "04ffff001d022b0a",
          "sequence": 4294967295
        }
      ],
      "vout": [
        {
          "value": 50.0,
          "n": 0,
          "scriptPubKey": {
            "asm": "049b051234e7eff1cf5809dc1e0f2adce824814dbf2ede9e300fc69c2dbfa56a56e2632e5e4498185edc5bf47d1c91de341543fadf1c38d9bd054f2d1f8859e01a OP_CHECKSIG",
            "desc": "pk(049b051234e7eff1cf5809dc1e0f2adce824814dbf2ede9e300fc69c2dbfa56a56e2632e5e4498185edc5bf47d1c91de341543fadf1c38d9bd054f2d1f8859e01a)#v2s78wp2",
            "hex": "41049b051234e7eff1cf5809dc1e0f2adce824814dbf2ede9e300fc69c2dbfa56a56e2632e5e4498185edc5bf47d1c91de341543fadf1c38d9bd054f2d1f8859e01aac",
            "type": "pubkey"
          }
        }
      ],
      "hex": "01000000010000000000000000000000000000000000000000000000000000000000000000ffffffff0804ffff001d022b0affffffff0100f2052a010000004341049b051234e7eff1cf5809dc1e0f2adce824814dbf2ede9e300fc69c2dbfa56a56e2632e5e4498185edc5bf47d1c91de341543fadf1c38d9bd054f2d1f8859e01aac00000000"
    }
  ]
}