{
  "hash": "000000006aad240f2485670793fcc62eb5006a42aba22e32b6918d710a2583b3",
  "confirmations": 52440,
  "height": 658,
  "version": 1,
  "versionHex": "00000001",
  "merkleroot": "47040a453f9eeda76f870d5f3d6bb6e61ccb2cd24ec9a892b7ac1dadfabd8364",
  "time": 1232073893,
  "mediantime": 1232070880,
  "nonce": 13422874,
  "bits": "1d00ffff",
  "difficulty": 1,
  "chainwork": "0000000000000000000000000000000000000000000000000000029302930293",
  "nTx": 1,
  "previousblockhash": "00000000219c44b7a974528cfe22f831631ba20a4bd8e7a238918d1d2f13aec3",
  "nextblockhash": "00000000de071e247a1f44be9908714f0cc8282e2ddcdf7d2c4b3dbca9a624d3",
  "strippedsize": 216,
  "size": 216,
  "weight": 864,
  "tx": [
    {
      "txid": "47040a453f9eeda76f870d5f3d6bb6e61ccb2cd24ec9a892b7ac1dadfabd8364",
      "hash": "47040a453f9eeda76f870d5f3d6bb6e61ccb2cd24ec9a892b7ac1dadfabd8364",
      "version": 1,
      "size": 135,
      "vsize": 135,
      "weight": 540,
      "locktime": 0,
      "vin": [
        {
          "coinbase": "04ffff001d028a01",
          "sequence": 4294967295
        }
      ],
      "vout": [
        {
          "value": 50.0,
          "n": 0,
          "scriptPubKey": {
            "asm": "04939c30542ff45cb8b35de8a48cd0ebdb954f7ca78c069682a33b30e97462649439d7ad4cd08086d80d4f544079d70c06dbf6126e89f79bfc7fe064689966c1a6 OP_CHECKSIG",
            "desc": "pk(04939c30542ff45cb8b35de8a48cd0ebdb954f7ca78c069682a33b30e97462649439d7ad4cd08086d80d4f544079d70c06dbf6126e89f79bfc7fe064689966c1a6)#ewd4e5d5",
            "hex": "4104939c30542ff45cb8b35de8a48cd0ebdb954f7ca78c069682a33b30e97462649439d7ad4cd08086d80d4f544079d70c06dbf6126e89f79bfc7fe064689966c1a6ac",
            "type": "pubkey"
          }
        }
      ],
      "hex": "01000000010000000000000000000000000000000000000000000000000000000000000000ffffffff0804ffff001d028a01ffffffff0100f2052a01000000434104939c30542ff45cb8b35de8a48cd0ebdb954f7ca78c069682a33b30e97462649439d7ad4cd08086d80d4f544079d70c06dbf6126e89f79bfc7fe064689966c1a6ac00000000"
    }
  ]
}