{
  "hash": "00000000e2128d66b97e0b76b9fb06f58121e08b9b549a16411299dea3509cb3",
  "confirmations": 52184,
  "height": 479,
  "version": 1,
  "versionHex": "00000001",
  "merkleroot": "c0a467a775d0923607f2fb3e066f8f93492817da1d4994a0c5b35935f6302757",
  "time": 1231954777,
  "mediantime": 1231950841,
  "nonce": 1966300183,
  "bits": "1d00ffff",
  "difficulty": 1,
  "chainwork": "000000000000000000000000000000000000000000000000000001e001e001e0",
  "nTx": 1,
  "previousblockhash": "00000000a1f0deedb6706ae3d238df794df735aa9c7adef928a67cfb84869b71",
  "nextblockhash": "00000000ee9b6376dab707bb146c445aedab4fc6518abf995acdb74ffb4be7ac",
  "strippedsize": 216,
  "size": 216,
  "weight": 864,
  "tx": [
    {
      "txid": "c0a467a775d0923607f2fb3e066f8f93492817da1d4994a0c5b35935f6302757",
      "hash": "c0a467a775d0923607f2fb3e066f8f93492817da1d4994a0c5b35935f6302757",
      "version": 1,
      "size": 135,
      "vsize": 135,
      "weight": 540,
      "locktime": 0,
      "vin": [
        {
          "coinbase": "04ffff001d021e04",
          "sequence": 4294967295
        }
      ],
      "vout": [
        {
          "value": 50.0,
          "n": 0,
          "scriptPubKey": {
            "asm": "04d3fea59a581dfc48dce6c4ad8dd559352788cc77ee8d83a71cfe19593ae243492b4bb35bd4ad781c40e74520d88838fbda2b67ad93939ff05dd4df5548eefec4 OP_CHECKSIG",
            "desc": "pk(04d3fea59a581dfc48dce6c4ad8dd559352788cc77ee8d83a71cfe19593ae243492b4bb35bd4ad781c40e74520d88838fbda2b67ad93939ff05dd4df5548eefec4)#4ejavwf2",
            "hex": "4104d3fea59a581dfc48dce6c4ad8dd559352788cc77ee8d83a71cfe19593ae243492b4bb35bd4ad781c40e74520d88838fbda2b67ad93939ff05dd4df5548eefec4ac",
            "type": "pubkey"
          }
        }
      ],
      "hex": "01000000010000000000000000000000000000000000000000000000000000000000000000ffffffff0804ffff001d021e04ffffffff0100f2052a01000000434104d3fea59a581dfc48dce6c4ad8dd559352788cc77ee8d83a71cfe19593ae243492b4bb35bd4ad781c40e74520d88838fbda2b67ad93939ff05dd4df5548eefec4ac00000000"
    }
  ]
}