{
  "hash": "0000000060327d757e6926273a0e2ba1feecfdf0c784680934de2dea737810b1",
  "confirmations": 45878,
  "height": 7220,
  "version": 1,
  "versionHex": "00000001",
  "merkleroot": "4b27c45b1624a9ab8d16251cac093dfe4034fb5484c0867478cb1a3d91748a81",
  "time": 1236886030,
  "mediantime": 1236882570,
  "nonce": 730419239,
  "bits": "1d00ffff",
  "difficulty": 1,
  "chainwork": "00000000000000000000000000000000000000000000000000001c351c351c35",
  "nTx": 1,
  "previousblockhash": "0000000026f7657f324b20225a269c26b4e03570b6f88e038e5e354010bf7525",
  "nextblockhash": "00000000180884d496bf422717a1af045153b0a100500b6f627bb3252c74f8d9",
  "strippedsize": 216,
  "size": 216,
  "weight": 864,
  "tx": [
    {
      "txid": "4b27c45b1624a9ab8d16251cac093dfe4034fb5484c0867478cb1a3d91748a81",
      "hash": "4b27c45b1624a9ab8d16251cac093dfe4034fb5484c0867478cb1a3d91748a81",
      "version": 1,
      "size": 135,
      "vsize": 135,
      "weight": 540,
      "locktime": 0,
      "vin": [
        {
          "coinbase": "04ffff001d02f805",
          "sequence": 4294967295
        }
      ],
      "vout": [
        {
          "value": 50.0,
          "n": 0,
          "scriptPubKey": {
            "asm": "0437711e66ed62f57e9272de43ddaa1b97791ce0473b031331a47f295937f6b22ec27588cd601371d9dee188e7ae42dead30d201a73a1bd008ed9bb115c221becc OP_CHECKSIG",
            "desc": "pk(0437711e66ed62f57e9272de43ddaa1b97791ce0473b031331a47f295937f6b22ec27588cd601371d9dee188e7ae42dead30d201a73a1bd008ed9bb115c221becc)#f7xmahs2",
            "hex": "410437711e66ed62f57e9272de43ddaa1b97791ce0473b031331a47f295937f6b22ec27588cd601371d9dee188e7ae42dead30d201a73a1bd008ed9bb115c221beccac",
            "type": "pubkey"
          }
        }
      ],
      "hex": "01000000010000000000000000000000000000000000000000000000000000000000000000ffffffff0804ffff001d02f805ffffffff0100f2052a0100000043410437711e66ed62f57e9272de43ddaa1b97791ce0473b031331a47f295937f6b22ec27588cd601371d9dee188e7ae42dead30d201a73a1bd008ed9bb115c221beccac00000000"
    }
  ]
}