{
  "hash": "0000000067c7a40e76f2aea1f1df386dda629c21cfb713eaa67783a3d0686396",
  "confirmations": 44985,
  "height": 8113,
  "version": 1,
  "versionHex": "00000001",
  "merkleroot": "b91581f7a21bde5c102fa5a4bcd23ffc36c08265eb4220e54e34c8128cdb0bf0",
  "time": 1237540531,
  "mediantime": 1237537357,
  "nonce": 174425986,
  "bits": "1d00ffff",
  "difficulty": 1,
  "chainwork": "00000000000000000000000000000000000000000000000000001fb21fb21fb2",
  "nTx": 1,
  "previousblockhash": "00000000cedc43019da91f0a1458321a45eda83dd325e0fbd13e5497a01d387b",
  "nextblockhash": "00000000b5cc44b3c0f9dc3b23afa6dc4102105983a14acd5202eb6582de7631",
  "strippedsize": 216,
  "size": 216,
  "weight": 864,
  "tx": [
    {
      "txid": "b91581f7a21bde5c102fa5a4bcd23ffc36c08265eb4220e54e34c8128cdb0bf0",
      "hash": "b91581f7a21bde5c102fa5a4bcd23ffc36c08265eb4220e54e34c8128cdb0bf0",
      "version": 1,
      "size": 135,
      "vsize": 135,
      "weight": 540,
      "locktime": 0,
      "vin": [
        {
          "coinbase": "04ffff001d02e200",
          "sequence": 4294967295
        }
      ],
      "vout": [
        {
          "value": 50.0,
          "n": 0,
          "scriptPubKey": {
            "asm": "04a69682b7769518f15ceec7b8d598775854290ea49ed6f0aa02ee3efe70fd4c09d95322a622b8e8d6f6e62c8f4b9b7715e5decdd6e7f39787cac363807e1a839e OP_CHECKSIG",
            "desc": "pk(04a69682b7769518f15ceec7b8d598775854290ea49ed6f0aa02ee3efe70fd4c09d95322a622b8e8d6f6e62c8f4b9b7715e5decdd6e7f39787cac363807e1a839e)#zgpksucd",
            "hex": "4104a69682b7769518f15ceec7b8d598775854290ea49ed6f0aa02ee3efe70fd4c09d95322a622b8e8d6f6e62c8f4b9b7715e5decdd6e7f39787cac363807e1a839eac",
            "type": "pubkey"
          }
        }
      ],
      "hex": "01000000010000000000000000000000000000000000000000000000000000000000000000ffffffff0804ffff001d02e200ffffffff0100f2052a01000000434104a69682b7769518f15ceec7b8d598775854290ea49ed6f0aa02ee3efe70fd4c09d95322a622b8e8d6f6e62c8f4b9b7715e5decdd6e7f39787cac363807e1a839eac00000000"
    }
  ]
}