{
  "hash": "00000000621e04b0b315c9d341f8b4ff269443178a9e895e49042e3dee11fda1",
  "confirmations": 52208,
  "height": 413,
  "version": 1,
  "versionHex": "00000001",
  "merkleroot": "83ebb2006c7978e45508b6f0d75dabc3391610caf5d154a803394d1b9d6700e3",
  "time": 1231911838,
  "mediantime": 1231907948,
  "nonce": 158214437,
  "bits": "1d00ffff",
  "difficulty": 1,
  "chainwork": "0000000000000000000000000000000000000000000000000000019e019e019e",
  "nTx": 1,
  "previousblockhash": "0000000072d95c134f9a33b8f94bfe96186efc32fe8c6d13bdc2a196e40e2df0",
  "nextblockhash": "0000000054f5445a546e095668d56d66fbf5c977561da29b3ae8b97db9526d7b",
  "strippedsize": 215,
  "size": 215,
  "weight": 860,
  "tx": [
    {
      "txid": "83ebb2006c7978e45508b6f0d75dabc3391610caf5d154a803394d1b9d6700e3",
      "hash": "83ebb2006c7978e45508b6f0d75dabc3391610caf5d154a803394d1b9d6700e3",
      "version": 1,
      "size": 134,
      "vsize": 134,
      "weight": 536,
      "locktime": 0,
      "vin": [
        {
          "coinbase": "04ffff001d0140",
          "sequence": 4294967295
        }
      ],
      "vout": [
        {
          "value": 50.0,
          "n": 0,
          "scriptPubKey": {
            "asm": "0440f8e5b74447fc5f930fc6be6414a3572b352c8f6c391cd2dde9e0586e7b5215a5aa9419fb10e8922e65de62d66268b58afa4bf58247da91d0163f68b8cd78ee OP_CHECKSIG",
            "desc": "pk(0440f8e5b74447fc5f930fc6be6414a3572b352c8f6c391cd2dde9e0586e7b5215a5aa9419fb10e8922e65de62d66268b58afa4bf58247da91d0163f68b8cd78ee)#mvmg5hcv",
            "hex": "410440f8e5b74447fc5f930fc6be6414a3572b352c8f6c391cd2dde9e0586e7b5215a5aa9419fb10e8922e65de62d66268b58afa4bf58247da91d0163f68b8cd78eeac",
            "type": "pubkey"
          }
        }
      ],
      "hex": "01000000010000000000000000000000000000000000000000000000000000000000000000ffffffff0704ffff001d0140ffffffff0100f2052a0100000043410440f8e5b74447fc5f930fc6be6414a3572b352c8f6c391cd2dde9e0586e7b5215a5aa9419fb10e8922e65de62d66268b58afa4bf58247da91d0163f68b8cd78eeac00000000"
    }
  ]
}