{
  "hash": "000000001abb7927ca26b78f91c85a2e4b4f76cb12ce54de7f4609c5bbc4e678",
  "confirmations": 46047,
  "height": 7051,
  "version": 1,
  "versionHex": "00000001",
  "merkleroot": "05c0357afac271402dfa01a3da82d1d76815f7ab3ce8b5afda7ee4c137a9988e",
  "time": 1236759474,
  "mediantime": 1236754999,
  "nonce": 552288256,
  "bits": "1d00ffff",
  "difficulty": 1,
  "chainwork": "00000000000000000000000000000000000000000000000000001b8c1b8c1b8c",
  "nTx": 1,
  "previousblockhash": "000000009ceba0463e092013c13f67b899e2beecaab0a557115ec9aa12a9900b",
  "nextblockhash": "000000008fb7a87bdd34eeec27ac4c2e9f92b7ed47ac512c8958eba1cc15aa99",
  "strippedsize": 216,
  "size": 216,
  "weight": 864,
  "tx": [
    {
      "txid": "05c0357afac271402dfa01a3da82d1d76815f7ab3ce8b5afda7ee4c137a9988e",
      "hash": "05c0357afac271402dfa01a3da82d1d76815f7ab3ce8b5afda7ee4c137a9988e",
      "version": 1,
      "size": 135,
      "vsize": 135,
      "weight": 540,
      "locktime": 0,
      "vin": [
        {
          "coinbase": "04ffff001d022603",
          "sequence": 4294967295
        }
      ],
      "vout": [
        {
          "value": 50.0,
          "n": 0,
          "scriptPubKey": {
            "asm": "04750d1cd24084276743c067b8b99381620a291592f91ac0bdb4e242d4608fca819615cb4431edc68e9efd564574f07c9b5da6d77fe7ec96cf15d2a9298eff3749 OP_CHECKSIG",
            "desc": "pk(04750d1cd24084276743c067b8b99381620a291592f91ac0bdb4e242d4608fca819615cb4431edc68e9efd564574f07c9b5da6d77fe7ec96cf15d2a9298eff3749)#glq47w6c",
            "hex": "4104750d1cd24084276743c067b8b99381620a291592f91ac0bdb4e242d4608fca819615cb4431edc68e9efd564574f07c9b5da6d77fe7ec96cf15d2a9298eff3749ac",
            "type": "pubkey"
          }
        }
      ],
      "hex": "01000000010000000000000000000000000000000000000000000000000000000000000000ffffffff0804ffff001d022603ffffffff0100f2052a01000000434104750d1cd24084276743c067b8b99381620a291592f91ac0bdb4e242d4608fca819615cb4431edc68e9efd564574f07c9b5da6d77fe7ec96cf15d2a9298eff3749ac00000000"
    }
  ]
}