{
  "hash": "0000000046aa0f0f8aa64b8573f550c7a5093d53545b19ab65c79bb7b232b400",
  "confirmations": 46931,
  "height": 6167,
  "version": 1,
  "versionHex": "00000001",
  "merkleroot": "af61bc6ad048025161b5b9a8dec60077293e671c3860f4131fabb670068938c7",
  "time": 1236065319,
  "mediantime": 1236060730,
  "nonce": 2551270456,
  "bits": "1d00ffff",
  "difficulty": 1,
  "chainwork": "0000000000000000000000000000000000000000000000000000181818181818",
  "nTx": 1,
  "previousblockhash": "000000000f1e4726f266da7a438c62bdf73212869981f18a96c5e8c552e2fb9f",
  "nextblockhash": "000000007dfa532e04282f23e6a275e9b43139ed93102023e87729ce753aaa85",
  "strippedsize": 216,
  "size": 216,
  "weight": 864,
  "tx": [
    {
      "txid": "af61bc6ad048025161b5b9a8dec60077293e671c3860f4131fabb670068938c7",
      "hash": "af61bc6ad048025161b5b9a8dec60077293e671c3860f4131fabb670068938c7",
      "version": 1,
      "size": 135,
      "vsize": 135,
      "weight": 540,
      "locktime": 0,
      "vin": [
        {
          "coinbase": "04ffff001d02d907",
          "sequence": 4294967295
        }
      ],
      "vout": [
        {
          "value": 50.0,
          "n": 0,
          "scriptPubKey": {
            "asm": "049146b6feb560925eb3f900bfd8c2375c68af0cac16998991a3908c2ccfd399008914a6648164d3df42863d6b6451bc5d949232538a0dc7b3d21afc8b38f8c109 OP_CHECKSIG",
            "desc": "pk(049146b6feb560925eb3f900bfd8c2375c68af0cac16998991a3908c2ccfd399008914a6648164d3df42863d6b6451bc5d949232538a0dc7b3d21afc8b38f8c109)#g2cm88wt",
            "hex": "41049146b6feb560925eb3f900bfd8c2375c68af0cac16998991a3908c2ccfd399008914a6648164d3df42863d6b6451bc5d949232538a0dc7b3d21afc8b38f8c109ac",
            "type": "pubkey"
          }
        }
      ],
      "hex": "01000000010000000000000000000000000000000000000000000000000000000000000000ffffffff0804ffff001d02d907ffffffff0100f2052a010000004341049146b6feb560925eb3f900bfd8c2375c68af0cac16998991a3908c2ccfd399008914a6648164d3df42863d6b6451bc5d949232538a0dc7b3d21afc8b38f8c109ac00000000"
    }
  ]
}