{
  "hash": "00000000f2712c08fbe207228ca0c84887fa3ad29a92a526d09200a526542e69",
  "confirmations": 45220,
  "height": 7878,
  "version": 1,
  "versionHex": "00000001",
  "merkleroot": "43da91cac10a1a4fb09d5a1893477c8f99104096ccfc06645a7133180b48e9d8",
  "time": 1237375660,
  "mediantime": 1237370853,
  "nonce": 1910505780,
  "bits": "1d00ffff",
  "difficulty": 1,
  "chainwork": "00000000000000000000000000000000000000000000000000001ec71ec71ec7",
  "nTx": 1,
  "previousblockhash": "00000000a45e19b32d9e615ee47c821ccf3bb0b9fa9a8a6a82a9620603390ce5",
  "nextblockhash": "0000000098487e634c1ca371e8ed656336983e8fb1a6836a1bb3e63d174182bf",
  "strippedsize": 216,
  "size": 216,
  "weight": 864,
  "tx": [
    {
      "txid": "43da91cac10a1a4fb09d5a1893477c8f99104096ccfc06645a7133180b48e9d8",
      "hash": "43da91cac10a1a4fb09d5a1893477c8f99104096ccfc06645a7133180b48e9d8",
      "version": 1,
      "size": 135,
      "vsize": 135,
      "weight": 540,
      "locktime": 0,
      "vin": [
        {
          "coinbase": "04ffff001d021c07",
          "sequence": 4294967295
        }
      ],
      "vout": [
        {
          "value": 50.0,
          "n": 0,
          "scriptPubKey": {
            "asm": "04c97e606a0ce3562479a62bc1f850fbcf9693d190ea2a60d4eb8a1773778e8c4cdc8ae8100d2a662e5a1f1d34486db10dcb823ed1db17f98149bdf6dbc704e7c6 OP_CHECKSIG",
            "desc": "pk(04c97e606a0ce3562479a62bc1f850fbcf9693d190ea2a60d4eb8a1773778e8c4cdc8ae8100d2a662e5a1f1d34486db10dcb823ed1db17f98149bdf6dbc704e7c6)#hsqsf64g",
            "hex": "4104c97e606a0ce3562479a62bc1f850fbcf9693d190ea2a60d4eb8a1773778e8c4cdc8ae8100d2a662e5a1f1d34486db10dcb823ed1db17f98149bdf6dbc704e7c6ac",
            "type": "pubkey"
          }
        }
      ],
      "hex": "01000000010000000000000000000000000000000000000000000000000000000000000000ffffffff0804ffff001d021c07ffffffff0100f2052a01000000434104c97e606a0ce3562479a62bc1f850fbcf9693d190ea2a60d4eb8a1773778e8c4cdc8ae8100d2a662e5a1f1d34486db10dcb823ed1db17f98149bdf6dbc704e7c6ac00000000"
    }
  ]
}