{
  "hash": "00000000d9e38de1dd2a732270a11a7df79978b7aabd7ac205980576b07420c1",
  "confirmations": 46380,
  "height": 6718,
  "version": 1,
  "versionHex": "00000001",
  "merkleroot": "2bb3a982c094c70c64b99ff77246655aae7e797ab6493daea764bccd469d8ef0",
  "time": 1236496575,
  "mediantime": 1236492057,
  "nonce": 4284386863,
  "bits": "1d00ffff",
  "difficulty": 1,
  "chainwork": "00000000000000000000000000000000000000000000000000001a3f1a3f1a3f",
  "nTx": 1,
  "previousblockhash": "0000000024c190f46c9ea20d9b6c4c35b0c3638d18f639dffa3815b80d779dc7",
  "nextblockhash": "0000000051bd25f779cd3ef8cb567fa3a904a5f0224c637e15add1efb67943ca",
  "strippedsize": 216,
  "size": 216,
  "weight": 864,
  "tx": [
    {
      "txid": "2bb3a982c094c70c64b99ff77246655aae7e797ab6493daea764bccd469d8ef0",
      "hash": "2bb3a982c094c70c64b99ff77246655aae7e797ab6493daea764bccd469d8ef0",
      "version": 1,
      "size": 135,
      "vsize": 135,
      "weight": 540,
      "locktime": 0,
      "vin": [
        {
          "coinbase": "04ffff001d025907",
          "sequence": 4294967295
        }
      ],
      "vout": [
        {
          "value": 50.0,
          "n": 0,
          "scriptPubKey": {
            "asm": "04cc27ebf95c390a0c69cc5e191b3a3b9246a572a3fa34f2ec064da62736d711057ca4cf20f1196fd719f00e5f2c563126cb8ccd499a7f8602145059e55566edcd OP_CHECKSIG",
            "desc": "pk(04cc27ebf95c390a0c69cc5e191b3a3b9246a572a3fa34f2ec064da62736d711057ca4cf20f1196fd719f00e5f2c563126cb8ccd499a7f8602145059e55566edcd)#8ken2jfp",
            "hex": "4104cc27ebf95c390a0c69cc5e191b3a3b9246a572a3fa34f2ec064da62736d711057ca4cf20f1196fd719f00e5f2c563126cb8ccd499a7f8602145059e55566edcdac",
            "type": "pubkey"
          }
        }
      ],
      "hex": "01000000010000000000000000000000000000000000000000000000000000000000000000ffffffff0804ffff001d025907ffffffff0100f2052a01000000434104cc27ebf95c390a0c69cc5e191b3a3b9246a572a3fa34f2ec064da62736d711057ca4cf20f1196fd719f00e5f2c563126cb8ccd499a7f8602145059e55566edcdac00000000"
    }
  ]
}