{
  "hash": "000000007ce675fe62345c4b8fc6bddb22d185651856fd93164db8f637f49678",
  "confirmations": 50837,
  "height": 2261,
  "version": 1,
  "versionHex": "00000001",
  "merkleroot": "9b2552031f70ac546423931bf8d03a97f9a2ccfb8ba3527eff64efd473d54dfa",
  "time": 1233253128,
  "mediantime": 1233248908,
  "nonce": 104677420,
  "bits": "1d00ffff",
  "difficulty": 1,
  "chainwork": "000000000000000000000000000000000000000000000000000008d608d608d6",
  "nTx": 1,
  "previousblockhash": "000000003b1f1db33f398ce3fe36e7575923241564657be2bfba10c2056440e5",
  "nextblockhash": "000000002e3aedc3009c8f2d92a3db486eb5990d61f8506623bf059e227eddf1",
  "strippedsize": 215,
  "size": 215,
  "weight": 860,
  "tx": [
    {
      "txid": "9b2552031f70ac546423931bf8d03a97f9a2ccfb8ba3527eff64efd473d54dfa",
      "hash": "9b2552031f70ac546423931bf8d03a97f9a2ccfb8ba3527eff64efd473d54dfa",
      "version": 1,
      "size": 134,
      "vsize": 134,
      "weight": 536,
      "locktime": 0,
      "vin": [
        {
          "coinbase": "04ffff001d0125",
          "sequence": 4294967295
        }
      ],
      "vout": [
        {
          "value": 50.0,
          "n": 0,
          "scriptPubKey": {
            "asm": "04f30cfcea63d6fb9c7316da8823e358ae5c173b827fd0a8170b3b6ad779839d3f3312e9b94d1e7c3bcf6adbac7c06cd91a616b3dbc6307085b0a7160342c8bdc9 OP_CHECKSIG",
            "desc": "pk(04f30cfcea63d6fb9c7316da8823e358ae5c173b827fd0a8170b3b6ad779839d3f3312e9b94d1e7c3bcf6adbac7c06cd91a616b3dbc6307085b0a7160342c8bdc9)#5wtdywn9",
            "hex": "4104f30cfcea63d6fb9c7316da8823e358ae5c173b827fd0a8170b3b6ad779839d3f3312e9b94d1e7c3bcf6adbac7c06cd91a616b3dbc6307085b0a7160342c8bdc9ac",
            "type": "pubkey"
          }
        }
      ],
      "hex": "01000000010000000000000000000000000000000000000000000000000000000000000000ffffffff0704ffff001d0125ffffffff0100f2052a01000000434104f30cfcea63d6fb9c7316da8823e358ae5c173b827fd0a8170b3b6ad779839d3f3312e9b94d1e7c3bcf6adbac7c06cd91a616b3dbc6307085b0a7160342c8bdc9ac00000000"
    }
  ]
}