{
  "hash": "00000000229bebfd3876c8c63e98123e6246458414fe432ccbd2b8cda6e28674",
  "confirmations": 44805,
  "height": 8293,
  "version": 1,
  "versionHex": "00000001",
  "merkleroot": "1f2345d0b15280ab4289d8772755e445e17c8d9c8e6697f1916f35aa48724efa",
  "time": 1237724936,
  "mediantime": 1237724013,
  "nonce": 3865641256,
  "bits": "1d00ffff",
  "difficulty": 1,
  "chainwork": "0000000000000000000000000000000000000000000000000000206620662066",
  "nTx": 1,
  "previousblockhash": "000000002d6177898bde5832f2e6cad7d0f31511dd84a021b8b26ae1e546df1e",
  "nextblockhash": "00000000276544e3a758cda222e9291f01bd8d6fb6efe70779fd9bab600c7670",
  "strippedsize": 216,
  "size": 216,
  "weight": 864,
  "tx": [
    {
      "txid": "1f2345d0b15280ab4289d8772755e445e17c8d9c8e6697f1916f35aa48724efa",
      "hash": "1f2345d0b15280ab4289d8772755e445e17c8d9c8e6697f1916f35aa48724efa",
      "version": 1,
      "size": 135,
      "vsize": 135,
      "weight": 540,
      "locktime": 0,
      "vin": [
        {
          "coinbase": "04ffff001d020904",
          "sequence": 4294967295
        }
      ],
      "vout": [
        {
          "value": 50.0,
          "n": 0,
          "scriptPubKey": {
            "asm": "047fbd05ea9de5561a07556697556b5cc23fdf15f2515a57ef411036df43b4f0dde20a981853008c974c65ff0bc8e15b1513c87f691b052721bd39973764dc5717 OP_CHECKSIG",
            "desc": "pk(047fbd05ea9de5561a07556697556b5cc23fdf15f2515a57ef411036df43b4f0dde20a981853008c974c65ff0bc8e15b1513c87f691b052721bd39973764dc5717)#3rjfrm79",
            "hex": "41047fbd05ea9de5561a07556697556b5cc23fdf15f2515a57ef411036df43b4f0dde20a981853008c974c65ff0bc8e15b1513c87f691b052721bd39973764dc5717ac",
            "type": "pubkey"
          }
        }
      ],
      "hex": "01000000010000000000000000000000000000000000000000000000000000000000000000ffffffff0804ffff001d020904ffffffff0100f2052a010000004341047fbd05ea9de5561a07556697556b5cc23fdf15f2515a57ef411036df43b4f0dde20a981853008c974c65ff0bc8e15b1513c87f691b052721bd39973764dc5717ac00000000"
    }
  ]
}