{
  "hash": "00000000ffeb8e847d94f7085c6cc0359c77d8ebe52b9fb59b90e9ef95a23c44",
  "confirmations": 43702,
  "height": 9396,
  "version": 1,
  "versionHex": "00000001",
  "merkleroot": "93e9f9d7c5322ab166e0e4b7bc58ab26144863ed8d225d2e5915f12529e09690",
  "time": 1238549090,
  "mediantime": 1238544961,
  "nonce": 3154758437,
  "bits": "1d00ffff",
  "difficulty": 1,
  "chainwork": "000000000000000000000000000000000000000000000000000024b524b524b5",
  "nTx": 1,
  "previousblockhash": "000000005554bf1d8c846e738bb792a50fa1724e1e4111aa48fdddd8fe2b9b27",
  "nextblockhash": "0000000048280e38facd2893e687ee9aec36938cb5c632a720c18b9394437274",
  "strippedsize": 216,
  "size": 216,
  "weight": 864,
  "tx": [
    {
      "txid": "93e9f9d7c5322ab166e0e4b7bc58ab26144863ed8d225d2e5915f12529e09690",
      "hash": "93e9f9d7c5322ab166e0e4b7bc58ab26144863ed8d225d2e5915f12529e09690",
      "version": 1,
      "size": 135,
      "vsize": 135,
      "weight": 540,
      "locktime": 0,
      "vin": [
        {
          "coinbase": "04ffff001d029203",
          "sequence": 4294967295
        }
      ],
      "vout": [
        {
          "value": 50.0,
          "n": 0,
          "scriptPubKey": {
            "asm": "04416b833cfc9cd4672f08eab782c6fda3255d8dd2537504dcb831e8651afde9868535cd1248e2b861a10df84cd795bdcb5a5f32f4cb8d33422e00efd0f6fb5af2 OP_CHECKSIG",
            "desc": "pk(04416b833cfc9cd4672f08eab782c6fda3255d8dd2537504dcb831e8651afde9868535cd1248e2b861a10df84cd795bdcb5a5f32f4cb8d33422e00efd0f6fb5af2)#pv90c2ta",
            "hex": "4104416b833cfc9cd4672f08eab782c6fda3255d8dd2537504dcb831e8651afde9868535cd1248e2b861a10df84cd795bdcb5a5f32f4cb8d33422e00efd0f6fb5af2ac",
            "type": "pubkey"
          }
        }
      ],
      "hex": "01000000010000000000000000000000000000000000000000000000000000000000000000ffffffff0804ffff001d029203ffffffff0100f2052a01000000434104416b833cfc9cd4672f08eab782c6fda3255d8dd2537504dcb831e8651afde9868535cd1248e2b861a10df84cd795bdcb5a5f32f4cb8d33422e00efd0f6fb5af2ac00000000"
    }
  ]
}