{
  "hash": "000000002c45f5e772f779b811336f05ec6ff8644cfe8df6c405a67e176e271d",
  "confirmations": 50972,
  "height": 2126,
  "version": 1,
  "versionHex": "00000001",
  "merkleroot": "89c53d6c66c8a69688d8c45913919326d836b0c2ef320c0e99bc0b9b0cefa417",
  "time": 1233155676,
  "mediantime": 1233151723,
  "nonce": 2213904935,
  "bits": "1d00ffff",
  "difficulty": 1,
  "chainwork": "0000000000000000000000000000000000000000000000000000084f084f084f",
  "nTx": 1,
  "previousblockhash": "000000004c45b00360e911aa80752b4a82a470ded8cb054f376eafc763526a23",
  "nextblockhash": "000000009990e61019511f84bcf0f1d3b0181c66f69d7abfebd314cf44093c3c",
  "strippedsize": 216,
  "size": 216,
  "weight": 864,
  "tx": [
    {
      "txid": "89c53d6c66c8a69688d8c45913919326d836b0c2ef320c0e99bc0b9b0cefa417",
      "hash": "89c53d6c66c8a69688d8c45913919326d836b0c2ef320c0e99bc0b9b0cefa417",
      "version": 1,
      "size": 135,
      "vsize": 135,
      "weight": 540,
      "locktime": 0,
      "vin": [
        {
          "coinbase": "04ffff001d020c04",
          "sequence": 4294967295
        }
      ],
      "vout": [
        {
          "value": 50.0,
          "n": 0,
          "scriptPubKey": {
            "asm": "049cc8e74ee194d6832bf204a1552eac536012aab1e2a8816e59a2239de414feb79901ccb6bb5c33b9ad4ffdc2228dc186168545d49cfc0df8b33bdda6c09de051 OP_CHECKSIG",
            "desc": "pk(049cc8e74ee194d6832bf204a1552eac536012aab1e2a8816e59a2239de414feb79901ccb6bb5c33b9ad4ffdc2228dc186168545d49cfc0df8b33bdda6c09de051)#n46u3xzs",
            "hex": "41049cc8e74ee194d6832bf204a1552eac536012aab1e2a8816e59a2239de414feb79901ccb6bb5c33b9ad4ffdc2228dc186168545d49cfc0df8b33bdda6c09de051ac",
            "type": "pubkey"
          }
        }
      ],
      "hex": "01000000010000000000000000000000000000000000000000000000000000000000000000ffffffff0804ffff001d020c04ffffffff0100f2052a010000004341049cc8e74ee194d6832bf204a1552eac536012aab1e2a8816e59a2239de414feb79901ccb6bb5c33b9ad4ffdc2228dc186168545d49cfc0df8b33bdda6c09de051ac00000000"
    }
  ]
}