{
  "hash": "000000002033003e0ea2ebcab66f60ab701ee7fd06b5e2b707507d841bdd3fcc",
  "confirmations": 44962,
  "height": 8136,
  "version": 1,
  "versionHex": "00000001",
  "merkleroot": "2d460e3d03d598089b1b31c6051c197b309ca3181ea9a6e44e5c5194bffa3edd",
  "time": 1237560792,
  "mediantime": 1237555586,
  "nonce": 1808275462,
  "bits": "1d00ffff",
  "difficulty": 1,
  "chainwork": "00000000000000000000000000000000000000000000000000001fc91fc91fc9",
  "nTx": 1,
  "previousblockhash": "00000000ce5d3314ce99a2420f0ad9b045e47724c957bfd8feb0931d27a2bde7",
  "nextblockhash": "00000000f94cd3d689200533b1bf3a0001e05a34b683f7d22b5da08d291ccf30",
  "strippedsize": 216,
  "size": 216,
  "weight": 864,
  "tx": [
    {
      "txid": "2d460e3d03d598089b1b31c6051c197b309ca3181ea9a6e44e5c5194bffa3edd",
      "hash": "2d460e3d03d598089b1b31c6051c197b309ca3181ea9a6e44e5c5194bffa3edd",
      "version": 1,
      "size": 135,
      "vsize": 135,
      "weight": 540,
      "locktime": 0,
      "vin": [
        {
          "coinbase": "04ffff001d02c301",
          "sequence": 4294967295
        }
      ],
      "vout": [
        {
          "value": 50.0,
          "n": 0,
          "scriptPubKey": {
            "asm": "04ab80e33f13a34d08fba1ae7e1468dd723fde081e843b33cadf99e0399ac5786e709e0a0b0be96c38a15efb7959b5dd2dc2e07b9de3b411f4da5c56c445ccfe3e OP_CHECKSIG",
            "desc": "pk(04ab80e33f13a34d08fba1ae7e1468dd723fde081e843b33cadf99e0399ac5786e709e0a0b0be96c38a15efb7959b5dd2dc2e07b9de3b411f4da5c56c445ccfe3e)#vddv908q",
            "hex": "4104ab80e33f13a34d08fba1ae7e1468dd723fde081e843b33cadf99e0399ac5786e709e0a0b0be96c38a15efb7959b5dd2dc2e07b9de3b411f4da5c56c445ccfe3eac",
            "type": "pubkey"
          }
        }
      ],
      "hex": "01000000010000000000000000000000000000000000000000000000000000000000000000ffffffff0804ffff001d02c301ffffffff0100f2052a01000000434104ab80e33f13a34d08fba1ae7e1468dd723fde081e843b33cadf99e0399ac5786e709e0a0b0be96c38a15efb7959b5dd2dc2e07b9de3b411f4da5c56c445ccfe3eac00000000"
    }
  ]
}