{
  "hash": "00000000ce0798f32548181acbb91e85ddaf67f44bc2cda454ea7f9ec5e891a8",
  "confirmations": 50101,
  "height": 2997,
  "version": 1,
  "versionHex": "00000001",
  "merkleroot": "ab35e397b79c615b3c23baebcbf3b492ea2f7c89db27dc0841e3e87c96368c66",
  "time": 1233758727,
  "mediantime": 1233756316,
  "nonce": 953753914,
  "bits": "1d00ffff",
  "difficulty": 1,
  "chainwork": "00000000000000000000000000000000000000000000000000000bb60bb60bb6",
  "nTx": 1,
  "previousblockhash": "00000000f7168274a3047ef33ba3ed9f9faa5e6acb890d9195a1e8be3bad8f18",
  "nextblockhash": "0000000002b81b9c30e258956531af1b812dea3d3e9aed28dbac8c9fec3f1554",
  "strippedsize": 216,
  "size": 216,
  "weight": 864,
  "tx": [
    {
      "txid": "ab35e397b79c615b3c23baebcbf3b492ea2f7c89db27dc0841e3e87c96368c66",
      "hash": "ab35e397b79c615b3c23baebcbf3b492ea2f7c89db27dc0841e3e87c96368c66",
      "version": 1,
      "size": 135,
      "vsize": 135,
      "weight": 540,
      "locktime": 0,
      "vin": [
        {
          "coinbase": "04ffff001d025701",
          "sequence": 4294967295
        }
      ],
      "vout": [
        {
          "value": 50.0,
          "n": 0,
          "scriptPubKey": {
            "asm": "0487ee5644318735b3c5d1095bf013c3d43aadb5350dbd6ebc3253521b0c0c4df2b4f342b73de07a6deb2da2f048bf9a84ba63191da21da711b5acf0af62b5a7af OP_CHECKSIG",
            "desc": "pk(0487ee5644318735b3c5d1095bf013c3d43aadb5350dbd6ebc3253521b0c0c4df2b4f342b73de07a6deb2da2f048bf9a84ba63191da21da711b5acf0af62b5a7af)#6huurpgp",
            "hex": "410487ee5644318735b3c5d1095bf013c3d43aadb5350dbd6ebc3253521b0c0c4df2b4f342b73de07a6deb2da2f048bf9a84ba63191da21da711b5acf0af62b5a7afac",
            "type": "pubkey"
          }
        }
      ],
      "hex": "01000000010000000000000000000000000000000000000000000000000000000000000000ffffffff0804ffff001d025701ffffffff0100f2052a0100000043410487ee5644318735b3c5d1095bf013c3d43aadb5350dbd6ebc3253521b0c0c4df2b4f342b73de07a6deb2da2f048bf9a84ba63191da21da711b5acf0af62b5a7afac00000000"
    }
  ]
}