{
  "hash": "000000009185a6d894df317ab79ff4ea68bcd9b7bd972888de20a9e4ba9c06d5",
  "confirmations": 52397,
  "height": 701,
  "version": 1,
  "versionHex": "00000001",
  "merkleroot": "0250a9caf09f36448089bc7900959817dff9501b6512110cbeae16fa50c5da1c",
  "time": 1232109864,
  "mediantime": 1232106114,
  "nonce": 655723287,
  "bits": "1d00ffff",
  "difficulty": 1,
  "chainwork": "000000000000000000000000000000000000000000000000000002be02be02be",
  "nTx": 1,
  "previousblockhash": "0000000084d973c18381c87a63a2430ad2eff1d84934ec34e3bfd78ffd3cd9c1",
  "nextblockhash": "00000000871ec3ebba39cc9e961d288c45838c9ab4f96f982c71d97a837e5071",
  "strippedsize": 216,
  "size": 216,
  "weight": 864,
  "tx": [
    {
      "txid": "0250a9caf09f36448089bc7900959817dff9501b6512110cbeae16fa50c5da1c",
      "hash": "0250a9caf09f36448089bc7900959817dff9501b6512110cbeae16fa50c5da1c",
      "version": 1,
      "size": 135,
      "vsize": 135,
      "weight": 540,
      "locktime": 0,
      "vin": [
        {
          "coinbase": "04ffff001d021701",
          "sequence": 4294967295
        }
      ],
      "vout": [
        {
          "value": 50.0,
          "n": 0,
          "scriptPubKey": {
            "asm": "048ca8411133b54cc8c940301f30ffbd6460427b825e82e0d83d6542cebc17a27ec01985e162c1248a9c9f228d61440647834c655756fc84f53c329e448f077a7c OP_CHECKSIG",
            "desc": "pk(048ca8411133b54cc8c940301f30ffbd6460427b825e82e0d83d6542cebc17a27ec01985e162c1248a9c9f228d61440647834c655756fc84f53c329e448f077a7c)#u078lu9l",
            "hex": "41048ca8411133b54cc8c940301f30ffbd6460427b825e82e0d83d6542cebc17a27ec01985e162c1248a9c9f228d61440647834c655756fc84f53c329e448f077a7cac",
            "type": "pubkey"
          }
        }
      ],
      "hex": "01000000010000000000000000000000000000000000000000000000000000000000000000ffffffff0804ffff001d021701ffffffff0100f2052a010000004341048ca8411133b54cc8c940301f30ffbd6460427b825e82e0d83d6542cebc17a27ec01985e162c1248a9c9f228d61440647834c655756fc84f53c329e448f077a7cac00000000"
    }
  ]
}