{
  "hash": "00000000eec7665c5362282340a688a1e9a880ca255ce354ddd72b000815612a",
  "confirmations": 43362,
  "height": 9736,
  "version": 1,
  "versionHex": "00000001",
  "merkleroot": "f58e6a7b142746ac78a28d011217e429cf55b73956f59ce906b791fea84a427f",
  "time": 1238804445,
  "mediantime": 1238800299,
  "nonce": 343697012,
  "bits": "1d00ffff",
  "difficulty": 1,
  "chainwork": "0000000000000000000000000000000000000000000000000000260926092609",
  "nTx": 1,
  "previousblockhash": "000000001c27ab6896a36cb774cf434f07ebad4b130c555c59d17ac19762b36c",
  "nextblockhash": "0000000069bdbe2e36965d41c2c112ffcbfa826ca545e732c11c52db36ff793f",
  "strippedsize": 215,
  "size": 215,
  "weight": 860,
  "tx": [
    {
      "txid": "f58e6a7b142746ac78a28d011217e429cf55b73956f59ce906b791fea84a427f",
      "hash": "f58e6a7b142746ac78a28d011217e429cf55b73956f59ce906b791fea84a427f",
      "version": 1,
      "size": 134,
      "vsize": 134,
      "weight": 536,
      "locktime": 0,
      "vin": [
        {
          "coinbase": "04ffff001d013d",
          "sequence": 4294967295
        }
      ],
      "vout": [
        {
          "value": 50.0,
          "n": 0,
          "scriptPubKey": {
            "asm": "04ef6780e9bd18a0001cbe20d56d1fe9a00437a4bb5323cd99369644947079a3bea8c79b74ebea6b7b3800d53c6e3ce74adcc16584d5218cc8b20f1d1b3268ad15 OP_CHECKSIG",
            "desc": "pk(04ef6780e9bd18a0001cbe20d56d1fe9a00437a4bb5323cd99369644947079a3bea8c79b74ebea6b7b3800d53c6e3ce74adcc16584d5218cc8b20f1d1b3268ad15)#r8vwtypz",
            "hex": "4104ef6780e9bd18a0001cbe20d56d1fe9a00437a4bb5323cd99369644947079a3bea8c79b74ebea6b7b3800d53c6e3ce74adcc16584d5218cc8b20f1d1b3268ad15ac",
            "type": "pubkey"
          }
        }
      ],
      "hex": "01000000010000000000000000000000000000000000000000000000000000000000000000ffffffff0704ffff001d013dffffffff0100f2052a01000000434104ef6780e9bd18a0001cbe20d56d1fe9a00437a4bb5323cd99369644947079a3bea8c79b74ebea6b7b3800d53c6e3ce74adcc16584d5218cc8b20f1d1b3268ad15ac00000000"
    }
  ]
}