{
  "hash": "0000000016c0a7394c30e0d7bac93909321fc2b8495715095af59ef92741d9e8",
  "confirmations": 45785,
  "height": 7313,
  "version": 1,
  "versionHex": "00000001",
  "merkleroot": "391d74e1501d1bc994befb53e43c8131519211fbe49e2eecc0248c1d9fc42d55",
  "time": 1236957167,
  "mediantime": 1236953016,
  "nonce": 1097177888,
  "bits": "1d00ffff",
  "difficulty": 1,
  "chainwork": "00000000000000000000000000000000000000000000000000001c921c921c92",
  "nTx": 1,
  "previousblockhash": "00000000b5d55a9931ad2e1d2b12e21de816d0994ab5f94065a402c23674c601",
  "nextblockhash": "000000005ab4b742680dcb3f9d3be40b219f3e8c57b0bc286bb50378b6450f8b",
  "strippedsize": 216,
  "size": 216,
  "weight": 864,
  "tx": [
    {
      "txid": "391d74e1501d1bc994befb53e43c8131519211fbe49e2eecc0248c1d9fc42d55",
      "hash": "391d74e1501d1bc994befb53e43c8131519211fbe49e2eecc0248c1d9fc42d55",
      "version": 1,
      "size": 135,
      "vsize": 135,
      "weight": 540,
      "locktime": 0,
      "vin": [
        {
          "coinbase": "04ffff001d02c607",
          "sequence": 4294967295
        }
      ],
      "vout": [
        {
          "value": 50.0,
          "n": 0,
          "scriptPubKey": {
            "asm": "04f8d6eda4f6297272a5afa87a074a6e0e419d673f75e08b9a65e1f30694dec881bcb234a068416b7611cb77d232c6a5ae7e1c1d412e3a2d972a2712de13c78d84 OP_CHECKSIG",
            "desc": "pk(04f8d6eda4f6297272a5afa87a074a6e0e419d673f75e08b9a65e1f30694dec881bcb234a068416b7611cb77d232c6a5ae7e1c1d412e3a2d972a2712de13c78d84)#694lxye2",
            "hex": "4104f8d6eda4f6297272a5afa87a074a6e0e419d673f75e08b9a65e1f30694dec881bcb234a068416b7611cb77d232c6a5ae7e1c1d412e3a2d972a2712de13c78d84ac",
            "type": "pubkey"
          }
        }
      ],
      "hex": "01000000010000000000000000000000000000000000000000000000000000000000000000ffffffff0804ffff001d02c607ffffffff0100f2052a01000000434104f8d6eda4f6297272a5afa87a074a6e0e419d673f75e08b9a65e1f30694dec881bcb234a068416b7611cb77d232c6a5ae7e1c1d412e3a2d972a2712de13c78d84ac00000000"
    }
  ]
}