{
  "hash": "000000008d238d65182ba3dfe70263ed60d58271a3418ee4bf4edd9769e2e9f6",
  "confirmations": 50828,
  "height": 2270,
  "version": 1,
  "versionHex": "00000001",
  "merkleroot": "e47a182f0de38dfa3672e4dab7be63b57f2ef9b69704d05b43a35a429f48feab",
  "time": 1233259788,
  "mediantime": 1233256199,
  "nonce": 148769550,
  "bits": "1d00ffff",
  "difficulty": 1,
  "chainwork": "000000000000000000000000000000000000000000000000000008df08df08df",
  "nTx": 1,
  "previousblockhash": "00000000d3417c47b11a373e29e81f67c648f3018e9419f5388e5d8152ae778e",
  "nextblockhash": "00000000fca03856f435bc8ce54184c907c53f3daf04c42aae9b57f358c9aac3",
  "strippedsize": 216,
  "size": 216,
  "weight": 864,
  "tx": [
    {
      "txid": "e47a182f0de38dfa3672e4dab7be63b57f2ef9b69704d05b43a35a429f48feab",
      "hash": "e47a182f0de38dfa3672e4dab7be63b57f2ef9b69704d05b43a35a429f48feab",
      "version": 1,
      "size": 135,
      "vsize": 135,
      "weight": 540,
      "locktime": 0,
      "vin": [
        {
          "coinbase": "04ffff001d025601",
          "sequence": 4294967295
        }
      ],
      "vout": [
        {
          "value": 50.0,
          "n": 0,
          "scriptPubKey": {
            "asm": "04bb61ace4415ad3ba92bae030168a43f500657c82dcc400222c8e4684969ebb5916e075978000b141bbd0a621c111d29492982db0c1916f6fc3018b94005c2c8b OP_CHECKSIG",
            "desc": "pk(04bb61ace4415ad3ba92bae030168a43f500657c82dcc400222c8e4684969ebb5916e075978000b141bbd0a621c111d29492982db0c1916f6fc3018b94005c2c8b)#9vk2hxe4",
            "hex": "4104bb61ace4415ad3ba92bae030168a43f500657c82dcc400222c8e4684969ebb5916e075978000b141bbd0a621c111d29492982db0c1916f6fc3018b94005c2c8bac",
            "type": "pubkey"
          }
        }
      ],
      "hex": "01000000010000000000000000000000000000000000000000000000000000000000000000ffffffff0804ffff001d025601ffffffff0100f2052a01000000434104bb61ace4415ad3ba92bae030168a43f500657c82dcc400222c8e4684969ebb5916e075978000b141bbd0a621c111d29492982db0c1916f6fc3018b94005c2c8bac00000000"
    }
  ]
}