{
  "hash": "000000000eef7238cb7d0788d127071db13ed4fe900ec4a416df92a1b4c4376f",
  "confirmations": 48701,
  "height": 4397,
  "version": 1,
  "versionHex": "00000001",
  "merkleroot": "93120c2a372f88b58a4c8c67d1446afcbb8313fbe6d42026edcce0a614ece2c7",
  "time": 1234710049,
  "mediantime": 1234705742,
  "nonce": 3497431859,
  "bits": "1d00ffff",
  "difficulty": 1,
  "chainwork": "0000000000000000000000000000000000000000000000000000112e112e112e",
  "nTx": 1,
  "previousblockhash": "00000000856aa6a1092a95dce827025856f1e1a01dec076953f50b9cca182f64",
  "nextblockhash": "00000000fd3b5cb9099e6e242863a9938e06791dd86d9eef6cc0608aa72e9cf4",
  "strippedsize": 216,
  "size": 216,
  "weight": 864,
  "tx": [
    {
      "txid": "93120c2a372f88b58a4c8c67d1446afcbb8313fbe6d42026edcce0a614ece2c7",
      "hash": "93120c2a372f88b58a4c8c67d1446afcbb8313fbe6d42026edcce0a614ece2c7",
      "version": 1,
      "size": 135,
      "vsize": 135,
      "weight": 540,
      "locktime": 0,
      "vin": [
        {
          "coinbase": "04ffff001d025801",
          "sequence": 4294967295
        }
      ],
      "vout": [
        {
          "value": 50.0,
          "n": 0,
          "scriptPubKey": {
            "asm": "04e2ce385cebeef9e1744c59dc44aeeb6a8ebf9ff1f9c76eae44761f2165933ac231bab4aa9ac418233e1576ba78008ef03f1bbaf4f53b723b22f9a4bdb39fd787 OP_CHECKSIG",
            "desc": "pk(04e2ce385cebeef9e1744c59dc44aeeb6a8ebf9ff1f9c76eae44761f2165933ac231bab4aa9ac418233e1576ba78008ef03f1bbaf4f53b723b22f9a4bdb39fd787)#j5eka2c6",
            "hex": "4104e2ce385cebeef9e1744c59dc44aeeb6a8ebf9ff1f9c76eae44761f2165933ac231bab4aa9ac418233e1576ba78008ef03f1bbaf4f53b723b22f9a4bdb39fd787ac",
            "type": "pubkey"
          }
        }
      ],
      "hex": "01000000010000000000000000000000000000000000000000000000000000000000000000ffffffff0804ffff001d025801ffffffff0100f2052a01000000434104e2ce385cebeef9e1744c59dc44aeeb6a8ebf9ff1f9c76eae44761f2165933ac231bab4aa9ac418233e1576ba78008ef03f1bbaf4f53b723b22f9a4bdb39fd787ac00000000"
    }
  ]
}