{
  "hash": "000000009a5a1f98edaafdae4c0dd90e1b03833b97c5f45e130a6a0210cd9081",
  "confirmations": 52006,
  "height": 333,
  "version": 1,
  "versionHex": "00000001",
  "merkleroot": "38b5528efdf657b6be24e80e57bb097e65bde74bc653c8f2cf0b9bb6bba51d1d",
  "time": 1231855081,
  "mediantime": 1231851944,
  "nonce": 1063810612,
  "bits": "1d00ffff",
  "difficulty": 1,
  "chainwork": "0000000000000000000000000000000000000000000000000000014e014e014e",
  "nTx": 1,
  "previousblockhash": "000000001728a65efe3fe56198dd6112d7f76cc8e967d4fb958a0b4d3a08fb15",
  "nextblockhash": "000000006b94ae33d29db8abaf5a088f748ee835dd4509ac70d698a9f8376211",
  "strippedsize": 216,
  "size": 216,
  "weight": 864,
  "tx": [
    {
      "txid": "38b5528efdf657b6be24e80e57bb097e65bde74bc653c8f2cf0b9bb6bba51d1d",
      "hash": "38b5528efdf657b6be24e80e57bb097e65bde74bc653c8f2cf0b9bb6bba51d1d",
      "version": 1,
      "size": 135,
      "vsize": 135,
      "weight": 540,
      "locktime": 0,
      "vin": [
        {
          "coinbase": "04ffff001d023801",
          "sequence": 4294967295
        }
      ],
      "vout": [
        {
          "value": 50.0,
          "n": 0,
          "scriptPubKey": {
            "asm": "042bcad3b2c15dcaf253b060d33ce0ad60396daba1b07fa3866947ab3d8f2ccf9fd3f19e253452ddc872567a87ee273885afdef6939f8a149ca356819a713f97bc OP_CHECKSIG",
            "desc": "pk(042bcad3b2c15dcaf253b060d33ce0ad60396daba1b07fa3866947ab3d8f2ccf9fd3f19e253452ddc872567a87ee273885afdef6939f8a149ca356819a713f97bc)#dz3fw5fx",
            "hex": "41042bcad3b2c15dcaf253b060d33ce0ad60396daba1b07fa3866947ab3d8f2ccf9fd3f19e253452ddc872567a87ee273885afdef6939f8a149ca356819a713f97bcac",
            "type": "pubkey"
          }
        }
      ],
      "hex": "01000000010000000000000000000000000000000000000000000000000000000000000000ffffffff0804ffff001d023801ffffffff0100f2052a010000004341042bcad3b2c15dcaf253b060d33ce0ad60396daba1b07fa3866947ab3d8f2ccf9fd3f19e253452ddc872567a87ee273885afdef6939f8a149ca356819a713f97bcac00000000"
    }
  ]
}