{
  "hash": "00000000931292b665ecaadb744af46f877df2144d240e11e76f16cb1f6531c0",
  "confirmations": 52009,
  "height": 330,
  "version": 1,
  "versionHex": "00000001",
  "merkleroot": "0b885d4090e4874d8abd274a722c9c2dd08c27ee92f385cf786f0a3833c79882",
  "time": 1231853108,
  "mediantime": 1231849987,
  "nonce": 2621926147,
  "bits": "1d00ffff",
  "difficulty": 1,
  "chainwork": "0000000000000000000000000000000000000000000000000000014b014b014b",
  "nTx": 1,
  "previousblockhash": "000000000b9cd32f191a1b3538127a93726f0ed20a21871d962eff0d655a1875",
  "nextblockhash": "000000009f5056791a32a8428ff4077fb5fe3c264fbdb72a10310ca3c6ee8d70",
  "strippedsize": 216,
  "size": 216,
  "weight": 864,
  "tx": [
    {
      "txid": "0b885d4090e4874d8abd274a722c9c2dd08c27ee92f385cf786f0a3833c79882",
      "hash": "0b885d4090e4874d8abd274a722c9c2dd08c27ee92f385cf786f0a3833c79882",
      "version": 1,
      "size": 135,
      "vsize": 135,
      "weight": 540,
      "locktime": 0,
      "vin": [
        {
          "coinbase": "04ffff001d022a01",
          "sequence": 4294967295
        }
      ],
      "vout": [
        {
          "value": 50.0,
          "n": 0,
          "scriptPubKey": {
            "asm": "044e9dfd38fd1878020547f2ec5cc55860c01124138caeb85d0084d4560a7c3b7497d072ea26dc2388b6ecfdf2ccdf30aa8c439f7794458227555844be32446c38 OP_CHECKSIG",
            "desc": "pk(044e9dfd38fd1878020547f2ec5cc55860c01124138caeb85d0084d4560a7c3b7497d072ea26dc2388b6ecfdf2ccdf30aa8c439f7794458227555844be32446c38)#0u2sn76m",
            "hex": "41044e9dfd38fd1878020547f2ec5cc55860c01124138caeb85d0084d4560a7c3b7497d072ea26dc2388b6ecfdf2ccdf30aa8c439f7794458227555844be32446c38ac",
            "type": "pubkey"
          }
        }
      ],
      "hex": "01000000010000000000000000000000000000000000000000000000000000000000000000ffffffff0804ffff001d022a01ffffffff0100f2052a010000004341044e9dfd38fd1878020547f2ec5cc55860c01124138caeb85d0084d4560a7c3b7497d072ea26dc2388b6ecfdf2ccdf30aa8c439f7794458227555844be32446c38ac00000000"
    }
  ]
}