{
  "hash": "0000000049819c3168a4ef325de04fe528114a5ecca846549a643d8a8a74c383",
  "confirmations": 44499,
  "height": 8599,
  "version": 1,
  "versionHex": "00000001",
  "merkleroot": "c2f199bd3ab7b21e4a44deb25568b87a1c8888b1969dd0350d11fce5777b9d6d",
  "time": 1237949538,
  "mediantime": 1237946957,
  "nonce": 3057738776,
  "bits": "1d00ffff",
  "difficulty": 1,
  "chainwork": "0000000000000000000000000000000000000000000000000000219821982198",
  "nTx": 1,
  "previousblockhash": "0000000063711ec944b72f90125bed39f840752b394b42d95ccba0cf0a61dcd7",
  "nextblockhash": "00000000312efa075ffb31b57ab2f1239105155c51349b426c19c112c66474d3",
  "strippedsize": 216,
  "size": 216,
  "weight": 864,
  "tx": [
    {
      "txid": "c2f199bd3ab7b21e4a44deb25568b87a1c8888b1969dd0350d11fce5777b9d6d",
      "hash": "c2f199bd3ab7b21e4a44deb25568b87a1c8888b1969dd0350d11fce5777b9d6d",
      "version": 1,
      "size": 135,
      "vsize": 135,
      "weight": 540,
      "locktime": 0,
      "vin": [
        {
          "coinbase": "04ffff001d027609",
          "sequence": 4294967295
        }
      ],
      "vout": [
        {
          "value": 50.0,
          "n": 0,
          "scriptPubKey": {
            "asm": "046e9fbaacbc07a1f8ad88f5a6c5e846623d450fab51838482a50c3b4e24de6e093bf32d03efdedadf33ae6320c42d2e4d1a74e28f6d0aa5215939b442a8660c80 OP_CHECKSIG",
            "desc": "pk(046e9fbaacbc07a1f8ad88f5a6c5e846623d450fab51838482a50c3b4e24de6e093bf32d03efdedadf33ae6320c42d2e4d1a74e28f6d0aa5215939b442a8660c80)#waqh4e3s",
            "hex": "41046e9fbaacbc07a1f8ad88f5a6c5e846623d450fab51838482a50c3b4e24de6e093bf32d03efdedadf33ae6320c42d2e4d1a74e28f6d0aa5215939b442a8660c80ac",
            "type": "pubkey"
          }
        }
      ],
      "hex": "01000000010000000000000000000000000000000000000000000000000000000000000000ffffffff0804ffff001d027609ffffffff0100f2052a010000004341046e9fbaacbc07a1f8ad88f5a6c5e846623d450fab51838482a50c3b4e24de6e093bf32d03efdedadf33ae6320c42d2e4d1a74e28f6d0aa5215939b442a8660c80ac00000000"
    }
  ]
}