{
  "hash": "00000000a42f4b544a903f884a3b1e0bd013fc571f4be10a236092c1541bddd3",
  "confirmations": 43711,
  "height": 9387,
  "version": 1,
  "versionHex": "00000001",
  "merkleroot": "dfbe9e84df6e4a41b8fb6e14bcf6ce8fa3bba280b59f1bb8a92cd6f125763833",
  "time": 1238541218,
  "mediantime": 1238536462,
  "nonce": 1543741959,
  "bits": "1d00ffff",
  "difficulty": 1,
  "chainwork": "000000000000000000000000000000000000000000000000000024ac24ac24ac",
  "nTx": 1,
  "previousblockhash": "0000000096e56297923ef1784ed5c574c810411788a54912786429c1a809e5bb",
  "nextblockhash": "0000000034f78794f68c1e4c83da631472d1b87f8edb309fb544bae713333f47",
  "strippedsize": 216,
  "size": 216,
  "weight": 864,
  "tx": [
    {
      "txid": "dfbe9e84df6e4a41b8fb6e14bcf6ce8fa3bba280b59f1bb8a92cd6f125763833",
      "hash": "dfbe9e84df6e4a41b8fb6e14bcf6ce8fa3bba280b59f1bb8a92cd6f125763833",
      "version": 1,
      "size": 135,
      "vsize": 135,
      "weight": 540,
      "locktime": 0,
      "vin": [
        {
          "coinbase": "04ffff001d026903",
          "sequence": 4294967295
        }
      ],
      "vout": [
        {
          "value": 50.0,
          "n": 0,
          "scriptPubKey": {
            "asm": "04667ae858d76a1a62a84a37b4b1f5c9d1af5ea7c5aa2700a45333087a779bd9a35fffd2b541e229a6bf8f840981faf3e7f5f8080f09832d73405ce78d4d58bbc3 OP_CHECKSIG",
            "desc": "pk(04667ae858d76a1a62a84a37b4b1f5c9d1af5ea7c5aa2700a45333087a779bd9a35fffd2b541e229a6bf8f840981faf3e7f5f8080f09832d73405ce78d4d58bbc3)#74u5e9fe",
            "hex": "4104667ae858d76a1a62a84a37b4b1f5c9d1af5ea7c5aa2700a45333087a779bd9a35fffd2b541e229a6bf8f840981faf3e7f5f8080f09832d73405ce78d4d58bbc3ac",
            "type": "pubkey"
          }
        }
      ],
      "hex": "01000000010000000000000000000000000000000000000000000000000000000000000000ffffffff0804ffff001d026903ffffffff0100f2052a01000000434104667ae858d76a1a62a84a37b4b1f5c9d1af5ea7c5aa2700a45333087a779bd9a35fffd2b541e229a6bf8f840981faf3e7f5f8080f09832d73405ce78d4d58bbc3ac00000000"
    }
  ]
}