{
  "hash": "00000000d8b8cf67b07679b59e46aeaedd7358f0fa70e2ef8ac347fdcb731f1d",
  "confirmations": 52061,
  "height": 139,
  "version": 1,
  "versionHex": "00000001",
  "merkleroot": "65874fda54b304d965905765a590fac1ba46585a38e3e5e48db216476caf011d",
  "time": 1231688158,
  "mediantime": 1231686121,
  "nonce": 3799014406,
  "bits": "1d00ffff",
  "difficulty": 1,
  "chainwork": "0000000000000000000000000000000000000000000000000000008c008c008c",
  "nTx": 1,
  "previousblockhash": "00000000499c3e522e95be30db6826524905e3bd95910e8011c4f624e35bd0fa",
  "nextblockhash": "00000000b09816342f1f080ca651552cd7d5ac3cf23e28ebe1af416ebd3b0395",
  "strippedsize": 215,
  "size": 215,
  "weight": 860,
  "tx": [
    {
      "txid": "65874fda54b304d965905765a590fac1ba46585a38e3e5e48db216476caf011d",
      "hash": "65874fda54b304d965905765a590fac1ba46585a38e3e5e48db216476caf011d",
      "version": 1,
      "size": 134,
      "vsize": 134,
      "weight": 536,
      "locktime": 0,
      "vin": [
        {
          "coinbase": "04ffff001d012d",
          "sequence": 4294967295
        }
      ],
      "vout": [
        {
          "value": 50.0,
          "n": 0,
          "scriptPubKey": {
            "asm": "04a624f45c0b4b75bc784748ce8affe84de70556cfdb9cb69f861363699047701b9336ecc9f34eab351b28b2691bf69e5afc2e40b05cc6fa4a8ff377cff0d9dfb2 OP_CHECKSIG",
            "desc": "pk(04a624f45c0b4b75bc784748ce8affe84de70556cfdb9cb69f861363699047701b9336ecc9f34eab351b28b2691bf69e5afc2e40b05cc6fa4a8ff377cff0d9dfb2)#7k2094sj",
            "hex": "4104a624f45c0b4b75bc784748ce8affe84de70556cfdb9cb69f861363699047701b9336ecc9f34eab351b28b2691bf69e5afc2e40b05cc6fa4a8ff377cff0d9dfb2ac",
            "type": "pubkey"
          }
        }
      ],
      "hex": "01000000010000000000000000000000000000000000000000000000000000000000000000ffffffff0704ffff001d012dffffffff0100f2052a01000000434104a624f45c0b4b75bc784748ce8affe84de70556cfdb9cb69f861363699047701b9336ecc9f34eab351b28b2691bf69e5afc2e40b05cc6fa4a8ff377cff0d9dfb2ac00000000"
    }
  ]
}