{
  "hash": "000000008947233a63940abf57629522f5c9bce91fbe4e26f1dca3ade627173c",
  "confirmations": 43280,
  "height": 9818,
  "version": 1,
  "versionHex": "00000001",
  "merkleroot": "8dd76e2e036e37a52bb76d549ea0c0c696c083a261c70bdc6c31601b0d93f7d8",
  "time": 1238867735,
  "mediantime": 1238863488,
  "nonce": 4025919240,
  "bits": "1d00ffff",
  "difficulty": 1,
  "chainwork": "0000000000000000000000000000000000000000000000000000265b265b265b",
  "nTx": 1,
  "previousblockhash": "000000001cc02184e0e7d46bd04d36916b9193cc676bb0377f836e56dd354d23",
  "nextblockhash": "0000000019844a244ad54bc30ecc9d133fa7b670ca157c5928ef5ab7197c64b8",
  "strippedsize": 216,
  "size": 216,
  "weight": 864,
  "tx": [
    {
      "txid": "8dd76e2e036e37a52bb76d549ea0c0c696c083a261c70bdc6c31601b0d93f7d8",
      "hash": "8dd76e2e036e37a52bb76d549ea0c0c696c083a261c70bdc6c31601b0d93f7d8",
      "version": 1,
      "size": 135,
      "vsize": 135,
      "weight": 540,
      "locktime": 0,
      "vin": [
        {
          "coinbase": "04ffff001d028f00",
          "sequence": 4294967295
        }
      ],
      "vout": [
        {
          "value": 50.0,
          "n": 0,
          "scriptPubKey": {
            "asm": "04529405c50a6818b6011f3225495001cd0b3ffe0b6ca5e13fdf68161daa0f33c5d99a6bd88a5017af26904e3d1863af129c1b2db697957c57eef3a763a4f52732 OP_CHECKSIG",
            "desc": "pk(04529405c50a6818b6011f3225495001cd0b3ffe0b6ca5e13fdf68161daa0f33c5d99a6bd88a5017af26904e3d1863af129c1b2db697957c57eef3a763a4f52732)#qpf7m4z9",
            "hex": "4104529405c50a6818b6011f3225495001cd0b3ffe0b6ca5e13fdf68161daa0f33c5d99a6bd88a5017af26904e3d1863af129c1b2db697957c57eef3a763a4f52732ac",
            "type": "pubkey"
          }
        }
      ],
      "hex": "01000000010000000000000000000000000000000000000000000000000000000000000000ffffffff0804ffff001d028f00ffffffff0100f2052a01000000434104529405c50a6818b6011f3225495001cd0b3ffe0b6ca5e13fdf68161daa0f33c5d99a6bd88a5017af26904e3d1863af129c1b2db697957c57eef3a763a4f52732ac00000000"
    }
  ]
}