{
  "hash": "0000000060cc74f4ba38719e12725436b9006d02500ac5d79136c8fcf6f8cd9b",
  "confirmations": 45837,
  "height": 7261,
  "version": 1,
  "versionHex": "00000001",
  "merkleroot": "4481f9b17ab46c164cdcac9a44027a1477eee164f3121bbd87cc249217fb45d2",
  "time": 1236917197,
  "mediantime": 1236912561,
  "nonce": 3032070664,
  "bits": "1d00ffff",
  "difficulty": 1,
  "chainwork": "00000000000000000000000000000000000000000000000000001c5e1c5e1c5e",
  "nTx": 1,
  "previousblockhash": "00000000d206578bb06e7de703603d9fe23e4480e68aea9d4f26fc0dcc555b32",
  "nextblockhash": "00000000ad836134859dc96f02b1c60f4513416af6b0dc8c8d9f472addf5572c",
  "strippedsize": 216,
  "size": 216,
  "weight": 864,
  "tx": [
    {
      "txid": "4481f9b17ab46c164cdcac9a44027a1477eee164f3121bbd87cc249217fb45d2",
      "hash": "4481f9b17ab46c164cdcac9a44027a1477eee164f3121bbd87cc249217fb45d2",
      "version": 1,
      "size": 135,
      "vsize": 135,
      "weight": 540,
      "locktime": 0,
      "vin": [
        {
          "coinbase": "04ffff001d02af06",
          "sequence": 4294967295
        }
      ],
      "vout": [
        {
          "value": 50.0,
          "n": 0,
          "scriptPubKey": {
            "asm": "044e1ffb4fafbe05bf25c549f7e2154139145bb41c484f576616d84549976a6fa10c9a41a31d720ed9f5e97c7504e0b143db6e0b518a0da467b618ff1e5b416471 OP_CHECKSIG",
            "desc": "pk(044e1ffb4fafbe05bf25c549f7e2154139145bb41c484f576616d84549976a6fa10c9a41a31d720ed9f5e97c7504e0b143db6e0b518a0da467b618ff1e5b416471)#ma0xpg5s",
            "hex": "41044e1ffb4fafbe05bf25c549f7e2154139145bb41c484f576616d84549976a6fa10c9a41a31d720ed9f5e97c7504e0b143db6e0b518a0da467b618ff1e5b416471ac",
            "type": "pubkey"
          }
        }
      ],
      "hex": "01000000010000000000000000000000000000000000000000000000000000000000000000ffffffff0804ffff001d02af06ffffffff0100f2052a010000004341044e1ffb4fafbe05bf25c549f7e2154139145bb41c484f576616d84549976a6fa10c9a41a31d720ed9f5e97c7504e0b143db6e0b518a0da467b618ff1e5b416471ac00000000"
    }
  ]
}