{
  "hash": "00000000c8ef57c5b6e2186198e6a94bec3b6cd3d3b77b380611ef8c665f0429",
  "confirmations": 50234,
  "height": 2864,
  "version": 1,
  "versionHex": "00000001",
  "merkleroot": "89c25afc08862ba49baa4564339c3f653b2e14533baea9f83bac72b1f3d8422a",
  "time": 1233667989,
  "mediantime": 1233663360,
  "nonce": 2188119330,
  "bits": "1d00ffff",
  "difficulty": 1,
  "chainwork": "00000000000000000000000000000000000000000000000000000b310b310b31",
  "nTx": 1,
  "previousblockhash": "000000007c9a0b63a06defb999a89e020ec34c3b6374f042fdf6b3c3e51d13a0",
  "nextblockhash": "000000003224cd84d58e47966554a3799799cf2b46ff22e63ab1c106ee4c6e85",
  "strippedsize": 216,
  "size": 216,
  "weight": 864,
  "tx": [
    {
      "txid": "89c25afc08862ba49baa4564339c3f653b2e14533baea9f83bac72b1f3d8422a",
      "hash": "89c25afc08862ba49baa4564339c3f653b2e14533baea9f83bac72b1f3d8422a",
      "version": 1,
      "size": 135,
      "vsize": 135,
      "weight": 540,
      "locktime": 0,
      "vin": [
        {
          "coinbase": "04ffff001d02f806",
          "sequence": 4294967295
        }
      ],
      "vout": [
        {
          "value": 50.0,
          "n": 0,
          "scriptPubKey": {
            "asm": "04fea0c53c866eec0aec4bbfea10fb6163416b8973dad7ad15d1a376061b65af8ceacfc1d63f5f2bb2e9841bbb0b7629a11276fac5c87aba67ea45f7f536551d74 OP_CHECKSIG",
            "desc": "pk(04fea0c53c866eec0aec4bbfea10fb6163416b8973dad7ad15d1a376061b65af8ceacfc1d63f5f2bb2e9841bbb0b7629a11276fac5c87aba67ea45f7f536551d74)#l5cf5x83",
            "hex": "4104fea0c53c866eec0aec4bbfea10fb6163416b8973dad7ad15d1a376061b65af8ceacfc1d63f5f2bb2e9841bbb0b7629a11276fac5c87aba67ea45f7f536551d74ac",
            "type": "pubkey"
          }
        }
      ],
      "hex": "01000000010000000000000000000000000000000000000000000000000000000000000000ffffffff0804ffff001d02f806ffffffff0100f2052a01000000434104fea0c53c866eec0aec4bbfea10fb6163416b8973dad7ad15d1a376061b65af8ceacfc1d63f5f2bb2e9841bbb0b7629a11276fac5c87aba67ea45f7f536551d74ac00000000"
    }
  ]
}