{
  "hash": "000000007e2e3408008ede8c63dd2ec864403af22561c82332053dab811c8326",
  "confirmations": 45617,
  "height": 7481,
  "version": 1,
  "versionHex": "00000001",
  "merkleroot": "646478dab60066320679e3380dba63f80e34a0e26a30e5087654a6353d044e4c",
  "time": 1237082600,
  "mediantime": 1237080284,
  "nonce": 3838877752,
  "bits": "1d00ffff",
  "difficulty": 1,
  "chainwork": "00000000000000000000000000000000000000000000000000001d3a1d3a1d3a",
  "nTx": 1,
  "previousblockhash": "0000000023f3f4e0f83ca6f225a276de3d009a8a6c93a8a281b13a2b78e60843",
  "nextblockhash": "00000000e2ee3a4cfb71d44b57407a78199f51ce2f6124d06549e291b032ef8e",
  "strippedsize": 216,
  "size": 216,
  "weight": 864,
  "tx": [
    {
      "txid": "646478dab60066320679e3380dba63f80e34a0e26a30e5087654a6353d044e4c",
      "hash": "646478dab60066320679e3380dba63f80e34a0e26a30e5087654a6353d044e4c",
      "version": 1,
      "size": 135,
      "vsize": 135,
      "weight": 540,
      "locktime": 0,
      "vin": [
        {
          "coinbase": "04ffff001d02a200",
          "sequence": 4294967295
        }
      ],
      "vout": [
        {
          "value": 50.0,
          "n": 0,
          "scriptPubKey": {
            "asm": "04f5e902946b10a04278d2d82e1af266e0e3306c106b080465712f8df1eb2d08f33ade2c8bcafa75287189b3b89cf2993671b95e0ec0b80e85b3189025e3bf9526 OP_CHECKSIG",
            "desc": "pk(04f5e902946b10a04278d2d82e1af266e0e3306c106b080465712f8df1eb2d08f33ade2c8bcafa75287189b3b89cf2993671b95e0ec0b80e85b3189025e3bf9526)#ypyqfnmy",
            "hex": "4104f5e902946b10a04278d2d82e1af266e0e3306c106b080465712f8df1eb2d08f33ade2c8bcafa75287189b3b89cf2993671b95e0ec0b80e85b3189025e3bf9526ac",
            "type": "pubkey"
          }
        }
      ],
      "hex": "01000000010000000000000000000000000000000000000000000000000000000000000000ffffffff0804ffff001d02a200ffffffff0100f2052a01000000434104f5e902946b10a04278d2d82e1af266e0e3306c106b080465712f8df1eb2d08f33ade2c8bcafa75287189b3b89cf2993671b95e0ec0b80e85b3189025e3bf9526ac00000000"
    }
  ]
}