{
  "hash": "0000000069fb687cd8fe5bc8b8b2be43a3764edd0785b1933974ee92fa3467ad",
  "confirmations": 48813,
  "height": 4285,
  "version": 1,
  "versionHex": "00000001",
  "merkleroot": "1d47b6a87bd64da25bcaac4d7a2970f1c2d7c957a866f042e814b2dbc86f256d",
  "time": 1234630413,
  "mediantime": 1234628314,
  "nonce": 1306003734,
  "bits": "1d00ffff",
  "difficulty": 1,
  "chainwork": "000000000000000000000000000000000000000000000000000010be10be10be",
  "nTx": 1,
  "previousblockhash": "000000007e1973d58cb411a39f2910644aee47c63c8755a1fb726d961fcfcd6d",
  "nextblockhash": "00000000e7ab8c5e8f3210c409c1c099c0c8a44a936b7e366bf4b6748e5e746a",
  "strippedsize": 216,
  "size": 216,
  "weight": 864,
  "tx": [
    {
      "txid": "1d47b6a87bd64da25bcaac4d7a2970f1c2d7c957a866f042e814b2dbc86f256d",
      "hash": "1d47b6a87bd64da25bcaac4d7a2970f1c2d7c957a866f042e814b2dbc86f256d",
      "version": 1,
      "size": 135,
      "vsize": 135,
      "weight": 540,
      "locktime": 0,
      "vin": [
        {
          "coinbase": "04ffff001d027c08",
          "sequence": 4294967295
        }
      ],
      "vout": [
        {
          "value": 50.0,
          "n": 0,
          "scriptPubKey": {
            "asm": "04e164b8f9133468d57009a918a481bc83f1869030fc9b6e2717d39052844093d47b6b06e3e616cc59c6e1230a1d3e5926b831c264a4f85dc1f8d631c8bcb2a9d7 OP_CHECKSIG",
            "desc": "pk(04e164b8f9133468d57009a918a481bc83f1869030fc9b6e2717d39052844093d47b6b06e3e616cc59c6e1230a1d3e5926b831c264a4f85dc1f8d631c8bcb2a9d7)#s4wwrhjk",
            "hex": "4104e164b8f9133468d57009a918a481bc83f1869030fc9b6e2717d39052844093d47b6b06e3e616cc59c6e1230a1d3e5926b831c264a4f85dc1f8d631c8bcb2a9d7ac",
            "type": "pubkey"
          }
        }
      ],
      "hex": "01000000010000000000000000000000000000000000000000000000000000000000000000ffffffff0804ffff001d027c08ffffffff0100f2052a01000000434104e164b8f9133468d57009a918a481bc83f1869030fc9b6e2717d39052844093d47b6b06e3e616cc59c6e1230a1d3e5926b831c264a4f85dc1f8d631c8bcb2a9d7ac00000000"
    }
  ]
}