{
  "hash": "000000005265d22a7f5676ec1fd450cd10085497482439630530abec39c5d2d6",
  "confirmations": 48052,
  "height": 5046,
  "version": 1,
  "versionHex": "00000001",
  "merkleroot": "eed72db36b5e0986915f4d5eeee2c02ae0fb9ee838be044cb16829a28b236a56",
  "time": 1235172565,
  "mediantime": 1235167728,
  "nonce": 162425352,
  "bits": "1d00ffff",
  "difficulty": 1,
  "chainwork": "000000000000000000000000000000000000000000000000000013b713b713b7",
  "nTx": 1,
  "previousblockhash": "0000000052005eff5d4cd698f9f898ad1908395bbb9221f053ea24a4431eb284",
  "nextblockhash": "00000000bb36847fdbe8d6afe7e91db9f756352585e19ca2a916228ded217e89",
  "strippedsize": 216,
  "size": 216,
  "weight": 864,
  "tx": [
    {
      "txid": "eed72db36b5e0986915f4d5eeee2c02ae0fb9ee838be044cb16829a28b236a56",
      "hash": "eed72db36b5e0986915f4d5eeee2c02ae0fb9ee838be044cb16829a28b236a56",
      "version": 1,
      "size": 135,
      "vsize": 135,
      "weight": 540,
      "locktime": 0,
      "vin": [
        {
          "coinbase": "04ffff001d02cb07",
          "sequence": 4294967295
        }
      ],
      "vout": [
        {
          "value": 50.0,
          "n": 0,
          "scriptPubKey": {
            "asm": "04b119a0a6e28b0021de19f12b3d9559cdcd30aa8733b21f877475256d553f1f36b38b22e20274e0d4d0778a8d1137c1bc5077e299f117c61cf0de256bfed62fb8 OP_CHECKSIG",
            "desc": "pk(04b119a0a6e28b0021de19f12b3d9559cdcd30aa8733b21f877475256d553f1f36b38b22e20274e0d4d0778a8d1137c1bc5077e299f117c61cf0de256bfed62fb8)#u7vjjmvu",
            "hex": "4104b119a0a6e28b0021de19f12b3d9559cdcd30aa8733b21f877475256d553f1f36b38b22e20274e0d4d0778a8d1137c1bc5077e299f117c61cf0de256bfed62fb8ac",
            "type": "pubkey"
          }
        }
      ],
      "hex": "01000000010000000000000000000000000000000000000000000000000000000000000000ffffffff0804ffff001d02cb07ffffffff0100f2052a01000000434104b119a0a6e28b0021de19f12b3d9559cdcd30aa8733b21f877475256d553f1f36b38b22e20274e0d4d0778a8d1137c1bc5077e299f117c61cf0de256bfed62fb8ac00000000"
    }
  ]
}