{
  "hash": "00000000c967ebc6c9350840f9ade3c62a36980dc45e643338e578a97ae6a1c5",
  "confirmations": 46078,
  "height": 7020,
  "version": 1,
  "versionHex": "00000001",
  "merkleroot": "c6a82e2d493bc0c46041e7c38a77cf88d48c84fad974f6d77b9e90b65448e08d",
  "time": 1236734019,
  "mediantime": 1236729825,
  "nonce": 2339045156,
  "bits": "1d00ffff",
  "difficulty": 1,
  "chainwork": "00000000000000000000000000000000000000000000000000001b6d1b6d1b6d",
  "nTx": 1,
  "previousblockhash": "0000000014cada73a7c2576a7a394c885b2f9f2d2a2b86bccfb431141d1f32cc",
  "nextblockhash": "00000000e9c08bc4a3f0c0a5c7bee4228cef02ca22f9c3580b9246f8a75b20cd",
  "strippedsize": 216,
  "size": 216,
  "weight": 864,
  "tx": [
    {
      "txid": "c6a82e2d493bc0c46041e7c38a77cf88d48c84fad974f6d77b9e90b65448e08d",
      "hash": "c6a82e2d493bc0c46041e7c38a77cf88d48c84fad974f6d77b9e90b65448e08d",
      "version": 1,
      "size": 135,
      "vsize": 135,
      "weight": 540,
      "locktime": 0,
      "vin": [
        {
          "coinbase": "04ffff001d02c402",
          "sequence": 4294967295
        }
      ],
      "vout": [
        {
          "value": 50.0,
          "n": 0,
          "scriptPubKey": {
            "asm": "043ad53de4c1264376c96bb6f292f9295a2a0b23dc7a31a27d069a53500b22174dac7913badc6647ec6964ca740040ad3772b68f76db549ef1559576a4bdb45ce9 OP_CHECKSIG",
            "desc": "pk(043ad53de4c1264376c96bb6f292f9295a2a0b23dc7a31a27d069a53500b22174dac7913badc6647ec6964ca740040ad3772b68f76db549ef1559576a4bdb45ce9)#xj7qkfet",
            "hex": "41043ad53de4c1264376c96bb6f292f9295a2a0b23dc7a31a27d069a53500b22174dac7913badc6647ec6964ca740040ad3772b68f76db549ef1559576a4bdb45ce9ac",
            "type": "pubkey"
          }
        }
      ],
      "hex": "01000000010000000000000000000000000000000000000000000000000000000000000000ffffffff0804ffff001d02c402ffffffff0100f2052a010000004341043ad53de4c1264376c96bb6f292f9295a2a0b23dc7a31a27d069a53500b22174dac7913badc6647ec6964ca740040ad3772b68f76db549ef1559576a4bdb45ce9ac00000000"
    }
  ]
}