{
  "hash": "00000000416fd704533ad8030057b3ab45ce53e859d90ad0e407ad736c718673",
  "confirmations": 49364,
  "height": 3734,
  "version": 1,
  "versionHex": "00000001",
  "merkleroot": "3e27de5857a5d2d8a470fc40f6edf8492d74a05009506bce96d56bbf3f9fde0c",
  "time": 1234257619,
  "mediantime": 1234253602,
  "nonce": 2827825722,
  "bits": "1d00ffff",
  "difficulty": 1,
  "chainwork": "00000000000000000000000000000000000000000000000000000e970e970e97",
  "nTx": 1,
  "previousblockhash": "00000000a8233dd7501c91d0474385145686628e1024d1fd4593253ee1428f9a",
  "nextblockhash": "00000000505b340c3278544c04264aff94ea29757b59067f824f83cefba68a59",
  "strippedsize": 215,
  "size": 215,
  "weight": 860,
  "tx": [
    {
      "txid": "3e27de5857a5d2d8a470fc40f6edf8492d74a05009506bce96d56bbf3f9fde0c",
      "hash": "3e27de5857a5d2d8a470fc40f6edf8492d74a05009506bce96d56bbf3f9fde0c",
      "version": 1,
      "size": 134,
      "vsize": 134,
      "weight": 536,
      "locktime": 0,
      "vin": [
        {
          "coinbase": "04ffff001d0155",
          "sequence": 4294967295
        }
      ],
      "vout": [
        {
          "value": 50.0,
          "n": 0,
          "scriptPubKey": {
            "asm": "04b1153a67d4830e986f434d9149bb5ccd03e027de96b00993afb0e9e83b32d2c734ce886711cac6d208515f76a90fa6483d837fe5e5fbe1844b93e4cdd96d4c0b OP_CHECKSIG",
            "desc": "pk(04b1153a67d4830e986f434d9149bb5ccd03e027de96b00993afb0e9e83b32d2c734ce886711cac6d208515f76a90fa6483d837fe5e5fbe1844b93e4cdd96d4c0b)#9y0y0um3",
            "hex": "4104b1153a67d4830e986f434d9149bb5ccd03e027de96b00993afb0e9e83b32d2c734ce886711cac6d208515f76a90fa6483d837fe5e5fbe1844b93e4cdd96d4c0bac",
            "type": "pubkey"
          }
        }
      ],
      "hex": "01000000010000000000000000000000000000000000000000000000000000000000000000ffffffff0704ffff001d0155ffffffff0100f2052a01000000434104b1153a67d4830e986f434d9149bb5ccd03e027de96b00993afb0e9e83b32d2c734ce886711cac6d208515f76a90fa6483d837fe5e5fbe1844b93e4cdd96d4c0bac00000000"
    }
  ]
}