{
  "hash": "00000000fb268655c88bc3ab236d3a96f0df834217e1cf425942f0dc193706f4",
  "confirmations": 43729,
  "height": 9369,
  "version": 1,
  "versionHex": "00000001",
  "merkleroot": "cf58d16e7f0ebd8e35fe089b7a6c2e5a3888d590dd8c99fdf288a0ddd4352a18",
  "time": 1238524762,
  "mediantime": 1238521539,
  "nonce": 3178796833,
  "bits": "1d00ffff",
  "difficulty": 1,
  "chainwork": "0000000000000000000000000000000000000000000000000000249a249a249a",
  "nTx": 1,
  "previousblockhash": "00000000835a4f694206958ee0ea6195675d37c6a8c0daefebbc1b4ebcdf5be5",
  "nextblockhash": "0000000056177c1e883bb57705e22d3c8c8826b6301232578593f41225b104ce",
  "strippedsize": 216,
  "size": 216,
  "weight": 864,
  "tx": [
    {
      "txid": "cf58d16e7f0ebd8e35fe089b7a6c2e5a3888d590dd8c99fdf288a0ddd4352a18",
      "hash": "cf58d16e7f0ebd8e35fe089b7a6c2e5a3888d590dd8c99fdf288a0ddd4352a18",
      "version": 1,
      "size": 135,
      "vsize": 135,
      "weight": 540,
      "locktime": 0,
      "vin": [
        {
          "coinbase": "04ffff001d02e202",
          "sequence": 4294967295
        }
      ],
      "vout": [
        {
          "value": 50.0,
          "n": 0,
          "scriptPubKey": {
            "asm": "04f3a6031303654f1439c273bc135710c21e8d6cf521309a3140cb473bd98e0600308e7a70909c141e398f8cd99c158c5f633223b428dc3ee4592851445514a792 OP_CHECKSIG",
            "desc": "pk(04f3a6031303654f1439c273bc135710c21e8d6cf521309a3140cb473bd98e0600308e7a70909c141e398f8cd99c158c5f633223b428dc3ee4592851445514a792)#55tjjthm",
            "hex": "4104f3a6031303654f1439c273bc135710c21e8d6cf521309a3140cb473bd98e0600308e7a70909c141e398f8cd99c158c5f633223b428dc3ee4592851445514a792ac",
            "type": "pubkey"
          }
        }
      ],
      "hex": "01000000010000000000000000000000000000000000000000000000000000000000000000ffffffff0804ffff001d02e202ffffffff0100f2052a01000000434104f3a6031303654f1439c273bc135710c21e8d6cf521309a3140cb473bd98e0600308e7a70909c141e398f8cd99c158c5f633223b428dc3ee4592851445514a792ac00000000"
    }
  ]
}