{
  "hash": "0000000094fb40384e41a2b6b47b3dfbb6c60bbb60e3a5704ad01392830acd74",
  "confirmations": 45066,
  "height": 8032,
  "version": 1,
  "versionHex": "00000001",
  "merkleroot": "25ecdd274909065f60a70a83aafe9c2e1ac8966102c02478408c98784cca436d",
  "time": 1237486650,
  "mediantime": 1237483362,
  "nonce": 835360550,
  "bits": "1d00ffff",
  "difficulty": 1,
  "chainwork": "00000000000000000000000000000000000000000000000000001f611f611f61",
  "nTx": 1,
  "previousblockhash": "00000000c9688e6f53f7514179cab0c6483453a7218e9737a0f6340abc3b1a9b",
  "nextblockhash": "000000004cdd8ee0ee242a700b98f30e37e1d4ca9aba4ef257f514468f4d08af",
  "strippedsize": 216,
  "size": 216,
  "weight": 864,
  "tx": [
    {
      "txid": "25ecdd274909065f60a70a83aafe9c2e1ac8966102c02478408c98784cca436d",
      "hash": "25ecdd274909065f60a70a83aafe9c2e1ac8966102c02478408c98784cca436d",
      "version": 1,
      "size": 135,
      "vsize": 135,
      "weight": 540,
      "locktime": 0,
      "vin": [
        {
          "coinbase": "04ffff001d02fc09",
          "sequence": 4294967295
        }
      ],
      "vout": [
        {
          "value": 50.0,
          "n": 0,
          "scriptPubKey": {
            "asm": "0428faba61836468916f8208fc58b56108372e2fd89f943644cdfd5dd67c9b87af06d324e9e3eb01720c3f8932c324ab8e29a8214cd4df4756e2b011d674a85fcb OP_CHECKSIG",
            "desc": "pk(0428faba61836468916f8208fc58b56108372e2fd89f943644cdfd5dd67c9b87af06d324e9e3eb01720c3f8932c324ab8e29a8214cd4df4756e2b011d674a85fcb)#ffmw52el",
            "hex": "410428faba61836468916f8208fc58b56108372e2fd89f943644cdfd5dd67c9b87af06d324e9e3eb01720c3f8932c324ab8e29a8214cd4df4756e2b011d674a85fcbac",
            "type": "pubkey"
          }
        }
      ],
      "hex": "01000000010000000000000000000000000000000000000000000000000000000000000000ffffffff0804ffff001d02fc09ffffffff0100f2052a0100000043410428faba61836468916f8208fc58b56108372e2fd89f943644cdfd5dd67c9b87af06d324e9e3eb01720c3f8932c324ab8e29a8214cd4df4756e2b011d674a85fcbac00000000"
    }
  ]
}