{
  "hash": "000000000b206d7d6e00babbc7faed71377c382d681d3fbb32cdd58d33257937",
  "confirmations": 50351,
  "height": 2747,
  "version": 1,
  "versionHex": "00000001",
  "merkleroot": "2ff9908e831eea6a200b0f6d68fbe551fbba6656313e90cefec4a5ff6fb40b52",
  "time": 1233595159,
  "mediantime": 1233590708,
  "nonce": 4110264361,
  "bits": "1d00ffff",
  "difficulty": 1,
  "chainwork": "00000000000000000000000000000000000000000000000000000abc0abc0abc",
  "nTx": 1,
  "previousblockhash": "00000000e2c4a4e9a491e5e82bc4284f9a28db4abe1c8109f952b9e25747dfb4",
  "nextblockhash": "0000000036a77609c60d9c4e1f039eed4dd26fcb8aea5238f1cc8339aa1b5cd3",
  "strippedsize": 216,
  "size": 216,
  "weight": 864,
  "tx": [
    {
      "txid": "2ff9908e831eea6a200b0f6d68fbe551fbba6656313e90cefec4a5ff6fb40b52",
      "hash": "2ff9908e831eea6a200b0f6d68fbe551fbba6656313e90cefec4a5ff6fb40b52",
      "version": 1,
      "size": 135,
      "vsize": 135,
      "weight": 540,
      "locktime": 0,
      "vin": [
        {
          "coinbase": "04ffff001d026b05",
          "sequence": 4294967295
        }
      ],
      "vout": [
        {
          "value": 50.0,
          "n": 0,
          "scriptPubKey": {
            "asm": "040ed75dd86f151b4447703055427f39f264dc73767d5b77c9c5ab3aff0190a839810213152371238f32eb0f581f5e5eff0290eaa78a0df58b66b8a7f35629986f OP_CHECKSIG",
            "desc": "pk(040ed75dd86f151b4447703055427f39f264dc73767d5b77c9c5ab3aff0190a839810213152371238f32eb0f581f5e5eff0290eaa78a0df58b66b8a7f35629986f)#zygl9x3l",
            "hex": "41040ed75dd86f151b4447703055427f39f264dc73767d5b77c9c5ab3aff0190a839810213152371238f32eb0f581f5e5eff0290eaa78a0df58b66b8a7f35629986fac",
            "type": "pubkey"
          }
        }
      ],
      "hex": "01000000010000000000000000000000000000000000000000000000000000000000000000ffffffff0804ffff001d026b05ffffffff0100f2052a010000004341040ed75dd86f151b4447703055427f39f264dc73767d5b77c9c5ab3aff0190a839810213152371238f32eb0f581f5e5eff0290eaa78a0df58b66b8a7f35629986fac00000000"
    }
  ]
}