{
  "hash": "000000002ca17a39e2e284d22edca6bd7c0ac5dddea66a11bdcb5518c6b663d2",
  "confirmations": 50872,
  "height": 2226,
  "version": 1,
  "versionHex": "00000001",
  "merkleroot": "f2ad671a56fe1f433f51bbcde3ddc0cc747cbe47b6932913d340c354ac2fd62e",
  "time": 1233231341,
  "mediantime": 1233228873,
  "nonce": 1646117916,
  "bits": "1d00ffff",
  "difficulty": 1,
  "chainwork": "000000000000000000000000000000000000000000000000000008b308b308b3",
  "nTx": 1,
  "previousblockhash": "00000000a0fd3885392267c114707089340faf95dd6e8cd1f31a688a1eaaf120",
  "nextblockhash": "0000000002fed247aa33b2afc84e3c0c6f25a410fafcd31d1e27b824e30a47f6",
  "strippedsize": 216,
  "size": 216,
  "weight": 864,
  "tx": [
    {
      "txid": "f2ad671a56fe1f433f51bbcde3ddc0cc747cbe47b6932913d340c354ac2fd62e",
      "hash": "f2ad671a56fe1f433f51bbcde3ddc0cc747cbe47b6932913d340c354ac2fd62e",
      "version": 1,
      "size": 135,
      "vsize": 135,
      "weight": 540,
      "locktime": 0,
      "vin": [
        {
          "coinbase": "04ffff001d02bb00",
          "sequence": 4294967295
        }
      ],
      "vout": [
        {
          "value": 50.0,
          "n": 0,
          "scriptPubKey": {
            "asm": "04e88259680fec5ea5c44b3688bcd21fbabec8816f695e73bd9afac036b473648b28e579327e94292125e2bb8ccf9b4221813baa2826565e5a495d28593d06ffcb OP_CHECKSIG",
            "desc": "pk(04e88259680fec5ea5c44b3688bcd21fbabec8816f695e73bd9afac036b473648b28e579327e94292125e2bb8ccf9b4221813baa2826565e5a495d28593d06ffcb)#zg84wk0z",
            "hex": "4104e88259680fec5ea5c44b3688bcd21fbabec8816f695e73bd9afac036b473648b28e579327e94292125e2bb8ccf9b4221813baa2826565e5a495d28593d06ffcbac",
            "type": "pubkey"
          }
        }
      ],
      "hex": "01000000010000000000000000000000000000000000000000000000000000000000000000ffffffff0804ffff001d02bb00ffffffff0100f2052a01000000434104e88259680fec5ea5c44b3688bcd21fbabec8816f695e73bd9afac036b473648b28e579327e94292125e2bb8ccf9b4221813baa2826565e5a495d28593d06ffcbac00000000"
    }
  ]
}