{
  "hash": "0000000065642847653a57223a93a8f111e07a30ef7ab6ac0bec5f0a1d3c5bdf",
  "confirmations": 45867,
  "height": 7231,
  "version": 1,
  "versionHex": "00000001",
  "merkleroot": "d9c5e8a8380bb09d43b95902b1b6f8b82c398e8b64c340b363ce6fe4887e7664",
  "time": 1236893532,
  "mediantime": 1236890383,
  "nonce": 1216959289,
  "bits": "1d00ffff",
  "difficulty": 1,
  "chainwork": "00000000000000000000000000000000000000000000000000001c401c401c40",
  "nTx": 1,
  "previousblockhash": "000000008a8b89114c0603abf59b0853e0ab5d4d8762aed2dd49b87dd9cd3355",
  "nextblockhash": "00000000fe181cddb6d521927a412a41374905fafa83f4d14b186ffda7ed2680",
  "strippedsize": 216,
  "size": 216,
  "weight": 864,
  "tx": [
    {
      "txid": "d9c5e8a8380bb09d43b95902b1b6f8b82c398e8b64c340b363ce6fe4887e7664",
      "hash": "d9c5e8a8380bb09d43b95902b1b6f8b82c398e8b64c340b363ce6fe4887e7664",
      "version": 1,
      "size": 135,
      "vsize": 135,
      "weight": 540,
      "locktime": 0,
      "vin": [
        {
          "coinbase": "04ffff001d022b06",
          "sequence": 4294967295
        }
      ],
      "vout": [
        {
          "value": 50.0,
          "n": 0,
          "scriptPubKey": {
            "asm": "0475478a4a25ce5c6b97f6d2dc6798b54308461e8b84ab067bf4253fff44576ada54ae9bca95a279ff779d4c87486fc144235f0ab855b6d335037630ac3c7ec782 OP_CHECKSIG",
            "desc": "pk(0475478a4a25ce5c6b97f6d2dc6798b54308461e8b84ab067bf4253fff44576ada54ae9bca95a279ff779d4c87486fc144235f0ab855b6d335037630ac3c7ec782)#hflaxl2v",
            "hex": "410475478a4a25ce5c6b97f6d2dc6798b54308461e8b84ab067bf4253fff44576ada54ae9bca95a279ff779d4c87486fc144235f0ab855b6d335037630ac3c7ec782ac",
            "type": "pubkey"
          }
        }
      ],
      "hex": "01000000010000000000000000000000000000000000000000000000000000000000000000ffffffff0804ffff001d022b06ffffffff0100f2052a0100000043410475478a4a25ce5c6b97f6d2dc6798b54308461e8b84ab067bf4253fff44576ada54ae9bca95a279ff779d4c87486fc144235f0ab855b6d335037630ac3c7ec782ac00000000"
    }
  ]
}