{
  "hash": "00000000f00d59bf8908172e96fdd552eccef0c8f61014fcf00a3806b944d74c",
  "confirmations": 51865,
  "height": 1233,
  "version": 1,
  "versionHex": "00000001",
  "merkleroot": "9231e1da1eaa6ee3d20f361510095ba924acb6123d12bfb382256b01fc4ede78",
  "time": 1232526312,
  "mediantime": 1232521905,
  "nonce": 157029190,
  "bits": "1d00ffff",
  "difficulty": 1,
  "chainwork": "000000000000000000000000000000000000000000000000000004d204d204d2",
  "nTx": 1,
  "previousblockhash": "00000000b85fcd8488a7f12d71d94b07d5492494e009c3cf1e4f02bd71ce8569",
  "nextblockhash": "000000004257f209a21040d1baeb99c1ea852271238ef67a124a2c5349e1d870",
  "strippedsize": 216,
  "size": 216,
  "weight": 864,
  "tx": [
    {
      "txid": "9231e1da1eaa6ee3d20f361510095ba924acb6123d12bfb382256b01fc4ede78",
      "hash": "9231e1da1eaa6ee3d20f361510095ba924acb6123d12bfb382256b01fc4ede78",
      "version": 1,
      "size": 135,
      "vsize": 135,
      "weight": 540,
      "locktime": 0,
      "vin": [
        {
          "coinbase": "04ffff001d024902",
          "sequence": 4294967295
        }
      ],
      "vout": [
        {
          "value": 50.0,
          "n": 0,
          "scriptPubKey": {
            "asm": "04e63c8430f4fb14909ac2d9e8b3e8ad0d151df9a1d4e8369d65fbbbbe3a7a7d15f452799c8859a67c79848c38d026e1d1e3e3d6536db1514a19461d3dc1236755 OP_CHECKSIG",
            "desc": "pk(04e63c8430f4fb14909ac2d9e8b3e8ad0d151df9a1d4e8369d65fbbbbe3a7a7d15f452799c8859a67c79848c38d026e1d1e3e3d6536db1514a19461d3dc1236755)#vamny44w",
            "hex": "4104e63c8430f4fb14909ac2d9e8b3e8ad0d151df9a1d4e8369d65fbbbbe3a7a7d15f452799c8859a67c79848c38d026e1d1e3e3d6536db1514a19461d3dc1236755ac",
            "type": "pubkey"
          }
        }
      ],
      "hex": "01000000010000000000000000000000000000000000000000000000000000000000000000ffffffff0804ffff001d024902ffffffff0100f2052a01000000434104e63c8430f4fb14909ac2d9e8b3e8ad0d151df9a1d4e8369d65fbbbbe3a7a7d15f452799c8859a67c79848c38d026e1d1e3e3d6536db1514a19461d3dc1236755ac00000000"
    }
  ]
}