{
  "hash": "00000000e9c08bc4a3f0c0a5c7bee4228cef02ca22f9c3580b9246f8a75b20cd",
  "confirmations": 46077,
  "height": 7021,
  "version": 1,
  "versionHex": "00000001",
  "merkleroot": "162714f02d262b25d64ad2b12880a1fd2f9b4661210500a11fcf65505949448d",
  "time": 1236734448,
  "mediantime": 1236730806,
  "nonce": 3999426861,
  "bits": "1d00ffff",
  "difficulty": 1,
  "chainwork": "00000000000000000000000000000000000000000000000000001b6e1b6e1b6e",
  "nTx": 1,
  "previousblockhash": "00000000c967ebc6c9350840f9ade3c62a36980dc45e643338e578a97ae6a1c5",
  "nextblockhash": "00000000342b46b1e6065f47026233fce49956695019d8d3425a6f13ec5df957",
  "strippedsize": 216,
  "size": 216,
  "weight": 864,
  "tx": [
    {
      "txid": "162714f02d262b25d64ad2b12880a1fd2f9b4661210500a11fcf65505949448d",
      "hash": "162714f02d262b25d64ad2b12880a1fd2f9b4661210500a11fcf65505949448d",
      "version": 1,
      "size": 135,
      "vsize": 135,
      "weight": 540,
      "locktime": 0,
      "vin": [
        {
          "coinbase": "04ffff001d02c602",
          "sequence": 4294967295
        }
      ],
      "vout": [
        {
          "value": 50.0,
          "n": 0,
          "scriptPubKey": {
            "asm": "04cd2ea33089a69203e3d13bd6054800146c012a255d4145038292024cf7bd8c06ed8518ec631fa1b90c432c923bcfb34a0e2203161af4145b44a20425f2c7bd56 OP_CHECKSIG",
            "desc": "pk(04cd2ea33089a69203e3d13bd6054800146c012a255d4145038292024cf7bd8c06ed8518ec631fa1b90c432c923bcfb34a0e2203161af4145b44a20425f2c7bd56)#xjpssug5",
            "hex": "4104cd2ea33089a69203e3d13bd6054800146c012a255d4145038292024cf7bd8c06ed8518ec631fa1b90c432c923bcfb34a0e2203161af4145b44a20425f2c7bd56ac",
            "type": "pubkey"
          }
        }
      ],
      "hex": "01000000010000000000000000000000000000000000000000000000000000000000000000ffffffff0804ffff001d02c602ffffffff0100f2052a01000000434104cd2ea33089a69203e3d13bd6054800146c012a255d4145038292024cf7bd8c06ed8518ec631fa1b90c432c923bcfb34a0e2203161af4145b44a20425f2c7bd56ac00000000"
    }
  ]
}