{
  "hash": "00000000d128995c0a95a56c5a045331f26a7b3d77c5f2705558564c970848cf",
  "confirmations": 50866,
  "height": 2232,
  "version": 1,
  "versionHex": "00000001",
  "merkleroot": "da83c015c5eb2d0b24bb99f13f246e6d8db99f6d41f0a19662c2026a1f30c114",
  "time": 1233235713,
  "mediantime": 1233232637,
  "nonce": 3807148549,
  "bits": "1d00ffff",
  "difficulty": 1,
  "chainwork": "000000000000000000000000000000000000000000000000000008b908b908b9",
  "nTx": 1,
  "previousblockhash": "000000006f580cb6ad9ae4f8087512620a575862772c5690e4e2e4587cc7d0b8",
  "nextblockhash": "00000000380bd2cb07ed5b938a7ba8bbedb3024ac90b146f730fd0540113cf96",
  "strippedsize": 216,
  "size": 216,
  "weight": 864,
  "tx": [
    {
      "txid": "da83c015c5eb2d0b24bb99f13f246e6d8db99f6d41f0a19662c2026a1f30c114",
      "hash": "da83c015c5eb2d0b24bb99f13f246e6d8db99f6d41f0a19662c2026a1f30c114",
      "version": 1,
      "size": 135,
      "vsize": 135,
      "weight": 540,
      "locktime": 0,
      "vin": [
        {
          "coinbase": "04ffff001d02cb00",
          "sequence": 4294967295
        }
      ],
      "vout": [
        {
          "value": 50.0,
          "n": 0,
          "scriptPubKey": {
            "asm": "0499991a388bab6740b7707d1f501de4838df5703fca7eb4abad1d681e1e21522c390bd7ef49363b0fe975c7e3af30b395066dc0436d09371aa8d611c43b366a4b OP_CHECKSIG",
            "desc": "pk(0499991a388bab6740b7707d1f501de4838df5703fca7eb4abad1d681e1e21522c390bd7ef49363b0fe975c7e3af30b395066dc0436d09371aa8d611c43b366a4b)#6zftl6c4",
            "hex": "410499991a388bab6740b7707d1f501de4838df5703fca7eb4abad1d681e1e21522c390bd7ef49363b0fe975c7e3af30b395066dc0436d09371aa8d611c43b366a4bac",
            "type": "pubkey"
          }
        }
      ],
      "hex": "01000000010000000000000000000000000000000000000000000000000000000000000000ffffffff0804ffff001d02cb00ffffffff0100f2052a0100000043410499991a388bab6740b7707d1f501de4838df5703fca7eb4abad1d681e1e21522c390bd7ef49363b0fe975c7e3af30b395066dc0436d09371aa8d611c43b366a4bac00000000"
    }
  ]
}