{
  "hash": "00000000a7c6917ba27d9ca0582f84df7e7bf3c829a8e56f5f0a91b81f8b9541",
  "confirmations": 45835,
  "height": 7263,
  "version": 1,
  "versionHex": "00000001",
  "merkleroot": "24fc78cef0ce8059663b87a3f208b2e18b5ad22d17d5da33ceeb32341079d286",
  "time": 1236919831,
  "mediantime": 1236915211,
  "nonce": 333978608,
  "bits": "1d00ffff",
  "difficulty": 1,
  "chainwork": "00000000000000000000000000000000000000000000000000001c601c601c60",
  "nTx": 1,
  "previousblockhash": "00000000ad836134859dc96f02b1c60f4513416af6b0dc8c8d9f472addf5572c",
  "nextblockhash": "0000000014e42377cc14aa8e94fce7fc56b6a2bc283264ae129936413cb6232f",
  "strippedsize": 216,
  "size": 216,
  "weight": 864,
  "tx": [
    {
      "txid": "24fc78cef0ce8059663b87a3f208b2e18b5ad22d17d5da33ceeb32341079d286",
      "hash": "24fc78cef0ce8059663b87a3f208b2e18b5ad22d17d5da33ceeb32341079d286",
      "version": 1,
      "size": 135,
      "vsize": 135,
      "weight": 540,
      "locktime": 0,
      "vin": [
        {
          "coinbase": "04ffff001d02fc01",
          "sequence": 4294967295
        }
      ],
      "vout": [
        {
          "value": 50.0,
          "n": 0,
          "scriptPubKey": {
            "asm": "0471734ea1968f871966813171a84639d997eb7e7a963177f3347dc7c0825ef538ae352fa197a6f2a21a8773a4342953b34fcb63a54c9b09e461cfce8be708c4e9 OP_CHECKSIG",
            "desc": "pk(0471734ea1968f871966813171a84639d997eb7e7a963177f3347dc7c0825ef538ae352fa197a6f2a21a8773a4342953b34fcb63a54c9b09e461cfce8be708c4e9)#hg4y7zcj",
            "hex": "410471734ea1968f871966813171a84639d997eb7e7a963177f3347dc7c0825ef538ae352fa197a6f2a21a8773a4342953b34fcb63a54c9b09e461cfce8be708c4e9ac",
            "type": "pubkey"
          }
        }
      ],
      "hex": "01000000010000000000000000000000000000000000000000000000000000000000000000ffffffff0804ffff001d02fc01ffffffff0100f2052a0100000043410471734ea1968f871966813171a84639d997eb7e7a963177f3347dc7c0825ef538ae352fa197a6f2a21a8773a4342953b34fcb63a54c9b09e461cfce8be708c4e9ac00000000"
    }
  ]
}