{
  "hash": "000000002d0b8096631de7653c8f1bb369bd7f1e202c2dc24f26cc063c28e3b6",
  "confirmations": 45609,
  "height": 7489,
  "version": 1,
  "versionHex": "00000001",
  "merkleroot": "b68faa4408c8d867661d822dd26ac50d995c8d1e1b15683e683c1220346aa32b",
  "time": 1237088257,
  "mediantime": 1237084438,
  "nonce": 1678475016,
  "bits": "1d00ffff",
  "difficulty": 1,
  "chainwork": "00000000000000000000000000000000000000000000000000001d421d421d42",
  "nTx": 1,
  "previousblockhash": "00000000fefd67ab470f956d555a51334ebb8d24ede181691d1776ba5368bcd1",
  "nextblockhash": "00000000277a2149b545f58fa183be708b780a5d14bdd7255184fc24845daf6c",
  "strippedsize": 216,
  "size": 216,
  "weight": 864,
  "tx": [
    {
      "txid": "b68faa4408c8d867661d822dd26ac50d995c8d1e1b15683e683c1220346aa32b",
      "hash": "b68faa4408c8d867661d822dd26ac50d995c8d1e1b15683e683c1220346aa32b",
      "version": 1,
      "size": 135,
      "vsize": 135,
      "weight": 540,
      "locktime": 0,
      "vin": [
        {
          "coinbase": "04ffff001d02ba00",
          "sequence": 4294967295
        }
      ],
      "vout": [
        {
          "value": 50.0,
          "n": 0,
          "scriptPubKey": {
            "asm": "0400724ac715264b14a50844062dfa05868c7c8bc3c8fc371fbff15fe1021eee2cc89d1479cfb8af30b3bae25cb86624c8bfefc0d37918c4113e7b2179a750ed58 OP_CHECKSIG",
            "desc": "pk(0400724ac715264b14a50844062dfa05868c7c8bc3c8fc371fbff15fe1021eee2cc89d1479cfb8af30b3bae25cb86624c8bfefc0d37918c4113e7b2179a750ed58)#macupzqn",
            "hex": "410400724ac715264b14a50844062dfa05868c7c8bc3c8fc371fbff15fe1021eee2cc89d1479cfb8af30b3bae25cb86624c8bfefc0d37918c4113e7b2179a750ed58ac",
            "type": "pubkey"
          }
        }
      ],
      "hex": "01000000010000000000000000000000000000000000000000000000000000000000000000ffffffff0804ffff001d02ba00ffffffff0100f2052a0100000043410400724ac715264b14a50844062dfa05868c7c8bc3c8fc371fbff15fe1021eee2cc89d1479cfb8af30b3bae25cb86624c8bfefc0d37918c4113e7b2179a750ed58ac00000000"
    }
  ]
}