{
  "hash": "000000002a4816882c1c3c88a8f79ac8a5c760dd2f941148e80226024a56d74d",
  "confirmations": 51206,
  "height": 1892,
  "version": 1,
  "versionHex": "00000001",
  "merkleroot": "7bbb83a34e33d0768292cfef44d79559f1b4730d6bf842862007e0aa9a0fbe88",
  "time": 1232941430,
  "mediantime": 1232939796,
  "nonce": 2525413922,
  "bits": "1d00ffff",
  "difficulty": 1,
  "chainwork": "0000000000000000000000000000000000000000000000000000076507650765",
  "nTx": 1,
  "previousblockhash": "000000000b9b127df1ddd724973613e688ec8e8e8381ec893768e40c0bcb1026",
  "nextblockhash": "0000000028d4d888fb3a640c08a2aed5b26ccbdefbc78066c71d4e8b4c414fb5",
  "strippedsize": 216,
  "size": 216,
  "weight": 864,
  "tx": [
    {
      "txid": "7bbb83a34e33d0768292cfef44d79559f1b4730d6bf842862007e0aa9a0fbe88",
      "hash": "7bbb83a34e33d0768292cfef44d79559f1b4730d6bf842862007e0aa9a0fbe88",
      "version": 1,
      "size": 135,
      "vsize": 135,
      "weight": 540,
      "locktime": 0,
      "vin": [
        {
          "coinbase": "04ffff001d020c05",
          "sequence": 4294967295
        }
      ],
      "vout": [
        {
          "value": 50.0,
          "n": 0,
          "scriptPubKey": {
            "asm": "04b17d3d629560d57153f2f8dbd01e2014250c685e9d14829f674abb39f089cae783e0b3577ec1fc39ffa307d134e02d63312da6bb4ce0ed974c5495eac84aaae7 OP_CHECKSIG",
            "desc": "pk(04b17d3d629560d57153f2f8dbd01e2014250c685e9d14829f674abb39f089cae783e0b3577ec1fc39ffa307d134e02d63312da6bb4ce0ed974c5495eac84aaae7)#lye7vtmd",
            "hex": "4104b17d3d629560d57153f2f8dbd01e2014250c685e9d14829f674abb39f089cae783e0b3577ec1fc39ffa307d134e02d63312da6bb4ce0ed974c5495eac84aaae7ac",
            "type": "pubkey"
          }
        }
      ],
      "hex": "01000000010000000000000000000000000000000000000000000000000000000000000000ffffffff0804ffff001d020c05ffffffff0100f2052a01000000434104b17d3d629560d57153f2f8dbd01e2014250c685e9d14829f674abb39f089cae783e0b3577ec1fc39ffa307d134e02d63312da6bb4ce0ed974c5495eac84aaae7ac00000000"
    }
  ]
}