{
  "hash": "00000000fca73a317b1903e03b50176a96706a2a87d7873c75b9ebcf574df28c",
  "confirmations": 46300,
  "height": 6798,
  "version": 1,
  "versionHex": "00000001",
  "merkleroot": "9ba2b1ea552edd016e10102a93a9793a5a031d9ccd409f0f574757244ac142ed",
  "time": 1236556715,
  "mediantime": 1236553024,
  "nonce": 299677795,
  "bits": "1d00ffff",
  "difficulty": 1,
  "chainwork": "00000000000000000000000000000000000000000000000000001a8f1a8f1a8f",
  "nTx": 1,
  "previousblockhash": "000000008d0c0a890bbdc4cc9fa5810e5245f8d413805e799d4a323096c1e5c8",
  "nextblockhash": "000000005cf1b64cac6f75161b89c7347baaa181b5b4f29ee62594981d9b5791",
  "strippedsize": 215,
  "size": 215,
  "weight": 860,
  "tx": [
    {
      "txid": "9ba2b1ea552edd016e10102a93a9793a5a031d9ccd409f0f574757244ac142ed",
      "hash": "9ba2b1ea552edd016e10102a93a9793a5a031d9ccd409f0f574757244ac142ed",
      "version": 1,
      "size": 134,
      "vsize": 134,
      "weight": 536,
      "locktime": 0,
      "vin": [
        {
          "coinbase": "04ffff001d013b",
          "sequence": 4294967295
        }
      ],
      "vout": [
        {
          "value": 50.0,
          "n": 0,
          "scriptPubKey": {
            "asm": "04370e8f7a70f898d4dba8b88ff5c9e57f7cdf1c9f67b509d3dfb08bbb3382ded4b7289614f70f1157b568a85e05f045e9b95e9056d53179e2f1c5d6d6d574cc75 OP_CHECKSIG",
            "desc": "pk(04370e8f7a70f898d4dba8b88ff5c9e57f7cdf1c9f67b509d3dfb08bbb3382ded4b7289614f70f1157b568a85e05f045e9b95e9056d53179e2f1c5d6d6d574cc75)#gsllepvp",
            "hex": "4104370e8f7a70f898d4dba8b88ff5c9e57f7cdf1c9f67b509d3dfb08bbb3382ded4b7289614f70f1157b568a85e05f045e9b95e9056d53179e2f1c5d6d6d574cc75ac",
            "type": "pubkey"
          }
        }
      ],
      "hex": "01000000010000000000000000000000000000000000000000000000000000000000000000ffffffff0704ffff001d013bffffffff0100f2052a01000000434104370e8f7a70f898d4dba8b88ff5c9e57f7cdf1c9f67b509d3dfb08bbb3382ded4b7289614f70f1157b568a85e05f045e9b95e9056d53179e2f1c5d6d6d574cc75ac00000000"
    }
  ]
}