{
  "hash": "00000000ccec6f00abb89a5da07c8202559af96ca268f04f706693b779c197a4",
  "confirmations": 51530,
  "height": 1568,
  "version": 1,
  "versionHex": "00000001",
  "merkleroot": "a5f156506f1237b5b27bcf6eef955279787d81de8edb94ef223886ae6f104b71",
  "time": 1232797567,
  "mediantime": 1232796127,
  "nonce": 88900121,
  "bits": "1d00ffff",
  "difficulty": 1,
  "chainwork": "0000000000000000000000000000000000000000000000000000062106210621",
  "nTx": 1,
  "previousblockhash": "00000000fb34a5586423cbc3a4ba92f45f36fa44e1ec61c692ca806cd56ea164",
  "nextblockhash": "00000000903d5d9237c26b3fec535f33683f0fe9be9900340515a0de2197aac5",
  "strippedsize": 216,
  "size": 216,
  "weight": 864,
  "tx": [
    {
      "txid": "a5f156506f1237b5b27bcf6eef955279787d81de8edb94ef223886ae6f104b71",
      "hash": "a5f156506f1237b5b27bcf6eef955279787d81de8edb94ef223886ae6f104b71",
      "version": 1,
      "size": 135,
      "vsize": 135,
      "weight": 540,
      "locktime": 0,
      "vin": [
        {
          "coinbase": "04ffff001d02ad00",
          "sequence": 4294967295
        }
      ],
      "vout": [
        {
          "value": 50.0,
          "n": 0,
          "scriptPubKey": {
            "asm": "049b02e6333887e2e502b70a0701ef2d36e007df6938cec18eb4e3b9dfe6b43b7fd6cbbe0c5a2d1251fc44b63e0329ba00d2426dfb6661d4ee73f57ca36aae548c OP_CHECKSIG",
            "desc": "pk(049b02e6333887e2e502b70a0701ef2d36e007df6938cec18eb4e3b9dfe6b43b7fd6cbbe0c5a2d1251fc44b63e0329ba00d2426dfb6661d4ee73f57ca36aae548c)#7k9tshua",
            "hex": "41049b02e6333887e2e502b70a0701ef2d36e007df6938cec18eb4e3b9dfe6b43b7fd6cbbe0c5a2d1251fc44b63e0329ba00d2426dfb6661d4ee73f57ca36aae548cac",
            "type": "pubkey"
          }
        }
      ],
      "hex": "01000000010000000000000000000000000000000000000000000000000000000000000000ffffffff0804ffff001d02ad00ffffffff0100f2052a010000004341049b02e6333887e2e502b70a0701ef2d36e007df6938cec18eb4e3b9dfe6b43b7fd6cbbe0c5a2d1251fc44b63e0329ba00d2426dfb6661d4ee73f57ca36aae548cac00000000"
    }
  ]
}