{
  "hash": "00000000f77aeaddcf83c8c3d9a5aa98008db87438bd47b1a7b04898c70eb7a6",
  "confirmations": 46106,
  "height": 6992,
  "version": 1,
  "versionHex": "00000001",
  "merkleroot": "9d3daf2004dc358f3823b080ab89b94790f3c6de2aff1e45880053708d2ae351",
  "time": 1236712257,
  "mediantime": 1236708253,
  "nonce": 87767614,
  "bits": "1d00ffff",
  "difficulty": 1,
  "chainwork": "00000000000000000000000000000000000000000000000000001b511b511b51",
  "nTx": 1,
  "previousblockhash": "00000000b1732619993cb5373a8228cc0fa6c66987eb6f77f53ef9a37d526802",
  "nextblockhash": "00000000eb281f4ededcf2f8570fdf048b13364578d32c31478f34be5378619f",
  "strippedsize": 216,
  "size": 216,
  "weight": 864,
  "tx": [
    {
      "txid": "9d3daf2004dc358f3823b080ab89b94790f3c6de2aff1e45880053708d2ae351",
      "hash": "9d3daf2004dc358f3823b080ab89b94790f3c6de2aff1e45880053708d2ae351",
      "version": 1,
      "size": 135,
      "vsize": 135,
      "weight": 540,
      "locktime": 0,
      "vin": [
        {
          "coinbase": "04ffff001d02e100",
          "sequence": 4294967295
        }
      ],
      "vout": [
        {
          "value": 50.0,
          "n": 0,
          "scriptPubKey": {
            "asm": "04c1bdc08830a2f921adfdf3afa9358ef0e3e6eeb2f38ae0ab14e058dba62bef151bfcdb93b157b6ffe001fd6794902672ca8d80f1a9d0c8c85ab8a6f87a78b296 OP_CHECKSIG",
            "desc": "pk(04c1bdc08830a2f921adfdf3afa9358ef0e3e6eeb2f38ae0ab14e058dba62bef151bfcdb93b157b6ffe001fd6794902672ca8d80f1a9d0c8c85ab8a6f87a78b296)#es50m6r4",
            "hex": "4104c1bdc08830a2f921adfdf3afa9358ef0e3e6eeb2f38ae0ab14e058dba62bef151bfcdb93b157b6ffe001fd6794902672ca8d80f1a9d0c8c85ab8a6f87a78b296ac",
            "type": "pubkey"
          }
        }
      ],
      "hex": "01000000010000000000000000000000000000000000000000000000000000000000000000ffffffff0804ffff001d02e100ffffffff0100f2052a01000000434104c1bdc08830a2f921adfdf3afa9358ef0e3e6eeb2f38ae0ab14e058dba62bef151bfcdb93b157b6ffe001fd6794902672ca8d80f1a9d0c8c85ab8a6f87a78b296ac00000000"
    }
  ]
}