{
  "hash": "0000000095aec581cb9903f935c4da8edc78cd194824cc34077e4d1ef822f3bf",
  "confirmations": 45670,
  "height": 7428,
  "version": 1,
  "versionHex": "00000001",
  "merkleroot": "909b42fdcae4a647f7e3b3c1c2678eda5ca8d999d6d560dd1dd1830310abcaee",
  "time": 1237044433,
  "mediantime": 1237040943,
  "nonce": 2086787616,
  "bits": "1d00ffff",
  "difficulty": 1,
  "chainwork": "00000000000000000000000000000000000000000000000000001d051d051d05",
  "nTx": 1,
  "previousblockhash": "000000004c92274a6135a675095eda7ecb759766411d199538bbd44210e2a89f",
  "nextblockhash": "000000009cde9cde5c331b51a8166b8e0ff9dabc4d8cc1c0afb81c7ead6e1ad2",
  "strippedsize": 216,
  "size": 216,
  "weight": 864,
  "tx": [
    {
      "txid": "909b42fdcae4a647f7e3b3c1c2678eda5ca8d999d6d560dd1dd1830310abcaee",
      "hash": "909b42fdcae4a647f7e3b3c1c2678eda5ca8d999d6d560dd1dd1830310abcaee",
      "version": 1,
      "size": 135,
      "vsize": 135,
      "weight": 540,
      "locktime": 0,
      "vin": [
        {
          "coinbase": "04ffff001d02f409",
          "sequence": 4294967295
        }
      ],
      "vout": [
        {
          "value": 50.0,
          "n": 0,
          "scriptPubKey": {
            "asm": "04dc316d0e7ce1ee62de393f6bc3eb7d8032885764c0d22525d4eb201b8577fbfe181d0224f2a1d74249b8294d911b9f1cdbd2a706c4c11ed8104f4e42089ef884 OP_CHECKSIG",
            "desc": "pk(04dc316d0e7ce1ee62de393f6bc3eb7d8032885764c0d22525d4eb201b8577fbfe181d0224f2a1d74249b8294d911b9f1cdbd2a706c4c11ed8104f4e42089ef884)#86nz0f7a",
            "hex": "4104dc316d0e7ce1ee62de393f6bc3eb7d8032885764c0d22525d4eb201b8577fbfe181d0224f2a1d74249b8294d911b9f1cdbd2a706c4c11ed8104f4e42089ef884ac",
            "type": "pubkey"
          }
        }
      ],
      "hex": "01000000010000000000000000000000000000000000000000000000000000000000000000ffffffff0804ffff001d02f409ffffffff0100f2052a01000000434104dc316d0e7ce1ee62de393f6bc3eb7d8032885764c0d22525d4eb201b8577fbfe181d0224f2a1d74249b8294d911b9f1cdbd2a706c4c11ed8104f4e42089ef884ac00000000"
    }
  ]
}