{
  "hash": "000000003182f3b9579afb0a93a01e40c86eed120dfe45579e37c89874c372f5",
  "confirmations": 52114,
  "height": 984,
  "version": 1,
  "versionHex": "00000001",
  "merkleroot": "7f2b9cc3438adcbb7b1aa78bb37bdf03ede17060fab5e7091e1e6488387cf3f0",
  "time": 1232338844,
  "mediantime": 1232334078,
  "nonce": 55055424,
  "bits": "1d00ffff",
  "difficulty": 1,
  "chainwork": "000000000000000000000000000000000000000000000000000003d903d903d9",
  "nTx": 1,
  "previousblockhash": "00000000bf6d26fb6d73d9473701ad8452bc39e0c2e98a5a4007bdcea01c23dc",
  "nextblockhash": "00000000b7c1c85a20a8912759dbf358891ac723c1bd74200107fe01278f7535",
  "strippedsize": 215,
  "size": 215,
  "weight": 860,
  "tx": [
    {
      "txid": "7f2b9cc3438adcbb7b1aa78bb37bdf03ede17060fab5e7091e1e6488387cf3f0",
      "hash": "7f2b9cc3438adcbb7b1aa78bb37bdf03ede17060fab5e7091e1e6488387cf3f0",
      "version": 1,
      "size": 134,
      "vsize": 134,
      "weight": 536,
      "locktime": 0,
      "vin": [
        {
          "coinbase": "04ffff001d012a",
          "sequence": 4294967295
        }
      ],
      "vout": [
        {
          "value": 50.0,
          "n": 0,
          "scriptPubKey": {
            "asm": "04c0bff774be9cf631e1a6ee7904a55f6893473abe44e3fe1a297ea0d687274458f834602bbf8a96d6302f8fdd20c4e310292af573ada109237529e03cf61fcd57 OP_CHECKSIG",
            "desc": "pk(04c0bff774be9cf631e1a6ee7904a55f6893473abe44e3fe1a297ea0d687274458f834602bbf8a96d6302f8fdd20c4e310292af573ada109237529e03cf61fcd57)#kl2v4gv4",
            "hex": "4104c0bff774be9cf631e1a6ee7904a55f6893473abe44e3fe1a297ea0d687274458f834602bbf8a96d6302f8fdd20c4e310292af573ada109237529e03cf61fcd57ac",
            "type": "pubkey"
          }
        }
      ],
      "hex": "01000000010000000000000000000000000000000000000000000000000000000000000000ffffffff0704ffff001d012affffffff0100f2052a01000000434104c0bff774be9cf631e1a6ee7904a55f6893473abe44e3fe1a297ea0d687274458f834602bbf8a96d6302f8fdd20c4e310292af573ada109237529e03cf61fcd57ac00000000"
    }
  ]
}