{
  "hash": "0000000099e9b90af841ce3a535671c52164d057e95aa4e793ee0e0f893ea7df",
  "confirmations": 44419,
  "height": 8679,
  "version": 1,
  "versionHex": "00000001",
  "merkleroot": "45c8cea7742fb2d956a3ba3ed67160e6b262976c332dd8ab0828806a6613fd37",
  "time": 1238009668,
  "mediantime": 1238004216,
  "nonce": 1197894429,
  "bits": "1d00ffff",
  "difficulty": 1,
  "chainwork": "000000000000000000000000000000000000000000000000000021e821e821e8",
  "nTx": 1,
  "previousblockhash": "00000000112b61fe278d7f509029b29350ed3b0b4168dfc5f88412bc1edddff9",
  "nextblockhash": "0000000058ff161132d81b301c3699f6f04d87f7f4ae8b5f273c4b4b1f569e40",
  "strippedsize": 216,
  "size": 216,
  "weight": 864,
  "tx": [
    {
      "txid": "45c8cea7742fb2d956a3ba3ed67160e6b262976c332dd8ab0828806a6613fd37",
      "hash": "45c8cea7742fb2d956a3ba3ed67160e6b262976c332dd8ab0828806a6613fd37",
      "version": 1,
      "size": 135,
      "vsize": 135,
      "weight": 540,
      "locktime": 0,
      "vin": [
        {
          "coinbase": "04ffff001d029a00",
          "sequence": 4294967295
        }
      ],
      "vout": [
        {
          "value": 50.0,
          "n": 0,
          "scriptPubKey": {
            "asm": "0428fff44e376d57530f4eb98fc5abf6b855acc334638884b93c811d2dc1b400ad20827f0aceebf4ddb403dabdf5ce2c27d3bb937d11d058bba4220b66b321d0de OP_CHECKSIG",
            "desc": "pk(0428fff44e376d57530f4eb98fc5abf6b855acc334638884b93c811d2dc1b400ad20827f0aceebf4ddb403dabdf5ce2c27d3bb937d11d058bba4220b66b321d0de)#qw6d38jy",
            "hex": "410428fff44e376d57530f4eb98fc5abf6b855acc334638884b93c811d2dc1b400ad20827f0aceebf4ddb403dabdf5ce2c27d3bb937d11d058bba4220b66b321d0deac",
            "type": "pubkey"
          }
        }
      ],
      "hex": "01000000010000000000000000000000000000000000000000000000000000000000000000ffffffff0804ffff001d029a00ffffffff0100f2052a0100000043410428fff44e376d57530f4eb98fc5abf6b855acc334638884b93c811d2dc1b400ad20827f0aceebf4ddb403dabdf5ce2c27d3bb937d11d058bba4220b66b321d0deac00000000"
    }
  ]
}