{
  "hash": "00000000c8a136677d7bd4f07e8385a1119c387c0899290cf35150272edc054e",
  "confirmations": 45278,
  "height": 7820,
  "version": 1,
  "versionHex": "00000001",
  "merkleroot": "0a74d9d5ae3a7ec8e3cb056a1c7fd2de5f3c0c52a30c5eee442310ace5b48f6f",
  "time": 1237329988,
  "mediantime": 1237323845,
  "nonce": 358035888,
  "bits": "1d00ffff",
  "difficulty": 1,
  "chainwork": "00000000000000000000000000000000000000000000000000001e8d1e8d1e8d",
  "nTx": 1,
  "previousblockhash": "00000000b0e6c4137cb9871d6475750ebf022740b9d2aec4f773ab4994b2d04f",
  "nextblockhash": "0000000070594ab7669a36f0e6471f744847fc3d4e52a544d8d72bfe0daa5862",
  "strippedsize": 216,
  "size": 216,
  "weight": 864,
  "tx": [
    {
      "txid": "0a74d9d5ae3a7ec8e3cb056a1c7fd2de5f3c0c52a30c5eee442310ace5b48f6f",
      "hash": "0a74d9d5ae3a7ec8e3cb056a1c7fd2de5f3c0c52a30c5eee442310ace5b48f6f",
      "version": 1,
      "size": 135,
      "vsize": 135,
      "weight": 540,
      "locktime": 0,
      "vin": [
        {
          "coinbase": "04ffff001d02fc02",
          "sequence": 4294967295
        }
      ],
      "vout": [
        {
          "value": 50.0,
          "n": 0,
          "scriptPubKey": {
            "asm": "044ddce3863c805fa4e91b7a4ee65dc7d40a7900499312a4bab0e036a24df6e779dd3af6bf00b150ffc5995f2d060a6c8319415779ad1ddf53d54eac3ee7ab4bc4 OP_CHECKSIG",
            "desc": "pk(044ddce3863c805fa4e91b7a4ee65dc7d40a7900499312a4bab0e036a24df6e779dd3af6bf00b150ffc5995f2d060a6c8319415779ad1ddf53d54eac3ee7ab4bc4)#w45azlj8",
            "hex": "41044ddce3863c805fa4e91b7a4ee65dc7d40a7900499312a4bab0e036a24df6e779dd3af6bf00b150ffc5995f2d060a6c8319415779ad1ddf53d54eac3ee7ab4bc4ac",
            "type": "pubkey"
          }
        }
      ],
      "hex": "01000000010000000000000000000000000000000000000000000000000000000000000000ffffffff0804ffff001d02fc02ffffffff0100f2052a010000004341044ddce3863c805fa4e91b7a4ee65dc7d40a7900499312a4bab0e036a24df6e779dd3af6bf00b150ffc5995f2d060a6c8319415779ad1ddf53d54eac3ee7ab4bc4ac00000000"
    }
  ]
}