{
  "hash": "00000000d38e48295d524d9e7fb073069dd1b59b4a209c681814150c9f7265e1",
  "confirmations": 45213,
  "height": 7885,
  "version": 1,
  "versionHex": "00000001",
  "merkleroot": "4ab6a2c6237ce8d6b0ef1be726164aa25c93f2b44f54783a8bff9f2414a9143c",
  "time": 1237381143,
  "mediantime": 1237378068,
  "nonce": 25711429,
  "bits": "1d00ffff",
  "difficulty": 1,
  "chainwork": "00000000000000000000000000000000000000000000000000001ece1ece1ece",
  "nTx": 1,
  "previousblockhash": "0000000004908e475fe3d92314ebd85b856e9ec677f13ee350e5648d6074a66a",
  "nextblockhash": "00000000ac6b33792b859763d4324896e68a3c3c63fd7fe1c9c9744a37e0dd9e",
  "strippedsize": 216,
  "size": 216,
  "weight": 864,
  "tx": [
    {
      "txid": "4ab6a2c6237ce8d6b0ef1be726164aa25c93f2b44f54783a8bff9f2414a9143c",
      "hash": "4ab6a2c6237ce8d6b0ef1be726164aa25c93f2b44f54783a8bff9f2414a9143c",
      "version": 1,
      "size": 135,
      "vsize": 135,
      "weight": 540,
      "locktime": 0,
      "vin": [
        {
          "coinbase": "04ffff001d024102",
          "sequence": 4294967295
        }
      ],
      "vout": [
        {
          "value": 50.0,
          "n": 0,
          "scriptPubKey": {
            "asm": "04d5efd15fb2f680cea8c2d470893dbb64944384801fbaec65942d382f22245e2ecf7ef200de3e5fde28407137e4262cd083003452d207284d7e0e723cc3ea4ab9 OP_CHECKSIG",
            "desc": "pk(04d5efd15fb2f680cea8c2d470893dbb64944384801fbaec65942d382f22245e2ecf7ef200de3e5fde28407137e4262cd083003452d207284d7e0e723cc3ea4ab9)#8uhaxdt4",
            "hex": "4104d5efd15fb2f680cea8c2d470893dbb64944384801fbaec65942d382f22245e2ecf7ef200de3e5fde28407137e4262cd083003452d207284d7e0e723cc3ea4ab9ac",
            "type": "pubkey"
          }
        }
      ],
      "hex": "01000000010000000000000000000000000000000000000000000000000000000000000000ffffffff0804ffff001d024102ffffffff0100f2052a01000000434104d5efd15fb2f680cea8c2d470893dbb64944384801fbaec65942d382f22245e2ecf7ef200de3e5fde28407137e4262cd083003452d207284d7e0e723cc3ea4ab9ac00000000"
    }
  ]
}