{
  "hash": "00000000522b4442c7cb041127b9a17b3eb6e1e20ade23fb827af83a5915e51a",
  "confirmations": 51722,
  "height": 1376,
  "version": 1,
  "versionHex": "00000001",
  "merkleroot": "56a66261e3ef265b8bb8d4e54c7692fad018ce6a282625990aea0652cd63a4a3",
  "time": 1232663205,
  "mediantime": 1232659717,
  "nonce": 8316773,
  "bits": "1d00ffff",
  "difficulty": 1,
  "chainwork": "0000000000000000000000000000000000000000000000000000056105610561",
  "nTx": 1,
  "previousblockhash": "00000000fd7cc38aa4de3261606ee992092467329191a3c63fbe04687d9130ac",
  "nextblockhash": "00000000768e6324465474bfa0b39edbf01496fc7188a390c7b04508a3f6cb9f",
  "strippedsize": 216,
  "size": 216,
  "weight": 864,
  "tx": [
    {
      "txid": "56a66261e3ef265b8bb8d4e54c7692fad018ce6a282625990aea0652cd63a4a3",
      "hash": "56a66261e3ef265b8bb8d4e54c7692fad018ce6a282625990aea0652cd63a4a3",
      "version": 1,
      "size": 135,
      "vsize": 135,
      "weight": 540,
      "locktime": 0,
      "vin": [
        {
          "coinbase": "04ffff001d02d902",
          "sequence": 4294967295
        }
      ],
      "vout": [
        {
          "value": 50.0,
          "n": 0,
          "scriptPubKey": {
            "asm": "0428b2435bb6a7505d67791f868d3af16d8950dfe816b783668c4cb3c881910396a99cf9741ff7c53dc703a2bb1c7ec6785bf8eec97416762e2e38493e7d75f0cd OP_CHECKSIG",
            "desc": "pk(0428b2435bb6a7505d67791f868d3af16d8950dfe816b783668c4cb3c881910396a99cf9741ff7c53dc703a2bb1c7ec6785bf8eec97416762e2e38493e7d75f0cd)#qy7g36ne",
            "hex": "410428b2435bb6a7505d67791f868d3af16d8950dfe816b783668c4cb3c881910396a99cf9741ff7c53dc703a2bb1c7ec6785bf8eec97416762e2e38493e7d75f0cdac",
            "type": "pubkey"
          }
        }
      ],
      "hex": "01000000010000000000000000000000000000000000000000000000000000000000000000ffffffff0804ffff001d02d902ffffffff0100f2052a0100000043410428b2435bb6a7505d67791f868d3af16d8950dfe816b783668c4cb3c881910396a99cf9741ff7c53dc703a2bb1c7ec6785bf8eec97416762e2e38493e7d75f0cdac00000000"
    }
  ]
}