{
  "hash": "00000000b780134d08081da0e2afb34485a0c2c19196715b65539092a8d5a555",
  "confirmations": 47346,
  "height": 5752,
  "version": 1,
  "versionHex": "00000001",
  "merkleroot": "3bbbb273f494d0035cf0a911e8249ef8c49f56127c65492957a621997cfe53fe",
  "time": 1235725673,
  "mediantime": 1235719965,
  "nonce": 2190415636,
  "bits": "1d00ffff",
  "difficulty": 1,
  "chainwork": "0000000000000000000000000000000000000000000000000000167916791679",
  "nTx": 1,
  "previousblockhash": "000000008d87a2d254e6bf436b66d379e1d4fe6753c0e85b9088921343140fe0",
  "nextblockhash": "00000000afc0a13b32bad499a6447b5e5269e0e075220d286004effbadae62d6",
  "strippedsize": 215,
  "size": 215,
  "weight": 860,
  "tx": [
    {
      "txid": "3bbbb273f494d0035cf0a911e8249ef8c49f56127c65492957a621997cfe53fe",
      "hash": "3bbbb273f494d0035cf0a911e8249ef8c49f56127c65492957a621997cfe53fe",
      "version": 1,
      "size": 134,
      "vsize": 134,
      "weight": 536,
      "locktime": 0,
      "vin": [
        {
          "coinbase": "04ffff001d010d",
          "sequence": 4294967295
        }
      ],
      "vout": [
        {
          "value": 50.0,
          "n": 0,
          "scriptPubKey": {
            "asm": "049d0cdeecb17b60999a373e1c5dc350d3023baec57438dacf6e0705d8652654ddf0040972cc4439049c76d2824ea5d46c6e011cf5f9efd6d1b4ad962572c63210 OP_CHECKSIG",
            "desc": "pk(049d0cdeecb17b60999a373e1c5dc350d3023baec57438dacf6e0705d8652654ddf0040972cc4439049c76d2824ea5d46c6e011cf5f9efd6d1b4ad962572c63210)#vyg0c5e4",
            "hex": "41049d0cdeecb17b60999a373e1c5dc350d3023baec57438dacf6e0705d8652654ddf0040972cc4439049c76d2824ea5d46c6e011cf5f9efd6d1b4ad962572c63210ac",
            "type": "pubkey"
          }
        }
      ],
      "hex": "01000000010000000000000000000000000000000000000000000000000000000000000000ffffffff0704ffff001d010dffffffff0100f2052a010000004341049d0cdeecb17b60999a373e1c5dc350d3023baec57438dacf6e0705d8652654ddf0040972cc4439049c76d2824ea5d46c6e011cf5f9efd6d1b4ad962572c63210ac00000000"
    }
  ]
}