{
  "hash": "00000000dd41eafae6a1c14065eb3215f1cab7a1733f5b3e7f4240051d66786f",
  "confirmations": 50632,
  "height": 2466,
  "version": 1,
  "versionHex": "00000001",
  "merkleroot": "e3e9de1a9eac312ad995522e37a627f13388ed2ce674b9194730262cfc09c2a0",
  "time": 1233401991,
  "mediantime": 1233399927,
  "nonce": 69642569,
  "bits": "1d00ffff",
  "difficulty": 1,
  "chainwork": "000000000000000000000000000000000000000000000000000009a309a309a3",
  "nTx": 1,
  "previousblockhash": "00000000cf9f32807a51004165e3a5a63d265de3cfd1dfb5068c29acff74634b",
  "nextblockhash": "00000000d9255f85c6aedd5fdbe650fe5dcba77b0e577ee540da8001cfa55fa6",
  "strippedsize": 215,
  "size": 215,
  "weight": 860,
  "tx": [
    {
      "txid": "e3e9de1a9eac312ad995522e37a627f13388ed2ce674b9194730262cfc09c2a0",
      "hash": "e3e9de1a9eac312ad995522e37a627f13388ed2ce674b9194730262cfc09c2a0",
      "version": 1,
      "size": 134,
      "vsize": 134,
      "weight": 536,
      "locktime": 0,
      "vin": [
        {
          "coinbase": "04ffff001d015d",
          "sequence": 4294967295
        }
      ],
      "vout": [
        {
          "value": 50.0,
          "n": 0,
          "scriptPubKey": {
            "asm": "04ec8af7d6e2d18dee0748c432434b34383e2bf0d49cc819cf298d5092607e37431904d35cf6eb1a960a1656ae4125200886b72b0dbd6ad446ba45ffbbadb01eab OP_CHECKSIG",
            "desc": "pk(04ec8af7d6e2d18dee0748c432434b34383e2bf0d49cc819cf298d5092607e37431904d35cf6eb1a960a1656ae4125200886b72b0dbd6ad446ba45ffbbadb01eab)#u7mv4hzd",
            "hex": "4104ec8af7d6e2d18dee0748c432434b34383e2bf0d49cc819cf298d5092607e37431904d35cf6eb1a960a1656ae4125200886b72b0dbd6ad446ba45ffbbadb01eabac",
            "type": "pubkey"
          }
        }
      ],
      "hex": "01000000010000000000000000000000000000000000000000000000000000000000000000ffffffff0704ffff001d015dffffffff0100f2052a01000000434104ec8af7d6e2d18dee0748c432434b34383e2bf0d49cc819cf298d5092607e37431904d35cf6eb1a960a1656ae4125200886b72b0dbd6ad446ba45ffbbadb01eabac00000000"
    }
  ]
}