{
  "hash": "0000000095b5297ee2a3512646f09519fca29282e198d3cd7b9dd6ad2dff9489",
  "confirmations": 45605,
  "height": 7493,
  "version": 1,
  "versionHex": "00000001",
  "merkleroot": "24760178cfcd5628a176b200e8c832b708521e2ed047d8b3ef4b7d58da7e1802",
  "time": 1237092317,
  "mediantime": 1237087359,
  "nonce": 2353560108,
  "bits": "1d00ffff",
  "difficulty": 1,
  "chainwork": "00000000000000000000000000000000000000000000000000001d461d461d46",
  "nTx": 1,
  "previousblockhash": "00000000aca10cf2fecc97eba47ecf710a0b45be92fdadb8f492fde9844bfbf5",
  "nextblockhash": "00000000c149b51b9e0a3400dc97fe7cc9b537ad33c5fbb0caa3c604d324e816",
  "strippedsize": 216,
  "size": 216,
  "weight": 864,
  "tx": [
    {
      "txid": "24760178cfcd5628a176b200e8c832b708521e2ed047d8b3ef4b7d58da7e1802",
      "hash": "24760178cfcd5628a176b200e8c832b708521e2ed047d8b3ef4b7d58da7e1802",
      "version": 1,
      "size": 135,
      "vsize": 135,
      "weight": 540,
      "locktime": 0,
      "vin": [
        {
          "coinbase": "04ffff001d02d400",
          "sequence": 4294967295
        }
      ],
      "vout": [
        {
          "value": 50.0,
          "n": 0,
          "scriptPubKey": {
            "asm": "042a9133b8ba695237039b4db0e8762ab00a64475cd2d82b8b99ef8ddc99f2b9ba0fd49ad336bbcc76ac0806aae44a61dfcddf8550f5a6cb8315bc2cbfec111cd3 OP_CHECKSIG",
            "desc": "pk(042a9133b8ba695237039b4db0e8762ab00a64475cd2d82b8b99ef8ddc99f2b9ba0fd49ad336bbcc76ac0806aae44a61dfcddf8550f5a6cb8315bc2cbfec111cd3)#5w38r0j9",
            "hex": "41042a9133b8ba695237039b4db0e8762ab00a64475cd2d82b8b99ef8ddc99f2b9ba0fd49ad336bbcc76ac0806aae44a61dfcddf8550f5a6cb8315bc2cbfec111cd3ac",
            "type": "pubkey"
          }
        }
      ],
      "hex": "01000000010000000000000000000000000000000000000000000000000000000000000000ffffffff0804ffff001d02d400ffffffff0100f2052a010000004341042a9133b8ba695237039b4db0e8762ab00a64475cd2d82b8b99ef8ddc99f2b9ba0fd49ad336bbcc76ac0806aae44a61dfcddf8550f5a6cb8315bc2cbfec111cd3ac00000000"
    }
  ]
}