{
  "hash": "000000007d95532530049dbbb1aea78bc0d0a71b8b9f07ec8871ff3faca8c28c",
  "confirmations": 51336,
  "height": 1762,
  "version": 1,
  "versionHex": "00000001",
  "merkleroot": "58547094badb9e0809bcddcc37598e1bb78cdace39a991aea3a2afa4de6c32ed",
  "time": 1232879731,
  "mediantime": 1232877629,
  "nonce": 2151598898,
  "bits": "1d00ffff",
  "difficulty": 1,
  "chainwork": "000000000000000000000000000000000000000000000000000006e306e306e3",
  "nTx": 1,
  "previousblockhash": "00000000e98eb630ca32444cb0621dea8818feea9039296ab322fc6f283f296e",
  "nextblockhash": "000000003db92ea2d744dcb2a7a3b54a3d40496cced5a166ef5a1d328300dffd",
  "strippedsize": 216,
  "size": 216,
  "weight": 864,
  "tx": [
    {
      "txid": "58547094badb9e0809bcddcc37598e1bb78cdace39a991aea3a2afa4de6c32ed",
      "hash": "58547094badb9e0809bcddcc37598e1bb78cdace39a991aea3a2afa4de6c32ed",
      "version": 1,
      "size": 135,
      "vsize": 135,
      "weight": 540,
      "locktime": 0,
      "vin": [
        {
          "coinbase": "04ffff001d02bb03",
          "sequence": 4294967295
        }
      ],
      "vout": [
        {
          "value": 50.0,
          "n": 0,
          "scriptPubKey": {
            "asm": "040f583d37db133b29da27631a4daa61d41f2e27103c97c28949bee82eed621417b1a5c119f257349814dcb5235e911aa7719a09b17a8e7a3400ac6d4d05763bda OP_CHECKSIG",
            "desc": "pk(040f583d37db133b29da27631a4daa61d41f2e27103c97c28949bee82eed621417b1a5c119f257349814dcb5235e911aa7719a09b17a8e7a3400ac6d4d05763bda)#vx3yf3l9",
            "hex": "41040f583d37db133b29da27631a4daa61d41f2e27103c97c28949bee82eed621417b1a5c119f257349814dcb5235e911aa7719a09b17a8e7a3400ac6d4d05763bdaac",
            "type": "pubkey"
          }
        }
      ],
      "hex": "01000000010000000000000000000000000000000000000000000000000000000000000000ffffffff0804ffff001d02bb03ffffffff0100f2052a010000004341040f583d37db133b29da27631a4daa61d41f2e27103c97c28949bee82eed621417b1a5c119f257349814dcb5235e911aa7719a09b17a8e7a3400ac6d4d05763bdaac00000000"
    }
  ]
}