{
  "hash": "000000001a8eabe6211605a4c827f215acb3dcdfd00c66874d4358b9ec30a748",
  "confirmations": 44037,
  "height": 9061,
  "version": 1,
  "versionHex": "00000001",
  "merkleroot": "8fc03fb924d7c5724abb0632fdc81069538eac5902644f5c27388ae3ff960151",
  "time": 1238302716,
  "mediantime": 1238298813,
  "nonce": 1905006851,
  "bits": "1d00ffff",
  "difficulty": 1,
  "chainwork": "0000000000000000000000000000000000000000000000000000236623662366",
  "nTx": 1,
  "previousblockhash": "00000000c0aba4339f7db7148c87ef284fcf580183252c797f89cbaa339ec661",
  "nextblockhash": "00000000f223596b03ce2b9996a2c74101cfe7f3aabd306a7c92a799a3a831d0",
  "strippedsize": 216,
  "size": 216,
  "weight": 864,
  "tx": [
    {
      "txid": "8fc03fb924d7c5724abb0632fdc81069538eac5902644f5c27388ae3ff960151",
      "hash": "8fc03fb924d7c5724abb0632fdc81069538eac5902644f5c27388ae3ff960151",
      "version": 1,
      "size": 135,
      "vsize": 135,
      "weight": 540,
      "locktime": 0,
      "vin": [
        {
          "coinbase": "04ffff001d028407",
          "sequence": 4294967295
        }
      ],
      "vout": [
        {
          "value": 50.0,
          "n": 0,
          "scriptPubKey": {
            "asm": "048ad6656f8e2ce31d96391cc45ae63bc0ece6ca4bcb782971ec32ff2b3ca6b3f4765a9d79bc3021c6f1faae719c5be58714c02719877918cb5714d9bec5e65ada OP_CHECKSIG",
            "desc": "pk(048ad6656f8e2ce31d96391cc45ae63bc0ece6ca4bcb782971ec32ff2b3ca6b3f4765a9d79bc3021c6f1faae719c5be58714c02719877918cb5714d9bec5e65ada)#ddym4rym",
            "hex": "41048ad6656f8e2ce31d96391cc45ae63bc0ece6ca4bcb782971ec32ff2b3ca6b3f4765a9d79bc3021c6f1faae719c5be58714c02719877918cb5714d9bec5e65adaac",
            "type": "pubkey"
          }
        }
      ],
      "hex": "01000000010000000000000000000000000000000000000000000000000000000000000000ffffffff0804ffff001d028407ffffffff0100f2052a010000004341048ad6656f8e2ce31d96391cc45ae63bc0ece6ca4bcb782971ec32ff2b3ca6b3f4765a9d79bc3021c6f1faae719c5be58714c02719877918cb5714d9bec5e65adaac00000000"
    }
  ]
}