{
  "hash": "00000000b9398f1b4ed08d3288f187239644e534184051835a02a0eca0400575",
  "confirmations": 47355,
  "height": 5743,
  "version": 1,
  "versionHex": "00000001",
  "merkleroot": "bc422788856ceaa1d7989cf1a430b2dccdc5f98f49bdedb04524295a15ecbac7",
  "time": 1235716006,
  "mediantime": 1235712243,
  "nonce": 90531662,
  "bits": "1d00ffff",
  "difficulty": 1,
  "chainwork": "0000000000000000000000000000000000000000000000000000167016701670",
  "nTx": 1,
  "previousblockhash": "00000000b4e50cb9b4a679c672ebdc5022fffbe0849f85356ca0e2bdacea5087",
  "nextblockhash": "00000000da2620578421bef48e904ed4cbdde9241d887d27a0c92dced7a5e380",
  "strippedsize": 216,
  "size": 216,
  "weight": 864,
  "tx": [
    {
      "txid": "bc422788856ceaa1d7989cf1a430b2dccdc5f98f49bdedb04524295a15ecbac7",
      "hash": "bc422788856ceaa1d7989cf1a430b2dccdc5f98f49bdedb04524295a15ecbac7",
      "version": 1,
      "size": 135,
      "vsize": 135,
      "weight": 540,
      "locktime": 0,
      "vin": [
        {
          "coinbase": "04ffff001d02f400",
          "sequence": 4294967295
        }
      ],
      "vout": [
        {
          "value": 50.0,
          "n": 0,
          "scriptPubKey": {
            "asm": "04b783ac45be7d739bf8de272bc70f149c1d1dda7e2fe9b6d308506a9d053ab94b628452bcd1d9f38a6c8840ea37297a50dd879342ac8061e229796bac493e5bc8 OP_CHECKSIG",
            "desc": "pk(04b783ac45be7d739bf8de272bc70f149c1d1dda7e2fe9b6d308506a9d053ab94b628452bcd1d9f38a6c8840ea37297a50dd879342ac8061e229796bac493e5bc8)#45y8mpvn",
            "hex": "4104b783ac45be7d739bf8de272bc70f149c1d1dda7e2fe9b6d308506a9d053ab94b628452bcd1d9f38a6c8840ea37297a50dd879342ac8061e229796bac493e5bc8ac",
            "type": "pubkey"
          }
        }
      ],
      "hex": "01000000010000000000000000000000000000000000000000000000000000000000000000ffffffff0804ffff001d02f400ffffffff0100f2052a01000000434104b783ac45be7d739bf8de272bc70f149c1d1dda7e2fe9b6d308506a9d053ab94b628452bcd1d9f38a6c8840ea37297a50dd879342ac8061e229796bac493e5bc8ac00000000"
    }
  ]
}