{
  "hash": "000000008fb163105b8774ac031d045e22f349ab7c60b0fe490e94e1b8a83e00",
  "confirmations": 51728,
  "height": 1370,
  "version": 1,
  "versionHex": "00000001",
  "merkleroot": "4ee780d9f1150a3f3da12b8cc286e29acbe161f021e1b7171941e7450796e97b",
  "time": 1232658776,
  "mediantime": 1232654654,
  "nonce": 748161576,
  "bits": "1d00ffff",
  "difficulty": 1,
  "chainwork": "0000000000000000000000000000000000000000000000000000055b055b055b",
  "nTx": 1,
  "previousblockhash": "00000000de770fc335724bd3aadfc1a2172050a892d4379973c82fecdc974fa7",
  "nextblockhash": "00000000dfad4fe47dcfc1a35c3384420d18210cd64c1bae5219e2ef3b123459",
  "strippedsize": 216,
  "size": 216,
  "weight": 864,
  "tx": [
    {
      "txid": "4ee780d9f1150a3f3da12b8cc286e29acbe161f021e1b7171941e7450796e97b",
      "hash": "4ee780d9f1150a3f3da12b8cc286e29acbe161f021e1b7171941e7450796e97b",
      "version": 1,
      "size": 135,
      "vsize": 135,
      "weight": 540,
      "locktime": 0,
      "vin": [
        {
          "coinbase": "04ffff001d028801",
          "sequence": 4294967295
        }
      ],
      "vout": [
        {
          "value": 50.0,
          "n": 0,
          "scriptPubKey": {
            "asm": "04fae668ac5d7c0e6000a48449bd01c5bee3f9bea266118182a648f834a58e1b74b81e09a12d3a4170664aa8529075066584ca5a79826b0e8ccbf219b0e60d1af1 OP_CHECKSIG",
            "desc": "pk(04fae668ac5d7c0e6000a48449bd01c5bee3f9bea266118182a648f834a58e1b74b81e09a12d3a4170664aa8529075066584ca5a79826b0e8ccbf219b0e60d1af1)#he8vl9fe",
            "hex": "4104fae668ac5d7c0e6000a48449bd01c5bee3f9bea266118182a648f834a58e1b74b81e09a12d3a4170664aa8529075066584ca5a79826b0e8ccbf219b0e60d1af1ac",
            "type": "pubkey"
          }
        }
      ],
      "hex": "01000000010000000000000000000000000000000000000000000000000000000000000000ffffffff0804ffff001d028801ffffffff0100f2052a01000000434104fae668ac5d7c0e6000a48449bd01c5bee3f9bea266118182a648f834a58e1b74b81e09a12d3a4170664aa8529075066584ca5a79826b0e8ccbf219b0e60d1af1ac00000000"
    }
  ]
}