{
  "hash": "00000000db624c94fc84a57293dcb2d64c2b9c3581aee2b6d2c99a9b0b43cccd",
  "confirmations": 48032,
  "height": 5066,
  "version": 1,
  "versionHex": "00000001",
  "merkleroot": "96de335b3b568803876c5921e94e745e60e5b60099a01aca27df184250b8ba2c",
  "time": 1235189487,
  "mediantime": 1235184459,
  "nonce": 443367982,
  "bits": "1d00ffff",
  "difficulty": 1,
  "chainwork": "000000000000000000000000000000000000000000000000000013cb13cb13cb",
  "nTx": 1,
  "previousblockhash": "00000000e73bb66186646ccbdaa1a8348846b14e9bdb1a1bcfc5c1a5a1bf875d",
  "nextblockhash": "000000008f7ac80ee13ac9e28b8fa60798bfec869d96836fcee6777783dab281",
  "strippedsize": 216,
  "size": 216,
  "weight": 864,
  "tx": [
    {
      "txid": "96de335b3b568803876c5921e94e745e60e5b60099a01aca27df184250b8ba2c",
      "hash": "96de335b3b568803876c5921e94e745e60e5b60099a01aca27df184250b8ba2c",
      "version": 1,
      "size": 135,
      "vsize": 135,
      "weight": 540,
      "locktime": 0,
      "vin": [
        {
          "coinbase": "04ffff001d022e08",
          "sequence": 4294967295
        }
      ],
      "vout": [
        {
          "value": 50.0,
          "n": 0,
          "scriptPubKey": {
            "asm": "0485664310ee2fdef4af3aea13f6e9f9b7c244a406f80f12b2cc2731b9b9434ac5728be555518bbe8a0f374b86ecaf16e9f41d3bb81e355eda4555e2cf3aff83cf OP_CHECKSIG",
            "desc": "pk(0485664310ee2fdef4af3aea13f6e9f9b7c244a406f80f12b2cc2731b9b9434ac5728be555518bbe8a0f374b86ecaf16e9f41d3bb81e355eda4555e2cf3aff83cf)#xf8rmm65",
            "hex": "410485664310ee2fdef4af3aea13f6e9f9b7c244a406f80f12b2cc2731b9b9434ac5728be555518bbe8a0f374b86ecaf16e9f41d3bb81e355eda4555e2cf3aff83cfac",
            "type": "pubkey"
          }
        }
      ],
      "hex": "01000000010000000000000000000000000000000000000000000000000000000000000000ffffffff0804ffff001d022e08ffffffff0100f2052a0100000043410485664310ee2fdef4af3aea13f6e9f9b7c244a406f80f12b2cc2731b9b9434ac5728be555518bbe8a0f374b86ecaf16e9f41d3bb81e355eda4555e2cf3aff83cfac00000000"
    }
  ]
}