{
  "hash": "000000003078260ed6e02550a80eca179ef25aff17039fdece572d90804a9aff",
  "confirmations": 48232,
  "height": 4866,
  "version": 1,
  "versionHex": "00000001",
  "merkleroot": "01fb244a42cd909f6ef6e229a872fd7851e4bd826e7595e5978089fdedaa06e6",
  "time": 1235048128,
  "mediantime": 1235045332,
  "nonce": 1467949,
  "bits": "1d00ffff",
  "difficulty": 1,
  "chainwork": "0000000000000000000000000000000000000000000000000000130313031303",
  "nTx": 1,
  "previousblockhash": "000000002a49275c5249f91f455a4844ca84e46f5feb2b3b53fbb5a4b01bfa56",
  "nextblockhash": "00000000c571818a30ca83344628844c6b56b8ed1092aa26ae8f136a40710dea",
  "strippedsize": 216,
  "size": 216,
  "weight": 864,
  "tx": [
    {
      "txid": "01fb244a42cd909f6ef6e229a872fd7851e4bd826e7595e5978089fdedaa06e6",
      "hash": "01fb244a42cd909f6ef6e229a872fd7851e4bd826e7595e5978089fdedaa06e6",
      "version": 1,
      "size": 135,
      "vsize": 135,
      "weight": 540,
      "locktime": 0,
      "vin": [
        {
          "coinbase": "04ffff001d024905",
          "sequence": 4294967295
        }
      ],
      "vout": [
        {
          "value": 50.0,
          "n": 0,
          "scriptPubKey": {
            "asm": "04dac06cc582dc0ab6e33242030328597ed2b92776da63ba6a6dd85a16028be6722f6d8bde91eced1d248006797a4fbb8f78b0f234bdd23a4ac4fad879dea0ea1e OP_CHECKSIG",
            "desc": "pk(04dac06cc582dc0ab6e33242030328597ed2b92776da63ba6a6dd85a16028be6722f6d8bde91eced1d248006797a4fbb8f78b0f234bdd23a4ac4fad879dea0ea1e)#efzt3elr",
            "hex": "4104dac06cc582dc0ab6e33242030328597ed2b92776da63ba6a6dd85a16028be6722f6d8bde91eced1d248006797a4fbb8f78b0f234bdd23a4ac4fad879dea0ea1eac",
            "type": "pubkey"
          }
        }
      ],
      "hex": "01000000010000000000000000000000000000000000000000000000000000000000000000ffffffff0804ffff001d024905ffffffff0100f2052a01000000434104dac06cc582dc0ab6e33242030328597ed2b92776da63ba6a6dd85a16028be6722f6d8bde91eced1d248006797a4fbb8f78b0f234bdd23a4ac4fad879dea0ea1eac00000000"
    }
  ]
}