{
  "hash": "0000000061c197c566170b6a3672d18224c5f2a5579ddb00ca67631947c4b8a2",
  "confirmations": 44945,
  "height": 8153,
  "version": 1,
  "versionHex": "00000001",
  "merkleroot": "98ab4af81d61209e1b429132ae78e4c7fc8fb13ca6b393d7461bed415b518f38",
  "time": 1237575475,
  "mediantime": 1237572248,
  "nonce": 208400901,
  "bits": "1d00ffff",
  "difficulty": 1,
  "chainwork": "00000000000000000000000000000000000000000000000000001fda1fda1fda",
  "nTx": 1,
  "previousblockhash": "0000000048f553e934ae3a5bb0f69a69454fbe22b2ec2badb6e2e0db3f8e42c9",
  "nextblockhash": "0000000052f267644d3dc38d7f066b8aec0823062211ab1e2e22ea61849adace",
  "strippedsize": 216,
  "size": 216,
  "weight": 864,
  "tx": [
    {
      "txid": "98ab4af81d61209e1b429132ae78e4c7fc8fb13ca6b393d7461bed415b518f38",
      "hash": "98ab4af81d61209e1b429132ae78e4c7fc8fb13ca6b393d7461bed415b518f38",
      "version": 1,
      "size": 135,
      "vsize": 135,
      "weight": 540,
      "locktime": 0,
      "vin": [
        {
          "coinbase": "04ffff001d02a200",
          "sequence": 4294967295
        }
      ],
      "vout": [
        {
          "value": 50.0,
          "n": 0,
          "scriptPubKey": {
            "asm": "04d921f158eff1d2e030d95221c7f5327baf45aaffe27a60e4ad574a53a8f19282cf09a521443fbbbb2e6a7bebf98090e63dfcf5159f04f1c677c847a28d44230f OP_CHECKSIG",
            "desc": "pk(04d921f158eff1d2e030d95221c7f5327baf45aaffe27a60e4ad574a53a8f19282cf09a521443fbbbb2e6a7bebf98090e63dfcf5159f04f1c677c847a28d44230f)#5lp0aeyy",
            "hex": "4104d921f158eff1d2e030d95221c7f5327baf45aaffe27a60e4ad574a53a8f19282cf09a521443fbbbb2e6a7bebf98090e63dfcf5159f04f1c677c847a28d44230fac",
            "type": "pubkey"
          }
        }
      ],
      "hex": "01000000010000000000000000000000000000000000000000000000000000000000000000ffffffff0804ffff001d02a200ffffffff0100f2052a01000000434104d921f158eff1d2e030d95221c7f5327baf45aaffe27a60e4ad574a53a8f19282cf09a521443fbbbb2e6a7bebf98090e63dfcf5159f04f1c677c847a28d44230fac00000000"
    }
  ]
}