{
  "hash": "00000000dfad4fe47dcfc1a35c3384420d18210cd64c1bae5219e2ef3b123459",
  "confirmations": 51727,
  "height": 1371,
  "version": 1,
  "versionHex": "00000001",
  "merkleroot": "28feaea02864062a5ccdcd2be3a8194177c31152774b44100fb06c4a697f76d9",
  "time": 1232659717,
  "mediantime": 1232655076,
  "nonce": 149634834,
  "bits": "1d00ffff",
  "difficulty": 1,
  "chainwork": "0000000000000000000000000000000000000000000000000000055c055c055c",
  "nTx": 1,
  "previousblockhash": "000000008fb163105b8774ac031d045e22f349ab7c60b0fe490e94e1b8a83e00",
  "nextblockhash": "0000000058c984f21ab7ab8bb10244736c262ac0af93db33a24dd361e829f34e",
  "strippedsize": 215,
  "size": 215,
  "weight": 860,
  "tx": [
    {
      "txid": "28feaea02864062a5ccdcd2be3a8194177c31152774b44100fb06c4a697f76d9",
      "hash": "28feaea02864062a5ccdcd2be3a8194177c31152774b44100fb06c4a697f76d9",
      "version": 1,
      "size": 134,
      "vsize": 134,
      "weight": 536,
      "locktime": 0,
      "vin": [
        {
          "coinbase": "04ffff001d0102",
          "sequence": 4294967295
        }
      ],
      "vout": [
        {
          "value": 50.0,
          "n": 0,
          "scriptPubKey": {
            "asm": "044d6a60780d77f770e7c931a2b43166c028ed13a1828468af940bc07d42059ff5d071aa19118f72e3a4e626c6680e907a5f7eb648c00b372d4f34b5832a55fed4 OP_CHECKSIG",
            "desc": "pk(044d6a60780d77f770e7c931a2b43166c028ed13a1828468af940bc07d42059ff5d071aa19118f72e3a4e626c6680e907a5f7eb648c00b372d4f34b5832a55fed4)#0vjpfman",
            "hex": "41044d6a60780d77f770e7c931a2b43166c028ed13a1828468af940bc07d42059ff5d071aa19118f72e3a4e626c6680e907a5f7eb648c00b372d4f34b5832a55fed4ac",
            "type": "pubkey"
          }
        }
      ],
      "hex": "01000000010000000000000000000000000000000000000000000000000000000000000000ffffffff0704ffff001d0102ffffffff0100f2052a010000004341044d6a60780d77f770e7c931a2b43166c028ed13a1828468af940bc07d42059ff5d071aa19118f72e3a4e626c6680e907a5f7eb648c00b372d4f34b5832a55fed4ac00000000"
    }
  ]
}