{
  "hash": "000000007ab2239db87fb2d6fcb38cf7b25f3ebd08128139b3048da70163d559",
  "confirmations": 48566,
  "height": 4532,
  "version": 1,
  "versionHex": "00000001",
  "merkleroot": "8c4aa4e80913e24b45e9a6e108192e50717cefd535bc8259d7ca520bf84a0cf0",
  "time": 1234805559,
  "mediantime": 1234800567,
  "nonce": 893769776,
  "bits": "1d00ffff",
  "difficulty": 1,
  "chainwork": "000000000000000000000000000000000000000000000000000011b511b511b5",
  "nTx": 1,
  "previousblockhash": "00000000ccff6d9265224ce26285b94ee0485984c30ee395383533941d65fa11",
  "nextblockhash": "000000001265a58229b724267f3c9058d97cc33541932d54dc858317a0fdd3b6",
  "strippedsize": 216,
  "size": 216,
  "weight": 864,
  "tx": [
    {
      "txid": "8c4aa4e80913e24b45e9a6e108192e50717cefd535bc8259d7ca520bf84a0cf0",
      "hash": "8c4aa4e80913e24b45e9a6e108192e50717cefd535bc8259d7ca520bf84a0cf0",
      "version": 1,
      "size": 135,
      "vsize": 135,
      "weight": 540,
      "locktime": 0,
      "vin": [
        {
          "coinbase": "04ffff001d025503",
          "sequence": 4294967295
        }
      ],
      "vout": [
        {
          "value": 50.0,
          "n": 0,
          "scriptPubKey": {
            "asm": "04a8338a5c7e91c24974bb10c8b06c560a2d84f0d990edf4198a0f5bb0c7e0dfdd6da4f478a18170de9c51420070df59b502a6ccc0b9e18b28d0b01a8153848b1d OP_CHECKSIG",
            "desc": "pk(04a8338a5c7e91c24974bb10c8b06c560a2d84f0d990edf4198a0f5bb0c7e0dfdd6da4f478a18170de9c51420070df59b502a6ccc0b9e18b28d0b01a8153848b1d)#ufnaef66",
            "hex": "4104a8338a5c7e91c24974bb10c8b06c560a2d84f0d990edf4198a0f5bb0c7e0dfdd6da4f478a18170de9c51420070df59b502a6ccc0b9e18b28d0b01a8153848b1dac",
            "type": "pubkey"
          }
        }
      ],
      "hex": "01000000010000000000000000000000000000000000000000000000000000000000000000ffffffff0804ffff001d025503ffffffff0100f2052a01000000434104a8338a5c7e91c24974bb10c8b06c560a2d84f0d990edf4198a0f5bb0c7e0dfdd6da4f478a18170de9c51420070df59b502a6ccc0b9e18b28d0b01a8153848b1dac00000000"
    }
  ]
}