{
  "hash": "000000008f346cd97b39692b44d0cfc824c4f19454bbde5f26f5d03434751fbc",
  "confirmations": 51661,
  "height": 1437,
  "version": 1,
  "versionHex": "00000001",
  "merkleroot": "1178c1501e2ee87e2e508924b1d3fbbd9f305ad8c88ebc95160cb9881ba51543",
  "time": 1232741180,
  "mediantime": 1232738782,
  "nonce": 3165530399,
  "bits": "1d00ffff",
  "difficulty": 1,
  "chainwork": "0000000000000000000000000000000000000000000000000000059e059e059e",
  "nTx": 1,
  "previousblockhash": "00000000c6bdeda56c538ca9a63a2f0e46c5e3df8c0eac955300f1964f5cb1a8",
  "nextblockhash": "000000000e262c2960b79e930fbf40dc1ab67fa5c74becf72251ecefd07e54ef",
  "strippedsize": 215,
  "size": 215,
  "weight": 860,
  "tx": [
    {
      "txid": "1178c1501e2ee87e2e508924b1d3fbbd9f305ad8c88ebc95160cb9881ba51543",
      "hash": "1178c1501e2ee87e2e508924b1d3fbbd9f305ad8c88ebc95160cb9881ba51543",
      "version": 1,
      "size": 134,
      "vsize": 134,
      "weight": 536,
      "locktime": 0,
      "vin": [
        {
          "coinbase": "04ffff001d0176",
          "sequence": 4294967295
        }
      ],
      "vout": [
        {
          "value": 50.0,
          "n": 0,
          "scriptPubKey": {
            "asm": "048f72b8f10685453a883bcce9bf5f45722b88f82d28909ac9d5bd8bd22c1eef48cc3cf2b1aa1f3fd8db9613c414092fe48f2cf6a7d2424868f3a5abbf8b23d077 OP_CHECKSIG",
            "desc": "pk(048f72b8f10685453a883bcce9bf5f45722b88f82d28909ac9d5bd8bd22c1eef48cc3cf2b1aa1f3fd8db9613c414092fe48f2cf6a7d2424868f3a5abbf8b23d077)#rzchf5tn",
            "hex": "41048f72b8f10685453a883bcce9bf5f45722b88f82d28909ac9d5bd8bd22c1eef48cc3cf2b1aa1f3fd8db9613c414092fe48f2cf6a7d2424868f3a5abbf8b23d077ac",
            "type": "pubkey"
          }
        }
      ],
      "hex": "01000000010000000000000000000000000000000000000000000000000000000000000000ffffffff0704ffff001d0176ffffffff0100f2052a010000004341048f72b8f10685453a883bcce9bf5f45722b88f82d28909ac9d5bd8bd22c1eef48cc3cf2b1aa1f3fd8db9613c414092fe48f2cf6a7d2424868f3a5abbf8b23d077ac00000000"
    }
  ]
}