{
  "hash": "00000000ecaa563e4407b0cdde043391f83f07cc7dcb026fb2c01ff62f3b2b16",
  "confirmations": 45207,
  "height": 7891,
  "version": 1,
  "versionHex": "00000001",
  "merkleroot": "b4305fdf3b897fdc0db8d38af90865d6d3d8e99094c67040a9a48b75e53d5da2",
  "time": 1237384458,
  "mediantime": 1237381737,
  "nonce": 232458697,
  "bits": "1d00ffff",
  "difficulty": 1,
  "chainwork": "00000000000000000000000000000000000000000000000000001ed41ed41ed4",
  "nTx": 1,
  "previousblockhash": "00000000396bd3ff8aecd3aa578b58821f2f9887d478dab6bcf1c0a1cc0143d1",
  "nextblockhash": "000000004d30f3f58abd9c4da01b39d57b8e5ec9121e2783306780c7279f98b7",
  "strippedsize": 215,
  "size": 215,
  "weight": 860,
  "tx": [
    {
      "txid": "b4305fdf3b897fdc0db8d38af90865d6d3d8e99094c67040a9a48b75e53d5da2",
      "hash": "b4305fdf3b897fdc0db8d38af90865d6d3d8e99094c67040a9a48b75e53d5da2",
      "version": 1,
      "size": 134,
      "vsize": 134,
      "weight": 536,
      "locktime": 0,
      "vin": [
        {
          "coinbase": "04ffff001d0132",
          "sequence": 4294967295
        }
      ],
      "vout": [
        {
          "value": 50.0,
          "n": 0,
          "scriptPubKey": {
            "asm": "04cfb54d65f299cf28475906fe0202fa7d898cc6cf57cf181cfbf82b356e29d993436a6a88ad018174674f46d9053b45e1733ace10c8179ed0326ae15c9dafb1b7 OP_CHECKSIG",
            "desc": "pk(04cfb54d65f299cf28475906fe0202fa7d898cc6cf57cf181cfbf82b356e29d993436a6a88ad018174674f46d9053b45e1733ace10c8179ed0326ae15c9dafb1b7)#lfvxh4m8",
            "hex": "4104cfb54d65f299cf28475906fe0202fa7d898cc6cf57cf181cfbf82b356e29d993436a6a88ad018174674f46d9053b45e1733ace10c8179ed0326ae15c9dafb1b7ac",
            "type": "pubkey"
          }
        }
      ],
      "hex": "01000000010000000000000000000000000000000000000000000000000000000000000000ffffffff0704ffff001d0132ffffffff0100f2052a01000000434104cfb54d65f299cf28475906fe0202fa7d898cc6cf57cf181cfbf82b356e29d993436a6a88ad018174674f46d9053b45e1733ace10c8179ed0326ae15c9dafb1b7ac00000000"
    }
  ]
}