{
  "hash": "000000009bf8117c8dba39cb4aeb72a6297286de4cd628481acab45dd645166d",
  "confirmations": 44476,
  "height": 8622,
  "version": 1,
  "versionHex": "00000001",
  "merkleroot": "f514c55cfddf96f23636684f3d39f0c9bff0952d798d5af2bd5c3c1dc38ed47d",
  "time": 1237965079,
  "mediantime": 1237961205,
  "nonce": 394253344,
  "bits": "1d00ffff",
  "difficulty": 1,
  "chainwork": "000000000000000000000000000000000000000000000000000021af21af21af",
  "nTx": 1,
  "previousblockhash": "000000006b42e1d71181aadb7c104c0f7d68407fd576158c467427367afb3501",
  "nextblockhash": "000000009b7725ad1c7e9b3b2e0d80436d6013d620ce80c94e4d210ee6d75f15",
  "strippedsize": 216,
  "size": 216,
  "weight": 864,
  "tx": [
    {
      "txid": "f514c55cfddf96f23636684f3d39f0c9bff0952d798d5af2bd5c3c1dc38ed47d",
      "hash": "f514c55cfddf96f23636684f3d39f0c9bff0952d798d5af2bd5c3c1dc38ed47d",
      "version": 1,
      "size": 135,
      "vsize": 135,
      "weight": 540,
      "locktime": 0,
      "vin": [
        {
          "coinbase": "04ffff001d02eb09",
          "sequence": 4294967295
        }
      ],
      "vout": [
        {
          "value": 50.0,
          "n": 0,
          "scriptPubKey": {
            "asm": "04384214f57a77e6060ede9a6cbe60f67945c0ad125c9e46eef7f6d835ed202bfe3f74b8718c77b77e1640e14d3f7f2ee4b378c66b9b304f65a45c7e2e5dc08e6d OP_CHECKSIG",
            "desc": "pk(04384214f57a77e6060ede9a6cbe60f67945c0ad125c9e46eef7f6d835ed202bfe3f74b8718c77b77e1640e14d3f7f2ee4b378c66b9b304f65a45c7e2e5dc08e6d)#qpwhlyjg",
            "hex": "4104384214f57a77e6060ede9a6cbe60f67945c0ad125c9e46eef7f6d835ed202bfe3f74b8718c77b77e1640e14d3f7f2ee4b378c66b9b304f65a45c7e2e5dc08e6dac",
            "type": "pubkey"
          }
        }
      ],
      "hex": "01000000010000000000000000000000000000000000000000000000000000000000000000ffffffff0804ffff001d02eb09ffffffff0100f2052a01000000434104384214f57a77e6060ede9a6cbe60f67945c0ad125c9e46eef7f6d835ed202bfe3f74b8718c77b77e1640e14d3f7f2ee4b378c66b9b304f65a45c7e2e5dc08e6dac00000000"
    }
  ]
}