{
  "hash": "000000002d05816adcfec765c0df902a8f030afddd557e40f827af8a73cac064",
  "confirmations": 50362,
  "height": 2736,
  "version": 1,
  "versionHex": "00000001",
  "merkleroot": "d8489708cc3bae311e36938c5fa2f0d348452e4735b4a4489ef1d037f3b65eb3",
  "time": 1233587742,
  "mediantime": 1233584634,
  "nonce": 2001040934,
  "bits": "1d00ffff",
  "difficulty": 1,
  "chainwork": "00000000000000000000000000000000000000000000000000000ab10ab10ab1",
  "nTx": 1,
  "previousblockhash": "00000000ab16efa67f626c7d1153fe05edfe163d5dc3f47ed8b3e9913f2a401c",
  "nextblockhash": "0000000092456d6b560a6eafcf1e0b2ea9dd1b109e68cb028adf506d014ea6f2",
  "strippedsize": 216,
  "size": 216,
  "weight": 864,
  "tx": [
    {
      "txid": "d8489708cc3bae311e36938c5fa2f0d348452e4735b4a4489ef1d037f3b65eb3",
      "hash": "d8489708cc3bae311e36938c5fa2f0d348452e4735b4a4489ef1d037f3b65eb3",
      "version": 1,
      "size": 135,
      "vsize": 135,
      "weight": 540,
      "locktime": 0,
      "vin": [
        {
          "coinbase": "04ffff001d024a05",
          "sequence": 4294967295
        }
      ],
      "vout": [
        {
          "value": 50.0,
          "n": 0,
          "scriptPubKey": {
            "asm": "044ebc309b66daf31ba0d997730aadd14d8c985b787ec4cb15082fa23662231188c5f15823f00e293f329e3d349d33232359a032a499dd4eb3314296821630f134 OP_CHECKSIG",
            "desc": "pk(044ebc309b66daf31ba0d997730aadd14d8c985b787ec4cb15082fa23662231188c5f15823f00e293f329e3d349d33232359a032a499dd4eb3314296821630f134)#p9nsedss",
            "hex": "41044ebc309b66daf31ba0d997730aadd14d8c985b787ec4cb15082fa23662231188c5f15823f00e293f329e3d349d33232359a032a499dd4eb3314296821630f134ac",
            "type": "pubkey"
          }
        }
      ],
      "hex": "01000000010000000000000000000000000000000000000000000000000000000000000000ffffffff0804ffff001d024a05ffffffff0100f2052a010000004341044ebc309b66daf31ba0d997730aadd14d8c985b787ec4cb15082fa23662231188c5f15823f00e293f329e3d349d33232359a032a499dd4eb3314296821630f134ac00000000"
    }
  ]
}