{
  "hash": "00000000292b0f6a658cfab5e4d69a7d5753a6fef74ced4ef82e7026042a97de",
  "confirmations": 52451,
  "height": 647,
  "version": 1,
  "versionHex": "00000001",
  "merkleroot": "03cb96900693a9de9ed63e9b40efa54d5717f8c94607c9c875f545a9f5517b05",
  "time": 1232066628,
  "mediantime": 1232064487,
  "nonce": 1410126369,
  "bits": "1d00ffff",
  "difficulty": 1,
  "chainwork": "0000000000000000000000000000000000000000000000000000028802880288",
  "nTx": 1,
  "previousblockhash": "00000000417404b256f7fb76d9b6ec6a8077536369d120ac8ad1aa246b6e9da1",
  "nextblockhash": "0000000055f9514359114a754ab74471f39a5fe6034ca6d05ec14e2d03dbd626",
  "strippedsize": 216,
  "size": 216,
  "weight": 864,
  "tx": [
    {
      "txid": "03cb96900693a9de9ed63e9b40efa54d5717f8c94607c9c875f545a9f5517b05",
      "hash": "03cb96900693a9de9ed63e9b40efa54d5717f8c94607c9c875f545a9f5517b05",
      "version": 1,
      "size": 135,
      "vsize": 135,
      "weight": 540,
      "locktime": 0,
      "vin": [
        {
          "coinbase": "04ffff001d025f07",
          "sequence": 4294967295
        }
      ],
      "vout": [
        {
          "value": 50.0,
          "n": 0,
          "scriptPubKey": {
            "asm": "04fb1803f0cd3691bcdaf4d3d3076f6273dbe23c27a6dcd8c02924c76b2998f49293961eea489b34cdb10df52c70df89dd00153b6ff8d91ea9dadabfe0ac1ce897 OP_CHECKSIG",
            "desc": "pk(04fb1803f0cd3691bcdaf4d3d3076f6273dbe23c27a6dcd8c02924c76b2998f49293961eea489b34cdb10df52c70df89dd00153b6ff8d91ea9dadabfe0ac1ce897)#f6djvhqq",
            "hex": "4104fb1803f0cd3691bcdaf4d3d3076f6273dbe23c27a6dcd8c02924c76b2998f49293961eea489b34cdb10df52c70df89dd00153b6ff8d91ea9dadabfe0ac1ce897ac",
            "type": "pubkey"
          }
        }
      ],
      "hex": "01000000010000000000000000000000000000000000000000000000000000000000000000ffffffff0804ffff001d025f07ffffffff0100f2052a01000000434104fb1803f0cd3691bcdaf4d3d3076f6273dbe23c27a6dcd8c02924c76b2998f49293961eea489b34cdb10df52c70df89dd00153b6ff8d91ea9dadabfe0ac1ce897ac00000000"
    }
  ]
}