{
  "hash": "00000000f8e67ddf74edec45187d3fe67ba61a0d825ab61495d6a6b5533819f7",
  "confirmations": 44247,
  "height": 8851,
  "version": 1,
  "versionHex": "00000001",
  "merkleroot": "948a47beb5e019fc2e6de5c1ad0ad20978e9e14a81046b296b0c5836ace7313e",
  "time": 1238138936,
  "mediantime": 1238134797,
  "nonce": 275228190,
  "bits": "1d00ffff",
  "difficulty": 1,
  "chainwork": "0000000000000000000000000000000000000000000000000000229422942294",
  "nTx": 1,
  "previousblockhash": "000000002bcdd927667a8a705239465c576bb36a0536e89065f590d4b8fd5805",
  "nextblockhash": "000000001a1bfbfab9b684c23501319175661d4a403e0b76dedf5b051a6713e9",
  "strippedsize": 216,
  "size": 216,
  "weight": 864,
  "tx": [
    {
      "txid": "948a47beb5e019fc2e6de5c1ad0ad20978e9e14a81046b296b0c5836ace7313e",
      "hash": "948a47beb5e019fc2e6de5c1ad0ad20978e9e14a81046b296b0c5836ace7313e",
      "version": 1,
      "size": 135,
      "vsize": 135,
      "weight": 540,
      "locktime": 0,
      "vin": [
        {
          "coinbase": "04ffff001d029803",
          "sequence": 4294967295
        }
      ],
      "vout": [
        {
          "value": 50.0,
          "n": 0,
          "scriptPubKey": {
            "asm": "0448291f373037cdf1f5acc473cb079bb930222cac70af58d5f048554212bb3f9336cc068025a40e9214781e353577079761523053cafcf52e21f50f0e8fa58d54 OP_CHECKSIG",
            "desc": "pk(0448291f373037cdf1f5acc473cb079bb930222cac70af58d5f048554212bb3f9336cc068025a40e9214781e353577079761523053cafcf52e21f50f0e8fa58d54)#plxemtnz",
            "hex": "410448291f373037cdf1f5acc473cb079bb930222cac70af58d5f048554212bb3f9336cc068025a40e9214781e353577079761523053cafcf52e21f50f0e8fa58d54ac",
            "type": "pubkey"
          }
        }
      ],
      "hex": "01000000010000000000000000000000000000000000000000000000000000000000000000ffffffff0804ffff001d029803ffffffff0100f2052a0100000043410448291f373037cdf1f5acc473cb079bb930222cac70af58d5f048554212bb3f9336cc068025a40e9214781e353577079761523053cafcf52e21f50f0e8fa58d54ac00000000"
    }
  ]
}