{
  "hash": "00000000cc989013d30098040630e0ba11e506d9a7d3463308aa39bb5fb58063",
  "confirmations": 52080,
  "height": 1018,
  "version": 1,
  "versionHex": "00000001",
  "merkleroot": "4ff149267a5b1e55e3d90a5a5b451dd6d3c2c82b26b96a599dda0ed5585f1f3d",
  "time": 1232361706,
  "mediantime": 1232358388,
  "nonce": 53024685,
  "bits": "1d00ffff",
  "difficulty": 1,
  "chainwork": "000000000000000000000000000000000000000000000000000003fb03fb03fb",
  "nTx": 1,
  "previousblockhash": "0000000084fbcc1de75dba046dd98e5d1310e898923c85da165452da9df3ce1c",
  "nextblockhash": "0000000041d393d6c69950c23ed5d3e349c76c65db6e468537a5f3e7762036e7",
  "strippedsize": 216,
  "size": 216,
  "weight": 864,
  "tx": [
    {
      "txid": "4ff149267a5b1e55e3d90a5a5b451dd6d3c2c82b26b96a599dda0ed5585f1f3d",
      "hash": "4ff149267a5b1e55e3d90a5a5b451dd6d3c2c82b26b96a599dda0ed5585f1f3d",
      "version": 1,
      "size": 135,
      "vsize": 135,
      "weight": 540,
      "locktime": 0,
      "vin": [
        {
          "coinbase": "04ffff001d026e01",
          "sequence": 4294967295
        }
      ],
      "vout": [
        {
          "value": 50.0,
          "n": 0,
          "scriptPubKey": {
            "asm": "044e01f16fe203dbfd8110fd636f42e69bd2fa9e0fef913f00554e4412cb1cae070296f95c6b64f3fdcb7ee9dc838f20b992077e839703b3c2c5427e90e5afd0d1 OP_CHECKSIG",
            "desc": "pk(044e01f16fe203dbfd8110fd636f42e69bd2fa9e0fef913f00554e4412cb1cae070296f95c6b64f3fdcb7ee9dc838f20b992077e839703b3c2c5427e90e5afd0d1)#lzh7wq84",
            "hex": "41044e01f16fe203dbfd8110fd636f42e69bd2fa9e0fef913f00554e4412cb1cae070296f95c6b64f3fdcb7ee9dc838f20b992077e839703b3c2c5427e90e5afd0d1ac",
            "type": "pubkey"
          }
        }
      ],
      "hex": "01000000010000000000000000000000000000000000000000000000000000000000000000ffffffff0804ffff001d026e01ffffffff0100f2052a010000004341044e01f16fe203dbfd8110fd636f42e69bd2fa9e0fef913f00554e4412cb1cae070296f95c6b64f3fdcb7ee9dc838f20b992077e839703b3c2c5427e90e5afd0d1ac00000000"
    }
  ]
}