{
  "hash": "00000000ff0f28a34a9fe0eca704612149b0ab4317ec75f37e86c41adba879a2",
  "confirmations": 45428,
  "height": 7670,
  "version": 1,
  "versionHex": "00000001",
  "merkleroot": "7bee288f4c863d14025e11168ea7e6083f54723b4f6731922dd486e762a02d9b",
  "time": 1237216823,
  "mediantime": 1237213762,
  "nonce": 174257716,
  "bits": "1d00ffff",
  "difficulty": 1,
  "chainwork": "00000000000000000000000000000000000000000000000000001df71df71df7",
  "nTx": 1,
  "previousblockhash": "00000000cd78da22f490f21db457237ac26725852aa58aa0650cb4e1c6885a47",
  "nextblockhash": "0000000015efcde5bd5c82d81cd6a4f8f7b8a8cbe16c9190735ca3e054b3ccf3",
  "strippedsize": 216,
  "size": 216,
  "weight": 864,
  "tx": [
    {
      "txid": "7bee288f4c863d14025e11168ea7e6083f54723b4f6731922dd486e762a02d9b",
      "hash": "7bee288f4c863d14025e11168ea7e6083f54723b4f6731922dd486e762a02d9b",
      "version": 1,
      "size": 135,
      "vsize": 135,
      "weight": 540,
      "locktime": 0,
      "vin": [
        {
          "coinbase": "04ffff001d029a03",
          "sequence": 4294967295
        }
      ],
      "vout": [
        {
          "value": 50.0,
          "n": 0,
          "scriptPubKey": {
            "asm": "04c323be898e4e1b6067366fefb79b968ec2c42470e82d0f6a56cadf814e3989d61bb37e6c732f6a902516b2e719e4ac94cd453d7ed9c517ffa4c732579e3da056 OP_CHECKSIG",
            "desc": "pk(04c323be898e4e1b6067366fefb79b968ec2c42470e82d0f6a56cadf814e3989d61bb37e6c732f6a902516b2e719e4ac94cd453d7ed9c517ffa4c732579e3da056)#u2lw8qws",
            "hex": "4104c323be898e4e1b6067366fefb79b968ec2c42470e82d0f6a56cadf814e3989d61bb37e6c732f6a902516b2e719e4ac94cd453d7ed9c517ffa4c732579e3da056ac",
            "type": "pubkey"
          }
        }
      ],
      "hex": "01000000010000000000000000000000000000000000000000000000000000000000000000ffffffff0804ffff001d029a03ffffffff0100f2052a01000000434104c323be898e4e1b6067366fefb79b968ec2c42470e82d0f6a56cadf814e3989d61bb37e6c732f6a902516b2e719e4ac94cd453d7ed9c517ffa4c732579e3da056ac00000000"
    }
  ]
}