{
  "hash": "000000009e746cb127e60936419f04c4d900daa968ee64c5e6fd54d275f433ae",
  "confirmations": 49401,
  "height": 3697,
  "version": 1,
  "versionHex": "00000001",
  "merkleroot": "4673014e07dca1e853c6c7f74f4f368dac2fae17a3a1aed90e3f12cff688e749",
  "time": 1234230683,
  "mediantime": 1234228238,
  "nonce": 117729840,
  "bits": "1d00ffff",
  "difficulty": 1,
  "chainwork": "00000000000000000000000000000000000000000000000000000e720e720e72",
  "nTx": 1,
  "previousblockhash": "00000000b1bd8f4e875a01b9421d70c519309e4af3a5010b8cddbaec32ec8f75",
  "nextblockhash": "0000000007161cc22392815a573bfa97cc04debaecf70bc38f8eda2dfc832b5f",
  "strippedsize": 216,
  "size": 216,
  "weight": 864,
  "tx": [
    {
      "txid": "4673014e07dca1e853c6c7f74f4f368dac2fae17a3a1aed90e3f12cff688e749",
      "hash": "4673014e07dca1e853c6c7f74f4f368dac2fae17a3a1aed90e3f12cff688e749",
      "version": 1,
      "size": 135,
      "vsize": 135,
      "weight": 540,
      "locktime": 0,
      "vin": [
        {
          "coinbase": "04ffff001d020307",
          "sequence": 4294967295
        }
      ],
      "vout": [
        {
          "value": 50.0,
          "n": 0,
          "scriptPubKey": {
            "asm": "04beec02c22f860c3fbeacf2b38b1b9f2698b5f5e183ac1785ccc06e051ef8fd6b8436455312f9925bb31145892953880e2ed5a644ae3074a4f16e3ccca49626bf OP_CHECKSIG",
            "desc": "pk(04beec02c22f860c3fbeacf2b38b1b9f2698b5f5e183ac1785ccc06e051ef8fd6b8436455312f9925bb31145892953880e2ed5a644ae3074a4f16e3ccca49626bf)#hkhnx7g4",
            "hex": "4104beec02c22f860c3fbeacf2b38b1b9f2698b5f5e183ac1785ccc06e051ef8fd6b8436455312f9925bb31145892953880e2ed5a644ae3074a4f16e3ccca49626bfac",
            "type": "pubkey"
          }
        }
      ],
      "hex": "01000000010000000000000000000000000000000000000000000000000000000000000000ffffffff0804ffff001d020307ffffffff0100f2052a01000000434104beec02c22f860c3fbeacf2b38b1b9f2698b5f5e183ac1785ccc06e051ef8fd6b8436455312f9925bb31145892953880e2ed5a644ae3074a4f16e3ccca49626bfac00000000"
    }
  ]
}