{
  "hash": "000000008af13771c9ceca42ae1d893adfff4216ed036690a8908c01d663b9f1",
  "confirmations": 47149,
  "height": 5949,
  "version": 1,
  "versionHex": "00000001",
  "merkleroot": "15b2dc1a0d877ec57ea3e51c362b80f0102b4a00c822f2de14cc7de7914fbe3c",
  "time": 1235888199,
  "mediantime": 1235883950,
  "nonce": 2926541875,
  "bits": "1d00ffff",
  "difficulty": 1,
  "chainwork": "0000000000000000000000000000000000000000000000000000173e173e173e",
  "nTx": 1,
  "previousblockhash": "000000009392d9a7a8306f7db4ae4fabb840922df4d113f56d9d46fbd3155e53",
  "nextblockhash": "000000003d5f612df33fd402bdf9b8aa21249d31af996003cbd5276af86b2cb0",
  "strippedsize": 216,
  "size": 216,
  "weight": 864,
  "tx": [
    {
      "txid": "15b2dc1a0d877ec57ea3e51c362b80f0102b4a00c822f2de14cc7de7914fbe3c",
      "hash": "15b2dc1a0d877ec57ea3e51c362b80f0102b4a00c822f2de14cc7de7914fbe3c",
      "version": 1,
      "size": 135,
      "vsize": 135,
      "weight": 540,
      "locktime": 0,
      "vin": [
        {
          "coinbase": "04ffff001d02f903",
          "sequence": 4294967295
        }
      ],
      "vout": [
        {
          "value": 50.0,
          "n": 0,
          "scriptPubKey": {
            "asm": "04e05f2bd5ac3c0a8941fcfce6b51f89ea7cb79a3ef2db1031371c656e332c84470239b130d0c8586f7fae22b8609914e0fbb9649d08bbe3ae67eaa3435ad1d587 OP_CHECKSIG",
            "desc": "pk(04e05f2bd5ac3c0a8941fcfce6b51f89ea7cb79a3ef2db1031371c656e332c84470239b130d0c8586f7fae22b8609914e0fbb9649d08bbe3ae67eaa3435ad1d587)#p44hm7ra",
            "hex": "4104e05f2bd5ac3c0a8941fcfce6b51f89ea7cb79a3ef2db1031371c656e332c84470239b130d0c8586f7fae22b8609914e0fbb9649d08bbe3ae67eaa3435ad1d587ac",
            "type": "pubkey"
          }
        }
      ],
      "hex": "01000000010000000000000000000000000000000000000000000000000000000000000000ffffffff0804ffff001d02f903ffffffff0100f2052a01000000434104e05f2bd5ac3c0a8941fcfce6b51f89ea7cb79a3ef2db1031371c656e332c84470239b130d0c8586f7fae22b8609914e0fbb9649d08bbe3ae67eaa3435ad1d587ac00000000"
    }
  ]
}