{
  "hash": "0000000040621f33019e2f9d8bb8bd0b666aad435c94df1fb86e64b8146cf86b",
  "confirmations": 44741,
  "height": 8357,
  "version": 1,
  "versionHex": "00000001",
  "merkleroot": "b9eecfc1cc5906eb54ae8e1a98a26a3abe040e1e2fa11d730e300d2a14905326",
  "time": 1237772145,
  "mediantime": 1237768336,
  "nonce": 14345662,
  "bits": "1d00ffff",
  "difficulty": 1,
  "chainwork": "000000000000000000000000000000000000000000000000000020a620a620a6",
  "nTx": 1,
  "previousblockhash": "0000000007ad878503edfe3067070222fe23fb3587f6a23729df9408447cb0f7",
  "nextblockhash": "0000000080a79cd6eb65fe147f655d0f17a00e2629dba2800a1563982cf91f12",
  "strippedsize": 216,
  "size": 216,
  "weight": 864,
  "tx": [
    {
      "txid": "b9eecfc1cc5906eb54ae8e1a98a26a3abe040e1e2fa11d730e300d2a14905326",
      "hash": "b9eecfc1cc5906eb54ae8e1a98a26a3abe040e1e2fa11d730e300d2a14905326",
      "version": 1,
      "size": 135,
      "vsize": 135,
      "weight": 540,
      "locktime": 0,
      "vin": [
        {
          "coinbase": "04ffff001d026d01",
          "sequence": 4294967295
        }
      ],
      "vout": [
        {
          "value": 50.0,
          "n": 0,
          "scriptPubKey": {
            "asm": "04bd2f7f3dc24bf25b7d206ee8ef8cca04c4b0a76b0f50b09c2fc7773412f349af8c86ab9f2ef693a4af15e6673778123cd7912398b213899617bf7ae18d1317a9 OP_CHECKSIG",
            "desc": "pk(04bd2f7f3dc24bf25b7d206ee8ef8cca04c4b0a76b0f50b09c2fc7773412f349af8c86ab9f2ef693a4af15e6673778123cd7912398b213899617bf7ae18d1317a9)#dtlcag4s",
            "hex": "4104bd2f7f3dc24bf25b7d206ee8ef8cca04c4b0a76b0f50b09c2fc7773412f349af8c86ab9f2ef693a4af15e6673778123cd7912398b213899617bf7ae18d1317a9ac",
            "type": "pubkey"
          }
        }
      ],
      "hex": "01000000010000000000000000000000000000000000000000000000000000000000000000ffffffff0804ffff001d026d01ffffffff0100f2052a01000000434104bd2f7f3dc24bf25b7d206ee8ef8cca04c4b0a76b0f50b09c2fc7773412f349af8c86ab9f2ef693a4af15e6673778123cd7912398b213899617bf7ae18d1317a9ac00000000"
    }
  ]
}