{
  "hash": "00000000c5b40b08980d9f7e258b00cc84d0a476bbcd072a2993db824d3e9ef1",
  "confirmations": 48369,
  "height": 4729,
  "version": 1,
  "versionHex": "00000001",
  "merkleroot": "26e5aba092da7a128282a920c299444f388da7ddf85138b99c9560cba2dae389",
  "time": 1234947983,
  "mediantime": 1234944694,
  "nonce": 137062682,
  "bits": "1d00ffff",
  "difficulty": 1,
  "chainwork": "0000000000000000000000000000000000000000000000000000127a127a127a",
  "nTx": 1,
  "previousblockhash": "00000000c6e535100cde044fb3af02112156265a176ba5e2e12f4cb5882254f7",
  "nextblockhash": "0000000074619989d19535c1633949e99728d467ba4056480c95116e53c86e1c",
  "strippedsize": 215,
  "size": 215,
  "weight": 860,
  "tx": [
    {
      "txid": "26e5aba092da7a128282a920c299444f388da7ddf85138b99c9560cba2dae389",
      "hash": "26e5aba092da7a128282a920c299444f388da7ddf85138b99c9560cba2dae389",
      "version": 1,
      "size": 134,
      "vsize": 134,
      "weight": 536,
      "locktime": 0,
      "vin": [
        {
          "coinbase": "04ffff001d013b",
          "sequence": 4294967295
        }
      ],
      "vout": [
        {
          "value": 50.0,
          "n": 0,
          "scriptPubKey": {
            "asm": "043ac9c2cebcc351a595fafb2ace08e676a1248ec8c78cb34694592f219644ac686d806b24394bb196ee9a38dc8c46a9ea96440d1bc676554a82a93dbaa69d9cc8 OP_CHECKSIG",
            "desc": "pk(043ac9c2cebcc351a595fafb2ace08e676a1248ec8c78cb34694592f219644ac686d806b24394bb196ee9a38dc8c46a9ea96440d1bc676554a82a93dbaa69d9cc8)#cz4r5fed",
            "hex": "41043ac9c2cebcc351a595fafb2ace08e676a1248ec8c78cb34694592f219644ac686d806b24394bb196ee9a38dc8c46a9ea96440d1bc676554a82a93dbaa69d9cc8ac",
            "type": "pubkey"
          }
        }
      ],
      "hex": "01000000010000000000000000000000000000000000000000000000000000000000000000ffffffff0704ffff001d013bffffffff0100f2052a010000004341043ac9c2cebcc351a595fafb2ace08e676a1248ec8c78cb34694592f219644ac686d806b24394bb196ee9a38dc8c46a9ea96440d1bc676554a82a93dbaa69d9cc8ac00000000"
    }
  ]
}