{
  "hash": "0000000090d2eeec877b8c4aace84e4a4cb6a0dd3757dca18baf40866d04e504",
  "confirmations": 46822,
  "height": 6276,
  "version": 1,
  "versionHex": "00000001",
  "merkleroot": "02b1911beda4314c4b1e0cafa55e07f4cf7e8991668adb1845286cd7be39822c",
  "time": 1236151731,
  "mediantime": 1236149680,
  "nonce": 5359455,
  "bits": "1d00ffff",
  "difficulty": 1,
  "chainwork": "0000000000000000000000000000000000000000000000000000188518851885",
  "nTx": 1,
  "previousblockhash": "000000005cfc10840d76b4a49410b51e38db0ef523bb8b5687e6d86965675d79",
  "nextblockhash": "000000001aa61392e330496cbc1a637e9254571f665ef6997ec35e8702a81e27",
  "strippedsize": 215,
  "size": 215,
  "weight": 860,
  "tx": [
    {
      "txid": "02b1911beda4314c4b1e0cafa55e07f4cf7e8991668adb1845286cd7be39822c",
      "hash": "02b1911beda4314c4b1e0cafa55e07f4cf7e8991668adb1845286cd7be39822c",
      "version": 1,
      "size": 134,
      "vsize": 134,
      "weight": 536,
      "locktime": 0,
      "vin": [
        {
          "coinbase": "04ffff001d0179",
          "sequence": 4294967295
        }
      ],
      "vout": [
        {
          "value": 50.0,
          "n": 0,
          "scriptPubKey": {
            "asm": "0475a070c6841013a2f29191588e28ff0e5e57b15ed997ae3b268b30e3a6635019ce4a5f1aef9abbafaf5a96a581ec9b3a0180fbd9a03513095855a0efbf336d99 OP_CHECKSIG",
            "desc": "pk(0475a070c6841013a2f29191588e28ff0e5e57b15ed997ae3b268b30e3a6635019ce4a5f1aef9abbafaf5a96a581ec9b3a0180fbd9a03513095855a0efbf336d99)#kj6f7wly",
            "hex": "410475a070c6841013a2f29191588e28ff0e5e57b15ed997ae3b268b30e3a6635019ce4a5f1aef9abbafaf5a96a581ec9b3a0180fbd9a03513095855a0efbf336d99ac",
            "type": "pubkey"
          }
        }
      ],
      "hex": "01000000010000000000000000000000000000000000000000000000000000000000000000ffffffff0704ffff001d0179ffffffff0100f2052a0100000043410475a070c6841013a2f29191588e28ff0e5e57b15ed997ae3b268b30e3a6635019ce4a5f1aef9abbafaf5a96a581ec9b3a0180fbd9a03513095855a0efbf336d99ac00000000"
    }
  ]
}