{
  "hash": "00000000657ec3a6900586ae23550048e14a48ec9ac71ac869c7438900069179",
  "confirmations": 50182,
  "height": 2916,
  "version": 1,
  "versionHex": "00000001",
  "merkleroot": "fe934b8919d7666a97acc274c51761c9f850ce5b2beee5354ad920b889493f6c",
  "time": 1233703275,
  "mediantime": 1233699151,
  "nonce": 1876910905,
  "bits": "1d00ffff",
  "difficulty": 1,
  "chainwork": "00000000000000000000000000000000000000000000000000000b650b650b65",
  "nTx": 1,
  "previousblockhash": "00000000865cdde8819dab3ebfd65b67f2dada2df3f7a575a2083c490b1c470e",
  "nextblockhash": "000000004bd69da8c94e4bc1f5631a5f4891eba637cd84e48a31f61d53f9c383",
  "strippedsize": 216,
  "size": 216,
  "weight": 864,
  "tx": [
    {
      "txid": "fe934b8919d7666a97acc274c51761c9f850ce5b2beee5354ad920b889493f6c",
      "hash": "fe934b8919d7666a97acc274c51761c9f850ce5b2beee5354ad920b889493f6c",
      "version": 1,
      "size": 135,
      "vsize": 135,
      "weight": 540,
      "locktime": 0,
      "vin": [
        {
          "coinbase": "04ffff001d029507",
          "sequence": 4294967295
        }
      ],
      "vout": [
        {
          "value": 50.0,
          "n": 0,
          "scriptPubKey": {
            "asm": "04ca63aa6755ae41a39b4cf99b55cb74808b0442fa238b1686eed31b14e8b2467ee53b8e19d3dd46d22b87f25a2f2e2a88eab84955cac4a4202cece3b949f3ca81 OP_CHECKSIG",
            "desc": "pk(04ca63aa6755ae41a39b4cf99b55cb74808b0442fa238b1686eed31b14e8b2467ee53b8e19d3dd46d22b87f25a2f2e2a88eab84955cac4a4202cece3b949f3ca81)#kzxywgwz",
            "hex": "4104ca63aa6755ae41a39b4cf99b55cb74808b0442fa238b1686eed31b14e8b2467ee53b8e19d3dd46d22b87f25a2f2e2a88eab84955cac4a4202cece3b949f3ca81ac",
            "type": "pubkey"
          }
        }
      ],
      "hex": "01000000010000000000000000000000000000000000000000000000000000000000000000ffffffff0804ffff001d029507ffffffff0100f2052a01000000434104ca63aa6755ae41a39b4cf99b55cb74808b0442fa238b1686eed31b14e8b2467ee53b8e19d3dd46d22b87f25a2f2e2a88eab84955cac4a4202cece3b949f3ca81ac00000000"
    }
  ]
}