{
  "hash": "0000000036dbc6ad310deeaa24e1a840f4a19da9a01e6cf95092862de20228c2",
  "confirmations": 49810,
  "height": 3288,
  "version": 1,
  "versionHex": "00000001",
  "merkleroot": "a72e480bb248e57bd1cd98b94fc92a067bc2a2647668a33f29fcccf098e29f2f",
  "time": 1233963799,
  "mediantime": 1233958257,
  "nonce": 169913012,
  "bits": "1d00ffff",
  "difficulty": 1,
  "chainwork": "00000000000000000000000000000000000000000000000000000cd90cd90cd9",
  "nTx": 1,
  "previousblockhash": "00000000460ddf4975bb46903298de10afc2b44d7e1cffec0ccfbcc04902ce2d",
  "nextblockhash": "00000000f96d0a7c59d04b7847ca1c0d64e1b04cd4b582b519dd5e3370116701",
  "strippedsize": 215,
  "size": 215,
  "weight": 860,
  "tx": [
    {
      "txid": "a72e480bb248e57bd1cd98b94fc92a067bc2a2647668a33f29fcccf098e29f2f",
      "hash": "a72e480bb248e57bd1cd98b94fc92a067bc2a2647668a33f29fcccf098e29f2f",
      "version": 1,
      "size": 134,
      "vsize": 134,
      "weight": 536,
      "locktime": 0,
      "vin": [
        {
          "coinbase": "04ffff001d0169",
          "sequence": 4294967295
        }
      ],
      "vout": [
        {
          "value": 50.0,
          "n": 0,
          "scriptPubKey": {
            "asm": "044c373bb6b2b1eb3f6ac013ad551f74db09e2bbba24b27ecf528c48bc32b927ea0cae813897be61af85867e5f500aaace187b0a83391c29f6798d3c27e683503f OP_CHECKSIG",
            "desc": "pk(044c373bb6b2b1eb3f6ac013ad551f74db09e2bbba24b27ecf528c48bc32b927ea0cae813897be61af85867e5f500aaace187b0a83391c29f6798d3c27e683503f)#dhzzu3as",
            "hex": "41044c373bb6b2b1eb3f6ac013ad551f74db09e2bbba24b27ecf528c48bc32b927ea0cae813897be61af85867e5f500aaace187b0a83391c29f6798d3c27e683503fac",
            "type": "pubkey"
          }
        }
      ],
      "hex": "01000000010000000000000000000000000000000000000000000000000000000000000000ffffffff0704ffff001d0169ffffffff0100f2052a010000004341044c373bb6b2b1eb3f6ac013ad551f74db09e2bbba24b27ecf528c48bc32b927ea0cae813897be61af85867e5f500aaace187b0a83391c29f6798d3c27e683503fac00000000"
    }
  ]
}