{
  "hash": "00000000721d433c05a77906cac3261bcfb79b3ce3db11cee016ba1a05e878f1",
  "confirmations": 52150,
  "height": 948,
  "version": 1,
  "versionHex": "00000001",
  "merkleroot": "e9e2c651c878ece3dad9843008d4d3485513bc114978ed83e24e490c2964f86b",
  "time": 1232312064,
  "mediantime": 1232308979,
  "nonce": 2322144567,
  "bits": "1d00ffff",
  "difficulty": 1,
  "chainwork": "000000000000000000000000000000000000000000000000000003b503b503b5",
  "nTx": 1,
  "previousblockhash": "0000000052e8defdf229e53f422755f9c4a9a9f031d8caad0fb64f285ad186f6",
  "nextblockhash": "000000005eb3d7fa23603142c9981fb12269a00616eeda1c7657076fd4fc1480",
  "strippedsize": 216,
  "size": 216,
  "weight": 864,
  "tx": [
    {
      "txid": "e9e2c651c878ece3dad9843008d4d3485513bc114978ed83e24e490c2964f86b",
      "hash": "e9e2c651c878ece3dad9843008d4d3485513bc114978ed83e24e490c2964f86b",
      "version": 1,
      "size": 135,
      "vsize": 135,
      "weight": 540,
      "locktime": 0,
      "vin": [
        {
          "coinbase": "04ffff001d025204",
          "sequence": 4294967295
        }
      ],
      "vout": [
        {
          "value": 50.0,
          "n": 0,
          "scriptPubKey": {
            "asm": "048bf0df953135cd67897d0b8c8a5f0e379086a29d99b2d411fdff0be6b38246cdadf7de5780857d9eb6d53b1894849ea9b05a45983fe7f789d844552ce4660715 OP_CHECKSIG",
            "desc": "pk(048bf0df953135cd67897d0b8c8a5f0e379086a29d99b2d411fdff0be6b38246cdadf7de5780857d9eb6d53b1894849ea9b05a45983fe7f789d844552ce4660715)#g5v92852",
            "hex": "41048bf0df953135cd67897d0b8c8a5f0e379086a29d99b2d411fdff0be6b38246cdadf7de5780857d9eb6d53b1894849ea9b05a45983fe7f789d844552ce4660715ac",
            "type": "pubkey"
          }
        }
      ],
      "hex": "01000000010000000000000000000000000000000000000000000000000000000000000000ffffffff0804ffff001d025204ffffffff0100f2052a010000004341048bf0df953135cd67897d0b8c8a5f0e379086a29d99b2d411fdff0be6b38246cdadf7de5780857d9eb6d53b1894849ea9b05a45983fe7f789d844552ce4660715ac00000000"
    }
  ]
}