{
  "hash": "00000000aaba6f091b5f8a356dcaee98fe8c5ea8bc915cc4516dd9da528c0724",
  "confirmations": 43198,
  "height": 9900,
  "version": 1,
  "versionHex": "00000001",
  "merkleroot": "7f381c168c89820da2a70a306406eb68d9487df09adee8515a816c219c632539",
  "time": 1238923377,
  "mediantime": 1238920518,
  "nonce": 2571692822,
  "bits": "1d00ffff",
  "difficulty": 1,
  "chainwork": "000000000000000000000000000000000000000000000000000026ad26ad26ad",
  "nTx": 1,
  "previousblockhash": "000000007ba45c0524f5e967947892c696890127fb4c9826c4240569907aa704",
  "nextblockhash": "00000000d79c1ab80b93877791d7fff8bd99c8c45c8ec876ea670abb4caab165",
  "strippedsize": 216,
  "size": 216,
  "weight": 864,
  "tx": [
    {
      "txid": "7f381c168c89820da2a70a306406eb68d9487df09adee8515a816c219c632539",
      "hash": "7f381c168c89820da2a70a306406eb68d9487df09adee8515a816c219c632539",
      "version": 1,
      "size": 135,
      "vsize": 135,
      "weight": 540,
      "locktime": 0,
      "vin": [
        {
          "coinbase": "04ffff001d021702",
          "sequence": 4294967295
        }
      ],
      "vout": [
        {
          "value": 50.0,
          "n": 0,
          "scriptPubKey": {
            "asm": "04372c4218107d7f4602cb80910bef9285f6f33443c28aac80f697a970016fb5ff079b30964caad99e0cb4fd8bef8306a172d61cfae9da89eaedb54ae8517923b4 OP_CHECKSIG",
            "desc": "pk(04372c4218107d7f4602cb80910bef9285f6f33443c28aac80f697a970016fb5ff079b30964caad99e0cb4fd8bef8306a172d61cfae9da89eaedb54ae8517923b4)#uqcwme98",
            "hex": "4104372c4218107d7f4602cb80910bef9285f6f33443c28aac80f697a970016fb5ff079b30964caad99e0cb4fd8bef8306a172d61cfae9da89eaedb54ae8517923b4ac",
            "type": "pubkey"
          }
        }
      ],
      "hex": "01000000010000000000000000000000000000000000000000000000000000000000000000ffffffff0804ffff001d021702ffffffff0100f2052a01000000434104372c4218107d7f4602cb80910bef9285f6f33443c28aac80f697a970016fb5ff079b30964caad99e0cb4fd8bef8306a172d61cfae9da89eaedb54ae8517923b4ac00000000"
    }
  ]
}