{
  "hash": "00000000d5b91b275f3858fe848b9ada0cde0d2531d66c23a9079a3ae4f54dcc",
  "confirmations": 43634,
  "height": 9464,
  "version": 1,
  "versionHex": "00000001",
  "merkleroot": "dda0858e284d62b1571fe5acfaae8765302f00c24d7b5b7212acba42dc51b2e5",
  "time": 1238602266,
  "mediantime": 1238599322,
  "nonce": 14576139,
  "bits": "1d00ffff",
  "difficulty": 1,
  "chainwork": "000000000000000000000000000000000000000000000000000024f924f924f9",
  "nTx": 1,
  "previousblockhash": "000000006996eb82f552752f4a82c86769fad132f8367bddac0b3197888f0a78",
  "nextblockhash": "0000000035f8089050ccbed771a5106ae2876eae310f5ae393ec451cee47abcc",
  "strippedsize": 216,
  "size": 216,
  "weight": 864,
  "tx": [
    {
      "txid": "dda0858e284d62b1571fe5acfaae8765302f00c24d7b5b7212acba42dc51b2e5",
      "hash": "dda0858e284d62b1571fe5acfaae8765302f00c24d7b5b7212acba42dc51b2e5",
      "version": 1,
      "size": 135,
      "vsize": 135,
      "weight": 540,
      "locktime": 0,
      "vin": [
        {
          "coinbase": "04ffff001d02e009",
          "sequence": 4294967295
        }
      ],
      "vout": [
        {
          "value": 50.0,
          "n": 0,
          "scriptPubKey": {
            "asm": "04b068d2949a78059581d4b69a5363aadb87ef13961c6a8ed1a683900d218956d08f4748d53dce9bd3d31c5e62818b71698b0168b95bb2d6232f52cc13153ecbd4 OP_CHECKSIG",
            "desc": "pk(04b068d2949a78059581d4b69a5363aadb87ef13961c6a8ed1a683900d218956d08f4748d53dce9bd3d31c5e62818b71698b0168b95bb2d6232f52cc13153ecbd4)#vdgfwlcu",
            "hex": "4104b068d2949a78059581d4b69a5363aadb87ef13961c6a8ed1a683900d218956d08f4748d53dce9bd3d31c5e62818b71698b0168b95bb2d6232f52cc13153ecbd4ac",
            "type": "pubkey"
          }
        }
      ],
      "hex": "01000000010000000000000000000000000000000000000000000000000000000000000000ffffffff0804ffff001d02e009ffffffff0100f2052a01000000434104b068d2949a78059581d4b69a5363aadb87ef13961c6a8ed1a683900d218956d08f4748d53dce9bd3d31c5e62818b71698b0168b95bb2d6232f52cc13153ecbd4ac00000000"
    }
  ]
}