{
  "hash": "0000000086636f9001c6f9c506a53ee13eda80655c3e55bb8afb824cdae7c507",
  "confirmations": 50741,
  "height": 2357,
  "version": 1,
  "versionHex": "00000001",
  "merkleroot": "dfeff15de0143a92bf6aff0aa2b99c935463c23cb2f7a82e70f4a00fca32b81a",
  "time": 1233320648,
  "mediantime": 1233318413,
  "nonce": 31332978,
  "bits": "1d00ffff",
  "difficulty": 1,
  "chainwork": "0000000000000000000000000000000000000000000000000000093609360936",
  "nTx": 1,
  "previousblockhash": "0000000057ea5c6679b78b415069daa707cca2a39ffd93a7e170482c4af65884",
  "nextblockhash": "00000000514ddec4a6b0d55c28feca01a393c2818d2a42b37c5943552af08274",
  "strippedsize": 215,
  "size": 215,
  "weight": 860,
  "tx": [
    {
      "txid": "dfeff15de0143a92bf6aff0aa2b99c935463c23cb2f7a82e70f4a00fca32b81a",
      "hash": "dfeff15de0143a92bf6aff0aa2b99c935463c23cb2f7a82e70f4a00fca32b81a",
      "version": 1,
      "size": 134,
      "vsize": 134,
      "weight": 536,
      "locktime": 0,
      "vin": [
        {
          "coinbase": "04ffff001d010d",
          "sequence": 4294967295
        }
      ],
      "vout": [
        {
          "value": 50.0,
          "n": 0,
          "scriptPubKey": {
            "asm": "047e3665e018bd4765ac55fdf1784f256c7a00498b038161bf96fc5d83f5dffd2cdab0dbcbf8d45b6975530f23f69827da4ff379ffef115ad259f550879bc23564 OP_CHECKSIG",
            "desc": "pk(047e3665e018bd4765ac55fdf1784f256c7a00498b038161bf96fc5d83f5dffd2cdab0dbcbf8d45b6975530f23f69827da4ff379ffef115ad259f550879bc23564)#fqnswsv6",
            "hex": "41047e3665e018bd4765ac55fdf1784f256c7a00498b038161bf96fc5d83f5dffd2cdab0dbcbf8d45b6975530f23f69827da4ff379ffef115ad259f550879bc23564ac",
            "type": "pubkey"
          }
        }
      ],
      "hex": "01000000010000000000000000000000000000000000000000000000000000000000000000ffffffff0704ffff001d010dffffffff0100f2052a010000004341047e3665e018bd4765ac55fdf1784f256c7a00498b038161bf96fc5d83f5dffd2cdab0dbcbf8d45b6975530f23f69827da4ff379ffef115ad259f550879bc23564ac00000000"
    }
  ]
}