{
  "hash": "00000000d50d3e2b0e9ae8ab263621cd2028199e393bd8e28f7dea983f073f19",
  "confirmations": 51640,
  "height": 1458,
  "version": 1,
  "versionHex": "00000001",
  "merkleroot": "bfe3e9e6a914e0026fb6b6c1d8ba95bcb0376e976268058a7cdfeb8520faed31",
  "time": 1232750164,
  "mediantime": 1232748088,
  "nonce": 2754851877,
  "bits": "1d00ffff",
  "difficulty": 1,
  "chainwork": "000000000000000000000000000000000000000000000000000005b305b305b3",
  "nTx": 1,
  "previousblockhash": "00000000c1b653c16878482f16d9d25f59214468f79ceceb6b0b58020d83aab5",
  "nextblockhash": "00000000b4dc86bde4f53e35aa10b4657e214fe01e8841740a11f80b7f7bd9c3",
  "strippedsize": 216,
  "size": 216,
  "weight": 864,
  "tx": [
    {
      "txid": "bfe3e9e6a914e0026fb6b6c1d8ba95bcb0376e976268058a7cdfeb8520faed31",
      "hash": "bfe3e9e6a914e0026fb6b6c1d8ba95bcb0376e976268058a7cdfeb8520faed31",
      "version": 1,
      "size": 135,
      "vsize": 135,
      "weight": 540,
      "locktime": 0,
      "vin": [
        {
          "coinbase": "04ffff001d02a900",
          "sequence": 4294967295
        }
      ],
      "vout": [
        {
          "value": 50.0,
          "n": 0,
          "scriptPubKey": {
            "asm": "047b0cd45e80374c849819d4d7f331229627885df638c69f25cbe8708998f20fadcd41b9e8f9c93959b3bd62ad168238b94719d3f8dd5be42c717da5040459fe5a OP_CHECKSIG",
            "desc": "pk(047b0cd45e80374c849819d4d7f331229627885df638c69f25cbe8708998f20fadcd41b9e8f9c93959b3bd62ad168238b94719d3f8dd5be42c717da5040459fe5a)#n6rsp45e",
            "hex": "41047b0cd45e80374c849819d4d7f331229627885df638c69f25cbe8708998f20fadcd41b9e8f9c93959b3bd62ad168238b94719d3f8dd5be42c717da5040459fe5aac",
            "type": "pubkey"
          }
        }
      ],
      "hex": "01000000010000000000000000000000000000000000000000000000000000000000000000ffffffff0804ffff001d02a900ffffffff0100f2052a010000004341047b0cd45e80374c849819d4d7f331229627885df638c69f25cbe8708998f20fadcd41b9e8f9c93959b3bd62ad168238b94719d3f8dd5be42c717da5040459fe5aac00000000"
    }
  ]
}