{
  "hash": "000000003e9034ddb56d81bcdcd618118875ddf6d5786f85cb0ed988fdf7c7d4",
  "confirmations": 52186,
  "height": 912,
  "version": 1,
  "versionHex": "00000001",
  "merkleroot": "63b2a36d6db20c3beedb183bc8d3e54749e4194d683a62f7f5ede1e408ccb2d8",
  "time": 1232286406,
  "mediantime": 1232281621,
  "nonce": 1862948,
  "bits": "1d00ffff",
  "difficulty": 1,
  "chainwork": "0000000000000000000000000000000000000000000000000000039103910391",
  "nTx": 1,
  "previousblockhash": "0000000047560030cea942ff993f9c5464dd6499e7118d189c56ca57a465bcb7",
  "nextblockhash": "00000000eec9714483685a04a58d487d758eadf0b0b15d9db38dd632ccb106f8",
  "strippedsize": 216,
  "size": 216,
  "weight": 864,
  "tx": [
    {
      "txid": "63b2a36d6db20c3beedb183bc8d3e54749e4194d683a62f7f5ede1e408ccb2d8",
      "hash": "63b2a36d6db20c3beedb183bc8d3e54749e4194d683a62f7f5ede1e408ccb2d8",
      "version": 1,
      "size": 135,
      "vsize": 135,
      "weight": 540,
      "locktime": 0,
      "vin": [
        {
          "coinbase": "04ffff001d02d603",
          "sequence": 4294967295
        }
      ],
      "vout": [
        {
          "value": 50.0,
          "n": 0,
          "scriptPubKey": {
            "asm": "04fe35783a206ee5c2895e3576c3c73e1aef7d4bbe80de5084a472585a7343a307904e8dd9ed6c87a56bd3a29b280ca3eba27d377e4fba5587dc5ad8707e30f27e OP_CHECKSIG",
            "desc": "pk(04fe35783a206ee5c2895e3576c3c73e1aef7d4bbe80de5084a472585a7343a307904e8dd9ed6c87a56bd3a29b280ca3eba27d377e4fba5587dc5ad8707e30f27e)#h4m48c4c",
            "hex": "4104fe35783a206ee5c2895e3576c3c73e1aef7d4bbe80de5084a472585a7343a307904e8dd9ed6c87a56bd3a29b280ca3eba27d377e4fba5587dc5ad8707e30f27eac",
            "type": "pubkey"
          }
        }
      ],
      "hex": "01000000010000000000000000000000000000000000000000000000000000000000000000ffffffff0804ffff001d02d603ffffffff0100f2052a01000000434104fe35783a206ee5c2895e3576c3c73e1aef7d4bbe80de5084a472585a7343a307904e8dd9ed6c87a56bd3a29b280ca3eba27d377e4fba5587dc5ad8707e30f27eac00000000"
    }
  ]
}