{
  "hash": "00000000d79ca1994b80322b944426b607c9729f2651436a7a87a1cd1048ebfe",
  "confirmations": 51326,
  "height": 1772,
  "version": 1,
  "versionHex": "00000001",
  "merkleroot": "42f64d9dddd167ed5ec3041d9ad7afc046019f122bfc34f03e2de718d36e8b98",
  "time": 1232884421,
  "mediantime": 1232882841,
  "nonce": 4192410163,
  "bits": "1d00ffff",
  "difficulty": 1,
  "chainwork": "000000000000000000000000000000000000000000000000000006ed06ed06ed",
  "nTx": 1,
  "previousblockhash": "00000000a5e1552a1ea5e75e7680eb205a8fc32849d4d61ca9826935e2e204e2",
  "nextblockhash": "000000007cdf2f72eebf5eac4379316b576c858fe6274d0a8032f46e26e2c607",
  "strippedsize": 216,
  "size": 216,
  "weight": 864,
  "tx": [
    {
      "txid": "42f64d9dddd167ed5ec3041d9ad7afc046019f122bfc34f03e2de718d36e8b98",
      "hash": "42f64d9dddd167ed5ec3041d9ad7afc046019f122bfc34f03e2de718d36e8b98",
      "version": 1,
      "size": 135,
      "vsize": 135,
      "weight": 540,
      "locktime": 0,
      "vin": [
        {
          "coinbase": "04ffff001d029f03",
          "sequence": 4294967295
        }
      ],
      "vout": [
        {
          "value": 50.0,
          "n": 0,
          "scriptPubKey": {
            "asm": "0465aa6dab9ab8d5331afef44a369d761418d96c46d41939eef558ebfb6a55290b98aea7008306dc4547a00861480c8138460431a581e34eef7801511930369006 OP_CHECKSIG",
            "desc": "pk(0465aa6dab9ab8d5331afef44a369d761418d96c46d41939eef558ebfb6a55290b98aea7008306dc4547a00861480c8138460431a581e34eef7801511930369006)#lhu5keat",
            "hex": "410465aa6dab9ab8d5331afef44a369d761418d96c46d41939eef558ebfb6a55290b98aea7008306dc4547a00861480c8138460431a581e34eef7801511930369006ac",
            "type": "pubkey"
          }
        }
      ],
      "hex": "01000000010000000000000000000000000000000000000000000000000000000000000000ffffffff0804ffff001d029f03ffffffff0100f2052a0100000043410465aa6dab9ab8d5331afef44a369d761418d96c46d41939eef558ebfb6a55290b98aea7008306dc4547a00861480c8138460431a581e34eef7801511930369006ac00000000"
    }
  ]
}