{
  "hash": "000000006a9a9a493078ad2831b9fa32695d9701019b3cf97114dba87e4054aa",
  "confirmations": 50913,
  "height": 2185,
  "version": 1,
  "versionHex": "00000001",
  "merkleroot": "5574cdc552fbcfba8599d26c8f7126eb4fb349d371df990fd1f7bb2b7975dc93",
  "time": 1233203788,
  "mediantime": 1233198715,
  "nonce": 491873827,
  "bits": "1d00ffff",
  "difficulty": 1,
  "chainwork": "0000000000000000000000000000000000000000000000000000088a088a088a",
  "nTx": 1,
  "previousblockhash": "00000000bf3bce6a2896fc62bdfba48bdd955178d10e4ff15eeffe61ad41f714",
  "nextblockhash": "00000000e23049eb5996fd8985fe1a4d033ef5bddc05a5e1cf5f6511398c15f5",
  "strippedsize": 215,
  "size": 215,
  "weight": 860,
  "tx": [
    {
      "txid": "5574cdc552fbcfba8599d26c8f7126eb4fb349d371df990fd1f7bb2b7975dc93",
      "hash": "5574cdc552fbcfba8599d26c8f7126eb4fb349d371df990fd1f7bb2b7975dc93",
      "version": 1,
      "size": 134,
      "vsize": 134,
      "weight": 536,
      "locktime": 0,
      "vin": [
        {
          "coinbase": "04ffff001d0117",
          "sequence": 4294967295
        }
      ],
      "vout": [
        {
          "value": 50.0,
          "n": 0,
          "scriptPubKey": {
            "asm": "041dc377f7a2d8c705e0443f9f9d73ff5f9125fe43c737b0e644df6c5e27b116c7ce2e20cde27e60d2c9c2b81551e177981e8c92190e1ea25b389abdcca413b052 OP_CHECKSIG",
            "desc": "pk(041dc377f7a2d8c705e0443f9f9d73ff5f9125fe43c737b0e644df6c5e27b116c7ce2e20cde27e60d2c9c2b81551e177981e8c92190e1ea25b389abdcca413b052)#zps3tx4l",
            "hex": "41041dc377f7a2d8c705e0443f9f9d73ff5f9125fe43c737b0e644df6c5e27b116c7ce2e20cde27e60d2c9c2b81551e177981e8c92190e1ea25b389abdcca413b052ac",
            "type": "pubkey"
          }
        }
      ],
      "hex": "01000000010000000000000000000000000000000000000000000000000000000000000000ffffffff0704ffff001d0117ffffffff0100f2052a010000004341041dc377f7a2d8c705e0443f9f9d73ff5f9125fe43c737b0e644df6c5e27b116c7ce2e20cde27e60d2c9c2b81551e177981e8c92190e1ea25b389abdcca413b052ac00000000"
    }
  ]
}