{
  "hash": "000000007af9c512fabf297e811f7bc63230e165745fcff33f192f8cdae15a4c",
  "confirmations": 45422,
  "height": 7676,
  "version": 1,
  "versionHex": "00000001",
  "merkleroot": "46ba4378e0e13d8b8bd9c2205677d868bcb5703bb3c2abf9107f3894641f3232",
  "time": 1237221186,
  "mediantime": 1237218258,
  "nonce": 3730991926,
  "bits": "1d00ffff",
  "difficulty": 1,
  "chainwork": "00000000000000000000000000000000000000000000000000001dfd1dfd1dfd",
  "nTx": 1,
  "previousblockhash": "0000000001a786952d564dc9f094b7198b509eac6783583b52e1d800ec2c097f",
  "nextblockhash": "000000009dc6fb77901a725e54e43cd61a5b96b23c60a76ea62ad186daa83c0d",
  "strippedsize": 216,
  "size": 216,
  "weight": 864,
  "tx": [
    {
      "txid": "46ba4378e0e13d8b8bd9c2205677d868bcb5703bb3c2abf9107f3894641f3232",
      "hash": "46ba4378e0e13d8b8bd9c2205677d868bcb5703bb3c2abf9107f3894641f3232",
      "version": 1,
      "size": 135,
      "vsize": 135,
      "weight": 540,
      "locktime": 0,
      "vin": [
        {
          "coinbase": "04ffff001d02bb03",
          "sequence": 4294967295
        }
      ],
      "vout": [
        {
          "value": 50.0,
          "n": 0,
          "scriptPubKey": {
            "asm": "04b87d4311ef19422f7e60c328c3c2012fa1843da2794237221b44d8dbd2f00cf3f38a587fe8f9f3984bdc26eb0f89290542d89c0c1beab37008b2a10213c753cb OP_CHECKSIG",
            "desc": "pk(04b87d4311ef19422f7e60c328c3c2012fa1843da2794237221b44d8dbd2f00cf3f38a587fe8f9f3984bdc26eb0f89290542d89c0c1beab37008b2a10213c753cb)#ckrshr9p",
            "hex": "4104b87d4311ef19422f7e60c328c3c2012fa1843da2794237221b44d8dbd2f00cf3f38a587fe8f9f3984bdc26eb0f89290542d89c0c1beab37008b2a10213c753cbac",
            "type": "pubkey"
          }
        }
      ],
      "hex": "01000000010000000000000000000000000000000000000000000000000000000000000000ffffffff0804ffff001d02bb03ffffffff0100f2052a01000000434104b87d4311ef19422f7e60c328c3c2012fa1843da2794237221b44d8dbd2f00cf3f38a587fe8f9f3984bdc26eb0f89290542d89c0c1beab37008b2a10213c753cbac00000000"
    }
  ]
}