{
  "hash": "00000000e7cbf17e4da25723cc71121d461b1a85a1dfa13a605005f056d77cbd",
  "confirmations": 46212,
  "height": 6886,
  "version": 1,
  "versionHex": "00000001",
  "merkleroot": "55bd96bd8de3ab7a1dc0f14ec8df646993d0255291c727306c9e4cf0e0161d5c",
  "time": 1236625925,
  "mediantime": 1236619432,
  "nonce": 1238524720,
  "bits": "1d00ffff",
  "difficulty": 1,
  "chainwork": "00000000000000000000000000000000000000000000000000001ae71ae71ae7",
  "nTx": 1,
  "previousblockhash": "0000000029975ed506251a4c335d060c02e9e8fd068c3752c92a46278b64181a",
  "nextblockhash": "000000009a4040e98e1ee2346b7e8892509ffb970c0f59741fc665a92b8fc536",
  "strippedsize": 215,
  "size": 215,
  "weight": 860,
  "tx": [
    {
      "txid": "55bd96bd8de3ab7a1dc0f14ec8df646993d0255291c727306c9e4cf0e0161d5c",
      "hash": "55bd96bd8de3ab7a1dc0f14ec8df646993d0255291c727306c9e4cf0e0161d5c",
      "version": 1,
      "size": 134,
      "vsize": 134,
      "weight": 536,
      "locktime": 0,
      "vin": [
        {
          "coinbase": "04ffff001d010e",
          "sequence": 4294967295
        }
      ],
      "vout": [
        {
          "value": 50.0,
          "n": 0,
          "scriptPubKey": {
            "asm": "04f974d19928b9c5b8c289142e4e549984e319d7087475b876cdbcf0a4ae038c4b320d1c63fa1308396a0aad243b73a343a9658e0d9631adcf6286c17b51ea215a OP_CHECKSIG",
            "desc": "pk(04f974d19928b9c5b8c289142e4e549984e319d7087475b876cdbcf0a4ae038c4b320d1c63fa1308396a0aad243b73a343a9658e0d9631adcf6286c17b51ea215a)#v7pf7zem",
            "hex": "4104f974d19928b9c5b8c289142e4e549984e319d7087475b876cdbcf0a4ae038c4b320d1c63fa1308396a0aad243b73a343a9658e0d9631adcf6286c17b51ea215aac",
            "type": "pubkey"
          }
        }
      ],
      "hex": "01000000010000000000000000000000000000000000000000000000000000000000000000ffffffff0704ffff001d010effffffff0100f2052a01000000434104f974d19928b9c5b8c289142e4e549984e319d7087475b876cdbcf0a4ae038c4b320d1c63fa1308396a0aad243b73a343a9658e0d9631adcf6286c17b51ea215aac00000000"
    }
  ]
}