{
  "hash": "0000000001a674b3aff7aa32cc9a08d01b685e7129511f3655444e7a2c427dfb",
  "confirmations": 47264,
  "height": 5834,
  "version": 1,
  "versionHex": "00000001",
  "merkleroot": "9d0a1bf0b7c900780a5c745228bf92bc078cda68c6c6df1375000691ce8aea54",
  "time": 1235787150,
  "mediantime": 1235783381,
  "nonce": 295017884,
  "bits": "1d00ffff",
  "difficulty": 1,
  "chainwork": "000000000000000000000000000000000000000000000000000016cb16cb16cb",
  "nTx": 1,
  "previousblockhash": "00000000c2599abdad11d97b46094a5a9807c8d0388f928e9f5b2bf6ce8c1ac8",
  "nextblockhash": "0000000016f8d64bc2e4a9d74fbd145f2578c8a872ffaa623b9291468263d2ab",
  "strippedsize": 216,
  "size": 216,
  "weight": 864,
  "tx": [
    {
      "txid": "9d0a1bf0b7c900780a5c745228bf92bc078cda68c6c6df1375000691ce8aea54",
      "hash": "9d0a1bf0b7c900780a5c745228bf92bc078cda68c6c6df1375000691ce8aea54",
      "version": 1,
      "size": 135,
      "vsize": 135,
      "weight": 540,
      "locktime": 0,
      "vin": [
        {
          "coinbase": "04ffff001d024c01",
          "sequence": 4294967295
        }
      ],
      "vout": [
        {
          "value": 50.0,
          "n": 0,
          "scriptPubKey": {
            "asm": "040ecf8d84291ac094baee21c44402644a5708ae6a69a6a85a85c564fdfe8b6cb4564427b088e66eb23ed0553f80d9a5b122d4fa9cb705cbff610a169f33c2d855 OP_CHECKSIG",
            "desc": "pk(040ecf8d84291ac094baee21c44402644a5708ae6a69a6a85a85c564fdfe8b6cb4564427b088e66eb23ed0553f80d9a5b122d4fa9cb705cbff610a169f33c2d855)#yajp7p6q",
            "hex": "41040ecf8d84291ac094baee21c44402644a5708ae6a69a6a85a85c564fdfe8b6cb4564427b088e66eb23ed0553f80d9a5b122d4fa9cb705cbff610a169f33c2d855ac",
            "type": "pubkey"
          }
        }
      ],
      "hex": "01000000010000000000000000000000000000000000000000000000000000000000000000ffffffff0804ffff001d024c01ffffffff0100f2052a010000004341040ecf8d84291ac094baee21c44402644a5708ae6a69a6a85a85c564fdfe8b6cb4564427b088e66eb23ed0553f80d9a5b122d4fa9cb705cbff610a169f33c2d855ac00000000"
    }
  ]
}