{
  "hash": "0000000060853d68d5905f6d2c670d36d71b248fa1fa09c74cc89d11dbfc78d8",
  "confirmations": 50947,
  "height": 2151,
  "version": 1,
  "versionHex": "00000001",
  "merkleroot": "0c31639828420766c5da4d89a5303d28122fb1ea24960cb3879936240baae460",
  "time": 1233176191,
  "mediantime": 1233173885,
  "nonce": 1662191141,
  "bits": "1d00ffff",
  "difficulty": 1,
  "chainwork": "0000000000000000000000000000000000000000000000000000086808680868",
  "nTx": 1,
  "previousblockhash": "000000003a9d525344b3aac97bbfca6a7898642ff2e072fb9bac354d0aec5217",
  "nextblockhash": "00000000710be1ed303b2a2b13af371682ad41cbe9d6281a780af53756b27766",
  "strippedsize": 216,
  "size": 216,
  "weight": 864,
  "tx": [
    {
      "txid": "0c31639828420766c5da4d89a5303d28122fb1ea24960cb3879936240baae460",
      "hash": "0c31639828420766c5da4d89a5303d28122fb1ea24960cb3879936240baae460",
      "version": 1,
      "size": 135,
      "vsize": 135,
      "weight": 540,
      "locktime": 0,
      "vin": [
        {
          "coinbase": "04ffff001d028000",
          "sequence": 4294967295
        }
      ],
      "vout": [
        {
          "value": 50.0,
          "n": 0,
          "scriptPubKey": {
            "asm": "04368c9ed6eb85a52bc20a1615f34d89b0b85520fd9e0516d09d34464c0a7451f7b750d746b03cc1803857a21683bd96221edb9f84de51a8a878e6502db50a5643 OP_CHECKSIG",
            "desc": "pk(04368c9ed6eb85a52bc20a1615f34d89b0b85520fd9e0516d09d34464c0a7451f7b750d746b03cc1803857a21683bd96221edb9f84de51a8a878e6502db50a5643)#6kf0eerg",
            "hex": "4104368c9ed6eb85a52bc20a1615f34d89b0b85520fd9e0516d09d34464c0a7451f7b750d746b03cc1803857a21683bd96221edb9f84de51a8a878e6502db50a5643ac",
            "type": "pubkey"
          }
        }
      ],
      "hex": "01000000010000000000000000000000000000000000000000000000000000000000000000ffffffff0804ffff001d028000ffffffff0100f2052a01000000434104368c9ed6eb85a52bc20a1615f34d89b0b85520fd9e0516d09d34464c0a7451f7b750d746b03cc1803857a21683bd96221edb9f84de51a8a878e6502db50a5643ac00000000"
    }
  ]
}