{
  "hash": "000000007e09159f8c9a2f19a3c859f3ced1e0b2f83d85b9f63670c67a627b20",
  "confirmations": 52162,
  "height": 467,
  "version": 1,
  "versionHex": "00000001",
  "merkleroot": "f25fcf86e79e68dbc3adb583e50b628e793bfc8ac37141157b9b92afac07ca4a",
  "time": 1231946092,
  "mediantime": 1231944234,
  "nonce": 506008622,
  "bits": "1d00ffff",
  "difficulty": 1,
  "chainwork": "000000000000000000000000000000000000000000000000000001d401d401d4",
  "nTx": 1,
  "previousblockhash": "000000005f919738051b00a5d428f0c8074629dc634e1947f28dbeab8bdd2ba2",
  "nextblockhash": "00000000f6009cbf9337145686ef3fe3ca2c0d640cd9005efa3c6c41b9714c01",
  "strippedsize": 216,
  "size": 216,
  "weight": 864,
  "tx": [
    {
      "txid": "f25fcf86e79e68dbc3adb583e50b628e793bfc8ac37141157b9b92afac07ca4a",
      "hash": "f25fcf86e79e68dbc3adb583e50b628e793bfc8ac37141157b9b92afac07ca4a",
      "version": 1,
      "size": 135,
      "vsize": 135,
      "weight": 540,
      "locktime": 0,
      "vin": [
        {
          "coinbase": "04ffff001d02df03",
          "sequence": 4294967295
        }
      ],
      "vout": [
        {
          "value": 50.0,
          "n": 0,
          "scriptPubKey": {
            "asm": "04ef08ab574bf6331c83fe35130a7699fc6d0d9912131aa58725d0686ead3bd2b61e7874b9aa9997d9bca45d19e783134d7c5eb4dcf8d72af5820512143d9c5225 OP_CHECKSIG",
            "desc": "pk(04ef08ab574bf6331c83fe35130a7699fc6d0d9912131aa58725d0686ead3bd2b61e7874b9aa9997d9bca45d19e783134d7c5eb4dcf8d72af5820512143d9c5225)#3hpwdqgw",
            "hex": "4104ef08ab574bf6331c83fe35130a7699fc6d0d9912131aa58725d0686ead3bd2b61e7874b9aa9997d9bca45d19e783134d7c5eb4dcf8d72af5820512143d9c5225ac",
            "type": "pubkey"
          }
        }
      ],
      "hex": "01000000010000000000000000000000000000000000000000000000000000000000000000ffffffff0804ffff001d02df03ffffffff0100f2052a01000000434104ef08ab574bf6331c83fe35130a7699fc6d0d9912131aa58725d0686ead3bd2b61e7874b9aa9997d9bca45d19e783134d7c5eb4dcf8d72af5820512143d9c5225ac00000000"
    }
  ]
}