{
  "hash": "0000000036ba5f0892f8e538f8e11bb525368921c0da9a972fc351bee24695a6",
  "confirmations": 45771,
  "height": 7327,
  "version": 1,
  "versionHex": "00000001",
  "merkleroot": "865ca8290dc631a23a62742d319a2949d94d763c70ebd960d2e061f4868f5042",
  "time": 1236967087,
  "mediantime": 1236963027,
  "nonce": 2470533122,
  "bits": "1d00ffff",
  "difficulty": 1,
  "chainwork": "00000000000000000000000000000000000000000000000000001ca01ca01ca0",
  "nTx": 1,
  "previousblockhash": "00000000d4b08aca34609811875a3c8f9570c00e9763baea6c4d640a418ce7bc",
  "nextblockhash": "0000000051fa1fdf351a2caaedfbf79912934561ab009b9ed6e287bf41299f9b",
  "strippedsize": 216,
  "size": 216,
  "weight": 864,
  "tx": [
    {
      "txid": "865ca8290dc631a23a62742d319a2949d94d763c70ebd960d2e061f4868f5042",
      "hash": "865ca8290dc631a23a62742d319a2949d94d763c70ebd960d2e061f4868f5042",
      "version": 1,
      "size": 135,
      "vsize": 135,
      "weight": 540,
      "locktime": 0,
      "vin": [
        {
          "coinbase": "04ffff001d020a08",
          "sequence": 4294967295
        }
      ],
      "vout": [
        {
          "value": 50.0,
          "n": 0,
          "scriptPubKey": {
            "asm": "04336a20ec1548fa929a92115aa4dba820980c7897f53cda3322b106fc8401ee3c3eb898b6bab650a6260e802e0d869c9fc26f1d652f17d335a30bd4a987618c39 OP_CHECKSIG",
            "desc": "pk(04336a20ec1548fa929a92115aa4dba820980c7897f53cda3322b106fc8401ee3c3eb898b6bab650a6260e802e0d869c9fc26f1d652f17d335a30bd4a987618c39)#9g47wzcq",
            "hex": "4104336a20ec1548fa929a92115aa4dba820980c7897f53cda3322b106fc8401ee3c3eb898b6bab650a6260e802e0d869c9fc26f1d652f17d335a30bd4a987618c39ac",
            "type": "pubkey"
          }
        }
      ],
      "hex": "01000000010000000000000000000000000000000000000000000000000000000000000000ffffffff0804ffff001d020a08ffffffff0100f2052a01000000434104336a20ec1548fa929a92115aa4dba820980c7897f53cda3322b106fc8401ee3c3eb898b6bab650a6260e802e0d869c9fc26f1d652f17d335a30bd4a987618c39ac00000000"
    }
  ]
}