{
  "hash": "00000000549af48de2d951296f00b748420c5335baf310b7d6d3b55ab09ec372",
  "confirmations": 44285,
  "height": 8813,
  "version": 1,
  "versionHex": "00000001",
  "merkleroot": "a0bc2ccf20b12fb29c0f5bddab25301650dc064077dabe18179e25fcdcf4375d",
  "time": 1238109293,
  "mediantime": 1238106104,
  "nonce": 3248448563,
  "bits": "1d00ffff",
  "difficulty": 1,
  "chainwork": "0000000000000000000000000000000000000000000000000000226e226e226e",
  "nTx": 1,
  "previousblockhash": "000000004484352e71b638f67c74e42b52a0c3c98f752ab5a0959c9b47d79b19",
  "nextblockhash": "00000000bbdf2c879ae84da6d38f018bf29f4e08732f5a817069165ad484d024",
  "strippedsize": 216,
  "size": 216,
  "weight": 864,
  "tx": [
    {
      "txid": "a0bc2ccf20b12fb29c0f5bddab25301650dc064077dabe18179e25fcdcf4375d",
      "hash": "a0bc2ccf20b12fb29c0f5bddab25301650dc064077dabe18179e25fcdcf4375d",
      "version": 1,
      "size": 135,
      "vsize": 135,
      "weight": 540,
      "locktime": 0,
      "vin": [
        {
          "coinbase": "04ffff001d02f802",
          "sequence": 4294967295
        }
      ],
      "vout": [
        {
          "value": 50.0,
          "n": 0,
          "scriptPubKey": {
            "asm": "04669606280927cb32b6c9e409a93ce078cb2d85f7d6f5a22e3c872bc7586bd65bab873d329af963cc1207f2e4b8f09c523b61c3fc16d32d9897e7dea64c2e4424 OP_CHECKSIG",
            "desc": "pk(04669606280927cb32b6c9e409a93ce078cb2d85f7d6f5a22e3c872bc7586bd65bab873d329af963cc1207f2e4b8f09c523b61c3fc16d32d9897e7dea64c2e4424)#s4m2lmgz",
            "hex": "4104669606280927cb32b6c9e409a93ce078cb2d85f7d6f5a22e3c872bc7586bd65bab873d329af963cc1207f2e4b8f09c523b61c3fc16d32d9897e7dea64c2e4424ac",
            "type": "pubkey"
          }
        }
      ],
      "hex": "01000000010000000000000000000000000000000000000000000000000000000000000000ffffffff0804ffff001d02f802ffffffff0100f2052a01000000434104669606280927cb32b6c9e409a93ce078cb2d85f7d6f5a22e3c872bc7586bd65bab873d329af963cc1207f2e4b8f09c523b61c3fc16d32d9897e7dea64c2e4424ac00000000"
    }
  ]
}