{
  "hash": "00000000c865ca2af3981da880155c9614afa4012e19102d97d8cfa45b6158bc",
  "confirmations": 47036,
  "height": 6062,
  "version": 1,
  "versionHex": "00000001",
  "merkleroot": "d28feba13e5a5a191a5e7fd2ba65123c685633ad7ac07fdb162f3741f99b1969",
  "time": 1235978869,
  "mediantime": 1235975088,
  "nonce": 350300473,
  "bits": "1d00ffff",
  "difficulty": 1,
  "chainwork": "000000000000000000000000000000000000000000000000000017af17af17af",
  "nTx": 1,
  "previousblockhash": "00000000f60fd4df2c29b076d9879f45e1bfd42951034d06498b28a1eab67da2",
  "nextblockhash": "00000000430e26e7e50e4204e74251e3f1281ca26ecef8ae069ddd354a189574",
  "strippedsize": 216,
  "size": 216,
  "weight": 864,
  "tx": [
    {
      "txid": "d28feba13e5a5a191a5e7fd2ba65123c685633ad7ac07fdb162f3741f99b1969",
      "hash": "d28feba13e5a5a191a5e7fd2ba65123c685633ad7ac07fdb162f3741f99b1969",
      "version": 1,
      "size": 135,
      "vsize": 135,
      "weight": 540,
      "locktime": 0,
      "vin": [
        {
          "coinbase": "04ffff001d022802",
          "sequence": 4294967295
        }
      ],
      "vout": [
        {
          "value": 50.0,
          "n": 0,
          "scriptPubKey": {
            "asm": "04c9c333c095c6c9f727b51a9765c1bdc0b391a11771c4df10af5b4c33e7c74137484ec583cc5af9735370fc1340849db60010d2bbc2e8ca34189b96ae16f71a04 OP_CHECKSIG",
            "desc": "pk(04c9c333c095c6c9f727b51a9765c1bdc0b391a11771c4df10af5b4c33e7c74137484ec583cc5af9735370fc1340849db60010d2bbc2e8ca34189b96ae16f71a04)#rlewvrx2",
            "hex": "4104c9c333c095c6c9f727b51a9765c1bdc0b391a11771c4df10af5b4c33e7c74137484ec583cc5af9735370fc1340849db60010d2bbc2e8ca34189b96ae16f71a04ac",
            "type": "pubkey"
          }
        }
      ],
      "hex": "01000000010000000000000000000000000000000000000000000000000000000000000000ffffffff0804ffff001d022802ffffffff0100f2052a01000000434104c9c333c095c6c9f727b51a9765c1bdc0b391a11771c4df10af5b4c33e7c74137484ec583cc5af9735370fc1340849db60010d2bbc2e8ca34189b96ae16f71a04ac00000000"
    }
  ]
}