{
  "hash": "000000005275079cf19575342dd05a0e8fd076235a08c1d377ea443f7749ca7c",
  "confirmations": 43374,
  "height": 9724,
  "version": 1,
  "versionHex": "00000001",
  "merkleroot": "9c02acbec21422e9e6fd7c659b914e10dcee8329ab8bdc3b23323f207f8eb4db",
  "time": 1238797107,
  "mediantime": 1238793276,
  "nonce": 275256064,
  "bits": "1d00ffff",
  "difficulty": 1,
  "chainwork": "000000000000000000000000000000000000000000000000000025fd25fd25fd",
  "nTx": 1,
  "previousblockhash": "0000000024ecf3ea06ef6ad5f902d8e46f4c79ac6c2d70b53250f9789a311a1f",
  "nextblockhash": "000000002369d415ec177c27ffb68f8996b3d973f87fa9f7d44a88d47dd96d62",
  "strippedsize": 216,
  "size": 216,
  "weight": 864,
  "tx": [
    {
      "txid": "9c02acbec21422e9e6fd7c659b914e10dcee8329ab8bdc3b23323f207f8eb4db",
      "hash": "9c02acbec21422e9e6fd7c659b914e10dcee8329ab8bdc3b23323f207f8eb4db",
      "version": 1,
      "size": 135,
      "vsize": 135,
      "weight": 540,
      "locktime": 0,
      "vin": [
        {
          "coinbase": "04ffff001d02e700",
          "sequence": 4294967295
        }
      ],
      "vout": [
        {
          "value": 50.0,
          "n": 0,
          "scriptPubKey": {
            "asm": "0427a4f2d0e8c447969505ed65e182b8c3e92ddfc66f48067318f28cab9fb0e950b23a320b5c0115635f697bf91d8f9211954adcfda7f93edfc268bf3a94b1a96e OP_CHECKSIG",
            "desc": "pk(0427a4f2d0e8c447969505ed65e182b8c3e92ddfc66f48067318f28cab9fb0e950b23a320b5c0115635f697bf91d8f9211954adcfda7f93edfc268bf3a94b1a96e)#4unjjwcy",
            "hex": "410427a4f2d0e8c447969505ed65e182b8c3e92ddfc66f48067318f28cab9fb0e950b23a320b5c0115635f697bf91d8f9211954adcfda7f93edfc268bf3a94b1a96eac",
            "type": "pubkey"
          }
        }
      ],
      "hex": "01000000010000000000000000000000000000000000000000000000000000000000000000ffffffff0804ffff001d02e700ffffffff0100f2052a0100000043410427a4f2d0e8c447969505ed65e182b8c3e92ddfc66f48067318f28cab9fb0e950b23a320b5c0115635f697bf91d8f9211954adcfda7f93edfc268bf3a94b1a96eac00000000"
    }
  ]
}