{
  "hash": "00000000c097a3d70d66d430bae5a410e6a1ab92eb817792d5e1a3954fbcbf7f",
  "confirmations": 48279,
  "height": 4819,
  "version": 1,
  "versionHex": "00000001",
  "merkleroot": "098cb17c1dcf16beeeb00215692675771bb50305edebeb3c166c6a8e12a32817",
  "time": 1235012231,
  "mediantime": 1235009228,
  "nonce": 966964253,
  "bits": "1d00ffff",
  "difficulty": 1,
  "chainwork": "000000000000000000000000000000000000000000000000000012d412d412d4",
  "nTx": 1,
  "previousblockhash": "00000000091da0832d88b03a8f3deadca5806da3fbad6fb8c2e691db8b53886d",
  "nextblockhash": "00000000f2dd2f23d3d3008a8ef26be0333d06b071687ae4e414caea637f2f93",
  "strippedsize": 216,
  "size": 216,
  "weight": 864,
  "tx": [
    {
      "txid": "098cb17c1dcf16beeeb00215692675771bb50305edebeb3c166c6a8e12a32817",
      "hash": "098cb17c1dcf16beeeb00215692675771bb50305edebeb3c166c6a8e12a32817",
      "version": 1,
      "size": 135,
      "vsize": 135,
      "weight": 540,
      "locktime": 0,
      "vin": [
        {
          "coinbase": "04ffff001d029704",
          "sequence": 4294967295
        }
      ],
      "vout": [
        {
          "value": 50.0,
          "n": 0,
          "scriptPubKey": {
            "asm": "046d86abf91973484ac2bbb2936d3bcfbfb939c0bef00474216e20d317c75aa3659a688ff8f5beb52240dc6f6acf5c2f815f8e2006166aca407d8bc1e474fbe138 OP_CHECKSIG",
            "desc": "pk(046d86abf91973484ac2bbb2936d3bcfbfb939c0bef00474216e20d317c75aa3659a688ff8f5beb52240dc6f6acf5c2f815f8e2006166aca407d8bc1e474fbe138)#8p83rpe7",
            "hex": "41046d86abf91973484ac2bbb2936d3bcfbfb939c0bef00474216e20d317c75aa3659a688ff8f5beb52240dc6f6acf5c2f815f8e2006166aca407d8bc1e474fbe138ac",
            "type": "pubkey"
          }
        }
      ],
      "hex": "01000000010000000000000000000000000000000000000000000000000000000000000000ffffffff0804ffff001d029704ffffffff0100f2052a010000004341046d86abf91973484ac2bbb2936d3bcfbfb939c0bef00474216e20d317c75aa3659a688ff8f5beb52240dc6f6acf5c2f815f8e2006166aca407d8bc1e474fbe138ac00000000"
    }
  ]
}