{
  "hash": "0000000076c21f273b8a5ee56437b29190fd820cc8fbb8c4020e9c60a35ffe91",
  "confirmations": 49868,
  "height": 3230,
  "version": 1,
  "versionHex": "00000001",
  "merkleroot": "d4b133ede08b9631b1a2ec2a7b7542ef8a94416f662adc61891ec3d51e79ce14",
  "time": 1233920701,
  "mediantime": 1233917703,
  "nonce": 51029669,
  "bits": "1d00ffff",
  "difficulty": 1,
  "chainwork": "00000000000000000000000000000000000000000000000000000c9f0c9f0c9f",
  "nTx": 1,
  "previousblockhash": "000000005efa045324071de29a6ec14b436d661dc1d5342229f638e3625f8161",
  "nextblockhash": "0000000076408cdaa9d8fbb05251fd29fd0c1160c38b644a47a4e495521a3c03",
  "strippedsize": 215,
  "size": 215,
  "weight": 860,
  "tx": [
    {
      "txid": "d4b133ede08b9631b1a2ec2a7b7542ef8a94416f662adc61891ec3d51e79ce14",
      "hash": "d4b133ede08b9631b1a2ec2a7b7542ef8a94416f662adc61891ec3d51e79ce14",
      "version": 1,
      "size": 134,
      "vsize": 134,
      "weight": 536,
      "locktime": 0,
      "vin": [
        {
          "coinbase": "04ffff001d0112",
          "sequence": 4294967295
        }
      ],
      "vout": [
        {
          "value": 50.0,
          "n": 0,
          "scriptPubKey": {
            "asm": "04e2d858d3f1c272f6b55407984ae17b056c0767b463502a0a2262f01a74241831b8e9aa759c8372afbeb16bc49ff1bedb3f92010428ddcc11b34a4ec626c2713d OP_CHECKSIG",
            "desc": "pk(04e2d858d3f1c272f6b55407984ae17b056c0767b463502a0a2262f01a74241831b8e9aa759c8372afbeb16bc49ff1bedb3f92010428ddcc11b34a4ec626c2713d)#8l79zph6",
            "hex": "4104e2d858d3f1c272f6b55407984ae17b056c0767b463502a0a2262f01a74241831b8e9aa759c8372afbeb16bc49ff1bedb3f92010428ddcc11b34a4ec626c2713dac",
            "type": "pubkey"
          }
        }
      ],
      "hex": "01000000010000000000000000000000000000000000000000000000000000000000000000ffffffff0704ffff001d0112ffffffff0100f2052a01000000434104e2d858d3f1c272f6b55407984ae17b056c0767b463502a0a2262f01a74241831b8e9aa759c8372afbeb16bc49ff1bedb3f92010428ddcc11b34a4ec626c2713dac00000000"
    }
  ]
}