{
  "hash": "00000000106621b9a59c3aec765c8a5f1932881bc86e43b747e371ab6cdfdf5f",
  "confirmations": 51911,
  "height": 1187,
  "version": 1,
  "versionHex": "00000001",
  "merkleroot": "40048442cc3a1996f6e1de12246ba50ce9c9ffad081603e1a7ffef975c8ff3b0",
  "time": 1232490443,
  "mediantime": 1232486925,
  "nonce": 1549313070,
  "bits": "1d00ffff",
  "difficulty": 1,
  "chainwork": "000000000000000000000000000000000000000000000000000004a404a404a4",
  "nTx": 1,
  "previousblockhash": "0000000085ed5798867e86376ea39cf26c1aab9cfa6c3c56c543bf81f7a9d0a6",
  "nextblockhash": "000000008bbb96eb48d21a0deaae236cdfc92f16a9a673ffefee05381c3c1638",
  "strippedsize": 216,
  "size": 216,
  "weight": 864,
  "tx": [
    {
      "txid": "40048442cc3a1996f6e1de12246ba50ce9c9ffad081603e1a7ffef975c8ff3b0",
      "hash": "40048442cc3a1996f6e1de12246ba50ce9c9ffad081603e1a7ffef975c8ff3b0",
      "version": 1,
      "size": 135,
      "vsize": 135,
      "weight": 540,
      "locktime": 0,
      "vin": [
        {
          "coinbase": "04ffff001d027d08",
          "sequence": 4294967295
        }
      ],
      "vout": [
        {
          "value": 50.0,
          "n": 0,
          "scriptPubKey": {
            "asm": "04b06ec13f4c0d833a8e602f9cd80e2b43d995ba169dbb69258cfbed2c62983204920bfe828f5b5de5880602bd60403ad50973cc1feed9c16f2162f9ba935e80b1 OP_CHECKSIG",
            "desc": "pk(04b06ec13f4c0d833a8e602f9cd80e2b43d995ba169dbb69258cfbed2c62983204920bfe828f5b5de5880602bd60403ad50973cc1feed9c16f2162f9ba935e80b1)#nvct97tm",
            "hex": "4104b06ec13f4c0d833a8e602f9cd80e2b43d995ba169dbb69258cfbed2c62983204920bfe828f5b5de5880602bd60403ad50973cc1feed9c16f2162f9ba935e80b1ac",
            "type": "pubkey"
          }
        }
      ],
      "hex": "01000000010000000000000000000000000000000000000000000000000000000000000000ffffffff0804ffff001d027d08ffffffff0100f2052a01000000434104b06ec13f4c0d833a8e602f9cd80e2b43d995ba169dbb69258cfbed2c62983204920bfe828f5b5de5880602bd60403ad50973cc1feed9c16f2162f9ba935e80b1ac00000000"
    }
  ]
}