{
  "hash": "0000000065bda4f8ed6ea6070ce861d1388d7375d6060e6113fd574a88173710",
  "confirmations": 52195,
  "height": 426,
  "version": 1,
  "versionHex": "00000001",
  "merkleroot": "c1f36c4a5668f1037a23a9730d645f850b357ed1472a798659cac30b07521be6",
  "time": 1231919092,
  "mediantime": 1231915415,
  "nonce": 754629936,
  "bits": "1d00ffff",
  "difficulty": 1,
  "chainwork": "000000000000000000000000000000000000000000000000000001ab01ab01ab",
  "nTx": 1,
  "previousblockhash": "0000000031c97dfb51b823efe75ee7917133bbfc610b0ffa07d21d52006b83e6",
  "nextblockhash": "00000000d3f81421d484c4d27f2c3c31a82f33850eb483926f8e0297070f5de3",
  "strippedsize": 216,
  "size": 216,
  "weight": 864,
  "tx": [
    {
      "txid": "c1f36c4a5668f1037a23a9730d645f850b357ed1472a798659cac30b07521be6",
      "hash": "c1f36c4a5668f1037a23a9730d645f850b357ed1472a798659cac30b07521be6",
      "version": 1,
      "size": 135,
      "vsize": 135,
      "weight": 540,
      "locktime": 0,
      "vin": [
        {
          "coinbase": "04ffff001d020503",
          "sequence": 4294967295
        }
      ],
      "vout": [
        {
          "value": 50.0,
          "n": 0,
          "scriptPubKey": {
            "asm": "04c4780921b6abaf6b4e856c4fe47da90b1036ea0f678ed781452f5b10abc18c2526a1fd2ed19ac1316cd03e744c3ff86910295311d2082e30b8a14c1a1c47d2c1 OP_CHECKSIG",
            "desc": "pk(04c4780921b6abaf6b4e856c4fe47da90b1036ea0f678ed781452f5b10abc18c2526a1fd2ed19ac1316cd03e744c3ff86910295311d2082e30b8a14c1a1c47d2c1)#uxcpc9k0",
            "hex": "4104c4780921b6abaf6b4e856c4fe47da90b1036ea0f678ed781452f5b10abc18c2526a1fd2ed19ac1316cd03e744c3ff86910295311d2082e30b8a14c1a1c47d2c1ac",
            "type": "pubkey"
          }
        }
      ],
      "hex": "01000000010000000000000000000000000000000000000000000000000000000000000000ffffffff0804ffff001d020503ffffffff0100f2052a01000000434104c4780921b6abaf6b4e856c4fe47da90b1036ea0f678ed781452f5b10abc18c2526a1fd2ed19ac1316cd03e744c3ff86910295311d2082e30b8a14c1a1c47d2c1ac00000000"
    }
  ]
}