{
  "hash": "000000007685a480254e11edaa377568317f4d8af0b1cd91f27d04d4f0cbfce8",
  "confirmations": 46399,
  "height": 6699,
  "version": 1,
  "versionHex": "00000001",
  "merkleroot": "c6f22a6393497708c02aa65f3d9fe196be166e9b77691688130b54b571ed7880",
  "time": 1236482716,
  "mediantime": 1236478580,
  "nonce": 385126709,
  "bits": "1d00ffff",
  "difficulty": 1,
  "chainwork": "00000000000000000000000000000000000000000000000000001a2c1a2c1a2c",
  "nTx": 1,
  "previousblockhash": "00000000f8aead2bc4e12845ef4ca3467f49d01a1a8cdbb01302c9462feeef63",
  "nextblockhash": "0000000097ad82fe2e9d3ce60dc11312efcdda3815e5b1acfb886a787ac59c4f",
  "strippedsize": 216,
  "size": 216,
  "weight": 864,
  "tx": [
    {
      "txid": "c6f22a6393497708c02aa65f3d9fe196be166e9b77691688130b54b571ed7880",
      "hash": "c6f22a6393497708c02aa65f3d9fe196be166e9b77691688130b54b571ed7880",
      "version": 1,
      "size": 135,
      "vsize": 135,
      "weight": 540,
      "locktime": 0,
      "vin": [
        {
          "coinbase": "04ffff001d02ea06",
          "sequence": 4294967295
        }
      ],
      "vout": [
        {
          "value": 50.0,
          "n": 0,
          "scriptPubKey": {
            "asm": "04cdb44d522cfe23bcd9efd184f045ac5a1fe3578a41719752defdf26a771807d2cd5148e6624306149eb31f899ca98210aa1a99661f46486bc589902dadd7dd1c OP_CHECKSIG",
            "desc": "pk(04cdb44d522cfe23bcd9efd184f045ac5a1fe3578a41719752defdf26a771807d2cd5148e6624306149eb31f899ca98210aa1a99661f46486bc589902dadd7dd1c)#rh07sszc",
            "hex": "4104cdb44d522cfe23bcd9efd184f045ac5a1fe3578a41719752defdf26a771807d2cd5148e6624306149eb31f899ca98210aa1a99661f46486bc589902dadd7dd1cac",
            "type": "pubkey"
          }
        }
      ],
      "hex": "01000000010000000000000000000000000000000000000000000000000000000000000000ffffffff0804ffff001d02ea06ffffffff0100f2052a01000000434104cdb44d522cfe23bcd9efd184f045ac5a1fe3578a41719752defdf26a771807d2cd5148e6624306149eb31f899ca98210aa1a99661f46486bc589902dadd7dd1cac00000000"
    }
  ]
}