{
  "hash": "00000000265863deee05eb6eaf6e5bdda8c83c9a91e4e23d78750bc9496e07a7",
  "confirmations": 44651,
  "height": 8447,
  "version": 1,
  "versionHex": "00000001",
  "merkleroot": "8942d0ae7ed48c1a993c59fc61f8fbd90837f547bbeee692caba5341ae66f629",
  "time": 1237828302,
  "mediantime": 1237825742,
  "nonce": 4225684246,
  "bits": "1d00ffff",
  "difficulty": 1,
  "chainwork": "0000000000000000000000000000000000000000000000000000210021002100",
  "nTx": 1,
  "previousblockhash": "00000000479f42a88e1cb6c9fc39b2f7e42baa50685624eddde3bd517cf323fe",
  "nextblockhash": "00000000f328621d6fa600202fe79cff93d99118acf9e08d31222e53172ec53f",
  "strippedsize": 216,
  "size": 216,
  "weight": 864,
  "tx": [
    {
      "txid": "8942d0ae7ed48c1a993c59fc61f8fbd90837f547bbeee692caba5341ae66f629",
      "hash": "8942d0ae7ed48c1a993c59fc61f8fbd90837f547bbeee692caba5341ae66f629",
      "version": 1,
      "size": 135,
      "vsize": 135,
      "weight": 540,
      "locktime": 0,
      "vin": [
        {
          "coinbase": "04ffff001d02c106",
          "sequence": 4294967295
        }
      ],
      "vout": [
        {
          "value": 50.0,
          "n": 0,
          "scriptPubKey": {
            "asm": "04418f81034add9e6decb1ad5e2521e94f349cdf9dc0c034853744992438ab590a8dab15d8216271a760fcad67e2906f2d54a40ad279d0833096b944b8184ea7b0 OP_CHECKSIG",
            "desc": "pk(04418f81034add9e6decb1ad5e2521e94f349cdf9dc0c034853744992438ab590a8dab15d8216271a760fcad67e2906f2d54a40ad279d0833096b944b8184ea7b0)#8k2le8cl",
            "hex": "4104418f81034add9e6decb1ad5e2521e94f349cdf9dc0c034853744992438ab590a8dab15d8216271a760fcad67e2906f2d54a40ad279d0833096b944b8184ea7b0ac",
            "type": "pubkey"
          }
        }
      ],
      "hex": "01000000010000000000000000000000000000000000000000000000000000000000000000ffffffff0804ffff001d02c106ffffffff0100f2052a01000000434104418f81034add9e6decb1ad5e2521e94f349cdf9dc0c034853744992438ab590a8dab15d8216271a760fcad67e2906f2d54a40ad279d0833096b944b8184ea7b0ac00000000"
    }
  ]
}