{
  "hash": "00000000163d2e6783901ed6c384ac09071417f283de88d37ce4a2602b6a0233",
  "confirmations": 44830,
  "height": 8268,
  "version": 1,
  "versionHex": "00000001",
  "merkleroot": "33d997fddaa890daf287ee2527238fa6e426d4be9c84ea0e6291a9bc391776f1",
  "time": 1237711624,
  "mediantime": 1237707037,
  "nonce": 1332295173,
  "bits": "1d00ffff",
  "difficulty": 1,
  "chainwork": "0000000000000000000000000000000000000000000000000000204d204d204d",
  "nTx": 1,
  "previousblockhash": "00000000eabd6b5488e55bd5e1b8309bbabde7405beb8c967e3b3bf8ceadd5c5",
  "nextblockhash": "00000000dffd00f4d40f620e2efdabff6f3b539da8aab8f7147bbb75717c14cc",
  "strippedsize": 216,
  "size": 216,
  "weight": 864,
  "tx": [
    {
      "txid": "33d997fddaa890daf287ee2527238fa6e426d4be9c84ea0e6291a9bc391776f1",
      "hash": "33d997fddaa890daf287ee2527238fa6e426d4be9c84ea0e6291a9bc391776f1",
      "version": 1,
      "size": 135,
      "vsize": 135,
      "weight": 540,
      "locktime": 0,
      "vin": [
        {
          "coinbase": "04ffff001d02b303",
          "sequence": 4294967295
        }
      ],
      "vout": [
        {
          "value": 50.0,
          "n": 0,
          "scriptPubKey": {
            "asm": "0479b68b83ff4f37706d46ba12e8d10f5d7fc2bbd7ecd1cbde84a236dc814e4299e5b11e8ab79dbccdf87896b0a4bf202b604bf3b3e7a7fcf0ba9fbdf74c55c1f3 OP_CHECKSIG",
            "desc": "pk(0479b68b83ff4f37706d46ba12e8d10f5d7fc2bbd7ecd1cbde84a236dc814e4299e5b11e8ab79dbccdf87896b0a4bf202b604bf3b3e7a7fcf0ba9fbdf74c55c1f3)#hhr9yekp",
            "hex": "410479b68b83ff4f37706d46ba12e8d10f5d7fc2bbd7ecd1cbde84a236dc814e4299e5b11e8ab79dbccdf87896b0a4bf202b604bf3b3e7a7fcf0ba9fbdf74c55c1f3ac",
            "type": "pubkey"
          }
        }
      ],
      "hex": "01000000010000000000000000000000000000000000000000000000000000000000000000ffffffff0804ffff001d02b303ffffffff0100f2052a0100000043410479b68b83ff4f37706d46ba12e8d10f5d7fc2bbd7ecd1cbde84a236dc814e4299e5b11e8ab79dbccdf87896b0a4bf202b604bf3b3e7a7fcf0ba9fbdf74c55c1f3ac00000000"
    }
  ]
}