{
  "hash": "000000000190d4e3cc233d97fe979599d044aa3e60b8b35caf63c87186d57312",
  "confirmations": 47202,
  "height": 5896,
  "version": 1,
  "versionHex": "00000001",
  "merkleroot": "a7fa0cb1c6b8b98ed7f95b9dd407649ed394258d285d9a866566b0acd74b6b05",
  "time": 1235839933,
  "mediantime": 1235836461,
  "nonce": 3212966964,
  "bits": "1d00ffff",
  "difficulty": 1,
  "chainwork": "0000000000000000000000000000000000000000000000000000170917091709",
  "nTx": 1,
  "previousblockhash": "0000000057df3706e5e346cd5476480a2e03461837e38b3b9d275ff95865c3ee",
  "nextblockhash": "0000000008c979dab95c9adc5c73737db9e418aa14f60cb3cebcfd8ddca323b1",
  "strippedsize": 216,
  "size": 216,
  "weight": 864,
  "tx": [
    {
      "txid": "a7fa0cb1c6b8b98ed7f95b9dd407649ed394258d285d9a866566b0acd74b6b05",
      "hash": "a7fa0cb1c6b8b98ed7f95b9dd407649ed394258d285d9a866566b0acd74b6b05",
      "version": 1,
      "size": 135,
      "vsize": 135,
      "weight": 540,
      "locktime": 0,
      "vin": [
        {
          "coinbase": "04ffff001d02f002",
          "sequence": 4294967295
        }
      ],
      "vout": [
        {
          "value": 50.0,
          "n": 0,
          "scriptPubKey": {
            "asm": "041559f8cc8d51ce2b50869f1af623ca91c357bf3259046034bd8866c73d514b95b608269ec506ed2020714eb3db9473b8c6eaf28a23b5bd55073123aa4748fbff OP_CHECKSIG",
            "desc": "pk(041559f8cc8d51ce2b50869f1af623ca91c357bf3259046034bd8866c73d514b95b608269ec506ed2020714eb3db9473b8c6eaf28a23b5bd55073123aa4748fbff)#3sz2le7v",
            "hex": "41041559f8cc8d51ce2b50869f1af623ca91c357bf3259046034bd8866c73d514b95b608269ec506ed2020714eb3db9473b8c6eaf28a23b5bd55073123aa4748fbffac",
            "type": "pubkey"
          }
        }
      ],
      "hex": "01000000010000000000000000000000000000000000000000000000000000000000000000ffffffff0804ffff001d02f002ffffffff0100f2052a010000004341041559f8cc8d51ce2b50869f1af623ca91c357bf3259046034bd8866c73d514b95b608269ec506ed2020714eb3db9473b8c6eaf28a23b5bd55073123aa4748fbffac00000000"
    }
  ]
}