{
  "hash": "00000000803780d553518bdda590cc5cd9440ee2a1455550335e91b379cb6168",
  "confirmations": 47980,
  "height": 5118,
  "version": 1,
  "versionHex": "00000001",
  "merkleroot": "6a47ef1a6cc33fc2ffe42163be19ccbc94ed0c4c178833dfef55d1e9470164a6",
  "time": 1235230526,
  "mediantime": 1235226241,
  "nonce": 2744348461,
  "bits": "1d00ffff",
  "difficulty": 1,
  "chainwork": "000000000000000000000000000000000000000000000000000013ff13ff13ff",
  "nTx": 1,
  "previousblockhash": "000000003babb3c0681dcb3b43e7f200ee884229d88c0ec9137ee30c6cb687bb",
  "nextblockhash": "00000000439281fa1ef824c31692ded5f7df39ee529d3a534f41ec934265baa9",
  "strippedsize": 216,
  "size": 216,
  "weight": 864,
  "tx": [
    {
      "txid": "6a47ef1a6cc33fc2ffe42163be19ccbc94ed0c4c178833dfef55d1e9470164a6",
      "hash": "6a47ef1a6cc33fc2ffe42163be19ccbc94ed0c4c178833dfef55d1e9470164a6",
      "version": 1,
      "size": 135,
      "vsize": 135,
      "weight": 540,
      "locktime": 0,
      "vin": [
        {
          "coinbase": "04ffff001d025009",
          "sequence": 4294967295
        }
      ],
      "vout": [
        {
          "value": 50.0,
          "n": 0,
          "scriptPubKey": {
            "asm": "0412e8f1057030b876caea7996b3b9201892b9edc22e6131ea8e7b41840666e5d737e885346c35371599ab36a2898a5fa0081048458a8de51754773c205e04d4de OP_CHECKSIG",
            "desc": "pk(0412e8f1057030b876caea7996b3b9201892b9edc22e6131ea8e7b41840666e5d737e885346c35371599ab36a2898a5fa0081048458a8de51754773c205e04d4de)#rd5ev9ay",
            "hex": "410412e8f1057030b876caea7996b3b9201892b9edc22e6131ea8e7b41840666e5d737e885346c35371599ab36a2898a5fa0081048458a8de51754773c205e04d4deac",
            "type": "pubkey"
          }
        }
      ],
      "hex": "01000000010000000000000000000000000000000000000000000000000000000000000000ffffffff0804ffff001d025009ffffffff0100f2052a0100000043410412e8f1057030b876caea7996b3b9201892b9edc22e6131ea8e7b41840666e5d737e885346c35371599ab36a2898a5fa0081048458a8de51754773c205e04d4deac00000000"
    }
  ]
}