{
  "hash": "00000000e29b4934eb46ea3a9a4a14af2e80019a25b6eb3549db9dfe1dc229d8",
  "confirmations": 46142,
  "height": 6956,
  "version": 1,
  "versionHex": "00000001",
  "merkleroot": "095f78ca5b807be2ed06f5fcf1083117f1af36a8dcc5b3e284dc789b81779950",
  "time": 1236684586,
  "mediantime": 1236680785,
  "nonce": 2930767905,
  "bits": "1d00ffff",
  "difficulty": 1,
  "chainwork": "00000000000000000000000000000000000000000000000000001b2d1b2d1b2d",
  "nTx": 1,
  "previousblockhash": "0000000020e3e93765e3c3bdf4ff2aeae61bcaa177d9bc4ab8dd8911110e8511",
  "nextblockhash": "00000000b0878d57ff6d6ddd319ad193b7675ce577c38a4d75a368cc63f51176",
  "strippedsize": 216,
  "size": 216,
  "weight": 864,
  "tx": [
    {
      "txid": "095f78ca5b807be2ed06f5fcf1083117f1af36a8dcc5b3e284dc789b81779950",
      "hash": "095f78ca5b807be2ed06f5fcf1083117f1af36a8dcc5b3e284dc789b81779950",
      "version": 1,
      "size": 135,
      "vsize": 135,
      "weight": 540,
      "locktime": 0,
      "vin": [
        {
          "coinbase": "04ffff001d026e01",
          "sequence": 4294967295
        }
      ],
      "vout": [
        {
          "value": 50.0,
          "n": 0,
          "scriptPubKey": {
            "asm": "04e88bb79b7fb1dd655c6843dd6f79e242631580b9cfd5c212e02861db9036f09d48e40054edd75a077f4691113f0de4562fcdefcfdf5e4bc7c75123f6ec8df5ad OP_CHECKSIG",
            "desc": "pk(04e88bb79b7fb1dd655c6843dd6f79e242631580b9cfd5c212e02861db9036f09d48e40054edd75a077f4691113f0de4562fcdefcfdf5e4bc7c75123f6ec8df5ad)#u2ffgzqw",
            "hex": "4104e88bb79b7fb1dd655c6843dd6f79e242631580b9cfd5c212e02861db9036f09d48e40054edd75a077f4691113f0de4562fcdefcfdf5e4bc7c75123f6ec8df5adac",
            "type": "pubkey"
          }
        }
      ],
      "hex": "01000000010000000000000000000000000000000000000000000000000000000000000000ffffffff0804ffff001d026e01ffffffff0100f2052a01000000434104e88bb79b7fb1dd655c6843dd6f79e242631580b9cfd5c212e02861db9036f09d48e40054edd75a077f4691113f0de4562fcdefcfdf5e4bc7c75123f6ec8df5adac00000000"
    }
  ]
}