{
  "hash": "00000000ddd01b6d8cc64c7cf2f2ef40a2a71d44114696ae5214c8d874b325ff",
  "confirmations": 48284,
  "height": 4814,
  "version": 1,
  "versionHex": "00000001",
  "merkleroot": "5ffe6633bed8987ca914fd9f6ebcc342773fbbd7a40be02adc29b05ebdc6f7fa",
  "time": 1235009228,
  "mediantime": 1235005468,
  "nonce": 3338382647,
  "bits": "1d00ffff",
  "difficulty": 1,
  "chainwork": "000000000000000000000000000000000000000000000000000012cf12cf12cf",
  "nTx": 1,
  "previousblockhash": "0000000054c0a4d5ccaab1f63ce125c2d68119a13389f10f9ce62e5501b60fff",
  "nextblockhash": "000000001ae60e997e6e21f15117fec04e20f8b4d78dc566c2c8bf75713787a7",
  "strippedsize": 216,
  "size": 216,
  "weight": 864,
  "tx": [
    {
      "txid": "5ffe6633bed8987ca914fd9f6ebcc342773fbbd7a40be02adc29b05ebdc6f7fa",
      "hash": "5ffe6633bed8987ca914fd9f6ebcc342773fbbd7a40be02adc29b05ebdc6f7fa",
      "version": 1,
      "size": 135,
      "vsize": 135,
      "weight": 540,
      "locktime": 0,
      "vin": [
        {
          "coinbase": "04ffff001d029404",
          "sequence": 4294967295
        }
      ],
      "vout": [
        {
          "value": 50.0,
          "n": 0,
          "scriptPubKey": {
            "asm": "04438c5a7e0622a93863e0d484fd6181be7e920f411dd52e699c86ad40d7761cf45dc4ee5fa078456bea7598e3c90c42ff90c3564708ddf3333eda5b4f2d17d7a1 OP_CHECKSIG",
            "desc": "pk(04438c5a7e0622a93863e0d484fd6181be7e920f411dd52e699c86ad40d7761cf45dc4ee5fa078456bea7598e3c90c42ff90c3564708ddf3333eda5b4f2d17d7a1)#f3gddql2",
            "hex": "4104438c5a7e0622a93863e0d484fd6181be7e920f411dd52e699c86ad40d7761cf45dc4ee5fa078456bea7598e3c90c42ff90c3564708ddf3333eda5b4f2d17d7a1ac",
            "type": "pubkey"
          }
        }
      ],
      "hex": "01000000010000000000000000000000000000000000000000000000000000000000000000ffffffff0804ffff001d029404ffffffff0100f2052a01000000434104438c5a7e0622a93863e0d484fd6181be7e920f411dd52e699c86ad40d7761cf45dc4ee5fa078456bea7598e3c90c42ff90c3564708ddf3333eda5b4f2d17d7a1ac00000000"
    }
  ]
}