{
  "hash": "000000009342a7b5d434088a48d94dc05ca2b8543f11d8042c4fa2a32f3cfad5",
  "confirmations": 52099,
  "height": 366,
  "version": 1,
  "versionHex": "00000001",
  "merkleroot": "5131177fea9b1937808d86509587ab3a2de0adc882085531a63dc826cc7618c2",
  "time": 1231876609,
  "mediantime": 1231873025,
  "nonce": 2335195392,
  "bits": "1d00ffff",
  "difficulty": 1,
  "chainwork": "0000000000000000000000000000000000000000000000000000016f016f016f",
  "nTx": 1,
  "previousblockhash": "00000000c256b2fa2ac9936f8f78dc8a0d88320a6bb0803ae30f82406af13955",
  "nextblockhash": "00000000b4faa2facc1e5f54978b5c4cc770457d0ce921ac7c8a45d766e0858a",
  "strippedsize": 216,
  "size": 216,
  "weight": 864,
  "tx": [
    {
      "txid": "5131177fea9b1937808d86509587ab3a2de0adc882085531a63dc826cc7618c2",
      "hash": "5131177fea9b1937808d86509587ab3a2de0adc882085531a63dc826cc7618c2",
      "version": 1,
      "size": 135,
      "vsize": 135,
      "weight": 540,
      "locktime": 0,
      "vin": [
        {
          "coinbase": "04ffff001d02cd01",
          "sequence": 4294967295
        }
      ],
      "vout": [
        {
          "value": 50.0,
          "n": 0,
          "scriptPubKey": {
            "asm": "04279f1340c9ee18865ed7df112e11e58881ee35c0681b73967857336edddcd64f16233deef7748ecf1979f8dc252e8becfbef64adf39e3cb29586eeeee19cbb16 OP_CHECKSIG",
            "desc": "pk(04279f1340c9ee18865ed7df112e11e58881ee35c0681b73967857336edddcd64f16233deef7748ecf1979f8dc252e8becfbef64adf39e3cb29586eeeee19cbb16)#0z9mrzz4",
            "hex": "4104279f1340c9ee18865ed7df112e11e58881ee35c0681b73967857336edddcd64f16233deef7748ecf1979f8dc252e8becfbef64adf39e3cb29586eeeee19cbb16ac",
            "type": "pubkey"
          }
        }
      ],
      "hex": "01000000010000000000000000000000000000000000000000000000000000000000000000ffffffff0804ffff001d02cd01ffffffff0100f2052a01000000434104279f1340c9ee18865ed7df112e11e58881ee35c0681b73967857336edddcd64f16233deef7748ecf1979f8dc252e8becfbef64adf39e3cb29586eeeee19cbb16ac00000000"
    }
  ]
}