{
  "hash": "00000000f0655b679fba1aa2d32c0885546e7183667a48a3a1328222d656881e",
  "confirmations": 51121,
  "height": 1977,
  "version": 1,
  "versionHex": "00000001",
  "merkleroot": "63fd56d42562d223041b90b7f71a9ae8c99c96383ba0bbee224cea5082a2dce0",
  "time": 1233028543,
  "mediantime": 1233025028,
  "nonce": 5131554,
  "bits": "1d00ffff",
  "difficulty": 1,
  "chainwork": "000000000000000000000000000000000000000000000000000007ba07ba07ba",
  "nTx": 1,
  "previousblockhash": "0000000086980b604dbbb98eb75b8a897d0b7c96389122ac1cea52866a3ef5d8",
  "nextblockhash": "00000000abd7ba2d26bf3d2079a2406f6643d32e16bb41d4d4ff10277b6a5743",
  "strippedsize": 216,
  "size": 216,
  "weight": 864,
  "tx": [
    {
      "txid": "63fd56d42562d223041b90b7f71a9ae8c99c96383ba0bbee224cea5082a2dce0",
      "hash": "63fd56d42562d223041b90b7f71a9ae8c99c96383ba0bbee224cea5082a2dce0",
      "version": 1,
      "size": 135,
      "vsize": 135,
      "weight": 540,
      "locktime": 0,
      "vin": [
        {
          "coinbase": "04ffff001d021e01",
          "sequence": 4294967295
        }
      ],
      "vout": [
        {
          "value": 50.0,
          "n": 0,
          "scriptPubKey": {
            "asm": "041fcc7cee83afb816ddef212ca1ea5815cdb27f24ff36b07891ade40ee1a97ddf4b2b6387ecd06e6764ac723b6fc3734cecb351419325b30f8f971756790d1a79 OP_CHECKSIG",
            "desc": "pk(041fcc7cee83afb816ddef212ca1ea5815cdb27f24ff36b07891ade40ee1a97ddf4b2b6387ecd06e6764ac723b6fc3734cecb351419325b30f8f971756790d1a79)#terp3d2f",
            "hex": "41041fcc7cee83afb816ddef212ca1ea5815cdb27f24ff36b07891ade40ee1a97ddf4b2b6387ecd06e6764ac723b6fc3734cecb351419325b30f8f971756790d1a79ac",
            "type": "pubkey"
          }
        }
      ],
      "hex": "01000000010000000000000000000000000000000000000000000000000000000000000000ffffffff0804ffff001d021e01ffffffff0100f2052a010000004341041fcc7cee83afb816ddef212ca1ea5815cdb27f24ff36b07891ade40ee1a97ddf4b2b6387ecd06e6764ac723b6fc3734cecb351419325b30f8f971756790d1a79ac00000000"
    }
  ]
}