{
  "hash": "000000007e53b7c2305ef1d7cac84e37402675d664884ff9e94c44effd2097c3",
  "confirmations": 52196,
  "height": 902,
  "version": 1,
  "versionHex": "00000001",
  "merkleroot": "d2e1de6c3648422ff8adfef39cc072912f26c011f5a4aff3c87c3336810dd868",
  "time": 1232278193,
  "mediantime": 1232273473,
  "nonce": 700870452,
  "bits": "1d00ffff",
  "difficulty": 1,
  "chainwork": "0000000000000000000000000000000000000000000000000000038703870387",
  "nTx": 1,
  "previousblockhash": "000000005d43dd65f5b334be51b6ca0910477a0344c5290a36f147c0d5c0730e",
  "nextblockhash": "00000000b55ffd9fb6287b37c50bb6c82a8bb81d2b67c8294ddc8cdf46e79fce",
  "strippedsize": 216,
  "size": 216,
  "weight": 864,
  "tx": [
    {
      "txid": "d2e1de6c3648422ff8adfef39cc072912f26c011f5a4aff3c87c3336810dd868",
      "hash": "d2e1de6c3648422ff8adfef39cc072912f26c011f5a4aff3c87c3336810dd868",
      "version": 1,
      "size": 135,
      "vsize": 135,
      "weight": 540,
      "locktime": 0,
      "vin": [
        {
          "coinbase": "04ffff001d02ad03",
          "sequence": 4294967295
        }
      ],
      "vout": [
        {
          "value": 50.0,
          "n": 0,
          "scriptPubKey": {
            "asm": "04ee1419799271951fe2e0c9e9f6f5a077570d3d6e01acdbd0d990498b04ee6885c72597f9b06640007e9e82fcb6cdad73e7de3a621dd3a999081c6a4f3b77631a OP_CHECKSIG",
            "desc": "pk(04ee1419799271951fe2e0c9e9f6f5a077570d3d6e01acdbd0d990498b04ee6885c72597f9b06640007e9e82fcb6cdad73e7de3a621dd3a999081c6a4f3b77631a)#4eep2pyx",
            "hex": "4104ee1419799271951fe2e0c9e9f6f5a077570d3d6e01acdbd0d990498b04ee6885c72597f9b06640007e9e82fcb6cdad73e7de3a621dd3a999081c6a4f3b77631aac",
            "type": "pubkey"
          }
        }
      ],
      "hex": "01000000010000000000000000000000000000000000000000000000000000000000000000ffffffff0804ffff001d02ad03ffffffff0100f2052a01000000434104ee1419799271951fe2e0c9e9f6f5a077570d3d6e01acdbd0d990498b04ee6885c72597f9b06640007e9e82fcb6cdad73e7de3a621dd3a999081c6a4f3b77631aac00000000"
    }
  ]
}