{
  "hash": "00000000df2ef474533e09c124c2d05905ba5016853128806104a8e8c5412aae",
  "confirmations": 47779,
  "height": 5319,
  "version": 1,
  "versionHex": "00000001",
  "merkleroot": "c6025e183e9b1c8b7f5faf89e25a53b69d5c57a805b190b078a6fcf7d5603015",
  "time": 1235379073,
  "mediantime": 1235375868,
  "nonce": 395375,
  "bits": "1d00ffff",
  "difficulty": 1,
  "chainwork": "000000000000000000000000000000000000000000000000000014c814c814c8",
  "nTx": 1,
  "previousblockhash": "0000000077373914195560aee41f7b290477bd4a6c8641ebf52539478ab31345",
  "nextblockhash": "00000000fc70e6772995d37dac5a0147064c5047e9feff9045dfb26f18293241",
  "strippedsize": 216,
  "size": 216,
  "weight": 864,
  "tx": [
    {
      "txid": "c6025e183e9b1c8b7f5faf89e25a53b69d5c57a805b190b078a6fcf7d5603015",
      "hash": "c6025e183e9b1c8b7f5faf89e25a53b69d5c57a805b190b078a6fcf7d5603015",
      "version": 1,
      "size": 135,
      "vsize": 135,
      "weight": 540,
      "locktime": 0,
      "vin": [
        {
          "coinbase": "04ffff001d02a500",
          "sequence": 4294967295
        }
      ],
      "vout": [
        {
          "value": 50.0,
          "n": 0,
          "scriptPubKey": {
            "asm": "04ae6ec8cb4798bad0c67cc12745c612cfadd2f5e3f26ff61d5f57d0e7cf9e5fc884d294568e235bff2b2484fc3523adddb4f925263e26f2bab6a3fd7fc32a2ad3 OP_CHECKSIG",
            "desc": "pk(04ae6ec8cb4798bad0c67cc12745c612cfadd2f5e3f26ff61d5f57d0e7cf9e5fc884d294568e235bff2b2484fc3523adddb4f925263e26f2bab6a3fd7fc32a2ad3)#c9cf988x",
            "hex": "4104ae6ec8cb4798bad0c67cc12745c612cfadd2f5e3f26ff61d5f57d0e7cf9e5fc884d294568e235bff2b2484fc3523adddb4f925263e26f2bab6a3fd7fc32a2ad3ac",
            "type": "pubkey"
          }
        }
      ],
      "hex": "01000000010000000000000000000000000000000000000000000000000000000000000000ffffffff0804ffff001d02a500ffffffff0100f2052a01000000434104ae6ec8cb4798bad0c67cc12745c612cfadd2f5e3f26ff61d5f57d0e7cf9e5fc884d294568e235bff2b2484fc3523adddb4f925263e26f2bab6a3fd7fc32a2ad3ac00000000"
    }
  ]
}