{
  "hash": "00000000de826db313b89675d3c87abd4fa1226bb16b1605d57d53cdbf818abb",
  "confirmations": 46620,
  "height": 6478,
  "version": 1,
  "versionHex": "00000001",
  "merkleroot": "71919d0cc45aefc71807e4abfdbc29a9c107c9872c0e9dd01ca51f867a42db63",
  "time": 1236314151,
  "mediantime": 1236309333,
  "nonce": 249143971,
  "bits": "1d00ffff",
  "difficulty": 1,
  "chainwork": "0000000000000000000000000000000000000000000000000000194f194f194f",
  "nTx": 1,
  "previousblockhash": "00000000ecc49a43057d125f00c0d3f55473edafbdec2ed55fdec8c04cca9efb",
  "nextblockhash": "00000000804b6cc556b38b08cbfb7955e144584a33d9e26ee924da51ccb92d52",
  "strippedsize": 215,
  "size": 215,
  "weight": 860,
  "tx": [
    {
      "txid": "71919d0cc45aefc71807e4abfdbc29a9c107c9872c0e9dd01ca51f867a42db63",
      "hash": "71919d0cc45aefc71807e4abfdbc29a9c107c9872c0e9dd01ca51f867a42db63",
      "version": 1,
      "size": 134,
      "vsize": 134,
      "weight": 536,
      "locktime": 0,
      "vin": [
        {
          "coinbase": "04ffff001d0147",
          "sequence": 4294967295
        }
      ],
      "vout": [
        {
          "value": 50.0,
          "n": 0,
          "scriptPubKey": {
            "asm": "0447bcfe9d6b14584164413242fb186537331181e0600e96357908cce2653c96d0b406039177edc022adbfe590eb382e79b14f1f9e667d90dab521dcf67c958fef OP_CHECKSIG",
            "desc": "pk(0447bcfe9d6b14584164413242fb186537331181e0600e96357908cce2653c96d0b406039177edc022adbfe590eb382e79b14f1f9e667d90dab521dcf67c958fef)#60pqrxu5",
            "hex": "410447bcfe9d6b14584164413242fb186537331181e0600e96357908cce2653c96d0b406039177edc022adbfe590eb382e79b14f1f9e667d90dab521dcf67c958fefac",
            "type": "pubkey"
          }
        }
      ],
      "hex": "01000000010000000000000000000000000000000000000000000000000000000000000000ffffffff0704ffff001d0147ffffffff0100f2052a0100000043410447bcfe9d6b14584164413242fb186537331181e0600e96357908cce2653c96d0b406039177edc022adbfe590eb382e79b14f1f9e667d90dab521dcf67c958fefac00000000"
    }
  ]
}