{
  "hash": "00000000ef5126d211c6e240795c88d9475c2b0b5d5e75bb0feae6cf59775f08",
  "confirmations": 51218,
  "height": 1880,
  "version": 1,
  "versionHex": "00000001",
  "merkleroot": "14a0d804c307ffcd62d8ad235a9f148d83c30ef56c42b496d748b0d7adf24c3f",
  "time": 1232935690,
  "mediantime": 1232932913,
  "nonce": 2611887383,
  "bits": "1d00ffff",
  "difficulty": 1,
  "chainwork": "0000000000000000000000000000000000000000000000000000075907590759",
  "nTx": 1,
  "previousblockhash": "000000004718c1ef012d3980ba6c85916402c57e4bb0d285f4041627f326d850",
  "nextblockhash": "00000000c0577d1bd0329e645f7f6f79d224bb3e6af8cd480c1210010ce08680",
  "strippedsize": 216,
  "size": 216,
  "weight": 864,
  "tx": [
    {
      "txid": "14a0d804c307ffcd62d8ad235a9f148d83c30ef56c42b496d748b0d7adf24c3f",
      "hash": "14a0d804c307ffcd62d8ad235a9f148d83c30ef56c42b496d748b0d7adf24c3f",
      "version": 1,
      "size": 135,
      "vsize": 135,
      "weight": 540,
      "locktime": 0,
      "vin": [
        {
          "coinbase": "04ffff001d02e804",
          "sequence": 4294967295
        }
      ],
      "vout": [
        {
          "value": 50.0,
          "n": 0,
          "scriptPubKey": {
            "asm": "04e0fb82d7162655f21396459856f67b4dc06c6762094c6f6f14cf3404c6310e345fdaa4d8415bcb47214a651cdeab52d46b4c87085ab99ff3e5c238426b1df08c OP_CHECKSIG",
            "desc": "pk(04e0fb82d7162655f21396459856f67b4dc06c6762094c6f6f14cf3404c6310e345fdaa4d8415bcb47214a651cdeab52d46b4c87085ab99ff3e5c238426b1df08c)#p465mw9n",
            "hex": "4104e0fb82d7162655f21396459856f67b4dc06c6762094c6f6f14cf3404c6310e345fdaa4d8415bcb47214a651cdeab52d46b4c87085ab99ff3e5c238426b1df08cac",
            "type": "pubkey"
          }
        }
      ],
      "hex": "01000000010000000000000000000000000000000000000000000000000000000000000000ffffffff0804ffff001d02e804ffffffff0100f2052a01000000434104e0fb82d7162655f21396459856f67b4dc06c6762094c6f6f14cf3404c6310e345fdaa4d8415bcb47214a651cdeab52d46b4c87085ab99ff3e5c238426b1df08cac00000000"
    }
  ]
}