{
  "hash": "00000000be75c9903df78553c2ee4553a1932ca3b91d99d52bea6234dfabb4f7",
  "confirmations": 50228,
  "height": 2870,
  "version": 1,
  "versionHex": "00000001",
  "merkleroot": "465845a74923bfcfb681ab5e81bea246f8538af50053294b9897f57901a52cd5",
  "time": 1233671549,
  "mediantime": 1233668501,
  "nonce": 69289173,
  "bits": "1d00ffff",
  "difficulty": 1,
  "chainwork": "00000000000000000000000000000000000000000000000000000b370b370b37",
  "nTx": 1,
  "previousblockhash": "000000004527a1612412087d1a5ac150bf1df0b96685786fc4c76a844bfa35db",
  "nextblockhash": "000000009989f65f74bd9d5e812cba076c340474cc3a174472b1f4895ae36907",
  "strippedsize": 215,
  "size": 215,
  "weight": 860,
  "tx": [
    {
      "txid": "465845a74923bfcfb681ab5e81bea246f8538af50053294b9897f57901a52cd5",
      "hash": "465845a74923bfcfb681ab5e81bea246f8538af50053294b9897f57901a52cd5",
      "version": 1,
      "size": 134,
      "vsize": 134,
      "weight": 536,
      "locktime": 0,
      "vin": [
        {
          "coinbase": "04ffff001d011c",
          "sequence": 4294967295
        }
      ],
      "vout": [
        {
          "value": 50.0,
          "n": 0,
          "scriptPubKey": {
            "asm": "046ba4b8ace264d5495b64d75a1d19befd24ec2a1ebe768810d1988a3ce25552e49f913a3769876c2cd518fca41364317b1a69f2ffc062c4a6495b61acfc4f44f9 OP_CHECKSIG",
            "desc": "pk(046ba4b8ace264d5495b64d75a1d19befd24ec2a1ebe768810d1988a3ce25552e49f913a3769876c2cd518fca41364317b1a69f2ffc062c4a6495b61acfc4f44f9)#z7q489lc",
            "hex": "41046ba4b8ace264d5495b64d75a1d19befd24ec2a1ebe768810d1988a3ce25552e49f913a3769876c2cd518fca41364317b1a69f2ffc062c4a6495b61acfc4f44f9ac",
            "type": "pubkey"
          }
        }
      ],
      "hex": "01000000010000000000000000000000000000000000000000000000000000000000000000ffffffff0704ffff001d011cffffffff0100f2052a010000004341046ba4b8ace264d5495b64d75a1d19befd24ec2a1ebe768810d1988a3ce25552e49f913a3769876c2cd518fca41364317b1a69f2ffc062c4a6495b61acfc4f44f9ac00000000"
    }
  ]
}