{
  "hash": "000000004da68466ee873c7095c766baf62df93a16df579350e01e7f78911616",
  "confirmations": 52012,
  "height": 222,
  "version": 1,
  "versionHex": "00000001",
  "merkleroot": "2589399db3e7beda1003703a99e366ea227b6b0d84480f0a0c00283abece0ded",
  "time": 1231770653,
  "mediantime": 1231766029,
  "nonce": 3602730793,
  "bits": "1d00ffff",
  "difficulty": 1,
  "chainwork": "000000000000000000000000000000000000000000000000000000df00df00df",
  "nTx": 1,
  "previousblockhash": "0000000066356691a4353dd8bdc2c60da20d68ad34fff93d8839a133b2a6d42a",
  "nextblockhash": "00000000b9938ade2272609da8a83179d919aa80774c5f2577168dfb1eb51a8f",
  "strippedsize": 216,
  "size": 216,
  "weight": 864,
  "tx": [
    {
      "txid": "2589399db3e7beda1003703a99e366ea227b6b0d84480f0a0c00283abece0ded",
      "hash": "2589399db3e7beda1003703a99e366ea227b6b0d84480f0a0c00283abece0ded",
      "version": 1,
      "size": 135,
      "vsize": 135,
      "weight": 540,
      "locktime": 0,
      "vin": [
        {
          "coinbase": "04ffff001d02a100",
          "sequence": 4294967295
        }
      ],
      "vout": [
        {
          "value": 50.0,
          "n": 0,
          "scriptPubKey": {
            "asm": "0498f5c63326ea7caba0ddcb074d070689a6cdf5e742ba20fe975f5a3245ecace7eda87fa04cc0cb1e68ef341593503002f8c5a88c6f1476442e8c841b9de13d3b OP_CHECKSIG",
            "desc": "pk(0498f5c63326ea7caba0ddcb074d070689a6cdf5e742ba20fe975f5a3245ecace7eda87fa04cc0cb1e68ef341593503002f8c5a88c6f1476442e8c841b9de13d3b)#xm7g99t0",
            "hex": "410498f5c63326ea7caba0ddcb074d070689a6cdf5e742ba20fe975f5a3245ecace7eda87fa04cc0cb1e68ef341593503002f8c5a88c6f1476442e8c841b9de13d3bac",
            "type": "pubkey"
          }
        }
      ],
      "hex": "01000000010000000000000000000000000000000000000000000000000000000000000000ffffffff0804ffff001d02a100ffffffff0100f2052a0100000043410498f5c63326ea7caba0ddcb074d070689a6cdf5e742ba20fe975f5a3245ecace7eda87fa04cc0cb1e68ef341593503002f8c5a88c6f1476442e8c841b9de13d3bac00000000"
    }
  ]
}