{
  "hash": "0000000086941c5a4e7fb7ad5940948cfbbfc23743999293254606eb26bc2a10",
  "confirmations": 50901,
  "height": 2197,
  "version": 1,
  "versionHex": "00000001",
  "merkleroot": "4e31cb3e295a249aefe5aaf4e7b6fb6b9f9546c074470612250c983e5406cb98",
  "time": 1233213283,
  "mediantime": 1233208978,
  "nonce": 367747470,
  "bits": "1d00ffff",
  "difficulty": 1,
  "chainwork": "0000000000000000000000000000000000000000000000000000089608960896",
  "nTx": 1,
  "previousblockhash": "00000000138559989f729ef79ebbf2b47bc24742f94b81007ba733940f574baa",
  "nextblockhash": "0000000048a3ff4c4fe37c2425e88272e19c720796a6a8b3fe451f46709c83ed",
  "strippedsize": 215,
  "size": 215,
  "weight": 860,
  "tx": [
    {
      "txid": "4e31cb3e295a249aefe5aaf4e7b6fb6b9f9546c074470612250c983e5406cb98",
      "hash": "4e31cb3e295a249aefe5aaf4e7b6fb6b9f9546c074470612250c983e5406cb98",
      "version": 1,
      "size": 134,
      "vsize": 134,
      "weight": 536,
      "locktime": 0,
      "vin": [
        {
          "coinbase": "04ffff001d0158",
          "sequence": 4294967295
        }
      ],
      "vout": [
        {
          "value": 50.0,
          "n": 0,
          "scriptPubKey": {
            "asm": "042821decf647334a07864892e809218993bf2df516e82aa02977d9194d1a555e012e92f32f47f10fa7f7d6e14dd130898335938eb236fc62180470bf65e561538 OP_CHECKSIG",
            "desc": "pk(042821decf647334a07864892e809218993bf2df516e82aa02977d9194d1a555e012e92f32f47f10fa7f7d6e14dd130898335938eb236fc62180470bf65e561538)#8cys7522",
            "hex": "41042821decf647334a07864892e809218993bf2df516e82aa02977d9194d1a555e012e92f32f47f10fa7f7d6e14dd130898335938eb236fc62180470bf65e561538ac",
            "type": "pubkey"
          }
        }
      ],
      "hex": "01000000010000000000000000000000000000000000000000000000000000000000000000ffffffff0704ffff001d0158ffffffff0100f2052a010000004341042821decf647334a07864892e809218993bf2df516e82aa02977d9194d1a555e012e92f32f47f10fa7f7d6e14dd130898335938eb236fc62180470bf65e561538ac00000000"
    }
  ]
}