{
  "hash": "000000005665d506f6c3ccb5fd98624f9816a8a169f1d2327d1d4d6d3262ad12",
  "confirmations": 51850,
  "height": 39,
  "version": 1,
  "versionHex": "00000001",
  "merkleroot": "1484c18ba443b13851098597d8cb6d49d5983eab63c53d6b0dcc565612e7ca6b",
  "time": 1231607511,
  "mediantime": 1231604338,
  "nonce": 1610743848,
  "bits": "1d00ffff",
  "difficulty": 1,
  "chainwork": "0000000000000000000000000000000000000000000000000000002800280028",
  "nTx": 1,
  "previousblockhash": "000000007c19ee8e924d3024d58efff50f872aadf256140bb1e3d62fea4fd6dd",
  "nextblockhash": "00000000b2f01f399bf503e55f25a1aa51067056d2eb81915cb91976968b69aa",
  "strippedsize": 215,
  "size": 215,
  "weight": 860,
  "tx": [
    {
      "txid": "1484c18ba443b13851098597d8cb6d49d5983eab63c53d6b0dcc565612e7ca6b",
      "hash": "1484c18ba443b13851098597d8cb6d49d5983eab63c53d6b0dcc565612e7ca6b",
      "version": 1,
      "size": 134,
      "vsize": 134,
      "weight": 536,
      "locktime": 0,
      "vin": [
        {
          "coinbase": "04ffff001d0109",
          "sequence": 4294967295
        }
      ],
      "vout": [
        {
          "value": 50.0,
          "n": 0,
          "scriptPubKey": {
            "asm": "046154d4ed678ddf5fbb9e09ef7d1cf3a8053f5a09fc89303d150d4e715bc691b240c93729cd412d707c48f7bafe41db684c2f9a39aa5995786827e9ed4d185e36 OP_CHECKSIG",
            "desc": "pk(046154d4ed678ddf5fbb9e09ef7d1cf3a8053f5a09fc89303d150d4e715bc691b240c93729cd412d707c48f7bafe41db684c2f9a39aa5995786827e9ed4d185e36)#7sz86c9s",
            "hex": "41046154d4ed678ddf5fbb9e09ef7d1cf3a8053f5a09fc89303d150d4e715bc691b240c93729cd412d707c48f7bafe41db684c2f9a39aa5995786827e9ed4d185e36ac",
            "type": "pubkey"
          }
        }
      ],
      "hex": "01000000010000000000000000000000000000000000000000000000000000000000000000ffffffff0704ffff001d0109ffffffff0100f2052a010000004341046154d4ed678ddf5fbb9e09ef7d1cf3a8053f5a09fc89303d150d4e715bc691b240c93729cd412d707c48f7bafe41db684c2f9a39aa5995786827e9ed4d185e36ac00000000"
    }
  ]
}