{
  "hash": "00000000f99261c7dd7c7492cd2917f0a43f010b630b54e16b65cd631d6bed1e",
  "confirmations": 52165,
  "height": 933,
  "version": 1,
  "versionHex": "00000001",
  "merkleroot": "e8cb53863d3aafee9b013c0e475ec90e624944233f0789897be408e6eea3b650",
  "time": 1232302140,
  "mediantime": 1232298030,
  "nonce": 3868951303,
  "bits": "1d00ffff",
  "difficulty": 1,
  "chainwork": "000000000000000000000000000000000000000000000000000003a603a603a6",
  "nTx": 1,
  "previousblockhash": "0000000021de9e08a94972464e8b4203c69c88e98b0279ad11ce81afd4c54c1f",
  "nextblockhash": "000000005120278f36b55314b0a71920b959c23e6cf06fd82a829188885fa236",
  "strippedsize": 216,
  "size": 216,
  "weight": 864,
  "tx": [
    {
      "txid": "e8cb53863d3aafee9b013c0e475ec90e624944233f0789897be408e6eea3b650",
      "hash": "e8cb53863d3aafee9b013c0e475ec90e624944233f0789897be408e6eea3b650",
      "version": 1,
      "size": 135,
      "vsize": 135,
      "weight": 540,
      "locktime": 0,
      "vin": [
        {
          "coinbase": "04ffff001d022404",
          "sequence": 4294967295
        }
      ],
      "vout": [
        {
          "value": 50.0,
          "n": 0,
          "scriptPubKey": {
            "asm": "041c53453becec6db38eefc36f8eb122c7a8661d3662f8ef634e9845d7cf06e3d4e8c112032ddc1d8b9300ab8328fbef5dcddc3b7f3fad818cefe1684a9d5acbbb OP_CHECKSIG",
            "desc": "pk(041c53453becec6db38eefc36f8eb122c7a8661d3662f8ef634e9845d7cf06e3d4e8c112032ddc1d8b9300ab8328fbef5dcddc3b7f3fad818cefe1684a9d5acbbb)#mvrltk5p",
            "hex": "41041c53453becec6db38eefc36f8eb122c7a8661d3662f8ef634e9845d7cf06e3d4e8c112032ddc1d8b9300ab8328fbef5dcddc3b7f3fad818cefe1684a9d5acbbbac",
            "type": "pubkey"
          }
        }
      ],
      "hex": "01000000010000000000000000000000000000000000000000000000000000000000000000ffffffff0804ffff001d022404ffffffff0100f2052a010000004341041c53453becec6db38eefc36f8eb122c7a8661d3662f8ef634e9845d7cf06e3d4e8c112032ddc1d8b9300ab8328fbef5dcddc3b7f3fad818cefe1684a9d5acbbbac00000000"
    }
  ]
}