{
  "hash": "0000000063355349fe8807f7f006b1bbfe4f317ceea33d383c8b18a5ac5fb132",
  "confirmations": 50824,
  "height": 2274,
  "version": 1,
  "versionHex": "00000001",
  "merkleroot": "85cf8b9dd1ddfeef783ae38f89d6efd9acfb102b6915c2d7ee5fe74d1a68cfbe",
  "time": 1233262711,
  "mediantime": 1233259348,
  "nonce": 1958758943,
  "bits": "1d00ffff",
  "difficulty": 1,
  "chainwork": "000000000000000000000000000000000000000000000000000008e308e308e3",
  "nTx": 1,
  "previousblockhash": "00000000d03abcf627e67ad05fe2893f010e95f668e99fbb55476e4dae07210b",
  "nextblockhash": "0000000031d86ce67a67bd9ff6d37008cc765b24420eb3b3f1c79af904e4e154",
  "strippedsize": 216,
  "size": 216,
  "weight": 864,
  "tx": [
    {
      "txid": "85cf8b9dd1ddfeef783ae38f89d6efd9acfb102b6915c2d7ee5fe74d1a68cfbe",
      "hash": "85cf8b9dd1ddfeef783ae38f89d6efd9acfb102b6915c2d7ee5fe74d1a68cfbe",
      "version": 1,
      "size": 135,
      "vsize": 135,
      "weight": 540,
      "locktime": 0,
      "vin": [
        {
          "coinbase": "04ffff001d024101",
          "sequence": 4294967295
        }
      ],
      "vout": [
        {
          "value": 50.0,
          "n": 0,
          "scriptPubKey": {
            "asm": "04d57efca84ac8bca5ea78fb112dea156f01b219b7c5d127c17a5ecdc2bd717108117fa16dc3ba9186d5208818f85437072c783ee4dc22060eff1c09efc326d988 OP_CHECKSIG",
            "desc": "pk(04d57efca84ac8bca5ea78fb112dea156f01b219b7c5d127c17a5ecdc2bd717108117fa16dc3ba9186d5208818f85437072c783ee4dc22060eff1c09efc326d988)#p7p9ftgl",
            "hex": "4104d57efca84ac8bca5ea78fb112dea156f01b219b7c5d127c17a5ecdc2bd717108117fa16dc3ba9186d5208818f85437072c783ee4dc22060eff1c09efc326d988ac",
            "type": "pubkey"
          }
        }
      ],
      "hex": "01000000010000000000000000000000000000000000000000000000000000000000000000ffffffff0804ffff001d024101ffffffff0100f2052a01000000434104d57efca84ac8bca5ea78fb112dea156f01b219b7c5d127c17a5ecdc2bd717108117fa16dc3ba9186d5208818f85437072c783ee4dc22060eff1c09efc326d988ac00000000"
    }
  ]
}