{
  "hash": "00000000d238b9599d98265f4313d8d57662bb8f8c51a2c6dfe54fcb847194ea",
  "confirmations": 51296,
  "height": 1802,
  "version": 1,
  "versionHex": "00000001",
  "merkleroot": "3f918f708e00f8c5deefdcd07502691f89d7f48cdd1583a2a76cb22f3edca9bf",
  "time": 1232899717,
  "mediantime": 1232896695,
  "nonce": 3625259574,
  "bits": "1d00ffff",
  "difficulty": 1,
  "chainwork": "0000000000000000000000000000000000000000000000000000070b070b070b",
  "nTx": 1,
  "previousblockhash": "00000000c9ccddfd2f3e45036a8d04fcc3263a83b82b4a9fe134dc1d8c7ef295",
  "nextblockhash": "000000006463e5ccebec857a449bff36431f4d02c56c38aadce6ec1a37c75014",
  "strippedsize": 216,
  "size": 216,
  "weight": 864,
  "tx": [
    {
      "txid": "3f918f708e00f8c5deefdcd07502691f89d7f48cdd1583a2a76cb22f3edca9bf",
      "hash": "3f918f708e00f8c5deefdcd07502691f89d7f48cdd1583a2a76cb22f3edca9bf",
      "version": 1,
      "size": 135,
      "vsize": 135,
      "weight": 540,
      "locktime": 0,
      "vin": [
        {
          "coinbase": "04ffff001d022c04",
          "sequence": 4294967295
        }
      ],
      "vout": [
        {
          "value": 50.0,
          "n": 0,
          "scriptPubKey": {
            "asm": "044b66fdf2c047de8de1447c57ce058ef13ea7ae332ad7614c86bc8a7a95b100ff7da26542926ef0e50ff1fc65c4c00bf6aeea37ac214513a550bb9900eae470f0 OP_CHECKSIG",
            "desc": "pk(044b66fdf2c047de8de1447c57ce058ef13ea7ae332ad7614c86bc8a7a95b100ff7da26542926ef0e50ff1fc65c4c00bf6aeea37ac214513a550bb9900eae470f0)#gu3ftn8t",
            "hex": "41044b66fdf2c047de8de1447c57ce058ef13ea7ae332ad7614c86bc8a7a95b100ff7da26542926ef0e50ff1fc65c4c00bf6aeea37ac214513a550bb9900eae470f0ac",
            "type": "pubkey"
          }
        }
      ],
      "hex": "01000000010000000000000000000000000000000000000000000000000000000000000000ffffffff0804ffff001d022c04ffffffff0100f2052a010000004341044b66fdf2c047de8de1447c57ce058ef13ea7ae332ad7614c86bc8a7a95b100ff7da26542926ef0e50ff1fc65c4c00bf6aeea37ac214513a550bb9900eae470f0ac00000000"
    }
  ]
}