{
  "hash": "000000006028fb1be3a7474c94ea83f10905478030457415eb7470f06f007dbd",
  "confirmations": 44235,
  "height": 8863,
  "version": 1,
  "versionHex": "00000001",
  "merkleroot": "38ca712969f71a8048a3dd87abe264b94307c3f8afe477bb58a4b677e1ef0aa0",
  "time": 1238147581,
  "mediantime": 1238142870,
  "nonce": 2422798109,
  "bits": "1d00ffff",
  "difficulty": 1,
  "chainwork": "000000000000000000000000000000000000000000000000000022a022a022a0",
  "nTx": 1,
  "previousblockhash": "0000000062d3153a7f3a61ba5d7e94af4f2f297f69c8613b8b088125b57e1221",
  "nextblockhash": "00000000005ba4f850d0c3bc74a4bcdfa33f72f6becf62276b3a61f1e7ae9207",
  "strippedsize": 216,
  "size": 216,
  "weight": 864,
  "tx": [
    {
      "txid": "38ca712969f71a8048a3dd87abe264b94307c3f8afe477bb58a4b677e1ef0aa0",
      "hash": "38ca712969f71a8048a3dd87abe264b94307c3f8afe477bb58a4b677e1ef0aa0",
      "version": 1,
      "size": 135,
      "vsize": 135,
      "weight": 540,
      "locktime": 0,
      "vin": [
        {
          "coinbase": "04ffff001d02ce03",
          "sequence": 4294967295
        }
      ],
      "vout": [
        {
          "value": 50.0,
          "n": 0,
          "scriptPubKey": {
            "asm": "04a60d7a45df91f03969941e7f022a7d46aa4a5ee7e0fb88986633d94b5c5a7667d77e727eebe4e64e2f50c9cc1ef9a158a927d2d9d01b03c72e9e2e18b3701f94 OP_CHECKSIG",
            "desc": "pk(04a60d7a45df91f03969941e7f022a7d46aa4a5ee7e0fb88986633d94b5c5a7667d77e727eebe4e64e2f50c9cc1ef9a158a927d2d9d01b03c72e9e2e18b3701f94)#ujxecxep",
            "hex": "4104a60d7a45df91f03969941e7f022a7d46aa4a5ee7e0fb88986633d94b5c5a7667d77e727eebe4e64e2f50c9cc1ef9a158a927d2d9d01b03c72e9e2e18b3701f94ac",
            "type": "pubkey"
          }
        }
      ],
      "hex": "01000000010000000000000000000000000000000000000000000000000000000000000000ffffffff0804ffff001d02ce03ffffffff0100f2052a01000000434104a60d7a45df91f03969941e7f022a7d46aa4a5ee7e0fb88986633d94b5c5a7667d77e727eebe4e64e2f50c9cc1ef9a158a927d2d9d01b03c72e9e2e18b3701f94ac00000000"
    }
  ]
}