{
  "hash": "0000000011436617b0ba1502dba2ffcb18d373d860f827717af1503366969bc1",
  "confirmations": 51134,
  "height": 1964,
  "version": 1,
  "versionHex": "00000001",
  "merkleroot": "ee75ee09ef57d047e5b80fbf587b555510d9833e79582b06c379a9079b90e2a0",
  "time": 1233019411,
  "mediantime": 1233015153,
  "nonce": 3414062,
  "bits": "1d00ffff",
  "difficulty": 1,
  "chainwork": "000000000000000000000000000000000000000000000000000007ad07ad07ad",
  "nTx": 1,
  "previousblockhash": "000000002fdf6fd4dc8c37d894e5a188c2878135f4b875fd3d7aa3ad987a0bfd",
  "nextblockhash": "0000000070934f580a18c251a4f3c6559c8b67a3903546c6705cad6cbfb9b6c1",
  "strippedsize": 215,
  "size": 215,
  "weight": 860,
  "tx": [
    {
      "txid": "ee75ee09ef57d047e5b80fbf587b555510d9833e79582b06c379a9079b90e2a0",
      "hash": "ee75ee09ef57d047e5b80fbf587b555510d9833e79582b06c379a9079b90e2a0",
      "version": 1,
      "size": 134,
      "vsize": 134,
      "weight": 536,
      "locktime": 0,
      "vin": [
        {
          "coinbase": "04ffff001d010c",
          "sequence": 4294967295
        }
      ],
      "vout": [
        {
          "value": 50.0,
          "n": 0,
          "scriptPubKey": {
            "asm": "04167145d6bde7bc63f6862630d7dc95e913fb43533dfbb604c7041fb4e047173ad89b5e000c8f7fe0576deeae4c8b04a0984dca37610ad7fd6ccdc29bbbc8707f OP_CHECKSIG",
            "desc": "pk(04167145d6bde7bc63f6862630d7dc95e913fb43533dfbb604c7041fb4e047173ad89b5e000c8f7fe0576deeae4c8b04a0984dca37610ad7fd6ccdc29bbbc8707f)#88urdtg4",
            "hex": "4104167145d6bde7bc63f6862630d7dc95e913fb43533dfbb604c7041fb4e047173ad89b5e000c8f7fe0576deeae4c8b04a0984dca37610ad7fd6ccdc29bbbc8707fac",
            "type": "pubkey"
          }
        }
      ],
      "hex": "01000000010000000000000000000000000000000000000000000000000000000000000000ffffffff0704ffff001d010cffffffff0100f2052a01000000434104167145d6bde7bc63f6862630d7dc95e913fb43533dfbb604c7041fb4e047173ad89b5e000c8f7fe0576deeae4c8b04a0984dca37610ad7fd6ccdc29bbbc8707fac00000000"
    }
  ]
}