{
  "hash": "00000000d66246fba8e33ff91fbbb77f902bc78328eec4d2790396bfb7987154",
  "confirmations": 50502,
  "height": 2596,
  "version": 1,
  "versionHex": "00000001",
  "merkleroot": "14b8a0f017843941fe5075aadcf3b35b241a9ec7ad50468dc6e40232c6df6ab6",
  "time": 1233493394,
  "mediantime": 1233488617,
  "nonce": 1954364681,
  "bits": "1d00ffff",
  "difficulty": 1,
  "chainwork": "00000000000000000000000000000000000000000000000000000a250a250a25",
  "nTx": 1,
  "previousblockhash": "00000000133e1cff927825f11abd9c70201277f6f1128e06a5e333c57c5678d3",
  "nextblockhash": "00000000fa68b47da2fff1d2a238f09256779c997964fc762c2b5cd6b6fdd842",
  "strippedsize": 216,
  "size": 216,
  "weight": 864,
  "tx": [
    {
      "txid": "14b8a0f017843941fe5075aadcf3b35b241a9ec7ad50468dc6e40232c6df6ab6",
      "hash": "14b8a0f017843941fe5075aadcf3b35b241a9ec7ad50468dc6e40232c6df6ab6",
      "version": 1,
      "size": 135,
      "vsize": 135,
      "weight": 540,
      "locktime": 0,
      "vin": [
        {
          "coinbase": "04ffff001d02e702",
          "sequence": 4294967295
        }
      ],
      "vout": [
        {
          "value": 50.0,
          "n": 0,
          "scriptPubKey": {
            "asm": "046430e8192ae73e4ebd8d90f42664aaeb8606527b4e1d7b1f1fa4f5b04c85e48fc3234df8dfe06e1278c94fcc302502a84baaab9127cf5b46ba6b722578e9a771 OP_CHECKSIG",
            "desc": "pk(046430e8192ae73e4ebd8d90f42664aaeb8606527b4e1d7b1f1fa4f5b04c85e48fc3234df8dfe06e1278c94fcc302502a84baaab9127cf5b46ba6b722578e9a771)#cu4m43zj",
            "hex": "41046430e8192ae73e4ebd8d90f42664aaeb8606527b4e1d7b1f1fa4f5b04c85e48fc3234df8dfe06e1278c94fcc302502a84baaab9127cf5b46ba6b722578e9a771ac",
            "type": "pubkey"
          }
        }
      ],
      "hex": "01000000010000000000000000000000000000000000000000000000000000000000000000ffffffff0804ffff001d02e702ffffffff0100f2052a010000004341046430e8192ae73e4ebd8d90f42664aaeb8606527b4e1d7b1f1fa4f5b04c85e48fc3234df8dfe06e1278c94fcc302502a84baaab9127cf5b46ba6b722578e9a771ac00000000"
    }
  ]
}