{
  "hash": "0000000092a37af1da9b6a304d6cb2613ece736bc865476e5a23611f347b0322",
  "confirmations": 52132,
  "height": 966,
  "version": 1,
  "versionHex": "00000001",
  "merkleroot": "11dc0ab607d4d4a7ec4cbb82b6374399174ebbb4a3ab4b2aa55359dca1cf6f89",
  "time": 1232323703,
  "mediantime": 1232319910,
  "nonce": 72330880,
  "bits": "1d00ffff",
  "difficulty": 1,
  "chainwork": "000000000000000000000000000000000000000000000000000003c703c703c7",
  "nTx": 1,
  "previousblockhash": "000000004d3814f64f864ff1e3c2197618154b43c62237c80ea1be1a09c20c92",
  "nextblockhash": "00000000cdf94db726e0bb0f60db1998b8f24241ec0f1fffb594451bbaa477bd",
  "strippedsize": 216,
  "size": 216,
  "weight": 864,
  "tx": [
    {
      "txid": "11dc0ab607d4d4a7ec4cbb82b6374399174ebbb4a3ab4b2aa55359dca1cf6f89",
      "hash": "11dc0ab607d4d4a7ec4cbb82b6374399174ebbb4a3ab4b2aa55359dca1cf6f89",
      "version": 1,
      "size": 135,
      "vsize": 135,
      "weight": 540,
      "locktime": 0,
      "vin": [
        {
          "coinbase": "04ffff001d023a01",
          "sequence": 4294967295
        }
      ],
      "vout": [
        {
          "value": 50.0,
          "n": 0,
          "scriptPubKey": {
            "asm": "04094025d23db7fc8381d2985f5c6afbaffc35f31779f783402784db2ac87c04d7f181397600cae42819d42a0cf6ac5dcc7f3766f83c831da8850a648f05140719 OP_CHECKSIG",
            "desc": "pk(04094025d23db7fc8381d2985f5c6afbaffc35f31779f783402784db2ac87c04d7f181397600cae42819d42a0cf6ac5dcc7f3766f83c831da8850a648f05140719)#lure8clm",
            "hex": "4104094025d23db7fc8381d2985f5c6afbaffc35f31779f783402784db2ac87c04d7f181397600cae42819d42a0cf6ac5dcc7f3766f83c831da8850a648f05140719ac",
            "type": "pubkey"
          }
        }
      ],
      "hex": "01000000010000000000000000000000000000000000000000000000000000000000000000ffffffff0804ffff001d023a01ffffffff0100f2052a01000000434104094025d23db7fc8381d2985f5c6afbaffc35f31779f783402784db2ac87c04d7f181397600cae42819d42a0cf6ac5dcc7f3766f83c831da8850a648f05140719ac00000000"
    }
  ]
}