{
  "hash": "000000003be532452e00cd5820a7597f3b86a0707174d5fe8ab10198006d3240",
  "confirmations": 45127,
  "height": 7971,
  "version": 1,
  "versionHex": "00000001",
  "merkleroot": "4668c5e4c6635c03f20716bb2b1a8d56859b69160add7e21e2bb7e5aff4351da",
  "time": 1237442500,
  "mediantime": 1237438421,
  "nonce": 1925403187,
  "bits": "1d00ffff",
  "difficulty": 1,
  "chainwork": "00000000000000000000000000000000000000000000000000001f241f241f24",
  "nTx": 1,
  "previousblockhash": "000000001e91f3ce43e11e87e7764f442b617d502b8526f5ffe3bb6a573f68f9",
  "nextblockhash": "00000000c098f9ff9bd14d9edb3c1ba38024a3a1a0c89a50570ba45c70128fa6",
  "strippedsize": 216,
  "size": 216,
  "weight": 864,
  "tx": [
    {
      "txid": "4668c5e4c6635c03f20716bb2b1a8d56859b69160add7e21e2bb7e5aff4351da",
      "hash": "4668c5e4c6635c03f20716bb2b1a8d56859b69160add7e21e2bb7e5aff4351da",
      "version": 1,
      "size": 135,
      "vsize": 135,
      "weight": 540,
      "locktime": 0,
      "vin": [
        {
          "coinbase": "04ffff001d02d808",
          "sequence": 4294967295
        }
      ],
      "vout": [
        {
          "value": 50.0,
          "n": 0,
          "scriptPubKey": {
            "asm": "04cfb3a4a8c51eb61125f98080bc9c68825f3fcf6fda90926c0e528d196070b014b057cb5e978e43094071532fc2ec7abfcf2e89a28c743b1200bf65553fb9a558 OP_CHECKSIG",
            "desc": "pk(04cfb3a4a8c51eb61125f98080bc9c68825f3fcf6fda90926c0e528d196070b014b057cb5e978e43094071532fc2ec7abfcf2e89a28c743b1200bf65553fb9a558)#3qsjpedn",
            "hex": "4104cfb3a4a8c51eb61125f98080bc9c68825f3fcf6fda90926c0e528d196070b014b057cb5e978e43094071532fc2ec7abfcf2e89a28c743b1200bf65553fb9a558ac",
            "type": "pubkey"
          }
        }
      ],
      "hex": "01000000010000000000000000000000000000000000000000000000000000000000000000ffffffff0804ffff001d02d808ffffffff0100f2052a01000000434104cfb3a4a8c51eb61125f98080bc9c68825f3fcf6fda90926c0e528d196070b014b057cb5e978e43094071532fc2ec7abfcf2e89a28c743b1200bf65553fb9a558ac00000000"
    }
  ]
}