{
  "hash": "00000000b4852e4781193991e5e336082d0c8f65aaf2e336e338146077366ff0",
  "confirmations": 46093,
  "height": 7005,
  "version": 1,
  "versionHex": "00000001",
  "merkleroot": "0ab60716012e3384104679febc96e02f5a90de2fea4724d26e28bb432e7b0e39",
  "time": 1236722070,
  "mediantime": 1236717839,
  "nonce": 2631776050,
  "bits": "1d00ffff",
  "difficulty": 1,
  "chainwork": "00000000000000000000000000000000000000000000000000001b5e1b5e1b5e",
  "nTx": 1,
  "previousblockhash": "00000000c9b99d80e54f26a4c2be8853c8e9815413c14eaaf1dc437e6943c2d6",
  "nextblockhash": "000000005f180e6d0b2a46c27b3458d56b1ccfa95c0d416de101f4a00bf137f2",
  "strippedsize": 216,
  "size": 216,
  "weight": 864,
  "tx": [
    {
      "txid": "0ab60716012e3384104679febc96e02f5a90de2fea4724d26e28bb432e7b0e39",
      "hash": "0ab60716012e3384104679febc96e02f5a90de2fea4724d26e28bb432e7b0e39",
      "version": 1,
      "size": 135,
      "vsize": 135,
      "weight": 540,
      "locktime": 0,
      "vin": [
        {
          "coinbase": "04ffff001d026902",
          "sequence": 4294967295
        }
      ],
      "vout": [
        {
          "value": 50.0,
          "n": 0,
          "scriptPubKey": {
            "asm": "04b02d54f971d3dffc5b63d10717ab50f6775294b74057c892b741bbc61af09204080781d674f4c72a86c566d86e1cdfe5f78da6a49ba9c5a79c538f3502b84b55 OP_CHECKSIG",
            "desc": "pk(04b02d54f971d3dffc5b63d10717ab50f6775294b74057c892b741bbc61af09204080781d674f4c72a86c566d86e1cdfe5f78da6a49ba9c5a79c538f3502b84b55)#arawx7z8",
            "hex": "4104b02d54f971d3dffc5b63d10717ab50f6775294b74057c892b741bbc61af09204080781d674f4c72a86c566d86e1cdfe5f78da6a49ba9c5a79c538f3502b84b55ac",
            "type": "pubkey"
          }
        }
      ],
      "hex": "01000000010000000000000000000000000000000000000000000000000000000000000000ffffffff0804ffff001d026902ffffffff0100f2052a01000000434104b02d54f971d3dffc5b63d10717ab50f6775294b74057c892b741bbc61af09204080781d674f4c72a86c566d86e1cdfe5f78da6a49ba9c5a79c538f3502b84b55ac00000000"
    }
  ]
}