{
  "hash": "000000001c65bd4a07dd7f2bd18344aa40b92f360f3d73f6deb1444b3501814f",
  "confirmations": 50230,
  "height": 2868,
  "version": 1,
  "versionHex": "00000001",
  "merkleroot": "d008df66aa87a8af07854f804dbdff29ba56b0613917606f5d6a5f7118eddeea",
  "time": 1233670521,
  "mediantime": 1233666967,
  "nonce": 2662090519,
  "bits": "1d00ffff",
  "difficulty": 1,
  "chainwork": "00000000000000000000000000000000000000000000000000000b350b350b35",
  "nTx": 1,
  "previousblockhash": "000000006d6af482c12555a44bed3a0d4bbadf0fa27274225a1ed808b8a7d405",
  "nextblockhash": "000000004527a1612412087d1a5ac150bf1df0b96685786fc4c76a844bfa35db",
  "strippedsize": 216,
  "size": 216,
  "weight": 864,
  "tx": [
    {
      "txid": "d008df66aa87a8af07854f804dbdff29ba56b0613917606f5d6a5f7118eddeea",
      "hash": "d008df66aa87a8af07854f804dbdff29ba56b0613917606f5d6a5f7118eddeea",
      "version": 1,
      "size": 135,
      "vsize": 135,
      "weight": 540,
      "locktime": 0,
      "vin": [
        {
          "coinbase": "04ffff001d02ff06",
          "sequence": 4294967295
        }
      ],
      "vout": [
        {
          "value": 50.0,
          "n": 0,
          "scriptPubKey": {
            "asm": "04a698d3ec1951c7a71042e8932a3f170746c377e20785095a09c6596f1784520fff1e122e8d4eee4fc8194a8d9fa860a3b60d007b5fe97ac92876f8b72147b422 OP_CHECKSIG",
            "desc": "pk(04a698d3ec1951c7a71042e8932a3f170746c377e20785095a09c6596f1784520fff1e122e8d4eee4fc8194a8d9fa860a3b60d007b5fe97ac92876f8b72147b422)#2pputw5a",
            "hex": "4104a698d3ec1951c7a71042e8932a3f170746c377e20785095a09c6596f1784520fff1e122e8d4eee4fc8194a8d9fa860a3b60d007b5fe97ac92876f8b72147b422ac",
            "type": "pubkey"
          }
        }
      ],
      "hex": "01000000010000000000000000000000000000000000000000000000000000000000000000ffffffff0804ffff001d02ff06ffffffff0100f2052a01000000434104a698d3ec1951c7a71042e8932a3f170746c377e20785095a09c6596f1784520fff1e122e8d4eee4fc8194a8d9fa860a3b60d007b5fe97ac92876f8b72147b422ac00000000"
    }
  ]
}