{
  "hash": "00000000a7d43d4fa8391bac72c9190855e1a218506ea98c5deead34ad95e62a",
  "confirmations": 49982,
  "height": 3116,
  "version": 1,
  "versionHex": "00000001",
  "merkleroot": "8098b7e6420c3ba6ce473cd230498153c6575ec6bf6df4ed288268bc49416e39",
  "time": 1233846956,
  "mediantime": 1233843831,
  "nonce": 72865420,
  "bits": "1d00ffff",
  "difficulty": 1,
  "chainwork": "00000000000000000000000000000000000000000000000000000c2d0c2d0c2d",
  "nTx": 1,
  "previousblockhash": "000000002e81c7595323fbc6335ec0563ae386453db47d7a308488dcb272aa3b",
  "nextblockhash": "0000000018603fc7460da87634d23439e7090b4d5f34a475363c480f9a2c6308",
  "strippedsize": 216,
  "size": 216,
  "weight": 864,
  "tx": [
    {
      "txid": "8098b7e6420c3ba6ce473cd230498153c6575ec6bf6df4ed288268bc49416e39",
      "hash": "8098b7e6420c3ba6ce473cd230498153c6575ec6bf6df4ed288268bc49416e39",
      "version": 1,
      "size": 135,
      "vsize": 135,
      "weight": 540,
      "locktime": 0,
      "vin": [
        {
          "coinbase": "04ffff001d02ac07",
          "sequence": 4294967295
        }
      ],
      "vout": [
        {
          "value": 50.0,
          "n": 0,
          "scriptPubKey": {
            "asm": "042518fccc7070d03de40475a24d93df90ed4a396376c9a61b5dc37b291b107334bc216d30148ed27ff535ccc4febdc3dc474b94ec3abad7d481eac7a4029bc49b OP_CHECKSIG",
            "desc": "pk(042518fccc7070d03de40475a24d93df90ed4a396376c9a61b5dc37b291b107334bc216d30148ed27ff535ccc4febdc3dc474b94ec3abad7d481eac7a4029bc49b)#lzff4ngk",
            "hex": "41042518fccc7070d03de40475a24d93df90ed4a396376c9a61b5dc37b291b107334bc216d30148ed27ff535ccc4febdc3dc474b94ec3abad7d481eac7a4029bc49bac",
            "type": "pubkey"
          }
        }
      ],
      "hex": "01000000010000000000000000000000000000000000000000000000000000000000000000ffffffff0804ffff001d02ac07ffffffff0100f2052a010000004341042518fccc7070d03de40475a24d93df90ed4a396376c9a61b5dc37b291b107334bc216d30148ed27ff535ccc4febdc3dc474b94ec3abad7d481eac7a4029bc49bac00000000"
    }
  ]
}