{
  "hash": "000000006533f32f413c4db58b1e2f570c70617c98cec29d42b226cd26690f02",
  "confirmations": 50952,
  "height": 2146,
  "version": 1,
  "versionHex": "00000001",
  "merkleroot": "6b9551ab9bf5afcd9ac47173e376d1c731ba24758beb4a958f9d98b47b01df3c",
  "time": 1233173885,
  "mediantime": 1233169885,
  "nonce": 2780410924,
  "bits": "1d00ffff",
  "difficulty": 1,
  "chainwork": "0000000000000000000000000000000000000000000000000000086308630863",
  "nTx": 1,
  "previousblockhash": "000000000108aaf29957b945ae48abf9419b7b23c265d81493eae01ca7472cb8",
  "nextblockhash": "000000002ce3d00a93b342f931c56436fb627d115e246cc77a5d33af87ebe922",
  "strippedsize": 215,
  "size": 215,
  "weight": 860,
  "tx": [
    {
      "txid": "6b9551ab9bf5afcd9ac47173e376d1c731ba24758beb4a958f9d98b47b01df3c",
      "hash": "6b9551ab9bf5afcd9ac47173e376d1c731ba24758beb4a958f9d98b47b01df3c",
      "version": 1,
      "size": 134,
      "vsize": 134,
      "weight": 536,
      "locktime": 0,
      "vin": [
        {
          "coinbase": "04ffff001d0163",
          "sequence": 4294967295
        }
      ],
      "vout": [
        {
          "value": 50.0,
          "n": 0,
          "scriptPubKey": {
            "asm": "042618608c1f7772c5da4745e8530afcb2cdaa60fbed12bfdfcdc71b529c150bc11145bfe58e141c42acd18bde47402e352058b59a56c05d65d39ba23dac9fb6c0 OP_CHECKSIG",
            "desc": "pk(042618608c1f7772c5da4745e8530afcb2cdaa60fbed12bfdfcdc71b529c150bc11145bfe58e141c42acd18bde47402e352058b59a56c05d65d39ba23dac9fb6c0)#njzenj2g",
            "hex": "41042618608c1f7772c5da4745e8530afcb2cdaa60fbed12bfdfcdc71b529c150bc11145bfe58e141c42acd18bde47402e352058b59a56c05d65d39ba23dac9fb6c0ac",
            "type": "pubkey"
          }
        }
      ],
      "hex": "01000000010000000000000000000000000000000000000000000000000000000000000000ffffffff0704ffff001d0163ffffffff0100f2052a010000004341042618608c1f7772c5da4745e8530afcb2cdaa60fbed12bfdfcdc71b529c150bc11145bfe58e141c42acd18bde47402e352058b59a56c05d65d39ba23dac9fb6c0ac00000000"
    }
  ]
}