{
  "hash": "00000000e62c4e2da549427e3283e7fcb97f74c26d4c2ce71f7b89a0d3509d67",
  "confirmations": 48162,
  "height": 4936,
  "version": 1,
  "versionHex": "00000001",
  "merkleroot": "7a51e1abaff416a49862365b8835e0e03bb5cc7984f92cd6347df8f73642637a",
  "time": 1235094478,
  "mediantime": 1235091313,
  "nonce": 2923019034,
  "bits": "1d00ffff",
  "difficulty": 1,
  "chainwork": "0000000000000000000000000000000000000000000000000000134913491349",
  "nTx": 1,
  "previousblockhash": "00000000e71e95ab631cb898b73385749f28556f9a6d3205c12c056d2c708d22",
  "nextblockhash": "00000000ff39488efbda526e1a1eb49f9c97a570b1519982b7c580711053f5c3",
  "strippedsize": 216,
  "size": 216,
  "weight": 864,
  "tx": [
    {
      "txid": "7a51e1abaff416a49862365b8835e0e03bb5cc7984f92cd6347df8f73642637a",
      "hash": "7a51e1abaff416a49862365b8835e0e03bb5cc7984f92cd6347df8f73642637a",
      "version": 1,
      "size": 135,
      "vsize": 135,
      "weight": 540,
      "locktime": 0,
      "vin": [
        {
          "coinbase": "04ffff001d023806",
          "sequence": 4294967295
        }
      ],
      "vout": [
        {
          "value": 50.0,
          "n": 0,
          "scriptPubKey": {
            "asm": "04103332ce9929047c6d09d58fa91fe467d145810ed8e47d825a46030f459cdde1e938a07640e9ff11b97b386ddce1d83fe0f84e56b10a630d18718fb7b16fa4a8 OP_CHECKSIG",
            "desc": "pk(04103332ce9929047c6d09d58fa91fe467d145810ed8e47d825a46030f459cdde1e938a07640e9ff11b97b386ddce1d83fe0f84e56b10a630d18718fb7b16fa4a8)#2xvgxgq2",
            "hex": "4104103332ce9929047c6d09d58fa91fe467d145810ed8e47d825a46030f459cdde1e938a07640e9ff11b97b386ddce1d83fe0f84e56b10a630d18718fb7b16fa4a8ac",
            "type": "pubkey"
          }
        }
      ],
      "hex": "01000000010000000000000000000000000000000000000000000000000000000000000000ffffffff0804ffff001d023806ffffffff0100f2052a01000000434104103332ce9929047c6d09d58fa91fe467d145810ed8e47d825a46030f459cdde1e938a07640e9ff11b97b386ddce1d83fe0f84e56b10a630d18718fb7b16fa4a8ac00000000"
    }
  ]
}