{
  "hash": "0000000027c5b3cf68cd0dc05922fa2bcef175ec4964810141e220acfe2dd9ab",
  "confirmations": 44469,
  "height": 8629,
  "version": 1,
  "versionHex": "00000001",
  "merkleroot": "5f3d53cd2af7e34201493ef6b9e3e894f89671e8a7865036b01d7ea7b87e2f01",
  "time": 1237968741,
  "mediantime": 1237966225,
  "nonce": 424474903,
  "bits": "1d00ffff",
  "difficulty": 1,
  "chainwork": "000000000000000000000000000000000000000000000000000021b621b621b6",
  "nTx": 1,
  "previousblockhash": "00000000d1fcee238fcae561f10203826653a7192adff3a8ebb8a7617ffce7d8",
  "nextblockhash": "0000000080b7a2f6ddcf79cef1eea9a7c0bd729fbfdba1226e27964c98908035",
  "strippedsize": 216,
  "size": 216,
  "weight": 864,
  "tx": [
    {
      "txid": "5f3d53cd2af7e34201493ef6b9e3e894f89671e8a7865036b01d7ea7b87e2f01",
      "hash": "5f3d53cd2af7e34201493ef6b9e3e894f89671e8a7865036b01d7ea7b87e2f01",
      "version": 1,
      "size": 135,
      "vsize": 135,
      "weight": 540,
      "locktime": 0,
      "vin": [
        {
          "coinbase": "04ffff001d02fc09",
          "sequence": 4294967295
        }
      ],
      "vout": [
        {
          "value": 50.0,
          "n": 0,
          "scriptPubKey": {
            "asm": "04a0a2c833c9946fb3862de9dc5a7cbe34dfba07d66a4eed119a76cbae8717792b88b555783902114212b1633959385d5d3c3518f0e95ece8758487416f105213b OP_CHECKSIG",
            "desc": "pk(04a0a2c833c9946fb3862de9dc5a7cbe34dfba07d66a4eed119a76cbae8717792b88b555783902114212b1633959385d5d3c3518f0e95ece8758487416f105213b)#8l43scre",
            "hex": "4104a0a2c833c9946fb3862de9dc5a7cbe34dfba07d66a4eed119a76cbae8717792b88b555783902114212b1633959385d5d3c3518f0e95ece8758487416f105213bac",
            "type": "pubkey"
          }
        }
      ],
      "hex": "01000000010000000000000000000000000000000000000000000000000000000000000000ffffffff0804ffff001d02fc09ffffffff0100f2052a01000000434104a0a2c833c9946fb3862de9dc5a7cbe34dfba07d66a4eed119a76cbae8717792b88b555783902114212b1633959385d5d3c3518f0e95ece8758487416f105213bac00000000"
    }
  ]
}