{
  "hash": "00000000f878c7445b66af5c25c426fe2882c9f015f4e26c6a6b44608bc661d6",
  "confirmations": 46787,
  "height": 6311,
  "version": 1,
  "versionHex": "00000001",
  "merkleroot": "7de3aad96dab744a49ef20dc32e9a53d24059ca73a543490402070412c95e677",
  "time": 1236180038,
  "mediantime": 1236176777,
  "nonce": 133785974,
  "bits": "1d00ffff",
  "difficulty": 1,
  "chainwork": "000000000000000000000000000000000000000000000000000018a818a818a8",
  "nTx": 1,
  "previousblockhash": "000000004d01cf13e444c7e3e6d79b7ac75a8712985de947710d2e5b2b99527f",
  "nextblockhash": "00000000d1536f0336c4a77c538f08ef87e00f6b1c1f846d59093d9511d023f9",
  "strippedsize": 216,
  "size": 216,
  "weight": 864,
  "tx": [
    {
      "txid": "7de3aad96dab744a49ef20dc32e9a53d24059ca73a543490402070412c95e677",
      "hash": "7de3aad96dab744a49ef20dc32e9a53d24059ca73a543490402070412c95e677",
      "version": 1,
      "size": 135,
      "vsize": 135,
      "weight": 540,
      "locktime": 0,
      "vin": [
        {
          "coinbase": "04ffff001d02dc00",
          "sequence": 4294967295
        }
      ],
      "vout": [
        {
          "value": 50.0,
          "n": 0,
          "scriptPubKey": {
            "asm": "04e3e0e0a2a75426bf5e478e9f45ee121d86707c2db53e3c3f98b6952bdda4330140f4109faae59d5269c616ddb127154a796a7a2a89334eee84d4bf924f9600c7 OP_CHECKSIG",
            "desc": "pk(04e3e0e0a2a75426bf5e478e9f45ee121d86707c2db53e3c3f98b6952bdda4330140f4109faae59d5269c616ddb127154a796a7a2a89334eee84d4bf924f9600c7)#c7qh76ry",
            "hex": "4104e3e0e0a2a75426bf5e478e9f45ee121d86707c2db53e3c3f98b6952bdda4330140f4109faae59d5269c616ddb127154a796a7a2a89334eee84d4bf924f9600c7ac",
            "type": "pubkey"
          }
        }
      ],
      "hex": "01000000010000000000000000000000000000000000000000000000000000000000000000ffffffff0804ffff001d02dc00ffffffff0100f2052a01000000434104e3e0e0a2a75426bf5e478e9f45ee121d86707c2db53e3c3f98b6952bdda4330140f4109faae59d5269c616ddb127154a796a7a2a89334eee84d4bf924f9600c7ac00000000"
    }
  ]
}