{
  "hash": "00000000a50651375eb50f836f61db9e470b60ad1538806a3c1151fbeadbd199",
  "confirmations": 45495,
  "height": 7603,
  "version": 1,
  "versionHex": "00000001",
  "merkleroot": "be2d1a9aad7714d676ca20235d0dfcac88eb595a03d1834394ce5b16ac8decf9",
  "time": 1237171294,
  "mediantime": 1237167751,
  "nonce": 808423481,
  "bits": "1d00ffff",
  "difficulty": 1,
  "chainwork": "00000000000000000000000000000000000000000000000000001db41db41db4",
  "nTx": 1,
  "previousblockhash": "000000004cac8222aa5d6cd3e4a977e97aef95ec92263bb22e12d965824309af",
  "nextblockhash": "00000000884dc2f64bec3f605e0cc6794dc2cbfa25cda2886ce28fa00ab2411a",
  "strippedsize": 216,
  "size": 216,
  "weight": 864,
  "tx": [
    {
      "txid": "be2d1a9aad7714d676ca20235d0dfcac88eb595a03d1834394ce5b16ac8decf9",
      "hash": "be2d1a9aad7714d676ca20235d0dfcac88eb595a03d1834394ce5b16ac8decf9",
      "version": 1,
      "size": 135,
      "vsize": 135,
      "weight": 540,
      "locktime": 0,
      "vin": [
        {
          "coinbase": "04ffff001d02ad02",
          "sequence": 4294967295
        }
      ],
      "vout": [
        {
          "value": 50.0,
          "n": 0,
          "scriptPubKey": {
            "asm": "042d609ceb683edcc23a48a9cbeada219e30fd6e0f64c130e7faae266d85f0d953285e346ee778d7e3b5d08b6987e723ec32ae47d5c9f6d6e2a1d2a3eb71692575 OP_CHECKSIG",
            "desc": "pk(042d609ceb683edcc23a48a9cbeada219e30fd6e0f64c130e7faae266d85f0d953285e346ee778d7e3b5d08b6987e723ec32ae47d5c9f6d6e2a1d2a3eb71692575)#jjyjwsla",
            "hex": "41042d609ceb683edcc23a48a9cbeada219e30fd6e0f64c130e7faae266d85f0d953285e346ee778d7e3b5d08b6987e723ec32ae47d5c9f6d6e2a1d2a3eb71692575ac",
            "type": "pubkey"
          }
        }
      ],
      "hex": "01000000010000000000000000000000000000000000000000000000000000000000000000ffffffff0804ffff001d02ad02ffffffff0100f2052a010000004341042d609ceb683edcc23a48a9cbeada219e30fd6e0f64c130e7faae266d85f0d953285e346ee778d7e3b5d08b6987e723ec32ae47d5c9f6d6e2a1d2a3eb71692575ac00000000"
    }
  ]
}