{
  "hash": "000000002d7648884f84ea6960f99a08bc8aa07a714a4099fa23cf66d166b28f",
  "confirmations": 46861,
  "height": 6237,
  "version": 1,
  "versionHex": "00000001",
  "merkleroot": "488132d9ef1686a9c12ae0f1a4f1e71b64efe44071f1c173569d229b18f672b4",
  "time": 1236122165,
  "mediantime": 1236118415,
  "nonce": 2986936107,
  "bits": "1d00ffff",
  "difficulty": 1,
  "chainwork": "0000000000000000000000000000000000000000000000000000185e185e185e",
  "nTx": 1,
  "previousblockhash": "00000000efa65b37a20a3a6cc6d7c0c4416aec940ba165ce921dca422859ffbe",
  "nextblockhash": "000000000049d528e1ff957e93e089491752d69a924e4de2b5a6ad2f2c05f446",
  "strippedsize": 216,
  "size": 216,
  "weight": 864,
  "tx": [
    {
      "txid": "488132d9ef1686a9c12ae0f1a4f1e71b64efe44071f1c173569d229b18f672b4",
      "hash": "488132d9ef1686a9c12ae0f1a4f1e71b64efe44071f1c173569d229b18f672b4",
      "version": 1,
      "size": 135,
      "vsize": 135,
      "weight": 540,
      "locktime": 0,
      "vin": [
        {
          "coinbase": "04ffff001d024009",
          "sequence": 4294967295
        }
      ],
      "vout": [
        {
          "value": 50.0,
          "n": 0,
          "scriptPubKey": {
            "asm": "0435bdac95a7c91d476249aa766bf2ebf99ecb7f01f0c2df3f1d2036b13dc19e5e479e7173eee0e64e26f2f2e85e6c7fa7be06ee6ab21076015030671fc9b8cf8b OP_CHECKSIG",
            "desc": "pk(0435bdac95a7c91d476249aa766bf2ebf99ecb7f01f0c2df3f1d2036b13dc19e5e479e7173eee0e64e26f2f2e85e6c7fa7be06ee6ab21076015030671fc9b8cf8b)#kl9zaex7",
            "hex": "410435bdac95a7c91d476249aa766bf2ebf99ecb7f01f0c2df3f1d2036b13dc19e5e479e7173eee0e64e26f2f2e85e6c7fa7be06ee6ab21076015030671fc9b8cf8bac",
            "type": "pubkey"
          }
        }
      ],
      "hex": "01000000010000000000000000000000000000000000000000000000000000000000000000ffffffff0804ffff001d024009ffffffff0100f2052a0100000043410435bdac95a7c91d476249aa766bf2ebf99ecb7f01f0c2df3f1d2036b13dc19e5e479e7173eee0e64e26f2f2e85e6c7fa7be06ee6ab21076015030671fc9b8cf8bac00000000"
    }
  ]
}