{
  "hash": "000000006cc7a1898ed2c096de396926374039eea94bdc332bf4761fa22c09f8",
  "confirmations": 48146,
  "height": 4952,
  "version": 1,
  "versionHex": "00000001",
  "merkleroot": "68ef12e335ccc05ea3d4b075a52ec5886e7dd6888190a1636166a5a27d16959d",
  "time": 1235106182,
  "mediantime": 1235102470,
  "nonce": 235808107,
  "bits": "1d00ffff",
  "difficulty": 1,
  "chainwork": "0000000000000000000000000000000000000000000000000000135913591359",
  "nTx": 1,
  "previousblockhash": "000000001d5226224debad7de500a1d410272b36b221788ca3c0fa9a91af87c3",
  "nextblockhash": "000000007332c79e650f38f073bff41f25d01c9bde50f750ee284dd88fff06c3",
  "strippedsize": 216,
  "size": 216,
  "weight": 864,
  "tx": [
    {
      "txid": "68ef12e335ccc05ea3d4b075a52ec5886e7dd6888190a1636166a5a27d16959d",
      "hash": "68ef12e335ccc05ea3d4b075a52ec5886e7dd6888190a1636166a5a27d16959d",
      "version": 1,
      "size": 135,
      "vsize": 135,
      "weight": 540,
      "locktime": 0,
      "vin": [
        {
          "coinbase": "04ffff001d02d403",
          "sequence": 4294967295
        }
      ],
      "vout": [
        {
          "value": 50.0,
          "n": 0,
          "scriptPubKey": {
            "asm": "042f0a6255370bb262953f4daa6dbac7152ab4dcea199d635bc3aa67189d5504622599f75bcf82af5af149ebeda8b063354ce9a01e58bd4039a0ac4bd7298dd6af OP_CHECKSIG",
            "desc": "pk(042f0a6255370bb262953f4daa6dbac7152ab4dcea199d635bc3aa67189d5504622599f75bcf82af5af149ebeda8b063354ce9a01e58bd4039a0ac4bd7298dd6af)#ugfm5cq2",
            "hex": "41042f0a6255370bb262953f4daa6dbac7152ab4dcea199d635bc3aa67189d5504622599f75bcf82af5af149ebeda8b063354ce9a01e58bd4039a0ac4bd7298dd6afac",
            "type": "pubkey"
          }
        }
      ],
      "hex": "01000000010000000000000000000000000000000000000000000000000000000000000000ffffffff0804ffff001d02d403ffffffff0100f2052a010000004341042f0a6255370bb262953f4daa6dbac7152ab4dcea199d635bc3aa67189d5504622599f75bcf82af5af149ebeda8b063354ce9a01e58bd4039a0ac4bd7298dd6afac00000000"
    }
  ]
}