{
  "hash": "0000000023a6db2eb5ebd4045692676a474871628fb1df3e54eb5871dfb79ef4",
  "confirmations": 47120,
  "height": 5978,
  "version": 1,
  "versionHex": "00000001",
  "merkleroot": "7135f3fbe300468dd4bfb19b29ae28ee826002404ab04f24a9c67b6777bd5f9f",
  "time": 1235910318,
  "mediantime": 1235906670,
  "nonce": 446337843,
  "bits": "1d00ffff",
  "difficulty": 1,
  "chainwork": "0000000000000000000000000000000000000000000000000000175b175b175b",
  "nTx": 1,
  "previousblockhash": "00000000b225bff1ddefbf7c5bdfc50b19aed87958532634dafa17dc62ed1556",
  "nextblockhash": "00000000862e368008109249209ab82652b294d45f69f98b670fd78ac6eaabbd",
  "strippedsize": 216,
  "size": 216,
  "weight": 864,
  "tx": [
    {
      "txid": "7135f3fbe300468dd4bfb19b29ae28ee826002404ab04f24a9c67b6777bd5f9f",
      "hash": "7135f3fbe300468dd4bfb19b29ae28ee826002404ab04f24a9c67b6777bd5f9f",
      "version": 1,
      "size": 135,
      "vsize": 135,
      "weight": 540,
      "locktime": 0,
      "vin": [
        {
          "coinbase": "04ffff001d028304",
          "sequence": 4294967295
        }
      ],
      "vout": [
        {
          "value": 50.0,
          "n": 0,
          "scriptPubKey": {
            "asm": "0420d8a5dc0567f1c21e94fd86d8f3e62309499e8cf0af8eb3b4f153a07777ac251b0ad35ddf024b3a996654084960c9cb60a1decdd49054ad33b444030493ee6b OP_CHECKSIG",
            "desc": "pk(0420d8a5dc0567f1c21e94fd86d8f3e62309499e8cf0af8eb3b4f153a07777ac251b0ad35ddf024b3a996654084960c9cb60a1decdd49054ad33b444030493ee6b)#slvm8r0e",
            "hex": "410420d8a5dc0567f1c21e94fd86d8f3e62309499e8cf0af8eb3b4f153a07777ac251b0ad35ddf024b3a996654084960c9cb60a1decdd49054ad33b444030493ee6bac",
            "type": "pubkey"
          }
        }
      ],
      "hex": "01000000010000000000000000000000000000000000000000000000000000000000000000ffffffff0804ffff001d028304ffffffff0100f2052a0100000043410420d8a5dc0567f1c21e94fd86d8f3e62309499e8cf0af8eb3b4f153a07777ac251b0ad35ddf024b3a996654084960c9cb60a1decdd49054ad33b444030493ee6bac00000000"
    }
  ]
}