{
  "hash": "000000007ed76ca99c1c83cfdca1fb60104b38f848bc5d7762ffa38c60eaa32b",
  "confirmations": 52225,
  "height": 393,
  "version": 1,
  "versionHex": "00000001",
  "merkleroot": "fa0b74cfce692a7aecca56b2ea011fda76948ac6f157ac8d079400225884ae1e",
  "time": 1231897603,
  "mediantime": 1231893644,
  "nonce": 705193261,
  "bits": "1d00ffff",
  "difficulty": 1,
  "chainwork": "0000000000000000000000000000000000000000000000000000018a018a018a",
  "nTx": 1,
  "previousblockhash": "00000000817225a719e142178240823283cb53ca9e5e79d88fd5ee70e64fe406",
  "nextblockhash": "00000000dfd83646eca8487419578da5dc0e30b425df78a857106f01149e9bcc",
  "strippedsize": 216,
  "size": 216,
  "weight": 864,
  "tx": [
    {
      "txid": "fa0b74cfce692a7aecca56b2ea011fda76948ac6f157ac8d079400225884ae1e",
      "hash": "fa0b74cfce692a7aecca56b2ea011fda76948ac6f157ac8d079400225884ae1e",
      "version": 1,
      "size": 135,
      "vsize": 135,
      "weight": 540,
      "locktime": 0,
      "vin": [
        {
          "coinbase": "04ffff001d026102",
          "sequence": 4294967295
        }
      ],
      "vout": [
        {
          "value": 50.0,
          "n": 0,
          "scriptPubKey": {
            "asm": "04fb2db26e200b5d66072aa4227b72b13c2ff9e3a6dc1f9621fc8b134fe6f11daf829ced46f6a432c34fc3d5ad27551bbc8a62b34b6af6db6bef2dc7716e8f10a7 OP_CHECKSIG",
            "desc": "pk(04fb2db26e200b5d66072aa4227b72b13c2ff9e3a6dc1f9621fc8b134fe6f11daf829ced46f6a432c34fc3d5ad27551bbc8a62b34b6af6db6bef2dc7716e8f10a7)#afgje0dh",
            "hex": "4104fb2db26e200b5d66072aa4227b72b13c2ff9e3a6dc1f9621fc8b134fe6f11daf829ced46f6a432c34fc3d5ad27551bbc8a62b34b6af6db6bef2dc7716e8f10a7ac",
            "type": "pubkey"
          }
        }
      ],
      "hex": "01000000010000000000000000000000000000000000000000000000000000000000000000ffffffff0804ffff001d026102ffffffff0100f2052a01000000434104fb2db26e200b5d66072aa4227b72b13c2ff9e3a6dc1f9621fc8b134fe6f11daf829ced46f6a432c34fc3d5ad27551bbc8a62b34b6af6db6bef2dc7716e8f10a7ac00000000"
    }
  ]
}