{
  "hash": "0000000016532fc35ddfa019d8c1843f9de6a396c81d29f5186f2e5540e0bee5",
  "confirmations": 51389,
  "height": 1709,
  "version": 1,
  "versionHex": "00000001",
  "merkleroot": "8a48ffc778c49999c350c9f1855e7b314cb529f085704983c21f8a77ce61167c",
  "time": 1232857245,
  "mediantime": 1232854493,
  "nonce": 1080647994,
  "bits": "1d00ffff",
  "difficulty": 1,
  "chainwork": "000000000000000000000000000000000000000000000000000006ae06ae06ae",
  "nTx": 1,
  "previousblockhash": "00000000aa73dd78c5969494dec670aa8ec157824d76020561677e9aeb7f5c09",
  "nextblockhash": "0000000028f54de8c6677b1eaf8241804e6d9a6e89fcf326049c8c3bb3495a64",
  "strippedsize": 216,
  "size": 216,
  "weight": 864,
  "tx": [
    {
      "txid": "8a48ffc778c49999c350c9f1855e7b314cb529f085704983c21f8a77ce61167c",
      "hash": "8a48ffc778c49999c350c9f1855e7b314cb529f085704983c21f8a77ce61167c",
      "version": 1,
      "size": 135,
      "vsize": 135,
      "weight": 540,
      "locktime": 0,
      "vin": [
        {
          "coinbase": "04ffff001d023e03",
          "sequence": 4294967295
        }
      ],
      "vout": [
        {
          "value": 50.0,
          "n": 0,
          "scriptPubKey": {
            "asm": "044c48da7abd53be25d0b683a26488b1e2222987817a102cf49c3ace4fb95c3bdbd348419562761f05428f6cff242acb63d2212a7ace0f8cd88f52d7e99cbea47a OP_CHECKSIG",
            "desc": "pk(044c48da7abd53be25d0b683a26488b1e2222987817a102cf49c3ace4fb95c3bdbd348419562761f05428f6cff242acb63d2212a7ace0f8cd88f52d7e99cbea47a)#acfludzx",
            "hex": "41044c48da7abd53be25d0b683a26488b1e2222987817a102cf49c3ace4fb95c3bdbd348419562761f05428f6cff242acb63d2212a7ace0f8cd88f52d7e99cbea47aac",
            "type": "pubkey"
          }
        }
      ],
      "hex": "01000000010000000000000000000000000000000000000000000000000000000000000000ffffffff0804ffff001d023e03ffffffff0100f2052a010000004341044c48da7abd53be25d0b683a26488b1e2222987817a102cf49c3ace4fb95c3bdbd348419562761f05428f6cff242acb63d2212a7ace0f8cd88f52d7e99cbea47aac00000000"
    }
  ]
}