{
  "hash": "00000000ed6673488f06a571ff3a22352bc6e713f88958bc178d3766f067862e",
  "confirmations": 47657,
  "height": 5441,
  "version": 1,
  "versionHex": "00000001",
  "merkleroot": "6820a6729d45da832a145a0b1ee547f31325f72f3efbc771f975d0ee338ee64f",
  "time": 1235475051,
  "mediantime": 1235469822,
  "nonce": 50286113,
  "bits": "1d00ffff",
  "difficulty": 1,
  "chainwork": "0000000000000000000000000000000000000000000000000000154215421542",
  "nTx": 1,
  "previousblockhash": "00000000bb8f23edadfd9aa1a5b30c8de4379646000e61b1f35daf1f16eba782",
  "nextblockhash": "00000000ba6e6134d72a12c5c3253823f3a8428d2bee15f3dbb1b530223b3170",
  "strippedsize": 216,
  "size": 216,
  "weight": 864,
  "tx": [
    {
      "txid": "6820a6729d45da832a145a0b1ee547f31325f72f3efbc771f975d0ee338ee64f",
      "hash": "6820a6729d45da832a145a0b1ee547f31325f72f3efbc771f975d0ee338ee64f",
      "version": 1,
      "size": 135,
      "vsize": 135,
      "weight": 540,
      "locktime": 0,
      "vin": [
        {
          "coinbase": "04ffff001d027b04",
          "sequence": 4294967295
        }
      ],
      "vout": [
        {
          "value": 50.0,
          "n": 0,
          "scriptPubKey": {
            "asm": "041a4834f245d7ef8f95ac2d9d815f35833817c843f6437d39310aef804daaae52f1a65d4ac7b6f26531c2127b14c3424417ec92866e3377e52ca508b8c374a580 OP_CHECKSIG",
            "desc": "pk(041a4834f245d7ef8f95ac2d9d815f35833817c843f6437d39310aef804daaae52f1a65d4ac7b6f26531c2127b14c3424417ec92866e3377e52ca508b8c374a580)#vt58gyf4",
            "hex": "41041a4834f245d7ef8f95ac2d9d815f35833817c843f6437d39310aef804daaae52f1a65d4ac7b6f26531c2127b14c3424417ec92866e3377e52ca508b8c374a580ac",
            "type": "pubkey"
          }
        }
      ],
      "hex": "01000000010000000000000000000000000000000000000000000000000000000000000000ffffffff0804ffff001d027b04ffffffff0100f2052a010000004341041a4834f245d7ef8f95ac2d9d815f35833817c843f6437d39310aef804daaae52f1a65d4ac7b6f26531c2127b14c3424417ec92866e3377e52ca508b8c374a580ac00000000"
    }
  ]
}