{
  "hash": "00000000e43cec48ecf4f3eff99257f9bbbad40cb358a1370140226ddc728542",
  "confirmations": 45789,
  "height": 7309,
  "version": 1,
  "versionHex": "00000001",
  "merkleroot": "4436f08d31dabc5c1ac0832005db5149369420edfb7f60cfd293910084b1cac4",
  "time": 1236954375,
  "mediantime": 1236951264,
  "nonce": 345388826,
  "bits": "1d00ffff",
  "difficulty": 1,
  "chainwork": "00000000000000000000000000000000000000000000000000001c8e1c8e1c8e",
  "nTx": 2,
  "previousblockhash": "0000000001d7e012d5f8cb107bbea5a4620772adb4c3d3043958b93df4c29cc1",
  "nextblockhash": "000000009369ccf708bcbddc8ce403768980668bea2a97b036fc9d091860bfec",
  "strippedsize": 1736,
  "size": 1736,
  "weight": 6944,
  "tx": [
    {
      "txid": "1c827e943ba21a6bb8f0301bcdbb99e956287a73df5f6499548c4598a2fbb758",
      "hash": "1c827e943ba21a6bb8f0301bcdbb99e956287a73df5f6499548c4598a2fbb758",
      "version": 1,
      "size": 134,
      "vsize": 134,
      "weight": 536,
      "locktime": 0,
      "vin": [
        {
          "coinbase": "04ffff001d012f",
          "sequence": 4294967295
        }
      ],
      "vout": [
        {
          "value": 50.0,
          "n": 0,
          "scriptPubKey": {
            "asm": "0488a0eaa80bd0d6bcf6d8b7d0875d3993dce9d7d3d646bc40aad791691445023a26b35fb0f179284c9ee641e77543dc3c53ac80e9c471771541dc034e0db7e609 OP_CHECKSIG",
            "desc": "pk(0488a0eaa80bd0d6bcf6d8b7d0875d3993dce9d7d3d646bc40aad791691445023a26b35fb0f179284c9ee641e77543dc3c53ac80e9c471771541dc034e0db7e609)#hl92hgge",
            "hex": "410488a0eaa80bd0d6bcf6d8b7d0875d3993dce9d7d3d646bc40aad791691445023a26b35fb0f179284c9ee641e77543dc3c53ac80e9c471771541dc034e0db7e609ac",
            "type": "pubkey"
          }
        }
      ],
      "hex": "01000000010000000000000000000000000000000000000000000000000000000000000000ffffffff0704ffff001d012fffffffff0100f2052a0100000043410488a0eaa80bd0d6bcf6d8b7d0875d3993dce9d7d3d646bc40aad791691445023a26b35fb0f179284c9ee641e77543dc3c53ac80e9c471771541dc034e0db7e609ac00000000"
    },
    {
      "txid": "ef135013bf0ad1768fef565249849e6c125c23a88f9705b376b55e4d9b8c4554",
      "hash": "ef135013bf0ad1768fef565249849e6c125c23a88f9705b376b55e4d9b8c4554",
      "version": 1,
      "size": 1521,
      "vsize": 1521,
      "weight": 6084,
      "locktime": 0,
      "vin": [
        {
          "txid": "55c9f1e5fd016545693f7849c06f71f65e8af06d0c792a2ecb66450367803d08",
          "vout": 0,
          "scriptSig": {
            "asm": "304402206ae22bb29c602f59ce2172408a07a0d700ece3cda7e78801161b33852683bc9e02205ddfcc724f01813cb1276176be3e79f745c6e649dbb407ce6bf43936c00f3ab4[ALL]",
            "hex": "47304402206ae22bb29c602f59ce2172408a07a0d700ece3cda7e78801161b33852683bc9e02205ddfcc724f01813cb1276176be3e79f745c6e649dbb407ce6bf43936c00f3ab401"
          },
          "sequence": 4294967295
        },
        {
          "txid": "e475241859e35fa2007ac6ba68ee93c60e7655b9df78d177961a4300d2a7a22e",
          "vout": 0,
          "scriptSig": {
            "asm": "3045022100bcce3f5a3a739231f0d78fe16458acfefabbbf809815f9b32e7b4993f5cf7a9802200d341c1d2af44ef436000dca89eb58015cc07b8b4fd3a0eb75abb734aba43df2[ALL]",
            "hex": "483045022100bcce3f5a3a739231f0d78fe16458acfefabbbf809815f9b32e7b4993f5cf7a9802200d341c1d2af44ef436000dca89eb58015cc07b8b4fd3a0eb75abb734aba43df201"
          },
          "sequence": 4294967295
        },
        {
          "txid": "9d3daf2004dc358f3823b080ab89b94790f3c6de2aff1e45880053708d2ae351",
          "vout": 0,
          "scriptSig": {
            "asm": "3045022100bd1bc329936ee2b8bb163ad535c7967a5f79d7cd3c0b55ff677e19d0673fde0802205d9ca5789e3197de8fb5e94633106a18cd4b195210a4b32b0a94db24f8891de5[ALL]",
            "hex": "483045022100bd1bc329936ee2b8bb163ad535c7967a5f79d7cd3c0b55ff677e19d0673fde0802205d9ca5789e3197de8fb5e94633106a18cd4b195210a4b32b0a94db24f8891de501"
          },
          "sequence": 4294967295
        },
        {
          "txid": "92566b310d3d8345cafa0ad0d2038b68e8f563e8f2a1e1dd7565bcd5b28feb52",
          "vout": 0,
          "scriptSig": {
            "asm": "304402207e1f77d5a97d8dcc8d65f0fef3700a4f5d79b4ade0b59c2bc4ba680b01dd5d9402202d0f23476ac7f911a5e0ca6ad1c1642f352b8c0ba8c7128a7e4066bd02307349[ALL]",
            "hex": "47304402207e1f77d5a97d8dcc8d65f0fef3700a4f5d79b4ade0b59c2bc4ba680b01dd5d9402202d0f23476ac7f911a5e0ca6ad1c1642f352b8c0ba8c7128a7e4066bd0230734901"
          },
          "sequence": 4294967295
        },
        {
          "txid": "48f9880e794fa2cd26a1fed3d5a80228f9f8440f8257e5e82459ae9e68801378",
          "vout": 0,
          "scriptSig": {
            "asm": "3045022072d815ad1d762e089a444d15306f1a9579fa6f4d6cc6df196db0114dcff6c64b022100f9ed23783c7ec7a6e4749c7d31bb27a33abc414acf439fb8ddeec1b816951fe1[ALL]",
            "hex": "483045022072d815ad1d762e089a444d15306f1a9579fa6f4d6cc6df196db0114dcff6c64b022100f9ed23783c7ec7a6e4749c7d31bb27a33abc414acf439fb8ddeec1b816951fe101"
          },
          "sequence": 4294967295
        },
        {
          "txid": "6b267c4edfa1ea4c5c6d63760951c25a8570dfc203f823b016e1896c21533285",
          "vout": 0,
          "scriptSig": {
            "asm": "30440220232dd8237d2032d6879c2c94b8c7a8e4f742afc8738359357e1263a182447d2902202ecd03120f033bf4fffc91f31a15f463e8b88ae2ccf22756895f94e41f4dffcd[ALL]",
            "hex": "4730440220232dd8237d2032d6879c2c94b8c7a8e4f742afc8738359357e1263a182447d2902202ecd03120f033bf4fffc91f31a15f463e8b88ae2ccf22756895f94e41f4dffcd01"
          },
          "sequence": 4294967295
        },
        {
          "txid": "4d8bb6d9413cbf9b94c8d1e813e4a430135b6586366d5f0aa74eb9d625b9b3a8",
          "vout": 0,
          "scriptSig": {
            "asm": "3044022047fc573d8aacbddd9a3408ca8a7fafc35dfb9d8b0abfabd4b99ad5ab68b50bc0022023fa6290c664dd3416eeaee727b75a76822008ed9bfbafaf1ee076a569510596[ALL]",
            "hex": "473044022047fc573d8aacbddd9a3408ca8a7fafc35dfb9d8b0abfabd4b99ad5ab68b50bc0022023fa6290c664dd3416eeaee727b75a76822008ed9bfbafaf1ee076a56951059601"
          },
          "sequence": 4294967295
        },
        {
          "txid": "a77eadba115de4986275e293148e8b56beb6a5353a4ee3eea10d91d8a04f1eba",
          "vout": 0,
          "scriptSig": {
            "asm": "30450221008e87d6b05ffe7ed548e55a310d3fd339004ed7c52b1dc3db3aabdad13ab58b6a02204865958901244fe846c5cec3d5cbf9beabf41c849b745b479ed8a9d09706ca44[ALL]",
            "hex": "4830450221008e87d6b05ffe7ed548e55a310d3fd339004ed7c52b1dc3db3aabdad13ab58b6a02204865958901244fe846c5cec3d5cbf9beabf41c849b745b479ed8a9d09706ca4401"
          },
          "sequence": 4294967295
        },
        {
          "txid": "a3802ccbc3eee68ff7d0c2be7c5574809ee7b94221aabb126838cbcd82ea49c1",
          "vout": 0,
          "scriptSig": {
            "asm": "3045022100dab469f3aa6b95815e94898fc7b4524094ca0519de63c844f6a930a397ef1c2f02206a6b3bca4ec4e72161c40216b1617c342a44a75b111ab62eade3a305e131ce68[ALL]",
            "hex": "483045022100dab469f3aa6b95815e94898fc7b4524094ca0519de63c844f6a930a397ef1c2f02206a6b3bca4ec4e72161c40216b1617c342a44a75b111ab62eade3a305e131ce6801"
          },
          "sequence": 4294967295
        },
        {
          "txid": "eff73fbadce9aaf0c87beafd5c5a709e15e3eb251529c58f0325168b9563c2c1",
          "vout": 0,
          "scriptSig": {
            "asm": "3044022045756a1781587925040544565d48e83554abfefcfed87e45724a635905a9a03d02206b4e2c7aa62944ab2efa784ed313e7ffffdc379b4d877b087401e749dd8809ba[ALL]",
            "hex": "473044022045756a1781587925040544565d48e83554abfefcfed87e45724a635905a9a03d02206b4e2c7aa62944ab2efa784ed313e7ffffdc379b4d877b087401e749dd8809ba01"
          },
          "sequence": 4294967295
        },
        {
          "txid": "6da1d95280fff1fc2c354118d36816a81f64fbe4a26c4782de964af2a9b74bd2",
          "vout": 0,
          "scriptSig": {
            "asm": "3045022100d8e3f222286ac7190a4d9ab2c76d0261d5fa335c9149ad87c0f3d7e6c39f1195022056eec5fb1f093695424926e391da81ca442351abaf77429776585a46ed2c229d[ALL]",
            "hex": "483045022100d8e3f222286ac7190a4d9ab2c76d0261d5fa335c9149ad87c0f3d7e6c39f1195022056eec5fb1f093695424926e391da81ca442351abaf77429776585a46ed2c229d01"
          },
          "sequence": 4294967295
        },
        {
          "txid": "6a697d4ea52e2cb3f9c176fd2f3014f550bc0e8b4ed8e47588819535b99a39df",
          "vout": 0,
          "scriptSig": {
            "asm": "30450221008d361c6e58ff693f4996f0276bf30cbe310061f6fbee4486b44403c4f772f6ae022042d281c4d3357c66959ad82e2e20d67af5a70b4ff54e0703f47eb3825347d6cc[ALL]",
            "hex": "4830450221008d361c6e58ff693f4996f0276bf30cbe310061f6fbee4486b44403c4f772f6ae022042d281c4d3357c66959ad82e2e20d67af5a70b4ff54e0703f47eb3825347d6cc01"
          },
          "sequence": 4294967295
        },
        {
          "txid": "d85159c89fdb769718b4a11e20f1fa1abf28db3b0e1f218784c83dc8ed100fe0",
          "vout": 0,
          "scriptSig": {
            "asm": "304502207049fc31abe3f3b3c489ad531f2e352ff13a14e225b42abd9d9198218a5c960d022100d0a9d3ba8735352e8483dd6c1da85f6ace1bbabca81d3f94e64e255df4fdb89c[ALL]",
            "hex": "48304502207049fc31abe3f3b3c489ad531f2e352ff13a14e225b42abd9d9198218a5c960d022100d0a9d3ba8735352e8483dd6c1da85f6ace1bbabca81d3f94e64e255df4fdb89c01"
          },
          "sequence": 4294967295
        }
      ],
      "vout": [
        {
          "value": 750.0,
          "n": 0,
          "scriptPubKey": {
            "asm": "OP_DUP OP_HASH160 592fc3990026334c8c6fb2b9da457179cdb5c688 OP_EQUALVERIFY OP_CHECKSIG",
            "desc": "addr(198aMn6ZYAczwrE5NvNTUMyJ5qkfy4g3Hi)#k9ndhvwd",
            "hex": "76a914592fc3990026334c8c6fb2b9da457179cdb5c68888ac",
            "address": "198aMn6ZYAczwrE5NvNTUMyJ5qkfy4g3Hi",
            "type": "pubkeyhash"
          }
        }
      ],
      "fee": 0.0,
      "hex": "010000000d083d8067034566cb2e2a790c6df08a5ef6716fc049783f69456501fde5f1c955000000004847304402206ae22bb29c602f59ce2172408a07a0d700ece3cda7e78801161b33852683bc9e02205ddfcc724f01813cb1276176be3e79f745c6e649dbb407ce6bf43936c00f3ab401ffffffff2ea2a7d200431a9677d178dfb955760ec693ee68bac67a00a25fe359182475e40000000049483045022100bcce3f5a3a739231f0d78fe16458acfefabbbf809815f9b32e7b4993f5cf7a9802200d341c1d2af44ef436000dca89eb58015cc07b8b4fd3a0eb75abb734aba43df201ffffffff51e32a8d70530088451eff2adec6f39047b989ab80b023388f35dc0420af3d9d0000000049483045022100bd1bc329936ee2b8bb163ad535c7967a5f79d7cd3c0b55ff677e19d0673fde0802205d9ca5789e3197de8fb5e94633106a18cd4b195210a4b32b0a94db24f8891de501ffffffff52eb8fb2d5bc6575dde1a1f2e863f5e8688b03d2d00afaca45833d0d316b5692000000004847304402207e1f77d5a97d8dcc8d65f0fef3700a4f5d79b4ade0b59c2bc4ba680b01dd5d9402202d0f23476ac7f911a5e0ca6ad1c1642f352b8c0ba8c7128a7e4066bd0230734901ffffffff781380689eae5924e8e557820f44f8f92802a8d5d3fea126cda24f790e88f9480000000049483045022072d815ad1d762e089a444d15306f1a9579fa6f4d6cc6df196db0114dcff6c64b022100f9ed23783c7ec7a6e4749c7d31bb27a33abc414acf439fb8ddeec1b816951fe101ffffffff853253216c89e116b023f803c2df70855ac2510976636d5c4ceaa1df4e7c266b00000000484730440220232dd8237d2032d6879c2c94b8c7a8e4f742afc8738359357e1263a182447d2902202ecd03120f033bf4fffc91f31a15f463e8b88ae2ccf22756895f94e41f4dffcd01ffffffffa8b3b925d6b94ea70a5f6d3686655b1330a4e413e8d1c8949bbf3c41d9b68b4d0000000048473044022047fc573d8aacbddd9a3408ca8a7fafc35dfb9d8b0abfabd4b99ad5ab68b50bc0022023fa6290c664dd3416eeaee727b75a76822008ed9bfbafaf1ee076a56951059601ffffffffba1e4fa0d8910da1eee34e3a35a5b6be568b8e1493e2756298e45d11baad7ea700000000494830450221008e87d6b05ffe7ed548e55a310d3fd339004ed7c52b1dc3db3aabdad13ab58b6a02204865958901244fe846c5cec3d5cbf9beabf41c849b745b479ed8a9d09706ca4401ffffffffc149ea82cdcb386812bbaa2142b9e79e8074557cbec2d0f78fe6eec3cb2c80a30000000049483045022100dab469f3aa6b95815e94898fc7b4524094ca0519de63c844f6a930a397ef1c2f02206a6b3bca4ec4e72161c40216b1617c342a44a75b111ab62eade3a305e131ce6801ffffffffc1c263958b1625038fc5291525ebe3159e705a5cfdea7bc8f0aae9dcba3ff7ef0000000048473044022045756a1781587925040544565d48e83554abfefcfed87e45724a635905a9a03d02206b4e2c7aa62944ab2efa784ed313e7ffffdc379b4d877b087401e749dd8809ba01ffffffffd24bb7a9f24a96de82476ca2e4fb641fa81668d31841352cfcf1ff8052d9a16d0000000049483045022100d8e3f222286ac7190a4d9ab2c76d0261d5fa335c9149ad87c0f3d7e6c39f1195022056eec5fb1f093695424926e391da81ca442351abaf77429776585a46ed2c229d01ffffffffdf399ab93595818875e4d84e8b0ebc50f514302ffd76c1f9b32c2ea54e7d696a00000000494830450221008d361c6e58ff693f4996f0276bf30cbe310061f6fbee4486b44403c4f772f6ae022042d281c4d3357c66959ad82e2e20d67af5a70b4ff54e0703f47eb3825347d6cc01ffffffffe00f10edc83dc88487211f0e3bdb28bf1afaf1201ea1b4189776db9fc85951d8000000004948304502207049fc31abe3f3b3c489ad531f2e352ff13a14e225b42abd9d9198218a5c960d022100d0a9d3ba8735352e8483dd6c1da85f6ace1bbabca81d3f94e64e255df4fdb89c01ffffffff01002e5976110000001976a914592fc3990026334c8c6fb2b9da457179cdb5c68888ac00000000"
    }
  ]
}