{
  "hash": "00000000fcb88e7c9e4300f89c53c2c1bf547335e2edc1d88b226717dd2c618e",
  "confirmations": 51354,
  "height": 1744,
  "version": 1,
  "versionHex": "00000001",
  "merkleroot": "36c3de21b93dc116b443b36b10e2f012bc279df17847f7175c8d104aeaeced22",
  "time": 1232871305,
  "mediantime": 1232868962,
  "nonce": 1327792438,
  "bits": "1d00ffff",
  "difficulty": 1,
  "chainwork": "000000000000000000000000000000000000000000000000000006d106d106d1",
  "nTx": 1,
  "previousblockhash": "0000000062ae6360470475642d32e20fea058d523b9eb55f8eef54d77a4aad52",
  "nextblockhash": "00000000047d04b3f745bdb8aae8f84313a611c3a68d0d23a6c2326fcc0dafd3",
  "strippedsize": 216,
  "size": 216,
  "weight": 864,
  "tx": [
    {
      "txid": "36c3de21b93dc116b443b36b10e2f012bc279df17847f7175c8d104aeaeced22",
      "hash": "36c3de21b93dc116b443b36b10e2f012bc279df17847f7175c8d104aeaeced22",
      "version": 1,
      "size": 135,
      "vsize": 135,
      "weight": 540,
      "locktime": 0,
      "vin": [
        {
          "coinbase": "04ffff001d027b03",
          "sequence": 4294967295
        }
      ],
      "vout": [
        {
          "value": 50.0,
          "n": 0,
          "scriptPubKey": {
            "asm": "04ee01f045a88517aea26afcbd7fbc07ecd2d1ccfe8f9d6b2141ebcb8dc9e703d80d6162e43f18e88ff919779bd3c9ce49457c06976651d09abe5b98aa1146be74 OP_CHECKSIG",
            "desc": "pk(04ee01f045a88517aea26afcbd7fbc07ecd2d1ccfe8f9d6b2141ebcb8dc9e703d80d6162e43f18e88ff919779bd3c9ce49457c06976651d09abe5b98aa1146be74)#33lvtrrc",
            "hex": "4104ee01f045a88517aea26afcbd7fbc07ecd2d1ccfe8f9d6b2141ebcb8dc9e703d80d6162e43f18e88ff919779bd3c9ce49457c06976651d09abe5b98aa1146be74ac",
            "type": "pubkey"
          }
        }
      ],
      "hex": "01000000010000000000000000000000000000000000000000000000000000000000000000ffffffff0804ffff001d027b03ffffffff0100f2052a01000000434104ee01f045a88517aea26afcbd7fbc07ecd2d1ccfe8f9d6b2141ebcb8dc9e703d80d6162e43f18e88ff919779bd3c9ce49457c06976651d09abe5b98aa1146be74ac00000000"
    }
  ]
}