{
  "hash": "0000000049bfe5a11e376a59f062e59282c8068a70edf1c82088f3aa3e4b6aef",
  "confirmations": 50309,
  "height": 2789,
  "version": 1,
  "versionHex": "00000001",
  "merkleroot": "5592d93908449c859fd4fa1ab8da4b676d975dd8377ee08ae6b008281517504b",
  "time": 1233622094,
  "mediantime": 1233618919,
  "nonce": 2449686534,
  "bits": "1d00ffff",
  "difficulty": 1,
  "chainwork": "00000000000000000000000000000000000000000000000000000ae60ae60ae6",
  "nTx": 1,
  "previousblockhash": "00000000952f5425fa4664f3baf13e8889d1adf8bd208a43a617725c18cb6c19",
  "nextblockhash": "0000000000d3f53438446e9b4d4d1856f563667fb1e17730b7c1e4b9dcc00b30",
  "strippedsize": 216,
  "size": 216,
  "weight": 864,
  "tx": [
    {
      "txid": "5592d93908449c859fd4fa1ab8da4b676d975dd8377ee08ae6b008281517504b",
      "hash": "5592d93908449c859fd4fa1ab8da4b676d975dd8377ee08ae6b008281517504b",
      "version": 1,
      "size": 135,
      "vsize": 135,
      "weight": 540,
      "locktime": 0,
      "vin": [
        {
          "coinbase": "04ffff001d020a06",
          "sequence": 4294967295
        }
      ],
      "vout": [
        {
          "value": 50.0,
          "n": 0,
          "scriptPubKey": {
            "asm": "04c2903e265ef9326f2d1b0b6a5765c2420118da3464391ecae1b110c6470479894e5c5722749057f46608957154459e3598e6df4afc17436c995f3bbac7c60ed9 OP_CHECKSIG",
            "desc": "pk(04c2903e265ef9326f2d1b0b6a5765c2420118da3464391ecae1b110c6470479894e5c5722749057f46608957154459e3598e6df4afc17436c995f3bbac7c60ed9)#2uweuppk",
            "hex": "4104c2903e265ef9326f2d1b0b6a5765c2420118da3464391ecae1b110c6470479894e5c5722749057f46608957154459e3598e6df4afc17436c995f3bbac7c60ed9ac",
            "type": "pubkey"
          }
        }
      ],
      "hex": "01000000010000000000000000000000000000000000000000000000000000000000000000ffffffff0804ffff001d020a06ffffffff0100f2052a01000000434104c2903e265ef9326f2d1b0b6a5765c2420118da3464391ecae1b110c6470479894e5c5722749057f46608957154459e3598e6df4afc17436c995f3bbac7c60ed9ac00000000"
    }
  ]
}