{
  "hash": "0000000063bfc93167f025a0c76c8a7c1f7f068580e8bde8a1a3d2979a3cbbc8",
  "confirmations": 49742,
  "height": 3356,
  "version": 1,
  "versionHex": "00000001",
  "merkleroot": "87d040b5cef1ba31e055373c7b7e754b963c304b3b59c0796a94d288b2754249",
  "time": 1234008148,
  "mediantime": 1234004212,
  "nonce": 44418493,
  "bits": "1d00ffff",
  "difficulty": 1,
  "chainwork": "00000000000000000000000000000000000000000000000000000d1d0d1d0d1d",
  "nTx": 1,
  "previousblockhash": "00000000030aafcfd8bb78cdff0a4153fabfaf25be4199a8f8ceb5c7c79d6168",
  "nextblockhash": "000000007125b454ad0de5f49af86a855c7f1eab526fc6f1473394a5945af9cc",
  "strippedsize": 215,
  "size": 215,
  "weight": 860,
  "tx": [
    {
      "txid": "87d040b5cef1ba31e055373c7b7e754b963c304b3b59c0796a94d288b2754249",
      "hash": "87d040b5cef1ba31e055373c7b7e754b963c304b3b59c0796a94d288b2754249",
      "version": 1,
      "size": 134,
      "vsize": 134,
      "weight": 536,
      "locktime": 0,
      "vin": [
        {
          "coinbase": "04ffff001d010a",
          "sequence": 4294967295
        }
      ],
      "vout": [
        {
          "value": 50.0,
          "n": 0,
          "scriptPubKey": {
            "asm": "0403210e22130052239dd4d5fceb2f657fd177e6dc3889d544a723cd0b111ce3faf0663eac0d3f0b0c9d36a45cb724ea8a8ba5f3266eae464cbdae73b7e4528e88 OP_CHECKSIG",
            "desc": "pk(0403210e22130052239dd4d5fceb2f657fd177e6dc3889d544a723cd0b111ce3faf0663eac0d3f0b0c9d36a45cb724ea8a8ba5f3266eae464cbdae73b7e4528e88)#40xdc86v",
            "hex": "410403210e22130052239dd4d5fceb2f657fd177e6dc3889d544a723cd0b111ce3faf0663eac0d3f0b0c9d36a45cb724ea8a8ba5f3266eae464cbdae73b7e4528e88ac",
            "type": "pubkey"
          }
        }
      ],
      "hex": "01000000010000000000000000000000000000000000000000000000000000000000000000ffffffff0704ffff001d010affffffff0100f2052a0100000043410403210e22130052239dd4d5fceb2f657fd177e6dc3889d544a723cd0b111ce3faf0663eac0d3f0b0c9d36a45cb724ea8a8ba5f3266eae464cbdae73b7e4528e88ac00000000"
    }
  ]
}