{
  "hash": "000000009071cc47c91bb79252981fe5aae10d67d1f2c3cefe3e6d7669e54e8d",
  "confirmations": 47706,
  "height": 5392,
  "version": 1,
  "versionHex": "00000001",
  "merkleroot": "beac811743266c57f8951b5b7a53072f6b7158db183ec2305bf893cb43b03766",
  "time": 1235434328,
  "mediantime": 1235429612,
  "nonce": 2856911895,
  "bits": "1d00ffff",
  "difficulty": 1,
  "chainwork": "0000000000000000000000000000000000000000000000000000151115111511",
  "nTx": 1,
  "previousblockhash": "0000000029f43c478ae858c7c74dde93566c7d96eef8d7ce5f06a9d9b0683448",
  "nextblockhash": "0000000060375e12a4181dadca9dbd5058a632885dfbb74478e8f549c0ecefd3",
  "strippedsize": 216,
  "size": 216,
  "weight": 864,
  "tx": [
    {
      "txid": "beac811743266c57f8951b5b7a53072f6b7158db183ec2305bf893cb43b03766",
      "hash": "beac811743266c57f8951b5b7a53072f6b7158db183ec2305bf893cb43b03766",
      "version": 1,
      "size": 135,
      "vsize": 135,
      "weight": 540,
      "locktime": 0,
      "vin": [
        {
          "coinbase": "04ffff001d028103",
          "sequence": 4294967295
        }
      ],
      "vout": [
        {
          "value": 50.0,
          "n": 0,
          "scriptPubKey": {
            "asm": "04c9495ff25586907ffd82d7d1612fe9f7a14e743c26eafd70a2f4e2defca2576fcf8b76a8652f9ab0198db4cacf7f6d1998827728be757385ed15defbd433a1e3 OP_CHECKSIG",
            "desc": "pk(04c9495ff25586907ffd82d7d1612fe9f7a14e743c26eafd70a2f4e2defca2576fcf8b76a8652f9ab0198db4cacf7f6d1998827728be757385ed15defbd433a1e3)#ywws983p",
            "hex": "4104c9495ff25586907ffd82d7d1612fe9f7a14e743c26eafd70a2f4e2defca2576fcf8b76a8652f9ab0198db4cacf7f6d1998827728be757385ed15defbd433a1e3ac",
            "type": "pubkey"
          }
        }
      ],
      "hex": "01000000010000000000000000000000000000000000000000000000000000000000000000ffffffff0804ffff001d028103ffffffff0100f2052a01000000434104c9495ff25586907ffd82d7d1612fe9f7a14e743c26eafd70a2f4e2defca2576fcf8b76a8652f9ab0198db4cacf7f6d1998827728be757385ed15defbd433a1e3ac00000000"
    }
  ]
}