{
  "hash": "00000000d624dd8adfab7602eeff44d0bd9d23d177b72b80b00c066e370dfc2b",
  "confirmations": 46676,
  "height": 6422,
  "version": 1,
  "versionHex": "00000001",
  "merkleroot": "ba9b84bb29ca2c4a5b34d216c4ef8b54a83a733c88303f80cb76938943d8454d",
  "time": 1236271748,
  "mediantime": 1236268970,
  "nonce": 374838551,
  "bits": "1d00ffff",
  "difficulty": 1,
  "chainwork": "0000000000000000000000000000000000000000000000000000191719171917",
  "nTx": 1,
  "previousblockhash": "0000000031f1cdc6ac29c2ff3e5597bcceb127aa04856dcd44d63bfec3911ddd",
  "nextblockhash": "00000000591c60926972a52a26008a57f6b4a2ececfc7bcd440e39494f9d2650",
  "strippedsize": 216,
  "size": 216,
  "weight": 864,
  "tx": [
    {
      "txid": "ba9b84bb29ca2c4a5b34d216c4ef8b54a83a733c88303f80cb76938943d8454d",
      "hash": "ba9b84bb29ca2c4a5b34d216c4ef8b54a83a733c88303f80cb76938943d8454d",
      "version": 1,
      "size": 135,
      "vsize": 135,
      "weight": 540,
      "locktime": 0,
      "vin": [
        {
          "coinbase": "04ffff001d023702",
          "sequence": 4294967295
        }
      ],
      "vout": [
        {
          "value": 50.0,
          "n": 0,
          "scriptPubKey": {
            "asm": "04695927595fc267113bfe308d910e60e46a72109ebc0ae19a6c233c057feb3ee7eba0bc0d560c9e16c9cf33b59bfaacd7f654a06d152c5e5637aeb206f198a02b OP_CHECKSIG",
            "desc": "pk(04695927595fc267113bfe308d910e60e46a72109ebc0ae19a6c233c057feb3ee7eba0bc0d560c9e16c9cf33b59bfaacd7f654a06d152c5e5637aeb206f198a02b)#keavxdnt",
            "hex": "4104695927595fc267113bfe308d910e60e46a72109ebc0ae19a6c233c057feb3ee7eba0bc0d560c9e16c9cf33b59bfaacd7f654a06d152c5e5637aeb206f198a02bac",
            "type": "pubkey"
          }
        }
      ],
      "hex": "01000000010000000000000000000000000000000000000000000000000000000000000000ffffffff0804ffff001d023702ffffffff0100f2052a01000000434104695927595fc267113bfe308d910e60e46a72109ebc0ae19a6c233c057feb3ee7eba0bc0d560c9e16c9cf33b59bfaacd7f654a06d152c5e5637aeb206f198a02bac00000000"
    }
  ]
}