{
  "hash": "00000000f8931bdde30492fb78166a0c705306dcde00db5fc850a7b300ba0638",
  "confirmations": 50105,
  "height": 2993,
  "version": 1,
  "versionHex": "00000001",
  "merkleroot": "112c4678ab9fe6bee2400e36e581ec94c591634ace7bf12bf22e3e11c80a64e3",
  "time": 1233756445,
  "mediantime": 1233753128,
  "nonce": 29556612,
  "bits": "1d00ffff",
  "difficulty": 1,
  "chainwork": "00000000000000000000000000000000000000000000000000000bb20bb20bb2",
  "nTx": 1,
  "previousblockhash": "000000003ea8aead70be315fd1ff49ebb4a752fca9d0a4b54e52ef1f8df30f87",
  "nextblockhash": "00000000f6a31af28cfe8839f21bf7111283bedb001373f206f86067303355bc",
  "strippedsize": 216,
  "size": 216,
  "weight": 864,
  "tx": [
    {
      "txid": "112c4678ab9fe6bee2400e36e581ec94c591634ace7bf12bf22e3e11c80a64e3",
      "hash": "112c4678ab9fe6bee2400e36e581ec94c591634ace7bf12bf22e3e11c80a64e3",
      "version": 1,
      "size": 135,
      "vsize": 135,
      "weight": 540,
      "locktime": 0,
      "vin": [
        {
          "coinbase": "04ffff001d023d04",
          "sequence": 4294967295
        }
      ],
      "vout": [
        {
          "value": 50.0,
          "n": 0,
          "scriptPubKey": {
            "asm": "0481644cf1b6473adc73ebb91191c36b4f6a49f0c8be94dfb4870d432f109876ad3b2cb71785018853d1664016f978a1b89e0af2f0f65d8956e853d38e69a8832e OP_CHECKSIG",
            "desc": "pk(0481644cf1b6473adc73ebb91191c36b4f6a49f0c8be94dfb4870d432f109876ad3b2cb71785018853d1664016f978a1b89e0af2f0f65d8956e853d38e69a8832e)#69la9ez4",
            "hex": "410481644cf1b6473adc73ebb91191c36b4f6a49f0c8be94dfb4870d432f109876ad3b2cb71785018853d1664016f978a1b89e0af2f0f65d8956e853d38e69a8832eac",
            "type": "pubkey"
          }
        }
      ],
      "hex": "01000000010000000000000000000000000000000000000000000000000000000000000000ffffffff0804ffff001d023d04ffffffff0100f2052a0100000043410481644cf1b6473adc73ebb91191c36b4f6a49f0c8be94dfb4870d432f109876ad3b2cb71785018853d1664016f978a1b89e0af2f0f65d8956e853d38e69a8832eac00000000"
    }
  ]
}