{
  "hash": "0000000046b6a6e8288a64b2fbead4c0f04f9f60c7aa37849eaa77fd83535309",
  "confirmations": 44227,
  "height": 8871,
  "version": 1,
  "versionHex": "00000001",
  "merkleroot": "977702fb54f929e245fe9f3013f6be6227054122182d617cca5c7c632d32d260",
  "time": 1238151961,
  "mediantime": 1238148817,
  "nonce": 2483137334,
  "bits": "1d00ffff",
  "difficulty": 1,
  "chainwork": "000000000000000000000000000000000000000000000000000022a822a822a8",
  "nTx": 1,
  "previousblockhash": "00000000d75c5ead6576fbcedd9cd003cee45efce45c74e67d61b4a535932420",
  "nextblockhash": "000000001d889e79cc626b12557afb50418c4a321391f0486356facd9ec105bd",
  "strippedsize": 216,
  "size": 216,
  "weight": 864,
  "tx": [
    {
      "txid": "977702fb54f929e245fe9f3013f6be6227054122182d617cca5c7c632d32d260",
      "hash": "977702fb54f929e245fe9f3013f6be6227054122182d617cca5c7c632d32d260",
      "version": 1,
      "size": 135,
      "vsize": 135,
      "weight": 540,
      "locktime": 0,
      "vin": [
        {
          "coinbase": "04ffff001d02e703",
          "sequence": 4294967295
        }
      ],
      "vout": [
        {
          "value": 50.0,
          "n": 0,
          "scriptPubKey": {
            "asm": "04ed8d168415b9c9dee79c0e70bd987ba9cc9a5cd3a90a88ddcca9569c6b9f534dcd3a662207201e94a906f8731020c6d48b5c8feb1eca01b0bee77fc852ff95ca OP_CHECKSIG",
            "desc": "pk(04ed8d168415b9c9dee79c0e70bd987ba9cc9a5cd3a90a88ddcca9569c6b9f534dcd3a662207201e94a906f8731020c6d48b5c8feb1eca01b0bee77fc852ff95ca)#glhycr67",
            "hex": "4104ed8d168415b9c9dee79c0e70bd987ba9cc9a5cd3a90a88ddcca9569c6b9f534dcd3a662207201e94a906f8731020c6d48b5c8feb1eca01b0bee77fc852ff95caac",
            "type": "pubkey"
          }
        }
      ],
      "hex": "01000000010000000000000000000000000000000000000000000000000000000000000000ffffffff0804ffff001d02e703ffffffff0100f2052a01000000434104ed8d168415b9c9dee79c0e70bd987ba9cc9a5cd3a90a88ddcca9569c6b9f534dcd3a662207201e94a906f8731020c6d48b5c8feb1eca01b0bee77fc852ff95caac00000000"
    }
  ]
}