{
  "hash": "000000002a50b1ae5b32b06970f7a7a082c05328dac9969ccb55f7a05e5f25a0",
  "confirmations": 43465,
  "height": 9633,
  "version": 1,
  "versionHex": "00000001",
  "merkleroot": "96123d5fe774b6e2128646e311a14613e58a3c8c7917195fd45fc9e04f2de295",
  "time": 1238727190,
  "mediantime": 1238723535,
  "nonce": 1833352999,
  "bits": "1d00ffff",
  "difficulty": 1,
  "chainwork": "000000000000000000000000000000000000000000000000000025a225a225a2",
  "nTx": 1,
  "previousblockhash": "00000000062252579e0d74e9fbee693645f52b085a5e29928b1c213b6a8f93aa",
  "nextblockhash": "00000000260d5e479301d6f898e16ff58cf2e94da0ceb2f0c039eed791170d44",
  "strippedsize": 216,
  "size": 216,
  "weight": 864,
  "tx": [
    {
      "txid": "96123d5fe774b6e2128646e311a14613e58a3c8c7917195fd45fc9e04f2de295",
      "hash": "96123d5fe774b6e2128646e311a14613e58a3c8c7917195fd45fc9e04f2de295",
      "version": 1,
      "size": 135,
      "vsize": 135,
      "weight": 540,
      "locktime": 0,
      "vin": [
        {
          "coinbase": "04ffff001d028a07",
          "sequence": 4294967295
        }
      ],
      "vout": [
        {
          "value": 50.0,
          "n": 0,
          "scriptPubKey": {
            "asm": "04542789f2b5c69cece08685f6ea5a07aed8db0ab81c51058364515ddfb2986ffc4021ecdada6a10bf927ae1eeff707d8b54248e867d966b2895d78feca298aaf8 OP_CHECKSIG",
            "desc": "pk(04542789f2b5c69cece08685f6ea5a07aed8db0ab81c51058364515ddfb2986ffc4021ecdada6a10bf927ae1eeff707d8b54248e867d966b2895d78feca298aaf8)#u42eshha",
            "hex": "4104542789f2b5c69cece08685f6ea5a07aed8db0ab81c51058364515ddfb2986ffc4021ecdada6a10bf927ae1eeff707d8b54248e867d966b2895d78feca298aaf8ac",
            "type": "pubkey"
          }
        }
      ],
      "hex": "01000000010000000000000000000000000000000000000000000000000000000000000000ffffffff0804ffff001d028a07ffffffff0100f2052a01000000434104542789f2b5c69cece08685f6ea5a07aed8db0ab81c51058364515ddfb2986ffc4021ecdada6a10bf927ae1eeff707d8b54248e867d966b2895d78feca298aaf8ac00000000"
    }
  ]
}