{
  "hash": "0000000070eabb853f079c6f1462ef8beca70bac775ce55a13f193fbd7362299",
  "confirmations": 45651,
  "height": 7447,
  "version": 1,
  "versionHex": "00000001",
  "merkleroot": "e414a466d2ac08b07cb79b3e98885fef9264fa180a8e58639d9441f3c0589f4b",
  "time": 1237059535,
  "mediantime": 1237053689,
  "nonce": 2125111328,
  "bits": "1d00ffff",
  "difficulty": 1,
  "chainwork": "00000000000000000000000000000000000000000000000000001d181d181d18",
  "nTx": 1,
  "previousblockhash": "000000000f2b2d53f572fb68e3a085b6375370b7e9099379633d1de51f6fa810",
  "nextblockhash": "000000007988ac387213a9fa83d7c8fbeeca5b4f3be5dfe1180dac4eef8c30da",
  "strippedsize": 215,
  "size": 215,
  "weight": 860,
  "tx": [
    {
      "txid": "e414a466d2ac08b07cb79b3e98885fef9264fa180a8e58639d9441f3c0589f4b",
      "hash": "e414a466d2ac08b07cb79b3e98885fef9264fa180a8e58639d9441f3c0589f4b",
      "version": 1,
      "size": 134,
      "vsize": 134,
      "weight": 536,
      "locktime": 0,
      "vin": [
        {
          "coinbase": "04ffff001d0118",
          "sequence": 4294967295
        }
      ],
      "vout": [
        {
          "value": 50.0,
          "n": 0,
          "scriptPubKey": {
            "asm": "04707aaf819011470ba912bc2ef1aac1f4339a8629d690c3a65641b67331cfb7e55b338248b9231de3592aabea810099e14c20cc3ffc23cdc9e41b7253e13b8b16 OP_CHECKSIG",
            "desc": "pk(04707aaf819011470ba912bc2ef1aac1f4339a8629d690c3a65641b67331cfb7e55b338248b9231de3592aabea810099e14c20cc3ffc23cdc9e41b7253e13b8b16)#xz3c6ptz",
            "hex": "4104707aaf819011470ba912bc2ef1aac1f4339a8629d690c3a65641b67331cfb7e55b338248b9231de3592aabea810099e14c20cc3ffc23cdc9e41b7253e13b8b16ac",
            "type": "pubkey"
          }
        }
      ],
      "hex": "01000000010000000000000000000000000000000000000000000000000000000000000000ffffffff0704ffff001d0118ffffffff0100f2052a01000000434104707aaf819011470ba912bc2ef1aac1f4339a8629d690c3a65641b67331cfb7e55b338248b9231de3592aabea810099e14c20cc3ffc23cdc9e41b7253e13b8b16ac00000000"
    }
  ]
}