{
  "hash": "00000000b551883cb80c81ec7604a6309fdd65d9f59de7bb9a9ed6b81e1c4446",
  "confirmations": 52265,
  "height": 833,
  "version": 1,
  "versionHex": "00000001",
  "merkleroot": "3c0023d96eb5f0673ea1e8297baae0f64a35a6ca93df63176b0c6cf59240fb77",
  "time": 1232216501,
  "mediantime": 1232213029,
  "nonce": 1089482297,
  "bits": "1d00ffff",
  "difficulty": 1,
  "chainwork": "0000000000000000000000000000000000000000000000000000034203420342",
  "nTx": 1,
  "previousblockhash": "00000000de9fa40b4107faaeaa6f05fcf9592b9475dd1b9a8b47110089e9ba0f",
  "nextblockhash": "00000000e218d46cb2ebea79906e0052ae1c5bb6b224b0da3bcee63ea53e33d0",
  "strippedsize": 216,
  "size": 216,
  "weight": 864,
  "tx": [
    {
      "txid": "3c0023d96eb5f0673ea1e8297baae0f64a35a6ca93df63176b0c6cf59240fb77",
      "hash": "3c0023d96eb5f0673ea1e8297baae0f64a35a6ca93df63176b0c6cf59240fb77",
      "version": 1,
      "size": 135,
      "vsize": 135,
      "weight": 540,
      "locktime": 0,
      "vin": [
        {
          "coinbase": "04ffff001d020002",
          "sequence": 4294967295
        }
      ],
      "vout": [
        {
          "value": 50.0,
          "n": 0,
          "scriptPubKey": {
            "asm": "0448620cc7b5c75b5722c3f569d2dc96c4159d39bc1db333babac1a54dd686c312be9c585c30c005cb730b9ade2140849034513428ad975a8804a2e361d33810de OP_CHECKSIG",
            "desc": "pk(0448620cc7b5c75b5722c3f569d2dc96c4159d39bc1db333babac1a54dd686c312be9c585c30c005cb730b9ade2140849034513428ad975a8804a2e361d33810de)#9k9uvdnr",
            "hex": "410448620cc7b5c75b5722c3f569d2dc96c4159d39bc1db333babac1a54dd686c312be9c585c30c005cb730b9ade2140849034513428ad975a8804a2e361d33810deac",
            "type": "pubkey"
          }
        }
      ],
      "hex": "01000000010000000000000000000000000000000000000000000000000000000000000000ffffffff0804ffff001d020002ffffffff0100f2052a0100000043410448620cc7b5c75b5722c3f569d2dc96c4159d39bc1db333babac1a54dd686c312be9c585c30c005cb730b9ade2140849034513428ad975a8804a2e361d33810deac00000000"
    }
  ]
}