{
  "hash": "00000000aa7c08193a4ecb41c36ad864668d11d4e8e12bb6e6105cee8106a66c",
  "confirmations": 45115,
  "height": 7983,
  "version": 1,
  "versionHex": "00000001",
  "merkleroot": "1d57ccf4487a600d5a02d57f4cabe66c10e67620dd56743c905a586bfb02eb64",
  "time": 1237450145,
  "mediantime": 1237446439,
  "nonce": 3938924828,
  "bits": "1d00ffff",
  "difficulty": 1,
  "chainwork": "00000000000000000000000000000000000000000000000000001f301f301f30",
  "nTx": 1,
  "previousblockhash": "000000001c936ae3099fd3cc59f18cd70c1c862ab4860f20ff92c7775314b073",
  "nextblockhash": "0000000029a25588618ee55531cedba277f2492ae7b03dea245e4da86d6819c5",
  "strippedsize": 216,
  "size": 216,
  "weight": 864,
  "tx": [
    {
      "txid": "1d57ccf4487a600d5a02d57f4cabe66c10e67620dd56743c905a586bfb02eb64",
      "hash": "1d57ccf4487a600d5a02d57f4cabe66c10e67620dd56743c905a586bfb02eb64",
      "version": 1,
      "size": 135,
      "vsize": 135,
      "weight": 540,
      "locktime": 0,
      "vin": [
        {
          "coinbase": "04ffff001d021e09",
          "sequence": 4294967295
        }
      ],
      "vout": [
        {
          "value": 50.0,
          "n": 0,
          "scriptPubKey": {
            "asm": "04a41a4ff6a3c3924eb7e41f29ddf6a79cd3bd2cc9eb4429781cb34b81e4525cbcd32013637c0ba3a4df0a9890af858b994b7e808353c2201a7469691299e0f8e4 OP_CHECKSIG",
            "desc": "pk(04a41a4ff6a3c3924eb7e41f29ddf6a79cd3bd2cc9eb4429781cb34b81e4525cbcd32013637c0ba3a4df0a9890af858b994b7e808353c2201a7469691299e0f8e4)#8e7yjljm",
            "hex": "4104a41a4ff6a3c3924eb7e41f29ddf6a79cd3bd2cc9eb4429781cb34b81e4525cbcd32013637c0ba3a4df0a9890af858b994b7e808353c2201a7469691299e0f8e4ac",
            "type": "pubkey"
          }
        }
      ],
      "hex": "01000000010000000000000000000000000000000000000000000000000000000000000000ffffffff0804ffff001d021e09ffffffff0100f2052a01000000434104a41a4ff6a3c3924eb7e41f29ddf6a79cd3bd2cc9eb4429781cb34b81e4525cbcd32013637c0ba3a4df0a9890af858b994b7e808353c2201a7469691299e0f8e4ac00000000"
    }
  ]
}