{
  "hash": "000000005dfc47d56cf2a0e3bb62b51f95891e5c168273ce5efc801af67d703d",
  "confirmations": 45512,
  "height": 7586,
  "version": 1,
  "versionHex": "00000001",
  "merkleroot": "1b7ced31308cf3e63f945bdd3eb7404184308ad3e3844847a5dbce526203eb6b",
  "time": 1237157579,
  "mediantime": 1237154626,
  "nonce": 2943463709,
  "bits": "1d00ffff",
  "difficulty": 1,
  "chainwork": "00000000000000000000000000000000000000000000000000001da31da31da3",
  "nTx": 1,
  "previousblockhash": "00000000de308fe825bc6157bf9766bcd3b10b610aa8243ffad6fe26261c4c2f",
  "nextblockhash": "00000000304a9b9ac09d939722ab109a383b99c728c39ac573f33bf1b84187bc",
  "strippedsize": 216,
  "size": 216,
  "weight": 864,
  "tx": [
    {
      "txid": "1b7ced31308cf3e63f945bdd3eb7404184308ad3e3844847a5dbce526203eb6b",
      "hash": "1b7ced31308cf3e63f945bdd3eb7404184308ad3e3844847a5dbce526203eb6b",
      "version": 1,
      "size": 135,
      "vsize": 135,
      "weight": 540,
      "locktime": 0,
      "vin": [
        {
          "coinbase": "04ffff001d026702",
          "sequence": 4294967295
        }
      ],
      "vout": [
        {
          "value": 50.0,
          "n": 0,
          "scriptPubKey": {
            "asm": "0415e670e5299bbccf51a9d8b82a53cad64f60ace8d780b442d6efd03cd269e1ad47e063d974ee61065d130c157488a6dcf5189c72c5268eab5e4d12f32d98cc9b OP_CHECKSIG",
            "desc": "pk(0415e670e5299bbccf51a9d8b82a53cad64f60ace8d780b442d6efd03cd269e1ad47e063d974ee61065d130c157488a6dcf5189c72c5268eab5e4d12f32d98cc9b)#pht6zzxz",
            "hex": "410415e670e5299bbccf51a9d8b82a53cad64f60ace8d780b442d6efd03cd269e1ad47e063d974ee61065d130c157488a6dcf5189c72c5268eab5e4d12f32d98cc9bac",
            "type": "pubkey"
          }
        }
      ],
      "hex": "01000000010000000000000000000000000000000000000000000000000000000000000000ffffffff0804ffff001d026702ffffffff0100f2052a0100000043410415e670e5299bbccf51a9d8b82a53cad64f60ace8d780b442d6efd03cd269e1ad47e063d974ee61065d130c157488a6dcf5189c72c5268eab5e4d12f32d98cc9bac00000000"
    }
  ]
}