{
  "hash": "0000000090bf5785d5f57c8334c461f9ab967f59d0fb8fa311a3eb1dce9038bc",
  "confirmations": 43364,
  "height": 9734,
  "version": 1,
  "versionHex": "00000001",
  "merkleroot": "ab6b3032320f0b5bbfafbc2e9a1e556ba9e723bd559838cab6d81ee2747f7643",
  "time": 1238803073,
  "mediantime": 1238799340,
  "nonce": 3710256427,
  "bits": "1d00ffff",
  "difficulty": 1,
  "chainwork": "0000000000000000000000000000000000000000000000000000260726072607",
  "nTx": 1,
  "previousblockhash": "00000000733c021ff99a46e43c7ba3adc7e2115eadbffd18b1c9aa24d949817d",
  "nextblockhash": "000000001c27ab6896a36cb774cf434f07ebad4b130c555c59d17ac19762b36c",
  "strippedsize": 216,
  "size": 216,
  "weight": 864,
  "tx": [
    {
      "txid": "ab6b3032320f0b5bbfafbc2e9a1e556ba9e723bd559838cab6d81ee2747f7643",
      "hash": "ab6b3032320f0b5bbfafbc2e9a1e556ba9e723bd559838cab6d81ee2747f7643",
      "version": 1,
      "size": 135,
      "vsize": 135,
      "weight": 540,
      "locktime": 0,
      "vin": [
        {
          "coinbase": "04ffff001d022b09",
          "sequence": 4294967295
        }
      ],
      "vout": [
        {
          "value": 50.0,
          "n": 0,
          "scriptPubKey": {
            "asm": "046a3196f0e2b2cfb4d0e4e89c78f94bd6ee7c42db6d41596777e9e8263420c452ee49e896fd47b43f36cb714ece8898ddb1a46e4e83cf38c5aafe31fc9e5ce320 OP_CHECKSIG",
            "desc": "pk(046a3196f0e2b2cfb4d0e4e89c78f94bd6ee7c42db6d41596777e9e8263420c452ee49e896fd47b43f36cb714ece8898ddb1a46e4e83cf38c5aafe31fc9e5ce320)#d6uy28n7",
            "hex": "41046a3196f0e2b2cfb4d0e4e89c78f94bd6ee7c42db6d41596777e9e8263420c452ee49e896fd47b43f36cb714ece8898ddb1a46e4e83cf38c5aafe31fc9e5ce320ac",
            "type": "pubkey"
          }
        }
      ],
      "hex": "01000000010000000000000000000000000000000000000000000000000000000000000000ffffffff0804ffff001d022b09ffffffff0100f2052a010000004341046a3196f0e2b2cfb4d0e4e89c78f94bd6ee7c42db6d41596777e9e8263420c452ee49e896fd47b43f36cb714ece8898ddb1a46e4e83cf38c5aafe31fc9e5ce320ac00000000"
    }
  ]
}