{
  "hash": "00000000bc0bbb516a5931c9c2bf92e34086e98ded9a3039ca6b6fedd1fe654f",
  "confirmations": 44391,
  "height": 8707,
  "version": 1,
  "versionHex": "00000001",
  "merkleroot": "8d78501aea8e84585d100de823711abcd914575576320ee4538b4674befe2de0",
  "time": 1238029382,
  "mediantime": 1238025948,
  "nonce": 115811866,
  "bits": "1d00ffff",
  "difficulty": 1,
  "chainwork": "0000000000000000000000000000000000000000000000000000220422042204",
  "nTx": 1,
  "previousblockhash": "00000000b830b128c054ce9e1a8492236b24731c6edd4f7c91d53444184475f3",
  "nextblockhash": "00000000c76ed351f1de1b06a2653e7336b6bca2c35db62d7354db239f2daa41",
  "strippedsize": 216,
  "size": 216,
  "weight": 864,
  "tx": [
    {
      "txid": "8d78501aea8e84585d100de823711abcd914575576320ee4538b4674befe2de0",
      "hash": "8d78501aea8e84585d100de823711abcd914575576320ee4538b4674befe2de0",
      "version": 1,
      "size": 135,
      "vsize": 135,
      "weight": 540,
      "locktime": 0,
      "vin": [
        {
          "coinbase": "04ffff001d020401",
          "sequence": 4294967295
        }
      ],
      "vout": [
        {
          "value": 50.0,
          "n": 0,
          "scriptPubKey": {
            "asm": "040407a3c0735f0ba9bd4614e9ee35cab05f58fb406f8e11279c0949441bc636ae77005fd60a606097e9e0c4a38f018bbcc5b28d4e0381b9987720f9071ceae03b OP_CHECKSIG",
            "desc": "pk(040407a3c0735f0ba9bd4614e9ee35cab05f58fb406f8e11279c0949441bc636ae77005fd60a606097e9e0c4a38f018bbcc5b28d4e0381b9987720f9071ceae03b)#srm6dg48",
            "hex": "41040407a3c0735f0ba9bd4614e9ee35cab05f58fb406f8e11279c0949441bc636ae77005fd60a606097e9e0c4a38f018bbcc5b28d4e0381b9987720f9071ceae03bac",
            "type": "pubkey"
          }
        }
      ],
      "hex": "01000000010000000000000000000000000000000000000000000000000000000000000000ffffffff0804ffff001d020401ffffffff0100f2052a010000004341040407a3c0735f0ba9bd4614e9ee35cab05f58fb406f8e11279c0949441bc636ae77005fd60a606097e9e0c4a38f018bbcc5b28d4e0381b9987720f9071ceae03bac00000000"
    }
  ]
}