{
  "hash": "00000000c8f3ebcc88f67dd95da7e10aacd7949cd7011590e55892f9cab56c75",
  "confirmations": 50937,
  "height": 2161,
  "version": 1,
  "versionHex": "00000001",
  "merkleroot": "edcdf1e04e6011934d4c14496b2f3998e946b777bccafd14d68d2f4b5acad417",
  "time": 1233182212,
  "mediantime": 1233179117,
  "nonce": 13430316,
  "bits": "1d00ffff",
  "difficulty": 1,
  "chainwork": "0000000000000000000000000000000000000000000000000000087208720872",
  "nTx": 1,
  "previousblockhash": "000000003d168fd8c0c91ce4d57d802b73da38d6d4620545f704b363e2b21ddd",
  "nextblockhash": "00000000aaf0ab905dcdd85a8aac5bfff33b22211222bcdf94b571c00d93d999",
  "strippedsize": 215,
  "size": 215,
  "weight": 860,
  "tx": [
    {
      "txid": "edcdf1e04e6011934d4c14496b2f3998e946b777bccafd14d68d2f4b5acad417",
      "hash": "edcdf1e04e6011934d4c14496b2f3998e946b777bccafd14d68d2f4b5acad417",
      "version": 1,
      "size": 134,
      "vsize": 134,
      "weight": 536,
      "locktime": 0,
      "vin": [
        {
          "coinbase": "04ffff001d016f",
          "sequence": 4294967295
        }
      ],
      "vout": [
        {
          "value": 50.0,
          "n": 0,
          "scriptPubKey": {
            "asm": "04a078a4f64710d76799dd7c69285ab3f105bfbd71f112c4037ed07f2807f078a7511b55474073c1b65e8570f6b8a2abcb7f602b0f368024d797c54918ee372151 OP_CHECKSIG",
            "desc": "pk(04a078a4f64710d76799dd7c69285ab3f105bfbd71f112c4037ed07f2807f078a7511b55474073c1b65e8570f6b8a2abcb7f602b0f368024d797c54918ee372151)#dlrg0609",
            "hex": "4104a078a4f64710d76799dd7c69285ab3f105bfbd71f112c4037ed07f2807f078a7511b55474073c1b65e8570f6b8a2abcb7f602b0f368024d797c54918ee372151ac",
            "type": "pubkey"
          }
        }
      ],
      "hex": "01000000010000000000000000000000000000000000000000000000000000000000000000ffffffff0704ffff001d016fffffffff0100f2052a01000000434104a078a4f64710d76799dd7c69285ab3f105bfbd71f112c4037ed07f2807f078a7511b55474073c1b65e8570f6b8a2abcb7f602b0f368024d797c54918ee372151ac00000000"
    }
  ]
}