{
  "hash": "00000000ed5769e62e6840c3e78a26ac238b5ed2d30729832a3a0c00b61c7b7a",
  "confirmations": 48293,
  "height": 4805,
  "version": 1,
  "versionHex": "00000001",
  "merkleroot": "9668ee7e0f88bb80c4840f6166154351f6d87455d97789f7f54873b7bfb0f0ae",
  "time": 1235003056,
  "mediantime": 1234999980,
  "nonce": 968149804,
  "bits": "1d00ffff",
  "difficulty": 1,
  "chainwork": "000000000000000000000000000000000000000000000000000012c612c612c6",
  "nTx": 1,
  "previousblockhash": "00000000dee79884453e0e41b11f77cb898f5e60f067988e43b944fb01e89605",
  "nextblockhash": "00000000a18ba4ac4f021d33ec832dc10c79f888b5be636d25e01e5c4141d68e",
  "strippedsize": 216,
  "size": 216,
  "weight": 864,
  "tx": [
    {
      "txid": "9668ee7e0f88bb80c4840f6166154351f6d87455d97789f7f54873b7bfb0f0ae",
      "hash": "9668ee7e0f88bb80c4840f6166154351f6d87455d97789f7f54873b7bfb0f0ae",
      "version": 1,
      "size": 135,
      "vsize": 135,
      "weight": 540,
      "locktime": 0,
      "vin": [
        {
          "coinbase": "04ffff001d027604",
          "sequence": 4294967295
        }
      ],
      "vout": [
        {
          "value": 50.0,
          "n": 0,
          "scriptPubKey": {
            "asm": "044ca291506cbdaf13f4aa34600de5eaa8d568e8d44410f8ef02a2d2a898bac9acbd5e98864689159c23d9d71105bdb72f78d7733a2bb70e533ce2f7a8426c1a17 OP_CHECKSIG",
            "desc": "pk(044ca291506cbdaf13f4aa34600de5eaa8d568e8d44410f8ef02a2d2a898bac9acbd5e98864689159c23d9d71105bdb72f78d7733a2bb70e533ce2f7a8426c1a17)#pnlt8k6n",
            "hex": "41044ca291506cbdaf13f4aa34600de5eaa8d568e8d44410f8ef02a2d2a898bac9acbd5e98864689159c23d9d71105bdb72f78d7733a2bb70e533ce2f7a8426c1a17ac",
            "type": "pubkey"
          }
        }
      ],
      "hex": "01000000010000000000000000000000000000000000000000000000000000000000000000ffffffff0804ffff001d027604ffffffff0100f2052a010000004341044ca291506cbdaf13f4aa34600de5eaa8d568e8d44410f8ef02a2d2a898bac9acbd5e98864689159c23d9d71105bdb72f78d7733a2bb70e533ce2f7a8426c1a17ac00000000"
    }
  ]
}