{
  "hash": "00000000190b7c78c04060087be9ffdafeffc2eaaba0c2f8c98e56e10cba73fb",
  "confirmations": 46522,
  "height": 6576,
  "version": 1,
  "versionHex": "00000001",
  "merkleroot": "da9cc6d4f99a887f6a968940a85d3a8d09e909cad77775ca4d4f0d6c0023e4c9",
  "time": 1236385039,
  "mediantime": 1236379848,
  "nonce": 30136483,
  "bits": "1d00ffff",
  "difficulty": 1,
  "chainwork": "000000000000000000000000000000000000000000000000000019b119b119b1",
  "nTx": 1,
  "previousblockhash": "0000000050c878a194212cddc468fced5162630acccae8a01778a997c307e347",
  "nextblockhash": "00000000ea4728c14bcbbfda30b77e8f84eaf7646daa9090debba19770b9fb57",
  "strippedsize": 216,
  "size": 216,
  "weight": 864,
  "tx": [
    {
      "txid": "da9cc6d4f99a887f6a968940a85d3a8d09e909cad77775ca4d4f0d6c0023e4c9",
      "hash": "da9cc6d4f99a887f6a968940a85d3a8d09e909cad77775ca4d4f0d6c0023e4c9",
      "version": 1,
      "size": 135,
      "vsize": 135,
      "weight": 540,
      "locktime": 0,
      "vin": [
        {
          "coinbase": "04ffff001d02fe00",
          "sequence": 4294967295
        }
      ],
      "vout": [
        {
          "value": 50.0,
          "n": 0,
          "scriptPubKey": {
            "asm": "0493fb2c291b3d3c9a0027d39a162b43078a256a07d0cc3a762d758bf0871951086982e18306f511430a9d55f3f88f7469f6c0e0b9c4ef45558096b86b5f5a7de7 OP_CHECKSIG",
            "desc": "pk(0493fb2c291b3d3c9a0027d39a162b43078a256a07d0cc3a762d758bf0871951086982e18306f511430a9d55f3f88f7469f6c0e0b9c4ef45558096b86b5f5a7de7)#nl2hurvv",
            "hex": "410493fb2c291b3d3c9a0027d39a162b43078a256a07d0cc3a762d758bf0871951086982e18306f511430a9d55f3f88f7469f6c0e0b9c4ef45558096b86b5f5a7de7ac",
            "type": "pubkey"
          }
        }
      ],
      "hex": "01000000010000000000000000000000000000000000000000000000000000000000000000ffffffff0804ffff001d02fe00ffffffff0100f2052a0100000043410493fb2c291b3d3c9a0027d39a162b43078a256a07d0cc3a762d758bf0871951086982e18306f511430a9d55f3f88f7469f6c0e0b9c4ef45558096b86b5f5a7de7ac00000000"
    }
  ]
}