{
  "hash": "00000000ca936077171d08f58b55f85ebdd4f97caf0bd047763ce496a2eb51c3",
  "confirmations": 43191,
  "height": 9907,
  "version": 1,
  "versionHex": "00000001",
  "merkleroot": "73838bf563b974f529c2cf02fe8ca41b9a900a9a3fd04e26075301c30fddfa5e",
  "time": 1238927012,
  "mediantime": 1238924587,
  "nonce": 138434807,
  "bits": "1d00ffff",
  "difficulty": 1,
  "chainwork": "000000000000000000000000000000000000000000000000000026b426b426b4",
  "nTx": 1,
  "previousblockhash": "00000000f7061818d6d7f6b4744a6644bf86071632d76c6ee9115d06657d6e76",
  "nextblockhash": "00000000a0163eeaabe7c01a481b2ed518f2da7cee9bb97d826df2a5a73b9a00",
  "strippedsize": 215,
  "size": 215,
  "weight": 860,
  "tx": [
    {
      "txid": "73838bf563b974f529c2cf02fe8ca41b9a900a9a3fd04e26075301c30fddfa5e",
      "hash": "73838bf563b974f529c2cf02fe8ca41b9a900a9a3fd04e26075301c30fddfa5e",
      "version": 1,
      "size": 134,
      "vsize": 134,
      "weight": 536,
      "locktime": 0,
      "vin": [
        {
          "coinbase": "04ffff001d016c",
          "sequence": 4294967295
        }
      ],
      "vout": [
        {
          "value": 50.0,
          "n": 0,
          "scriptPubKey": {
            "asm": "047c8bfcaebf599fa17cc99e18f0fb86b11a44f9fc0520b0705975f837d8b7bc9108d944f8ff2b9b44155845cc05027c27efe4f2a855eca1d5c6a7eb72e511fd77 OP_CHECKSIG",
            "desc": "pk(047c8bfcaebf599fa17cc99e18f0fb86b11a44f9fc0520b0705975f837d8b7bc9108d944f8ff2b9b44155845cc05027c27efe4f2a855eca1d5c6a7eb72e511fd77)#xugyvhde",
            "hex": "41047c8bfcaebf599fa17cc99e18f0fb86b11a44f9fc0520b0705975f837d8b7bc9108d944f8ff2b9b44155845cc05027c27efe4f2a855eca1d5c6a7eb72e511fd77ac",
            "type": "pubkey"
          }
        }
      ],
      "hex": "01000000010000000000000000000000000000000000000000000000000000000000000000ffffffff0704ffff001d016cffffffff0100f2052a010000004341047c8bfcaebf599fa17cc99e18f0fb86b11a44f9fc0520b0705975f837d8b7bc9108d944f8ff2b9b44155845cc05027c27efe4f2a855eca1d5c6a7eb72e511fd77ac00000000"
    }
  ]
}