{
  "hash": "0000000036a77609c60d9c4e1f039eed4dd26fcb8aea5238f1cc8339aa1b5cd3",
  "confirmations": 50350,
  "height": 2748,
  "version": 1,
  "versionHex": "00000001",
  "merkleroot": "ce1696efce1817ead20ad5b974a21ee85c01130c1d550a771de51eadda8722bc",
  "time": 1233595331,
  "mediantime": 1233591087,
  "nonce": 33057027,
  "bits": "1d00ffff",
  "difficulty": 1,
  "chainwork": "00000000000000000000000000000000000000000000000000000abd0abd0abd",
  "nTx": 1,
  "previousblockhash": "000000000b206d7d6e00babbc7faed71377c382d681d3fbb32cdd58d33257937",
  "nextblockhash": "000000001b001692070ab82419545619de22eacf258fa887c01a2128dc1b4488",
  "strippedsize": 216,
  "size": 216,
  "weight": 864,
  "tx": [
    {
      "txid": "ce1696efce1817ead20ad5b974a21ee85c01130c1d550a771de51eadda8722bc",
      "hash": "ce1696efce1817ead20ad5b974a21ee85c01130c1d550a771de51eadda8722bc",
      "version": 1,
      "size": 135,
      "vsize": 135,
      "weight": 540,
      "locktime": 0,
      "vin": [
        {
          "coinbase": "04ffff001d022b06",
          "sequence": 4294967295
        }
      ],
      "vout": [
        {
          "value": 50.0,
          "n": 0,
          "scriptPubKey": {
            "asm": "04a2f32ed1a69c41b57ad217ac1c16f3869e68cd6833e705fc40d33d43341b33bb0f4dd78886f21797aa2718aec062099c070f2558347e1bc0651eed225381c846 OP_CHECKSIG",
            "desc": "pk(04a2f32ed1a69c41b57ad217ac1c16f3869e68cd6833e705fc40d33d43341b33bb0f4dd78886f21797aa2718aec062099c070f2558347e1bc0651eed225381c846)#uypdghnv",
            "hex": "4104a2f32ed1a69c41b57ad217ac1c16f3869e68cd6833e705fc40d33d43341b33bb0f4dd78886f21797aa2718aec062099c070f2558347e1bc0651eed225381c846ac",
            "type": "pubkey"
          }
        }
      ],
      "hex": "01000000010000000000000000000000000000000000000000000000000000000000000000ffffffff0804ffff001d022b06ffffffff0100f2052a01000000434104a2f32ed1a69c41b57ad217ac1c16f3869e68cd6833e705fc40d33d43341b33bb0f4dd78886f21797aa2718aec062099c070f2558347e1bc0651eed225381c846ac00000000"
    }
  ]
}