{
  "hash": "000000000aaeb860e58ea6677ebe2ace24708a27eb957758c8f82ee018f3ee94",
  "confirmations": 47485,
  "height": 5613,
  "version": 1,
  "versionHex": "00000001",
  "merkleroot": "23fdc83586a7bfb423a1dc18504ca9a2dd3e439df9b2aa0c8e15f5b50af12cbf",
  "time": 1235614683,
  "mediantime": 1235610781,
  "nonce": 145335810,
  "bits": "1d00ffff",
  "difficulty": 1,
  "chainwork": "000000000000000000000000000000000000000000000000000015ee15ee15ee",
  "nTx": 1,
  "previousblockhash": "00000000422c4bdd5a4216a9351ba060e9cba84686974b9ca940e5013fb4e725",
  "nextblockhash": "0000000077f55034faf5042bad15a2533008161171902b783fc309162040aa2e",
  "strippedsize": 216,
  "size": 216,
  "weight": 864,
  "tx": [
    {
      "txid": "23fdc83586a7bfb423a1dc18504ca9a2dd3e439df9b2aa0c8e15f5b50af12cbf",
      "hash": "23fdc83586a7bfb423a1dc18504ca9a2dd3e439df9b2aa0c8e15f5b50af12cbf",
      "version": 1,
      "size": 135,
      "vsize": 135,
      "weight": 540,
      "locktime": 0,
      "vin": [
        {
          "coinbase": "04ffff001d028b00",
          "sequence": 4294967295
        }
      ],
      "vout": [
        {
          "value": 50.0,
          "n": 0,
          "scriptPubKey": {
            "asm": "04ee9f4f2aeb8ec5113f234a0cfe0181d562e12208775af9fcdb18ea1503ac30e8e0ad19bd8f61d0a6f32ffeefbfb5d1f1c3fce281f5b9139e5b379b46f3a996bb OP_CHECKSIG",
            "desc": "pk(04ee9f4f2aeb8ec5113f234a0cfe0181d562e12208775af9fcdb18ea1503ac30e8e0ad19bd8f61d0a6f32ffeefbfb5d1f1c3fce281f5b9139e5b379b46f3a996bb)#whyranlf",
            "hex": "4104ee9f4f2aeb8ec5113f234a0cfe0181d562e12208775af9fcdb18ea1503ac30e8e0ad19bd8f61d0a6f32ffeefbfb5d1f1c3fce281f5b9139e5b379b46f3a996bbac",
            "type": "pubkey"
          }
        }
      ],
      "hex": "01000000010000000000000000000000000000000000000000000000000000000000000000ffffffff0804ffff001d028b00ffffffff0100f2052a01000000434104ee9f4f2aeb8ec5113f234a0cfe0181d562e12208775af9fcdb18ea1503ac30e8e0ad19bd8f61d0a6f32ffeefbfb5d1f1c3fce281f5b9139e5b379b46f3a996bbac00000000"
    }
  ]
}