{
  "hash": "000000007a91ff6b2519b1b00305e80e83b92760f192835a01ac7e8eabcf1eb1",
  "confirmations": 44694,
  "height": 8404,
  "version": 1,
  "versionHex": "00000001",
  "merkleroot": "e5fea43f3664cab5301034284165145affc0d826e8e0a3660f5f5655bab5b09f",
  "time": 1237801283,
  "mediantime": 1237799185,
  "nonce": 3384575021,
  "bits": "1d00ffff",
  "difficulty": 1,
  "chainwork": "000000000000000000000000000000000000000000000000000020d520d520d5",
  "nTx": 1,
  "previousblockhash": "0000000083759192b42b4f30c3de656f5132c4224f7d68b7f2af735112b676dd",
  "nextblockhash": "0000000035cbdd492f99060333ef2a6d59f1afd0156203684ea654f20ec0027d",
  "strippedsize": 216,
  "size": 216,
  "weight": 864,
  "tx": [
    {
      "txid": "e5fea43f3664cab5301034284165145affc0d826e8e0a3660f5f5655bab5b09f",
      "hash": "e5fea43f3664cab5301034284165145affc0d826e8e0a3660f5f5655bab5b09f",
      "version": 1,
      "size": 135,
      "vsize": 135,
      "weight": 540,
      "locktime": 0,
      "vin": [
        {
          "coinbase": "04ffff001d020d06",
          "sequence": 4294967295
        }
      ],
      "vout": [
        {
          "value": 50.0,
          "n": 0,
          "scriptPubKey": {
            "asm": "04ab6302d8b1d835b496fe1f4d98ab66692d71f33d58d8cae97944adb0d83e1e328588b40d6e30eec06cac3cdc4f1a7cfd499f91b837d9b1d440c71ef5fd07bd39 OP_CHECKSIG",
            "desc": "pk(04ab6302d8b1d835b496fe1f4d98ab66692d71f33d58d8cae97944adb0d83e1e328588b40d6e30eec06cac3cdc4f1a7cfd499f91b837d9b1d440c71ef5fd07bd39)#l5jq75z0",
            "hex": "4104ab6302d8b1d835b496fe1f4d98ab66692d71f33d58d8cae97944adb0d83e1e328588b40d6e30eec06cac3cdc4f1a7cfd499f91b837d9b1d440c71ef5fd07bd39ac",
            "type": "pubkey"
          }
        }
      ],
      "hex": "01000000010000000000000000000000000000000000000000000000000000000000000000ffffffff0804ffff001d020d06ffffffff0100f2052a01000000434104ab6302d8b1d835b496fe1f4d98ab66692d71f33d58d8cae97944adb0d83e1e328588b40d6e30eec06cac3cdc4f1a7cfd499f91b837d9b1d440c71ef5fd07bd39ac00000000"
    }
  ]
}