{
  "hash": "000000009dc6f775548971151fc86491ebc626057e9f5be06ab36421717d52bf",
  "confirmations": 52333,
  "height": 765,
  "version": 1,
  "versionHex": "00000001",
  "merkleroot": "86aef95da1e14e635e802e1b8af7bdde3e6a992b89418665fad22d0d59e9d28d",
  "time": 1232163166,
  "mediantime": 1232158840,
  "nonce": 2723609653,
  "bits": "1d00ffff",
  "difficulty": 1,
  "chainwork": "000000000000000000000000000000000000000000000000000002fe02fe02fe",
  "nTx": 1,
  "previousblockhash": "000000002727bdb811d6c1dc0cc2121ac07a90e37b83954eafe8ae948388aaef",
  "nextblockhash": "00000000929527c680e5fcab95d915ea5d690d2fee0b6741b8ff34016f0c1acd",
  "strippedsize": 216,
  "size": 216,
  "weight": 864,
  "tx": [
    {
      "txid": "86aef95da1e14e635e802e1b8af7bdde3e6a992b89418665fad22d0d59e9d28d",
      "hash": "86aef95da1e14e635e802e1b8af7bdde3e6a992b89418665fad22d0d59e9d28d",
      "version": 1,
      "size": 135,
      "vsize": 135,
      "weight": 540,
      "locktime": 0,
      "vin": [
        {
          "coinbase": "04ffff001d02d500",
          "sequence": 4294967295
        }
      ],
      "vout": [
        {
          "value": 50.0,
          "n": 0,
          "scriptPubKey": {
            "asm": "04e3b1aef8a211e99ca3068e5910814f4967d843d09304ce9fe73ba90841b389db2f3e15aa1cfaeb69f8813653a01f4280325540ed5c48a1b559e6a5a87cbce0fc OP_CHECKSIG",
            "desc": "pk(04e3b1aef8a211e99ca3068e5910814f4967d843d09304ce9fe73ba90841b389db2f3e15aa1cfaeb69f8813653a01f4280325540ed5c48a1b559e6a5a87cbce0fc)#auz72z8y",
            "hex": "4104e3b1aef8a211e99ca3068e5910814f4967d843d09304ce9fe73ba90841b389db2f3e15aa1cfaeb69f8813653a01f4280325540ed5c48a1b559e6a5a87cbce0fcac",
            "type": "pubkey"
          }
        }
      ],
      "hex": "01000000010000000000000000000000000000000000000000000000000000000000000000ffffffff0804ffff001d02d500ffffffff0100f2052a01000000434104e3b1aef8a211e99ca3068e5910814f4967d843d09304ce9fe73ba90841b389db2f3e15aa1cfaeb69f8813653a01f4280325540ed5c48a1b559e6a5a87cbce0fcac00000000"
    }
  ]
}