{
  "hash": "00000000c415bb92bba299ddb277fcb51f371ecaaaa863e81586f3838b1e9bd9",
  "confirmations": 45980,
  "height": 7118,
  "version": 1,
  "versionHex": "00000001",
  "merkleroot": "70b700c9cc4096ddd7de5c0fe9cd598c7b84e07d8144f3245f53cbd729d39fbc",
  "time": 1236810293,
  "mediantime": 1236807915,
  "nonce": 3703892,
  "bits": "1d00ffff",
  "difficulty": 1,
  "chainwork": "00000000000000000000000000000000000000000000000000001bcf1bcf1bcf",
  "nTx": 1,
  "previousblockhash": "0000000089ee8982ff631530434c1711a2df57503002552c77caafbed3fa9c0f",
  "nextblockhash": "0000000010e1fddb76167cc0875b7f1bcd88292b2bc3debcbfe711a3621ce48f",
  "strippedsize": 215,
  "size": 215,
  "weight": 860,
  "tx": [
    {
      "txid": "70b700c9cc4096ddd7de5c0fe9cd598c7b84e07d8144f3245f53cbd729d39fbc",
      "hash": "70b700c9cc4096ddd7de5c0fe9cd598c7b84e07d8144f3245f53cbd729d39fbc",
      "version": 1,
      "size": 134,
      "vsize": 134,
      "weight": 536,
      "locktime": 0,
      "vin": [
        {
          "coinbase": "04ffff001d0115",
          "sequence": 4294967295
        }
      ],
      "vout": [
        {
          "value": 50.0,
          "n": 0,
          "scriptPubKey": {
            "asm": "04bcfc7b7709cbf17371bdce3a1800115df147c81afc9970dd5eb52ca0bc77b6ca55fb4fd76e765ed1321f3f6534266d02db963cc56111a7a30b378e993af87080 OP_CHECKSIG",
            "desc": "pk(04bcfc7b7709cbf17371bdce3a1800115df147c81afc9970dd5eb52ca0bc77b6ca55fb4fd76e765ed1321f3f6534266d02db963cc56111a7a30b378e993af87080)#dhw7kfm7",
            "hex": "4104bcfc7b7709cbf17371bdce3a1800115df147c81afc9970dd5eb52ca0bc77b6ca55fb4fd76e765ed1321f3f6534266d02db963cc56111a7a30b378e993af87080ac",
            "type": "pubkey"
          }
        }
      ],
      "hex": "01000000010000000000000000000000000000000000000000000000000000000000000000ffffffff0704ffff001d0115ffffffff0100f2052a01000000434104bcfc7b7709cbf17371bdce3a1800115df147c81afc9970dd5eb52ca0bc77b6ca55fb4fd76e765ed1321f3f6534266d02db963cc56111a7a30b378e993af87080ac00000000"
    }
  ]
}