{
  "hash": "00000000260d7ccc02770bc2c828a2d8fedcb2c5a78b0325b913bea9317c0b17",
  "confirmations": 43221,
  "height": 9877,
  "version": 1,
  "versionHex": "00000001",
  "merkleroot": "a13b6ff5bdbc976febd8aff2e0f66339874d34273824756c3bb141de72430f5e",
  "time": 1238910343,
  "mediantime": 1238907300,
  "nonce": 3925511480,
  "bits": "1d00ffff",
  "difficulty": 1,
  "chainwork": "0000000000000000000000000000000000000000000000000000269626962696",
  "nTx": 1,
  "previousblockhash": "00000000f22459f7fb26c871a3948e0a604da5c59d62ba7fe3a48df558089293",
  "nextblockhash": "00000000eb14c7b934c0860a83bc872c9a4571d8704ba1e9bc37bd2e797d772d",
  "strippedsize": 216,
  "size": 216,
  "weight": 864,
  "tx": [
    {
      "txid": "a13b6ff5bdbc976febd8aff2e0f66339874d34273824756c3bb141de72430f5e",
      "hash": "a13b6ff5bdbc976febd8aff2e0f66339874d34273824756c3bb141de72430f5e",
      "version": 1,
      "size": 135,
      "vsize": 135,
      "weight": 540,
      "locktime": 0,
      "vin": [
        {
          "coinbase": "04ffff001d02b501",
          "sequence": 4294967295
        }
      ],
      "vout": [
        {
          "value": 50.0,
          "n": 0,
          "scriptPubKey": {
            "asm": "047a3d9c88d2534e78e5b576214411882699f64108aafe39eab6d8a14a088383a14c1d9c7669554de31eb2bb1162f5cdf975a4e6a97edabee5655647a2891d6132 OP_CHECKSIG",
            "desc": "pk(047a3d9c88d2534e78e5b576214411882699f64108aafe39eab6d8a14a088383a14c1d9c7669554de31eb2bb1162f5cdf975a4e6a97edabee5655647a2891d6132)#9sy0nvdr",
            "hex": "41047a3d9c88d2534e78e5b576214411882699f64108aafe39eab6d8a14a088383a14c1d9c7669554de31eb2bb1162f5cdf975a4e6a97edabee5655647a2891d6132ac",
            "type": "pubkey"
          }
        }
      ],
      "hex": "01000000010000000000000000000000000000000000000000000000000000000000000000ffffffff0804ffff001d02b501ffffffff0100f2052a010000004341047a3d9c88d2534e78e5b576214411882699f64108aafe39eab6d8a14a088383a14c1d9c7669554de31eb2bb1162f5cdf975a4e6a97edabee5655647a2891d6132ac00000000"
    }
  ]
}