{
  "hash": "0000000015f33195efd709e45c5de92081fb8fefdf456d5402e15e2d971fb20f",
  "confirmations": 52095,
  "height": 361,
  "version": 1,
  "versionHex": "00000001",
  "merkleroot": "b2e862f2cd9085afd21b5b5df86598c2118a33eee8ac773c01c67026b57b2f40",
  "time": 1231873025,
  "mediantime": 1231870655,
  "nonce": 78418133,
  "bits": "1d00ffff",
  "difficulty": 1,
  "chainwork": "0000000000000000000000000000000000000000000000000000016a016a016a",
  "nTx": 1,
  "previousblockhash": "00000000b3de4f2a07df16131eab4f13aa38f9db2d4468ba25a083f8c0cb2cd6",
  "nextblockhash": "00000000d654e9866ad27a9bd3147fcc461fc13d261954f76d1281307883a729",
  "strippedsize": 215,
  "size": 215,
  "weight": 860,
  "tx": [
    {
      "txid": "b2e862f2cd9085afd21b5b5df86598c2118a33eee8ac773c01c67026b57b2f40",
      "hash": "b2e862f2cd9085afd21b5b5df86598c2118a33eee8ac773c01c67026b57b2f40",
      "version": 1,
      "size": 134,
      "vsize": 134,
      "weight": 536,
      "locktime": 0,
      "vin": [
        {
          "coinbase": "04ffff001d010c",
          "sequence": 4294967295
        }
      ],
      "vout": [
        {
          "value": 50.0,
          "n": 0,
          "scriptPubKey": {
            "asm": "04082b3089fb89b6044d61fbfd03e041e5c102d467654f872804eb6fdea20719ef5e9849cd9f2bfc9f4108b05378737b2629ba9f9ab2a1fd1a5de5b0b7da2af72d OP_CHECKSIG",
            "desc": "pk(04082b3089fb89b6044d61fbfd03e041e5c102d467654f872804eb6fdea20719ef5e9849cd9f2bfc9f4108b05378737b2629ba9f9ab2a1fd1a5de5b0b7da2af72d)#cmx52zac",
            "hex": "4104082b3089fb89b6044d61fbfd03e041e5c102d467654f872804eb6fdea20719ef5e9849cd9f2bfc9f4108b05378737b2629ba9f9ab2a1fd1a5de5b0b7da2af72dac",
            "type": "pubkey"
          }
        }
      ],
      "hex": "01000000010000000000000000000000000000000000000000000000000000000000000000ffffffff0704ffff001d010cffffffff0100f2052a01000000434104082b3089fb89b6044d61fbfd03e041e5c102d467654f872804eb6fdea20719ef5e9849cd9f2bfc9f4108b05378737b2629ba9f9ab2a1fd1a5de5b0b7da2af72dac00000000"
    }
  ]
}