{
  "hash": "00000000d431d2d4c83af8e071ddca5a02074f7efb1d5b53c6a9b4c406ec3797",
  "confirmations": 45440,
  "height": 7658,
  "version": 1,
  "versionHex": "00000001",
  "merkleroot": "ddb8d12ebecddb32672c24036502afa33d09fa33893631c94306908b882df99b",
  "time": 1237209139,
  "mediantime": 1237203782,
  "nonce": 3656540957,
  "bits": "1d00ffff",
  "difficulty": 1,
  "chainwork": "00000000000000000000000000000000000000000000000000001deb1deb1deb",
  "nTx": 1,
  "previousblockhash": "00000000f68defbfbbf860c00270e04276060bed62344aa958806493cca61920",
  "nextblockhash": "0000000032210a550a05eae0b103aaf0da198a49342fa9822378171b4dc959ee",
  "strippedsize": 216,
  "size": 216,
  "weight": 864,
  "tx": [
    {
      "txid": "ddb8d12ebecddb32672c24036502afa33d09fa33893631c94306908b882df99b",
      "hash": "ddb8d12ebecddb32672c24036502afa33d09fa33893631c94306908b882df99b",
      "version": 1,
      "size": 135,
      "vsize": 135,
      "weight": 540,
      "locktime": 0,
      "vin": [
        {
          "coinbase": "04ffff001d027403",
          "sequence": 4294967295
        }
      ],
      "vout": [
        {
          "value": 50.0,
          "n": 0,
          "scriptPubKey": {
            "asm": "04a38258161637081acddbe4eed79a29d2337f46731c6b71cacb25bf41b7a2e5d1ec81c0771c26ff1d21dfacefa491948df1b047d13d7891a305bf0ad6ca46bcac OP_CHECKSIG",
            "desc": "pk(04a38258161637081acddbe4eed79a29d2337f46731c6b71cacb25bf41b7a2e5d1ec81c0771c26ff1d21dfacefa491948df1b047d13d7891a305bf0ad6ca46bcac)#qmt4p84k",
            "hex": "4104a38258161637081acddbe4eed79a29d2337f46731c6b71cacb25bf41b7a2e5d1ec81c0771c26ff1d21dfacefa491948df1b047d13d7891a305bf0ad6ca46bcacac",
            "type": "pubkey"
          }
        }
      ],
      "hex": "01000000010000000000000000000000000000000000000000000000000000000000000000ffffffff0804ffff001d027403ffffffff0100f2052a01000000434104a38258161637081acddbe4eed79a29d2337f46731c6b71cacb25bf41b7a2e5d1ec81c0771c26ff1d21dfacefa491948df1b047d13d7891a305bf0ad6ca46bcacac00000000"
    }
  ]
}