{
  "hash": "00000000a118e4a28b9aaca70cca6195f0ce0a5092325dbf32060c5c53d6ec33",
  "confirmations": 43828,
  "height": 9270,
  "version": 1,
  "versionHex": "00000001",
  "merkleroot": "83b87434b97ccd34679a8326e778a3d7f332052e522fbf892b560682b60ac188",
  "time": 1238450478,
  "mediantime": 1238446092,
  "nonce": 6197254,
  "bits": "1d00ffff",
  "difficulty": 1,
  "chainwork": "0000000000000000000000000000000000000000000000000000243724372437",
  "nTx": 1,
  "previousblockhash": "00000000f26dc0abcf26f103471831cf37ef77e3487d167498f3cfadeeaaea7d",
  "nextblockhash": "00000000e6aa546c5c2d133d0a70924c5c903a1763848d515eaae55db60b71a2",
  "strippedsize": 216,
  "size": 216,
  "weight": 864,
  "tx": [
    {
      "txid": "83b87434b97ccd34679a8326e778a3d7f332052e522fbf892b560682b60ac188",
      "hash": "83b87434b97ccd34679a8326e778a3d7f332052e522fbf892b560682b60ac188",
      "version": 1,
      "size": 135,
      "vsize": 135,
      "weight": 540,
      "locktime": 0,
      "vin": [
        {
          "coinbase": "04ffff001d024201",
          "sequence": 4294967295
        }
      ],
      "vout": [
        {
          "value": 50.0,
          "n": 0,
          "scriptPubKey": {
            "asm": "045546e7bbc91772b02bb0ded8b20a21a802261553a5c3c3beb40110b020ea092cc02859f46899c93282ab2c45d33dd8b741daba6fe2ba98392b3de52fcd0fff67 OP_CHECKSIG",
            "desc": "pk(045546e7bbc91772b02bb0ded8b20a21a802261553a5c3c3beb40110b020ea092cc02859f46899c93282ab2c45d33dd8b741daba6fe2ba98392b3de52fcd0fff67)#zz5v8e4y",
            "hex": "41045546e7bbc91772b02bb0ded8b20a21a802261553a5c3c3beb40110b020ea092cc02859f46899c93282ab2c45d33dd8b741daba6fe2ba98392b3de52fcd0fff67ac",
            "type": "pubkey"
          }
        }
      ],
      "hex": "01000000010000000000000000000000000000000000000000000000000000000000000000ffffffff0804ffff001d024201ffffffff0100f2052a010000004341045546e7bbc91772b02bb0ded8b20a21a802261553a5c3c3beb40110b020ea092cc02859f46899c93282ab2c45d33dd8b741daba6fe2ba98392b3de52fcd0fff67ac00000000"
    }
  ]
}