{
  "hash": "0000000015a65a0dc19b34aedfe8c450254c226ed879fc93ade23f770d6e9df9",
  "confirmations": 47600,
  "height": 5498,
  "version": 1,
  "versionHex": "00000001",
  "merkleroot": "a56105c5756fc05b84b59bfdac340e04ef0b27d1fccd937e0f005aec44661d62",
  "time": 1235520309,
  "mediantime": 1235515854,
  "nonce": 1725547292,
  "bits": "1d00ffff",
  "difficulty": 1,
  "chainwork": "0000000000000000000000000000000000000000000000000000157b157b157b",
  "nTx": 1,
  "previousblockhash": "00000000ae748666ef62e384a02ce2568a59e80349f2c9ce250e48dbcb77ce6c",
  "nextblockhash": "00000000e109937eede65b29d2c908983b2a951bac8fc6f4d95d4d8d0a3afbb9",
  "strippedsize": 216,
  "size": 216,
  "weight": 864,
  "tx": [
    {
      "txid": "a56105c5756fc05b84b59bfdac340e04ef0b27d1fccd937e0f005aec44661d62",
      "hash": "a56105c5756fc05b84b59bfdac340e04ef0b27d1fccd937e0f005aec44661d62",
      "version": 1,
      "size": 135,
      "vsize": 135,
      "weight": 540,
      "locktime": 0,
      "vin": [
        {
          "coinbase": "04ffff001d02a305",
          "sequence": 4294967295
        }
      ],
      "vout": [
        {
          "value": 50.0,
          "n": 0,
          "scriptPubKey": {
            "asm": "04a95abb414ccb750a5d605e28f2b9f2f868f066587f1d93f3ae40d6726f3890bb4571d7629d18873f1645e55b3adc4f669d9db11689dbdd59e9be825cd8668b6b OP_CHECKSIG",
            "desc": "pk(04a95abb414ccb750a5d605e28f2b9f2f868f066587f1d93f3ae40d6726f3890bb4571d7629d18873f1645e55b3adc4f669d9db11689dbdd59e9be825cd8668b6b)#ghpemfjr",
            "hex": "4104a95abb414ccb750a5d605e28f2b9f2f868f066587f1d93f3ae40d6726f3890bb4571d7629d18873f1645e55b3adc4f669d9db11689dbdd59e9be825cd8668b6bac",
            "type": "pubkey"
          }
        }
      ],
      "hex": "01000000010000000000000000000000000000000000000000000000000000000000000000ffffffff0804ffff001d02a305ffffffff0100f2052a01000000434104a95abb414ccb750a5d605e28f2b9f2f868f066587f1d93f3ae40d6726f3890bb4571d7629d18873f1645e55b3adc4f669d9db11689dbdd59e9be825cd8668b6bac00000000"
    }
  ]
}