{
  "hash": "00000000543ef2a2077d9b423251b1293fa4ed573a7c38a3553ffc7917e2013e",
  "confirmations": 50930,
  "height": 2168,
  "version": 1,
  "versionHex": "00000001",
  "merkleroot": "3ecc6d6184cd86f54eff9d2d5ecf328c39e86340497a9813c5d2bde5a42f0f1d",
  "time": 1233187661,
  "mediantime": 1233183709,
  "nonce": 1073059354,
  "bits": "1d00ffff",
  "difficulty": 1,
  "chainwork": "0000000000000000000000000000000000000000000000000000087908790879",
  "nTx": 1,
  "previousblockhash": "00000000d7ddd69dd39ee2adcec570054fbfdf5c7ae222d5b9778e176308962c",
  "nextblockhash": "000000006b23459470cd0077f72e7724620d37f8645e95fe82369ca4b191a950",
  "strippedsize": 216,
  "size": 216,
  "weight": 864,
  "tx": [
    {
      "txid": "3ecc6d6184cd86f54eff9d2d5ecf328c39e86340497a9813c5d2bde5a42f0f1d",
      "hash": "3ecc6d6184cd86f54eff9d2d5ecf328c39e86340497a9813c5d2bde5a42f0f1d",
      "version": 1,
      "size": 135,
      "vsize": 135,
      "weight": 540,
      "locktime": 0,
      "vin": [
        {
          "coinbase": "04ffff001d02d500",
          "sequence": 4294967295
        }
      ],
      "vout": [
        {
          "value": 50.0,
          "n": 0,
          "scriptPubKey": {
            "asm": "041250e0d9fe610945c0e64ecb99e8dbaae5e299a0d3c7eff41960bfbde2ede91f05cb651878853b3adf28f39b10894b3e156c2ddd169dbeda70f6071cb8dae7a2 OP_CHECKSIG",
            "desc": "pk(041250e0d9fe610945c0e64ecb99e8dbaae5e299a0d3c7eff41960bfbde2ede91f05cb651878853b3adf28f39b10894b3e156c2ddd169dbeda70f6071cb8dae7a2)#vxahwalp",
            "hex": "41041250e0d9fe610945c0e64ecb99e8dbaae5e299a0d3c7eff41960bfbde2ede91f05cb651878853b3adf28f39b10894b3e156c2ddd169dbeda70f6071cb8dae7a2ac",
            "type": "pubkey"
          }
        }
      ],
      "hex": "01000000010000000000000000000000000000000000000000000000000000000000000000ffffffff0804ffff001d02d500ffffffff0100f2052a010000004341041250e0d9fe610945c0e64ecb99e8dbaae5e299a0d3c7eff41960bfbde2ede91f05cb651878853b3adf28f39b10894b3e156c2ddd169dbeda70f6071cb8dae7a2ac00000000"
    }
  ]
}