{
  "hash": "00000000c25163f1d9e92bcf1e311c5c246e75e97469fc10fc0429462bbf59b1",
  "confirmations": 46409,
  "height": 6689,
  "version": 1,
  "versionHex": "00000001",
  "merkleroot": "5c2637440f8f2f9d47a0d8b0d1b72b1ecf43e23ab4c6235a6bf02cb00598d757",
  "time": 1236475314,
  "mediantime": 1236470846,
  "nonce": 2945451284,
  "bits": "1d00ffff",
  "difficulty": 1,
  "chainwork": "00000000000000000000000000000000000000000000000000001a221a221a22",
  "nTx": 1,
  "previousblockhash": "00000000f2b2004137476fabc5e3b494f82ed655094e32cb45f79cbdd573657b",
  "nextblockhash": "0000000050947d271497480d525e1f0349467646e774e1184a83aa8e7736683b",
  "strippedsize": 216,
  "size": 216,
  "weight": 864,
  "tx": [
    {
      "txid": "5c2637440f8f2f9d47a0d8b0d1b72b1ecf43e23ab4c6235a6bf02cb00598d757",
      "hash": "5c2637440f8f2f9d47a0d8b0d1b72b1ecf43e23ab4c6235a6bf02cb00598d757",
      "version": 1,
      "size": 135,
      "vsize": 135,
      "weight": 540,
      "locktime": 0,
      "vin": [
        {
          "coinbase": "04ffff001d02ca06",
          "sequence": 4294967295
        }
      ],
      "vout": [
        {
          "value": 50.0,
          "n": 0,
          "scriptPubKey": {
            "asm": "04e673d9f0757a295c4cf215b52e4dd2eddb877353102eeae223fc97b439fb8d547c8b9c02711dad4e2525b2df0d6224133db67280a36a92947fb3d0ab1d474c37 OP_CHECKSIG",
            "desc": "pk(04e673d9f0757a295c4cf215b52e4dd2eddb877353102eeae223fc97b439fb8d547c8b9c02711dad4e2525b2df0d6224133db67280a36a92947fb3d0ab1d474c37)#l62g55dd",
            "hex": "4104e673d9f0757a295c4cf215b52e4dd2eddb877353102eeae223fc97b439fb8d547c8b9c02711dad4e2525b2df0d6224133db67280a36a92947fb3d0ab1d474c37ac",
            "type": "pubkey"
          }
        }
      ],
      "hex": "01000000010000000000000000000000000000000000000000000000000000000000000000ffffffff0804ffff001d02ca06ffffffff0100f2052a01000000434104e673d9f0757a295c4cf215b52e4dd2eddb877353102eeae223fc97b439fb8d547c8b9c02711dad4e2525b2df0d6224133db67280a36a92947fb3d0ab1d474c37ac00000000"
    }
  ]
}