{
  "hash": "00000000b1b293d82e4d00be6ab2e0c106c9d15ee26f4289e572f4209d27c86e",
  "confirmations": 44473,
  "height": 8625,
  "version": 1,
  "versionHex": "00000001",
  "merkleroot": "9f6ab6c0a5ccca4b50c7329a28537d781ac338516d3f70fa34fd5c045af15565",
  "time": 1237966838,
  "mediantime": 1237963794,
  "nonce": 3008315913,
  "bits": "1d00ffff",
  "difficulty": 1,
  "chainwork": "000000000000000000000000000000000000000000000000000021b221b221b2",
  "nTx": 1,
  "previousblockhash": "00000000aa529a2a6a344eeacf1b9dae8e5e76c8bcc31bb2aad01ecb42a53f75",
  "nextblockhash": "00000000bd06bd94afbc5a18d207e06e6c7236782db0f6bc466fd32cb98e3534",
  "strippedsize": 216,
  "size": 216,
  "weight": 864,
  "tx": [
    {
      "txid": "9f6ab6c0a5ccca4b50c7329a28537d781ac338516d3f70fa34fd5c045af15565",
      "hash": "9f6ab6c0a5ccca4b50c7329a28537d781ac338516d3f70fa34fd5c045af15565",
      "version": 1,
      "size": 135,
      "vsize": 135,
      "weight": 540,
      "locktime": 0,
      "vin": [
        {
          "coinbase": "04ffff001d02f509",
          "sequence": 4294967295
        }
      ],
      "vout": [
        {
          "value": 50.0,
          "n": 0,
          "scriptPubKey": {
            "asm": "042b9897902f716bd1b5d04ab2512a0b731cd42278fae70978c76d717f3223a3d8ae4f44ec7de85dbcfe40d302be8c59d8af7a6fd9d9c8189cafa78d89e25fc0ba OP_CHECKSIG",
            "desc": "pk(042b9897902f716bd1b5d04ab2512a0b731cd42278fae70978c76d717f3223a3d8ae4f44ec7de85dbcfe40d302be8c59d8af7a6fd9d9c8189cafa78d89e25fc0ba)#2jcnkymz",
            "hex": "41042b9897902f716bd1b5d04ab2512a0b731cd42278fae70978c76d717f3223a3d8ae4f44ec7de85dbcfe40d302be8c59d8af7a6fd9d9c8189cafa78d89e25fc0baac",
            "type": "pubkey"
          }
        }
      ],
      "hex": "01000000010000000000000000000000000000000000000000000000000000000000000000ffffffff0804ffff001d02f509ffffffff0100f2052a010000004341042b9897902f716bd1b5d04ab2512a0b731cd42278fae70978c76d717f3223a3d8ae4f44ec7de85dbcfe40d302be8c59d8af7a6fd9d9c8189cafa78d89e25fc0baac00000000"
    }
  ]
}