{
  "hash": "0000000012315d69b55d7daa1402d06a889f37ddd2072602b94db208e108317b",
  "confirmations": 44451,
  "height": 8647,
  "version": 1,
  "versionHex": "00000001",
  "merkleroot": "aa8ee75e953b2fa345f66be5fb99a052ed1843d8eb1affc45ac27fe3c9a1705b",
  "time": 1237982655,
  "mediantime": 1237978133,
  "nonce": 13212146,
  "bits": "1d00ffff",
  "difficulty": 1,
  "chainwork": "000000000000000000000000000000000000000000000000000021c821c821c8",
  "nTx": 1,
  "previousblockhash": "0000000039e31db42fa143ce5476777676a9673712fb72f0070f08e9d195a0a4",
  "nextblockhash": "000000007657a18a75c64b29fded5a0dd0471dcbadcde48e7df423886bc8a291",
  "strippedsize": 216,
  "size": 216,
  "weight": 864,
  "tx": [
    {
      "txid": "aa8ee75e953b2fa345f66be5fb99a052ed1843d8eb1affc45ac27fe3c9a1705b",
      "hash": "aa8ee75e953b2fa345f66be5fb99a052ed1843d8eb1affc45ac27fe3c9a1705b",
      "version": 1,
      "size": 135,
      "vsize": 135,
      "weight": 540,
      "locktime": 0,
      "vin": [
        {
          "coinbase": "04ffff001d02c606",
          "sequence": 4294967295
        }
      ],
      "vout": [
        {
          "value": 50.0,
          "n": 0,
          "scriptPubKey": {
            "asm": "043d8e391a1cfa1b6993809e76407d93a703fe71db541203dc938133160fddc93a6304698c762c543a2228990553353005338934eced2631e5285789c0180917aa OP_CHECKSIG",
            "desc": "pk(043d8e391a1cfa1b6993809e76407d93a703fe71db541203dc938133160fddc93a6304698c762c543a2228990553353005338934eced2631e5285789c0180917aa)#7wyhk46r",
            "hex": "41043d8e391a1cfa1b6993809e76407d93a703fe71db541203dc938133160fddc93a6304698c762c543a2228990553353005338934eced2631e5285789c0180917aaac",
            "type": "pubkey"
          }
        }
      ],
      "hex": "01000000010000000000000000000000000000000000000000000000000000000000000000ffffffff0804ffff001d02c606ffffffff0100f2052a010000004341043d8e391a1cfa1b6993809e76407d93a703fe71db541203dc938133160fddc93a6304698c762c543a2228990553353005338934eced2631e5285789c0180917aaac00000000"
    }
  ]
}