{
  "hash": "000000004ee00fc37a68592cf22415b37e6618227249fe308d0703cca1dd745b",
  "confirmations": 51877,
  "height": 54,
  "version": 1,
  "versionHex": "00000001",
  "merkleroot": "d3dc9be5d58809579e56cdd64e78257ecd24e2726cf26ef0a698f4e5c07670b5",
  "time": 1231617386,
  "mediantime": 1231613802,
  "nonce": 3086212142,
  "bits": "1d00ffff",
  "difficulty": 1,
  "chainwork": "0000000000000000000000000000000000000000000000000000003700370037",
  "nTx": 1,
  "previousblockhash": "00000000fcde3f3306f4167634b51e24414900d7539cb4237f3f060cf26fba05",
  "nextblockhash": "0000000046438b8d5beb6c9efc503dfec538927d2584d2447538276e687a5283",
  "strippedsize": 215,
  "size": 215,
  "weight": 860,
  "tx": [
    {
      "txid": "d3dc9be5d58809579e56cdd64e78257ecd24e2726cf26ef0a698f4e5c07670b5",
      "hash": "d3dc9be5d58809579e56cdd64e78257ecd24e2726cf26ef0a698f4e5c07670b5",
      "version": 1,
      "size": 134,
      "vsize": 134,
      "weight": 536,
      "locktime": 0,
      "vin": [
        {
          "coinbase": "04ffff001d0162",
          "sequence": 4294967295
        }
      ],
      "vout": [
        {
          "value": 50.0,
          "n": 0,
          "scriptPubKey": {
            "asm": "041ef7071c442fef11b695edb2c555bdc14ab797683e709695775e356f8a016969507842c8071353c33ad5d169959712be1cd2ee5db9e2b84769b5b9541b6486fe OP_CHECKSIG",
            "desc": "pk(041ef7071c442fef11b695edb2c555bdc14ab797683e709695775e356f8a016969507842c8071353c33ad5d169959712be1cd2ee5db9e2b84769b5b9541b6486fe)#dak7zq6l",
            "hex": "41041ef7071c442fef11b695edb2c555bdc14ab797683e709695775e356f8a016969507842c8071353c33ad5d169959712be1cd2ee5db9e2b84769b5b9541b6486feac",
            "type": "pubkey"
          }
        }
      ],
      "hex": "01000000010000000000000000000000000000000000000000000000000000000000000000ffffffff0704ffff001d0162ffffffff0100f2052a010000004341041ef7071c442fef11b695edb2c555bdc14ab797683e709695775e356f8a016969507842c8071353c33ad5d169959712be1cd2ee5db9e2b84769b5b9541b6486feac00000000"
    }
  ]
}