{
  "hash": "000000007a5faee8386b6a58d0ece27ae55d7c94c71657e550826ff14c6bb49b",
  "confirmations": 48523,
  "height": 4575,
  "version": 1,
  "versionHex": "00000001",
  "merkleroot": "7ebf26dda30e083b470b2cda5c737cafe80243f819c3f64edac8223bc2b83118",
  "time": 1234834590,
  "mediantime": 1234830252,
  "nonce": 1621752370,
  "bits": "1d00ffff",
  "difficulty": 1,
  "chainwork": "000000000000000000000000000000000000000000000000000011e011e011e0",
  "nTx": 1,
  "previousblockhash": "000000002505009957be14719d0f8085f510503ffca8b7bcf2a37b48e583695e",
  "nextblockhash": "00000000a0f722e8c190efa348d603ab6178eb434017a799f03023434a4e81a5",
  "strippedsize": 216,
  "size": 216,
  "weight": 864,
  "tx": [
    {
      "txid": "7ebf26dda30e083b470b2cda5c737cafe80243f819c3f64edac8223bc2b83118",
      "hash": "7ebf26dda30e083b470b2cda5c737cafe80243f819c3f64edac8223bc2b83118",
      "version": 1,
      "size": 135,
      "vsize": 135,
      "weight": 540,
      "locktime": 0,
      "vin": [
        {
          "coinbase": "04ffff001d029200",
          "sequence": 4294967295
        }
      ],
      "vout": [
        {
          "value": 50.0,
          "n": 0,
          "scriptPubKey": {
            "asm": "0433d1ab711e6c923e030ab0705867ab585e598553bd1c21175f2bd8874bd483f45a698f850b9391e8db5b5bd35d46c55202070509dd4becc1bf4508bbf132dcb7 OP_CHECKSIG",
            "desc": "pk(0433d1ab711e6c923e030ab0705867ab585e598553bd1c21175f2bd8874bd483f45a698f850b9391e8db5b5bd35d46c55202070509dd4becc1bf4508bbf132dcb7)#77ru5hmg",
            "hex": "410433d1ab711e6c923e030ab0705867ab585e598553bd1c21175f2bd8874bd483f45a698f850b9391e8db5b5bd35d46c55202070509dd4becc1bf4508bbf132dcb7ac",
            "type": "pubkey"
          }
        }
      ],
      "hex": "01000000010000000000000000000000000000000000000000000000000000000000000000ffffffff0804ffff001d029200ffffffff0100f2052a0100000043410433d1ab711e6c923e030ab0705867ab585e598553bd1c21175f2bd8874bd483f45a698f850b9391e8db5b5bd35d46c55202070509dd4becc1bf4508bbf132dcb7ac00000000"
    }
  ]
}