{
  "hash": "000000003cb3f6cbd14c21ddda5f1e6f7fd2bc9f4c1307f061094a237f1d8efd",
  "confirmations": 47508,
  "height": 5590,
  "version": 1,
  "versionHex": "00000001",
  "merkleroot": "d78d37588a3240225377bbcb636248bf9956665b809ba7e9146a436e602bb23a",
  "time": 1235591918,
  "mediantime": 1235588877,
  "nonce": 2989420315,
  "bits": "1d00ffff",
  "difficulty": 1,
  "chainwork": "000000000000000000000000000000000000000000000000000015d715d715d7",
  "nTx": 1,
  "previousblockhash": "000000007423d0eb705bdc5b13ea30ee60d6c842725bb4d4778ad9db376300be",
  "nextblockhash": "00000000d3a477e34c3107e5bf5dce1e7fd93ba96cc1a11d61474a0ffd3db5cd",
  "strippedsize": 216,
  "size": 216,
  "weight": 864,
  "tx": [
    {
      "txid": "d78d37588a3240225377bbcb636248bf9956665b809ba7e9146a436e602bb23a",
      "hash": "d78d37588a3240225377bbcb636248bf9956665b809ba7e9146a436e602bb23a",
      "version": 1,
      "size": 135,
      "vsize": 135,
      "weight": 540,
      "locktime": 0,
      "vin": [
        {
          "coinbase": "04ffff001d027407",
          "sequence": 4294967295
        }
      ],
      "vout": [
        {
          "value": 50.0,
          "n": 0,
          "scriptPubKey": {
            "asm": "04f983246ae2212aaa5a611667ac4be17bcd584bd4d59e79de45fce852241a38bc60a2b0951c4220836bb6124428812095ca68d15b420c1b62c2239a4ecdce03b4 OP_CHECKSIG",
            "desc": "pk(04f983246ae2212aaa5a611667ac4be17bcd584bd4d59e79de45fce852241a38bc60a2b0951c4220836bb6124428812095ca68d15b420c1b62c2239a4ecdce03b4)#xhe63n5g",
            "hex": "4104f983246ae2212aaa5a611667ac4be17bcd584bd4d59e79de45fce852241a38bc60a2b0951c4220836bb6124428812095ca68d15b420c1b62c2239a4ecdce03b4ac",
            "type": "pubkey"
          }
        }
      ],
      "hex": "01000000010000000000000000000000000000000000000000000000000000000000000000ffffffff0804ffff001d027407ffffffff0100f2052a01000000434104f983246ae2212aaa5a611667ac4be17bcd584bd4d59e79de45fce852241a38bc60a2b0951c4220836bb6124428812095ca68d15b420c1b62c2239a4ecdce03b4ac00000000"
    }
  ]
}