{
  "hash": "00000000cab80ebffb2ae3eda249cab4b0499ff8612266dc0cba8fed59806d57",
  "confirmations": 45718,
  "height": 7380,
  "version": 1,
  "versionHex": "00000001",
  "merkleroot": "a2fd081c4ef8844af4f0abbe348fe9a72fa87a12e14389f9179d989cd0899f1b",
  "time": 1237006009,
  "mediantime": 1237002361,
  "nonce": 726049826,
  "bits": "1d00ffff",
  "difficulty": 1,
  "chainwork": "00000000000000000000000000000000000000000000000000001cd51cd51cd5",
  "nTx": 1,
  "previousblockhash": "00000000717e8a421e4d27d4b19902d87d8d23c5169ad9ab964a0c6355d3653c",
  "nextblockhash": "00000000c5e19f534f6c55b14fdb4dec0467e686e50ea6a45342c6754971d689",
  "strippedsize": 216,
  "size": 216,
  "weight": 864,
  "tx": [
    {
      "txid": "a2fd081c4ef8844af4f0abbe348fe9a72fa87a12e14389f9179d989cd0899f1b",
      "hash": "a2fd081c4ef8844af4f0abbe348fe9a72fa87a12e14389f9179d989cd0899f1b",
      "version": 1,
      "size": 135,
      "vsize": 135,
      "weight": 540,
      "locktime": 0,
      "vin": [
        {
          "coinbase": "04ffff001d020709",
          "sequence": 4294967295
        }
      ],
      "vout": [
        {
          "value": 50.0,
          "n": 0,
          "scriptPubKey": {
            "asm": "04b22e35ad9492a95d896c74d73107e91b48ed273f5fbe3180290b50c21ddfb6c32e79e9d3c8bef2517ba7f6b9197aeddb406477c3f9bbd9cf6b5eddeb5a6e3c3f OP_CHECKSIG",
            "desc": "pk(04b22e35ad9492a95d896c74d73107e91b48ed273f5fbe3180290b50c21ddfb6c32e79e9d3c8bef2517ba7f6b9197aeddb406477c3f9bbd9cf6b5eddeb5a6e3c3f)#9mch2ytd",
            "hex": "4104b22e35ad9492a95d896c74d73107e91b48ed273f5fbe3180290b50c21ddfb6c32e79e9d3c8bef2517ba7f6b9197aeddb406477c3f9bbd9cf6b5eddeb5a6e3c3fac",
            "type": "pubkey"
          }
        }
      ],
      "hex": "01000000010000000000000000000000000000000000000000000000000000000000000000ffffffff0804ffff001d020709ffffffff0100f2052a01000000434104b22e35ad9492a95d896c74d73107e91b48ed273f5fbe3180290b50c21ddfb6c32e79e9d3c8bef2517ba7f6b9197aeddb406477c3f9bbd9cf6b5eddeb5a6e3c3fac00000000"
    }
  ]
}