{
  "hash": "00000000f1e3293bd933c93f0926d804a60ee6d58b1ef155eb52ae9ba3b49427",
  "confirmations": 48821,
  "height": 4277,
  "version": 1,
  "versionHex": "00000001",
  "merkleroot": "7be84a650b32cae15d7a9ae0dbf71fd1178f957a4cfc28a6475bc311f04e2e13",
  "time": 1234627350,
  "mediantime": 1234623292,
  "nonce": 1063185921,
  "bits": "1d00ffff",
  "difficulty": 1,
  "chainwork": "000000000000000000000000000000000000000000000000000010b610b610b6",
  "nTx": 1,
  "previousblockhash": "00000000e52c0e74a5c8a502b8f04a83d1a9f8a84c50fc1a9f9ca1e7fc4d6529",
  "nextblockhash": "00000000651a9908ed98790f1431e5a08e8d2f79cc8acc796bac3be1ef5df558",
  "strippedsize": 216,
  "size": 216,
  "weight": 864,
  "tx": [
    {
      "txid": "7be84a650b32cae15d7a9ae0dbf71fd1178f957a4cfc28a6475bc311f04e2e13",
      "hash": "7be84a650b32cae15d7a9ae0dbf71fd1178f957a4cfc28a6475bc311f04e2e13",
      "version": 1,
      "size": 135,
      "vsize": 135,
      "weight": 540,
      "locktime": 0,
      "vin": [
        {
          "coinbase": "04ffff001d027308",
          "sequence": 4294967295
        }
      ],
      "vout": [
        {
          "value": 50.0,
          "n": 0,
          "scriptPubKey": {
            "asm": "049f0e156ffe166b45b03afb00b329b1dd7e7c0f119d6305d41f59cd10b9125e0e4d968d8d57a65feef49de1ffdf9da67659cd5e941575ab2ff8807993c4f7d354 OP_CHECKSIG",
            "desc": "pk(049f0e156ffe166b45b03afb00b329b1dd7e7c0f119d6305d41f59cd10b9125e0e4d968d8d57a65feef49de1ffdf9da67659cd5e941575ab2ff8807993c4f7d354)#fc00evy2",
            "hex": "41049f0e156ffe166b45b03afb00b329b1dd7e7c0f119d6305d41f59cd10b9125e0e4d968d8d57a65feef49de1ffdf9da67659cd5e941575ab2ff8807993c4f7d354ac",
            "type": "pubkey"
          }
        }
      ],
      "hex": "01000000010000000000000000000000000000000000000000000000000000000000000000ffffffff0804ffff001d027308ffffffff0100f2052a010000004341049f0e156ffe166b45b03afb00b329b1dd7e7c0f119d6305d41f59cd10b9125e0e4d968d8d57a65feef49de1ffdf9da67659cd5e941575ab2ff8807993c4f7d354ac00000000"
    }
  ]
}