{
  "hash": "00000000ba76327ceb995f184f5068f68fedb27a530d9c230f005382adab517e",
  "confirmations": 47541,
  "height": 5557,
  "version": 1,
  "versionHex": "00000001",
  "merkleroot": "541637bbdbc6ba41bef15a30f366821eb98c477d0d151e572621a1869b851000",
  "time": 1235569580,
  "mediantime": 1235564138,
  "nonce": 680284194,
  "bits": "1d00ffff",
  "difficulty": 1,
  "chainwork": "000000000000000000000000000000000000000000000000000015b615b615b6",
  "nTx": 1,
  "previousblockhash": "00000000a36835282578e947e538e92d454f6993e0a74821ad0b23e93deb58fc",
  "nextblockhash": "00000000ad3dc1d61f61785f8a32a0d8320fba6f391cc1416a68c1e96d950bcd",
  "strippedsize": 216,
  "size": 216,
  "weight": 864,
  "tx": [
    {
      "txid": "541637bbdbc6ba41bef15a30f366821eb98c477d0d151e572621a1869b851000",
      "hash": "541637bbdbc6ba41bef15a30f366821eb98c477d0d151e572621a1869b851000",
      "version": 1,
      "size": 135,
      "vsize": 135,
      "weight": 540,
      "locktime": 0,
      "vin": [
        {
          "coinbase": "04ffff001d02b406",
          "sequence": 4294967295
        }
      ],
      "vout": [
        {
          "value": 50.0,
          "n": 0,
          "scriptPubKey": {
            "asm": "04c863781e34ee29d96f493a002de08c27cdfb79268d774b566100e9ae2d06bdfe4846faaa1fbe995fc969f64b503acc83203ea006f00b855355dbfb6f54b93211 OP_CHECKSIG",
            "desc": "pk(04c863781e34ee29d96f493a002de08c27cdfb79268d774b566100e9ae2d06bdfe4846faaa1fbe995fc969f64b503acc83203ea006f00b855355dbfb6f54b93211)#dntfap4p",
            "hex": "4104c863781e34ee29d96f493a002de08c27cdfb79268d774b566100e9ae2d06bdfe4846faaa1fbe995fc969f64b503acc83203ea006f00b855355dbfb6f54b93211ac",
            "type": "pubkey"
          }
        }
      ],
      "hex": "01000000010000000000000000000000000000000000000000000000000000000000000000ffffffff0804ffff001d02b406ffffffff0100f2052a01000000434104c863781e34ee29d96f493a002de08c27cdfb79268d774b566100e9ae2d06bdfe4846faaa1fbe995fc969f64b503acc83203ea006f00b855355dbfb6f54b93211ac00000000"
    }
  ]
}