{
  "hash": "00000000c62e465146babdfbab8e1538e19999e47809aa8d455952beb5e993c1",
  "confirmations": 43536,
  "height": 9562,
  "version": 1,
  "versionHex": "00000001",
  "merkleroot": "3f0e686ca391c18f310b424b384a282ad3642f5cf827dcda7fba5a41c143ace7",
  "time": 1238671744,
  "mediantime": 1238667563,
  "nonce": 1690252289,
  "bits": "1d00ffff",
  "difficulty": 1,
  "chainwork": "0000000000000000000000000000000000000000000000000000255b255b255b",
  "nTx": 1,
  "previousblockhash": "00000000d49b4ca9755293ff435ec57a308b605ef88f01a78300bea433756a45",
  "nextblockhash": "00000000699b9398a3cb08543068258636ef8e730c0a77617391c49a3cf94d28",
  "strippedsize": 216,
  "size": 216,
  "weight": 864,
  "tx": [
    {
      "txid": "3f0e686ca391c18f310b424b384a282ad3642f5cf827dcda7fba5a41c143ace7",
      "hash": "3f0e686ca391c18f310b424b384a282ad3642f5cf827dcda7fba5a41c143ace7",
      "version": 1,
      "size": 135,
      "vsize": 135,
      "weight": 540,
      "locktime": 0,
      "vin": [
        {
          "coinbase": "04ffff001d024a06",
          "sequence": 4294967295
        }
      ],
      "vout": [
        {
          "value": 50.0,
          "n": 0,
          "scriptPubKey": {
            "asm": "0476728ab690a9e5cd82c9f64067b101dec02dd34febfaf5e9e44827161f26a610c095fbc10772b11da6d804e3e8e31df3fd4bfbace4152639f082bfee396786f6 OP_CHECKSIG",
            "desc": "pk(0476728ab690a9e5cd82c9f64067b101dec02dd34febfaf5e9e44827161f26a610c095fbc10772b11da6d804e3e8e31df3fd4bfbace4152639f082bfee396786f6)#5afl2c3s",
            "hex": "410476728ab690a9e5cd82c9f64067b101dec02dd34febfaf5e9e44827161f26a610c095fbc10772b11da6d804e3e8e31df3fd4bfbace4152639f082bfee396786f6ac",
            "type": "pubkey"
          }
        }
      ],
      "hex": "01000000010000000000000000000000000000000000000000000000000000000000000000ffffffff0804ffff001d024a06ffffffff0100f2052a0100000043410476728ab690a9e5cd82c9f64067b101dec02dd34febfaf5e9e44827161f26a610c095fbc10772b11da6d804e3e8e31df3fd4bfbace4152639f082bfee396786f6ac00000000"
    }
  ]
}