{
  "hash": "0000000093206c634ba538324bbd2d7dc6494fd3b79d85385dd856a076951a09",
  "confirmations": 50311,
  "height": 2787,
  "version": 1,
  "versionHex": "00000001",
  "merkleroot": "d1a9783fcc0a9dfe097e2f5698f9e2e4817dcfbbc11c1b67dba7555f98b3637d",
  "time": 1233620939,
  "mediantime": 1233618209,
  "nonce": 87111627,
  "bits": "1d00ffff",
  "difficulty": 1,
  "chainwork": "00000000000000000000000000000000000000000000000000000ae40ae40ae4",
  "nTx": 1,
  "previousblockhash": "00000000261d653c81f857b35c36960a7e7eaea34449dc310459404f134438ac",
  "nextblockhash": "00000000952f5425fa4664f3baf13e8889d1adf8bd208a43a617725c18cb6c19",
  "strippedsize": 216,
  "size": 216,
  "weight": 864,
  "tx": [
    {
      "txid": "d1a9783fcc0a9dfe097e2f5698f9e2e4817dcfbbc11c1b67dba7555f98b3637d",
      "hash": "d1a9783fcc0a9dfe097e2f5698f9e2e4817dcfbbc11c1b67dba7555f98b3637d",
      "version": 1,
      "size": 135,
      "vsize": 135,
      "weight": 540,
      "locktime": 0,
      "vin": [
        {
          "coinbase": "04ffff001d025f03",
          "sequence": 4294967295
        }
      ],
      "vout": [
        {
          "value": 50.0,
          "n": 0,
          "scriptPubKey": {
            "asm": "041bbd42b1d5fe5e8f094d184d2c66768f99d7417f1254017f214076fa6b6a4a3c6e6546e1d7862bc6e7c88845876df14eb4ee0b924d896d00aaa61816b0ce7775 OP_CHECKSIG",
            "desc": "pk(041bbd42b1d5fe5e8f094d184d2c66768f99d7417f1254017f214076fa6b6a4a3c6e6546e1d7862bc6e7c88845876df14eb4ee0b924d896d00aaa61816b0ce7775)#2mags8s3",
            "hex": "41041bbd42b1d5fe5e8f094d184d2c66768f99d7417f1254017f214076fa6b6a4a3c6e6546e1d7862bc6e7c88845876df14eb4ee0b924d896d00aaa61816b0ce7775ac",
            "type": "pubkey"
          }
        }
      ],
      "hex": "01000000010000000000000000000000000000000000000000000000000000000000000000ffffffff0804ffff001d025f03ffffffff0100f2052a010000004341041bbd42b1d5fe5e8f094d184d2c66768f99d7417f1254017f214076fa6b6a4a3c6e6546e1d7862bc6e7c88845876df14eb4ee0b924d896d00aaa61816b0ce7775ac00000000"
    }
  ]
}