{
  "hash": "00000000f27b6762dfa9cad49822ad3a7bbf628efb833eb357f1902010434e19",
  "confirmations": 51581,
  "height": 1517,
  "version": 1,
  "versionHex": "00000001",
  "merkleroot": "67494b2d712ded910f8594c874e9c736f7b1f1fabf5766203b945e3aa519729c",
  "time": 1232774634,
  "mediantime": 1232773213,
  "nonce": 478621494,
  "bits": "1d00ffff",
  "difficulty": 1,
  "chainwork": "000000000000000000000000000000000000000000000000000005ee05ee05ee",
  "nTx": 1,
  "previousblockhash": "00000000f897c771fda24599609f93c1bbb306a4eba685b718e3445b0acf6dfa",
  "nextblockhash": "0000000052af552fb616ca24d4d85c1b7faa8d5cf9ca911e87170785c922bea6",
  "strippedsize": 216,
  "size": 216,
  "weight": 864,
  "tx": [
    {
      "txid": "67494b2d712ded910f8594c874e9c736f7b1f1fabf5766203b945e3aa519729c",
      "hash": "67494b2d712ded910f8594c874e9c736f7b1f1fabf5766203b945e3aa519729c",
      "version": 1,
      "size": 135,
      "vsize": 135,
      "weight": 540,
      "locktime": 0,
      "vin": [
        {
          "coinbase": "04ffff001d023e01",
          "sequence": 4294967295
        }
      ],
      "vout": [
        {
          "value": 50.0,
          "n": 0,
          "scriptPubKey": {
            "asm": "046144ed8a7dd706f08bfb1c2b7e60c0be8cf6924e5410615914bcf2f5de757b8aa85a7e828e5524804f6e4eb00a4b6df6526a145eb5877c09858ca51a52b9b934 OP_CHECKSIG",
            "desc": "pk(046144ed8a7dd706f08bfb1c2b7e60c0be8cf6924e5410615914bcf2f5de757b8aa85a7e828e5524804f6e4eb00a4b6df6526a145eb5877c09858ca51a52b9b934)#p58jumu5",
            "hex": "41046144ed8a7dd706f08bfb1c2b7e60c0be8cf6924e5410615914bcf2f5de757b8aa85a7e828e5524804f6e4eb00a4b6df6526a145eb5877c09858ca51a52b9b934ac",
            "type": "pubkey"
          }
        }
      ],
      "hex": "01000000010000000000000000000000000000000000000000000000000000000000000000ffffffff0804ffff001d023e01ffffffff0100f2052a010000004341046144ed8a7dd706f08bfb1c2b7e60c0be8cf6924e5410615914bcf2f5de757b8aa85a7e828e5524804f6e4eb00a4b6df6526a145eb5877c09858ca51a52b9b934ac00000000"
    }
  ]
}