{
  "hash": "00000000e6a4ad5af7454931b946d1bf94ea90de5e9edc1ae8cea11688169598",
  "confirmations": 45781,
  "height": 7317,
  "version": 1,
  "versionHex": "00000001",
  "merkleroot": "6bd7bb1329252b8a2dd78bdc56576b424aa8fac0635ea9d74c00e1f2c02f4e3e",
  "time": 1236961147,
  "mediantime": 1236956707,
  "nonce": 275526349,
  "bits": "1d00ffff",
  "difficulty": 1,
  "chainwork": "00000000000000000000000000000000000000000000000000001c961c961c96",
  "nTx": 1,
  "previousblockhash": "000000003632eaf7db30127b94b030dd558e8a903eac8f66c8407113d97ceb84",
  "nextblockhash": "00000000e0bbdd572a72c9c8b5498e93354bba77e83ab0b345596845d706ea51",
  "strippedsize": 216,
  "size": 216,
  "weight": 864,
  "tx": [
    {
      "txid": "6bd7bb1329252b8a2dd78bdc56576b424aa8fac0635ea9d74c00e1f2c02f4e3e",
      "hash": "6bd7bb1329252b8a2dd78bdc56576b424aa8fac0635ea9d74c00e1f2c02f4e3e",
      "version": 1,
      "size": 135,
      "vsize": 135,
      "weight": 540,
      "locktime": 0,
      "vin": [
        {
          "coinbase": "04ffff001d020c01",
          "sequence": 4294967295
        }
      ],
      "vout": [
        {
          "value": 50.0,
          "n": 0,
          "scriptPubKey": {
            "asm": "04b518e632c91886f586d16b45ffbc518aad5f2ad6f40a0f3d68512626652e38a83f79301924e22e8c51c9a8d26c2d42842212fe6b567fc8ede677b7e45d581220 OP_CHECKSIG",
            "desc": "pk(04b518e632c91886f586d16b45ffbc518aad5f2ad6f40a0f3d68512626652e38a83f79301924e22e8c51c9a8d26c2d42842212fe6b567fc8ede677b7e45d581220)#8glr6vc0",
            "hex": "4104b518e632c91886f586d16b45ffbc518aad5f2ad6f40a0f3d68512626652e38a83f79301924e22e8c51c9a8d26c2d42842212fe6b567fc8ede677b7e45d581220ac",
            "type": "pubkey"
          }
        }
      ],
      "hex": "01000000010000000000000000000000000000000000000000000000000000000000000000ffffffff0804ffff001d020c01ffffffff0100f2052a01000000434104b518e632c91886f586d16b45ffbc518aad5f2ad6f40a0f3d68512626652e38a83f79301924e22e8c51c9a8d26c2d42842212fe6b567fc8ede677b7e45d581220ac00000000"
    }
  ]
}