{
  "hash": "000000009852a769270625f40529a344c7f54c1c1ad866deee611b8810a7bef1",
  "confirmations": 44431,
  "height": 8667,
  "version": 1,
  "versionHex": "00000001",
  "merkleroot": "fb3028aed185d5f3b09afc519407f67ddc502776f9c5ca4893cb1ac782f823c8",
  "time": 1237997806,
  "mediantime": 1237994476,
  "nonce": 577324320,
  "bits": "1d00ffff",
  "difficulty": 1,
  "chainwork": "000000000000000000000000000000000000000000000000000021dc21dc21dc",
  "nTx": 1,
  "previousblockhash": "00000000962c5b87802949e0f58499ac2852a3219726b711e2edd95446912777",
  "nextblockhash": "000000002b35e95717d0a6ef2ce84e9ca559d912a9452f661c8b9671590e1933",
  "strippedsize": 215,
  "size": 215,
  "weight": 860,
  "tx": [
    {
      "txid": "fb3028aed185d5f3b09afc519407f67ddc502776f9c5ca4893cb1ac782f823c8",
      "hash": "fb3028aed185d5f3b09afc519407f67ddc502776f9c5ca4893cb1ac782f823c8",
      "version": 1,
      "size": 134,
      "vsize": 134,
      "weight": 536,
      "locktime": 0,
      "vin": [
        {
          "coinbase": "04ffff001d0150",
          "sequence": 4294967295
        }
      ],
      "vout": [
        {
          "value": 50.0,
          "n": 0,
          "scriptPubKey": {
            "asm": "0458193d7d9c93580effe814c514187eb0718d331ebb1a6c1b208e23edd85c199269cdc672e8d5853f810b72a32ea5d7883608f05b7169a3a0191409176139e18a OP_CHECKSIG",
            "desc": "pk(0458193d7d9c93580effe814c514187eb0718d331ebb1a6c1b208e23edd85c199269cdc672e8d5853f810b72a32ea5d7883608f05b7169a3a0191409176139e18a)#mn0jl78e",
            "hex": "410458193d7d9c93580effe814c514187eb0718d331ebb1a6c1b208e23edd85c199269cdc672e8d5853f810b72a32ea5d7883608f05b7169a3a0191409176139e18aac",
            "type": "pubkey"
          }
        }
      ],
      "hex": "01000000010000000000000000000000000000000000000000000000000000000000000000ffffffff0704ffff001d0150ffffffff0100f2052a0100000043410458193d7d9c93580effe814c514187eb0718d331ebb1a6c1b208e23edd85c199269cdc672e8d5853f810b72a32ea5d7883608f05b7169a3a0191409176139e18aac00000000"
    }
  ]
}