{
  "hash": "00000000b22ba847638a63488558753ffeb6d32bd4f373443544c73afa54a1f2",
  "confirmations": 43984,
  "height": 9114,
  "version": 1,
  "versionHex": "00000001",
  "merkleroot": "8b168ba6927eeb38660b3043d573aecd98e7c698b1d76837e57a498c37c672d2",
  "time": 1238339272,
  "mediantime": 1238337287,
  "nonce": 1024757538,
  "bits": "1d00ffff",
  "difficulty": 1,
  "chainwork": "0000000000000000000000000000000000000000000000000000239b239b239b",
  "nTx": 1,
  "previousblockhash": "000000004b23d8bfe2c7f7c631bd6080ac46d7b3460a848817e6d7755dd1ba89",
  "nextblockhash": "00000000e73b55fcda1037814a85e0779ac13b0936c1f22926c9fa0ef766acef",
  "strippedsize": 216,
  "size": 216,
  "weight": 864,
  "tx": [
    {
      "txid": "8b168ba6927eeb38660b3043d573aecd98e7c698b1d76837e57a498c37c672d2",
      "hash": "8b168ba6927eeb38660b3043d573aecd98e7c698b1d76837e57a498c37c672d2",
      "version": 1,
      "size": 135,
      "vsize": 135,
      "weight": 540,
      "locktime": 0,
      "vin": [
        {
          "coinbase": "04ffff001d028408",
          "sequence": 4294967295
        }
      ],
      "vout": [
        {
          "value": 50.0,
          "n": 0,
          "scriptPubKey": {
            "asm": "04a36843fa179ac9801f2184c527a018ba73f1d5a301f1a8dd581e2baf6adfcda9a0b82f1eccf10ff1bc464ab5c906080b3950aac58c594cb41a3cc16ab9acc553 OP_CHECKSIG",
            "desc": "pk(04a36843fa179ac9801f2184c527a018ba73f1d5a301f1a8dd581e2baf6adfcda9a0b82f1eccf10ff1bc464ab5c906080b3950aac58c594cb41a3cc16ab9acc553)#j4z6pg3l",
            "hex": "4104a36843fa179ac9801f2184c527a018ba73f1d5a301f1a8dd581e2baf6adfcda9a0b82f1eccf10ff1bc464ab5c906080b3950aac58c594cb41a3cc16ab9acc553ac",
            "type": "pubkey"
          }
        }
      ],
      "hex": "01000000010000000000000000000000000000000000000000000000000000000000000000ffffffff0804ffff001d028408ffffffff0100f2052a01000000434104a36843fa179ac9801f2184c527a018ba73f1d5a301f1a8dd581e2baf6adfcda9a0b82f1eccf10ff1bc464ab5c906080b3950aac58c594cb41a3cc16ab9acc553ac00000000"
    }
  ]
}