{
  "hash": "000000009103251902b58285b50040855528ea2e479c5b3f4242830103090fbc",
  "confirmations": 46730,
  "height": 6368,
  "version": 1,
  "versionHex": "00000001",
  "merkleroot": "cd58c3a7b6f2abaca0b21d9c3ce201f36c3abd5e4e2b98a75850b7f350ac38b9",
  "time": 1236232241,
  "mediantime": 1236228468,
  "nonce": 5939910,
  "bits": "1d00ffff",
  "difficulty": 1,
  "chainwork": "000000000000000000000000000000000000000000000000000018e118e118e1",
  "nTx": 1,
  "previousblockhash": "000000008d06da88e4525d9bd2ae2f1713f4e39b01407b6cbb6285be1bf3afc3",
  "nextblockhash": "0000000020337a5544de860139c076606ca212d53a611ae65f5fa4135f193ade",
  "strippedsize": 215,
  "size": 215,
  "weight": 860,
  "tx": [
    {
      "txid": "cd58c3a7b6f2abaca0b21d9c3ce201f36c3abd5e4e2b98a75850b7f350ac38b9",
      "hash": "cd58c3a7b6f2abaca0b21d9c3ce201f36c3abd5e4e2b98a75850b7f350ac38b9",
      "version": 1,
      "size": 134,
      "vsize": 134,
      "weight": 536,
      "locktime": 0,
      "vin": [
        {
          "coinbase": "04ffff001d0102",
          "sequence": 4294967295
        }
      ],
      "vout": [
        {
          "value": 50.0,
          "n": 0,
          "scriptPubKey": {
            "asm": "041b03853349d2ea94d03d60e363e35692edf13ae6099e8dbabcdee3ab0a87e5dc62a282ffc8ec402dc251285f15ac99c821956b0a1102df4429f00457a3296426 OP_CHECKSIG",
            "desc": "pk(041b03853349d2ea94d03d60e363e35692edf13ae6099e8dbabcdee3ab0a87e5dc62a282ffc8ec402dc251285f15ac99c821956b0a1102df4429f00457a3296426)#zvkfp3jy",
            "hex": "41041b03853349d2ea94d03d60e363e35692edf13ae6099e8dbabcdee3ab0a87e5dc62a282ffc8ec402dc251285f15ac99c821956b0a1102df4429f00457a3296426ac",
            "type": "pubkey"
          }
        }
      ],
      "hex": "01000000010000000000000000000000000000000000000000000000000000000000000000ffffffff0704ffff001d0102ffffffff0100f2052a010000004341041b03853349d2ea94d03d60e363e35692edf13ae6099e8dbabcdee3ab0a87e5dc62a282ffc8ec402dc251285f15ac99c821956b0a1102df4429f00457a3296426ac00000000"
    }
  ]
}