{
  "hash": "00000000969d282687ef375d72be4042b9ee819bad53632164d406f16f0cd4bc",
  "confirmations": 43915,
  "height": 9183,
  "version": 1,
  "versionHex": "00000001",
  "merkleroot": "50f576da592405c55aca6d7f5525c1325fb472b58e5fa0add35122507c8271b7",
  "time": 1238389274,
  "mediantime": 1238384959,
  "nonce": 353352962,
  "bits": "1d00ffff",
  "difficulty": 1,
  "chainwork": "000000000000000000000000000000000000000000000000000023e023e023e0",
  "nTx": 1,
  "previousblockhash": "00000000fb64b966746c14a84f563b59adc1202b65134d22c49254a688becccc",
  "nextblockhash": "0000000049d65f49caa5f7e9eaa8c2f7aa405c21f744afebf17337b81452691d",
  "strippedsize": 216,
  "size": 216,
  "weight": 864,
  "tx": [
    {
      "txid": "50f576da592405c55aca6d7f5525c1325fb472b58e5fa0add35122507c8271b7",
      "hash": "50f576da592405c55aca6d7f5525c1325fb472b58e5fa0add35122507c8271b7",
      "version": 1,
      "size": 135,
      "vsize": 135,
      "weight": 540,
      "locktime": 0,
      "vin": [
        {
          "coinbase": "04ffff001d02ca05",
          "sequence": 4294967295
        }
      ],
      "vout": [
        {
          "value": 50.0,
          "n": 0,
          "scriptPubKey": {
            "asm": "04c2028dbbef0a134af1f522acf56764ff644575ce691eb402bd14059ee23775dd50e83f6b9341c78c4e16c02496af8bc82c56308775fa0cba76111c2c610a8acf OP_CHECKSIG",
            "desc": "pk(04c2028dbbef0a134af1f522acf56764ff644575ce691eb402bd14059ee23775dd50e83f6b9341c78c4e16c02496af8bc82c56308775fa0cba76111c2c610a8acf)#5r3c94u8",
            "hex": "4104c2028dbbef0a134af1f522acf56764ff644575ce691eb402bd14059ee23775dd50e83f6b9341c78c4e16c02496af8bc82c56308775fa0cba76111c2c610a8acfac",
            "type": "pubkey"
          }
        }
      ],
      "hex": "01000000010000000000000000000000000000000000000000000000000000000000000000ffffffff0804ffff001d02ca05ffffffff0100f2052a01000000434104c2028dbbef0a134af1f522acf56764ff644575ce691eb402bd14059ee23775dd50e83f6b9341c78c4e16c02496af8bc82c56308775fa0cba76111c2c610a8acfac00000000"
    }
  ]
}