{
  "hash": "00000000b7fc62d6c21633ede9a7c12b31527973bec7b05ef3a7347f115ad8c6",
  "confirmations": 45685,
  "height": 7413,
  "version": 1,
  "versionHex": "00000001",
  "merkleroot": "65fadd18b5b25bf7c7e8d681ca7c440c41612511204dcbed41c8aec3a0155b9e",
  "time": 1237032659,
  "mediantime": 1237029691,
  "nonce": 3782498308,
  "bits": "1d00ffff",
  "difficulty": 1,
  "chainwork": "00000000000000000000000000000000000000000000000000001cf61cf61cf6",
  "nTx": 1,
  "previousblockhash": "000000007ffb4d401f726962314e5163331eb09abfd7b2acbbd9cf2e63477769",
  "nextblockhash": "00000000b442dac97577aad8d7530f80664023dd5634e13887563239ffb45f6a",
  "strippedsize": 216,
  "size": 216,
  "weight": 864,
  "tx": [
    {
      "txid": "65fadd18b5b25bf7c7e8d681ca7c440c41612511204dcbed41c8aec3a0155b9e",
      "hash": "65fadd18b5b25bf7c7e8d681ca7c440c41612511204dcbed41c8aec3a0155b9e",
      "version": 1,
      "size": 135,
      "vsize": 135,
      "weight": 540,
      "locktime": 0,
      "vin": [
        {
          "coinbase": "04ffff001d02a609",
          "sequence": 4294967295
        }
      ],
      "vout": [
        {
          "value": 50.0,
          "n": 0,
          "scriptPubKey": {
            "asm": "0474bb105b59671a5e1116c4aeb5a5a55311072dc5212b9a61bcce3a2ccd4e194227959ddf8fb68510e070ebce00528cabbd4d8b7fe3f83375bcd200a333cd823b OP_CHECKSIG",
            "desc": "pk(0474bb105b59671a5e1116c4aeb5a5a55311072dc5212b9a61bcce3a2ccd4e194227959ddf8fb68510e070ebce00528cabbd4d8b7fe3f83375bcd200a333cd823b)#pfhef2p9",
            "hex": "410474bb105b59671a5e1116c4aeb5a5a55311072dc5212b9a61bcce3a2ccd4e194227959ddf8fb68510e070ebce00528cabbd4d8b7fe3f83375bcd200a333cd823bac",
            "type": "pubkey"
          }
        }
      ],
      "hex": "01000000010000000000000000000000000000000000000000000000000000000000000000ffffffff0804ffff001d02a609ffffffff0100f2052a0100000043410474bb105b59671a5e1116c4aeb5a5a55311072dc5212b9a61bcce3a2ccd4e194227959ddf8fb68510e070ebce00528cabbd4d8b7fe3f83375bcd200a333cd823bac00000000"
    }
  ]
}