{
  "hash": "00000000d44e8ccd202074e7c892d68eb22dbb7e3a2201455cd7c7e428d3c2b6",
  "confirmations": 44197,
  "height": 8901,
  "version": 1,
  "versionHex": "00000001",
  "merkleroot": "5730121dd4faf5461fc11fc0999628cb2060473cdc6bd9cdf8d79ff0904a6349",
  "time": 1238180061,
  "mediantime": 1238175386,
  "nonce": 3247992361,
  "bits": "1d00ffff",
  "difficulty": 1,
  "chainwork": "000000000000000000000000000000000000000000000000000022c622c622c6",
  "nTx": 1,
  "previousblockhash": "00000000f73fe67c4b7c62068e1801cc53d8333f951c14107e70f8179bd51cf7",
  "nextblockhash": "00000000114f8a140d8dc7a809e4862c71e879af8772013b28ec6fa72bf6d7ac",
  "strippedsize": 216,
  "size": 216,
  "weight": 864,
  "tx": [
    {
      "txid": "5730121dd4faf5461fc11fc0999628cb2060473cdc6bd9cdf8d79ff0904a6349",
      "hash": "5730121dd4faf5461fc11fc0999628cb2060473cdc6bd9cdf8d79ff0904a6349",
      "version": 1,
      "size": 135,
      "vsize": 135,
      "weight": 540,
      "locktime": 0,
      "vin": [
        {
          "coinbase": "04ffff001d027304",
          "sequence": 4294967295
        }
      ],
      "vout": [
        {
          "value": 50.0,
          "n": 0,
          "scriptPubKey": {
            "asm": "04f74b100c084bb2501a2489278f7907eb10574d748dc869a6ae9cf7faf240ab158432461c5a6d89638d591642b7d4d7c6ad8a4d19e4b0f859229eeee76f46ee6b OP_CHECKSIG",
            "desc": "pk(04f74b100c084bb2501a2489278f7907eb10574d748dc869a6ae9cf7faf240ab158432461c5a6d89638d591642b7d4d7c6ad8a4d19e4b0f859229eeee76f46ee6b)#8rqn6w89",
            "hex": "4104f74b100c084bb2501a2489278f7907eb10574d748dc869a6ae9cf7faf240ab158432461c5a6d89638d591642b7d4d7c6ad8a4d19e4b0f859229eeee76f46ee6bac",
            "type": "pubkey"
          }
        }
      ],
      "hex": "01000000010000000000000000000000000000000000000000000000000000000000000000ffffffff0804ffff001d027304ffffffff0100f2052a01000000434104f74b100c084bb2501a2489278f7907eb10574d748dc869a6ae9cf7faf240ab158432461c5a6d89638d591642b7d4d7c6ad8a4d19e4b0f859229eeee76f46ee6bac00000000"
    }
  ]
}