{
  "hash": "00000000c9a0c1a8f27d4790dc66a7519b45e5f3fe284eab3efd6958e1a5cb49",
  "confirmations": 49875,
  "height": 3223,
  "version": 1,
  "versionHex": "00000001",
  "merkleroot": "3ecbe24335e054371aaa13ce7208808dece70aa52c9ab410f826ddd2b1513bde",
  "time": 1233917637,
  "mediantime": 1233914225,
  "nonce": 52594054,
  "bits": "1d00ffff",
  "difficulty": 1,
  "chainwork": "00000000000000000000000000000000000000000000000000000c980c980c98",
  "nTx": 1,
  "previousblockhash": "000000000f8bfdd6bc2b93436abdbe8fa7dcfc86bc40a6ce697efd874d9dd894",
  "nextblockhash": "0000000018e47c40744098734975d694ea51f7be28382c5091ab7efbdf76c854",
  "strippedsize": 215,
  "size": 215,
  "weight": 860,
  "tx": [
    {
      "txid": "3ecbe24335e054371aaa13ce7208808dece70aa52c9ab410f826ddd2b1513bde",
      "hash": "3ecbe24335e054371aaa13ce7208808dece70aa52c9ab410f826ddd2b1513bde",
      "version": 1,
      "size": 134,
      "vsize": 134,
      "weight": 536,
      "locktime": 0,
      "vin": [
        {
          "coinbase": "04ffff001d015e",
          "sequence": 4294967295
        }
      ],
      "vout": [
        {
          "value": 50.0,
          "n": 0,
          "scriptPubKey": {
            "asm": "046a4709ef5c8421c5858f6d4b2cb9446cd354e9eb852f4ab3a4087b9a9013424b82d5496ff55e428022d70bf83dc0fc4781d76f9f4276f73cecfaf47131623b58 OP_CHECKSIG",
            "desc": "pk(046a4709ef5c8421c5858f6d4b2cb9446cd354e9eb852f4ab3a4087b9a9013424b82d5496ff55e428022d70bf83dc0fc4781d76f9f4276f73cecfaf47131623b58)#pzhvea9f",
            "hex": "41046a4709ef5c8421c5858f6d4b2cb9446cd354e9eb852f4ab3a4087b9a9013424b82d5496ff55e428022d70bf83dc0fc4781d76f9f4276f73cecfaf47131623b58ac",
            "type": "pubkey"
          }
        }
      ],
      "hex": "01000000010000000000000000000000000000000000000000000000000000000000000000ffffffff0704ffff001d015effffffff0100f2052a010000004341046a4709ef5c8421c5858f6d4b2cb9446cd354e9eb852f4ab3a4087b9a9013424b82d5496ff55e428022d70bf83dc0fc4781d76f9f4276f73cecfaf47131623b58ac00000000"
    }
  ]
}