{
  "hash": "00000000140a4159ffb9a2ed5a4cc267b0da71bc0b0c89051a232726376a5d58",
  "confirmations": 47220,
  "height": 5878,
  "version": 1,
  "versionHex": "00000001",
  "merkleroot": "1609aade45a6d24162d3422236b76b0c4e0b46db00f0ac8b9e2f0be3990c3863",
  "time": 1235826212,
  "mediantime": 1235821691,
  "nonce": 378634298,
  "bits": "1d00ffff",
  "difficulty": 1,
  "chainwork": "000000000000000000000000000000000000000000000000000016f716f716f7",
  "nTx": 1,
  "previousblockhash": "00000000791d0d95530ac776f0b1757cc044c575eb8181ea78384b9828bd0f28",
  "nextblockhash": "000000000509d8351af50926d7a305d2e4044bfaf5f394894702c5c2be083c37",
  "strippedsize": 216,
  "size": 216,
  "weight": 864,
  "tx": [
    {
      "txid": "1609aade45a6d24162d3422236b76b0c4e0b46db00f0ac8b9e2f0be3990c3863",
      "hash": "1609aade45a6d24162d3422236b76b0c4e0b46db00f0ac8b9e2f0be3990c3863",
      "version": 1,
      "size": 135,
      "vsize": 135,
      "weight": 540,
      "locktime": 0,
      "vin": [
        {
          "coinbase": "04ffff001d02a502",
          "sequence": 4294967295
        }
      ],
      "vout": [
        {
          "value": 50.0,
          "n": 0,
          "scriptPubKey": {
            "asm": "044cb0c4020b7c08698c5abb3305402404937c2930ba3409d0e86acb7f09c2d09e554506bfbb3ee450e786b574babf6c67c80c56469ce8131a0d89b3a6be8bc384 OP_CHECKSIG",
            "desc": "pk(044cb0c4020b7c08698c5abb3305402404937c2930ba3409d0e86acb7f09c2d09e554506bfbb3ee450e786b574babf6c67c80c56469ce8131a0d89b3a6be8bc384)#x5zfsuy8",
            "hex": "41044cb0c4020b7c08698c5abb3305402404937c2930ba3409d0e86acb7f09c2d09e554506bfbb3ee450e786b574babf6c67c80c56469ce8131a0d89b3a6be8bc384ac",
            "type": "pubkey"
          }
        }
      ],
      "hex": "01000000010000000000000000000000000000000000000000000000000000000000000000ffffffff0804ffff001d02a502ffffffff0100f2052a010000004341044cb0c4020b7c08698c5abb3305402404937c2930ba3409d0e86acb7f09c2d09e554506bfbb3ee450e786b574babf6c67c80c56469ce8131a0d89b3a6be8bc384ac00000000"
    }
  ]
}