{
  "hash": "00000000efe4090f8b075603d047b16ea2d2c23eea6027a1b13f05c829b28588",
  "confirmations": 52488,
  "height": 610,
  "version": 1,
  "versionHex": "00000001",
  "merkleroot": "3c996f03b760cfee63805e1e0f1776316b2ea9bc9f06476f7655d51c68dc4841",
  "time": 1232044039,
  "mediantime": 1232041720,
  "nonce": 1532060206,
  "bits": "1d00ffff",
  "difficulty": 1,
  "chainwork": "0000000000000000000000000000000000000000000000000000026302630263",
  "nTx": 1,
  "previousblockhash": "000000008c1f7653c7e61858d8024c0d6981bd2186166730e5c0d2650ab5648a",
  "nextblockhash": "00000000d0dbd675a2abec27951b87fe2c0f8e059ac2566d3042165a3f4082db",
  "strippedsize": 216,
  "size": 216,
  "weight": 864,
  "tx": [
    {
      "txid": "3c996f03b760cfee63805e1e0f1776316b2ea9bc9f06476f7655d51c68dc4841",
      "hash": "3c996f03b760cfee63805e1e0f1776316b2ea9bc9f06476f7655d51c68dc4841",
      "version": 1,
      "size": 135,
      "vsize": 135,
      "weight": 540,
      "locktime": 0,
      "vin": [
        {
          "coinbase": "04ffff001d02dd06",
          "sequence": 4294967295
        }
      ],
      "vout": [
        {
          "value": 50.0,
          "n": 0,
          "scriptPubKey": {
            "asm": "0401c7c8e0881930684d6ec3f873d44a2cbbe2dd3643da876f8c0b91709b892da545f33be52c1936a1032a7d1acbe2166a2c5f068f4b7e32d9e60e96f3ba425ad3 OP_CHECKSIG",
            "desc": "pk(0401c7c8e0881930684d6ec3f873d44a2cbbe2dd3643da876f8c0b91709b892da545f33be52c1936a1032a7d1acbe2166a2c5f068f4b7e32d9e60e96f3ba425ad3)#7cj8mdya",
            "hex": "410401c7c8e0881930684d6ec3f873d44a2cbbe2dd3643da876f8c0b91709b892da545f33be52c1936a1032a7d1acbe2166a2c5f068f4b7e32d9e60e96f3ba425ad3ac",
            "type": "pubkey"
          }
        }
      ],
      "hex": "01000000010000000000000000000000000000000000000000000000000000000000000000ffffffff0804ffff001d02dd06ffffffff0100f2052a0100000043410401c7c8e0881930684d6ec3f873d44a2cbbe2dd3643da876f8c0b91709b892da545f33be52c1936a1032a7d1acbe2166a2c5f068f4b7e32d9e60e96f3ba425ad3ac00000000"
    }
  ]
}