{
  "hash": "00000000b5b113200f59f6470f8f6ce1fcd871409b1da965a12eae7a75c18953",
  "confirmations": 51565,
  "height": 1533,
  "version": 1,
  "versionHex": "00000001",
  "merkleroot": "8163f4dd49c552717bcd77e6b9eff078feacf2590a4fcc39b779239187ba6868",
  "time": 1232781835,
  "mediantime": 1232778966,
  "nonce": 4001633567,
  "bits": "1d00ffff",
  "difficulty": 1,
  "chainwork": "000000000000000000000000000000000000000000000000000005fe05fe05fe",
  "nTx": 1,
  "previousblockhash": "000000006bbdc22eeb78b62b2c3bb7e71c433e9aaa8702a0fb13fad244a68f3a",
  "nextblockhash": "000000007d40d49f2f08726f70a5649f564d644ae2f0ab2b60f8c9819911db5d",
  "strippedsize": 216,
  "size": 216,
  "weight": 864,
  "tx": [
    {
      "txid": "8163f4dd49c552717bcd77e6b9eff078feacf2590a4fcc39b779239187ba6868",
      "hash": "8163f4dd49c552717bcd77e6b9eff078feacf2590a4fcc39b779239187ba6868",
      "version": 1,
      "size": 135,
      "vsize": 135,
      "weight": 540,
      "locktime": 0,
      "vin": [
        {
          "coinbase": "04ffff001d027401",
          "sequence": 4294967295
        }
      ],
      "vout": [
        {
          "value": 50.0,
          "n": 0,
          "scriptPubKey": {
            "asm": "0406e14d7ca8aadb61fe73facdebd27f3e4d115f708de15b8577a8b0d3abf8ab219a8cabcdd333943363c764e372418e5d2604286e9e8f6e2208803860f24ecbec OP_CHECKSIG",
            "desc": "pk(0406e14d7ca8aadb61fe73facdebd27f3e4d115f708de15b8577a8b0d3abf8ab219a8cabcdd333943363c764e372418e5d2604286e9e8f6e2208803860f24ecbec)#n0yuzxj5",
            "hex": "410406e14d7ca8aadb61fe73facdebd27f3e4d115f708de15b8577a8b0d3abf8ab219a8cabcdd333943363c764e372418e5d2604286e9e8f6e2208803860f24ecbecac",
            "type": "pubkey"
          }
        }
      ],
      "hex": "01000000010000000000000000000000000000000000000000000000000000000000000000ffffffff0804ffff001d027401ffffffff0100f2052a0100000043410406e14d7ca8aadb61fe73facdebd27f3e4d115f708de15b8577a8b0d3abf8ab219a8cabcdd333943363c764e372418e5d2604286e9e8f6e2208803860f24ecbecac00000000"
    }
  ]
}