{
  "hash": "000000009a7f813c24708573b68265c730a6bff1fa71bf9d447f8c6a196e2077",
  "confirmations": 44408,
  "height": 8690,
  "version": 1,
  "versionHex": "00000001",
  "merkleroot": "ed8dd03f0ccf53ffe570c130ba1354fb0e296c89b652e849d5649671075a37c4",
  "time": 1238017636,
  "mediantime": 1238014788,
  "nonce": 2592609833,
  "bits": "1d00ffff",
  "difficulty": 1,
  "chainwork": "000000000000000000000000000000000000000000000000000021f321f321f3",
  "nTx": 1,
  "previousblockhash": "000000000c0b89432bf3cd76134ef7b87ceda5cfb6064d77e69038cc72c410e8",
  "nextblockhash": "000000007c6ce8af451e99b8f9128759dfc9a4720eb40abcc8f8c174dd0e1e81",
  "strippedsize": 216,
  "size": 216,
  "weight": 864,
  "tx": [
    {
      "txid": "ed8dd03f0ccf53ffe570c130ba1354fb0e296c89b652e849d5649671075a37c4",
      "hash": "ed8dd03f0ccf53ffe570c130ba1354fb0e296c89b652e849d5649671075a37c4",
      "version": 1,
      "size": 135,
      "vsize": 135,
      "weight": 540,
      "locktime": 0,
      "vin": [
        {
          "coinbase": "04ffff001d02b800",
          "sequence": 4294967295
        }
      ],
      "vout": [
        {
          "value": 50.0,
          "n": 0,
          "scriptPubKey": {
            "asm": "049ee8381d68da3416a406e3a68a6c417645fff02febfd9ab182b9bf81b774507b26f941089005d4102b66aa77051f6e33fb4722db3842a8ad8598473d95e5c7d8 OP_CHECKSIG",
            "desc": "pk(049ee8381d68da3416a406e3a68a6c417645fff02febfd9ab182b9bf81b774507b26f941089005d4102b66aa77051f6e33fb4722db3842a8ad8598473d95e5c7d8)#mfekp34u",
            "hex": "41049ee8381d68da3416a406e3a68a6c417645fff02febfd9ab182b9bf81b774507b26f941089005d4102b66aa77051f6e33fb4722db3842a8ad8598473d95e5c7d8ac",
            "type": "pubkey"
          }
        }
      ],
      "hex": "01000000010000000000000000000000000000000000000000000000000000000000000000ffffffff0804ffff001d02b800ffffffff0100f2052a010000004341049ee8381d68da3416a406e3a68a6c417645fff02febfd9ab182b9bf81b774507b26f941089005d4102b66aa77051f6e33fb4722db3842a8ad8598473d95e5c7d8ac00000000"
    }
  ]
}