{
  "hash": "000000004c0d9d28f458d311db3de69f0fce041f04815b6d100ddcef2456cf9a",
  "confirmations": 44169,
  "height": 8929,
  "version": 1,
  "versionHex": "00000001",
  "merkleroot": "808e064552a1567803fb329fb7e691aa25aa436b482ea3854d75050e2faac6bf",
  "time": 1238201051,
  "mediantime": 1238197326,
  "nonce": 1051631152,
  "bits": "1d00ffff",
  "difficulty": 1,
  "chainwork": "000000000000000000000000000000000000000000000000000022e222e222e2",
  "nTx": 1,
  "previousblockhash": "000000001e12f35b5ad35f5d00d2ebe8cf317b9bf43bc36058c224b2e85d613a",
  "nextblockhash": "00000000708b7636f212f961e7cba2690180d94a465f6638434294945f96560d",
  "strippedsize": 216,
  "size": 216,
  "weight": 864,
  "tx": [
    {
      "txid": "808e064552a1567803fb329fb7e691aa25aa436b482ea3854d75050e2faac6bf",
      "hash": "808e064552a1567803fb329fb7e691aa25aa436b482ea3854d75050e2faac6bf",
      "version": 1,
      "size": 135,
      "vsize": 135,
      "weight": 540,
      "locktime": 0,
      "vin": [
        {
          "coinbase": "04ffff001d022405",
          "sequence": 4294967295
        }
      ],
      "vout": [
        {
          "value": 50.0,
          "n": 0,
          "scriptPubKey": {
            "asm": "04566f064137c2dfbde931f9b8d72d723343a041fc63c8da7d52d7b30e4022a1cdc04dd2b4a81205a7cb95450471702282e0437b31fff4e8115087d830c4cad8be OP_CHECKSIG",
            "desc": "pk(04566f064137c2dfbde931f9b8d72d723343a041fc63c8da7d52d7b30e4022a1cdc04dd2b4a81205a7cb95450471702282e0437b31fff4e8115087d830c4cad8be)#yly8674d",
            "hex": "4104566f064137c2dfbde931f9b8d72d723343a041fc63c8da7d52d7b30e4022a1cdc04dd2b4a81205a7cb95450471702282e0437b31fff4e8115087d830c4cad8beac",
            "type": "pubkey"
          }
        }
      ],
      "hex": "01000000010000000000000000000000000000000000000000000000000000000000000000ffffffff0804ffff001d022405ffffffff0100f2052a01000000434104566f064137c2dfbde931f9b8d72d723343a041fc63c8da7d52d7b30e4022a1cdc04dd2b4a81205a7cb95450471702282e0437b31fff4e8115087d830c4cad8beac00000000"
    }
  ]
}