{
  "hash": "000000007a73100c50a018f8ebfd19878fe0e8d1107bb8433633cf6cd21aecbd",
  "confirmations": 48444,
  "height": 4654,
  "version": 1,
  "versionHex": "00000001",
  "merkleroot": "76ea15003a39f885d8cc4567d49cc8debe15b0d360966b67af4de6b48ae14b57",
  "time": 1234894172,
  "mediantime": 1234891203,
  "nonce": 224808986,
  "bits": "1d00ffff",
  "difficulty": 1,
  "chainwork": "0000000000000000000000000000000000000000000000000000122f122f122f",
  "nTx": 1,
  "previousblockhash": "00000000d95aaec175a2b233d29ab7e2e3a140bd1ca072a604f34a35b8dc5825",
  "nextblockhash": "000000003571fe470db466ef0ba2e0e3dd987473054992b86c40a1914282bc96",
  "strippedsize": 216,
  "size": 216,
  "weight": 864,
  "tx": [
    {
      "txid": "76ea15003a39f885d8cc4567d49cc8debe15b0d360966b67af4de6b48ae14b57",
      "hash": "76ea15003a39f885d8cc4567d49cc8debe15b0d360966b67af4de6b48ae14b57",
      "version": 1,
      "size": 135,
      "vsize": 135,
      "weight": 540,
      "locktime": 0,
      "vin": [
        {
          "coinbase": "04ffff001d02c401",
          "sequence": 4294967295
        }
      ],
      "vout": [
        {
          "value": 50.0,
          "n": 0,
          "scriptPubKey": {
            "asm": "043a8ec39bb14139f837e3fba6e1bdba9e94fd6eeedbd28aa20f037566e0fb06108b7ed3bc7f6ed418fd5cffd6321feabf359459a4688aa46ab74126346c07ba0f OP_CHECKSIG",
            "desc": "pk(043a8ec39bb14139f837e3fba6e1bdba9e94fd6eeedbd28aa20f037566e0fb06108b7ed3bc7f6ed418fd5cffd6321feabf359459a4688aa46ab74126346c07ba0f)#et89t5e9",
            "hex": "41043a8ec39bb14139f837e3fba6e1bdba9e94fd6eeedbd28aa20f037566e0fb06108b7ed3bc7f6ed418fd5cffd6321feabf359459a4688aa46ab74126346c07ba0fac",
            "type": "pubkey"
          }
        }
      ],
      "hex": "01000000010000000000000000000000000000000000000000000000000000000000000000ffffffff0804ffff001d02c401ffffffff0100f2052a010000004341043a8ec39bb14139f837e3fba6e1bdba9e94fd6eeedbd28aa20f037566e0fb06108b7ed3bc7f6ed418fd5cffd6321feabf359459a4688aa46ab74126346c07ba0fac00000000"
    }
  ]
}