{
  "hash": "000000005aee915af4e32659f261f28496ea1b3a9c76fd8d2645e9f29129bf4b",
  "confirmations": 46935,
  "height": 6163,
  "version": 1,
  "versionHex": "00000001",
  "merkleroot": "54f2f8007c3b49355524adf1a324ef824d15f94d7bb46d524ab92395cc4a7a12",
  "time": 1236061464,
  "mediantime": 1236056345,
  "nonce": 70352435,
  "bits": "1d00ffff",
  "difficulty": 1,
  "chainwork": "0000000000000000000000000000000000000000000000000000181418141814",
  "nTx": 1,
  "previousblockhash": "000000007acfe286492f476652d33298f4989d7f52b01c8cdd5c5c5585f15167",
  "nextblockhash": "0000000083284da1de8c05ec05b7a88ac4da5331ca6ea1f08edf24dd7711348c",
  "strippedsize": 216,
  "size": 216,
  "weight": 864,
  "tx": [
    {
      "txid": "54f2f8007c3b49355524adf1a324ef824d15f94d7bb46d524ab92395cc4a7a12",
      "hash": "54f2f8007c3b49355524adf1a324ef824d15f94d7bb46d524ab92395cc4a7a12",
      "version": 1,
      "size": 135,
      "vsize": 135,
      "weight": 540,
      "locktime": 0,
      "vin": [
        {
          "coinbase": "04ffff001d02cd07",
          "sequence": 4294967295
        }
      ],
      "vout": [
        {
          "value": 50.0,
          "n": 0,
          "scriptPubKey": {
            "asm": "0469e488d0c1891a72396184ba51f6eb3d875be12f9e1c58f4f08b39457bbc7763e84fbe32a64c270438abd5421ebfc95b2a268fff27c562ae0a6c4e2ee063e087 OP_CHECKSIG",
            "desc": "pk(0469e488d0c1891a72396184ba51f6eb3d875be12f9e1c58f4f08b39457bbc7763e84fbe32a64c270438abd5421ebfc95b2a268fff27c562ae0a6c4e2ee063e087)#x8aalnx6",
            "hex": "410469e488d0c1891a72396184ba51f6eb3d875be12f9e1c58f4f08b39457bbc7763e84fbe32a64c270438abd5421ebfc95b2a268fff27c562ae0a6c4e2ee063e087ac",
            "type": "pubkey"
          }
        }
      ],
      "hex": "01000000010000000000000000000000000000000000000000000000000000000000000000ffffffff0804ffff001d02cd07ffffffff0100f2052a0100000043410469e488d0c1891a72396184ba51f6eb3d875be12f9e1c58f4f08b39457bbc7763e84fbe32a64c270438abd5421ebfc95b2a268fff27c562ae0a6c4e2ee063e087ac00000000"
    }
  ]
}