{
  "hash": "000000009ecc5f466b465b4435fabda37468ca0ea5de8ddd922cd3f75b337e5b",
  "confirmations": 47791,
  "height": 5307,
  "version": 1,
  "versionHex": "00000001",
  "merkleroot": "6609fa36bf8a747d62d81f4ab62c79782d42bc60b73fd0e954065ca1ef4cc3a1",
  "time": 1235367732,
  "mediantime": 1235365081,
  "nonce": 2471012354,
  "bits": "1d00ffff",
  "difficulty": 1,
  "chainwork": "000000000000000000000000000000000000000000000000000014bc14bc14bc",
  "nTx": 1,
  "previousblockhash": "0000000018edf41e62ab980d173d3072b77b699a7a1c0d511b6e84de228fa95f",
  "nextblockhash": "0000000084e8e6edf4f6f6a8207243b69981580cb75aa09f856d6986aee0bfef",
  "strippedsize": 216,
  "size": 216,
  "weight": 864,
  "tx": [
    {
      "txid": "6609fa36bf8a747d62d81f4ab62c79782d42bc60b73fd0e954065ca1ef4cc3a1",
      "hash": "6609fa36bf8a747d62d81f4ab62c79782d42bc60b73fd0e954065ca1ef4cc3a1",
      "version": 1,
      "size": 135,
      "vsize": 135,
      "weight": 540,
      "locktime": 0,
      "vin": [
        {
          "coinbase": "04ffff001d022702",
          "sequence": 4294967295
        }
      ],
      "vout": [
        {
          "value": 50.0,
          "n": 0,
          "scriptPubKey": {
            "asm": "04b4a1b8a06d5c54d459641a8d27672550659506ebec8b1af8d0b5f1ac9ede16abb3ff45623ab70b186d72d66cf6e00ef4c2408c0c7ded6745b4f8e966418ae2ce OP_CHECKSIG",
            "desc": "pk(04b4a1b8a06d5c54d459641a8d27672550659506ebec8b1af8d0b5f1ac9ede16abb3ff45623ab70b186d72d66cf6e00ef4c2408c0c7ded6745b4f8e966418ae2ce)#frt69fnl",
            "hex": "4104b4a1b8a06d5c54d459641a8d27672550659506ebec8b1af8d0b5f1ac9ede16abb3ff45623ab70b186d72d66cf6e00ef4c2408c0c7ded6745b4f8e966418ae2ceac",
            "type": "pubkey"
          }
        }
      ],
      "hex": "01000000010000000000000000000000000000000000000000000000000000000000000000ffffffff0804ffff001d022702ffffffff0100f2052a01000000434104b4a1b8a06d5c54d459641a8d27672550659506ebec8b1af8d0b5f1ac9ede16abb3ff45623ab70b186d72d66cf6e00ef4c2408c0c7ded6745b4f8e966418ae2ceac00000000"
    }
  ]
}