{
  "hash": "00000000a0d1faff6c739a8fe94aa985bab7dd8690bb089ce0952829179bed9e",
  "confirmations": 44209,
  "height": 8889,
  "version": 1,
  "versionHex": "00000001",
  "merkleroot": "cc82501f4a816b3ccbf08c29ba900c0d80833ddec08fda8fbc35c694ca420499",
  "time": 1238169860,
  "mediantime": 1238164820,
  "nonce": 2576411675,
  "bits": "1d00ffff",
  "difficulty": 1,
  "chainwork": "000000000000000000000000000000000000000000000000000022ba22ba22ba",
  "nTx": 1,
  "previousblockhash": "00000000483451d1afb0284fbd0873cc5a61989033604a668b45d5d0ad363071",
  "nextblockhash": "00000000c735d3c3c9a02fba4f4807d696280c3fcb402abd7dce29d95a38f9fb",
  "strippedsize": 216,
  "size": 216,
  "weight": 864,
  "tx": [
    {
      "txid": "cc82501f4a816b3ccbf08c29ba900c0d80833ddec08fda8fbc35c694ca420499",
      "hash": "cc82501f4a816b3ccbf08c29ba900c0d80833ddec08fda8fbc35c694ca420499",
      "version": 1,
      "size": 135,
      "vsize": 135,
      "weight": 540,
      "locktime": 0,
      "vin": [
        {
          "coinbase": "04ffff001d024204",
          "sequence": 4294967295
        }
      ],
      "vout": [
        {
          "value": 50.0,
          "n": 0,
          "scriptPubKey": {
            "asm": "04a5aaf6dbcda72f3802b9aeb808cb2afa264f507528a500ec92b43fba90d3006bfe70cfe6cf627b1d825f8bb2914878becb06555d54426f0e2cbb3b44f60795e6 OP_CHECKSIG",
            "desc": "pk(04a5aaf6dbcda72f3802b9aeb808cb2afa264f507528a500ec92b43fba90d3006bfe70cfe6cf627b1d825f8bb2914878becb06555d54426f0e2cbb3b44f60795e6)#gtp73slj",
            "hex": "4104a5aaf6dbcda72f3802b9aeb808cb2afa264f507528a500ec92b43fba90d3006bfe70cfe6cf627b1d825f8bb2914878becb06555d54426f0e2cbb3b44f60795e6ac",
            "type": "pubkey"
          }
        }
      ],
      "hex": "01000000010000000000000000000000000000000000000000000000000000000000000000ffffffff0804ffff001d024204ffffffff0100f2052a01000000434104a5aaf6dbcda72f3802b9aeb808cb2afa264f507528a500ec92b43fba90d3006bfe70cfe6cf627b1d825f8bb2914878becb06555d54426f0e2cbb3b44f60795e6ac00000000"
    }
  ]
}