{
  "hash": "00000000480c9799dd2b35009ff1833f69690f76c26a9bea7e00cd0042f67db1",
  "confirmations": 52049,
  "height": 177,
  "version": 1,
  "versionHex": "00000001",
  "merkleroot": "07b4b23fca39e9b263fd214d9274335231c3b025aa3d817860fc214a84365e88",
  "time": 1231736557,
  "mediantime": 1231731853,
  "nonce": 150024457,
  "bits": "1d00ffff",
  "difficulty": 1,
  "chainwork": "000000000000000000000000000000000000000000000000000000b200b200b2",
  "nTx": 1,
  "previousblockhash": "0000000016a9f3ddedb8e850941f6981623c7721302a32ca8548dff1f7bd6e58",
  "nextblockhash": "00000000ca6de0be6c908a7c11f6f1335550824b37408d4a332225a329a65b0d",
  "strippedsize": 215,
  "size": 215,
  "weight": 860,
  "tx": [
    {
      "txid": "07b4b23fca39e9b263fd214d9274335231c3b025aa3d817860fc214a84365e88",
      "hash": "07b4b23fca39e9b263fd214d9274335231c3b025aa3d817860fc214a84365e88",
      "version": 1,
      "size": 134,
      "vsize": 134,
      "weight": 536,
      "locktime": 0,
      "vin": [
        {
          "coinbase": "04ffff001d0116",
          "sequence": 4294967295
        }
      ],
      "vout": [
        {
          "value": 50.0,
          "n": 0,
          "scriptPubKey": {
            "asm": "04c8a740992e68870a1c31f4b5232ea3c6d21c03b989c28ad50ef2e68ef320780ee3d0c759a369a1d1d7e36b37be9ba4513fb2a3d0840373551a5437536a54db61 OP_CHECKSIG",
            "desc": "pk(04c8a740992e68870a1c31f4b5232ea3c6d21c03b989c28ad50ef2e68ef320780ee3d0c759a369a1d1d7e36b37be9ba4513fb2a3d0840373551a5437536a54db61)#m267k9cl",
            "hex": "4104c8a740992e68870a1c31f4b5232ea3c6d21c03b989c28ad50ef2e68ef320780ee3d0c759a369a1d1d7e36b37be9ba4513fb2a3d0840373551a5437536a54db61ac",
            "type": "pubkey"
          }
        }
      ],
      "hex": "01000000010000000000000000000000000000000000000000000000000000000000000000ffffffff0704ffff001d0116ffffffff0100f2052a01000000434104c8a740992e68870a1c31f4b5232ea3c6d21c03b989c28ad50ef2e68ef320780ee3d0c759a369a1d1d7e36b37be9ba4513fb2a3d0840373551a5437536a54db61ac00000000"
    }
  ]
}