{
  "hash": "00000000565f674d29f07c227e8a7354ca2e330520847a43f3694ad2f9bed9a4",
  "confirmations": 45348,
  "height": 7750,
  "version": 1,
  "versionHex": "00000001",
  "merkleroot": "8d63aff188d0eb00fea5d45d4e477a1238a58836942c7ab0d1bb236784133077",
  "time": 1237277163,
  "mediantime": 1237273820,
  "nonce": 1841733945,
  "bits": "1d00ffff",
  "difficulty": 1,
  "chainwork": "00000000000000000000000000000000000000000000000000001e471e471e47",
  "nTx": 1,
  "previousblockhash": "000000002c029621b8cc9c395803bf3da43711e5008f7dbf67a24d95779bd216",
  "nextblockhash": "000000007e7ac3c321c4ff1c7cdfe08b1faa80ba293a856d78203ad611daeb85",
  "strippedsize": 216,
  "size": 216,
  "weight": 864,
  "tx": [
    {
      "txid": "8d63aff188d0eb00fea5d45d4e477a1238a58836942c7ab0d1bb236784133077",
      "hash": "8d63aff188d0eb00fea5d45d4e477a1238a58836942c7ab0d1bb236784133077",
      "version": 1,
      "size": 135,
      "vsize": 135,
      "weight": 540,
      "locktime": 0,
      "vin": [
        {
          "coinbase": "04ffff001d021405",
          "sequence": 4294967295
        }
      ],
      "vout": [
        {
          "value": 50.0,
          "n": 0,
          "scriptPubKey": {
            "asm": "04c5014d25774762ba303c42ba611668211ecee38d811f6edcf0ed61810c133060c8202c643d4be46f446c1d1b2a4ef6a98dc1c1873483d698d06f7189a7f56fdf OP_CHECKSIG",
            "desc": "pk(04c5014d25774762ba303c42ba611668211ecee38d811f6edcf0ed61810c133060c8202c643d4be46f446c1d1b2a4ef6a98dc1c1873483d698d06f7189a7f56fdf)#hs3qus0x",
            "hex": "4104c5014d25774762ba303c42ba611668211ecee38d811f6edcf0ed61810c133060c8202c643d4be46f446c1d1b2a4ef6a98dc1c1873483d698d06f7189a7f56fdfac",
            "type": "pubkey"
          }
        }
      ],
      "hex": "01000000010000000000000000000000000000000000000000000000000000000000000000ffffffff0804ffff001d021405ffffffff0100f2052a01000000434104c5014d25774762ba303c42ba611668211ecee38d811f6edcf0ed61810c133060c8202c643d4be46f446c1d1b2a4ef6a98dc1c1873483d698d06f7189a7f56fdfac00000000"
    }
  ]
}