{
  "hash": "0000000045bb7ae8c24f4ca8fd07e830eca1575ce4a07cdd95acb7f9f53cd906",
  "confirmations": 44229,
  "height": 8869,
  "version": 1,
  "versionHex": "00000001",
  "merkleroot": "eacc0c9a5d42c7a8cbad98ce8fd32dbc3b1c4e39ba8773baa41fb8acbcdf9357",
  "time": 1238149845,
  "mediantime": 1238147922,
  "nonce": 8988702,
  "bits": "1d00ffff",
  "difficulty": 1,
  "chainwork": "000000000000000000000000000000000000000000000000000022a622a622a6",
  "nTx": 1,
  "previousblockhash": "0000000087f73823e9bc784daabf71bef5487a847cdcbdfabced04e24b2567ee",
  "nextblockhash": "00000000d75c5ead6576fbcedd9cd003cee45efce45c74e67d61b4a535932420",
  "strippedsize": 216,
  "size": 216,
  "weight": 864,
  "tx": [
    {
      "txid": "eacc0c9a5d42c7a8cbad98ce8fd32dbc3b1c4e39ba8773baa41fb8acbcdf9357",
      "hash": "eacc0c9a5d42c7a8cbad98ce8fd32dbc3b1c4e39ba8773baa41fb8acbcdf9357",
      "version": 1,
      "size": 135,
      "vsize": 135,
      "weight": 540,
      "locktime": 0,
      "vin": [
        {
          "coinbase": "04ffff001d020907",
          "sequence": 4294967295
        }
      ],
      "vout": [
        {
          "value": 50.0,
          "n": 0,
          "scriptPubKey": {
            "asm": "049df850fd7fdfa48a24b45fef944c34a79b6934df59c015d30a91504477fcc168ee13bbaaa907430dd274ee3ec08e5167cb77b220f18b7703eac20b71fbe2a9d6 OP_CHECKSIG",
            "desc": "pk(049df850fd7fdfa48a24b45fef944c34a79b6934df59c015d30a91504477fcc168ee13bbaaa907430dd274ee3ec08e5167cb77b220f18b7703eac20b71fbe2a9d6)#fzcyrvu3",
            "hex": "41049df850fd7fdfa48a24b45fef944c34a79b6934df59c015d30a91504477fcc168ee13bbaaa907430dd274ee3ec08e5167cb77b220f18b7703eac20b71fbe2a9d6ac",
            "type": "pubkey"
          }
        }
      ],
      "hex": "01000000010000000000000000000000000000000000000000000000000000000000000000ffffffff0804ffff001d020907ffffffff0100f2052a010000004341049df850fd7fdfa48a24b45fef944c34a79b6934df59c015d30a91504477fcc168ee13bbaaa907430dd274ee3ec08e5167cb77b220f18b7703eac20b71fbe2a9d6ac00000000"
    }
  ]
}