{
  "hash": "00000000527063ef7283eef1af012ceb119299e948d44175941d6c3ef6da4109",
  "confirmations": 47107,
  "height": 5991,
  "version": 1,
  "versionHex": "00000001",
  "merkleroot": "4cce0d5079a92f8bf68189f2e050784074698080d440ecb61df7cf90341ec823",
  "time": 1235920981,
  "mediantime": 1235917022,
  "nonce": 558854968,
  "bits": "1d00ffff",
  "difficulty": 1,
  "chainwork": "0000000000000000000000000000000000000000000000000000176817681768",
  "nTx": 1,
  "previousblockhash": "00000000b05ae9b737d5d518dde28f7a51f265606691e2c1fb5c6f05a7f3524a",
  "nextblockhash": "000000000b2c1d0ce75fe618d605ae55865d82fc045f959ddff2c839e66f3e52",
  "strippedsize": 216,
  "size": 216,
  "weight": 864,
  "tx": [
    {
      "txid": "4cce0d5079a92f8bf68189f2e050784074698080d440ecb61df7cf90341ec823",
      "hash": "4cce0d5079a92f8bf68189f2e050784074698080d440ecb61df7cf90341ec823",
      "version": 1,
      "size": 135,
      "vsize": 135,
      "weight": 540,
      "locktime": 0,
      "vin": [
        {
          "coinbase": "04ffff001d02c004",
          "sequence": 4294967295
        }
      ],
      "vout": [
        {
          "value": 50.0,
          "n": 0,
          "scriptPubKey": {
            "asm": "0400a19ac2688f284f44f02054160ca513f9488e2f2bfaf56aa3b503a1eb61f33f6340e33145bf9a456ce0446ab2d54aa10013bbbbaa0f6b55a2a0c8a357576319 OP_CHECKSIG",
            "desc": "pk(0400a19ac2688f284f44f02054160ca513f9488e2f2bfaf56aa3b503a1eb61f33f6340e33145bf9a456ce0446ab2d54aa10013bbbbaa0f6b55a2a0c8a357576319)#vykzdpkm",
            "hex": "410400a19ac2688f284f44f02054160ca513f9488e2f2bfaf56aa3b503a1eb61f33f6340e33145bf9a456ce0446ab2d54aa10013bbbbaa0f6b55a2a0c8a357576319ac",
            "type": "pubkey"
          }
        }
      ],
      "hex": "01000000010000000000000000000000000000000000000000000000000000000000000000ffffffff0804ffff001d02c004ffffffff0100f2052a0100000043410400a19ac2688f284f44f02054160ca513f9488e2f2bfaf56aa3b503a1eb61f33f6340e33145bf9a456ce0446ab2d54aa10013bbbbaa0f6b55a2a0c8a357576319ac00000000"
    }
  ]
}