{
  "hash": "000000005eaaf15c3e3291f1d8aac5ab817e828e6de8925985225dc97f247bd0",
  "confirmations": 52481,
  "height": 617,
  "version": 1,
  "versionHex": "00000001",
  "merkleroot": "f599f86843596f66a10ab83fd78de517758a95fd84c99c6439d448a312457d5b",
  "time": 1232047418,
  "mediantime": 1232045313,
  "nonce": 3601673504,
  "bits": "1d00ffff",
  "difficulty": 1,
  "chainwork": "0000000000000000000000000000000000000000000000000000026a026a026a",
  "nTx": 1,
  "previousblockhash": "00000000f5805c3ed1c24ecddba78c6a6f2a671ba6b2d3c89cddc7c8e0c16a2f",
  "nextblockhash": "00000000b90e354dad0524303be97ca253572fb99c639a55976aa683cce7facc",
  "strippedsize": 216,
  "size": 216,
  "weight": 864,
  "tx": [
    {
      "txid": "f599f86843596f66a10ab83fd78de517758a95fd84c99c6439d448a312457d5b",
      "hash": "f599f86843596f66a10ab83fd78de517758a95fd84c99c6439d448a312457d5b",
      "version": 1,
      "size": 135,
      "vsize": 135,
      "weight": 540,
      "locktime": 0,
      "vin": [
        {
          "coinbase": "04ffff001d02ea06",
          "sequence": 4294967295
        }
      ],
      "vout": [
        {
          "value": 50.0,
          "n": 0,
          "scriptPubKey": {
            "asm": "04f8864c70558f4594fa8b626c89b4c6751217435e12ce842e72a6d7795fb09957678b1331ce94963e8638808fd52c168eb57e05e5d37b0bf81a4f6d987bc052a8 OP_CHECKSIG",
            "desc": "pk(04f8864c70558f4594fa8b626c89b4c6751217435e12ce842e72a6d7795fb09957678b1331ce94963e8638808fd52c168eb57e05e5d37b0bf81a4f6d987bc052a8)#ttw2ny5s",
            "hex": "4104f8864c70558f4594fa8b626c89b4c6751217435e12ce842e72a6d7795fb09957678b1331ce94963e8638808fd52c168eb57e05e5d37b0bf81a4f6d987bc052a8ac",
            "type": "pubkey"
          }
        }
      ],
      "hex": "01000000010000000000000000000000000000000000000000000000000000000000000000ffffffff0804ffff001d02ea06ffffffff0100f2052a01000000434104f8864c70558f4594fa8b626c89b4c6751217435e12ce842e72a6d7795fb09957678b1331ce94963e8638808fd52c168eb57e05e5d37b0bf81a4f6d987bc052a8ac00000000"
    }
  ]
}