{
  "hash": "00000000b4b914dc7346ce28f26e0c67dfd728cdb1a1c13fc3941138ad261a8c",
  "confirmations": 46849,
  "height": 6249,
  "version": 1,
  "versionHex": "00000001",
  "merkleroot": "6e5658b25ecdb20ae27feae890d39c8141d2582b62500e373ecba8c0413d02b0",
  "time": 1236130570,
  "mediantime": 1236126865,
  "nonce": 1129190945,
  "bits": "1d00ffff",
  "difficulty": 1,
  "chainwork": "0000000000000000000000000000000000000000000000000000186a186a186a",
  "nTx": 1,
  "previousblockhash": "00000000b032d6ca616df20b1c993ec5ff58b856ac76ed8c43a967b688e0c28d",
  "nextblockhash": "000000006e770b1ca94980e21a70ecce08431b2a15079693d099d7b7a94a14c2",
  "strippedsize": 216,
  "size": 216,
  "weight": 864,
  "tx": [
    {
      "txid": "6e5658b25ecdb20ae27feae890d39c8141d2582b62500e373ecba8c0413d02b0",
      "hash": "6e5658b25ecdb20ae27feae890d39c8141d2582b62500e373ecba8c0413d02b0",
      "version": 1,
      "size": 135,
      "vsize": 135,
      "weight": 540,
      "locktime": 0,
      "vin": [
        {
          "coinbase": "04ffff001d028109",
          "sequence": 4294967295
        }
      ],
      "vout": [
        {
          "value": 50.0,
          "n": 0,
          "scriptPubKey": {
            "asm": "04bc48d9535a6d8007dafdfaee3e3e65fec96ac1fe649ad7e5c04d08383a98551a31dc56e18df54d26c24a358703c54c8e1a7f1886eb4a943e2cc600eec4e588a2 OP_CHECKSIG",
            "desc": "pk(04bc48d9535a6d8007dafdfaee3e3e65fec96ac1fe649ad7e5c04d08383a98551a31dc56e18df54d26c24a358703c54c8e1a7f1886eb4a943e2cc600eec4e588a2)#8ak40vs2",
            "hex": "4104bc48d9535a6d8007dafdfaee3e3e65fec96ac1fe649ad7e5c04d08383a98551a31dc56e18df54d26c24a358703c54c8e1a7f1886eb4a943e2cc600eec4e588a2ac",
            "type": "pubkey"
          }
        }
      ],
      "hex": "01000000010000000000000000000000000000000000000000000000000000000000000000ffffffff0804ffff001d028109ffffffff0100f2052a01000000434104bc48d9535a6d8007dafdfaee3e3e65fec96ac1fe649ad7e5c04d08383a98551a31dc56e18df54d26c24a358703c54c8e1a7f1886eb4a943e2cc600eec4e588a2ac00000000"
    }
  ]
}