{
  "hash": "000000004d3ef3521bfb87c9b184f61a6658d55383fc313923a1c8899b9c0163",
  "confirmations": 52325,
  "height": 773,
  "version": 1,
  "versionHex": "00000001",
  "merkleroot": "c5a52ff7d65f2561d4984775265cb109285be6070b3fde31c846c44d8f0c1b66",
  "time": 1232169303,
  "mediantime": 1232165677,
  "nonce": 162651962,
  "bits": "1d00ffff",
  "difficulty": 1,
  "chainwork": "0000000000000000000000000000000000000000000000000000030603060306",
  "nTx": 1,
  "previousblockhash": "00000000a332b39117fefe672973d5dbb13dcf3e21385478a0ab5c6aa34809ce",
  "nextblockhash": "000000008f858bef0b058c6d32680ccdb7d1bf4c35e97bd73fbe1b42f5069829",
  "strippedsize": 215,
  "size": 215,
  "weight": 860,
  "tx": [
    {
      "txid": "c5a52ff7d65f2561d4984775265cb109285be6070b3fde31c846c44d8f0c1b66",
      "hash": "c5a52ff7d65f2561d4984775265cb109285be6070b3fde31c846c44d8f0c1b66",
      "version": 1,
      "size": 134,
      "vsize": 134,
      "weight": 536,
      "locktime": 0,
      "vin": [
        {
          "coinbase": "04ffff001d013b",
          "sequence": 4294967295
        }
      ],
      "vout": [
        {
          "value": 50.0,
          "n": 0,
          "scriptPubKey": {
            "asm": "045fae77d853785989cb7001d0c18eb7396d8100b107843e32a4a093f48e1c23a3a6d436be26ace0bcff1d7fe63ef855e42c8de4afdf48f27af969e9ffa287395e OP_CHECKSIG",
            "desc": "pk(045fae77d853785989cb7001d0c18eb7396d8100b107843e32a4a093f48e1c23a3a6d436be26ace0bcff1d7fe63ef855e42c8de4afdf48f27af969e9ffa287395e)#uz96ach5",
            "hex": "41045fae77d853785989cb7001d0c18eb7396d8100b107843e32a4a093f48e1c23a3a6d436be26ace0bcff1d7fe63ef855e42c8de4afdf48f27af969e9ffa287395eac",
            "type": "pubkey"
          }
        }
      ],
      "hex": "01000000010000000000000000000000000000000000000000000000000000000000000000ffffffff0704ffff001d013bffffffff0100f2052a010000004341045fae77d853785989cb7001d0c18eb7396d8100b107843e32a4a093f48e1c23a3a6d436be26ace0bcff1d7fe63ef855e42c8de4afdf48f27af969e9ffa287395eac00000000"
    }
  ]
}