{
  "hash": "00000000aff68c0afab037c2ec227bfd8356002fce510fa8b7c14419900e6ea0",
  "confirmations": 49941,
  "height": 3157,
  "version": 1,
  "versionHex": "00000001",
  "merkleroot": "e1fea8aa0a486f8488b0e6201ad444bb18c2b005ceac529068b70b673d3fa792",
  "time": 1233871603,
  "mediantime": 1233868588,
  "nonce": 2422365996,
  "bits": "1d00ffff",
  "difficulty": 1,
  "chainwork": "00000000000000000000000000000000000000000000000000000c560c560c56",
  "nTx": 1,
  "previousblockhash": "00000000a74d9c54130b3088791be0d87d7f65a67fc29cca81d5aa30cbb3a109",
  "nextblockhash": "00000000e5ae04b766a7d2773e7f6a0515cdf93d9143b6e0c7415fd46b785d85",
  "strippedsize": 216,
  "size": 216,
  "weight": 864,
  "tx": [
    {
      "txid": "e1fea8aa0a486f8488b0e6201ad444bb18c2b005ceac529068b70b673d3fa792",
      "hash": "e1fea8aa0a486f8488b0e6201ad444bb18c2b005ceac529068b70b673d3fa792",
      "version": 1,
      "size": 135,
      "vsize": 135,
      "weight": 540,
      "locktime": 0,
      "vin": [
        {
          "coinbase": "04ffff001d021302",
          "sequence": 4294967295
        }
      ],
      "vout": [
        {
          "value": 50.0,
          "n": 0,
          "scriptPubKey": {
            "asm": "04e421ce78be8b526f036ec7cd537a78c4db6af7a040da236599948255cc8c9c4370102eccd6d21dee859fd0750754e7e2c163c8909849a66ca532b169c2072632 OP_CHECKSIG",
            "desc": "pk(04e421ce78be8b526f036ec7cd537a78c4db6af7a040da236599948255cc8c9c4370102eccd6d21dee859fd0750754e7e2c163c8909849a66ca532b169c2072632)#wm27ldr5",
            "hex": "4104e421ce78be8b526f036ec7cd537a78c4db6af7a040da236599948255cc8c9c4370102eccd6d21dee859fd0750754e7e2c163c8909849a66ca532b169c2072632ac",
            "type": "pubkey"
          }
        }
      ],
      "hex": "01000000010000000000000000000000000000000000000000000000000000000000000000ffffffff0804ffff001d021302ffffffff0100f2052a01000000434104e421ce78be8b526f036ec7cd537a78c4db6af7a040da236599948255cc8c9c4370102eccd6d21dee859fd0750754e7e2c163c8909849a66ca532b169c2072632ac00000000"
    }
  ]
}