{
  "hash": "0000000036756e204db33d761a29c187431b31c126cfdffe3aec05ea1a0572c2",
  "confirmations": 47180,
  "height": 5918,
  "version": 1,
  "versionHex": "00000001",
  "merkleroot": "cebbb2c25f6b3c075b159757e3993716a6c5f90bd616a6c7e345380e2582e0b8",
  "time": 1235860147,
  "mediantime": 1235854694,
  "nonce": 1431634227,
  "bits": "1d00ffff",
  "difficulty": 1,
  "chainwork": "0000000000000000000000000000000000000000000000000000171f171f171f",
  "nTx": 1,
  "previousblockhash": "0000000040fa2efc3dfc985865619304637bd3f9d086ccd46879f8b5e8a31910",
  "nextblockhash": "00000000322c109c030efc12ac5646c3100ce7e33deb3c605560bcaa0459cac5",
  "strippedsize": 216,
  "size": 216,
  "weight": 864,
  "tx": [
    {
      "txid": "cebbb2c25f6b3c075b159757e3993716a6c5f90bd616a6c7e345380e2582e0b8",
      "hash": "cebbb2c25f6b3c075b159757e3993716a6c5f90bd616a6c7e345380e2582e0b8",
      "version": 1,
      "size": 135,
      "vsize": 135,
      "weight": 540,
      "locktime": 0,
      "vin": [
        {
          "coinbase": "04ffff001d026703",
          "sequence": 4294967295
        }
      ],
      "vout": [
        {
          "value": 50.0,
          "n": 0,
          "scriptPubKey": {
            "asm": "04beb93c916d45add32f4db78ef40021edcab7ec29929da82f7a7f33d5b61110d7ed2d7a046430d3afb76957a26ec23bceec4026c30428839a6a56c25cb392dcd8 OP_CHECKSIG",
            "desc": "pk(04beb93c916d45add32f4db78ef40021edcab7ec29929da82f7a7f33d5b61110d7ed2d7a046430d3afb76957a26ec23bceec4026c30428839a6a56c25cb392dcd8)#2hz5ls5s",
            "hex": "4104beb93c916d45add32f4db78ef40021edcab7ec29929da82f7a7f33d5b61110d7ed2d7a046430d3afb76957a26ec23bceec4026c30428839a6a56c25cb392dcd8ac",
            "type": "pubkey"
          }
        }
      ],
      "hex": "01000000010000000000000000000000000000000000000000000000000000000000000000ffffffff0804ffff001d026703ffffffff0100f2052a01000000434104beb93c916d45add32f4db78ef40021edcab7ec29929da82f7a7f33d5b61110d7ed2d7a046430d3afb76957a26ec23bceec4026c30428839a6a56c25cb392dcd8ac00000000"
    }
  ]
}