{
  "hash": "00000000b12f5de820deb4065df2c250b33b4b85205ebd1964f655154d112d9d",
  "confirmations": 44267,
  "height": 8831,
  "version": 1,
  "versionHex": "00000001",
  "merkleroot": "ebd850aca48a6bd57ec2b92af291ab6f7111a74e88ef0f8007f97119bef5ef0d",
  "time": 1238120705,
  "mediantime": 1238117281,
  "nonce": 367887905,
  "bits": "1d00ffff",
  "difficulty": 1,
  "chainwork": "0000000000000000000000000000000000000000000000000000228022802280",
  "nTx": 1,
  "previousblockhash": "00000000b58332786a49b6b2f1b7be930503914a6ff762d2f42ce600fc546951",
  "nextblockhash": "00000000eca2c27c7de533b444346bf8f5408f77dbf4da906fe9305e2f76a955",
  "strippedsize": 216,
  "size": 216,
  "weight": 864,
  "tx": [
    {
      "txid": "ebd850aca48a6bd57ec2b92af291ab6f7111a74e88ef0f8007f97119bef5ef0d",
      "hash": "ebd850aca48a6bd57ec2b92af291ab6f7111a74e88ef0f8007f97119bef5ef0d",
      "version": 1,
      "size": 135,
      "vsize": 135,
      "weight": 540,
      "locktime": 0,
      "vin": [
        {
          "coinbase": "04ffff001d024b03",
          "sequence": 4294967295
        }
      ],
      "vout": [
        {
          "value": 50.0,
          "n": 0,
          "scriptPubKey": {
            "asm": "04446e5274de781ac7ccc54afed5724cfda037eedfbec1bb580a95b25ce565ea21b727e85226f39bb641b72dd42172b23c01d5ea245935e79ac6f3c92cc71cbe20 OP_CHECKSIG",
            "desc": "pk(04446e5274de781ac7ccc54afed5724cfda037eedfbec1bb580a95b25ce565ea21b727e85226f39bb641b72dd42172b23c01d5ea245935e79ac6f3c92cc71cbe20)#k6fqx3ln",
            "hex": "4104446e5274de781ac7ccc54afed5724cfda037eedfbec1bb580a95b25ce565ea21b727e85226f39bb641b72dd42172b23c01d5ea245935e79ac6f3c92cc71cbe20ac",
            "type": "pubkey"
          }
        }
      ],
      "hex": "01000000010000000000000000000000000000000000000000000000000000000000000000ffffffff0804ffff001d024b03ffffffff0100f2052a01000000434104446e5274de781ac7ccc54afed5724cfda037eedfbec1bb580a95b25ce565ea21b727e85226f39bb641b72dd42172b23c01d5ea245935e79ac6f3c92cc71cbe20ac00000000"
    }
  ]
}