{
  "hash": "000000002a9d85363e7921b7988a2a9b912df882d0487dc6357a832f6180fb0e",
  "confirmations": 51963,
  "height": 1135,
  "version": 1,
  "versionHex": "00000001",
  "merkleroot": "7ef1364111de3a67ef23c1aec4ad1aa62851e1e71550f9a32bb40161caca62f9",
  "time": 1232448994,
  "mediantime": 1232443888,
  "nonce": 92189258,
  "bits": "1d00ffff",
  "difficulty": 1,
  "chainwork": "0000000000000000000000000000000000000000000000000000047004700470",
  "nTx": 1,
  "previousblockhash": "00000000f209d861eca97e4cf1f10d13698459f7b08be9281b207b97a804f0c9",
  "nextblockhash": "0000000011a8d75d307e0f79fc31df7299b575c0e5134765a4bb394bbd015050",
  "strippedsize": 216,
  "size": 216,
  "weight": 864,
  "tx": [
    {
      "txid": "7ef1364111de3a67ef23c1aec4ad1aa62851e1e71550f9a32bb40161caca62f9",
      "hash": "7ef1364111de3a67ef23c1aec4ad1aa62851e1e71550f9a32bb40161caca62f9",
      "version": 1,
      "size": 135,
      "vsize": 135,
      "weight": 540,
      "locktime": 0,
      "vin": [
        {
          "coinbase": "04ffff001d02c300",
          "sequence": 4294967295
        }
      ],
      "vout": [
        {
          "value": 50.0,
          "n": 0,
          "scriptPubKey": {
            "asm": "04bcc87e80a2396f5560a80bc53ba58803c423a13ba81cd457d69c882a458eaa23730b1cda236bc1358318a0a82d0c08e5d3cbbbe58617596d4c1cc23f5bb7f835 OP_CHECKSIG",
            "desc": "pk(04bcc87e80a2396f5560a80bc53ba58803c423a13ba81cd457d69c882a458eaa23730b1cda236bc1358318a0a82d0c08e5d3cbbbe58617596d4c1cc23f5bb7f835)#qtgpf8cg",
            "hex": "4104bcc87e80a2396f5560a80bc53ba58803c423a13ba81cd457d69c882a458eaa23730b1cda236bc1358318a0a82d0c08e5d3cbbbe58617596d4c1cc23f5bb7f835ac",
            "type": "pubkey"
          }
        }
      ],
      "hex": "01000000010000000000000000000000000000000000000000000000000000000000000000ffffffff0804ffff001d02c300ffffffff0100f2052a01000000434104bcc87e80a2396f5560a80bc53ba58803c423a13ba81cd457d69c882a458eaa23730b1cda236bc1358318a0a82d0c08e5d3cbbbe58617596d4c1cc23f5bb7f835ac00000000"
    }
  ]
}