{
  "hash": "00000000c8ac383017017586e606e2778165bc452501a6e479d2649e4a1067e9",
  "confirmations": 47640,
  "height": 5458,
  "version": 1,
  "versionHex": "00000001",
  "merkleroot": "6175b7b9a4eeab49f91fd55d341dcab61267c5a13398e8cab2636c65e804ba0f",
  "time": 1235490715,
  "mediantime": 1235485816,
  "nonce": 3545517860,
  "bits": "1d00ffff",
  "difficulty": 1,
  "chainwork": "0000000000000000000000000000000000000000000000000000155315531553",
  "nTx": 1,
  "previousblockhash": "0000000010a507c16fe49a0f1c49913a77e503574c7cfac13222362ee6ef4f8b",
  "nextblockhash": "000000001dc7904677e1c04b1a9e4710cb6f13fef0b423ba5509e2fc4dfe33cf",
  "strippedsize": 216,
  "size": 216,
  "weight": 864,
  "tx": [
    {
      "txid": "6175b7b9a4eeab49f91fd55d341dcab61267c5a13398e8cab2636c65e804ba0f",
      "hash": "6175b7b9a4eeab49f91fd55d341dcab61267c5a13398e8cab2636c65e804ba0f",
      "version": 1,
      "size": 135,
      "vsize": 135,
      "weight": 540,
      "locktime": 0,
      "vin": [
        {
          "coinbase": "04ffff001d02e404",
          "sequence": 4294967295
        }
      ],
      "vout": [
        {
          "value": 50.0,
          "n": 0,
          "scriptPubKey": {
            "asm": "044eaf9d94ee96f96f2b7996d79cca4867d6a3d023253a9eded01aeea7ee255341cbc3d8290d7dc62a995d5fb55324ea3de9a5cc4932145486d0ed066accf08714 OP_CHECKSIG",
            "desc": "pk(044eaf9d94ee96f96f2b7996d79cca4867d6a3d023253a9eded01aeea7ee255341cbc3d8290d7dc62a995d5fb55324ea3de9a5cc4932145486d0ed066accf08714)#pnrkvrjf",
            "hex": "41044eaf9d94ee96f96f2b7996d79cca4867d6a3d023253a9eded01aeea7ee255341cbc3d8290d7dc62a995d5fb55324ea3de9a5cc4932145486d0ed066accf08714ac",
            "type": "pubkey"
          }
        }
      ],
      "hex": "01000000010000000000000000000000000000000000000000000000000000000000000000ffffffff0804ffff001d02e404ffffffff0100f2052a010000004341044eaf9d94ee96f96f2b7996d79cca4867d6a3d023253a9eded01aeea7ee255341cbc3d8290d7dc62a995d5fb55324ea3de9a5cc4932145486d0ed066accf08714ac00000000"
    }
  ]
}