{
  "hash": "00000000dd233dca7573fee337fb05740e539a4ccc153e8d73c4a92d1207a273",
  "confirmations": 44531,
  "height": 8567,
  "version": 1,
  "versionHex": "00000001",
  "merkleroot": "1314178d686f511a505b74f2a23d133b8ab3c25d07cb75fc0734d308b4bec896",
  "time": 1237925245,
  "mediantime": 1237920852,
  "nonce": 3336300835,
  "bits": "1d00ffff",
  "difficulty": 1,
  "chainwork": "0000000000000000000000000000000000000000000000000000217821782178",
  "nTx": 1,
  "previousblockhash": "00000000b34b9a7ae8ea4703cbee350933c903eca08df98c0b2d5642d7ba8436",
  "nextblockhash": "0000000055486616fe970fa8bdc9b735dd3b35e9193f7bbdaf5ce0eb4ed5cde7",
  "strippedsize": 216,
  "size": 216,
  "weight": 864,
  "tx": [
    {
      "txid": "1314178d686f511a505b74f2a23d133b8ab3c25d07cb75fc0734d308b4bec896",
      "hash": "1314178d686f511a505b74f2a23d133b8ab3c25d07cb75fc0734d308b4bec896",
      "version": 1,
      "size": 135,
      "vsize": 135,
      "weight": 540,
      "locktime": 0,
      "vin": [
        {
          "coinbase": "04ffff001d021409",
          "sequence": 4294967295
        }
      ],
      "vout": [
        {
          "value": 50.0,
          "n": 0,
          "scriptPubKey": {
            "asm": "04cb6f197618d3ef9ef43105bd3433bb8d792b6b781ff5c76005212a22e04993e34c6a9f467accf6a55514f6cd513014b7f789bc47b9dbb3bb4e7e8fd9d9dcb901 OP_CHECKSIG",
            "desc": "pk(04cb6f197618d3ef9ef43105bd3433bb8d792b6b781ff5c76005212a22e04993e34c6a9f467accf6a55514f6cd513014b7f789bc47b9dbb3bb4e7e8fd9d9dcb901)#khe28phu",
            "hex": "4104cb6f197618d3ef9ef43105bd3433bb8d792b6b781ff5c76005212a22e04993e34c6a9f467accf6a55514f6cd513014b7f789bc47b9dbb3bb4e7e8fd9d9dcb901ac",
            "type": "pubkey"
          }
        }
      ],
      "hex": "01000000010000000000000000000000000000000000000000000000000000000000000000ffffffff0804ffff001d021409ffffffff0100f2052a01000000434104cb6f197618d3ef9ef43105bd3433bb8d792b6b781ff5c76005212a22e04993e34c6a9f467accf6a55514f6cd513014b7f789bc47b9dbb3bb4e7e8fd9d9dcb901ac00000000"
    }
  ]
}