{
  "hash": "0000000005e15c0a03e58a7496226eef9445c086915b56893319e550557081bd",
  "confirmations": 44746,
  "height": 8352,
  "version": 1,
  "versionHex": "00000001",
  "merkleroot": "8aebfb0fba1a6d784c6c9232140f54a5e3148f0f2d17097574ff64078a4afe80",
  "time": 1237768336,
  "mediantime": 1237763466,
  "nonce": 280473605,
  "bits": "1d00ffff",
  "difficulty": 1,
  "chainwork": "000000000000000000000000000000000000000000000000000020a120a120a1",
  "nTx": 1,
  "previousblockhash": "00000000ba17a02b58a53cf247308a8dfa20c483e007f9a737f136ccd89cb755",
  "nextblockhash": "0000000001412f797668fc9e713e629149e026594a74d1e7ecb85ea6ffda0813",
  "strippedsize": 216,
  "size": 216,
  "weight": 864,
  "tx": [
    {
      "txid": "8aebfb0fba1a6d784c6c9232140f54a5e3148f0f2d17097574ff64078a4afe80",
      "hash": "8aebfb0fba1a6d784c6c9232140f54a5e3148f0f2d17097574ff64078a4afe80",
      "version": 1,
      "size": 135,
      "vsize": 135,
      "weight": 540,
      "locktime": 0,
      "vin": [
        {
          "coinbase": "04ffff001d021305",
          "sequence": 4294967295
        }
      ],
      "vout": [
        {
          "value": 50.0,
          "n": 0,
          "scriptPubKey": {
            "asm": "04d728763dea6d1b590c5ff9c9d067fd34b58918a43ec105aad759eeb13c46c8b6f7c924701416bbf8407b9e306f7f9af005cccf1da6883ed2e21737342584a7cf OP_CHECKSIG",
            "desc": "pk(04d728763dea6d1b590c5ff9c9d067fd34b58918a43ec105aad759eeb13c46c8b6f7c924701416bbf8407b9e306f7f9af005cccf1da6883ed2e21737342584a7cf)#qm8vlty0",
            "hex": "4104d728763dea6d1b590c5ff9c9d067fd34b58918a43ec105aad759eeb13c46c8b6f7c924701416bbf8407b9e306f7f9af005cccf1da6883ed2e21737342584a7cfac",
            "type": "pubkey"
          }
        }
      ],
      "hex": "01000000010000000000000000000000000000000000000000000000000000000000000000ffffffff0804ffff001d021305ffffffff0100f2052a01000000434104d728763dea6d1b590c5ff9c9d067fd34b58918a43ec105aad759eeb13c46c8b6f7c924701416bbf8407b9e306f7f9af005cccf1da6883ed2e21737342584a7cfac00000000"
    }
  ]
}