{
  "hash": "000000006cc01055572ce6042273622b26dd05993e3a45f39b48ddaa57a171fe",
  "confirmations": 46178,
  "height": 6920,
  "version": 1,
  "versionHex": "00000001",
  "merkleroot": "977b5718a04adefc06e2a8ccfb4c79900420ea32027df4663124f861dc5016a4",
  "time": 1236652317,
  "mediantime": 1236649523,
  "nonce": 52944099,
  "bits": "1d00ffff",
  "difficulty": 1,
  "chainwork": "00000000000000000000000000000000000000000000000000001b091b091b09",
  "nTx": 1,
  "previousblockhash": "000000000e27cea4bd8828046017ef610080cbbd8a570b36be4cfca2636c7437",
  "nextblockhash": "000000002e6cdb76ffae78a57f7b7cf8f74868fe6788bcd0b19f4165d31ac524",
  "strippedsize": 216,
  "size": 216,
  "weight": 864,
  "tx": [
    {
      "txid": "977b5718a04adefc06e2a8ccfb4c79900420ea32027df4663124f861dc5016a4",
      "hash": "977b5718a04adefc06e2a8ccfb4c79900420ea32027df4663124f861dc5016a4",
      "version": 1,
      "size": 135,
      "vsize": 135,
      "weight": 540,
      "locktime": 0,
      "vin": [
        {
          "coinbase": "04ffff001d02d30c",
          "sequence": 4294967295
        }
      ],
      "vout": [
        {
          "value": 50.0,
          "n": 0,
          "scriptPubKey": {
            "asm": "040b871dbed6c1527d1cb121f6dca7915464267caf36c3f6c68681ab16fe6f345bb7fcaded09ff2e28dab9c6e6eaca9c22c58080b57dc37285d268febd13ee9942 OP_CHECKSIG",
            "desc": "pk(040b871dbed6c1527d1cb121f6dca7915464267caf36c3f6c68681ab16fe6f345bb7fcaded09ff2e28dab9c6e6eaca9c22c58080b57dc37285d268febd13ee9942)#p30cwmdy",
            "hex": "41040b871dbed6c1527d1cb121f6dca7915464267caf36c3f6c68681ab16fe6f345bb7fcaded09ff2e28dab9c6e6eaca9c22c58080b57dc37285d268febd13ee9942ac",
            "type": "pubkey"
          }
        }
      ],
      "hex": "01000000010000000000000000000000000000000000000000000000000000000000000000ffffffff0804ffff001d02d30cffffffff0100f2052a010000004341040b871dbed6c1527d1cb121f6dca7915464267caf36c3f6c68681ab16fe6f345bb7fcaded09ff2e28dab9c6e6eaca9c22c58080b57dc37285d268febd13ee9942ac00000000"
    }
  ]
}