{
  "hash": "00000000b9c5ea6944de09d7ce8fced015ecc0784884743ec09ecaae17cd7220",
  "confirmations": 43934,
  "height": 9164,
  "version": 1,
  "versionHex": "00000001",
  "merkleroot": "91a55d9ca5cca10090323747795e86451f680917720a09d0e0fcb37d080c8154",
  "time": 1238374809,
  "mediantime": 1238370609,
  "nonce": 4234870054,
  "bits": "1d00ffff",
  "difficulty": 1,
  "chainwork": "000000000000000000000000000000000000000000000000000023cd23cd23cd",
  "nTx": 1,
  "previousblockhash": "000000006ece34627639ed4f61f50271c1728d7054aebc4125e94323d478de5e",
  "nextblockhash": "00000000f882479c6dde4f383a80754b7c95a9587374ca0dc80a95b45ffabc7d",
  "strippedsize": 216,
  "size": 216,
  "weight": 864,
  "tx": [
    {
      "txid": "91a55d9ca5cca10090323747795e86451f680917720a09d0e0fcb37d080c8154",
      "hash": "91a55d9ca5cca10090323747795e86451f680917720a09d0e0fcb37d080c8154",
      "version": 1,
      "size": 135,
      "vsize": 135,
      "weight": 540,
      "locktime": 0,
      "vin": [
        {
          "coinbase": "04ffff001d02a809",
          "sequence": 4294967295
        }
      ],
      "vout": [
        {
          "value": 50.0,
          "n": 0,
          "scriptPubKey": {
            "asm": "044cf996e22d24e9077eed4982609479ac6aa54d2c7312cc18694ae0108f0cb3c39c9aac5701b737637e87eca13eb06d0c74cd12650eda979b5f82886364687d9f OP_CHECKSIG",
            "desc": "pk(044cf996e22d24e9077eed4982609479ac6aa54d2c7312cc18694ae0108f0cb3c39c9aac5701b737637e87eca13eb06d0c74cd12650eda979b5f82886364687d9f)#s8atzrpe",
            "hex": "41044cf996e22d24e9077eed4982609479ac6aa54d2c7312cc18694ae0108f0cb3c39c9aac5701b737637e87eca13eb06d0c74cd12650eda979b5f82886364687d9fac",
            "type": "pubkey"
          }
        }
      ],
      "hex": "01000000010000000000000000000000000000000000000000000000000000000000000000ffffffff0804ffff001d02a809ffffffff0100f2052a010000004341044cf996e22d24e9077eed4982609479ac6aa54d2c7312cc18694ae0108f0cb3c39c9aac5701b737637e87eca13eb06d0c74cd12650eda979b5f82886364687d9fac00000000"
    }
  ]
}