{
  "hash": "000000001d8738aee722ee21cef23777c89abbb3a4fc4c5eb749fdd81189dac1",
  "confirmations": 44891,
  "height": 8207,
  "version": 1,
  "versionHex": "00000001",
  "merkleroot": "1d4ea25a220c59b11ead1bb2c0f8bf26e0f95a62cbb02fbb7c2564fe5c90f1ae",
  "time": 1237609292,
  "mediantime": 1237607336,
  "nonce": 1789161009,
  "bits": "1d00ffff",
  "difficulty": 1,
  "chainwork": "0000000000000000000000000000000000000000000000000000201020102010",
  "nTx": 1,
  "previousblockhash": "000000005c250eb18e199f4b94d256ef7348941399dd756413d8b035a596f91c",
  "nextblockhash": "00000000ed67353a39d14ae8a4991908892cb45b03965ed55330ac41294b5949",
  "strippedsize": 216,
  "size": 216,
  "weight": 864,
  "tx": [
    {
      "txid": "1d4ea25a220c59b11ead1bb2c0f8bf26e0f95a62cbb02fbb7c2564fe5c90f1ae",
      "hash": "1d4ea25a220c59b11ead1bb2c0f8bf26e0f95a62cbb02fbb7c2564fe5c90f1ae",
      "version": 1,
      "size": 135,
      "vsize": 135,
      "weight": 540,
      "locktime": 0,
      "vin": [
        {
          "coinbase": "04ffff001d02d902",
          "sequence": 4294967295
        }
      ],
      "vout": [
        {
          "value": 50.0,
          "n": 0,
          "scriptPubKey": {
            "asm": "048ed03358e332af2e7188ba820116bb45bd1d4848250bc3f9978d73e0757e1f0494cc801a0fa7e8c30dc690a6b10265b7b3b5d0e881565b4aeeb910a91a9c0b64 OP_CHECKSIG",
            "desc": "pk(048ed03358e332af2e7188ba820116bb45bd1d4848250bc3f9978d73e0757e1f0494cc801a0fa7e8c30dc690a6b10265b7b3b5d0e881565b4aeeb910a91a9c0b64)#jl9m23ju",
            "hex": "41048ed03358e332af2e7188ba820116bb45bd1d4848250bc3f9978d73e0757e1f0494cc801a0fa7e8c30dc690a6b10265b7b3b5d0e881565b4aeeb910a91a9c0b64ac",
            "type": "pubkey"
          }
        }
      ],
      "hex": "01000000010000000000000000000000000000000000000000000000000000000000000000ffffffff0804ffff001d02d902ffffffff0100f2052a010000004341048ed03358e332af2e7188ba820116bb45bd1d4848250bc3f9978d73e0757e1f0494cc801a0fa7e8c30dc690a6b10265b7b3b5d0e881565b4aeeb910a91a9c0b64ac00000000"
    }
  ]
}