{
  "hash": "00000000db50a10eeeab0f2111c2ddab9daffa42cfdadc5bdf343824f2b22aab",
  "confirmations": 46867,
  "height": 6231,
  "version": 1,
  "versionHex": "00000001",
  "merkleroot": "3cfe57f986abc8863875d632a3edd7a254e5779a3c4916b0cadf0e342b765b3f",
  "time": 1236116866,
  "mediantime": 1236112631,
  "nonce": 2015910183,
  "bits": "1d00ffff",
  "difficulty": 1,
  "chainwork": "0000000000000000000000000000000000000000000000000000185818581858",
  "nTx": 1,
  "previousblockhash": "00000000f7ee7b7d1595abfcf9b2a9d06cb365e11076b97ad6ee2b9674486158",
  "nextblockhash": "0000000032a84330f142107f584cc68e863e2a95c917229d322abe4c6a8b9656",
  "strippedsize": 216,
  "size": 216,
  "weight": 864,
  "tx": [
    {
      "txid": "3cfe57f986abc8863875d632a3edd7a254e5779a3c4916b0cadf0e342b765b3f",
      "hash": "3cfe57f986abc8863875d632a3edd7a254e5779a3c4916b0cadf0e342b765b3f",
      "version": 1,
      "size": 135,
      "vsize": 135,
      "weight": 540,
      "locktime": 0,
      "vin": [
        {
          "coinbase": "04ffff001d022709",
          "sequence": 4294967295
        }
      ],
      "vout": [
        {
          "value": 50.0,
          "n": 0,
          "scriptPubKey": {
            "asm": "0433a9649c17507ea52093e4bae08af6d8bc45adf6bba9a3b32f10fcaa68ca5aeddecb053a625ddc78ac960fc50ef43b913e380816314556510221da8161990aa8 OP_CHECKSIG",
            "desc": "pk(0433a9649c17507ea52093e4bae08af6d8bc45adf6bba9a3b32f10fcaa68ca5aeddecb053a625ddc78ac960fc50ef43b913e380816314556510221da8161990aa8)#nx95e3yx",
            "hex": "410433a9649c17507ea52093e4bae08af6d8bc45adf6bba9a3b32f10fcaa68ca5aeddecb053a625ddc78ac960fc50ef43b913e380816314556510221da8161990aa8ac",
            "type": "pubkey"
          }
        }
      ],
      "hex": "01000000010000000000000000000000000000000000000000000000000000000000000000ffffffff0804ffff001d022709ffffffff0100f2052a0100000043410433a9649c17507ea52093e4bae08af6d8bc45adf6bba9a3b32f10fcaa68ca5aeddecb053a625ddc78ac960fc50ef43b913e380816314556510221da8161990aa8ac00000000"
    }
  ]
}