{
  "hash": "0000000020c385efb05bd1a41ad9b3f27bcbf7a323088f9498629049ede86097",
  "confirmations": 47478,
  "height": 5620,
  "version": 1,
  "versionHex": "00000001",
  "merkleroot": "82912522e29cd66acb9e32e8daefb7e2e5aafccd772862dd19b47a28a79282af",
  "time": 1235621425,
  "mediantime": 1235616676,
  "nonce": 168878628,
  "bits": "1d00ffff",
  "difficulty": 1,
  "chainwork": "000000000000000000000000000000000000000000000000000015f515f515f5",
  "nTx": 1,
  "previousblockhash": "0000000039f2ad51345de657e8ff16d1d961d7446ee4db55dc9ccf56dfc7f2ff",
  "nextblockhash": "0000000077aaae76b5696366b594ee59cc2137546365c1651cb610528b9dbc76",
  "strippedsize": 216,
  "size": 216,
  "weight": 864,
  "tx": [
    {
      "txid": "82912522e29cd66acb9e32e8daefb7e2e5aafccd772862dd19b47a28a79282af",
      "hash": "82912522e29cd66acb9e32e8daefb7e2e5aafccd772862dd19b47a28a79282af",
      "version": 1,
      "size": 135,
      "vsize": 135,
      "weight": 540,
      "locktime": 0,
      "vin": [
        {
          "coinbase": "04ffff001d021408",
          "sequence": 4294967295
        }
      ],
      "vout": [
        {
          "value": 50.0,
          "n": 0,
          "scriptPubKey": {
            "asm": "04cdcb3af4db85d5cf97f8268abbd571cd76af26feb10b518458aa7c8532bc58f7c0b791aa977bf66107a885542b18ba88949fb0d5f22e76d976e2cf3fee0012b9 OP_CHECKSIG",
            "desc": "pk(04cdcb3af4db85d5cf97f8268abbd571cd76af26feb10b518458aa7c8532bc58f7c0b791aa977bf66107a885542b18ba88949fb0d5f22e76d976e2cf3fee0012b9)#620qelar",
            "hex": "4104cdcb3af4db85d5cf97f8268abbd571cd76af26feb10b518458aa7c8532bc58f7c0b791aa977bf66107a885542b18ba88949fb0d5f22e76d976e2cf3fee0012b9ac",
            "type": "pubkey"
          }
        }
      ],
      "hex": "01000000010000000000000000000000000000000000000000000000000000000000000000ffffffff0804ffff001d021408ffffffff0100f2052a01000000434104cdcb3af4db85d5cf97f8268abbd571cd76af26feb10b518458aa7c8532bc58f7c0b791aa977bf66107a885542b18ba88949fb0d5f22e76d976e2cf3fee0012b9ac00000000"
    }
  ]
}