{
  "hash": "00000000156ff65d1b35b88ad8539f0cc096fd4618750fa779142ecdbbcd2e15",
  "confirmations": 44716,
  "height": 8382,
  "version": 1,
  "versionHex": "00000001",
  "merkleroot": "4da3783b951ef242f4b33864242d9b460264c4f38ddf685e43beb4c167da5821",
  "time": 1237789039,
  "mediantime": 1237784124,
  "nonce": 949688114,
  "bits": "1d00ffff",
  "difficulty": 1,
  "chainwork": "000000000000000000000000000000000000000000000000000020bf20bf20bf",
  "nTx": 1,
  "previousblockhash": "00000000ebc95fe8f770d81dfdc07a034fd6c1dabf35af9bed834fedaa5f065b",
  "nextblockhash": "0000000064fce990466181c0ea20c9b98a71a8a5b285a1b0ab8ca7bb185ee799",
  "strippedsize": 216,
  "size": 216,
  "weight": 864,
  "tx": [
    {
      "txid": "4da3783b951ef242f4b33864242d9b460264c4f38ddf685e43beb4c167da5821",
      "hash": "4da3783b951ef242f4b33864242d9b460264c4f38ddf685e43beb4c167da5821",
      "version": 1,
      "size": 135,
      "vsize": 135,
      "weight": 540,
      "locktime": 0,
      "vin": [
        {
          "coinbase": "04ffff001d028a05",
          "sequence": 4294967295
        }
      ],
      "vout": [
        {
          "value": 50.0,
          "n": 0,
          "scriptPubKey": {
            "asm": "0415720b795f6b8bc976bd3fc94e9fc71653ef8ccae54c6b9f65f6a7c0ddb82b7df02b4408c3cbc31b259c469e5b4330726f33b062cf4167002e42f9c5a6717833 OP_CHECKSIG",
            "desc": "pk(0415720b795f6b8bc976bd3fc94e9fc71653ef8ccae54c6b9f65f6a7c0ddb82b7df02b4408c3cbc31b259c469e5b4330726f33b062cf4167002e42f9c5a6717833)#6jzu56ru",
            "hex": "410415720b795f6b8bc976bd3fc94e9fc71653ef8ccae54c6b9f65f6a7c0ddb82b7df02b4408c3cbc31b259c469e5b4330726f33b062cf4167002e42f9c5a6717833ac",
            "type": "pubkey"
          }
        }
      ],
      "hex": "01000000010000000000000000000000000000000000000000000000000000000000000000ffffffff0804ffff001d028a05ffffffff0100f2052a0100000043410415720b795f6b8bc976bd3fc94e9fc71653ef8ccae54c6b9f65f6a7c0ddb82b7df02b4408c3cbc31b259c469e5b4330726f33b062cf4167002e42f9c5a6717833ac00000000"
    }
  ]
}