{
  "hash": "00000000a14daac133dac89bb7686b49713fdcd784b951afe0863ae6d36944f4",
  "confirmations": 45775,
  "height": 7323,
  "version": 1,
  "versionHex": "00000001",
  "merkleroot": "555c26fd32d55ae6ff706fb4b9a16ff78eda32ba9add64cd6ed72c23bccc835e",
  "time": 1236964266,
  "mediantime": 1236961236,
  "nonce": 3619536665,
  "bits": "1d00ffff",
  "difficulty": 1,
  "chainwork": "00000000000000000000000000000000000000000000000000001c9c1c9c1c9c",
  "nTx": 1,
  "previousblockhash": "00000000747689ddda175fd7d4153a8f9066c4fb4c9e8799c302814d1a1b678f",
  "nextblockhash": "00000000354d483f419e60e7ff916d057431715b2bc8d9361e6f66d8818b5ebe",
  "strippedsize": 216,
  "size": 216,
  "weight": 864,
  "tx": [
    {
      "txid": "555c26fd32d55ae6ff706fb4b9a16ff78eda32ba9add64cd6ed72c23bccc835e",
      "hash": "555c26fd32d55ae6ff706fb4b9a16ff78eda32ba9add64cd6ed72c23bccc835e",
      "version": 1,
      "size": 135,
      "vsize": 135,
      "weight": 540,
      "locktime": 0,
      "vin": [
        {
          "coinbase": "04ffff001d02fc07",
          "sequence": 4294967295
        }
      ],
      "vout": [
        {
          "value": 50.0,
          "n": 0,
          "scriptPubKey": {
            "asm": "042619a7d1333b8763695991a3741b0511d1ee7925a1774fad872c89a226b1c452cc3c4588d41409d819f68addaffa755bc6f7e45675902307419aae46930accf4 OP_CHECKSIG",
            "desc": "pk(042619a7d1333b8763695991a3741b0511d1ee7925a1774fad872c89a226b1c452cc3c4588d41409d819f68addaffa755bc6f7e45675902307419aae46930accf4)#j2ujmaf8",
            "hex": "41042619a7d1333b8763695991a3741b0511d1ee7925a1774fad872c89a226b1c452cc3c4588d41409d819f68addaffa755bc6f7e45675902307419aae46930accf4ac",
            "type": "pubkey"
          }
        }
      ],
      "hex": "01000000010000000000000000000000000000000000000000000000000000000000000000ffffffff0804ffff001d02fc07ffffffff0100f2052a010000004341042619a7d1333b8763695991a3741b0511d1ee7925a1774fad872c89a226b1c452cc3c4588d41409d819f68addaffa755bc6f7e45675902307419aae46930accf4ac00000000"
    }
  ]
}