{
  "hash": "00000000aea58f55f01e9d576d809787af36dc351476fbf30fc7252062de3af3",
  "confirmations": 46732,
  "height": 6366,
  "version": 1,
  "versionHex": "00000001",
  "merkleroot": "05a4e107732ac7ce7063989448ad2355882907c64d3fba383dad78799a338128",
  "time": 1236231122,
  "mediantime": 1236227579,
  "nonce": 16813669,
  "bits": "1d00ffff",
  "difficulty": 1,
  "chainwork": "000000000000000000000000000000000000000000000000000018df18df18df",
  "nTx": 1,
  "previousblockhash": "000000002ece5ab68892dbfd32c3750ed5f36d53226e0c1aaac454a6e07c783e",
  "nextblockhash": "000000008d06da88e4525d9bd2ae2f1713f4e39b01407b6cbb6285be1bf3afc3",
  "strippedsize": 215,
  "size": 215,
  "weight": 860,
  "tx": [
    {
      "txid": "05a4e107732ac7ce7063989448ad2355882907c64d3fba383dad78799a338128",
      "hash": "05a4e107732ac7ce7063989448ad2355882907c64d3fba383dad78799a338128",
      "version": 1,
      "size": 134,
      "vsize": 134,
      "weight": 536,
      "locktime": 0,
      "vin": [
        {
          "coinbase": "04ffff001d012b",
          "sequence": 4294967295
        }
      ],
      "vout": [
        {
          "value": 50.0,
          "n": 0,
          "scriptPubKey": {
            "asm": "0416cc5d6ed7c8c31ef894bf5d9b34461842bf538e3b595ca385ce4d2feb77a157d0f44f8e93e122269f1b0e75875796cd217640744a82e51a65a42b6281e44795 OP_CHECKSIG",
            "desc": "pk(0416cc5d6ed7c8c31ef894bf5d9b34461842bf538e3b595ca385ce4d2feb77a157d0f44f8e93e122269f1b0e75875796cd217640744a82e51a65a42b6281e44795)#cdt84756",
            "hex": "410416cc5d6ed7c8c31ef894bf5d9b34461842bf538e3b595ca385ce4d2feb77a157d0f44f8e93e122269f1b0e75875796cd217640744a82e51a65a42b6281e44795ac",
            "type": "pubkey"
          }
        }
      ],
      "hex": "01000000010000000000000000000000000000000000000000000000000000000000000000ffffffff0704ffff001d012bffffffff0100f2052a0100000043410416cc5d6ed7c8c31ef894bf5d9b34461842bf538e3b595ca385ce4d2feb77a157d0f44f8e93e122269f1b0e75875796cd217640744a82e51a65a42b6281e44795ac00000000"
    }
  ]
}