{
  "hash": "000000008967b63ef7bf00299f69687bfce031022dc2db60219bcdb85b96aafc",
  "confirmations": 46696,
  "height": 6402,
  "version": 1,
  "versionHex": "00000001",
  "merkleroot": "9e3270df3603912f13613d49f39c36688cf9382ab316d1c12a864ad5421360b8",
  "time": 1236256783,
  "mediantime": 1236253728,
  "nonce": 4008270647,
  "bits": "1d00ffff",
  "difficulty": 1,
  "chainwork": "0000000000000000000000000000000000000000000000000000190319031903",
  "nTx": 1,
  "previousblockhash": "000000005e7d5b3a44803b333b33ff2497edf213b1c7910277f49c6de67122c0",
  "nextblockhash": "0000000023590d5786ed808a04fd7ba10b4e8814ca8f3d7eef91621074f99f85",
  "strippedsize": 216,
  "size": 216,
  "weight": 864,
  "tx": [
    {
      "txid": "9e3270df3603912f13613d49f39c36688cf9382ab316d1c12a864ad5421360b8",
      "hash": "9e3270df3603912f13613d49f39c36688cf9382ab316d1c12a864ad5421360b8",
      "version": 1,
      "size": 135,
      "vsize": 135,
      "weight": 540,
      "locktime": 0,
      "vin": [
        {
          "coinbase": "04ffff001d02df01",
          "sequence": 4294967295
        }
      ],
      "vout": [
        {
          "value": 50.0,
          "n": 0,
          "scriptPubKey": {
            "asm": "046c8206b2d900ddb36cb33318a57942286342510f86b726a4dde7ec81ba84eb1735b9994138ec3272341f2777e9931ae9eedd6682823a15beef7d414da3f6df1e OP_CHECKSIG",
            "desc": "pk(046c8206b2d900ddb36cb33318a57942286342510f86b726a4dde7ec81ba84eb1735b9994138ec3272341f2777e9931ae9eedd6682823a15beef7d414da3f6df1e)#tq7nhe5w",
            "hex": "41046c8206b2d900ddb36cb33318a57942286342510f86b726a4dde7ec81ba84eb1735b9994138ec3272341f2777e9931ae9eedd6682823a15beef7d414da3f6df1eac",
            "type": "pubkey"
          }
        }
      ],
      "hex": "01000000010000000000000000000000000000000000000000000000000000000000000000ffffffff0804ffff001d02df01ffffffff0100f2052a010000004341046c8206b2d900ddb36cb33318a57942286342510f86b726a4dde7ec81ba84eb1735b9994138ec3272341f2777e9931ae9eedd6682823a15beef7d414da3f6df1eac00000000"
    }
  ]
}