{
  "hash": "0000000094f739836057b24bcdec3a532bba8b5f7b903a530d3a29bc422c45eb",
  "confirmations": 51463,
  "height": 1635,
  "version": 1,
  "versionHex": "00000001",
  "merkleroot": "7e74daf380463a636eefd683ca69a9ffd0e39c0a4e4caca3af03055dfff02c76",
  "time": 1232825619,
  "mediantime": 1232824248,
  "nonce": 2639250690,
  "bits": "1d00ffff",
  "difficulty": 1,
  "chainwork": "0000000000000000000000000000000000000000000000000000066406640664",
  "nTx": 1,
  "previousblockhash": "00000000e9442450d3f43bde529cfadc488a105152d6b607fc332b3a13d497e8",
  "nextblockhash": "00000000be752294d937ba5fe0ee228b01bf5b11e26691e44a6a3cfb50fe1018",
  "strippedsize": 216,
  "size": 216,
  "weight": 864,
  "tx": [
    {
      "txid": "7e74daf380463a636eefd683ca69a9ffd0e39c0a4e4caca3af03055dfff02c76",
      "hash": "7e74daf380463a636eefd683ca69a9ffd0e39c0a4e4caca3af03055dfff02c76",
      "version": 1,
      "size": 135,
      "vsize": 135,
      "weight": 540,
      "locktime": 0,
      "vin": [
        {
          "coinbase": "04ffff001d027e02",
          "sequence": 4294967295
        }
      ],
      "vout": [
        {
          "value": 50.0,
          "n": 0,
          "scriptPubKey": {
            "asm": "048c7366734a4efc3cc72742bc3654e2e70040c574c34a7279bb5b8a60b05621b2e1bccd79d292c4e73861200962b80d97f5818d27969f2299d47202651b95cca8 OP_CHECKSIG",
            "desc": "pk(048c7366734a4efc3cc72742bc3654e2e70040c574c34a7279bb5b8a60b05621b2e1bccd79d292c4e73861200962b80d97f5818d27969f2299d47202651b95cca8)#fclkey70",
            "hex": "41048c7366734a4efc3cc72742bc3654e2e70040c574c34a7279bb5b8a60b05621b2e1bccd79d292c4e73861200962b80d97f5818d27969f2299d47202651b95cca8ac",
            "type": "pubkey"
          }
        }
      ],
      "hex": "01000000010000000000000000000000000000000000000000000000000000000000000000ffffffff0804ffff001d027e02ffffffff0100f2052a010000004341048c7366734a4efc3cc72742bc3654e2e70040c574c34a7279bb5b8a60b05621b2e1bccd79d292c4e73861200962b80d97f5818d27969f2299d47202651b95cca8ac00000000"
    }
  ]
}