{
  "hash": "0000000005346e72acfbba94ad89208e51788b01bce5104a3f6c293987733433",
  "confirmations": 43565,
  "height": 9533,
  "version": 1,
  "versionHex": "00000001",
  "merkleroot": "c93850652f49a38fa694e0f8f8fb73fd1a3199b8250dd39173d42e71529ac050",
  "time": 1238648787,
  "mediantime": 1238646203,
  "nonce": 238370147,
  "bits": "1d00ffff",
  "difficulty": 1,
  "chainwork": "0000000000000000000000000000000000000000000000000000253e253e253e",
  "nTx": 1,
  "previousblockhash": "0000000084433079d0ab1d1201fed36c8116799aed2ae1d080eaf16d7b7296d2",
  "nextblockhash": "000000005d8516771145d96282eee114a0c22ae6d5f1d7f1d531b2723209cbab",
  "strippedsize": 215,
  "size": 215,
  "weight": 860,
  "tx": [
    {
      "txid": "c93850652f49a38fa694e0f8f8fb73fd1a3199b8250dd39173d42e71529ac050",
      "hash": "c93850652f49a38fa694e0f8f8fb73fd1a3199b8250dd39173d42e71529ac050",
      "version": 1,
      "size": 134,
      "vsize": 134,
      "weight": 536,
      "locktime": 0,
      "vin": [
        {
          "coinbase": "04ffff001d0139",
          "sequence": 4294967295
        }
      ],
      "vout": [
        {
          "value": 50.0,
          "n": 0,
          "scriptPubKey": {
            "asm": "04564282e07f438511df3b2ccc85809fbadd5dbfc0caa28d31c77539582c458aa2135267afb0d8bbc582029f6408c9552df660cc05690fbf7dc44eddb8b1a8aa09 OP_CHECKSIG",
            "desc": "pk(04564282e07f438511df3b2ccc85809fbadd5dbfc0caa28d31c77539582c458aa2135267afb0d8bbc582029f6408c9552df660cc05690fbf7dc44eddb8b1a8aa09)#qdt2tcsy",
            "hex": "4104564282e07f438511df3b2ccc85809fbadd5dbfc0caa28d31c77539582c458aa2135267afb0d8bbc582029f6408c9552df660cc05690fbf7dc44eddb8b1a8aa09ac",
            "type": "pubkey"
          }
        }
      ],
      "hex": "01000000010000000000000000000000000000000000000000000000000000000000000000ffffffff0704ffff001d0139ffffffff0100f2052a01000000434104564282e07f438511df3b2ccc85809fbadd5dbfc0caa28d31c77539582c458aa2135267afb0d8bbc582029f6408c9552df660cc05690fbf7dc44eddb8b1a8aa09ac00000000"
    }
  ]
}