{
  "hash": "00000000617ab7eee5a5d6567a7d84c65668c845e2040a9fd789e2800838a350",
  "confirmations": 46167,
  "height": 6931,
  "version": 1,
  "versionHex": "00000001",
  "merkleroot": "f5ed67340df841ce288efa2b6948aa8306a56f0a607965e2cf5f0bd25d725625",
  "time": 1236662314,
  "mediantime": 1236658030,
  "nonce": 346522645,
  "bits": "1d00ffff",
  "difficulty": 1,
  "chainwork": "00000000000000000000000000000000000000000000000000001b141b141b14",
  "nTx": 1,
  "previousblockhash": "00000000f49a9d6fa0beaf1f8a8ef2a4c1768e77d2358d2e6064a6f579207e01",
  "nextblockhash": "00000000d28bbbe0812c372adbd91aaa946cd8c88d151904e174c0165ec6ddf2",
  "strippedsize": 216,
  "size": 216,
  "weight": 864,
  "tx": [
    {
      "txid": "f5ed67340df841ce288efa2b6948aa8306a56f0a607965e2cf5f0bd25d725625",
      "hash": "f5ed67340df841ce288efa2b6948aa8306a56f0a607965e2cf5f0bd25d725625",
      "version": 1,
      "size": 135,
      "vsize": 135,
      "weight": 540,
      "locktime": 0,
      "vin": [
        {
          "coinbase": "04ffff001d02f800",
          "sequence": 4294967295
        }
      ],
      "vout": [
        {
          "value": 50.0,
          "n": 0,
          "scriptPubKey": {
            "asm": "043a99a2696e6caa54e90079c42b66eeb8feb3fbbee836d815eb31aeb6f5efd4943f7a9d15bb6797c5fefbbaf9653ab8c6344cad56663beb526d4d19f73ea798db OP_CHECKSIG",
            "desc": "pk(043a99a2696e6caa54e90079c42b66eeb8feb3fbbee836d815eb31aeb6f5efd4943f7a9d15bb6797c5fefbbaf9653ab8c6344cad56663beb526d4d19f73ea798db)#pwqzt2sn",
            "hex": "41043a99a2696e6caa54e90079c42b66eeb8feb3fbbee836d815eb31aeb6f5efd4943f7a9d15bb6797c5fefbbaf9653ab8c6344cad56663beb526d4d19f73ea798dbac",
            "type": "pubkey"
          }
        }
      ],
      "hex": "01000000010000000000000000000000000000000000000000000000000000000000000000ffffffff0804ffff001d02f800ffffffff0100f2052a010000004341043a99a2696e6caa54e90079c42b66eeb8feb3fbbee836d815eb31aeb6f5efd4943f7a9d15bb6797c5fefbbaf9653ab8c6344cad56663beb526d4d19f73ea798dbac00000000"
    }
  ]
}