{
  "hash": "00000000f74ffef987a1d77522559eaa3c20d7c5ab131fa51a7c79a4c5776a80",
  "confirmations": 52352,
  "height": 746,
  "version": 1,
  "versionHex": "00000001",
  "merkleroot": "71ec402380c6cb4495d1f3c64be339014bc0134d896f61a18996bb519e4a5f4c",
  "time": 1232148780,
  "mediantime": 1232142119,
  "nonce": 2696658454,
  "bits": "1d00ffff",
  "difficulty": 1,
  "chainwork": "000000000000000000000000000000000000000000000000000002eb02eb02eb",
  "nTx": 1,
  "previousblockhash": "00000000bb31c71c439638b4a79f4bd26bc4b3b64dd96bd104494a5c165a3aff",
  "nextblockhash": "000000006cae5f88a202295f6435ba871e03290523110e4b4be443db054561cb",
  "strippedsize": 216,
  "size": 216,
  "weight": 864,
  "tx": [
    {
      "txid": "71ec402380c6cb4495d1f3c64be339014bc0134d896f61a18996bb519e4a5f4c",
      "hash": "71ec402380c6cb4495d1f3c64be339014bc0134d896f61a18996bb519e4a5f4c",
      "version": 1,
      "size": 135,
      "vsize": 135,
      "weight": 540,
      "locktime": 0,
      "vin": [
        {
          "coinbase": "04ffff001d029600",
          "sequence": 4294967295
        }
      ],
      "vout": [
        {
          "value": 50.0,
          "n": 0,
          "scriptPubKey": {
            "asm": "0486d1c54c80032e23887041901b67484ddd826dcf583eee974fb6b21f247c7293e3623bbe66c56ab4ea52ac2eba5faba526a32db37256558adf47752a0a2dc5ee OP_CHECKSIG",
            "desc": "pk(0486d1c54c80032e23887041901b67484ddd826dcf583eee974fb6b21f247c7293e3623bbe66c56ab4ea52ac2eba5faba526a32db37256558adf47752a0a2dc5ee)#l3lchaq8",
            "hex": "410486d1c54c80032e23887041901b67484ddd826dcf583eee974fb6b21f247c7293e3623bbe66c56ab4ea52ac2eba5faba526a32db37256558adf47752a0a2dc5eeac",
            "type": "pubkey"
          }
        }
      ],
      "hex": "01000000010000000000000000000000000000000000000000000000000000000000000000ffffffff0804ffff001d029600ffffffff0100f2052a0100000043410486d1c54c80032e23887041901b67484ddd826dcf583eee974fb6b21f247c7293e3623bbe66c56ab4ea52ac2eba5faba526a32db37256558adf47752a0a2dc5eeac00000000"
    }
  ]
}