{
  "hash": "0000000025fff6b137a13edc746bda8d10fde4a889136d1f52bbc45a24bc1af3",
  "confirmations": 49457,
  "height": 3641,
  "version": 1,
  "versionHex": "00000001",
  "merkleroot": "f6dc3d5f948eb445211e9a81ae2ae38dd0c31aa7cb98addd2e5ec016ad0ea48d",
  "time": 1234197024,
  "mediantime": 1234194840,
  "nonce": 34360888,
  "bits": "1d00ffff",
  "difficulty": 1,
  "chainwork": "00000000000000000000000000000000000000000000000000000e3a0e3a0e3a",
  "nTx": 1,
  "previousblockhash": "0000000002af85152112866833f4a30a251324fa75552bae9514f9ed7e9fc0d6",
  "nextblockhash": "00000000ae661e50017916b454ac771d9859b234c16ba1e297b95a2b6f3edb53",
  "strippedsize": 216,
  "size": 216,
  "weight": 864,
  "tx": [
    {
      "txid": "f6dc3d5f948eb445211e9a81ae2ae38dd0c31aa7cb98addd2e5ec016ad0ea48d",
      "hash": "f6dc3d5f948eb445211e9a81ae2ae38dd0c31aa7cb98addd2e5ec016ad0ea48d",
      "version": 1,
      "size": 135,
      "vsize": 135,
      "weight": 540,
      "locktime": 0,
      "vin": [
        {
          "coinbase": "04ffff001d022309",
          "sequence": 4294967295
        }
      ],
      "vout": [
        {
          "value": 50.0,
          "n": 0,
          "scriptPubKey": {
            "asm": "044823823c0c4b86deaca763e3b1f077da75b5bcce23102320ccd6df28413a36f4fca05dec59bbcb80860b2ad61f8e050e445063c140c433e69d7a4a586c28b0f8 OP_CHECKSIG",
            "desc": "pk(044823823c0c4b86deaca763e3b1f077da75b5bcce23102320ccd6df28413a36f4fca05dec59bbcb80860b2ad61f8e050e445063c140c433e69d7a4a586c28b0f8)#zgm0jtr6",
            "hex": "41044823823c0c4b86deaca763e3b1f077da75b5bcce23102320ccd6df28413a36f4fca05dec59bbcb80860b2ad61f8e050e445063c140c433e69d7a4a586c28b0f8ac",
            "type": "pubkey"
          }
        }
      ],
      "hex": "01000000010000000000000000000000000000000000000000000000000000000000000000ffffffff0804ffff001d022309ffffffff0100f2052a010000004341044823823c0c4b86deaca763e3b1f077da75b5bcce23102320ccd6df28413a36f4fca05dec59bbcb80860b2ad61f8e050e445063c140c433e69d7a4a586c28b0f8ac00000000"
    }
  ]
}