{
  "hash": "0000000050bb353e5a7b1a9d17dbd957aaef9cc81aea46afad55da7c56bd2561",
  "confirmations": 45189,
  "height": 7909,
  "version": 1,
  "versionHex": "00000001",
  "merkleroot": "c8ee4dadbc90ae42b0e197a2302331f775aece69a87491e73f1d3819bbddb846",
  "time": 1237400082,
  "mediantime": 1237396069,
  "nonce": 1054233856,
  "bits": "1d00ffff",
  "difficulty": 1,
  "chainwork": "00000000000000000000000000000000000000000000000000001ee61ee61ee6",
  "nTx": 1,
  "previousblockhash": "00000000be07dfebeb8dd17c87e24e756b1e160b73e96b4c7754f6264116d966",
  "nextblockhash": "0000000065e7410c8d6369d9e27f61ade0793270893a1e9b1ffdf303d383f53c",
  "strippedsize": 216,
  "size": 216,
  "weight": 864,
  "tx": [
    {
      "txid": "c8ee4dadbc90ae42b0e197a2302331f775aece69a87491e73f1d3819bbddb846",
      "hash": "c8ee4dadbc90ae42b0e197a2302331f775aece69a87491e73f1d3819bbddb846",
      "version": 1,
      "size": 135,
      "vsize": 135,
      "weight": 540,
      "locktime": 0,
      "vin": [
        {
          "coinbase": "04ffff001d02a607",
          "sequence": 4294967295
        }
      ],
      "vout": [
        {
          "value": 50.0,
          "n": 0,
          "scriptPubKey": {
            "asm": "042ac700fe2594b8f2868f346c7e19f52f1070b1c59cc30b65708a3b1b030278ee01e8481ebd3b1001cbc4bbf010cb84da428d4831b2cdf7f8f16054371eb4c845 OP_CHECKSIG",
            "desc": "pk(042ac700fe2594b8f2868f346c7e19f52f1070b1c59cc30b65708a3b1b030278ee01e8481ebd3b1001cbc4bbf010cb84da428d4831b2cdf7f8f16054371eb4c845)#9hxug25f",
            "hex": "41042ac700fe2594b8f2868f346c7e19f52f1070b1c59cc30b65708a3b1b030278ee01e8481ebd3b1001cbc4bbf010cb84da428d4831b2cdf7f8f16054371eb4c845ac",
            "type": "pubkey"
          }
        }
      ],
      "hex": "01000000010000000000000000000000000000000000000000000000000000000000000000ffffffff0804ffff001d02a607ffffffff0100f2052a010000004341042ac700fe2594b8f2868f346c7e19f52f1070b1c59cc30b65708a3b1b030278ee01e8481ebd3b1001cbc4bbf010cb84da428d4831b2cdf7f8f16054371eb4c845ac00000000"
    }
  ]
}