{
  "hash": "00000000e3973f284a3d33f15f7c9ac30c10b5a6df9513a8d8ef7a3a7e1610cf",
  "confirmations": 49255,
  "height": 3843,
  "version": 1,
  "versionHex": "00000001",
  "merkleroot": "8e846fd2b6a8a46d36c480ea49b8b7a4372300bf64138724c6bb470a36421165",
  "time": 1234330648,
  "mediantime": 1234327639,
  "nonce": 2941798694,
  "bits": "1d00ffff",
  "difficulty": 1,
  "chainwork": "00000000000000000000000000000000000000000000000000000f040f040f04",
  "nTx": 1,
  "previousblockhash": "000000000be5065d6c87ad157b7093fe503da6ca684e7b17c4b4fae1d555897d",
  "nextblockhash": "00000000864f198de6c67a8ea0a6497bddf32260f1ef38ed2199262b7deb0ff9",
  "strippedsize": 216,
  "size": 216,
  "weight": 864,
  "tx": [
    {
      "txid": "8e846fd2b6a8a46d36c480ea49b8b7a4372300bf64138724c6bb470a36421165",
      "hash": "8e846fd2b6a8a46d36c480ea49b8b7a4372300bf64138724c6bb470a36421165",
      "version": 1,
      "size": 135,
      "vsize": 135,
      "weight": 540,
      "locktime": 0,
      "vin": [
        {
          "coinbase": "04ffff001d02e501",
          "sequence": 4294967295
        }
      ],
      "vout": [
        {
          "value": 50.0,
          "n": 0,
          "scriptPubKey": {
            "asm": "04a73d43823a00b4179b1047ba09e996c27d2713f8b88a5c30c542b4a64f4113bfe29edf21e0a5d86a63a4b854edb305c5f17a1db80f3ccf54cc7083128bbde0d7 OP_CHECKSIG",
            "desc": "pk(04a73d43823a00b4179b1047ba09e996c27d2713f8b88a5c30c542b4a64f4113bfe29edf21e0a5d86a63a4b854edb305c5f17a1db80f3ccf54cc7083128bbde0d7)#j6hznzl6",
            "hex": "4104a73d43823a00b4179b1047ba09e996c27d2713f8b88a5c30c542b4a64f4113bfe29edf21e0a5d86a63a4b854edb305c5f17a1db80f3ccf54cc7083128bbde0d7ac",
            "type": "pubkey"
          }
        }
      ],
      "hex": "01000000010000000000000000000000000000000000000000000000000000000000000000ffffffff0804ffff001d02e501ffffffff0100f2052a01000000434104a73d43823a00b4179b1047ba09e996c27d2713f8b88a5c30c542b4a64f4113bfe29edf21e0a5d86a63a4b854edb305c5f17a1db80f3ccf54cc7083128bbde0d7ac00000000"
    }
  ]
}