{
  "hash": "00000000c909f46277e6748d6f987d6d6b395f0b68cd7b4d50a2286a917fc365",
  "confirmations": 51801,
  "height": 1297,
  "version": 1,
  "versionHex": "00000001",
  "merkleroot": "dc93c035d0921550e35236c15e5907b4a7b7448a9a69a61f0eef7261d1016acf",
  "time": 1232587968,
  "mediantime": 1232568080,
  "nonce": 1519748910,
  "bits": "1d00ffff",
  "difficulty": 1,
  "chainwork": "0000000000000000000000000000000000000000000000000000051205120512",
  "nTx": 1,
  "previousblockhash": "000000009a4aed3e8ba7a978c6b50fea886fb496d66e696090a91d527200b002",
  "nextblockhash": "0000000098d3bdbb973ec3db8f5c017ae018110a2f95df5b8d621fedbe27d23d",
  "strippedsize": 216,
  "size": 216,
  "weight": 864,
  "tx": [
    {
      "txid": "dc93c035d0921550e35236c15e5907b4a7b7448a9a69a61f0eef7261d1016acf",
      "hash": "dc93c035d0921550e35236c15e5907b4a7b7448a9a69a61f0eef7261d1016acf",
      "version": 1,
      "size": 135,
      "vsize": 135,
      "weight": 540,
      "locktime": 0,
      "vin": [
        {
          "coinbase": "04ffff001d024902",
          "sequence": 4294967295
        }
      ],
      "vout": [
        {
          "value": 50.0,
          "n": 0,
          "scriptPubKey": {
            "asm": "0487d673b0611f4c81092507cd9849e5c19141f92e3ed35de5faa3271adefe1afb2dc9267c6770a9d1d3132d039bf8851ce6a6edd8a684d296086ae1eae2033f50 OP_CHECKSIG",
            "desc": "pk(0487d673b0611f4c81092507cd9849e5c19141f92e3ed35de5faa3271adefe1afb2dc9267c6770a9d1d3132d039bf8851ce6a6edd8a684d296086ae1eae2033f50)#m3ufxq57",
            "hex": "410487d673b0611f4c81092507cd9849e5c19141f92e3ed35de5faa3271adefe1afb2dc9267c6770a9d1d3132d039bf8851ce6a6edd8a684d296086ae1eae2033f50ac",
            "type": "pubkey"
          }
        }
      ],
      "hex": "01000000010000000000000000000000000000000000000000000000000000000000000000ffffffff0804ffff001d024902ffffffff0100f2052a0100000043410487d673b0611f4c81092507cd9849e5c19141f92e3ed35de5faa3271adefe1afb2dc9267c6770a9d1d3132d039bf8851ce6a6edd8a684d296086ae1eae2033f50ac00000000"
    }
  ]
}