{
  "hash": "000000009644cb78cc9e69845adb7bcb6840f5077f259854dda255f722576cc8",
  "confirmations": 45583,
  "height": 7515,
  "version": 1,
  "versionHex": "00000001",
  "merkleroot": "d91dce1e4d98009e699c01f530d82b5e600aab296ba89965a71d2a741963856c",
  "time": 1237106671,
  "mediantime": 1237103802,
  "nonce": 30719768,
  "bits": "1d00ffff",
  "difficulty": 1,
  "chainwork": "00000000000000000000000000000000000000000000000000001d5c1d5c1d5c",
  "nTx": 1,
  "previousblockhash": "00000000f40693b2d6f621092e62fe108d93893dce7589609e316b0288ca8e69",
  "nextblockhash": "00000000f60e812b7507868fc262a287ac319700056d56b54e41737604e2f6a3",
  "strippedsize": 216,
  "size": 216,
  "weight": 864,
  "tx": [
    {
      "txid": "d91dce1e4d98009e699c01f530d82b5e600aab296ba89965a71d2a741963856c",
      "hash": "d91dce1e4d98009e699c01f530d82b5e600aab296ba89965a71d2a741963856c",
      "version": 1,
      "size": 135,
      "vsize": 135,
      "weight": 540,
      "locktime": 0,
      "vin": [
        {
          "coinbase": "04ffff001d022d01",
          "sequence": 4294967295
        }
      ],
      "vout": [
        {
          "value": 50.0,
          "n": 0,
          "scriptPubKey": {
            "asm": "04c39377f977ac9474b5252ef7e223f32f69b5d68228bfe6705287df57c9f30944f638d672a62d68888ec0bbf1fa03098250f847b94935a870a89eb69442ff8902 OP_CHECKSIG",
            "desc": "pk(04c39377f977ac9474b5252ef7e223f32f69b5d68228bfe6705287df57c9f30944f638d672a62d68888ec0bbf1fa03098250f847b94935a870a89eb69442ff8902)#28qdqdyl",
            "hex": "4104c39377f977ac9474b5252ef7e223f32f69b5d68228bfe6705287df57c9f30944f638d672a62d68888ec0bbf1fa03098250f847b94935a870a89eb69442ff8902ac",
            "type": "pubkey"
          }
        }
      ],
      "hex": "01000000010000000000000000000000000000000000000000000000000000000000000000ffffffff0804ffff001d022d01ffffffff0100f2052a01000000434104c39377f977ac9474b5252ef7e223f32f69b5d68228bfe6705287df57c9f30944f638d672a62d68888ec0bbf1fa03098250f847b94935a870a89eb69442ff8902ac00000000"
    }
  ]
}