{
  "hash": "00000000e580752830a7430c1315dddc83628b48520a83147cfb5477b90267b1",
  "confirmations": 50180,
  "height": 2918,
  "version": 1,
  "versionHex": "00000001",
  "merkleroot": "4874312730bf8028afe804fd4c1dbc57dac5ad3d0f09bc0106c729b7547c0c16",
  "time": 1233704478,
  "mediantime": 1233701033,
  "nonce": 1428185093,
  "bits": "1d00ffff",
  "difficulty": 1,
  "chainwork": "00000000000000000000000000000000000000000000000000000b670b670b67",
  "nTx": 1,
  "previousblockhash": "000000004bd69da8c94e4bc1f5631a5f4891eba637cd84e48a31f61d53f9c383",
  "nextblockhash": "000000009ddb5beb6c28abf326ae872b111f3a9baeb1a8eea5a231caeaa3145d",
  "strippedsize": 216,
  "size": 216,
  "weight": 864,
  "tx": [
    {
      "txid": "4874312730bf8028afe804fd4c1dbc57dac5ad3d0f09bc0106c729b7547c0c16",
      "hash": "4874312730bf8028afe804fd4c1dbc57dac5ad3d0f09bc0106c729b7547c0c16",
      "version": 1,
      "size": 135,
      "vsize": 135,
      "weight": 540,
      "locktime": 0,
      "vin": [
        {
          "coinbase": "04ffff001d02a407",
          "sequence": 4294967295
        }
      ],
      "vout": [
        {
          "value": 50.0,
          "n": 0,
          "scriptPubKey": {
            "asm": "046a1c2c5d996f9f4de1ac67574969847f7e41a3b5d8d63745121546122fca11539009690e309c7d7eab4deca765faa06cc5437c90c11e9f0d20e37f7cd85f49a9 OP_CHECKSIG",
            "desc": "pk(046a1c2c5d996f9f4de1ac67574969847f7e41a3b5d8d63745121546122fca11539009690e309c7d7eab4deca765faa06cc5437c90c11e9f0d20e37f7cd85f49a9)#wn8fj694",
            "hex": "41046a1c2c5d996f9f4de1ac67574969847f7e41a3b5d8d63745121546122fca11539009690e309c7d7eab4deca765faa06cc5437c90c11e9f0d20e37f7cd85f49a9ac",
            "type": "pubkey"
          }
        }
      ],
      "hex": "01000000010000000000000000000000000000000000000000000000000000000000000000ffffffff0804ffff001d02a407ffffffff0100f2052a010000004341046a1c2c5d996f9f4de1ac67574969847f7e41a3b5d8d63745121546122fca11539009690e309c7d7eab4deca765faa06cc5437c90c11e9f0d20e37f7cd85f49a9ac00000000"
    }
  ]
}