{
  "hash": "000000007657ef084521cb7a3fcdaf5f883e558e4c04b06ff1a91b1dc71cc125",
  "confirmations": 44211,
  "height": 8887,
  "version": 1,
  "versionHex": "00000001",
  "merkleroot": "50e8108bf21644fcd44287367319d838fb7e67b22091abc2789ca86b7f8c9138",
  "time": 1238167953,
  "mediantime": 1238163166,
  "nonce": 1587374109,
  "bits": "1d00ffff",
  "difficulty": 1,
  "chainwork": "000000000000000000000000000000000000000000000000000022b822b822b8",
  "nTx": 1,
  "previousblockhash": "00000000f536d3ac9ccdc9a3535c83ae586413465bc97c35a2b2efb1d2d3abf4",
  "nextblockhash": "00000000483451d1afb0284fbd0873cc5a61989033604a668b45d5d0ad363071",
  "strippedsize": 216,
  "size": 216,
  "weight": 864,
  "tx": [
    {
      "txid": "50e8108bf21644fcd44287367319d838fb7e67b22091abc2789ca86b7f8c9138",
      "hash": "50e8108bf21644fcd44287367319d838fb7e67b22091abc2789ca86b7f8c9138",
      "version": 1,
      "size": 135,
      "vsize": 135,
      "weight": 540,
      "locktime": 0,
      "vin": [
        {
          "coinbase": "04ffff001d023f04",
          "sequence": 4294967295
        }
      ],
      "vout": [
        {
          "value": 50.0,
          "n": 0,
          "scriptPubKey": {
            "asm": "042fbdd9f3005ce2865e198934e4b0919281b23a0d44d53929d72c89fdbde5f401b5142d298e6f0f5d7048b8b04df25627766bfd1140cc9fd4e0e6fbf8ce27a326 OP_CHECKSIG",
            "desc": "pk(042fbdd9f3005ce2865e198934e4b0919281b23a0d44d53929d72c89fdbde5f401b5142d298e6f0f5d7048b8b04df25627766bfd1140cc9fd4e0e6fbf8ce27a326)#ln8junyu",
            "hex": "41042fbdd9f3005ce2865e198934e4b0919281b23a0d44d53929d72c89fdbde5f401b5142d298e6f0f5d7048b8b04df25627766bfd1140cc9fd4e0e6fbf8ce27a326ac",
            "type": "pubkey"
          }
        }
      ],
      "hex": "01000000010000000000000000000000000000000000000000000000000000000000000000ffffffff0804ffff001d023f04ffffffff0100f2052a010000004341042fbdd9f3005ce2865e198934e4b0919281b23a0d44d53929d72c89fdbde5f401b5142d298e6f0f5d7048b8b04df25627766bfd1140cc9fd4e0e6fbf8ce27a326ac00000000"
    }
  ]
}