{
  "hash": "0000000063002096e3041921690a8f46a8e41da52f372872a855264e48cb3935",
  "confirmations": 50304,
  "height": 2794,
  "version": 1,
  "versionHex": "00000001",
  "merkleroot": "964da2354cca413f81806331914d7ea845475338753c9dd58f2347a5ae46ed58",
  "time": 1233625675,
  "mediantime": 1233622094,
  "nonce": 76406192,
  "bits": "1d00ffff",
  "difficulty": 1,
  "chainwork": "00000000000000000000000000000000000000000000000000000aeb0aeb0aeb",
  "nTx": 1,
  "previousblockhash": "00000000fade95f148d84e52cdd2848facf7e54c69f92b2f9ec59d6830896687",
  "nextblockhash": "00000000e1a5b93a6243f30f23805eb66d14ac674e6fce9674329c6ac713b8c1",
  "strippedsize": 216,
  "size": 216,
  "weight": 864,
  "tx": [
    {
      "txid": "964da2354cca413f81806331914d7ea845475338753c9dd58f2347a5ae46ed58",
      "hash": "964da2354cca413f81806331914d7ea845475338753c9dd58f2347a5ae46ed58",
      "version": 1,
      "size": 135,
      "vsize": 135,
      "weight": 540,
      "locktime": 0,
      "vin": [
        {
          "coinbase": "04ffff001d026603",
          "sequence": 4294967295
        }
      ],
      "vout": [
        {
          "value": 50.0,
          "n": 0,
          "scriptPubKey": {
            "asm": "04902ffe1643bf805e0fa900a26c197714e13278fdf16b7e3f77922df45c604f48c2f879d366e51dd2069f6243fa96ff57e2ba6e0a5a574031fca536db32f9a856 OP_CHECKSIG",
            "desc": "pk(04902ffe1643bf805e0fa900a26c197714e13278fdf16b7e3f77922df45c604f48c2f879d366e51dd2069f6243fa96ff57e2ba6e0a5a574031fca536db32f9a856)#gy42llyn",
            "hex": "4104902ffe1643bf805e0fa900a26c197714e13278fdf16b7e3f77922df45c604f48c2f879d366e51dd2069f6243fa96ff57e2ba6e0a5a574031fca536db32f9a856ac",
            "type": "pubkey"
          }
        }
      ],
      "hex": "01000000010000000000000000000000000000000000000000000000000000000000000000ffffffff0804ffff001d026603ffffffff0100f2052a01000000434104902ffe1643bf805e0fa900a26c197714e13278fdf16b7e3f77922df45c604f48c2f879d366e51dd2069f6243fa96ff57e2ba6e0a5a574031fca536db32f9a856ac00000000"
    }
  ]
}