{
  "hash": "0000000089a541c099f81f3cb7d6328e737f68f52b9d58593897709f11c90db2",
  "confirmations": 43372,
  "height": 9726,
  "version": 1,
  "versionHex": "00000001",
  "merkleroot": "e7a79dee434837821732f8c50c1bc14b7450d3b9a0164c0d96cb7d7761d9f90d",
  "time": 1238798321,
  "mediantime": 1238794784,
  "nonce": 2081414176,
  "bits": "1d00ffff",
  "difficulty": 1,
  "chainwork": "000000000000000000000000000000000000000000000000000025ff25ff25ff",
  "nTx": 1,
  "previousblockhash": "000000002369d415ec177c27ffb68f8996b3d973f87fa9f7d44a88d47dd96d62",
  "nextblockhash": "00000000a0d6037de3246522df44099aeb5d9bdc34906ac1a7654f1485c88425",
  "strippedsize": 216,
  "size": 216,
  "weight": 864,
  "tx": [
    {
      "txid": "e7a79dee434837821732f8c50c1bc14b7450d3b9a0164c0d96cb7d7761d9f90d",
      "hash": "e7a79dee434837821732f8c50c1bc14b7450d3b9a0164c0d96cb7d7761d9f90d",
      "version": 1,
      "size": 135,
      "vsize": 135,
      "weight": 540,
      "locktime": 0,
      "vin": [
        {
          "coinbase": "04ffff001d02fa08",
          "sequence": 4294967295
        }
      ],
      "vout": [
        {
          "value": 50.0,
          "n": 0,
          "scriptPubKey": {
            "asm": "0417085a1158346398370205f521fa6f951d95589f29c67e017f9cc247452598c449b706ee7c0c13dcb325a2a9cae20606fa6831794a6d4563fd4bc1a45847d285 OP_CHECKSIG",
            "desc": "pk(0417085a1158346398370205f521fa6f951d95589f29c67e017f9cc247452598c449b706ee7c0c13dcb325a2a9cae20606fa6831794a6d4563fd4bc1a45847d285)#gfyl83wm",
            "hex": "410417085a1158346398370205f521fa6f951d95589f29c67e017f9cc247452598c449b706ee7c0c13dcb325a2a9cae20606fa6831794a6d4563fd4bc1a45847d285ac",
            "type": "pubkey"
          }
        }
      ],
      "hex": "01000000010000000000000000000000000000000000000000000000000000000000000000ffffffff0804ffff001d02fa08ffffffff0100f2052a0100000043410417085a1158346398370205f521fa6f951d95589f29c67e017f9cc247452598c449b706ee7c0c13dcb325a2a9cae20606fa6831794a6d4563fd4bc1a45847d285ac00000000"
    }
  ]
}