{
  "hash": "00000000cd2ae5e37f774026a30f6880fb5de6e73f0c6f27cb0e119e607e4b6d",
  "confirmations": 51037,
  "height": 2061,
  "version": 1,
  "versionHex": "00000001",
  "merkleroot": "f1b2af1df558ec0f7047c05b6502be3d7c8bfe01fee111d592b34874ff9ae05d",
  "time": 1233106479,
  "mediantime": 1233101195,
  "nonce": 2814959387,
  "bits": "1d00ffff",
  "difficulty": 1,
  "chainwork": "0000000000000000000000000000000000000000000000000000080e080e080e",
  "nTx": 1,
  "previousblockhash": "000000005a2d6394da35269c09425f59f4d76c5b486b2d6b617f30bbd4fb79dd",
  "nextblockhash": "00000000d34199387862c42561031f5b25cc35bb9895e53dd07e30508748ced8",
  "strippedsize": 216,
  "size": 216,
  "weight": 864,
  "tx": [
    {
      "txid": "f1b2af1df558ec0f7047c05b6502be3d7c8bfe01fee111d592b34874ff9ae05d",
      "hash": "f1b2af1df558ec0f7047c05b6502be3d7c8bfe01fee111d592b34874ff9ae05d",
      "version": 1,
      "size": 135,
      "vsize": 135,
      "weight": 540,
      "locktime": 0,
      "vin": [
        {
          "coinbase": "04ffff001d020103",
          "sequence": 4294967295
        }
      ],
      "vout": [
        {
          "value": 50.0,
          "n": 0,
          "scriptPubKey": {
            "asm": "04eeaff84f7cf88200fa73bbc6b74c45d12eb6d1d0c98996762a87b43f73533455df65b085a1daa11f2797c7da954879baa7be93e5141898a65b5b2ee9bcc3fd52 OP_CHECKSIG",
            "desc": "pk(04eeaff84f7cf88200fa73bbc6b74c45d12eb6d1d0c98996762a87b43f73533455df65b085a1daa11f2797c7da954879baa7be93e5141898a65b5b2ee9bcc3fd52)#rqjncluh",
            "hex": "4104eeaff84f7cf88200fa73bbc6b74c45d12eb6d1d0c98996762a87b43f73533455df65b085a1daa11f2797c7da954879baa7be93e5141898a65b5b2ee9bcc3fd52ac",
            "type": "pubkey"
          }
        }
      ],
      "hex": "01000000010000000000000000000000000000000000000000000000000000000000000000ffffffff0804ffff001d020103ffffffff0100f2052a01000000434104eeaff84f7cf88200fa73bbc6b74c45d12eb6d1d0c98996762a87b43f73533455df65b085a1daa11f2797c7da954879baa7be93e5141898a65b5b2ee9bcc3fd52ac00000000"
    }
  ]
}