{
  "hash": "0000000032a60fb0d87555f1db86bf6b12f329e7f1e110b1031cc12c44a57db9",
  "confirmations": 44678,
  "height": 8420,
  "version": 1,
  "versionHex": "00000001",
  "merkleroot": "eb19af1f900e1ca638d71d6eeaab18b2204de87d54f53c0d351e7ffff9354105",
  "time": 1237812180,
  "mediantime": 1237810435,
  "nonce": 3205381689,
  "bits": "1d00ffff",
  "difficulty": 1,
  "chainwork": "000000000000000000000000000000000000000000000000000020e520e520e5",
  "nTx": 1,
  "previousblockhash": "000000002e96d6922386ad02d993fdb358d898b5e71b73cd01b156616e939f20",
  "nextblockhash": "0000000041101a83edf8d860eda4018fe99716f09b37f3206899cfecde8ab0ec",
  "strippedsize": 216,
  "size": 216,
  "weight": 864,
  "tx": [
    {
      "txid": "eb19af1f900e1ca638d71d6eeaab18b2204de87d54f53c0d351e7ffff9354105",
      "hash": "eb19af1f900e1ca638d71d6eeaab18b2204de87d54f53c0d351e7ffff9354105",
      "version": 1,
      "size": 135,
      "vsize": 135,
      "weight": 540,
      "locktime": 0,
      "vin": [
        {
          "coinbase": "04ffff001d025d06",
          "sequence": 4294967295
        }
      ],
      "vout": [
        {
          "value": 50.0,
          "n": 0,
          "scriptPubKey": {
            "asm": "04d27a285abbf19c9eec3692d97e8a7a9c69c49121002fe4a0900a12ab5c8e88c17ef3eb87f934d3c115a87ee70dcbd24148d867225c3bf0df7549f380e42f8e33 OP_CHECKSIG",
            "desc": "pk(04d27a285abbf19c9eec3692d97e8a7a9c69c49121002fe4a0900a12ab5c8e88c17ef3eb87f934d3c115a87ee70dcbd24148d867225c3bf0df7549f380e42f8e33)#pv0nk2ku",
            "hex": "4104d27a285abbf19c9eec3692d97e8a7a9c69c49121002fe4a0900a12ab5c8e88c17ef3eb87f934d3c115a87ee70dcbd24148d867225c3bf0df7549f380e42f8e33ac",
            "type": "pubkey"
          }
        }
      ],
      "hex": "01000000010000000000000000000000000000000000000000000000000000000000000000ffffffff0804ffff001d025d06ffffffff0100f2052a01000000434104d27a285abbf19c9eec3692d97e8a7a9c69c49121002fe4a0900a12ab5c8e88c17ef3eb87f934d3c115a87ee70dcbd24148d867225c3bf0df7549f380e42f8e33ac00000000"
    }
  ]
}