{
  "hash": "00000000f1901f4e95b25791a73dbf3979d2fa3f677d43c71706eb9c451f0836",
  "confirmations": 51784,
  "height": 1314,
  "version": 1,
  "versionHex": "00000001",
  "merkleroot": "57e7e0131555bb79bd5d32322e5079cf3faf202f0b80adaf16a2afa8ec23ccd6",
  "time": 1232607419,
  "mediantime": 1232602728,
  "nonce": 3381877546,
  "bits": "1d00ffff",
  "difficulty": 1,
  "chainwork": "0000000000000000000000000000000000000000000000000000052305230523",
  "nTx": 1,
  "previousblockhash": "00000000b1686525e1ad4669ee2cb8fd28d375af983853727a80015778df47b5",
  "nextblockhash": "000000004a7b4643e2233a4494c8b08c099ea0c47e058f226ceead8c74402f6e",
  "strippedsize": 215,
  "size": 215,
  "weight": 860,
  "tx": [
    {
      "txid": "57e7e0131555bb79bd5d32322e5079cf3faf202f0b80adaf16a2afa8ec23ccd6",
      "hash": "57e7e0131555bb79bd5d32322e5079cf3faf202f0b80adaf16a2afa8ec23ccd6",
      "version": 1,
      "size": 134,
      "vsize": 134,
      "weight": 536,
      "locktime": 0,
      "vin": [
        {
          "coinbase": "04ffff001d015c",
          "sequence": 4294967295
        }
      ],
      "vout": [
        {
          "value": 50.0,
          "n": 0,
          "scriptPubKey": {
            "asm": "04923fb71a034fbab68d78046283e379011752b311c0af863a037d256d569cf83c0a813b3d137e362df27408978e9e3f3a9e93a3c77f3402eb9a69351806595501 OP_CHECKSIG",
            "desc": "pk(04923fb71a034fbab68d78046283e379011752b311c0af863a037d256d569cf83c0a813b3d137e362df27408978e9e3f3a9e93a3c77f3402eb9a69351806595501)#ynkdw9k9",
            "hex": "4104923fb71a034fbab68d78046283e379011752b311c0af863a037d256d569cf83c0a813b3d137e362df27408978e9e3f3a9e93a3c77f3402eb9a69351806595501ac",
            "type": "pubkey"
          }
        }
      ],
      "hex": "01000000010000000000000000000000000000000000000000000000000000000000000000ffffffff0704ffff001d015cffffffff0100f2052a01000000434104923fb71a034fbab68d78046283e379011752b311c0af863a037d256d569cf83c0a813b3d137e362df27408978e9e3f3a9e93a3c77f3402eb9a69351806595501ac00000000"
    }
  ]
}