{
  "hash": "00000000780a852aa74c8ecf8efa643f89b5a4bceebc667077fead3d7068870a",
  "confirmations": 48170,
  "height": 4928,
  "version": 1,
  "versionHex": "00000001",
  "merkleroot": "8a5729f172880a9f38cca6b7086a5e951e1474926762674fb3ef0f5d5466712a",
  "time": 1235089204,
  "mediantime": 1235085517,
  "nonce": 1618849301,
  "bits": "1d00ffff",
  "difficulty": 1,
  "chainwork": "0000000000000000000000000000000000000000000000000000134113411341",
  "nTx": 1,
  "previousblockhash": "000000000c9a17ee88c2f75e0327150ef799177df050d55d12ba4bfb536b83b3",
  "nextblockhash": "00000000a0fa43da5b739b04bf5b561acab1e19617d28b334853101f59e0fc90",
  "strippedsize": 216,
  "size": 216,
  "weight": 864,
  "tx": [
    {
      "txid": "8a5729f172880a9f38cca6b7086a5e951e1474926762674fb3ef0f5d5466712a",
      "hash": "8a5729f172880a9f38cca6b7086a5e951e1474926762674fb3ef0f5d5466712a",
      "version": 1,
      "size": 135,
      "vsize": 135,
      "weight": 540,
      "locktime": 0,
      "vin": [
        {
          "coinbase": "04ffff001d021a06",
          "sequence": 4294967295
        }
      ],
      "vout": [
        {
          "value": 50.0,
          "n": 0,
          "scriptPubKey": {
            "asm": "04b0b5b3b563d24e64df274b6ca4df76c137fbcf232708964d330255a2af4fd492b37304c0dcd0796a61fb3d412f248952b704cda74b49923ec8ae58530f578042 OP_CHECKSIG",
            "desc": "pk(04b0b5b3b563d24e64df274b6ca4df76c137fbcf232708964d330255a2af4fd492b37304c0dcd0796a61fb3d412f248952b704cda74b49923ec8ae58530f578042)#73cr0wzy",
            "hex": "4104b0b5b3b563d24e64df274b6ca4df76c137fbcf232708964d330255a2af4fd492b37304c0dcd0796a61fb3d412f248952b704cda74b49923ec8ae58530f578042ac",
            "type": "pubkey"
          }
        }
      ],
      "hex": "01000000010000000000000000000000000000000000000000000000000000000000000000ffffffff0804ffff001d021a06ffffffff0100f2052a01000000434104b0b5b3b563d24e64df274b6ca4df76c137fbcf232708964d330255a2af4fd492b37304c0dcd0796a61fb3d412f248952b704cda74b49923ec8ae58530f578042ac00000000"
    }
  ]
}