{
  "hash": "00000000846e60060baaaf0d930c2738f287534f72d5b6cd4e9ef888da7652cf",
  "confirmations": 46984,
  "height": 6114,
  "version": 1,
  "versionHex": "00000001",
  "merkleroot": "bea2d7683f3cacf14714462fcd943f554089929be6316bbb1c531a58b8f97827",
  "time": 1236020073,
  "mediantime": 1236016102,
  "nonce": 3091392298,
  "bits": "1d00ffff",
  "difficulty": 1,
  "chainwork": "000000000000000000000000000000000000000000000000000017e317e317e3",
  "nTx": 1,
  "previousblockhash": "000000000bc1098aa151e3f9666914be2db86f9f1b6372f20a8013a2ef587934",
  "nextblockhash": "00000000e40fa013d2e89b45429011303ad6c3f85e44a6e3ddee314c78b00474",
  "strippedsize": 216,
  "size": 216,
  "weight": 864,
  "tx": [
    {
      "txid": "bea2d7683f3cacf14714462fcd943f554089929be6316bbb1c531a58b8f97827",
      "hash": "bea2d7683f3cacf14714462fcd943f554089929be6316bbb1c531a58b8f97827",
      "version": 1,
      "size": 135,
      "vsize": 135,
      "weight": 540,
      "locktime": 0,
      "vin": [
        {
          "coinbase": "04ffff001d020707",
          "sequence": 4294967295
        }
      ],
      "vout": [
        {
          "value": 50.0,
          "n": 0,
          "scriptPubKey": {
            "asm": "047c12837f5edc7d0e5f87983c26fa181655b7cad7822acdb55caf4d09c727a075a83779385a218958b808ed45e599084c41fe89265ef57d06c04385ee352d7bfd OP_CHECKSIG",
            "desc": "pk(047c12837f5edc7d0e5f87983c26fa181655b7cad7822acdb55caf4d09c727a075a83779385a218958b808ed45e599084c41fe89265ef57d06c04385ee352d7bfd)#065gt4ca",
            "hex": "41047c12837f5edc7d0e5f87983c26fa181655b7cad7822acdb55caf4d09c727a075a83779385a218958b808ed45e599084c41fe89265ef57d06c04385ee352d7bfdac",
            "type": "pubkey"
          }
        }
      ],
      "hex": "01000000010000000000000000000000000000000000000000000000000000000000000000ffffffff0804ffff001d020707ffffffff0100f2052a010000004341047c12837f5edc7d0e5f87983c26fa181655b7cad7822acdb55caf4d09c727a075a83779385a218958b808ed45e599084c41fe89265ef57d06c04385ee352d7bfdac00000000"
    }
  ]
}