{
  "hash": "00000000e922b6c5216260f29c6590f7d733aa47559a9b5a7694e1b7c1328c50",
  "confirmations": 51375,
  "height": 1723,
  "version": 1,
  "versionHex": "00000001",
  "merkleroot": "4eff4e94023def90901385eaa92e99e0bddcf5f63d81af121916541c67ef1304",
  "time": 1232861562,
  "mediantime": 1232859938,
  "nonce": 397091363,
  "bits": "1d00ffff",
  "difficulty": 1,
  "chainwork": "000000000000000000000000000000000000000000000000000006bc06bc06bc",
  "nTx": 1,
  "previousblockhash": "000000009d2c5c3da2b431430c224e45d6f8ae9f99f883530749328503569fc9",
  "nextblockhash": "000000003170c52b94e104635c06b2ce9368af7380b25cd44395f00b3295b9aa",
  "strippedsize": 216,
  "size": 216,
  "weight": 864,
  "tx": [
    {
      "txid": "4eff4e94023def90901385eaa92e99e0bddcf5f63d81af121916541c67ef1304",
      "hash": "4eff4e94023def90901385eaa92e99e0bddcf5f63d81af121916541c67ef1304",
      "version": 1,
      "size": 135,
      "vsize": 135,
      "weight": 540,
      "locktime": 0,
      "vin": [
        {
          "coinbase": "04ffff001d025303",
          "sequence": 4294967295
        }
      ],
      "vout": [
        {
          "value": 50.0,
          "n": 0,
          "scriptPubKey": {
            "asm": "04588d502571dcaa423d54531334f655bbcc8f71c409f8a24fddda17c5c70bef5ee14220be18398dba43f7311eca1676b2b0fd547f3e7ae2d981e111fe35f41e40 OP_CHECKSIG",
            "desc": "pk(04588d502571dcaa423d54531334f655bbcc8f71c409f8a24fddda17c5c70bef5ee14220be18398dba43f7311eca1676b2b0fd547f3e7ae2d981e111fe35f41e40)#a2usw7tm",
            "hex": "4104588d502571dcaa423d54531334f655bbcc8f71c409f8a24fddda17c5c70bef5ee14220be18398dba43f7311eca1676b2b0fd547f3e7ae2d981e111fe35f41e40ac",
            "type": "pubkey"
          }
        }
      ],
      "hex": "01000000010000000000000000000000000000000000000000000000000000000000000000ffffffff0804ffff001d025303ffffffff0100f2052a01000000434104588d502571dcaa423d54531334f655bbcc8f71c409f8a24fddda17c5c70bef5ee14220be18398dba43f7311eca1676b2b0fd547f3e7ae2d981e111fe35f41e40ac00000000"
    }
  ]
}