{
  "hash": "000000005b3b88b319812d3b189e398e206567f518dd0e3cea34c43b7bf2d710",
  "confirmations": 47720,
  "height": 5378,
  "version": 1,
  "versionHex": "00000001",
  "merkleroot": "61a6758b177d8d534499e5fb1d1785faa9e50e9ee854829dc980f3b82f18739d",
  "time": 1235423094,
  "mediantime": 1235418407,
  "nonce": 3868487455,
  "bits": "1d00ffff",
  "difficulty": 1,
  "chainwork": "0000000000000000000000000000000000000000000000000000150315031503",
  "nTx": 1,
  "previousblockhash": "0000000072decba8d531c499f60ba06e5a1f652bd27acce716c421770d8e1717",
  "nextblockhash": "0000000066980737855bff84002f94764abd800b953dd81f2ebe90a6ff5c0aef",
  "strippedsize": 216,
  "size": 216,
  "weight": 864,
  "tx": [
    {
      "txid": "61a6758b177d8d534499e5fb1d1785faa9e50e9ee854829dc980f3b82f18739d",
      "hash": "61a6758b177d8d534499e5fb1d1785faa9e50e9ee854829dc980f3b82f18739d",
      "version": 1,
      "size": 135,
      "vsize": 135,
      "weight": 540,
      "locktime": 0,
      "vin": [
        {
          "coinbase": "04ffff001d024f03",
          "sequence": 4294967295
        }
      ],
      "vout": [
        {
          "value": 50.0,
          "n": 0,
          "scriptPubKey": {
            "asm": "049c7ca20fc6908140a4ae0a0feeb70c4229e3b9d30b2d38dc8cde5316c8b8cb6b385d9e06d0132200c152a5a10291e21bd4f3279d168e929254fb90c822e4d4c7 OP_CHECKSIG",
            "desc": "pk(049c7ca20fc6908140a4ae0a0feeb70c4229e3b9d30b2d38dc8cde5316c8b8cb6b385d9e06d0132200c152a5a10291e21bd4f3279d168e929254fb90c822e4d4c7)#w4e37tpv",
            "hex": "41049c7ca20fc6908140a4ae0a0feeb70c4229e3b9d30b2d38dc8cde5316c8b8cb6b385d9e06d0132200c152a5a10291e21bd4f3279d168e929254fb90c822e4d4c7ac",
            "type": "pubkey"
          }
        }
      ],
      "hex": "01000000010000000000000000000000000000000000000000000000000000000000000000ffffffff0804ffff001d024f03ffffffff0100f2052a010000004341049c7ca20fc6908140a4ae0a0feeb70c4229e3b9d30b2d38dc8cde5316c8b8cb6b385d9e06d0132200c152a5a10291e21bd4f3279d168e929254fb90c822e4d4c7ac00000000"
    }
  ]
}