{
  "hash": "00000000db88fbddddbdef6505773dda759254a24c0666f126c5c7c1afdc072e",
  "confirmations": 49966,
  "height": 3132,
  "version": 1,
  "versionHex": "00000001",
  "merkleroot": "9b1cbaaf189e66e3f3ab39b9fdb32a31515880d6feb1fe3d8eb9cae3b76df67a",
  "time": 1233856444,
  "mediantime": 1233852159,
  "nonce": 124958527,
  "bits": "1d00ffff",
  "difficulty": 1,
  "chainwork": "00000000000000000000000000000000000000000000000000000c3d0c3d0c3d",
  "nTx": 1,
  "previousblockhash": "000000003b4f4c304e80a5fbdbaf200ae4a910bd5432aae07ea0cf45e03b76a3",
  "nextblockhash": "00000000c7d607d0e612e4c1328d8912055b561a448a580d83afa9ca01ad5239",
  "strippedsize": 216,
  "size": 216,
  "weight": 864,
  "tx": [
    {
      "txid": "9b1cbaaf189e66e3f3ab39b9fdb32a31515880d6feb1fe3d8eb9cae3b76df67a",
      "hash": "9b1cbaaf189e66e3f3ab39b9fdb32a31515880d6feb1fe3d8eb9cae3b76df67a",
      "version": 1,
      "size": 135,
      "vsize": 135,
      "weight": 540,
      "locktime": 0,
      "vin": [
        {
          "coinbase": "04ffff001d025202",
          "sequence": 4294967295
        }
      ],
      "vout": [
        {
          "value": 50.0,
          "n": 0,
          "scriptPubKey": {
            "asm": "04e08da958571a2731be87663447a8714ece422626ccc34f91ea5eec2a38ac287caed69abe97d264e8689ecb6a682e6319d5f6f3bf116390c676e76156e2ba5f38 OP_CHECKSIG",
            "desc": "pk(04e08da958571a2731be87663447a8714ece422626ccc34f91ea5eec2a38ac287caed69abe97d264e8689ecb6a682e6319d5f6f3bf116390c676e76156e2ba5f38)#5cym25w8",
            "hex": "4104e08da958571a2731be87663447a8714ece422626ccc34f91ea5eec2a38ac287caed69abe97d264e8689ecb6a682e6319d5f6f3bf116390c676e76156e2ba5f38ac",
            "type": "pubkey"
          }
        }
      ],
      "hex": "01000000010000000000000000000000000000000000000000000000000000000000000000ffffffff0804ffff001d025202ffffffff0100f2052a01000000434104e08da958571a2731be87663447a8714ece422626ccc34f91ea5eec2a38ac287caed69abe97d264e8689ecb6a682e6319d5f6f3bf116390c676e76156e2ba5f38ac00000000"
    }
  ]
}