{
  "hash": "00000000e233f8e7006ab1269ce3f6726f81eda73b86e0e9d67662166a3280b2",
  "confirmations": 48245,
  "height": 4853,
  "version": 1,
  "versionHex": "00000001",
  "merkleroot": "40827daa79343c4090b19cfa38ea4d277aa456e14e95a2fb1ab8ce9b583357ec",
  "time": 1235039018,
  "mediantime": 1235036748,
  "nonce": 1728650539,
  "bits": "1d00ffff",
  "difficulty": 1,
  "chainwork": "000000000000000000000000000000000000000000000000000012f612f612f6",
  "nTx": 1,
  "previousblockhash": "0000000052cc05409e3d653f1d8ec284e7c5b4283851310cbdfc604e313f9cdb",
  "nextblockhash": "000000001752b2542957c901d683b12cd966372f4f3d576eeada4ceaea6f057f",
  "strippedsize": 216,
  "size": 216,
  "weight": 864,
  "tx": [
    {
      "txid": "40827daa79343c4090b19cfa38ea4d277aa456e14e95a2fb1ab8ce9b583357ec",
      "hash": "40827daa79343c4090b19cfa38ea4d277aa456e14e95a2fb1ab8ce9b583357ec",
      "version": 1,
      "size": 135,
      "vsize": 135,
      "weight": 540,
      "locktime": 0,
      "vin": [
        {
          "coinbase": "04ffff001d021d05",
          "sequence": 4294967295
        }
      ],
      "vout": [
        {
          "value": 50.0,
          "n": 0,
          "scriptPubKey": {
            "asm": "042a64493925005d87273fc67b2398ed52ea463b96db956950d7eed17f802028fc6d655127ffe9c734bc98366465912ad75170dd61ecc99e7149af6348e8ed0f93 OP_CHECKSIG",
            "desc": "pk(042a64493925005d87273fc67b2398ed52ea463b96db956950d7eed17f802028fc6d655127ffe9c734bc98366465912ad75170dd61ecc99e7149af6348e8ed0f93)#6t2yp6jd",
            "hex": "41042a64493925005d87273fc67b2398ed52ea463b96db956950d7eed17f802028fc6d655127ffe9c734bc98366465912ad75170dd61ecc99e7149af6348e8ed0f93ac",
            "type": "pubkey"
          }
        }
      ],
      "hex": "01000000010000000000000000000000000000000000000000000000000000000000000000ffffffff0804ffff001d021d05ffffffff0100f2052a010000004341042a64493925005d87273fc67b2398ed52ea463b96db956950d7eed17f802028fc6d655127ffe9c734bc98366465912ad75170dd61ecc99e7149af6348e8ed0f93ac00000000"
    }
  ]
}