{
  "hash": "00000000aea67f6e8f83a643ddd9ec2b7793a8472bf5bc9a41626edd08e51160",
  "confirmations": 52027,
  "height": 1071,
  "version": 1,
  "versionHex": "00000001",
  "merkleroot": "7baa3d31e80ebfa2aaa75ad67604034b6321b86fe7ee8f048d4c2e20f00789a5",
  "time": 1232402234,
  "mediantime": 1232398573,
  "nonce": 1985228297,
  "bits": "1d00ffff",
  "difficulty": 1,
  "chainwork": "0000000000000000000000000000000000000000000000000000043004300430",
  "nTx": 1,
  "previousblockhash": "000000002eee7842ec8bd6950e8173bcc056509423a9154b504a5b37e0a1d657",
  "nextblockhash": "00000000e6096f3db08fb6e0d3d92f102226edded2754c9e3aceef1b366dbdd5",
  "strippedsize": 216,
  "size": 216,
  "weight": 864,
  "tx": [
    {
      "txid": "7baa3d31e80ebfa2aaa75ad67604034b6321b86fe7ee8f048d4c2e20f00789a5",
      "hash": "7baa3d31e80ebfa2aaa75ad67604034b6321b86fe7ee8f048d4c2e20f00789a5",
      "version": 1,
      "size": 135,
      "vsize": 135,
      "weight": 540,
      "locktime": 0,
      "vin": [
        {
          "coinbase": "04ffff001d026406",
          "sequence": 4294967295
        }
      ],
      "vout": [
        {
          "value": 50.0,
          "n": 0,
          "scriptPubKey": {
            "asm": "04a9eb539b788526ba93fb15a17c81449097e77262640d81e4d4892255edca3f4973eebe52fe78b6140039f4e0f276e25b6bcc9085cbc2c2d92edde9d0955cdb29 OP_CHECKSIG",
            "desc": "pk(04a9eb539b788526ba93fb15a17c81449097e77262640d81e4d4892255edca3f4973eebe52fe78b6140039f4e0f276e25b6bcc9085cbc2c2d92edde9d0955cdb29)#7uv69k8v",
            "hex": "4104a9eb539b788526ba93fb15a17c81449097e77262640d81e4d4892255edca3f4973eebe52fe78b6140039f4e0f276e25b6bcc9085cbc2c2d92edde9d0955cdb29ac",
            "type": "pubkey"
          }
        }
      ],
      "hex": "01000000010000000000000000000000000000000000000000000000000000000000000000ffffffff0804ffff001d026406ffffffff0100f2052a01000000434104a9eb539b788526ba93fb15a17c81449097e77262640d81e4d4892255edca3f4973eebe52fe78b6140039f4e0f276e25b6bcc9085cbc2c2d92edde9d0955cdb29ac00000000"
    }
  ]
}