{
  "hash": "000000000ac3ed525cab5b76f0858fe59d0677b7e99933406903d18cc0a86899",
  "confirmations": 43500,
  "height": 9598,
  "version": 1,
  "versionHex": "00000001",
  "merkleroot": "f4eca53d8921b8c4c86a637d3966a803e76ba354f42ba8e37ad1dba899ad3314",
  "time": 1238698983,
  "mediantime": 1238695894,
  "nonce": 1414962734,
  "bits": "1d00ffff",
  "difficulty": 1,
  "chainwork": "0000000000000000000000000000000000000000000000000000257f257f257f",
  "nTx": 1,
  "previousblockhash": "00000000f8ad031b16ce8173faab150fdc34e16ac6516ab5229ae07f0f76ffed",
  "nextblockhash": "00000000ebf49c30f01d0508174e84dd9b9fabe8a518ec316eb538d834cfdf00",
  "strippedsize": 216,
  "size": 216,
  "weight": 864,
  "tx": [
    {
      "txid": "f4eca53d8921b8c4c86a637d3966a803e76ba354f42ba8e37ad1dba899ad3314",
      "hash": "f4eca53d8921b8c4c86a637d3966a803e76ba354f42ba8e37ad1dba899ad3314",
      "version": 1,
      "size": 135,
      "vsize": 135,
      "weight": 540,
      "locktime": 0,
      "vin": [
        {
          "coinbase": "04ffff001d020c07",
          "sequence": 4294967295
        }
      ],
      "vout": [
        {
          "value": 50.0,
          "n": 0,
          "scriptPubKey": {
            "asm": "04171d68a0c7a1843a7457a83381a139cbe356073a7aaaee877bd7c0a13c9d9e9298fbfe75e12eb56d28293d63f1f747f9a918acbafe9178fbf184dbd7e6960f49 OP_CHECKSIG",
            "desc": "pk(04171d68a0c7a1843a7457a83381a139cbe356073a7aaaee877bd7c0a13c9d9e9298fbfe75e12eb56d28293d63f1f747f9a918acbafe9178fbf184dbd7e6960f49)#tk6au4py",
            "hex": "4104171d68a0c7a1843a7457a83381a139cbe356073a7aaaee877bd7c0a13c9d9e9298fbfe75e12eb56d28293d63f1f747f9a918acbafe9178fbf184dbd7e6960f49ac",
            "type": "pubkey"
          }
        }
      ],
      "hex": "01000000010000000000000000000000000000000000000000000000000000000000000000ffffffff0804ffff001d020c07ffffffff0100f2052a01000000434104171d68a0c7a1843a7457a83381a139cbe356073a7aaaee877bd7c0a13c9d9e9298fbfe75e12eb56d28293d63f1f747f9a918acbafe9178fbf184dbd7e6960f49ac00000000"
    }
  ]
}