{
  "hash": "0000000098d20ec1ed1fce48c5e055835c0fd2d259dac022254ae8d43e0ac5b5",
  "confirmations": 52011,
  "height": 1087,
  "version": 1,
  "versionHex": "00000001",
  "merkleroot": "9c5a776f7e64eab1a61ccf1b6b5b0f0108dd27f4644d9aeae134a7ccf77c1a95",
  "time": 1232414993,
  "mediantime": 1232410784,
  "nonce": 4233849859,
  "bits": "1d00ffff",
  "difficulty": 1,
  "chainwork": "0000000000000000000000000000000000000000000000000000044004400440",
  "nTx": 1,
  "previousblockhash": "00000000db56d479773fce0c561ad839f0ee4b97a6646a2597a4aa4d2d9c4190",
  "nextblockhash": "00000000707220ec2ff26b85c4df6f5bbcddd176616e45db52b5c46411037830",
  "strippedsize": 216,
  "size": 216,
  "weight": 864,
  "tx": [
    {
      "txid": "9c5a776f7e64eab1a61ccf1b6b5b0f0108dd27f4644d9aeae134a7ccf77c1a95",
      "hash": "9c5a776f7e64eab1a61ccf1b6b5b0f0108dd27f4644d9aeae134a7ccf77c1a95",
      "version": 1,
      "size": 135,
      "vsize": 135,
      "weight": 540,
      "locktime": 0,
      "vin": [
        {
          "coinbase": "04ffff001d02cf06",
          "sequence": 4294967295
        }
      ],
      "vout": [
        {
          "value": 50.0,
          "n": 0,
          "scriptPubKey": {
            "asm": "045fd462a7ada54d25f744444f4e884add3043d1e13e8f5ba7610dd7774d77237289033122ad17028408943f1c8b6a4044bdac8d2406de3c4be6caabd2b639880e OP_CHECKSIG",
            "desc": "pk(045fd462a7ada54d25f744444f4e884add3043d1e13e8f5ba7610dd7774d77237289033122ad17028408943f1c8b6a4044bdac8d2406de3c4be6caabd2b639880e)#9uz56y5z",
            "hex": "41045fd462a7ada54d25f744444f4e884add3043d1e13e8f5ba7610dd7774d77237289033122ad17028408943f1c8b6a4044bdac8d2406de3c4be6caabd2b639880eac",
            "type": "pubkey"
          }
        }
      ],
      "hex": "01000000010000000000000000000000000000000000000000000000000000000000000000ffffffff0804ffff001d02cf06ffffffff0100f2052a010000004341045fd462a7ada54d25f744444f4e884add3043d1e13e8f5ba7610dd7774d77237289033122ad17028408943f1c8b6a4044bdac8d2406de3c4be6caabd2b639880eac00000000"
    }
  ]
}