{
  "hash": "00000000b349dae46e25152927e216a54825c0d7f889a4cfc65a37abc1562fed",
  "confirmations": 52232,
  "height": 866,
  "version": 1,
  "versionHex": "00000001",
  "merkleroot": "f0bde99c59d8e59ca00bc636979e3b31d228183da970b4c69b8988a3fad3e195",
  "time": 1232244658,
  "mediantime": 1232240418,
  "nonce": 239474667,
  "bits": "1d00ffff",
  "difficulty": 1,
  "chainwork": "0000000000000000000000000000000000000000000000000000036303630363",
  "nTx": 1,
  "previousblockhash": "000000005ec265cdcd67bd76a48e73069972844c8e4be6aaff10d0fbc4e53a84",
  "nextblockhash": "0000000063eb0473d2a03542e142034847de1c47cdd0d6a4067142b33ade169d",
  "strippedsize": 216,
  "size": 216,
  "weight": 864,
  "tx": [
    {
      "txid": "f0bde99c59d8e59ca00bc636979e3b31d228183da970b4c69b8988a3fad3e195",
      "hash": "f0bde99c59d8e59ca00bc636979e3b31d228183da970b4c69b8988a3fad3e195",
      "version": 1,
      "size": 135,
      "vsize": 135,
      "weight": 540,
      "locktime": 0,
      "vin": [
        {
          "coinbase": "04ffff001d02ea00",
          "sequence": 4294967295
        }
      ],
      "vout": [
        {
          "value": 50.0,
          "n": 0,
          "scriptPubKey": {
            "asm": "0455e9beb2bff160b6fb170cb122ac448f6946e5d0cdb574eaac96cb07fe13a6d6c8d2e9bd5e1170dd5747a43ac0ead3ce90472a7f64484e4c9c0ff7e3b87209e1 OP_CHECKSIG",
            "desc": "pk(0455e9beb2bff160b6fb170cb122ac448f6946e5d0cdb574eaac96cb07fe13a6d6c8d2e9bd5e1170dd5747a43ac0ead3ce90472a7f64484e4c9c0ff7e3b87209e1)#ytzad6u0",
            "hex": "410455e9beb2bff160b6fb170cb122ac448f6946e5d0cdb574eaac96cb07fe13a6d6c8d2e9bd5e1170dd5747a43ac0ead3ce90472a7f64484e4c9c0ff7e3b87209e1ac",
            "type": "pubkey"
          }
        }
      ],
      "hex": "01000000010000000000000000000000000000000000000000000000000000000000000000ffffffff0804ffff001d02ea00ffffffff0100f2052a0100000043410455e9beb2bff160b6fb170cb122ac448f6946e5d0cdb574eaac96cb07fe13a6d6c8d2e9bd5e1170dd5747a43ac0ead3ce90472a7f64484e4c9c0ff7e3b87209e1ac00000000"
    }
  ]
}