{
  "hash": "0000000022e3e4ef2ddcd5a8dc6c14f18d7bacfdf4a8456da9afd403ede4c107",
  "confirmations": 49714,
  "height": 3384,
  "version": 1,
  "versionHex": "00000001",
  "merkleroot": "7fa74b95816639155859251a1b4b1579b1da31fc7cb02e257dbfb3987f0355a8",
  "time": 1234025801,
  "mediantime": 1234023109,
  "nonce": 4006706453,
  "bits": "1d00ffff",
  "difficulty": 1,
  "chainwork": "00000000000000000000000000000000000000000000000000000d390d390d39",
  "nTx": 1,
  "previousblockhash": "00000000f09e4f302783f7b119a638fca8b9bd70a2c8d06e208b642229d9e885",
  "nextblockhash": "0000000087fcd7726f26681d9506771adc62d8da278f88c3c98034029377ab32",
  "strippedsize": 216,
  "size": 216,
  "weight": 864,
  "tx": [
    {
      "txid": "7fa74b95816639155859251a1b4b1579b1da31fc7cb02e257dbfb3987f0355a8",
      "hash": "7fa74b95816639155859251a1b4b1579b1da31fc7cb02e257dbfb3987f0355a8",
      "version": 1,
      "size": 135,
      "vsize": 135,
      "weight": 540,
      "locktime": 0,
      "vin": [
        {
          "coinbase": "04ffff001d028e05",
          "sequence": 4294967295
        }
      ],
      "vout": [
        {
          "value": 50.0,
          "n": 0,
          "scriptPubKey": {
            "asm": "04c16f21cae683b067cde2c95d6d8e91669a67708b18f82ba00e4d5c092cf35859e3b234a4961c23f12ea64da6196c78ef8b647f3d96e632cbfae217bdd0dd92a8 OP_CHECKSIG",
            "desc": "pk(04c16f21cae683b067cde2c95d6d8e91669a67708b18f82ba00e4d5c092cf35859e3b234a4961c23f12ea64da6196c78ef8b647f3d96e632cbfae217bdd0dd92a8)#gpwte3e9",
            "hex": "4104c16f21cae683b067cde2c95d6d8e91669a67708b18f82ba00e4d5c092cf35859e3b234a4961c23f12ea64da6196c78ef8b647f3d96e632cbfae217bdd0dd92a8ac",
            "type": "pubkey"
          }
        }
      ],
      "hex": "01000000010000000000000000000000000000000000000000000000000000000000000000ffffffff0804ffff001d028e05ffffffff0100f2052a01000000434104c16f21cae683b067cde2c95d6d8e91669a67708b18f82ba00e4d5c092cf35859e3b234a4961c23f12ea64da6196c78ef8b647f3d96e632cbfae217bdd0dd92a8ac00000000"
    }
  ]
}