{
  "hash": "00000000ac1000fcac73e8009d583f15519eb86423d5b142352d661e763a58af",
  "confirmations": 47784,
  "height": 5314,
  "version": 1,
  "versionHex": "00000001",
  "merkleroot": "d45189acc16cb641ccb11b1b44122a49295e933aed77a103c2c2a6f7121e4688",
  "time": 1235375868,
  "mediantime": 1235370611,
  "nonce": 438773780,
  "bits": "1d00ffff",
  "difficulty": 1,
  "chainwork": "000000000000000000000000000000000000000000000000000014c314c314c3",
  "nTx": 1,
  "previousblockhash": "00000000a0db993943e1b10920aba4a85febd82dfed600baa3abfccb0cf16fec",
  "nextblockhash": "000000005656e61d1e4a4b6b8db1e35cd3ba55aa5f4e026f91abaa0283ae93d0",
  "strippedsize": 216,
  "size": 216,
  "weight": 864,
  "tx": [
    {
      "txid": "d45189acc16cb641ccb11b1b44122a49295e933aed77a103c2c2a6f7121e4688",
      "hash": "d45189acc16cb641ccb11b1b44122a49295e933aed77a103c2c2a6f7121e4688",
      "version": 1,
      "size": 135,
      "vsize": 135,
      "weight": 540,
      "locktime": 0,
      "vin": [
        {
          "coinbase": "04ffff001d024502",
          "sequence": 4294967295
        }
      ],
      "vout": [
        {
          "value": 50.0,
          "n": 0,
          "scriptPubKey": {
            "asm": "045942af833d0ffcb7193a539f49912434dc6e657e55f02c932926e34201831e170fbbe8c9448621d62341a294e56c7e46467a64ea3587ef23cefcbcc80c410b0a OP_CHECKSIG",
            "desc": "pk(045942af833d0ffcb7193a539f49912434dc6e657e55f02c932926e34201831e170fbbe8c9448621d62341a294e56c7e46467a64ea3587ef23cefcbcc80c410b0a)#xxwl7mg0",
            "hex": "41045942af833d0ffcb7193a539f49912434dc6e657e55f02c932926e34201831e170fbbe8c9448621d62341a294e56c7e46467a64ea3587ef23cefcbcc80c410b0aac",
            "type": "pubkey"
          }
        }
      ],
      "hex": "01000000010000000000000000000000000000000000000000000000000000000000000000ffffffff0804ffff001d024502ffffffff0100f2052a010000004341045942af833d0ffcb7193a539f49912434dc6e657e55f02c932926e34201831e170fbbe8c9448621d62341a294e56c7e46467a64ea3587ef23cefcbcc80c410b0aac00000000"
    }
  ]
}