{
  "hash": "00000000d7e322dff76eb78f0b0a3683f6acdeda5e0b8d176bdea7a37ce7744b",
  "confirmations": 47822,
  "height": 5276,
  "version": 1,
  "versionHex": "00000001",
  "merkleroot": "9a9f86bc9e82d7239ae14bda2f827db189ead402fe1d8f715f6ee4dfb9f484d2",
  "time": 1235342636,
  "mediantime": 1235339880,
  "nonce": 2467298844,
  "bits": "1d00ffff",
  "difficulty": 1,
  "chainwork": "0000000000000000000000000000000000000000000000000000149d149d149d",
  "nTx": 1,
  "previousblockhash": "0000000037a08f8c588abe7b15e7af8f57446d78c4c72f1332b34d645502ec42",
  "nextblockhash": "00000000ed0b20b4c9cc4e4546ccb88aff1402d39d77d4421ce238a72ddbb9d2",
  "strippedsize": 216,
  "size": 216,
  "weight": 864,
  "tx": [
    {
      "txid": "9a9f86bc9e82d7239ae14bda2f827db189ead402fe1d8f715f6ee4dfb9f484d2",
      "hash": "9a9f86bc9e82d7239ae14bda2f827db189ead402fe1d8f715f6ee4dfb9f484d2",
      "version": 1,
      "size": 135,
      "vsize": 135,
      "weight": 540,
      "locktime": 0,
      "vin": [
        {
          "coinbase": "04ffff001d02b401",
          "sequence": 4294967295
        }
      ],
      "vout": [
        {
          "value": 50.0,
          "n": 0,
          "scriptPubKey": {
            "asm": "04432b816b58ca4b795ff254274bc8ac9f5a712777670993e19fc5c6b5f0b40b648fe00ccc9d89bc3cdd036aaee0a03ab4ceb8dca32d69e39094180614ea998b78 OP_CHECKSIG",
            "desc": "pk(04432b816b58ca4b795ff254274bc8ac9f5a712777670993e19fc5c6b5f0b40b648fe00ccc9d89bc3cdd036aaee0a03ab4ceb8dca32d69e39094180614ea998b78)#u2stg52t",
            "hex": "4104432b816b58ca4b795ff254274bc8ac9f5a712777670993e19fc5c6b5f0b40b648fe00ccc9d89bc3cdd036aaee0a03ab4ceb8dca32d69e39094180614ea998b78ac",
            "type": "pubkey"
          }
        }
      ],
      "hex": "01000000010000000000000000000000000000000000000000000000000000000000000000ffffffff0804ffff001d02b401ffffffff0100f2052a01000000434104432b816b58ca4b795ff254274bc8ac9f5a712777670993e19fc5c6b5f0b40b648fe00ccc9d89bc3cdd036aaee0a03ab4ceb8dca32d69e39094180614ea998b78ac00000000"
    }
  ]
}