{
  "hash": "000000007438423065e44946e51006b4bd0deab0cedc635d38abd16d6b430910",
  "confirmations": 49920,
  "height": 3178,
  "version": 1,
  "versionHex": "00000001",
  "merkleroot": "3358bd3dd9ca1f399146043a44a4bb00fcccc98a02f4eaede62bf2629446d14f",
  "time": 1233885494,
  "mediantime": 1233881498,
  "nonce": 3354092837,
  "bits": "1d00ffff",
  "difficulty": 1,
  "chainwork": "00000000000000000000000000000000000000000000000000000c6b0c6b0c6b",
  "nTx": 1,
  "previousblockhash": "00000000daa71fb3427053510afd13ab565f093cccd9ae127aa8d168aee44cab",
  "nextblockhash": "0000000005376fb93f3cf203375d6bbd2b498ad78563ef15ec4b9c0455e1a8a6",
  "strippedsize": 216,
  "size": 216,
  "weight": 864,
  "tx": [
    {
      "txid": "3358bd3dd9ca1f399146043a44a4bb00fcccc98a02f4eaede62bf2629446d14f",
      "hash": "3358bd3dd9ca1f399146043a44a4bb00fcccc98a02f4eaede62bf2629446d14f",
      "version": 1,
      "size": 135,
      "vsize": 135,
      "weight": 540,
      "locktime": 0,
      "vin": [
        {
          "coinbase": "04ffff001d025b02",
          "sequence": 4294967295
        }
      ],
      "vout": [
        {
          "value": 50.0,
          "n": 0,
          "scriptPubKey": {
            "asm": "0423f032f8be4340e063f96e45807e2e819457253d67cf708db2f35cfb1808e5378646e0cf405c4cd8482203ff36d7dd8e8d2b8d5aa6ec00b5cdea87c1dae96928 OP_CHECKSIG",
            "desc": "pk(0423f032f8be4340e063f96e45807e2e819457253d67cf708db2f35cfb1808e5378646e0cf405c4cd8482203ff36d7dd8e8d2b8d5aa6ec00b5cdea87c1dae96928)#q4xtc5g3",
            "hex": "410423f032f8be4340e063f96e45807e2e819457253d67cf708db2f35cfb1808e5378646e0cf405c4cd8482203ff36d7dd8e8d2b8d5aa6ec00b5cdea87c1dae96928ac",
            "type": "pubkey"
          }
        }
      ],
      "hex": "01000000010000000000000000000000000000000000000000000000000000000000000000ffffffff0804ffff001d025b02ffffffff0100f2052a0100000043410423f032f8be4340e063f96e45807e2e819457253d67cf708db2f35cfb1808e5378646e0cf405c4cd8482203ff36d7dd8e8d2b8d5aa6ec00b5cdea87c1dae96928ac00000000"
    }
  ]
}