{
  "hash": "0000000001b376dfebd38cd56cf5befa1522eca4ec0b5203d3c9713fadbaaa4c",
  "confirmations": 47939,
  "height": 5159,
  "version": 1,
  "versionHex": "00000001",
  "merkleroot": "70d224a502d2d5b34a5e054d74454304c492edf67df9ab1669365a4a700860d5",
  "time": 1235258951,
  "mediantime": 1235255678,
  "nonce": 2099283235,
  "bits": "1d00ffff",
  "difficulty": 1,
  "chainwork": "0000000000000000000000000000000000000000000000000000142814281428",
  "nTx": 1,
  "previousblockhash": "0000000019865062c94b143bbcdfa77223bf81045373206ed642db588c31c573",
  "nextblockhash": "00000000c6e8cbdccf6d51b66c59ac4ebd22959060ce1ec55dcff5843160a492",
  "strippedsize": 216,
  "size": 216,
  "weight": 864,
  "tx": [
    {
      "txid": "70d224a502d2d5b34a5e054d74454304c492edf67df9ab1669365a4a700860d5",
      "hash": "70d224a502d2d5b34a5e054d74454304c492edf67df9ab1669365a4a700860d5",
      "version": 1,
      "size": 135,
      "vsize": 135,
      "weight": 540,
      "locktime": 0,
      "vin": [
        {
          "coinbase": "04ffff001d02130a",
          "sequence": 4294967295
        }
      ],
      "vout": [
        {
          "value": 50.0,
          "n": 0,
          "scriptPubKey": {
            "asm": "040291ed395c4fe13ce801cf63c0ae58abfe2ed1edff14f236a1f0ca965e2d905680885cbda625d6bb97a9b6ada36ad15ed2f944d2bb93a1ade18a6de7297cd9f3 OP_CHECKSIG",
            "desc": "pk(040291ed395c4fe13ce801cf63c0ae58abfe2ed1edff14f236a1f0ca965e2d905680885cbda625d6bb97a9b6ada36ad15ed2f944d2bb93a1ade18a6de7297cd9f3)#92hu4mj4",
            "hex": "41040291ed395c4fe13ce801cf63c0ae58abfe2ed1edff14f236a1f0ca965e2d905680885cbda625d6bb97a9b6ada36ad15ed2f944d2bb93a1ade18a6de7297cd9f3ac",
            "type": "pubkey"
          }
        }
      ],
      "hex": "01000000010000000000000000000000000000000000000000000000000000000000000000ffffffff0804ffff001d02130affffffff0100f2052a010000004341040291ed395c4fe13ce801cf63c0ae58abfe2ed1edff14f236a1f0ca965e2d905680885cbda625d6bb97a9b6ada36ad15ed2f944d2bb93a1ade18a6de7297cd9f3ac00000000"
    }
  ]
}