{
  "hash": "00000000219949b3de1eae5447c00501812757885e65554fe5c51039ebe643d1",
  "confirmations": 51939,
  "height": 85,
  "version": 1,
  "versionHex": "00000001",
  "merkleroot": "c39bde3039372f835ca96f15d5f38df585fac24a316d28cb5febae7c4af15cb4",
  "time": 1231650483,
  "mediantime": 1231646077,
  "nonce": 3806652726,
  "bits": "1d00ffff",
  "difficulty": 1,
  "chainwork": "0000000000000000000000000000000000000000000000000000005600560056",
  "nTx": 1,
  "previousblockhash": "0000000095f5ee67aaade1dfa150b7ae38b3ff068936c9c95a7bb114b6ce8d4f",
  "nextblockhash": "00000000f1b3a6b39671e475b858bc6831db3ca57e8ecafa49a13c4d5b04fb53",
  "strippedsize": 215,
  "size": 215,
  "weight": 860,
  "tx": [
    {
      "txid": "c39bde3039372f835ca96f15d5f38df585fac24a316d28cb5febae7c4af15cb4",
      "hash": "c39bde3039372f835ca96f15d5f38df585fac24a316d28cb5febae7c4af15cb4",
      "version": 1,
      "size": 134,
      "vsize": 134,
      "weight": 536,
      "locktime": 0,
      "vin": [
        {
          "coinbase": "04ffff001d0119",
          "sequence": 4294967295
        }
      ],
      "vout": [
        {
          "value": 50.0,
          "n": 0,
          "scriptPubKey": {
            "asm": "0433b8523d01fa02c9ff12b73bb4e6dcb4dac725e0853d119cf13d791e202b4e30dcb6da12d3627d638ff9ff225b6d7667ee7d2a36e5e140634772b6da6041479c OP_CHECKSIG",
            "desc": "pk(0433b8523d01fa02c9ff12b73bb4e6dcb4dac725e0853d119cf13d791e202b4e30dcb6da12d3627d638ff9ff225b6d7667ee7d2a36e5e140634772b6da6041479c)#q3zx6p3z",
            "hex": "410433b8523d01fa02c9ff12b73bb4e6dcb4dac725e0853d119cf13d791e202b4e30dcb6da12d3627d638ff9ff225b6d7667ee7d2a36e5e140634772b6da6041479cac",
            "type": "pubkey"
          }
        }
      ],
      "hex": "01000000010000000000000000000000000000000000000000000000000000000000000000ffffffff0704ffff001d0119ffffffff0100f2052a0100000043410433b8523d01fa02c9ff12b73bb4e6dcb4dac725e0853d119cf13d791e202b4e30dcb6da12d3627d638ff9ff225b6d7667ee7d2a36e5e140634772b6da6041479cac00000000"
    }
  ]
}