{
  "hash": "000000004c20e43cab82077405e4fbd9f5a71a8e82301e4a687192fb5479be6d",
  "confirmations": 50296,
  "height": 2802,
  "version": 1,
  "versionHex": "00000001",
  "merkleroot": "959ef363033e477ed8301bef5aca3fb99d79dfd03fdc3333b7be4acb4c4cdda0",
  "time": 1233629440,
  "mediantime": 1233627348,
  "nonce": 3198193959,
  "bits": "1d00ffff",
  "difficulty": 1,
  "chainwork": "00000000000000000000000000000000000000000000000000000af30af30af3",
  "nTx": 1,
  "previousblockhash": "00000000eaac134c9d036c67b7d9e6006abd10a0f99235cdf910bcba535d8d3d",
  "nextblockhash": "00000000d66c824bb833303c5a9b5c22282903a98fa42d1b68330fdedf36ee5f",
  "strippedsize": 216,
  "size": 216,
  "weight": 864,
  "tx": [
    {
      "txid": "959ef363033e477ed8301bef5aca3fb99d79dfd03fdc3333b7be4acb4c4cdda0",
      "hash": "959ef363033e477ed8301bef5aca3fb99d79dfd03fdc3333b7be4acb4c4cdda0",
      "version": 1,
      "size": 135,
      "vsize": 135,
      "weight": 540,
      "locktime": 0,
      "vin": [
        {
          "coinbase": "04ffff001d022206",
          "sequence": 4294967295
        }
      ],
      "vout": [
        {
          "value": 50.0,
          "n": 0,
          "scriptPubKey": {
            "asm": "04df71ebcdd7b8c1cb03d1f42577034ba5f4076a30a1f6805864b71c79d5edc4a80bd13e819ed82d3bd78d7b18e0d2358903769845c4017908ace5cc6f61a333c3 OP_CHECKSIG",
            "desc": "pk(04df71ebcdd7b8c1cb03d1f42577034ba5f4076a30a1f6805864b71c79d5edc4a80bd13e819ed82d3bd78d7b18e0d2358903769845c4017908ace5cc6f61a333c3)#5yls7982",
            "hex": "4104df71ebcdd7b8c1cb03d1f42577034ba5f4076a30a1f6805864b71c79d5edc4a80bd13e819ed82d3bd78d7b18e0d2358903769845c4017908ace5cc6f61a333c3ac",
            "type": "pubkey"
          }
        }
      ],
      "hex": "01000000010000000000000000000000000000000000000000000000000000000000000000ffffffff0804ffff001d022206ffffffff0100f2052a01000000434104df71ebcdd7b8c1cb03d1f42577034ba5f4076a30a1f6805864b71c79d5edc4a80bd13e819ed82d3bd78d7b18e0d2358903769845c4017908ace5cc6f61a333c3ac00000000"
    }
  ]
}