{
  "hash": "00000000adcaab3694464b4964c187048235e3548a7a4c9fbfcfdc2379f38823",
  "confirmations": 52049,
  "height": 1049,
  "version": 1,
  "versionHex": "00000001",
  "merkleroot": "5dc93f19e54e5f8a1ff0e54a0bd1ea37dfca749aa0a77020ff9f89fbc9c4d154",
  "time": 1232386339,
  "mediantime": 1232382527,
  "nonce": 4270784807,
  "bits": "1d00ffff",
  "difficulty": 1,
  "chainwork": "0000000000000000000000000000000000000000000000000000041a041a041a",
  "nTx": 1,
  "previousblockhash": "00000000c3ef87a393c796f421783d69a184367b222c226dd521232ab3a54472",
  "nextblockhash": "000000005282b3bae8fe27fbae5e19473ff1ee6932e1997b139d933ae76fce6f",
  "strippedsize": 216,
  "size": 216,
  "weight": 864,
  "tx": [
    {
      "txid": "5dc93f19e54e5f8a1ff0e54a0bd1ea37dfca749aa0a77020ff9f89fbc9c4d154",
      "hash": "5dc93f19e54e5f8a1ff0e54a0bd1ea37dfca749aa0a77020ff9f89fbc9c4d154",
      "version": 1,
      "size": 135,
      "vsize": 135,
      "weight": 540,
      "locktime": 0,
      "vin": [
        {
          "coinbase": "04ffff001d020006",
          "sequence": 4294967295
        }
      ],
      "vout": [
        {
          "value": 50.0,
          "n": 0,
          "scriptPubKey": {
            "asm": "04d4196506b5ad6f4f448cac4bf1669a41968c67adbd91e7e172568aa593d6d6959774fce7c3efd2b12904d46b6eb73fb4ca7477ed2763182be89be5745631a2bb OP_CHECKSIG",
            "desc": "pk(04d4196506b5ad6f4f448cac4bf1669a41968c67adbd91e7e172568aa593d6d6959774fce7c3efd2b12904d46b6eb73fb4ca7477ed2763182be89be5745631a2bb)#nnn0wqdx",
            "hex": "4104d4196506b5ad6f4f448cac4bf1669a41968c67adbd91e7e172568aa593d6d6959774fce7c3efd2b12904d46b6eb73fb4ca7477ed2763182be89be5745631a2bbac",
            "type": "pubkey"
          }
        }
      ],
      "hex": "01000000010000000000000000000000000000000000000000000000000000000000000000ffffffff0804ffff001d020006ffffffff0100f2052a01000000434104d4196506b5ad6f4f448cac4bf1669a41968c67adbd91e7e172568aa593d6d6959774fce7c3efd2b12904d46b6eb73fb4ca7477ed2763182be89be5745631a2bbac00000000"
    }
  ]
}