{
  "hash": "000000009a94c63fbdfe0d037cd520fa47972b857d218b6362981d12c37076f2",
  "confirmations": 45414,
  "height": 7684,
  "version": 1,
  "versionHex": "00000001",
  "merkleroot": "fec0faae819ae2c9c758d138783c043fe58ded62d4b85e7dd1e7dac59156fbd0",
  "time": 1237226778,
  "mediantime": 1237223569,
  "nonce": 3863841592,
  "bits": "1d00ffff",
  "difficulty": 1,
  "chainwork": "00000000000000000000000000000000000000000000000000001e051e051e05",
  "nTx": 1,
  "previousblockhash": "00000000ac6d253d46fb08d451a714c3356c96bbd64833350dd2d1e4dc5a0cae",
  "nextblockhash": "00000000038394ae9db16d211b90453c249291f3a0bf5567d60b3447d6353a8b",
  "strippedsize": 216,
  "size": 216,
  "weight": 864,
  "tx": [
    {
      "txid": "fec0faae819ae2c9c758d138783c043fe58ded62d4b85e7dd1e7dac59156fbd0",
      "hash": "fec0faae819ae2c9c758d138783c043fe58ded62d4b85e7dd1e7dac59156fbd0",
      "version": 1,
      "size": 135,
      "vsize": 135,
      "weight": 540,
      "locktime": 0,
      "vin": [
        {
          "coinbase": "04ffff001d02d703",
          "sequence": 4294967295
        }
      ],
      "vout": [
        {
          "value": 50.0,
          "n": 0,
          "scriptPubKey": {
            "asm": "042ccf9a18ad3461aa16745e317255e493fd3581f722bd6a9aa47a3e1cce3b4de59773bf3a1393ded231855121df6fabc64d7044e1c88131aac79069b55d101e8b OP_CHECKSIG",
            "desc": "pk(042ccf9a18ad3461aa16745e317255e493fd3581f722bd6a9aa47a3e1cce3b4de59773bf3a1393ded231855121df6fabc64d7044e1c88131aac79069b55d101e8b)#c2qulyrz",
            "hex": "41042ccf9a18ad3461aa16745e317255e493fd3581f722bd6a9aa47a3e1cce3b4de59773bf3a1393ded231855121df6fabc64d7044e1c88131aac79069b55d101e8bac",
            "type": "pubkey"
          }
        }
      ],
      "hex": "01000000010000000000000000000000000000000000000000000000000000000000000000ffffffff0804ffff001d02d703ffffffff0100f2052a010000004341042ccf9a18ad3461aa16745e317255e493fd3581f722bd6a9aa47a3e1cce3b4de59773bf3a1393ded231855121df6fabc64d7044e1c88131aac79069b55d101e8bac00000000"
    }
  ]
}