{
  "hash": "000000005ed01e4057a60c1d8db55b3930334aa869f07d0d043c3d5bb15e77f2",
  "confirmations": 49338,
  "height": 3760,
  "version": 1,
  "versionHex": "00000001",
  "merkleroot": "ff367d628ff9669c492467606219b36faddb440f24a2690a68bef0b5a98e5d6c",
  "time": 1234278196,
  "mediantime": 1234275407,
  "nonce": 3027216685,
  "bits": "1d00ffff",
  "difficulty": 1,
  "chainwork": "00000000000000000000000000000000000000000000000000000eb10eb10eb1",
  "nTx": 1,
  "previousblockhash": "000000008b1d3d4b5ed8efd73c460c017e490f829ebcb76d357542f72f56491b",
  "nextblockhash": "000000004904ee5765d1bb1510b9f5b0cb4564fc27b4665224ad25b704f097c1",
  "strippedsize": 216,
  "size": 216,
  "weight": 864,
  "tx": [
    {
      "txid": "ff367d628ff9669c492467606219b36faddb440f24a2690a68bef0b5a98e5d6c",
      "hash": "ff367d628ff9669c492467606219b36faddb440f24a2690a68bef0b5a98e5d6c",
      "version": 1,
      "size": 135,
      "vsize": 135,
      "weight": 540,
      "locktime": 0,
      "vin": [
        {
          "coinbase": "04ffff001d02cb00",
          "sequence": 4294967295
        }
      ],
      "vout": [
        {
          "value": 50.0,
          "n": 0,
          "scriptPubKey": {
            "asm": "04b6331521f86f4b52482274e51bcfba84a7b5a4290532d57e283a77fa472cb49a95844e7ca19121c198e32a97c95b5413b4a60a80debe3e996cab36966d563e8a OP_CHECKSIG",
            "desc": "pk(04b6331521f86f4b52482274e51bcfba84a7b5a4290532d57e283a77fa472cb49a95844e7ca19121c198e32a97c95b5413b4a60a80debe3e996cab36966d563e8a)#6qtptgqe",
            "hex": "4104b6331521f86f4b52482274e51bcfba84a7b5a4290532d57e283a77fa472cb49a95844e7ca19121c198e32a97c95b5413b4a60a80debe3e996cab36966d563e8aac",
            "type": "pubkey"
          }
        }
      ],
      "hex": "01000000010000000000000000000000000000000000000000000000000000000000000000ffffffff0804ffff001d02cb00ffffffff0100f2052a01000000434104b6331521f86f4b52482274e51bcfba84a7b5a4290532d57e283a77fa472cb49a95844e7ca19121c198e32a97c95b5413b4a60a80debe3e996cab36966d563e8aac00000000"
    }
  ]
}