{
  "hash": "0000000073c033b4861b754589d7843e31858bb5197ffa4c62f5c15446c3ac90",
  "confirmations": 44549,
  "height": 8549,
  "version": 1,
  "versionHex": "00000001",
  "merkleroot": "9d70ef7d09d97471b395f3da4392012dafcef6b485802bf0f2a80e1aeeb09c17",
  "time": 1237911411,
  "mediantime": 1237907688,
  "nonce": 2667686400,
  "bits": "1d00ffff",
  "difficulty": 1,
  "chainwork": "0000000000000000000000000000000000000000000000000000216621662166",
  "nTx": 1,
  "previousblockhash": "000000009527b99654e2466f510181719fe0db7077818498d07d30b00728aa66",
  "nextblockhash": "00000000d1987901437fa51afb63827b9cfa621d5ff57abe736750ea74556af0",
  "strippedsize": 216,
  "size": 216,
  "weight": 864,
  "tx": [
    {
      "txid": "9d70ef7d09d97471b395f3da4392012dafcef6b485802bf0f2a80e1aeeb09c17",
      "hash": "9d70ef7d09d97471b395f3da4392012dafcef6b485802bf0f2a80e1aeeb09c17",
      "version": 1,
      "size": 135,
      "vsize": 135,
      "weight": 540,
      "locktime": 0,
      "vin": [
        {
          "coinbase": "04ffff001d02b308",
          "sequence": 4294967295
        }
      ],
      "vout": [
        {
          "value": 50.0,
          "n": 0,
          "scriptPubKey": {
            "asm": "042b9a7776c60c5a47b31b9a63d1948cf74458965dc7a025b11c4aa7e6c03ea14b4f680842873e586986e86d0dff2fd1d1849319534d0bc6064061cf9936ca5642 OP_CHECKSIG",
            "desc": "pk(042b9a7776c60c5a47b31b9a63d1948cf74458965dc7a025b11c4aa7e6c03ea14b4f680842873e586986e86d0dff2fd1d1849319534d0bc6064061cf9936ca5642)#4gxnrhzr",
            "hex": "41042b9a7776c60c5a47b31b9a63d1948cf74458965dc7a025b11c4aa7e6c03ea14b4f680842873e586986e86d0dff2fd1d1849319534d0bc6064061cf9936ca5642ac",
            "type": "pubkey"
          }
        }
      ],
      "hex": "01000000010000000000000000000000000000000000000000000000000000000000000000ffffffff0804ffff001d02b308ffffffff0100f2052a010000004341042b9a7776c60c5a47b31b9a63d1948cf74458965dc7a025b11c4aa7e6c03ea14b4f680842873e586986e86d0dff2fd1d1849319534d0bc6064061cf9936ca5642ac00000000"
    }
  ]
}