{
  "hash": "00000000b03379dd693686ed84a33b5086d9770f1f08c6951a9e3fc40b06e7cf",
  "confirmations": 52170,
  "height": 459,
  "version": 1,
  "versionHex": "00000001",
  "merkleroot": "22fdc90e3eab5e4387095c799e81f9e5791caba5f865954bad77a2c04737e7f7",
  "time": 1231943274,
  "mediantime": 1231939525,
  "nonce": 1959998522,
  "bits": "1d00ffff",
  "difficulty": 1,
  "chainwork": "000000000000000000000000000000000000000000000000000001cc01cc01cc",
  "nTx": 1,
  "previousblockhash": "0000000049db57f7c89df82008dbfeba44995c9675d779180ffb788aa6f6ad16",
  "nextblockhash": "00000000589bea8b8ba6b3c039cc4c10e414c498d4bab561af7b1f92a7181ce4",
  "strippedsize": 216,
  "size": 216,
  "weight": 864,
  "tx": [
    {
      "txid": "22fdc90e3eab5e4387095c799e81f9e5791caba5f865954bad77a2c04737e7f7",
      "hash": "22fdc90e3eab5e4387095c799e81f9e5791caba5f865954bad77a2c04737e7f7",
      "version": 1,
      "size": 135,
      "vsize": 135,
      "weight": 540,
      "locktime": 0,
      "vin": [
        {
          "coinbase": "04ffff001d02d303",
          "sequence": 4294967295
        }
      ],
      "vout": [
        {
          "value": 50.0,
          "n": 0,
          "scriptPubKey": {
            "asm": "04de17f030f67227d105bfd217a5bbb53717931747974906a7bb8c96a901a80bd4b37da87aabf70e606515b3997b2bda1eb5d87e4c16730c4dfae9ebc8ede8f518 OP_CHECKSIG",
            "desc": "pk(04de17f030f67227d105bfd217a5bbb53717931747974906a7bb8c96a901a80bd4b37da87aabf70e606515b3997b2bda1eb5d87e4c16730c4dfae9ebc8ede8f518)#lgmym0xv",
            "hex": "4104de17f030f67227d105bfd217a5bbb53717931747974906a7bb8c96a901a80bd4b37da87aabf70e606515b3997b2bda1eb5d87e4c16730c4dfae9ebc8ede8f518ac",
            "type": "pubkey"
          }
        }
      ],
      "hex": "01000000010000000000000000000000000000000000000000000000000000000000000000ffffffff0804ffff001d02d303ffffffff0100f2052a01000000434104de17f030f67227d105bfd217a5bbb53717931747974906a7bb8c96a901a80bd4b37da87aabf70e606515b3997b2bda1eb5d87e4c16730c4dfae9ebc8ede8f518ac00000000"
    }
  ]
}