{
  "hash": "00000000641ad9cd4ddfc5139e95d1062e39239e358f5d2c5c3d425237d4ba48",
  "confirmations": 52328,
  "height": 770,
  "version": 1,
  "versionHex": "00000001",
  "merkleroot": "c23945b5e7275f721d034eeef52021bb1865b2ec748f6fc63830bc2cc548b816",
  "time": 1232168140,
  "mediantime": 1232163166,
  "nonce": 876692527,
  "bits": "1d00ffff",
  "difficulty": 1,
  "chainwork": "0000000000000000000000000000000000000000000000000000030303030303",
  "nTx": 1,
  "previousblockhash": "0000000014ae7c9765f35c9522e3632c3115142a7f985015f708339cc94878b2",
  "nextblockhash": "00000000c6846ae9277a93737caabca0f5e73f5cec08b9d2843aadf4d9992d70",
  "strippedsize": 216,
  "size": 216,
  "weight": 864,
  "tx": [
    {
      "txid": "c23945b5e7275f721d034eeef52021bb1865b2ec748f6fc63830bc2cc548b816",
      "hash": "c23945b5e7275f721d034eeef52021bb1865b2ec748f6fc63830bc2cc548b816",
      "version": 1,
      "size": 135,
      "vsize": 135,
      "weight": 540,
      "locktime": 0,
      "vin": [
        {
          "coinbase": "04ffff001d02f100",
          "sequence": 4294967295
        }
      ],
      "vout": [
        {
          "value": 50.0,
          "n": 0,
          "scriptPubKey": {
            "asm": "048b3014c8229f1bb5ef6a887e471c2b0462f2a4bcd5695dac8df73358b391694af208c1979fda0350a48bba6762c31735d8336a36d582f917fa912869807711c1 OP_CHECKSIG",
            "desc": "pk(048b3014c8229f1bb5ef6a887e471c2b0462f2a4bcd5695dac8df73358b391694af208c1979fda0350a48bba6762c31735d8336a36d582f917fa912869807711c1)#mg3hy8wg",
            "hex": "41048b3014c8229f1bb5ef6a887e471c2b0462f2a4bcd5695dac8df73358b391694af208c1979fda0350a48bba6762c31735d8336a36d582f917fa912869807711c1ac",
            "type": "pubkey"
          }
        }
      ],
      "hex": "01000000010000000000000000000000000000000000000000000000000000000000000000ffffffff0804ffff001d02f100ffffffff0100f2052a010000004341048b3014c8229f1bb5ef6a887e471c2b0462f2a4bcd5695dac8df73358b391694af208c1979fda0350a48bba6762c31735d8336a36d582f917fa912869807711c1ac00000000"
    }
  ]
}