{
  "hash": "0000000015cbca4a3b174bf4098540b8dfb6a9b51685f90411d326e7288240f3",
  "confirmations": 51509,
  "height": 1589,
  "version": 1,
  "versionHex": "00000001",
  "merkleroot": "6fb3a1918a16385ec374c54a66dc821032346e0717f1f3f065c55444a244a378",
  "time": 1232807150,
  "mediantime": 1232804026,
  "nonce": 1359019554,
  "bits": "1d00ffff",
  "difficulty": 1,
  "chainwork": "0000000000000000000000000000000000000000000000000000063606360636",
  "nTx": 1,
  "previousblockhash": "000000009f3ca6b97241f9224a114fe9e8174a68130c34db98fb2bbbd1bf01db",
  "nextblockhash": "000000000afe8b5ca393448720e23b588e0f8422852ab872ef704d0852d55ca3",
  "strippedsize": 216,
  "size": 216,
  "weight": 864,
  "tx": [
    {
      "txid": "6fb3a1918a16385ec374c54a66dc821032346e0717f1f3f065c55444a244a378",
      "hash": "6fb3a1918a16385ec374c54a66dc821032346e0717f1f3f065c55444a244a378",
      "version": 1,
      "size": 135,
      "vsize": 135,
      "weight": 540,
      "locktime": 0,
      "vin": [
        {
          "coinbase": "04ffff001d020802",
          "sequence": 4294967295
        }
      ],
      "vout": [
        {
          "value": 50.0,
          "n": 0,
          "scriptPubKey": {
            "asm": "049017db160ff16e98e2b1a5d3fe168feb3418d2e29a8705e914e112cb2a704b08837b1db28f44b1d8f40cf61ebc20a74c379d702b766bc1accaa8ae63a86753ec OP_CHECKSIG",
            "desc": "pk(049017db160ff16e98e2b1a5d3fe168feb3418d2e29a8705e914e112cb2a704b08837b1db28f44b1d8f40cf61ebc20a74c379d702b766bc1accaa8ae63a86753ec)#t3tvjexs",
            "hex": "41049017db160ff16e98e2b1a5d3fe168feb3418d2e29a8705e914e112cb2a704b08837b1db28f44b1d8f40cf61ebc20a74c379d702b766bc1accaa8ae63a86753ecac",
            "type": "pubkey"
          }
        }
      ],
      "hex": "01000000010000000000000000000000000000000000000000000000000000000000000000ffffffff0804ffff001d020802ffffffff0100f2052a010000004341049017db160ff16e98e2b1a5d3fe168feb3418d2e29a8705e914e112cb2a704b08837b1db28f44b1d8f40cf61ebc20a74c379d702b766bc1accaa8ae63a86753ecac00000000"
    }
  ]
}