{
  "hash": "00000000ebff91c88984bff39511f544a1c4ef6ec4f33e2ea531e47c2685628e",
  "confirmations": 51892,
  "height": 63,
  "version": 1,
  "versionHex": "00000001",
  "merkleroot": "0731f33cf07a2e5f749a2910c437a015968e1fc2ed79c95634829167db280c4f",
  "time": 1231623880,
  "mediantime": 1231620564,
  "nonce": 667804194,
  "bits": "1d00ffff",
  "difficulty": 1,
  "chainwork": "0000000000000000000000000000000000000000000000000000004000400040",
  "nTx": 1,
  "previousblockhash": "0000000042fe934de30881dcecc5af1c80b5a083030e37d71806e7fc1e8ca02a",
  "nextblockhash": "0000000031975f17c5642a9c7e53ae4201a70a6ba6363036b55497b8754d1866",
  "strippedsize": 216,
  "size": 216,
  "weight": 864,
  "tx": [
    {
      "txid": "0731f33cf07a2e5f749a2910c437a015968e1fc2ed79c95634829167db280c4f",
      "hash": "0731f33cf07a2e5f749a2910c437a015968e1fc2ed79c95634829167db280c4f",
      "version": 1,
      "size": 135,
      "vsize": 135,
      "weight": 540,
      "locktime": 0,
      "vin": [
        {
          "coinbase": "04ffff001d029f00",
          "sequence": 4294967295
        }
      ],
      "vout": [
        {
          "value": 50.0,
          "n": 0,
          "scriptPubKey": {
            "asm": "04480b0d9f662fa54744f9da98a4671b89290dd30a1c4aabd9fd276417f6671770dc0c3bddca76080bfd4fc37d85cf84260f06aaa8a15b141f2f98da4215dd9b59 OP_CHECKSIG",
            "desc": "pk(04480b0d9f662fa54744f9da98a4671b89290dd30a1c4aabd9fd276417f6671770dc0c3bddca76080bfd4fc37d85cf84260f06aaa8a15b141f2f98da4215dd9b59)#fj33pg9p",
            "hex": "4104480b0d9f662fa54744f9da98a4671b89290dd30a1c4aabd9fd276417f6671770dc0c3bddca76080bfd4fc37d85cf84260f06aaa8a15b141f2f98da4215dd9b59ac",
            "type": "pubkey"
          }
        }
      ],
      "hex": "01000000010000000000000000000000000000000000000000000000000000000000000000ffffffff0804ffff001d029f00ffffffff0100f2052a01000000434104480b0d9f662fa54744f9da98a4671b89290dd30a1c4aabd9fd276417f6671770dc0c3bddca76080bfd4fc37d85cf84260f06aaa8a15b141f2f98da4215dd9b59ac00000000"
    }
  ]
}