{
  "hash": "000000004a24f3f9059dab115d7358b7e9b19bef4cf64f86280ef7d38ae5964d",
  "confirmations": 51174,
  "height": 1924,
  "version": 1,
  "versionHex": "00000001",
  "merkleroot": "9b8c2e4916b0e2d5ac466c5ec6ae3b29ebb30ce487ad46a09e70727fb476e97f",
  "time": 1232985359,
  "mediantime": 1232976840,
  "nonce": 2342370858,
  "bits": "1d00ffff",
  "difficulty": 1,
  "chainwork": "0000000000000000000000000000000000000000000000000000078507850785",
  "nTx": 1,
  "previousblockhash": "0000000015c168937aec532f25fec48bd68188c9e0944d34da554e8008ceebb4",
  "nextblockhash": "000000004c2a22b369556e823dfe3c54e57f21044af3ddc00949d5b7268a33fa",
  "strippedsize": 215,
  "size": 215,
  "weight": 860,
  "tx": [
    {
      "txid": "9b8c2e4916b0e2d5ac466c5ec6ae3b29ebb30ce487ad46a09e70727fb476e97f",
      "hash": "9b8c2e4916b0e2d5ac466c5ec6ae3b29ebb30ce487ad46a09e70727fb476e97f",
      "version": 1,
      "size": 134,
      "vsize": 134,
      "weight": 536,
      "locktime": 0,
      "vin": [
        {
          "coinbase": "04ffff001d0108",
          "sequence": 4294967295
        }
      ],
      "vout": [
        {
          "value": 50.0,
          "n": 0,
          "scriptPubKey": {
            "asm": "04e332b67354006a2dc4047b69d4c7cd309e3cc3383d5c63b9c35a78922536a7f937250c873c1f633da2be392be439dbe1cd9b49a4d48350f6cdd3b500282dabe4 OP_CHECKSIG",
            "desc": "pk(04e332b67354006a2dc4047b69d4c7cd309e3cc3383d5c63b9c35a78922536a7f937250c873c1f633da2be392be439dbe1cd9b49a4d48350f6cdd3b500282dabe4)#25lk9ah9",
            "hex": "4104e332b67354006a2dc4047b69d4c7cd309e3cc3383d5c63b9c35a78922536a7f937250c873c1f633da2be392be439dbe1cd9b49a4d48350f6cdd3b500282dabe4ac",
            "type": "pubkey"
          }
        }
      ],
      "hex": "01000000010000000000000000000000000000000000000000000000000000000000000000ffffffff0704ffff001d0108ffffffff0100f2052a01000000434104e332b67354006a2dc4047b69d4c7cd309e3cc3383d5c63b9c35a78922536a7f937250c873c1f633da2be392be439dbe1cd9b49a4d48350f6cdd3b500282dabe4ac00000000"
    }
  ]
}