{
  "hash": "0000000073206ed6b450c75cedfa97ae033d3ed6866ba4ff83ccc35a388479e9",
  "confirmations": 47406,
  "height": 5692,
  "version": 1,
  "versionHex": "00000001",
  "merkleroot": "763471df3ab972a06d1e79beec627666d38a10e61e90905fcb5c053b6a900c85",
  "time": 1235681317,
  "mediantime": 1235677841,
  "nonce": 2834008358,
  "bits": "1d00ffff",
  "difficulty": 1,
  "chainwork": "0000000000000000000000000000000000000000000000000000163d163d163d",
  "nTx": 1,
  "previousblockhash": "0000000053722ba5c29caed83eccdd4fc56656f1609517048adc1143477ef1e9",
  "nextblockhash": "000000003f1bc1f4ac95537d79c9fb4bf77654ca1703c94d2b49f52e7574fb3c",
  "strippedsize": 216,
  "size": 216,
  "weight": 864,
  "tx": [
    {
      "txid": "763471df3ab972a06d1e79beec627666d38a10e61e90905fcb5c053b6a900c85",
      "hash": "763471df3ab972a06d1e79beec627666d38a10e61e90905fcb5c053b6a900c85",
      "version": 1,
      "size": 135,
      "vsize": 135,
      "weight": 540,
      "locktime": 0,
      "vin": [
        {
          "coinbase": "04ffff001d024c09",
          "sequence": 4294967295
        }
      ],
      "vout": [
        {
          "value": 50.0,
          "n": 0,
          "scriptPubKey": {
            "asm": "0426236a288606de9e2fe90a571b9bbaa5d65cbce28b43b9a5e7b4f661f09d0c4fb7ef42b167c47a1c96b55422da61583cebe34fe36a29724b54f7ff99f07ba402 OP_CHECKSIG",
            "desc": "pk(0426236a288606de9e2fe90a571b9bbaa5d65cbce28b43b9a5e7b4f661f09d0c4fb7ef42b167c47a1c96b55422da61583cebe34fe36a29724b54f7ff99f07ba402)#vx4f69qf",
            "hex": "410426236a288606de9e2fe90a571b9bbaa5d65cbce28b43b9a5e7b4f661f09d0c4fb7ef42b167c47a1c96b55422da61583cebe34fe36a29724b54f7ff99f07ba402ac",
            "type": "pubkey"
          }
        }
      ],
      "hex": "01000000010000000000000000000000000000000000000000000000000000000000000000ffffffff0804ffff001d024c09ffffffff0100f2052a0100000043410426236a288606de9e2fe90a571b9bbaa5d65cbce28b43b9a5e7b4f661f09d0c4fb7ef42b167c47a1c96b55422da61583cebe34fe36a29724b54f7ff99f07ba402ac00000000"
    }
  ]
}