{
  "hash": "00000000a13aa7ed9fd62a5c4597457a12c2ebabb403a148f87695a2fbbf5eb1",
  "confirmations": 46927,
  "height": 6171,
  "version": 1,
  "versionHex": "00000001",
  "merkleroot": "f269a8e56a813b8499536a53b39abea145489521aa77d23c37c322d8955d8b26",
  "time": 1236068688,
  "mediantime": 1236064741,
  "nonce": 356546094,
  "bits": "1d00ffff",
  "difficulty": 1,
  "chainwork": "0000000000000000000000000000000000000000000000000000181c181c181c",
  "nTx": 1,
  "previousblockhash": "00000000394cc54dee47569153413f1ccba4524d37746de5a74a1d2da3fadc32",
  "nextblockhash": "00000000076000759d847424be8a8028ce532ee34850b06ab00495ddd39b40a1",
  "strippedsize": 216,
  "size": 216,
  "weight": 864,
  "tx": [
    {
      "txid": "f269a8e56a813b8499536a53b39abea145489521aa77d23c37c322d8955d8b26",
      "hash": "f269a8e56a813b8499536a53b39abea145489521aa77d23c37c322d8955d8b26",
      "version": 1,
      "size": 135,
      "vsize": 135,
      "weight": 540,
      "locktime": 0,
      "vin": [
        {
          "coinbase": "04ffff001d02f407",
          "sequence": 4294967295
        }
      ],
      "vout": [
        {
          "value": 50.0,
          "n": 0,
          "scriptPubKey": {
            "asm": "048f8b9ff1581ec3aa6a9e3e113cdb18ffc682e1cfa2e857206bd1c2ecefc1c1017b81ed12876639144efa1987e8125d367d33ec6b18b80ba1864ca4092660d1ad OP_CHECKSIG",
            "desc": "pk(048f8b9ff1581ec3aa6a9e3e113cdb18ffc682e1cfa2e857206bd1c2ecefc1c1017b81ed12876639144efa1987e8125d367d33ec6b18b80ba1864ca4092660d1ad)#8u29wa82",
            "hex": "41048f8b9ff1581ec3aa6a9e3e113cdb18ffc682e1cfa2e857206bd1c2ecefc1c1017b81ed12876639144efa1987e8125d367d33ec6b18b80ba1864ca4092660d1adac",
            "type": "pubkey"
          }
        }
      ],
      "hex": "01000000010000000000000000000000000000000000000000000000000000000000000000ffffffff0804ffff001d02f407ffffffff0100f2052a010000004341048f8b9ff1581ec3aa6a9e3e113cdb18ffc682e1cfa2e857206bd1c2ecefc1c1017b81ed12876639144efa1987e8125d367d33ec6b18b80ba1864ca4092660d1adac00000000"
    }
  ]
}