{
  "hash": "0000000004360d38536083b7ce230f892ba7519f29645e8a64ff88c61e6bacc8",
  "confirmations": 45882,
  "height": 7216,
  "version": 1,
  "versionHex": "00000001",
  "merkleroot": "de505cbe13e2473314042abc9c05a06e4e2f1cfe388e9411a3c64ec3c906a4a4",
  "time": 1236882878,
  "mediantime": 1236880702,
  "nonce": 56229982,
  "bits": "1d00ffff",
  "difficulty": 1,
  "chainwork": "00000000000000000000000000000000000000000000000000001c311c311c31",
  "nTx": 1,
  "previousblockhash": "000000007711c5fea394d4f48ec6133916e6d62dbfab9afeac3d81409fe8ea82",
  "nextblockhash": "0000000032cf89506d8f27093464f1aaf7ae7452445359958383a1cf07277099",
  "strippedsize": 215,
  "size": 215,
  "weight": 860,
  "tx": [
    {
      "txid": "de505cbe13e2473314042abc9c05a06e4e2f1cfe388e9411a3c64ec3c906a4a4",
      "hash": "de505cbe13e2473314042abc9c05a06e4e2f1cfe388e9411a3c64ec3c906a4a4",
      "version": 1,
      "size": 134,
      "vsize": 134,
      "weight": 536,
      "locktime": 0,
      "vin": [
        {
          "coinbase": "04ffff001d0179",
          "sequence": 4294967295
        }
      ],
      "vout": [
        {
          "value": 50.0,
          "n": 0,
          "scriptPubKey": {
            "asm": "048be892f73ce24f46e331fed4168569a5de4d359fce7ed6ba39d3b084af681cbb97be809bab93bb3af64ef1737d47cfed644789b4937f7aadf7b871c5ba0ef4ae OP_CHECKSIG",
            "desc": "pk(048be892f73ce24f46e331fed4168569a5de4d359fce7ed6ba39d3b084af681cbb97be809bab93bb3af64ef1737d47cfed644789b4937f7aadf7b871c5ba0ef4ae)#2s7mf8el",
            "hex": "41048be892f73ce24f46e331fed4168569a5de4d359fce7ed6ba39d3b084af681cbb97be809bab93bb3af64ef1737d47cfed644789b4937f7aadf7b871c5ba0ef4aeac",
            "type": "pubkey"
          }
        }
      ],
      "hex": "01000000010000000000000000000000000000000000000000000000000000000000000000ffffffff0704ffff001d0179ffffffff0100f2052a010000004341048be892f73ce24f46e331fed4168569a5de4d359fce7ed6ba39d3b084af681cbb97be809bab93bb3af64ef1737d47cfed644789b4937f7aadf7b871c5ba0ef4aeac00000000"
    }
  ]
}