{
  "hash": "000000001d83cfea5352fcec06a9312bd248dae8763ced478e0560a7e3476d08",
  "confirmations": 50148,
  "height": 2950,
  "version": 1,
  "versionHex": "00000001",
  "merkleroot": "fa329521e26a54a5c37f6c4ff8a906b772b5f4a08c8c1a746bac7a3d463b8688",
  "time": 1233725172,
  "mediantime": 1233721457,
  "nonce": 4102999332,
  "bits": "1d00ffff",
  "difficulty": 1,
  "chainwork": "00000000000000000000000000000000000000000000000000000b870b870b87",
  "nTx": 1,
  "previousblockhash": "0000000037f5171ec12d77a798b7b003c89ef28d45192a4afdd9982a904a796b",
  "nextblockhash": "000000003139a0765e857ff33f55f8f2192137cc79906210a44d5c032c4da7c6",
  "strippedsize": 216,
  "size": 216,
  "weight": 864,
  "tx": [
    {
      "txid": "fa329521e26a54a5c37f6c4ff8a906b772b5f4a08c8c1a746bac7a3d463b8688",
      "hash": "fa329521e26a54a5c37f6c4ff8a906b772b5f4a08c8c1a746bac7a3d463b8688",
      "version": 1,
      "size": 135,
      "vsize": 135,
      "weight": 540,
      "locktime": 0,
      "vin": [
        {
          "coinbase": "04ffff001d029f00",
          "sequence": 4294967295
        }
      ],
      "vout": [
        {
          "value": 50.0,
          "n": 0,
          "scriptPubKey": {
            "asm": "045a6fc13247dba89068c4ed14ace7323e3457bbc27d2c3e87e458ce1ca1fbd775f4f0bdc8611fa0993e83bb8e391256ce35255230566dc09143792c6c5e6d6541 OP_CHECKSIG",
            "desc": "pk(045a6fc13247dba89068c4ed14ace7323e3457bbc27d2c3e87e458ce1ca1fbd775f4f0bdc8611fa0993e83bb8e391256ce35255230566dc09143792c6c5e6d6541)#llscqlz8",
            "hex": "41045a6fc13247dba89068c4ed14ace7323e3457bbc27d2c3e87e458ce1ca1fbd775f4f0bdc8611fa0993e83bb8e391256ce35255230566dc09143792c6c5e6d6541ac",
            "type": "pubkey"
          }
        }
      ],
      "hex": "01000000010000000000000000000000000000000000000000000000000000000000000000ffffffff0804ffff001d029f00ffffffff0100f2052a010000004341045a6fc13247dba89068c4ed14ace7323e3457bbc27d2c3e87e458ce1ca1fbd775f4f0bdc8611fa0993e83bb8e391256ce35255230566dc09143792c6c5e6d6541ac00000000"
    }
  ]
}