{
  "hash": "00000000be4c26329d295c97db1aa1739221116996295bcfd802972d596400ef",
  "confirmations": 43871,
  "height": 9227,
  "version": 1,
  "versionHex": "00000001",
  "merkleroot": "9b3256b6d5fd905afc3b1c7dde53340511369822459205cef61f88605e55546f",
  "time": 1238418834,
  "mediantime": 1238416554,
  "nonce": 1230429490,
  "bits": "1d00ffff",
  "difficulty": 1,
  "chainwork": "0000000000000000000000000000000000000000000000000000240c240c240c",
  "nTx": 1,
  "previousblockhash": "00000000ec6faad2613354c3b252afee19ed570f623870a04025653966e269ee",
  "nextblockhash": "000000002700e2f52927b3c3d9d581ba75975610da60d36c7e7fb2140fb4003f",
  "strippedsize": 215,
  "size": 215,
  "weight": 860,
  "tx": [
    {
      "txid": "9b3256b6d5fd905afc3b1c7dde53340511369822459205cef61f88605e55546f",
      "hash": "9b3256b6d5fd905afc3b1c7dde53340511369822459205cef61f88605e55546f",
      "version": 1,
      "size": 134,
      "vsize": 134,
      "weight": 536,
      "locktime": 0,
      "vin": [
        {
          "coinbase": "04ffff001d0173",
          "sequence": 4294967295
        }
      ],
      "vout": [
        {
          "value": 50.0,
          "n": 0,
          "scriptPubKey": {
            "asm": "04f75b77ccabd8f3ee2f7f13533e715e9ed9190763dda9ed1368880cd3366718fe93e9d4e103d8ec3a4d92aba352d2218f83162bf936f42980b2a142d9bdc090c4 OP_CHECKSIG",
            "desc": "pk(04f75b77ccabd8f3ee2f7f13533e715e9ed9190763dda9ed1368880cd3366718fe93e9d4e103d8ec3a4d92aba352d2218f83162bf936f42980b2a142d9bdc090c4)#kvn7wgvy",
            "hex": "4104f75b77ccabd8f3ee2f7f13533e715e9ed9190763dda9ed1368880cd3366718fe93e9d4e103d8ec3a4d92aba352d2218f83162bf936f42980b2a142d9bdc090c4ac",
            "type": "pubkey"
          }
        }
      ],
      "hex": "01000000010000000000000000000000000000000000000000000000000000000000000000ffffffff0704ffff001d0173ffffffff0100f2052a01000000434104f75b77ccabd8f3ee2f7f13533e715e9ed9190763dda9ed1368880cd3366718fe93e9d4e103d8ec3a4d92aba352d2218f83162bf936f42980b2a142d9bdc090c4ac00000000"
    }
  ]
}