{
  "hash": "00000000ae55da4655c497359709a65c51bc5740e41af3362fe0be7a79ef041b",
  "confirmations": 45482,
  "height": 7616,
  "version": 1,
  "versionHex": "00000001",
  "merkleroot": "45746eefdae5e483890dbf16935353a7a735b0b60bf34a6ea1f218f2968ec91a",
  "time": 1237179642,
  "mediantime": 1237176001,
  "nonce": 1250824750,
  "bits": "1d00ffff",
  "difficulty": 1,
  "chainwork": "00000000000000000000000000000000000000000000000000001dc11dc11dc1",
  "nTx": 1,
  "previousblockhash": "000000009b36a37d3e6613c7351b06237013643818667ac1c3b5c96177cdca65",
  "nextblockhash": "00000000e623ff9101732b8e460de88157e65fc5e100a9840796a95037064744",
  "strippedsize": 216,
  "size": 216,
  "weight": 864,
  "tx": [
    {
      "txid": "45746eefdae5e483890dbf16935353a7a735b0b60bf34a6ea1f218f2968ec91a",
      "hash": "45746eefdae5e483890dbf16935353a7a735b0b60bf34a6ea1f218f2968ec91a",
      "version": 1,
      "size": 135,
      "vsize": 135,
      "weight": 540,
      "locktime": 0,
      "vin": [
        {
          "coinbase": "04ffff001d02d702",
          "sequence": 4294967295
        }
      ],
      "vout": [
        {
          "value": 50.0,
          "n": 0,
          "scriptPubKey": {
            "asm": "043781efe7e7d33d7c997ce4a7cd8bcc7bb2a4c99c301377442f4c425af4a22acadc0f16e6fb81b4c810c241ec544d53271aa33747be9514f988e4db520f21c769 OP_CHECKSIG",
            "desc": "pk(043781efe7e7d33d7c997ce4a7cd8bcc7bb2a4c99c301377442f4c425af4a22acadc0f16e6fb81b4c810c241ec544d53271aa33747be9514f988e4db520f21c769)#3fksn0xk",
            "hex": "41043781efe7e7d33d7c997ce4a7cd8bcc7bb2a4c99c301377442f4c425af4a22acadc0f16e6fb81b4c810c241ec544d53271aa33747be9514f988e4db520f21c769ac",
            "type": "pubkey"
          }
        }
      ],
      "hex": "01000000010000000000000000000000000000000000000000000000000000000000000000ffffffff0804ffff001d02d702ffffffff0100f2052a010000004341043781efe7e7d33d7c997ce4a7cd8bcc7bb2a4c99c301377442f4c425af4a22acadc0f16e6fb81b4c810c241ec544d53271aa33747be9514f988e4db520f21c769ac00000000"
    }
  ]
}