{
  "hash": "00000000645b15f8aa73a5e715e35a22fb59144498bbb3b784a47a340ef6af9a",
  "confirmations": 45955,
  "height": 7143,
  "version": 1,
  "versionHex": "00000001",
  "merkleroot": "b264e3eef754ea8b0927955a8ea58fc6fdc40b7a3d4cc6c56e38d1caabb5eab4",
  "time": 1236829777,
  "mediantime": 1236824275,
  "nonce": 4069174537,
  "bits": "1d00ffff",
  "difficulty": 1,
  "chainwork": "00000000000000000000000000000000000000000000000000001be81be81be8",
  "nTx": 1,
  "previousblockhash": "000000004b7c186e1ab61f6bbc008236e1e78717620c18046a2f5c4e633072c2",
  "nextblockhash": "000000002612547d0fcea4f7d8b80a3df6659b71d346e3d306a3c86e21be8d22",
  "strippedsize": 216,
  "size": 216,
  "weight": 864,
  "tx": [
    {
      "txid": "b264e3eef754ea8b0927955a8ea58fc6fdc40b7a3d4cc6c56e38d1caabb5eab4",
      "hash": "b264e3eef754ea8b0927955a8ea58fc6fdc40b7a3d4cc6c56e38d1caabb5eab4",
      "version": 1,
      "size": 135,
      "vsize": 135,
      "weight": 540,
      "locktime": 0,
      "vin": [
        {
          "coinbase": "04ffff001d02dd04",
          "sequence": 4294967295
        }
      ],
      "vout": [
        {
          "value": 50.0,
          "n": 0,
          "scriptPubKey": {
            "asm": "04522a673f8646b654533b1369841cc59e701753f1238967b837793f0f5d6c31a146ccbfaa2573abe3e81d09b7279b12b08b9069fec7e7a493ff558f98e082a500 OP_CHECKSIG",
            "desc": "pk(04522a673f8646b654533b1369841cc59e701753f1238967b837793f0f5d6c31a146ccbfaa2573abe3e81d09b7279b12b08b9069fec7e7a493ff558f98e082a500)#y88sxsx9",
            "hex": "4104522a673f8646b654533b1369841cc59e701753f1238967b837793f0f5d6c31a146ccbfaa2573abe3e81d09b7279b12b08b9069fec7e7a493ff558f98e082a500ac",
            "type": "pubkey"
          }
        }
      ],
      "hex": "01000000010000000000000000000000000000000000000000000000000000000000000000ffffffff0804ffff001d02dd04ffffffff0100f2052a01000000434104522a673f8646b654533b1369841cc59e701753f1238967b837793f0f5d6c31a146ccbfaa2573abe3e81d09b7279b12b08b9069fec7e7a493ff558f98e082a500ac00000000"
    }
  ]
}