{
  "hash": "00000000e82ac6f00d6a2e639b98e920162c994aa90814bf38627100d3e9ddf0",
  "confirmations": 51714,
  "height": 1384,
  "version": 1,
  "versionHex": "00000001",
  "merkleroot": "7ee09ed6c5fdd935b104a0db40fb272adbabcc630e6794df77698e4055b744b6",
  "time": 1232668013,
  "mediantime": 1232665064,
  "nonce": 2206887426,
  "bits": "1d00ffff",
  "difficulty": 1,
  "chainwork": "0000000000000000000000000000000000000000000000000000056905690569",
  "nTx": 1,
  "previousblockhash": "00000000ef5cef7ebfb1e90d336962bdb66b7376e090c04715d863dad2d48042",
  "nextblockhash": "0000000020f954057fcc0743b5d1d09c5fc2d9a0bab4f26eba7444b809e4807a",
  "strippedsize": 216,
  "size": 216,
  "weight": 864,
  "tx": [
    {
      "txid": "7ee09ed6c5fdd935b104a0db40fb272adbabcc630e6794df77698e4055b744b6",
      "hash": "7ee09ed6c5fdd935b104a0db40fb272adbabcc630e6794df77698e4055b744b6",
      "version": 1,
      "size": 135,
      "vsize": 135,
      "weight": 540,
      "locktime": 0,
      "vin": [
        {
          "coinbase": "04ffff001d02db01",
          "sequence": 4294967295
        }
      ],
      "vout": [
        {
          "value": 50.0,
          "n": 0,
          "scriptPubKey": {
            "asm": "04b8475671889c5aa6e97c7cd2b4d302b605fb928039c1d9a3a471acb14ff63ddbbf96967283766cf736216297e849bb5f3490c0debb7f75ebfde8bca06fefd465 OP_CHECKSIG",
            "desc": "pk(04b8475671889c5aa6e97c7cd2b4d302b605fb928039c1d9a3a471acb14ff63ddbbf96967283766cf736216297e849bb5f3490c0debb7f75ebfde8bca06fefd465)#f9xpyw8y",
            "hex": "4104b8475671889c5aa6e97c7cd2b4d302b605fb928039c1d9a3a471acb14ff63ddbbf96967283766cf736216297e849bb5f3490c0debb7f75ebfde8bca06fefd465ac",
            "type": "pubkey"
          }
        }
      ],
      "hex": "01000000010000000000000000000000000000000000000000000000000000000000000000ffffffff0804ffff001d02db01ffffffff0100f2052a01000000434104b8475671889c5aa6e97c7cd2b4d302b605fb928039c1d9a3a471acb14ff63ddbbf96967283766cf736216297e849bb5f3490c0debb7f75ebfde8bca06fefd465ac00000000"
    }
  ]
}