{
  "hash": "00000000a3633674322a3ad241b11175f7200503e12e9948090dfbbaf8aa83ce",
  "confirmations": 50554,
  "height": 2544,
  "version": 1,
  "versionHex": "00000001",
  "merkleroot": "fa7c4124942d27e5f411bf34263c410d7ad17bc24870a1c913b6c35dc42a4e90",
  "time": 1233446920,
  "mediantime": 1233444068,
  "nonce": 2640049459,
  "bits": "1d00ffff",
  "difficulty": 1,
  "chainwork": "000000000000000000000000000000000000000000000000000009f109f109f1",
  "nTx": 1,
  "previousblockhash": "00000000fc475c10ab951e3a3b01b45478de43741cba68a8bddcd28063fb686d",
  "nextblockhash": "000000005cba1279152a1d599e1bf8230345c17032065b9ea8c5360270c33b39",
  "strippedsize": 216,
  "size": 216,
  "weight": 864,
  "tx": [
    {
      "txid": "fa7c4124942d27e5f411bf34263c410d7ad17bc24870a1c913b6c35dc42a4e90",
      "hash": "fa7c4124942d27e5f411bf34263c410d7ad17bc24870a1c913b6c35dc42a4e90",
      "version": 1,
      "size": 135,
      "vsize": 135,
      "weight": 540,
      "locktime": 0,
      "vin": [
        {
          "coinbase": "04ffff001d02b901",
          "sequence": 4294967295
        }
      ],
      "vout": [
        {
          "value": 50.0,
          "n": 0,
          "scriptPubKey": {
            "asm": "04888a6c659b56f3ad2d652fe045ab14f441605c31bbcc70782ae203180fa5ebb2f1fa4ba182e6d4af03361eeeb9de584c45726ee43c877011aca930dc89119904 OP_CHECKSIG",
            "desc": "pk(04888a6c659b56f3ad2d652fe045ab14f441605c31bbcc70782ae203180fa5ebb2f1fa4ba182e6d4af03361eeeb9de584c45726ee43c877011aca930dc89119904)#xz3w7xu2",
            "hex": "4104888a6c659b56f3ad2d652fe045ab14f441605c31bbcc70782ae203180fa5ebb2f1fa4ba182e6d4af03361eeeb9de584c45726ee43c877011aca930dc89119904ac",
            "type": "pubkey"
          }
        }
      ],
      "hex": "01000000010000000000000000000000000000000000000000000000000000000000000000ffffffff0804ffff001d02b901ffffffff0100f2052a01000000434104888a6c659b56f3ad2d652fe045ab14f441605c31bbcc70782ae203180fa5ebb2f1fa4ba182e6d4af03361eeeb9de584c45726ee43c877011aca930dc89119904ac00000000"
    }
  ]
}