{
  "hash": "0000000081fb4ba2876b73465c44cbd8b2645354aa9acfab02c7a02bdeb6b65c",
  "confirmations": 47311,
  "height": 5787,
  "version": 1,
  "versionHex": "00000001",
  "merkleroot": "2986a5b0507cc507c35002e44dc66ee2dfe7bb5df7db00a6ea743057f186af16",
  "time": 1235751087,
  "mediantime": 1235746420,
  "nonce": 1014687269,
  "bits": "1d00ffff",
  "difficulty": 1,
  "chainwork": "0000000000000000000000000000000000000000000000000000169c169c169c",
  "nTx": 1,
  "previousblockhash": "0000000082512ffda27fd65932cf4bab94dc7d667f483a1c1a2acf2029d90f0b",
  "nextblockhash": "00000000fba87969be71e6f44277e1ae6547b90a2cdd76ea4b5fdf5096c243ef",
  "strippedsize": 216,
  "size": 216,
  "weight": 864,
  "tx": [
    {
      "txid": "2986a5b0507cc507c35002e44dc66ee2dfe7bb5df7db00a6ea743057f186af16",
      "hash": "2986a5b0507cc507c35002e44dc66ee2dfe7bb5df7db00a6ea743057f186af16",
      "version": 1,
      "size": 135,
      "vsize": 135,
      "weight": 540,
      "locktime": 0,
      "vin": [
        {
          "coinbase": "04ffff001d028900",
          "sequence": 4294967295
        }
      ],
      "vout": [
        {
          "value": 50.0,
          "n": 0,
          "scriptPubKey": {
            "asm": "04c17a9e96c24c29fc8991d535207e2f48c51ce374f1cc02bccbb0e78cd68caca3b693da5c56c6894d9b0323841bb4f5c4cbbfbab2556b6db2fe5c5ba06891d2eb OP_CHECKSIG",
            "desc": "pk(04c17a9e96c24c29fc8991d535207e2f48c51ce374f1cc02bccbb0e78cd68caca3b693da5c56c6894d9b0323841bb4f5c4cbbfbab2556b6db2fe5c5ba06891d2eb)#cnvczrr3",
            "hex": "4104c17a9e96c24c29fc8991d535207e2f48c51ce374f1cc02bccbb0e78cd68caca3b693da5c56c6894d9b0323841bb4f5c4cbbfbab2556b6db2fe5c5ba06891d2ebac",
            "type": "pubkey"
          }
        }
      ],
      "hex": "01000000010000000000000000000000000000000000000000000000000000000000000000ffffffff0804ffff001d028900ffffffff0100f2052a01000000434104c17a9e96c24c29fc8991d535207e2f48c51ce374f1cc02bccbb0e78cd68caca3b693da5c56c6894d9b0323841bb4f5c4cbbfbab2556b6db2fe5c5ba06891d2ebac00000000"
    }
  ]
}