{
  "hash": "00000000e23049eb5996fd8985fe1a4d033ef5bddc05a5e1cf5f6511398c15f5",
  "confirmations": 50912,
  "height": 2186,
  "version": 1,
  "versionHex": "00000001",
  "merkleroot": "b92ce88587c5b60c348196d1c565bfc1570f5f1754a0c82201f69d865ea21c2d",
  "time": 1233204480,
  "mediantime": 1233200051,
  "nonce": 214360309,
  "bits": "1d00ffff",
  "difficulty": 1,
  "chainwork": "0000000000000000000000000000000000000000000000000000088b088b088b",
  "nTx": 1,
  "previousblockhash": "000000006a9a9a493078ad2831b9fa32695d9701019b3cf97114dba87e4054aa",
  "nextblockhash": "00000000cae563ab1664f9981aadf913f9d8d92712763f43b5a683d13b9fd1ef",
  "strippedsize": 215,
  "size": 215,
  "weight": 860,
  "tx": [
    {
      "txid": "b92ce88587c5b60c348196d1c565bfc1570f5f1754a0c82201f69d865ea21c2d",
      "hash": "b92ce88587c5b60c348196d1c565bfc1570f5f1754a0c82201f69d865ea21c2d",
      "version": 1,
      "size": 134,
      "vsize": 134,
      "weight": 536,
      "locktime": 0,
      "vin": [
        {
          "coinbase": "04ffff001d014d",
          "sequence": 4294967295
        }
      ],
      "vout": [
        {
          "value": 50.0,
          "n": 0,
          "scriptPubKey": {
            "asm": "043ce2fdabd6b1e3ef582bb719af11265a1a59ce1b972dc321d5ea358d19dab379b86b4e2da885f524a6e0216ddbe4f82cf66ae80f96f628765fd54c24550b66b5 OP_CHECKSIG",
            "desc": "pk(043ce2fdabd6b1e3ef582bb719af11265a1a59ce1b972dc321d5ea358d19dab379b86b4e2da885f524a6e0216ddbe4f82cf66ae80f96f628765fd54c24550b66b5)#uanummtd",
            "hex": "41043ce2fdabd6b1e3ef582bb719af11265a1a59ce1b972dc321d5ea358d19dab379b86b4e2da885f524a6e0216ddbe4f82cf66ae80f96f628765fd54c24550b66b5ac",
            "type": "pubkey"
          }
        }
      ],
      "hex": "01000000010000000000000000000000000000000000000000000000000000000000000000ffffffff0704ffff001d014dffffffff0100f2052a010000004341043ce2fdabd6b1e3ef582bb719af11265a1a59ce1b972dc321d5ea358d19dab379b86b4e2da885f524a6e0216ddbe4f82cf66ae80f96f628765fd54c24550b66b5ac00000000"
    }
  ]
}