{
  "hash": "00000000551d6d74c20b6cf721470c85e0db58cd8dce4feee3d9537d9097a29a",
  "confirmations": 45246,
  "height": 7852,
  "version": 1,
  "versionHex": "00000001",
  "merkleroot": "4256de1fa771a993f71ecad7cf1479d693556e186d8705f559de8f51d4e8d11d",
  "time": 1237351788,
  "mediantime": 1237349054,
  "nonce": 75496996,
  "bits": "1d00ffff",
  "difficulty": 1,
  "chainwork": "00000000000000000000000000000000000000000000000000001ead1ead1ead",
  "nTx": 1,
  "previousblockhash": "0000000071c93c1b85a9d259786cb8fd604f3ac366e26428bdff4e18e0b37085",
  "nextblockhash": "0000000005b20bb1fe4821dc10b369e453a7642e1279419126efe34f1e2bee82",
  "strippedsize": 215,
  "size": 215,
  "weight": 860,
  "tx": [
    {
      "txid": "4256de1fa771a993f71ecad7cf1479d693556e186d8705f559de8f51d4e8d11d",
      "hash": "4256de1fa771a993f71ecad7cf1479d693556e186d8705f559de8f51d4e8d11d",
      "version": 1,
      "size": 134,
      "vsize": 134,
      "weight": 536,
      "locktime": 0,
      "vin": [
        {
          "coinbase": "04ffff001d0122",
          "sequence": 4294967295
        }
      ],
      "vout": [
        {
          "value": 50.0,
          "n": 0,
          "scriptPubKey": {
            "asm": "04f19643531c8a91939ae951a7deb2f81d783dc0365e50d17c6a48d95c33c47aed1734365fdc8e571bcd7dee55dc16589941ba117f6ea0915cc99b50e6e8bc12b2 OP_CHECKSIG",
            "desc": "pk(04f19643531c8a91939ae951a7deb2f81d783dc0365e50d17c6a48d95c33c47aed1734365fdc8e571bcd7dee55dc16589941ba117f6ea0915cc99b50e6e8bc12b2)#48vfasv2",
            "hex": "4104f19643531c8a91939ae951a7deb2f81d783dc0365e50d17c6a48d95c33c47aed1734365fdc8e571bcd7dee55dc16589941ba117f6ea0915cc99b50e6e8bc12b2ac",
            "type": "pubkey"
          }
        }
      ],
      "hex": "01000000010000000000000000000000000000000000000000000000000000000000000000ffffffff0704ffff001d0122ffffffff0100f2052a01000000434104f19643531c8a91939ae951a7deb2f81d783dc0365e50d17c6a48d95c33c47aed1734365fdc8e571bcd7dee55dc16589941ba117f6ea0915cc99b50e6e8bc12b2ac00000000"
    }
  ]
}