{
  "hash": "00000000de934300732c23fa07ebc4778d9b64a14d998e6eb3cffbefe01ad950",
  "confirmations": 43468,
  "height": 9630,
  "version": 1,
  "versionHex": "00000001",
  "merkleroot": "72ec438bc864a51ac3bf22418e34a65513225e3e20293701e05441d2f70f93a4",
  "time": 1238724714,
  "mediantime": 1238720968,
  "nonce": 2665412631,
  "bits": "1d00ffff",
  "difficulty": 1,
  "chainwork": "0000000000000000000000000000000000000000000000000000259f259f259f",
  "nTx": 1,
  "previousblockhash": "000000008b57d05f433a6fcf0942b7fef226678fc0a6a623088fd846f48274e0",
  "nextblockhash": "0000000059958a2cc66e0d460faa7d11f4bff6a332ccac1c1435d25fd812a4d4",
  "strippedsize": 216,
  "size": 216,
  "weight": 864,
  "tx": [
    {
      "txid": "72ec438bc864a51ac3bf22418e34a65513225e3e20293701e05441d2f70f93a4",
      "hash": "72ec438bc864a51ac3bf22418e34a65513225e3e20293701e05441d2f70f93a4",
      "version": 1,
      "size": 135,
      "vsize": 135,
      "weight": 540,
      "locktime": 0,
      "vin": [
        {
          "coinbase": "04ffff001d028507",
          "sequence": 4294967295
        }
      ],
      "vout": [
        {
          "value": 50.0,
          "n": 0,
          "scriptPubKey": {
            "asm": "04571e101f9f1509e5e6e525f1d090b91943b36365ab682b9217136f128b83bc4e1cec18272b7d3122093b43117f6df64690de49afc927dfec29da4932fbda7e4a OP_CHECKSIG",
            "desc": "pk(04571e101f9f1509e5e6e525f1d090b91943b36365ab682b9217136f128b83bc4e1cec18272b7d3122093b43117f6df64690de49afc927dfec29da4932fbda7e4a)#yauuemmm",
            "hex": "4104571e101f9f1509e5e6e525f1d090b91943b36365ab682b9217136f128b83bc4e1cec18272b7d3122093b43117f6df64690de49afc927dfec29da4932fbda7e4aac",
            "type": "pubkey"
          }
        }
      ],
      "hex": "01000000010000000000000000000000000000000000000000000000000000000000000000ffffffff0804ffff001d028507ffffffff0100f2052a01000000434104571e101f9f1509e5e6e525f1d090b91943b36365ab682b9217136f128b83bc4e1cec18272b7d3122093b43117f6df64690de49afc927dfec29da4932fbda7e4aac00000000"
    }
  ]
}