{
  "hash": "00000000ecd78365eaccf46fe35f61aa1b4d79888c3a50cd781f061b6010d18d",
  "confirmations": 44047,
  "height": 9051,
  "version": 1,
  "versionHex": "00000001",
  "merkleroot": "053f4fbe67e2fb2342668f6826cb146de91c5639bf2450470b544e327b4080f2",
  "time": 1238294395,
  "mediantime": 1238285650,
  "nonce": 2304385331,
  "bits": "1d00ffff",
  "difficulty": 1,
  "chainwork": "0000000000000000000000000000000000000000000000000000235c235c235c",
  "nTx": 1,
  "previousblockhash": "000000009a3062e2131984c6cf0b589c1eff5c9a50ff663c23e39670d325ee26",
  "nextblockhash": "000000008e8e06813da4d90b6e4e88a35b552d730f1fba0ae557707d362a6f47",
  "strippedsize": 216,
  "size": 216,
  "weight": 864,
  "tx": [
    {
      "txid": "053f4fbe67e2fb2342668f6826cb146de91c5639bf2450470b544e327b4080f2",
      "hash": "053f4fbe67e2fb2342668f6826cb146de91c5639bf2450470b544e327b4080f2",
      "version": 1,
      "size": 135,
      "vsize": 135,
      "weight": 540,
      "locktime": 0,
      "vin": [
        {
          "coinbase": "04ffff001d024507",
          "sequence": 4294967295
        }
      ],
      "vout": [
        {
          "value": 50.0,
          "n": 0,
          "scriptPubKey": {
            "asm": "04b00c7ea254871b3b9459187c9048ffad4b498d723ae5ff5a37620cea282e1e187bbbce784684cd72ea4883f3e54ae7224dc0491df321f349342894c4c56573af OP_CHECKSIG",
            "desc": "pk(04b00c7ea254871b3b9459187c9048ffad4b498d723ae5ff5a37620cea282e1e187bbbce784684cd72ea4883f3e54ae7224dc0491df321f349342894c4c56573af)#flp83q5c",
            "hex": "4104b00c7ea254871b3b9459187c9048ffad4b498d723ae5ff5a37620cea282e1e187bbbce784684cd72ea4883f3e54ae7224dc0491df321f349342894c4c56573afac",
            "type": "pubkey"
          }
        }
      ],
      "hex": "01000000010000000000000000000000000000000000000000000000000000000000000000ffffffff0804ffff001d024507ffffffff0100f2052a01000000434104b00c7ea254871b3b9459187c9048ffad4b498d723ae5ff5a37620cea282e1e187bbbce784684cd72ea4883f3e54ae7224dc0491df321f349342894c4c56573afac00000000"
    }
  ]
}