{
  "hash": "00000000191745f19a7ca2fb515a2b1f7594e89bd843c9118c831e3541eb266b",
  "confirmations": 48775,
  "height": 4323,
  "version": 1,
  "versionHex": "00000001",
  "merkleroot": "56858a870a5cc7b7a574b19154adf97b767b6942404360de0c8b6ccbf3f12125",
  "time": 1234661085,
  "mediantime": 1234656419,
  "nonce": 2549258023,
  "bits": "1d00ffff",
  "difficulty": 1,
  "chainwork": "000000000000000000000000000000000000000000000000000010e410e410e4",
  "nTx": 1,
  "previousblockhash": "000000005223d36253e5d60c73d7aa3a3581aca082216044f1b7f58572900db5",
  "nextblockhash": "00000000372169662fc63fa89918568338313469cc633e3c7cc21a27372a5c57",
  "strippedsize": 215,
  "size": 215,
  "weight": 860,
  "tx": [
    {
      "txid": "56858a870a5cc7b7a574b19154adf97b767b6942404360de0c8b6ccbf3f12125",
      "hash": "56858a870a5cc7b7a574b19154adf97b767b6942404360de0c8b6ccbf3f12125",
      "version": 1,
      "size": 134,
      "vsize": 134,
      "weight": 536,
      "locktime": 0,
      "vin": [
        {
          "coinbase": "04ffff001d0142",
          "sequence": 4294967295
        }
      ],
      "vout": [
        {
          "value": 50.0,
          "n": 0,
          "scriptPubKey": {
            "asm": "044e07937deab7c96a4ac1a756e4e7b334ae3fd58e30a0b1735d5cefe930529b12e0977825854ebbd27570b8823523179f050c4b43e98c46980763a0a3ff8410fa OP_CHECKSIG",
            "desc": "pk(044e07937deab7c96a4ac1a756e4e7b334ae3fd58e30a0b1735d5cefe930529b12e0977825854ebbd27570b8823523179f050c4b43e98c46980763a0a3ff8410fa)#fu4z365s",
            "hex": "41044e07937deab7c96a4ac1a756e4e7b334ae3fd58e30a0b1735d5cefe930529b12e0977825854ebbd27570b8823523179f050c4b43e98c46980763a0a3ff8410faac",
            "type": "pubkey"
          }
        }
      ],
      "hex": "01000000010000000000000000000000000000000000000000000000000000000000000000ffffffff0704ffff001d0142ffffffff0100f2052a010000004341044e07937deab7c96a4ac1a756e4e7b334ae3fd58e30a0b1735d5cefe930529b12e0977825854ebbd27570b8823523179f050c4b43e98c46980763a0a3ff8410faac00000000"
    }
  ]
}