{
  "hash": "0000000079c4800a1f1a60d6a2e39dd37641b9f00e11edc0a30e4ddd3b95f14d",
  "confirmations": 51065,
  "height": 2033,
  "version": 1,
  "versionHex": "00000001",
  "merkleroot": "1331d6ce3d16439813d1669a318ecee67effb3fff2ebeb260341bc6298c34eb7",
  "time": 1233077691,
  "mediantime": 1233074381,
  "nonce": 8535036,
  "bits": "1d00ffff",
  "difficulty": 1,
  "chainwork": "000000000000000000000000000000000000000000000000000007f207f207f2",
  "nTx": 1,
  "previousblockhash": "00000000b4917905c6183a5f94eec3413800842757bd48c773e14165883bfcbf",
  "nextblockhash": "00000000aee0dbe3b27059da0a4410e4d59b3d70959f01ed21269dfab332d425",
  "strippedsize": 215,
  "size": 215,
  "weight": 860,
  "tx": [
    {
      "txid": "1331d6ce3d16439813d1669a318ecee67effb3fff2ebeb260341bc6298c34eb7",
      "hash": "1331d6ce3d16439813d1669a318ecee67effb3fff2ebeb260341bc6298c34eb7",
      "version": 1,
      "size": 134,
      "vsize": 134,
      "weight": 536,
      "locktime": 0,
      "vin": [
        {
          "coinbase": "04ffff001d0154",
          "sequence": 4294967295
        }
      ],
      "vout": [
        {
          "value": 50.0,
          "n": 0,
          "scriptPubKey": {
            "asm": "044849098810c0b4131a5d759db2966ab46a69eb65ba9f3ad9ebfb3e4e729c3f546617d0d8beb93480f3ac0c54a851ffda123b5418198413cff9c1dd1a63db99d8 OP_CHECKSIG",
            "desc": "pk(044849098810c0b4131a5d759db2966ab46a69eb65ba9f3ad9ebfb3e4e729c3f546617d0d8beb93480f3ac0c54a851ffda123b5418198413cff9c1dd1a63db99d8)#3qkjsetm",
            "hex": "41044849098810c0b4131a5d759db2966ab46a69eb65ba9f3ad9ebfb3e4e729c3f546617d0d8beb93480f3ac0c54a851ffda123b5418198413cff9c1dd1a63db99d8ac",
            "type": "pubkey"
          }
        }
      ],
      "hex": "01000000010000000000000000000000000000000000000000000000000000000000000000ffffffff0704ffff001d0154ffffffff0100f2052a010000004341044849098810c0b4131a5d759db2966ab46a69eb65ba9f3ad9ebfb3e4e729c3f546617d0d8beb93480f3ac0c54a851ffda123b5418198413cff9c1dd1a63db99d8ac00000000"
    }
  ]
}