{
  "hash": "000000005c1911c1fced1a592b9ac697acf1e54bb46302cd7ec82de2570d9c87",
  "confirmations": 43478,
  "height": 9620,
  "version": 1,
  "versionHex": "00000001",
  "merkleroot": "2d24bd78675f1eac223285c04e6a7a8145cbcd9feb63e5cc5419fb4c5229815d",
  "time": 1238718614,
  "mediantime": 1238712887,
  "nonce": 3839804463,
  "bits": "1d00ffff",
  "difficulty": 1,
  "chainwork": "0000000000000000000000000000000000000000000000000000259525952595",
  "nTx": 1,
  "previousblockhash": "00000000e7fd9047c192354a49aa03559ffff0eee07bdbc5c08100357f0706a6",
  "nextblockhash": "0000000002026d84baaf6c16bbc54f39bb89f10aa1b135d05265fad0266976a7",
  "strippedsize": 216,
  "size": 216,
  "weight": 864,
  "tx": [
    {
      "txid": "2d24bd78675f1eac223285c04e6a7a8145cbcd9feb63e5cc5419fb4c5229815d",
      "hash": "2d24bd78675f1eac223285c04e6a7a8145cbcd9feb63e5cc5419fb4c5229815d",
      "version": 1,
      "size": 135,
      "vsize": 135,
      "weight": 540,
      "locktime": 0,
      "vin": [
        {
          "coinbase": "04ffff001d026307",
          "sequence": 4294967295
        }
      ],
      "vout": [
        {
          "value": 50.0,
          "n": 0,
          "scriptPubKey": {
            "asm": "04ff30f965474d2834e7623d2cf9231a8bc524fbf49395ba267b80115da8a044606ae261a0c8451ccf8a01e0ee9c23a0991addebe5d73ab2dccc684974b4501260 OP_CHECKSIG",
            "desc": "pk(04ff30f965474d2834e7623d2cf9231a8bc524fbf49395ba267b80115da8a044606ae261a0c8451ccf8a01e0ee9c23a0991addebe5d73ab2dccc684974b4501260)#we94r59n",
            "hex": "4104ff30f965474d2834e7623d2cf9231a8bc524fbf49395ba267b80115da8a044606ae261a0c8451ccf8a01e0ee9c23a0991addebe5d73ab2dccc684974b4501260ac",
            "type": "pubkey"
          }
        }
      ],
      "hex": "01000000010000000000000000000000000000000000000000000000000000000000000000ffffffff0804ffff001d026307ffffffff0100f2052a01000000434104ff30f965474d2834e7623d2cf9231a8bc524fbf49395ba267b80115da8a044606ae261a0c8451ccf8a01e0ee9c23a0991addebe5d73ab2dccc684974b4501260ac00000000"
    }
  ]
}