{
  "hash": "000000008d790aff3e5521bdb8642ff1dd37588fbb58c70f0741d77125c2b1e0",
  "confirmations": 44675,
  "height": 8423,
  "version": 1,
  "versionHex": "00000001",
  "merkleroot": "fd58a5149af5b02d69e50276e2b1fd5fc41b7f8e2368f4388d30552fb17b4de9",
  "time": 1237813723,
  "mediantime": 1237811312,
  "nonce": 118574899,
  "bits": "1d00ffff",
  "difficulty": 1,
  "chainwork": "000000000000000000000000000000000000000000000000000020e820e820e8",
  "nTx": 1,
  "previousblockhash": "00000000996e66837d53c82651287d97d0c6bbc1944a6f02abb52528332eb78c",
  "nextblockhash": "0000000006c798269da12844788123dc62affb3ddb4fd3c8c2ff733dd9da620e",
  "strippedsize": 216,
  "size": 216,
  "weight": 864,
  "tx": [
    {
      "txid": "fd58a5149af5b02d69e50276e2b1fd5fc41b7f8e2368f4388d30552fb17b4de9",
      "hash": "fd58a5149af5b02d69e50276e2b1fd5fc41b7f8e2368f4388d30552fb17b4de9",
      "version": 1,
      "size": 135,
      "vsize": 135,
      "weight": 540,
      "locktime": 0,
      "vin": [
        {
          "coinbase": "04ffff001d02ae01",
          "sequence": 4294967295
        }
      ],
      "vout": [
        {
          "value": 50.0,
          "n": 0,
          "scriptPubKey": {
            "asm": "04de0e60532eff1a9468cd62662697b2a35c367f7dab102130139c12e08b93a890c601a1ed5bb40a7d55bd1b9d5f9aae4b0d7d152959a92ced18ef08a09bb0730d OP_CHECKSIG",
            "desc": "pk(04de0e60532eff1a9468cd62662697b2a35c367f7dab102130139c12e08b93a890c601a1ed5bb40a7d55bd1b9d5f9aae4b0d7d152959a92ced18ef08a09bb0730d)#8mdv5jz3",
            "hex": "4104de0e60532eff1a9468cd62662697b2a35c367f7dab102130139c12e08b93a890c601a1ed5bb40a7d55bd1b9d5f9aae4b0d7d152959a92ced18ef08a09bb0730dac",
            "type": "pubkey"
          }
        }
      ],
      "hex": "01000000010000000000000000000000000000000000000000000000000000000000000000ffffffff0804ffff001d02ae01ffffffff0100f2052a01000000434104de0e60532eff1a9468cd62662697b2a35c367f7dab102130139c12e08b93a890c601a1ed5bb40a7d55bd1b9d5f9aae4b0d7d152959a92ced18ef08a09bb0730dac00000000"
    }
  ]
}