{
  "hash": "00000000d6883b596e44e7d67a5ab159be857877f70604ee394fe95880ab28f9",
  "confirmations": 45159,
  "height": 7939,
  "version": 1,
  "versionHex": "00000001",
  "merkleroot": "ed582a7bc4f0d665d312a8485d0e2a6ab8f269d7e29fbd6f7b29cd8f580ead20",
  "time": 1237419496,
  "mediantime": 1237416090,
  "nonce": 1251556399,
  "bits": "1d00ffff",
  "difficulty": 1,
  "chainwork": "00000000000000000000000000000000000000000000000000001f041f041f04",
  "nTx": 3,
  "previousblockhash": "0000000044e8daf74c605bfb540f89f8cdc142eaef160fdf66c1a02b797d326a",
  "nextblockhash": "0000000063259940e89b62d6eb99a51ad3ba08ee14ab77552e785846d0d7a876",
  "strippedsize": 1903,
  "size": 1903,
  "weight": 7612,
  "tx": [
    {
      "txid": "8c31d2ab95aa49b3b95945ea00f33ed79a06e626b1ee5d23c4dbb32f4c2812cc",
      "hash": "8c31d2ab95aa49b3b95945ea00f33ed79a06e626b1ee5d23c4dbb32f4c2812cc",
      "version": 1,
      "size": 135,
      "vsize": 135,
      "weight": 540,
      "locktime": 0,
      "vin": [
        {
          "coinbase": "04ffff001d025508",
          "sequence": 4294967295
        }
      ],
      "vout": [
        {
          "value": 50.0,
          "n": 0,
          "scriptPubKey": {
            "asm": "0411003bd8aa3336ca378e6d381a51eb01e5771b4700fbd64998767f2d27f82a07096ac0fe100e80034abb08f032e53346db5db455e88ff37e3561537f39d498cd OP_CHECKSIG",
            "desc": "pk(0411003bd8aa3336ca378e6d381a51eb01e5771b4700fbd64998767f2d27f82a07096ac0fe100e80034abb08f032e53346db5db455e88ff37e3561537f39d498cd)#atlrxudv",
            "hex": "410411003bd8aa3336ca378e6d381a51eb01e5771b4700fbd64998767f2d27f82a07096ac0fe100e80034abb08f032e53346db5db455e88ff37e3561537f39d498cdac",
            "type": "pubkey"
          }
        }
      ],
      "hex": "01000000010000000000000000000000000000000000000000000000000000000000000000ffffffff0804ffff001d025508ffffffff0100f2052a0100000043410411003bd8aa3336ca378e6d381a51eb01e5771b4700fbd64998767f2d27f82a07096ac0fe100e80034abb08f032e53346db5db455e88ff37e3561537f39d498cdac00000000"
    },
    {
      "txid": "6db50f2ea6aea1fd8a94c6ba345f51582585dd15150f65c999722f437c791422",
      "hash": "6db50f2ea6aea1fd8a94c6ba345f51582585dd15150f65c999722f437c791422",
      "version": 1,
      "size": 1299,
      "vsize": 1299,
      "weight": 5196,
      "locktime": 0,
      "vin": [
        {
          "txid": "cab7f2a79eddc5719bb8ce08865d98e5edfd13c74a07f5f1d01b12606843ad26",
          "vout": 0,
          "scriptSig": {
            "asm": "3046022100e95b1eb8ae78b0bd38d323a0dc103f89b6b380b6a05013335259d4cd67e1d364022100e1aada39bfb1ca5b6ec11132530727cf30e483c5958bc132f499add358afda0b[ALL]",
            "hex": "493046022100e95b1eb8ae78b0bd38d323a0dc103f89b6b380b6a05013335259d4cd67e1d364022100e1aada39bfb1ca5b6ec11132530727cf30e483c5958bc132f499add358afda0b01"
          },
          "sequence": 4294967295
        },
        {
          "txid": "6f849ba53877990359438deb6dc747725eaa7e2e90864b78194b9b59de860f31",
          "vout": 0,
          "scriptSig": {
            "asm": "3045022100858a48259cf987d14838502b2772219c79da87787a27ca91a5827b461deff69502201b18878f5d028467902224bee6b867a0639c5eec9d426c6587e8bb57c4d199f9[ALL]",
            "hex": "483045022100858a48259cf987d14838502b2772219c79da87787a27ca91a5827b461deff69502201b18878f5d028467902224bee6b867a0639c5eec9d426c6587e8bb57c4d199f901"
          },
          "sequence": 4294967295
        },
        {
          "txid": "54c376af081b83d9a5b86a89de1b7ee9f3adbd104cc28ee49b797d99beaf493c",
          "vout": 0,
          "scriptSig": {
            "asm": "3046022100c27884475d2a3cce8905b1659add1d72f7bb91d579e528b80c7fd7113def1a67022100ca7b741ad6ca13642e15a19d39921469a22bcc1931010c275b057f9654ffaa0c[ALL]",
            "hex": "493046022100c27884475d2a3cce8905b1659add1d72f7bb91d579e528b80c7fd7113def1a67022100ca7b741ad6ca13642e15a19d39921469a22bcc1931010c275b057f9654ffaa0c01"
          },
          "sequence": 4294967295
        },
        {
          "txid": "e9dc814b1f5dc1923923c3a90798b92324cd40f338dd3848caac9ae1b5571350",
          "vout": 0,
          "scriptSig": {
            "asm": "30450221009e024c4ff14ea2b125eb2bd3cd6b25e3522fa377da1821dfb0afcbbacf697505022013705b055ba1654f8b52a19937c0ac021fb082d242b56b40bd509cc7c13dfb38[ALL]",
            "hex": "4830450221009e024c4ff14ea2b125eb2bd3cd6b25e3522fa377da1821dfb0afcbbacf697505022013705b055ba1654f8b52a19937c0ac021fb082d242b56b40bd509cc7c13dfb3801"
          },
          "sequence": 4294967295
        },
        {
          "txid": "fc3db981b076ce9f7f66206a4c6e65dd1c069b4a523bbc6be367a50d4d452774",
          "vout": 0,
          "scriptSig": {
            "asm": "304402207afd60ad19fc5174c64ebb4d792b2278d93ca3f8a632327e41b0d70fbdf4a92402207646a43121e647abaeb81feacfb3114e84b9ee71dfb3ea7b5e6e80d47f082160[ALL]",
            "hex": "47304402207afd60ad19fc5174c64ebb4d792b2278d93ca3f8a632327e41b0d70fbdf4a92402207646a43121e647abaeb81feacfb3114e84b9ee71dfb3ea7b5e6e80d47f08216001"
          },
          "sequence": 4294967295
        },
        {
          "txid": "8af483401ccbba46a39b359b23e44f1cac1d82f8745b0d19cde82952aac4e195",
          "vout": 0,
          "scriptSig": {
            "asm": "304402201e03f98cbc9aad42afc5ac8509268bc6acf1deabede64ba7c6ba747859eb2625022035a182993dbcc04f426ded665a58dd5cc86588458d49a98941b3ecb4efb49a81[ALL]",
            "hex": "47304402201e03f98cbc9aad42afc5ac8509268bc6acf1deabede64ba7c6ba747859eb2625022035a182993dbcc04f426ded665a58dd5cc86588458d49a98941b3ecb4efb49a8101"
          },
          "sequence": 4294967295
        },
        {
          "txid": "52b3fdc51aab6f18462d2c4c1af75a37ce83b3721016f6216deb5a282acf889d",
          "vout": 0,
          "scriptSig": {
            "asm": "304502210085db810ae53d34d856f2959b04cd4517a4a602fe4fbbd972982b0c993c7a68830220117628be91a84d6e83f8995f9cc1c024fd32a4c8640def55ea616b4ec393dcd6[ALL]",
            "hex": "48304502210085db810ae53d34d856f2959b04cd4517a4a602fe4fbbd972982b0c993c7a68830220117628be91a84d6e83f8995f9cc1c024fd32a4c8640def55ea616b4ec393dcd601"
          },
          "sequence": 4294967295
        },
        {
          "txid": "7dfb863a759462f1a231851ff5fab0de48fbe2716c0a4a15835ea73bb331879e",
          "vout": 0,
          "scriptSig": {
            "asm": "3045022100ed7f4c6c8e2ee9a7839ea2985ada5566ca3ee449879cced5ff848831881e418c02202410069f1afa451c029da62a1b03dfa0fa6323f3504747ef2a354acc148ea883[ALL]",
            "hex": "483045022100ed7f4c6c8e2ee9a7839ea2985ada5566ca3ee449879cced5ff848831881e418c02202410069f1afa451c029da62a1b03dfa0fa6323f3504747ef2a354acc148ea88301"
          },
          "sequence": 4294967295
        },
        {
          "txid": "fa7ead516dec7c1ad96ff8cd08e1a580bf6f81881d9f2d33cfb4ed5fda2b82ce",
          "vout": 0,
          "scriptSig": {
            "asm": "3045022100e842f9906a6473652817d7f221c5f4af8e814c6d3166e942dea9607678c1040702201583127797315293fde738935194a9e8db4bb9d67bed224c15a6fabe1c59c6e2[ALL]",
            "hex": "483045022100e842f9906a6473652817d7f221c5f4af8e814c6d3166e942dea9607678c1040702201583127797315293fde738935194a9e8db4bb9d67bed224c15a6fabe1c59c6e201"
          },
          "sequence": 4294967295
        },
        {
          "txid": "d7aea5b6422ebb1cb7a44a89020513c38382eae144516d56f6ed597eb470aae2",
          "vout": 0,
          "scriptSig": {
            "asm": "30460221009461178f0fbd60639df411024de67d1639f91f615d6752b80a9c140811fd280a022100b8c0552b1f829f1b000e5536c4d3e3ef0cffc8f986522a566c20ee2f3d412e18[ALL]",
            "hex": "4930460221009461178f0fbd60639df411024de67d1639f91f615d6752b80a9c140811fd280a022100b8c0552b1f829f1b000e5536c4d3e3ef0cffc8f986522a566c20ee2f3d412e1801"
          },
          "sequence": 4294967295
        },
        {
          "txid": "e52e4b4e5542bbaa5bebf6b6ff91fbd02b012da4f173ca514fd97110d69d24e3",
          "vout": 0,
          "scriptSig": {
            "asm": "304502201d7b2f2055d72117829b49205da1096f5a11995383008b638f6d3a4edbf75c55022100b1b5c34bce84f1ad3d63612ed175daef67e40722cfd7fd9224ef14494c237028[ALL]",
            "hex": "48304502201d7b2f2055d72117829b49205da1096f5a11995383008b638f6d3a4edbf75c55022100b1b5c34bce84f1ad3d63612ed175daef67e40722cfd7fd9224ef14494c23702801"
          },
          "sequence": 4294967295
        }
      ],
      "vout": [
        {
          "value": 550.0,
          "n": 0,
          "scriptPubKey": {
            "asm": "OP_DUP OP_HASH160 592fc3990026334c8c6fb2b9da457179cdb5c688 OP_EQUALVERIFY OP_CHECKSIG",
            "desc": "addr(198aMn6ZYAczwrE5NvNTUMyJ5qkfy4g3Hi)#k9ndhvwd",
            "hex": "76a914592fc3990026334c8c6fb2b9da457179cdb5c68888ac",
            "address": "198aMn6ZYAczwrE5NvNTUMyJ5qkfy4g3Hi",
            "type": "pubkeyhash"
          }
        }
      ],
      "fee": 0.0,
      "hex": "010000000b26ad436860121bd0f1f5074ac713fdede5985d8608ceb89b71c5dd9ea7f2b7ca000000004a493046022100e95b1eb8ae78b0bd38d323a0dc103f89b6b380b6a05013335259d4cd67e1d364022100e1aada39bfb1ca5b6ec11132530727cf30e483c5958bc132f499add358afda0b01ffffffff310f86de599b4b19784b86902e7eaa5e7247c76deb8d435903997738a59b846f0000000049483045022100858a48259cf987d14838502b2772219c79da87787a27ca91a5827b461deff69502201b18878f5d028467902224bee6b867a0639c5eec9d426c6587e8bb57c4d199f901ffffffff3c49afbe997d799be48ec24c10bdadf3e97e1bde896ab8a5d9831b08af76c354000000004a493046022100c27884475d2a3cce8905b1659add1d72f7bb91d579e528b80c7fd7113def1a67022100ca7b741ad6ca13642e15a19d39921469a22bcc1931010c275b057f9654ffaa0c01ffffffff501357b5e19aacca4838dd38f340cd2423b99807a9c3233992c15d1f4b81dce900000000494830450221009e024c4ff14ea2b125eb2bd3cd6b25e3522fa377da1821dfb0afcbbacf697505022013705b055ba1654f8b52a19937c0ac021fb082d242b56b40bd509cc7c13dfb3801ffffffff7427454d0da567e36bbc3b524a9b061cdd656e4c6a20667f9fce76b081b93dfc000000004847304402207afd60ad19fc5174c64ebb4d792b2278d93ca3f8a632327e41b0d70fbdf4a92402207646a43121e647abaeb81feacfb3114e84b9ee71dfb3ea7b5e6e80d47f08216001ffffffff95e1c4aa5229e8cd190d5b74f8821dac1c4fe4239b359ba346bacb1c4083f48a000000004847304402201e03f98cbc9aad42afc5ac8509268bc6acf1deabede64ba7c6ba747859eb2625022035a182993dbcc04f426ded665a58dd5cc86588458d49a98941b3ecb4efb49a8101ffffffff9d88cf2a285aeb6d21f6161072b383ce375af71a4c2c2d46186fab1ac5fdb352000000004948304502210085db810ae53d34d856f2959b04cd4517a4a602fe4fbbd972982b0c993c7a68830220117628be91a84d6e83f8995f9cc1c024fd32a4c8640def55ea616b4ec393dcd601ffffffff9e8731b33ba75e83154a0a6c71e2fb48deb0faf51f8531a2f16294753a86fb7d0000000049483045022100ed7f4c6c8e2ee9a7839ea2985ada5566ca3ee449879cced5ff848831881e418c02202410069f1afa451c029da62a1b03dfa0fa6323f3504747ef2a354acc148ea88301ffffffffce822bda5fedb4cf332d9f1d88816fbf80a5e108cdf86fd91a7cec6d51ad7efa0000000049483045022100e842f9906a6473652817d7f221c5f4af8e814c6d3166e942dea9607678c1040702201583127797315293fde738935194a9e8db4bb9d67bed224c15a6fabe1c59c6e201ffffffffe2aa70b47e59edf6566d5144e1ea8283c3130502894aa4b71cbb2e42b6a5aed7000000004a4930460221009461178f0fbd60639df411024de67d1639f91f615d6752b80a9c140811fd280a022100b8c0552b1f829f1b000e5536c4d3e3ef0cffc8f986522a566c20ee2f3d412e1801ffffffffe3249dd61071d94f51ca73f1a42d012bd0fb91ffb6f6eb5baabb42554e4b2ee5000000004948304502201d7b2f2055d72117829b49205da1096f5a11995383008b638f6d3a4edbf75c55022100b1b5c34bce84f1ad3d63612ed175daef67e40722cfd7fd9224ef14494c23702801ffffffff01006641ce0c0000001976a914592fc3990026334c8c6fb2b9da457179cdb5c68888ac00000000"
    },
    {
      "txid": "823530fc97725a01ba9a7de47ce683b5800e94dc63be84fb35e3bd383de98436",
      "hash": "823530fc97725a01ba9a7de47ce683b5800e94dc63be84fb35e3bd383de98436",
      "version": 1,
      "size": 388,
      "vsize": 388,
      "weight": 1552,
      "locktime": 0,
      "vin": [
        {
          "txid": "70b700c9cc4096ddd7de5c0fe9cd598c7b84e07d8144f3245f53cbd729d39fbc",
          "vout": 0,
          "scriptSig": {
            "asm": "304602210099468d2fd28916a5dd29ee41829dd13591801dfd41ad69e378152dfccd6471c6022100ae4183ac843f36412b79afc32b5c5e7bcb6e76fe9040391cbce381b3b18bdaf1[ALL]",
            "hex": "49304602210099468d2fd28916a5dd29ee41829dd13591801dfd41ad69e378152dfccd6471c6022100ae4183ac843f36412b79afc32b5c5e7bcb6e76fe9040391cbce381b3b18bdaf101"
          },
          "sequence": 4294967295
        },
        {
          "txid": "eeb2d9975e6fb526e33bac83789d9dea03d2694db54f02149ce11fa3fb8a90a0",
          "vout": 0,
          "scriptSig": {
            "asm": "3046022100ed884d7bf4294ab27525f87da703a42d9a860c0b44ab1a5e7adda9db40661ca2022100bb04b2f3addebcc99c855969c7b46431d5e2860f096f8989c095bf706c078d3c[ALL]",
            "hex": "493046022100ed884d7bf4294ab27525f87da703a42d9a860c0b44ab1a5e7adda9db40661ca2022100bb04b2f3addebcc99c855969c7b46431d5e2860f096f8989c095bf706c078d3c01"
          },
          "sequence": 4294967295
        },
        {
          "txid": "4d47649f1809d0d510f81317d0609ef70e85ea871a7a7dabab9124bda78f07de",
          "vout": 0,
          "scriptSig": {
            "asm": "3045022053e606c622d9e7d29e13da4052f67ea0983ed01c2c3e4a3ab79408f57d86238b022100f7532ef8d032abb74bce8d4348a8d674fd5b375fcd44c4c980c939c17764990f[ALL]",
            "hex": "483045022053e606c622d9e7d29e13da4052f67ea0983ed01c2c3e4a3ab79408f57d86238b022100f7532ef8d032abb74bce8d4348a8d674fd5b375fcd44c4c980c939c17764990f01"
          },
          "sequence": 4294967295
        }
      ],
      "vout": [
        {
          "value": 150.0,
          "n": 0,
          "scriptPubKey": {
            "asm": "OP_DUP OP_HASH160 592fc3990026334c8c6fb2b9da457179cdb5c688 OP_EQUALVERIFY OP_CHECKSIG",
            "desc": "addr(198aMn6ZYAczwrE5NvNTUMyJ5qkfy4g3Hi)#k9ndhvwd",
            "hex": "76a914592fc3990026334c8c6fb2b9da457179cdb5c68888ac",
            "address": "198aMn6ZYAczwrE5NvNTUMyJ5qkfy4g3Hi",
            "type": "pubkeyhash"
          }
        }
      ],
      "fee": 0.0,
      "hex": "0100000003bc9fd329d7cb535f24f344817de0847b8c59cde90f5cded7dd9640ccc900b770000000004a49304602210099468d2fd28916a5dd29ee41829dd13591801dfd41ad69e378152dfccd6471c6022100ae4183ac843f36412b79afc32b5c5e7bcb6e76fe9040391cbce381b3b18bdaf101ffffffffa0908afba31fe19c14024fb54d69d203ea9d9d7883ac3be326b56f5e97d9b2ee000000004a493046022100ed884d7bf4294ab27525f87da703a42d9a860c0b44ab1a5e7adda9db40661ca2022100bb04b2f3addebcc99c855969c7b46431d5e2860f096f8989c095bf706c078d3c01ffffffffde078fa7bd2491abab7d7a1a87ea850ef79e60d01713f810d5d009189f64474d0000000049483045022053e606c622d9e7d29e13da4052f67ea0983ed01c2c3e4a3ab79408f57d86238b022100f7532ef8d032abb74bce8d4348a8d674fd5b375fcd44c4c980c939c17764990f01ffffffff0100d6117e030000001976a914592fc3990026334c8c6fb2b9da457179cdb5c68888ac00000000"
    }
  ]
}