{
  "hash": "0000000085778072ebee2f72ee90c7b6b0aeffe60c2e225848adbc6311fca93a",
  "confirmations": 52272,
  "height": 826,
  "version": 1,
  "versionHex": "00000001",
  "merkleroot": "1250eb3d3c033248250a39a5df553be24ddc8a0e76d71b520904935a440fa225",
  "time": 1232211605,
  "mediantime": 1232208241,
  "nonce": 231077423,
  "bits": "1d00ffff",
  "difficulty": 1,
  "chainwork": "0000000000000000000000000000000000000000000000000000033b033b033b",
  "nTx": 1,
  "previousblockhash": "00000000dac774c3cb8558b37d6b7879c0cbcacb6a455ca4e780ce85dd70a791",
  "nextblockhash": "00000000c50b4d0ca3f17f20f96190262dc7f7ce23241f0bf81976d5008ac110",
  "strippedsize": 216,
  "size": 216,
  "weight": 864,
  "tx": [
    {
      "txid": "1250eb3d3c033248250a39a5df553be24ddc8a0e76d71b520904935a440fa225",
      "hash": "1250eb3d3c033248250a39a5df553be24ddc8a0e76d71b520904935a440fa225",
      "version": 1,
      "size": 135,
      "vsize": 135,
      "weight": 540,
      "locktime": 0,
      "vin": [
        {
          "coinbase": "04ffff001d02e601",
          "sequence": 4294967295
        }
      ],
      "vout": [
        {
          "value": 50.0,
          "n": 0,
          "scriptPubKey": {
            "asm": "0483b6bacfc472001673495056345a75932544e5d30837f67b5b2a68402a4ee1c8abcb795f3f375eb001b47506a7fd8b326946bd98be2fde54fa333c573af80aa7 OP_CHECKSIG",
            "desc": "pk(0483b6bacfc472001673495056345a75932544e5d30837f67b5b2a68402a4ee1c8abcb795f3f375eb001b47506a7fd8b326946bd98be2fde54fa333c573af80aa7)#vjtuc2dd",
            "hex": "410483b6bacfc472001673495056345a75932544e5d30837f67b5b2a68402a4ee1c8abcb795f3f375eb001b47506a7fd8b326946bd98be2fde54fa333c573af80aa7ac",
            "type": "pubkey"
          }
        }
      ],
      "hex": "01000000010000000000000000000000000000000000000000000000000000000000000000ffffffff0804ffff001d02e601ffffffff0100f2052a0100000043410483b6bacfc472001673495056345a75932544e5d30837f67b5b2a68402a4ee1c8abcb795f3f375eb001b47506a7fd8b326946bd98be2fde54fa333c573af80aa7ac00000000"
    }
  ]
}