{
  "hash": "0000000097efb8a7f8ac976ed6820b251b745d78d67f425151f6e089bf724cb0",
  "confirmations": 45679,
  "height": 7419,
  "version": 1,
  "versionHex": "00000001",
  "merkleroot": "85716c4fab4052bdb20c6a5d7aa28256b4d75c32e4067f618fdf467924ed317b",
  "time": 1237037943,
  "mediantime": 1237033702,
  "nonce": 1321206314,
  "bits": "1d00ffff",
  "difficulty": 1,
  "chainwork": "00000000000000000000000000000000000000000000000000001cfc1cfc1cfc",
  "nTx": 1,
  "previousblockhash": "0000000026f2aa7e311092d5a040290e5070a877b0013300acceb4c72ab1d9e6",
  "nextblockhash": "00000000fc6229edf248274a072d5b75ca8853539c817e6faee4edd02cd0a4b6",
  "strippedsize": 216,
  "size": 216,
  "weight": 864,
  "tx": [
    {
      "txid": "85716c4fab4052bdb20c6a5d7aa28256b4d75c32e4067f618fdf467924ed317b",
      "hash": "85716c4fab4052bdb20c6a5d7aa28256b4d75c32e4067f618fdf467924ed317b",
      "version": 1,
      "size": 135,
      "vsize": 135,
      "weight": 540,
      "locktime": 0,
      "vin": [
        {
          "coinbase": "04ffff001d02c609",
          "sequence": 4294967295
        }
      ],
      "vout": [
        {
          "value": 50.0,
          "n": 0,
          "scriptPubKey": {
            "asm": "04b6b3b0ee7ecb857f3e3ee2434fa4505e2da5bffb98d41da728af8c93cb6143492351a5355b07e0013df8eb1d0a1481a940ef88acaa6de811854981ef84138811 OP_CHECKSIG",
            "desc": "pk(04b6b3b0ee7ecb857f3e3ee2434fa4505e2da5bffb98d41da728af8c93cb6143492351a5355b07e0013df8eb1d0a1481a940ef88acaa6de811854981ef84138811)#3se8dykq",
            "hex": "4104b6b3b0ee7ecb857f3e3ee2434fa4505e2da5bffb98d41da728af8c93cb6143492351a5355b07e0013df8eb1d0a1481a940ef88acaa6de811854981ef84138811ac",
            "type": "pubkey"
          }
        }
      ],
      "hex": "01000000010000000000000000000000000000000000000000000000000000000000000000ffffffff0804ffff001d02c609ffffffff0100f2052a01000000434104b6b3b0ee7ecb857f3e3ee2434fa4505e2da5bffb98d41da728af8c93cb6143492351a5355b07e0013df8eb1d0a1481a940ef88acaa6de811854981ef84138811ac00000000"
    }
  ]
}