{
  "hash": "000000005172da61ecbd45772b661a760819fd016fff994e68a2d5a26ab3382a",
  "confirmations": 47469,
  "height": 5629,
  "version": 1,
  "versionHex": "00000001",
  "merkleroot": "75f8f2661212a3082e8b57568cc1f97a6fdeae3daf4808983d67e0b0fbf1b6ff",
  "time": 1235628437,
  "mediantime": 1235624454,
  "nonce": 380557368,
  "bits": "1d00ffff",
  "difficulty": 1,
  "chainwork": "000000000000000000000000000000000000000000000000000015fe15fe15fe",
  "nTx": 1,
  "previousblockhash": "00000000f406d0f8c50c98831220838486f6b6295a54b6ae72200dfa97ba11c6",
  "nextblockhash": "0000000009e9cdbe92d53b0b9fe6bebeded78146fc57db033f58d10dd6a24d28",
  "strippedsize": 216,
  "size": 216,
  "weight": 864,
  "tx": [
    {
      "txid": "75f8f2661212a3082e8b57568cc1f97a6fdeae3daf4808983d67e0b0fbf1b6ff",
      "hash": "75f8f2661212a3082e8b57568cc1f97a6fdeae3daf4808983d67e0b0fbf1b6ff",
      "version": 1,
      "size": 135,
      "vsize": 135,
      "weight": 540,
      "locktime": 0,
      "vin": [
        {
          "coinbase": "04ffff001d022d08",
          "sequence": 4294967295
        }
      ],
      "vout": [
        {
          "value": 50.0,
          "n": 0,
          "scriptPubKey": {
            "asm": "041decdf36fe76a08bbb6aa0a058b325b41b51fee134e7abb60e0cde5c4a8f3e91c293a21f188a6b8b261a8ff57124955e9a9f2e7c5e3442af99fa2272a86b3ad5 OP_CHECKSIG",
            "desc": "pk(041decdf36fe76a08bbb6aa0a058b325b41b51fee134e7abb60e0cde5c4a8f3e91c293a21f188a6b8b261a8ff57124955e9a9f2e7c5e3442af99fa2272a86b3ad5)#rqdxzf4s",
            "hex": "41041decdf36fe76a08bbb6aa0a058b325b41b51fee134e7abb60e0cde5c4a8f3e91c293a21f188a6b8b261a8ff57124955e9a9f2e7c5e3442af99fa2272a86b3ad5ac",
            "type": "pubkey"
          }
        }
      ],
      "hex": "01000000010000000000000000000000000000000000000000000000000000000000000000ffffffff0804ffff001d022d08ffffffff0100f2052a010000004341041decdf36fe76a08bbb6aa0a058b325b41b51fee134e7abb60e0cde5c4a8f3e91c293a21f188a6b8b261a8ff57124955e9a9f2e7c5e3442af99fa2272a86b3ad5ac00000000"
    }
  ]
}