{
  "hash": "00000000785992b7d5ee630a7aaf650461ca6a5d176d96e8f1d83054132f0bf4",
  "confirmations": 51110,
  "height": 1988,
  "version": 1,
  "versionHex": "00000001",
  "merkleroot": "873b243e87c7c1f7e505e017fabfc45be1d513b069bb533b48d643c64d12c105",
  "time": 1233036778,
  "mediantime": 1233031902,
  "nonce": 3601627182,
  "bits": "1d00ffff",
  "difficulty": 1,
  "chainwork": "000000000000000000000000000000000000000000000000000007c507c507c5",
  "nTx": 1,
  "previousblockhash": "0000000073ba0d47c8458f2dafd7d7ed616fcb43e6b1a6c8a87236c7d991c89e",
  "nextblockhash": "000000002ace74c47a24e92806aeefb968258359c2988f1bfd134f4bae233be6",
  "strippedsize": 216,
  "size": 216,
  "weight": 864,
  "tx": [
    {
      "txid": "873b243e87c7c1f7e505e017fabfc45be1d513b069bb533b48d643c64d12c105",
      "hash": "873b243e87c7c1f7e505e017fabfc45be1d513b069bb533b48d643c64d12c105",
      "version": 1,
      "size": 135,
      "vsize": 135,
      "weight": 540,
      "locktime": 0,
      "vin": [
        {
          "coinbase": "04ffff001d025a01",
          "sequence": 4294967295
        }
      ],
      "vout": [
        {
          "value": 50.0,
          "n": 0,
          "scriptPubKey": {
            "asm": "044783eb6bb40045e80171c313bd147051197993637ef1c72088e4bbe0d56d14cdc5530682b3449036a0ffb1c295bee5630180a203e9f5e8278a41c8bb8196c16e OP_CHECKSIG",
            "desc": "pk(044783eb6bb40045e80171c313bd147051197993637ef1c72088e4bbe0d56d14cdc5530682b3449036a0ffb1c295bee5630180a203e9f5e8278a41c8bb8196c16e)#vg6nmkgv",
            "hex": "41044783eb6bb40045e80171c313bd147051197993637ef1c72088e4bbe0d56d14cdc5530682b3449036a0ffb1c295bee5630180a203e9f5e8278a41c8bb8196c16eac",
            "type": "pubkey"
          }
        }
      ],
      "hex": "01000000010000000000000000000000000000000000000000000000000000000000000000ffffffff0804ffff001d025a01ffffffff0100f2052a010000004341044783eb6bb40045e80171c313bd147051197993637ef1c72088e4bbe0d56d14cdc5530682b3449036a0ffb1c295bee5630180a203e9f5e8278a41c8bb8196c16eac00000000"
    }
  ]
}