{
  "hash": "0000000081c0ab052aac47e3ad0dbfab9ca3475e6d8d136a53a698bbced84ee4",
  "confirmations": 52221,
  "height": 397,
  "version": 1,
  "versionHex": "00000001",
  "merkleroot": "8003caa9beb909f3f11a00e6532e1f161ff86b133ed186efbe101a5c8b2bb265",
  "time": 1231899618,
  "mediantime": 1231897053,
  "nonce": 2591001655,
  "bits": "1d00ffff",
  "difficulty": 1,
  "chainwork": "0000000000000000000000000000000000000000000000000000018e018e018e",
  "nTx": 1,
  "previousblockhash": "00000000b899b23a550aa2d3e06d63dcf9da622a287b0dd2a21d2d9e9fd9a976",
  "nextblockhash": "000000002f7d702a27ccd65158740198f79d4ba1ddea8ab14b56b63a6289fe89",
  "strippedsize": 216,
  "size": 216,
  "weight": 864,
  "tx": [
    {
      "txid": "8003caa9beb909f3f11a00e6532e1f161ff86b133ed186efbe101a5c8b2bb265",
      "hash": "8003caa9beb909f3f11a00e6532e1f161ff86b133ed186efbe101a5c8b2bb265",
      "version": 1,
      "size": 135,
      "vsize": 135,
      "weight": 540,
      "locktime": 0,
      "vin": [
        {
          "coinbase": "04ffff001d026902",
          "sequence": 4294967295
        }
      ],
      "vout": [
        {
          "value": 50.0,
          "n": 0,
          "scriptPubKey": {
            "asm": "041f7df7f7b915fbe25ad809d247b4d4381e6b26bc5991acc52ea4d500d8e29b39443780c099b682d9f8e28235bfc1772d05babdfd6f7590a1c732b54112619243 OP_CHECKSIG",
            "desc": "pk(041f7df7f7b915fbe25ad809d247b4d4381e6b26bc5991acc52ea4d500d8e29b39443780c099b682d9f8e28235bfc1772d05babdfd6f7590a1c732b54112619243)#crukzc88",
            "hex": "41041f7df7f7b915fbe25ad809d247b4d4381e6b26bc5991acc52ea4d500d8e29b39443780c099b682d9f8e28235bfc1772d05babdfd6f7590a1c732b54112619243ac",
            "type": "pubkey"
          }
        }
      ],
      "hex": "01000000010000000000000000000000000000000000000000000000000000000000000000ffffffff0804ffff001d026902ffffffff0100f2052a010000004341041f7df7f7b915fbe25ad809d247b4d4381e6b26bc5991acc52ea4d500d8e29b39443780c099b682d9f8e28235bfc1772d05babdfd6f7590a1c732b54112619243ac00000000"
    }
  ]
}