{
  "hash": "000000003d4b483ce0f9258b7146fd817c6293bfc0ddf6463d9fa33cd6a612a1",
  "confirmations": 43346,
  "height": 9752,
  "version": 1,
  "versionHex": "00000001",
  "merkleroot": "95b1dc98a33d3cff72e5cc90a844a20ce21dcb2077c73379ddfedbdbc51bc39f",
  "time": 1238818463,
  "mediantime": 1238812901,
  "nonce": 926943796,
  "bits": "1d00ffff",
  "difficulty": 1,
  "chainwork": "0000000000000000000000000000000000000000000000000000261926192619",
  "nTx": 1,
  "previousblockhash": "00000000e96c66f3ece9feed66332d45d9260417aa64ed22a5516a5709200b2e",
  "nextblockhash": "0000000024242b7be82e18bd0876367df92004b369fc59dee3a99a451635b74b",
  "strippedsize": 216,
  "size": 216,
  "weight": 864,
  "tx": [
    {
      "txid": "95b1dc98a33d3cff72e5cc90a844a20ce21dcb2077c73379ddfedbdbc51bc39f",
      "hash": "95b1dc98a33d3cff72e5cc90a844a20ce21dcb2077c73379ddfedbdbc51bc39f",
      "version": 1,
      "size": 135,
      "vsize": 135,
      "weight": 540,
      "locktime": 0,
      "vin": [
        {
          "coinbase": "04ffff001d02bc09",
          "sequence": 4294967295
        }
      ],
      "vout": [
        {
          "value": 50.0,
          "n": 0,
          "scriptPubKey": {
            "asm": "041ecadbc1d50a7d11e231db10fabcd705e43faae84a2b4c088bffb9fbfbd61d93d2c54ed569ef3e662c77fe6d9a1a80ad093616abe7270ac4fd7a001ee9fe4bf0 OP_CHECKSIG",
            "desc": "pk(041ecadbc1d50a7d11e231db10fabcd705e43faae84a2b4c088bffb9fbfbd61d93d2c54ed569ef3e662c77fe6d9a1a80ad093616abe7270ac4fd7a001ee9fe4bf0)#t9m94364",
            "hex": "41041ecadbc1d50a7d11e231db10fabcd705e43faae84a2b4c088bffb9fbfbd61d93d2c54ed569ef3e662c77fe6d9a1a80ad093616abe7270ac4fd7a001ee9fe4bf0ac",
            "type": "pubkey"
          }
        }
      ],
      "hex": "01000000010000000000000000000000000000000000000000000000000000000000000000ffffffff0804ffff001d02bc09ffffffff0100f2052a010000004341041ecadbc1d50a7d11e231db10fabcd705e43faae84a2b4c088bffb9fbfbd61d93d2c54ed569ef3e662c77fe6d9a1a80ad093616abe7270ac4fd7a001ee9fe4bf0ac00000000"
    }
  ]
}