{
  "hash": "00000000ef9d1e0a109a086bc200241955bcb53c00eb15c8987d147f7cf4daae",
  "confirmations": 46921,
  "height": 6177,
  "version": 1,
  "versionHex": "00000001",
  "merkleroot": "4fe775979767a7516af2462346e91d45940716b120c3a4efa86c2099d57da017",
  "time": 1236072198,
  "mediantime": 1236069614,
  "nonce": 970194715,
  "bits": "1d00ffff",
  "difficulty": 1,
  "chainwork": "0000000000000000000000000000000000000000000000000000182218221822",
  "nTx": 1,
  "previousblockhash": "00000000004eda0d6c9fd39ad61fa535efb4bb1a33f656185536c256c31a3d8d",
  "nextblockhash": "00000000d1a7a18d5427da8d5c9c0f407954bb0d57caa046a62f770a155bea64",
  "strippedsize": 216,
  "size": 216,
  "weight": 864,
  "tx": [
    {
      "txid": "4fe775979767a7516af2462346e91d45940716b120c3a4efa86c2099d57da017",
      "hash": "4fe775979767a7516af2462346e91d45940716b120c3a4efa86c2099d57da017",
      "version": 1,
      "size": 135,
      "vsize": 135,
      "weight": 540,
      "locktime": 0,
      "vin": [
        {
          "coinbase": "04ffff001d021208",
          "sequence": 4294967295
        }
      ],
      "vout": [
        {
          "value": 50.0,
          "n": 0,
          "scriptPubKey": {
            "asm": "045d70882727147cb86c0f347917e5f495895f2741f599e901985e066516a27b8b3f58b171866a42d4aaab3669aa1b85ac0ecc40d69b64092e28c6bae4f52a2a4e OP_CHECKSIG",
            "desc": "pk(045d70882727147cb86c0f347917e5f495895f2741f599e901985e066516a27b8b3f58b171866a42d4aaab3669aa1b85ac0ecc40d69b64092e28c6bae4f52a2a4e)#wrcatqq2",
            "hex": "41045d70882727147cb86c0f347917e5f495895f2741f599e901985e066516a27b8b3f58b171866a42d4aaab3669aa1b85ac0ecc40d69b64092e28c6bae4f52a2a4eac",
            "type": "pubkey"
          }
        }
      ],
      "hex": "01000000010000000000000000000000000000000000000000000000000000000000000000ffffffff0804ffff001d021208ffffffff0100f2052a010000004341045d70882727147cb86c0f347917e5f495895f2741f599e901985e066516a27b8b3f58b171866a42d4aaab3669aa1b85ac0ecc40d69b64092e28c6bae4f52a2a4eac00000000"
    }
  ]
}