{
  "hash": "00000000073051578e1080651be449b2bcc60132e004d6e4e739b12852b4306e",
  "confirmations": 45163,
  "height": 7935,
  "version": 1,
  "versionHex": "00000001",
  "merkleroot": "85543687acfd1ef78eea04b97710bccc66b4577b40eeae5047e0599da6c582bf",
  "time": 1237416421,
  "mediantime": 1237414506,
  "nonce": 1669099030,
  "bits": "1d00ffff",
  "difficulty": 1,
  "chainwork": "00000000000000000000000000000000000000000000000000001f001f001f00",
  "nTx": 1,
  "previousblockhash": "00000000f6904fb744a48539f17993c044c61cc17a9d84cb760e47500deb9415",
  "nextblockhash": "000000007baf5b168d8911a7c0154b7d39bb6ccfb82adc90fc6491fd56d1df26",
  "strippedsize": 216,
  "size": 216,
  "weight": 864,
  "tx": [
    {
      "txid": "85543687acfd1ef78eea04b97710bccc66b4577b40eeae5047e0599da6c582bf",
      "hash": "85543687acfd1ef78eea04b97710bccc66b4577b40eeae5047e0599da6c582bf",
      "version": 1,
      "size": 135,
      "vsize": 135,
      "weight": 540,
      "locktime": 0,
      "vin": [
        {
          "coinbase": "04ffff001d023f08",
          "sequence": 4294967295
        }
      ],
      "vout": [
        {
          "value": 50.0,
          "n": 0,
          "scriptPubKey": {
            "asm": "049384b76a9c7a9061576b8d00c9321e2e51f9d855f102ce30ddeef66b3cbd4516070fea2ca9b4919ec95abb6e1f47c08937b0a9a7f9f52863c83aa47f58da3de8 OP_CHECKSIG",
            "desc": "pk(049384b76a9c7a9061576b8d00c9321e2e51f9d855f102ce30ddeef66b3cbd4516070fea2ca9b4919ec95abb6e1f47c08937b0a9a7f9f52863c83aa47f58da3de8)#aqzpzujw",
            "hex": "41049384b76a9c7a9061576b8d00c9321e2e51f9d855f102ce30ddeef66b3cbd4516070fea2ca9b4919ec95abb6e1f47c08937b0a9a7f9f52863c83aa47f58da3de8ac",
            "type": "pubkey"
          }
        }
      ],
      "hex": "01000000010000000000000000000000000000000000000000000000000000000000000000ffffffff0804ffff001d023f08ffffffff0100f2052a010000004341049384b76a9c7a9061576b8d00c9321e2e51f9d855f102ce30ddeef66b3cbd4516070fea2ca9b4919ec95abb6e1f47c08937b0a9a7f9f52863c83aa47f58da3de8ac00000000"
    }
  ]
}