{
  "hash": "000000001d13d4bf1518d2afdc48decee30efe8a476ac5ae76c7b597ddef95d7",
  "confirmations": 48006,
  "height": 5092,
  "version": 1,
  "versionHex": "00000001",
  "merkleroot": "1d6c6690b41ea41b00232c2363fcd8b3d55f04a2b3d2212d0898cd8a0d81d929",
  "time": 1235210109,
  "mediantime": 1235206714,
  "nonce": 3552644908,
  "bits": "1d00ffff",
  "difficulty": 1,
  "chainwork": "000000000000000000000000000000000000000000000000000013e513e513e5",
  "nTx": 1,
  "previousblockhash": "00000000e8c1ad1efa24df1abf75d90246f71ede2731f5bbc277b007fbd0d8ac",
  "nextblockhash": "00000000823171d43b172810bd2ad643dd093f229251e2e64fe6c477ff556340",
  "strippedsize": 216,
  "size": 216,
  "weight": 864,
  "tx": [
    {
      "txid": "1d6c6690b41ea41b00232c2363fcd8b3d55f04a2b3d2212d0898cd8a0d81d929",
      "hash": "1d6c6690b41ea41b00232c2363fcd8b3d55f04a2b3d2212d0898cd8a0d81d929",
      "version": 1,
      "size": 135,
      "vsize": 135,
      "weight": 540,
      "locktime": 0,
      "vin": [
        {
          "coinbase": "04ffff001d02d608",
          "sequence": 4294967295
        }
      ],
      "vout": [
        {
          "value": 50.0,
          "n": 0,
          "scriptPubKey": {
            "asm": "04e8d5d6b452d74a33ef719fd8101106dffeb1a296de371dfc59e7b87fc8db3b530b3d49542d27012f5c62da9a15d47991c6ed647569ff11e121f26f54194f6a55 OP_CHECKSIG",
            "desc": "pk(04e8d5d6b452d74a33ef719fd8101106dffeb1a296de371dfc59e7b87fc8db3b530b3d49542d27012f5c62da9a15d47991c6ed647569ff11e121f26f54194f6a55)#krg9847h",
            "hex": "4104e8d5d6b452d74a33ef719fd8101106dffeb1a296de371dfc59e7b87fc8db3b530b3d49542d27012f5c62da9a15d47991c6ed647569ff11e121f26f54194f6a55ac",
            "type": "pubkey"
          }
        }
      ],
      "hex": "01000000010000000000000000000000000000000000000000000000000000000000000000ffffffff0804ffff001d02d608ffffffff0100f2052a01000000434104e8d5d6b452d74a33ef719fd8101106dffeb1a296de371dfc59e7b87fc8db3b530b3d49542d27012f5c62da9a15d47991c6ed647569ff11e121f26f54194f6a55ac00000000"
    }
  ]
}