{
  "hash": "000000004376743ff349325f3e1d1b919848bde8133f8948fe79978d2233fdda",
  "confirmations": 51123,
  "height": 1975,
  "version": 1,
  "versionHex": "00000001",
  "merkleroot": "d88b16cf76b282a82d2ae05d2e4f14ba6a3d71bccd38e565e3cff25a50162d80",
  "time": 1233027026,
  "mediantime": 1233023940,
  "nonce": 1688521477,
  "bits": "1d00ffff",
  "difficulty": 1,
  "chainwork": "000000000000000000000000000000000000000000000000000007b807b807b8",
  "nTx": 1,
  "previousblockhash": "000000006e6bbd3f3224cf02ada810ab859bae70b7d25b164efaf2309cf39e53",
  "nextblockhash": "0000000086980b604dbbb98eb75b8a897d0b7c96389122ac1cea52866a3ef5d8",
  "strippedsize": 216,
  "size": 216,
  "weight": 864,
  "tx": [
    {
      "txid": "d88b16cf76b282a82d2ae05d2e4f14ba6a3d71bccd38e565e3cff25a50162d80",
      "hash": "d88b16cf76b282a82d2ae05d2e4f14ba6a3d71bccd38e565e3cff25a50162d80",
      "version": 1,
      "size": 135,
      "vsize": 135,
      "weight": 540,
      "locktime": 0,
      "vin": [
        {
          "coinbase": "04ffff001d021201",
          "sequence": 4294967295
        }
      ],
      "vout": [
        {
          "value": 50.0,
          "n": 0,
          "scriptPubKey": {
            "asm": "04b869fca974267af1e00b068ccfb1533254b49f4c370ebd154656739be39f58e061998efbecbcfe717556905282c44840e9fa6a657f408c19b1b665aea3617f68 OP_CHECKSIG",
            "desc": "pk(04b869fca974267af1e00b068ccfb1533254b49f4c370ebd154656739be39f58e061998efbecbcfe717556905282c44840e9fa6a657f408c19b1b665aea3617f68)#ayhq8zmf",
            "hex": "4104b869fca974267af1e00b068ccfb1533254b49f4c370ebd154656739be39f58e061998efbecbcfe717556905282c44840e9fa6a657f408c19b1b665aea3617f68ac",
            "type": "pubkey"
          }
        }
      ],
      "hex": "01000000010000000000000000000000000000000000000000000000000000000000000000ffffffff0804ffff001d021201ffffffff0100f2052a01000000434104b869fca974267af1e00b068ccfb1533254b49f4c370ebd154656739be39f58e061998efbecbcfe717556905282c44840e9fa6a657f408c19b1b665aea3617f68ac00000000"
    }
  ]
}