{
  "hash": "000000007b846c476b4a2f849f237922e5878bf1a90648a0e1d9ffdd5dee62e8",
  "confirmations": 44416,
  "height": 8682,
  "version": 1,
  "versionHex": "00000001",
  "merkleroot": "2d93a69b350b4aaf06170db3085fa9828837bd9fa14289e7fc8e394b973b1fa5",
  "time": 1238012632,
  "mediantime": 1238007956,
  "nonce": 1113992733,
  "bits": "1d00ffff",
  "difficulty": 1,
  "chainwork": "000000000000000000000000000000000000000000000000000021eb21eb21eb",
  "nTx": 1,
  "previousblockhash": "0000000008089f06ac82cc732939402ac8ecc10402363bf936c3b4a2cd3c60c4",
  "nextblockhash": "000000001c2911089b4bd7719e2607fa24c7e92f77f0ee909c6d511af52cbf4a",
  "strippedsize": 216,
  "size": 216,
  "weight": 864,
  "tx": [
    {
      "txid": "2d93a69b350b4aaf06170db3085fa9828837bd9fa14289e7fc8e394b973b1fa5",
      "hash": "2d93a69b350b4aaf06170db3085fa9828837bd9fa14289e7fc8e394b973b1fa5",
      "version": 1,
      "size": 135,
      "vsize": 135,
      "weight": 540,
      "locktime": 0,
      "vin": [
        {
          "coinbase": "04ffff001d02a100",
          "sequence": 4294967295
        }
      ],
      "vout": [
        {
          "value": 50.0,
          "n": 0,
          "scriptPubKey": {
            "asm": "04be6740193a2b4cd28ecee7395f17129f011e4a443b4381a8074e8462b61d6308bffb486dfecaeee609d41b2e3d730643f648f54e3dce6f68b8c77be60b8e42ec OP_CHECKSIG",
            "desc": "pk(04be6740193a2b4cd28ecee7395f17129f011e4a443b4381a8074e8462b61d6308bffb486dfecaeee609d41b2e3d730643f648f54e3dce6f68b8c77be60b8e42ec)#rqcnsxae",
            "hex": "4104be6740193a2b4cd28ecee7395f17129f011e4a443b4381a8074e8462b61d6308bffb486dfecaeee609d41b2e3d730643f648f54e3dce6f68b8c77be60b8e42ecac",
            "type": "pubkey"
          }
        }
      ],
      "hex": "01000000010000000000000000000000000000000000000000000000000000000000000000ffffffff0804ffff001d02a100ffffffff0100f2052a01000000434104be6740193a2b4cd28ecee7395f17129f011e4a443b4381a8074e8462b61d6308bffb486dfecaeee609d41b2e3d730643f648f54e3dce6f68b8c77be60b8e42ecac00000000"
    }
  ]
}