{
  "hash": "000000009a284bd92fd73540f30123be054f16438532e83b7a5c94ec048a7ab9",
  "confirmations": 50978,
  "height": 2120,
  "version": 1,
  "versionHex": "00000001",
  "merkleroot": "f13cb6f739d5fcc25d04e402d01852483c466d3b12e10a9402859e62f757fd42",
  "time": 1233151346,
  "mediantime": 1233149308,
  "nonce": 791006494,
  "bits": "1d00ffff",
  "difficulty": 1,
  "chainwork": "0000000000000000000000000000000000000000000000000000084908490849",
  "nTx": 1,
  "previousblockhash": "000000009b8de49958011387b343860457061ec4175a07cd0c094216f3074ed6",
  "nextblockhash": "000000005fa35ee08a2283747996ed3e79f193b1f1f630e08023c27645f71827",
  "strippedsize": 216,
  "size": 216,
  "weight": 864,
  "tx": [
    {
      "txid": "f13cb6f739d5fcc25d04e402d01852483c466d3b12e10a9402859e62f757fd42",
      "hash": "f13cb6f739d5fcc25d04e402d01852483c466d3b12e10a9402859e62f757fd42",
      "version": 1,
      "size": 135,
      "vsize": 135,
      "weight": 540,
      "locktime": 0,
      "vin": [
        {
          "coinbase": "04ffff001d02da03",
          "sequence": 4294967295
        }
      ],
      "vout": [
        {
          "value": 50.0,
          "n": 0,
          "scriptPubKey": {
            "asm": "04a37cfae22a93f5961cb57fcb74d826ff6f25999ace917df7704b58453b45d7b8e854a2fd77f5742f622bbd4a1757a88777c67adabe133c495b9df90c9c82488a OP_CHECKSIG",
            "desc": "pk(04a37cfae22a93f5961cb57fcb74d826ff6f25999ace917df7704b58453b45d7b8e854a2fd77f5742f622bbd4a1757a88777c67adabe133c495b9df90c9c82488a)#ft5t4ke9",
            "hex": "4104a37cfae22a93f5961cb57fcb74d826ff6f25999ace917df7704b58453b45d7b8e854a2fd77f5742f622bbd4a1757a88777c67adabe133c495b9df90c9c82488aac",
            "type": "pubkey"
          }
        }
      ],
      "hex": "01000000010000000000000000000000000000000000000000000000000000000000000000ffffffff0804ffff001d02da03ffffffff0100f2052a01000000434104a37cfae22a93f5961cb57fcb74d826ff6f25999ace917df7704b58453b45d7b8e854a2fd77f5742f622bbd4a1757a88777c67adabe133c495b9df90c9c82488aac00000000"
    }
  ]
}