{
  "hash": "000000000d94d4bce4eb076b5f0bd4dc784887ac8bbb2fe9b45efbe34e20f897",
  "confirmations": 50486,
  "height": 2612,
  "version": 1,
  "versionHex": "00000001",
  "merkleroot": "355b34ba85e98dc71a9a9a96976e5ede9f6dda00f2385370bcb0b960e95c8a1c",
  "time": 1233502540,
  "mediantime": 1233499481,
  "nonce": 119835873,
  "bits": "1d00ffff",
  "difficulty": 1,
  "chainwork": "00000000000000000000000000000000000000000000000000000a350a350a35",
  "nTx": 1,
  "previousblockhash": "000000004e4adedd77c0d4f21d173f014969e998558f9dd3d512d9a53d322317",
  "nextblockhash": "00000000a208d65554dfe46ef515582b8fbc3adbc1be1c27da59c5060f9bcb91",
  "strippedsize": 215,
  "size": 215,
  "weight": 860,
  "tx": [
    {
      "txid": "355b34ba85e98dc71a9a9a96976e5ede9f6dda00f2385370bcb0b960e95c8a1c",
      "hash": "355b34ba85e98dc71a9a9a96976e5ede9f6dda00f2385370bcb0b960e95c8a1c",
      "version": 1,
      "size": 134,
      "vsize": 134,
      "weight": 536,
      "locktime": 0,
      "vin": [
        {
          "coinbase": "04ffff001d0166",
          "sequence": 4294967295
        }
      ],
      "vout": [
        {
          "value": 50.0,
          "n": 0,
          "scriptPubKey": {
            "asm": "040c6120f8d2bf0be6c812ca42d398adab267a5b8ec7c84459989acc59f8e6debeb9421484e798a78244ce1e234132204173f9465c1a60ce3938fbff3d117243b3 OP_CHECKSIG",
            "desc": "pk(040c6120f8d2bf0be6c812ca42d398adab267a5b8ec7c84459989acc59f8e6debeb9421484e798a78244ce1e234132204173f9465c1a60ce3938fbff3d117243b3)#fuqa959r",
            "hex": "41040c6120f8d2bf0be6c812ca42d398adab267a5b8ec7c84459989acc59f8e6debeb9421484e798a78244ce1e234132204173f9465c1a60ce3938fbff3d117243b3ac",
            "type": "pubkey"
          }
        }
      ],
      "hex": "01000000010000000000000000000000000000000000000000000000000000000000000000ffffffff0704ffff001d0166ffffffff0100f2052a010000004341040c6120f8d2bf0be6c812ca42d398adab267a5b8ec7c84459989acc59f8e6debeb9421484e798a78244ce1e234132204173f9465c1a60ce3938fbff3d117243b3ac00000000"
    }
  ]
}