{
  "hash": "00000000c64b2c48acd6b43ac1020d5c0bdbdaea138360ab755d9b5f2a91855c",
  "confirmations": 50406,
  "height": 2692,
  "version": 1,
  "versionHex": "00000001",
  "merkleroot": "b4a07837d45e1f8d04dd8341dc6b65664a8f7a951d435588c6f690edc3fad3e0",
  "time": 1233556092,
  "mediantime": 1233553358,
  "nonce": 1233248277,
  "bits": "1d00ffff",
  "difficulty": 1,
  "chainwork": "00000000000000000000000000000000000000000000000000000a850a850a85",
  "nTx": 1,
  "previousblockhash": "0000000030b9ba1a81913fba03fe1c06b824f9610a5a91c62b7c26ca6b972d96",
  "nextblockhash": "00000000b19dd11f5b01a677e535cb986db19abd975ec270a948402297e84dc3",
  "strippedsize": 216,
  "size": 216,
  "weight": 864,
  "tx": [
    {
      "txid": "b4a07837d45e1f8d04dd8341dc6b65664a8f7a951d435588c6f690edc3fad3e0",
      "hash": "b4a07837d45e1f8d04dd8341dc6b65664a8f7a951d435588c6f690edc3fad3e0",
      "version": 1,
      "size": 135,
      "vsize": 135,
      "weight": 540,
      "locktime": 0,
      "vin": [
        {
          "coinbase": "04ffff001d02a104",
          "sequence": 4294967295
        }
      ],
      "vout": [
        {
          "value": 50.0,
          "n": 0,
          "scriptPubKey": {
            "asm": "04b6cbc790eb64ec2c4c2b79cdb3cb62b4040a9392a6be843f55047d3b5a13f7dadfd1145f7c00ca2cc6e2131ecb630d02091924e2d5c7f44100b7926bd3626cc3 OP_CHECKSIG",
            "desc": "pk(04b6cbc790eb64ec2c4c2b79cdb3cb62b4040a9392a6be843f55047d3b5a13f7dadfd1145f7c00ca2cc6e2131ecb630d02091924e2d5c7f44100b7926bd3626cc3)#48ttmgyf",
            "hex": "4104b6cbc790eb64ec2c4c2b79cdb3cb62b4040a9392a6be843f55047d3b5a13f7dadfd1145f7c00ca2cc6e2131ecb630d02091924e2d5c7f44100b7926bd3626cc3ac",
            "type": "pubkey"
          }
        }
      ],
      "hex": "01000000010000000000000000000000000000000000000000000000000000000000000000ffffffff0804ffff001d02a104ffffffff0100f2052a01000000434104b6cbc790eb64ec2c4c2b79cdb3cb62b4040a9392a6be843f55047d3b5a13f7dadfd1145f7c00ca2cc6e2131ecb630d02091924e2d5c7f44100b7926bd3626cc3ac00000000"
    }
  ]
}