{
  "hash": "000000000d850008d6b22db13e0d5d2c167f7d416a460a1e569b16ac216e1658",
  "confirmations": 48208,
  "height": 4890,
  "version": 1,
  "versionHex": "00000001",
  "merkleroot": "de0d37ebc71c750ce1e11298092e672cb9c4b24491987e9ec9d7464eba2ff388",
  "time": 1235063817,
  "mediantime": 1235061263,
  "nonce": 7626122,
  "bits": "1d00ffff",
  "difficulty": 1,
  "chainwork": "0000000000000000000000000000000000000000000000000000131b131b131b",
  "nTx": 1,
  "previousblockhash": "000000003945dbebda4b0440b7f7d867fb576d6dbcd3cb6f90f140e0669316ff",
  "nextblockhash": "000000003131fa71fe82b976a976c05559e98978d57f87649c730bd935e0bb60",
  "strippedsize": 216,
  "size": 216,
  "weight": 864,
  "tx": [
    {
      "txid": "de0d37ebc71c750ce1e11298092e672cb9c4b24491987e9ec9d7464eba2ff388",
      "hash": "de0d37ebc71c750ce1e11298092e672cb9c4b24491987e9ec9d7464eba2ff388",
      "version": 1,
      "size": 135,
      "vsize": 135,
      "weight": 540,
      "locktime": 0,
      "vin": [
        {
          "coinbase": "04ffff001d02b20b",
          "sequence": 4294967295
        }
      ],
      "vout": [
        {
          "value": 50.0,
          "n": 0,
          "scriptPubKey": {
            "asm": "04470e006ee174c5df10e131883e4bf06184bc0c9e0a7894b0fedf51511d03a2bfa5feadace6583945a3de360c6d667409b92ee89b9f9f6bd99a4c82d48dffb28d OP_CHECKSIG",
            "desc": "pk(04470e006ee174c5df10e131883e4bf06184bc0c9e0a7894b0fedf51511d03a2bfa5feadace6583945a3de360c6d667409b92ee89b9f9f6bd99a4c82d48dffb28d)#kt93k4e4",
            "hex": "4104470e006ee174c5df10e131883e4bf06184bc0c9e0a7894b0fedf51511d03a2bfa5feadace6583945a3de360c6d667409b92ee89b9f9f6bd99a4c82d48dffb28dac",
            "type": "pubkey"
          }
        }
      ],
      "hex": "01000000010000000000000000000000000000000000000000000000000000000000000000ffffffff0804ffff001d02b20bffffffff0100f2052a01000000434104470e006ee174c5df10e131883e4bf06184bc0c9e0a7894b0fedf51511d03a2bfa5feadace6583945a3de360c6d667409b92ee89b9f9f6bd99a4c82d48dffb28dac00000000"
    }
  ]
}