{
  "hash": "0000000050d0e11320e855914e531fd47c6511774c1a5f7167dd17a698adebe3",
  "confirmations": 50425,
  "height": 2673,
  "version": 1,
  "versionHex": "00000001",
  "merkleroot": "9f2ad7e33e280ee1f7dc6ec3c2044e430445d4a54a9c12679f69d7ce399b67c5",
  "time": 1233544083,
  "mediantime": 1233540280,
  "nonce": 86972872,
  "bits": "1d00ffff",
  "difficulty": 1,
  "chainwork": "00000000000000000000000000000000000000000000000000000a720a720a72",
  "nTx": 1,
  "previousblockhash": "0000000068219b0408068df138c21a953f6e697af66ae95514e001b70f052efc",
  "nextblockhash": "00000000f0fd60a5eb86ad77fda2ba38383281ec27b6d3ffc66f053932b7fd32",
  "strippedsize": 216,
  "size": 216,
  "weight": 864,
  "tx": [
    {
      "txid": "9f2ad7e33e280ee1f7dc6ec3c2044e430445d4a54a9c12679f69d7ce399b67c5",
      "hash": "9f2ad7e33e280ee1f7dc6ec3c2044e430445d4a54a9c12679f69d7ce399b67c5",
      "version": 1,
      "size": 135,
      "vsize": 135,
      "weight": 540,
      "locktime": 0,
      "vin": [
        {
          "coinbase": "04ffff001d02e005",
          "sequence": 4294967295
        }
      ],
      "vout": [
        {
          "value": 50.0,
          "n": 0,
          "scriptPubKey": {
            "asm": "0444cf30dc77755371130b12f2150407f22a6208ebdc549a3410df7e3c9b1d159e43848998200f1201aad383c3bbde1fc2e49d32a61ad6e621a5e2a0563935998c OP_CHECKSIG",
            "desc": "pk(0444cf30dc77755371130b12f2150407f22a6208ebdc549a3410df7e3c9b1d159e43848998200f1201aad383c3bbde1fc2e49d32a61ad6e621a5e2a0563935998c)#dn6hjgz0",
            "hex": "410444cf30dc77755371130b12f2150407f22a6208ebdc549a3410df7e3c9b1d159e43848998200f1201aad383c3bbde1fc2e49d32a61ad6e621a5e2a0563935998cac",
            "type": "pubkey"
          }
        }
      ],
      "hex": "01000000010000000000000000000000000000000000000000000000000000000000000000ffffffff0804ffff001d02e005ffffffff0100f2052a0100000043410444cf30dc77755371130b12f2150407f22a6208ebdc549a3410df7e3c9b1d159e43848998200f1201aad383c3bbde1fc2e49d32a61ad6e621a5e2a0563935998cac00000000"
    }
  ]
}