{
  "hash": "00000000cb0356066b1f8d2482c4747e8da716bf355b71f88fad0b3c3bdd62d8",
  "confirmations": 43615,
  "height": 9483,
  "version": 1,
  "versionHex": "00000001",
  "merkleroot": "a12bce4369f323e396493353fefb5973964f1b1a5cc8024587e6c91815c54495",
  "time": 1238616834,
  "mediantime": 1238613344,
  "nonce": 1725277239,
  "bits": "1d00ffff",
  "difficulty": 1,
  "chainwork": "0000000000000000000000000000000000000000000000000000250c250c250c",
  "nTx": 1,
  "previousblockhash": "000000006e7138111f1e1426d943a1ba2c37b2c0f5bb4a9f132416081d465dad",
  "nextblockhash": "0000000001b609c73fd98ed701a1f3654b4a9e66c4e3447e46076c5aa3d41913",
  "strippedsize": 216,
  "size": 216,
  "weight": 864,
  "tx": [
    {
      "txid": "a12bce4369f323e396493353fefb5973964f1b1a5cc8024587e6c91815c54495",
      "hash": "a12bce4369f323e396493353fefb5973964f1b1a5cc8024587e6c91815c54495",
      "version": 1,
      "size": 135,
      "vsize": 135,
      "weight": 540,
      "locktime": 0,
      "vin": [
        {
          "coinbase": "04ffff001d022105",
          "sequence": 4294967295
        }
      ],
      "vout": [
        {
          "value": 50.0,
          "n": 0,
          "scriptPubKey": {
            "asm": "048d96ef0b28a823753b5cc80d5cb4fe74c4985a1a5c68a84b93717bfa61442186410564bfe0222bcc8136800821c9b4efb489adbd243051505c13aa511ae7dbb6 OP_CHECKSIG",
            "desc": "pk(048d96ef0b28a823753b5cc80d5cb4fe74c4985a1a5c68a84b93717bfa61442186410564bfe0222bcc8136800821c9b4efb489adbd243051505c13aa511ae7dbb6)#lqwztdsz",
            "hex": "41048d96ef0b28a823753b5cc80d5cb4fe74c4985a1a5c68a84b93717bfa61442186410564bfe0222bcc8136800821c9b4efb489adbd243051505c13aa511ae7dbb6ac",
            "type": "pubkey"
          }
        }
      ],
      "hex": "01000000010000000000000000000000000000000000000000000000000000000000000000ffffffff0804ffff001d022105ffffffff0100f2052a010000004341048d96ef0b28a823753b5cc80d5cb4fe74c4985a1a5c68a84b93717bfa61442186410564bfe0222bcc8136800821c9b4efb489adbd243051505c13aa511ae7dbb6ac00000000"
    }
  ]
}