{
  "hash": "00000000857b9025fa9a6f95f96c59b711db8cb8d5dc5831c22d50c24466a088",
  "confirmations": 52316,
  "height": 782,
  "version": 1,
  "versionHex": "00000001",
  "merkleroot": "af43fe221eef93a4b4e7dc86f2face1de956ef8d041123804e409716bdcaa5ed",
  "time": 1232177092,
  "mediantime": 1232171948,
  "nonce": 223401353,
  "bits": "1d00ffff",
  "difficulty": 1,
  "chainwork": "0000000000000000000000000000000000000000000000000000030f030f030f",
  "nTx": 1,
  "previousblockhash": "0000000047638a0d2e2e541db2c05544bae64a7a7292838e019dda6890b0b1dd",
  "nextblockhash": "000000005ceec93f3dfbdfa1eab28ceac7ad24b73064b3812b73fe6c6be96a55",
  "strippedsize": 215,
  "size": 215,
  "weight": 860,
  "tx": [
    {
      "txid": "af43fe221eef93a4b4e7dc86f2face1de956ef8d041123804e409716bdcaa5ed",
      "hash": "af43fe221eef93a4b4e7dc86f2face1de956ef8d041123804e409716bdcaa5ed",
      "version": 1,
      "size": 134,
      "vsize": 134,
      "weight": 536,
      "locktime": 0,
      "vin": [
        {
          "coinbase": "04ffff001d0171",
          "sequence": 4294967295
        }
      ],
      "vout": [
        {
          "value": 50.0,
          "n": 0,
          "scriptPubKey": {
            "asm": "0438bfe77ee432c90aa987909b9e184119cbcb602b214a9754c95d13b16d8316c5f11816a10c1cd30cae181a10892933241d3517510b29d53dce9142f3b35a925c OP_CHECKSIG",
            "desc": "pk(0438bfe77ee432c90aa987909b9e184119cbcb602b214a9754c95d13b16d8316c5f11816a10c1cd30cae181a10892933241d3517510b29d53dce9142f3b35a925c)#j6heqwzn",
            "hex": "410438bfe77ee432c90aa987909b9e184119cbcb602b214a9754c95d13b16d8316c5f11816a10c1cd30cae181a10892933241d3517510b29d53dce9142f3b35a925cac",
            "type": "pubkey"
          }
        }
      ],
      "hex": "01000000010000000000000000000000000000000000000000000000000000000000000000ffffffff0704ffff001d0171ffffffff0100f2052a0100000043410438bfe77ee432c90aa987909b9e184119cbcb602b214a9754c95d13b16d8316c5f11816a10c1cd30cae181a10892933241d3517510b29d53dce9142f3b35a925cac00000000"
    }
  ]
}