{
  "hash": "00000000daea17fed830ea437e95b5461b9820c49cbe2fa6ddd0b63b272decab",
  "confirmations": 43260,
  "height": 9838,
  "version": 1,
  "versionHex": "00000001",
  "merkleroot": "71ab61bce97a0e1aaf3d0d42c9155778d68ee0ea17b40cd3c64d4edc419ea51a",
  "time": 1238882088,
  "mediantime": 1238878880,
  "nonce": 34615383,
  "bits": "1d00ffff",
  "difficulty": 1,
  "chainwork": "0000000000000000000000000000000000000000000000000000266f266f266f",
  "nTx": 1,
  "previousblockhash": "00000000acc0f1ca3334891819df9916b3e93aa7901bd2046fd9141fe065a05b",
  "nextblockhash": "000000008bfb183e9d375292344ecd35899c258bddef56ee091b61dda63a66c2",
  "strippedsize": 215,
  "size": 215,
  "weight": 860,
  "tx": [
    {
      "txid": "71ab61bce97a0e1aaf3d0d42c9155778d68ee0ea17b40cd3c64d4edc419ea51a",
      "hash": "71ab61bce97a0e1aaf3d0d42c9155778d68ee0ea17b40cd3c64d4edc419ea51a",
      "version": 1,
      "size": 134,
      "vsize": 134,
      "weight": 536,
      "locktime": 0,
      "vin": [
        {
          "coinbase": "04ffff001d0103",
          "sequence": 4294967295
        }
      ],
      "vout": [
        {
          "value": 50.0,
          "n": 0,
          "scriptPubKey": {
            "asm": "0493f40e43289aa5a54b5622db748e5607ef3e56e048f1e7ec7b1d9b4c41fe0e927efb1f0f3295590a71ef1ad4f255d402d1b3e421c683d5b5935b709e0ffce36b OP_CHECKSIG",
            "desc": "pk(0493f40e43289aa5a54b5622db748e5607ef3e56e048f1e7ec7b1d9b4c41fe0e927efb1f0f3295590a71ef1ad4f255d402d1b3e421c683d5b5935b709e0ffce36b)#j2tujy5z",
            "hex": "410493f40e43289aa5a54b5622db748e5607ef3e56e048f1e7ec7b1d9b4c41fe0e927efb1f0f3295590a71ef1ad4f255d402d1b3e421c683d5b5935b709e0ffce36bac",
            "type": "pubkey"
          }
        }
      ],
      "hex": "01000000010000000000000000000000000000000000000000000000000000000000000000ffffffff0704ffff001d0103ffffffff0100f2052a0100000043410493f40e43289aa5a54b5622db748e5607ef3e56e048f1e7ec7b1d9b4c41fe0e927efb1f0f3295590a71ef1ad4f255d402d1b3e421c683d5b5935b709e0ffce36bac00000000"
    }
  ]
}