{
  "hash": "0000000063c8c3d40807ff4f0a12841d127a6aca2f853522a74378902de72ebf",
  "confirmations": 52243,
  "height": 855,
  "version": 1,
  "versionHex": "00000001",
  "merkleroot": "697888642a848cd90c3fd39336f19747571abfaba06e30c13468b0ec753833e9",
  "time": 1232234595,
  "mediantime": 1232229891,
  "nonce": 4174093604,
  "bits": "1d00ffff",
  "difficulty": 1,
  "chainwork": "0000000000000000000000000000000000000000000000000000035803580358",
  "nTx": 1,
  "previousblockhash": "0000000098340110d25610650daaca4931a51519a5bea7e789bbe6eb82ad8244",
  "nextblockhash": "00000000fe908b5f74b5c07fcaacef2832456fe5d69aa816e9f3f9df616b6113",
  "strippedsize": 216,
  "size": 216,
  "weight": 864,
  "tx": [
    {
      "txid": "697888642a848cd90c3fd39336f19747571abfaba06e30c13468b0ec753833e9",
      "hash": "697888642a848cd90c3fd39336f19747571abfaba06e30c13468b0ec753833e9",
      "version": 1,
      "size": 135,
      "vsize": 135,
      "weight": 540,
      "locktime": 0,
      "vin": [
        {
          "coinbase": "04ffff001d029102",
          "sequence": 4294967295
        }
      ],
      "vout": [
        {
          "value": 50.0,
          "n": 0,
          "scriptPubKey": {
            "asm": "0467e4eb7516e26ea57d97f7348a15906ecf1c2925e3b671921a219f27e934e7a14932e78e4fc27136884c91f1a4894f9fd4bedd4c7c38a7665acea26ba6829ce5 OP_CHECKSIG",
            "desc": "pk(0467e4eb7516e26ea57d97f7348a15906ecf1c2925e3b671921a219f27e934e7a14932e78e4fc27136884c91f1a4894f9fd4bedd4c7c38a7665acea26ba6829ce5)#wmhvy42l",
            "hex": "410467e4eb7516e26ea57d97f7348a15906ecf1c2925e3b671921a219f27e934e7a14932e78e4fc27136884c91f1a4894f9fd4bedd4c7c38a7665acea26ba6829ce5ac",
            "type": "pubkey"
          }
        }
      ],
      "hex": "01000000010000000000000000000000000000000000000000000000000000000000000000ffffffff0804ffff001d029102ffffffff0100f2052a0100000043410467e4eb7516e26ea57d97f7348a15906ecf1c2925e3b671921a219f27e934e7a14932e78e4fc27136884c91f1a4894f9fd4bedd4c7c38a7665acea26ba6829ce5ac00000000"
    }
  ]
}