{
  "hash": "00000000ac875a3840c83257ecba20fd9393b19666dff3bc2b2461da99a6a88e",
  "confirmations": 47875,
  "height": 5223,
  "version": 1,
  "versionHex": "00000001",
  "merkleroot": "d15416457cef1d90825270ef9e8cd48a21da5b1d2817440f99decaef5c42f9c5",
  "time": 1235303661,
  "mediantime": 1235299292,
  "nonce": 4070608641,
  "bits": "1d00ffff",
  "difficulty": 1,
  "chainwork": "0000000000000000000000000000000000000000000000000000146814681468",
  "nTx": 1,
  "previousblockhash": "000000004ae563e322b2a2b6cd268695e30c28e1262377cf52382b50edbbf623",
  "nextblockhash": "0000000096a80b51b920852ee9dfc4e721a46d10622c0fc41aebba16928e13e7",
  "strippedsize": 216,
  "size": 216,
  "weight": 864,
  "tx": [
    {
      "txid": "d15416457cef1d90825270ef9e8cd48a21da5b1d2817440f99decaef5c42f9c5",
      "hash": "d15416457cef1d90825270ef9e8cd48a21da5b1d2817440f99decaef5c42f9c5",
      "version": 1,
      "size": 135,
      "vsize": 135,
      "weight": 540,
      "locktime": 0,
      "vin": [
        {
          "coinbase": "04ffff001d02d300",
          "sequence": 4294967295
        }
      ],
      "vout": [
        {
          "value": 50.0,
          "n": 0,
          "scriptPubKey": {
            "asm": "04984e36d85d480b9f700d391044c8a4389bc68ae1c5e704621b6acff669933a03b89e25c733ba3aabb68c1b4e33da5af8559596b1ec6e609283a38611136e24c8 OP_CHECKSIG",
            "desc": "pk(04984e36d85d480b9f700d391044c8a4389bc68ae1c5e704621b6acff669933a03b89e25c733ba3aabb68c1b4e33da5af8559596b1ec6e609283a38611136e24c8)#ycf7vsfh",
            "hex": "4104984e36d85d480b9f700d391044c8a4389bc68ae1c5e704621b6acff669933a03b89e25c733ba3aabb68c1b4e33da5af8559596b1ec6e609283a38611136e24c8ac",
            "type": "pubkey"
          }
        }
      ],
      "hex": "01000000010000000000000000000000000000000000000000000000000000000000000000ffffffff0804ffff001d02d300ffffffff0100f2052a01000000434104984e36d85d480b9f700d391044c8a4389bc68ae1c5e704621b6acff669933a03b89e25c733ba3aabb68c1b4e33da5af8559596b1ec6e609283a38611136e24c8ac00000000"
    }
  ]
}