{
  "hash": "000000007b0dbd5c0fbfc0f2917a179f514dd69bdf476f8dc96bc8acf78ce0f5",
  "confirmations": 49847,
  "height": 3251,
  "version": 1,
  "versionHex": "00000001",
  "merkleroot": "d623643537cbcb512e885bc39d23f30c54b6aeabe7739e0440cad7407c620a17",
  "time": 1233937243,
  "mediantime": 1233934521,
  "nonce": 3375016707,
  "bits": "1d00ffff",
  "difficulty": 1,
  "chainwork": "00000000000000000000000000000000000000000000000000000cb40cb40cb4",
  "nTx": 1,
  "previousblockhash": "00000000f0738e99d91bae4dc0d73005f22902b8f3073b959ce1f15607a50b81",
  "nextblockhash": "0000000076a7445733d78a7d99a59a06eacdfba71e2128f2b8ecfbadba08807a",
  "strippedsize": 216,
  "size": 216,
  "weight": 864,
  "tx": [
    {
      "txid": "d623643537cbcb512e885bc39d23f30c54b6aeabe7739e0440cad7407c620a17",
      "hash": "d623643537cbcb512e885bc39d23f30c54b6aeabe7739e0440cad7407c620a17",
      "version": 1,
      "size": 135,
      "vsize": 135,
      "weight": 540,
      "locktime": 0,
      "vin": [
        {
          "coinbase": "04ffff001d027503",
          "sequence": 4294967295
        }
      ],
      "vout": [
        {
          "value": 50.0,
          "n": 0,
          "scriptPubKey": {
            "asm": "04ec4d4c5c2f99e941c4c4336d4c735660ee95a2678206383eba153a88cf18d5b4790bc10f52a7b761d5be68e6e17d9556bf16365ba298ed04bd4e3c9742b16e12 OP_CHECKSIG",
            "desc": "pk(04ec4d4c5c2f99e941c4c4336d4c735660ee95a2678206383eba153a88cf18d5b4790bc10f52a7b761d5be68e6e17d9556bf16365ba298ed04bd4e3c9742b16e12)#qq5jqva4",
            "hex": "4104ec4d4c5c2f99e941c4c4336d4c735660ee95a2678206383eba153a88cf18d5b4790bc10f52a7b761d5be68e6e17d9556bf16365ba298ed04bd4e3c9742b16e12ac",
            "type": "pubkey"
          }
        }
      ],
      "hex": "01000000010000000000000000000000000000000000000000000000000000000000000000ffffffff0804ffff001d027503ffffffff0100f2052a01000000434104ec4d4c5c2f99e941c4c4336d4c735660ee95a2678206383eba153a88cf18d5b4790bc10f52a7b761d5be68e6e17d9556bf16365ba298ed04bd4e3c9742b16e12ac00000000"
    }
  ]
}