{
  "hash": "00000000e5c5fc186ddd5283f3de91ec2637a567307faa231e775066fa570959",
  "confirmations": 50540,
  "height": 2558,
  "version": 1,
  "versionHex": "00000001",
  "merkleroot": "de604145cee73a84b1d83ae756698dc6c278d42ac9795a639ff813aed170bcfd",
  "time": 1233459785,
  "mediantime": 1233457527,
  "nonce": 3670147123,
  "bits": "1d00ffff",
  "difficulty": 1,
  "chainwork": "000000000000000000000000000000000000000000000000000009ff09ff09ff",
  "nTx": 1,
  "previousblockhash": "000000006981d3d261a7aec707f5c0051ae2a01d8d86f2139771241fc4d39c7c",
  "nextblockhash": "0000000037ba3b25d293d04601644c4dc8dc504762a161f3cac43ba7347524dd",
  "strippedsize": 216,
  "size": 216,
  "weight": 864,
  "tx": [
    {
      "txid": "de604145cee73a84b1d83ae756698dc6c278d42ac9795a639ff813aed170bcfd",
      "hash": "de604145cee73a84b1d83ae756698dc6c278d42ac9795a639ff813aed170bcfd",
      "version": 1,
      "size": 135,
      "vsize": 135,
      "weight": 540,
      "locktime": 0,
      "vin": [
        {
          "coinbase": "04ffff001d020e02",
          "sequence": 4294967295
        }
      ],
      "vout": [
        {
          "value": 50.0,
          "n": 0,
          "scriptPubKey": {
            "asm": "04cd2ba0cca1bdb46ee60510d6c110ef15b49821263bbd2350f1487917aaefb24c65d02cd6b51478a7bb2462d0692ea2a217e5d525d98075a6c4bb53ac3a167089 OP_CHECKSIG",
            "desc": "pk(04cd2ba0cca1bdb46ee60510d6c110ef15b49821263bbd2350f1487917aaefb24c65d02cd6b51478a7bb2462d0692ea2a217e5d525d98075a6c4bb53ac3a167089)#5wrds4vy",
            "hex": "4104cd2ba0cca1bdb46ee60510d6c110ef15b49821263bbd2350f1487917aaefb24c65d02cd6b51478a7bb2462d0692ea2a217e5d525d98075a6c4bb53ac3a167089ac",
            "type": "pubkey"
          }
        }
      ],
      "hex": "01000000010000000000000000000000000000000000000000000000000000000000000000ffffffff0804ffff001d020e02ffffffff0100f2052a01000000434104cd2ba0cca1bdb46ee60510d6c110ef15b49821263bbd2350f1487917aaefb24c65d02cd6b51478a7bb2462d0692ea2a217e5d525d98075a6c4bb53ac3a167089ac00000000"
    }
  ]
}