{
  "hash": "000000001686e1d92319baf8038fff00f036216317f0c89fd77c36acfeda88d9",
  "confirmations": 47576,
  "height": 5522,
  "version": 1,
  "versionHex": "00000001",
  "merkleroot": "f73e5d14501a724db7b1fad753215dcc5d536a9094d3a3fb2bc289cc4c761cad",
  "time": 1235538083,
  "mediantime": 1235534915,
  "nonce": 3564997676,
  "bits": "1d00ffff",
  "difficulty": 1,
  "chainwork": "0000000000000000000000000000000000000000000000000000159315931593",
  "nTx": 1,
  "previousblockhash": "00000000132c850b2de6863eadbd8b6c57b2ca9a63e0b726307bd6a5191646fc",
  "nextblockhash": "0000000098d88753452c62bfce6c636c7a139ebac7d9a3284636af5c79de0587",
  "strippedsize": 216,
  "size": 216,
  "weight": 864,
  "tx": [
    {
      "txid": "f73e5d14501a724db7b1fad753215dcc5d536a9094d3a3fb2bc289cc4c761cad",
      "hash": "f73e5d14501a724db7b1fad753215dcc5d536a9094d3a3fb2bc289cc4c761cad",
      "version": 1,
      "size": 135,
      "vsize": 135,
      "weight": 540,
      "locktime": 0,
      "vin": [
        {
          "coinbase": "04ffff001d021206",
          "sequence": 4294967295
        }
      ],
      "vout": [
        {
          "value": 50.0,
          "n": 0,
          "scriptPubKey": {
            "asm": "04605dc6335c3f743a565c487c12bd8588602a870a95a31a531be00cb2429401aeabd4c867e52e093a086e4490752916954d263bf118ad8631e20d38c879cb7534 OP_CHECKSIG",
            "desc": "pk(04605dc6335c3f743a565c487c12bd8588602a870a95a31a531be00cb2429401aeabd4c867e52e093a086e4490752916954d263bf118ad8631e20d38c879cb7534)#3eyxmdaf",
            "hex": "4104605dc6335c3f743a565c487c12bd8588602a870a95a31a531be00cb2429401aeabd4c867e52e093a086e4490752916954d263bf118ad8631e20d38c879cb7534ac",
            "type": "pubkey"
          }
        }
      ],
      "hex": "01000000010000000000000000000000000000000000000000000000000000000000000000ffffffff0804ffff001d021206ffffffff0100f2052a01000000434104605dc6335c3f743a565c487c12bd8588602a870a95a31a531be00cb2429401aeabd4c867e52e093a086e4490752916954d263bf118ad8631e20d38c879cb7534ac00000000"
    }
  ]
}