{
  "hash": "000000002a78858548881c706490263d3f4617df7dbdd39502c19b7c582a6597",
  "confirmations": 44242,
  "height": 8856,
  "version": 1,
  "versionHex": "00000001",
  "merkleroot": "ded8590a193c936a359b70c0834862bd33d307384d496ffddae11ad8822f029d",
  "time": 1238141379,
  "mediantime": 1238138936,
  "nonce": 2106894646,
  "bits": "1d00ffff",
  "difficulty": 1,
  "chainwork": "0000000000000000000000000000000000000000000000000000229922992299",
  "nTx": 1,
  "previousblockhash": "00000000ed919f563c4b59e27f259cd5a182d2d6900ce8d7857c13ce376ba03b",
  "nextblockhash": "000000009170777e5c4bca070011b170128efb51a85367238c42dc78906d2323",
  "strippedsize": 216,
  "size": 216,
  "weight": 864,
  "tx": [
    {
      "txid": "ded8590a193c936a359b70c0834862bd33d307384d496ffddae11ad8822f029d",
      "hash": "ded8590a193c936a359b70c0834862bd33d307384d496ffddae11ad8822f029d",
      "version": 1,
      "size": 135,
      "vsize": 135,
      "weight": 540,
      "locktime": 0,
      "vin": [
        {
          "coinbase": "04ffff001d02a103",
          "sequence": 4294967295
        }
      ],
      "vout": [
        {
          "value": 50.0,
          "n": 0,
          "scriptPubKey": {
            "asm": "04b95c65cfd344093c1a7079ee556d4887ad4648f740bdecafa5405f597532c4b4f41f8b34f65b1fc05ddc1a28c34fa115becd0ef575eb15b3ebac90b285036cca OP_CHECKSIG",
            "desc": "pk(04b95c65cfd344093c1a7079ee556d4887ad4648f740bdecafa5405f597532c4b4f41f8b34f65b1fc05ddc1a28c34fa115becd0ef575eb15b3ebac90b285036cca)#ytrdhzjh",
            "hex": "4104b95c65cfd344093c1a7079ee556d4887ad4648f740bdecafa5405f597532c4b4f41f8b34f65b1fc05ddc1a28c34fa115becd0ef575eb15b3ebac90b285036ccaac",
            "type": "pubkey"
          }
        }
      ],
      "hex": "01000000010000000000000000000000000000000000000000000000000000000000000000ffffffff0804ffff001d02a103ffffffff0100f2052a01000000434104b95c65cfd344093c1a7079ee556d4887ad4648f740bdecafa5405f597532c4b4f41f8b34f65b1fc05ddc1a28c34fa115becd0ef575eb15b3ebac90b285036ccaac00000000"
    }
  ]
}