{
  "hash": "00000000f3dcffd5da3042beb308cb56f9a2412a78b8e899bdbfd15bf50deff3",
  "confirmations": 45395,
  "height": 7703,
  "version": 1,
  "versionHex": "00000001",
  "merkleroot": "4fca06120e776ba35d7818e8ad1d12fa808a1df15abe5d31666f7a0615d7335b",
  "time": 1237241447,
  "mediantime": 1237237959,
  "nonce": 219334593,
  "bits": "1d00ffff",
  "difficulty": 1,
  "chainwork": "00000000000000000000000000000000000000000000000000001e181e181e18",
  "nTx": 1,
  "previousblockhash": "00000000c43d7b93b59627eabebb2650c42570f311767d3f720a617dcc0b0930",
  "nextblockhash": "000000003e2a49424baaf8e3fcbc849e9dfa8db750ed7f400414573fe92830c8",
  "strippedsize": 216,
  "size": 216,
  "weight": 864,
  "tx": [
    {
      "txid": "4fca06120e776ba35d7818e8ad1d12fa808a1df15abe5d31666f7a0615d7335b",
      "hash": "4fca06120e776ba35d7818e8ad1d12fa808a1df15abe5d31666f7a0615d7335b",
      "version": 1,
      "size": 135,
      "vsize": 135,
      "weight": 540,
      "locktime": 0,
      "vin": [
        {
          "coinbase": "04ffff001d02b603",
          "sequence": 4294967295
        }
      ],
      "vout": [
        {
          "value": 50.0,
          "n": 0,
          "scriptPubKey": {
            "asm": "0423e7822abd8cd347188b674592f03172c0f217cca2dd2d6fe034e994806271344c665eda1fab073d308167027800af6e498ad0fd324c64c4d3c47098cc30843f OP_CHECKSIG",
            "desc": "pk(0423e7822abd8cd347188b674592f03172c0f217cca2dd2d6fe034e994806271344c665eda1fab073d308167027800af6e498ad0fd324c64c4d3c47098cc30843f)#3sxwr6np",
            "hex": "410423e7822abd8cd347188b674592f03172c0f217cca2dd2d6fe034e994806271344c665eda1fab073d308167027800af6e498ad0fd324c64c4d3c47098cc30843fac",
            "type": "pubkey"
          }
        }
      ],
      "hex": "01000000010000000000000000000000000000000000000000000000000000000000000000ffffffff0804ffff001d02b603ffffffff0100f2052a0100000043410423e7822abd8cd347188b674592f03172c0f217cca2dd2d6fe034e994806271344c665eda1fab073d308167027800af6e498ad0fd324c64c4d3c47098cc30843fac00000000"
    }
  ]
}