{
  "hash": "000000005cfc10840d76b4a49410b51e38db0ef523bb8b5687e6d86965675d79",
  "confirmations": 46823,
  "height": 6275,
  "version": 1,
  "versionHex": "00000001",
  "merkleroot": "761bae3e16b31fc2496f4ce5abbd7fd2efb20477387faf188c3cb40ce8f0eec7",
  "time": 1236151607,
  "mediantime": 1236148821,
  "nonce": 693687096,
  "bits": "1d00ffff",
  "difficulty": 1,
  "chainwork": "0000000000000000000000000000000000000000000000000000188418841884",
  "nTx": 1,
  "previousblockhash": "000000006f1a159c96cee945b431aa2bb594017d4cbbc20f29768c5018b7f539",
  "nextblockhash": "0000000090d2eeec877b8c4aace84e4a4cb6a0dd3757dca18baf40866d04e504",
  "strippedsize": 216,
  "size": 216,
  "weight": 864,
  "tx": [
    {
      "txid": "761bae3e16b31fc2496f4ce5abbd7fd2efb20477387faf188c3cb40ce8f0eec7",
      "hash": "761bae3e16b31fc2496f4ce5abbd7fd2efb20477387faf188c3cb40ce8f0eec7",
      "version": 1,
      "size": 135,
      "vsize": 135,
      "weight": 540,
      "locktime": 0,
      "vin": [
        {
          "coinbase": "04ffff001d02f209",
          "sequence": 4294967295
        }
      ],
      "vout": [
        {
          "value": 50.0,
          "n": 0,
          "scriptPubKey": {
            "asm": "04073219529304e6554400f08becf1f8db658a974638be5f2f23a4c35a9982e25f4cd6fa38e1589575f305fc9db6dae7deb0b99bfb8725479aae9ac8575f1c01fc OP_CHECKSIG",
            "desc": "pk(04073219529304e6554400f08becf1f8db658a974638be5f2f23a4c35a9982e25f4cd6fa38e1589575f305fc9db6dae7deb0b99bfb8725479aae9ac8575f1c01fc)#q5m9sm5g",
            "hex": "4104073219529304e6554400f08becf1f8db658a974638be5f2f23a4c35a9982e25f4cd6fa38e1589575f305fc9db6dae7deb0b99bfb8725479aae9ac8575f1c01fcac",
            "type": "pubkey"
          }
        }
      ],
      "hex": "01000000010000000000000000000000000000000000000000000000000000000000000000ffffffff0804ffff001d02f209ffffffff0100f2052a01000000434104073219529304e6554400f08becf1f8db658a974638be5f2f23a4c35a9982e25f4cd6fa38e1589575f305fc9db6dae7deb0b99bfb8725479aae9ac8575f1c01fcac00000000"
    }
  ]
}