{
  "hash": "0000000088980c92d1f8edadc54cd34d7fb187e74a22a99b3c0f4fbb5bd84d7b",
  "confirmations": 47670,
  "height": 5428,
  "version": 1,
  "versionHex": "00000001",
  "merkleroot": "28cdb098600b6bdd77aa761df97b68671b67eaa514ac0e9d04332bfebc2efc4d",
  "time": 1235462912,
  "mediantime": 1235457904,
  "nonce": 65111440,
  "bits": "1d00ffff",
  "difficulty": 1,
  "chainwork": "0000000000000000000000000000000000000000000000000000153515351535",
  "nTx": 1,
  "previousblockhash": "00000000288877a515fa6e40b3f257a4821773d47f235ea6f5c2105140ace81d",
  "nextblockhash": "000000005fa9181adbb3ede82c9a692974e06a3267429243c831b7031664a9e6",
  "strippedsize": 216,
  "size": 216,
  "weight": 864,
  "tx": [
    {
      "txid": "28cdb098600b6bdd77aa761df97b68671b67eaa514ac0e9d04332bfebc2efc4d",
      "hash": "28cdb098600b6bdd77aa761df97b68671b67eaa514ac0e9d04332bfebc2efc4d",
      "version": 1,
      "size": 135,
      "vsize": 135,
      "weight": 540,
      "locktime": 0,
      "vin": [
        {
          "coinbase": "04ffff001d02b405",
          "sequence": 4294967295
        }
      ],
      "vout": [
        {
          "value": 50.0,
          "n": 0,
          "scriptPubKey": {
            "asm": "04594e67d661a027d60fabc8f4924f788d4240ce12d90d2ff6933b15ffb201e229d725a3764b81e4cc3f5878d2206950b57b4b7edded61264573ab7f1ae8d06899 OP_CHECKSIG",
            "desc": "pk(04594e67d661a027d60fabc8f4924f788d4240ce12d90d2ff6933b15ffb201e229d725a3764b81e4cc3f5878d2206950b57b4b7edded61264573ab7f1ae8d06899)#292yxd7f",
            "hex": "4104594e67d661a027d60fabc8f4924f788d4240ce12d90d2ff6933b15ffb201e229d725a3764b81e4cc3f5878d2206950b57b4b7edded61264573ab7f1ae8d06899ac",
            "type": "pubkey"
          }
        }
      ],
      "hex": "01000000010000000000000000000000000000000000000000000000000000000000000000ffffffff0804ffff001d02b405ffffffff0100f2052a01000000434104594e67d661a027d60fabc8f4924f788d4240ce12d90d2ff6933b15ffb201e229d725a3764b81e4cc3f5878d2206950b57b4b7edded61264573ab7f1ae8d06899ac00000000"
    }
  ]
}