{
  "hash": "000000007ead0a1b0b1faa566697697600fbc24dadef627cf76169c8631e7453",
  "confirmations": 52130,
  "height": 374,
  "version": 1,
  "versionHex": "00000001",
  "merkleroot": "3abd3ac1b6062f6393e0c62b4749f38a0acd8e7fba7f6702768553c545655771",
  "time": 1231881668,
  "mediantime": 1231879535,
  "nonce": 2515417640,
  "bits": "1d00ffff",
  "difficulty": 1,
  "chainwork": "0000000000000000000000000000000000000000000000000000017701770177",
  "nTx": 1,
  "previousblockhash": "00000000f91934e5f42cb57e2c3241a4bb7c178c85593613e7b2e43c3a9ff2ab",
  "nextblockhash": "00000000a075a8baeda1ecd9043458877c9cb9abc68ccd035fcbf450b91fd3b5",
  "strippedsize": 216,
  "size": 216,
  "weight": 864,
  "tx": [
    {
      "txid": "3abd3ac1b6062f6393e0c62b4749f38a0acd8e7fba7f6702768553c545655771",
      "hash": "3abd3ac1b6062f6393e0c62b4749f38a0acd8e7fba7f6702768553c545655771",
      "version": 1,
      "size": 135,
      "vsize": 135,
      "weight": 540,
      "locktime": 0,
      "vin": [
        {
          "coinbase": "04ffff001d02f201",
          "sequence": 4294967295
        }
      ],
      "vout": [
        {
          "value": 50.0,
          "n": 0,
          "scriptPubKey": {
            "asm": "0460dd8af4ab699f0162c4de42811a98bfc158f06cf1e70f7365d560e47f270e79969299247944e4f6a4f97bdd3af29f16a4f5379f9574bd287757e9a59ab946b6 OP_CHECKSIG",
            "desc": "pk(0460dd8af4ab699f0162c4de42811a98bfc158f06cf1e70f7365d560e47f270e79969299247944e4f6a4f97bdd3af29f16a4f5379f9574bd287757e9a59ab946b6)#t93kgqeu",
            "hex": "410460dd8af4ab699f0162c4de42811a98bfc158f06cf1e70f7365d560e47f270e79969299247944e4f6a4f97bdd3af29f16a4f5379f9574bd287757e9a59ab946b6ac",
            "type": "pubkey"
          }
        }
      ],
      "hex": "01000000010000000000000000000000000000000000000000000000000000000000000000ffffffff0804ffff001d02f201ffffffff0100f2052a0100000043410460dd8af4ab699f0162c4de42811a98bfc158f06cf1e70f7365d560e47f270e79969299247944e4f6a4f97bdd3af29f16a4f5379f9574bd287757e9a59ab946b6ac00000000"
    }
  ]
}