{
  "hash": "00000000696beb62d821a7c6dfa05a1b763b25d05f8cbc80afe22397d563921e",
  "confirmations": 51978,
  "height": 1120,
  "version": 1,
  "versionHex": "00000001",
  "merkleroot": "939390737bb8aa0ae5b60d6ae74467adf8539c29595a9179ce1c3a276f644445",
  "time": 1232436132,
  "mediantime": 1232432915,
  "nonce": 3465212424,
  "bits": "1d00ffff",
  "difficulty": 1,
  "chainwork": "0000000000000000000000000000000000000000000000000000046104610461",
  "nTx": 1,
  "previousblockhash": "0000000085abc7c8220ed9f2bdb8de94cff262c44981414587260f1bd66b7a24",
  "nextblockhash": "00000000ef9b99b56eb53d5fc71bcd9a5c4d437ce434dfcc9dca183a33615636",
  "strippedsize": 216,
  "size": 216,
  "weight": 864,
  "tx": [
    {
      "txid": "939390737bb8aa0ae5b60d6ae74467adf8539c29595a9179ce1c3a276f644445",
      "hash": "939390737bb8aa0ae5b60d6ae74467adf8539c29595a9179ce1c3a276f644445",
      "version": 1,
      "size": 135,
      "vsize": 135,
      "weight": 540,
      "locktime": 0,
      "vin": [
        {
          "coinbase": "04ffff001d025607",
          "sequence": 4294967295
        }
      ],
      "vout": [
        {
          "value": 50.0,
          "n": 0,
          "scriptPubKey": {
            "asm": "04c324610d0f61928be1112ab6eda6932f9f6c3495134bf2067cb31e589cf9e900c55aa7fa5322699c99cede4891c2a0ddfe7890fe51c7a10c85fdcc8e6ee2f1bc OP_CHECKSIG",
            "desc": "pk(04c324610d0f61928be1112ab6eda6932f9f6c3495134bf2067cb31e589cf9e900c55aa7fa5322699c99cede4891c2a0ddfe7890fe51c7a10c85fdcc8e6ee2f1bc)#syfy3gcv",
            "hex": "4104c324610d0f61928be1112ab6eda6932f9f6c3495134bf2067cb31e589cf9e900c55aa7fa5322699c99cede4891c2a0ddfe7890fe51c7a10c85fdcc8e6ee2f1bcac",
            "type": "pubkey"
          }
        }
      ],
      "hex": "01000000010000000000000000000000000000000000000000000000000000000000000000ffffffff0804ffff001d025607ffffffff0100f2052a01000000434104c324610d0f61928be1112ab6eda6932f9f6c3495134bf2067cb31e589cf9e900c55aa7fa5322699c99cede4891c2a0ddfe7890fe51c7a10c85fdcc8e6ee2f1bcac00000000"
    }
  ]
}