{
  "hash": "00000000ec7c949e12fc0b74c64b8fa8c78f8d53f69868a4b3408450c82d136e",
  "confirmations": 44220,
  "height": 8878,
  "version": 1,
  "versionHex": "00000001",
  "merkleroot": "ee021055ec50213695b6d9613b26599ff08ba4323a0c6ce1f502865d76a4375b",
  "time": 1238159102,
  "mediantime": 1238153774,
  "nonce": 8262447,
  "bits": "1d00ffff",
  "difficulty": 1,
  "chainwork": "000000000000000000000000000000000000000000000000000022af22af22af",
  "nTx": 1,
  "previousblockhash": "00000000ba671ce9b23720a7e9350fdbca314edb2c206b090afddb6464866152",
  "nextblockhash": "00000000901236b6b60ea294338dc498e2691d40e5d6fd931aa7e5e694935f36",
  "strippedsize": 216,
  "size": 216,
  "weight": 864,
  "tx": [
    {
      "txid": "ee021055ec50213695b6d9613b26599ff08ba4323a0c6ce1f502865d76a4375b",
      "hash": "ee021055ec50213695b6d9613b26599ff08ba4323a0c6ce1f502865d76a4375b",
      "version": 1,
      "size": 135,
      "vsize": 135,
      "weight": 540,
      "locktime": 0,
      "vin": [
        {
          "coinbase": "04ffff001d021204",
          "sequence": 4294967295
        }
      ],
      "vout": [
        {
          "value": 50.0,
          "n": 0,
          "scriptPubKey": {
            "asm": "0419e0f5151156dbaecd06b4fee9bf5933c52e750457801651fccf55ccaab2beefd4de63a690d430671c2df20b33fd11eedc8d8d165f063e519dcecb09f5ee0b32 OP_CHECKSIG",
            "desc": "pk(0419e0f5151156dbaecd06b4fee9bf5933c52e750457801651fccf55ccaab2beefd4de63a690d430671c2df20b33fd11eedc8d8d165f063e519dcecb09f5ee0b32)#wv3r5kat",
            "hex": "410419e0f5151156dbaecd06b4fee9bf5933c52e750457801651fccf55ccaab2beefd4de63a690d430671c2df20b33fd11eedc8d8d165f063e519dcecb09f5ee0b32ac",
            "type": "pubkey"
          }
        }
      ],
      "hex": "01000000010000000000000000000000000000000000000000000000000000000000000000ffffffff0804ffff001d021204ffffffff0100f2052a0100000043410419e0f5151156dbaecd06b4fee9bf5933c52e750457801651fccf55ccaab2beefd4de63a690d430671c2df20b33fd11eedc8d8d165f063e519dcecb09f5ee0b32ac00000000"
    }
  ]
}