{
  "hash": "000000000562da619caf26409ae3dab49f39c1856e960f0cef7028768cbd6711",
  "confirmations": 45728,
  "height": 7370,
  "version": 1,
  "versionHex": "00000001",
  "merkleroot": "26451d88a8a378d363e3bf98fbd1aa53a134c29c518a10bb27a5ee9300799f1d",
  "time": 1236997915,
  "mediantime": 1236995020,
  "nonce": 37005552,
  "bits": "1d00ffff",
  "difficulty": 1,
  "chainwork": "00000000000000000000000000000000000000000000000000001ccb1ccb1ccb",
  "nTx": 1,
  "previousblockhash": "0000000066c016c875f0e56c552f406f69de471c76f85781228457826582f03a",
  "nextblockhash": "000000005eb9eb90598b4c8a7813e0d08ca7ebd6c7bb0c2131cebfa73d0461d5",
  "strippedsize": 216,
  "size": 216,
  "weight": 864,
  "tx": [
    {
      "txid": "26451d88a8a378d363e3bf98fbd1aa53a134c29c518a10bb27a5ee9300799f1d",
      "hash": "26451d88a8a378d363e3bf98fbd1aa53a134c29c518a10bb27a5ee9300799f1d",
      "version": 1,
      "size": 135,
      "vsize": 135,
      "weight": 540,
      "locktime": 0,
      "vin": [
        {
          "coinbase": "04ffff001d027a07",
          "sequence": 4294967295
        }
      ],
      "vout": [
        {
          "value": 50.0,
          "n": 0,
          "scriptPubKey": {
            "asm": "04f840a2cb4222d42895922b52ed51ac238f200bd4a0fa016b31341a3f98a7fd3893624ec4c72724fd9b71c9e4d48bfc17d918f682639141fcc74283f573071eb1 OP_CHECKSIG",
            "desc": "pk(04f840a2cb4222d42895922b52ed51ac238f200bd4a0fa016b31341a3f98a7fd3893624ec4c72724fd9b71c9e4d48bfc17d918f682639141fcc74283f573071eb1)#sgu5sq9n",
            "hex": "4104f840a2cb4222d42895922b52ed51ac238f200bd4a0fa016b31341a3f98a7fd3893624ec4c72724fd9b71c9e4d48bfc17d918f682639141fcc74283f573071eb1ac",
            "type": "pubkey"
          }
        }
      ],
      "hex": "01000000010000000000000000000000000000000000000000000000000000000000000000ffffffff0804ffff001d027a07ffffffff0100f2052a01000000434104f840a2cb4222d42895922b52ed51ac238f200bd4a0fa016b31341a3f98a7fd3893624ec4c72724fd9b71c9e4d48bfc17d918f682639141fcc74283f573071eb1ac00000000"
    }
  ]
}