{
  "hash": "00000000cdf2d26cf41ed165002a30ef49d9e8071dd8335607f19c6080e79bc6",
  "confirmations": 47155,
  "height": 5943,
  "version": 1,
  "versionHex": "00000001",
  "merkleroot": "ac6e6aa1c3517d109648b66e781db62c28bdfa0ab6768cd9a389fa88919bfa8f",
  "time": 1235883599,
  "mediantime": 1235879648,
  "nonce": 3648766007,
  "bits": "1d00ffff",
  "difficulty": 1,
  "chainwork": "0000000000000000000000000000000000000000000000000000173817381738",
  "nTx": 1,
  "previousblockhash": "0000000087e87b084602a425e53819b65dc0f0ac9bff48631c7d24972a0537b6",
  "nextblockhash": "0000000058ea26e4263178f3bbe49f200d291c104e757340dd145daa1faa1d10",
  "strippedsize": 216,
  "size": 216,
  "weight": 864,
  "tx": [
    {
      "txid": "ac6e6aa1c3517d109648b66e781db62c28bdfa0ab6768cd9a389fa88919bfa8f",
      "hash": "ac6e6aa1c3517d109648b66e781db62c28bdfa0ab6768cd9a389fa88919bfa8f",
      "version": 1,
      "size": 135,
      "vsize": 135,
      "weight": 540,
      "locktime": 0,
      "vin": [
        {
          "coinbase": "04ffff001d02e303",
          "sequence": 4294967295
        }
      ],
      "vout": [
        {
          "value": 50.0,
          "n": 0,
          "scriptPubKey": {
            "asm": "046eb777a66c0be58a0738a34b6fb6c5f99adc5fc91f2224b9653b18057c748c3491e0e5cb1083b84800a3a831d65e1bc849a12ac396afa71ce6c5201356835504 OP_CHECKSIG",
            "desc": "pk(046eb777a66c0be58a0738a34b6fb6c5f99adc5fc91f2224b9653b18057c748c3491e0e5cb1083b84800a3a831d65e1bc849a12ac396afa71ce6c5201356835504)#t7f395z6",
            "hex": "41046eb777a66c0be58a0738a34b6fb6c5f99adc5fc91f2224b9653b18057c748c3491e0e5cb1083b84800a3a831d65e1bc849a12ac396afa71ce6c5201356835504ac",
            "type": "pubkey"
          }
        }
      ],
      "hex": "01000000010000000000000000000000000000000000000000000000000000000000000000ffffffff0804ffff001d02e303ffffffff0100f2052a010000004341046eb777a66c0be58a0738a34b6fb6c5f99adc5fc91f2224b9653b18057c748c3491e0e5cb1083b84800a3a831d65e1bc849a12ac396afa71ce6c5201356835504ac00000000"
    }
  ]
}