{
  "hash": "00000000039e854de88404b98096d42ba4ca5a9a533b223638f75d6db171605a",
  "confirmations": 50471,
  "height": 2627,
  "version": 1,
  "versionHex": "00000001",
  "merkleroot": "5fb3cf5e21a0b0636896439ece2a2901deef2523c96d7902e9083cda76d93611",
  "time": 1233512124,
  "mediantime": 1233509224,
  "nonce": 1562925572,
  "bits": "1d00ffff",
  "difficulty": 1,
  "chainwork": "00000000000000000000000000000000000000000000000000000a440a440a44",
  "nTx": 1,
  "previousblockhash": "00000000063335f5ab0c00399db8c9ea664cca26ad74a0ca6341ffa4095a5ccc",
  "nextblockhash": "00000000c889e9128f789497110591e9b9675efb0b55a41124c7bacc579c18ef",
  "strippedsize": 216,
  "size": 216,
  "weight": 864,
  "tx": [
    {
      "txid": "5fb3cf5e21a0b0636896439ece2a2901deef2523c96d7902e9083cda76d93611",
      "hash": "5fb3cf5e21a0b0636896439ece2a2901deef2523c96d7902e9083cda76d93611",
      "version": 1,
      "size": 135,
      "vsize": 135,
      "weight": 540,
      "locktime": 0,
      "vin": [
        {
          "coinbase": "04ffff001d026a03",
          "sequence": 4294967295
        }
      ],
      "vout": [
        {
          "value": 50.0,
          "n": 0,
          "scriptPubKey": {
            "asm": "0466ab46026157976cff518476c369957c4c4d5df4a715e0a7070d2ab0d06860f41b2cc42ab974840ea5a1a863eff644fde096f5c4a140f795f4f24325db9b3851 OP_CHECKSIG",
            "desc": "pk(0466ab46026157976cff518476c369957c4c4d5df4a715e0a7070d2ab0d06860f41b2cc42ab974840ea5a1a863eff644fde096f5c4a140f795f4f24325db9b3851)#5gfadlzj",
            "hex": "410466ab46026157976cff518476c369957c4c4d5df4a715e0a7070d2ab0d06860f41b2cc42ab974840ea5a1a863eff644fde096f5c4a140f795f4f24325db9b3851ac",
            "type": "pubkey"
          }
        }
      ],
      "hex": "01000000010000000000000000000000000000000000000000000000000000000000000000ffffffff0804ffff001d026a03ffffffff0100f2052a0100000043410466ab46026157976cff518476c369957c4c4d5df4a715e0a7070d2ab0d06860f41b2cc42ab974840ea5a1a863eff644fde096f5c4a140f795f4f24325db9b3851ac00000000"
    }
  ]
}