{
  "hash": "00000000f93a7a7218adc73645cbb09bc6f06a8c9c4162e5b773296384deb556",
  "confirmations": 47291,
  "height": 5807,
  "version": 1,
  "versionHex": "00000001",
  "merkleroot": "94bbf33fe9d08b3358d07e4e553ea1563d6b65dfb9a3a24fe4511ec2df84596b",
  "time": 1235764143,
  "mediantime": 1235760135,
  "nonce": 4145922313,
  "bits": "1d00ffff",
  "difficulty": 1,
  "chainwork": "000000000000000000000000000000000000000000000000000016b016b016b0",
  "nTx": 2,
  "previousblockhash": "000000003d8d831b6db7a57fa047c943d88b675823ddba026519f206dc6ec126",
  "nextblockhash": "00000000baecb2e8f0acf8c9632a4df9d2605beadeeaac78f57decd2310c8013",
  "strippedsize": 4366,
  "size": 4366,
  "weight": 17464,
  "tx": [
    {
      "txid": "5d32d3930653b9d421c26bb8dabee14af9f608c856d5318d107b2ec26109acc8",
      "hash": "5d32d3930653b9d421c26bb8dabee14af9f608c856d5318d107b2ec26109acc8",
      "version": 1,
      "size": 135,
      "vsize": 135,
      "weight": 540,
      "locktime": 0,
      "vin": [
        {
          "coinbase": "04ffff001d02d000",
          "sequence": 4294967295
        }
      ],
      "vout": [
        {
          "value": 50.0,
          "n": 0,
          "scriptPubKey": {
            "asm": "04018b70c09887005b1e2ddfe30e960666fb3ec2bd99061fcbfdf6db895cce8b0e90cc0e25e0482d7ae463ddc200a50677ff997ff00eccb8a349f858cf87b94f83 OP_CHECKSIG",
            "desc": "pk(04018b70c09887005b1e2ddfe30e960666fb3ec2bd99061fcbfdf6db895cce8b0e90cc0e25e0482d7ae463ddc200a50677ff997ff00eccb8a349f858cf87b94f83)#j446e30g",
            "hex": "4104018b70c09887005b1e2ddfe30e960666fb3ec2bd99061fcbfdf6db895cce8b0e90cc0e25e0482d7ae463ddc200a50677ff997ff00eccb8a349f858cf87b94f83ac",
            "type": "pubkey"
          }
        }
      ],
      "hex": "01000000010000000000000000000000000000000000000000000000000000000000000000ffffffff0804ffff001d02d000ffffffff0100f2052a01000000434104018b70c09887005b1e2ddfe30e960666fb3ec2bd99061fcbfdf6db895cce8b0e90cc0e25e0482d7ae463ddc200a50677ff997ff00eccb8a349f858cf87b94f83ac00000000"
    },
    {
      "txid": "cce68eb6b57daed6011d10bb717be3a9616153aca1dc785d33a0e7a7c96d9b11",
      "hash": "cce68eb6b57daed6011d10bb717be3a9616153aca1dc785d33a0e7a7c96d9b11",
      "version": 1,
      "size": 4150,
      "vsize": 4150,
      "weight": 16600,
      "locktime": 0,
      "vin": [
        {
          "txid": "30f886d2e1906b6c050d7b9312c5dd9a5fa9ef7c2210f53bf40cfacf75c2a7d7",
          "vout": 0,
          "scriptSig": {
            "asm": "3045022000ff5411e7087254927f54c25cb2234c3ee35ffd37f907479cb96ce5998bca3b022100d8d38f6366406542cff76c7a68b0083c2d717ae846780ff9bfae42bdc4cfa6c2[ALL]",
            "hex": "483045022000ff5411e7087254927f54c25cb2234c3ee35ffd37f907479cb96ce5998bca3b022100d8d38f6366406542cff76c7a68b0083c2d717ae846780ff9bfae42bdc4cfa6c201"
          },
          "sequence": 4294967295
        },
        {
          "txid": "589ff1cc05ae0bfb2bfab4fd3ea7aeb6ada2880dcac54ae890b489d5ad0248dd",
          "vout": 0,
          "scriptSig": {
            "asm": "304402200f85baf0b71d42bd0e7d3740edb5adf8ba3211faa5ffb33c9f68d9a88ce6c2e102203bee9cc9a741178199dcaaab5f84c0d4b0a917a58200e7ab5f92ccd4412d2a81[ALL]",
            "hex": "47304402200f85baf0b71d42bd0e7d3740edb5adf8ba3211faa5ffb33c9f68d9a88ce6c2e102203bee9cc9a741178199dcaaab5f84c0d4b0a917a58200e7ab5f92ccd4412d2a8101"
          },
          "sequence": 4294967295
        },
        {
          "txid": "4ec6bd10e5f769c6412264b9c13fede0eeeddfb8aa36604c9ed4dece1a7771bb",
          "vout": 0,
          "scriptSig": {
            "asm": "3045022100e0fe6df8e8f90e79a56387c70839e0039c5dbb1eee3a1b4051cce6629557d93e0220635d9540f8e474aae1725d688fb4d45ecc49a5aa06910a7375a45b22ecd3ed07[ALL]",
            "hex": "483045022100e0fe6df8e8f90e79a56387c70839e0039c5dbb1eee3a1b4051cce6629557d93e0220635d9540f8e474aae1725d688fb4d45ecc49a5aa06910a7375a45b22ecd3ed0701"
          },
          "sequence": 4294967295
        },
        {
          "txid": "10d3bbc2eb21796ddc021f020763a1bd532cd556063694c0b0c4bcfa077cae5a",
          "vout": 0,
          "scriptSig": {
            "asm": "304502207f1d3e6d95d1454b65b70c52ac81612bf0beefba05622c38a92771710ad34f4c022100ad011d09bda67ec51217d0ae6628510a8bf63cb523d05028c7fdf0606f3abac3[ALL]",
            "hex": "48304502207f1d3e6d95d1454b65b70c52ac81612bf0beefba05622c38a92771710ad34f4c022100ad011d09bda67ec51217d0ae6628510a8bf63cb523d05028c7fdf0606f3abac301"
          },
          "sequence": 4294967295
        },
        {
          "txid": "155d8954fcb5246f591465129956cd9140bc54157b07fb9deda1a2e696671791",
          "vout": 0,
          "scriptSig": {
            "asm": "3045022028a938aa8c40a6e78b224f3a38625f79ce2949260dd71b4117beefe32158eec4022100d8a406711c114cebd37cf3c9838796c03005e6a4a725ac0f5fa2bd04224fbe35[ALL]",
            "hex": "483045022028a938aa8c40a6e78b224f3a38625f79ce2949260dd71b4117beefe32158eec4022100d8a406711c114cebd37cf3c9838796c03005e6a4a725ac0f5fa2bd04224fbe3501"
          },
          "sequence": 4294967295
        },
        {
          "txid": "fee1c7ed5fc577f4f46eb2a92a9d170497ad4736d092d7720f3bece3bd2e0325",
          "vout": 0,
          "scriptSig": {
            "asm": "3046022100aa0614aa678b283a369979919eb5a6c4c993b78661302875b950a2b6b3e6b1d90221008c30a4a1570a4d5a2a6a75869cad370434f105eea0173be77826d1d4032e3175[ALL]",
            "hex": "493046022100aa0614aa678b283a369979919eb5a6c4c993b78661302875b950a2b6b3e6b1d90221008c30a4a1570a4d5a2a6a75869cad370434f105eea0173be77826d1d4032e317501"
          },
          "sequence": 4294967295
        },
        {
          "txid": "57056603d7421320ced5d3a62064220d5390306f1c993d52b9618e785a07a43e",
          "vout": 0,
          "scriptSig": {
            "asm": "3045022100f8ae9c1f3ab7881fe329bb0741d40d5717d1e0cb1c747af8fbca7179092129b9022067f87740421fa5e0f098188190af01e47fa589e14b0b9c780a72e95feb5eb38b[ALL]",
            "hex": "483045022100f8ae9c1f3ab7881fe329bb0741d40d5717d1e0cb1c747af8fbca7179092129b9022067f87740421fa5e0f098188190af01e47fa589e14b0b9c780a72e95feb5eb38b01"
          },
          "sequence": 4294967295
        },
        {
          "txid": "7bec25a62ae93648990a2454b376795efb29c552e00100e7d7303ac28c9ea165",
          "vout": 0,
          "scriptSig": {
            "asm": "3044022065bb932d5f27d21a5b34c927887b5e18d9c896b169a0779f7aa4a0fb80c3ed3702203cf8525b60432455b494d3a97806a49c1401ae26dc20a4760e19ef326eae228c[ALL]",
            "hex": "473044022065bb932d5f27d21a5b34c927887b5e18d9c896b169a0779f7aa4a0fb80c3ed3702203cf8525b60432455b494d3a97806a49c1401ae26dc20a4760e19ef326eae228c01"
          },
          "sequence": 4294967295
        },
        {
          "txid": "59f844e98f4695266d4a2663e547979a3ccf3a2fe9249a9010e52b5da06f7e9d",
          "vout": 0,
          "scriptSig": {
            "asm": "3045022100afbbab795526043e50462b1e7212aa679770c17ceb603712c37b516c96aa33870220740b8cebef125e2645f6610673b24d6042ac7fd1df4d37005db807c512abe09d[ALL]",
            "hex": "483045022100afbbab795526043e50462b1e7212aa679770c17ceb603712c37b516c96aa33870220740b8cebef125e2645f6610673b24d6042ac7fd1df4d37005db807c512abe09d01"
          },
          "sequence": 4294967295
        },
        {
          "txid": "255d916138c2a03174913878cdf9ada19a719903cca42bd258f06a64b96f8ec6",
          "vout": 0,
          "scriptSig": {
            "asm": "304502201e31eefecb871157aaa870e9c4393fa7b132c9e5949a2815ad00aaaf408a0e38022100f6335bea375e718bc42b6b71efc4c18fa89f03c780b9a23071bbd8ba2201e8e5[ALL]",
            "hex": "48304502201e31eefecb871157aaa870e9c4393fa7b132c9e5949a2815ad00aaaf408a0e38022100f6335bea375e718bc42b6b71efc4c18fa89f03c780b9a23071bbd8ba2201e8e501"
          },
          "sequence": 4294967295
        },
        {
          "txid": "ae80240049cc72fa08cfbf24e2431f4dd188fa83fed3c6802f6f7e3133201f24",
          "vout": 0,
          "scriptSig": {
            "asm": "3044022065c7bfb66e68bb0b8a2da19773926c421b6b6b5fc87af25347ded589b0e9c84d022015def5cf7f7b0c9e1e2de765c8028cdf6dea3688143dc2d924ca92851b4df4df[ALL]",
            "hex": "473044022065c7bfb66e68bb0b8a2da19773926c421b6b6b5fc87af25347ded589b0e9c84d022015def5cf7f7b0c9e1e2de765c8028cdf6dea3688143dc2d924ca92851b4df4df01"
          },
          "sequence": 4294967295
        },
        {
          "txid": "6abef7578d98219abf1a62e61513ce3698cae9bc413a844266fd0fd0befc3043",
          "vout": 0,
          "scriptSig": {
            "asm": "30460221008ec9c605b302085bb75105203bcacc7b3b81e6fc7d363f345e5232461ec5fd82022100bf7f30f47e5f01b7becbf8e19a2bffd0d261ea1169c9cae4cbbb2f56b760f8d8[ALL]",
            "hex": "4930460221008ec9c605b302085bb75105203bcacc7b3b81e6fc7d363f345e5232461ec5fd82022100bf7f30f47e5f01b7becbf8e19a2bffd0d261ea1169c9cae4cbbb2f56b760f8d801"
          },
          "sequence": 4294967295
        },
        {
          "txid": "fcbc6ae3252d84b9729c491181e6d867eddbed1253dd6ad2ccb9c757610dfaba",
          "vout": 0,
          "scriptSig": {
            "asm": "3045022024412f3764baa72e5b11a1a46c630e82eda9654ec0605b28f3e09a60244a7a3d022100b788e38b0ce7bf15043008bd73ba68c77c74a3607ecccf06261f548b8b76d8f0[ALL]",
            "hex": "483045022024412f3764baa72e5b11a1a46c630e82eda9654ec0605b28f3e09a60244a7a3d022100b788e38b0ce7bf15043008bd73ba68c77c74a3607ecccf06261f548b8b76d8f001"
          },
          "sequence": 4294967295
        },
        {
          "txid": "21ade14a699a4e5a2174eefa5c56406eee5b38b0fb8bb1d7850da9bf8a2f4046",
          "vout": 0,
          "scriptSig": {
            "asm": "304402206e131c6093cf79d677415620721626a71f6197177132751127e1fbb971fc024f02205a1889319a97b7d47e9dd96bf430afd53c6a9006d163602ffa29011bc10c1011[ALL]",
            "hex": "47304402206e131c6093cf79d677415620721626a71f6197177132751127e1fbb971fc024f02205a1889319a97b7d47e9dd96bf430afd53c6a9006d163602ffa29011bc10c101101"
          },
          "sequence": 4294967295
        },
        {
          "txid": "6a7b352ba0e491772d22e0597cfbf8e92d141ead0d0e7b801192ae83125a5d67",
          "vout": 0,
          "scriptSig": {
            "asm": "3046022100adca770013b080f1c4f788a847fcca1f5b0d3e9a94a3a3ce7b815c18676a67aa022100b4c45631f60485057d3334540e7c3f7dc1f99e7622dcec9ae8f887506f1533d0[ALL]",
            "hex": "493046022100adca770013b080f1c4f788a847fcca1f5b0d3e9a94a3a3ce7b815c18676a67aa022100b4c45631f60485057d3334540e7c3f7dc1f99e7622dcec9ae8f887506f1533d001"
          },
          "sequence": 4294967295
        },
        {
          "txid": "b156e79bd579b7cf991b7ab2d8926a6a11d8ab2c4372c32fe11552fff763dad9",
          "vout": 0,
          "scriptSig": {
            "asm": "3046022100ee51d3ab501c3f39d9e298c31c8f38c0424433285503a3fd31a2fe06cf4569de022100832be519ea7666f9d4d9bf2a6cc69fc102a3b0910c54e70f63a72250452c9ce1[ALL]",
            "hex": "493046022100ee51d3ab501c3f39d9e298c31c8f38c0424433285503a3fd31a2fe06cf4569de022100832be519ea7666f9d4d9bf2a6cc69fc102a3b0910c54e70f63a72250452c9ce101"
          },
          "sequence": 4294967295
        },
        {
          "txid": "820f3a0c0f6d40579cd7014ba9457d91eb36a5baae98bc36a388a473ade8f04a",
          "vout": 0,
          "scriptSig": {
            "asm": "3046022100b39e46bb0cbd18473241a0af4421fbfd1a91b58ef6ea70a23944ee408ee8047f022100be8451fdf91b6094f6236e534e48ea84851592cb5e375683ba17ac2b7e8ea0e6[ALL]",
            "hex": "493046022100b39e46bb0cbd18473241a0af4421fbfd1a91b58ef6ea70a23944ee408ee8047f022100be8451fdf91b6094f6236e534e48ea84851592cb5e375683ba17ac2b7e8ea0e601"
          },
          "sequence": 4294967295
        },
        {
          "txid": "61af6ddadaee10035ab63adac3ece6e6a328d4ba3a8648ebffedf79b8b4fe0e2",
          "vout": 0,
          "scriptSig": {
            "asm": "3044022066fa5aa79d275b2d83613003fc6d54a12675a7c5aa6c6e2cb7f2ee993d0a6a4b022013d983ad89be1218edc69ddbdb0a9fba60dbd56f6dd5f02da063ff129b14017d[ALL]",
            "hex": "473044022066fa5aa79d275b2d83613003fc6d54a12675a7c5aa6c6e2cb7f2ee993d0a6a4b022013d983ad89be1218edc69ddbdb0a9fba60dbd56f6dd5f02da063ff129b14017d01"
          },
          "sequence": 4294967295
        },
        {
          "txid": "8bc78e41fb203069cb07de190348655c8f2b169ab383afa4050fce2cfbb322c1",
          "vout": 0,
          "scriptSig": {
            "asm": "304502200ac20fa10b101121e82e4bb2a608d81ebef768e664baa5d2a19e41f8bcacca70022100906271237bbe2bcaae030cacc76bb902d4ef58a2c845cd2813a7ea74ff24a6a3[ALL]",
            "hex": "48304502200ac20fa10b101121e82e4bb2a608d81ebef768e664baa5d2a19e41f8bcacca70022100906271237bbe2bcaae030cacc76bb902d4ef58a2c845cd2813a7ea74ff24a6a301"
          },
          "sequence": 4294967295
        },
        {
          "txid": "b41d54db9aa4ce2f71d7a9c710593ca0cf7f08d7e1a80d5110c2164960c8ec2c",
          "vout": 0,
          "scriptSig": {
            "asm": "3046022100dc1db9e3c69d6cec0bda50ddffb136e7b68b3e45bae6b3e38eeab9cf32e95bd302210090e46d62f14700ecd643442e7a295aa000b3ca9001809f62b95a730e88b6aa8e[ALL]",
            "hex": "493046022100dc1db9e3c69d6cec0bda50ddffb136e7b68b3e45bae6b3e38eeab9cf32e95bd302210090e46d62f14700ecd643442e7a295aa000b3ca9001809f62b95a730e88b6aa8e01"
          },
          "sequence": 4294967295
        },
        {
          "txid": "d5caeba702c14ed6249476bf903ebd9e24e8727339a8e9e68697309c0cf8c2e4",
          "vout": 0,
          "scriptSig": {
            "asm": "3045022100e72f79acc66fe270251e48ddcd0838dd5342ef0a27f43656316145608083f0240220655b51a95fe47de6cb99dd709bf308706c1e91693f3315b207976408249978e5[ALL]",
            "hex": "483045022100e72f79acc66fe270251e48ddcd0838dd5342ef0a27f43656316145608083f0240220655b51a95fe47de6cb99dd709bf308706c1e91693f3315b207976408249978e501"
          },
          "sequence": 4294967295
        },
        {
          "txid": "dff3dc86e6a58c7f98b6fc14c70953eb6076492aeca02525c9294867f085c61f",
          "vout": 0,
          "scriptSig": {
            "asm": "3046022100fcc2fc5ed835507e29d2c00ad159e080f709b93fd3f79bcd23e04cdca2dc3c37022100ff2c8c7e6310b7c8ce2d321ad93308bff40dd5a3e180f7d5de26958159715736[ALL]",
            "hex": "493046022100fcc2fc5ed835507e29d2c00ad159e080f709b93fd3f79bcd23e04cdca2dc3c37022100ff2c8c7e6310b7c8ce2d321ad93308bff40dd5a3e180f7d5de2695815971573601"
          },
          "sequence": 4294967295
        },
        {
          "txid": "8e3f985e117308b3d2ad7da7d3896c5d6c6e1b6fe50223e60e27bb6895abe917",
          "vout": 0,
          "scriptSig": {
            "asm": "3045022100dab8507aa0b612ca3235676ad4174d6b6acd8ebc4c9c8c492a6cc9a89b710a360220282acc045de2e8cb3eddee782c81162de9ff9084ea891c65ea9f767ac1eaa2b1[ALL]",
            "hex": "483045022100dab8507aa0b612ca3235676ad4174d6b6acd8ebc4c9c8c492a6cc9a89b710a360220282acc045de2e8cb3eddee782c81162de9ff9084ea891c65ea9f767ac1eaa2b101"
          },
          "sequence": 4294967295
        },
        {
          "txid": "9d3c9b5a6759e82b16243702edbbc02abaee2b8d657810d89073f67440fe281c",
          "vout": 0,
          "scriptSig": {
            "asm": "304502210087c2ab1e03f013e9ea33366ae9766153318f4667df95144ec313e141bd118c8c022028bb3f355f0cfa74135299b417ce336122cd26db7b7c557e5c763a1fd538d0fb[ALL]",
            "hex": "48304502210087c2ab1e03f013e9ea33366ae9766153318f4667df95144ec313e141bd118c8c022028bb3f355f0cfa74135299b417ce336122cd26db7b7c557e5c763a1fd538d0fb01"
          },
          "sequence": 4294967295
        },
        {
          "txid": "886fef7fdbf7ebdc40bfdbfdec3a736aeab7f9c7128950573d13c41ee7cfe0e6",
          "vout": 0,
          "scriptSig": {
            "asm": "3045022049ed282ea0671ed7c4c07d0a193f7c49bb6f0cbe67762cdfcc1a6b908685c044022100e5e23291fd66461c1a85467c4dd9a14fd7602420171d79e81101cebce273cd6e[ALL]",
            "hex": "483045022049ed282ea0671ed7c4c07d0a193f7c49bb6f0cbe67762cdfcc1a6b908685c044022100e5e23291fd66461c1a85467c4dd9a14fd7602420171d79e81101cebce273cd6e01"
          },
          "sequence": 4294967295
        },
        {
          "txid": "737ea84d2342ad77c7cd8d908a07995aa7faeb789149f942fac2ba965038322e",
          "vout": 0,
          "scriptSig": {
            "asm": "3045022100af789ba06d9e108794515e3bfc0b1779f8bdb285700e67fed83b1be832e6a40a0220622318d8b9217ba4703c840b885ebf267e5306d2e37537722fec836dd1fe948e[ALL]",
            "hex": "483045022100af789ba06d9e108794515e3bfc0b1779f8bdb285700e67fed83b1be832e6a40a0220622318d8b9217ba4703c840b885ebf267e5306d2e37537722fec836dd1fe948e01"
          },
          "sequence": 4294967295
        },
        {
          "txid": "957940b2386f72676005c7d941568b839bf23a37cacc7404433d50e02c40042b",
          "vout": 0,
          "scriptSig": {
            "asm": "30450220281b169f754e16a537a46a7e670bbf6ed9ec1030eab2e3529047150d83c47aab022100b107fb75456a2be1f60ca5afef05b0707da305e93218530415fe60dcc22c76f5[ALL]",
            "hex": "4830450220281b169f754e16a537a46a7e670bbf6ed9ec1030eab2e3529047150d83c47aab022100b107fb75456a2be1f60ca5afef05b0707da305e93218530415fe60dcc22c76f501"
          },
          "sequence": 4294967295
        },
        {
          "txid": "e92afaa4475ab8cce6c0f4f2e753809f6f9e5cec0f0b198364c41f7f01274638",
          "vout": 0,
          "scriptSig": {
            "asm": "304502210083d816c4593de04dbe3feaf088754ef7f85faee5a4ece6800dcd1c1aecc137d9022039ae7a61df1f31f98f7498cc7ff629d865391b51250a56a17c2fe107278a410f[ALL]",
            "hex": "48304502210083d816c4593de04dbe3feaf088754ef7f85faee5a4ece6800dcd1c1aecc137d9022039ae7a61df1f31f98f7498cc7ff629d865391b51250a56a17c2fe107278a410f01"
          },
          "sequence": 4294967295
        },
        {
          "txid": "325bf35c98fb3461a03185eb57e8ad519a3a070a67ae18f39c6211fd20c1b3a4",
          "vout": 0,
          "scriptSig": {
            "asm": "3045022100ef1b33023fa24354324f9066bceebe2a8ecf1649994954634e306005b51fe055022071a706d5a5a052b06d9880cce1e992dae4e979ac12c794a0858630fdd2a8f6c0[ALL]",
            "hex": "483045022100ef1b33023fa24354324f9066bceebe2a8ecf1649994954634e306005b51fe055022071a706d5a5a052b06d9880cce1e992dae4e979ac12c794a0858630fdd2a8f6c001"
          },
          "sequence": 4294967295
        },
        {
          "txid": "699e30976150084e40498367b1038cfa094b3a7208d88ba28a5ffe02c35ca106",
          "vout": 0,
          "scriptSig": {
            "asm": "3045022079535f56f51fbeca1840bb3d2204bf75f600a9b2e41e67b681e793a13a05e544022100a75edc0abd83875436279e317ff024729d9f84c7cf5fa752a7a18ab1b9484a3f[ALL]",
            "hex": "483045022079535f56f51fbeca1840bb3d2204bf75f600a9b2e41e67b681e793a13a05e544022100a75edc0abd83875436279e317ff024729d9f84c7cf5fa752a7a18ab1b9484a3f01"
          },
          "sequence": 4294967295
        },
        {
          "txid": "45ae80b116dc11dc80f57c228f49ce84619e09050dc10ad746b3c726a75c80bd",
          "vout": 0,
          "scriptSig": {
            "asm": "3045022100a257274cbbe2d17f5b2064448ea1c120f73d8bac053f189ee83cb411cec5ac7f022079310e27ad2f9df320eb9f2a2d8aaad23df9bfa7d17bd10918e1fd191ffb7fba[ALL]",
            "hex": "483045022100a257274cbbe2d17f5b2064448ea1c120f73d8bac053f189ee83cb411cec5ac7f022079310e27ad2f9df320eb9f2a2d8aaad23df9bfa7d17bd10918e1fd191ffb7fba01"
          },
          "sequence": 4294967295
        },
        {
          "txid": "bc5b10cb56d3afab1a283957231f4d546a57b5556374693909ea96aaf007cde2",
          "vout": 0,
          "scriptSig": {
            "asm": "304502207b2e60e8872595f5c1eb0efcaddec7651c8dd343b88811d5802e01b99bcb538f022100d57390f562d1adcb9baa8c148b720ed101f70c4e209c89f2f4922d4fbef5c364[ALL]",
            "hex": "48304502207b2e60e8872595f5c1eb0efcaddec7651c8dd343b88811d5802e01b99bcb538f022100d57390f562d1adcb9baa8c148b720ed101f70c4e209c89f2f4922d4fbef5c36401"
          },
          "sequence": 4294967295
        },
        {
          "txid": "02cab317447344a78b0e9416ef07094fccb97b8d444ca61e643c9adb6acd40b2",
          "vout": 0,
          "scriptSig": {
            "asm": "30440220173270199b8d1cae9ce85492fb5bc54ca987bbb2f0c233daef9385b4b7375402022030bd44a336bf996150c6974cf84892e7c13ed05ef1aff53a4635cff05a56189d[ALL]",
            "hex": "4730440220173270199b8d1cae9ce85492fb5bc54ca987bbb2f0c233daef9385b4b7375402022030bd44a336bf996150c6974cf84892e7c13ed05ef1aff53a4635cff05a56189d01"
          },
          "sequence": 4294967295
        },
        {
          "txid": "bfdfd652207d8e26758126e74997464cfa650d26e6ade32bc03e875fae360e5a",
          "vout": 0,
          "scriptSig": {
            "asm": "304502210083183a3baa79687b2e8f801e13381743626e7610037d205109ed1b3c827fdbe802202353f875a9a308a86b8869a34e15c6e870c9b893554655da9e7bee4d2ad3179c[ALL]",
            "hex": "48304502210083183a3baa79687b2e8f801e13381743626e7610037d205109ed1b3c827fdbe802202353f875a9a308a86b8869a34e15c6e870c9b893554655da9e7bee4d2ad3179c01"
          },
          "sequence": 4294967295
        },
        {
          "txid": "df3d73c1a78f17f05935b46ed5373ded3085ca77eb19b0d3739e3572865ecf4e",
          "vout": 0,
          "scriptSig": {
            "asm": "3046022100c998e6c275a5ab1d5eda6513997fb459090167f25a7325dd34edd9ea2e3807ce022100f311413330c68fc65984c27b097cc5bac4b66cd847ea7bc3de40f5e101e56459[ALL]",
            "hex": "493046022100c998e6c275a5ab1d5eda6513997fb459090167f25a7325dd34edd9ea2e3807ce022100f311413330c68fc65984c27b097cc5bac4b66cd847ea7bc3de40f5e101e5645901"
          },
          "sequence": 4294967295
        },
        {
          "txid": "aac6c32ed6770147170476ddcce065b111b369353d52b2b1db35350e400366f5",
          "vout": 0,
          "scriptSig": {
            "asm": "304502210087b21f3e99d7d9699894392faaa93b845ffd61700befd21fbe4176ce566a927202205cd3bf68f42f05f68cec9f85f5c718009107fcded6aae6f1e27723d49e81aa8a[ALL]",
            "hex": "48304502210087b21f3e99d7d9699894392faaa93b845ffd61700befd21fbe4176ce566a927202205cd3bf68f42f05f68cec9f85f5c718009107fcded6aae6f1e27723d49e81aa8a01"
          },
          "sequence": 4294967295
        }
      ],
      "vout": [
        {
          "value": 1800.0,
          "n": 0,
          "scriptPubKey": {
            "asm": "OP_DUP OP_HASH160 12ab8dc588ca9d5787dde7eb29569da63c3a238c OP_EQUALVERIFY OP_CHECKSIG",
            "desc": "addr(12higDjoCCNXSA95xZMWUdPvXNmkAduhWv)#zn56zju2",
            "hex": "76a91412ab8dc588ca9d5787dde7eb29569da63c3a238c88ac",
            "address": "12higDjoCCNXSA95xZMWUdPvXNmkAduhWv",
            "type": "pubkeyhash"
          }
        }
      ],
      "fee": 0.0,
      "hex": "0100000024d7a7c275cffa0cf43bf510227cefa95f9addc512937b0d056c6b90e1d286f8300000000049483045022000ff5411e7087254927f54c25cb2234c3ee35ffd37f907479cb96ce5998bca3b022100d8d38f6366406542cff76c7a68b0083c2d717ae846780ff9bfae42bdc4cfa6c201ffffffffdd4802add589b490e84ac5ca0d88a2adb6aea73efdb4fa2bfb0bae05ccf19f58000000004847304402200f85baf0b71d42bd0e7d3740edb5adf8ba3211faa5ffb33c9f68d9a88ce6c2e102203bee9cc9a741178199dcaaab5f84c0d4b0a917a58200e7ab5f92ccd4412d2a8101ffffffffbb71771aceded49e4c6036aab8dfedeee0ed3fc1b9642241c669f7e510bdc64e0000000049483045022100e0fe6df8e8f90e79a56387c70839e0039c5dbb1eee3a1b4051cce6629557d93e0220635d9540f8e474aae1725d688fb4d45ecc49a5aa06910a7375a45b22ecd3ed0701ffffffff5aae7c07fabcc4b0c094360656d52c53bda16307021f02dc6d7921ebc2bbd310000000004948304502207f1d3e6d95d1454b65b70c52ac81612bf0beefba05622c38a92771710ad34f4c022100ad011d09bda67ec51217d0ae6628510a8bf63cb523d05028c7fdf0606f3abac301ffffffff91176796e6a2a1ed9dfb077b1554bc4091cd5699126514596f24b5fc54895d150000000049483045022028a938aa8c40a6e78b224f3a38625f79ce2949260dd71b4117beefe32158eec4022100d8a406711c114cebd37cf3c9838796c03005e6a4a725ac0f5fa2bd04224fbe3501ffffffff25032ebde3ec3b0f72d792d03647ad9704179d2aa9b26ef4f477c55fedc7e1fe000000004a493046022100aa0614aa678b283a369979919eb5a6c4c993b78661302875b950a2b6b3e6b1d90221008c30a4a1570a4d5a2a6a75869cad370434f105eea0173be77826d1d4032e317501ffffffff3ea4075a788e61b9523d991c6f3090530d226420a6d3d5ce201342d7036605570000000049483045022100f8ae9c1f3ab7881fe329bb0741d40d5717d1e0cb1c747af8fbca7179092129b9022067f87740421fa5e0f098188190af01e47fa589e14b0b9c780a72e95feb5eb38b01ffffffff65a19e8cc23a30d7e70001e052c529fb5e7976b354240a994836e92aa625ec7b0000000048473044022065bb932d5f27d21a5b34c927887b5e18d9c896b169a0779f7aa4a0fb80c3ed3702203cf8525b60432455b494d3a97806a49c1401ae26dc20a4760e19ef326eae228c01ffffffff9d7e6fa05d2be510909a24e92f3acf3c9a9747e563264a6d2695468fe944f8590000000049483045022100afbbab795526043e50462b1e7212aa679770c17ceb603712c37b516c96aa33870220740b8cebef125e2645f6610673b24d6042ac7fd1df4d37005db807c512abe09d01ffffffffc68e6fb9646af058d22ba4cc0399719aa1adf9cd7838917431a0c23861915d25000000004948304502201e31eefecb871157aaa870e9c4393fa7b132c9e5949a2815ad00aaaf408a0e38022100f6335bea375e718bc42b6b71efc4c18fa89f03c780b9a23071bbd8ba2201e8e501ffffffff241f2033317e6f2f80c6d3fe83fa88d14d1f43e224bfcf08fa72cc49002480ae0000000048473044022065c7bfb66e68bb0b8a2da19773926c421b6b6b5fc87af25347ded589b0e9c84d022015def5cf7f7b0c9e1e2de765c8028cdf6dea3688143dc2d924ca92851b4df4df01ffffffff4330fcbed00ffd6642843a41bce9ca9836ce1315e6621abf9a21988d57f7be6a000000004a4930460221008ec9c605b302085bb75105203bcacc7b3b81e6fc7d363f345e5232461ec5fd82022100bf7f30f47e5f01b7becbf8e19a2bffd0d261ea1169c9cae4cbbb2f56b760f8d801ffffffffbafa0d6157c7b9ccd26add5312eddbed67d8e68111499c72b9842d25e36abcfc0000000049483045022024412f3764baa72e5b11a1a46c630e82eda9654ec0605b28f3e09a60244a7a3d022100b788e38b0ce7bf15043008bd73ba68c77c74a3607ecccf06261f548b8b76d8f001ffffffff46402f8abfa90d85d7b18bfbb0385bee6e40565cfaee74215a4e9a694ae1ad21000000004847304402206e131c6093cf79d677415620721626a71f6197177132751127e1fbb971fc024f02205a1889319a97b7d47e9dd96bf430afd53c6a9006d163602ffa29011bc10c101101ffffffff675d5a1283ae9211807b0e0dad1e142de9f8fb7c59e0222d7791e4a02b357b6a000000004a493046022100adca770013b080f1c4f788a847fcca1f5b0d3e9a94a3a3ce7b815c18676a67aa022100b4c45631f60485057d3334540e7c3f7dc1f99e7622dcec9ae8f887506f1533d001ffffffffd9da63f7ff5215e12fc372432cabd8116a6a92d8b27a1b99cfb779d59be756b1000000004a493046022100ee51d3ab501c3f39d9e298c31c8f38c0424433285503a3fd31a2fe06cf4569de022100832be519ea7666f9d4d9bf2a6cc69fc102a3b0910c54e70f63a72250452c9ce101ffffffff4af0e8ad73a488a336bc98aebaa536eb917d45a94b01d79c57406d0f0c3a0f82000000004a493046022100b39e46bb0cbd18473241a0af4421fbfd1a91b58ef6ea70a23944ee408ee8047f022100be8451fdf91b6094f6236e534e48ea84851592cb5e375683ba17ac2b7e8ea0e601ffffffffe2e04f8b9bf7edffeb48863abad428a3e6e6ecc3da3ab65a0310eedada6daf610000000048473044022066fa5aa79d275b2d83613003fc6d54a12675a7c5aa6c6e2cb7f2ee993d0a6a4b022013d983ad89be1218edc69ddbdb0a9fba60dbd56f6dd5f02da063ff129b14017d01ffffffffc122b3fb2cce0f05a4af83b39a162b8f5c65480319de07cb693020fb418ec78b000000004948304502200ac20fa10b101121e82e4bb2a608d81ebef768e664baa5d2a19e41f8bcacca70022100906271237bbe2bcaae030cacc76bb902d4ef58a2c845cd2813a7ea74ff24a6a301ffffffff2cecc8604916c210510da8e1d7087fcfa03c5910c7a9d7712fcea49adb541db4000000004a493046022100dc1db9e3c69d6cec0bda50ddffb136e7b68b3e45bae6b3e38eeab9cf32e95bd302210090e46d62f14700ecd643442e7a295aa000b3ca9001809f62b95a730e88b6aa8e01ffffffffe4c2f80c9c309786e6e9a8397372e8249ebd3e90bf769424d64ec102a7ebcad50000000049483045022100e72f79acc66fe270251e48ddcd0838dd5342ef0a27f43656316145608083f0240220655b51a95fe47de6cb99dd709bf308706c1e91693f3315b207976408249978e501ffffffff1fc685f0674829c92525a0ec2a497660eb5309c714fcb6987f8ca5e686dcf3df000000004a493046022100fcc2fc5ed835507e29d2c00ad159e080f709b93fd3f79bcd23e04cdca2dc3c37022100ff2c8c7e6310b7c8ce2d321ad93308bff40dd5a3e180f7d5de2695815971573601ffffffff17e9ab9568bb270ee62302e56f1b6e6c5d6c89d3a77dadd2b30873115e983f8e0000000049483045022100dab8507aa0b612ca3235676ad4174d6b6acd8ebc4c9c8c492a6cc9a89b710a360220282acc045de2e8cb3eddee782c81162de9ff9084ea891c65ea9f767ac1eaa2b101ffffffff1c28fe4074f67390d81078658d2beeba2ac0bbed023724162be859675a9b3c9d000000004948304502210087c2ab1e03f013e9ea33366ae9766153318f4667df95144ec313e141bd118c8c022028bb3f355f0cfa74135299b417ce336122cd26db7b7c557e5c763a1fd538d0fb01ffffffffe6e0cfe71ec4133d57508912c7f9b7ea6a733aecfddbbf40dcebf7db7fef6f880000000049483045022049ed282ea0671ed7c4c07d0a193f7c49bb6f0cbe67762cdfcc1a6b908685c044022100e5e23291fd66461c1a85467c4dd9a14fd7602420171d79e81101cebce273cd6e01ffffffff2e32385096bac2fa42f9499178ebfaa75a99078a908dcdc777ad42234da87e730000000049483045022100af789ba06d9e108794515e3bfc0b1779f8bdb285700e67fed83b1be832e6a40a0220622318d8b9217ba4703c840b885ebf267e5306d2e37537722fec836dd1fe948e01ffffffff2b04402ce0503d430474ccca373af29b838b5641d9c7056067726f38b240799500000000494830450220281b169f754e16a537a46a7e670bbf6ed9ec1030eab2e3529047150d83c47aab022100b107fb75456a2be1f60ca5afef05b0707da305e93218530415fe60dcc22c76f501ffffffff384627017f1fc46483190b0fec5c9e6f9f8053e7f2f4c0e6ccb85a47a4fa2ae9000000004948304502210083d816c4593de04dbe3feaf088754ef7f85faee5a4ece6800dcd1c1aecc137d9022039ae7a61df1f31f98f7498cc7ff629d865391b51250a56a17c2fe107278a410f01ffffffffa4b3c120fd11629cf318ae670a073a9a51ade857eb8531a06134fb985cf35b320000000049483045022100ef1b33023fa24354324f9066bceebe2a8ecf1649994954634e306005b51fe055022071a706d5a5a052b06d9880cce1e992dae4e979ac12c794a0858630fdd2a8f6c001ffffffff06a15cc302fe5f8aa28bd808723a4b09fa8c03b1678349404e08506197309e690000000049483045022079535f56f51fbeca1840bb3d2204bf75f600a9b2e41e67b681e793a13a05e544022100a75edc0abd83875436279e317ff024729d9f84c7cf5fa752a7a18ab1b9484a3f01ffffffffbd805ca726c7b346d70ac10d05099e6184ce498f227cf580dc11dc16b180ae450000000049483045022100a257274cbbe2d17f5b2064448ea1c120f73d8bac053f189ee83cb411cec5ac7f022079310e27ad2f9df320eb9f2a2d8aaad23df9bfa7d17bd10918e1fd191ffb7fba01ffffffffe2cd07f0aa96ea093969746355b5576a544d1f235739281aabafd356cb105bbc000000004948304502207b2e60e8872595f5c1eb0efcaddec7651c8dd343b88811d5802e01b99bcb538f022100d57390f562d1adcb9baa8c148b720ed101f70c4e209c89f2f4922d4fbef5c36401ffffffffb240cd6adb9a3c641ea64c448d7bb9cc4f0907ef16940e8ba744734417b3ca0200000000484730440220173270199b8d1cae9ce85492fb5bc54ca987bbb2f0c233daef9385b4b7375402022030bd44a336bf996150c6974cf84892e7c13ed05ef1aff53a4635cff05a56189d01ffffffff5a0e36ae5f873ec02be3ade6260d65fa4c469749e7268175268e7d2052d6dfbf000000004948304502210083183a3baa79687b2e8f801e13381743626e7610037d205109ed1b3c827fdbe802202353f875a9a308a86b8869a34e15c6e870c9b893554655da9e7bee4d2ad3179c01ffffffff4ecf5e8672359e73d3b019eb77ca8530ed3d37d56eb43559f0178fa7c1733ddf000000004a493046022100c998e6c275a5ab1d5eda6513997fb459090167f25a7325dd34edd9ea2e3807ce022100f311413330c68fc65984c27b097cc5bac4b66cd847ea7bc3de40f5e101e5645901fffffffff56603400e3535dbb1b2523d3569b311b165e0ccdd760417470177d62ec3c6aa000000004948304502210087b21f3e99d7d9699894392faaa93b845ffd61700befd21fbe4176ce566a927202205cd3bf68f42f05f68cec9f85f5c718009107fcded6aae6f1e27723d49e81aa8a01ffffffff010008d6e8290000001976a91412ab8dc588ca9d5787dde7eb29569da63c3a238c88ac00000000"
    }
  ]
}