{
  "hash": "000000007bf2805ee06ee9d6eb1197a8818e7c36e47d9fb081ce8ae1206c3c71",
  "confirmations": 52016,
  "height": 116,
  "version": 1,
  "versionHex": "00000001",
  "merkleroot": "5c8605699ca5c4ab9a4ff4054d04c253331f20e8f338a7482cde878f5b63bea9",
  "time": 1231672548,
  "mediantime": 1231669673,
  "nonce": 283744295,
  "bits": "1d00ffff",
  "difficulty": 1,
  "chainwork": "0000000000000000000000000000000000000000000000000000007500750075",
  "nTx": 1,
  "previousblockhash": "000000002c49a539fd73c253dbcd8afaa392bb36e02863bcca3e84456e05aec8",
  "nextblockhash": "0000000099bf32f17e8d5103e990c108c6f2caa6bd17283a77ca026a8c3bc4c8",
  "strippedsize": 216,
  "size": 216,
  "weight": 864,
  "tx": [
    {
      "txid": "5c8605699ca5c4ab9a4ff4054d04c253331f20e8f338a7482cde878f5b63bea9",
      "hash": "5c8605699ca5c4ab9a4ff4054d04c253331f20e8f338a7482cde878f5b63bea9",
      "version": 1,
      "size": 135,
      "vsize": 135,
      "weight": 540,
      "locktime": 0,
      "vin": [
        {
          "coinbase": "04ffff001d02b100",
          "sequence": 4294967295
        }
      ],
      "vout": [
        {
          "value": 50.0,
          "n": 0,
          "scriptPubKey": {
            "asm": "048bdd0ed16efa3601791aa2eed35fb3706a5ed49696f2dccf768ac98673f28560c595dc064c752002c2ca4928348edc20d62499c5f8f5b1ec0225ceb4259368a9 OP_CHECKSIG",
            "desc": "pk(048bdd0ed16efa3601791aa2eed35fb3706a5ed49696f2dccf768ac98673f28560c595dc064c752002c2ca4928348edc20d62499c5f8f5b1ec0225ceb4259368a9)#w5hxy44x",
            "hex": "41048bdd0ed16efa3601791aa2eed35fb3706a5ed49696f2dccf768ac98673f28560c595dc064c752002c2ca4928348edc20d62499c5f8f5b1ec0225ceb4259368a9ac",
            "type": "pubkey"
          }
        }
      ],
      "hex": "01000000010000000000000000000000000000000000000000000000000000000000000000ffffffff0804ffff001d02b100ffffffff0100f2052a010000004341048bdd0ed16efa3601791aa2eed35fb3706a5ed49696f2dccf768ac98673f28560c595dc064c752002c2ca4928348edc20d62499c5f8f5b1ec0225ceb4259368a9ac00000000"
    }
  ]
}