{
  "hash": "000000003c6f8c765add5fe042bd589becf4fd3d8c48a51a5c423f59604f183e",
  "confirmations": 49893,
  "height": 3205,
  "version": 1,
  "versionHex": "00000001",
  "merkleroot": "99df8f4528524fef1f96df0f6a1fed6fe350c3fd1234ad6fad82d3b7248772ee",
  "time": 1233904572,
  "mediantime": 1233901171,
  "nonce": 208408808,
  "bits": "1d00ffff",
  "difficulty": 1,
  "chainwork": "00000000000000000000000000000000000000000000000000000c860c860c86",
  "nTx": 1,
  "previousblockhash": "0000000006c2e5cdba453e0e936acbab80c8e2651ebf98afc30cfdc773aeba06",
  "nextblockhash": "00000000ebd5da644c2a573f1eb8e069da3eeba8affe911977ac0147229b01ae",
  "strippedsize": 215,
  "size": 215,
  "weight": 860,
  "tx": [
    {
      "txid": "99df8f4528524fef1f96df0f6a1fed6fe350c3fd1234ad6fad82d3b7248772ee",
      "hash": "99df8f4528524fef1f96df0f6a1fed6fe350c3fd1234ad6fad82d3b7248772ee",
      "version": 1,
      "size": 134,
      "vsize": 134,
      "weight": 536,
      "locktime": 0,
      "vin": [
        {
          "coinbase": "04ffff001d0116",
          "sequence": 4294967295
        }
      ],
      "vout": [
        {
          "value": 50.0,
          "n": 0,
          "scriptPubKey": {
            "asm": "04f88bdbf10d15f61a78f344b33533ffdbb52975499e5999342559bc33907e86f26fa721a4e8f2ff2c23a17c217897d577f4204d293f852a8e0f775b7d04d2475d OP_CHECKSIG",
            "desc": "pk(04f88bdbf10d15f61a78f344b33533ffdbb52975499e5999342559bc33907e86f26fa721a4e8f2ff2c23a17c217897d577f4204d293f852a8e0f775b7d04d2475d)#y46s28ez",
            "hex": "4104f88bdbf10d15f61a78f344b33533ffdbb52975499e5999342559bc33907e86f26fa721a4e8f2ff2c23a17c217897d577f4204d293f852a8e0f775b7d04d2475dac",
            "type": "pubkey"
          }
        }
      ],
      "hex": "01000000010000000000000000000000000000000000000000000000000000000000000000ffffffff0704ffff001d0116ffffffff0100f2052a01000000434104f88bdbf10d15f61a78f344b33533ffdbb52975499e5999342559bc33907e86f26fa721a4e8f2ff2c23a17c217897d577f4204d293f852a8e0f775b7d04d2475dac00000000"
    }
  ]
}