{
  "hash": "000000009df396001cae68e4bbd0d1073e9056e82794a0c1c1c850e6c9d8372d",
  "confirmations": 52211,
  "height": 407,
  "version": 1,
  "versionHex": "00000001",
  "merkleroot": "0b086abe2602f870a2d93ed496b0558d5fc349c4504eb0d474cc4ca99b4b1308",
  "time": 1231907580,
  "mediantime": 1231903283,
  "nonce": 195999916,
  "bits": "1d00ffff",
  "difficulty": 1,
  "chainwork": "0000000000000000000000000000000000000000000000000000019801980198",
  "nTx": 1,
  "previousblockhash": "00000000e3385ef51a21c2ef7d844c9e1390168247858c6865b38698017b614f",
  "nextblockhash": "00000000f079868ed92cd4e7b7f50a5f8a2bb459ab957dd5402af7be7bd8ea6b",
  "strippedsize": 215,
  "size": 215,
  "weight": 860,
  "tx": [
    {
      "txid": "0b086abe2602f870a2d93ed496b0558d5fc349c4504eb0d474cc4ca99b4b1308",
      "hash": "0b086abe2602f870a2d93ed496b0558d5fc349c4504eb0d474cc4ca99b4b1308",
      "version": 1,
      "size": 134,
      "vsize": 134,
      "weight": 536,
      "locktime": 0,
      "vin": [
        {
          "coinbase": "04ffff001d0116",
          "sequence": 4294967295
        }
      ],
      "vout": [
        {
          "value": 50.0,
          "n": 0,
          "scriptPubKey": {
            "asm": "04d29fcb55e10798ce0ef6f027e1bacc60f6a5681126a1226fa1a17ee2c47987760543b508595edc61d57bb9c0bbf0c8659640ea14ae7acbb0b2e1e81b4cc8f335 OP_CHECKSIG",
            "desc": "pk(04d29fcb55e10798ce0ef6f027e1bacc60f6a5681126a1226fa1a17ee2c47987760543b508595edc61d57bb9c0bbf0c8659640ea14ae7acbb0b2e1e81b4cc8f335)#8776vzfa",
            "hex": "4104d29fcb55e10798ce0ef6f027e1bacc60f6a5681126a1226fa1a17ee2c47987760543b508595edc61d57bb9c0bbf0c8659640ea14ae7acbb0b2e1e81b4cc8f335ac",
            "type": "pubkey"
          }
        }
      ],
      "hex": "01000000010000000000000000000000000000000000000000000000000000000000000000ffffffff0704ffff001d0116ffffffff0100f2052a01000000434104d29fcb55e10798ce0ef6f027e1bacc60f6a5681126a1226fa1a17ee2c47987760543b508595edc61d57bb9c0bbf0c8659640ea14ae7acbb0b2e1e81b4cc8f335ac00000000"
    }
  ]
}