{
  "hash": "000000001a7a484e9f1e96f2c103162cc0146ca7ce648c2498726a2dbb51967e",
  "confirmations": 52073,
  "height": 147,
  "version": 1,
  "versionHex": "00000001",
  "merkleroot": "ae44c01fafeb75098a9bb331c5e541ac5a2ad27e08282a10ab189c80c568616f",
  "time": 1231695120,
  "mediantime": 1231691038,
  "nonce": 524366868,
  "bits": "1d00ffff",
  "difficulty": 1,
  "chainwork": "0000000000000000000000000000000000000000000000000000009400940094",
  "nTx": 1,
  "previousblockhash": "000000006e7fe1ebbae18fd9ea0c8b696f1fec8e5de738ef47af1299374a081c",
  "nextblockhash": "00000000e7b834752cbd32d559550f71f62b2d23c3facd7b7a4024e5dd3ba835",
  "strippedsize": 216,
  "size": 216,
  "weight": 864,
  "tx": [
    {
      "txid": "ae44c01fafeb75098a9bb331c5e541ac5a2ad27e08282a10ab189c80c568616f",
      "hash": "ae44c01fafeb75098a9bb331c5e541ac5a2ad27e08282a10ab189c80c568616f",
      "version": 1,
      "size": 135,
      "vsize": 135,
      "weight": 540,
      "locktime": 0,
      "vin": [
        {
          "coinbase": "04ffff001d028a00",
          "sequence": 4294967295
        }
      ],
      "vout": [
        {
          "value": 50.0,
          "n": 0,
          "scriptPubKey": {
            "asm": "0457e68d6407f0e0a5c3d25a76954f8319b5b7b1bac58fefde3404f3deeb3f0a9d5201e6e891ce592a19bf90e6cad362df09929f6e2bace8820d279a569c3eb2b1 OP_CHECKSIG",
            "desc": "pk(0457e68d6407f0e0a5c3d25a76954f8319b5b7b1bac58fefde3404f3deeb3f0a9d5201e6e891ce592a19bf90e6cad362df09929f6e2bace8820d279a569c3eb2b1)#9y6hjl4a",
            "hex": "410457e68d6407f0e0a5c3d25a76954f8319b5b7b1bac58fefde3404f3deeb3f0a9d5201e6e891ce592a19bf90e6cad362df09929f6e2bace8820d279a569c3eb2b1ac",
            "type": "pubkey"
          }
        }
      ],
      "hex": "01000000010000000000000000000000000000000000000000000000000000000000000000ffffffff0804ffff001d028a00ffffffff0100f2052a0100000043410457e68d6407f0e0a5c3d25a76954f8319b5b7b1bac58fefde3404f3deeb3f0a9d5201e6e891ce592a19bf90e6cad362df09929f6e2bace8820d279a569c3eb2b1ac00000000"
    }
  ]
}