{
  "hash": "000000006879ca957a25003148ef00058597c1f09d0099ac51a8ed3b268e72ef",
  "confirmations": 52214,
  "height": 884,
  "version": 1,
  "versionHex": "00000001",
  "merkleroot": "e4de50e888a0978a1acf770a67ca191ec651ce9b0852918f70bc166ffaa02c0f",
  "time": 1232261799,
  "mediantime": 1232257224,
  "nonce": 3211184923,
  "bits": "1d00ffff",
  "difficulty": 1,
  "chainwork": "0000000000000000000000000000000000000000000000000000037503750375",
  "nTx": 1,
  "previousblockhash": "00000000a45be7b90f33fa3ef9c2e5b842da5e021b4ce7434668dde286496946",
  "nextblockhash": "00000000fa7bd3c9977df6a024fcf8df0367f5c953e1bc63b5d34d6db9e2f874",
  "strippedsize": 216,
  "size": 216,
  "weight": 864,
  "tx": [
    {
      "txid": "e4de50e888a0978a1acf770a67ca191ec651ce9b0852918f70bc166ffaa02c0f",
      "hash": "e4de50e888a0978a1acf770a67ca191ec651ce9b0852918f70bc166ffaa02c0f",
      "version": 1,
      "size": 135,
      "vsize": 135,
      "weight": 540,
      "locktime": 0,
      "vin": [
        {
          "coinbase": "04ffff001d025a03",
          "sequence": 4294967295
        }
      ],
      "vout": [
        {
          "value": 50.0,
          "n": 0,
          "scriptPubKey": {
            "asm": "04da53386d93e3cc4e3ba23c1fcdc49a0cd5c8324c95506044036f287f512b6e90f760f170359abcb314fff724a6b9e8ab180527d8ec537909afa420d46ff7db6b OP_CHECKSIG",
            "desc": "pk(04da53386d93e3cc4e3ba23c1fcdc49a0cd5c8324c95506044036f287f512b6e90f760f170359abcb314fff724a6b9e8ab180527d8ec537909afa420d46ff7db6b)#0pegskxs",
            "hex": "4104da53386d93e3cc4e3ba23c1fcdc49a0cd5c8324c95506044036f287f512b6e90f760f170359abcb314fff724a6b9e8ab180527d8ec537909afa420d46ff7db6bac",
            "type": "pubkey"
          }
        }
      ],
      "hex": "01000000010000000000000000000000000000000000000000000000000000000000000000ffffffff0804ffff001d025a03ffffffff0100f2052a01000000434104da53386d93e3cc4e3ba23c1fcdc49a0cd5c8324c95506044036f287f512b6e90f760f170359abcb314fff724a6b9e8ab180527d8ec537909afa420d46ff7db6bac00000000"
    }
  ]
}