{
  "hash": "00000000b2adbec7d75aced42b174f6cb2bc92483e5eeb895ff526c79bc9af49",
  "confirmations": 47624,
  "height": 5474,
  "version": 1,
  "versionHex": "00000001",
  "merkleroot": "401fe4085965b8c952eb2bea0d5b269f589872a9991635332e789adcf4e72797",
  "time": 1235501126,
  "mediantime": 1235497344,
  "nonce": 2823933995,
  "bits": "1d00ffff",
  "difficulty": 1,
  "chainwork": "0000000000000000000000000000000000000000000000000000156315631563",
  "nTx": 1,
  "previousblockhash": "0000000070da89af371ca6cc199981e32dbb3ecff3e887a15f6c228428352101",
  "nextblockhash": "00000000a41f3c1b8bb414b1ec6718c9e9bc07db18310f38055be0ccfd6c45f8",
  "strippedsize": 216,
  "size": 216,
  "weight": 864,
  "tx": [
    {
      "txid": "401fe4085965b8c952eb2bea0d5b269f589872a9991635332e789adcf4e72797",
      "hash": "401fe4085965b8c952eb2bea0d5b269f589872a9991635332e789adcf4e72797",
      "version": 1,
      "size": 135,
      "vsize": 135,
      "weight": 540,
      "locktime": 0,
      "vin": [
        {
          "coinbase": "04ffff001d021b05",
          "sequence": 4294967295
        }
      ],
      "vout": [
        {
          "value": 50.0,
          "n": 0,
          "scriptPubKey": {
            "asm": "04d27ab5e47f01706f613261c4b2e19768954475a023d402b83e83aef645fd3af0ee09b988b96b4dd0ac5413895b435a04256880a41d052223795714b87f6d186c OP_CHECKSIG",
            "desc": "pk(04d27ab5e47f01706f613261c4b2e19768954475a023d402b83e83aef645fd3af0ee09b988b96b4dd0ac5413895b435a04256880a41d052223795714b87f6d186c)#58489vhe",
            "hex": "4104d27ab5e47f01706f613261c4b2e19768954475a023d402b83e83aef645fd3af0ee09b988b96b4dd0ac5413895b435a04256880a41d052223795714b87f6d186cac",
            "type": "pubkey"
          }
        }
      ],
      "hex": "01000000010000000000000000000000000000000000000000000000000000000000000000ffffffff0804ffff001d021b05ffffffff0100f2052a01000000434104d27ab5e47f01706f613261c4b2e19768954475a023d402b83e83aef645fd3af0ee09b988b96b4dd0ac5413895b435a04256880a41d052223795714b87f6d186cac00000000"
    }
  ]
}