{
  "hash": "00000000df3afd79d626891075799dc5f771ffa6993d743a9fbdcd43528f366f",
  "confirmations": 50114,
  "height": 2984,
  "version": 1,
  "versionHex": "00000001",
  "merkleroot": "e9fea05977d80214560917e94489e72bd021716fad92904f7a5f12d016a9362d",
  "time": 1233750665,
  "mediantime": 1233747637,
  "nonce": 142810636,
  "bits": "1d00ffff",
  "difficulty": 1,
  "chainwork": "00000000000000000000000000000000000000000000000000000ba90ba90ba9",
  "nTx": 1,
  "previousblockhash": "00000000c5c3b1bc0d890199113420a367920b20ab98ed8f6a3d31c932241789",
  "nextblockhash": "0000000029eb62e606a4659c7149ba5936ef2e8a1e32ea63099ace69a9228e2b",
  "strippedsize": 215,
  "size": 215,
  "weight": 860,
  "tx": [
    {
      "txid": "e9fea05977d80214560917e94489e72bd021716fad92904f7a5f12d016a9362d",
      "hash": "e9fea05977d80214560917e94489e72bd021716fad92904f7a5f12d016a9362d",
      "version": 1,
      "size": 134,
      "vsize": 134,
      "weight": 536,
      "locktime": 0,
      "vin": [
        {
          "coinbase": "04ffff001d010d",
          "sequence": 4294967295
        }
      ],
      "vout": [
        {
          "value": 50.0,
          "n": 0,
          "scriptPubKey": {
            "asm": "04bf8dd6b80bb6e8c040a5dc895fb80fcf9c924522f96c4f05b5b515c07266d99963275448cc2c8c84edbcf3add8f0f3e1841299408560d47c05733e73a8792050 OP_CHECKSIG",
            "desc": "pk(04bf8dd6b80bb6e8c040a5dc895fb80fcf9c924522f96c4f05b5b515c07266d99963275448cc2c8c84edbcf3add8f0f3e1841299408560d47c05733e73a8792050)#tf3w5jpp",
            "hex": "4104bf8dd6b80bb6e8c040a5dc895fb80fcf9c924522f96c4f05b5b515c07266d99963275448cc2c8c84edbcf3add8f0f3e1841299408560d47c05733e73a8792050ac",
            "type": "pubkey"
          }
        }
      ],
      "hex": "01000000010000000000000000000000000000000000000000000000000000000000000000ffffffff0704ffff001d010dffffffff0100f2052a01000000434104bf8dd6b80bb6e8c040a5dc895fb80fcf9c924522f96c4f05b5b515c07266d99963275448cc2c8c84edbcf3add8f0f3e1841299408560d47c05733e73a8792050ac00000000"
    }
  ]
}