{
  "hash": "00000000a98fac937fd0e2a74db339b25b3b0b948b99438c86b9d2a3a7b931da",
  "confirmations": 50145,
  "height": 2953,
  "version": 1,
  "versionHex": "00000001",
  "merkleroot": "e57789216bb89a26cebabf51b874567b0c99db00c55360908b4b7519a293b9ad",
  "time": 1233728416,
  "mediantime": 1233724010,
  "nonce": 2115896120,
  "bits": "1d00ffff",
  "difficulty": 1,
  "chainwork": "00000000000000000000000000000000000000000000000000000b8a0b8a0b8a",
  "nTx": 1,
  "previousblockhash": "00000000f1f448c224dc7587b08e983df2e1b82d4ebd0c7a3cd90f72644723e5",
  "nextblockhash": "00000000edfc7e98bd5a4a3adb7722e1dbd65ce0acd756ebb5fe28f5522f56b9",
  "strippedsize": 216,
  "size": 216,
  "weight": 864,
  "tx": [
    {
      "txid": "e57789216bb89a26cebabf51b874567b0c99db00c55360908b4b7519a293b9ad",
      "hash": "e57789216bb89a26cebabf51b874567b0c99db00c55360908b4b7519a293b9ad",
      "version": 1,
      "size": 135,
      "vsize": 135,
      "weight": 540,
      "locktime": 0,
      "vin": [
        {
          "coinbase": "04ffff001d02ad00",
          "sequence": 4294967295
        }
      ],
      "vout": [
        {
          "value": 50.0,
          "n": 0,
          "scriptPubKey": {
            "asm": "0484a96e3e2eccae67a53b22da55e35c140c265e5d5d1c7019d3796768a36406f931eb091ed069575405e275e1634fe7b8ab27120620f7aa77a7b3858f0f94a578 OP_CHECKSIG",
            "desc": "pk(0484a96e3e2eccae67a53b22da55e35c140c265e5d5d1c7019d3796768a36406f931eb091ed069575405e275e1634fe7b8ab27120620f7aa77a7b3858f0f94a578)#wt8fm7ls",
            "hex": "410484a96e3e2eccae67a53b22da55e35c140c265e5d5d1c7019d3796768a36406f931eb091ed069575405e275e1634fe7b8ab27120620f7aa77a7b3858f0f94a578ac",
            "type": "pubkey"
          }
        }
      ],
      "hex": "01000000010000000000000000000000000000000000000000000000000000000000000000ffffffff0804ffff001d02ad00ffffffff0100f2052a0100000043410484a96e3e2eccae67a53b22da55e35c140c265e5d5d1c7019d3796768a36406f931eb091ed069575405e275e1634fe7b8ab27120620f7aa77a7b3858f0f94a578ac00000000"
    }
  ]
}