{
  "hash": "00000000e1c14f433f188468b2bb6e634fb5381d2c8c1e98e1f87a90842073e8",
  "confirmations": 52214,
  "height": 404,
  "version": 1,
  "versionHex": "00000001",
  "merkleroot": "f5fe20fadac94288a0ed18a2b2e181471e6b75a023b7b2f88dfe4bb8667c6437",
  "time": 1231904592,
  "mediantime": 1231901339,
  "nonce": 1694690594,
  "bits": "1d00ffff",
  "difficulty": 1,
  "chainwork": "0000000000000000000000000000000000000000000000000000019501950195",
  "nTx": 1,
  "previousblockhash": "0000000070e953b7a87dad93a8c63a5884f92ba7f53e38f9dc2b64e09e0b735a",
  "nextblockhash": "00000000a148f310f5c02800fe4b08aa4daf0ea17b212ee07ce00f76768689dd",
  "strippedsize": 216,
  "size": 216,
  "weight": 864,
  "tx": [
    {
      "txid": "f5fe20fadac94288a0ed18a2b2e181471e6b75a023b7b2f88dfe4bb8667c6437",
      "hash": "f5fe20fadac94288a0ed18a2b2e181471e6b75a023b7b2f88dfe4bb8667c6437",
      "version": 1,
      "size": 135,
      "vsize": 135,
      "weight": 540,
      "locktime": 0,
      "vin": [
        {
          "coinbase": "04ffff001d028302",
          "sequence": 4294967295
        }
      ],
      "vout": [
        {
          "value": 50.0,
          "n": 0,
          "scriptPubKey": {
            "asm": "047cc02f54395b30969aa2efbc03c9fc25faf8f5a12ab2cb0a8bbc8b4dea5238b560b5ddf70145c9781b7a748221bf5749f1593be7ae8c880fa5ec8a90d9a72141 OP_CHECKSIG",
            "desc": "pk(047cc02f54395b30969aa2efbc03c9fc25faf8f5a12ab2cb0a8bbc8b4dea5238b560b5ddf70145c9781b7a748221bf5749f1593be7ae8c880fa5ec8a90d9a72141)#wp76gkj9",
            "hex": "41047cc02f54395b30969aa2efbc03c9fc25faf8f5a12ab2cb0a8bbc8b4dea5238b560b5ddf70145c9781b7a748221bf5749f1593be7ae8c880fa5ec8a90d9a72141ac",
            "type": "pubkey"
          }
        }
      ],
      "hex": "01000000010000000000000000000000000000000000000000000000000000000000000000ffffffff0804ffff001d028302ffffffff0100f2052a010000004341047cc02f54395b30969aa2efbc03c9fc25faf8f5a12ab2cb0a8bbc8b4dea5238b560b5ddf70145c9781b7a748221bf5749f1593be7ae8c880fa5ec8a90d9a72141ac00000000"
    }
  ]
}