{
  "hash": "0000000013103fb0ed66aad5c6616d485931b6ec1c905b8f58f74e4d4a11a0d5",
  "confirmations": 43956,
  "height": 9142,
  "version": 1,
  "versionHex": "00000001",
  "merkleroot": "30e0e5c76a8d8b3a32a86a022e7d102e2fdfd0763ad4c8ad667533c143a86dd8",
  "time": 1238363143,
  "mediantime": 1238358236,
  "nonce": 182536477,
  "bits": "1d00ffff",
  "difficulty": 1,
  "chainwork": "000000000000000000000000000000000000000000000000000023b723b723b7",
  "nTx": 1,
  "previousblockhash": "0000000077a5a0f4bc2d1d941e8c8295661ac4f5c25f2dc131447e7dac7be39a",
  "nextblockhash": "0000000014af7149075396d071a46c047198ed6747b2b5bfeaa30bd2802e1e02",
  "strippedsize": 216,
  "size": 216,
  "weight": 864,
  "tx": [
    {
      "txid": "30e0e5c76a8d8b3a32a86a022e7d102e2fdfd0763ad4c8ad667533c143a86dd8",
      "hash": "30e0e5c76a8d8b3a32a86a022e7d102e2fdfd0763ad4c8ad667533c143a86dd8",
      "version": 1,
      "size": 135,
      "vsize": 135,
      "weight": 540,
      "locktime": 0,
      "vin": [
        {
          "coinbase": "04ffff001d025e04",
          "sequence": 4294967295
        }
      ],
      "vout": [
        {
          "value": 50.0,
          "n": 0,
          "scriptPubKey": {
            "asm": "0419a7a68edfa83c8567caab61c3de5b541ed4591bbeaf8c3aaa29a46ea3ab02d9839423f57b39938be00221d96224371b1c2931db646193811c067752048b9ff6 OP_CHECKSIG",
            "desc": "pk(0419a7a68edfa83c8567caab61c3de5b541ed4591bbeaf8c3aaa29a46ea3ab02d9839423f57b39938be00221d96224371b1c2931db646193811c067752048b9ff6)#n0m0nf6v",
            "hex": "410419a7a68edfa83c8567caab61c3de5b541ed4591bbeaf8c3aaa29a46ea3ab02d9839423f57b39938be00221d96224371b1c2931db646193811c067752048b9ff6ac",
            "type": "pubkey"
          }
        }
      ],
      "hex": "01000000010000000000000000000000000000000000000000000000000000000000000000ffffffff0804ffff001d025e04ffffffff0100f2052a0100000043410419a7a68edfa83c8567caab61c3de5b541ed4591bbeaf8c3aaa29a46ea3ab02d9839423f57b39938be00221d96224371b1c2931db646193811c067752048b9ff6ac00000000"
    }
  ]
}