{
  "hash": "0000000085ed4936d370769b1e44a3888297c45d1c415a1c24c947d17cf9e7e1",
  "confirmations": 48773,
  "height": 4325,
  "version": 1,
  "versionHex": "00000001",
  "merkleroot": "8fa5aa24cfef5a9ad3e079694e0e274bde3bbfc8cb7956e0dffd900127154528",
  "time": 1234662587,
  "mediantime": 1234657736,
  "nonce": 17288516,
  "bits": "1d00ffff",
  "difficulty": 1,
  "chainwork": "000000000000000000000000000000000000000000000000000010e610e610e6",
  "nTx": 1,
  "previousblockhash": "00000000372169662fc63fa89918568338313469cc633e3c7cc21a27372a5c57",
  "nextblockhash": "0000000095f2f99630d27f46bccbc35344196da56517d512db1095358c851362",
  "strippedsize": 216,
  "size": 216,
  "weight": 864,
  "tx": [
    {
      "txid": "8fa5aa24cfef5a9ad3e079694e0e274bde3bbfc8cb7956e0dffd900127154528",
      "hash": "8fa5aa24cfef5a9ad3e079694e0e274bde3bbfc8cb7956e0dffd900127154528",
      "version": 1,
      "size": 135,
      "vsize": 135,
      "weight": 540,
      "locktime": 0,
      "vin": [
        {
          "coinbase": "04ffff001d026501",
          "sequence": 4294967295
        }
      ],
      "vout": [
        {
          "value": 50.0,
          "n": 0,
          "scriptPubKey": {
            "asm": "04b8af9f65b63a4024baf5b28432660feb893b51da9fa84236534b22709f8061112ace9388dfaf4d6f9d0f3ed7a050e3894e212a01aaf7cbcb8880453c88eabd5c OP_CHECKSIG",
            "desc": "pk(04b8af9f65b63a4024baf5b28432660feb893b51da9fa84236534b22709f8061112ace9388dfaf4d6f9d0f3ed7a050e3894e212a01aaf7cbcb8880453c88eabd5c)#caq8f3yp",
            "hex": "4104b8af9f65b63a4024baf5b28432660feb893b51da9fa84236534b22709f8061112ace9388dfaf4d6f9d0f3ed7a050e3894e212a01aaf7cbcb8880453c88eabd5cac",
            "type": "pubkey"
          }
        }
      ],
      "hex": "01000000010000000000000000000000000000000000000000000000000000000000000000ffffffff0804ffff001d026501ffffffff0100f2052a01000000434104b8af9f65b63a4024baf5b28432660feb893b51da9fa84236534b22709f8061112ace9388dfaf4d6f9d0f3ed7a050e3894e212a01aaf7cbcb8880453c88eabd5cac00000000"
    }
  ]
}