{
  "hash": "0000000009b905f3db4990848b9b14fe39582147fcf6a6cb8d73bd227d75369e",
  "confirmations": 52555,
  "height": 543,
  "version": 1,
  "versionHex": "00000001",
  "merkleroot": "47b270ab93cb81c8f47650fe0fc609d88a188a83440b7c6e9d0441b733a4b0ed",
  "time": 1231996652,
  "mediantime": 1231993954,
  "nonce": 150927878,
  "bits": "1d00ffff",
  "difficulty": 1,
  "chainwork": "0000000000000000000000000000000000000000000000000000022002200220",
  "nTx": 1,
  "previousblockhash": "00000000bdb2a11dbc79d6f367e666448ac16aed9be8ad7c5a5712e23d0a4942",
  "nextblockhash": "000000002d947997dc957cdf075dd32390f5f754d2656208d5dd82a6620179f5",
  "strippedsize": 216,
  "size": 216,
  "weight": 864,
  "tx": [
    {
      "txid": "47b270ab93cb81c8f47650fe0fc609d88a188a83440b7c6e9d0441b733a4b0ed",
      "hash": "47b270ab93cb81c8f47650fe0fc609d88a188a83440b7c6e9d0441b733a4b0ed",
      "version": 1,
      "size": 135,
      "vsize": 135,
      "weight": 540,
      "locktime": 0,
      "vin": [
        {
          "coinbase": "04ffff001d026c05",
          "sequence": 4294967295
        }
      ],
      "vout": [
        {
          "value": 50.0,
          "n": 0,
          "scriptPubKey": {
            "asm": "041953136c01cf4e180836eb879234b02addfb5864156b644b634f5f5077bdefe9bd8da510da13d1c1b8d56e15c9d6dacb6bf22a549953ca8b8ae96d344e1a073e OP_CHECKSIG",
            "desc": "pk(041953136c01cf4e180836eb879234b02addfb5864156b644b634f5f5077bdefe9bd8da510da13d1c1b8d56e15c9d6dacb6bf22a549953ca8b8ae96d344e1a073e)#dc0dj2zu",
            "hex": "41041953136c01cf4e180836eb879234b02addfb5864156b644b634f5f5077bdefe9bd8da510da13d1c1b8d56e15c9d6dacb6bf22a549953ca8b8ae96d344e1a073eac",
            "type": "pubkey"
          }
        }
      ],
      "hex": "01000000010000000000000000000000000000000000000000000000000000000000000000ffffffff0804ffff001d026c05ffffffff0100f2052a010000004341041953136c01cf4e180836eb879234b02addfb5864156b644b634f5f5077bdefe9bd8da510da13d1c1b8d56e15c9d6dacb6bf22a549953ca8b8ae96d344e1a073eac00000000"
    }
  ]
}