{
  "hash": "00000000091b6da7043bd1c9f2f468cf49ba510eef40e4f490f3efb667890f7e",
  "confirmations": 46440,
  "height": 6658,
  "version": 1,
  "versionHex": "00000001",
  "merkleroot": "1514e954a21e19449985781890233c2c58e9cd6b2c726e0b2104acd90a40ebf3",
  "time": 1236449909,
  "mediantime": 1236447493,
  "nonce": 149273128,
  "bits": "1d00ffff",
  "difficulty": 1,
  "chainwork": "00000000000000000000000000000000000000000000000000001a031a031a03",
  "nTx": 1,
  "previousblockhash": "00000000b60450f1bd7d033f185ec885eeb2c49624a09f2142567f3e3a18262e",
  "nextblockhash": "000000003c1610cbaf4f38b6b4eccf9aed9ff2ec252eb29fe7f44506dfdaab5d",
  "strippedsize": 216,
  "size": 216,
  "weight": 864,
  "tx": [
    {
      "txid": "1514e954a21e19449985781890233c2c58e9cd6b2c726e0b2104acd90a40ebf3",
      "hash": "1514e954a21e19449985781890233c2c58e9cd6b2c726e0b2104acd90a40ebf3",
      "version": 1,
      "size": 135,
      "vsize": 135,
      "weight": 540,
      "locktime": 0,
      "vin": [
        {
          "coinbase": "04ffff001d023806",
          "sequence": 4294967295
        }
      ],
      "vout": [
        {
          "value": 50.0,
          "n": 0,
          "scriptPubKey": {
            "asm": "04dc83181ccfb3a738186e9abe41791824602b2ca9932e64595ccd6d2fdd90dddb0ab121f8b3d81b30e6f5e9945b611a7bb700fe3c3b63e79070eb17a622f312d0 OP_CHECKSIG",
            "desc": "pk(04dc83181ccfb3a738186e9abe41791824602b2ca9932e64595ccd6d2fdd90dddb0ab121f8b3d81b30e6f5e9945b611a7bb700fe3c3b63e79070eb17a622f312d0)#zf2je4c0",
            "hex": "4104dc83181ccfb3a738186e9abe41791824602b2ca9932e64595ccd6d2fdd90dddb0ab121f8b3d81b30e6f5e9945b611a7bb700fe3c3b63e79070eb17a622f312d0ac",
            "type": "pubkey"
          }
        }
      ],
      "hex": "01000000010000000000000000000000000000000000000000000000000000000000000000ffffffff0804ffff001d023806ffffffff0100f2052a01000000434104dc83181ccfb3a738186e9abe41791824602b2ca9932e64595ccd6d2fdd90dddb0ab121f8b3d81b30e6f5e9945b611a7bb700fe3c3b63e79070eb17a622f312d0ac00000000"
    }
  ]
}