{
  "hash": "0000000084fd837d4a4b63bf5881624ba7d940a5708ed957a8d09d1ac4c4f344",
  "confirmations": 45138,
  "height": 7960,
  "version": 1,
  "versionHex": "00000001",
  "merkleroot": "01e949ae6b753782c50544aa7fd9c744fb06769f4bd95e1788f46a64daa366a4",
  "time": 1237434604,
  "mediantime": 1237430903,
  "nonce": 1415587365,
  "bits": "1d00ffff",
  "difficulty": 1,
  "chainwork": "00000000000000000000000000000000000000000000000000001f191f191f19",
  "nTx": 1,
  "previousblockhash": "000000000e8b374bf0431c12e88277498439247081dba19d5ee183fd8e833f8a",
  "nextblockhash": "0000000006872ad3e21335c558d58629ad64dec3c81e61b6076f03ad15e5b68e",
  "strippedsize": 216,
  "size": 216,
  "weight": 864,
  "tx": [
    {
      "txid": "01e949ae6b753782c50544aa7fd9c744fb06769f4bd95e1788f46a64daa366a4",
      "hash": "01e949ae6b753782c50544aa7fd9c744fb06769f4bd95e1788f46a64daa366a4",
      "version": 1,
      "size": 135,
      "vsize": 135,
      "weight": 540,
      "locktime": 0,
      "vin": [
        {
          "coinbase": "04ffff001d029e08",
          "sequence": 4294967295
        }
      ],
      "vout": [
        {
          "value": 50.0,
          "n": 0,
          "scriptPubKey": {
            "asm": "04317838a5fcca7e1913c2ba555e0129ce72f33ba653a3b5d0beb4fa496d6f4eb6f2e4f6aab6d1a47e8df2a53eab3ec37f4e3f5b8360f70e8e561fa40fbcdf2dbb OP_CHECKSIG",
            "desc": "pk(04317838a5fcca7e1913c2ba555e0129ce72f33ba653a3b5d0beb4fa496d6f4eb6f2e4f6aab6d1a47e8df2a53eab3ec37f4e3f5b8360f70e8e561fa40fbcdf2dbb)#7hnl0whu",
            "hex": "4104317838a5fcca7e1913c2ba555e0129ce72f33ba653a3b5d0beb4fa496d6f4eb6f2e4f6aab6d1a47e8df2a53eab3ec37f4e3f5b8360f70e8e561fa40fbcdf2dbbac",
            "type": "pubkey"
          }
        }
      ],
      "hex": "01000000010000000000000000000000000000000000000000000000000000000000000000ffffffff0804ffff001d029e08ffffffff0100f2052a01000000434104317838a5fcca7e1913c2ba555e0129ce72f33ba653a3b5d0beb4fa496d6f4eb6f2e4f6aab6d1a47e8df2a53eab3ec37f4e3f5b8360f70e8e561fa40fbcdf2dbbac00000000"
    }
  ]
}