{
  "hash": "000000002136a553f9bf7ba9979781548453aaf836e275febf273cc1c67dd3fe",
  "confirmations": 44908,
  "height": 8190,
  "version": 1,
  "versionHex": "00000001",
  "merkleroot": "8a4ac08d24ca7e56e26f426cc4034d71653f657984d45dca36b6ee792352161b",
  "time": 1237598869,
  "mediantime": 1237595442,
  "nonce": 3108213024,
  "bits": "1d00ffff",
  "difficulty": 1,
  "chainwork": "00000000000000000000000000000000000000000000000000001fff1fff1fff",
  "nTx": 1,
  "previousblockhash": "00000000bc55e94d87fc6f2565abb2b781cf0b588b2c65f5fcb91e38a69ec93e",
  "nextblockhash": "000000007b8668d5592a7121834c43237d7cfd28104f6276eebedab94901ff66",
  "strippedsize": 216,
  "size": 216,
  "weight": 864,
  "tx": [
    {
      "txid": "8a4ac08d24ca7e56e26f426cc4034d71653f657984d45dca36b6ee792352161b",
      "hash": "8a4ac08d24ca7e56e26f426cc4034d71653f657984d45dca36b6ee792352161b",
      "version": 1,
      "size": 135,
      "vsize": 135,
      "weight": 540,
      "locktime": 0,
      "vin": [
        {
          "coinbase": "04ffff001d02ba02",
          "sequence": 4294967295
        }
      ],
      "vout": [
        {
          "value": 50.0,
          "n": 0,
          "scriptPubKey": {
            "asm": "040fc0f9482de134a3d337e3892e77c2501d5baf728a346a8e0f8d0c2b91ca5c7c115a9b2215b186e58106bc91f46cd71dbd0ed9d653a74fb9c160e1616fa18a2f OP_CHECKSIG",
            "desc": "pk(040fc0f9482de134a3d337e3892e77c2501d5baf728a346a8e0f8d0c2b91ca5c7c115a9b2215b186e58106bc91f46cd71dbd0ed9d653a74fb9c160e1616fa18a2f)#wkf0awvr",
            "hex": "41040fc0f9482de134a3d337e3892e77c2501d5baf728a346a8e0f8d0c2b91ca5c7c115a9b2215b186e58106bc91f46cd71dbd0ed9d653a74fb9c160e1616fa18a2fac",
            "type": "pubkey"
          }
        }
      ],
      "hex": "01000000010000000000000000000000000000000000000000000000000000000000000000ffffffff0804ffff001d02ba02ffffffff0100f2052a010000004341040fc0f9482de134a3d337e3892e77c2501d5baf728a346a8e0f8d0c2b91ca5c7c115a9b2215b186e58106bc91f46cd71dbd0ed9d653a74fb9c160e1616fa18a2fac00000000"
    }
  ]
}