{
  "hash": "00000000886950f32f0be2c9d48f0c05b5ead3662b360b6c3d5a254e3ce7c81f",
  "confirmations": 51773,
  "height": 1325,
  "version": 1,
  "versionHex": "00000001",
  "merkleroot": "710ff17fab1939455fa4b6dc076eabf15487dc41c67d8fb4b2eb65d3ff072ef1",
  "time": 1232618740,
  "mediantime": 1232612478,
  "nonce": 1932873472,
  "bits": "1d00ffff",
  "difficulty": 1,
  "chainwork": "0000000000000000000000000000000000000000000000000000052e052e052e",
  "nTx": 1,
  "previousblockhash": "00000000d375bf381d4d70787980e2aa27d5f4406d8513fd375ed44bc3b8bdf8",
  "nextblockhash": "000000002c4a061ce273b4b550a28287e19b487f10677e11768d7aed93e533b7",
  "strippedsize": 216,
  "size": 216,
  "weight": 864,
  "tx": [
    {
      "txid": "710ff17fab1939455fa4b6dc076eabf15487dc41c67d8fb4b2eb65d3ff072ef1",
      "hash": "710ff17fab1939455fa4b6dc076eabf15487dc41c67d8fb4b2eb65d3ff072ef1",
      "version": 1,
      "size": 135,
      "vsize": 135,
      "weight": 540,
      "locktime": 0,
      "vin": [
        {
          "coinbase": "04ffff001d029f00",
          "sequence": 4294967295
        }
      ],
      "vout": [
        {
          "value": 50.0,
          "n": 0,
          "scriptPubKey": {
            "asm": "0457a11db24926bf2f685bc3845768043a45c8e2958add0a72bd8dd0a21133dde8387721a93622b39f196b807f674913abd5e50df13875a2b7228e5c49172753ff OP_CHECKSIG",
            "desc": "pk(0457a11db24926bf2f685bc3845768043a45c8e2958add0a72bd8dd0a21133dde8387721a93622b39f196b807f674913abd5e50df13875a2b7228e5c49172753ff)#ke2cucj4",
            "hex": "410457a11db24926bf2f685bc3845768043a45c8e2958add0a72bd8dd0a21133dde8387721a93622b39f196b807f674913abd5e50df13875a2b7228e5c49172753ffac",
            "type": "pubkey"
          }
        }
      ],
      "hex": "01000000010000000000000000000000000000000000000000000000000000000000000000ffffffff0804ffff001d029f00ffffffff0100f2052a0100000043410457a11db24926bf2f685bc3845768043a45c8e2958add0a72bd8dd0a21133dde8387721a93622b39f196b807f674913abd5e50df13875a2b7228e5c49172753ffac00000000"
    }
  ]
}