{
  "hash": "00000000ba676d471b894c4d66237733dbffd900eba759091cc95b8de28a97e6",
  "confirmations": 52318,
  "height": 780,
  "version": 1,
  "versionHex": "00000001",
  "merkleroot": "cc7d84b9828ddd7f4a31846cb80fd1fa0e13df22cca904db9a9d22221f6565dd",
  "time": 1232174964,
  "mediantime": 1232171060,
  "nonce": 1404650551,
  "bits": "1d00ffff",
  "difficulty": 1,
  "chainwork": "0000000000000000000000000000000000000000000000000000030d030d030d",
  "nTx": 1,
  "previousblockhash": "0000000088705973e5ff59d1a5b6cefbcdac79b15c3e20f91c1dec6ed26c4230",
  "nextblockhash": "0000000047638a0d2e2e541db2c05544bae64a7a7292838e019dda6890b0b1dd",
  "strippedsize": 216,
  "size": 216,
  "weight": 864,
  "tx": [
    {
      "txid": "cc7d84b9828ddd7f4a31846cb80fd1fa0e13df22cca904db9a9d22221f6565dd",
      "hash": "cc7d84b9828ddd7f4a31846cb80fd1fa0e13df22cca904db9a9d22221f6565dd",
      "version": 1,
      "size": 135,
      "vsize": 135,
      "weight": 540,
      "locktime": 0,
      "vin": [
        {
          "coinbase": "04ffff001d022001",
          "sequence": 4294967295
        }
      ],
      "vout": [
        {
          "value": 50.0,
          "n": 0,
          "scriptPubKey": {
            "asm": "044ad27c26a0c3f7e1fb01ebdcf04c14aa9a841dcb027a7666c254a709420048ed670185579f84e7bad1295392d16a7a2d00b8f18b26d35bbdf8dcd50f33422e15 OP_CHECKSIG",
            "desc": "pk(044ad27c26a0c3f7e1fb01ebdcf04c14aa9a841dcb027a7666c254a709420048ed670185579f84e7bad1295392d16a7a2d00b8f18b26d35bbdf8dcd50f33422e15)#eherjfhp",
            "hex": "41044ad27c26a0c3f7e1fb01ebdcf04c14aa9a841dcb027a7666c254a709420048ed670185579f84e7bad1295392d16a7a2d00b8f18b26d35bbdf8dcd50f33422e15ac",
            "type": "pubkey"
          }
        }
      ],
      "hex": "01000000010000000000000000000000000000000000000000000000000000000000000000ffffffff0804ffff001d022001ffffffff0100f2052a010000004341044ad27c26a0c3f7e1fb01ebdcf04c14aa9a841dcb027a7666c254a709420048ed670185579f84e7bad1295392d16a7a2d00b8f18b26d35bbdf8dcd50f33422e15ac00000000"
    }
  ]
}