{
  "hash": "00000000d94f1d51a312d293fe4acaea8aae1377eb26ca4c0b8bcb50ae43f743",
  "confirmations": 50126,
  "height": 2972,
  "version": 1,
  "versionHex": "00000001",
  "merkleroot": "ab35afcf412b46b048d829aaa37797749d8ab6b33b17fd00846d7e2f6055f5c4",
  "time": 1233742726,
  "mediantime": 1233739076,
  "nonce": 3451582501,
  "bits": "1d00ffff",
  "difficulty": 1,
  "chainwork": "00000000000000000000000000000000000000000000000000000b9d0b9d0b9d",
  "nTx": 1,
  "previousblockhash": "00000000f85571f33b3ed8eacd52c1a80d70ade909d342c7f8a479dbbd3180fd",
  "nextblockhash": "00000000381e31c7775c6b6aad8c4344321a24bed056e020cd8e6b5149d2c447",
  "strippedsize": 216,
  "size": 216,
  "weight": 864,
  "tx": [
    {
      "txid": "ab35afcf412b46b048d829aaa37797749d8ab6b33b17fd00846d7e2f6055f5c4",
      "hash": "ab35afcf412b46b048d829aaa37797749d8ab6b33b17fd00846d7e2f6055f5c4",
      "version": 1,
      "size": 135,
      "vsize": 135,
      "weight": 540,
      "locktime": 0,
      "vin": [
        {
          "coinbase": "04ffff001d02ef00",
          "sequence": 4294967295
        }
      ],
      "vout": [
        {
          "value": 50.0,
          "n": 0,
          "scriptPubKey": {
            "asm": "04512739c36abb0b1ad8919eb804eee1854cde7b8d80e4f437f1918bd1ac267ab0c3101013b109d00fdd53a1c7191cf1e71db01592524ed60f0f027c4d2855d2eb OP_CHECKSIG",
            "desc": "pk(04512739c36abb0b1ad8919eb804eee1854cde7b8d80e4f437f1918bd1ac267ab0c3101013b109d00fdd53a1c7191cf1e71db01592524ed60f0f027c4d2855d2eb)#dkkvhpdp",
            "hex": "4104512739c36abb0b1ad8919eb804eee1854cde7b8d80e4f437f1918bd1ac267ab0c3101013b109d00fdd53a1c7191cf1e71db01592524ed60f0f027c4d2855d2ebac",
            "type": "pubkey"
          }
        }
      ],
      "hex": "01000000010000000000000000000000000000000000000000000000000000000000000000ffffffff0804ffff001d02ef00ffffffff0100f2052a01000000434104512739c36abb0b1ad8919eb804eee1854cde7b8d80e4f437f1918bd1ac267ab0c3101013b109d00fdd53a1c7191cf1e71db01592524ed60f0f027c4d2855d2ebac00000000"
    }
  ]
}