{
  "hash": "00000000e1fd2db1b81b02532f868822772adfc252716a6a54df7c3b61dd9ff7",
  "confirmations": 45350,
  "height": 7748,
  "version": 1,
  "versionHex": "00000001",
  "merkleroot": "b3aa9944ec6ad18a0b2b0083b4685af444f3b30c57839eceac5b72c43e1aa265",
  "time": 1237275248,
  "mediantime": 1237272704,
  "nonce": 15604762,
  "bits": "1d00ffff",
  "difficulty": 1,
  "chainwork": "00000000000000000000000000000000000000000000000000001e451e451e45",
  "nTx": 1,
  "previousblockhash": "000000007fbea6ba0eddef62ea42e35d956a266ac406d11086fac99cce554272",
  "nextblockhash": "000000002c029621b8cc9c395803bf3da43711e5008f7dbf67a24d95779bd216",
  "strippedsize": 216,
  "size": 216,
  "weight": 864,
  "tx": [
    {
      "txid": "b3aa9944ec6ad18a0b2b0083b4685af444f3b30c57839eceac5b72c43e1aa265",
      "hash": "b3aa9944ec6ad18a0b2b0083b4685af444f3b30c57839eceac5b72c43e1aa265",
      "version": 1,
      "size": 135,
      "vsize": 135,
      "weight": 540,
      "locktime": 0,
      "vin": [
        {
          "coinbase": "04ffff001d02a104",
          "sequence": 4294967295
        }
      ],
      "vout": [
        {
          "value": 50.0,
          "n": 0,
          "scriptPubKey": {
            "asm": "045770c6e550ceed5b27dbd72fdf83e36821c187e34233a8ad18bc815885e8af2cedbc8e5a1a881b5c624f3e80b089cddf49d4e71f0e2ab7e08d5d9e07d0bdaa07 OP_CHECKSIG",
            "desc": "pk(045770c6e550ceed5b27dbd72fdf83e36821c187e34233a8ad18bc815885e8af2cedbc8e5a1a881b5c624f3e80b089cddf49d4e71f0e2ab7e08d5d9e07d0bdaa07)#njx54tad",
            "hex": "41045770c6e550ceed5b27dbd72fdf83e36821c187e34233a8ad18bc815885e8af2cedbc8e5a1a881b5c624f3e80b089cddf49d4e71f0e2ab7e08d5d9e07d0bdaa07ac",
            "type": "pubkey"
          }
        }
      ],
      "hex": "01000000010000000000000000000000000000000000000000000000000000000000000000ffffffff0804ffff001d02a104ffffffff0100f2052a010000004341045770c6e550ceed5b27dbd72fdf83e36821c187e34233a8ad18bc815885e8af2cedbc8e5a1a881b5c624f3e80b089cddf49d4e71f0e2ab7e08d5d9e07d0bdaa07ac00000000"
    }
  ]
}