{
  "hash": "0000000073ce30b0cc83da73ccff5a3bb2ccf7986a6dd16e7c6bfdffba178fb5",
  "confirmations": 51770,
  "height": 1328,
  "version": 1,
  "versionHex": "00000001",
  "merkleroot": "015b382461e0c50bca5a5f31baef2ff92479db144bb07736e9b1c1b88aaab0c8",
  "time": 1232620874,
  "mediantime": 1232615832,
  "nonce": 337448762,
  "bits": "1d00ffff",
  "difficulty": 1,
  "chainwork": "0000000000000000000000000000000000000000000000000000053105310531",
  "nTx": 1,
  "previousblockhash": "00000000181f90775d280ecad91c6e7c5f98ef147c952da85069ef2c42c32baf",
  "nextblockhash": "000000006850420a1b636ebaf72c9c722521704fd1a67dee1c81ccfd252dbaee",
  "strippedsize": 216,
  "size": 216,
  "weight": 864,
  "tx": [
    {
      "txid": "015b382461e0c50bca5a5f31baef2ff92479db144bb07736e9b1c1b88aaab0c8",
      "hash": "015b382461e0c50bca5a5f31baef2ff92479db144bb07736e9b1c1b88aaab0c8",
      "version": 1,
      "size": 135,
      "vsize": 135,
      "weight": 540,
      "locktime": 0,
      "vin": [
        {
          "coinbase": "04ffff001d02b500",
          "sequence": 4294967295
        }
      ],
      "vout": [
        {
          "value": 50.0,
          "n": 0,
          "scriptPubKey": {
            "asm": "044e64f38dc00501e9a81b23f42b7936d6e3162c6d4ec81281b97b1e2106ad8eb0222e304dddfcb8508a260f3d88311b394c576af5decadd995ee0e4dafc5513c7 OP_CHECKSIG",
            "desc": "pk(044e64f38dc00501e9a81b23f42b7936d6e3162c6d4ec81281b97b1e2106ad8eb0222e304dddfcb8508a260f3d88311b394c576af5decadd995ee0e4dafc5513c7)#zyqat426",
            "hex": "41044e64f38dc00501e9a81b23f42b7936d6e3162c6d4ec81281b97b1e2106ad8eb0222e304dddfcb8508a260f3d88311b394c576af5decadd995ee0e4dafc5513c7ac",
            "type": "pubkey"
          }
        }
      ],
      "hex": "01000000010000000000000000000000000000000000000000000000000000000000000000ffffffff0804ffff001d02b500ffffffff0100f2052a010000004341044e64f38dc00501e9a81b23f42b7936d6e3162c6d4ec81281b97b1e2106ad8eb0222e304dddfcb8508a260f3d88311b394c576af5decadd995ee0e4dafc5513c7ac00000000"
    }
  ]
}