{
  "hash": "00000000e349ca8c0468946dc7d742a4ae1697a6d2cfd27c60c14efacc9932cb",
  "confirmations": 45134,
  "height": 7964,
  "version": 1,
  "versionHex": "00000001",
  "merkleroot": "636f9c64d8e83652809f7f6ac7ad62618e3576b79a0c86367e419046cc9ac17f",
  "time": 1237437011,
  "mediantime": 1237433787,
  "nonce": 32932396,
  "bits": "1d00ffff",
  "difficulty": 1,
  "chainwork": "00000000000000000000000000000000000000000000000000001f1d1f1d1f1d",
  "nTx": 1,
  "previousblockhash": "00000000fef95465d28938fbc6ef34029bc5e049a7b45344b5705c3790c645ff",
  "nextblockhash": "00000000d00e97619f499e6f19ac3129774332d2c2212eb2ef38dbef39db0018",
  "strippedsize": 216,
  "size": 216,
  "weight": 864,
  "tx": [
    {
      "txid": "636f9c64d8e83652809f7f6ac7ad62618e3576b79a0c86367e419046cc9ac17f",
      "hash": "636f9c64d8e83652809f7f6ac7ad62618e3576b79a0c86367e419046cc9ac17f",
      "version": 1,
      "size": 135,
      "vsize": 135,
      "weight": 540,
      "locktime": 0,
      "vin": [
        {
          "coinbase": "04ffff001d028403",
          "sequence": 4294967295
        }
      ],
      "vout": [
        {
          "value": 50.0,
          "n": 0,
          "scriptPubKey": {
            "asm": "04a1395ac16e0ac4d9a98c560129ba30aadc0c57ea511c4f23b65bd1d313f6fc8b3081fd6d59ac0a9070e0ef9812b094e98039cf8a9518b2613326e6274d8c1a39 OP_CHECKSIG",
            "desc": "pk(04a1395ac16e0ac4d9a98c560129ba30aadc0c57ea511c4f23b65bd1d313f6fc8b3081fd6d59ac0a9070e0ef9812b094e98039cf8a9518b2613326e6274d8c1a39)#4s4lwm5p",
            "hex": "4104a1395ac16e0ac4d9a98c560129ba30aadc0c57ea511c4f23b65bd1d313f6fc8b3081fd6d59ac0a9070e0ef9812b094e98039cf8a9518b2613326e6274d8c1a39ac",
            "type": "pubkey"
          }
        }
      ],
      "hex": "01000000010000000000000000000000000000000000000000000000000000000000000000ffffffff0804ffff001d028403ffffffff0100f2052a01000000434104a1395ac16e0ac4d9a98c560129ba30aadc0c57ea511c4f23b65bd1d313f6fc8b3081fd6d59ac0a9070e0ef9812b094e98039cf8a9518b2613326e6274d8c1a39ac00000000"
    }
  ]
}