{
  "hash": "0000000012bb65eed8f38158dbcafbe9303aaef2f375439e31f3bbf0aed5adb7",
  "confirmations": 44110,
  "height": 8988,
  "version": 1,
  "versionHex": "00000001",
  "merkleroot": "bbe07adde346af18776831072de5f249bdc39faa62dbc1ff55b1eb8b80f7b3ea",
  "time": 1238244866,
  "mediantime": 1238240718,
  "nonce": 460857624,
  "bits": "1d00ffff",
  "difficulty": 1,
  "chainwork": "0000000000000000000000000000000000000000000000000000231d231d231d",
  "nTx": 1,
  "previousblockhash": "00000000331cee5d93850f982ca4ff67cf7032a280e23924114015c485de9466",
  "nextblockhash": "000000006c357df6424112ff33dabaa2938b36716bfb3086fc9593cd56df9f16",
  "strippedsize": 216,
  "size": 216,
  "weight": 864,
  "tx": [
    {
      "txid": "bbe07adde346af18776831072de5f249bdc39faa62dbc1ff55b1eb8b80f7b3ea",
      "hash": "bbe07adde346af18776831072de5f249bdc39faa62dbc1ff55b1eb8b80f7b3ea",
      "version": 1,
      "size": 135,
      "vsize": 135,
      "weight": 540,
      "locktime": 0,
      "vin": [
        {
          "coinbase": "04ffff001d023206",
          "sequence": 4294967295
        }
      ],
      "vout": [
        {
          "value": 50.0,
          "n": 0,
          "scriptPubKey": {
            "asm": "04a4a91603cc61a6a048ab4e2df07ad896967ceb3bb28c620f289eec99f04b425b1edd2327840eb33a0b1eac3b310a3668d361b578966b5ffa7c2ef401b3ad93b6 OP_CHECKSIG",
            "desc": "pk(04a4a91603cc61a6a048ab4e2df07ad896967ceb3bb28c620f289eec99f04b425b1edd2327840eb33a0b1eac3b310a3668d361b578966b5ffa7c2ef401b3ad93b6)#yy3s3025",
            "hex": "4104a4a91603cc61a6a048ab4e2df07ad896967ceb3bb28c620f289eec99f04b425b1edd2327840eb33a0b1eac3b310a3668d361b578966b5ffa7c2ef401b3ad93b6ac",
            "type": "pubkey"
          }
        }
      ],
      "hex": "01000000010000000000000000000000000000000000000000000000000000000000000000ffffffff0804ffff001d023206ffffffff0100f2052a01000000434104a4a91603cc61a6a048ab4e2df07ad896967ceb3bb28c620f289eec99f04b425b1edd2327840eb33a0b1eac3b310a3668d361b578966b5ffa7c2ef401b3ad93b6ac00000000"
    }
  ]
}