{
  "hash": "00000000a76232a750ee00bc46ea28d6fdc59e34487adbe6f985b62cd50ef7d1",
  "confirmations": 51146,
  "height": 1952,
  "version": 1,
  "versionHex": "00000001",
  "merkleroot": "fb9a4c6f0d1bd84e4b8debab6d0a668248e8b14540c496fc520ca73f3e738c57",
  "time": 1233009315,
  "mediantime": 1233005690,
  "nonce": 3986326278,
  "bits": "1d00ffff",
  "difficulty": 1,
  "chainwork": "000000000000000000000000000000000000000000000000000007a107a107a1",
  "nTx": 1,
  "previousblockhash": "000000001414f1c4b00806241cedf3fb45c843c9144fbd14df57c03a84b8cc7b",
  "nextblockhash": "0000000087fc0397cf6acaef40d56c9a5427066041e1cde1d1bfcbe12f023991",
  "strippedsize": 216,
  "size": 216,
  "weight": 864,
  "tx": [
    {
      "txid": "fb9a4c6f0d1bd84e4b8debab6d0a668248e8b14540c496fc520ca73f3e738c57",
      "hash": "fb9a4c6f0d1bd84e4b8debab6d0a668248e8b14540c496fc520ca73f3e738c57",
      "version": 1,
      "size": 135,
      "vsize": 135,
      "weight": 540,
      "locktime": 0,
      "vin": [
        {
          "coinbase": "04ffff001d029a00",
          "sequence": 4294967295
        }
      ],
      "vout": [
        {
          "value": 50.0,
          "n": 0,
          "scriptPubKey": {
            "asm": "0499ffecf2c68b1d7a4c31a6b949762a21fc0cfecf38b6179ddeddf57671f22d153160cbb8b1c7e4c4b4c67c0d766e217ee8b2bdf0dd24da5f38acb6be81045fa7 OP_CHECKSIG",
            "desc": "pk(0499ffecf2c68b1d7a4c31a6b949762a21fc0cfecf38b6179ddeddf57671f22d153160cbb8b1c7e4c4b4c67c0d766e217ee8b2bdf0dd24da5f38acb6be81045fa7)#lnzvfcmv",
            "hex": "410499ffecf2c68b1d7a4c31a6b949762a21fc0cfecf38b6179ddeddf57671f22d153160cbb8b1c7e4c4b4c67c0d766e217ee8b2bdf0dd24da5f38acb6be81045fa7ac",
            "type": "pubkey"
          }
        }
      ],
      "hex": "01000000010000000000000000000000000000000000000000000000000000000000000000ffffffff0804ffff001d029a00ffffffff0100f2052a0100000043410499ffecf2c68b1d7a4c31a6b949762a21fc0cfecf38b6179ddeddf57671f22d153160cbb8b1c7e4c4b4c67c0d766e217ee8b2bdf0dd24da5f38acb6be81045fa7ac00000000"
    }
  ]
}