{
  "hash": "0000000002f84ce99315f07cc0693fef6caa5720e5f39f7b08199b3fe2fff795",
  "confirmations": 43273,
  "height": 9825,
  "version": 1,
  "versionHex": "00000001",
  "merkleroot": "4b862d700361204772a3afdf26e9a639e8cc51371f8b86b9c9fd10be5dfac70d",
  "time": 1238873375,
  "mediantime": 1238869432,
  "nonce": 366014229,
  "bits": "1d00ffff",
  "difficulty": 1,
  "chainwork": "0000000000000000000000000000000000000000000000000000266226622662",
  "nTx": 1,
  "previousblockhash": "000000000d20a20d5254527145a196dae320ba253bdded919e906852e52674be",
  "nextblockhash": "000000007509929eb2a348285246eeacdb28c98446f7760b6c2b2a9e98015c05",
  "strippedsize": 216,
  "size": 216,
  "weight": 864,
  "tx": [
    {
      "txid": "4b862d700361204772a3afdf26e9a639e8cc51371f8b86b9c9fd10be5dfac70d",
      "hash": "4b862d700361204772a3afdf26e9a639e8cc51371f8b86b9c9fd10be5dfac70d",
      "version": 1,
      "size": 135,
      "vsize": 135,
      "weight": 540,
      "locktime": 0,
      "vin": [
        {
          "coinbase": "04ffff001d02bc00",
          "sequence": 4294967295
        }
      ],
      "vout": [
        {
          "value": 50.0,
          "n": 0,
          "scriptPubKey": {
            "asm": "04ce35fd5942c3cfb56bc0d4c7dbe429a37394c576342815cf659763c849af2149c5810e60d940dfcd05e9ec7f0c4b202e84899bf8afd462f0c3121f4c5f0f1344 OP_CHECKSIG",
            "desc": "pk(04ce35fd5942c3cfb56bc0d4c7dbe429a37394c576342815cf659763c849af2149c5810e60d940dfcd05e9ec7f0c4b202e84899bf8afd462f0c3121f4c5f0f1344)#vzx8au88",
            "hex": "4104ce35fd5942c3cfb56bc0d4c7dbe429a37394c576342815cf659763c849af2149c5810e60d940dfcd05e9ec7f0c4b202e84899bf8afd462f0c3121f4c5f0f1344ac",
            "type": "pubkey"
          }
        }
      ],
      "hex": "01000000010000000000000000000000000000000000000000000000000000000000000000ffffffff0804ffff001d02bc00ffffffff0100f2052a01000000434104ce35fd5942c3cfb56bc0d4c7dbe429a37394c576342815cf659763c849af2149c5810e60d940dfcd05e9ec7f0c4b202e84899bf8afd462f0c3121f4c5f0f1344ac00000000"
    }
  ]
}