{
  "hash": "0000000076c29e4855ff93adf9e6e7ae46135e0c6ea3c6c9610da80e6d3ddd1b",
  "confirmations": 43174,
  "height": 9924,
  "version": 1,
  "versionHex": "00000001",
  "merkleroot": "20acfb4b1dbe0eff6af7b68d9b677db32f84a490657575ec86558838e15390b5",
  "time": 1238937185,
  "mediantime": 1238934448,
  "nonce": 2428053280,
  "bits": "1d00ffff",
  "difficulty": 1,
  "chainwork": "000000000000000000000000000000000000000000000000000026c526c526c5",
  "nTx": 1,
  "previousblockhash": "00000000ed666ffdb83ebb2528931c31818cbd3cd36d18cc7c5854ba7dfaa906",
  "nextblockhash": "0000000080ba99de231147c2167c6c04a7a31c72f9e1e278c88187563dea8c77",
  "strippedsize": 216,
  "size": 216,
  "weight": 864,
  "tx": [
    {
      "txid": "20acfb4b1dbe0eff6af7b68d9b677db32f84a490657575ec86558838e15390b5",
      "hash": "20acfb4b1dbe0eff6af7b68d9b677db32f84a490657575ec86558838e15390b5",
      "version": 1,
      "size": 135,
      "vsize": 135,
      "weight": 540,
      "locktime": 0,
      "vin": [
        {
          "coinbase": "04ffff001d027302",
          "sequence": 4294967295
        }
      ],
      "vout": [
        {
          "value": 50.0,
          "n": 0,
          "scriptPubKey": {
            "asm": "0414d96c420b9de5d48edd1d0642fe38e4a6cbec4bb7b9616f7160e89088168b427f62ea7b2a0751507ae7d659643ab4562c20d5f981a1acdee842aabab5bb9dda OP_CHECKSIG",
            "desc": "pk(0414d96c420b9de5d48edd1d0642fe38e4a6cbec4bb7b9616f7160e89088168b427f62ea7b2a0751507ae7d659643ab4562c20d5f981a1acdee842aabab5bb9dda)#60th7r84",
            "hex": "410414d96c420b9de5d48edd1d0642fe38e4a6cbec4bb7b9616f7160e89088168b427f62ea7b2a0751507ae7d659643ab4562c20d5f981a1acdee842aabab5bb9ddaac",
            "type": "pubkey"
          }
        }
      ],
      "hex": "01000000010000000000000000000000000000000000000000000000000000000000000000ffffffff0804ffff001d027302ffffffff0100f2052a0100000043410414d96c420b9de5d48edd1d0642fe38e4a6cbec4bb7b9616f7160e89088168b427f62ea7b2a0751507ae7d659643ab4562c20d5f981a1acdee842aabab5bb9ddaac00000000"
    }
  ]
}