{
  "hash": "0000000090f1b16494d3cac0f6e2d6e9a5cec48a562565ad3ab3ffae7c99868d",
  "confirmations": 44977,
  "height": 8121,
  "version": 1,
  "versionHex": "00000001",
  "merkleroot": "936901b213c3573f148bee63f712bdd4f1bab2fcbc3f97222036152737b3268b",
  "time": 1237547800,
  "mediantime": 1237542025,
  "nonce": 53504096,
  "bits": "1d00ffff",
  "difficulty": 1,
  "chainwork": "00000000000000000000000000000000000000000000000000001fba1fba1fba",
  "nTx": 1,
  "previousblockhash": "0000000016b043cf124f1f179a1040db7c2c5d979b124ad01cb7acc900b4d478",
  "nextblockhash": "00000000fa668eed9c9ee748c9f471eac60736b3ccb05e44250deef05dd41238",
  "strippedsize": 216,
  "size": 216,
  "weight": 864,
  "tx": [
    {
      "txid": "936901b213c3573f148bee63f712bdd4f1bab2fcbc3f97222036152737b3268b",
      "hash": "936901b213c3573f148bee63f712bdd4f1bab2fcbc3f97222036152737b3268b",
      "version": 1,
      "size": 135,
      "vsize": 135,
      "weight": 540,
      "locktime": 0,
      "vin": [
        {
          "coinbase": "04ffff001d026c0a",
          "sequence": 4294967295
        }
      ],
      "vout": [
        {
          "value": 50.0,
          "n": 0,
          "scriptPubKey": {
            "asm": "047bccecd683130f9ea23d61495ab869d6ec744c1aac7b3450ef15ab71b393210dfbe7da3c62c629e636294bc2223678fac97f32a9f7a3d6d04d935de038046a7e OP_CHECKSIG",
            "desc": "pk(047bccecd683130f9ea23d61495ab869d6ec744c1aac7b3450ef15ab71b393210dfbe7da3c62c629e636294bc2223678fac97f32a9f7a3d6d04d935de038046a7e)#6gh2rf83",
            "hex": "41047bccecd683130f9ea23d61495ab869d6ec744c1aac7b3450ef15ab71b393210dfbe7da3c62c629e636294bc2223678fac97f32a9f7a3d6d04d935de038046a7eac",
            "type": "pubkey"
          }
        }
      ],
      "hex": "01000000010000000000000000000000000000000000000000000000000000000000000000ffffffff0804ffff001d026c0affffffff0100f2052a010000004341047bccecd683130f9ea23d61495ab869d6ec744c1aac7b3450ef15ab71b393210dfbe7da3c62c629e636294bc2223678fac97f32a9f7a3d6d04d935de038046a7eac00000000"
    }
  ]
}