{
  "hash": "000000003a6b3441232f2091256865b88a73eb913728bf8c06a1c3c212bece8c",
  "confirmations": 51809,
  "height": 1289,
  "version": 1,
  "versionHex": "00000001",
  "merkleroot": "6ec5a3d7ccb977864fca0aae5e3f47edc14536bce43ecce41ca09bd16d68b7d5",
  "time": 1232566646,
  "mediantime": 1232563152,
  "nonce": 188031645,
  "bits": "1d00ffff",
  "difficulty": 1,
  "chainwork": "0000000000000000000000000000000000000000000000000000050a050a050a",
  "nTx": 1,
  "previousblockhash": "00000000abd10a678446693dd5ef014eb69c1160205c4b4c6fa6d3667ec5d519",
  "nextblockhash": "00000000e7e14180e1bcd82aff7fba4a4874a4028c4beb1e9de18ed2404b4d30",
  "strippedsize": 215,
  "size": 215,
  "weight": 860,
  "tx": [
    {
      "txid": "6ec5a3d7ccb977864fca0aae5e3f47edc14536bce43ecce41ca09bd16d68b7d5",
      "hash": "6ec5a3d7ccb977864fca0aae5e3f47edc14536bce43ecce41ca09bd16d68b7d5",
      "version": 1,
      "size": 134,
      "vsize": 134,
      "weight": 536,
      "locktime": 0,
      "vin": [
        {
          "coinbase": "04ffff001d0118",
          "sequence": 4294967295
        }
      ],
      "vout": [
        {
          "value": 50.0,
          "n": 0,
          "scriptPubKey": {
            "asm": "042ed6e38a562e04e7f3fdbb3652293088ec53293d6626435af9d1aaa4db665860ae3d3958aade1e083ee70cfc630327348b17f08235a8ef418984fc5bddab6b05 OP_CHECKSIG",
            "desc": "pk(042ed6e38a562e04e7f3fdbb3652293088ec53293d6626435af9d1aaa4db665860ae3d3958aade1e083ee70cfc630327348b17f08235a8ef418984fc5bddab6b05)#ughk2v56",
            "hex": "41042ed6e38a562e04e7f3fdbb3652293088ec53293d6626435af9d1aaa4db665860ae3d3958aade1e083ee70cfc630327348b17f08235a8ef418984fc5bddab6b05ac",
            "type": "pubkey"
          }
        }
      ],
      "hex": "01000000010000000000000000000000000000000000000000000000000000000000000000ffffffff0704ffff001d0118ffffffff0100f2052a010000004341042ed6e38a562e04e7f3fdbb3652293088ec53293d6626435af9d1aaa4db665860ae3d3958aade1e083ee70cfc630327348b17f08235a8ef418984fc5bddab6b05ac00000000"
    }
  ]
}