{
  "hash": "000000005e9e4a56a50b265fced276903d284e6a6f88a346f6113b38c1a35891",
  "confirmations": 47839,
  "height": 5259,
  "version": 1,
  "versionHex": "00000001",
  "merkleroot": "fe4f1b8c33ac7e0703155e1688d38fc02ee477ffe2e781370aa74d3b3938d4a7",
  "time": 1235329919,
  "mediantime": 1235326364,
  "nonce": 2138425889,
  "bits": "1d00ffff",
  "difficulty": 1,
  "chainwork": "0000000000000000000000000000000000000000000000000000148c148c148c",
  "nTx": 1,
  "previousblockhash": "00000000498f9d53b09d6b486716a8b79c60e43be439e4520517830fefd6f2d2",
  "nextblockhash": "000000002622aa01985953101c787b85f2c9fc10b6fb50f3723588fca6beeba3",
  "strippedsize": 216,
  "size": 216,
  "weight": 864,
  "tx": [
    {
      "txid": "fe4f1b8c33ac7e0703155e1688d38fc02ee477ffe2e781370aa74d3b3938d4a7",
      "hash": "fe4f1b8c33ac7e0703155e1688d38fc02ee477ffe2e781370aa74d3b3938d4a7",
      "version": 1,
      "size": 135,
      "vsize": 135,
      "weight": 540,
      "locktime": 0,
      "vin": [
        {
          "coinbase": "04ffff001d026f01",
          "sequence": 4294967295
        }
      ],
      "vout": [
        {
          "value": 50.0,
          "n": 0,
          "scriptPubKey": {
            "asm": "0458a8ea8878247774de3d04bdbc7b3d6f40f51a5cf6b61b246c04c15d1999917ba245fbdb697642d1124e98ef2134cd64f5c75a25a9ad7abc0a2b26f8629713a2 OP_CHECKSIG",
            "desc": "pk(0458a8ea8878247774de3d04bdbc7b3d6f40f51a5cf6b61b246c04c15d1999917ba245fbdb697642d1124e98ef2134cd64f5c75a25a9ad7abc0a2b26f8629713a2)#cxax5j43",
            "hex": "410458a8ea8878247774de3d04bdbc7b3d6f40f51a5cf6b61b246c04c15d1999917ba245fbdb697642d1124e98ef2134cd64f5c75a25a9ad7abc0a2b26f8629713a2ac",
            "type": "pubkey"
          }
        }
      ],
      "hex": "01000000010000000000000000000000000000000000000000000000000000000000000000ffffffff0804ffff001d026f01ffffffff0100f2052a0100000043410458a8ea8878247774de3d04bdbc7b3d6f40f51a5cf6b61b246c04c15d1999917ba245fbdb697642d1124e98ef2134cd64f5c75a25a9ad7abc0a2b26f8629713a2ac00000000"
    }
  ]
}