{
  "hash": "00000000f813dd91503284c6b4fb0e07fe19955d47c5609e84c563f022b6d010",
  "confirmations": 44533,
  "height": 8565,
  "version": 1,
  "versionHex": "00000001",
  "merkleroot": "179d0b5b2cf6f9ef0b078d129d7b11a37d6f415edda29d7ac3e5ba95d20ff951",
  "time": 1237923515,
  "mediantime": 1237919918,
  "nonce": 3662771465,
  "bits": "1d00ffff",
  "difficulty": 1,
  "chainwork": "0000000000000000000000000000000000000000000000000000217621762176",
  "nTx": 1,
  "previousblockhash": "000000007d282420eed81c2227818d78512670dc7d5938484fd5f3632456e665",
  "nextblockhash": "00000000b34b9a7ae8ea4703cbee350933c903eca08df98c0b2d5642d7ba8436",
  "strippedsize": 216,
  "size": 216,
  "weight": 864,
  "tx": [
    {
      "txid": "179d0b5b2cf6f9ef0b078d129d7b11a37d6f415edda29d7ac3e5ba95d20ff951",
      "hash": "179d0b5b2cf6f9ef0b078d129d7b11a37d6f415edda29d7ac3e5ba95d20ff951",
      "version": 1,
      "size": 135,
      "vsize": 135,
      "weight": 540,
      "locktime": 0,
      "vin": [
        {
          "coinbase": "04ffff001d020b09",
          "sequence": 4294967295
        }
      ],
      "vout": [
        {
          "value": 50.0,
          "n": 0,
          "scriptPubKey": {
            "asm": "045a62eb4a04d51138c3897f38ca03841044873969e50968d87230c5086b5d643ee891c187de2841da997828573ccf51f9cad9ea0d0872afeb0923a7e5cbc69404 OP_CHECKSIG",
            "desc": "pk(045a62eb4a04d51138c3897f38ca03841044873969e50968d87230c5086b5d643ee891c187de2841da997828573ccf51f9cad9ea0d0872afeb0923a7e5cbc69404)#ucrs2xpv",
            "hex": "41045a62eb4a04d51138c3897f38ca03841044873969e50968d87230c5086b5d643ee891c187de2841da997828573ccf51f9cad9ea0d0872afeb0923a7e5cbc69404ac",
            "type": "pubkey"
          }
        }
      ],
      "hex": "01000000010000000000000000000000000000000000000000000000000000000000000000ffffffff0804ffff001d020b09ffffffff0100f2052a010000004341045a62eb4a04d51138c3897f38ca03841044873969e50968d87230c5086b5d643ee891c187de2841da997828573ccf51f9cad9ea0d0872afeb0923a7e5cbc69404ac00000000"
    }
  ]
}