{
  "hash": "00000000fd33d335a22fa4f3f139b9147de4733ef6aabe7b98c250931ec92284",
  "confirmations": 51149,
  "height": 1949,
  "version": 1,
  "versionHex": "00000001",
  "merkleroot": "86203ba51cda62a89ccf27f37abf5187f82f0d30dd21309cc3f7ce75e1c01ac3",
  "time": 1233007101,
  "mediantime": 1233002751,
  "nonce": 1112527891,
  "bits": "1d00ffff",
  "difficulty": 1,
  "chainwork": "0000000000000000000000000000000000000000000000000000079e079e079e",
  "nTx": 1,
  "previousblockhash": "000000004723d31f9674a64bd453ac2eb40ec950fc4429ab80dddc4a875297a4",
  "nextblockhash": "000000008a3f87d76e4e59fbd3c531a87b0557b91c838a988e7c9589b42cf7db",
  "strippedsize": 216,
  "size": 216,
  "weight": 864,
  "tx": [
    {
      "txid": "86203ba51cda62a89ccf27f37abf5187f82f0d30dd21309cc3f7ce75e1c01ac3",
      "hash": "86203ba51cda62a89ccf27f37abf5187f82f0d30dd21309cc3f7ce75e1c01ac3",
      "version": 1,
      "size": 135,
      "vsize": 135,
      "weight": 540,
      "locktime": 0,
      "vin": [
        {
          "coinbase": "04ffff001d028b00",
          "sequence": 4294967295
        }
      ],
      "vout": [
        {
          "value": 50.0,
          "n": 0,
          "scriptPubKey": {
            "asm": "04f4726fc2578bbf46d4d7ac0b9d978f8fd1ad01106c4395f49c635f88af5346cbd6120c6f44a73422f00c5e01141f2d678696758b33bb9cd76fc50cc410eec1b3 OP_CHECKSIG",
            "desc": "pk(04f4726fc2578bbf46d4d7ac0b9d978f8fd1ad01106c4395f49c635f88af5346cbd6120c6f44a73422f00c5e01141f2d678696758b33bb9cd76fc50cc410eec1b3)#4dc4lhlp",
            "hex": "4104f4726fc2578bbf46d4d7ac0b9d978f8fd1ad01106c4395f49c635f88af5346cbd6120c6f44a73422f00c5e01141f2d678696758b33bb9cd76fc50cc410eec1b3ac",
            "type": "pubkey"
          }
        }
      ],
      "hex": "01000000010000000000000000000000000000000000000000000000000000000000000000ffffffff0804ffff001d028b00ffffffff0100f2052a01000000434104f4726fc2578bbf46d4d7ac0b9d978f8fd1ad01106c4395f49c635f88af5346cbd6120c6f44a73422f00c5e01141f2d678696758b33bb9cd76fc50cc410eec1b3ac00000000"
    }
  ]
}