{
  "hash": "00000000c534ed7b5a33633e2481928211755b6fc1aa34a3594b8050c85227cf",
  "confirmations": 47724,
  "height": 5374,
  "version": 1,
  "versionHex": "00000001",
  "merkleroot": "b8eb3feb9445ecf33b20a22b90b83010364bfc89efd75380d211a3b7f7e98321",
  "time": 1235419876,
  "mediantime": 1235416708,
  "nonce": 2901150486,
  "bits": "1d00ffff",
  "difficulty": 1,
  "chainwork": "000000000000000000000000000000000000000000000000000014ff14ff14ff",
  "nTx": 1,
  "previousblockhash": "00000000dbec8cc619aa4609606dfe91703072ac19131d91037e0d6279d44ae7",
  "nextblockhash": "00000000f4892fe38a0410bb3d10c5a2781c3c99c34980e0b2c822164525ddc1",
  "strippedsize": 216,
  "size": 216,
  "weight": 864,
  "tx": [
    {
      "txid": "b8eb3feb9445ecf33b20a22b90b83010364bfc89efd75380d211a3b7f7e98321",
      "hash": "b8eb3feb9445ecf33b20a22b90b83010364bfc89efd75380d211a3b7f7e98321",
      "version": 1,
      "size": 135,
      "vsize": 135,
      "weight": 540,
      "locktime": 0,
      "vin": [
        {
          "coinbase": "04ffff001d024803",
          "sequence": 4294967295
        }
      ],
      "vout": [
        {
          "value": 50.0,
          "n": 0,
          "scriptPubKey": {
            "asm": "0439bebf66507df41ffeb576417a14cfec5af7c0d518d260dcbc88162c4bcfee09e454717c2b0017613eb7c8d42cf7abe7d176a4b7731202e1bad4af1ec9f06fb8 OP_CHECKSIG",
            "desc": "pk(0439bebf66507df41ffeb576417a14cfec5af7c0d518d260dcbc88162c4bcfee09e454717c2b0017613eb7c8d42cf7abe7d176a4b7731202e1bad4af1ec9f06fb8)#tx0ufj4f",
            "hex": "410439bebf66507df41ffeb576417a14cfec5af7c0d518d260dcbc88162c4bcfee09e454717c2b0017613eb7c8d42cf7abe7d176a4b7731202e1bad4af1ec9f06fb8ac",
            "type": "pubkey"
          }
        }
      ],
      "hex": "01000000010000000000000000000000000000000000000000000000000000000000000000ffffffff0804ffff001d024803ffffffff0100f2052a0100000043410439bebf66507df41ffeb576417a14cfec5af7c0d518d260dcbc88162c4bcfee09e454717c2b0017613eb7c8d42cf7abe7d176a4b7731202e1bad4af1ec9f06fb8ac00000000"
    }
  ]
}