{
  "hash": "0000000019d382666db9959df7d76b1d3a68230dfe4ae9b6ab817260c02927a6",
  "confirmations": 52367,
  "height": 731,
  "version": 1,
  "versionHex": "00000001",
  "merkleroot": "18b5175c94e667eb128038f273ba08676452f5c484b5d79bb757b701225cafeb",
  "time": 1232134905,
  "mediantime": 1232132250,
  "nonce": 2709220140,
  "bits": "1d00ffff",
  "difficulty": 1,
  "chainwork": "000000000000000000000000000000000000000000000000000002dc02dc02dc",
  "nTx": 1,
  "previousblockhash": "00000000787381693ec698b7b6e84c8605f383cafb64071a03008938be6e52bd",
  "nextblockhash": "00000000ddd47166f0e4c39fb2db653955cdc9bef87530e8844153c13faabe07",
  "strippedsize": 215,
  "size": 215,
  "weight": 860,
  "tx": [
    {
      "txid": "18b5175c94e667eb128038f273ba08676452f5c484b5d79bb757b701225cafeb",
      "hash": "18b5175c94e667eb128038f273ba08676452f5c484b5d79bb757b701225cafeb",
      "version": 1,
      "size": 134,
      "vsize": 134,
      "weight": 536,
      "locktime": 0,
      "vin": [
        {
          "coinbase": "04ffff001d0141",
          "sequence": 4294967295
        }
      ],
      "vout": [
        {
          "value": 50.0,
          "n": 0,
          "scriptPubKey": {
            "asm": "040481880ae86255cdf0a9f66a8c252abd1ebb70083b5ba6195eeeb2609aadaf85f60ba3f882ac6e0d8a6973454553b6a311fa39d9fc5fd459988accd2103b89a4 OP_CHECKSIG",
            "desc": "pk(040481880ae86255cdf0a9f66a8c252abd1ebb70083b5ba6195eeeb2609aadaf85f60ba3f882ac6e0d8a6973454553b6a311fa39d9fc5fd459988accd2103b89a4)#dde4hx6w",
            "hex": "41040481880ae86255cdf0a9f66a8c252abd1ebb70083b5ba6195eeeb2609aadaf85f60ba3f882ac6e0d8a6973454553b6a311fa39d9fc5fd459988accd2103b89a4ac",
            "type": "pubkey"
          }
        }
      ],
      "hex": "01000000010000000000000000000000000000000000000000000000000000000000000000ffffffff0704ffff001d0141ffffffff0100f2052a010000004341040481880ae86255cdf0a9f66a8c252abd1ebb70083b5ba6195eeeb2609aadaf85f60ba3f882ac6e0d8a6973454553b6a311fa39d9fc5fd459988accd2103b89a4ac00000000"
    }
  ]
}