{
  "hash": "00000000521d8e21e6e082bb2b5bdd04a97ce535816dffc9635829c3f8d15256",
  "confirmations": 44886,
  "height": 8212,
  "version": 1,
  "versionHex": "00000001",
  "merkleroot": "f9bf171a297b35b2ed9b78b4900d4a2d305defaf88cc31b58a35caad2a76f319",
  "time": 1237624436,
  "mediantime": 1237609292,
  "nonce": 275701939,
  "bits": "1d00ffff",
  "difficulty": 1,
  "chainwork": "0000000000000000000000000000000000000000000000000000201520152015",
  "nTx": 1,
  "previousblockhash": "00000000d14ed5bff1d83c8fadccbdb206de78167a4c477330ca4da1e50ac6f2",
  "nextblockhash": "00000000209e6070638ae0e6b4e351e94ce998067af155718b18f05a59baae0c",
  "strippedsize": 216,
  "size": 216,
  "weight": 864,
  "tx": [
    {
      "txid": "f9bf171a297b35b2ed9b78b4900d4a2d305defaf88cc31b58a35caad2a76f319",
      "hash": "f9bf171a297b35b2ed9b78b4900d4a2d305defaf88cc31b58a35caad2a76f319",
      "version": 1,
      "size": 135,
      "vsize": 135,
      "weight": 540,
      "locktime": 0,
      "vin": [
        {
          "coinbase": "04ffff001d022602",
          "sequence": 4294967295
        }
      ],
      "vout": [
        {
          "value": 50.0,
          "n": 0,
          "scriptPubKey": {
            "asm": "04b916a0b29be71630447dde8806ed5d2c1821acbb3839237a64862067a4cbecd7870fc1393e7704e9107d3c9a9198a62f3fd022d8da7d4c59321d0dd6be19ba25 OP_CHECKSIG",
            "desc": "pk(04b916a0b29be71630447dde8806ed5d2c1821acbb3839237a64862067a4cbecd7870fc1393e7704e9107d3c9a9198a62f3fd022d8da7d4c59321d0dd6be19ba25)#s0qr0zxg",
            "hex": "4104b916a0b29be71630447dde8806ed5d2c1821acbb3839237a64862067a4cbecd7870fc1393e7704e9107d3c9a9198a62f3fd022d8da7d4c59321d0dd6be19ba25ac",
            "type": "pubkey"
          }
        }
      ],
      "hex": "01000000010000000000000000000000000000000000000000000000000000000000000000ffffffff0804ffff001d022602ffffffff0100f2052a01000000434104b916a0b29be71630447dde8806ed5d2c1821acbb3839237a64862067a4cbecd7870fc1393e7704e9107d3c9a9198a62f3fd022d8da7d4c59321d0dd6be19ba25ac00000000"
    }
  ]
}