{
  "hash": "0000000071e1202e62f5d573f368c359d9bd5bde89e336b78e169ad738fb776b",
  "confirmations": 47660,
  "height": 5438,
  "version": 1,
  "versionHex": "00000001",
  "merkleroot": "f8bbbc5f9ea00a41d829bf0ad0d8ae64d956bad45a2e8227811687a90fb3cc5c",
  "time": 1235471978,
  "mediantime": 1235467193,
  "nonce": 454674743,
  "bits": "1d00ffff",
  "difficulty": 1,
  "chainwork": "0000000000000000000000000000000000000000000000000000153f153f153f",
  "nTx": 1,
  "previousblockhash": "00000000e1b8efb1cf4cad378aebbe85af2b468cb3546b469b82864c99c15551",
  "nextblockhash": "0000000004b8ac72396dc937b7e1ba3153917fcb0139b6896150bc4885c556a9",
  "strippedsize": 216,
  "size": 216,
  "weight": 864,
  "tx": [
    {
      "txid": "f8bbbc5f9ea00a41d829bf0ad0d8ae64d956bad45a2e8227811687a90fb3cc5c",
      "hash": "f8bbbc5f9ea00a41d829bf0ad0d8ae64d956bad45a2e8227811687a90fb3cc5c",
      "version": 1,
      "size": 135,
      "vsize": 135,
      "weight": 540,
      "locktime": 0,
      "vin": [
        {
          "coinbase": "04ffff001d025604",
          "sequence": 4294967295
        }
      ],
      "vout": [
        {
          "value": 50.0,
          "n": 0,
          "scriptPubKey": {
            "asm": "04ef92e01864ccfa79f31b627ebc3385139b89f2b8e44058a10d4e974dcb73c52f98b1b248042cf8edecfe1c447996ff1afc61fc035e38f61a4bbddb788ad959e4 OP_CHECKSIG",
            "desc": "pk(04ef92e01864ccfa79f31b627ebc3385139b89f2b8e44058a10d4e974dcb73c52f98b1b248042cf8edecfe1c447996ff1afc61fc035e38f61a4bbddb788ad959e4)#awxh9tms",
            "hex": "4104ef92e01864ccfa79f31b627ebc3385139b89f2b8e44058a10d4e974dcb73c52f98b1b248042cf8edecfe1c447996ff1afc61fc035e38f61a4bbddb788ad959e4ac",
            "type": "pubkey"
          }
        }
      ],
      "hex": "01000000010000000000000000000000000000000000000000000000000000000000000000ffffffff0804ffff001d025604ffffffff0100f2052a01000000434104ef92e01864ccfa79f31b627ebc3385139b89f2b8e44058a10d4e974dcb73c52f98b1b248042cf8edecfe1c447996ff1afc61fc035e38f61a4bbddb788ad959e4ac00000000"
    }
  ]
}