{
  "hash": "00000000a23fd72f8e11e5cd0b5c174abcfd799d6f67a26d0ea3d8c3f068387f",
  "confirmations": 46529,
  "height": 6569,
  "version": 1,
  "versionHex": "00000001",
  "merkleroot": "f40f64f65c1a08da56c2726f1d2987a941c7859ce4dd57439d3431b4524c35a6",
  "time": 1236378722,
  "mediantime": 1236376267,
  "nonce": 3721842482,
  "bits": "1d00ffff",
  "difficulty": 1,
  "chainwork": "000000000000000000000000000000000000000000000000000019aa19aa19aa",
  "nTx": 1,
  "previousblockhash": "000000004c8219e98069b083c39ead295633a0644f47caf11bb8806712150723",
  "nextblockhash": "00000000249b3caba98d7757fa078188b21ee3c73272c1c90392cfe8e070e08b",
  "strippedsize": 216,
  "size": 216,
  "weight": 864,
  "tx": [
    {
      "txid": "f40f64f65c1a08da56c2726f1d2987a941c7859ce4dd57439d3431b4524c35a6",
      "hash": "f40f64f65c1a08da56c2726f1d2987a941c7859ce4dd57439d3431b4524c35a6",
      "version": 1,
      "size": 135,
      "vsize": 135,
      "weight": 540,
      "locktime": 0,
      "vin": [
        {
          "coinbase": "04ffff001d02a304",
          "sequence": 4294967295
        }
      ],
      "vout": [
        {
          "value": 50.0,
          "n": 0,
          "scriptPubKey": {
            "asm": "04f83cce50f4c5fcce6184467c93fd50710f398d1ddab9adfe7580783d8428bbe7c9de2ec310a61ee2765f660e1c589637cb394fa0c82be07dcbeb12ba7a993d34 OP_CHECKSIG",
            "desc": "pk(04f83cce50f4c5fcce6184467c93fd50710f398d1ddab9adfe7580783d8428bbe7c9de2ec310a61ee2765f660e1c589637cb394fa0c82be07dcbeb12ba7a993d34)#gumxrsk7",
            "hex": "4104f83cce50f4c5fcce6184467c93fd50710f398d1ddab9adfe7580783d8428bbe7c9de2ec310a61ee2765f660e1c589637cb394fa0c82be07dcbeb12ba7a993d34ac",
            "type": "pubkey"
          }
        }
      ],
      "hex": "01000000010000000000000000000000000000000000000000000000000000000000000000ffffffff0804ffff001d02a304ffffffff0100f2052a01000000434104f83cce50f4c5fcce6184467c93fd50710f398d1ddab9adfe7580783d8428bbe7c9de2ec310a61ee2765f660e1c589637cb394fa0c82be07dcbeb12ba7a993d34ac00000000"
    }
  ]
}