{
  "hash": "00000000db0de32a3c00674d9e61d317669f00292ca2b91ad8958d90ae0aa426",
  "confirmations": 43270,
  "height": 9828,
  "version": 1,
  "versionHex": "00000001",
  "merkleroot": "678fdcb668b21cb32c58fafd4193895e636386b62939c1d05525af998938e0aa",
  "time": 1238875687,
  "mediantime": 1238871471,
  "nonce": 1253293316,
  "bits": "1d00ffff",
  "difficulty": 1,
  "chainwork": "0000000000000000000000000000000000000000000000000000266526652665",
  "nTx": 1,
  "previousblockhash": "0000000003eb7f288ba713e86a91e40fc34825240b8e353d6083b8dcc4d353e5",
  "nextblockhash": "00000000d40f8fd5a583f3c209ada02ffe8a71cd177e7124d9f658f7a0b3e234",
  "strippedsize": 216,
  "size": 216,
  "weight": 864,
  "tx": [
    {
      "txid": "678fdcb668b21cb32c58fafd4193895e636386b62939c1d05525af998938e0aa",
      "hash": "678fdcb668b21cb32c58fafd4193895e636386b62939c1d05525af998938e0aa",
      "version": 1,
      "size": 135,
      "vsize": 135,
      "weight": 540,
      "locktime": 0,
      "vin": [
        {
          "coinbase": "04ffff001d02de00",
          "sequence": 4294967295
        }
      ],
      "vout": [
        {
          "value": 50.0,
          "n": 0,
          "scriptPubKey": {
            "asm": "0414181923b39c4010d5a4c72a947f8dab4472eed54f539ddb30201b5304b57feb3f2dcf4c935234a20db4e6d38fb9679fe9e37d76089dfdbc24c788960f7859d4 OP_CHECKSIG",
            "desc": "pk(0414181923b39c4010d5a4c72a947f8dab4472eed54f539ddb30201b5304b57feb3f2dcf4c935234a20db4e6d38fb9679fe9e37d76089dfdbc24c788960f7859d4)#vrqa6mse",
            "hex": "410414181923b39c4010d5a4c72a947f8dab4472eed54f539ddb30201b5304b57feb3f2dcf4c935234a20db4e6d38fb9679fe9e37d76089dfdbc24c788960f7859d4ac",
            "type": "pubkey"
          }
        }
      ],
      "hex": "01000000010000000000000000000000000000000000000000000000000000000000000000ffffffff0804ffff001d02de00ffffffff0100f2052a0100000043410414181923b39c4010d5a4c72a947f8dab4472eed54f539ddb30201b5304b57feb3f2dcf4c935234a20db4e6d38fb9679fe9e37d76089dfdbc24c788960f7859d4ac00000000"
    }
  ]
}