{
  "hash": "00000000d2c813c67875fb331f4b4c1cf3cd7e96a53e6dd1f3808d8502535a84",
  "confirmations": 52015,
  "height": 219,
  "version": 1,
  "versionHex": "00000001",
  "merkleroot": "909d55b144aab663ccbcdbc1440c05e00bc94447b7fbc44a1c148e8ecdaeaf82",
  "time": 1231767990,
  "mediantime": 1231762662,
  "nonce": 1924265266,
  "bits": "1d00ffff",
  "difficulty": 1,
  "chainwork": "000000000000000000000000000000000000000000000000000000dc00dc00dc",
  "nTx": 1,
  "previousblockhash": "000000002f7550e9eb1985a17e3bba31c302f1743d1cf45060445255021d0c6b",
  "nextblockhash": "00000000b66ac539d2cdfebdd4720cb08603b48edec56cc07273c40b082b1d58",
  "strippedsize": 216,
  "size": 216,
  "weight": 864,
  "tx": [
    {
      "txid": "909d55b144aab663ccbcdbc1440c05e00bc94447b7fbc44a1c148e8ecdaeaf82",
      "hash": "909d55b144aab663ccbcdbc1440c05e00bc94447b7fbc44a1c148e8ecdaeaf82",
      "version": 1,
      "size": 135,
      "vsize": 135,
      "weight": 540,
      "locktime": 0,
      "vin": [
        {
          "coinbase": "04ffff001d029600",
          "sequence": 4294967295
        }
      ],
      "vout": [
        {
          "value": 50.0,
          "n": 0,
          "scriptPubKey": {
            "asm": "049c594ec23afb75a6cfbf7a67c1799582e25ab98b542cc3961fe1b37bfbf3e2e29527c500eb7e9fb5ac358a4f53abadb3bf24a3436b20bebb98151fadb99bb938 OP_CHECKSIG",
            "desc": "pk(049c594ec23afb75a6cfbf7a67c1799582e25ab98b542cc3961fe1b37bfbf3e2e29527c500eb7e9fb5ac358a4f53abadb3bf24a3436b20bebb98151fadb99bb938)#xnmmzkvt",
            "hex": "41049c594ec23afb75a6cfbf7a67c1799582e25ab98b542cc3961fe1b37bfbf3e2e29527c500eb7e9fb5ac358a4f53abadb3bf24a3436b20bebb98151fadb99bb938ac",
            "type": "pubkey"
          }
        }
      ],
      "hex": "01000000010000000000000000000000000000000000000000000000000000000000000000ffffffff0804ffff001d029600ffffffff0100f2052a010000004341049c594ec23afb75a6cfbf7a67c1799582e25ab98b542cc3961fe1b37bfbf3e2e29527c500eb7e9fb5ac358a4f53abadb3bf24a3436b20bebb98151fadb99bb938ac00000000"
    }
  ]
}