{
  "hash": "00000000ecdc8ef06b4a6853f44de8440b02a9c603dd47b14b0b935a95a65ae7",
  "confirmations": 43719,
  "height": 9379,
  "version": 1,
  "versionHex": "00000001",
  "merkleroot": "5563cb7bcbbff41b6d6dfcfa30d86d824996684b436a5b63a24d158188aeb09b",
  "time": 1238533671,
  "mediantime": 1238528587,
  "nonce": 494032153,
  "bits": "1d00ffff",
  "difficulty": 1,
  "chainwork": "000000000000000000000000000000000000000000000000000024a424a424a4",
  "nTx": 1,
  "previousblockhash": "00000000654566cf2ba8b224326128b1f7d7489a4f53f581133ee5df476b0b69",
  "nextblockhash": "000000009499163e3f98481f41f05f892730c456e2cdfede6dee87ade42ba68b",
  "strippedsize": 216,
  "size": 216,
  "weight": 864,
  "tx": [
    {
      "txid": "5563cb7bcbbff41b6d6dfcfa30d86d824996684b436a5b63a24d158188aeb09b",
      "hash": "5563cb7bcbbff41b6d6dfcfa30d86d824996684b436a5b63a24d158188aeb09b",
      "version": 1,
      "size": 135,
      "vsize": 135,
      "weight": 540,
      "locktime": 0,
      "vin": [
        {
          "coinbase": "04ffff001d023d03",
          "sequence": 4294967295
        }
      ],
      "vout": [
        {
          "value": 50.0,
          "n": 0,
          "scriptPubKey": {
            "asm": "0490019dc70a5b2e5db9eb767179472cc5ba935404dae1b6e2b4293d9e45d50357204be572c9230aa745da368efb5b0aefe1163fe9b0eaef7a098113a73307e823 OP_CHECKSIG",
            "desc": "pk(0490019dc70a5b2e5db9eb767179472cc5ba935404dae1b6e2b4293d9e45d50357204be572c9230aa745da368efb5b0aefe1163fe9b0eaef7a098113a73307e823)#fr7hqwh7",
            "hex": "410490019dc70a5b2e5db9eb767179472cc5ba935404dae1b6e2b4293d9e45d50357204be572c9230aa745da368efb5b0aefe1163fe9b0eaef7a098113a73307e823ac",
            "type": "pubkey"
          }
        }
      ],
      "hex": "01000000010000000000000000000000000000000000000000000000000000000000000000ffffffff0804ffff001d023d03ffffffff0100f2052a0100000043410490019dc70a5b2e5db9eb767179472cc5ba935404dae1b6e2b4293d9e45d50357204be572c9230aa745da368efb5b0aefe1163fe9b0eaef7a098113a73307e823ac00000000"
    }
  ]
}