{
  "hash": "00000000662ed3796d99b20390e3ab727e98b5cd80fb1a0de5a0bf7aee21fce1",
  "confirmations": 47632,
  "height": 5466,
  "version": 1,
  "versionHex": "00000001",
  "merkleroot": "337fbd3a365752bd717dc99cea554d10c604f21c943165511f9b9b648aabd964",
  "time": 1235495251,
  "mediantime": 1235492527,
  "nonce": 2124062241,
  "bits": "1d00ffff",
  "difficulty": 1,
  "chainwork": "0000000000000000000000000000000000000000000000000000155b155b155b",
  "nTx": 1,
  "previousblockhash": "00000000560ceccc52574155994fbafcc8373b21ea7c85206e0aa4929c4a8eb4",
  "nextblockhash": "000000005c95d7229440d56d6717f7f242b1907ce683fa4b384f1248fe4dc55f",
  "strippedsize": 216,
  "size": 216,
  "weight": 864,
  "tx": [
    {
      "txid": "337fbd3a365752bd717dc99cea554d10c604f21c943165511f9b9b648aabd964",
      "hash": "337fbd3a365752bd717dc99cea554d10c604f21c943165511f9b9b648aabd964",
      "version": 1,
      "size": 135,
      "vsize": 135,
      "weight": 540,
      "locktime": 0,
      "vin": [
        {
          "coinbase": "04ffff001d020305",
          "sequence": 4294967295
        }
      ],
      "vout": [
        {
          "value": 50.0,
          "n": 0,
          "scriptPubKey": {
            "asm": "0428550640d4af7ae2551690a02a744d96f898cb91e3b511413f2b9a3cc86beb9d117d463706f18370bae4438e4002b74086e288d2043410774d5d6fcecce78484 OP_CHECKSIG",
            "desc": "pk(0428550640d4af7ae2551690a02a744d96f898cb91e3b511413f2b9a3cc86beb9d117d463706f18370bae4438e4002b74086e288d2043410774d5d6fcecce78484)#xd537sc6",
            "hex": "410428550640d4af7ae2551690a02a744d96f898cb91e3b511413f2b9a3cc86beb9d117d463706f18370bae4438e4002b74086e288d2043410774d5d6fcecce78484ac",
            "type": "pubkey"
          }
        }
      ],
      "hex": "01000000010000000000000000000000000000000000000000000000000000000000000000ffffffff0804ffff001d020305ffffffff0100f2052a0100000043410428550640d4af7ae2551690a02a744d96f898cb91e3b511413f2b9a3cc86beb9d117d463706f18370bae4438e4002b74086e288d2043410774d5d6fcecce78484ac00000000"
    }
  ]
}