{
  "hash": "00000000aba1f720821fac035481e72eb918c138372260627a3a976aeff59226",
  "confirmations": 44598,
  "height": 8500,
  "version": 1,
  "versionHex": "00000001",
  "merkleroot": "925897e8359ba9a2451450e00887c40dcc18771387bab92aadc24a94e5487b5f",
  "time": 1237872782,
  "mediantime": 1237867816,
  "nonce": 3480655912,
  "bits": "1d00ffff",
  "difficulty": 1,
  "chainwork": "0000000000000000000000000000000000000000000000000000213521352135",
  "nTx": 1,
  "previousblockhash": "00000000da2e3ba930cf4e8ed7a2a4f26595083ddc4e1fa56320bdc69a1b1ae2",
  "nextblockhash": "00000000e6608bf9e2f018f1534a0e9ba82ba0c40eefebc144312fcd8e3e0abd",
  "strippedsize": 216,
  "size": 216,
  "weight": 864,
  "tx": [
    {
      "txid": "925897e8359ba9a2451450e00887c40dcc18771387bab92aadc24a94e5487b5f",
      "hash": "925897e8359ba9a2451450e00887c40dcc18771387bab92aadc24a94e5487b5f",
      "version": 1,
      "size": 135,
      "vsize": 135,
      "weight": 540,
      "locktime": 0,
      "vin": [
        {
          "coinbase": "04ffff001d02c907",
          "sequence": 4294967295
        }
      ],
      "vout": [
        {
          "value": 50.0,
          "n": 0,
          "scriptPubKey": {
            "asm": "04f7081181a004aa5ffa5a0e29fe10bbf4c7bb23efd99aa14fe7149049b1cab9855dd2cc89dbecfce4a5b8d20bb0eda486f610aa2bf6dee75bb8793b3fb8058148 OP_CHECKSIG",
            "desc": "pk(04f7081181a004aa5ffa5a0e29fe10bbf4c7bb23efd99aa14fe7149049b1cab9855dd2cc89dbecfce4a5b8d20bb0eda486f610aa2bf6dee75bb8793b3fb8058148)#gwjevt70",
            "hex": "4104f7081181a004aa5ffa5a0e29fe10bbf4c7bb23efd99aa14fe7149049b1cab9855dd2cc89dbecfce4a5b8d20bb0eda486f610aa2bf6dee75bb8793b3fb8058148ac",
            "type": "pubkey"
          }
        }
      ],
      "hex": "01000000010000000000000000000000000000000000000000000000000000000000000000ffffffff0804ffff001d02c907ffffffff0100f2052a01000000434104f7081181a004aa5ffa5a0e29fe10bbf4c7bb23efd99aa14fe7149049b1cab9855dd2cc89dbecfce4a5b8d20bb0eda486f610aa2bf6dee75bb8793b3fb8058148ac00000000"
    }
  ]
}