{
  "hash": "000000006468ac6f353b6619057b3be1e44029731272ea2cf3e6bb7427f226ce",
  "confirmations": 46748,
  "height": 6350,
  "version": 1,
  "versionHex": "00000001",
  "merkleroot": "7a2deee71ba8a1b0cc3a055d7907eb7d3c0311a6accb37bb22359e7e00d4c421",
  "time": 1236217608,
  "mediantime": 1236211015,
  "nonce": 641810744,
  "bits": "1d00ffff",
  "difficulty": 1,
  "chainwork": "000000000000000000000000000000000000000000000000000018cf18cf18cf",
  "nTx": 1,
  "previousblockhash": "000000007c6befb84efe7266c7cd2573f1452573f7d397578b7b67198bb0cbbc",
  "nextblockhash": "00000000a8bdd379ebecfbd4b8a14d03ba76db5addf4274eaa427a84932883bd",
  "strippedsize": 216,
  "size": 216,
  "weight": 864,
  "tx": [
    {
      "txid": "7a2deee71ba8a1b0cc3a055d7907eb7d3c0311a6accb37bb22359e7e00d4c421",
      "hash": "7a2deee71ba8a1b0cc3a055d7907eb7d3c0311a6accb37bb22359e7e00d4c421",
      "version": 1,
      "size": 135,
      "vsize": 135,
      "weight": 540,
      "locktime": 0,
      "vin": [
        {
          "coinbase": "04ffff001d02e100",
          "sequence": 4294967295
        }
      ],
      "vout": [
        {
          "value": 50.0,
          "n": 0,
          "scriptPubKey": {
            "asm": "04d18039ff140c69745f2892c3b6509384690d7ed1212b67632c9b22ad126aa95f150c04d7d1bd37bbff2c5be9439afa62be6edd8ba7ac9103bd9dc51d0df29800 OP_CHECKSIG",
            "desc": "pk(04d18039ff140c69745f2892c3b6509384690d7ed1212b67632c9b22ad126aa95f150c04d7d1bd37bbff2c5be9439afa62be6edd8ba7ac9103bd9dc51d0df29800)#r3lj00sg",
            "hex": "4104d18039ff140c69745f2892c3b6509384690d7ed1212b67632c9b22ad126aa95f150c04d7d1bd37bbff2c5be9439afa62be6edd8ba7ac9103bd9dc51d0df29800ac",
            "type": "pubkey"
          }
        }
      ],
      "hex": "01000000010000000000000000000000000000000000000000000000000000000000000000ffffffff0804ffff001d02e100ffffffff0100f2052a01000000434104d18039ff140c69745f2892c3b6509384690d7ed1212b67632c9b22ad126aa95f150c04d7d1bd37bbff2c5be9439afa62be6edd8ba7ac9103bd9dc51d0df29800ac00000000"
    }
  ]
}