{
  "hash": "00000000db29ac0d2a702411bd9ed3972ed81fedc25a9a84635b09949f077ca9",
  "confirmations": 52039,
  "height": 298,
  "version": 1,
  "versionHex": "00000001",
  "merkleroot": "4c90008a759d98f976225da08edf81e8b80f4dbf399e74d6d7574587b90129ce",
  "time": 1231830791,
  "mediantime": 1231827489,
  "nonce": 2788586270,
  "bits": "1d00ffff",
  "difficulty": 1,
  "chainwork": "0000000000000000000000000000000000000000000000000000012b012b012b",
  "nTx": 1,
  "previousblockhash": "00000000d80530efa37319e4b4508b0759fdab8ea8a81272cbe8986881489507",
  "nextblockhash": "00000000b9b003c04b2fe21b4f7a2fa809eb643852573c3a1748653e2019f01c",
  "strippedsize": 215,
  "size": 215,
  "weight": 860,
  "tx": [
    {
      "txid": "4c90008a759d98f976225da08edf81e8b80f4dbf399e74d6d7574587b90129ce",
      "hash": "4c90008a759d98f976225da08edf81e8b80f4dbf399e74d6d7574587b90129ce",
      "version": 1,
      "size": 134,
      "vsize": 134,
      "weight": 536,
      "locktime": 0,
      "vin": [
        {
          "coinbase": "04ffff001d0160",
          "sequence": 4294967295
        }
      ],
      "vout": [
        {
          "value": 50.0,
          "n": 0,
          "scriptPubKey": {
            "asm": "04ce950edadb77b12530d1fd439b4c006f0e2b42ec7a0197ecd014c668a3f6e786517ace8b0a247da15928a8069c6a8f1536c3abe728886b9e9ccbfa4ff83fc602 OP_CHECKSIG",
            "desc": "pk(04ce950edadb77b12530d1fd439b4c006f0e2b42ec7a0197ecd014c668a3f6e786517ace8b0a247da15928a8069c6a8f1536c3abe728886b9e9ccbfa4ff83fc602)#9tmj5aw4",
            "hex": "4104ce950edadb77b12530d1fd439b4c006f0e2b42ec7a0197ecd014c668a3f6e786517ace8b0a247da15928a8069c6a8f1536c3abe728886b9e9ccbfa4ff83fc602ac",
            "type": "pubkey"
          }
        }
      ],
      "hex": "01000000010000000000000000000000000000000000000000000000000000000000000000ffffffff0704ffff001d0160ffffffff0100f2052a01000000434104ce950edadb77b12530d1fd439b4c006f0e2b42ec7a0197ecd014c668a3f6e786517ace8b0a247da15928a8069c6a8f1536c3abe728886b9e9ccbfa4ff83fc602ac00000000"
    }
  ]
}