{
  "hash": "000000005fa8f8af01b5520c9eaa71a1d32f4d7c49c9b706a84d714675634ee7",
  "confirmations": 51782,
  "height": 1316,
  "version": 1,
  "versionHex": "00000001",
  "merkleroot": "0acc6e1d3a580e5c18ed4df9acbf44a82224d679778a0badb2821095100b16eb",
  "time": 1232609442,
  "mediantime": 1232604290,
  "nonce": 193452777,
  "bits": "1d00ffff",
  "difficulty": 1,
  "chainwork": "0000000000000000000000000000000000000000000000000000052505250525",
  "nTx": 1,
  "previousblockhash": "000000004a7b4643e2233a4494c8b08c099ea0c47e058f226ceead8c74402f6e",
  "nextblockhash": "000000005385e40682f749dd1e1945a68074df786677d12a4a5556afb8fa974c",
  "strippedsize": 216,
  "size": 216,
  "weight": 864,
  "tx": [
    {
      "txid": "0acc6e1d3a580e5c18ed4df9acbf44a82224d679778a0badb2821095100b16eb",
      "hash": "0acc6e1d3a580e5c18ed4df9acbf44a82224d679778a0badb2821095100b16eb",
      "version": 1,
      "size": 135,
      "vsize": 135,
      "weight": 540,
      "locktime": 0,
      "vin": [
        {
          "coinbase": "04ffff001d029d02",
          "sequence": 4294967295
        }
      ],
      "vout": [
        {
          "value": 50.0,
          "n": 0,
          "scriptPubKey": {
            "asm": "04e90b54f48c733d31862b048d324fccd0b127702d5e8bd743cdf637605fbe01564d5345faee1f05a25028fc76715bd0bca966200fffa35d4990ffdf239521de0b OP_CHECKSIG",
            "desc": "pk(04e90b54f48c733d31862b048d324fccd0b127702d5e8bd743cdf637605fbe01564d5345faee1f05a25028fc76715bd0bca966200fffa35d4990ffdf239521de0b)#w00l6s6l",
            "hex": "4104e90b54f48c733d31862b048d324fccd0b127702d5e8bd743cdf637605fbe01564d5345faee1f05a25028fc76715bd0bca966200fffa35d4990ffdf239521de0bac",
            "type": "pubkey"
          }
        }
      ],
      "hex": "01000000010000000000000000000000000000000000000000000000000000000000000000ffffffff0804ffff001d029d02ffffffff0100f2052a01000000434104e90b54f48c733d31862b048d324fccd0b127702d5e8bd743cdf637605fbe01564d5345faee1f05a25028fc76715bd0bca966200fffa35d4990ffdf239521de0bac00000000"
    }
  ]
}