{
  "hash": "000000008ff7dcd02bd4a92a9047ddb42e2d4c0807d972803729316e20c9ccec",
  "confirmations": 50054,
  "height": 3044,
  "version": 1,
  "versionHex": "00000001",
  "merkleroot": "66d08e21b4e1d225df96401015b5772aebb4a67c09479ee23e93edc4e5f5c5a9",
  "time": 1233792927,
  "mediantime": 1233789413,
  "nonce": 53065933,
  "bits": "1d00ffff",
  "difficulty": 1,
  "chainwork": "00000000000000000000000000000000000000000000000000000be50be50be5",
  "nTx": 1,
  "previousblockhash": "00000000dca66cfc107a2c59b9f5d9b3708450cf1e2789bedfd92e19cbb2e8b5",
  "nextblockhash": "00000000b737d259bd94e4eb445296436f3c8681edd6365aa20fba896b13da0b",
  "strippedsize": 216,
  "size": 216,
  "weight": 864,
  "tx": [
    {
      "txid": "66d08e21b4e1d225df96401015b5772aebb4a67c09479ee23e93edc4e5f5c5a9",
      "hash": "66d08e21b4e1d225df96401015b5772aebb4a67c09479ee23e93edc4e5f5c5a9",
      "version": 1,
      "size": 135,
      "vsize": 135,
      "weight": 540,
      "locktime": 0,
      "vin": [
        {
          "coinbase": "04ffff001d027a01",
          "sequence": 4294967295
        }
      ],
      "vout": [
        {
          "value": 50.0,
          "n": 0,
          "scriptPubKey": {
            "asm": "042657a871d46fe6b7187c306706ebe7f57ab0556c49ab41c967a19d3abca63595438093957896f3e2493e0aaf3c285097b7a8e2f2a10786e1bb6eb3ad5d673d70 OP_CHECKSIG",
            "desc": "pk(042657a871d46fe6b7187c306706ebe7f57ab0556c49ab41c967a19d3abca63595438093957896f3e2493e0aaf3c285097b7a8e2f2a10786e1bb6eb3ad5d673d70)#l4s2esed",
            "hex": "41042657a871d46fe6b7187c306706ebe7f57ab0556c49ab41c967a19d3abca63595438093957896f3e2493e0aaf3c285097b7a8e2f2a10786e1bb6eb3ad5d673d70ac",
            "type": "pubkey"
          }
        }
      ],
      "hex": "01000000010000000000000000000000000000000000000000000000000000000000000000ffffffff0804ffff001d027a01ffffffff0100f2052a010000004341042657a871d46fe6b7187c306706ebe7f57ab0556c49ab41c967a19d3abca63595438093957896f3e2493e0aaf3c285097b7a8e2f2a10786e1bb6eb3ad5d673d70ac00000000"
    }
  ]
}