{
  "hash": "00000000a0d6037de3246522df44099aeb5d9bdc34906ac1a7654f1485c88425",
  "confirmations": 43371,
  "height": 9727,
  "version": 1,
  "versionHex": "00000001",
  "merkleroot": "e1c3e3c8fa2e134b140dc9870bf2852b7e1504e2f873ee74abc6291c304516c7",
  "time": 1238798368,
  "mediantime": 1238795260,
  "nonce": 13570263,
  "bits": "1d00ffff",
  "difficulty": 1,
  "chainwork": "0000000000000000000000000000000000000000000000000000260026002600",
  "nTx": 1,
  "previousblockhash": "0000000089a541c099f81f3cb7d6328e737f68f52b9d58593897709f11c90db2",
  "nextblockhash": "00000000852cdd8fbc5098c192225567123d44b737f4581c3b1b395e60ff78a7",
  "strippedsize": 215,
  "size": 215,
  "weight": 860,
  "tx": [
    {
      "txid": "e1c3e3c8fa2e134b140dc9870bf2852b7e1504e2f873ee74abc6291c304516c7",
      "hash": "e1c3e3c8fa2e134b140dc9870bf2852b7e1504e2f873ee74abc6291c304516c7",
      "version": 1,
      "size": 134,
      "vsize": 134,
      "weight": 536,
      "locktime": 0,
      "vin": [
        {
          "coinbase": "04ffff001d0171",
          "sequence": 4294967295
        }
      ],
      "vout": [
        {
          "value": 50.0,
          "n": 0,
          "scriptPubKey": {
            "asm": "04aa3bc0778b2e38903e7663a6500eed6133783cc73ea940e93ca82cd02e9fed406fc9f0d0b90e3e12a9135441a1c0058efc3052e54e0a9df622b3eab33263f334 OP_CHECKSIG",
            "desc": "pk(04aa3bc0778b2e38903e7663a6500eed6133783cc73ea940e93ca82cd02e9fed406fc9f0d0b90e3e12a9135441a1c0058efc3052e54e0a9df622b3eab33263f334)#zphs2eg7",
            "hex": "4104aa3bc0778b2e38903e7663a6500eed6133783cc73ea940e93ca82cd02e9fed406fc9f0d0b90e3e12a9135441a1c0058efc3052e54e0a9df622b3eab33263f334ac",
            "type": "pubkey"
          }
        }
      ],
      "hex": "01000000010000000000000000000000000000000000000000000000000000000000000000ffffffff0704ffff001d0171ffffffff0100f2052a01000000434104aa3bc0778b2e38903e7663a6500eed6133783cc73ea940e93ca82cd02e9fed406fc9f0d0b90e3e12a9135441a1c0058efc3052e54e0a9df622b3eab33263f334ac00000000"
    }
  ]
}