{
  "hash": "00000000e8f1013427bd6f39cef783291463c350b72e8ede8eb7c256407419f7",
  "confirmations": 47195,
  "height": 5903,
  "version": 1,
  "versionHex": "00000001",
  "merkleroot": "aeaa6f7c03c3db3e25a05b996913d959b16a618f5f1e2d31d30650bda2d34843",
  "time": 1235847397,
  "mediantime": 1235842666,
  "nonce": 301043756,
  "bits": "1d00ffff",
  "difficulty": 1,
  "chainwork": "0000000000000000000000000000000000000000000000000000171017101710",
  "nTx": 1,
  "previousblockhash": "0000000018f13df791e8023b7a51fe22d06a7b9be18723e52431d4795231c816",
  "nextblockhash": "00000000a7c7e84b9651b6d6505a14a0a474effb105b5dfa44515909a12fb274",
  "strippedsize": 216,
  "size": 216,
  "weight": 864,
  "tx": [
    {
      "txid": "aeaa6f7c03c3db3e25a05b996913d959b16a618f5f1e2d31d30650bda2d34843",
      "hash": "aeaa6f7c03c3db3e25a05b996913d959b16a618f5f1e2d31d30650bda2d34843",
      "version": 1,
      "size": 135,
      "vsize": 135,
      "weight": 540,
      "locktime": 0,
      "vin": [
        {
          "coinbase": "04ffff001d020d03",
          "sequence": 4294967295
        }
      ],
      "vout": [
        {
          "value": 50.0,
          "n": 0,
          "scriptPubKey": {
            "asm": "04beb9e625be65c5f84c3d401efe8d4a6496011ef9eb88fb60a524e56544e0903f7510a10071e03aee6fd2e472ddc2a8b0606b9ddbf7d48de0e8a646324c6ffd07 OP_CHECKSIG",
            "desc": "pk(04beb9e625be65c5f84c3d401efe8d4a6496011ef9eb88fb60a524e56544e0903f7510a10071e03aee6fd2e472ddc2a8b0606b9ddbf7d48de0e8a646324c6ffd07)#sdmzhznu",
            "hex": "4104beb9e625be65c5f84c3d401efe8d4a6496011ef9eb88fb60a524e56544e0903f7510a10071e03aee6fd2e472ddc2a8b0606b9ddbf7d48de0e8a646324c6ffd07ac",
            "type": "pubkey"
          }
        }
      ],
      "hex": "01000000010000000000000000000000000000000000000000000000000000000000000000ffffffff0804ffff001d020d03ffffffff0100f2052a01000000434104beb9e625be65c5f84c3d401efe8d4a6496011ef9eb88fb60a524e56544e0903f7510a10071e03aee6fd2e472ddc2a8b0606b9ddbf7d48de0e8a646324c6ffd07ac00000000"
    }
  ]
}