{
  "hash": "000000009feebe5cf4b3f28644cfcac8afc24e73548e0a9c54fd99d490f27315",
  "confirmations": 47413,
  "height": 5685,
  "version": 1,
  "versionHex": "00000001",
  "merkleroot": "7c75cc91e8a7fdd03a43e6b6ee10f0340d46c0fe5c7f879f16e67f78b05dcfc9",
  "time": 1235676304,
  "mediantime": 1235674168,
  "nonce": 2311019,
  "bits": "1d00ffff",
  "difficulty": 1,
  "chainwork": "0000000000000000000000000000000000000000000000000000163616361636",
  "nTx": 1,
  "previousblockhash": "000000004d18f3fee1ce2d7b407748e2f14e330b4c7b1767763743676e1c9cf4",
  "nextblockhash": "0000000003104a3dc59b8ce521a427b6cfdf67c6e183d36d1e5e74df7f83bbb0",
  "strippedsize": 216,
  "size": 216,
  "weight": 864,
  "tx": [
    {
      "txid": "7c75cc91e8a7fdd03a43e6b6ee10f0340d46c0fe5c7f879f16e67f78b05dcfc9",
      "hash": "7c75cc91e8a7fdd03a43e6b6ee10f0340d46c0fe5c7f879f16e67f78b05dcfc9",
      "version": 1,
      "size": 135,
      "vsize": 135,
      "weight": 540,
      "locktime": 0,
      "vin": [
        {
          "coinbase": "04ffff001d02bc00",
          "sequence": 4294967295
        }
      ],
      "vout": [
        {
          "value": 50.0,
          "n": 0,
          "scriptPubKey": {
            "asm": "046c7bca92cf1393c98ed721f965deff9d6ac92bf6503ec7106078e06e2a71bf0f33212decbfd4ab9f17d51fb99d31288638c50decc8ee44f1bbeeca6f6808e4b4 OP_CHECKSIG",
            "desc": "pk(046c7bca92cf1393c98ed721f965deff9d6ac92bf6503ec7106078e06e2a71bf0f33212decbfd4ab9f17d51fb99d31288638c50decc8ee44f1bbeeca6f6808e4b4)#hnyyj05t",
            "hex": "41046c7bca92cf1393c98ed721f965deff9d6ac92bf6503ec7106078e06e2a71bf0f33212decbfd4ab9f17d51fb99d31288638c50decc8ee44f1bbeeca6f6808e4b4ac",
            "type": "pubkey"
          }
        }
      ],
      "hex": "01000000010000000000000000000000000000000000000000000000000000000000000000ffffffff0804ffff001d02bc00ffffffff0100f2052a010000004341046c7bca92cf1393c98ed721f965deff9d6ac92bf6503ec7106078e06e2a71bf0f33212decbfd4ab9f17d51fb99d31288638c50decc8ee44f1bbeeca6f6808e4b4ac00000000"
    }
  ]
}