{
  "hash": "00000000e62c067cfa3571b2cd4ee383567acc81778cc53254b65ddd9af389db",
  "confirmations": 45849,
  "height": 7249,
  "version": 1,
  "versionHex": "00000001",
  "merkleroot": "f7012f7a191fccdb01edcaf0919a6508f81911f3a4eb40018f7c184b37a91c74",
  "time": 1236906214,
  "mediantime": 1236900569,
  "nonce": 1522807317,
  "bits": "1d00ffff",
  "difficulty": 1,
  "chainwork": "00000000000000000000000000000000000000000000000000001c521c521c52",
  "nTx": 1,
  "previousblockhash": "0000000096f13b2ee9bbe260592ba8dd75a279d8e593f30e094bd22b4bc6ca9b",
  "nextblockhash": "000000000702c9148edf6d12eed46b9171ae8da4820399465efc021166179ed3",
  "strippedsize": 216,
  "size": 216,
  "weight": 864,
  "tx": [
    {
      "txid": "f7012f7a191fccdb01edcaf0919a6508f81911f3a4eb40018f7c184b37a91c74",
      "hash": "f7012f7a191fccdb01edcaf0919a6508f81911f3a4eb40018f7c184b37a91c74",
      "version": 1,
      "size": 135,
      "vsize": 135,
      "weight": 540,
      "locktime": 0,
      "vin": [
        {
          "coinbase": "04ffff001d026f06",
          "sequence": 4294967295
        }
      ],
      "vout": [
        {
          "value": 50.0,
          "n": 0,
          "scriptPubKey": {
            "asm": "044aa905c739f6d766e027315abf564550fa12730793b6914f10be036f355aa4dafbaa197f3c10372e9625d68d2dd8a74cf91377e833ae3bf26dfcb644f5877cf1 OP_CHECKSIG",
            "desc": "pk(044aa905c739f6d766e027315abf564550fa12730793b6914f10be036f355aa4dafbaa197f3c10372e9625d68d2dd8a74cf91377e833ae3bf26dfcb644f5877cf1)#npy7wfjg",
            "hex": "41044aa905c739f6d766e027315abf564550fa12730793b6914f10be036f355aa4dafbaa197f3c10372e9625d68d2dd8a74cf91377e833ae3bf26dfcb644f5877cf1ac",
            "type": "pubkey"
          }
        }
      ],
      "hex": "01000000010000000000000000000000000000000000000000000000000000000000000000ffffffff0804ffff001d026f06ffffffff0100f2052a010000004341044aa905c739f6d766e027315abf564550fa12730793b6914f10be036f355aa4dafbaa197f3c10372e9625d68d2dd8a74cf91377e833ae3bf26dfcb644f5877cf1ac00000000"
    }
  ]
}