{
  "hash": "00000000a0a3ceb93d4e40056addafae7fe7682ab61f78ba65b2c9a76fe02b78",
  "confirmations": 50016,
  "height": 3082,
  "version": 1,
  "versionHex": "00000001",
  "merkleroot": "db06e3954224136cf4871c04c0c962a91f6e06b18cda3515c5f0d182f3281682",
  "time": 1233819556,
  "mediantime": 1233816522,
  "nonce": 1818116408,
  "bits": "1d00ffff",
  "difficulty": 1,
  "chainwork": "00000000000000000000000000000000000000000000000000000c0b0c0b0c0b",
  "nTx": 1,
  "previousblockhash": "00000000ada888a1cd4f3742d5801405939193c5cbe34d4b8c39a99e2039a466",
  "nextblockhash": "00000000874d2d7346e90547a739390e5be3e7cfd367d0ee5f4ab515f89428d3",
  "strippedsize": 216,
  "size": 216,
  "weight": 864,
  "tx": [
    {
      "txid": "db06e3954224136cf4871c04c0c962a91f6e06b18cda3515c5f0d182f3281682",
      "hash": "db06e3954224136cf4871c04c0c962a91f6e06b18cda3515c5f0d182f3281682",
      "version": 1,
      "size": 135,
      "vsize": 135,
      "weight": 540,
      "locktime": 0,
      "vin": [
        {
          "coinbase": "04ffff001d02ed00",
          "sequence": 4294967295
        }
      ],
      "vout": [
        {
          "value": 50.0,
          "n": 0,
          "scriptPubKey": {
            "asm": "047ec7d2b87aaf6e9df871b232f6bcff4543863dff5c4f7f514f069e03e7e5088288885957c8f7189314466c486eb1efa14ac7600792c4f7a1b33bdbb04be376d1 OP_CHECKSIG",
            "desc": "pk(047ec7d2b87aaf6e9df871b232f6bcff4543863dff5c4f7f514f069e03e7e5088288885957c8f7189314466c486eb1efa14ac7600792c4f7a1b33bdbb04be376d1)#js0ck7dj",
            "hex": "41047ec7d2b87aaf6e9df871b232f6bcff4543863dff5c4f7f514f069e03e7e5088288885957c8f7189314466c486eb1efa14ac7600792c4f7a1b33bdbb04be376d1ac",
            "type": "pubkey"
          }
        }
      ],
      "hex": "01000000010000000000000000000000000000000000000000000000000000000000000000ffffffff0804ffff001d02ed00ffffffff0100f2052a010000004341047ec7d2b87aaf6e9df871b232f6bcff4543863dff5c4f7f514f069e03e7e5088288885957c8f7189314466c486eb1efa14ac7600792c4f7a1b33bdbb04be376d1ac00000000"
    }
  ]
}