{
  "hash": "000000002b9d4e32bbf849b26a60ec2e943ae709075846db03bc285f7ce0ad53",
  "confirmations": 45013,
  "height": 8085,
  "version": 1,
  "versionHex": "00000001",
  "merkleroot": "f3294eb6897517e7ec265f972cefb9752d1a0821f1cdf09bb41b522f38fb1713",
  "time": 1237520548,
  "mediantime": 1237517048,
  "nonce": 3098395423,
  "bits": "1d00ffff",
  "difficulty": 1,
  "chainwork": "00000000000000000000000000000000000000000000000000001f961f961f96",
  "nTx": 1,
  "previousblockhash": "00000000f9bd06e9019e31de128ad309640bb7621f87329d8c8755712bfbbc3d",
  "nextblockhash": "000000006ac096c4adc7143d58b9476fecc031c87db921d4d85404d9aa93222a",
  "strippedsize": 216,
  "size": 216,
  "weight": 864,
  "tx": [
    {
      "txid": "f3294eb6897517e7ec265f972cefb9752d1a0821f1cdf09bb41b522f38fb1713",
      "hash": "f3294eb6897517e7ec265f972cefb9752d1a0821f1cdf09bb41b522f38fb1713",
      "version": 1,
      "size": 135,
      "vsize": 135,
      "weight": 540,
      "locktime": 0,
      "vin": [
        {
          "coinbase": "04ffff001d02dc00",
          "sequence": 4294967295
        }
      ],
      "vout": [
        {
          "value": 50.0,
          "n": 0,
          "scriptPubKey": {
            "asm": "04cff873d8bb53e4b3b30a09f09a7acbcff7f50ac1f9aefec39f37506d59852d4fc21b1da6843b2e3e11c4fc9de408b9564424f3c869963f5dfd3d3bed1343e2fe OP_CHECKSIG",
            "desc": "pk(04cff873d8bb53e4b3b30a09f09a7acbcff7f50ac1f9aefec39f37506d59852d4fc21b1da6843b2e3e11c4fc9de408b9564424f3c869963f5dfd3d3bed1343e2fe)#h2k60mrp",
            "hex": "4104cff873d8bb53e4b3b30a09f09a7acbcff7f50ac1f9aefec39f37506d59852d4fc21b1da6843b2e3e11c4fc9de408b9564424f3c869963f5dfd3d3bed1343e2feac",
            "type": "pubkey"
          }
        }
      ],
      "hex": "01000000010000000000000000000000000000000000000000000000000000000000000000ffffffff0804ffff001d02dc00ffffffff0100f2052a01000000434104cff873d8bb53e4b3b30a09f09a7acbcff7f50ac1f9aefec39f37506d59852d4fc21b1da6843b2e3e11c4fc9de408b9564424f3c869963f5dfd3d3bed1343e2feac00000000"
    }
  ]
}