{
  "hash": "0000000041d7905b4d2c6a48716ce577653b5a136b0a4abce3c2cb9c014908a1",
  "confirmations": 46567,
  "height": 6531,
  "version": 1,
  "versionHex": "00000001",
  "merkleroot": "ce48e875e6c587cda0aa79f42e5ef81306b59bb70c05256ef1f64f29665b363a",
  "time": 1236351303,
  "mediantime": 1236348946,
  "nonce": 302622852,
  "bits": "1d00ffff",
  "difficulty": 1,
  "chainwork": "0000000000000000000000000000000000000000000000000000198419841984",
  "nTx": 1,
  "previousblockhash": "000000007beda6164350c380e9a08950137741525ada674ff7b1ab143eb5b883",
  "nextblockhash": "00000000791c28f549fcdbacd3b4abeff8ea70825c0fc155badb8897f62a2051",
  "strippedsize": 215,
  "size": 215,
  "weight": 860,
  "tx": [
    {
      "txid": "ce48e875e6c587cda0aa79f42e5ef81306b59bb70c05256ef1f64f29665b363a",
      "hash": "ce48e875e6c587cda0aa79f42e5ef81306b59bb70c05256ef1f64f29665b363a",
      "version": 1,
      "size": 134,
      "vsize": 134,
      "weight": 536,
      "locktime": 0,
      "vin": [
        {
          "coinbase": "04ffff001d0150",
          "sequence": 4294967295
        }
      ],
      "vout": [
        {
          "value": 50.0,
          "n": 0,
          "scriptPubKey": {
            "asm": "04c26efbb117cdf6621386478be94a00bd70d7d7b4346e287aac619cc0f3cf08ee9d8b1f399f1a450d45ab3645fc0658901ae082e264c0077bc3ed64ff2e7abec2 OP_CHECKSIG",
            "desc": "pk(04c26efbb117cdf6621386478be94a00bd70d7d7b4346e287aac619cc0f3cf08ee9d8b1f399f1a450d45ab3645fc0658901ae082e264c0077bc3ed64ff2e7abec2)#uy5t3vr2",
            "hex": "4104c26efbb117cdf6621386478be94a00bd70d7d7b4346e287aac619cc0f3cf08ee9d8b1f399f1a450d45ab3645fc0658901ae082e264c0077bc3ed64ff2e7abec2ac",
            "type": "pubkey"
          }
        }
      ],
      "hex": "01000000010000000000000000000000000000000000000000000000000000000000000000ffffffff0704ffff001d0150ffffffff0100f2052a01000000434104c26efbb117cdf6621386478be94a00bd70d7d7b4346e287aac619cc0f3cf08ee9d8b1f399f1a450d45ab3645fc0658901ae082e264c0077bc3ed64ff2e7abec2ac00000000"
    }
  ]
}