{
  "hash": "00000000d42cb1712710823a6673ae59100b89fa2a63b00d82622954e607dd06",
  "confirmations": 45855,
  "height": 7243,
  "version": 1,
  "versionHex": "00000001",
  "merkleroot": "5b65d8d508757705dea83d93c6371cf0b12e01ddc43011cbb97f1408e631d823",
  "time": 1236900550,
  "mediantime": 1236896885,
  "nonce": 3764964116,
  "bits": "1d00ffff",
  "difficulty": 1,
  "chainwork": "00000000000000000000000000000000000000000000000000001c4c1c4c1c4c",
  "nTx": 1,
  "previousblockhash": "000000000cce01e2809bc75a5e5ab1cd7ffe29b096e39ccdd6dc413009f90cdd",
  "nextblockhash": "000000001adc58a873b9a09168da4f123222553bb6c2b0ae0ab32108a7ec863c",
  "strippedsize": 216,
  "size": 216,
  "weight": 864,
  "tx": [
    {
      "txid": "5b65d8d508757705dea83d93c6371cf0b12e01ddc43011cbb97f1408e631d823",
      "hash": "5b65d8d508757705dea83d93c6371cf0b12e01ddc43011cbb97f1408e631d823",
      "version": 1,
      "size": 135,
      "vsize": 135,
      "weight": 540,
      "locktime": 0,
      "vin": [
        {
          "coinbase": "04ffff001d024f06",
          "sequence": 4294967295
        }
      ],
      "vout": [
        {
          "value": 50.0,
          "n": 0,
          "scriptPubKey": {
            "asm": "04c57f3fd8b6cab5a054e38769a7e9702f4797aed4014738d9bac48b511c39ea8206c7029e2675d40839eb15dd023bd16a3ff2e2a3fb9d47e98bbc46e18449f34c OP_CHECKSIG",
            "desc": "pk(04c57f3fd8b6cab5a054e38769a7e9702f4797aed4014738d9bac48b511c39ea8206c7029e2675d40839eb15dd023bd16a3ff2e2a3fb9d47e98bbc46e18449f34c)#aea20xnj",
            "hex": "4104c57f3fd8b6cab5a054e38769a7e9702f4797aed4014738d9bac48b511c39ea8206c7029e2675d40839eb15dd023bd16a3ff2e2a3fb9d47e98bbc46e18449f34cac",
            "type": "pubkey"
          }
        }
      ],
      "hex": "01000000010000000000000000000000000000000000000000000000000000000000000000ffffffff0804ffff001d024f06ffffffff0100f2052a01000000434104c57f3fd8b6cab5a054e38769a7e9702f4797aed4014738d9bac48b511c39ea8206c7029e2675d40839eb15dd023bd16a3ff2e2a3fb9d47e98bbc46e18449f34cac00000000"
    }
  ]
}