{
  "hash": "0000000041bf3b1c00ced3f3529a6326af38146e30177de5810f90eaf7e72032",
  "confirmations": 48281,
  "height": 4817,
  "version": 1,
  "versionHex": "00000001",
  "merkleroot": "0c3346b0c63c120715b06d6be17b8e444eeda51237f106ec12b3851192409b0a",
  "time": 1235010794,
  "mediantime": 1235007431,
  "nonce": 837140761,
  "bits": "1d00ffff",
  "difficulty": 1,
  "chainwork": "000000000000000000000000000000000000000000000000000012d212d212d2",
  "nTx": 1,
  "previousblockhash": "000000000c14dd4337305bab8064ecef876e0839d6ff69cea6e07f23f5e326ef",
  "nextblockhash": "00000000091da0832d88b03a8f3deadca5806da3fbad6fb8c2e691db8b53886d",
  "strippedsize": 216,
  "size": 216,
  "weight": 864,
  "tx": [
    {
      "txid": "0c3346b0c63c120715b06d6be17b8e444eeda51237f106ec12b3851192409b0a",
      "hash": "0c3346b0c63c120715b06d6be17b8e444eeda51237f106ec12b3851192409b0a",
      "version": 1,
      "size": 135,
      "vsize": 135,
      "weight": 540,
      "locktime": 0,
      "vin": [
        {
          "coinbase": "04ffff001d029604",
          "sequence": 4294967295
        }
      ],
      "vout": [
        {
          "value": 50.0,
          "n": 0,
          "scriptPubKey": {
            "asm": "041ed6791a6a1b71dae4a9eb53ba266d50982926b8f77e1960bb7c802e2763bdbf77357141fc7ae20f6ad772925b5eaaca56a9ec7e05e5668d0aa994c0fda74e50 OP_CHECKSIG",
            "desc": "pk(041ed6791a6a1b71dae4a9eb53ba266d50982926b8f77e1960bb7c802e2763bdbf77357141fc7ae20f6ad772925b5eaaca56a9ec7e05e5668d0aa994c0fda74e50)#aya8xqv2",
            "hex": "41041ed6791a6a1b71dae4a9eb53ba266d50982926b8f77e1960bb7c802e2763bdbf77357141fc7ae20f6ad772925b5eaaca56a9ec7e05e5668d0aa994c0fda74e50ac",
            "type": "pubkey"
          }
        }
      ],
      "hex": "01000000010000000000000000000000000000000000000000000000000000000000000000ffffffff0804ffff001d029604ffffffff0100f2052a010000004341041ed6791a6a1b71dae4a9eb53ba266d50982926b8f77e1960bb7c802e2763bdbf77357141fc7ae20f6ad772925b5eaaca56a9ec7e05e5668d0aa994c0fda74e50ac00000000"
    }
  ]
}