{
  "hash": "00000000c6e6b10fcf170f83ac2deecffd607597a5f98fccff6497fe1559429f",
  "confirmations": 46148,
  "height": 6950,
  "version": 1,
  "versionHex": "00000001",
  "merkleroot": "a2c7e31f90fce616e10f5494c000e83eab10a29fd23e2ca738ad92cf450da9a7",
  "time": 1236680134,
  "mediantime": 1236675989,
  "nonce": 189457349,
  "bits": "1d00ffff",
  "difficulty": 1,
  "chainwork": "00000000000000000000000000000000000000000000000000001b271b271b27",
  "nTx": 1,
  "previousblockhash": "00000000c6f2a1a380f2c9e922ab178f3d864d0417a8667ccfea5f4f6760a232",
  "nextblockhash": "000000006ac271cc372f307d969abc97356c7eb21174439f36d2a79817667ad3",
  "strippedsize": 216,
  "size": 216,
  "weight": 864,
  "tx": [
    {
      "txid": "a2c7e31f90fce616e10f5494c000e83eab10a29fd23e2ca738ad92cf450da9a7",
      "hash": "a2c7e31f90fce616e10f5494c000e83eab10a29fd23e2ca738ad92cf450da9a7",
      "version": 1,
      "size": 135,
      "vsize": 135,
      "weight": 540,
      "locktime": 0,
      "vin": [
        {
          "coinbase": "04ffff001d02f10c",
          "sequence": 4294967295
        }
      ],
      "vout": [
        {
          "value": 50.0,
          "n": 0,
          "scriptPubKey": {
            "asm": "04cc01f5151a99fb90eaf11ee99f9b9252d250b532e2ca480bb9cee084e1377857604275e23dc14f44fc8d5b2464f125aad8f4c9cba9d7e680c99e329419287cd5 OP_CHECKSIG",
            "desc": "pk(04cc01f5151a99fb90eaf11ee99f9b9252d250b532e2ca480bb9cee084e1377857604275e23dc14f44fc8d5b2464f125aad8f4c9cba9d7e680c99e329419287cd5)#jmweu38j",
            "hex": "4104cc01f5151a99fb90eaf11ee99f9b9252d250b532e2ca480bb9cee084e1377857604275e23dc14f44fc8d5b2464f125aad8f4c9cba9d7e680c99e329419287cd5ac",
            "type": "pubkey"
          }
        }
      ],
      "hex": "01000000010000000000000000000000000000000000000000000000000000000000000000ffffffff0804ffff001d02f10cffffffff0100f2052a01000000434104cc01f5151a99fb90eaf11ee99f9b9252d250b532e2ca480bb9cee084e1377857604275e23dc14f44fc8d5b2464f125aad8f4c9cba9d7e680c99e329419287cd5ac00000000"
    }
  ]
}