{
  "hash": "00000000f6dd61de790513e2691978433a32c785a5aad32b173c8240f0616b55",
  "confirmations": 52425,
  "height": 513,
  "version": 1,
  "versionHex": "00000001",
  "merkleroot": "6da8ff544be18224705db9dc0156c47d52d05f104986369a9b9d50959c4c8171",
  "time": 1231976547,
  "mediantime": 1231974724,
  "nonce": 3395817269,
  "bits": "1d00ffff",
  "difficulty": 1,
  "chainwork": "0000000000000000000000000000000000000000000000000000020202020202",
  "nTx": 1,
  "previousblockhash": "000000000c8662009fdc5fc649984215b6472b860569ccbeb2a63a6731acdf8e",
  "nextblockhash": "000000000e0a6dd63fbaf3e078494491d81ba2d6695266fde007dda7d859315d",
  "strippedsize": 216,
  "size": 216,
  "weight": 864,
  "tx": [
    {
      "txid": "6da8ff544be18224705db9dc0156c47d52d05f104986369a9b9d50959c4c8171",
      "hash": "6da8ff544be18224705db9dc0156c47d52d05f104986369a9b9d50959c4c8171",
      "version": 1,
      "size": 135,
      "vsize": 135,
      "weight": 540,
      "locktime": 0,
      "vin": [
        {
          "coinbase": "04ffff001d02ac04",
          "sequence": 4294967295
        }
      ],
      "vout": [
        {
          "value": 50.0,
          "n": 0,
          "scriptPubKey": {
            "asm": "041684ba377f8a9c1afa60c0724a171ff8006c4e82bfadda6d6d5ed15c50baeea2444cf15e97e78d56084ebe48e3e90d7cdb5f35b72059b3ec18db45bc8f297620 OP_CHECKSIG",
            "desc": "pk(041684ba377f8a9c1afa60c0724a171ff8006c4e82bfadda6d6d5ed15c50baeea2444cf15e97e78d56084ebe48e3e90d7cdb5f35b72059b3ec18db45bc8f297620)#q8sg9sqs",
            "hex": "41041684ba377f8a9c1afa60c0724a171ff8006c4e82bfadda6d6d5ed15c50baeea2444cf15e97e78d56084ebe48e3e90d7cdb5f35b72059b3ec18db45bc8f297620ac",
            "type": "pubkey"
          }
        }
      ],
      "hex": "01000000010000000000000000000000000000000000000000000000000000000000000000ffffffff0804ffff001d02ac04ffffffff0100f2052a010000004341041684ba377f8a9c1afa60c0724a171ff8006c4e82bfadda6d6d5ed15c50baeea2444cf15e97e78d56084ebe48e3e90d7cdb5f35b72059b3ec18db45bc8f297620ac00000000"
    }
  ]
}