{
  "hash": "0000000008170390395f31c13a229eec411718777fad323c902e7c9110fc41fa",
  "confirmations": 48180,
  "height": 4918,
  "version": 1,
  "versionHex": "00000001",
  "merkleroot": "59f844e98f4695266d4a2663e547979a3ccf3a2fe9249a9010e52b5da06f7e9d",
  "time": 1235082721,
  "mediantime": 1235079810,
  "nonce": 86962136,
  "bits": "1d00ffff",
  "difficulty": 1,
  "chainwork": "0000000000000000000000000000000000000000000000000000133713371337",
  "nTx": 1,
  "previousblockhash": "00000000f98c6d48b5a9b48a12231358985750a238de6848570617d3e883e24f",
  "nextblockhash": "000000001028aa59a2fe098db8628eb784d71f852b16d06a1651a87f2a056b69",
  "strippedsize": 216,
  "size": 216,
  "weight": 864,
  "tx": [
    {
      "txid": "59f844e98f4695266d4a2663e547979a3ccf3a2fe9249a9010e52b5da06f7e9d",
      "hash": "59f844e98f4695266d4a2663e547979a3ccf3a2fe9249a9010e52b5da06f7e9d",
      "version": 1,
      "size": 135,
      "vsize": 135,
      "weight": 540,
      "locktime": 0,
      "vin": [
        {
          "coinbase": "04ffff001d02f404",
          "sequence": 4294967295
        }
      ],
      "vout": [
        {
          "value": 50.0,
          "n": 0,
          "scriptPubKey": {
            "asm": "044ff743b6302b5afb4a7f52a35719f1df4ecaa5c46b02dc5e2e7b8aa00916c18a29d874404e8df89a944ac886e8c884ab1d66c104c8fdb3041d6229d5dbb10a4b OP_CHECKSIG",
            "desc": "pk(044ff743b6302b5afb4a7f52a35719f1df4ecaa5c46b02dc5e2e7b8aa00916c18a29d874404e8df89a944ac886e8c884ab1d66c104c8fdb3041d6229d5dbb10a4b)#5a9ez4c2",
            "hex": "41044ff743b6302b5afb4a7f52a35719f1df4ecaa5c46b02dc5e2e7b8aa00916c18a29d874404e8df89a944ac886e8c884ab1d66c104c8fdb3041d6229d5dbb10a4bac",
            "type": "pubkey"
          }
        }
      ],
      "hex": "01000000010000000000000000000000000000000000000000000000000000000000000000ffffffff0804ffff001d02f404ffffffff0100f2052a010000004341044ff743b6302b5afb4a7f52a35719f1df4ecaa5c46b02dc5e2e7b8aa00916c18a29d874404e8df89a944ac886e8c884ab1d66c104c8fdb3041d6229d5dbb10a4bac00000000"
    }
  ]
}