{
  "hash": "0000000011c8275cbb5dc8010892e10415c9550ed4513945f96452fe38903d93",
  "confirmations": 52071,
  "height": 149,
  "version": 1,
  "versionHex": "00000001",
  "merkleroot": "5acba2e13fcd823b5541403a2e3e1b7e96ced0663b957710f370842776bb4f47",
  "time": 1231696366,
  "mediantime": 1231693144,
  "nonce": 2997900291,
  "bits": "1d00ffff",
  "difficulty": 1,
  "chainwork": "0000000000000000000000000000000000000000000000000000009600960096",
  "nTx": 1,
  "previousblockhash": "00000000e7b834752cbd32d559550f71f62b2d23c3facd7b7a4024e5dd3ba835",
  "nextblockhash": "000000009ca75733b4cf527fe193b919201a2ed38c9e147a5665fdfade551f4d",
  "strippedsize": 216,
  "size": 216,
  "weight": 864,
  "tx": [
    {
      "txid": "5acba2e13fcd823b5541403a2e3e1b7e96ced0663b957710f370842776bb4f47",
      "hash": "5acba2e13fcd823b5541403a2e3e1b7e96ced0663b957710f370842776bb4f47",
      "version": 1,
      "size": 135,
      "vsize": 135,
      "weight": 540,
      "locktime": 0,
      "vin": [
        {
          "coinbase": "04ffff001d029100",
          "sequence": 4294967295
        }
      ],
      "vout": [
        {
          "value": 50.0,
          "n": 0,
          "scriptPubKey": {
            "asm": "04f3ac806f3c4afdcac540251e2cd7b61f0d60b1195bf6f7a7ce7bae5d966bcfdb17d0ba62190a162aafe7538df373b92c7037e5a8ac820e928498d341240706e4 OP_CHECKSIG",
            "desc": "pk(04f3ac806f3c4afdcac540251e2cd7b61f0d60b1195bf6f7a7ce7bae5d966bcfdb17d0ba62190a162aafe7538df373b92c7037e5a8ac820e928498d341240706e4)#n3t6sr7y",
            "hex": "4104f3ac806f3c4afdcac540251e2cd7b61f0d60b1195bf6f7a7ce7bae5d966bcfdb17d0ba62190a162aafe7538df373b92c7037e5a8ac820e928498d341240706e4ac",
            "type": "pubkey"
          }
        }
      ],
      "hex": "01000000010000000000000000000000000000000000000000000000000000000000000000ffffffff0804ffff001d029100ffffffff0100f2052a01000000434104f3ac806f3c4afdcac540251e2cd7b61f0d60b1195bf6f7a7ce7bae5d966bcfdb17d0ba62190a162aafe7538df373b92c7037e5a8ac820e928498d341240706e4ac00000000"
    }
  ]
}