{
  "hash": "00000000922b9826d019a1e19edb02b9b63138f8a213ffd88449e94cd0618e6b",
  "confirmations": 47110,
  "height": 5988,
  "version": 1,
  "versionHex": "00000001",
  "merkleroot": "3a46cff56faa67a351ae72cb771782ec1bf872f91ddcb7a8bc7050e405b3af21",
  "time": 1235919223,
  "mediantime": 1235914652,
  "nonce": 3590815028,
  "bits": "1d00ffff",
  "difficulty": 1,
  "chainwork": "0000000000000000000000000000000000000000000000000000176517651765",
  "nTx": 1,
  "previousblockhash": "000000007a662cad3436e863e7906ede734d346d1a7a21b1b1d1875f7ca01212",
  "nextblockhash": "000000008da5da1d5f7b8c1516770407f5636769da593f779f2b00be31cc11b1",
  "strippedsize": 216,
  "size": 216,
  "weight": 864,
  "tx": [
    {
      "txid": "3a46cff56faa67a351ae72cb771782ec1bf872f91ddcb7a8bc7050e405b3af21",
      "hash": "3a46cff56faa67a351ae72cb771782ec1bf872f91ddcb7a8bc7050e405b3af21",
      "version": 1,
      "size": 135,
      "vsize": 135,
      "weight": 540,
      "locktime": 0,
      "vin": [
        {
          "coinbase": "04ffff001d02b504",
          "sequence": 4294967295
        }
      ],
      "vout": [
        {
          "value": 50.0,
          "n": 0,
          "scriptPubKey": {
            "asm": "045e136ace4a7096a10e90cee51f61c1ac22431b57eba8596fe5eca3b9b875a4eb2bf6b9d480a4029195baf83fdc2c637aeb71a105ac5758e4bc2d4ac12b2737c0 OP_CHECKSIG",
            "desc": "pk(045e136ace4a7096a10e90cee51f61c1ac22431b57eba8596fe5eca3b9b875a4eb2bf6b9d480a4029195baf83fdc2c637aeb71a105ac5758e4bc2d4ac12b2737c0)#34w6n86z",
            "hex": "41045e136ace4a7096a10e90cee51f61c1ac22431b57eba8596fe5eca3b9b875a4eb2bf6b9d480a4029195baf83fdc2c637aeb71a105ac5758e4bc2d4ac12b2737c0ac",
            "type": "pubkey"
          }
        }
      ],
      "hex": "01000000010000000000000000000000000000000000000000000000000000000000000000ffffffff0804ffff001d02b504ffffffff0100f2052a010000004341045e136ace4a7096a10e90cee51f61c1ac22431b57eba8596fe5eca3b9b875a4eb2bf6b9d480a4029195baf83fdc2c637aeb71a105ac5758e4bc2d4ac12b2737c0ac00000000"
    }
  ]
}