{
  "hash": "00000000970d5d17eeaeef63e578db11b0fe0f2002c0050a6fe5d5bea1530de1",
  "confirmations": 50356,
  "height": 2742,
  "version": 1,
  "versionHex": "00000001",
  "merkleroot": "e2300229ac342cb143fcdfff960d80d755007216836a0806beee3a563088154c",
  "time": 1233590708,
  "mediantime": 1233588129,
  "nonce": 2560628789,
  "bits": "1d00ffff",
  "difficulty": 1,
  "chainwork": "00000000000000000000000000000000000000000000000000000ab70ab70ab7",
  "nTx": 1,
  "previousblockhash": "00000000f7036ccdafcc809f415753cd0df2161c71cd3c12157f4fed1a4f9b00",
  "nextblockhash": "00000000e59d1527958c8d5a025a57033858af2edde3edc3be315e1ff072cf0a",
  "strippedsize": 216,
  "size": 216,
  "weight": 864,
  "tx": [
    {
      "txid": "e2300229ac342cb143fcdfff960d80d755007216836a0806beee3a563088154c",
      "hash": "e2300229ac342cb143fcdfff960d80d755007216836a0806beee3a563088154c",
      "version": 1,
      "size": 135,
      "vsize": 135,
      "weight": 540,
      "locktime": 0,
      "vin": [
        {
          "coinbase": "04ffff001d025005",
          "sequence": 4294967295
        }
      ],
      "vout": [
        {
          "value": 50.0,
          "n": 0,
          "scriptPubKey": {
            "asm": "04cb284fcb7fa2c2929f56f34298147d5adc529fd687c26c551dd97b16a9b679f609d4030d87d077e31c7fe89555bb7ab8f0a3949b78e776af0af681fbc5242790 OP_CHECKSIG",
            "desc": "pk(04cb284fcb7fa2c2929f56f34298147d5adc529fd687c26c551dd97b16a9b679f609d4030d87d077e31c7fe89555bb7ab8f0a3949b78e776af0af681fbc5242790)#dprq4ewn",
            "hex": "4104cb284fcb7fa2c2929f56f34298147d5adc529fd687c26c551dd97b16a9b679f609d4030d87d077e31c7fe89555bb7ab8f0a3949b78e776af0af681fbc5242790ac",
            "type": "pubkey"
          }
        }
      ],
      "hex": "01000000010000000000000000000000000000000000000000000000000000000000000000ffffffff0804ffff001d025005ffffffff0100f2052a01000000434104cb284fcb7fa2c2929f56f34298147d5adc529fd687c26c551dd97b16a9b679f609d4030d87d077e31c7fe89555bb7ab8f0a3949b78e776af0af681fbc5242790ac00000000"
    }
  ]
}