{
  "hash": "000000007beda6164350c380e9a08950137741525ada674ff7b1ab143eb5b883",
  "confirmations": 46568,
  "height": 6530,
  "version": 1,
  "versionHex": "00000001",
  "merkleroot": "c1d81c0f6c790e3de801af9a1d18f92ec3c16cc7c91ed909d40810f6b20e5aec",
  "time": 1236350336,
  "mediantime": 1236347841,
  "nonce": 3148298008,
  "bits": "1d00ffff",
  "difficulty": 1,
  "chainwork": "0000000000000000000000000000000000000000000000000000198319831983",
  "nTx": 1,
  "previousblockhash": "00000000b21433731a9342c3108c62ccc48ab4637aa581a4ef4a2f989cdfd969",
  "nextblockhash": "0000000041d7905b4d2c6a48716ce577653b5a136b0a4abce3c2cb9c014908a1",
  "strippedsize": 216,
  "size": 216,
  "weight": 864,
  "tx": [
    {
      "txid": "c1d81c0f6c790e3de801af9a1d18f92ec3c16cc7c91ed909d40810f6b20e5aec",
      "hash": "c1d81c0f6c790e3de801af9a1d18f92ec3c16cc7c91ed909d40810f6b20e5aec",
      "version": 1,
      "size": 135,
      "vsize": 135,
      "weight": 540,
      "locktime": 0,
      "vin": [
        {
          "coinbase": "04ffff001d022204",
          "sequence": 4294967295
        }
      ],
      "vout": [
        {
          "value": 50.0,
          "n": 0,
          "scriptPubKey": {
            "asm": "048c401e2f04761b6f6c0ecb3d32d9cb9118f5133414e98f4edbe0953b8850acf8380ce84b40b55eddf1db6ae58c0b600db6a904c8ce08e6d459abe6cf67266419 OP_CHECKSIG",
            "desc": "pk(048c401e2f04761b6f6c0ecb3d32d9cb9118f5133414e98f4edbe0953b8850acf8380ce84b40b55eddf1db6ae58c0b600db6a904c8ce08e6d459abe6cf67266419)#qw7m4jgw",
            "hex": "41048c401e2f04761b6f6c0ecb3d32d9cb9118f5133414e98f4edbe0953b8850acf8380ce84b40b55eddf1db6ae58c0b600db6a904c8ce08e6d459abe6cf67266419ac",
            "type": "pubkey"
          }
        }
      ],
      "hex": "01000000010000000000000000000000000000000000000000000000000000000000000000ffffffff0804ffff001d022204ffffffff0100f2052a010000004341048c401e2f04761b6f6c0ecb3d32d9cb9118f5133414e98f4edbe0953b8850acf8380ce84b40b55eddf1db6ae58c0b600db6a904c8ce08e6d459abe6cf67266419ac00000000"
    }
  ]
}