{
  "hash": "00000000e55bdb23e325d66d095a16c6b803094f0ee7b782b3ccbb8e1477c7e9",
  "confirmations": 47023,
  "height": 6075,
  "version": 1,
  "versionHex": "00000001",
  "merkleroot": "846a4065c7de25965740091cbe28ce49821c7bb88b34394a02c6b060de00fe6f",
  "time": 1235988407,
  "mediantime": 1235984061,
  "nonce": 860397079,
  "bits": "1d00ffff",
  "difficulty": 1,
  "chainwork": "000000000000000000000000000000000000000000000000000017bc17bc17bc",
  "nTx": 1,
  "previousblockhash": "0000000074cdfa02e95668af05ee2bbf380b62e1856fdcb587ba4e90962a5b2f",
  "nextblockhash": "00000000182a930da4e2ea42375f514fddafb17655874965757fc4f690a3840d",
  "strippedsize": 216,
  "size": 216,
  "weight": 864,
  "tx": [
    {
      "txid": "846a4065c7de25965740091cbe28ce49821c7bb88b34394a02c6b060de00fe6f",
      "hash": "846a4065c7de25965740091cbe28ce49821c7bb88b34394a02c6b060de00fe6f",
      "version": 1,
      "size": 135,
      "vsize": 135,
      "weight": 540,
      "locktime": 0,
      "vin": [
        {
          "coinbase": "04ffff001d024b06",
          "sequence": 4294967295
        }
      ],
      "vout": [
        {
          "value": 50.0,
          "n": 0,
          "scriptPubKey": {
            "asm": "04461503292ddc465b960603a9226d65e0e2bd4849144a06db4f487713f9f51b59487545f3d4c664fb4b60a8cb199680fbc045807a157c8a14230185b1e9fb666b OP_CHECKSIG",
            "desc": "pk(04461503292ddc465b960603a9226d65e0e2bd4849144a06db4f487713f9f51b59487545f3d4c664fb4b60a8cb199680fbc045807a157c8a14230185b1e9fb666b)#xn4q0fal",
            "hex": "4104461503292ddc465b960603a9226d65e0e2bd4849144a06db4f487713f9f51b59487545f3d4c664fb4b60a8cb199680fbc045807a157c8a14230185b1e9fb666bac",
            "type": "pubkey"
          }
        }
      ],
      "hex": "01000000010000000000000000000000000000000000000000000000000000000000000000ffffffff0804ffff001d024b06ffffffff0100f2052a01000000434104461503292ddc465b960603a9226d65e0e2bd4849144a06db4f487713f9f51b59487545f3d4c664fb4b60a8cb199680fbc045807a157c8a14230185b1e9fb666bac00000000"
    }
  ]
}