{
  "hash": "000000008e20654a74b828f6959e72885b276bf9cc1d54744385d0ec49089141",
  "confirmations": 50423,
  "height": 2675,
  "version": 1,
  "versionHex": "00000001",
  "merkleroot": "ed903e17a1495d5bfa79bd14a8cd9273e70a6504a0833b7a8b2549eceb43a55f",
  "time": 1233545310,
  "mediantime": 1233541511,
  "nonce": 1759810359,
  "bits": "1d00ffff",
  "difficulty": 1,
  "chainwork": "00000000000000000000000000000000000000000000000000000a740a740a74",
  "nTx": 1,
  "previousblockhash": "00000000f0fd60a5eb86ad77fda2ba38383281ec27b6d3ffc66f053932b7fd32",
  "nextblockhash": "00000000cd92aee3ad380fada1532bcc7bd624b2df3cd1838c9f9aa7fbfa075a",
  "strippedsize": 216,
  "size": 216,
  "weight": 864,
  "tx": [
    {
      "txid": "ed903e17a1495d5bfa79bd14a8cd9273e70a6504a0833b7a8b2549eceb43a55f",
      "hash": "ed903e17a1495d5bfa79bd14a8cd9273e70a6504a0833b7a8b2549eceb43a55f",
      "version": 1,
      "size": 135,
      "vsize": 135,
      "weight": 540,
      "locktime": 0,
      "vin": [
        {
          "coinbase": "04ffff001d026004",
          "sequence": 4294967295
        }
      ],
      "vout": [
        {
          "value": 50.0,
          "n": 0,
          "scriptPubKey": {
            "asm": "046ebf894481c5b9cc66e6edb843e64def5a4e798d926b0721d9b820321b011882bb8aa9e3f62cf8f380c2f8046d2ac853eade99076adf55bf44e64e55d2d4ca20 OP_CHECKSIG",
            "desc": "pk(046ebf894481c5b9cc66e6edb843e64def5a4e798d926b0721d9b820321b011882bb8aa9e3f62cf8f380c2f8046d2ac853eade99076adf55bf44e64e55d2d4ca20)#mesjvjnr",
            "hex": "41046ebf894481c5b9cc66e6edb843e64def5a4e798d926b0721d9b820321b011882bb8aa9e3f62cf8f380c2f8046d2ac853eade99076adf55bf44e64e55d2d4ca20ac",
            "type": "pubkey"
          }
        }
      ],
      "hex": "01000000010000000000000000000000000000000000000000000000000000000000000000ffffffff0804ffff001d026004ffffffff0100f2052a010000004341046ebf894481c5b9cc66e6edb843e64def5a4e798d926b0721d9b820321b011882bb8aa9e3f62cf8f380c2f8046d2ac853eade99076adf55bf44e64e55d2d4ca20ac00000000"
    }
  ]
}