{
  "hash": "000000001c1791a1ffa49c32784da7c51b77c9c3ea1c4484aebe8627104b93f8",
  "confirmations": 52066,
  "height": 1032,
  "version": 1,
  "versionHex": "00000001",
  "merkleroot": "e84f00e32ffeab3cc2c782e9fa6c54b596c6c2617c805adf79f72d4e26000a26",
  "time": 1232371508,
  "mediantime": 1232368720,
  "nonce": 638889759,
  "bits": "1d00ffff",
  "difficulty": 1,
  "chainwork": "0000000000000000000000000000000000000000000000000000040904090409",
  "nTx": 1,
  "previousblockhash": "000000006e8d376834398b7963042cf2d8764860457573c1bb54fc8723a35a6d",
  "nextblockhash": "00000000223bbe66d010f869ffdd9a50b7ecc5e952dcf496fd8824c386cdd30a",
  "strippedsize": 216,
  "size": 216,
  "weight": 864,
  "tx": [
    {
      "txid": "e84f00e32ffeab3cc2c782e9fa6c54b596c6c2617c805adf79f72d4e26000a26",
      "hash": "e84f00e32ffeab3cc2c782e9fa6c54b596c6c2617c805adf79f72d4e26000a26",
      "version": 1,
      "size": 135,
      "vsize": 135,
      "weight": 540,
      "locktime": 0,
      "vin": [
        {
          "coinbase": "04ffff001d02a605",
          "sequence": 4294967295
        }
      ],
      "vout": [
        {
          "value": 50.0,
          "n": 0,
          "scriptPubKey": {
            "asm": "041c68f2819731108edfbe5f486bdc7e9e1602ab8f91031a0bbd863ec16ac97b255336865071dd2b526cf68798ab5d1ba84eca8a46091aeab879182f9f3fc2e45d OP_CHECKSIG",
            "desc": "pk(041c68f2819731108edfbe5f486bdc7e9e1602ab8f91031a0bbd863ec16ac97b255336865071dd2b526cf68798ab5d1ba84eca8a46091aeab879182f9f3fc2e45d)#fu4q9t90",
            "hex": "41041c68f2819731108edfbe5f486bdc7e9e1602ab8f91031a0bbd863ec16ac97b255336865071dd2b526cf68798ab5d1ba84eca8a46091aeab879182f9f3fc2e45dac",
            "type": "pubkey"
          }
        }
      ],
      "hex": "01000000010000000000000000000000000000000000000000000000000000000000000000ffffffff0804ffff001d02a605ffffffff0100f2052a010000004341041c68f2819731108edfbe5f486bdc7e9e1602ab8f91031a0bbd863ec16ac97b255336865071dd2b526cf68798ab5d1ba84eca8a46091aeab879182f9f3fc2e45dac00000000"
    }
  ]
}