{
  "hash": "000000008c87cf1558d619a075b4f8698e1b5db914c521e7f036be311f3f2474",
  "confirmations": 48975,
  "height": 4123,
  "version": 1,
  "versionHex": "00000001",
  "merkleroot": "59f896dbfad2a46d7595910ac0b61a794bdb8df1b9b16d883bed3ee79c7c58fb",
  "time": 1234528673,
  "mediantime": 1234525524,
  "nonce": 3288022274,
  "bits": "1d00ffff",
  "difficulty": 1,
  "chainwork": "0000000000000000000000000000000000000000000000000000101c101c101c",
  "nTx": 1,
  "previousblockhash": "00000000d27985b6bca193129476bc043f99b11f5d5acadd80228ad880d91a01",
  "nextblockhash": "00000000ba4aea45f66f61f79d87a62349ac6fd7173b6240ac77454a04686c41",
  "strippedsize": 216,
  "size": 216,
  "weight": 864,
  "tx": [
    {
      "txid": "59f896dbfad2a46d7595910ac0b61a794bdb8df1b9b16d883bed3ee79c7c58fb",
      "hash": "59f896dbfad2a46d7595910ac0b61a794bdb8df1b9b16d883bed3ee79c7c58fb",
      "version": 1,
      "size": 135,
      "vsize": 135,
      "weight": 540,
      "locktime": 0,
      "vin": [
        {
          "coinbase": "04ffff001d024006",
          "sequence": 4294967295
        }
      ],
      "vout": [
        {
          "value": 50.0,
          "n": 0,
          "scriptPubKey": {
            "asm": "0498f1f07d0ec6bcfc16244d2302aff8c4aca426e9eed28c8080cf61822d700cb5d079eb7adad8e79a3bae4403b08cbd6ccff9629f44295b8895949a60a7bf66ea OP_CHECKSIG",
            "desc": "pk(0498f1f07d0ec6bcfc16244d2302aff8c4aca426e9eed28c8080cf61822d700cb5d079eb7adad8e79a3bae4403b08cbd6ccff9629f44295b8895949a60a7bf66ea)#jzgz0pmy",
            "hex": "410498f1f07d0ec6bcfc16244d2302aff8c4aca426e9eed28c8080cf61822d700cb5d079eb7adad8e79a3bae4403b08cbd6ccff9629f44295b8895949a60a7bf66eaac",
            "type": "pubkey"
          }
        }
      ],
      "hex": "01000000010000000000000000000000000000000000000000000000000000000000000000ffffffff0804ffff001d024006ffffffff0100f2052a0100000043410498f1f07d0ec6bcfc16244d2302aff8c4aca426e9eed28c8080cf61822d700cb5d079eb7adad8e79a3bae4403b08cbd6ccff9629f44295b8895949a60a7bf66eaac00000000"
    }
  ]
}