{
  "hash": "00000000666ca3c27c61dbbaefa666520c7e6088cc44f096322442dc022facdc",
  "confirmations": 45851,
  "height": 7247,
  "version": 1,
  "versionHex": "00000001",
  "merkleroot": "0236df7ecf9c512f812e963d5c423e33c789ac01248f8f21bca7b301dbd24579",
  "time": 1236903677,
  "mediantime": 1236899722,
  "nonce": 1544041737,
  "bits": "1d00ffff",
  "difficulty": 1,
  "chainwork": "00000000000000000000000000000000000000000000000000001c501c501c50",
  "nTx": 1,
  "previousblockhash": "000000002623fb8fa89b4ca0e34f3cb26e584156ba50d124192b72c64ad5350a",
  "nextblockhash": "0000000096f13b2ee9bbe260592ba8dd75a279d8e593f30e094bd22b4bc6ca9b",
  "strippedsize": 216,
  "size": 216,
  "weight": 864,
  "tx": [
    {
      "txid": "0236df7ecf9c512f812e963d5c423e33c789ac01248f8f21bca7b301dbd24579",
      "hash": "0236df7ecf9c512f812e963d5c423e33c789ac01248f8f21bca7b301dbd24579",
      "version": 1,
      "size": 135,
      "vsize": 135,
      "weight": 540,
      "locktime": 0,
      "vin": [
        {
          "coinbase": "04ffff001d026706",
          "sequence": 4294967295
        }
      ],
      "vout": [
        {
          "value": 50.0,
          "n": 0,
          "scriptPubKey": {
            "asm": "042fd1ded3eae4f8a025530498729cda97e6be5ece9640a42189e87c743df469f2b2336b365e6cb3c26e7c5de5720df1767df88a6e112219ca8644505d29b6650c OP_CHECKSIG",
            "desc": "pk(042fd1ded3eae4f8a025530498729cda97e6be5ece9640a42189e87c743df469f2b2336b365e6cb3c26e7c5de5720df1767df88a6e112219ca8644505d29b6650c)#35lej72h",
            "hex": "41042fd1ded3eae4f8a025530498729cda97e6be5ece9640a42189e87c743df469f2b2336b365e6cb3c26e7c5de5720df1767df88a6e112219ca8644505d29b6650cac",
            "type": "pubkey"
          }
        }
      ],
      "hex": "01000000010000000000000000000000000000000000000000000000000000000000000000ffffffff0804ffff001d026706ffffffff0100f2052a010000004341042fd1ded3eae4f8a025530498729cda97e6be5ece9640a42189e87c743df469f2b2336b365e6cb3c26e7c5de5720df1767df88a6e112219ca8644505d29b6650cac00000000"
    }
  ]
}