{
  "hash": "00000000d49db14e5c9db263bbc5989f3eb4cbbbcf7ae8443d174f18a80a00fe",
  "confirmations": 50058,
  "height": 3040,
  "version": 1,
  "versionHex": "00000001",
  "merkleroot": "1f379c543833990183a642fe4a91c2041b0351a8a944060595fefb4e224c3d15",
  "time": 1233790027,
  "mediantime": 1233785999,
  "nonce": 2166653728,
  "bits": "1d00ffff",
  "difficulty": 1,
  "chainwork": "00000000000000000000000000000000000000000000000000000be10be10be1",
  "nTx": 1,
  "previousblockhash": "0000000041eb952c8fb526dd78d604b07e74fad9bf2087f3184e0e8bc73a6dc5",
  "nextblockhash": "00000000dc3d517468456d8c7be9c3a4e272d93ddbda96e6afca523d5937b8e1",
  "strippedsize": 215,
  "size": 215,
  "weight": 860,
  "tx": [
    {
      "txid": "1f379c543833990183a642fe4a91c2041b0351a8a944060595fefb4e224c3d15",
      "hash": "1f379c543833990183a642fe4a91c2041b0351a8a944060595fefb4e224c3d15",
      "version": 1,
      "size": 134,
      "vsize": 134,
      "weight": 536,
      "locktime": 0,
      "vin": [
        {
          "coinbase": "04ffff001d0108",
          "sequence": 4294967295
        }
      ],
      "vout": [
        {
          "value": 50.0,
          "n": 0,
          "scriptPubKey": {
            "asm": "0436151b0bef46402b1df4164840b0f129b20b24e0f4fcdc895a289bdc8894339d0f01f863ea97c6643cb66c0dd48281eec9f32d8c5cd90728509371b1583020c3 OP_CHECKSIG",
            "desc": "pk(0436151b0bef46402b1df4164840b0f129b20b24e0f4fcdc895a289bdc8894339d0f01f863ea97c6643cb66c0dd48281eec9f32d8c5cd90728509371b1583020c3)#jc86tz66",
            "hex": "410436151b0bef46402b1df4164840b0f129b20b24e0f4fcdc895a289bdc8894339d0f01f863ea97c6643cb66c0dd48281eec9f32d8c5cd90728509371b1583020c3ac",
            "type": "pubkey"
          }
        }
      ],
      "hex": "01000000010000000000000000000000000000000000000000000000000000000000000000ffffffff0704ffff001d0108ffffffff0100f2052a0100000043410436151b0bef46402b1df4164840b0f129b20b24e0f4fcdc895a289bdc8894339d0f01f863ea97c6643cb66c0dd48281eec9f32d8c5cd90728509371b1583020c3ac00000000"
    }
  ]
}