{
  "hash": "00000000695ca86e48e2d28aeaadbec48161e51aed54af18073e3bbcbe295265",
  "confirmations": 46582,
  "height": 6516,
  "version": 1,
  "versionHex": "00000001",
  "merkleroot": "13489156e5c440d12a85f37ad6f8ad7aff63b5fc0e1f21bbaf9cba532a3fded4",
  "time": 1236340249,
  "mediantime": 1236337315,
  "nonce": 1578045746,
  "bits": "1d00ffff",
  "difficulty": 1,
  "chainwork": "0000000000000000000000000000000000000000000000000000197519751975",
  "nTx": 1,
  "previousblockhash": "00000000b00e30759b2921f01ede8c77783d3724d993116f5b7cf731d5c51350",
  "nextblockhash": "000000002af40424edd2b40c8028e6c16520e221d916486747529fc27b649dad",
  "strippedsize": 216,
  "size": 216,
  "weight": 864,
  "tx": [
    {
      "txid": "13489156e5c440d12a85f37ad6f8ad7aff63b5fc0e1f21bbaf9cba532a3fded4",
      "hash": "13489156e5c440d12a85f37ad6f8ad7aff63b5fc0e1f21bbaf9cba532a3fded4",
      "version": 1,
      "size": 135,
      "vsize": 135,
      "weight": 540,
      "locktime": 0,
      "vin": [
        {
          "coinbase": "04ffff001d02ee03",
          "sequence": 4294967295
        }
      ],
      "vout": [
        {
          "value": 50.0,
          "n": 0,
          "scriptPubKey": {
            "asm": "04d3c40c8a216b486268f089bb7e8811fb20a05fa4f770be34a778719658e50528f613555b2f183ec548e20ef087978ba3c24fbceb35209bde6aa9476ea8022336 OP_CHECKSIG",
            "desc": "pk(04d3c40c8a216b486268f089bb7e8811fb20a05fa4f770be34a778719658e50528f613555b2f183ec548e20ef087978ba3c24fbceb35209bde6aa9476ea8022336)#yx3aksmx",
            "hex": "4104d3c40c8a216b486268f089bb7e8811fb20a05fa4f770be34a778719658e50528f613555b2f183ec548e20ef087978ba3c24fbceb35209bde6aa9476ea8022336ac",
            "type": "pubkey"
          }
        }
      ],
      "hex": "01000000010000000000000000000000000000000000000000000000000000000000000000ffffffff0804ffff001d02ee03ffffffff0100f2052a01000000434104d3c40c8a216b486268f089bb7e8811fb20a05fa4f770be34a778719658e50528f613555b2f183ec548e20ef087978ba3c24fbceb35209bde6aa9476ea8022336ac00000000"
    }
  ]
}