{
  "hash": "00000000c00a1eb009cbfe369b501a87547c9760dab9be33a10c6066d0947a0d",
  "confirmations": 51556,
  "height": 1542,
  "version": 1,
  "versionHex": "00000001",
  "merkleroot": "f92862d82263f9a0350e8b5a28b2eb4f527414ac547b58e0db840928838ed6ea",
  "time": 1232785180,
  "mediantime": 1232783207,
  "nonce": 4233862665,
  "bits": "1d00ffff",
  "difficulty": 1,
  "chainwork": "0000000000000000000000000000000000000000000000000000060706070607",
  "nTx": 1,
  "previousblockhash": "00000000d2b9d5dbe0ce0c18739a9e237438db82d98b98c9449dc3d4ab2994e3",
  "nextblockhash": "000000005a5e6d40fd311ae05907a5672db2947f1a2272750b95734f7508b4d5",
  "strippedsize": 216,
  "size": 216,
  "weight": 864,
  "tx": [
    {
      "txid": "f92862d82263f9a0350e8b5a28b2eb4f527414ac547b58e0db840928838ed6ea",
      "hash": "f92862d82263f9a0350e8b5a28b2eb4f527414ac547b58e0db840928838ed6ea",
      "version": 1,
      "size": 135,
      "vsize": 135,
      "weight": 540,
      "locktime": 0,
      "vin": [
        {
          "coinbase": "04ffff001d028201",
          "sequence": 4294967295
        }
      ],
      "vout": [
        {
          "value": 50.0,
          "n": 0,
          "scriptPubKey": {
            "asm": "0468b6cad532063b5644c1b29879d8660beb9266a18242ace51b5c9f90c1bf8618c37c492be8e255c4fa7ffb91dae00a7afbaabeb76c72ff0c5dbc89bb3946b5a2 OP_CHECKSIG",
            "desc": "pk(0468b6cad532063b5644c1b29879d8660beb9266a18242ace51b5c9f90c1bf8618c37c492be8e255c4fa7ffb91dae00a7afbaabeb76c72ff0c5dbc89bb3946b5a2)#myeuaeaz",
            "hex": "410468b6cad532063b5644c1b29879d8660beb9266a18242ace51b5c9f90c1bf8618c37c492be8e255c4fa7ffb91dae00a7afbaabeb76c72ff0c5dbc89bb3946b5a2ac",
            "type": "pubkey"
          }
        }
      ],
      "hex": "01000000010000000000000000000000000000000000000000000000000000000000000000ffffffff0804ffff001d028201ffffffff0100f2052a0100000043410468b6cad532063b5644c1b29879d8660beb9266a18242ace51b5c9f90c1bf8618c37c492be8e255c4fa7ffb91dae00a7afbaabeb76c72ff0c5dbc89bb3946b5a2ac00000000"
    }
  ]
}