{
  "hash": "00000000328db608ed96a69e2d34f51fb39505eae2e7f6dcf298e00a20ba33ac",
  "confirmations": 46776,
  "height": 6322,
  "version": 1,
  "versionHex": "00000001",
  "merkleroot": "01859efa9158231bee4c73aef75f8efd01817fd620a344cfd5c6821b63646a08",
  "time": 1236190429,
  "mediantime": 1236184542,
  "nonce": 3242267413,
  "bits": "1d00ffff",
  "difficulty": 1,
  "chainwork": "000000000000000000000000000000000000000000000000000018b318b318b3",
  "nTx": 1,
  "previousblockhash": "00000000a6031e902c3cb08d4988b0d06d25c85ebb13f43a6afd12b759d21df8",
  "nextblockhash": "0000000055f0e2fdc9e4363c7d47a3126f955f45ff27548811c9a4aaaf8a6d59",
  "strippedsize": 215,
  "size": 215,
  "weight": 860,
  "tx": [
    {
      "txid": "01859efa9158231bee4c73aef75f8efd01817fd620a344cfd5c6821b63646a08",
      "hash": "01859efa9158231bee4c73aef75f8efd01817fd620a344cfd5c6821b63646a08",
      "version": 1,
      "size": 134,
      "vsize": 134,
      "weight": 536,
      "locktime": 0,
      "vin": [
        {
          "coinbase": "04ffff001d0178",
          "sequence": 4294967295
        }
      ],
      "vout": [
        {
          "value": 50.0,
          "n": 0,
          "scriptPubKey": {
            "asm": "04c2bee7ffa6a7622880259739d1f9fdcf6b312976e59be8353ab7b3799f62398feaf8f01ec1fe94b35067921fa36fff09f752e2f7e65fdd2f36a250823d07dcf3 OP_CHECKSIG",
            "desc": "pk(04c2bee7ffa6a7622880259739d1f9fdcf6b312976e59be8353ab7b3799f62398feaf8f01ec1fe94b35067921fa36fff09f752e2f7e65fdd2f36a250823d07dcf3)#glu2u2wv",
            "hex": "4104c2bee7ffa6a7622880259739d1f9fdcf6b312976e59be8353ab7b3799f62398feaf8f01ec1fe94b35067921fa36fff09f752e2f7e65fdd2f36a250823d07dcf3ac",
            "type": "pubkey"
          }
        }
      ],
      "hex": "01000000010000000000000000000000000000000000000000000000000000000000000000ffffffff0704ffff001d0178ffffffff0100f2052a01000000434104c2bee7ffa6a7622880259739d1f9fdcf6b312976e59be8353ab7b3799f62398feaf8f01ec1fe94b35067921fa36fff09f752e2f7e65fdd2f36a250823d07dcf3ac00000000"
    }
  ]
}