{
  "hash": "000000007dc74ef3358ad4bec22f9b3a46ad7596b66ab5eb71e72ae562b47f83",
  "confirmations": 52308,
  "height": 790,
  "version": 1,
  "versionHex": "00000001",
  "merkleroot": "a1a84427f79d587a41890811c21c1733538b5f8f8ee7450160bd5faa169bdec7",
  "time": 1232182083,
  "mediantime": 1232180282,
  "nonce": 928567350,
  "bits": "1d00ffff",
  "difficulty": 1,
  "chainwork": "0000000000000000000000000000000000000000000000000000031703170317",
  "nTx": 1,
  "previousblockhash": "0000000060da2754fe44bc0eb64e5e8bb54b93bd64e183bb35731bfd8babc525",
  "nextblockhash": "00000000c75f6a78ff4a93b86b7f3aaf3708ddf963992b58d5bb9ef51f433642",
  "strippedsize": 216,
  "size": 216,
  "weight": 864,
  "tx": [
    {
      "txid": "a1a84427f79d587a41890811c21c1733538b5f8f8ee7450160bd5faa169bdec7",
      "hash": "a1a84427f79d587a41890811c21c1733538b5f8f8ee7450160bd5faa169bdec7",
      "version": 1,
      "size": 135,
      "vsize": 135,
      "weight": 540,
      "locktime": 0,
      "vin": [
        {
          "coinbase": "04ffff001d024401",
          "sequence": 4294967295
        }
      ],
      "vout": [
        {
          "value": 50.0,
          "n": 0,
          "scriptPubKey": {
            "asm": "04603610257c9a1082a9b0f36185245b8c639159e40e3321d19e4b75c987cbee9380f256ccee68e64dde3d0121183760a6d2b37355e80d6d112d13fc867875e6de OP_CHECKSIG",
            "desc": "pk(04603610257c9a1082a9b0f36185245b8c639159e40e3321d19e4b75c987cbee9380f256ccee68e64dde3d0121183760a6d2b37355e80d6d112d13fc867875e6de)#40qv3hs8",
            "hex": "4104603610257c9a1082a9b0f36185245b8c639159e40e3321d19e4b75c987cbee9380f256ccee68e64dde3d0121183760a6d2b37355e80d6d112d13fc867875e6deac",
            "type": "pubkey"
          }
        }
      ],
      "hex": "01000000010000000000000000000000000000000000000000000000000000000000000000ffffffff0804ffff001d024401ffffffff0100f2052a01000000434104603610257c9a1082a9b0f36185245b8c639159e40e3321d19e4b75c987cbee9380f256ccee68e64dde3d0121183760a6d2b37355e80d6d112d13fc867875e6deac00000000"
    }
  ]
}