{
  "hash": "0000000087565ddcf78b4c674190ae46deb6b034412a0410dab4b2e4ab484bbf",
  "confirmations": 49116,
  "height": 3982,
  "version": 1,
  "versionHex": "00000001",
  "merkleroot": "4467950bbfd4dea74a393757c798c5905d43645c33538eb26a9b4bdf80704e3b",
  "time": 1234428906,
  "mediantime": 1234425095,
  "nonce": 2544135456,
  "bits": "1d00ffff",
  "difficulty": 1,
  "chainwork": "00000000000000000000000000000000000000000000000000000f8f0f8f0f8f",
  "nTx": 1,
  "previousblockhash": "0000000052da77e6ee0287d6ba87f22b132e37cdfae3a91e03f19f49f28f4a1b",
  "nextblockhash": "00000000723bf8ba4cdaf82f55284747d8d4f021e47f293653dcd5f7078040d3",
  "strippedsize": 216,
  "size": 216,
  "weight": 864,
  "tx": [
    {
      "txid": "4467950bbfd4dea74a393757c798c5905d43645c33538eb26a9b4bdf80704e3b",
      "hash": "4467950bbfd4dea74a393757c798c5905d43645c33538eb26a9b4bdf80704e3b",
      "version": 1,
      "size": 135,
      "vsize": 135,
      "weight": 540,
      "locktime": 0,
      "vin": [
        {
          "coinbase": "04ffff001d021304",
          "sequence": 4294967295
        }
      ],
      "vout": [
        {
          "value": 50.0,
          "n": 0,
          "scriptPubKey": {
            "asm": "04a8c1d60fb57b36454e5fdfa6222c19007cd69759209496b2fdbd0b7a9d2171d499f11941bb84fad7087a27c2297740919bf6311846e56c6e780139619b8798c1 OP_CHECKSIG",
            "desc": "pk(04a8c1d60fb57b36454e5fdfa6222c19007cd69759209496b2fdbd0b7a9d2171d499f11941bb84fad7087a27c2297740919bf6311846e56c6e780139619b8798c1)#wkzmyt48",
            "hex": "4104a8c1d60fb57b36454e5fdfa6222c19007cd69759209496b2fdbd0b7a9d2171d499f11941bb84fad7087a27c2297740919bf6311846e56c6e780139619b8798c1ac",
            "type": "pubkey"
          }
        }
      ],
      "hex": "01000000010000000000000000000000000000000000000000000000000000000000000000ffffffff0804ffff001d021304ffffffff0100f2052a01000000434104a8c1d60fb57b36454e5fdfa6222c19007cd69759209496b2fdbd0b7a9d2171d499f11941bb84fad7087a27c2297740919bf6311846e56c6e780139619b8798c1ac00000000"
    }
  ]
}