{
  "hash": "00000000b61bf949bddcd48b7c4eadac2972f604e22f9b34be942cd84925b6cf",
  "confirmations": 52145,
  "height": 953,
  "version": 1,
  "versionHex": "00000001",
  "merkleroot": "a520b17061a1d979a5be949436aab59093dcc11ff289aaa16ed46840f3d246b6",
  "time": 1232315776,
  "mediantime": 1232312064,
  "nonce": 3631443256,
  "bits": "1d00ffff",
  "difficulty": 1,
  "chainwork": "000000000000000000000000000000000000000000000000000003ba03ba03ba",
  "nTx": 1,
  "previousblockhash": "00000000519c816ef1879837adb619b12b6e46fc306fe53deb7862e7131aae06",
  "nextblockhash": "000000007193a7d412482a8bfe194e2bcb5f1b0b5c5c4582e0435ad162095062",
  "strippedsize": 216,
  "size": 216,
  "weight": 864,
  "tx": [
    {
      "txid": "a520b17061a1d979a5be949436aab59093dcc11ff289aaa16ed46840f3d246b6",
      "hash": "a520b17061a1d979a5be949436aab59093dcc11ff289aaa16ed46840f3d246b6",
      "version": 1,
      "size": 135,
      "vsize": 135,
      "weight": 540,
      "locktime": 0,
      "vin": [
        {
          "coinbase": "04ffff001d026604",
          "sequence": 4294967295
        }
      ],
      "vout": [
        {
          "value": 50.0,
          "n": 0,
          "scriptPubKey": {
            "asm": "04560a74f2b2458c52059403032582253b676ff59e59cdcc968358a0bb598ee66282dfb1539f8baf0b7a840193635d9ff7847c309fbca3232f59d954151009c98d OP_CHECKSIG",
            "desc": "pk(04560a74f2b2458c52059403032582253b676ff59e59cdcc968358a0bb598ee66282dfb1539f8baf0b7a840193635d9ff7847c309fbca3232f59d954151009c98d)#f0t64pnq",
            "hex": "4104560a74f2b2458c52059403032582253b676ff59e59cdcc968358a0bb598ee66282dfb1539f8baf0b7a840193635d9ff7847c309fbca3232f59d954151009c98dac",
            "type": "pubkey"
          }
        }
      ],
      "hex": "01000000010000000000000000000000000000000000000000000000000000000000000000ffffffff0804ffff001d026604ffffffff0100f2052a01000000434104560a74f2b2458c52059403032582253b676ff59e59cdcc968358a0bb598ee66282dfb1539f8baf0b7a840193635d9ff7847c309fbca3232f59d954151009c98dac00000000"
    }
  ]
}