{
  "hash": "00000000c48f09445e988fe63f8580727a3aa8c0561b89354c301fdfd808b2f2",
  "confirmations": 45906,
  "height": 7192,
  "version": 1,
  "versionHex": "00000001",
  "merkleroot": "1c2f1be23e2fcd5396e14e3df26137b938d2b7d69500a24b6f365a4b437344cf",
  "time": 1236864206,
  "mediantime": 1236860584,
  "nonce": 3269732902,
  "bits": "1d00ffff",
  "difficulty": 1,
  "chainwork": "00000000000000000000000000000000000000000000000000001c191c191c19",
  "nTx": 1,
  "previousblockhash": "00000000a8982ea2e2c918ee717ef4cf772c0b4ea6a2b758a0241c5f01347c9f",
  "nextblockhash": "0000000011f1182e3511e965efacb1bde6bb6e7878b9956bf690c6c54db8e123",
  "strippedsize": 216,
  "size": 216,
  "weight": 864,
  "tx": [
    {
      "txid": "1c2f1be23e2fcd5396e14e3df26137b938d2b7d69500a24b6f365a4b437344cf",
      "hash": "1c2f1be23e2fcd5396e14e3df26137b938d2b7d69500a24b6f365a4b437344cf",
      "version": 1,
      "size": 135,
      "vsize": 135,
      "weight": 540,
      "locktime": 0,
      "vin": [
        {
          "coinbase": "04ffff001d028005",
          "sequence": 4294967295
        }
      ],
      "vout": [
        {
          "value": 50.0,
          "n": 0,
          "scriptPubKey": {
            "asm": "044f715e3cc9186179e597f2350030eb646fec8d3edf41d1de077d35e032ef3ad96c556e8be1f7088042e7c92cafb6badd3c1c7e5a6e8644fa8a1cf5ab0c878380 OP_CHECKSIG",
            "desc": "pk(044f715e3cc9186179e597f2350030eb646fec8d3edf41d1de077d35e032ef3ad96c556e8be1f7088042e7c92cafb6badd3c1c7e5a6e8644fa8a1cf5ab0c878380)#rvkg53gf",
            "hex": "41044f715e3cc9186179e597f2350030eb646fec8d3edf41d1de077d35e032ef3ad96c556e8be1f7088042e7c92cafb6badd3c1c7e5a6e8644fa8a1cf5ab0c878380ac",
            "type": "pubkey"
          }
        }
      ],
      "hex": "01000000010000000000000000000000000000000000000000000000000000000000000000ffffffff0804ffff001d028005ffffffff0100f2052a010000004341044f715e3cc9186179e597f2350030eb646fec8d3edf41d1de077d35e032ef3ad96c556e8be1f7088042e7c92cafb6badd3c1c7e5a6e8644fa8a1cf5ab0c878380ac00000000"
    }
  ]
}