{
  "hash": "00000000aaf0ab905dcdd85a8aac5bfff33b22211222bcdf94b571c00d93d999",
  "confirmations": 50936,
  "height": 2162,
  "version": 1,
  "versionHex": "00000001",
  "merkleroot": "219ae7be2a4c401624aa10dea98018f5a907a74f83959e0a53d52495d39af743",
  "time": 1233183087,
  "mediantime": 1233180432,
  "nonce": 1837250092,
  "bits": "1d00ffff",
  "difficulty": 1,
  "chainwork": "0000000000000000000000000000000000000000000000000000087308730873",
  "nTx": 1,
  "previousblockhash": "00000000c8f3ebcc88f67dd95da7e10aacd7949cd7011590e55892f9cab56c75",
  "nextblockhash": "00000000a8c3dd7e3d1c32f356ec29408ca48a9a3976453b724787a695c27e15",
  "strippedsize": 216,
  "size": 216,
  "weight": 864,
  "tx": [
    {
      "txid": "219ae7be2a4c401624aa10dea98018f5a907a74f83959e0a53d52495d39af743",
      "hash": "219ae7be2a4c401624aa10dea98018f5a907a74f83959e0a53d52495d39af743",
      "version": 1,
      "size": 135,
      "vsize": 135,
      "weight": 540,
      "locktime": 0,
      "vin": [
        {
          "coinbase": "04ffff001d02a500",
          "sequence": 4294967295
        }
      ],
      "vout": [
        {
          "value": 50.0,
          "n": 0,
          "scriptPubKey": {
            "asm": "04757dc679b05320d16a2d7431dc68994ffe81ce1ec7e6d000d96448d8aaf69349804990e62697967580a4c9a0ea5a799fb989236ac1f35fdae2ee2a233bbd8393 OP_CHECKSIG",
            "desc": "pk(04757dc679b05320d16a2d7431dc68994ffe81ce1ec7e6d000d96448d8aaf69349804990e62697967580a4c9a0ea5a799fb989236ac1f35fdae2ee2a233bbd8393)#2xzkqzuu",
            "hex": "4104757dc679b05320d16a2d7431dc68994ffe81ce1ec7e6d000d96448d8aaf69349804990e62697967580a4c9a0ea5a799fb989236ac1f35fdae2ee2a233bbd8393ac",
            "type": "pubkey"
          }
        }
      ],
      "hex": "01000000010000000000000000000000000000000000000000000000000000000000000000ffffffff0804ffff001d02a500ffffffff0100f2052a01000000434104757dc679b05320d16a2d7431dc68994ffe81ce1ec7e6d000d96448d8aaf69349804990e62697967580a4c9a0ea5a799fb989236ac1f35fdae2ee2a233bbd8393ac00000000"
    }
  ]
}