{
  "hash": "00000000903ed6d535dd9ca7bb9dbf75b7a13793eabf01bb91c2d54e36be2d08",
  "confirmations": 45477,
  "height": 7621,
  "version": 1,
  "versionHex": "00000001",
  "merkleroot": "954b71f60e3000ed13485a5ff43caa66c7184c2706cffc673e1a32a6422217ce",
  "time": 1237183496,
  "mediantime": 1237179642,
  "nonce": 2614566456,
  "bits": "1d00ffff",
  "difficulty": 1,
  "chainwork": "00000000000000000000000000000000000000000000000000001dc61dc61dc6",
  "nTx": 1,
  "previousblockhash": "00000000973393290810ebc30f6693407abaa16ba3e5301d616282a4e4e1fe05",
  "nextblockhash": "000000007d679d9e8837117151224d14af2cfb20eb85de4e079f225ea70ed7e1",
  "strippedsize": 216,
  "size": 216,
  "weight": 864,
  "tx": [
    {
      "txid": "954b71f60e3000ed13485a5ff43caa66c7184c2706cffc673e1a32a6422217ce",
      "hash": "954b71f60e3000ed13485a5ff43caa66c7184c2706cffc673e1a32a6422217ce",
      "version": 1,
      "size": 135,
      "vsize": 135,
      "weight": 540,
      "locktime": 0,
      "vin": [
        {
          "coinbase": "04ffff001d02f502",
          "sequence": 4294967295
        }
      ],
      "vout": [
        {
          "value": 50.0,
          "n": 0,
          "scriptPubKey": {
            "asm": "04352035f27847de564dd2708bb617d513d2e8604dc2f2bfeab0898380920c48b2297706c275a3473cf56941dc6e171dcd3867f3cedb59b3740a3ba36b1471cee5 OP_CHECKSIG",
            "desc": "pk(04352035f27847de564dd2708bb617d513d2e8604dc2f2bfeab0898380920c48b2297706c275a3473cf56941dc6e171dcd3867f3cedb59b3740a3ba36b1471cee5)#usnr2sz9",
            "hex": "4104352035f27847de564dd2708bb617d513d2e8604dc2f2bfeab0898380920c48b2297706c275a3473cf56941dc6e171dcd3867f3cedb59b3740a3ba36b1471cee5ac",
            "type": "pubkey"
          }
        }
      ],
      "hex": "01000000010000000000000000000000000000000000000000000000000000000000000000ffffffff0804ffff001d02f502ffffffff0100f2052a01000000434104352035f27847de564dd2708bb617d513d2e8604dc2f2bfeab0898380920c48b2297706c275a3473cf56941dc6e171dcd3867f3cedb59b3740a3ba36b1471cee5ac00000000"
    }
  ]
}