{
  "hash": "00000000dd4a55f4f2a1375e4d0f712335b8ed7d0704927495c0e75c26ef7604",
  "confirmations": 44079,
  "height": 9019,
  "version": 1,
  "versionHex": "00000001",
  "merkleroot": "e1cff8397da92b778f3259d39ce1d88c1dc105c003d8b8e2b47b6b57abe03860",
  "time": 1238265302,
  "mediantime": 1238261932,
  "nonce": 39949790,
  "bits": "1d00ffff",
  "difficulty": 1,
  "chainwork": "0000000000000000000000000000000000000000000000000000233c233c233c",
  "nTx": 1,
  "previousblockhash": "000000008140175d3b9fdb901d50138c560afa3272403a575eec7d17bea7f054",
  "nextblockhash": "00000000dc72caa6de5ee3e75c099be6c4496f06b957994446c9494e69c9972b",
  "strippedsize": 216,
  "size": 216,
  "weight": 864,
  "tx": [
    {
      "txid": "e1cff8397da92b778f3259d39ce1d88c1dc105c003d8b8e2b47b6b57abe03860",
      "hash": "e1cff8397da92b778f3259d39ce1d88c1dc105c003d8b8e2b47b6b57abe03860",
      "version": 1,
      "size": 135,
      "vsize": 135,
      "weight": 540,
      "locktime": 0,
      "vin": [
        {
          "coinbase": "04ffff001d023408",
          "sequence": 4294967295
        }
      ],
      "vout": [
        {
          "value": 50.0,
          "n": 0,
          "scriptPubKey": {
            "asm": "04b34d7dabd3fe3fa2840758267a1c4fbc2c4a303b7d81f6a43b4a15adf682e28abd0b2977c35ddda43138b20e944cb3fd3cb4467b9d57360bf4af7fa36f4ae3f9 OP_CHECKSIG",
            "desc": "pk(04b34d7dabd3fe3fa2840758267a1c4fbc2c4a303b7d81f6a43b4a15adf682e28abd0b2977c35ddda43138b20e944cb3fd3cb4467b9d57360bf4af7fa36f4ae3f9)#ra2qq0ll",
            "hex": "4104b34d7dabd3fe3fa2840758267a1c4fbc2c4a303b7d81f6a43b4a15adf682e28abd0b2977c35ddda43138b20e944cb3fd3cb4467b9d57360bf4af7fa36f4ae3f9ac",
            "type": "pubkey"
          }
        }
      ],
      "hex": "01000000010000000000000000000000000000000000000000000000000000000000000000ffffffff0804ffff001d023408ffffffff0100f2052a01000000434104b34d7dabd3fe3fa2840758267a1c4fbc2c4a303b7d81f6a43b4a15adf682e28abd0b2977c35ddda43138b20e944cb3fd3cb4467b9d57360bf4af7fa36f4ae3f9ac00000000"
    }
  ]
}