{
  "hash": "000000006f6709b76bed31001b32309167757007aa4fb899f8168c8e9c084b1a",
  "confirmations": 52392,
  "height": 706,
  "version": 1,
  "versionHex": "00000001",
  "merkleroot": "1418319b11188f8692aa85e41e67bc7e04a3dd234ccb585afa0177a874c96cda",
  "time": 1232112566,
  "mediantime": 1232109864,
  "nonce": 990070274,
  "bits": "1d00ffff",
  "difficulty": 1,
  "chainwork": "000000000000000000000000000000000000000000000000000002c302c302c3",
  "nTx": 1,
  "previousblockhash": "000000004ebe43b15565f9a42d99481d4a4188059d803d6071906b6804e9d4fe",
  "nextblockhash": "00000000bf9c7f7b8b72d82164a9328e331581e68885d1f5003da874f23fa474",
  "strippedsize": 216,
  "size": 216,
  "weight": 864,
  "tx": [
    {
      "txid": "1418319b11188f8692aa85e41e67bc7e04a3dd234ccb585afa0177a874c96cda",
      "hash": "1418319b11188f8692aa85e41e67bc7e04a3dd234ccb585afa0177a874c96cda",
      "version": 1,
      "size": 135,
      "vsize": 135,
      "weight": 540,
      "locktime": 0,
      "vin": [
        {
          "coinbase": "04ffff001d022301",
          "sequence": 4294967295
        }
      ],
      "vout": [
        {
          "value": 50.0,
          "n": 0,
          "scriptPubKey": {
            "asm": "048653f19ee67f0df56605bd91e4dd385d3cee7ce2d70fdcca42ac52be9ce200315c9538aa39ce544dc4897663701deeb8971dc9b6f173c70ecf1c42bdb95ec044 OP_CHECKSIG",
            "desc": "pk(048653f19ee67f0df56605bd91e4dd385d3cee7ce2d70fdcca42ac52be9ce200315c9538aa39ce544dc4897663701deeb8971dc9b6f173c70ecf1c42bdb95ec044)#rcddqev5",
            "hex": "41048653f19ee67f0df56605bd91e4dd385d3cee7ce2d70fdcca42ac52be9ce200315c9538aa39ce544dc4897663701deeb8971dc9b6f173c70ecf1c42bdb95ec044ac",
            "type": "pubkey"
          }
        }
      ],
      "hex": "01000000010000000000000000000000000000000000000000000000000000000000000000ffffffff0804ffff001d022301ffffffff0100f2052a010000004341048653f19ee67f0df56605bd91e4dd385d3cee7ce2d70fdcca42ac52be9ce200315c9538aa39ce544dc4897663701deeb8971dc9b6f173c70ecf1c42bdb95ec044ac00000000"
    }
  ]
}