{
  "hash": "000000007fe9e0f146cca63016a5681c18ddf026184cb05eedab3e7593fe484c",
  "confirmations": 46449,
  "height": 6649,
  "version": 1,
  "versionHex": "00000001",
  "merkleroot": "375ff0dce04b249bfee14189872de75819589a7b592be5e582e7d855eb5dad42",
  "time": 1236444467,
  "mediantime": 1236440774,
  "nonce": 2590250756,
  "bits": "1d00ffff",
  "difficulty": 1,
  "chainwork": "000000000000000000000000000000000000000000000000000019fa19fa19fa",
  "nTx": 1,
  "previousblockhash": "000000002792abad08ff528fd71821b23c2c87b2ebb49034e36a4aa8e78f66fb",
  "nextblockhash": "000000000e3229b63edd78096bc263bc40cd9a4e184befb475e878c226be7319",
  "strippedsize": 216,
  "size": 216,
  "weight": 864,
  "tx": [
    {
      "txid": "375ff0dce04b249bfee14189872de75819589a7b592be5e582e7d855eb5dad42",
      "hash": "375ff0dce04b249bfee14189872de75819589a7b592be5e582e7d855eb5dad42",
      "version": 1,
      "size": 135,
      "vsize": 135,
      "weight": 540,
      "locktime": 0,
      "vin": [
        {
          "coinbase": "04ffff001d021106",
          "sequence": 4294967295
        }
      ],
      "vout": [
        {
          "value": 50.0,
          "n": 0,
          "scriptPubKey": {
            "asm": "04da8032d02a5d1b21f7e9ceb206cfae283123a5935c691e681dae2630dff3284b0582b226db645626673f686b4f56d44d4819e4b07ad647287450105aca864a32 OP_CHECKSIG",
            "desc": "pk(04da8032d02a5d1b21f7e9ceb206cfae283123a5935c691e681dae2630dff3284b0582b226db645626673f686b4f56d44d4819e4b07ad647287450105aca864a32)#6jgnj3wu",
            "hex": "4104da8032d02a5d1b21f7e9ceb206cfae283123a5935c691e681dae2630dff3284b0582b226db645626673f686b4f56d44d4819e4b07ad647287450105aca864a32ac",
            "type": "pubkey"
          }
        }
      ],
      "hex": "01000000010000000000000000000000000000000000000000000000000000000000000000ffffffff0804ffff001d021106ffffffff0100f2052a01000000434104da8032d02a5d1b21f7e9ceb206cfae283123a5935c691e681dae2630dff3284b0582b226db645626673f686b4f56d44d4819e4b07ad647287450105aca864a32ac00000000"
    }
  ]
}