{
  "hash": "0000000013cdac329218bd76e15ff51ed52fa68e9d306e00924f196a5dbf2b64",
  "confirmations": 46021,
  "height": 7077,
  "version": 1,
  "versionHex": "00000001",
  "merkleroot": "4775891cb2c2ada431ac4729333eb97f26bc09ad11dd802e7c74be9cb510add2",
  "time": 1236777455,
  "mediantime": 1236773839,
  "nonce": 1289895958,
  "bits": "1d00ffff",
  "difficulty": 1,
  "chainwork": "00000000000000000000000000000000000000000000000000001ba61ba61ba6",
  "nTx": 1,
  "previousblockhash": "00000000e3541db216f20583cf9c653b9908dbdf3e7854b3416ac9b63ab4dc8c",
  "nextblockhash": "00000000e682529cd536649ddac343e7aa2db6f8fe987606461da81036068599",
  "strippedsize": 216,
  "size": 216,
  "weight": 864,
  "tx": [
    {
      "txid": "4775891cb2c2ada431ac4729333eb97f26bc09ad11dd802e7c74be9cb510add2",
      "hash": "4775891cb2c2ada431ac4729333eb97f26bc09ad11dd802e7c74be9cb510add2",
      "version": 1,
      "size": 135,
      "vsize": 135,
      "weight": 540,
      "locktime": 0,
      "vin": [
        {
          "coinbase": "04ffff001d028903",
          "sequence": 4294967295
        }
      ],
      "vout": [
        {
          "value": 50.0,
          "n": 0,
          "scriptPubKey": {
            "asm": "0438c61a4aaeb2608d8b12b3ef5eda16809977eef5d3913022cb45f00fd52ca8be2286f5d73d6d9f86148090e653cabd942967a776f3c82b29f750c7a19d73c063 OP_CHECKSIG",
            "desc": "pk(0438c61a4aaeb2608d8b12b3ef5eda16809977eef5d3913022cb45f00fd52ca8be2286f5d73d6d9f86148090e653cabd942967a776f3c82b29f750c7a19d73c063)#v6dedgvh",
            "hex": "410438c61a4aaeb2608d8b12b3ef5eda16809977eef5d3913022cb45f00fd52ca8be2286f5d73d6d9f86148090e653cabd942967a776f3c82b29f750c7a19d73c063ac",
            "type": "pubkey"
          }
        }
      ],
      "hex": "01000000010000000000000000000000000000000000000000000000000000000000000000ffffffff0804ffff001d028903ffffffff0100f2052a0100000043410438c61a4aaeb2608d8b12b3ef5eda16809977eef5d3913022cb45f00fd52ca8be2286f5d73d6d9f86148090e653cabd942967a776f3c82b29f750c7a19d73c063ac00000000"
    }
  ]
}