{
  "hash": "00000000940ec38d0c44e3158a2781107a1b1259167516fd32b96d5f4db3e175",
  "confirmations": 43421,
  "height": 9677,
  "version": 1,
  "versionHex": "00000001",
  "merkleroot": "8959a3212030278177103ab2bf515bebc0e86794dc9ba8f90f9f66228ed384c5",
  "time": 1238760857,
  "mediantime": 1238756067,
  "nonce": 3716582400,
  "bits": "1d00ffff",
  "difficulty": 1,
  "chainwork": "000000000000000000000000000000000000000000000000000025ce25ce25ce",
  "nTx": 1,
  "previousblockhash": "000000009a352dd35b8cd81bd5de1b7a1595eb12581023e3a33ac43180e7dc46",
  "nextblockhash": "00000000b63ba92f79892f8af3a13ec6df416e179a433214fe6f477ca1af8b9a",
  "strippedsize": 216,
  "size": 216,
  "weight": 864,
  "tx": [
    {
      "txid": "8959a3212030278177103ab2bf515bebc0e86794dc9ba8f90f9f66228ed384c5",
      "hash": "8959a3212030278177103ab2bf515bebc0e86794dc9ba8f90f9f66228ed384c5",
      "version": 1,
      "size": 135,
      "vsize": 135,
      "weight": 540,
      "locktime": 0,
      "vin": [
        {
          "coinbase": "04ffff001d020808",
          "sequence": 4294967295
        }
      ],
      "vout": [
        {
          "value": 50.0,
          "n": 0,
          "scriptPubKey": {
            "asm": "04fad31d12095067be4d3f91fea378af68fe307b4858f4949d9751d02f4e056d3df51079dab6a5de3e219a7d901084299115b4826370c9da48a9a98c309cf08518 OP_CHECKSIG",
            "desc": "pk(04fad31d12095067be4d3f91fea378af68fe307b4858f4949d9751d02f4e056d3df51079dab6a5de3e219a7d901084299115b4826370c9da48a9a98c309cf08518)#mlzcc35u",
            "hex": "4104fad31d12095067be4d3f91fea378af68fe307b4858f4949d9751d02f4e056d3df51079dab6a5de3e219a7d901084299115b4826370c9da48a9a98c309cf08518ac",
            "type": "pubkey"
          }
        }
      ],
      "hex": "01000000010000000000000000000000000000000000000000000000000000000000000000ffffffff0804ffff001d020808ffffffff0100f2052a01000000434104fad31d12095067be4d3f91fea378af68fe307b4858f4949d9751d02f4e056d3df51079dab6a5de3e219a7d901084299115b4826370c9da48a9a98c309cf08518ac00000000"
    }
  ]
}