{
  "hash": "00000000c112fdf3d5bf38d58944c1eeeaa06e77986351a835dd442129c96baf",
  "confirmations": 46425,
  "height": 6673,
  "version": 1,
  "versionHex": "00000001",
  "merkleroot": "49bc560e92ab334eb6c173800158a9fce1ab7e2aac0db0ec78fc07d11c5422fb",
  "time": 1236463588,
  "mediantime": 1236457953,
  "nonce": 1360655658,
  "bits": "1d00ffff",
  "difficulty": 1,
  "chainwork": "00000000000000000000000000000000000000000000000000001a121a121a12",
  "nTx": 1,
  "previousblockhash": "00000000487ec590554cb1f4771dc6f54f9796989a736fc164778e3807d75c51",
  "nextblockhash": "00000000d38aa0ceedf6d3f41b61e7c66f4ddbe7b4eb75ada23e47b4fb9c2fa9",
  "strippedsize": 216,
  "size": 216,
  "weight": 864,
  "tx": [
    {
      "txid": "49bc560e92ab334eb6c173800158a9fce1ab7e2aac0db0ec78fc07d11c5422fb",
      "hash": "49bc560e92ab334eb6c173800158a9fce1ab7e2aac0db0ec78fc07d11c5422fb",
      "version": 1,
      "size": 135,
      "vsize": 135,
      "weight": 540,
      "locktime": 0,
      "vin": [
        {
          "coinbase": "04ffff001d027706",
          "sequence": 4294967295
        }
      ],
      "vout": [
        {
          "value": 50.0,
          "n": 0,
          "scriptPubKey": {
            "asm": "04c176f9e55ba73970f26185da4728517f0c9390c8e3c44b2ba0c63d1a42cceccfcacf4b3331e2f5c83d8f3cb9665a2ee5bbb3fc8eca6e1afc6cac85a51a382637 OP_CHECKSIG",
            "desc": "pk(04c176f9e55ba73970f26185da4728517f0c9390c8e3c44b2ba0c63d1a42cceccfcacf4b3331e2f5c83d8f3cb9665a2ee5bbb3fc8eca6e1afc6cac85a51a382637)#8emqtnlp",
            "hex": "4104c176f9e55ba73970f26185da4728517f0c9390c8e3c44b2ba0c63d1a42cceccfcacf4b3331e2f5c83d8f3cb9665a2ee5bbb3fc8eca6e1afc6cac85a51a382637ac",
            "type": "pubkey"
          }
        }
      ],
      "hex": "01000000010000000000000000000000000000000000000000000000000000000000000000ffffffff0804ffff001d027706ffffffff0100f2052a01000000434104c176f9e55ba73970f26185da4728517f0c9390c8e3c44b2ba0c63d1a42cceccfcacf4b3331e2f5c83d8f3cb9665a2ee5bbb3fc8eca6e1afc6cac85a51a382637ac00000000"
    }
  ]
}