{
  "hash": "0000000067581e59bebbbca4fbf396f7395cb89e4470d3875fc3d28198b464b8",
  "confirmations": 51666,
  "height": 1432,
  "version": 1,
  "versionHex": "00000001",
  "merkleroot": "129de0c39f9da51a127143f2764878a63ad75b507cda70daa4b95e5fd598731f",
  "time": 1232738782,
  "mediantime": 1232736096,
  "nonce": 3919140142,
  "bits": "1d00ffff",
  "difficulty": 1,
  "chainwork": "0000000000000000000000000000000000000000000000000000059905990599",
  "nTx": 1,
  "previousblockhash": "000000000f74612866d64e628be188be845fb0a1fd8a0842ff4c7dd44fd1565d",
  "nextblockhash": "0000000072c277adb4922170496fe2f181fd6b3c66103f8284e01818374aaf34",
  "strippedsize": 215,
  "size": 215,
  "weight": 860,
  "tx": [
    {
      "txid": "129de0c39f9da51a127143f2764878a63ad75b507cda70daa4b95e5fd598731f",
      "hash": "129de0c39f9da51a127143f2764878a63ad75b507cda70daa4b95e5fd598731f",
      "version": 1,
      "size": 134,
      "vsize": 134,
      "weight": 536,
      "locktime": 0,
      "vin": [
        {
          "coinbase": "04ffff001d0171",
          "sequence": 4294967295
        }
      ],
      "vout": [
        {
          "value": 50.0,
          "n": 0,
          "scriptPubKey": {
            "asm": "0460ca3aea6c0305e14bd2580fabf2425b1303815dc371baa4983055c5f226abcdf35aafcb67f436d5828e37e8a22da4f39283d69dd2698978af2e3ba110301333 OP_CHECKSIG",
            "desc": "pk(0460ca3aea6c0305e14bd2580fabf2425b1303815dc371baa4983055c5f226abcdf35aafcb67f436d5828e37e8a22da4f39283d69dd2698978af2e3ba110301333)#e68hj50s",
            "hex": "410460ca3aea6c0305e14bd2580fabf2425b1303815dc371baa4983055c5f226abcdf35aafcb67f436d5828e37e8a22da4f39283d69dd2698978af2e3ba110301333ac",
            "type": "pubkey"
          }
        }
      ],
      "hex": "01000000010000000000000000000000000000000000000000000000000000000000000000ffffffff0704ffff001d0171ffffffff0100f2052a0100000043410460ca3aea6c0305e14bd2580fabf2425b1303815dc371baa4983055c5f226abcdf35aafcb67f436d5828e37e8a22da4f39283d69dd2698978af2e3ba110301333ac00000000"
    }
  ]
}