{
  "hash": "00000000a2f73f89957afec478a73c5227f9b7a1f697de7f71bc1f9c9c9cf419",
  "confirmations": 52491,
  "height": 607,
  "version": 1,
  "versionHex": "00000001",
  "merkleroot": "93e6ca940b4d5547230df9b9e1ca02408cbaa036ea69c517ad9890f9ddc92369",
  "time": 1232042393,
  "mediantime": 1232040312,
  "nonce": 36680835,
  "bits": "1d00ffff",
  "difficulty": 1,
  "chainwork": "0000000000000000000000000000000000000000000000000000026002600260",
  "nTx": 1,
  "previousblockhash": "000000008aabb7df8289ae5fea5e3a5ddb5ae9725193d6421d5e9abf42a8272c",
  "nextblockhash": "000000006f50d6c328e0438358991d8905cb372d06dfdfb40b61ab67490b85a9",
  "strippedsize": 215,
  "size": 215,
  "weight": 860,
  "tx": [
    {
      "txid": "93e6ca940b4d5547230df9b9e1ca02408cbaa036ea69c517ad9890f9ddc92369",
      "hash": "93e6ca940b4d5547230df9b9e1ca02408cbaa036ea69c517ad9890f9ddc92369",
      "version": 1,
      "size": 134,
      "vsize": 134,
      "weight": 536,
      "locktime": 0,
      "vin": [
        {
          "coinbase": "04ffff001d010f",
          "sequence": 4294967295
        }
      ],
      "vout": [
        {
          "value": 50.0,
          "n": 0,
          "scriptPubKey": {
            "asm": "046ce6e0dbe701bbb55e8abef5904d6db50a0f0ac0825a04c224d4851e8921d730d0045650fc19703f2bd67a6ad45cbd22a8b99c3e38ab939e228e84471d197a54 OP_CHECKSIG",
            "desc": "pk(046ce6e0dbe701bbb55e8abef5904d6db50a0f0ac0825a04c224d4851e8921d730d0045650fc19703f2bd67a6ad45cbd22a8b99c3e38ab939e228e84471d197a54)#xcju8w66",
            "hex": "41046ce6e0dbe701bbb55e8abef5904d6db50a0f0ac0825a04c224d4851e8921d730d0045650fc19703f2bd67a6ad45cbd22a8b99c3e38ab939e228e84471d197a54ac",
            "type": "pubkey"
          }
        }
      ],
      "hex": "01000000010000000000000000000000000000000000000000000000000000000000000000ffffffff0704ffff001d010fffffffff0100f2052a010000004341046ce6e0dbe701bbb55e8abef5904d6db50a0f0ac0825a04c224d4851e8921d730d0045650fc19703f2bd67a6ad45cbd22a8b99c3e38ab939e228e84471d197a54ac00000000"
    }
  ]
}