{
  "hash": "000000009befcfc715b95f5bd59e81a90de2a8e465d3e814a53321bd003f4849",
  "confirmations": 43503,
  "height": 9595,
  "version": 1,
  "versionHex": "00000001",
  "merkleroot": "4395f5a0b22929bbf3a2a68c88c6aab303810a96626387ed5f5a141020a7da8d",
  "time": 1238696692,
  "mediantime": 1238693631,
  "nonce": 2173054258,
  "bits": "1d00ffff",
  "difficulty": 1,
  "chainwork": "0000000000000000000000000000000000000000000000000000257c257c257c",
  "nTx": 1,
  "previousblockhash": "00000000d4845af70264d790ac5fe2e8911eec5be26795a29df65eef1bc1a788",
  "nextblockhash": "0000000028f4d8160b371beea8a1cc36b026aaeff1c9e4bf0d05cfa5dc4599fd",
  "strippedsize": 216,
  "size": 216,
  "weight": 864,
  "tx": [
    {
      "txid": "4395f5a0b22929bbf3a2a68c88c6aab303810a96626387ed5f5a141020a7da8d",
      "hash": "4395f5a0b22929bbf3a2a68c88c6aab303810a96626387ed5f5a141020a7da8d",
      "version": 1,
      "size": 135,
      "vsize": 135,
      "weight": 540,
      "locktime": 0,
      "vin": [
        {
          "coinbase": "04ffff001d02f906",
          "sequence": 4294967295
        }
      ],
      "vout": [
        {
          "value": 50.0,
          "n": 0,
          "scriptPubKey": {
            "asm": "0418c62810b757e7d522ab7e58686c24622d43e46e3fefada2ca270e8b7f869bcb466c10f1f649d0304aed8a3d186477e13faae4e786a6177c4a83082f3744fabe OP_CHECKSIG",
            "desc": "pk(0418c62810b757e7d522ab7e58686c24622d43e46e3fefada2ca270e8b7f869bcb466c10f1f649d0304aed8a3d186477e13faae4e786a6177c4a83082f3744fabe)#kmdecs43",
            "hex": "410418c62810b757e7d522ab7e58686c24622d43e46e3fefada2ca270e8b7f869bcb466c10f1f649d0304aed8a3d186477e13faae4e786a6177c4a83082f3744fabeac",
            "type": "pubkey"
          }
        }
      ],
      "hex": "01000000010000000000000000000000000000000000000000000000000000000000000000ffffffff0804ffff001d02f906ffffffff0100f2052a0100000043410418c62810b757e7d522ab7e58686c24622d43e46e3fefada2ca270e8b7f869bcb466c10f1f649d0304aed8a3d186477e13faae4e786a6177c4a83082f3744fabeac00000000"
    }
  ]
}