{
  "hash": "0000000039989e90ab5f258f9f64b385a9ee5d7d4aaea1bff29b10b9867489bb",
  "confirmations": 45701,
  "height": 7397,
  "version": 1,
  "versionHex": "00000001",
  "merkleroot": "f6b1f07af67a250ad479729aa0c162c8b88a770b65fb740229050d80fbd01f9f",
  "time": 1237020796,
  "mediantime": 1237016632,
  "nonce": 1275356699,
  "bits": "1d00ffff",
  "difficulty": 1,
  "chainwork": "00000000000000000000000000000000000000000000000000001ce61ce61ce6",
  "nTx": 1,
  "previousblockhash": "00000000bbed24cd71f0648b28b23d9c8f435fefbfc52653425bee41797c05f4",
  "nextblockhash": "00000000b2dbe08506622dfe67e00afcd15f202d8a27f8971f45adcdfd03d22e",
  "strippedsize": 216,
  "size": 216,
  "weight": 864,
  "tx": [
    {
      "txid": "f6b1f07af67a250ad479729aa0c162c8b88a770b65fb740229050d80fbd01f9f",
      "hash": "f6b1f07af67a250ad479729aa0c162c8b88a770b65fb740229050d80fbd01f9f",
      "version": 1,
      "size": 135,
      "vsize": 135,
      "weight": 540,
      "locktime": 0,
      "vin": [
        {
          "coinbase": "04ffff001d025809",
          "sequence": 4294967295
        }
      ],
      "vout": [
        {
          "value": 50.0,
          "n": 0,
          "scriptPubKey": {
            "asm": "04640f2fbf159642a9242e158f2d6b5fa56d568b443c4fe32fa479df512ec160dbf6ddc5e33e0b4e83193dced99d360958b9950e6ab1fc95bbf940b22ea8fba2f0 OP_CHECKSIG",
            "desc": "pk(04640f2fbf159642a9242e158f2d6b5fa56d568b443c4fe32fa479df512ec160dbf6ddc5e33e0b4e83193dced99d360958b9950e6ab1fc95bbf940b22ea8fba2f0)#2txkk44t",
            "hex": "4104640f2fbf159642a9242e158f2d6b5fa56d568b443c4fe32fa479df512ec160dbf6ddc5e33e0b4e83193dced99d360958b9950e6ab1fc95bbf940b22ea8fba2f0ac",
            "type": "pubkey"
          }
        }
      ],
      "hex": "01000000010000000000000000000000000000000000000000000000000000000000000000ffffffff0804ffff001d025809ffffffff0100f2052a01000000434104640f2fbf159642a9242e158f2d6b5fa56d568b443c4fe32fa479df512ec160dbf6ddc5e33e0b4e83193dced99d360958b9950e6ab1fc95bbf940b22ea8fba2f0ac00000000"
    }
  ]
}