{
  "hash": "000000009519fbcc388f5c1d628bc9a5c8fdd116324036fa2bf8aea4382ae80d",
  "confirmations": 43638,
  "height": 9460,
  "version": 1,
  "versionHex": "00000001",
  "merkleroot": "c38e607853f51b55e53d301a91dff7e5ddecd252d1de509f4fe4db954b086a13",
  "time": 1238599706,
  "mediantime": 1238596788,
  "nonce": 2306497326,
  "bits": "1d00ffff",
  "difficulty": 1,
  "chainwork": "000000000000000000000000000000000000000000000000000024f524f524f5",
  "nTx": 1,
  "previousblockhash": "000000001d3886614e9dbab5293afac6660faff517469a89d44dfefa0ea64316",
  "nextblockhash": "00000000f662b4d022641b61705fd966ca2f7aac65bea9ab49d202177a9b5a1f",
  "strippedsize": 216,
  "size": 216,
  "weight": 864,
  "tx": [
    {
      "txid": "c38e607853f51b55e53d301a91dff7e5ddecd252d1de509f4fe4db954b086a13",
      "hash": "c38e607853f51b55e53d301a91dff7e5ddecd252d1de509f4fe4db954b086a13",
      "version": 1,
      "size": 135,
      "vsize": 135,
      "weight": 540,
      "locktime": 0,
      "vin": [
        {
          "coinbase": "04ffff001d02b504",
          "sequence": 4294967295
        }
      ],
      "vout": [
        {
          "value": 50.0,
          "n": 0,
          "scriptPubKey": {
            "asm": "042ea4c2bf880a58b7c45466d86be02e40c63875a95e50d0ea281a5e958b0b2a366f81094f816885550a8f4c5d02785062a0654551495e1acfd398648660bfb80c OP_CHECKSIG",
            "desc": "pk(042ea4c2bf880a58b7c45466d86be02e40c63875a95e50d0ea281a5e958b0b2a366f81094f816885550a8f4c5d02785062a0654551495e1acfd398648660bfb80c)#l7f38a2v",
            "hex": "41042ea4c2bf880a58b7c45466d86be02e40c63875a95e50d0ea281a5e958b0b2a366f81094f816885550a8f4c5d02785062a0654551495e1acfd398648660bfb80cac",
            "type": "pubkey"
          }
        }
      ],
      "hex": "01000000010000000000000000000000000000000000000000000000000000000000000000ffffffff0804ffff001d02b504ffffffff0100f2052a010000004341042ea4c2bf880a58b7c45466d86be02e40c63875a95e50d0ea281a5e958b0b2a366f81094f816885550a8f4c5d02785062a0654551495e1acfd398648660bfb80cac00000000"
    }
  ]
}