{
  "hash": "00000000fd696b6e57923b8092ad44514cd32838469f365bee47dce3f3821570",
  "confirmations": 52128,
  "height": 970,
  "version": 1,
  "versionHex": "00000001",
  "merkleroot": "b46de6060da7cfd84e39853864de3dbf3b8ebcf02df6adffbe3949032705e698",
  "time": 1232326840,
  "mediantime": 1232323275,
  "nonce": 1679607597,
  "bits": "1d00ffff",
  "difficulty": 1,
  "chainwork": "000000000000000000000000000000000000000000000000000003cb03cb03cb",
  "nTx": 1,
  "previousblockhash": "0000000069ed32a4d4ad130aa267687f78b25236c5efd1d54abf65a7ee1fa0c0",
  "nextblockhash": "00000000aac7cc93d4935b998ef0e443670fa85fca631e0441595f9044873597",
  "strippedsize": 216,
  "size": 216,
  "weight": 864,
  "tx": [
    {
      "txid": "b46de6060da7cfd84e39853864de3dbf3b8ebcf02df6adffbe3949032705e698",
      "hash": "b46de6060da7cfd84e39853864de3dbf3b8ebcf02df6adffbe3949032705e698",
      "version": 1,
      "size": 135,
      "vsize": 135,
      "weight": 540,
      "locktime": 0,
      "vin": [
        {
          "coinbase": "04ffff001d02ad04",
          "sequence": 4294967295
        }
      ],
      "vout": [
        {
          "value": 50.0,
          "n": 0,
          "scriptPubKey": {
            "asm": "04fe64cae6bfae6e6b447d2f14bef52c8ab36981f1ab20c16b55557a80f6685a5958c8a26b71c9140adc8b8a9ef957115bcc5113b0fbdaf53065f25a7f1dccb372 OP_CHECKSIG",
            "desc": "pk(04fe64cae6bfae6e6b447d2f14bef52c8ab36981f1ab20c16b55557a80f6685a5958c8a26b71c9140adc8b8a9ef957115bcc5113b0fbdaf53065f25a7f1dccb372)#gatfytw8",
            "hex": "4104fe64cae6bfae6e6b447d2f14bef52c8ab36981f1ab20c16b55557a80f6685a5958c8a26b71c9140adc8b8a9ef957115bcc5113b0fbdaf53065f25a7f1dccb372ac",
            "type": "pubkey"
          }
        }
      ],
      "hex": "01000000010000000000000000000000000000000000000000000000000000000000000000ffffffff0804ffff001d02ad04ffffffff0100f2052a01000000434104fe64cae6bfae6e6b447d2f14bef52c8ab36981f1ab20c16b55557a80f6685a5958c8a26b71c9140adc8b8a9ef957115bcc5113b0fbdaf53065f25a7f1dccb372ac00000000"
    }
  ]
}