{
  "hash": "00000000bb8f23edadfd9aa1a5b30c8de4379646000e61b1f35daf1f16eba782",
  "confirmations": 47658,
  "height": 5440,
  "version": 1,
  "versionHex": "00000001",
  "merkleroot": "bb5dd416e3243a392dd3bce967e505b33b6b582df7a30a12e13d4de316920a50",
  "time": 1235474247,
  "mediantime": 1235468537,
  "nonce": 3305560112,
  "bits": "1d00ffff",
  "difficulty": 1,
  "chainwork": "0000000000000000000000000000000000000000000000000000154115411541",
  "nTx": 1,
  "previousblockhash": "0000000004b8ac72396dc937b7e1ba3153917fcb0139b6896150bc4885c556a9",
  "nextblockhash": "00000000ed6673488f06a571ff3a22352bc6e713f88958bc178d3766f067862e",
  "strippedsize": 216,
  "size": 216,
  "weight": 864,
  "tx": [
    {
      "txid": "bb5dd416e3243a392dd3bce967e505b33b6b582df7a30a12e13d4de316920a50",
      "hash": "bb5dd416e3243a392dd3bce967e505b33b6b582df7a30a12e13d4de316920a50",
      "version": 1,
      "size": 135,
      "vsize": 135,
      "weight": 540,
      "locktime": 0,
      "vin": [
        {
          "coinbase": "04ffff001d027704",
          "sequence": 4294967295
        }
      ],
      "vout": [
        {
          "value": 50.0,
          "n": 0,
          "scriptPubKey": {
            "asm": "04265edd8617ba1da8ce2956445ff7504ed6c3c9ef4da85d17d2547fa528b30409ffc6aa99f85d6efee616c929030999a345ae156516e7c3d472b006e78f5b1eb5 OP_CHECKSIG",
            "desc": "pk(04265edd8617ba1da8ce2956445ff7504ed6c3c9ef4da85d17d2547fa528b30409ffc6aa99f85d6efee616c929030999a345ae156516e7c3d472b006e78f5b1eb5)#fmjk5zlx",
            "hex": "4104265edd8617ba1da8ce2956445ff7504ed6c3c9ef4da85d17d2547fa528b30409ffc6aa99f85d6efee616c929030999a345ae156516e7c3d472b006e78f5b1eb5ac",
            "type": "pubkey"
          }
        }
      ],
      "hex": "01000000010000000000000000000000000000000000000000000000000000000000000000ffffffff0804ffff001d027704ffffffff0100f2052a01000000434104265edd8617ba1da8ce2956445ff7504ed6c3c9ef4da85d17d2547fa528b30409ffc6aa99f85d6efee616c929030999a345ae156516e7c3d472b006e78f5b1eb5ac00000000"
    }
  ]
}