{
  "hash": "00000000392b1048b2297c6fcf31d2f0e1cdb3794a64594a136a2019a668be2d",
  "confirmations": 48037,
  "height": 5061,
  "version": 1,
  "versionHex": "00000001",
  "merkleroot": "763c728e452f4f59777307a703cd73b92c35e03587d7cbc7ccc15d75962c0d4a",
  "time": 1235184459,
  "mediantime": 1235181959,
  "nonce": 3568893235,
  "bits": "1d00ffff",
  "difficulty": 1,
  "chainwork": "000000000000000000000000000000000000000000000000000013c613c613c6",
  "nTx": 1,
  "previousblockhash": "000000007abf4c8c2a728e434a329be762197f8b4ee3b6032de990d9e98786c0",
  "nextblockhash": "0000000098e574e8c06d4c1748cb547be98c6b725e642efab628f8b0601a7017",
  "strippedsize": 216,
  "size": 216,
  "weight": 864,
  "tx": [
    {
      "txid": "763c728e452f4f59777307a703cd73b92c35e03587d7cbc7ccc15d75962c0d4a",
      "hash": "763c728e452f4f59777307a703cd73b92c35e03587d7cbc7ccc15d75962c0d4a",
      "version": 1,
      "size": 135,
      "vsize": 135,
      "weight": 540,
      "locktime": 0,
      "vin": [
        {
          "coinbase": "04ffff001d020f08",
          "sequence": 4294967295
        }
      ],
      "vout": [
        {
          "value": 50.0,
          "n": 0,
          "scriptPubKey": {
            "asm": "0414625f36904e5c1f2c670fc280a5c75b78f2ff7b57119b1c6b0a520fd3e2aa2c754f9ad8723189bc063aa6f8feb769ba769c02efeb847ad69b476c50e36a2f4a OP_CHECKSIG",
            "desc": "pk(0414625f36904e5c1f2c670fc280a5c75b78f2ff7b57119b1c6b0a520fd3e2aa2c754f9ad8723189bc063aa6f8feb769ba769c02efeb847ad69b476c50e36a2f4a)#x3gr87lf",
            "hex": "410414625f36904e5c1f2c670fc280a5c75b78f2ff7b57119b1c6b0a520fd3e2aa2c754f9ad8723189bc063aa6f8feb769ba769c02efeb847ad69b476c50e36a2f4aac",
            "type": "pubkey"
          }
        }
      ],
      "hex": "01000000010000000000000000000000000000000000000000000000000000000000000000ffffffff0804ffff001d020f08ffffffff0100f2052a0100000043410414625f36904e5c1f2c670fc280a5c75b78f2ff7b57119b1c6b0a520fd3e2aa2c754f9ad8723189bc063aa6f8feb769ba769c02efeb847ad69b476c50e36a2f4aac00000000"
    }
  ]
}