{
  "hash": "00000000970a3b8dd07707ab6707a616a6f70e23bc63a273533166468cd407b6",
  "confirmations": 44040,
  "height": 9058,
  "version": 1,
  "versionHex": "00000001",
  "merkleroot": "5fd74dde8b521211e3671e99e49412b7faf9c6ac298a63a73840af9d94fd365d",
  "time": 1238300745,
  "mediantime": 1238295965,
  "nonce": 4097954327,
  "bits": "1d00ffff",
  "difficulty": 1,
  "chainwork": "0000000000000000000000000000000000000000000000000000236323632363",
  "nTx": 1,
  "previousblockhash": "000000007463719f5e0ecc07bd6d5c5c0d3fd567025b1af9f545943270ea4dae",
  "nextblockhash": "00000000eb8c12cc256bf23dc6cf4769463757e65db3683277513fe5a3597a63",
  "strippedsize": 216,
  "size": 216,
  "weight": 864,
  "tx": [
    {
      "txid": "5fd74dde8b521211e3671e99e49412b7faf9c6ac298a63a73840af9d94fd365d",
      "hash": "5fd74dde8b521211e3671e99e49412b7faf9c6ac298a63a73840af9d94fd365d",
      "version": 1,
      "size": 135,
      "vsize": 135,
      "weight": 540,
      "locktime": 0,
      "vin": [
        {
          "coinbase": "04ffff001d027107",
          "sequence": 4294967295
        }
      ],
      "vout": [
        {
          "value": 50.0,
          "n": 0,
          "scriptPubKey": {
            "asm": "044c65399eecc0d91ef9251ba564b39e93286eebfbf1426704fdff40a3f8f0a42a2723631e1f4495f28bbec08c79366b2c839f32e9fee8df8889b2abf6f1aa91eb OP_CHECKSIG",
            "desc": "pk(044c65399eecc0d91ef9251ba564b39e93286eebfbf1426704fdff40a3f8f0a42a2723631e1f4495f28bbec08c79366b2c839f32e9fee8df8889b2abf6f1aa91eb)#zg4rtach",
            "hex": "41044c65399eecc0d91ef9251ba564b39e93286eebfbf1426704fdff40a3f8f0a42a2723631e1f4495f28bbec08c79366b2c839f32e9fee8df8889b2abf6f1aa91ebac",
            "type": "pubkey"
          }
        }
      ],
      "hex": "01000000010000000000000000000000000000000000000000000000000000000000000000ffffffff0804ffff001d027107ffffffff0100f2052a010000004341044c65399eecc0d91ef9251ba564b39e93286eebfbf1426704fdff40a3f8f0a42a2723631e1f4495f28bbec08c79366b2c839f32e9fee8df8889b2abf6f1aa91ebac00000000"
    }
  ]
}