{
  "hash": "0000000021d3b1decac58027e42da53c9540d3568a8c12f4f03d2e2a5c752814",
  "confirmations": 45154,
  "height": 7944,
  "version": 1,
  "versionHex": "00000001",
  "merkleroot": "d5bdcfbd5445c4d1be3c76e802e3180c59c04ebc68424542f2d6230ab0911fb5",
  "time": 1237423549,
  "mediantime": 1237419496,
  "nonce": 4079031323,
  "bits": "1d00ffff",
  "difficulty": 1,
  "chainwork": "00000000000000000000000000000000000000000000000000001f091f091f09",
  "nTx": 1,
  "previousblockhash": "00000000589999eb514dc14d0a4bdd5b3c6f69b8077ce63909862fc4782f9897",
  "nextblockhash": "0000000021d65a95f991084f2da13678dccb6f9ad438812ee0f67571fdb58e7f",
  "strippedsize": 216,
  "size": 216,
  "weight": 864,
  "tx": [
    {
      "txid": "d5bdcfbd5445c4d1be3c76e802e3180c59c04ebc68424542f2d6230ab0911fb5",
      "hash": "d5bdcfbd5445c4d1be3c76e802e3180c59c04ebc68424542f2d6230ab0911fb5",
      "version": 1,
      "size": 135,
      "vsize": 135,
      "weight": 540,
      "locktime": 0,
      "vin": [
        {
          "coinbase": "04ffff001d025f08",
          "sequence": 4294967295
        }
      ],
      "vout": [
        {
          "value": 50.0,
          "n": 0,
          "scriptPubKey": {
            "asm": "040300797b0608dabfe52a92b0e503e90ea458d67a66c6991566fc5a78800273f3e85be36d1b582aea44d30720b4d261f04c5d61d1b7950cad2fd35c5057e3b248 OP_CHECKSIG",
            "desc": "pk(040300797b0608dabfe52a92b0e503e90ea458d67a66c6991566fc5a78800273f3e85be36d1b582aea44d30720b4d261f04c5d61d1b7950cad2fd35c5057e3b248)#xxxve76s",
            "hex": "41040300797b0608dabfe52a92b0e503e90ea458d67a66c6991566fc5a78800273f3e85be36d1b582aea44d30720b4d261f04c5d61d1b7950cad2fd35c5057e3b248ac",
            "type": "pubkey"
          }
        }
      ],
      "hex": "01000000010000000000000000000000000000000000000000000000000000000000000000ffffffff0804ffff001d025f08ffffffff0100f2052a010000004341040300797b0608dabfe52a92b0e503e90ea458d67a66c6991566fc5a78800273f3e85be36d1b582aea44d30720b4d261f04c5d61d1b7950cad2fd35c5057e3b248ac00000000"
    }
  ]
}