{
  "hash": "0000000035981d26f072cea02a0cb67897b896229b1436e0009cb9c4c20a4ee9",
  "confirmations": 52065,
  "height": 271,
  "version": 1,
  "versionHex": "00000001",
  "merkleroot": "2279d42002c293eeed5f24f5235ab8c417d6d7995fd99f435664e60a49fb615f",
  "time": 1231809900,
  "mediantime": 1231806170,
  "nonce": 504715776,
  "bits": "1d00ffff",
  "difficulty": 1,
  "chainwork": "0000000000000000000000000000000000000000000000000000011001100110",
  "nTx": 1,
  "previousblockhash": "00000000c88cd451d53ba12b50e85e2c1d0381458e22813012bbd571b86f7920",
  "nextblockhash": "00000000d4e581b02a90ab3f2f45723aea64f341908a767c33968219b9900ef1",
  "strippedsize": 216,
  "size": 216,
  "weight": 864,
  "tx": [
    {
      "txid": "2279d42002c293eeed5f24f5235ab8c417d6d7995fd99f435664e60a49fb615f",
      "hash": "2279d42002c293eeed5f24f5235ab8c417d6d7995fd99f435664e60a49fb615f",
      "version": 1,
      "size": 135,
      "vsize": 135,
      "weight": 540,
      "locktime": 0,
      "vin": [
        {
          "coinbase": "04ffff001d027a01",
          "sequence": 4294967295
        }
      ],
      "vout": [
        {
          "value": 50.0,
          "n": 0,
          "scriptPubKey": {
            "asm": "044372a94454424e60b5a948762118564395796e90e41fc8e16320f7a529bb28c2d677cba16645b5dda191b649ac71c14068730c2d6d13731c807282221f902c2b OP_CHECKSIG",
            "desc": "pk(044372a94454424e60b5a948762118564395796e90e41fc8e16320f7a529bb28c2d677cba16645b5dda191b649ac71c14068730c2d6d13731c807282221f902c2b)#l6rzrs4f",
            "hex": "41044372a94454424e60b5a948762118564395796e90e41fc8e16320f7a529bb28c2d677cba16645b5dda191b649ac71c14068730c2d6d13731c807282221f902c2bac",
            "type": "pubkey"
          }
        }
      ],
      "hex": "01000000010000000000000000000000000000000000000000000000000000000000000000ffffffff0804ffff001d027a01ffffffff0100f2052a010000004341044372a94454424e60b5a948762118564395796e90e41fc8e16320f7a529bb28c2d677cba16645b5dda191b649ac71c14068730c2d6d13731c807282221f902c2bac00000000"
    }
  ]
}