{
  "hash": "000000009d2a75607f575992ff49383af412b8d849673c9503722e587e52b161",
  "confirmations": 43839,
  "height": 9259,
  "version": 1,
  "versionHex": "00000001",
  "merkleroot": "7739a807b516e0eb04074ff80fb67f9c6451a2e80843c16eff56b78aaff5541a",
  "time": 1238441226,
  "mediantime": 1238437413,
  "nonce": 2848478502,
  "bits": "1d00ffff",
  "difficulty": 1,
  "chainwork": "0000000000000000000000000000000000000000000000000000242c242c242c",
  "nTx": 1,
  "previousblockhash": "00000000c04946d09e9072226bd5c8ee8708473540d055ce9119a75a614b260c",
  "nextblockhash": "0000000044b9ee1c99affa95e9a1f4110b79463219c83792a446979fff27ca7f",
  "strippedsize": 216,
  "size": 216,
  "weight": 864,
  "tx": [
    {
      "txid": "7739a807b516e0eb04074ff80fb67f9c6451a2e80843c16eff56b78aaff5541a",
      "hash": "7739a807b516e0eb04074ff80fb67f9c6451a2e80843c16eff56b78aaff5541a",
      "version": 1,
      "size": 135,
      "vsize": 135,
      "weight": 540,
      "locktime": 0,
      "vin": [
        {
          "coinbase": "04ffff001d020d01",
          "sequence": 4294967295
        }
      ],
      "vout": [
        {
          "value": 50.0,
          "n": 0,
          "scriptPubKey": {
            "asm": "04e95ed1a7013b48ca943f2d33b7b36030b346e0e7b25e9c49332eebb73b2d7a333f43eaa635d98a2c895f2b017470bb83e71dab694bbfcbcefd66e69ed4adb3e8 OP_CHECKSIG",
            "desc": "pk(04e95ed1a7013b48ca943f2d33b7b36030b346e0e7b25e9c49332eebb73b2d7a333f43eaa635d98a2c895f2b017470bb83e71dab694bbfcbcefd66e69ed4adb3e8)#un4lk5cl",
            "hex": "4104e95ed1a7013b48ca943f2d33b7b36030b346e0e7b25e9c49332eebb73b2d7a333f43eaa635d98a2c895f2b017470bb83e71dab694bbfcbcefd66e69ed4adb3e8ac",
            "type": "pubkey"
          }
        }
      ],
      "hex": "01000000010000000000000000000000000000000000000000000000000000000000000000ffffffff0804ffff001d020d01ffffffff0100f2052a01000000434104e95ed1a7013b48ca943f2d33b7b36030b346e0e7b25e9c49332eebb73b2d7a333f43eaa635d98a2c895f2b017470bb83e71dab694bbfcbcefd66e69ed4adb3e8ac00000000"
    }
  ]
}