{
  "hash": "00000000fdaf27ae132f0cf004f7e60befff1df056ef9dd7b3b3ee6b11741609",
  "confirmations": 43321,
  "height": 9777,
  "version": 1,
  "versionHex": "00000001",
  "merkleroot": "afe6afa1b41edb26a29a5f69fbf13a760cfef8ddc53321c157cd6047ea27d35a",
  "time": 1238838721,
  "mediantime": 1238835416,
  "nonce": 742223619,
  "bits": "1d00ffff",
  "difficulty": 1,
  "chainwork": "0000000000000000000000000000000000000000000000000000263226322632",
  "nTx": 1,
  "previousblockhash": "00000000cd0331eb9abf1d189468f0184395469dfe34e01ce6e505a64878c1d8",
  "nextblockhash": "00000000056eaac616aceb9389f9a0b4812decf2ae900d328a7262d3da52d041",
  "strippedsize": 216,
  "size": 216,
  "weight": 864,
  "tx": [
    {
      "txid": "afe6afa1b41edb26a29a5f69fbf13a760cfef8ddc53321c157cd6047ea27d35a",
      "hash": "afe6afa1b41edb26a29a5f69fbf13a760cfef8ddc53321c157cd6047ea27d35a",
      "version": 1,
      "size": 135,
      "vsize": 135,
      "weight": 540,
      "locktime": 0,
      "vin": [
        {
          "coinbase": "04ffff001d022b0a",
          "sequence": 4294967295
        }
      ],
      "vout": [
        {
          "value": 50.0,
          "n": 0,
          "scriptPubKey": {
            "asm": "0450e0a1bbe7066d289802cb4ec8d39d4a7e09e635a4fabcc6ef1e2956b896d702e5e89805a37fa39a8f27ce8a08acc57f6713c17cbb342fcf7dfbe5ebf8cd0a04 OP_CHECKSIG",
            "desc": "pk(0450e0a1bbe7066d289802cb4ec8d39d4a7e09e635a4fabcc6ef1e2956b896d702e5e89805a37fa39a8f27ce8a08acc57f6713c17cbb342fcf7dfbe5ebf8cd0a04)#3q9f5qsc",
            "hex": "410450e0a1bbe7066d289802cb4ec8d39d4a7e09e635a4fabcc6ef1e2956b896d702e5e89805a37fa39a8f27ce8a08acc57f6713c17cbb342fcf7dfbe5ebf8cd0a04ac",
            "type": "pubkey"
          }
        }
      ],
      "hex": "01000000010000000000000000000000000000000000000000000000000000000000000000ffffffff0804ffff001d022b0affffffff0100f2052a0100000043410450e0a1bbe7066d289802cb4ec8d39d4a7e09e635a4fabcc6ef1e2956b896d702e5e89805a37fa39a8f27ce8a08acc57f6713c17cbb342fcf7dfbe5ebf8cd0a04ac00000000"
    }
  ]
}