{
  "hash": "000000000bdef3b2f2cf98e7dfbbf1d2c2301f6174797c80fe447218e138364d",
  "confirmations": 52116,
  "height": 982,
  "version": 1,
  "versionHex": "00000001",
  "merkleroot": "49f9a1d850f86726acdd68273fd2e33f85c2210c15f36b1eb9d818a07139edee",
  "time": 1232336991,
  "mediantime": 1232332553,
  "nonce": 1606991394,
  "bits": "1d00ffff",
  "difficulty": 1,
  "chainwork": "000000000000000000000000000000000000000000000000000003d703d703d7",
  "nTx": 1,
  "previousblockhash": "000000007f030f9dc40eb3c9b3b5aea163105bee02fa6f539c5ee7cab649f944",
  "nextblockhash": "00000000bf6d26fb6d73d9473701ad8452bc39e0c2e98a5a4007bdcea01c23dc",
  "strippedsize": 216,
  "size": 216,
  "weight": 864,
  "tx": [
    {
      "txid": "49f9a1d850f86726acdd68273fd2e33f85c2210c15f36b1eb9d818a07139edee",
      "hash": "49f9a1d850f86726acdd68273fd2e33f85c2210c15f36b1eb9d818a07139edee",
      "version": 1,
      "size": 135,
      "vsize": 135,
      "weight": 540,
      "locktime": 0,
      "vin": [
        {
          "coinbase": "04ffff001d02de04",
          "sequence": 4294967295
        }
      ],
      "vout": [
        {
          "value": 50.0,
          "n": 0,
          "scriptPubKey": {
            "asm": "040ff07f99f870dcc59c91e3fff4eff6d9c560391656a834bd392f5c25b2f53bc5458cb74930ca59ba296deaf7e38fb20aace9a800276115f2103e6fc3145a6fd8 OP_CHECKSIG",
            "desc": "pk(040ff07f99f870dcc59c91e3fff4eff6d9c560391656a834bd392f5c25b2f53bc5458cb74930ca59ba296deaf7e38fb20aace9a800276115f2103e6fc3145a6fd8)#z6ax8nn8",
            "hex": "41040ff07f99f870dcc59c91e3fff4eff6d9c560391656a834bd392f5c25b2f53bc5458cb74930ca59ba296deaf7e38fb20aace9a800276115f2103e6fc3145a6fd8ac",
            "type": "pubkey"
          }
        }
      ],
      "hex": "01000000010000000000000000000000000000000000000000000000000000000000000000ffffffff0804ffff001d02de04ffffffff0100f2052a010000004341040ff07f99f870dcc59c91e3fff4eff6d9c560391656a834bd392f5c25b2f53bc5458cb74930ca59ba296deaf7e38fb20aace9a800276115f2103e6fc3145a6fd8ac00000000"
    }
  ]
}