{
  "hash": "0000000032db13a59487551ee6eb1d5c7c4005fdcee70aaa264a4cbb871dbc72",
  "confirmations": 44989,
  "height": 8109,
  "version": 1,
  "versionHex": "00000001",
  "merkleroot": "9b7629d45bd060a71d1ef91b92d9ffd0d6dd0fa112474930dd3304e32b5b4768",
  "time": 1237538067,
  "mediantime": 1237535106,
  "nonce": 2205123101,
  "bits": "1d00ffff",
  "difficulty": 1,
  "chainwork": "00000000000000000000000000000000000000000000000000001fae1fae1fae",
  "nTx": 1,
  "previousblockhash": "00000000ca67ee88220fe355b5e4e3d970c00dd5242b280c4511d7cca2bc8d59",
  "nextblockhash": "00000000ce091c5521e08f4f6160b9446a95e3b044b8d9c0be5cb22292af975b",
  "strippedsize": 216,
  "size": 216,
  "weight": 864,
  "tx": [
    {
      "txid": "9b7629d45bd060a71d1ef91b92d9ffd0d6dd0fa112474930dd3304e32b5b4768",
      "hash": "9b7629d45bd060a71d1ef91b92d9ffd0d6dd0fa112474930dd3304e32b5b4768",
      "version": 1,
      "size": 135,
      "vsize": 135,
      "weight": 540,
      "locktime": 0,
      "vin": [
        {
          "coinbase": "04ffff001d024501",
          "sequence": 4294967295
        }
      ],
      "vout": [
        {
          "value": 50.0,
          "n": 0,
          "scriptPubKey": {
            "asm": "04f751c524017e456c7430111f8c5fac5a973f3a498929b9417f42efc863c206444e2223bacdc7db11ae52303bfcb6dbcc11d30fe08dba5146d25dd2720026d559 OP_CHECKSIG",
            "desc": "pk(04f751c524017e456c7430111f8c5fac5a973f3a498929b9417f42efc863c206444e2223bacdc7db11ae52303bfcb6dbcc11d30fe08dba5146d25dd2720026d559)#rxsj8uj5",
            "hex": "4104f751c524017e456c7430111f8c5fac5a973f3a498929b9417f42efc863c206444e2223bacdc7db11ae52303bfcb6dbcc11d30fe08dba5146d25dd2720026d559ac",
            "type": "pubkey"
          }
        }
      ],
      "hex": "01000000010000000000000000000000000000000000000000000000000000000000000000ffffffff0804ffff001d024501ffffffff0100f2052a01000000434104f751c524017e456c7430111f8c5fac5a973f3a498929b9417f42efc863c206444e2223bacdc7db11ae52303bfcb6dbcc11d30fe08dba5146d25dd2720026d559ac00000000"
    }
  ]
}