{
  "hash": "000000005e0d1e0091ef61960feb9f0505ab33748ebd951095e74070f902582e",
  "confirmations": 46834,
  "height": 6264,
  "version": 1,
  "versionHex": "00000001",
  "merkleroot": "f17565abfadbffda88bcacece674cb7ea38d8421c6a767dcaa83dc0523a14539",
  "time": 1236145269,
  "mediantime": 1236140341,
  "nonce": 226354532,
  "bits": "1d00ffff",
  "difficulty": 1,
  "chainwork": "0000000000000000000000000000000000000000000000000000187918791879",
  "nTx": 1,
  "previousblockhash": "00000000037f026243cb3370690632e52be1e9bc32dd84b990443cb62b5e80f7",
  "nextblockhash": "00000000dd9da4f4a2a548c90f3cb923088ad0cfc34a81fd3ff89f53e079ed8a",
  "strippedsize": 216,
  "size": 216,
  "weight": 864,
  "tx": [
    {
      "txid": "f17565abfadbffda88bcacece674cb7ea38d8421c6a767dcaa83dc0523a14539",
      "hash": "f17565abfadbffda88bcacece674cb7ea38d8421c6a767dcaa83dc0523a14539",
      "version": 1,
      "size": 135,
      "vsize": 135,
      "weight": 540,
      "locktime": 0,
      "vin": [
        {
          "coinbase": "04ffff001d02b300",
          "sequence": 4294967295
        }
      ],
      "vout": [
        {
          "value": 50.0,
          "n": 0,
          "scriptPubKey": {
            "asm": "041c9eed79cd80189c4b15325201e5a73b21115100675057e9d3982c16c44f05da56ea5bc79fdb8ef8d5240089927efad866376f178d581bd784df2a7ba99d0c49 OP_CHECKSIG",
            "desc": "pk(041c9eed79cd80189c4b15325201e5a73b21115100675057e9d3982c16c44f05da56ea5bc79fdb8ef8d5240089927efad866376f178d581bd784df2a7ba99d0c49)#rvzhevnu",
            "hex": "41041c9eed79cd80189c4b15325201e5a73b21115100675057e9d3982c16c44f05da56ea5bc79fdb8ef8d5240089927efad866376f178d581bd784df2a7ba99d0c49ac",
            "type": "pubkey"
          }
        }
      ],
      "hex": "01000000010000000000000000000000000000000000000000000000000000000000000000ffffffff0804ffff001d02b300ffffffff0100f2052a010000004341041c9eed79cd80189c4b15325201e5a73b21115100675057e9d3982c16c44f05da56ea5bc79fdb8ef8d5240089927efad866376f178d581bd784df2a7ba99d0c49ac00000000"
    }
  ]
}