{
  "hash": "000000009eb616300c00990dfe813ab0f307e9a482d7d3fbc1c59463b2555a09",
  "confirmations": 45703,
  "height": 7395,
  "version": 1,
  "versionHex": "00000001",
  "merkleroot": "064efedf7569d635e153c5e607b83fa788417731ee6486d245eb6b18c55ff6ef",
  "time": 1237019058,
  "mediantime": 1237013824,
  "nonce": 1770443574,
  "bits": "1d00ffff",
  "difficulty": 1,
  "chainwork": "00000000000000000000000000000000000000000000000000001ce41ce41ce4",
  "nTx": 1,
  "previousblockhash": "00000000cbf4c042e284afff2148447817937c71e378bd3aa2e13778ed4bc6de",
  "nextblockhash": "00000000bbed24cd71f0648b28b23d9c8f435fefbfc52653425bee41797c05f4",
  "strippedsize": 216,
  "size": 216,
  "weight": 864,
  "tx": [
    {
      "txid": "064efedf7569d635e153c5e607b83fa788417731ee6486d245eb6b18c55ff6ef",
      "hash": "064efedf7569d635e153c5e607b83fa788417731ee6486d245eb6b18c55ff6ef",
      "version": 1,
      "size": 135,
      "vsize": 135,
      "weight": 540,
      "locktime": 0,
      "vin": [
        {
          "coinbase": "04ffff001d023809",
          "sequence": 4294967295
        }
      ],
      "vout": [
        {
          "value": 50.0,
          "n": 0,
          "scriptPubKey": {
            "asm": "040cba6dfbad51fb2fc842b2504a7f9523025b646418832c280e4493e86ef134dca28836d33dc48913c1845c033082e55295e4751a9e6bcc39215e896a9973f0c4 OP_CHECKSIG",
            "desc": "pk(040cba6dfbad51fb2fc842b2504a7f9523025b646418832c280e4493e86ef134dca28836d33dc48913c1845c033082e55295e4751a9e6bcc39215e896a9973f0c4)#wkq57wvv",
            "hex": "41040cba6dfbad51fb2fc842b2504a7f9523025b646418832c280e4493e86ef134dca28836d33dc48913c1845c033082e55295e4751a9e6bcc39215e896a9973f0c4ac",
            "type": "pubkey"
          }
        }
      ],
      "hex": "01000000010000000000000000000000000000000000000000000000000000000000000000ffffffff0804ffff001d023809ffffffff0100f2052a010000004341040cba6dfbad51fb2fc842b2504a7f9523025b646418832c280e4493e86ef134dca28836d33dc48913c1845c033082e55295e4751a9e6bcc39215e896a9973f0c4ac00000000"
    }
  ]
}