{
  "hash": "000000003b1ad46bdd2e5e919236a34cca51b26eaccd62d2dacec9a2f20a2bf9",
  "confirmations": 45601,
  "height": 7497,
  "version": 1,
  "versionHex": "00000001",
  "merkleroot": "46ac04f07be8db4fc349efb73bb6b143b59d0b767be1af6b6bf29e5527c41c9c",
  "time": 1237095895,
  "mediantime": 1237091890,
  "nonce": 1129502741,
  "bits": "1d00ffff",
  "difficulty": 1,
  "chainwork": "00000000000000000000000000000000000000000000000000001d4a1d4a1d4a",
  "nTx": 1,
  "previousblockhash": "000000002ed0737a5cba35cf77e4999c3108ae17a983776540e226c665a4acfd",
  "nextblockhash": "00000000b120c7089c853f6d0091bd81bcf6051c5b84d32a30811e67e887ed0c",
  "strippedsize": 216,
  "size": 216,
  "weight": 864,
  "tx": [
    {
      "txid": "46ac04f07be8db4fc349efb73bb6b143b59d0b767be1af6b6bf29e5527c41c9c",
      "hash": "46ac04f07be8db4fc349efb73bb6b143b59d0b767be1af6b6bf29e5527c41c9c",
      "version": 1,
      "size": 135,
      "vsize": 135,
      "weight": 540,
      "locktime": 0,
      "vin": [
        {
          "coinbase": "04ffff001d02e800",
          "sequence": 4294967295
        }
      ],
      "vout": [
        {
          "value": 50.0,
          "n": 0,
          "scriptPubKey": {
            "asm": "04aeeaf1547e48c125fcec00ff2e568826971ae7a7e84291d6669e2f9ad5138300d7298b8ea970bdb7f0465fb2b72347b9b9458fe4d4777ae05d5c180776f9ca7a OP_CHECKSIG",
            "desc": "pk(04aeeaf1547e48c125fcec00ff2e568826971ae7a7e84291d6669e2f9ad5138300d7298b8ea970bdb7f0465fb2b72347b9b9458fe4d4777ae05d5c180776f9ca7a)#t5wnggas",
            "hex": "4104aeeaf1547e48c125fcec00ff2e568826971ae7a7e84291d6669e2f9ad5138300d7298b8ea970bdb7f0465fb2b72347b9b9458fe4d4777ae05d5c180776f9ca7aac",
            "type": "pubkey"
          }
        }
      ],
      "hex": "01000000010000000000000000000000000000000000000000000000000000000000000000ffffffff0804ffff001d02e800ffffffff0100f2052a01000000434104aeeaf1547e48c125fcec00ff2e568826971ae7a7e84291d6669e2f9ad5138300d7298b8ea970bdb7f0465fb2b72347b9b9458fe4d4777ae05d5c180776f9ca7aac00000000"
    }
  ]
}