{
  "hash": "00000000bad8152000955d21fefc2c8577c005e1589c4a08d189ac71ecde1f44",
  "confirmations": 44841,
  "height": 8257,
  "version": 1,
  "versionHex": "00000001",
  "merkleroot": "5c7c114d1e5e812cf1d681e80de97cf85ea71da1a6ff8429787d968c6278a39f",
  "time": 1237701347,
  "mediantime": 1237698826,
  "nonce": 2138602516,
  "bits": "1d00ffff",
  "difficulty": 1,
  "chainwork": "0000000000000000000000000000000000000000000000000000204220422042",
  "nTx": 1,
  "previousblockhash": "000000005b9a206fd1a6374c5e603f95917143bebbd95af97debcf5ce0c37e68",
  "nextblockhash": "00000000d68ba74afcda19e020428a19c4052df1b207246060bfd015c8953efa",
  "strippedsize": 216,
  "size": 216,
  "weight": 864,
  "tx": [
    {
      "txid": "5c7c114d1e5e812cf1d681e80de97cf85ea71da1a6ff8429787d968c6278a39f",
      "hash": "5c7c114d1e5e812cf1d681e80de97cf85ea71da1a6ff8429787d968c6278a39f",
      "version": 1,
      "size": 135,
      "vsize": 135,
      "weight": 540,
      "locktime": 0,
      "vin": [
        {
          "coinbase": "04ffff001d029203",
          "sequence": 4294967295
        }
      ],
      "vout": [
        {
          "value": 50.0,
          "n": 0,
          "scriptPubKey": {
            "asm": "04624bb72684cfe5798e4059ee94f7d8f210e78f59439469df35f1960354e347203d1290806bb736511c502f7bd23a1569b9070a4a58d0062eb887baf00824a8a2 OP_CHECKSIG",
            "desc": "pk(04624bb72684cfe5798e4059ee94f7d8f210e78f59439469df35f1960354e347203d1290806bb736511c502f7bd23a1569b9070a4a58d0062eb887baf00824a8a2)#ccjh5jhw",
            "hex": "4104624bb72684cfe5798e4059ee94f7d8f210e78f59439469df35f1960354e347203d1290806bb736511c502f7bd23a1569b9070a4a58d0062eb887baf00824a8a2ac",
            "type": "pubkey"
          }
        }
      ],
      "hex": "01000000010000000000000000000000000000000000000000000000000000000000000000ffffffff0804ffff001d029203ffffffff0100f2052a01000000434104624bb72684cfe5798e4059ee94f7d8f210e78f59439469df35f1960354e347203d1290806bb736511c502f7bd23a1569b9070a4a58d0062eb887baf00824a8a2ac00000000"
    }
  ]
}