{
  "hash": "00000000edf048007e5208ab3a6cc968f9b67ac89fdee28fe7d7bea6c784c67e",
  "confirmations": 43952,
  "height": 9146,
  "version": 1,
  "versionHex": "00000001",
  "merkleroot": "3d482937730b5f2983d5e36803017d510c5e53c0ccc8bb7e55b600516d74dd7b",
  "time": 1238364705,
  "mediantime": 1238362583,
  "nonce": 56716608,
  "bits": "1d00ffff",
  "difficulty": 1,
  "chainwork": "000000000000000000000000000000000000000000000000000023bb23bb23bb",
  "nTx": 1,
  "previousblockhash": "0000000066f3787b1b95fda31ace10c2b0b3f673fbf456dc3bf993e58aeaee68",
  "nextblockhash": "000000008d68bca852a9b0b409ebe5062ebe9ed9888ee1520645f54ec9418943",
  "strippedsize": 216,
  "size": 216,
  "weight": 864,
  "tx": [
    {
      "txid": "3d482937730b5f2983d5e36803017d510c5e53c0ccc8bb7e55b600516d74dd7b",
      "hash": "3d482937730b5f2983d5e36803017d510c5e53c0ccc8bb7e55b600516d74dd7b",
      "version": 1,
      "size": 135,
      "vsize": 135,
      "weight": 540,
      "locktime": 0,
      "vin": [
        {
          "coinbase": "04ffff001d028d00",
          "sequence": 4294967295
        }
      ],
      "vout": [
        {
          "value": 50.0,
          "n": 0,
          "scriptPubKey": {
            "asm": "04744946a635c4a6c33f7ad80e61f3cbb95928ebebbbbe1ca5b0e3c0825f6e69b6a555c30827c546649f15a37d12750136a6ff9652edb9f5737af660b45dd8bcab OP_CHECKSIG",
            "desc": "pk(04744946a635c4a6c33f7ad80e61f3cbb95928ebebbbbe1ca5b0e3c0825f6e69b6a555c30827c546649f15a37d12750136a6ff9652edb9f5737af660b45dd8bcab)#0unfz4j3",
            "hex": "4104744946a635c4a6c33f7ad80e61f3cbb95928ebebbbbe1ca5b0e3c0825f6e69b6a555c30827c546649f15a37d12750136a6ff9652edb9f5737af660b45dd8bcabac",
            "type": "pubkey"
          }
        }
      ],
      "hex": "01000000010000000000000000000000000000000000000000000000000000000000000000ffffffff0804ffff001d028d00ffffffff0100f2052a01000000434104744946a635c4a6c33f7ad80e61f3cbb95928ebebbbbe1ca5b0e3c0825f6e69b6a555c30827c546649f15a37d12750136a6ff9652edb9f5737af660b45dd8bcabac00000000"
    }
  ]
}