{
  "hash": "00000000a148f310f5c02800fe4b08aa4daf0ea17b212ee07ce00f76768689dd",
  "confirmations": 52213,
  "height": 405,
  "version": 1,
  "versionHex": "00000001",
  "merkleroot": "9339603183ff7a267eb4fa98920097979520a6c400bc771f50cb81de1b481867",
  "time": 1231905679,
  "mediantime": 1231902179,
  "nonce": 2455497510,
  "bits": "1d00ffff",
  "difficulty": 1,
  "chainwork": "0000000000000000000000000000000000000000000000000000019601960196",
  "nTx": 1,
  "previousblockhash": "00000000e1c14f433f188468b2bb6e634fb5381d2c8c1e98e1f87a90842073e8",
  "nextblockhash": "00000000e3385ef51a21c2ef7d844c9e1390168247858c6865b38698017b614f",
  "strippedsize": 216,
  "size": 216,
  "weight": 864,
  "tx": [
    {
      "txid": "9339603183ff7a267eb4fa98920097979520a6c400bc771f50cb81de1b481867",
      "hash": "9339603183ff7a267eb4fa98920097979520a6c400bc771f50cb81de1b481867",
      "version": 1,
      "size": 135,
      "vsize": 135,
      "weight": 540,
      "locktime": 0,
      "vin": [
        {
          "coinbase": "04ffff001d02a002",
          "sequence": 4294967295
        }
      ],
      "vout": [
        {
          "value": 50.0,
          "n": 0,
          "scriptPubKey": {
            "asm": "0478abb18c0c7c95348fa77eb5fd43ce963e450d797cf4878894230ca528e6c8e866c38ad93746e04f2161a01787c82a858ee24940e9a06e41fddb3494dfe29380 OP_CHECKSIG",
            "desc": "pk(0478abb18c0c7c95348fa77eb5fd43ce963e450d797cf4878894230ca528e6c8e866c38ad93746e04f2161a01787c82a858ee24940e9a06e41fddb3494dfe29380)#yx2mxexp",
            "hex": "410478abb18c0c7c95348fa77eb5fd43ce963e450d797cf4878894230ca528e6c8e866c38ad93746e04f2161a01787c82a858ee24940e9a06e41fddb3494dfe29380ac",
            "type": "pubkey"
          }
        }
      ],
      "hex": "01000000010000000000000000000000000000000000000000000000000000000000000000ffffffff0804ffff001d02a002ffffffff0100f2052a0100000043410478abb18c0c7c95348fa77eb5fd43ce963e450d797cf4878894230ca528e6c8e866c38ad93746e04f2161a01787c82a858ee24940e9a06e41fddb3494dfe29380ac00000000"
    }
  ]
}