{
  "hash": "00000000a3276f01862fdf27d0faaa04cedf3aaac83c4bf24400f739622077ed",
  "confirmations": 51551,
  "height": 1547,
  "version": 1,
  "versionHex": "00000001",
  "merkleroot": "72339e62f7ec3fee25c088783a30366e9cac8d7dc612fb20a128e1ce369addad",
  "time": 1232787575,
  "mediantime": 1232785180,
  "nonce": 67525731,
  "bits": "1d00ffff",
  "difficulty": 1,
  "chainwork": "0000000000000000000000000000000000000000000000000000060c060c060c",
  "nTx": 1,
  "previousblockhash": "000000005fb1187e0f421479738db9c7fa205f633a74b988f338ea84d7212dd1",
  "nextblockhash": "0000000029e8f1ddafc3291295536c58679b7047585b51926f3a6d05a29efe15",
  "strippedsize": 216,
  "size": 216,
  "weight": 864,
  "tx": [
    {
      "txid": "72339e62f7ec3fee25c088783a30366e9cac8d7dc612fb20a128e1ce369addad",
      "hash": "72339e62f7ec3fee25c088783a30366e9cac8d7dc612fb20a128e1ce369addad",
      "version": 1,
      "size": 135,
      "vsize": 135,
      "weight": 540,
      "locktime": 0,
      "vin": [
        {
          "coinbase": "04ffff001d02f902",
          "sequence": 4294967295
        }
      ],
      "vout": [
        {
          "value": 50.0,
          "n": 0,
          "scriptPubKey": {
            "asm": "04b83156b00b497c733dacad08b4aec1fd12741ede3ed3309aab117107424007ede342b7da01db72d6950cdf40f86b265d3eb7d6279e404fd5c909decb69534fbf OP_CHECKSIG",
            "desc": "pk(04b83156b00b497c733dacad08b4aec1fd12741ede3ed3309aab117107424007ede342b7da01db72d6950cdf40f86b265d3eb7d6279e404fd5c909decb69534fbf)#zwc7ypl2",
            "hex": "4104b83156b00b497c733dacad08b4aec1fd12741ede3ed3309aab117107424007ede342b7da01db72d6950cdf40f86b265d3eb7d6279e404fd5c909decb69534fbfac",
            "type": "pubkey"
          }
        }
      ],
      "hex": "01000000010000000000000000000000000000000000000000000000000000000000000000ffffffff0804ffff001d02f902ffffffff0100f2052a01000000434104b83156b00b497c733dacad08b4aec1fd12741ede3ed3309aab117107424007ede342b7da01db72d6950cdf40f86b265d3eb7d6279e404fd5c909decb69534fbfac00000000"
    }
  ]
}