{
  "hash": "0000000030b9ba1a81913fba03fe1c06b824f9610a5a91c62b7c26ca6b972d96",
  "confirmations": 50407,
  "height": 2691,
  "version": 1,
  "versionHex": "00000001",
  "merkleroot": "e0c5c4472f4489a758136ede4b9434dd4de668cdd2a3f9eba092571dde2b88e3",
  "time": 1233555604,
  "mediantime": 1233552936,
  "nonce": 2570152997,
  "bits": "1d00ffff",
  "difficulty": 1,
  "chainwork": "00000000000000000000000000000000000000000000000000000a840a840a84",
  "nTx": 1,
  "previousblockhash": "000000008f0480e98ef05c47c0f7acf37501caf8e07a961c2c0e30add9778236",
  "nextblockhash": "00000000c64b2c48acd6b43ac1020d5c0bdbdaea138360ab755d9b5f2a91855c",
  "strippedsize": 216,
  "size": 216,
  "weight": 864,
  "tx": [
    {
      "txid": "e0c5c4472f4489a758136ede4b9434dd4de668cdd2a3f9eba092571dde2b88e3",
      "hash": "e0c5c4472f4489a758136ede4b9434dd4de668cdd2a3f9eba092571dde2b88e3",
      "version": 1,
      "size": 135,
      "vsize": 135,
      "weight": 540,
      "locktime": 0,
      "vin": [
        {
          "coinbase": "04ffff001d029404",
          "sequence": 4294967295
        }
      ],
      "vout": [
        {
          "value": 50.0,
          "n": 0,
          "scriptPubKey": {
            "asm": "04cc9fec28c36412e452cc30d6906d0b64f7e7f88596ecde10653926fe152eea5166a8f4043636f3166a7228b76773f6ceb80640be348b1f0d871410ff3d819831 OP_CHECKSIG",
            "desc": "pk(04cc9fec28c36412e452cc30d6906d0b64f7e7f88596ecde10653926fe152eea5166a8f4043636f3166a7228b76773f6ceb80640be348b1f0d871410ff3d819831)#slpp7jtd",
            "hex": "4104cc9fec28c36412e452cc30d6906d0b64f7e7f88596ecde10653926fe152eea5166a8f4043636f3166a7228b76773f6ceb80640be348b1f0d871410ff3d819831ac",
            "type": "pubkey"
          }
        }
      ],
      "hex": "01000000010000000000000000000000000000000000000000000000000000000000000000ffffffff0804ffff001d029404ffffffff0100f2052a01000000434104cc9fec28c36412e452cc30d6906d0b64f7e7f88596ecde10653926fe152eea5166a8f4043636f3166a7228b76773f6ceb80640be348b1f0d871410ff3d819831ac00000000"
    }
  ]
}