{
  "hash": "00000000a5e1552a1ea5e75e7680eb205a8fc32849d4d61ca9826935e2e204e2",
  "confirmations": 51327,
  "height": 1771,
  "version": 1,
  "versionHex": "00000001",
  "merkleroot": "f5e8623d54c013203e0f8355288025a4a6bd6ae02eb59a403818959882ef0c53",
  "time": 1232884310,
  "mediantime": 1232881769,
  "nonce": 354112301,
  "bits": "1d00ffff",
  "difficulty": 1,
  "chainwork": "000000000000000000000000000000000000000000000000000006ec06ec06ec",
  "nTx": 1,
  "previousblockhash": "000000006947fb1ec7bda93f3bdb54372faaea393807409c6c7cfa236da44c8c",
  "nextblockhash": "00000000d79ca1994b80322b944426b607c9729f2651436a7a87a1cd1048ebfe",
  "strippedsize": 216,
  "size": 216,
  "weight": 864,
  "tx": [
    {
      "txid": "f5e8623d54c013203e0f8355288025a4a6bd6ae02eb59a403818959882ef0c53",
      "hash": "f5e8623d54c013203e0f8355288025a4a6bd6ae02eb59a403818959882ef0c53",
      "version": 1,
      "size": 135,
      "vsize": 135,
      "weight": 540,
      "locktime": 0,
      "vin": [
        {
          "coinbase": "04ffff001d02d403",
          "sequence": 4294967295
        }
      ],
      "vout": [
        {
          "value": 50.0,
          "n": 0,
          "scriptPubKey": {
            "asm": "0499d5d3fc05e8b3ed0d55aa1635a9537a5588c7cb5d0c6b1a1aeab3084a750270302a06404b04d7bec8683f21c761e38fdf25b1e91b1b68ddcaefc51e051f6a05 OP_CHECKSIG",
            "desc": "pk(0499d5d3fc05e8b3ed0d55aa1635a9537a5588c7cb5d0c6b1a1aeab3084a750270302a06404b04d7bec8683f21c761e38fdf25b1e91b1b68ddcaefc51e051f6a05)#fwp4rwjx",
            "hex": "410499d5d3fc05e8b3ed0d55aa1635a9537a5588c7cb5d0c6b1a1aeab3084a750270302a06404b04d7bec8683f21c761e38fdf25b1e91b1b68ddcaefc51e051f6a05ac",
            "type": "pubkey"
          }
        }
      ],
      "hex": "01000000010000000000000000000000000000000000000000000000000000000000000000ffffffff0804ffff001d02d403ffffffff0100f2052a0100000043410499d5d3fc05e8b3ed0d55aa1635a9537a5588c7cb5d0c6b1a1aeab3084a750270302a06404b04d7bec8683f21c761e38fdf25b1e91b1b68ddcaefc51e051f6a05ac00000000"
    }
  ]
}