{
  "hash": "000000005ccc739a2b7eb7f987ebbda68cc40dd28d53700f658f89ff8072cf11",
  "confirmations": 46429,
  "height": 6669,
  "version": 1,
  "versionHex": "00000001",
  "merkleroot": "f2a6ade17cf24849561ff8b05c9c53bf2cf520556f8b3dfe06eaa1ac97076a8a",
  "time": 1236458787,
  "mediantime": 1236454903,
  "nonce": 1930763548,
  "bits": "1d00ffff",
  "difficulty": 1,
  "chainwork": "00000000000000000000000000000000000000000000000000001a0e1a0e1a0e",
  "nTx": 1,
  "previousblockhash": "000000005fc3c5e1f29ea3d5e11501857733ebb3ecbff103ca1b42164dbb0c74",
  "nextblockhash": "000000009e381ed636487a82f3b47f9571b78f332b6beac4b3e60927d3abc629",
  "strippedsize": 216,
  "size": 216,
  "weight": 864,
  "tx": [
    {
      "txid": "f2a6ade17cf24849561ff8b05c9c53bf2cf520556f8b3dfe06eaa1ac97076a8a",
      "hash": "f2a6ade17cf24849561ff8b05c9c53bf2cf520556f8b3dfe06eaa1ac97076a8a",
      "version": 1,
      "size": 135,
      "vsize": 135,
      "weight": 540,
      "locktime": 0,
      "vin": [
        {
          "coinbase": "04ffff001d026b06",
          "sequence": 4294967295
        }
      ],
      "vout": [
        {
          "value": 50.0,
          "n": 0,
          "scriptPubKey": {
            "asm": "04237b72f7f223d1340ac8483b7db1994595b1b45bef49aa22a968065ad5712b78421dd27842239510e3ba1ae3f6cbfc0fb4278e731621a8731e5124a9e2ed2c93 OP_CHECKSIG",
            "desc": "pk(04237b72f7f223d1340ac8483b7db1994595b1b45bef49aa22a968065ad5712b78421dd27842239510e3ba1ae3f6cbfc0fb4278e731621a8731e5124a9e2ed2c93)#zr8jz6f3",
            "hex": "4104237b72f7f223d1340ac8483b7db1994595b1b45bef49aa22a968065ad5712b78421dd27842239510e3ba1ae3f6cbfc0fb4278e731621a8731e5124a9e2ed2c93ac",
            "type": "pubkey"
          }
        }
      ],
      "hex": "01000000010000000000000000000000000000000000000000000000000000000000000000ffffffff0804ffff001d026b06ffffffff0100f2052a01000000434104237b72f7f223d1340ac8483b7db1994595b1b45bef49aa22a968065ad5712b78421dd27842239510e3ba1ae3f6cbfc0fb4278e731621a8731e5124a9e2ed2c93ac00000000"
    }
  ]
}