{
  "hash": "00000000f7e56c76e349eb2276632451173d0ec0d5afc697612d42abdfde225f",
  "confirmations": 45708,
  "height": 7390,
  "version": 1,
  "versionHex": "00000001",
  "merkleroot": "9479da4f5827fa01bc3f4f520ea63fc27f324ede1de8e7bac679e605f30ad0a5",
  "time": 1237013824,
  "mediantime": 1237009685,
  "nonce": 1735249719,
  "bits": "1d00ffff",
  "difficulty": 1,
  "chainwork": "00000000000000000000000000000000000000000000000000001cdf1cdf1cdf",
  "nTx": 1,
  "previousblockhash": "00000000030313ffddbcc77c0be213cdd03fd66e57de54dc90877aa5512cf46b",
  "nextblockhash": "0000000054be77b2e8577df495a6ae01bff8b28ceacf7703296dd59816f10805",
  "strippedsize": 216,
  "size": 216,
  "weight": 864,
  "tx": [
    {
      "txid": "9479da4f5827fa01bc3f4f520ea63fc27f324ede1de8e7bac679e605f30ad0a5",
      "hash": "9479da4f5827fa01bc3f4f520ea63fc27f324ede1de8e7bac679e605f30ad0a5",
      "version": 1,
      "size": 135,
      "vsize": 135,
      "weight": 540,
      "locktime": 0,
      "vin": [
        {
          "coinbase": "04ffff001d022809",
          "sequence": 4294967295
        }
      ],
      "vout": [
        {
          "value": 50.0,
          "n": 0,
          "scriptPubKey": {
            "asm": "0435f3fc59d2754478731fc9ec2a07274f973f9b908b2160ddaba6105b19b318ad0309b3ed2935981858ae48e55292bc6a6033da9c6b4872f782a42f33033283e9 OP_CHECKSIG",
            "desc": "pk(0435f3fc59d2754478731fc9ec2a07274f973f9b908b2160ddaba6105b19b318ad0309b3ed2935981858ae48e55292bc6a6033da9c6b4872f782a42f33033283e9)#gnpe6ctq",
            "hex": "410435f3fc59d2754478731fc9ec2a07274f973f9b908b2160ddaba6105b19b318ad0309b3ed2935981858ae48e55292bc6a6033da9c6b4872f782a42f33033283e9ac",
            "type": "pubkey"
          }
        }
      ],
      "hex": "01000000010000000000000000000000000000000000000000000000000000000000000000ffffffff0804ffff001d022809ffffffff0100f2052a0100000043410435f3fc59d2754478731fc9ec2a07274f973f9b908b2160ddaba6105b19b318ad0309b3ed2935981858ae48e55292bc6a6033da9c6b4872f782a42f33033283e9ac00000000"
    }
  ]
}