{
  "hash": "000000008137e694130dc3f23a1441921a6bafaa4247b116edade8ce89847339",
  "confirmations": 51981,
  "height": 1117,
  "version": 1,
  "versionHex": "00000001",
  "merkleroot": "1bed6973d28a9a52ff68a5f53ad18c6f02ac7375758e430f228837a62742a8f3",
  "time": 1232434318,
  "mediantime": 1232431779,
  "nonce": 2466989597,
  "bits": "1d00ffff",
  "difficulty": 1,
  "chainwork": "0000000000000000000000000000000000000000000000000000045e045e045e",
  "nTx": 1,
  "previousblockhash": "000000008a815b7b526932718dc52ef9d69fbf66d22d5bc7a081b17d157cfba2",
  "nextblockhash": "000000000cb69682e57a58ac02bd4af63e983a3478bf793e2b684f130325eeb6",
  "strippedsize": 216,
  "size": 216,
  "weight": 864,
  "tx": [
    {
      "txid": "1bed6973d28a9a52ff68a5f53ad18c6f02ac7375758e430f228837a62742a8f3",
      "hash": "1bed6973d28a9a52ff68a5f53ad18c6f02ac7375758e430f228837a62742a8f3",
      "version": 1,
      "size": 135,
      "vsize": 135,
      "weight": 540,
      "locktime": 0,
      "vin": [
        {
          "coinbase": "04ffff001d024e07",
          "sequence": 4294967295
        }
      ],
      "vout": [
        {
          "value": 50.0,
          "n": 0,
          "scriptPubKey": {
            "asm": "04ce5d35ab7d00ef381463782cc74db9db8fcea70ca5701db6e196796ca67b8b758ad3f67029c8a209b670048ab2c3733dea1d8e481e3c3be5752e7751b2422acb OP_CHECKSIG",
            "desc": "pk(04ce5d35ab7d00ef381463782cc74db9db8fcea70ca5701db6e196796ca67b8b758ad3f67029c8a209b670048ab2c3733dea1d8e481e3c3be5752e7751b2422acb)#akz0825z",
            "hex": "4104ce5d35ab7d00ef381463782cc74db9db8fcea70ca5701db6e196796ca67b8b758ad3f67029c8a209b670048ab2c3733dea1d8e481e3c3be5752e7751b2422acbac",
            "type": "pubkey"
          }
        }
      ],
      "hex": "01000000010000000000000000000000000000000000000000000000000000000000000000ffffffff0804ffff001d024e07ffffffff0100f2052a01000000434104ce5d35ab7d00ef381463782cc74db9db8fcea70ca5701db6e196796ca67b8b758ad3f67029c8a209b670048ab2c3733dea1d8e481e3c3be5752e7751b2422acbac00000000"
    }
  ]
}