{
  "hash": "0000000095a387d69be36dc016d5025fc12257f616e0defcbb76b89157e65c47",
  "confirmations": 47429,
  "height": 5669,
  "version": 1,
  "versionHex": "00000001",
  "merkleroot": "315a7b1f9332abe11a52b4ff94cdec617cdaba54f02f90487281363a6d35301d",
  "time": 1235665647,
  "mediantime": 1235662306,
  "nonce": 2957630499,
  "bits": "1d00ffff",
  "difficulty": 1,
  "chainwork": "0000000000000000000000000000000000000000000000000000162616261626",
  "nTx": 1,
  "previousblockhash": "0000000084054713ad279e29c8f8497ca80405e32aa728c71431ab7c802fcc56",
  "nextblockhash": "00000000ef78b3d4894522830144ea85a6e3dad7caccbda7a118e51eb8115cbc",
  "strippedsize": 216,
  "size": 216,
  "weight": 864,
  "tx": [
    {
      "txid": "315a7b1f9332abe11a52b4ff94cdec617cdaba54f02f90487281363a6d35301d",
      "hash": "315a7b1f9332abe11a52b4ff94cdec617cdaba54f02f90487281363a6d35301d",
      "version": 1,
      "size": 135,
      "vsize": 135,
      "weight": 540,
      "locktime": 0,
      "vin": [
        {
          "coinbase": "04ffff001d02f008",
          "sequence": 4294967295
        }
      ],
      "vout": [
        {
          "value": 50.0,
          "n": 0,
          "scriptPubKey": {
            "asm": "0425e139d081c957c9612dd6dd9109642e2672bd8f4acb96b2f8a6697773b71492340b87cdfb1af1087e216c05c013e2d917a0ed03361b6ce8b188ffbd5045e53f OP_CHECKSIG",
            "desc": "pk(0425e139d081c957c9612dd6dd9109642e2672bd8f4acb96b2f8a6697773b71492340b87cdfb1af1087e216c05c013e2d917a0ed03361b6ce8b188ffbd5045e53f)#ky4ycr3u",
            "hex": "410425e139d081c957c9612dd6dd9109642e2672bd8f4acb96b2f8a6697773b71492340b87cdfb1af1087e216c05c013e2d917a0ed03361b6ce8b188ffbd5045e53fac",
            "type": "pubkey"
          }
        }
      ],
      "hex": "01000000010000000000000000000000000000000000000000000000000000000000000000ffffffff0804ffff001d02f008ffffffff0100f2052a0100000043410425e139d081c957c9612dd6dd9109642e2672bd8f4acb96b2f8a6697773b71492340b87cdfb1af1087e216c05c013e2d917a0ed03361b6ce8b188ffbd5045e53fac00000000"
    }
  ]
}