{
  "hash": "000000000316e604c093c233987a8df534ee40abe9618a189f512baab84d63f5",
  "confirmations": 51894,
  "height": 1204,
  "version": 1,
  "versionHex": "00000001",
  "merkleroot": "df112c715f991dfc525446fbe04ec616b744dd64a921d5c3e343259b49ba20b8",
  "time": 1232504229,
  "mediantime": 1232498953,
  "nonce": 1620277024,
  "bits": "1d00ffff",
  "difficulty": 1,
  "chainwork": "000000000000000000000000000000000000000000000000000004b504b504b5",
  "nTx": 1,
  "previousblockhash": "00000000eeafc92caf8a697abafaaf35474f557392aab520d1867569801251ed",
  "nextblockhash": "00000000cd2aefa450b4f3615caac2d2f9b8d555267c43c1dc63fdcf93c1168e",
  "strippedsize": 216,
  "size": 216,
  "weight": 864,
  "tx": [
    {
      "txid": "df112c715f991dfc525446fbe04ec616b744dd64a921d5c3e343259b49ba20b8",
      "hash": "df112c715f991dfc525446fbe04ec616b744dd64a921d5c3e343259b49ba20b8",
      "version": 1,
      "size": 135,
      "vsize": 135,
      "weight": 540,
      "locktime": 0,
      "vin": [
        {
          "coinbase": "04ffff001d02ba08",
          "sequence": 4294967295
        }
      ],
      "vout": [
        {
          "value": 50.0,
          "n": 0,
          "scriptPubKey": {
            "asm": "040ea251ea114853bf09cae71bbdba40f0b16e979cdd5d23bd075e5eed109723fe3a59b47180eb00cbc34997c6ea6cf67c53b2706d736569b212a511eb5928bb5c OP_CHECKSIG",
            "desc": "pk(040ea251ea114853bf09cae71bbdba40f0b16e979cdd5d23bd075e5eed109723fe3a59b47180eb00cbc34997c6ea6cf67c53b2706d736569b212a511eb5928bb5c)#madtu4yq",
            "hex": "41040ea251ea114853bf09cae71bbdba40f0b16e979cdd5d23bd075e5eed109723fe3a59b47180eb00cbc34997c6ea6cf67c53b2706d736569b212a511eb5928bb5cac",
            "type": "pubkey"
          }
        }
      ],
      "hex": "01000000010000000000000000000000000000000000000000000000000000000000000000ffffffff0804ffff001d02ba08ffffffff0100f2052a010000004341040ea251ea114853bf09cae71bbdba40f0b16e979cdd5d23bd075e5eed109723fe3a59b47180eb00cbc34997c6ea6cf67c53b2706d736569b212a511eb5928bb5cac00000000"
    }
  ]
}