{
  "hash": "00000000f56c97f182190c37dda62092b99f2539fd70d7f71cd1206003a82975",
  "confirmations": 44066,
  "height": 9032,
  "version": 1,
  "versionHex": "00000001",
  "merkleroot": "d576ebcf0550f96b4d8266911f31b8711cfb4ba27c15b36fec8ac5bb94182a24",
  "time": 1238275524,
  "mediantime": 1238271705,
  "nonce": 298500389,
  "bits": "1d00ffff",
  "difficulty": 1,
  "chainwork": "0000000000000000000000000000000000000000000000000000234923492349",
  "nTx": 1,
  "previousblockhash": "00000000adee4235d3c2f7fe216299ef298c2802f1ea4505fb2138ff6991b2b8",
  "nextblockhash": "0000000022f4585cc2153d6e049ff0664f100524da17823b04dd94a9f2aefe4b",
  "strippedsize": 216,
  "size": 216,
  "weight": 864,
  "tx": [
    {
      "txid": "d576ebcf0550f96b4d8266911f31b8711cfb4ba27c15b36fec8ac5bb94182a24",
      "hash": "d576ebcf0550f96b4d8266911f31b8711cfb4ba27c15b36fec8ac5bb94182a24",
      "version": 1,
      "size": 135,
      "vsize": 135,
      "weight": 540,
      "locktime": 0,
      "vin": [
        {
          "coinbase": "04ffff001d02eb06",
          "sequence": 4294967295
        }
      ],
      "vout": [
        {
          "value": 50.0,
          "n": 0,
          "scriptPubKey": {
            "asm": "04826c3962ae9ed112e84dca331bb9698367d3b74a8acc3b8d715eb94eaad552d7334a192849415ca98e3763450a9f406ac9d620c774988571bf3e4582c087e36e OP_CHECKSIG",
            "desc": "pk(04826c3962ae9ed112e84dca331bb9698367d3b74a8acc3b8d715eb94eaad552d7334a192849415ca98e3763450a9f406ac9d620c774988571bf3e4582c087e36e)#59qndv0h",
            "hex": "4104826c3962ae9ed112e84dca331bb9698367d3b74a8acc3b8d715eb94eaad552d7334a192849415ca98e3763450a9f406ac9d620c774988571bf3e4582c087e36eac",
            "type": "pubkey"
          }
        }
      ],
      "hex": "01000000010000000000000000000000000000000000000000000000000000000000000000ffffffff0804ffff001d02eb06ffffffff0100f2052a01000000434104826c3962ae9ed112e84dca331bb9698367d3b74a8acc3b8d715eb94eaad552d7334a192849415ca98e3763450a9f406ac9d620c774988571bf3e4582c087e36eac00000000"
    }
  ]
}