{
  "hash": "000000009b086764feb26634176677c819d122a4c706a0cb1af68767edaa59d7",
  "confirmations": 49788,
  "height": 3310,
  "version": 1,
  "versionHex": "00000001",
  "merkleroot": "bc64f1259c79a5e883f1510a5ed0f40a62a74ebd8d26c6affb2c54209a0ae0b3",
  "time": 1233975890,
  "mediantime": 1233972552,
  "nonce": 349204783,
  "bits": "1d00ffff",
  "difficulty": 1,
  "chainwork": "00000000000000000000000000000000000000000000000000000cef0cef0cef",
  "nTx": 1,
  "previousblockhash": "000000001d1f37e999d5718f097b0b8fe7e3deab7f4fe4f6c555a5f6eb853686",
  "nextblockhash": "00000000df0a3616840fe1bbddac5c78ee54fb39e123655d864dad77deccb249",
  "strippedsize": 216,
  "size": 216,
  "weight": 864,
  "tx": [
    {
      "txid": "bc64f1259c79a5e883f1510a5ed0f40a62a74ebd8d26c6affb2c54209a0ae0b3",
      "hash": "bc64f1259c79a5e883f1510a5ed0f40a62a74ebd8d26c6affb2c54209a0ae0b3",
      "version": 1,
      "size": 135,
      "vsize": 135,
      "weight": 540,
      "locktime": 0,
      "vin": [
        {
          "coinbase": "04ffff001d026b04",
          "sequence": 4294967295
        }
      ],
      "vout": [
        {
          "value": 50.0,
          "n": 0,
          "scriptPubKey": {
            "asm": "04284d72ae1043ff0cc773fc26d6824fafce84863bd8bd855ffc6e478546438a24cc7a06b3a1a5f0f8df0510c2c6cb6d9e6d0fff91513f930ba043e7f2203ff2f9 OP_CHECKSIG",
            "desc": "pk(04284d72ae1043ff0cc773fc26d6824fafce84863bd8bd855ffc6e478546438a24cc7a06b3a1a5f0f8df0510c2c6cb6d9e6d0fff91513f930ba043e7f2203ff2f9)#4duyujpl",
            "hex": "4104284d72ae1043ff0cc773fc26d6824fafce84863bd8bd855ffc6e478546438a24cc7a06b3a1a5f0f8df0510c2c6cb6d9e6d0fff91513f930ba043e7f2203ff2f9ac",
            "type": "pubkey"
          }
        }
      ],
      "hex": "01000000010000000000000000000000000000000000000000000000000000000000000000ffffffff0804ffff001d026b04ffffffff0100f2052a01000000434104284d72ae1043ff0cc773fc26d6824fafce84863bd8bd855ffc6e478546438a24cc7a06b3a1a5f0f8df0510c2c6cb6d9e6d0fff91513f930ba043e7f2203ff2f9ac00000000"
    }
  ]
}