{
  "hash": "000000006c0d7bd1e0b2f00425a672729c8d95895c8c3f39042889c269c5c51e",
  "confirmations": 45751,
  "height": 7347,
  "version": 1,
  "versionHex": "00000001",
  "merkleroot": "31ad0275a1b32d65c0abccb1b7378dbc37aef679b82895a1e69dd7317625c037",
  "time": 1236981466,
  "mediantime": 1236978766,
  "nonce": 3727697718,
  "bits": "1d00ffff",
  "difficulty": 1,
  "chainwork": "00000000000000000000000000000000000000000000000000001cb41cb41cb4",
  "nTx": 1,
  "previousblockhash": "00000000a249463a60d644eae16e4e2273d06b8760242df2230677d16a22eba5",
  "nextblockhash": "00000000a71dd2609baade0e6f6f67ac7d37e6b7b4c5dfc0496590c4009b2fe9",
  "strippedsize": 216,
  "size": 216,
  "weight": 864,
  "tx": [
    {
      "txid": "31ad0275a1b32d65c0abccb1b7378dbc37aef679b82895a1e69dd7317625c037",
      "hash": "31ad0275a1b32d65c0abccb1b7378dbc37aef679b82895a1e69dd7317625c037",
      "version": 1,
      "size": 135,
      "vsize": 135,
      "weight": 540,
      "locktime": 0,
      "vin": [
        {
          "coinbase": "04ffff001d027308",
          "sequence": 4294967295
        }
      ],
      "vout": [
        {
          "value": 50.0,
          "n": 0,
          "scriptPubKey": {
            "asm": "04b89ef08bae58c34785cdce67918287318716789f5b0188091146fe3daf5593157de7999fd36c0ca369118430006aa77ec88afdd4575127541707f9c9aa1ee47f OP_CHECKSIG",
            "desc": "pk(04b89ef08bae58c34785cdce67918287318716789f5b0188091146fe3daf5593157de7999fd36c0ca369118430006aa77ec88afdd4575127541707f9c9aa1ee47f)#m4yf7fnl",
            "hex": "4104b89ef08bae58c34785cdce67918287318716789f5b0188091146fe3daf5593157de7999fd36c0ca369118430006aa77ec88afdd4575127541707f9c9aa1ee47fac",
            "type": "pubkey"
          }
        }
      ],
      "hex": "01000000010000000000000000000000000000000000000000000000000000000000000000ffffffff0804ffff001d027308ffffffff0100f2052a01000000434104b89ef08bae58c34785cdce67918287318716789f5b0188091146fe3daf5593157de7999fd36c0ca369118430006aa77ec88afdd4575127541707f9c9aa1ee47fac00000000"
    }
  ]
}