{
  "hash": "000000009752ad49ba70f50e5fb03df6b0fd89c4fa7aed73f8a4470a7a20ab1b",
  "confirmations": 46361,
  "height": 6737,
  "version": 1,
  "versionHex": "00000001",
  "merkleroot": "917a3572adc9473147ebbbb973ebdb6a19f9ce35fa5b8528422f83017721d9bf",
  "time": 1236509604,
  "mediantime": 1236505853,
  "nonce": 2274799670,
  "bits": "1d00ffff",
  "difficulty": 1,
  "chainwork": "00000000000000000000000000000000000000000000000000001a521a521a52",
  "nTx": 1,
  "previousblockhash": "000000002984ca7139a46c028209dc8c361422c9d1e08e83913b7863db3775e3",
  "nextblockhash": "00000000c2bd9f137f8e98e81660515a3310c92ef070114099e62dcb00e596d2",
  "strippedsize": 216,
  "size": 216,
  "weight": 864,
  "tx": [
    {
      "txid": "917a3572adc9473147ebbbb973ebdb6a19f9ce35fa5b8528422f83017721d9bf",
      "hash": "917a3572adc9473147ebbbb973ebdb6a19f9ce35fa5b8528422f83017721d9bf",
      "version": 1,
      "size": 135,
      "vsize": 135,
      "weight": 540,
      "locktime": 0,
      "vin": [
        {
          "coinbase": "04ffff001d02e007",
          "sequence": 4294967295
        }
      ],
      "vout": [
        {
          "value": 50.0,
          "n": 0,
          "scriptPubKey": {
            "asm": "04f2e32ca38350c8ec27c192c28e118d6dd0d8c44af0a7ddca7e759792ebc8ba17a35061ef752285a0efa362796e7b6ddddbba7b34261aef8d28d052b4235bc393 OP_CHECKSIG",
            "desc": "pk(04f2e32ca38350c8ec27c192c28e118d6dd0d8c44af0a7ddca7e759792ebc8ba17a35061ef752285a0efa362796e7b6ddddbba7b34261aef8d28d052b4235bc393)#dmfanptn",
            "hex": "4104f2e32ca38350c8ec27c192c28e118d6dd0d8c44af0a7ddca7e759792ebc8ba17a35061ef752285a0efa362796e7b6ddddbba7b34261aef8d28d052b4235bc393ac",
            "type": "pubkey"
          }
        }
      ],
      "hex": "01000000010000000000000000000000000000000000000000000000000000000000000000ffffffff0804ffff001d02e007ffffffff0100f2052a01000000434104f2e32ca38350c8ec27c192c28e118d6dd0d8c44af0a7ddca7e759792ebc8ba17a35061ef752285a0efa362796e7b6ddddbba7b34261aef8d28d052b4235bc393ac00000000"
    }
  ]
}