{
  "hash": "00000000b1b9a989dbf3e63e0232ed2114453d9b708c4de71008386850d72f97",
  "confirmations": 45322,
  "height": 7776,
  "version": 1,
  "versionHex": "00000001",
  "merkleroot": "660d8ba5f1a33950add88b071e956a0a0bda4334f9e3213a3f03a1b7d736c7bd",
  "time": 1237295601,
  "mediantime": 1237294335,
  "nonce": 39894169,
  "bits": "1d00ffff",
  "difficulty": 1,
  "chainwork": "00000000000000000000000000000000000000000000000000001e611e611e61",
  "nTx": 1,
  "previousblockhash": "000000009d3beae0d6cd970b1dd8a183f7d7797ffea706365c6b300ef4aa72d2",
  "nextblockhash": "000000005785d33c4ebe225528532e2fe7d1f545f01b486f16261afa3359ba8f",
  "strippedsize": 216,
  "size": 216,
  "weight": 864,
  "tx": [
    {
      "txid": "660d8ba5f1a33950add88b071e956a0a0bda4334f9e3213a3f03a1b7d736c7bd",
      "hash": "660d8ba5f1a33950add88b071e956a0a0bda4334f9e3213a3f03a1b7d736c7bd",
      "version": 1,
      "size": 135,
      "vsize": 135,
      "weight": 540,
      "locktime": 0,
      "vin": [
        {
          "coinbase": "04ffff001d021109",
          "sequence": 4294967295
        }
      ],
      "vout": [
        {
          "value": 50.0,
          "n": 0,
          "scriptPubKey": {
            "asm": "042ab852c11265afd313a7c8ebcda25abb2d6bf22119f08ff2ac4979185231f70ee6b5b1eebb1c6059a6bda3f53d5f4ec2053714cb2f034db76e5f97e57fb3daf3 OP_CHECKSIG",
            "desc": "pk(042ab852c11265afd313a7c8ebcda25abb2d6bf22119f08ff2ac4979185231f70ee6b5b1eebb1c6059a6bda3f53d5f4ec2053714cb2f034db76e5f97e57fb3daf3)#nc9s5feg",
            "hex": "41042ab852c11265afd313a7c8ebcda25abb2d6bf22119f08ff2ac4979185231f70ee6b5b1eebb1c6059a6bda3f53d5f4ec2053714cb2f034db76e5f97e57fb3daf3ac",
            "type": "pubkey"
          }
        }
      ],
      "hex": "01000000010000000000000000000000000000000000000000000000000000000000000000ffffffff0804ffff001d021109ffffffff0100f2052a010000004341042ab852c11265afd313a7c8ebcda25abb2d6bf22119f08ff2ac4979185231f70ee6b5b1eebb1c6059a6bda3f53d5f4ec2053714cb2f034db76e5f97e57fb3daf3ac00000000"
    }
  ]
}