{
  "hash": "00000000aa2ad049e5189761e4e1e1e1dfda226cc3ff615da71080edc896f0ae",
  "confirmations": 45430,
  "height": 7668,
  "version": 1,
  "versionHex": "00000001",
  "merkleroot": "bb750b63288abdda745809d14941324eff9f04d2f873a0c1ae5c95805d01b215",
  "time": 1237215767,
  "mediantime": 1237212611,
  "nonce": 188647117,
  "bits": "1d00ffff",
  "difficulty": 1,
  "chainwork": "00000000000000000000000000000000000000000000000000001df51df51df5",
  "nTx": 1,
  "previousblockhash": "0000000041904cbd0779990fc4403194e093447a18a7c5a7c2d820dbc2497c81",
  "nextblockhash": "00000000cd78da22f490f21db457237ac26725852aa58aa0650cb4e1c6885a47",
  "strippedsize": 216,
  "size": 216,
  "weight": 864,
  "tx": [
    {
      "txid": "bb750b63288abdda745809d14941324eff9f04d2f873a0c1ae5c95805d01b215",
      "hash": "bb750b63288abdda745809d14941324eff9f04d2f873a0c1ae5c95805d01b215",
      "version": 1,
      "size": 135,
      "vsize": 135,
      "weight": 540,
      "locktime": 0,
      "vin": [
        {
          "coinbase": "04ffff001d024701",
          "sequence": 4294967295
        }
      ],
      "vout": [
        {
          "value": 50.0,
          "n": 0,
          "scriptPubKey": {
            "asm": "04cea86cf8a5b562f7f0df20bb5c0241dfe2ba1f5e3e3c9f057e6ca99966a448ebf0e2aedbb34af5cddf54f16c7cdecab8c352b6f4958d36ab69ea6ef2bf22ad98 OP_CHECKSIG",
            "desc": "pk(04cea86cf8a5b562f7f0df20bb5c0241dfe2ba1f5e3e3c9f057e6ca99966a448ebf0e2aedbb34af5cddf54f16c7cdecab8c352b6f4958d36ab69ea6ef2bf22ad98)#t0j6pays",
            "hex": "4104cea86cf8a5b562f7f0df20bb5c0241dfe2ba1f5e3e3c9f057e6ca99966a448ebf0e2aedbb34af5cddf54f16c7cdecab8c352b6f4958d36ab69ea6ef2bf22ad98ac",
            "type": "pubkey"
          }
        }
      ],
      "hex": "01000000010000000000000000000000000000000000000000000000000000000000000000ffffffff0804ffff001d024701ffffffff0100f2052a01000000434104cea86cf8a5b562f7f0df20bb5c0241dfe2ba1f5e3e3c9f057e6ca99966a448ebf0e2aedbb34af5cddf54f16c7cdecab8c352b6f4958d36ab69ea6ef2bf22ad98ac00000000"
    }
  ]
}