{
  "hash": "00000000c8d895150743b70dcfbadbbc5daaae7ec8d697d1a02ea2d5e3b56aa3",
  "confirmations": 47353,
  "height": 5745,
  "version": 1,
  "versionHex": "00000001",
  "merkleroot": "58ea02d807e20991005bd24ce69b3f8613dd45dd39d5621af9e63236017a7d13",
  "time": 1235717698,
  "mediantime": 1235713915,
  "nonce": 3354984192,
  "bits": "1d00ffff",
  "difficulty": 1,
  "chainwork": "0000000000000000000000000000000000000000000000000000167216721672",
  "nTx": 1,
  "previousblockhash": "00000000da2620578421bef48e904ed4cbdde9241d887d27a0c92dced7a5e380",
  "nextblockhash": "0000000080641eb0b46507f316943ffde2543b371233dc30511b3679f57739e7",
  "strippedsize": 216,
  "size": 216,
  "weight": 864,
  "tx": [
    {
      "txid": "58ea02d807e20991005bd24ce69b3f8613dd45dd39d5621af9e63236017a7d13",
      "hash": "58ea02d807e20991005bd24ce69b3f8613dd45dd39d5621af9e63236017a7d13",
      "version": 1,
      "size": 135,
      "vsize": 135,
      "weight": 540,
      "locktime": 0,
      "vin": [
        {
          "coinbase": "04ffff001d02300a",
          "sequence": 4294967295
        }
      ],
      "vout": [
        {
          "value": 50.0,
          "n": 0,
          "scriptPubKey": {
            "asm": "04e5d512a035842a082e1ddca78665795f961f7ea23f2cf900268fd28f07a5c9c8428e34dd399b81bf550b0f7983719b5a9961669f4cedc5222a10b247c018a46c OP_CHECKSIG",
            "desc": "pk(04e5d512a035842a082e1ddca78665795f961f7ea23f2cf900268fd28f07a5c9c8428e34dd399b81bf550b0f7983719b5a9961669f4cedc5222a10b247c018a46c)#cjfan3m4",
            "hex": "4104e5d512a035842a082e1ddca78665795f961f7ea23f2cf900268fd28f07a5c9c8428e34dd399b81bf550b0f7983719b5a9961669f4cedc5222a10b247c018a46cac",
            "type": "pubkey"
          }
        }
      ],
      "hex": "01000000010000000000000000000000000000000000000000000000000000000000000000ffffffff0804ffff001d02300affffffff0100f2052a01000000434104e5d512a035842a082e1ddca78665795f961f7ea23f2cf900268fd28f07a5c9c8428e34dd399b81bf550b0f7983719b5a9961669f4cedc5222a10b247c018a46cac00000000"
    }
  ]
}