{
  "hash": "0000000033913ab37586406bc5037c6f87cc2d41565e23958450bc2bc98ab07c",
  "confirmations": 52461,
  "height": 637,
  "version": 1,
  "versionHex": "00000001",
  "merkleroot": "2150a2a7e5d04a3aa83a2dab18c9056ec80937bf7e71ef1d422e5bb2530f25e6",
  "time": 1232060865,
  "mediantime": 1232057835,
  "nonce": 415764002,
  "bits": "1d00ffff",
  "difficulty": 1,
  "chainwork": "0000000000000000000000000000000000000000000000000000027e027e027e",
  "nTx": 1,
  "previousblockhash": "000000008b0f1bc19009361b30547a86588b0a3a00d6f2dbbe1f744eff3cb21f",
  "nextblockhash": "00000000b1ee19529a7c3b4b5ad198a4103404802ceb1f7161e67c1b7bfb755e",
  "strippedsize": 216,
  "size": 216,
  "weight": 864,
  "tx": [
    {
      "txid": "2150a2a7e5d04a3aa83a2dab18c9056ec80937bf7e71ef1d422e5bb2530f25e6",
      "hash": "2150a2a7e5d04a3aa83a2dab18c9056ec80937bf7e71ef1d422e5bb2530f25e6",
      "version": 1,
      "size": 135,
      "vsize": 135,
      "weight": 540,
      "locktime": 0,
      "vin": [
        {
          "coinbase": "04ffff001d023907",
          "sequence": 4294967295
        }
      ],
      "vout": [
        {
          "value": 50.0,
          "n": 0,
          "scriptPubKey": {
            "asm": "044c65eb5e2bb262b017699a2fb08fb38341222e7f0ff4aa91cf01ac94ba33fc89a2665ceff1b3bb5ca5cbd8bf97c1881dae384c080955da686e847bd76140812a OP_CHECKSIG",
            "desc": "pk(044c65eb5e2bb262b017699a2fb08fb38341222e7f0ff4aa91cf01ac94ba33fc89a2665ceff1b3bb5ca5cbd8bf97c1881dae384c080955da686e847bd76140812a)#5azhxw5m",
            "hex": "41044c65eb5e2bb262b017699a2fb08fb38341222e7f0ff4aa91cf01ac94ba33fc89a2665ceff1b3bb5ca5cbd8bf97c1881dae384c080955da686e847bd76140812aac",
            "type": "pubkey"
          }
        }
      ],
      "hex": "01000000010000000000000000000000000000000000000000000000000000000000000000ffffffff0804ffff001d023907ffffffff0100f2052a010000004341044c65eb5e2bb262b017699a2fb08fb38341222e7f0ff4aa91cf01ac94ba33fc89a2665ceff1b3bb5ca5cbd8bf97c1881dae384c080955da686e847bd76140812aac00000000"
    }
  ]
}