{
  "hash": "000000003b2a9ac3f0efab472b9ceae68fa38e2d629e9a41defcf9969f60920d",
  "confirmations": 50759,
  "height": 2339,
  "version": 1,
  "versionHex": "00000001",
  "merkleroot": "2c3b7c29930c6cee0df3a0db514de5efe9b2e9cc7bfb44c12d4cc26426a7595f",
  "time": 1233308687,
  "mediantime": 1233304331,
  "nonce": 147467917,
  "bits": "1d00ffff",
  "difficulty": 1,
  "chainwork": "0000000000000000000000000000000000000000000000000000092409240924",
  "nTx": 1,
  "previousblockhash": "0000000077972a815618cc4c5070715be0dd2af487410e9a381b6e96d96fda16",
  "nextblockhash": "00000000112d24a5aa42bc6695b9c7797ac8c874ba5d927793369706ef5db1fe",
  "strippedsize": 216,
  "size": 216,
  "weight": 864,
  "tx": [
    {
      "txid": "2c3b7c29930c6cee0df3a0db514de5efe9b2e9cc7bfb44c12d4cc26426a7595f",
      "hash": "2c3b7c29930c6cee0df3a0db514de5efe9b2e9cc7bfb44c12d4cc26426a7595f",
      "version": 1,
      "size": 135,
      "vsize": 135,
      "weight": 540,
      "locktime": 0,
      "vin": [
        {
          "coinbase": "04ffff001d029c01",
          "sequence": 4294967295
        }
      ],
      "vout": [
        {
          "value": 50.0,
          "n": 0,
          "scriptPubKey": {
            "asm": "04ac52281df730f48d2452812b078cedae21d9627be6fe237414198eb097988db9343ab502573358813aa72ddd5512e54620238a004e7d4dc8e3004bcbf38bbb32 OP_CHECKSIG",
            "desc": "pk(04ac52281df730f48d2452812b078cedae21d9627be6fe237414198eb097988db9343ab502573358813aa72ddd5512e54620238a004e7d4dc8e3004bcbf38bbb32)#tyd9gmrx",
            "hex": "4104ac52281df730f48d2452812b078cedae21d9627be6fe237414198eb097988db9343ab502573358813aa72ddd5512e54620238a004e7d4dc8e3004bcbf38bbb32ac",
            "type": "pubkey"
          }
        }
      ],
      "hex": "01000000010000000000000000000000000000000000000000000000000000000000000000ffffffff0804ffff001d029c01ffffffff0100f2052a01000000434104ac52281df730f48d2452812b078cedae21d9627be6fe237414198eb097988db9343ab502573358813aa72ddd5512e54620238a004e7d4dc8e3004bcbf38bbb32ac00000000"
    }
  ]
}