{
  "hash": "00000000514198be63643dfa4290fcf008a64b4550b08695016802848f872feb",
  "confirmations": 45302,
  "height": 7796,
  "version": 1,
  "versionHex": "00000001",
  "merkleroot": "dc2154d309a90651ea623ee815260533053cf3f3979a9178d79986fa1dde5c69",
  "time": 1237310041,
  "mediantime": 1237304817,
  "nonce": 2170454586,
  "bits": "1d00ffff",
  "difficulty": 1,
  "chainwork": "00000000000000000000000000000000000000000000000000001e751e751e75",
  "nTx": 1,
  "previousblockhash": "00000000f2362e437c5bc6410cc3c3b57a1dea9550891501f9e009e7779dddb4",
  "nextblockhash": "00000000b277e2c2a4394ee3db957aa51a3cfd7b69d0927775dab0240be3d0c3",
  "strippedsize": 216,
  "size": 216,
  "weight": 864,
  "tx": [
    {
      "txid": "dc2154d309a90651ea623ee815260533053cf3f3979a9178d79986fa1dde5c69",
      "hash": "dc2154d309a90651ea623ee815260533053cf3f3979a9178d79986fa1dde5c69",
      "version": 1,
      "size": 135,
      "vsize": 135,
      "weight": 540,
      "locktime": 0,
      "vin": [
        {
          "coinbase": "04ffff001d02ca05",
          "sequence": 4294967295
        }
      ],
      "vout": [
        {
          "value": 50.0,
          "n": 0,
          "scriptPubKey": {
            "asm": "04b368d193fbc6e4e9749960cedf025d98d68268a1d6242ac518bdcc814e1e46fe44800933771e410d426281034c8577ad371777a5979f2d36e01dbf69b5c65f15 OP_CHECKSIG",
            "desc": "pk(04b368d193fbc6e4e9749960cedf025d98d68268a1d6242ac518bdcc814e1e46fe44800933771e410d426281034c8577ad371777a5979f2d36e01dbf69b5c65f15)#afdy0tr8",
            "hex": "4104b368d193fbc6e4e9749960cedf025d98d68268a1d6242ac518bdcc814e1e46fe44800933771e410d426281034c8577ad371777a5979f2d36e01dbf69b5c65f15ac",
            "type": "pubkey"
          }
        }
      ],
      "hex": "01000000010000000000000000000000000000000000000000000000000000000000000000ffffffff0804ffff001d02ca05ffffffff0100f2052a01000000434104b368d193fbc6e4e9749960cedf025d98d68268a1d6242ac518bdcc814e1e46fe44800933771e410d426281034c8577ad371777a5979f2d36e01dbf69b5c65f15ac00000000"
    }
  ]
}