{
  "hash": "000000000461fcde538569a5d992692266bc503c83df1559d11d9e55854f9980",
  "confirmations": 45365,
  "height": 7733,
  "version": 1,
  "versionHex": "00000001",
  "merkleroot": "859ece4131f61cd24db3efb4ad21153f7a0f970e65a0a1c319109e41b164c19a",
  "time": 1237264195,
  "mediantime": 1237258887,
  "nonce": 1048618502,
  "bits": "1d00ffff",
  "difficulty": 1,
  "chainwork": "00000000000000000000000000000000000000000000000000001e361e361e36",
  "nTx": 1,
  "previousblockhash": "000000003e8da1bbcb66f62568bf10f2468fe45fedb0cdb5fef438a20e34baf3",
  "nextblockhash": "00000000d9ca6945382bc8f245dfe7156bc94bdf5b96ca2e6d7d09d5555eefc7",
  "strippedsize": 216,
  "size": 216,
  "weight": 864,
  "tx": [
    {
      "txid": "859ece4131f61cd24db3efb4ad21153f7a0f970e65a0a1c319109e41b164c19a",
      "hash": "859ece4131f61cd24db3efb4ad21153f7a0f970e65a0a1c319109e41b164c19a",
      "version": 1,
      "size": 135,
      "vsize": 135,
      "weight": 540,
      "locktime": 0,
      "vin": [
        {
          "coinbase": "04ffff001d02c904",
          "sequence": 4294967295
        }
      ],
      "vout": [
        {
          "value": 50.0,
          "n": 0,
          "scriptPubKey": {
            "asm": "0477867fa55956eda65d3f2fc8e4125e05afc6aa53f3596f3f4ef095125177e542ce854a5303d8724fb16368515adfeb81890bc30afc192eb2dedb6180e0659979 OP_CHECKSIG",
            "desc": "pk(0477867fa55956eda65d3f2fc8e4125e05afc6aa53f3596f3f4ef095125177e542ce854a5303d8724fb16368515adfeb81890bc30afc192eb2dedb6180e0659979)#qar2as4r",
            "hex": "410477867fa55956eda65d3f2fc8e4125e05afc6aa53f3596f3f4ef095125177e542ce854a5303d8724fb16368515adfeb81890bc30afc192eb2dedb6180e0659979ac",
            "type": "pubkey"
          }
        }
      ],
      "hex": "01000000010000000000000000000000000000000000000000000000000000000000000000ffffffff0804ffff001d02c904ffffffff0100f2052a0100000043410477867fa55956eda65d3f2fc8e4125e05afc6aa53f3596f3f4ef095125177e542ce854a5303d8724fb16368515adfeb81890bc30afc192eb2dedb6180e0659979ac00000000"
    }
  ]
}