{
  "hash": "00000000fd4afcc15f0fdda9b24be4c62068d8cf82fe6277730fd096712d9d08",
  "confirmations": 52050,
  "height": 175,
  "version": 1,
  "versionHex": "00000001",
  "merkleroot": "48fb3d15e828a31aab6ae17b6f5b14333d0701a9358f9d2ea57655c32cb53b90",
  "time": 1231733876,
  "mediantime": 1231731025,
  "nonce": 2262400290,
  "bits": "1d00ffff",
  "difficulty": 1,
  "chainwork": "000000000000000000000000000000000000000000000000000000b000b000b0",
  "nTx": 1,
  "previousblockhash": "00000000a7d8beee715bbcd62dc818573a8ae9fe398c7d39487e9e776e2852c0",
  "nextblockhash": "0000000016a9f3ddedb8e850941f6981623c7721302a32ca8548dff1f7bd6e58",
  "strippedsize": 215,
  "size": 215,
  "weight": 860,
  "tx": [
    {
      "txid": "48fb3d15e828a31aab6ae17b6f5b14333d0701a9358f9d2ea57655c32cb53b90",
      "hash": "48fb3d15e828a31aab6ae17b6f5b14333d0701a9358f9d2ea57655c32cb53b90",
      "version": 1,
      "size": 134,
      "vsize": 134,
      "weight": 536,
      "locktime": 0,
      "vin": [
        {
          "coinbase": "04ffff001d0107",
          "sequence": 4294967295
        }
      ],
      "vout": [
        {
          "value": 50.0,
          "n": 0,
          "scriptPubKey": {
            "asm": "042d5b363ff00d911478e80cd101f7b0fca09126b9a6c98979fa15b251f3accebfd390ffe1132b97d73f37f79da7fdb747b2942d6f7f78c5da9401fd19120f00ce OP_CHECKSIG",
            "desc": "pk(042d5b363ff00d911478e80cd101f7b0fca09126b9a6c98979fa15b251f3accebfd390ffe1132b97d73f37f79da7fdb747b2942d6f7f78c5da9401fd19120f00ce)#eqnyvydx",
            "hex": "41042d5b363ff00d911478e80cd101f7b0fca09126b9a6c98979fa15b251f3accebfd390ffe1132b97d73f37f79da7fdb747b2942d6f7f78c5da9401fd19120f00ceac",
            "type": "pubkey"
          }
        }
      ],
      "hex": "01000000010000000000000000000000000000000000000000000000000000000000000000ffffffff0704ffff001d0107ffffffff0100f2052a010000004341042d5b363ff00d911478e80cd101f7b0fca09126b9a6c98979fa15b251f3accebfd390ffe1132b97d73f37f79da7fdb747b2942d6f7f78c5da9401fd19120f00ceac00000000"
    }
  ]
}