{
  "hash": "0000000047117d57b8cb010f43ff3ba298f61a3e33692d47519c2435237fe5e1",
  "confirmations": 47776,
  "height": 5322,
  "version": 1,
  "versionHex": "00000001",
  "merkleroot": "c6d7097a589c4e8170f58730caa6bacbf394980d345ffee65b4b6b90b7adfe21",
  "time": 1235380227,
  "mediantime": 1235378731,
  "nonce": 1718293562,
  "bits": "1d00ffff",
  "difficulty": 1,
  "chainwork": "000000000000000000000000000000000000000000000000000014cb14cb14cb",
  "nTx": 1,
  "previousblockhash": "00000000d3b69f8f9b8a6128e417b53412c6fc8ed5354a7d5739bad8aeddbe92",
  "nextblockhash": "000000007707e148d1e11ef8da96c0974a63937e893242256447316e58d6b98e",
  "strippedsize": 216,
  "size": 216,
  "weight": 864,
  "tx": [
    {
      "txid": "c6d7097a589c4e8170f58730caa6bacbf394980d345ffee65b4b6b90b7adfe21",
      "hash": "c6d7097a589c4e8170f58730caa6bacbf394980d345ffee65b4b6b90b7adfe21",
      "version": 1,
      "size": 135,
      "vsize": 135,
      "weight": 540,
      "locktime": 0,
      "vin": [
        {
          "coinbase": "04ffff001d025b02",
          "sequence": 4294967295
        }
      ],
      "vout": [
        {
          "value": 50.0,
          "n": 0,
          "scriptPubKey": {
            "asm": "040d2dd0d99616c137df51141771a48cf47e43ff14d878abb640abd7c61d6bffe8015989c1d7eed0aea73be24ad8e33a3e3de353b08f9fbf720e921abe2685aed9 OP_CHECKSIG",
            "desc": "pk(040d2dd0d99616c137df51141771a48cf47e43ff14d878abb640abd7c61d6bffe8015989c1d7eed0aea73be24ad8e33a3e3de353b08f9fbf720e921abe2685aed9)#d87v0vxl",
            "hex": "41040d2dd0d99616c137df51141771a48cf47e43ff14d878abb640abd7c61d6bffe8015989c1d7eed0aea73be24ad8e33a3e3de353b08f9fbf720e921abe2685aed9ac",
            "type": "pubkey"
          }
        }
      ],
      "hex": "01000000010000000000000000000000000000000000000000000000000000000000000000ffffffff0804ffff001d025b02ffffffff0100f2052a010000004341040d2dd0d99616c137df51141771a48cf47e43ff14d878abb640abd7c61d6bffe8015989c1d7eed0aea73be24ad8e33a3e3de353b08f9fbf720e921abe2685aed9ac00000000"
    }
  ]
}