{
  "hash": "00000000e806613a9ad88f4daf04431d66908f54575276d4759bb378d28bf29b",
  "confirmations": 46382,
  "height": 6716,
  "version": 1,
  "versionHex": "00000001",
  "merkleroot": "6ff558d15e61b5b08ccef2f0914e2d7af9bf410af990e33bdc6046a91b0ca0fb",
  "time": 1236494683,
  "mediantime": 1236490583,
  "nonce": 3469444152,
  "bits": "1d00ffff",
  "difficulty": 1,
  "chainwork": "00000000000000000000000000000000000000000000000000001a3d1a3d1a3d",
  "nTx": 1,
  "previousblockhash": "00000000caf10e58decf15b632e23e1806681a68825b25f8e6a60df0e5a2da99",
  "nextblockhash": "0000000024c190f46c9ea20d9b6c4c35b0c3638d18f639dffa3815b80d779dc7",
  "strippedsize": 216,
  "size": 216,
  "weight": 864,
  "tx": [
    {
      "txid": "6ff558d15e61b5b08ccef2f0914e2d7af9bf410af990e33bdc6046a91b0ca0fb",
      "hash": "6ff558d15e61b5b08ccef2f0914e2d7af9bf410af990e33bdc6046a91b0ca0fb",
      "version": 1,
      "size": 135,
      "vsize": 135,
      "weight": 540,
      "locktime": 0,
      "vin": [
        {
          "coinbase": "04ffff001d024f07",
          "sequence": 4294967295
        }
      ],
      "vout": [
        {
          "value": 50.0,
          "n": 0,
          "scriptPubKey": {
            "asm": "04b011e9c490b7df346f7e05ce25b59f7aab20ed17922bd830ffb7d14cd504a264322b6824b1ce0723354b0d3115584c83a31b1412f2bfe2ed00d3db1ae6ef91ea OP_CHECKSIG",
            "desc": "pk(04b011e9c490b7df346f7e05ce25b59f7aab20ed17922bd830ffb7d14cd504a264322b6824b1ce0723354b0d3115584c83a31b1412f2bfe2ed00d3db1ae6ef91ea)#v6kfy98a",
            "hex": "4104b011e9c490b7df346f7e05ce25b59f7aab20ed17922bd830ffb7d14cd504a264322b6824b1ce0723354b0d3115584c83a31b1412f2bfe2ed00d3db1ae6ef91eaac",
            "type": "pubkey"
          }
        }
      ],
      "hex": "01000000010000000000000000000000000000000000000000000000000000000000000000ffffffff0804ffff001d024f07ffffffff0100f2052a01000000434104b011e9c490b7df346f7e05ce25b59f7aab20ed17922bd830ffb7d14cd504a264322b6824b1ce0723354b0d3115584c83a31b1412f2bfe2ed00d3db1ae6ef91eaac00000000"
    }
  ]
}