{
  "hash": "00000000caf10e58decf15b632e23e1806681a68825b25f8e6a60df0e5a2da99",
  "confirmations": 46383,
  "height": 6715,
  "version": 1,
  "versionHex": "00000001",
  "merkleroot": "52314c47cf197bbc47a5b37bf985e831df3e685f7180b6fb17c7b6628aa9063f",
  "time": 1236493835,
  "mediantime": 1236490282,
  "nonce": 674156834,
  "bits": "1d00ffff",
  "difficulty": 1,
  "chainwork": "00000000000000000000000000000000000000000000000000001a3c1a3c1a3c",
  "nTx": 1,
  "previousblockhash": "000000009ff1900d129365d25ff6529fb89b01d8aa4363d35d5b885c979e4c86",
  "nextblockhash": "00000000e806613a9ad88f4daf04431d66908f54575276d4759bb378d28bf29b",
  "strippedsize": 216,
  "size": 216,
  "weight": 864,
  "tx": [
    {
      "txid": "52314c47cf197bbc47a5b37bf985e831df3e685f7180b6fb17c7b6628aa9063f",
      "hash": "52314c47cf197bbc47a5b37bf985e831df3e685f7180b6fb17c7b6628aa9063f",
      "version": 1,
      "size": 135,
      "vsize": 135,
      "weight": 540,
      "locktime": 0,
      "vin": [
        {
          "coinbase": "04ffff001d024a07",
          "sequence": 4294967295
        }
      ],
      "vout": [
        {
          "value": 50.0,
          "n": 0,
          "scriptPubKey": {
            "asm": "04b1eebc55f17189f7094898af8f980d080017e2d8e18755ff68253e7cff649c90de78e05b10f38a54ac4662d32cc896ce70a6d003135151c96848d8c22ac77360 OP_CHECKSIG",
            "desc": "pk(04b1eebc55f17189f7094898af8f980d080017e2d8e18755ff68253e7cff649c90de78e05b10f38a54ac4662d32cc896ce70a6d003135151c96848d8c22ac77360)#max8tmat",
            "hex": "4104b1eebc55f17189f7094898af8f980d080017e2d8e18755ff68253e7cff649c90de78e05b10f38a54ac4662d32cc896ce70a6d003135151c96848d8c22ac77360ac",
            "type": "pubkey"
          }
        }
      ],
      "hex": "01000000010000000000000000000000000000000000000000000000000000000000000000ffffffff0804ffff001d024a07ffffffff0100f2052a01000000434104b1eebc55f17189f7094898af8f980d080017e2d8e18755ff68253e7cff649c90de78e05b10f38a54ac4662d32cc896ce70a6d003135151c96848d8c22ac77360ac00000000"
    }
  ]
}