{
  "hash": "00000000f097d15d4a19c0d1d9ebd4847f92c56c1d7e773d01dcff0aabc71e2b",
  "confirmations": 44654,
  "height": 8444,
  "version": 1,
  "versionHex": "00000001",
  "merkleroot": "394717e624ef17f94b03a85fcb31a36c55b7fdd313ebf8ba387c179d532c8a7d",
  "time": 1237826465,
  "mediantime": 1237824167,
  "nonce": 135348757,
  "bits": "1d00ffff",
  "difficulty": 1,
  "chainwork": "000000000000000000000000000000000000000000000000000020fd20fd20fd",
  "nTx": 1,
  "previousblockhash": "00000000ee985adaa7242745800b7702d48558fbc517358be4fb597368f8b217",
  "nextblockhash": "00000000c3015f3cc282595568401ed7ed512f399fc6fa7a33ed5de63d5abe83",
  "strippedsize": 216,
  "size": 216,
  "weight": 864,
  "tx": [
    {
      "txid": "394717e624ef17f94b03a85fcb31a36c55b7fdd313ebf8ba387c179d532c8a7d",
      "hash": "394717e624ef17f94b03a85fcb31a36c55b7fdd313ebf8ba387c179d532c8a7d",
      "version": 1,
      "size": 135,
      "vsize": 135,
      "weight": 540,
      "locktime": 0,
      "vin": [
        {
          "coinbase": "04ffff001d02b906",
          "sequence": 4294967295
        }
      ],
      "vout": [
        {
          "value": 50.0,
          "n": 0,
          "scriptPubKey": {
            "asm": "048bae7dd2048c2efd1227bf21680496f5b9333215ae8f6364d403243b25d2b34188d19bf22f6a0e334c1a7522a3f2b766787646840d2abb4a50e4651666851d9f OP_CHECKSIG",
            "desc": "pk(048bae7dd2048c2efd1227bf21680496f5b9333215ae8f6364d403243b25d2b34188d19bf22f6a0e334c1a7522a3f2b766787646840d2abb4a50e4651666851d9f)#szrxdzxu",
            "hex": "41048bae7dd2048c2efd1227bf21680496f5b9333215ae8f6364d403243b25d2b34188d19bf22f6a0e334c1a7522a3f2b766787646840d2abb4a50e4651666851d9fac",
            "type": "pubkey"
          }
        }
      ],
      "hex": "01000000010000000000000000000000000000000000000000000000000000000000000000ffffffff0804ffff001d02b906ffffffff0100f2052a010000004341048bae7dd2048c2efd1227bf21680496f5b9333215ae8f6364d403243b25d2b34188d19bf22f6a0e334c1a7522a3f2b766787646840d2abb4a50e4651666851d9fac00000000"
    }
  ]
}