{
  "hash": "00000000b48007fcdcedc6b3709abe3c54573a631dea64be1ce1e6e9f769ca8a",
  "confirmations": 47750,
  "height": 5348,
  "version": 1,
  "versionHex": "00000001",
  "merkleroot": "d88c30e4020aa4dc7949f046632872c0eab2b9cdb3987c20e14231c77fdbd716",
  "time": 1235402127,
  "mediantime": 1235397531,
  "nonce": 3892163102,
  "bits": "1d00ffff",
  "difficulty": 1,
  "chainwork": "000000000000000000000000000000000000000000000000000014e514e514e5",
  "nTx": 1,
  "previousblockhash": "0000000018b5d5f8461d3ec8e6312c8e9b2750f926ddcdabef9ad5bbcf84e06a",
  "nextblockhash": "00000000e37aae0e36b4f1ed6da9bb16d0a14815d63cc1ee7ca432e76d60c04c",
  "strippedsize": 216,
  "size": 216,
  "weight": 864,
  "tx": [
    {
      "txid": "d88c30e4020aa4dc7949f046632872c0eab2b9cdb3987c20e14231c77fdbd716",
      "hash": "d88c30e4020aa4dc7949f046632872c0eab2b9cdb3987c20e14231c77fdbd716",
      "version": 1,
      "size": 135,
      "vsize": 135,
      "weight": 540,
      "locktime": 0,
      "vin": [
        {
          "coinbase": "04ffff001d02d702",
          "sequence": 4294967295
        }
      ],
      "vout": [
        {
          "value": 50.0,
          "n": 0,
          "scriptPubKey": {
            "asm": "04ace17f6da8cd2656d2d1e940d330ba0062b481ce47988dc8d0584a84a7666a6ad06f11cc37083d5f03ceb47918eeb88b50f31187617db69ae454407f6996c363 OP_CHECKSIG",
            "desc": "pk(04ace17f6da8cd2656d2d1e940d330ba0062b481ce47988dc8d0584a84a7666a6ad06f11cc37083d5f03ceb47918eeb88b50f31187617db69ae454407f6996c363)#zkdjnnrn",
            "hex": "4104ace17f6da8cd2656d2d1e940d330ba0062b481ce47988dc8d0584a84a7666a6ad06f11cc37083d5f03ceb47918eeb88b50f31187617db69ae454407f6996c363ac",
            "type": "pubkey"
          }
        }
      ],
      "hex": "01000000010000000000000000000000000000000000000000000000000000000000000000ffffffff0804ffff001d02d702ffffffff0100f2052a01000000434104ace17f6da8cd2656d2d1e940d330ba0062b481ce47988dc8d0584a84a7666a6ad06f11cc37083d5f03ceb47918eeb88b50f31187617db69ae454407f6996c363ac00000000"
    }
  ]
}