{
  "hash": "000000000f44e3e0d4a0936726c88a989772fe7c12ce7d62bdbfe01130ef86c0",
  "confirmations": 44818,
  "height": 8280,
  "version": 1,
  "versionHex": "00000001",
  "merkleroot": "2f74fa9268bc43ee0e353c7e10f23d84d2a1c6d44761e38a72fc7bdbdd518859",
  "time": 1237719015,
  "mediantime": 1237716347,
  "nonce": 1025931301,
  "bits": "1d00ffff",
  "difficulty": 1,
  "chainwork": "0000000000000000000000000000000000000000000000000000205920592059",
  "nTx": 1,
  "previousblockhash": "00000000fef7255d9362d277b89cf9828b874b78e774690bc09cb3a09b4514f5",
  "nextblockhash": "000000000bc1a45e6c7d12b0f009bc069bdb5f111ca4f02c768b543d20cde197",
  "strippedsize": 216,
  "size": 216,
  "weight": 864,
  "tx": [
    {
      "txid": "2f74fa9268bc43ee0e353c7e10f23d84d2a1c6d44761e38a72fc7bdbdd518859",
      "hash": "2f74fa9268bc43ee0e353c7e10f23d84d2a1c6d44761e38a72fc7bdbdd518859",
      "version": 1,
      "size": 135,
      "vsize": 135,
      "weight": 540,
      "locktime": 0,
      "vin": [
        {
          "coinbase": "04ffff001d02ec03",
          "sequence": 4294967295
        }
      ],
      "vout": [
        {
          "value": 50.0,
          "n": 0,
          "scriptPubKey": {
            "asm": "04dedbc58176ccc14c136e0b021c589fcad72885b5e757ee97e2749b4d056b2271178bbd869349039dbc5531162f9b84a625cd80623b45489646154eaf18febbe4 OP_CHECKSIG",
            "desc": "pk(04dedbc58176ccc14c136e0b021c589fcad72885b5e757ee97e2749b4d056b2271178bbd869349039dbc5531162f9b84a625cd80623b45489646154eaf18febbe4)#phj0mxhu",
            "hex": "4104dedbc58176ccc14c136e0b021c589fcad72885b5e757ee97e2749b4d056b2271178bbd869349039dbc5531162f9b84a625cd80623b45489646154eaf18febbe4ac",
            "type": "pubkey"
          }
        }
      ],
      "hex": "01000000010000000000000000000000000000000000000000000000000000000000000000ffffffff0804ffff001d02ec03ffffffff0100f2052a01000000434104dedbc58176ccc14c136e0b021c589fcad72885b5e757ee97e2749b4d056b2271178bbd869349039dbc5531162f9b84a625cd80623b45489646154eaf18febbe4ac00000000"
    }
  ]
}