{
  "hash": "000000004a7b4643e2233a4494c8b08c099ea0c47e058f226ceead8c74402f6e",
  "confirmations": 51783,
  "height": 1315,
  "version": 1,
  "versionHex": "00000001",
  "merkleroot": "cad4d42f6b25abfbdfa6c59f677abe232a409e0de88ff106d5a94158c75d81e5",
  "time": 1232608332,
  "mediantime": 1232603229,
  "nonce": 2579922739,
  "bits": "1d00ffff",
  "difficulty": 1,
  "chainwork": "0000000000000000000000000000000000000000000000000000052405240524",
  "nTx": 1,
  "previousblockhash": "00000000f1901f4e95b25791a73dbf3979d2fa3f677d43c71706eb9c451f0836",
  "nextblockhash": "000000005fa8f8af01b5520c9eaa71a1d32f4d7c49c9b706a84d714675634ee7",
  "strippedsize": 215,
  "size": 215,
  "weight": 860,
  "tx": [
    {
      "txid": "cad4d42f6b25abfbdfa6c59f677abe232a409e0de88ff106d5a94158c75d81e5",
      "hash": "cad4d42f6b25abfbdfa6c59f677abe232a409e0de88ff106d5a94158c75d81e5",
      "version": 1,
      "size": 134,
      "vsize": 134,
      "weight": 536,
      "locktime": 0,
      "vin": [
        {
          "coinbase": "04ffff001d015f",
          "sequence": 4294967295
        }
      ],
      "vout": [
        {
          "value": 50.0,
          "n": 0,
          "scriptPubKey": {
            "asm": "04cd74a59905860d95e324ea09020ce2d276c783ae0cf34e884d89e05a7f6722e768759c5988d52049c3c33ae316e6ecf823c30171a84671b1144df4d8a282466b OP_CHECKSIG",
            "desc": "pk(04cd74a59905860d95e324ea09020ce2d276c783ae0cf34e884d89e05a7f6722e768759c5988d52049c3c33ae316e6ecf823c30171a84671b1144df4d8a282466b)#7fn95ckh",
            "hex": "4104cd74a59905860d95e324ea09020ce2d276c783ae0cf34e884d89e05a7f6722e768759c5988d52049c3c33ae316e6ecf823c30171a84671b1144df4d8a282466bac",
            "type": "pubkey"
          }
        }
      ],
      "hex": "01000000010000000000000000000000000000000000000000000000000000000000000000ffffffff0704ffff001d015fffffffff0100f2052a01000000434104cd74a59905860d95e324ea09020ce2d276c783ae0cf34e884d89e05a7f6722e768759c5988d52049c3c33ae316e6ecf823c30171a84671b1144df4d8a282466bac00000000"
    }
  ]
}