{
  "hash": "00000000a14f239cdc6a14fb064456fc7d6795201d7d3527909183540a19a530",
  "confirmations": 44713,
  "height": 8385,
  "version": 1,
  "versionHex": "00000001",
  "merkleroot": "5394fb905fcbc251940f0698eda68d922d4ed69b943a6072f8b826cc3346038a",
  "time": 1237790544,
  "mediantime": 1237786586,
  "nonce": 3345321730,
  "bits": "1d00ffff",
  "difficulty": 1,
  "chainwork": "000000000000000000000000000000000000000000000000000020c220c220c2",
  "nTx": 1,
  "previousblockhash": "0000000055e1bfe86b760726149ede44d6e4e1557de44a5c3c01fa6a711834de",
  "nextblockhash": "00000000fbbbd10e3360054637a55889bb0ba3b7a966d6b3c4c4879c30fc6f48",
  "strippedsize": 216,
  "size": 216,
  "weight": 864,
  "tx": [
    {
      "txid": "5394fb905fcbc251940f0698eda68d922d4ed69b943a6072f8b826cc3346038a",
      "hash": "5394fb905fcbc251940f0698eda68d922d4ed69b943a6072f8b826cc3346038a",
      "version": 1,
      "size": 135,
      "vsize": 135,
      "weight": 540,
      "locktime": 0,
      "vin": [
        {
          "coinbase": "04ffff001d029305",
          "sequence": 4294967295
        }
      ],
      "vout": [
        {
          "value": 50.0,
          "n": 0,
          "scriptPubKey": {
            "asm": "0480f31d99e913a189791726e9e13028a485b36061ee1140f8f4508faa1b48329b869cbad89023d6229a382044d559c95ec1d8681b77e7ed56ecd628037bd907e9 OP_CHECKSIG",
            "desc": "pk(0480f31d99e913a189791726e9e13028a485b36061ee1140f8f4508faa1b48329b869cbad89023d6229a382044d559c95ec1d8681b77e7ed56ecd628037bd907e9)#xja8yddu",
            "hex": "410480f31d99e913a189791726e9e13028a485b36061ee1140f8f4508faa1b48329b869cbad89023d6229a382044d559c95ec1d8681b77e7ed56ecd628037bd907e9ac",
            "type": "pubkey"
          }
        }
      ],
      "hex": "01000000010000000000000000000000000000000000000000000000000000000000000000ffffffff0804ffff001d029305ffffffff0100f2052a0100000043410480f31d99e913a189791726e9e13028a485b36061ee1140f8f4508faa1b48329b869cbad89023d6229a382044d559c95ec1d8681b77e7ed56ecd628037bd907e9ac00000000"
    }
  ]
}