{
  "hash": "000000005c13788d942f3c7c03407c32b573d571f5af92654f9c8f6bfa798e2d",
  "confirmations": 47676,
  "height": 5422,
  "version": 1,
  "versionHex": "00000001",
  "merkleroot": "fbe78e87febaf457e3a9ddb3c47e0da4ba609aae2f9e5b76226b2d5f636587bd",
  "time": 1235457203,
  "mediantime": 1235453733,
  "nonce": 1923181873,
  "bits": "1d00ffff",
  "difficulty": 1,
  "chainwork": "0000000000000000000000000000000000000000000000000000152f152f152f",
  "nTx": 1,
  "previousblockhash": "00000000ff1922fd00fb342a2f1a633356d69978297d75f75d90eb495473552f",
  "nextblockhash": "000000009f74e6529fb869f2193613a1c27a5e6a6c2b5a95d12a844642399cbf",
  "strippedsize": 216,
  "size": 216,
  "weight": 864,
  "tx": [
    {
      "txid": "fbe78e87febaf457e3a9ddb3c47e0da4ba609aae2f9e5b76226b2d5f636587bd",
      "hash": "fbe78e87febaf457e3a9ddb3c47e0da4ba609aae2f9e5b76226b2d5f636587bd",
      "version": 1,
      "size": 135,
      "vsize": 135,
      "weight": 540,
      "locktime": 0,
      "vin": [
        {
          "coinbase": "04ffff001d020004",
          "sequence": 4294967295
        }
      ],
      "vout": [
        {
          "value": 50.0,
          "n": 0,
          "scriptPubKey": {
            "asm": "0449b23c52abac5715ca0c55dc796a3c00042e1b68503fc95c4d3add871e353a1b35f0639a4afe834c00c45152520425ac5d2f4f9d87790e8aa6651e3e70df09ff OP_CHECKSIG",
            "desc": "pk(0449b23c52abac5715ca0c55dc796a3c00042e1b68503fc95c4d3add871e353a1b35f0639a4afe834c00c45152520425ac5d2f4f9d87790e8aa6651e3e70df09ff)#4433xj7p",
            "hex": "410449b23c52abac5715ca0c55dc796a3c00042e1b68503fc95c4d3add871e353a1b35f0639a4afe834c00c45152520425ac5d2f4f9d87790e8aa6651e3e70df09ffac",
            "type": "pubkey"
          }
        }
      ],
      "hex": "01000000010000000000000000000000000000000000000000000000000000000000000000ffffffff0804ffff001d020004ffffffff0100f2052a0100000043410449b23c52abac5715ca0c55dc796a3c00042e1b68503fc95c4d3add871e353a1b35f0639a4afe834c00c45152520425ac5d2f4f9d87790e8aa6651e3e70df09ffac00000000"
    }
  ]
}