{
  "hash": "000000007b54debc6423a99f922e68b86703ad02e6611c44acc335d50c998925",
  "confirmations": 45755,
  "height": 7343,
  "version": 1,
  "versionHex": "00000001",
  "merkleroot": "6f849ba53877990359438deb6dc747725eaa7e2e90864b78194b9b59de860f31",
  "time": 1236978856,
  "mediantime": 1236975756,
  "nonce": 6771456,
  "bits": "1d00ffff",
  "difficulty": 1,
  "chainwork": "00000000000000000000000000000000000000000000000000001cb01cb01cb0",
  "nTx": 1,
  "previousblockhash": "0000000044719eedcaccde32c6bb5c290df4c883f0a76147a232aa64d8170bbc",
  "nextblockhash": "000000000381ffacfdce77f3544e4671ce4a48a12e15502c144dfb4ef00b8326",
  "strippedsize": 215,
  "size": 215,
  "weight": 860,
  "tx": [
    {
      "txid": "6f849ba53877990359438deb6dc747725eaa7e2e90864b78194b9b59de860f31",
      "hash": "6f849ba53877990359438deb6dc747725eaa7e2e90864b78194b9b59de860f31",
      "version": 1,
      "size": 134,
      "vsize": 134,
      "weight": 536,
      "locktime": 0,
      "vin": [
        {
          "coinbase": "04ffff001d0122",
          "sequence": 4294967295
        }
      ],
      "vout": [
        {
          "value": 50.0,
          "n": 0,
          "scriptPubKey": {
            "asm": "046bcb322bc0f34d8ef7986afce1281ffe6f4ab56b9efc366579c5e40dbca0a9af334c6dd0c3c029cd7e9c41fcc9d4476261e1897964f6ad45413510ceac837914 OP_CHECKSIG",
            "desc": "pk(046bcb322bc0f34d8ef7986afce1281ffe6f4ab56b9efc366579c5e40dbca0a9af334c6dd0c3c029cd7e9c41fcc9d4476261e1897964f6ad45413510ceac837914)#h22nvuld",
            "hex": "41046bcb322bc0f34d8ef7986afce1281ffe6f4ab56b9efc366579c5e40dbca0a9af334c6dd0c3c029cd7e9c41fcc9d4476261e1897964f6ad45413510ceac837914ac",
            "type": "pubkey"
          }
        }
      ],
      "hex": "01000000010000000000000000000000000000000000000000000000000000000000000000ffffffff0704ffff001d0122ffffffff0100f2052a010000004341046bcb322bc0f34d8ef7986afce1281ffe6f4ab56b9efc366579c5e40dbca0a9af334c6dd0c3c029cd7e9c41fcc9d4476261e1897964f6ad45413510ceac837914ac00000000"
    }
  ]
}