{
  "hash": "000000008d68bca852a9b0b409ebe5062ebe9ed9888ee1520645f54ec9418943",
  "confirmations": 43951,
  "height": 9147,
  "version": 1,
  "versionHex": "00000001",
  "merkleroot": "8f61e4e1748d318a057265cbe5abdfa7a244a8619793141c2d19471f49794246",
  "time": 1238364973,
  "mediantime": 1238363143,
  "nonce": 2882522886,
  "bits": "1d00ffff",
  "difficulty": 1,
  "chainwork": "000000000000000000000000000000000000000000000000000023bc23bc23bc",
  "nTx": 1,
  "previousblockhash": "00000000edf048007e5208ab3a6cc968f9b67ac89fdee28fe7d7bea6c784c67e",
  "nextblockhash": "00000000e14af04bc1b66ab55b729aa82d27f69a1cfa41546b5f0e0c8debfd9c",
  "strippedsize": 216,
  "size": 216,
  "weight": 864,
  "tx": [
    {
      "txid": "8f61e4e1748d318a057265cbe5abdfa7a244a8619793141c2d19471f49794246",
      "hash": "8f61e4e1748d318a057265cbe5abdfa7a244a8619793141c2d19471f49794246",
      "version": 1,
      "size": 135,
      "vsize": 135,
      "weight": 540,
      "locktime": 0,
      "vin": [
        {
          "coinbase": "04ffff001d023b09",
          "sequence": 4294967295
        }
      ],
      "vout": [
        {
          "value": 50.0,
          "n": 0,
          "scriptPubKey": {
            "asm": "0480a07a525cb7b64d78a244d62bd8ea986178c2758bdd0e42f49ec5bcbad9997737acaefe90dd22fd104fff33f5be19381151c9a43d7edbe46bf485df65241218 OP_CHECKSIG",
            "desc": "pk(0480a07a525cb7b64d78a244d62bd8ea986178c2758bdd0e42f49ec5bcbad9997737acaefe90dd22fd104fff33f5be19381151c9a43d7edbe46bf485df65241218)#qucdpugg",
            "hex": "410480a07a525cb7b64d78a244d62bd8ea986178c2758bdd0e42f49ec5bcbad9997737acaefe90dd22fd104fff33f5be19381151c9a43d7edbe46bf485df65241218ac",
            "type": "pubkey"
          }
        }
      ],
      "hex": "01000000010000000000000000000000000000000000000000000000000000000000000000ffffffff0804ffff001d023b09ffffffff0100f2052a0100000043410480a07a525cb7b64d78a244d62bd8ea986178c2758bdd0e42f49ec5bcbad9997737acaefe90dd22fd104fff33f5be19381151c9a43d7edbe46bf485df65241218ac00000000"
    }
  ]
}