{
  "hash": "00000000ba9d6ac9ee33b7740320afeb7a0cdd98f98a0dc84c9a6aca1160190e",
  "confirmations": 50562,
  "height": 2536,
  "version": 1,
  "versionHex": "00000001",
  "merkleroot": "94e495d21a9b14b71c6cdb06d2e3ab2cd1bd2059b0a4324a5c4763afd1293dcf",
  "time": 1233442026,
  "mediantime": 1233437971,
  "nonce": 96757366,
  "bits": "1d00ffff",
  "difficulty": 1,
  "chainwork": "000000000000000000000000000000000000000000000000000009e909e909e9",
  "nTx": 1,
  "previousblockhash": "00000000bb0ce082a9c12a10d4bf003e64d2d3de464a7b7011588660426fe145",
  "nextblockhash": "000000005180e108826aae57b4910e1a06f8bcb7b3e163913cea4f491143f4cc",
  "strippedsize": 216,
  "size": 216,
  "weight": 864,
  "tx": [
    {
      "txid": "94e495d21a9b14b71c6cdb06d2e3ab2cd1bd2059b0a4324a5c4763afd1293dcf",
      "hash": "94e495d21a9b14b71c6cdb06d2e3ab2cd1bd2059b0a4324a5c4763afd1293dcf",
      "version": 1,
      "size": 135,
      "vsize": 135,
      "weight": 540,
      "locktime": 0,
      "vin": [
        {
          "coinbase": "04ffff001d025605",
          "sequence": 4294967295
        }
      ],
      "vout": [
        {
          "value": 50.0,
          "n": 0,
          "scriptPubKey": {
            "asm": "044cb6aed2e15b4fcb462144ce2c240f248cde1facddc753f9de6f87050b0606ef394ab8e4f692d51788a9b2328ba96d9df7d2a0996acfa1a5b350df3697000d74 OP_CHECKSIG",
            "desc": "pk(044cb6aed2e15b4fcb462144ce2c240f248cde1facddc753f9de6f87050b0606ef394ab8e4f692d51788a9b2328ba96d9df7d2a0996acfa1a5b350df3697000d74)#6v509243",
            "hex": "41044cb6aed2e15b4fcb462144ce2c240f248cde1facddc753f9de6f87050b0606ef394ab8e4f692d51788a9b2328ba96d9df7d2a0996acfa1a5b350df3697000d74ac",
            "type": "pubkey"
          }
        }
      ],
      "hex": "01000000010000000000000000000000000000000000000000000000000000000000000000ffffffff0804ffff001d025605ffffffff0100f2052a010000004341044cb6aed2e15b4fcb462144ce2c240f248cde1facddc753f9de6f87050b0606ef394ab8e4f692d51788a9b2328ba96d9df7d2a0996acfa1a5b350df3697000d74ac00000000"
    }
  ]
}