{
  "hash": "00000000bc575fd8fc0320ee5b7bcc92a846871f10c3643dfa2e917d7ab0f997",
  "confirmations": 44117,
  "height": 8981,
  "version": 1,
  "versionHex": "00000001",
  "merkleroot": "e1c4485b8780f2c05ea29a92d5d34cfdf4bbb4d96747e0bc638c55c9a25dbcd3",
  "time": 1238239339,
  "mediantime": 1238235968,
  "nonce": 4007577905,
  "bits": "1d00ffff",
  "difficulty": 1,
  "chainwork": "0000000000000000000000000000000000000000000000000000231623162316",
  "nTx": 1,
  "previousblockhash": "000000002b6ddc71413d93249aeeb35ae0e0d2fbdb9d4333667a40826638589f",
  "nextblockhash": "00000000df13b9e208afff5f5d0f391a9265b32be4298ceb5df6aa79ff9d9e70",
  "strippedsize": 216,
  "size": 216,
  "weight": 864,
  "tx": [
    {
      "txid": "e1c4485b8780f2c05ea29a92d5d34cfdf4bbb4d96747e0bc638c55c9a25dbcd3",
      "hash": "e1c4485b8780f2c05ea29a92d5d34cfdf4bbb4d96747e0bc638c55c9a25dbcd3",
      "version": 1,
      "size": 135,
      "vsize": 135,
      "weight": 540,
      "locktime": 0,
      "vin": [
        {
          "coinbase": "04ffff001d022306",
          "sequence": 4294967295
        }
      ],
      "vout": [
        {
          "value": 50.0,
          "n": 0,
          "scriptPubKey": {
            "asm": "04870852826b66c876c5831e7e9fba8cead2984fae4be77de9360a4409a6a0adb4d35d35be83386960dd8c69d96e23517557bcc2e373d255275cbd8adede312560 OP_CHECKSIG",
            "desc": "pk(04870852826b66c876c5831e7e9fba8cead2984fae4be77de9360a4409a6a0adb4d35d35be83386960dd8c69d96e23517557bcc2e373d255275cbd8adede312560)#8selpvuf",
            "hex": "4104870852826b66c876c5831e7e9fba8cead2984fae4be77de9360a4409a6a0adb4d35d35be83386960dd8c69d96e23517557bcc2e373d255275cbd8adede312560ac",
            "type": "pubkey"
          }
        }
      ],
      "hex": "01000000010000000000000000000000000000000000000000000000000000000000000000ffffffff0804ffff001d022306ffffffff0100f2052a01000000434104870852826b66c876c5831e7e9fba8cead2984fae4be77de9360a4409a6a0adb4d35d35be83386960dd8c69d96e23517557bcc2e373d255275cbd8adede312560ac00000000"
    }
  ]
}