{
  "hash": "00000000de071e247a1f44be9908714f0cc8282e2ddcdf7d2c4b3dbca9a624d3",
  "confirmations": 52439,
  "height": 659,
  "version": 1,
  "versionHex": "00000001",
  "merkleroot": "c7d09da78dbb9333ac16aae5ff267a7726b5c07867bf1cf20b6183415096dde3",
  "time": 1232074147,
  "mediantime": 1232071761,
  "nonce": 1228971283,
  "bits": "1d00ffff",
  "difficulty": 1,
  "chainwork": "0000000000000000000000000000000000000000000000000000029402940294",
  "nTx": 1,
  "previousblockhash": "000000006aad240f2485670793fcc62eb5006a42aba22e32b6918d710a2583b3",
  "nextblockhash": "00000000ef6644f79c0e3363c0359de10bc485d9d032af7c8097b325b54a2497",
  "strippedsize": 216,
  "size": 216,
  "weight": 864,
  "tx": [
    {
      "txid": "c7d09da78dbb9333ac16aae5ff267a7726b5c07867bf1cf20b6183415096dde3",
      "hash": "c7d09da78dbb9333ac16aae5ff267a7726b5c07867bf1cf20b6183415096dde3",
      "version": 1,
      "size": 135,
      "vsize": 135,
      "weight": 540,
      "locktime": 0,
      "vin": [
        {
          "coinbase": "04ffff001d02b907",
          "sequence": 4294967295
        }
      ],
      "vout": [
        {
          "value": 50.0,
          "n": 0,
          "scriptPubKey": {
            "asm": "04434e62a1af1e42dd0bc9506abf7ffc834bbffdbc77222061a94726459c693d99f3a1d88959b8d2a2e4212870042988da7571c9bc328a2dc02f7f62fbffa46859 OP_CHECKSIG",
            "desc": "pk(04434e62a1af1e42dd0bc9506abf7ffc834bbffdbc77222061a94726459c693d99f3a1d88959b8d2a2e4212870042988da7571c9bc328a2dc02f7f62fbffa46859)#knqerhry",
            "hex": "4104434e62a1af1e42dd0bc9506abf7ffc834bbffdbc77222061a94726459c693d99f3a1d88959b8d2a2e4212870042988da7571c9bc328a2dc02f7f62fbffa46859ac",
            "type": "pubkey"
          }
        }
      ],
      "hex": "01000000010000000000000000000000000000000000000000000000000000000000000000ffffffff0804ffff001d02b907ffffffff0100f2052a01000000434104434e62a1af1e42dd0bc9506abf7ffc834bbffdbc77222061a94726459c693d99f3a1d88959b8d2a2e4212870042988da7571c9bc328a2dc02f7f62fbffa46859ac00000000"
    }
  ]
}