{
  "hash": "00000000652c66e45a2ca664d646231dc932583f7a3291753d9308ef5b4c19a1",
  "confirmations": 49943,
  "height": 3155,
  "version": 1,
  "versionHex": "00000001",
  "merkleroot": "1f615ad4a43d5279ac916460453a6893527293fae2f93a7e8aaf8f54462256ec",
  "time": 1233869854,
  "mediantime": 1233867744,
  "nonce": 3457383732,
  "bits": "1d00ffff",
  "difficulty": 1,
  "chainwork": "00000000000000000000000000000000000000000000000000000c540c540c54",
  "nTx": 1,
  "previousblockhash": "00000000b26a3295d00933c2aaa73bca19a3b643b0ad9c72545592527d10aa91",
  "nextblockhash": "00000000a74d9c54130b3088791be0d87d7f65a67fc29cca81d5aa30cbb3a109",
  "strippedsize": 216,
  "size": 216,
  "weight": 864,
  "tx": [
    {
      "txid": "1f615ad4a43d5279ac916460453a6893527293fae2f93a7e8aaf8f54462256ec",
      "hash": "1f615ad4a43d5279ac916460453a6893527293fae2f93a7e8aaf8f54462256ec",
      "version": 1,
      "size": 135,
      "vsize": 135,
      "weight": 540,
      "locktime": 0,
      "vin": [
        {
          "coinbase": "04ffff001d020d02",
          "sequence": 4294967295
        }
      ],
      "vout": [
        {
          "value": 50.0,
          "n": 0,
          "scriptPubKey": {
            "asm": "041a700da4c1b469e9d2bbc6e497cc4d663c56dacde7c58ef047f5495f8c2010cde10dc1c1f43396493d2f5c83bff3cfcb70bcbd6be281db19bb362cb4fff67cc6 OP_CHECKSIG",
            "desc": "pk(041a700da4c1b469e9d2bbc6e497cc4d663c56dacde7c58ef047f5495f8c2010cde10dc1c1f43396493d2f5c83bff3cfcb70bcbd6be281db19bb362cb4fff67cc6)#r95nm2df",
            "hex": "41041a700da4c1b469e9d2bbc6e497cc4d663c56dacde7c58ef047f5495f8c2010cde10dc1c1f43396493d2f5c83bff3cfcb70bcbd6be281db19bb362cb4fff67cc6ac",
            "type": "pubkey"
          }
        }
      ],
      "hex": "01000000010000000000000000000000000000000000000000000000000000000000000000ffffffff0804ffff001d020d02ffffffff0100f2052a010000004341041a700da4c1b469e9d2bbc6e497cc4d663c56dacde7c58ef047f5495f8c2010cde10dc1c1f43396493d2f5c83bff3cfcb70bcbd6be281db19bb362cb4fff67cc6ac00000000"
    }
  ]
}