{
  "hash": "0000000060817ef9a8e80134b432ebfd7ae68b0e02f426e828ff2ecefadca7c7",
  "confirmations": 47493,
  "height": 5605,
  "version": 1,
  "versionHex": "00000001",
  "merkleroot": "ac84de1d2ce8f9c96fa11f96f6b6b64ab00aa73898598c0158e250eb134b65bc",
  "time": 1235608666,
  "mediantime": 1235603390,
  "nonce": 3786078250,
  "bits": "1d00ffff",
  "difficulty": 1,
  "chainwork": "000000000000000000000000000000000000000000000000000015e615e615e6",
  "nTx": 1,
  "previousblockhash": "00000000be64a3fbf13da1507fbaf05763df31306d5a5650c2e841272d077774",
  "nextblockhash": "0000000094e2db81aa4c18ff1a5fab546191d892fca20e421787d63605f34e3f",
  "strippedsize": 216,
  "size": 216,
  "weight": 864,
  "tx": [
    {
      "txid": "ac84de1d2ce8f9c96fa11f96f6b6b64ab00aa73898598c0158e250eb134b65bc",
      "hash": "ac84de1d2ce8f9c96fa11f96f6b6b64ab00aa73898598c0158e250eb134b65bc",
      "version": 1,
      "size": 135,
      "vsize": 135,
      "weight": 540,
      "locktime": 0,
      "vin": [
        {
          "coinbase": "04ffff001d02b807",
          "sequence": 4294967295
        }
      ],
      "vout": [
        {
          "value": 50.0,
          "n": 0,
          "scriptPubKey": {
            "asm": "04d781601b0b599c8d2a0a1b9cd2c0ccccc7cef100b4c24a82ae8a35d35f0c99fa5f5e178946db623faa432007d32d4b850878f8949cbe5d755006a99b415a1f13 OP_CHECKSIG",
            "desc": "pk(04d781601b0b599c8d2a0a1b9cd2c0ccccc7cef100b4c24a82ae8a35d35f0c99fa5f5e178946db623faa432007d32d4b850878f8949cbe5d755006a99b415a1f13)#kd4ewz6q",
            "hex": "4104d781601b0b599c8d2a0a1b9cd2c0ccccc7cef100b4c24a82ae8a35d35f0c99fa5f5e178946db623faa432007d32d4b850878f8949cbe5d755006a99b415a1f13ac",
            "type": "pubkey"
          }
        }
      ],
      "hex": "01000000010000000000000000000000000000000000000000000000000000000000000000ffffffff0804ffff001d02b807ffffffff0100f2052a01000000434104d781601b0b599c8d2a0a1b9cd2c0ccccc7cef100b4c24a82ae8a35d35f0c99fa5f5e178946db623faa432007d32d4b850878f8949cbe5d755006a99b415a1f13ac00000000"
    }
  ]
}