{
  "hash": "0000000011696100810276aa2c187641dfd89e734e1eff851aa9f3cbfa869f09",
  "confirmations": 47797,
  "height": 5301,
  "version": 1,
  "versionHex": "00000001",
  "merkleroot": "fd7a6396c17b0feabdcdc98be6c4aba5e3edc6bbd843e6311d4a44fc1f76f9be",
  "time": 1235364233,
  "mediantime": 1235358205,
  "nonce": 755382278,
  "bits": "1d00ffff",
  "difficulty": 1,
  "chainwork": "000000000000000000000000000000000000000000000000000014b614b614b6",
  "nTx": 1,
  "previousblockhash": "0000000033d54f6bc59c7da718bf75fe4073f89990f827dbed01469b976f86c9",
  "nextblockhash": "00000000119a7724fd72488c6e100c18201f0d8e50db4ac468455392a0df09bc",
  "strippedsize": 216,
  "size": 216,
  "weight": 864,
  "tx": [
    {
      "txid": "fd7a6396c17b0feabdcdc98be6c4aba5e3edc6bbd843e6311d4a44fc1f76f9be",
      "hash": "fd7a6396c17b0feabdcdc98be6c4aba5e3edc6bbd843e6311d4a44fc1f76f9be",
      "version": 1,
      "size": 135,
      "vsize": 135,
      "weight": 540,
      "locktime": 0,
      "vin": [
        {
          "coinbase": "04ffff001d021c02",
          "sequence": 4294967295
        }
      ],
      "vout": [
        {
          "value": 50.0,
          "n": 0,
          "scriptPubKey": {
            "asm": "043291d086d75d41b717f02458d54034b5a90bee68e0f0be1ce6fb9a9a8ad19b0b1f406c990978528bc3c75882766eb882aeff41bc638f54fb2abc3bf19c964b3c OP_CHECKSIG",
            "desc": "pk(043291d086d75d41b717f02458d54034b5a90bee68e0f0be1ce6fb9a9a8ad19b0b1f406c990978528bc3c75882766eb882aeff41bc638f54fb2abc3bf19c964b3c)#v26x00ze",
            "hex": "41043291d086d75d41b717f02458d54034b5a90bee68e0f0be1ce6fb9a9a8ad19b0b1f406c990978528bc3c75882766eb882aeff41bc638f54fb2abc3bf19c964b3cac",
            "type": "pubkey"
          }
        }
      ],
      "hex": "01000000010000000000000000000000000000000000000000000000000000000000000000ffffffff0804ffff001d021c02ffffffff0100f2052a010000004341043291d086d75d41b717f02458d54034b5a90bee68e0f0be1ce6fb9a9a8ad19b0b1f406c990978528bc3c75882766eb882aeff41bc638f54fb2abc3bf19c964b3cac00000000"
    }
  ]
}