{
  "hash": "00000000613da6433c0f6c61d8bcb17c39603dd4a8595142359905b18b84edcd",
  "confirmations": 52078,
  "height": 257,
  "version": 1,
  "versionHex": "00000001",
  "merkleroot": "214cf5e003c073e162120b143f84b5552816fc27248205533f00b7e5042f2737",
  "time": 1231799163,
  "mediantime": 1231795114,
  "nonce": 3714811674,
  "bits": "1d00ffff",
  "difficulty": 1,
  "chainwork": "0000000000000000000000000000000000000000000000000000010201020102",
  "nTx": 1,
  "previousblockhash": "0000000092b1d848c608c64f9f764623432855007593e596258bb40daffa8fe7",
  "nextblockhash": "000000001a748e1c97226c59b9ddf79a54e0857116808a1b5610a52aef4ed5b5",
  "strippedsize": 216,
  "size": 216,
  "weight": 864,
  "tx": [
    {
      "txid": "214cf5e003c073e162120b143f84b5552816fc27248205533f00b7e5042f2737",
      "hash": "214cf5e003c073e162120b143f84b5552816fc27248205533f00b7e5042f2737",
      "version": 1,
      "size": 135,
      "vsize": 135,
      "weight": 540,
      "locktime": 0,
      "vin": [
        {
          "coinbase": "04ffff001d023601",
          "sequence": 4294967295
        }
      ],
      "vout": [
        {
          "value": 50.0,
          "n": 0,
          "scriptPubKey": {
            "asm": "04e633633ec2315d752bb0aa34d84a8a718bd7eb05ca8ea462d88c7a255813f85b8eaaba6fe1ee43886eb1b4ff7ba47535d9abcb0398ab41e46dd68f2baee9cd3c OP_CHECKSIG",
            "desc": "pk(04e633633ec2315d752bb0aa34d84a8a718bd7eb05ca8ea462d88c7a255813f85b8eaaba6fe1ee43886eb1b4ff7ba47535d9abcb0398ab41e46dd68f2baee9cd3c)#t5h6h3uj",
            "hex": "4104e633633ec2315d752bb0aa34d84a8a718bd7eb05ca8ea462d88c7a255813f85b8eaaba6fe1ee43886eb1b4ff7ba47535d9abcb0398ab41e46dd68f2baee9cd3cac",
            "type": "pubkey"
          }
        }
      ],
      "hex": "01000000010000000000000000000000000000000000000000000000000000000000000000ffffffff0804ffff001d023601ffffffff0100f2052a01000000434104e633633ec2315d752bb0aa34d84a8a718bd7eb05ca8ea462d88c7a255813f85b8eaaba6fe1ee43886eb1b4ff7ba47535d9abcb0398ab41e46dd68f2baee9cd3cac00000000"
    }
  ]
}