{
  "hash": "00000000b620e15a469e3404a0a5e74ace5b93d69234d1b5dc5dbbe59d54a1aa",
  "confirmations": 47090,
  "height": 6008,
  "version": 1,
  "versionHex": "00000001",
  "merkleroot": "be21d07f08d7d47032a94d3067c1d6148cbab77d0c1a0ccab1704c31a2db3ae9",
  "time": 1235931665,
  "mediantime": 1235929212,
  "nonce": 3481677624,
  "bits": "1d00ffff",
  "difficulty": 1,
  "chainwork": "0000000000000000000000000000000000000000000000000000177917791779",
  "nTx": 1,
  "previousblockhash": "000000008bc3ccc1a72da93565653b8f70c541a9429eb67b1d50db964b86da60",
  "nextblockhash": "0000000054c76b6f6f5281bec251577475cc500fc2f754a3e58985752e6cee12",
  "strippedsize": 216,
  "size": 216,
  "weight": 864,
  "tx": [
    {
      "txid": "be21d07f08d7d47032a94d3067c1d6148cbab77d0c1a0ccab1704c31a2db3ae9",
      "hash": "be21d07f08d7d47032a94d3067c1d6148cbab77d0c1a0ccab1704c31a2db3ae9",
      "version": 1,
      "size": 135,
      "vsize": 135,
      "weight": 540,
      "locktime": 0,
      "vin": [
        {
          "coinbase": "04ffff001d020c05",
          "sequence": 4294967295
        }
      ],
      "vout": [
        {
          "value": 50.0,
          "n": 0,
          "scriptPubKey": {
            "asm": "04419583ff09acbea2a3515e4683063494a1003f0b739f1ee5c852c30f132f64a9b918e8f78e8952100b318f0d78da1840d5ba6a3cb9f1b6dd710533bfcc6f54f8 OP_CHECKSIG",
            "desc": "pk(04419583ff09acbea2a3515e4683063494a1003f0b739f1ee5c852c30f132f64a9b918e8f78e8952100b318f0d78da1840d5ba6a3cb9f1b6dd710533bfcc6f54f8)#p85jur7y",
            "hex": "4104419583ff09acbea2a3515e4683063494a1003f0b739f1ee5c852c30f132f64a9b918e8f78e8952100b318f0d78da1840d5ba6a3cb9f1b6dd710533bfcc6f54f8ac",
            "type": "pubkey"
          }
        }
      ],
      "hex": "01000000010000000000000000000000000000000000000000000000000000000000000000ffffffff0804ffff001d020c05ffffffff0100f2052a01000000434104419583ff09acbea2a3515e4683063494a1003f0b739f1ee5c852c30f132f64a9b918e8f78e8952100b318f0d78da1840d5ba6a3cb9f1b6dd710533bfcc6f54f8ac00000000"
    }
  ]
}