{
  "hash": "00000000108a0cd17dd40745752768b9647d80581d861602a7fa4dc5e0ac6a1a",
  "confirmations": 50013,
  "height": 3085,
  "version": 1,
  "versionHex": "00000001",
  "merkleroot": "56e8bdbf6ee3711ea964dc73e3d5b456a43a77f7a8d12e2b082e5b5746ab306d",
  "time": 1233821835,
  "mediantime": 1233817927,
  "nonce": 390092824,
  "bits": "1d00ffff",
  "difficulty": 1,
  "chainwork": "00000000000000000000000000000000000000000000000000000c0e0c0e0c0e",
  "nTx": 1,
  "previousblockhash": "0000000097ae206cfe8db5a04816e5803bbfe58e3d400d4d1bb8994deac61707",
  "nextblockhash": "00000000cbef185e083d66765bd78e563c3b50bd112ca078d500c2292ab7f776",
  "strippedsize": 216,
  "size": 216,
  "weight": 864,
  "tx": [
    {
      "txid": "56e8bdbf6ee3711ea964dc73e3d5b456a43a77f7a8d12e2b082e5b5746ab306d",
      "hash": "56e8bdbf6ee3711ea964dc73e3d5b456a43a77f7a8d12e2b082e5b5746ab306d",
      "version": 1,
      "size": 135,
      "vsize": 135,
      "weight": 540,
      "locktime": 0,
      "vin": [
        {
          "coinbase": "04ffff001d02f200",
          "sequence": 4294967295
        }
      ],
      "vout": [
        {
          "value": 50.0,
          "n": 0,
          "scriptPubKey": {
            "asm": "047a1fdac5db6a1535a6e3d624d7a2d76a4002371a050008ed460239c7db19530eb257d98658b1dc21948bdbd187cecb130d80ade591e03c4ebe81790c97ba8946 OP_CHECKSIG",
            "desc": "pk(047a1fdac5db6a1535a6e3d624d7a2d76a4002371a050008ed460239c7db19530eb257d98658b1dc21948bdbd187cecb130d80ade591e03c4ebe81790c97ba8946)#j82gl0en",
            "hex": "41047a1fdac5db6a1535a6e3d624d7a2d76a4002371a050008ed460239c7db19530eb257d98658b1dc21948bdbd187cecb130d80ade591e03c4ebe81790c97ba8946ac",
            "type": "pubkey"
          }
        }
      ],
      "hex": "01000000010000000000000000000000000000000000000000000000000000000000000000ffffffff0804ffff001d02f200ffffffff0100f2052a010000004341047a1fdac5db6a1535a6e3d624d7a2d76a4002371a050008ed460239c7db19530eb257d98658b1dc21948bdbd187cecb130d80ade591e03c4ebe81790c97ba8946ac00000000"
    }
  ]
}