{
  "hash": "0000000031c97dfb51b823efe75ee7917133bbfc610b0ffa07d21d52006b83e6",
  "confirmations": 52196,
  "height": 425,
  "version": 1,
  "versionHex": "00000001",
  "merkleroot": "453a04de93a860a6ef92634f57bc44cf20772f720255b1294e29874bfe0555ea",
  "time": 1231918065,
  "mediantime": 1231914994,
  "nonce": 730033416,
  "bits": "1d00ffff",
  "difficulty": 1,
  "chainwork": "000000000000000000000000000000000000000000000000000001aa01aa01aa",
  "nTx": 1,
  "previousblockhash": "00000000fbeefb043c0f27fc4a978e6a3600e90bed2f4c2de756c2a1c65cf544",
  "nextblockhash": "0000000065bda4f8ed6ea6070ce861d1388d7375d6060e6113fd574a88173710",
  "strippedsize": 216,
  "size": 216,
  "weight": 864,
  "tx": [
    {
      "txid": "453a04de93a860a6ef92634f57bc44cf20772f720255b1294e29874bfe0555ea",
      "hash": "453a04de93a860a6ef92634f57bc44cf20772f720255b1294e29874bfe0555ea",
      "version": 1,
      "size": 135,
      "vsize": 135,
      "weight": 540,
      "locktime": 0,
      "vin": [
        {
          "coinbase": "04ffff001d02ff02",
          "sequence": 4294967295
        }
      ],
      "vout": [
        {
          "value": 50.0,
          "n": 0,
          "scriptPubKey": {
            "asm": "0482e36821f4849a771692157531ecc4913830e2cb79c89689c40de2fd99da20c55b80b262726afa9a437293bf8d84b28304b7fd7e5169f7809193add8446f1f76 OP_CHECKSIG",
            "desc": "pk(0482e36821f4849a771692157531ecc4913830e2cb79c89689c40de2fd99da20c55b80b262726afa9a437293bf8d84b28304b7fd7e5169f7809193add8446f1f76)#g0ljgeq2",
            "hex": "410482e36821f4849a771692157531ecc4913830e2cb79c89689c40de2fd99da20c55b80b262726afa9a437293bf8d84b28304b7fd7e5169f7809193add8446f1f76ac",
            "type": "pubkey"
          }
        }
      ],
      "hex": "01000000010000000000000000000000000000000000000000000000000000000000000000ffffffff0804ffff001d02ff02ffffffff0100f2052a0100000043410482e36821f4849a771692157531ecc4913830e2cb79c89689c40de2fd99da20c55b80b262726afa9a437293bf8d84b28304b7fd7e5169f7809193add8446f1f76ac00000000"
    }
  ]
}