{
  "hash": "00000000c2644d8135b6aefd4b064bd7d450ea7edac1da6f286df9b4e61e297e",
  "confirmations": 46433,
  "height": 6665,
  "version": 1,
  "versionHex": "00000001",
  "merkleroot": "4707eec843697474094f7e2bf97137f4e6fefd0b657f13a9f8fbe922085e4746",
  "time": 1236456033,
  "mediantime": 1236451668,
  "nonce": 1542790146,
  "bits": "1d00ffff",
  "difficulty": 1,
  "chainwork": "00000000000000000000000000000000000000000000000000001a0a1a0a1a0a",
  "nTx": 1,
  "previousblockhash": "0000000074f99cc2c2f30dd95322757a2772b083a8695974540fdfe9756ef716",
  "nextblockhash": "000000007e2811a6012b2f6b797ef936a1bfccf2f00e150ca8fa28fafaf0638c",
  "strippedsize": 216,
  "size": 216,
  "weight": 864,
  "tx": [
    {
      "txid": "4707eec843697474094f7e2bf97137f4e6fefd0b657f13a9f8fbe922085e4746",
      "hash": "4707eec843697474094f7e2bf97137f4e6fefd0b657f13a9f8fbe922085e4746",
      "version": 1,
      "size": 135,
      "vsize": 135,
      "weight": 540,
      "locktime": 0,
      "vin": [
        {
          "coinbase": "04ffff001d025b06",
          "sequence": 4294967295
        }
      ],
      "vout": [
        {
          "value": 50.0,
          "n": 0,
          "scriptPubKey": {
            "asm": "0497849bc2978990110c1768772628f81e95644fd6a07f16a59e2debca8da99661163adbc98aafef10197df0820756554537970f0b6019f69d695d070a408f4106 OP_CHECKSIG",
            "desc": "pk(0497849bc2978990110c1768772628f81e95644fd6a07f16a59e2debca8da99661163adbc98aafef10197df0820756554537970f0b6019f69d695d070a408f4106)#lkse58fx",
            "hex": "410497849bc2978990110c1768772628f81e95644fd6a07f16a59e2debca8da99661163adbc98aafef10197df0820756554537970f0b6019f69d695d070a408f4106ac",
            "type": "pubkey"
          }
        }
      ],
      "hex": "01000000010000000000000000000000000000000000000000000000000000000000000000ffffffff0804ffff001d025b06ffffffff0100f2052a0100000043410497849bc2978990110c1768772628f81e95644fd6a07f16a59e2debca8da99661163adbc98aafef10197df0820756554537970f0b6019f69d695d070a408f4106ac00000000"
    }
  ]
}