{
  "hash": "00000000f735bb7ba097702ecffefaa00fb780c107864a4388cb47185a16f396",
  "confirmations": 45830,
  "height": 7268,
  "version": 1,
  "versionHex": "00000001",
  "merkleroot": "767ae64864f8a2b39ba100aeb07738d03dbbd9cf779e30b0d0168a1a1627494e",
  "time": 1236923060,
  "mediantime": 1236919831,
  "nonce": 193162730,
  "bits": "1d00ffff",
  "difficulty": 1,
  "chainwork": "00000000000000000000000000000000000000000000000000001c651c651c65",
  "nTx": 1,
  "previousblockhash": "0000000053c595c8ba04b43d09f6b7eb0ccc868014daf55c2895392eaaaa0690",
  "nextblockhash": "00000000fb4306016140d54443a226596e9998c3fd3260f13adf24a4f8555617",
  "strippedsize": 216,
  "size": 216,
  "weight": 864,
  "tx": [
    {
      "txid": "767ae64864f8a2b39ba100aeb07738d03dbbd9cf779e30b0d0168a1a1627494e",
      "hash": "767ae64864f8a2b39ba100aeb07738d03dbbd9cf779e30b0d0168a1a1627494e",
      "version": 1,
      "size": 135,
      "vsize": 135,
      "weight": 540,
      "locktime": 0,
      "vin": [
        {
          "coinbase": "04ffff001d02db00",
          "sequence": 4294967295
        }
      ],
      "vout": [
        {
          "value": 50.0,
          "n": 0,
          "scriptPubKey": {
            "asm": "046c1ae08efc24dea21e1404cc1c7b5cf02530181b3d39273d33dc5ffae99448205292afb3cc43d9ab80b791d036dfde44344221aee0100402ff0a03a1fdea13eb OP_CHECKSIG",
            "desc": "pk(046c1ae08efc24dea21e1404cc1c7b5cf02530181b3d39273d33dc5ffae99448205292afb3cc43d9ab80b791d036dfde44344221aee0100402ff0a03a1fdea13eb)#a9xrgkup",
            "hex": "41046c1ae08efc24dea21e1404cc1c7b5cf02530181b3d39273d33dc5ffae99448205292afb3cc43d9ab80b791d036dfde44344221aee0100402ff0a03a1fdea13ebac",
            "type": "pubkey"
          }
        }
      ],
      "hex": "01000000010000000000000000000000000000000000000000000000000000000000000000ffffffff0804ffff001d02db00ffffffff0100f2052a010000004341046c1ae08efc24dea21e1404cc1c7b5cf02530181b3d39273d33dc5ffae99448205292afb3cc43d9ab80b791d036dfde44344221aee0100402ff0a03a1fdea13ebac00000000"
    }
  ]
}