{
  "hash": "00000000b0448e22fa4a6ff9f9b29c66c4934e1ccb0620bcdf2689453626933e",
  "confirmations": 52175,
  "height": 454,
  "version": 1,
  "versionHex": "00000001",
  "merkleroot": "80ec89837a388421e81d912b9e695b7920990dad85956ff5bc484ce82b19db6c",
  "time": 1231939525,
  "mediantime": 1231935119,
  "nonce": 737378348,
  "bits": "1d00ffff",
  "difficulty": 1,
  "chainwork": "000000000000000000000000000000000000000000000000000001c701c701c7",
  "nTx": 1,
  "previousblockhash": "000000003eadc8cf26a2fb8e9c563ade586e31c608b6bcdde50327c694d6f714",
  "nextblockhash": "0000000013562603b4aadfcce524747ca80ba40b2ec18ab533b4ad697819e760",
  "strippedsize": 216,
  "size": 216,
  "weight": 864,
  "tx": [
    {
      "txid": "80ec89837a388421e81d912b9e695b7920990dad85956ff5bc484ce82b19db6c",
      "hash": "80ec89837a388421e81d912b9e695b7920990dad85956ff5bc484ce82b19db6c",
      "version": 1,
      "size": 135,
      "vsize": 135,
      "weight": 540,
      "locktime": 0,
      "vin": [
        {
          "coinbase": "04ffff001d02b903",
          "sequence": 4294967295
        }
      ],
      "vout": [
        {
          "value": 50.0,
          "n": 0,
          "scriptPubKey": {
            "asm": "04580870de3f8ca36bf027bd60440380dace0a2c305ee5324b99dacadeada4aacf73297ac6dd95a05ce193344702ad45ec487d992495411575cdff5e12b88710ef OP_CHECKSIG",
            "desc": "pk(04580870de3f8ca36bf027bd60440380dace0a2c305ee5324b99dacadeada4aacf73297ac6dd95a05ce193344702ad45ec487d992495411575cdff5e12b88710ef)#feesge75",
            "hex": "4104580870de3f8ca36bf027bd60440380dace0a2c305ee5324b99dacadeada4aacf73297ac6dd95a05ce193344702ad45ec487d992495411575cdff5e12b88710efac",
            "type": "pubkey"
          }
        }
      ],
      "hex": "01000000010000000000000000000000000000000000000000000000000000000000000000ffffffff0804ffff001d02b903ffffffff0100f2052a01000000434104580870de3f8ca36bf027bd60440380dace0a2c305ee5324b99dacadeada4aacf73297ac6dd95a05ce193344702ad45ec487d992495411575cdff5e12b88710efac00000000"
    }
  ]
}