{
  "hash": "000000005fc6aba2ca4495b7f54f27acb10411144a0b7ee392d8ed9d3727607b",
  "confirmations": 50271,
  "height": 2827,
  "version": 1,
  "versionHex": "00000001",
  "merkleroot": "3f9b4eb7cd7e9399a1d6ae68f73784da43360de17ae807f5d814b4d412da98a4",
  "time": 1233643227,
  "mediantime": 1233640612,
  "nonce": 47970889,
  "bits": "1d00ffff",
  "difficulty": 1,
  "chainwork": "00000000000000000000000000000000000000000000000000000b0c0b0c0b0c",
  "nTx": 1,
  "previousblockhash": "0000000089cff00788f5b5d1aa19b37b0e4e5f3d0da75c1ed0f27de07fc07417",
  "nextblockhash": "000000009ffcefd1e0d8cfc8defaf8fa597c82cef1ec88a577ebf9dce34c9379",
  "strippedsize": 216,
  "size": 216,
  "weight": 864,
  "tx": [
    {
      "txid": "3f9b4eb7cd7e9399a1d6ae68f73784da43360de17ae807f5d814b4d412da98a4",
      "hash": "3f9b4eb7cd7e9399a1d6ae68f73784da43360de17ae807f5d814b4d412da98a4",
      "version": 1,
      "size": 135,
      "vsize": 135,
      "weight": 540,
      "locktime": 0,
      "vin": [
        {
          "coinbase": "04ffff001d029403",
          "sequence": 4294967295
        }
      ],
      "vout": [
        {
          "value": 50.0,
          "n": 0,
          "scriptPubKey": {
            "asm": "04f03abe46176426f11b6b3fe6a9a4cff0625d090dea3b89175468eb5d09f8ce92cd93372a14d883414b16f086e1f3bf975b9425af0283af16dd5a62bbfeab7a63 OP_CHECKSIG",
            "desc": "pk(04f03abe46176426f11b6b3fe6a9a4cff0625d090dea3b89175468eb5d09f8ce92cd93372a14d883414b16f086e1f3bf975b9425af0283af16dd5a62bbfeab7a63)#lytyjsgd",
            "hex": "4104f03abe46176426f11b6b3fe6a9a4cff0625d090dea3b89175468eb5d09f8ce92cd93372a14d883414b16f086e1f3bf975b9425af0283af16dd5a62bbfeab7a63ac",
            "type": "pubkey"
          }
        }
      ],
      "hex": "01000000010000000000000000000000000000000000000000000000000000000000000000ffffffff0804ffff001d029403ffffffff0100f2052a01000000434104f03abe46176426f11b6b3fe6a9a4cff0625d090dea3b89175468eb5d09f8ce92cd93372a14d883414b16f086e1f3bf975b9425af0283af16dd5a62bbfeab7a63ac00000000"
    }
  ]
}