{
  "hash": "000000002e43d0746650ecdbea7fe84bf70a08d2a9e876aaa2b61a65065dc73e",
  "confirmations": 48258,
  "height": 4840,
  "version": 1,
  "versionHex": "00000001",
  "merkleroot": "936ed21eae7ade9d51aaa52c8e73dddbba5f44c61b6736701fbf7db72b216b23",
  "time": 1235029030,
  "mediantime": 1235023969,
  "nonce": 51849134,
  "bits": "1d00ffff",
  "difficulty": 1,
  "chainwork": "000000000000000000000000000000000000000000000000000012e912e912e9",
  "nTx": 1,
  "previousblockhash": "0000000082189e843992c00893ababb1c4fc1af7b3ee3f6ab71df2938dae5467",
  "nextblockhash": "00000000afe1718fc86a250c75861eceae0461e0f499fe3d65dcdbd38f233077",
  "strippedsize": 216,
  "size": 216,
  "weight": 864,
  "tx": [
    {
      "txid": "936ed21eae7ade9d51aaa52c8e73dddbba5f44c61b6736701fbf7db72b216b23",
      "hash": "936ed21eae7ade9d51aaa52c8e73dddbba5f44c61b6736701fbf7db72b216b23",
      "version": 1,
      "size": 135,
      "vsize": 135,
      "weight": 540,
      "locktime": 0,
      "vin": [
        {
          "coinbase": "04ffff001d02a604",
          "sequence": 4294967295
        }
      ],
      "vout": [
        {
          "value": 50.0,
          "n": 0,
          "scriptPubKey": {
            "asm": "04c6f4833067926177258a30a72374c3332fc8fac63f016594ca531af6c93fca69c4dc67c234f1845eec0779251669c44670d4d1fc962a0a2f90dd1a71bcf15ab6 OP_CHECKSIG",
            "desc": "pk(04c6f4833067926177258a30a72374c3332fc8fac63f016594ca531af6c93fca69c4dc67c234f1845eec0779251669c44670d4d1fc962a0a2f90dd1a71bcf15ab6)#u8xqge54",
            "hex": "4104c6f4833067926177258a30a72374c3332fc8fac63f016594ca531af6c93fca69c4dc67c234f1845eec0779251669c44670d4d1fc962a0a2f90dd1a71bcf15ab6ac",
            "type": "pubkey"
          }
        }
      ],
      "hex": "01000000010000000000000000000000000000000000000000000000000000000000000000ffffffff0804ffff001d02a604ffffffff0100f2052a01000000434104c6f4833067926177258a30a72374c3332fc8fac63f016594ca531af6c93fca69c4dc67c234f1845eec0779251669c44670d4d1fc962a0a2f90dd1a71bcf15ab6ac00000000"
    }
  ]
}