{
  "hash": "00000000f305ffdc2596b8be1435264eebcfb38033ef29e54b6f245cceb9e68d",
  "confirmations": 52001,
  "height": 1097,
  "version": 1,
  "versionHex": "00000001",
  "merkleroot": "87bf4c92b6256beb334c8a36fff871996d40225c7a34516f0b4dd802ffc6dd15",
  "time": 1232420523,
  "mediantime": 1232417578,
  "nonce": 2209732385,
  "bits": "1d00ffff",
  "difficulty": 1,
  "chainwork": "0000000000000000000000000000000000000000000000000000044a044a044a",
  "nTx": 1,
  "previousblockhash": "0000000085a74e13080fa4cf7083612d2723843e10fa73663473b96f431d06fd",
  "nextblockhash": "0000000043ddaa2ee540420b55ffe3ffdccae3c269d538ed5792c7ab4823128b",
  "strippedsize": 216,
  "size": 216,
  "weight": 864,
  "tx": [
    {
      "txid": "87bf4c92b6256beb334c8a36fff871996d40225c7a34516f0b4dd802ffc6dd15",
      "hash": "87bf4c92b6256beb334c8a36fff871996d40225c7a34516f0b4dd802ffc6dd15",
      "version": 1,
      "size": 135,
      "vsize": 135,
      "weight": 540,
      "locktime": 0,
      "vin": [
        {
          "coinbase": "04ffff001d020407",
          "sequence": 4294967295
        }
      ],
      "vout": [
        {
          "value": 50.0,
          "n": 0,
          "scriptPubKey": {
            "asm": "0448f7ec563063bbfb7f4e05f4354a1865f04de335dc10f1da1d03551265c267bf45031c855ed1824f819e4d53c9d1f4c1da437e9bee623510724f8703ac896da7 OP_CHECKSIG",
            "desc": "pk(0448f7ec563063bbfb7f4e05f4354a1865f04de335dc10f1da1d03551265c267bf45031c855ed1824f819e4d53c9d1f4c1da437e9bee623510724f8703ac896da7)#70a0z8qk",
            "hex": "410448f7ec563063bbfb7f4e05f4354a1865f04de335dc10f1da1d03551265c267bf45031c855ed1824f819e4d53c9d1f4c1da437e9bee623510724f8703ac896da7ac",
            "type": "pubkey"
          }
        }
      ],
      "hex": "01000000010000000000000000000000000000000000000000000000000000000000000000ffffffff0804ffff001d020407ffffffff0100f2052a0100000043410448f7ec563063bbfb7f4e05f4354a1865f04de335dc10f1da1d03551265c267bf45031c855ed1824f819e4d53c9d1f4c1da437e9bee623510724f8703ac896da7ac00000000"
    }
  ]
}