{
  "hash": "00000000c82f27c2c7f3c053cc8533cba529e8634d617678686266ffd7f05566",
  "confirmations": 44536,
  "height": 8562,
  "version": 1,
  "versionHex": "00000001",
  "merkleroot": "fe8cc7dc125f938edec74aa76d50cbce509bfff163d66941f7d43001781d3323",
  "time": 1237920852,
  "mediantime": 1237917778,
  "nonce": 90830349,
  "bits": "1d00ffff",
  "difficulty": 1,
  "chainwork": "0000000000000000000000000000000000000000000000000000217321732173",
  "nTx": 1,
  "previousblockhash": "00000000b9703eeaebfcf46c17af5b413b205362be9f3c45201f648119a2ad25",
  "nextblockhash": "000000004f2be766fb1d19ed74236b4a8c6cbf0ebd9a0efa391a1fa569daad49",
  "strippedsize": 216,
  "size": 216,
  "weight": 864,
  "tx": [
    {
      "txid": "fe8cc7dc125f938edec74aa76d50cbce509bfff163d66941f7d43001781d3323",
      "hash": "fe8cc7dc125f938edec74aa76d50cbce509bfff163d66941f7d43001781d3323",
      "version": 1,
      "size": 135,
      "vsize": 135,
      "weight": 540,
      "locktime": 0,
      "vin": [
        {
          "coinbase": "04ffff001d027603",
          "sequence": 4294967295
        }
      ],
      "vout": [
        {
          "value": 50.0,
          "n": 0,
          "scriptPubKey": {
            "asm": "0440aa1adb3c84afb5da3024b684651a097be036134b992270f5503c4aed02ec83f42516fe267b99a44105022cfe553f7164e4cbde7c9aa516a518beffbf135748 OP_CHECKSIG",
            "desc": "pk(0440aa1adb3c84afb5da3024b684651a097be036134b992270f5503c4aed02ec83f42516fe267b99a44105022cfe553f7164e4cbde7c9aa516a518beffbf135748)#zv9hqpzm",
            "hex": "410440aa1adb3c84afb5da3024b684651a097be036134b992270f5503c4aed02ec83f42516fe267b99a44105022cfe553f7164e4cbde7c9aa516a518beffbf135748ac",
            "type": "pubkey"
          }
        }
      ],
      "hex": "01000000010000000000000000000000000000000000000000000000000000000000000000ffffffff0804ffff001d027603ffffffff0100f2052a0100000043410440aa1adb3c84afb5da3024b684651a097be036134b992270f5503c4aed02ec83f42516fe267b99a44105022cfe553f7164e4cbde7c9aa516a518beffbf135748ac00000000"
    }
  ]
}