{
  "hash": "0000000007bbb10a32beb11f9659fd246cbe09b9b3c933e2f4fd3dde9aff2aed",
  "confirmations": 47357,
  "height": 5741,
  "version": 1,
  "versionHex": "00000001",
  "merkleroot": "a29ad698ed0c7805d729903d7d7f6294a450b054f1a6de71669c7403fb8cde72",
  "time": 1235714946,
  "mediantime": 1235710763,
  "nonce": 872207414,
  "bits": "1d00ffff",
  "difficulty": 1,
  "chainwork": "0000000000000000000000000000000000000000000000000000166e166e166e",
  "nTx": 1,
  "previousblockhash": "00000000173387ddc705e1b4cddff3e993ddfc4eb087c6e42ef2b245ccf31e5c",
  "nextblockhash": "00000000b4e50cb9b4a679c672ebdc5022fffbe0849f85356ca0e2bdacea5087",
  "strippedsize": 216,
  "size": 216,
  "weight": 864,
  "tx": [
    {
      "txid": "a29ad698ed0c7805d729903d7d7f6294a450b054f1a6de71669c7403fb8cde72",
      "hash": "a29ad698ed0c7805d729903d7d7f6294a450b054f1a6de71669c7403fb8cde72",
      "version": 1,
      "size": 135,
      "vsize": 135,
      "weight": 540,
      "locktime": 0,
      "vin": [
        {
          "coinbase": "04ffff001d02240a",
          "sequence": 4294967295
        }
      ],
      "vout": [
        {
          "value": 50.0,
          "n": 0,
          "scriptPubKey": {
            "asm": "045e69d7cfb2f51e47325d2921c9af690528883e92c5bdfcef70c7db1ee0c1a6c6df8f83ccfb518d18f942d8fac506a9c7c74a06d18a32df59994fbf4948c762f8 OP_CHECKSIG",
            "desc": "pk(045e69d7cfb2f51e47325d2921c9af690528883e92c5bdfcef70c7db1ee0c1a6c6df8f83ccfb518d18f942d8fac506a9c7c74a06d18a32df59994fbf4948c762f8)#lwe2d0jm",
            "hex": "41045e69d7cfb2f51e47325d2921c9af690528883e92c5bdfcef70c7db1ee0c1a6c6df8f83ccfb518d18f942d8fac506a9c7c74a06d18a32df59994fbf4948c762f8ac",
            "type": "pubkey"
          }
        }
      ],
      "hex": "01000000010000000000000000000000000000000000000000000000000000000000000000ffffffff0804ffff001d02240affffffff0100f2052a010000004341045e69d7cfb2f51e47325d2921c9af690528883e92c5bdfcef70c7db1ee0c1a6c6df8f83ccfb518d18f942d8fac506a9c7c74a06d18a32df59994fbf4948c762f8ac00000000"
    }
  ]
}