{
  "hash": "00000000543756af7e5fc0751cbfa8a50e82399ab12eb3feee5e5fa5ec8441c1",
  "confirmations": 43709,
  "height": 9389,
  "version": 1,
  "versionHex": "00000001",
  "merkleroot": "075b38cf275f901a6b46ac1619764f04969c0190abf9d939460b51a0cae38205",
  "time": 1238542962,
  "mediantime": 1238538524,
  "nonce": 2582261300,
  "bits": "1d00ffff",
  "difficulty": 1,
  "chainwork": "000000000000000000000000000000000000000000000000000024ae24ae24ae",
  "nTx": 1,
  "previousblockhash": "0000000034f78794f68c1e4c83da631472d1b87f8edb309fb544bae713333f47",
  "nextblockhash": "000000008bc3f009b765ffea9eda529f28f9186e938ebc1ffe60892ce1155acb",
  "strippedsize": 216,
  "size": 216,
  "weight": 864,
  "tx": [
    {
      "txid": "075b38cf275f901a6b46ac1619764f04969c0190abf9d939460b51a0cae38205",
      "hash": "075b38cf275f901a6b46ac1619764f04969c0190abf9d939460b51a0cae38205",
      "version": 1,
      "size": 135,
      "vsize": 135,
      "weight": 540,
      "locktime": 0,
      "vin": [
        {
          "coinbase": "04ffff001d027303",
          "sequence": 4294967295
        }
      ],
      "vout": [
        {
          "value": 50.0,
          "n": 0,
          "scriptPubKey": {
            "asm": "045c63fc0bc6bee3a589c015951ec6f259ada901b85ad63420c28656d9660d791aec4738b2d845bf4fbe6accc5630f64ae3bfffd116cd8b1f536d40bce49072dfa OP_CHECKSIG",
            "desc": "pk(045c63fc0bc6bee3a589c015951ec6f259ada901b85ad63420c28656d9660d791aec4738b2d845bf4fbe6accc5630f64ae3bfffd116cd8b1f536d40bce49072dfa)#d0dzcq07",
            "hex": "41045c63fc0bc6bee3a589c015951ec6f259ada901b85ad63420c28656d9660d791aec4738b2d845bf4fbe6accc5630f64ae3bfffd116cd8b1f536d40bce49072dfaac",
            "type": "pubkey"
          }
        }
      ],
      "hex": "01000000010000000000000000000000000000000000000000000000000000000000000000ffffffff0804ffff001d027303ffffffff0100f2052a010000004341045c63fc0bc6bee3a589c015951ec6f259ada901b85ad63420c28656d9660d791aec4738b2d845bf4fbe6accc5630f64ae3bfffd116cd8b1f536d40bce49072dfaac00000000"
    }
  ]
}