{
  "hash": "000000006e6bbd3f3224cf02ada810ab859bae70b7d25b164efaf2309cf39e53",
  "confirmations": 51124,
  "height": 1974,
  "version": 1,
  "versionHex": "00000001",
  "merkleroot": "4f227a79888af2f1cea36eabd002e38aa5f7be39f17250b73e50637a1220f964",
  "time": 1233026468,
  "mediantime": 1233023875,
  "nonce": 1717081400,
  "bits": "1d00ffff",
  "difficulty": 1,
  "chainwork": "000000000000000000000000000000000000000000000000000007b707b707b7",
  "nTx": 1,
  "previousblockhash": "000000002d9dd660268a57b9415be9b27d1eefcff934c75a48c676222b00ca36",
  "nextblockhash": "000000004376743ff349325f3e1d1b919848bde8133f8948fe79978d2233fdda",
  "strippedsize": 216,
  "size": 216,
  "weight": 864,
  "tx": [
    {
      "txid": "4f227a79888af2f1cea36eabd002e38aa5f7be39f17250b73e50637a1220f964",
      "hash": "4f227a79888af2f1cea36eabd002e38aa5f7be39f17250b73e50637a1220f964",
      "version": 1,
      "size": 135,
      "vsize": 135,
      "weight": 540,
      "locktime": 0,
      "vin": [
        {
          "coinbase": "04ffff001d020301",
          "sequence": 4294967295
        }
      ],
      "vout": [
        {
          "value": 50.0,
          "n": 0,
          "scriptPubKey": {
            "asm": "04321a8b374acd10315e3472432954abef0007f861b4378f56f34e015b3e88a0ede0fd00e51ff2cabb1827ad15913a363aaae0bf5a928d8be77a7cb3f5ad5da1d2 OP_CHECKSIG",
            "desc": "pk(04321a8b374acd10315e3472432954abef0007f861b4378f56f34e015b3e88a0ede0fd00e51ff2cabb1827ad15913a363aaae0bf5a928d8be77a7cb3f5ad5da1d2)#j953lf9h",
            "hex": "4104321a8b374acd10315e3472432954abef0007f861b4378f56f34e015b3e88a0ede0fd00e51ff2cabb1827ad15913a363aaae0bf5a928d8be77a7cb3f5ad5da1d2ac",
            "type": "pubkey"
          }
        }
      ],
      "hex": "01000000010000000000000000000000000000000000000000000000000000000000000000ffffffff0804ffff001d020301ffffffff0100f2052a01000000434104321a8b374acd10315e3472432954abef0007f861b4378f56f34e015b3e88a0ede0fd00e51ff2cabb1827ad15913a363aaae0bf5a928d8be77a7cb3f5ad5da1d2ac00000000"
    }
  ]
}