{
  "hash": "00000000ab860c3da6ff611c6c618d2ccb184c00bb288ac3d602cc41450e4c7c",
  "confirmations": 50593,
  "height": 2505,
  "version": 1,
  "versionHex": "00000001",
  "merkleroot": "90572b88e7ccc7d8cbf39b4c9f7a223ce6d73ba2926bd360e31e84d6e28b3b21",
  "time": 1233422605,
  "mediantime": 1233421233,
  "nonce": 4111493416,
  "bits": "1d00ffff",
  "difficulty": 1,
  "chainwork": "000000000000000000000000000000000000000000000000000009ca09ca09ca",
  "nTx": 1,
  "previousblockhash": "000000009b394bf0aa56f48ab07275e849205f5c6c3985c1b3e5d5aef7b1e002",
  "nextblockhash": "00000000264c37c8a927f05d3dcad5ca34a62471eb8fca2f1ced475e48d19d14",
  "strippedsize": 216,
  "size": 216,
  "weight": 864,
  "tx": [
    {
      "txid": "90572b88e7ccc7d8cbf39b4c9f7a223ce6d73ba2926bd360e31e84d6e28b3b21",
      "hash": "90572b88e7ccc7d8cbf39b4c9f7a223ce6d73ba2926bd360e31e84d6e28b3b21",
      "version": 1,
      "size": 135,
      "vsize": 135,
      "weight": 540,
      "locktime": 0,
      "vin": [
        {
          "coinbase": "04ffff001d022f01",
          "sequence": 4294967295
        }
      ],
      "vout": [
        {
          "value": 50.0,
          "n": 0,
          "scriptPubKey": {
            "asm": "04fc0d3c8f1139e7d39e3ab3b767b04982d0cd1e70f91ee208fbcdf27c9dea42cbfa91eff0c9624b3fd3312ce1005acb5ebe3226a87f5377629ee4925dfad5c97b OP_CHECKSIG",
            "desc": "pk(04fc0d3c8f1139e7d39e3ab3b767b04982d0cd1e70f91ee208fbcdf27c9dea42cbfa91eff0c9624b3fd3312ce1005acb5ebe3226a87f5377629ee4925dfad5c97b)#hunu24fc",
            "hex": "4104fc0d3c8f1139e7d39e3ab3b767b04982d0cd1e70f91ee208fbcdf27c9dea42cbfa91eff0c9624b3fd3312ce1005acb5ebe3226a87f5377629ee4925dfad5c97bac",
            "type": "pubkey"
          }
        }
      ],
      "hex": "01000000010000000000000000000000000000000000000000000000000000000000000000ffffffff0804ffff001d022f01ffffffff0100f2052a01000000434104fc0d3c8f1139e7d39e3ab3b767b04982d0cd1e70f91ee208fbcdf27c9dea42cbfa91eff0c9624b3fd3312ce1005acb5ebe3226a87f5377629ee4925dfad5c97bac00000000"
    }
  ]
}