{
  "hash": "00000000b5c761aeb6fbf1f16628aa37688a7c326e4c97c09130192370a94b5d",
  "confirmations": 46262,
  "height": 6836,
  "version": 1,
  "versionHex": "00000001",
  "merkleroot": "ba677bfb0fd9df15733997c699f6f45e7d0b12ce588c26691ef0a4708ea14db2",
  "time": 1236583151,
  "mediantime": 1236580536,
  "nonce": 113060016,
  "bits": "1d00ffff",
  "difficulty": 1,
  "chainwork": "00000000000000000000000000000000000000000000000000001ab51ab51ab5",
  "nTx": 1,
  "previousblockhash": "00000000a0f8a98533b772c7a34d02d258d074d5e087a3d21efd37bec9557ee1",
  "nextblockhash": "0000000077c1e92672fab780790d0feb5482b97f0f2842f552065c634752f88a",
  "strippedsize": 216,
  "size": 216,
  "weight": 864,
  "tx": [
    {
      "txid": "ba677bfb0fd9df15733997c699f6f45e7d0b12ce588c26691ef0a4708ea14db2",
      "hash": "ba677bfb0fd9df15733997c699f6f45e7d0b12ce588c26691ef0a4708ea14db2",
      "version": 1,
      "size": 135,
      "vsize": 135,
      "weight": 540,
      "locktime": 0,
      "vin": [
        {
          "coinbase": "04ffff001d026705",
          "sequence": 4294967295
        }
      ],
      "vout": [
        {
          "value": 50.0,
          "n": 0,
          "scriptPubKey": {
            "asm": "048db9b2cbe42ccc5b7ea4f2af30ff7ff9dd627dff65083643be371714c1a9f09e2a8a2025d1ba1cdb3cd79e481559af377eaf7626a5ac3d9096da07036d8b2ce0 OP_CHECKSIG",
            "desc": "pk(048db9b2cbe42ccc5b7ea4f2af30ff7ff9dd627dff65083643be371714c1a9f09e2a8a2025d1ba1cdb3cd79e481559af377eaf7626a5ac3d9096da07036d8b2ce0)#6tcd8a3c",
            "hex": "41048db9b2cbe42ccc5b7ea4f2af30ff7ff9dd627dff65083643be371714c1a9f09e2a8a2025d1ba1cdb3cd79e481559af377eaf7626a5ac3d9096da07036d8b2ce0ac",
            "type": "pubkey"
          }
        }
      ],
      "hex": "01000000010000000000000000000000000000000000000000000000000000000000000000ffffffff0804ffff001d026705ffffffff0100f2052a010000004341048db9b2cbe42ccc5b7ea4f2af30ff7ff9dd627dff65083643be371714c1a9f09e2a8a2025d1ba1cdb3cd79e481559af377eaf7626a5ac3d9096da07036d8b2ce0ac00000000"
    }
  ]
}