{
  "hash": "000000004276bb19c09247e33ba2aa49b8b5eb68b3b55d975bbd509e1f402c4f",
  "confirmations": 47974,
  "height": 5124,
  "version": 1,
  "versionHex": "00000001",
  "merkleroot": "6d30ed92945144b0b7b548883be3f5abd619dfd41b9f7cbcb910a63fba114018",
  "time": 1235233563,
  "mediantime": 1235231205,
  "nonce": 4255164203,
  "bits": "1d00ffff",
  "difficulty": 1,
  "chainwork": "0000000000000000000000000000000000000000000000000000140514051405",
  "nTx": 1,
  "previousblockhash": "0000000074f93467cd042ff543456cdc048b61a3fe680ba70a67391cf82152e8",
  "nextblockhash": "000000009043f3e65683b7eb3ceb3f51ae254cc8ddd2e014bdf244dfb9f65ba3",
  "strippedsize": 216,
  "size": 216,
  "weight": 864,
  "tx": [
    {
      "txid": "6d30ed92945144b0b7b548883be3f5abd619dfd41b9f7cbcb910a63fba114018",
      "hash": "6d30ed92945144b0b7b548883be3f5abd619dfd41b9f7cbcb910a63fba114018",
      "version": 1,
      "size": 135,
      "vsize": 135,
      "weight": 540,
      "locktime": 0,
      "vin": [
        {
          "coinbase": "04ffff001d026409",
          "sequence": 4294967295
        }
      ],
      "vout": [
        {
          "value": 50.0,
          "n": 0,
          "scriptPubKey": {
            "asm": "046c91753fa16480f416daefb27d03877507792e772cd8c12f7c759609e0fc47f83d6158605853e400e726c0f111c5adf2cf593d3b4e7af28808797bf928dedf37 OP_CHECKSIG",
            "desc": "pk(046c91753fa16480f416daefb27d03877507792e772cd8c12f7c759609e0fc47f83d6158605853e400e726c0f111c5adf2cf593d3b4e7af28808797bf928dedf37)#3aetz0j5",
            "hex": "41046c91753fa16480f416daefb27d03877507792e772cd8c12f7c759609e0fc47f83d6158605853e400e726c0f111c5adf2cf593d3b4e7af28808797bf928dedf37ac",
            "type": "pubkey"
          }
        }
      ],
      "hex": "01000000010000000000000000000000000000000000000000000000000000000000000000ffffffff0804ffff001d026409ffffffff0100f2052a010000004341046c91753fa16480f416daefb27d03877507792e772cd8c12f7c759609e0fc47f83d6158605853e400e726c0f111c5adf2cf593d3b4e7af28808797bf928dedf37ac00000000"
    }
  ]
}