{
  "hash": "00000000cc3eeb36e3db7ce323b021abad084efdc7e4de0c5a652cc74ebe2b1d",
  "confirmations": 52059,
  "height": 277,
  "version": 1,
  "versionHex": "00000001",
  "merkleroot": "d9ba6ef4da1415fc845f44364543a7c2b523e1969afa77fd4e76bf558c253fd3",
  "time": 1231815025,
  "mediantime": 1231810641,
  "nonce": 1406327083,
  "bits": "1d00ffff",
  "difficulty": 1,
  "chainwork": "0000000000000000000000000000000000000000000000000000011601160116",
  "nTx": 1,
  "previousblockhash": "00000000913eac3ab8630e663e9c9a127a810a27fcac2e19aed6864b3eb349aa",
  "nextblockhash": "0000000060070572bf6b7516ab5d89dd50168ee7994d960057303e3bb838f08a",
  "strippedsize": 215,
  "size": 215,
  "weight": 860,
  "tx": [
    {
      "txid": "d9ba6ef4da1415fc845f44364543a7c2b523e1969afa77fd4e76bf558c253fd3",
      "hash": "d9ba6ef4da1415fc845f44364543a7c2b523e1969afa77fd4e76bf558c253fd3",
      "version": 1,
      "size": 134,
      "vsize": 134,
      "weight": 536,
      "locktime": 0,
      "vin": [
        {
          "coinbase": "04ffff001d0107",
          "sequence": 4294967295
        }
      ],
      "vout": [
        {
          "value": 50.0,
          "n": 0,
          "scriptPubKey": {
            "asm": "04a90b5370174e66b487f4c7d097865324902996053668e9ace7b4e4d1fc7bdeddb92703e2af049e342628ad2cfd206483ce43c8a1cbd77b2d8e04f84fd9dcea6a OP_CHECKSIG",
            "desc": "pk(04a90b5370174e66b487f4c7d097865324902996053668e9ace7b4e4d1fc7bdeddb92703e2af049e342628ad2cfd206483ce43c8a1cbd77b2d8e04f84fd9dcea6a)#q29enddr",
            "hex": "4104a90b5370174e66b487f4c7d097865324902996053668e9ace7b4e4d1fc7bdeddb92703e2af049e342628ad2cfd206483ce43c8a1cbd77b2d8e04f84fd9dcea6aac",
            "type": "pubkey"
          }
        }
      ],
      "hex": "01000000010000000000000000000000000000000000000000000000000000000000000000ffffffff0704ffff001d0107ffffffff0100f2052a01000000434104a90b5370174e66b487f4c7d097865324902996053668e9ace7b4e4d1fc7bdeddb92703e2af049e342628ad2cfd206483ce43c8a1cbd77b2d8e04f84fd9dcea6aac00000000"
    }
  ]
}