{
  "hash": "000000007b187435685ef25ee2e9362229fa73faf0a8ad0638bce02562bdc7a2",
  "confirmations": 43991,
  "height": 9107,
  "version": 1,
  "versionHex": "00000001",
  "merkleroot": "ddcda68a26dd45b40e83f723f9807f2f3473f46731c28d9fd7548806c367f5b7",
  "time": 1238336481,
  "mediantime": 1238332079,
  "nonce": 4182827554,
  "bits": "1d00ffff",
  "difficulty": 1,
  "chainwork": "0000000000000000000000000000000000000000000000000000239423942394",
  "nTx": 1,
  "previousblockhash": "000000001be17e3d17a0a259fab0a275b1614909e56bcac9719318c300f82d1c",
  "nextblockhash": "0000000021d6651dc8d9efbd9c123934a4e95cb4e788b28d3c6e747ef85d5873",
  "strippedsize": 216,
  "size": 216,
  "weight": 864,
  "tx": [
    {
      "txid": "ddcda68a26dd45b40e83f723f9807f2f3473f46731c28d9fd7548806c367f5b7",
      "hash": "ddcda68a26dd45b40e83f723f9807f2f3473f46731c28d9fd7548806c367f5b7",
      "version": 1,
      "size": 135,
      "vsize": 135,
      "weight": 540,
      "locktime": 0,
      "vin": [
        {
          "coinbase": "04ffff001d027b08",
          "sequence": 4294967295
        }
      ],
      "vout": [
        {
          "value": 50.0,
          "n": 0,
          "scriptPubKey": {
            "asm": "0427e6439124073672c228735f116a167f5e89ac085be6aef04f0809ac117822ab8040ac57d099a4d6a860083c8a0e1be249467a4422e14794dfb576a5e9934106 OP_CHECKSIG",
            "desc": "pk(0427e6439124073672c228735f116a167f5e89ac085be6aef04f0809ac117822ab8040ac57d099a4d6a860083c8a0e1be249467a4422e14794dfb576a5e9934106)#47sd2auz",
            "hex": "410427e6439124073672c228735f116a167f5e89ac085be6aef04f0809ac117822ab8040ac57d099a4d6a860083c8a0e1be249467a4422e14794dfb576a5e9934106ac",
            "type": "pubkey"
          }
        }
      ],
      "hex": "01000000010000000000000000000000000000000000000000000000000000000000000000ffffffff0804ffff001d027b08ffffffff0100f2052a0100000043410427e6439124073672c228735f116a167f5e89ac085be6aef04f0809ac117822ab8040ac57d099a4d6a860083c8a0e1be249467a4422e14794dfb576a5e9934106ac00000000"
    }
  ]
}