{
  "hash": "00000000ff79b07c729f5802ec8a2d4ee8cea66047c0a8e6f785e8f66072a50d",
  "confirmations": 43149,
  "height": 9949,
  "version": 1,
  "versionHex": "00000001",
  "merkleroot": "270cd9f79a715383cc49c5ca8ff8b9a511a1e1051d0ef0e1e18065eeb217a24c",
  "time": 1238955328,
  "mediantime": 1238950250,
  "nonce": 1960133669,
  "bits": "1d00ffff",
  "difficulty": 1,
  "chainwork": "000000000000000000000000000000000000000000000000000026de26de26de",
  "nTx": 1,
  "previousblockhash": "00000000a2c3e65a505f4c539f41d3d0d322665d809ccd4e8836cc89a83cdc27",
  "nextblockhash": "000000006eaa1ad2bd8726e149a79e3c49e69f7528c74b6163b8179097c6536a",
  "strippedsize": 216,
  "size": 216,
  "weight": 864,
  "tx": [
    {
      "txid": "270cd9f79a715383cc49c5ca8ff8b9a511a1e1051d0ef0e1e18065eeb217a24c",
      "hash": "270cd9f79a715383cc49c5ca8ff8b9a511a1e1051d0ef0e1e18065eeb217a24c",
      "version": 1,
      "size": 135,
      "vsize": 135,
      "weight": 540,
      "locktime": 0,
      "vin": [
        {
          "coinbase": "04ffff001d02a702",
          "sequence": 4294967295
        }
      ],
      "vout": [
        {
          "value": 50.0,
          "n": 0,
          "scriptPubKey": {
            "asm": "0486a3c02a75e27bf2db0095883b5c57f036a3197282ec1e44bc9c76c60894db91abb1b4600b7a9e6b1652c71b4a2813f4d2a5fad63f24f81fa6521a582e5039d6 OP_CHECKSIG",
            "desc": "pk(0486a3c02a75e27bf2db0095883b5c57f036a3197282ec1e44bc9c76c60894db91abb1b4600b7a9e6b1652c71b4a2813f4d2a5fad63f24f81fa6521a582e5039d6)#3920hhnx",
            "hex": "410486a3c02a75e27bf2db0095883b5c57f036a3197282ec1e44bc9c76c60894db91abb1b4600b7a9e6b1652c71b4a2813f4d2a5fad63f24f81fa6521a582e5039d6ac",
            "type": "pubkey"
          }
        }
      ],
      "hex": "01000000010000000000000000000000000000000000000000000000000000000000000000ffffffff0804ffff001d02a702ffffffff0100f2052a0100000043410486a3c02a75e27bf2db0095883b5c57f036a3197282ec1e44bc9c76c60894db91abb1b4600b7a9e6b1652c71b4a2813f4d2a5fad63f24f81fa6521a582e5039d6ac00000000"
    }
  ]
}