{
  "hash": "0000000047ebf1f452225ac287d79dcc8e4a840c2a097efa407679a213f9e5ba",
  "confirmations": 52090,
  "height": 244,
  "version": 1,
  "versionHex": "00000001",
  "merkleroot": "67ce99e1604be37cd67d18779a3fa7cbe758fd20f56978f6fc94077c7955aaff",
  "time": 1231787524,
  "mediantime": 1231783052,
  "nonce": 1900919327,
  "bits": "1d00ffff",
  "difficulty": 1,
  "chainwork": "000000000000000000000000000000000000000000000000000000f500f500f5",
  "nTx": 1,
  "previousblockhash": "000000008d6d1be4e26d9ec16b8f719bc2f7befaeff7b3cc208b100ca7abc982",
  "nextblockhash": "0000000031714f49ff442632ef45b0e7148752e7e0a6c373ef6c857093e7036f",
  "strippedsize": 216,
  "size": 216,
  "weight": 864,
  "tx": [
    {
      "txid": "67ce99e1604be37cd67d18779a3fa7cbe758fd20f56978f6fc94077c7955aaff",
      "hash": "67ce99e1604be37cd67d18779a3fa7cbe758fd20f56978f6fc94077c7955aaff",
      "version": 1,
      "size": 135,
      "vsize": 135,
      "weight": 540,
      "locktime": 0,
      "vin": [
        {
          "coinbase": "04ffff001d02fd00",
          "sequence": 4294967295
        }
      ],
      "vout": [
        {
          "value": 50.0,
          "n": 0,
          "scriptPubKey": {
            "asm": "04b9318b58ee70b75c7b12434b7bf6e729d14d624ccf0290093b2bb7086ee183883c0bcdf0e7e2b0ab6ed3663af27beb37744479340e559c2598dd1243a4e180a4 OP_CHECKSIG",
            "desc": "pk(04b9318b58ee70b75c7b12434b7bf6e729d14d624ccf0290093b2bb7086ee183883c0bcdf0e7e2b0ab6ed3663af27beb37744479340e559c2598dd1243a4e180a4)#c78qv3w3",
            "hex": "4104b9318b58ee70b75c7b12434b7bf6e729d14d624ccf0290093b2bb7086ee183883c0bcdf0e7e2b0ab6ed3663af27beb37744479340e559c2598dd1243a4e180a4ac",
            "type": "pubkey"
          }
        }
      ],
      "hex": "01000000010000000000000000000000000000000000000000000000000000000000000000ffffffff0804ffff001d02fd00ffffffff0100f2052a01000000434104b9318b58ee70b75c7b12434b7bf6e729d14d624ccf0290093b2bb7086ee183883c0bcdf0e7e2b0ab6ed3663af27beb37744479340e559c2598dd1243a4e180a4ac00000000"
    }
  ]
}