{
  "hash": "00000000e387669a236a5a5aa809b33ec8f9dd4cd5d9bffe017ee5f20f004a46",
  "confirmations": 51929,
  "height": 1169,
  "version": 1,
  "versionHex": "00000001",
  "merkleroot": "1f81044f1bd35ef75c2a12f3c59ffebdc49be0c778d35e720f641600bd6fd87a",
  "time": 1232476054,
  "mediantime": 1232470806,
  "nonce": 3017584435,
  "bits": "1d00ffff",
  "difficulty": 1,
  "chainwork": "0000000000000000000000000000000000000000000000000000049204920492",
  "nTx": 1,
  "previousblockhash": "000000000ef8725eb972f2426f7e63a0393abbcc3c9f9d0402adb77a14d6b5ba",
  "nextblockhash": "0000000037a74bef375488f46021f90d3690317a16f885a4e8f41e255d5dde09",
  "strippedsize": 216,
  "size": 216,
  "weight": 864,
  "tx": [
    {
      "txid": "1f81044f1bd35ef75c2a12f3c59ffebdc49be0c778d35e720f641600bd6fd87a",
      "hash": "1f81044f1bd35ef75c2a12f3c59ffebdc49be0c778d35e720f641600bd6fd87a",
      "version": 1,
      "size": 135,
      "vsize": 135,
      "weight": 540,
      "locktime": 0,
      "vin": [
        {
          "coinbase": "04ffff001d021508",
          "sequence": 4294967295
        }
      ],
      "vout": [
        {
          "value": 50.0,
          "n": 0,
          "scriptPubKey": {
            "asm": "0424747f7d8377da4a80b0df377e77e4c1ad4ddc7899273b58988c4de17296c352efcc8020a644c9426363842ebc4e258075a8dd1524194a7ab27942660769a82b OP_CHECKSIG",
            "desc": "pk(0424747f7d8377da4a80b0df377e77e4c1ad4ddc7899273b58988c4de17296c352efcc8020a644c9426363842ebc4e258075a8dd1524194a7ab27942660769a82b)#gqvjc50h",
            "hex": "410424747f7d8377da4a80b0df377e77e4c1ad4ddc7899273b58988c4de17296c352efcc8020a644c9426363842ebc4e258075a8dd1524194a7ab27942660769a82bac",
            "type": "pubkey"
          }
        }
      ],
      "hex": "01000000010000000000000000000000000000000000000000000000000000000000000000ffffffff0804ffff001d021508ffffffff0100f2052a0100000043410424747f7d8377da4a80b0df377e77e4c1ad4ddc7899273b58988c4de17296c352efcc8020a644c9426363842ebc4e258075a8dd1524194a7ab27942660769a82bac00000000"
    }
  ]
}