{
  "hash": "0000000005b3f15cee9e54a4b046562bac7158c8d5915ffaaa16396708daaeec",
  "confirmations": 44796,
  "height": 8302,
  "version": 1,
  "versionHex": "00000001",
  "merkleroot": "8e49390b96d2fe33e25fc9580e29c5d780b8d405d29422813915b69995213e35",
  "time": 1237731384,
  "mediantime": 1237728629,
  "nonce": 3155369516,
  "bits": "1d00ffff",
  "difficulty": 1,
  "chainwork": "0000000000000000000000000000000000000000000000000000206f206f206f",
  "nTx": 1,
  "previousblockhash": "000000001751d9f38fef72a0202ff032d3e9c808d5fb3950fffdc8a83a759977",
  "nextblockhash": "000000003a69e0aab7081522505c924d77e2df59c44c7d72bfd303ef3f159869",
  "strippedsize": 216,
  "size": 216,
  "weight": 864,
  "tx": [
    {
      "txid": "8e49390b96d2fe33e25fc9580e29c5d780b8d405d29422813915b69995213e35",
      "hash": "8e49390b96d2fe33e25fc9580e29c5d780b8d405d29422813915b69995213e35",
      "version": 1,
      "size": 135,
      "vsize": 135,
      "weight": 540,
      "locktime": 0,
      "vin": [
        {
          "coinbase": "04ffff001d022c04",
          "sequence": 4294967295
        }
      ],
      "vout": [
        {
          "value": 50.0,
          "n": 0,
          "scriptPubKey": {
            "asm": "04a05cde01d74a037276d2b4be5a846754f1bfa1a6e06dc60dd2b98f5b471bb07d29dee9226042eb75b810a56872e7b8e4267a66837c5682d98fcb22ae13ed4e02 OP_CHECKSIG",
            "desc": "pk(04a05cde01d74a037276d2b4be5a846754f1bfa1a6e06dc60dd2b98f5b471bb07d29dee9226042eb75b810a56872e7b8e4267a66837c5682d98fcb22ae13ed4e02)#7ctrcf3k",
            "hex": "4104a05cde01d74a037276d2b4be5a846754f1bfa1a6e06dc60dd2b98f5b471bb07d29dee9226042eb75b810a56872e7b8e4267a66837c5682d98fcb22ae13ed4e02ac",
            "type": "pubkey"
          }
        }
      ],
      "hex": "01000000010000000000000000000000000000000000000000000000000000000000000000ffffffff0804ffff001d022c04ffffffff0100f2052a01000000434104a05cde01d74a037276d2b4be5a846754f1bfa1a6e06dc60dd2b98f5b471bb07d29dee9226042eb75b810a56872e7b8e4267a66837c5682d98fcb22ae13ed4e02ac00000000"
    }
  ]
}