{
  "hash": "000000003c1cf3c7ce9d708f00fd77e80c5e736aaa351606575e44c638677b44",
  "confirmations": 49804,
  "height": 3294,
  "version": 1,
  "versionHex": "00000001",
  "merkleroot": "587535c8ffe869170e1e70728f421b88cb51a2402712cc85eabdb905e4ac7377",
  "time": 1233966537,
  "mediantime": 1233964135,
  "nonce": 32165240,
  "bits": "1d00ffff",
  "difficulty": 1,
  "chainwork": "00000000000000000000000000000000000000000000000000000cdf0cdf0cdf",
  "nTx": 1,
  "previousblockhash": "00000000f93a3117431247c4f24c86cf2085a29117076491dabe022c9d2cb69c",
  "nextblockhash": "00000000758942f38a5522308f14268ba7aa05802af5a86f99c88bef84380421",
  "strippedsize": 216,
  "size": 216,
  "weight": 864,
  "tx": [
    {
      "txid": "587535c8ffe869170e1e70728f421b88cb51a2402712cc85eabdb905e4ac7377",
      "hash": "587535c8ffe869170e1e70728f421b88cb51a2402712cc85eabdb905e4ac7377",
      "version": 1,
      "size": 135,
      "vsize": 135,
      "weight": 540,
      "locktime": 0,
      "vin": [
        {
          "coinbase": "04ffff001d027402",
          "sequence": 4294967295
        }
      ],
      "vout": [
        {
          "value": 50.0,
          "n": 0,
          "scriptPubKey": {
            "asm": "0498097d59f74d223e0728c552fe37940203c81ee8f20912c94a5c97466e2ef2283f6dfb9f520d4aa5ff3c4fccafd6d5adb5c86ef2f6b14b855e3b95af798d1796 OP_CHECKSIG",
            "desc": "pk(0498097d59f74d223e0728c552fe37940203c81ee8f20912c94a5c97466e2ef2283f6dfb9f520d4aa5ff3c4fccafd6d5adb5c86ef2f6b14b855e3b95af798d1796)#28xqwem9",
            "hex": "410498097d59f74d223e0728c552fe37940203c81ee8f20912c94a5c97466e2ef2283f6dfb9f520d4aa5ff3c4fccafd6d5adb5c86ef2f6b14b855e3b95af798d1796ac",
            "type": "pubkey"
          }
        }
      ],
      "hex": "01000000010000000000000000000000000000000000000000000000000000000000000000ffffffff0804ffff001d027402ffffffff0100f2052a0100000043410498097d59f74d223e0728c552fe37940203c81ee8f20912c94a5c97466e2ef2283f6dfb9f520d4aa5ff3c4fccafd6d5adb5c86ef2f6b14b855e3b95af798d1796ac00000000"
    }
  ]
}