{
  "hash": "0000000095ce2319d5c3e853b6e3d86d54445bbf16504de3a486da311d0235b7",
  "confirmations": 47276,
  "height": 5822,
  "version": 1,
  "versionHex": "00000001",
  "merkleroot": "3a731788a95ccaf5a3b2d161aef39c5fcf99c5f2daedb3d04730a0855e3319b3",
  "time": 1235776258,
  "mediantime": 1235772939,
  "nonce": 420907290,
  "bits": "1d00ffff",
  "difficulty": 1,
  "chainwork": "000000000000000000000000000000000000000000000000000016bf16bf16bf",
  "nTx": 1,
  "previousblockhash": "00000000e22a461806146e4a1fddfe060198e808c94caf56964fdff4fc8c4f15",
  "nextblockhash": "000000008e15745c8ff16c3dacd1ec2e9bb0cd45c4f8d09dcfbcc018a28ef30b",
  "strippedsize": 216,
  "size": 216,
  "weight": 864,
  "tx": [
    {
      "txid": "3a731788a95ccaf5a3b2d161aef39c5fcf99c5f2daedb3d04730a0855e3319b3",
      "hash": "3a731788a95ccaf5a3b2d161aef39c5fcf99c5f2daedb3d04730a0855e3319b3",
      "version": 1,
      "size": 135,
      "vsize": 135,
      "weight": 540,
      "locktime": 0,
      "vin": [
        {
          "coinbase": "04ffff001d023301",
          "sequence": 4294967295
        }
      ],
      "vout": [
        {
          "value": 50.0,
          "n": 0,
          "scriptPubKey": {
            "asm": "0465050a0f7affc1be1f23d542b9f6730394f7ea9ddb6ff12247f953caffc1e23061198e72c5c209994dc8a24bd5d6e257791d70fcc3a00c939904e62b02137bf3 OP_CHECKSIG",
            "desc": "pk(0465050a0f7affc1be1f23d542b9f6730394f7ea9ddb6ff12247f953caffc1e23061198e72c5c209994dc8a24bd5d6e257791d70fcc3a00c939904e62b02137bf3)#wdq2s49y",
            "hex": "410465050a0f7affc1be1f23d542b9f6730394f7ea9ddb6ff12247f953caffc1e23061198e72c5c209994dc8a24bd5d6e257791d70fcc3a00c939904e62b02137bf3ac",
            "type": "pubkey"
          }
        }
      ],
      "hex": "01000000010000000000000000000000000000000000000000000000000000000000000000ffffffff0804ffff001d023301ffffffff0100f2052a0100000043410465050a0f7affc1be1f23d542b9f6730394f7ea9ddb6ff12247f953caffc1e23061198e72c5c209994dc8a24bd5d6e257791d70fcc3a00c939904e62b02137bf3ac00000000"
    }
  ]
}