{
  "hash": "00000000f4226696e8eec65149a5d7bedc22200e0b9526b1bf6ba7ee5e66d126",
  "confirmations": 52067,
  "height": 268,
  "version": 1,
  "versionHex": "00000001",
  "merkleroot": "c3f0bb699bcc8a4e0716de45aef74c40aabeb80f7f00b3bdb45e115ee6f5400f",
  "time": 1231807132,
  "mediantime": 1231805421,
  "nonce": 16146797,
  "bits": "1d00ffff",
  "difficulty": 1,
  "chainwork": "0000000000000000000000000000000000000000000000000000010d010d010d",
  "nTx": 1,
  "previousblockhash": "0000000007e162784d52a035bfebf67d0b73813c09e2e23e6710fa237b301f0f",
  "nextblockhash": "00000000a167a34dd8823317ccda6036d0a243161464e3e67fc01a543ce62b7f",
  "strippedsize": 215,
  "size": 215,
  "weight": 860,
  "tx": [
    {
      "txid": "c3f0bb699bcc8a4e0716de45aef74c40aabeb80f7f00b3bdb45e115ee6f5400f",
      "hash": "c3f0bb699bcc8a4e0716de45aef74c40aabeb80f7f00b3bdb45e115ee6f5400f",
      "version": 1,
      "size": 134,
      "vsize": 134,
      "weight": 536,
      "locktime": 0,
      "vin": [
        {
          "coinbase": "04ffff001d010e",
          "sequence": 4294967295
        }
      ],
      "vout": [
        {
          "value": 50.0,
          "n": 0,
          "scriptPubKey": {
            "asm": "04f623076844c4828d1af72e37f0142f8c00aabf070d95225493b081daec8a482f6c79b94ca0978f9457ddd9ea70bec76c98bced76be55f3af225febc9b9791ae9 OP_CHECKSIG",
            "desc": "pk(04f623076844c4828d1af72e37f0142f8c00aabf070d95225493b081daec8a482f6c79b94ca0978f9457ddd9ea70bec76c98bced76be55f3af225febc9b9791ae9)#vwrgl2yc",
            "hex": "4104f623076844c4828d1af72e37f0142f8c00aabf070d95225493b081daec8a482f6c79b94ca0978f9457ddd9ea70bec76c98bced76be55f3af225febc9b9791ae9ac",
            "type": "pubkey"
          }
        }
      ],
      "hex": "01000000010000000000000000000000000000000000000000000000000000000000000000ffffffff0704ffff001d010effffffff0100f2052a01000000434104f623076844c4828d1af72e37f0142f8c00aabf070d95225493b081daec8a482f6c79b94ca0978f9457ddd9ea70bec76c98bced76be55f3af225febc9b9791ae9ac00000000"
    }
  ]
}