{
  "hash": "00000000edade40797e3c4bf27edeb65733d1884beaa8c502a89d50a54111e1c",
  "confirmations": 52543,
  "height": 555,
  "version": 1,
  "versionHex": "00000001",
  "merkleroot": "3d63ed24652993ad034b396961c1fb4fcf7a798efb6b3a5c3b7afa427e89deb0",
  "time": 1232007119,
  "mediantime": 1232002581,
  "nonce": 1822085430,
  "bits": "1d00ffff",
  "difficulty": 1,
  "chainwork": "0000000000000000000000000000000000000000000000000000022c022c022c",
  "nTx": 1,
  "previousblockhash": "000000004f59cfa9f6e7238eb92ada0beab8fee7a4ed5f9f1e7a72232c0dc379",
  "nextblockhash": "00000000ee7947e2c00f657648bb1f4bfbc2f8fe0c9222d892c1474401cdc4ad",
  "strippedsize": 216,
  "size": 216,
  "weight": 864,
  "tx": [
    {
      "txid": "3d63ed24652993ad034b396961c1fb4fcf7a798efb6b3a5c3b7afa427e89deb0",
      "hash": "3d63ed24652993ad034b396961c1fb4fcf7a798efb6b3a5c3b7afa427e89deb0",
      "version": 1,
      "size": 135,
      "vsize": 135,
      "weight": 540,
      "locktime": 0,
      "vin": [
        {
          "coinbase": "04ffff001d02c605",
          "sequence": 4294967295
        }
      ],
      "vout": [
        {
          "value": 50.0,
          "n": 0,
          "scriptPubKey": {
            "asm": "040445fc9d4061ff1102da8e05d5a053ec1b04f0cc44cef5d1fd1c00cbffce46807297f3ec3daa19d2362c3c31e48b32ce168bb53d0278a3d1131ddcf4079f77a7 OP_CHECKSIG",
            "desc": "pk(040445fc9d4061ff1102da8e05d5a053ec1b04f0cc44cef5d1fd1c00cbffce46807297f3ec3daa19d2362c3c31e48b32ce168bb53d0278a3d1131ddcf4079f77a7)#l92mu6vp",
            "hex": "41040445fc9d4061ff1102da8e05d5a053ec1b04f0cc44cef5d1fd1c00cbffce46807297f3ec3daa19d2362c3c31e48b32ce168bb53d0278a3d1131ddcf4079f77a7ac",
            "type": "pubkey"
          }
        }
      ],
      "hex": "01000000010000000000000000000000000000000000000000000000000000000000000000ffffffff0804ffff001d02c605ffffffff0100f2052a010000004341040445fc9d4061ff1102da8e05d5a053ec1b04f0cc44cef5d1fd1c00cbffce46807297f3ec3daa19d2362c3c31e48b32ce168bb53d0278a3d1131ddcf4079f77a7ac00000000"
    }
  ]
}