{
  "hash": "000000004bc858764b741d6f795a2e4c50b313a8e62d574064d2a0890c5e0476",
  "confirmations": 45519,
  "height": 7579,
  "version": 1,
  "versionHex": "00000001",
  "merkleroot": "a858879da3dfe45dd7f8d1a24cf83c0007e8e02dd2d66db00aa182bb72f08822",
  "time": 1237153512,
  "mediantime": 1237150155,
  "nonce": 3852653358,
  "bits": "1d00ffff",
  "difficulty": 1,
  "chainwork": "00000000000000000000000000000000000000000000000000001d9c1d9c1d9c",
  "nTx": 1,
  "previousblockhash": "000000006a34e9e653e8512808515679814f86f0674d9a60ba3cb9d8c6edd475",
  "nextblockhash": "00000000f13281e1792ffa0dfa5147fb8a602737a15f2227eb341d0204fef65f",
  "strippedsize": 216,
  "size": 216,
  "weight": 864,
  "tx": [
    {
      "txid": "a858879da3dfe45dd7f8d1a24cf83c0007e8e02dd2d66db00aa182bb72f08822",
      "hash": "a858879da3dfe45dd7f8d1a24cf83c0007e8e02dd2d66db00aa182bb72f08822",
      "version": 1,
      "size": 135,
      "vsize": 135,
      "weight": 540,
      "locktime": 0,
      "vin": [
        {
          "coinbase": "04ffff001d024d02",
          "sequence": 4294967295
        }
      ],
      "vout": [
        {
          "value": 50.0,
          "n": 0,
          "scriptPubKey": {
            "asm": "04b119d24412cd05abe9cf78b15fe922b78733d4af21d39b8fda1a5235b7af839cf56d153b129da5714017c04fdc9a3084f204cb7b31fbb2d69a514aaa73e047bc OP_CHECKSIG",
            "desc": "pk(04b119d24412cd05abe9cf78b15fe922b78733d4af21d39b8fda1a5235b7af839cf56d153b129da5714017c04fdc9a3084f204cb7b31fbb2d69a514aaa73e047bc)#jjj5njfw",
            "hex": "4104b119d24412cd05abe9cf78b15fe922b78733d4af21d39b8fda1a5235b7af839cf56d153b129da5714017c04fdc9a3084f204cb7b31fbb2d69a514aaa73e047bcac",
            "type": "pubkey"
          }
        }
      ],
      "hex": "01000000010000000000000000000000000000000000000000000000000000000000000000ffffffff0804ffff001d024d02ffffffff0100f2052a01000000434104b119d24412cd05abe9cf78b15fe922b78733d4af21d39b8fda1a5235b7af839cf56d153b129da5714017c04fdc9a3084f204cb7b31fbb2d69a514aaa73e047bcac00000000"
    }
  ]
}