{
  "hash": "00000000454b5a70640b199dee28c6c1932b4d8fcd3f7fbf0c1499173222ef9e",
  "confirmations": 43796,
  "height": 9302,
  "version": 1,
  "versionHex": "00000001",
  "merkleroot": "25c1399452d2b6527e821c924059f47ee68ec91212c2d2ceaba3ca0818901f27",
  "time": 1238476531,
  "mediantime": 1238472973,
  "nonce": 298765452,
  "bits": "1d00ffff",
  "difficulty": 1,
  "chainwork": "0000000000000000000000000000000000000000000000000000245724572457",
  "nTx": 1,
  "previousblockhash": "000000000ce946ccf793f66a47c78377d7a75010f71ffb4c63923456f81b13da",
  "nextblockhash": "00000000fddeabfbf4c7a0b26053c0a7829e71e84c1d3949e0f34ee5a60592aa",
  "strippedsize": 216,
  "size": 216,
  "weight": 864,
  "tx": [
    {
      "txid": "25c1399452d2b6527e821c924059f47ee68ec91212c2d2ceaba3ca0818901f27",
      "hash": "25c1399452d2b6527e821c924059f47ee68ec91212c2d2ceaba3ca0818901f27",
      "version": 1,
      "size": 135,
      "vsize": 135,
      "weight": 540,
      "locktime": 0,
      "vin": [
        {
          "coinbase": "04ffff001d02fe04",
          "sequence": 4294967295
        }
      ],
      "vout": [
        {
          "value": 50.0,
          "n": 0,
          "scriptPubKey": {
            "asm": "0464885f978654667491f22b67eae673524fdbd207bce3c193da8b2e6a4e9c20da1629796be94c863970e68071ca9a1d3a484ce011661e09e003b92e631e11ad0f OP_CHECKSIG",
            "desc": "pk(0464885f978654667491f22b67eae673524fdbd207bce3c193da8b2e6a4e9c20da1629796be94c863970e68071ca9a1d3a484ce011661e09e003b92e631e11ad0f)#shxhajlc",
            "hex": "410464885f978654667491f22b67eae673524fdbd207bce3c193da8b2e6a4e9c20da1629796be94c863970e68071ca9a1d3a484ce011661e09e003b92e631e11ad0fac",
            "type": "pubkey"
          }
        }
      ],
      "hex": "01000000010000000000000000000000000000000000000000000000000000000000000000ffffffff0804ffff001d02fe04ffffffff0100f2052a0100000043410464885f978654667491f22b67eae673524fdbd207bce3c193da8b2e6a4e9c20da1629796be94c863970e68071ca9a1d3a484ce011661e09e003b92e631e11ad0fac00000000"
    }
  ]
}