{
  "hash": "000000004a0bb4b37415e5ff3b37a4102545d867d74f12eb075548287b793569",
  "confirmations": 43979,
  "height": 9119,
  "version": 1,
  "versionHex": "00000001",
  "merkleroot": "8b4101ef7ca93bc6db4cda5bd42b210c7de1f21e624011558d429b50efb23aa3",
  "time": 1238343795,
  "mediantime": 1238339272,
  "nonce": 2881967110,
  "bits": "1d00ffff",
  "difficulty": 1,
  "chainwork": "000000000000000000000000000000000000000000000000000023a023a023a0",
  "nTx": 1,
  "previousblockhash": "00000000b87c684ff1b276a2229185173d0d3ddefc3a362a70916d6ab1e5696d",
  "nextblockhash": "00000000a991eb99233461c8f4462aa648e9415a44d92878bf6f605ff26a8a27",
  "strippedsize": 216,
  "size": 216,
  "weight": 864,
  "tx": [
    {
      "txid": "8b4101ef7ca93bc6db4cda5bd42b210c7de1f21e624011558d429b50efb23aa3",
      "hash": "8b4101ef7ca93bc6db4cda5bd42b210c7de1f21e624011558d429b50efb23aa3",
      "version": 1,
      "size": 135,
      "vsize": 135,
      "weight": 540,
      "locktime": 0,
      "vin": [
        {
          "coinbase": "04ffff001d02b908",
          "sequence": 4294967295
        }
      ],
      "vout": [
        {
          "value": 50.0,
          "n": 0,
          "scriptPubKey": {
            "asm": "0454df6b2a2f1c37ac56681cb4d45985c8ac2117faa109af32138aecae3854682414f6ab3050bac94a4f91b7de2db1df0a41683e71b8425dde827d7071ae4dc763 OP_CHECKSIG",
            "desc": "pk(0454df6b2a2f1c37ac56681cb4d45985c8ac2117faa109af32138aecae3854682414f6ab3050bac94a4f91b7de2db1df0a41683e71b8425dde827d7071ae4dc763)#4h7x4mzp",
            "hex": "410454df6b2a2f1c37ac56681cb4d45985c8ac2117faa109af32138aecae3854682414f6ab3050bac94a4f91b7de2db1df0a41683e71b8425dde827d7071ae4dc763ac",
            "type": "pubkey"
          }
        }
      ],
      "hex": "01000000010000000000000000000000000000000000000000000000000000000000000000ffffffff0804ffff001d02b908ffffffff0100f2052a0100000043410454df6b2a2f1c37ac56681cb4d45985c8ac2117faa109af32138aecae3854682414f6ab3050bac94a4f91b7de2db1df0a41683e71b8425dde827d7071ae4dc763ac00000000"
    }
  ]
}