{
  "hash": "0000000063f70a539796b75fbdd72df37fbcb28ddc50852e2a32923ceb2a6173",
  "confirmations": 47595,
  "height": 5503,
  "version": 1,
  "versionHex": "00000001",
  "merkleroot": "bf3803cb836552cabd1f9d752e72cbb5fb5c1245a9d6cbf78bc06df2242e8840",
  "time": 1235524503,
  "mediantime": 1235520309,
  "nonce": 310338088,
  "bits": "1d00ffff",
  "difficulty": 1,
  "chainwork": "0000000000000000000000000000000000000000000000000000158015801580",
  "nTx": 1,
  "previousblockhash": "00000000c97387559738150a07f2b07d6031f31f7f0026f4bf3a2728eacd91af",
  "nextblockhash": "00000000381d1288bd5db198a82fb1a2778f94992de2213c9bbe2cb942beebf9",
  "strippedsize": 216,
  "size": 216,
  "weight": 864,
  "tx": [
    {
      "txid": "bf3803cb836552cabd1f9d752e72cbb5fb5c1245a9d6cbf78bc06df2242e8840",
      "hash": "bf3803cb836552cabd1f9d752e72cbb5fb5c1245a9d6cbf78bc06df2242e8840",
      "version": 1,
      "size": 135,
      "vsize": 135,
      "weight": 540,
      "locktime": 0,
      "vin": [
        {
          "coinbase": "04ffff001d02ac05",
          "sequence": 4294967295
        }
      ],
      "vout": [
        {
          "value": 50.0,
          "n": 0,
          "scriptPubKey": {
            "asm": "046ed64fb801e67025ca4ae909b4d6e70b884a1f211ca63d41e526246bf498646b059c7cd0284f6a60179f99e912a59fa678055bda5030d81147414b619b57eae8 OP_CHECKSIG",
            "desc": "pk(046ed64fb801e67025ca4ae909b4d6e70b884a1f211ca63d41e526246bf498646b059c7cd0284f6a60179f99e912a59fa678055bda5030d81147414b619b57eae8)#5826uufq",
            "hex": "41046ed64fb801e67025ca4ae909b4d6e70b884a1f211ca63d41e526246bf498646b059c7cd0284f6a60179f99e912a59fa678055bda5030d81147414b619b57eae8ac",
            "type": "pubkey"
          }
        }
      ],
      "hex": "01000000010000000000000000000000000000000000000000000000000000000000000000ffffffff0804ffff001d02ac05ffffffff0100f2052a010000004341046ed64fb801e67025ca4ae909b4d6e70b884a1f211ca63d41e526246bf498646b059c7cd0284f6a60179f99e912a59fa678055bda5030d81147414b619b57eae8ac00000000"
    }
  ]
}