{
  "hash": "00000000eeef8d291c715483e9e0016056a68d5d692ee12db6973bbdd42c8fa7",
  "confirmations": 51674,
  "height": 1424,
  "version": 1,
  "versionHex": "00000001",
  "merkleroot": "28aaa4d18f337e5f36c35c224902380375615e34f0631f707f5358774d60d1f9",
  "time": 1232735014,
  "mediantime": 1232732834,
  "nonce": 255949569,
  "bits": "1d00ffff",
  "difficulty": 1,
  "chainwork": "0000000000000000000000000000000000000000000000000000059105910591",
  "nTx": 1,
  "previousblockhash": "0000000042d2a80affc893529225ee3af68f8272ce66a988e2b746574eaddb6b",
  "nextblockhash": "0000000038a3627bbc86c1fff0cd34c115ad81289d6588ccd035bd573c0e4a59",
  "strippedsize": 215,
  "size": 215,
  "weight": 860,
  "tx": [
    {
      "txid": "28aaa4d18f337e5f36c35c224902380375615e34f0631f707f5358774d60d1f9",
      "hash": "28aaa4d18f337e5f36c35c224902380375615e34f0631f707f5358774d60d1f9",
      "version": 1,
      "size": 134,
      "vsize": 134,
      "weight": 536,
      "locktime": 0,
      "vin": [
        {
          "coinbase": "04ffff001d015b",
          "sequence": 4294967295
        }
      ],
      "vout": [
        {
          "value": 50.0,
          "n": 0,
          "scriptPubKey": {
            "asm": "0416aaef10272a89dceb034dda25322b8b531cf0c628109d134e4bf7d08df90e195b93d58c247d99b452576b7cba1dcefdfd3a0312ee3dd18cdc0f970d761c8cbf OP_CHECKSIG",
            "desc": "pk(0416aaef10272a89dceb034dda25322b8b531cf0c628109d134e4bf7d08df90e195b93d58c247d99b452576b7cba1dcefdfd3a0312ee3dd18cdc0f970d761c8cbf)#zdnwq7n7",
            "hex": "410416aaef10272a89dceb034dda25322b8b531cf0c628109d134e4bf7d08df90e195b93d58c247d99b452576b7cba1dcefdfd3a0312ee3dd18cdc0f970d761c8cbfac",
            "type": "pubkey"
          }
        }
      ],
      "hex": "01000000010000000000000000000000000000000000000000000000000000000000000000ffffffff0704ffff001d015bffffffff0100f2052a0100000043410416aaef10272a89dceb034dda25322b8b531cf0c628109d134e4bf7d08df90e195b93d58c247d99b452576b7cba1dcefdfd3a0312ee3dd18cdc0f970d761c8cbfac00000000"
    }
  ]
}