{
  "hash": "00000000537e9a57c4218c609393dcb41d415e998ee6c9081a4815fab60bd2b5",
  "confirmations": 51350,
  "height": 1748,
  "version": 1,
  "versionHex": "00000001",
  "merkleroot": "15edd0f51d4357458efc35f70d1b5ed35d594ef94b81f92cb09032b5bc4f4a94",
  "time": 1232874053,
  "mediantime": 1232871155,
  "nonce": 2590189872,
  "bits": "1d00ffff",
  "difficulty": 1,
  "chainwork": "000000000000000000000000000000000000000000000000000006d506d506d5",
  "nTx": 1,
  "previousblockhash": "0000000059976df5b284b60f9aeb7bf97cc76b2647a47bced51168848c0f113b",
  "nextblockhash": "00000000972a2a2e86dc713a277acadba1620837d2b9855dea844ad81e302a53",
  "strippedsize": 216,
  "size": 216,
  "weight": 864,
  "tx": [
    {
      "txid": "15edd0f51d4357458efc35f70d1b5ed35d594ef94b81f92cb09032b5bc4f4a94",
      "hash": "15edd0f51d4357458efc35f70d1b5ed35d594ef94b81f92cb09032b5bc4f4a94",
      "version": 1,
      "size": 135,
      "vsize": 135,
      "weight": 540,
      "locktime": 0,
      "vin": [
        {
          "coinbase": "04ffff001d028f03",
          "sequence": 4294967295
        }
      ],
      "vout": [
        {
          "value": 50.0,
          "n": 0,
          "scriptPubKey": {
            "asm": "04d2a9b91662db0a1615b3050617e20ef863727a6060afdff4036f7d8b51fcaf229a04b3d4d6e676a41016041ae5779e286054486ffab3f244fece4a34e01fe366 OP_CHECKSIG",
            "desc": "pk(04d2a9b91662db0a1615b3050617e20ef863727a6060afdff4036f7d8b51fcaf229a04b3d4d6e676a41016041ae5779e286054486ffab3f244fece4a34e01fe366)#y8sernad",
            "hex": "4104d2a9b91662db0a1615b3050617e20ef863727a6060afdff4036f7d8b51fcaf229a04b3d4d6e676a41016041ae5779e286054486ffab3f244fece4a34e01fe366ac",
            "type": "pubkey"
          }
        }
      ],
      "hex": "01000000010000000000000000000000000000000000000000000000000000000000000000ffffffff0804ffff001d028f03ffffffff0100f2052a01000000434104d2a9b91662db0a1615b3050617e20ef863727a6060afdff4036f7d8b51fcaf229a04b3d4d6e676a41016041ae5779e286054486ffab3f244fece4a34e01fe366ac00000000"
    }
  ]
}