{
  "hash": "0000000037e283cc7024657386e332f7e13f76083c58657303ea40db07ecc521",
  "confirmations": 44686,
  "height": 8412,
  "version": 1,
  "versionHex": "00000001",
  "merkleroot": "4f809e84d300ed76adf2230915dc78307b8870bd8ebdb5ad97e8e6c92897f368",
  "time": 1237807851,
  "mediantime": 1237803518,
  "nonce": 2564633351,
  "bits": "1d00ffff",
  "difficulty": 1,
  "chainwork": "000000000000000000000000000000000000000000000000000020dd20dd20dd",
  "nTx": 1,
  "previousblockhash": "0000000040774cda0f66f9107d3171ce1dbd8a11043658f3892eac5a08124547",
  "nextblockhash": "00000000ab66e934e5822e9fe621c0120b33ad1634b24935a730e48905032a79",
  "strippedsize": 216,
  "size": 216,
  "weight": 864,
  "tx": [
    {
      "txid": "4f809e84d300ed76adf2230915dc78307b8870bd8ebdb5ad97e8e6c92897f368",
      "hash": "4f809e84d300ed76adf2230915dc78307b8870bd8ebdb5ad97e8e6c92897f368",
      "version": 1,
      "size": 135,
      "vsize": 135,
      "weight": 540,
      "locktime": 0,
      "vin": [
        {
          "coinbase": "04ffff001d024806",
          "sequence": 4294967295
        }
      ],
      "vout": [
        {
          "value": 50.0,
          "n": 0,
          "scriptPubKey": {
            "asm": "04704dfff6bdea532c34b927d92df973d861665acd7a0326fe602e7be3a878fce4b79a9bbf3fe280bd2827b0e713700de055a8bb05c2ca0ff54ed7f8936e26ad7a OP_CHECKSIG",
            "desc": "pk(04704dfff6bdea532c34b927d92df973d861665acd7a0326fe602e7be3a878fce4b79a9bbf3fe280bd2827b0e713700de055a8bb05c2ca0ff54ed7f8936e26ad7a)#a42krjzx",
            "hex": "4104704dfff6bdea532c34b927d92df973d861665acd7a0326fe602e7be3a878fce4b79a9bbf3fe280bd2827b0e713700de055a8bb05c2ca0ff54ed7f8936e26ad7aac",
            "type": "pubkey"
          }
        }
      ],
      "hex": "01000000010000000000000000000000000000000000000000000000000000000000000000ffffffff0804ffff001d024806ffffffff0100f2052a01000000434104704dfff6bdea532c34b927d92df973d861665acd7a0326fe602e7be3a878fce4b79a9bbf3fe280bd2827b0e713700de055a8bb05c2ca0ff54ed7f8936e26ad7aac00000000"
    }
  ]
}