{
  "hash": "00000000f7b74a45384160898e182bbb63ea2628b8ee32659ea5e901bfdf7bf1",
  "confirmations": 43906,
  "height": 9192,
  "version": 1,
  "versionHex": "00000001",
  "merkleroot": "fdf696dd2fd5a5ae4eb9918ab91eb4acd328795d220b21b50b8fe0b60e98f490",
  "time": 1238393741,
  "mediantime": 1238391775,
  "nonce": 4133965588,
  "bits": "1d00ffff",
  "difficulty": 1,
  "chainwork": "000000000000000000000000000000000000000000000000000023e923e923e9",
  "nTx": 1,
  "previousblockhash": "000000006a8240846dabd26327f936bc418947fd0da8dfcfe182e0fecbc1cb71",
  "nextblockhash": "00000000a3d2f83fc7c56a798fb54b98ae1793a07c607733ddacf20f439e2e5a",
  "strippedsize": 216,
  "size": 216,
  "weight": 864,
  "tx": [
    {
      "txid": "fdf696dd2fd5a5ae4eb9918ab91eb4acd328795d220b21b50b8fe0b60e98f490",
      "hash": "fdf696dd2fd5a5ae4eb9918ab91eb4acd328795d220b21b50b8fe0b60e98f490",
      "version": 1,
      "size": 135,
      "vsize": 135,
      "weight": 540,
      "locktime": 0,
      "vin": [
        {
          "coinbase": "04ffff001d021c0a",
          "sequence": 4294967295
        }
      ],
      "vout": [
        {
          "value": 50.0,
          "n": 0,
          "scriptPubKey": {
            "asm": "0471dacb982fad66f70317f9ffa904962f30d80e5a3ed3bd2b3b4389d52c88eafce8aae3cf32b4ac6d30110392947e5ac7148ec44f3ec3596ee11d4d711bbd1cfd OP_CHECKSIG",
            "desc": "pk(0471dacb982fad66f70317f9ffa904962f30d80e5a3ed3bd2b3b4389d52c88eafce8aae3cf32b4ac6d30110392947e5ac7148ec44f3ec3596ee11d4d711bbd1cfd)#6h602dlk",
            "hex": "410471dacb982fad66f70317f9ffa904962f30d80e5a3ed3bd2b3b4389d52c88eafce8aae3cf32b4ac6d30110392947e5ac7148ec44f3ec3596ee11d4d711bbd1cfdac",
            "type": "pubkey"
          }
        }
      ],
      "hex": "01000000010000000000000000000000000000000000000000000000000000000000000000ffffffff0804ffff001d021c0affffffff0100f2052a0100000043410471dacb982fad66f70317f9ffa904962f30d80e5a3ed3bd2b3b4389d52c88eafce8aae3cf32b4ac6d30110392947e5ac7148ec44f3ec3596ee11d4d711bbd1cfdac00000000"
    }
  ]
}