{
  "hash": "0000000099bf32f17e8d5103e990c108c6f2caa6bd17283a77ca026a8c3bc4c8",
  "confirmations": 52018,
  "height": 117,
  "version": 1,
  "versionHex": "00000001",
  "merkleroot": "bbbf6ee73ce663f04f74b2847f39f1ac6ecff085f6bad7b6a20bfd15f06143fb",
  "time": 1231673147,
  "mediantime": 1231670137,
  "nonce": 3339640109,
  "bits": "1d00ffff",
  "difficulty": 1,
  "chainwork": "0000000000000000000000000000000000000000000000000000007600760076",
  "nTx": 1,
  "previousblockhash": "000000007bf2805ee06ee9d6eb1197a8818e7c36e47d9fb081ce8ae1206c3c71",
  "nextblockhash": "0000000054584932c3ac880b5dab1d76043eeb5df437ef468f627791cb1541f3",
  "strippedsize": 216,
  "size": 216,
  "weight": 864,
  "tx": [
    {
      "txid": "bbbf6ee73ce663f04f74b2847f39f1ac6ecff085f6bad7b6a20bfd15f06143fb",
      "hash": "bbbf6ee73ce663f04f74b2847f39f1ac6ecff085f6bad7b6a20bfd15f06143fb",
      "version": 1,
      "size": 135,
      "vsize": 135,
      "weight": 540,
      "locktime": 0,
      "vin": [
        {
          "coinbase": "04ffff001d02b800",
          "sequence": 4294967295
        }
      ],
      "vout": [
        {
          "value": 50.0,
          "n": 0,
          "scriptPubKey": {
            "asm": "04f8f1b66e48a29fd15aa26741128bcf731646161b1603861526216c12ec3e89d2b3d34c3d747afccdfd4704a0972a5184151d9ce0776aab237e46f464c145fa04 OP_CHECKSIG",
            "desc": "pk(04f8f1b66e48a29fd15aa26741128bcf731646161b1603861526216c12ec3e89d2b3d34c3d747afccdfd4704a0972a5184151d9ce0776aab237e46f464c145fa04)#2fslfttl",
            "hex": "4104f8f1b66e48a29fd15aa26741128bcf731646161b1603861526216c12ec3e89d2b3d34c3d747afccdfd4704a0972a5184151d9ce0776aab237e46f464c145fa04ac",
            "type": "pubkey"
          }
        }
      ],
      "hex": "01000000010000000000000000000000000000000000000000000000000000000000000000ffffffff0804ffff001d02b800ffffffff0100f2052a01000000434104f8f1b66e48a29fd15aa26741128bcf731646161b1603861526216c12ec3e89d2b3d34c3d747afccdfd4704a0972a5184151d9ce0776aab237e46f464c145fa04ac00000000"
    }
  ]
}