{
  "hash": "00000000a51617eee6b4a6e4e5ba4dd9f79aa59c92f7be03f4c4cca995995b51",
  "confirmations": 49947,
  "height": 3151,
  "version": 1,
  "versionHex": "00000001",
  "merkleroot": "d38e5057d0efe83a74066bbaeb7dc9669a210e612997457e432025ca913639ef",
  "time": 1233868025,
  "mediantime": 1233865417,
  "nonce": 53817852,
  "bits": "1d00ffff",
  "difficulty": 1,
  "chainwork": "00000000000000000000000000000000000000000000000000000c500c500c50",
  "nTx": 1,
  "previousblockhash": "0000000004b12b69f025ec124d120991d8a18a5df3cb66acf9b74ddfd689b35c",
  "nextblockhash": "00000000c7dbed2ee7e87f6aa4f139d1a8b47ed721aae6ef11b66872a3a81ad5",
  "strippedsize": 216,
  "size": 216,
  "weight": 864,
  "tx": [
    {
      "txid": "d38e5057d0efe83a74066bbaeb7dc9669a210e612997457e432025ca913639ef",
      "hash": "d38e5057d0efe83a74066bbaeb7dc9669a210e612997457e432025ca913639ef",
      "version": 1,
      "size": 135,
      "vsize": 135,
      "weight": 540,
      "locktime": 0,
      "vin": [
        {
          "coinbase": "04ffff001d02cf07",
          "sequence": 4294967295
        }
      ],
      "vout": [
        {
          "value": 50.0,
          "n": 0,
          "scriptPubKey": {
            "asm": "04a85b6692a7721f8db3abb2f27727719e9ec81e2ba999842eaae8cf0f3b1bc30b031af8f23892a65ed14b86b0c7da1cc3cb41dc8479b018b6a407994152c78d13 OP_CHECKSIG",
            "desc": "pk(04a85b6692a7721f8db3abb2f27727719e9ec81e2ba999842eaae8cf0f3b1bc30b031af8f23892a65ed14b86b0c7da1cc3cb41dc8479b018b6a407994152c78d13)#9ltvlffp",
            "hex": "4104a85b6692a7721f8db3abb2f27727719e9ec81e2ba999842eaae8cf0f3b1bc30b031af8f23892a65ed14b86b0c7da1cc3cb41dc8479b018b6a407994152c78d13ac",
            "type": "pubkey"
          }
        }
      ],
      "hex": "01000000010000000000000000000000000000000000000000000000000000000000000000ffffffff0804ffff001d02cf07ffffffff0100f2052a01000000434104a85b6692a7721f8db3abb2f27727719e9ec81e2ba999842eaae8cf0f3b1bc30b031af8f23892a65ed14b86b0c7da1cc3cb41dc8479b018b6a407994152c78d13ac00000000"
    }
  ]
}