{
  "hash": "00000000070b5a4ba16f846d325fa4ffc4144dbcfec4e6ae3a19fe9272eb8e5b",
  "confirmations": 51678,
  "height": 1420,
  "version": 1,
  "versionHex": "00000001",
  "merkleroot": "c5b52faf9543a1651040627fa80da07b9096518248573cd8c640aaa763b96e06",
  "time": 1232733269,
  "mediantime": 1232731481,
  "nonce": 4164638516,
  "bits": "1d00ffff",
  "difficulty": 1,
  "chainwork": "0000000000000000000000000000000000000000000000000000058d058d058d",
  "nTx": 1,
  "previousblockhash": "00000000c987e02ccad0264c844cdd8b93bd4e8a21339b0335ea0a14c33ffd1e",
  "nextblockhash": "00000000cf780d7418f2b1ef9a413ad8d8d85d9b2830240911bd488fc9af1464",
  "strippedsize": 215,
  "size": 215,
  "weight": 860,
  "tx": [
    {
      "txid": "c5b52faf9543a1651040627fa80da07b9096518248573cd8c640aaa763b96e06",
      "hash": "c5b52faf9543a1651040627fa80da07b9096518248573cd8c640aaa763b96e06",
      "version": 1,
      "size": 134,
      "vsize": 134,
      "weight": 536,
      "locktime": 0,
      "vin": [
        {
          "coinbase": "04ffff001d0159",
          "sequence": 4294967295
        }
      ],
      "vout": [
        {
          "value": 50.0,
          "n": 0,
          "scriptPubKey": {
            "asm": "042f3944780af1dc852f126fd55a47c5ef5c650d7503973cbf94b7f034276dc5c60cbbc68b21aa8f7f808234f570b2e55c602035a77016c3663219e8fced756b12 OP_CHECKSIG",
            "desc": "pk(042f3944780af1dc852f126fd55a47c5ef5c650d7503973cbf94b7f034276dc5c60cbbc68b21aa8f7f808234f570b2e55c602035a77016c3663219e8fced756b12)#smprpdyy",
            "hex": "41042f3944780af1dc852f126fd55a47c5ef5c650d7503973cbf94b7f034276dc5c60cbbc68b21aa8f7f808234f570b2e55c602035a77016c3663219e8fced756b12ac",
            "type": "pubkey"
          }
        }
      ],
      "hex": "01000000010000000000000000000000000000000000000000000000000000000000000000ffffffff0704ffff001d0159ffffffff0100f2052a010000004341042f3944780af1dc852f126fd55a47c5ef5c650d7503973cbf94b7f034276dc5c60cbbc68b21aa8f7f808234f570b2e55c602035a77016c3663219e8fced756b12ac00000000"
    }
  ]
}