{
  "hash": "00000000c5894fa81da0f057d7b4ca5116093140b5d876f54c6d428e4dd21c16",
  "confirmations": 44252,
  "height": 8846,
  "version": 1,
  "versionHex": "00000001",
  "merkleroot": "ce5b497d133ae426cf562a67b74ebc556504bb5de50d763445ecbd0e89541470",
  "time": 1238134797,
  "mediantime": 1238130263,
  "nonce": 3841010481,
  "bits": "1d00ffff",
  "difficulty": 1,
  "chainwork": "0000000000000000000000000000000000000000000000000000228f228f228f",
  "nTx": 1,
  "previousblockhash": "00000000a3049e26b1e3f5f9b9c342c537ec52fc0572f08142d0225dbaf5724e",
  "nextblockhash": "00000000b3a76f808acd2cbacce2616e383b6ae2b513078cc8da91bf9aa17411",
  "strippedsize": 216,
  "size": 216,
  "weight": 864,
  "tx": [
    {
      "txid": "ce5b497d133ae426cf562a67b74ebc556504bb5de50d763445ecbd0e89541470",
      "hash": "ce5b497d133ae426cf562a67b74ebc556504bb5de50d763445ecbd0e89541470",
      "version": 1,
      "size": 135,
      "vsize": 135,
      "weight": 540,
      "locktime": 0,
      "vin": [
        {
          "coinbase": "04ffff001d029103",
          "sequence": 4294967295
        }
      ],
      "vout": [
        {
          "value": 50.0,
          "n": 0,
          "scriptPubKey": {
            "asm": "044364319a97503227237b7ee76a8f947f92c014c32ad090b2377a3e093c9e76495678594c5a43f1ae71ba97dd2ed58b9024e5c6c73988c21fdeeaddd82893299a OP_CHECKSIG",
            "desc": "pk(044364319a97503227237b7ee76a8f947f92c014c32ad090b2377a3e093c9e76495678594c5a43f1ae71ba97dd2ed58b9024e5c6c73988c21fdeeaddd82893299a)#vjpllqd6",
            "hex": "41044364319a97503227237b7ee76a8f947f92c014c32ad090b2377a3e093c9e76495678594c5a43f1ae71ba97dd2ed58b9024e5c6c73988c21fdeeaddd82893299aac",
            "type": "pubkey"
          }
        }
      ],
      "hex": "01000000010000000000000000000000000000000000000000000000000000000000000000ffffffff0804ffff001d029103ffffffff0100f2052a010000004341044364319a97503227237b7ee76a8f947f92c014c32ad090b2377a3e093c9e76495678594c5a43f1ae71ba97dd2ed58b9024e5c6c73988c21fdeeaddd82893299aac00000000"
    }
  ]
}