{
  "hash": "00000000aad507218b583f4962b53ee1fcd9e7a0f10e736cf7f07c8342b90507",
  "confirmations": 46923,
  "height": 6175,
  "version": 1,
  "versionHex": "00000001",
  "merkleroot": "9579ce9e406a83ac5e7c83673dd34470f1ef388a6932c844014d9764df6449ed",
  "time": 1236071354,
  "mediantime": 1236068089,
  "nonce": 3015916825,
  "bits": "1d00ffff",
  "difficulty": 1,
  "chainwork": "0000000000000000000000000000000000000000000000000000182018201820",
  "nTx": 1,
  "previousblockhash": "00000000954bf1ee6550097e46165b37ec2f93c4e49c1b8446e3c2e94139a3ab",
  "nextblockhash": "00000000004eda0d6c9fd39ad61fa535efb4bb1a33f656185536c256c31a3d8d",
  "strippedsize": 216,
  "size": 216,
  "weight": 864,
  "tx": [
    {
      "txid": "9579ce9e406a83ac5e7c83673dd34470f1ef388a6932c844014d9764df6449ed",
      "hash": "9579ce9e406a83ac5e7c83673dd34470f1ef388a6932c844014d9764df6449ed",
      "version": 1,
      "size": 135,
      "vsize": 135,
      "weight": 540,
      "locktime": 0,
      "vin": [
        {
          "coinbase": "04ffff001d020c08",
          "sequence": 4294967295
        }
      ],
      "vout": [
        {
          "value": 50.0,
          "n": 0,
          "scriptPubKey": {
            "asm": "044ca9b42003a20afd533a08b224333c25359f75eca62a727f3b383faf23881852a356fe6410ab27f2c11a8d390bfb504629450b34397fcf3816976d69b432ca1a OP_CHECKSIG",
            "desc": "pk(044ca9b42003a20afd533a08b224333c25359f75eca62a727f3b383faf23881852a356fe6410ab27f2c11a8d390bfb504629450b34397fcf3816976d69b432ca1a)#gss6yjja",
            "hex": "41044ca9b42003a20afd533a08b224333c25359f75eca62a727f3b383faf23881852a356fe6410ab27f2c11a8d390bfb504629450b34397fcf3816976d69b432ca1aac",
            "type": "pubkey"
          }
        }
      ],
      "hex": "01000000010000000000000000000000000000000000000000000000000000000000000000ffffffff0804ffff001d020c08ffffffff0100f2052a010000004341044ca9b42003a20afd533a08b224333c25359f75eca62a727f3b383faf23881852a356fe6410ab27f2c11a8d390bfb504629450b34397fcf3816976d69b432ca1aac00000000"
    }
  ]
}