{
  "hash": "00000000dc2da453e2d4576146e6edfc41c01b636e420a9fe0e2d1b36a2d894a",
  "confirmations": 46103,
  "height": 6995,
  "version": 1,
  "versionHex": "00000001",
  "merkleroot": "8972d251aa37c5cc6820de358d18af2b77538bdd836ac8f3501279ece514096a",
  "time": 1236714082,
  "mediantime": 1236711228,
  "nonce": 1368379705,
  "bits": "1d00ffff",
  "difficulty": 1,
  "chainwork": "00000000000000000000000000000000000000000000000000001b541b541b54",
  "nTx": 1,
  "previousblockhash": "0000000095dfcb632667b03b58caf97ad7282da99d1fa00f22d292cca036cf30",
  "nextblockhash": "000000000d9c8fc997b6cedd8a7a6c671ceb3bc51e5cbc01621454408ae3fc71",
  "strippedsize": 216,
  "size": 216,
  "weight": 864,
  "tx": [
    {
      "txid": "8972d251aa37c5cc6820de358d18af2b77538bdd836ac8f3501279ece514096a",
      "hash": "8972d251aa37c5cc6820de358d18af2b77538bdd836ac8f3501279ece514096a",
      "version": 1,
      "size": 135,
      "vsize": 135,
      "weight": 540,
      "locktime": 0,
      "vin": [
        {
          "coinbase": "04ffff001d022b02",
          "sequence": 4294967295
        }
      ],
      "vout": [
        {
          "value": 50.0,
          "n": 0,
          "scriptPubKey": {
            "asm": "04e308a28b5836a62af0306ef86e34f1975847c4504ee211cc069b5c30c73e8c78444d4bb0d12bd7d5c3f508dd19cf7f10a7d78c21d78b405ce80fc200c79edba9 OP_CHECKSIG",
            "desc": "pk(04e308a28b5836a62af0306ef86e34f1975847c4504ee211cc069b5c30c73e8c78444d4bb0d12bd7d5c3f508dd19cf7f10a7d78c21d78b405ce80fc200c79edba9)#qkxlrkue",
            "hex": "4104e308a28b5836a62af0306ef86e34f1975847c4504ee211cc069b5c30c73e8c78444d4bb0d12bd7d5c3f508dd19cf7f10a7d78c21d78b405ce80fc200c79edba9ac",
            "type": "pubkey"
          }
        }
      ],
      "hex": "01000000010000000000000000000000000000000000000000000000000000000000000000ffffffff0804ffff001d022b02ffffffff0100f2052a01000000434104e308a28b5836a62af0306ef86e34f1975847c4504ee211cc069b5c30c73e8c78444d4bb0d12bd7d5c3f508dd19cf7f10a7d78c21d78b405ce80fc200c79edba9ac00000000"
    }
  ]
}