{
  "hash": "00000000602eaea606c6044442ff5ffa50bbf45d6168ca11b3d4f8fab77d7645",
  "confirmations": 50976,
  "height": 2122,
  "version": 1,
  "versionHex": "00000001",
  "merkleroot": "8bbcd9210a1ce714f707e25ced2ff316b5c6f8144662d9cf48c3c85c55131842",
  "time": 1233152466,
  "mediantime": 1233149937,
  "nonce": 2133627446,
  "bits": "1d00ffff",
  "difficulty": 1,
  "chainwork": "0000000000000000000000000000000000000000000000000000084b084b084b",
  "nTx": 1,
  "previousblockhash": "000000005fa35ee08a2283747996ed3e79f193b1f1f630e08023c27645f71827",
  "nextblockhash": "00000000a3099f5f4100c759a09d3ba7001e9075d7997c4e0e76308209dfece8",
  "strippedsize": 216,
  "size": 216,
  "weight": 864,
  "tx": [
    {
      "txid": "8bbcd9210a1ce714f707e25ced2ff316b5c6f8144662d9cf48c3c85c55131842",
      "hash": "8bbcd9210a1ce714f707e25ced2ff316b5c6f8144662d9cf48c3c85c55131842",
      "version": 1,
      "size": 135,
      "vsize": 135,
      "weight": 540,
      "locktime": 0,
      "vin": [
        {
          "coinbase": "04ffff001d02dd03",
          "sequence": 4294967295
        }
      ],
      "vout": [
        {
          "value": 50.0,
          "n": 0,
          "scriptPubKey": {
            "asm": "04023ade8bf568e2b29e46a1e1eb5c082903d7ed69b0a93cfd3a402d7cba5b1d8bd22f9ef12953531cb1ab39b77177908d855d7a8c16bb6be6e4e9783e43b6a1b6 OP_CHECKSIG",
            "desc": "pk(04023ade8bf568e2b29e46a1e1eb5c082903d7ed69b0a93cfd3a402d7cba5b1d8bd22f9ef12953531cb1ab39b77177908d855d7a8c16bb6be6e4e9783e43b6a1b6)#y6ct9z7x",
            "hex": "4104023ade8bf568e2b29e46a1e1eb5c082903d7ed69b0a93cfd3a402d7cba5b1d8bd22f9ef12953531cb1ab39b77177908d855d7a8c16bb6be6e4e9783e43b6a1b6ac",
            "type": "pubkey"
          }
        }
      ],
      "hex": "01000000010000000000000000000000000000000000000000000000000000000000000000ffffffff0804ffff001d02dd03ffffffff0100f2052a01000000434104023ade8bf568e2b29e46a1e1eb5c082903d7ed69b0a93cfd3a402d7cba5b1d8bd22f9ef12953531cb1ab39b77177908d855d7a8c16bb6be6e4e9783e43b6a1b6ac00000000"
    }
  ]
}