{
  "hash": "0000000062d3153a7f3a61ba5d7e94af4f2f297f69c8613b8b088125b57e1221",
  "confirmations": 44236,
  "height": 8862,
  "version": 1,
  "versionHex": "00000001",
  "merkleroot": "e79538855f2dff64ad6163386f3bbd25a36df4f7814ba91523c8b0710861fd76",
  "time": 1238146060,
  "mediantime": 1238142125,
  "nonce": 444897058,
  "bits": "1d00ffff",
  "difficulty": 1,
  "chainwork": "0000000000000000000000000000000000000000000000000000229f229f229f",
  "nTx": 1,
  "previousblockhash": "00000000341cd13c5f45a36e832f66c2f6692d1aa1e7ef12f61aa326fbab6b42",
  "nextblockhash": "000000006028fb1be3a7474c94ea83f10905478030457415eb7470f06f007dbd",
  "strippedsize": 216,
  "size": 216,
  "weight": 864,
  "tx": [
    {
      "txid": "e79538855f2dff64ad6163386f3bbd25a36df4f7814ba91523c8b0710861fd76",
      "hash": "e79538855f2dff64ad6163386f3bbd25a36df4f7814ba91523c8b0710861fd76",
      "version": 1,
      "size": 135,
      "vsize": 135,
      "weight": 540,
      "locktime": 0,
      "vin": [
        {
          "coinbase": "04ffff001d02c703",
          "sequence": 4294967295
        }
      ],
      "vout": [
        {
          "value": 50.0,
          "n": 0,
          "scriptPubKey": {
            "asm": "0442c6eec1b317c10001e0aa98c845a61a538f36b6861daf4e91f3ba80abea4108bea7c7eeda3d26ce973c7d062740bf93cbe4f308aa8a9f56f0e6078dc91a59a5 OP_CHECKSIG",
            "desc": "pk(0442c6eec1b317c10001e0aa98c845a61a538f36b6861daf4e91f3ba80abea4108bea7c7eeda3d26ce973c7d062740bf93cbe4f308aa8a9f56f0e6078dc91a59a5)#md0c7wp0",
            "hex": "410442c6eec1b317c10001e0aa98c845a61a538f36b6861daf4e91f3ba80abea4108bea7c7eeda3d26ce973c7d062740bf93cbe4f308aa8a9f56f0e6078dc91a59a5ac",
            "type": "pubkey"
          }
        }
      ],
      "hex": "01000000010000000000000000000000000000000000000000000000000000000000000000ffffffff0804ffff001d02c703ffffffff0100f2052a0100000043410442c6eec1b317c10001e0aa98c845a61a538f36b6861daf4e91f3ba80abea4108bea7c7eeda3d26ce973c7d062740bf93cbe4f308aa8a9f56f0e6078dc91a59a5ac00000000"
    }
  ]
}