{
  "hash": "000000003dcea3255a45098ed71e8de630c5b542aadc0c245a5cd9ccc45849ac",
  "confirmations": 51716,
  "height": 1382,
  "version": 1,
  "versionHex": "00000001",
  "merkleroot": "e1cc779a8f639c240662e2df25b3a00ab44b0f2335c61263ace71c45c84b56b8",
  "time": 1232667108,
  "mediantime": 1232664261,
  "nonce": 3573879346,
  "bits": "1d00ffff",
  "difficulty": 1,
  "chainwork": "0000000000000000000000000000000000000000000000000000056705670567",
  "nTx": 1,
  "previousblockhash": "000000007f523341e1be1a5b4833e575cf5e5d6f38682d399c043fd2ff373c0c",
  "nextblockhash": "00000000ef5cef7ebfb1e90d336962bdb66b7376e090c04715d863dad2d48042",
  "strippedsize": 216,
  "size": 216,
  "weight": 864,
  "tx": [
    {
      "txid": "e1cc779a8f639c240662e2df25b3a00ab44b0f2335c61263ace71c45c84b56b8",
      "hash": "e1cc779a8f639c240662e2df25b3a00ab44b0f2335c61263ace71c45c84b56b8",
      "version": 1,
      "size": 135,
      "vsize": 135,
      "weight": 540,
      "locktime": 0,
      "vin": [
        {
          "coinbase": "04ffff001d02d501",
          "sequence": 4294967295
        }
      ],
      "vout": [
        {
          "value": 50.0,
          "n": 0,
          "scriptPubKey": {
            "asm": "045f2ddf4e49e3b41ee1f5283deffabace305bc959718f945a8b7718a5c5154a5d67259c63ccbcd5ab24f8249b157333797f731119db39dc1f8c710040b6e41fd5 OP_CHECKSIG",
            "desc": "pk(045f2ddf4e49e3b41ee1f5283deffabace305bc959718f945a8b7718a5c5154a5d67259c63ccbcd5ab24f8249b157333797f731119db39dc1f8c710040b6e41fd5)#9m2yalhy",
            "hex": "41045f2ddf4e49e3b41ee1f5283deffabace305bc959718f945a8b7718a5c5154a5d67259c63ccbcd5ab24f8249b157333797f731119db39dc1f8c710040b6e41fd5ac",
            "type": "pubkey"
          }
        }
      ],
      "hex": "01000000010000000000000000000000000000000000000000000000000000000000000000ffffffff0804ffff001d02d501ffffffff0100f2052a010000004341045f2ddf4e49e3b41ee1f5283deffabace305bc959718f945a8b7718a5c5154a5d67259c63ccbcd5ab24f8249b157333797f731119db39dc1f8c710040b6e41fd5ac00000000"
    }
  ]
}