{
  "hash": "00000000d153d95cdb1fbdc9bd7f4e9fdbd784af7e0b0536a390d8d5b2c38a8d",
  "confirmations": 52095,
  "height": 238,
  "version": 1,
  "versionHex": "00000001",
  "merkleroot": "4231776c56a97967417881a329f44232d5fdd952d01b597a265a331af859cce5",
  "time": 1231782035,
  "mediantime": 1231779468,
  "nonce": 3230543156,
  "bits": "1d00ffff",
  "difficulty": 1,
  "chainwork": "000000000000000000000000000000000000000000000000000000ef00ef00ef",
  "nTx": 1,
  "previousblockhash": "000000003ee212a38ae0326c5982e3012754bb6a730f885bd955673982df83ca",
  "nextblockhash": "00000000ea67fe5a0ff9587f7a814c6b13fe902f386b53a62ac5728e8e58a16d",
  "strippedsize": 216,
  "size": 216,
  "weight": 864,
  "tx": [
    {
      "txid": "4231776c56a97967417881a329f44232d5fdd952d01b597a265a331af859cce5",
      "hash": "4231776c56a97967417881a329f44232d5fdd952d01b597a265a331af859cce5",
      "version": 1,
      "size": 135,
      "vsize": 135,
      "weight": 540,
      "locktime": 0,
      "vin": [
        {
          "coinbase": "04ffff001d02e200",
          "sequence": 4294967295
        }
      ],
      "vout": [
        {
          "value": 50.0,
          "n": 0,
          "scriptPubKey": {
            "asm": "04be25e3be98fe60103032bb5b919784b24d2d1ef585df73f2ae55ce1c02e4de54ab2e2d149a9997818113245ae31d7ac56cc305c6a37e7c8e917c14f33510f906 OP_CHECKSIG",
            "desc": "pk(04be25e3be98fe60103032bb5b919784b24d2d1ef585df73f2ae55ce1c02e4de54ab2e2d149a9997818113245ae31d7ac56cc305c6a37e7c8e917c14f33510f906)#2lklzg3h",
            "hex": "4104be25e3be98fe60103032bb5b919784b24d2d1ef585df73f2ae55ce1c02e4de54ab2e2d149a9997818113245ae31d7ac56cc305c6a37e7c8e917c14f33510f906ac",
            "type": "pubkey"
          }
        }
      ],
      "hex": "01000000010000000000000000000000000000000000000000000000000000000000000000ffffffff0804ffff001d02e200ffffffff0100f2052a01000000434104be25e3be98fe60103032bb5b919784b24d2d1ef585df73f2ae55ce1c02e4de54ab2e2d149a9997818113245ae31d7ac56cc305c6a37e7c8e917c14f33510f906ac00000000"
    }
  ]
}