{
  "hash": "000000005aad239f1a26ff4c7557d7412b6037b81e81f55de75b1d3347a73be4",
  "confirmations": 52013,
  "height": 1085,
  "version": 1,
  "versionHex": "00000001",
  "merkleroot": "adfabec2833f472c7a432232b940645197d47f8b72d368c63413212eec9307ee",
  "time": 1232412891,
  "mediantime": 1232409668,
  "nonce": 3121604407,
  "bits": "1d00ffff",
  "difficulty": 1,
  "chainwork": "0000000000000000000000000000000000000000000000000000043e043e043e",
  "nTx": 1,
  "previousblockhash": "00000000279454a36be308b8643fa0a0f9c7785b402efcf7ac42d165d402cc94",
  "nextblockhash": "00000000db56d479773fce0c561ad839f0ee4b97a6646a2597a4aa4d2d9c4190",
  "strippedsize": 216,
  "size": 216,
  "weight": 864,
  "tx": [
    {
      "txid": "adfabec2833f472c7a432232b940645197d47f8b72d368c63413212eec9307ee",
      "hash": "adfabec2833f472c7a432232b940645197d47f8b72d368c63413212eec9307ee",
      "version": 1,
      "size": 135,
      "vsize": 135,
      "weight": 540,
      "locktime": 0,
      "vin": [
        {
          "coinbase": "04ffff001d02c906",
          "sequence": 4294967295
        }
      ],
      "vout": [
        {
          "value": 50.0,
          "n": 0,
          "scriptPubKey": {
            "asm": "044153c4beb1ca5786d122703e71c968bf10967e7b7353ff3c170a207a9f6a08aac681bb01645e65ada56ed80c8b2accdad87d6fa3f3df2aa196ea65ff65e66972 OP_CHECKSIG",
            "desc": "pk(044153c4beb1ca5786d122703e71c968bf10967e7b7353ff3c170a207a9f6a08aac681bb01645e65ada56ed80c8b2accdad87d6fa3f3df2aa196ea65ff65e66972)#345ehhzn",
            "hex": "41044153c4beb1ca5786d122703e71c968bf10967e7b7353ff3c170a207a9f6a08aac681bb01645e65ada56ed80c8b2accdad87d6fa3f3df2aa196ea65ff65e66972ac",
            "type": "pubkey"
          }
        }
      ],
      "hex": "01000000010000000000000000000000000000000000000000000000000000000000000000ffffffff0804ffff001d02c906ffffffff0100f2052a010000004341044153c4beb1ca5786d122703e71c968bf10967e7b7353ff3c170a207a9f6a08aac681bb01645e65ada56ed80c8b2accdad87d6fa3f3df2aa196ea65ff65e66972ac00000000"
    }
  ]
}