{
  "hash": "000000008eaf02534ae0e5fc425563ce9084ec1f89b1d917f4351ce42a4cb79f",
  "confirmations": 47911,
  "height": 5187,
  "version": 1,
  "versionHex": "00000001",
  "merkleroot": "7562912597a23375201924159c6869db6289a88a4576fc4785211ca524455701",
  "time": 1235277775,
  "mediantime": 1235274673,
  "nonce": 3290717191,
  "bits": "1d00ffff",
  "difficulty": 1,
  "chainwork": "0000000000000000000000000000000000000000000000000000144414441444",
  "nTx": 1,
  "previousblockhash": "000000000d21a8252b86bf9105cf4c0a56ca512238adfd3ee483f0e215b96252",
  "nextblockhash": "00000000e160e3bc26a8bd8cc826c6b065dac61a48b6683d29997e94c45cb20a",
  "strippedsize": 215,
  "size": 215,
  "weight": 860,
  "tx": [
    {
      "txid": "7562912597a23375201924159c6869db6289a88a4576fc4785211ca524455701",
      "hash": "7562912597a23375201924159c6869db6289a88a4576fc4785211ca524455701",
      "version": 1,
      "size": 134,
      "vsize": 134,
      "weight": 536,
      "locktime": 0,
      "vin": [
        {
          "coinbase": "04ffff001d0153",
          "sequence": 4294967295
        }
      ],
      "vout": [
        {
          "value": 50.0,
          "n": 0,
          "scriptPubKey": {
            "asm": "04e3672d9173b12fcfd7a3e6afaf4a4389c969eabe336df105fe9c8a43816e6acf322039f582ce5f91395607a47ab0fe57605c68d8abfa6d9c9111f4182efc391b OP_CHECKSIG",
            "desc": "pk(04e3672d9173b12fcfd7a3e6afaf4a4389c969eabe336df105fe9c8a43816e6acf322039f582ce5f91395607a47ab0fe57605c68d8abfa6d9c9111f4182efc391b)#uvgqt9h2",
            "hex": "4104e3672d9173b12fcfd7a3e6afaf4a4389c969eabe336df105fe9c8a43816e6acf322039f582ce5f91395607a47ab0fe57605c68d8abfa6d9c9111f4182efc391bac",
            "type": "pubkey"
          }
        }
      ],
      "hex": "01000000010000000000000000000000000000000000000000000000000000000000000000ffffffff0704ffff001d0153ffffffff0100f2052a01000000434104e3672d9173b12fcfd7a3e6afaf4a4389c969eabe336df105fe9c8a43816e6acf322039f582ce5f91395607a47ab0fe57605c68d8abfa6d9c9111f4182efc391bac00000000"
    }
  ]
}