{
  "hash": "0000000068f26c789cb331f30ed797beb8a54e5cdb6d47b90b46351c2b1fde09",
  "confirmations": 47959,
  "height": 5139,
  "version": 1,
  "versionHex": "00000001",
  "merkleroot": "a775f66c5a733815e03a6169307b7504cca149df0b46731a678496baae0fb620",
  "time": 1235244052,
  "mediantime": 1235240432,
  "nonce": 68555560,
  "bits": "1d00ffff",
  "difficulty": 1,
  "chainwork": "0000000000000000000000000000000000000000000000000000141414141414",
  "nTx": 1,
  "previousblockhash": "000000005ed1735c348257670a302cde2d55b5bdeed2ebdc25626f238c736da3",
  "nextblockhash": "00000000af61bb99c804897a63d7babcff6aa2e9b406d3baa291d0f87439b553",
  "strippedsize": 216,
  "size": 216,
  "weight": 864,
  "tx": [
    {
      "txid": "a775f66c5a733815e03a6169307b7504cca149df0b46731a678496baae0fb620",
      "hash": "a775f66c5a733815e03a6169307b7504cca149df0b46731a678496baae0fb620",
      "version": 1,
      "size": 135,
      "vsize": 135,
      "weight": 540,
      "locktime": 0,
      "vin": [
        {
          "coinbase": "04ffff001d028f04",
          "sequence": 4294967295
        }
      ],
      "vout": [
        {
          "value": 50.0,
          "n": 0,
          "scriptPubKey": {
            "asm": "0481ffedfc4d4261cbd3b3aba72c2a2d02ab842ca1ce6582d83de15b3ff015e01669594ef58bcb084707fa667fd69c7ddea96372fd5c0bbd67beee1c269036cfe7 OP_CHECKSIG",
            "desc": "pk(0481ffedfc4d4261cbd3b3aba72c2a2d02ab842ca1ce6582d83de15b3ff015e01669594ef58bcb084707fa667fd69c7ddea96372fd5c0bbd67beee1c269036cfe7)#6na07eej",
            "hex": "410481ffedfc4d4261cbd3b3aba72c2a2d02ab842ca1ce6582d83de15b3ff015e01669594ef58bcb084707fa667fd69c7ddea96372fd5c0bbd67beee1c269036cfe7ac",
            "type": "pubkey"
          }
        }
      ],
      "hex": "01000000010000000000000000000000000000000000000000000000000000000000000000ffffffff0804ffff001d028f04ffffffff0100f2052a0100000043410481ffedfc4d4261cbd3b3aba72c2a2d02ab842ca1ce6582d83de15b3ff015e01669594ef58bcb084707fa667fd69c7ddea96372fd5c0bbd67beee1c269036cfe7ac00000000"
    }
  ]
}