{
  "hash": "00000000cab9c4794d97a881216c8c23035bb594b31aa9061e57a6c37877d60b",
  "confirmations": 43457,
  "height": 9641,
  "version": 1,
  "versionHex": "00000001",
  "merkleroot": "a2141fc6770fe1a292de237abcf882c9240e2979c05c43551014a4c6338500c0",
  "time": 1238732829,
  "mediantime": 1238729130,
  "nonce": 234598751,
  "bits": "1d00ffff",
  "difficulty": 1,
  "chainwork": "000000000000000000000000000000000000000000000000000025aa25aa25aa",
  "nTx": 1,
  "previousblockhash": "00000000f7790fbbf27448e0642cd52e2b8ec639e9ce75c337eb28531fa3fafb",
  "nextblockhash": "000000009d4bbe1d70cd2b29800236b8cfa5d042ff46a83b0fb1549931c215fc",
  "strippedsize": 216,
  "size": 216,
  "weight": 864,
  "tx": [
    {
      "txid": "a2141fc6770fe1a292de237abcf882c9240e2979c05c43551014a4c6338500c0",
      "hash": "a2141fc6770fe1a292de237abcf882c9240e2979c05c43551014a4c6338500c0",
      "version": 1,
      "size": 135,
      "vsize": 135,
      "weight": 540,
      "locktime": 0,
      "vin": [
        {
          "coinbase": "04ffff001d02c500",
          "sequence": 4294967295
        }
      ],
      "vout": [
        {
          "value": 50.0,
          "n": 0,
          "scriptPubKey": {
            "asm": "0419071dccc142086ea0028debcb53e36d9c53d96f1273ce5340248e7882e48807b68a7a7f78412cb24c555d6ad765893e2cabe6cddbdc19222c33fc4ab6ccbffd OP_CHECKSIG",
            "desc": "pk(0419071dccc142086ea0028debcb53e36d9c53d96f1273ce5340248e7882e48807b68a7a7f78412cb24c555d6ad765893e2cabe6cddbdc19222c33fc4ab6ccbffd)#8zd3wvha",
            "hex": "410419071dccc142086ea0028debcb53e36d9c53d96f1273ce5340248e7882e48807b68a7a7f78412cb24c555d6ad765893e2cabe6cddbdc19222c33fc4ab6ccbffdac",
            "type": "pubkey"
          }
        }
      ],
      "hex": "01000000010000000000000000000000000000000000000000000000000000000000000000ffffffff0804ffff001d02c500ffffffff0100f2052a0100000043410419071dccc142086ea0028debcb53e36d9c53d96f1273ce5340248e7882e48807b68a7a7f78412cb24c555d6ad765893e2cabe6cddbdc19222c33fc4ab6ccbffdac00000000"
    }
  ]
}