{
  "hash": "00000000525f8aee1501cbe7da6679cb0468983200aeedb320ba14c287774df3",
  "confirmations": 48879,
  "height": 4219,
  "version": 1,
  "versionHex": "00000001",
  "merkleroot": "1d4167b6d56ab8a1b3bf82a4f296771339f65572d6e07a3a3cacdc01d97958f9",
  "time": 1234592492,
  "mediantime": 1234588146,
  "nonce": 2759157025,
  "bits": "1d00ffff",
  "difficulty": 1,
  "chainwork": "0000000000000000000000000000000000000000000000000000107c107c107c",
  "nTx": 1,
  "previousblockhash": "00000000570349fb422fadf2d2e5388dc0737f2c6089bed8924daffb4e09edda",
  "nextblockhash": "000000001cea975f48af9093bf2b1bf9a6c30afaf2f3a4abe158b2017bfaace9",
  "strippedsize": 216,
  "size": 216,
  "weight": 864,
  "tx": [
    {
      "txid": "1d4167b6d56ab8a1b3bf82a4f296771339f65572d6e07a3a3cacdc01d97958f9",
      "hash": "1d4167b6d56ab8a1b3bf82a4f296771339f65572d6e07a3a3cacdc01d97958f9",
      "version": 1,
      "size": 135,
      "vsize": 135,
      "weight": 540,
      "locktime": 0,
      "vin": [
        {
          "coinbase": "04ffff001d028407",
          "sequence": 4294967295
        }
      ],
      "vout": [
        {
          "value": 50.0,
          "n": 0,
          "scriptPubKey": {
            "asm": "04d6cbb4d2ca9ff5f4993daaaf6a3d04c4270bb41b8ea7ba629b2c2cee9258d050148273f7078e3a90c103e117a2db2573111e3ea78139ae0585066dceb6ae418f OP_CHECKSIG",
            "desc": "pk(04d6cbb4d2ca9ff5f4993daaaf6a3d04c4270bb41b8ea7ba629b2c2cee9258d050148273f7078e3a90c103e117a2db2573111e3ea78139ae0585066dceb6ae418f)#qq7aekx8",
            "hex": "4104d6cbb4d2ca9ff5f4993daaaf6a3d04c4270bb41b8ea7ba629b2c2cee9258d050148273f7078e3a90c103e117a2db2573111e3ea78139ae0585066dceb6ae418fac",
            "type": "pubkey"
          }
        }
      ],
      "hex": "01000000010000000000000000000000000000000000000000000000000000000000000000ffffffff0804ffff001d028407ffffffff0100f2052a01000000434104d6cbb4d2ca9ff5f4993daaaf6a3d04c4270bb41b8ea7ba629b2c2cee9258d050148273f7078e3a90c103e117a2db2573111e3ea78139ae0585066dceb6ae418fac00000000"
    }
  ]
}