{
  "hash": "00000000a0771fe1dddca4177626dba099a7a01b8b5454a2350afcdc8534da23",
  "confirmations": 49855,
  "height": 3243,
  "version": 1,
  "versionHex": "00000001",
  "merkleroot": "380107610089d51310852f6a951ce1a10dea53d0f572d78a9d21dc7a6615459d",
  "time": 1233931849,
  "mediantime": 1233928115,
  "nonce": 1227720217,
  "bits": "1d00ffff",
  "difficulty": 1,
  "chainwork": "00000000000000000000000000000000000000000000000000000cac0cac0cac",
  "nTx": 1,
  "previousblockhash": "00000000a8991b1c8e1b331c6d30f21157f489b0ee908afc2718cc369b51f540",
  "nextblockhash": "00000000fecfe7fb2e4ca57b164a0017907ba3d7de895bf9c3ba179ed4412924",
  "strippedsize": 216,
  "size": 216,
  "weight": 864,
  "tx": [
    {
      "txid": "380107610089d51310852f6a951ce1a10dea53d0f572d78a9d21dc7a6615459d",
      "hash": "380107610089d51310852f6a951ce1a10dea53d0f572d78a9d21dc7a6615459d",
      "version": 1,
      "size": 135,
      "vsize": 135,
      "weight": 540,
      "locktime": 0,
      "vin": [
        {
          "coinbase": "04ffff001d024c03",
          "sequence": 4294967295
        }
      ],
      "vout": [
        {
          "value": 50.0,
          "n": 0,
          "scriptPubKey": {
            "asm": "0434a4874afd9d2215cda4f296c301a7541a140959c2a16e48da95d494bceb9f0b46573e2be79693126fddb925ddc4de659c2570268265ef661522230e995109c0 OP_CHECKSIG",
            "desc": "pk(0434a4874afd9d2215cda4f296c301a7541a140959c2a16e48da95d494bceb9f0b46573e2be79693126fddb925ddc4de659c2570268265ef661522230e995109c0)#n86kkhpm",
            "hex": "410434a4874afd9d2215cda4f296c301a7541a140959c2a16e48da95d494bceb9f0b46573e2be79693126fddb925ddc4de659c2570268265ef661522230e995109c0ac",
            "type": "pubkey"
          }
        }
      ],
      "hex": "01000000010000000000000000000000000000000000000000000000000000000000000000ffffffff0804ffff001d024c03ffffffff0100f2052a0100000043410434a4874afd9d2215cda4f296c301a7541a140959c2a16e48da95d494bceb9f0b46573e2be79693126fddb925ddc4de659c2570268265ef661522230e995109c0ac00000000"
    }
  ]
}