{
  "hash": "000000005a20199b7f8bd8c707171e792b2ca84b9eedc9a2483b7d3545d5e44c",
  "confirmations": 52464,
  "height": 634,
  "version": 1,
  "versionHex": "00000001",
  "merkleroot": "0a6353fb131ec8102dce4356b979f99ae4a532bab929999970fe9b6478a2c228",
  "time": 1232058407,
  "mediantime": 1232055703,
  "nonce": 64953813,
  "bits": "1d00ffff",
  "difficulty": 1,
  "chainwork": "0000000000000000000000000000000000000000000000000000027b027b027b",
  "nTx": 1,
  "previousblockhash": "00000000188807140be26e081e596a8212ba14495158f13c8dce03a4d7315fa1",
  "nextblockhash": "00000000eb29cb0f6ad34af16f83e998580219bd01bfacf4bcffb13d145c8e17",
  "strippedsize": 215,
  "size": 215,
  "weight": 860,
  "tx": [
    {
      "txid": "0a6353fb131ec8102dce4356b979f99ae4a532bab929999970fe9b6478a2c228",
      "hash": "0a6353fb131ec8102dce4356b979f99ae4a532bab929999970fe9b6478a2c228",
      "version": 1,
      "size": 134,
      "vsize": 134,
      "weight": 536,
      "locktime": 0,
      "vin": [
        {
          "coinbase": "04ffff001d0133",
          "sequence": 4294967295
        }
      ],
      "vout": [
        {
          "value": 50.0,
          "n": 0,
          "scriptPubKey": {
            "asm": "04eda8c9a6b3161d72a72d9d1c14ce2223ab7f985455758b6d9dbd8a7cf40b918cec0d5bd2f64eeeea526679ebd809aa42ea27680fa034b84bcb270edd4213052d OP_CHECKSIG",
            "desc": "pk(04eda8c9a6b3161d72a72d9d1c14ce2223ab7f985455758b6d9dbd8a7cf40b918cec0d5bd2f64eeeea526679ebd809aa42ea27680fa034b84bcb270edd4213052d)#uqvne2e6",
            "hex": "4104eda8c9a6b3161d72a72d9d1c14ce2223ab7f985455758b6d9dbd8a7cf40b918cec0d5bd2f64eeeea526679ebd809aa42ea27680fa034b84bcb270edd4213052dac",
            "type": "pubkey"
          }
        }
      ],
      "hex": "01000000010000000000000000000000000000000000000000000000000000000000000000ffffffff0704ffff001d0133ffffffff0100f2052a01000000434104eda8c9a6b3161d72a72d9d1c14ce2223ab7f985455758b6d9dbd8a7cf40b918cec0d5bd2f64eeeea526679ebd809aa42ea27680fa034b84bcb270edd4213052dac00000000"
    }
  ]
}