{
  "hash": "000000002f4afd677b14f17a19ef5f9584155e7a43b0375c85a5d52b43959916",
  "confirmations": 52032,
  "height": 125,
  "version": 1,
  "versionHex": "00000001",
  "merkleroot": "0d4fe37aeb52ff6c01f119fe0cd42ee8f2366d9bf55c50ba8fe52e760dcbc96a",
  "time": 1231679255,
  "mediantime": 1231675623,
  "nonce": 945837568,
  "bits": "1d00ffff",
  "difficulty": 1,
  "chainwork": "0000000000000000000000000000000000000000000000000000007e007e007e",
  "nTx": 1,
  "previousblockhash": "00000000ceae2b1cb578f066bd08c672fe87814880671c205febb2d624184f21",
  "nextblockhash": "000000007f5e80d3196ea9e3f0c0c0dc9d2b75af2d432df5ffe49956d34723fa",
  "strippedsize": 216,
  "size": 216,
  "weight": 864,
  "tx": [
    {
      "txid": "0d4fe37aeb52ff6c01f119fe0cd42ee8f2366d9bf55c50ba8fe52e760dcbc96a",
      "hash": "0d4fe37aeb52ff6c01f119fe0cd42ee8f2366d9bf55c50ba8fe52e760dcbc96a",
      "version": 1,
      "size": 135,
      "vsize": 135,
      "weight": 540,
      "locktime": 0,
      "vin": [
        {
          "coinbase": "04ffff001d02ed00",
          "sequence": 4294967295
        }
      ],
      "vout": [
        {
          "value": 50.0,
          "n": 0,
          "scriptPubKey": {
            "asm": "04327083161527baf5626445d5e795665b260adf7ecc38b000ffba904a9377de16e77e8d3988ef86ba7d2e3faedc3813eebb9821b045d0f3ef0e6d2eacc2867e2c OP_CHECKSIG",
            "desc": "pk(04327083161527baf5626445d5e795665b260adf7ecc38b000ffba904a9377de16e77e8d3988ef86ba7d2e3faedc3813eebb9821b045d0f3ef0e6d2eacc2867e2c)#s23u2ktw",
            "hex": "4104327083161527baf5626445d5e795665b260adf7ecc38b000ffba904a9377de16e77e8d3988ef86ba7d2e3faedc3813eebb9821b045d0f3ef0e6d2eacc2867e2cac",
            "type": "pubkey"
          }
        }
      ],
      "hex": "01000000010000000000000000000000000000000000000000000000000000000000000000ffffffff0804ffff001d02ed00ffffffff0100f2052a01000000434104327083161527baf5626445d5e795665b260adf7ecc38b000ffba904a9377de16e77e8d3988ef86ba7d2e3faedc3813eebb9821b045d0f3ef0e6d2eacc2867e2cac00000000"
    }
  ]
}