{
  "hash": "00000000e1b8efb1cf4cad378aebbe85af2b468cb3546b469b82864c99c15551",
  "confirmations": 47661,
  "height": 5437,
  "version": 1,
  "versionHex": "00000001",
  "merkleroot": "0afe8cf9c5125982e3191e9d4fbdfd9811c8dcd76fb09d05bda74a364c5efa91",
  "time": 1235470761,
  "mediantime": 1235465735,
  "nonce": 1887964425,
  "bits": "1d00ffff",
  "difficulty": 1,
  "chainwork": "0000000000000000000000000000000000000000000000000000153e153e153e",
  "nTx": 1,
  "previousblockhash": "00000000ba57ddf4d91a3bac9f723f8d51dbb0ce56a2270cb31ff2f4c0ad8491",
  "nextblockhash": "0000000071e1202e62f5d573f368c359d9bd5bde89e336b78e169ad738fb776b",
  "strippedsize": 216,
  "size": 216,
  "weight": 864,
  "tx": [
    {
      "txid": "0afe8cf9c5125982e3191e9d4fbdfd9811c8dcd76fb09d05bda74a364c5efa91",
      "hash": "0afe8cf9c5125982e3191e9d4fbdfd9811c8dcd76fb09d05bda74a364c5efa91",
      "version": 1,
      "size": 135,
      "vsize": 135,
      "weight": 540,
      "locktime": 0,
      "vin": [
        {
          "coinbase": "04ffff001d025404",
          "sequence": 4294967295
        }
      ],
      "vout": [
        {
          "value": 50.0,
          "n": 0,
          "scriptPubKey": {
            "asm": "0455fdcb84ff33d7b0e27dfa1f91755b954ec53c04a039c5d9fbd0072af28866c601207a21a89c7fece2749e497f799b7df812db161d04f842e64d050e1de845cf OP_CHECKSIG",
            "desc": "pk(0455fdcb84ff33d7b0e27dfa1f91755b954ec53c04a039c5d9fbd0072af28866c601207a21a89c7fece2749e497f799b7df812db161d04f842e64d050e1de845cf)#kwyr4vgz",
            "hex": "410455fdcb84ff33d7b0e27dfa1f91755b954ec53c04a039c5d9fbd0072af28866c601207a21a89c7fece2749e497f799b7df812db161d04f842e64d050e1de845cfac",
            "type": "pubkey"
          }
        }
      ],
      "hex": "01000000010000000000000000000000000000000000000000000000000000000000000000ffffffff0804ffff001d025404ffffffff0100f2052a0100000043410455fdcb84ff33d7b0e27dfa1f91755b954ec53c04a039c5d9fbd0072af28866c601207a21a89c7fece2749e497f799b7df812db161d04f842e64d050e1de845cfac00000000"
    }
  ]
}