{
  "hash": "000000003077f52fca44f7881567de49c2d816c25435a32bfc104c2158d709d9",
  "confirmations": 51648,
  "height": 1450,
  "version": 1,
  "versionHex": "00000001",
  "merkleroot": "f291aa487e6c4acc6f8177dab2dc208bd68999ecde0492a726472fa05646bde7",
  "time": 1232746600,
  "mediantime": 1232743852,
  "nonce": 261600790,
  "bits": "1d00ffff",
  "difficulty": 1,
  "chainwork": "000000000000000000000000000000000000000000000000000005ab05ab05ab",
  "nTx": 1,
  "previousblockhash": "000000000aa1de01ee09679ba0b9454a814d3439af3c9ef5ada73e54c6c3f6f8",
  "nextblockhash": "00000000c86e77bff65887d244809851ea3904abea3dad02857e782ffda469aa",
  "strippedsize": 216,
  "size": 216,
  "weight": 864,
  "tx": [
    {
      "txid": "f291aa487e6c4acc6f8177dab2dc208bd68999ecde0492a726472fa05646bde7",
      "hash": "f291aa487e6c4acc6f8177dab2dc208bd68999ecde0492a726472fa05646bde7",
      "version": 1,
      "size": 135,
      "vsize": 135,
      "weight": 540,
      "locktime": 0,
      "vin": [
        {
          "coinbase": "04ffff001d02a000",
          "sequence": 4294967295
        }
      ],
      "vout": [
        {
          "value": 50.0,
          "n": 0,
          "scriptPubKey": {
            "asm": "0492aea471c5d79d358f4a33a5edaed6c4c37042b92f16a691a9710554057e1bca731297354b18a9cdeec9538e52981760568d3545ba2efae6f2d2f7697f488366 OP_CHECKSIG",
            "desc": "pk(0492aea471c5d79d358f4a33a5edaed6c4c37042b92f16a691a9710554057e1bca731297354b18a9cdeec9538e52981760568d3545ba2efae6f2d2f7697f488366)#fvea5vey",
            "hex": "410492aea471c5d79d358f4a33a5edaed6c4c37042b92f16a691a9710554057e1bca731297354b18a9cdeec9538e52981760568d3545ba2efae6f2d2f7697f488366ac",
            "type": "pubkey"
          }
        }
      ],
      "hex": "01000000010000000000000000000000000000000000000000000000000000000000000000ffffffff0804ffff001d02a000ffffffff0100f2052a0100000043410492aea471c5d79d358f4a33a5edaed6c4c37042b92f16a691a9710554057e1bca731297354b18a9cdeec9538e52981760568d3545ba2efae6f2d2f7697f488366ac00000000"
    }
  ]
}