{
  "hash": "0000000047f69498e89dac1ceb3fc1b0cbfdfbd0e463aeec97ab8ddaf7103c87",
  "confirmations": 52330,
  "height": 505,
  "version": 1,
  "versionHex": "00000001",
  "merkleroot": "6ff777142752ff06562e95e172c521755756b7045c76b987ded82d8d8b4436b8",
  "time": 1231972858,
  "mediantime": 1231968449,
  "nonce": 2232631319,
  "bits": "1d00ffff",
  "difficulty": 1,
  "chainwork": "000000000000000000000000000000000000000000000000000001fa01fa01fa",
  "nTx": 1,
  "previousblockhash": "000000006c298ed28e13fc5f9583581f7497c299abdae9b78c098eeb8f13b1ee",
  "nextblockhash": "00000000a99525c043fd7e323414b60add43c254c44860094048f9c01e9a5fdd",
  "strippedsize": 216,
  "size": 216,
  "weight": 864,
  "tx": [
    {
      "txid": "6ff777142752ff06562e95e172c521755756b7045c76b987ded82d8d8b4436b8",
      "hash": "6ff777142752ff06562e95e172c521755756b7045c76b987ded82d8d8b4436b8",
      "version": 1,
      "size": 135,
      "vsize": 135,
      "weight": 540,
      "locktime": 0,
      "vin": [
        {
          "coinbase": "04ffff001d028f04",
          "sequence": 4294967295
        }
      ],
      "vout": [
        {
          "value": 50.0,
          "n": 0,
          "scriptPubKey": {
            "asm": "04c8c485bee8cc9ba5bd16a0e7552c44d8cc72dc006058e3948d9f0df438e6dff198f7e2b914ec591a1bc0c8b7c0cee16b8edee70ef46e1937656c24925c8260af OP_CHECKSIG",
            "desc": "pk(04c8c485bee8cc9ba5bd16a0e7552c44d8cc72dc006058e3948d9f0df438e6dff198f7e2b914ec591a1bc0c8b7c0cee16b8edee70ef46e1937656c24925c8260af)#9x8gpf7d",
            "hex": "4104c8c485bee8cc9ba5bd16a0e7552c44d8cc72dc006058e3948d9f0df438e6dff198f7e2b914ec591a1bc0c8b7c0cee16b8edee70ef46e1937656c24925c8260afac",
            "type": "pubkey"
          }
        }
      ],
      "hex": "01000000010000000000000000000000000000000000000000000000000000000000000000ffffffff0804ffff001d028f04ffffffff0100f2052a01000000434104c8c485bee8cc9ba5bd16a0e7552c44d8cc72dc006058e3948d9f0df438e6dff198f7e2b914ec591a1bc0c8b7c0cee16b8edee70ef46e1937656c24925c8260afac00000000"
    }
  ]
}