{
  "hash": "00000000853193b088e2e1fb3d6b74bc4d6ef3723401a769fe03603b193684b1",
  "confirmations": 46257,
  "height": 6841,
  "version": 1,
  "versionHex": "00000001",
  "merkleroot": "b1887b72af8ed9bbf92bc6fb1c003e9f742d0ed000199969d64eb20d2215963c",
  "time": 1236586529,
  "mediantime": 1236583151,
  "nonce": 2955933976,
  "bits": "1d00ffff",
  "difficulty": 1,
  "chainwork": "00000000000000000000000000000000000000000000000000001aba1aba1aba",
  "nTx": 1,
  "previousblockhash": "000000005ae7441a7d706bf6a79ef3c241c8076668fa36ef0506b9a81e583978",
  "nextblockhash": "00000000ca1733a80ecf7dfb7a526faefb5855ec69f98ff09115cf068bdf0a58",
  "strippedsize": 216,
  "size": 216,
  "weight": 864,
  "tx": [
    {
      "txid": "b1887b72af8ed9bbf92bc6fb1c003e9f742d0ed000199969d64eb20d2215963c",
      "hash": "b1887b72af8ed9bbf92bc6fb1c003e9f742d0ed000199969d64eb20d2215963c",
      "version": 1,
      "size": 135,
      "vsize": 135,
      "weight": 540,
      "locktime": 0,
      "vin": [
        {
          "coinbase": "04ffff001d028909",
          "sequence": 4294967295
        }
      ],
      "vout": [
        {
          "value": 50.0,
          "n": 0,
          "scriptPubKey": {
            "asm": "048646e4f7e1d67d7e830b78a4bfa45119178ac52018c7199805ee7d3a52e9feacf7f3fd529b7d275d38f117649643fef5f655e9e7f1a74bec60b3847040c69b9a OP_CHECKSIG",
            "desc": "pk(048646e4f7e1d67d7e830b78a4bfa45119178ac52018c7199805ee7d3a52e9feacf7f3fd529b7d275d38f117649643fef5f655e9e7f1a74bec60b3847040c69b9a)#svgq9f65",
            "hex": "41048646e4f7e1d67d7e830b78a4bfa45119178ac52018c7199805ee7d3a52e9feacf7f3fd529b7d275d38f117649643fef5f655e9e7f1a74bec60b3847040c69b9aac",
            "type": "pubkey"
          }
        }
      ],
      "hex": "01000000010000000000000000000000000000000000000000000000000000000000000000ffffffff0804ffff001d028909ffffffff0100f2052a010000004341048646e4f7e1d67d7e830b78a4bfa45119178ac52018c7199805ee7d3a52e9feacf7f3fd529b7d275d38f117649643fef5f655e9e7f1a74bec60b3847040c69b9aac00000000"
    }
  ]
}