{
  "hash": "000000004a3d1f5b51e09ec1bd91931eb8e170fd1f17269ee7fcb60a2f262721",
  "confirmations": 48359,
  "height": 4739,
  "version": 1,
  "versionHex": "00000001",
  "merkleroot": "0f93ffa9d15c6c9727bdc724ae74b0d8443c8227b671717e09ad667427dc8e40",
  "time": 1234955471,
  "mediantime": 1234951481,
  "nonce": 313263150,
  "bits": "1d00ffff",
  "difficulty": 1,
  "chainwork": "0000000000000000000000000000000000000000000000000000128412841284",
  "nTx": 1,
  "previousblockhash": "000000009e1dfa3f64dcd7f3b1e3230ce3b2668f8ecf0e814a6cd9b88dbe9ec0",
  "nextblockhash": "00000000a19e7f69c56862ad4468445afa1ef12c9b64d4228efa5b5c4700cbb5",
  "strippedsize": 216,
  "size": 216,
  "weight": 864,
  "tx": [
    {
      "txid": "0f93ffa9d15c6c9727bdc724ae74b0d8443c8227b671717e09ad667427dc8e40",
      "hash": "0f93ffa9d15c6c9727bdc724ae74b0d8443c8227b671717e09ad667427dc8e40",
      "version": 1,
      "size": 135,
      "vsize": 135,
      "weight": 540,
      "locktime": 0,
      "vin": [
        {
          "coinbase": "04ffff001d021703",
          "sequence": 4294967295
        }
      ],
      "vout": [
        {
          "value": 50.0,
          "n": 0,
          "scriptPubKey": {
            "asm": "04b3c93a805e6a33f3bfaf7511f27a8424f2efd18b20c6215091b0f811b487ac4f0b23b370ab852969e74d6cff36396b183507fc3f8b2262fec401cb4e664d9a82 OP_CHECKSIG",
            "desc": "pk(04b3c93a805e6a33f3bfaf7511f27a8424f2efd18b20c6215091b0f811b487ac4f0b23b370ab852969e74d6cff36396b183507fc3f8b2262fec401cb4e664d9a82)#aajacqjh",
            "hex": "4104b3c93a805e6a33f3bfaf7511f27a8424f2efd18b20c6215091b0f811b487ac4f0b23b370ab852969e74d6cff36396b183507fc3f8b2262fec401cb4e664d9a82ac",
            "type": "pubkey"
          }
        }
      ],
      "hex": "01000000010000000000000000000000000000000000000000000000000000000000000000ffffffff0804ffff001d021703ffffffff0100f2052a01000000434104b3c93a805e6a33f3bfaf7511f27a8424f2efd18b20c6215091b0f811b487ac4f0b23b370ab852969e74d6cff36396b183507fc3f8b2262fec401cb4e664d9a82ac00000000"
    }
  ]
}