{
  "hash": "0000000034896f11d935a066e923a205c2a1e823cfb74de2f7cb41b56306a370",
  "confirmations": 46571,
  "height": 6527,
  "version": 1,
  "versionHex": "00000001",
  "merkleroot": "91299e4940e66465ae09da447827740c2f31894ba21451179938c60cda662d5d",
  "time": 1236349029,
  "mediantime": 1236343980,
  "nonce": 13307639,
  "bits": "1d00ffff",
  "difficulty": 1,
  "chainwork": "0000000000000000000000000000000000000000000000000000198019801980",
  "nTx": 1,
  "previousblockhash": "0000000086bd153fce9a51a436f4d2aedbe44f909e2b7dc28e25859d64344a76",
  "nextblockhash": "00000000d57f67594ab43b983a67c59ac1fb3d877640594fb255e53b86ad0de3",
  "strippedsize": 216,
  "size": 216,
  "weight": 864,
  "tx": [
    {
      "txid": "91299e4940e66465ae09da447827740c2f31894ba21451179938c60cda662d5d",
      "hash": "91299e4940e66465ae09da447827740c2f31894ba21451179938c60cda662d5d",
      "version": 1,
      "size": 135,
      "vsize": 135,
      "weight": 540,
      "locktime": 0,
      "vin": [
        {
          "coinbase": "04ffff001d02490b",
          "sequence": 4294967295
        }
      ],
      "vout": [
        {
          "value": 50.0,
          "n": 0,
          "scriptPubKey": {
            "asm": "04dfe82bfba27298a46bef06cb7f4cb824730e3fea71e28f3266c876179b330dcec8fc1d34f72af9ea2988771c145c75d1e46e74d9502571b6f023bb775d3bd255 OP_CHECKSIG",
            "desc": "pk(04dfe82bfba27298a46bef06cb7f4cb824730e3fea71e28f3266c876179b330dcec8fc1d34f72af9ea2988771c145c75d1e46e74d9502571b6f023bb775d3bd255)#fuuyal5l",
            "hex": "4104dfe82bfba27298a46bef06cb7f4cb824730e3fea71e28f3266c876179b330dcec8fc1d34f72af9ea2988771c145c75d1e46e74d9502571b6f023bb775d3bd255ac",
            "type": "pubkey"
          }
        }
      ],
      "hex": "01000000010000000000000000000000000000000000000000000000000000000000000000ffffffff0804ffff001d02490bffffffff0100f2052a01000000434104dfe82bfba27298a46bef06cb7f4cb824730e3fea71e28f3266c876179b330dcec8fc1d34f72af9ea2988771c145c75d1e46e74d9502571b6f023bb775d3bd255ac00000000"
    }
  ]
}