{
  "hash": "000000004315e82e4e1f33dc994dfab627aa7ead7524504159b9e9fcc0551c9d",
  "confirmations": 45638,
  "height": 7460,
  "version": 1,
  "versionHex": "00000001",
  "merkleroot": "66f9471e8058f64aca6505936df81aa4e020895dd027962da01846b4d9b95634",
  "time": 1237070346,
  "mediantime": 1237066758,
  "nonce": 2905646123,
  "bits": "1d00ffff",
  "difficulty": 1,
  "chainwork": "00000000000000000000000000000000000000000000000000001d251d251d25",
  "nTx": 1,
  "previousblockhash": "000000003bab065abe88cba66391db2a818b1c7f4808164cc02e263ce8fd567d",
  "nextblockhash": "000000006a4b5773ec68596483a413534ea4426253f825c19bd94e9be49fc313",
  "strippedsize": 215,
  "size": 215,
  "weight": 860,
  "tx": [
    {
      "txid": "66f9471e8058f64aca6505936df81aa4e020895dd027962da01846b4d9b95634",
      "hash": "66f9471e8058f64aca6505936df81aa4e020895dd027962da01846b4d9b95634",
      "version": 1,
      "size": 134,
      "vsize": 134,
      "weight": 536,
      "locktime": 0,
      "vin": [
        {
          "coinbase": "04ffff001d0157",
          "sequence": 4294967295
        }
      ],
      "vout": [
        {
          "value": 50.0,
          "n": 0,
          "scriptPubKey": {
            "asm": "04f319dcd3a5111c3f946ca2cc573be36bfb407e2d1e10acb1cf42c766cc4bcb5b0e72db58ca5632efde7dab7d3b59d025c918a6cee6fbd624bbf60e9cc3b1f925 OP_CHECKSIG",
            "desc": "pk(04f319dcd3a5111c3f946ca2cc573be36bfb407e2d1e10acb1cf42c766cc4bcb5b0e72db58ca5632efde7dab7d3b59d025c918a6cee6fbd624bbf60e9cc3b1f925)#fkcd8egy",
            "hex": "4104f319dcd3a5111c3f946ca2cc573be36bfb407e2d1e10acb1cf42c766cc4bcb5b0e72db58ca5632efde7dab7d3b59d025c918a6cee6fbd624bbf60e9cc3b1f925ac",
            "type": "pubkey"
          }
        }
      ],
      "hex": "01000000010000000000000000000000000000000000000000000000000000000000000000ffffffff0704ffff001d0157ffffffff0100f2052a01000000434104f319dcd3a5111c3f946ca2cc573be36bfb407e2d1e10acb1cf42c766cc4bcb5b0e72db58ca5632efde7dab7d3b59d025c918a6cee6fbd624bbf60e9cc3b1f925ac00000000"
    }
  ]
}