{
  "hash": "00000000c89dcb7be2686b3e3e7b20244ae3c02cd18cc8e42bbdd247472802b4",
  "confirmations": 47489,
  "height": 5609,
  "version": 1,
  "versionHex": "00000001",
  "merkleroot": "95392c032c09f9ee569ec4e421a92a429903bfce7577daafbebcdf3931514415",
  "time": 1235611188,
  "mediantime": 1235607906,
  "nonce": 1479966752,
  "bits": "1d00ffff",
  "difficulty": 1,
  "chainwork": "000000000000000000000000000000000000000000000000000015ea15ea15ea",
  "nTx": 1,
  "previousblockhash": "000000005da0fba5f81f2f2d200b3ea101a12991a4510b41792b6000720ba715",
  "nextblockhash": "00000000af59b841c5484dc334be66c7f5c8de6714f2bede973444f189d08de0",
  "strippedsize": 216,
  "size": 216,
  "weight": 864,
  "tx": [
    {
      "txid": "95392c032c09f9ee569ec4e421a92a429903bfce7577daafbebcdf3931514415",
      "hash": "95392c032c09f9ee569ec4e421a92a429903bfce7577daafbebcdf3931514415",
      "version": 1,
      "size": 135,
      "vsize": 135,
      "weight": 540,
      "locktime": 0,
      "vin": [
        {
          "coinbase": "04ffff001d02c207",
          "sequence": 4294967295
        }
      ],
      "vout": [
        {
          "value": 50.0,
          "n": 0,
          "scriptPubKey": {
            "asm": "0424757497f3e88eddbe249682cd52452971378b10ffd571a802b7c0e1201cec7d592b76d3a287491cfcea5f71dd5292ec9b7b8030644b974ca0a02580ae0cadcb OP_CHECKSIG",
            "desc": "pk(0424757497f3e88eddbe249682cd52452971378b10ffd571a802b7c0e1201cec7d592b76d3a287491cfcea5f71dd5292ec9b7b8030644b974ca0a02580ae0cadcb)#zqyfntxe",
            "hex": "410424757497f3e88eddbe249682cd52452971378b10ffd571a802b7c0e1201cec7d592b76d3a287491cfcea5f71dd5292ec9b7b8030644b974ca0a02580ae0cadcbac",
            "type": "pubkey"
          }
        }
      ],
      "hex": "01000000010000000000000000000000000000000000000000000000000000000000000000ffffffff0804ffff001d02c207ffffffff0100f2052a0100000043410424757497f3e88eddbe249682cd52452971378b10ffd571a802b7c0e1201cec7d592b76d3a287491cfcea5f71dd5292ec9b7b8030644b974ca0a02580ae0cadcbac00000000"
    }
  ]
}