{
  "hash": "00000000da496f41eda284f0f77c700b26fa05414ac83c1dd6e8d506df3771d3",
  "confirmations": 46406,
  "height": 6692,
  "version": 1,
  "versionHex": "00000001",
  "merkleroot": "db11872b3f95c453f188841b7a3351384223a021a494988d64ad51c4abfa08ce",
  "time": 1236477911,
  "mediantime": 1236473337,
  "nonce": 99930704,
  "bits": "1d00ffff",
  "difficulty": 1,
  "chainwork": "00000000000000000000000000000000000000000000000000001a251a251a25",
  "nTx": 1,
  "previousblockhash": "00000000703fba258cf11ad0704c0156cabd2e962f6c0c8218996ba791388dff",
  "nextblockhash": "000000008bc90e56b5bee69295294ec719dd3fc4813aec427afdc1c954c2a1ad",
  "strippedsize": 215,
  "size": 215,
  "weight": 860,
  "tx": [
    {
      "txid": "db11872b3f95c453f188841b7a3351384223a021a494988d64ad51c4abfa08ce",
      "hash": "db11872b3f95c453f188841b7a3351384223a021a494988d64ad51c4abfa08ce",
      "version": 1,
      "size": 134,
      "vsize": 134,
      "weight": 536,
      "locktime": 0,
      "vin": [
        {
          "coinbase": "04ffff001d010f",
          "sequence": 4294967295
        }
      ],
      "vout": [
        {
          "value": 50.0,
          "n": 0,
          "scriptPubKey": {
            "asm": "040936500ba214c64da6cee9ae2c303d2917bbd68c84108e280c8c33d4540d5b25b5f95abc25bfe6acafeccca5f58efd27054a220f6e634129a2b5e230a1185928 OP_CHECKSIG",
            "desc": "pk(040936500ba214c64da6cee9ae2c303d2917bbd68c84108e280c8c33d4540d5b25b5f95abc25bfe6acafeccca5f58efd27054a220f6e634129a2b5e230a1185928)#5ffh6eqe",
            "hex": "41040936500ba214c64da6cee9ae2c303d2917bbd68c84108e280c8c33d4540d5b25b5f95abc25bfe6acafeccca5f58efd27054a220f6e634129a2b5e230a1185928ac",
            "type": "pubkey"
          }
        }
      ],
      "hex": "01000000010000000000000000000000000000000000000000000000000000000000000000ffffffff0704ffff001d010fffffffff0100f2052a010000004341040936500ba214c64da6cee9ae2c303d2917bbd68c84108e280c8c33d4540d5b25b5f95abc25bfe6acafeccca5f58efd27054a220f6e634129a2b5e230a1185928ac00000000"
    }
  ]
}