{
  "hash": "0000000078cf3d9ad734fdf5ae43a3141efdbd0e4accf516bbbe9f85f97d0ed1",
  "confirmations": 50981,
  "height": 2117,
  "version": 1,
  "versionHex": "00000001",
  "merkleroot": "1dcb3087804e1e229d7eaeb52aa7a5e45f63f4afbb7b2c33169638a0996aa569",
  "time": 1233149937,
  "mediantime": 1233146515,
  "nonce": 167671746,
  "bits": "1d00ffff",
  "difficulty": 1,
  "chainwork": "0000000000000000000000000000000000000000000000000000084608460846",
  "nTx": 1,
  "previousblockhash": "000000003bbcc9dfe24e9880fb4d462003191a40b1d313b962d9a458d0d6f84c",
  "nextblockhash": "000000008f42f665cab52fd5972974ab3c0d1b43b97ac20105295f0a224af886",
  "strippedsize": 215,
  "size": 215,
  "weight": 860,
  "tx": [
    {
      "txid": "1dcb3087804e1e229d7eaeb52aa7a5e45f63f4afbb7b2c33169638a0996aa569",
      "hash": "1dcb3087804e1e229d7eaeb52aa7a5e45f63f4afbb7b2c33169638a0996aa569",
      "version": 1,
      "size": 134,
      "vsize": 134,
      "weight": 536,
      "locktime": 0,
      "vin": [
        {
          "coinbase": "04ffff001d0156",
          "sequence": 4294967295
        }
      ],
      "vout": [
        {
          "value": 50.0,
          "n": 0,
          "scriptPubKey": {
            "asm": "046e0f4e18c13cc6f34f2a714ba6b6a1849ffca0d079b26ee5727618564414e003253b0e7ac2c7080cb49d7168b987191a4042c52a71cfa4472aa1ddd16d268a1a OP_CHECKSIG",
            "desc": "pk(046e0f4e18c13cc6f34f2a714ba6b6a1849ffca0d079b26ee5727618564414e003253b0e7ac2c7080cb49d7168b987191a4042c52a71cfa4472aa1ddd16d268a1a)#2nrre4jf",
            "hex": "41046e0f4e18c13cc6f34f2a714ba6b6a1849ffca0d079b26ee5727618564414e003253b0e7ac2c7080cb49d7168b987191a4042c52a71cfa4472aa1ddd16d268a1aac",
            "type": "pubkey"
          }
        }
      ],
      "hex": "01000000010000000000000000000000000000000000000000000000000000000000000000ffffffff0704ffff001d0156ffffffff0100f2052a010000004341046e0f4e18c13cc6f34f2a714ba6b6a1849ffca0d079b26ee5727618564414e003253b0e7ac2c7080cb49d7168b987191a4042c52a71cfa4472aa1ddd16d268a1aac00000000"
    }
  ]
}