{
  "hash": "0000000047cb2b6dfa319b6149aafd70bc4c2fd22dfac67c253ec92c95c0c607",
  "confirmations": 51974,
  "height": 1124,
  "version": 1,
  "versionHex": "00000001",
  "merkleroot": "dce4934ad20aa6d65a3f4a8c8177c65262910d09a6aad52c123aebbecf0b78fa",
  "time": 1232438477,
  "mediantime": 1232435075,
  "nonce": 1617173764,
  "bits": "1d00ffff",
  "difficulty": 1,
  "chainwork": "0000000000000000000000000000000000000000000000000000046504650465",
  "nTx": 1,
  "previousblockhash": "000000002bfd185d2ace367a5669eb9857ee0fdd108f50ba740db2477e75cbb8",
  "nextblockhash": "00000000ff07313367117bf73fbd45434bfecd85390c308b42e5cec8fbaa92b5",
  "strippedsize": 216,
  "size": 216,
  "weight": 864,
  "tx": [
    {
      "txid": "dce4934ad20aa6d65a3f4a8c8177c65262910d09a6aad52c123aebbecf0b78fa",
      "hash": "dce4934ad20aa6d65a3f4a8c8177c65262910d09a6aad52c123aebbecf0b78fa",
      "version": 1,
      "size": 135,
      "vsize": 135,
      "weight": 540,
      "locktime": 0,
      "vin": [
        {
          "coinbase": "04ffff001d025f07",
          "sequence": 4294967295
        }
      ],
      "vout": [
        {
          "value": 50.0,
          "n": 0,
          "scriptPubKey": {
            "asm": "0476221b7ed5ef791a809e9e03f896f95531cd938e88e3db78a6df4e33a43ce11710417d098b1be1de36703137c8b4c6c106c8a306f54fc172682989acd631cd69 OP_CHECKSIG",
            "desc": "pk(0476221b7ed5ef791a809e9e03f896f95531cd938e88e3db78a6df4e33a43ce11710417d098b1be1de36703137c8b4c6c106c8a306f54fc172682989acd631cd69)#qvjy9uzx",
            "hex": "410476221b7ed5ef791a809e9e03f896f95531cd938e88e3db78a6df4e33a43ce11710417d098b1be1de36703137c8b4c6c106c8a306f54fc172682989acd631cd69ac",
            "type": "pubkey"
          }
        }
      ],
      "hex": "01000000010000000000000000000000000000000000000000000000000000000000000000ffffffff0804ffff001d025f07ffffffff0100f2052a0100000043410476221b7ed5ef791a809e9e03f896f95531cd938e88e3db78a6df4e33a43ce11710417d098b1be1de36703137c8b4c6c106c8a306f54fc172682989acd631cd69ac00000000"
    }
  ]
}