{
  "hash": "00000000605b69a9f36fa21e749fc1750350c6d8adce709eb29f33dc130dc357",
  "confirmations": 43539,
  "height": 9559,
  "version": 1,
  "versionHex": "00000001",
  "merkleroot": "4aa02816212d91918ed4f8e1b7225c82e87d8aa1ac224c4f59eec9395a189c41",
  "time": 1238668674,
  "mediantime": 1238666136,
  "nonce": 52925930,
  "bits": "1d00ffff",
  "difficulty": 1,
  "chainwork": "0000000000000000000000000000000000000000000000000000255825582558",
  "nTx": 1,
  "previousblockhash": "0000000018a69aa4ade4a76477233795b29b210399822ed5122bf7df0a4a915d",
  "nextblockhash": "00000000bcc7bc36c3f52bf8dac1ec6c8e3be24321d23761f0b9d93a22cc30d0",
  "strippedsize": 216,
  "size": 216,
  "weight": 864,
  "tx": [
    {
      "txid": "4aa02816212d91918ed4f8e1b7225c82e87d8aa1ac224c4f59eec9395a189c41",
      "hash": "4aa02816212d91918ed4f8e1b7225c82e87d8aa1ac224c4f59eec9395a189c41",
      "version": 1,
      "size": 135,
      "vsize": 135,
      "weight": 540,
      "locktime": 0,
      "vin": [
        {
          "coinbase": "04ffff001d020f10",
          "sequence": 4294967295
        }
      ],
      "vout": [
        {
          "value": 50.0,
          "n": 0,
          "scriptPubKey": {
            "asm": "04c479502bfe74dc6b6dcb827b34ca8e4cc5e4f6f283e976ed968f4c0ba17f680e373883a445c20c5ede11e2c466b3c677de34a9ab18b14626e00b317080cf1b07 OP_CHECKSIG",
            "desc": "pk(04c479502bfe74dc6b6dcb827b34ca8e4cc5e4f6f283e976ed968f4c0ba17f680e373883a445c20c5ede11e2c466b3c677de34a9ab18b14626e00b317080cf1b07)#jqfu8erc",
            "hex": "4104c479502bfe74dc6b6dcb827b34ca8e4cc5e4f6f283e976ed968f4c0ba17f680e373883a445c20c5ede11e2c466b3c677de34a9ab18b14626e00b317080cf1b07ac",
            "type": "pubkey"
          }
        }
      ],
      "hex": "01000000010000000000000000000000000000000000000000000000000000000000000000ffffffff0804ffff001d020f10ffffffff0100f2052a01000000434104c479502bfe74dc6b6dcb827b34ca8e4cc5e4f6f283e976ed968f4c0ba17f680e373883a445c20c5ede11e2c466b3c677de34a9ab18b14626e00b317080cf1b07ac00000000"
    }
  ]
}