{
  "hash": "000000007fa3a39f556782005d5f041b9e6e0e8c1bfbbfc9be81437e5537ba17",
  "confirmations": 52044,
  "height": 132,
  "version": 1,
  "versionHex": "00000001",
  "merkleroot": "0f1bb85ed4cdf6bc13491b23afb924bb9ac556fb1db246d09252443a66a2a9e4",
  "time": 1231685008,
  "mediantime": 1231681965,
  "nonce": 2357454617,
  "bits": "1d00ffff",
  "difficulty": 1,
  "chainwork": "0000000000000000000000000000000000000000000000000000008500850085",
  "nTx": 1,
  "previousblockhash": "00000000c022945291aca0d76b730dccbb0161ac83fa86feaea192d5c70cce67",
  "nextblockhash": "00000000f07b7bf9f822bbf60da65ca37459597023c8f128642fec83c13ee9f8",
  "strippedsize": 215,
  "size": 215,
  "weight": 860,
  "tx": [
    {
      "txid": "0f1bb85ed4cdf6bc13491b23afb924bb9ac556fb1db246d09252443a66a2a9e4",
      "hash": "0f1bb85ed4cdf6bc13491b23afb924bb9ac556fb1db246d09252443a66a2a9e4",
      "version": 1,
      "size": 134,
      "vsize": 134,
      "weight": 536,
      "locktime": 0,
      "vin": [
        {
          "coinbase": "04ffff001d0120",
          "sequence": 4294967295
        }
      ],
      "vout": [
        {
          "value": 50.0,
          "n": 0,
          "scriptPubKey": {
            "asm": "047305f4965c82a34e51e02de3f85dd5bdd70a8436fb32eb3faf44254efad9229153df556ec2c9c6afe9743a39057323c728102ea7ef6c51fbf29d6d8d8156fd0d OP_CHECKSIG",
            "desc": "pk(047305f4965c82a34e51e02de3f85dd5bdd70a8436fb32eb3faf44254efad9229153df556ec2c9c6afe9743a39057323c728102ea7ef6c51fbf29d6d8d8156fd0d)#vleqc7p6",
            "hex": "41047305f4965c82a34e51e02de3f85dd5bdd70a8436fb32eb3faf44254efad9229153df556ec2c9c6afe9743a39057323c728102ea7ef6c51fbf29d6d8d8156fd0dac",
            "type": "pubkey"
          }
        }
      ],
      "hex": "01000000010000000000000000000000000000000000000000000000000000000000000000ffffffff0704ffff001d0120ffffffff0100f2052a010000004341047305f4965c82a34e51e02de3f85dd5bdd70a8436fb32eb3faf44254efad9229153df556ec2c9c6afe9743a39057323c728102ea7ef6c51fbf29d6d8d8156fd0dac00000000"
    }
  ]
}