{
  "hash": "0000000018edf41e62ab980d173d3072b77b699a7a1c0d511b6e84de228fa95f",
  "confirmations": 47792,
  "height": 5306,
  "version": 1,
  "versionHex": "00000001",
  "merkleroot": "61af6ddadaee10035ab63adac3ece6e6a328d4ba3a8648ebffedf79b8b4fe0e2",
  "time": 1235367588,
  "mediantime": 1235364233,
  "nonce": 17786540,
  "bits": "1d00ffff",
  "difficulty": 1,
  "chainwork": "000000000000000000000000000000000000000000000000000014bb14bb14bb",
  "nTx": 1,
  "previousblockhash": "00000000fa155e9f3f5de38c6a599f45c636431e2da0d69dd5b74d496d16ebfc",
  "nextblockhash": "000000009ecc5f466b465b4435fabda37468ca0ea5de8ddd922cd3f75b337e5b",
  "strippedsize": 216,
  "size": 216,
  "weight": 864,
  "tx": [
    {
      "txid": "61af6ddadaee10035ab63adac3ece6e6a328d4ba3a8648ebffedf79b8b4fe0e2",
      "hash": "61af6ddadaee10035ab63adac3ece6e6a328d4ba3a8648ebffedf79b8b4fe0e2",
      "version": 1,
      "size": 135,
      "vsize": 135,
      "weight": 540,
      "locktime": 0,
      "vin": [
        {
          "coinbase": "04ffff001d027d06",
          "sequence": 4294967295
        }
      ],
      "vout": [
        {
          "value": 50.0,
          "n": 0,
          "scriptPubKey": {
            "asm": "04ac9e36e07f584929f94032cf7ec54442f593549ef8c3e5e00309c519b9f51baca1cd7afd25ff1d9ddae9e57b5821e173a3cfada208c3b54c9b59c8871dae036f OP_CHECKSIG",
            "desc": "pk(04ac9e36e07f584929f94032cf7ec54442f593549ef8c3e5e00309c519b9f51baca1cd7afd25ff1d9ddae9e57b5821e173a3cfada208c3b54c9b59c8871dae036f)#nuf0tu8e",
            "hex": "4104ac9e36e07f584929f94032cf7ec54442f593549ef8c3e5e00309c519b9f51baca1cd7afd25ff1d9ddae9e57b5821e173a3cfada208c3b54c9b59c8871dae036fac",
            "type": "pubkey"
          }
        }
      ],
      "hex": "01000000010000000000000000000000000000000000000000000000000000000000000000ffffffff0804ffff001d027d06ffffffff0100f2052a01000000434104ac9e36e07f584929f94032cf7ec54442f593549ef8c3e5e00309c519b9f51baca1cd7afd25ff1d9ddae9e57b5821e173a3cfada208c3b54c9b59c8871dae036fac00000000"
    }
  ]
}