{
  "hash": "00000000047d04b3f745bdb8aae8f84313a611c3a68d0d23a6c2326fcc0dafd3",
  "confirmations": 51353,
  "height": 1745,
  "version": 1,
  "versionHex": "00000001",
  "merkleroot": "62d3303f7f30793e6a96e120394b0361d6ccf42371d820887aba8edee93a9d83",
  "time": 1232872523,
  "mediantime": 1232869567,
  "nonce": 2817374521,
  "bits": "1d00ffff",
  "difficulty": 1,
  "chainwork": "000000000000000000000000000000000000000000000000000006d206d206d2",
  "nTx": 1,
  "previousblockhash": "00000000fcb88e7c9e4300f89c53c2c1bf547335e2edc1d88b226717dd2c618e",
  "nextblockhash": "00000000446f4aca4f8a35100496a83d97502b35129ed1301cafe7943d2dfec1",
  "strippedsize": 216,
  "size": 216,
  "weight": 864,
  "tx": [
    {
      "txid": "62d3303f7f30793e6a96e120394b0361d6ccf42371d820887aba8edee93a9d83",
      "hash": "62d3303f7f30793e6a96e120394b0361d6ccf42371d820887aba8edee93a9d83",
      "version": 1,
      "size": 135,
      "vsize": 135,
      "weight": 540,
      "locktime": 0,
      "vin": [
        {
          "coinbase": "04ffff001d025e03",
          "sequence": 4294967295
        }
      ],
      "vout": [
        {
          "value": 50.0,
          "n": 0,
          "scriptPubKey": {
            "asm": "04a4124e4d33c1b0b2b0ba8561c8f7007403ba98e73acc23891e9821d2aff369eef0ee1517c1627fe87d2148fcb9311c238948687f834e39bb74756c3b2101b26e OP_CHECKSIG",
            "desc": "pk(04a4124e4d33c1b0b2b0ba8561c8f7007403ba98e73acc23891e9821d2aff369eef0ee1517c1627fe87d2148fcb9311c238948687f834e39bb74756c3b2101b26e)#w8n7t8rz",
            "hex": "4104a4124e4d33c1b0b2b0ba8561c8f7007403ba98e73acc23891e9821d2aff369eef0ee1517c1627fe87d2148fcb9311c238948687f834e39bb74756c3b2101b26eac",
            "type": "pubkey"
          }
        }
      ],
      "hex": "01000000010000000000000000000000000000000000000000000000000000000000000000ffffffff0804ffff001d025e03ffffffff0100f2052a01000000434104a4124e4d33c1b0b2b0ba8561c8f7007403ba98e73acc23891e9821d2aff369eef0ee1517c1627fe87d2148fcb9311c238948687f834e39bb74756c3b2101b26eac00000000"
    }
  ]
}