{
  "hash": "00000000915f7a477e3df905e1625c9e59ce63e6c26fa349f427b9cc314a4a76",
  "confirmations": 52442,
  "height": 656,
  "version": 1,
  "versionHex": "00000001",
  "merkleroot": "3b8ab8eab401025167574ef585c2135d6f54dde547d75307674aa854bbc8c668",
  "time": 1232072812,
  "mediantime": 1232070406,
  "nonce": 1058212639,
  "bits": "1d00ffff",
  "difficulty": 1,
  "chainwork": "0000000000000000000000000000000000000000000000000000029102910291",
  "nTx": 1,
  "previousblockhash": "00000000180b5bdbeb61d547a04adf658f7c9be695cd2c5d8fdf3e27e022d833",
  "nextblockhash": "00000000219c44b7a974528cfe22f831631ba20a4bd8e7a238918d1d2f13aec3",
  "strippedsize": 216,
  "size": 216,
  "weight": 864,
  "tx": [
    {
      "txid": "3b8ab8eab401025167574ef585c2135d6f54dde547d75307674aa854bbc8c668",
      "hash": "3b8ab8eab401025167574ef585c2135d6f54dde547d75307674aa854bbc8c668",
      "version": 1,
      "size": 135,
      "vsize": 135,
      "weight": 540,
      "locktime": 0,
      "vin": [
        {
          "coinbase": "04ffff001d02a607",
          "sequence": 4294967295
        }
      ],
      "vout": [
        {
          "value": 50.0,
          "n": 0,
          "scriptPubKey": {
            "asm": "04afd8a57994c2a01706189b8bb0bda3e69055d2d90645f4e1a38bfc41f44cac11f235f9366b5a11dca2298f84e862ac928268d20b4a50f44e7ae62f77cdb08b35 OP_CHECKSIG",
            "desc": "pk(04afd8a57994c2a01706189b8bb0bda3e69055d2d90645f4e1a38bfc41f44cac11f235f9366b5a11dca2298f84e862ac928268d20b4a50f44e7ae62f77cdb08b35)#54ryczua",
            "hex": "4104afd8a57994c2a01706189b8bb0bda3e69055d2d90645f4e1a38bfc41f44cac11f235f9366b5a11dca2298f84e862ac928268d20b4a50f44e7ae62f77cdb08b35ac",
            "type": "pubkey"
          }
        }
      ],
      "hex": "01000000010000000000000000000000000000000000000000000000000000000000000000ffffffff0804ffff001d02a607ffffffff0100f2052a01000000434104afd8a57994c2a01706189b8bb0bda3e69055d2d90645f4e1a38bfc41f44cac11f235f9366b5a11dca2298f84e862ac928268d20b4a50f44e7ae62f77cdb08b35ac00000000"
    }
  ]
}