{
  "hash": "000000009540ad91c4b76a3060b545daa853cc2182396fb23ecccc907e87d0b8",
  "confirmations": 43514,
  "height": 9584,
  "version": 1,
  "versionHex": "00000001",
  "merkleroot": "a584694a256db6fc5d14846c1681bd9afd53f8e7582e9e805fea248ac8677c2e",
  "time": 1238687811,
  "mediantime": 1238684730,
  "nonce": 3822689077,
  "bits": "1d00ffff",
  "difficulty": 1,
  "chainwork": "0000000000000000000000000000000000000000000000000000257125712571",
  "nTx": 1,
  "previousblockhash": "00000000769bdd49485a3885587411b2e2a0fef7efc38f9df7a9845e67724765",
  "nextblockhash": "000000008ff8524b146510571e54866c99c5d2fe815348089b7da10196fad5c8",
  "strippedsize": 216,
  "size": 216,
  "weight": 864,
  "tx": [
    {
      "txid": "a584694a256db6fc5d14846c1681bd9afd53f8e7582e9e805fea248ac8677c2e",
      "hash": "a584694a256db6fc5d14846c1681bd9afd53f8e7582e9e805fea248ac8677c2e",
      "version": 1,
      "size": 135,
      "vsize": 135,
      "weight": 540,
      "locktime": 0,
      "vin": [
        {
          "coinbase": "04ffff001d02c306",
          "sequence": 4294967295
        }
      ],
      "vout": [
        {
          "value": 50.0,
          "n": 0,
          "scriptPubKey": {
            "asm": "049a46c5c6699678c1930218a95b6cd84dbde8886995ace89e29f90f0881dfbe47d3aaa969caf36754e02b6ee01ad99b8ab6942bf9481045afb739f70bcff1e658 OP_CHECKSIG",
            "desc": "pk(049a46c5c6699678c1930218a95b6cd84dbde8886995ace89e29f90f0881dfbe47d3aaa969caf36754e02b6ee01ad99b8ab6942bf9481045afb739f70bcff1e658)#xattm2p0",
            "hex": "41049a46c5c6699678c1930218a95b6cd84dbde8886995ace89e29f90f0881dfbe47d3aaa969caf36754e02b6ee01ad99b8ab6942bf9481045afb739f70bcff1e658ac",
            "type": "pubkey"
          }
        }
      ],
      "hex": "01000000010000000000000000000000000000000000000000000000000000000000000000ffffffff0804ffff001d02c306ffffffff0100f2052a010000004341049a46c5c6699678c1930218a95b6cd84dbde8886995ace89e29f90f0881dfbe47d3aaa969caf36754e02b6ee01ad99b8ab6942bf9481045afb739f70bcff1e658ac00000000"
    }
  ]
}