{
  "hash": "00000000cf6630870383558dcf82aa7b9925c75cac1f1dd39496b55be7d485f9",
  "confirmations": 50400,
  "height": 2698,
  "version": 1,
  "versionHex": "00000001",
  "merkleroot": "4aba132096588499a7cd66deaf1006cb52b5498a59bd920bae4faea2a4582c61",
  "time": 1233559016,
  "mediantime": 1233556270,
  "nonce": 224263716,
  "bits": "1d00ffff",
  "difficulty": 1,
  "chainwork": "00000000000000000000000000000000000000000000000000000a8b0a8b0a8b",
  "nTx": 1,
  "previousblockhash": "00000000dc9d553f5c5b7d4999ac4893a3a4c04ad264c92a0d096ad6698feeec",
  "nextblockhash": "000000008da22f7f812db925f5ed6229d5815ae89a87d71ca612eecb8bedbe6a",
  "strippedsize": 216,
  "size": 216,
  "weight": 864,
  "tx": [
    {
      "txid": "4aba132096588499a7cd66deaf1006cb52b5498a59bd920bae4faea2a4582c61",
      "hash": "4aba132096588499a7cd66deaf1006cb52b5498a59bd920bae4faea2a4582c61",
      "version": 1,
      "size": 135,
      "vsize": 135,
      "weight": 540,
      "locktime": 0,
      "vin": [
        {
          "coinbase": "04ffff001d023301",
          "sequence": 4294967295
        }
      ],
      "vout": [
        {
          "value": 50.0,
          "n": 0,
          "scriptPubKey": {
            "asm": "044d31656c8c87082b48bf6fc19a191012ab57803ce730f02dbcd29ec61b51acc7f09b596593272db642641c5dc268923347a3e1797e610898aadc2288e279a86d OP_CHECKSIG",
            "desc": "pk(044d31656c8c87082b48bf6fc19a191012ab57803ce730f02dbcd29ec61b51acc7f09b596593272db642641c5dc268923347a3e1797e610898aadc2288e279a86d)#dv8pztz2",
            "hex": "41044d31656c8c87082b48bf6fc19a191012ab57803ce730f02dbcd29ec61b51acc7f09b596593272db642641c5dc268923347a3e1797e610898aadc2288e279a86dac",
            "type": "pubkey"
          }
        }
      ],
      "hex": "01000000010000000000000000000000000000000000000000000000000000000000000000ffffffff0804ffff001d023301ffffffff0100f2052a010000004341044d31656c8c87082b48bf6fc19a191012ab57803ce730f02dbcd29ec61b51acc7f09b596593272db642641c5dc268923347a3e1797e610898aadc2288e279a86dac00000000"
    }
  ]
}