{
  "hash": "000000002d60abe7d9e7f40e34b718559c81ea130b09e808d2badfec8df56fb1",
  "confirmations": 49929,
  "height": 3169,
  "version": 1,
  "versionHex": "00000001",
  "merkleroot": "f4e8cd1ebb7bda0d492e36900a78d6ee6c7292b176a7511a218d8a0df43c352e",
  "time": 1233879455,
  "mediantime": 1233875778,
  "nonce": 1529513475,
  "bits": "1d00ffff",
  "difficulty": 1,
  "chainwork": "00000000000000000000000000000000000000000000000000000c620c620c62",
  "nTx": 1,
  "previousblockhash": "00000000c0df5f7bc61dea5dd13436b3df13d3964f72d5ffa03a6c6a64dff757",
  "nextblockhash": "00000000a43c17070ebec363cdcd028e957ff98dfedfa7c1ab9023450b879afb",
  "strippedsize": 216,
  "size": 216,
  "weight": 864,
  "tx": [
    {
      "txid": "f4e8cd1ebb7bda0d492e36900a78d6ee6c7292b176a7511a218d8a0df43c352e",
      "hash": "f4e8cd1ebb7bda0d492e36900a78d6ee6c7292b176a7511a218d8a0df43c352e",
      "version": 1,
      "size": 135,
      "vsize": 135,
      "weight": 540,
      "locktime": 0,
      "vin": [
        {
          "coinbase": "04ffff001d023b02",
          "sequence": 4294967295
        }
      ],
      "vout": [
        {
          "value": 50.0,
          "n": 0,
          "scriptPubKey": {
            "asm": "049c293c6eb598409eddcdeba308bf4f29ce6584d1f4aa7e25dea6440e3a1c4f2c56ee10d767eeedfeb74894ccea56ce792db3d62658bdf2e46069a92234d40c8d OP_CHECKSIG",
            "desc": "pk(049c293c6eb598409eddcdeba308bf4f29ce6584d1f4aa7e25dea6440e3a1c4f2c56ee10d767eeedfeb74894ccea56ce792db3d62658bdf2e46069a92234d40c8d)#ltludrmx",
            "hex": "41049c293c6eb598409eddcdeba308bf4f29ce6584d1f4aa7e25dea6440e3a1c4f2c56ee10d767eeedfeb74894ccea56ce792db3d62658bdf2e46069a92234d40c8dac",
            "type": "pubkey"
          }
        }
      ],
      "hex": "01000000010000000000000000000000000000000000000000000000000000000000000000ffffffff0804ffff001d023b02ffffffff0100f2052a010000004341049c293c6eb598409eddcdeba308bf4f29ce6584d1f4aa7e25dea6440e3a1c4f2c56ee10d767eeedfeb74894ccea56ce792db3d62658bdf2e46069a92234d40c8dac00000000"
    }
  ]
}