{
  "hash": "00000000f194a1196643a1cd4cbdfe716cf7765b49b0df73f0c76da44fad6d34",
  "confirmations": 47456,
  "height": 5642,
  "version": 1,
  "versionHex": "00000001",
  "merkleroot": "8d0c452cc1a8f2ce1dfe9fc0ad0cc0b2fefe15e2fb2e296f4bb7bc9fe54c80c4",
  "time": 1235639413,
  "mediantime": 1235635619,
  "nonce": 1370969088,
  "bits": "1d00ffff",
  "difficulty": 1,
  "chainwork": "0000000000000000000000000000000000000000000000000000160b160b160b",
  "nTx": 1,
  "previousblockhash": "00000000d61b82fd6ed1423a19824a9b7dad03adbeff0feffe06eefab3149531",
  "nextblockhash": "00000000ff3f1f5e91e8c0e0d1e0aa9828e283b7a2a921b2165a655e43e95475",
  "strippedsize": 216,
  "size": 216,
  "weight": 864,
  "tx": [
    {
      "txid": "8d0c452cc1a8f2ce1dfe9fc0ad0cc0b2fefe15e2fb2e296f4bb7bc9fe54c80c4",
      "hash": "8d0c452cc1a8f2ce1dfe9fc0ad0cc0b2fefe15e2fb2e296f4bb7bc9fe54c80c4",
      "version": 1,
      "size": 135,
      "vsize": 135,
      "weight": 540,
      "locktime": 0,
      "vin": [
        {
          "coinbase": "04ffff001d027b08",
          "sequence": 4294967295
        }
      ],
      "vout": [
        {
          "value": 50.0,
          "n": 0,
          "scriptPubKey": {
            "asm": "04285e1f547fdf70564d3acdd826b204b70694a334a8945426ac195612ea4d707afd7d9170557c21d79bb278ded8bce6ec0606da9cd5c2ab78a2fb5bcf56986e4f OP_CHECKSIG",
            "desc": "pk(04285e1f547fdf70564d3acdd826b204b70694a334a8945426ac195612ea4d707afd7d9170557c21d79bb278ded8bce6ec0606da9cd5c2ab78a2fb5bcf56986e4f)#qt4vnf4z",
            "hex": "4104285e1f547fdf70564d3acdd826b204b70694a334a8945426ac195612ea4d707afd7d9170557c21d79bb278ded8bce6ec0606da9cd5c2ab78a2fb5bcf56986e4fac",
            "type": "pubkey"
          }
        }
      ],
      "hex": "01000000010000000000000000000000000000000000000000000000000000000000000000ffffffff0804ffff001d027b08ffffffff0100f2052a01000000434104285e1f547fdf70564d3acdd826b204b70694a334a8945426ac195612ea4d707afd7d9170557c21d79bb278ded8bce6ec0606da9cd5c2ab78a2fb5bcf56986e4fac00000000"
    }
  ]
}