{
  "hash": "0000000052a909b1042e914ce37ba3636aa89f6021ae3983a4b40a33cd0c063b",
  "confirmations": 48858,
  "height": 4240,
  "version": 1,
  "versionHex": "00000001",
  "merkleroot": "84af7aba5f61c42fbe2befe85dd9995a7e72734dca896f4d59307efd63ec45d6",
  "time": 1234605658,
  "mediantime": 1234601767,
  "nonce": 375438360,
  "bits": "1d00ffff",
  "difficulty": 1,
  "chainwork": "0000000000000000000000000000000000000000000000000000109110911091",
  "nTx": 1,
  "previousblockhash": "0000000040edb653ba83e20af57d3aca3591716eeaa7a78d18c2be1c0bfc9613",
  "nextblockhash": "000000000d65885bb4ea77a06373014686b01788031f32d156578c131f66c2c5",
  "strippedsize": 215,
  "size": 215,
  "weight": 860,
  "tx": [
    {
      "txid": "84af7aba5f61c42fbe2befe85dd9995a7e72734dca896f4d59307efd63ec45d6",
      "hash": "84af7aba5f61c42fbe2befe85dd9995a7e72734dca896f4d59307efd63ec45d6",
      "version": 1,
      "size": 134,
      "vsize": 134,
      "weight": 536,
      "locktime": 0,
      "vin": [
        {
          "coinbase": "04ffff001d013f",
          "sequence": 4294967295
        }
      ],
      "vout": [
        {
          "value": 50.0,
          "n": 0,
          "scriptPubKey": {
            "asm": "04d27536879e083b984b0ae691918046f8a99f3d89ed56c7827665be20a87bd622d5f695e8cf0337840f7aae0bdf73d7ef185c0d187884dbe496ea709aa9834813 OP_CHECKSIG",
            "desc": "pk(04d27536879e083b984b0ae691918046f8a99f3d89ed56c7827665be20a87bd622d5f695e8cf0337840f7aae0bdf73d7ef185c0d187884dbe496ea709aa9834813)#wwuyxcrk",
            "hex": "4104d27536879e083b984b0ae691918046f8a99f3d89ed56c7827665be20a87bd622d5f695e8cf0337840f7aae0bdf73d7ef185c0d187884dbe496ea709aa9834813ac",
            "type": "pubkey"
          }
        }
      ],
      "hex": "01000000010000000000000000000000000000000000000000000000000000000000000000ffffffff0704ffff001d013fffffffff0100f2052a01000000434104d27536879e083b984b0ae691918046f8a99f3d89ed56c7827665be20a87bd622d5f695e8cf0337840f7aae0bdf73d7ef185c0d187884dbe496ea709aa9834813ac00000000"
    }
  ]
}