{
  "hash": "0000000069ed32a4d4ad130aa267687f78b25236c5efd1d54abf65a7ee1fa0c0",
  "confirmations": 52129,
  "height": 969,
  "version": 1,
  "versionHex": "00000001",
  "merkleroot": "4711b7598217019b9bdbbb23689908e88a76886ba37ab2f1b41a0e7230440486",
  "time": 1232325821,
  "mediantime": 1232322800,
  "nonce": 2753952306,
  "bits": "1d00ffff",
  "difficulty": 1,
  "chainwork": "000000000000000000000000000000000000000000000000000003ca03ca03ca",
  "nTx": 1,
  "previousblockhash": "000000000adc53330a168c3e3ba9bea0090735fc7048846d7c858d3777d2b575",
  "nextblockhash": "00000000fd696b6e57923b8092ad44514cd32838469f365bee47dce3f3821570",
  "strippedsize": 216,
  "size": 216,
  "weight": 864,
  "tx": [
    {
      "txid": "4711b7598217019b9bdbbb23689908e88a76886ba37ab2f1b41a0e7230440486",
      "hash": "4711b7598217019b9bdbbb23689908e88a76886ba37ab2f1b41a0e7230440486",
      "version": 1,
      "size": 135,
      "vsize": 135,
      "weight": 540,
      "locktime": 0,
      "vin": [
        {
          "coinbase": "04ffff001d02aa04",
          "sequence": 4294967295
        }
      ],
      "vout": [
        {
          "value": 50.0,
          "n": 0,
          "scriptPubKey": {
            "asm": "0427343df688b2b1ee07456f2f74885297b350b54819b8b2a39fdde096f0e07fade98d0f44b50beac30b34087535c597d3bdd938e56ac4375a3b30e65751d63636 OP_CHECKSIG",
            "desc": "pk(0427343df688b2b1ee07456f2f74885297b350b54819b8b2a39fdde096f0e07fade98d0f44b50beac30b34087535c597d3bdd938e56ac4375a3b30e65751d63636)#0w40zrjz",
            "hex": "410427343df688b2b1ee07456f2f74885297b350b54819b8b2a39fdde096f0e07fade98d0f44b50beac30b34087535c597d3bdd938e56ac4375a3b30e65751d63636ac",
            "type": "pubkey"
          }
        }
      ],
      "hex": "01000000010000000000000000000000000000000000000000000000000000000000000000ffffffff0804ffff001d02aa04ffffffff0100f2052a0100000043410427343df688b2b1ee07456f2f74885297b350b54819b8b2a39fdde096f0e07fade98d0f44b50beac30b34087535c597d3bdd938e56ac4375a3b30e65751d63636ac00000000"
    }
  ]
}