{
  "hash": "00000000e36f00c47aa3be81cb91ccc7626ee00182d7f712661a0068ea5d8020",
  "confirmations": 46155,
  "height": 6943,
  "version": 1,
  "versionHex": "00000001",
  "merkleroot": "1ec546376353964d06f2fe5b4207d20254a75241cf030b0ebf8ebcb07445d7f5",
  "time": 1236673272,
  "mediantime": 1236668210,
  "nonce": 1833728810,
  "bits": "1d00ffff",
  "difficulty": 1,
  "chainwork": "00000000000000000000000000000000000000000000000000001b201b201b20",
  "nTx": 1,
  "previousblockhash": "0000000076e05f8e9cadbb5c6b914fc7949285b5161ecb8b419eef7b4a8f4fac",
  "nextblockhash": "0000000083321015e00bbcc43d3606d4313f83c02dc1a793676822d2cd223ff1",
  "strippedsize": 216,
  "size": 216,
  "weight": 864,
  "tx": [
    {
      "txid": "1ec546376353964d06f2fe5b4207d20254a75241cf030b0ebf8ebcb07445d7f5",
      "hash": "1ec546376353964d06f2fe5b4207d20254a75241cf030b0ebf8ebcb07445d7f5",
      "version": 1,
      "size": 135,
      "vsize": 135,
      "weight": 540,
      "locktime": 0,
      "vin": [
        {
          "coinbase": "04ffff001d023901",
          "sequence": 4294967295
        }
      ],
      "vout": [
        {
          "value": 50.0,
          "n": 0,
          "scriptPubKey": {
            "asm": "041b2596f3916fdd9d1057dec727be20cfb2ec58908fdb26c3870476360cf258c6b83307feb4ac656a74b9397dfc708a78840dd6779e4d6091434cf8a7b2a2c5e8 OP_CHECKSIG",
            "desc": "pk(041b2596f3916fdd9d1057dec727be20cfb2ec58908fdb26c3870476360cf258c6b83307feb4ac656a74b9397dfc708a78840dd6779e4d6091434cf8a7b2a2c5e8)#c679h6y0",
            "hex": "41041b2596f3916fdd9d1057dec727be20cfb2ec58908fdb26c3870476360cf258c6b83307feb4ac656a74b9397dfc708a78840dd6779e4d6091434cf8a7b2a2c5e8ac",
            "type": "pubkey"
          }
        }
      ],
      "hex": "01000000010000000000000000000000000000000000000000000000000000000000000000ffffffff0804ffff001d023901ffffffff0100f2052a010000004341041b2596f3916fdd9d1057dec727be20cfb2ec58908fdb26c3870476360cf258c6b83307feb4ac656a74b9397dfc708a78840dd6779e4d6091434cf8a7b2a2c5e8ac00000000"
    }
  ]
}