{
  "hash": "00000000b294887aee80614cd133f8045225cb861363b2c5efe70e2721758f51",
  "confirmations": 50588,
  "height": 2510,
  "version": 1,
  "versionHex": "00000001",
  "merkleroot": "520e82f9a0476b936b1423d8d9f8b80a9c4871332c7521eb05b495592e3f45f1",
  "time": 1233425571,
  "mediantime": 1233422605,
  "nonce": 162588201,
  "bits": "1d00ffff",
  "difficulty": 1,
  "chainwork": "000000000000000000000000000000000000000000000000000009cf09cf09cf",
  "nTx": 1,
  "previousblockhash": "000000008368414feae8318b8a1f71b6467a96f0d0ccd47b8df9142f1ad2da48",
  "nextblockhash": "000000001e07a73f81ff6000eb8c58158aebcb67bbeaf43ad580a518a579d7d7",
  "strippedsize": 216,
  "size": 216,
  "weight": 864,
  "tx": [
    {
      "txid": "520e82f9a0476b936b1423d8d9f8b80a9c4871332c7521eb05b495592e3f45f1",
      "hash": "520e82f9a0476b936b1423d8d9f8b80a9c4871332c7521eb05b495592e3f45f1",
      "version": 1,
      "size": 135,
      "vsize": 135,
      "weight": 540,
      "locktime": 0,
      "vin": [
        {
          "coinbase": "04ffff001d024101",
          "sequence": 4294967295
        }
      ],
      "vout": [
        {
          "value": 50.0,
          "n": 0,
          "scriptPubKey": {
            "asm": "04fc3f7cc6eab2740d56c8105163b6468c4997dfd1080bd9cbaa5cff33d280be3be528fa0a672e1ac0f35103e6999ecee940166f17cb18ed545d0b5b9c7cf6986c OP_CHECKSIG",
            "desc": "pk(04fc3f7cc6eab2740d56c8105163b6468c4997dfd1080bd9cbaa5cff33d280be3be528fa0a672e1ac0f35103e6999ecee940166f17cb18ed545d0b5b9c7cf6986c)#ffuc4688",
            "hex": "4104fc3f7cc6eab2740d56c8105163b6468c4997dfd1080bd9cbaa5cff33d280be3be528fa0a672e1ac0f35103e6999ecee940166f17cb18ed545d0b5b9c7cf6986cac",
            "type": "pubkey"
          }
        }
      ],
      "hex": "01000000010000000000000000000000000000000000000000000000000000000000000000ffffffff0804ffff001d024101ffffffff0100f2052a01000000434104fc3f7cc6eab2740d56c8105163b6468c4997dfd1080bd9cbaa5cff33d280be3be528fa0a672e1ac0f35103e6999ecee940166f17cb18ed545d0b5b9c7cf6986cac00000000"
    }
  ]
}