{
  "hash": "000000005de793b4cd1ef39e48a78c06f9a6f209864360412f72eeab3fedccb3",
  "confirmations": 47209,
  "height": 5889,
  "version": 1,
  "versionHex": "00000001",
  "merkleroot": "1eab88a2a37c19a99f1b382fc111241d6ed83c6dbc4a053706421b0a5172f1b9",
  "time": 1235834321,
  "mediantime": 1235831278,
  "nonce": 625575188,
  "bits": "1d00ffff",
  "difficulty": 1,
  "chainwork": "0000000000000000000000000000000000000000000000000000170217021702",
  "nTx": 1,
  "previousblockhash": "00000000d823258cc6f8a7c1df101bc326c50181b329e4e6b4327962e3d172dd",
  "nextblockhash": "0000000044f729c68ab2eff4e29ef228d676f93df405db00620703db33f2d48c",
  "strippedsize": 216,
  "size": 216,
  "weight": 864,
  "tx": [
    {
      "txid": "1eab88a2a37c19a99f1b382fc111241d6ed83c6dbc4a053706421b0a5172f1b9",
      "hash": "1eab88a2a37c19a99f1b382fc111241d6ed83c6dbc4a053706421b0a5172f1b9",
      "version": 1,
      "size": 135,
      "vsize": 135,
      "weight": 540,
      "locktime": 0,
      "vin": [
        {
          "coinbase": "04ffff001d02c502",
          "sequence": 4294967295
        }
      ],
      "vout": [
        {
          "value": 50.0,
          "n": 0,
          "scriptPubKey": {
            "asm": "04d1ffcc6f1094ee10f4bc77eaffba28d2714be7645345d7c9f491bf2d4199d21591ae2bec33b71d1a426827ba2333c6969a55f37c39fb05f075df04dca7ab87f6 OP_CHECKSIG",
            "desc": "pk(04d1ffcc6f1094ee10f4bc77eaffba28d2714be7645345d7c9f491bf2d4199d21591ae2bec33b71d1a426827ba2333c6969a55f37c39fb05f075df04dca7ab87f6)#8qup5y95",
            "hex": "4104d1ffcc6f1094ee10f4bc77eaffba28d2714be7645345d7c9f491bf2d4199d21591ae2bec33b71d1a426827ba2333c6969a55f37c39fb05f075df04dca7ab87f6ac",
            "type": "pubkey"
          }
        }
      ],
      "hex": "01000000010000000000000000000000000000000000000000000000000000000000000000ffffffff0804ffff001d02c502ffffffff0100f2052a01000000434104d1ffcc6f1094ee10f4bc77eaffba28d2714be7645345d7c9f491bf2d4199d21591ae2bec33b71d1a426827ba2333c6969a55f37c39fb05f075df04dca7ab87f6ac00000000"
    }
  ]
}