{
  "hash": "0000000098c5f4a787c8253dfd2e20b476360c8c63ab7a2aec65c99a4f0334e2",
  "confirmations": 44339,
  "height": 8759,
  "version": 1,
  "versionHex": "00000001",
  "merkleroot": "91c95bdfc7656da03eb31f79168c700eb290d947d344c96ec2cfbdf42e7eefd3",
  "time": 1238068902,
  "mediantime": 1238063567,
  "nonce": 2627171381,
  "bits": "1d00ffff",
  "difficulty": 1,
  "chainwork": "0000000000000000000000000000000000000000000000000000223822382238",
  "nTx": 1,
  "previousblockhash": "000000001e55fdab74acc0278ec428443553ac814df4bfeb6ea548195ece6b50",
  "nextblockhash": "00000000abbd74d8626c86838121367f2f358bf67d636e253d0ad4f5b1252fac",
  "strippedsize": 216,
  "size": 216,
  "weight": 864,
  "tx": [
    {
      "txid": "91c95bdfc7656da03eb31f79168c700eb290d947d344c96ec2cfbdf42e7eefd3",
      "hash": "91c95bdfc7656da03eb31f79168c700eb290d947d344c96ec2cfbdf42e7eefd3",
      "version": 1,
      "size": 135,
      "vsize": 135,
      "weight": 540,
      "locktime": 0,
      "vin": [
        {
          "coinbase": "04ffff001d02e601",
          "sequence": 4294967295
        }
      ],
      "vout": [
        {
          "value": 50.0,
          "n": 0,
          "scriptPubKey": {
            "asm": "04ed59d65ddfb231bcad1af8a0bff770b856eb6953ab92974f736f4b90d09a223017ccc6498d537a30801eb3fbf8b9e5dbc51246ea6dac1aca41019af4ca964f9c OP_CHECKSIG",
            "desc": "pk(04ed59d65ddfb231bcad1af8a0bff770b856eb6953ab92974f736f4b90d09a223017ccc6498d537a30801eb3fbf8b9e5dbc51246ea6dac1aca41019af4ca964f9c)#vdegxtxx",
            "hex": "4104ed59d65ddfb231bcad1af8a0bff770b856eb6953ab92974f736f4b90d09a223017ccc6498d537a30801eb3fbf8b9e5dbc51246ea6dac1aca41019af4ca964f9cac",
            "type": "pubkey"
          }
        }
      ],
      "hex": "01000000010000000000000000000000000000000000000000000000000000000000000000ffffffff0804ffff001d02e601ffffffff0100f2052a01000000434104ed59d65ddfb231bcad1af8a0bff770b856eb6953ab92974f736f4b90d09a223017ccc6498d537a30801eb3fbf8b9e5dbc51246ea6dac1aca41019af4ca964f9cac00000000"
    }
  ]
}