{
  "hash": "000000007fef246d58205bc404fa5f41ed714df5f760e689515481c8c90377f8",
  "confirmations": 48428,
  "height": 4670,
  "version": 1,
  "versionHex": "00000001",
  "merkleroot": "104c240dbc403a3926d7114998bb0661deb7820371e9a51d1f9fde14447d3986",
  "time": 1234905146,
  "mediantime": 1234901306,
  "nonce": 2798861080,
  "bits": "1d00ffff",
  "difficulty": 1,
  "chainwork": "0000000000000000000000000000000000000000000000000000123f123f123f",
  "nTx": 1,
  "previousblockhash": "00000000a7e3985208c1783e573844be26ad55c83a8233f1834376712618da2d",
  "nextblockhash": "00000000122d1243a84e3a343a3a29eea03ea4495a634a572ee46badbfdc7459",
  "strippedsize": 216,
  "size": 216,
  "weight": 864,
  "tx": [
    {
      "txid": "104c240dbc403a3926d7114998bb0661deb7820371e9a51d1f9fde14447d3986",
      "hash": "104c240dbc403a3926d7114998bb0661deb7820371e9a51d1f9fde14447d3986",
      "version": 1,
      "size": 135,
      "vsize": 135,
      "weight": 540,
      "locktime": 0,
      "vin": [
        {
          "coinbase": "04ffff001d022102",
          "sequence": 4294967295
        }
      ],
      "vout": [
        {
          "value": 50.0,
          "n": 0,
          "scriptPubKey": {
            "asm": "042732b8fbc61f1fa4c65457405ac5f1b835249f7544a05aef1e68d1dc4984d4ae6c38176fa504f7950d069dc27960da4c7e44ffe5170098a5495f473b1a057bf6 OP_CHECKSIG",
            "desc": "pk(042732b8fbc61f1fa4c65457405ac5f1b835249f7544a05aef1e68d1dc4984d4ae6c38176fa504f7950d069dc27960da4c7e44ffe5170098a5495f473b1a057bf6)#c7vfk3ny",
            "hex": "41042732b8fbc61f1fa4c65457405ac5f1b835249f7544a05aef1e68d1dc4984d4ae6c38176fa504f7950d069dc27960da4c7e44ffe5170098a5495f473b1a057bf6ac",
            "type": "pubkey"
          }
        }
      ],
      "hex": "01000000010000000000000000000000000000000000000000000000000000000000000000ffffffff0804ffff001d022102ffffffff0100f2052a010000004341042732b8fbc61f1fa4c65457405ac5f1b835249f7544a05aef1e68d1dc4984d4ae6c38176fa504f7950d069dc27960da4c7e44ffe5170098a5495f473b1a057bf6ac00000000"
    }
  ]
}