{
  "hash": "00000000ff3f1f5e91e8c0e0d1e0aa9828e283b7a2a921b2165a655e43e95475",
  "confirmations": 47455,
  "height": 5643,
  "version": 1,
  "versionHex": "00000001",
  "merkleroot": "6232a6a24ed72fea9d93708ea638c7562023c6cae1b707c3ad66b7e3f3087614",
  "time": 1235640637,
  "mediantime": 1235635669,
  "nonce": 655964211,
  "bits": "1d00ffff",
  "difficulty": 1,
  "chainwork": "0000000000000000000000000000000000000000000000000000160c160c160c",
  "nTx": 1,
  "previousblockhash": "00000000f194a1196643a1cd4cbdfe716cf7765b49b0df73f0c76da44fad6d34",
  "nextblockhash": "00000000100fecd6bf10d11e6a6639bb4ea23b80ffb8cb0ac6c5bd7a11eaa074",
  "strippedsize": 216,
  "size": 216,
  "weight": 864,
  "tx": [
    {
      "txid": "6232a6a24ed72fea9d93708ea638c7562023c6cae1b707c3ad66b7e3f3087614",
      "hash": "6232a6a24ed72fea9d93708ea638c7562023c6cae1b707c3ad66b7e3f3087614",
      "version": 1,
      "size": 135,
      "vsize": 135,
      "weight": 540,
      "locktime": 0,
      "vin": [
        {
          "coinbase": "04ffff001d027f08",
          "sequence": 4294967295
        }
      ],
      "vout": [
        {
          "value": 50.0,
          "n": 0,
          "scriptPubKey": {
            "asm": "04a079463f72a010cec69e8103f3a54e0bc78eec407fa0a8039d365d13525039fdee312e8d58371562324e19c76dfecb0a2a9fac1497bc398e46633d094ef04690 OP_CHECKSIG",
            "desc": "pk(04a079463f72a010cec69e8103f3a54e0bc78eec407fa0a8039d365d13525039fdee312e8d58371562324e19c76dfecb0a2a9fac1497bc398e46633d094ef04690)#ertpq2rq",
            "hex": "4104a079463f72a010cec69e8103f3a54e0bc78eec407fa0a8039d365d13525039fdee312e8d58371562324e19c76dfecb0a2a9fac1497bc398e46633d094ef04690ac",
            "type": "pubkey"
          }
        }
      ],
      "hex": "01000000010000000000000000000000000000000000000000000000000000000000000000ffffffff0804ffff001d027f08ffffffff0100f2052a01000000434104a079463f72a010cec69e8103f3a54e0bc78eec407fa0a8039d365d13525039fdee312e8d58371562324e19c76dfecb0a2a9fac1497bc398e46633d094ef04690ac00000000"
    }
  ]
}