{
  "hash": "000000008e81fd45f37bebf570ab987b2a386b76ace40d628ef3250b9b6d6db1",
  "confirmations": 51778,
  "height": 1320,
  "version": 1,
  "versionHex": "00000001",
  "merkleroot": "4e9840a1540d6939ad734309d67002ac3da760acd2b6113d409d1cbcea789348",
  "time": 1232612478,
  "mediantime": 1232608332,
  "nonce": 2992709415,
  "bits": "1d00ffff",
  "difficulty": 1,
  "chainwork": "0000000000000000000000000000000000000000000000000000052905290529",
  "nTx": 1,
  "previousblockhash": "0000000024c349961797255cd1ddece5f0e917eaecd111f750bd91340def1beb",
  "nextblockhash": "00000000b7bef491368d068bc76d029fed30961c8fd64f9f7c3ae9599ba98a77",
  "strippedsize": 216,
  "size": 216,
  "weight": 864,
  "tx": [
    {
      "txid": "4e9840a1540d6939ad734309d67002ac3da760acd2b6113d409d1cbcea789348",
      "hash": "4e9840a1540d6939ad734309d67002ac3da760acd2b6113d409d1cbcea789348",
      "version": 1,
      "size": 135,
      "vsize": 135,
      "weight": 540,
      "locktime": 0,
      "vin": [
        {
          "coinbase": "04ffff001d028200",
          "sequence": 4294967295
        }
      ],
      "vout": [
        {
          "value": 50.0,
          "n": 0,
          "scriptPubKey": {
            "asm": "04e37f0c713ddf05264060ade3601c679ac780371f8e99da426e47bfe7df683c6a04ff483ca02121b59202ffed8b4332e4635a6efbd85a79d2b2489e643925cc3a OP_CHECKSIG",
            "desc": "pk(04e37f0c713ddf05264060ade3601c679ac780371f8e99da426e47bfe7df683c6a04ff483ca02121b59202ffed8b4332e4635a6efbd85a79d2b2489e643925cc3a)#q57tnvy3",
            "hex": "4104e37f0c713ddf05264060ade3601c679ac780371f8e99da426e47bfe7df683c6a04ff483ca02121b59202ffed8b4332e4635a6efbd85a79d2b2489e643925cc3aac",
            "type": "pubkey"
          }
        }
      ],
      "hex": "01000000010000000000000000000000000000000000000000000000000000000000000000ffffffff0804ffff001d028200ffffffff0100f2052a01000000434104e37f0c713ddf05264060ade3601c679ac780371f8e99da426e47bfe7df683c6a04ff483ca02121b59202ffed8b4332e4635a6efbd85a79d2b2489e643925cc3aac00000000"
    }
  ]
}