{
  "hash": "0000000006ddcb44f13e5221ce8e85f6f4cd239c4de6af2d86d886319ff55c68",
  "confirmations": 46818,
  "height": 6280,
  "version": 1,
  "versionHex": "00000001",
  "merkleroot": "e3f5f1d72bc68f408e4d6e1704460b5e01f5c40ae1a88406b271a3e8e2b89c51",
  "time": 1236153823,
  "mediantime": 1236151607,
  "nonce": 439837703,
  "bits": "1d00ffff",
  "difficulty": 1,
  "chainwork": "0000000000000000000000000000000000000000000000000000188918891889",
  "nTx": 1,
  "previousblockhash": "00000000ecc53ceded013c7b0f7e0590b45d7a886bcdb98c53902af4ac888974",
  "nextblockhash": "00000000d7ca158757439629b22b2466bb217494d9136752dfbf8e7b9f2b8b68",
  "strippedsize": 216,
  "size": 216,
  "weight": 864,
  "tx": [
    {
      "txid": "e3f5f1d72bc68f408e4d6e1704460b5e01f5c40ae1a88406b271a3e8e2b89c51",
      "hash": "e3f5f1d72bc68f408e4d6e1704460b5e01f5c40ae1a88406b271a3e8e2b89c51",
      "version": 1,
      "size": 135,
      "vsize": 135,
      "weight": 540,
      "locktime": 0,
      "vin": [
        {
          "coinbase": "04ffff001d02fc09",
          "sequence": 4294967295
        }
      ],
      "vout": [
        {
          "value": 50.0,
          "n": 0,
          "scriptPubKey": {
            "asm": "044eb039e1a5f9af8959818a4f47ff0c96e6dea4cc33a9b47124abbac45b6938fa452fab5180673f401092cbb6ec9771b2930b625f37f9e2fc3c635f942ec536ef OP_CHECKSIG",
            "desc": "pk(044eb039e1a5f9af8959818a4f47ff0c96e6dea4cc33a9b47124abbac45b6938fa452fab5180673f401092cbb6ec9771b2930b625f37f9e2fc3c635f942ec536ef)#zltcgh2d",
            "hex": "41044eb039e1a5f9af8959818a4f47ff0c96e6dea4cc33a9b47124abbac45b6938fa452fab5180673f401092cbb6ec9771b2930b625f37f9e2fc3c635f942ec536efac",
            "type": "pubkey"
          }
        }
      ],
      "hex": "01000000010000000000000000000000000000000000000000000000000000000000000000ffffffff0804ffff001d02fc09ffffffff0100f2052a010000004341044eb039e1a5f9af8959818a4f47ff0c96e6dea4cc33a9b47124abbac45b6938fa452fab5180673f401092cbb6ec9771b2930b625f37f9e2fc3c635f942ec536efac00000000"
    }
  ]
}