{
  "hash": "000000005edb587278445979a00b11032f2aea8b6f427c79e44009768c2e390d",
  "confirmations": 50210,
  "height": 2888,
  "version": 1,
  "versionHex": "00000001",
  "merkleroot": "632e230849eeca4525005f9d9bbcb911771b97c2cba5cd4bfeaa058b78726812",
  "time": 1233683611,
  "mediantime": 1233680354,
  "nonce": 1267736327,
  "bits": "1d00ffff",
  "difficulty": 1,
  "chainwork": "00000000000000000000000000000000000000000000000000000b490b490b49",
  "nTx": 1,
  "previousblockhash": "000000002b4ba310cb0455518429e9daa14fde8ec991a55fcc131d53f7453d59",
  "nextblockhash": "00000000fb831f909a4b0abe527c5117ed7dfa290c4585bdd6ba498482a2e1c8",
  "strippedsize": 216,
  "size": 216,
  "weight": 864,
  "tx": [
    {
      "txid": "632e230849eeca4525005f9d9bbcb911771b97c2cba5cd4bfeaa058b78726812",
      "hash": "632e230849eeca4525005f9d9bbcb911771b97c2cba5cd4bfeaa058b78726812",
      "version": 1,
      "size": 135,
      "vsize": 135,
      "weight": 540,
      "locktime": 0,
      "vin": [
        {
          "coinbase": "04ffff001d024407",
          "sequence": 4294967295
        }
      ],
      "vout": [
        {
          "value": 50.0,
          "n": 0,
          "scriptPubKey": {
            "asm": "04387808f07f31ebfa6d71f7425ef880b0b0ebded30db99cba8247b42e855ee10a418375633f4b6818d5d1f4aa495ad9125e144515d04ea8c95ed3cb72cc882d37 OP_CHECKSIG",
            "desc": "pk(04387808f07f31ebfa6d71f7425ef880b0b0ebded30db99cba8247b42e855ee10a418375633f4b6818d5d1f4aa495ad9125e144515d04ea8c95ed3cb72cc882d37)#fxyqj2pw",
            "hex": "4104387808f07f31ebfa6d71f7425ef880b0b0ebded30db99cba8247b42e855ee10a418375633f4b6818d5d1f4aa495ad9125e144515d04ea8c95ed3cb72cc882d37ac",
            "type": "pubkey"
          }
        }
      ],
      "hex": "01000000010000000000000000000000000000000000000000000000000000000000000000ffffffff0804ffff001d024407ffffffff0100f2052a01000000434104387808f07f31ebfa6d71f7425ef880b0b0ebded30db99cba8247b42e855ee10a418375633f4b6818d5d1f4aa495ad9125e144515d04ea8c95ed3cb72cc882d37ac00000000"
    }
  ]
}