{
  "hash": "00000000802b24d48a01fdfdaffa16c08c269c8df40e34488b29b03b91dc41e6",
  "confirmations": 43886,
  "height": 9212,
  "version": 1,
  "versionHex": "00000001",
  "merkleroot": "797ba3b280d2c4255e8a12d368345f1463affd0d36693a36f58b96abe3ed1cc9",
  "time": 1238410355,
  "mediantime": 1238406974,
  "nonce": 68495341,
  "bits": "1d00ffff",
  "difficulty": 1,
  "chainwork": "000000000000000000000000000000000000000000000000000023fd23fd23fd",
  "nTx": 1,
  "previousblockhash": "00000000628f07b12159a10cd428ae5ce3e60ed57c36bf680184c451b62b7aab",
  "nextblockhash": "000000007c3fd386028ec46b58517d8a08a719a5874ba5d1ed45c875fe1a0b28",
  "strippedsize": 216,
  "size": 216,
  "weight": 864,
  "tx": [
    {
      "txid": "797ba3b280d2c4255e8a12d368345f1463affd0d36693a36f58b96abe3ed1cc9",
      "hash": "797ba3b280d2c4255e8a12d368345f1463affd0d36693a36f58b96abe3ed1cc9",
      "version": 1,
      "size": 135,
      "vsize": 135,
      "weight": 540,
      "locktime": 0,
      "vin": [
        {
          "coinbase": "04ffff001d026308",
          "sequence": 4294967295
        }
      ],
      "vout": [
        {
          "value": 50.0,
          "n": 0,
          "scriptPubKey": {
            "asm": "04aa3bac5a2b87596048580ca594c98d91d6e44da0214e8a4b3455fcaed0ea6a3fda2cf0aa6110a364424f4d952df3ef3b1359e7356e50182e4298a111059a742b OP_CHECKSIG",
            "desc": "pk(04aa3bac5a2b87596048580ca594c98d91d6e44da0214e8a4b3455fcaed0ea6a3fda2cf0aa6110a364424f4d952df3ef3b1359e7356e50182e4298a111059a742b)#fzl4s6t9",
            "hex": "4104aa3bac5a2b87596048580ca594c98d91d6e44da0214e8a4b3455fcaed0ea6a3fda2cf0aa6110a364424f4d952df3ef3b1359e7356e50182e4298a111059a742bac",
            "type": "pubkey"
          }
        }
      ],
      "hex": "01000000010000000000000000000000000000000000000000000000000000000000000000ffffffff0804ffff001d026308ffffffff0100f2052a01000000434104aa3bac5a2b87596048580ca594c98d91d6e44da0214e8a4b3455fcaed0ea6a3fda2cf0aa6110a364424f4d952df3ef3b1359e7356e50182e4298a111059a742bac00000000"
    }
  ]
}