{
  "hash": "0000000031d86ce67a67bd9ff6d37008cc765b24420eb3b3f1c79af904e4e154",
  "confirmations": 50823,
  "height": 2275,
  "version": 1,
  "versionHex": "00000001",
  "merkleroot": "4b4727aaeb84d40e1d7aae0d037b71571ce6ce938064e492741f51ee2ba9c111",
  "time": 1233262774,
  "mediantime": 1233259788,
  "nonce": 18224157,
  "bits": "1d00ffff",
  "difficulty": 1,
  "chainwork": "000000000000000000000000000000000000000000000000000008e408e408e4",
  "nTx": 1,
  "previousblockhash": "0000000063355349fe8807f7f006b1bbfe4f317ceea33d383c8b18a5ac5fb132",
  "nextblockhash": "0000000017ce60547cbc7106176fc3db42709d2cc2e669863a4409a4d67a58f7",
  "strippedsize": 215,
  "size": 215,
  "weight": 860,
  "tx": [
    {
      "txid": "4b4727aaeb84d40e1d7aae0d037b71571ce6ce938064e492741f51ee2ba9c111",
      "hash": "4b4727aaeb84d40e1d7aae0d037b71571ce6ce938064e492741f51ee2ba9c111",
      "version": 1,
      "size": 134,
      "vsize": 134,
      "weight": 536,
      "locktime": 0,
      "vin": [
        {
          "coinbase": "04ffff001d0133",
          "sequence": 4294967295
        }
      ],
      "vout": [
        {
          "value": 50.0,
          "n": 0,
          "scriptPubKey": {
            "asm": "0452f979247df369358f0ceb2e73cc8ad1a15d61132246e35c74f7be85140f6c7b9c76b9e39e76bde6a3225adc08e689a9c3e363ecdafe3cde1760b1ad60b370fb OP_CHECKSIG",
            "desc": "pk(0452f979247df369358f0ceb2e73cc8ad1a15d61132246e35c74f7be85140f6c7b9c76b9e39e76bde6a3225adc08e689a9c3e363ecdafe3cde1760b1ad60b370fb)#cg5ad4rj",
            "hex": "410452f979247df369358f0ceb2e73cc8ad1a15d61132246e35c74f7be85140f6c7b9c76b9e39e76bde6a3225adc08e689a9c3e363ecdafe3cde1760b1ad60b370fbac",
            "type": "pubkey"
          }
        }
      ],
      "hex": "01000000010000000000000000000000000000000000000000000000000000000000000000ffffffff0704ffff001d0133ffffffff0100f2052a0100000043410452f979247df369358f0ceb2e73cc8ad1a15d61132246e35c74f7be85140f6c7b9c76b9e39e76bde6a3225adc08e689a9c3e363ecdafe3cde1760b1ad60b370fbac00000000"
    }
  ]
}