{
  "hash": "000000003211516254a1aabe1ff27e5cfd48ce306207e0e7c8c097624735dc4a",
  "confirmations": 45048,
  "height": 8050,
  "version": 1,
  "versionHex": "00000001",
  "merkleroot": "f17a3fae4b5cc6da3866d4090ea6217311d2db64d09b7021b12d8b95c81fa281",
  "time": 1237498026,
  "mediantime": 1237492406,
  "nonce": 3348632110,
  "bits": "1d00ffff",
  "difficulty": 1,
  "chainwork": "00000000000000000000000000000000000000000000000000001f731f731f73",
  "nTx": 1,
  "previousblockhash": "00000000ef701c41ccbacb4ea1152f800014892874ed55e3fc43871044509ae6",
  "nextblockhash": "00000000b95a06d9c629e486f4e42bbaa4ee3c6f76181806c816c2bf99464b09",
  "strippedsize": 215,
  "size": 215,
  "weight": 860,
  "tx": [
    {
      "txid": "f17a3fae4b5cc6da3866d4090ea6217311d2db64d09b7021b12d8b95c81fa281",
      "hash": "f17a3fae4b5cc6da3866d4090ea6217311d2db64d09b7021b12d8b95c81fa281",
      "version": 1,
      "size": 134,
      "vsize": 134,
      "weight": 536,
      "locktime": 0,
      "vin": [
        {
          "coinbase": "04ffff001d011d",
          "sequence": 4294967295
        }
      ],
      "vout": [
        {
          "value": 50.0,
          "n": 0,
          "scriptPubKey": {
            "asm": "049be0cb89699cadc53806a8e86a9eb58cd3e6faf345fe867ad9c1e7c432c9810374dee651ae946a41c4298528dfacf4419558f21cfa6bf5fb2169b25faf7d133b OP_CHECKSIG",
            "desc": "pk(049be0cb89699cadc53806a8e86a9eb58cd3e6faf345fe867ad9c1e7c432c9810374dee651ae946a41c4298528dfacf4419558f21cfa6bf5fb2169b25faf7d133b)#6s3ukc57",
            "hex": "41049be0cb89699cadc53806a8e86a9eb58cd3e6faf345fe867ad9c1e7c432c9810374dee651ae946a41c4298528dfacf4419558f21cfa6bf5fb2169b25faf7d133bac",
            "type": "pubkey"
          }
        }
      ],
      "hex": "01000000010000000000000000000000000000000000000000000000000000000000000000ffffffff0704ffff001d011dffffffff0100f2052a010000004341049be0cb89699cadc53806a8e86a9eb58cd3e6faf345fe867ad9c1e7c432c9810374dee651ae946a41c4298528dfacf4419558f21cfa6bf5fb2169b25faf7d133bac00000000"
    }
  ]
}