{
  "hash": "0000000016245606f39a8b3ba658065afd77c3e722031d3da6913646e5e7e5f6",
  "confirmations": 52180,
  "height": 449,
  "version": 1,
  "versionHex": "00000001",
  "merkleroot": "8a2f01266ab585b8ff60e2c7a512cc5c4e6f171985ae7ff5d0c8e3280328b3a9",
  "time": 1231935119,
  "mediantime": 1231931549,
  "nonce": 4075898624,
  "bits": "1d00ffff",
  "difficulty": 1,
  "chainwork": "000000000000000000000000000000000000000000000000000001c201c201c2",
  "nTx": 1,
  "previousblockhash": "000000004ba46e857e930313ddca29e1b30336f3e3cf26c3584c91ca93ee2bac",
  "nextblockhash": "00000000e474895c09bcdaf9261845960b35ea54ed3ecaf60d8a392940f1f3f9",
  "strippedsize": 216,
  "size": 216,
  "weight": 864,
  "tx": [
    {
      "txid": "8a2f01266ab585b8ff60e2c7a512cc5c4e6f171985ae7ff5d0c8e3280328b3a9",
      "hash": "8a2f01266ab585b8ff60e2c7a512cc5c4e6f171985ae7ff5d0c8e3280328b3a9",
      "version": 1,
      "size": 135,
      "vsize": 135,
      "weight": 540,
      "locktime": 0,
      "vin": [
        {
          "coinbase": "04ffff001d029803",
          "sequence": 4294967295
        }
      ],
      "vout": [
        {
          "value": 50.0,
          "n": 0,
          "scriptPubKey": {
            "asm": "046744c9915ce9acc6cef518f1094682b92e2841633472177776a9fbb6f7ddf24107b123dd09d5428c6df54d6f5da124138cfc81a12b2158e418a53900abe24360 OP_CHECKSIG",
            "desc": "pk(046744c9915ce9acc6cef518f1094682b92e2841633472177776a9fbb6f7ddf24107b123dd09d5428c6df54d6f5da124138cfc81a12b2158e418a53900abe24360)#f72zj4dl",
            "hex": "41046744c9915ce9acc6cef518f1094682b92e2841633472177776a9fbb6f7ddf24107b123dd09d5428c6df54d6f5da124138cfc81a12b2158e418a53900abe24360ac",
            "type": "pubkey"
          }
        }
      ],
      "hex": "01000000010000000000000000000000000000000000000000000000000000000000000000ffffffff0804ffff001d029803ffffffff0100f2052a010000004341046744c9915ce9acc6cef518f1094682b92e2841633472177776a9fbb6f7ddf24107b123dd09d5428c6df54d6f5da124138cfc81a12b2158e418a53900abe24360ac00000000"
    }
  ]
}