{
  "hash": "00000000a0488d1f2df2833b8d0205ac5f626840b60531535bad9fbf6ad8f837",
  "confirmations": 46877,
  "height": 6221,
  "version": 1,
  "versionHex": "00000001",
  "merkleroot": "5f6cd6fc4c7c5222ce37048b29e8d75bf878888ac70d7295b4cbb8976eaff725",
  "time": 1236107632,
  "mediantime": 1236104014,
  "nonce": 599815707,
  "bits": "1d00ffff",
  "difficulty": 1,
  "chainwork": "0000000000000000000000000000000000000000000000000000184e184e184e",
  "nTx": 1,
  "previousblockhash": "00000000b6f7a2565b3dc0541f01c76803ad67c52d6249fe29d40ed22dd9a2de",
  "nextblockhash": "000000002426866050252405485d89a58df2f51faab9ec30c9c99b775e389378",
  "strippedsize": 216,
  "size": 216,
  "weight": 864,
  "tx": [
    {
      "txid": "5f6cd6fc4c7c5222ce37048b29e8d75bf878888ac70d7295b4cbb8976eaff725",
      "hash": "5f6cd6fc4c7c5222ce37048b29e8d75bf878888ac70d7295b4cbb8976eaff725",
      "version": 1,
      "size": 135,
      "vsize": 135,
      "weight": 540,
      "locktime": 0,
      "vin": [
        {
          "coinbase": "04ffff001d02d908",
          "sequence": 4294967295
        }
      ],
      "vout": [
        {
          "value": 50.0,
          "n": 0,
          "scriptPubKey": {
            "asm": "04fca4b35c65994bbe319379fc9ece232d513b431b884425a95b76140cf8822ba31bc9d317c80c7a0b853440ea31ae6cb0d3e9d77f83e753f640a8355dd0ab68d2 OP_CHECKSIG",
            "desc": "pk(04fca4b35c65994bbe319379fc9ece232d513b431b884425a95b76140cf8822ba31bc9d317c80c7a0b853440ea31ae6cb0d3e9d77f83e753f640a8355dd0ab68d2)#v9jtlnxc",
            "hex": "4104fca4b35c65994bbe319379fc9ece232d513b431b884425a95b76140cf8822ba31bc9d317c80c7a0b853440ea31ae6cb0d3e9d77f83e753f640a8355dd0ab68d2ac",
            "type": "pubkey"
          }
        }
      ],
      "hex": "01000000010000000000000000000000000000000000000000000000000000000000000000ffffffff0804ffff001d02d908ffffffff0100f2052a01000000434104fca4b35c65994bbe319379fc9ece232d513b431b884425a95b76140cf8822ba31bc9d317c80c7a0b853440ea31ae6cb0d3e9d77f83e753f640a8355dd0ab68d2ac00000000"
    }
  ]
}