{
  "hash": "0000000007c7bba9a86bdfe0f613b76a521e7af8960a348ec401fb6a0ce1a0f3",
  "confirmations": 47136,
  "height": 5962,
  "version": 1,
  "versionHex": "00000001",
  "merkleroot": "d828e678063a85480ac914262a0dbf5e984bc5680cd43fb2dadc3a909dc194de",
  "time": 1235898091,
  "mediantime": 1235893910,
  "nonce": 2926493721,
  "bits": "1d00ffff",
  "difficulty": 1,
  "chainwork": "0000000000000000000000000000000000000000000000000000174b174b174b",
  "nTx": 1,
  "previousblockhash": "00000000ddf0c079fb6232270d79ef3f85102d2ed74603412da7ca95a37bb2a5",
  "nextblockhash": "00000000907772f1d0fcbbedede3847b42264045c31e723ce050fb0a1d926a35",
  "strippedsize": 216,
  "size": 216,
  "weight": 864,
  "tx": [
    {
      "txid": "d828e678063a85480ac914262a0dbf5e984bc5680cd43fb2dadc3a909dc194de",
      "hash": "d828e678063a85480ac914262a0dbf5e984bc5680cd43fb2dadc3a909dc194de",
      "version": 1,
      "size": 135,
      "vsize": 135,
      "weight": 540,
      "locktime": 0,
      "vin": [
        {
          "coinbase": "04ffff001d023c04",
          "sequence": 4294967295
        }
      ],
      "vout": [
        {
          "value": 50.0,
          "n": 0,
          "scriptPubKey": {
            "asm": "0467f452f093bee5a19c92e4570564581ce53bedbf771e7c961d8a1f126b73a3f4aa21228984116bb04d74de7cb451b65f12b97af15ee4e7ab51f14ce8f5e4c374 OP_CHECKSIG",
            "desc": "pk(0467f452f093bee5a19c92e4570564581ce53bedbf771e7c961d8a1f126b73a3f4aa21228984116bb04d74de7cb451b65f12b97af15ee4e7ab51f14ce8f5e4c374)#d3hgangn",
            "hex": "410467f452f093bee5a19c92e4570564581ce53bedbf771e7c961d8a1f126b73a3f4aa21228984116bb04d74de7cb451b65f12b97af15ee4e7ab51f14ce8f5e4c374ac",
            "type": "pubkey"
          }
        }
      ],
      "hex": "01000000010000000000000000000000000000000000000000000000000000000000000000ffffffff0804ffff001d023c04ffffffff0100f2052a0100000043410467f452f093bee5a19c92e4570564581ce53bedbf771e7c961d8a1f126b73a3f4aa21228984116bb04d74de7cb451b65f12b97af15ee4e7ab51f14ce8f5e4c374ac00000000"
    }
  ]
}