{
  "hash": "00000000dae1bd72006c1f3f6c10763440906e7e7afbf1ffbd51ec020c3a10a8",
  "confirmations": 52223,
  "height": 395,
  "version": 1,
  "versionHex": "00000001",
  "merkleroot": "c3ab7fdf83633f9035aa56a72353519db20107f9ea9552b75dde973cad547f42",
  "time": 1231898331,
  "mediantime": 1231895654,
  "nonce": 1223743023,
  "bits": "1d00ffff",
  "difficulty": 1,
  "chainwork": "0000000000000000000000000000000000000000000000000000018c018c018c",
  "nTx": 1,
  "previousblockhash": "00000000dfd83646eca8487419578da5dc0e30b425df78a857106f01149e9bcc",
  "nextblockhash": "00000000b899b23a550aa2d3e06d63dcf9da622a287b0dd2a21d2d9e9fd9a976",
  "strippedsize": 216,
  "size": 216,
  "weight": 864,
  "tx": [
    {
      "txid": "c3ab7fdf83633f9035aa56a72353519db20107f9ea9552b75dde973cad547f42",
      "hash": "c3ab7fdf83633f9035aa56a72353519db20107f9ea9552b75dde973cad547f42",
      "version": 1,
      "size": 135,
      "vsize": 135,
      "weight": 540,
      "locktime": 0,
      "vin": [
        {
          "coinbase": "04ffff001d026202",
          "sequence": 4294967295
        }
      ],
      "vout": [
        {
          "value": 50.0,
          "n": 0,
          "scriptPubKey": {
            "asm": "0476b09223e35bea8f2564aadde947badc9f7bc6d4078e2059c6f062f54a779677f5924ed6c7e3053675a6a17b198396ab235f453fb41bfcc96dada4a179bb848c OP_CHECKSIG",
            "desc": "pk(0476b09223e35bea8f2564aadde947badc9f7bc6d4078e2059c6f062f54a779677f5924ed6c7e3053675a6a17b198396ab235f453fb41bfcc96dada4a179bb848c)#848cdkpj",
            "hex": "410476b09223e35bea8f2564aadde947badc9f7bc6d4078e2059c6f062f54a779677f5924ed6c7e3053675a6a17b198396ab235f453fb41bfcc96dada4a179bb848cac",
            "type": "pubkey"
          }
        }
      ],
      "hex": "01000000010000000000000000000000000000000000000000000000000000000000000000ffffffff0804ffff001d026202ffffffff0100f2052a0100000043410476b09223e35bea8f2564aadde947badc9f7bc6d4078e2059c6f062f54a779677f5924ed6c7e3053675a6a17b198396ab235f453fb41bfcc96dada4a179bb848cac00000000"
    }
  ]
}