{
  "hash": "00000000d3774a7e7996feb4710590057f04ead5e3f41d901961f8c0d7d91b60",
  "confirmations": 48326,
  "height": 4772,
  "version": 1,
  "versionHex": "00000001",
  "merkleroot": "7c56f7ac75622e3614b9d34514b46fa2224f685cf62844920b2e30f29ebf44d6",
  "time": 1234976877,
  "mediantime": 1234974038,
  "nonce": 2344252701,
  "bits": "1d00ffff",
  "difficulty": 1,
  "chainwork": "000000000000000000000000000000000000000000000000000012a512a512a5",
  "nTx": 1,
  "previousblockhash": "00000000c3749cf6a535bcb7f151f6293319555fa0d2f1f30d327bb9a15b1219",
  "nextblockhash": "00000000ce994756d3a4f36c998fe95f58bda4f196fbf90b7990079f103e7b76",
  "strippedsize": 216,
  "size": 216,
  "weight": 864,
  "tx": [
    {
      "txid": "7c56f7ac75622e3614b9d34514b46fa2224f685cf62844920b2e30f29ebf44d6",
      "hash": "7c56f7ac75622e3614b9d34514b46fa2224f685cf62844920b2e30f29ebf44d6",
      "version": 1,
      "size": 135,
      "vsize": 135,
      "weight": 540,
      "locktime": 0,
      "vin": [
        {
          "coinbase": "04ffff001d028b03",
          "sequence": 4294967295
        }
      ],
      "vout": [
        {
          "value": 50.0,
          "n": 0,
          "scriptPubKey": {
            "asm": "04468087f2dc4cf716d97098ec3d8cffd2ee9bf4156dbf9b7d551dd5da827382b2e518a038aff7596cec11e694ebd2c8c5f175a9073ab4b05cc3c14ccde95e2c71 OP_CHECKSIG",
            "desc": "pk(04468087f2dc4cf716d97098ec3d8cffd2ee9bf4156dbf9b7d551dd5da827382b2e518a038aff7596cec11e694ebd2c8c5f175a9073ab4b05cc3c14ccde95e2c71)#n8rfwvyu",
            "hex": "4104468087f2dc4cf716d97098ec3d8cffd2ee9bf4156dbf9b7d551dd5da827382b2e518a038aff7596cec11e694ebd2c8c5f175a9073ab4b05cc3c14ccde95e2c71ac",
            "type": "pubkey"
          }
        }
      ],
      "hex": "01000000010000000000000000000000000000000000000000000000000000000000000000ffffffff0804ffff001d028b03ffffffff0100f2052a01000000434104468087f2dc4cf716d97098ec3d8cffd2ee9bf4156dbf9b7d551dd5da827382b2e518a038aff7596cec11e694ebd2c8c5f175a9073ab4b05cc3c14ccde95e2c71ac00000000"
    }
  ]
}