{
  "hash": "000000002d4a48f6027b3fa3a00994dfb36be703ee13a743f13e80bdcfe78b15",
  "confirmations": 43808,
  "height": 9290,
  "version": 1,
  "versionHex": "00000001",
  "merkleroot": "ce1969856a04abccd5dcf8fb6f7e718ed23546564790ccc084dda36dce1f51a5",
  "time": 1238466937,
  "mediantime": 1238462407,
  "nonce": 890873633,
  "bits": "1d00ffff",
  "difficulty": 1,
  "chainwork": "0000000000000000000000000000000000000000000000000000244b244b244b",
  "nTx": 1,
  "previousblockhash": "00000000fb5e0e40c617769e563e85ac142332b6a236f1f4acc0cdc45a446c55",
  "nextblockhash": "0000000071bb4b4fe561191c7ab823d06b5186e00f89fa919ab938757b57a224",
  "strippedsize": 216,
  "size": 216,
  "weight": 864,
  "tx": [
    {
      "txid": "ce1969856a04abccd5dcf8fb6f7e718ed23546564790ccc084dda36dce1f51a5",
      "hash": "ce1969856a04abccd5dcf8fb6f7e718ed23546564790ccc084dda36dce1f51a5",
      "version": 1,
      "size": 135,
      "vsize": 135,
      "weight": 540,
      "locktime": 0,
      "vin": [
        {
          "coinbase": "04ffff001d029a01",
          "sequence": 4294967295
        }
      ],
      "vout": [
        {
          "value": 50.0,
          "n": 0,
          "scriptPubKey": {
            "asm": "045e3224dad699f8e50915440f6f54740bc35e16361d6fe482dffb451c1a4fd3f7f4f4db079ed848a351ae97938aefd01e621a6a637537793d08d62d668ce41385 OP_CHECKSIG",
            "desc": "pk(045e3224dad699f8e50915440f6f54740bc35e16361d6fe482dffb451c1a4fd3f7f4f4db079ed848a351ae97938aefd01e621a6a637537793d08d62d668ce41385)#u6yq2356",
            "hex": "41045e3224dad699f8e50915440f6f54740bc35e16361d6fe482dffb451c1a4fd3f7f4f4db079ed848a351ae97938aefd01e621a6a637537793d08d62d668ce41385ac",
            "type": "pubkey"
          }
        }
      ],
      "hex": "01000000010000000000000000000000000000000000000000000000000000000000000000ffffffff0804ffff001d029a01ffffffff0100f2052a010000004341045e3224dad699f8e50915440f6f54740bc35e16361d6fe482dffb451c1a4fd3f7f4f4db079ed848a351ae97938aefd01e621a6a637537793d08d62d668ce41385ac00000000"
    }
  ]
}