{
  "hash": "00000000262b0b63fcb7e829b82cfa1bfa8c6fff22539fd1590e9855f29e9ac5",
  "confirmations": 48127,
  "height": 4971,
  "version": 1,
  "versionHex": "00000001",
  "merkleroot": "1c64eebc0b7e04addf0cbaad4a9268ff4397b56554280c706543ce7478bdaada",
  "time": 1235119462,
  "mediantime": 1235116162,
  "nonce": 1390483738,
  "bits": "1d00ffff",
  "difficulty": 1,
  "chainwork": "0000000000000000000000000000000000000000000000000000136c136c136c",
  "nTx": 1,
  "previousblockhash": "00000000f0d78a6a132a64d889653e36e3467bd8c379ac720a21d379af53c8bd",
  "nextblockhash": "00000000336a20a1040ab496ceb92abe060720646631c1b3a9b76f917f0eb54c",
  "strippedsize": 216,
  "size": 216,
  "weight": 864,
  "tx": [
    {
      "txid": "1c64eebc0b7e04addf0cbaad4a9268ff4397b56554280c706543ce7478bdaada",
      "hash": "1c64eebc0b7e04addf0cbaad4a9268ff4397b56554280c706543ce7478bdaada",
      "version": 1,
      "size": 135,
      "vsize": 135,
      "weight": 540,
      "locktime": 0,
      "vin": [
        {
          "coinbase": "04ffff001d02a906",
          "sequence": 4294967295
        }
      ],
      "vout": [
        {
          "value": 50.0,
          "n": 0,
          "scriptPubKey": {
            "asm": "0411ca4e47ea932d4bf2262f6e32bccee863f89e6b00512ac719bfea16eb9d6043898659f1faa270bb0879c89a8e3cebffbc43974bd1f2ac567a60958e13a89569 OP_CHECKSIG",
            "desc": "pk(0411ca4e47ea932d4bf2262f6e32bccee863f89e6b00512ac719bfea16eb9d6043898659f1faa270bb0879c89a8e3cebffbc43974bd1f2ac567a60958e13a89569)#uz706vu8",
            "hex": "410411ca4e47ea932d4bf2262f6e32bccee863f89e6b00512ac719bfea16eb9d6043898659f1faa270bb0879c89a8e3cebffbc43974bd1f2ac567a60958e13a89569ac",
            "type": "pubkey"
          }
        }
      ],
      "hex": "01000000010000000000000000000000000000000000000000000000000000000000000000ffffffff0804ffff001d02a906ffffffff0100f2052a0100000043410411ca4e47ea932d4bf2262f6e32bccee863f89e6b00512ac719bfea16eb9d6043898659f1faa270bb0879c89a8e3cebffbc43974bd1f2ac567a60958e13a89569ac00000000"
    }
  ]
}