{
  "hash": "000000009c8947d18a2f8bf459d370150add628984b5274d729790f1950ab1dc",
  "confirmations": 51203,
  "height": 1895,
  "version": 1,
  "versionHex": "00000001",
  "merkleroot": "340f4e817d7d1bc1c137e9a9142ba4eaa953cdce45c9302e109b82d1a14163b7",
  "time": 1232942668,
  "mediantime": 1232940695,
  "nonce": 1680256028,
  "bits": "1d00ffff",
  "difficulty": 1,
  "chainwork": "0000000000000000000000000000000000000000000000000000076807680768",
  "nTx": 1,
  "previousblockhash": "0000000039f4e3c30b12723e6084ead7a25110ef172e54a3aa70d7c8904ecd9e",
  "nextblockhash": "000000006ee697af79c396760f2725a7f25ac2265bae2a6f622f81c89d47d083",
  "strippedsize": 216,
  "size": 216,
  "weight": 864,
  "tx": [
    {
      "txid": "340f4e817d7d1bc1c137e9a9142ba4eaa953cdce45c9302e109b82d1a14163b7",
      "hash": "340f4e817d7d1bc1c137e9a9142ba4eaa953cdce45c9302e109b82d1a14163b7",
      "version": 1,
      "size": 135,
      "vsize": 135,
      "weight": 540,
      "locktime": 0,
      "vin": [
        {
          "coinbase": "04ffff001d021805",
          "sequence": 4294967295
        }
      ],
      "vout": [
        {
          "value": 50.0,
          "n": 0,
          "scriptPubKey": {
            "asm": "04e5cacb188ddedf4d8ded26ab241dfdc2b98cab31e7e20886767bccf2b6975d4af1fedc28a937ee6535b392f76abee194d2e46c1e89d28d5a3ab1bac83e6557b1 OP_CHECKSIG",
            "desc": "pk(04e5cacb188ddedf4d8ded26ab241dfdc2b98cab31e7e20886767bccf2b6975d4af1fedc28a937ee6535b392f76abee194d2e46c1e89d28d5a3ab1bac83e6557b1)#4dduunx2",
            "hex": "4104e5cacb188ddedf4d8ded26ab241dfdc2b98cab31e7e20886767bccf2b6975d4af1fedc28a937ee6535b392f76abee194d2e46c1e89d28d5a3ab1bac83e6557b1ac",
            "type": "pubkey"
          }
        }
      ],
      "hex": "01000000010000000000000000000000000000000000000000000000000000000000000000ffffffff0804ffff001d021805ffffffff0100f2052a01000000434104e5cacb188ddedf4d8ded26ab241dfdc2b98cab31e7e20886767bccf2b6975d4af1fedc28a937ee6535b392f76abee194d2e46c1e89d28d5a3ab1bac83e6557b1ac00000000"
    }
  ]
}