{
  "hash": "0000000077991a4865e083ae4ae338c86ed3288e809fb9be17b1771c009afcd0",
  "confirmations": 44422,
  "height": 8676,
  "version": 1,
  "versionHex": "00000001",
  "merkleroot": "e8479ac24ad3538153f749dc01ccaf1131b91cee4711de3c656dc711cb4c5b7e",
  "time": 1238006918,
  "mediantime": 1238000393,
  "nonce": 91178274,
  "bits": "1d00ffff",
  "difficulty": 1,
  "chainwork": "000000000000000000000000000000000000000000000000000021e521e521e5",
  "nTx": 1,
  "previousblockhash": "00000000a5840431b42ef82d18c90046fafba4735a4f7957f59e8dd5fa3d4b85",
  "nextblockhash": "00000000ea52f615a50abfa78d16be3dad4e597872019e46596b410a70145c24",
  "strippedsize": 216,
  "size": 216,
  "weight": 864,
  "tx": [
    {
      "txid": "e8479ac24ad3538153f749dc01ccaf1131b91cee4711de3c656dc711cb4c5b7e",
      "hash": "e8479ac24ad3538153f749dc01ccaf1131b91cee4711de3c656dc711cb4c5b7e",
      "version": 1,
      "size": 135,
      "vsize": 135,
      "weight": 540,
      "locktime": 0,
      "vin": [
        {
          "coinbase": "04ffff001d029500",
          "sequence": 4294967295
        }
      ],
      "vout": [
        {
          "value": 50.0,
          "n": 0,
          "scriptPubKey": {
            "asm": "04ef1c99044fe199dbc588a4597b5d06bf881c0aed087f513df6123d36065833639658fae3ea82cc869dc3842a37e88b1818642bf1e8f3dc6581677e638ca07977 OP_CHECKSIG",
            "desc": "pk(04ef1c99044fe199dbc588a4597b5d06bf881c0aed087f513df6123d36065833639658fae3ea82cc869dc3842a37e88b1818642bf1e8f3dc6581677e638ca07977)#gavupqwe",
            "hex": "4104ef1c99044fe199dbc588a4597b5d06bf881c0aed087f513df6123d36065833639658fae3ea82cc869dc3842a37e88b1818642bf1e8f3dc6581677e638ca07977ac",
            "type": "pubkey"
          }
        }
      ],
      "hex": "01000000010000000000000000000000000000000000000000000000000000000000000000ffffffff0804ffff001d029500ffffffff0100f2052a01000000434104ef1c99044fe199dbc588a4597b5d06bf881c0aed087f513df6123d36065833639658fae3ea82cc869dc3842a37e88b1818642bf1e8f3dc6581677e638ca07977ac00000000"
    }
  ]
}