{
  "hash": "000000006cae5f88a202295f6435ba871e03290523110e4b4be443db054561cb",
  "confirmations": 52351,
  "height": 747,
  "version": 1,
  "versionHex": "00000001",
  "merkleroot": "eeb40b8863bf4af340083842cb8ddade36dde1dc9840406b52784aff923bc501",
  "time": 1232150041,
  "mediantime": 1232143308,
  "nonce": 354644766,
  "bits": "1d00ffff",
  "difficulty": 1,
  "chainwork": "000000000000000000000000000000000000000000000000000002ec02ec02ec",
  "nTx": 1,
  "previousblockhash": "00000000f74ffef987a1d77522559eaa3c20d7c5ab131fa51a7c79a4c5776a80",
  "nextblockhash": "00000000417a0fcdb5047f37ed922c536fa7c27b99fc2d455016a42e11b6e96c",
  "strippedsize": 216,
  "size": 216,
  "weight": 864,
  "tx": [
    {
      "txid": "eeb40b8863bf4af340083842cb8ddade36dde1dc9840406b52784aff923bc501",
      "hash": "eeb40b8863bf4af340083842cb8ddade36dde1dc9840406b52784aff923bc501",
      "version": 1,
      "size": 135,
      "vsize": 135,
      "weight": 540,
      "locktime": 0,
      "vin": [
        {
          "coinbase": "04ffff001d029e00",
          "sequence": 4294967295
        }
      ],
      "vout": [
        {
          "value": 50.0,
          "n": 0,
          "scriptPubKey": {
            "asm": "04d2037ea62461bbf60fe0e2721e7e3863c816a730ade2e2929f70bf9e0d0f805a653f3da957442d9106dab3f7208fc69d25293e356ef61e60ebc2180c9260c762 OP_CHECKSIG",
            "desc": "pk(04d2037ea62461bbf60fe0e2721e7e3863c816a730ade2e2929f70bf9e0d0f805a653f3da957442d9106dab3f7208fc69d25293e356ef61e60ebc2180c9260c762)#2sxyw9sj",
            "hex": "4104d2037ea62461bbf60fe0e2721e7e3863c816a730ade2e2929f70bf9e0d0f805a653f3da957442d9106dab3f7208fc69d25293e356ef61e60ebc2180c9260c762ac",
            "type": "pubkey"
          }
        }
      ],
      "hex": "01000000010000000000000000000000000000000000000000000000000000000000000000ffffffff0804ffff001d029e00ffffffff0100f2052a01000000434104d2037ea62461bbf60fe0e2721e7e3863c816a730ade2e2929f70bf9e0d0f805a653f3da957442d9106dab3f7208fc69d25293e356ef61e60ebc2180c9260c762ac00000000"
    }
  ]
}