{
  "hash": "000000000941e2ff1d64d48fe0d72964d2ea14d33fca450070c7217975c5da46",
  "confirmations": 47410,
  "height": 5688,
  "version": 1,
  "versionHex": "00000001",
  "merkleroot": "f8985182b32287700cb3c7143f453f9d25966054c61ba965a113c50d98877f1c",
  "time": 1235678910,
  "mediantime": 1235675337,
  "nonce": 3947930658,
  "bits": "1d00ffff",
  "difficulty": 1,
  "chainwork": "0000000000000000000000000000000000000000000000000000163916391639",
  "nTx": 1,
  "previousblockhash": "00000000767e2a9150cde98fd41225d82dbcef705ff5ffbe5627bae30404b870",
  "nextblockhash": "00000000e97b7fc46af3fd4592fe0fa9a9c0094da8b9a8fc7ef4810c6a23c304",
  "strippedsize": 216,
  "size": 216,
  "weight": 864,
  "tx": [
    {
      "txid": "f8985182b32287700cb3c7143f453f9d25966054c61ba965a113c50d98877f1c",
      "hash": "f8985182b32287700cb3c7143f453f9d25966054c61ba965a113c50d98877f1c",
      "version": 1,
      "size": 135,
      "vsize": 135,
      "weight": 540,
      "locktime": 0,
      "vin": [
        {
          "coinbase": "04ffff001d023409",
          "sequence": 4294967295
        }
      ],
      "vout": [
        {
          "value": 50.0,
          "n": 0,
          "scriptPubKey": {
            "asm": "047350f0c7c8182d9bf85cce1705e57b829fe4580fa13d68fc6abbdf70f14f5e7f2d555ea731e75aff6ed5973dfcf057739bd46aa9f86f9025fda16c643d419b29 OP_CHECKSIG",
            "desc": "pk(047350f0c7c8182d9bf85cce1705e57b829fe4580fa13d68fc6abbdf70f14f5e7f2d555ea731e75aff6ed5973dfcf057739bd46aa9f86f9025fda16c643d419b29)#44dqys37",
            "hex": "41047350f0c7c8182d9bf85cce1705e57b829fe4580fa13d68fc6abbdf70f14f5e7f2d555ea731e75aff6ed5973dfcf057739bd46aa9f86f9025fda16c643d419b29ac",
            "type": "pubkey"
          }
        }
      ],
      "hex": "01000000010000000000000000000000000000000000000000000000000000000000000000ffffffff0804ffff001d023409ffffffff0100f2052a010000004341047350f0c7c8182d9bf85cce1705e57b829fe4580fa13d68fc6abbdf70f14f5e7f2d555ea731e75aff6ed5973dfcf057739bd46aa9f86f9025fda16c643d419b29ac00000000"
    }
  ]
}