{
  "hash": "00000000d80530efa37319e4b4508b0759fdab8ea8a81272cbe8986881489507",
  "confirmations": 52040,
  "height": 297,
  "version": 1,
  "versionHex": "00000001",
  "merkleroot": "049fa60fe6206f36ceef739b5c1ef92b330a2c5a32da9e6e0f338133170662cc",
  "time": 1231829772,
  "mediantime": 1231826633,
  "nonce": 1607530807,
  "bits": "1d00ffff",
  "difficulty": 1,
  "chainwork": "0000000000000000000000000000000000000000000000000000012a012a012a",
  "nTx": 1,
  "previousblockhash": "000000006c6d02760d64950b1ef3565fc9195fd758c4f9b3cf1037c055c95dcc",
  "nextblockhash": "00000000db29ac0d2a702411bd9ed3972ed81fedc25a9a84635b09949f077ca9",
  "strippedsize": 215,
  "size": 215,
  "weight": 860,
  "tx": [
    {
      "txid": "049fa60fe6206f36ceef739b5c1ef92b330a2c5a32da9e6e0f338133170662cc",
      "hash": "049fa60fe6206f36ceef739b5c1ef92b330a2c5a32da9e6e0f338133170662cc",
      "version": 1,
      "size": 134,
      "vsize": 134,
      "weight": 536,
      "locktime": 0,
      "vin": [
        {
          "coinbase": "04ffff001d015e",
          "sequence": 4294967295
        }
      ],
      "vout": [
        {
          "value": 50.0,
          "n": 0,
          "scriptPubKey": {
            "asm": "04730438d4e0c729dc2d2558de12d2a815798ab9af63c77af569bbd5b05bcfb8652f8f75b539e53e9da9397ff7d2054053de093e9105723e63be782255773e1f5f OP_CHECKSIG",
            "desc": "pk(04730438d4e0c729dc2d2558de12d2a815798ab9af63c77af569bbd5b05bcfb8652f8f75b539e53e9da9397ff7d2054053de093e9105723e63be782255773e1f5f)#j2t62xm0",
            "hex": "4104730438d4e0c729dc2d2558de12d2a815798ab9af63c77af569bbd5b05bcfb8652f8f75b539e53e9da9397ff7d2054053de093e9105723e63be782255773e1f5fac",
            "type": "pubkey"
          }
        }
      ],
      "hex": "01000000010000000000000000000000000000000000000000000000000000000000000000ffffffff0704ffff001d015effffffff0100f2052a01000000434104730438d4e0c729dc2d2558de12d2a815798ab9af63c77af569bbd5b05bcfb8652f8f75b539e53e9da9397ff7d2054053de093e9105723e63be782255773e1f5fac00000000"
    }
  ]
}