{
  "hash": "000000004c68f200220143c5e69150d6f94f5e64e8b37d5087d672eaa18bf44f",
  "confirmations": 45726,
  "height": 7372,
  "version": 1,
  "versionHex": "00000001",
  "merkleroot": "dd7ae2313a817bc39fd574fd3f5aa6d51bc10fc17a5409289a3ae6145ce33ddb",
  "time": 1236999172,
  "mediantime": 1236996224,
  "nonce": 3971048748,
  "bits": "1d00ffff",
  "difficulty": 1,
  "chainwork": "00000000000000000000000000000000000000000000000000001ccd1ccd1ccd",
  "nTx": 1,
  "previousblockhash": "000000005eb9eb90598b4c8a7813e0d08ca7ebd6c7bb0c2131cebfa73d0461d5",
  "nextblockhash": "000000006af17237f0814f3270b5aec62fb0960e1f8a556f7506be9eb808f5d8",
  "strippedsize": 216,
  "size": 216,
  "weight": 864,
  "tx": [
    {
      "txid": "dd7ae2313a817bc39fd574fd3f5aa6d51bc10fc17a5409289a3ae6145ce33ddb",
      "hash": "dd7ae2313a817bc39fd574fd3f5aa6d51bc10fc17a5409289a3ae6145ce33ddb",
      "version": 1,
      "size": 135,
      "vsize": 135,
      "weight": 540,
      "locktime": 0,
      "vin": [
        {
          "coinbase": "04ffff001d02dc08",
          "sequence": 4294967295
        }
      ],
      "vout": [
        {
          "value": 50.0,
          "n": 0,
          "scriptPubKey": {
            "asm": "04c3f56b103fde7331cb29b6d9b686ed1f78d6b57aadf040102c985dcc4ffe04468fed7efc812282239b0a435b1ed8c112385ebd32c7601ff3f93d86b5bd600ba4 OP_CHECKSIG",
            "desc": "pk(04c3f56b103fde7331cb29b6d9b686ed1f78d6b57aadf040102c985dcc4ffe04468fed7efc812282239b0a435b1ed8c112385ebd32c7601ff3f93d86b5bd600ba4)#z93mk8d0",
            "hex": "4104c3f56b103fde7331cb29b6d9b686ed1f78d6b57aadf040102c985dcc4ffe04468fed7efc812282239b0a435b1ed8c112385ebd32c7601ff3f93d86b5bd600ba4ac",
            "type": "pubkey"
          }
        }
      ],
      "hex": "01000000010000000000000000000000000000000000000000000000000000000000000000ffffffff0804ffff001d02dc08ffffffff0100f2052a01000000434104c3f56b103fde7331cb29b6d9b686ed1f78d6b57aadf040102c985dcc4ffe04468fed7efc812282239b0a435b1ed8c112385ebd32c7601ff3f93d86b5bd600ba4ac00000000"
    }
  ]
}