{
  "hash": "000000000ae0aac8fe8437bbd91490a24069c40bd314131ae2ad3060815a292d",
  "confirmations": 47992,
  "height": 5106,
  "version": 1,
  "versionHex": "00000001",
  "merkleroot": "3b8c0713673e7354b5e6fdfb9ed813eb5376fdfc9c8f91acd99389b6365dabf0",
  "time": 1235221798,
  "mediantime": 1235217470,
  "nonce": 3949552406,
  "bits": "1d00ffff",
  "difficulty": 1,
  "chainwork": "000000000000000000000000000000000000000000000000000013f313f313f3",
  "nTx": 1,
  "previousblockhash": "00000000707de97ce881e7294db414527cbaec901deb006b471714398a515e51",
  "nextblockhash": "000000001ebbbbb7ca120ab3d6a3f11f6a00d9dd8423cb183b8a218807970626",
  "strippedsize": 216,
  "size": 216,
  "weight": 864,
  "tx": [
    {
      "txid": "3b8c0713673e7354b5e6fdfb9ed813eb5376fdfc9c8f91acd99389b6365dabf0",
      "hash": "3b8c0713673e7354b5e6fdfb9ed813eb5376fdfc9c8f91acd99389b6365dabf0",
      "version": 1,
      "size": 135,
      "vsize": 135,
      "weight": 540,
      "locktime": 0,
      "vin": [
        {
          "coinbase": "04ffff001d022309",
          "sequence": 4294967295
        }
      ],
      "vout": [
        {
          "value": 50.0,
          "n": 0,
          "scriptPubKey": {
            "asm": "04f5b472085ed1104fb30d8c8d56b2f711794f00ab2a9e5c1d9c87a8edc3a783f8eb2391ae15a65b9b29bc6aec2ac56f9ea36ad314d4bf32b6907ceb867b21c148 OP_CHECKSIG",
            "desc": "pk(04f5b472085ed1104fb30d8c8d56b2f711794f00ab2a9e5c1d9c87a8edc3a783f8eb2391ae15a65b9b29bc6aec2ac56f9ea36ad314d4bf32b6907ceb867b21c148)#8k9gfnj4",
            "hex": "4104f5b472085ed1104fb30d8c8d56b2f711794f00ab2a9e5c1d9c87a8edc3a783f8eb2391ae15a65b9b29bc6aec2ac56f9ea36ad314d4bf32b6907ceb867b21c148ac",
            "type": "pubkey"
          }
        }
      ],
      "hex": "01000000010000000000000000000000000000000000000000000000000000000000000000ffffffff0804ffff001d022309ffffffff0100f2052a01000000434104f5b472085ed1104fb30d8c8d56b2f711794f00ab2a9e5c1d9c87a8edc3a783f8eb2391ae15a65b9b29bc6aec2ac56f9ea36ad314d4bf32b6907ceb867b21c148ac00000000"
    }
  ]
}