{
  "hash": "0000000048bdd6234a18dd0a752de2ec2b6000a6d51be07db45b33b6441b0e9d",
  "confirmations": 50019,
  "height": 3079,
  "version": 1,
  "versionHex": "00000001",
  "merkleroot": "89c5f204d0b5a7c0c995997ac61fba6a75b9755595e57210884a3b8862fb5cc2",
  "time": 1233817506,
  "mediantime": 1233813718,
  "nonce": 161203392,
  "bits": "1d00ffff",
  "difficulty": 1,
  "chainwork": "00000000000000000000000000000000000000000000000000000c080c080c08",
  "nTx": 1,
  "previousblockhash": "0000000093d83ef0269311b4c3c73e89ed5e1b7bfaddd27cb1442d8086f19202",
  "nextblockhash": "00000000ea07f354aaf01517b170749d7f8e70732d1f5edf0299232532f04932",
  "strippedsize": 215,
  "size": 215,
  "weight": 860,
  "tx": [
    {
      "txid": "89c5f204d0b5a7c0c995997ac61fba6a75b9755595e57210884a3b8862fb5cc2",
      "hash": "89c5f204d0b5a7c0c995997ac61fba6a75b9755595e57210884a3b8862fb5cc2",
      "version": 1,
      "size": 134,
      "vsize": 134,
      "weight": 536,
      "locktime": 0,
      "vin": [
        {
          "coinbase": "04ffff001d0125",
          "sequence": 4294967295
        }
      ],
      "vout": [
        {
          "value": 50.0,
          "n": 0,
          "scriptPubKey": {
            "asm": "042e4a588d0be7375f3ee6f435cf8f1a822dcc918c6f84ddbbc1a112f7ec5b82a298999fa55a7db1252fbe9c987500d1d0e86d6f56b54f092a7216d3491fa99402 OP_CHECKSIG",
            "desc": "pk(042e4a588d0be7375f3ee6f435cf8f1a822dcc918c6f84ddbbc1a112f7ec5b82a298999fa55a7db1252fbe9c987500d1d0e86d6f56b54f092a7216d3491fa99402)#qq93wnmn",
            "hex": "41042e4a588d0be7375f3ee6f435cf8f1a822dcc918c6f84ddbbc1a112f7ec5b82a298999fa55a7db1252fbe9c987500d1d0e86d6f56b54f092a7216d3491fa99402ac",
            "type": "pubkey"
          }
        }
      ],
      "hex": "01000000010000000000000000000000000000000000000000000000000000000000000000ffffffff0704ffff001d0125ffffffff0100f2052a010000004341042e4a588d0be7375f3ee6f435cf8f1a822dcc918c6f84ddbbc1a112f7ec5b82a298999fa55a7db1252fbe9c987500d1d0e86d6f56b54f092a7216d3491fa99402ac00000000"
    }
  ]
}