{
  "hash": "000000000f665c18488be2c827809300097b0e457df4319d7b3b1f8e1e2a43d7",
  "confirmations": 45289,
  "height": 7809,
  "version": 1,
  "versionHex": "00000001",
  "merkleroot": "4dab1b1b1d56b071a785217739e758364e2ef132ecf5e7c50c0adcf2da500b13",
  "time": 1237319685,
  "mediantime": 1237316061,
  "nonce": 2267057927,
  "bits": "1d00ffff",
  "difficulty": 1,
  "chainwork": "00000000000000000000000000000000000000000000000000001e821e821e82",
  "nTx": 1,
  "previousblockhash": "00000000546ca3b52352d22a6934dcefdcaa38a9015614bd8fc30d5d4116d8ed",
  "nextblockhash": "000000000b3b468ac8093dc30297d657265a30cc850fac073ca59a3920e4ca8d",
  "strippedsize": 216,
  "size": 216,
  "weight": 864,
  "tx": [
    {
      "txid": "4dab1b1b1d56b071a785217739e758364e2ef132ecf5e7c50c0adcf2da500b13",
      "hash": "4dab1b1b1d56b071a785217739e758364e2ef132ecf5e7c50c0adcf2da500b13",
      "version": 1,
      "size": 135,
      "vsize": 135,
      "weight": 540,
      "locktime": 0,
      "vin": [
        {
          "coinbase": "04ffff001d021b06",
          "sequence": 4294967295
        }
      ],
      "vout": [
        {
          "value": 50.0,
          "n": 0,
          "scriptPubKey": {
            "asm": "04e6bbffe18b5f84c533ce5534e7b4b69530466efa7775fb22f76fa7ed3a519270e8e87eb7cc7aa9e8dec0ddf42841b5f778c4c0ac3528ab447686a437582944f2 OP_CHECKSIG",
            "desc": "pk(04e6bbffe18b5f84c533ce5534e7b4b69530466efa7775fb22f76fa7ed3a519270e8e87eb7cc7aa9e8dec0ddf42841b5f778c4c0ac3528ab447686a437582944f2)#j999uuln",
            "hex": "4104e6bbffe18b5f84c533ce5534e7b4b69530466efa7775fb22f76fa7ed3a519270e8e87eb7cc7aa9e8dec0ddf42841b5f778c4c0ac3528ab447686a437582944f2ac",
            "type": "pubkey"
          }
        }
      ],
      "hex": "01000000010000000000000000000000000000000000000000000000000000000000000000ffffffff0804ffff001d021b06ffffffff0100f2052a01000000434104e6bbffe18b5f84c533ce5534e7b4b69530466efa7775fb22f76fa7ed3a519270e8e87eb7cc7aa9e8dec0ddf42841b5f778c4c0ac3528ab447686a437582944f2ac00000000"
    }
  ]
}