{
  "hash": "0000000055c07c7afc4614c6eb8135233fbededd3560163c4f68ed2f7635a924",
  "confirmations": 51934,
  "height": 1164,
  "version": 1,
  "versionHex": "00000001",
  "merkleroot": "9a5cd7dffb94fc8f2f836058f8e3ccc3a00a5ccbec4f3e9a117653065b217ee2",
  "time": 1232470806,
  "mediantime": 1232467760,
  "nonce": 674684707,
  "bits": "1d00ffff",
  "difficulty": 1,
  "chainwork": "0000000000000000000000000000000000000000000000000000048d048d048d",
  "nTx": 1,
  "previousblockhash": "000000002feb5d88964e58ace2ca025968febc52ba0e9249b452a741c3d619f5",
  "nextblockhash": "0000000096802223977e8859bc89748566516f34656c33b9a74179078f78819b",
  "strippedsize": 216,
  "size": 216,
  "weight": 864,
  "tx": [
    {
      "txid": "9a5cd7dffb94fc8f2f836058f8e3ccc3a00a5ccbec4f3e9a117653065b217ee2",
      "hash": "9a5cd7dffb94fc8f2f836058f8e3ccc3a00a5ccbec4f3e9a117653065b217ee2",
      "version": 1,
      "size": 135,
      "vsize": 135,
      "weight": 540,
      "locktime": 0,
      "vin": [
        {
          "coinbase": "04ffff001d02ff07",
          "sequence": 4294967295
        }
      ],
      "vout": [
        {
          "value": 50.0,
          "n": 0,
          "scriptPubKey": {
            "asm": "041ac7e13e4292dcb24055d44a1c96fc0760d73d187770fc20066e46b96cbfc27ef4cd7a06308d97e58969b8b52493f24f98b8d7557c12b8ce46d3ef4458c4b2aa OP_CHECKSIG",
            "desc": "pk(041ac7e13e4292dcb24055d44a1c96fc0760d73d187770fc20066e46b96cbfc27ef4cd7a06308d97e58969b8b52493f24f98b8d7557c12b8ce46d3ef4458c4b2aa)#9lc3tfku",
            "hex": "41041ac7e13e4292dcb24055d44a1c96fc0760d73d187770fc20066e46b96cbfc27ef4cd7a06308d97e58969b8b52493f24f98b8d7557c12b8ce46d3ef4458c4b2aaac",
            "type": "pubkey"
          }
        }
      ],
      "hex": "01000000010000000000000000000000000000000000000000000000000000000000000000ffffffff0804ffff001d02ff07ffffffff0100f2052a010000004341041ac7e13e4292dcb24055d44a1c96fc0760d73d187770fc20066e46b96cbfc27ef4cd7a06308d97e58969b8b52493f24f98b8d7557c12b8ce46d3ef4458c4b2aaac00000000"
    }
  ]
}