{
  "hash": "0000000097bb6a307e7d4d8eac9a119e611eb5308312ed6460a0dec0bed101d0",
  "confirmations": 49638,
  "height": 3460,
  "version": 1,
  "versionHex": "00000001",
  "merkleroot": "c8fffadc22f118cc09945105ffd5ca0187cde2f3df34fedef06b51a7bc78b603",
  "time": 1234077135,
  "mediantime": 1234074608,
  "nonce": 2144179512,
  "bits": "1d00ffff",
  "difficulty": 1,
  "chainwork": "00000000000000000000000000000000000000000000000000000d850d850d85",
  "nTx": 1,
  "previousblockhash": "000000006b53f3a991ed120f781e2643f8f5a83440a266a8c8dfafd4dafd596b",
  "nextblockhash": "00000000d9b2b3ba324e4b112640fd077aab554c4a425b8f9f14b35dcfbfa173",
  "strippedsize": 216,
  "size": 216,
  "weight": 864,
  "tx": [
    {
      "txid": "c8fffadc22f118cc09945105ffd5ca0187cde2f3df34fedef06b51a7bc78b603",
      "hash": "c8fffadc22f118cc09945105ffd5ca0187cde2f3df34fedef06b51a7bc78b603",
      "version": 1,
      "size": 135,
      "vsize": 135,
      "weight": 540,
      "locktime": 0,
      "vin": [
        {
          "coinbase": "04ffff001d028506",
          "sequence": 4294967295
        }
      ],
      "vout": [
        {
          "value": 50.0,
          "n": 0,
          "scriptPubKey": {
            "asm": "045442e12901790c990cb632d05024c42731795e1fc8eed63721bf2efee6384b047292337a968ae8218264c42715dcd2ad0da7608e77a85910ba1d2260d6133a75 OP_CHECKSIG",
            "desc": "pk(045442e12901790c990cb632d05024c42731795e1fc8eed63721bf2efee6384b047292337a968ae8218264c42715dcd2ad0da7608e77a85910ba1d2260d6133a75)#3ya0pf4u",
            "hex": "41045442e12901790c990cb632d05024c42731795e1fc8eed63721bf2efee6384b047292337a968ae8218264c42715dcd2ad0da7608e77a85910ba1d2260d6133a75ac",
            "type": "pubkey"
          }
        }
      ],
      "hex": "01000000010000000000000000000000000000000000000000000000000000000000000000ffffffff0804ffff001d028506ffffffff0100f2052a010000004341045442e12901790c990cb632d05024c42731795e1fc8eed63721bf2efee6384b047292337a968ae8218264c42715dcd2ad0da7608e77a85910ba1d2260d6133a75ac00000000"
    }
  ]
}