{
  "hash": "000000002137b6e7d191f6ab9dd0dafa83b453a88ffd19b091f5f1c92b33cc34",
  "confirmations": 48024,
  "height": 5074,
  "version": 1,
  "versionHex": "00000001",
  "merkleroot": "d3cd8cc4273d63c2ec3f9ff10f028a6f08bf5fdb84bea577b41109994c5b77a0",
  "time": 1235195999,
  "mediantime": 1235192333,
  "nonce": 2238620717,
  "bits": "1d00ffff",
  "difficulty": 1,
  "chainwork": "000000000000000000000000000000000000000000000000000013d313d313d3",
  "nTx": 1,
  "previousblockhash": "0000000094d00a8dc325dc3b80fa5202b16aebed27937d2156988d33ed5b6200",
  "nextblockhash": "0000000080fdfe6991556339df99174d2bd8b30613622726bebae82a87440096",
  "strippedsize": 216,
  "size": 216,
  "weight": 864,
  "tx": [
    {
      "txid": "d3cd8cc4273d63c2ec3f9ff10f028a6f08bf5fdb84bea577b41109994c5b77a0",
      "hash": "d3cd8cc4273d63c2ec3f9ff10f028a6f08bf5fdb84bea577b41109994c5b77a0",
      "version": 1,
      "size": 135,
      "vsize": 135,
      "weight": 540,
      "locktime": 0,
      "vin": [
        {
          "coinbase": "04ffff001d025608",
          "sequence": 4294967295
        }
      ],
      "vout": [
        {
          "value": 50.0,
          "n": 0,
          "scriptPubKey": {
            "asm": "043bad3f5d6031139bc3b295b15c814e915927372093ac1878cf27c3078f3a7f9aeb043067d0a886859d927a17e9df9ee810beb662a6b2f29f0dc2e244d78e6b15 OP_CHECKSIG",
            "desc": "pk(043bad3f5d6031139bc3b295b15c814e915927372093ac1878cf27c3078f3a7f9aeb043067d0a886859d927a17e9df9ee810beb662a6b2f29f0dc2e244d78e6b15)#802scjrx",
            "hex": "41043bad3f5d6031139bc3b295b15c814e915927372093ac1878cf27c3078f3a7f9aeb043067d0a886859d927a17e9df9ee810beb662a6b2f29f0dc2e244d78e6b15ac",
            "type": "pubkey"
          }
        }
      ],
      "hex": "01000000010000000000000000000000000000000000000000000000000000000000000000ffffffff0804ffff001d025608ffffffff0100f2052a010000004341043bad3f5d6031139bc3b295b15c814e915927372093ac1878cf27c3078f3a7f9aeb043067d0a886859d927a17e9df9ee810beb662a6b2f29f0dc2e244d78e6b15ac00000000"
    }
  ]
}