{
  "hash": "00000000b21433731a9342c3108c62ccc48ab4637aa581a4ef4a2f989cdfd969",
  "confirmations": 46569,
  "height": 6529,
  "version": 1,
  "versionHex": "00000001",
  "merkleroot": "880a086289e27aed62b2f7daff0cb89e3577bd63e20d0353536aa3bc54810bee",
  "time": 1236350477,
  "mediantime": 1236346477,
  "nonce": 34099209,
  "bits": "1d00ffff",
  "difficulty": 1,
  "chainwork": "0000000000000000000000000000000000000000000000000000198219821982",
  "nTx": 1,
  "previousblockhash": "00000000d57f67594ab43b983a67c59ac1fb3d877640594fb255e53b86ad0de3",
  "nextblockhash": "000000007beda6164350c380e9a08950137741525ada674ff7b1ab143eb5b883",
  "strippedsize": 216,
  "size": 216,
  "weight": 864,
  "tx": [
    {
      "txid": "880a086289e27aed62b2f7daff0cb89e3577bd63e20d0353536aa3bc54810bee",
      "hash": "880a086289e27aed62b2f7daff0cb89e3577bd63e20d0353536aa3bc54810bee",
      "version": 1,
      "size": 135,
      "vsize": 135,
      "weight": 540,
      "locktime": 0,
      "vin": [
        {
          "coinbase": "04ffff001d02a400",
          "sequence": 4294967295
        }
      ],
      "vout": [
        {
          "value": 50.0,
          "n": 0,
          "scriptPubKey": {
            "asm": "046e7da077d4138274b1e15b7a5c3830f86252b17f933b64d9a70f14d9707df19c6e166d858b3ba612f91adebe12a2fa542708bf29d5797b8ce76dbffaf395d8d9 OP_CHECKSIG",
            "desc": "pk(046e7da077d4138274b1e15b7a5c3830f86252b17f933b64d9a70f14d9707df19c6e166d858b3ba612f91adebe12a2fa542708bf29d5797b8ce76dbffaf395d8d9)#rezrn7pz",
            "hex": "41046e7da077d4138274b1e15b7a5c3830f86252b17f933b64d9a70f14d9707df19c6e166d858b3ba612f91adebe12a2fa542708bf29d5797b8ce76dbffaf395d8d9ac",
            "type": "pubkey"
          }
        }
      ],
      "hex": "01000000010000000000000000000000000000000000000000000000000000000000000000ffffffff0804ffff001d02a400ffffffff0100f2052a010000004341046e7da077d4138274b1e15b7a5c3830f86252b17f933b64d9a70f14d9707df19c6e166d858b3ba612f91adebe12a2fa542708bf29d5797b8ce76dbffaf395d8d9ac00000000"
    }
  ]
}