{
  "hash": "000000008050b24ff10e080b01a1276e756bc6a60d4e94e720c24a7f15876d8c",
  "confirmations": 47919,
  "height": 5179,
  "version": 1,
  "versionHex": "00000001",
  "merkleroot": "d3bee84e547b63665b2aa3d6b15b39d52b0d6d02c057658d7dadf85d3585b894",
  "time": 1235272790,
  "mediantime": 1235268418,
  "nonce": 3032810547,
  "bits": "1d00ffff",
  "difficulty": 1,
  "chainwork": "0000000000000000000000000000000000000000000000000000143c143c143c",
  "nTx": 1,
  "previousblockhash": "0000000079991e4f34d867e6fbc96e94397bfe08b1d6acbcb5d631f63765cab2",
  "nextblockhash": "00000000f60d87dc6135fcdd006d53564e1e7f69b0617a5358206f0727ae9790",
  "strippedsize": 215,
  "size": 215,
  "weight": 860,
  "tx": [
    {
      "txid": "d3bee84e547b63665b2aa3d6b15b39d52b0d6d02c057658d7dadf85d3585b894",
      "hash": "d3bee84e547b63665b2aa3d6b15b39d52b0d6d02c057658d7dadf85d3585b894",
      "version": 1,
      "size": 134,
      "vsize": 134,
      "weight": 536,
      "locktime": 0,
      "vin": [
        {
          "coinbase": "04ffff001d012c",
          "sequence": 4294967295
        }
      ],
      "vout": [
        {
          "value": 50.0,
          "n": 0,
          "scriptPubKey": {
            "asm": "042d4cda70cdccdd39b257ef34be3ce7ac851317b61efb21532e172de4bb99a2cdca3f4012ca2c5852e99e9e629dd17836706b203ad25b7ea0a13630fe57c1194f OP_CHECKSIG",
            "desc": "pk(042d4cda70cdccdd39b257ef34be3ce7ac851317b61efb21532e172de4bb99a2cdca3f4012ca2c5852e99e9e629dd17836706b203ad25b7ea0a13630fe57c1194f)#lph7a86j",
            "hex": "41042d4cda70cdccdd39b257ef34be3ce7ac851317b61efb21532e172de4bb99a2cdca3f4012ca2c5852e99e9e629dd17836706b203ad25b7ea0a13630fe57c1194fac",
            "type": "pubkey"
          }
        }
      ],
      "hex": "01000000010000000000000000000000000000000000000000000000000000000000000000ffffffff0704ffff001d012cffffffff0100f2052a010000004341042d4cda70cdccdd39b257ef34be3ce7ac851317b61efb21532e172de4bb99a2cdca3f4012ca2c5852e99e9e629dd17836706b203ad25b7ea0a13630fe57c1194fac00000000"
    }
  ]
}