{
  "hash": "00000000ac79664ac9f5e5539a70966d84bce6e2e170003c80df4d3623a13ddd",
  "confirmations": 46502,
  "height": 6596,
  "version": 1,
  "versionHex": "00000001",
  "merkleroot": "d176cbb4a8b264d4404e456398ab276a2521663edab007ccd1b2b4aff8cd03eb",
  "time": 1236401774,
  "mediantime": 1236397779,
  "nonce": 4113797434,
  "bits": "1d00ffff",
  "difficulty": 1,
  "chainwork": "000000000000000000000000000000000000000000000000000019c519c519c5",
  "nTx": 1,
  "previousblockhash": "00000000f3b7880ffb51cf6ebe759af3f1e13649c8cfe817158232f0a43f9538",
  "nextblockhash": "000000002f330a14301be6c2339930c2d72cc141be5d5f7a7982253d4f7c7092",
  "strippedsize": 216,
  "size": 216,
  "weight": 864,
  "tx": [
    {
      "txid": "d176cbb4a8b264d4404e456398ab276a2521663edab007ccd1b2b4aff8cd03eb",
      "hash": "d176cbb4a8b264d4404e456398ab276a2521663edab007ccd1b2b4aff8cd03eb",
      "version": 1,
      "size": 135,
      "vsize": 135,
      "weight": 540,
      "locktime": 0,
      "vin": [
        {
          "coinbase": "04ffff001d020f05",
          "sequence": 4294967295
        }
      ],
      "vout": [
        {
          "value": 50.0,
          "n": 0,
          "scriptPubKey": {
            "asm": "047fbed50cfa9778ec0008c9237c138ed663c28b2ef4f6198b09d4a749d0d1e89c85a5dfbbe1c24e3048807ed0d0931a187ccfc054f2c274b4d4bab6cb6407672c OP_CHECKSIG",
            "desc": "pk(047fbed50cfa9778ec0008c9237c138ed663c28b2ef4f6198b09d4a749d0d1e89c85a5dfbbe1c24e3048807ed0d0931a187ccfc054f2c274b4d4bab6cb6407672c)#2fz5hn7g",
            "hex": "41047fbed50cfa9778ec0008c9237c138ed663c28b2ef4f6198b09d4a749d0d1e89c85a5dfbbe1c24e3048807ed0d0931a187ccfc054f2c274b4d4bab6cb6407672cac",
            "type": "pubkey"
          }
        }
      ],
      "hex": "01000000010000000000000000000000000000000000000000000000000000000000000000ffffffff0804ffff001d020f05ffffffff0100f2052a010000004341047fbed50cfa9778ec0008c9237c138ed663c28b2ef4f6198b09d4a749d0d1e89c85a5dfbbe1c24e3048807ed0d0931a187ccfc054f2c274b4d4bab6cb6407672cac00000000"
    }
  ]
}