{
  "hash": "0000000038dfaa7ef44dfea851e1804e72c6fed0afff56fdc1a4e9cabff63699",
  "confirmations": 43491,
  "height": 9607,
  "version": 1,
  "versionHex": "00000001",
  "merkleroot": "0ec4e8553b7c29812f10d5cb4372d1f62371e63476ab587bfa3a3f928e50569b",
  "time": 1238706159,
  "mediantime": 1238702608,
  "nonce": 4018763313,
  "bits": "1d00ffff",
  "difficulty": 1,
  "chainwork": "0000000000000000000000000000000000000000000000000000258825882588",
  "nTx": 1,
  "previousblockhash": "00000000af7bf7fc346a50fd2614cd168ad7c1acd70c0ed7d725e440e64a0e2c",
  "nextblockhash": "00000000139581cca425d481f609d8c44bf5e72b9bf1fc0017d9c657eff35521",
  "strippedsize": 216,
  "size": 216,
  "weight": 864,
  "tx": [
    {
      "txid": "0ec4e8553b7c29812f10d5cb4372d1f62371e63476ab587bfa3a3f928e50569b",
      "hash": "0ec4e8553b7c29812f10d5cb4372d1f62371e63476ab587bfa3a3f928e50569b",
      "version": 1,
      "size": 135,
      "vsize": 135,
      "weight": 540,
      "locktime": 0,
      "vin": [
        {
          "coinbase": "04ffff001d023407",
          "sequence": 4294967295
        }
      ],
      "vout": [
        {
          "value": 50.0,
          "n": 0,
          "scriptPubKey": {
            "asm": "042e15259e7ed40715a1f5bdacb0f4584c9d38d9abd66d6e6b2ff1d325f952c5800a2e801eeb790e105b5b2031f2a49b47877f2fbdd18dc2d6b050d3a830ba8d06 OP_CHECKSIG",
            "desc": "pk(042e15259e7ed40715a1f5bdacb0f4584c9d38d9abd66d6e6b2ff1d325f952c5800a2e801eeb790e105b5b2031f2a49b47877f2fbdd18dc2d6b050d3a830ba8d06)#kf8xpcn6",
            "hex": "41042e15259e7ed40715a1f5bdacb0f4584c9d38d9abd66d6e6b2ff1d325f952c5800a2e801eeb790e105b5b2031f2a49b47877f2fbdd18dc2d6b050d3a830ba8d06ac",
            "type": "pubkey"
          }
        }
      ],
      "hex": "01000000010000000000000000000000000000000000000000000000000000000000000000ffffffff0804ffff001d023407ffffffff0100f2052a010000004341042e15259e7ed40715a1f5bdacb0f4584c9d38d9abd66d6e6b2ff1d325f952c5800a2e801eeb790e105b5b2031f2a49b47877f2fbdd18dc2d6b050d3a830ba8d06ac00000000"
    }
  ]
}