{
  "hash": "00000000f6768d862ab79a5964fcbc5bdc0cf67982941d4a61de4cf057fae436",
  "confirmations": 43167,
  "height": 9931,
  "version": 1,
  "versionHex": "00000001",
  "merkleroot": "447ab943c05da078ab892bac458b57d00a9eae886a2ec13df2602de419588759",
  "time": 1238942712,
  "mediantime": 1238938858,
  "nonce": 236740121,
  "bits": "1d00ffff",
  "difficulty": 1,
  "chainwork": "000000000000000000000000000000000000000000000000000026cc26cc26cc",
  "nTx": 1,
  "previousblockhash": "000000004fdea739522363a4e39cc3f474b9b210e9808a80d381871b906f0b07",
  "nextblockhash": "00000000f29255c1d36b5424c56d7c5f1572f0c5372db097bbdb7a21170fe5bd",
  "strippedsize": 216,
  "size": 216,
  "weight": 864,
  "tx": [
    {
      "txid": "447ab943c05da078ab892bac458b57d00a9eae886a2ec13df2602de419588759",
      "hash": "447ab943c05da078ab892bac458b57d00a9eae886a2ec13df2602de419588759",
      "version": 1,
      "size": 135,
      "vsize": 135,
      "weight": 540,
      "locktime": 0,
      "vin": [
        {
          "coinbase": "04ffff001d028102",
          "sequence": 4294967295
        }
      ],
      "vout": [
        {
          "value": 50.0,
          "n": 0,
          "scriptPubKey": {
            "asm": "0410307667982a3e04978ff83b43ca683b8fafd18baf56874b3ae4d16e4e1fa13e080195a32455093ff7c2f1da3d57cd792ca18e2dd4dc1c72555e68d92f4017eb OP_CHECKSIG",
            "desc": "pk(0410307667982a3e04978ff83b43ca683b8fafd18baf56874b3ae4d16e4e1fa13e080195a32455093ff7c2f1da3d57cd792ca18e2dd4dc1c72555e68d92f4017eb)#crq52p82",
            "hex": "410410307667982a3e04978ff83b43ca683b8fafd18baf56874b3ae4d16e4e1fa13e080195a32455093ff7c2f1da3d57cd792ca18e2dd4dc1c72555e68d92f4017ebac",
            "type": "pubkey"
          }
        }
      ],
      "hex": "01000000010000000000000000000000000000000000000000000000000000000000000000ffffffff0804ffff001d028102ffffffff0100f2052a0100000043410410307667982a3e04978ff83b43ca683b8fafd18baf56874b3ae4d16e4e1fa13e080195a32455093ff7c2f1da3d57cd792ca18e2dd4dc1c72555e68d92f4017ebac00000000"
    }
  ]
}