{
  "hash": "000000008a2d970d0e70426780035154342a0416903899925cf9283e815da494",
  "confirmations": 52029,
  "height": 308,
  "version": 1,
  "versionHex": "00000001",
  "merkleroot": "06c3a86183a526c1e1f4f3b743471ae08a642b5a0361f639f4f10b60b3a8932b",
  "time": 1231839461,
  "mediantime": 1231835108,
  "nonce": 3104981281,
  "bits": "1d00ffff",
  "difficulty": 1,
  "chainwork": "0000000000000000000000000000000000000000000000000000013501350135",
  "nTx": 1,
  "previousblockhash": "0000000011d68e7505461a2ae9aa7a9e4b4d3a010e6de8ae1d4e3bbcca98409b",
  "nextblockhash": "00000000d3ec2f50772c2d42d4afb054c283555766a0ca1d8da65b9b5058a49e",
  "strippedsize": 216,
  "size": 216,
  "weight": 864,
  "tx": [
    {
      "txid": "06c3a86183a526c1e1f4f3b743471ae08a642b5a0361f639f4f10b60b3a8932b",
      "hash": "06c3a86183a526c1e1f4f3b743471ae08a642b5a0361f639f4f10b60b3a8932b",
      "version": 1,
      "size": 135,
      "vsize": 135,
      "weight": 540,
      "locktime": 0,
      "vin": [
        {
          "coinbase": "04ffff001d02a600",
          "sequence": 4294967295
        }
      ],
      "vout": [
        {
          "value": 50.0,
          "n": 0,
          "scriptPubKey": {
            "asm": "04e2257e75e6b189f3123d59e638b2e2c80df0240e2ce9c2c7f421aca6f2f3aca4043752fb7b52e9dd175546da0b07f02f9a87d0b84403b2d5e0fb388ed9494722 OP_CHECKSIG",
            "desc": "pk(04e2257e75e6b189f3123d59e638b2e2c80df0240e2ce9c2c7f421aca6f2f3aca4043752fb7b52e9dd175546da0b07f02f9a87d0b84403b2d5e0fb388ed9494722)#3jjl6zf3",
            "hex": "4104e2257e75e6b189f3123d59e638b2e2c80df0240e2ce9c2c7f421aca6f2f3aca4043752fb7b52e9dd175546da0b07f02f9a87d0b84403b2d5e0fb388ed9494722ac",
            "type": "pubkey"
          }
        }
      ],
      "hex": "01000000010000000000000000000000000000000000000000000000000000000000000000ffffffff0804ffff001d02a600ffffffff0100f2052a01000000434104e2257e75e6b189f3123d59e638b2e2c80df0240e2ce9c2c7f421aca6f2f3aca4043752fb7b52e9dd175546da0b07f02f9a87d0b84403b2d5e0fb388ed9494722ac00000000"
    }
  ]
}