{
  "hash": "00000000bd8c7e54921ec8e98bc15f806b3f238d35a12f41d7caca5a3aec97e7",
  "confirmations": 50390,
  "height": 2708,
  "version": 1,
  "versionHex": "00000001",
  "merkleroot": "166a45db3acfb47159f7f483500d24b949380f50dd95ce6e96c8baf5956677c3",
  "time": 1233567265,
  "mediantime": 1233563268,
  "nonce": 2116988422,
  "bits": "1d00ffff",
  "difficulty": 1,
  "chainwork": "00000000000000000000000000000000000000000000000000000a950a950a95",
  "nTx": 1,
  "previousblockhash": "00000000f87322df1a585b17e45ed0bd817db29fcba4188e413c006f785db504",
  "nextblockhash": "000000009eedee83db7da4524455a03bc5b3082d61f469c446377b18f1f8f2e4",
  "strippedsize": 216,
  "size": 216,
  "weight": 864,
  "tx": [
    {
      "txid": "166a45db3acfb47159f7f483500d24b949380f50dd95ce6e96c8baf5956677c3",
      "hash": "166a45db3acfb47159f7f483500d24b949380f50dd95ce6e96c8baf5956677c3",
      "version": 1,
      "size": 135,
      "vsize": 135,
      "weight": 540,
      "locktime": 0,
      "vin": [
        {
          "coinbase": "04ffff001d02d504",
          "sequence": 4294967295
        }
      ],
      "vout": [
        {
          "value": 50.0,
          "n": 0,
          "scriptPubKey": {
            "asm": "04f179b7ee036f496de05c3d3750a684bad9a1a64d1e2b7298e499d3d0443c204cda7865f2d5d9dc3ca607187a8a4e4fecf9ed8848d8e39839c2cb2153e5fe7432 OP_CHECKSIG",
            "desc": "pk(04f179b7ee036f496de05c3d3750a684bad9a1a64d1e2b7298e499d3d0443c204cda7865f2d5d9dc3ca607187a8a4e4fecf9ed8848d8e39839c2cb2153e5fe7432)#fsfrr69x",
            "hex": "4104f179b7ee036f496de05c3d3750a684bad9a1a64d1e2b7298e499d3d0443c204cda7865f2d5d9dc3ca607187a8a4e4fecf9ed8848d8e39839c2cb2153e5fe7432ac",
            "type": "pubkey"
          }
        }
      ],
      "hex": "01000000010000000000000000000000000000000000000000000000000000000000000000ffffffff0804ffff001d02d504ffffffff0100f2052a01000000434104f179b7ee036f496de05c3d3750a684bad9a1a64d1e2b7298e499d3d0443c204cda7865f2d5d9dc3ca607187a8a4e4fecf9ed8848d8e39839c2cb2153e5fe7432ac00000000"
    }
  ]
}