{
  "hash": "000000009c8e1a859cba27443d5945a7f15553bd9f3067357695dad0850f88c4",
  "confirmations": 47168,
  "height": 5930,
  "version": 1,
  "versionHex": "00000001",
  "merkleroot": "4009331689d308f76a20898e4089bd722219b7305a3fbe5d11ffe639105ce47e",
  "time": 1235871496,
  "mediantime": 1235867324,
  "nonce": 3773181467,
  "bits": "1d00ffff",
  "difficulty": 1,
  "chainwork": "0000000000000000000000000000000000000000000000000000172b172b172b",
  "nTx": 1,
  "previousblockhash": "00000000083465d97c0b52a0045c2cffaf0749c8220a952929aa46510bcf8e02",
  "nextblockhash": "00000000098e963428886a8ce592bf6cdc4ab78e23704a357ea2bc560337611e",
  "strippedsize": 216,
  "size": 216,
  "weight": 864,
  "tx": [
    {
      "txid": "4009331689d308f76a20898e4089bd722219b7305a3fbe5d11ffe639105ce47e",
      "hash": "4009331689d308f76a20898e4089bd722219b7305a3fbe5d11ffe639105ce47e",
      "version": 1,
      "size": 135,
      "vsize": 135,
      "weight": 540,
      "locktime": 0,
      "vin": [
        {
          "coinbase": "04ffff001d02a903",
          "sequence": 4294967295
        }
      ],
      "vout": [
        {
          "value": 50.0,
          "n": 0,
          "scriptPubKey": {
            "asm": "0407f220b6b64c3a91772ddecb06648fb85f0d5fed67f5af639cb064a5605413f6e011f053aff001ae817fac19dc411954a8c8c79b86f67ccf8ce02c213679c024 OP_CHECKSIG",
            "desc": "pk(0407f220b6b64c3a91772ddecb06648fb85f0d5fed67f5af639cb064a5605413f6e011f053aff001ae817fac19dc411954a8c8c79b86f67ccf8ce02c213679c024)#eyrgjetz",
            "hex": "410407f220b6b64c3a91772ddecb06648fb85f0d5fed67f5af639cb064a5605413f6e011f053aff001ae817fac19dc411954a8c8c79b86f67ccf8ce02c213679c024ac",
            "type": "pubkey"
          }
        }
      ],
      "hex": "01000000010000000000000000000000000000000000000000000000000000000000000000ffffffff0804ffff001d02a903ffffffff0100f2052a0100000043410407f220b6b64c3a91772ddecb06648fb85f0d5fed67f5af639cb064a5605413f6e011f053aff001ae817fac19dc411954a8c8c79b86f67ccf8ce02c213679c024ac00000000"
    }
  ]
}