{
  "hash": "00000000cdb32825ea7611cdf2981d663362301c5a0883f062cce4da77ad50c1",
  "confirmations": 44647,
  "height": 8451,
  "version": 1,
  "versionHex": "00000001",
  "merkleroot": "5edc2ccc93d036e70bed695e8894388b716c8e7bf39e0a589be3b0a5cd64363f",
  "time": 1237829680,
  "mediantime": 1237827730,
  "nonce": 102331,
  "bits": "1d00ffff",
  "difficulty": 1,
  "chainwork": "0000000000000000000000000000000000000000000000000000210421042104",
  "nTx": 1,
  "previousblockhash": "00000000e74a842e631ddd610026648b888dcd3b19cd2367d9f89334c64b0244",
  "nextblockhash": "00000000ab84f38f87cd4b1c237a668d8db911ace09e3bce09b034e3c77cb023",
  "strippedsize": 216,
  "size": 216,
  "weight": 864,
  "tx": [
    {
      "txid": "5edc2ccc93d036e70bed695e8894388b716c8e7bf39e0a589be3b0a5cd64363f",
      "hash": "5edc2ccc93d036e70bed695e8894388b716c8e7bf39e0a589be3b0a5cd64363f",
      "version": 1,
      "size": 135,
      "vsize": 135,
      "weight": 540,
      "locktime": 0,
      "vin": [
        {
          "coinbase": "04ffff001d02ca01",
          "sequence": 4294967295
        }
      ],
      "vout": [
        {
          "value": 50.0,
          "n": 0,
          "scriptPubKey": {
            "asm": "040764c33ca89aaa3b1845d6709dd3fee0dd7dd88df0bfd7eff546f2d885817fb815ff688f78ab41af049a4b9b98ad6578e5da66d08ecb6e686a4974af44edeeca OP_CHECKSIG",
            "desc": "pk(040764c33ca89aaa3b1845d6709dd3fee0dd7dd88df0bfd7eff546f2d885817fb815ff688f78ab41af049a4b9b98ad6578e5da66d08ecb6e686a4974af44edeeca)#7tqcwv0h",
            "hex": "41040764c33ca89aaa3b1845d6709dd3fee0dd7dd88df0bfd7eff546f2d885817fb815ff688f78ab41af049a4b9b98ad6578e5da66d08ecb6e686a4974af44edeecaac",
            "type": "pubkey"
          }
        }
      ],
      "hex": "01000000010000000000000000000000000000000000000000000000000000000000000000ffffffff0804ffff001d02ca01ffffffff0100f2052a010000004341040764c33ca89aaa3b1845d6709dd3fee0dd7dd88df0bfd7eff546f2d885817fb815ff688f78ab41af049a4b9b98ad6578e5da66d08ecb6e686a4974af44edeecaac00000000"
    }
  ]
}