{
  "hash": "00000000fc2b4cff82824737f1d58bafc8c6f32cc04e59241af27fd9e3362ede",
  "confirmations": 43352,
  "height": 9746,
  "version": 1,
  "versionHex": "00000001",
  "merkleroot": "ef6915a556045a4f8d0a1d218b831f0444dc07facc19447487bba6a179c21043",
  "time": 1238811254,
  "mediantime": 1238807042,
  "nonce": 966030119,
  "bits": "1d00ffff",
  "difficulty": 1,
  "chainwork": "0000000000000000000000000000000000000000000000000000261326132613",
  "nTx": 1,
  "previousblockhash": "0000000098821d4ed9bf9ea134102e88a46b64179a0c9dcfe9d47f4734780e9a",
  "nextblockhash": "00000000dc3896448966c785d23f3f31778bdb7d7fbee201c676c0793a9bbd0f",
  "strippedsize": 216,
  "size": 216,
  "weight": 864,
  "tx": [
    {
      "txid": "ef6915a556045a4f8d0a1d218b831f0444dc07facc19447487bba6a179c21043",
      "hash": "ef6915a556045a4f8d0a1d218b831f0444dc07facc19447487bba6a179c21043",
      "version": 1,
      "size": 135,
      "vsize": 135,
      "weight": 540,
      "locktime": 0,
      "vin": [
        {
          "coinbase": "04ffff001d027e09",
          "sequence": 4294967295
        }
      ],
      "vout": [
        {
          "value": 50.0,
          "n": 0,
          "scriptPubKey": {
            "asm": "04f9d7ec3d62395a834df4c8d9e798976db17677a6ebb89d84dfd1c67dbad4b9583896026815e636c49a49b1b8d95925bbc2b9ed2e29576ec92252b8f26fe5a23a OP_CHECKSIG",
            "desc": "pk(04f9d7ec3d62395a834df4c8d9e798976db17677a6ebb89d84dfd1c67dbad4b9583896026815e636c49a49b1b8d95925bbc2b9ed2e29576ec92252b8f26fe5a23a)#dlsqlfca",
            "hex": "4104f9d7ec3d62395a834df4c8d9e798976db17677a6ebb89d84dfd1c67dbad4b9583896026815e636c49a49b1b8d95925bbc2b9ed2e29576ec92252b8f26fe5a23aac",
            "type": "pubkey"
          }
        }
      ],
      "hex": "01000000010000000000000000000000000000000000000000000000000000000000000000ffffffff0804ffff001d027e09ffffffff0100f2052a01000000434104f9d7ec3d62395a834df4c8d9e798976db17677a6ebb89d84dfd1c67dbad4b9583896026815e636c49a49b1b8d95925bbc2b9ed2e29576ec92252b8f26fe5a23aac00000000"
    }
  ]
}