{
  "hash": "00000000232389c4fa4e69686e7a4c4d54a4d96149fbc496baf1dafc739ad2ce",
  "confirmations": 44189,
  "height": 8909,
  "version": 1,
  "versionHex": "00000001",
  "merkleroot": "7270516ff1478f38b5e58c35db05f2305779b0bab9afdf601f97ef60a5500a52",
  "time": 1238186196,
  "mediantime": 1238182711,
  "nonce": 122719951,
  "bits": "1d00ffff",
  "difficulty": 1,
  "chainwork": "000000000000000000000000000000000000000000000000000022ce22ce22ce",
  "nTx": 1,
  "previousblockhash": "000000001c1e1b7afcd8bccfe9285b4289b9bcbd2df1dc7e963605d60699f9d4",
  "nextblockhash": "00000000fe6a2acee44d83d445191a33b55fb3cad06cafa8f904682940719279",
  "strippedsize": 216,
  "size": 216,
  "weight": 864,
  "tx": [
    {
      "txid": "7270516ff1478f38b5e58c35db05f2305779b0bab9afdf601f97ef60a5500a52",
      "hash": "7270516ff1478f38b5e58c35db05f2305779b0bab9afdf601f97ef60a5500a52",
      "version": 1,
      "size": 135,
      "vsize": 135,
      "weight": 540,
      "locktime": 0,
      "vin": [
        {
          "coinbase": "04ffff001d029003",
          "sequence": 4294967295
        }
      ],
      "vout": [
        {
          "value": 50.0,
          "n": 0,
          "scriptPubKey": {
            "asm": "044611ca6ca104c8b81c9b3e973c260396a1ab984e4ed3cb5b98543fae23e0f1d241a97cde0a3678f23e94f15309748f6cdab108f5a8383bd23b460d867afe6570 OP_CHECKSIG",
            "desc": "pk(044611ca6ca104c8b81c9b3e973c260396a1ab984e4ed3cb5b98543fae23e0f1d241a97cde0a3678f23e94f15309748f6cdab108f5a8383bd23b460d867afe6570)#gl0rdnqw",
            "hex": "41044611ca6ca104c8b81c9b3e973c260396a1ab984e4ed3cb5b98543fae23e0f1d241a97cde0a3678f23e94f15309748f6cdab108f5a8383bd23b460d867afe6570ac",
            "type": "pubkey"
          }
        }
      ],
      "hex": "01000000010000000000000000000000000000000000000000000000000000000000000000ffffffff0804ffff001d029003ffffffff0100f2052a010000004341044611ca6ca104c8b81c9b3e973c260396a1ab984e4ed3cb5b98543fae23e0f1d241a97cde0a3678f23e94f15309748f6cdab108f5a8383bd23b460d867afe6570ac00000000"
    }
  ]
}