{
  "hash": "00000000b4df63292b5cb43548367908d8b998a67c4f8e481a32f4bdb467b3cf",
  "confirmations": 51419,
  "height": 1679,
  "version": 1,
  "versionHex": "00000001",
  "merkleroot": "3383531f30c6aa6348cb6633e02511d8b03e06da86590a3ffac4cbf2365bfc4c",
  "time": 1232843673,
  "mediantime": 1232842109,
  "nonce": 4195024158,
  "bits": "1d00ffff",
  "difficulty": 1,
  "chainwork": "0000000000000000000000000000000000000000000000000000069006900690",
  "nTx": 1,
  "previousblockhash": "00000000f3a77fdef1ca4465b48caecf4431c7c8bd38b5b274694f4f781d25b6",
  "nextblockhash": "00000000a88d6a14d79b7afd292071916cb04899411fcbc83131e86e5f98269b",
  "strippedsize": 216,
  "size": 216,
  "weight": 864,
  "tx": [
    {
      "txid": "3383531f30c6aa6348cb6633e02511d8b03e06da86590a3ffac4cbf2365bfc4c",
      "hash": "3383531f30c6aa6348cb6633e02511d8b03e06da86590a3ffac4cbf2365bfc4c",
      "version": 1,
      "size": 135,
      "vsize": 135,
      "weight": 540,
      "locktime": 0,
      "vin": [
        {
          "coinbase": "04ffff001d02da02",
          "sequence": 4294967295
        }
      ],
      "vout": [
        {
          "value": 50.0,
          "n": 0,
          "scriptPubKey": {
            "asm": "041e510a543c48cd811b71986c690d24f750c3866313a061f4ddad52e17405fe72e017df60a1fe5cad604b5d04c15b8cdd5a6fa2fb9e12d7f21b2b2b89cd236522 OP_CHECKSIG",
            "desc": "pk(041e510a543c48cd811b71986c690d24f750c3866313a061f4ddad52e17405fe72e017df60a1fe5cad604b5d04c15b8cdd5a6fa2fb9e12d7f21b2b2b89cd236522)#jruzpx2e",
            "hex": "41041e510a543c48cd811b71986c690d24f750c3866313a061f4ddad52e17405fe72e017df60a1fe5cad604b5d04c15b8cdd5a6fa2fb9e12d7f21b2b2b89cd236522ac",
            "type": "pubkey"
          }
        }
      ],
      "hex": "01000000010000000000000000000000000000000000000000000000000000000000000000ffffffff0804ffff001d02da02ffffffff0100f2052a010000004341041e510a543c48cd811b71986c690d24f750c3866313a061f4ddad52e17405fe72e017df60a1fe5cad604b5d04c15b8cdd5a6fa2fb9e12d7f21b2b2b89cd236522ac00000000"
    }
  ]
}