{
  "hash": "00000000496f16f0100b386a932e03d8692982ff8f85fc6037888fd449f3a4fe",
  "confirmations": 49213,
  "height": 3885,
  "version": 1,
  "versionHex": "00000001",
  "merkleroot": "76543195dcb64920b1e28a3e29577dd49b922d4cbbca48df1fa4cee08fb467e1",
  "time": 1234357206,
  "mediantime": 1234354241,
  "nonce": 204532588,
  "bits": "1d00ffff",
  "difficulty": 1,
  "chainwork": "00000000000000000000000000000000000000000000000000000f2e0f2e0f2e",
  "nTx": 1,
  "previousblockhash": "000000006c0b1da5f2d08cbeebc3d76cdb68e2c182f3e019fc89987425ce48aa",
  "nextblockhash": "0000000086fc599e572743378854ad5e4a42881282c23729654959d372caa675",
  "strippedsize": 216,
  "size": 216,
  "weight": 864,
  "tx": [
    {
      "txid": "76543195dcb64920b1e28a3e29577dd49b922d4cbbca48df1fa4cee08fb467e1",
      "hash": "76543195dcb64920b1e28a3e29577dd49b922d4cbbca48df1fa4cee08fb467e1",
      "version": 1,
      "size": 135,
      "vsize": 135,
      "weight": 540,
      "locktime": 0,
      "vin": [
        {
          "coinbase": "04ffff001d02c007",
          "sequence": 4294967295
        }
      ],
      "vout": [
        {
          "value": 50.0,
          "n": 0,
          "scriptPubKey": {
            "asm": "04188245c91744b4f0731d6beb0d967c0201413dcd841de14cab41d17952cc4bbdbb83da09950aaeccfb02cbf852374e2a73c159054beb2e9f9b769b57283aeae4 OP_CHECKSIG",
            "desc": "pk(04188245c91744b4f0731d6beb0d967c0201413dcd841de14cab41d17952cc4bbdbb83da09950aaeccfb02cbf852374e2a73c159054beb2e9f9b769b57283aeae4)#55l68gfr",
            "hex": "4104188245c91744b4f0731d6beb0d967c0201413dcd841de14cab41d17952cc4bbdbb83da09950aaeccfb02cbf852374e2a73c159054beb2e9f9b769b57283aeae4ac",
            "type": "pubkey"
          }
        }
      ],
      "hex": "01000000010000000000000000000000000000000000000000000000000000000000000000ffffffff0804ffff001d02c007ffffffff0100f2052a01000000434104188245c91744b4f0731d6beb0d967c0201413dcd841de14cab41d17952cc4bbdbb83da09950aaeccfb02cbf852374e2a73c159054beb2e9f9b769b57283aeae4ac00000000"
    }
  ]
}