{
  "hash": "00000000cf6889141ad6ef8cf20a7e13f96facf26ae0c23bcdb182c497598f7a",
  "confirmations": 47618,
  "height": 5480,
  "version": 1,
  "versionHex": "00000001",
  "merkleroot": "45bdfa2e23b69ef9f3b673e073f4716c234858ebe447bc5d16af7e86930422cc",
  "time": 1235504236,
  "mediantime": 1235501826,
  "nonce": 216750172,
  "bits": "1d00ffff",
  "difficulty": 1,
  "chainwork": "0000000000000000000000000000000000000000000000000000156915691569",
  "nTx": 1,
  "previousblockhash": "00000000cc6ddabd562993839c89fd9d89b4f43191ba6a03c9b8aa997eef6009",
  "nextblockhash": "00000000069f2dea9afea0d348e12e1d010f70564517a1d946d4210af3dc27ef",
  "strippedsize": 216,
  "size": 216,
  "weight": 864,
  "tx": [
    {
      "txid": "45bdfa2e23b69ef9f3b673e073f4716c234858ebe447bc5d16af7e86930422cc",
      "hash": "45bdfa2e23b69ef9f3b673e073f4716c234858ebe447bc5d16af7e86930422cc",
      "version": 1,
      "size": 135,
      "vsize": 135,
      "weight": 540,
      "locktime": 0,
      "vin": [
        {
          "coinbase": "04ffff001d024201",
          "sequence": 4294967295
        }
      ],
      "vout": [
        {
          "value": 50.0,
          "n": 0,
          "scriptPubKey": {
            "asm": "04c7bf3bead2bab3a2a71a38494e4b029d5ed54739551a0130a69535c1f39666c39b318800c84f18d8effa8116086bca84d2e39d540d61c11bc33d7fac148444cc OP_CHECKSIG",
            "desc": "pk(04c7bf3bead2bab3a2a71a38494e4b029d5ed54739551a0130a69535c1f39666c39b318800c84f18d8effa8116086bca84d2e39d540d61c11bc33d7fac148444cc)#4dfg8ehs",
            "hex": "4104c7bf3bead2bab3a2a71a38494e4b029d5ed54739551a0130a69535c1f39666c39b318800c84f18d8effa8116086bca84d2e39d540d61c11bc33d7fac148444ccac",
            "type": "pubkey"
          }
        }
      ],
      "hex": "01000000010000000000000000000000000000000000000000000000000000000000000000ffffffff0804ffff001d024201ffffffff0100f2052a01000000434104c7bf3bead2bab3a2a71a38494e4b029d5ed54739551a0130a69535c1f39666c39b318800c84f18d8effa8116086bca84d2e39d540d61c11bc33d7fac148444ccac00000000"
    }
  ]
}