{
  "hash": "00000000b7bbb7e50d86d3decd6ff8aa464a0acae51eca4306ff35b7437448b2",
  "confirmations": 43359,
  "height": 9739,
  "version": 1,
  "versionHex": "00000001",
  "merkleroot": "c2fc984cff8666ff5d5b77ed8e1b1c22f6370227330a604aded6771a74a9a6d0",
  "time": 1238805277,
  "mediantime": 1238803073,
  "nonce": 33105665,
  "bits": "1d00ffff",
  "difficulty": 1,
  "chainwork": "0000000000000000000000000000000000000000000000000000260c260c260c",
  "nTx": 1,
  "previousblockhash": "000000008d9f4089951a24ac34bf6310ebaa4fed57e0ad8ea2bd2d15daf66f14",
  "nextblockhash": "00000000499e0f61d3b76d8e2a729dd140ae796d471a55d105daaf89ffccdf1e",
  "strippedsize": 216,
  "size": 216,
  "weight": 864,
  "tx": [
    {
      "txid": "c2fc984cff8666ff5d5b77ed8e1b1c22f6370227330a604aded6771a74a9a6d0",
      "hash": "c2fc984cff8666ff5d5b77ed8e1b1c22f6370227330a604aded6771a74a9a6d0",
      "version": 1,
      "size": 135,
      "vsize": 135,
      "weight": 540,
      "locktime": 0,
      "vin": [
        {
          "coinbase": "04ffff001d02c310",
          "sequence": 4294967295
        }
      ],
      "vout": [
        {
          "value": 50.0,
          "n": 0,
          "scriptPubKey": {
            "asm": "04a1a3a081d55c35afd71232401b64af0204c16388115165edfcc37ce0f6a5092791e95a26492d466b5f88742b794bc3d07a6c59e5d69fde8883e86cedc9fc568e OP_CHECKSIG",
            "desc": "pk(04a1a3a081d55c35afd71232401b64af0204c16388115165edfcc37ce0f6a5092791e95a26492d466b5f88742b794bc3d07a6c59e5d69fde8883e86cedc9fc568e)#nxn33znl",
            "hex": "4104a1a3a081d55c35afd71232401b64af0204c16388115165edfcc37ce0f6a5092791e95a26492d466b5f88742b794bc3d07a6c59e5d69fde8883e86cedc9fc568eac",
            "type": "pubkey"
          }
        }
      ],
      "hex": "01000000010000000000000000000000000000000000000000000000000000000000000000ffffffff0804ffff001d02c310ffffffff0100f2052a01000000434104a1a3a081d55c35afd71232401b64af0204c16388115165edfcc37ce0f6a5092791e95a26492d466b5f88742b794bc3d07a6c59e5d69fde8883e86cedc9fc568eac00000000"
    }
  ]
}