{
  "hash": "0000000068c27222034055d5bd2d4e3611442c3bc237fa1663bb76c46c1ac4ba",
  "confirmations": 50932,
  "height": 2166,
  "version": 1,
  "versionHex": "00000001",
  "merkleroot": "f280df4349054a2b3e14981601af3a0f7093c2766c7774d0e9e29de5eddea6e2",
  "time": 1233185499,
  "mediantime": 1233182212,
  "nonce": 1522208276,
  "bits": "1d00ffff",
  "difficulty": 1,
  "chainwork": "0000000000000000000000000000000000000000000000000000087708770877",
  "nTx": 1,
  "previousblockhash": "00000000c1dc1debeb58522080c54a3d2e3c8610f2c39cf374f2782b12ea02e4",
  "nextblockhash": "00000000d7ddd69dd39ee2adcec570054fbfdf5c7ae222d5b9778e176308962c",
  "strippedsize": 216,
  "size": 216,
  "weight": 864,
  "tx": [
    {
      "txid": "f280df4349054a2b3e14981601af3a0f7093c2766c7774d0e9e29de5eddea6e2",
      "hash": "f280df4349054a2b3e14981601af3a0f7093c2766c7774d0e9e29de5eddea6e2",
      "version": 1,
      "size": 135,
      "vsize": 135,
      "weight": 540,
      "locktime": 0,
      "vin": [
        {
          "coinbase": "04ffff001d02bc00",
          "sequence": 4294967295
        }
      ],
      "vout": [
        {
          "value": 50.0,
          "n": 0,
          "scriptPubKey": {
            "asm": "0456d797db4b96f3ddeb09effc16962b4970b2da98409dfbbcc6740f6eaf314c5a4dc5f487823cbc61d60f40e50f23d7bed1864bb9fdce0a0db23a328d6040ae5b OP_CHECKSIG",
            "desc": "pk(0456d797db4b96f3ddeb09effc16962b4970b2da98409dfbbcc6740f6eaf314c5a4dc5f487823cbc61d60f40e50f23d7bed1864bb9fdce0a0db23a328d6040ae5b)#fexnvq8t",
            "hex": "410456d797db4b96f3ddeb09effc16962b4970b2da98409dfbbcc6740f6eaf314c5a4dc5f487823cbc61d60f40e50f23d7bed1864bb9fdce0a0db23a328d6040ae5bac",
            "type": "pubkey"
          }
        }
      ],
      "hex": "01000000010000000000000000000000000000000000000000000000000000000000000000ffffffff0804ffff001d02bc00ffffffff0100f2052a0100000043410456d797db4b96f3ddeb09effc16962b4970b2da98409dfbbcc6740f6eaf314c5a4dc5f487823cbc61d60f40e50f23d7bed1864bb9fdce0a0db23a328d6040ae5bac00000000"
    }
  ]
}