{
  "hash": "00000000ab4e46054adea7301e07e786b0207d34c565b52c7cffe89e71cefc18",
  "confirmations": 46393,
  "height": 6705,
  "version": 1,
  "versionHex": "00000001",
  "merkleroot": "6c3af971e4e4de64516f85eb2c0b8681dc0aef34a02af91f56d2777cd7d76756",
  "time": 1236486604,
  "mediantime": 1236483530,
  "nonce": 50635526,
  "bits": "1d00ffff",
  "difficulty": 1,
  "chainwork": "00000000000000000000000000000000000000000000000000001a321a321a32",
  "nTx": 1,
  "previousblockhash": "00000000b630e39994176a38611e392b588363afeb6036222dbfa0d736565e79",
  "nextblockhash": "0000000017e80cb6eda62df393a0921fcd5e4fa0b05d1c497a517dd993843be8",
  "strippedsize": 216,
  "size": 216,
  "weight": 864,
  "tx": [
    {
      "txid": "6c3af971e4e4de64516f85eb2c0b8681dc0aef34a02af91f56d2777cd7d76756",
      "hash": "6c3af971e4e4de64516f85eb2c0b8681dc0aef34a02af91f56d2777cd7d76756",
      "version": 1,
      "size": 135,
      "vsize": 135,
      "weight": 540,
      "locktime": 0,
      "vin": [
        {
          "coinbase": "04ffff001d021c07",
          "sequence": 4294967295
        }
      ],
      "vout": [
        {
          "value": 50.0,
          "n": 0,
          "scriptPubKey": {
            "asm": "04e2f2c0a8e9482a1165e78f59791cc6bf9ba976fc7f2301ae6a604d89772c381a1427d956eeb5a25bba7a65eedfc57262f34f38b822f3234a017ea2a23dcdb8c1 OP_CHECKSIG",
            "desc": "pk(04e2f2c0a8e9482a1165e78f59791cc6bf9ba976fc7f2301ae6a604d89772c381a1427d956eeb5a25bba7a65eedfc57262f34f38b822f3234a017ea2a23dcdb8c1)#sx47sq5d",
            "hex": "4104e2f2c0a8e9482a1165e78f59791cc6bf9ba976fc7f2301ae6a604d89772c381a1427d956eeb5a25bba7a65eedfc57262f34f38b822f3234a017ea2a23dcdb8c1ac",
            "type": "pubkey"
          }
        }
      ],
      "hex": "01000000010000000000000000000000000000000000000000000000000000000000000000ffffffff0804ffff001d021c07ffffffff0100f2052a01000000434104e2f2c0a8e9482a1165e78f59791cc6bf9ba976fc7f2301ae6a604d89772c381a1427d956eeb5a25bba7a65eedfc57262f34f38b822f3234a017ea2a23dcdb8c1ac00000000"
    }
  ]
}