{
  "hash": "0000000050090fca680ffc54858e98ef72dd21fd1159089dc22e2b1ca10024cf",
  "confirmations": 50256,
  "height": 2842,
  "version": 1,
  "versionHex": "00000001",
  "merkleroot": "751577d8ba488aea7995d89d336cd6335dce266ebfad7d8dba3355d8b1994d1f",
  "time": 1233654999,
  "mediantime": 1233649286,
  "nonce": 2234846468,
  "bits": "1d00ffff",
  "difficulty": 1,
  "chainwork": "00000000000000000000000000000000000000000000000000000b1b0b1b0b1b",
  "nTx": 1,
  "previousblockhash": "00000000da2e83e3f29aebb8b37d98d4aae9a41b053cb7fc4f4ae2137fe6484a",
  "nextblockhash": "00000000c7793ced70c0d6edad4bec9ba7a5c002844f9f9bec624aead15cbd1a",
  "strippedsize": 216,
  "size": 216,
  "weight": 864,
  "tx": [
    {
      "txid": "751577d8ba488aea7995d89d336cd6335dce266ebfad7d8dba3355d8b1994d1f",
      "hash": "751577d8ba488aea7995d89d336cd6335dce266ebfad7d8dba3355d8b1994d1f",
      "version": 1,
      "size": 135,
      "vsize": 135,
      "weight": 540,
      "locktime": 0,
      "vin": [
        {
          "coinbase": "04ffff001d02be06",
          "sequence": 4294967295
        }
      ],
      "vout": [
        {
          "value": 50.0,
          "n": 0,
          "scriptPubKey": {
            "asm": "04be23021723da7ddadcf64d4811e0779a9d458e49f4699d510231d352f75a217c8dc7d47766ec65ca8914b9bd6cf5caa8d058cada939537c079eb853d264626b5 OP_CHECKSIG",
            "desc": "pk(04be23021723da7ddadcf64d4811e0779a9d458e49f4699d510231d352f75a217c8dc7d47766ec65ca8914b9bd6cf5caa8d058cada939537c079eb853d264626b5)#9n4nxgy2",
            "hex": "4104be23021723da7ddadcf64d4811e0779a9d458e49f4699d510231d352f75a217c8dc7d47766ec65ca8914b9bd6cf5caa8d058cada939537c079eb853d264626b5ac",
            "type": "pubkey"
          }
        }
      ],
      "hex": "01000000010000000000000000000000000000000000000000000000000000000000000000ffffffff0804ffff001d02be06ffffffff0100f2052a01000000434104be23021723da7ddadcf64d4811e0779a9d458e49f4699d510231d352f75a217c8dc7d47766ec65ca8914b9bd6cf5caa8d058cada939537c079eb853d264626b5ac00000000"
    }
  ]
}