{
  "hash": "00000000bb8f0f8f1b6ed581c0d13e52008d0cb527d5ed78264c30827da4c3ba",
  "confirmations": 52284,
  "height": 814,
  "version": 1,
  "versionHex": "00000001",
  "merkleroot": "1704b85b190683be893af88515c6f3900aaef4c02067112f1d0d50fb39aa0999",
  "time": 1232202799,
  "mediantime": 1232199992,
  "nonce": 198630135,
  "bits": "1d00ffff",
  "difficulty": 1,
  "chainwork": "0000000000000000000000000000000000000000000000000000032f032f032f",
  "nTx": 1,
  "previousblockhash": "00000000a0963476270e03c002d98cc7be2865a02832451a65304e07712d1c95",
  "nextblockhash": "000000005310be1d1359d2ee7a7b810dae924ce77f22e5b48a44d248899c5134",
  "strippedsize": 215,
  "size": 215,
  "weight": 860,
  "tx": [
    {
      "txid": "1704b85b190683be893af88515c6f3900aaef4c02067112f1d0d50fb39aa0999",
      "hash": "1704b85b190683be893af88515c6f3900aaef4c02067112f1d0d50fb39aa0999",
      "version": 1,
      "size": 134,
      "vsize": 134,
      "weight": 536,
      "locktime": 0,
      "vin": [
        {
          "coinbase": "04ffff001d0164",
          "sequence": 4294967295
        }
      ],
      "vout": [
        {
          "value": 50.0,
          "n": 0,
          "scriptPubKey": {
            "asm": "04376ebbd9581f69375d8135168555dc922fbb4574e499f6add67790b19d9159da0fc7164c1e4ed976aafa7d7a94d6b9f955d0d95eb0d4c2f30edcb24d57c2d3ee OP_CHECKSIG",
            "desc": "pk(04376ebbd9581f69375d8135168555dc922fbb4574e499f6add67790b19d9159da0fc7164c1e4ed976aafa7d7a94d6b9f955d0d95eb0d4c2f30edcb24d57c2d3ee)#8zjyumrs",
            "hex": "4104376ebbd9581f69375d8135168555dc922fbb4574e499f6add67790b19d9159da0fc7164c1e4ed976aafa7d7a94d6b9f955d0d95eb0d4c2f30edcb24d57c2d3eeac",
            "type": "pubkey"
          }
        }
      ],
      "hex": "01000000010000000000000000000000000000000000000000000000000000000000000000ffffffff0704ffff001d0164ffffffff0100f2052a01000000434104376ebbd9581f69375d8135168555dc922fbb4574e499f6add67790b19d9159da0fc7164c1e4ed976aafa7d7a94d6b9f955d0d95eb0d4c2f30edcb24d57c2d3eeac00000000"
    }
  ]
}