{
  "hash": "00000000ce45140ff4b62388dd98730531216285dd1a9ddabbd646ba615b0461",
  "confirmations": 50686,
  "height": 2412,
  "version": 1,
  "versionHex": "00000001",
  "merkleroot": "be525441abf0a005bcaa20f365eee5fdf39bfac33383abff6294f1353b4465c5",
  "time": 1233363475,
  "mediantime": 1233360910,
  "nonce": 3321048117,
  "bits": "1d00ffff",
  "difficulty": 1,
  "chainwork": "0000000000000000000000000000000000000000000000000000096d096d096d",
  "nTx": 1,
  "previousblockhash": "000000003c88883fbfb5820a0ce9af26ea2c1c5c11180dc75ad47e6d0e9f0877",
  "nextblockhash": "0000000041c7e25c7f8b295d1b50b0b7c99a25265fe41a35e362e963db1eba4a",
  "strippedsize": 215,
  "size": 215,
  "weight": 860,
  "tx": [
    {
      "txid": "be525441abf0a005bcaa20f365eee5fdf39bfac33383abff6294f1353b4465c5",
      "hash": "be525441abf0a005bcaa20f365eee5fdf39bfac33383abff6294f1353b4465c5",
      "version": 1,
      "size": 134,
      "vsize": 134,
      "weight": 536,
      "locktime": 0,
      "vin": [
        {
          "coinbase": "04ffff001d012f",
          "sequence": 4294967295
        }
      ],
      "vout": [
        {
          "value": 50.0,
          "n": 0,
          "scriptPubKey": {
            "asm": "04ba1fe2c7ea588553bf59b1290d61dc0459b427aa6de24dfb0f2e1c49cd9d72d200924c3a69808819660f76545b6986f3fa40f370bd57faa3dd9dcad31ad655f8 OP_CHECKSIG",
            "desc": "pk(04ba1fe2c7ea588553bf59b1290d61dc0459b427aa6de24dfb0f2e1c49cd9d72d200924c3a69808819660f76545b6986f3fa40f370bd57faa3dd9dcad31ad655f8)#8fphuy5q",
            "hex": "4104ba1fe2c7ea588553bf59b1290d61dc0459b427aa6de24dfb0f2e1c49cd9d72d200924c3a69808819660f76545b6986f3fa40f370bd57faa3dd9dcad31ad655f8ac",
            "type": "pubkey"
          }
        }
      ],
      "hex": "01000000010000000000000000000000000000000000000000000000000000000000000000ffffffff0704ffff001d012fffffffff0100f2052a01000000434104ba1fe2c7ea588553bf59b1290d61dc0459b427aa6de24dfb0f2e1c49cd9d72d200924c3a69808819660f76545b6986f3fa40f370bd57faa3dd9dcad31ad655f8ac00000000"
    }
  ]
}