{
  "hash": "000000004cc909a4fd8b26c905109985f5894b5e88a0137b0978d2ed55eff1e0",
  "confirmations": 46837,
  "height": 6261,
  "version": 1,
  "versionHex": "00000001",
  "merkleroot": "735ebb0dfd28b618e0d7bf2ed6fd85aea0b1e0a9fd767493ec3d3aebfe592fa9",
  "time": 1236143068,
  "mediantime": 1236137444,
  "nonce": 1928233473,
  "bits": "1d00ffff",
  "difficulty": 1,
  "chainwork": "0000000000000000000000000000000000000000000000000000187618761876",
  "nTx": 1,
  "previousblockhash": "0000000035d378f569eaac0e92e4a6133e4518dba47e4aaf3d86541a76c7c943",
  "nextblockhash": "00000000467c7149a3cd062c4bfa43df61f24815fbf2b67a90dea456614c1d02",
  "strippedsize": 216,
  "size": 216,
  "weight": 864,
  "tx": [
    {
      "txid": "735ebb0dfd28b618e0d7bf2ed6fd85aea0b1e0a9fd767493ec3d3aebfe592fa9",
      "hash": "735ebb0dfd28b618e0d7bf2ed6fd85aea0b1e0a9fd767493ec3d3aebfe592fa9",
      "version": 1,
      "size": 135,
      "vsize": 135,
      "weight": 540,
      "locktime": 0,
      "vin": [
        {
          "coinbase": "04ffff001d02cb09",
          "sequence": 4294967295
        }
      ],
      "vout": [
        {
          "value": 50.0,
          "n": 0,
          "scriptPubKey": {
            "asm": "04e02b3618a324e81d6d5c81fe8f935b80336e8762a7c3e6e8756a45d1075adcedb004b1e08f493c73dae82fd1c89966af838e58bc57b0331f8f50513074e84400 OP_CHECKSIG",
            "desc": "pk(04e02b3618a324e81d6d5c81fe8f935b80336e8762a7c3e6e8756a45d1075adcedb004b1e08f493c73dae82fd1c89966af838e58bc57b0331f8f50513074e84400)#tqcn536a",
            "hex": "4104e02b3618a324e81d6d5c81fe8f935b80336e8762a7c3e6e8756a45d1075adcedb004b1e08f493c73dae82fd1c89966af838e58bc57b0331f8f50513074e84400ac",
            "type": "pubkey"
          }
        }
      ],
      "hex": "01000000010000000000000000000000000000000000000000000000000000000000000000ffffffff0804ffff001d02cb09ffffffff0100f2052a01000000434104e02b3618a324e81d6d5c81fe8f935b80336e8762a7c3e6e8756a45d1075adcedb004b1e08f493c73dae82fd1c89966af838e58bc57b0331f8f50513074e84400ac00000000"
    }
  ]
}