{
  "hash": "000000004911facd3a8135d9ab337f67f65f4f92f73f3f295c924c0971116225",
  "confirmations": 44309,
  "height": 8789,
  "version": 1,
  "versionHex": "00000001",
  "merkleroot": "8b3da36e9b36459c1b02c86ca09f40c31321df1a82da4e38bb0ff397957cfc8c",
  "time": 1238092673,
  "mediantime": 1238088263,
  "nonce": 2010481156,
  "bits": "1d00ffff",
  "difficulty": 1,
  "chainwork": "0000000000000000000000000000000000000000000000000000225622562256",
  "nTx": 1,
  "previousblockhash": "000000003ef8641b45ab8c40166fff978a628ccdbd1cc4582859734ac968c87f",
  "nextblockhash": "000000005f2f4063102005cb8a9f940a12f771e6947e3157c77f77ec00de9507",
  "strippedsize": 216,
  "size": 216,
  "weight": 864,
  "tx": [
    {
      "txid": "8b3da36e9b36459c1b02c86ca09f40c31321df1a82da4e38bb0ff397957cfc8c",
      "hash": "8b3da36e9b36459c1b02c86ca09f40c31321df1a82da4e38bb0ff397957cfc8c",
      "version": 1,
      "size": 135,
      "vsize": 135,
      "weight": 540,
      "locktime": 0,
      "vin": [
        {
          "coinbase": "04ffff001d027102",
          "sequence": 4294967295
        }
      ],
      "vout": [
        {
          "value": 50.0,
          "n": 0,
          "scriptPubKey": {
            "asm": "0486b54078817d0020415b8693a24173e7f94790b8623d372132a7e4698f77ab7d10422b577ceb3b6d28a1147b7c445b51f5c6765fa8da748553ee9870ff840914 OP_CHECKSIG",
            "desc": "pk(0486b54078817d0020415b8693a24173e7f94790b8623d372132a7e4698f77ab7d10422b577ceb3b6d28a1147b7c445b51f5c6765fa8da748553ee9870ff840914)#5nl465ge",
            "hex": "410486b54078817d0020415b8693a24173e7f94790b8623d372132a7e4698f77ab7d10422b577ceb3b6d28a1147b7c445b51f5c6765fa8da748553ee9870ff840914ac",
            "type": "pubkey"
          }
        }
      ],
      "hex": "01000000010000000000000000000000000000000000000000000000000000000000000000ffffffff0804ffff001d027102ffffffff0100f2052a0100000043410486b54078817d0020415b8693a24173e7f94790b8623d372132a7e4698f77ab7d10422b577ceb3b6d28a1147b7c445b51f5c6765fa8da748553ee9870ff840914ac00000000"
    }
  ]
}