{
  "hash": "00000000f8758cf9b66dfb602fa55fc99a0abf83eac31243bcb7111094934005",
  "confirmations": 50348,
  "height": 2750,
  "version": 1,
  "versionHex": "00000001",
  "merkleroot": "7565fd6601d5218f49ffec876ea72dc6627a14b780901d9be1d021b858b068f1",
  "time": 1233596314,
  "mediantime": 1233592278,
  "nonce": 2452492824,
  "bits": "1d00ffff",
  "difficulty": 1,
  "chainwork": "00000000000000000000000000000000000000000000000000000abf0abf0abf",
  "nTx": 1,
  "previousblockhash": "000000001b001692070ab82419545619de22eacf258fa887c01a2128dc1b4488",
  "nextblockhash": "000000000c6232610bb9d7514e3ae66257d140f15983b472418e804014a4c514",
  "strippedsize": 216,
  "size": 216,
  "weight": 864,
  "tx": [
    {
      "txid": "7565fd6601d5218f49ffec876ea72dc6627a14b780901d9be1d021b858b068f1",
      "hash": "7565fd6601d5218f49ffec876ea72dc6627a14b780901d9be1d021b858b068f1",
      "version": 1,
      "size": 135,
      "vsize": 135,
      "weight": 540,
      "locktime": 0,
      "vin": [
        {
          "coinbase": "04ffff001d028305",
          "sequence": 4294967295
        }
      ],
      "vout": [
        {
          "value": 50.0,
          "n": 0,
          "scriptPubKey": {
            "asm": "04515db4d8132e39ed75c738bde67e763451bfacc032a67a51a4dcf95df9dce007252f62ff671bf70e6995030c2518987e8a6097e3f1bac4da9496cd242c63f597 OP_CHECKSIG",
            "desc": "pk(04515db4d8132e39ed75c738bde67e763451bfacc032a67a51a4dcf95df9dce007252f62ff671bf70e6995030c2518987e8a6097e3f1bac4da9496cd242c63f597)#slf90d9r",
            "hex": "4104515db4d8132e39ed75c738bde67e763451bfacc032a67a51a4dcf95df9dce007252f62ff671bf70e6995030c2518987e8a6097e3f1bac4da9496cd242c63f597ac",
            "type": "pubkey"
          }
        }
      ],
      "hex": "01000000010000000000000000000000000000000000000000000000000000000000000000ffffffff0804ffff001d028305ffffffff0100f2052a01000000434104515db4d8132e39ed75c738bde67e763451bfacc032a67a51a4dcf95df9dce007252f62ff671bf70e6995030c2518987e8a6097e3f1bac4da9496cd242c63f597ac00000000"
    }
  ]
}