{
  "hash": "00000000da6d67ed610bcdecfa6b0c12c9d98ec1c97db998fd07fd4a241c04d5",
  "confirmations": 47795,
  "height": 5303,
  "version": 1,
  "versionHex": "00000001",
  "merkleroot": "1d645db3df005f5e4d17d3689ef68ffca990de142960dfd36049114eeb3bc30d",
  "time": 1235366576,
  "mediantime": 1235361006,
  "nonce": 2514536227,
  "bits": "1d00ffff",
  "difficulty": 1,
  "chainwork": "000000000000000000000000000000000000000000000000000014b814b814b8",
  "nTx": 1,
  "previousblockhash": "00000000119a7724fd72488c6e100c18201f0d8e50db4ac468455392a0df09bc",
  "nextblockhash": "00000000d19d25323ac06516ea4c42759f77a6a167b9a4e041f0951d198d9c00",
  "strippedsize": 216,
  "size": 216,
  "weight": 864,
  "tx": [
    {
      "txid": "1d645db3df005f5e4d17d3689ef68ffca990de142960dfd36049114eeb3bc30d",
      "hash": "1d645db3df005f5e4d17d3689ef68ffca990de142960dfd36049114eeb3bc30d",
      "version": 1,
      "size": 135,
      "vsize": 135,
      "weight": 540,
      "locktime": 0,
      "vin": [
        {
          "coinbase": "04ffff001d022102",
          "sequence": 4294967295
        }
      ],
      "vout": [
        {
          "value": 50.0,
          "n": 0,
          "scriptPubKey": {
            "asm": "044c679252b302dea6d97b6fe334a0afa6149e42c5cb49a9109c43a61f6a4b42571b8cf0d8b1ea7078c3ddf9fd05dccdba541abcd1972e8d618c3f26e8d9e4a6de OP_CHECKSIG",
            "desc": "pk(044c679252b302dea6d97b6fe334a0afa6149e42c5cb49a9109c43a61f6a4b42571b8cf0d8b1ea7078c3ddf9fd05dccdba541abcd1972e8d618c3f26e8d9e4a6de)#4hta5400",
            "hex": "41044c679252b302dea6d97b6fe334a0afa6149e42c5cb49a9109c43a61f6a4b42571b8cf0d8b1ea7078c3ddf9fd05dccdba541abcd1972e8d618c3f26e8d9e4a6deac",
            "type": "pubkey"
          }
        }
      ],
      "hex": "01000000010000000000000000000000000000000000000000000000000000000000000000ffffffff0804ffff001d022102ffffffff0100f2052a010000004341044c679252b302dea6d97b6fe334a0afa6149e42c5cb49a9109c43a61f6a4b42571b8cf0d8b1ea7078c3ddf9fd05dccdba541abcd1972e8d618c3f26e8d9e4a6deac00000000"
    }
  ]
}