{
  "hash": "000000001a3cb4676a0e06619cf40a6277b228b7d992ac29a90dd9f598d23793",
  "confirmations": 50569,
  "height": 2529,
  "version": 1,
  "versionHex": "00000001",
  "merkleroot": "4e7f188c6819b62e94f7044df8c12a7c2cd1e314bfa8d5ea37725e035893c253",
  "time": 1233436290,
  "mediantime": 1233433093,
  "nonce": 600462873,
  "bits": "1d00ffff",
  "difficulty": 1,
  "chainwork": "000000000000000000000000000000000000000000000000000009e209e209e2",
  "nTx": 1,
  "previousblockhash": "00000000d5fe6c3e1933e102f80a06050503d39177c4055f30efa6e68f53e632",
  "nextblockhash": "00000000d177b625fedabda6866495f9c1817d65df8c4e06364a7955f4642ef3",
  "strippedsize": 216,
  "size": 216,
  "weight": 864,
  "tx": [
    {
      "txid": "4e7f188c6819b62e94f7044df8c12a7c2cd1e314bfa8d5ea37725e035893c253",
      "hash": "4e7f188c6819b62e94f7044df8c12a7c2cd1e314bfa8d5ea37725e035893c253",
      "version": 1,
      "size": 135,
      "vsize": 135,
      "weight": 540,
      "locktime": 0,
      "vin": [
        {
          "coinbase": "04ffff001d027001",
          "sequence": 4294967295
        }
      ],
      "vout": [
        {
          "value": 50.0,
          "n": 0,
          "scriptPubKey": {
            "asm": "04a8f4f1f8378eaf33f8c6ebb5d7a418a368e2e3226b6337d8a7e977d11476ea6aa8a6ab802190129afacc35deacd3ecf2236d10a7071585de778c557c6ca3dc9c OP_CHECKSIG",
            "desc": "pk(04a8f4f1f8378eaf33f8c6ebb5d7a418a368e2e3226b6337d8a7e977d11476ea6aa8a6ab802190129afacc35deacd3ecf2236d10a7071585de778c557c6ca3dc9c)#nqr7v75g",
            "hex": "4104a8f4f1f8378eaf33f8c6ebb5d7a418a368e2e3226b6337d8a7e977d11476ea6aa8a6ab802190129afacc35deacd3ecf2236d10a7071585de778c557c6ca3dc9cac",
            "type": "pubkey"
          }
        }
      ],
      "hex": "01000000010000000000000000000000000000000000000000000000000000000000000000ffffffff0804ffff001d027001ffffffff0100f2052a01000000434104a8f4f1f8378eaf33f8c6ebb5d7a418a368e2e3226b6337d8a7e977d11476ea6aa8a6ab802190129afacc35deacd3ecf2236d10a7071585de778c557c6ca3dc9cac00000000"
    }
  ]
}