{
  "hash": "00000000cae563ab1664f9981aadf913f9d8d92712763f43b5a683d13b9fd1ef",
  "confirmations": 50911,
  "height": 2187,
  "version": 1,
  "versionHex": "00000001",
  "merkleroot": "a9e604ec46d7a8df7ab5c10c7ce9b452b4f345969c80eb5f7fe3aae7ee993599",
  "time": 1233205135,
  "mediantime": 1233201115,
  "nonce": 348692020,
  "bits": "1d00ffff",
  "difficulty": 1,
  "chainwork": "0000000000000000000000000000000000000000000000000000088c088c088c",
  "nTx": 1,
  "previousblockhash": "00000000e23049eb5996fd8985fe1a4d033ef5bddc05a5e1cf5f6511398c15f5",
  "nextblockhash": "000000006b74f30b5794a5317f3997d249ec49021f459807ba95f935836cef5b",
  "strippedsize": 215,
  "size": 215,
  "weight": 860,
  "tx": [
    {
      "txid": "a9e604ec46d7a8df7ab5c10c7ce9b452b4f345969c80eb5f7fe3aae7ee993599",
      "hash": "a9e604ec46d7a8df7ab5c10c7ce9b452b4f345969c80eb5f7fe3aae7ee993599",
      "version": 1,
      "size": 134,
      "vsize": 134,
      "weight": 536,
      "locktime": 0,
      "vin": [
        {
          "coinbase": "04ffff001d011c",
          "sequence": 4294967295
        }
      ],
      "vout": [
        {
          "value": 50.0,
          "n": 0,
          "scriptPubKey": {
            "asm": "046a337b727a3bd413f8c6bebf93e51c5c945a05646f053baac1c81ca44f240a19a695918ae4020b6583337027c18a0b65273d5aa2bddfe72a8bbb4f8e66afad08 OP_CHECKSIG",
            "desc": "pk(046a337b727a3bd413f8c6bebf93e51c5c945a05646f053baac1c81ca44f240a19a695918ae4020b6583337027c18a0b65273d5aa2bddfe72a8bbb4f8e66afad08)#hp8qnskn",
            "hex": "41046a337b727a3bd413f8c6bebf93e51c5c945a05646f053baac1c81ca44f240a19a695918ae4020b6583337027c18a0b65273d5aa2bddfe72a8bbb4f8e66afad08ac",
            "type": "pubkey"
          }
        }
      ],
      "hex": "01000000010000000000000000000000000000000000000000000000000000000000000000ffffffff0704ffff001d011cffffffff0100f2052a010000004341046a337b727a3bd413f8c6bebf93e51c5c945a05646f053baac1c81ca44f240a19a695918ae4020b6583337027c18a0b65273d5aa2bddfe72a8bbb4f8e66afad08ac00000000"
    }
  ]
}