{
  "hash": "0000000013605b5a77f426511614e08bc3971820908a5dc1daee3351019ff1ca",
  "confirmations": 47244,
  "height": 5854,
  "version": 1,
  "versionHex": "00000001",
  "merkleroot": "1a9ec0e36d3fd4d7c46c78edd71f44761fbdbb2be3f13a912d02065cef3e8832",
  "time": 1235804441,
  "mediantime": 1235800827,
  "nonce": 1911841588,
  "bits": "1d00ffff",
  "difficulty": 1,
  "chainwork": "000000000000000000000000000000000000000000000000000016df16df16df",
  "nTx": 1,
  "previousblockhash": "000000002ffe1e277ca93864c175904d05aa20b03de7fee121c617eb6a465840",
  "nextblockhash": "00000000ceb4102b03d4965ec0820c9867380fdc4df1caa00839fec7b103e774",
  "strippedsize": 216,
  "size": 216,
  "weight": 864,
  "tx": [
    {
      "txid": "1a9ec0e36d3fd4d7c46c78edd71f44761fbdbb2be3f13a912d02065cef3e8832",
      "hash": "1a9ec0e36d3fd4d7c46c78edd71f44761fbdbb2be3f13a912d02065cef3e8832",
      "version": 1,
      "size": 135,
      "vsize": 135,
      "weight": 540,
      "locktime": 0,
      "vin": [
        {
          "coinbase": "04ffff001d02f401",
          "sequence": 4294967295
        }
      ],
      "vout": [
        {
          "value": 50.0,
          "n": 0,
          "scriptPubKey": {
            "asm": "0489923742c037f972bbb21b7111da2e4e4169f85df2bffe0bde44e12c4ed290a842848fb1d518c450cec0d94701b9062bc3ed7358164ca39911ef2c78db17c0e1 OP_CHECKSIG",
            "desc": "pk(0489923742c037f972bbb21b7111da2e4e4169f85df2bffe0bde44e12c4ed290a842848fb1d518c450cec0d94701b9062bc3ed7358164ca39911ef2c78db17c0e1)#5p35when",
            "hex": "410489923742c037f972bbb21b7111da2e4e4169f85df2bffe0bde44e12c4ed290a842848fb1d518c450cec0d94701b9062bc3ed7358164ca39911ef2c78db17c0e1ac",
            "type": "pubkey"
          }
        }
      ],
      "hex": "01000000010000000000000000000000000000000000000000000000000000000000000000ffffffff0804ffff001d02f401ffffffff0100f2052a0100000043410489923742c037f972bbb21b7111da2e4e4169f85df2bffe0bde44e12c4ed290a842848fb1d518c450cec0d94701b9062bc3ed7358164ca39911ef2c78db17c0e1ac00000000"
    }
  ]
}