{
  "hash": "000000006280c0aba2c1776df0eee0b1f6a773e4d47ae78ee134bcb6ed21bbb4",
  "confirmations": 47998,
  "height": 5100,
  "version": 1,
  "versionHex": "00000001",
  "merkleroot": "282de3351d06045060be030016eeb9d2039156816805f7fab989f8e14d97d76b",
  "time": 1235216369,
  "mediantime": 1235212952,
  "nonce": 3697492275,
  "bits": "1d00ffff",
  "difficulty": 1,
  "chainwork": "000000000000000000000000000000000000000000000000000013ed13ed13ed",
  "nTx": 1,
  "previousblockhash": "00000000ff7c514b53d455a10416fd00577efa1284e413e16dcdcb13419ecf0a",
  "nextblockhash": "00000000aabde39b81be3d18ddb1e925e3990f6c0f011e6ee6bdccf52ba32531",
  "strippedsize": 216,
  "size": 216,
  "weight": 864,
  "tx": [
    {
      "txid": "282de3351d06045060be030016eeb9d2039156816805f7fab989f8e14d97d76b",
      "hash": "282de3351d06045060be030016eeb9d2039156816805f7fab989f8e14d97d76b",
      "version": 1,
      "size": 135,
      "vsize": 135,
      "weight": 540,
      "locktime": 0,
      "vin": [
        {
          "coinbase": "04ffff001d02fc08",
          "sequence": 4294967295
        }
      ],
      "vout": [
        {
          "value": 50.0,
          "n": 0,
          "scriptPubKey": {
            "asm": "045564732d6ac2474f58efb387626e69b351c071ef02f559672ddd637a398c623a9eef6947ee4736360489d2e03e501618604892323259513433fe85c49e3164c7 OP_CHECKSIG",
            "desc": "pk(045564732d6ac2474f58efb387626e69b351c071ef02f559672ddd637a398c623a9eef6947ee4736360489d2e03e501618604892323259513433fe85c49e3164c7)#nm6qpcpj",
            "hex": "41045564732d6ac2474f58efb387626e69b351c071ef02f559672ddd637a398c623a9eef6947ee4736360489d2e03e501618604892323259513433fe85c49e3164c7ac",
            "type": "pubkey"
          }
        }
      ],
      "hex": "01000000010000000000000000000000000000000000000000000000000000000000000000ffffffff0804ffff001d02fc08ffffffff0100f2052a010000004341045564732d6ac2474f58efb387626e69b351c071ef02f559672ddd637a398c623a9eef6947ee4736360489d2e03e501618604892323259513433fe85c49e3164c7ac00000000"
    }
  ]
}