{
  "hash": "00000000f093cf2c5865f2bb851d5fa65ff1794b02fea4b0d90ff451e6e5d1c0",
  "confirmations": 51879,
  "height": 56,
  "version": 1,
  "versionHex": "00000001",
  "merkleroot": "fe9ccc6c8b44c67ab170135d4148d6424e748f7549547d8174d59b5127df0102",
  "time": 1231618848,
  "mediantime": 1231615503,
  "nonce": 1048211973,
  "bits": "1d00ffff",
  "difficulty": 1,
  "chainwork": "0000000000000000000000000000000000000000000000000000003900390039",
  "nTx": 1,
  "previousblockhash": "0000000046438b8d5beb6c9efc503dfec538927d2584d2447538276e687a5283",
  "nextblockhash": "000000004ff375707d7128dd2b080da4185727d534ea1b0aeac5877e00547391",
  "strippedsize": 215,
  "size": 215,
  "weight": 860,
  "tx": [
    {
      "txid": "fe9ccc6c8b44c67ab170135d4148d6424e748f7549547d8174d59b5127df0102",
      "hash": "fe9ccc6c8b44c67ab170135d4148d6424e748f7549547d8174d59b5127df0102",
      "version": 1,
      "size": 134,
      "vsize": 134,
      "weight": 536,
      "locktime": 0,
      "vin": [
        {
          "coinbase": "04ffff001d0174",
          "sequence": 4294967295
        }
      ],
      "vout": [
        {
          "value": 50.0,
          "n": 0,
          "scriptPubKey": {
            "asm": "0494a494a15a35b0fb7d69d03e1a0824d73933d57ca21236fdb4aa9412f19c4a5bf772b50a0544e743af767582523840eeee684aac0e21d5da4b6a41320564ac24 OP_CHECKSIG",
            "desc": "pk(0494a494a15a35b0fb7d69d03e1a0824d73933d57ca21236fdb4aa9412f19c4a5bf772b50a0544e743af767582523840eeee684aac0e21d5da4b6a41320564ac24)#rqwfcxyz",
            "hex": "410494a494a15a35b0fb7d69d03e1a0824d73933d57ca21236fdb4aa9412f19c4a5bf772b50a0544e743af767582523840eeee684aac0e21d5da4b6a41320564ac24ac",
            "type": "pubkey"
          }
        }
      ],
      "hex": "01000000010000000000000000000000000000000000000000000000000000000000000000ffffffff0704ffff001d0174ffffffff0100f2052a0100000043410494a494a15a35b0fb7d69d03e1a0824d73933d57ca21236fdb4aa9412f19c4a5bf772b50a0544e743af767582523840eeee684aac0e21d5da4b6a41320564ac24ac00000000"
    }
  ]
}