{
  "hash": "00000000341ea330b89347401d82a04afaeb8e7d7448e895730f443d093414b4",
  "confirmations": 48726,
  "height": 4372,
  "version": 1,
  "versionHex": "00000001",
  "merkleroot": "593a76f0a9dc6c7d1e646f3ea447a651ae3b1c9fc0b234300963bcb72ef52ed2",
  "time": 1234691045,
  "mediantime": 1234686815,
  "nonce": 2969525542,
  "bits": "1d00ffff",
  "difficulty": 1,
  "chainwork": "0000000000000000000000000000000000000000000000000000111511151115",
  "nTx": 1,
  "previousblockhash": "00000000bdc344ec1f9da4879c6e395e4f42b436e85de7a3d1bc40966ea1331b",
  "nextblockhash": "0000000001f331edb2c0da92e8a2da20c696429dba378121c40f7cbc97ddefeb",
  "strippedsize": 216,
  "size": 216,
  "weight": 864,
  "tx": [
    {
      "txid": "593a76f0a9dc6c7d1e646f3ea447a651ae3b1c9fc0b234300963bcb72ef52ed2",
      "hash": "593a76f0a9dc6c7d1e646f3ea447a651ae3b1c9fc0b234300963bcb72ef52ed2",
      "version": 1,
      "size": 135,
      "vsize": 135,
      "weight": 540,
      "locktime": 0,
      "vin": [
        {
          "coinbase": "04ffff001d02b900",
          "sequence": 4294967295
        }
      ],
      "vout": [
        {
          "value": 50.0,
          "n": 0,
          "scriptPubKey": {
            "asm": "04933143e5ae2ebe25d700f8df644cc2831988f7407f9da606f97a01212caaa3a128efea6bb232e8d9540d979043fe3a14fe802e25ffc8b46b664a6c2db3067723 OP_CHECKSIG",
            "desc": "pk(04933143e5ae2ebe25d700f8df644cc2831988f7407f9da606f97a01212caaa3a128efea6bb232e8d9540d979043fe3a14fe802e25ffc8b46b664a6c2db3067723)#hkrzyd6n",
            "hex": "4104933143e5ae2ebe25d700f8df644cc2831988f7407f9da606f97a01212caaa3a128efea6bb232e8d9540d979043fe3a14fe802e25ffc8b46b664a6c2db3067723ac",
            "type": "pubkey"
          }
        }
      ],
      "hex": "01000000010000000000000000000000000000000000000000000000000000000000000000ffffffff0804ffff001d02b900ffffffff0100f2052a01000000434104933143e5ae2ebe25d700f8df644cc2831988f7407f9da606f97a01212caaa3a128efea6bb232e8d9540d979043fe3a14fe802e25ffc8b46b664a6c2db3067723ac00000000"
    }
  ]
}