{
  "hash": "000000008752513a044502dd2d75009ff847b5703ce1985f3e9fa8647ec50bbb",
  "confirmations": 50851,
  "height": 2247,
  "version": 1,
  "versionHex": "00000001",
  "merkleroot": "77fe7a6eb5e98bf533cafb46b3b6863f0f1de629fc7f2c9726110e2a38615ba0",
  "time": 1233245164,
  "mediantime": 1233242823,
  "nonce": 9376830,
  "bits": "1d00ffff",
  "difficulty": 1,
  "chainwork": "000000000000000000000000000000000000000000000000000008c808c808c8",
  "nTx": 1,
  "previousblockhash": "000000005a2ba0f0644d2abd0066353c16fc79c4e0bb7b5ab4741e20bb491727",
  "nextblockhash": "00000000ac91f00435bdb716d610b2657a2bfccfea305c96253cf4ff4a4e0b72",
  "strippedsize": 215,
  "size": 215,
  "weight": 860,
  "tx": [
    {
      "txid": "77fe7a6eb5e98bf533cafb46b3b6863f0f1de629fc7f2c9726110e2a38615ba0",
      "hash": "77fe7a6eb5e98bf533cafb46b3b6863f0f1de629fc7f2c9726110e2a38615ba0",
      "version": 1,
      "size": 134,
      "vsize": 134,
      "weight": 536,
      "locktime": 0,
      "vin": [
        {
          "coinbase": "04ffff001d015e",
          "sequence": 4294967295
        }
      ],
      "vout": [
        {
          "value": 50.0,
          "n": 0,
          "scriptPubKey": {
            "asm": "0430a00f6bea440b3300030f3283d5af7759d6330bb2cca2f43ae2dd8f408984be119c8b687f1eccef0a72a7b9166d330d40b0d193758b4654467d084aae79fbf7 OP_CHECKSIG",
            "desc": "pk(0430a00f6bea440b3300030f3283d5af7759d6330bb2cca2f43ae2dd8f408984be119c8b687f1eccef0a72a7b9166d330d40b0d193758b4654467d084aae79fbf7)#l42tfct6",
            "hex": "410430a00f6bea440b3300030f3283d5af7759d6330bb2cca2f43ae2dd8f408984be119c8b687f1eccef0a72a7b9166d330d40b0d193758b4654467d084aae79fbf7ac",
            "type": "pubkey"
          }
        }
      ],
      "hex": "01000000010000000000000000000000000000000000000000000000000000000000000000ffffffff0704ffff001d015effffffff0100f2052a0100000043410430a00f6bea440b3300030f3283d5af7759d6330bb2cca2f43ae2dd8f408984be119c8b687f1eccef0a72a7b9166d330d40b0d193758b4654467d084aae79fbf7ac00000000"
    }
  ]
}