{
  "hash": "000000007c9d254b6f41c3be624e9117a1b9cbf07acb921204d6cbd8fa5a016f",
  "confirmations": 46951,
  "height": 6147,
  "version": 1,
  "versionHex": "00000001",
  "merkleroot": "6ac00aeba78c1f15331961ff980f3fe361955f6beada8371ebd0f20175f8bc18",
  "time": 1236046596,
  "mediantime": 1236043402,
  "nonce": 25011116,
  "bits": "1d00ffff",
  "difficulty": 1,
  "chainwork": "0000000000000000000000000000000000000000000000000000180418041804",
  "nTx": 1,
  "previousblockhash": "0000000051b2067a2096af03047da8eca346687555fe9ca67fb9a61c068c86e1",
  "nextblockhash": "000000000073c2eb2cb4bc5d9d66bbd99353ed34f10576c7b5afc507c91064ef",
  "strippedsize": 216,
  "size": 216,
  "weight": 864,
  "tx": [
    {
      "txid": "6ac00aeba78c1f15331961ff980f3fe361955f6beada8371ebd0f20175f8bc18",
      "hash": "6ac00aeba78c1f15331961ff980f3fe361955f6beada8371ebd0f20175f8bc18",
      "version": 1,
      "size": 135,
      "vsize": 135,
      "weight": 540,
      "locktime": 0,
      "vin": [
        {
          "coinbase": "04ffff001d02c809",
          "sequence": 4294967295
        }
      ],
      "vout": [
        {
          "value": 50.0,
          "n": 0,
          "scriptPubKey": {
            "asm": "04ba1d31873560bc2289aa82515d61d7b013407a32800c66d8c22cbebef66585032d5127be3967c870409ad9f7ce1b49cd08b803eb30dc6d75df4cfac494a97c38 OP_CHECKSIG",
            "desc": "pk(04ba1d31873560bc2289aa82515d61d7b013407a32800c66d8c22cbebef66585032d5127be3967c870409ad9f7ce1b49cd08b803eb30dc6d75df4cfac494a97c38)#agqqh240",
            "hex": "4104ba1d31873560bc2289aa82515d61d7b013407a32800c66d8c22cbebef66585032d5127be3967c870409ad9f7ce1b49cd08b803eb30dc6d75df4cfac494a97c38ac",
            "type": "pubkey"
          }
        }
      ],
      "hex": "01000000010000000000000000000000000000000000000000000000000000000000000000ffffffff0804ffff001d02c809ffffffff0100f2052a01000000434104ba1d31873560bc2289aa82515d61d7b013407a32800c66d8c22cbebef66585032d5127be3967c870409ad9f7ce1b49cd08b803eb30dc6d75df4cfac494a97c38ac00000000"
    }
  ]
}