{
  "hash": "00000000442ee800dbf46277ed4665e6565f3db02c26ef4a8b08ab177c32dff4",
  "confirmations": 52179,
  "height": 919,
  "version": 1,
  "versionHex": "00000001",
  "merkleroot": "798f879062edcec1a770f3f8109d4849643698a71b6a46a564e21084ea21ae9f",
  "time": 1232290924,
  "mediantime": 1232287750,
  "nonce": 3804380948,
  "bits": "1d00ffff",
  "difficulty": 1,
  "chainwork": "0000000000000000000000000000000000000000000000000000039803980398",
  "nTx": 1,
  "previousblockhash": "000000007912070eb7a6078158e549c6815f588dc2ad174a5f099edea2ef30b0",
  "nextblockhash": "000000008f9c053d69c4a892b23b510571982d381b8d6a43e2c71a3451d23c41",
  "strippedsize": 216,
  "size": 216,
  "weight": 864,
  "tx": [
    {
      "txid": "798f879062edcec1a770f3f8109d4849643698a71b6a46a564e21084ea21ae9f",
      "hash": "798f879062edcec1a770f3f8109d4849643698a71b6a46a564e21084ea21ae9f",
      "version": 1,
      "size": 135,
      "vsize": 135,
      "weight": 540,
      "locktime": 0,
      "vin": [
        {
          "coinbase": "04ffff001d02eb03",
          "sequence": 4294967295
        }
      ],
      "vout": [
        {
          "value": 50.0,
          "n": 0,
          "scriptPubKey": {
            "asm": "04ace975f0e3e40556680f2f1b3c21530f5df7bd9ac107a887d7b70377a333f87de1bf140378145624d97a8a8fc2fe504465c021cd463e801eaef46e2b7e2e362d OP_CHECKSIG",
            "desc": "pk(04ace975f0e3e40556680f2f1b3c21530f5df7bd9ac107a887d7b70377a333f87de1bf140378145624d97a8a8fc2fe504465c021cd463e801eaef46e2b7e2e362d)#wg883w4e",
            "hex": "4104ace975f0e3e40556680f2f1b3c21530f5df7bd9ac107a887d7b70377a333f87de1bf140378145624d97a8a8fc2fe504465c021cd463e801eaef46e2b7e2e362dac",
            "type": "pubkey"
          }
        }
      ],
      "hex": "01000000010000000000000000000000000000000000000000000000000000000000000000ffffffff0804ffff001d02eb03ffffffff0100f2052a01000000434104ace975f0e3e40556680f2f1b3c21530f5df7bd9ac107a887d7b70377a333f87de1bf140378145624d97a8a8fc2fe504465c021cd463e801eaef46e2b7e2e362dac00000000"
    }
  ]
}