{
  "hash": "000000005d34e1019de01057b28adc59b67dbf40aed8b42e9820a69c2da4eb68",
  "confirmations": 43704,
  "height": 9394,
  "version": 1,
  "versionHex": "00000001",
  "merkleroot": "5ed5063b65477a6b3e0c2ef983c30c8e619fb51ec4ce69d1ecdf9cf8ad6e1d41",
  "time": 1238547380,
  "mediantime": 1238542962,
  "nonce": 2250263060,
  "bits": "1d00ffff",
  "difficulty": 1,
  "chainwork": "000000000000000000000000000000000000000000000000000024b324b324b3",
  "nTx": 1,
  "previousblockhash": "0000000048d20048d2efa27669d42ee54da6be9eaab6010da9b89f7ed592f273",
  "nextblockhash": "000000005554bf1d8c846e738bb792a50fa1724e1e4111aa48fdddd8fe2b9b27",
  "strippedsize": 216,
  "size": 216,
  "weight": 864,
  "tx": [
    {
      "txid": "5ed5063b65477a6b3e0c2ef983c30c8e619fb51ec4ce69d1ecdf9cf8ad6e1d41",
      "hash": "5ed5063b65477a6b3e0c2ef983c30c8e619fb51ec4ce69d1ecdf9cf8ad6e1d41",
      "version": 1,
      "size": 135,
      "vsize": 135,
      "weight": 540,
      "locktime": 0,
      "vin": [
        {
          "coinbase": "04ffff001d028503",
          "sequence": 4294967295
        }
      ],
      "vout": [
        {
          "value": 50.0,
          "n": 0,
          "scriptPubKey": {
            "asm": "04876e95211554978489b1fd620feb7e7487b128260076db84887a2be3f8d9360121cce881b09257a98094cf5b09033352055caa7c02e9f206b62d5caf5c0f7a91 OP_CHECKSIG",
            "desc": "pk(04876e95211554978489b1fd620feb7e7487b128260076db84887a2be3f8d9360121cce881b09257a98094cf5b09033352055caa7c02e9f206b62d5caf5c0f7a91)#y0j7y0w6",
            "hex": "4104876e95211554978489b1fd620feb7e7487b128260076db84887a2be3f8d9360121cce881b09257a98094cf5b09033352055caa7c02e9f206b62d5caf5c0f7a91ac",
            "type": "pubkey"
          }
        }
      ],
      "hex": "01000000010000000000000000000000000000000000000000000000000000000000000000ffffffff0804ffff001d028503ffffffff0100f2052a01000000434104876e95211554978489b1fd620feb7e7487b128260076db84887a2be3f8d9360121cce881b09257a98094cf5b09033352055caa7c02e9f206b62d5caf5c0f7a91ac00000000"
    }
  ]
}