{
  "hash": "00000000fd4cc74ad1b37f149dfe5913118d1d8f457add57209fa14793a8d1c4",
  "confirmations": 47487,
  "height": 5611,
  "version": 1,
  "versionHex": "00000001",
  "merkleroot": "8c8e9a53801d8e6927d64209dca9a27d8fcfe4e984846449fcc4ec388a55fe78",
  "time": 1235613053,
  "mediantime": 1235608974,
  "nonce": 3961765158,
  "bits": "1d00ffff",
  "difficulty": 1,
  "chainwork": "000000000000000000000000000000000000000000000000000015ec15ec15ec",
  "nTx": 1,
  "previousblockhash": "00000000af59b841c5484dc334be66c7f5c8de6714f2bede973444f189d08de0",
  "nextblockhash": "00000000422c4bdd5a4216a9351ba060e9cba84686974b9ca940e5013fb4e725",
  "strippedsize": 216,
  "size": 216,
  "weight": 864,
  "tx": [
    {
      "txid": "8c8e9a53801d8e6927d64209dca9a27d8fcfe4e984846449fcc4ec388a55fe78",
      "hash": "8c8e9a53801d8e6927d64209dca9a27d8fcfe4e984846449fcc4ec388a55fe78",
      "version": 1,
      "size": 135,
      "vsize": 135,
      "weight": 540,
      "locktime": 0,
      "vin": [
        {
          "coinbase": "04ffff001d02cd07",
          "sequence": 4294967295
        }
      ],
      "vout": [
        {
          "value": 50.0,
          "n": 0,
          "scriptPubKey": {
            "asm": "04dd5e11f9cea6dbbaf4239fdb5b961a9b53e278007ecf16aba3ac8a94813147f57406d5df02ba16b30353bf3f3baefc36e03b176317f8b409b0e33468e3219f23 OP_CHECKSIG",
            "desc": "pk(04dd5e11f9cea6dbbaf4239fdb5b961a9b53e278007ecf16aba3ac8a94813147f57406d5df02ba16b30353bf3f3baefc36e03b176317f8b409b0e33468e3219f23)#g9nftnwv",
            "hex": "4104dd5e11f9cea6dbbaf4239fdb5b961a9b53e278007ecf16aba3ac8a94813147f57406d5df02ba16b30353bf3f3baefc36e03b176317f8b409b0e33468e3219f23ac",
            "type": "pubkey"
          }
        }
      ],
      "hex": "01000000010000000000000000000000000000000000000000000000000000000000000000ffffffff0804ffff001d02cd07ffffffff0100f2052a01000000434104dd5e11f9cea6dbbaf4239fdb5b961a9b53e278007ecf16aba3ac8a94813147f57406d5df02ba16b30353bf3f3baefc36e03b176317f8b409b0e33468e3219f23ac00000000"
    }
  ]
}