{
  "hash": "00000000d83489ee557ea8da7ac149fd54250c6afd8a782dc77428a37ca86cb0",
  "confirmations": 46479,
  "height": 6619,
  "version": 1,
  "versionHex": "00000001",
  "merkleroot": "157494725fdd0da3f993667b956fb53fbfa69ff28cc5aa1af5274b9560ec4bc4",
  "time": 1236418406,
  "mediantime": 1236414238,
  "nonce": 244202240,
  "bits": "1d00ffff",
  "difficulty": 1,
  "chainwork": "000000000000000000000000000000000000000000000000000019dc19dc19dc",
  "nTx": 1,
  "previousblockhash": "00000000ea99f0abd8798df94b3d09b0da09c41ef322c8303c4e89e8a7b91c07",
  "nextblockhash": "0000000066b25775f936f1f49ecf24a5f35a35276c00ab59b0dc4b4668554523",
  "strippedsize": 216,
  "size": 216,
  "weight": 864,
  "tx": [
    {
      "txid": "157494725fdd0da3f993667b956fb53fbfa69ff28cc5aa1af5274b9560ec4bc4",
      "hash": "157494725fdd0da3f993667b956fb53fbfa69ff28cc5aa1af5274b9560ec4bc4",
      "version": 1,
      "size": 135,
      "vsize": 135,
      "weight": 540,
      "locktime": 0,
      "vin": [
        {
          "coinbase": "04ffff001d027b05",
          "sequence": 4294967295
        }
      ],
      "vout": [
        {
          "value": 50.0,
          "n": 0,
          "scriptPubKey": {
            "asm": "0428e913f8375af631a412e0cb3cd645f5782f484a47e933c2893aba5356cade8d3d90b61ab340739f016894092f9d2c9c300d2881073fe704e23a765416bb2a28 OP_CHECKSIG",
            "desc": "pk(0428e913f8375af631a412e0cb3cd645f5782f484a47e933c2893aba5356cade8d3d90b61ab340739f016894092f9d2c9c300d2881073fe704e23a765416bb2a28)#sdrqukt0",
            "hex": "410428e913f8375af631a412e0cb3cd645f5782f484a47e933c2893aba5356cade8d3d90b61ab340739f016894092f9d2c9c300d2881073fe704e23a765416bb2a28ac",
            "type": "pubkey"
          }
        }
      ],
      "hex": "01000000010000000000000000000000000000000000000000000000000000000000000000ffffffff0804ffff001d027b05ffffffff0100f2052a0100000043410428e913f8375af631a412e0cb3cd645f5782f484a47e933c2893aba5356cade8d3d90b61ab340739f016894092f9d2c9c300d2881073fe704e23a765416bb2a28ac00000000"
    }
  ]
}