{
  "hash": "000000008ca2f9173c925ab91de3664a09f3b4f3c5b03c9edf62f0bddefe65c1",
  "confirmations": 46323,
  "height": 6775,
  "version": 1,
  "versionHex": "00000001",
  "merkleroot": "5637b2c3dcd54b9701e1952edf8c673e249a6143595fc7a7eae3a39a069a59a8",
  "time": 1236540821,
  "mediantime": 1236536889,
  "nonce": 3419093299,
  "bits": "1d00ffff",
  "difficulty": 1,
  "chainwork": "00000000000000000000000000000000000000000000000000001a781a781a78",
  "nTx": 1,
  "previousblockhash": "00000000e3d54bc8d811f23952e3544a33e3de7713cd31120ed743938edc78a6",
  "nextblockhash": "000000007feefb009f38a0a5cc4d0a709e34e40668e485c4de41218d9ab58d2f",
  "strippedsize": 216,
  "size": 216,
  "weight": 864,
  "tx": [
    {
      "txid": "5637b2c3dcd54b9701e1952edf8c673e249a6143595fc7a7eae3a39a069a59a8",
      "hash": "5637b2c3dcd54b9701e1952edf8c673e249a6143595fc7a7eae3a39a069a59a8",
      "version": 1,
      "size": 135,
      "vsize": 135,
      "weight": 540,
      "locktime": 0,
      "vin": [
        {
          "coinbase": "04ffff001d027808",
          "sequence": 4294967295
        }
      ],
      "vout": [
        {
          "value": 50.0,
          "n": 0,
          "scriptPubKey": {
            "asm": "04ecc48c4043358f59a19c2cb8b28f70e64cf15db1dbb871e4b58cc74be01e614a4c7ba7bf52607f1b3817e3fa0318945ee475e8cc2dc04d4994b58207deead688 OP_CHECKSIG",
            "desc": "pk(04ecc48c4043358f59a19c2cb8b28f70e64cf15db1dbb871e4b58cc74be01e614a4c7ba7bf52607f1b3817e3fa0318945ee475e8cc2dc04d4994b58207deead688)#qflrg29h",
            "hex": "4104ecc48c4043358f59a19c2cb8b28f70e64cf15db1dbb871e4b58cc74be01e614a4c7ba7bf52607f1b3817e3fa0318945ee475e8cc2dc04d4994b58207deead688ac",
            "type": "pubkey"
          }
        }
      ],
      "hex": "01000000010000000000000000000000000000000000000000000000000000000000000000ffffffff0804ffff001d027808ffffffff0100f2052a01000000434104ecc48c4043358f59a19c2cb8b28f70e64cf15db1dbb871e4b58cc74be01e614a4c7ba7bf52607f1b3817e3fa0318945ee475e8cc2dc04d4994b58207deead688ac00000000"
    }
  ]
}