{
  "hash": "00000000956edbf0b401da41c2bd35d0e45e50bb07658d35a77600829032cc9f",
  "confirmations": 46363,
  "height": 6735,
  "version": 1,
  "versionHex": "00000001",
  "merkleroot": "a2c5b3d41117c0414e411ca3f0f7c8551eed419146d55edb1769481288516ca2",
  "time": 1236507342,
  "mediantime": 1236503812,
  "nonce": 7020218,
  "bits": "1d00ffff",
  "difficulty": 1,
  "chainwork": "00000000000000000000000000000000000000000000000000001a501a501a50",
  "nTx": 1,
  "previousblockhash": "00000000bb38c0320408e87cc0f84b8545273e48dd7e0c19aa50abe7c1818b81",
  "nextblockhash": "000000002984ca7139a46c028209dc8c361422c9d1e08e83913b7863db3775e3",
  "strippedsize": 216,
  "size": 216,
  "weight": 864,
  "tx": [
    {
      "txid": "a2c5b3d41117c0414e411ca3f0f7c8551eed419146d55edb1769481288516ca2",
      "hash": "a2c5b3d41117c0414e411ca3f0f7c8551eed419146d55edb1769481288516ca2",
      "version": 1,
      "size": 135,
      "vsize": 135,
      "weight": 540,
      "locktime": 0,
      "vin": [
        {
          "coinbase": "04ffff001d020e01",
          "sequence": 4294967295
        }
      ],
      "vout": [
        {
          "value": 50.0,
          "n": 0,
          "scriptPubKey": {
            "asm": "042c45b8074b8cbab604c23db488899d7d75501880965451ca22891c29b74c12e494dcf055241758ac2194145ca1a3f2c0fd819784933bb6fb673f190bec163fa8 OP_CHECKSIG",
            "desc": "pk(042c45b8074b8cbab604c23db488899d7d75501880965451ca22891c29b74c12e494dcf055241758ac2194145ca1a3f2c0fd819784933bb6fb673f190bec163fa8)#jh2mhrnd",
            "hex": "41042c45b8074b8cbab604c23db488899d7d75501880965451ca22891c29b74c12e494dcf055241758ac2194145ca1a3f2c0fd819784933bb6fb673f190bec163fa8ac",
            "type": "pubkey"
          }
        }
      ],
      "hex": "01000000010000000000000000000000000000000000000000000000000000000000000000ffffffff0804ffff001d020e01ffffffff0100f2052a010000004341042c45b8074b8cbab604c23db488899d7d75501880965451ca22891c29b74c12e494dcf055241758ac2194145ca1a3f2c0fd819784933bb6fb673f190bec163fa8ac00000000"
    }
  ]
}