{
  "hash": "0000000005e0c213fa2cfdd581fd5a3a3e10ac72b602067f9abd93be6c5f4b45",
  "confirmations": 45209,
  "height": 7889,
  "version": 1,
  "versionHex": "00000001",
  "merkleroot": "748cd3b754c352744e8ecc44369dbe2d15dd47a6b2c10580eb5e0690afc6a963",
  "time": 1237382831,
  "mediantime": 1237380767,
  "nonce": 4022831643,
  "bits": "1d00ffff",
  "difficulty": 1,
  "chainwork": "00000000000000000000000000000000000000000000000000001ed21ed21ed2",
  "nTx": 1,
  "previousblockhash": "00000000f78bf2601acff984d735bb119ffa8018365b19005c5faffa48e91a98",
  "nextblockhash": "00000000396bd3ff8aecd3aa578b58821f2f9887d478dab6bcf1c0a1cc0143d1",
  "strippedsize": 216,
  "size": 216,
  "weight": 864,
  "tx": [
    {
      "txid": "748cd3b754c352744e8ecc44369dbe2d15dd47a6b2c10580eb5e0690afc6a963",
      "hash": "748cd3b754c352744e8ecc44369dbe2d15dd47a6b2c10580eb5e0690afc6a963",
      "version": 1,
      "size": 135,
      "vsize": 135,
      "weight": 540,
      "locktime": 0,
      "vin": [
        {
          "coinbase": "04ffff001d023f07",
          "sequence": 4294967295
        }
      ],
      "vout": [
        {
          "value": 50.0,
          "n": 0,
          "scriptPubKey": {
            "asm": "04758b5b7dc9911d96113ba883eeb5696a8b2f28f2268d5bb73fc20df515f2fae74ef196b9ddc34b415f324fd0aac070077bed734c520de369b39230cc6711fdab OP_CHECKSIG",
            "desc": "pk(04758b5b7dc9911d96113ba883eeb5696a8b2f28f2268d5bb73fc20df515f2fae74ef196b9ddc34b415f324fd0aac070077bed734c520de369b39230cc6711fdab)#ljmw36nf",
            "hex": "4104758b5b7dc9911d96113ba883eeb5696a8b2f28f2268d5bb73fc20df515f2fae74ef196b9ddc34b415f324fd0aac070077bed734c520de369b39230cc6711fdabac",
            "type": "pubkey"
          }
        }
      ],
      "hex": "01000000010000000000000000000000000000000000000000000000000000000000000000ffffffff0804ffff001d023f07ffffffff0100f2052a01000000434104758b5b7dc9911d96113ba883eeb5696a8b2f28f2268d5bb73fc20df515f2fae74ef196b9ddc34b415f324fd0aac070077bed734c520de369b39230cc6711fdabac00000000"
    }
  ]
}