{
  "hash": "00000000c1dc1debeb58522080c54a3d2e3c8610f2c39cf374f2782b12ea02e4",
  "confirmations": 50933,
  "height": 2165,
  "version": 1,
  "versionHex": "00000001",
  "merkleroot": "303f93597b481b40d344bde8a18178169149a5b9434dcbdbb90722fce717fe25",
  "time": 1233184909,
  "mediantime": 1233182051,
  "nonce": 23971602,
  "bits": "1d00ffff",
  "difficulty": 1,
  "chainwork": "0000000000000000000000000000000000000000000000000000087608760876",
  "nTx": 1,
  "previousblockhash": "00000000d8b214b9bb7a8c0fc48ccedce5c087434050775b5dc70dee5547dc06",
  "nextblockhash": "0000000068c27222034055d5bd2d4e3611442c3bc237fa1663bb76c46c1ac4ba",
  "strippedsize": 215,
  "size": 215,
  "weight": 860,
  "tx": [
    {
      "txid": "303f93597b481b40d344bde8a18178169149a5b9434dcbdbb90722fce717fe25",
      "hash": "303f93597b481b40d344bde8a18178169149a5b9434dcbdbb90722fce717fe25",
      "version": 1,
      "size": 134,
      "vsize": 134,
      "weight": 536,
      "locktime": 0,
      "vin": [
        {
          "coinbase": "04ffff001d0173",
          "sequence": 4294967295
        }
      ],
      "vout": [
        {
          "value": 50.0,
          "n": 0,
          "scriptPubKey": {
            "asm": "042254a0a97d64f08455a813700efa8216730761715a5e0fe3a8845cff505689d079ea1e77c5790d4b7d75e3f5c4af56fa510d296d6668c16ac8a0056d27c687c7 OP_CHECKSIG",
            "desc": "pk(042254a0a97d64f08455a813700efa8216730761715a5e0fe3a8845cff505689d079ea1e77c5790d4b7d75e3f5c4af56fa510d296d6668c16ac8a0056d27c687c7)#axa3hrpc",
            "hex": "41042254a0a97d64f08455a813700efa8216730761715a5e0fe3a8845cff505689d079ea1e77c5790d4b7d75e3f5c4af56fa510d296d6668c16ac8a0056d27c687c7ac",
            "type": "pubkey"
          }
        }
      ],
      "hex": "01000000010000000000000000000000000000000000000000000000000000000000000000ffffffff0704ffff001d0173ffffffff0100f2052a010000004341042254a0a97d64f08455a813700efa8216730761715a5e0fe3a8845cff505689d079ea1e77c5790d4b7d75e3f5c4af56fa510d296d6668c16ac8a0056d27c687c7ac00000000"
    }
  ]
}