{
  "hash": "00000000ae29af171bbf72e365e4b992ce739a2a2d0244a68bfc2d441ff1e6ea",
  "confirmations": 44861,
  "height": 8237,
  "version": 1,
  "versionHex": "00000001",
  "merkleroot": "f34bbb591947df5f8f33b118d8bb4c13c010f264e4191921c7358fe81ec84eb3",
  "time": 1237688416,
  "mediantime": 1237684227,
  "nonce": 3078159618,
  "bits": "1d00ffff",
  "difficulty": 1,
  "chainwork": "0000000000000000000000000000000000000000000000000000202e202e202e",
  "nTx": 1,
  "previousblockhash": "000000004ca54b877e3c8777063c370ae5f3ff767456b74aa6f700b4424bf219",
  "nextblockhash": "00000000303839ad3b20c27785df6b605741dbf86c6bbbabff3a3aec9639f020",
  "strippedsize": 216,
  "size": 216,
  "weight": 864,
  "tx": [
    {
      "txid": "f34bbb591947df5f8f33b118d8bb4c13c010f264e4191921c7358fe81ec84eb3",
      "hash": "f34bbb591947df5f8f33b118d8bb4c13c010f264e4191921c7358fe81ec84eb3",
      "version": 1,
      "size": 135,
      "vsize": 135,
      "weight": 540,
      "locktime": 0,
      "vin": [
        {
          "coinbase": "04ffff001d025303",
          "sequence": 4294967295
        }
      ],
      "vout": [
        {
          "value": 50.0,
          "n": 0,
          "scriptPubKey": {
            "asm": "043ce510b9b309d334f59ee2e82dda2c9df277c6a272d42425e18ba2ce672d528d724cd3a6aa6bdd41893ad652a1e2282929e2cf9f50f3a00f8c924262e37b7631 OP_CHECKSIG",
            "desc": "pk(043ce510b9b309d334f59ee2e82dda2c9df277c6a272d42425e18ba2ce672d528d724cd3a6aa6bdd41893ad652a1e2282929e2cf9f50f3a00f8c924262e37b7631)#7vrmzx2z",
            "hex": "41043ce510b9b309d334f59ee2e82dda2c9df277c6a272d42425e18ba2ce672d528d724cd3a6aa6bdd41893ad652a1e2282929e2cf9f50f3a00f8c924262e37b7631ac",
            "type": "pubkey"
          }
        }
      ],
      "hex": "01000000010000000000000000000000000000000000000000000000000000000000000000ffffffff0804ffff001d025303ffffffff0100f2052a010000004341043ce510b9b309d334f59ee2e82dda2c9df277c6a272d42425e18ba2ce672d528d724cd3a6aa6bdd41893ad652a1e2282929e2cf9f50f3a00f8c924262e37b7631ac00000000"
    }
  ]
}