{
  "hash": "00000000ec229427b2dbcb712750a254cadb5a1b5da4df5c521fc3492985aa20",
  "confirmations": 44665,
  "height": 8433,
  "version": 1,
  "versionHex": "00000001",
  "merkleroot": "933ca715e89cddee2a5c7e54c4c27ad707e4057247ac50fbc4fd5e00d17d479f",
  "time": 1237819474,
  "mediantime": 1237815453,
  "nonce": 153914172,
  "bits": "1d00ffff",
  "difficulty": 1,
  "chainwork": "000000000000000000000000000000000000000000000000000020f220f220f2",
  "nTx": 1,
  "previousblockhash": "0000000039f573d63702926787950fd543889b60e4c434dd5be4e855afeb89b4",
  "nextblockhash": "00000000111a049c708db300a8746bb8308d6e62dcbab2ca5665875040bf77a4",
  "strippedsize": 215,
  "size": 215,
  "weight": 860,
  "tx": [
    {
      "txid": "933ca715e89cddee2a5c7e54c4c27ad707e4057247ac50fbc4fd5e00d17d479f",
      "hash": "933ca715e89cddee2a5c7e54c4c27ad707e4057247ac50fbc4fd5e00d17d479f",
      "version": 1,
      "size": 134,
      "vsize": 134,
      "weight": 536,
      "locktime": 0,
      "vin": [
        {
          "coinbase": "04ffff001d0125",
          "sequence": 4294967295
        }
      ],
      "vout": [
        {
          "value": 50.0,
          "n": 0,
          "scriptPubKey": {
            "asm": "041a37c7af3b465b9bb6bc835ccb9f993c168d2003ceab4dc148670af87b00a6e883fab735558aafbb98f9f8123da1175b3c932ad0a95cef93b20a9a9910c55b4e OP_CHECKSIG",
            "desc": "pk(041a37c7af3b465b9bb6bc835ccb9f993c168d2003ceab4dc148670af87b00a6e883fab735558aafbb98f9f8123da1175b3c932ad0a95cef93b20a9a9910c55b4e)#22hma6fp",
            "hex": "41041a37c7af3b465b9bb6bc835ccb9f993c168d2003ceab4dc148670af87b00a6e883fab735558aafbb98f9f8123da1175b3c932ad0a95cef93b20a9a9910c55b4eac",
            "type": "pubkey"
          }
        }
      ],
      "hex": "01000000010000000000000000000000000000000000000000000000000000000000000000ffffffff0704ffff001d0125ffffffff0100f2052a010000004341041a37c7af3b465b9bb6bc835ccb9f993c168d2003ceab4dc148670af87b00a6e883fab735558aafbb98f9f8123da1175b3c932ad0a95cef93b20a9a9910c55b4eac00000000"
    }
  ]
}