{
  "hash": "00000000de73e06a0aba72009d81c96b55b470400b4bbe784df0286f4ee29e96",
  "confirmations": 46642,
  "height": 6456,
  "version": 1,
  "versionHex": "00000001",
  "merkleroot": "9589f4218d21c0aaa374f363f5906166da376f533a38ef586993468e8258e77c",
  "time": 1236297007,
  "mediantime": 1236294581,
  "nonce": 2237878820,
  "bits": "1d00ffff",
  "difficulty": 1,
  "chainwork": "0000000000000000000000000000000000000000000000000000193919391939",
  "nTx": 2,
  "previousblockhash": "00000000fd1e812fa64ecb5bf83c061d632432bddfbfb0675074d6d06267a5a1",
  "nextblockhash": "000000007660d1d51a1bbbbc4fa973795056600b7e62b953f5a95b9f2a194372",
  "strippedsize": 1169,
  "size": 1169,
  "weight": 4676,
  "tx": [
    {
      "txid": "c586165ea31a5f63b44f6036b438a5038b882418b0cf165b884f8732c7a03aa5",
      "hash": "c586165ea31a5f63b44f6036b438a5038b882418b0cf165b884f8732c7a03aa5",
      "version": 1,
      "size": 135,
      "vsize": 135,
      "weight": 540,
      "locktime": 0,
      "vin": [
        {
          "coinbase": "04ffff001d02ab02",
          "sequence": 4294967295
        }
      ],
      "vout": [
        {
          "value": 50.0,
          "n": 0,
          "scriptPubKey": {
            "asm": "0494c66207e2a876a6f748457b42089a6405a2e5c78f4b481fa342505b2ed13d9c3ddbc14ff84c8cc4c413f5aea07a904988a6a75bc5cb9f387d6ac3cea07e560c OP_CHECKSIG",
            "desc": "pk(0494c66207e2a876a6f748457b42089a6405a2e5c78f4b481fa342505b2ed13d9c3ddbc14ff84c8cc4c413f5aea07a904988a6a75bc5cb9f387d6ac3cea07e560c)#z0cz7vqd",
            "hex": "410494c66207e2a876a6f748457b42089a6405a2e5c78f4b481fa342505b2ed13d9c3ddbc14ff84c8cc4c413f5aea07a904988a6a75bc5cb9f387d6ac3cea07e560cac",
            "type": "pubkey"
          }
        }
      ],
      "hex": "01000000010000000000000000000000000000000000000000000000000000000000000000ffffffff0804ffff001d02ab02ffffffff0100f2052a0100000043410494c66207e2a876a6f748457b42089a6405a2e5c78f4b481fa342505b2ed13d9c3ddbc14ff84c8cc4c413f5aea07a904988a6a75bc5cb9f387d6ac3cea07e560cac00000000"
    },
    {
      "txid": "cdbeb55fd9895a5409f6bc19608fa51cc7b2aca9d068e5908da27003c60f6970",
      "hash": "cdbeb55fd9895a5409f6bc19608fa51cc7b2aca9d068e5908da27003c60f6970",
      "version": 1,
      "size": 953,
      "vsize": 953,
      "weight": 3812,
      "locktime": 0,
      "vin": [
        {
          "txid": "9feb6b90324dfdf88df8f6be1bcd18375c60be76e9dd4c33557e0113050744aa",
          "vout": 0,
          "scriptSig": {
            "asm": "3044022056d64fca0480407af36007db275f0bf8f04bd0e514f5842d1da826d4fa71f56d022057e32978b92bdc42a8368c6dfcafc87196780f5167236b267112ccab75f32255[ALL]",
            "hex": "473044022056d64fca0480407af36007db275f0bf8f04bd0e514f5842d1da826d4fa71f56d022057e32978b92bdc42a8368c6dfcafc87196780f5167236b267112ccab75f3225501"
          },
          "sequence": 4294967295
        },
        {
          "txid": "9d331b3b6c861487ec75fde5cce8e633054170a1a3cf215e517cefa52f7258cc",
          "vout": 0,
          "scriptSig": {
            "asm": "3044022008aa1a742f0e65265fc3e14b2bd02e6b6d0e3d3cd351ff7938db94d7e8cfb7f902201b9deeaff2d1355a5978b8b32d89e143343c32238c6401846cb3ffa15f0e4ac6[ALL]",
            "hex": "473044022008aa1a742f0e65265fc3e14b2bd02e6b6d0e3d3cd351ff7938db94d7e8cfb7f902201b9deeaff2d1355a5978b8b32d89e143343c32238c6401846cb3ffa15f0e4ac601"
          },
          "sequence": 4294967295
        },
        {
          "txid": "9f3adc3373d55f89e42ef6400f9d1b79729696b8ea8ca3b82db4aae0df8ee63c",
          "vout": 0,
          "scriptSig": {
            "asm": "30450221008d15abfbbf8ff600980ed3db392f50da1dd390842cb4b7f71ae2378036be6af302203edf1649480c887293f2f1d4e12f9bb5d53c000fa4a3e1940cf8653a8dc04f05[ALL]",
            "hex": "4830450221008d15abfbbf8ff600980ed3db392f50da1dd390842cb4b7f71ae2378036be6af302203edf1649480c887293f2f1d4e12f9bb5d53c000fa4a3e1940cf8653a8dc04f0501"
          },
          "sequence": 4294967295
        },
        {
          "txid": "590af9a37c513bb45c401e06269a48e230f53c3e931c4f652c78d19777f51544",
          "vout": 0,
          "scriptSig": {
            "asm": "304402205fdf4db150feb7a4558fe17f2b610b332b41fd94644251a6fc35b3ff10f7385c02202dd50db5f75a250cfb78f7daf19152da4220a820dedb9c44ab62e884499eca21[ALL]",
            "hex": "47304402205fdf4db150feb7a4558fe17f2b610b332b41fd94644251a6fc35b3ff10f7385c02202dd50db5f75a250cfb78f7daf19152da4220a820dedb9c44ab62e884499eca2101"
          },
          "sequence": 4294967295
        },
        {
          "txid": "c0cec13112c0448ee99260dbce16e055733e61cf3f38880fb1434f61cef7d7b5",
          "vout": 0,
          "scriptSig": {
            "asm": "3045022100c0f1683c84e70bb490ca2d4e7b827909243fbd11ac7885422b9aeacd4521eb8502206bc47a542fce7ef9856cbed71f99b658c2ec42921e16a291556ff736f12e79cf[ALL]",
            "hex": "483045022100c0f1683c84e70bb490ca2d4e7b827909243fbd11ac7885422b9aeacd4521eb8502206bc47a542fce7ef9856cbed71f99b658c2ec42921e16a291556ff736f12e79cf01"
          },
          "sequence": 4294967295
        },
        {
          "txid": "b73128ae8ef2242bf9a0b29dc554077a552b68aefa49004f0053cdf46e2eed38",
          "vout": 0,
          "scriptSig": {
            "asm": "3044022006b789f6a549477e6df5b19f9ede7348096119f9859881e203e28b020d7d563a02200e83ee538cf376aee426eb1b8ba17dcf034615e1ef248f3faa8ea9a4b8bc75ac[ALL]",
            "hex": "473044022006b789f6a549477e6df5b19f9ede7348096119f9859881e203e28b020d7d563a02200e83ee538cf376aee426eb1b8ba17dcf034615e1ef248f3faa8ea9a4b8bc75ac01"
          },
          "sequence": 4294967295
        },
        {
          "txid": "7cd7e74ef22fa12a9ae6c68aa591f7ba2ae02eb7eb59d68ef03263354edd7619",
          "vout": 0,
          "scriptSig": {
            "asm": "3045022100e4dcfa0f479a6ef7980d7b078e758517cd6e4c5e1436a169f3617fafa6b2354902202e514d9a8dca880610cfcbf93ba0c9aafd9b09f16d059392f37b880b222efa2c[ALL]",
            "hex": "483045022100e4dcfa0f479a6ef7980d7b078e758517cd6e4c5e1436a169f3617fafa6b2354902202e514d9a8dca880610cfcbf93ba0c9aafd9b09f16d059392f37b880b222efa2c01"
          },
          "sequence": 4294967295
        },
        {
          "txid": "9c3a06101da3f81a457f851e0d4bda1d103413dae0b17559b52949c710f95154",
          "vout": 0,
          "scriptSig": {
            "asm": "3046022100e4c076835cc7237a499c7e2ad6d760db4200cae1228779586e95882f70c59367022100b1b38fb24b91c176e99636c1e7a864e93aa75d5730dda22a5c0cb30a84dc07fb[ALL]",
            "hex": "493046022100e4c076835cc7237a499c7e2ad6d760db4200cae1228779586e95882f70c59367022100b1b38fb24b91c176e99636c1e7a864e93aa75d5730dda22a5c0cb30a84dc07fb01"
          },
          "sequence": 4294967295
        }
      ],
      "vout": [
        {
          "value": 400.0,
          "n": 0,
          "scriptPubKey": {
            "asm": "OP_DUP OP_HASH160 12ab8dc588ca9d5787dde7eb29569da63c3a238c OP_EQUALVERIFY OP_CHECKSIG",
            "desc": "addr(12higDjoCCNXSA95xZMWUdPvXNmkAduhWv)#zn56zju2",
            "hex": "76a91412ab8dc588ca9d5787dde7eb29569da63c3a238c88ac",
            "address": "12higDjoCCNXSA95xZMWUdPvXNmkAduhWv",
            "type": "pubkeyhash"
          }
        }
      ],
      "fee": 0.0,
      "hex": "0100000008aa44070513017e55334cdde976be605c3718cd1bbef6f88df8fd4d32906beb9f0000000048473044022056d64fca0480407af36007db275f0bf8f04bd0e514f5842d1da826d4fa71f56d022057e32978b92bdc42a8368c6dfcafc87196780f5167236b267112ccab75f3225501ffffffffcc58722fa5ef7c515e21cfa3a170410533e6e8cce5fd75ec8714866c3b1b339d0000000048473044022008aa1a742f0e65265fc3e14b2bd02e6b6d0e3d3cd351ff7938db94d7e8cfb7f902201b9deeaff2d1355a5978b8b32d89e143343c32238c6401846cb3ffa15f0e4ac601ffffffff3ce68edfe0aab42db8a38ceab8969672791b9d0f40f62ee4895fd57333dc3a9f00000000494830450221008d15abfbbf8ff600980ed3db392f50da1dd390842cb4b7f71ae2378036be6af302203edf1649480c887293f2f1d4e12f9bb5d53c000fa4a3e1940cf8653a8dc04f0501ffffffff4415f57797d1782c654f1c933e3cf530e2489a26061e405cb43b517ca3f90a59000000004847304402205fdf4db150feb7a4558fe17f2b610b332b41fd94644251a6fc35b3ff10f7385c02202dd50db5f75a250cfb78f7daf19152da4220a820dedb9c44ab62e884499eca2101ffffffffb5d7f7ce614f43b10f88383fcf613e7355e016cedb6092e98e44c01231c1cec00000000049483045022100c0f1683c84e70bb490ca2d4e7b827909243fbd11ac7885422b9aeacd4521eb8502206bc47a542fce7ef9856cbed71f99b658c2ec42921e16a291556ff736f12e79cf01ffffffff38ed2e6ef4cd53004f0049faae682b557a0754c59db2a0f92b24f28eae2831b70000000048473044022006b789f6a549477e6df5b19f9ede7348096119f9859881e203e28b020d7d563a02200e83ee538cf376aee426eb1b8ba17dcf034615e1ef248f3faa8ea9a4b8bc75ac01ffffffff1976dd4e356332f08ed659ebb72ee02abaf791a58ac6e69a2aa12ff24ee7d77c0000000049483045022100e4dcfa0f479a6ef7980d7b078e758517cd6e4c5e1436a169f3617fafa6b2354902202e514d9a8dca880610cfcbf93ba0c9aafd9b09f16d059392f37b880b222efa2c01ffffffff5451f910c74929b55975b1e0da1334101dda4b0d1e857f451af8a31d10063a9c000000004a493046022100e4c076835cc7237a499c7e2ad6d760db4200cae1228779586e95882f70c59367022100b1b38fb24b91c176e99636c1e7a864e93aa75d5730dda22a5c0cb30a84dc07fb01ffffffff0100902f50090000001976a91412ab8dc588ca9d5787dde7eb29569da63c3a238c88ac00000000"
    }
  ]
}