{
  "hash": "000000004ae563e322b2a2b6cd268695e30c28e1262377cf52382b50edbbf623",
  "confirmations": 47876,
  "height": 5222,
  "version": 1,
  "versionHex": "00000001",
  "merkleroot": "aefb76bee203ab0f87d63be956b7f7056d95885f5385b3a8a828619031ccfc83",
  "time": 1235302968,
  "mediantime": 1235298745,
  "nonce": 2022047511,
  "bits": "1d00ffff",
  "difficulty": 1,
  "chainwork": "0000000000000000000000000000000000000000000000000000146714671467",
  "nTx": 1,
  "previousblockhash": "000000001700f2e36768136bdfe7afc1e00eab22d262b0b5b658a0d78efa1f5b",
  "nextblockhash": "00000000ac875a3840c83257ecba20fd9393b19666dff3bc2b2461da99a6a88e",
  "strippedsize": 216,
  "size": 216,
  "weight": 864,
  "tx": [
    {
      "txid": "aefb76bee203ab0f87d63be956b7f7056d95885f5385b3a8a828619031ccfc83",
      "hash": "aefb76bee203ab0f87d63be956b7f7056d95885f5385b3a8a828619031ccfc83",
      "version": 1,
      "size": 135,
      "vsize": 135,
      "weight": 540,
      "locktime": 0,
      "vin": [
        {
          "coinbase": "04ffff001d02d100",
          "sequence": 4294967295
        }
      ],
      "vout": [
        {
          "value": 50.0,
          "n": 0,
          "scriptPubKey": {
            "asm": "0445e8fba14d8e84975767c6a9be37b5009863031750a7f9e4d0f25b503defc35adf13f0286c8fb3aba474de01d2155719d8b0121e77622b6e38cfec5b269342db OP_CHECKSIG",
            "desc": "pk(0445e8fba14d8e84975767c6a9be37b5009863031750a7f9e4d0f25b503defc35adf13f0286c8fb3aba474de01d2155719d8b0121e77622b6e38cfec5b269342db)#d6luqxfq",
            "hex": "410445e8fba14d8e84975767c6a9be37b5009863031750a7f9e4d0f25b503defc35adf13f0286c8fb3aba474de01d2155719d8b0121e77622b6e38cfec5b269342dbac",
            "type": "pubkey"
          }
        }
      ],
      "hex": "01000000010000000000000000000000000000000000000000000000000000000000000000ffffffff0804ffff001d02d100ffffffff0100f2052a0100000043410445e8fba14d8e84975767c6a9be37b5009863031750a7f9e4d0f25b503defc35adf13f0286c8fb3aba474de01d2155719d8b0121e77622b6e38cfec5b269342dbac00000000"
    }
  ]
}