{
  "hash": "0000000053fe3cb3bea4439a1b901b16a68ad0a790b82c3cb0bae6be33e9d14a",
  "confirmations": 52374,
  "height": 724,
  "version": 1,
  "versionHex": "00000001",
  "merkleroot": "daf9ef728b9e8bdc41bf1e8cc6d34b097250bb52662ff42a1c6f56f33cbd9621",
  "time": 1232129602,
  "mediantime": 1232125432,
  "nonce": 813601326,
  "bits": "1d00ffff",
  "difficulty": 1,
  "chainwork": "000000000000000000000000000000000000000000000000000002d502d502d5",
  "nTx": 1,
  "previousblockhash": "000000000452ee8a3bea263fc991f365968043fc5cdcbf581c88516f573355ee",
  "nextblockhash": "0000000089c680170ab1ea7f17a4df3ee03ee6d66a3c843ad83e41c36cc2e4ea",
  "strippedsize": 215,
  "size": 215,
  "weight": 860,
  "tx": [
    {
      "txid": "daf9ef728b9e8bdc41bf1e8cc6d34b097250bb52662ff42a1c6f56f33cbd9621",
      "hash": "daf9ef728b9e8bdc41bf1e8cc6d34b097250bb52662ff42a1c6f56f33cbd9621",
      "version": 1,
      "size": 134,
      "vsize": 134,
      "weight": 536,
      "locktime": 0,
      "vin": [
        {
          "coinbase": "04ffff001d0131",
          "sequence": 4294967295
        }
      ],
      "vout": [
        {
          "value": 50.0,
          "n": 0,
          "scriptPubKey": {
            "asm": "04a16adfa80418fd13e8f129a096b5a7a15c2e859aea3577a8840e70bea5a5e510c6df689e23e4e05d9779b48fa332da993fc3c7e6c45633baf7d57bae45d060be OP_CHECKSIG",
            "desc": "pk(04a16adfa80418fd13e8f129a096b5a7a15c2e859aea3577a8840e70bea5a5e510c6df689e23e4e05d9779b48fa332da993fc3c7e6c45633baf7d57bae45d060be)#yufaxkwf",
            "hex": "4104a16adfa80418fd13e8f129a096b5a7a15c2e859aea3577a8840e70bea5a5e510c6df689e23e4e05d9779b48fa332da993fc3c7e6c45633baf7d57bae45d060beac",
            "type": "pubkey"
          }
        }
      ],
      "hex": "01000000010000000000000000000000000000000000000000000000000000000000000000ffffffff0704ffff001d0131ffffffff0100f2052a01000000434104a16adfa80418fd13e8f129a096b5a7a15c2e859aea3577a8840e70bea5a5e510c6df689e23e4e05d9779b48fa332da993fc3c7e6c45633baf7d57bae45d060beac00000000"
    }
  ]
}