{
  "hash": "00000000ea67fe5a0ff9587f7a814c6b13fe902f386b53a62ac5728e8e58a16d",
  "confirmations": 52094,
  "height": 239,
  "version": 1,
  "versionHex": "00000001",
  "merkleroot": "ec520e569d7630f859ee8eb716ffdd4c910d6b64db1579c38620ff1a69b52198",
  "time": 1231783052,
  "mediantime": 1231780094,
  "nonce": 4102559785,
  "bits": "1d00ffff",
  "difficulty": 1,
  "chainwork": "000000000000000000000000000000000000000000000000000000f000f000f0",
  "nTx": 1,
  "previousblockhash": "00000000d153d95cdb1fbdc9bd7f4e9fdbd784af7e0b0536a390d8d5b2c38a8d",
  "nextblockhash": "00000000bdb3f5b06d2b5a55b85758d1df4a7cf49afe075f94fff5d1bbea4aa8",
  "strippedsize": 216,
  "size": 216,
  "weight": 864,
  "tx": [
    {
      "txid": "ec520e569d7630f859ee8eb716ffdd4c910d6b64db1579c38620ff1a69b52198",
      "hash": "ec520e569d7630f859ee8eb716ffdd4c910d6b64db1579c38620ff1a69b52198",
      "version": 1,
      "size": 135,
      "vsize": 135,
      "weight": 540,
      "locktime": 0,
      "vin": [
        {
          "coinbase": "04ffff001d02e300",
          "sequence": 4294967295
        }
      ],
      "vout": [
        {
          "value": 50.0,
          "n": 0,
          "scriptPubKey": {
            "asm": "04f5b90ed4c581c0d7d11e6066e56a1f4c5bf9602f3c47e8c4f0196f3b794a60cd3cc62fea6aa332657b2a379356bca0888af7a3b2f5d5eab9265e288cb56c3e32 OP_CHECKSIG",
            "desc": "pk(04f5b90ed4c581c0d7d11e6066e56a1f4c5bf9602f3c47e8c4f0196f3b794a60cd3cc62fea6aa332657b2a379356bca0888af7a3b2f5d5eab9265e288cb56c3e32)#c7c5a89s",
            "hex": "4104f5b90ed4c581c0d7d11e6066e56a1f4c5bf9602f3c47e8c4f0196f3b794a60cd3cc62fea6aa332657b2a379356bca0888af7a3b2f5d5eab9265e288cb56c3e32ac",
            "type": "pubkey"
          }
        }
      ],
      "hex": "01000000010000000000000000000000000000000000000000000000000000000000000000ffffffff0804ffff001d02e300ffffffff0100f2052a01000000434104f5b90ed4c581c0d7d11e6066e56a1f4c5bf9602f3c47e8c4f0196f3b794a60cd3cc62fea6aa332657b2a379356bca0888af7a3b2f5d5eab9265e288cb56c3e32ac00000000"
    }
  ]
}