{
  "hash": "000000003c28c595416057b8612da9b7df160bbc196dc508f91ef1c35a4dcd56",
  "confirmations": 47970,
  "height": 5128,
  "version": 1,
  "versionHex": "00000001",
  "merkleroot": "808b782ee57cb36a636ee88f5f5bc782a942fc028299b9790e14264aaa9c328e",
  "time": 1235236732,
  "mediantime": 1235232997,
  "nonce": 4008855558,
  "bits": "1d00ffff",
  "difficulty": 1,
  "chainwork": "0000000000000000000000000000000000000000000000000000140914091409",
  "nTx": 1,
  "previousblockhash": "00000000685417d017ea5f3e3ed69c34d6ba093e98477539989c60f7dcfa77a8",
  "nextblockhash": "0000000057e88a6a6bef8144585cf4911c15c84c797d160c553ea192c1137ca5",
  "strippedsize": 216,
  "size": 216,
  "weight": 864,
  "tx": [
    {
      "txid": "808b782ee57cb36a636ee88f5f5bc782a942fc028299b9790e14264aaa9c328e",
      "hash": "808b782ee57cb36a636ee88f5f5bc782a942fc028299b9790e14264aaa9c328e",
      "version": 1,
      "size": 135,
      "vsize": 135,
      "weight": 540,
      "locktime": 0,
      "vin": [
        {
          "coinbase": "04ffff001d027709",
          "sequence": 4294967295
        }
      ],
      "vout": [
        {
          "value": 50.0,
          "n": 0,
          "scriptPubKey": {
            "asm": "048bdf344fa51bc656df17af627d19181d22faa7bfb04c1e14d33f7c90a1b1507e4269a7738dbd714df8ba45bc4df98d5319b6ec93bdb31e230ec3288c36c986e5 OP_CHECKSIG",
            "desc": "pk(048bdf344fa51bc656df17af627d19181d22faa7bfb04c1e14d33f7c90a1b1507e4269a7738dbd714df8ba45bc4df98d5319b6ec93bdb31e230ec3288c36c986e5)#e8knxs0k",
            "hex": "41048bdf344fa51bc656df17af627d19181d22faa7bfb04c1e14d33f7c90a1b1507e4269a7738dbd714df8ba45bc4df98d5319b6ec93bdb31e230ec3288c36c986e5ac",
            "type": "pubkey"
          }
        }
      ],
      "hex": "01000000010000000000000000000000000000000000000000000000000000000000000000ffffffff0804ffff001d027709ffffffff0100f2052a010000004341048bdf344fa51bc656df17af627d19181d22faa7bfb04c1e14d33f7c90a1b1507e4269a7738dbd714df8ba45bc4df98d5319b6ec93bdb31e230ec3288c36c986e5ac00000000"
    }
  ]
}