{
  "hash": "00000000c3ef87a393c796f421783d69a184367b222c226dd521232ab3a54472",
  "confirmations": 52050,
  "height": 1048,
  "version": 1,
  "versionHex": "00000001",
  "merkleroot": "e22a5e7b20e2a0a7cb5150928b7d8a1e2fca00c2b8374053cc4d379d7d57f9ee",
  "time": 1232385556,
  "mediantime": 1232381185,
  "nonce": 3328072706,
  "bits": "1d00ffff",
  "difficulty": 1,
  "chainwork": "0000000000000000000000000000000000000000000000000000041904190419",
  "nTx": 1,
  "previousblockhash": "00000000e7c3d98b85bb7a6699fa88085a946f3d749510a5f19ea137f3b324cc",
  "nextblockhash": "00000000adcaab3694464b4964c187048235e3548a7a4c9fbfcfdc2379f38823",
  "strippedsize": 216,
  "size": 216,
  "weight": 864,
  "tx": [
    {
      "txid": "e22a5e7b20e2a0a7cb5150928b7d8a1e2fca00c2b8374053cc4d379d7d57f9ee",
      "hash": "e22a5e7b20e2a0a7cb5150928b7d8a1e2fca00c2b8374053cc4d379d7d57f9ee",
      "version": 1,
      "size": 135,
      "vsize": 135,
      "weight": 540,
      "locktime": 0,
      "vin": [
        {
          "coinbase": "04ffff001d02ff05",
          "sequence": 4294967295
        }
      ],
      "vout": [
        {
          "value": 50.0,
          "n": 0,
          "scriptPubKey": {
            "asm": "046bdce83081f544731e6709bbaf09d99c32e1a3ce6cb2a2b3a0dee0464a6e5155ee7f567c7e46e279158bf7018d2abac6b276cbc8f572db22026a4478d1694433 OP_CHECKSIG",
            "desc": "pk(046bdce83081f544731e6709bbaf09d99c32e1a3ce6cb2a2b3a0dee0464a6e5155ee7f567c7e46e279158bf7018d2abac6b276cbc8f572db22026a4478d1694433)#chr0f8y4",
            "hex": "41046bdce83081f544731e6709bbaf09d99c32e1a3ce6cb2a2b3a0dee0464a6e5155ee7f567c7e46e279158bf7018d2abac6b276cbc8f572db22026a4478d1694433ac",
            "type": "pubkey"
          }
        }
      ],
      "hex": "01000000010000000000000000000000000000000000000000000000000000000000000000ffffffff0804ffff001d02ff05ffffffff0100f2052a010000004341046bdce83081f544731e6709bbaf09d99c32e1a3ce6cb2a2b3a0dee0464a6e5155ee7f567c7e46e279158bf7018d2abac6b276cbc8f572db22026a4478d1694433ac00000000"
    }
  ]
}