{
  "hash": "0000000011b84ad8e7fd5da5c3e33459a9aa83cf7372c2603664891be4483ee3",
  "confirmations": 46161,
  "height": 6937,
  "version": 1,
  "versionHex": "00000001",
  "merkleroot": "9581d6e31d03cd8d2829cdfe3dc0ae9cdc37ddc534369fe38ffe8382c7c9dfb4",
  "time": 1236666999,
  "mediantime": 1236663235,
  "nonce": 1707012375,
  "bits": "1d00ffff",
  "difficulty": 1,
  "chainwork": "00000000000000000000000000000000000000000000000000001b1a1b1a1b1a",
  "nTx": 1,
  "previousblockhash": "000000004336af57d93af44cc6e5d722bf5660beaa9a8408728f6b58a7674d5d",
  "nextblockhash": "00000000855c196ba180d4106a68245b32c6082dd801086ed502c8df0a9a07c9",
  "strippedsize": 216,
  "size": 216,
  "weight": 864,
  "tx": [
    {
      "txid": "9581d6e31d03cd8d2829cdfe3dc0ae9cdc37ddc534369fe38ffe8382c7c9dfb4",
      "hash": "9581d6e31d03cd8d2829cdfe3dc0ae9cdc37ddc534369fe38ffe8382c7c9dfb4",
      "version": 1,
      "size": 135,
      "vsize": 135,
      "weight": 540,
      "locktime": 0,
      "vin": [
        {
          "coinbase": "04ffff001d021a01",
          "sequence": 4294967295
        }
      ],
      "vout": [
        {
          "value": 50.0,
          "n": 0,
          "scriptPubKey": {
            "asm": "045938e8c96701bebae9e8a3952c6376ce5106cec98e32a0edb5404cb36d934b7ef7b65902a8e7bf0b25a92f14e6714dcc7f78bfdb71d6169f85a7f3d3ac573010 OP_CHECKSIG",
            "desc": "pk(045938e8c96701bebae9e8a3952c6376ce5106cec98e32a0edb5404cb36d934b7ef7b65902a8e7bf0b25a92f14e6714dcc7f78bfdb71d6169f85a7f3d3ac573010)#kfmv0tf7",
            "hex": "41045938e8c96701bebae9e8a3952c6376ce5106cec98e32a0edb5404cb36d934b7ef7b65902a8e7bf0b25a92f14e6714dcc7f78bfdb71d6169f85a7f3d3ac573010ac",
            "type": "pubkey"
          }
        }
      ],
      "hex": "01000000010000000000000000000000000000000000000000000000000000000000000000ffffffff0804ffff001d021a01ffffffff0100f2052a010000004341045938e8c96701bebae9e8a3952c6376ce5106cec98e32a0edb5404cb36d934b7ef7b65902a8e7bf0b25a92f14e6714dcc7f78bfdb71d6169f85a7f3d3ac573010ac00000000"
    }
  ]
}