{
  "hash": "00000000ff39488efbda526e1a1eb49f9c97a570b1519982b7c580711053f5c3",
  "confirmations": 48161,
  "height": 4937,
  "version": 1,
  "versionHex": "00000001",
  "merkleroot": "bc3f016d60ef172d822b7899fc8224ebec018069175ce61646d4edbf5ed76079",
  "time": 1235095086,
  "mediantime": 1235092302,
  "nonce": 3471313444,
  "bits": "1d00ffff",
  "difficulty": 1,
  "chainwork": "0000000000000000000000000000000000000000000000000000134a134a134a",
  "nTx": 1,
  "previousblockhash": "00000000e62c4e2da549427e3283e7fcb97f74c26d4c2ce71f7b89a0d3509d67",
  "nextblockhash": "0000000034c9ed54db29752d200cbcec1ac0ea811f810a959238a952486ad76c",
  "strippedsize": 216,
  "size": 216,
  "weight": 864,
  "tx": [
    {
      "txid": "bc3f016d60ef172d822b7899fc8224ebec018069175ce61646d4edbf5ed76079",
      "hash": "bc3f016d60ef172d822b7899fc8224ebec018069175ce61646d4edbf5ed76079",
      "version": 1,
      "size": 135,
      "vsize": 135,
      "weight": 540,
      "locktime": 0,
      "vin": [
        {
          "coinbase": "04ffff001d023906",
          "sequence": 4294967295
        }
      ],
      "vout": [
        {
          "value": 50.0,
          "n": 0,
          "scriptPubKey": {
            "asm": "041f6fa58c3f1993f6598621475abdfa656fa86f6ce07d71563ea23ccad710314d58e71a1b086f10e0314f10349c3e7c4e5423ea3943cdaed6ce34c7a47098c969 OP_CHECKSIG",
            "desc": "pk(041f6fa58c3f1993f6598621475abdfa656fa86f6ce07d71563ea23ccad710314d58e71a1b086f10e0314f10349c3e7c4e5423ea3943cdaed6ce34c7a47098c969)#l7n8gszj",
            "hex": "41041f6fa58c3f1993f6598621475abdfa656fa86f6ce07d71563ea23ccad710314d58e71a1b086f10e0314f10349c3e7c4e5423ea3943cdaed6ce34c7a47098c969ac",
            "type": "pubkey"
          }
        }
      ],
      "hex": "01000000010000000000000000000000000000000000000000000000000000000000000000ffffffff0804ffff001d023906ffffffff0100f2052a010000004341041f6fa58c3f1993f6598621475abdfa656fa86f6ce07d71563ea23ccad710314d58e71a1b086f10e0314f10349c3e7c4e5423ea3943cdaed6ce34c7a47098c969ac00000000"
    }
  ]
}