{
  "hash": "00000000f2425ff910418d225f05de90b3f2d06c1e3fcb7dc5edfda81b601619",
  "confirmations": 51522,
  "height": 1576,
  "version": 1,
  "versionHex": "00000001",
  "merkleroot": "81760cb66a9e7d83d876a3fbe31625141b4084316f3e4ab26746a33798e5e7f0",
  "time": 1232800443,
  "mediantime": 1232798540,
  "nonce": 95051589,
  "bits": "1d00ffff",
  "difficulty": 1,
  "chainwork": "0000000000000000000000000000000000000000000000000000062906290629",
  "nTx": 1,
  "previousblockhash": "00000000d3dab8bfaa150afaf76db64cf41a3d7f2a75f30cfb4880cd1267e9ca",
  "nextblockhash": "000000000c594e91c5fa9a2bf8a358c50d0efd818441798cd8568fe25e214fa5",
  "strippedsize": 216,
  "size": 216,
  "weight": 864,
  "tx": [
    {
      "txid": "81760cb66a9e7d83d876a3fbe31625141b4084316f3e4ab26746a33798e5e7f0",
      "hash": "81760cb66a9e7d83d876a3fbe31625141b4084316f3e4ab26746a33798e5e7f0",
      "version": 1,
      "size": 135,
      "vsize": 135,
      "weight": 540,
      "locktime": 0,
      "vin": [
        {
          "coinbase": "04ffff001d029101",
          "sequence": 4294967295
        }
      ],
      "vout": [
        {
          "value": 50.0,
          "n": 0,
          "scriptPubKey": {
            "asm": "0416b2b217c7789c5cba73975cbbc7e3bd0d11d84df709a2133e203eda91180a8e1b686cfb6d64599bee7cbdd07d8253eabafa9cf6998d49a407413437f30ab7c8 OP_CHECKSIG",
            "desc": "pk(0416b2b217c7789c5cba73975cbbc7e3bd0d11d84df709a2133e203eda91180a8e1b686cfb6d64599bee7cbdd07d8253eabafa9cf6998d49a407413437f30ab7c8)#h55f7tq5",
            "hex": "410416b2b217c7789c5cba73975cbbc7e3bd0d11d84df709a2133e203eda91180a8e1b686cfb6d64599bee7cbdd07d8253eabafa9cf6998d49a407413437f30ab7c8ac",
            "type": "pubkey"
          }
        }
      ],
      "hex": "01000000010000000000000000000000000000000000000000000000000000000000000000ffffffff0804ffff001d029101ffffffff0100f2052a0100000043410416b2b217c7789c5cba73975cbbc7e3bd0d11d84df709a2133e203eda91180a8e1b686cfb6d64599bee7cbdd07d8253eabafa9cf6998d49a407413437f30ab7c8ac00000000"
    }
  ]
}