{
  "hash": "000000003b25cd3a37b9d1da064f4d4d2559e43fbc8bd6a2962b1a71550623d1",
  "confirmations": 43105,
  "height": 9993,
  "version": 1,
  "versionHex": "00000001",
  "merkleroot": "a76963478a5c83af472e4d5d70cb6ba5dcc99b3f3963d5a9f587cd7ed2efdacf",
  "time": 1238984550,
  "mediantime": 1238980376,
  "nonce": 220590751,
  "bits": "1d00ffff",
  "difficulty": 1,
  "chainwork": "0000000000000000000000000000000000000000000000000000270a270a270a",
  "nTx": 1,
  "previousblockhash": "00000000f58f64fdcdbeff8183b1a1f1ea5a816a97c1c36f3083fdda617ff7ff",
  "nextblockhash": "0000000000360b078b37111a567b25ad2fa96905140604870d61a3e7aab18f4e",
  "strippedsize": 215,
  "size": 215,
  "weight": 860,
  "tx": [
    {
      "txid": "a76963478a5c83af472e4d5d70cb6ba5dcc99b3f3963d5a9f587cd7ed2efdacf",
      "hash": "a76963478a5c83af472e4d5d70cb6ba5dcc99b3f3963d5a9f587cd7ed2efdacf",
      "version": 1,
      "size": 134,
      "vsize": 134,
      "weight": 536,
      "locktime": 0,
      "vin": [
        {
          "coinbase": "04ffff001d0105",
          "sequence": 4294967295
        }
      ],
      "vout": [
        {
          "value": 50.0,
          "n": 0,
          "scriptPubKey": {
            "asm": "04c8ec38c93ebffeef32f9c5c7e8eaa7eef4dc5cc509df1e326b8f3d8c249eaf45611caec8f831bca98089b1aacca70fffef4a3ceb670f6d594f274e5ffe92e2f6 OP_CHECKSIG",
            "desc": "pk(04c8ec38c93ebffeef32f9c5c7e8eaa7eef4dc5cc509df1e326b8f3d8c249eaf45611caec8f831bca98089b1aacca70fffef4a3ceb670f6d594f274e5ffe92e2f6)#0zzfp679",
            "hex": "4104c8ec38c93ebffeef32f9c5c7e8eaa7eef4dc5cc509df1e326b8f3d8c249eaf45611caec8f831bca98089b1aacca70fffef4a3ceb670f6d594f274e5ffe92e2f6ac",
            "type": "pubkey"
          }
        }
      ],
      "hex": "01000000010000000000000000000000000000000000000000000000000000000000000000ffffffff0704ffff001d0105ffffffff0100f2052a01000000434104c8ec38c93ebffeef32f9c5c7e8eaa7eef4dc5cc509df1e326b8f3d8c249eaf45611caec8f831bca98089b1aacca70fffef4a3ceb670f6d594f274e5ffe92e2f6ac00000000"
    }
  ]
}