{
  "hash": "00000000a4f0a244b21a76644c318d0f3df91d36cb0ca027bc79883424187f7f",
  "confirmations": 44525,
  "height": 8573,
  "version": 1,
  "versionHex": "00000001",
  "merkleroot": "fb5a781af7bdb7034500e27822deba4b4bc91d8d44a290574613db060adf1def",
  "time": 1237929201,
  "mediantime": 1237925868,
  "nonce": 1703545640,
  "bits": "1d00ffff",
  "difficulty": 1,
  "chainwork": "0000000000000000000000000000000000000000000000000000217e217e217e",
  "nTx": 1,
  "previousblockhash": "000000002055ce92dc067a5097a5671bb43945ec580195b728741cccc1a050e8",
  "nextblockhash": "00000000e04953d178b1142b710bee3bb6e072d7a9505aff6d3a5d4a2a280262",
  "strippedsize": 216,
  "size": 216,
  "weight": 864,
  "tx": [
    {
      "txid": "fb5a781af7bdb7034500e27822deba4b4bc91d8d44a290574613db060adf1def",
      "hash": "fb5a781af7bdb7034500e27822deba4b4bc91d8d44a290574613db060adf1def",
      "version": 1,
      "size": 135,
      "vsize": 135,
      "weight": 540,
      "locktime": 0,
      "vin": [
        {
          "coinbase": "04ffff001d021c09",
          "sequence": 4294967295
        }
      ],
      "vout": [
        {
          "value": 50.0,
          "n": 0,
          "scriptPubKey": {
            "asm": "04981be15cecc20adae17052044a60566366f35e2e13af5e70fe444b9057bd1120563abb47cd31ad04800263076ad014d46ac7ab21c46f116bb40b130b3b5b67c8 OP_CHECKSIG",
            "desc": "pk(04981be15cecc20adae17052044a60566366f35e2e13af5e70fe444b9057bd1120563abb47cd31ad04800263076ad014d46ac7ab21c46f116bb40b130b3b5b67c8)#casry3gg",
            "hex": "4104981be15cecc20adae17052044a60566366f35e2e13af5e70fe444b9057bd1120563abb47cd31ad04800263076ad014d46ac7ab21c46f116bb40b130b3b5b67c8ac",
            "type": "pubkey"
          }
        }
      ],
      "hex": "01000000010000000000000000000000000000000000000000000000000000000000000000ffffffff0804ffff001d021c09ffffffff0100f2052a01000000434104981be15cecc20adae17052044a60566366f35e2e13af5e70fe444b9057bd1120563abb47cd31ad04800263076ad014d46ac7ab21c46f116bb40b130b3b5b67c8ac00000000"
    }
  ]
}