{
  "hash": "00000000d00e97619f499e6f19ac3129774332d2c2212eb2ef38dbef39db0018",
  "confirmations": 45133,
  "height": 7965,
  "version": 1,
  "versionHex": "00000001",
  "merkleroot": "02375342fd93dd47f2cdd5648d5b4fea2450b3da0b5d150a717b7959939d5ac3",
  "time": 1237437257,
  "mediantime": 1237434604,
  "nonce": 2233334785,
  "bits": "1d00ffff",
  "difficulty": 1,
  "chainwork": "00000000000000000000000000000000000000000000000000001f1e1f1e1f1e",
  "nTx": 1,
  "previousblockhash": "00000000e349ca8c0468946dc7d742a4ae1697a6d2cfd27c60c14efacc9932cb",
  "nextblockhash": "0000000059fd909513a8ca388de12b87c04665d1f131f8d9d243eb50441696a3",
  "strippedsize": 216,
  "size": 216,
  "weight": 864,
  "tx": [
    {
      "txid": "02375342fd93dd47f2cdd5648d5b4fea2450b3da0b5d150a717b7959939d5ac3",
      "hash": "02375342fd93dd47f2cdd5648d5b4fea2450b3da0b5d150a717b7959939d5ac3",
      "version": 1,
      "size": 135,
      "vsize": 135,
      "weight": 540,
      "locktime": 0,
      "vin": [
        {
          "coinbase": "04ffff001d02bd08",
          "sequence": 4294967295
        }
      ],
      "vout": [
        {
          "value": 50.0,
          "n": 0,
          "scriptPubKey": {
            "asm": "04dcd6fd910000693fe4feb3197b799a82a3a77afa99242bb2f0f907f0ee128fe03720eafb8d434bd742e98c37bfb4fe936b9787532b97858b1bb5f025e141a40a OP_CHECKSIG",
            "desc": "pk(04dcd6fd910000693fe4feb3197b799a82a3a77afa99242bb2f0f907f0ee128fe03720eafb8d434bd742e98c37bfb4fe936b9787532b97858b1bb5f025e141a40a)#u7xs8z2c",
            "hex": "4104dcd6fd910000693fe4feb3197b799a82a3a77afa99242bb2f0f907f0ee128fe03720eafb8d434bd742e98c37bfb4fe936b9787532b97858b1bb5f025e141a40aac",
            "type": "pubkey"
          }
        }
      ],
      "hex": "01000000010000000000000000000000000000000000000000000000000000000000000000ffffffff0804ffff001d02bd08ffffffff0100f2052a01000000434104dcd6fd910000693fe4feb3197b799a82a3a77afa99242bb2f0f907f0ee128fe03720eafb8d434bd742e98c37bfb4fe936b9787532b97858b1bb5f025e141a40aac00000000"
    }
  ]
}