{
  "hash": "00000000d35ef9ae4b7ebdcfb05560bc578ce150508b20fbb1f8d961034b66c1",
  "confirmations": 52533,
  "height": 565,
  "version": 1,
  "versionHex": "00000001",
  "merkleroot": "ba0a12bf028d0993ba3c7f5f66484227d381f8933276508d065afc1940ce36cc",
  "time": 1232013560,
  "mediantime": 1232010874,
  "nonce": 2172104212,
  "bits": "1d00ffff",
  "difficulty": 1,
  "chainwork": "0000000000000000000000000000000000000000000000000000023602360236",
  "nTx": 1,
  "previousblockhash": "000000009114153329b6acc79c771bf359aa673fc4f1fc227a6c7467eb242ecf",
  "nextblockhash": "000000008c0ee094ee47ca98069bd49cb9c2417ee52f24476eef30b03da79553",
  "strippedsize": 216,
  "size": 216,
  "weight": 864,
  "tx": [
    {
      "txid": "ba0a12bf028d0993ba3c7f5f66484227d381f8933276508d065afc1940ce36cc",
      "hash": "ba0a12bf028d0993ba3c7f5f66484227d381f8933276508d065afc1940ce36cc",
      "version": 1,
      "size": 135,
      "vsize": 135,
      "weight": 540,
      "locktime": 0,
      "vin": [
        {
          "coinbase": "04ffff001d02ec05",
          "sequence": 4294967295
        }
      ],
      "vout": [
        {
          "value": 50.0,
          "n": 0,
          "scriptPubKey": {
            "asm": "044f111a4369808fcf89aa53513ed486f5b08c52a0fe06203321115e782f9efa5adcb64a29f61f00af97e17e5ba811bd72a981e5eacd8f6a170d790349ae3e31e0 OP_CHECKSIG",
            "desc": "pk(044f111a4369808fcf89aa53513ed486f5b08c52a0fe06203321115e782f9efa5adcb64a29f61f00af97e17e5ba811bd72a981e5eacd8f6a170d790349ae3e31e0)#5jt6x3mf",
            "hex": "41044f111a4369808fcf89aa53513ed486f5b08c52a0fe06203321115e782f9efa5adcb64a29f61f00af97e17e5ba811bd72a981e5eacd8f6a170d790349ae3e31e0ac",
            "type": "pubkey"
          }
        }
      ],
      "hex": "01000000010000000000000000000000000000000000000000000000000000000000000000ffffffff0804ffff001d02ec05ffffffff0100f2052a010000004341044f111a4369808fcf89aa53513ed486f5b08c52a0fe06203321115e782f9efa5adcb64a29f61f00af97e17e5ba811bd72a981e5eacd8f6a170d790349ae3e31e0ac00000000"
    }
  ]
}