{
  "hash": "00000000178d30dd222f5810676c3c16eb8a676a03c20aa11a7911bcff10e538",
  "confirmations": 43562,
  "height": 9536,
  "version": 1,
  "versionHex": "00000001",
  "merkleroot": "ac38ab7ff8e93a9453638ab4ea72bd60f27488f332b0a0b24a387c75f41a1336",
  "time": 1238649834,
  "mediantime": 1238647020,
  "nonce": 42196972,
  "bits": "1d00ffff",
  "difficulty": 1,
  "chainwork": "0000000000000000000000000000000000000000000000000000254125412541",
  "nTx": 1,
  "previousblockhash": "00000000b844536347267e9686984e824573a438244e9e95856dd82bbf241982",
  "nextblockhash": "00000000c238df4eba161fcfd081e9f2a4f7c6559a795c71c6d1b648acc127fc",
  "strippedsize": 216,
  "size": 216,
  "weight": 864,
  "tx": [
    {
      "txid": "ac38ab7ff8e93a9453638ab4ea72bd60f27488f332b0a0b24a387c75f41a1336",
      "hash": "ac38ab7ff8e93a9453638ab4ea72bd60f27488f332b0a0b24a387c75f41a1336",
      "version": 1,
      "size": 135,
      "vsize": 135,
      "weight": 540,
      "locktime": 0,
      "vin": [
        {
          "coinbase": "04ffff001d02f80f",
          "sequence": 4294967295
        }
      ],
      "vout": [
        {
          "value": 50.0,
          "n": 0,
          "scriptPubKey": {
            "asm": "0486678b1bdb8e0fe4706593d51bf23dde13ae133009d062f10483901e084ddccc13efc9d45bf184d598a136ed75f57dd32ff876b38b5059eccc084e3dc9a5746f OP_CHECKSIG",
            "desc": "pk(0486678b1bdb8e0fe4706593d51bf23dde13ae133009d062f10483901e084ddccc13efc9d45bf184d598a136ed75f57dd32ff876b38b5059eccc084e3dc9a5746f)#lsmlg8xp",
            "hex": "410486678b1bdb8e0fe4706593d51bf23dde13ae133009d062f10483901e084ddccc13efc9d45bf184d598a136ed75f57dd32ff876b38b5059eccc084e3dc9a5746fac",
            "type": "pubkey"
          }
        }
      ],
      "hex": "01000000010000000000000000000000000000000000000000000000000000000000000000ffffffff0804ffff001d02f80fffffffff0100f2052a0100000043410486678b1bdb8e0fe4706593d51bf23dde13ae133009d062f10483901e084ddccc13efc9d45bf184d598a136ed75f57dd32ff876b38b5059eccc084e3dc9a5746fac00000000"
    }
  ]
}