{
  "hash": "00000000fc0835127379eaa4c4592084e5b99b50eef43c96a140a2930fdee654",
  "confirmations": 47884,
  "height": 5214,
  "version": 1,
  "versionHex": "00000001",
  "merkleroot": "ec58c64268819be2f0616f8edc2edda19f5bca014554384974753d9aa7f21b61",
  "time": 1235294721,
  "mediantime": 1235292305,
  "nonce": 3778804256,
  "bits": "1d00ffff",
  "difficulty": 1,
  "chainwork": "0000000000000000000000000000000000000000000000000000145f145f145f",
  "nTx": 1,
  "previousblockhash": "000000000b9cb276a6d303d7104c9fb7c92b2c79193196c9e2200ac2c34adf02",
  "nextblockhash": "0000000037372e0730345c9991f9f4426428afd462329d9d61a3e626dc6ac015",
  "strippedsize": 216,
  "size": 216,
  "weight": 864,
  "tx": [
    {
      "txid": "ec58c64268819be2f0616f8edc2edda19f5bca014554384974753d9aa7f21b61",
      "hash": "ec58c64268819be2f0616f8edc2edda19f5bca014554384974753d9aa7f21b61",
      "version": 1,
      "size": 135,
      "vsize": 135,
      "weight": 540,
      "locktime": 0,
      "vin": [
        {
          "coinbase": "04ffff001d02be00",
          "sequence": 4294967295
        }
      ],
      "vout": [
        {
          "value": 50.0,
          "n": 0,
          "scriptPubKey": {
            "asm": "04a2eeb05323ac521717c0b11c59f6021061914dde6eab3b4e772059f54187b2311f257fec592e48e9793563d646589e6f547094e6d268732b7edab2e9d15aacdb OP_CHECKSIG",
            "desc": "pk(04a2eeb05323ac521717c0b11c59f6021061914dde6eab3b4e772059f54187b2311f257fec592e48e9793563d646589e6f547094e6d268732b7edab2e9d15aacdb)#wlpapqnl",
            "hex": "4104a2eeb05323ac521717c0b11c59f6021061914dde6eab3b4e772059f54187b2311f257fec592e48e9793563d646589e6f547094e6d268732b7edab2e9d15aacdbac",
            "type": "pubkey"
          }
        }
      ],
      "hex": "01000000010000000000000000000000000000000000000000000000000000000000000000ffffffff0804ffff001d02be00ffffffff0100f2052a01000000434104a2eeb05323ac521717c0b11c59f6021061914dde6eab3b4e772059f54187b2311f257fec592e48e9793563d646589e6f547094e6d268732b7edab2e9d15aacdbac00000000"
    }
  ]
}