{
  "hash": "000000003325a43f430be1376119060c42b9fc88423249c80cfdff1ba19d4319",
  "confirmations": 50061,
  "height": 3037,
  "version": 1,
  "versionHex": "00000001",
  "merkleroot": "cbada082921da5e150ebf56865f48dd560b675cb5892c3771fd4af71326d06f4",
  "time": 1233786965,
  "mediantime": 1233783271,
  "nonce": 1997580335,
  "bits": "1d00ffff",
  "difficulty": 1,
  "chainwork": "00000000000000000000000000000000000000000000000000000bde0bde0bde",
  "nTx": 1,
  "previousblockhash": "00000000f3adc6095724c8eee01db807575c1e6b5a7f078d1dc06a16907f3364",
  "nextblockhash": "00000000fbf1fd4a8708cb49bca4453f52bae4a78249f23d8dee1116422182ec",
  "strippedsize": 215,
  "size": 215,
  "weight": 860,
  "tx": [
    {
      "txid": "cbada082921da5e150ebf56865f48dd560b675cb5892c3771fd4af71326d06f4",
      "hash": "cbada082921da5e150ebf56865f48dd560b675cb5892c3771fd4af71326d06f4",
      "version": 1,
      "size": 134,
      "vsize": 134,
      "weight": 536,
      "locktime": 0,
      "vin": [
        {
          "coinbase": "04ffff001d0103",
          "sequence": 4294967295
        }
      ],
      "vout": [
        {
          "value": 50.0,
          "n": 0,
          "scriptPubKey": {
            "asm": "04b839c959f777cff70972e4340846f26362be4c251224fe85b069746904c9411cf458d69af77d27b7faccf477e103314c97bc9289abb88de45ce2e7b5c101c029 OP_CHECKSIG",
            "desc": "pk(04b839c959f777cff70972e4340846f26362be4c251224fe85b069746904c9411cf458d69af77d27b7faccf477e103314c97bc9289abb88de45ce2e7b5c101c029)#zpdtp4hj",
            "hex": "4104b839c959f777cff70972e4340846f26362be4c251224fe85b069746904c9411cf458d69af77d27b7faccf477e103314c97bc9289abb88de45ce2e7b5c101c029ac",
            "type": "pubkey"
          }
        }
      ],
      "hex": "01000000010000000000000000000000000000000000000000000000000000000000000000ffffffff0704ffff001d0103ffffffff0100f2052a01000000434104b839c959f777cff70972e4340846f26362be4c251224fe85b069746904c9411cf458d69af77d27b7faccf477e103314c97bc9289abb88de45ce2e7b5c101c029ac00000000"
    }
  ]
}