{
  "hash": "00000000752213ae0762eac72ad453487921986168f2b2a2d4702475c7563dc6",
  "confirmations": 43940,
  "height": 9158,
  "version": 1,
  "versionHex": "00000001",
  "merkleroot": "1c83f1155e68d352f8ba68865d0221b24b6e2557d48f53770651a8d58a22a5f3",
  "time": 1238370187,
  "mediantime": 1238368736,
  "nonce": 64770255,
  "bits": "1d00ffff",
  "difficulty": 1,
  "chainwork": "000000000000000000000000000000000000000000000000000023c723c723c7",
  "nTx": 1,
  "previousblockhash": "000000005c7945c7c5b6aa895c8d0682fc60d2d196ec644cbe5c64c4654300e5",
  "nextblockhash": "000000001a44c1969ffb770bc096971f41ec06e846b7a56fb0fe6cd5c05b2a05",
  "strippedsize": 216,
  "size": 216,
  "weight": 864,
  "tx": [
    {
      "txid": "1c83f1155e68d352f8ba68865d0221b24b6e2557d48f53770651a8d58a22a5f3",
      "hash": "1c83f1155e68d352f8ba68865d0221b24b6e2557d48f53770651a8d58a22a5f3",
      "version": 1,
      "size": 135,
      "vsize": 135,
      "weight": 540,
      "locktime": 0,
      "vin": [
        {
          "coinbase": "04ffff001d022d08",
          "sequence": 4294967295
        }
      ],
      "vout": [
        {
          "value": 50.0,
          "n": 0,
          "scriptPubKey": {
            "asm": "04a62102bc275125825339d41cb2538282c173e2b5391b65061b198c272f17a9a0f47a97b61c659357c50dacae3eb39eab3b1486fb1722a423ae3d530fce472d1a OP_CHECKSIG",
            "desc": "pk(04a62102bc275125825339d41cb2538282c173e2b5391b65061b198c272f17a9a0f47a97b61c659357c50dacae3eb39eab3b1486fb1722a423ae3d530fce472d1a)#j5jm9jpp",
            "hex": "4104a62102bc275125825339d41cb2538282c173e2b5391b65061b198c272f17a9a0f47a97b61c659357c50dacae3eb39eab3b1486fb1722a423ae3d530fce472d1aac",
            "type": "pubkey"
          }
        }
      ],
      "hex": "01000000010000000000000000000000000000000000000000000000000000000000000000ffffffff0804ffff001d022d08ffffffff0100f2052a01000000434104a62102bc275125825339d41cb2538282c173e2b5391b65061b198c272f17a9a0f47a97b61c659357c50dacae3eb39eab3b1486fb1722a423ae3d530fce472d1aac00000000"
    }
  ]
}