{
  "hash": "00000000e94d9bf5d7a758b2ebf9857a31864cd6948f772e94299ef9f65c7e63",
  "confirmations": 44492,
  "height": 8606,
  "version": 1,
  "versionHex": "00000001",
  "merkleroot": "154c9c4c68f153dfa40908b3538074492dff3ff75e0ee1419e47f271aaa6a7f8",
  "time": 1237953842,
  "mediantime": 1237951921,
  "nonce": 3854025751,
  "bits": "1d00ffff",
  "difficulty": 1,
  "chainwork": "0000000000000000000000000000000000000000000000000000219f219f219f",
  "nTx": 1,
  "previousblockhash": "00000000483926d6830a47c25bb16f0b1c33739dd708306c7abba3f2b9906bad",
  "nextblockhash": "00000000b3732246d1584953e73cb0f8f5134191f475aa02ab07ac3bf755126d",
  "strippedsize": 216,
  "size": 216,
  "weight": 864,
  "tx": [
    {
      "txid": "154c9c4c68f153dfa40908b3538074492dff3ff75e0ee1419e47f271aaa6a7f8",
      "hash": "154c9c4c68f153dfa40908b3538074492dff3ff75e0ee1419e47f271aaa6a7f8",
      "version": 1,
      "size": 135,
      "vsize": 135,
      "weight": 540,
      "locktime": 0,
      "vin": [
        {
          "coinbase": "04ffff001d029109",
          "sequence": 4294967295
        }
      ],
      "vout": [
        {
          "value": 50.0,
          "n": 0,
          "scriptPubKey": {
            "asm": "0423dd2c1530f66871187c440932f96001046633580edcc62d0eeb799a7e2451a6053e837fa9bdef9ffdacd406ad4957a1b8f995a1c29e7b9d6616e37544e96565 OP_CHECKSIG",
            "desc": "pk(0423dd2c1530f66871187c440932f96001046633580edcc62d0eeb799a7e2451a6053e837fa9bdef9ffdacd406ad4957a1b8f995a1c29e7b9d6616e37544e96565)#33sj5yry",
            "hex": "410423dd2c1530f66871187c440932f96001046633580edcc62d0eeb799a7e2451a6053e837fa9bdef9ffdacd406ad4957a1b8f995a1c29e7b9d6616e37544e96565ac",
            "type": "pubkey"
          }
        }
      ],
      "hex": "01000000010000000000000000000000000000000000000000000000000000000000000000ffffffff0804ffff001d029109ffffffff0100f2052a0100000043410423dd2c1530f66871187c440932f96001046633580edcc62d0eeb799a7e2451a6053e837fa9bdef9ffdacd406ad4957a1b8f995a1c29e7b9d6616e37544e96565ac00000000"
    }
  ]
}