{
  "hash": "000000006e8846211277fb3fb90194fe295e856c6d5a8a8a6d4862ea45d4ce45",
  "confirmations": 43608,
  "height": 9490,
  "version": 1,
  "versionHex": "00000001",
  "merkleroot": "4fcafebcb39275d3625ace728573bec68465d99779e046ce9b6fab973715cde9",
  "time": 1238621625,
  "mediantime": 1238618915,
  "nonce": 115241758,
  "bits": "1d00ffff",
  "difficulty": 1,
  "chainwork": "0000000000000000000000000000000000000000000000000000251325132513",
  "nTx": 1,
  "previousblockhash": "0000000033c7f027eb308e1dfab32a6a9959a79f224a9a4ee5dcb6389d09f624",
  "nextblockhash": "000000007acf21ebcc9a0770ed02d59591aae15c763f6127433eb949bc33f945",
  "strippedsize": 216,
  "size": 216,
  "weight": 864,
  "tx": [
    {
      "txid": "4fcafebcb39275d3625ace728573bec68465d99779e046ce9b6fab973715cde9",
      "hash": "4fcafebcb39275d3625ace728573bec68465d99779e046ce9b6fab973715cde9",
      "version": 1,
      "size": 135,
      "vsize": 135,
      "weight": 540,
      "locktime": 0,
      "vin": [
        {
          "coinbase": "04ffff001d024f05",
          "sequence": 4294967295
        }
      ],
      "vout": [
        {
          "value": 50.0,
          "n": 0,
          "scriptPubKey": {
            "asm": "043603c618c0ef8dd94453055f1d8e35328253545fbc0c2dd30d7ba56d1923fa9826755863b74df56196cfbe4579b94180ba85c01909731cec2feb1e6c044d017c OP_CHECKSIG",
            "desc": "pk(043603c618c0ef8dd94453055f1d8e35328253545fbc0c2dd30d7ba56d1923fa9826755863b74df56196cfbe4579b94180ba85c01909731cec2feb1e6c044d017c)#5x4vdauc",
            "hex": "41043603c618c0ef8dd94453055f1d8e35328253545fbc0c2dd30d7ba56d1923fa9826755863b74df56196cfbe4579b94180ba85c01909731cec2feb1e6c044d017cac",
            "type": "pubkey"
          }
        }
      ],
      "hex": "01000000010000000000000000000000000000000000000000000000000000000000000000ffffffff0804ffff001d024f05ffffffff0100f2052a010000004341043603c618c0ef8dd94453055f1d8e35328253545fbc0c2dd30d7ba56d1923fa9826755863b74df56196cfbe4579b94180ba85c01909731cec2feb1e6c044d017cac00000000"
    }
  ]
}