{
  "hash": "00000000d44353e18f09719018b035af533e8eac30ff2e159510d37144b96c3b",
  "confirmations": 48318,
  "height": 4780,
  "version": 1,
  "versionHex": "00000001",
  "merkleroot": "9e7f797b7414c58cfe959bb1f02a7caf43c8bde8d838e0b8a1f09fd6f8f29a28",
  "time": 1234982300,
  "mediantime": 1234978577,
  "nonce": 1686570554,
  "bits": "1d00ffff",
  "difficulty": 1,
  "chainwork": "000000000000000000000000000000000000000000000000000012ad12ad12ad",
  "nTx": 1,
  "previousblockhash": "0000000083292e55898a418aec0d6c5265abdd39512cb8465e34db7e968ec9a9",
  "nextblockhash": "0000000021fd49e7e8d8bec7ed4bb7a06a80387de003b4a4c1cddb553b38f106",
  "strippedsize": 216,
  "size": 216,
  "weight": 864,
  "tx": [
    {
      "txid": "9e7f797b7414c58cfe959bb1f02a7caf43c8bde8d838e0b8a1f09fd6f8f29a28",
      "hash": "9e7f797b7414c58cfe959bb1f02a7caf43c8bde8d838e0b8a1f09fd6f8f29a28",
      "version": 1,
      "size": 135,
      "vsize": 135,
      "weight": 540,
      "locktime": 0,
      "vin": [
        {
          "coinbase": "04ffff001d02af03",
          "sequence": 4294967295
        }
      ],
      "vout": [
        {
          "value": 50.0,
          "n": 0,
          "scriptPubKey": {
            "asm": "04e5515ad9bbae933d722c060becffa4dcfdb2763f6058e1824af3d16d0b2d77cb527562f7b0270dffe56746a9c8634b56b3a5ca2988d375a445ecb8ee77a015b3 OP_CHECKSIG",
            "desc": "pk(04e5515ad9bbae933d722c060becffa4dcfdb2763f6058e1824af3d16d0b2d77cb527562f7b0270dffe56746a9c8634b56b3a5ca2988d375a445ecb8ee77a015b3)#jwy2tppz",
            "hex": "4104e5515ad9bbae933d722c060becffa4dcfdb2763f6058e1824af3d16d0b2d77cb527562f7b0270dffe56746a9c8634b56b3a5ca2988d375a445ecb8ee77a015b3ac",
            "type": "pubkey"
          }
        }
      ],
      "hex": "01000000010000000000000000000000000000000000000000000000000000000000000000ffffffff0804ffff001d02af03ffffffff0100f2052a01000000434104e5515ad9bbae933d722c060becffa4dcfdb2763f6058e1824af3d16d0b2d77cb527562f7b0270dffe56746a9c8634b56b3a5ca2988d375a445ecb8ee77a015b3ac00000000"
    }
  ]
}