{
  "hash": "00000000f56c824cddf4becb0afc1b448b079a09c8a94f41060a9f0f106281a6",
  "confirmations": 50855,
  "height": 2243,
  "version": 1,
  "versionHex": "00000001",
  "merkleroot": "68fe8185c4a2f3e01e3eaca4fbbd77e3ed227e83d6cf0ab7d3c32a775377de7f",
  "time": 1233242933,
  "mediantime": 1233238400,
  "nonce": 29265998,
  "bits": "1d00ffff",
  "difficulty": 1,
  "chainwork": "000000000000000000000000000000000000000000000000000008c408c408c4",
  "nTx": 1,
  "previousblockhash": "00000000f0befb49abde7a1ccd219fed53cb65e22fc5672355b9e3a7404e0406",
  "nextblockhash": "000000007f0b0e0dd45c162fa9422351a5d416678049860fb8d0eec97f33e925",
  "strippedsize": 215,
  "size": 215,
  "weight": 860,
  "tx": [
    {
      "txid": "68fe8185c4a2f3e01e3eaca4fbbd77e3ed227e83d6cf0ab7d3c32a775377de7f",
      "hash": "68fe8185c4a2f3e01e3eaca4fbbd77e3ed227e83d6cf0ab7d3c32a775377de7f",
      "version": 1,
      "size": 134,
      "vsize": 134,
      "weight": 536,
      "locktime": 0,
      "vin": [
        {
          "coinbase": "04ffff001d011b",
          "sequence": 4294967295
        }
      ],
      "vout": [
        {
          "value": 50.0,
          "n": 0,
          "scriptPubKey": {
            "asm": "044de4433ab9d236ddd7618dc2d4eace6377f8d3b985a45c48f9670b76a7ca1e65ca659ff9929a412c30391a3f6c58fbbb0082e03079b00fd555244fe3d1fc6485 OP_CHECKSIG",
            "desc": "pk(044de4433ab9d236ddd7618dc2d4eace6377f8d3b985a45c48f9670b76a7ca1e65ca659ff9929a412c30391a3f6c58fbbb0082e03079b00fd555244fe3d1fc6485)#m4js7ful",
            "hex": "41044de4433ab9d236ddd7618dc2d4eace6377f8d3b985a45c48f9670b76a7ca1e65ca659ff9929a412c30391a3f6c58fbbb0082e03079b00fd555244fe3d1fc6485ac",
            "type": "pubkey"
          }
        }
      ],
      "hex": "01000000010000000000000000000000000000000000000000000000000000000000000000ffffffff0704ffff001d011bffffffff0100f2052a010000004341044de4433ab9d236ddd7618dc2d4eace6377f8d3b985a45c48f9670b76a7ca1e65ca659ff9929a412c30391a3f6c58fbbb0082e03079b00fd555244fe3d1fc6485ac00000000"
    }
  ]
}