{
  "hash": "000000009ed94f7234f1c82c7874b938dc2e3e09551eed7ae86c2295d4ac7dd0",
  "confirmations": 52063,
  "height": 273,
  "version": 1,
  "versionHex": "00000001",
  "merkleroot": "e3445e3e66b0f7fcf98e7b6543efb27b6bcd7e144afbe0208ca5be0c0390d287",
  "time": 1231811219,
  "mediantime": 1231807132,
  "nonce": 276478976,
  "bits": "1d00ffff",
  "difficulty": 1,
  "chainwork": "0000000000000000000000000000000000000000000000000000011201120112",
  "nTx": 1,
  "previousblockhash": "00000000d4e581b02a90ab3f2f45723aea64f341908a767c33968219b9900ef1",
  "nextblockhash": "000000003c1432390c69b55b7797cc61d73c1c26b78eaa0d46796b1c6ccaf8c8",
  "strippedsize": 216,
  "size": 216,
  "weight": 864,
  "tx": [
    {
      "txid": "e3445e3e66b0f7fcf98e7b6543efb27b6bcd7e144afbe0208ca5be0c0390d287",
      "hash": "e3445e3e66b0f7fcf98e7b6543efb27b6bcd7e144afbe0208ca5be0c0390d287",
      "version": 1,
      "size": 135,
      "vsize": 135,
      "weight": 540,
      "locktime": 0,
      "vin": [
        {
          "coinbase": "04ffff001d028801",
          "sequence": 4294967295
        }
      ],
      "vout": [
        {
          "value": 50.0,
          "n": 0,
          "scriptPubKey": {
            "asm": "045abf2aa2c2f03ae5de8486e69c90eaef24c92ca1ebf951bd03cfee17542bb303da1951cb6a9fc9fcc701b2121b09b51c3a65dfae136924f4d968e255f38b14e8 OP_CHECKSIG",
            "desc": "pk(045abf2aa2c2f03ae5de8486e69c90eaef24c92ca1ebf951bd03cfee17542bb303da1951cb6a9fc9fcc701b2121b09b51c3a65dfae136924f4d968e255f38b14e8)#0c4urcwl",
            "hex": "41045abf2aa2c2f03ae5de8486e69c90eaef24c92ca1ebf951bd03cfee17542bb303da1951cb6a9fc9fcc701b2121b09b51c3a65dfae136924f4d968e255f38b14e8ac",
            "type": "pubkey"
          }
        }
      ],
      "hex": "01000000010000000000000000000000000000000000000000000000000000000000000000ffffffff0804ffff001d028801ffffffff0100f2052a010000004341045abf2aa2c2f03ae5de8486e69c90eaef24c92ca1ebf951bd03cfee17542bb303da1951cb6a9fc9fcc701b2121b09b51c3a65dfae136924f4d968e255f38b14e8ac00000000"
    }
  ]
}