{
  "hash": "0000000012dbeac0d7d34f7198002b6e231518e1024a416fc4e4525de20efb18",
  "confirmations": 51644,
  "height": 1454,
  "version": 1,
  "versionHex": "00000001",
  "merkleroot": "c0d63d9a05ca8d88c1f60f51d050dd7f170c06673dab857158e0fe8dd0044998",
  "time": 1232748657,
  "mediantime": 1232746252,
  "nonce": 2746963252,
  "bits": "1d00ffff",
  "difficulty": 1,
  "chainwork": "000000000000000000000000000000000000000000000000000005af05af05af",
  "nTx": 2,
  "previousblockhash": "00000000f9dc03c47f0e89c002134d1fbfd9b3e6c3011b74f1ab6a23823cb2d0",
  "nextblockhash": "00000000dc5ccc1ca96f2bcb8f605d07e8f22833cee65200f604c122bd4e0e5a",
  "strippedsize": 944,
  "size": 944,
  "weight": 3776,
  "tx": [
    {
      "txid": "4cac09c32954c9e44b57d599794627470c70bb580f082d21c146492b146105a2",
      "hash": "4cac09c32954c9e44b57d599794627470c70bb580f082d21c146492b146105a2",
      "version": 1,
      "size": 135,
      "vsize": 135,
      "weight": 540,
      "locktime": 0,
      "vin": [
        {
          "coinbase": "04ffff001d02a700",
          "sequence": 4294967295
        }
      ],
      "vout": [
        {
          "value": 50.0,
          "n": 0,
          "scriptPubKey": {
            "asm": "04bafbaab2b8910f4f5ff1e3e61eb7367a150de34baf29660a2f9b009d7fecef413c1309b407bb3094d157659c3dbc800e47a508781112ae7d452df9d47585ed7a OP_CHECKSIG",
            "desc": "pk(04bafbaab2b8910f4f5ff1e3e61eb7367a150de34baf29660a2f9b009d7fecef413c1309b407bb3094d157659c3dbc800e47a508781112ae7d452df9d47585ed7a)#nj0382uw",
            "hex": "4104bafbaab2b8910f4f5ff1e3e61eb7367a150de34baf29660a2f9b009d7fecef413c1309b407bb3094d157659c3dbc800e47a508781112ae7d452df9d47585ed7aac",
            "type": "pubkey"
          }
        }
      ],
      "hex": "01000000010000000000000000000000000000000000000000000000000000000000000000ffffffff0804ffff001d02a700ffffffff0100f2052a01000000434104bafbaab2b8910f4f5ff1e3e61eb7367a150de34baf29660a2f9b009d7fecef413c1309b407bb3094d157659c3dbc800e47a508781112ae7d452df9d47585ed7aac00000000"
    },
    {
      "txid": "8ed5a0af151cdbc8c0c546cde29334f15b4472bba105394a1221a7f088246846",
      "hash": "8ed5a0af151cdbc8c0c546cde29334f15b4472bba105394a1221a7f088246846",
      "version": 1,
      "size": 728,
      "vsize": 728,
      "weight": 2912,
      "locktime": 0,
      "vin": [
        {
          "txid": "93e6ca940b4d5547230df9b9e1ca02408cbaa036ea69c517ad9890f9ddc92369",
          "vout": 0,
          "scriptSig": {
            "asm": "304502202cc881eae11a1cd38a16ddc7a56a023631bcf218932ac491edb29bce6438071a022100adde4b5ce37cf7c0671ef0f717e4992335800a0b7a246afee3c5eb00dbad135e[ALL]",
            "hex": "48304502202cc881eae11a1cd38a16ddc7a56a023631bcf218932ac491edb29bce6438071a022100adde4b5ce37cf7c0671ef0f717e4992335800a0b7a246afee3c5eb00dbad135e01"
          },
          "sequence": 4294967295
        },
        {
          "txid": "9faa93334f9561ef4133a97b29235f1c28de9c077e0d8fc39643c4d8baf44138",
          "vout": 0,
          "scriptSig": {
            "asm": "30440220274f9a50e79bd3de984dd9bcc790d133c63a51372378909ffc2e4c59ffaccc6702202a01baad68a2c416fc181268ca0e86092526686c895c34e3fd6b2ad5c947dc6f[ALL]",
            "hex": "4730440220274f9a50e79bd3de984dd9bcc790d133c63a51372378909ffc2e4c59ffaccc6702202a01baad68a2c416fc181268ca0e86092526686c895c34e3fd6b2ad5c947dc6f01"
          },
          "sequence": 4294967295
        },
        {
          "txid": "68fa37a23804116f89ee68441f7a4b91abcf519bd371513f9a65b1c67fd0b772",
          "vout": 0,
          "scriptSig": {
            "asm": "3046022100e62e5723f7d809a1de22501be31429c0f97fa545fec14041a46e47ead22ecd1f022100fde7d3091ad9c6904e2e3e7fd980616dc4caa59f2e521a975553a4aceda38327[ALL]",
            "hex": "493046022100e62e5723f7d809a1de22501be31429c0f97fa545fec14041a46e47ead22ecd1f022100fde7d3091ad9c6904e2e3e7fd980616dc4caa59f2e521a975553a4aceda3832701"
          },
          "sequence": 4294967295
        },
        {
          "txid": "99b9e7b009e2adfba59c3219a623ba8e0d566feb94cb8debfd6e11cf93bc9008",
          "vout": 0,
          "scriptSig": {
            "asm": "304502203574b06ea162b61d6cc42ca391806f870895f52ec3ebdac659abe009969ff506022100befa03ca5935fe17737cb21d0d9168347f394a4b41f38f0d507f87316a00e8e0[ALL]",
            "hex": "48304502203574b06ea162b61d6cc42ca391806f870895f52ec3ebdac659abe009969ff506022100befa03ca5935fe17737cb21d0d9168347f394a4b41f38f0d507f87316a00e8e001"
          },
          "sequence": 4294967295
        },
        {
          "txid": "af8bb49c5e31c5533b512fb47655ab9fd31ec979829b98fbec729b924561fb79",
          "vout": 0,
          "scriptSig": {
            "asm": "3045022100a381bcc12ea362a29609c1302bfe29766cdfb32f4583dc7251fe6d4da2f4227202206db26c30d3e54b49fd68ed4fc9631062700914b0104b4417fcccdedd86ea8f88[ALL]",
            "hex": "483045022100a381bcc12ea362a29609c1302bfe29766cdfb32f4583dc7251fe6d4da2f4227202206db26c30d3e54b49fd68ed4fc9631062700914b0104b4417fcccdedd86ea8f8801"
          },
          "sequence": 4294967295
        },
        {
          "txid": "a00b47a483616c7b6a843292bd4e7b1daf2d4d99b5528ee1b1dedacfa4f2cd1a",
          "vout": 0,
          "scriptSig": {
            "asm": "30450220378bd78f0ff710d7f126ba62b0518fb7890faa1fc611c05a9e36bebbba5728e7022100adb012db9cac277293ddcb384f332e31f002ec70e8ee2fee4469ef3ce56d9b8a[ALL]",
            "hex": "4830450220378bd78f0ff710d7f126ba62b0518fb7890faa1fc611c05a9e36bebbba5728e7022100adb012db9cac277293ddcb384f332e31f002ec70e8ee2fee4469ef3ce56d9b8a01"
          },
          "sequence": 4294967295
        }
      ],
      "vout": [
        {
          "value": 300.0,
          "n": 0,
          "scriptPubKey": {
            "asm": "OP_DUP OP_HASH160 12ab8dc588ca9d5787dde7eb29569da63c3a238c OP_EQUALVERIFY OP_CHECKSIG",
            "desc": "addr(12higDjoCCNXSA95xZMWUdPvXNmkAduhWv)#zn56zju2",
            "hex": "76a91412ab8dc588ca9d5787dde7eb29569da63c3a238c88ac",
            "address": "12higDjoCCNXSA95xZMWUdPvXNmkAduhWv",
            "type": "pubkeyhash"
          }
        }
      ],
      "fee": 0.0,
      "hex": "01000000066923c9ddf99098ad17c569ea36a0ba8c4002cae1b9f90d2347554d0b94cae693000000004948304502202cc881eae11a1cd38a16ddc7a56a023631bcf218932ac491edb29bce6438071a022100adde4b5ce37cf7c0671ef0f717e4992335800a0b7a246afee3c5eb00dbad135e01ffffffff3841f4bad8c44396c38f0d7e079cde281c5f23297ba93341ef61954f3393aa9f00000000484730440220274f9a50e79bd3de984dd9bcc790d133c63a51372378909ffc2e4c59ffaccc6702202a01baad68a2c416fc181268ca0e86092526686c895c34e3fd6b2ad5c947dc6f01ffffffff72b7d07fc6b1659a3f5171d39b51cfab914b7a1f4468ee896f110438a237fa68000000004a493046022100e62e5723f7d809a1de22501be31429c0f97fa545fec14041a46e47ead22ecd1f022100fde7d3091ad9c6904e2e3e7fd980616dc4caa59f2e521a975553a4aceda3832701ffffffff0890bc93cf116efdeb8dcb94eb6f560d8eba23a619329ca5fbade209b0e7b999000000004948304502203574b06ea162b61d6cc42ca391806f870895f52ec3ebdac659abe009969ff506022100befa03ca5935fe17737cb21d0d9168347f394a4b41f38f0d507f87316a00e8e001ffffffff79fb6145929b72ecfb989b8279c91ed39fab5576b42f513b53c5315e9cb48baf0000000049483045022100a381bcc12ea362a29609c1302bfe29766cdfb32f4583dc7251fe6d4da2f4227202206db26c30d3e54b49fd68ed4fc9631062700914b0104b4417fcccdedd86ea8f8801ffffffff1acdf2a4cfdadeb1e18e52b5994d2daf1d7b4ebd9232846a7b6c6183a4470ba000000000494830450220378bd78f0ff710d7f126ba62b0518fb7890faa1fc611c05a9e36bebbba5728e7022100adb012db9cac277293ddcb384f332e31f002ec70e8ee2fee4469ef3ce56d9b8a01ffffffff0100ac23fc060000001976a91412ab8dc588ca9d5787dde7eb29569da63c3a238c88ac00000000"
    }
  ]
}