{
  "hash": "000000000e62271197b63b2ead7af125aa9668b6d412133736f18d90b72c183e",
  "confirmations": 51807,
  "height": 1291,
  "version": 1,
  "versionHex": "00000001",
  "merkleroot": "b400da6562816187635eda3ffd801075f850dd69ae80a49aaf34246daaa49441",
  "time": 1232567652,
  "mediantime": 1232564096,
  "nonce": 602486054,
  "bits": "1d00ffff",
  "difficulty": 1,
  "chainwork": "0000000000000000000000000000000000000000000000000000050c050c050c",
  "nTx": 1,
  "previousblockhash": "00000000e7e14180e1bcd82aff7fba4a4874a4028c4beb1e9de18ed2404b4d30",
  "nextblockhash": "00000000ecd009c870b313e354ca121ca8dacd96c2921f218822a9909d32690e",
  "strippedsize": 216,
  "size": 216,
  "weight": 864,
  "tx": [
    {
      "txid": "b400da6562816187635eda3ffd801075f850dd69ae80a49aaf34246daaa49441",
      "hash": "b400da6562816187635eda3ffd801075f850dd69ae80a49aaf34246daaa49441",
      "version": 1,
      "size": 135,
      "vsize": 135,
      "weight": 540,
      "locktime": 0,
      "vin": [
        {
          "coinbase": "04ffff001d022a0a",
          "sequence": 4294967295
        }
      ],
      "vout": [
        {
          "value": 50.0,
          "n": 0,
          "scriptPubKey": {
            "asm": "04f00b9b0ac97e0bed2b25cf1bb06267864a17c0cecf0e54815ee6c9934ef02b2cc6de217896be6d4db5c435e769d874680e037ef0fd4cee50bd34b4fb82b2fe95 OP_CHECKSIG",
            "desc": "pk(04f00b9b0ac97e0bed2b25cf1bb06267864a17c0cecf0e54815ee6c9934ef02b2cc6de217896be6d4db5c435e769d874680e037ef0fd4cee50bd34b4fb82b2fe95)#yfpm0xnv",
            "hex": "4104f00b9b0ac97e0bed2b25cf1bb06267864a17c0cecf0e54815ee6c9934ef02b2cc6de217896be6d4db5c435e769d874680e037ef0fd4cee50bd34b4fb82b2fe95ac",
            "type": "pubkey"
          }
        }
      ],
      "hex": "01000000010000000000000000000000000000000000000000000000000000000000000000ffffffff0804ffff001d022a0affffffff0100f2052a01000000434104f00b9b0ac97e0bed2b25cf1bb06267864a17c0cecf0e54815ee6c9934ef02b2cc6de217896be6d4db5c435e769d874680e037ef0fd4cee50bd34b4fb82b2fe95ac00000000"
    }
  ]
}