{
  "hash": "0000000008dd027da9a853922d5c057904d4d59062e6935f5be24a87dc4e44ba",
  "confirmations": 52043,
  "height": 1055,
  "version": 1,
  "versionHex": "00000001",
  "merkleroot": "b347b6d372ff31c7094acdc83df2271ec0cb58a915bae76378e4b50229c0de6f",
  "time": 1232391642,
  "mediantime": 1232387586,
  "nonce": 2065399838,
  "bits": "1d00ffff",
  "difficulty": 1,
  "chainwork": "0000000000000000000000000000000000000000000000000000042004200420",
  "nTx": 2,
  "previousblockhash": "00000000577ecce387c006c3bb102002263507f7f3e5a33548c4f07637ddc8fc",
  "nextblockhash": "000000008c526b4821b66aa55980dd0c5c40a710fc45b11e4e2509c207cbc64f",
  "strippedsize": 1436,
  "size": 1436,
  "weight": 5744,
  "tx": [
    {
      "txid": "e033df47866f18cad933cf44415df3d1a7bcbeaeb16ad467b50fee3e0054f71f",
      "hash": "e033df47866f18cad933cf44415df3d1a7bcbeaeb16ad467b50fee3e0054f71f",
      "version": 1,
      "size": 135,
      "vsize": 135,
      "weight": 540,
      "locktime": 0,
      "vin": [
        {
          "coinbase": "04ffff001d021206",
          "sequence": 4294967295
        }
      ],
      "vout": [
        {
          "value": 50.0,
          "n": 0,
          "scriptPubKey": {
            "asm": "0463147af0b7280493247b091857d05091e365d4882dbb68dd3b545a1619dc87f42f99ee3f07f7bf2871726b44164519777f52f834750eb930746835fce59e1255 OP_CHECKSIG",
            "desc": "pk(0463147af0b7280493247b091857d05091e365d4882dbb68dd3b545a1619dc87f42f99ee3f07f7bf2871726b44164519777f52f834750eb930746835fce59e1255)#f3zsdsjg",
            "hex": "410463147af0b7280493247b091857d05091e365d4882dbb68dd3b545a1619dc87f42f99ee3f07f7bf2871726b44164519777f52f834750eb930746835fce59e1255ac",
            "type": "pubkey"
          }
        }
      ],
      "hex": "01000000010000000000000000000000000000000000000000000000000000000000000000ffffffff0804ffff001d021206ffffffff0100f2052a0100000043410463147af0b7280493247b091857d05091e365d4882dbb68dd3b545a1619dc87f42f99ee3f07f7bf2871726b44164519777f52f834750eb930746835fce59e1255ac00000000"
    },
    {
      "txid": "8897ea9ceaf18a546cdc513b9179bae31a462ee5bf47818eb7ba909082d11777",
      "hash": "8897ea9ceaf18a546cdc513b9179bae31a462ee5bf47818eb7ba909082d11777",
      "version": 1,
      "size": 1220,
      "vsize": 1220,
      "weight": 4880,
      "locktime": 0,
      "vin": [
        {
          "txid": "ad3ad5d08e433103e0be2ca5cf8159eb8d416a37edc45fe0dd9b3bca221ae974",
          "vout": 0,
          "scriptSig": {
            "asm": "3045022100f7b1e59337171c41237947e0e3d72061715614bdc022665ad425152d54a67f8b0220781cebea276de74079e202e849ef08767369160cf5acd92a831078b6c3030949[ALL]",
            "hex": "483045022100f7b1e59337171c41237947e0e3d72061715614bdc022665ad425152d54a67f8b0220781cebea276de74079e202e849ef08767369160cf5acd92a831078b6c303094901"
          },
          "sequence": 4294967295
        },
        {
          "txid": "3e753e2eac1e76a9cee0196ca74d10ba9d2bf687e95bdd244333cddf259ac980",
          "vout": 0,
          "scriptSig": {
            "asm": "304402206cacd91f5085add22787c4ca84d4275416f9aff3839aa79e8537c9d9bbaee212022056c9d0731148692753f21e2723f58eb6a6eb8d4f922a99c71cf306bef54f88f5[ALL]",
            "hex": "47304402206cacd91f5085add22787c4ca84d4275416f9aff3839aa79e8537c9d9bbaee212022056c9d0731148692753f21e2723f58eb6a6eb8d4f922a99c71cf306bef54f88f501"
          },
          "sequence": 4294967295
        },
        {
          "txid": "3a7d34192888fd742d14184111316f8c1fa503a34c6b2fda82fe61fb51a10381",
          "vout": 0,
          "scriptSig": {
            "asm": "30450220746132159305d30a643c242dfa38501a13299b5df70bd88e8455b1c1001de65a022100d4920be4af1e12b78bd96e23e32ecdfc69f6fc5bbee418243ec58fa7d4730021[ALL]",
            "hex": "4830450220746132159305d30a643c242dfa38501a13299b5df70bd88e8455b1c1001de65a022100d4920be4af1e12b78bd96e23e32ecdfc69f6fc5bbee418243ec58fa7d473002101"
          },
          "sequence": 4294967295
        },
        {
          "txid": "b88c1cae5976c7f3f88b0e8ca0b23d6f8e44112dd7074d7f3fe01579710ae3be",
          "vout": 0,
          "scriptSig": {
            "asm": "304402206cac8d98c4aa192c9e7368dbed3bd055a191580ba3ee9ab0d52d128dcb1b410a0220066b5508416f52707132b7f38751ba038bad62cae0f567732045b9b54a9bda0a[ALL]",
            "hex": "47304402206cac8d98c4aa192c9e7368dbed3bd055a191580ba3ee9ab0d52d128dcb1b410a0220066b5508416f52707132b7f38751ba038bad62cae0f567732045b9b54a9bda0a01"
          },
          "sequence": 4294967295
        },
        {
          "txid": "ade2de2bb77312dbd4ebd7171291701010c0f935e985581fd777da7281901bbf",
          "vout": 0,
          "scriptSig": {
            "asm": "304502210082cad1fb70c2ecab86602de899e93c0fa8d55724e87105db2bc708b69d35de3302206b8c8c4695ef082e9a9cffb7df3b49a41c1c35dfd1b42a58ddd551b6e2f403a7[ALL]",
            "hex": "48304502210082cad1fb70c2ecab86602de899e93c0fa8d55724e87105db2bc708b69d35de3302206b8c8c4695ef082e9a9cffb7df3b49a41c1c35dfd1b42a58ddd551b6e2f403a701"
          },
          "sequence": 4294967295
        },
        {
          "txid": "8bea4c52e497aac81f3c6520febe1a2bff73dfa04d89855c32f4f5cd27d564c4",
          "vout": 0,
          "scriptSig": {
            "asm": "304402204140b7e88df248205d238372118f832d997ec42a9f61f0b0644efbf8a61fe6a402203675074f4ad95e8bc51ca249f7703de6a7d1928213e9a523925e98a2c929f292[ALL]",
            "hex": "47304402204140b7e88df248205d238372118f832d997ec42a9f61f0b0644efbf8a61fe6a402203675074f4ad95e8bc51ca249f7703de6a7d1928213e9a523925e98a2c929f29201"
          },
          "sequence": 4294967295
        },
        {
          "txid": "729c429213b0de74f61a89ad7da09fc63143e16c7738c1b59130f283e4991dc9",
          "vout": 0,
          "scriptSig": {
            "asm": "3044022031666ff7423f79c8e569d58a53270eadd488527ea866c9bd2b1120546aea9593022037b33f76f9e970e54127071fb04b51eaf58bb682f2784c782586a0f365a5cd16[ALL]",
            "hex": "473044022031666ff7423f79c8e569d58a53270eadd488527ea866c9bd2b1120546aea9593022037b33f76f9e970e54127071fb04b51eaf58bb682f2784c782586a0f365a5cd1601"
          },
          "sequence": 4294967295
        },
        {
          "txid": "20e5895b437c56b1c42f34fc1a2a280dd9a4b339b3ee1b89ec87d3e2cb3ec1d8",
          "vout": 0,
          "scriptSig": {
            "asm": "30450221008aef18502118716e086473faa76b1769322c1bf81428f50235de4a0119af7efa02202a2b707fa084ed53026cdc87c1c2e9de4df9738e6f7bbec01dea409b2931fe5d[ALL]",
            "hex": "4830450221008aef18502118716e086473faa76b1769322c1bf81428f50235de4a0119af7efa02202a2b707fa084ed53026cdc87c1c2e9de4df9738e6f7bbec01dea409b2931fe5d01"
          },
          "sequence": 4294967295
        },
        {
          "txid": "ad0de1501b73c69e7ca5ea4d033abd4c7e1bb261d7bb28cee25861e9fe02a068",
          "vout": 0,
          "scriptSig": {
            "asm": "304402203073af03df4756faeb79d3e559480d2c4408b1a9d96cc99b4270be7f250d7883022040c735cc8f5d7eb6bbcc46e2f929f1deeb6ebe86dcdf0e013030174ba14a6944[ALL]",
            "hex": "47304402203073af03df4756faeb79d3e559480d2c4408b1a9d96cc99b4270be7f250d7883022040c735cc8f5d7eb6bbcc46e2f929f1deeb6ebe86dcdf0e013030174ba14a694401"
          },
          "sequence": 4294967295
        },
        {
          "txid": "4e7b39f97978a303d611147698fa5df474a1cef55e2e47ded6a31122171d8897",
          "vout": 0,
          "scriptSig": {
            "asm": "304402200f81a2710ab31beb3f8ccb3a2639bd003941a6847c592a3d9885f6750bf017010220056f6ce979a10e4cdba9d06a7017bf920c121df0df2fac615298c75d8f09eaa5[ALL]",
            "hex": "47304402200f81a2710ab31beb3f8ccb3a2639bd003941a6847c592a3d9885f6750bf017010220056f6ce979a10e4cdba9d06a7017bf920c121df0df2fac615298c75d8f09eaa501"
          },
          "sequence": 4294967295
        }
      ],
      "vout": [
        {
          "value": 500.0,
          "n": 0,
          "scriptPubKey": {
            "asm": "04b6c51d273c142a7a015ab6bd68d738dfcbc0f9015140dc5f2c7b3b944429ab3474348cde91ec1aeda4dd24324dcc2fa6498b0dde87c855a839b090f6e8b016e6 OP_CHECKSIG",
            "desc": "pk(04b6c51d273c142a7a015ab6bd68d738dfcbc0f9015140dc5f2c7b3b944429ab3474348cde91ec1aeda4dd24324dcc2fa6498b0dde87c855a839b090f6e8b016e6)#etetyywm",
            "hex": "4104b6c51d273c142a7a015ab6bd68d738dfcbc0f9015140dc5f2c7b3b944429ab3474348cde91ec1aeda4dd24324dcc2fa6498b0dde87c855a839b090f6e8b016e6ac",
            "type": "pubkey"
          }
        }
      ],
      "fee": 0.0,
      "hex": "010000000a74e91a22ca3b9bdde05fc4ed376a418deb5981cfa52cbee00331438ed0d53aad0000000049483045022100f7b1e59337171c41237947e0e3d72061715614bdc022665ad425152d54a67f8b0220781cebea276de74079e202e849ef08767369160cf5acd92a831078b6c303094901ffffffff80c99a25dfcd334324dd5be987f62b9dba104da76c19e0cea9761eac2e3e753e000000004847304402206cacd91f5085add22787c4ca84d4275416f9aff3839aa79e8537c9d9bbaee212022056c9d0731148692753f21e2723f58eb6a6eb8d4f922a99c71cf306bef54f88f501ffffffff8103a151fb61fe82da2f6b4ca303a51f8c6f31114118142d74fd882819347d3a00000000494830450220746132159305d30a643c242dfa38501a13299b5df70bd88e8455b1c1001de65a022100d4920be4af1e12b78bd96e23e32ecdfc69f6fc5bbee418243ec58fa7d473002101ffffffffbee30a717915e03f7f4d07d72d11448e6f3db2a08c0e8bf8f3c77659ae1c8cb8000000004847304402206cac8d98c4aa192c9e7368dbed3bd055a191580ba3ee9ab0d52d128dcb1b410a0220066b5508416f52707132b7f38751ba038bad62cae0f567732045b9b54a9bda0a01ffffffffbf1b908172da77d71f5885e935f9c0101070911217d7ebd4db1273b72bdee2ad000000004948304502210082cad1fb70c2ecab86602de899e93c0fa8d55724e87105db2bc708b69d35de3302206b8c8c4695ef082e9a9cffb7df3b49a41c1c35dfd1b42a58ddd551b6e2f403a701ffffffffc464d527cdf5f4325c85894da0df73ff2b1abefe20653c1fc8aa97e4524cea8b000000004847304402204140b7e88df248205d238372118f832d997ec42a9f61f0b0644efbf8a61fe6a402203675074f4ad95e8bc51ca249f7703de6a7d1928213e9a523925e98a2c929f29201ffffffffc91d99e483f23091b5c138776ce14331c69fa07dad891af674deb01392429c720000000048473044022031666ff7423f79c8e569d58a53270eadd488527ea866c9bd2b1120546aea9593022037b33f76f9e970e54127071fb04b51eaf58bb682f2784c782586a0f365a5cd1601ffffffffd8c13ecbe2d387ec891beeb339b3a4d90d282a1afc342fc4b1567c435b89e52000000000494830450221008aef18502118716e086473faa76b1769322c1bf81428f50235de4a0119af7efa02202a2b707fa084ed53026cdc87c1c2e9de4df9738e6f7bbec01dea409b2931fe5d01ffffffff68a002fee96158e2ce28bbd761b21b7e4cbd3a034deaa57c9ec6731b50e10dad000000004847304402203073af03df4756faeb79d3e559480d2c4408b1a9d96cc99b4270be7f250d7883022040c735cc8f5d7eb6bbcc46e2f929f1deeb6ebe86dcdf0e013030174ba14a694401ffffffff97881d172211a3d6de472e5ef5cea174f45dfa98761411d603a37879f9397b4e000000004847304402200f81a2710ab31beb3f8ccb3a2639bd003941a6847c592a3d9885f6750bf017010220056f6ce979a10e4cdba9d06a7017bf920c121df0df2fac615298c75d8f09eaa501ffffffff0100743ba40b000000434104b6c51d273c142a7a015ab6bd68d738dfcbc0f9015140dc5f2c7b3b944429ab3474348cde91ec1aeda4dd24324dcc2fa6498b0dde87c855a839b090f6e8b016e6ac00000000"
    }
  ]
}