{
  "hash": "0000000058443a2d2ed22c6dc6f85c9df598647d7bfd2fc9142c44794b811ba2",
  "confirmations": 48400,
  "height": 4698,
  "version": 1,
  "versionHex": "00000001",
  "merkleroot": "f6565f3a841fe066355070b4b18ba4bfc701c4f007d104f54d2d9d40c35ffb60",
  "time": 1234927136,
  "mediantime": 1234922287,
  "nonce": 452313134,
  "bits": "1d00ffff",
  "difficulty": 1,
  "chainwork": "0000000000000000000000000000000000000000000000000000125b125b125b",
  "nTx": 1,
  "previousblockhash": "000000002109eb6940db1ba3cac1934cd98473311c28aef747dadaed24a2e26e",
  "nextblockhash": "0000000062b33a11bc5a429dda8e81b8119cda4a4b5e638b8b8803651c302e99",
  "strippedsize": 216,
  "size": 216,
  "weight": 864,
  "tx": [
    {
      "txid": "f6565f3a841fe066355070b4b18ba4bfc701c4f007d104f54d2d9d40c35ffb60",
      "hash": "f6565f3a841fe066355070b4b18ba4bfc701c4f007d104f54d2d9d40c35ffb60",
      "version": 1,
      "size": 135,
      "vsize": 135,
      "weight": 540,
      "locktime": 0,
      "vin": [
        {
          "coinbase": "04ffff001d027f02",
          "sequence": 4294967295
        }
      ],
      "vout": [
        {
          "value": 50.0,
          "n": 0,
          "scriptPubKey": {
            "asm": "04b6d9bf4891f17926f5e78393ed7470ffe6ff2a257d33b71068d5cdfcaf4bddb89f8240039582a72223c97461a4df654e2c96c845199dc56957c2acdd35e1d6b1 OP_CHECKSIG",
            "desc": "pk(04b6d9bf4891f17926f5e78393ed7470ffe6ff2a257d33b71068d5cdfcaf4bddb89f8240039582a72223c97461a4df654e2c96c845199dc56957c2acdd35e1d6b1)#hpy8gpjz",
            "hex": "4104b6d9bf4891f17926f5e78393ed7470ffe6ff2a257d33b71068d5cdfcaf4bddb89f8240039582a72223c97461a4df654e2c96c845199dc56957c2acdd35e1d6b1ac",
            "type": "pubkey"
          }
        }
      ],
      "hex": "01000000010000000000000000000000000000000000000000000000000000000000000000ffffffff0804ffff001d027f02ffffffff0100f2052a01000000434104b6d9bf4891f17926f5e78393ed7470ffe6ff2a257d33b71068d5cdfcaf4bddb89f8240039582a72223c97461a4df654e2c96c845199dc56957c2acdd35e1d6b1ac00000000"
    }
  ]
}