{
  "hash": "0000000033c7f027eb308e1dfab32a6a9959a79f224a9a4ee5dcb6389d09f624",
  "confirmations": 43609,
  "height": 9489,
  "version": 1,
  "versionHex": "00000001",
  "merkleroot": "c068dd2b29277ba4b5d0e4107225a18e9c38800dc6ecd85be879974abe2f1ca2",
  "time": 1238621203,
  "mediantime": 1238618130,
  "nonce": 4064100642,
  "bits": "1d00ffff",
  "difficulty": 1,
  "chainwork": "0000000000000000000000000000000000000000000000000000251225122512",
  "nTx": 1,
  "previousblockhash": "0000000066d47a2200b064306425fc3e79eefeff62f7a2753355520e46b939db",
  "nextblockhash": "000000006e8846211277fb3fb90194fe295e856c6d5a8a8a6d4862ea45d4ce45",
  "strippedsize": 216,
  "size": 216,
  "weight": 864,
  "tx": [
    {
      "txid": "c068dd2b29277ba4b5d0e4107225a18e9c38800dc6ecd85be879974abe2f1ca2",
      "hash": "c068dd2b29277ba4b5d0e4107225a18e9c38800dc6ecd85be879974abe2f1ca2",
      "version": 1,
      "size": 135,
      "vsize": 135,
      "weight": 540,
      "locktime": 0,
      "vin": [
        {
          "coinbase": "04ffff001d024b05",
          "sequence": 4294967295
        }
      ],
      "vout": [
        {
          "value": 50.0,
          "n": 0,
          "scriptPubKey": {
            "asm": "04384bc4aea7b2f22e317d1d2e91921c1a3858686b002570c3f30fa9b63e6b8415ffb20fd46b06965cc9a65fde121df4258a24705dd33c7603baddbb01ec2e34d2 OP_CHECKSIG",
            "desc": "pk(04384bc4aea7b2f22e317d1d2e91921c1a3858686b002570c3f30fa9b63e6b8415ffb20fd46b06965cc9a65fde121df4258a24705dd33c7603baddbb01ec2e34d2)#jxamj2uk",
            "hex": "4104384bc4aea7b2f22e317d1d2e91921c1a3858686b002570c3f30fa9b63e6b8415ffb20fd46b06965cc9a65fde121df4258a24705dd33c7603baddbb01ec2e34d2ac",
            "type": "pubkey"
          }
        }
      ],
      "hex": "01000000010000000000000000000000000000000000000000000000000000000000000000ffffffff0804ffff001d024b05ffffffff0100f2052a01000000434104384bc4aea7b2f22e317d1d2e91921c1a3858686b002570c3f30fa9b63e6b8415ffb20fd46b06965cc9a65fde121df4258a24705dd33c7603baddbb01ec2e34d2ac00000000"
    }
  ]
}