{
  "hash": "0000000032e60223613ac26a22e03e297870eda4013249fdefff43318e168c6c",
  "confirmations": 50431,
  "height": 2667,
  "version": 1,
  "versionHex": "00000001",
  "merkleroot": "31ba12fa83195e693bbf8dc4880242e030f429a3162d01ba124e33fe12274e04",
  "time": 1233538781,
  "mediantime": 1233535803,
  "nonce": 2889380897,
  "bits": "1d00ffff",
  "difficulty": 1,
  "chainwork": "00000000000000000000000000000000000000000000000000000a6c0a6c0a6c",
  "nTx": 1,
  "previousblockhash": "00000000861fc17d630b5fb4c2a496413878841e99846bfc55072bc8c1624e4d",
  "nextblockhash": "00000000b649b594c7f46bb805ad060248a078eb721f5754613e5c2ed7b21243",
  "strippedsize": 216,
  "size": 216,
  "weight": 864,
  "tx": [
    {
      "txid": "31ba12fa83195e693bbf8dc4880242e030f429a3162d01ba124e33fe12274e04",
      "hash": "31ba12fa83195e693bbf8dc4880242e030f429a3162d01ba124e33fe12274e04",
      "version": 1,
      "size": 135,
      "vsize": 135,
      "weight": 540,
      "locktime": 0,
      "vin": [
        {
          "coinbase": "04ffff001d024404",
          "sequence": 4294967295
        }
      ],
      "vout": [
        {
          "value": 50.0,
          "n": 0,
          "scriptPubKey": {
            "asm": "04414e4ddb1a9dd6491ed06f0952e1288aae89d41adb75daefff65742d55da30170ed7f85515ce88841d2fb4d95e4b8e24a34331b48f97628eddc19c59f86065a2 OP_CHECKSIG",
            "desc": "pk(04414e4ddb1a9dd6491ed06f0952e1288aae89d41adb75daefff65742d55da30170ed7f85515ce88841d2fb4d95e4b8e24a34331b48f97628eddc19c59f86065a2)#8uzcpqxy",
            "hex": "4104414e4ddb1a9dd6491ed06f0952e1288aae89d41adb75daefff65742d55da30170ed7f85515ce88841d2fb4d95e4b8e24a34331b48f97628eddc19c59f86065a2ac",
            "type": "pubkey"
          }
        }
      ],
      "hex": "01000000010000000000000000000000000000000000000000000000000000000000000000ffffffff0804ffff001d024404ffffffff0100f2052a01000000434104414e4ddb1a9dd6491ed06f0952e1288aae89d41adb75daefff65742d55da30170ed7f85515ce88841d2fb4d95e4b8e24a34331b48f97628eddc19c59f86065a2ac00000000"
    }
  ]
}