{
  "hash": "00000000d17c1b768f3b494e83d6a22fe748aaa9fc49dc6ef0bd2297132380d8",
  "confirmations": 45932,
  "height": 7166,
  "version": 1,
  "versionHex": "00000001",
  "merkleroot": "243bdb630076cf13a8027a776c69997d8ee30d926654892bd4812af76b47f752",
  "time": 1236846569,
  "mediantime": 1236842310,
  "nonce": 1395776289,
  "bits": "1d00ffff",
  "difficulty": 1,
  "chainwork": "00000000000000000000000000000000000000000000000000001bff1bff1bff",
  "nTx": 1,
  "previousblockhash": "00000000b536b7237b218ee74226a242d42aad38429e8c84e6b00597750487ae",
  "nextblockhash": "00000000d36f52dea96dba970bebce469442d89507eb5bf5b39991755b6e791f",
  "strippedsize": 216,
  "size": 216,
  "weight": 864,
  "tx": [
    {
      "txid": "243bdb630076cf13a8027a776c69997d8ee30d926654892bd4812af76b47f752",
      "hash": "243bdb630076cf13a8027a776c69997d8ee30d926654892bd4812af76b47f752",
      "version": 1,
      "size": 135,
      "vsize": 135,
      "weight": 540,
      "locktime": 0,
      "vin": [
        {
          "coinbase": "04ffff001d022805",
          "sequence": 4294967295
        }
      ],
      "vout": [
        {
          "value": 50.0,
          "n": 0,
          "scriptPubKey": {
            "asm": "04ca219f313ca779da0293d59efc0137b643dd67e60fbbcfbd5c41e9132f0971a76c4dcdc2b1f9ef859c90aae2f47ea943c08de07b95529c74c61a5f71a660963d OP_CHECKSIG",
            "desc": "pk(04ca219f313ca779da0293d59efc0137b643dd67e60fbbcfbd5c41e9132f0971a76c4dcdc2b1f9ef859c90aae2f47ea943c08de07b95529c74c61a5f71a660963d)#qhcmkn3k",
            "hex": "4104ca219f313ca779da0293d59efc0137b643dd67e60fbbcfbd5c41e9132f0971a76c4dcdc2b1f9ef859c90aae2f47ea943c08de07b95529c74c61a5f71a660963dac",
            "type": "pubkey"
          }
        }
      ],
      "hex": "01000000010000000000000000000000000000000000000000000000000000000000000000ffffffff0804ffff001d022805ffffffff0100f2052a01000000434104ca219f313ca779da0293d59efc0137b643dd67e60fbbcfbd5c41e9132f0971a76c4dcdc2b1f9ef859c90aae2f47ea943c08de07b95529c74c61a5f71a660963dac00000000"
    }
  ]
}