{
  "hash": "000000000c9786184b3132f5571eb9444157e1911787e90dd0e155bf15c93029",
  "confirmations": 45409,
  "height": 7689,
  "version": 1,
  "versionHex": "00000001",
  "merkleroot": "376fca4d2a4b9d07adb9e763b53a69340884cab115d8c41104360bcf3d6c9d6f",
  "time": 1237230876,
  "mediantime": 1237226778,
  "nonce": 1507625516,
  "bits": "1d00ffff",
  "difficulty": 1,
  "chainwork": "00000000000000000000000000000000000000000000000000001e0a1e0a1e0a",
  "nTx": 1,
  "previousblockhash": "00000000d771860453679c384061ba7ae9060f9e79aebb67fce975f9f658555b",
  "nextblockhash": "000000004b1fa27917780f6d64899e0c2d5b143ed45e4ab32e428894692f4472",
  "strippedsize": 216,
  "size": 216,
  "weight": 864,
  "tx": [
    {
      "txid": "376fca4d2a4b9d07adb9e763b53a69340884cab115d8c41104360bcf3d6c9d6f",
      "hash": "376fca4d2a4b9d07adb9e763b53a69340884cab115d8c41104360bcf3d6c9d6f",
      "version": 1,
      "size": 135,
      "vsize": 135,
      "weight": 540,
      "locktime": 0,
      "vin": [
        {
          "coinbase": "04ffff001d02ed03",
          "sequence": 4294967295
        }
      ],
      "vout": [
        {
          "value": 50.0,
          "n": 0,
          "scriptPubKey": {
            "asm": "047b01503ab9332eeb41028c8a4133181ca2b5e60dfe8b022bc450e4a9b254aa3a2a5f75fc4817fb102f13b95b8cf7f6b818498f5d81e193b7f8ad200444174850 OP_CHECKSIG",
            "desc": "pk(047b01503ab9332eeb41028c8a4133181ca2b5e60dfe8b022bc450e4a9b254aa3a2a5f75fc4817fb102f13b95b8cf7f6b818498f5d81e193b7f8ad200444174850)#mnk7dvvm",
            "hex": "41047b01503ab9332eeb41028c8a4133181ca2b5e60dfe8b022bc450e4a9b254aa3a2a5f75fc4817fb102f13b95b8cf7f6b818498f5d81e193b7f8ad200444174850ac",
            "type": "pubkey"
          }
        }
      ],
      "hex": "01000000010000000000000000000000000000000000000000000000000000000000000000ffffffff0804ffff001d02ed03ffffffff0100f2052a010000004341047b01503ab9332eeb41028c8a4133181ca2b5e60dfe8b022bc450e4a9b254aa3a2a5f75fc4817fb102f13b95b8cf7f6b818498f5d81e193b7f8ad200444174850ac00000000"
    }
  ]
}