{
  "hash": "00000000c2599abdad11d97b46094a5a9807c8d0388f928e9f5b2bf6ce8c1ac8",
  "confirmations": 47265,
  "height": 5833,
  "version": 1,
  "versionHex": "00000001",
  "merkleroot": "dec2c7041a7e666dc13114ea3c0a3d665356a87b4bd4da37253fb62c640078ce",
  "time": 1235786223,
  "mediantime": 1235782208,
  "nonce": 2372793365,
  "bits": "1d00ffff",
  "difficulty": 1,
  "chainwork": "000000000000000000000000000000000000000000000000000016ca16ca16ca",
  "nTx": 1,
  "previousblockhash": "00000000a9acee10e7ef660a31e0cb1253ca8503c803950daed0968a8f6a29d5",
  "nextblockhash": "0000000001a674b3aff7aa32cc9a08d01b685e7129511f3655444e7a2c427dfb",
  "strippedsize": 216,
  "size": 216,
  "weight": 864,
  "tx": [
    {
      "txid": "dec2c7041a7e666dc13114ea3c0a3d665356a87b4bd4da37253fb62c640078ce",
      "hash": "dec2c7041a7e666dc13114ea3c0a3d665356a87b4bd4da37253fb62c640078ce",
      "version": 1,
      "size": 135,
      "vsize": 135,
      "weight": 540,
      "locktime": 0,
      "vin": [
        {
          "coinbase": "04ffff001d026f01",
          "sequence": 4294967295
        }
      ],
      "vout": [
        {
          "value": 50.0,
          "n": 0,
          "scriptPubKey": {
            "asm": "0422b758d77e9e6b9f2030b28156c4fdc2ac8a302401950718bcd8d9e443007c34d968e3443a3d12fdf7b78e85d3cfc62deb2ec33a266d8770fc1531234fc8c187 OP_CHECKSIG",
            "desc": "pk(0422b758d77e9e6b9f2030b28156c4fdc2ac8a302401950718bcd8d9e443007c34d968e3443a3d12fdf7b78e85d3cfc62deb2ec33a266d8770fc1531234fc8c187)#sqmfdnxs",
            "hex": "410422b758d77e9e6b9f2030b28156c4fdc2ac8a302401950718bcd8d9e443007c34d968e3443a3d12fdf7b78e85d3cfc62deb2ec33a266d8770fc1531234fc8c187ac",
            "type": "pubkey"
          }
        }
      ],
      "hex": "01000000010000000000000000000000000000000000000000000000000000000000000000ffffffff0804ffff001d026f01ffffffff0100f2052a0100000043410422b758d77e9e6b9f2030b28156c4fdc2ac8a302401950718bcd8d9e443007c34d968e3443a3d12fdf7b78e85d3cfc62deb2ec33a266d8770fc1531234fc8c187ac00000000"
    }
  ]
}