{
  "hash": "00000000af65d8750ebd67da9421b8054e5bac2a8b25dac3b0f4ce86dcde252d",
  "confirmations": 51788,
  "height": 1310,
  "version": 1,
  "versionHex": "00000001",
  "merkleroot": "db601f2acf37a3abc707dddbe52e17296b247805abc4042cd3af494055ca21e8",
  "time": 1232603229,
  "mediantime": 1232598859,
  "nonce": 677945621,
  "bits": "1d00ffff",
  "difficulty": 1,
  "chainwork": "0000000000000000000000000000000000000000000000000000051f051f051f",
  "nTx": 1,
  "previousblockhash": "00000000281a804ca083851928c377764120ebb9d9a0d6f7058b5018486b4ce7",
  "nextblockhash": "00000000eabdf33ebb1a8f1793e02fd1291ff1b6b246f1806a820f4908999e1e",
  "strippedsize": 215,
  "size": 215,
  "weight": 860,
  "tx": [
    {
      "txid": "db601f2acf37a3abc707dddbe52e17296b247805abc4042cd3af494055ca21e8",
      "hash": "db601f2acf37a3abc707dddbe52e17296b247805abc4042cd3af494055ca21e8",
      "version": 1,
      "size": 134,
      "vsize": 134,
      "weight": 536,
      "locktime": 0,
      "vin": [
        {
          "coinbase": "04ffff001d014e",
          "sequence": 4294967295
        }
      ],
      "vout": [
        {
          "value": 50.0,
          "n": 0,
          "scriptPubKey": {
            "asm": "045a74307e77a8fe8be694570976f0a3761106b3fc4c7e0437782d96afa6349f60777d9b29d761ace9c91d31feaf8d4e9891f900dd63b8478aac27ea7551088a49 OP_CHECKSIG",
            "desc": "pk(045a74307e77a8fe8be694570976f0a3761106b3fc4c7e0437782d96afa6349f60777d9b29d761ace9c91d31feaf8d4e9891f900dd63b8478aac27ea7551088a49)#5rvapkd7",
            "hex": "41045a74307e77a8fe8be694570976f0a3761106b3fc4c7e0437782d96afa6349f60777d9b29d761ace9c91d31feaf8d4e9891f900dd63b8478aac27ea7551088a49ac",
            "type": "pubkey"
          }
        }
      ],
      "hex": "01000000010000000000000000000000000000000000000000000000000000000000000000ffffffff0704ffff001d014effffffff0100f2052a010000004341045a74307e77a8fe8be694570976f0a3761106b3fc4c7e0437782d96afa6349f60777d9b29d761ace9c91d31feaf8d4e9891f900dd63b8478aac27ea7551088a49ac00000000"
    }
  ]
}