{
  "hash": "000000003085602911b9da7c4b636f2f809a3a3d1db4155e2bf9b9e572791ab1",
  "confirmations": 51259,
  "height": 1839,
  "version": 1,
  "versionHex": "00000001",
  "merkleroot": "8d75b3e36d91bf4c80e2eb4f052915fdc6e52ff56dd8bdf09b8f245cf2716da2",
  "time": 1232917351,
  "mediantime": 1232915500,
  "nonce": 2943903281,
  "bits": "1d00ffff",
  "difficulty": 1,
  "chainwork": "0000000000000000000000000000000000000000000000000000073007300730",
  "nTx": 1,
  "previousblockhash": "0000000022fa7cb365cc0e556ad0f9afc0148c9f2e73d18b6ff7f6d82af6f31e",
  "nextblockhash": "00000000d84f0a18e6563db3149a266515eb6c23810e19c714f8ac6e037f108f",
  "strippedsize": 216,
  "size": 216,
  "weight": 864,
  "tx": [
    {
      "txid": "8d75b3e36d91bf4c80e2eb4f052915fdc6e52ff56dd8bdf09b8f245cf2716da2",
      "hash": "8d75b3e36d91bf4c80e2eb4f052915fdc6e52ff56dd8bdf09b8f245cf2716da2",
      "version": 1,
      "size": 135,
      "vsize": 135,
      "weight": 540,
      "locktime": 0,
      "vin": [
        {
          "coinbase": "04ffff001d026904",
          "sequence": 4294967295
        }
      ],
      "vout": [
        {
          "value": 50.0,
          "n": 0,
          "scriptPubKey": {
            "asm": "04f9aeb99dae57356acf3f2c7329f19b7f53ecbec76f3b9c9b8b8e7b7b59c6f5d23b2abbbe20d61c3331e4257bd7ce971151e1ab325ab973f3667f4fbc88ed9169 OP_CHECKSIG",
            "desc": "pk(04f9aeb99dae57356acf3f2c7329f19b7f53ecbec76f3b9c9b8b8e7b7b59c6f5d23b2abbbe20d61c3331e4257bd7ce971151e1ab325ab973f3667f4fbc88ed9169)#yvfd2sgy",
            "hex": "4104f9aeb99dae57356acf3f2c7329f19b7f53ecbec76f3b9c9b8b8e7b7b59c6f5d23b2abbbe20d61c3331e4257bd7ce971151e1ab325ab973f3667f4fbc88ed9169ac",
            "type": "pubkey"
          }
        }
      ],
      "hex": "01000000010000000000000000000000000000000000000000000000000000000000000000ffffffff0804ffff001d026904ffffffff0100f2052a01000000434104f9aeb99dae57356acf3f2c7329f19b7f53ecbec76f3b9c9b8b8e7b7b59c6f5d23b2abbbe20d61c3331e4257bd7ce971151e1ab325ab973f3667f4fbc88ed9169ac00000000"
    }
  ]
}