{
  "hash": "000000002c2f4a784f7cd953146bf105840d8135c69ca36acdb18240ead653e7",
  "confirmations": 48575,
  "height": 4523,
  "version": 1,
  "versionHex": "00000001",
  "merkleroot": "abc6618b36747e77000c57a2e184e4edaf5a3ad047e1d1b3cd68f07d8ce74012",
  "time": 1234796312,
  "mediantime": 1234793993,
  "nonce": 7790930,
  "bits": "1d00ffff",
  "difficulty": 1,
  "chainwork": "000000000000000000000000000000000000000000000000000011ac11ac11ac",
  "nTx": 1,
  "previousblockhash": "00000000a3a10dc229423a4cec8d0d82591719702d99f85ebebf954282c65fab",
  "nextblockhash": "00000000236c4f8d671241bb900a52e28206e16bf57d7b626c52a1ae5e0cc648",
  "strippedsize": 215,
  "size": 215,
  "weight": 860,
  "tx": [
    {
      "txid": "abc6618b36747e77000c57a2e184e4edaf5a3ad047e1d1b3cd68f07d8ce74012",
      "hash": "abc6618b36747e77000c57a2e184e4edaf5a3ad047e1d1b3cd68f07d8ce74012",
      "version": 1,
      "size": 134,
      "vsize": 134,
      "weight": 536,
      "locktime": 0,
      "vin": [
        {
          "coinbase": "04ffff001d016b",
          "sequence": 4294967295
        }
      ],
      "vout": [
        {
          "value": 50.0,
          "n": 0,
          "scriptPubKey": {
            "asm": "04acf013ad903003dcc8cd9a8355fd920269b791fa8ace224a9b26f1b66a0da5e960c86fdc24bfd78bc6808f9ad515762d4f16a23be96fc7237aa52c64e3c7c3e6 OP_CHECKSIG",
            "desc": "pk(04acf013ad903003dcc8cd9a8355fd920269b791fa8ace224a9b26f1b66a0da5e960c86fdc24bfd78bc6808f9ad515762d4f16a23be96fc7237aa52c64e3c7c3e6)#0qu5nyyc",
            "hex": "4104acf013ad903003dcc8cd9a8355fd920269b791fa8ace224a9b26f1b66a0da5e960c86fdc24bfd78bc6808f9ad515762d4f16a23be96fc7237aa52c64e3c7c3e6ac",
            "type": "pubkey"
          }
        }
      ],
      "hex": "01000000010000000000000000000000000000000000000000000000000000000000000000ffffffff0704ffff001d016bffffffff0100f2052a01000000434104acf013ad903003dcc8cd9a8355fd920269b791fa8ace224a9b26f1b66a0da5e960c86fdc24bfd78bc6808f9ad515762d4f16a23be96fc7237aa52c64e3c7c3e6ac00000000"
    }
  ]
}