{
  "hash": "00000000a8be7f2f4853219fc467223edbf7dc1aaa0d8a35791bda3afbf29914",
  "confirmations": 45537,
  "height": 7561,
  "version": 1,
  "versionHex": "00000001",
  "merkleroot": "e4dccf8915bcb344a80628973b8e9b8a56315a6b34c34fcbe47c6a465ac7b1f2",
  "time": 1237144968,
  "mediantime": 1237141477,
  "nonce": 162571007,
  "bits": "1d00ffff",
  "difficulty": 1,
  "chainwork": "00000000000000000000000000000000000000000000000000001d8a1d8a1d8a",
  "nTx": 1,
  "previousblockhash": "00000000705f30762442e7c9434de397708846330836e2c421c05d1e42d72738",
  "nextblockhash": "000000000f95bcb1b522c533da5084cfaa8132b9f8014a4b64b811ca6ec379a4",
  "strippedsize": 216,
  "size": 216,
  "weight": 864,
  "tx": [
    {
      "txid": "e4dccf8915bcb344a80628973b8e9b8a56315a6b34c34fcbe47c6a465ac7b1f2",
      "hash": "e4dccf8915bcb344a80628973b8e9b8a56315a6b34c34fcbe47c6a465ac7b1f2",
      "version": 1,
      "size": 135,
      "vsize": 135,
      "weight": 540,
      "locktime": 0,
      "vin": [
        {
          "coinbase": "04ffff001d02e400",
          "sequence": 4294967295
        }
      ],
      "vout": [
        {
          "value": 50.0,
          "n": 0,
          "scriptPubKey": {
            "asm": "046ce6a55af5482303f02cb374e9c66e604be7dab1d61f394b6956ff98f54cb0c6526a7e89fcba251dba950547e21f5dd5de8533422179d6c147be46c4dc170ec6 OP_CHECKSIG",
            "desc": "pk(046ce6a55af5482303f02cb374e9c66e604be7dab1d61f394b6956ff98f54cb0c6526a7e89fcba251dba950547e21f5dd5de8533422179d6c147be46c4dc170ec6)#njuzgdvn",
            "hex": "41046ce6a55af5482303f02cb374e9c66e604be7dab1d61f394b6956ff98f54cb0c6526a7e89fcba251dba950547e21f5dd5de8533422179d6c147be46c4dc170ec6ac",
            "type": "pubkey"
          }
        }
      ],
      "hex": "01000000010000000000000000000000000000000000000000000000000000000000000000ffffffff0804ffff001d02e400ffffffff0100f2052a010000004341046ce6a55af5482303f02cb374e9c66e604be7dab1d61f394b6956ff98f54cb0c6526a7e89fcba251dba950547e21f5dd5de8533422179d6c147be46c4dc170ec6ac00000000"
    }
  ]
}