{
  "hash": "00000000707de97ce881e7294db414527cbaec901deb006b471714398a515e51",
  "confirmations": 47993,
  "height": 5105,
  "version": 1,
  "versionHex": "00000001",
  "merkleroot": "17dda0f8073b473d71a262bcde8eec987cbddc0f19f474b7087e077a50f0f92a",
  "time": 1235221114,
  "mediantime": 1235216369,
  "nonce": 577802,
  "bits": "1d00ffff",
  "difficulty": 1,
  "chainwork": "000000000000000000000000000000000000000000000000000013f213f213f2",
  "nTx": 1,
  "previousblockhash": "00000000ce09bb03abbb48b1a6ea4a6af2ed8a248881a2d8e01fa37b0093a17e",
  "nextblockhash": "000000000ae0aac8fe8437bbd91490a24069c40bd314131ae2ad3060815a292d",
  "strippedsize": 216,
  "size": 216,
  "weight": 864,
  "tx": [
    {
      "txid": "17dda0f8073b473d71a262bcde8eec987cbddc0f19f474b7087e077a50f0f92a",
      "hash": "17dda0f8073b473d71a262bcde8eec987cbddc0f19f474b7087e077a50f0f92a",
      "version": 1,
      "size": 135,
      "vsize": 135,
      "weight": 540,
      "locktime": 0,
      "vin": [
        {
          "coinbase": "04ffff001d02b902",
          "sequence": 4294967295
        }
      ],
      "vout": [
        {
          "value": 50.0,
          "n": 0,
          "scriptPubKey": {
            "asm": "04a38654a52e7905273bd9c4c3c30a788c055d219458adbcc741080614b7bf3199c8e4d7dde089ddde2329941ec09679dc92eb2b250cd0f0176e166c1f4969980a OP_CHECKSIG",
            "desc": "pk(04a38654a52e7905273bd9c4c3c30a788c055d219458adbcc741080614b7bf3199c8e4d7dde089ddde2329941ec09679dc92eb2b250cd0f0176e166c1f4969980a)#8xcpr7k6",
            "hex": "4104a38654a52e7905273bd9c4c3c30a788c055d219458adbcc741080614b7bf3199c8e4d7dde089ddde2329941ec09679dc92eb2b250cd0f0176e166c1f4969980aac",
            "type": "pubkey"
          }
        }
      ],
      "hex": "01000000010000000000000000000000000000000000000000000000000000000000000000ffffffff0804ffff001d02b902ffffffff0100f2052a01000000434104a38654a52e7905273bd9c4c3c30a788c055d219458adbcc741080614b7bf3199c8e4d7dde089ddde2329941ec09679dc92eb2b250cd0f0176e166c1f4969980aac00000000"
    }
  ]
}