{
  "hash": "0000000007d1cc6343cbba51c9234394438e6ef730e31cc1c1cc30ef9efdde86",
  "confirmations": 43483,
  "height": 9615,
  "version": 1,
  "versionHex": "00000001",
  "merkleroot": "6f9c79db5a65b0e37faf7b9ed609a7af687b8b526c15dd7daebb6e5cf5471631",
  "time": 1238712887,
  "mediantime": 1238708124,
  "nonce": 2443987464,
  "bits": "1d00ffff",
  "difficulty": 1,
  "chainwork": "0000000000000000000000000000000000000000000000000000259025902590",
  "nTx": 1,
  "previousblockhash": "0000000088cbdf11dea3e0e1c5509596fd16c2616c511e6d2a6eb993f8c09a6c",
  "nextblockhash": "00000000d27bc35124bd508ccbf9be678378e5566ac8345a076210cea2c44216",
  "strippedsize": 216,
  "size": 216,
  "weight": 864,
  "tx": [
    {
      "txid": "6f9c79db5a65b0e37faf7b9ed609a7af687b8b526c15dd7daebb6e5cf5471631",
      "hash": "6f9c79db5a65b0e37faf7b9ed609a7af687b8b526c15dd7daebb6e5cf5471631",
      "version": 1,
      "size": 135,
      "vsize": 135,
      "weight": 540,
      "locktime": 0,
      "vin": [
        {
          "coinbase": "04ffff001d025507",
          "sequence": 4294967295
        }
      ],
      "vout": [
        {
          "value": 50.0,
          "n": 0,
          "scriptPubKey": {
            "asm": "04d37c97224175482732ebbd64bbc648efefe4574f05db6da9d32eb08e0aac6f8ef7ae77ed1b8aac21b0fd4d97f79a1905f097daf1033e53fe1b60cc355ba3e963 OP_CHECKSIG",
            "desc": "pk(04d37c97224175482732ebbd64bbc648efefe4574f05db6da9d32eb08e0aac6f8ef7ae77ed1b8aac21b0fd4d97f79a1905f097daf1033e53fe1b60cc355ba3e963)#8lgke9l7",
            "hex": "4104d37c97224175482732ebbd64bbc648efefe4574f05db6da9d32eb08e0aac6f8ef7ae77ed1b8aac21b0fd4d97f79a1905f097daf1033e53fe1b60cc355ba3e963ac",
            "type": "pubkey"
          }
        }
      ],
      "hex": "01000000010000000000000000000000000000000000000000000000000000000000000000ffffffff0804ffff001d025507ffffffff0100f2052a01000000434104d37c97224175482732ebbd64bbc648efefe4574f05db6da9d32eb08e0aac6f8ef7ae77ed1b8aac21b0fd4d97f79a1905f097daf1033e53fe1b60cc355ba3e963ac00000000"
    }
  ]
}