{
  "hash": "000000004446faea44e4a0ece765fa7c00eafd3b6d4d3b2ccb1333d83efe3a7f",
  "confirmations": 43930,
  "height": 9168,
  "version": 1,
  "versionHex": "00000001",
  "merkleroot": "c9e0869d8cf41c65dd534be206734a1235385aecbce7d59e7136ef094356d33c",
  "time": 1238377971,
  "mediantime": 1238373286,
  "nonce": 2057146628,
  "bits": "1d00ffff",
  "difficulty": 1,
  "chainwork": "000000000000000000000000000000000000000000000000000023d123d123d1",
  "nTx": 1,
  "previousblockhash": "000000001c77a7c7631f4c6ad357b620492a81bee8031f9296f9c6626b2f499d",
  "nextblockhash": "0000000086eec0b41a46401c0c2ef1058a9ed6a724b621b7ddd79527ace70f67",
  "strippedsize": 216,
  "size": 216,
  "weight": 864,
  "tx": [
    {
      "txid": "c9e0869d8cf41c65dd534be206734a1235385aecbce7d59e7136ef094356d33c",
      "hash": "c9e0869d8cf41c65dd534be206734a1235385aecbce7d59e7136ef094356d33c",
      "version": 1,
      "size": 135,
      "vsize": 135,
      "weight": 540,
      "locktime": 0,
      "vin": [
        {
          "coinbase": "04ffff001d02ad09",
          "sequence": 4294967295
        }
      ],
      "vout": [
        {
          "value": 50.0,
          "n": 0,
          "scriptPubKey": {
            "asm": "04be5c89f971d7f9c038233666dd056ef3585068bf2b7aa9fa0689262c3f17876f55ab9b24d39dc168c46921f3938138ae4492d995258cbdebb1b01bccc597a904 OP_CHECKSIG",
            "desc": "pk(04be5c89f971d7f9c038233666dd056ef3585068bf2b7aa9fa0689262c3f17876f55ab9b24d39dc168c46921f3938138ae4492d995258cbdebb1b01bccc597a904)#vnleew72",
            "hex": "4104be5c89f971d7f9c038233666dd056ef3585068bf2b7aa9fa0689262c3f17876f55ab9b24d39dc168c46921f3938138ae4492d995258cbdebb1b01bccc597a904ac",
            "type": "pubkey"
          }
        }
      ],
      "hex": "01000000010000000000000000000000000000000000000000000000000000000000000000ffffffff0804ffff001d02ad09ffffffff0100f2052a01000000434104be5c89f971d7f9c038233666dd056ef3585068bf2b7aa9fa0689262c3f17876f55ab9b24d39dc168c46921f3938138ae4492d995258cbdebb1b01bccc597a904ac00000000"
    }
  ]
}