{
  "hash": "00000000c9e9198636900eff14109b07f973871c12e78d11e8a7ba1bae64f05b",
  "confirmations": 50087,
  "height": 3011,
  "version": 1,
  "versionHex": "00000001",
  "merkleroot": "d56ea208967f70bbfb3e576c1601c8b8eb64f84de7c6c5faac75f9b735f2e230",
  "time": 1233769584,
  "mediantime": 1233766538,
  "nonce": 2572428588,
  "bits": "1d00ffff",
  "difficulty": 1,
  "chainwork": "00000000000000000000000000000000000000000000000000000bc40bc40bc4",
  "nTx": 1,
  "previousblockhash": "00000000663ebb1ec7628c45761296e2fd4a1d0efeb27b561695c25ebe0ae9d4",
  "nextblockhash": "0000000094bfee5e5359e8913c5cfb461282629dff5776bb17b3addd593e53ab",
  "strippedsize": 216,
  "size": 216,
  "weight": 864,
  "tx": [
    {
      "txid": "d56ea208967f70bbfb3e576c1601c8b8eb64f84de7c6c5faac75f9b735f2e230",
      "hash": "d56ea208967f70bbfb3e576c1601c8b8eb64f84de7c6c5faac75f9b735f2e230",
      "version": 1,
      "size": 135,
      "vsize": 135,
      "weight": 540,
      "locktime": 0,
      "vin": [
        {
          "coinbase": "04ffff001d029501",
          "sequence": 4294967295
        }
      ],
      "vout": [
        {
          "value": 50.0,
          "n": 0,
          "scriptPubKey": {
            "asm": "04fa6a6be253c5ae1fced5d37bd96a7c3933bcb1b2b319fa47969162714d5ffb6f82f8f7e4088dc6fcf51129f009648f2644a13d5ef64da3ad641ccfa3eb16ad5f OP_CHECKSIG",
            "desc": "pk(04fa6a6be253c5ae1fced5d37bd96a7c3933bcb1b2b319fa47969162714d5ffb6f82f8f7e4088dc6fcf51129f009648f2644a13d5ef64da3ad641ccfa3eb16ad5f)#l2x2mfrj",
            "hex": "4104fa6a6be253c5ae1fced5d37bd96a7c3933bcb1b2b319fa47969162714d5ffb6f82f8f7e4088dc6fcf51129f009648f2644a13d5ef64da3ad641ccfa3eb16ad5fac",
            "type": "pubkey"
          }
        }
      ],
      "hex": "01000000010000000000000000000000000000000000000000000000000000000000000000ffffffff0804ffff001d029501ffffffff0100f2052a01000000434104fa6a6be253c5ae1fced5d37bd96a7c3933bcb1b2b319fa47969162714d5ffb6f82f8f7e4088dc6fcf51129f009648f2644a13d5ef64da3ad641ccfa3eb16ad5fac00000000"
    }
  ]
}