{
  "hash": "00000000fa3c04695a819bb5ddcbe4b06c0943c659ad2690f6dcd60e2a0e20f3",
  "confirmations": 52157,
  "height": 941,
  "version": 1,
  "versionHex": "00000001",
  "merkleroot": "e8f9d5c4fe8166547dfbabe7f07cd5e0f92109905cb0e8dca2d54545217d3bb8",
  "time": 1232307189,
  "mediantime": 1232303636,
  "nonce": 96964275,
  "bits": "1d00ffff",
  "difficulty": 1,
  "chainwork": "000000000000000000000000000000000000000000000000000003ae03ae03ae",
  "nTx": 1,
  "previousblockhash": "00000000b9583a2efab8ac0f1f19d2f1d737e1e2b1c6672c88778099afd5a15f",
  "nextblockhash": "0000000002edf896a1d087514c37b37680e1e9d93058bd6fab49711169a2a79b",
  "strippedsize": 216,
  "size": 216,
  "weight": 864,
  "tx": [
    {
      "txid": "e8f9d5c4fe8166547dfbabe7f07cd5e0f92109905cb0e8dca2d54545217d3bb8",
      "hash": "e8f9d5c4fe8166547dfbabe7f07cd5e0f92109905cb0e8dca2d54545217d3bb8",
      "version": 1,
      "size": 135,
      "vsize": 135,
      "weight": 540,
      "locktime": 0,
      "vin": [
        {
          "coinbase": "04ffff001d022e01",
          "sequence": 4294967295
        }
      ],
      "vout": [
        {
          "value": 50.0,
          "n": 0,
          "scriptPubKey": {
            "asm": "043e25a29395e850f1f601c518b9852b40dc1b5127c1919b596d23b800bf2e74496d1e53e590f9d29698fb98588ffaaf133c6348eff235ce85426c20d8b92391b4 OP_CHECKSIG",
            "desc": "pk(043e25a29395e850f1f601c518b9852b40dc1b5127c1919b596d23b800bf2e74496d1e53e590f9d29698fb98588ffaaf133c6348eff235ce85426c20d8b92391b4)#3e94ulj6",
            "hex": "41043e25a29395e850f1f601c518b9852b40dc1b5127c1919b596d23b800bf2e74496d1e53e590f9d29698fb98588ffaaf133c6348eff235ce85426c20d8b92391b4ac",
            "type": "pubkey"
          }
        }
      ],
      "hex": "01000000010000000000000000000000000000000000000000000000000000000000000000ffffffff0804ffff001d022e01ffffffff0100f2052a010000004341043e25a29395e850f1f601c518b9852b40dc1b5127c1919b596d23b800bf2e74496d1e53e590f9d29698fb98588ffaaf133c6348eff235ce85426c20d8b92391b4ac00000000"
    }
  ]
}