{
  "hash": "00000000d3031c2856c7735b405c5c507d1dad8751e7c14298d9c1cea54133a4",
  "confirmations": 43961,
  "height": 9137,
  "version": 1,
  "versionHex": "00000001",
  "merkleroot": "3e18308581bba773736b0f0cf0a1817221c76246c14d58b1830eb1e9930a1a7a",
  "time": 1238358236,
  "mediantime": 1238354174,
  "nonce": 1989902629,
  "bits": "1d00ffff",
  "difficulty": 1,
  "chainwork": "000000000000000000000000000000000000000000000000000023b223b223b2",
  "nTx": 1,
  "previousblockhash": "00000000b9081b0b54959ad619607692c4dff547cf1cf806c206ad6a8739bebf",
  "nextblockhash": "000000004ab38b96a169dc4a8173c3c46249d0709ea860e9ab1d24a6c0c3ec45",
  "strippedsize": 216,
  "size": 216,
  "weight": 864,
  "tx": [
    {
      "txid": "3e18308581bba773736b0f0cf0a1817221c76246c14d58b1830eb1e9930a1a7a",
      "hash": "3e18308581bba773736b0f0cf0a1817221c76246c14d58b1830eb1e9930a1a7a",
      "version": 1,
      "size": 135,
      "vsize": 135,
      "weight": 540,
      "locktime": 0,
      "vin": [
        {
          "coinbase": "04ffff001d020f09",
          "sequence": 4294967295
        }
      ],
      "vout": [
        {
          "value": 50.0,
          "n": 0,
          "scriptPubKey": {
            "asm": "04f4463e9c0269c605c44360105ffbc97fffd244431b6efc88f51d4029f1df3c15b2adcb3b8153c928d1bef814047f7e56f78842b81197ff8a61b77a96fc8135e7 OP_CHECKSIG",
            "desc": "pk(04f4463e9c0269c605c44360105ffbc97fffd244431b6efc88f51d4029f1df3c15b2adcb3b8153c928d1bef814047f7e56f78842b81197ff8a61b77a96fc8135e7)#p2pjq4u8",
            "hex": "4104f4463e9c0269c605c44360105ffbc97fffd244431b6efc88f51d4029f1df3c15b2adcb3b8153c928d1bef814047f7e56f78842b81197ff8a61b77a96fc8135e7ac",
            "type": "pubkey"
          }
        }
      ],
      "hex": "01000000010000000000000000000000000000000000000000000000000000000000000000ffffffff0804ffff001d020f09ffffffff0100f2052a01000000434104f4463e9c0269c605c44360105ffbc97fffd244431b6efc88f51d4029f1df3c15b2adcb3b8153c928d1bef814047f7e56f78842b81197ff8a61b77a96fc8135e7ac00000000"
    }
  ]
}