{
  "hash": "00000000261b4765edf334510ef4e167cbaf58406af6281891b4d57595c10fc9",
  "confirmations": 43764,
  "height": 9334,
  "version": 1,
  "versionHex": "00000001",
  "merkleroot": "c3ec0b2c535b625ecf90e466452e8be12f3b5fb5612ba004a65ec90b69950450",
  "time": 1238500025,
  "mediantime": 1238496930,
  "nonce": 2569950983,
  "bits": "1d00ffff",
  "difficulty": 1,
  "chainwork": "0000000000000000000000000000000000000000000000000000247724772477",
  "nTx": 1,
  "previousblockhash": "00000000164fc769f695423278b637e89dd8baa2889292dab6ebbb1ae8b2026f",
  "nextblockhash": "00000000cee1ebe5ca4698c8dc203ec6a430eb43f85326273c5934a428861df0",
  "strippedsize": 216,
  "size": 216,
  "weight": 864,
  "tx": [
    {
      "txid": "c3ec0b2c535b625ecf90e466452e8be12f3b5fb5612ba004a65ec90b69950450",
      "hash": "c3ec0b2c535b625ecf90e466452e8be12f3b5fb5612ba004a65ec90b69950450",
      "version": 1,
      "size": 135,
      "vsize": 135,
      "weight": 540,
      "locktime": 0,
      "vin": [
        {
          "coinbase": "04ffff001d026b02",
          "sequence": 4294967295
        }
      ],
      "vout": [
        {
          "value": 50.0,
          "n": 0,
          "scriptPubKey": {
            "asm": "048fd91e55a0eb5957c78826a4c0b097199bd2107fcca58e8646f6ffc29e461324628ea5321505b1620a9ef3c2c96f9551f1c0608c64d2d3740cb229577378935f OP_CHECKSIG",
            "desc": "pk(048fd91e55a0eb5957c78826a4c0b097199bd2107fcca58e8646f6ffc29e461324628ea5321505b1620a9ef3c2c96f9551f1c0608c64d2d3740cb229577378935f)#vlxvx0q4",
            "hex": "41048fd91e55a0eb5957c78826a4c0b097199bd2107fcca58e8646f6ffc29e461324628ea5321505b1620a9ef3c2c96f9551f1c0608c64d2d3740cb229577378935fac",
            "type": "pubkey"
          }
        }
      ],
      "hex": "01000000010000000000000000000000000000000000000000000000000000000000000000ffffffff0804ffff001d026b02ffffffff0100f2052a010000004341048fd91e55a0eb5957c78826a4c0b097199bd2107fcca58e8646f6ffc29e461324628ea5321505b1620a9ef3c2c96f9551f1c0608c64d2d3740cb229577378935fac00000000"
    }
  ]
}