{
  "hash": "00000000a6c5fbddc973517a87e614bcfe39d053109dd357492e1c114a57c32a",
  "confirmations": 50417,
  "height": 2681,
  "version": 1,
  "versionHex": "00000001",
  "merkleroot": "67487ab916c2f425817662e2ef5f6abc83e6243b9af8f42c0c0f05a2b3ed159c",
  "time": 1233550589,
  "mediantime": 1233545370,
  "nonce": 3538991158,
  "bits": "1d00ffff",
  "difficulty": 1,
  "chainwork": "00000000000000000000000000000000000000000000000000000a7a0a7a0a7a",
  "nTx": 1,
  "previousblockhash": "00000000a2696fcc7e4db264b594b481759b692ebaff7cff61145ea11d983593",
  "nextblockhash": "00000000eaead7d7a8ec90b0d5759b24cb40d84fc6d5331bce0d0be4613723ae",
  "strippedsize": 216,
  "size": 216,
  "weight": 864,
  "tx": [
    {
      "txid": "67487ab916c2f425817662e2ef5f6abc83e6243b9af8f42c0c0f05a2b3ed159c",
      "hash": "67487ab916c2f425817662e2ef5f6abc83e6243b9af8f42c0c0f05a2b3ed159c",
      "version": 1,
      "size": 135,
      "vsize": 135,
      "weight": 540,
      "locktime": 0,
      "vin": [
        {
          "coinbase": "04ffff001d028104",
          "sequence": 4294967295
        }
      ],
      "vout": [
        {
          "value": 50.0,
          "n": 0,
          "scriptPubKey": {
            "asm": "047e9eb3a6e0d75c7dc907608da874cf786fa400d4d9da16c36835c37b203ca26940f865361672fba140160e8c5a02c6145b593ac2b959b31baa083ab00e338029 OP_CHECKSIG",
            "desc": "pk(047e9eb3a6e0d75c7dc907608da874cf786fa400d4d9da16c36835c37b203ca26940f865361672fba140160e8c5a02c6145b593ac2b959b31baa083ab00e338029)#thl77y73",
            "hex": "41047e9eb3a6e0d75c7dc907608da874cf786fa400d4d9da16c36835c37b203ca26940f865361672fba140160e8c5a02c6145b593ac2b959b31baa083ab00e338029ac",
            "type": "pubkey"
          }
        }
      ],
      "hex": "01000000010000000000000000000000000000000000000000000000000000000000000000ffffffff0804ffff001d028104ffffffff0100f2052a010000004341047e9eb3a6e0d75c7dc907608da874cf786fa400d4d9da16c36835c37b203ca26940f865361672fba140160e8c5a02c6145b593ac2b959b31baa083ab00e338029ac00000000"
    }
  ]
}