{
  "hash": "00000000f41cdea74d54ba0783469e09b6f34ceab6542260f6428c890059b57f",
  "confirmations": 46202,
  "height": 6896,
  "version": 1,
  "versionHex": "00000001",
  "merkleroot": "78842591ff6f39758436c892c8a72c0f6d73ce3d34b9af1db906cb625df58cc0",
  "time": 1236634007,
  "mediantime": 1236629715,
  "nonce": 1868640791,
  "bits": "1d00ffff",
  "difficulty": 1,
  "chainwork": "00000000000000000000000000000000000000000000000000001af11af11af1",
  "nTx": 1,
  "previousblockhash": "000000005edc36efc96b639fc1b4af4161322ab858ada9639cc90ffe4ddd168a",
  "nextblockhash": "0000000015f1e7ff92e9d45060742576ea20bd23f022425ad5866d18918a6257",
  "strippedsize": 215,
  "size": 215,
  "weight": 860,
  "tx": [
    {
      "txid": "78842591ff6f39758436c892c8a72c0f6d73ce3d34b9af1db906cb625df58cc0",
      "hash": "78842591ff6f39758436c892c8a72c0f6d73ce3d34b9af1db906cb625df58cc0",
      "version": 1,
      "size": 134,
      "vsize": 134,
      "weight": 536,
      "locktime": 0,
      "vin": [
        {
          "coinbase": "04ffff001d0147",
          "sequence": 4294967295
        }
      ],
      "vout": [
        {
          "value": 50.0,
          "n": 0,
          "scriptPubKey": {
            "asm": "0474fa24194631834387e76d363c179836dd9f2adf629871ced6583f9e987275f8fbf1c084a46048291800b88e522c8f2ac76355023445e17c46949d7fce477e9b OP_CHECKSIG",
            "desc": "pk(0474fa24194631834387e76d363c179836dd9f2adf629871ced6583f9e987275f8fbf1c084a46048291800b88e522c8f2ac76355023445e17c46949d7fce477e9b)#q5dltlzq",
            "hex": "410474fa24194631834387e76d363c179836dd9f2adf629871ced6583f9e987275f8fbf1c084a46048291800b88e522c8f2ac76355023445e17c46949d7fce477e9bac",
            "type": "pubkey"
          }
        }
      ],
      "hex": "01000000010000000000000000000000000000000000000000000000000000000000000000ffffffff0704ffff001d0147ffffffff0100f2052a0100000043410474fa24194631834387e76d363c179836dd9f2adf629871ced6583f9e987275f8fbf1c084a46048291800b88e522c8f2ac76355023445e17c46949d7fce477e9bac00000000"
    }
  ]
}