{
  "hash": "00000000c889e9128f789497110591e9b9675efb0b55a41124c7bacc579c18ef",
  "confirmations": 50470,
  "height": 2628,
  "version": 1,
  "versionHex": "00000001",
  "merkleroot": "421dcb79598f9bb700898af4aebe94db4151c73148b60cafedfef97c3a118c18",
  "time": 1233512251,
  "mediantime": 1233509416,
  "nonce": 17734921,
  "bits": "1d00ffff",
  "difficulty": 1,
  "chainwork": "00000000000000000000000000000000000000000000000000000a450a450a45",
  "nTx": 1,
  "previousblockhash": "00000000039e854de88404b98096d42ba4ca5a9a533b223638f75d6db171605a",
  "nextblockhash": "00000000cf73ddae7851986567ee8bdab64bdc95aebb42cdef81f009d0dccc2b",
  "strippedsize": 215,
  "size": 215,
  "weight": 860,
  "tx": [
    {
      "txid": "421dcb79598f9bb700898af4aebe94db4151c73148b60cafedfef97c3a118c18",
      "hash": "421dcb79598f9bb700898af4aebe94db4151c73148b60cafedfef97c3a118c18",
      "version": 1,
      "size": 134,
      "vsize": 134,
      "weight": 536,
      "locktime": 0,
      "vin": [
        {
          "coinbase": "04ffff001d0158",
          "sequence": 4294967295
        }
      ],
      "vout": [
        {
          "value": 50.0,
          "n": 0,
          "scriptPubKey": {
            "asm": "0493cad4b10603f55acab4c27474d80184af78342fc76be6ba62f94907c5575be547cc4b485545ef1e2801eb8b15a910e7bf47b55773e50236930d5dc20c3e9381 OP_CHECKSIG",
            "desc": "pk(0493cad4b10603f55acab4c27474d80184af78342fc76be6ba62f94907c5575be547cc4b485545ef1e2801eb8b15a910e7bf47b55773e50236930d5dc20c3e9381)#gyx6sxsj",
            "hex": "410493cad4b10603f55acab4c27474d80184af78342fc76be6ba62f94907c5575be547cc4b485545ef1e2801eb8b15a910e7bf47b55773e50236930d5dc20c3e9381ac",
            "type": "pubkey"
          }
        }
      ],
      "hex": "01000000010000000000000000000000000000000000000000000000000000000000000000ffffffff0704ffff001d0158ffffffff0100f2052a0100000043410493cad4b10603f55acab4c27474d80184af78342fc76be6ba62f94907c5575be547cc4b485545ef1e2801eb8b15a910e7bf47b55773e50236930d5dc20c3e9381ac00000000"
    }
  ]
}