{
  "hash": "00000000e72bcf1aa4e8cb917b76259064c92e5673cbcbbc9557a55a34516fe5",
  "confirmations": 44045,
  "height": 9053,
  "version": 1,
  "versionHex": "00000001",
  "merkleroot": "a3ce35b5e3cfc412ab73f3e7af07fb7a91de0f736a5a84e61e455ce9f1fdf12d",
  "time": 1238295965,
  "mediantime": 1238287373,
  "nonce": 2110922544,
  "bits": "1d00ffff",
  "difficulty": 1,
  "chainwork": "0000000000000000000000000000000000000000000000000000235e235e235e",
  "nTx": 1,
  "previousblockhash": "000000008e8e06813da4d90b6e4e88a35b552d730f1fba0ae557707d362a6f47",
  "nextblockhash": "000000001b93604460bb1146613ce5cd7aa13fb22bbd561c960759b729fc6d62",
  "strippedsize": 216,
  "size": 216,
  "weight": 864,
  "tx": [
    {
      "txid": "a3ce35b5e3cfc412ab73f3e7af07fb7a91de0f736a5a84e61e455ce9f1fdf12d",
      "hash": "a3ce35b5e3cfc412ab73f3e7af07fb7a91de0f736a5a84e61e455ce9f1fdf12d",
      "version": 1,
      "size": 135,
      "vsize": 135,
      "weight": 540,
      "locktime": 0,
      "vin": [
        {
          "coinbase": "04ffff001d025f07",
          "sequence": 4294967295
        }
      ],
      "vout": [
        {
          "value": 50.0,
          "n": 0,
          "scriptPubKey": {
            "asm": "04fabbe9ed70de4911fa6ee18571cc9257cfca674762e3fca9c8736910484c74d4b1b00196cc868a0c8994091c0345e49d3d0518af55461eea3022b47c0b07c00b OP_CHECKSIG",
            "desc": "pk(04fabbe9ed70de4911fa6ee18571cc9257cfca674762e3fca9c8736910484c74d4b1b00196cc868a0c8994091c0345e49d3d0518af55461eea3022b47c0b07c00b)#z8flqqml",
            "hex": "4104fabbe9ed70de4911fa6ee18571cc9257cfca674762e3fca9c8736910484c74d4b1b00196cc868a0c8994091c0345e49d3d0518af55461eea3022b47c0b07c00bac",
            "type": "pubkey"
          }
        }
      ],
      "hex": "01000000010000000000000000000000000000000000000000000000000000000000000000ffffffff0804ffff001d025f07ffffffff0100f2052a01000000434104fabbe9ed70de4911fa6ee18571cc9257cfca674762e3fca9c8736910484c74d4b1b00196cc868a0c8994091c0345e49d3d0518af55461eea3022b47c0b07c00bac00000000"
    }
  ]
}