{
  "hash": "00000000ab2ad4b32468850fd0c3c5a007acac4f6d2f4d55debb9d1781ca1a38",
  "confirmations": 44143,
  "height": 8955,
  "version": 1,
  "versionHex": "00000001",
  "merkleroot": "e323597d84943117316f85b803d481954069097c9293a4766b9e8d85f83c0a24",
  "time": 1238220984,
  "mediantime": 1238217929,
  "nonce": 961372694,
  "bits": "1d00ffff",
  "difficulty": 1,
  "chainwork": "000000000000000000000000000000000000000000000000000022fc22fc22fc",
  "nTx": 1,
  "previousblockhash": "0000000044df1612302205e2d6bffbbdffb370456a3adebaf1fe0a7e8e312ccf",
  "nextblockhash": "00000000f8ebad1ffcbac17cf59d63d7ca863344143fd2224b7db74cd644d0b3",
  "strippedsize": 216,
  "size": 216,
  "weight": 864,
  "tx": [
    {
      "txid": "e323597d84943117316f85b803d481954069097c9293a4766b9e8d85f83c0a24",
      "hash": "e323597d84943117316f85b803d481954069097c9293a4766b9e8d85f83c0a24",
      "version": 1,
      "size": 135,
      "vsize": 135,
      "weight": 540,
      "locktime": 0,
      "vin": [
        {
          "coinbase": "04ffff001d028b05",
          "sequence": 4294967295
        }
      ],
      "vout": [
        {
          "value": 50.0,
          "n": 0,
          "scriptPubKey": {
            "asm": "04e97006cc275367152028468f8808a4e774995a5fb53f192d98c0fe9d08e2f957ea2034cd7b2679e0655c9da363b2fa0845ca7e7b38c0ce7be139f71015720754 OP_CHECKSIG",
            "desc": "pk(04e97006cc275367152028468f8808a4e774995a5fb53f192d98c0fe9d08e2f957ea2034cd7b2679e0655c9da363b2fa0845ca7e7b38c0ce7be139f71015720754)#gmg7t5lz",
            "hex": "4104e97006cc275367152028468f8808a4e774995a5fb53f192d98c0fe9d08e2f957ea2034cd7b2679e0655c9da363b2fa0845ca7e7b38c0ce7be139f71015720754ac",
            "type": "pubkey"
          }
        }
      ],
      "hex": "01000000010000000000000000000000000000000000000000000000000000000000000000ffffffff0804ffff001d028b05ffffffff0100f2052a01000000434104e97006cc275367152028468f8808a4e774995a5fb53f192d98c0fe9d08e2f957ea2034cd7b2679e0655c9da363b2fa0845ca7e7b38c0ce7be139f71015720754ac00000000"
    }
  ]
}