{
  "hash": "00000000799e1ddaa6d0f89314128d23c07cff013f90180f425e6c6ca21cb0c3",
  "confirmations": 50387,
  "height": 2711,
  "version": 1,
  "versionHex": "00000001",
  "merkleroot": "47c4c2167d6d953fd6ab6cde3bdb695319c3f26aa189579369ce13d482c1e004",
  "time": 1233570715,
  "mediantime": 1233564822,
  "nonce": 1592516649,
  "bits": "1d00ffff",
  "difficulty": 1,
  "chainwork": "00000000000000000000000000000000000000000000000000000a980a980a98",
  "nTx": 1,
  "previousblockhash": "00000000a54af06bd71199d6643ecd7ca5b84a77083ec77718eced30d6222da6",
  "nextblockhash": "000000008a12b1df85d2a7549a789e9ffb47d74e5a513c20db7424a7662e9071",
  "strippedsize": 216,
  "size": 216,
  "weight": 864,
  "tx": [
    {
      "txid": "47c4c2167d6d953fd6ab6cde3bdb695319c3f26aa189579369ce13d482c1e004",
      "hash": "47c4c2167d6d953fd6ab6cde3bdb695319c3f26aa189579369ce13d482c1e004",
      "version": 1,
      "size": 135,
      "vsize": 135,
      "weight": 540,
      "locktime": 0,
      "vin": [
        {
          "coinbase": "04ffff001d02e404",
          "sequence": 4294967295
        }
      ],
      "vout": [
        {
          "value": 50.0,
          "n": 0,
          "scriptPubKey": {
            "asm": "0428e870699b8f0f84c45b922a5785cee547a791dd4c81e674c6dd5bcc46a1ffeb87d933566d24d4dbee6ab1e98934649fdc3ea3788c5156cfbd266cf5175565d6 OP_CHECKSIG",
            "desc": "pk(0428e870699b8f0f84c45b922a5785cee547a791dd4c81e674c6dd5bcc46a1ffeb87d933566d24d4dbee6ab1e98934649fdc3ea3788c5156cfbd266cf5175565d6)#74lgqj2w",
            "hex": "410428e870699b8f0f84c45b922a5785cee547a791dd4c81e674c6dd5bcc46a1ffeb87d933566d24d4dbee6ab1e98934649fdc3ea3788c5156cfbd266cf5175565d6ac",
            "type": "pubkey"
          }
        }
      ],
      "hex": "01000000010000000000000000000000000000000000000000000000000000000000000000ffffffff0804ffff001d02e404ffffffff0100f2052a0100000043410428e870699b8f0f84c45b922a5785cee547a791dd4c81e674c6dd5bcc46a1ffeb87d933566d24d4dbee6ab1e98934649fdc3ea3788c5156cfbd266cf5175565d6ac00000000"
    }
  ]
}