{
  "hash": "0000000048287f3247a279373967e982abe45d08edbea282691b2a5018261014",
  "confirmations": 49883,
  "height": 3215,
  "version": 1,
  "versionHex": "00000001",
  "merkleroot": "cfc4057ac1f98bb9f829879c50762cb5c27c6074d5b4dc4eeedf87561729352f",
  "time": 1233912192,
  "mediantime": 1233907438,
  "nonce": 137553786,
  "bits": "1d00ffff",
  "difficulty": 1,
  "chainwork": "00000000000000000000000000000000000000000000000000000c900c900c90",
  "nTx": 1,
  "previousblockhash": "00000000490b2e02c33bc577ca3feb0d8df1653663b6b4ec95a0e1723cce9f57",
  "nextblockhash": "00000000d0f0eaae29cb6081cd4e842668b59d638aed0355a0f67fd11e1d55f4",
  "strippedsize": 215,
  "size": 215,
  "weight": 860,
  "tx": [
    {
      "txid": "cfc4057ac1f98bb9f829879c50762cb5c27c6074d5b4dc4eeedf87561729352f",
      "hash": "cfc4057ac1f98bb9f829879c50762cb5c27c6074d5b4dc4eeedf87561729352f",
      "version": 1,
      "size": 134,
      "vsize": 134,
      "weight": 536,
      "locktime": 0,
      "vin": [
        {
          "coinbase": "04ffff001d0120",
          "sequence": 4294967295
        }
      ],
      "vout": [
        {
          "value": 50.0,
          "n": 0,
          "scriptPubKey": {
            "asm": "0453cb5973ce4d7d5c8c8cbd368f59ef8a376abd64b61364b4890ed3f37725ebb8fd350905260d41af72f600d8456694476f3192beaae1845fe6462eef261dfe35 OP_CHECKSIG",
            "desc": "pk(0453cb5973ce4d7d5c8c8cbd368f59ef8a376abd64b61364b4890ed3f37725ebb8fd350905260d41af72f600d8456694476f3192beaae1845fe6462eef261dfe35)#0rlm4qta",
            "hex": "410453cb5973ce4d7d5c8c8cbd368f59ef8a376abd64b61364b4890ed3f37725ebb8fd350905260d41af72f600d8456694476f3192beaae1845fe6462eef261dfe35ac",
            "type": "pubkey"
          }
        }
      ],
      "hex": "01000000010000000000000000000000000000000000000000000000000000000000000000ffffffff0704ffff001d0120ffffffff0100f2052a0100000043410453cb5973ce4d7d5c8c8cbd368f59ef8a376abd64b61364b4890ed3f37725ebb8fd350905260d41af72f600d8456694476f3192beaae1845fe6462eef261dfe35ac00000000"
    }
  ]
}