{
  "hash": "00000000b27dcb0f5e5463d7a6f8cf571032fc759ddde7fb92e901d31f071c8b",
  "confirmations": 46253,
  "height": 6845,
  "version": 1,
  "versionHex": "00000001",
  "merkleroot": "20e23ccf2f0a8b3bad935b06c584fc3f22600d27c3ab2288cebf26d0561b0c81",
  "time": 1236589268,
  "mediantime": 1236586202,
  "nonce": 1746014511,
  "bits": "1d00ffff",
  "difficulty": 1,
  "chainwork": "00000000000000000000000000000000000000000000000000001abe1abe1abe",
  "nTx": 1,
  "previousblockhash": "00000000ff121cfae8cc0af08f232bf767fbe2568840e2364156b5f19d62c440",
  "nextblockhash": "00000000c22abfe5235fc0782a817fb6efc1c52d82fa42aa9ee60cb6de753282",
  "strippedsize": 216,
  "size": 216,
  "weight": 864,
  "tx": [
    {
      "txid": "20e23ccf2f0a8b3bad935b06c584fc3f22600d27c3ab2288cebf26d0561b0c81",
      "hash": "20e23ccf2f0a8b3bad935b06c584fc3f22600d27c3ab2288cebf26d0561b0c81",
      "version": 1,
      "size": 135,
      "vsize": 135,
      "weight": 540,
      "locktime": 0,
      "vin": [
        {
          "coinbase": "04ffff001d029009",
          "sequence": 4294967295
        }
      ],
      "vout": [
        {
          "value": 50.0,
          "n": 0,
          "scriptPubKey": {
            "asm": "04633c412e2a6030197640691e05635b1620b112b04d0bc51d3e1b9218300a909b9f6ead14d4789a73019e4d377b041ce06ba9458ca382c27175c78609640518f1 OP_CHECKSIG",
            "desc": "pk(04633c412e2a6030197640691e05635b1620b112b04d0bc51d3e1b9218300a909b9f6ead14d4789a73019e4d377b041ce06ba9458ca382c27175c78609640518f1)#m3c4uq3r",
            "hex": "4104633c412e2a6030197640691e05635b1620b112b04d0bc51d3e1b9218300a909b9f6ead14d4789a73019e4d377b041ce06ba9458ca382c27175c78609640518f1ac",
            "type": "pubkey"
          }
        }
      ],
      "hex": "01000000010000000000000000000000000000000000000000000000000000000000000000ffffffff0804ffff001d029009ffffffff0100f2052a01000000434104633c412e2a6030197640691e05635b1620b112b04d0bc51d3e1b9218300a909b9f6ead14d4789a73019e4d377b041ce06ba9458ca382c27175c78609640518f1ac00000000"
    }
  ]
}