{
  "hash": "00000000759140a9f5354dd25da52a259d390227c701483695a6872ac8f92b32",
  "confirmations": 50494,
  "height": 2604,
  "version": 1,
  "versionHex": "00000001",
  "merkleroot": "608d9c35adae5c45fd15bc22e5b2d30e2217b36c4223dc7efbc4aeb1074986ad",
  "time": 1233497528,
  "mediantime": 1233495354,
  "nonce": 6036012,
  "bits": "1d00ffff",
  "difficulty": 1,
  "chainwork": "00000000000000000000000000000000000000000000000000000a2d0a2d0a2d",
  "nTx": 1,
  "previousblockhash": "000000005e1701c2667bb986891b280c9c1a6ac15d978a8ce2059a3155c97a76",
  "nextblockhash": "000000006e323510e612c2ce2d70cf8a125828e48e9a23d7fb21764c2ac1c43d",
  "strippedsize": 216,
  "size": 216,
  "weight": 864,
  "tx": [
    {
      "txid": "608d9c35adae5c45fd15bc22e5b2d30e2217b36c4223dc7efbc4aeb1074986ad",
      "hash": "608d9c35adae5c45fd15bc22e5b2d30e2217b36c4223dc7efbc4aeb1074986ad",
      "version": 1,
      "size": 135,
      "vsize": 135,
      "weight": 540,
      "locktime": 0,
      "vin": [
        {
          "coinbase": "04ffff001d021003",
          "sequence": 4294967295
        }
      ],
      "vout": [
        {
          "value": 50.0,
          "n": 0,
          "scriptPubKey": {
            "asm": "04726a2c2953418708d39fa678f0094ab290e47e5d27f136e57fa01999aff1d079500eab85a2ea2c0a5c807f1961d917a1e31ea072a302ed63d89f6db5d06010e2 OP_CHECKSIG",
            "desc": "pk(04726a2c2953418708d39fa678f0094ab290e47e5d27f136e57fa01999aff1d079500eab85a2ea2c0a5c807f1961d917a1e31ea072a302ed63d89f6db5d06010e2)#mvz8ger8",
            "hex": "4104726a2c2953418708d39fa678f0094ab290e47e5d27f136e57fa01999aff1d079500eab85a2ea2c0a5c807f1961d917a1e31ea072a302ed63d89f6db5d06010e2ac",
            "type": "pubkey"
          }
        }
      ],
      "hex": "01000000010000000000000000000000000000000000000000000000000000000000000000ffffffff0804ffff001d021003ffffffff0100f2052a01000000434104726a2c2953418708d39fa678f0094ab290e47e5d27f136e57fa01999aff1d079500eab85a2ea2c0a5c807f1961d917a1e31ea072a302ed63d89f6db5d06010e2ac00000000"
    }
  ]
}