{
  "hash": "00000000881b47f9fd9724712169f8902e0f8ed27a554fc0f7f627fdc7572a36",
  "confirmations": 44595,
  "height": 8503,
  "version": 1,
  "versionHex": "00000001",
  "merkleroot": "4b1270a9de28a2a2a74ab1949b8fd95e0d7c2f2b629ca0bec72ff8d034197a36",
  "time": 1237874973,
  "mediantime": 1237871634,
  "nonce": 3345039124,
  "bits": "1d00ffff",
  "difficulty": 1,
  "chainwork": "0000000000000000000000000000000000000000000000000000213821382138",
  "nTx": 1,
  "previousblockhash": "000000002868c874224fd349976e95aede2c8a5819d417e485ecfbc5db89b056",
  "nextblockhash": "00000000c2f0110c9376fe235b3d302f545036d8bba38ad49a9fcde3a9328e11",
  "strippedsize": 216,
  "size": 216,
  "weight": 864,
  "tx": [
    {
      "txid": "4b1270a9de28a2a2a74ab1949b8fd95e0d7c2f2b629ca0bec72ff8d034197a36",
      "hash": "4b1270a9de28a2a2a74ab1949b8fd95e0d7c2f2b629ca0bec72ff8d034197a36",
      "version": 1,
      "size": 135,
      "vsize": 135,
      "weight": 540,
      "locktime": 0,
      "vin": [
        {
          "coinbase": "04ffff001d02dc07",
          "sequence": 4294967295
        }
      ],
      "vout": [
        {
          "value": 50.0,
          "n": 0,
          "scriptPubKey": {
            "asm": "0452149102ddf6c4061f6699d887abf76d2cfaf794f8c1d78bf3e835ed0d538613b21f49bf8202929a0cd9401d61ddb9890ee6833b23108dbc7a2d58ef21707806 OP_CHECKSIG",
            "desc": "pk(0452149102ddf6c4061f6699d887abf76d2cfaf794f8c1d78bf3e835ed0d538613b21f49bf8202929a0cd9401d61ddb9890ee6833b23108dbc7a2d58ef21707806)#f7lrxc46",
            "hex": "410452149102ddf6c4061f6699d887abf76d2cfaf794f8c1d78bf3e835ed0d538613b21f49bf8202929a0cd9401d61ddb9890ee6833b23108dbc7a2d58ef21707806ac",
            "type": "pubkey"
          }
        }
      ],
      "hex": "01000000010000000000000000000000000000000000000000000000000000000000000000ffffffff0804ffff001d02dc07ffffffff0100f2052a0100000043410452149102ddf6c4061f6699d887abf76d2cfaf794f8c1d78bf3e835ed0d538613b21f49bf8202929a0cd9401d61ddb9890ee6833b23108dbc7a2d58ef21707806ac00000000"
    }
  ]
}