{
  "hash": "0000000010a3730834656b9c3a6bc67e733eaa8750a97d8270626a24c62b4f78",
  "confirmations": 47237,
  "height": 5861,
  "version": 1,
  "versionHex": "00000001",
  "merkleroot": "d021cc824f4a1e49ac0bdea09eadedf771f6239c6d6fb0bf5bafac0cbcad1934",
  "time": 1235810203,
  "mediantime": 1235806975,
  "nonce": 1936973874,
  "bits": "1d00ffff",
  "difficulty": 1,
  "chainwork": "000000000000000000000000000000000000000000000000000016e616e616e6",
  "nTx": 1,
  "previousblockhash": "00000000f38367acbcdf031b784f66ce4dee8274ae8007e68db34475b8cf707d",
  "nextblockhash": "000000006fca06f668fe9f7c5056ffcdffe0a95fe3bd86eb5ef1f8125b0c7cb1",
  "strippedsize": 216,
  "size": 216,
  "weight": 864,
  "tx": [
    {
      "txid": "d021cc824f4a1e49ac0bdea09eadedf771f6239c6d6fb0bf5bafac0cbcad1934",
      "hash": "d021cc824f4a1e49ac0bdea09eadedf771f6239c6d6fb0bf5bafac0cbcad1934",
      "version": 1,
      "size": 135,
      "vsize": 135,
      "weight": 540,
      "locktime": 0,
      "vin": [
        {
          "coinbase": "04ffff001d022e02",
          "sequence": 4294967295
        }
      ],
      "vout": [
        {
          "value": 50.0,
          "n": 0,
          "scriptPubKey": {
            "asm": "046c5c2985cd6c50968b3f87ef1461790fa6f7cec305663ba2668b33d60f63ffc3ccc094c818b76ea7dfec176ecf002314fa986b75b3dafa15685a3dba8af08dfc OP_CHECKSIG",
            "desc": "pk(046c5c2985cd6c50968b3f87ef1461790fa6f7cec305663ba2668b33d60f63ffc3ccc094c818b76ea7dfec176ecf002314fa986b75b3dafa15685a3dba8af08dfc)#ysx8twgt",
            "hex": "41046c5c2985cd6c50968b3f87ef1461790fa6f7cec305663ba2668b33d60f63ffc3ccc094c818b76ea7dfec176ecf002314fa986b75b3dafa15685a3dba8af08dfcac",
            "type": "pubkey"
          }
        }
      ],
      "hex": "01000000010000000000000000000000000000000000000000000000000000000000000000ffffffff0804ffff001d022e02ffffffff0100f2052a010000004341046c5c2985cd6c50968b3f87ef1461790fa6f7cec305663ba2668b33d60f63ffc3ccc094c818b76ea7dfec176ecf002314fa986b75b3dafa15685a3dba8af08dfcac00000000"
    }
  ]
}