{
  "hash": "00000000e67274b76b18b7cca97c9be3aa3da97da4b2118a069931c07438df14",
  "confirmations": 49594,
  "height": 3504,
  "version": 1,
  "versionHex": "00000001",
  "merkleroot": "371098d402505af1bcc5f1b7b59303bf8422a4eef9c3acac3f7d1e6d50c0807f",
  "time": 1234104963,
  "mediantime": 1234102381,
  "nonce": 4215896,
  "bits": "1d00ffff",
  "difficulty": 1,
  "chainwork": "00000000000000000000000000000000000000000000000000000db10db10db1",
  "nTx": 1,
  "previousblockhash": "000000005953ab66fcade75efe5ace5e81b5b05529eef7933ff8103a0e35e668",
  "nextblockhash": "00000000a4adc49cf8b98835b6523c5ef1f27e215077ba9a0fa558c21616d0dc",
  "strippedsize": 216,
  "size": 216,
  "weight": 864,
  "tx": [
    {
      "txid": "371098d402505af1bcc5f1b7b59303bf8422a4eef9c3acac3f7d1e6d50c0807f",
      "hash": "371098d402505af1bcc5f1b7b59303bf8422a4eef9c3acac3f7d1e6d50c0807f",
      "version": 1,
      "size": 135,
      "vsize": 135,
      "weight": 540,
      "locktime": 0,
      "vin": [
        {
          "coinbase": "04ffff001d020901",
          "sequence": 4294967295
        }
      ],
      "vout": [
        {
          "value": 50.0,
          "n": 0,
          "scriptPubKey": {
            "asm": "04aa0f5fcce607c9bea583a98b491b99e82ff10cf85d01c787abdb084605d0644271507271a3c910c5be052d4dc1cb0cc50f5ca578956f67d260369b9d2ab88ddf OP_CHECKSIG",
            "desc": "pk(04aa0f5fcce607c9bea583a98b491b99e82ff10cf85d01c787abdb084605d0644271507271a3c910c5be052d4dc1cb0cc50f5ca578956f67d260369b9d2ab88ddf)#m07u34e3",
            "hex": "4104aa0f5fcce607c9bea583a98b491b99e82ff10cf85d01c787abdb084605d0644271507271a3c910c5be052d4dc1cb0cc50f5ca578956f67d260369b9d2ab88ddfac",
            "type": "pubkey"
          }
        }
      ],
      "hex": "01000000010000000000000000000000000000000000000000000000000000000000000000ffffffff0804ffff001d020901ffffffff0100f2052a01000000434104aa0f5fcce607c9bea583a98b491b99e82ff10cf85d01c787abdb084605d0644271507271a3c910c5be052d4dc1cb0cc50f5ca578956f67d260369b9d2ab88ddfac00000000"
    }
  ]
}