{
  "hash": "00000000d3345fcfc24da95c516c19b95b7aa4e6482e755b2ba271210002cec8",
  "confirmations": 46976,
  "height": 6122,
  "version": 1,
  "versionHex": "00000001",
  "merkleroot": "66437afcc630a0d53357bfe1f73d8fead5ac9cc298dcf10318969df506a4bcb3",
  "time": 1236027168,
  "mediantime": 1236022618,
  "nonce": 80584526,
  "bits": "1d00ffff",
  "difficulty": 1,
  "chainwork": "000000000000000000000000000000000000000000000000000017eb17eb17eb",
  "nTx": 1,
  "previousblockhash": "00000000e77730de17ea5463179ba997970c9bae53b0e5c4faf74773711a130c",
  "nextblockhash": "00000000a7571070a1f69887523caeda62228f27159fc2e6fbedd6faef6772ec",
  "strippedsize": 215,
  "size": 215,
  "weight": 860,
  "tx": [
    {
      "txid": "66437afcc630a0d53357bfe1f73d8fead5ac9cc298dcf10318969df506a4bcb3",
      "hash": "66437afcc630a0d53357bfe1f73d8fead5ac9cc298dcf10318969df506a4bcb3",
      "version": 1,
      "size": 134,
      "vsize": 134,
      "weight": 536,
      "locktime": 0,
      "vin": [
        {
          "coinbase": "04ffff001d013d",
          "sequence": 4294967295
        }
      ],
      "vout": [
        {
          "value": 50.0,
          "n": 0,
          "scriptPubKey": {
            "asm": "0486a668a47866403c0a27e2845cb81ea303c811b009c0475070182dcb43ee9d446f497f5a6b412b5eef95765986d75964eed72421c81ce912a44dd1c78281dfdf OP_CHECKSIG",
            "desc": "pk(0486a668a47866403c0a27e2845cb81ea303c811b009c0475070182dcb43ee9d446f497f5a6b412b5eef95765986d75964eed72421c81ce912a44dd1c78281dfdf)#mwqnsagw",
            "hex": "410486a668a47866403c0a27e2845cb81ea303c811b009c0475070182dcb43ee9d446f497f5a6b412b5eef95765986d75964eed72421c81ce912a44dd1c78281dfdfac",
            "type": "pubkey"
          }
        }
      ],
      "hex": "01000000010000000000000000000000000000000000000000000000000000000000000000ffffffff0704ffff001d013dffffffff0100f2052a0100000043410486a668a47866403c0a27e2845cb81ea303c811b009c0475070182dcb43ee9d446f497f5a6b412b5eef95765986d75964eed72421c81ce912a44dd1c78281dfdfac00000000"
    }
  ]
}