{
  "hash": "000000009e0f57bcddbafced11db614e839dba4a9070da7afb69ccdeb50b2cb0",
  "confirmations": 46892,
  "height": 6206,
  "version": 1,
  "versionHex": "00000001",
  "merkleroot": "33ab1c9b6264e635962a5f58c850a240c3f4d63e45dd779daea1645ec9a1205e",
  "time": 1236096411,
  "mediantime": 1236092187,
  "nonce": 1198307622,
  "bits": "1d00ffff",
  "difficulty": 1,
  "chainwork": "0000000000000000000000000000000000000000000000000000183f183f183f",
  "nTx": 1,
  "previousblockhash": "000000007bc8e919eee03106ec5c15b9e3f49ca6c33a67bfc70e9ec1b14a0d02",
  "nextblockhash": "00000000197cdc6baad2f16e42020aeabff0a4fecb9da955e9fc5d05b92e014e",
  "strippedsize": 216,
  "size": 216,
  "weight": 864,
  "tx": [
    {
      "txid": "33ab1c9b6264e635962a5f58c850a240c3f4d63e45dd779daea1645ec9a1205e",
      "hash": "33ab1c9b6264e635962a5f58c850a240c3f4d63e45dd779daea1645ec9a1205e",
      "version": 1,
      "size": 135,
      "vsize": 135,
      "weight": 540,
      "locktime": 0,
      "vin": [
        {
          "coinbase": "04ffff001d029608",
          "sequence": 4294967295
        }
      ],
      "vout": [
        {
          "value": 50.0,
          "n": 0,
          "scriptPubKey": {
            "asm": "046e36f812e1a3318b438ac478d85aba0beefadc9a686f5b1ebf25cd4f4491030e2772c497a7773f1561b8b017f6a156996b247ff495c18dc8e6859470d2701bf5 OP_CHECKSIG",
            "desc": "pk(046e36f812e1a3318b438ac478d85aba0beefadc9a686f5b1ebf25cd4f4491030e2772c497a7773f1561b8b017f6a156996b247ff495c18dc8e6859470d2701bf5)#m4yrdmy7",
            "hex": "41046e36f812e1a3318b438ac478d85aba0beefadc9a686f5b1ebf25cd4f4491030e2772c497a7773f1561b8b017f6a156996b247ff495c18dc8e6859470d2701bf5ac",
            "type": "pubkey"
          }
        }
      ],
      "hex": "01000000010000000000000000000000000000000000000000000000000000000000000000ffffffff0804ffff001d029608ffffffff0100f2052a010000004341046e36f812e1a3318b438ac478d85aba0beefadc9a686f5b1ebf25cd4f4491030e2772c497a7773f1561b8b017f6a156996b247ff495c18dc8e6859470d2701bf5ac00000000"
    }
  ]
}