{
  "hash": "000000009d163a49baacdc309025cd43507a259d29e6f58799a3c9ba7a6f1cfe",
  "confirmations": 46331,
  "height": 6767,
  "version": 1,
  "versionHex": "00000001",
  "merkleroot": "8717398fb48f19c4e4fae67601e7cdd952b07c8e9c65ec354f1c0d8bc78f0132",
  "time": 1236534467,
  "mediantime": 1236530689,
  "nonce": 1166109231,
  "bits": "1d00ffff",
  "difficulty": 1,
  "chainwork": "00000000000000000000000000000000000000000000000000001a701a701a70",
  "nTx": 1,
  "previousblockhash": "00000000f424634e5bcb45b63c4904805e98ead0de3db98412b058cb4c2c36fd",
  "nextblockhash": "000000005befe9fe37f93556a7c9f71b258315e0b9e1d5e9173d41c24e12b472",
  "strippedsize": 216,
  "size": 216,
  "weight": 864,
  "tx": [
    {
      "txid": "8717398fb48f19c4e4fae67601e7cdd952b07c8e9c65ec354f1c0d8bc78f0132",
      "hash": "8717398fb48f19c4e4fae67601e7cdd952b07c8e9c65ec354f1c0d8bc78f0132",
      "version": 1,
      "size": 135,
      "vsize": 135,
      "weight": 540,
      "locktime": 0,
      "vin": [
        {
          "coinbase": "04ffff001d025908",
          "sequence": 4294967295
        }
      ],
      "vout": [
        {
          "value": 50.0,
          "n": 0,
          "scriptPubKey": {
            "asm": "04c6cc8cd3f7156b43b5c711fe5be7581112431410d815feda1471c8cf78653a284d760944a739e5487d0d51a49db28fc44a76a4fea55a8d63d2ed4ff526386c0c OP_CHECKSIG",
            "desc": "pk(04c6cc8cd3f7156b43b5c711fe5be7581112431410d815feda1471c8cf78653a284d760944a739e5487d0d51a49db28fc44a76a4fea55a8d63d2ed4ff526386c0c)#qymnj8pw",
            "hex": "4104c6cc8cd3f7156b43b5c711fe5be7581112431410d815feda1471c8cf78653a284d760944a739e5487d0d51a49db28fc44a76a4fea55a8d63d2ed4ff526386c0cac",
            "type": "pubkey"
          }
        }
      ],
      "hex": "01000000010000000000000000000000000000000000000000000000000000000000000000ffffffff0804ffff001d025908ffffffff0100f2052a01000000434104c6cc8cd3f7156b43b5c711fe5be7581112431410d815feda1471c8cf78653a284d760944a739e5487d0d51a49db28fc44a76a4fea55a8d63d2ed4ff526386c0cac00000000"
    }
  ]
}