{
  "hash": "00000000aa3704d9c763fac9ae41842c55a2b3a1c5b404dff2ca82c9f9ebd64b",
  "confirmations": 52557,
  "height": 541,
  "version": 1,
  "versionHex": "00000001",
  "merkleroot": "3f5d810e62022ae5c3cd46131a2bc64cf92a5a9b3b9ac316a814bb47507616dc",
  "time": 1231995747,
  "mediantime": 1231992546,
  "nonce": 103589324,
  "bits": "1d00ffff",
  "difficulty": 1,
  "chainwork": "0000000000000000000000000000000000000000000000000000021e021e021e",
  "nTx": 1,
  "previousblockhash": "000000001958fb614e3eed2ab35305fa89a8b8db9bb5fd2575aa08fc0a06b84f",
  "nextblockhash": "00000000bdb2a11dbc79d6f367e666448ac16aed9be8ad7c5a5712e23d0a4942",
  "strippedsize": 216,
  "size": 216,
  "weight": 864,
  "tx": [
    {
      "txid": "3f5d810e62022ae5c3cd46131a2bc64cf92a5a9b3b9ac316a814bb47507616dc",
      "hash": "3f5d810e62022ae5c3cd46131a2bc64cf92a5a9b3b9ac316a814bb47507616dc",
      "version": 1,
      "size": 135,
      "vsize": 135,
      "weight": 540,
      "locktime": 0,
      "vin": [
        {
          "coinbase": "04ffff001d029e00",
          "sequence": 4294967295
        }
      ],
      "vout": [
        {
          "value": 50.0,
          "n": 0,
          "scriptPubKey": {
            "asm": "041df30e9c3b590eeac26f6bf99615e6a1b642484e1d4266c44d39535281336d8f857cc16182230e703404c529861a8cbd0a7f424db52cbec8c83aaf37dac5d888 OP_CHECKSIG",
            "desc": "pk(041df30e9c3b590eeac26f6bf99615e6a1b642484e1d4266c44d39535281336d8f857cc16182230e703404c529861a8cbd0a7f424db52cbec8c83aaf37dac5d888)#kv8wpgnr",
            "hex": "41041df30e9c3b590eeac26f6bf99615e6a1b642484e1d4266c44d39535281336d8f857cc16182230e703404c529861a8cbd0a7f424db52cbec8c83aaf37dac5d888ac",
            "type": "pubkey"
          }
        }
      ],
      "hex": "01000000010000000000000000000000000000000000000000000000000000000000000000ffffffff0804ffff001d029e00ffffffff0100f2052a010000004341041df30e9c3b590eeac26f6bf99615e6a1b642484e1d4266c44d39535281336d8f857cc16182230e703404c529861a8cbd0a7f424db52cbec8c83aaf37dac5d888ac00000000"
    }
  ]
}