{
  "hash": "000000006b74f30b5794a5317f3997d249ec49021f459807ba95f935836cef5b",
  "confirmations": 50910,
  "height": 2188,
  "version": 1,
  "versionHex": "00000001",
  "merkleroot": "4d60e23fc7d31f47350362244ca6af1ff16ca2c108764de947833ea042024805",
  "time": 1233206473,
  "mediantime": 1233202433,
  "nonce": 226946087,
  "bits": "1d00ffff",
  "difficulty": 1,
  "chainwork": "0000000000000000000000000000000000000000000000000000088d088d088d",
  "nTx": 1,
  "previousblockhash": "00000000cae563ab1664f9981aadf913f9d8d92712763f43b5a683d13b9fd1ef",
  "nextblockhash": "00000000b0e0b48f8503ce535d51691aad2366d7b0a77da0e7f5b6b9b3fa2091",
  "strippedsize": 215,
  "size": 215,
  "weight": 860,
  "tx": [
    {
      "txid": "4d60e23fc7d31f47350362244ca6af1ff16ca2c108764de947833ea042024805",
      "hash": "4d60e23fc7d31f47350362244ca6af1ff16ca2c108764de947833ea042024805",
      "version": 1,
      "size": 134,
      "vsize": 134,
      "weight": 536,
      "locktime": 0,
      "vin": [
        {
          "coinbase": "04ffff001d011e",
          "sequence": 4294967295
        }
      ],
      "vout": [
        {
          "value": 50.0,
          "n": 0,
          "scriptPubKey": {
            "asm": "04ab304ccf9aa860a1b365e21e629f09ae975d99a7086699c031304c46630c9e399f7334c9999c99f764f3c098b083276d5f6975bb64e0b88629fe5fb8c282ad57 OP_CHECKSIG",
            "desc": "pk(04ab304ccf9aa860a1b365e21e629f09ae975d99a7086699c031304c46630c9e399f7334c9999c99f764f3c098b083276d5f6975bb64e0b88629fe5fb8c282ad57)#83c57j7k",
            "hex": "4104ab304ccf9aa860a1b365e21e629f09ae975d99a7086699c031304c46630c9e399f7334c9999c99f764f3c098b083276d5f6975bb64e0b88629fe5fb8c282ad57ac",
            "type": "pubkey"
          }
        }
      ],
      "hex": "01000000010000000000000000000000000000000000000000000000000000000000000000ffffffff0704ffff001d011effffffff0100f2052a01000000434104ab304ccf9aa860a1b365e21e629f09ae975d99a7086699c031304c46630c9e399f7334c9999c99f764f3c098b083276d5f6975bb64e0b88629fe5fb8c282ad57ac00000000"
    }
  ]
}