{
  "hash": "0000000018d3c1af76b8f47452d5a9abfe5f564a97ab3879311fef9cae55431c",
  "confirmations": 45072,
  "height": 8026,
  "version": 1,
  "versionHex": "00000001",
  "merkleroot": "3473a8e31ea40f73f719fb2d23f6b3852f4150834765ec4e7dc67b6ead70d0e3",
  "time": 1237481978,
  "mediantime": 1237477510,
  "nonce": 1692282933,
  "bits": "1d00ffff",
  "difficulty": 1,
  "chainwork": "00000000000000000000000000000000000000000000000000001f5b1f5b1f5b",
  "nTx": 1,
  "previousblockhash": "00000000c349693d1a5810e458f67e2d688bbd8cbd81ce50b8628794d94d8b12",
  "nextblockhash": "00000000b4031742b28cdc8fe0e635ec01094d35d2ca2bf8e3c5f7f28d505acc",
  "strippedsize": 216,
  "size": 216,
  "weight": 864,
  "tx": [
    {
      "txid": "3473a8e31ea40f73f719fb2d23f6b3852f4150834765ec4e7dc67b6ead70d0e3",
      "hash": "3473a8e31ea40f73f719fb2d23f6b3852f4150834765ec4e7dc67b6ead70d0e3",
      "version": 1,
      "size": 135,
      "vsize": 135,
      "weight": 540,
      "locktime": 0,
      "vin": [
        {
          "coinbase": "04ffff001d02ec09",
          "sequence": 4294967295
        }
      ],
      "vout": [
        {
          "value": 50.0,
          "n": 0,
          "scriptPubKey": {
            "asm": "0413fb3ef9370b6cec836cfd04d706078bc66038f11c76626b7bb407b6bd9386eb42c098e5e80833740e891121f99d5a0659ab8962d421997c8f3fbbaf36c78a0d OP_CHECKSIG",
            "desc": "pk(0413fb3ef9370b6cec836cfd04d706078bc66038f11c76626b7bb407b6bd9386eb42c098e5e80833740e891121f99d5a0659ab8962d421997c8f3fbbaf36c78a0d)#6ul7m5ax",
            "hex": "410413fb3ef9370b6cec836cfd04d706078bc66038f11c76626b7bb407b6bd9386eb42c098e5e80833740e891121f99d5a0659ab8962d421997c8f3fbbaf36c78a0dac",
            "type": "pubkey"
          }
        }
      ],
      "hex": "01000000010000000000000000000000000000000000000000000000000000000000000000ffffffff0804ffff001d02ec09ffffffff0100f2052a0100000043410413fb3ef9370b6cec836cfd04d706078bc66038f11c76626b7bb407b6bd9386eb42c098e5e80833740e891121f99d5a0659ab8962d421997c8f3fbbaf36c78a0dac00000000"
    }
  ]
}