{
  "hash": "0000000019bd4f2e72c7e4316eba628ed6b1ec2ab6fba718030518fc8969ed99",
  "confirmations": 43743,
  "height": 9355,
  "version": 1,
  "versionHex": "00000001",
  "merkleroot": "c22907b3ffc50fe0082f7c28122450265a7a450dd45d1cdb7d968121f3eaf543",
  "time": 1238515237,
  "mediantime": 1238511283,
  "nonce": 4147297048,
  "bits": "1d00ffff",
  "difficulty": 1,
  "chainwork": "0000000000000000000000000000000000000000000000000000248c248c248c",
  "nTx": 1,
  "previousblockhash": "0000000015154d86ccf2da15aec9da0389aefd35c983ccb9f2d475b36d079b26",
  "nextblockhash": "00000000b9843963d096355d50d6f0cf0d04b56ee92d34cd1d3daf7c1943b2c8",
  "strippedsize": 216,
  "size": 216,
  "weight": 864,
  "tx": [
    {
      "txid": "c22907b3ffc50fe0082f7c28122450265a7a450dd45d1cdb7d968121f3eaf543",
      "hash": "c22907b3ffc50fe0082f7c28122450265a7a450dd45d1cdb7d968121f3eaf543",
      "version": 1,
      "size": 135,
      "vsize": 135,
      "weight": 540,
      "locktime": 0,
      "vin": [
        {
          "coinbase": "04ffff001d02b002",
          "sequence": 4294967295
        }
      ],
      "vout": [
        {
          "value": 50.0,
          "n": 0,
          "scriptPubKey": {
            "asm": "04bfe908aa28d82bb450b500a94988327417ba93099cf5729f17e3e82c7029f60ecd7e7df904ab13f5cc87ced0471ef109c0d2eae6af2d42f140e177ac86aadefc OP_CHECKSIG",
            "desc": "pk(04bfe908aa28d82bb450b500a94988327417ba93099cf5729f17e3e82c7029f60ecd7e7df904ab13f5cc87ced0471ef109c0d2eae6af2d42f140e177ac86aadefc)#zjfx24zt",
            "hex": "4104bfe908aa28d82bb450b500a94988327417ba93099cf5729f17e3e82c7029f60ecd7e7df904ab13f5cc87ced0471ef109c0d2eae6af2d42f140e177ac86aadefcac",
            "type": "pubkey"
          }
        }
      ],
      "hex": "01000000010000000000000000000000000000000000000000000000000000000000000000ffffffff0804ffff001d02b002ffffffff0100f2052a01000000434104bfe908aa28d82bb450b500a94988327417ba93099cf5729f17e3e82c7029f60ecd7e7df904ab13f5cc87ced0471ef109c0d2eae6af2d42f140e177ac86aadefcac00000000"
    }
  ]
}