{
  "hash": "0000000089d94663a7f2c146c6aabca394848d8b87bcf685f8b2018883c27327",
  "confirmations": 47538,
  "height": 5560,
  "version": 1,
  "versionHex": "00000001",
  "merkleroot": "d1be9b3d56a04e4605665465599dc942e4404c4bbc94d4040140669ecade75db",
  "time": 1235571270,
  "mediantime": 1235567207,
  "nonce": 124917004,
  "bits": "1d00ffff",
  "difficulty": 1,
  "chainwork": "000000000000000000000000000000000000000000000000000015b915b915b9",
  "nTx": 1,
  "previousblockhash": "00000000254c84df3a90a1d25b54cc77c2e37f8cfb72041b7fe0d3c8db9e93b3",
  "nextblockhash": "00000000a84e2c5f5ffe8aeadbe796134a1882e69caf9c2d3ca8eaae4ae5a042",
  "strippedsize": 215,
  "size": 215,
  "weight": 860,
  "tx": [
    {
      "txid": "d1be9b3d56a04e4605665465599dc942e4404c4bbc94d4040140669ecade75db",
      "hash": "d1be9b3d56a04e4605665465599dc942e4404c4bbc94d4040140669ecade75db",
      "version": 1,
      "size": 134,
      "vsize": 134,
      "weight": 536,
      "locktime": 0,
      "vin": [
        {
          "coinbase": "04ffff001d016d",
          "sequence": 4294967295
        }
      ],
      "vout": [
        {
          "value": 50.0,
          "n": 0,
          "scriptPubKey": {
            "asm": "04284467350d280d1798e27cddd1c873fa485b5e432426913e424498501a314c282799297e5bb9929b35a482c49d7bb260b7d2034944c77adfbccf017466b00b5a OP_CHECKSIG",
            "desc": "pk(04284467350d280d1798e27cddd1c873fa485b5e432426913e424498501a314c282799297e5bb9929b35a482c49d7bb260b7d2034944c77adfbccf017466b00b5a)#g6pjtur5",
            "hex": "4104284467350d280d1798e27cddd1c873fa485b5e432426913e424498501a314c282799297e5bb9929b35a482c49d7bb260b7d2034944c77adfbccf017466b00b5aac",
            "type": "pubkey"
          }
        }
      ],
      "hex": "01000000010000000000000000000000000000000000000000000000000000000000000000ffffffff0704ffff001d016dffffffff0100f2052a01000000434104284467350d280d1798e27cddd1c873fa485b5e432426913e424498501a314c282799297e5bb9929b35a482c49d7bb260b7d2034944c77adfbccf017466b00b5aac00000000"
    }
  ]
}