{
  "hash": "000000008f9123170d2400afbf2210e38006f199cd2cce0771c55a06278b2082",
  "confirmations": 45141,
  "height": 7957,
  "version": 1,
  "versionHex": "00000001",
  "merkleroot": "eab5d4b9187550e5b8ed283d1d2e72895f37735ac42d265c9d66a8cedfc812d6",
  "time": 1237431932,
  "mediantime": 1237428473,
  "nonce": 460526598,
  "bits": "1d00ffff",
  "difficulty": 1,
  "chainwork": "00000000000000000000000000000000000000000000000000001f161f161f16",
  "nTx": 1,
  "previousblockhash": "000000006f62312d51a2a6ed11fa0fd96e087f1d7f29e6ff047a25bc3bcf739c",
  "nextblockhash": "00000000650ad0f1f060426ec82b72ac3e8c58ccb7a37f3e52e1e06cff6d8c83",
  "strippedsize": 216,
  "size": 216,
  "weight": 864,
  "tx": [
    {
      "txid": "eab5d4b9187550e5b8ed283d1d2e72895f37735ac42d265c9d66a8cedfc812d6",
      "hash": "eab5d4b9187550e5b8ed283d1d2e72895f37735ac42d265c9d66a8cedfc812d6",
      "version": 1,
      "size": 135,
      "vsize": 135,
      "weight": 540,
      "locktime": 0,
      "vin": [
        {
          "coinbase": "04ffff001d028908",
          "sequence": 4294967295
        }
      ],
      "vout": [
        {
          "value": 50.0,
          "n": 0,
          "scriptPubKey": {
            "asm": "040e5006e5d3155e7e550d30f4a9a302516c0db8c11950533d5c43caff1a035896fe155aeb1c7a34ad55c6625befd7086f9c101bb73c9d63c5211f3ae25ffaaf67 OP_CHECKSIG",
            "desc": "pk(040e5006e5d3155e7e550d30f4a9a302516c0db8c11950533d5c43caff1a035896fe155aeb1c7a34ad55c6625befd7086f9c101bb73c9d63c5211f3ae25ffaaf67)#wr4fffvh",
            "hex": "41040e5006e5d3155e7e550d30f4a9a302516c0db8c11950533d5c43caff1a035896fe155aeb1c7a34ad55c6625befd7086f9c101bb73c9d63c5211f3ae25ffaaf67ac",
            "type": "pubkey"
          }
        }
      ],
      "hex": "01000000010000000000000000000000000000000000000000000000000000000000000000ffffffff0804ffff001d028908ffffffff0100f2052a010000004341040e5006e5d3155e7e550d30f4a9a302516c0db8c11950533d5c43caff1a035896fe155aeb1c7a34ad55c6625befd7086f9c101bb73c9d63c5211f3ae25ffaaf67ac00000000"
    }
  ]
}