{
  "hash": "000000007ad607a6ba7082748b58c8d54e79dc1023687de7467ba2af6c446026",
  "confirmations": 45554,
  "height": 7544,
  "version": 1,
  "versionHex": "00000001",
  "merkleroot": "793dd6e3c9b6e0738bae8be65aceae15f8fe64390a030ea21eb4f5e12dbd191a",
  "time": 1237132390,
  "mediantime": 1237127467,
  "nonce": 4154391328,
  "bits": "1d00ffff",
  "difficulty": 1,
  "chainwork": "00000000000000000000000000000000000000000000000000001d791d791d79",
  "nTx": 1,
  "previousblockhash": "000000008316bcaa2c49435c8b4f1367f240941eb58202c7fae7765be088fe76",
  "nextblockhash": "00000000beb17633e3ea62309f40d8ebc916c8b957514344927604e944e65026",
  "strippedsize": 216,
  "size": 216,
  "weight": 864,
  "tx": [
    {
      "txid": "793dd6e3c9b6e0738bae8be65aceae15f8fe64390a030ea21eb4f5e12dbd191a",
      "hash": "793dd6e3c9b6e0738bae8be65aceae15f8fe64390a030ea21eb4f5e12dbd191a",
      "version": 1,
      "size": 135,
      "vsize": 135,
      "weight": 540,
      "locktime": 0,
      "vin": [
        {
          "coinbase": "04ffff001d02c501",
          "sequence": 4294967295
        }
      ],
      "vout": [
        {
          "value": 50.0,
          "n": 0,
          "scriptPubKey": {
            "asm": "041d6134dea4bc32914299c7a9a4707dfd8d0cbafa6e3c08dc357b41c56a3e1412615c778612dffa9e42591ee8a6d1b9007375fe857e97776bb6e0930c54caebbe OP_CHECKSIG",
            "desc": "pk(041d6134dea4bc32914299c7a9a4707dfd8d0cbafa6e3c08dc357b41c56a3e1412615c778612dffa9e42591ee8a6d1b9007375fe857e97776bb6e0930c54caebbe)#jyv9f59a",
            "hex": "41041d6134dea4bc32914299c7a9a4707dfd8d0cbafa6e3c08dc357b41c56a3e1412615c778612dffa9e42591ee8a6d1b9007375fe857e97776bb6e0930c54caebbeac",
            "type": "pubkey"
          }
        }
      ],
      "hex": "01000000010000000000000000000000000000000000000000000000000000000000000000ffffffff0804ffff001d02c501ffffffff0100f2052a010000004341041d6134dea4bc32914299c7a9a4707dfd8d0cbafa6e3c08dc357b41c56a3e1412615c778612dffa9e42591ee8a6d1b9007375fe857e97776bb6e0930c54caebbeac00000000"
    }
  ]
}