{
  "hash": "00000000978d4dc87fc77895f46fdd7857132863febccb784b8706819ecb4123",
  "confirmations": 47847,
  "height": 5251,
  "version": 1,
  "versionHex": "00000001",
  "merkleroot": "f0ef22741219ac4e293f8ebdaaf1a0771c62d4b3756c7f2ecd92af5c85132087",
  "time": 1235323831,
  "mediantime": 1235320321,
  "nonce": 2433458203,
  "bits": "1d00ffff",
  "difficulty": 1,
  "chainwork": "0000000000000000000000000000000000000000000000000000148414841484",
  "nTx": 1,
  "previousblockhash": "00000000e6e89b27af3ea7484fd5c7e277ce12754bec74c2718bf5fedf5058de",
  "nextblockhash": "00000000fb6963d7ca76bd49ff3e2407add5b96b3fc176cd0f7110adfca4dc5e",
  "strippedsize": 216,
  "size": 216,
  "weight": 864,
  "tx": [
    {
      "txid": "f0ef22741219ac4e293f8ebdaaf1a0771c62d4b3756c7f2ecd92af5c85132087",
      "hash": "f0ef22741219ac4e293f8ebdaaf1a0771c62d4b3756c7f2ecd92af5c85132087",
      "version": 1,
      "size": 135,
      "vsize": 135,
      "weight": 540,
      "locktime": 0,
      "vin": [
        {
          "coinbase": "04ffff001d023201",
          "sequence": 4294967295
        }
      ],
      "vout": [
        {
          "value": 50.0,
          "n": 0,
          "scriptPubKey": {
            "asm": "04cce07a4d24c4f5cd213de7edac67c50128c941c37fbf4f459118caa4b0e0ca8ee6f5942b0a934969dfdf7a7e40229928a58755796e5d46d07998a48e6becd0c4 OP_CHECKSIG",
            "desc": "pk(04cce07a4d24c4f5cd213de7edac67c50128c941c37fbf4f459118caa4b0e0ca8ee6f5942b0a934969dfdf7a7e40229928a58755796e5d46d07998a48e6becd0c4)#vvt7a4we",
            "hex": "4104cce07a4d24c4f5cd213de7edac67c50128c941c37fbf4f459118caa4b0e0ca8ee6f5942b0a934969dfdf7a7e40229928a58755796e5d46d07998a48e6becd0c4ac",
            "type": "pubkey"
          }
        }
      ],
      "hex": "01000000010000000000000000000000000000000000000000000000000000000000000000ffffffff0804ffff001d023201ffffffff0100f2052a01000000434104cce07a4d24c4f5cd213de7edac67c50128c941c37fbf4f459118caa4b0e0ca8ee6f5942b0a934969dfdf7a7e40229928a58755796e5d46d07998a48e6becd0c4ac00000000"
    }
  ]
}