{
  "hash": "000000000b64b7049faa7af2b20184180ed815252b194688dd435676129a6325",
  "confirmations": 46395,
  "height": 6703,
  "version": 1,
  "versionHex": "00000001",
  "merkleroot": "0f7b4be2295e7c98e3e1cb057715d6fedb8b90836ce3ea47d337359f950eecef",
  "time": 1236485289,
  "mediantime": 1236481752,
  "nonce": 1059573798,
  "bits": "1d00ffff",
  "difficulty": 1,
  "chainwork": "00000000000000000000000000000000000000000000000000001a301a301a30",
  "nTx": 1,
  "previousblockhash": "00000000604643cb8e376315a85d139613aaa211d2d216ef9772c66c85c54cd6",
  "nextblockhash": "00000000b630e39994176a38611e392b588363afeb6036222dbfa0d736565e79",
  "strippedsize": 216,
  "size": 216,
  "weight": 864,
  "tx": [
    {
      "txid": "0f7b4be2295e7c98e3e1cb057715d6fedb8b90836ce3ea47d337359f950eecef",
      "hash": "0f7b4be2295e7c98e3e1cb057715d6fedb8b90836ce3ea47d337359f950eecef",
      "version": 1,
      "size": 135,
      "vsize": 135,
      "weight": 540,
      "locktime": 0,
      "vin": [
        {
          "coinbase": "04ffff001d020e07",
          "sequence": 4294967295
        }
      ],
      "vout": [
        {
          "value": 50.0,
          "n": 0,
          "scriptPubKey": {
            "asm": "04429648a9dbd3dcfcf6f81bad719604adbb3ec9ffee4aea19f763e14d75dadb63aa3a9eedb063b8dfe22e846158baf9c876d7e262c4b3d9e5741b339ac3d09bba OP_CHECKSIG",
            "desc": "pk(04429648a9dbd3dcfcf6f81bad719604adbb3ec9ffee4aea19f763e14d75dadb63aa3a9eedb063b8dfe22e846158baf9c876d7e262c4b3d9e5741b339ac3d09bba)#pj5fz4qr",
            "hex": "4104429648a9dbd3dcfcf6f81bad719604adbb3ec9ffee4aea19f763e14d75dadb63aa3a9eedb063b8dfe22e846158baf9c876d7e262c4b3d9e5741b339ac3d09bbaac",
            "type": "pubkey"
          }
        }
      ],
      "hex": "01000000010000000000000000000000000000000000000000000000000000000000000000ffffffff0804ffff001d020e07ffffffff0100f2052a01000000434104429648a9dbd3dcfcf6f81bad719604adbb3ec9ffee4aea19f763e14d75dadb63aa3a9eedb063b8dfe22e846158baf9c876d7e262c4b3d9e5741b339ac3d09bbaac00000000"
    }
  ]
}