{
  "hash": "000000007fc54ccef03a1386155e5fd10229a80d592bd6b299064d1572635378",
  "confirmations": 46516,
  "height": 6582,
  "version": 1,
  "versionHex": "00000001",
  "merkleroot": "8326f021b328ee0d14d4d366a9f6e6f0be68ea60f7e5a64db0cdaa385fe6e0e7",
  "time": 1236391160,
  "mediantime": 1236385772,
  "nonce": 71398302,
  "bits": "1d00ffff",
  "difficulty": 1,
  "chainwork": "000000000000000000000000000000000000000000000000000019b719b719b7",
  "nTx": 1,
  "previousblockhash": "00000000b46bb9d830499302bcf3e544e679897ab595531d98539a4593e5a849",
  "nextblockhash": "00000000b17315fca0d8b3f8229e49aae2912e9d5de1f94b772f1412e932a4a0",
  "strippedsize": 216,
  "size": 216,
  "weight": 864,
  "tx": [
    {
      "txid": "8326f021b328ee0d14d4d366a9f6e6f0be68ea60f7e5a64db0cdaa385fe6e0e7",
      "hash": "8326f021b328ee0d14d4d366a9f6e6f0be68ea60f7e5a64db0cdaa385fe6e0e7",
      "version": 1,
      "size": 135,
      "vsize": 135,
      "weight": 540,
      "locktime": 0,
      "vin": [
        {
          "coinbase": "04ffff001d02d800",
          "sequence": 4294967295
        }
      ],
      "vout": [
        {
          "value": 50.0,
          "n": 0,
          "scriptPubKey": {
            "asm": "04ad8be0b20a5c34fe0558fa967d5e3df4134b6fc933d06c046bb1b504fecaf9e6ca37a3bc2371d0ba267169008d61d090b550652f4ac0c54a86e788959994843b OP_CHECKSIG",
            "desc": "pk(04ad8be0b20a5c34fe0558fa967d5e3df4134b6fc933d06c046bb1b504fecaf9e6ca37a3bc2371d0ba267169008d61d090b550652f4ac0c54a86e788959994843b)#meq2qdrw",
            "hex": "4104ad8be0b20a5c34fe0558fa967d5e3df4134b6fc933d06c046bb1b504fecaf9e6ca37a3bc2371d0ba267169008d61d090b550652f4ac0c54a86e788959994843bac",
            "type": "pubkey"
          }
        }
      ],
      "hex": "01000000010000000000000000000000000000000000000000000000000000000000000000ffffffff0804ffff001d02d800ffffffff0100f2052a01000000434104ad8be0b20a5c34fe0558fa967d5e3df4134b6fc933d06c046bb1b504fecaf9e6ca37a3bc2371d0ba267169008d61d090b550652f4ac0c54a86e788959994843bac00000000"
    }
  ]
}