{
  "hash": "000000002baf5fc1698949b53091f2a20958ccd95950e9c1a0ea748cd89537bb",
  "confirmations": 44147,
  "height": 8951,
  "version": 1,
  "versionHex": "00000001",
  "merkleroot": "82b92fd4bac092ae876e8aac957edf834004a55282acef473916303be62f1dd5",
  "time": 1238218746,
  "mediantime": 1238214515,
  "nonce": 482858039,
  "bits": "1d00ffff",
  "difficulty": 1,
  "chainwork": "000000000000000000000000000000000000000000000000000022f822f822f8",
  "nTx": 1,
  "previousblockhash": "0000000087540aa075d0ff6853003831137acc8a2677cf0574b676e202fcd9c4",
  "nextblockhash": "00000000ed514c1e342eb1e74e0e2fbc529fc37d0a1758404ba66225c927f0d5",
  "strippedsize": 216,
  "size": 216,
  "weight": 864,
  "tx": [
    {
      "txid": "82b92fd4bac092ae876e8aac957edf834004a55282acef473916303be62f1dd5",
      "hash": "82b92fd4bac092ae876e8aac957edf834004a55282acef473916303be62f1dd5",
      "version": 1,
      "size": 135,
      "vsize": 135,
      "weight": 540,
      "locktime": 0,
      "vin": [
        {
          "coinbase": "04ffff001d027805",
          "sequence": 4294967295
        }
      ],
      "vout": [
        {
          "value": 50.0,
          "n": 0,
          "scriptPubKey": {
            "asm": "04c1e9d98aa25d96a1e018ef1819ed73759e46e45b40b0f1b4dfbf83cbd28c85bffe5554ba00dbe3446b2a0e0bb52ce8f2b3e3813159af659cd3caf40c91b0f60e OP_CHECKSIG",
            "desc": "pk(04c1e9d98aa25d96a1e018ef1819ed73759e46e45b40b0f1b4dfbf83cbd28c85bffe5554ba00dbe3446b2a0e0bb52ce8f2b3e3813159af659cd3caf40c91b0f60e)#kxmjvzv9",
            "hex": "4104c1e9d98aa25d96a1e018ef1819ed73759e46e45b40b0f1b4dfbf83cbd28c85bffe5554ba00dbe3446b2a0e0bb52ce8f2b3e3813159af659cd3caf40c91b0f60eac",
            "type": "pubkey"
          }
        }
      ],
      "hex": "01000000010000000000000000000000000000000000000000000000000000000000000000ffffffff0804ffff001d027805ffffffff0100f2052a01000000434104c1e9d98aa25d96a1e018ef1819ed73759e46e45b40b0f1b4dfbf83cbd28c85bffe5554ba00dbe3446b2a0e0bb52ce8f2b3e3813159af659cd3caf40c91b0f60eac00000000"
    }
  ]
}