{
  "hash": "00000000c5984a2aebec20e2bd30b84255e7cec2aaa5a9bd56fdd2111e0b7723",
  "confirmations": 45737,
  "height": 7361,
  "version": 1,
  "versionHex": "00000001",
  "merkleroot": "277e0a045de0fbaaaf4a90dee3ce409a08265141194594b9aacfc0bed652194d",
  "time": 1236990024,
  "mediantime": 1236987099,
  "nonce": 8107937,
  "bits": "1d00ffff",
  "difficulty": 1,
  "chainwork": "00000000000000000000000000000000000000000000000000001cc21cc21cc2",
  "nTx": 1,
  "previousblockhash": "00000000a2e098d335c76a032bccae87391c266ea889f7d4ccead547c49887d4",
  "nextblockhash": "00000000a92806c80a2797ac6eca1d5da16df4e8deaa35f3d556221871841c46",
  "strippedsize": 216,
  "size": 216,
  "weight": 864,
  "tx": [
    {
      "txid": "277e0a045de0fbaaaf4a90dee3ce409a08265141194594b9aacfc0bed652194d",
      "hash": "277e0a045de0fbaaaf4a90dee3ce409a08265141194594b9aacfc0bed652194d",
      "version": 1,
      "size": 135,
      "vsize": 135,
      "weight": 540,
      "locktime": 0,
      "vin": [
        {
          "coinbase": "04ffff001d022501",
          "sequence": 4294967295
        }
      ],
      "vout": [
        {
          "value": 50.0,
          "n": 0,
          "scriptPubKey": {
            "asm": "04ea979b45af337e1348c1254fea16ab4ecfb8bbfd0794efa67abb346d095b1d43af8a5136760f9fb2a5164e8db7bb208dd7c0a7fc7839ea8a2790ff8b83c81d07 OP_CHECKSIG",
            "desc": "pk(04ea979b45af337e1348c1254fea16ab4ecfb8bbfd0794efa67abb346d095b1d43af8a5136760f9fb2a5164e8db7bb208dd7c0a7fc7839ea8a2790ff8b83c81d07)#y7cg5xlx",
            "hex": "4104ea979b45af337e1348c1254fea16ab4ecfb8bbfd0794efa67abb346d095b1d43af8a5136760f9fb2a5164e8db7bb208dd7c0a7fc7839ea8a2790ff8b83c81d07ac",
            "type": "pubkey"
          }
        }
      ],
      "hex": "01000000010000000000000000000000000000000000000000000000000000000000000000ffffffff0804ffff001d022501ffffffff0100f2052a01000000434104ea979b45af337e1348c1254fea16ab4ecfb8bbfd0794efa67abb346d095b1d43af8a5136760f9fb2a5164e8db7bb208dd7c0a7fc7839ea8a2790ff8b83c81d07ac00000000"
    }
  ]
}