{
  "hash": "000000002301e5593a516241fa2a884f334c1f1b5883c7109aad1b7f3e168c34",
  "confirmations": 47239,
  "height": 5859,
  "version": 1,
  "versionHex": "00000001",
  "merkleroot": "494bdb6589b3917ab871d8f2a7b3b37ce617f5f86dea293f1358bf5782ef948f",
  "time": 1235808992,
  "mediantime": 1235804441,
  "nonce": 3481298202,
  "bits": "1d00ffff",
  "difficulty": 1,
  "chainwork": "000000000000000000000000000000000000000000000000000016e416e416e4",
  "nTx": 1,
  "previousblockhash": "000000003b00bf0720292e4cbf4a9b90b9b793db6d047532afe3c69784e9c34e",
  "nextblockhash": "00000000f38367acbcdf031b784f66ce4dee8274ae8007e68db34475b8cf707d",
  "strippedsize": 216,
  "size": 216,
  "weight": 864,
  "tx": [
    {
      "txid": "494bdb6589b3917ab871d8f2a7b3b37ce617f5f86dea293f1358bf5782ef948f",
      "hash": "494bdb6589b3917ab871d8f2a7b3b37ce617f5f86dea293f1358bf5782ef948f",
      "version": 1,
      "size": 135,
      "vsize": 135,
      "weight": 540,
      "locktime": 0,
      "vin": [
        {
          "coinbase": "04ffff001d021c02",
          "sequence": 4294967295
        }
      ],
      "vout": [
        {
          "value": 50.0,
          "n": 0,
          "scriptPubKey": {
            "asm": "04fbda361963c7e2a7a5c6a7ffee7d2b72fe0df653d29a48694757adcb184d6d7d7955f85e03c9bce1758c9773b6a272d876d4c403c8b3a6468e59a78c18d49f0c OP_CHECKSIG",
            "desc": "pk(04fbda361963c7e2a7a5c6a7ffee7d2b72fe0df653d29a48694757adcb184d6d7d7955f85e03c9bce1758c9773b6a272d876d4c403c8b3a6468e59a78c18d49f0c)#y44ya2dv",
            "hex": "4104fbda361963c7e2a7a5c6a7ffee7d2b72fe0df653d29a48694757adcb184d6d7d7955f85e03c9bce1758c9773b6a272d876d4c403c8b3a6468e59a78c18d49f0cac",
            "type": "pubkey"
          }
        }
      ],
      "hex": "01000000010000000000000000000000000000000000000000000000000000000000000000ffffffff0804ffff001d021c02ffffffff0100f2052a01000000434104fbda361963c7e2a7a5c6a7ffee7d2b72fe0df653d29a48694757adcb184d6d7d7955f85e03c9bce1758c9773b6a272d876d4c403c8b3a6468e59a78c18d49f0cac00000000"
    }
  ]
}