{
  "hash": "00000000860c6496748e13bf192d9a183d43e624be095b0843aa7fcac6eee317",
  "confirmations": 52252,
  "height": 846,
  "version": 1,
  "versionHex": "00000001",
  "merkleroot": "5c27fd414e4c9ef031482d6f6c1fea4de73613dc44163982f08d90697706645d",
  "time": 1232225685,
  "mediantime": 1232223492,
  "nonce": 955222048,
  "bits": "1d00ffff",
  "difficulty": 1,
  "chainwork": "0000000000000000000000000000000000000000000000000000034f034f034f",
  "nTx": 1,
  "previousblockhash": "00000000a33e8edf4d2fea75ac94487f3140d36ce8110048dd928e63370f4f44",
  "nextblockhash": "00000000bf8956b891713a9f303a948d21d2ea5f604d2378ef08b14afc8e9e78",
  "strippedsize": 216,
  "size": 216,
  "weight": 864,
  "tx": [
    {
      "txid": "5c27fd414e4c9ef031482d6f6c1fea4de73613dc44163982f08d90697706645d",
      "hash": "5c27fd414e4c9ef031482d6f6c1fea4de73613dc44163982f08d90697706645d",
      "version": 1,
      "size": 135,
      "vsize": 135,
      "weight": 540,
      "locktime": 0,
      "vin": [
        {
          "coinbase": "04ffff001d025402",
          "sequence": 4294967295
        }
      ],
      "vout": [
        {
          "value": 50.0,
          "n": 0,
          "scriptPubKey": {
            "asm": "04e094119e4189678d3f67ed1c165e8f342f4d641aa67a5561ab0f47712d5c3621c9fbd64a3e97e1b1752b96f7fad39389a7559184247939571f4ec7b0e9290267 OP_CHECKSIG",
            "desc": "pk(04e094119e4189678d3f67ed1c165e8f342f4d641aa67a5561ab0f47712d5c3621c9fbd64a3e97e1b1752b96f7fad39389a7559184247939571f4ec7b0e9290267)#zmwzkpr7",
            "hex": "4104e094119e4189678d3f67ed1c165e8f342f4d641aa67a5561ab0f47712d5c3621c9fbd64a3e97e1b1752b96f7fad39389a7559184247939571f4ec7b0e9290267ac",
            "type": "pubkey"
          }
        }
      ],
      "hex": "01000000010000000000000000000000000000000000000000000000000000000000000000ffffffff0804ffff001d025402ffffffff0100f2052a01000000434104e094119e4189678d3f67ed1c165e8f342f4d641aa67a5561ab0f47712d5c3621c9fbd64a3e97e1b1752b96f7fad39389a7559184247939571f4ec7b0e9290267ac00000000"
    }
  ]
}