{
  "hash": "00000000b96305605f1eb5ab800024ff3fa260deedf6005e1e3987daa11d3935",
  "confirmations": 52509,
  "height": 589,
  "version": 1,
  "versionHex": "00000001",
  "merkleroot": "374d0815726b8c77ff5a80c69892c09b2560c14b377c2c0f270b0aeb4741c869",
  "time": 1232032416,
  "mediantime": 1232027566,
  "nonce": 2609067557,
  "bits": "1d00ffff",
  "difficulty": 1,
  "chainwork": "0000000000000000000000000000000000000000000000000000024e024e024e",
  "nTx": 1,
  "previousblockhash": "00000000b9d2de60c26ad0ff1289bb6c97529cac7c5a37571900a0e6be77dca8",
  "nextblockhash": "000000008ba08cce0c4845673a55800603a6e24be4c9977bc977fbb359db0078",
  "strippedsize": 216,
  "size": 216,
  "weight": 864,
  "tx": [
    {
      "txid": "374d0815726b8c77ff5a80c69892c09b2560c14b377c2c0f270b0aeb4741c869",
      "hash": "374d0815726b8c77ff5a80c69892c09b2560c14b377c2c0f270b0aeb4741c869",
      "version": 1,
      "size": 135,
      "vsize": 135,
      "weight": 540,
      "locktime": 0,
      "vin": [
        {
          "coinbase": "04ffff001d028206",
          "sequence": 4294967295
        }
      ],
      "vout": [
        {
          "value": 50.0,
          "n": 0,
          "scriptPubKey": {
            "asm": "04f541a63ea381fa83901c1c4538cba5f4cb4639e6f78d749a8cbc8fe4b1e21ebc48c42ea73ea0aa242f4ba0f4450d6cb0a330754090a1536fdb26d6bcd41f5cb9 OP_CHECKSIG",
            "desc": "pk(04f541a63ea381fa83901c1c4538cba5f4cb4639e6f78d749a8cbc8fe4b1e21ebc48c42ea73ea0aa242f4ba0f4450d6cb0a330754090a1536fdb26d6bcd41f5cb9)#3frrnkp8",
            "hex": "4104f541a63ea381fa83901c1c4538cba5f4cb4639e6f78d749a8cbc8fe4b1e21ebc48c42ea73ea0aa242f4ba0f4450d6cb0a330754090a1536fdb26d6bcd41f5cb9ac",
            "type": "pubkey"
          }
        }
      ],
      "hex": "01000000010000000000000000000000000000000000000000000000000000000000000000ffffffff0804ffff001d028206ffffffff0100f2052a01000000434104f541a63ea381fa83901c1c4538cba5f4cb4639e6f78d749a8cbc8fe4b1e21ebc48c42ea73ea0aa242f4ba0f4450d6cb0a330754090a1536fdb26d6bcd41f5cb9ac00000000"
    }
  ]
}