{
  "hash": "000000006163eb62074580c67500056146ccdbf1b7c8c48566f752e2f4971cc6",
  "confirmations": 46472,
  "height": 6626,
  "version": 1,
  "versionHex": "00000001",
  "merkleroot": "8bcc9b3f2cc24c9b9eed56232fd3424078f2ff9c86fa7d42152a77e7144b5703",
  "time": 1236422937,
  "mediantime": 1236419366,
  "nonce": 670642488,
  "bits": "1d00ffff",
  "difficulty": 1,
  "chainwork": "000000000000000000000000000000000000000000000000000019e319e319e3",
  "nTx": 1,
  "previousblockhash": "000000007399345e02b91dcd09f912612c2f5edbbec7cebd10eb98e96b97093f",
  "nextblockhash": "0000000016dd4dfa448162b44668342ef93b73b31c94c44e0c09163adfadd904",
  "strippedsize": 216,
  "size": 216,
  "weight": 864,
  "tx": [
    {
      "txid": "8bcc9b3f2cc24c9b9eed56232fd3424078f2ff9c86fa7d42152a77e7144b5703",
      "hash": "8bcc9b3f2cc24c9b9eed56232fd3424078f2ff9c86fa7d42152a77e7144b5703",
      "version": 1,
      "size": 135,
      "vsize": 135,
      "weight": 540,
      "locktime": 0,
      "vin": [
        {
          "coinbase": "04ffff001d029905",
          "sequence": 4294967295
        }
      ],
      "vout": [
        {
          "value": 50.0,
          "n": 0,
          "scriptPubKey": {
            "asm": "04d320249837f65eb5ff39d985f6ba6681af378fd7b17b979d1e23b3949ee7e37dfad87a3a06a5529ae1e73a5517293f198b5c32b4594f7f911a360ad3de54072c OP_CHECKSIG",
            "desc": "pk(04d320249837f65eb5ff39d985f6ba6681af378fd7b17b979d1e23b3949ee7e37dfad87a3a06a5529ae1e73a5517293f198b5c32b4594f7f911a360ad3de54072c)#ltr6n27y",
            "hex": "4104d320249837f65eb5ff39d985f6ba6681af378fd7b17b979d1e23b3949ee7e37dfad87a3a06a5529ae1e73a5517293f198b5c32b4594f7f911a360ad3de54072cac",
            "type": "pubkey"
          }
        }
      ],
      "hex": "01000000010000000000000000000000000000000000000000000000000000000000000000ffffffff0804ffff001d029905ffffffff0100f2052a01000000434104d320249837f65eb5ff39d985f6ba6681af378fd7b17b979d1e23b3949ee7e37dfad87a3a06a5529ae1e73a5517293f198b5c32b4594f7f911a360ad3de54072cac00000000"
    }
  ]
}