{
  "hash": "00000000f2ecfd89ee93cb3c4c9ccdb96f8edcd8785f4b9299916ebc035972c0",
  "confirmations": 44838,
  "height": 8260,
  "version": 1,
  "versionHex": "00000001",
  "merkleroot": "f650495ef3d7749d294c6c3f882356e249705676170acc57dabcb40ba6c07f72",
  "time": 1237704472,
  "mediantime": 1237700289,
  "nonce": 2480880897,
  "bits": "1d00ffff",
  "difficulty": 1,
  "chainwork": "0000000000000000000000000000000000000000000000000000204520452045",
  "nTx": 1,
  "previousblockhash": "0000000096ebcd20e619b7c67b2de6e01c5362864c25302da3e2a07750d5bb9a",
  "nextblockhash": "000000007d9ce5771c37918162b59f093329e00973feeb9e53f568950057625d",
  "strippedsize": 216,
  "size": 216,
  "weight": 864,
  "tx": [
    {
      "txid": "f650495ef3d7749d294c6c3f882356e249705676170acc57dabcb40ba6c07f72",
      "hash": "f650495ef3d7749d294c6c3f882356e249705676170acc57dabcb40ba6c07f72",
      "version": 1,
      "size": 135,
      "vsize": 135,
      "weight": 540,
      "locktime": 0,
      "vin": [
        {
          "coinbase": "04ffff001d029d03",
          "sequence": 4294967295
        }
      ],
      "vout": [
        {
          "value": 50.0,
          "n": 0,
          "scriptPubKey": {
            "asm": "0483932286c1107d3814f349353372dc0a1d296c2c4e3b3738a1c89c77e456d02230cdc1a3d21cbd7ac9977e951139654b53790e3b058d9e1aecab99316c4d8d01 OP_CHECKSIG",
            "desc": "pk(0483932286c1107d3814f349353372dc0a1d296c2c4e3b3738a1c89c77e456d02230cdc1a3d21cbd7ac9977e951139654b53790e3b058d9e1aecab99316c4d8d01)#ytg8tqws",
            "hex": "410483932286c1107d3814f349353372dc0a1d296c2c4e3b3738a1c89c77e456d02230cdc1a3d21cbd7ac9977e951139654b53790e3b058d9e1aecab99316c4d8d01ac",
            "type": "pubkey"
          }
        }
      ],
      "hex": "01000000010000000000000000000000000000000000000000000000000000000000000000ffffffff0804ffff001d029d03ffffffff0100f2052a0100000043410483932286c1107d3814f349353372dc0a1d296c2c4e3b3738a1c89c77e456d02230cdc1a3d21cbd7ac9977e951139654b53790e3b058d9e1aecab99316c4d8d01ac00000000"
    }
  ]
}