{
  "hash": "000000004cd838ab97d7529e8e03a17fdee9dcc197c225093dec1c5250325105",
  "confirmations": 45019,
  "height": 8079,
  "version": 1,
  "versionHex": "00000001",
  "merkleroot": "cf90006d4405d8afe16b9757f800010f72020037ab980c7802980c10636c7f36",
  "time": 1237516442,
  "mediantime": 1237514165,
  "nonce": 959930917,
  "bits": "1d00ffff",
  "difficulty": 1,
  "chainwork": "00000000000000000000000000000000000000000000000000001f901f901f90",
  "nTx": 1,
  "previousblockhash": "00000000812a68cab38022bad2a966e01cce1704ab870bfaa3bcd68df2a86daf",
  "nextblockhash": "00000000f8a1380a7c6d0cf14b72823d046bab5777828a7156a12b258a6099b9",
  "strippedsize": 216,
  "size": 216,
  "weight": 864,
  "tx": [
    {
      "txid": "cf90006d4405d8afe16b9757f800010f72020037ab980c7802980c10636c7f36",
      "hash": "cf90006d4405d8afe16b9757f800010f72020037ab980c7802980c10636c7f36",
      "version": 1,
      "size": 135,
      "vsize": 135,
      "weight": 540,
      "locktime": 0,
      "vin": [
        {
          "coinbase": "04ffff001d02c700",
          "sequence": 4294967295
        }
      ],
      "vout": [
        {
          "value": 50.0,
          "n": 0,
          "scriptPubKey": {
            "asm": "04f2b20779cedfa1730d84a9fa33b20baa4dbb06409bcc40d5cded24f71e877eedcbac23e468f530f8b2af7da5be4ec81e960251d5cb368f082856916b9dcba233 OP_CHECKSIG",
            "desc": "pk(04f2b20779cedfa1730d84a9fa33b20baa4dbb06409bcc40d5cded24f71e877eedcbac23e468f530f8b2af7da5be4ec81e960251d5cb368f082856916b9dcba233)#02deycwt",
            "hex": "4104f2b20779cedfa1730d84a9fa33b20baa4dbb06409bcc40d5cded24f71e877eedcbac23e468f530f8b2af7da5be4ec81e960251d5cb368f082856916b9dcba233ac",
            "type": "pubkey"
          }
        }
      ],
      "hex": "01000000010000000000000000000000000000000000000000000000000000000000000000ffffffff0804ffff001d02c700ffffffff0100f2052a01000000434104f2b20779cedfa1730d84a9fa33b20baa4dbb06409bcc40d5cded24f71e877eedcbac23e468f530f8b2af7da5be4ec81e960251d5cb368f082856916b9dcba233ac00000000"
    }
  ]
}