{
  "hash": "00000000b5f612cfc098368210f90e3aa7252e0fc159b0c221878dc00eb8b318",
  "confirmations": 44108,
  "height": 8990,
  "version": 1,
  "versionHex": "00000001",
  "merkleroot": "fec2474bf2ca636faef3dfb74c70b1d81c25f45ddbba4c82618a2599131c8166",
  "time": 1238245579,
  "mediantime": 1238241207,
  "nonce": 2237133062,
  "bits": "1d00ffff",
  "difficulty": 1,
  "chainwork": "0000000000000000000000000000000000000000000000000000231f231f231f",
  "nTx": 1,
  "previousblockhash": "000000006c357df6424112ff33dabaa2938b36716bfb3086fc9593cd56df9f16",
  "nextblockhash": "000000004b6ade3688cdad7b6f78ba650503cf986d13ae3750ccb44ff2785443",
  "strippedsize": 216,
  "size": 216,
  "weight": 864,
  "tx": [
    {
      "txid": "fec2474bf2ca636faef3dfb74c70b1d81c25f45ddbba4c82618a2599131c8166",
      "hash": "fec2474bf2ca636faef3dfb74c70b1d81c25f45ddbba4c82618a2599131c8166",
      "version": 1,
      "size": 135,
      "vsize": 135,
      "weight": 540,
      "locktime": 0,
      "vin": [
        {
          "coinbase": "04ffff001d023306",
          "sequence": 4294967295
        }
      ],
      "vout": [
        {
          "value": 50.0,
          "n": 0,
          "scriptPubKey": {
            "asm": "04b55b6668ddaba7ab910b2ccda37e4819600f62fc7f46d24c638b9d0657b85df5b14eab2dd079df2a7d4c387a3786a8d0bec6ad1c41870071b9cae40e3ed7b596 OP_CHECKSIG",
            "desc": "pk(04b55b6668ddaba7ab910b2ccda37e4819600f62fc7f46d24c638b9d0657b85df5b14eab2dd079df2a7d4c387a3786a8d0bec6ad1c41870071b9cae40e3ed7b596)#688g6qmd",
            "hex": "4104b55b6668ddaba7ab910b2ccda37e4819600f62fc7f46d24c638b9d0657b85df5b14eab2dd079df2a7d4c387a3786a8d0bec6ad1c41870071b9cae40e3ed7b596ac",
            "type": "pubkey"
          }
        }
      ],
      "hex": "01000000010000000000000000000000000000000000000000000000000000000000000000ffffffff0804ffff001d023306ffffffff0100f2052a01000000434104b55b6668ddaba7ab910b2ccda37e4819600f62fc7f46d24c638b9d0657b85df5b14eab2dd079df2a7d4c387a3786a8d0bec6ad1c41870071b9cae40e3ed7b596ac00000000"
    }
  ]
}