{
  "hash": "00000000b9081b0b54959ad619607692c4dff547cf1cf806c206ad6a8739bebf",
  "confirmations": 43962,
  "height": 9136,
  "version": 1,
  "versionHex": "00000001",
  "merkleroot": "70becba0179ef79f836e35df69f927a5ed532d43e6cc2ad3647fba6bb14255f6",
  "time": 1238357376,
  "mediantime": 1238352947,
  "nonce": 3134143771,
  "bits": "1d00ffff",
  "difficulty": 1,
  "chainwork": "000000000000000000000000000000000000000000000000000023b123b123b1",
  "nTx": 1,
  "previousblockhash": "00000000cb9d89fb1bfd6119e1f2542775a5741bad07d0382e19db73cd92183e",
  "nextblockhash": "00000000d3031c2856c7735b405c5c507d1dad8751e7c14298d9c1cea54133a4",
  "strippedsize": 216,
  "size": 216,
  "weight": 864,
  "tx": [
    {
      "txid": "70becba0179ef79f836e35df69f927a5ed532d43e6cc2ad3647fba6bb14255f6",
      "hash": "70becba0179ef79f836e35df69f927a5ed532d43e6cc2ad3647fba6bb14255f6",
      "version": 1,
      "size": 135,
      "vsize": 135,
      "weight": 540,
      "locktime": 0,
      "vin": [
        {
          "coinbase": "04ffff001d020b09",
          "sequence": 4294967295
        }
      ],
      "vout": [
        {
          "value": 50.0,
          "n": 0,
          "scriptPubKey": {
            "asm": "04052b2ebdff43f89ad18c4ff3bb99e8b7e40fa02d75aad742214801cb58c1a517972f125aa4721fa8f3896c5f4751db4de96c7453aed0c4564e9806d25a8ddea4 OP_CHECKSIG",
            "desc": "pk(04052b2ebdff43f89ad18c4ff3bb99e8b7e40fa02d75aad742214801cb58c1a517972f125aa4721fa8f3896c5f4751db4de96c7453aed0c4564e9806d25a8ddea4)#j7x8t694",
            "hex": "4104052b2ebdff43f89ad18c4ff3bb99e8b7e40fa02d75aad742214801cb58c1a517972f125aa4721fa8f3896c5f4751db4de96c7453aed0c4564e9806d25a8ddea4ac",
            "type": "pubkey"
          }
        }
      ],
      "hex": "01000000010000000000000000000000000000000000000000000000000000000000000000ffffffff0804ffff001d020b09ffffffff0100f2052a01000000434104052b2ebdff43f89ad18c4ff3bb99e8b7e40fa02d75aad742214801cb58c1a517972f125aa4721fa8f3896c5f4751db4de96c7453aed0c4564e9806d25a8ddea4ac00000000"
    }
  ]
}